{
	"contracts/GeekNftMarketPlace.sol": {
		"GeekNftMarketPlace": {
			"abi": [
				{
					"inputs": [],
					"stateMutability": "nonpayable",
					"type": "constructor"
				},
				{
					"anonymous": false,
					"inputs": [
						{
							"indexed": false,
							"internalType": "address",
							"name": "nftContract",
							"type": "address"
						},
						{
							"indexed": false,
							"internalType": "uint256",
							"name": "tokenId",
							"type": "uint256"
						},
						{
							"indexed": true,
							"internalType": "address",
							"name": "seller",
							"type": "address"
						},
						{
							"indexed": true,
							"internalType": "address",
							"name": "owner",
							"type": "address"
						},
						{
							"indexed": false,
							"internalType": "uint256",
							"name": "price",
							"type": "uint256"
						}
					],
					"name": "NFTListed",
					"type": "event"
				},
				{
					"anonymous": false,
					"inputs": [
						{
							"indexed": false,
							"internalType": "address",
							"name": "nftContract",
							"type": "address"
						},
						{
							"indexed": false,
							"internalType": "uint256",
							"name": "tokenId",
							"type": "uint256"
						},
						{
							"indexed": true,
							"internalType": "address",
							"name": "seller",
							"type": "address"
						},
						{
							"indexed": true,
							"internalType": "address",
							"name": "owner",
							"type": "address"
						},
						{
							"indexed": false,
							"internalType": "uint256",
							"name": "price",
							"type": "uint256"
						}
					],
					"name": "NFTSold",
					"type": "event"
				},
				{
					"inputs": [],
					"name": "LISTING_FEE",
					"outputs": [
						{
							"internalType": "uint256",
							"name": "",
							"type": "uint256"
						}
					],
					"stateMutability": "view",
					"type": "function"
				},
				{
					"inputs": [
						{
							"internalType": "address",
							"name": "_nftContract",
							"type": "address"
						},
						{
							"internalType": "uint256",
							"name": "_tokenId",
							"type": "uint256"
						}
					],
					"name": "buyNft",
					"outputs": [],
					"stateMutability": "payable",
					"type": "function"
				},
				{
					"inputs": [],
					"name": "getListingFee",
					"outputs": [
						{
							"internalType": "uint256",
							"name": "",
							"type": "uint256"
						}
					],
					"stateMutability": "view",
					"type": "function"
				},
				{
					"inputs": [
						{
							"internalType": "address",
							"name": "_nftContract",
							"type": "address"
						},
						{
							"internalType": "uint256",
							"name": "_tokenId",
							"type": "uint256"
						},
						{
							"internalType": "uint256",
							"name": "_price",
							"type": "uint256"
						}
					],
					"name": "listNFT",
					"outputs": [],
					"stateMutability": "payable",
					"type": "function"
				},
				{
					"inputs": [
						{
							"internalType": "address",
							"name": "_nftContract",
							"type": "address"
						},
						{
							"internalType": "uint256",
							"name": "_tokenId",
							"type": "uint256"
						},
						{
							"internalType": "uint256",
							"name": "_price",
							"type": "uint256"
						}
					],
					"name": "resellNFT",
					"outputs": [],
					"stateMutability": "payable",
					"type": "function"
				}
			],
			"devdoc": {
				"kind": "dev",
				"methods": {},
				"version": 1
			},
			"evm": {
				"assembly": "    /* \"contracts/GeekNftMarketPlace.sol\":252:3246  contract GeekNftMarketPlace is ReentrancyGuard {... */\n  mstore(0x40, 0x80)\n    /* \"contracts/GeekNftMarketPlace.sol\":455:466  0.002 ether */\n  0x071afd498d0000\n    /* \"contracts/GeekNftMarketPlace.sol\":429:466  uint public LISTING_FEE = 0.002 ether */\n  0x03\n  sstore\n    /* \"contracts/GeekNftMarketPlace.sol\":1001:1067  constructor() {... */\n  callvalue\n  dup1\n  iszero\n  tag_1\n  jumpi\n  0x00\n  dup1\n  revert\ntag_1:\n  pop\n    /* \"contracts/RenntrancyGuard.sol\":127:128  1 */\n  0x01\n    /* \"contracts/RenntrancyGuard.sol\":232:239  _status */\n  0x00\n    /* \"contracts/RenntrancyGuard.sol\":232:254  _status = _NOT_ENTERED */\n  dup2\n  swap1\n  sstore\n  pop\n    /* \"contracts/GeekNftMarketPlace.sol\":1049:1059  msg.sender */\n  caller\n    /* \"contracts/GeekNftMarketPlace.sol\":1025:1038  _marketOwwner */\n  0x04\n  0x00\n    /* \"contracts/GeekNftMarketPlace.sol\":1025:1060  _marketOwwner = payable(msg.sender) */\n  0x0100\n  exp\n  dup2\n  sload\n  dup2\n  0xffffffffffffffffffffffffffffffffffffffff\n  mul\n  not\n  and\n  swap1\n  dup4\n  0xffffffffffffffffffffffffffffffffffffffff\n  and\n  mul\n  or\n  swap1\n  sstore\n  pop\n    /* \"contracts/GeekNftMarketPlace.sol\":252:3246  contract GeekNftMarketPlace is ReentrancyGuard {... */\n  dataSize(sub_0)\n  dup1\n  dataOffset(sub_0)\n  0x00\n  codecopy\n  0x00\n  return\nstop\n\nsub_0: assembly {\n        /* \"contracts/GeekNftMarketPlace.sol\":252:3246  contract GeekNftMarketPlace is ReentrancyGuard {... */\n      mstore(0x40, 0x80)\n      jumpi(tag_1, lt(calldatasize, 0x04))\n      shr(0xe0, calldataload(0x00))\n      dup1\n      0x04935694\n      eq\n      tag_2\n      jumpi\n      dup1\n      0x2b86ae38\n      eq\n      tag_3\n      jumpi\n      dup1\n      0x4ddf4f8f\n      eq\n      tag_4\n      jumpi\n      dup1\n      0xad05f1b4\n      eq\n      tag_5\n      jumpi\n      dup1\n      0xb8fe6abe\n      eq\n      tag_6\n      jumpi\n    tag_1:\n      0x00\n      dup1\n      revert\n        /* \"contracts/GeekNftMarketPlace.sol\":2568:3214  function resellNFT(address _nftContract, uint _tokenId, uint _price) public payable nonReentrant{... */\n    tag_2:\n      tag_7\n      0x04\n      dup1\n      calldatasize\n      sub\n      dup2\n      add\n      swap1\n      tag_8\n      swap2\n      swap1\n      tag_9\n      jump\t// in\n    tag_8:\n      tag_10\n      jump\t// in\n    tag_7:\n      stop\n        /* \"contracts/GeekNftMarketPlace.sol\":429:466  uint public LISTING_FEE = 0.002 ether */\n    tag_3:\n      callvalue\n      dup1\n      iszero\n      tag_11\n      jumpi\n      0x00\n      dup1\n      revert\n    tag_11:\n      pop\n      tag_12\n      tag_13\n      jump\t// in\n    tag_12:\n      mload(0x40)\n      tag_14\n      swap2\n      swap1\n      tag_15\n      jump\t// in\n    tag_14:\n      mload(0x40)\n      dup1\n      swap2\n      sub\n      swap1\n      return\n        /* \"contracts/GeekNftMarketPlace.sol\":1953:2513  function buyNft(address _nftContract, uint _tokenId) public payable nonReentrant{... */\n    tag_4:\n      tag_16\n      0x04\n      dup1\n      calldatasize\n      sub\n      dup2\n      add\n      swap1\n      tag_17\n      swap2\n      swap1\n      tag_18\n      jump\t// in\n    tag_17:\n      tag_19\n      jump\t// in\n    tag_16:\n      stop\n        /* \"contracts/GeekNftMarketPlace.sol\":1204:1929  function listNFT(address _nftContract, uint _tokenId, uint _price) public payable nonReentrant{... */\n    tag_5:\n      tag_20\n      0x04\n      dup1\n      calldatasize\n      sub\n      dup2\n      add\n      swap1\n      tag_21\n      swap2\n      swap1\n      tag_9\n      jump\t// in\n    tag_21:\n      tag_22\n      jump\t// in\n    tag_20:\n      stop\n        /* \"contracts/GeekNftMarketPlace.sol\":1073:1159  function getListingFee() public view returns (uint){... */\n    tag_6:\n      callvalue\n      dup1\n      iszero\n      tag_23\n      jumpi\n      0x00\n      dup1\n      revert\n    tag_23:\n      pop\n      tag_24\n      tag_25\n      jump\t// in\n    tag_24:\n      mload(0x40)\n      tag_26\n      swap2\n      swap1\n      tag_15\n      jump\t// in\n    tag_26:\n      mload(0x40)\n      dup1\n      swap2\n      sub\n      swap1\n      return\n        /* \"contracts/GeekNftMarketPlace.sol\":2568:3214  function resellNFT(address _nftContract, uint _tokenId, uint _price) public payable nonReentrant{... */\n    tag_10:\n        /* \"contracts/RenntrancyGuard.sol\":170:171  2 */\n      0x02\n        /* \"contracts/RenntrancyGuard.sol\":309:316  _status */\n      sload(0x00)\n        /* \"contracts/RenntrancyGuard.sol\":309:328  _status != _ENTERED */\n      eq\n      iszero\n        /* \"contracts/RenntrancyGuard.sol\":301:364  require(_status != _ENTERED, \"ReentrancyGuard: reentrant call\") */\n      tag_28\n      jumpi\n      mload(0x40)\n      0x08c379a000000000000000000000000000000000000000000000000000000000\n      dup2\n      mstore\n      0x04\n      add\n      tag_29\n      swap1\n      tag_30\n      jump\t// in\n    tag_29:\n      mload(0x40)\n      dup1\n      swap2\n      sub\n      swap1\n      revert\n    tag_28:\n        /* \"contracts/RenntrancyGuard.sol\":170:171  2 */\n      0x02\n        /* \"contracts/RenntrancyGuard.sol\":374:381  _status */\n      0x00\n        /* \"contracts/RenntrancyGuard.sol\":374:392  _status = _ENTERED */\n      dup2\n      swap1\n      sstore\n      pop\n        /* \"contracts/GeekNftMarketPlace.sol\":2691:2692  0 */\n      0x00\n        /* \"contracts/GeekNftMarketPlace.sol\":2682:2688  _price */\n      dup2\n        /* \"contracts/GeekNftMarketPlace.sol\":2682:2692  _price > 0 */\n      gt\n        /* \"contracts/GeekNftMarketPlace.sol\":2674:2725  require(_price > 0, \"Price must be at least 1 wei\") */\n      tag_32\n      jumpi\n      mload(0x40)\n      0x08c379a000000000000000000000000000000000000000000000000000000000\n      dup2\n      mstore\n      0x04\n      add\n      tag_33\n      swap1\n      tag_34\n      jump\t// in\n    tag_33:\n      mload(0x40)\n      dup1\n      swap2\n      sub\n      swap1\n      revert\n    tag_32:\n        /* \"contracts/GeekNftMarketPlace.sol\":2756:2767  LISTING_FEE */\n      sload(0x03)\n        /* \"contracts/GeekNftMarketPlace.sol\":2743:2752  msg.value */\n      callvalue\n        /* \"contracts/GeekNftMarketPlace.sol\":2743:2767  msg.value == LISTING_FEE */\n      eq\n        /* \"contracts/GeekNftMarketPlace.sol\":2735:2804  require(msg.value == LISTING_FEE, \"Not enough ether for listing fee\") */\n      tag_35\n      jumpi\n      mload(0x40)\n      0x08c379a000000000000000000000000000000000000000000000000000000000\n      dup2\n      mstore\n      0x04\n      add\n      tag_36\n      swap1\n      tag_37\n      jump\t// in\n    tag_36:\n      mload(0x40)\n      dup1\n      swap2\n      sub\n      swap1\n      revert\n    tag_35:\n        /* \"contracts/GeekNftMarketPlace.sol\":2832:2844  _nftContract */\n      dup3\n        /* \"contracts/GeekNftMarketPlace.sol\":2815:2858  GeekNftInterface(_nftContract).transferFrom */\n      0xffffffffffffffffffffffffffffffffffffffff\n      and\n      0x23b872dd\n        /* \"contracts/GeekNftMarketPlace.sol\":2859:2869  msg.sender */\n      caller\n        /* \"contracts/GeekNftMarketPlace.sol\":2879:2883  this */\n      address\n        /* \"contracts/GeekNftMarketPlace.sol\":2886:2894  _tokenId */\n      dup6\n        /* \"contracts/GeekNftMarketPlace.sol\":2815:2895  GeekNftInterface(_nftContract).transferFrom(msg.sender, address(this), _tokenId) */\n      mload(0x40)\n      dup5\n      0xffffffff\n      and\n      0xe0\n      shl\n      dup2\n      mstore\n      0x04\n      add\n      tag_38\n      swap4\n      swap3\n      swap2\n      swap1\n      tag_39\n      jump\t// in\n    tag_38:\n      0x00\n      mload(0x40)\n      dup1\n      dup4\n      sub\n      dup2\n      0x00\n      dup8\n      dup1\n      extcodesize\n      iszero\n      dup1\n      iszero\n      tag_40\n      jumpi\n      0x00\n      dup1\n      revert\n    tag_40:\n      pop\n      gas\n      call\n      iszero\n      dup1\n      iszero\n      tag_42\n      jumpi\n      returndatasize\n      0x00\n      dup1\n      returndatacopy\n      revert(0x00, returndatasize)\n    tag_42:\n      pop\n      pop\n      pop\n      pop\n        /* \"contracts/GeekNftMarketPlace.sol\":2906:2921  NFT storage nft */\n      0x00\n        /* \"contracts/GeekNftMarketPlace.sol\":2924:2932  _idToNft */\n      0x05\n        /* \"contracts/GeekNftMarketPlace.sol\":2924:2942  _idToNft[_tokenId] */\n      0x00\n        /* \"contracts/GeekNftMarketPlace.sol\":2933:2941  _tokenId */\n      dup5\n        /* \"contracts/GeekNftMarketPlace.sol\":2924:2942  _idToNft[_tokenId] */\n      dup2\n      mstore\n      0x20\n      add\n      swap1\n      dup2\n      mstore\n      0x20\n      add\n      0x00\n      keccak256\n        /* \"contracts/GeekNftMarketPlace.sol\":2906:2942  NFT storage nft = _idToNft[_tokenId] */\n      swap1\n      pop\n        /* \"contracts/GeekNftMarketPlace.sol\":2973:2983  msg.sender */\n      caller\n        /* \"contracts/GeekNftMarketPlace.sol\":2952:2955  nft */\n      dup2\n        /* \"contracts/GeekNftMarketPlace.sol\":2952:2962  nft.seller */\n      0x03\n      add\n      0x00\n        /* \"contracts/GeekNftMarketPlace.sol\":2952:2984  nft.seller = payable(msg.sender) */\n      0x0100\n      exp\n      dup2\n      sload\n      dup2\n      0xffffffffffffffffffffffffffffffffffffffff\n      mul\n      not\n      and\n      swap1\n      dup4\n      0xffffffffffffffffffffffffffffffffffffffff\n      and\n      mul\n      or\n      swap1\n      sstore\n      pop\n        /* \"contracts/GeekNftMarketPlace.sol\":3022:3026  this */\n      address\n        /* \"contracts/GeekNftMarketPlace.sol\":2994:2997  nft */\n      dup2\n        /* \"contracts/GeekNftMarketPlace.sol\":2994:3003  nft.owner */\n      0x04\n      add\n      0x00\n        /* \"contracts/GeekNftMarketPlace.sol\":2994:3028  nft.owner = payable(address(this)) */\n      0x0100\n      exp\n      dup2\n      sload\n      dup2\n      0xffffffffffffffffffffffffffffffffffffffff\n      mul\n      not\n      and\n      swap1\n      dup4\n      0xffffffffffffffffffffffffffffffffffffffff\n      and\n      mul\n      or\n      swap1\n      sstore\n      pop\n        /* \"contracts/GeekNftMarketPlace.sol\":3051:3055  true */\n      0x01\n        /* \"contracts/GeekNftMarketPlace.sol\":3038:3041  nft */\n      dup2\n        /* \"contracts/GeekNftMarketPlace.sol\":3038:3048  nft.listed */\n      0x05\n      add\n      0x14\n        /* \"contracts/GeekNftMarketPlace.sol\":3038:3055  nft.listed = true */\n      0x0100\n      exp\n      dup2\n      sload\n      dup2\n      0xff\n      mul\n      not\n      and\n      swap1\n      dup4\n      iszero\n      iszero\n      mul\n      or\n      swap1\n      sstore\n      pop\n        /* \"contracts/GeekNftMarketPlace.sol\":3077:3083  _price */\n      dup2\n        /* \"contracts/GeekNftMarketPlace.sol\":3065:3068  nft */\n      dup2\n        /* \"contracts/GeekNftMarketPlace.sol\":3065:3074  nft.price */\n      0x02\n      add\n        /* \"contracts/GeekNftMarketPlace.sol\":3065:3083  nft.price = _price */\n      dup2\n      swap1\n      sstore\n      pop\n        /* \"contracts/GeekNftMarketPlace.sol\":3094:3115  _nftsSold.decrement() */\n      tag_43\n        /* \"contracts/GeekNftMarketPlace.sol\":3094:3103  _nftsSold */\n      0x01\n        /* \"contracts/GeekNftMarketPlace.sol\":3094:3113  _nftsSold.decrement */\n      tag_44\n        /* \"contracts/GeekNftMarketPlace.sol\":3094:3115  _nftsSold.decrement() */\n      jump\t// in\n    tag_43:\n        /* \"contracts/GeekNftMarketPlace.sol\":3193:3197  this */\n      address\n        /* \"contracts/GeekNftMarketPlace.sol\":3139:3207  NFTListed(_nftContract, _tokenId, msg.sender, address(this), _price) */\n      0xffffffffffffffffffffffffffffffffffffffff\n      and\n        /* \"contracts/GeekNftMarketPlace.sol\":3173:3183  msg.sender */\n      caller\n        /* \"contracts/GeekNftMarketPlace.sol\":3139:3207  NFTListed(_nftContract, _tokenId, msg.sender, address(this), _price) */\n      0xffffffffffffffffffffffffffffffffffffffff\n      and\n      0xa0c6c0d02d86fdacecbaa5fdf5894bab204e31a778250474108540733a9b8d19\n        /* \"contracts/GeekNftMarketPlace.sol\":3149:3161  _nftContract */\n      dup7\n        /* \"contracts/GeekNftMarketPlace.sol\":3163:3171  _tokenId */\n      dup7\n        /* \"contracts/GeekNftMarketPlace.sol\":3200:3206  _price */\n      dup7\n        /* \"contracts/GeekNftMarketPlace.sol\":3139:3207  NFTListed(_nftContract, _tokenId, msg.sender, address(this), _price) */\n      mload(0x40)\n      tag_45\n      swap4\n      swap3\n      swap2\n      swap1\n      tag_46\n      jump\t// in\n    tag_45:\n      mload(0x40)\n      dup1\n      swap2\n      sub\n      swap1\n      log3\n        /* \"contracts/RenntrancyGuard.sol\":402:403  _ */\n      pop\n        /* \"contracts/RenntrancyGuard.sol\":127:128  1 */\n      0x01\n        /* \"contracts/RenntrancyGuard.sol\":413:420  _status */\n      0x00\n        /* \"contracts/RenntrancyGuard.sol\":413:435  _status = _NOT_ENTERED */\n      dup2\n      swap1\n      sstore\n      pop\n        /* \"contracts/GeekNftMarketPlace.sol\":2568:3214  function resellNFT(address _nftContract, uint _tokenId, uint _price) public payable nonReentrant{... */\n      pop\n      pop\n      pop\n      jump\t// out\n        /* \"contracts/GeekNftMarketPlace.sol\":429:466  uint public LISTING_FEE = 0.002 ether */\n    tag_13:\n      sload(0x03)\n      dup2\n      jump\t// out\n        /* \"contracts/GeekNftMarketPlace.sol\":1953:2513  function buyNft(address _nftContract, uint _tokenId) public payable nonReentrant{... */\n    tag_19:\n        /* \"contracts/RenntrancyGuard.sol\":170:171  2 */\n      0x02\n        /* \"contracts/RenntrancyGuard.sol\":309:316  _status */\n      sload(0x00)\n        /* \"contracts/RenntrancyGuard.sol\":309:328  _status != _ENTERED */\n      eq\n      iszero\n        /* \"contracts/RenntrancyGuard.sol\":301:364  require(_status != _ENTERED, \"ReentrancyGuard: reentrant call\") */\n      tag_48\n      jumpi\n      mload(0x40)\n      0x08c379a000000000000000000000000000000000000000000000000000000000\n      dup2\n      mstore\n      0x04\n      add\n      tag_49\n      swap1\n      tag_30\n      jump\t// in\n    tag_49:\n      mload(0x40)\n      dup1\n      swap2\n      sub\n      swap1\n      revert\n    tag_48:\n        /* \"contracts/RenntrancyGuard.sol\":170:171  2 */\n      0x02\n        /* \"contracts/RenntrancyGuard.sol\":374:381  _status */\n      0x00\n        /* \"contracts/RenntrancyGuard.sol\":374:392  _status = _ENTERED */\n      dup2\n      swap1\n      sstore\n      pop\n        /* \"contracts/GeekNftMarketPlace.sol\":2043:2058  NFT storage nft */\n      0x00\n        /* \"contracts/GeekNftMarketPlace.sol\":2061:2069  _idToNft */\n      0x05\n        /* \"contracts/GeekNftMarketPlace.sol\":2061:2079  _idToNft[_tokenId] */\n      0x00\n        /* \"contracts/GeekNftMarketPlace.sol\":2070:2078  _tokenId */\n      dup4\n        /* \"contracts/GeekNftMarketPlace.sol\":2061:2079  _idToNft[_tokenId] */\n      dup2\n      mstore\n      0x20\n      add\n      swap1\n      dup2\n      mstore\n      0x20\n      add\n      0x00\n      keccak256\n        /* \"contracts/GeekNftMarketPlace.sol\":2043:2079  NFT storage nft = _idToNft[_tokenId] */\n      swap1\n      pop\n        /* \"contracts/GeekNftMarketPlace.sol\":2110:2113  nft */\n      dup1\n        /* \"contracts/GeekNftMarketPlace.sol\":2110:2119  nft.price */\n      0x02\n      add\n      sload\n        /* \"contracts/GeekNftMarketPlace.sol\":2097:2106  msg.value */\n      callvalue\n        /* \"contracts/GeekNftMarketPlace.sol\":2097:2119  msg.value >= nft.price */\n      lt\n      iszero\n        /* \"contracts/GeekNftMarketPlace.sol\":2089:2162  require(msg.value >= nft.price, \"Not enough ether to cover asking price\") */\n      tag_51\n      jumpi\n      mload(0x40)\n      0x08c379a000000000000000000000000000000000000000000000000000000000\n      dup2\n      mstore\n      0x04\n      add\n      tag_52\n      swap1\n      tag_53\n      jump\t// in\n    tag_52:\n      mload(0x40)\n      dup1\n      swap2\n      sub\n      swap1\n      revert\n    tag_51:\n        /* \"contracts/GeekNftMarketPlace.sol\":2173:2194  address payable buyer */\n      0x00\n        /* \"contracts/GeekNftMarketPlace.sol\":2205:2215  msg.sender */\n      caller\n        /* \"contracts/GeekNftMarketPlace.sol\":2173:2216  address payable buyer = payable(msg.sender) */\n      swap1\n      pop\n        /* \"contracts/GeekNftMarketPlace.sol\":2226:2229  nft */\n      dup2\n        /* \"contracts/GeekNftMarketPlace.sol\":2226:2236  nft.seller */\n      0x03\n      add\n      0x00\n      swap1\n      sload\n      swap1\n      0x0100\n      exp\n      swap1\n      div\n      0xffffffffffffffffffffffffffffffffffffffff\n      and\n        /* \"contracts/GeekNftMarketPlace.sol\":2226:2245  nft.seller.transfer */\n      0xffffffffffffffffffffffffffffffffffffffff\n      and\n        /* \"contracts/GeekNftMarketPlace.sol\":2226:2256  nft.seller.transfer(msg.value) */\n      0x08fc\n        /* \"contracts/GeekNftMarketPlace.sol\":2246:2255  msg.value */\n      callvalue\n        /* \"contracts/GeekNftMarketPlace.sol\":2226:2256  nft.seller.transfer(msg.value) */\n      swap1\n      dup2\n      iszero\n      mul\n      swap1\n      mload(0x40)\n      0x00\n      mload(0x40)\n      dup1\n      dup4\n      sub\n      dup2\n      dup6\n      dup9\n      dup9\n      call\n      swap4\n      pop\n      pop\n      pop\n      pop\n      iszero\n      dup1\n      iszero\n      tag_55\n      jumpi\n      returndatasize\n      0x00\n      dup1\n      returndatacopy\n      revert(0x00, returndatasize)\n    tag_55:\n      pop\n        /* \"contracts/GeekNftMarketPlace.sol\":2284:2296  _nftContract */\n      dup4\n        /* \"contracts/GeekNftMarketPlace.sol\":2267:2310  GeekNftInterface(_nftContract).transferFrom */\n      0xffffffffffffffffffffffffffffffffffffffff\n      and\n      0x23b872dd\n        /* \"contracts/GeekNftMarketPlace.sol\":2319:2323  this */\n      address\n        /* \"contracts/GeekNftMarketPlace.sol\":2326:2331  buyer */\n      dup4\n        /* \"contracts/GeekNftMarketPlace.sol\":2333:2341  _tokenId */\n      dup7\n        /* \"contracts/GeekNftMarketPlace.sol\":2267:2342  GeekNftInterface(_nftContract).transferFrom(address(this), buyer, _tokenId) */\n      mload(0x40)\n      dup5\n      0xffffffff\n      and\n      0xe0\n      shl\n      dup2\n      mstore\n      0x04\n      add\n      tag_56\n      swap4\n      swap3\n      swap2\n      swap1\n      tag_57\n      jump\t// in\n    tag_56:\n      0x00\n      mload(0x40)\n      dup1\n      dup4\n      sub\n      dup2\n      0x00\n      dup8\n      dup1\n      extcodesize\n      iszero\n      dup1\n      iszero\n      tag_58\n      jumpi\n      0x00\n      dup1\n      revert\n    tag_58:\n      pop\n      gas\n      call\n      iszero\n      dup1\n      iszero\n      tag_60\n      jumpi\n      returndatasize\n      0x00\n      dup1\n      returndatacopy\n      revert(0x00, returndatasize)\n    tag_60:\n      pop\n      pop\n      pop\n      pop\n        /* \"contracts/GeekNftMarketPlace.sol\":2364:2369  buyer */\n      dup1\n        /* \"contracts/GeekNftMarketPlace.sol\":2352:2355  nft */\n      dup3\n        /* \"contracts/GeekNftMarketPlace.sol\":2352:2361  nft.owner */\n      0x04\n      add\n      0x00\n        /* \"contracts/GeekNftMarketPlace.sol\":2352:2369  nft.owner = buyer */\n      0x0100\n      exp\n      dup2\n      sload\n      dup2\n      0xffffffffffffffffffffffffffffffffffffffff\n      mul\n      not\n      and\n      swap1\n      dup4\n      0xffffffffffffffffffffffffffffffffffffffff\n      and\n      mul\n      or\n      swap1\n      sstore\n      pop\n        /* \"contracts/GeekNftMarketPlace.sol\":2392:2397  false */\n      0x00\n        /* \"contracts/GeekNftMarketPlace.sol\":2379:2382  nft */\n      dup3\n        /* \"contracts/GeekNftMarketPlace.sol\":2379:2389  nft.listed */\n      0x05\n      add\n      0x14\n        /* \"contracts/GeekNftMarketPlace.sol\":2379:2397  nft.listed = false */\n      0x0100\n      exp\n      dup2\n      sload\n      dup2\n      0xff\n      mul\n      not\n      and\n      swap1\n      dup4\n      iszero\n      iszero\n      mul\n      or\n      swap1\n      sstore\n      pop\n        /* \"contracts/GeekNftMarketPlace.sol\":2408:2429  _nftsSold.increment() */\n      tag_61\n        /* \"contracts/GeekNftMarketPlace.sol\":2408:2417  _nftsSold */\n      0x01\n        /* \"contracts/GeekNftMarketPlace.sol\":2408:2427  _nftsSold.increment */\n      tag_62\n        /* \"contracts/GeekNftMarketPlace.sol\":2408:2429  _nftsSold.increment() */\n      jump\t// in\n    tag_61:\n        /* \"contracts/GeekNftMarketPlace.sol\":2489:2494  buyer */\n      dup1\n        /* \"contracts/GeekNftMarketPlace.sol\":2445:2506  NFTSold(_nftContract, _tokenId, nft.seller, buyer, msg.value) */\n      0xffffffffffffffffffffffffffffffffffffffff\n      and\n        /* \"contracts/GeekNftMarketPlace.sol\":2477:2480  nft */\n      dup3\n        /* \"contracts/GeekNftMarketPlace.sol\":2477:2487  nft.seller */\n      0x03\n      add\n      0x00\n      swap1\n      sload\n      swap1\n      0x0100\n      exp\n      swap1\n      div\n      0xffffffffffffffffffffffffffffffffffffffff\n      and\n        /* \"contracts/GeekNftMarketPlace.sol\":2445:2506  NFTSold(_nftContract, _tokenId, nft.seller, buyer, msg.value) */\n      0xffffffffffffffffffffffffffffffffffffffff\n      and\n      0x16f1dbd97e6bf646d429ed186cce832f1f7fd9907814293b83181e9970ab7bd2\n        /* \"contracts/GeekNftMarketPlace.sol\":2453:2465  _nftContract */\n      dup7\n        /* \"contracts/GeekNftMarketPlace.sol\":2467:2475  _tokenId */\n      dup7\n        /* \"contracts/GeekNftMarketPlace.sol\":2496:2505  msg.value */\n      callvalue\n        /* \"contracts/GeekNftMarketPlace.sol\":2445:2506  NFTSold(_nftContract, _tokenId, nft.seller, buyer, msg.value) */\n      mload(0x40)\n      tag_63\n      swap4\n      swap3\n      swap2\n      swap1\n      tag_46\n      jump\t// in\n    tag_63:\n      mload(0x40)\n      dup1\n      swap2\n      sub\n      swap1\n      log3\n        /* \"contracts/RenntrancyGuard.sol\":402:403  _ */\n      pop\n      pop\n        /* \"contracts/RenntrancyGuard.sol\":127:128  1 */\n      0x01\n        /* \"contracts/RenntrancyGuard.sol\":413:420  _status */\n      0x00\n        /* \"contracts/RenntrancyGuard.sol\":413:435  _status = _NOT_ENTERED */\n      dup2\n      swap1\n      sstore\n      pop\n        /* \"contracts/GeekNftMarketPlace.sol\":1953:2513  function buyNft(address _nftContract, uint _tokenId) public payable nonReentrant{... */\n      pop\n      pop\n      jump\t// out\n        /* \"contracts/GeekNftMarketPlace.sol\":1204:1929  function listNFT(address _nftContract, uint _tokenId, uint _price) public payable nonReentrant{... */\n    tag_22:\n        /* \"contracts/RenntrancyGuard.sol\":170:171  2 */\n      0x02\n        /* \"contracts/RenntrancyGuard.sol\":309:316  _status */\n      sload(0x00)\n        /* \"contracts/RenntrancyGuard.sol\":309:328  _status != _ENTERED */\n      eq\n      iszero\n        /* \"contracts/RenntrancyGuard.sol\":301:364  require(_status != _ENTERED, \"ReentrancyGuard: reentrant call\") */\n      tag_65\n      jumpi\n      mload(0x40)\n      0x08c379a000000000000000000000000000000000000000000000000000000000\n      dup2\n      mstore\n      0x04\n      add\n      tag_66\n      swap1\n      tag_30\n      jump\t// in\n    tag_66:\n      mload(0x40)\n      dup1\n      swap2\n      sub\n      swap1\n      revert\n    tag_65:\n        /* \"contracts/RenntrancyGuard.sol\":170:171  2 */\n      0x02\n        /* \"contracts/RenntrancyGuard.sol\":374:381  _status */\n      0x00\n        /* \"contracts/RenntrancyGuard.sol\":374:392  _status = _ENTERED */\n      dup2\n      swap1\n      sstore\n      pop\n        /* \"contracts/GeekNftMarketPlace.sol\":1325:1326  0 */\n      0x00\n        /* \"contracts/GeekNftMarketPlace.sol\":1316:1322  _price */\n      dup2\n        /* \"contracts/GeekNftMarketPlace.sol\":1316:1326  _price > 0 */\n      gt\n        /* \"contracts/GeekNftMarketPlace.sol\":1308:1359  require(_price > 0, \"Price must be at least 1 wei\") */\n      tag_68\n      jumpi\n      mload(0x40)\n      0x08c379a000000000000000000000000000000000000000000000000000000000\n      dup2\n      mstore\n      0x04\n      add\n      tag_69\n      swap1\n      tag_34\n      jump\t// in\n    tag_69:\n      mload(0x40)\n      dup1\n      swap2\n      sub\n      swap1\n      revert\n    tag_68:\n        /* \"contracts/GeekNftMarketPlace.sol\":1390:1401  LISTING_FEE */\n      sload(0x03)\n        /* \"contracts/GeekNftMarketPlace.sol\":1377:1386  msg.value */\n      callvalue\n        /* \"contracts/GeekNftMarketPlace.sol\":1377:1401  msg.value == LISTING_FEE */\n      eq\n        /* \"contracts/GeekNftMarketPlace.sol\":1369:1438  require(msg.value == LISTING_FEE, \"Not enough ether for listing fee\") */\n      tag_70\n      jumpi\n      mload(0x40)\n      0x08c379a000000000000000000000000000000000000000000000000000000000\n      dup2\n      mstore\n      0x04\n      add\n      tag_71\n      swap1\n      tag_37\n      jump\t// in\n    tag_71:\n      mload(0x40)\n      dup1\n      swap2\n      sub\n      swap1\n      revert\n    tag_70:\n        /* \"contracts/GeekNftMarketPlace.sol\":1466:1478  _nftContract */\n      dup3\n        /* \"contracts/GeekNftMarketPlace.sol\":1449:1492  GeekNftInterface(_nftContract).transferFrom */\n      0xffffffffffffffffffffffffffffffffffffffff\n      and\n      0x23b872dd\n        /* \"contracts/GeekNftMarketPlace.sol\":1493:1503  msg.sender */\n      caller\n        /* \"contracts/GeekNftMarketPlace.sol\":1513:1517  this */\n      address\n        /* \"contracts/GeekNftMarketPlace.sol\":1520:1528  _tokenId */\n      dup6\n        /* \"contracts/GeekNftMarketPlace.sol\":1449:1529  GeekNftInterface(_nftContract).transferFrom(msg.sender, address(this), _tokenId) */\n      mload(0x40)\n      dup5\n      0xffffffff\n      and\n      0xe0\n      shl\n      dup2\n      mstore\n      0x04\n      add\n      tag_72\n      swap4\n      swap3\n      swap2\n      swap1\n      tag_39\n      jump\t// in\n    tag_72:\n      0x00\n      mload(0x40)\n      dup1\n      dup4\n      sub\n      dup2\n      0x00\n      dup8\n      dup1\n      extcodesize\n      iszero\n      dup1\n      iszero\n      tag_73\n      jumpi\n      0x00\n      dup1\n      revert\n    tag_73:\n      pop\n      gas\n      call\n      iszero\n      dup1\n      iszero\n      tag_75\n      jumpi\n      returndatasize\n      0x00\n      dup1\n      returndatacopy\n      revert(0x00, returndatasize)\n    tag_75:\n      pop\n      pop\n      pop\n      pop\n        /* \"contracts/GeekNftMarketPlace.sol\":1539:1561  _nftsCount.increment() */\n      tag_76\n        /* \"contracts/GeekNftMarketPlace.sol\":1539:1549  _nftsCount */\n      0x02\n        /* \"contracts/GeekNftMarketPlace.sol\":1539:1559  _nftsCount.increment */\n      tag_62\n        /* \"contracts/GeekNftMarketPlace.sol\":1539:1561  _nftsCount.increment() */\n      jump\t// in\n    tag_76:\n        /* \"contracts/GeekNftMarketPlace.sol\":1593:1794  NFT(... */\n      mload(0x40)\n      dup1\n      0xe0\n      add\n      0x40\n      mstore\n      dup1\n        /* \"contracts/GeekNftMarketPlace.sol\":1610:1622  _nftContract */\n      dup5\n        /* \"contracts/GeekNftMarketPlace.sol\":1593:1794  NFT(... */\n      0xffffffffffffffffffffffffffffffffffffffff\n      and\n      dup2\n      mstore\n      0x20\n      add\n        /* \"contracts/GeekNftMarketPlace.sol\":1636:1644  _tokenId */\n      dup4\n        /* \"contracts/GeekNftMarketPlace.sol\":1593:1794  NFT(... */\n      dup2\n      mstore\n      0x20\n      add\n        /* \"contracts/GeekNftMarketPlace.sol\":1658:1664  _price */\n      dup3\n        /* \"contracts/GeekNftMarketPlace.sol\":1593:1794  NFT(... */\n      dup2\n      mstore\n      0x20\n      add\n        /* \"contracts/GeekNftMarketPlace.sol\":1686:1696  msg.sender */\n      caller\n        /* \"contracts/GeekNftMarketPlace.sol\":1593:1794  NFT(... */\n      0xffffffffffffffffffffffffffffffffffffffff\n      and\n      dup2\n      mstore\n      0x20\n      add\n        /* \"contracts/GeekNftMarketPlace.sol\":1727:1731  this */\n      address\n        /* \"contracts/GeekNftMarketPlace.sol\":1593:1794  NFT(... */\n      0xffffffffffffffffffffffffffffffffffffffff\n      and\n      dup2\n      mstore\n      0x20\n      add\n        /* \"contracts/GeekNftMarketPlace.sol\":1755:1765  msg.sender */\n      caller\n        /* \"contracts/GeekNftMarketPlace.sol\":1593:1794  NFT(... */\n      0xffffffffffffffffffffffffffffffffffffffff\n      and\n      dup2\n      mstore\n      0x20\n      add\n        /* \"contracts/GeekNftMarketPlace.sol\":1780:1784  true */\n      0x01\n        /* \"contracts/GeekNftMarketPlace.sol\":1593:1794  NFT(... */\n      iszero\n      iszero\n      dup2\n      mstore\n      pop\n        /* \"contracts/GeekNftMarketPlace.sol\":1572:1580  _idToNft */\n      0x05\n        /* \"contracts/GeekNftMarketPlace.sol\":1572:1590  _idToNft[_tokenId] */\n      0x00\n        /* \"contracts/GeekNftMarketPlace.sol\":1581:1589  _tokenId */\n      dup5\n        /* \"contracts/GeekNftMarketPlace.sol\":1572:1590  _idToNft[_tokenId] */\n      dup2\n      mstore\n      0x20\n      add\n      swap1\n      dup2\n      mstore\n      0x20\n      add\n      0x00\n      keccak256\n        /* \"contracts/GeekNftMarketPlace.sol\":1572:1794  _idToNft[_tokenId] = NFT(... */\n      0x00\n      dup3\n      add\n      mload\n      dup2\n      0x00\n      add\n      exp(0x0100, 0x00)\n      dup2\n      sload\n      dup2\n      0xffffffffffffffffffffffffffffffffffffffff\n      mul\n      not\n      and\n      swap1\n      dup4\n      0xffffffffffffffffffffffffffffffffffffffff\n      and\n      mul\n      or\n      swap1\n      sstore\n      pop\n      0x20\n      dup3\n      add\n      mload\n      dup2\n      0x01\n      add\n      sstore\n      0x40\n      dup3\n      add\n      mload\n      dup2\n      0x02\n      add\n      sstore\n      0x60\n      dup3\n      add\n      mload\n      dup2\n      0x03\n      add\n      exp(0x0100, 0x00)\n      dup2\n      sload\n      dup2\n      0xffffffffffffffffffffffffffffffffffffffff\n      mul\n      not\n      and\n      swap1\n      dup4\n      0xffffffffffffffffffffffffffffffffffffffff\n      and\n      mul\n      or\n      swap1\n      sstore\n      pop\n      0x80\n      dup3\n      add\n      mload\n      dup2\n      0x04\n      add\n      exp(0x0100, 0x00)\n      dup2\n      sload\n      dup2\n      0xffffffffffffffffffffffffffffffffffffffff\n      mul\n      not\n      and\n      swap1\n      dup4\n      0xffffffffffffffffffffffffffffffffffffffff\n      and\n      mul\n      or\n      swap1\n      sstore\n      pop\n      0xa0\n      dup3\n      add\n      mload\n      dup2\n      0x05\n      add\n      exp(0x0100, 0x00)\n      dup2\n      sload\n      dup2\n      0xffffffffffffffffffffffffffffffffffffffff\n      mul\n      not\n      and\n      swap1\n      dup4\n      0xffffffffffffffffffffffffffffffffffffffff\n      and\n      mul\n      or\n      swap1\n      sstore\n      pop\n      0xc0\n      dup3\n      add\n      mload\n      dup2\n      0x05\n      add\n      exp(0x0100, 0x14)\n      dup2\n      sload\n      dup2\n      0xff\n      mul\n      not\n      and\n      swap1\n      dup4\n      iszero\n      iszero\n      mul\n      or\n      swap1\n      sstore\n      pop\n      swap1\n      pop\n      pop\n        /* \"contracts/GeekNftMarketPlace.sol\":1805:1818  _marketOwwner */\n      0x04\n      0x00\n      swap1\n      sload\n      swap1\n      0x0100\n      exp\n      swap1\n      div\n      0xffffffffffffffffffffffffffffffffffffffff\n      and\n        /* \"contracts/GeekNftMarketPlace.sol\":1805:1827  _marketOwwner.transfer */\n      0xffffffffffffffffffffffffffffffffffffffff\n      and\n        /* \"contracts/GeekNftMarketPlace.sol\":1805:1838  _marketOwwner.transfer(msg.value) */\n      0x08fc\n        /* \"contracts/GeekNftMarketPlace.sol\":1828:1837  msg.value */\n      callvalue\n        /* \"contracts/GeekNftMarketPlace.sol\":1805:1838  _marketOwwner.transfer(msg.value) */\n      swap1\n      dup2\n      iszero\n      mul\n      swap1\n      mload(0x40)\n      0x00\n      mload(0x40)\n      dup1\n      dup4\n      sub\n      dup2\n      dup6\n      dup9\n      dup9\n      call\n      swap4\n      pop\n      pop\n      pop\n      pop\n      iszero\n      dup1\n      iszero\n      tag_78\n      jumpi\n      returndatasize\n      0x00\n      dup1\n      returndatacopy\n      revert(0x00, returndatasize)\n    tag_78:\n      pop\n        /* \"contracts/GeekNftMarketPlace.sol\":1908:1912  this */\n      address\n        /* \"contracts/GeekNftMarketPlace.sol\":1854:1922  NFTListed(_nftContract, _tokenId, msg.sender, address(this), _price) */\n      0xffffffffffffffffffffffffffffffffffffffff\n      and\n        /* \"contracts/GeekNftMarketPlace.sol\":1888:1898  msg.sender */\n      caller\n        /* \"contracts/GeekNftMarketPlace.sol\":1854:1922  NFTListed(_nftContract, _tokenId, msg.sender, address(this), _price) */\n      0xffffffffffffffffffffffffffffffffffffffff\n      and\n      0xa0c6c0d02d86fdacecbaa5fdf5894bab204e31a778250474108540733a9b8d19\n        /* \"contracts/GeekNftMarketPlace.sol\":1864:1876  _nftContract */\n      dup6\n        /* \"contracts/GeekNftMarketPlace.sol\":1878:1886  _tokenId */\n      dup6\n        /* \"contracts/GeekNftMarketPlace.sol\":1915:1921  _price */\n      dup6\n        /* \"contracts/GeekNftMarketPlace.sol\":1854:1922  NFTListed(_nftContract, _tokenId, msg.sender, address(this), _price) */\n      mload(0x40)\n      tag_79\n      swap4\n      swap3\n      swap2\n      swap1\n      tag_46\n      jump\t// in\n    tag_79:\n      mload(0x40)\n      dup1\n      swap2\n      sub\n      swap1\n      log3\n        /* \"contracts/RenntrancyGuard.sol\":127:128  1 */\n      0x01\n        /* \"contracts/RenntrancyGuard.sol\":413:420  _status */\n      0x00\n        /* \"contracts/RenntrancyGuard.sol\":413:435  _status = _NOT_ENTERED */\n      dup2\n      swap1\n      sstore\n      pop\n        /* \"contracts/GeekNftMarketPlace.sol\":1204:1929  function listNFT(address _nftContract, uint _tokenId, uint _price) public payable nonReentrant{... */\n      pop\n      pop\n      pop\n      jump\t// out\n        /* \"contracts/GeekNftMarketPlace.sol\":1073:1159  function getListingFee() public view returns (uint){... */\n    tag_25:\n        /* \"contracts/GeekNftMarketPlace.sol\":1119:1123  uint */\n      0x00\n        /* \"contracts/GeekNftMarketPlace.sol\":1141:1152  LISTING_FEE */\n      sload(0x03)\n        /* \"contracts/GeekNftMarketPlace.sol\":1134:1152  return LISTING_FEE */\n      swap1\n      pop\n        /* \"contracts/GeekNftMarketPlace.sol\":1073:1159  function getListingFee() public view returns (uint){... */\n      swap1\n      jump\t// out\n        /* \"@openzeppelin/contracts/utils/Counters.sol\":1074:1303  function decrement(Counter storage counter) internal {... */\n    tag_44:\n        /* \"@openzeppelin/contracts/utils/Counters.sol\":1137:1150  uint256 value */\n      0x00\n        /* \"@openzeppelin/contracts/utils/Counters.sol\":1153:1160  counter */\n      dup2\n        /* \"@openzeppelin/contracts/utils/Counters.sol\":1153:1167  counter._value */\n      0x00\n      add\n      sload\n        /* \"@openzeppelin/contracts/utils/Counters.sol\":1137:1167  uint256 value = counter._value */\n      swap1\n      pop\n        /* \"@openzeppelin/contracts/utils/Counters.sol\":1193:1194  0 */\n      0x00\n        /* \"@openzeppelin/contracts/utils/Counters.sol\":1185:1190  value */\n      dup2\n        /* \"@openzeppelin/contracts/utils/Counters.sol\":1185:1194  value > 0 */\n      gt\n        /* \"@openzeppelin/contracts/utils/Counters.sol\":1177:1226  require(value > 0, \"Counter: decrement overflow\") */\n      tag_82\n      jumpi\n      mload(0x40)\n      0x08c379a000000000000000000000000000000000000000000000000000000000\n      dup2\n      mstore\n      0x04\n      add\n      tag_83\n      swap1\n      tag_84\n      jump\t// in\n    tag_83:\n      mload(0x40)\n      dup1\n      swap2\n      sub\n      swap1\n      revert\n    tag_82:\n        /* \"@openzeppelin/contracts/utils/Counters.sol\":1285:1286  1 */\n      0x01\n        /* \"@openzeppelin/contracts/utils/Counters.sol\":1277:1282  value */\n      dup2\n        /* \"@openzeppelin/contracts/utils/Counters.sol\":1277:1286  value - 1 */\n      sub\n        /* \"@openzeppelin/contracts/utils/Counters.sol\":1260:1267  counter */\n      dup3\n        /* \"@openzeppelin/contracts/utils/Counters.sol\":1260:1274  counter._value */\n      0x00\n      add\n        /* \"@openzeppelin/contracts/utils/Counters.sol\":1260:1286  counter._value = value - 1 */\n      dup2\n      swap1\n      sstore\n      pop\n        /* \"@openzeppelin/contracts/utils/Counters.sol\":1074:1303  function decrement(Counter storage counter) internal {... */\n      pop\n      pop\n      jump\t// out\n        /* \"@openzeppelin/contracts/utils/Counters.sol\":945:1068  function increment(Counter storage counter) internal {... */\n    tag_62:\n        /* \"@openzeppelin/contracts/utils/Counters.sol\":1050:1051  1 */\n      0x01\n        /* \"@openzeppelin/contracts/utils/Counters.sol\":1032:1039  counter */\n      dup2\n        /* \"@openzeppelin/contracts/utils/Counters.sol\":1032:1046  counter._value */\n      0x00\n      add\n      0x00\n        /* \"@openzeppelin/contracts/utils/Counters.sol\":1032:1051  counter._value += 1 */\n      dup3\n      dup3\n      sload\n      add\n      swap3\n      pop\n      pop\n      dup2\n      swap1\n      sstore\n      pop\n        /* \"@openzeppelin/contracts/utils/Counters.sol\":945:1068  function increment(Counter storage counter) internal {... */\n      pop\n      jump\t// out\n        /* \"#utility.yul\":7:146   */\n    tag_87:\n      0x00\n        /* \"#utility.yul\":91:97   */\n      dup2\n        /* \"#utility.yul\":78:98   */\n      calldataload\n        /* \"#utility.yul\":69:98   */\n      swap1\n      pop\n        /* \"#utility.yul\":107:140   */\n      tag_89\n        /* \"#utility.yul\":134:139   */\n      dup2\n        /* \"#utility.yul\":107:140   */\n      tag_90\n      jump\t// in\n    tag_89:\n        /* \"#utility.yul\":59:146   */\n      swap3\n      swap2\n      pop\n      pop\n      jump\t// out\n        /* \"#utility.yul\":152:291   */\n    tag_91:\n      0x00\n        /* \"#utility.yul\":236:242   */\n      dup2\n        /* \"#utility.yul\":223:243   */\n      calldataload\n        /* \"#utility.yul\":214:243   */\n      swap1\n      pop\n        /* \"#utility.yul\":252:285   */\n      tag_93\n        /* \"#utility.yul\":279:284   */\n      dup2\n        /* \"#utility.yul\":252:285   */\n      tag_94\n      jump\t// in\n    tag_93:\n        /* \"#utility.yul\":204:291   */\n      swap3\n      swap2\n      pop\n      pop\n      jump\t// out\n        /* \"#utility.yul\":297:704   */\n    tag_18:\n      0x00\n      dup1\n        /* \"#utility.yul\":422:424   */\n      0x40\n        /* \"#utility.yul\":410:419   */\n      dup4\n        /* \"#utility.yul\":401:408   */\n      dup6\n        /* \"#utility.yul\":397:420   */\n      sub\n        /* \"#utility.yul\":393:425   */\n      slt\n        /* \"#utility.yul\":390:392   */\n      iszero\n      tag_96\n      jumpi\n        /* \"#utility.yul\":438:439   */\n      0x00\n        /* \"#utility.yul\":435:436   */\n      dup1\n        /* \"#utility.yul\":428:440   */\n      revert\n        /* \"#utility.yul\":390:392   */\n    tag_96:\n        /* \"#utility.yul\":481:482   */\n      0x00\n        /* \"#utility.yul\":506:559   */\n      tag_97\n        /* \"#utility.yul\":551:558   */\n      dup6\n        /* \"#utility.yul\":542:548   */\n      dup3\n        /* \"#utility.yul\":531:540   */\n      dup7\n        /* \"#utility.yul\":527:549   */\n      add\n        /* \"#utility.yul\":506:559   */\n      tag_87\n      jump\t// in\n    tag_97:\n        /* \"#utility.yul\":496:559   */\n      swap3\n      pop\n        /* \"#utility.yul\":452:569   */\n      pop\n        /* \"#utility.yul\":608:610   */\n      0x20\n        /* \"#utility.yul\":634:687   */\n      tag_98\n        /* \"#utility.yul\":679:686   */\n      dup6\n        /* \"#utility.yul\":670:676   */\n      dup3\n        /* \"#utility.yul\":659:668   */\n      dup7\n        /* \"#utility.yul\":655:677   */\n      add\n        /* \"#utility.yul\":634:687   */\n      tag_91\n      jump\t// in\n    tag_98:\n        /* \"#utility.yul\":624:687   */\n      swap2\n      pop\n        /* \"#utility.yul\":579:697   */\n      pop\n        /* \"#utility.yul\":380:704   */\n      swap3\n      pop\n      swap3\n      swap1\n      pop\n      jump\t// out\n        /* \"#utility.yul\":710:1262   */\n    tag_9:\n      0x00\n      dup1\n      0x00\n        /* \"#utility.yul\":852:854   */\n      0x60\n        /* \"#utility.yul\":840:849   */\n      dup5\n        /* \"#utility.yul\":831:838   */\n      dup7\n        /* \"#utility.yul\":827:850   */\n      sub\n        /* \"#utility.yul\":823:855   */\n      slt\n        /* \"#utility.yul\":820:822   */\n      iszero\n      tag_100\n      jumpi\n        /* \"#utility.yul\":868:869   */\n      0x00\n        /* \"#utility.yul\":865:866   */\n      dup1\n        /* \"#utility.yul\":858:870   */\n      revert\n        /* \"#utility.yul\":820:822   */\n    tag_100:\n        /* \"#utility.yul\":911:912   */\n      0x00\n        /* \"#utility.yul\":936:989   */\n      tag_101\n        /* \"#utility.yul\":981:988   */\n      dup7\n        /* \"#utility.yul\":972:978   */\n      dup3\n        /* \"#utility.yul\":961:970   */\n      dup8\n        /* \"#utility.yul\":957:979   */\n      add\n        /* \"#utility.yul\":936:989   */\n      tag_87\n      jump\t// in\n    tag_101:\n        /* \"#utility.yul\":926:989   */\n      swap4\n      pop\n        /* \"#utility.yul\":882:999   */\n      pop\n        /* \"#utility.yul\":1038:1040   */\n      0x20\n        /* \"#utility.yul\":1064:1117   */\n      tag_102\n        /* \"#utility.yul\":1109:1116   */\n      dup7\n        /* \"#utility.yul\":1100:1106   */\n      dup3\n        /* \"#utility.yul\":1089:1098   */\n      dup8\n        /* \"#utility.yul\":1085:1107   */\n      add\n        /* \"#utility.yul\":1064:1117   */\n      tag_91\n      jump\t// in\n    tag_102:\n        /* \"#utility.yul\":1054:1117   */\n      swap3\n      pop\n        /* \"#utility.yul\":1009:1127   */\n      pop\n        /* \"#utility.yul\":1166:1168   */\n      0x40\n        /* \"#utility.yul\":1192:1245   */\n      tag_103\n        /* \"#utility.yul\":1237:1244   */\n      dup7\n        /* \"#utility.yul\":1228:1234   */\n      dup3\n        /* \"#utility.yul\":1217:1226   */\n      dup8\n        /* \"#utility.yul\":1213:1235   */\n      add\n        /* \"#utility.yul\":1192:1245   */\n      tag_91\n      jump\t// in\n    tag_103:\n        /* \"#utility.yul\":1182:1245   */\n      swap2\n      pop\n        /* \"#utility.yul\":1137:1255   */\n      pop\n        /* \"#utility.yul\":810:1262   */\n      swap3\n      pop\n      swap3\n      pop\n      swap3\n      jump\t// out\n        /* \"#utility.yul\":1268:1415   */\n    tag_104:\n        /* \"#utility.yul\":1363:1408   */\n      tag_106\n        /* \"#utility.yul\":1402:1407   */\n      dup2\n        /* \"#utility.yul\":1363:1408   */\n      tag_107\n      jump\t// in\n    tag_106:\n        /* \"#utility.yul\":1358:1361   */\n      dup3\n        /* \"#utility.yul\":1351:1409   */\n      mstore\n        /* \"#utility.yul\":1341:1415   */\n      pop\n      pop\n      jump\t// out\n        /* \"#utility.yul\":1421:1539   */\n    tag_108:\n        /* \"#utility.yul\":1508:1532   */\n      tag_110\n        /* \"#utility.yul\":1526:1531   */\n      dup2\n        /* \"#utility.yul\":1508:1532   */\n      tag_111\n      jump\t// in\n    tag_110:\n        /* \"#utility.yul\":1503:1506   */\n      dup3\n        /* \"#utility.yul\":1496:1533   */\n      mstore\n        /* \"#utility.yul\":1486:1539   */\n      pop\n      pop\n      jump\t// out\n        /* \"#utility.yul\":1545:1911   */\n    tag_112:\n      0x00\n        /* \"#utility.yul\":1708:1775   */\n      tag_114\n        /* \"#utility.yul\":1772:1774   */\n      0x1b\n        /* \"#utility.yul\":1767:1770   */\n      dup4\n        /* \"#utility.yul\":1708:1775   */\n      tag_115\n      jump\t// in\n    tag_114:\n        /* \"#utility.yul\":1701:1775   */\n      swap2\n      pop\n        /* \"#utility.yul\":1784:1877   */\n      tag_116\n        /* \"#utility.yul\":1873:1876   */\n      dup3\n        /* \"#utility.yul\":1784:1877   */\n      tag_117\n      jump\t// in\n    tag_116:\n        /* \"#utility.yul\":1902:1904   */\n      0x20\n        /* \"#utility.yul\":1897:1900   */\n      dup3\n        /* \"#utility.yul\":1893:1905   */\n      add\n        /* \"#utility.yul\":1886:1905   */\n      swap1\n      pop\n        /* \"#utility.yul\":1691:1911   */\n      swap2\n      swap1\n      pop\n      jump\t// out\n        /* \"#utility.yul\":1917:2283   */\n    tag_118:\n      0x00\n        /* \"#utility.yul\":2080:2147   */\n      tag_120\n        /* \"#utility.yul\":2144:2146   */\n      0x26\n        /* \"#utility.yul\":2139:2142   */\n      dup4\n        /* \"#utility.yul\":2080:2147   */\n      tag_115\n      jump\t// in\n    tag_120:\n        /* \"#utility.yul\":2073:2147   */\n      swap2\n      pop\n        /* \"#utility.yul\":2156:2249   */\n      tag_121\n        /* \"#utility.yul\":2245:2248   */\n      dup3\n        /* \"#utility.yul\":2156:2249   */\n      tag_122\n      jump\t// in\n    tag_121:\n        /* \"#utility.yul\":2274:2276   */\n      0x40\n        /* \"#utility.yul\":2269:2272   */\n      dup3\n        /* \"#utility.yul\":2265:2277   */\n      add\n        /* \"#utility.yul\":2258:2277   */\n      swap1\n      pop\n        /* \"#utility.yul\":2063:2283   */\n      swap2\n      swap1\n      pop\n      jump\t// out\n        /* \"#utility.yul\":2289:2655   */\n    tag_123:\n      0x00\n        /* \"#utility.yul\":2452:2519   */\n      tag_125\n        /* \"#utility.yul\":2516:2518   */\n      0x20\n        /* \"#utility.yul\":2511:2514   */\n      dup4\n        /* \"#utility.yul\":2452:2519   */\n      tag_115\n      jump\t// in\n    tag_125:\n        /* \"#utility.yul\":2445:2519   */\n      swap2\n      pop\n        /* \"#utility.yul\":2528:2621   */\n      tag_126\n        /* \"#utility.yul\":2617:2620   */\n      dup3\n        /* \"#utility.yul\":2528:2621   */\n      tag_127\n      jump\t// in\n    tag_126:\n        /* \"#utility.yul\":2646:2648   */\n      0x20\n        /* \"#utility.yul\":2641:2644   */\n      dup3\n        /* \"#utility.yul\":2637:2649   */\n      add\n        /* \"#utility.yul\":2630:2649   */\n      swap1\n      pop\n        /* \"#utility.yul\":2435:2655   */\n      swap2\n      swap1\n      pop\n      jump\t// out\n        /* \"#utility.yul\":2661:3027   */\n    tag_128:\n      0x00\n        /* \"#utility.yul\":2824:2891   */\n      tag_130\n        /* \"#utility.yul\":2888:2890   */\n      0x1f\n        /* \"#utility.yul\":2883:2886   */\n      dup4\n        /* \"#utility.yul\":2824:2891   */\n      tag_115\n      jump\t// in\n    tag_130:\n        /* \"#utility.yul\":2817:2891   */\n      swap2\n      pop\n        /* \"#utility.yul\":2900:2993   */\n      tag_131\n        /* \"#utility.yul\":2989:2992   */\n      dup3\n        /* \"#utility.yul\":2900:2993   */\n      tag_132\n      jump\t// in\n    tag_131:\n        /* \"#utility.yul\":3018:3020   */\n      0x20\n        /* \"#utility.yul\":3013:3016   */\n      dup3\n        /* \"#utility.yul\":3009:3021   */\n      add\n        /* \"#utility.yul\":3002:3021   */\n      swap1\n      pop\n        /* \"#utility.yul\":2807:3027   */\n      swap2\n      swap1\n      pop\n      jump\t// out\n        /* \"#utility.yul\":3033:3399   */\n    tag_133:\n      0x00\n        /* \"#utility.yul\":3196:3263   */\n      tag_135\n        /* \"#utility.yul\":3260:3262   */\n      0x1c\n        /* \"#utility.yul\":3255:3258   */\n      dup4\n        /* \"#utility.yul\":3196:3263   */\n      tag_115\n      jump\t// in\n    tag_135:\n        /* \"#utility.yul\":3189:3263   */\n      swap2\n      pop\n        /* \"#utility.yul\":3272:3365   */\n      tag_136\n        /* \"#utility.yul\":3361:3364   */\n      dup3\n        /* \"#utility.yul\":3272:3365   */\n      tag_137\n      jump\t// in\n    tag_136:\n        /* \"#utility.yul\":3390:3392   */\n      0x20\n        /* \"#utility.yul\":3385:3388   */\n      dup3\n        /* \"#utility.yul\":3381:3393   */\n      add\n        /* \"#utility.yul\":3374:3393   */\n      swap1\n      pop\n        /* \"#utility.yul\":3179:3399   */\n      swap2\n      swap1\n      pop\n      jump\t// out\n        /* \"#utility.yul\":3405:3523   */\n    tag_138:\n        /* \"#utility.yul\":3492:3516   */\n      tag_140\n        /* \"#utility.yul\":3510:3515   */\n      dup2\n        /* \"#utility.yul\":3492:3516   */\n      tag_141\n      jump\t// in\n    tag_140:\n        /* \"#utility.yul\":3487:3490   */\n      dup3\n        /* \"#utility.yul\":3480:3517   */\n      mstore\n        /* \"#utility.yul\":3470:3523   */\n      pop\n      pop\n      jump\t// out\n        /* \"#utility.yul\":3529:3987   */\n    tag_57:\n      0x00\n        /* \"#utility.yul\":3724:3726   */\n      0x60\n        /* \"#utility.yul\":3713:3722   */\n      dup3\n        /* \"#utility.yul\":3709:3727   */\n      add\n        /* \"#utility.yul\":3701:3727   */\n      swap1\n      pop\n        /* \"#utility.yul\":3737:3808   */\n      tag_143\n        /* \"#utility.yul\":3805:3806   */\n      0x00\n        /* \"#utility.yul\":3794:3803   */\n      dup4\n        /* \"#utility.yul\":3790:3807   */\n      add\n        /* \"#utility.yul\":3781:3787   */\n      dup7\n        /* \"#utility.yul\":3737:3808   */\n      tag_108\n      jump\t// in\n    tag_143:\n        /* \"#utility.yul\":3818:3898   */\n      tag_144\n        /* \"#utility.yul\":3894:3896   */\n      0x20\n        /* \"#utility.yul\":3883:3892   */\n      dup4\n        /* \"#utility.yul\":3879:3897   */\n      add\n        /* \"#utility.yul\":3870:3876   */\n      dup6\n        /* \"#utility.yul\":3818:3898   */\n      tag_104\n      jump\t// in\n    tag_144:\n        /* \"#utility.yul\":3908:3980   */\n      tag_145\n        /* \"#utility.yul\":3976:3978   */\n      0x40\n        /* \"#utility.yul\":3965:3974   */\n      dup4\n        /* \"#utility.yul\":3961:3979   */\n      add\n        /* \"#utility.yul\":3952:3958   */\n      dup5\n        /* \"#utility.yul\":3908:3980   */\n      tag_138\n      jump\t// in\n    tag_145:\n        /* \"#utility.yul\":3691:3987   */\n      swap5\n      swap4\n      pop\n      pop\n      pop\n      pop\n      jump\t// out\n        /* \"#utility.yul\":3993:4435   */\n    tag_39:\n      0x00\n        /* \"#utility.yul\":4180:4182   */\n      0x60\n        /* \"#utility.yul\":4169:4178   */\n      dup3\n        /* \"#utility.yul\":4165:4183   */\n      add\n        /* \"#utility.yul\":4157:4183   */\n      swap1\n      pop\n        /* \"#utility.yul\":4193:4264   */\n      tag_147\n        /* \"#utility.yul\":4261:4262   */\n      0x00\n        /* \"#utility.yul\":4250:4259   */\n      dup4\n        /* \"#utility.yul\":4246:4263   */\n      add\n        /* \"#utility.yul\":4237:4243   */\n      dup7\n        /* \"#utility.yul\":4193:4264   */\n      tag_108\n      jump\t// in\n    tag_147:\n        /* \"#utility.yul\":4274:4346   */\n      tag_148\n        /* \"#utility.yul\":4342:4344   */\n      0x20\n        /* \"#utility.yul\":4331:4340   */\n      dup4\n        /* \"#utility.yul\":4327:4345   */\n      add\n        /* \"#utility.yul\":4318:4324   */\n      dup6\n        /* \"#utility.yul\":4274:4346   */\n      tag_108\n      jump\t// in\n    tag_148:\n        /* \"#utility.yul\":4356:4428   */\n      tag_149\n        /* \"#utility.yul\":4424:4426   */\n      0x40\n        /* \"#utility.yul\":4413:4422   */\n      dup4\n        /* \"#utility.yul\":4409:4427   */\n      add\n        /* \"#utility.yul\":4400:4406   */\n      dup5\n        /* \"#utility.yul\":4356:4428   */\n      tag_138\n      jump\t// in\n    tag_149:\n        /* \"#utility.yul\":4147:4435   */\n      swap5\n      swap4\n      pop\n      pop\n      pop\n      pop\n      jump\t// out\n        /* \"#utility.yul\":4441:4883   */\n    tag_46:\n      0x00\n        /* \"#utility.yul\":4628:4630   */\n      0x60\n        /* \"#utility.yul\":4617:4626   */\n      dup3\n        /* \"#utility.yul\":4613:4631   */\n      add\n        /* \"#utility.yul\":4605:4631   */\n      swap1\n      pop\n        /* \"#utility.yul\":4641:4712   */\n      tag_151\n        /* \"#utility.yul\":4709:4710   */\n      0x00\n        /* \"#utility.yul\":4698:4707   */\n      dup4\n        /* \"#utility.yul\":4694:4711   */\n      add\n        /* \"#utility.yul\":4685:4691   */\n      dup7\n        /* \"#utility.yul\":4641:4712   */\n      tag_108\n      jump\t// in\n    tag_151:\n        /* \"#utility.yul\":4722:4794   */\n      tag_152\n        /* \"#utility.yul\":4790:4792   */\n      0x20\n        /* \"#utility.yul\":4779:4788   */\n      dup4\n        /* \"#utility.yul\":4775:4793   */\n      add\n        /* \"#utility.yul\":4766:4772   */\n      dup6\n        /* \"#utility.yul\":4722:4794   */\n      tag_138\n      jump\t// in\n    tag_152:\n        /* \"#utility.yul\":4804:4876   */\n      tag_153\n        /* \"#utility.yul\":4872:4874   */\n      0x40\n        /* \"#utility.yul\":4861:4870   */\n      dup4\n        /* \"#utility.yul\":4857:4875   */\n      add\n        /* \"#utility.yul\":4848:4854   */\n      dup5\n        /* \"#utility.yul\":4804:4876   */\n      tag_138\n      jump\t// in\n    tag_153:\n        /* \"#utility.yul\":4595:4883   */\n      swap5\n      swap4\n      pop\n      pop\n      pop\n      pop\n      jump\t// out\n        /* \"#utility.yul\":4889:5308   */\n    tag_84:\n      0x00\n        /* \"#utility.yul\":5093:5095   */\n      0x20\n        /* \"#utility.yul\":5082:5091   */\n      dup3\n        /* \"#utility.yul\":5078:5096   */\n      add\n        /* \"#utility.yul\":5070:5096   */\n      swap1\n      pop\n        /* \"#utility.yul\":5142:5151   */\n      dup2\n        /* \"#utility.yul\":5136:5140   */\n      dup2\n        /* \"#utility.yul\":5132:5152   */\n      sub\n        /* \"#utility.yul\":5128:5129   */\n      0x00\n        /* \"#utility.yul\":5117:5126   */\n      dup4\n        /* \"#utility.yul\":5113:5130   */\n      add\n        /* \"#utility.yul\":5106:5153   */\n      mstore\n        /* \"#utility.yul\":5170:5301   */\n      tag_155\n        /* \"#utility.yul\":5296:5300   */\n      dup2\n        /* \"#utility.yul\":5170:5301   */\n      tag_112\n      jump\t// in\n    tag_155:\n        /* \"#utility.yul\":5162:5301   */\n      swap1\n      pop\n        /* \"#utility.yul\":5060:5308   */\n      swap2\n      swap1\n      pop\n      jump\t// out\n        /* \"#utility.yul\":5314:5733   */\n    tag_53:\n      0x00\n        /* \"#utility.yul\":5518:5520   */\n      0x20\n        /* \"#utility.yul\":5507:5516   */\n      dup3\n        /* \"#utility.yul\":5503:5521   */\n      add\n        /* \"#utility.yul\":5495:5521   */\n      swap1\n      pop\n        /* \"#utility.yul\":5567:5576   */\n      dup2\n        /* \"#utility.yul\":5561:5565   */\n      dup2\n        /* \"#utility.yul\":5557:5577   */\n      sub\n        /* \"#utility.yul\":5553:5554   */\n      0x00\n        /* \"#utility.yul\":5542:5551   */\n      dup4\n        /* \"#utility.yul\":5538:5555   */\n      add\n        /* \"#utility.yul\":5531:5578   */\n      mstore\n        /* \"#utility.yul\":5595:5726   */\n      tag_157\n        /* \"#utility.yul\":5721:5725   */\n      dup2\n        /* \"#utility.yul\":5595:5726   */\n      tag_118\n      jump\t// in\n    tag_157:\n        /* \"#utility.yul\":5587:5726   */\n      swap1\n      pop\n        /* \"#utility.yul\":5485:5733   */\n      swap2\n      swap1\n      pop\n      jump\t// out\n        /* \"#utility.yul\":5739:6158   */\n    tag_37:\n      0x00\n        /* \"#utility.yul\":5943:5945   */\n      0x20\n        /* \"#utility.yul\":5932:5941   */\n      dup3\n        /* \"#utility.yul\":5928:5946   */\n      add\n        /* \"#utility.yul\":5920:5946   */\n      swap1\n      pop\n        /* \"#utility.yul\":5992:6001   */\n      dup2\n        /* \"#utility.yul\":5986:5990   */\n      dup2\n        /* \"#utility.yul\":5982:6002   */\n      sub\n        /* \"#utility.yul\":5978:5979   */\n      0x00\n        /* \"#utility.yul\":5967:5976   */\n      dup4\n        /* \"#utility.yul\":5963:5980   */\n      add\n        /* \"#utility.yul\":5956:6003   */\n      mstore\n        /* \"#utility.yul\":6020:6151   */\n      tag_159\n        /* \"#utility.yul\":6146:6150   */\n      dup2\n        /* \"#utility.yul\":6020:6151   */\n      tag_123\n      jump\t// in\n    tag_159:\n        /* \"#utility.yul\":6012:6151   */\n      swap1\n      pop\n        /* \"#utility.yul\":5910:6158   */\n      swap2\n      swap1\n      pop\n      jump\t// out\n        /* \"#utility.yul\":6164:6583   */\n    tag_30:\n      0x00\n        /* \"#utility.yul\":6368:6370   */\n      0x20\n        /* \"#utility.yul\":6357:6366   */\n      dup3\n        /* \"#utility.yul\":6353:6371   */\n      add\n        /* \"#utility.yul\":6345:6371   */\n      swap1\n      pop\n        /* \"#utility.yul\":6417:6426   */\n      dup2\n        /* \"#utility.yul\":6411:6415   */\n      dup2\n        /* \"#utility.yul\":6407:6427   */\n      sub\n        /* \"#utility.yul\":6403:6404   */\n      0x00\n        /* \"#utility.yul\":6392:6401   */\n      dup4\n        /* \"#utility.yul\":6388:6405   */\n      add\n        /* \"#utility.yul\":6381:6428   */\n      mstore\n        /* \"#utility.yul\":6445:6576   */\n      tag_161\n        /* \"#utility.yul\":6571:6575   */\n      dup2\n        /* \"#utility.yul\":6445:6576   */\n      tag_128\n      jump\t// in\n    tag_161:\n        /* \"#utility.yul\":6437:6576   */\n      swap1\n      pop\n        /* \"#utility.yul\":6335:6583   */\n      swap2\n      swap1\n      pop\n      jump\t// out\n        /* \"#utility.yul\":6589:7008   */\n    tag_34:\n      0x00\n        /* \"#utility.yul\":6793:6795   */\n      0x20\n        /* \"#utility.yul\":6782:6791   */\n      dup3\n        /* \"#utility.yul\":6778:6796   */\n      add\n        /* \"#utility.yul\":6770:6796   */\n      swap1\n      pop\n        /* \"#utility.yul\":6842:6851   */\n      dup2\n        /* \"#utility.yul\":6836:6840   */\n      dup2\n        /* \"#utility.yul\":6832:6852   */\n      sub\n        /* \"#utility.yul\":6828:6829   */\n      0x00\n        /* \"#utility.yul\":6817:6826   */\n      dup4\n        /* \"#utility.yul\":6813:6830   */\n      add\n        /* \"#utility.yul\":6806:6853   */\n      mstore\n        /* \"#utility.yul\":6870:7001   */\n      tag_163\n        /* \"#utility.yul\":6996:7000   */\n      dup2\n        /* \"#utility.yul\":6870:7001   */\n      tag_133\n      jump\t// in\n    tag_163:\n        /* \"#utility.yul\":6862:7001   */\n      swap1\n      pop\n        /* \"#utility.yul\":6760:7008   */\n      swap2\n      swap1\n      pop\n      jump\t// out\n        /* \"#utility.yul\":7014:7236   */\n    tag_15:\n      0x00\n        /* \"#utility.yul\":7145:7147   */\n      0x20\n        /* \"#utility.yul\":7134:7143   */\n      dup3\n        /* \"#utility.yul\":7130:7148   */\n      add\n        /* \"#utility.yul\":7122:7148   */\n      swap1\n      pop\n        /* \"#utility.yul\":7158:7229   */\n      tag_165\n        /* \"#utility.yul\":7226:7227   */\n      0x00\n        /* \"#utility.yul\":7215:7224   */\n      dup4\n        /* \"#utility.yul\":7211:7228   */\n      add\n        /* \"#utility.yul\":7202:7208   */\n      dup5\n        /* \"#utility.yul\":7158:7229   */\n      tag_138\n      jump\t// in\n    tag_165:\n        /* \"#utility.yul\":7112:7236   */\n      swap3\n      swap2\n      pop\n      pop\n      jump\t// out\n        /* \"#utility.yul\":7242:7411   */\n    tag_115:\n      0x00\n        /* \"#utility.yul\":7360:7366   */\n      dup3\n        /* \"#utility.yul\":7355:7358   */\n      dup3\n        /* \"#utility.yul\":7348:7367   */\n      mstore\n        /* \"#utility.yul\":7400:7404   */\n      0x20\n        /* \"#utility.yul\":7395:7398   */\n      dup3\n        /* \"#utility.yul\":7391:7405   */\n      add\n        /* \"#utility.yul\":7376:7405   */\n      swap1\n      pop\n        /* \"#utility.yul\":7338:7411   */\n      swap3\n      swap2\n      pop\n      pop\n      jump\t// out\n        /* \"#utility.yul\":7417:7513   */\n    tag_111:\n      0x00\n        /* \"#utility.yul\":7483:7507   */\n      tag_168\n        /* \"#utility.yul\":7501:7506   */\n      dup3\n        /* \"#utility.yul\":7483:7507   */\n      tag_169\n      jump\t// in\n    tag_168:\n        /* \"#utility.yul\":7472:7507   */\n      swap1\n      pop\n        /* \"#utility.yul\":7462:7513   */\n      swap2\n      swap1\n      pop\n      jump\t// out\n        /* \"#utility.yul\":7519:7645   */\n    tag_169:\n      0x00\n        /* \"#utility.yul\":7596:7638   */\n      0xffffffffffffffffffffffffffffffffffffffff\n        /* \"#utility.yul\":7589:7594   */\n      dup3\n        /* \"#utility.yul\":7585:7639   */\n      and\n        /* \"#utility.yul\":7574:7639   */\n      swap1\n      pop\n        /* \"#utility.yul\":7564:7645   */\n      swap2\n      swap1\n      pop\n      jump\t// out\n        /* \"#utility.yul\":7651:7728   */\n    tag_141:\n      0x00\n        /* \"#utility.yul\":7717:7722   */\n      dup2\n        /* \"#utility.yul\":7706:7722   */\n      swap1\n      pop\n        /* \"#utility.yul\":7696:7728   */\n      swap2\n      swap1\n      pop\n      jump\t// out\n        /* \"#utility.yul\":7734:7868   */\n    tag_107:\n      0x00\n        /* \"#utility.yul\":7825:7862   */\n      tag_173\n        /* \"#utility.yul\":7856:7861   */\n      dup3\n        /* \"#utility.yul\":7825:7862   */\n      tag_174\n      jump\t// in\n    tag_173:\n        /* \"#utility.yul\":7812:7862   */\n      swap1\n      pop\n        /* \"#utility.yul\":7802:7868   */\n      swap2\n      swap1\n      pop\n      jump\t// out\n        /* \"#utility.yul\":7874:8000   */\n    tag_174:\n      0x00\n        /* \"#utility.yul\":7957:7994   */\n      tag_176\n        /* \"#utility.yul\":7988:7993   */\n      dup3\n        /* \"#utility.yul\":7957:7994   */\n      tag_177\n      jump\t// in\n    tag_176:\n        /* \"#utility.yul\":7944:7994   */\n      swap1\n      pop\n        /* \"#utility.yul\":7934:8000   */\n      swap2\n      swap1\n      pop\n      jump\t// out\n        /* \"#utility.yul\":8006:8119   */\n    tag_177:\n      0x00\n        /* \"#utility.yul\":8089:8113   */\n      tag_179\n        /* \"#utility.yul\":8107:8112   */\n      dup3\n        /* \"#utility.yul\":8089:8113   */\n      tag_169\n      jump\t// in\n    tag_179:\n        /* \"#utility.yul\":8076:8113   */\n      swap1\n      pop\n        /* \"#utility.yul\":8066:8119   */\n      swap2\n      swap1\n      pop\n      jump\t// out\n        /* \"#utility.yul\":8125:8302   */\n    tag_117:\n        /* \"#utility.yul\":8265:8294   */\n      0x436f756e7465723a2064656372656d656e74206f766572666c6f770000000000\n        /* \"#utility.yul\":8261:8262   */\n      0x00\n        /* \"#utility.yul\":8253:8259   */\n      dup3\n        /* \"#utility.yul\":8249:8263   */\n      add\n        /* \"#utility.yul\":8242:8295   */\n      mstore\n        /* \"#utility.yul\":8231:8302   */\n      pop\n      jump\t// out\n        /* \"#utility.yul\":8308:8533   */\n    tag_122:\n        /* \"#utility.yul\":8448:8482   */\n      0x4e6f7420656e6f75676820657468657220746f20636f7665722061736b696e67\n        /* \"#utility.yul\":8444:8445   */\n      0x00\n        /* \"#utility.yul\":8436:8442   */\n      dup3\n        /* \"#utility.yul\":8432:8446   */\n      add\n        /* \"#utility.yul\":8425:8483   */\n      mstore\n        /* \"#utility.yul\":8517:8525   */\n      0x2070726963650000000000000000000000000000000000000000000000000000\n        /* \"#utility.yul\":8512:8514   */\n      0x20\n        /* \"#utility.yul\":8504:8510   */\n      dup3\n        /* \"#utility.yul\":8500:8515   */\n      add\n        /* \"#utility.yul\":8493:8526   */\n      mstore\n        /* \"#utility.yul\":8414:8533   */\n      pop\n      jump\t// out\n        /* \"#utility.yul\":8539:8721   */\n    tag_127:\n        /* \"#utility.yul\":8679:8713   */\n      0x4e6f7420656e6f75676820657468657220666f72206c697374696e6720666565\n        /* \"#utility.yul\":8675:8676   */\n      0x00\n        /* \"#utility.yul\":8667:8673   */\n      dup3\n        /* \"#utility.yul\":8663:8677   */\n      add\n        /* \"#utility.yul\":8656:8714   */\n      mstore\n        /* \"#utility.yul\":8645:8721   */\n      pop\n      jump\t// out\n        /* \"#utility.yul\":8727:8908   */\n    tag_132:\n        /* \"#utility.yul\":8867:8900   */\n      0x5265656e7472616e637947756172643a207265656e7472616e742063616c6c00\n        /* \"#utility.yul\":8863:8864   */\n      0x00\n        /* \"#utility.yul\":8855:8861   */\n      dup3\n        /* \"#utility.yul\":8851:8865   */\n      add\n        /* \"#utility.yul\":8844:8901   */\n      mstore\n        /* \"#utility.yul\":8833:8908   */\n      pop\n      jump\t// out\n        /* \"#utility.yul\":8914:9092   */\n    tag_137:\n        /* \"#utility.yul\":9054:9084   */\n      0x5072696365206d757374206265206174206c6561737420312077656900000000\n        /* \"#utility.yul\":9050:9051   */\n      0x00\n        /* \"#utility.yul\":9042:9048   */\n      dup3\n        /* \"#utility.yul\":9038:9052   */\n      add\n        /* \"#utility.yul\":9031:9085   */\n      mstore\n        /* \"#utility.yul\":9020:9092   */\n      pop\n      jump\t// out\n        /* \"#utility.yul\":9098:9220   */\n    tag_90:\n        /* \"#utility.yul\":9171:9195   */\n      tag_186\n        /* \"#utility.yul\":9189:9194   */\n      dup2\n        /* \"#utility.yul\":9171:9195   */\n      tag_111\n      jump\t// in\n    tag_186:\n        /* \"#utility.yul\":9164:9169   */\n      dup2\n        /* \"#utility.yul\":9161:9196   */\n      eq\n        /* \"#utility.yul\":9151:9153   */\n      tag_187\n      jumpi\n        /* \"#utility.yul\":9210:9211   */\n      0x00\n        /* \"#utility.yul\":9207:9208   */\n      dup1\n        /* \"#utility.yul\":9200:9212   */\n      revert\n        /* \"#utility.yul\":9151:9153   */\n    tag_187:\n        /* \"#utility.yul\":9141:9220   */\n      pop\n      jump\t// out\n        /* \"#utility.yul\":9226:9348   */\n    tag_94:\n        /* \"#utility.yul\":9299:9323   */\n      tag_189\n        /* \"#utility.yul\":9317:9322   */\n      dup2\n        /* \"#utility.yul\":9299:9323   */\n      tag_141\n      jump\t// in\n    tag_189:\n        /* \"#utility.yul\":9292:9297   */\n      dup2\n        /* \"#utility.yul\":9289:9324   */\n      eq\n        /* \"#utility.yul\":9279:9281   */\n      tag_190\n      jumpi\n        /* \"#utility.yul\":9338:9339   */\n      0x00\n        /* \"#utility.yul\":9335:9336   */\n      dup1\n        /* \"#utility.yul\":9328:9340   */\n      revert\n        /* \"#utility.yul\":9279:9281   */\n    tag_190:\n        /* \"#utility.yul\":9269:9348   */\n      pop\n      jump\t// out\n\n    auxdata: 0xa2646970667358221220d8d727143113bbff9a84928f7a96cccd346de8515f1d7596ea1d44e425bbcd0c64736f6c63430008010033\n}\n",
				"bytecode": {
					"linkReferences": {},
					"object": "608060405266071afd498d000060035534801561001b57600080fd5b50600160008190555033600460006101000a81548173ffffffffffffffffffffffffffffffffffffffff021916908373ffffffffffffffffffffffffffffffffffffffff160217905550610f7f806100746000396000f3fe60806040526004361061004a5760003560e01c8063049356941461004f5780632b86ae381461006b5780634ddf4f8f14610096578063ad05f1b4146100b2578063b8fe6abe146100ce575b600080fd5b61006960048036038101906100649190610b1a565b6100f9565b005b34801561007757600080fd5b50610080610381565b60405161008d9190610d8a565b60405180910390f35b6100b060048036038101906100ab9190610ade565b610387565b005b6100cc60048036038101906100c79190610b1a565b610617565b005b3480156100da57600080fd5b506100e3610a38565b6040516100f09190610d8a565b60405180910390f35b6002600054141561013f576040517f08c379a000000000000000000000000000000000000000000000000000000000815260040161013690610d4a565b60405180910390fd5b60026000819055506000811161018a576040517f08c379a000000000000000000000000000000000000000000000000000000000815260040161018190610d6a565b60405180910390fd5b60035434146101ce576040517f08c379a00000000000000000000000000000000000000000000000000000000081526004016101c590610d2a565b60405180910390fd5b8273ffffffffffffffffffffffffffffffffffffffff166323b872dd3330856040518463ffffffff1660e01b815260040161020b93929190610c7c565b600060405180830381600087803b15801561022557600080fd5b505af1158015610239573d6000803e3d6000fd5b505050506000600560008481526020019081526020016000209050338160030160006101000a81548173ffffffffffffffffffffffffffffffffffffffff021916908373ffffffffffffffffffffffffffffffffffffffff160217905550308160040160006101000a81548173ffffffffffffffffffffffffffffffffffffffff021916908373ffffffffffffffffffffffffffffffffffffffff16021790555060018160050160146101000a81548160ff02191690831515021790555081816002018190555061030a6001610a42565b3073ffffffffffffffffffffffffffffffffffffffff163373ffffffffffffffffffffffffffffffffffffffff167fa0c6c0d02d86fdacecbaa5fdf5894bab204e31a778250474108540733a9b8d1986868660405161036b93929190610cb3565b60405180910390a3506001600081905550505050565b60035481565b600260005414156103cd576040517f08c379a00000000000000000000000000000000000000000000000000000000081526004016103c490610d4a565b60405180910390fd5b600260008190555060006005600083815260200190815260200160002090508060020154341015610433576040517f08c379a000000000000000000000000000000000000000000000000000000000815260040161042a90610d0a565b60405180910390fd5b60003390508160030160009054906101000a900473ffffffffffffffffffffffffffffffffffffffff1673ffffffffffffffffffffffffffffffffffffffff166108fc349081150290604051600060405180830381858888f193505050501580156104a2573d6000803e3d6000fd5b508373ffffffffffffffffffffffffffffffffffffffff166323b872dd3083866040518463ffffffff1660e01b81526004016104e093929190610c45565b600060405180830381600087803b1580156104fa57600080fd5b505af115801561050e573d6000803e3d6000fd5b50505050808260040160006101000a81548173ffffffffffffffffffffffffffffffffffffffff021916908373ffffffffffffffffffffffffffffffffffffffff16021790555060008260050160146101000a81548160ff02191690831515021790555061057c6001610a9e565b8073ffffffffffffffffffffffffffffffffffffffff168260030160009054906101000a900473ffffffffffffffffffffffffffffffffffffffff1673ffffffffffffffffffffffffffffffffffffffff167f16f1dbd97e6bf646d429ed186cce832f1f7fd9907814293b83181e9970ab7bd286863460405161060193929190610cb3565b60405180910390a3505060016000819055505050565b6002600054141561065d576040517f08c379a000000000000000000000000000000000000000000000000000000000815260040161065490610d4a565b60405180910390fd5b6002600081905550600081116106a8576040517f08c379a000000000000000000000000000000000000000000000000000000000815260040161069f90610d6a565b60405180910390fd5b60035434146106ec576040517f08c379a00000000000000000000000000000000000000000000000000000000081526004016106e390610d2a565b60405180910390fd5b8273ffffffffffffffffffffffffffffffffffffffff166323b872dd3330856040518463ffffffff1660e01b815260040161072993929190610c7c565b600060405180830381600087803b15801561074357600080fd5b505af1158015610757573d6000803e3d6000fd5b505050506107656002610a9e565b6040518060e001604052808473ffffffffffffffffffffffffffffffffffffffff1681526020018381526020018281526020013373ffffffffffffffffffffffffffffffffffffffff1681526020013073ffffffffffffffffffffffffffffffffffffffff1681526020013373ffffffffffffffffffffffffffffffffffffffff168152602001600115158152506005600084815260200190815260200160002060008201518160000160006101000a81548173ffffffffffffffffffffffffffffffffffffffff021916908373ffffffffffffffffffffffffffffffffffffffff160217905550602082015181600101556040820151816002015560608201518160030160006101000a81548173ffffffffffffffffffffffffffffffffffffffff021916908373ffffffffffffffffffffffffffffffffffffffff16021790555060808201518160040160006101000a81548173ffffffffffffffffffffffffffffffffffffffff021916908373ffffffffffffffffffffffffffffffffffffffff16021790555060a08201518160050160006101000a81548173ffffffffffffffffffffffffffffffffffffffff021916908373ffffffffffffffffffffffffffffffffffffffff16021790555060c08201518160050160146101000a81548160ff021916908315150217905550905050600460009054906101000a900473ffffffffffffffffffffffffffffffffffffffff1673ffffffffffffffffffffffffffffffffffffffff166108fc349081150290604051600060405180830381858888f193505050501580156109c1573d6000803e3d6000fd5b503073ffffffffffffffffffffffffffffffffffffffff163373ffffffffffffffffffffffffffffffffffffffff167fa0c6c0d02d86fdacecbaa5fdf5894bab204e31a778250474108540733a9b8d19858585604051610a2393929190610cb3565b60405180910390a36001600081905550505050565b6000600354905090565b60008160000154905060008111610a8e576040517f08c379a0000000000000000000000000000000000000000000000000000000008152600401610a8590610cea565b60405180910390fd5b6001810382600001819055505050565b6001816000016000828254019250508190555050565b600081359050610ac381610f1b565b92915050565b600081359050610ad881610f32565b92915050565b60008060408385031215610af157600080fd5b6000610aff85828601610ab4565b9250506020610b1085828601610ac9565b9150509250929050565b600080600060608486031215610b2f57600080fd5b6000610b3d86828701610ab4565b9350506020610b4e86828701610ac9565b9250506040610b5f86828701610ac9565b9150509250925092565b610b7281610df2565b82525050565b610b8181610db6565b82525050565b6000610b94601b83610da5565b9150610b9f82610e28565b602082019050919050565b6000610bb7602683610da5565b9150610bc282610e51565b604082019050919050565b6000610bda602083610da5565b9150610be582610ea0565b602082019050919050565b6000610bfd601f83610da5565b9150610c0882610ec9565b602082019050919050565b6000610c20601c83610da5565b9150610c2b82610ef2565b602082019050919050565b610c3f81610de8565b82525050565b6000606082019050610c5a6000830186610b78565b610c676020830185610b69565b610c746040830184610c36565b949350505050565b6000606082019050610c916000830186610b78565b610c9e6020830185610b78565b610cab6040830184610c36565b949350505050565b6000606082019050610cc86000830186610b78565b610cd56020830185610c36565b610ce26040830184610c36565b949350505050565b60006020820190508181036000830152610d0381610b87565b9050919050565b60006020820190508181036000830152610d2381610baa565b9050919050565b60006020820190508181036000830152610d4381610bcd565b9050919050565b60006020820190508181036000830152610d6381610bf0565b9050919050565b60006020820190508181036000830152610d8381610c13565b9050919050565b6000602082019050610d9f6000830184610c36565b92915050565b600082825260208201905092915050565b6000610dc182610dc8565b9050919050565b600073ffffffffffffffffffffffffffffffffffffffff82169050919050565b6000819050919050565b6000610dfd82610e04565b9050919050565b6000610e0f82610e16565b9050919050565b6000610e2182610dc8565b9050919050565b7f436f756e7465723a2064656372656d656e74206f766572666c6f770000000000600082015250565b7f4e6f7420656e6f75676820657468657220746f20636f7665722061736b696e6760008201527f2070726963650000000000000000000000000000000000000000000000000000602082015250565b7f4e6f7420656e6f75676820657468657220666f72206c697374696e6720666565600082015250565b7f5265656e7472616e637947756172643a207265656e7472616e742063616c6c00600082015250565b7f5072696365206d757374206265206174206c6561737420312077656900000000600082015250565b610f2481610db6565b8114610f2f57600080fd5b50565b610f3b81610de8565b8114610f4657600080fd5b5056fea2646970667358221220d8d727143113bbff9a84928f7a96cccd346de8515f1d7596ea1d44e425bbcd0c64736f6c63430008010033",
					"opcodes": "PUSH1 0x80 PUSH1 0x40 MSTORE PUSH7 0x71AFD498D0000 PUSH1 0x3 SSTORE CALLVALUE DUP1 ISZERO PUSH2 0x1B JUMPI PUSH1 0x0 DUP1 REVERT JUMPDEST POP PUSH1 0x1 PUSH1 0x0 DUP2 SWAP1 SSTORE POP CALLER PUSH1 0x4 PUSH1 0x0 PUSH2 0x100 EXP DUP2 SLOAD DUP2 PUSH20 0xFFFFFFFFFFFFFFFFFFFFFFFFFFFFFFFFFFFFFFFF MUL NOT AND SWAP1 DUP4 PUSH20 0xFFFFFFFFFFFFFFFFFFFFFFFFFFFFFFFFFFFFFFFF AND MUL OR SWAP1 SSTORE POP PUSH2 0xF7F DUP1 PUSH2 0x74 PUSH1 0x0 CODECOPY PUSH1 0x0 RETURN INVALID PUSH1 0x80 PUSH1 0x40 MSTORE PUSH1 0x4 CALLDATASIZE LT PUSH2 0x4A JUMPI PUSH1 0x0 CALLDATALOAD PUSH1 0xE0 SHR DUP1 PUSH4 0x4935694 EQ PUSH2 0x4F JUMPI DUP1 PUSH4 0x2B86AE38 EQ PUSH2 0x6B JUMPI DUP1 PUSH4 0x4DDF4F8F EQ PUSH2 0x96 JUMPI DUP1 PUSH4 0xAD05F1B4 EQ PUSH2 0xB2 JUMPI DUP1 PUSH4 0xB8FE6ABE EQ PUSH2 0xCE JUMPI JUMPDEST PUSH1 0x0 DUP1 REVERT JUMPDEST PUSH2 0x69 PUSH1 0x4 DUP1 CALLDATASIZE SUB DUP2 ADD SWAP1 PUSH2 0x64 SWAP2 SWAP1 PUSH2 0xB1A JUMP JUMPDEST PUSH2 0xF9 JUMP JUMPDEST STOP JUMPDEST CALLVALUE DUP1 ISZERO PUSH2 0x77 JUMPI PUSH1 0x0 DUP1 REVERT JUMPDEST POP PUSH2 0x80 PUSH2 0x381 JUMP JUMPDEST PUSH1 0x40 MLOAD PUSH2 0x8D SWAP2 SWAP1 PUSH2 0xD8A JUMP JUMPDEST PUSH1 0x40 MLOAD DUP1 SWAP2 SUB SWAP1 RETURN JUMPDEST PUSH2 0xB0 PUSH1 0x4 DUP1 CALLDATASIZE SUB DUP2 ADD SWAP1 PUSH2 0xAB SWAP2 SWAP1 PUSH2 0xADE JUMP JUMPDEST PUSH2 0x387 JUMP JUMPDEST STOP JUMPDEST PUSH2 0xCC PUSH1 0x4 DUP1 CALLDATASIZE SUB DUP2 ADD SWAP1 PUSH2 0xC7 SWAP2 SWAP1 PUSH2 0xB1A JUMP JUMPDEST PUSH2 0x617 JUMP JUMPDEST STOP JUMPDEST CALLVALUE DUP1 ISZERO PUSH2 0xDA JUMPI PUSH1 0x0 DUP1 REVERT JUMPDEST POP PUSH2 0xE3 PUSH2 0xA38 JUMP JUMPDEST PUSH1 0x40 MLOAD PUSH2 0xF0 SWAP2 SWAP1 PUSH2 0xD8A JUMP JUMPDEST PUSH1 0x40 MLOAD DUP1 SWAP2 SUB SWAP1 RETURN JUMPDEST PUSH1 0x2 PUSH1 0x0 SLOAD EQ ISZERO PUSH2 0x13F JUMPI PUSH1 0x40 MLOAD PUSH32 0x8C379A000000000000000000000000000000000000000000000000000000000 DUP2 MSTORE PUSH1 0x4 ADD PUSH2 0x136 SWAP1 PUSH2 0xD4A JUMP JUMPDEST PUSH1 0x40 MLOAD DUP1 SWAP2 SUB SWAP1 REVERT JUMPDEST PUSH1 0x2 PUSH1 0x0 DUP2 SWAP1 SSTORE POP PUSH1 0x0 DUP2 GT PUSH2 0x18A JUMPI PUSH1 0x40 MLOAD PUSH32 0x8C379A000000000000000000000000000000000000000000000000000000000 DUP2 MSTORE PUSH1 0x4 ADD PUSH2 0x181 SWAP1 PUSH2 0xD6A JUMP JUMPDEST PUSH1 0x40 MLOAD DUP1 SWAP2 SUB SWAP1 REVERT JUMPDEST PUSH1 0x3 SLOAD CALLVALUE EQ PUSH2 0x1CE JUMPI PUSH1 0x40 MLOAD PUSH32 0x8C379A000000000000000000000000000000000000000000000000000000000 DUP2 MSTORE PUSH1 0x4 ADD PUSH2 0x1C5 SWAP1 PUSH2 0xD2A JUMP JUMPDEST PUSH1 0x40 MLOAD DUP1 SWAP2 SUB SWAP1 REVERT JUMPDEST DUP3 PUSH20 0xFFFFFFFFFFFFFFFFFFFFFFFFFFFFFFFFFFFFFFFF AND PUSH4 0x23B872DD CALLER ADDRESS DUP6 PUSH1 0x40 MLOAD DUP5 PUSH4 0xFFFFFFFF AND PUSH1 0xE0 SHL DUP2 MSTORE PUSH1 0x4 ADD PUSH2 0x20B SWAP4 SWAP3 SWAP2 SWAP1 PUSH2 0xC7C JUMP JUMPDEST PUSH1 0x0 PUSH1 0x40 MLOAD DUP1 DUP4 SUB DUP2 PUSH1 0x0 DUP8 DUP1 EXTCODESIZE ISZERO DUP1 ISZERO PUSH2 0x225 JUMPI PUSH1 0x0 DUP1 REVERT JUMPDEST POP GAS CALL ISZERO DUP1 ISZERO PUSH2 0x239 JUMPI RETURNDATASIZE PUSH1 0x0 DUP1 RETURNDATACOPY RETURNDATASIZE PUSH1 0x0 REVERT JUMPDEST POP POP POP POP PUSH1 0x0 PUSH1 0x5 PUSH1 0x0 DUP5 DUP2 MSTORE PUSH1 0x20 ADD SWAP1 DUP2 MSTORE PUSH1 0x20 ADD PUSH1 0x0 KECCAK256 SWAP1 POP CALLER DUP2 PUSH1 0x3 ADD PUSH1 0x0 PUSH2 0x100 EXP DUP2 SLOAD DUP2 PUSH20 0xFFFFFFFFFFFFFFFFFFFFFFFFFFFFFFFFFFFFFFFF MUL NOT AND SWAP1 DUP4 PUSH20 0xFFFFFFFFFFFFFFFFFFFFFFFFFFFFFFFFFFFFFFFF AND MUL OR SWAP1 SSTORE POP ADDRESS DUP2 PUSH1 0x4 ADD PUSH1 0x0 PUSH2 0x100 EXP DUP2 SLOAD DUP2 PUSH20 0xFFFFFFFFFFFFFFFFFFFFFFFFFFFFFFFFFFFFFFFF MUL NOT AND SWAP1 DUP4 PUSH20 0xFFFFFFFFFFFFFFFFFFFFFFFFFFFFFFFFFFFFFFFF AND MUL OR SWAP1 SSTORE POP PUSH1 0x1 DUP2 PUSH1 0x5 ADD PUSH1 0x14 PUSH2 0x100 EXP DUP2 SLOAD DUP2 PUSH1 0xFF MUL NOT AND SWAP1 DUP4 ISZERO ISZERO MUL OR SWAP1 SSTORE POP DUP2 DUP2 PUSH1 0x2 ADD DUP2 SWAP1 SSTORE POP PUSH2 0x30A PUSH1 0x1 PUSH2 0xA42 JUMP JUMPDEST ADDRESS PUSH20 0xFFFFFFFFFFFFFFFFFFFFFFFFFFFFFFFFFFFFFFFF AND CALLER PUSH20 0xFFFFFFFFFFFFFFFFFFFFFFFFFFFFFFFFFFFFFFFF AND PUSH32 0xA0C6C0D02D86FDACECBAA5FDF5894BAB204E31A778250474108540733A9B8D19 DUP7 DUP7 DUP7 PUSH1 0x40 MLOAD PUSH2 0x36B SWAP4 SWAP3 SWAP2 SWAP1 PUSH2 0xCB3 JUMP JUMPDEST PUSH1 0x40 MLOAD DUP1 SWAP2 SUB SWAP1 LOG3 POP PUSH1 0x1 PUSH1 0x0 DUP2 SWAP1 SSTORE POP POP POP POP JUMP JUMPDEST PUSH1 0x3 SLOAD DUP2 JUMP JUMPDEST PUSH1 0x2 PUSH1 0x0 SLOAD EQ ISZERO PUSH2 0x3CD JUMPI PUSH1 0x40 MLOAD PUSH32 0x8C379A000000000000000000000000000000000000000000000000000000000 DUP2 MSTORE PUSH1 0x4 ADD PUSH2 0x3C4 SWAP1 PUSH2 0xD4A JUMP JUMPDEST PUSH1 0x40 MLOAD DUP1 SWAP2 SUB SWAP1 REVERT JUMPDEST PUSH1 0x2 PUSH1 0x0 DUP2 SWAP1 SSTORE POP PUSH1 0x0 PUSH1 0x5 PUSH1 0x0 DUP4 DUP2 MSTORE PUSH1 0x20 ADD SWAP1 DUP2 MSTORE PUSH1 0x20 ADD PUSH1 0x0 KECCAK256 SWAP1 POP DUP1 PUSH1 0x2 ADD SLOAD CALLVALUE LT ISZERO PUSH2 0x433 JUMPI PUSH1 0x40 MLOAD PUSH32 0x8C379A000000000000000000000000000000000000000000000000000000000 DUP2 MSTORE PUSH1 0x4 ADD PUSH2 0x42A SWAP1 PUSH2 0xD0A JUMP JUMPDEST PUSH1 0x40 MLOAD DUP1 SWAP2 SUB SWAP1 REVERT JUMPDEST PUSH1 0x0 CALLER SWAP1 POP DUP2 PUSH1 0x3 ADD PUSH1 0x0 SWAP1 SLOAD SWAP1 PUSH2 0x100 EXP SWAP1 DIV PUSH20 0xFFFFFFFFFFFFFFFFFFFFFFFFFFFFFFFFFFFFFFFF AND PUSH20 0xFFFFFFFFFFFFFFFFFFFFFFFFFFFFFFFFFFFFFFFF AND PUSH2 0x8FC CALLVALUE SWAP1 DUP2 ISZERO MUL SWAP1 PUSH1 0x40 MLOAD PUSH1 0x0 PUSH1 0x40 MLOAD DUP1 DUP4 SUB DUP2 DUP6 DUP9 DUP9 CALL SWAP4 POP POP POP POP ISZERO DUP1 ISZERO PUSH2 0x4A2 JUMPI RETURNDATASIZE PUSH1 0x0 DUP1 RETURNDATACOPY RETURNDATASIZE PUSH1 0x0 REVERT JUMPDEST POP DUP4 PUSH20 0xFFFFFFFFFFFFFFFFFFFFFFFFFFFFFFFFFFFFFFFF AND PUSH4 0x23B872DD ADDRESS DUP4 DUP7 PUSH1 0x40 MLOAD DUP5 PUSH4 0xFFFFFFFF AND PUSH1 0xE0 SHL DUP2 MSTORE PUSH1 0x4 ADD PUSH2 0x4E0 SWAP4 SWAP3 SWAP2 SWAP1 PUSH2 0xC45 JUMP JUMPDEST PUSH1 0x0 PUSH1 0x40 MLOAD DUP1 DUP4 SUB DUP2 PUSH1 0x0 DUP8 DUP1 EXTCODESIZE ISZERO DUP1 ISZERO PUSH2 0x4FA JUMPI PUSH1 0x0 DUP1 REVERT JUMPDEST POP GAS CALL ISZERO DUP1 ISZERO PUSH2 0x50E JUMPI RETURNDATASIZE PUSH1 0x0 DUP1 RETURNDATACOPY RETURNDATASIZE PUSH1 0x0 REVERT JUMPDEST POP POP POP POP DUP1 DUP3 PUSH1 0x4 ADD PUSH1 0x0 PUSH2 0x100 EXP DUP2 SLOAD DUP2 PUSH20 0xFFFFFFFFFFFFFFFFFFFFFFFFFFFFFFFFFFFFFFFF MUL NOT AND SWAP1 DUP4 PUSH20 0xFFFFFFFFFFFFFFFFFFFFFFFFFFFFFFFFFFFFFFFF AND MUL OR SWAP1 SSTORE POP PUSH1 0x0 DUP3 PUSH1 0x5 ADD PUSH1 0x14 PUSH2 0x100 EXP DUP2 SLOAD DUP2 PUSH1 0xFF MUL NOT AND SWAP1 DUP4 ISZERO ISZERO MUL OR SWAP1 SSTORE POP PUSH2 0x57C PUSH1 0x1 PUSH2 0xA9E JUMP JUMPDEST DUP1 PUSH20 0xFFFFFFFFFFFFFFFFFFFFFFFFFFFFFFFFFFFFFFFF AND DUP3 PUSH1 0x3 ADD PUSH1 0x0 SWAP1 SLOAD SWAP1 PUSH2 0x100 EXP SWAP1 DIV PUSH20 0xFFFFFFFFFFFFFFFFFFFFFFFFFFFFFFFFFFFFFFFF AND PUSH20 0xFFFFFFFFFFFFFFFFFFFFFFFFFFFFFFFFFFFFFFFF AND PUSH32 0x16F1DBD97E6BF646D429ED186CCE832F1F7FD9907814293B83181E9970AB7BD2 DUP7 DUP7 CALLVALUE PUSH1 0x40 MLOAD PUSH2 0x601 SWAP4 SWAP3 SWAP2 SWAP1 PUSH2 0xCB3 JUMP JUMPDEST PUSH1 0x40 MLOAD DUP1 SWAP2 SUB SWAP1 LOG3 POP POP PUSH1 0x1 PUSH1 0x0 DUP2 SWAP1 SSTORE POP POP POP JUMP JUMPDEST PUSH1 0x2 PUSH1 0x0 SLOAD EQ ISZERO PUSH2 0x65D JUMPI PUSH1 0x40 MLOAD PUSH32 0x8C379A000000000000000000000000000000000000000000000000000000000 DUP2 MSTORE PUSH1 0x4 ADD PUSH2 0x654 SWAP1 PUSH2 0xD4A JUMP JUMPDEST PUSH1 0x40 MLOAD DUP1 SWAP2 SUB SWAP1 REVERT JUMPDEST PUSH1 0x2 PUSH1 0x0 DUP2 SWAP1 SSTORE POP PUSH1 0x0 DUP2 GT PUSH2 0x6A8 JUMPI PUSH1 0x40 MLOAD PUSH32 0x8C379A000000000000000000000000000000000000000000000000000000000 DUP2 MSTORE PUSH1 0x4 ADD PUSH2 0x69F SWAP1 PUSH2 0xD6A JUMP JUMPDEST PUSH1 0x40 MLOAD DUP1 SWAP2 SUB SWAP1 REVERT JUMPDEST PUSH1 0x3 SLOAD CALLVALUE EQ PUSH2 0x6EC JUMPI PUSH1 0x40 MLOAD PUSH32 0x8C379A000000000000000000000000000000000000000000000000000000000 DUP2 MSTORE PUSH1 0x4 ADD PUSH2 0x6E3 SWAP1 PUSH2 0xD2A JUMP JUMPDEST PUSH1 0x40 MLOAD DUP1 SWAP2 SUB SWAP1 REVERT JUMPDEST DUP3 PUSH20 0xFFFFFFFFFFFFFFFFFFFFFFFFFFFFFFFFFFFFFFFF AND PUSH4 0x23B872DD CALLER ADDRESS DUP6 PUSH1 0x40 MLOAD DUP5 PUSH4 0xFFFFFFFF AND PUSH1 0xE0 SHL DUP2 MSTORE PUSH1 0x4 ADD PUSH2 0x729 SWAP4 SWAP3 SWAP2 SWAP1 PUSH2 0xC7C JUMP JUMPDEST PUSH1 0x0 PUSH1 0x40 MLOAD DUP1 DUP4 SUB DUP2 PUSH1 0x0 DUP8 DUP1 EXTCODESIZE ISZERO DUP1 ISZERO PUSH2 0x743 JUMPI PUSH1 0x0 DUP1 REVERT JUMPDEST POP GAS CALL ISZERO DUP1 ISZERO PUSH2 0x757 JUMPI RETURNDATASIZE PUSH1 0x0 DUP1 RETURNDATACOPY RETURNDATASIZE PUSH1 0x0 REVERT JUMPDEST POP POP POP POP PUSH2 0x765 PUSH1 0x2 PUSH2 0xA9E JUMP JUMPDEST PUSH1 0x40 MLOAD DUP1 PUSH1 0xE0 ADD PUSH1 0x40 MSTORE DUP1 DUP5 PUSH20 0xFFFFFFFFFFFFFFFFFFFFFFFFFFFFFFFFFFFFFFFF AND DUP2 MSTORE PUSH1 0x20 ADD DUP4 DUP2 MSTORE PUSH1 0x20 ADD DUP3 DUP2 MSTORE PUSH1 0x20 ADD CALLER PUSH20 0xFFFFFFFFFFFFFFFFFFFFFFFFFFFFFFFFFFFFFFFF AND DUP2 MSTORE PUSH1 0x20 ADD ADDRESS PUSH20 0xFFFFFFFFFFFFFFFFFFFFFFFFFFFFFFFFFFFFFFFF AND DUP2 MSTORE PUSH1 0x20 ADD CALLER PUSH20 0xFFFFFFFFFFFFFFFFFFFFFFFFFFFFFFFFFFFFFFFF AND DUP2 MSTORE PUSH1 0x20 ADD PUSH1 0x1 ISZERO ISZERO DUP2 MSTORE POP PUSH1 0x5 PUSH1 0x0 DUP5 DUP2 MSTORE PUSH1 0x20 ADD SWAP1 DUP2 MSTORE PUSH1 0x20 ADD PUSH1 0x0 KECCAK256 PUSH1 0x0 DUP3 ADD MLOAD DUP2 PUSH1 0x0 ADD PUSH1 0x0 PUSH2 0x100 EXP DUP2 SLOAD DUP2 PUSH20 0xFFFFFFFFFFFFFFFFFFFFFFFFFFFFFFFFFFFFFFFF MUL NOT AND SWAP1 DUP4 PUSH20 0xFFFFFFFFFFFFFFFFFFFFFFFFFFFFFFFFFFFFFFFF AND MUL OR SWAP1 SSTORE POP PUSH1 0x20 DUP3 ADD MLOAD DUP2 PUSH1 0x1 ADD SSTORE PUSH1 0x40 DUP3 ADD MLOAD DUP2 PUSH1 0x2 ADD SSTORE PUSH1 0x60 DUP3 ADD MLOAD DUP2 PUSH1 0x3 ADD PUSH1 0x0 PUSH2 0x100 EXP DUP2 SLOAD DUP2 PUSH20 0xFFFFFFFFFFFFFFFFFFFFFFFFFFFFFFFFFFFFFFFF MUL NOT AND SWAP1 DUP4 PUSH20 0xFFFFFFFFFFFFFFFFFFFFFFFFFFFFFFFFFFFFFFFF AND MUL OR SWAP1 SSTORE POP PUSH1 0x80 DUP3 ADD MLOAD DUP2 PUSH1 0x4 ADD PUSH1 0x0 PUSH2 0x100 EXP DUP2 SLOAD DUP2 PUSH20 0xFFFFFFFFFFFFFFFFFFFFFFFFFFFFFFFFFFFFFFFF MUL NOT AND SWAP1 DUP4 PUSH20 0xFFFFFFFFFFFFFFFFFFFFFFFFFFFFFFFFFFFFFFFF AND MUL OR SWAP1 SSTORE POP PUSH1 0xA0 DUP3 ADD MLOAD DUP2 PUSH1 0x5 ADD PUSH1 0x0 PUSH2 0x100 EXP DUP2 SLOAD DUP2 PUSH20 0xFFFFFFFFFFFFFFFFFFFFFFFFFFFFFFFFFFFFFFFF MUL NOT AND SWAP1 DUP4 PUSH20 0xFFFFFFFFFFFFFFFFFFFFFFFFFFFFFFFFFFFFFFFF AND MUL OR SWAP1 SSTORE POP PUSH1 0xC0 DUP3 ADD MLOAD DUP2 PUSH1 0x5 ADD PUSH1 0x14 PUSH2 0x100 EXP DUP2 SLOAD DUP2 PUSH1 0xFF MUL NOT AND SWAP1 DUP4 ISZERO ISZERO MUL OR SWAP1 SSTORE POP SWAP1 POP POP PUSH1 0x4 PUSH1 0x0 SWAP1 SLOAD SWAP1 PUSH2 0x100 EXP SWAP1 DIV PUSH20 0xFFFFFFFFFFFFFFFFFFFFFFFFFFFFFFFFFFFFFFFF AND PUSH20 0xFFFFFFFFFFFFFFFFFFFFFFFFFFFFFFFFFFFFFFFF AND PUSH2 0x8FC CALLVALUE SWAP1 DUP2 ISZERO MUL SWAP1 PUSH1 0x40 MLOAD PUSH1 0x0 PUSH1 0x40 MLOAD DUP1 DUP4 SUB DUP2 DUP6 DUP9 DUP9 CALL SWAP4 POP POP POP POP ISZERO DUP1 ISZERO PUSH2 0x9C1 JUMPI RETURNDATASIZE PUSH1 0x0 DUP1 RETURNDATACOPY RETURNDATASIZE PUSH1 0x0 REVERT JUMPDEST POP ADDRESS PUSH20 0xFFFFFFFFFFFFFFFFFFFFFFFFFFFFFFFFFFFFFFFF AND CALLER PUSH20 0xFFFFFFFFFFFFFFFFFFFFFFFFFFFFFFFFFFFFFFFF AND PUSH32 0xA0C6C0D02D86FDACECBAA5FDF5894BAB204E31A778250474108540733A9B8D19 DUP6 DUP6 DUP6 PUSH1 0x40 MLOAD PUSH2 0xA23 SWAP4 SWAP3 SWAP2 SWAP1 PUSH2 0xCB3 JUMP JUMPDEST PUSH1 0x40 MLOAD DUP1 SWAP2 SUB SWAP1 LOG3 PUSH1 0x1 PUSH1 0x0 DUP2 SWAP1 SSTORE POP POP POP POP JUMP JUMPDEST PUSH1 0x0 PUSH1 0x3 SLOAD SWAP1 POP SWAP1 JUMP JUMPDEST PUSH1 0x0 DUP2 PUSH1 0x0 ADD SLOAD SWAP1 POP PUSH1 0x0 DUP2 GT PUSH2 0xA8E JUMPI PUSH1 0x40 MLOAD PUSH32 0x8C379A000000000000000000000000000000000000000000000000000000000 DUP2 MSTORE PUSH1 0x4 ADD PUSH2 0xA85 SWAP1 PUSH2 0xCEA JUMP JUMPDEST PUSH1 0x40 MLOAD DUP1 SWAP2 SUB SWAP1 REVERT JUMPDEST PUSH1 0x1 DUP2 SUB DUP3 PUSH1 0x0 ADD DUP2 SWAP1 SSTORE POP POP POP JUMP JUMPDEST PUSH1 0x1 DUP2 PUSH1 0x0 ADD PUSH1 0x0 DUP3 DUP3 SLOAD ADD SWAP3 POP POP DUP2 SWAP1 SSTORE POP POP JUMP JUMPDEST PUSH1 0x0 DUP2 CALLDATALOAD SWAP1 POP PUSH2 0xAC3 DUP2 PUSH2 0xF1B JUMP JUMPDEST SWAP3 SWAP2 POP POP JUMP JUMPDEST PUSH1 0x0 DUP2 CALLDATALOAD SWAP1 POP PUSH2 0xAD8 DUP2 PUSH2 0xF32 JUMP JUMPDEST SWAP3 SWAP2 POP POP JUMP JUMPDEST PUSH1 0x0 DUP1 PUSH1 0x40 DUP4 DUP6 SUB SLT ISZERO PUSH2 0xAF1 JUMPI PUSH1 0x0 DUP1 REVERT JUMPDEST PUSH1 0x0 PUSH2 0xAFF DUP6 DUP3 DUP7 ADD PUSH2 0xAB4 JUMP JUMPDEST SWAP3 POP POP PUSH1 0x20 PUSH2 0xB10 DUP6 DUP3 DUP7 ADD PUSH2 0xAC9 JUMP JUMPDEST SWAP2 POP POP SWAP3 POP SWAP3 SWAP1 POP JUMP JUMPDEST PUSH1 0x0 DUP1 PUSH1 0x0 PUSH1 0x60 DUP5 DUP7 SUB SLT ISZERO PUSH2 0xB2F JUMPI PUSH1 0x0 DUP1 REVERT JUMPDEST PUSH1 0x0 PUSH2 0xB3D DUP7 DUP3 DUP8 ADD PUSH2 0xAB4 JUMP JUMPDEST SWAP4 POP POP PUSH1 0x20 PUSH2 0xB4E DUP7 DUP3 DUP8 ADD PUSH2 0xAC9 JUMP JUMPDEST SWAP3 POP POP PUSH1 0x40 PUSH2 0xB5F DUP7 DUP3 DUP8 ADD PUSH2 0xAC9 JUMP JUMPDEST SWAP2 POP POP SWAP3 POP SWAP3 POP SWAP3 JUMP JUMPDEST PUSH2 0xB72 DUP2 PUSH2 0xDF2 JUMP JUMPDEST DUP3 MSTORE POP POP JUMP JUMPDEST PUSH2 0xB81 DUP2 PUSH2 0xDB6 JUMP JUMPDEST DUP3 MSTORE POP POP JUMP JUMPDEST PUSH1 0x0 PUSH2 0xB94 PUSH1 0x1B DUP4 PUSH2 0xDA5 JUMP JUMPDEST SWAP2 POP PUSH2 0xB9F DUP3 PUSH2 0xE28 JUMP JUMPDEST PUSH1 0x20 DUP3 ADD SWAP1 POP SWAP2 SWAP1 POP JUMP JUMPDEST PUSH1 0x0 PUSH2 0xBB7 PUSH1 0x26 DUP4 PUSH2 0xDA5 JUMP JUMPDEST SWAP2 POP PUSH2 0xBC2 DUP3 PUSH2 0xE51 JUMP JUMPDEST PUSH1 0x40 DUP3 ADD SWAP1 POP SWAP2 SWAP1 POP JUMP JUMPDEST PUSH1 0x0 PUSH2 0xBDA PUSH1 0x20 DUP4 PUSH2 0xDA5 JUMP JUMPDEST SWAP2 POP PUSH2 0xBE5 DUP3 PUSH2 0xEA0 JUMP JUMPDEST PUSH1 0x20 DUP3 ADD SWAP1 POP SWAP2 SWAP1 POP JUMP JUMPDEST PUSH1 0x0 PUSH2 0xBFD PUSH1 0x1F DUP4 PUSH2 0xDA5 JUMP JUMPDEST SWAP2 POP PUSH2 0xC08 DUP3 PUSH2 0xEC9 JUMP JUMPDEST PUSH1 0x20 DUP3 ADD SWAP1 POP SWAP2 SWAP1 POP JUMP JUMPDEST PUSH1 0x0 PUSH2 0xC20 PUSH1 0x1C DUP4 PUSH2 0xDA5 JUMP JUMPDEST SWAP2 POP PUSH2 0xC2B DUP3 PUSH2 0xEF2 JUMP JUMPDEST PUSH1 0x20 DUP3 ADD SWAP1 POP SWAP2 SWAP1 POP JUMP JUMPDEST PUSH2 0xC3F DUP2 PUSH2 0xDE8 JUMP JUMPDEST DUP3 MSTORE POP POP JUMP JUMPDEST PUSH1 0x0 PUSH1 0x60 DUP3 ADD SWAP1 POP PUSH2 0xC5A PUSH1 0x0 DUP4 ADD DUP7 PUSH2 0xB78 JUMP JUMPDEST PUSH2 0xC67 PUSH1 0x20 DUP4 ADD DUP6 PUSH2 0xB69 JUMP JUMPDEST PUSH2 0xC74 PUSH1 0x40 DUP4 ADD DUP5 PUSH2 0xC36 JUMP JUMPDEST SWAP5 SWAP4 POP POP POP POP JUMP JUMPDEST PUSH1 0x0 PUSH1 0x60 DUP3 ADD SWAP1 POP PUSH2 0xC91 PUSH1 0x0 DUP4 ADD DUP7 PUSH2 0xB78 JUMP JUMPDEST PUSH2 0xC9E PUSH1 0x20 DUP4 ADD DUP6 PUSH2 0xB78 JUMP JUMPDEST PUSH2 0xCAB PUSH1 0x40 DUP4 ADD DUP5 PUSH2 0xC36 JUMP JUMPDEST SWAP5 SWAP4 POP POP POP POP JUMP JUMPDEST PUSH1 0x0 PUSH1 0x60 DUP3 ADD SWAP1 POP PUSH2 0xCC8 PUSH1 0x0 DUP4 ADD DUP7 PUSH2 0xB78 JUMP JUMPDEST PUSH2 0xCD5 PUSH1 0x20 DUP4 ADD DUP6 PUSH2 0xC36 JUMP JUMPDEST PUSH2 0xCE2 PUSH1 0x40 DUP4 ADD DUP5 PUSH2 0xC36 JUMP JUMPDEST SWAP5 SWAP4 POP POP POP POP JUMP JUMPDEST PUSH1 0x0 PUSH1 0x20 DUP3 ADD SWAP1 POP DUP2 DUP2 SUB PUSH1 0x0 DUP4 ADD MSTORE PUSH2 0xD03 DUP2 PUSH2 0xB87 JUMP JUMPDEST SWAP1 POP SWAP2 SWAP1 POP JUMP JUMPDEST PUSH1 0x0 PUSH1 0x20 DUP3 ADD SWAP1 POP DUP2 DUP2 SUB PUSH1 0x0 DUP4 ADD MSTORE PUSH2 0xD23 DUP2 PUSH2 0xBAA JUMP JUMPDEST SWAP1 POP SWAP2 SWAP1 POP JUMP JUMPDEST PUSH1 0x0 PUSH1 0x20 DUP3 ADD SWAP1 POP DUP2 DUP2 SUB PUSH1 0x0 DUP4 ADD MSTORE PUSH2 0xD43 DUP2 PUSH2 0xBCD JUMP JUMPDEST SWAP1 POP SWAP2 SWAP1 POP JUMP JUMPDEST PUSH1 0x0 PUSH1 0x20 DUP3 ADD SWAP1 POP DUP2 DUP2 SUB PUSH1 0x0 DUP4 ADD MSTORE PUSH2 0xD63 DUP2 PUSH2 0xBF0 JUMP JUMPDEST SWAP1 POP SWAP2 SWAP1 POP JUMP JUMPDEST PUSH1 0x0 PUSH1 0x20 DUP3 ADD SWAP1 POP DUP2 DUP2 SUB PUSH1 0x0 DUP4 ADD MSTORE PUSH2 0xD83 DUP2 PUSH2 0xC13 JUMP JUMPDEST SWAP1 POP SWAP2 SWAP1 POP JUMP JUMPDEST PUSH1 0x0 PUSH1 0x20 DUP3 ADD SWAP1 POP PUSH2 0xD9F PUSH1 0x0 DUP4 ADD DUP5 PUSH2 0xC36 JUMP JUMPDEST SWAP3 SWAP2 POP POP JUMP JUMPDEST PUSH1 0x0 DUP3 DUP3 MSTORE PUSH1 0x20 DUP3 ADD SWAP1 POP SWAP3 SWAP2 POP POP JUMP JUMPDEST PUSH1 0x0 PUSH2 0xDC1 DUP3 PUSH2 0xDC8 JUMP JUMPDEST SWAP1 POP SWAP2 SWAP1 POP JUMP JUMPDEST PUSH1 0x0 PUSH20 0xFFFFFFFFFFFFFFFFFFFFFFFFFFFFFFFFFFFFFFFF DUP3 AND SWAP1 POP SWAP2 SWAP1 POP JUMP JUMPDEST PUSH1 0x0 DUP2 SWAP1 POP SWAP2 SWAP1 POP JUMP JUMPDEST PUSH1 0x0 PUSH2 0xDFD DUP3 PUSH2 0xE04 JUMP JUMPDEST SWAP1 POP SWAP2 SWAP1 POP JUMP JUMPDEST PUSH1 0x0 PUSH2 0xE0F DUP3 PUSH2 0xE16 JUMP JUMPDEST SWAP1 POP SWAP2 SWAP1 POP JUMP JUMPDEST PUSH1 0x0 PUSH2 0xE21 DUP3 PUSH2 0xDC8 JUMP JUMPDEST SWAP1 POP SWAP2 SWAP1 POP JUMP JUMPDEST PUSH32 0x436F756E7465723A2064656372656D656E74206F766572666C6F770000000000 PUSH1 0x0 DUP3 ADD MSTORE POP JUMP JUMPDEST PUSH32 0x4E6F7420656E6F75676820657468657220746F20636F7665722061736B696E67 PUSH1 0x0 DUP3 ADD MSTORE PUSH32 0x2070726963650000000000000000000000000000000000000000000000000000 PUSH1 0x20 DUP3 ADD MSTORE POP JUMP JUMPDEST PUSH32 0x4E6F7420656E6F75676820657468657220666F72206C697374696E6720666565 PUSH1 0x0 DUP3 ADD MSTORE POP JUMP JUMPDEST PUSH32 0x5265656E7472616E637947756172643A207265656E7472616E742063616C6C00 PUSH1 0x0 DUP3 ADD MSTORE POP JUMP JUMPDEST PUSH32 0x5072696365206D757374206265206174206C6561737420312077656900000000 PUSH1 0x0 DUP3 ADD MSTORE POP JUMP JUMPDEST PUSH2 0xF24 DUP2 PUSH2 0xDB6 JUMP JUMPDEST DUP2 EQ PUSH2 0xF2F JUMPI PUSH1 0x0 DUP1 REVERT JUMPDEST POP JUMP JUMPDEST PUSH2 0xF3B DUP2 PUSH2 0xDE8 JUMP JUMPDEST DUP2 EQ PUSH2 0xF46 JUMPI PUSH1 0x0 DUP1 REVERT JUMPDEST POP JUMP INVALID LOG2 PUSH5 0x6970667358 0x22 SLT KECCAK256 0xD8 0xD7 0x27 EQ BALANCE SGT 0xBB SELFDESTRUCT SWAP11 DUP5 SWAP3 DUP16 PUSH27 0x96CCCD346DE8515F1D7596EA1D44E425BBCD0C64736F6C63430008 ADD STOP CALLER "
				},
				"gasEstimates": {
					"creation": {
						"codeDepositCost": "793400",
						"executionCost": "61711",
						"totalCost": "855111"
					},
					"external": {
						"LISTING_FEE()": "1129",
						"buyNft(address,uint256)": "infinite",
						"getListingFee()": "1203",
						"listNFT(address,uint256,uint256)": "infinite",
						"resellNFT(address,uint256,uint256)": "infinite"
					}
				},
				"methodIdentifiers": {
					"LISTING_FEE()": "2b86ae38",
					"buyNft(address,uint256)": "4ddf4f8f",
					"getListingFee()": "b8fe6abe",
					"listNFT(address,uint256,uint256)": "ad05f1b4",
					"resellNFT(address,uint256,uint256)": "04935694"
				}
			},
			"storageLayout": {
				"storage": [
					{
						"astId": 451,
						"contract": "contracts/GeekNftMarketPlace.sol:GeekNftMarketPlace",
						"label": "_status",
						"offset": 0,
						"slot": "0",
						"type": "t_uint256"
					},
					{
						"astId": 96,
						"contract": "contracts/GeekNftMarketPlace.sol:GeekNftMarketPlace",
						"label": "_nftsSold",
						"offset": 0,
						"slot": "1",
						"type": "t_struct(Counter)5_storage"
					},
					{
						"astId": 99,
						"contract": "contracts/GeekNftMarketPlace.sol:GeekNftMarketPlace",
						"label": "_nftsCount",
						"offset": 0,
						"slot": "2",
						"type": "t_struct(Counter)5_storage"
					},
					{
						"astId": 102,
						"contract": "contracts/GeekNftMarketPlace.sol:GeekNftMarketPlace",
						"label": "LISTING_FEE",
						"offset": 0,
						"slot": "3",
						"type": "t_uint256"
					},
					{
						"astId": 104,
						"contract": "contracts/GeekNftMarketPlace.sol:GeekNftMarketPlace",
						"label": "_marketOwwner",
						"offset": 0,
						"slot": "4",
						"type": "t_address_payable"
					},
					{
						"astId": 109,
						"contract": "contracts/GeekNftMarketPlace.sol:GeekNftMarketPlace",
						"label": "_idToNft",
						"offset": 0,
						"slot": "5",
						"type": "t_mapping(t_uint256,t_struct(NFT)124_storage)"
					}
				],
				"types": {
					"t_address": {
						"encoding": "inplace",
						"label": "address",
						"numberOfBytes": "20"
					},
					"t_address_payable": {
						"encoding": "inplace",
						"label": "address payable",
						"numberOfBytes": "20"
					},
					"t_bool": {
						"encoding": "inplace",
						"label": "bool",
						"numberOfBytes": "1"
					},
					"t_mapping(t_uint256,t_struct(NFT)124_storage)": {
						"encoding": "mapping",
						"key": "t_uint256",
						"label": "mapping(uint256 => struct GeekNftMarketPlace.NFT)",
						"numberOfBytes": "32",
						"value": "t_struct(NFT)124_storage"
					},
					"t_struct(Counter)5_storage": {
						"encoding": "inplace",
						"label": "struct Counters.Counter",
						"members": [
							{
								"astId": 4,
								"contract": "contracts/GeekNftMarketPlace.sol:GeekNftMarketPlace",
								"label": "_value",
								"offset": 0,
								"slot": "0",
								"type": "t_uint256"
							}
						],
						"numberOfBytes": "32"
					},
					"t_struct(NFT)124_storage": {
						"encoding": "inplace",
						"label": "struct GeekNftMarketPlace.NFT",
						"members": [
							{
								"astId": 111,
								"contract": "contracts/GeekNftMarketPlace.sol:GeekNftMarketPlace",
								"label": "nftContract",
								"offset": 0,
								"slot": "0",
								"type": "t_address"
							},
							{
								"astId": 113,
								"contract": "contracts/GeekNftMarketPlace.sol:GeekNftMarketPlace",
								"label": "tokenId",
								"offset": 0,
								"slot": "1",
								"type": "t_uint256"
							},
							{
								"astId": 115,
								"contract": "contracts/GeekNftMarketPlace.sol:GeekNftMarketPlace",
								"label": "price",
								"offset": 0,
								"slot": "2",
								"type": "t_uint256"
							},
							{
								"astId": 117,
								"contract": "contracts/GeekNftMarketPlace.sol:GeekNftMarketPlace",
								"label": "seller",
								"offset": 0,
								"slot": "3",
								"type": "t_address_payable"
							},
							{
								"astId": 119,
								"contract": "contracts/GeekNftMarketPlace.sol:GeekNftMarketPlace",
								"label": "owner",
								"offset": 0,
								"slot": "4",
								"type": "t_address_payable"
							},
							{
								"astId": 121,
								"contract": "contracts/GeekNftMarketPlace.sol:GeekNftMarketPlace",
								"label": "creator",
								"offset": 0,
								"slot": "5",
								"type": "t_address_payable"
							},
							{
								"astId": 123,
								"contract": "contracts/GeekNftMarketPlace.sol:GeekNftMarketPlace",
								"label": "listed",
								"offset": 20,
								"slot": "5",
								"type": "t_bool"
							}
						],
						"numberOfBytes": "192"
					},
					"t_uint256": {
						"encoding": "inplace",
						"label": "uint256",
						"numberOfBytes": "32"
					}
				}
			},
			"userdoc": {
				"kind": "user",
				"methods": {},
				"version": 1
			}
		}
	}
}