{
	"contracts/GeekNft.sol": {
		"GeekNft": {
			"abi": [
				{
					"inputs": [],
					"stateMutability": "nonpayable",
					"type": "constructor"
				},
				{
					"anonymous": false,
					"inputs": [
						{
							"indexed": true,
							"internalType": "address",
							"name": "_from",
							"type": "address"
						},
						{
							"indexed": true,
							"internalType": "address",
							"name": "_to",
							"type": "address"
						},
						{
							"indexed": false,
							"internalType": "uint256",
							"name": "_tokenId",
							"type": "uint256"
						}
					],
					"name": "Transfer",
					"type": "event"
				},
				{
					"inputs": [
						{
							"internalType": "address",
							"name": "_owner",
							"type": "address"
						}
					],
					"name": "balanceOf",
					"outputs": [
						{
							"internalType": "uint256",
							"name": "",
							"type": "uint256"
						}
					],
					"stateMutability": "view",
					"type": "function"
				},
				{
					"inputs": [
						{
							"internalType": "uint256",
							"name": "_price",
							"type": "uint256"
						},
						{
							"internalType": "uint256",
							"name": "_catId",
							"type": "uint256"
						}
					],
					"name": "createItem",
					"outputs": [
						{
							"internalType": "uint256",
							"name": "",
							"type": "uint256"
						}
					],
					"stateMutability": "nonpayable",
					"type": "function"
				},
				{
					"inputs": [],
					"name": "getFeesPercentage",
					"outputs": [
						{
							"internalType": "uint256",
							"name": "",
							"type": "uint256"
						}
					],
					"stateMutability": "view",
					"type": "function"
				},
				{
					"inputs": [
						{
							"internalType": "uint256",
							"name": "",
							"type": "uint256"
						}
					],
					"name": "itemToOwner",
					"outputs": [
						{
							"internalType": "address",
							"name": "",
							"type": "address"
						}
					],
					"stateMutability": "view",
					"type": "function"
				},
				{
					"inputs": [
						{
							"internalType": "uint256",
							"name": "",
							"type": "uint256"
						}
					],
					"name": "items",
					"outputs": [
						{
							"internalType": "uint256",
							"name": "tokenId",
							"type": "uint256"
						},
						{
							"internalType": "uint256",
							"name": "price",
							"type": "uint256"
						},
						{
							"internalType": "uint256",
							"name": "catId",
							"type": "uint256"
						},
						{
							"internalType": "bool",
							"name": "toSell",
							"type": "bool"
						}
					],
					"stateMutability": "view",
					"type": "function"
				},
				{
					"inputs": [
						{
							"internalType": "uint256",
							"name": "",
							"type": "uint256"
						}
					],
					"name": "itemsCatIdCount",
					"outputs": [
						{
							"internalType": "uint256",
							"name": "",
							"type": "uint256"
						}
					],
					"stateMutability": "view",
					"type": "function"
				},
				{
					"inputs": [
						{
							"internalType": "address",
							"name": "",
							"type": "address"
						}
					],
					"name": "itemsOwnerCount",
					"outputs": [
						{
							"internalType": "uint256",
							"name": "",
							"type": "uint256"
						}
					],
					"stateMutability": "view",
					"type": "function"
				},
				{
					"inputs": [],
					"name": "itemsToSellCount",
					"outputs": [
						{
							"internalType": "uint256",
							"name": "",
							"type": "uint256"
						}
					],
					"stateMutability": "view",
					"type": "function"
				},
				{
					"inputs": [
						{
							"internalType": "uint256",
							"name": "_newPercentage",
							"type": "uint256"
						}
					],
					"name": "modifyFeesPercentage",
					"outputs": [],
					"stateMutability": "nonpayable",
					"type": "function"
				},
				{
					"inputs": [
						{
							"internalType": "uint256",
							"name": "_tokenId",
							"type": "uint256"
						}
					],
					"name": "ownerOf",
					"outputs": [
						{
							"internalType": "address",
							"name": "",
							"type": "address"
						}
					],
					"stateMutability": "view",
					"type": "function"
				},
				{
					"inputs": [
						{
							"internalType": "uint256",
							"name": "_tokenId",
							"type": "uint256"
						}
					],
					"name": "sellItem",
					"outputs": [],
					"stateMutability": "payable",
					"type": "function"
				}
			],
			"devdoc": {
				"kind": "dev",
				"methods": {},
				"version": 1
			},
			"evm": {
				"assembly": "    /* \"contracts/GeekNft.sol\":56:2991  contract GeekNft {... */\n  mstore(0x40, 0x80)\n    /* \"contracts/GeekNft.sol\":558:663  constructor() {... */\n  callvalue\n  dup1\n  iszero\n  tag_1\n  jumpi\n  0x00\n  dup1\n  revert\ntag_1:\n  pop\n    /* \"contracts/GeekNft.sol\":590:600  msg.sender */\n  caller\n    /* \"contracts/GeekNft.sol\":582:587  owner */\n  0x02\n  0x00\n    /* \"contracts/GeekNft.sol\":582:600  owner = msg.sender */\n  0x0100\n  exp\n  dup2\n  sload\n  dup2\n  0xffffffffffffffffffffffffffffffffffffffff\n  mul\n  not\n  and\n  swap1\n  dup4\n  0xffffffffffffffffffffffffffffffffffffffff\n  and\n  mul\n  or\n  swap1\n  sstore\n  pop\n    /* \"contracts/GeekNft.sol\":610:630  name = \"Geek Tokens\" */\n  mload(0x40)\n  dup1\n  0x40\n  add\n  0x40\n  mstore\n  dup1\n  0x0b\n  dup2\n  mstore\n  0x20\n  add\n  0x4765656b20546f6b656e73000000000000000000000000000000000000000000\n  dup2\n  mstore\n  pop\n    /* \"contracts/GeekNft.sol\":610:614  name */\n  0x00\n    /* \"contracts/GeekNft.sol\":610:630  name = \"Geek Tokens\" */\n  swap1\n  dup1\n  mload\n  swap1\n  0x20\n  add\n  swap1\n  tag_4\n  swap3\n  swap2\n  swap1\n  tag_5\n  jump\t// in\ntag_4:\n  pop\n    /* \"contracts/GeekNft.sol\":640:656  symbol = \"GEEKT\" */\n  mload(0x40)\n  dup1\n  0x40\n  add\n  0x40\n  mstore\n  dup1\n  0x05\n  dup2\n  mstore\n  0x20\n  add\n  0x4745454b54000000000000000000000000000000000000000000000000000000\n  dup2\n  mstore\n  pop\n    /* \"contracts/GeekNft.sol\":640:646  symbol */\n  0x01\n    /* \"contracts/GeekNft.sol\":640:656  symbol = \"GEEKT\" */\n  swap1\n  dup1\n  mload\n  swap1\n  0x20\n  add\n  swap1\n  tag_6\n  swap3\n  swap2\n  swap1\n  tag_5\n  jump\t// in\ntag_6:\n  pop\n    /* \"contracts/GeekNft.sol\":56:2991  contract GeekNft {... */\n  jump(tag_7)\ntag_5:\n  dup3\n  dup1\n  sload\n  tag_8\n  swap1\n  tag_9\n  jump\t// in\ntag_8:\n  swap1\n  0x00\n  mstore\n  keccak256(0x00, 0x20)\n  swap1\n  0x1f\n  add\n  0x20\n  swap1\n  div\n  dup2\n  add\n  swap3\n  dup3\n  tag_11\n  jumpi\n  0x00\n  dup6\n  sstore\n  jump(tag_10)\ntag_11:\n  dup3\n  0x1f\n  lt\n  tag_12\n  jumpi\n  dup1\n  mload\n  not(0xff)\n  and\n  dup4\n  dup1\n  add\n  or\n  dup6\n  sstore\n  jump(tag_10)\ntag_12:\n  dup3\n  dup1\n  add\n  0x01\n  add\n  dup6\n  sstore\n  dup3\n  iszero\n  tag_10\n  jumpi\n  swap2\n  dup3\n  add\ntag_13:\n  dup3\n  dup2\n  gt\n  iszero\n  tag_14\n  jumpi\n  dup3\n  mload\n  dup3\n  sstore\n  swap2\n  0x20\n  add\n  swap2\n  swap1\n  0x01\n  add\n  swap1\n  jump(tag_13)\ntag_14:\ntag_10:\n  pop\n  swap1\n  pop\n  tag_15\n  swap2\n  swap1\n  tag_16\n  jump\t// in\ntag_15:\n  pop\n  swap1\n  jump\t// out\ntag_16:\ntag_17:\n  dup1\n  dup3\n  gt\n  iszero\n  tag_18\n  jumpi\n  0x00\n  dup2\n  0x00\n  swap1\n  sstore\n  pop\n  0x01\n  add\n  jump(tag_17)\ntag_18:\n  pop\n  swap1\n  jump\t// out\n    /* \"#utility.yul\":7:327   */\ntag_9:\n  0x00\n    /* \"#utility.yul\":88:89   */\n  0x02\n    /* \"#utility.yul\":82:86   */\n  dup3\n    /* \"#utility.yul\":78:90   */\n  div\n    /* \"#utility.yul\":68:90   */\n  swap1\n  pop\n    /* \"#utility.yul\":135:136   */\n  0x01\n    /* \"#utility.yul\":129:133   */\n  dup3\n    /* \"#utility.yul\":125:137   */\n  and\n    /* \"#utility.yul\":156:174   */\n  dup1\n    /* \"#utility.yul\":146:148   */\n  tag_21\n  jumpi\n    /* \"#utility.yul\":212:216   */\n  0x7f\n    /* \"#utility.yul\":204:210   */\n  dup3\n    /* \"#utility.yul\":200:217   */\n  and\n    /* \"#utility.yul\":190:217   */\n  swap2\n  pop\n    /* \"#utility.yul\":146:148   */\ntag_21:\n    /* \"#utility.yul\":274:276   */\n  0x20\n    /* \"#utility.yul\":266:272   */\n  dup3\n    /* \"#utility.yul\":263:277   */\n  lt\n    /* \"#utility.yul\":243:261   */\n  dup2\n    /* \"#utility.yul\":240:278   */\n  eq\n    /* \"#utility.yul\":237:239   */\n  iszero\n  tag_22\n  jumpi\n    /* \"#utility.yul\":293:311   */\n  tag_23\n  tag_24\n  jump\t// in\ntag_23:\n    /* \"#utility.yul\":237:239   */\ntag_22:\n    /* \"#utility.yul\":58:327   */\n  pop\n  swap2\n  swap1\n  pop\n  jump\t// out\n    /* \"#utility.yul\":333:513   */\ntag_24:\n    /* \"#utility.yul\":381:458   */\n  0x4e487b7100000000000000000000000000000000000000000000000000000000\n    /* \"#utility.yul\":378:379   */\n  0x00\n    /* \"#utility.yul\":371:459   */\n  mstore\n    /* \"#utility.yul\":478:482   */\n  0x22\n    /* \"#utility.yul\":475:476   */\n  0x04\n    /* \"#utility.yul\":468:483   */\n  mstore\n    /* \"#utility.yul\":502:506   */\n  0x24\n    /* \"#utility.yul\":499:500   */\n  0x00\n    /* \"#utility.yul\":492:507   */\n  revert\n    /* \"contracts/GeekNft.sol\":56:2991  contract GeekNft {... */\ntag_7:\n  dataSize(sub_0)\n  dup1\n  dataOffset(sub_0)\n  0x00\n  codecopy\n  0x00\n  return\nstop\n\nsub_0: assembly {\n        /* \"contracts/GeekNft.sol\":56:2991  contract GeekNft {... */\n      mstore(0x40, 0x80)\n      jumpi(tag_1, lt(calldatasize, 0x04))\n      shr(0xe0, calldataload(0x00))\n      dup1\n      0x91b6be9a\n      gt\n      tag_13\n      jumpi\n      dup1\n      0x91b6be9a\n      eq\n      tag_7\n      jumpi\n      dup1\n      0xadae08dd\n      eq\n      tag_8\n      jumpi\n      dup1\n      0xbfb231d2\n      eq\n      tag_9\n      jumpi\n      dup1\n      0xc3921895\n      eq\n      tag_10\n      jumpi\n      dup1\n      0xd48644bd\n      eq\n      tag_11\n      jumpi\n      dup1\n      0xea0ff14a\n      eq\n      tag_12\n      jumpi\n      jump(tag_1)\n    tag_13:\n      dup1\n      0x1a4d96cd\n      eq\n      tag_2\n      jumpi\n      dup1\n      0x29de6246\n      eq\n      tag_3\n      jumpi\n      dup1\n      0x4c389e65\n      eq\n      tag_4\n      jumpi\n      dup1\n      0x6352211e\n      eq\n      tag_5\n      jumpi\n      dup1\n      0x70a08231\n      eq\n      tag_6\n      jumpi\n    tag_1:\n      0x00\n      dup1\n      revert\n        /* \"contracts/GeekNft.sol\":405:448  mapping(uint => address) public itemToOwner */\n    tag_2:\n      callvalue\n      dup1\n      iszero\n      tag_14\n      jumpi\n      0x00\n      dup1\n      revert\n    tag_14:\n      pop\n      tag_15\n      0x04\n      dup1\n      calldatasize\n      sub\n      dup2\n      add\n      swap1\n      tag_16\n      swap2\n      swap1\n      tag_17\n      jump\t// in\n    tag_16:\n      tag_18\n      jump\t// in\n    tag_15:\n      mload(0x40)\n      tag_19\n      swap2\n      swap1\n      tag_20\n      jump\t// in\n    tag_19:\n      mload(0x40)\n      dup1\n      swap2\n      sub\n      swap1\n      return\n        /* \"contracts/GeekNft.sol\":946:1069  function modifyFeesPercentage(uint _newPercentage) public onlyContractOwner{... */\n    tag_3:\n      callvalue\n      dup1\n      iszero\n      tag_21\n      jumpi\n      0x00\n      dup1\n      revert\n    tag_21:\n      pop\n      tag_22\n      0x04\n      dup1\n      calldatasize\n      sub\n      dup2\n      add\n      swap1\n      tag_23\n      swap2\n      swap1\n      tag_17\n      jump\t// in\n    tag_23:\n      tag_24\n      jump\t// in\n    tag_22:\n      stop\n        /* \"contracts/GeekNft.sol\":346:374  uint public itemsToSellCount */\n    tag_4:\n      callvalue\n      dup1\n      iszero\n      tag_25\n      jumpi\n      0x00\n      dup1\n      revert\n    tag_25:\n      pop\n      tag_26\n      tag_27\n      jump\t// in\n    tag_26:\n      mload(0x40)\n      tag_28\n      swap2\n      swap1\n      tag_29\n      jump\t// in\n    tag_28:\n      mload(0x40)\n      dup1\n      swap2\n      sub\n      swap1\n      return\n        /* \"contracts/GeekNft.sol\":2513:2619  function ownerOf(uint _tokenId) public view returns (address){... */\n    tag_5:\n      callvalue\n      dup1\n      iszero\n      tag_30\n      jumpi\n      0x00\n      dup1\n      revert\n    tag_30:\n      pop\n      tag_31\n      0x04\n      dup1\n      calldatasize\n      sub\n      dup2\n      add\n      swap1\n      tag_32\n      swap2\n      swap1\n      tag_17\n      jump\t// in\n    tag_32:\n      tag_33\n      jump\t// in\n    tag_31:\n      mload(0x40)\n      tag_34\n      swap2\n      swap1\n      tag_20\n      jump\t// in\n    tag_34:\n      mload(0x40)\n      dup1\n      swap2\n      sub\n      swap1\n      return\n        /* \"contracts/GeekNft.sol\":2625:2733  function balanceOf(address _owner) public view returns (uint){... */\n    tag_6:\n      callvalue\n      dup1\n      iszero\n      tag_35\n      jumpi\n      0x00\n      dup1\n      revert\n    tag_35:\n      pop\n      tag_36\n      0x04\n      dup1\n      calldatasize\n      sub\n      dup2\n      add\n      swap1\n      tag_37\n      swap2\n      swap1\n      tag_38\n      jump\t// in\n    tag_37:\n      tag_39\n      jump\t// in\n    tag_36:\n      mload(0x40)\n      tag_40\n      swap2\n      swap1\n      tag_29\n      jump\t// in\n    tag_40:\n      mload(0x40)\n      dup1\n      swap2\n      sub\n      swap1\n      return\n        /* \"contracts/GeekNft.sol\":1721:2507  function sellItem(uint _tokenId) public payable{... */\n    tag_7:\n      tag_41\n      0x04\n      dup1\n      calldatasize\n      sub\n      dup2\n      add\n      swap1\n      tag_42\n      swap2\n      swap1\n      tag_17\n      jump\t// in\n    tag_42:\n      tag_43\n      jump\t// in\n    tag_41:\n      stop\n        /* \"contracts/GeekNft.sol\":1175:1715  function createItem(uint _price, uint _catId) public returns (uint){... */\n    tag_8:\n      callvalue\n      dup1\n      iszero\n      tag_44\n      jumpi\n      0x00\n      dup1\n      revert\n    tag_44:\n      pop\n      tag_45\n      0x04\n      dup1\n      calldatasize\n      sub\n      dup2\n      add\n      swap1\n      tag_46\n      swap2\n      swap1\n      tag_47\n      jump\t// in\n    tag_46:\n      tag_48\n      jump\t// in\n    tag_45:\n      mload(0x40)\n      tag_49\n      swap2\n      swap1\n      tag_29\n      jump\t// in\n    tag_49:\n      mload(0x40)\n      dup1\n      swap2\n      sub\n      swap1\n      return\n        /* \"contracts/GeekNft.sol\":321:340  Item[] public items */\n    tag_9:\n      callvalue\n      dup1\n      iszero\n      tag_50\n      jumpi\n      0x00\n      dup1\n      revert\n    tag_50:\n      pop\n      tag_51\n      0x04\n      dup1\n      calldatasize\n      sub\n      dup2\n      add\n      swap1\n      tag_52\n      swap2\n      swap1\n      tag_17\n      jump\t// in\n    tag_52:\n      tag_53\n      jump\t// in\n    tag_51:\n      mload(0x40)\n      tag_54\n      swap5\n      swap4\n      swap3\n      swap2\n      swap1\n      tag_55\n      jump\t// in\n    tag_54:\n      mload(0x40)\n      dup1\n      swap2\n      sub\n      swap1\n      return\n        /* \"contracts/GeekNft.sol\":454:501  mapping(address => uint) public itemsOwnerCount */\n    tag_10:\n      callvalue\n      dup1\n      iszero\n      tag_56\n      jumpi\n      0x00\n      dup1\n      revert\n    tag_56:\n      pop\n      tag_57\n      0x04\n      dup1\n      calldatasize\n      sub\n      dup2\n      add\n      swap1\n      tag_58\n      swap2\n      swap1\n      tag_38\n      jump\t// in\n    tag_58:\n      tag_59\n      jump\t// in\n    tag_57:\n      mload(0x40)\n      tag_60\n      swap2\n      swap1\n      tag_29\n      jump\t// in\n    tag_60:\n      mload(0x40)\n      dup1\n      swap2\n      sub\n      swap1\n      return\n        /* \"contracts/GeekNft.sol\":507:551  mapping(uint => uint) public itemsCatIdCount */\n    tag_11:\n      callvalue\n      dup1\n      iszero\n      tag_61\n      jumpi\n      0x00\n      dup1\n      revert\n    tag_61:\n      pop\n      tag_62\n      0x04\n      dup1\n      calldatasize\n      sub\n      dup2\n      add\n      swap1\n      tag_63\n      swap2\n      swap1\n      tag_17\n      jump\t// in\n    tag_63:\n      tag_64\n      jump\t// in\n    tag_62:\n      mload(0x40)\n      tag_65\n      swap2\n      swap1\n      tag_29\n      jump\t// in\n    tag_65:\n      mload(0x40)\n      dup1\n      swap2\n      sub\n      swap1\n      return\n        /* \"contracts/GeekNft.sol\":1075:1169  function getFeesPercentage() public view returns (uint) {... */\n    tag_12:\n      callvalue\n      dup1\n      iszero\n      tag_66\n      jumpi\n      0x00\n      dup1\n      revert\n    tag_66:\n      pop\n      tag_67\n      tag_68\n      jump\t// in\n    tag_67:\n      mload(0x40)\n      tag_69\n      swap2\n      swap1\n      tag_29\n      jump\t// in\n    tag_69:\n      mload(0x40)\n      dup1\n      swap2\n      sub\n      swap1\n      return\n        /* \"contracts/GeekNft.sol\":405:448  mapping(uint => address) public itemToOwner */\n    tag_18:\n      mstore(0x20, 0x06)\n      dup1\n      0x00\n      mstore\n      keccak256(0x00, 0x40)\n      0x00\n      swap2\n      pop\n      sload\n      swap1\n      0x0100\n      exp\n      swap1\n      div\n      0xffffffffffffffffffffffffffffffffffffffff\n      and\n      dup2\n      jump\t// out\n        /* \"contracts/GeekNft.sol\":946:1069  function modifyFeesPercentage(uint _newPercentage) public onlyContractOwner{... */\n    tag_24:\n        /* \"contracts/GeekNft.sol\":730:735  owner */\n      0x02\n      0x00\n      swap1\n      sload\n      swap1\n      0x0100\n      exp\n      swap1\n      div\n      0xffffffffffffffffffffffffffffffffffffffff\n      and\n        /* \"contracts/GeekNft.sol\":716:735  msg.sender == owner */\n      0xffffffffffffffffffffffffffffffffffffffff\n      and\n        /* \"contracts/GeekNft.sol\":716:726  msg.sender */\n      caller\n        /* \"contracts/GeekNft.sol\":716:735  msg.sender == owner */\n      0xffffffffffffffffffffffffffffffffffffffff\n      and\n      eq\n        /* \"contracts/GeekNft.sol\":708:773  require(msg.sender == owner, \"Only contract's owner can do that\") */\n      tag_71\n      jumpi\n      mload(0x40)\n      0x08c379a000000000000000000000000000000000000000000000000000000000\n      dup2\n      mstore\n      0x04\n      add\n      tag_72\n      swap1\n      tag_73\n      jump\t// in\n    tag_72:\n      mload(0x40)\n      dup1\n      swap2\n      sub\n      swap1\n      revert\n    tag_71:\n        /* \"contracts/GeekNft.sol\":1048:1062  _newPercentage */\n      dup1\n        /* \"contracts/GeekNft.sol\":1031:1045  feesPercentage */\n      0x05\n        /* \"contracts/GeekNft.sol\":1031:1062  feesPercentage = _newPercentage */\n      dup2\n      swap1\n      sstore\n      pop\n        /* \"contracts/GeekNft.sol\":946:1069  function modifyFeesPercentage(uint _newPercentage) public onlyContractOwner{... */\n      pop\n      jump\t// out\n        /* \"contracts/GeekNft.sol\":346:374  uint public itemsToSellCount */\n    tag_27:\n      sload(0x04)\n      dup2\n      jump\t// out\n        /* \"contracts/GeekNft.sol\":2513:2619  function ownerOf(uint _tokenId) public view returns (address){... */\n    tag_33:\n        /* \"contracts/GeekNft.sol\":2566:2573  address */\n      0x00\n        /* \"contracts/GeekNft.sol\":2591:2602  itemToOwner */\n      0x06\n        /* \"contracts/GeekNft.sol\":2591:2612  itemToOwner[_tokenId] */\n      0x00\n        /* \"contracts/GeekNft.sol\":2603:2611  _tokenId */\n      dup4\n        /* \"contracts/GeekNft.sol\":2591:2612  itemToOwner[_tokenId] */\n      dup2\n      mstore\n      0x20\n      add\n      swap1\n      dup2\n      mstore\n      0x20\n      add\n      0x00\n      keccak256\n      0x00\n      swap1\n      sload\n      swap1\n      0x0100\n      exp\n      swap1\n      div\n      0xffffffffffffffffffffffffffffffffffffffff\n      and\n        /* \"contracts/GeekNft.sol\":2584:2612  return itemToOwner[_tokenId] */\n      swap1\n      pop\n        /* \"contracts/GeekNft.sol\":2513:2619  function ownerOf(uint _tokenId) public view returns (address){... */\n      swap2\n      swap1\n      pop\n      jump\t// out\n        /* \"contracts/GeekNft.sol\":2625:2733  function balanceOf(address _owner) public view returns (uint){... */\n    tag_39:\n        /* \"contracts/GeekNft.sol\":2681:2685  uint */\n      0x00\n        /* \"contracts/GeekNft.sol\":2703:2718  itemsOwnerCount */\n      0x07\n        /* \"contracts/GeekNft.sol\":2703:2726  itemsOwnerCount[_owner] */\n      0x00\n        /* \"contracts/GeekNft.sol\":2719:2725  _owner */\n      dup4\n        /* \"contracts/GeekNft.sol\":2703:2726  itemsOwnerCount[_owner] */\n      0xffffffffffffffffffffffffffffffffffffffff\n      and\n      0xffffffffffffffffffffffffffffffffffffffff\n      and\n      dup2\n      mstore\n      0x20\n      add\n      swap1\n      dup2\n      mstore\n      0x20\n      add\n      0x00\n      keccak256\n      sload\n        /* \"contracts/GeekNft.sol\":2696:2726  return itemsOwnerCount[_owner] */\n      swap1\n      pop\n        /* \"contracts/GeekNft.sol\":2625:2733  function balanceOf(address _owner) public view returns (uint){... */\n      swap2\n      swap1\n      pop\n      jump\t// out\n        /* \"contracts/GeekNft.sol\":1721:2507  function sellItem(uint _tokenId) public payable{... */\n    tag_43:\n        /* \"contracts/GeekNft.sol\":1799:1804  items */\n      0x03\n        /* \"contracts/GeekNft.sol\":1805:1813  _tokenId */\n      dup2\n        /* \"contracts/GeekNft.sol\":1799:1814  items[_tokenId] */\n      dup2\n      sload\n      dup2\n      lt\n      tag_78\n      jumpi\n      mstore(0x00, 0x4e487b7100000000000000000000000000000000000000000000000000000000)\n      mstore(0x04, 0x32)\n      revert(0x00, 0x24)\n    tag_78:\n      swap1\n      0x00\n      mstore\n      keccak256(0x00, 0x20)\n      swap1\n      0x04\n      mul\n      add\n        /* \"contracts/GeekNft.sol\":1799:1820  items[_tokenId].price */\n      0x01\n      add\n      sload\n        /* \"contracts/GeekNft.sol\":1786:1795  msg.value */\n      callvalue\n        /* \"contracts/GeekNft.sol\":1786:1820  msg.value == items[_tokenId].price */\n      eq\n        /* \"contracts/GeekNft.sol\":1778:1821  require(msg.value == items[_tokenId].price) */\n      tag_80\n      jumpi\n      0x00\n      dup1\n      revert\n    tag_80:\n        /* \"contracts/GeekNft.sol\":1872:1873  0 */\n      0x00\n        /* \"contracts/GeekNft.sol\":1839:1874  itemToOwner[_tokenId] != address(0) */\n      0xffffffffffffffffffffffffffffffffffffffff\n      and\n        /* \"contracts/GeekNft.sol\":1839:1850  itemToOwner */\n      0x06\n        /* \"contracts/GeekNft.sol\":1839:1860  itemToOwner[_tokenId] */\n      0x00\n        /* \"contracts/GeekNft.sol\":1851:1859  _tokenId */\n      dup4\n        /* \"contracts/GeekNft.sol\":1839:1860  itemToOwner[_tokenId] */\n      dup2\n      mstore\n      0x20\n      add\n      swap1\n      dup2\n      mstore\n      0x20\n      add\n      0x00\n      keccak256\n      0x00\n      swap1\n      sload\n      swap1\n      0x0100\n      exp\n      swap1\n      div\n      0xffffffffffffffffffffffffffffffffffffffff\n      and\n        /* \"contracts/GeekNft.sol\":1839:1874  itemToOwner[_tokenId] != address(0) */\n      0xffffffffffffffffffffffffffffffffffffffff\n      and\n      eq\n      iszero\n        /* \"contracts/GeekNft.sol\":1831:1898  require(itemToOwner[_tokenId] != address(0), \"token doesn't exist\") */\n      tag_81\n      jumpi\n      mload(0x40)\n      0x08c379a000000000000000000000000000000000000000000000000000000000\n      dup2\n      mstore\n      0x04\n      add\n      tag_82\n      swap1\n      tag_83\n      jump\t// in\n    tag_82:\n      mload(0x40)\n      dup1\n      swap2\n      sub\n      swap1\n      revert\n    tag_81:\n        /* \"contracts/GeekNft.sol\":1909:1925  address oldOwner */\n      0x00\n        /* \"contracts/GeekNft.sol\":1928:1939  itemToOwner */\n      0x06\n        /* \"contracts/GeekNft.sol\":1928:1949  itemToOwner[_tokenId] */\n      0x00\n        /* \"contracts/GeekNft.sol\":1940:1948  _tokenId */\n      dup4\n        /* \"contracts/GeekNft.sol\":1928:1949  itemToOwner[_tokenId] */\n      dup2\n      mstore\n      0x20\n      add\n      swap1\n      dup2\n      mstore\n      0x20\n      add\n      0x00\n      keccak256\n      0x00\n      swap1\n      sload\n      swap1\n      0x0100\n      exp\n      swap1\n      div\n      0xffffffffffffffffffffffffffffffffffffffff\n      and\n        /* \"contracts/GeekNft.sol\":1909:1949  address oldOwner = itemToOwner[_tokenId] */\n      swap1\n      pop\n        /* \"contracts/GeekNft.sol\":1968:1991  Item storage itemToSell */\n      0x00\n        /* \"contracts/GeekNft.sol\":1994:1999  items */\n      0x03\n        /* \"contracts/GeekNft.sol\":2000:2008  _tokenId */\n      dup4\n        /* \"contracts/GeekNft.sol\":1994:2009  items[_tokenId] */\n      dup2\n      sload\n      dup2\n      lt\n      tag_84\n      jumpi\n      mstore(0x00, 0x4e487b7100000000000000000000000000000000000000000000000000000000)\n      mstore(0x04, 0x32)\n      revert(0x00, 0x24)\n    tag_84:\n      swap1\n      0x00\n      mstore\n      keccak256(0x00, 0x20)\n      swap1\n      0x04\n      mul\n      add\n        /* \"contracts/GeekNft.sol\":1968:2009  Item storage itemToSell = items[_tokenId] */\n      swap1\n      pop\n        /* \"contracts/GeekNft.sol\":2039:2044  false */\n      0x00\n        /* \"contracts/GeekNft.sol\":2019:2029  itemToSell */\n      dup2\n        /* \"contracts/GeekNft.sol\":2019:2036  itemToSell.toSell */\n      0x03\n      add\n      0x00\n        /* \"contracts/GeekNft.sol\":2019:2044  itemToSell.toSell = false */\n      0x0100\n      exp\n      dup2\n      sload\n      dup2\n      0xff\n      mul\n      not\n      and\n      swap1\n      dup4\n      iszero\n      iszero\n      mul\n      or\n      swap1\n      sstore\n      pop\n        /* \"contracts/GeekNft.sol\":2079:2089  msg.sender */\n      caller\n        /* \"contracts/GeekNft.sol\":2055:2066  itemToOwner */\n      0x06\n        /* \"contracts/GeekNft.sol\":2055:2076  itemToOwner[_tokenId] */\n      0x00\n        /* \"contracts/GeekNft.sol\":2067:2075  _tokenId */\n      dup6\n        /* \"contracts/GeekNft.sol\":2055:2076  itemToOwner[_tokenId] */\n      dup2\n      mstore\n      0x20\n      add\n      swap1\n      dup2\n      mstore\n      0x20\n      add\n      0x00\n      keccak256\n      0x00\n        /* \"contracts/GeekNft.sol\":2055:2089  itemToOwner[_tokenId] = msg.sender */\n      0x0100\n      exp\n      dup2\n      sload\n      dup2\n      0xffffffffffffffffffffffffffffffffffffffff\n      mul\n      not\n      and\n      swap1\n      dup4\n      0xffffffffffffffffffffffffffffffffffffffff\n      and\n      mul\n      or\n      swap1\n      sstore\n      pop\n        /* \"contracts/GeekNft.sol\":2123:2138  itemsOwnerCount */\n      0x07\n        /* \"contracts/GeekNft.sol\":2123:2148  itemsOwnerCount[oldOwner] */\n      0x00\n        /* \"contracts/GeekNft.sol\":2139:2147  oldOwner */\n      dup4\n        /* \"contracts/GeekNft.sol\":2123:2148  itemsOwnerCount[oldOwner] */\n      0xffffffffffffffffffffffffffffffffffffffff\n      and\n      0xffffffffffffffffffffffffffffffffffffffff\n      and\n      dup2\n      mstore\n      0x20\n      add\n      swap1\n      dup2\n      mstore\n      0x20\n      add\n      0x00\n      keccak256\n      0x00\n        /* \"contracts/GeekNft.sol\":2123:2150  itemsOwnerCount[oldOwner]-- */\n      dup2\n      sload\n      dup1\n      swap3\n      swap2\n      swap1\n      0x01\n      swap1\n      sub\n      swap2\n      swap1\n      pop\n      sstore\n      pop\n        /* \"contracts/GeekNft.sol\":2164:2179  itemsOwnerCount */\n      0x07\n        /* \"contracts/GeekNft.sol\":2164:2191  itemsOwnerCount[msg.sender] */\n      0x00\n        /* \"contracts/GeekNft.sol\":2180:2190  msg.sender */\n      caller\n        /* \"contracts/GeekNft.sol\":2164:2191  itemsOwnerCount[msg.sender] */\n      0xffffffffffffffffffffffffffffffffffffffff\n      and\n      0xffffffffffffffffffffffffffffffffffffffff\n      and\n      dup2\n      mstore\n      0x20\n      add\n      swap1\n      dup2\n      mstore\n      0x20\n      add\n      0x00\n      keccak256\n      0x00\n        /* \"contracts/GeekNft.sol\":2164:2193  itemsOwnerCount[msg.sender]++ */\n      dup2\n      sload\n      dup1\n      swap3\n      swap2\n      swap1\n      0x01\n      add\n      swap2\n      swap1\n      pop\n      sstore\n      pop\n        /* \"contracts/GeekNft.sol\":2207:2223  itemsToSellCount */\n      0x04\n      0x00\n        /* \"contracts/GeekNft.sol\":2207:2225  itemsToSellCount-- */\n      dup2\n      sload\n      dup1\n      swap3\n      swap2\n      swap1\n      0x01\n      swap1\n      sub\n      swap2\n      swap1\n      pop\n      sstore\n      pop\n        /* \"contracts/GeekNft.sol\":2246:2255  uint fees */\n      0x00\n        /* \"contracts/GeekNft.sol\":2265:2284  uint totalMinusFees */\n      dup1\n        /* \"contracts/GeekNft.sol\":2319:2353  getFees(msg.value, feesPercentage) */\n      tag_86\n        /* \"contracts/GeekNft.sol\":2327:2336  msg.value */\n      callvalue\n        /* \"contracts/GeekNft.sol\":2338:2352  feesPercentage */\n      sload(0x05)\n        /* \"contracts/GeekNft.sol\":2319:2326  getFees */\n      tag_87\n        /* \"contracts/GeekNft.sol\":2319:2353  getFees(msg.value, feesPercentage) */\n      jump\t// in\n    tag_86:\n        /* \"contracts/GeekNft.sol\":2294:2353  (fees, totalMinusFees) = getFees(msg.value, feesPercentage) */\n      dup1\n      swap3\n      pop\n      dup2\n      swap4\n      pop\n      pop\n      pop\n        /* \"contracts/GeekNft.sol\":2371:2376  owner */\n      0x02\n      0x00\n      swap1\n      sload\n      swap1\n      0x0100\n      exp\n      swap1\n      div\n      0xffffffffffffffffffffffffffffffffffffffff\n      and\n        /* \"contracts/GeekNft.sol\":2363:2386  payable(owner).transfer */\n      0xffffffffffffffffffffffffffffffffffffffff\n      and\n        /* \"contracts/GeekNft.sol\":2363:2392  payable(owner).transfer(fees) */\n      0x08fc\n        /* \"contracts/GeekNft.sol\":2387:2391  fees */\n      dup4\n        /* \"contracts/GeekNft.sol\":2363:2392  payable(owner).transfer(fees) */\n      swap1\n      dup2\n      iszero\n      mul\n      swap1\n      mload(0x40)\n      0x00\n      mload(0x40)\n      dup1\n      dup4\n      sub\n      dup2\n      dup6\n      dup9\n      dup9\n      call\n      swap4\n      pop\n      pop\n      pop\n      pop\n      iszero\n      dup1\n      iszero\n      tag_89\n      jumpi\n      returndatasize\n      0x00\n      dup1\n      returndatacopy\n      revert(0x00, returndatasize)\n    tag_89:\n      pop\n        /* \"contracts/GeekNft.sol\":2410:2418  oldOwner */\n      dup4\n        /* \"contracts/GeekNft.sol\":2402:2428  payable(oldOwner).transfer */\n      0xffffffffffffffffffffffffffffffffffffffff\n      and\n        /* \"contracts/GeekNft.sol\":2402:2444  payable(oldOwner).transfer(totalMinusFees) */\n      0x08fc\n        /* \"contracts/GeekNft.sol\":2429:2443  totalMinusFees */\n      dup3\n        /* \"contracts/GeekNft.sol\":2402:2444  payable(oldOwner).transfer(totalMinusFees) */\n      swap1\n      dup2\n      iszero\n      mul\n      swap1\n      mload(0x40)\n      0x00\n      mload(0x40)\n      dup1\n      dup4\n      sub\n      dup2\n      dup6\n      dup9\n      dup9\n      call\n      swap4\n      pop\n      pop\n      pop\n      pop\n      iszero\n      dup1\n      iszero\n      tag_91\n      jumpi\n      returndatasize\n      0x00\n      dup1\n      returndatacopy\n      revert(0x00, returndatasize)\n    tag_91:\n      pop\n        /* \"contracts/GeekNft.sol\":2479:2489  msg.sender */\n      caller\n        /* \"contracts/GeekNft.sol\":2460:2500  Transfer(oldOwner, msg.sender, _tokenId) */\n      0xffffffffffffffffffffffffffffffffffffffff\n      and\n        /* \"contracts/GeekNft.sol\":2469:2477  oldOwner */\n      dup5\n        /* \"contracts/GeekNft.sol\":2460:2500  Transfer(oldOwner, msg.sender, _tokenId) */\n      0xffffffffffffffffffffffffffffffffffffffff\n      and\n      0xddf252ad1be2c89b69c2b068fc378daa952ba7f163c4a11628f55a4df523b3ef\n        /* \"contracts/GeekNft.sol\":2491:2499  _tokenId */\n      dup8\n        /* \"contracts/GeekNft.sol\":2460:2500  Transfer(oldOwner, msg.sender, _tokenId) */\n      mload(0x40)\n      tag_92\n      swap2\n      swap1\n      tag_29\n      jump\t// in\n    tag_92:\n      mload(0x40)\n      dup1\n      swap2\n      sub\n      swap1\n      log3\n        /* \"contracts/GeekNft.sol\":1721:2507  function sellItem(uint _tokenId) public payable{... */\n      pop\n      pop\n      pop\n      pop\n      pop\n      jump\t// out\n        /* \"contracts/GeekNft.sol\":1175:1715  function createItem(uint _price, uint _catId) public returns (uint){... */\n    tag_48:\n        /* \"contracts/GeekNft.sol\":1237:1241  uint */\n      0x00\n        /* \"contracts/GeekNft.sol\":1269:1270  0 */\n      dup1\n        /* \"contracts/GeekNft.sol\":1260:1266  _price */\n      dup4\n        /* \"contracts/GeekNft.sol\":1260:1270  _price > 0 */\n      gt\n        /* \"contracts/GeekNft.sol\":1252:1301  require(_price > 0, \"Price cannot be equal to 0\") */\n      tag_94\n      jumpi\n      mload(0x40)\n      0x08c379a000000000000000000000000000000000000000000000000000000000\n      dup2\n      mstore\n      0x04\n      add\n      tag_95\n      swap1\n      tag_96\n      jump\t// in\n    tag_95:\n      mload(0x40)\n      dup1\n      swap2\n      sub\n      swap1\n      revert\n    tag_94:\n        /* \"contracts/GeekNft.sol\":1311:1326  uint newTokenId */\n      0x00\n        /* \"contracts/GeekNft.sol\":1329:1334  items */\n      0x03\n        /* \"contracts/GeekNft.sol\":1329:1341  items.length */\n      dup1\n      sload\n      swap1\n      pop\n        /* \"contracts/GeekNft.sol\":1311:1341  uint newTokenId = items.length */\n      swap1\n      pop\n        /* \"contracts/GeekNft.sol\":1395:1396  0 */\n      0x00\n        /* \"contracts/GeekNft.sol\":1360:1397  itemToOwner[newTokenId] == address(0) */\n      0xffffffffffffffffffffffffffffffffffffffff\n      and\n        /* \"contracts/GeekNft.sol\":1360:1371  itemToOwner */\n      0x06\n        /* \"contracts/GeekNft.sol\":1360:1383  itemToOwner[newTokenId] */\n      0x00\n        /* \"contracts/GeekNft.sol\":1372:1382  newTokenId */\n      dup4\n        /* \"contracts/GeekNft.sol\":1360:1383  itemToOwner[newTokenId] */\n      dup2\n      mstore\n      0x20\n      add\n      swap1\n      dup2\n      mstore\n      0x20\n      add\n      0x00\n      keccak256\n      0x00\n      swap1\n      sload\n      swap1\n      0x0100\n      exp\n      swap1\n      div\n      0xffffffffffffffffffffffffffffffffffffffff\n      and\n        /* \"contracts/GeekNft.sol\":1360:1397  itemToOwner[newTokenId] == address(0) */\n      0xffffffffffffffffffffffffffffffffffffffff\n      and\n      eq\n        /* \"contracts/GeekNft.sol\":1352:1421  require(itemToOwner[newTokenId] == address(0), \"token already exist\") */\n      tag_97\n      jumpi\n      mload(0x40)\n      0x08c379a000000000000000000000000000000000000000000000000000000000\n      dup2\n      mstore\n      0x04\n      add\n      tag_98\n      swap1\n      tag_99\n      jump\t// in\n    tag_98:\n      mload(0x40)\n      dup1\n      swap2\n      sub\n      swap1\n      revert\n    tag_97:\n        /* \"contracts/GeekNft.sol\":1452:1490  Item(newTokenId, _price, _catId, true) */\n      mload(0x40)\n      dup1\n      0x80\n      add\n      0x40\n      mstore\n      dup1\n        /* \"contracts/GeekNft.sol\":1457:1467  newTokenId */\n      dup3\n        /* \"contracts/GeekNft.sol\":1452:1490  Item(newTokenId, _price, _catId, true) */\n      dup2\n      mstore\n      0x20\n      add\n        /* \"contracts/GeekNft.sol\":1469:1475  _price */\n      dup6\n        /* \"contracts/GeekNft.sol\":1452:1490  Item(newTokenId, _price, _catId, true) */\n      dup2\n      mstore\n      0x20\n      add\n        /* \"contracts/GeekNft.sol\":1477:1483  _catId */\n      dup5\n        /* \"contracts/GeekNft.sol\":1452:1490  Item(newTokenId, _price, _catId, true) */\n      dup2\n      mstore\n      0x20\n      add\n        /* \"contracts/GeekNft.sol\":1485:1489  true */\n      0x01\n        /* \"contracts/GeekNft.sol\":1452:1490  Item(newTokenId, _price, _catId, true) */\n      iszero\n      iszero\n      dup2\n      mstore\n      pop\n        /* \"contracts/GeekNft.sol\":1432:1437  items */\n      0x03\n        /* \"contracts/GeekNft.sol\":1438:1448  newTokenId */\n      dup3\n        /* \"contracts/GeekNft.sol\":1432:1449  items[newTokenId] */\n      dup2\n      sload\n      dup2\n      lt\n      tag_100\n      jumpi\n      mstore(0x00, 0x4e487b7100000000000000000000000000000000000000000000000000000000)\n      mstore(0x04, 0x32)\n      revert(0x00, 0x24)\n    tag_100:\n      swap1\n      0x00\n      mstore\n      keccak256(0x00, 0x20)\n      swap1\n      0x04\n      mul\n      add\n        /* \"contracts/GeekNft.sol\":1432:1490  items[newTokenId] = Item(newTokenId, _price, _catId, true) */\n      0x00\n      dup3\n      add\n      mload\n      dup2\n      0x00\n      add\n      sstore\n      0x20\n      dup3\n      add\n      mload\n      dup2\n      0x01\n      add\n      sstore\n      0x40\n      dup3\n      add\n      mload\n      dup2\n      0x02\n      add\n      sstore\n      0x60\n      dup3\n      add\n      mload\n      dup2\n      0x03\n      add\n      exp(0x0100, 0x00)\n      dup2\n      sload\n      dup2\n      0xff\n      mul\n      not\n      and\n      swap1\n      dup4\n      iszero\n      iszero\n      mul\n      or\n      swap1\n      sstore\n      pop\n      swap1\n      pop\n      pop\n        /* \"contracts/GeekNft.sol\":1526:1536  msg.sender */\n      caller\n        /* \"contracts/GeekNft.sol\":1500:1511  itemToOwner */\n      0x06\n        /* \"contracts/GeekNft.sol\":1500:1523  itemToOwner[newTokenId] */\n      0x00\n        /* \"contracts/GeekNft.sol\":1512:1522  newTokenId */\n      dup4\n        /* \"contracts/GeekNft.sol\":1500:1523  itemToOwner[newTokenId] */\n      dup2\n      mstore\n      0x20\n      add\n      swap1\n      dup2\n      mstore\n      0x20\n      add\n      0x00\n      keccak256\n      0x00\n        /* \"contracts/GeekNft.sol\":1500:1536  itemToOwner[newTokenId] = msg.sender */\n      0x0100\n      exp\n      dup2\n      sload\n      dup2\n      0xffffffffffffffffffffffffffffffffffffffff\n      mul\n      not\n      and\n      swap1\n      dup4\n      0xffffffffffffffffffffffffffffffffffffffff\n      and\n      mul\n      or\n      swap1\n      sstore\n      pop\n        /* \"contracts/GeekNft.sol\":1570:1585  itemsOwnerCount */\n      0x07\n        /* \"contracts/GeekNft.sol\":1570:1597  itemsOwnerCount[msg.sender] */\n      0x00\n        /* \"contracts/GeekNft.sol\":1586:1596  msg.sender */\n      caller\n        /* \"contracts/GeekNft.sol\":1570:1597  itemsOwnerCount[msg.sender] */\n      0xffffffffffffffffffffffffffffffffffffffff\n      and\n      0xffffffffffffffffffffffffffffffffffffffff\n      and\n      dup2\n      mstore\n      0x20\n      add\n      swap1\n      dup2\n      mstore\n      0x20\n      add\n      0x00\n      keccak256\n      0x00\n        /* \"contracts/GeekNft.sol\":1570:1599  itemsOwnerCount[msg.sender]++ */\n      dup2\n      sload\n      dup1\n      swap3\n      swap2\n      swap1\n      0x01\n      add\n      swap2\n      swap1\n      pop\n      sstore\n      pop\n        /* \"contracts/GeekNft.sol\":1613:1628  itemsCatIdCount */\n      0x08\n        /* \"contracts/GeekNft.sol\":1613:1636  itemsCatIdCount[_catId] */\n      0x00\n        /* \"contracts/GeekNft.sol\":1629:1635  _catId */\n      dup5\n        /* \"contracts/GeekNft.sol\":1613:1636  itemsCatIdCount[_catId] */\n      dup2\n      mstore\n      0x20\n      add\n      swap1\n      dup2\n      mstore\n      0x20\n      add\n      0x00\n      keccak256\n      0x00\n        /* \"contracts/GeekNft.sol\":1613:1638  itemsCatIdCount[_catId]++ */\n      dup2\n      sload\n      dup1\n      swap3\n      swap2\n      swap1\n      0x01\n      add\n      swap2\n      swap1\n      pop\n      sstore\n      pop\n        /* \"contracts/GeekNft.sol\":1652:1668  itemsToSellCount */\n      0x04\n      0x00\n        /* \"contracts/GeekNft.sol\":1652:1670  itemsToSellCount++ */\n      dup2\n      sload\n      dup1\n      swap3\n      swap2\n      swap1\n      0x01\n      add\n      swap2\n      swap1\n      pop\n      sstore\n      pop\n        /* \"contracts/GeekNft.sol\":1698:1708  newTokenId */\n      dup1\n        /* \"contracts/GeekNft.sol\":1691:1708  return newTokenId */\n      swap2\n      pop\n      pop\n        /* \"contracts/GeekNft.sol\":1175:1715  function createItem(uint _price, uint _catId) public returns (uint){... */\n      swap3\n      swap2\n      pop\n      pop\n      jump\t// out\n        /* \"contracts/GeekNft.sol\":321:340  Item[] public items */\n    tag_53:\n      0x03\n      dup2\n      dup2\n      sload\n      dup2\n      lt\n      tag_102\n      jumpi\n      0x00\n      dup1\n      revert\n    tag_102:\n      swap1\n      0x00\n      mstore\n      keccak256(0x00, 0x20)\n      swap1\n      0x04\n      mul\n      add\n      0x00\n      swap2\n      pop\n      swap1\n      pop\n      dup1\n      0x00\n      add\n      sload\n      swap1\n      dup1\n      0x01\n      add\n      sload\n      swap1\n      dup1\n      0x02\n      add\n      sload\n      swap1\n      dup1\n      0x03\n      add\n      0x00\n      swap1\n      sload\n      swap1\n      0x0100\n      exp\n      swap1\n      div\n      0xff\n      and\n      swap1\n      pop\n      dup5\n      jump\t// out\n        /* \"contracts/GeekNft.sol\":454:501  mapping(address => uint) public itemsOwnerCount */\n    tag_59:\n      mstore(0x20, 0x07)\n      dup1\n      0x00\n      mstore\n      keccak256(0x00, 0x40)\n      0x00\n      swap2\n      pop\n      swap1\n      pop\n      sload\n      dup2\n      jump\t// out\n        /* \"contracts/GeekNft.sol\":507:551  mapping(uint => uint) public itemsCatIdCount */\n    tag_64:\n      mstore(0x20, 0x08)\n      dup1\n      0x00\n      mstore\n      keccak256(0x00, 0x40)\n      0x00\n      swap2\n      pop\n      swap1\n      pop\n      sload\n      dup2\n      jump\t// out\n        /* \"contracts/GeekNft.sol\":1075:1169  function getFeesPercentage() public view returns (uint) {... */\n    tag_68:\n        /* \"contracts/GeekNft.sol\":1125:1129  uint */\n      0x00\n        /* \"contracts/GeekNft.sol\":1148:1162  feesPercentage */\n      sload(0x05)\n        /* \"contracts/GeekNft.sol\":1141:1162  return feesPercentage */\n      swap1\n      pop\n        /* \"contracts/GeekNft.sol\":1075:1169  function getFeesPercentage() public view returns (uint) {... */\n      swap1\n      jump\t// out\n        /* \"contracts/GeekNft.sol\":2766:2988  function getFees(uint _price, uint _percentage) private pure returns (uint, uint){... */\n    tag_87:\n        /* \"contracts/GeekNft.sol\":2836:2840  uint */\n      0x00\n        /* \"contracts/GeekNft.sol\":2842:2846  uint */\n      dup1\n        /* \"contracts/GeekNft.sol\":2857:2866  uint fees */\n      0x00\n        /* \"contracts/GeekNft.sol\":2894:2897  100 */\n      0x64\n        /* \"contracts/GeekNft.sol\":2884:2890  _price */\n      dup6\n        /* \"contracts/GeekNft.sol\":2870:2881  _percentage */\n      dup6\n        /* \"contracts/GeekNft.sol\":2870:2890  _percentage * _price */\n      tag_106\n      swap2\n      swap1\n      tag_107\n      jump\t// in\n    tag_106:\n        /* \"contracts/GeekNft.sol\":2869:2897  (_percentage * _price) / 100 */\n      tag_108\n      swap2\n      swap1\n      tag_109\n      jump\t// in\n    tag_108:\n        /* \"contracts/GeekNft.sol\":2857:2897  uint fees = (_percentage * _price) / 100 */\n      swap1\n      pop\n        /* \"contracts/GeekNft.sol\":2907:2926  uint totalMinusFees */\n      0x00\n        /* \"contracts/GeekNft.sol\":2938:2942  fees */\n      dup2\n        /* \"contracts/GeekNft.sol\":2929:2935  _price */\n      dup7\n        /* \"contracts/GeekNft.sol\":2929:2942  _price - fees */\n      tag_110\n      swap2\n      swap1\n      tag_111\n      jump\t// in\n    tag_110:\n        /* \"contracts/GeekNft.sol\":2907:2942  uint totalMinusFees = _price - fees */\n      swap1\n      pop\n        /* \"contracts/GeekNft.sol\":2960:2964  fees */\n      dup2\n        /* \"contracts/GeekNft.sol\":2966:2980  totalMinusFees */\n      dup2\n        /* \"contracts/GeekNft.sol\":2952:2981  return (fees, totalMinusFees) */\n      swap4\n      pop\n      swap4\n      pop\n      pop\n      pop\n        /* \"contracts/GeekNft.sol\":2766:2988  function getFees(uint _price, uint _percentage) private pure returns (uint, uint){... */\n      swap3\n      pop\n      swap3\n      swap1\n      pop\n      jump\t// out\n        /* \"#utility.yul\":7:146   */\n    tag_113:\n      0x00\n        /* \"#utility.yul\":91:97   */\n      dup2\n        /* \"#utility.yul\":78:98   */\n      calldataload\n        /* \"#utility.yul\":69:98   */\n      swap1\n      pop\n        /* \"#utility.yul\":107:140   */\n      tag_115\n        /* \"#utility.yul\":134:139   */\n      dup2\n        /* \"#utility.yul\":107:140   */\n      tag_116\n      jump\t// in\n    tag_115:\n        /* \"#utility.yul\":59:146   */\n      swap3\n      swap2\n      pop\n      pop\n      jump\t// out\n        /* \"#utility.yul\":152:291   */\n    tag_117:\n      0x00\n        /* \"#utility.yul\":236:242   */\n      dup2\n        /* \"#utility.yul\":223:243   */\n      calldataload\n        /* \"#utility.yul\":214:243   */\n      swap1\n      pop\n        /* \"#utility.yul\":252:285   */\n      tag_119\n        /* \"#utility.yul\":279:284   */\n      dup2\n        /* \"#utility.yul\":252:285   */\n      tag_120\n      jump\t// in\n    tag_119:\n        /* \"#utility.yul\":204:291   */\n      swap3\n      swap2\n      pop\n      pop\n      jump\t// out\n        /* \"#utility.yul\":297:559   */\n    tag_38:\n      0x00\n        /* \"#utility.yul\":405:407   */\n      0x20\n        /* \"#utility.yul\":393:402   */\n      dup3\n        /* \"#utility.yul\":384:391   */\n      dup5\n        /* \"#utility.yul\":380:403   */\n      sub\n        /* \"#utility.yul\":376:408   */\n      slt\n        /* \"#utility.yul\":373:375   */\n      iszero\n      tag_122\n      jumpi\n        /* \"#utility.yul\":421:422   */\n      0x00\n        /* \"#utility.yul\":418:419   */\n      dup1\n        /* \"#utility.yul\":411:423   */\n      revert\n        /* \"#utility.yul\":373:375   */\n    tag_122:\n        /* \"#utility.yul\":464:465   */\n      0x00\n        /* \"#utility.yul\":489:542   */\n      tag_123\n        /* \"#utility.yul\":534:541   */\n      dup5\n        /* \"#utility.yul\":525:531   */\n      dup3\n        /* \"#utility.yul\":514:523   */\n      dup6\n        /* \"#utility.yul\":510:532   */\n      add\n        /* \"#utility.yul\":489:542   */\n      tag_113\n      jump\t// in\n    tag_123:\n        /* \"#utility.yul\":479:542   */\n      swap2\n      pop\n        /* \"#utility.yul\":435:552   */\n      pop\n        /* \"#utility.yul\":363:559   */\n      swap3\n      swap2\n      pop\n      pop\n      jump\t// out\n        /* \"#utility.yul\":565:827   */\n    tag_17:\n      0x00\n        /* \"#utility.yul\":673:675   */\n      0x20\n        /* \"#utility.yul\":661:670   */\n      dup3\n        /* \"#utility.yul\":652:659   */\n      dup5\n        /* \"#utility.yul\":648:671   */\n      sub\n        /* \"#utility.yul\":644:676   */\n      slt\n        /* \"#utility.yul\":641:643   */\n      iszero\n      tag_125\n      jumpi\n        /* \"#utility.yul\":689:690   */\n      0x00\n        /* \"#utility.yul\":686:687   */\n      dup1\n        /* \"#utility.yul\":679:691   */\n      revert\n        /* \"#utility.yul\":641:643   */\n    tag_125:\n        /* \"#utility.yul\":732:733   */\n      0x00\n        /* \"#utility.yul\":757:810   */\n      tag_126\n        /* \"#utility.yul\":802:809   */\n      dup5\n        /* \"#utility.yul\":793:799   */\n      dup3\n        /* \"#utility.yul\":782:791   */\n      dup6\n        /* \"#utility.yul\":778:800   */\n      add\n        /* \"#utility.yul\":757:810   */\n      tag_117\n      jump\t// in\n    tag_126:\n        /* \"#utility.yul\":747:810   */\n      swap2\n      pop\n        /* \"#utility.yul\":703:820   */\n      pop\n        /* \"#utility.yul\":631:827   */\n      swap3\n      swap2\n      pop\n      pop\n      jump\t// out\n        /* \"#utility.yul\":833:1240   */\n    tag_47:\n      0x00\n      dup1\n        /* \"#utility.yul\":958:960   */\n      0x40\n        /* \"#utility.yul\":946:955   */\n      dup4\n        /* \"#utility.yul\":937:944   */\n      dup6\n        /* \"#utility.yul\":933:956   */\n      sub\n        /* \"#utility.yul\":929:961   */\n      slt\n        /* \"#utility.yul\":926:928   */\n      iszero\n      tag_128\n      jumpi\n        /* \"#utility.yul\":974:975   */\n      0x00\n        /* \"#utility.yul\":971:972   */\n      dup1\n        /* \"#utility.yul\":964:976   */\n      revert\n        /* \"#utility.yul\":926:928   */\n    tag_128:\n        /* \"#utility.yul\":1017:1018   */\n      0x00\n        /* \"#utility.yul\":1042:1095   */\n      tag_129\n        /* \"#utility.yul\":1087:1094   */\n      dup6\n        /* \"#utility.yul\":1078:1084   */\n      dup3\n        /* \"#utility.yul\":1067:1076   */\n      dup7\n        /* \"#utility.yul\":1063:1085   */\n      add\n        /* \"#utility.yul\":1042:1095   */\n      tag_117\n      jump\t// in\n    tag_129:\n        /* \"#utility.yul\":1032:1095   */\n      swap3\n      pop\n        /* \"#utility.yul\":988:1105   */\n      pop\n        /* \"#utility.yul\":1144:1146   */\n      0x20\n        /* \"#utility.yul\":1170:1223   */\n      tag_130\n        /* \"#utility.yul\":1215:1222   */\n      dup6\n        /* \"#utility.yul\":1206:1212   */\n      dup3\n        /* \"#utility.yul\":1195:1204   */\n      dup7\n        /* \"#utility.yul\":1191:1213   */\n      add\n        /* \"#utility.yul\":1170:1223   */\n      tag_117\n      jump\t// in\n    tag_130:\n        /* \"#utility.yul\":1160:1223   */\n      swap2\n      pop\n        /* \"#utility.yul\":1115:1233   */\n      pop\n        /* \"#utility.yul\":916:1240   */\n      swap3\n      pop\n      swap3\n      swap1\n      pop\n      jump\t// out\n        /* \"#utility.yul\":1246:1364   */\n    tag_131:\n        /* \"#utility.yul\":1333:1357   */\n      tag_133\n        /* \"#utility.yul\":1351:1356   */\n      dup2\n        /* \"#utility.yul\":1333:1357   */\n      tag_134\n      jump\t// in\n    tag_133:\n        /* \"#utility.yul\":1328:1331   */\n      dup3\n        /* \"#utility.yul\":1321:1358   */\n      mstore\n        /* \"#utility.yul\":1311:1364   */\n      pop\n      pop\n      jump\t// out\n        /* \"#utility.yul\":1370:1479   */\n    tag_135:\n        /* \"#utility.yul\":1451:1472   */\n      tag_137\n        /* \"#utility.yul\":1466:1471   */\n      dup2\n        /* \"#utility.yul\":1451:1472   */\n      tag_138\n      jump\t// in\n    tag_137:\n        /* \"#utility.yul\":1446:1449   */\n      dup3\n        /* \"#utility.yul\":1439:1473   */\n      mstore\n        /* \"#utility.yul\":1429:1479   */\n      pop\n      pop\n      jump\t// out\n        /* \"#utility.yul\":1485:1851   */\n    tag_139:\n      0x00\n        /* \"#utility.yul\":1648:1715   */\n      tag_141\n        /* \"#utility.yul\":1712:1714   */\n      0x13\n        /* \"#utility.yul\":1707:1710   */\n      dup4\n        /* \"#utility.yul\":1648:1715   */\n      tag_142\n      jump\t// in\n    tag_141:\n        /* \"#utility.yul\":1641:1715   */\n      swap2\n      pop\n        /* \"#utility.yul\":1724:1817   */\n      tag_143\n        /* \"#utility.yul\":1813:1816   */\n      dup3\n        /* \"#utility.yul\":1724:1817   */\n      tag_144\n      jump\t// in\n    tag_143:\n        /* \"#utility.yul\":1842:1844   */\n      0x20\n        /* \"#utility.yul\":1837:1840   */\n      dup3\n        /* \"#utility.yul\":1833:1845   */\n      add\n        /* \"#utility.yul\":1826:1845   */\n      swap1\n      pop\n        /* \"#utility.yul\":1631:1851   */\n      swap2\n      swap1\n      pop\n      jump\t// out\n        /* \"#utility.yul\":1857:2223   */\n    tag_145:\n      0x00\n        /* \"#utility.yul\":2020:2087   */\n      tag_147\n        /* \"#utility.yul\":2084:2086   */\n      0x13\n        /* \"#utility.yul\":2079:2082   */\n      dup4\n        /* \"#utility.yul\":2020:2087   */\n      tag_142\n      jump\t// in\n    tag_147:\n        /* \"#utility.yul\":2013:2087   */\n      swap2\n      pop\n        /* \"#utility.yul\":2096:2189   */\n      tag_148\n        /* \"#utility.yul\":2185:2188   */\n      dup3\n        /* \"#utility.yul\":2096:2189   */\n      tag_149\n      jump\t// in\n    tag_148:\n        /* \"#utility.yul\":2214:2216   */\n      0x20\n        /* \"#utility.yul\":2209:2212   */\n      dup3\n        /* \"#utility.yul\":2205:2217   */\n      add\n        /* \"#utility.yul\":2198:2217   */\n      swap1\n      pop\n        /* \"#utility.yul\":2003:2223   */\n      swap2\n      swap1\n      pop\n      jump\t// out\n        /* \"#utility.yul\":2229:2595   */\n    tag_150:\n      0x00\n        /* \"#utility.yul\":2392:2459   */\n      tag_152\n        /* \"#utility.yul\":2456:2458   */\n      0x21\n        /* \"#utility.yul\":2451:2454   */\n      dup4\n        /* \"#utility.yul\":2392:2459   */\n      tag_142\n      jump\t// in\n    tag_152:\n        /* \"#utility.yul\":2385:2459   */\n      swap2\n      pop\n        /* \"#utility.yul\":2468:2561   */\n      tag_153\n        /* \"#utility.yul\":2557:2560   */\n      dup3\n        /* \"#utility.yul\":2468:2561   */\n      tag_154\n      jump\t// in\n    tag_153:\n        /* \"#utility.yul\":2586:2588   */\n      0x40\n        /* \"#utility.yul\":2581:2584   */\n      dup3\n        /* \"#utility.yul\":2577:2589   */\n      add\n        /* \"#utility.yul\":2570:2589   */\n      swap1\n      pop\n        /* \"#utility.yul\":2375:2595   */\n      swap2\n      swap1\n      pop\n      jump\t// out\n        /* \"#utility.yul\":2601:2967   */\n    tag_155:\n      0x00\n        /* \"#utility.yul\":2764:2831   */\n      tag_157\n        /* \"#utility.yul\":2828:2830   */\n      0x1a\n        /* \"#utility.yul\":2823:2826   */\n      dup4\n        /* \"#utility.yul\":2764:2831   */\n      tag_142\n      jump\t// in\n    tag_157:\n        /* \"#utility.yul\":2757:2831   */\n      swap2\n      pop\n        /* \"#utility.yul\":2840:2933   */\n      tag_158\n        /* \"#utility.yul\":2929:2932   */\n      dup3\n        /* \"#utility.yul\":2840:2933   */\n      tag_159\n      jump\t// in\n    tag_158:\n        /* \"#utility.yul\":2958:2960   */\n      0x20\n        /* \"#utility.yul\":2953:2956   */\n      dup3\n        /* \"#utility.yul\":2949:2961   */\n      add\n        /* \"#utility.yul\":2942:2961   */\n      swap1\n      pop\n        /* \"#utility.yul\":2747:2967   */\n      swap2\n      swap1\n      pop\n      jump\t// out\n        /* \"#utility.yul\":2973:3091   */\n    tag_160:\n        /* \"#utility.yul\":3060:3084   */\n      tag_162\n        /* \"#utility.yul\":3078:3083   */\n      dup2\n        /* \"#utility.yul\":3060:3084   */\n      tag_163\n      jump\t// in\n    tag_162:\n        /* \"#utility.yul\":3055:3058   */\n      dup3\n        /* \"#utility.yul\":3048:3085   */\n      mstore\n        /* \"#utility.yul\":3038:3091   */\n      pop\n      pop\n      jump\t// out\n        /* \"#utility.yul\":3097:3319   */\n    tag_20:\n      0x00\n        /* \"#utility.yul\":3228:3230   */\n      0x20\n        /* \"#utility.yul\":3217:3226   */\n      dup3\n        /* \"#utility.yul\":3213:3231   */\n      add\n        /* \"#utility.yul\":3205:3231   */\n      swap1\n      pop\n        /* \"#utility.yul\":3241:3312   */\n      tag_165\n        /* \"#utility.yul\":3309:3310   */\n      0x00\n        /* \"#utility.yul\":3298:3307   */\n      dup4\n        /* \"#utility.yul\":3294:3311   */\n      add\n        /* \"#utility.yul\":3285:3291   */\n      dup5\n        /* \"#utility.yul\":3241:3312   */\n      tag_131\n      jump\t// in\n    tag_165:\n        /* \"#utility.yul\":3195:3319   */\n      swap3\n      swap2\n      pop\n      pop\n      jump\t// out\n        /* \"#utility.yul\":3325:3744   */\n    tag_99:\n      0x00\n        /* \"#utility.yul\":3529:3531   */\n      0x20\n        /* \"#utility.yul\":3518:3527   */\n      dup3\n        /* \"#utility.yul\":3514:3532   */\n      add\n        /* \"#utility.yul\":3506:3532   */\n      swap1\n      pop\n        /* \"#utility.yul\":3578:3587   */\n      dup2\n        /* \"#utility.yul\":3572:3576   */\n      dup2\n        /* \"#utility.yul\":3568:3588   */\n      sub\n        /* \"#utility.yul\":3564:3565   */\n      0x00\n        /* \"#utility.yul\":3553:3562   */\n      dup4\n        /* \"#utility.yul\":3549:3566   */\n      add\n        /* \"#utility.yul\":3542:3589   */\n      mstore\n        /* \"#utility.yul\":3606:3737   */\n      tag_167\n        /* \"#utility.yul\":3732:3736   */\n      dup2\n        /* \"#utility.yul\":3606:3737   */\n      tag_139\n      jump\t// in\n    tag_167:\n        /* \"#utility.yul\":3598:3737   */\n      swap1\n      pop\n        /* \"#utility.yul\":3496:3744   */\n      swap2\n      swap1\n      pop\n      jump\t// out\n        /* \"#utility.yul\":3750:4169   */\n    tag_83:\n      0x00\n        /* \"#utility.yul\":3954:3956   */\n      0x20\n        /* \"#utility.yul\":3943:3952   */\n      dup3\n        /* \"#utility.yul\":3939:3957   */\n      add\n        /* \"#utility.yul\":3931:3957   */\n      swap1\n      pop\n        /* \"#utility.yul\":4003:4012   */\n      dup2\n        /* \"#utility.yul\":3997:4001   */\n      dup2\n        /* \"#utility.yul\":3993:4013   */\n      sub\n        /* \"#utility.yul\":3989:3990   */\n      0x00\n        /* \"#utility.yul\":3978:3987   */\n      dup4\n        /* \"#utility.yul\":3974:3991   */\n      add\n        /* \"#utility.yul\":3967:4014   */\n      mstore\n        /* \"#utility.yul\":4031:4162   */\n      tag_169\n        /* \"#utility.yul\":4157:4161   */\n      dup2\n        /* \"#utility.yul\":4031:4162   */\n      tag_145\n      jump\t// in\n    tag_169:\n        /* \"#utility.yul\":4023:4162   */\n      swap1\n      pop\n        /* \"#utility.yul\":3921:4169   */\n      swap2\n      swap1\n      pop\n      jump\t// out\n        /* \"#utility.yul\":4175:4594   */\n    tag_73:\n      0x00\n        /* \"#utility.yul\":4379:4381   */\n      0x20\n        /* \"#utility.yul\":4368:4377   */\n      dup3\n        /* \"#utility.yul\":4364:4382   */\n      add\n        /* \"#utility.yul\":4356:4382   */\n      swap1\n      pop\n        /* \"#utility.yul\":4428:4437   */\n      dup2\n        /* \"#utility.yul\":4422:4426   */\n      dup2\n        /* \"#utility.yul\":4418:4438   */\n      sub\n        /* \"#utility.yul\":4414:4415   */\n      0x00\n        /* \"#utility.yul\":4403:4412   */\n      dup4\n        /* \"#utility.yul\":4399:4416   */\n      add\n        /* \"#utility.yul\":4392:4439   */\n      mstore\n        /* \"#utility.yul\":4456:4587   */\n      tag_171\n        /* \"#utility.yul\":4582:4586   */\n      dup2\n        /* \"#utility.yul\":4456:4587   */\n      tag_150\n      jump\t// in\n    tag_171:\n        /* \"#utility.yul\":4448:4587   */\n      swap1\n      pop\n        /* \"#utility.yul\":4346:4594   */\n      swap2\n      swap1\n      pop\n      jump\t// out\n        /* \"#utility.yul\":4600:5019   */\n    tag_96:\n      0x00\n        /* \"#utility.yul\":4804:4806   */\n      0x20\n        /* \"#utility.yul\":4793:4802   */\n      dup3\n        /* \"#utility.yul\":4789:4807   */\n      add\n        /* \"#utility.yul\":4781:4807   */\n      swap1\n      pop\n        /* \"#utility.yul\":4853:4862   */\n      dup2\n        /* \"#utility.yul\":4847:4851   */\n      dup2\n        /* \"#utility.yul\":4843:4863   */\n      sub\n        /* \"#utility.yul\":4839:4840   */\n      0x00\n        /* \"#utility.yul\":4828:4837   */\n      dup4\n        /* \"#utility.yul\":4824:4841   */\n      add\n        /* \"#utility.yul\":4817:4864   */\n      mstore\n        /* \"#utility.yul\":4881:5012   */\n      tag_173\n        /* \"#utility.yul\":5007:5011   */\n      dup2\n        /* \"#utility.yul\":4881:5012   */\n      tag_155\n      jump\t// in\n    tag_173:\n        /* \"#utility.yul\":4873:5012   */\n      swap1\n      pop\n        /* \"#utility.yul\":4771:5019   */\n      swap2\n      swap1\n      pop\n      jump\t// out\n        /* \"#utility.yul\":5025:5247   */\n    tag_29:\n      0x00\n        /* \"#utility.yul\":5156:5158   */\n      0x20\n        /* \"#utility.yul\":5145:5154   */\n      dup3\n        /* \"#utility.yul\":5141:5159   */\n      add\n        /* \"#utility.yul\":5133:5159   */\n      swap1\n      pop\n        /* \"#utility.yul\":5169:5240   */\n      tag_175\n        /* \"#utility.yul\":5237:5238   */\n      0x00\n        /* \"#utility.yul\":5226:5235   */\n      dup4\n        /* \"#utility.yul\":5222:5239   */\n      add\n        /* \"#utility.yul\":5213:5219   */\n      dup5\n        /* \"#utility.yul\":5169:5240   */\n      tag_160\n      jump\t// in\n    tag_175:\n        /* \"#utility.yul\":5123:5247   */\n      swap3\n      swap2\n      pop\n      pop\n      jump\t// out\n        /* \"#utility.yul\":5253:5794   */\n    tag_55:\n      0x00\n        /* \"#utility.yul\":5462:5465   */\n      0x80\n        /* \"#utility.yul\":5451:5460   */\n      dup3\n        /* \"#utility.yul\":5447:5466   */\n      add\n        /* \"#utility.yul\":5439:5466   */\n      swap1\n      pop\n        /* \"#utility.yul\":5476:5547   */\n      tag_177\n        /* \"#utility.yul\":5544:5545   */\n      0x00\n        /* \"#utility.yul\":5533:5542   */\n      dup4\n        /* \"#utility.yul\":5529:5546   */\n      add\n        /* \"#utility.yul\":5520:5526   */\n      dup8\n        /* \"#utility.yul\":5476:5547   */\n      tag_160\n      jump\t// in\n    tag_177:\n        /* \"#utility.yul\":5557:5629   */\n      tag_178\n        /* \"#utility.yul\":5625:5627   */\n      0x20\n        /* \"#utility.yul\":5614:5623   */\n      dup4\n        /* \"#utility.yul\":5610:5628   */\n      add\n        /* \"#utility.yul\":5601:5607   */\n      dup7\n        /* \"#utility.yul\":5557:5629   */\n      tag_160\n      jump\t// in\n    tag_178:\n        /* \"#utility.yul\":5639:5711   */\n      tag_179\n        /* \"#utility.yul\":5707:5709   */\n      0x40\n        /* \"#utility.yul\":5696:5705   */\n      dup4\n        /* \"#utility.yul\":5692:5710   */\n      add\n        /* \"#utility.yul\":5683:5689   */\n      dup6\n        /* \"#utility.yul\":5639:5711   */\n      tag_160\n      jump\t// in\n    tag_179:\n        /* \"#utility.yul\":5721:5787   */\n      tag_180\n        /* \"#utility.yul\":5783:5785   */\n      0x60\n        /* \"#utility.yul\":5772:5781   */\n      dup4\n        /* \"#utility.yul\":5768:5786   */\n      add\n        /* \"#utility.yul\":5759:5765   */\n      dup5\n        /* \"#utility.yul\":5721:5787   */\n      tag_135\n      jump\t// in\n    tag_180:\n        /* \"#utility.yul\":5429:5794   */\n      swap6\n      swap5\n      pop\n      pop\n      pop\n      pop\n      pop\n      jump\t// out\n        /* \"#utility.yul\":5800:5969   */\n    tag_142:\n      0x00\n        /* \"#utility.yul\":5918:5924   */\n      dup3\n        /* \"#utility.yul\":5913:5916   */\n      dup3\n        /* \"#utility.yul\":5906:5925   */\n      mstore\n        /* \"#utility.yul\":5958:5962   */\n      0x20\n        /* \"#utility.yul\":5953:5956   */\n      dup3\n        /* \"#utility.yul\":5949:5963   */\n      add\n        /* \"#utility.yul\":5934:5963   */\n      swap1\n      pop\n        /* \"#utility.yul\":5896:5969   */\n      swap3\n      swap2\n      pop\n      pop\n      jump\t// out\n        /* \"#utility.yul\":5975:6160   */\n    tag_109:\n      0x00\n        /* \"#utility.yul\":6032:6052   */\n      tag_183\n        /* \"#utility.yul\":6050:6051   */\n      dup3\n        /* \"#utility.yul\":6032:6052   */\n      tag_163\n      jump\t// in\n    tag_183:\n        /* \"#utility.yul\":6027:6052   */\n      swap2\n      pop\n        /* \"#utility.yul\":6066:6086   */\n      tag_184\n        /* \"#utility.yul\":6084:6085   */\n      dup4\n        /* \"#utility.yul\":6066:6086   */\n      tag_163\n      jump\t// in\n    tag_184:\n        /* \"#utility.yul\":6061:6086   */\n      swap3\n      pop\n        /* \"#utility.yul\":6105:6106   */\n      dup3\n        /* \"#utility.yul\":6095:6097   */\n      tag_185\n      jumpi\n        /* \"#utility.yul\":6110:6128   */\n      tag_186\n      tag_187\n      jump\t// in\n    tag_186:\n        /* \"#utility.yul\":6095:6097   */\n    tag_185:\n        /* \"#utility.yul\":6152:6153   */\n      dup3\n        /* \"#utility.yul\":6149:6150   */\n      dup3\n        /* \"#utility.yul\":6145:6154   */\n      div\n        /* \"#utility.yul\":6140:6154   */\n      swap1\n      pop\n        /* \"#utility.yul\":6017:6160   */\n      swap3\n      swap2\n      pop\n      pop\n      jump\t// out\n        /* \"#utility.yul\":6166:6514   */\n    tag_107:\n      0x00\n        /* \"#utility.yul\":6229:6249   */\n      tag_189\n        /* \"#utility.yul\":6247:6248   */\n      dup3\n        /* \"#utility.yul\":6229:6249   */\n      tag_163\n      jump\t// in\n    tag_189:\n        /* \"#utility.yul\":6224:6249   */\n      swap2\n      pop\n        /* \"#utility.yul\":6263:6283   */\n      tag_190\n        /* \"#utility.yul\":6281:6282   */\n      dup4\n        /* \"#utility.yul\":6263:6283   */\n      tag_163\n      jump\t// in\n    tag_190:\n        /* \"#utility.yul\":6258:6283   */\n      swap3\n      pop\n        /* \"#utility.yul\":6451:6452   */\n      dup2\n        /* \"#utility.yul\":6383:6449   */\n      0xffffffffffffffffffffffffffffffffffffffffffffffffffffffffffffffff\n        /* \"#utility.yul\":6379:6453   */\n      div\n        /* \"#utility.yul\":6376:6377   */\n      dup4\n        /* \"#utility.yul\":6373:6454   */\n      gt\n        /* \"#utility.yul\":6368:6369   */\n      dup3\n        /* \"#utility.yul\":6361:6370   */\n      iszero\n        /* \"#utility.yul\":6354:6371   */\n      iszero\n        /* \"#utility.yul\":6350:6455   */\n      and\n        /* \"#utility.yul\":6347:6349   */\n      iszero\n      tag_191\n      jumpi\n        /* \"#utility.yul\":6458:6476   */\n      tag_192\n      tag_193\n      jump\t// in\n    tag_192:\n        /* \"#utility.yul\":6347:6349   */\n    tag_191:\n        /* \"#utility.yul\":6506:6507   */\n      dup3\n        /* \"#utility.yul\":6503:6504   */\n      dup3\n        /* \"#utility.yul\":6499:6508   */\n      mul\n        /* \"#utility.yul\":6488:6508   */\n      swap1\n      pop\n        /* \"#utility.yul\":6214:6514   */\n      swap3\n      swap2\n      pop\n      pop\n      jump\t// out\n        /* \"#utility.yul\":6520:6711   */\n    tag_111:\n      0x00\n        /* \"#utility.yul\":6580:6600   */\n      tag_195\n        /* \"#utility.yul\":6598:6599   */\n      dup3\n        /* \"#utility.yul\":6580:6600   */\n      tag_163\n      jump\t// in\n    tag_195:\n        /* \"#utility.yul\":6575:6600   */\n      swap2\n      pop\n        /* \"#utility.yul\":6614:6634   */\n      tag_196\n        /* \"#utility.yul\":6632:6633   */\n      dup4\n        /* \"#utility.yul\":6614:6634   */\n      tag_163\n      jump\t// in\n    tag_196:\n        /* \"#utility.yul\":6609:6634   */\n      swap3\n      pop\n        /* \"#utility.yul\":6653:6654   */\n      dup3\n        /* \"#utility.yul\":6650:6651   */\n      dup3\n        /* \"#utility.yul\":6647:6655   */\n      lt\n        /* \"#utility.yul\":6644:6646   */\n      iszero\n      tag_197\n      jumpi\n        /* \"#utility.yul\":6658:6676   */\n      tag_198\n      tag_193\n      jump\t// in\n    tag_198:\n        /* \"#utility.yul\":6644:6646   */\n    tag_197:\n        /* \"#utility.yul\":6703:6704   */\n      dup3\n        /* \"#utility.yul\":6700:6701   */\n      dup3\n        /* \"#utility.yul\":6696:6705   */\n      sub\n        /* \"#utility.yul\":6688:6705   */\n      swap1\n      pop\n        /* \"#utility.yul\":6565:6711   */\n      swap3\n      swap2\n      pop\n      pop\n      jump\t// out\n        /* \"#utility.yul\":6717:6813   */\n    tag_134:\n      0x00\n        /* \"#utility.yul\":6783:6807   */\n      tag_200\n        /* \"#utility.yul\":6801:6806   */\n      dup3\n        /* \"#utility.yul\":6783:6807   */\n      tag_201\n      jump\t// in\n    tag_200:\n        /* \"#utility.yul\":6772:6807   */\n      swap1\n      pop\n        /* \"#utility.yul\":6762:6813   */\n      swap2\n      swap1\n      pop\n      jump\t// out\n        /* \"#utility.yul\":6819:6909   */\n    tag_138:\n      0x00\n        /* \"#utility.yul\":6896:6901   */\n      dup2\n        /* \"#utility.yul\":6889:6902   */\n      iszero\n        /* \"#utility.yul\":6882:6903   */\n      iszero\n        /* \"#utility.yul\":6871:6903   */\n      swap1\n      pop\n        /* \"#utility.yul\":6861:6909   */\n      swap2\n      swap1\n      pop\n      jump\t// out\n        /* \"#utility.yul\":6915:7041   */\n    tag_201:\n      0x00\n        /* \"#utility.yul\":6992:7034   */\n      0xffffffffffffffffffffffffffffffffffffffff\n        /* \"#utility.yul\":6985:6990   */\n      dup3\n        /* \"#utility.yul\":6981:7035   */\n      and\n        /* \"#utility.yul\":6970:7035   */\n      swap1\n      pop\n        /* \"#utility.yul\":6960:7041   */\n      swap2\n      swap1\n      pop\n      jump\t// out\n        /* \"#utility.yul\":7047:7124   */\n    tag_163:\n      0x00\n        /* \"#utility.yul\":7113:7118   */\n      dup2\n        /* \"#utility.yul\":7102:7118   */\n      swap1\n      pop\n        /* \"#utility.yul\":7092:7124   */\n      swap2\n      swap1\n      pop\n      jump\t// out\n        /* \"#utility.yul\":7130:7310   */\n    tag_193:\n        /* \"#utility.yul\":7178:7255   */\n      0x4e487b7100000000000000000000000000000000000000000000000000000000\n        /* \"#utility.yul\":7175:7176   */\n      0x00\n        /* \"#utility.yul\":7168:7256   */\n      mstore\n        /* \"#utility.yul\":7275:7279   */\n      0x11\n        /* \"#utility.yul\":7272:7273   */\n      0x04\n        /* \"#utility.yul\":7265:7280   */\n      mstore\n        /* \"#utility.yul\":7299:7303   */\n      0x24\n        /* \"#utility.yul\":7296:7297   */\n      0x00\n        /* \"#utility.yul\":7289:7304   */\n      revert\n        /* \"#utility.yul\":7316:7496   */\n    tag_187:\n        /* \"#utility.yul\":7364:7441   */\n      0x4e487b7100000000000000000000000000000000000000000000000000000000\n        /* \"#utility.yul\":7361:7362   */\n      0x00\n        /* \"#utility.yul\":7354:7442   */\n      mstore\n        /* \"#utility.yul\":7461:7465   */\n      0x12\n        /* \"#utility.yul\":7458:7459   */\n      0x04\n        /* \"#utility.yul\":7451:7466   */\n      mstore\n        /* \"#utility.yul\":7485:7489   */\n      0x24\n        /* \"#utility.yul\":7482:7483   */\n      0x00\n        /* \"#utility.yul\":7475:7490   */\n      revert\n        /* \"#utility.yul\":7502:7671   */\n    tag_144:\n        /* \"#utility.yul\":7642:7663   */\n      0x746f6b656e20616c726561647920657869737400000000000000000000000000\n        /* \"#utility.yul\":7638:7639   */\n      0x00\n        /* \"#utility.yul\":7630:7636   */\n      dup3\n        /* \"#utility.yul\":7626:7640   */\n      add\n        /* \"#utility.yul\":7619:7664   */\n      mstore\n        /* \"#utility.yul\":7608:7671   */\n      pop\n      jump\t// out\n        /* \"#utility.yul\":7677:7846   */\n    tag_149:\n        /* \"#utility.yul\":7817:7838   */\n      0x746f6b656e20646f65736e277420657869737400000000000000000000000000\n        /* \"#utility.yul\":7813:7814   */\n      0x00\n        /* \"#utility.yul\":7805:7811   */\n      dup3\n        /* \"#utility.yul\":7801:7815   */\n      add\n        /* \"#utility.yul\":7794:7839   */\n      mstore\n        /* \"#utility.yul\":7783:7846   */\n      pop\n      jump\t// out\n        /* \"#utility.yul\":7852:8072   */\n    tag_154:\n        /* \"#utility.yul\":7992:8026   */\n      0x4f6e6c7920636f6e74726163742773206f776e65722063616e20646f20746861\n        /* \"#utility.yul\":7988:7989   */\n      0x00\n        /* \"#utility.yul\":7980:7986   */\n      dup3\n        /* \"#utility.yul\":7976:7990   */\n      add\n        /* \"#utility.yul\":7969:8027   */\n      mstore\n        /* \"#utility.yul\":8061:8064   */\n      0x7400000000000000000000000000000000000000000000000000000000000000\n        /* \"#utility.yul\":8056:8058   */\n      0x20\n        /* \"#utility.yul\":8048:8054   */\n      dup3\n        /* \"#utility.yul\":8044:8059   */\n      add\n        /* \"#utility.yul\":8037:8065   */\n      mstore\n        /* \"#utility.yul\":7958:8072   */\n      pop\n      jump\t// out\n        /* \"#utility.yul\":8078:8254   */\n    tag_159:\n        /* \"#utility.yul\":8218:8246   */\n      0x50726963652063616e6e6f7420626520657175616c20746f2030000000000000\n        /* \"#utility.yul\":8214:8215   */\n      0x00\n        /* \"#utility.yul\":8206:8212   */\n      dup3\n        /* \"#utility.yul\":8202:8216   */\n      add\n        /* \"#utility.yul\":8195:8247   */\n      mstore\n        /* \"#utility.yul\":8184:8254   */\n      pop\n      jump\t// out\n        /* \"#utility.yul\":8260:8382   */\n    tag_116:\n        /* \"#utility.yul\":8333:8357   */\n      tag_212\n        /* \"#utility.yul\":8351:8356   */\n      dup2\n        /* \"#utility.yul\":8333:8357   */\n      tag_134\n      jump\t// in\n    tag_212:\n        /* \"#utility.yul\":8326:8331   */\n      dup2\n        /* \"#utility.yul\":8323:8358   */\n      eq\n        /* \"#utility.yul\":8313:8315   */\n      tag_213\n      jumpi\n        /* \"#utility.yul\":8372:8373   */\n      0x00\n        /* \"#utility.yul\":8369:8370   */\n      dup1\n        /* \"#utility.yul\":8362:8374   */\n      revert\n        /* \"#utility.yul\":8313:8315   */\n    tag_213:\n        /* \"#utility.yul\":8303:8382   */\n      pop\n      jump\t// out\n        /* \"#utility.yul\":8388:8510   */\n    tag_120:\n        /* \"#utility.yul\":8461:8485   */\n      tag_215\n        /* \"#utility.yul\":8479:8484   */\n      dup2\n        /* \"#utility.yul\":8461:8485   */\n      tag_163\n      jump\t// in\n    tag_215:\n        /* \"#utility.yul\":8454:8459   */\n      dup2\n        /* \"#utility.yul\":8451:8486   */\n      eq\n        /* \"#utility.yul\":8441:8443   */\n      tag_216\n      jumpi\n        /* \"#utility.yul\":8500:8501   */\n      0x00\n        /* \"#utility.yul\":8497:8498   */\n      dup1\n        /* \"#utility.yul\":8490:8502   */\n      revert\n        /* \"#utility.yul\":8441:8443   */\n    tag_216:\n        /* \"#utility.yul\":8431:8510   */\n      pop\n      jump\t// out\n\n    auxdata: 0xa26469706673582212202c24b4d24e2cffae45da191ae08a455eaaff5615823eb20964c691c897a7a6be64736f6c63430008010033\n}\n",
				"bytecode": {
					"linkReferences": {},
					"object": "60806040523480156200001157600080fd5b5033600260006101000a81548173ffffffffffffffffffffffffffffffffffffffff021916908373ffffffffffffffffffffffffffffffffffffffff1602179055506040518060400160405280600b81526020017f4765656b20546f6b656e7300000000000000000000000000000000000000000081525060009080519060200190620000a0929190620000f5565b506040518060400160405280600581526020017f4745454b5400000000000000000000000000000000000000000000000000000081525060019080519060200190620000ee929190620000f5565b506200020a565b8280546200010390620001a5565b90600052602060002090601f01602090048101928262000127576000855562000173565b82601f106200014257805160ff191683800117855562000173565b8280016001018555821562000173579182015b828111156200017257825182559160200191906001019062000155565b5b50905062000182919062000186565b5090565b5b80821115620001a157600081600090555060010162000187565b5090565b60006002820490506001821680620001be57607f821691505b60208210811415620001d557620001d4620001db565b5b50919050565b7f4e487b7100000000000000000000000000000000000000000000000000000000600052602260045260246000fd5b611067806200021a6000396000f3fe60806040526004361061009c5760003560e01c806391b6be9a1161006457806391b6be9a146101ac578063adae08dd146101c8578063bfb231d214610205578063c392189514610245578063d48644bd14610282578063ea0ff14a146102bf5761009c565b80631a4d96cd146100a157806329de6246146100de5780634c389e65146101075780636352211e1461013257806370a082311461016f575b600080fd5b3480156100ad57600080fd5b506100c860048036038101906100c39190610baa565b6102ea565b6040516100d59190610cc8565b60405180910390f35b3480156100ea57600080fd5b5061010560048036038101906101009190610baa565b61031d565b005b34801561011357600080fd5b5061011c6103b7565b6040516101299190610d63565b60405180910390f35b34801561013e57600080fd5b5061015960048036038101906101549190610baa565b6103bd565b6040516101669190610cc8565b60405180910390f35b34801561017b57600080fd5b5061019660048036038101906101919190610b81565b6103fa565b6040516101a39190610d63565b60405180910390f35b6101c660048036038101906101c19190610baa565b610443565b005b3480156101d457600080fd5b506101ef60048036038101906101ea9190610bd3565b610815565b6040516101fc9190610d63565b60405180910390f35b34801561021157600080fd5b5061022c60048036038101906102279190610baa565b610a92565b60405161023c9493929190610d7e565b60405180910390f35b34801561025157600080fd5b5061026c60048036038101906102679190610b81565b610adf565b6040516102799190610d63565b60405180910390f35b34801561028e57600080fd5b506102a960048036038101906102a49190610baa565b610af7565b6040516102b69190610d63565b60405180910390f35b3480156102cb57600080fd5b506102d4610b0f565b6040516102e19190610d63565b60405180910390f35b60066020528060005260406000206000915054906101000a900473ffffffffffffffffffffffffffffffffffffffff1681565b600260009054906101000a900473ffffffffffffffffffffffffffffffffffffffff1673ffffffffffffffffffffffffffffffffffffffff163373ffffffffffffffffffffffffffffffffffffffff16146103ad576040517f08c379a00000000000000000000000000000000000000000000000000000000081526004016103a490610d23565b60405180910390fd5b8060058190555050565b60045481565b60006006600083815260200190815260200160002060009054906101000a900473ffffffffffffffffffffffffffffffffffffffff169050919050565b6000600760008373ffffffffffffffffffffffffffffffffffffffff1673ffffffffffffffffffffffffffffffffffffffff168152602001908152602001600020549050919050565b6003818154811061047d577f4e487b7100000000000000000000000000000000000000000000000000000000600052603260045260246000fd5b906000526020600020906004020160010154341461049a57600080fd5b600073ffffffffffffffffffffffffffffffffffffffff166006600083815260200190815260200160002060009054906101000a900473ffffffffffffffffffffffffffffffffffffffff1673ffffffffffffffffffffffffffffffffffffffff16141561053d576040517f08c379a000000000000000000000000000000000000000000000000000000000815260040161053490610d03565b60405180910390fd5b60006006600083815260200190815260200160002060009054906101000a900473ffffffffffffffffffffffffffffffffffffffff1690506000600383815481106105b1577f4e487b7100000000000000000000000000000000000000000000000000000000600052603260045260246000fd5b9060005260206000209060040201905060008160030160006101000a81548160ff021916908315150217905550336006600085815260200190815260200160002060006101000a81548173ffffffffffffffffffffffffffffffffffffffff021916908373ffffffffffffffffffffffffffffffffffffffff160217905550600760008373ffffffffffffffffffffffffffffffffffffffff1673ffffffffffffffffffffffffffffffffffffffff1681526020019081526020016000206000815480929190600190039190505550600760003373ffffffffffffffffffffffffffffffffffffffff1673ffffffffffffffffffffffffffffffffffffffff16815260200190815260200160002060008154809291906001019190505550600460008154809291906001900391905055506000806106f134600554610b19565b8092508193505050600260009054906101000a900473ffffffffffffffffffffffffffffffffffffffff1673ffffffffffffffffffffffffffffffffffffffff166108fc839081150290604051600060405180830381858888f19350505050158015610761573d6000803e3d6000fd5b508373ffffffffffffffffffffffffffffffffffffffff166108fc829081150290604051600060405180830381858888f193505050501580156107a8573d6000803e3d6000fd5b503373ffffffffffffffffffffffffffffffffffffffff168473ffffffffffffffffffffffffffffffffffffffff167fddf252ad1be2c89b69c2b068fc378daa952ba7f163c4a11628f55a4df523b3ef876040516108069190610d63565b60405180910390a35050505050565b6000808311610859576040517f08c379a000000000000000000000000000000000000000000000000000000000815260040161085090610d43565b60405180910390fd5b60006003805490509050600073ffffffffffffffffffffffffffffffffffffffff166006600083815260200190815260200160002060009054906101000a900473ffffffffffffffffffffffffffffffffffffffff1673ffffffffffffffffffffffffffffffffffffffff1614610905576040517f08c379a00000000000000000000000000000000000000000000000000000000081526004016108fc90610ce3565b60405180910390fd5b60405180608001604052808281526020018581526020018481526020016001151581525060038281548110610963577f4e487b7100000000000000000000000000000000000000000000000000000000600052603260045260246000fd5b906000526020600020906004020160008201518160000155602082015181600101556040820151816002015560608201518160030160006101000a81548160ff021916908315150217905550905050336006600083815260200190815260200160002060006101000a81548173ffffffffffffffffffffffffffffffffffffffff021916908373ffffffffffffffffffffffffffffffffffffffff160217905550600760003373ffffffffffffffffffffffffffffffffffffffff1673ffffffffffffffffffffffffffffffffffffffff1681526020019081526020016000206000815480929190600101919050555060086000848152602001908152602001600020600081548092919060010191905055506004600081548092919060010191905055508091505092915050565b60038181548110610aa257600080fd5b90600052602060002090600402016000915090508060000154908060010154908060020154908060030160009054906101000a900460ff16905084565b60076020528060005260406000206000915090505481565b60086020528060005260406000206000915090505481565b6000600554905090565b600080600060648585610b2c9190610e05565b610b369190610dd4565b905060008186610b469190610e5f565b905081819350935050509250929050565b600081359050610b6681611003565b92915050565b600081359050610b7b8161101a565b92915050565b600060208284031215610b9357600080fd5b6000610ba184828501610b57565b91505092915050565b600060208284031215610bbc57600080fd5b6000610bca84828501610b6c565b91505092915050565b60008060408385031215610be657600080fd5b6000610bf485828601610b6c565b9250506020610c0585828601610b6c565b9150509250929050565b610c1881610e93565b82525050565b610c2781610ea5565b82525050565b6000610c3a601383610dc3565b9150610c4582610f39565b602082019050919050565b6000610c5d601383610dc3565b9150610c6882610f62565b602082019050919050565b6000610c80602183610dc3565b9150610c8b82610f8b565b604082019050919050565b6000610ca3601a83610dc3565b9150610cae82610fda565b602082019050919050565b610cc281610ed1565b82525050565b6000602082019050610cdd6000830184610c0f565b92915050565b60006020820190508181036000830152610cfc81610c2d565b9050919050565b60006020820190508181036000830152610d1c81610c50565b9050919050565b60006020820190508181036000830152610d3c81610c73565b9050919050565b60006020820190508181036000830152610d5c81610c96565b9050919050565b6000602082019050610d786000830184610cb9565b92915050565b6000608082019050610d936000830187610cb9565b610da06020830186610cb9565b610dad6040830185610cb9565b610dba6060830184610c1e565b95945050505050565b600082825260208201905092915050565b6000610ddf82610ed1565b9150610dea83610ed1565b925082610dfa57610df9610f0a565b5b828204905092915050565b6000610e1082610ed1565b9150610e1b83610ed1565b9250817fffffffffffffffffffffffffffffffffffffffffffffffffffffffffffffffff0483118215151615610e5457610e53610edb565b5b828202905092915050565b6000610e6a82610ed1565b9150610e7583610ed1565b925082821015610e8857610e87610edb565b5b828203905092915050565b6000610e9e82610eb1565b9050919050565b60008115159050919050565b600073ffffffffffffffffffffffffffffffffffffffff82169050919050565b6000819050919050565b7f4e487b7100000000000000000000000000000000000000000000000000000000600052601160045260246000fd5b7f4e487b7100000000000000000000000000000000000000000000000000000000600052601260045260246000fd5b7f746f6b656e20616c726561647920657869737400000000000000000000000000600082015250565b7f746f6b656e20646f65736e277420657869737400000000000000000000000000600082015250565b7f4f6e6c7920636f6e74726163742773206f776e65722063616e20646f2074686160008201527f7400000000000000000000000000000000000000000000000000000000000000602082015250565b7f50726963652063616e6e6f7420626520657175616c20746f2030000000000000600082015250565b61100c81610e93565b811461101757600080fd5b50565b61102381610ed1565b811461102e57600080fd5b5056fea26469706673582212202c24b4d24e2cffae45da191ae08a455eaaff5615823eb20964c691c897a7a6be64736f6c63430008010033",
					"opcodes": "PUSH1 0x80 PUSH1 0x40 MSTORE CALLVALUE DUP1 ISZERO PUSH3 0x11 JUMPI PUSH1 0x0 DUP1 REVERT JUMPDEST POP CALLER PUSH1 0x2 PUSH1 0x0 PUSH2 0x100 EXP DUP2 SLOAD DUP2 PUSH20 0xFFFFFFFFFFFFFFFFFFFFFFFFFFFFFFFFFFFFFFFF MUL NOT AND SWAP1 DUP4 PUSH20 0xFFFFFFFFFFFFFFFFFFFFFFFFFFFFFFFFFFFFFFFF AND MUL OR SWAP1 SSTORE POP PUSH1 0x40 MLOAD DUP1 PUSH1 0x40 ADD PUSH1 0x40 MSTORE DUP1 PUSH1 0xB DUP2 MSTORE PUSH1 0x20 ADD PUSH32 0x4765656B20546F6B656E73000000000000000000000000000000000000000000 DUP2 MSTORE POP PUSH1 0x0 SWAP1 DUP1 MLOAD SWAP1 PUSH1 0x20 ADD SWAP1 PUSH3 0xA0 SWAP3 SWAP2 SWAP1 PUSH3 0xF5 JUMP JUMPDEST POP PUSH1 0x40 MLOAD DUP1 PUSH1 0x40 ADD PUSH1 0x40 MSTORE DUP1 PUSH1 0x5 DUP2 MSTORE PUSH1 0x20 ADD PUSH32 0x4745454B54000000000000000000000000000000000000000000000000000000 DUP2 MSTORE POP PUSH1 0x1 SWAP1 DUP1 MLOAD SWAP1 PUSH1 0x20 ADD SWAP1 PUSH3 0xEE SWAP3 SWAP2 SWAP1 PUSH3 0xF5 JUMP JUMPDEST POP PUSH3 0x20A JUMP JUMPDEST DUP3 DUP1 SLOAD PUSH3 0x103 SWAP1 PUSH3 0x1A5 JUMP JUMPDEST SWAP1 PUSH1 0x0 MSTORE PUSH1 0x20 PUSH1 0x0 KECCAK256 SWAP1 PUSH1 0x1F ADD PUSH1 0x20 SWAP1 DIV DUP2 ADD SWAP3 DUP3 PUSH3 0x127 JUMPI PUSH1 0x0 DUP6 SSTORE PUSH3 0x173 JUMP JUMPDEST DUP3 PUSH1 0x1F LT PUSH3 0x142 JUMPI DUP1 MLOAD PUSH1 0xFF NOT AND DUP4 DUP1 ADD OR DUP6 SSTORE PUSH3 0x173 JUMP JUMPDEST DUP3 DUP1 ADD PUSH1 0x1 ADD DUP6 SSTORE DUP3 ISZERO PUSH3 0x173 JUMPI SWAP2 DUP3 ADD JUMPDEST DUP3 DUP2 GT ISZERO PUSH3 0x172 JUMPI DUP3 MLOAD DUP3 SSTORE SWAP2 PUSH1 0x20 ADD SWAP2 SWAP1 PUSH1 0x1 ADD SWAP1 PUSH3 0x155 JUMP JUMPDEST JUMPDEST POP SWAP1 POP PUSH3 0x182 SWAP2 SWAP1 PUSH3 0x186 JUMP JUMPDEST POP SWAP1 JUMP JUMPDEST JUMPDEST DUP1 DUP3 GT ISZERO PUSH3 0x1A1 JUMPI PUSH1 0x0 DUP2 PUSH1 0x0 SWAP1 SSTORE POP PUSH1 0x1 ADD PUSH3 0x187 JUMP JUMPDEST POP SWAP1 JUMP JUMPDEST PUSH1 0x0 PUSH1 0x2 DUP3 DIV SWAP1 POP PUSH1 0x1 DUP3 AND DUP1 PUSH3 0x1BE JUMPI PUSH1 0x7F DUP3 AND SWAP2 POP JUMPDEST PUSH1 0x20 DUP3 LT DUP2 EQ ISZERO PUSH3 0x1D5 JUMPI PUSH3 0x1D4 PUSH3 0x1DB JUMP JUMPDEST JUMPDEST POP SWAP2 SWAP1 POP JUMP JUMPDEST PUSH32 0x4E487B7100000000000000000000000000000000000000000000000000000000 PUSH1 0x0 MSTORE PUSH1 0x22 PUSH1 0x4 MSTORE PUSH1 0x24 PUSH1 0x0 REVERT JUMPDEST PUSH2 0x1067 DUP1 PUSH3 0x21A PUSH1 0x0 CODECOPY PUSH1 0x0 RETURN INVALID PUSH1 0x80 PUSH1 0x40 MSTORE PUSH1 0x4 CALLDATASIZE LT PUSH2 0x9C JUMPI PUSH1 0x0 CALLDATALOAD PUSH1 0xE0 SHR DUP1 PUSH4 0x91B6BE9A GT PUSH2 0x64 JUMPI DUP1 PUSH4 0x91B6BE9A EQ PUSH2 0x1AC JUMPI DUP1 PUSH4 0xADAE08DD EQ PUSH2 0x1C8 JUMPI DUP1 PUSH4 0xBFB231D2 EQ PUSH2 0x205 JUMPI DUP1 PUSH4 0xC3921895 EQ PUSH2 0x245 JUMPI DUP1 PUSH4 0xD48644BD EQ PUSH2 0x282 JUMPI DUP1 PUSH4 0xEA0FF14A EQ PUSH2 0x2BF JUMPI PUSH2 0x9C JUMP JUMPDEST DUP1 PUSH4 0x1A4D96CD EQ PUSH2 0xA1 JUMPI DUP1 PUSH4 0x29DE6246 EQ PUSH2 0xDE JUMPI DUP1 PUSH4 0x4C389E65 EQ PUSH2 0x107 JUMPI DUP1 PUSH4 0x6352211E EQ PUSH2 0x132 JUMPI DUP1 PUSH4 0x70A08231 EQ PUSH2 0x16F JUMPI JUMPDEST PUSH1 0x0 DUP1 REVERT JUMPDEST CALLVALUE DUP1 ISZERO PUSH2 0xAD JUMPI PUSH1 0x0 DUP1 REVERT JUMPDEST POP PUSH2 0xC8 PUSH1 0x4 DUP1 CALLDATASIZE SUB DUP2 ADD SWAP1 PUSH2 0xC3 SWAP2 SWAP1 PUSH2 0xBAA JUMP JUMPDEST PUSH2 0x2EA JUMP JUMPDEST PUSH1 0x40 MLOAD PUSH2 0xD5 SWAP2 SWAP1 PUSH2 0xCC8 JUMP JUMPDEST PUSH1 0x40 MLOAD DUP1 SWAP2 SUB SWAP1 RETURN JUMPDEST CALLVALUE DUP1 ISZERO PUSH2 0xEA JUMPI PUSH1 0x0 DUP1 REVERT JUMPDEST POP PUSH2 0x105 PUSH1 0x4 DUP1 CALLDATASIZE SUB DUP2 ADD SWAP1 PUSH2 0x100 SWAP2 SWAP1 PUSH2 0xBAA JUMP JUMPDEST PUSH2 0x31D JUMP JUMPDEST STOP JUMPDEST CALLVALUE DUP1 ISZERO PUSH2 0x113 JUMPI PUSH1 0x0 DUP1 REVERT JUMPDEST POP PUSH2 0x11C PUSH2 0x3B7 JUMP JUMPDEST PUSH1 0x40 MLOAD PUSH2 0x129 SWAP2 SWAP1 PUSH2 0xD63 JUMP JUMPDEST PUSH1 0x40 MLOAD DUP1 SWAP2 SUB SWAP1 RETURN JUMPDEST CALLVALUE DUP1 ISZERO PUSH2 0x13E JUMPI PUSH1 0x0 DUP1 REVERT JUMPDEST POP PUSH2 0x159 PUSH1 0x4 DUP1 CALLDATASIZE SUB DUP2 ADD SWAP1 PUSH2 0x154 SWAP2 SWAP1 PUSH2 0xBAA JUMP JUMPDEST PUSH2 0x3BD JUMP JUMPDEST PUSH1 0x40 MLOAD PUSH2 0x166 SWAP2 SWAP1 PUSH2 0xCC8 JUMP JUMPDEST PUSH1 0x40 MLOAD DUP1 SWAP2 SUB SWAP1 RETURN JUMPDEST CALLVALUE DUP1 ISZERO PUSH2 0x17B JUMPI PUSH1 0x0 DUP1 REVERT JUMPDEST POP PUSH2 0x196 PUSH1 0x4 DUP1 CALLDATASIZE SUB DUP2 ADD SWAP1 PUSH2 0x191 SWAP2 SWAP1 PUSH2 0xB81 JUMP JUMPDEST PUSH2 0x3FA JUMP JUMPDEST PUSH1 0x40 MLOAD PUSH2 0x1A3 SWAP2 SWAP1 PUSH2 0xD63 JUMP JUMPDEST PUSH1 0x40 MLOAD DUP1 SWAP2 SUB SWAP1 RETURN JUMPDEST PUSH2 0x1C6 PUSH1 0x4 DUP1 CALLDATASIZE SUB DUP2 ADD SWAP1 PUSH2 0x1C1 SWAP2 SWAP1 PUSH2 0xBAA JUMP JUMPDEST PUSH2 0x443 JUMP JUMPDEST STOP JUMPDEST CALLVALUE DUP1 ISZERO PUSH2 0x1D4 JUMPI PUSH1 0x0 DUP1 REVERT JUMPDEST POP PUSH2 0x1EF PUSH1 0x4 DUP1 CALLDATASIZE SUB DUP2 ADD SWAP1 PUSH2 0x1EA SWAP2 SWAP1 PUSH2 0xBD3 JUMP JUMPDEST PUSH2 0x815 JUMP JUMPDEST PUSH1 0x40 MLOAD PUSH2 0x1FC SWAP2 SWAP1 PUSH2 0xD63 JUMP JUMPDEST PUSH1 0x40 MLOAD DUP1 SWAP2 SUB SWAP1 RETURN JUMPDEST CALLVALUE DUP1 ISZERO PUSH2 0x211 JUMPI PUSH1 0x0 DUP1 REVERT JUMPDEST POP PUSH2 0x22C PUSH1 0x4 DUP1 CALLDATASIZE SUB DUP2 ADD SWAP1 PUSH2 0x227 SWAP2 SWAP1 PUSH2 0xBAA JUMP JUMPDEST PUSH2 0xA92 JUMP JUMPDEST PUSH1 0x40 MLOAD PUSH2 0x23C SWAP5 SWAP4 SWAP3 SWAP2 SWAP1 PUSH2 0xD7E JUMP JUMPDEST PUSH1 0x40 MLOAD DUP1 SWAP2 SUB SWAP1 RETURN JUMPDEST CALLVALUE DUP1 ISZERO PUSH2 0x251 JUMPI PUSH1 0x0 DUP1 REVERT JUMPDEST POP PUSH2 0x26C PUSH1 0x4 DUP1 CALLDATASIZE SUB DUP2 ADD SWAP1 PUSH2 0x267 SWAP2 SWAP1 PUSH2 0xB81 JUMP JUMPDEST PUSH2 0xADF JUMP JUMPDEST PUSH1 0x40 MLOAD PUSH2 0x279 SWAP2 SWAP1 PUSH2 0xD63 JUMP JUMPDEST PUSH1 0x40 MLOAD DUP1 SWAP2 SUB SWAP1 RETURN JUMPDEST CALLVALUE DUP1 ISZERO PUSH2 0x28E JUMPI PUSH1 0x0 DUP1 REVERT JUMPDEST POP PUSH2 0x2A9 PUSH1 0x4 DUP1 CALLDATASIZE SUB DUP2 ADD SWAP1 PUSH2 0x2A4 SWAP2 SWAP1 PUSH2 0xBAA JUMP JUMPDEST PUSH2 0xAF7 JUMP JUMPDEST PUSH1 0x40 MLOAD PUSH2 0x2B6 SWAP2 SWAP1 PUSH2 0xD63 JUMP JUMPDEST PUSH1 0x40 MLOAD DUP1 SWAP2 SUB SWAP1 RETURN JUMPDEST CALLVALUE DUP1 ISZERO PUSH2 0x2CB JUMPI PUSH1 0x0 DUP1 REVERT JUMPDEST POP PUSH2 0x2D4 PUSH2 0xB0F JUMP JUMPDEST PUSH1 0x40 MLOAD PUSH2 0x2E1 SWAP2 SWAP1 PUSH2 0xD63 JUMP JUMPDEST PUSH1 0x40 MLOAD DUP1 SWAP2 SUB SWAP1 RETURN JUMPDEST PUSH1 0x6 PUSH1 0x20 MSTORE DUP1 PUSH1 0x0 MSTORE PUSH1 0x40 PUSH1 0x0 KECCAK256 PUSH1 0x0 SWAP2 POP SLOAD SWAP1 PUSH2 0x100 EXP SWAP1 DIV PUSH20 0xFFFFFFFFFFFFFFFFFFFFFFFFFFFFFFFFFFFFFFFF AND DUP2 JUMP JUMPDEST PUSH1 0x2 PUSH1 0x0 SWAP1 SLOAD SWAP1 PUSH2 0x100 EXP SWAP1 DIV PUSH20 0xFFFFFFFFFFFFFFFFFFFFFFFFFFFFFFFFFFFFFFFF AND PUSH20 0xFFFFFFFFFFFFFFFFFFFFFFFFFFFFFFFFFFFFFFFF AND CALLER PUSH20 0xFFFFFFFFFFFFFFFFFFFFFFFFFFFFFFFFFFFFFFFF AND EQ PUSH2 0x3AD JUMPI PUSH1 0x40 MLOAD PUSH32 0x8C379A000000000000000000000000000000000000000000000000000000000 DUP2 MSTORE PUSH1 0x4 ADD PUSH2 0x3A4 SWAP1 PUSH2 0xD23 JUMP JUMPDEST PUSH1 0x40 MLOAD DUP1 SWAP2 SUB SWAP1 REVERT JUMPDEST DUP1 PUSH1 0x5 DUP2 SWAP1 SSTORE POP POP JUMP JUMPDEST PUSH1 0x4 SLOAD DUP2 JUMP JUMPDEST PUSH1 0x0 PUSH1 0x6 PUSH1 0x0 DUP4 DUP2 MSTORE PUSH1 0x20 ADD SWAP1 DUP2 MSTORE PUSH1 0x20 ADD PUSH1 0x0 KECCAK256 PUSH1 0x0 SWAP1 SLOAD SWAP1 PUSH2 0x100 EXP SWAP1 DIV PUSH20 0xFFFFFFFFFFFFFFFFFFFFFFFFFFFFFFFFFFFFFFFF AND SWAP1 POP SWAP2 SWAP1 POP JUMP JUMPDEST PUSH1 0x0 PUSH1 0x7 PUSH1 0x0 DUP4 PUSH20 0xFFFFFFFFFFFFFFFFFFFFFFFFFFFFFFFFFFFFFFFF AND PUSH20 0xFFFFFFFFFFFFFFFFFFFFFFFFFFFFFFFFFFFFFFFF AND DUP2 MSTORE PUSH1 0x20 ADD SWAP1 DUP2 MSTORE PUSH1 0x20 ADD PUSH1 0x0 KECCAK256 SLOAD SWAP1 POP SWAP2 SWAP1 POP JUMP JUMPDEST PUSH1 0x3 DUP2 DUP2 SLOAD DUP2 LT PUSH2 0x47D JUMPI PUSH32 0x4E487B7100000000000000000000000000000000000000000000000000000000 PUSH1 0x0 MSTORE PUSH1 0x32 PUSH1 0x4 MSTORE PUSH1 0x24 PUSH1 0x0 REVERT JUMPDEST SWAP1 PUSH1 0x0 MSTORE PUSH1 0x20 PUSH1 0x0 KECCAK256 SWAP1 PUSH1 0x4 MUL ADD PUSH1 0x1 ADD SLOAD CALLVALUE EQ PUSH2 0x49A JUMPI PUSH1 0x0 DUP1 REVERT JUMPDEST PUSH1 0x0 PUSH20 0xFFFFFFFFFFFFFFFFFFFFFFFFFFFFFFFFFFFFFFFF AND PUSH1 0x6 PUSH1 0x0 DUP4 DUP2 MSTORE PUSH1 0x20 ADD SWAP1 DUP2 MSTORE PUSH1 0x20 ADD PUSH1 0x0 KECCAK256 PUSH1 0x0 SWAP1 SLOAD SWAP1 PUSH2 0x100 EXP SWAP1 DIV PUSH20 0xFFFFFFFFFFFFFFFFFFFFFFFFFFFFFFFFFFFFFFFF AND PUSH20 0xFFFFFFFFFFFFFFFFFFFFFFFFFFFFFFFFFFFFFFFF AND EQ ISZERO PUSH2 0x53D JUMPI PUSH1 0x40 MLOAD PUSH32 0x8C379A000000000000000000000000000000000000000000000000000000000 DUP2 MSTORE PUSH1 0x4 ADD PUSH2 0x534 SWAP1 PUSH2 0xD03 JUMP JUMPDEST PUSH1 0x40 MLOAD DUP1 SWAP2 SUB SWAP1 REVERT JUMPDEST PUSH1 0x0 PUSH1 0x6 PUSH1 0x0 DUP4 DUP2 MSTORE PUSH1 0x20 ADD SWAP1 DUP2 MSTORE PUSH1 0x20 ADD PUSH1 0x0 KECCAK256 PUSH1 0x0 SWAP1 SLOAD SWAP1 PUSH2 0x100 EXP SWAP1 DIV PUSH20 0xFFFFFFFFFFFFFFFFFFFFFFFFFFFFFFFFFFFFFFFF AND SWAP1 POP PUSH1 0x0 PUSH1 0x3 DUP4 DUP2 SLOAD DUP2 LT PUSH2 0x5B1 JUMPI PUSH32 0x4E487B7100000000000000000000000000000000000000000000000000000000 PUSH1 0x0 MSTORE PUSH1 0x32 PUSH1 0x4 MSTORE PUSH1 0x24 PUSH1 0x0 REVERT JUMPDEST SWAP1 PUSH1 0x0 MSTORE PUSH1 0x20 PUSH1 0x0 KECCAK256 SWAP1 PUSH1 0x4 MUL ADD SWAP1 POP PUSH1 0x0 DUP2 PUSH1 0x3 ADD PUSH1 0x0 PUSH2 0x100 EXP DUP2 SLOAD DUP2 PUSH1 0xFF MUL NOT AND SWAP1 DUP4 ISZERO ISZERO MUL OR SWAP1 SSTORE POP CALLER PUSH1 0x6 PUSH1 0x0 DUP6 DUP2 MSTORE PUSH1 0x20 ADD SWAP1 DUP2 MSTORE PUSH1 0x20 ADD PUSH1 0x0 KECCAK256 PUSH1 0x0 PUSH2 0x100 EXP DUP2 SLOAD DUP2 PUSH20 0xFFFFFFFFFFFFFFFFFFFFFFFFFFFFFFFFFFFFFFFF MUL NOT AND SWAP1 DUP4 PUSH20 0xFFFFFFFFFFFFFFFFFFFFFFFFFFFFFFFFFFFFFFFF AND MUL OR SWAP1 SSTORE POP PUSH1 0x7 PUSH1 0x0 DUP4 PUSH20 0xFFFFFFFFFFFFFFFFFFFFFFFFFFFFFFFFFFFFFFFF AND PUSH20 0xFFFFFFFFFFFFFFFFFFFFFFFFFFFFFFFFFFFFFFFF AND DUP2 MSTORE PUSH1 0x20 ADD SWAP1 DUP2 MSTORE PUSH1 0x20 ADD PUSH1 0x0 KECCAK256 PUSH1 0x0 DUP2 SLOAD DUP1 SWAP3 SWAP2 SWAP1 PUSH1 0x1 SWAP1 SUB SWAP2 SWAP1 POP SSTORE POP PUSH1 0x7 PUSH1 0x0 CALLER PUSH20 0xFFFFFFFFFFFFFFFFFFFFFFFFFFFFFFFFFFFFFFFF AND PUSH20 0xFFFFFFFFFFFFFFFFFFFFFFFFFFFFFFFFFFFFFFFF AND DUP2 MSTORE PUSH1 0x20 ADD SWAP1 DUP2 MSTORE PUSH1 0x20 ADD PUSH1 0x0 KECCAK256 PUSH1 0x0 DUP2 SLOAD DUP1 SWAP3 SWAP2 SWAP1 PUSH1 0x1 ADD SWAP2 SWAP1 POP SSTORE POP PUSH1 0x4 PUSH1 0x0 DUP2 SLOAD DUP1 SWAP3 SWAP2 SWAP1 PUSH1 0x1 SWAP1 SUB SWAP2 SWAP1 POP SSTORE POP PUSH1 0x0 DUP1 PUSH2 0x6F1 CALLVALUE PUSH1 0x5 SLOAD PUSH2 0xB19 JUMP JUMPDEST DUP1 SWAP3 POP DUP2 SWAP4 POP POP POP PUSH1 0x2 PUSH1 0x0 SWAP1 SLOAD SWAP1 PUSH2 0x100 EXP SWAP1 DIV PUSH20 0xFFFFFFFFFFFFFFFFFFFFFFFFFFFFFFFFFFFFFFFF AND PUSH20 0xFFFFFFFFFFFFFFFFFFFFFFFFFFFFFFFFFFFFFFFF AND PUSH2 0x8FC DUP4 SWAP1 DUP2 ISZERO MUL SWAP1 PUSH1 0x40 MLOAD PUSH1 0x0 PUSH1 0x40 MLOAD DUP1 DUP4 SUB DUP2 DUP6 DUP9 DUP9 CALL SWAP4 POP POP POP POP ISZERO DUP1 ISZERO PUSH2 0x761 JUMPI RETURNDATASIZE PUSH1 0x0 DUP1 RETURNDATACOPY RETURNDATASIZE PUSH1 0x0 REVERT JUMPDEST POP DUP4 PUSH20 0xFFFFFFFFFFFFFFFFFFFFFFFFFFFFFFFFFFFFFFFF AND PUSH2 0x8FC DUP3 SWAP1 DUP2 ISZERO MUL SWAP1 PUSH1 0x40 MLOAD PUSH1 0x0 PUSH1 0x40 MLOAD DUP1 DUP4 SUB DUP2 DUP6 DUP9 DUP9 CALL SWAP4 POP POP POP POP ISZERO DUP1 ISZERO PUSH2 0x7A8 JUMPI RETURNDATASIZE PUSH1 0x0 DUP1 RETURNDATACOPY RETURNDATASIZE PUSH1 0x0 REVERT JUMPDEST POP CALLER PUSH20 0xFFFFFFFFFFFFFFFFFFFFFFFFFFFFFFFFFFFFFFFF AND DUP5 PUSH20 0xFFFFFFFFFFFFFFFFFFFFFFFFFFFFFFFFFFFFFFFF AND PUSH32 0xDDF252AD1BE2C89B69C2B068FC378DAA952BA7F163C4A11628F55A4DF523B3EF DUP8 PUSH1 0x40 MLOAD PUSH2 0x806 SWAP2 SWAP1 PUSH2 0xD63 JUMP JUMPDEST PUSH1 0x40 MLOAD DUP1 SWAP2 SUB SWAP1 LOG3 POP POP POP POP POP JUMP JUMPDEST PUSH1 0x0 DUP1 DUP4 GT PUSH2 0x859 JUMPI PUSH1 0x40 MLOAD PUSH32 0x8C379A000000000000000000000000000000000000000000000000000000000 DUP2 MSTORE PUSH1 0x4 ADD PUSH2 0x850 SWAP1 PUSH2 0xD43 JUMP JUMPDEST PUSH1 0x40 MLOAD DUP1 SWAP2 SUB SWAP1 REVERT JUMPDEST PUSH1 0x0 PUSH1 0x3 DUP1 SLOAD SWAP1 POP SWAP1 POP PUSH1 0x0 PUSH20 0xFFFFFFFFFFFFFFFFFFFFFFFFFFFFFFFFFFFFFFFF AND PUSH1 0x6 PUSH1 0x0 DUP4 DUP2 MSTORE PUSH1 0x20 ADD SWAP1 DUP2 MSTORE PUSH1 0x20 ADD PUSH1 0x0 KECCAK256 PUSH1 0x0 SWAP1 SLOAD SWAP1 PUSH2 0x100 EXP SWAP1 DIV PUSH20 0xFFFFFFFFFFFFFFFFFFFFFFFFFFFFFFFFFFFFFFFF AND PUSH20 0xFFFFFFFFFFFFFFFFFFFFFFFFFFFFFFFFFFFFFFFF AND EQ PUSH2 0x905 JUMPI PUSH1 0x40 MLOAD PUSH32 0x8C379A000000000000000000000000000000000000000000000000000000000 DUP2 MSTORE PUSH1 0x4 ADD PUSH2 0x8FC SWAP1 PUSH2 0xCE3 JUMP JUMPDEST PUSH1 0x40 MLOAD DUP1 SWAP2 SUB SWAP1 REVERT JUMPDEST PUSH1 0x40 MLOAD DUP1 PUSH1 0x80 ADD PUSH1 0x40 MSTORE DUP1 DUP3 DUP2 MSTORE PUSH1 0x20 ADD DUP6 DUP2 MSTORE PUSH1 0x20 ADD DUP5 DUP2 MSTORE PUSH1 0x20 ADD PUSH1 0x1 ISZERO ISZERO DUP2 MSTORE POP PUSH1 0x3 DUP3 DUP2 SLOAD DUP2 LT PUSH2 0x963 JUMPI PUSH32 0x4E487B7100000000000000000000000000000000000000000000000000000000 PUSH1 0x0 MSTORE PUSH1 0x32 PUSH1 0x4 MSTORE PUSH1 0x24 PUSH1 0x0 REVERT JUMPDEST SWAP1 PUSH1 0x0 MSTORE PUSH1 0x20 PUSH1 0x0 KECCAK256 SWAP1 PUSH1 0x4 MUL ADD PUSH1 0x0 DUP3 ADD MLOAD DUP2 PUSH1 0x0 ADD SSTORE PUSH1 0x20 DUP3 ADD MLOAD DUP2 PUSH1 0x1 ADD SSTORE PUSH1 0x40 DUP3 ADD MLOAD DUP2 PUSH1 0x2 ADD SSTORE PUSH1 0x60 DUP3 ADD MLOAD DUP2 PUSH1 0x3 ADD PUSH1 0x0 PUSH2 0x100 EXP DUP2 SLOAD DUP2 PUSH1 0xFF MUL NOT AND SWAP1 DUP4 ISZERO ISZERO MUL OR SWAP1 SSTORE POP SWAP1 POP POP CALLER PUSH1 0x6 PUSH1 0x0 DUP4 DUP2 MSTORE PUSH1 0x20 ADD SWAP1 DUP2 MSTORE PUSH1 0x20 ADD PUSH1 0x0 KECCAK256 PUSH1 0x0 PUSH2 0x100 EXP DUP2 SLOAD DUP2 PUSH20 0xFFFFFFFFFFFFFFFFFFFFFFFFFFFFFFFFFFFFFFFF MUL NOT AND SWAP1 DUP4 PUSH20 0xFFFFFFFFFFFFFFFFFFFFFFFFFFFFFFFFFFFFFFFF AND MUL OR SWAP1 SSTORE POP PUSH1 0x7 PUSH1 0x0 CALLER PUSH20 0xFFFFFFFFFFFFFFFFFFFFFFFFFFFFFFFFFFFFFFFF AND PUSH20 0xFFFFFFFFFFFFFFFFFFFFFFFFFFFFFFFFFFFFFFFF AND DUP2 MSTORE PUSH1 0x20 ADD SWAP1 DUP2 MSTORE PUSH1 0x20 ADD PUSH1 0x0 KECCAK256 PUSH1 0x0 DUP2 SLOAD DUP1 SWAP3 SWAP2 SWAP1 PUSH1 0x1 ADD SWAP2 SWAP1 POP SSTORE POP PUSH1 0x8 PUSH1 0x0 DUP5 DUP2 MSTORE PUSH1 0x20 ADD SWAP1 DUP2 MSTORE PUSH1 0x20 ADD PUSH1 0x0 KECCAK256 PUSH1 0x0 DUP2 SLOAD DUP1 SWAP3 SWAP2 SWAP1 PUSH1 0x1 ADD SWAP2 SWAP1 POP SSTORE POP PUSH1 0x4 PUSH1 0x0 DUP2 SLOAD DUP1 SWAP3 SWAP2 SWAP1 PUSH1 0x1 ADD SWAP2 SWAP1 POP SSTORE POP DUP1 SWAP2 POP POP SWAP3 SWAP2 POP POP JUMP JUMPDEST PUSH1 0x3 DUP2 DUP2 SLOAD DUP2 LT PUSH2 0xAA2 JUMPI PUSH1 0x0 DUP1 REVERT JUMPDEST SWAP1 PUSH1 0x0 MSTORE PUSH1 0x20 PUSH1 0x0 KECCAK256 SWAP1 PUSH1 0x4 MUL ADD PUSH1 0x0 SWAP2 POP SWAP1 POP DUP1 PUSH1 0x0 ADD SLOAD SWAP1 DUP1 PUSH1 0x1 ADD SLOAD SWAP1 DUP1 PUSH1 0x2 ADD SLOAD SWAP1 DUP1 PUSH1 0x3 ADD PUSH1 0x0 SWAP1 SLOAD SWAP1 PUSH2 0x100 EXP SWAP1 DIV PUSH1 0xFF AND SWAP1 POP DUP5 JUMP JUMPDEST PUSH1 0x7 PUSH1 0x20 MSTORE DUP1 PUSH1 0x0 MSTORE PUSH1 0x40 PUSH1 0x0 KECCAK256 PUSH1 0x0 SWAP2 POP SWAP1 POP SLOAD DUP2 JUMP JUMPDEST PUSH1 0x8 PUSH1 0x20 MSTORE DUP1 PUSH1 0x0 MSTORE PUSH1 0x40 PUSH1 0x0 KECCAK256 PUSH1 0x0 SWAP2 POP SWAP1 POP SLOAD DUP2 JUMP JUMPDEST PUSH1 0x0 PUSH1 0x5 SLOAD SWAP1 POP SWAP1 JUMP JUMPDEST PUSH1 0x0 DUP1 PUSH1 0x0 PUSH1 0x64 DUP6 DUP6 PUSH2 0xB2C SWAP2 SWAP1 PUSH2 0xE05 JUMP JUMPDEST PUSH2 0xB36 SWAP2 SWAP1 PUSH2 0xDD4 JUMP JUMPDEST SWAP1 POP PUSH1 0x0 DUP2 DUP7 PUSH2 0xB46 SWAP2 SWAP1 PUSH2 0xE5F JUMP JUMPDEST SWAP1 POP DUP2 DUP2 SWAP4 POP SWAP4 POP POP POP SWAP3 POP SWAP3 SWAP1 POP JUMP JUMPDEST PUSH1 0x0 DUP2 CALLDATALOAD SWAP1 POP PUSH2 0xB66 DUP2 PUSH2 0x1003 JUMP JUMPDEST SWAP3 SWAP2 POP POP JUMP JUMPDEST PUSH1 0x0 DUP2 CALLDATALOAD SWAP1 POP PUSH2 0xB7B DUP2 PUSH2 0x101A JUMP JUMPDEST SWAP3 SWAP2 POP POP JUMP JUMPDEST PUSH1 0x0 PUSH1 0x20 DUP3 DUP5 SUB SLT ISZERO PUSH2 0xB93 JUMPI PUSH1 0x0 DUP1 REVERT JUMPDEST PUSH1 0x0 PUSH2 0xBA1 DUP5 DUP3 DUP6 ADD PUSH2 0xB57 JUMP JUMPDEST SWAP2 POP POP SWAP3 SWAP2 POP POP JUMP JUMPDEST PUSH1 0x0 PUSH1 0x20 DUP3 DUP5 SUB SLT ISZERO PUSH2 0xBBC JUMPI PUSH1 0x0 DUP1 REVERT JUMPDEST PUSH1 0x0 PUSH2 0xBCA DUP5 DUP3 DUP6 ADD PUSH2 0xB6C JUMP JUMPDEST SWAP2 POP POP SWAP3 SWAP2 POP POP JUMP JUMPDEST PUSH1 0x0 DUP1 PUSH1 0x40 DUP4 DUP6 SUB SLT ISZERO PUSH2 0xBE6 JUMPI PUSH1 0x0 DUP1 REVERT JUMPDEST PUSH1 0x0 PUSH2 0xBF4 DUP6 DUP3 DUP7 ADD PUSH2 0xB6C JUMP JUMPDEST SWAP3 POP POP PUSH1 0x20 PUSH2 0xC05 DUP6 DUP3 DUP7 ADD PUSH2 0xB6C JUMP JUMPDEST SWAP2 POP POP SWAP3 POP SWAP3 SWAP1 POP JUMP JUMPDEST PUSH2 0xC18 DUP2 PUSH2 0xE93 JUMP JUMPDEST DUP3 MSTORE POP POP JUMP JUMPDEST PUSH2 0xC27 DUP2 PUSH2 0xEA5 JUMP JUMPDEST DUP3 MSTORE POP POP JUMP JUMPDEST PUSH1 0x0 PUSH2 0xC3A PUSH1 0x13 DUP4 PUSH2 0xDC3 JUMP JUMPDEST SWAP2 POP PUSH2 0xC45 DUP3 PUSH2 0xF39 JUMP JUMPDEST PUSH1 0x20 DUP3 ADD SWAP1 POP SWAP2 SWAP1 POP JUMP JUMPDEST PUSH1 0x0 PUSH2 0xC5D PUSH1 0x13 DUP4 PUSH2 0xDC3 JUMP JUMPDEST SWAP2 POP PUSH2 0xC68 DUP3 PUSH2 0xF62 JUMP JUMPDEST PUSH1 0x20 DUP3 ADD SWAP1 POP SWAP2 SWAP1 POP JUMP JUMPDEST PUSH1 0x0 PUSH2 0xC80 PUSH1 0x21 DUP4 PUSH2 0xDC3 JUMP JUMPDEST SWAP2 POP PUSH2 0xC8B DUP3 PUSH2 0xF8B JUMP JUMPDEST PUSH1 0x40 DUP3 ADD SWAP1 POP SWAP2 SWAP1 POP JUMP JUMPDEST PUSH1 0x0 PUSH2 0xCA3 PUSH1 0x1A DUP4 PUSH2 0xDC3 JUMP JUMPDEST SWAP2 POP PUSH2 0xCAE DUP3 PUSH2 0xFDA JUMP JUMPDEST PUSH1 0x20 DUP3 ADD SWAP1 POP SWAP2 SWAP1 POP JUMP JUMPDEST PUSH2 0xCC2 DUP2 PUSH2 0xED1 JUMP JUMPDEST DUP3 MSTORE POP POP JUMP JUMPDEST PUSH1 0x0 PUSH1 0x20 DUP3 ADD SWAP1 POP PUSH2 0xCDD PUSH1 0x0 DUP4 ADD DUP5 PUSH2 0xC0F JUMP JUMPDEST SWAP3 SWAP2 POP POP JUMP JUMPDEST PUSH1 0x0 PUSH1 0x20 DUP3 ADD SWAP1 POP DUP2 DUP2 SUB PUSH1 0x0 DUP4 ADD MSTORE PUSH2 0xCFC DUP2 PUSH2 0xC2D JUMP JUMPDEST SWAP1 POP SWAP2 SWAP1 POP JUMP JUMPDEST PUSH1 0x0 PUSH1 0x20 DUP3 ADD SWAP1 POP DUP2 DUP2 SUB PUSH1 0x0 DUP4 ADD MSTORE PUSH2 0xD1C DUP2 PUSH2 0xC50 JUMP JUMPDEST SWAP1 POP SWAP2 SWAP1 POP JUMP JUMPDEST PUSH1 0x0 PUSH1 0x20 DUP3 ADD SWAP1 POP DUP2 DUP2 SUB PUSH1 0x0 DUP4 ADD MSTORE PUSH2 0xD3C DUP2 PUSH2 0xC73 JUMP JUMPDEST SWAP1 POP SWAP2 SWAP1 POP JUMP JUMPDEST PUSH1 0x0 PUSH1 0x20 DUP3 ADD SWAP1 POP DUP2 DUP2 SUB PUSH1 0x0 DUP4 ADD MSTORE PUSH2 0xD5C DUP2 PUSH2 0xC96 JUMP JUMPDEST SWAP1 POP SWAP2 SWAP1 POP JUMP JUMPDEST PUSH1 0x0 PUSH1 0x20 DUP3 ADD SWAP1 POP PUSH2 0xD78 PUSH1 0x0 DUP4 ADD DUP5 PUSH2 0xCB9 JUMP JUMPDEST SWAP3 SWAP2 POP POP JUMP JUMPDEST PUSH1 0x0 PUSH1 0x80 DUP3 ADD SWAP1 POP PUSH2 0xD93 PUSH1 0x0 DUP4 ADD DUP8 PUSH2 0xCB9 JUMP JUMPDEST PUSH2 0xDA0 PUSH1 0x20 DUP4 ADD DUP7 PUSH2 0xCB9 JUMP JUMPDEST PUSH2 0xDAD PUSH1 0x40 DUP4 ADD DUP6 PUSH2 0xCB9 JUMP JUMPDEST PUSH2 0xDBA PUSH1 0x60 DUP4 ADD DUP5 PUSH2 0xC1E JUMP JUMPDEST SWAP6 SWAP5 POP POP POP POP POP JUMP JUMPDEST PUSH1 0x0 DUP3 DUP3 MSTORE PUSH1 0x20 DUP3 ADD SWAP1 POP SWAP3 SWAP2 POP POP JUMP JUMPDEST PUSH1 0x0 PUSH2 0xDDF DUP3 PUSH2 0xED1 JUMP JUMPDEST SWAP2 POP PUSH2 0xDEA DUP4 PUSH2 0xED1 JUMP JUMPDEST SWAP3 POP DUP3 PUSH2 0xDFA JUMPI PUSH2 0xDF9 PUSH2 0xF0A JUMP JUMPDEST JUMPDEST DUP3 DUP3 DIV SWAP1 POP SWAP3 SWAP2 POP POP JUMP JUMPDEST PUSH1 0x0 PUSH2 0xE10 DUP3 PUSH2 0xED1 JUMP JUMPDEST SWAP2 POP PUSH2 0xE1B DUP4 PUSH2 0xED1 JUMP JUMPDEST SWAP3 POP DUP2 PUSH32 0xFFFFFFFFFFFFFFFFFFFFFFFFFFFFFFFFFFFFFFFFFFFFFFFFFFFFFFFFFFFFFFFF DIV DUP4 GT DUP3 ISZERO ISZERO AND ISZERO PUSH2 0xE54 JUMPI PUSH2 0xE53 PUSH2 0xEDB JUMP JUMPDEST JUMPDEST DUP3 DUP3 MUL SWAP1 POP SWAP3 SWAP2 POP POP JUMP JUMPDEST PUSH1 0x0 PUSH2 0xE6A DUP3 PUSH2 0xED1 JUMP JUMPDEST SWAP2 POP PUSH2 0xE75 DUP4 PUSH2 0xED1 JUMP JUMPDEST SWAP3 POP DUP3 DUP3 LT ISZERO PUSH2 0xE88 JUMPI PUSH2 0xE87 PUSH2 0xEDB JUMP JUMPDEST JUMPDEST DUP3 DUP3 SUB SWAP1 POP SWAP3 SWAP2 POP POP JUMP JUMPDEST PUSH1 0x0 PUSH2 0xE9E DUP3 PUSH2 0xEB1 JUMP JUMPDEST SWAP1 POP SWAP2 SWAP1 POP JUMP JUMPDEST PUSH1 0x0 DUP2 ISZERO ISZERO SWAP1 POP SWAP2 SWAP1 POP JUMP JUMPDEST PUSH1 0x0 PUSH20 0xFFFFFFFFFFFFFFFFFFFFFFFFFFFFFFFFFFFFFFFF DUP3 AND SWAP1 POP SWAP2 SWAP1 POP JUMP JUMPDEST PUSH1 0x0 DUP2 SWAP1 POP SWAP2 SWAP1 POP JUMP JUMPDEST PUSH32 0x4E487B7100000000000000000000000000000000000000000000000000000000 PUSH1 0x0 MSTORE PUSH1 0x11 PUSH1 0x4 MSTORE PUSH1 0x24 PUSH1 0x0 REVERT JUMPDEST PUSH32 0x4E487B7100000000000000000000000000000000000000000000000000000000 PUSH1 0x0 MSTORE PUSH1 0x12 PUSH1 0x4 MSTORE PUSH1 0x24 PUSH1 0x0 REVERT JUMPDEST PUSH32 0x746F6B656E20616C726561647920657869737400000000000000000000000000 PUSH1 0x0 DUP3 ADD MSTORE POP JUMP JUMPDEST PUSH32 0x746F6B656E20646F65736E277420657869737400000000000000000000000000 PUSH1 0x0 DUP3 ADD MSTORE POP JUMP JUMPDEST PUSH32 0x4F6E6C7920636F6E74726163742773206F776E65722063616E20646F20746861 PUSH1 0x0 DUP3 ADD MSTORE PUSH32 0x7400000000000000000000000000000000000000000000000000000000000000 PUSH1 0x20 DUP3 ADD MSTORE POP JUMP JUMPDEST PUSH32 0x50726963652063616E6E6F7420626520657175616C20746F2030000000000000 PUSH1 0x0 DUP3 ADD MSTORE POP JUMP JUMPDEST PUSH2 0x100C DUP2 PUSH2 0xE93 JUMP JUMPDEST DUP2 EQ PUSH2 0x1017 JUMPI PUSH1 0x0 DUP1 REVERT JUMPDEST POP JUMP JUMPDEST PUSH2 0x1023 DUP2 PUSH2 0xED1 JUMP JUMPDEST DUP2 EQ PUSH2 0x102E JUMPI PUSH1 0x0 DUP1 REVERT JUMPDEST POP JUMP INVALID LOG2 PUSH5 0x6970667358 0x22 SLT KECCAK256 0x2C 0x24 0xB4 0xD2 0x4E 0x2C SELFDESTRUCT 0xAE GASLIMIT 0xDA NOT BYTE 0xE0 DUP11 GASLIMIT 0x5E 0xAA SELFDESTRUCT JUMP ISZERO DUP3 RETURNDATACOPY 0xB2 MULMOD PUSH5 0xC691C897A7 0xA6 0xBE PUSH5 0x736F6C6343 STOP ADDMOD ADD STOP CALLER "
				},
				"gasEstimates": {
					"creation": {
						"codeDepositCost": "839800",
						"executionCost": "infinite",
						"totalCost": "infinite"
					},
					"external": {
						"balanceOf(address)": "1630",
						"createItem(uint256,uint256)": "infinite",
						"getFeesPercentage()": "1247",
						"itemToOwner(uint256)": "1540",
						"items(uint256)": "infinite",
						"itemsCatIdCount(uint256)": "infinite",
						"itemsOwnerCount(address)": "1580",
						"itemsToSellCount()": "1174",
						"modifyFeesPercentage(uint256)": "21313",
						"ownerOf(uint256)": "1632",
						"sellItem(uint256)": "infinite"
					},
					"internal": {
						"getFees(uint256,uint256)": "infinite"
					}
				},
				"methodIdentifiers": {
					"balanceOf(address)": "70a08231",
					"createItem(uint256,uint256)": "adae08dd",
					"getFeesPercentage()": "ea0ff14a",
					"itemToOwner(uint256)": "1a4d96cd",
					"items(uint256)": "bfb231d2",
					"itemsCatIdCount(uint256)": "d48644bd",
					"itemsOwnerCount(address)": "c3921895",
					"itemsToSellCount()": "4c389e65",
					"modifyFeesPercentage(uint256)": "29de6246",
					"ownerOf(uint256)": "6352211e",
					"sellItem(uint256)": "91b6be9a"
				}
			},
			"storageLayout": {
				"storage": [
					{
						"astId": 11,
						"contract": "contracts/GeekNft.sol:GeekNft",
						"label": "name",
						"offset": 0,
						"slot": "0",
						"type": "t_string_storage"
					},
					{
						"astId": 13,
						"contract": "contracts/GeekNft.sol:GeekNft",
						"label": "symbol",
						"offset": 0,
						"slot": "1",
						"type": "t_string_storage"
					},
					{
						"astId": 15,
						"contract": "contracts/GeekNft.sol:GeekNft",
						"label": "owner",
						"offset": 0,
						"slot": "2",
						"type": "t_address"
					},
					{
						"astId": 28,
						"contract": "contracts/GeekNft.sol:GeekNft",
						"label": "items",
						"offset": 0,
						"slot": "3",
						"type": "t_array(t_struct(Item)24_storage)dyn_storage"
					},
					{
						"astId": 30,
						"contract": "contracts/GeekNft.sol:GeekNft",
						"label": "itemsToSellCount",
						"offset": 0,
						"slot": "4",
						"type": "t_uint256"
					},
					{
						"astId": 32,
						"contract": "contracts/GeekNft.sol:GeekNft",
						"label": "feesPercentage",
						"offset": 0,
						"slot": "5",
						"type": "t_uint256"
					},
					{
						"astId": 36,
						"contract": "contracts/GeekNft.sol:GeekNft",
						"label": "itemToOwner",
						"offset": 0,
						"slot": "6",
						"type": "t_mapping(t_uint256,t_address)"
					},
					{
						"astId": 40,
						"contract": "contracts/GeekNft.sol:GeekNft",
						"label": "itemsOwnerCount",
						"offset": 0,
						"slot": "7",
						"type": "t_mapping(t_address,t_uint256)"
					},
					{
						"astId": 44,
						"contract": "contracts/GeekNft.sol:GeekNft",
						"label": "itemsCatIdCount",
						"offset": 0,
						"slot": "8",
						"type": "t_mapping(t_uint256,t_uint256)"
					}
				],
				"types": {
					"t_address": {
						"encoding": "inplace",
						"label": "address",
						"numberOfBytes": "20"
					},
					"t_array(t_struct(Item)24_storage)dyn_storage": {
						"base": "t_struct(Item)24_storage",
						"encoding": "dynamic_array",
						"label": "struct GeekNft.Item[]",
						"numberOfBytes": "32"
					},
					"t_bool": {
						"encoding": "inplace",
						"label": "bool",
						"numberOfBytes": "1"
					},
					"t_mapping(t_address,t_uint256)": {
						"encoding": "mapping",
						"key": "t_address",
						"label": "mapping(address => uint256)",
						"numberOfBytes": "32",
						"value": "t_uint256"
					},
					"t_mapping(t_uint256,t_address)": {
						"encoding": "mapping",
						"key": "t_uint256",
						"label": "mapping(uint256 => address)",
						"numberOfBytes": "32",
						"value": "t_address"
					},
					"t_mapping(t_uint256,t_uint256)": {
						"encoding": "mapping",
						"key": "t_uint256",
						"label": "mapping(uint256 => uint256)",
						"numberOfBytes": "32",
						"value": "t_uint256"
					},
					"t_string_storage": {
						"encoding": "bytes",
						"label": "string",
						"numberOfBytes": "32"
					},
					"t_struct(Item)24_storage": {
						"encoding": "inplace",
						"label": "struct GeekNft.Item",
						"members": [
							{
								"astId": 17,
								"contract": "contracts/GeekNft.sol:GeekNft",
								"label": "tokenId",
								"offset": 0,
								"slot": "0",
								"type": "t_uint256"
							},
							{
								"astId": 19,
								"contract": "contracts/GeekNft.sol:GeekNft",
								"label": "price",
								"offset": 0,
								"slot": "1",
								"type": "t_uint256"
							},
							{
								"astId": 21,
								"contract": "contracts/GeekNft.sol:GeekNft",
								"label": "catId",
								"offset": 0,
								"slot": "2",
								"type": "t_uint256"
							},
							{
								"astId": 23,
								"contract": "contracts/GeekNft.sol:GeekNft",
								"label": "toSell",
								"offset": 0,
								"slot": "3",
								"type": "t_bool"
							}
						],
						"numberOfBytes": "128"
					},
					"t_uint256": {
						"encoding": "inplace",
						"label": "uint256",
						"numberOfBytes": "32"
					}
				}
			},
			"userdoc": {
				"kind": "user",
				"methods": {},
				"version": 1
			}
		}
	}
}