{
	"contracts/GeekNft.sol": {
		"GeekNft": {
			"abi": [
				{
					"inputs": [
						{
							"internalType": "address",
							"name": "marketplaceAddress_",
							"type": "address"
						},
						{
							"internalType": "string",
							"name": "name_",
							"type": "string"
						},
						{
							"internalType": "string",
							"name": "symbol_",
							"type": "string"
						}
					],
					"stateMutability": "nonpayable",
					"type": "constructor"
				},
				{
					"anonymous": false,
					"inputs": [
						{
							"indexed": false,
							"internalType": "uint256",
							"name": "",
							"type": "uint256"
						}
					],
					"name": "NftMinted",
					"type": "event"
				},
				{
					"anonymous": false,
					"inputs": [
						{
							"indexed": true,
							"internalType": "address",
							"name": "from",
							"type": "address"
						},
						{
							"indexed": true,
							"internalType": "address",
							"name": "to",
							"type": "address"
						},
						{
							"indexed": false,
							"internalType": "uint256",
							"name": "tokenId",
							"type": "uint256"
						}
					],
					"name": "Transfer",
					"type": "event"
				},
				{
					"inputs": [
						{
							"internalType": "string",
							"name": "_tokenUri",
							"type": "string"
						}
					],
					"name": "mint",
					"outputs": [],
					"stateMutability": "nonpayable",
					"type": "function"
				},
				{
					"inputs": [],
					"name": "name",
					"outputs": [
						{
							"internalType": "string",
							"name": "",
							"type": "string"
						}
					],
					"stateMutability": "view",
					"type": "function"
				},
				{
					"inputs": [],
					"name": "symbol",
					"outputs": [
						{
							"internalType": "string",
							"name": "",
							"type": "string"
						}
					],
					"stateMutability": "view",
					"type": "function"
				},
				{
					"inputs": [
						{
							"internalType": "uint256",
							"name": "",
							"type": "uint256"
						}
					],
					"name": "tokenToUri",
					"outputs": [
						{
							"internalType": "string",
							"name": "",
							"type": "string"
						}
					],
					"stateMutability": "view",
					"type": "function"
				},
				{
					"inputs": [
						{
							"internalType": "address",
							"name": "_from",
							"type": "address"
						},
						{
							"internalType": "address",
							"name": "_to",
							"type": "address"
						},
						{
							"internalType": "uint256",
							"name": "_tokenId",
							"type": "uint256"
						}
					],
					"name": "transferFrom",
					"outputs": [],
					"stateMutability": "nonpayable",
					"type": "function"
				}
			],
			"devdoc": {
				"kind": "dev",
				"methods": {},
				"version": 1
			},
			"evm": {
				"assembly": "    /* \"contracts/GeekNft.sol\":83:2352  contract GeekNft {... */\n  mstore(0x40, 0x80)\n    /* \"contracts/GeekNft.sol\":613:804  constructor(address marketplaceAddress_, string memory name_, string memory symbol_){... */\n  callvalue\n  dup1\n  iszero\n  tag_1\n  jumpi\n  0x00\n  dup1\n  revert\ntag_1:\n  pop\n  mload(0x40)\n  sub(codesize, bytecodeSize)\n  dup1\n  bytecodeSize\n  dup4\n  codecopy\n  dup2\n  dup2\n  add\n  0x40\n  mstore\n  dup2\n  add\n  swap1\n  tag_2\n  swap2\n  swap1\n  tag_3\n  jump\t// in\ntag_2:\n    /* \"contracts/GeekNft.sol\":728:747  marketplaceAddress_ */\n  dup3\n    /* \"contracts/GeekNft.sol\":707:725  marketplaceAddress */\n  0x03\n  0x00\n    /* \"contracts/GeekNft.sol\":707:747  marketplaceAddress = marketplaceAddress_ */\n  0x0100\n  exp\n  dup2\n  sload\n  dup2\n  0xffffffffffffffffffffffffffffffffffffffff\n  mul\n  not\n  and\n  swap1\n  dup4\n  0xffffffffffffffffffffffffffffffffffffffff\n  and\n  mul\n  or\n  swap1\n  sstore\n  pop\n    /* \"contracts/GeekNft.sol\":765:770  name_ */\n  dup2\n    /* \"contracts/GeekNft.sol\":757:762  _name */\n  0x00\n    /* \"contracts/GeekNft.sol\":757:770  _name = name_ */\n  swap1\n  dup1\n  mload\n  swap1\n  0x20\n  add\n  swap1\n  tag_6\n  swap3\n  swap2\n  swap1\n  tag_7\n  jump\t// in\ntag_6:\n  pop\n    /* \"contracts/GeekNft.sol\":790:797  symbol_ */\n  dup1\n    /* \"contracts/GeekNft.sol\":780:787  _symbol */\n  0x01\n    /* \"contracts/GeekNft.sol\":780:797  _symbol = symbol_ */\n  swap1\n  dup1\n  mload\n  swap1\n  0x20\n  add\n  swap1\n  tag_8\n  swap3\n  swap2\n  swap1\n  tag_7\n  jump\t// in\ntag_8:\n  pop\n    /* \"contracts/GeekNft.sol\":613:804  constructor(address marketplaceAddress_, string memory name_, string memory symbol_){... */\n  pop\n  pop\n  pop\n    /* \"contracts/GeekNft.sol\":83:2352  contract GeekNft {... */\n  jump(tag_9)\ntag_7:\n  dup3\n  dup1\n  sload\n  tag_10\n  swap1\n  tag_11\n  jump\t// in\ntag_10:\n  swap1\n  0x00\n  mstore\n  keccak256(0x00, 0x20)\n  swap1\n  0x1f\n  add\n  0x20\n  swap1\n  div\n  dup2\n  add\n  swap3\n  dup3\n  tag_13\n  jumpi\n  0x00\n  dup6\n  sstore\n  jump(tag_12)\ntag_13:\n  dup3\n  0x1f\n  lt\n  tag_14\n  jumpi\n  dup1\n  mload\n  not(0xff)\n  and\n  dup4\n  dup1\n  add\n  or\n  dup6\n  sstore\n  jump(tag_12)\ntag_14:\n  dup3\n  dup1\n  add\n  0x01\n  add\n  dup6\n  sstore\n  dup3\n  iszero\n  tag_12\n  jumpi\n  swap2\n  dup3\n  add\ntag_15:\n  dup3\n  dup2\n  gt\n  iszero\n  tag_16\n  jumpi\n  dup3\n  mload\n  dup3\n  sstore\n  swap2\n  0x20\n  add\n  swap2\n  swap1\n  0x01\n  add\n  swap1\n  jump(tag_15)\ntag_16:\ntag_12:\n  pop\n  swap1\n  pop\n  tag_17\n  swap2\n  swap1\n  tag_18\n  jump\t// in\ntag_17:\n  pop\n  swap1\n  jump\t// out\ntag_18:\ntag_19:\n  dup1\n  dup3\n  gt\n  iszero\n  tag_20\n  jumpi\n  0x00\n  dup2\n  0x00\n  swap1\n  sstore\n  pop\n  0x01\n  add\n  jump(tag_19)\ntag_20:\n  pop\n  swap1\n  jump\t// out\n    /* \"#utility.yul\":7:361   */\ntag_22:\n  0x00\n    /* \"#utility.yul\":121:187   */\n  tag_24\n    /* \"#utility.yul\":137:186   */\n  tag_25\n    /* \"#utility.yul\":179:185   */\n  dup5\n    /* \"#utility.yul\":137:186   */\n  tag_26\n  jump\t// in\ntag_25:\n    /* \"#utility.yul\":121:187   */\n  tag_27\n  jump\t// in\ntag_24:\n    /* \"#utility.yul\":112:187   */\n  swap1\n  pop\n    /* \"#utility.yul\":210:216   */\n  dup3\n    /* \"#utility.yul\":203:208   */\n  dup2\n    /* \"#utility.yul\":196:217   */\n  mstore\n    /* \"#utility.yul\":248:252   */\n  0x20\n    /* \"#utility.yul\":241:246   */\n  dup2\n    /* \"#utility.yul\":237:253   */\n  add\n    /* \"#utility.yul\":286:289   */\n  dup5\n    /* \"#utility.yul\":277:283   */\n  dup5\n    /* \"#utility.yul\":272:275   */\n  dup5\n    /* \"#utility.yul\":268:284   */\n  add\n    /* \"#utility.yul\":265:290   */\n  gt\n    /* \"#utility.yul\":262:264   */\n  iszero\n  tag_28\n  jumpi\n    /* \"#utility.yul\":303:304   */\n  0x00\n    /* \"#utility.yul\":300:301   */\n  dup1\n    /* \"#utility.yul\":293:305   */\n  revert\n    /* \"#utility.yul\":262:264   */\ntag_28:\n    /* \"#utility.yul\":316:355   */\n  tag_29\n    /* \"#utility.yul\":348:354   */\n  dup5\n    /* \"#utility.yul\":343:346   */\n  dup3\n    /* \"#utility.yul\":338:341   */\n  dup6\n    /* \"#utility.yul\":316:355   */\n  tag_30\n  jump\t// in\ntag_29:\n    /* \"#utility.yul\":102:361   */\n  pop\n  swap4\n  swap3\n  pop\n  pop\n  pop\n  jump\t// out\n    /* \"#utility.yul\":367:510   */\ntag_31:\n  0x00\n    /* \"#utility.yul\":455:461   */\n  dup2\n    /* \"#utility.yul\":449:462   */\n  mload\n    /* \"#utility.yul\":440:462   */\n  swap1\n  pop\n    /* \"#utility.yul\":471:504   */\n  tag_33\n    /* \"#utility.yul\":498:503   */\n  dup2\n    /* \"#utility.yul\":471:504   */\n  tag_34\n  jump\t// in\ntag_33:\n    /* \"#utility.yul\":430:510   */\n  swap3\n  swap2\n  pop\n  pop\n  jump\t// out\n    /* \"#utility.yul\":530:818   */\ntag_35:\n  0x00\n    /* \"#utility.yul\":646:649   */\n  dup3\n    /* \"#utility.yul\":639:643   */\n  0x1f\n    /* \"#utility.yul\":631:637   */\n  dup4\n    /* \"#utility.yul\":627:644   */\n  add\n    /* \"#utility.yul\":623:650   */\n  slt\n    /* \"#utility.yul\":613:615   */\n  tag_37\n  jumpi\n    /* \"#utility.yul\":664:665   */\n  0x00\n    /* \"#utility.yul\":661:662   */\n  dup1\n    /* \"#utility.yul\":654:666   */\n  revert\n    /* \"#utility.yul\":613:615   */\ntag_37:\n    /* \"#utility.yul\":697:703   */\n  dup2\n    /* \"#utility.yul\":691:704   */\n  mload\n    /* \"#utility.yul\":722:812   */\n  tag_38\n    /* \"#utility.yul\":808:811   */\n  dup5\n    /* \"#utility.yul\":800:806   */\n  dup3\n    /* \"#utility.yul\":793:797   */\n  0x20\n    /* \"#utility.yul\":785:791   */\n  dup7\n    /* \"#utility.yul\":781:798   */\n  add\n    /* \"#utility.yul\":722:812   */\n  tag_22\n  jump\t// in\ntag_38:\n    /* \"#utility.yul\":713:812   */\n  swap2\n  pop\n    /* \"#utility.yul\":603:818   */\n  pop\n  swap3\n  swap2\n  pop\n  pop\n  jump\t// out\n    /* \"#utility.yul\":824:1632   */\ntag_3:\n  0x00\n  dup1\n  0x00\n    /* \"#utility.yul\":997:999   */\n  0x60\n    /* \"#utility.yul\":985:994   */\n  dup5\n    /* \"#utility.yul\":976:983   */\n  dup7\n    /* \"#utility.yul\":972:995   */\n  sub\n    /* \"#utility.yul\":968:1000   */\n  slt\n    /* \"#utility.yul\":965:967   */\n  iszero\n  tag_40\n  jumpi\n    /* \"#utility.yul\":1013:1014   */\n  0x00\n    /* \"#utility.yul\":1010:1011   */\n  dup1\n    /* \"#utility.yul\":1003:1015   */\n  revert\n    /* \"#utility.yul\":965:967   */\ntag_40:\n    /* \"#utility.yul\":1056:1057   */\n  0x00\n    /* \"#utility.yul\":1081:1145   */\n  tag_41\n    /* \"#utility.yul\":1137:1144   */\n  dup7\n    /* \"#utility.yul\":1128:1134   */\n  dup3\n    /* \"#utility.yul\":1117:1126   */\n  dup8\n    /* \"#utility.yul\":1113:1135   */\n  add\n    /* \"#utility.yul\":1081:1145   */\n  tag_31\n  jump\t// in\ntag_41:\n    /* \"#utility.yul\":1071:1145   */\n  swap4\n  pop\n    /* \"#utility.yul\":1027:1155   */\n  pop\n    /* \"#utility.yul\":1215:1217   */\n  0x20\n    /* \"#utility.yul\":1204:1213   */\n  dup5\n    /* \"#utility.yul\":1200:1218   */\n  add\n    /* \"#utility.yul\":1194:1219   */\n  mload\n    /* \"#utility.yul\":1246:1264   */\n  0xffffffffffffffff\n    /* \"#utility.yul\":1238:1244   */\n  dup2\n    /* \"#utility.yul\":1235:1265   */\n  gt\n    /* \"#utility.yul\":1232:1234   */\n  iszero\n  tag_42\n  jumpi\n    /* \"#utility.yul\":1278:1279   */\n  0x00\n    /* \"#utility.yul\":1275:1276   */\n  dup1\n    /* \"#utility.yul\":1268:1280   */\n  revert\n    /* \"#utility.yul\":1232:1234   */\ntag_42:\n    /* \"#utility.yul\":1306:1380   */\n  tag_43\n    /* \"#utility.yul\":1372:1379   */\n  dup7\n    /* \"#utility.yul\":1363:1369   */\n  dup3\n    /* \"#utility.yul\":1352:1361   */\n  dup8\n    /* \"#utility.yul\":1348:1370   */\n  add\n    /* \"#utility.yul\":1306:1380   */\n  tag_35\n  jump\t// in\ntag_43:\n    /* \"#utility.yul\":1296:1380   */\n  swap3\n  pop\n    /* \"#utility.yul\":1165:1390   */\n  pop\n    /* \"#utility.yul\":1450:1452   */\n  0x40\n    /* \"#utility.yul\":1439:1448   */\n  dup5\n    /* \"#utility.yul\":1435:1453   */\n  add\n    /* \"#utility.yul\":1429:1454   */\n  mload\n    /* \"#utility.yul\":1481:1499   */\n  0xffffffffffffffff\n    /* \"#utility.yul\":1473:1479   */\n  dup2\n    /* \"#utility.yul\":1470:1500   */\n  gt\n    /* \"#utility.yul\":1467:1469   */\n  iszero\n  tag_44\n  jumpi\n    /* \"#utility.yul\":1513:1514   */\n  0x00\n    /* \"#utility.yul\":1510:1511   */\n  dup1\n    /* \"#utility.yul\":1503:1515   */\n  revert\n    /* \"#utility.yul\":1467:1469   */\ntag_44:\n    /* \"#utility.yul\":1541:1615   */\n  tag_45\n    /* \"#utility.yul\":1607:1614   */\n  dup7\n    /* \"#utility.yul\":1598:1604   */\n  dup3\n    /* \"#utility.yul\":1587:1596   */\n  dup8\n    /* \"#utility.yul\":1583:1605   */\n  add\n    /* \"#utility.yul\":1541:1615   */\n  tag_35\n  jump\t// in\ntag_45:\n    /* \"#utility.yul\":1531:1615   */\n  swap2\n  pop\n    /* \"#utility.yul\":1400:1625   */\n  pop\n    /* \"#utility.yul\":955:1632   */\n  swap3\n  pop\n  swap3\n  pop\n  swap3\n  jump\t// out\n    /* \"#utility.yul\":1638:1767   */\ntag_27:\n  0x00\n    /* \"#utility.yul\":1699:1719   */\n  tag_47\n  tag_48\n  jump\t// in\ntag_47:\n    /* \"#utility.yul\":1689:1719   */\n  swap1\n  pop\n    /* \"#utility.yul\":1728:1761   */\n  tag_49\n    /* \"#utility.yul\":1756:1760   */\n  dup3\n    /* \"#utility.yul\":1748:1754   */\n  dup3\n    /* \"#utility.yul\":1728:1761   */\n  tag_50\n  jump\t// in\ntag_49:\n    /* \"#utility.yul\":1679:1767   */\n  swap2\n  swap1\n  pop\n  jump\t// out\n    /* \"#utility.yul\":1773:1848   */\ntag_48:\n  0x00\n    /* \"#utility.yul\":1839:1841   */\n  0x40\n    /* \"#utility.yul\":1833:1842   */\n  mload\n    /* \"#utility.yul\":1823:1842   */\n  swap1\n  pop\n    /* \"#utility.yul\":1813:1848   */\n  swap1\n  jump\t// out\n    /* \"#utility.yul\":1854:2162   */\ntag_26:\n  0x00\n    /* \"#utility.yul\":2006:2024   */\n  0xffffffffffffffff\n    /* \"#utility.yul\":1998:2004   */\n  dup3\n    /* \"#utility.yul\":1995:2025   */\n  gt\n    /* \"#utility.yul\":1992:1994   */\n  iszero\n  tag_53\n  jumpi\n    /* \"#utility.yul\":2028:2046   */\n  tag_54\n  tag_55\n  jump\t// in\ntag_54:\n    /* \"#utility.yul\":1992:1994   */\ntag_53:\n    /* \"#utility.yul\":2066:2095   */\n  tag_56\n    /* \"#utility.yul\":2088:2094   */\n  dup3\n    /* \"#utility.yul\":2066:2095   */\n  tag_57\n  jump\t// in\ntag_56:\n    /* \"#utility.yul\":2058:2095   */\n  swap1\n  pop\n    /* \"#utility.yul\":2150:2154   */\n  0x20\n    /* \"#utility.yul\":2144:2148   */\n  dup2\n    /* \"#utility.yul\":2140:2155   */\n  add\n    /* \"#utility.yul\":2132:2155   */\n  swap1\n  pop\n    /* \"#utility.yul\":1921:2162   */\n  swap2\n  swap1\n  pop\n  jump\t// out\n    /* \"#utility.yul\":2168:2264   */\ntag_58:\n  0x00\n    /* \"#utility.yul\":2234:2258   */\n  tag_60\n    /* \"#utility.yul\":2252:2257   */\n  dup3\n    /* \"#utility.yul\":2234:2258   */\n  tag_61\n  jump\t// in\ntag_60:\n    /* \"#utility.yul\":2223:2258   */\n  swap1\n  pop\n    /* \"#utility.yul\":2213:2264   */\n  swap2\n  swap1\n  pop\n  jump\t// out\n    /* \"#utility.yul\":2270:2396   */\ntag_61:\n  0x00\n    /* \"#utility.yul\":2347:2389   */\n  0xffffffffffffffffffffffffffffffffffffffff\n    /* \"#utility.yul\":2340:2345   */\n  dup3\n    /* \"#utility.yul\":2336:2390   */\n  and\n    /* \"#utility.yul\":2325:2390   */\n  swap1\n  pop\n    /* \"#utility.yul\":2315:2396   */\n  swap2\n  swap1\n  pop\n  jump\t// out\n    /* \"#utility.yul\":2402:2709   */\ntag_30:\n    /* \"#utility.yul\":2470:2471   */\n  0x00\n    /* \"#utility.yul\":2480:2593   */\ntag_64:\n    /* \"#utility.yul\":2494:2500   */\n  dup4\n    /* \"#utility.yul\":2491:2492   */\n  dup2\n    /* \"#utility.yul\":2488:2501   */\n  lt\n    /* \"#utility.yul\":2480:2593   */\n  iszero\n  tag_66\n  jumpi\n    /* \"#utility.yul\":2579:2580   */\n  dup1\n    /* \"#utility.yul\":2574:2577   */\n  dup3\n    /* \"#utility.yul\":2570:2581   */\n  add\n    /* \"#utility.yul\":2564:2582   */\n  mload\n    /* \"#utility.yul\":2560:2561   */\n  dup2\n    /* \"#utility.yul\":2555:2558   */\n  dup5\n    /* \"#utility.yul\":2551:2562   */\n  add\n    /* \"#utility.yul\":2544:2583   */\n  mstore\n    /* \"#utility.yul\":2516:2518   */\n  0x20\n    /* \"#utility.yul\":2513:2514   */\n  dup2\n    /* \"#utility.yul\":2509:2519   */\n  add\n    /* \"#utility.yul\":2504:2519   */\n  swap1\n  pop\n    /* \"#utility.yul\":2480:2593   */\n  jump(tag_64)\ntag_66:\n    /* \"#utility.yul\":2611:2617   */\n  dup4\n    /* \"#utility.yul\":2608:2609   */\n  dup2\n    /* \"#utility.yul\":2605:2618   */\n  gt\n    /* \"#utility.yul\":2602:2604   */\n  iszero\n  tag_67\n  jumpi\n    /* \"#utility.yul\":2691:2692   */\n  0x00\n    /* \"#utility.yul\":2682:2688   */\n  dup5\n    /* \"#utility.yul\":2677:2680   */\n  dup5\n    /* \"#utility.yul\":2673:2689   */\n  add\n    /* \"#utility.yul\":2666:2693   */\n  mstore\n    /* \"#utility.yul\":2602:2604   */\ntag_67:\n    /* \"#utility.yul\":2451:2709   */\n  pop\n  pop\n  pop\n  pop\n  jump\t// out\n    /* \"#utility.yul\":2715:3035   */\ntag_11:\n  0x00\n    /* \"#utility.yul\":2796:2797   */\n  0x02\n    /* \"#utility.yul\":2790:2794   */\n  dup3\n    /* \"#utility.yul\":2786:2798   */\n  div\n    /* \"#utility.yul\":2776:2798   */\n  swap1\n  pop\n    /* \"#utility.yul\":2843:2844   */\n  0x01\n    /* \"#utility.yul\":2837:2841   */\n  dup3\n    /* \"#utility.yul\":2833:2845   */\n  and\n    /* \"#utility.yul\":2864:2882   */\n  dup1\n    /* \"#utility.yul\":2854:2856   */\n  tag_69\n  jumpi\n    /* \"#utility.yul\":2920:2924   */\n  0x7f\n    /* \"#utility.yul\":2912:2918   */\n  dup3\n    /* \"#utility.yul\":2908:2925   */\n  and\n    /* \"#utility.yul\":2898:2925   */\n  swap2\n  pop\n    /* \"#utility.yul\":2854:2856   */\ntag_69:\n    /* \"#utility.yul\":2982:2984   */\n  0x20\n    /* \"#utility.yul\":2974:2980   */\n  dup3\n    /* \"#utility.yul\":2971:2985   */\n  lt\n    /* \"#utility.yul\":2951:2969   */\n  dup2\n    /* \"#utility.yul\":2948:2986   */\n  eq\n    /* \"#utility.yul\":2945:2947   */\n  iszero\n  tag_70\n  jumpi\n    /* \"#utility.yul\":3001:3019   */\n  tag_71\n  tag_72\n  jump\t// in\ntag_71:\n    /* \"#utility.yul\":2945:2947   */\ntag_70:\n    /* \"#utility.yul\":2766:3035   */\n  pop\n  swap2\n  swap1\n  pop\n  jump\t// out\n    /* \"#utility.yul\":3041:3322   */\ntag_50:\n    /* \"#utility.yul\":3124:3151   */\n  tag_74\n    /* \"#utility.yul\":3146:3150   */\n  dup3\n    /* \"#utility.yul\":3124:3151   */\n  tag_57\n  jump\t// in\ntag_74:\n    /* \"#utility.yul\":3116:3122   */\n  dup2\n    /* \"#utility.yul\":3112:3152   */\n  add\n    /* \"#utility.yul\":3254:3260   */\n  dup2\n    /* \"#utility.yul\":3242:3252   */\n  dup2\n    /* \"#utility.yul\":3239:3261   */\n  lt\n    /* \"#utility.yul\":3218:3236   */\n  0xffffffffffffffff\n    /* \"#utility.yul\":3206:3216   */\n  dup3\n    /* \"#utility.yul\":3203:3237   */\n  gt\n    /* \"#utility.yul\":3200:3262   */\n  or\n    /* \"#utility.yul\":3197:3199   */\n  iszero\n  tag_75\n  jumpi\n    /* \"#utility.yul\":3265:3283   */\n  tag_76\n  tag_55\n  jump\t// in\ntag_76:\n    /* \"#utility.yul\":3197:3199   */\ntag_75:\n    /* \"#utility.yul\":3305:3315   */\n  dup1\n    /* \"#utility.yul\":3301:3303   */\n  0x40\n    /* \"#utility.yul\":3294:3316   */\n  mstore\n    /* \"#utility.yul\":3084:3322   */\n  pop\n  pop\n  pop\n  jump\t// out\n    /* \"#utility.yul\":3328:3508   */\ntag_72:\n    /* \"#utility.yul\":3376:3453   */\n  0x4e487b7100000000000000000000000000000000000000000000000000000000\n    /* \"#utility.yul\":3373:3374   */\n  0x00\n    /* \"#utility.yul\":3366:3454   */\n  mstore\n    /* \"#utility.yul\":3473:3477   */\n  0x22\n    /* \"#utility.yul\":3470:3471   */\n  0x04\n    /* \"#utility.yul\":3463:3478   */\n  mstore\n    /* \"#utility.yul\":3497:3501   */\n  0x24\n    /* \"#utility.yul\":3494:3495   */\n  0x00\n    /* \"#utility.yul\":3487:3502   */\n  revert\n    /* \"#utility.yul\":3514:3694   */\ntag_55:\n    /* \"#utility.yul\":3562:3639   */\n  0x4e487b7100000000000000000000000000000000000000000000000000000000\n    /* \"#utility.yul\":3559:3560   */\n  0x00\n    /* \"#utility.yul\":3552:3640   */\n  mstore\n    /* \"#utility.yul\":3659:3663   */\n  0x41\n    /* \"#utility.yul\":3656:3657   */\n  0x04\n    /* \"#utility.yul\":3649:3664   */\n  mstore\n    /* \"#utility.yul\":3683:3687   */\n  0x24\n    /* \"#utility.yul\":3680:3681   */\n  0x00\n    /* \"#utility.yul\":3673:3688   */\n  revert\n    /* \"#utility.yul\":3700:3802   */\ntag_57:\n  0x00\n    /* \"#utility.yul\":3792:3794   */\n  0x1f\n    /* \"#utility.yul\":3788:3795   */\n  not\n    /* \"#utility.yul\":3783:3785   */\n  0x1f\n    /* \"#utility.yul\":3776:3781   */\n  dup4\n    /* \"#utility.yul\":3772:3786   */\n  add\n    /* \"#utility.yul\":3768:3796   */\n  and\n    /* \"#utility.yul\":3758:3796   */\n  swap1\n  pop\n    /* \"#utility.yul\":3748:3802   */\n  swap2\n  swap1\n  pop\n  jump\t// out\n    /* \"#utility.yul\":3808:3930   */\ntag_34:\n    /* \"#utility.yul\":3881:3905   */\n  tag_81\n    /* \"#utility.yul\":3899:3904   */\n  dup2\n    /* \"#utility.yul\":3881:3905   */\n  tag_58\n  jump\t// in\ntag_81:\n    /* \"#utility.yul\":3874:3879   */\n  dup2\n    /* \"#utility.yul\":3871:3906   */\n  eq\n    /* \"#utility.yul\":3861:3863   */\n  tag_82\n  jumpi\n    /* \"#utility.yul\":3920:3921   */\n  0x00\n    /* \"#utility.yul\":3917:3918   */\n  dup1\n    /* \"#utility.yul\":3910:3922   */\n  revert\n    /* \"#utility.yul\":3861:3863   */\ntag_82:\n    /* \"#utility.yul\":3851:3930   */\n  pop\n  jump\t// out\n    /* \"contracts/GeekNft.sol\":83:2352  contract GeekNft {... */\ntag_9:\n  dataSize(sub_0)\n  dup1\n  dataOffset(sub_0)\n  0x00\n  codecopy\n  0x00\n  return\nstop\n\nsub_0: assembly {\n        /* \"contracts/GeekNft.sol\":83:2352  contract GeekNft {... */\n      mstore(0x40, 0x80)\n      callvalue\n      dup1\n      iszero\n      tag_1\n      jumpi\n      0x00\n      dup1\n      revert\n    tag_1:\n      pop\n      jumpi(tag_2, lt(calldatasize, 0x04))\n      shr(0xe0, calldataload(0x00))\n      dup1\n      0x06fdde03\n      eq\n      tag_3\n      jumpi\n      dup1\n      0x23b872dd\n      eq\n      tag_4\n      jumpi\n      dup1\n      0x95d89b41\n      eq\n      tag_5\n      jumpi\n      dup1\n      0xbf59b347\n      eq\n      tag_6\n      jumpi\n      dup1\n      0xd85d3d27\n      eq\n      tag_7\n      jumpi\n    tag_2:\n      0x00\n      dup1\n      revert\n        /* \"contracts/GeekNft.sol\":1070:1151  function name() public view returns (string memory) {... */\n    tag_3:\n      tag_8\n      tag_9\n      jump\t// in\n    tag_8:\n      mload(0x40)\n      tag_10\n      swap2\n      swap1\n      tag_11\n      jump\t// in\n    tag_10:\n      mload(0x40)\n      dup1\n      swap2\n      sub\n      swap1\n      return\n        /* \"contracts/GeekNft.sol\":1252:1677  function transferFrom(address _from, address _to, uint _tokenId) external {... */\n    tag_4:\n      tag_12\n      0x04\n      dup1\n      calldatasize\n      sub\n      dup2\n      add\n      swap1\n      tag_13\n      swap2\n      swap1\n      tag_14\n      jump\t// in\n    tag_13:\n      tag_15\n      jump\t// in\n    tag_12:\n      stop\n        /* \"contracts/GeekNft.sol\":1161:1246  function symbol() public view returns (string memory) {... */\n    tag_5:\n      tag_16\n      tag_17\n      jump\t// in\n    tag_16:\n      mload(0x40)\n      tag_18\n      swap2\n      swap1\n      tag_11\n      jump\t// in\n    tag_18:\n      mload(0x40)\n      dup1\n      swap2\n      sub\n      swap1\n      return\n        /* \"contracts/GeekNft.sol\":461:502  mapping(uint => string) public tokenToUri */\n    tag_6:\n      tag_19\n      0x04\n      dup1\n      calldatasize\n      sub\n      dup2\n      add\n      swap1\n      tag_20\n      swap2\n      swap1\n      tag_21\n      jump\t// in\n    tag_20:\n      tag_22\n      jump\t// in\n    tag_19:\n      mload(0x40)\n      tag_23\n      swap2\n      swap1\n      tag_11\n      jump\t// in\n    tag_23:\n      mload(0x40)\n      dup1\n      swap2\n      sub\n      swap1\n      return\n        /* \"contracts/GeekNft.sol\":810:1063  function mint(string memory _tokenUri) public {... */\n    tag_7:\n      tag_24\n      0x04\n      dup1\n      calldatasize\n      sub\n      dup2\n      add\n      swap1\n      tag_25\n      swap2\n      swap1\n      tag_26\n      jump\t// in\n    tag_25:\n      tag_27\n      jump\t// in\n    tag_24:\n      stop\n        /* \"contracts/GeekNft.sol\":1070:1151  function name() public view returns (string memory) {... */\n    tag_9:\n        /* \"contracts/GeekNft.sol\":1107:1120  string memory */\n      0x60\n        /* \"contracts/GeekNft.sol\":1139:1144  _name */\n      0x00\n        /* \"contracts/GeekNft.sol\":1132:1144  return _name */\n      dup1\n      sload\n      tag_29\n      swap1\n      tag_30\n      jump\t// in\n    tag_29:\n      dup1\n      0x1f\n      add\n      0x20\n      dup1\n      swap2\n      div\n      mul\n      0x20\n      add\n      mload(0x40)\n      swap1\n      dup2\n      add\n      0x40\n      mstore\n      dup1\n      swap3\n      swap2\n      swap1\n      dup2\n      dup2\n      mstore\n      0x20\n      add\n      dup3\n      dup1\n      sload\n      tag_31\n      swap1\n      tag_30\n      jump\t// in\n    tag_31:\n      dup1\n      iszero\n      tag_32\n      jumpi\n      dup1\n      0x1f\n      lt\n      tag_33\n      jumpi\n      0x0100\n      dup1\n      dup4\n      sload\n      div\n      mul\n      dup4\n      mstore\n      swap2\n      0x20\n      add\n      swap2\n      jump(tag_32)\n    tag_33:\n      dup3\n      add\n      swap2\n      swap1\n      0x00\n      mstore\n      keccak256(0x00, 0x20)\n      swap1\n    tag_34:\n      dup2\n      sload\n      dup2\n      mstore\n      swap1\n      0x01\n      add\n      swap1\n      0x20\n      add\n      dup1\n      dup4\n      gt\n      tag_34\n      jumpi\n      dup3\n      swap1\n      sub\n      0x1f\n      and\n      dup3\n      add\n      swap2\n    tag_32:\n      pop\n      pop\n      pop\n      pop\n      pop\n      swap1\n      pop\n        /* \"contracts/GeekNft.sol\":1070:1151  function name() public view returns (string memory) {... */\n      swap1\n      jump\t// out\n        /* \"contracts/GeekNft.sol\":1252:1677  function transferFrom(address _from, address _to, uint _tokenId) external {... */\n    tag_15:\n        /* \"contracts/GeekNft.sol\":1370:1375  _from */\n      dup3\n        /* \"contracts/GeekNft.sol\":1344:1375  tokenToOwner[_tokenId] == _from */\n      0xffffffffffffffffffffffffffffffffffffffff\n      and\n        /* \"contracts/GeekNft.sol\":1344:1356  tokenToOwner */\n      0x05\n        /* \"contracts/GeekNft.sol\":1344:1366  tokenToOwner[_tokenId] */\n      0x00\n        /* \"contracts/GeekNft.sol\":1357:1365  _tokenId */\n      dup4\n        /* \"contracts/GeekNft.sol\":1344:1366  tokenToOwner[_tokenId] */\n      dup2\n      mstore\n      0x20\n      add\n      swap1\n      dup2\n      mstore\n      0x20\n      add\n      0x00\n      keccak256\n      0x00\n      swap1\n      sload\n      swap1\n      0x0100\n      exp\n      swap1\n      div\n      0xffffffffffffffffffffffffffffffffffffffff\n      and\n        /* \"contracts/GeekNft.sol\":1344:1375  tokenToOwner[_tokenId] == _from */\n      0xffffffffffffffffffffffffffffffffffffffff\n      and\n      eq\n        /* \"contracts/GeekNft.sol\":1336:1403  require(tokenToOwner[_tokenId] == _from, \"Not called by the owner\") */\n      tag_36\n      jumpi\n      mload(0x40)\n      0x08c379a000000000000000000000000000000000000000000000000000000000\n      dup2\n      mstore\n      0x04\n      add\n      tag_37\n      swap1\n      tag_38\n      jump\t// in\n    tag_37:\n      mload(0x40)\n      dup1\n      swap2\n      sub\n      swap1\n      revert\n    tag_36:\n        /* \"contracts/GeekNft.sol\":1436:1437  0 */\n      0x00\n        /* \"contracts/GeekNft.sol\":1421:1438  _to != address(0) */\n      0xffffffffffffffffffffffffffffffffffffffff\n      and\n        /* \"contracts/GeekNft.sol\":1421:1424  _to */\n      dup3\n        /* \"contracts/GeekNft.sol\":1421:1438  _to != address(0) */\n      0xffffffffffffffffffffffffffffffffffffffff\n      and\n      eq\n      iszero\n        /* \"contracts/GeekNft.sol\":1413:1479  require(_to != address(0), \"ERC721: transfer to the zero address\") */\n      tag_39\n      jumpi\n      mload(0x40)\n      0x08c379a000000000000000000000000000000000000000000000000000000000\n      dup2\n      mstore\n      0x04\n      add\n      tag_40\n      swap1\n      tag_41\n      jump\t// in\n    tag_40:\n      mload(0x40)\n      dup1\n      swap2\n      sub\n      swap1\n      revert\n    tag_39:\n        /* \"contracts/GeekNft.sol\":1513:1529  tokensOwnerCount */\n      0x04\n        /* \"contracts/GeekNft.sol\":1513:1536  tokensOwnerCount[_from] */\n      0x00\n        /* \"contracts/GeekNft.sol\":1530:1535  _from */\n      dup5\n        /* \"contracts/GeekNft.sol\":1513:1536  tokensOwnerCount[_from] */\n      0xffffffffffffffffffffffffffffffffffffffff\n      and\n      0xffffffffffffffffffffffffffffffffffffffff\n      and\n      dup2\n      mstore\n      0x20\n      add\n      swap1\n      dup2\n      mstore\n      0x20\n      add\n      0x00\n      keccak256\n      0x00\n        /* \"contracts/GeekNft.sol\":1513:1538  tokensOwnerCount[_from]-- */\n      dup2\n      sload\n      dup1\n      swap3\n      swap2\n      swap1\n      0x01\n      swap1\n      sub\n      swap2\n      swap1\n      pop\n      sstore\n      pop\n        /* \"contracts/GeekNft.sol\":1552:1568  tokensOwnerCount */\n      0x04\n        /* \"contracts/GeekNft.sol\":1552:1573  tokensOwnerCount[_to] */\n      0x00\n        /* \"contracts/GeekNft.sol\":1569:1572  _to */\n      dup4\n        /* \"contracts/GeekNft.sol\":1552:1573  tokensOwnerCount[_to] */\n      0xffffffffffffffffffffffffffffffffffffffff\n      and\n      0xffffffffffffffffffffffffffffffffffffffff\n      and\n      dup2\n      mstore\n      0x20\n      add\n      swap1\n      dup2\n      mstore\n      0x20\n      add\n      0x00\n      keccak256\n      0x00\n        /* \"contracts/GeekNft.sol\":1552:1575  tokensOwnerCount[_to]++ */\n      dup2\n      sload\n      dup1\n      swap3\n      swap2\n      swap1\n      0x01\n      add\n      swap2\n      swap1\n      pop\n      sstore\n      pop\n        /* \"contracts/GeekNft.sol\":1621:1624  _to */\n      dup2\n        /* \"contracts/GeekNft.sol\":1596:1608  tokenToOwner */\n      0x05\n        /* \"contracts/GeekNft.sol\":1596:1618  tokenToOwner[_tokenId] */\n      0x00\n        /* \"contracts/GeekNft.sol\":1609:1617  _tokenId */\n      dup4\n        /* \"contracts/GeekNft.sol\":1596:1618  tokenToOwner[_tokenId] */\n      dup2\n      mstore\n      0x20\n      add\n      swap1\n      dup2\n      mstore\n      0x20\n      add\n      0x00\n      keccak256\n      0x00\n        /* \"contracts/GeekNft.sol\":1596:1624  tokenToOwner[_tokenId] = _to */\n      0x0100\n      exp\n      dup2\n      sload\n      dup2\n      0xffffffffffffffffffffffffffffffffffffffff\n      mul\n      not\n      and\n      swap1\n      dup4\n      0xffffffffffffffffffffffffffffffffffffffff\n      and\n      mul\n      or\n      swap1\n      sstore\n      pop\n        /* \"contracts/GeekNft.sol\":1656:1659  _to */\n      dup2\n        /* \"contracts/GeekNft.sol\":1640:1670  Transfer(_from, _to, _tokenId) */\n      0xffffffffffffffffffffffffffffffffffffffff\n      and\n        /* \"contracts/GeekNft.sol\":1649:1654  _from */\n      dup4\n        /* \"contracts/GeekNft.sol\":1640:1670  Transfer(_from, _to, _tokenId) */\n      0xffffffffffffffffffffffffffffffffffffffff\n      and\n      0xddf252ad1be2c89b69c2b068fc378daa952ba7f163c4a11628f55a4df523b3ef\n        /* \"contracts/GeekNft.sol\":1661:1669  _tokenId */\n      dup4\n        /* \"contracts/GeekNft.sol\":1640:1670  Transfer(_from, _to, _tokenId) */\n      mload(0x40)\n      tag_42\n      swap2\n      swap1\n      tag_43\n      jump\t// in\n    tag_42:\n      mload(0x40)\n      dup1\n      swap2\n      sub\n      swap1\n      log3\n        /* \"contracts/GeekNft.sol\":1252:1677  function transferFrom(address _from, address _to, uint _tokenId) external {... */\n      pop\n      pop\n      pop\n      jump\t// out\n        /* \"contracts/GeekNft.sol\":1161:1246  function symbol() public view returns (string memory) {... */\n    tag_17:\n        /* \"contracts/GeekNft.sol\":1200:1213  string memory */\n      0x60\n        /* \"contracts/GeekNft.sol\":1232:1239  _symbol */\n      0x01\n        /* \"contracts/GeekNft.sol\":1225:1239  return _symbol */\n      dup1\n      sload\n      tag_45\n      swap1\n      tag_30\n      jump\t// in\n    tag_45:\n      dup1\n      0x1f\n      add\n      0x20\n      dup1\n      swap2\n      div\n      mul\n      0x20\n      add\n      mload(0x40)\n      swap1\n      dup2\n      add\n      0x40\n      mstore\n      dup1\n      swap3\n      swap2\n      swap1\n      dup2\n      dup2\n      mstore\n      0x20\n      add\n      dup3\n      dup1\n      sload\n      tag_46\n      swap1\n      tag_30\n      jump\t// in\n    tag_46:\n      dup1\n      iszero\n      tag_47\n      jumpi\n      dup1\n      0x1f\n      lt\n      tag_48\n      jumpi\n      0x0100\n      dup1\n      dup4\n      sload\n      div\n      mul\n      dup4\n      mstore\n      swap2\n      0x20\n      add\n      swap2\n      jump(tag_47)\n    tag_48:\n      dup3\n      add\n      swap2\n      swap1\n      0x00\n      mstore\n      keccak256(0x00, 0x20)\n      swap1\n    tag_49:\n      dup2\n      sload\n      dup2\n      mstore\n      swap1\n      0x01\n      add\n      swap1\n      0x20\n      add\n      dup1\n      dup4\n      gt\n      tag_49\n      jumpi\n      dup3\n      swap1\n      sub\n      0x1f\n      and\n      dup3\n      add\n      swap2\n    tag_47:\n      pop\n      pop\n      pop\n      pop\n      pop\n      swap1\n      pop\n        /* \"contracts/GeekNft.sol\":1161:1246  function symbol() public view returns (string memory) {... */\n      swap1\n      jump\t// out\n        /* \"contracts/GeekNft.sol\":461:502  mapping(uint => string) public tokenToUri */\n    tag_22:\n      mstore(0x20, 0x08)\n      dup1\n      0x00\n      mstore\n      keccak256(0x00, 0x40)\n      0x00\n      swap2\n      pop\n      swap1\n      pop\n      dup1\n      sload\n      tag_50\n      swap1\n      tag_30\n      jump\t// in\n    tag_50:\n      dup1\n      0x1f\n      add\n      0x20\n      dup1\n      swap2\n      div\n      mul\n      0x20\n      add\n      mload(0x40)\n      swap1\n      dup2\n      add\n      0x40\n      mstore\n      dup1\n      swap3\n      swap2\n      swap1\n      dup2\n      dup2\n      mstore\n      0x20\n      add\n      dup3\n      dup1\n      sload\n      tag_51\n      swap1\n      tag_30\n      jump\t// in\n    tag_51:\n      dup1\n      iszero\n      tag_52\n      jumpi\n      dup1\n      0x1f\n      lt\n      tag_53\n      jumpi\n      0x0100\n      dup1\n      dup4\n      sload\n      div\n      mul\n      dup4\n      mstore\n      swap2\n      0x20\n      add\n      swap2\n      jump(tag_52)\n    tag_53:\n      dup3\n      add\n      swap2\n      swap1\n      0x00\n      mstore\n      keccak256(0x00, 0x20)\n      swap1\n    tag_54:\n      dup2\n      sload\n      dup2\n      mstore\n      swap1\n      0x01\n      add\n      swap1\n      0x20\n      add\n      dup1\n      dup4\n      gt\n      tag_54\n      jumpi\n      dup3\n      swap1\n      sub\n      0x1f\n      and\n      dup3\n      add\n      swap2\n    tag_52:\n      pop\n      pop\n      pop\n      pop\n      pop\n      dup2\n      jump\t// out\n        /* \"contracts/GeekNft.sol\":810:1063  function mint(string memory _tokenUri) public {... */\n    tag_27:\n        /* \"contracts/GeekNft.sol\":866:886  tokenIds.increment() */\n      tag_56\n        /* \"contracts/GeekNft.sol\":866:874  tokenIds */\n      0x02\n        /* \"contracts/GeekNft.sol\":866:884  tokenIds.increment */\n      tag_57\n        /* \"contracts/GeekNft.sol\":866:886  tokenIds.increment() */\n      jump\t// in\n    tag_56:\n        /* \"contracts/GeekNft.sol\":896:911  uint newTokenId */\n      0x00\n        /* \"contracts/GeekNft.sol\":914:932  tokenIds.current() */\n      tag_58\n        /* \"contracts/GeekNft.sol\":914:922  tokenIds */\n      0x02\n        /* \"contracts/GeekNft.sol\":914:930  tokenIds.current */\n      tag_59\n        /* \"contracts/GeekNft.sol\":914:932  tokenIds.current() */\n      jump\t// in\n    tag_58:\n        /* \"contracts/GeekNft.sol\":896:932  uint newTokenId = tokenIds.current() */\n      swap1\n      pop\n        /* \"contracts/GeekNft.sol\":942:975  _safeMint(msg.sender, newTokenId) */\n      tag_60\n        /* \"contracts/GeekNft.sol\":952:962  msg.sender */\n      caller\n        /* \"contracts/GeekNft.sol\":964:974  newTokenId */\n      dup3\n        /* \"contracts/GeekNft.sol\":942:951  _safeMint */\n      tag_61\n        /* \"contracts/GeekNft.sol\":942:975  _safeMint(msg.sender, newTokenId) */\n      jump\t// in\n    tag_60:\n        /* \"contracts/GeekNft.sol\":985:1020  _setTokenUri(newTokenId, _tokenUri) */\n      tag_62\n        /* \"contracts/GeekNft.sol\":998:1008  newTokenId */\n      dup2\n        /* \"contracts/GeekNft.sol\":1010:1019  _tokenUri */\n      dup4\n        /* \"contracts/GeekNft.sol\":985:997  _setTokenUri */\n      tag_63\n        /* \"contracts/GeekNft.sol\":985:1020  _setTokenUri(newTokenId, _tokenUri) */\n      jump\t// in\n    tag_62:\n        /* \"contracts/GeekNft.sol\":1035:1056  NftMinted(newTokenId) */\n      0x7f8949b6eca2b14d0feb1af0844a112998e467a4f88b8683301f3a6e409f32ae\n        /* \"contracts/GeekNft.sol\":1045:1055  newTokenId */\n      dup2\n        /* \"contracts/GeekNft.sol\":1035:1056  NftMinted(newTokenId) */\n      mload(0x40)\n      tag_64\n      swap2\n      swap1\n      tag_43\n      jump\t// in\n    tag_64:\n      mload(0x40)\n      dup1\n      swap2\n      sub\n      swap1\n      log1\n        /* \"contracts/GeekNft.sol\":810:1063  function mint(string memory _tokenUri) public {... */\n      pop\n      pop\n      jump\t// out\n        /* \"contracts/Counters.sol\":945:1068  function increment(Counter storage counter) internal {... */\n    tag_57:\n        /* \"contracts/Counters.sol\":1050:1051  1 */\n      0x01\n        /* \"contracts/Counters.sol\":1032:1039  counter */\n      dup2\n        /* \"contracts/Counters.sol\":1032:1046  counter._value */\n      0x00\n      add\n      0x00\n        /* \"contracts/Counters.sol\":1032:1051  counter._value += 1 */\n      dup3\n      dup3\n      sload\n      add\n      swap3\n      pop\n      pop\n      dup2\n      swap1\n      sstore\n      pop\n        /* \"contracts/Counters.sol\":945:1068  function increment(Counter storage counter) internal {... */\n      pop\n      jump\t// out\n        /* \"contracts/Counters.sol\":827:939  function current(Counter storage counter) internal view returns (uint256) {... */\n    tag_59:\n        /* \"contracts/Counters.sol\":892:899  uint256 */\n      0x00\n        /* \"contracts/Counters.sol\":918:925  counter */\n      dup2\n        /* \"contracts/Counters.sol\":918:932  counter._value */\n      0x00\n      add\n      sload\n        /* \"contracts/Counters.sol\":911:932  return counter._value */\n      swap1\n      pop\n        /* \"contracts/Counters.sol\":827:939  function current(Counter storage counter) internal view returns (uint256) {... */\n      swap2\n      swap1\n      pop\n      jump\t// out\n        /* \"contracts/GeekNft.sol\":1703:2144  function _safeMint(address _to, uint _tokenId) private{... */\n    tag_61:\n        /* \"contracts/GeekNft.sol\":1811:1812  0 */\n      0x00\n        /* \"contracts/GeekNft.sol\":1775:1813  tokenToCreator[_tokenId] == address(0) */\n      0xffffffffffffffffffffffffffffffffffffffff\n      and\n        /* \"contracts/GeekNft.sol\":1775:1789  tokenToCreator */\n      0x07\n        /* \"contracts/GeekNft.sol\":1775:1799  tokenToCreator[_tokenId] */\n      0x00\n        /* \"contracts/GeekNft.sol\":1790:1798  _tokenId */\n      dup4\n        /* \"contracts/GeekNft.sol\":1775:1799  tokenToCreator[_tokenId] */\n      dup2\n      mstore\n      0x20\n      add\n      swap1\n      dup2\n      mstore\n      0x20\n      add\n      0x00\n      keccak256\n      0x00\n      swap1\n      sload\n      swap1\n      0x0100\n      exp\n      swap1\n      div\n      0xffffffffffffffffffffffffffffffffffffffff\n      and\n        /* \"contracts/GeekNft.sol\":1775:1813  tokenToCreator[_tokenId] == address(0) */\n      0xffffffffffffffffffffffffffffffffffffffff\n      and\n      eq\n        /* \"contracts/GeekNft.sol\":1767:1837  require(tokenToCreator[_tokenId] == address(0), \"token already exist\") */\n      tag_68\n      jumpi\n      mload(0x40)\n      0x08c379a000000000000000000000000000000000000000000000000000000000\n      dup2\n      mstore\n      0x04\n      add\n      tag_69\n      swap1\n      tag_70\n      jump\t// in\n    tag_69:\n      mload(0x40)\n      dup1\n      swap2\n      sub\n      swap1\n      revert\n    tag_68:\n        /* \"contracts/GeekNft.sol\":1870:1871  0 */\n      0x00\n        /* \"contracts/GeekNft.sol\":1855:1872  _to != address(0) */\n      0xffffffffffffffffffffffffffffffffffffffff\n      and\n        /* \"contracts/GeekNft.sol\":1855:1858  _to */\n      dup3\n        /* \"contracts/GeekNft.sol\":1855:1872  _to != address(0) */\n      0xffffffffffffffffffffffffffffffffffffffff\n      and\n      eq\n      iszero\n        /* \"contracts/GeekNft.sol\":1847:1901  require(_to != address(0), \"mint to the zero address\") */\n      tag_71\n      jumpi\n      mload(0x40)\n      0x08c379a000000000000000000000000000000000000000000000000000000000\n      dup2\n      mstore\n      0x04\n      add\n      tag_72\n      swap1\n      tag_73\n      jump\t// in\n    tag_72:\n      mload(0x40)\n      dup1\n      swap2\n      sub\n      swap1\n      revert\n    tag_71:\n        /* \"contracts/GeekNft.sol\":1935:1951  tokensOwnerCount */\n      0x04\n        /* \"contracts/GeekNft.sol\":1935:1956  tokensOwnerCount[_to] */\n      0x00\n        /* \"contracts/GeekNft.sol\":1952:1955  _to */\n      dup4\n        /* \"contracts/GeekNft.sol\":1935:1956  tokensOwnerCount[_to] */\n      0xffffffffffffffffffffffffffffffffffffffff\n      and\n      0xffffffffffffffffffffffffffffffffffffffff\n      and\n      dup2\n      mstore\n      0x20\n      add\n      swap1\n      dup2\n      mstore\n      0x20\n      add\n      0x00\n      keccak256\n      0x00\n        /* \"contracts/GeekNft.sol\":1935:1958  tokensOwnerCount[_to]++ */\n      dup2\n      sload\n      dup1\n      swap3\n      swap2\n      swap1\n      0x01\n      add\n      swap2\n      swap1\n      pop\n      sstore\n      pop\n        /* \"contracts/GeekNft.sol\":1972:1990  tokensCreatorCount */\n      0x06\n        /* \"contracts/GeekNft.sol\":1972:1995  tokensCreatorCount[_to] */\n      0x00\n        /* \"contracts/GeekNft.sol\":1991:1994  _to */\n      dup4\n        /* \"contracts/GeekNft.sol\":1972:1995  tokensCreatorCount[_to] */\n      0xffffffffffffffffffffffffffffffffffffffff\n      and\n      0xffffffffffffffffffffffffffffffffffffffff\n      and\n      dup2\n      mstore\n      0x20\n      add\n      swap1\n      dup2\n      mstore\n      0x20\n      add\n      0x00\n      keccak256\n      0x00\n        /* \"contracts/GeekNft.sol\":1972:1997  tokensCreatorCount[_to]++ */\n      dup2\n      sload\n      dup1\n      swap3\n      swap2\n      swap1\n      0x01\n      add\n      swap2\n      swap1\n      pop\n      sstore\n      pop\n        /* \"contracts/GeekNft.sol\":2043:2046  _to */\n      dup2\n        /* \"contracts/GeekNft.sol\":2018:2030  tokenToOwner */\n      0x05\n        /* \"contracts/GeekNft.sol\":2018:2040  tokenToOwner[_tokenId] */\n      0x00\n        /* \"contracts/GeekNft.sol\":2031:2039  _tokenId */\n      dup4\n        /* \"contracts/GeekNft.sol\":2018:2040  tokenToOwner[_tokenId] */\n      dup2\n      mstore\n      0x20\n      add\n      swap1\n      dup2\n      mstore\n      0x20\n      add\n      0x00\n      keccak256\n      0x00\n        /* \"contracts/GeekNft.sol\":2018:2046  tokenToOwner[_tokenId] = _to */\n      0x0100\n      exp\n      dup2\n      sload\n      dup2\n      0xffffffffffffffffffffffffffffffffffffffff\n      mul\n      not\n      and\n      swap1\n      dup4\n      0xffffffffffffffffffffffffffffffffffffffff\n      and\n      mul\n      or\n      swap1\n      sstore\n      pop\n        /* \"contracts/GeekNft.sol\":2083:2086  _to */\n      dup2\n        /* \"contracts/GeekNft.sol\":2056:2070  tokenToCreator */\n      0x07\n        /* \"contracts/GeekNft.sol\":2056:2080  tokenToCreator[_tokenId] */\n      0x00\n        /* \"contracts/GeekNft.sol\":2071:2079  _tokenId */\n      dup4\n        /* \"contracts/GeekNft.sol\":2056:2080  tokenToCreator[_tokenId] */\n      dup2\n      mstore\n      0x20\n      add\n      swap1\n      dup2\n      mstore\n      0x20\n      add\n      0x00\n      keccak256\n      0x00\n        /* \"contracts/GeekNft.sol\":2056:2086  tokenToCreator[_tokenId] = _to */\n      0x0100\n      exp\n      dup2\n      sload\n      dup2\n      0xffffffffffffffffffffffffffffffffffffffff\n      mul\n      not\n      and\n      swap1\n      dup4\n      0xffffffffffffffffffffffffffffffffffffffff\n      and\n      mul\n      or\n      swap1\n      sstore\n      pop\n        /* \"contracts/GeekNft.sol\":2123:2126  _to */\n      dup2\n        /* \"contracts/GeekNft.sol\":2102:2137  Transfer(address(0), _to, _tokenId) */\n      0xffffffffffffffffffffffffffffffffffffffff\n      and\n        /* \"contracts/GeekNft.sol\":2119:2120  0 */\n      0x00\n        /* \"contracts/GeekNft.sol\":2102:2137  Transfer(address(0), _to, _tokenId) */\n      0xffffffffffffffffffffffffffffffffffffffff\n      and\n      0xddf252ad1be2c89b69c2b068fc378daa952ba7f163c4a11628f55a4df523b3ef\n        /* \"contracts/GeekNft.sol\":2128:2136  _tokenId */\n      dup4\n        /* \"contracts/GeekNft.sol\":2102:2137  Transfer(address(0), _to, _tokenId) */\n      mload(0x40)\n      tag_74\n      swap2\n      swap1\n      tag_43\n      jump\t// in\n    tag_74:\n      mload(0x40)\n      dup1\n      swap2\n      sub\n      swap1\n      log3\n        /* \"contracts/GeekNft.sol\":1703:2144  function _safeMint(address _to, uint _tokenId) private{... */\n      pop\n      pop\n      jump\t// out\n        /* \"contracts/GeekNft.sol\":2150:2349  function _setTokenUri(uint _tokenId, string memory _tokenUri) private {... */\n    tag_63:\n        /* \"contracts/GeekNft.sol\":2274:2275  0 */\n      0x00\n        /* \"contracts/GeekNft.sol\":2238:2276  tokenToCreator[_tokenId] != address(0) */\n      0xffffffffffffffffffffffffffffffffffffffff\n      and\n        /* \"contracts/GeekNft.sol\":2238:2252  tokenToCreator */\n      0x07\n        /* \"contracts/GeekNft.sol\":2238:2262  tokenToCreator[_tokenId] */\n      0x00\n        /* \"contracts/GeekNft.sol\":2253:2261  _tokenId */\n      dup5\n        /* \"contracts/GeekNft.sol\":2238:2262  tokenToCreator[_tokenId] */\n      dup2\n      mstore\n      0x20\n      add\n      swap1\n      dup2\n      mstore\n      0x20\n      add\n      0x00\n      keccak256\n      0x00\n      swap1\n      sload\n      swap1\n      0x0100\n      exp\n      swap1\n      div\n      0xffffffffffffffffffffffffffffffffffffffff\n      and\n        /* \"contracts/GeekNft.sol\":2238:2276  tokenToCreator[_tokenId] != address(0) */\n      0xffffffffffffffffffffffffffffffffffffffff\n      and\n      eq\n      iszero\n        /* \"contracts/GeekNft.sol\":2230:2300  require(tokenToCreator[_tokenId] != address(0), \"token doesn't exist\") */\n      tag_76\n      jumpi\n      mload(0x40)\n      0x08c379a000000000000000000000000000000000000000000000000000000000\n      dup2\n      mstore\n      0x04\n      add\n      tag_77\n      swap1\n      tag_78\n      jump\t// in\n    tag_77:\n      mload(0x40)\n      dup1\n      swap2\n      sub\n      swap1\n      revert\n    tag_76:\n        /* \"contracts/GeekNft.sol\":2333:2342  _tokenUri */\n      dup1\n        /* \"contracts/GeekNft.sol\":2310:2320  tokenToUri */\n      0x08\n        /* \"contracts/GeekNft.sol\":2310:2330  tokenToUri[_tokenId] */\n      0x00\n        /* \"contracts/GeekNft.sol\":2321:2329  _tokenId */\n      dup5\n        /* \"contracts/GeekNft.sol\":2310:2330  tokenToUri[_tokenId] */\n      dup2\n      mstore\n      0x20\n      add\n      swap1\n      dup2\n      mstore\n      0x20\n      add\n      0x00\n      keccak256\n        /* \"contracts/GeekNft.sol\":2310:2342  tokenToUri[_tokenId] = _tokenUri */\n      swap1\n      dup1\n      mload\n      swap1\n      0x20\n      add\n      swap1\n      tag_79\n      swap3\n      swap2\n      swap1\n      tag_80\n      jump\t// in\n    tag_79:\n      pop\n        /* \"contracts/GeekNft.sol\":2150:2349  function _setTokenUri(uint _tokenId, string memory _tokenUri) private {... */\n      pop\n      pop\n      jump\t// out\n    tag_80:\n      dup3\n      dup1\n      sload\n      tag_81\n      swap1\n      tag_30\n      jump\t// in\n    tag_81:\n      swap1\n      0x00\n      mstore\n      keccak256(0x00, 0x20)\n      swap1\n      0x1f\n      add\n      0x20\n      swap1\n      div\n      dup2\n      add\n      swap3\n      dup3\n      tag_83\n      jumpi\n      0x00\n      dup6\n      sstore\n      jump(tag_82)\n    tag_83:\n      dup3\n      0x1f\n      lt\n      tag_84\n      jumpi\n      dup1\n      mload\n      not(0xff)\n      and\n      dup4\n      dup1\n      add\n      or\n      dup6\n      sstore\n      jump(tag_82)\n    tag_84:\n      dup3\n      dup1\n      add\n      0x01\n      add\n      dup6\n      sstore\n      dup3\n      iszero\n      tag_82\n      jumpi\n      swap2\n      dup3\n      add\n    tag_85:\n      dup3\n      dup2\n      gt\n      iszero\n      tag_86\n      jumpi\n      dup3\n      mload\n      dup3\n      sstore\n      swap2\n      0x20\n      add\n      swap2\n      swap1\n      0x01\n      add\n      swap1\n      jump(tag_85)\n    tag_86:\n    tag_82:\n      pop\n      swap1\n      pop\n      tag_87\n      swap2\n      swap1\n      tag_88\n      jump\t// in\n    tag_87:\n      pop\n      swap1\n      jump\t// out\n    tag_88:\n    tag_89:\n      dup1\n      dup3\n      gt\n      iszero\n      tag_90\n      jumpi\n      0x00\n      dup2\n      0x00\n      swap1\n      sstore\n      pop\n      0x01\n      add\n      jump(tag_89)\n    tag_90:\n      pop\n      swap1\n      jump\t// out\n        /* \"#utility.yul\":7:352   */\n    tag_92:\n      0x00\n        /* \"#utility.yul\":110:176   */\n      tag_94\n        /* \"#utility.yul\":126:175   */\n      tag_95\n        /* \"#utility.yul\":168:174   */\n      dup5\n        /* \"#utility.yul\":126:175   */\n      tag_96\n      jump\t// in\n    tag_95:\n        /* \"#utility.yul\":110:176   */\n      tag_97\n      jump\t// in\n    tag_94:\n        /* \"#utility.yul\":101:176   */\n      swap1\n      pop\n        /* \"#utility.yul\":199:205   */\n      dup3\n        /* \"#utility.yul\":192:197   */\n      dup2\n        /* \"#utility.yul\":185:206   */\n      mstore\n        /* \"#utility.yul\":237:241   */\n      0x20\n        /* \"#utility.yul\":230:235   */\n      dup2\n        /* \"#utility.yul\":226:242   */\n      add\n        /* \"#utility.yul\":275:278   */\n      dup5\n        /* \"#utility.yul\":266:272   */\n      dup5\n        /* \"#utility.yul\":261:264   */\n      dup5\n        /* \"#utility.yul\":257:273   */\n      add\n        /* \"#utility.yul\":254:279   */\n      gt\n        /* \"#utility.yul\":251:253   */\n      iszero\n      tag_98\n      jumpi\n        /* \"#utility.yul\":292:293   */\n      0x00\n        /* \"#utility.yul\":289:290   */\n      dup1\n        /* \"#utility.yul\":282:294   */\n      revert\n        /* \"#utility.yul\":251:253   */\n    tag_98:\n        /* \"#utility.yul\":305:346   */\n      tag_99\n        /* \"#utility.yul\":339:345   */\n      dup5\n        /* \"#utility.yul\":334:337   */\n      dup3\n        /* \"#utility.yul\":329:332   */\n      dup6\n        /* \"#utility.yul\":305:346   */\n      tag_100\n      jump\t// in\n    tag_99:\n        /* \"#utility.yul\":91:352   */\n      pop\n      swap4\n      swap3\n      pop\n      pop\n      pop\n      jump\t// out\n        /* \"#utility.yul\":358:497   */\n    tag_101:\n      0x00\n        /* \"#utility.yul\":442:448   */\n      dup2\n        /* \"#utility.yul\":429:449   */\n      calldataload\n        /* \"#utility.yul\":420:449   */\n      swap1\n      pop\n        /* \"#utility.yul\":458:491   */\n      tag_103\n        /* \"#utility.yul\":485:490   */\n      dup2\n        /* \"#utility.yul\":458:491   */\n      tag_104\n      jump\t// in\n    tag_103:\n        /* \"#utility.yul\":410:497   */\n      swap3\n      swap2\n      pop\n      pop\n      jump\t// out\n        /* \"#utility.yul\":517:790   */\n    tag_105:\n      0x00\n        /* \"#utility.yul\":622:625   */\n      dup3\n        /* \"#utility.yul\":615:619   */\n      0x1f\n        /* \"#utility.yul\":607:613   */\n      dup4\n        /* \"#utility.yul\":603:620   */\n      add\n        /* \"#utility.yul\":599:626   */\n      slt\n        /* \"#utility.yul\":589:591   */\n      tag_107\n      jumpi\n        /* \"#utility.yul\":640:641   */\n      0x00\n        /* \"#utility.yul\":637:638   */\n      dup1\n        /* \"#utility.yul\":630:642   */\n      revert\n        /* \"#utility.yul\":589:591   */\n    tag_107:\n        /* \"#utility.yul\":680:686   */\n      dup2\n        /* \"#utility.yul\":667:687   */\n      calldataload\n        /* \"#utility.yul\":705:784   */\n      tag_108\n        /* \"#utility.yul\":780:783   */\n      dup5\n        /* \"#utility.yul\":772:778   */\n      dup3\n        /* \"#utility.yul\":765:769   */\n      0x20\n        /* \"#utility.yul\":757:763   */\n      dup7\n        /* \"#utility.yul\":753:770   */\n      add\n        /* \"#utility.yul\":705:784   */\n      tag_92\n      jump\t// in\n    tag_108:\n        /* \"#utility.yul\":696:784   */\n      swap2\n      pop\n        /* \"#utility.yul\":579:790   */\n      pop\n      swap3\n      swap2\n      pop\n      pop\n      jump\t// out\n        /* \"#utility.yul\":796:935   */\n    tag_109:\n      0x00\n        /* \"#utility.yul\":880:886   */\n      dup2\n        /* \"#utility.yul\":867:887   */\n      calldataload\n        /* \"#utility.yul\":858:887   */\n      swap1\n      pop\n        /* \"#utility.yul\":896:929   */\n      tag_111\n        /* \"#utility.yul\":923:928   */\n      dup2\n        /* \"#utility.yul\":896:929   */\n      tag_112\n      jump\t// in\n    tag_111:\n        /* \"#utility.yul\":848:935   */\n      swap3\n      swap2\n      pop\n      pop\n      jump\t// out\n        /* \"#utility.yul\":941:1493   */\n    tag_14:\n      0x00\n      dup1\n      0x00\n        /* \"#utility.yul\":1083:1085   */\n      0x60\n        /* \"#utility.yul\":1071:1080   */\n      dup5\n        /* \"#utility.yul\":1062:1069   */\n      dup7\n        /* \"#utility.yul\":1058:1081   */\n      sub\n        /* \"#utility.yul\":1054:1086   */\n      slt\n        /* \"#utility.yul\":1051:1053   */\n      iszero\n      tag_114\n      jumpi\n        /* \"#utility.yul\":1099:1100   */\n      0x00\n        /* \"#utility.yul\":1096:1097   */\n      dup1\n        /* \"#utility.yul\":1089:1101   */\n      revert\n        /* \"#utility.yul\":1051:1053   */\n    tag_114:\n        /* \"#utility.yul\":1142:1143   */\n      0x00\n        /* \"#utility.yul\":1167:1220   */\n      tag_115\n        /* \"#utility.yul\":1212:1219   */\n      dup7\n        /* \"#utility.yul\":1203:1209   */\n      dup3\n        /* \"#utility.yul\":1192:1201   */\n      dup8\n        /* \"#utility.yul\":1188:1210   */\n      add\n        /* \"#utility.yul\":1167:1220   */\n      tag_101\n      jump\t// in\n    tag_115:\n        /* \"#utility.yul\":1157:1220   */\n      swap4\n      pop\n        /* \"#utility.yul\":1113:1230   */\n      pop\n        /* \"#utility.yul\":1269:1271   */\n      0x20\n        /* \"#utility.yul\":1295:1348   */\n      tag_116\n        /* \"#utility.yul\":1340:1347   */\n      dup7\n        /* \"#utility.yul\":1331:1337   */\n      dup3\n        /* \"#utility.yul\":1320:1329   */\n      dup8\n        /* \"#utility.yul\":1316:1338   */\n      add\n        /* \"#utility.yul\":1295:1348   */\n      tag_101\n      jump\t// in\n    tag_116:\n        /* \"#utility.yul\":1285:1348   */\n      swap3\n      pop\n        /* \"#utility.yul\":1240:1358   */\n      pop\n        /* \"#utility.yul\":1397:1399   */\n      0x40\n        /* \"#utility.yul\":1423:1476   */\n      tag_117\n        /* \"#utility.yul\":1468:1475   */\n      dup7\n        /* \"#utility.yul\":1459:1465   */\n      dup3\n        /* \"#utility.yul\":1448:1457   */\n      dup8\n        /* \"#utility.yul\":1444:1466   */\n      add\n        /* \"#utility.yul\":1423:1476   */\n      tag_109\n      jump\t// in\n    tag_117:\n        /* \"#utility.yul\":1413:1476   */\n      swap2\n      pop\n        /* \"#utility.yul\":1368:1486   */\n      pop\n        /* \"#utility.yul\":1041:1493   */\n      swap3\n      pop\n      swap3\n      pop\n      swap3\n      jump\t// out\n        /* \"#utility.yul\":1499:1874   */\n    tag_26:\n      0x00\n        /* \"#utility.yul\":1617:1619   */\n      0x20\n        /* \"#utility.yul\":1605:1614   */\n      dup3\n        /* \"#utility.yul\":1596:1603   */\n      dup5\n        /* \"#utility.yul\":1592:1615   */\n      sub\n        /* \"#utility.yul\":1588:1620   */\n      slt\n        /* \"#utility.yul\":1585:1587   */\n      iszero\n      tag_119\n      jumpi\n        /* \"#utility.yul\":1633:1634   */\n      0x00\n        /* \"#utility.yul\":1630:1631   */\n      dup1\n        /* \"#utility.yul\":1623:1635   */\n      revert\n        /* \"#utility.yul\":1585:1587   */\n    tag_119:\n        /* \"#utility.yul\":1704:1705   */\n      0x00\n        /* \"#utility.yul\":1693:1702   */\n      dup3\n        /* \"#utility.yul\":1689:1706   */\n      add\n        /* \"#utility.yul\":1676:1707   */\n      calldataload\n        /* \"#utility.yul\":1734:1752   */\n      0xffffffffffffffff\n        /* \"#utility.yul\":1726:1732   */\n      dup2\n        /* \"#utility.yul\":1723:1753   */\n      gt\n        /* \"#utility.yul\":1720:1722   */\n      iszero\n      tag_120\n      jumpi\n        /* \"#utility.yul\":1766:1767   */\n      0x00\n        /* \"#utility.yul\":1763:1764   */\n      dup1\n        /* \"#utility.yul\":1756:1768   */\n      revert\n        /* \"#utility.yul\":1720:1722   */\n    tag_120:\n        /* \"#utility.yul\":1794:1857   */\n      tag_121\n        /* \"#utility.yul\":1849:1856   */\n      dup5\n        /* \"#utility.yul\":1840:1846   */\n      dup3\n        /* \"#utility.yul\":1829:1838   */\n      dup6\n        /* \"#utility.yul\":1825:1847   */\n      add\n        /* \"#utility.yul\":1794:1857   */\n      tag_105\n      jump\t// in\n    tag_121:\n        /* \"#utility.yul\":1784:1857   */\n      swap2\n      pop\n        /* \"#utility.yul\":1647:1867   */\n      pop\n        /* \"#utility.yul\":1575:1874   */\n      swap3\n      swap2\n      pop\n      pop\n      jump\t// out\n        /* \"#utility.yul\":1880:2142   */\n    tag_21:\n      0x00\n        /* \"#utility.yul\":1988:1990   */\n      0x20\n        /* \"#utility.yul\":1976:1985   */\n      dup3\n        /* \"#utility.yul\":1967:1974   */\n      dup5\n        /* \"#utility.yul\":1963:1986   */\n      sub\n        /* \"#utility.yul\":1959:1991   */\n      slt\n        /* \"#utility.yul\":1956:1958   */\n      iszero\n      tag_123\n      jumpi\n        /* \"#utility.yul\":2004:2005   */\n      0x00\n        /* \"#utility.yul\":2001:2002   */\n      dup1\n        /* \"#utility.yul\":1994:2006   */\n      revert\n        /* \"#utility.yul\":1956:1958   */\n    tag_123:\n        /* \"#utility.yul\":2047:2048   */\n      0x00\n        /* \"#utility.yul\":2072:2125   */\n      tag_124\n        /* \"#utility.yul\":2117:2124   */\n      dup5\n        /* \"#utility.yul\":2108:2114   */\n      dup3\n        /* \"#utility.yul\":2097:2106   */\n      dup6\n        /* \"#utility.yul\":2093:2115   */\n      add\n        /* \"#utility.yul\":2072:2125   */\n      tag_109\n      jump\t// in\n    tag_124:\n        /* \"#utility.yul\":2062:2125   */\n      swap2\n      pop\n        /* \"#utility.yul\":2018:2135   */\n      pop\n        /* \"#utility.yul\":1946:2142   */\n      swap3\n      swap2\n      pop\n      pop\n      jump\t// out\n        /* \"#utility.yul\":2148:2512   */\n    tag_125:\n      0x00\n        /* \"#utility.yul\":2264:2303   */\n      tag_127\n        /* \"#utility.yul\":2297:2302   */\n      dup3\n        /* \"#utility.yul\":2264:2303   */\n      tag_128\n      jump\t// in\n    tag_127:\n        /* \"#utility.yul\":2319:2390   */\n      tag_129\n        /* \"#utility.yul\":2383:2389   */\n      dup2\n        /* \"#utility.yul\":2378:2381   */\n      dup6\n        /* \"#utility.yul\":2319:2390   */\n      tag_130\n      jump\t// in\n    tag_129:\n        /* \"#utility.yul\":2312:2390   */\n      swap4\n      pop\n        /* \"#utility.yul\":2399:2451   */\n      tag_131\n        /* \"#utility.yul\":2444:2450   */\n      dup2\n        /* \"#utility.yul\":2439:2442   */\n      dup6\n        /* \"#utility.yul\":2432:2436   */\n      0x20\n        /* \"#utility.yul\":2425:2430   */\n      dup7\n        /* \"#utility.yul\":2421:2437   */\n      add\n        /* \"#utility.yul\":2399:2451   */\n      tag_132\n      jump\t// in\n    tag_131:\n        /* \"#utility.yul\":2476:2505   */\n      tag_133\n        /* \"#utility.yul\":2498:2504   */\n      dup2\n        /* \"#utility.yul\":2476:2505   */\n      tag_134\n      jump\t// in\n    tag_133:\n        /* \"#utility.yul\":2471:2474   */\n      dup5\n        /* \"#utility.yul\":2467:2506   */\n      add\n        /* \"#utility.yul\":2460:2506   */\n      swap2\n      pop\n        /* \"#utility.yul\":2240:2512   */\n      pop\n      swap3\n      swap2\n      pop\n      pop\n      jump\t// out\n        /* \"#utility.yul\":2518:2884   */\n    tag_135:\n      0x00\n        /* \"#utility.yul\":2681:2748   */\n      tag_137\n        /* \"#utility.yul\":2745:2747   */\n      0x24\n        /* \"#utility.yul\":2740:2743   */\n      dup4\n        /* \"#utility.yul\":2681:2748   */\n      tag_130\n      jump\t// in\n    tag_137:\n        /* \"#utility.yul\":2674:2748   */\n      swap2\n      pop\n        /* \"#utility.yul\":2757:2850   */\n      tag_138\n        /* \"#utility.yul\":2846:2849   */\n      dup3\n        /* \"#utility.yul\":2757:2850   */\n      tag_139\n      jump\t// in\n    tag_138:\n        /* \"#utility.yul\":2875:2877   */\n      0x40\n        /* \"#utility.yul\":2870:2873   */\n      dup3\n        /* \"#utility.yul\":2866:2878   */\n      add\n        /* \"#utility.yul\":2859:2878   */\n      swap1\n      pop\n        /* \"#utility.yul\":2664:2884   */\n      swap2\n      swap1\n      pop\n      jump\t// out\n        /* \"#utility.yul\":2890:3256   */\n    tag_140:\n      0x00\n        /* \"#utility.yul\":3053:3120   */\n      tag_142\n        /* \"#utility.yul\":3117:3119   */\n      0x13\n        /* \"#utility.yul\":3112:3115   */\n      dup4\n        /* \"#utility.yul\":3053:3120   */\n      tag_130\n      jump\t// in\n    tag_142:\n        /* \"#utility.yul\":3046:3120   */\n      swap2\n      pop\n        /* \"#utility.yul\":3129:3222   */\n      tag_143\n        /* \"#utility.yul\":3218:3221   */\n      dup3\n        /* \"#utility.yul\":3129:3222   */\n      tag_144\n      jump\t// in\n    tag_143:\n        /* \"#utility.yul\":3247:3249   */\n      0x20\n        /* \"#utility.yul\":3242:3245   */\n      dup3\n        /* \"#utility.yul\":3238:3250   */\n      add\n        /* \"#utility.yul\":3231:3250   */\n      swap1\n      pop\n        /* \"#utility.yul\":3036:3256   */\n      swap2\n      swap1\n      pop\n      jump\t// out\n        /* \"#utility.yul\":3262:3628   */\n    tag_145:\n      0x00\n        /* \"#utility.yul\":3425:3492   */\n      tag_147\n        /* \"#utility.yul\":3489:3491   */\n      0x13\n        /* \"#utility.yul\":3484:3487   */\n      dup4\n        /* \"#utility.yul\":3425:3492   */\n      tag_130\n      jump\t// in\n    tag_147:\n        /* \"#utility.yul\":3418:3492   */\n      swap2\n      pop\n        /* \"#utility.yul\":3501:3594   */\n      tag_148\n        /* \"#utility.yul\":3590:3593   */\n      dup3\n        /* \"#utility.yul\":3501:3594   */\n      tag_149\n      jump\t// in\n    tag_148:\n        /* \"#utility.yul\":3619:3621   */\n      0x20\n        /* \"#utility.yul\":3614:3617   */\n      dup3\n        /* \"#utility.yul\":3610:3622   */\n      add\n        /* \"#utility.yul\":3603:3622   */\n      swap1\n      pop\n        /* \"#utility.yul\":3408:3628   */\n      swap2\n      swap1\n      pop\n      jump\t// out\n        /* \"#utility.yul\":3634:4000   */\n    tag_150:\n      0x00\n        /* \"#utility.yul\":3797:3864   */\n      tag_152\n        /* \"#utility.yul\":3861:3863   */\n      0x17\n        /* \"#utility.yul\":3856:3859   */\n      dup4\n        /* \"#utility.yul\":3797:3864   */\n      tag_130\n      jump\t// in\n    tag_152:\n        /* \"#utility.yul\":3790:3864   */\n      swap2\n      pop\n        /* \"#utility.yul\":3873:3966   */\n      tag_153\n        /* \"#utility.yul\":3962:3965   */\n      dup3\n        /* \"#utility.yul\":3873:3966   */\n      tag_154\n      jump\t// in\n    tag_153:\n        /* \"#utility.yul\":3991:3993   */\n      0x20\n        /* \"#utility.yul\":3986:3989   */\n      dup3\n        /* \"#utility.yul\":3982:3994   */\n      add\n        /* \"#utility.yul\":3975:3994   */\n      swap1\n      pop\n        /* \"#utility.yul\":3780:4000   */\n      swap2\n      swap1\n      pop\n      jump\t// out\n        /* \"#utility.yul\":4006:4372   */\n    tag_155:\n      0x00\n        /* \"#utility.yul\":4169:4236   */\n      tag_157\n        /* \"#utility.yul\":4233:4235   */\n      0x18\n        /* \"#utility.yul\":4228:4231   */\n      dup4\n        /* \"#utility.yul\":4169:4236   */\n      tag_130\n      jump\t// in\n    tag_157:\n        /* \"#utility.yul\":4162:4236   */\n      swap2\n      pop\n        /* \"#utility.yul\":4245:4338   */\n      tag_158\n        /* \"#utility.yul\":4334:4337   */\n      dup3\n        /* \"#utility.yul\":4245:4338   */\n      tag_159\n      jump\t// in\n    tag_158:\n        /* \"#utility.yul\":4363:4365   */\n      0x20\n        /* \"#utility.yul\":4358:4361   */\n      dup3\n        /* \"#utility.yul\":4354:4366   */\n      add\n        /* \"#utility.yul\":4347:4366   */\n      swap1\n      pop\n        /* \"#utility.yul\":4152:4372   */\n      swap2\n      swap1\n      pop\n      jump\t// out\n        /* \"#utility.yul\":4378:4496   */\n    tag_160:\n        /* \"#utility.yul\":4465:4489   */\n      tag_162\n        /* \"#utility.yul\":4483:4488   */\n      dup2\n        /* \"#utility.yul\":4465:4489   */\n      tag_163\n      jump\t// in\n    tag_162:\n        /* \"#utility.yul\":4460:4463   */\n      dup3\n        /* \"#utility.yul\":4453:4490   */\n      mstore\n        /* \"#utility.yul\":4443:4496   */\n      pop\n      pop\n      jump\t// out\n        /* \"#utility.yul\":4502:4815   */\n    tag_11:\n      0x00\n        /* \"#utility.yul\":4653:4655   */\n      0x20\n        /* \"#utility.yul\":4642:4651   */\n      dup3\n        /* \"#utility.yul\":4638:4656   */\n      add\n        /* \"#utility.yul\":4630:4656   */\n      swap1\n      pop\n        /* \"#utility.yul\":4702:4711   */\n      dup2\n        /* \"#utility.yul\":4696:4700   */\n      dup2\n        /* \"#utility.yul\":4692:4712   */\n      sub\n        /* \"#utility.yul\":4688:4689   */\n      0x00\n        /* \"#utility.yul\":4677:4686   */\n      dup4\n        /* \"#utility.yul\":4673:4690   */\n      add\n        /* \"#utility.yul\":4666:4713   */\n      mstore\n        /* \"#utility.yul\":4730:4808   */\n      tag_165\n        /* \"#utility.yul\":4803:4807   */\n      dup2\n        /* \"#utility.yul\":4794:4800   */\n      dup5\n        /* \"#utility.yul\":4730:4808   */\n      tag_125\n      jump\t// in\n    tag_165:\n        /* \"#utility.yul\":4722:4808   */\n      swap1\n      pop\n        /* \"#utility.yul\":4620:4815   */\n      swap3\n      swap2\n      pop\n      pop\n      jump\t// out\n        /* \"#utility.yul\":4821:5240   */\n    tag_41:\n      0x00\n        /* \"#utility.yul\":5025:5027   */\n      0x20\n        /* \"#utility.yul\":5014:5023   */\n      dup3\n        /* \"#utility.yul\":5010:5028   */\n      add\n        /* \"#utility.yul\":5002:5028   */\n      swap1\n      pop\n        /* \"#utility.yul\":5074:5083   */\n      dup2\n        /* \"#utility.yul\":5068:5072   */\n      dup2\n        /* \"#utility.yul\":5064:5084   */\n      sub\n        /* \"#utility.yul\":5060:5061   */\n      0x00\n        /* \"#utility.yul\":5049:5058   */\n      dup4\n        /* \"#utility.yul\":5045:5062   */\n      add\n        /* \"#utility.yul\":5038:5085   */\n      mstore\n        /* \"#utility.yul\":5102:5233   */\n      tag_167\n        /* \"#utility.yul\":5228:5232   */\n      dup2\n        /* \"#utility.yul\":5102:5233   */\n      tag_135\n      jump\t// in\n    tag_167:\n        /* \"#utility.yul\":5094:5233   */\n      swap1\n      pop\n        /* \"#utility.yul\":4992:5240   */\n      swap2\n      swap1\n      pop\n      jump\t// out\n        /* \"#utility.yul\":5246:5665   */\n    tag_70:\n      0x00\n        /* \"#utility.yul\":5450:5452   */\n      0x20\n        /* \"#utility.yul\":5439:5448   */\n      dup3\n        /* \"#utility.yul\":5435:5453   */\n      add\n        /* \"#utility.yul\":5427:5453   */\n      swap1\n      pop\n        /* \"#utility.yul\":5499:5508   */\n      dup2\n        /* \"#utility.yul\":5493:5497   */\n      dup2\n        /* \"#utility.yul\":5489:5509   */\n      sub\n        /* \"#utility.yul\":5485:5486   */\n      0x00\n        /* \"#utility.yul\":5474:5483   */\n      dup4\n        /* \"#utility.yul\":5470:5487   */\n      add\n        /* \"#utility.yul\":5463:5510   */\n      mstore\n        /* \"#utility.yul\":5527:5658   */\n      tag_169\n        /* \"#utility.yul\":5653:5657   */\n      dup2\n        /* \"#utility.yul\":5527:5658   */\n      tag_140\n      jump\t// in\n    tag_169:\n        /* \"#utility.yul\":5519:5658   */\n      swap1\n      pop\n        /* \"#utility.yul\":5417:5665   */\n      swap2\n      swap1\n      pop\n      jump\t// out\n        /* \"#utility.yul\":5671:6090   */\n    tag_78:\n      0x00\n        /* \"#utility.yul\":5875:5877   */\n      0x20\n        /* \"#utility.yul\":5864:5873   */\n      dup3\n        /* \"#utility.yul\":5860:5878   */\n      add\n        /* \"#utility.yul\":5852:5878   */\n      swap1\n      pop\n        /* \"#utility.yul\":5924:5933   */\n      dup2\n        /* \"#utility.yul\":5918:5922   */\n      dup2\n        /* \"#utility.yul\":5914:5934   */\n      sub\n        /* \"#utility.yul\":5910:5911   */\n      0x00\n        /* \"#utility.yul\":5899:5908   */\n      dup4\n        /* \"#utility.yul\":5895:5912   */\n      add\n        /* \"#utility.yul\":5888:5935   */\n      mstore\n        /* \"#utility.yul\":5952:6083   */\n      tag_171\n        /* \"#utility.yul\":6078:6082   */\n      dup2\n        /* \"#utility.yul\":5952:6083   */\n      tag_145\n      jump\t// in\n    tag_171:\n        /* \"#utility.yul\":5944:6083   */\n      swap1\n      pop\n        /* \"#utility.yul\":5842:6090   */\n      swap2\n      swap1\n      pop\n      jump\t// out\n        /* \"#utility.yul\":6096:6515   */\n    tag_38:\n      0x00\n        /* \"#utility.yul\":6300:6302   */\n      0x20\n        /* \"#utility.yul\":6289:6298   */\n      dup3\n        /* \"#utility.yul\":6285:6303   */\n      add\n        /* \"#utility.yul\":6277:6303   */\n      swap1\n      pop\n        /* \"#utility.yul\":6349:6358   */\n      dup2\n        /* \"#utility.yul\":6343:6347   */\n      dup2\n        /* \"#utility.yul\":6339:6359   */\n      sub\n        /* \"#utility.yul\":6335:6336   */\n      0x00\n        /* \"#utility.yul\":6324:6333   */\n      dup4\n        /* \"#utility.yul\":6320:6337   */\n      add\n        /* \"#utility.yul\":6313:6360   */\n      mstore\n        /* \"#utility.yul\":6377:6508   */\n      tag_173\n        /* \"#utility.yul\":6503:6507   */\n      dup2\n        /* \"#utility.yul\":6377:6508   */\n      tag_150\n      jump\t// in\n    tag_173:\n        /* \"#utility.yul\":6369:6508   */\n      swap1\n      pop\n        /* \"#utility.yul\":6267:6515   */\n      swap2\n      swap1\n      pop\n      jump\t// out\n        /* \"#utility.yul\":6521:6940   */\n    tag_73:\n      0x00\n        /* \"#utility.yul\":6725:6727   */\n      0x20\n        /* \"#utility.yul\":6714:6723   */\n      dup3\n        /* \"#utility.yul\":6710:6728   */\n      add\n        /* \"#utility.yul\":6702:6728   */\n      swap1\n      pop\n        /* \"#utility.yul\":6774:6783   */\n      dup2\n        /* \"#utility.yul\":6768:6772   */\n      dup2\n        /* \"#utility.yul\":6764:6784   */\n      sub\n        /* \"#utility.yul\":6760:6761   */\n      0x00\n        /* \"#utility.yul\":6749:6758   */\n      dup4\n        /* \"#utility.yul\":6745:6762   */\n      add\n        /* \"#utility.yul\":6738:6785   */\n      mstore\n        /* \"#utility.yul\":6802:6933   */\n      tag_175\n        /* \"#utility.yul\":6928:6932   */\n      dup2\n        /* \"#utility.yul\":6802:6933   */\n      tag_155\n      jump\t// in\n    tag_175:\n        /* \"#utility.yul\":6794:6933   */\n      swap1\n      pop\n        /* \"#utility.yul\":6692:6940   */\n      swap2\n      swap1\n      pop\n      jump\t// out\n        /* \"#utility.yul\":6946:7168   */\n    tag_43:\n      0x00\n        /* \"#utility.yul\":7077:7079   */\n      0x20\n        /* \"#utility.yul\":7066:7075   */\n      dup3\n        /* \"#utility.yul\":7062:7080   */\n      add\n        /* \"#utility.yul\":7054:7080   */\n      swap1\n      pop\n        /* \"#utility.yul\":7090:7161   */\n      tag_177\n        /* \"#utility.yul\":7158:7159   */\n      0x00\n        /* \"#utility.yul\":7147:7156   */\n      dup4\n        /* \"#utility.yul\":7143:7160   */\n      add\n        /* \"#utility.yul\":7134:7140   */\n      dup5\n        /* \"#utility.yul\":7090:7161   */\n      tag_160\n      jump\t// in\n    tag_177:\n        /* \"#utility.yul\":7044:7168   */\n      swap3\n      swap2\n      pop\n      pop\n      jump\t// out\n        /* \"#utility.yul\":7174:7303   */\n    tag_97:\n      0x00\n        /* \"#utility.yul\":7235:7255   */\n      tag_179\n      tag_180\n      jump\t// in\n    tag_179:\n        /* \"#utility.yul\":7225:7255   */\n      swap1\n      pop\n        /* \"#utility.yul\":7264:7297   */\n      tag_181\n        /* \"#utility.yul\":7292:7296   */\n      dup3\n        /* \"#utility.yul\":7284:7290   */\n      dup3\n        /* \"#utility.yul\":7264:7297   */\n      tag_182\n      jump\t// in\n    tag_181:\n        /* \"#utility.yul\":7215:7303   */\n      swap2\n      swap1\n      pop\n      jump\t// out\n        /* \"#utility.yul\":7309:7384   */\n    tag_180:\n      0x00\n        /* \"#utility.yul\":7375:7377   */\n      0x40\n        /* \"#utility.yul\":7369:7378   */\n      mload\n        /* \"#utility.yul\":7359:7378   */\n      swap1\n      pop\n        /* \"#utility.yul\":7349:7384   */\n      swap1\n      jump\t// out\n        /* \"#utility.yul\":7390:7698   */\n    tag_96:\n      0x00\n        /* \"#utility.yul\":7542:7560   */\n      0xffffffffffffffff\n        /* \"#utility.yul\":7534:7540   */\n      dup3\n        /* \"#utility.yul\":7531:7561   */\n      gt\n        /* \"#utility.yul\":7528:7530   */\n      iszero\n      tag_185\n      jumpi\n        /* \"#utility.yul\":7564:7582   */\n      tag_186\n      tag_187\n      jump\t// in\n    tag_186:\n        /* \"#utility.yul\":7528:7530   */\n    tag_185:\n        /* \"#utility.yul\":7602:7631   */\n      tag_188\n        /* \"#utility.yul\":7624:7630   */\n      dup3\n        /* \"#utility.yul\":7602:7631   */\n      tag_134\n      jump\t// in\n    tag_188:\n        /* \"#utility.yul\":7594:7631   */\n      swap1\n      pop\n        /* \"#utility.yul\":7686:7690   */\n      0x20\n        /* \"#utility.yul\":7680:7684   */\n      dup2\n        /* \"#utility.yul\":7676:7691   */\n      add\n        /* \"#utility.yul\":7668:7691   */\n      swap1\n      pop\n        /* \"#utility.yul\":7457:7698   */\n      swap2\n      swap1\n      pop\n      jump\t// out\n        /* \"#utility.yul\":7704:7803   */\n    tag_128:\n      0x00\n        /* \"#utility.yul\":7790:7795   */\n      dup2\n        /* \"#utility.yul\":7784:7796   */\n      mload\n        /* \"#utility.yul\":7774:7796   */\n      swap1\n      pop\n        /* \"#utility.yul\":7763:7803   */\n      swap2\n      swap1\n      pop\n      jump\t// out\n        /* \"#utility.yul\":7809:7978   */\n    tag_130:\n      0x00\n        /* \"#utility.yul\":7927:7933   */\n      dup3\n        /* \"#utility.yul\":7922:7925   */\n      dup3\n        /* \"#utility.yul\":7915:7934   */\n      mstore\n        /* \"#utility.yul\":7967:7971   */\n      0x20\n        /* \"#utility.yul\":7962:7965   */\n      dup3\n        /* \"#utility.yul\":7958:7972   */\n      add\n        /* \"#utility.yul\":7943:7972   */\n      swap1\n      pop\n        /* \"#utility.yul\":7905:7978   */\n      swap3\n      swap2\n      pop\n      pop\n      jump\t// out\n        /* \"#utility.yul\":7984:8080   */\n    tag_191:\n      0x00\n        /* \"#utility.yul\":8050:8074   */\n      tag_193\n        /* \"#utility.yul\":8068:8073   */\n      dup3\n        /* \"#utility.yul\":8050:8074   */\n      tag_194\n      jump\t// in\n    tag_193:\n        /* \"#utility.yul\":8039:8074   */\n      swap1\n      pop\n        /* \"#utility.yul\":8029:8080   */\n      swap2\n      swap1\n      pop\n      jump\t// out\n        /* \"#utility.yul\":8086:8212   */\n    tag_194:\n      0x00\n        /* \"#utility.yul\":8163:8205   */\n      0xffffffffffffffffffffffffffffffffffffffff\n        /* \"#utility.yul\":8156:8161   */\n      dup3\n        /* \"#utility.yul\":8152:8206   */\n      and\n        /* \"#utility.yul\":8141:8206   */\n      swap1\n      pop\n        /* \"#utility.yul\":8131:8212   */\n      swap2\n      swap1\n      pop\n      jump\t// out\n        /* \"#utility.yul\":8218:8295   */\n    tag_163:\n      0x00\n        /* \"#utility.yul\":8284:8289   */\n      dup2\n        /* \"#utility.yul\":8273:8289   */\n      swap1\n      pop\n        /* \"#utility.yul\":8263:8295   */\n      swap2\n      swap1\n      pop\n      jump\t// out\n        /* \"#utility.yul\":8301:8455   */\n    tag_100:\n        /* \"#utility.yul\":8385:8391   */\n      dup3\n        /* \"#utility.yul\":8380:8383   */\n      dup2\n        /* \"#utility.yul\":8375:8378   */\n      dup4\n        /* \"#utility.yul\":8362:8392   */\n      calldatacopy\n        /* \"#utility.yul\":8447:8448   */\n      0x00\n        /* \"#utility.yul\":8438:8444   */\n      dup4\n        /* \"#utility.yul\":8433:8436   */\n      dup4\n        /* \"#utility.yul\":8429:8445   */\n      add\n        /* \"#utility.yul\":8422:8449   */\n      mstore\n        /* \"#utility.yul\":8352:8455   */\n      pop\n      pop\n      pop\n      jump\t// out\n        /* \"#utility.yul\":8461:8768   */\n    tag_132:\n        /* \"#utility.yul\":8529:8530   */\n      0x00\n        /* \"#utility.yul\":8539:8652   */\n    tag_199:\n        /* \"#utility.yul\":8553:8559   */\n      dup4\n        /* \"#utility.yul\":8550:8551   */\n      dup2\n        /* \"#utility.yul\":8547:8560   */\n      lt\n        /* \"#utility.yul\":8539:8652   */\n      iszero\n      tag_201\n      jumpi\n        /* \"#utility.yul\":8638:8639   */\n      dup1\n        /* \"#utility.yul\":8633:8636   */\n      dup3\n        /* \"#utility.yul\":8629:8640   */\n      add\n        /* \"#utility.yul\":8623:8641   */\n      mload\n        /* \"#utility.yul\":8619:8620   */\n      dup2\n        /* \"#utility.yul\":8614:8617   */\n      dup5\n        /* \"#utility.yul\":8610:8621   */\n      add\n        /* \"#utility.yul\":8603:8642   */\n      mstore\n        /* \"#utility.yul\":8575:8577   */\n      0x20\n        /* \"#utility.yul\":8572:8573   */\n      dup2\n        /* \"#utility.yul\":8568:8578   */\n      add\n        /* \"#utility.yul\":8563:8578   */\n      swap1\n      pop\n        /* \"#utility.yul\":8539:8652   */\n      jump(tag_199)\n    tag_201:\n        /* \"#utility.yul\":8670:8676   */\n      dup4\n        /* \"#utility.yul\":8667:8668   */\n      dup2\n        /* \"#utility.yul\":8664:8677   */\n      gt\n        /* \"#utility.yul\":8661:8663   */\n      iszero\n      tag_202\n      jumpi\n        /* \"#utility.yul\":8750:8751   */\n      0x00\n        /* \"#utility.yul\":8741:8747   */\n      dup5\n        /* \"#utility.yul\":8736:8739   */\n      dup5\n        /* \"#utility.yul\":8732:8748   */\n      add\n        /* \"#utility.yul\":8725:8752   */\n      mstore\n        /* \"#utility.yul\":8661:8663   */\n    tag_202:\n        /* \"#utility.yul\":8510:8768   */\n      pop\n      pop\n      pop\n      pop\n      jump\t// out\n        /* \"#utility.yul\":8774:9094   */\n    tag_30:\n      0x00\n        /* \"#utility.yul\":8855:8856   */\n      0x02\n        /* \"#utility.yul\":8849:8853   */\n      dup3\n        /* \"#utility.yul\":8845:8857   */\n      div\n        /* \"#utility.yul\":8835:8857   */\n      swap1\n      pop\n        /* \"#utility.yul\":8902:8903   */\n      0x01\n        /* \"#utility.yul\":8896:8900   */\n      dup3\n        /* \"#utility.yul\":8892:8904   */\n      and\n        /* \"#utility.yul\":8923:8941   */\n      dup1\n        /* \"#utility.yul\":8913:8915   */\n      tag_204\n      jumpi\n        /* \"#utility.yul\":8979:8983   */\n      0x7f\n        /* \"#utility.yul\":8971:8977   */\n      dup3\n        /* \"#utility.yul\":8967:8984   */\n      and\n        /* \"#utility.yul\":8957:8984   */\n      swap2\n      pop\n        /* \"#utility.yul\":8913:8915   */\n    tag_204:\n        /* \"#utility.yul\":9041:9043   */\n      0x20\n        /* \"#utility.yul\":9033:9039   */\n      dup3\n        /* \"#utility.yul\":9030:9044   */\n      lt\n        /* \"#utility.yul\":9010:9028   */\n      dup2\n        /* \"#utility.yul\":9007:9045   */\n      eq\n        /* \"#utility.yul\":9004:9006   */\n      iszero\n      tag_205\n      jumpi\n        /* \"#utility.yul\":9060:9078   */\n      tag_206\n      tag_207\n      jump\t// in\n    tag_206:\n        /* \"#utility.yul\":9004:9006   */\n    tag_205:\n        /* \"#utility.yul\":8825:9094   */\n      pop\n      swap2\n      swap1\n      pop\n      jump\t// out\n        /* \"#utility.yul\":9100:9381   */\n    tag_182:\n        /* \"#utility.yul\":9183:9210   */\n      tag_209\n        /* \"#utility.yul\":9205:9209   */\n      dup3\n        /* \"#utility.yul\":9183:9210   */\n      tag_134\n      jump\t// in\n    tag_209:\n        /* \"#utility.yul\":9175:9181   */\n      dup2\n        /* \"#utility.yul\":9171:9211   */\n      add\n        /* \"#utility.yul\":9313:9319   */\n      dup2\n        /* \"#utility.yul\":9301:9311   */\n      dup2\n        /* \"#utility.yul\":9298:9320   */\n      lt\n        /* \"#utility.yul\":9277:9295   */\n      0xffffffffffffffff\n        /* \"#utility.yul\":9265:9275   */\n      dup3\n        /* \"#utility.yul\":9262:9296   */\n      gt\n        /* \"#utility.yul\":9259:9321   */\n      or\n        /* \"#utility.yul\":9256:9258   */\n      iszero\n      tag_210\n      jumpi\n        /* \"#utility.yul\":9324:9342   */\n      tag_211\n      tag_187\n      jump\t// in\n    tag_211:\n        /* \"#utility.yul\":9256:9258   */\n    tag_210:\n        /* \"#utility.yul\":9364:9374   */\n      dup1\n        /* \"#utility.yul\":9360:9362   */\n      0x40\n        /* \"#utility.yul\":9353:9375   */\n      mstore\n        /* \"#utility.yul\":9143:9381   */\n      pop\n      pop\n      pop\n      jump\t// out\n        /* \"#utility.yul\":9387:9567   */\n    tag_207:\n        /* \"#utility.yul\":9435:9512   */\n      0x4e487b7100000000000000000000000000000000000000000000000000000000\n        /* \"#utility.yul\":9432:9433   */\n      0x00\n        /* \"#utility.yul\":9425:9513   */\n      mstore\n        /* \"#utility.yul\":9532:9536   */\n      0x22\n        /* \"#utility.yul\":9529:9530   */\n      0x04\n        /* \"#utility.yul\":9522:9537   */\n      mstore\n        /* \"#utility.yul\":9556:9560   */\n      0x24\n        /* \"#utility.yul\":9553:9554   */\n      0x00\n        /* \"#utility.yul\":9546:9561   */\n      revert\n        /* \"#utility.yul\":9573:9753   */\n    tag_187:\n        /* \"#utility.yul\":9621:9698   */\n      0x4e487b7100000000000000000000000000000000000000000000000000000000\n        /* \"#utility.yul\":9618:9619   */\n      0x00\n        /* \"#utility.yul\":9611:9699   */\n      mstore\n        /* \"#utility.yul\":9718:9722   */\n      0x41\n        /* \"#utility.yul\":9715:9716   */\n      0x04\n        /* \"#utility.yul\":9708:9723   */\n      mstore\n        /* \"#utility.yul\":9742:9746   */\n      0x24\n        /* \"#utility.yul\":9739:9740   */\n      0x00\n        /* \"#utility.yul\":9732:9747   */\n      revert\n        /* \"#utility.yul\":9759:9861   */\n    tag_134:\n      0x00\n        /* \"#utility.yul\":9851:9853   */\n      0x1f\n        /* \"#utility.yul\":9847:9854   */\n      not\n        /* \"#utility.yul\":9842:9844   */\n      0x1f\n        /* \"#utility.yul\":9835:9840   */\n      dup4\n        /* \"#utility.yul\":9831:9845   */\n      add\n        /* \"#utility.yul\":9827:9855   */\n      and\n        /* \"#utility.yul\":9817:9855   */\n      swap1\n      pop\n        /* \"#utility.yul\":9807:9861   */\n      swap2\n      swap1\n      pop\n      jump\t// out\n        /* \"#utility.yul\":9867:10090   */\n    tag_139:\n        /* \"#utility.yul\":10007:10041   */\n      0x4552433732313a207472616e7366657220746f20746865207a65726f20616464\n        /* \"#utility.yul\":10003:10004   */\n      0x00\n        /* \"#utility.yul\":9995:10001   */\n      dup3\n        /* \"#utility.yul\":9991:10005   */\n      add\n        /* \"#utility.yul\":9984:10042   */\n      mstore\n        /* \"#utility.yul\":10076:10082   */\n      0x7265737300000000000000000000000000000000000000000000000000000000\n        /* \"#utility.yul\":10071:10073   */\n      0x20\n        /* \"#utility.yul\":10063:10069   */\n      dup3\n        /* \"#utility.yul\":10059:10074   */\n      add\n        /* \"#utility.yul\":10052:10083   */\n      mstore\n        /* \"#utility.yul\":9973:10090   */\n      pop\n      jump\t// out\n        /* \"#utility.yul\":10096:10265   */\n    tag_144:\n        /* \"#utility.yul\":10236:10257   */\n      0x746f6b656e20616c726561647920657869737400000000000000000000000000\n        /* \"#utility.yul\":10232:10233   */\n      0x00\n        /* \"#utility.yul\":10224:10230   */\n      dup3\n        /* \"#utility.yul\":10220:10234   */\n      add\n        /* \"#utility.yul\":10213:10258   */\n      mstore\n        /* \"#utility.yul\":10202:10265   */\n      pop\n      jump\t// out\n        /* \"#utility.yul\":10271:10440   */\n    tag_149:\n        /* \"#utility.yul\":10411:10432   */\n      0x746f6b656e20646f65736e277420657869737400000000000000000000000000\n        /* \"#utility.yul\":10407:10408   */\n      0x00\n        /* \"#utility.yul\":10399:10405   */\n      dup3\n        /* \"#utility.yul\":10395:10409   */\n      add\n        /* \"#utility.yul\":10388:10433   */\n      mstore\n        /* \"#utility.yul\":10377:10440   */\n      pop\n      jump\t// out\n        /* \"#utility.yul\":10446:10619   */\n    tag_154:\n        /* \"#utility.yul\":10586:10611   */\n      0x4e6f742063616c6c656420627920746865206f776e6572000000000000000000\n        /* \"#utility.yul\":10582:10583   */\n      0x00\n        /* \"#utility.yul\":10574:10580   */\n      dup3\n        /* \"#utility.yul\":10570:10584   */\n      add\n        /* \"#utility.yul\":10563:10612   */\n      mstore\n        /* \"#utility.yul\":10552:10619   */\n      pop\n      jump\t// out\n        /* \"#utility.yul\":10625:10799   */\n    tag_159:\n        /* \"#utility.yul\":10765:10791   */\n      0x6d696e7420746f20746865207a65726f20616464726573730000000000000000\n        /* \"#utility.yul\":10761:10762   */\n      0x00\n        /* \"#utility.yul\":10753:10759   */\n      dup3\n        /* \"#utility.yul\":10749:10763   */\n      add\n        /* \"#utility.yul\":10742:10792   */\n      mstore\n        /* \"#utility.yul\":10731:10799   */\n      pop\n      jump\t// out\n        /* \"#utility.yul\":10805:10927   */\n    tag_104:\n        /* \"#utility.yul\":10878:10902   */\n      tag_221\n        /* \"#utility.yul\":10896:10901   */\n      dup2\n        /* \"#utility.yul\":10878:10902   */\n      tag_191\n      jump\t// in\n    tag_221:\n        /* \"#utility.yul\":10871:10876   */\n      dup2\n        /* \"#utility.yul\":10868:10903   */\n      eq\n        /* \"#utility.yul\":10858:10860   */\n      tag_222\n      jumpi\n        /* \"#utility.yul\":10917:10918   */\n      0x00\n        /* \"#utility.yul\":10914:10915   */\n      dup1\n        /* \"#utility.yul\":10907:10919   */\n      revert\n        /* \"#utility.yul\":10858:10860   */\n    tag_222:\n        /* \"#utility.yul\":10848:10927   */\n      pop\n      jump\t// out\n        /* \"#utility.yul\":10933:11055   */\n    tag_112:\n        /* \"#utility.yul\":11006:11030   */\n      tag_224\n        /* \"#utility.yul\":11024:11029   */\n      dup2\n        /* \"#utility.yul\":11006:11030   */\n      tag_163\n      jump\t// in\n    tag_224:\n        /* \"#utility.yul\":10999:11004   */\n      dup2\n        /* \"#utility.yul\":10996:11031   */\n      eq\n        /* \"#utility.yul\":10986:10988   */\n      tag_225\n      jumpi\n        /* \"#utility.yul\":11045:11046   */\n      0x00\n        /* \"#utility.yul\":11042:11043   */\n      dup1\n        /* \"#utility.yul\":11035:11047   */\n      revert\n        /* \"#utility.yul\":10986:10988   */\n    tag_225:\n        /* \"#utility.yul\":10976:11055   */\n      pop\n      jump\t// out\n\n    auxdata: 0xa2646970667358221220cb7b281947ddd46d695077518030493ec0ab2db6949e0504edd0c9022e1f50f364736f6c63430008010033\n}\n",
				"bytecode": {
					"linkReferences": {},
					"object": "60806040523480156200001157600080fd5b5060405162001465380380620014658339818101604052810190620000379190620001ec565b82600360006101000a81548173ffffffffffffffffffffffffffffffffffffffff021916908373ffffffffffffffffffffffffffffffffffffffff160217905550816000908051906020019062000090929190620000b3565b508060019080519060200190620000a9929190620000b3565b5050505062000432565b828054620000c1906200033d565b90600052602060002090601f016020900481019282620000e5576000855562000131565b82601f106200010057805160ff191683800117855562000131565b8280016001018555821562000131579182015b828111156200013057825182559160200191906001019062000113565b5b50905062000140919062000144565b5090565b5b808211156200015f57600081600090555060010162000145565b5090565b60006200017a62000174846200029d565b62000274565b9050828152602081018484840111156200019357600080fd5b620001a084828562000307565b509392505050565b600081519050620001b98162000418565b92915050565b600082601f830112620001d157600080fd5b8151620001e384826020860162000163565b91505092915050565b6000806000606084860312156200020257600080fd5b60006200021286828701620001a8565b935050602084015167ffffffffffffffff8111156200023057600080fd5b6200023e86828701620001bf565b925050604084015167ffffffffffffffff8111156200025c57600080fd5b6200026a86828701620001bf565b9150509250925092565b60006200028062000293565b90506200028e828262000373565b919050565b6000604051905090565b600067ffffffffffffffff821115620002bb57620002ba620003d8565b5b620002c68262000407565b9050602081019050919050565b6000620002e082620002e7565b9050919050565b600073ffffffffffffffffffffffffffffffffffffffff82169050919050565b60005b83811015620003275780820151818401526020810190506200030a565b8381111562000337576000848401525b50505050565b600060028204905060018216806200035657607f821691505b602082108114156200036d576200036c620003a9565b5b50919050565b6200037e8262000407565b810181811067ffffffffffffffff82111715620003a0576200039f620003d8565b5b80604052505050565b7f4e487b7100000000000000000000000000000000000000000000000000000000600052602260045260246000fd5b7f4e487b7100000000000000000000000000000000000000000000000000000000600052604160045260246000fd5b6000601f19601f8301169050919050565b6200042381620002d3565b81146200042f57600080fd5b50565b61102380620004426000396000f3fe608060405234801561001057600080fd5b50600436106100575760003560e01c806306fdde031461005c57806323b872dd1461007a57806395d89b4114610096578063bf59b347146100b4578063d85d3d27146100e4575b600080fd5b610064610100565b6040516100719190610c2d565b60405180910390f35b610094600480360381019061008f9190610a7d565b610192565b005b61009e6103fe565b6040516100ab9190610c2d565b60405180910390f35b6100ce60048036038101906100c99190610b0d565b610490565b6040516100db9190610c2d565b60405180910390f35b6100fe60048036038101906100f99190610acc565b610530565b005b60606000805461010f90610dfa565b80601f016020809104026020016040519081016040528092919081815260200182805461013b90610dfa565b80156101885780601f1061015d57610100808354040283529160200191610188565b820191906000526020600020905b81548152906001019060200180831161016b57829003601f168201915b5050505050905090565b8273ffffffffffffffffffffffffffffffffffffffff166005600083815260200190815260200160002060009054906101000a900473ffffffffffffffffffffffffffffffffffffffff1673ffffffffffffffffffffffffffffffffffffffff1614610233576040517f08c379a000000000000000000000000000000000000000000000000000000000815260040161022a90610caf565b60405180910390fd5b600073ffffffffffffffffffffffffffffffffffffffff168273ffffffffffffffffffffffffffffffffffffffff1614156102a3576040517f08c379a000000000000000000000000000000000000000000000000000000000815260040161029a90610c4f565b60405180910390fd5b600460008473ffffffffffffffffffffffffffffffffffffffff1673ffffffffffffffffffffffffffffffffffffffff1681526020019081526020016000206000815480929190600190039190505550600460008373ffffffffffffffffffffffffffffffffffffffff1673ffffffffffffffffffffffffffffffffffffffff16815260200190815260200160002060008154809291906001019190505550816005600083815260200190815260200160002060006101000a81548173ffffffffffffffffffffffffffffffffffffffff021916908373ffffffffffffffffffffffffffffffffffffffff1602179055508173ffffffffffffffffffffffffffffffffffffffff168373ffffffffffffffffffffffffffffffffffffffff167fddf252ad1be2c89b69c2b068fc378daa952ba7f163c4a11628f55a4df523b3ef836040516103f19190610cef565b60405180910390a3505050565b60606001805461040d90610dfa565b80601f016020809104026020016040519081016040528092919081815260200182805461043990610dfa565b80156104865780601f1061045b57610100808354040283529160200191610486565b820191906000526020600020905b81548152906001019060200180831161046957829003601f168201915b5050505050905090565b600860205280600052604060002060009150905080546104af90610dfa565b80601f01602080910402602001604051908101604052809291908181526020018280546104db90610dfa565b80156105285780601f106104fd57610100808354040283529160200191610528565b820191906000526020600020905b81548152906001019060200180831161050b57829003601f168201915b505050505081565b61053a6002610597565b600061054660026105ad565b905061055233826105bb565b61055c8183610879565b7f7f8949b6eca2b14d0feb1af0844a112998e467a4f88b8683301f3a6e409f32ae8160405161058b9190610cef565b60405180910390a15050565b6001816000016000828254019250508190555050565b600081600001549050919050565b600073ffffffffffffffffffffffffffffffffffffffff166007600083815260200190815260200160002060009054906101000a900473ffffffffffffffffffffffffffffffffffffffff1673ffffffffffffffffffffffffffffffffffffffff161461065d576040517f08c379a000000000000000000000000000000000000000000000000000000000815260040161065490610c6f565b60405180910390fd5b600073ffffffffffffffffffffffffffffffffffffffff168273ffffffffffffffffffffffffffffffffffffffff1614156106cd576040517f08c379a00000000000000000000000000000000000000000000000000000000081526004016106c490610ccf565b60405180910390fd5b600460008373ffffffffffffffffffffffffffffffffffffffff1673ffffffffffffffffffffffffffffffffffffffff16815260200190815260200160002060008154809291906001019190505550600660008373ffffffffffffffffffffffffffffffffffffffff1673ffffffffffffffffffffffffffffffffffffffff16815260200190815260200160002060008154809291906001019190505550816005600083815260200190815260200160002060006101000a81548173ffffffffffffffffffffffffffffffffffffffff021916908373ffffffffffffffffffffffffffffffffffffffff160217905550816007600083815260200190815260200160002060006101000a81548173ffffffffffffffffffffffffffffffffffffffff021916908373ffffffffffffffffffffffffffffffffffffffff1602179055508173ffffffffffffffffffffffffffffffffffffffff16600073ffffffffffffffffffffffffffffffffffffffff167fddf252ad1be2c89b69c2b068fc378daa952ba7f163c4a11628f55a4df523b3ef8360405161086d9190610cef565b60405180910390a35050565b600073ffffffffffffffffffffffffffffffffffffffff166007600084815260200190815260200160002060009054906101000a900473ffffffffffffffffffffffffffffffffffffffff1673ffffffffffffffffffffffffffffffffffffffff16141561091c576040517f08c379a000000000000000000000000000000000000000000000000000000000815260040161091390610c8f565b60405180910390fd5b80600860008481526020019081526020016000209080519060200190610943929190610948565b505050565b82805461095490610dfa565b90600052602060002090601f01602090048101928261097657600085556109bd565b82601f1061098f57805160ff19168380011785556109bd565b828001600101855582156109bd579182015b828111156109bc5782518255916020019190600101906109a1565b5b5090506109ca91906109ce565b5090565b5b808211156109e75760008160009055506001016109cf565b5090565b60006109fe6109f984610d2f565b610d0a565b905082815260208101848484011115610a1657600080fd5b610a21848285610db8565b509392505050565b600081359050610a3881610fbf565b92915050565b600082601f830112610a4f57600080fd5b8135610a5f8482602086016109eb565b91505092915050565b600081359050610a7781610fd6565b92915050565b600080600060608486031215610a9257600080fd5b6000610aa086828701610a29565b9350506020610ab186828701610a29565b9250506040610ac286828701610a68565b9150509250925092565b600060208284031215610ade57600080fd5b600082013567ffffffffffffffff811115610af857600080fd5b610b0484828501610a3e565b91505092915050565b600060208284031215610b1f57600080fd5b6000610b2d84828501610a68565b91505092915050565b6000610b4182610d60565b610b4b8185610d6b565b9350610b5b818560208601610dc7565b610b6481610ebb565b840191505092915050565b6000610b7c602483610d6b565b9150610b8782610ecc565b604082019050919050565b6000610b9f601383610d6b565b9150610baa82610f1b565b602082019050919050565b6000610bc2601383610d6b565b9150610bcd82610f44565b602082019050919050565b6000610be5601783610d6b565b9150610bf082610f6d565b602082019050919050565b6000610c08601883610d6b565b9150610c1382610f96565b602082019050919050565b610c2781610dae565b82525050565b60006020820190508181036000830152610c478184610b36565b905092915050565b60006020820190508181036000830152610c6881610b6f565b9050919050565b60006020820190508181036000830152610c8881610b92565b9050919050565b60006020820190508181036000830152610ca881610bb5565b9050919050565b60006020820190508181036000830152610cc881610bd8565b9050919050565b60006020820190508181036000830152610ce881610bfb565b9050919050565b6000602082019050610d046000830184610c1e565b92915050565b6000610d14610d25565b9050610d208282610e2c565b919050565b6000604051905090565b600067ffffffffffffffff821115610d4a57610d49610e8c565b5b610d5382610ebb565b9050602081019050919050565b600081519050919050565b600082825260208201905092915050565b6000610d8782610d8e565b9050919050565b600073ffffffffffffffffffffffffffffffffffffffff82169050919050565b6000819050919050565b82818337600083830152505050565b60005b83811015610de5578082015181840152602081019050610dca565b83811115610df4576000848401525b50505050565b60006002820490506001821680610e1257607f821691505b60208210811415610e2657610e25610e5d565b5b50919050565b610e3582610ebb565b810181811067ffffffffffffffff82111715610e5457610e53610e8c565b5b80604052505050565b7f4e487b7100000000000000000000000000000000000000000000000000000000600052602260045260246000fd5b7f4e487b7100000000000000000000000000000000000000000000000000000000600052604160045260246000fd5b6000601f19601f8301169050919050565b7f4552433732313a207472616e7366657220746f20746865207a65726f2061646460008201527f7265737300000000000000000000000000000000000000000000000000000000602082015250565b7f746f6b656e20616c726561647920657869737400000000000000000000000000600082015250565b7f746f6b656e20646f65736e277420657869737400000000000000000000000000600082015250565b7f4e6f742063616c6c656420627920746865206f776e6572000000000000000000600082015250565b7f6d696e7420746f20746865207a65726f20616464726573730000000000000000600082015250565b610fc881610d7c565b8114610fd357600080fd5b50565b610fdf81610dae565b8114610fea57600080fd5b5056fea2646970667358221220cb7b281947ddd46d695077518030493ec0ab2db6949e0504edd0c9022e1f50f364736f6c63430008010033",
					"opcodes": "PUSH1 0x80 PUSH1 0x40 MSTORE CALLVALUE DUP1 ISZERO PUSH3 0x11 JUMPI PUSH1 0x0 DUP1 REVERT JUMPDEST POP PUSH1 0x40 MLOAD PUSH3 0x1465 CODESIZE SUB DUP1 PUSH3 0x1465 DUP4 CODECOPY DUP2 DUP2 ADD PUSH1 0x40 MSTORE DUP2 ADD SWAP1 PUSH3 0x37 SWAP2 SWAP1 PUSH3 0x1EC JUMP JUMPDEST DUP3 PUSH1 0x3 PUSH1 0x0 PUSH2 0x100 EXP DUP2 SLOAD DUP2 PUSH20 0xFFFFFFFFFFFFFFFFFFFFFFFFFFFFFFFFFFFFFFFF MUL NOT AND SWAP1 DUP4 PUSH20 0xFFFFFFFFFFFFFFFFFFFFFFFFFFFFFFFFFFFFFFFF AND MUL OR SWAP1 SSTORE POP DUP2 PUSH1 0x0 SWAP1 DUP1 MLOAD SWAP1 PUSH1 0x20 ADD SWAP1 PUSH3 0x90 SWAP3 SWAP2 SWAP1 PUSH3 0xB3 JUMP JUMPDEST POP DUP1 PUSH1 0x1 SWAP1 DUP1 MLOAD SWAP1 PUSH1 0x20 ADD SWAP1 PUSH3 0xA9 SWAP3 SWAP2 SWAP1 PUSH3 0xB3 JUMP JUMPDEST POP POP POP POP PUSH3 0x432 JUMP JUMPDEST DUP3 DUP1 SLOAD PUSH3 0xC1 SWAP1 PUSH3 0x33D JUMP JUMPDEST SWAP1 PUSH1 0x0 MSTORE PUSH1 0x20 PUSH1 0x0 KECCAK256 SWAP1 PUSH1 0x1F ADD PUSH1 0x20 SWAP1 DIV DUP2 ADD SWAP3 DUP3 PUSH3 0xE5 JUMPI PUSH1 0x0 DUP6 SSTORE PUSH3 0x131 JUMP JUMPDEST DUP3 PUSH1 0x1F LT PUSH3 0x100 JUMPI DUP1 MLOAD PUSH1 0xFF NOT AND DUP4 DUP1 ADD OR DUP6 SSTORE PUSH3 0x131 JUMP JUMPDEST DUP3 DUP1 ADD PUSH1 0x1 ADD DUP6 SSTORE DUP3 ISZERO PUSH3 0x131 JUMPI SWAP2 DUP3 ADD JUMPDEST DUP3 DUP2 GT ISZERO PUSH3 0x130 JUMPI DUP3 MLOAD DUP3 SSTORE SWAP2 PUSH1 0x20 ADD SWAP2 SWAP1 PUSH1 0x1 ADD SWAP1 PUSH3 0x113 JUMP JUMPDEST JUMPDEST POP SWAP1 POP PUSH3 0x140 SWAP2 SWAP1 PUSH3 0x144 JUMP JUMPDEST POP SWAP1 JUMP JUMPDEST JUMPDEST DUP1 DUP3 GT ISZERO PUSH3 0x15F JUMPI PUSH1 0x0 DUP2 PUSH1 0x0 SWAP1 SSTORE POP PUSH1 0x1 ADD PUSH3 0x145 JUMP JUMPDEST POP SWAP1 JUMP JUMPDEST PUSH1 0x0 PUSH3 0x17A PUSH3 0x174 DUP5 PUSH3 0x29D JUMP JUMPDEST PUSH3 0x274 JUMP JUMPDEST SWAP1 POP DUP3 DUP2 MSTORE PUSH1 0x20 DUP2 ADD DUP5 DUP5 DUP5 ADD GT ISZERO PUSH3 0x193 JUMPI PUSH1 0x0 DUP1 REVERT JUMPDEST PUSH3 0x1A0 DUP5 DUP3 DUP6 PUSH3 0x307 JUMP JUMPDEST POP SWAP4 SWAP3 POP POP POP JUMP JUMPDEST PUSH1 0x0 DUP2 MLOAD SWAP1 POP PUSH3 0x1B9 DUP2 PUSH3 0x418 JUMP JUMPDEST SWAP3 SWAP2 POP POP JUMP JUMPDEST PUSH1 0x0 DUP3 PUSH1 0x1F DUP4 ADD SLT PUSH3 0x1D1 JUMPI PUSH1 0x0 DUP1 REVERT JUMPDEST DUP2 MLOAD PUSH3 0x1E3 DUP5 DUP3 PUSH1 0x20 DUP7 ADD PUSH3 0x163 JUMP JUMPDEST SWAP2 POP POP SWAP3 SWAP2 POP POP JUMP JUMPDEST PUSH1 0x0 DUP1 PUSH1 0x0 PUSH1 0x60 DUP5 DUP7 SUB SLT ISZERO PUSH3 0x202 JUMPI PUSH1 0x0 DUP1 REVERT JUMPDEST PUSH1 0x0 PUSH3 0x212 DUP7 DUP3 DUP8 ADD PUSH3 0x1A8 JUMP JUMPDEST SWAP4 POP POP PUSH1 0x20 DUP5 ADD MLOAD PUSH8 0xFFFFFFFFFFFFFFFF DUP2 GT ISZERO PUSH3 0x230 JUMPI PUSH1 0x0 DUP1 REVERT JUMPDEST PUSH3 0x23E DUP7 DUP3 DUP8 ADD PUSH3 0x1BF JUMP JUMPDEST SWAP3 POP POP PUSH1 0x40 DUP5 ADD MLOAD PUSH8 0xFFFFFFFFFFFFFFFF DUP2 GT ISZERO PUSH3 0x25C JUMPI PUSH1 0x0 DUP1 REVERT JUMPDEST PUSH3 0x26A DUP7 DUP3 DUP8 ADD PUSH3 0x1BF JUMP JUMPDEST SWAP2 POP POP SWAP3 POP SWAP3 POP SWAP3 JUMP JUMPDEST PUSH1 0x0 PUSH3 0x280 PUSH3 0x293 JUMP JUMPDEST SWAP1 POP PUSH3 0x28E DUP3 DUP3 PUSH3 0x373 JUMP JUMPDEST SWAP2 SWAP1 POP JUMP JUMPDEST PUSH1 0x0 PUSH1 0x40 MLOAD SWAP1 POP SWAP1 JUMP JUMPDEST PUSH1 0x0 PUSH8 0xFFFFFFFFFFFFFFFF DUP3 GT ISZERO PUSH3 0x2BB JUMPI PUSH3 0x2BA PUSH3 0x3D8 JUMP JUMPDEST JUMPDEST PUSH3 0x2C6 DUP3 PUSH3 0x407 JUMP JUMPDEST SWAP1 POP PUSH1 0x20 DUP2 ADD SWAP1 POP SWAP2 SWAP1 POP JUMP JUMPDEST PUSH1 0x0 PUSH3 0x2E0 DUP3 PUSH3 0x2E7 JUMP JUMPDEST SWAP1 POP SWAP2 SWAP1 POP JUMP JUMPDEST PUSH1 0x0 PUSH20 0xFFFFFFFFFFFFFFFFFFFFFFFFFFFFFFFFFFFFFFFF DUP3 AND SWAP1 POP SWAP2 SWAP1 POP JUMP JUMPDEST PUSH1 0x0 JUMPDEST DUP4 DUP2 LT ISZERO PUSH3 0x327 JUMPI DUP1 DUP3 ADD MLOAD DUP2 DUP5 ADD MSTORE PUSH1 0x20 DUP2 ADD SWAP1 POP PUSH3 0x30A JUMP JUMPDEST DUP4 DUP2 GT ISZERO PUSH3 0x337 JUMPI PUSH1 0x0 DUP5 DUP5 ADD MSTORE JUMPDEST POP POP POP POP JUMP JUMPDEST PUSH1 0x0 PUSH1 0x2 DUP3 DIV SWAP1 POP PUSH1 0x1 DUP3 AND DUP1 PUSH3 0x356 JUMPI PUSH1 0x7F DUP3 AND SWAP2 POP JUMPDEST PUSH1 0x20 DUP3 LT DUP2 EQ ISZERO PUSH3 0x36D JUMPI PUSH3 0x36C PUSH3 0x3A9 JUMP JUMPDEST JUMPDEST POP SWAP2 SWAP1 POP JUMP JUMPDEST PUSH3 0x37E DUP3 PUSH3 0x407 JUMP JUMPDEST DUP2 ADD DUP2 DUP2 LT PUSH8 0xFFFFFFFFFFFFFFFF DUP3 GT OR ISZERO PUSH3 0x3A0 JUMPI PUSH3 0x39F PUSH3 0x3D8 JUMP JUMPDEST JUMPDEST DUP1 PUSH1 0x40 MSTORE POP POP POP JUMP JUMPDEST PUSH32 0x4E487B7100000000000000000000000000000000000000000000000000000000 PUSH1 0x0 MSTORE PUSH1 0x22 PUSH1 0x4 MSTORE PUSH1 0x24 PUSH1 0x0 REVERT JUMPDEST PUSH32 0x4E487B7100000000000000000000000000000000000000000000000000000000 PUSH1 0x0 MSTORE PUSH1 0x41 PUSH1 0x4 MSTORE PUSH1 0x24 PUSH1 0x0 REVERT JUMPDEST PUSH1 0x0 PUSH1 0x1F NOT PUSH1 0x1F DUP4 ADD AND SWAP1 POP SWAP2 SWAP1 POP JUMP JUMPDEST PUSH3 0x423 DUP2 PUSH3 0x2D3 JUMP JUMPDEST DUP2 EQ PUSH3 0x42F JUMPI PUSH1 0x0 DUP1 REVERT JUMPDEST POP JUMP JUMPDEST PUSH2 0x1023 DUP1 PUSH3 0x442 PUSH1 0x0 CODECOPY PUSH1 0x0 RETURN INVALID PUSH1 0x80 PUSH1 0x40 MSTORE CALLVALUE DUP1 ISZERO PUSH2 0x10 JUMPI PUSH1 0x0 DUP1 REVERT JUMPDEST POP PUSH1 0x4 CALLDATASIZE LT PUSH2 0x57 JUMPI PUSH1 0x0 CALLDATALOAD PUSH1 0xE0 SHR DUP1 PUSH4 0x6FDDE03 EQ PUSH2 0x5C JUMPI DUP1 PUSH4 0x23B872DD EQ PUSH2 0x7A JUMPI DUP1 PUSH4 0x95D89B41 EQ PUSH2 0x96 JUMPI DUP1 PUSH4 0xBF59B347 EQ PUSH2 0xB4 JUMPI DUP1 PUSH4 0xD85D3D27 EQ PUSH2 0xE4 JUMPI JUMPDEST PUSH1 0x0 DUP1 REVERT JUMPDEST PUSH2 0x64 PUSH2 0x100 JUMP JUMPDEST PUSH1 0x40 MLOAD PUSH2 0x71 SWAP2 SWAP1 PUSH2 0xC2D JUMP JUMPDEST PUSH1 0x40 MLOAD DUP1 SWAP2 SUB SWAP1 RETURN JUMPDEST PUSH2 0x94 PUSH1 0x4 DUP1 CALLDATASIZE SUB DUP2 ADD SWAP1 PUSH2 0x8F SWAP2 SWAP1 PUSH2 0xA7D JUMP JUMPDEST PUSH2 0x192 JUMP JUMPDEST STOP JUMPDEST PUSH2 0x9E PUSH2 0x3FE JUMP JUMPDEST PUSH1 0x40 MLOAD PUSH2 0xAB SWAP2 SWAP1 PUSH2 0xC2D JUMP JUMPDEST PUSH1 0x40 MLOAD DUP1 SWAP2 SUB SWAP1 RETURN JUMPDEST PUSH2 0xCE PUSH1 0x4 DUP1 CALLDATASIZE SUB DUP2 ADD SWAP1 PUSH2 0xC9 SWAP2 SWAP1 PUSH2 0xB0D JUMP JUMPDEST PUSH2 0x490 JUMP JUMPDEST PUSH1 0x40 MLOAD PUSH2 0xDB SWAP2 SWAP1 PUSH2 0xC2D JUMP JUMPDEST PUSH1 0x40 MLOAD DUP1 SWAP2 SUB SWAP1 RETURN JUMPDEST PUSH2 0xFE PUSH1 0x4 DUP1 CALLDATASIZE SUB DUP2 ADD SWAP1 PUSH2 0xF9 SWAP2 SWAP1 PUSH2 0xACC JUMP JUMPDEST PUSH2 0x530 JUMP JUMPDEST STOP JUMPDEST PUSH1 0x60 PUSH1 0x0 DUP1 SLOAD PUSH2 0x10F SWAP1 PUSH2 0xDFA JUMP JUMPDEST DUP1 PUSH1 0x1F ADD PUSH1 0x20 DUP1 SWAP2 DIV MUL PUSH1 0x20 ADD PUSH1 0x40 MLOAD SWAP1 DUP2 ADD PUSH1 0x40 MSTORE DUP1 SWAP3 SWAP2 SWAP1 DUP2 DUP2 MSTORE PUSH1 0x20 ADD DUP3 DUP1 SLOAD PUSH2 0x13B SWAP1 PUSH2 0xDFA JUMP JUMPDEST DUP1 ISZERO PUSH2 0x188 JUMPI DUP1 PUSH1 0x1F LT PUSH2 0x15D JUMPI PUSH2 0x100 DUP1 DUP4 SLOAD DIV MUL DUP4 MSTORE SWAP2 PUSH1 0x20 ADD SWAP2 PUSH2 0x188 JUMP JUMPDEST DUP3 ADD SWAP2 SWAP1 PUSH1 0x0 MSTORE PUSH1 0x20 PUSH1 0x0 KECCAK256 SWAP1 JUMPDEST DUP2 SLOAD DUP2 MSTORE SWAP1 PUSH1 0x1 ADD SWAP1 PUSH1 0x20 ADD DUP1 DUP4 GT PUSH2 0x16B JUMPI DUP3 SWAP1 SUB PUSH1 0x1F AND DUP3 ADD SWAP2 JUMPDEST POP POP POP POP POP SWAP1 POP SWAP1 JUMP JUMPDEST DUP3 PUSH20 0xFFFFFFFFFFFFFFFFFFFFFFFFFFFFFFFFFFFFFFFF AND PUSH1 0x5 PUSH1 0x0 DUP4 DUP2 MSTORE PUSH1 0x20 ADD SWAP1 DUP2 MSTORE PUSH1 0x20 ADD PUSH1 0x0 KECCAK256 PUSH1 0x0 SWAP1 SLOAD SWAP1 PUSH2 0x100 EXP SWAP1 DIV PUSH20 0xFFFFFFFFFFFFFFFFFFFFFFFFFFFFFFFFFFFFFFFF AND PUSH20 0xFFFFFFFFFFFFFFFFFFFFFFFFFFFFFFFFFFFFFFFF AND EQ PUSH2 0x233 JUMPI PUSH1 0x40 MLOAD PUSH32 0x8C379A000000000000000000000000000000000000000000000000000000000 DUP2 MSTORE PUSH1 0x4 ADD PUSH2 0x22A SWAP1 PUSH2 0xCAF JUMP JUMPDEST PUSH1 0x40 MLOAD DUP1 SWAP2 SUB SWAP1 REVERT JUMPDEST PUSH1 0x0 PUSH20 0xFFFFFFFFFFFFFFFFFFFFFFFFFFFFFFFFFFFFFFFF AND DUP3 PUSH20 0xFFFFFFFFFFFFFFFFFFFFFFFFFFFFFFFFFFFFFFFF AND EQ ISZERO PUSH2 0x2A3 JUMPI PUSH1 0x40 MLOAD PUSH32 0x8C379A000000000000000000000000000000000000000000000000000000000 DUP2 MSTORE PUSH1 0x4 ADD PUSH2 0x29A SWAP1 PUSH2 0xC4F JUMP JUMPDEST PUSH1 0x40 MLOAD DUP1 SWAP2 SUB SWAP1 REVERT JUMPDEST PUSH1 0x4 PUSH1 0x0 DUP5 PUSH20 0xFFFFFFFFFFFFFFFFFFFFFFFFFFFFFFFFFFFFFFFF AND PUSH20 0xFFFFFFFFFFFFFFFFFFFFFFFFFFFFFFFFFFFFFFFF AND DUP2 MSTORE PUSH1 0x20 ADD SWAP1 DUP2 MSTORE PUSH1 0x20 ADD PUSH1 0x0 KECCAK256 PUSH1 0x0 DUP2 SLOAD DUP1 SWAP3 SWAP2 SWAP1 PUSH1 0x1 SWAP1 SUB SWAP2 SWAP1 POP SSTORE POP PUSH1 0x4 PUSH1 0x0 DUP4 PUSH20 0xFFFFFFFFFFFFFFFFFFFFFFFFFFFFFFFFFFFFFFFF AND PUSH20 0xFFFFFFFFFFFFFFFFFFFFFFFFFFFFFFFFFFFFFFFF AND DUP2 MSTORE PUSH1 0x20 ADD SWAP1 DUP2 MSTORE PUSH1 0x20 ADD PUSH1 0x0 KECCAK256 PUSH1 0x0 DUP2 SLOAD DUP1 SWAP3 SWAP2 SWAP1 PUSH1 0x1 ADD SWAP2 SWAP1 POP SSTORE POP DUP2 PUSH1 0x5 PUSH1 0x0 DUP4 DUP2 MSTORE PUSH1 0x20 ADD SWAP1 DUP2 MSTORE PUSH1 0x20 ADD PUSH1 0x0 KECCAK256 PUSH1 0x0 PUSH2 0x100 EXP DUP2 SLOAD DUP2 PUSH20 0xFFFFFFFFFFFFFFFFFFFFFFFFFFFFFFFFFFFFFFFF MUL NOT AND SWAP1 DUP4 PUSH20 0xFFFFFFFFFFFFFFFFFFFFFFFFFFFFFFFFFFFFFFFF AND MUL OR SWAP1 SSTORE POP DUP2 PUSH20 0xFFFFFFFFFFFFFFFFFFFFFFFFFFFFFFFFFFFFFFFF AND DUP4 PUSH20 0xFFFFFFFFFFFFFFFFFFFFFFFFFFFFFFFFFFFFFFFF AND PUSH32 0xDDF252AD1BE2C89B69C2B068FC378DAA952BA7F163C4A11628F55A4DF523B3EF DUP4 PUSH1 0x40 MLOAD PUSH2 0x3F1 SWAP2 SWAP1 PUSH2 0xCEF JUMP JUMPDEST PUSH1 0x40 MLOAD DUP1 SWAP2 SUB SWAP1 LOG3 POP POP POP JUMP JUMPDEST PUSH1 0x60 PUSH1 0x1 DUP1 SLOAD PUSH2 0x40D SWAP1 PUSH2 0xDFA JUMP JUMPDEST DUP1 PUSH1 0x1F ADD PUSH1 0x20 DUP1 SWAP2 DIV MUL PUSH1 0x20 ADD PUSH1 0x40 MLOAD SWAP1 DUP2 ADD PUSH1 0x40 MSTORE DUP1 SWAP3 SWAP2 SWAP1 DUP2 DUP2 MSTORE PUSH1 0x20 ADD DUP3 DUP1 SLOAD PUSH2 0x439 SWAP1 PUSH2 0xDFA JUMP JUMPDEST DUP1 ISZERO PUSH2 0x486 JUMPI DUP1 PUSH1 0x1F LT PUSH2 0x45B JUMPI PUSH2 0x100 DUP1 DUP4 SLOAD DIV MUL DUP4 MSTORE SWAP2 PUSH1 0x20 ADD SWAP2 PUSH2 0x486 JUMP JUMPDEST DUP3 ADD SWAP2 SWAP1 PUSH1 0x0 MSTORE PUSH1 0x20 PUSH1 0x0 KECCAK256 SWAP1 JUMPDEST DUP2 SLOAD DUP2 MSTORE SWAP1 PUSH1 0x1 ADD SWAP1 PUSH1 0x20 ADD DUP1 DUP4 GT PUSH2 0x469 JUMPI DUP3 SWAP1 SUB PUSH1 0x1F AND DUP3 ADD SWAP2 JUMPDEST POP POP POP POP POP SWAP1 POP SWAP1 JUMP JUMPDEST PUSH1 0x8 PUSH1 0x20 MSTORE DUP1 PUSH1 0x0 MSTORE PUSH1 0x40 PUSH1 0x0 KECCAK256 PUSH1 0x0 SWAP2 POP SWAP1 POP DUP1 SLOAD PUSH2 0x4AF SWAP1 PUSH2 0xDFA JUMP JUMPDEST DUP1 PUSH1 0x1F ADD PUSH1 0x20 DUP1 SWAP2 DIV MUL PUSH1 0x20 ADD PUSH1 0x40 MLOAD SWAP1 DUP2 ADD PUSH1 0x40 MSTORE DUP1 SWAP3 SWAP2 SWAP1 DUP2 DUP2 MSTORE PUSH1 0x20 ADD DUP3 DUP1 SLOAD PUSH2 0x4DB SWAP1 PUSH2 0xDFA JUMP JUMPDEST DUP1 ISZERO PUSH2 0x528 JUMPI DUP1 PUSH1 0x1F LT PUSH2 0x4FD JUMPI PUSH2 0x100 DUP1 DUP4 SLOAD DIV MUL DUP4 MSTORE SWAP2 PUSH1 0x20 ADD SWAP2 PUSH2 0x528 JUMP JUMPDEST DUP3 ADD SWAP2 SWAP1 PUSH1 0x0 MSTORE PUSH1 0x20 PUSH1 0x0 KECCAK256 SWAP1 JUMPDEST DUP2 SLOAD DUP2 MSTORE SWAP1 PUSH1 0x1 ADD SWAP1 PUSH1 0x20 ADD DUP1 DUP4 GT PUSH2 0x50B JUMPI DUP3 SWAP1 SUB PUSH1 0x1F AND DUP3 ADD SWAP2 JUMPDEST POP POP POP POP POP DUP2 JUMP JUMPDEST PUSH2 0x53A PUSH1 0x2 PUSH2 0x597 JUMP JUMPDEST PUSH1 0x0 PUSH2 0x546 PUSH1 0x2 PUSH2 0x5AD JUMP JUMPDEST SWAP1 POP PUSH2 0x552 CALLER DUP3 PUSH2 0x5BB JUMP JUMPDEST PUSH2 0x55C DUP2 DUP4 PUSH2 0x879 JUMP JUMPDEST PUSH32 0x7F8949B6ECA2B14D0FEB1AF0844A112998E467A4F88B8683301F3A6E409F32AE DUP2 PUSH1 0x40 MLOAD PUSH2 0x58B SWAP2 SWAP1 PUSH2 0xCEF JUMP JUMPDEST PUSH1 0x40 MLOAD DUP1 SWAP2 SUB SWAP1 LOG1 POP POP JUMP JUMPDEST PUSH1 0x1 DUP2 PUSH1 0x0 ADD PUSH1 0x0 DUP3 DUP3 SLOAD ADD SWAP3 POP POP DUP2 SWAP1 SSTORE POP POP JUMP JUMPDEST PUSH1 0x0 DUP2 PUSH1 0x0 ADD SLOAD SWAP1 POP SWAP2 SWAP1 POP JUMP JUMPDEST PUSH1 0x0 PUSH20 0xFFFFFFFFFFFFFFFFFFFFFFFFFFFFFFFFFFFFFFFF AND PUSH1 0x7 PUSH1 0x0 DUP4 DUP2 MSTORE PUSH1 0x20 ADD SWAP1 DUP2 MSTORE PUSH1 0x20 ADD PUSH1 0x0 KECCAK256 PUSH1 0x0 SWAP1 SLOAD SWAP1 PUSH2 0x100 EXP SWAP1 DIV PUSH20 0xFFFFFFFFFFFFFFFFFFFFFFFFFFFFFFFFFFFFFFFF AND PUSH20 0xFFFFFFFFFFFFFFFFFFFFFFFFFFFFFFFFFFFFFFFF AND EQ PUSH2 0x65D JUMPI PUSH1 0x40 MLOAD PUSH32 0x8C379A000000000000000000000000000000000000000000000000000000000 DUP2 MSTORE PUSH1 0x4 ADD PUSH2 0x654 SWAP1 PUSH2 0xC6F JUMP JUMPDEST PUSH1 0x40 MLOAD DUP1 SWAP2 SUB SWAP1 REVERT JUMPDEST PUSH1 0x0 PUSH20 0xFFFFFFFFFFFFFFFFFFFFFFFFFFFFFFFFFFFFFFFF AND DUP3 PUSH20 0xFFFFFFFFFFFFFFFFFFFFFFFFFFFFFFFFFFFFFFFF AND EQ ISZERO PUSH2 0x6CD JUMPI PUSH1 0x40 MLOAD PUSH32 0x8C379A000000000000000000000000000000000000000000000000000000000 DUP2 MSTORE PUSH1 0x4 ADD PUSH2 0x6C4 SWAP1 PUSH2 0xCCF JUMP JUMPDEST PUSH1 0x40 MLOAD DUP1 SWAP2 SUB SWAP1 REVERT JUMPDEST PUSH1 0x4 PUSH1 0x0 DUP4 PUSH20 0xFFFFFFFFFFFFFFFFFFFFFFFFFFFFFFFFFFFFFFFF AND PUSH20 0xFFFFFFFFFFFFFFFFFFFFFFFFFFFFFFFFFFFFFFFF AND DUP2 MSTORE PUSH1 0x20 ADD SWAP1 DUP2 MSTORE PUSH1 0x20 ADD PUSH1 0x0 KECCAK256 PUSH1 0x0 DUP2 SLOAD DUP1 SWAP3 SWAP2 SWAP1 PUSH1 0x1 ADD SWAP2 SWAP1 POP SSTORE POP PUSH1 0x6 PUSH1 0x0 DUP4 PUSH20 0xFFFFFFFFFFFFFFFFFFFFFFFFFFFFFFFFFFFFFFFF AND PUSH20 0xFFFFFFFFFFFFFFFFFFFFFFFFFFFFFFFFFFFFFFFF AND DUP2 MSTORE PUSH1 0x20 ADD SWAP1 DUP2 MSTORE PUSH1 0x20 ADD PUSH1 0x0 KECCAK256 PUSH1 0x0 DUP2 SLOAD DUP1 SWAP3 SWAP2 SWAP1 PUSH1 0x1 ADD SWAP2 SWAP1 POP SSTORE POP DUP2 PUSH1 0x5 PUSH1 0x0 DUP4 DUP2 MSTORE PUSH1 0x20 ADD SWAP1 DUP2 MSTORE PUSH1 0x20 ADD PUSH1 0x0 KECCAK256 PUSH1 0x0 PUSH2 0x100 EXP DUP2 SLOAD DUP2 PUSH20 0xFFFFFFFFFFFFFFFFFFFFFFFFFFFFFFFFFFFFFFFF MUL NOT AND SWAP1 DUP4 PUSH20 0xFFFFFFFFFFFFFFFFFFFFFFFFFFFFFFFFFFFFFFFF AND MUL OR SWAP1 SSTORE POP DUP2 PUSH1 0x7 PUSH1 0x0 DUP4 DUP2 MSTORE PUSH1 0x20 ADD SWAP1 DUP2 MSTORE PUSH1 0x20 ADD PUSH1 0x0 KECCAK256 PUSH1 0x0 PUSH2 0x100 EXP DUP2 SLOAD DUP2 PUSH20 0xFFFFFFFFFFFFFFFFFFFFFFFFFFFFFFFFFFFFFFFF MUL NOT AND SWAP1 DUP4 PUSH20 0xFFFFFFFFFFFFFFFFFFFFFFFFFFFFFFFFFFFFFFFF AND MUL OR SWAP1 SSTORE POP DUP2 PUSH20 0xFFFFFFFFFFFFFFFFFFFFFFFFFFFFFFFFFFFFFFFF AND PUSH1 0x0 PUSH20 0xFFFFFFFFFFFFFFFFFFFFFFFFFFFFFFFFFFFFFFFF AND PUSH32 0xDDF252AD1BE2C89B69C2B068FC378DAA952BA7F163C4A11628F55A4DF523B3EF DUP4 PUSH1 0x40 MLOAD PUSH2 0x86D SWAP2 SWAP1 PUSH2 0xCEF JUMP JUMPDEST PUSH1 0x40 MLOAD DUP1 SWAP2 SUB SWAP1 LOG3 POP POP JUMP JUMPDEST PUSH1 0x0 PUSH20 0xFFFFFFFFFFFFFFFFFFFFFFFFFFFFFFFFFFFFFFFF AND PUSH1 0x7 PUSH1 0x0 DUP5 DUP2 MSTORE PUSH1 0x20 ADD SWAP1 DUP2 MSTORE PUSH1 0x20 ADD PUSH1 0x0 KECCAK256 PUSH1 0x0 SWAP1 SLOAD SWAP1 PUSH2 0x100 EXP SWAP1 DIV PUSH20 0xFFFFFFFFFFFFFFFFFFFFFFFFFFFFFFFFFFFFFFFF AND PUSH20 0xFFFFFFFFFFFFFFFFFFFFFFFFFFFFFFFFFFFFFFFF AND EQ ISZERO PUSH2 0x91C JUMPI PUSH1 0x40 MLOAD PUSH32 0x8C379A000000000000000000000000000000000000000000000000000000000 DUP2 MSTORE PUSH1 0x4 ADD PUSH2 0x913 SWAP1 PUSH2 0xC8F JUMP JUMPDEST PUSH1 0x40 MLOAD DUP1 SWAP2 SUB SWAP1 REVERT JUMPDEST DUP1 PUSH1 0x8 PUSH1 0x0 DUP5 DUP2 MSTORE PUSH1 0x20 ADD SWAP1 DUP2 MSTORE PUSH1 0x20 ADD PUSH1 0x0 KECCAK256 SWAP1 DUP1 MLOAD SWAP1 PUSH1 0x20 ADD SWAP1 PUSH2 0x943 SWAP3 SWAP2 SWAP1 PUSH2 0x948 JUMP JUMPDEST POP POP POP JUMP JUMPDEST DUP3 DUP1 SLOAD PUSH2 0x954 SWAP1 PUSH2 0xDFA JUMP JUMPDEST SWAP1 PUSH1 0x0 MSTORE PUSH1 0x20 PUSH1 0x0 KECCAK256 SWAP1 PUSH1 0x1F ADD PUSH1 0x20 SWAP1 DIV DUP2 ADD SWAP3 DUP3 PUSH2 0x976 JUMPI PUSH1 0x0 DUP6 SSTORE PUSH2 0x9BD JUMP JUMPDEST DUP3 PUSH1 0x1F LT PUSH2 0x98F JUMPI DUP1 MLOAD PUSH1 0xFF NOT AND DUP4 DUP1 ADD OR DUP6 SSTORE PUSH2 0x9BD JUMP JUMPDEST DUP3 DUP1 ADD PUSH1 0x1 ADD DUP6 SSTORE DUP3 ISZERO PUSH2 0x9BD JUMPI SWAP2 DUP3 ADD JUMPDEST DUP3 DUP2 GT ISZERO PUSH2 0x9BC JUMPI DUP3 MLOAD DUP3 SSTORE SWAP2 PUSH1 0x20 ADD SWAP2 SWAP1 PUSH1 0x1 ADD SWAP1 PUSH2 0x9A1 JUMP JUMPDEST JUMPDEST POP SWAP1 POP PUSH2 0x9CA SWAP2 SWAP1 PUSH2 0x9CE JUMP JUMPDEST POP SWAP1 JUMP JUMPDEST JUMPDEST DUP1 DUP3 GT ISZERO PUSH2 0x9E7 JUMPI PUSH1 0x0 DUP2 PUSH1 0x0 SWAP1 SSTORE POP PUSH1 0x1 ADD PUSH2 0x9CF JUMP JUMPDEST POP SWAP1 JUMP JUMPDEST PUSH1 0x0 PUSH2 0x9FE PUSH2 0x9F9 DUP5 PUSH2 0xD2F JUMP JUMPDEST PUSH2 0xD0A JUMP JUMPDEST SWAP1 POP DUP3 DUP2 MSTORE PUSH1 0x20 DUP2 ADD DUP5 DUP5 DUP5 ADD GT ISZERO PUSH2 0xA16 JUMPI PUSH1 0x0 DUP1 REVERT JUMPDEST PUSH2 0xA21 DUP5 DUP3 DUP6 PUSH2 0xDB8 JUMP JUMPDEST POP SWAP4 SWAP3 POP POP POP JUMP JUMPDEST PUSH1 0x0 DUP2 CALLDATALOAD SWAP1 POP PUSH2 0xA38 DUP2 PUSH2 0xFBF JUMP JUMPDEST SWAP3 SWAP2 POP POP JUMP JUMPDEST PUSH1 0x0 DUP3 PUSH1 0x1F DUP4 ADD SLT PUSH2 0xA4F JUMPI PUSH1 0x0 DUP1 REVERT JUMPDEST DUP2 CALLDATALOAD PUSH2 0xA5F DUP5 DUP3 PUSH1 0x20 DUP7 ADD PUSH2 0x9EB JUMP JUMPDEST SWAP2 POP POP SWAP3 SWAP2 POP POP JUMP JUMPDEST PUSH1 0x0 DUP2 CALLDATALOAD SWAP1 POP PUSH2 0xA77 DUP2 PUSH2 0xFD6 JUMP JUMPDEST SWAP3 SWAP2 POP POP JUMP JUMPDEST PUSH1 0x0 DUP1 PUSH1 0x0 PUSH1 0x60 DUP5 DUP7 SUB SLT ISZERO PUSH2 0xA92 JUMPI PUSH1 0x0 DUP1 REVERT JUMPDEST PUSH1 0x0 PUSH2 0xAA0 DUP7 DUP3 DUP8 ADD PUSH2 0xA29 JUMP JUMPDEST SWAP4 POP POP PUSH1 0x20 PUSH2 0xAB1 DUP7 DUP3 DUP8 ADD PUSH2 0xA29 JUMP JUMPDEST SWAP3 POP POP PUSH1 0x40 PUSH2 0xAC2 DUP7 DUP3 DUP8 ADD PUSH2 0xA68 JUMP JUMPDEST SWAP2 POP POP SWAP3 POP SWAP3 POP SWAP3 JUMP JUMPDEST PUSH1 0x0 PUSH1 0x20 DUP3 DUP5 SUB SLT ISZERO PUSH2 0xADE JUMPI PUSH1 0x0 DUP1 REVERT JUMPDEST PUSH1 0x0 DUP3 ADD CALLDATALOAD PUSH8 0xFFFFFFFFFFFFFFFF DUP2 GT ISZERO PUSH2 0xAF8 JUMPI PUSH1 0x0 DUP1 REVERT JUMPDEST PUSH2 0xB04 DUP5 DUP3 DUP6 ADD PUSH2 0xA3E JUMP JUMPDEST SWAP2 POP POP SWAP3 SWAP2 POP POP JUMP JUMPDEST PUSH1 0x0 PUSH1 0x20 DUP3 DUP5 SUB SLT ISZERO PUSH2 0xB1F JUMPI PUSH1 0x0 DUP1 REVERT JUMPDEST PUSH1 0x0 PUSH2 0xB2D DUP5 DUP3 DUP6 ADD PUSH2 0xA68 JUMP JUMPDEST SWAP2 POP POP SWAP3 SWAP2 POP POP JUMP JUMPDEST PUSH1 0x0 PUSH2 0xB41 DUP3 PUSH2 0xD60 JUMP JUMPDEST PUSH2 0xB4B DUP2 DUP6 PUSH2 0xD6B JUMP JUMPDEST SWAP4 POP PUSH2 0xB5B DUP2 DUP6 PUSH1 0x20 DUP7 ADD PUSH2 0xDC7 JUMP JUMPDEST PUSH2 0xB64 DUP2 PUSH2 0xEBB JUMP JUMPDEST DUP5 ADD SWAP2 POP POP SWAP3 SWAP2 POP POP JUMP JUMPDEST PUSH1 0x0 PUSH2 0xB7C PUSH1 0x24 DUP4 PUSH2 0xD6B JUMP JUMPDEST SWAP2 POP PUSH2 0xB87 DUP3 PUSH2 0xECC JUMP JUMPDEST PUSH1 0x40 DUP3 ADD SWAP1 POP SWAP2 SWAP1 POP JUMP JUMPDEST PUSH1 0x0 PUSH2 0xB9F PUSH1 0x13 DUP4 PUSH2 0xD6B JUMP JUMPDEST SWAP2 POP PUSH2 0xBAA DUP3 PUSH2 0xF1B JUMP JUMPDEST PUSH1 0x20 DUP3 ADD SWAP1 POP SWAP2 SWAP1 POP JUMP JUMPDEST PUSH1 0x0 PUSH2 0xBC2 PUSH1 0x13 DUP4 PUSH2 0xD6B JUMP JUMPDEST SWAP2 POP PUSH2 0xBCD DUP3 PUSH2 0xF44 JUMP JUMPDEST PUSH1 0x20 DUP3 ADD SWAP1 POP SWAP2 SWAP1 POP JUMP JUMPDEST PUSH1 0x0 PUSH2 0xBE5 PUSH1 0x17 DUP4 PUSH2 0xD6B JUMP JUMPDEST SWAP2 POP PUSH2 0xBF0 DUP3 PUSH2 0xF6D JUMP JUMPDEST PUSH1 0x20 DUP3 ADD SWAP1 POP SWAP2 SWAP1 POP JUMP JUMPDEST PUSH1 0x0 PUSH2 0xC08 PUSH1 0x18 DUP4 PUSH2 0xD6B JUMP JUMPDEST SWAP2 POP PUSH2 0xC13 DUP3 PUSH2 0xF96 JUMP JUMPDEST PUSH1 0x20 DUP3 ADD SWAP1 POP SWAP2 SWAP1 POP JUMP JUMPDEST PUSH2 0xC27 DUP2 PUSH2 0xDAE JUMP JUMPDEST DUP3 MSTORE POP POP JUMP JUMPDEST PUSH1 0x0 PUSH1 0x20 DUP3 ADD SWAP1 POP DUP2 DUP2 SUB PUSH1 0x0 DUP4 ADD MSTORE PUSH2 0xC47 DUP2 DUP5 PUSH2 0xB36 JUMP JUMPDEST SWAP1 POP SWAP3 SWAP2 POP POP JUMP JUMPDEST PUSH1 0x0 PUSH1 0x20 DUP3 ADD SWAP1 POP DUP2 DUP2 SUB PUSH1 0x0 DUP4 ADD MSTORE PUSH2 0xC68 DUP2 PUSH2 0xB6F JUMP JUMPDEST SWAP1 POP SWAP2 SWAP1 POP JUMP JUMPDEST PUSH1 0x0 PUSH1 0x20 DUP3 ADD SWAP1 POP DUP2 DUP2 SUB PUSH1 0x0 DUP4 ADD MSTORE PUSH2 0xC88 DUP2 PUSH2 0xB92 JUMP JUMPDEST SWAP1 POP SWAP2 SWAP1 POP JUMP JUMPDEST PUSH1 0x0 PUSH1 0x20 DUP3 ADD SWAP1 POP DUP2 DUP2 SUB PUSH1 0x0 DUP4 ADD MSTORE PUSH2 0xCA8 DUP2 PUSH2 0xBB5 JUMP JUMPDEST SWAP1 POP SWAP2 SWAP1 POP JUMP JUMPDEST PUSH1 0x0 PUSH1 0x20 DUP3 ADD SWAP1 POP DUP2 DUP2 SUB PUSH1 0x0 DUP4 ADD MSTORE PUSH2 0xCC8 DUP2 PUSH2 0xBD8 JUMP JUMPDEST SWAP1 POP SWAP2 SWAP1 POP JUMP JUMPDEST PUSH1 0x0 PUSH1 0x20 DUP3 ADD SWAP1 POP DUP2 DUP2 SUB PUSH1 0x0 DUP4 ADD MSTORE PUSH2 0xCE8 DUP2 PUSH2 0xBFB JUMP JUMPDEST SWAP1 POP SWAP2 SWAP1 POP JUMP JUMPDEST PUSH1 0x0 PUSH1 0x20 DUP3 ADD SWAP1 POP PUSH2 0xD04 PUSH1 0x0 DUP4 ADD DUP5 PUSH2 0xC1E JUMP JUMPDEST SWAP3 SWAP2 POP POP JUMP JUMPDEST PUSH1 0x0 PUSH2 0xD14 PUSH2 0xD25 JUMP JUMPDEST SWAP1 POP PUSH2 0xD20 DUP3 DUP3 PUSH2 0xE2C JUMP JUMPDEST SWAP2 SWAP1 POP JUMP JUMPDEST PUSH1 0x0 PUSH1 0x40 MLOAD SWAP1 POP SWAP1 JUMP JUMPDEST PUSH1 0x0 PUSH8 0xFFFFFFFFFFFFFFFF DUP3 GT ISZERO PUSH2 0xD4A JUMPI PUSH2 0xD49 PUSH2 0xE8C JUMP JUMPDEST JUMPDEST PUSH2 0xD53 DUP3 PUSH2 0xEBB JUMP JUMPDEST SWAP1 POP PUSH1 0x20 DUP2 ADD SWAP1 POP SWAP2 SWAP1 POP JUMP JUMPDEST PUSH1 0x0 DUP2 MLOAD SWAP1 POP SWAP2 SWAP1 POP JUMP JUMPDEST PUSH1 0x0 DUP3 DUP3 MSTORE PUSH1 0x20 DUP3 ADD SWAP1 POP SWAP3 SWAP2 POP POP JUMP JUMPDEST PUSH1 0x0 PUSH2 0xD87 DUP3 PUSH2 0xD8E JUMP JUMPDEST SWAP1 POP SWAP2 SWAP1 POP JUMP JUMPDEST PUSH1 0x0 PUSH20 0xFFFFFFFFFFFFFFFFFFFFFFFFFFFFFFFFFFFFFFFF DUP3 AND SWAP1 POP SWAP2 SWAP1 POP JUMP JUMPDEST PUSH1 0x0 DUP2 SWAP1 POP SWAP2 SWAP1 POP JUMP JUMPDEST DUP3 DUP2 DUP4 CALLDATACOPY PUSH1 0x0 DUP4 DUP4 ADD MSTORE POP POP POP JUMP JUMPDEST PUSH1 0x0 JUMPDEST DUP4 DUP2 LT ISZERO PUSH2 0xDE5 JUMPI DUP1 DUP3 ADD MLOAD DUP2 DUP5 ADD MSTORE PUSH1 0x20 DUP2 ADD SWAP1 POP PUSH2 0xDCA JUMP JUMPDEST DUP4 DUP2 GT ISZERO PUSH2 0xDF4 JUMPI PUSH1 0x0 DUP5 DUP5 ADD MSTORE JUMPDEST POP POP POP POP JUMP JUMPDEST PUSH1 0x0 PUSH1 0x2 DUP3 DIV SWAP1 POP PUSH1 0x1 DUP3 AND DUP1 PUSH2 0xE12 JUMPI PUSH1 0x7F DUP3 AND SWAP2 POP JUMPDEST PUSH1 0x20 DUP3 LT DUP2 EQ ISZERO PUSH2 0xE26 JUMPI PUSH2 0xE25 PUSH2 0xE5D JUMP JUMPDEST JUMPDEST POP SWAP2 SWAP1 POP JUMP JUMPDEST PUSH2 0xE35 DUP3 PUSH2 0xEBB JUMP JUMPDEST DUP2 ADD DUP2 DUP2 LT PUSH8 0xFFFFFFFFFFFFFFFF DUP3 GT OR ISZERO PUSH2 0xE54 JUMPI PUSH2 0xE53 PUSH2 0xE8C JUMP JUMPDEST JUMPDEST DUP1 PUSH1 0x40 MSTORE POP POP POP JUMP JUMPDEST PUSH32 0x4E487B7100000000000000000000000000000000000000000000000000000000 PUSH1 0x0 MSTORE PUSH1 0x22 PUSH1 0x4 MSTORE PUSH1 0x24 PUSH1 0x0 REVERT JUMPDEST PUSH32 0x4E487B7100000000000000000000000000000000000000000000000000000000 PUSH1 0x0 MSTORE PUSH1 0x41 PUSH1 0x4 MSTORE PUSH1 0x24 PUSH1 0x0 REVERT JUMPDEST PUSH1 0x0 PUSH1 0x1F NOT PUSH1 0x1F DUP4 ADD AND SWAP1 POP SWAP2 SWAP1 POP JUMP JUMPDEST PUSH32 0x4552433732313A207472616E7366657220746F20746865207A65726F20616464 PUSH1 0x0 DUP3 ADD MSTORE PUSH32 0x7265737300000000000000000000000000000000000000000000000000000000 PUSH1 0x20 DUP3 ADD MSTORE POP JUMP JUMPDEST PUSH32 0x746F6B656E20616C726561647920657869737400000000000000000000000000 PUSH1 0x0 DUP3 ADD MSTORE POP JUMP JUMPDEST PUSH32 0x746F6B656E20646F65736E277420657869737400000000000000000000000000 PUSH1 0x0 DUP3 ADD MSTORE POP JUMP JUMPDEST PUSH32 0x4E6F742063616C6C656420627920746865206F776E6572000000000000000000 PUSH1 0x0 DUP3 ADD MSTORE POP JUMP JUMPDEST PUSH32 0x6D696E7420746F20746865207A65726F20616464726573730000000000000000 PUSH1 0x0 DUP3 ADD MSTORE POP JUMP JUMPDEST PUSH2 0xFC8 DUP2 PUSH2 0xD7C JUMP JUMPDEST DUP2 EQ PUSH2 0xFD3 JUMPI PUSH1 0x0 DUP1 REVERT JUMPDEST POP JUMP JUMPDEST PUSH2 0xFDF DUP2 PUSH2 0xDAE JUMP JUMPDEST DUP2 EQ PUSH2 0xFEA JUMPI PUSH1 0x0 DUP1 REVERT JUMPDEST POP JUMP INVALID LOG2 PUSH5 0x6970667358 0x22 SLT KECCAK256 0xCB PUSH28 0x281947DDD46D695077518030493EC0AB2DB6949E0504EDD0C9022E1F POP RETURN PUSH5 0x736F6C6343 STOP ADDMOD ADD STOP CALLER "
				},
				"gasEstimates": {
					"creation": {
						"codeDepositCost": "826200",
						"executionCost": "infinite",
						"totalCost": "infinite"
					},
					"external": {
						"mint(string)": "infinite",
						"name()": "infinite",
						"symbol()": "infinite",
						"tokenToUri(uint256)": "infinite",
						"transferFrom(address,address,uint256)": "infinite"
					},
					"internal": {
						"_safeMint(address,uint256)": "infinite",
						"_setTokenUri(uint256,string memory)": "infinite"
					}
				},
				"methodIdentifiers": {
					"mint(string)": "d85d3d27",
					"name()": "06fdde03",
					"symbol()": "95d89b41",
					"tokenToUri(uint256)": "bf59b347",
					"transferFrom(address,address,uint256)": "23b872dd"
				}
			},
			"storageLayout": {
				"storage": [
					{
						"astId": 82,
						"contract": "contracts/GeekNft.sol:GeekNft",
						"label": "_name",
						"offset": 0,
						"slot": "0",
						"type": "t_string_storage"
					},
					{
						"astId": 84,
						"contract": "contracts/GeekNft.sol:GeekNft",
						"label": "_symbol",
						"offset": 0,
						"slot": "1",
						"type": "t_string_storage"
					},
					{
						"astId": 87,
						"contract": "contracts/GeekNft.sol:GeekNft",
						"label": "tokenIds",
						"offset": 0,
						"slot": "2",
						"type": "t_struct(Counter)5_storage"
					},
					{
						"astId": 89,
						"contract": "contracts/GeekNft.sol:GeekNft",
						"label": "marketplaceAddress",
						"offset": 0,
						"slot": "3",
						"type": "t_address"
					},
					{
						"astId": 93,
						"contract": "contracts/GeekNft.sol:GeekNft",
						"label": "tokensOwnerCount",
						"offset": 0,
						"slot": "4",
						"type": "t_mapping(t_address,t_uint256)"
					},
					{
						"astId": 97,
						"contract": "contracts/GeekNft.sol:GeekNft",
						"label": "tokenToOwner",
						"offset": 0,
						"slot": "5",
						"type": "t_mapping(t_uint256,t_address)"
					},
					{
						"astId": 101,
						"contract": "contracts/GeekNft.sol:GeekNft",
						"label": "tokensCreatorCount",
						"offset": 0,
						"slot": "6",
						"type": "t_mapping(t_address,t_uint256)"
					},
					{
						"astId": 105,
						"contract": "contracts/GeekNft.sol:GeekNft",
						"label": "tokenToCreator",
						"offset": 0,
						"slot": "7",
						"type": "t_mapping(t_uint256,t_address)"
					},
					{
						"astId": 109,
						"contract": "contracts/GeekNft.sol:GeekNft",
						"label": "tokenToUri",
						"offset": 0,
						"slot": "8",
						"type": "t_mapping(t_uint256,t_string_storage)"
					}
				],
				"types": {
					"t_address": {
						"encoding": "inplace",
						"label": "address",
						"numberOfBytes": "20"
					},
					"t_mapping(t_address,t_uint256)": {
						"encoding": "mapping",
						"key": "t_address",
						"label": "mapping(address => uint256)",
						"numberOfBytes": "32",
						"value": "t_uint256"
					},
					"t_mapping(t_uint256,t_address)": {
						"encoding": "mapping",
						"key": "t_uint256",
						"label": "mapping(uint256 => address)",
						"numberOfBytes": "32",
						"value": "t_address"
					},
					"t_mapping(t_uint256,t_string_storage)": {
						"encoding": "mapping",
						"key": "t_uint256",
						"label": "mapping(uint256 => string)",
						"numberOfBytes": "32",
						"value": "t_string_storage"
					},
					"t_string_storage": {
						"encoding": "bytes",
						"label": "string",
						"numberOfBytes": "32"
					},
					"t_struct(Counter)5_storage": {
						"encoding": "inplace",
						"label": "struct Counters.Counter",
						"members": [
							{
								"astId": 4,
								"contract": "contracts/GeekNft.sol:GeekNft",
								"label": "_value",
								"offset": 0,
								"slot": "0",
								"type": "t_uint256"
							}
						],
						"numberOfBytes": "32"
					},
					"t_uint256": {
						"encoding": "inplace",
						"label": "uint256",
						"numberOfBytes": "32"
					}
				}
			},
			"userdoc": {
				"kind": "user",
				"methods": {},
				"version": 1
			}
		}
	}
}