{
	"contracts/GeekNft.sol": {
		"GeekNft": {
			"abi": [
				{
					"inputs": [],
					"stateMutability": "nonpayable",
					"type": "constructor"
				},
				{
					"anonymous": false,
					"inputs": [
						{
							"indexed": true,
							"internalType": "address",
							"name": "_from",
							"type": "address"
						},
						{
							"indexed": true,
							"internalType": "address",
							"name": "_to",
							"type": "address"
						},
						{
							"indexed": false,
							"internalType": "uint256",
							"name": "_tokenId",
							"type": "uint256"
						}
					],
					"name": "Transfer",
					"type": "event"
				},
				{
					"inputs": [
						{
							"internalType": "address",
							"name": "_owner",
							"type": "address"
						}
					],
					"name": "balanceOf",
					"outputs": [
						{
							"internalType": "uint256",
							"name": "_balance",
							"type": "uint256"
						}
					],
					"stateMutability": "view",
					"type": "function"
				},
				{
					"inputs": [
						{
							"internalType": "uint256",
							"name": "_price",
							"type": "uint256"
						},
						{
							"internalType": "uint256",
							"name": "_catId",
							"type": "uint256"
						}
					],
					"name": "createItem",
					"outputs": [
						{
							"internalType": "uint256",
							"name": "",
							"type": "uint256"
						}
					],
					"stateMutability": "nonpayable",
					"type": "function"
				},
				{
					"inputs": [],
					"name": "getFeesPercentage",
					"outputs": [
						{
							"internalType": "uint256",
							"name": "",
							"type": "uint256"
						}
					],
					"stateMutability": "view",
					"type": "function"
				},
				{
					"inputs": [
						{
							"internalType": "uint256",
							"name": "",
							"type": "uint256"
						}
					],
					"name": "itemToOwner",
					"outputs": [
						{
							"internalType": "address",
							"name": "",
							"type": "address"
						}
					],
					"stateMutability": "view",
					"type": "function"
				},
				{
					"inputs": [
						{
							"internalType": "uint256",
							"name": "",
							"type": "uint256"
						}
					],
					"name": "items",
					"outputs": [
						{
							"internalType": "uint256",
							"name": "tokenId",
							"type": "uint256"
						},
						{
							"internalType": "uint256",
							"name": "price",
							"type": "uint256"
						},
						{
							"internalType": "uint256",
							"name": "catId",
							"type": "uint256"
						},
						{
							"internalType": "bool",
							"name": "toSell",
							"type": "bool"
						}
					],
					"stateMutability": "view",
					"type": "function"
				},
				{
					"inputs": [
						{
							"internalType": "uint256",
							"name": "",
							"type": "uint256"
						}
					],
					"name": "itemsCatIdCount",
					"outputs": [
						{
							"internalType": "uint256",
							"name": "",
							"type": "uint256"
						}
					],
					"stateMutability": "view",
					"type": "function"
				},
				{
					"inputs": [
						{
							"internalType": "address",
							"name": "",
							"type": "address"
						}
					],
					"name": "itemsOwnerCount",
					"outputs": [
						{
							"internalType": "uint256",
							"name": "",
							"type": "uint256"
						}
					],
					"stateMutability": "view",
					"type": "function"
				},
				{
					"inputs": [],
					"name": "itemsToSellCount",
					"outputs": [
						{
							"internalType": "uint256",
							"name": "",
							"type": "uint256"
						}
					],
					"stateMutability": "view",
					"type": "function"
				},
				{
					"inputs": [
						{
							"internalType": "uint256",
							"name": "_newPercentage",
							"type": "uint256"
						}
					],
					"name": "modifyFeesPercentage",
					"outputs": [],
					"stateMutability": "nonpayable",
					"type": "function"
				},
				{
					"inputs": [
						{
							"internalType": "uint256",
							"name": "_tokenId",
							"type": "uint256"
						}
					],
					"name": "ownerOf",
					"outputs": [
						{
							"internalType": "address",
							"name": "_owner",
							"type": "address"
						}
					],
					"stateMutability": "view",
					"type": "function"
				},
				{
					"inputs": [
						{
							"internalType": "uint256",
							"name": "_tokenId",
							"type": "uint256"
						}
					],
					"name": "sellItem",
					"outputs": [],
					"stateMutability": "payable",
					"type": "function"
				},
				{
					"inputs": [
						{
							"internalType": "address",
							"name": "_to",
							"type": "address"
						},
						{
							"internalType": "uint256",
							"name": "_tokenId",
							"type": "uint256"
						}
					],
					"name": "transfer",
					"outputs": [],
					"stateMutability": "nonpayable",
					"type": "function"
				}
			],
			"devdoc": {
				"kind": "dev",
				"methods": {},
				"version": 1
			},
			"evm": {
				"assembly": "    /* \"contracts/GeekNft.sol\":80:2642  contract GeekNft is ERC721 {... */\n  mstore(0x40, 0x80)\n    /* \"contracts/GeekNft.sol\":475:524  constructor() {... */\n  callvalue\n  dup1\n  iszero\n  tag_1\n  jumpi\n  0x00\n  dup1\n  revert\ntag_1:\n  pop\n    /* \"contracts/GeekNft.sol\":507:517  msg.sender */\n  caller\n    /* \"contracts/GeekNft.sol\":499:504  owner */\n  0x00\n  dup1\n    /* \"contracts/GeekNft.sol\":499:517  owner = msg.sender */\n  0x0100\n  exp\n  dup2\n  sload\n  dup2\n  0xffffffffffffffffffffffffffffffffffffffff\n  mul\n  not\n  and\n  swap1\n  dup4\n  0xffffffffffffffffffffffffffffffffffffffff\n  and\n  mul\n  or\n  swap1\n  sstore\n  pop\n    /* \"contracts/GeekNft.sol\":80:2642  contract GeekNft is ERC721 {... */\n  dataSize(sub_0)\n  dup1\n  dataOffset(sub_0)\n  0x00\n  codecopy\n  0x00\n  return\nstop\n\nsub_0: assembly {\n        /* \"contracts/GeekNft.sol\":80:2642  contract GeekNft is ERC721 {... */\n      mstore(0x40, 0x80)\n      jumpi(tag_1, lt(calldatasize, 0x04))\n      shr(0xe0, calldataload(0x00))\n      dup1\n      0xa9059cbb\n      gt\n      tag_14\n      jumpi\n      dup1\n      0xa9059cbb\n      eq\n      tag_8\n      jumpi\n      dup1\n      0xadae08dd\n      eq\n      tag_9\n      jumpi\n      dup1\n      0xbfb231d2\n      eq\n      tag_10\n      jumpi\n      dup1\n      0xc3921895\n      eq\n      tag_11\n      jumpi\n      dup1\n      0xd48644bd\n      eq\n      tag_12\n      jumpi\n      dup1\n      0xea0ff14a\n      eq\n      tag_13\n      jumpi\n      jump(tag_1)\n    tag_14:\n      dup1\n      0x1a4d96cd\n      eq\n      tag_2\n      jumpi\n      dup1\n      0x29de6246\n      eq\n      tag_3\n      jumpi\n      dup1\n      0x4c389e65\n      eq\n      tag_4\n      jumpi\n      dup1\n      0x6352211e\n      eq\n      tag_5\n      jumpi\n      dup1\n      0x70a08231\n      eq\n      tag_6\n      jumpi\n      dup1\n      0x91b6be9a\n      eq\n      tag_7\n      jumpi\n    tag_1:\n      0x00\n      dup1\n      revert\n        /* \"contracts/GeekNft.sol\":322:365  mapping(uint => address) public itemToOwner */\n    tag_2:\n      callvalue\n      dup1\n      iszero\n      tag_15\n      jumpi\n      0x00\n      dup1\n      revert\n    tag_15:\n      pop\n      tag_16\n      0x04\n      dup1\n      calldatasize\n      sub\n      dup2\n      add\n      swap1\n      tag_17\n      swap2\n      swap1\n      tag_18\n      jump\t// in\n    tag_17:\n      tag_19\n      jump\t// in\n    tag_16:\n      mload(0x40)\n      tag_20\n      swap2\n      swap1\n      tag_21\n      jump\t// in\n    tag_20:\n      mload(0x40)\n      dup1\n      swap2\n      sub\n      swap1\n      return\n        /* \"contracts/GeekNft.sol\":807:930  function modifyFeesPercentage(uint _newPercentage) public onlyContractOwner{... */\n    tag_3:\n      callvalue\n      dup1\n      iszero\n      tag_22\n      jumpi\n      0x00\n      dup1\n      revert\n    tag_22:\n      pop\n      tag_23\n      0x04\n      dup1\n      calldatasize\n      sub\n      dup2\n      add\n      swap1\n      tag_24\n      swap2\n      swap1\n      tag_18\n      jump\t// in\n    tag_24:\n      tag_25\n      jump\t// in\n    tag_23:\n      stop\n        /* \"contracts/GeekNft.sol\":263:291  uint public itemsToSellCount */\n    tag_4:\n      callvalue\n      dup1\n      iszero\n      tag_26\n      jumpi\n      0x00\n      dup1\n      revert\n    tag_26:\n      pop\n      tag_27\n      tag_28\n      jump\t// in\n    tag_27:\n      mload(0x40)\n      tag_29\n      swap2\n      swap1\n      tag_30\n      jump\t// in\n    tag_29:\n      mload(0x40)\n      dup1\n      swap2\n      sub\n      swap1\n      return\n        /* \"contracts/GeekNft.sol\":2198:2324  function ownerOf(uint256 _tokenId) override public view returns (address _owner) {... */\n    tag_5:\n      callvalue\n      dup1\n      iszero\n      tag_31\n      jumpi\n      0x00\n      dup1\n      revert\n    tag_31:\n      pop\n      tag_32\n      0x04\n      dup1\n      calldatasize\n      sub\n      dup2\n      add\n      swap1\n      tag_33\n      swap2\n      swap1\n      tag_18\n      jump\t// in\n    tag_33:\n      tag_34\n      jump\t// in\n    tag_32:\n      mload(0x40)\n      tag_35\n      swap2\n      swap1\n      tag_21\n      jump\t// in\n    tag_35:\n      mload(0x40)\n      dup1\n      swap2\n      sub\n      swap1\n      return\n        /* \"contracts/GeekNft.sol\":2063:2192  function balanceOf(address _owner) override public view returns (uint256 _balance){... */\n    tag_6:\n      callvalue\n      dup1\n      iszero\n      tag_36\n      jumpi\n      0x00\n      dup1\n      revert\n    tag_36:\n      pop\n      tag_37\n      0x04\n      dup1\n      calldatasize\n      sub\n      dup2\n      add\n      swap1\n      tag_38\n      swap2\n      swap1\n      tag_39\n      jump\t// in\n    tag_38:\n      tag_40\n      jump\t// in\n    tag_37:\n      mload(0x40)\n      tag_41\n      swap2\n      swap1\n      tag_30\n      jump\t// in\n    tag_41:\n      mload(0x40)\n      dup1\n      swap2\n      sub\n      swap1\n      return\n        /* \"contracts/GeekNft.sol\":1458:2057  function sellItem(uint _tokenId) public payable onlyItemOwner(_tokenId){... */\n    tag_7:\n      tag_42\n      0x04\n      dup1\n      calldatasize\n      sub\n      dup2\n      add\n      swap1\n      tag_43\n      swap2\n      swap1\n      tag_18\n      jump\t// in\n    tag_43:\n      tag_44\n      jump\t// in\n    tag_42:\n      stop\n        /* \"contracts/GeekNft.sol\":2330:2411  function transfer(address _to, uint256 _tokenId) override public {... */\n    tag_8:\n      callvalue\n      dup1\n      iszero\n      tag_45\n      jumpi\n      0x00\n      dup1\n      revert\n    tag_45:\n      pop\n      tag_46\n      0x04\n      dup1\n      calldatasize\n      sub\n      dup2\n      add\n      swap1\n      tag_47\n      swap2\n      swap1\n      tag_48\n      jump\t// in\n    tag_47:\n      tag_49\n      jump\t// in\n    tag_46:\n      stop\n        /* \"contracts/GeekNft.sol\":1036:1452  function createItem(uint _price, uint _catId) public returns (uint){... */\n    tag_9:\n      callvalue\n      dup1\n      iszero\n      tag_50\n      jumpi\n      0x00\n      dup1\n      revert\n    tag_50:\n      pop\n      tag_51\n      0x04\n      dup1\n      calldatasize\n      sub\n      dup2\n      add\n      swap1\n      tag_52\n      swap2\n      swap1\n      tag_53\n      jump\t// in\n    tag_52:\n      tag_54\n      jump\t// in\n    tag_51:\n      mload(0x40)\n      tag_55\n      swap2\n      swap1\n      tag_30\n      jump\t// in\n    tag_55:\n      mload(0x40)\n      dup1\n      swap2\n      sub\n      swap1\n      return\n        /* \"contracts/GeekNft.sol\":238:257  Item[] public items */\n    tag_10:\n      callvalue\n      dup1\n      iszero\n      tag_56\n      jumpi\n      0x00\n      dup1\n      revert\n    tag_56:\n      pop\n      tag_57\n      0x04\n      dup1\n      calldatasize\n      sub\n      dup2\n      add\n      swap1\n      tag_58\n      swap2\n      swap1\n      tag_18\n      jump\t// in\n    tag_58:\n      tag_59\n      jump\t// in\n    tag_57:\n      mload(0x40)\n      tag_60\n      swap5\n      swap4\n      swap3\n      swap2\n      swap1\n      tag_61\n      jump\t// in\n    tag_60:\n      mload(0x40)\n      dup1\n      swap2\n      sub\n      swap1\n      return\n        /* \"contracts/GeekNft.sol\":371:418  mapping(address => uint) public itemsOwnerCount */\n    tag_11:\n      callvalue\n      dup1\n      iszero\n      tag_62\n      jumpi\n      0x00\n      dup1\n      revert\n    tag_62:\n      pop\n      tag_63\n      0x04\n      dup1\n      calldatasize\n      sub\n      dup2\n      add\n      swap1\n      tag_64\n      swap2\n      swap1\n      tag_39\n      jump\t// in\n    tag_64:\n      tag_65\n      jump\t// in\n    tag_63:\n      mload(0x40)\n      tag_66\n      swap2\n      swap1\n      tag_30\n      jump\t// in\n    tag_66:\n      mload(0x40)\n      dup1\n      swap2\n      sub\n      swap1\n      return\n        /* \"contracts/GeekNft.sol\":424:468  mapping(uint => uint) public itemsCatIdCount */\n    tag_12:\n      callvalue\n      dup1\n      iszero\n      tag_67\n      jumpi\n      0x00\n      dup1\n      revert\n    tag_67:\n      pop\n      tag_68\n      0x04\n      dup1\n      calldatasize\n      sub\n      dup2\n      add\n      swap1\n      tag_69\n      swap2\n      swap1\n      tag_18\n      jump\t// in\n    tag_69:\n      tag_70\n      jump\t// in\n    tag_68:\n      mload(0x40)\n      tag_71\n      swap2\n      swap1\n      tag_30\n      jump\t// in\n    tag_71:\n      mload(0x40)\n      dup1\n      swap2\n      sub\n      swap1\n      return\n        /* \"contracts/GeekNft.sol\":936:1030  function getFeesPercentage() public view returns (uint) {... */\n    tag_13:\n      callvalue\n      dup1\n      iszero\n      tag_72\n      jumpi\n      0x00\n      dup1\n      revert\n    tag_72:\n      pop\n      tag_73\n      tag_74\n      jump\t// in\n    tag_73:\n      mload(0x40)\n      tag_75\n      swap2\n      swap1\n      tag_30\n      jump\t// in\n    tag_75:\n      mload(0x40)\n      dup1\n      swap2\n      sub\n      swap1\n      return\n        /* \"contracts/GeekNft.sol\":322:365  mapping(uint => address) public itemToOwner */\n    tag_19:\n      mstore(0x20, 0x04)\n      dup1\n      0x00\n      mstore\n      keccak256(0x00, 0x40)\n      0x00\n      swap2\n      pop\n      sload\n      swap1\n      0x0100\n      exp\n      swap1\n      div\n      0xffffffffffffffffffffffffffffffffffffffff\n      and\n      dup2\n      jump\t// out\n        /* \"contracts/GeekNft.sol\":807:930  function modifyFeesPercentage(uint _newPercentage) public onlyContractOwner{... */\n    tag_25:\n        /* \"contracts/GeekNft.sol\":591:596  owner */\n      0x00\n      dup1\n      sload\n      swap1\n      0x0100\n      exp\n      swap1\n      div\n      0xffffffffffffffffffffffffffffffffffffffff\n      and\n        /* \"contracts/GeekNft.sol\":577:596  msg.sender == owner */\n      0xffffffffffffffffffffffffffffffffffffffff\n      and\n        /* \"contracts/GeekNft.sol\":577:587  msg.sender */\n      caller\n        /* \"contracts/GeekNft.sol\":577:596  msg.sender == owner */\n      0xffffffffffffffffffffffffffffffffffffffff\n      and\n      eq\n        /* \"contracts/GeekNft.sol\":569:634  require(msg.sender == owner, \"Only contract's owner can do that\") */\n      tag_77\n      jumpi\n      mload(0x40)\n      0x08c379a000000000000000000000000000000000000000000000000000000000\n      dup2\n      mstore\n      0x04\n      add\n      tag_78\n      swap1\n      tag_79\n      jump\t// in\n    tag_78:\n      mload(0x40)\n      dup1\n      swap2\n      sub\n      swap1\n      revert\n    tag_77:\n        /* \"contracts/GeekNft.sol\":909:923  _newPercentage */\n      dup1\n        /* \"contracts/GeekNft.sol\":892:906  feesPercentage */\n      0x03\n        /* \"contracts/GeekNft.sol\":892:923  feesPercentage = _newPercentage */\n      dup2\n      swap1\n      sstore\n      pop\n        /* \"contracts/GeekNft.sol\":807:930  function modifyFeesPercentage(uint _newPercentage) public onlyContractOwner{... */\n      pop\n      jump\t// out\n        /* \"contracts/GeekNft.sol\":263:291  uint public itemsToSellCount */\n    tag_28:\n      sload(0x02)\n      dup2\n      jump\t// out\n        /* \"contracts/GeekNft.sol\":2198:2324  function ownerOf(uint256 _tokenId) override public view returns (address _owner) {... */\n    tag_34:\n        /* \"contracts/GeekNft.sol\":2263:2277  address _owner */\n      0x00\n        /* \"contracts/GeekNft.sol\":2296:2307  itemToOwner */\n      0x04\n        /* \"contracts/GeekNft.sol\":2296:2317  itemToOwner[_tokenId] */\n      0x00\n        /* \"contracts/GeekNft.sol\":2308:2316  _tokenId */\n      dup4\n        /* \"contracts/GeekNft.sol\":2296:2317  itemToOwner[_tokenId] */\n      dup2\n      mstore\n      0x20\n      add\n      swap1\n      dup2\n      mstore\n      0x20\n      add\n      0x00\n      keccak256\n      0x00\n      swap1\n      sload\n      swap1\n      0x0100\n      exp\n      swap1\n      div\n      0xffffffffffffffffffffffffffffffffffffffff\n      and\n        /* \"contracts/GeekNft.sol\":2289:2317  return itemToOwner[_tokenId] */\n      swap1\n      pop\n        /* \"contracts/GeekNft.sol\":2198:2324  function ownerOf(uint256 _tokenId) override public view returns (address _owner) {... */\n      swap2\n      swap1\n      pop\n      jump\t// out\n        /* \"contracts/GeekNft.sol\":2063:2192  function balanceOf(address _owner) override public view returns (uint256 _balance){... */\n    tag_40:\n        /* \"contracts/GeekNft.sol\":2128:2144  uint256 _balance */\n      0x00\n        /* \"contracts/GeekNft.sol\":2162:2177  itemsOwnerCount */\n      0x05\n        /* \"contracts/GeekNft.sol\":2162:2185  itemsOwnerCount[_owner] */\n      0x00\n        /* \"contracts/GeekNft.sol\":2178:2184  _owner */\n      dup4\n        /* \"contracts/GeekNft.sol\":2162:2185  itemsOwnerCount[_owner] */\n      0xffffffffffffffffffffffffffffffffffffffff\n      and\n      0xffffffffffffffffffffffffffffffffffffffff\n      and\n      dup2\n      mstore\n      0x20\n      add\n      swap1\n      dup2\n      mstore\n      0x20\n      add\n      0x00\n      keccak256\n      sload\n        /* \"contracts/GeekNft.sol\":2155:2185  return itemsOwnerCount[_owner] */\n      swap1\n      pop\n        /* \"contracts/GeekNft.sol\":2063:2192  function balanceOf(address _owner) override public view returns (uint256 _balance){... */\n      swap2\n      swap1\n      pop\n      jump\t// out\n        /* \"contracts/GeekNft.sol\":1458:2057  function sellItem(uint _tokenId) public payable onlyItemOwner(_tokenId){... */\n    tag_44:\n        /* \"contracts/GeekNft.sol\":1520:1528  _tokenId */\n      dup1\n        /* \"contracts/GeekNft.sol\":739:749  msg.sender */\n      caller\n        /* \"contracts/GeekNft.sol\":714:749  itemToOwner[_tokenId] == msg.sender */\n      0xffffffffffffffffffffffffffffffffffffffff\n      and\n        /* \"contracts/GeekNft.sol\":714:725  itemToOwner */\n      0x04\n        /* \"contracts/GeekNft.sol\":714:735  itemToOwner[_tokenId] */\n      0x00\n        /* \"contracts/GeekNft.sol\":726:734  _tokenId */\n      dup4\n        /* \"contracts/GeekNft.sol\":714:735  itemToOwner[_tokenId] */\n      dup2\n      mstore\n      0x20\n      add\n      swap1\n      dup2\n      mstore\n      0x20\n      add\n      0x00\n      keccak256\n      0x00\n      swap1\n      sload\n      swap1\n      0x0100\n      exp\n      swap1\n      div\n      0xffffffffffffffffffffffffffffffffffffffff\n      and\n        /* \"contracts/GeekNft.sol\":714:749  itemToOwner[_tokenId] == msg.sender */\n      0xffffffffffffffffffffffffffffffffffffffff\n      and\n      eq\n        /* \"contracts/GeekNft.sol\":706:783  require(itemToOwner[_tokenId] == msg.sender, \"Only item's owner can do that\") */\n      tag_84\n      jumpi\n      mload(0x40)\n      0x08c379a000000000000000000000000000000000000000000000000000000000\n      dup2\n      mstore\n      0x04\n      add\n      tag_85\n      swap1\n      tag_86\n      jump\t// in\n    tag_85:\n      mload(0x40)\n      dup1\n      swap2\n      sub\n      swap1\n      revert\n    tag_84:\n        /* \"contracts/GeekNft.sol\":1560:1565  items */\n      0x01\n        /* \"contracts/GeekNft.sol\":1566:1574  _tokenId */\n      dup3\n        /* \"contracts/GeekNft.sol\":1560:1575  items[_tokenId] */\n      dup2\n      sload\n      dup2\n      lt\n      tag_88\n      jumpi\n      mstore(0x00, 0x4e487b7100000000000000000000000000000000000000000000000000000000)\n      mstore(0x04, 0x32)\n      revert(0x00, 0x24)\n    tag_88:\n      swap1\n      0x00\n      mstore\n      keccak256(0x00, 0x20)\n      swap1\n      0x04\n      mul\n      add\n        /* \"contracts/GeekNft.sol\":1560:1581  items[_tokenId].price */\n      0x01\n      add\n      sload\n        /* \"contracts/GeekNft.sol\":1547:1556  msg.value */\n      callvalue\n        /* \"contracts/GeekNft.sol\":1547:1581  msg.value == items[_tokenId].price */\n      eq\n        /* \"contracts/GeekNft.sol\":1539:1582  require(msg.value == items[_tokenId].price) */\n      tag_90\n      jumpi\n      0x00\n      dup1\n      revert\n    tag_90:\n        /* \"contracts/GeekNft.sol\":1592:1608  address oldOwner */\n      0x00\n        /* \"contracts/GeekNft.sol\":1611:1622  itemToOwner */\n      0x04\n        /* \"contracts/GeekNft.sol\":1611:1632  itemToOwner[_tokenId] */\n      0x00\n        /* \"contracts/GeekNft.sol\":1623:1631  _tokenId */\n      dup5\n        /* \"contracts/GeekNft.sol\":1611:1632  itemToOwner[_tokenId] */\n      dup2\n      mstore\n      0x20\n      add\n      swap1\n      dup2\n      mstore\n      0x20\n      add\n      0x00\n      keccak256\n      0x00\n      swap1\n      sload\n      swap1\n      0x0100\n      exp\n      swap1\n      div\n      0xffffffffffffffffffffffffffffffffffffffff\n      and\n        /* \"contracts/GeekNft.sol\":1592:1632  address oldOwner = itemToOwner[_tokenId] */\n      swap1\n      pop\n        /* \"contracts/GeekNft.sol\":1643:1666  Item storage itemToSell */\n      0x00\n        /* \"contracts/GeekNft.sol\":1669:1674  items */\n      0x01\n        /* \"contracts/GeekNft.sol\":1675:1683  _tokenId */\n      dup5\n        /* \"contracts/GeekNft.sol\":1669:1684  items[_tokenId] */\n      dup2\n      sload\n      dup2\n      lt\n      tag_91\n      jumpi\n      mstore(0x00, 0x4e487b7100000000000000000000000000000000000000000000000000000000)\n      mstore(0x04, 0x32)\n      revert(0x00, 0x24)\n    tag_91:\n      swap1\n      0x00\n      mstore\n      keccak256(0x00, 0x20)\n      swap1\n      0x04\n      mul\n      add\n        /* \"contracts/GeekNft.sol\":1643:1684  Item storage itemToSell = items[_tokenId] */\n      swap1\n      pop\n        /* \"contracts/GeekNft.sol\":1714:1719  false */\n      0x00\n        /* \"contracts/GeekNft.sol\":1694:1704  itemToSell */\n      dup2\n        /* \"contracts/GeekNft.sol\":1694:1711  itemToSell.toSell */\n      0x03\n      add\n      0x00\n        /* \"contracts/GeekNft.sol\":1694:1719  itemToSell.toSell = false */\n      0x0100\n      exp\n      dup2\n      sload\n      dup2\n      0xff\n      mul\n      not\n      and\n      swap1\n      dup4\n      iszero\n      iszero\n      mul\n      or\n      swap1\n      sstore\n      pop\n        /* \"contracts/GeekNft.sol\":1754:1764  msg.sender */\n      caller\n        /* \"contracts/GeekNft.sol\":1730:1741  itemToOwner */\n      0x04\n        /* \"contracts/GeekNft.sol\":1730:1751  itemToOwner[_tokenId] */\n      0x00\n        /* \"contracts/GeekNft.sol\":1742:1750  _tokenId */\n      dup7\n        /* \"contracts/GeekNft.sol\":1730:1751  itemToOwner[_tokenId] */\n      dup2\n      mstore\n      0x20\n      add\n      swap1\n      dup2\n      mstore\n      0x20\n      add\n      0x00\n      keccak256\n      0x00\n        /* \"contracts/GeekNft.sol\":1730:1764  itemToOwner[_tokenId] = msg.sender */\n      0x0100\n      exp\n      dup2\n      sload\n      dup2\n      0xffffffffffffffffffffffffffffffffffffffff\n      mul\n      not\n      and\n      swap1\n      dup4\n      0xffffffffffffffffffffffffffffffffffffffff\n      and\n      mul\n      or\n      swap1\n      sstore\n      pop\n        /* \"contracts/GeekNft.sol\":1775:1790  itemsOwnerCount */\n      0x05\n        /* \"contracts/GeekNft.sol\":1775:1800  itemsOwnerCount[oldOwner] */\n      0x00\n        /* \"contracts/GeekNft.sol\":1791:1799  oldOwner */\n      dup4\n        /* \"contracts/GeekNft.sol\":1775:1800  itemsOwnerCount[oldOwner] */\n      0xffffffffffffffffffffffffffffffffffffffff\n      and\n      0xffffffffffffffffffffffffffffffffffffffff\n      and\n      dup2\n      mstore\n      0x20\n      add\n      swap1\n      dup2\n      mstore\n      0x20\n      add\n      0x00\n      keccak256\n      0x00\n        /* \"contracts/GeekNft.sol\":1775:1802  itemsOwnerCount[oldOwner]-- */\n      dup2\n      sload\n      dup1\n      swap3\n      swap2\n      swap1\n      tag_93\n      swap1\n      tag_94\n      jump\t// in\n    tag_93:\n      swap2\n      swap1\n      pop\n      sstore\n      pop\n        /* \"contracts/GeekNft.sol\":1812:1827  itemsOwnerCount */\n      0x05\n        /* \"contracts/GeekNft.sol\":1812:1839  itemsOwnerCount[msg.sender] */\n      0x00\n        /* \"contracts/GeekNft.sol\":1828:1838  msg.sender */\n      caller\n        /* \"contracts/GeekNft.sol\":1812:1839  itemsOwnerCount[msg.sender] */\n      0xffffffffffffffffffffffffffffffffffffffff\n      and\n      0xffffffffffffffffffffffffffffffffffffffff\n      and\n      dup2\n      mstore\n      0x20\n      add\n      swap1\n      dup2\n      mstore\n      0x20\n      add\n      0x00\n      keccak256\n      0x00\n        /* \"contracts/GeekNft.sol\":1812:1841  itemsOwnerCount[msg.sender]++ */\n      dup2\n      sload\n      dup1\n      swap3\n      swap2\n      swap1\n      tag_95\n      swap1\n      tag_96\n      jump\t// in\n    tag_95:\n      swap2\n      swap1\n      pop\n      sstore\n      pop\n        /* \"contracts/GeekNft.sol\":1852:1861  uint fees */\n      0x00\n        /* \"contracts/GeekNft.sol\":1871:1890  uint totalMinusFees */\n      dup1\n        /* \"contracts/GeekNft.sol\":1925:1959  getFees(msg.value, feesPercentage) */\n      tag_97\n        /* \"contracts/GeekNft.sol\":1933:1942  msg.value */\n      callvalue\n        /* \"contracts/GeekNft.sol\":1944:1958  feesPercentage */\n      sload(0x03)\n        /* \"contracts/GeekNft.sol\":1925:1932  getFees */\n      tag_98\n        /* \"contracts/GeekNft.sol\":1925:1959  getFees(msg.value, feesPercentage) */\n      jump\t// in\n    tag_97:\n        /* \"contracts/GeekNft.sol\":1900:1959  (fees, totalMinusFees) = getFees(msg.value, feesPercentage) */\n      dup1\n      swap3\n      pop\n      dup2\n      swap4\n      pop\n      pop\n      pop\n        /* \"contracts/GeekNft.sol\":1977:1982  owner */\n      0x00\n      dup1\n      sload\n      swap1\n      0x0100\n      exp\n      swap1\n      div\n      0xffffffffffffffffffffffffffffffffffffffff\n      and\n        /* \"contracts/GeekNft.sol\":1969:1992  payable(owner).transfer */\n      0xffffffffffffffffffffffffffffffffffffffff\n      and\n        /* \"contracts/GeekNft.sol\":1969:1998  payable(owner).transfer(fees) */\n      0x08fc\n        /* \"contracts/GeekNft.sol\":1993:1997  fees */\n      dup4\n        /* \"contracts/GeekNft.sol\":1969:1998  payable(owner).transfer(fees) */\n      swap1\n      dup2\n      iszero\n      mul\n      swap1\n      mload(0x40)\n      0x00\n      mload(0x40)\n      dup1\n      dup4\n      sub\n      dup2\n      dup6\n      dup9\n      dup9\n      call\n      swap4\n      pop\n      pop\n      pop\n      pop\n      iszero\n      dup1\n      iszero\n      tag_100\n      jumpi\n      returndatasize\n      0x00\n      dup1\n      returndatacopy\n      revert(0x00, returndatasize)\n    tag_100:\n      pop\n        /* \"contracts/GeekNft.sol\":2016:2024  oldOwner */\n      dup4\n        /* \"contracts/GeekNft.sol\":2008:2034  payable(oldOwner).transfer */\n      0xffffffffffffffffffffffffffffffffffffffff\n      and\n        /* \"contracts/GeekNft.sol\":2008:2050  payable(oldOwner).transfer(totalMinusFees) */\n      0x08fc\n        /* \"contracts/GeekNft.sol\":2035:2049  totalMinusFees */\n      dup3\n        /* \"contracts/GeekNft.sol\":2008:2050  payable(oldOwner).transfer(totalMinusFees) */\n      swap1\n      dup2\n      iszero\n      mul\n      swap1\n      mload(0x40)\n      0x00\n      mload(0x40)\n      dup1\n      dup4\n      sub\n      dup2\n      dup6\n      dup9\n      dup9\n      call\n      swap4\n      pop\n      pop\n      pop\n      pop\n      iszero\n      dup1\n      iszero\n      tag_102\n      jumpi\n      returndatasize\n      0x00\n      dup1\n      returndatacopy\n      revert(0x00, returndatasize)\n    tag_102:\n      pop\n        /* \"contracts/GeekNft.sol\":793:794  _ */\n      pop\n      pop\n      pop\n      pop\n        /* \"contracts/GeekNft.sol\":1458:2057  function sellItem(uint _tokenId) public payable onlyItemOwner(_tokenId){... */\n      pop\n      pop\n      jump\t// out\n        /* \"contracts/GeekNft.sol\":2330:2411  function transfer(address _to, uint256 _tokenId) override public {... */\n    tag_49:\n      pop\n      pop\n      jump\t// out\n        /* \"contracts/GeekNft.sol\":1036:1452  function createItem(uint _price, uint _catId) public returns (uint){... */\n    tag_54:\n        /* \"contracts/GeekNft.sol\":1098:1102  uint */\n      0x00\n        /* \"contracts/GeekNft.sol\":1130:1131  0 */\n      dup1\n        /* \"contracts/GeekNft.sol\":1121:1127  _price */\n      dup4\n        /* \"contracts/GeekNft.sol\":1121:1131  _price > 0 */\n      gt\n        /* \"contracts/GeekNft.sol\":1113:1162  require(_price > 0, \"Price cannot be equal to 0\") */\n      tag_105\n      jumpi\n      mload(0x40)\n      0x08c379a000000000000000000000000000000000000000000000000000000000\n      dup2\n      mstore\n      0x04\n      add\n      tag_106\n      swap1\n      tag_107\n      jump\t// in\n    tag_106:\n      mload(0x40)\n      dup1\n      swap2\n      sub\n      swap1\n      revert\n    tag_105:\n        /* \"contracts/GeekNft.sol\":1172:1187  uint newTokenId */\n      0x00\n        /* \"contracts/GeekNft.sol\":1190:1195  items */\n      0x01\n        /* \"contracts/GeekNft.sol\":1190:1202  items.length */\n      dup1\n      sload\n      swap1\n      pop\n        /* \"contracts/GeekNft.sol\":1172:1202  uint newTokenId = items.length */\n      swap1\n      pop\n        /* \"contracts/GeekNft.sol\":1232:1270  Item(newTokenId, _price, _catId, true) */\n      mload(0x40)\n      dup1\n      0x80\n      add\n      0x40\n      mstore\n      dup1\n        /* \"contracts/GeekNft.sol\":1237:1247  newTokenId */\n      dup3\n        /* \"contracts/GeekNft.sol\":1232:1270  Item(newTokenId, _price, _catId, true) */\n      dup2\n      mstore\n      0x20\n      add\n        /* \"contracts/GeekNft.sol\":1249:1255  _price */\n      dup6\n        /* \"contracts/GeekNft.sol\":1232:1270  Item(newTokenId, _price, _catId, true) */\n      dup2\n      mstore\n      0x20\n      add\n        /* \"contracts/GeekNft.sol\":1257:1263  _catId */\n      dup5\n        /* \"contracts/GeekNft.sol\":1232:1270  Item(newTokenId, _price, _catId, true) */\n      dup2\n      mstore\n      0x20\n      add\n        /* \"contracts/GeekNft.sol\":1265:1269  true */\n      0x01\n        /* \"contracts/GeekNft.sol\":1232:1270  Item(newTokenId, _price, _catId, true) */\n      iszero\n      iszero\n      dup2\n      mstore\n      pop\n        /* \"contracts/GeekNft.sol\":1212:1217  items */\n      0x01\n        /* \"contracts/GeekNft.sol\":1218:1228  newTokenId */\n      dup3\n        /* \"contracts/GeekNft.sol\":1212:1229  items[newTokenId] */\n      dup2\n      sload\n      dup2\n      lt\n      tag_108\n      jumpi\n      mstore(0x00, 0x4e487b7100000000000000000000000000000000000000000000000000000000)\n      mstore(0x04, 0x32)\n      revert(0x00, 0x24)\n    tag_108:\n      swap1\n      0x00\n      mstore\n      keccak256(0x00, 0x20)\n      swap1\n      0x04\n      mul\n      add\n        /* \"contracts/GeekNft.sol\":1212:1270  items[newTokenId] = Item(newTokenId, _price, _catId, true) */\n      0x00\n      dup3\n      add\n      mload\n      dup2\n      0x00\n      add\n      sstore\n      0x20\n      dup3\n      add\n      mload\n      dup2\n      0x01\n      add\n      sstore\n      0x40\n      dup3\n      add\n      mload\n      dup2\n      0x02\n      add\n      sstore\n      0x60\n      dup3\n      add\n      mload\n      dup2\n      0x03\n      add\n      exp(0x0100, 0x00)\n      dup2\n      sload\n      dup2\n      0xff\n      mul\n      not\n      and\n      swap1\n      dup4\n      iszero\n      iszero\n      mul\n      or\n      swap1\n      sstore\n      pop\n      swap1\n      pop\n      pop\n        /* \"contracts/GeekNft.sol\":1280:1296  itemsToSellCount */\n      0x02\n      0x00\n        /* \"contracts/GeekNft.sol\":1280:1298  itemsToSellCount++ */\n      dup2\n      sload\n      dup1\n      swap3\n      swap2\n      swap1\n      tag_110\n      swap1\n      tag_96\n      jump\t// in\n    tag_110:\n      swap2\n      swap1\n      pop\n      sstore\n      pop\n        /* \"contracts/GeekNft.sol\":1334:1344  msg.sender */\n      caller\n        /* \"contracts/GeekNft.sol\":1308:1319  itemToOwner */\n      0x04\n        /* \"contracts/GeekNft.sol\":1308:1331  itemToOwner[newTokenId] */\n      0x00\n        /* \"contracts/GeekNft.sol\":1320:1330  newTokenId */\n      dup4\n        /* \"contracts/GeekNft.sol\":1308:1331  itemToOwner[newTokenId] */\n      dup2\n      mstore\n      0x20\n      add\n      swap1\n      dup2\n      mstore\n      0x20\n      add\n      0x00\n      keccak256\n      0x00\n        /* \"contracts/GeekNft.sol\":1308:1344  itemToOwner[newTokenId] = msg.sender */\n      0x0100\n      exp\n      dup2\n      sload\n      dup2\n      0xffffffffffffffffffffffffffffffffffffffff\n      mul\n      not\n      and\n      swap1\n      dup4\n      0xffffffffffffffffffffffffffffffffffffffff\n      and\n      mul\n      or\n      swap1\n      sstore\n      pop\n        /* \"contracts/GeekNft.sol\":1354:1369  itemsOwnerCount */\n      0x05\n        /* \"contracts/GeekNft.sol\":1354:1381  itemsOwnerCount[msg.sender] */\n      0x00\n        /* \"contracts/GeekNft.sol\":1370:1380  msg.sender */\n      caller\n        /* \"contracts/GeekNft.sol\":1354:1381  itemsOwnerCount[msg.sender] */\n      0xffffffffffffffffffffffffffffffffffffffff\n      and\n      0xffffffffffffffffffffffffffffffffffffffff\n      and\n      dup2\n      mstore\n      0x20\n      add\n      swap1\n      dup2\n      mstore\n      0x20\n      add\n      0x00\n      keccak256\n      0x00\n        /* \"contracts/GeekNft.sol\":1354:1383  itemsOwnerCount[msg.sender]++ */\n      dup2\n      sload\n      dup1\n      swap3\n      swap2\n      swap1\n      tag_111\n      swap1\n      tag_96\n      jump\t// in\n    tag_111:\n      swap2\n      swap1\n      pop\n      sstore\n      pop\n        /* \"contracts/GeekNft.sol\":1393:1408  itemsCatIdCount */\n      0x06\n        /* \"contracts/GeekNft.sol\":1393:1416  itemsCatIdCount[_catId] */\n      0x00\n        /* \"contracts/GeekNft.sol\":1409:1415  _catId */\n      dup5\n        /* \"contracts/GeekNft.sol\":1393:1416  itemsCatIdCount[_catId] */\n      dup2\n      mstore\n      0x20\n      add\n      swap1\n      dup2\n      mstore\n      0x20\n      add\n      0x00\n      keccak256\n      0x00\n        /* \"contracts/GeekNft.sol\":1393:1418  itemsCatIdCount[_catId]++ */\n      dup2\n      sload\n      dup1\n      swap3\n      swap2\n      swap1\n      tag_112\n      swap1\n      tag_96\n      jump\t// in\n    tag_112:\n      swap2\n      swap1\n      pop\n      sstore\n      pop\n        /* \"contracts/GeekNft.sol\":1435:1445  newTokenId */\n      dup1\n        /* \"contracts/GeekNft.sol\":1428:1445  return newTokenId */\n      swap2\n      pop\n      pop\n        /* \"contracts/GeekNft.sol\":1036:1452  function createItem(uint _price, uint _catId) public returns (uint){... */\n      swap3\n      swap2\n      pop\n      pop\n      jump\t// out\n        /* \"contracts/GeekNft.sol\":238:257  Item[] public items */\n    tag_59:\n      0x01\n      dup2\n      dup2\n      sload\n      dup2\n      lt\n      tag_113\n      jumpi\n      0x00\n      dup1\n      revert\n    tag_113:\n      swap1\n      0x00\n      mstore\n      keccak256(0x00, 0x20)\n      swap1\n      0x04\n      mul\n      add\n      0x00\n      swap2\n      pop\n      swap1\n      pop\n      dup1\n      0x00\n      add\n      sload\n      swap1\n      dup1\n      0x01\n      add\n      sload\n      swap1\n      dup1\n      0x02\n      add\n      sload\n      swap1\n      dup1\n      0x03\n      add\n      0x00\n      swap1\n      sload\n      swap1\n      0x0100\n      exp\n      swap1\n      div\n      0xff\n      and\n      swap1\n      pop\n      dup5\n      jump\t// out\n        /* \"contracts/GeekNft.sol\":371:418  mapping(address => uint) public itemsOwnerCount */\n    tag_65:\n      mstore(0x20, 0x05)\n      dup1\n      0x00\n      mstore\n      keccak256(0x00, 0x40)\n      0x00\n      swap2\n      pop\n      swap1\n      pop\n      sload\n      dup2\n      jump\t// out\n        /* \"contracts/GeekNft.sol\":424:468  mapping(uint => uint) public itemsCatIdCount */\n    tag_70:\n      mstore(0x20, 0x06)\n      dup1\n      0x00\n      mstore\n      keccak256(0x00, 0x40)\n      0x00\n      swap2\n      pop\n      swap1\n      pop\n      sload\n      dup2\n      jump\t// out\n        /* \"contracts/GeekNft.sol\":936:1030  function getFeesPercentage() public view returns (uint) {... */\n    tag_74:\n        /* \"contracts/GeekNft.sol\":986:990  uint */\n      0x00\n        /* \"contracts/GeekNft.sol\":1009:1023  feesPercentage */\n      sload(0x03)\n        /* \"contracts/GeekNft.sol\":1002:1023  return feesPercentage */\n      swap1\n      pop\n        /* \"contracts/GeekNft.sol\":936:1030  function getFeesPercentage() public view returns (uint) {... */\n      swap1\n      jump\t// out\n        /* \"contracts/GeekNft.sol\":2417:2639  function getFees(uint _price, uint _percentage) private pure returns (uint, uint){... */\n    tag_98:\n        /* \"contracts/GeekNft.sol\":2487:2491  uint */\n      0x00\n        /* \"contracts/GeekNft.sol\":2493:2497  uint */\n      dup1\n        /* \"contracts/GeekNft.sol\":2508:2517  uint fees */\n      0x00\n        /* \"contracts/GeekNft.sol\":2545:2548  100 */\n      0x64\n        /* \"contracts/GeekNft.sol\":2535:2541  _price */\n      dup6\n        /* \"contracts/GeekNft.sol\":2521:2532  _percentage */\n      dup6\n        /* \"contracts/GeekNft.sol\":2521:2541  _percentage * _price */\n      tag_117\n      swap2\n      swap1\n      tag_118\n      jump\t// in\n    tag_117:\n        /* \"contracts/GeekNft.sol\":2520:2548  (_percentage * _price) / 100 */\n      tag_119\n      swap2\n      swap1\n      tag_120\n      jump\t// in\n    tag_119:\n        /* \"contracts/GeekNft.sol\":2508:2548  uint fees = (_percentage * _price) / 100 */\n      swap1\n      pop\n        /* \"contracts/GeekNft.sol\":2558:2577  uint totalMinusFees */\n      0x00\n        /* \"contracts/GeekNft.sol\":2589:2593  fees */\n      dup2\n        /* \"contracts/GeekNft.sol\":2580:2586  _price */\n      dup7\n        /* \"contracts/GeekNft.sol\":2580:2593  _price - fees */\n      tag_121\n      swap2\n      swap1\n      tag_122\n      jump\t// in\n    tag_121:\n        /* \"contracts/GeekNft.sol\":2558:2593  uint totalMinusFees = _price - fees */\n      swap1\n      pop\n        /* \"contracts/GeekNft.sol\":2611:2615  fees */\n      dup2\n        /* \"contracts/GeekNft.sol\":2617:2631  totalMinusFees */\n      dup2\n        /* \"contracts/GeekNft.sol\":2603:2632  return (fees, totalMinusFees) */\n      swap4\n      pop\n      swap4\n      pop\n      pop\n      pop\n        /* \"contracts/GeekNft.sol\":2417:2639  function getFees(uint _price, uint _percentage) private pure returns (uint, uint){... */\n      swap3\n      pop\n      swap3\n      swap1\n      pop\n      jump\t// out\n        /* \"#utility.yul\":7:146   */\n    tag_124:\n      0x00\n        /* \"#utility.yul\":91:97   */\n      dup2\n        /* \"#utility.yul\":78:98   */\n      calldataload\n        /* \"#utility.yul\":69:98   */\n      swap1\n      pop\n        /* \"#utility.yul\":107:140   */\n      tag_126\n        /* \"#utility.yul\":134:139   */\n      dup2\n        /* \"#utility.yul\":107:140   */\n      tag_127\n      jump\t// in\n    tag_126:\n        /* \"#utility.yul\":59:146   */\n      swap3\n      swap2\n      pop\n      pop\n      jump\t// out\n        /* \"#utility.yul\":152:291   */\n    tag_128:\n      0x00\n        /* \"#utility.yul\":236:242   */\n      dup2\n        /* \"#utility.yul\":223:243   */\n      calldataload\n        /* \"#utility.yul\":214:243   */\n      swap1\n      pop\n        /* \"#utility.yul\":252:285   */\n      tag_130\n        /* \"#utility.yul\":279:284   */\n      dup2\n        /* \"#utility.yul\":252:285   */\n      tag_131\n      jump\t// in\n    tag_130:\n        /* \"#utility.yul\":204:291   */\n      swap3\n      swap2\n      pop\n      pop\n      jump\t// out\n        /* \"#utility.yul\":297:559   */\n    tag_39:\n      0x00\n        /* \"#utility.yul\":405:407   */\n      0x20\n        /* \"#utility.yul\":393:402   */\n      dup3\n        /* \"#utility.yul\":384:391   */\n      dup5\n        /* \"#utility.yul\":380:403   */\n      sub\n        /* \"#utility.yul\":376:408   */\n      slt\n        /* \"#utility.yul\":373:375   */\n      iszero\n      tag_133\n      jumpi\n        /* \"#utility.yul\":421:422   */\n      0x00\n        /* \"#utility.yul\":418:419   */\n      dup1\n        /* \"#utility.yul\":411:423   */\n      revert\n        /* \"#utility.yul\":373:375   */\n    tag_133:\n        /* \"#utility.yul\":464:465   */\n      0x00\n        /* \"#utility.yul\":489:542   */\n      tag_134\n        /* \"#utility.yul\":534:541   */\n      dup5\n        /* \"#utility.yul\":525:531   */\n      dup3\n        /* \"#utility.yul\":514:523   */\n      dup6\n        /* \"#utility.yul\":510:532   */\n      add\n        /* \"#utility.yul\":489:542   */\n      tag_124\n      jump\t// in\n    tag_134:\n        /* \"#utility.yul\":479:542   */\n      swap2\n      pop\n        /* \"#utility.yul\":435:552   */\n      pop\n        /* \"#utility.yul\":363:559   */\n      swap3\n      swap2\n      pop\n      pop\n      jump\t// out\n        /* \"#utility.yul\":565:972   */\n    tag_48:\n      0x00\n      dup1\n        /* \"#utility.yul\":690:692   */\n      0x40\n        /* \"#utility.yul\":678:687   */\n      dup4\n        /* \"#utility.yul\":669:676   */\n      dup6\n        /* \"#utility.yul\":665:688   */\n      sub\n        /* \"#utility.yul\":661:693   */\n      slt\n        /* \"#utility.yul\":658:660   */\n      iszero\n      tag_136\n      jumpi\n        /* \"#utility.yul\":706:707   */\n      0x00\n        /* \"#utility.yul\":703:704   */\n      dup1\n        /* \"#utility.yul\":696:708   */\n      revert\n        /* \"#utility.yul\":658:660   */\n    tag_136:\n        /* \"#utility.yul\":749:750   */\n      0x00\n        /* \"#utility.yul\":774:827   */\n      tag_137\n        /* \"#utility.yul\":819:826   */\n      dup6\n        /* \"#utility.yul\":810:816   */\n      dup3\n        /* \"#utility.yul\":799:808   */\n      dup7\n        /* \"#utility.yul\":795:817   */\n      add\n        /* \"#utility.yul\":774:827   */\n      tag_124\n      jump\t// in\n    tag_137:\n        /* \"#utility.yul\":764:827   */\n      swap3\n      pop\n        /* \"#utility.yul\":720:837   */\n      pop\n        /* \"#utility.yul\":876:878   */\n      0x20\n        /* \"#utility.yul\":902:955   */\n      tag_138\n        /* \"#utility.yul\":947:954   */\n      dup6\n        /* \"#utility.yul\":938:944   */\n      dup3\n        /* \"#utility.yul\":927:936   */\n      dup7\n        /* \"#utility.yul\":923:945   */\n      add\n        /* \"#utility.yul\":902:955   */\n      tag_128\n      jump\t// in\n    tag_138:\n        /* \"#utility.yul\":892:955   */\n      swap2\n      pop\n        /* \"#utility.yul\":847:965   */\n      pop\n        /* \"#utility.yul\":648:972   */\n      swap3\n      pop\n      swap3\n      swap1\n      pop\n      jump\t// out\n        /* \"#utility.yul\":978:1240   */\n    tag_18:\n      0x00\n        /* \"#utility.yul\":1086:1088   */\n      0x20\n        /* \"#utility.yul\":1074:1083   */\n      dup3\n        /* \"#utility.yul\":1065:1072   */\n      dup5\n        /* \"#utility.yul\":1061:1084   */\n      sub\n        /* \"#utility.yul\":1057:1089   */\n      slt\n        /* \"#utility.yul\":1054:1056   */\n      iszero\n      tag_140\n      jumpi\n        /* \"#utility.yul\":1102:1103   */\n      0x00\n        /* \"#utility.yul\":1099:1100   */\n      dup1\n        /* \"#utility.yul\":1092:1104   */\n      revert\n        /* \"#utility.yul\":1054:1056   */\n    tag_140:\n        /* \"#utility.yul\":1145:1146   */\n      0x00\n        /* \"#utility.yul\":1170:1223   */\n      tag_141\n        /* \"#utility.yul\":1215:1222   */\n      dup5\n        /* \"#utility.yul\":1206:1212   */\n      dup3\n        /* \"#utility.yul\":1195:1204   */\n      dup6\n        /* \"#utility.yul\":1191:1213   */\n      add\n        /* \"#utility.yul\":1170:1223   */\n      tag_128\n      jump\t// in\n    tag_141:\n        /* \"#utility.yul\":1160:1223   */\n      swap2\n      pop\n        /* \"#utility.yul\":1116:1233   */\n      pop\n        /* \"#utility.yul\":1044:1240   */\n      swap3\n      swap2\n      pop\n      pop\n      jump\t// out\n        /* \"#utility.yul\":1246:1653   */\n    tag_53:\n      0x00\n      dup1\n        /* \"#utility.yul\":1371:1373   */\n      0x40\n        /* \"#utility.yul\":1359:1368   */\n      dup4\n        /* \"#utility.yul\":1350:1357   */\n      dup6\n        /* \"#utility.yul\":1346:1369   */\n      sub\n        /* \"#utility.yul\":1342:1374   */\n      slt\n        /* \"#utility.yul\":1339:1341   */\n      iszero\n      tag_143\n      jumpi\n        /* \"#utility.yul\":1387:1388   */\n      0x00\n        /* \"#utility.yul\":1384:1385   */\n      dup1\n        /* \"#utility.yul\":1377:1389   */\n      revert\n        /* \"#utility.yul\":1339:1341   */\n    tag_143:\n        /* \"#utility.yul\":1430:1431   */\n      0x00\n        /* \"#utility.yul\":1455:1508   */\n      tag_144\n        /* \"#utility.yul\":1500:1507   */\n      dup6\n        /* \"#utility.yul\":1491:1497   */\n      dup3\n        /* \"#utility.yul\":1480:1489   */\n      dup7\n        /* \"#utility.yul\":1476:1498   */\n      add\n        /* \"#utility.yul\":1455:1508   */\n      tag_128\n      jump\t// in\n    tag_144:\n        /* \"#utility.yul\":1445:1508   */\n      swap3\n      pop\n        /* \"#utility.yul\":1401:1518   */\n      pop\n        /* \"#utility.yul\":1557:1559   */\n      0x20\n        /* \"#utility.yul\":1583:1636   */\n      tag_145\n        /* \"#utility.yul\":1628:1635   */\n      dup6\n        /* \"#utility.yul\":1619:1625   */\n      dup3\n        /* \"#utility.yul\":1608:1617   */\n      dup7\n        /* \"#utility.yul\":1604:1626   */\n      add\n        /* \"#utility.yul\":1583:1636   */\n      tag_128\n      jump\t// in\n    tag_145:\n        /* \"#utility.yul\":1573:1636   */\n      swap2\n      pop\n        /* \"#utility.yul\":1528:1646   */\n      pop\n        /* \"#utility.yul\":1329:1653   */\n      swap3\n      pop\n      swap3\n      swap1\n      pop\n      jump\t// out\n        /* \"#utility.yul\":1659:1777   */\n    tag_146:\n        /* \"#utility.yul\":1746:1770   */\n      tag_148\n        /* \"#utility.yul\":1764:1769   */\n      dup2\n        /* \"#utility.yul\":1746:1770   */\n      tag_149\n      jump\t// in\n    tag_148:\n        /* \"#utility.yul\":1741:1744   */\n      dup3\n        /* \"#utility.yul\":1734:1771   */\n      mstore\n        /* \"#utility.yul\":1724:1777   */\n      pop\n      pop\n      jump\t// out\n        /* \"#utility.yul\":1783:1892   */\n    tag_150:\n        /* \"#utility.yul\":1864:1885   */\n      tag_152\n        /* \"#utility.yul\":1879:1884   */\n      dup2\n        /* \"#utility.yul\":1864:1885   */\n      tag_153\n      jump\t// in\n    tag_152:\n        /* \"#utility.yul\":1859:1862   */\n      dup3\n        /* \"#utility.yul\":1852:1886   */\n      mstore\n        /* \"#utility.yul\":1842:1892   */\n      pop\n      pop\n      jump\t// out\n        /* \"#utility.yul\":1898:2264   */\n    tag_154:\n      0x00\n        /* \"#utility.yul\":2061:2128   */\n      tag_156\n        /* \"#utility.yul\":2125:2127   */\n      0x1d\n        /* \"#utility.yul\":2120:2123   */\n      dup4\n        /* \"#utility.yul\":2061:2128   */\n      tag_157\n      jump\t// in\n    tag_156:\n        /* \"#utility.yul\":2054:2128   */\n      swap2\n      pop\n        /* \"#utility.yul\":2137:2230   */\n      tag_158\n        /* \"#utility.yul\":2226:2229   */\n      dup3\n        /* \"#utility.yul\":2137:2230   */\n      tag_159\n      jump\t// in\n    tag_158:\n        /* \"#utility.yul\":2255:2257   */\n      0x20\n        /* \"#utility.yul\":2250:2253   */\n      dup3\n        /* \"#utility.yul\":2246:2258   */\n      add\n        /* \"#utility.yul\":2239:2258   */\n      swap1\n      pop\n        /* \"#utility.yul\":2044:2264   */\n      swap2\n      swap1\n      pop\n      jump\t// out\n        /* \"#utility.yul\":2270:2636   */\n    tag_160:\n      0x00\n        /* \"#utility.yul\":2433:2500   */\n      tag_162\n        /* \"#utility.yul\":2497:2499   */\n      0x21\n        /* \"#utility.yul\":2492:2495   */\n      dup4\n        /* \"#utility.yul\":2433:2500   */\n      tag_157\n      jump\t// in\n    tag_162:\n        /* \"#utility.yul\":2426:2500   */\n      swap2\n      pop\n        /* \"#utility.yul\":2509:2602   */\n      tag_163\n        /* \"#utility.yul\":2598:2601   */\n      dup3\n        /* \"#utility.yul\":2509:2602   */\n      tag_164\n      jump\t// in\n    tag_163:\n        /* \"#utility.yul\":2627:2629   */\n      0x40\n        /* \"#utility.yul\":2622:2625   */\n      dup3\n        /* \"#utility.yul\":2618:2630   */\n      add\n        /* \"#utility.yul\":2611:2630   */\n      swap1\n      pop\n        /* \"#utility.yul\":2416:2636   */\n      swap2\n      swap1\n      pop\n      jump\t// out\n        /* \"#utility.yul\":2642:3008   */\n    tag_165:\n      0x00\n        /* \"#utility.yul\":2805:2872   */\n      tag_167\n        /* \"#utility.yul\":2869:2871   */\n      0x1a\n        /* \"#utility.yul\":2864:2867   */\n      dup4\n        /* \"#utility.yul\":2805:2872   */\n      tag_157\n      jump\t// in\n    tag_167:\n        /* \"#utility.yul\":2798:2872   */\n      swap2\n      pop\n        /* \"#utility.yul\":2881:2974   */\n      tag_168\n        /* \"#utility.yul\":2970:2973   */\n      dup3\n        /* \"#utility.yul\":2881:2974   */\n      tag_169\n      jump\t// in\n    tag_168:\n        /* \"#utility.yul\":2999:3001   */\n      0x20\n        /* \"#utility.yul\":2994:2997   */\n      dup3\n        /* \"#utility.yul\":2990:3002   */\n      add\n        /* \"#utility.yul\":2983:3002   */\n      swap1\n      pop\n        /* \"#utility.yul\":2788:3008   */\n      swap2\n      swap1\n      pop\n      jump\t// out\n        /* \"#utility.yul\":3014:3132   */\n    tag_170:\n        /* \"#utility.yul\":3101:3125   */\n      tag_172\n        /* \"#utility.yul\":3119:3124   */\n      dup2\n        /* \"#utility.yul\":3101:3125   */\n      tag_173\n      jump\t// in\n    tag_172:\n        /* \"#utility.yul\":3096:3099   */\n      dup3\n        /* \"#utility.yul\":3089:3126   */\n      mstore\n        /* \"#utility.yul\":3079:3132   */\n      pop\n      pop\n      jump\t// out\n        /* \"#utility.yul\":3138:3360   */\n    tag_21:\n      0x00\n        /* \"#utility.yul\":3269:3271   */\n      0x20\n        /* \"#utility.yul\":3258:3267   */\n      dup3\n        /* \"#utility.yul\":3254:3272   */\n      add\n        /* \"#utility.yul\":3246:3272   */\n      swap1\n      pop\n        /* \"#utility.yul\":3282:3353   */\n      tag_175\n        /* \"#utility.yul\":3350:3351   */\n      0x00\n        /* \"#utility.yul\":3339:3348   */\n      dup4\n        /* \"#utility.yul\":3335:3352   */\n      add\n        /* \"#utility.yul\":3326:3332   */\n      dup5\n        /* \"#utility.yul\":3282:3353   */\n      tag_146\n      jump\t// in\n    tag_175:\n        /* \"#utility.yul\":3236:3360   */\n      swap3\n      swap2\n      pop\n      pop\n      jump\t// out\n        /* \"#utility.yul\":3366:3785   */\n    tag_86:\n      0x00\n        /* \"#utility.yul\":3570:3572   */\n      0x20\n        /* \"#utility.yul\":3559:3568   */\n      dup3\n        /* \"#utility.yul\":3555:3573   */\n      add\n        /* \"#utility.yul\":3547:3573   */\n      swap1\n      pop\n        /* \"#utility.yul\":3619:3628   */\n      dup2\n        /* \"#utility.yul\":3613:3617   */\n      dup2\n        /* \"#utility.yul\":3609:3629   */\n      sub\n        /* \"#utility.yul\":3605:3606   */\n      0x00\n        /* \"#utility.yul\":3594:3603   */\n      dup4\n        /* \"#utility.yul\":3590:3607   */\n      add\n        /* \"#utility.yul\":3583:3630   */\n      mstore\n        /* \"#utility.yul\":3647:3778   */\n      tag_177\n        /* \"#utility.yul\":3773:3777   */\n      dup2\n        /* \"#utility.yul\":3647:3778   */\n      tag_154\n      jump\t// in\n    tag_177:\n        /* \"#utility.yul\":3639:3778   */\n      swap1\n      pop\n        /* \"#utility.yul\":3537:3785   */\n      swap2\n      swap1\n      pop\n      jump\t// out\n        /* \"#utility.yul\":3791:4210   */\n    tag_79:\n      0x00\n        /* \"#utility.yul\":3995:3997   */\n      0x20\n        /* \"#utility.yul\":3984:3993   */\n      dup3\n        /* \"#utility.yul\":3980:3998   */\n      add\n        /* \"#utility.yul\":3972:3998   */\n      swap1\n      pop\n        /* \"#utility.yul\":4044:4053   */\n      dup2\n        /* \"#utility.yul\":4038:4042   */\n      dup2\n        /* \"#utility.yul\":4034:4054   */\n      sub\n        /* \"#utility.yul\":4030:4031   */\n      0x00\n        /* \"#utility.yul\":4019:4028   */\n      dup4\n        /* \"#utility.yul\":4015:4032   */\n      add\n        /* \"#utility.yul\":4008:4055   */\n      mstore\n        /* \"#utility.yul\":4072:4203   */\n      tag_179\n        /* \"#utility.yul\":4198:4202   */\n      dup2\n        /* \"#utility.yul\":4072:4203   */\n      tag_160\n      jump\t// in\n    tag_179:\n        /* \"#utility.yul\":4064:4203   */\n      swap1\n      pop\n        /* \"#utility.yul\":3962:4210   */\n      swap2\n      swap1\n      pop\n      jump\t// out\n        /* \"#utility.yul\":4216:4635   */\n    tag_107:\n      0x00\n        /* \"#utility.yul\":4420:4422   */\n      0x20\n        /* \"#utility.yul\":4409:4418   */\n      dup3\n        /* \"#utility.yul\":4405:4423   */\n      add\n        /* \"#utility.yul\":4397:4423   */\n      swap1\n      pop\n        /* \"#utility.yul\":4469:4478   */\n      dup2\n        /* \"#utility.yul\":4463:4467   */\n      dup2\n        /* \"#utility.yul\":4459:4479   */\n      sub\n        /* \"#utility.yul\":4455:4456   */\n      0x00\n        /* \"#utility.yul\":4444:4453   */\n      dup4\n        /* \"#utility.yul\":4440:4457   */\n      add\n        /* \"#utility.yul\":4433:4480   */\n      mstore\n        /* \"#utility.yul\":4497:4628   */\n      tag_181\n        /* \"#utility.yul\":4623:4627   */\n      dup2\n        /* \"#utility.yul\":4497:4628   */\n      tag_165\n      jump\t// in\n    tag_181:\n        /* \"#utility.yul\":4489:4628   */\n      swap1\n      pop\n        /* \"#utility.yul\":4387:4635   */\n      swap2\n      swap1\n      pop\n      jump\t// out\n        /* \"#utility.yul\":4641:4863   */\n    tag_30:\n      0x00\n        /* \"#utility.yul\":4772:4774   */\n      0x20\n        /* \"#utility.yul\":4761:4770   */\n      dup3\n        /* \"#utility.yul\":4757:4775   */\n      add\n        /* \"#utility.yul\":4749:4775   */\n      swap1\n      pop\n        /* \"#utility.yul\":4785:4856   */\n      tag_183\n        /* \"#utility.yul\":4853:4854   */\n      0x00\n        /* \"#utility.yul\":4842:4851   */\n      dup4\n        /* \"#utility.yul\":4838:4855   */\n      add\n        /* \"#utility.yul\":4829:4835   */\n      dup5\n        /* \"#utility.yul\":4785:4856   */\n      tag_170\n      jump\t// in\n    tag_183:\n        /* \"#utility.yul\":4739:4863   */\n      swap3\n      swap2\n      pop\n      pop\n      jump\t// out\n        /* \"#utility.yul\":4869:5410   */\n    tag_61:\n      0x00\n        /* \"#utility.yul\":5078:5081   */\n      0x80\n        /* \"#utility.yul\":5067:5076   */\n      dup3\n        /* \"#utility.yul\":5063:5082   */\n      add\n        /* \"#utility.yul\":5055:5082   */\n      swap1\n      pop\n        /* \"#utility.yul\":5092:5163   */\n      tag_185\n        /* \"#utility.yul\":5160:5161   */\n      0x00\n        /* \"#utility.yul\":5149:5158   */\n      dup4\n        /* \"#utility.yul\":5145:5162   */\n      add\n        /* \"#utility.yul\":5136:5142   */\n      dup8\n        /* \"#utility.yul\":5092:5163   */\n      tag_170\n      jump\t// in\n    tag_185:\n        /* \"#utility.yul\":5173:5245   */\n      tag_186\n        /* \"#utility.yul\":5241:5243   */\n      0x20\n        /* \"#utility.yul\":5230:5239   */\n      dup4\n        /* \"#utility.yul\":5226:5244   */\n      add\n        /* \"#utility.yul\":5217:5223   */\n      dup7\n        /* \"#utility.yul\":5173:5245   */\n      tag_170\n      jump\t// in\n    tag_186:\n        /* \"#utility.yul\":5255:5327   */\n      tag_187\n        /* \"#utility.yul\":5323:5325   */\n      0x40\n        /* \"#utility.yul\":5312:5321   */\n      dup4\n        /* \"#utility.yul\":5308:5326   */\n      add\n        /* \"#utility.yul\":5299:5305   */\n      dup6\n        /* \"#utility.yul\":5255:5327   */\n      tag_170\n      jump\t// in\n    tag_187:\n        /* \"#utility.yul\":5337:5403   */\n      tag_188\n        /* \"#utility.yul\":5399:5401   */\n      0x60\n        /* \"#utility.yul\":5388:5397   */\n      dup4\n        /* \"#utility.yul\":5384:5402   */\n      add\n        /* \"#utility.yul\":5375:5381   */\n      dup5\n        /* \"#utility.yul\":5337:5403   */\n      tag_150\n      jump\t// in\n    tag_188:\n        /* \"#utility.yul\":5045:5410   */\n      swap6\n      swap5\n      pop\n      pop\n      pop\n      pop\n      pop\n      jump\t// out\n        /* \"#utility.yul\":5416:5585   */\n    tag_157:\n      0x00\n        /* \"#utility.yul\":5534:5540   */\n      dup3\n        /* \"#utility.yul\":5529:5532   */\n      dup3\n        /* \"#utility.yul\":5522:5541   */\n      mstore\n        /* \"#utility.yul\":5574:5578   */\n      0x20\n        /* \"#utility.yul\":5569:5572   */\n      dup3\n        /* \"#utility.yul\":5565:5579   */\n      add\n        /* \"#utility.yul\":5550:5579   */\n      swap1\n      pop\n        /* \"#utility.yul\":5512:5585   */\n      swap3\n      swap2\n      pop\n      pop\n      jump\t// out\n        /* \"#utility.yul\":5591:5776   */\n    tag_120:\n      0x00\n        /* \"#utility.yul\":5648:5668   */\n      tag_191\n        /* \"#utility.yul\":5666:5667   */\n      dup3\n        /* \"#utility.yul\":5648:5668   */\n      tag_173\n      jump\t// in\n    tag_191:\n        /* \"#utility.yul\":5643:5668   */\n      swap2\n      pop\n        /* \"#utility.yul\":5682:5702   */\n      tag_192\n        /* \"#utility.yul\":5700:5701   */\n      dup4\n        /* \"#utility.yul\":5682:5702   */\n      tag_173\n      jump\t// in\n    tag_192:\n        /* \"#utility.yul\":5677:5702   */\n      swap3\n      pop\n        /* \"#utility.yul\":5721:5722   */\n      dup3\n        /* \"#utility.yul\":5711:5713   */\n      tag_193\n      jumpi\n        /* \"#utility.yul\":5726:5744   */\n      tag_194\n      tag_195\n      jump\t// in\n    tag_194:\n        /* \"#utility.yul\":5711:5713   */\n    tag_193:\n        /* \"#utility.yul\":5768:5769   */\n      dup3\n        /* \"#utility.yul\":5765:5766   */\n      dup3\n        /* \"#utility.yul\":5761:5770   */\n      div\n        /* \"#utility.yul\":5756:5770   */\n      swap1\n      pop\n        /* \"#utility.yul\":5633:5776   */\n      swap3\n      swap2\n      pop\n      pop\n      jump\t// out\n        /* \"#utility.yul\":5782:6130   */\n    tag_118:\n      0x00\n        /* \"#utility.yul\":5845:5865   */\n      tag_197\n        /* \"#utility.yul\":5863:5864   */\n      dup3\n        /* \"#utility.yul\":5845:5865   */\n      tag_173\n      jump\t// in\n    tag_197:\n        /* \"#utility.yul\":5840:5865   */\n      swap2\n      pop\n        /* \"#utility.yul\":5879:5899   */\n      tag_198\n        /* \"#utility.yul\":5897:5898   */\n      dup4\n        /* \"#utility.yul\":5879:5899   */\n      tag_173\n      jump\t// in\n    tag_198:\n        /* \"#utility.yul\":5874:5899   */\n      swap3\n      pop\n        /* \"#utility.yul\":6067:6068   */\n      dup2\n        /* \"#utility.yul\":5999:6065   */\n      0xffffffffffffffffffffffffffffffffffffffffffffffffffffffffffffffff\n        /* \"#utility.yul\":5995:6069   */\n      div\n        /* \"#utility.yul\":5992:5993   */\n      dup4\n        /* \"#utility.yul\":5989:6070   */\n      gt\n        /* \"#utility.yul\":5984:5985   */\n      dup3\n        /* \"#utility.yul\":5977:5986   */\n      iszero\n        /* \"#utility.yul\":5970:5987   */\n      iszero\n        /* \"#utility.yul\":5966:6071   */\n      and\n        /* \"#utility.yul\":5963:5965   */\n      iszero\n      tag_199\n      jumpi\n        /* \"#utility.yul\":6074:6092   */\n      tag_200\n      tag_201\n      jump\t// in\n    tag_200:\n        /* \"#utility.yul\":5963:5965   */\n    tag_199:\n        /* \"#utility.yul\":6122:6123   */\n      dup3\n        /* \"#utility.yul\":6119:6120   */\n      dup3\n        /* \"#utility.yul\":6115:6124   */\n      mul\n        /* \"#utility.yul\":6104:6124   */\n      swap1\n      pop\n        /* \"#utility.yul\":5830:6130   */\n      swap3\n      swap2\n      pop\n      pop\n      jump\t// out\n        /* \"#utility.yul\":6136:6327   */\n    tag_122:\n      0x00\n        /* \"#utility.yul\":6196:6216   */\n      tag_203\n        /* \"#utility.yul\":6214:6215   */\n      dup3\n        /* \"#utility.yul\":6196:6216   */\n      tag_173\n      jump\t// in\n    tag_203:\n        /* \"#utility.yul\":6191:6216   */\n      swap2\n      pop\n        /* \"#utility.yul\":6230:6250   */\n      tag_204\n        /* \"#utility.yul\":6248:6249   */\n      dup4\n        /* \"#utility.yul\":6230:6250   */\n      tag_173\n      jump\t// in\n    tag_204:\n        /* \"#utility.yul\":6225:6250   */\n      swap3\n      pop\n        /* \"#utility.yul\":6269:6270   */\n      dup3\n        /* \"#utility.yul\":6266:6267   */\n      dup3\n        /* \"#utility.yul\":6263:6271   */\n      lt\n        /* \"#utility.yul\":6260:6262   */\n      iszero\n      tag_205\n      jumpi\n        /* \"#utility.yul\":6274:6292   */\n      tag_206\n      tag_201\n      jump\t// in\n    tag_206:\n        /* \"#utility.yul\":6260:6262   */\n    tag_205:\n        /* \"#utility.yul\":6319:6320   */\n      dup3\n        /* \"#utility.yul\":6316:6317   */\n      dup3\n        /* \"#utility.yul\":6312:6321   */\n      sub\n        /* \"#utility.yul\":6304:6321   */\n      swap1\n      pop\n        /* \"#utility.yul\":6181:6327   */\n      swap3\n      swap2\n      pop\n      pop\n      jump\t// out\n        /* \"#utility.yul\":6333:6429   */\n    tag_149:\n      0x00\n        /* \"#utility.yul\":6399:6423   */\n      tag_208\n        /* \"#utility.yul\":6417:6422   */\n      dup3\n        /* \"#utility.yul\":6399:6423   */\n      tag_209\n      jump\t// in\n    tag_208:\n        /* \"#utility.yul\":6388:6423   */\n      swap1\n      pop\n        /* \"#utility.yul\":6378:6429   */\n      swap2\n      swap1\n      pop\n      jump\t// out\n        /* \"#utility.yul\":6435:6525   */\n    tag_153:\n      0x00\n        /* \"#utility.yul\":6512:6517   */\n      dup2\n        /* \"#utility.yul\":6505:6518   */\n      iszero\n        /* \"#utility.yul\":6498:6519   */\n      iszero\n        /* \"#utility.yul\":6487:6519   */\n      swap1\n      pop\n        /* \"#utility.yul\":6477:6525   */\n      swap2\n      swap1\n      pop\n      jump\t// out\n        /* \"#utility.yul\":6531:6657   */\n    tag_209:\n      0x00\n        /* \"#utility.yul\":6608:6650   */\n      0xffffffffffffffffffffffffffffffffffffffff\n        /* \"#utility.yul\":6601:6606   */\n      dup3\n        /* \"#utility.yul\":6597:6651   */\n      and\n        /* \"#utility.yul\":6586:6651   */\n      swap1\n      pop\n        /* \"#utility.yul\":6576:6657   */\n      swap2\n      swap1\n      pop\n      jump\t// out\n        /* \"#utility.yul\":6663:6740   */\n    tag_173:\n      0x00\n        /* \"#utility.yul\":6729:6734   */\n      dup2\n        /* \"#utility.yul\":6718:6734   */\n      swap1\n      pop\n        /* \"#utility.yul\":6708:6740   */\n      swap2\n      swap1\n      pop\n      jump\t// out\n        /* \"#utility.yul\":6746:6917   */\n    tag_94:\n      0x00\n        /* \"#utility.yul\":6808:6832   */\n      tag_214\n        /* \"#utility.yul\":6826:6831   */\n      dup3\n        /* \"#utility.yul\":6808:6832   */\n      tag_173\n      jump\t// in\n    tag_214:\n        /* \"#utility.yul\":6799:6832   */\n      swap2\n      pop\n        /* \"#utility.yul\":6854:6858   */\n      0x00\n        /* \"#utility.yul\":6847:6852   */\n      dup3\n        /* \"#utility.yul\":6844:6859   */\n      eq\n        /* \"#utility.yul\":6841:6843   */\n      iszero\n      tag_215\n      jumpi\n        /* \"#utility.yul\":6862:6880   */\n      tag_216\n      tag_201\n      jump\t// in\n    tag_216:\n        /* \"#utility.yul\":6841:6843   */\n    tag_215:\n        /* \"#utility.yul\":6909:6910   */\n      0x01\n        /* \"#utility.yul\":6902:6907   */\n      dup3\n        /* \"#utility.yul\":6898:6911   */\n      sub\n        /* \"#utility.yul\":6891:6911   */\n      swap1\n      pop\n        /* \"#utility.yul\":6789:6917   */\n      swap2\n      swap1\n      pop\n      jump\t// out\n        /* \"#utility.yul\":6923:7156   */\n    tag_96:\n      0x00\n        /* \"#utility.yul\":6985:7009   */\n      tag_218\n        /* \"#utility.yul\":7003:7008   */\n      dup3\n        /* \"#utility.yul\":6985:7009   */\n      tag_173\n      jump\t// in\n    tag_218:\n        /* \"#utility.yul\":6976:7009   */\n      swap2\n      pop\n        /* \"#utility.yul\":7031:7097   */\n      0xffffffffffffffffffffffffffffffffffffffffffffffffffffffffffffffff\n        /* \"#utility.yul\":7024:7029   */\n      dup3\n        /* \"#utility.yul\":7021:7098   */\n      eq\n        /* \"#utility.yul\":7018:7020   */\n      iszero\n      tag_219\n      jumpi\n        /* \"#utility.yul\":7101:7119   */\n      tag_220\n      tag_201\n      jump\t// in\n    tag_220:\n        /* \"#utility.yul\":7018:7020   */\n    tag_219:\n        /* \"#utility.yul\":7148:7149   */\n      0x01\n        /* \"#utility.yul\":7141:7146   */\n      dup3\n        /* \"#utility.yul\":7137:7150   */\n      add\n        /* \"#utility.yul\":7130:7150   */\n      swap1\n      pop\n        /* \"#utility.yul\":6966:7156   */\n      swap2\n      swap1\n      pop\n      jump\t// out\n        /* \"#utility.yul\":7162:7342   */\n    tag_201:\n        /* \"#utility.yul\":7210:7287   */\n      0x4e487b7100000000000000000000000000000000000000000000000000000000\n        /* \"#utility.yul\":7207:7208   */\n      0x00\n        /* \"#utility.yul\":7200:7288   */\n      mstore\n        /* \"#utility.yul\":7307:7311   */\n      0x11\n        /* \"#utility.yul\":7304:7305   */\n      0x04\n        /* \"#utility.yul\":7297:7312   */\n      mstore\n        /* \"#utility.yul\":7331:7335   */\n      0x24\n        /* \"#utility.yul\":7328:7329   */\n      0x00\n        /* \"#utility.yul\":7321:7336   */\n      revert\n        /* \"#utility.yul\":7348:7528   */\n    tag_195:\n        /* \"#utility.yul\":7396:7473   */\n      0x4e487b7100000000000000000000000000000000000000000000000000000000\n        /* \"#utility.yul\":7393:7394   */\n      0x00\n        /* \"#utility.yul\":7386:7474   */\n      mstore\n        /* \"#utility.yul\":7493:7497   */\n      0x12\n        /* \"#utility.yul\":7490:7491   */\n      0x04\n        /* \"#utility.yul\":7483:7498   */\n      mstore\n        /* \"#utility.yul\":7517:7521   */\n      0x24\n        /* \"#utility.yul\":7514:7515   */\n      0x00\n        /* \"#utility.yul\":7507:7522   */\n      revert\n        /* \"#utility.yul\":7534:7713   */\n    tag_159:\n        /* \"#utility.yul\":7674:7705   */\n      0x4f6e6c79206974656d2773206f776e65722063616e20646f2074686174000000\n        /* \"#utility.yul\":7670:7671   */\n      0x00\n        /* \"#utility.yul\":7662:7668   */\n      dup3\n        /* \"#utility.yul\":7658:7672   */\n      add\n        /* \"#utility.yul\":7651:7706   */\n      mstore\n        /* \"#utility.yul\":7640:7713   */\n      pop\n      jump\t// out\n        /* \"#utility.yul\":7719:7939   */\n    tag_164:\n        /* \"#utility.yul\":7859:7893   */\n      0x4f6e6c7920636f6e74726163742773206f776e65722063616e20646f20746861\n        /* \"#utility.yul\":7855:7856   */\n      0x00\n        /* \"#utility.yul\":7847:7853   */\n      dup3\n        /* \"#utility.yul\":7843:7857   */\n      add\n        /* \"#utility.yul\":7836:7894   */\n      mstore\n        /* \"#utility.yul\":7928:7931   */\n      0x7400000000000000000000000000000000000000000000000000000000000000\n        /* \"#utility.yul\":7923:7925   */\n      0x20\n        /* \"#utility.yul\":7915:7921   */\n      dup3\n        /* \"#utility.yul\":7911:7926   */\n      add\n        /* \"#utility.yul\":7904:7932   */\n      mstore\n        /* \"#utility.yul\":7825:7939   */\n      pop\n      jump\t// out\n        /* \"#utility.yul\":7945:8121   */\n    tag_169:\n        /* \"#utility.yul\":8085:8113   */\n      0x50726963652063616e6e6f7420626520657175616c20746f2030000000000000\n        /* \"#utility.yul\":8081:8082   */\n      0x00\n        /* \"#utility.yul\":8073:8079   */\n      dup3\n        /* \"#utility.yul\":8069:8083   */\n      add\n        /* \"#utility.yul\":8062:8114   */\n      mstore\n        /* \"#utility.yul\":8051:8121   */\n      pop\n      jump\t// out\n        /* \"#utility.yul\":8127:8249   */\n    tag_127:\n        /* \"#utility.yul\":8200:8224   */\n      tag_227\n        /* \"#utility.yul\":8218:8223   */\n      dup2\n        /* \"#utility.yul\":8200:8224   */\n      tag_149\n      jump\t// in\n    tag_227:\n        /* \"#utility.yul\":8193:8198   */\n      dup2\n        /* \"#utility.yul\":8190:8225   */\n      eq\n        /* \"#utility.yul\":8180:8182   */\n      tag_228\n      jumpi\n        /* \"#utility.yul\":8239:8240   */\n      0x00\n        /* \"#utility.yul\":8236:8237   */\n      dup1\n        /* \"#utility.yul\":8229:8241   */\n      revert\n        /* \"#utility.yul\":8180:8182   */\n    tag_228:\n        /* \"#utility.yul\":8170:8249   */\n      pop\n      jump\t// out\n        /* \"#utility.yul\":8255:8377   */\n    tag_131:\n        /* \"#utility.yul\":8328:8352   */\n      tag_230\n        /* \"#utility.yul\":8346:8351   */\n      dup2\n        /* \"#utility.yul\":8328:8352   */\n      tag_173\n      jump\t// in\n    tag_230:\n        /* \"#utility.yul\":8321:8326   */\n      dup2\n        /* \"#utility.yul\":8318:8353   */\n      eq\n        /* \"#utility.yul\":8308:8310   */\n      tag_231\n      jumpi\n        /* \"#utility.yul\":8367:8368   */\n      0x00\n        /* \"#utility.yul\":8364:8365   */\n      dup1\n        /* \"#utility.yul\":8357:8369   */\n      revert\n        /* \"#utility.yul\":8308:8310   */\n    tag_231:\n        /* \"#utility.yul\":8298:8377   */\n      pop\n      jump\t// out\n\n    auxdata: 0xa2646970667358221220c3de84f4fc499f5e0d8cf9cf97109fbe672369f8c59733b76650617a949239fb64736f6c63430008010033\n}\n",
				"bytecode": {
					"linkReferences": {},
					"object": "608060405234801561001057600080fd5b50336000806101000a81548173ffffffffffffffffffffffffffffffffffffffff021916908373ffffffffffffffffffffffffffffffffffffffff160217905550610fe1806100606000396000f3fe6080604052600436106100a75760003560e01c8063a9059cbb11610064578063a9059cbb146101d3578063adae08dd146101fc578063bfb231d214610239578063c392189514610279578063d48644bd146102b6578063ea0ff14a146102f3576100a7565b80631a4d96cd146100ac57806329de6246146100e95780634c389e65146101125780636352211e1461013d57806370a082311461017a57806391b6be9a146101b7575b600080fd5b3480156100b857600080fd5b506100d360048036038101906100ce9190610b1d565b61031e565b6040516100e09190610c18565b60405180910390f35b3480156100f557600080fd5b50610110600480360381019061010b9190610b1d565b610351565b005b34801561011e57600080fd5b506101276103e9565b6040516101349190610c93565b60405180910390f35b34801561014957600080fd5b50610164600480360381019061015f9190610b1d565b6103ef565b6040516101719190610c18565b60405180910390f35b34801561018657600080fd5b506101a1600480360381019061019c9190610ab8565b61042c565b6040516101ae9190610c93565b60405180910390f35b6101d160048036038101906101cc9190610b1d565b610475565b005b3480156101df57600080fd5b506101fa60048036038101906101f59190610ae1565b6107d8565b005b34801561020857600080fd5b50610223600480360381019061021e9190610b46565b6107dc565b6040516102309190610c93565b60405180910390f35b34801561024557600080fd5b50610260600480360381019061025b9190610b1d565b6109c9565b6040516102709493929190610cae565b60405180910390f35b34801561028557600080fd5b506102a0600480360381019061029b9190610ab8565b610a16565b6040516102ad9190610c93565b60405180910390f35b3480156102c257600080fd5b506102dd60048036038101906102d89190610b1d565b610a2e565b6040516102ea9190610c93565b60405180910390f35b3480156102ff57600080fd5b50610308610a46565b6040516103159190610c93565b60405180910390f35b60046020528060005260406000206000915054906101000a900473ffffffffffffffffffffffffffffffffffffffff1681565b60008054906101000a900473ffffffffffffffffffffffffffffffffffffffff1673ffffffffffffffffffffffffffffffffffffffff163373ffffffffffffffffffffffffffffffffffffffff16146103df576040517f08c379a00000000000000000000000000000000000000000000000000000000081526004016103d690610c53565b60405180910390fd5b8060038190555050565b60025481565b60006004600083815260200190815260200160002060009054906101000a900473ffffffffffffffffffffffffffffffffffffffff169050919050565b6000600560008373ffffffffffffffffffffffffffffffffffffffff1673ffffffffffffffffffffffffffffffffffffffff168152602001908152602001600020549050919050565b803373ffffffffffffffffffffffffffffffffffffffff166004600083815260200190815260200160002060009054906101000a900473ffffffffffffffffffffffffffffffffffffffff1673ffffffffffffffffffffffffffffffffffffffff1614610517576040517f08c379a000000000000000000000000000000000000000000000000000000000815260040161050e90610c33565b60405180910390fd5b60018281548110610551577f4e487b7100000000000000000000000000000000000000000000000000000000600052603260045260246000fd5b906000526020600020906004020160010154341461056e57600080fd5b60006004600084815260200190815260200160002060009054906101000a900473ffffffffffffffffffffffffffffffffffffffff1690506000600184815481106105e2577f4e487b7100000000000000000000000000000000000000000000000000000000600052603260045260246000fd5b9060005260206000209060040201905060008160030160006101000a81548160ff021916908315150217905550336004600086815260200190815260200160002060006101000a81548173ffffffffffffffffffffffffffffffffffffffff021916908373ffffffffffffffffffffffffffffffffffffffff160217905550600560008373ffffffffffffffffffffffffffffffffffffffff1673ffffffffffffffffffffffffffffffffffffffff16815260200190815260200160002060008154809291906106b190610e0b565b9190505550600560003373ffffffffffffffffffffffffffffffffffffffff1673ffffffffffffffffffffffffffffffffffffffff168152602001908152602001600020600081548092919061070690610e35565b919050555060008061071a34600354610a50565b809250819350505060008054906101000a900473ffffffffffffffffffffffffffffffffffffffff1673ffffffffffffffffffffffffffffffffffffffff166108fc839081150290604051600060405180830381858888f19350505050158015610788573d6000803e3d6000fd5b508373ffffffffffffffffffffffffffffffffffffffff166108fc829081150290604051600060405180830381858888f193505050501580156107cf573d6000803e3d6000fd5b50505050505050565b5050565b6000808311610820576040517f08c379a000000000000000000000000000000000000000000000000000000000815260040161081790610c73565b60405180910390fd5b6000600180549050905060405180608001604052808281526020018581526020018481526020016001151581525060018281548110610888577f4e487b7100000000000000000000000000000000000000000000000000000000600052603260045260246000fd5b906000526020600020906004020160008201518160000155602082015181600101556040820151816002015560608201518160030160006101000a81548160ff021916908315150217905550905050600260008154809291906108ea90610e35565b9190505550336004600083815260200190815260200160002060006101000a81548173ffffffffffffffffffffffffffffffffffffffff021916908373ffffffffffffffffffffffffffffffffffffffff160217905550600560003373ffffffffffffffffffffffffffffffffffffffff1673ffffffffffffffffffffffffffffffffffffffff168152602001908152602001600020600081548092919061099190610e35565b91905055506006600084815260200190815260200160002060008154809291906109ba90610e35565b91905055508091505092915050565b600181815481106109d957600080fd5b90600052602060002090600402016000915090508060000154908060010154908060020154908060030160009054906101000a900460ff16905084565b60056020528060005260406000206000915090505481565b60066020528060005260406000206000915090505481565b6000600354905090565b600080600060648585610a639190610d35565b610a6d9190610d04565b905060008186610a7d9190610d8f565b905081819350935050509250929050565b600081359050610a9d81610f7d565b92915050565b600081359050610ab281610f94565b92915050565b600060208284031215610aca57600080fd5b6000610ad884828501610a8e565b91505092915050565b60008060408385031215610af457600080fd5b6000610b0285828601610a8e565b9250506020610b1385828601610aa3565b9150509250929050565b600060208284031215610b2f57600080fd5b6000610b3d84828501610aa3565b91505092915050565b60008060408385031215610b5957600080fd5b6000610b6785828601610aa3565b9250506020610b7885828601610aa3565b9150509250929050565b610b8b81610dc3565b82525050565b610b9a81610dd5565b82525050565b6000610bad601d83610cf3565b9150610bb882610edc565b602082019050919050565b6000610bd0602183610cf3565b9150610bdb82610f05565b604082019050919050565b6000610bf3601a83610cf3565b9150610bfe82610f54565b602082019050919050565b610c1281610e01565b82525050565b6000602082019050610c2d6000830184610b82565b92915050565b60006020820190508181036000830152610c4c81610ba0565b9050919050565b60006020820190508181036000830152610c6c81610bc3565b9050919050565b60006020820190508181036000830152610c8c81610be6565b9050919050565b6000602082019050610ca86000830184610c09565b92915050565b6000608082019050610cc36000830187610c09565b610cd06020830186610c09565b610cdd6040830185610c09565b610cea6060830184610b91565b95945050505050565b600082825260208201905092915050565b6000610d0f82610e01565b9150610d1a83610e01565b925082610d2a57610d29610ead565b5b828204905092915050565b6000610d4082610e01565b9150610d4b83610e01565b9250817fffffffffffffffffffffffffffffffffffffffffffffffffffffffffffffffff0483118215151615610d8457610d83610e7e565b5b828202905092915050565b6000610d9a82610e01565b9150610da583610e01565b925082821015610db857610db7610e7e565b5b828203905092915050565b6000610dce82610de1565b9050919050565b60008115159050919050565b600073ffffffffffffffffffffffffffffffffffffffff82169050919050565b6000819050919050565b6000610e1682610e01565b91506000821415610e2a57610e29610e7e565b5b600182039050919050565b6000610e4082610e01565b91507fffffffffffffffffffffffffffffffffffffffffffffffffffffffffffffffff821415610e7357610e72610e7e565b5b600182019050919050565b7f4e487b7100000000000000000000000000000000000000000000000000000000600052601160045260246000fd5b7f4e487b7100000000000000000000000000000000000000000000000000000000600052601260045260246000fd5b7f4f6e6c79206974656d2773206f776e65722063616e20646f2074686174000000600082015250565b7f4f6e6c7920636f6e74726163742773206f776e65722063616e20646f2074686160008201527f7400000000000000000000000000000000000000000000000000000000000000602082015250565b7f50726963652063616e6e6f7420626520657175616c20746f2030000000000000600082015250565b610f8681610dc3565b8114610f9157600080fd5b50565b610f9d81610e01565b8114610fa857600080fd5b5056fea2646970667358221220c3de84f4fc499f5e0d8cf9cf97109fbe672369f8c59733b76650617a949239fb64736f6c63430008010033",
					"opcodes": "PUSH1 0x80 PUSH1 0x40 MSTORE CALLVALUE DUP1 ISZERO PUSH2 0x10 JUMPI PUSH1 0x0 DUP1 REVERT JUMPDEST POP CALLER PUSH1 0x0 DUP1 PUSH2 0x100 EXP DUP2 SLOAD DUP2 PUSH20 0xFFFFFFFFFFFFFFFFFFFFFFFFFFFFFFFFFFFFFFFF MUL NOT AND SWAP1 DUP4 PUSH20 0xFFFFFFFFFFFFFFFFFFFFFFFFFFFFFFFFFFFFFFFF AND MUL OR SWAP1 SSTORE POP PUSH2 0xFE1 DUP1 PUSH2 0x60 PUSH1 0x0 CODECOPY PUSH1 0x0 RETURN INVALID PUSH1 0x80 PUSH1 0x40 MSTORE PUSH1 0x4 CALLDATASIZE LT PUSH2 0xA7 JUMPI PUSH1 0x0 CALLDATALOAD PUSH1 0xE0 SHR DUP1 PUSH4 0xA9059CBB GT PUSH2 0x64 JUMPI DUP1 PUSH4 0xA9059CBB EQ PUSH2 0x1D3 JUMPI DUP1 PUSH4 0xADAE08DD EQ PUSH2 0x1FC JUMPI DUP1 PUSH4 0xBFB231D2 EQ PUSH2 0x239 JUMPI DUP1 PUSH4 0xC3921895 EQ PUSH2 0x279 JUMPI DUP1 PUSH4 0xD48644BD EQ PUSH2 0x2B6 JUMPI DUP1 PUSH4 0xEA0FF14A EQ PUSH2 0x2F3 JUMPI PUSH2 0xA7 JUMP JUMPDEST DUP1 PUSH4 0x1A4D96CD EQ PUSH2 0xAC JUMPI DUP1 PUSH4 0x29DE6246 EQ PUSH2 0xE9 JUMPI DUP1 PUSH4 0x4C389E65 EQ PUSH2 0x112 JUMPI DUP1 PUSH4 0x6352211E EQ PUSH2 0x13D JUMPI DUP1 PUSH4 0x70A08231 EQ PUSH2 0x17A JUMPI DUP1 PUSH4 0x91B6BE9A EQ PUSH2 0x1B7 JUMPI JUMPDEST PUSH1 0x0 DUP1 REVERT JUMPDEST CALLVALUE DUP1 ISZERO PUSH2 0xB8 JUMPI PUSH1 0x0 DUP1 REVERT JUMPDEST POP PUSH2 0xD3 PUSH1 0x4 DUP1 CALLDATASIZE SUB DUP2 ADD SWAP1 PUSH2 0xCE SWAP2 SWAP1 PUSH2 0xB1D JUMP JUMPDEST PUSH2 0x31E JUMP JUMPDEST PUSH1 0x40 MLOAD PUSH2 0xE0 SWAP2 SWAP1 PUSH2 0xC18 JUMP JUMPDEST PUSH1 0x40 MLOAD DUP1 SWAP2 SUB SWAP1 RETURN JUMPDEST CALLVALUE DUP1 ISZERO PUSH2 0xF5 JUMPI PUSH1 0x0 DUP1 REVERT JUMPDEST POP PUSH2 0x110 PUSH1 0x4 DUP1 CALLDATASIZE SUB DUP2 ADD SWAP1 PUSH2 0x10B SWAP2 SWAP1 PUSH2 0xB1D JUMP JUMPDEST PUSH2 0x351 JUMP JUMPDEST STOP JUMPDEST CALLVALUE DUP1 ISZERO PUSH2 0x11E JUMPI PUSH1 0x0 DUP1 REVERT JUMPDEST POP PUSH2 0x127 PUSH2 0x3E9 JUMP JUMPDEST PUSH1 0x40 MLOAD PUSH2 0x134 SWAP2 SWAP1 PUSH2 0xC93 JUMP JUMPDEST PUSH1 0x40 MLOAD DUP1 SWAP2 SUB SWAP1 RETURN JUMPDEST CALLVALUE DUP1 ISZERO PUSH2 0x149 JUMPI PUSH1 0x0 DUP1 REVERT JUMPDEST POP PUSH2 0x164 PUSH1 0x4 DUP1 CALLDATASIZE SUB DUP2 ADD SWAP1 PUSH2 0x15F SWAP2 SWAP1 PUSH2 0xB1D JUMP JUMPDEST PUSH2 0x3EF JUMP JUMPDEST PUSH1 0x40 MLOAD PUSH2 0x171 SWAP2 SWAP1 PUSH2 0xC18 JUMP JUMPDEST PUSH1 0x40 MLOAD DUP1 SWAP2 SUB SWAP1 RETURN JUMPDEST CALLVALUE DUP1 ISZERO PUSH2 0x186 JUMPI PUSH1 0x0 DUP1 REVERT JUMPDEST POP PUSH2 0x1A1 PUSH1 0x4 DUP1 CALLDATASIZE SUB DUP2 ADD SWAP1 PUSH2 0x19C SWAP2 SWAP1 PUSH2 0xAB8 JUMP JUMPDEST PUSH2 0x42C JUMP JUMPDEST PUSH1 0x40 MLOAD PUSH2 0x1AE SWAP2 SWAP1 PUSH2 0xC93 JUMP JUMPDEST PUSH1 0x40 MLOAD DUP1 SWAP2 SUB SWAP1 RETURN JUMPDEST PUSH2 0x1D1 PUSH1 0x4 DUP1 CALLDATASIZE SUB DUP2 ADD SWAP1 PUSH2 0x1CC SWAP2 SWAP1 PUSH2 0xB1D JUMP JUMPDEST PUSH2 0x475 JUMP JUMPDEST STOP JUMPDEST CALLVALUE DUP1 ISZERO PUSH2 0x1DF JUMPI PUSH1 0x0 DUP1 REVERT JUMPDEST POP PUSH2 0x1FA PUSH1 0x4 DUP1 CALLDATASIZE SUB DUP2 ADD SWAP1 PUSH2 0x1F5 SWAP2 SWAP1 PUSH2 0xAE1 JUMP JUMPDEST PUSH2 0x7D8 JUMP JUMPDEST STOP JUMPDEST CALLVALUE DUP1 ISZERO PUSH2 0x208 JUMPI PUSH1 0x0 DUP1 REVERT JUMPDEST POP PUSH2 0x223 PUSH1 0x4 DUP1 CALLDATASIZE SUB DUP2 ADD SWAP1 PUSH2 0x21E SWAP2 SWAP1 PUSH2 0xB46 JUMP JUMPDEST PUSH2 0x7DC JUMP JUMPDEST PUSH1 0x40 MLOAD PUSH2 0x230 SWAP2 SWAP1 PUSH2 0xC93 JUMP JUMPDEST PUSH1 0x40 MLOAD DUP1 SWAP2 SUB SWAP1 RETURN JUMPDEST CALLVALUE DUP1 ISZERO PUSH2 0x245 JUMPI PUSH1 0x0 DUP1 REVERT JUMPDEST POP PUSH2 0x260 PUSH1 0x4 DUP1 CALLDATASIZE SUB DUP2 ADD SWAP1 PUSH2 0x25B SWAP2 SWAP1 PUSH2 0xB1D JUMP JUMPDEST PUSH2 0x9C9 JUMP JUMPDEST PUSH1 0x40 MLOAD PUSH2 0x270 SWAP5 SWAP4 SWAP3 SWAP2 SWAP1 PUSH2 0xCAE JUMP JUMPDEST PUSH1 0x40 MLOAD DUP1 SWAP2 SUB SWAP1 RETURN JUMPDEST CALLVALUE DUP1 ISZERO PUSH2 0x285 JUMPI PUSH1 0x0 DUP1 REVERT JUMPDEST POP PUSH2 0x2A0 PUSH1 0x4 DUP1 CALLDATASIZE SUB DUP2 ADD SWAP1 PUSH2 0x29B SWAP2 SWAP1 PUSH2 0xAB8 JUMP JUMPDEST PUSH2 0xA16 JUMP JUMPDEST PUSH1 0x40 MLOAD PUSH2 0x2AD SWAP2 SWAP1 PUSH2 0xC93 JUMP JUMPDEST PUSH1 0x40 MLOAD DUP1 SWAP2 SUB SWAP1 RETURN JUMPDEST CALLVALUE DUP1 ISZERO PUSH2 0x2C2 JUMPI PUSH1 0x0 DUP1 REVERT JUMPDEST POP PUSH2 0x2DD PUSH1 0x4 DUP1 CALLDATASIZE SUB DUP2 ADD SWAP1 PUSH2 0x2D8 SWAP2 SWAP1 PUSH2 0xB1D JUMP JUMPDEST PUSH2 0xA2E JUMP JUMPDEST PUSH1 0x40 MLOAD PUSH2 0x2EA SWAP2 SWAP1 PUSH2 0xC93 JUMP JUMPDEST PUSH1 0x40 MLOAD DUP1 SWAP2 SUB SWAP1 RETURN JUMPDEST CALLVALUE DUP1 ISZERO PUSH2 0x2FF JUMPI PUSH1 0x0 DUP1 REVERT JUMPDEST POP PUSH2 0x308 PUSH2 0xA46 JUMP JUMPDEST PUSH1 0x40 MLOAD PUSH2 0x315 SWAP2 SWAP1 PUSH2 0xC93 JUMP JUMPDEST PUSH1 0x40 MLOAD DUP1 SWAP2 SUB SWAP1 RETURN JUMPDEST PUSH1 0x4 PUSH1 0x20 MSTORE DUP1 PUSH1 0x0 MSTORE PUSH1 0x40 PUSH1 0x0 KECCAK256 PUSH1 0x0 SWAP2 POP SLOAD SWAP1 PUSH2 0x100 EXP SWAP1 DIV PUSH20 0xFFFFFFFFFFFFFFFFFFFFFFFFFFFFFFFFFFFFFFFF AND DUP2 JUMP JUMPDEST PUSH1 0x0 DUP1 SLOAD SWAP1 PUSH2 0x100 EXP SWAP1 DIV PUSH20 0xFFFFFFFFFFFFFFFFFFFFFFFFFFFFFFFFFFFFFFFF AND PUSH20 0xFFFFFFFFFFFFFFFFFFFFFFFFFFFFFFFFFFFFFFFF AND CALLER PUSH20 0xFFFFFFFFFFFFFFFFFFFFFFFFFFFFFFFFFFFFFFFF AND EQ PUSH2 0x3DF JUMPI PUSH1 0x40 MLOAD PUSH32 0x8C379A000000000000000000000000000000000000000000000000000000000 DUP2 MSTORE PUSH1 0x4 ADD PUSH2 0x3D6 SWAP1 PUSH2 0xC53 JUMP JUMPDEST PUSH1 0x40 MLOAD DUP1 SWAP2 SUB SWAP1 REVERT JUMPDEST DUP1 PUSH1 0x3 DUP2 SWAP1 SSTORE POP POP JUMP JUMPDEST PUSH1 0x2 SLOAD DUP2 JUMP JUMPDEST PUSH1 0x0 PUSH1 0x4 PUSH1 0x0 DUP4 DUP2 MSTORE PUSH1 0x20 ADD SWAP1 DUP2 MSTORE PUSH1 0x20 ADD PUSH1 0x0 KECCAK256 PUSH1 0x0 SWAP1 SLOAD SWAP1 PUSH2 0x100 EXP SWAP1 DIV PUSH20 0xFFFFFFFFFFFFFFFFFFFFFFFFFFFFFFFFFFFFFFFF AND SWAP1 POP SWAP2 SWAP1 POP JUMP JUMPDEST PUSH1 0x0 PUSH1 0x5 PUSH1 0x0 DUP4 PUSH20 0xFFFFFFFFFFFFFFFFFFFFFFFFFFFFFFFFFFFFFFFF AND PUSH20 0xFFFFFFFFFFFFFFFFFFFFFFFFFFFFFFFFFFFFFFFF AND DUP2 MSTORE PUSH1 0x20 ADD SWAP1 DUP2 MSTORE PUSH1 0x20 ADD PUSH1 0x0 KECCAK256 SLOAD SWAP1 POP SWAP2 SWAP1 POP JUMP JUMPDEST DUP1 CALLER PUSH20 0xFFFFFFFFFFFFFFFFFFFFFFFFFFFFFFFFFFFFFFFF AND PUSH1 0x4 PUSH1 0x0 DUP4 DUP2 MSTORE PUSH1 0x20 ADD SWAP1 DUP2 MSTORE PUSH1 0x20 ADD PUSH1 0x0 KECCAK256 PUSH1 0x0 SWAP1 SLOAD SWAP1 PUSH2 0x100 EXP SWAP1 DIV PUSH20 0xFFFFFFFFFFFFFFFFFFFFFFFFFFFFFFFFFFFFFFFF AND PUSH20 0xFFFFFFFFFFFFFFFFFFFFFFFFFFFFFFFFFFFFFFFF AND EQ PUSH2 0x517 JUMPI PUSH1 0x40 MLOAD PUSH32 0x8C379A000000000000000000000000000000000000000000000000000000000 DUP2 MSTORE PUSH1 0x4 ADD PUSH2 0x50E SWAP1 PUSH2 0xC33 JUMP JUMPDEST PUSH1 0x40 MLOAD DUP1 SWAP2 SUB SWAP1 REVERT JUMPDEST PUSH1 0x1 DUP3 DUP2 SLOAD DUP2 LT PUSH2 0x551 JUMPI PUSH32 0x4E487B7100000000000000000000000000000000000000000000000000000000 PUSH1 0x0 MSTORE PUSH1 0x32 PUSH1 0x4 MSTORE PUSH1 0x24 PUSH1 0x0 REVERT JUMPDEST SWAP1 PUSH1 0x0 MSTORE PUSH1 0x20 PUSH1 0x0 KECCAK256 SWAP1 PUSH1 0x4 MUL ADD PUSH1 0x1 ADD SLOAD CALLVALUE EQ PUSH2 0x56E JUMPI PUSH1 0x0 DUP1 REVERT JUMPDEST PUSH1 0x0 PUSH1 0x4 PUSH1 0x0 DUP5 DUP2 MSTORE PUSH1 0x20 ADD SWAP1 DUP2 MSTORE PUSH1 0x20 ADD PUSH1 0x0 KECCAK256 PUSH1 0x0 SWAP1 SLOAD SWAP1 PUSH2 0x100 EXP SWAP1 DIV PUSH20 0xFFFFFFFFFFFFFFFFFFFFFFFFFFFFFFFFFFFFFFFF AND SWAP1 POP PUSH1 0x0 PUSH1 0x1 DUP5 DUP2 SLOAD DUP2 LT PUSH2 0x5E2 JUMPI PUSH32 0x4E487B7100000000000000000000000000000000000000000000000000000000 PUSH1 0x0 MSTORE PUSH1 0x32 PUSH1 0x4 MSTORE PUSH1 0x24 PUSH1 0x0 REVERT JUMPDEST SWAP1 PUSH1 0x0 MSTORE PUSH1 0x20 PUSH1 0x0 KECCAK256 SWAP1 PUSH1 0x4 MUL ADD SWAP1 POP PUSH1 0x0 DUP2 PUSH1 0x3 ADD PUSH1 0x0 PUSH2 0x100 EXP DUP2 SLOAD DUP2 PUSH1 0xFF MUL NOT AND SWAP1 DUP4 ISZERO ISZERO MUL OR SWAP1 SSTORE POP CALLER PUSH1 0x4 PUSH1 0x0 DUP7 DUP2 MSTORE PUSH1 0x20 ADD SWAP1 DUP2 MSTORE PUSH1 0x20 ADD PUSH1 0x0 KECCAK256 PUSH1 0x0 PUSH2 0x100 EXP DUP2 SLOAD DUP2 PUSH20 0xFFFFFFFFFFFFFFFFFFFFFFFFFFFFFFFFFFFFFFFF MUL NOT AND SWAP1 DUP4 PUSH20 0xFFFFFFFFFFFFFFFFFFFFFFFFFFFFFFFFFFFFFFFF AND MUL OR SWAP1 SSTORE POP PUSH1 0x5 PUSH1 0x0 DUP4 PUSH20 0xFFFFFFFFFFFFFFFFFFFFFFFFFFFFFFFFFFFFFFFF AND PUSH20 0xFFFFFFFFFFFFFFFFFFFFFFFFFFFFFFFFFFFFFFFF AND DUP2 MSTORE PUSH1 0x20 ADD SWAP1 DUP2 MSTORE PUSH1 0x20 ADD PUSH1 0x0 KECCAK256 PUSH1 0x0 DUP2 SLOAD DUP1 SWAP3 SWAP2 SWAP1 PUSH2 0x6B1 SWAP1 PUSH2 0xE0B JUMP JUMPDEST SWAP2 SWAP1 POP SSTORE POP PUSH1 0x5 PUSH1 0x0 CALLER PUSH20 0xFFFFFFFFFFFFFFFFFFFFFFFFFFFFFFFFFFFFFFFF AND PUSH20 0xFFFFFFFFFFFFFFFFFFFFFFFFFFFFFFFFFFFFFFFF AND DUP2 MSTORE PUSH1 0x20 ADD SWAP1 DUP2 MSTORE PUSH1 0x20 ADD PUSH1 0x0 KECCAK256 PUSH1 0x0 DUP2 SLOAD DUP1 SWAP3 SWAP2 SWAP1 PUSH2 0x706 SWAP1 PUSH2 0xE35 JUMP JUMPDEST SWAP2 SWAP1 POP SSTORE POP PUSH1 0x0 DUP1 PUSH2 0x71A CALLVALUE PUSH1 0x3 SLOAD PUSH2 0xA50 JUMP JUMPDEST DUP1 SWAP3 POP DUP2 SWAP4 POP POP POP PUSH1 0x0 DUP1 SLOAD SWAP1 PUSH2 0x100 EXP SWAP1 DIV PUSH20 0xFFFFFFFFFFFFFFFFFFFFFFFFFFFFFFFFFFFFFFFF AND PUSH20 0xFFFFFFFFFFFFFFFFFFFFFFFFFFFFFFFFFFFFFFFF AND PUSH2 0x8FC DUP4 SWAP1 DUP2 ISZERO MUL SWAP1 PUSH1 0x40 MLOAD PUSH1 0x0 PUSH1 0x40 MLOAD DUP1 DUP4 SUB DUP2 DUP6 DUP9 DUP9 CALL SWAP4 POP POP POP POP ISZERO DUP1 ISZERO PUSH2 0x788 JUMPI RETURNDATASIZE PUSH1 0x0 DUP1 RETURNDATACOPY RETURNDATASIZE PUSH1 0x0 REVERT JUMPDEST POP DUP4 PUSH20 0xFFFFFFFFFFFFFFFFFFFFFFFFFFFFFFFFFFFFFFFF AND PUSH2 0x8FC DUP3 SWAP1 DUP2 ISZERO MUL SWAP1 PUSH1 0x40 MLOAD PUSH1 0x0 PUSH1 0x40 MLOAD DUP1 DUP4 SUB DUP2 DUP6 DUP9 DUP9 CALL SWAP4 POP POP POP POP ISZERO DUP1 ISZERO PUSH2 0x7CF JUMPI RETURNDATASIZE PUSH1 0x0 DUP1 RETURNDATACOPY RETURNDATASIZE PUSH1 0x0 REVERT JUMPDEST POP POP POP POP POP POP POP JUMP JUMPDEST POP POP JUMP JUMPDEST PUSH1 0x0 DUP1 DUP4 GT PUSH2 0x820 JUMPI PUSH1 0x40 MLOAD PUSH32 0x8C379A000000000000000000000000000000000000000000000000000000000 DUP2 MSTORE PUSH1 0x4 ADD PUSH2 0x817 SWAP1 PUSH2 0xC73 JUMP JUMPDEST PUSH1 0x40 MLOAD DUP1 SWAP2 SUB SWAP1 REVERT JUMPDEST PUSH1 0x0 PUSH1 0x1 DUP1 SLOAD SWAP1 POP SWAP1 POP PUSH1 0x40 MLOAD DUP1 PUSH1 0x80 ADD PUSH1 0x40 MSTORE DUP1 DUP3 DUP2 MSTORE PUSH1 0x20 ADD DUP6 DUP2 MSTORE PUSH1 0x20 ADD DUP5 DUP2 MSTORE PUSH1 0x20 ADD PUSH1 0x1 ISZERO ISZERO DUP2 MSTORE POP PUSH1 0x1 DUP3 DUP2 SLOAD DUP2 LT PUSH2 0x888 JUMPI PUSH32 0x4E487B7100000000000000000000000000000000000000000000000000000000 PUSH1 0x0 MSTORE PUSH1 0x32 PUSH1 0x4 MSTORE PUSH1 0x24 PUSH1 0x0 REVERT JUMPDEST SWAP1 PUSH1 0x0 MSTORE PUSH1 0x20 PUSH1 0x0 KECCAK256 SWAP1 PUSH1 0x4 MUL ADD PUSH1 0x0 DUP3 ADD MLOAD DUP2 PUSH1 0x0 ADD SSTORE PUSH1 0x20 DUP3 ADD MLOAD DUP2 PUSH1 0x1 ADD SSTORE PUSH1 0x40 DUP3 ADD MLOAD DUP2 PUSH1 0x2 ADD SSTORE PUSH1 0x60 DUP3 ADD MLOAD DUP2 PUSH1 0x3 ADD PUSH1 0x0 PUSH2 0x100 EXP DUP2 SLOAD DUP2 PUSH1 0xFF MUL NOT AND SWAP1 DUP4 ISZERO ISZERO MUL OR SWAP1 SSTORE POP SWAP1 POP POP PUSH1 0x2 PUSH1 0x0 DUP2 SLOAD DUP1 SWAP3 SWAP2 SWAP1 PUSH2 0x8EA SWAP1 PUSH2 0xE35 JUMP JUMPDEST SWAP2 SWAP1 POP SSTORE POP CALLER PUSH1 0x4 PUSH1 0x0 DUP4 DUP2 MSTORE PUSH1 0x20 ADD SWAP1 DUP2 MSTORE PUSH1 0x20 ADD PUSH1 0x0 KECCAK256 PUSH1 0x0 PUSH2 0x100 EXP DUP2 SLOAD DUP2 PUSH20 0xFFFFFFFFFFFFFFFFFFFFFFFFFFFFFFFFFFFFFFFF MUL NOT AND SWAP1 DUP4 PUSH20 0xFFFFFFFFFFFFFFFFFFFFFFFFFFFFFFFFFFFFFFFF AND MUL OR SWAP1 SSTORE POP PUSH1 0x5 PUSH1 0x0 CALLER PUSH20 0xFFFFFFFFFFFFFFFFFFFFFFFFFFFFFFFFFFFFFFFF AND PUSH20 0xFFFFFFFFFFFFFFFFFFFFFFFFFFFFFFFFFFFFFFFF AND DUP2 MSTORE PUSH1 0x20 ADD SWAP1 DUP2 MSTORE PUSH1 0x20 ADD PUSH1 0x0 KECCAK256 PUSH1 0x0 DUP2 SLOAD DUP1 SWAP3 SWAP2 SWAP1 PUSH2 0x991 SWAP1 PUSH2 0xE35 JUMP JUMPDEST SWAP2 SWAP1 POP SSTORE POP PUSH1 0x6 PUSH1 0x0 DUP5 DUP2 MSTORE PUSH1 0x20 ADD SWAP1 DUP2 MSTORE PUSH1 0x20 ADD PUSH1 0x0 KECCAK256 PUSH1 0x0 DUP2 SLOAD DUP1 SWAP3 SWAP2 SWAP1 PUSH2 0x9BA SWAP1 PUSH2 0xE35 JUMP JUMPDEST SWAP2 SWAP1 POP SSTORE POP DUP1 SWAP2 POP POP SWAP3 SWAP2 POP POP JUMP JUMPDEST PUSH1 0x1 DUP2 DUP2 SLOAD DUP2 LT PUSH2 0x9D9 JUMPI PUSH1 0x0 DUP1 REVERT JUMPDEST SWAP1 PUSH1 0x0 MSTORE PUSH1 0x20 PUSH1 0x0 KECCAK256 SWAP1 PUSH1 0x4 MUL ADD PUSH1 0x0 SWAP2 POP SWAP1 POP DUP1 PUSH1 0x0 ADD SLOAD SWAP1 DUP1 PUSH1 0x1 ADD SLOAD SWAP1 DUP1 PUSH1 0x2 ADD SLOAD SWAP1 DUP1 PUSH1 0x3 ADD PUSH1 0x0 SWAP1 SLOAD SWAP1 PUSH2 0x100 EXP SWAP1 DIV PUSH1 0xFF AND SWAP1 POP DUP5 JUMP JUMPDEST PUSH1 0x5 PUSH1 0x20 MSTORE DUP1 PUSH1 0x0 MSTORE PUSH1 0x40 PUSH1 0x0 KECCAK256 PUSH1 0x0 SWAP2 POP SWAP1 POP SLOAD DUP2 JUMP JUMPDEST PUSH1 0x6 PUSH1 0x20 MSTORE DUP1 PUSH1 0x0 MSTORE PUSH1 0x40 PUSH1 0x0 KECCAK256 PUSH1 0x0 SWAP2 POP SWAP1 POP SLOAD DUP2 JUMP JUMPDEST PUSH1 0x0 PUSH1 0x3 SLOAD SWAP1 POP SWAP1 JUMP JUMPDEST PUSH1 0x0 DUP1 PUSH1 0x0 PUSH1 0x64 DUP6 DUP6 PUSH2 0xA63 SWAP2 SWAP1 PUSH2 0xD35 JUMP JUMPDEST PUSH2 0xA6D SWAP2 SWAP1 PUSH2 0xD04 JUMP JUMPDEST SWAP1 POP PUSH1 0x0 DUP2 DUP7 PUSH2 0xA7D SWAP2 SWAP1 PUSH2 0xD8F JUMP JUMPDEST SWAP1 POP DUP2 DUP2 SWAP4 POP SWAP4 POP POP POP SWAP3 POP SWAP3 SWAP1 POP JUMP JUMPDEST PUSH1 0x0 DUP2 CALLDATALOAD SWAP1 POP PUSH2 0xA9D DUP2 PUSH2 0xF7D JUMP JUMPDEST SWAP3 SWAP2 POP POP JUMP JUMPDEST PUSH1 0x0 DUP2 CALLDATALOAD SWAP1 POP PUSH2 0xAB2 DUP2 PUSH2 0xF94 JUMP JUMPDEST SWAP3 SWAP2 POP POP JUMP JUMPDEST PUSH1 0x0 PUSH1 0x20 DUP3 DUP5 SUB SLT ISZERO PUSH2 0xACA JUMPI PUSH1 0x0 DUP1 REVERT JUMPDEST PUSH1 0x0 PUSH2 0xAD8 DUP5 DUP3 DUP6 ADD PUSH2 0xA8E JUMP JUMPDEST SWAP2 POP POP SWAP3 SWAP2 POP POP JUMP JUMPDEST PUSH1 0x0 DUP1 PUSH1 0x40 DUP4 DUP6 SUB SLT ISZERO PUSH2 0xAF4 JUMPI PUSH1 0x0 DUP1 REVERT JUMPDEST PUSH1 0x0 PUSH2 0xB02 DUP6 DUP3 DUP7 ADD PUSH2 0xA8E JUMP JUMPDEST SWAP3 POP POP PUSH1 0x20 PUSH2 0xB13 DUP6 DUP3 DUP7 ADD PUSH2 0xAA3 JUMP JUMPDEST SWAP2 POP POP SWAP3 POP SWAP3 SWAP1 POP JUMP JUMPDEST PUSH1 0x0 PUSH1 0x20 DUP3 DUP5 SUB SLT ISZERO PUSH2 0xB2F JUMPI PUSH1 0x0 DUP1 REVERT JUMPDEST PUSH1 0x0 PUSH2 0xB3D DUP5 DUP3 DUP6 ADD PUSH2 0xAA3 JUMP JUMPDEST SWAP2 POP POP SWAP3 SWAP2 POP POP JUMP JUMPDEST PUSH1 0x0 DUP1 PUSH1 0x40 DUP4 DUP6 SUB SLT ISZERO PUSH2 0xB59 JUMPI PUSH1 0x0 DUP1 REVERT JUMPDEST PUSH1 0x0 PUSH2 0xB67 DUP6 DUP3 DUP7 ADD PUSH2 0xAA3 JUMP JUMPDEST SWAP3 POP POP PUSH1 0x20 PUSH2 0xB78 DUP6 DUP3 DUP7 ADD PUSH2 0xAA3 JUMP JUMPDEST SWAP2 POP POP SWAP3 POP SWAP3 SWAP1 POP JUMP JUMPDEST PUSH2 0xB8B DUP2 PUSH2 0xDC3 JUMP JUMPDEST DUP3 MSTORE POP POP JUMP JUMPDEST PUSH2 0xB9A DUP2 PUSH2 0xDD5 JUMP JUMPDEST DUP3 MSTORE POP POP JUMP JUMPDEST PUSH1 0x0 PUSH2 0xBAD PUSH1 0x1D DUP4 PUSH2 0xCF3 JUMP JUMPDEST SWAP2 POP PUSH2 0xBB8 DUP3 PUSH2 0xEDC JUMP JUMPDEST PUSH1 0x20 DUP3 ADD SWAP1 POP SWAP2 SWAP1 POP JUMP JUMPDEST PUSH1 0x0 PUSH2 0xBD0 PUSH1 0x21 DUP4 PUSH2 0xCF3 JUMP JUMPDEST SWAP2 POP PUSH2 0xBDB DUP3 PUSH2 0xF05 JUMP JUMPDEST PUSH1 0x40 DUP3 ADD SWAP1 POP SWAP2 SWAP1 POP JUMP JUMPDEST PUSH1 0x0 PUSH2 0xBF3 PUSH1 0x1A DUP4 PUSH2 0xCF3 JUMP JUMPDEST SWAP2 POP PUSH2 0xBFE DUP3 PUSH2 0xF54 JUMP JUMPDEST PUSH1 0x20 DUP3 ADD SWAP1 POP SWAP2 SWAP1 POP JUMP JUMPDEST PUSH2 0xC12 DUP2 PUSH2 0xE01 JUMP JUMPDEST DUP3 MSTORE POP POP JUMP JUMPDEST PUSH1 0x0 PUSH1 0x20 DUP3 ADD SWAP1 POP PUSH2 0xC2D PUSH1 0x0 DUP4 ADD DUP5 PUSH2 0xB82 JUMP JUMPDEST SWAP3 SWAP2 POP POP JUMP JUMPDEST PUSH1 0x0 PUSH1 0x20 DUP3 ADD SWAP1 POP DUP2 DUP2 SUB PUSH1 0x0 DUP4 ADD MSTORE PUSH2 0xC4C DUP2 PUSH2 0xBA0 JUMP JUMPDEST SWAP1 POP SWAP2 SWAP1 POP JUMP JUMPDEST PUSH1 0x0 PUSH1 0x20 DUP3 ADD SWAP1 POP DUP2 DUP2 SUB PUSH1 0x0 DUP4 ADD MSTORE PUSH2 0xC6C DUP2 PUSH2 0xBC3 JUMP JUMPDEST SWAP1 POP SWAP2 SWAP1 POP JUMP JUMPDEST PUSH1 0x0 PUSH1 0x20 DUP3 ADD SWAP1 POP DUP2 DUP2 SUB PUSH1 0x0 DUP4 ADD MSTORE PUSH2 0xC8C DUP2 PUSH2 0xBE6 JUMP JUMPDEST SWAP1 POP SWAP2 SWAP1 POP JUMP JUMPDEST PUSH1 0x0 PUSH1 0x20 DUP3 ADD SWAP1 POP PUSH2 0xCA8 PUSH1 0x0 DUP4 ADD DUP5 PUSH2 0xC09 JUMP JUMPDEST SWAP3 SWAP2 POP POP JUMP JUMPDEST PUSH1 0x0 PUSH1 0x80 DUP3 ADD SWAP1 POP PUSH2 0xCC3 PUSH1 0x0 DUP4 ADD DUP8 PUSH2 0xC09 JUMP JUMPDEST PUSH2 0xCD0 PUSH1 0x20 DUP4 ADD DUP7 PUSH2 0xC09 JUMP JUMPDEST PUSH2 0xCDD PUSH1 0x40 DUP4 ADD DUP6 PUSH2 0xC09 JUMP JUMPDEST PUSH2 0xCEA PUSH1 0x60 DUP4 ADD DUP5 PUSH2 0xB91 JUMP JUMPDEST SWAP6 SWAP5 POP POP POP POP POP JUMP JUMPDEST PUSH1 0x0 DUP3 DUP3 MSTORE PUSH1 0x20 DUP3 ADD SWAP1 POP SWAP3 SWAP2 POP POP JUMP JUMPDEST PUSH1 0x0 PUSH2 0xD0F DUP3 PUSH2 0xE01 JUMP JUMPDEST SWAP2 POP PUSH2 0xD1A DUP4 PUSH2 0xE01 JUMP JUMPDEST SWAP3 POP DUP3 PUSH2 0xD2A JUMPI PUSH2 0xD29 PUSH2 0xEAD JUMP JUMPDEST JUMPDEST DUP3 DUP3 DIV SWAP1 POP SWAP3 SWAP2 POP POP JUMP JUMPDEST PUSH1 0x0 PUSH2 0xD40 DUP3 PUSH2 0xE01 JUMP JUMPDEST SWAP2 POP PUSH2 0xD4B DUP4 PUSH2 0xE01 JUMP JUMPDEST SWAP3 POP DUP2 PUSH32 0xFFFFFFFFFFFFFFFFFFFFFFFFFFFFFFFFFFFFFFFFFFFFFFFFFFFFFFFFFFFFFFFF DIV DUP4 GT DUP3 ISZERO ISZERO AND ISZERO PUSH2 0xD84 JUMPI PUSH2 0xD83 PUSH2 0xE7E JUMP JUMPDEST JUMPDEST DUP3 DUP3 MUL SWAP1 POP SWAP3 SWAP2 POP POP JUMP JUMPDEST PUSH1 0x0 PUSH2 0xD9A DUP3 PUSH2 0xE01 JUMP JUMPDEST SWAP2 POP PUSH2 0xDA5 DUP4 PUSH2 0xE01 JUMP JUMPDEST SWAP3 POP DUP3 DUP3 LT ISZERO PUSH2 0xDB8 JUMPI PUSH2 0xDB7 PUSH2 0xE7E JUMP JUMPDEST JUMPDEST DUP3 DUP3 SUB SWAP1 POP SWAP3 SWAP2 POP POP JUMP JUMPDEST PUSH1 0x0 PUSH2 0xDCE DUP3 PUSH2 0xDE1 JUMP JUMPDEST SWAP1 POP SWAP2 SWAP1 POP JUMP JUMPDEST PUSH1 0x0 DUP2 ISZERO ISZERO SWAP1 POP SWAP2 SWAP1 POP JUMP JUMPDEST PUSH1 0x0 PUSH20 0xFFFFFFFFFFFFFFFFFFFFFFFFFFFFFFFFFFFFFFFF DUP3 AND SWAP1 POP SWAP2 SWAP1 POP JUMP JUMPDEST PUSH1 0x0 DUP2 SWAP1 POP SWAP2 SWAP1 POP JUMP JUMPDEST PUSH1 0x0 PUSH2 0xE16 DUP3 PUSH2 0xE01 JUMP JUMPDEST SWAP2 POP PUSH1 0x0 DUP3 EQ ISZERO PUSH2 0xE2A JUMPI PUSH2 0xE29 PUSH2 0xE7E JUMP JUMPDEST JUMPDEST PUSH1 0x1 DUP3 SUB SWAP1 POP SWAP2 SWAP1 POP JUMP JUMPDEST PUSH1 0x0 PUSH2 0xE40 DUP3 PUSH2 0xE01 JUMP JUMPDEST SWAP2 POP PUSH32 0xFFFFFFFFFFFFFFFFFFFFFFFFFFFFFFFFFFFFFFFFFFFFFFFFFFFFFFFFFFFFFFFF DUP3 EQ ISZERO PUSH2 0xE73 JUMPI PUSH2 0xE72 PUSH2 0xE7E JUMP JUMPDEST JUMPDEST PUSH1 0x1 DUP3 ADD SWAP1 POP SWAP2 SWAP1 POP JUMP JUMPDEST PUSH32 0x4E487B7100000000000000000000000000000000000000000000000000000000 PUSH1 0x0 MSTORE PUSH1 0x11 PUSH1 0x4 MSTORE PUSH1 0x24 PUSH1 0x0 REVERT JUMPDEST PUSH32 0x4E487B7100000000000000000000000000000000000000000000000000000000 PUSH1 0x0 MSTORE PUSH1 0x12 PUSH1 0x4 MSTORE PUSH1 0x24 PUSH1 0x0 REVERT JUMPDEST PUSH32 0x4F6E6C79206974656D2773206F776E65722063616E20646F2074686174000000 PUSH1 0x0 DUP3 ADD MSTORE POP JUMP JUMPDEST PUSH32 0x4F6E6C7920636F6E74726163742773206F776E65722063616E20646F20746861 PUSH1 0x0 DUP3 ADD MSTORE PUSH32 0x7400000000000000000000000000000000000000000000000000000000000000 PUSH1 0x20 DUP3 ADD MSTORE POP JUMP JUMPDEST PUSH32 0x50726963652063616E6E6F7420626520657175616C20746F2030000000000000 PUSH1 0x0 DUP3 ADD MSTORE POP JUMP JUMPDEST PUSH2 0xF86 DUP2 PUSH2 0xDC3 JUMP JUMPDEST DUP2 EQ PUSH2 0xF91 JUMPI PUSH1 0x0 DUP1 REVERT JUMPDEST POP JUMP JUMPDEST PUSH2 0xF9D DUP2 PUSH2 0xE01 JUMP JUMPDEST DUP2 EQ PUSH2 0xFA8 JUMPI PUSH1 0x0 DUP1 REVERT JUMPDEST POP JUMP INVALID LOG2 PUSH5 0x6970667358 0x22 SLT KECCAK256 0xC3 0xDE DUP5 DELEGATECALL 0xFC 0x49 SWAP16 0x5E 0xD DUP13 0xF9 0xCF SWAP8 LT SWAP16 0xBE PUSH8 0x2369F8C59733B766 POP PUSH2 0x7A94 SWAP3 CODECOPY 0xFB PUSH5 0x736F6C6343 STOP ADDMOD ADD STOP CALLER "
				},
				"gasEstimates": {
					"creation": {
						"codeDepositCost": "813000",
						"executionCost": "21717",
						"totalCost": "834717"
					},
					"external": {
						"balanceOf(address)": "1630",
						"createItem(uint256,uint256)": "infinite",
						"getFeesPercentage()": "1247",
						"itemToOwner(uint256)": "1540",
						"items(uint256)": "infinite",
						"itemsCatIdCount(uint256)": "infinite",
						"itemsOwnerCount(address)": "1580",
						"itemsToSellCount()": "1174",
						"modifyFeesPercentage(uint256)": "21310",
						"ownerOf(uint256)": "1632",
						"sellItem(uint256)": "infinite",
						"transfer(address,uint256)": "628"
					},
					"internal": {
						"getFees(uint256,uint256)": "infinite"
					}
				},
				"methodIdentifiers": {
					"balanceOf(address)": "70a08231",
					"createItem(uint256,uint256)": "adae08dd",
					"getFeesPercentage()": "ea0ff14a",
					"itemToOwner(uint256)": "1a4d96cd",
					"items(uint256)": "bfb231d2",
					"itemsCatIdCount(uint256)": "d48644bd",
					"itemsOwnerCount(address)": "c3921895",
					"itemsToSellCount()": "4c389e65",
					"modifyFeesPercentage(uint256)": "29de6246",
					"ownerOf(uint256)": "6352211e",
					"sellItem(uint256)": "91b6be9a",
					"transfer(address,uint256)": "a9059cbb"
				}
			},
			"storageLayout": {
				"storage": [
					{
						"astId": 38,
						"contract": "contracts/GeekNft.sol:GeekNft",
						"label": "owner",
						"offset": 0,
						"slot": "0",
						"type": "t_address"
					},
					{
						"astId": 51,
						"contract": "contracts/GeekNft.sol:GeekNft",
						"label": "items",
						"offset": 0,
						"slot": "1",
						"type": "t_array(t_struct(Item)47_storage)dyn_storage"
					},
					{
						"astId": 53,
						"contract": "contracts/GeekNft.sol:GeekNft",
						"label": "itemsToSellCount",
						"offset": 0,
						"slot": "2",
						"type": "t_uint256"
					},
					{
						"astId": 55,
						"contract": "contracts/GeekNft.sol:GeekNft",
						"label": "feesPercentage",
						"offset": 0,
						"slot": "3",
						"type": "t_uint256"
					},
					{
						"astId": 59,
						"contract": "contracts/GeekNft.sol:GeekNft",
						"label": "itemToOwner",
						"offset": 0,
						"slot": "4",
						"type": "t_mapping(t_uint256,t_address)"
					},
					{
						"astId": 63,
						"contract": "contracts/GeekNft.sol:GeekNft",
						"label": "itemsOwnerCount",
						"offset": 0,
						"slot": "5",
						"type": "t_mapping(t_address,t_uint256)"
					},
					{
						"astId": 67,
						"contract": "contracts/GeekNft.sol:GeekNft",
						"label": "itemsCatIdCount",
						"offset": 0,
						"slot": "6",
						"type": "t_mapping(t_uint256,t_uint256)"
					}
				],
				"types": {
					"t_address": {
						"encoding": "inplace",
						"label": "address",
						"numberOfBytes": "20"
					},
					"t_array(t_struct(Item)47_storage)dyn_storage": {
						"base": "t_struct(Item)47_storage",
						"encoding": "dynamic_array",
						"label": "struct GeekNft.Item[]",
						"numberOfBytes": "32"
					},
					"t_bool": {
						"encoding": "inplace",
						"label": "bool",
						"numberOfBytes": "1"
					},
					"t_mapping(t_address,t_uint256)": {
						"encoding": "mapping",
						"key": "t_address",
						"label": "mapping(address => uint256)",
						"numberOfBytes": "32",
						"value": "t_uint256"
					},
					"t_mapping(t_uint256,t_address)": {
						"encoding": "mapping",
						"key": "t_uint256",
						"label": "mapping(uint256 => address)",
						"numberOfBytes": "32",
						"value": "t_address"
					},
					"t_mapping(t_uint256,t_uint256)": {
						"encoding": "mapping",
						"key": "t_uint256",
						"label": "mapping(uint256 => uint256)",
						"numberOfBytes": "32",
						"value": "t_uint256"
					},
					"t_struct(Item)47_storage": {
						"encoding": "inplace",
						"label": "struct GeekNft.Item",
						"members": [
							{
								"astId": 40,
								"contract": "contracts/GeekNft.sol:GeekNft",
								"label": "tokenId",
								"offset": 0,
								"slot": "0",
								"type": "t_uint256"
							},
							{
								"astId": 42,
								"contract": "contracts/GeekNft.sol:GeekNft",
								"label": "price",
								"offset": 0,
								"slot": "1",
								"type": "t_uint256"
							},
							{
								"astId": 44,
								"contract": "contracts/GeekNft.sol:GeekNft",
								"label": "catId",
								"offset": 0,
								"slot": "2",
								"type": "t_uint256"
							},
							{
								"astId": 46,
								"contract": "contracts/GeekNft.sol:GeekNft",
								"label": "toSell",
								"offset": 0,
								"slot": "3",
								"type": "t_bool"
							}
						],
						"numberOfBytes": "128"
					},
					"t_uint256": {
						"encoding": "inplace",
						"label": "uint256",
						"numberOfBytes": "32"
					}
				}
			},
			"userdoc": {
				"kind": "user",
				"methods": {},
				"version": 1
			}
		}
	}
}