{
	"contracts/GeekNftMarketPlace.sol": {
		"GeekNftMarketPlace": {
			"abi": [
				{
					"inputs": [],
					"stateMutability": "nonpayable",
					"type": "constructor"
				},
				{
					"anonymous": false,
					"inputs": [
						{
							"indexed": true,
							"internalType": "address",
							"name": "_from",
							"type": "address"
						},
						{
							"indexed": true,
							"internalType": "address",
							"name": "_to",
							"type": "address"
						},
						{
							"indexed": false,
							"internalType": "uint256",
							"name": "_tokenId",
							"type": "uint256"
						}
					],
					"name": "Transfer",
					"type": "event"
				},
				{
					"inputs": [
						{
							"internalType": "uint256",
							"name": "_tokenId",
							"type": "uint256"
						}
					],
					"name": "addItemToSell",
					"outputs": [],
					"stateMutability": "payable",
					"type": "function"
				},
				{
					"inputs": [
						{
							"internalType": "address",
							"name": "_owner",
							"type": "address"
						}
					],
					"name": "balanceOf",
					"outputs": [
						{
							"internalType": "uint256",
							"name": "",
							"type": "uint256"
						}
					],
					"stateMutability": "view",
					"type": "function"
				},
				{
					"inputs": [
						{
							"internalType": "uint256",
							"name": "_dataId",
							"type": "uint256"
						}
					],
					"name": "fetchItemByDataId",
					"outputs": [
						{
							"components": [
								{
									"internalType": "uint256",
									"name": "dataId",
									"type": "uint256"
								},
								{
									"internalType": "uint256",
									"name": "tokenId",
									"type": "uint256"
								},
								{
									"internalType": "uint256",
									"name": "price",
									"type": "uint256"
								},
								{
									"internalType": "bool",
									"name": "toSell",
									"type": "bool"
								}
							],
							"internalType": "struct GeekNftMarketPlace.Item",
							"name": "",
							"type": "tuple"
						}
					],
					"stateMutability": "view",
					"type": "function"
				},
				{
					"inputs": [],
					"name": "fetchItemsByCreator",
					"outputs": [
						{
							"components": [
								{
									"internalType": "uint256",
									"name": "dataId",
									"type": "uint256"
								},
								{
									"internalType": "uint256",
									"name": "tokenId",
									"type": "uint256"
								},
								{
									"internalType": "uint256",
									"name": "price",
									"type": "uint256"
								},
								{
									"internalType": "bool",
									"name": "toSell",
									"type": "bool"
								}
							],
							"internalType": "struct GeekNftMarketPlace.Item[]",
							"name": "",
							"type": "tuple[]"
						}
					],
					"stateMutability": "view",
					"type": "function"
				},
				{
					"inputs": [],
					"name": "fetchItemsByOwner",
					"outputs": [
						{
							"components": [
								{
									"internalType": "uint256",
									"name": "dataId",
									"type": "uint256"
								},
								{
									"internalType": "uint256",
									"name": "tokenId",
									"type": "uint256"
								},
								{
									"internalType": "uint256",
									"name": "price",
									"type": "uint256"
								},
								{
									"internalType": "bool",
									"name": "toSell",
									"type": "bool"
								}
							],
							"internalType": "struct GeekNftMarketPlace.Item[]",
							"name": "",
							"type": "tuple[]"
						}
					],
					"stateMutability": "view",
					"type": "function"
				},
				{
					"inputs": [],
					"name": "fetchItemsToSell",
					"outputs": [
						{
							"components": [
								{
									"internalType": "uint256",
									"name": "dataId",
									"type": "uint256"
								},
								{
									"internalType": "uint256",
									"name": "tokenId",
									"type": "uint256"
								},
								{
									"internalType": "uint256",
									"name": "price",
									"type": "uint256"
								},
								{
									"internalType": "bool",
									"name": "toSell",
									"type": "bool"
								}
							],
							"internalType": "struct GeekNftMarketPlace.Item[]",
							"name": "",
							"type": "tuple[]"
						}
					],
					"stateMutability": "view",
					"type": "function"
				},
				{
					"inputs": [
						{
							"internalType": "uint256",
							"name": "_catId",
							"type": "uint256"
						}
					],
					"name": "fetchItemsToSellByCatId",
					"outputs": [
						{
							"components": [
								{
									"internalType": "uint256",
									"name": "dataId",
									"type": "uint256"
								},
								{
									"internalType": "uint256",
									"name": "tokenId",
									"type": "uint256"
								},
								{
									"internalType": "uint256",
									"name": "price",
									"type": "uint256"
								},
								{
									"internalType": "bool",
									"name": "toSell",
									"type": "bool"
								}
							],
							"internalType": "struct GeekNftMarketPlace.Item[]",
							"name": "",
							"type": "tuple[]"
						}
					],
					"stateMutability": "view",
					"type": "function"
				},
				{
					"inputs": [],
					"name": "getCreateItemFees",
					"outputs": [
						{
							"internalType": "uint256",
							"name": "",
							"type": "uint256"
						}
					],
					"stateMutability": "view",
					"type": "function"
				},
				{
					"inputs": [],
					"name": "getCreatorPercentage",
					"outputs": [
						{
							"internalType": "uint256",
							"name": "",
							"type": "uint256"
						}
					],
					"stateMutability": "view",
					"type": "function"
				},
				{
					"inputs": [
						{
							"internalType": "uint256",
							"name": "_price",
							"type": "uint256"
						},
						{
							"internalType": "uint256",
							"name": "_catId",
							"type": "uint256"
						},
						{
							"internalType": "uint256",
							"name": "_dataId",
							"type": "uint256"
						}
					],
					"name": "mint",
					"outputs": [
						{
							"internalType": "uint256",
							"name": "",
							"type": "uint256"
						}
					],
					"stateMutability": "payable",
					"type": "function"
				},
				{
					"inputs": [
						{
							"internalType": "uint256",
							"name": "_tokenId",
							"type": "uint256"
						}
					],
					"name": "ownerOf",
					"outputs": [
						{
							"internalType": "address",
							"name": "",
							"type": "address"
						}
					],
					"stateMutability": "view",
					"type": "function"
				},
				{
					"inputs": [
						{
							"internalType": "uint256",
							"name": "_tokenId",
							"type": "uint256"
						}
					],
					"name": "removeItemToSell",
					"outputs": [],
					"stateMutability": "nonpayable",
					"type": "function"
				},
				{
					"inputs": [
						{
							"internalType": "uint256",
							"name": "_tokenId",
							"type": "uint256"
						}
					],
					"name": "sellItem",
					"outputs": [],
					"stateMutability": "payable",
					"type": "function"
				},
				{
					"inputs": [
						{
							"internalType": "uint256",
							"name": "_newFees",
							"type": "uint256"
						}
					],
					"name": "updateCreateItemFees",
					"outputs": [],
					"stateMutability": "nonpayable",
					"type": "function"
				},
				{
					"inputs": [
						{
							"internalType": "uint256",
							"name": "_newPercentage",
							"type": "uint256"
						}
					],
					"name": "updateCreatorPercentage",
					"outputs": [],
					"stateMutability": "nonpayable",
					"type": "function"
				}
			],
			"devdoc": {
				"kind": "dev",
				"methods": {},
				"version": 1
			},
			"evm": {
				"assembly": "    /* \"contracts/GeekNftMarketPlace.sol\":85:6754  contract GeekNftMarketPlace {... */\n  mstore(0x40, 0x80)\n    /* \"contracts/GeekNftMarketPlace.sol\":429:442  0.00025 ether */\n  0xe35fa931a000\n    /* \"contracts/GeekNftMarketPlace.sol\":407:442  uint createItemFees = 0.00025 ether */\n  0x05\n  sstore\n    /* \"contracts/GeekNftMarketPlace.sol\":473:474  5 */\n  0x05\n    /* \"contracts/GeekNftMarketPlace.sol\":448:474  uint creatorPercentage = 5 */\n  0x06\n  sstore\n    /* \"contracts/GeekNftMarketPlace.sol\":746:851  constructor() {... */\n  callvalue\n  dup1\n  iszero\n  tag_1\n  jumpi\n  0x00\n  dup1\n  revert\ntag_1:\n  pop\n    /* \"contracts/GeekNftMarketPlace.sol\":778:788  msg.sender */\n  caller\n    /* \"contracts/GeekNftMarketPlace.sol\":770:775  owner */\n  0x02\n  0x00\n    /* \"contracts/GeekNftMarketPlace.sol\":770:788  owner = msg.sender */\n  0x0100\n  exp\n  dup2\n  sload\n  dup2\n  0xffffffffffffffffffffffffffffffffffffffff\n  mul\n  not\n  and\n  swap1\n  dup4\n  0xffffffffffffffffffffffffffffffffffffffff\n  and\n  mul\n  or\n  swap1\n  sstore\n  pop\n    /* \"contracts/GeekNftMarketPlace.sol\":798:818  name = \"Geek Tokens\" */\n  mload(0x40)\n  dup1\n  0x40\n  add\n  0x40\n  mstore\n  dup1\n  0x0b\n  dup2\n  mstore\n  0x20\n  add\n  0x4765656b20546f6b656e73000000000000000000000000000000000000000000\n  dup2\n  mstore\n  pop\n    /* \"contracts/GeekNftMarketPlace.sol\":798:802  name */\n  0x00\n    /* \"contracts/GeekNftMarketPlace.sol\":798:818  name = \"Geek Tokens\" */\n  swap1\n  dup1\n  mload\n  swap1\n  0x20\n  add\n  swap1\n  tag_4\n  swap3\n  swap2\n  swap1\n  tag_5\n  jump\t// in\ntag_4:\n  pop\n    /* \"contracts/GeekNftMarketPlace.sol\":828:844  symbol = \"GEEKT\" */\n  mload(0x40)\n  dup1\n  0x40\n  add\n  0x40\n  mstore\n  dup1\n  0x05\n  dup2\n  mstore\n  0x20\n  add\n  0x4745454b54000000000000000000000000000000000000000000000000000000\n  dup2\n  mstore\n  pop\n    /* \"contracts/GeekNftMarketPlace.sol\":828:834  symbol */\n  0x01\n    /* \"contracts/GeekNftMarketPlace.sol\":828:844  symbol = \"GEEKT\" */\n  swap1\n  dup1\n  mload\n  swap1\n  0x20\n  add\n  swap1\n  tag_6\n  swap3\n  swap2\n  swap1\n  tag_5\n  jump\t// in\ntag_6:\n  pop\n    /* \"contracts/GeekNftMarketPlace.sol\":85:6754  contract GeekNftMarketPlace {... */\n  jump(tag_7)\ntag_5:\n  dup3\n  dup1\n  sload\n  tag_8\n  swap1\n  tag_9\n  jump\t// in\ntag_8:\n  swap1\n  0x00\n  mstore\n  keccak256(0x00, 0x20)\n  swap1\n  0x1f\n  add\n  0x20\n  swap1\n  div\n  dup2\n  add\n  swap3\n  dup3\n  tag_11\n  jumpi\n  0x00\n  dup6\n  sstore\n  jump(tag_10)\ntag_11:\n  dup3\n  0x1f\n  lt\n  tag_12\n  jumpi\n  dup1\n  mload\n  not(0xff)\n  and\n  dup4\n  dup1\n  add\n  or\n  dup6\n  sstore\n  jump(tag_10)\ntag_12:\n  dup3\n  dup1\n  add\n  0x01\n  add\n  dup6\n  sstore\n  dup3\n  iszero\n  tag_10\n  jumpi\n  swap2\n  dup3\n  add\ntag_13:\n  dup3\n  dup2\n  gt\n  iszero\n  tag_14\n  jumpi\n  dup3\n  mload\n  dup3\n  sstore\n  swap2\n  0x20\n  add\n  swap2\n  swap1\n  0x01\n  add\n  swap1\n  jump(tag_13)\ntag_14:\ntag_10:\n  pop\n  swap1\n  pop\n  tag_15\n  swap2\n  swap1\n  tag_16\n  jump\t// in\ntag_15:\n  pop\n  swap1\n  jump\t// out\ntag_16:\ntag_17:\n  dup1\n  dup3\n  gt\n  iszero\n  tag_18\n  jumpi\n  0x00\n  dup2\n  0x00\n  swap1\n  sstore\n  pop\n  0x01\n  add\n  jump(tag_17)\ntag_18:\n  pop\n  swap1\n  jump\t// out\n    /* \"#utility.yul\":7:327   */\ntag_9:\n  0x00\n    /* \"#utility.yul\":88:89   */\n  0x02\n    /* \"#utility.yul\":82:86   */\n  dup3\n    /* \"#utility.yul\":78:90   */\n  div\n    /* \"#utility.yul\":68:90   */\n  swap1\n  pop\n    /* \"#utility.yul\":135:136   */\n  0x01\n    /* \"#utility.yul\":129:133   */\n  dup3\n    /* \"#utility.yul\":125:137   */\n  and\n    /* \"#utility.yul\":156:174   */\n  dup1\n    /* \"#utility.yul\":146:148   */\n  tag_21\n  jumpi\n    /* \"#utility.yul\":212:216   */\n  0x7f\n    /* \"#utility.yul\":204:210   */\n  dup3\n    /* \"#utility.yul\":200:217   */\n  and\n    /* \"#utility.yul\":190:217   */\n  swap2\n  pop\n    /* \"#utility.yul\":146:148   */\ntag_21:\n    /* \"#utility.yul\":274:276   */\n  0x20\n    /* \"#utility.yul\":266:272   */\n  dup3\n    /* \"#utility.yul\":263:277   */\n  lt\n    /* \"#utility.yul\":243:261   */\n  dup2\n    /* \"#utility.yul\":240:278   */\n  eq\n    /* \"#utility.yul\":237:239   */\n  iszero\n  tag_22\n  jumpi\n    /* \"#utility.yul\":293:311   */\n  tag_23\n  tag_24\n  jump\t// in\ntag_23:\n    /* \"#utility.yul\":237:239   */\ntag_22:\n    /* \"#utility.yul\":58:327   */\n  pop\n  swap2\n  swap1\n  pop\n  jump\t// out\n    /* \"#utility.yul\":333:513   */\ntag_24:\n    /* \"#utility.yul\":381:458   */\n  0x4e487b7100000000000000000000000000000000000000000000000000000000\n    /* \"#utility.yul\":378:379   */\n  0x00\n    /* \"#utility.yul\":371:459   */\n  mstore\n    /* \"#utility.yul\":478:482   */\n  0x22\n    /* \"#utility.yul\":475:476   */\n  0x04\n    /* \"#utility.yul\":468:483   */\n  mstore\n    /* \"#utility.yul\":502:506   */\n  0x24\n    /* \"#utility.yul\":499:500   */\n  0x00\n    /* \"#utility.yul\":492:507   */\n  revert\n    /* \"contracts/GeekNftMarketPlace.sol\":85:6754  contract GeekNftMarketPlace {... */\ntag_7:\n  dataSize(sub_0)\n  dup1\n  dataOffset(sub_0)\n  0x00\n  codecopy\n  0x00\n  return\nstop\n\nsub_0: assembly {\n        /* \"contracts/GeekNftMarketPlace.sol\":85:6754  contract GeekNftMarketPlace {... */\n      mstore(0x40, 0x80)\n      jumpi(tag_1, lt(calldatasize, 0x04))\n      shr(0xe0, calldataload(0x00))\n      dup1\n      0x6352211e\n      gt\n      tag_17\n      jumpi\n      dup1\n      0xa411d68d\n      gt\n      tag_18\n      jumpi\n      dup1\n      0xa411d68d\n      eq\n      tag_13\n      jumpi\n      dup1\n      0xa4964c33\n      eq\n      tag_14\n      jumpi\n      dup1\n      0xc0f202ef\n      eq\n      tag_15\n      jumpi\n      dup1\n      0xe6e95ea7\n      eq\n      tag_16\n      jumpi\n      jump(tag_1)\n    tag_18:\n      dup1\n      0x6352211e\n      eq\n      tag_9\n      jumpi\n      dup1\n      0x67af7d09\n      eq\n      tag_10\n      jumpi\n      dup1\n      0x70a08231\n      eq\n      tag_11\n      jumpi\n      dup1\n      0x91b6be9a\n      eq\n      tag_12\n      jumpi\n      jump(tag_1)\n    tag_17:\n      dup1\n      0x1b03427c\n      gt\n      tag_19\n      jumpi\n      dup1\n      0x1b03427c\n      eq\n      tag_5\n      jumpi\n      dup1\n      0x406693b2\n      eq\n      tag_6\n      jumpi\n      dup1\n      0x4cad2ffc\n      eq\n      tag_7\n      jumpi\n      dup1\n      0x55474257\n      eq\n      tag_8\n      jumpi\n      jump(tag_1)\n    tag_19:\n      dup1\n      0x02acc94b\n      eq\n      tag_2\n      jumpi\n      dup1\n      0x073e74df\n      eq\n      tag_3\n      jumpi\n      dup1\n      0x160035b1\n      eq\n      tag_4\n      jumpi\n    tag_1:\n      0x00\n      dup1\n      revert\n        /* \"contracts/GeekNftMarketPlace.sol\":1731:2479  function mint(uint _price, uint _catId, uint _dataId) public payable sendCorrectFeesValue returns (uint){... */\n    tag_2:\n      tag_20\n      0x04\n      dup1\n      calldatasize\n      sub\n      dup2\n      add\n      swap1\n      tag_21\n      swap2\n      swap1\n      tag_22\n      jump\t// in\n    tag_21:\n      tag_23\n      jump\t// in\n    tag_20:\n      mload(0x40)\n      tag_24\n      swap2\n      swap1\n      tag_25\n      jump\t// in\n    tag_24:\n      mload(0x40)\n      dup1\n      swap2\n      sub\n      swap1\n      return\n        /* \"contracts/GeekNftMarketPlace.sol\":4879:5246  function fetchItemsToSell() public view returns (Item[] memory){... */\n    tag_3:\n      callvalue\n      dup1\n      iszero\n      tag_26\n      jumpi\n      0x00\n      dup1\n      revert\n    tag_26:\n      pop\n      tag_27\n      tag_28\n      jump\t// in\n    tag_27:\n      mload(0x40)\n      tag_29\n      swap2\n      swap1\n      tag_30\n      jump\t// in\n    tag_29:\n      mload(0x40)\n      dup1\n      swap2\n      sub\n      swap1\n      return\n        /* \"contracts/GeekNftMarketPlace.sol\":1625:1725  function getCreatorPercentage() public view returns (uint) {... */\n    tag_4:\n      callvalue\n      dup1\n      iszero\n      tag_31\n      jumpi\n      0x00\n      dup1\n      revert\n    tag_31:\n      pop\n      tag_32\n      tag_33\n      jump\t// in\n    tag_32:\n      mload(0x40)\n      tag_34\n      swap2\n      swap1\n      tag_25\n      jump\t// in\n    tag_34:\n      mload(0x40)\n      dup1\n      swap2\n      sub\n      swap1\n      return\n        /* \"contracts/GeekNftMarketPlace.sol\":1490:1619  function updateCreatorPercentage(uint _newPercentage) public onlyContractOwner{... */\n    tag_5:\n      callvalue\n      dup1\n      iszero\n      tag_35\n      jumpi\n      0x00\n      dup1\n      revert\n    tag_35:\n      pop\n      tag_36\n      0x04\n      dup1\n      calldatasize\n      sub\n      dup2\n      add\n      swap1\n      tag_37\n      swap2\n      swap1\n      tag_38\n      jump\t// in\n    tag_37:\n      tag_39\n      jump\t// in\n    tag_36:\n      stop\n        /* \"contracts/GeekNftMarketPlace.sol\":6038:6458  function fetchItemsToSellByCatId(uint _catId) public view returns (Item[] memory){... */\n    tag_6:\n      callvalue\n      dup1\n      iszero\n      tag_40\n      jumpi\n      0x00\n      dup1\n      revert\n    tag_40:\n      pop\n      tag_41\n      0x04\n      dup1\n      calldatasize\n      sub\n      dup2\n      add\n      swap1\n      tag_42\n      swap2\n      swap1\n      tag_38\n      jump\t// in\n    tag_42:\n      tag_43\n      jump\t// in\n    tag_41:\n      mload(0x40)\n      tag_44\n      swap2\n      swap1\n      tag_30\n      jump\t// in\n    tag_44:\n      mload(0x40)\n      dup1\n      swap2\n      sub\n      swap1\n      return\n        /* \"contracts/GeekNftMarketPlace.sol\":5252:5636  function fetchItemsByOwner() public view returns (Item[] memory){... */\n    tag_7:\n      callvalue\n      dup1\n      iszero\n      tag_45\n      jumpi\n      0x00\n      dup1\n      revert\n    tag_45:\n      pop\n      tag_46\n      tag_47\n      jump\t// in\n    tag_46:\n      mload(0x40)\n      tag_48\n      swap2\n      swap1\n      tag_30\n      jump\t// in\n    tag_48:\n      mload(0x40)\n      dup1\n      swap2\n      sub\n      swap1\n      return\n        /* \"contracts/GeekNftMarketPlace.sol\":4572:4873  function fetchItemByDataId(uint _dataId) public view returns (Item memory){... */\n    tag_8:\n      callvalue\n      dup1\n      iszero\n      tag_49\n      jumpi\n      0x00\n      dup1\n      revert\n    tag_49:\n      pop\n      tag_50\n      0x04\n      dup1\n      calldatasize\n      sub\n      dup2\n      add\n      swap1\n      tag_51\n      swap2\n      swap1\n      tag_38\n      jump\t// in\n    tag_51:\n      tag_52\n      jump\t// in\n    tag_50:\n      mload(0x40)\n      tag_53\n      swap2\n      swap1\n      tag_54\n      jump\t// in\n    tag_53:\n      mload(0x40)\n      dup1\n      swap2\n      sub\n      swap1\n      return\n        /* \"contracts/GeekNftMarketPlace.sol\":3601:3707  function ownerOf(uint _tokenId) public view returns (address){... */\n    tag_9:\n      callvalue\n      dup1\n      iszero\n      tag_55\n      jumpi\n      0x00\n      dup1\n      revert\n    tag_55:\n      pop\n      tag_56\n      0x04\n      dup1\n      calldatasize\n      sub\n      dup2\n      add\n      swap1\n      tag_57\n      swap2\n      swap1\n      tag_38\n      jump\t// in\n    tag_57:\n      tag_58\n      jump\t// in\n    tag_56:\n      mload(0x40)\n      tag_59\n      swap2\n      swap1\n      tag_60\n      jump\t// in\n    tag_59:\n      mload(0x40)\n      dup1\n      swap2\n      sub\n      swap1\n      return\n        /* \"contracts/GeekNftMarketPlace.sol\":5642:6032  function fetchItemsByCreator() public view returns (Item[] memory){... */\n    tag_10:\n      callvalue\n      dup1\n      iszero\n      tag_61\n      jumpi\n      0x00\n      dup1\n      revert\n    tag_61:\n      pop\n      tag_62\n      tag_63\n      jump\t// in\n    tag_62:\n      mload(0x40)\n      tag_64\n      swap2\n      swap1\n      tag_30\n      jump\t// in\n    tag_64:\n      mload(0x40)\n      dup1\n      swap2\n      sub\n      swap1\n      return\n        /* \"contracts/GeekNftMarketPlace.sol\":3713:3821  function balanceOf(address _owner) public view returns (uint){... */\n    tag_11:\n      callvalue\n      dup1\n      iszero\n      tag_65\n      jumpi\n      0x00\n      dup1\n      revert\n    tag_65:\n      pop\n      tag_66\n      0x04\n      dup1\n      calldatasize\n      sub\n      dup2\n      add\n      swap1\n      tag_67\n      swap2\n      swap1\n      tag_68\n      jump\t// in\n    tag_67:\n      tag_69\n      jump\t// in\n    tag_66:\n      mload(0x40)\n      tag_70\n      swap2\n      swap1\n      tag_25\n      jump\t// in\n    tag_70:\n      mload(0x40)\n      dup1\n      swap2\n      sub\n      swap1\n      return\n        /* \"contracts/GeekNftMarketPlace.sol\":2485:3595  function sellItem(uint _tokenId) public payable{... */\n    tag_12:\n      tag_71\n      0x04\n      dup1\n      calldatasize\n      sub\n      dup2\n      add\n      swap1\n      tag_72\n      swap2\n      swap1\n      tag_38\n      jump\t// in\n    tag_72:\n      tag_73\n      jump\t// in\n    tag_71:\n      stop\n        /* \"contracts/GeekNftMarketPlace.sol\":1390:1484  function getCreateItemFees() public view returns (uint) {... */\n    tag_13:\n      callvalue\n      dup1\n      iszero\n      tag_74\n      jumpi\n      0x00\n      dup1\n      revert\n    tag_74:\n      pop\n      tag_75\n      tag_76\n      jump\t// in\n    tag_75:\n      mload(0x40)\n      tag_77\n      swap2\n      swap1\n      tag_25\n      jump\t// in\n    tag_77:\n      mload(0x40)\n      dup1\n      swap2\n      sub\n      swap1\n      return\n        /* \"contracts/GeekNftMarketPlace.sol\":3827:4156  function removeItemToSell(uint _tokenId) public onlyItemOwner(_tokenId) {... */\n    tag_14:\n      callvalue\n      dup1\n      iszero\n      tag_78\n      jumpi\n      0x00\n      dup1\n      revert\n    tag_78:\n      pop\n      tag_79\n      0x04\n      dup1\n      calldatasize\n      sub\n      dup2\n      add\n      swap1\n      tag_80\n      swap2\n      swap1\n      tag_38\n      jump\t// in\n    tag_80:\n      tag_81\n      jump\t// in\n    tag_79:\n      stop\n        /* \"contracts/GeekNftMarketPlace.sol\":4162:4566  function addItemToSell(uint _tokenId) public payable sendCorrectFeesValue onlyItemOwner(_tokenId) {... */\n    tag_15:\n      tag_82\n      0x04\n      dup1\n      calldatasize\n      sub\n      dup2\n      add\n      swap1\n      tag_83\n      swap2\n      swap1\n      tag_38\n      jump\t// in\n    tag_83:\n      tag_84\n      jump\t// in\n    tag_82:\n      stop\n        /* \"contracts/GeekNftMarketPlace.sol\":1273:1384  function updateCreateItemFees(uint _newFees) public onlyContractOwner{... */\n    tag_16:\n      callvalue\n      dup1\n      iszero\n      tag_85\n      jumpi\n      0x00\n      dup1\n      revert\n    tag_85:\n      pop\n      tag_86\n      0x04\n      dup1\n      calldatasize\n      sub\n      dup2\n      add\n      swap1\n      tag_87\n      swap2\n      swap1\n      tag_38\n      jump\t// in\n    tag_87:\n      tag_88\n      jump\t// in\n    tag_86:\n      stop\n        /* \"contracts/GeekNftMarketPlace.sol\":1731:2479  function mint(uint _price, uint _catId, uint _dataId) public payable sendCorrectFeesValue returns (uint){... */\n    tag_23:\n        /* \"contracts/GeekNftMarketPlace.sol\":1830:1834  uint */\n      0x00\n        /* \"contracts/GeekNftMarketPlace.sol\":1197:1211  createItemFees */\n      sload(0x05)\n        /* \"contracts/GeekNftMarketPlace.sol\":1184:1193  msg.value */\n      callvalue\n        /* \"contracts/GeekNftMarketPlace.sol\":1184:1211  msg.value == createItemFees */\n      eq\n        /* \"contracts/GeekNftMarketPlace.sol\":1176:1249  require(msg.value == createItemFees, \"Thanks to send correct fees value\") */\n      tag_90\n      jumpi\n      mload(0x40)\n      0x08c379a000000000000000000000000000000000000000000000000000000000\n      dup2\n      mstore\n      0x04\n      add\n      tag_91\n      swap1\n      tag_92\n      jump\t// in\n    tag_91:\n      mload(0x40)\n      dup1\n      swap2\n      sub\n      swap1\n      revert\n    tag_90:\n        /* \"contracts/GeekNftMarketPlace.sol\":1862:1863  0 */\n      0x00\n        /* \"contracts/GeekNftMarketPlace.sol\":1853:1859  _price */\n      dup5\n        /* \"contracts/GeekNftMarketPlace.sol\":1853:1863  _price > 0 */\n      gt\n        /* \"contracts/GeekNftMarketPlace.sol\":1845:1894  require(_price > 0, \"Price cannot be equal to 0\") */\n      tag_94\n      jumpi\n      mload(0x40)\n      0x08c379a000000000000000000000000000000000000000000000000000000000\n      dup2\n      mstore\n      0x04\n      add\n      tag_95\n      swap1\n      tag_96\n      jump\t// in\n    tag_95:\n      mload(0x40)\n      dup1\n      swap2\n      sub\n      swap1\n      revert\n    tag_94:\n        /* \"contracts/GeekNftMarketPlace.sol\":1904:1919  uint newTokenId */\n      0x00\n        /* \"contracts/GeekNftMarketPlace.sol\":1922:1927  items */\n      0x03\n        /* \"contracts/GeekNftMarketPlace.sol\":1922:1934  items.length */\n      dup1\n      sload\n      swap1\n      pop\n        /* \"contracts/GeekNftMarketPlace.sol\":1904:1934  uint newTokenId = items.length */\n      swap1\n      pop\n        /* \"contracts/GeekNftMarketPlace.sol\":1988:1989  0 */\n      0x00\n        /* \"contracts/GeekNftMarketPlace.sol\":1953:1990  itemToOwner[newTokenId] == address(0) */\n      0xffffffffffffffffffffffffffffffffffffffff\n      and\n        /* \"contracts/GeekNftMarketPlace.sol\":1953:1964  itemToOwner */\n      0x08\n        /* \"contracts/GeekNftMarketPlace.sol\":1953:1976  itemToOwner[newTokenId] */\n      0x00\n        /* \"contracts/GeekNftMarketPlace.sol\":1965:1975  newTokenId */\n      dup4\n        /* \"contracts/GeekNftMarketPlace.sol\":1953:1976  itemToOwner[newTokenId] */\n      dup2\n      mstore\n      0x20\n      add\n      swap1\n      dup2\n      mstore\n      0x20\n      add\n      0x00\n      keccak256\n      0x00\n      swap1\n      sload\n      swap1\n      0x0100\n      exp\n      swap1\n      div\n      0xffffffffffffffffffffffffffffffffffffffff\n      and\n        /* \"contracts/GeekNftMarketPlace.sol\":1953:1990  itemToOwner[newTokenId] == address(0) */\n      0xffffffffffffffffffffffffffffffffffffffff\n      and\n      eq\n        /* \"contracts/GeekNftMarketPlace.sol\":1945:2014  require(itemToOwner[newTokenId] == address(0), \"token already exist\") */\n      tag_97\n      jumpi\n      mload(0x40)\n      0x08c379a000000000000000000000000000000000000000000000000000000000\n      dup2\n      mstore\n      0x04\n      add\n      tag_98\n      swap1\n      tag_99\n      jump\t// in\n    tag_98:\n      mload(0x40)\n      dup1\n      swap2\n      sub\n      swap1\n      revert\n    tag_97:\n        /* \"contracts/GeekNftMarketPlace.sol\":2025:2030  items */\n      0x03\n        /* \"contracts/GeekNftMarketPlace.sol\":2036:2075  Item(_dataId, newTokenId, _price, true) */\n      mload(0x40)\n      dup1\n      0x80\n      add\n      0x40\n      mstore\n      dup1\n        /* \"contracts/GeekNftMarketPlace.sol\":2041:2048  _dataId */\n      dup6\n        /* \"contracts/GeekNftMarketPlace.sol\":2036:2075  Item(_dataId, newTokenId, _price, true) */\n      dup2\n      mstore\n      0x20\n      add\n        /* \"contracts/GeekNftMarketPlace.sol\":2050:2060  newTokenId */\n      dup4\n        /* \"contracts/GeekNftMarketPlace.sol\":2036:2075  Item(_dataId, newTokenId, _price, true) */\n      dup2\n      mstore\n      0x20\n      add\n        /* \"contracts/GeekNftMarketPlace.sol\":2062:2068  _price */\n      dup8\n        /* \"contracts/GeekNftMarketPlace.sol\":2036:2075  Item(_dataId, newTokenId, _price, true) */\n      dup2\n      mstore\n      0x20\n      add\n        /* \"contracts/GeekNftMarketPlace.sol\":2070:2074  true */\n      0x01\n        /* \"contracts/GeekNftMarketPlace.sol\":2036:2075  Item(_dataId, newTokenId, _price, true) */\n      iszero\n      iszero\n      dup2\n      mstore\n      pop\n        /* \"contracts/GeekNftMarketPlace.sol\":2025:2076  items.push(Item(_dataId, newTokenId, _price, true)) */\n      swap1\n      dup1\n      0x01\n      dup2\n      sload\n      add\n      dup1\n      dup3\n      sstore\n      dup1\n      swap2\n      pop\n      pop\n      0x01\n      swap1\n      sub\n      swap1\n      0x00\n      mstore\n      keccak256(0x00, 0x20)\n      swap1\n      0x04\n      mul\n      add\n      0x00\n      swap1\n      swap2\n      swap1\n      swap2\n      swap1\n      swap2\n      pop\n      0x00\n      dup3\n      add\n      mload\n      dup2\n      0x00\n      add\n      sstore\n      0x20\n      dup3\n      add\n      mload\n      dup2\n      0x01\n      add\n      sstore\n      0x40\n      dup3\n      add\n      mload\n      dup2\n      0x02\n      add\n      sstore\n      0x60\n      dup3\n      add\n      mload\n      dup2\n      0x03\n      add\n      exp(0x0100, 0x00)\n      dup2\n      sload\n      dup2\n      0xff\n      mul\n      not\n      and\n      swap1\n      dup4\n      iszero\n      iszero\n      mul\n      or\n      swap1\n      sstore\n      pop\n      pop\n      pop\n        /* \"contracts/GeekNftMarketPlace.sol\":2112:2122  msg.sender */\n      caller\n        /* \"contracts/GeekNftMarketPlace.sol\":2086:2097  itemToOwner */\n      0x08\n        /* \"contracts/GeekNftMarketPlace.sol\":2086:2109  itemToOwner[newTokenId] */\n      0x00\n        /* \"contracts/GeekNftMarketPlace.sol\":2098:2108  newTokenId */\n      dup4\n        /* \"contracts/GeekNftMarketPlace.sol\":2086:2109  itemToOwner[newTokenId] */\n      dup2\n      mstore\n      0x20\n      add\n      swap1\n      dup2\n      mstore\n      0x20\n      add\n      0x00\n      keccak256\n      0x00\n        /* \"contracts/GeekNftMarketPlace.sol\":2086:2122  itemToOwner[newTokenId] = msg.sender */\n      0x0100\n      exp\n      dup2\n      sload\n      dup2\n      0xffffffffffffffffffffffffffffffffffffffff\n      mul\n      not\n      and\n      swap1\n      dup4\n      0xffffffffffffffffffffffffffffffffffffffff\n      and\n      mul\n      or\n      swap1\n      sstore\n      pop\n        /* \"contracts/GeekNftMarketPlace.sol\":2160:2170  msg.sender */\n      caller\n        /* \"contracts/GeekNftMarketPlace.sol\":2132:2145  itemToCreator */\n      0x0a\n        /* \"contracts/GeekNftMarketPlace.sol\":2132:2157  itemToCreator[newTokenId] */\n      0x00\n        /* \"contracts/GeekNftMarketPlace.sol\":2146:2156  newTokenId */\n      dup4\n        /* \"contracts/GeekNftMarketPlace.sol\":2132:2157  itemToCreator[newTokenId] */\n      dup2\n      mstore\n      0x20\n      add\n      swap1\n      dup2\n      mstore\n      0x20\n      add\n      0x00\n      keccak256\n      0x00\n        /* \"contracts/GeekNftMarketPlace.sol\":2132:2170  itemToCreator[newTokenId] = msg.sender */\n      0x0100\n      exp\n      dup2\n      sload\n      dup2\n      0xffffffffffffffffffffffffffffffffffffffff\n      mul\n      not\n      and\n      swap1\n      dup4\n      0xffffffffffffffffffffffffffffffffffffffff\n      and\n      mul\n      or\n      swap1\n      sstore\n      pop\n        /* \"contracts/GeekNftMarketPlace.sol\":2206:2212  _catId */\n      dup4\n        /* \"contracts/GeekNftMarketPlace.sol\":2180:2191  itemToCatId */\n      0x0c\n        /* \"contracts/GeekNftMarketPlace.sol\":2180:2203  itemToCatId[newTokenId] */\n      0x00\n        /* \"contracts/GeekNftMarketPlace.sol\":2192:2202  newTokenId */\n      dup4\n        /* \"contracts/GeekNftMarketPlace.sol\":2180:2203  itemToCatId[newTokenId] */\n      dup2\n      mstore\n      0x20\n      add\n      swap1\n      dup2\n      mstore\n      0x20\n      add\n      0x00\n      keccak256\n        /* \"contracts/GeekNftMarketPlace.sol\":2180:2212  itemToCatId[newTokenId] = _catId */\n      dup2\n      swap1\n      sstore\n      pop\n        /* \"contracts/GeekNftMarketPlace.sol\":2246:2261  itemsOwnerCount */\n      0x07\n        /* \"contracts/GeekNftMarketPlace.sol\":2246:2273  itemsOwnerCount[msg.sender] */\n      0x00\n        /* \"contracts/GeekNftMarketPlace.sol\":2262:2272  msg.sender */\n      caller\n        /* \"contracts/GeekNftMarketPlace.sol\":2246:2273  itemsOwnerCount[msg.sender] */\n      0xffffffffffffffffffffffffffffffffffffffff\n      and\n      0xffffffffffffffffffffffffffffffffffffffff\n      and\n      dup2\n      mstore\n      0x20\n      add\n      swap1\n      dup2\n      mstore\n      0x20\n      add\n      0x00\n      keccak256\n      0x00\n        /* \"contracts/GeekNftMarketPlace.sol\":2246:2275  itemsOwnerCount[msg.sender]++ */\n      dup2\n      sload\n      dup1\n      swap3\n      swap2\n      swap1\n      0x01\n      add\n      swap2\n      swap1\n      pop\n      sstore\n      pop\n        /* \"contracts/GeekNftMarketPlace.sol\":2289:2306  itemsCreatorCount */\n      0x09\n        /* \"contracts/GeekNftMarketPlace.sol\":2289:2318  itemsCreatorCount[msg.sender] */\n      0x00\n        /* \"contracts/GeekNftMarketPlace.sol\":2307:2317  msg.sender */\n      caller\n        /* \"contracts/GeekNftMarketPlace.sol\":2289:2318  itemsCreatorCount[msg.sender] */\n      0xffffffffffffffffffffffffffffffffffffffff\n      and\n      0xffffffffffffffffffffffffffffffffffffffff\n      and\n      dup2\n      mstore\n      0x20\n      add\n      swap1\n      dup2\n      mstore\n      0x20\n      add\n      0x00\n      keccak256\n      0x00\n        /* \"contracts/GeekNftMarketPlace.sol\":2289:2320  itemsCreatorCount[msg.sender]++ */\n      dup2\n      sload\n      dup1\n      swap3\n      swap2\n      swap1\n      0x01\n      add\n      swap2\n      swap1\n      pop\n      sstore\n      pop\n        /* \"contracts/GeekNftMarketPlace.sol\":2334:2349  itemsCatIdCount */\n      0x0b\n        /* \"contracts/GeekNftMarketPlace.sol\":2334:2357  itemsCatIdCount[_catId] */\n      0x00\n        /* \"contracts/GeekNftMarketPlace.sol\":2350:2356  _catId */\n      dup6\n        /* \"contracts/GeekNftMarketPlace.sol\":2334:2357  itemsCatIdCount[_catId] */\n      dup2\n      mstore\n      0x20\n      add\n      swap1\n      dup2\n      mstore\n      0x20\n      add\n      0x00\n      keccak256\n      0x00\n        /* \"contracts/GeekNftMarketPlace.sol\":2334:2359  itemsCatIdCount[_catId]++ */\n      dup2\n      sload\n      dup1\n      swap3\n      swap2\n      swap1\n      0x01\n      add\n      swap2\n      swap1\n      pop\n      sstore\n      pop\n        /* \"contracts/GeekNftMarketPlace.sol\":2373:2389  itemsToSellCount */\n      0x04\n      0x00\n        /* \"contracts/GeekNftMarketPlace.sol\":2373:2391  itemsToSellCount++ */\n      dup2\n      sload\n      dup1\n      swap3\n      swap2\n      swap1\n      0x01\n      add\n      swap2\n      swap1\n      pop\n      sstore\n      pop\n        /* \"contracts/GeekNftMarketPlace.sol\":2419:2424  owner */\n      0x02\n      0x00\n      swap1\n      sload\n      swap1\n      0x0100\n      exp\n      swap1\n      div\n      0xffffffffffffffffffffffffffffffffffffffff\n      and\n        /* \"contracts/GeekNftMarketPlace.sol\":2411:2434  payable(owner).transfer */\n      0xffffffffffffffffffffffffffffffffffffffff\n      and\n        /* \"contracts/GeekNftMarketPlace.sol\":2411:2445  payable(owner).transfer(msg.value) */\n      0x08fc\n        /* \"contracts/GeekNftMarketPlace.sol\":2435:2444  msg.value */\n      callvalue\n        /* \"contracts/GeekNftMarketPlace.sol\":2411:2445  payable(owner).transfer(msg.value) */\n      swap1\n      dup2\n      iszero\n      mul\n      swap1\n      mload(0x40)\n      0x00\n      mload(0x40)\n      dup1\n      dup4\n      sub\n      dup2\n      dup6\n      dup9\n      dup9\n      call\n      swap4\n      pop\n      pop\n      pop\n      pop\n      iszero\n      dup1\n      iszero\n      tag_102\n      jumpi\n      returndatasize\n      0x00\n      dup1\n      returndatacopy\n      revert(0x00, returndatasize)\n    tag_102:\n      pop\n        /* \"contracts/GeekNftMarketPlace.sol\":2462:2472  newTokenId */\n      dup1\n        /* \"contracts/GeekNftMarketPlace.sol\":2455:2472  return newTokenId */\n      swap2\n      pop\n      pop\n        /* \"contracts/GeekNftMarketPlace.sol\":1731:2479  function mint(uint _price, uint _catId, uint _dataId) public payable sendCorrectFeesValue returns (uint){... */\n      swap4\n      swap3\n      pop\n      pop\n      pop\n      jump\t// out\n        /* \"contracts/GeekNftMarketPlace.sol\":4879:5246  function fetchItemsToSell() public view returns (Item[] memory){... */\n    tag_28:\n        /* \"contracts/GeekNftMarketPlace.sol\":4928:4941  Item[] memory */\n      0x60\n        /* \"contracts/GeekNftMarketPlace.sol\":4952:4964  uint counter */\n      0x00\n        /* \"contracts/GeekNftMarketPlace.sol\":4978:4998  Item[] memory result */\n      dup1\n        /* \"contracts/GeekNftMarketPlace.sol\":5012:5028  itemsToSellCount */\n      sload(0x04)\n        /* \"contracts/GeekNftMarketPlace.sol\":5001:5029  new Item[](itemsToSellCount) */\n      0xffffffffffffffff\n      dup2\n      gt\n      iszero\n      tag_104\n      jumpi\n      mstore(0x00, 0x4e487b7100000000000000000000000000000000000000000000000000000000)\n      mstore(0x04, 0x41)\n      revert(0x00, 0x24)\n    tag_104:\n      mload(0x40)\n      swap1\n      dup1\n      dup3\n      mstore\n      dup1\n      0x20\n      mul\n      0x20\n      add\n      dup3\n      add\n      0x40\n      mstore\n      dup1\n      iszero\n      tag_105\n      jumpi\n      dup2\n      0x20\n      add\n    tag_106:\n      tag_107\n      tag_108\n      jump\t// in\n    tag_107:\n      dup2\n      mstore\n      0x20\n      add\n      swap1\n      0x01\n      swap1\n      sub\n      swap1\n      dup2\n      tag_106\n      jumpi\n      swap1\n      pop\n    tag_105:\n      pop\n        /* \"contracts/GeekNftMarketPlace.sol\":4978:5029  Item[] memory result = new Item[](itemsToSellCount) */\n      swap1\n      pop\n        /* \"contracts/GeekNftMarketPlace.sol\":5044:5050  uint i */\n      0x00\n        /* \"contracts/GeekNftMarketPlace.sol\":5040:5216  for(uint i = 0; i < items.length; i++) {... */\n    tag_109:\n        /* \"contracts/GeekNftMarketPlace.sol\":5060:5065  items */\n      0x03\n        /* \"contracts/GeekNftMarketPlace.sol\":5060:5072  items.length */\n      dup1\n      sload\n      swap1\n      pop\n        /* \"contracts/GeekNftMarketPlace.sol\":5056:5057  i */\n      dup2\n        /* \"contracts/GeekNftMarketPlace.sol\":5056:5072  i < items.length */\n      lt\n        /* \"contracts/GeekNftMarketPlace.sol\":5040:5216  for(uint i = 0; i < items.length; i++) {... */\n      iszero\n      tag_110\n      jumpi\n        /* \"contracts/GeekNftMarketPlace.sol\":5115:5119  true */\n      0x01\n        /* \"contracts/GeekNftMarketPlace.sol\":5096:5119  items[i].toSell == true */\n      iszero\n      iszero\n        /* \"contracts/GeekNftMarketPlace.sol\":5096:5101  items */\n      0x03\n        /* \"contracts/GeekNftMarketPlace.sol\":5102:5103  i */\n      dup3\n        /* \"contracts/GeekNftMarketPlace.sol\":5096:5104  items[i] */\n      dup2\n      sload\n      dup2\n      lt\n      tag_112\n      jumpi\n      mstore(0x00, 0x4e487b7100000000000000000000000000000000000000000000000000000000)\n      mstore(0x04, 0x32)\n      revert(0x00, 0x24)\n    tag_112:\n      swap1\n      0x00\n      mstore\n      keccak256(0x00, 0x20)\n      swap1\n      0x04\n      mul\n      add\n        /* \"contracts/GeekNftMarketPlace.sol\":5096:5111  items[i].toSell */\n      0x03\n      add\n      0x00\n      swap1\n      sload\n      swap1\n      0x0100\n      exp\n      swap1\n      div\n      0xff\n      and\n        /* \"contracts/GeekNftMarketPlace.sol\":5096:5119  items[i].toSell == true */\n      iszero\n      iszero\n      eq\n        /* \"contracts/GeekNftMarketPlace.sol\":5093:5206  if(items[i].toSell == true){... */\n      iszero\n      tag_114\n      jumpi\n        /* \"contracts/GeekNftMarketPlace.sol\":5156:5161  items */\n      0x03\n        /* \"contracts/GeekNftMarketPlace.sol\":5162:5163  i */\n      dup2\n        /* \"contracts/GeekNftMarketPlace.sol\":5156:5164  items[i] */\n      dup2\n      sload\n      dup2\n      lt\n      tag_115\n      jumpi\n      mstore(0x00, 0x4e487b7100000000000000000000000000000000000000000000000000000000)\n      mstore(0x04, 0x32)\n      revert(0x00, 0x24)\n    tag_115:\n      swap1\n      0x00\n      mstore\n      keccak256(0x00, 0x20)\n      swap1\n      0x04\n      mul\n      add\n        /* \"contracts/GeekNftMarketPlace.sol\":5138:5164  result[counter] = items[i] */\n      mload(0x40)\n      dup1\n      0x80\n      add\n      0x40\n      mstore\n      swap1\n      dup2\n      0x00\n      dup3\n      add\n      sload\n      dup2\n      mstore\n      0x20\n      add\n      0x01\n      dup3\n      add\n      sload\n      dup2\n      mstore\n      0x20\n      add\n      0x02\n      dup3\n      add\n      sload\n      dup2\n      mstore\n      0x20\n      add\n      0x03\n      dup3\n      add\n      0x00\n      swap1\n      sload\n      swap1\n      0x0100\n      exp\n      swap1\n      div\n      0xff\n      and\n      iszero\n      iszero\n      iszero\n      iszero\n      dup2\n      mstore\n      pop\n      pop\n        /* \"contracts/GeekNftMarketPlace.sol\":5138:5144  result */\n      dup3\n        /* \"contracts/GeekNftMarketPlace.sol\":5145:5152  counter */\n      dup5\n        /* \"contracts/GeekNftMarketPlace.sol\":5138:5153  result[counter] */\n      dup2\n      mload\n      dup2\n      lt\n      tag_117\n      jumpi\n      mstore(0x00, 0x4e487b7100000000000000000000000000000000000000000000000000000000)\n      mstore(0x04, 0x32)\n      revert(0x00, 0x24)\n    tag_117:\n      0x20\n      mul\n      0x20\n      add\n      add\n        /* \"contracts/GeekNftMarketPlace.sol\":5138:5164  result[counter] = items[i] */\n      dup2\n      swap1\n      mstore\n      pop\n        /* \"contracts/GeekNftMarketPlace.sol\":5182:5191  counter++ */\n      dup3\n      dup1\n      tag_118\n      swap1\n      tag_119\n      jump\t// in\n    tag_118:\n      swap4\n      pop\n      pop\n        /* \"contracts/GeekNftMarketPlace.sol\":5093:5206  if(items[i].toSell == true){... */\n    tag_114:\n        /* \"contracts/GeekNftMarketPlace.sol\":5074:5077  i++ */\n      dup1\n      dup1\n      tag_120\n      swap1\n      tag_119\n      jump\t// in\n    tag_120:\n      swap2\n      pop\n      pop\n        /* \"contracts/GeekNftMarketPlace.sol\":5040:5216  for(uint i = 0; i < items.length; i++) {... */\n      jump(tag_109)\n    tag_110:\n      pop\n        /* \"contracts/GeekNftMarketPlace.sol\":5233:5239  result */\n      dup1\n        /* \"contracts/GeekNftMarketPlace.sol\":5226:5239  return result */\n      swap3\n      pop\n      pop\n      pop\n        /* \"contracts/GeekNftMarketPlace.sol\":4879:5246  function fetchItemsToSell() public view returns (Item[] memory){... */\n      swap1\n      jump\t// out\n        /* \"contracts/GeekNftMarketPlace.sol\":1625:1725  function getCreatorPercentage() public view returns (uint) {... */\n    tag_33:\n        /* \"contracts/GeekNftMarketPlace.sol\":1678:1682  uint */\n      0x00\n        /* \"contracts/GeekNftMarketPlace.sol\":1701:1718  creatorPercentage */\n      sload(0x06)\n        /* \"contracts/GeekNftMarketPlace.sol\":1694:1718  return creatorPercentage */\n      swap1\n      pop\n        /* \"contracts/GeekNftMarketPlace.sol\":1625:1725  function getCreatorPercentage() public view returns (uint) {... */\n      swap1\n      jump\t// out\n        /* \"contracts/GeekNftMarketPlace.sol\":1490:1619  function updateCreatorPercentage(uint _newPercentage) public onlyContractOwner{... */\n    tag_39:\n        /* \"contracts/GeekNftMarketPlace.sol\":918:923  owner */\n      0x02\n      0x00\n      swap1\n      sload\n      swap1\n      0x0100\n      exp\n      swap1\n      div\n      0xffffffffffffffffffffffffffffffffffffffff\n      and\n        /* \"contracts/GeekNftMarketPlace.sol\":904:923  msg.sender == owner */\n      0xffffffffffffffffffffffffffffffffffffffff\n      and\n        /* \"contracts/GeekNftMarketPlace.sol\":904:914  msg.sender */\n      caller\n        /* \"contracts/GeekNftMarketPlace.sol\":904:923  msg.sender == owner */\n      0xffffffffffffffffffffffffffffffffffffffff\n      and\n      eq\n        /* \"contracts/GeekNftMarketPlace.sol\":896:961  require(msg.sender == owner, \"Only contract's owner can do that\") */\n      tag_123\n      jumpi\n      mload(0x40)\n      0x08c379a000000000000000000000000000000000000000000000000000000000\n      dup2\n      mstore\n      0x04\n      add\n      tag_124\n      swap1\n      tag_125\n      jump\t// in\n    tag_124:\n      mload(0x40)\n      dup1\n      swap2\n      sub\n      swap1\n      revert\n    tag_123:\n        /* \"contracts/GeekNftMarketPlace.sol\":1598:1612  _newPercentage */\n      dup1\n        /* \"contracts/GeekNftMarketPlace.sol\":1578:1595  creatorPercentage */\n      0x06\n        /* \"contracts/GeekNftMarketPlace.sol\":1578:1612  creatorPercentage = _newPercentage */\n      dup2\n      swap1\n      sstore\n      pop\n        /* \"contracts/GeekNftMarketPlace.sol\":1490:1619  function updateCreatorPercentage(uint _newPercentage) public onlyContractOwner{... */\n      pop\n      jump\t// out\n        /* \"contracts/GeekNftMarketPlace.sol\":6038:6458  function fetchItemsToSellByCatId(uint _catId) public view returns (Item[] memory){... */\n    tag_43:\n        /* \"contracts/GeekNftMarketPlace.sol\":6105:6118  Item[] memory */\n      0x60\n        /* \"contracts/GeekNftMarketPlace.sol\":6129:6141  uint counter */\n      0x00\n        /* \"contracts/GeekNftMarketPlace.sol\":6155:6175  Item[] memory result */\n      dup1\n        /* \"contracts/GeekNftMarketPlace.sol\":6189:6204  itemsCatIdCount */\n      0x0b\n        /* \"contracts/GeekNftMarketPlace.sol\":6189:6212  itemsCatIdCount[_catId] */\n      0x00\n        /* \"contracts/GeekNftMarketPlace.sol\":6205:6211  _catId */\n      dup6\n        /* \"contracts/GeekNftMarketPlace.sol\":6189:6212  itemsCatIdCount[_catId] */\n      dup2\n      mstore\n      0x20\n      add\n      swap1\n      dup2\n      mstore\n      0x20\n      add\n      0x00\n      keccak256\n      sload\n        /* \"contracts/GeekNftMarketPlace.sol\":6178:6213  new Item[](itemsCatIdCount[_catId]) */\n      0xffffffffffffffff\n      dup2\n      gt\n      iszero\n      tag_128\n      jumpi\n      mstore(0x00, 0x4e487b7100000000000000000000000000000000000000000000000000000000)\n      mstore(0x04, 0x41)\n      revert(0x00, 0x24)\n    tag_128:\n      mload(0x40)\n      swap1\n      dup1\n      dup3\n      mstore\n      dup1\n      0x20\n      mul\n      0x20\n      add\n      dup3\n      add\n      0x40\n      mstore\n      dup1\n      iszero\n      tag_129\n      jumpi\n      dup2\n      0x20\n      add\n    tag_130:\n      tag_131\n      tag_108\n      jump\t// in\n    tag_131:\n      dup2\n      mstore\n      0x20\n      add\n      swap1\n      0x01\n      swap1\n      sub\n      swap1\n      dup2\n      tag_130\n      jumpi\n      swap1\n      pop\n    tag_129:\n      pop\n        /* \"contracts/GeekNftMarketPlace.sol\":6155:6213  Item[] memory result = new Item[](itemsCatIdCount[_catId]) */\n      swap1\n      pop\n        /* \"contracts/GeekNftMarketPlace.sol\":6228:6234  uint i */\n      0x00\n        /* \"contracts/GeekNftMarketPlace.sol\":6224:6428  for(uint i = 0; i < items.length; i++) {... */\n    tag_132:\n        /* \"contracts/GeekNftMarketPlace.sol\":6244:6249  items */\n      0x03\n        /* \"contracts/GeekNftMarketPlace.sol\":6244:6256  items.length */\n      dup1\n      sload\n      swap1\n      pop\n        /* \"contracts/GeekNftMarketPlace.sol\":6240:6241  i */\n      dup2\n        /* \"contracts/GeekNftMarketPlace.sol\":6240:6256  i < items.length */\n      lt\n        /* \"contracts/GeekNftMarketPlace.sol\":6224:6428  for(uint i = 0; i < items.length; i++) {... */\n      iszero\n      tag_133\n      jumpi\n        /* \"contracts/GeekNftMarketPlace.sol\":6298:6304  _catId */\n      dup5\n        /* \"contracts/GeekNftMarketPlace.sol\":6280:6291  itemToCatId */\n      0x0c\n        /* \"contracts/GeekNftMarketPlace.sol\":6280:6294  itemToCatId[i] */\n      0x00\n        /* \"contracts/GeekNftMarketPlace.sol\":6292:6293  i */\n      dup4\n        /* \"contracts/GeekNftMarketPlace.sol\":6280:6294  itemToCatId[i] */\n      dup2\n      mstore\n      0x20\n      add\n      swap1\n      dup2\n      mstore\n      0x20\n      add\n      0x00\n      keccak256\n      sload\n        /* \"contracts/GeekNftMarketPlace.sol\":6280:6304  itemToCatId[i] == _catId */\n      eq\n        /* \"contracts/GeekNftMarketPlace.sol\":6280:6331  itemToCatId[i] == _catId && items[i].toSell == true */\n      dup1\n      iszero\n      tag_135\n      jumpi\n      pop\n        /* \"contracts/GeekNftMarketPlace.sol\":6327:6331  true */\n      0x01\n        /* \"contracts/GeekNftMarketPlace.sol\":6308:6331  items[i].toSell == true */\n      iszero\n      iszero\n        /* \"contracts/GeekNftMarketPlace.sol\":6308:6313  items */\n      0x03\n        /* \"contracts/GeekNftMarketPlace.sol\":6314:6315  i */\n      dup3\n        /* \"contracts/GeekNftMarketPlace.sol\":6308:6316  items[i] */\n      dup2\n      sload\n      dup2\n      lt\n      tag_136\n      jumpi\n      mstore(0x00, 0x4e487b7100000000000000000000000000000000000000000000000000000000)\n      mstore(0x04, 0x32)\n      revert(0x00, 0x24)\n    tag_136:\n      swap1\n      0x00\n      mstore\n      keccak256(0x00, 0x20)\n      swap1\n      0x04\n      mul\n      add\n        /* \"contracts/GeekNftMarketPlace.sol\":6308:6323  items[i].toSell */\n      0x03\n      add\n      0x00\n      swap1\n      sload\n      swap1\n      0x0100\n      exp\n      swap1\n      div\n      0xff\n      and\n        /* \"contracts/GeekNftMarketPlace.sol\":6308:6331  items[i].toSell == true */\n      iszero\n      iszero\n      eq\n        /* \"contracts/GeekNftMarketPlace.sol\":6280:6331  itemToCatId[i] == _catId && items[i].toSell == true */\n    tag_135:\n        /* \"contracts/GeekNftMarketPlace.sol\":6277:6418  if(itemToCatId[i] == _catId && items[i].toSell == true){... */\n      iszero\n      tag_138\n      jumpi\n        /* \"contracts/GeekNftMarketPlace.sol\":6368:6373  items */\n      0x03\n        /* \"contracts/GeekNftMarketPlace.sol\":6374:6375  i */\n      dup2\n        /* \"contracts/GeekNftMarketPlace.sol\":6368:6376  items[i] */\n      dup2\n      sload\n      dup2\n      lt\n      tag_139\n      jumpi\n      mstore(0x00, 0x4e487b7100000000000000000000000000000000000000000000000000000000)\n      mstore(0x04, 0x32)\n      revert(0x00, 0x24)\n    tag_139:\n      swap1\n      0x00\n      mstore\n      keccak256(0x00, 0x20)\n      swap1\n      0x04\n      mul\n      add\n        /* \"contracts/GeekNftMarketPlace.sol\":6350:6376  result[counter] = items[i] */\n      mload(0x40)\n      dup1\n      0x80\n      add\n      0x40\n      mstore\n      swap1\n      dup2\n      0x00\n      dup3\n      add\n      sload\n      dup2\n      mstore\n      0x20\n      add\n      0x01\n      dup3\n      add\n      sload\n      dup2\n      mstore\n      0x20\n      add\n      0x02\n      dup3\n      add\n      sload\n      dup2\n      mstore\n      0x20\n      add\n      0x03\n      dup3\n      add\n      0x00\n      swap1\n      sload\n      swap1\n      0x0100\n      exp\n      swap1\n      div\n      0xff\n      and\n      iszero\n      iszero\n      iszero\n      iszero\n      dup2\n      mstore\n      pop\n      pop\n        /* \"contracts/GeekNftMarketPlace.sol\":6350:6356  result */\n      dup3\n        /* \"contracts/GeekNftMarketPlace.sol\":6357:6364  counter */\n      dup5\n        /* \"contracts/GeekNftMarketPlace.sol\":6350:6365  result[counter] */\n      dup2\n      mload\n      dup2\n      lt\n      tag_141\n      jumpi\n      mstore(0x00, 0x4e487b7100000000000000000000000000000000000000000000000000000000)\n      mstore(0x04, 0x32)\n      revert(0x00, 0x24)\n    tag_141:\n      0x20\n      mul\n      0x20\n      add\n      add\n        /* \"contracts/GeekNftMarketPlace.sol\":6350:6376  result[counter] = items[i] */\n      dup2\n      swap1\n      mstore\n      pop\n        /* \"contracts/GeekNftMarketPlace.sol\":6394:6403  counter++ */\n      dup3\n      dup1\n      tag_142\n      swap1\n      tag_119\n      jump\t// in\n    tag_142:\n      swap4\n      pop\n      pop\n        /* \"contracts/GeekNftMarketPlace.sol\":6277:6418  if(itemToCatId[i] == _catId && items[i].toSell == true){... */\n    tag_138:\n        /* \"contracts/GeekNftMarketPlace.sol\":6258:6261  i++ */\n      dup1\n      dup1\n      tag_143\n      swap1\n      tag_119\n      jump\t// in\n    tag_143:\n      swap2\n      pop\n      pop\n        /* \"contracts/GeekNftMarketPlace.sol\":6224:6428  for(uint i = 0; i < items.length; i++) {... */\n      jump(tag_132)\n    tag_133:\n      pop\n        /* \"contracts/GeekNftMarketPlace.sol\":6445:6451  result */\n      dup1\n        /* \"contracts/GeekNftMarketPlace.sol\":6438:6451  return result */\n      swap3\n      pop\n      pop\n      pop\n        /* \"contracts/GeekNftMarketPlace.sol\":6038:6458  function fetchItemsToSellByCatId(uint _catId) public view returns (Item[] memory){... */\n      swap2\n      swap1\n      pop\n      jump\t// out\n        /* \"contracts/GeekNftMarketPlace.sol\":5252:5636  function fetchItemsByOwner() public view returns (Item[] memory){... */\n    tag_47:\n        /* \"contracts/GeekNftMarketPlace.sol\":5302:5315  Item[] memory */\n      0x60\n        /* \"contracts/GeekNftMarketPlace.sol\":5326:5338  uint counter */\n      0x00\n        /* \"contracts/GeekNftMarketPlace.sol\":5352:5372  Item[] memory result */\n      dup1\n        /* \"contracts/GeekNftMarketPlace.sol\":5386:5401  itemsOwnerCount */\n      0x07\n        /* \"contracts/GeekNftMarketPlace.sol\":5386:5413  itemsOwnerCount[msg.sender] */\n      0x00\n        /* \"contracts/GeekNftMarketPlace.sol\":5402:5412  msg.sender */\n      caller\n        /* \"contracts/GeekNftMarketPlace.sol\":5386:5413  itemsOwnerCount[msg.sender] */\n      0xffffffffffffffffffffffffffffffffffffffff\n      and\n      0xffffffffffffffffffffffffffffffffffffffff\n      and\n      dup2\n      mstore\n      0x20\n      add\n      swap1\n      dup2\n      mstore\n      0x20\n      add\n      0x00\n      keccak256\n      sload\n        /* \"contracts/GeekNftMarketPlace.sol\":5375:5414  new Item[](itemsOwnerCount[msg.sender]) */\n      0xffffffffffffffff\n      dup2\n      gt\n      iszero\n      tag_145\n      jumpi\n      mstore(0x00, 0x4e487b7100000000000000000000000000000000000000000000000000000000)\n      mstore(0x04, 0x41)\n      revert(0x00, 0x24)\n    tag_145:\n      mload(0x40)\n      swap1\n      dup1\n      dup3\n      mstore\n      dup1\n      0x20\n      mul\n      0x20\n      add\n      dup3\n      add\n      0x40\n      mstore\n      dup1\n      iszero\n      tag_146\n      jumpi\n      dup2\n      0x20\n      add\n    tag_147:\n      tag_148\n      tag_108\n      jump\t// in\n    tag_148:\n      dup2\n      mstore\n      0x20\n      add\n      swap1\n      0x01\n      swap1\n      sub\n      swap1\n      dup2\n      tag_147\n      jumpi\n      swap1\n      pop\n    tag_146:\n      pop\n        /* \"contracts/GeekNftMarketPlace.sol\":5352:5414  Item[] memory result = new Item[](itemsOwnerCount[msg.sender]) */\n      swap1\n      pop\n        /* \"contracts/GeekNftMarketPlace.sol\":5429:5435  uint i */\n      0x00\n        /* \"contracts/GeekNftMarketPlace.sol\":5425:5606  for(uint i = 0; i < items.length; i++) {... */\n    tag_149:\n        /* \"contracts/GeekNftMarketPlace.sol\":5445:5450  items */\n      0x03\n        /* \"contracts/GeekNftMarketPlace.sol\":5445:5457  items.length */\n      dup1\n      sload\n      swap1\n      pop\n        /* \"contracts/GeekNftMarketPlace.sol\":5441:5442  i */\n      dup2\n        /* \"contracts/GeekNftMarketPlace.sol\":5441:5457  i < items.length */\n      lt\n        /* \"contracts/GeekNftMarketPlace.sol\":5425:5606  for(uint i = 0; i < items.length; i++) {... */\n      iszero\n      tag_150\n      jumpi\n        /* \"contracts/GeekNftMarketPlace.sol\":5499:5509  msg.sender */\n      caller\n        /* \"contracts/GeekNftMarketPlace.sol\":5481:5509  itemToOwner[i] == msg.sender */\n      0xffffffffffffffffffffffffffffffffffffffff\n      and\n        /* \"contracts/GeekNftMarketPlace.sol\":5481:5492  itemToOwner */\n      0x08\n        /* \"contracts/GeekNftMarketPlace.sol\":5481:5495  itemToOwner[i] */\n      0x00\n        /* \"contracts/GeekNftMarketPlace.sol\":5493:5494  i */\n      dup4\n        /* \"contracts/GeekNftMarketPlace.sol\":5481:5495  itemToOwner[i] */\n      dup2\n      mstore\n      0x20\n      add\n      swap1\n      dup2\n      mstore\n      0x20\n      add\n      0x00\n      keccak256\n      0x00\n      swap1\n      sload\n      swap1\n      0x0100\n      exp\n      swap1\n      div\n      0xffffffffffffffffffffffffffffffffffffffff\n      and\n        /* \"contracts/GeekNftMarketPlace.sol\":5481:5509  itemToOwner[i] == msg.sender */\n      0xffffffffffffffffffffffffffffffffffffffff\n      and\n      eq\n        /* \"contracts/GeekNftMarketPlace.sol\":5478:5596  if(itemToOwner[i] == msg.sender){... */\n      iszero\n      tag_152\n      jumpi\n        /* \"contracts/GeekNftMarketPlace.sol\":5546:5551  items */\n      0x03\n        /* \"contracts/GeekNftMarketPlace.sol\":5552:5553  i */\n      dup2\n        /* \"contracts/GeekNftMarketPlace.sol\":5546:5554  items[i] */\n      dup2\n      sload\n      dup2\n      lt\n      tag_153\n      jumpi\n      mstore(0x00, 0x4e487b7100000000000000000000000000000000000000000000000000000000)\n      mstore(0x04, 0x32)\n      revert(0x00, 0x24)\n    tag_153:\n      swap1\n      0x00\n      mstore\n      keccak256(0x00, 0x20)\n      swap1\n      0x04\n      mul\n      add\n        /* \"contracts/GeekNftMarketPlace.sol\":5528:5554  result[counter] = items[i] */\n      mload(0x40)\n      dup1\n      0x80\n      add\n      0x40\n      mstore\n      swap1\n      dup2\n      0x00\n      dup3\n      add\n      sload\n      dup2\n      mstore\n      0x20\n      add\n      0x01\n      dup3\n      add\n      sload\n      dup2\n      mstore\n      0x20\n      add\n      0x02\n      dup3\n      add\n      sload\n      dup2\n      mstore\n      0x20\n      add\n      0x03\n      dup3\n      add\n      0x00\n      swap1\n      sload\n      swap1\n      0x0100\n      exp\n      swap1\n      div\n      0xff\n      and\n      iszero\n      iszero\n      iszero\n      iszero\n      dup2\n      mstore\n      pop\n      pop\n        /* \"contracts/GeekNftMarketPlace.sol\":5528:5534  result */\n      dup3\n        /* \"contracts/GeekNftMarketPlace.sol\":5535:5542  counter */\n      dup5\n        /* \"contracts/GeekNftMarketPlace.sol\":5528:5543  result[counter] */\n      dup2\n      mload\n      dup2\n      lt\n      tag_155\n      jumpi\n      mstore(0x00, 0x4e487b7100000000000000000000000000000000000000000000000000000000)\n      mstore(0x04, 0x32)\n      revert(0x00, 0x24)\n    tag_155:\n      0x20\n      mul\n      0x20\n      add\n      add\n        /* \"contracts/GeekNftMarketPlace.sol\":5528:5554  result[counter] = items[i] */\n      dup2\n      swap1\n      mstore\n      pop\n        /* \"contracts/GeekNftMarketPlace.sol\":5572:5581  counter++ */\n      dup3\n      dup1\n      tag_156\n      swap1\n      tag_119\n      jump\t// in\n    tag_156:\n      swap4\n      pop\n      pop\n        /* \"contracts/GeekNftMarketPlace.sol\":5478:5596  if(itemToOwner[i] == msg.sender){... */\n    tag_152:\n        /* \"contracts/GeekNftMarketPlace.sol\":5459:5462  i++ */\n      dup1\n      dup1\n      tag_157\n      swap1\n      tag_119\n      jump\t// in\n    tag_157:\n      swap2\n      pop\n      pop\n        /* \"contracts/GeekNftMarketPlace.sol\":5425:5606  for(uint i = 0; i < items.length; i++) {... */\n      jump(tag_149)\n    tag_150:\n      pop\n        /* \"contracts/GeekNftMarketPlace.sol\":5623:5629  result */\n      dup1\n        /* \"contracts/GeekNftMarketPlace.sol\":5616:5629  return result */\n      swap3\n      pop\n      pop\n      pop\n        /* \"contracts/GeekNftMarketPlace.sol\":5252:5636  function fetchItemsByOwner() public view returns (Item[] memory){... */\n      swap1\n      jump\t// out\n        /* \"contracts/GeekNftMarketPlace.sol\":4572:4873  function fetchItemByDataId(uint _dataId) public view returns (Item memory){... */\n    tag_52:\n        /* \"contracts/GeekNftMarketPlace.sol\":4634:4645  Item memory */\n      tag_158\n      tag_108\n      jump\t// in\n    tag_158:\n        /* \"contracts/GeekNftMarketPlace.sol\":4656:4672  Item memory item */\n      tag_160\n      tag_108\n      jump\t// in\n    tag_160:\n        /* \"contracts/GeekNftMarketPlace.sol\":4686:4692  uint i */\n      0x00\n        /* \"contracts/GeekNftMarketPlace.sol\":4682:4846  for(uint i = 0; i < items.length; i++) {... */\n    tag_161:\n        /* \"contracts/GeekNftMarketPlace.sol\":4702:4707  items */\n      0x03\n        /* \"contracts/GeekNftMarketPlace.sol\":4702:4714  items.length */\n      dup1\n      sload\n      swap1\n      pop\n        /* \"contracts/GeekNftMarketPlace.sol\":4698:4699  i */\n      dup2\n        /* \"contracts/GeekNftMarketPlace.sol\":4698:4714  i < items.length */\n      lt\n        /* \"contracts/GeekNftMarketPlace.sol\":4682:4846  for(uint i = 0; i < items.length; i++) {... */\n      iszero\n      tag_162\n      jumpi\n        /* \"contracts/GeekNftMarketPlace.sol\":4757:4764  _dataId */\n      dup4\n        /* \"contracts/GeekNftMarketPlace.sol\":4738:4743  items */\n      0x03\n        /* \"contracts/GeekNftMarketPlace.sol\":4744:4745  i */\n      dup3\n        /* \"contracts/GeekNftMarketPlace.sol\":4738:4746  items[i] */\n      dup2\n      sload\n      dup2\n      lt\n      tag_164\n      jumpi\n      mstore(0x00, 0x4e487b7100000000000000000000000000000000000000000000000000000000)\n      mstore(0x04, 0x32)\n      revert(0x00, 0x24)\n    tag_164:\n      swap1\n      0x00\n      mstore\n      keccak256(0x00, 0x20)\n      swap1\n      0x04\n      mul\n      add\n        /* \"contracts/GeekNftMarketPlace.sol\":4738:4753  items[i].dataId */\n      0x00\n      add\n      sload\n        /* \"contracts/GeekNftMarketPlace.sol\":4738:4764  items[i].dataId == _dataId */\n      eq\n        /* \"contracts/GeekNftMarketPlace.sol\":4735:4836  if(items[i].dataId == _dataId){... */\n      iszero\n      tag_166\n      jumpi\n        /* \"contracts/GeekNftMarketPlace.sol\":4790:4795  items */\n      0x03\n        /* \"contracts/GeekNftMarketPlace.sol\":4796:4797  i */\n      dup2\n        /* \"contracts/GeekNftMarketPlace.sol\":4790:4798  items[i] */\n      dup2\n      sload\n      dup2\n      lt\n      tag_167\n      jumpi\n      mstore(0x00, 0x4e487b7100000000000000000000000000000000000000000000000000000000)\n      mstore(0x04, 0x32)\n      revert(0x00, 0x24)\n    tag_167:\n      swap1\n      0x00\n      mstore\n      keccak256(0x00, 0x20)\n      swap1\n      0x04\n      mul\n      add\n        /* \"contracts/GeekNftMarketPlace.sol\":4783:4798  item = items[i] */\n      mload(0x40)\n      dup1\n      0x80\n      add\n      0x40\n      mstore\n      swap1\n      dup2\n      0x00\n      dup3\n      add\n      sload\n      dup2\n      mstore\n      0x20\n      add\n      0x01\n      dup3\n      add\n      sload\n      dup2\n      mstore\n      0x20\n      add\n      0x02\n      dup3\n      add\n      sload\n      dup2\n      mstore\n      0x20\n      add\n      0x03\n      dup3\n      add\n      0x00\n      swap1\n      sload\n      swap1\n      0x0100\n      exp\n      swap1\n      div\n      0xff\n      and\n      iszero\n      iszero\n      iszero\n      iszero\n      dup2\n      mstore\n      pop\n      pop\n      swap2\n      pop\n        /* \"contracts/GeekNftMarketPlace.sol\":4816:4821  break */\n      jump(tag_162)\n        /* \"contracts/GeekNftMarketPlace.sol\":4735:4836  if(items[i].dataId == _dataId){... */\n    tag_166:\n        /* \"contracts/GeekNftMarketPlace.sol\":4716:4719  i++ */\n      dup1\n      dup1\n      tag_169\n      swap1\n      tag_119\n      jump\t// in\n    tag_169:\n      swap2\n      pop\n      pop\n        /* \"contracts/GeekNftMarketPlace.sol\":4682:4846  for(uint i = 0; i < items.length; i++) {... */\n      jump(tag_161)\n    tag_162:\n      pop\n        /* \"contracts/GeekNftMarketPlace.sol\":4862:4866  item */\n      dup1\n        /* \"contracts/GeekNftMarketPlace.sol\":4855:4866  return item */\n      swap2\n      pop\n      pop\n        /* \"contracts/GeekNftMarketPlace.sol\":4572:4873  function fetchItemByDataId(uint _dataId) public view returns (Item memory){... */\n      swap2\n      swap1\n      pop\n      jump\t// out\n        /* \"contracts/GeekNftMarketPlace.sol\":3601:3707  function ownerOf(uint _tokenId) public view returns (address){... */\n    tag_58:\n        /* \"contracts/GeekNftMarketPlace.sol\":3654:3661  address */\n      0x00\n        /* \"contracts/GeekNftMarketPlace.sol\":3679:3690  itemToOwner */\n      0x08\n        /* \"contracts/GeekNftMarketPlace.sol\":3679:3700  itemToOwner[_tokenId] */\n      0x00\n        /* \"contracts/GeekNftMarketPlace.sol\":3691:3699  _tokenId */\n      dup4\n        /* \"contracts/GeekNftMarketPlace.sol\":3679:3700  itemToOwner[_tokenId] */\n      dup2\n      mstore\n      0x20\n      add\n      swap1\n      dup2\n      mstore\n      0x20\n      add\n      0x00\n      keccak256\n      0x00\n      swap1\n      sload\n      swap1\n      0x0100\n      exp\n      swap1\n      div\n      0xffffffffffffffffffffffffffffffffffffffff\n      and\n        /* \"contracts/GeekNftMarketPlace.sol\":3672:3700  return itemToOwner[_tokenId] */\n      swap1\n      pop\n        /* \"contracts/GeekNftMarketPlace.sol\":3601:3707  function ownerOf(uint _tokenId) public view returns (address){... */\n      swap2\n      swap1\n      pop\n      jump\t// out\n        /* \"contracts/GeekNftMarketPlace.sol\":5642:6032  function fetchItemsByCreator() public view returns (Item[] memory){... */\n    tag_63:\n        /* \"contracts/GeekNftMarketPlace.sol\":5694:5707  Item[] memory */\n      0x60\n        /* \"contracts/GeekNftMarketPlace.sol\":5718:5730  uint counter */\n      0x00\n        /* \"contracts/GeekNftMarketPlace.sol\":5744:5764  Item[] memory result */\n      dup1\n        /* \"contracts/GeekNftMarketPlace.sol\":5778:5795  itemsCreatorCount */\n      0x09\n        /* \"contracts/GeekNftMarketPlace.sol\":5778:5807  itemsCreatorCount[msg.sender] */\n      0x00\n        /* \"contracts/GeekNftMarketPlace.sol\":5796:5806  msg.sender */\n      caller\n        /* \"contracts/GeekNftMarketPlace.sol\":5778:5807  itemsCreatorCount[msg.sender] */\n      0xffffffffffffffffffffffffffffffffffffffff\n      and\n      0xffffffffffffffffffffffffffffffffffffffff\n      and\n      dup2\n      mstore\n      0x20\n      add\n      swap1\n      dup2\n      mstore\n      0x20\n      add\n      0x00\n      keccak256\n      sload\n        /* \"contracts/GeekNftMarketPlace.sol\":5767:5808  new Item[](itemsCreatorCount[msg.sender]) */\n      0xffffffffffffffff\n      dup2\n      gt\n      iszero\n      tag_172\n      jumpi\n      mstore(0x00, 0x4e487b7100000000000000000000000000000000000000000000000000000000)\n      mstore(0x04, 0x41)\n      revert(0x00, 0x24)\n    tag_172:\n      mload(0x40)\n      swap1\n      dup1\n      dup3\n      mstore\n      dup1\n      0x20\n      mul\n      0x20\n      add\n      dup3\n      add\n      0x40\n      mstore\n      dup1\n      iszero\n      tag_173\n      jumpi\n      dup2\n      0x20\n      add\n    tag_174:\n      tag_175\n      tag_108\n      jump\t// in\n    tag_175:\n      dup2\n      mstore\n      0x20\n      add\n      swap1\n      0x01\n      swap1\n      sub\n      swap1\n      dup2\n      tag_174\n      jumpi\n      swap1\n      pop\n    tag_173:\n      pop\n        /* \"contracts/GeekNftMarketPlace.sol\":5744:5808  Item[] memory result = new Item[](itemsCreatorCount[msg.sender]) */\n      swap1\n      pop\n        /* \"contracts/GeekNftMarketPlace.sol\":5823:5829  uint i */\n      0x00\n        /* \"contracts/GeekNftMarketPlace.sol\":5819:6002  for(uint i = 0; i < items.length; i++) {... */\n    tag_176:\n        /* \"contracts/GeekNftMarketPlace.sol\":5839:5844  items */\n      0x03\n        /* \"contracts/GeekNftMarketPlace.sol\":5839:5851  items.length */\n      dup1\n      sload\n      swap1\n      pop\n        /* \"contracts/GeekNftMarketPlace.sol\":5835:5836  i */\n      dup2\n        /* \"contracts/GeekNftMarketPlace.sol\":5835:5851  i < items.length */\n      lt\n        /* \"contracts/GeekNftMarketPlace.sol\":5819:6002  for(uint i = 0; i < items.length; i++) {... */\n      iszero\n      tag_177\n      jumpi\n        /* \"contracts/GeekNftMarketPlace.sol\":5895:5905  msg.sender */\n      caller\n        /* \"contracts/GeekNftMarketPlace.sol\":5875:5905  itemToCreator[i] == msg.sender */\n      0xffffffffffffffffffffffffffffffffffffffff\n      and\n        /* \"contracts/GeekNftMarketPlace.sol\":5875:5888  itemToCreator */\n      0x0a\n        /* \"contracts/GeekNftMarketPlace.sol\":5875:5891  itemToCreator[i] */\n      0x00\n        /* \"contracts/GeekNftMarketPlace.sol\":5889:5890  i */\n      dup4\n        /* \"contracts/GeekNftMarketPlace.sol\":5875:5891  itemToCreator[i] */\n      dup2\n      mstore\n      0x20\n      add\n      swap1\n      dup2\n      mstore\n      0x20\n      add\n      0x00\n      keccak256\n      0x00\n      swap1\n      sload\n      swap1\n      0x0100\n      exp\n      swap1\n      div\n      0xffffffffffffffffffffffffffffffffffffffff\n      and\n        /* \"contracts/GeekNftMarketPlace.sol\":5875:5905  itemToCreator[i] == msg.sender */\n      0xffffffffffffffffffffffffffffffffffffffff\n      and\n      eq\n        /* \"contracts/GeekNftMarketPlace.sol\":5872:5992  if(itemToCreator[i] == msg.sender){... */\n      iszero\n      tag_179\n      jumpi\n        /* \"contracts/GeekNftMarketPlace.sol\":5942:5947  items */\n      0x03\n        /* \"contracts/GeekNftMarketPlace.sol\":5948:5949  i */\n      dup2\n        /* \"contracts/GeekNftMarketPlace.sol\":5942:5950  items[i] */\n      dup2\n      sload\n      dup2\n      lt\n      tag_180\n      jumpi\n      mstore(0x00, 0x4e487b7100000000000000000000000000000000000000000000000000000000)\n      mstore(0x04, 0x32)\n      revert(0x00, 0x24)\n    tag_180:\n      swap1\n      0x00\n      mstore\n      keccak256(0x00, 0x20)\n      swap1\n      0x04\n      mul\n      add\n        /* \"contracts/GeekNftMarketPlace.sol\":5924:5950  result[counter] = items[i] */\n      mload(0x40)\n      dup1\n      0x80\n      add\n      0x40\n      mstore\n      swap1\n      dup2\n      0x00\n      dup3\n      add\n      sload\n      dup2\n      mstore\n      0x20\n      add\n      0x01\n      dup3\n      add\n      sload\n      dup2\n      mstore\n      0x20\n      add\n      0x02\n      dup3\n      add\n      sload\n      dup2\n      mstore\n      0x20\n      add\n      0x03\n      dup3\n      add\n      0x00\n      swap1\n      sload\n      swap1\n      0x0100\n      exp\n      swap1\n      div\n      0xff\n      and\n      iszero\n      iszero\n      iszero\n      iszero\n      dup2\n      mstore\n      pop\n      pop\n        /* \"contracts/GeekNftMarketPlace.sol\":5924:5930  result */\n      dup3\n        /* \"contracts/GeekNftMarketPlace.sol\":5931:5938  counter */\n      dup5\n        /* \"contracts/GeekNftMarketPlace.sol\":5924:5939  result[counter] */\n      dup2\n      mload\n      dup2\n      lt\n      tag_182\n      jumpi\n      mstore(0x00, 0x4e487b7100000000000000000000000000000000000000000000000000000000)\n      mstore(0x04, 0x32)\n      revert(0x00, 0x24)\n    tag_182:\n      0x20\n      mul\n      0x20\n      add\n      add\n        /* \"contracts/GeekNftMarketPlace.sol\":5924:5950  result[counter] = items[i] */\n      dup2\n      swap1\n      mstore\n      pop\n        /* \"contracts/GeekNftMarketPlace.sol\":5968:5977  counter++ */\n      dup3\n      dup1\n      tag_183\n      swap1\n      tag_119\n      jump\t// in\n    tag_183:\n      swap4\n      pop\n      pop\n        /* \"contracts/GeekNftMarketPlace.sol\":5872:5992  if(itemToCreator[i] == msg.sender){... */\n    tag_179:\n        /* \"contracts/GeekNftMarketPlace.sol\":5853:5856  i++ */\n      dup1\n      dup1\n      tag_184\n      swap1\n      tag_119\n      jump\t// in\n    tag_184:\n      swap2\n      pop\n      pop\n        /* \"contracts/GeekNftMarketPlace.sol\":5819:6002  for(uint i = 0; i < items.length; i++) {... */\n      jump(tag_176)\n    tag_177:\n      pop\n        /* \"contracts/GeekNftMarketPlace.sol\":6019:6025  result */\n      dup1\n        /* \"contracts/GeekNftMarketPlace.sol\":6012:6025  return result */\n      swap3\n      pop\n      pop\n      pop\n        /* \"contracts/GeekNftMarketPlace.sol\":5642:6032  function fetchItemsByCreator() public view returns (Item[] memory){... */\n      swap1\n      jump\t// out\n        /* \"contracts/GeekNftMarketPlace.sol\":3713:3821  function balanceOf(address _owner) public view returns (uint){... */\n    tag_69:\n        /* \"contracts/GeekNftMarketPlace.sol\":3769:3773  uint */\n      0x00\n        /* \"contracts/GeekNftMarketPlace.sol\":3791:3806  itemsOwnerCount */\n      0x07\n        /* \"contracts/GeekNftMarketPlace.sol\":3791:3814  itemsOwnerCount[_owner] */\n      0x00\n        /* \"contracts/GeekNftMarketPlace.sol\":3807:3813  _owner */\n      dup4\n        /* \"contracts/GeekNftMarketPlace.sol\":3791:3814  itemsOwnerCount[_owner] */\n      0xffffffffffffffffffffffffffffffffffffffff\n      and\n      0xffffffffffffffffffffffffffffffffffffffff\n      and\n      dup2\n      mstore\n      0x20\n      add\n      swap1\n      dup2\n      mstore\n      0x20\n      add\n      0x00\n      keccak256\n      sload\n        /* \"contracts/GeekNftMarketPlace.sol\":3784:3814  return itemsOwnerCount[_owner] */\n      swap1\n      pop\n        /* \"contracts/GeekNftMarketPlace.sol\":3713:3821  function balanceOf(address _owner) public view returns (uint){... */\n      swap2\n      swap1\n      pop\n      jump\t// out\n        /* \"contracts/GeekNftMarketPlace.sol\":2485:3595  function sellItem(uint _tokenId) public payable{... */\n    tag_73:\n        /* \"contracts/GeekNftMarketPlace.sol\":2563:2568  items */\n      0x03\n        /* \"contracts/GeekNftMarketPlace.sol\":2569:2577  _tokenId */\n      dup2\n        /* \"contracts/GeekNftMarketPlace.sol\":2563:2578  items[_tokenId] */\n      dup2\n      sload\n      dup2\n      lt\n      tag_187\n      jumpi\n      mstore(0x00, 0x4e487b7100000000000000000000000000000000000000000000000000000000)\n      mstore(0x04, 0x32)\n      revert(0x00, 0x24)\n    tag_187:\n      swap1\n      0x00\n      mstore\n      keccak256(0x00, 0x20)\n      swap1\n      0x04\n      mul\n      add\n        /* \"contracts/GeekNftMarketPlace.sol\":2563:2584  items[_tokenId].price */\n      0x02\n      add\n      sload\n        /* \"contracts/GeekNftMarketPlace.sol\":2550:2559  msg.value */\n      callvalue\n        /* \"contracts/GeekNftMarketPlace.sol\":2550:2584  msg.value == items[_tokenId].price */\n      eq\n        /* \"contracts/GeekNftMarketPlace.sol\":2542:2642  require(msg.value == items[_tokenId].price, \"transaction's value cannot be different of item price\") */\n      tag_189\n      jumpi\n      mload(0x40)\n      0x08c379a000000000000000000000000000000000000000000000000000000000\n      dup2\n      mstore\n      0x04\n      add\n      tag_190\n      swap1\n      tag_191\n      jump\t// in\n    tag_190:\n      mload(0x40)\n      dup1\n      swap2\n      sub\n      swap1\n      revert\n    tag_189:\n        /* \"contracts/GeekNftMarketPlace.sol\":2693:2694  0 */\n      0x00\n        /* \"contracts/GeekNftMarketPlace.sol\":2660:2695  itemToOwner[_tokenId] != address(0) */\n      0xffffffffffffffffffffffffffffffffffffffff\n      and\n        /* \"contracts/GeekNftMarketPlace.sol\":2660:2671  itemToOwner */\n      0x08\n        /* \"contracts/GeekNftMarketPlace.sol\":2660:2681  itemToOwner[_tokenId] */\n      0x00\n        /* \"contracts/GeekNftMarketPlace.sol\":2672:2680  _tokenId */\n      dup4\n        /* \"contracts/GeekNftMarketPlace.sol\":2660:2681  itemToOwner[_tokenId] */\n      dup2\n      mstore\n      0x20\n      add\n      swap1\n      dup2\n      mstore\n      0x20\n      add\n      0x00\n      keccak256\n      0x00\n      swap1\n      sload\n      swap1\n      0x0100\n      exp\n      swap1\n      div\n      0xffffffffffffffffffffffffffffffffffffffff\n      and\n        /* \"contracts/GeekNftMarketPlace.sol\":2660:2695  itemToOwner[_tokenId] != address(0) */\n      0xffffffffffffffffffffffffffffffffffffffff\n      and\n      eq\n      iszero\n        /* \"contracts/GeekNftMarketPlace.sol\":2652:2719  require(itemToOwner[_tokenId] != address(0), \"token doesn't exist\") */\n      tag_192\n      jumpi\n      mload(0x40)\n      0x08c379a000000000000000000000000000000000000000000000000000000000\n      dup2\n      mstore\n      0x04\n      add\n      tag_193\n      swap1\n      tag_194\n      jump\t// in\n    tag_193:\n      mload(0x40)\n      dup1\n      swap2\n      sub\n      swap1\n      revert\n    tag_192:\n        /* \"contracts/GeekNftMarketPlace.sol\":2762:2772  msg.sender */\n      caller\n        /* \"contracts/GeekNftMarketPlace.sol\":2737:2772  itemToOwner[_tokenId] != msg.sender */\n      0xffffffffffffffffffffffffffffffffffffffff\n      and\n        /* \"contracts/GeekNftMarketPlace.sol\":2737:2748  itemToOwner */\n      0x08\n        /* \"contracts/GeekNftMarketPlace.sol\":2737:2758  itemToOwner[_tokenId] */\n      0x00\n        /* \"contracts/GeekNftMarketPlace.sol\":2749:2757  _tokenId */\n      dup4\n        /* \"contracts/GeekNftMarketPlace.sol\":2737:2758  itemToOwner[_tokenId] */\n      dup2\n      mstore\n      0x20\n      add\n      swap1\n      dup2\n      mstore\n      0x20\n      add\n      0x00\n      keccak256\n      0x00\n      swap1\n      sload\n      swap1\n      0x0100\n      exp\n      swap1\n      div\n      0xffffffffffffffffffffffffffffffffffffffff\n      and\n        /* \"contracts/GeekNftMarketPlace.sol\":2737:2772  itemToOwner[_tokenId] != msg.sender */\n      0xffffffffffffffffffffffffffffffffffffffff\n      and\n      eq\n      iszero\n        /* \"contracts/GeekNftMarketPlace.sol\":2729:2818  require(itemToOwner[_tokenId] != msg.sender, \"you can't buy an item that belongs to you\") */\n      tag_195\n      jumpi\n      mload(0x40)\n      0x08c379a000000000000000000000000000000000000000000000000000000000\n      dup2\n      mstore\n      0x04\n      add\n      tag_196\n      swap1\n      tag_197\n      jump\t// in\n    tag_196:\n      mload(0x40)\n      dup1\n      swap2\n      sub\n      swap1\n      revert\n    tag_195:\n        /* \"contracts/GeekNftMarketPlace.sol\":2829:2845  address oldOwner */\n      0x00\n        /* \"contracts/GeekNftMarketPlace.sol\":2848:2859  itemToOwner */\n      0x08\n        /* \"contracts/GeekNftMarketPlace.sol\":2848:2869  itemToOwner[_tokenId] */\n      0x00\n        /* \"contracts/GeekNftMarketPlace.sol\":2860:2868  _tokenId */\n      dup4\n        /* \"contracts/GeekNftMarketPlace.sol\":2848:2869  itemToOwner[_tokenId] */\n      dup2\n      mstore\n      0x20\n      add\n      swap1\n      dup2\n      mstore\n      0x20\n      add\n      0x00\n      keccak256\n      0x00\n      swap1\n      sload\n      swap1\n      0x0100\n      exp\n      swap1\n      div\n      0xffffffffffffffffffffffffffffffffffffffff\n      and\n        /* \"contracts/GeekNftMarketPlace.sol\":2829:2869  address oldOwner = itemToOwner[_tokenId] */\n      swap1\n      pop\n        /* \"contracts/GeekNftMarketPlace.sol\":2888:2911  Item storage itemToSell */\n      0x00\n        /* \"contracts/GeekNftMarketPlace.sol\":2914:2919  items */\n      0x03\n        /* \"contracts/GeekNftMarketPlace.sol\":2920:2928  _tokenId */\n      dup4\n        /* \"contracts/GeekNftMarketPlace.sol\":2914:2929  items[_tokenId] */\n      dup2\n      sload\n      dup2\n      lt\n      tag_198\n      jumpi\n      mstore(0x00, 0x4e487b7100000000000000000000000000000000000000000000000000000000)\n      mstore(0x04, 0x32)\n      revert(0x00, 0x24)\n    tag_198:\n      swap1\n      0x00\n      mstore\n      keccak256(0x00, 0x20)\n      swap1\n      0x04\n      mul\n      add\n        /* \"contracts/GeekNftMarketPlace.sol\":2888:2929  Item storage itemToSell = items[_tokenId] */\n      swap1\n      pop\n        /* \"contracts/GeekNftMarketPlace.sol\":2959:2964  false */\n      0x00\n        /* \"contracts/GeekNftMarketPlace.sol\":2939:2949  itemToSell */\n      dup2\n        /* \"contracts/GeekNftMarketPlace.sol\":2939:2956  itemToSell.toSell */\n      0x03\n      add\n      0x00\n        /* \"contracts/GeekNftMarketPlace.sol\":2939:2964  itemToSell.toSell = false */\n      0x0100\n      exp\n      dup2\n      sload\n      dup2\n      0xff\n      mul\n      not\n      and\n      swap1\n      dup4\n      iszero\n      iszero\n      mul\n      or\n      swap1\n      sstore\n      pop\n        /* \"contracts/GeekNftMarketPlace.sol\":2999:3009  msg.sender */\n      caller\n        /* \"contracts/GeekNftMarketPlace.sol\":2975:2986  itemToOwner */\n      0x08\n        /* \"contracts/GeekNftMarketPlace.sol\":2975:2996  itemToOwner[_tokenId] */\n      0x00\n        /* \"contracts/GeekNftMarketPlace.sol\":2987:2995  _tokenId */\n      dup6\n        /* \"contracts/GeekNftMarketPlace.sol\":2975:2996  itemToOwner[_tokenId] */\n      dup2\n      mstore\n      0x20\n      add\n      swap1\n      dup2\n      mstore\n      0x20\n      add\n      0x00\n      keccak256\n      0x00\n        /* \"contracts/GeekNftMarketPlace.sol\":2975:3009  itemToOwner[_tokenId] = msg.sender */\n      0x0100\n      exp\n      dup2\n      sload\n      dup2\n      0xffffffffffffffffffffffffffffffffffffffff\n      mul\n      not\n      and\n      swap1\n      dup4\n      0xffffffffffffffffffffffffffffffffffffffff\n      and\n      mul\n      or\n      swap1\n      sstore\n      pop\n        /* \"contracts/GeekNftMarketPlace.sol\":3043:3058  itemsOwnerCount */\n      0x07\n        /* \"contracts/GeekNftMarketPlace.sol\":3043:3068  itemsOwnerCount[oldOwner] */\n      0x00\n        /* \"contracts/GeekNftMarketPlace.sol\":3059:3067  oldOwner */\n      dup4\n        /* \"contracts/GeekNftMarketPlace.sol\":3043:3068  itemsOwnerCount[oldOwner] */\n      0xffffffffffffffffffffffffffffffffffffffff\n      and\n      0xffffffffffffffffffffffffffffffffffffffff\n      and\n      dup2\n      mstore\n      0x20\n      add\n      swap1\n      dup2\n      mstore\n      0x20\n      add\n      0x00\n      keccak256\n      0x00\n        /* \"contracts/GeekNftMarketPlace.sol\":3043:3070  itemsOwnerCount[oldOwner]-- */\n      dup2\n      sload\n      dup1\n      swap3\n      swap2\n      swap1\n      0x01\n      swap1\n      sub\n      swap2\n      swap1\n      pop\n      sstore\n      pop\n        /* \"contracts/GeekNftMarketPlace.sol\":3084:3099  itemsOwnerCount */\n      0x07\n        /* \"contracts/GeekNftMarketPlace.sol\":3084:3111  itemsOwnerCount[msg.sender] */\n      0x00\n        /* \"contracts/GeekNftMarketPlace.sol\":3100:3110  msg.sender */\n      caller\n        /* \"contracts/GeekNftMarketPlace.sol\":3084:3111  itemsOwnerCount[msg.sender] */\n      0xffffffffffffffffffffffffffffffffffffffff\n      and\n      0xffffffffffffffffffffffffffffffffffffffff\n      and\n      dup2\n      mstore\n      0x20\n      add\n      swap1\n      dup2\n      mstore\n      0x20\n      add\n      0x00\n      keccak256\n      0x00\n        /* \"contracts/GeekNftMarketPlace.sol\":3084:3113  itemsOwnerCount[msg.sender]++ */\n      dup2\n      sload\n      dup1\n      swap3\n      swap2\n      swap1\n      0x01\n      add\n      swap2\n      swap1\n      pop\n      sstore\n      pop\n        /* \"contracts/GeekNftMarketPlace.sol\":3127:3143  itemsToSellCount */\n      0x04\n      0x00\n        /* \"contracts/GeekNftMarketPlace.sol\":3127:3145  itemsToSellCount-- */\n      dup2\n      sload\n      dup1\n      swap3\n      swap2\n      swap1\n      0x01\n      swap1\n      sub\n      swap2\n      swap1\n      pop\n      sstore\n      pop\n        /* \"contracts/GeekNftMarketPlace.sol\":3196:3204  oldOwner */\n      dup2\n        /* \"contracts/GeekNftMarketPlace.sol\":3169:3204  itemToCreator[_tokenId] == oldOwner */\n      0xffffffffffffffffffffffffffffffffffffffff\n      and\n        /* \"contracts/GeekNftMarketPlace.sol\":3169:3182  itemToCreator */\n      0x0a\n        /* \"contracts/GeekNftMarketPlace.sol\":3169:3192  itemToCreator[_tokenId] */\n      0x00\n        /* \"contracts/GeekNftMarketPlace.sol\":3183:3191  _tokenId */\n      dup6\n        /* \"contracts/GeekNftMarketPlace.sol\":3169:3192  itemToCreator[_tokenId] */\n      dup2\n      mstore\n      0x20\n      add\n      swap1\n      dup2\n      mstore\n      0x20\n      add\n      0x00\n      keccak256\n      0x00\n      swap1\n      sload\n      swap1\n      0x0100\n      exp\n      swap1\n      div\n      0xffffffffffffffffffffffffffffffffffffffff\n      and\n        /* \"contracts/GeekNftMarketPlace.sol\":3169:3204  itemToCreator[_tokenId] == oldOwner */\n      0xffffffffffffffffffffffffffffffffffffffff\n      and\n      eq\n        /* \"contracts/GeekNftMarketPlace.sol\":3166:3533  if(itemToCreator[_tokenId] == oldOwner){... */\n      iszero\n      tag_200\n      jumpi\n        /* \"contracts/GeekNftMarketPlace.sol\":3227:3235  oldOwner */\n      dup2\n        /* \"contracts/GeekNftMarketPlace.sol\":3219:3245  payable(oldOwner).transfer */\n      0xffffffffffffffffffffffffffffffffffffffff\n      and\n        /* \"contracts/GeekNftMarketPlace.sol\":3219:3256  payable(oldOwner).transfer(msg.value) */\n      0x08fc\n        /* \"contracts/GeekNftMarketPlace.sol\":3246:3255  msg.value */\n      callvalue\n        /* \"contracts/GeekNftMarketPlace.sol\":3219:3256  payable(oldOwner).transfer(msg.value) */\n      swap1\n      dup2\n      iszero\n      mul\n      swap1\n      mload(0x40)\n      0x00\n      mload(0x40)\n      dup1\n      dup4\n      sub\n      dup2\n      dup6\n      dup9\n      dup9\n      call\n      swap4\n      pop\n      pop\n      pop\n      pop\n      iszero\n      dup1\n      iszero\n      tag_202\n      jumpi\n      returndatasize\n      0x00\n      dup1\n      returndatacopy\n      revert(0x00, returndatasize)\n    tag_202:\n      pop\n        /* \"contracts/GeekNftMarketPlace.sol\":3166:3533  if(itemToCreator[_tokenId] == oldOwner){... */\n      jump(tag_203)\n    tag_200:\n        /* \"contracts/GeekNftMarketPlace.sol\":3287:3296  uint fees */\n      0x00\n        /* \"contracts/GeekNftMarketPlace.sol\":3310:3329  uint totalMinusFees */\n      dup1\n        /* \"contracts/GeekNftMarketPlace.sol\":3368:3405  getFees(msg.value, creatorPercentage) */\n      tag_204\n        /* \"contracts/GeekNftMarketPlace.sol\":3376:3385  msg.value */\n      callvalue\n        /* \"contracts/GeekNftMarketPlace.sol\":3387:3404  creatorPercentage */\n      sload(0x06)\n        /* \"contracts/GeekNftMarketPlace.sol\":3368:3375  getFees */\n      tag_205\n        /* \"contracts/GeekNftMarketPlace.sol\":3368:3405  getFees(msg.value, creatorPercentage) */\n      jump\t// in\n    tag_204:\n        /* \"contracts/GeekNftMarketPlace.sol\":3343:3405  (fees, totalMinusFees) = getFees(msg.value, creatorPercentage) */\n      dup1\n      swap3\n      pop\n      dup2\n      swap4\n      pop\n      pop\n      pop\n        /* \"contracts/GeekNftMarketPlace.sol\":3427:3440  itemToCreator */\n      0x0a\n        /* \"contracts/GeekNftMarketPlace.sol\":3427:3450  itemToCreator[_tokenId] */\n      0x00\n        /* \"contracts/GeekNftMarketPlace.sol\":3441:3449  _tokenId */\n      dup7\n        /* \"contracts/GeekNftMarketPlace.sol\":3427:3450  itemToCreator[_tokenId] */\n      dup2\n      mstore\n      0x20\n      add\n      swap1\n      dup2\n      mstore\n      0x20\n      add\n      0x00\n      keccak256\n      0x00\n      swap1\n      sload\n      swap1\n      0x0100\n      exp\n      swap1\n      div\n      0xffffffffffffffffffffffffffffffffffffffff\n      and\n        /* \"contracts/GeekNftMarketPlace.sol\":3419:3460  payable(itemToCreator[_tokenId]).transfer */\n      0xffffffffffffffffffffffffffffffffffffffff\n      and\n        /* \"contracts/GeekNftMarketPlace.sol\":3419:3466  payable(itemToCreator[_tokenId]).transfer(fees) */\n      0x08fc\n        /* \"contracts/GeekNftMarketPlace.sol\":3461:3465  fees */\n      dup4\n        /* \"contracts/GeekNftMarketPlace.sol\":3419:3466  payable(itemToCreator[_tokenId]).transfer(fees) */\n      swap1\n      dup2\n      iszero\n      mul\n      swap1\n      mload(0x40)\n      0x00\n      mload(0x40)\n      dup1\n      dup4\n      sub\n      dup2\n      dup6\n      dup9\n      dup9\n      call\n      swap4\n      pop\n      pop\n      pop\n      pop\n      iszero\n      dup1\n      iszero\n      tag_207\n      jumpi\n      returndatasize\n      0x00\n      dup1\n      returndatacopy\n      revert(0x00, returndatasize)\n    tag_207:\n      pop\n        /* \"contracts/GeekNftMarketPlace.sol\":3488:3496  oldOwner */\n      dup4\n        /* \"contracts/GeekNftMarketPlace.sol\":3480:3506  payable(oldOwner).transfer */\n      0xffffffffffffffffffffffffffffffffffffffff\n      and\n        /* \"contracts/GeekNftMarketPlace.sol\":3480:3522  payable(oldOwner).transfer(totalMinusFees) */\n      0x08fc\n        /* \"contracts/GeekNftMarketPlace.sol\":3507:3521  totalMinusFees */\n      dup3\n        /* \"contracts/GeekNftMarketPlace.sol\":3480:3522  payable(oldOwner).transfer(totalMinusFees) */\n      swap1\n      dup2\n      iszero\n      mul\n      swap1\n      mload(0x40)\n      0x00\n      mload(0x40)\n      dup1\n      dup4\n      sub\n      dup2\n      dup6\n      dup9\n      dup9\n      call\n      swap4\n      pop\n      pop\n      pop\n      pop\n      iszero\n      dup1\n      iszero\n      tag_209\n      jumpi\n      returndatasize\n      0x00\n      dup1\n      returndatacopy\n      revert(0x00, returndatasize)\n    tag_209:\n      pop\n        /* \"contracts/GeekNftMarketPlace.sol\":3166:3533  if(itemToCreator[_tokenId] == oldOwner){... */\n      pop\n      pop\n    tag_203:\n        /* \"contracts/GeekNftMarketPlace.sol\":3567:3577  msg.sender */\n      caller\n        /* \"contracts/GeekNftMarketPlace.sol\":3548:3588  Transfer(oldOwner, msg.sender, _tokenId) */\n      0xffffffffffffffffffffffffffffffffffffffff\n      and\n        /* \"contracts/GeekNftMarketPlace.sol\":3557:3565  oldOwner */\n      dup3\n        /* \"contracts/GeekNftMarketPlace.sol\":3548:3588  Transfer(oldOwner, msg.sender, _tokenId) */\n      0xffffffffffffffffffffffffffffffffffffffff\n      and\n      0xddf252ad1be2c89b69c2b068fc378daa952ba7f163c4a11628f55a4df523b3ef\n        /* \"contracts/GeekNftMarketPlace.sol\":3579:3587  _tokenId */\n      dup6\n        /* \"contracts/GeekNftMarketPlace.sol\":3548:3588  Transfer(oldOwner, msg.sender, _tokenId) */\n      mload(0x40)\n      tag_210\n      swap2\n      swap1\n      tag_25\n      jump\t// in\n    tag_210:\n      mload(0x40)\n      dup1\n      swap2\n      sub\n      swap1\n      log3\n        /* \"contracts/GeekNftMarketPlace.sol\":2485:3595  function sellItem(uint _tokenId) public payable{... */\n      pop\n      pop\n      pop\n      jump\t// out\n        /* \"contracts/GeekNftMarketPlace.sol\":1390:1484  function getCreateItemFees() public view returns (uint) {... */\n    tag_76:\n        /* \"contracts/GeekNftMarketPlace.sol\":1440:1444  uint */\n      0x00\n        /* \"contracts/GeekNftMarketPlace.sol\":1463:1477  createItemFees */\n      sload(0x05)\n        /* \"contracts/GeekNftMarketPlace.sol\":1456:1477  return createItemFees */\n      swap1\n      pop\n        /* \"contracts/GeekNftMarketPlace.sol\":1390:1484  function getCreateItemFees() public view returns (uint) {... */\n      swap1\n      jump\t// out\n        /* \"contracts/GeekNftMarketPlace.sol\":3827:4156  function removeItemToSell(uint _tokenId) public onlyItemOwner(_tokenId) {... */\n    tag_81:\n        /* \"contracts/GeekNftMarketPlace.sol\":3889:3897  _tokenId */\n      dup1\n        /* \"contracts/GeekNftMarketPlace.sol\":1066:1076  msg.sender */\n      caller\n        /* \"contracts/GeekNftMarketPlace.sol\":1041:1076  itemToOwner[_tokenId] == msg.sender */\n      0xffffffffffffffffffffffffffffffffffffffff\n      and\n        /* \"contracts/GeekNftMarketPlace.sol\":1041:1052  itemToOwner */\n      0x08\n        /* \"contracts/GeekNftMarketPlace.sol\":1041:1062  itemToOwner[_tokenId] */\n      0x00\n        /* \"contracts/GeekNftMarketPlace.sol\":1053:1061  _tokenId */\n      dup4\n        /* \"contracts/GeekNftMarketPlace.sol\":1041:1062  itemToOwner[_tokenId] */\n      dup2\n      mstore\n      0x20\n      add\n      swap1\n      dup2\n      mstore\n      0x20\n      add\n      0x00\n      keccak256\n      0x00\n      swap1\n      sload\n      swap1\n      0x0100\n      exp\n      swap1\n      div\n      0xffffffffffffffffffffffffffffffffffffffff\n      and\n        /* \"contracts/GeekNftMarketPlace.sol\":1041:1076  itemToOwner[_tokenId] == msg.sender */\n      0xffffffffffffffffffffffffffffffffffffffff\n      and\n      eq\n        /* \"contracts/GeekNftMarketPlace.sol\":1033:1110  require(itemToOwner[_tokenId] == msg.sender, \"Only item's owner can do that\") */\n      tag_213\n      jumpi\n      mload(0x40)\n      0x08c379a000000000000000000000000000000000000000000000000000000000\n      dup2\n      mstore\n      0x04\n      add\n      tag_214\n      swap1\n      tag_215\n      jump\t// in\n    tag_214:\n      mload(0x40)\n      dup1\n      swap2\n      sub\n      swap1\n      revert\n    tag_213:\n        /* \"contracts/GeekNftMarketPlace.sol\":3950:3951  0 */\n      0x00\n        /* \"contracts/GeekNftMarketPlace.sol\":3917:3952  itemToOwner[_tokenId] != address(0) */\n      0xffffffffffffffffffffffffffffffffffffffff\n      and\n        /* \"contracts/GeekNftMarketPlace.sol\":3917:3928  itemToOwner */\n      0x08\n        /* \"contracts/GeekNftMarketPlace.sol\":3917:3938  itemToOwner[_tokenId] */\n      0x00\n        /* \"contracts/GeekNftMarketPlace.sol\":3929:3937  _tokenId */\n      dup5\n        /* \"contracts/GeekNftMarketPlace.sol\":3917:3938  itemToOwner[_tokenId] */\n      dup2\n      mstore\n      0x20\n      add\n      swap1\n      dup2\n      mstore\n      0x20\n      add\n      0x00\n      keccak256\n      0x00\n      swap1\n      sload\n      swap1\n      0x0100\n      exp\n      swap1\n      div\n      0xffffffffffffffffffffffffffffffffffffffff\n      and\n        /* \"contracts/GeekNftMarketPlace.sol\":3917:3952  itemToOwner[_tokenId] != address(0) */\n      0xffffffffffffffffffffffffffffffffffffffff\n      and\n      eq\n      iszero\n        /* \"contracts/GeekNftMarketPlace.sol\":3909:3976  require(itemToOwner[_tokenId] != address(0), \"token doesn't exist\") */\n      tag_217\n      jumpi\n      mload(0x40)\n      0x08c379a000000000000000000000000000000000000000000000000000000000\n      dup2\n      mstore\n      0x04\n      add\n      tag_218\n      swap1\n      tag_194\n      jump\t// in\n    tag_218:\n      mload(0x40)\n      dup1\n      swap2\n      sub\n      swap1\n      revert\n    tag_217:\n        /* \"contracts/GeekNftMarketPlace.sol\":4020:4024  true */\n      0x01\n        /* \"contracts/GeekNftMarketPlace.sol\":3994:4024  items[_tokenId].toSell == true */\n      iszero\n      iszero\n        /* \"contracts/GeekNftMarketPlace.sol\":3994:3999  items */\n      0x03\n        /* \"contracts/GeekNftMarketPlace.sol\":4000:4008  _tokenId */\n      dup4\n        /* \"contracts/GeekNftMarketPlace.sol\":3994:4009  items[_tokenId] */\n      dup2\n      sload\n      dup2\n      lt\n      tag_219\n      jumpi\n      mstore(0x00, 0x4e487b7100000000000000000000000000000000000000000000000000000000)\n      mstore(0x04, 0x32)\n      revert(0x00, 0x24)\n    tag_219:\n      swap1\n      0x00\n      mstore\n      keccak256(0x00, 0x20)\n      swap1\n      0x04\n      mul\n      add\n        /* \"contracts/GeekNftMarketPlace.sol\":3994:4016  items[_tokenId].toSell */\n      0x03\n      add\n      0x00\n      swap1\n      sload\n      swap1\n      0x0100\n      exp\n      swap1\n      div\n      0xff\n      and\n        /* \"contracts/GeekNftMarketPlace.sol\":3994:4024  items[_tokenId].toSell == true */\n      iszero\n      iszero\n      eq\n        /* \"contracts/GeekNftMarketPlace.sol\":3986:4048  require(items[_tokenId].toSell == true, \"token isn't to sell\") */\n      tag_221\n      jumpi\n      mload(0x40)\n      0x08c379a000000000000000000000000000000000000000000000000000000000\n      dup2\n      mstore\n      0x04\n      add\n      tag_222\n      swap1\n      tag_223\n      jump\t// in\n    tag_222:\n      mload(0x40)\n      dup1\n      swap2\n      sub\n      swap1\n      revert\n    tag_221:\n        /* \"contracts/GeekNftMarketPlace.sol\":4083:4088  false */\n      0x00\n        /* \"contracts/GeekNftMarketPlace.sol\":4058:4063  items */\n      0x03\n        /* \"contracts/GeekNftMarketPlace.sol\":4064:4072  _tokenId */\n      dup4\n        /* \"contracts/GeekNftMarketPlace.sol\":4058:4073  items[_tokenId] */\n      dup2\n      sload\n      dup2\n      lt\n      tag_224\n      jumpi\n      mstore(0x00, 0x4e487b7100000000000000000000000000000000000000000000000000000000)\n      mstore(0x04, 0x32)\n      revert(0x00, 0x24)\n    tag_224:\n      swap1\n      0x00\n      mstore\n      keccak256(0x00, 0x20)\n      swap1\n      0x04\n      mul\n      add\n        /* \"contracts/GeekNftMarketPlace.sol\":4058:4080  items[_tokenId].toSell */\n      0x03\n      add\n      0x00\n        /* \"contracts/GeekNftMarketPlace.sol\":4058:4088  items[_tokenId].toSell = false */\n      0x0100\n      exp\n      dup2\n      sload\n      dup2\n      0xff\n      mul\n      not\n      and\n      swap1\n      dup4\n      iszero\n      iszero\n      mul\n      or\n      swap1\n      sstore\n      pop\n        /* \"contracts/GeekNftMarketPlace.sol\":4121:4137  itemsToSellCount */\n      0x04\n      0x00\n        /* \"contracts/GeekNftMarketPlace.sol\":4121:4139  itemsToSellCount-- */\n      dup2\n      sload\n      dup1\n      swap3\n      swap2\n      swap1\n      0x01\n      swap1\n      sub\n      swap2\n      swap1\n      pop\n      sstore\n      pop\n        /* \"contracts/GeekNftMarketPlace.sol\":3827:4156  function removeItemToSell(uint _tokenId) public onlyItemOwner(_tokenId) {... */\n      pop\n      pop\n      jump\t// out\n        /* \"contracts/GeekNftMarketPlace.sol\":4162:4566  function addItemToSell(uint _tokenId) public payable sendCorrectFeesValue onlyItemOwner(_tokenId) {... */\n    tag_84:\n        /* \"contracts/GeekNftMarketPlace.sol\":1197:1211  createItemFees */\n      sload(0x05)\n        /* \"contracts/GeekNftMarketPlace.sol\":1184:1193  msg.value */\n      callvalue\n        /* \"contracts/GeekNftMarketPlace.sol\":1184:1211  msg.value == createItemFees */\n      eq\n        /* \"contracts/GeekNftMarketPlace.sol\":1176:1249  require(msg.value == createItemFees, \"Thanks to send correct fees value\") */\n      tag_227\n      jumpi\n      mload(0x40)\n      0x08c379a000000000000000000000000000000000000000000000000000000000\n      dup2\n      mstore\n      0x04\n      add\n      tag_228\n      swap1\n      tag_92\n      jump\t// in\n    tag_228:\n      mload(0x40)\n      dup1\n      swap2\n      sub\n      swap1\n      revert\n    tag_227:\n        /* \"contracts/GeekNftMarketPlace.sol\":4250:4258  _tokenId */\n      dup1\n        /* \"contracts/GeekNftMarketPlace.sol\":1066:1076  msg.sender */\n      caller\n        /* \"contracts/GeekNftMarketPlace.sol\":1041:1076  itemToOwner[_tokenId] == msg.sender */\n      0xffffffffffffffffffffffffffffffffffffffff\n      and\n        /* \"contracts/GeekNftMarketPlace.sol\":1041:1052  itemToOwner */\n      0x08\n        /* \"contracts/GeekNftMarketPlace.sol\":1041:1062  itemToOwner[_tokenId] */\n      0x00\n        /* \"contracts/GeekNftMarketPlace.sol\":1053:1061  _tokenId */\n      dup4\n        /* \"contracts/GeekNftMarketPlace.sol\":1041:1062  itemToOwner[_tokenId] */\n      dup2\n      mstore\n      0x20\n      add\n      swap1\n      dup2\n      mstore\n      0x20\n      add\n      0x00\n      keccak256\n      0x00\n      swap1\n      sload\n      swap1\n      0x0100\n      exp\n      swap1\n      div\n      0xffffffffffffffffffffffffffffffffffffffff\n      and\n        /* \"contracts/GeekNftMarketPlace.sol\":1041:1076  itemToOwner[_tokenId] == msg.sender */\n      0xffffffffffffffffffffffffffffffffffffffff\n      and\n      eq\n        /* \"contracts/GeekNftMarketPlace.sol\":1033:1110  require(itemToOwner[_tokenId] == msg.sender, \"Only item's owner can do that\") */\n      tag_230\n      jumpi\n      mload(0x40)\n      0x08c379a000000000000000000000000000000000000000000000000000000000\n      dup2\n      mstore\n      0x04\n      add\n      tag_231\n      swap1\n      tag_215\n      jump\t// in\n    tag_231:\n      mload(0x40)\n      dup1\n      swap2\n      sub\n      swap1\n      revert\n    tag_230:\n        /* \"contracts/GeekNftMarketPlace.sol\":4311:4312  0 */\n      0x00\n        /* \"contracts/GeekNftMarketPlace.sol\":4278:4313  itemToOwner[_tokenId] != address(0) */\n      0xffffffffffffffffffffffffffffffffffffffff\n      and\n        /* \"contracts/GeekNftMarketPlace.sol\":4278:4289  itemToOwner */\n      0x08\n        /* \"contracts/GeekNftMarketPlace.sol\":4278:4299  itemToOwner[_tokenId] */\n      0x00\n        /* \"contracts/GeekNftMarketPlace.sol\":4290:4298  _tokenId */\n      dup5\n        /* \"contracts/GeekNftMarketPlace.sol\":4278:4299  itemToOwner[_tokenId] */\n      dup2\n      mstore\n      0x20\n      add\n      swap1\n      dup2\n      mstore\n      0x20\n      add\n      0x00\n      keccak256\n      0x00\n      swap1\n      sload\n      swap1\n      0x0100\n      exp\n      swap1\n      div\n      0xffffffffffffffffffffffffffffffffffffffff\n      and\n        /* \"contracts/GeekNftMarketPlace.sol\":4278:4313  itemToOwner[_tokenId] != address(0) */\n      0xffffffffffffffffffffffffffffffffffffffff\n      and\n      eq\n      iszero\n        /* \"contracts/GeekNftMarketPlace.sol\":4270:4337  require(itemToOwner[_tokenId] != address(0), \"token doesn't exist\") */\n      tag_233\n      jumpi\n      mload(0x40)\n      0x08c379a000000000000000000000000000000000000000000000000000000000\n      dup2\n      mstore\n      0x04\n      add\n      tag_234\n      swap1\n      tag_194\n      jump\t// in\n    tag_234:\n      mload(0x40)\n      dup1\n      swap2\n      sub\n      swap1\n      revert\n    tag_233:\n        /* \"contracts/GeekNftMarketPlace.sol\":4381:4386  false */\n      0x00\n        /* \"contracts/GeekNftMarketPlace.sol\":4355:4386  items[_tokenId].toSell == false */\n      iszero\n      iszero\n        /* \"contracts/GeekNftMarketPlace.sol\":4355:4360  items */\n      0x03\n        /* \"contracts/GeekNftMarketPlace.sol\":4361:4369  _tokenId */\n      dup4\n        /* \"contracts/GeekNftMarketPlace.sol\":4355:4370  items[_tokenId] */\n      dup2\n      sload\n      dup2\n      lt\n      tag_235\n      jumpi\n      mstore(0x00, 0x4e487b7100000000000000000000000000000000000000000000000000000000)\n      mstore(0x04, 0x32)\n      revert(0x00, 0x24)\n    tag_235:\n      swap1\n      0x00\n      mstore\n      keccak256(0x00, 0x20)\n      swap1\n      0x04\n      mul\n      add\n        /* \"contracts/GeekNftMarketPlace.sol\":4355:4377  items[_tokenId].toSell */\n      0x03\n      add\n      0x00\n      swap1\n      sload\n      swap1\n      0x0100\n      exp\n      swap1\n      div\n      0xff\n      and\n        /* \"contracts/GeekNftMarketPlace.sol\":4355:4386  items[_tokenId].toSell == false */\n      iszero\n      iszero\n      eq\n        /* \"contracts/GeekNftMarketPlace.sol\":4347:4415  require(items[_tokenId].toSell == false, \"token is already to sell\") */\n      tag_237\n      jumpi\n      mload(0x40)\n      0x08c379a000000000000000000000000000000000000000000000000000000000\n      dup2\n      mstore\n      0x04\n      add\n      tag_238\n      swap1\n      tag_239\n      jump\t// in\n    tag_238:\n      mload(0x40)\n      dup1\n      swap2\n      sub\n      swap1\n      revert\n    tag_237:\n        /* \"contracts/GeekNftMarketPlace.sol\":4450:4454  true */\n      0x01\n        /* \"contracts/GeekNftMarketPlace.sol\":4425:4430  items */\n      0x03\n        /* \"contracts/GeekNftMarketPlace.sol\":4431:4439  _tokenId */\n      dup4\n        /* \"contracts/GeekNftMarketPlace.sol\":4425:4440  items[_tokenId] */\n      dup2\n      sload\n      dup2\n      lt\n      tag_240\n      jumpi\n      mstore(0x00, 0x4e487b7100000000000000000000000000000000000000000000000000000000)\n      mstore(0x04, 0x32)\n      revert(0x00, 0x24)\n    tag_240:\n      swap1\n      0x00\n      mstore\n      keccak256(0x00, 0x20)\n      swap1\n      0x04\n      mul\n      add\n        /* \"contracts/GeekNftMarketPlace.sol\":4425:4447  items[_tokenId].toSell */\n      0x03\n      add\n      0x00\n        /* \"contracts/GeekNftMarketPlace.sol\":4425:4454  items[_tokenId].toSell = true */\n      0x0100\n      exp\n      dup2\n      sload\n      dup2\n      0xff\n      mul\n      not\n      and\n      swap1\n      dup4\n      iszero\n      iszero\n      mul\n      or\n      swap1\n      sstore\n      pop\n        /* \"contracts/GeekNftMarketPlace.sol\":4487:4503  itemsToSellCount */\n      0x04\n      0x00\n        /* \"contracts/GeekNftMarketPlace.sol\":4487:4505  itemsToSellCount++ */\n      dup2\n      sload\n      dup1\n      swap3\n      swap2\n      swap1\n      0x01\n      add\n      swap2\n      swap1\n      pop\n      sstore\n      pop\n        /* \"contracts/GeekNftMarketPlace.sol\":4533:4538  owner */\n      0x02\n      0x00\n      swap1\n      sload\n      swap1\n      0x0100\n      exp\n      swap1\n      div\n      0xffffffffffffffffffffffffffffffffffffffff\n      and\n        /* \"contracts/GeekNftMarketPlace.sol\":4525:4548  payable(owner).transfer */\n      0xffffffffffffffffffffffffffffffffffffffff\n      and\n        /* \"contracts/GeekNftMarketPlace.sol\":4525:4559  payable(owner).transfer(msg.value) */\n      0x08fc\n        /* \"contracts/GeekNftMarketPlace.sol\":4549:4558  msg.value */\n      callvalue\n        /* \"contracts/GeekNftMarketPlace.sol\":4525:4559  payable(owner).transfer(msg.value) */\n      swap1\n      dup2\n      iszero\n      mul\n      swap1\n      mload(0x40)\n      0x00\n      mload(0x40)\n      dup1\n      dup4\n      sub\n      dup2\n      dup6\n      dup9\n      dup9\n      call\n      swap4\n      pop\n      pop\n      pop\n      pop\n      iszero\n      dup1\n      iszero\n      tag_243\n      jumpi\n      returndatasize\n      0x00\n      dup1\n      returndatacopy\n      revert(0x00, returndatasize)\n    tag_243:\n      pop\n        /* \"contracts/GeekNftMarketPlace.sol\":1259:1260  _ */\n      pop\n        /* \"contracts/GeekNftMarketPlace.sol\":4162:4566  function addItemToSell(uint _tokenId) public payable sendCorrectFeesValue onlyItemOwner(_tokenId) {... */\n      pop\n      jump\t// out\n        /* \"contracts/GeekNftMarketPlace.sol\":1273:1384  function updateCreateItemFees(uint _newFees) public onlyContractOwner{... */\n    tag_88:\n        /* \"contracts/GeekNftMarketPlace.sol\":918:923  owner */\n      0x02\n      0x00\n      swap1\n      sload\n      swap1\n      0x0100\n      exp\n      swap1\n      div\n      0xffffffffffffffffffffffffffffffffffffffff\n      and\n        /* \"contracts/GeekNftMarketPlace.sol\":904:923  msg.sender == owner */\n      0xffffffffffffffffffffffffffffffffffffffff\n      and\n        /* \"contracts/GeekNftMarketPlace.sol\":904:914  msg.sender */\n      caller\n        /* \"contracts/GeekNftMarketPlace.sol\":904:923  msg.sender == owner */\n      0xffffffffffffffffffffffffffffffffffffffff\n      and\n      eq\n        /* \"contracts/GeekNftMarketPlace.sol\":896:961  require(msg.sender == owner, \"Only contract's owner can do that\") */\n      tag_245\n      jumpi\n      mload(0x40)\n      0x08c379a000000000000000000000000000000000000000000000000000000000\n      dup2\n      mstore\n      0x04\n      add\n      tag_246\n      swap1\n      tag_125\n      jump\t// in\n    tag_246:\n      mload(0x40)\n      dup1\n      swap2\n      sub\n      swap1\n      revert\n    tag_245:\n        /* \"contracts/GeekNftMarketPlace.sol\":1369:1377  _newFees */\n      dup1\n        /* \"contracts/GeekNftMarketPlace.sol\":1352:1366  createItemFees */\n      0x05\n        /* \"contracts/GeekNftMarketPlace.sol\":1352:1377  createItemFees = _newFees */\n      dup2\n      swap1\n      sstore\n      pop\n        /* \"contracts/GeekNftMarketPlace.sol\":1273:1384  function updateCreateItemFees(uint _newFees) public onlyContractOwner{... */\n      pop\n      jump\t// out\n        /* \"contracts/GeekNftMarketPlace.sol\":6529:6751  function getFees(uint _price, uint _percentage) private pure returns (uint, uint){... */\n    tag_205:\n        /* \"contracts/GeekNftMarketPlace.sol\":6599:6603  uint */\n      0x00\n        /* \"contracts/GeekNftMarketPlace.sol\":6605:6609  uint */\n      dup1\n        /* \"contracts/GeekNftMarketPlace.sol\":6620:6629  uint fees */\n      0x00\n        /* \"contracts/GeekNftMarketPlace.sol\":6657:6660  100 */\n      0x64\n        /* \"contracts/GeekNftMarketPlace.sol\":6647:6653  _price */\n      dup6\n        /* \"contracts/GeekNftMarketPlace.sol\":6633:6644  _percentage */\n      dup6\n        /* \"contracts/GeekNftMarketPlace.sol\":6633:6653  _percentage * _price */\n      tag_249\n      swap2\n      swap1\n      tag_250\n      jump\t// in\n    tag_249:\n        /* \"contracts/GeekNftMarketPlace.sol\":6632:6660  (_percentage * _price) / 100 */\n      tag_251\n      swap2\n      swap1\n      tag_252\n      jump\t// in\n    tag_251:\n        /* \"contracts/GeekNftMarketPlace.sol\":6620:6660  uint fees = (_percentage * _price) / 100 */\n      swap1\n      pop\n        /* \"contracts/GeekNftMarketPlace.sol\":6670:6689  uint totalMinusFees */\n      0x00\n        /* \"contracts/GeekNftMarketPlace.sol\":6701:6705  fees */\n      dup2\n        /* \"contracts/GeekNftMarketPlace.sol\":6692:6698  _price */\n      dup7\n        /* \"contracts/GeekNftMarketPlace.sol\":6692:6705  _price - fees */\n      tag_253\n      swap2\n      swap1\n      tag_254\n      jump\t// in\n    tag_253:\n        /* \"contracts/GeekNftMarketPlace.sol\":6670:6705  uint totalMinusFees = _price - fees */\n      swap1\n      pop\n        /* \"contracts/GeekNftMarketPlace.sol\":6723:6727  fees */\n      dup2\n        /* \"contracts/GeekNftMarketPlace.sol\":6729:6743  totalMinusFees */\n      dup2\n        /* \"contracts/GeekNftMarketPlace.sol\":6715:6744  return (fees, totalMinusFees) */\n      swap4\n      pop\n      swap4\n      pop\n      pop\n      pop\n        /* \"contracts/GeekNftMarketPlace.sol\":6529:6751  function getFees(uint _price, uint _percentage) private pure returns (uint, uint){... */\n      swap3\n      pop\n      swap3\n      swap1\n      pop\n      jump\t// out\n    tag_108:\n      mload(0x40)\n      dup1\n      0x80\n      add\n      0x40\n      mstore\n      dup1\n      0x00\n      dup2\n      mstore\n      0x20\n      add\n      0x00\n      dup2\n      mstore\n      0x20\n      add\n      0x00\n      dup2\n      mstore\n      0x20\n      add\n      iszero(iszero(0x00))\n      dup2\n      mstore\n      pop\n      swap1\n      jump\t// out\n        /* \"#utility.yul\":7:146   */\n    tag_256:\n      0x00\n        /* \"#utility.yul\":91:97   */\n      dup2\n        /* \"#utility.yul\":78:98   */\n      calldataload\n        /* \"#utility.yul\":69:98   */\n      swap1\n      pop\n        /* \"#utility.yul\":107:140   */\n      tag_258\n        /* \"#utility.yul\":134:139   */\n      dup2\n        /* \"#utility.yul\":107:140   */\n      tag_259\n      jump\t// in\n    tag_258:\n        /* \"#utility.yul\":59:146   */\n      swap3\n      swap2\n      pop\n      pop\n      jump\t// out\n        /* \"#utility.yul\":152:291   */\n    tag_260:\n      0x00\n        /* \"#utility.yul\":236:242   */\n      dup2\n        /* \"#utility.yul\":223:243   */\n      calldataload\n        /* \"#utility.yul\":214:243   */\n      swap1\n      pop\n        /* \"#utility.yul\":252:285   */\n      tag_262\n        /* \"#utility.yul\":279:284   */\n      dup2\n        /* \"#utility.yul\":252:285   */\n      tag_263\n      jump\t// in\n    tag_262:\n        /* \"#utility.yul\":204:291   */\n      swap3\n      swap2\n      pop\n      pop\n      jump\t// out\n        /* \"#utility.yul\":297:559   */\n    tag_68:\n      0x00\n        /* \"#utility.yul\":405:407   */\n      0x20\n        /* \"#utility.yul\":393:402   */\n      dup3\n        /* \"#utility.yul\":384:391   */\n      dup5\n        /* \"#utility.yul\":380:403   */\n      sub\n        /* \"#utility.yul\":376:408   */\n      slt\n        /* \"#utility.yul\":373:375   */\n      iszero\n      tag_265\n      jumpi\n        /* \"#utility.yul\":421:422   */\n      0x00\n        /* \"#utility.yul\":418:419   */\n      dup1\n        /* \"#utility.yul\":411:423   */\n      revert\n        /* \"#utility.yul\":373:375   */\n    tag_265:\n        /* \"#utility.yul\":464:465   */\n      0x00\n        /* \"#utility.yul\":489:542   */\n      tag_266\n        /* \"#utility.yul\":534:541   */\n      dup5\n        /* \"#utility.yul\":525:531   */\n      dup3\n        /* \"#utility.yul\":514:523   */\n      dup6\n        /* \"#utility.yul\":510:532   */\n      add\n        /* \"#utility.yul\":489:542   */\n      tag_256\n      jump\t// in\n    tag_266:\n        /* \"#utility.yul\":479:542   */\n      swap2\n      pop\n        /* \"#utility.yul\":435:552   */\n      pop\n        /* \"#utility.yul\":363:559   */\n      swap3\n      swap2\n      pop\n      pop\n      jump\t// out\n        /* \"#utility.yul\":565:827   */\n    tag_38:\n      0x00\n        /* \"#utility.yul\":673:675   */\n      0x20\n        /* \"#utility.yul\":661:670   */\n      dup3\n        /* \"#utility.yul\":652:659   */\n      dup5\n        /* \"#utility.yul\":648:671   */\n      sub\n        /* \"#utility.yul\":644:676   */\n      slt\n        /* \"#utility.yul\":641:643   */\n      iszero\n      tag_268\n      jumpi\n        /* \"#utility.yul\":689:690   */\n      0x00\n        /* \"#utility.yul\":686:687   */\n      dup1\n        /* \"#utility.yul\":679:691   */\n      revert\n        /* \"#utility.yul\":641:643   */\n    tag_268:\n        /* \"#utility.yul\":732:733   */\n      0x00\n        /* \"#utility.yul\":757:810   */\n      tag_269\n        /* \"#utility.yul\":802:809   */\n      dup5\n        /* \"#utility.yul\":793:799   */\n      dup3\n        /* \"#utility.yul\":782:791   */\n      dup6\n        /* \"#utility.yul\":778:800   */\n      add\n        /* \"#utility.yul\":757:810   */\n      tag_260\n      jump\t// in\n    tag_269:\n        /* \"#utility.yul\":747:810   */\n      swap2\n      pop\n        /* \"#utility.yul\":703:820   */\n      pop\n        /* \"#utility.yul\":631:827   */\n      swap3\n      swap2\n      pop\n      pop\n      jump\t// out\n        /* \"#utility.yul\":833:1385   */\n    tag_22:\n      0x00\n      dup1\n      0x00\n        /* \"#utility.yul\":975:977   */\n      0x60\n        /* \"#utility.yul\":963:972   */\n      dup5\n        /* \"#utility.yul\":954:961   */\n      dup7\n        /* \"#utility.yul\":950:973   */\n      sub\n        /* \"#utility.yul\":946:978   */\n      slt\n        /* \"#utility.yul\":943:945   */\n      iszero\n      tag_271\n      jumpi\n        /* \"#utility.yul\":991:992   */\n      0x00\n        /* \"#utility.yul\":988:989   */\n      dup1\n        /* \"#utility.yul\":981:993   */\n      revert\n        /* \"#utility.yul\":943:945   */\n    tag_271:\n        /* \"#utility.yul\":1034:1035   */\n      0x00\n        /* \"#utility.yul\":1059:1112   */\n      tag_272\n        /* \"#utility.yul\":1104:1111   */\n      dup7\n        /* \"#utility.yul\":1095:1101   */\n      dup3\n        /* \"#utility.yul\":1084:1093   */\n      dup8\n        /* \"#utility.yul\":1080:1102   */\n      add\n        /* \"#utility.yul\":1059:1112   */\n      tag_260\n      jump\t// in\n    tag_272:\n        /* \"#utility.yul\":1049:1112   */\n      swap4\n      pop\n        /* \"#utility.yul\":1005:1122   */\n      pop\n        /* \"#utility.yul\":1161:1163   */\n      0x20\n        /* \"#utility.yul\":1187:1240   */\n      tag_273\n        /* \"#utility.yul\":1232:1239   */\n      dup7\n        /* \"#utility.yul\":1223:1229   */\n      dup3\n        /* \"#utility.yul\":1212:1221   */\n      dup8\n        /* \"#utility.yul\":1208:1230   */\n      add\n        /* \"#utility.yul\":1187:1240   */\n      tag_260\n      jump\t// in\n    tag_273:\n        /* \"#utility.yul\":1177:1240   */\n      swap3\n      pop\n        /* \"#utility.yul\":1132:1250   */\n      pop\n        /* \"#utility.yul\":1289:1291   */\n      0x40\n        /* \"#utility.yul\":1315:1368   */\n      tag_274\n        /* \"#utility.yul\":1360:1367   */\n      dup7\n        /* \"#utility.yul\":1351:1357   */\n      dup3\n        /* \"#utility.yul\":1340:1349   */\n      dup8\n        /* \"#utility.yul\":1336:1358   */\n      add\n        /* \"#utility.yul\":1315:1368   */\n      tag_260\n      jump\t// in\n    tag_274:\n        /* \"#utility.yul\":1305:1368   */\n      swap2\n      pop\n        /* \"#utility.yul\":1260:1378   */\n      pop\n        /* \"#utility.yul\":933:1385   */\n      swap3\n      pop\n      swap3\n      pop\n      swap3\n      jump\t// out\n        /* \"#utility.yul\":1391:1650   */\n    tag_275:\n      0x00\n        /* \"#utility.yul\":1521:1607   */\n      tag_277\n        /* \"#utility.yul\":1603:1606   */\n      dup4\n        /* \"#utility.yul\":1595:1601   */\n      dup4\n        /* \"#utility.yul\":1521:1607   */\n      tag_278\n      jump\t// in\n    tag_277:\n        /* \"#utility.yul\":1639:1643   */\n      0x80\n        /* \"#utility.yul\":1634:1637   */\n      dup4\n        /* \"#utility.yul\":1630:1644   */\n      add\n        /* \"#utility.yul\":1616:1644   */\n      swap1\n      pop\n        /* \"#utility.yul\":1511:1650   */\n      swap3\n      swap2\n      pop\n      pop\n      jump\t// out\n        /* \"#utility.yul\":1656:1774   */\n    tag_279:\n        /* \"#utility.yul\":1743:1767   */\n      tag_281\n        /* \"#utility.yul\":1761:1766   */\n      dup2\n        /* \"#utility.yul\":1743:1767   */\n      tag_282\n      jump\t// in\n    tag_281:\n        /* \"#utility.yul\":1738:1741   */\n      dup3\n        /* \"#utility.yul\":1731:1768   */\n      mstore\n        /* \"#utility.yul\":1721:1774   */\n      pop\n      pop\n      jump\t// out\n        /* \"#utility.yul\":1856:2748   */\n    tag_283:\n      0x00\n        /* \"#utility.yul\":2044:2118   */\n      tag_285\n        /* \"#utility.yul\":2112:2117   */\n      dup3\n        /* \"#utility.yul\":2044:2118   */\n      tag_286\n      jump\t// in\n    tag_285:\n        /* \"#utility.yul\":2134:2240   */\n      tag_287\n        /* \"#utility.yul\":2233:2239   */\n      dup2\n        /* \"#utility.yul\":2228:2231   */\n      dup6\n        /* \"#utility.yul\":2134:2240   */\n      tag_288\n      jump\t// in\n    tag_287:\n        /* \"#utility.yul\":2127:2240   */\n      swap4\n      pop\n        /* \"#utility.yul\":2264:2340   */\n      tag_289\n        /* \"#utility.yul\":2334:2339   */\n      dup4\n        /* \"#utility.yul\":2264:2340   */\n      tag_290\n      jump\t// in\n    tag_289:\n        /* \"#utility.yul\":2363:2370   */\n      dup1\n        /* \"#utility.yul\":2394:2395   */\n      0x00\n        /* \"#utility.yul\":2379:2723   */\n    tag_291:\n        /* \"#utility.yul\":2404:2410   */\n      dup4\n        /* \"#utility.yul\":2401:2402   */\n      dup2\n        /* \"#utility.yul\":2398:2411   */\n      lt\n        /* \"#utility.yul\":2379:2723   */\n      iszero\n      tag_293\n      jumpi\n        /* \"#utility.yul\":2480:2486   */\n      dup2\n        /* \"#utility.yul\":2474:2487   */\n      mload\n        /* \"#utility.yul\":2507:2610   */\n      tag_294\n        /* \"#utility.yul\":2606:2609   */\n      dup9\n        /* \"#utility.yul\":2591:2604   */\n      dup3\n        /* \"#utility.yul\":2507:2610   */\n      tag_275\n      jump\t// in\n    tag_294:\n        /* \"#utility.yul\":2500:2610   */\n      swap8\n      pop\n        /* \"#utility.yul\":2633:2713   */\n      tag_295\n        /* \"#utility.yul\":2706:2712   */\n      dup4\n        /* \"#utility.yul\":2633:2713   */\n      tag_296\n      jump\t// in\n    tag_295:\n        /* \"#utility.yul\":2623:2713   */\n      swap3\n      pop\n        /* \"#utility.yul\":2439:2723   */\n      pop\n        /* \"#utility.yul\":2426:2427   */\n      0x01\n        /* \"#utility.yul\":2423:2424   */\n      dup2\n        /* \"#utility.yul\":2419:2428   */\n      add\n        /* \"#utility.yul\":2414:2428   */\n      swap1\n      pop\n        /* \"#utility.yul\":2379:2723   */\n      jump(tag_291)\n    tag_293:\n        /* \"#utility.yul\":2383:2397   */\n      pop\n        /* \"#utility.yul\":2739:2742   */\n      dup6\n        /* \"#utility.yul\":2732:2742   */\n      swap4\n      pop\n        /* \"#utility.yul\":2020:2748   */\n      pop\n      pop\n      pop\n      swap3\n      swap2\n      pop\n      pop\n      jump\t// out\n        /* \"#utility.yul\":2754:2853   */\n    tag_297:\n        /* \"#utility.yul\":2825:2846   */\n      tag_299\n        /* \"#utility.yul\":2840:2845   */\n      dup2\n        /* \"#utility.yul\":2825:2846   */\n      tag_300\n      jump\t// in\n    tag_299:\n        /* \"#utility.yul\":2820:2823   */\n      dup3\n        /* \"#utility.yul\":2813:2847   */\n      mstore\n        /* \"#utility.yul\":2803:2853   */\n      pop\n      pop\n      jump\t// out\n        /* \"#utility.yul\":2859:3225   */\n    tag_301:\n      0x00\n        /* \"#utility.yul\":3022:3089   */\n      tag_303\n        /* \"#utility.yul\":3086:3088   */\n      0x29\n        /* \"#utility.yul\":3081:3084   */\n      dup4\n        /* \"#utility.yul\":3022:3089   */\n      tag_304\n      jump\t// in\n    tag_303:\n        /* \"#utility.yul\":3015:3089   */\n      swap2\n      pop\n        /* \"#utility.yul\":3098:3191   */\n      tag_305\n        /* \"#utility.yul\":3187:3190   */\n      dup3\n        /* \"#utility.yul\":3098:3191   */\n      tag_306\n      jump\t// in\n    tag_305:\n        /* \"#utility.yul\":3216:3218   */\n      0x40\n        /* \"#utility.yul\":3211:3214   */\n      dup3\n        /* \"#utility.yul\":3207:3219   */\n      add\n        /* \"#utility.yul\":3200:3219   */\n      swap1\n      pop\n        /* \"#utility.yul\":3005:3225   */\n      swap2\n      swap1\n      pop\n      jump\t// out\n        /* \"#utility.yul\":3231:3597   */\n    tag_307:\n      0x00\n        /* \"#utility.yul\":3394:3461   */\n      tag_309\n        /* \"#utility.yul\":3458:3460   */\n      0x13\n        /* \"#utility.yul\":3453:3456   */\n      dup4\n        /* \"#utility.yul\":3394:3461   */\n      tag_304\n      jump\t// in\n    tag_309:\n        /* \"#utility.yul\":3387:3461   */\n      swap2\n      pop\n        /* \"#utility.yul\":3470:3563   */\n      tag_310\n        /* \"#utility.yul\":3559:3562   */\n      dup3\n        /* \"#utility.yul\":3470:3563   */\n      tag_311\n      jump\t// in\n    tag_310:\n        /* \"#utility.yul\":3588:3590   */\n      0x20\n        /* \"#utility.yul\":3583:3586   */\n      dup3\n        /* \"#utility.yul\":3579:3591   */\n      add\n        /* \"#utility.yul\":3572:3591   */\n      swap1\n      pop\n        /* \"#utility.yul\":3377:3597   */\n      swap2\n      swap1\n      pop\n      jump\t// out\n        /* \"#utility.yul\":3603:3969   */\n    tag_312:\n      0x00\n        /* \"#utility.yul\":3766:3833   */\n      tag_314\n        /* \"#utility.yul\":3830:3832   */\n      0x13\n        /* \"#utility.yul\":3825:3828   */\n      dup4\n        /* \"#utility.yul\":3766:3833   */\n      tag_304\n      jump\t// in\n    tag_314:\n        /* \"#utility.yul\":3759:3833   */\n      swap2\n      pop\n        /* \"#utility.yul\":3842:3935   */\n      tag_315\n        /* \"#utility.yul\":3931:3934   */\n      dup3\n        /* \"#utility.yul\":3842:3935   */\n      tag_316\n      jump\t// in\n    tag_315:\n        /* \"#utility.yul\":3960:3962   */\n      0x20\n        /* \"#utility.yul\":3955:3958   */\n      dup3\n        /* \"#utility.yul\":3951:3963   */\n      add\n        /* \"#utility.yul\":3944:3963   */\n      swap1\n      pop\n        /* \"#utility.yul\":3749:3969   */\n      swap2\n      swap1\n      pop\n      jump\t// out\n        /* \"#utility.yul\":3975:4341   */\n    tag_317:\n      0x00\n        /* \"#utility.yul\":4138:4205   */\n      tag_319\n        /* \"#utility.yul\":4202:4204   */\n      0x35\n        /* \"#utility.yul\":4197:4200   */\n      dup4\n        /* \"#utility.yul\":4138:4205   */\n      tag_304\n      jump\t// in\n    tag_319:\n        /* \"#utility.yul\":4131:4205   */\n      swap2\n      pop\n        /* \"#utility.yul\":4214:4307   */\n      tag_320\n        /* \"#utility.yul\":4303:4306   */\n      dup3\n        /* \"#utility.yul\":4214:4307   */\n      tag_321\n      jump\t// in\n    tag_320:\n        /* \"#utility.yul\":4332:4334   */\n      0x40\n        /* \"#utility.yul\":4327:4330   */\n      dup3\n        /* \"#utility.yul\":4323:4335   */\n      add\n        /* \"#utility.yul\":4316:4335   */\n      swap1\n      pop\n        /* \"#utility.yul\":4121:4341   */\n      swap2\n      swap1\n      pop\n      jump\t// out\n        /* \"#utility.yul\":4347:4713   */\n    tag_322:\n      0x00\n        /* \"#utility.yul\":4510:4577   */\n      tag_324\n        /* \"#utility.yul\":4574:4576   */\n      0x13\n        /* \"#utility.yul\":4569:4572   */\n      dup4\n        /* \"#utility.yul\":4510:4577   */\n      tag_304\n      jump\t// in\n    tag_324:\n        /* \"#utility.yul\":4503:4577   */\n      swap2\n      pop\n        /* \"#utility.yul\":4586:4679   */\n      tag_325\n        /* \"#utility.yul\":4675:4678   */\n      dup3\n        /* \"#utility.yul\":4586:4679   */\n      tag_326\n      jump\t// in\n    tag_325:\n        /* \"#utility.yul\":4704:4706   */\n      0x20\n        /* \"#utility.yul\":4699:4702   */\n      dup3\n        /* \"#utility.yul\":4695:4707   */\n      add\n        /* \"#utility.yul\":4688:4707   */\n      swap1\n      pop\n        /* \"#utility.yul\":4493:4713   */\n      swap2\n      swap1\n      pop\n      jump\t// out\n        /* \"#utility.yul\":4719:5085   */\n    tag_327:\n      0x00\n        /* \"#utility.yul\":4882:4949   */\n      tag_329\n        /* \"#utility.yul\":4946:4948   */\n      0x1d\n        /* \"#utility.yul\":4941:4944   */\n      dup4\n        /* \"#utility.yul\":4882:4949   */\n      tag_304\n      jump\t// in\n    tag_329:\n        /* \"#utility.yul\":4875:4949   */\n      swap2\n      pop\n        /* \"#utility.yul\":4958:5051   */\n      tag_330\n        /* \"#utility.yul\":5047:5050   */\n      dup3\n        /* \"#utility.yul\":4958:5051   */\n      tag_331\n      jump\t// in\n    tag_330:\n        /* \"#utility.yul\":5076:5078   */\n      0x20\n        /* \"#utility.yul\":5071:5074   */\n      dup3\n        /* \"#utility.yul\":5067:5079   */\n      add\n        /* \"#utility.yul\":5060:5079   */\n      swap1\n      pop\n        /* \"#utility.yul\":4865:5085   */\n      swap2\n      swap1\n      pop\n      jump\t// out\n        /* \"#utility.yul\":5091:5457   */\n    tag_332:\n      0x00\n        /* \"#utility.yul\":5254:5321   */\n      tag_334\n        /* \"#utility.yul\":5318:5320   */\n      0x18\n        /* \"#utility.yul\":5313:5316   */\n      dup4\n        /* \"#utility.yul\":5254:5321   */\n      tag_304\n      jump\t// in\n    tag_334:\n        /* \"#utility.yul\":5247:5321   */\n      swap2\n      pop\n        /* \"#utility.yul\":5330:5423   */\n      tag_335\n        /* \"#utility.yul\":5419:5422   */\n      dup3\n        /* \"#utility.yul\":5330:5423   */\n      tag_336\n      jump\t// in\n    tag_335:\n        /* \"#utility.yul\":5448:5450   */\n      0x20\n        /* \"#utility.yul\":5443:5446   */\n      dup3\n        /* \"#utility.yul\":5439:5451   */\n      add\n        /* \"#utility.yul\":5432:5451   */\n      swap1\n      pop\n        /* \"#utility.yul\":5237:5457   */\n      swap2\n      swap1\n      pop\n      jump\t// out\n        /* \"#utility.yul\":5463:5829   */\n    tag_337:\n      0x00\n        /* \"#utility.yul\":5626:5693   */\n      tag_339\n        /* \"#utility.yul\":5690:5692   */\n      0x21\n        /* \"#utility.yul\":5685:5688   */\n      dup4\n        /* \"#utility.yul\":5626:5693   */\n      tag_304\n      jump\t// in\n    tag_339:\n        /* \"#utility.yul\":5619:5693   */\n      swap2\n      pop\n        /* \"#utility.yul\":5702:5795   */\n      tag_340\n        /* \"#utility.yul\":5791:5794   */\n      dup3\n        /* \"#utility.yul\":5702:5795   */\n      tag_341\n      jump\t// in\n    tag_340:\n        /* \"#utility.yul\":5820:5822   */\n      0x40\n        /* \"#utility.yul\":5815:5818   */\n      dup3\n        /* \"#utility.yul\":5811:5823   */\n      add\n        /* \"#utility.yul\":5804:5823   */\n      swap1\n      pop\n        /* \"#utility.yul\":5609:5829   */\n      swap2\n      swap1\n      pop\n      jump\t// out\n        /* \"#utility.yul\":5835:6201   */\n    tag_342:\n      0x00\n        /* \"#utility.yul\":5998:6065   */\n      tag_344\n        /* \"#utility.yul\":6062:6064   */\n      0x21\n        /* \"#utility.yul\":6057:6060   */\n      dup4\n        /* \"#utility.yul\":5998:6065   */\n      tag_304\n      jump\t// in\n    tag_344:\n        /* \"#utility.yul\":5991:6065   */\n      swap2\n      pop\n        /* \"#utility.yul\":6074:6167   */\n      tag_345\n        /* \"#utility.yul\":6163:6166   */\n      dup3\n        /* \"#utility.yul\":6074:6167   */\n      tag_346\n      jump\t// in\n    tag_345:\n        /* \"#utility.yul\":6192:6194   */\n      0x40\n        /* \"#utility.yul\":6187:6190   */\n      dup3\n        /* \"#utility.yul\":6183:6195   */\n      add\n        /* \"#utility.yul\":6176:6195   */\n      swap1\n      pop\n        /* \"#utility.yul\":5981:6201   */\n      swap2\n      swap1\n      pop\n      jump\t// out\n        /* \"#utility.yul\":6207:6573   */\n    tag_347:\n      0x00\n        /* \"#utility.yul\":6370:6437   */\n      tag_349\n        /* \"#utility.yul\":6434:6436   */\n      0x1a\n        /* \"#utility.yul\":6429:6432   */\n      dup4\n        /* \"#utility.yul\":6370:6437   */\n      tag_304\n      jump\t// in\n    tag_349:\n        /* \"#utility.yul\":6363:6437   */\n      swap2\n      pop\n        /* \"#utility.yul\":6446:6539   */\n      tag_350\n        /* \"#utility.yul\":6535:6538   */\n      dup3\n        /* \"#utility.yul\":6446:6539   */\n      tag_351\n      jump\t// in\n    tag_350:\n        /* \"#utility.yul\":6564:6566   */\n      0x20\n        /* \"#utility.yul\":6559:6562   */\n      dup3\n        /* \"#utility.yul\":6555:6567   */\n      add\n        /* \"#utility.yul\":6548:6567   */\n      swap1\n      pop\n        /* \"#utility.yul\":6353:6573   */\n      swap2\n      swap1\n      pop\n      jump\t// out\n        /* \"#utility.yul\":6651:7488   */\n    tag_278:\n        /* \"#utility.yul\":6778:6782   */\n      0x80\n        /* \"#utility.yul\":6773:6776   */\n      dup3\n        /* \"#utility.yul\":6769:6783   */\n      add\n        /* \"#utility.yul\":6867:6871   */\n      0x00\n        /* \"#utility.yul\":6860:6865   */\n      dup3\n        /* \"#utility.yul\":6856:6872   */\n      add\n        /* \"#utility.yul\":6850:6873   */\n      mload\n        /* \"#utility.yul\":6886:6949   */\n      tag_353\n        /* \"#utility.yul\":6943:6947   */\n      0x00\n        /* \"#utility.yul\":6938:6941   */\n      dup6\n        /* \"#utility.yul\":6934:6948   */\n      add\n        /* \"#utility.yul\":6920:6932   */\n      dup3\n        /* \"#utility.yul\":6886:6949   */\n      tag_354\n      jump\t// in\n    tag_353:\n        /* \"#utility.yul\":6793:6959   */\n      pop\n        /* \"#utility.yul\":7044:7048   */\n      0x20\n        /* \"#utility.yul\":7037:7042   */\n      dup3\n        /* \"#utility.yul\":7033:7049   */\n      add\n        /* \"#utility.yul\":7027:7050   */\n      mload\n        /* \"#utility.yul\":7063:7126   */\n      tag_355\n        /* \"#utility.yul\":7120:7124   */\n      0x20\n        /* \"#utility.yul\":7115:7118   */\n      dup6\n        /* \"#utility.yul\":7111:7125   */\n      add\n        /* \"#utility.yul\":7097:7109   */\n      dup3\n        /* \"#utility.yul\":7063:7126   */\n      tag_354\n      jump\t// in\n    tag_355:\n        /* \"#utility.yul\":6969:7136   */\n      pop\n        /* \"#utility.yul\":7219:7223   */\n      0x40\n        /* \"#utility.yul\":7212:7217   */\n      dup3\n        /* \"#utility.yul\":7208:7224   */\n      add\n        /* \"#utility.yul\":7202:7225   */\n      mload\n        /* \"#utility.yul\":7238:7301   */\n      tag_356\n        /* \"#utility.yul\":7295:7299   */\n      0x40\n        /* \"#utility.yul\":7290:7293   */\n      dup6\n        /* \"#utility.yul\":7286:7300   */\n      add\n        /* \"#utility.yul\":7272:7284   */\n      dup3\n        /* \"#utility.yul\":7238:7301   */\n      tag_354\n      jump\t// in\n    tag_356:\n        /* \"#utility.yul\":7146:7311   */\n      pop\n        /* \"#utility.yul\":7395:7399   */\n      0x60\n        /* \"#utility.yul\":7388:7393   */\n      dup3\n        /* \"#utility.yul\":7384:7400   */\n      add\n        /* \"#utility.yul\":7378:7401   */\n      mload\n        /* \"#utility.yul\":7414:7471   */\n      tag_357\n        /* \"#utility.yul\":7465:7469   */\n      0x60\n        /* \"#utility.yul\":7460:7463   */\n      dup6\n        /* \"#utility.yul\":7456:7470   */\n      add\n        /* \"#utility.yul\":7442:7454   */\n      dup3\n        /* \"#utility.yul\":7414:7471   */\n      tag_297\n      jump\t// in\n    tag_357:\n        /* \"#utility.yul\":7321:7481   */\n      pop\n        /* \"#utility.yul\":6747:7488   */\n      pop\n      pop\n      pop\n      jump\t// out\n        /* \"#utility.yul\":7566:8413   */\n    tag_358:\n        /* \"#utility.yul\":7703:7707   */\n      0x80\n        /* \"#utility.yul\":7698:7701   */\n      dup3\n        /* \"#utility.yul\":7694:7708   */\n      add\n        /* \"#utility.yul\":7792:7796   */\n      0x00\n        /* \"#utility.yul\":7785:7790   */\n      dup3\n        /* \"#utility.yul\":7781:7797   */\n      add\n        /* \"#utility.yul\":7775:7798   */\n      mload\n        /* \"#utility.yul\":7811:7874   */\n      tag_360\n        /* \"#utility.yul\":7868:7872   */\n      0x00\n        /* \"#utility.yul\":7863:7866   */\n      dup6\n        /* \"#utility.yul\":7859:7873   */\n      add\n        /* \"#utility.yul\":7845:7857   */\n      dup3\n        /* \"#utility.yul\":7811:7874   */\n      tag_354\n      jump\t// in\n    tag_360:\n        /* \"#utility.yul\":7718:7884   */\n      pop\n        /* \"#utility.yul\":7969:7973   */\n      0x20\n        /* \"#utility.yul\":7962:7967   */\n      dup3\n        /* \"#utility.yul\":7958:7974   */\n      add\n        /* \"#utility.yul\":7952:7975   */\n      mload\n        /* \"#utility.yul\":7988:8051   */\n      tag_361\n        /* \"#utility.yul\":8045:8049   */\n      0x20\n        /* \"#utility.yul\":8040:8043   */\n      dup6\n        /* \"#utility.yul\":8036:8050   */\n      add\n        /* \"#utility.yul\":8022:8034   */\n      dup3\n        /* \"#utility.yul\":7988:8051   */\n      tag_354\n      jump\t// in\n    tag_361:\n        /* \"#utility.yul\":7894:8061   */\n      pop\n        /* \"#utility.yul\":8144:8148   */\n      0x40\n        /* \"#utility.yul\":8137:8142   */\n      dup3\n        /* \"#utility.yul\":8133:8149   */\n      add\n        /* \"#utility.yul\":8127:8150   */\n      mload\n        /* \"#utility.yul\":8163:8226   */\n      tag_362\n        /* \"#utility.yul\":8220:8224   */\n      0x40\n        /* \"#utility.yul\":8215:8218   */\n      dup6\n        /* \"#utility.yul\":8211:8225   */\n      add\n        /* \"#utility.yul\":8197:8209   */\n      dup3\n        /* \"#utility.yul\":8163:8226   */\n      tag_354\n      jump\t// in\n    tag_362:\n        /* \"#utility.yul\":8071:8236   */\n      pop\n        /* \"#utility.yul\":8320:8324   */\n      0x60\n        /* \"#utility.yul\":8313:8318   */\n      dup3\n        /* \"#utility.yul\":8309:8325   */\n      add\n        /* \"#utility.yul\":8303:8326   */\n      mload\n        /* \"#utility.yul\":8339:8396   */\n      tag_363\n        /* \"#utility.yul\":8390:8394   */\n      0x60\n        /* \"#utility.yul\":8385:8388   */\n      dup6\n        /* \"#utility.yul\":8381:8395   */\n      add\n        /* \"#utility.yul\":8367:8379   */\n      dup3\n        /* \"#utility.yul\":8339:8396   */\n      tag_297\n      jump\t// in\n    tag_363:\n        /* \"#utility.yul\":8246:8406   */\n      pop\n        /* \"#utility.yul\":7672:8413   */\n      pop\n      pop\n      pop\n      jump\t// out\n        /* \"#utility.yul\":8419:8527   */\n    tag_354:\n        /* \"#utility.yul\":8496:8520   */\n      tag_365\n        /* \"#utility.yul\":8514:8519   */\n      dup2\n        /* \"#utility.yul\":8496:8520   */\n      tag_366\n      jump\t// in\n    tag_365:\n        /* \"#utility.yul\":8491:8494   */\n      dup3\n        /* \"#utility.yul\":8484:8521   */\n      mstore\n        /* \"#utility.yul\":8474:8527   */\n      pop\n      pop\n      jump\t// out\n        /* \"#utility.yul\":8533:8651   */\n    tag_367:\n        /* \"#utility.yul\":8620:8644   */\n      tag_369\n        /* \"#utility.yul\":8638:8643   */\n      dup2\n        /* \"#utility.yul\":8620:8644   */\n      tag_366\n      jump\t// in\n    tag_369:\n        /* \"#utility.yul\":8615:8618   */\n      dup3\n        /* \"#utility.yul\":8608:8645   */\n      mstore\n        /* \"#utility.yul\":8598:8651   */\n      pop\n      pop\n      jump\t// out\n        /* \"#utility.yul\":8657:8879   */\n    tag_60:\n      0x00\n        /* \"#utility.yul\":8788:8790   */\n      0x20\n        /* \"#utility.yul\":8777:8786   */\n      dup3\n        /* \"#utility.yul\":8773:8791   */\n      add\n        /* \"#utility.yul\":8765:8791   */\n      swap1\n      pop\n        /* \"#utility.yul\":8801:8872   */\n      tag_371\n        /* \"#utility.yul\":8869:8870   */\n      0x00\n        /* \"#utility.yul\":8858:8867   */\n      dup4\n        /* \"#utility.yul\":8854:8871   */\n      add\n        /* \"#utility.yul\":8845:8851   */\n      dup5\n        /* \"#utility.yul\":8801:8872   */\n      tag_279\n      jump\t// in\n    tag_371:\n        /* \"#utility.yul\":8755:8879   */\n      swap3\n      swap2\n      pop\n      pop\n      jump\t// out\n        /* \"#utility.yul\":8885:9338   */\n    tag_30:\n      0x00\n        /* \"#utility.yul\":9106:9108   */\n      0x20\n        /* \"#utility.yul\":9095:9104   */\n      dup3\n        /* \"#utility.yul\":9091:9109   */\n      add\n        /* \"#utility.yul\":9083:9109   */\n      swap1\n      pop\n        /* \"#utility.yul\":9155:9164   */\n      dup2\n        /* \"#utility.yul\":9149:9153   */\n      dup2\n        /* \"#utility.yul\":9145:9165   */\n      sub\n        /* \"#utility.yul\":9141:9142   */\n      0x00\n        /* \"#utility.yul\":9130:9139   */\n      dup4\n        /* \"#utility.yul\":9126:9143   */\n      add\n        /* \"#utility.yul\":9119:9166   */\n      mstore\n        /* \"#utility.yul\":9183:9331   */\n      tag_373\n        /* \"#utility.yul\":9326:9330   */\n      dup2\n        /* \"#utility.yul\":9317:9323   */\n      dup5\n        /* \"#utility.yul\":9183:9331   */\n      tag_283\n      jump\t// in\n    tag_373:\n        /* \"#utility.yul\":9175:9331   */\n      swap1\n      pop\n        /* \"#utility.yul\":9073:9338   */\n      swap3\n      swap2\n      pop\n      pop\n      jump\t// out\n        /* \"#utility.yul\":9344:9763   */\n    tag_197:\n      0x00\n        /* \"#utility.yul\":9548:9550   */\n      0x20\n        /* \"#utility.yul\":9537:9546   */\n      dup3\n        /* \"#utility.yul\":9533:9551   */\n      add\n        /* \"#utility.yul\":9525:9551   */\n      swap1\n      pop\n        /* \"#utility.yul\":9597:9606   */\n      dup2\n        /* \"#utility.yul\":9591:9595   */\n      dup2\n        /* \"#utility.yul\":9587:9607   */\n      sub\n        /* \"#utility.yul\":9583:9584   */\n      0x00\n        /* \"#utility.yul\":9572:9581   */\n      dup4\n        /* \"#utility.yul\":9568:9585   */\n      add\n        /* \"#utility.yul\":9561:9608   */\n      mstore\n        /* \"#utility.yul\":9625:9756   */\n      tag_375\n        /* \"#utility.yul\":9751:9755   */\n      dup2\n        /* \"#utility.yul\":9625:9756   */\n      tag_301\n      jump\t// in\n    tag_375:\n        /* \"#utility.yul\":9617:9756   */\n      swap1\n      pop\n        /* \"#utility.yul\":9515:9763   */\n      swap2\n      swap1\n      pop\n      jump\t// out\n        /* \"#utility.yul\":9769:10188   */\n    tag_223:\n      0x00\n        /* \"#utility.yul\":9973:9975   */\n      0x20\n        /* \"#utility.yul\":9962:9971   */\n      dup3\n        /* \"#utility.yul\":9958:9976   */\n      add\n        /* \"#utility.yul\":9950:9976   */\n      swap1\n      pop\n        /* \"#utility.yul\":10022:10031   */\n      dup2\n        /* \"#utility.yul\":10016:10020   */\n      dup2\n        /* \"#utility.yul\":10012:10032   */\n      sub\n        /* \"#utility.yul\":10008:10009   */\n      0x00\n        /* \"#utility.yul\":9997:10006   */\n      dup4\n        /* \"#utility.yul\":9993:10010   */\n      add\n        /* \"#utility.yul\":9986:10033   */\n      mstore\n        /* \"#utility.yul\":10050:10181   */\n      tag_377\n        /* \"#utility.yul\":10176:10180   */\n      dup2\n        /* \"#utility.yul\":10050:10181   */\n      tag_307\n      jump\t// in\n    tag_377:\n        /* \"#utility.yul\":10042:10181   */\n      swap1\n      pop\n        /* \"#utility.yul\":9940:10188   */\n      swap2\n      swap1\n      pop\n      jump\t// out\n        /* \"#utility.yul\":10194:10613   */\n    tag_99:\n      0x00\n        /* \"#utility.yul\":10398:10400   */\n      0x20\n        /* \"#utility.yul\":10387:10396   */\n      dup3\n        /* \"#utility.yul\":10383:10401   */\n      add\n        /* \"#utility.yul\":10375:10401   */\n      swap1\n      pop\n        /* \"#utility.yul\":10447:10456   */\n      dup2\n        /* \"#utility.yul\":10441:10445   */\n      dup2\n        /* \"#utility.yul\":10437:10457   */\n      sub\n        /* \"#utility.yul\":10433:10434   */\n      0x00\n        /* \"#utility.yul\":10422:10431   */\n      dup4\n        /* \"#utility.yul\":10418:10435   */\n      add\n        /* \"#utility.yul\":10411:10458   */\n      mstore\n        /* \"#utility.yul\":10475:10606   */\n      tag_379\n        /* \"#utility.yul\":10601:10605   */\n      dup2\n        /* \"#utility.yul\":10475:10606   */\n      tag_312\n      jump\t// in\n    tag_379:\n        /* \"#utility.yul\":10467:10606   */\n      swap1\n      pop\n        /* \"#utility.yul\":10365:10613   */\n      swap2\n      swap1\n      pop\n      jump\t// out\n        /* \"#utility.yul\":10619:11038   */\n    tag_191:\n      0x00\n        /* \"#utility.yul\":10823:10825   */\n      0x20\n        /* \"#utility.yul\":10812:10821   */\n      dup3\n        /* \"#utility.yul\":10808:10826   */\n      add\n        /* \"#utility.yul\":10800:10826   */\n      swap1\n      pop\n        /* \"#utility.yul\":10872:10881   */\n      dup2\n        /* \"#utility.yul\":10866:10870   */\n      dup2\n        /* \"#utility.yul\":10862:10882   */\n      sub\n        /* \"#utility.yul\":10858:10859   */\n      0x00\n        /* \"#utility.yul\":10847:10856   */\n      dup4\n        /* \"#utility.yul\":10843:10860   */\n      add\n        /* \"#utility.yul\":10836:10883   */\n      mstore\n        /* \"#utility.yul\":10900:11031   */\n      tag_381\n        /* \"#utility.yul\":11026:11030   */\n      dup2\n        /* \"#utility.yul\":10900:11031   */\n      tag_317\n      jump\t// in\n    tag_381:\n        /* \"#utility.yul\":10892:11031   */\n      swap1\n      pop\n        /* \"#utility.yul\":10790:11038   */\n      swap2\n      swap1\n      pop\n      jump\t// out\n        /* \"#utility.yul\":11044:11463   */\n    tag_194:\n      0x00\n        /* \"#utility.yul\":11248:11250   */\n      0x20\n        /* \"#utility.yul\":11237:11246   */\n      dup3\n        /* \"#utility.yul\":11233:11251   */\n      add\n        /* \"#utility.yul\":11225:11251   */\n      swap1\n      pop\n        /* \"#utility.yul\":11297:11306   */\n      dup2\n        /* \"#utility.yul\":11291:11295   */\n      dup2\n        /* \"#utility.yul\":11287:11307   */\n      sub\n        /* \"#utility.yul\":11283:11284   */\n      0x00\n        /* \"#utility.yul\":11272:11281   */\n      dup4\n        /* \"#utility.yul\":11268:11285   */\n      add\n        /* \"#utility.yul\":11261:11308   */\n      mstore\n        /* \"#utility.yul\":11325:11456   */\n      tag_383\n        /* \"#utility.yul\":11451:11455   */\n      dup2\n        /* \"#utility.yul\":11325:11456   */\n      tag_322\n      jump\t// in\n    tag_383:\n        /* \"#utility.yul\":11317:11456   */\n      swap1\n      pop\n        /* \"#utility.yul\":11215:11463   */\n      swap2\n      swap1\n      pop\n      jump\t// out\n        /* \"#utility.yul\":11469:11888   */\n    tag_215:\n      0x00\n        /* \"#utility.yul\":11673:11675   */\n      0x20\n        /* \"#utility.yul\":11662:11671   */\n      dup3\n        /* \"#utility.yul\":11658:11676   */\n      add\n        /* \"#utility.yul\":11650:11676   */\n      swap1\n      pop\n        /* \"#utility.yul\":11722:11731   */\n      dup2\n        /* \"#utility.yul\":11716:11720   */\n      dup2\n        /* \"#utility.yul\":11712:11732   */\n      sub\n        /* \"#utility.yul\":11708:11709   */\n      0x00\n        /* \"#utility.yul\":11697:11706   */\n      dup4\n        /* \"#utility.yul\":11693:11710   */\n      add\n        /* \"#utility.yul\":11686:11733   */\n      mstore\n        /* \"#utility.yul\":11750:11881   */\n      tag_385\n        /* \"#utility.yul\":11876:11880   */\n      dup2\n        /* \"#utility.yul\":11750:11881   */\n      tag_327\n      jump\t// in\n    tag_385:\n        /* \"#utility.yul\":11742:11881   */\n      swap1\n      pop\n        /* \"#utility.yul\":11640:11888   */\n      swap2\n      swap1\n      pop\n      jump\t// out\n        /* \"#utility.yul\":11894:12313   */\n    tag_239:\n      0x00\n        /* \"#utility.yul\":12098:12100   */\n      0x20\n        /* \"#utility.yul\":12087:12096   */\n      dup3\n        /* \"#utility.yul\":12083:12101   */\n      add\n        /* \"#utility.yul\":12075:12101   */\n      swap1\n      pop\n        /* \"#utility.yul\":12147:12156   */\n      dup2\n        /* \"#utility.yul\":12141:12145   */\n      dup2\n        /* \"#utility.yul\":12137:12157   */\n      sub\n        /* \"#utility.yul\":12133:12134   */\n      0x00\n        /* \"#utility.yul\":12122:12131   */\n      dup4\n        /* \"#utility.yul\":12118:12135   */\n      add\n        /* \"#utility.yul\":12111:12158   */\n      mstore\n        /* \"#utility.yul\":12175:12306   */\n      tag_387\n        /* \"#utility.yul\":12301:12305   */\n      dup2\n        /* \"#utility.yul\":12175:12306   */\n      tag_332\n      jump\t// in\n    tag_387:\n        /* \"#utility.yul\":12167:12306   */\n      swap1\n      pop\n        /* \"#utility.yul\":12065:12313   */\n      swap2\n      swap1\n      pop\n      jump\t// out\n        /* \"#utility.yul\":12319:12738   */\n    tag_92:\n      0x00\n        /* \"#utility.yul\":12523:12525   */\n      0x20\n        /* \"#utility.yul\":12512:12521   */\n      dup3\n        /* \"#utility.yul\":12508:12526   */\n      add\n        /* \"#utility.yul\":12500:12526   */\n      swap1\n      pop\n        /* \"#utility.yul\":12572:12581   */\n      dup2\n        /* \"#utility.yul\":12566:12570   */\n      dup2\n        /* \"#utility.yul\":12562:12582   */\n      sub\n        /* \"#utility.yul\":12558:12559   */\n      0x00\n        /* \"#utility.yul\":12547:12556   */\n      dup4\n        /* \"#utility.yul\":12543:12560   */\n      add\n        /* \"#utility.yul\":12536:12583   */\n      mstore\n        /* \"#utility.yul\":12600:12731   */\n      tag_389\n        /* \"#utility.yul\":12726:12730   */\n      dup2\n        /* \"#utility.yul\":12600:12731   */\n      tag_337\n      jump\t// in\n    tag_389:\n        /* \"#utility.yul\":12592:12731   */\n      swap1\n      pop\n        /* \"#utility.yul\":12490:12738   */\n      swap2\n      swap1\n      pop\n      jump\t// out\n        /* \"#utility.yul\":12744:13163   */\n    tag_125:\n      0x00\n        /* \"#utility.yul\":12948:12950   */\n      0x20\n        /* \"#utility.yul\":12937:12946   */\n      dup3\n        /* \"#utility.yul\":12933:12951   */\n      add\n        /* \"#utility.yul\":12925:12951   */\n      swap1\n      pop\n        /* \"#utility.yul\":12997:13006   */\n      dup2\n        /* \"#utility.yul\":12991:12995   */\n      dup2\n        /* \"#utility.yul\":12987:13007   */\n      sub\n        /* \"#utility.yul\":12983:12984   */\n      0x00\n        /* \"#utility.yul\":12972:12981   */\n      dup4\n        /* \"#utility.yul\":12968:12985   */\n      add\n        /* \"#utility.yul\":12961:13008   */\n      mstore\n        /* \"#utility.yul\":13025:13156   */\n      tag_391\n        /* \"#utility.yul\":13151:13155   */\n      dup2\n        /* \"#utility.yul\":13025:13156   */\n      tag_342\n      jump\t// in\n    tag_391:\n        /* \"#utility.yul\":13017:13156   */\n      swap1\n      pop\n        /* \"#utility.yul\":12915:13163   */\n      swap2\n      swap1\n      pop\n      jump\t// out\n        /* \"#utility.yul\":13169:13588   */\n    tag_96:\n      0x00\n        /* \"#utility.yul\":13373:13375   */\n      0x20\n        /* \"#utility.yul\":13362:13371   */\n      dup3\n        /* \"#utility.yul\":13358:13376   */\n      add\n        /* \"#utility.yul\":13350:13376   */\n      swap1\n      pop\n        /* \"#utility.yul\":13422:13431   */\n      dup2\n        /* \"#utility.yul\":13416:13420   */\n      dup2\n        /* \"#utility.yul\":13412:13432   */\n      sub\n        /* \"#utility.yul\":13408:13409   */\n      0x00\n        /* \"#utility.yul\":13397:13406   */\n      dup4\n        /* \"#utility.yul\":13393:13410   */\n      add\n        /* \"#utility.yul\":13386:13433   */\n      mstore\n        /* \"#utility.yul\":13450:13581   */\n      tag_393\n        /* \"#utility.yul\":13576:13580   */\n      dup2\n        /* \"#utility.yul\":13450:13581   */\n      tag_347\n      jump\t// in\n    tag_393:\n        /* \"#utility.yul\":13442:13581   */\n      swap1\n      pop\n        /* \"#utility.yul\":13340:13588   */\n      swap2\n      swap1\n      pop\n      jump\t// out\n        /* \"#utility.yul\":13594:13897   */\n    tag_54:\n      0x00\n        /* \"#utility.yul\":13765:13768   */\n      0x80\n        /* \"#utility.yul\":13754:13763   */\n      dup3\n        /* \"#utility.yul\":13750:13769   */\n      add\n        /* \"#utility.yul\":13742:13769   */\n      swap1\n      pop\n        /* \"#utility.yul\":13779:13890   */\n      tag_395\n        /* \"#utility.yul\":13887:13888   */\n      0x00\n        /* \"#utility.yul\":13876:13885   */\n      dup4\n        /* \"#utility.yul\":13872:13889   */\n      add\n        /* \"#utility.yul\":13863:13869   */\n      dup5\n        /* \"#utility.yul\":13779:13890   */\n      tag_358\n      jump\t// in\n    tag_395:\n        /* \"#utility.yul\":13732:13897   */\n      swap3\n      swap2\n      pop\n      pop\n      jump\t// out\n        /* \"#utility.yul\":13903:14125   */\n    tag_25:\n      0x00\n        /* \"#utility.yul\":14034:14036   */\n      0x20\n        /* \"#utility.yul\":14023:14032   */\n      dup3\n        /* \"#utility.yul\":14019:14037   */\n      add\n        /* \"#utility.yul\":14011:14037   */\n      swap1\n      pop\n        /* \"#utility.yul\":14047:14118   */\n      tag_397\n        /* \"#utility.yul\":14115:14116   */\n      0x00\n        /* \"#utility.yul\":14104:14113   */\n      dup4\n        /* \"#utility.yul\":14100:14117   */\n      add\n        /* \"#utility.yul\":14091:14097   */\n      dup5\n        /* \"#utility.yul\":14047:14118   */\n      tag_367\n      jump\t// in\n    tag_397:\n        /* \"#utility.yul\":14001:14125   */\n      swap3\n      swap2\n      pop\n      pop\n      jump\t// out\n        /* \"#utility.yul\":14131:14283   */\n    tag_290:\n      0x00\n        /* \"#utility.yul\":14241:14244   */\n      dup2\n        /* \"#utility.yul\":14233:14244   */\n      swap1\n      pop\n        /* \"#utility.yul\":14271:14275   */\n      0x20\n        /* \"#utility.yul\":14266:14269   */\n      dup3\n        /* \"#utility.yul\":14262:14276   */\n      add\n        /* \"#utility.yul\":14254:14276   */\n      swap1\n      pop\n        /* \"#utility.yul\":14223:14283   */\n      swap2\n      swap1\n      pop\n      jump\t// out\n        /* \"#utility.yul\":14289:14423   */\n    tag_286:\n      0x00\n        /* \"#utility.yul\":14410:14415   */\n      dup2\n        /* \"#utility.yul\":14404:14416   */\n      mload\n        /* \"#utility.yul\":14394:14416   */\n      swap1\n      pop\n        /* \"#utility.yul\":14383:14423   */\n      swap2\n      swap1\n      pop\n      jump\t// out\n        /* \"#utility.yul\":14429:14562   */\n    tag_296:\n      0x00\n        /* \"#utility.yul\":14551:14555   */\n      0x20\n        /* \"#utility.yul\":14546:14549   */\n      dup3\n        /* \"#utility.yul\":14542:14556   */\n      add\n        /* \"#utility.yul\":14534:14556   */\n      swap1\n      pop\n        /* \"#utility.yul\":14524:14562   */\n      swap2\n      swap1\n      pop\n      jump\t// out\n        /* \"#utility.yul\":14568:14772   */\n    tag_288:\n      0x00\n        /* \"#utility.yul\":14721:14727   */\n      dup3\n        /* \"#utility.yul\":14716:14719   */\n      dup3\n        /* \"#utility.yul\":14709:14728   */\n      mstore\n        /* \"#utility.yul\":14761:14765   */\n      0x20\n        /* \"#utility.yul\":14756:14759   */\n      dup3\n        /* \"#utility.yul\":14752:14766   */\n      add\n        /* \"#utility.yul\":14737:14766   */\n      swap1\n      pop\n        /* \"#utility.yul\":14699:14772   */\n      swap3\n      swap2\n      pop\n      pop\n      jump\t// out\n        /* \"#utility.yul\":14778:14947   */\n    tag_304:\n      0x00\n        /* \"#utility.yul\":14896:14902   */\n      dup3\n        /* \"#utility.yul\":14891:14894   */\n      dup3\n        /* \"#utility.yul\":14884:14903   */\n      mstore\n        /* \"#utility.yul\":14936:14940   */\n      0x20\n        /* \"#utility.yul\":14931:14934   */\n      dup3\n        /* \"#utility.yul\":14927:14941   */\n      add\n        /* \"#utility.yul\":14912:14941   */\n      swap1\n      pop\n        /* \"#utility.yul\":14874:14947   */\n      swap3\n      swap2\n      pop\n      pop\n      jump\t// out\n        /* \"#utility.yul\":14953:15138   */\n    tag_252:\n      0x00\n        /* \"#utility.yul\":15010:15030   */\n      tag_404\n        /* \"#utility.yul\":15028:15029   */\n      dup3\n        /* \"#utility.yul\":15010:15030   */\n      tag_366\n      jump\t// in\n    tag_404:\n        /* \"#utility.yul\":15005:15030   */\n      swap2\n      pop\n        /* \"#utility.yul\":15044:15064   */\n      tag_405\n        /* \"#utility.yul\":15062:15063   */\n      dup4\n        /* \"#utility.yul\":15044:15064   */\n      tag_366\n      jump\t// in\n    tag_405:\n        /* \"#utility.yul\":15039:15064   */\n      swap3\n      pop\n        /* \"#utility.yul\":15083:15084   */\n      dup3\n        /* \"#utility.yul\":15073:15075   */\n      tag_406\n      jumpi\n        /* \"#utility.yul\":15088:15106   */\n      tag_407\n      tag_408\n      jump\t// in\n    tag_407:\n        /* \"#utility.yul\":15073:15075   */\n    tag_406:\n        /* \"#utility.yul\":15130:15131   */\n      dup3\n        /* \"#utility.yul\":15127:15128   */\n      dup3\n        /* \"#utility.yul\":15123:15132   */\n      div\n        /* \"#utility.yul\":15118:15132   */\n      swap1\n      pop\n        /* \"#utility.yul\":14995:15138   */\n      swap3\n      swap2\n      pop\n      pop\n      jump\t// out\n        /* \"#utility.yul\":15144:15492   */\n    tag_250:\n      0x00\n        /* \"#utility.yul\":15207:15227   */\n      tag_410\n        /* \"#utility.yul\":15225:15226   */\n      dup3\n        /* \"#utility.yul\":15207:15227   */\n      tag_366\n      jump\t// in\n    tag_410:\n        /* \"#utility.yul\":15202:15227   */\n      swap2\n      pop\n        /* \"#utility.yul\":15241:15261   */\n      tag_411\n        /* \"#utility.yul\":15259:15260   */\n      dup4\n        /* \"#utility.yul\":15241:15261   */\n      tag_366\n      jump\t// in\n    tag_411:\n        /* \"#utility.yul\":15236:15261   */\n      swap3\n      pop\n        /* \"#utility.yul\":15429:15430   */\n      dup2\n        /* \"#utility.yul\":15361:15427   */\n      0xffffffffffffffffffffffffffffffffffffffffffffffffffffffffffffffff\n        /* \"#utility.yul\":15357:15431   */\n      div\n        /* \"#utility.yul\":15354:15355   */\n      dup4\n        /* \"#utility.yul\":15351:15432   */\n      gt\n        /* \"#utility.yul\":15346:15347   */\n      dup3\n        /* \"#utility.yul\":15339:15348   */\n      iszero\n        /* \"#utility.yul\":15332:15349   */\n      iszero\n        /* \"#utility.yul\":15328:15433   */\n      and\n        /* \"#utility.yul\":15325:15327   */\n      iszero\n      tag_412\n      jumpi\n        /* \"#utility.yul\":15436:15454   */\n      tag_413\n      tag_414\n      jump\t// in\n    tag_413:\n        /* \"#utility.yul\":15325:15327   */\n    tag_412:\n        /* \"#utility.yul\":15484:15485   */\n      dup3\n        /* \"#utility.yul\":15481:15482   */\n      dup3\n        /* \"#utility.yul\":15477:15486   */\n      mul\n        /* \"#utility.yul\":15466:15486   */\n      swap1\n      pop\n        /* \"#utility.yul\":15192:15492   */\n      swap3\n      swap2\n      pop\n      pop\n      jump\t// out\n        /* \"#utility.yul\":15498:15689   */\n    tag_254:\n      0x00\n        /* \"#utility.yul\":15558:15578   */\n      tag_416\n        /* \"#utility.yul\":15576:15577   */\n      dup3\n        /* \"#utility.yul\":15558:15578   */\n      tag_366\n      jump\t// in\n    tag_416:\n        /* \"#utility.yul\":15553:15578   */\n      swap2\n      pop\n        /* \"#utility.yul\":15592:15612   */\n      tag_417\n        /* \"#utility.yul\":15610:15611   */\n      dup4\n        /* \"#utility.yul\":15592:15612   */\n      tag_366\n      jump\t// in\n    tag_417:\n        /* \"#utility.yul\":15587:15612   */\n      swap3\n      pop\n        /* \"#utility.yul\":15631:15632   */\n      dup3\n        /* \"#utility.yul\":15628:15629   */\n      dup3\n        /* \"#utility.yul\":15625:15633   */\n      lt\n        /* \"#utility.yul\":15622:15624   */\n      iszero\n      tag_418\n      jumpi\n        /* \"#utility.yul\":15636:15654   */\n      tag_419\n      tag_414\n      jump\t// in\n    tag_419:\n        /* \"#utility.yul\":15622:15624   */\n    tag_418:\n        /* \"#utility.yul\":15681:15682   */\n      dup3\n        /* \"#utility.yul\":15678:15679   */\n      dup3\n        /* \"#utility.yul\":15674:15683   */\n      sub\n        /* \"#utility.yul\":15666:15683   */\n      swap1\n      pop\n        /* \"#utility.yul\":15543:15689   */\n      swap3\n      swap2\n      pop\n      pop\n      jump\t// out\n        /* \"#utility.yul\":15695:15791   */\n    tag_282:\n      0x00\n        /* \"#utility.yul\":15761:15785   */\n      tag_421\n        /* \"#utility.yul\":15779:15784   */\n      dup3\n        /* \"#utility.yul\":15761:15785   */\n      tag_422\n      jump\t// in\n    tag_421:\n        /* \"#utility.yul\":15750:15785   */\n      swap1\n      pop\n        /* \"#utility.yul\":15740:15791   */\n      swap2\n      swap1\n      pop\n      jump\t// out\n        /* \"#utility.yul\":15797:15887   */\n    tag_300:\n      0x00\n        /* \"#utility.yul\":15874:15879   */\n      dup2\n        /* \"#utility.yul\":15867:15880   */\n      iszero\n        /* \"#utility.yul\":15860:15881   */\n      iszero\n        /* \"#utility.yul\":15849:15881   */\n      swap1\n      pop\n        /* \"#utility.yul\":15839:15887   */\n      swap2\n      swap1\n      pop\n      jump\t// out\n        /* \"#utility.yul\":15893:16019   */\n    tag_422:\n      0x00\n        /* \"#utility.yul\":15970:16012   */\n      0xffffffffffffffffffffffffffffffffffffffff\n        /* \"#utility.yul\":15963:15968   */\n      dup3\n        /* \"#utility.yul\":15959:16013   */\n      and\n        /* \"#utility.yul\":15948:16013   */\n      swap1\n      pop\n        /* \"#utility.yul\":15938:16019   */\n      swap2\n      swap1\n      pop\n      jump\t// out\n        /* \"#utility.yul\":16025:16102   */\n    tag_366:\n      0x00\n        /* \"#utility.yul\":16091:16096   */\n      dup2\n        /* \"#utility.yul\":16080:16096   */\n      swap1\n      pop\n        /* \"#utility.yul\":16070:16102   */\n      swap2\n      swap1\n      pop\n      jump\t// out\n        /* \"#utility.yul\":16108:16341   */\n    tag_119:\n      0x00\n        /* \"#utility.yul\":16170:16194   */\n      tag_427\n        /* \"#utility.yul\":16188:16193   */\n      dup3\n        /* \"#utility.yul\":16170:16194   */\n      tag_366\n      jump\t// in\n    tag_427:\n        /* \"#utility.yul\":16161:16194   */\n      swap2\n      pop\n        /* \"#utility.yul\":16216:16282   */\n      0xffffffffffffffffffffffffffffffffffffffffffffffffffffffffffffffff\n        /* \"#utility.yul\":16209:16214   */\n      dup3\n        /* \"#utility.yul\":16206:16283   */\n      eq\n        /* \"#utility.yul\":16203:16205   */\n      iszero\n      tag_428\n      jumpi\n        /* \"#utility.yul\":16286:16304   */\n      tag_429\n      tag_414\n      jump\t// in\n    tag_429:\n        /* \"#utility.yul\":16203:16205   */\n    tag_428:\n        /* \"#utility.yul\":16333:16334   */\n      0x01\n        /* \"#utility.yul\":16326:16331   */\n      dup3\n        /* \"#utility.yul\":16322:16335   */\n      add\n        /* \"#utility.yul\":16315:16335   */\n      swap1\n      pop\n        /* \"#utility.yul\":16151:16341   */\n      swap2\n      swap1\n      pop\n      jump\t// out\n        /* \"#utility.yul\":16347:16527   */\n    tag_414:\n        /* \"#utility.yul\":16395:16472   */\n      0x4e487b7100000000000000000000000000000000000000000000000000000000\n        /* \"#utility.yul\":16392:16393   */\n      0x00\n        /* \"#utility.yul\":16385:16473   */\n      mstore\n        /* \"#utility.yul\":16492:16496   */\n      0x11\n        /* \"#utility.yul\":16489:16490   */\n      0x04\n        /* \"#utility.yul\":16482:16497   */\n      mstore\n        /* \"#utility.yul\":16516:16520   */\n      0x24\n        /* \"#utility.yul\":16513:16514   */\n      0x00\n        /* \"#utility.yul\":16506:16521   */\n      revert\n        /* \"#utility.yul\":16533:16713   */\n    tag_408:\n        /* \"#utility.yul\":16581:16658   */\n      0x4e487b7100000000000000000000000000000000000000000000000000000000\n        /* \"#utility.yul\":16578:16579   */\n      0x00\n        /* \"#utility.yul\":16571:16659   */\n      mstore\n        /* \"#utility.yul\":16678:16682   */\n      0x12\n        /* \"#utility.yul\":16675:16676   */\n      0x04\n        /* \"#utility.yul\":16668:16683   */\n      mstore\n        /* \"#utility.yul\":16702:16706   */\n      0x24\n        /* \"#utility.yul\":16699:16700   */\n      0x00\n        /* \"#utility.yul\":16692:16707   */\n      revert\n        /* \"#utility.yul\":16719:16947   */\n    tag_306:\n        /* \"#utility.yul\":16859:16893   */\n      0x796f752063616e27742062757920616e206974656d20746861742062656c6f6e\n        /* \"#utility.yul\":16855:16856   */\n      0x00\n        /* \"#utility.yul\":16847:16853   */\n      dup3\n        /* \"#utility.yul\":16843:16857   */\n      add\n        /* \"#utility.yul\":16836:16894   */\n      mstore\n        /* \"#utility.yul\":16928:16939   */\n      0x677320746f20796f750000000000000000000000000000000000000000000000\n        /* \"#utility.yul\":16923:16925   */\n      0x20\n        /* \"#utility.yul\":16915:16921   */\n      dup3\n        /* \"#utility.yul\":16911:16926   */\n      add\n        /* \"#utility.yul\":16904:16940   */\n      mstore\n        /* \"#utility.yul\":16825:16947   */\n      pop\n      jump\t// out\n        /* \"#utility.yul\":16953:17122   */\n    tag_311:\n        /* \"#utility.yul\":17093:17114   */\n      0x746f6b656e2069736e277420746f2073656c6c00000000000000000000000000\n        /* \"#utility.yul\":17089:17090   */\n      0x00\n        /* \"#utility.yul\":17081:17087   */\n      dup3\n        /* \"#utility.yul\":17077:17091   */\n      add\n        /* \"#utility.yul\":17070:17115   */\n      mstore\n        /* \"#utility.yul\":17059:17122   */\n      pop\n      jump\t// out\n        /* \"#utility.yul\":17128:17297   */\n    tag_316:\n        /* \"#utility.yul\":17268:17289   */\n      0x746f6b656e20616c726561647920657869737400000000000000000000000000\n        /* \"#utility.yul\":17264:17265   */\n      0x00\n        /* \"#utility.yul\":17256:17262   */\n      dup3\n        /* \"#utility.yul\":17252:17266   */\n      add\n        /* \"#utility.yul\":17245:17290   */\n      mstore\n        /* \"#utility.yul\":17234:17297   */\n      pop\n      jump\t// out\n        /* \"#utility.yul\":17303:17543   */\n    tag_321:\n        /* \"#utility.yul\":17443:17477   */\n      0x7472616e73616374696f6e27732076616c75652063616e6e6f74206265206469\n        /* \"#utility.yul\":17439:17440   */\n      0x00\n        /* \"#utility.yul\":17431:17437   */\n      dup3\n        /* \"#utility.yul\":17427:17441   */\n      add\n        /* \"#utility.yul\":17420:17478   */\n      mstore\n        /* \"#utility.yul\":17512:17535   */\n      0x66666572656e74206f66206974656d2070726963650000000000000000000000\n        /* \"#utility.yul\":17507:17509   */\n      0x20\n        /* \"#utility.yul\":17499:17505   */\n      dup3\n        /* \"#utility.yul\":17495:17510   */\n      add\n        /* \"#utility.yul\":17488:17536   */\n      mstore\n        /* \"#utility.yul\":17409:17543   */\n      pop\n      jump\t// out\n        /* \"#utility.yul\":17549:17718   */\n    tag_326:\n        /* \"#utility.yul\":17689:17710   */\n      0x746f6b656e20646f65736e277420657869737400000000000000000000000000\n        /* \"#utility.yul\":17685:17686   */\n      0x00\n        /* \"#utility.yul\":17677:17683   */\n      dup3\n        /* \"#utility.yul\":17673:17687   */\n      add\n        /* \"#utility.yul\":17666:17711   */\n      mstore\n        /* \"#utility.yul\":17655:17718   */\n      pop\n      jump\t// out\n        /* \"#utility.yul\":17724:17903   */\n    tag_331:\n        /* \"#utility.yul\":17864:17895   */\n      0x4f6e6c79206974656d2773206f776e65722063616e20646f2074686174000000\n        /* \"#utility.yul\":17860:17861   */\n      0x00\n        /* \"#utility.yul\":17852:17858   */\n      dup3\n        /* \"#utility.yul\":17848:17862   */\n      add\n        /* \"#utility.yul\":17841:17896   */\n      mstore\n        /* \"#utility.yul\":17830:17903   */\n      pop\n      jump\t// out\n        /* \"#utility.yul\":17909:18083   */\n    tag_336:\n        /* \"#utility.yul\":18049:18075   */\n      0x746f6b656e20697320616c726561647920746f2073656c6c0000000000000000\n        /* \"#utility.yul\":18045:18046   */\n      0x00\n        /* \"#utility.yul\":18037:18043   */\n      dup3\n        /* \"#utility.yul\":18033:18047   */\n      add\n        /* \"#utility.yul\":18026:18076   */\n      mstore\n        /* \"#utility.yul\":18015:18083   */\n      pop\n      jump\t// out\n        /* \"#utility.yul\":18089:18309   */\n    tag_341:\n        /* \"#utility.yul\":18229:18263   */\n      0x5468616e6b7320746f2073656e6420636f727265637420666565732076616c75\n        /* \"#utility.yul\":18225:18226   */\n      0x00\n        /* \"#utility.yul\":18217:18223   */\n      dup3\n        /* \"#utility.yul\":18213:18227   */\n      add\n        /* \"#utility.yul\":18206:18264   */\n      mstore\n        /* \"#utility.yul\":18298:18301   */\n      0x6500000000000000000000000000000000000000000000000000000000000000\n        /* \"#utility.yul\":18293:18295   */\n      0x20\n        /* \"#utility.yul\":18285:18291   */\n      dup3\n        /* \"#utility.yul\":18281:18296   */\n      add\n        /* \"#utility.yul\":18274:18302   */\n      mstore\n        /* \"#utility.yul\":18195:18309   */\n      pop\n      jump\t// out\n        /* \"#utility.yul\":18315:18535   */\n    tag_346:\n        /* \"#utility.yul\":18455:18489   */\n      0x4f6e6c7920636f6e74726163742773206f776e65722063616e20646f20746861\n        /* \"#utility.yul\":18451:18452   */\n      0x00\n        /* \"#utility.yul\":18443:18449   */\n      dup3\n        /* \"#utility.yul\":18439:18453   */\n      add\n        /* \"#utility.yul\":18432:18490   */\n      mstore\n        /* \"#utility.yul\":18524:18527   */\n      0x7400000000000000000000000000000000000000000000000000000000000000\n        /* \"#utility.yul\":18519:18521   */\n      0x20\n        /* \"#utility.yul\":18511:18517   */\n      dup3\n        /* \"#utility.yul\":18507:18522   */\n      add\n        /* \"#utility.yul\":18500:18528   */\n      mstore\n        /* \"#utility.yul\":18421:18535   */\n      pop\n      jump\t// out\n        /* \"#utility.yul\":18541:18717   */\n    tag_351:\n        /* \"#utility.yul\":18681:18709   */\n      0x50726963652063616e6e6f7420626520657175616c20746f2030000000000000\n        /* \"#utility.yul\":18677:18678   */\n      0x00\n        /* \"#utility.yul\":18669:18675   */\n      dup3\n        /* \"#utility.yul\":18665:18679   */\n      add\n        /* \"#utility.yul\":18658:18710   */\n      mstore\n        /* \"#utility.yul\":18647:18717   */\n      pop\n      jump\t// out\n        /* \"#utility.yul\":18723:18845   */\n    tag_259:\n        /* \"#utility.yul\":18796:18820   */\n      tag_443\n        /* \"#utility.yul\":18814:18819   */\n      dup2\n        /* \"#utility.yul\":18796:18820   */\n      tag_282\n      jump\t// in\n    tag_443:\n        /* \"#utility.yul\":18789:18794   */\n      dup2\n        /* \"#utility.yul\":18786:18821   */\n      eq\n        /* \"#utility.yul\":18776:18778   */\n      tag_444\n      jumpi\n        /* \"#utility.yul\":18835:18836   */\n      0x00\n        /* \"#utility.yul\":18832:18833   */\n      dup1\n        /* \"#utility.yul\":18825:18837   */\n      revert\n        /* \"#utility.yul\":18776:18778   */\n    tag_444:\n        /* \"#utility.yul\":18766:18845   */\n      pop\n      jump\t// out\n        /* \"#utility.yul\":18851:18973   */\n    tag_263:\n        /* \"#utility.yul\":18924:18948   */\n      tag_446\n        /* \"#utility.yul\":18942:18947   */\n      dup2\n        /* \"#utility.yul\":18924:18948   */\n      tag_366\n      jump\t// in\n    tag_446:\n        /* \"#utility.yul\":18917:18922   */\n      dup2\n        /* \"#utility.yul\":18914:18949   */\n      eq\n        /* \"#utility.yul\":18904:18906   */\n      tag_447\n      jumpi\n        /* \"#utility.yul\":18963:18964   */\n      0x00\n        /* \"#utility.yul\":18960:18961   */\n      dup1\n        /* \"#utility.yul\":18953:18965   */\n      revert\n        /* \"#utility.yul\":18904:18906   */\n    tag_447:\n        /* \"#utility.yul\":18894:18973   */\n      pop\n      jump\t// out\n\n    auxdata: 0xa264697066735822122007261871beb3cb604e18870c7c01a0b05dec856fed351b762fc0cc7657162bf064736f6c63430008010033\n}\n",
				"bytecode": {
					"linkReferences": {},
					"object": "608060405265e35fa931a00060055560056006553480156200002057600080fd5b5033600260006101000a81548173ffffffffffffffffffffffffffffffffffffffff021916908373ffffffffffffffffffffffffffffffffffffffff1602179055506040518060400160405280600b81526020017f4765656b20546f6b656e7300000000000000000000000000000000000000000081525060009080519060200190620000af92919062000104565b506040518060400160405280600581526020017f4745454b5400000000000000000000000000000000000000000000000000000081525060019080519060200190620000fd92919062000104565b5062000219565b8280546200011290620001b4565b90600052602060002090601f01602090048101928262000136576000855562000182565b82601f106200015157805160ff191683800117855562000182565b8280016001018555821562000182579182015b828111156200018157825182559160200191906001019062000164565b5b50905062000191919062000195565b5090565b5b80821115620001b057600081600090555060010162000196565b5090565b60006002820490506001821680620001cd57607f821691505b60208210811415620001e457620001e3620001ea565b5b50919050565b7f4e487b7100000000000000000000000000000000000000000000000000000000600052602260045260246000fd5b6127d580620002296000396000f3fe6080604052600436106100e85760003560e01c80636352211e1161008a578063a411d68d11610059578063a411d68d14610302578063a4964c331461032d578063c0f202ef14610356578063e6e95ea714610372576100e8565b80636352211e1461024157806367af7d091461027e57806370a08231146102a957806391b6be9a146102e6576100e8565b80631b03427c116100c65780631b03427c14610173578063406693b21461019c5780634cad2ffc146101d95780635547425714610204576100e8565b806302acc94b146100ed578063073e74df1461011d578063160035b114610148575b600080fd5b61010760048036038101906101029190611e8b565b61039b565b604051610114919061232c565b60405180910390f35b34801561012957600080fd5b50610132610762565b60405161013f91906121af565b60405180910390f35b34801561015457600080fd5b5061015d610955565b60405161016a919061232c565b60405180910390f35b34801561017f57600080fd5b5061019a60048036038101906101959190611e62565b61095f565b005b3480156101a857600080fd5b506101c360048036038101906101be9190611e62565b6109f9565b6040516101d091906121af565b60405180910390f35b3480156101e557600080fd5b506101ee610c1d565b6040516101fb91906121af565b60405180910390f35b34801561021057600080fd5b5061022b60048036038101906102269190611e62565b610e4f565b6040516102389190612311565b60405180910390f35b34801561024d57600080fd5b5061026860048036038101906102639190611e62565b610f72565b6040516102759190612194565b60405180910390f35b34801561028a57600080fd5b50610293610faf565b6040516102a091906121af565b60405180910390f35b3480156102b557600080fd5b506102d060048036038101906102cb9190611e39565b6111e1565b6040516102dd919061232c565b60405180910390f35b61030060048036038101906102fb9190611e62565b61122a565b005b34801561030e57600080fd5b50610317611799565b604051610324919061232c565b60405180910390f35b34801561033957600080fd5b50610354600480360381019061034f9190611e62565b6117a3565b005b610370600480360381019061036b9190611e62565b611a02565b005b34801561037e57600080fd5b5061039960048036038101906103949190611e62565b611d0d565b005b600060055434146103e1576040517f08c379a00000000000000000000000000000000000000000000000000000000081526004016103d8906122b1565b60405180910390fd5b60008411610424576040517f08c379a000000000000000000000000000000000000000000000000000000000815260040161041b906122f1565b60405180910390fd5b60006003805490509050600073ffffffffffffffffffffffffffffffffffffffff166008600083815260200190815260200160002060009054906101000a900473ffffffffffffffffffffffffffffffffffffffff1673ffffffffffffffffffffffffffffffffffffffff16146104d0576040517f08c379a00000000000000000000000000000000000000000000000000000000081526004016104c790612211565b60405180910390fd5b6003604051806080016040528085815260200183815260200187815260200160011515815250908060018154018082558091505060019003906000526020600020906004020160009091909190915060008201518160000155602082015181600101556040820151816002015560608201518160030160006101000a81548160ff0219169083151502179055505050336008600083815260200190815260200160002060006101000a81548173ffffffffffffffffffffffffffffffffffffffff021916908373ffffffffffffffffffffffffffffffffffffffff16021790555033600a600083815260200190815260200160002060006101000a81548173ffffffffffffffffffffffffffffffffffffffff021916908373ffffffffffffffffffffffffffffffffffffffff16021790555083600c600083815260200190815260200160002081905550600760003373ffffffffffffffffffffffffffffffffffffffff1673ffffffffffffffffffffffffffffffffffffffff16815260200190815260200160002060008154809291906001019190505550600960003373ffffffffffffffffffffffffffffffffffffffff1673ffffffffffffffffffffffffffffffffffffffff16815260200190815260200160002060008154809291906001019190505550600b600085815260200190815260200160002060008154809291906001019190505550600460008154809291906001019190505550600260009054906101000a900473ffffffffffffffffffffffffffffffffffffffff1673ffffffffffffffffffffffffffffffffffffffff166108fc349081150290604051600060405180830381858888f19350505050158015610756573d6000803e3d6000fd5b50809150509392505050565b606060008060045467ffffffffffffffff8111156107a9577f4e487b7100000000000000000000000000000000000000000000000000000000600052604160045260246000fd5b6040519080825280602002602001820160405280156107e257816020015b6107cf611de5565b8152602001906001900390816107c75790505b50905060005b60038054905081101561094c576001151560038281548110610833577f4e487b7100000000000000000000000000000000000000000000000000000000600052603260045260246000fd5b906000526020600020906004020160030160009054906101000a900460ff16151514156109395760038181548110610894577f4e487b7100000000000000000000000000000000000000000000000000000000600052603260045260246000fd5b90600052602060002090600402016040518060800160405290816000820154815260200160018201548152602001600282015481526020016003820160009054906101000a900460ff16151515158152505082848151811061091f577f4e487b7100000000000000000000000000000000000000000000000000000000600052603260045260246000fd5b6020026020010181905250828061093590612498565b9350505b808061094490612498565b9150506107e8565b50809250505090565b6000600654905090565b600260009054906101000a900473ffffffffffffffffffffffffffffffffffffffff1673ffffffffffffffffffffffffffffffffffffffff163373ffffffffffffffffffffffffffffffffffffffff16146109ef576040517f08c379a00000000000000000000000000000000000000000000000000000000081526004016109e6906122d1565b60405180910390fd5b8060068190555050565b6060600080600b60008581526020019081526020016000205467ffffffffffffffff811115610a51577f4e487b7100000000000000000000000000000000000000000000000000000000600052604160045260246000fd5b604051908082528060200260200182016040528015610a8a57816020015b610a77611de5565b815260200190600190039081610a6f5790505b50905060005b600380549050811015610c125784600c600083815260200190815260200160002054148015610b1b57506001151560038281548110610af8577f4e487b7100000000000000000000000000000000000000000000000000000000600052603260045260246000fd5b906000526020600020906004020160030160009054906101000a900460ff161515145b15610bff5760038181548110610b5a577f4e487b7100000000000000000000000000000000000000000000000000000000600052603260045260246000fd5b90600052602060002090600402016040518060800160405290816000820154815260200160018201548152602001600282015481526020016003820160009054906101000a900460ff161515151581525050828481518110610be5577f4e487b7100000000000000000000000000000000000000000000000000000000600052603260045260246000fd5b60200260200101819052508280610bfb90612498565b9350505b8080610c0a90612498565b915050610a90565b508092505050919050565b6060600080600760003373ffffffffffffffffffffffffffffffffffffffff1673ffffffffffffffffffffffffffffffffffffffff1681526020019081526020016000205467ffffffffffffffff811115610ca1577f4e487b7100000000000000000000000000000000000000000000000000000000600052604160045260246000fd5b604051908082528060200260200182016040528015610cda57816020015b610cc7611de5565b815260200190600190039081610cbf5790505b50905060005b600380549050811015610e46573373ffffffffffffffffffffffffffffffffffffffff166008600083815260200190815260200160002060009054906101000a900473ffffffffffffffffffffffffffffffffffffffff1673ffffffffffffffffffffffffffffffffffffffff161415610e335760038181548110610d8e577f4e487b7100000000000000000000000000000000000000000000000000000000600052603260045260246000fd5b90600052602060002090600402016040518060800160405290816000820154815260200160018201548152602001600282015481526020016003820160009054906101000a900460ff161515151581525050828481518110610e19577f4e487b7100000000000000000000000000000000000000000000000000000000600052603260045260246000fd5b60200260200101819052508280610e2f90612498565b9350505b8080610e3e90612498565b915050610ce0565b50809250505090565b610e57611de5565b610e5f611de5565b60005b600380549050811015610f68578360038281548110610eaa577f4e487b7100000000000000000000000000000000000000000000000000000000600052603260045260246000fd5b9060005260206000209060040201600001541415610f555760038181548110610efc577f4e487b7100000000000000000000000000000000000000000000000000000000600052603260045260246000fd5b90600052602060002090600402016040518060800160405290816000820154815260200160018201548152602001600282015481526020016003820160009054906101000a900460ff1615151515815250509150610f68565b8080610f6090612498565b915050610e62565b5080915050919050565b60006008600083815260200190815260200160002060009054906101000a900473ffffffffffffffffffffffffffffffffffffffff169050919050565b6060600080600960003373ffffffffffffffffffffffffffffffffffffffff1673ffffffffffffffffffffffffffffffffffffffff1681526020019081526020016000205467ffffffffffffffff811115611033577f4e487b7100000000000000000000000000000000000000000000000000000000600052604160045260246000fd5b60405190808252806020026020018201604052801561106c57816020015b611059611de5565b8152602001906001900390816110515790505b50905060005b6003805490508110156111d8573373ffffffffffffffffffffffffffffffffffffffff16600a600083815260200190815260200160002060009054906101000a900473ffffffffffffffffffffffffffffffffffffffff1673ffffffffffffffffffffffffffffffffffffffff1614156111c55760038181548110611120577f4e487b7100000000000000000000000000000000000000000000000000000000600052603260045260246000fd5b90600052602060002090600402016040518060800160405290816000820154815260200160018201548152602001600282015481526020016003820160009054906101000a900460ff1615151515815250508284815181106111ab577f4e487b7100000000000000000000000000000000000000000000000000000000600052603260045260246000fd5b602002602001018190525082806111c190612498565b9350505b80806111d090612498565b915050611072565b50809250505090565b6000600760008373ffffffffffffffffffffffffffffffffffffffff1673ffffffffffffffffffffffffffffffffffffffff168152602001908152602001600020549050919050565b60038181548110611264577f4e487b7100000000000000000000000000000000000000000000000000000000600052603260045260246000fd5b90600052602060002090600402016002015434146112b7576040517f08c379a00000000000000000000000000000000000000000000000000000000081526004016112ae90612231565b60405180910390fd5b600073ffffffffffffffffffffffffffffffffffffffff166008600083815260200190815260200160002060009054906101000a900473ffffffffffffffffffffffffffffffffffffffff1673ffffffffffffffffffffffffffffffffffffffff16141561135a576040517f08c379a000000000000000000000000000000000000000000000000000000000815260040161135190612251565b60405180910390fd5b3373ffffffffffffffffffffffffffffffffffffffff166008600083815260200190815260200160002060009054906101000a900473ffffffffffffffffffffffffffffffffffffffff1673ffffffffffffffffffffffffffffffffffffffff1614156113fc576040517f08c379a00000000000000000000000000000000000000000000000000000000081526004016113f3906121d1565b60405180910390fd5b60006008600083815260200190815260200160002060009054906101000a900473ffffffffffffffffffffffffffffffffffffffff169050600060038381548110611470577f4e487b7100000000000000000000000000000000000000000000000000000000600052603260045260246000fd5b9060005260206000209060040201905060008160030160006101000a81548160ff021916908315150217905550336008600085815260200190815260200160002060006101000a81548173ffffffffffffffffffffffffffffffffffffffff021916908373ffffffffffffffffffffffffffffffffffffffff160217905550600760008373ffffffffffffffffffffffffffffffffffffffff1673ffffffffffffffffffffffffffffffffffffffff1681526020019081526020016000206000815480929190600190039190505550600760003373ffffffffffffffffffffffffffffffffffffffff1673ffffffffffffffffffffffffffffffffffffffff16815260200190815260200160002060008154809291906001019190505550600460008154809291906001900391905055508173ffffffffffffffffffffffffffffffffffffffff16600a600085815260200190815260200160002060009054906101000a900473ffffffffffffffffffffffffffffffffffffffff1673ffffffffffffffffffffffffffffffffffffffff161415611654578173ffffffffffffffffffffffffffffffffffffffff166108fc349081150290604051600060405180830381858888f1935050505015801561164e573d6000803e3d6000fd5b5061172f565b60008061166334600654611da7565b8092508193505050600a600086815260200190815260200160002060009054906101000a900473ffffffffffffffffffffffffffffffffffffffff1673ffffffffffffffffffffffffffffffffffffffff166108fc839081150290604051600060405180830381858888f193505050501580156116e4573d6000803e3d6000fd5b508373ffffffffffffffffffffffffffffffffffffffff166108fc829081150290604051600060405180830381858888f1935050505015801561172b573d6000803e3d6000fd5b5050505b3373ffffffffffffffffffffffffffffffffffffffff168273ffffffffffffffffffffffffffffffffffffffff167fddf252ad1be2c89b69c2b068fc378daa952ba7f163c4a11628f55a4df523b3ef8560405161178c919061232c565b60405180910390a3505050565b6000600554905090565b803373ffffffffffffffffffffffffffffffffffffffff166008600083815260200190815260200160002060009054906101000a900473ffffffffffffffffffffffffffffffffffffffff1673ffffffffffffffffffffffffffffffffffffffff1614611845576040517f08c379a000000000000000000000000000000000000000000000000000000000815260040161183c90612271565b60405180910390fd5b600073ffffffffffffffffffffffffffffffffffffffff166008600084815260200190815260200160002060009054906101000a900473ffffffffffffffffffffffffffffffffffffffff1673ffffffffffffffffffffffffffffffffffffffff1614156118e8576040517f08c379a00000000000000000000000000000000000000000000000000000000081526004016118df90612251565b60405180910390fd5b6001151560038381548110611926577f4e487b7100000000000000000000000000000000000000000000000000000000600052603260045260246000fd5b906000526020600020906004020160030160009054906101000a900460ff16151514611987576040517f08c379a000000000000000000000000000000000000000000000000000000000815260040161197e906121f1565b60405180910390fd5b6000600383815481106119c3577f4e487b7100000000000000000000000000000000000000000000000000000000600052603260045260246000fd5b906000526020600020906004020160030160006101000a81548160ff021916908315150217905550600460008154809291906001900391905055505050565b6005543414611a46576040517f08c379a0000000000000000000000000000000000000000000000000000000008152600401611a3d906122b1565b60405180910390fd5b803373ffffffffffffffffffffffffffffffffffffffff166008600083815260200190815260200160002060009054906101000a900473ffffffffffffffffffffffffffffffffffffffff1673ffffffffffffffffffffffffffffffffffffffff1614611ae8576040517f08c379a0000000000000000000000000000000000000000000000000000000008152600401611adf90612271565b60405180910390fd5b600073ffffffffffffffffffffffffffffffffffffffff166008600084815260200190815260200160002060009054906101000a900473ffffffffffffffffffffffffffffffffffffffff1673ffffffffffffffffffffffffffffffffffffffff161415611b8b576040517f08c379a0000000000000000000000000000000000000000000000000000000008152600401611b8290612251565b60405180910390fd5b6000151560038381548110611bc9577f4e487b7100000000000000000000000000000000000000000000000000000000600052603260045260246000fd5b906000526020600020906004020160030160009054906101000a900460ff16151514611c2a576040517f08c379a0000000000000000000000000000000000000000000000000000000008152600401611c2190612291565b60405180910390fd5b600160038381548110611c66577f4e487b7100000000000000000000000000000000000000000000000000000000600052603260045260246000fd5b906000526020600020906004020160030160006101000a81548160ff021916908315150217905550600460008154809291906001019190505550600260009054906101000a900473ffffffffffffffffffffffffffffffffffffffff1673ffffffffffffffffffffffffffffffffffffffff166108fc349081150290604051600060405180830381858888f19350505050158015611d08573d6000803e3d6000fd5b505050565b600260009054906101000a900473ffffffffffffffffffffffffffffffffffffffff1673ffffffffffffffffffffffffffffffffffffffff163373ffffffffffffffffffffffffffffffffffffffff1614611d9d576040517f08c379a0000000000000000000000000000000000000000000000000000000008152600401611d94906122d1565b60405180910390fd5b8060058190555050565b600080600060648585611dba91906123c2565b611dc49190612391565b905060008186611dd4919061241c565b905081819350935050509250929050565b60405180608001604052806000815260200160008152602001600081526020016000151581525090565b600081359050611e1e81612771565b92915050565b600081359050611e3381612788565b92915050565b600060208284031215611e4b57600080fd5b6000611e5984828501611e0f565b91505092915050565b600060208284031215611e7457600080fd5b6000611e8284828501611e24565b91505092915050565b600080600060608486031215611ea057600080fd5b6000611eae86828701611e24565b9350506020611ebf86828701611e24565b9250506040611ed086828701611e24565b9150509250925092565b6000611ee683836120cc565b60808301905092915050565b611efb81612450565b82525050565b6000611f0c82612357565b611f16818561236f565b9350611f2183612347565b8060005b83811015611f52578151611f398882611eda565b9750611f4483612362565b925050600181019050611f25565b5085935050505092915050565b611f6881612462565b82525050565b6000611f7b602983612380565b9150611f868261253f565b604082019050919050565b6000611f9e601383612380565b9150611fa98261258e565b602082019050919050565b6000611fc1601383612380565b9150611fcc826125b7565b602082019050919050565b6000611fe4603583612380565b9150611fef826125e0565b604082019050919050565b6000612007601383612380565b91506120128261262f565b602082019050919050565b600061202a601d83612380565b915061203582612658565b602082019050919050565b600061204d601883612380565b915061205882612681565b602082019050919050565b6000612070602183612380565b915061207b826126aa565b604082019050919050565b6000612093602183612380565b915061209e826126f9565b604082019050919050565b60006120b6601a83612380565b91506120c182612748565b602082019050919050565b6080820160008201516120e26000850182612176565b5060208201516120f56020850182612176565b5060408201516121086040850182612176565b50606082015161211b6060850182611f5f565b50505050565b6080820160008201516121376000850182612176565b50602082015161214a6020850182612176565b50604082015161215d6040850182612176565b5060608201516121706060850182611f5f565b50505050565b61217f8161248e565b82525050565b61218e8161248e565b82525050565b60006020820190506121a96000830184611ef2565b92915050565b600060208201905081810360008301526121c98184611f01565b905092915050565b600060208201905081810360008301526121ea81611f6e565b9050919050565b6000602082019050818103600083015261220a81611f91565b9050919050565b6000602082019050818103600083015261222a81611fb4565b9050919050565b6000602082019050818103600083015261224a81611fd7565b9050919050565b6000602082019050818103600083015261226a81611ffa565b9050919050565b6000602082019050818103600083015261228a8161201d565b9050919050565b600060208201905081810360008301526122aa81612040565b9050919050565b600060208201905081810360008301526122ca81612063565b9050919050565b600060208201905081810360008301526122ea81612086565b9050919050565b6000602082019050818103600083015261230a816120a9565b9050919050565b60006080820190506123266000830184612121565b92915050565b60006020820190506123416000830184612185565b92915050565b6000819050602082019050919050565b600081519050919050565b6000602082019050919050565b600082825260208201905092915050565b600082825260208201905092915050565b600061239c8261248e565b91506123a78361248e565b9250826123b7576123b6612510565b5b828204905092915050565b60006123cd8261248e565b91506123d88361248e565b9250817fffffffffffffffffffffffffffffffffffffffffffffffffffffffffffffffff0483118215151615612411576124106124e1565b5b828202905092915050565b60006124278261248e565b91506124328361248e565b925082821015612445576124446124e1565b5b828203905092915050565b600061245b8261246e565b9050919050565b60008115159050919050565b600073ffffffffffffffffffffffffffffffffffffffff82169050919050565b6000819050919050565b60006124a38261248e565b91507fffffffffffffffffffffffffffffffffffffffffffffffffffffffffffffffff8214156124d6576124d56124e1565b5b600182019050919050565b7f4e487b7100000000000000000000000000000000000000000000000000000000600052601160045260246000fd5b7f4e487b7100000000000000000000000000000000000000000000000000000000600052601260045260246000fd5b7f796f752063616e27742062757920616e206974656d20746861742062656c6f6e60008201527f677320746f20796f750000000000000000000000000000000000000000000000602082015250565b7f746f6b656e2069736e277420746f2073656c6c00000000000000000000000000600082015250565b7f746f6b656e20616c726561647920657869737400000000000000000000000000600082015250565b7f7472616e73616374696f6e27732076616c75652063616e6e6f7420626520646960008201527f66666572656e74206f66206974656d2070726963650000000000000000000000602082015250565b7f746f6b656e20646f65736e277420657869737400000000000000000000000000600082015250565b7f4f6e6c79206974656d2773206f776e65722063616e20646f2074686174000000600082015250565b7f746f6b656e20697320616c726561647920746f2073656c6c0000000000000000600082015250565b7f5468616e6b7320746f2073656e6420636f727265637420666565732076616c7560008201527f6500000000000000000000000000000000000000000000000000000000000000602082015250565b7f4f6e6c7920636f6e74726163742773206f776e65722063616e20646f2074686160008201527f7400000000000000000000000000000000000000000000000000000000000000602082015250565b7f50726963652063616e6e6f7420626520657175616c20746f2030000000000000600082015250565b61277a81612450565b811461278557600080fd5b50565b6127918161248e565b811461279c57600080fd5b5056fea264697066735822122007261871beb3cb604e18870c7c01a0b05dec856fed351b762fc0cc7657162bf064736f6c63430008010033",
					"opcodes": "PUSH1 0x80 PUSH1 0x40 MSTORE PUSH6 0xE35FA931A000 PUSH1 0x5 SSTORE PUSH1 0x5 PUSH1 0x6 SSTORE CALLVALUE DUP1 ISZERO PUSH3 0x20 JUMPI PUSH1 0x0 DUP1 REVERT JUMPDEST POP CALLER PUSH1 0x2 PUSH1 0x0 PUSH2 0x100 EXP DUP2 SLOAD DUP2 PUSH20 0xFFFFFFFFFFFFFFFFFFFFFFFFFFFFFFFFFFFFFFFF MUL NOT AND SWAP1 DUP4 PUSH20 0xFFFFFFFFFFFFFFFFFFFFFFFFFFFFFFFFFFFFFFFF AND MUL OR SWAP1 SSTORE POP PUSH1 0x40 MLOAD DUP1 PUSH1 0x40 ADD PUSH1 0x40 MSTORE DUP1 PUSH1 0xB DUP2 MSTORE PUSH1 0x20 ADD PUSH32 0x4765656B20546F6B656E73000000000000000000000000000000000000000000 DUP2 MSTORE POP PUSH1 0x0 SWAP1 DUP1 MLOAD SWAP1 PUSH1 0x20 ADD SWAP1 PUSH3 0xAF SWAP3 SWAP2 SWAP1 PUSH3 0x104 JUMP JUMPDEST POP PUSH1 0x40 MLOAD DUP1 PUSH1 0x40 ADD PUSH1 0x40 MSTORE DUP1 PUSH1 0x5 DUP2 MSTORE PUSH1 0x20 ADD PUSH32 0x4745454B54000000000000000000000000000000000000000000000000000000 DUP2 MSTORE POP PUSH1 0x1 SWAP1 DUP1 MLOAD SWAP1 PUSH1 0x20 ADD SWAP1 PUSH3 0xFD SWAP3 SWAP2 SWAP1 PUSH3 0x104 JUMP JUMPDEST POP PUSH3 0x219 JUMP JUMPDEST DUP3 DUP1 SLOAD PUSH3 0x112 SWAP1 PUSH3 0x1B4 JUMP JUMPDEST SWAP1 PUSH1 0x0 MSTORE PUSH1 0x20 PUSH1 0x0 KECCAK256 SWAP1 PUSH1 0x1F ADD PUSH1 0x20 SWAP1 DIV DUP2 ADD SWAP3 DUP3 PUSH3 0x136 JUMPI PUSH1 0x0 DUP6 SSTORE PUSH3 0x182 JUMP JUMPDEST DUP3 PUSH1 0x1F LT PUSH3 0x151 JUMPI DUP1 MLOAD PUSH1 0xFF NOT AND DUP4 DUP1 ADD OR DUP6 SSTORE PUSH3 0x182 JUMP JUMPDEST DUP3 DUP1 ADD PUSH1 0x1 ADD DUP6 SSTORE DUP3 ISZERO PUSH3 0x182 JUMPI SWAP2 DUP3 ADD JUMPDEST DUP3 DUP2 GT ISZERO PUSH3 0x181 JUMPI DUP3 MLOAD DUP3 SSTORE SWAP2 PUSH1 0x20 ADD SWAP2 SWAP1 PUSH1 0x1 ADD SWAP1 PUSH3 0x164 JUMP JUMPDEST JUMPDEST POP SWAP1 POP PUSH3 0x191 SWAP2 SWAP1 PUSH3 0x195 JUMP JUMPDEST POP SWAP1 JUMP JUMPDEST JUMPDEST DUP1 DUP3 GT ISZERO PUSH3 0x1B0 JUMPI PUSH1 0x0 DUP2 PUSH1 0x0 SWAP1 SSTORE POP PUSH1 0x1 ADD PUSH3 0x196 JUMP JUMPDEST POP SWAP1 JUMP JUMPDEST PUSH1 0x0 PUSH1 0x2 DUP3 DIV SWAP1 POP PUSH1 0x1 DUP3 AND DUP1 PUSH3 0x1CD JUMPI PUSH1 0x7F DUP3 AND SWAP2 POP JUMPDEST PUSH1 0x20 DUP3 LT DUP2 EQ ISZERO PUSH3 0x1E4 JUMPI PUSH3 0x1E3 PUSH3 0x1EA JUMP JUMPDEST JUMPDEST POP SWAP2 SWAP1 POP JUMP JUMPDEST PUSH32 0x4E487B7100000000000000000000000000000000000000000000000000000000 PUSH1 0x0 MSTORE PUSH1 0x22 PUSH1 0x4 MSTORE PUSH1 0x24 PUSH1 0x0 REVERT JUMPDEST PUSH2 0x27D5 DUP1 PUSH3 0x229 PUSH1 0x0 CODECOPY PUSH1 0x0 RETURN INVALID PUSH1 0x80 PUSH1 0x40 MSTORE PUSH1 0x4 CALLDATASIZE LT PUSH2 0xE8 JUMPI PUSH1 0x0 CALLDATALOAD PUSH1 0xE0 SHR DUP1 PUSH4 0x6352211E GT PUSH2 0x8A JUMPI DUP1 PUSH4 0xA411D68D GT PUSH2 0x59 JUMPI DUP1 PUSH4 0xA411D68D EQ PUSH2 0x302 JUMPI DUP1 PUSH4 0xA4964C33 EQ PUSH2 0x32D JUMPI DUP1 PUSH4 0xC0F202EF EQ PUSH2 0x356 JUMPI DUP1 PUSH4 0xE6E95EA7 EQ PUSH2 0x372 JUMPI PUSH2 0xE8 JUMP JUMPDEST DUP1 PUSH4 0x6352211E EQ PUSH2 0x241 JUMPI DUP1 PUSH4 0x67AF7D09 EQ PUSH2 0x27E JUMPI DUP1 PUSH4 0x70A08231 EQ PUSH2 0x2A9 JUMPI DUP1 PUSH4 0x91B6BE9A EQ PUSH2 0x2E6 JUMPI PUSH2 0xE8 JUMP JUMPDEST DUP1 PUSH4 0x1B03427C GT PUSH2 0xC6 JUMPI DUP1 PUSH4 0x1B03427C EQ PUSH2 0x173 JUMPI DUP1 PUSH4 0x406693B2 EQ PUSH2 0x19C JUMPI DUP1 PUSH4 0x4CAD2FFC EQ PUSH2 0x1D9 JUMPI DUP1 PUSH4 0x55474257 EQ PUSH2 0x204 JUMPI PUSH2 0xE8 JUMP JUMPDEST DUP1 PUSH4 0x2ACC94B EQ PUSH2 0xED JUMPI DUP1 PUSH4 0x73E74DF EQ PUSH2 0x11D JUMPI DUP1 PUSH4 0x160035B1 EQ PUSH2 0x148 JUMPI JUMPDEST PUSH1 0x0 DUP1 REVERT JUMPDEST PUSH2 0x107 PUSH1 0x4 DUP1 CALLDATASIZE SUB DUP2 ADD SWAP1 PUSH2 0x102 SWAP2 SWAP1 PUSH2 0x1E8B JUMP JUMPDEST PUSH2 0x39B JUMP JUMPDEST PUSH1 0x40 MLOAD PUSH2 0x114 SWAP2 SWAP1 PUSH2 0x232C JUMP JUMPDEST PUSH1 0x40 MLOAD DUP1 SWAP2 SUB SWAP1 RETURN JUMPDEST CALLVALUE DUP1 ISZERO PUSH2 0x129 JUMPI PUSH1 0x0 DUP1 REVERT JUMPDEST POP PUSH2 0x132 PUSH2 0x762 JUMP JUMPDEST PUSH1 0x40 MLOAD PUSH2 0x13F SWAP2 SWAP1 PUSH2 0x21AF JUMP JUMPDEST PUSH1 0x40 MLOAD DUP1 SWAP2 SUB SWAP1 RETURN JUMPDEST CALLVALUE DUP1 ISZERO PUSH2 0x154 JUMPI PUSH1 0x0 DUP1 REVERT JUMPDEST POP PUSH2 0x15D PUSH2 0x955 JUMP JUMPDEST PUSH1 0x40 MLOAD PUSH2 0x16A SWAP2 SWAP1 PUSH2 0x232C JUMP JUMPDEST PUSH1 0x40 MLOAD DUP1 SWAP2 SUB SWAP1 RETURN JUMPDEST CALLVALUE DUP1 ISZERO PUSH2 0x17F JUMPI PUSH1 0x0 DUP1 REVERT JUMPDEST POP PUSH2 0x19A PUSH1 0x4 DUP1 CALLDATASIZE SUB DUP2 ADD SWAP1 PUSH2 0x195 SWAP2 SWAP1 PUSH2 0x1E62 JUMP JUMPDEST PUSH2 0x95F JUMP JUMPDEST STOP JUMPDEST CALLVALUE DUP1 ISZERO PUSH2 0x1A8 JUMPI PUSH1 0x0 DUP1 REVERT JUMPDEST POP PUSH2 0x1C3 PUSH1 0x4 DUP1 CALLDATASIZE SUB DUP2 ADD SWAP1 PUSH2 0x1BE SWAP2 SWAP1 PUSH2 0x1E62 JUMP JUMPDEST PUSH2 0x9F9 JUMP JUMPDEST PUSH1 0x40 MLOAD PUSH2 0x1D0 SWAP2 SWAP1 PUSH2 0x21AF JUMP JUMPDEST PUSH1 0x40 MLOAD DUP1 SWAP2 SUB SWAP1 RETURN JUMPDEST CALLVALUE DUP1 ISZERO PUSH2 0x1E5 JUMPI PUSH1 0x0 DUP1 REVERT JUMPDEST POP PUSH2 0x1EE PUSH2 0xC1D JUMP JUMPDEST PUSH1 0x40 MLOAD PUSH2 0x1FB SWAP2 SWAP1 PUSH2 0x21AF JUMP JUMPDEST PUSH1 0x40 MLOAD DUP1 SWAP2 SUB SWAP1 RETURN JUMPDEST CALLVALUE DUP1 ISZERO PUSH2 0x210 JUMPI PUSH1 0x0 DUP1 REVERT JUMPDEST POP PUSH2 0x22B PUSH1 0x4 DUP1 CALLDATASIZE SUB DUP2 ADD SWAP1 PUSH2 0x226 SWAP2 SWAP1 PUSH2 0x1E62 JUMP JUMPDEST PUSH2 0xE4F JUMP JUMPDEST PUSH1 0x40 MLOAD PUSH2 0x238 SWAP2 SWAP1 PUSH2 0x2311 JUMP JUMPDEST PUSH1 0x40 MLOAD DUP1 SWAP2 SUB SWAP1 RETURN JUMPDEST CALLVALUE DUP1 ISZERO PUSH2 0x24D JUMPI PUSH1 0x0 DUP1 REVERT JUMPDEST POP PUSH2 0x268 PUSH1 0x4 DUP1 CALLDATASIZE SUB DUP2 ADD SWAP1 PUSH2 0x263 SWAP2 SWAP1 PUSH2 0x1E62 JUMP JUMPDEST PUSH2 0xF72 JUMP JUMPDEST PUSH1 0x40 MLOAD PUSH2 0x275 SWAP2 SWAP1 PUSH2 0x2194 JUMP JUMPDEST PUSH1 0x40 MLOAD DUP1 SWAP2 SUB SWAP1 RETURN JUMPDEST CALLVALUE DUP1 ISZERO PUSH2 0x28A JUMPI PUSH1 0x0 DUP1 REVERT JUMPDEST POP PUSH2 0x293 PUSH2 0xFAF JUMP JUMPDEST PUSH1 0x40 MLOAD PUSH2 0x2A0 SWAP2 SWAP1 PUSH2 0x21AF JUMP JUMPDEST PUSH1 0x40 MLOAD DUP1 SWAP2 SUB SWAP1 RETURN JUMPDEST CALLVALUE DUP1 ISZERO PUSH2 0x2B5 JUMPI PUSH1 0x0 DUP1 REVERT JUMPDEST POP PUSH2 0x2D0 PUSH1 0x4 DUP1 CALLDATASIZE SUB DUP2 ADD SWAP1 PUSH2 0x2CB SWAP2 SWAP1 PUSH2 0x1E39 JUMP JUMPDEST PUSH2 0x11E1 JUMP JUMPDEST PUSH1 0x40 MLOAD PUSH2 0x2DD SWAP2 SWAP1 PUSH2 0x232C JUMP JUMPDEST PUSH1 0x40 MLOAD DUP1 SWAP2 SUB SWAP1 RETURN JUMPDEST PUSH2 0x300 PUSH1 0x4 DUP1 CALLDATASIZE SUB DUP2 ADD SWAP1 PUSH2 0x2FB SWAP2 SWAP1 PUSH2 0x1E62 JUMP JUMPDEST PUSH2 0x122A JUMP JUMPDEST STOP JUMPDEST CALLVALUE DUP1 ISZERO PUSH2 0x30E JUMPI PUSH1 0x0 DUP1 REVERT JUMPDEST POP PUSH2 0x317 PUSH2 0x1799 JUMP JUMPDEST PUSH1 0x40 MLOAD PUSH2 0x324 SWAP2 SWAP1 PUSH2 0x232C JUMP JUMPDEST PUSH1 0x40 MLOAD DUP1 SWAP2 SUB SWAP1 RETURN JUMPDEST CALLVALUE DUP1 ISZERO PUSH2 0x339 JUMPI PUSH1 0x0 DUP1 REVERT JUMPDEST POP PUSH2 0x354 PUSH1 0x4 DUP1 CALLDATASIZE SUB DUP2 ADD SWAP1 PUSH2 0x34F SWAP2 SWAP1 PUSH2 0x1E62 JUMP JUMPDEST PUSH2 0x17A3 JUMP JUMPDEST STOP JUMPDEST PUSH2 0x370 PUSH1 0x4 DUP1 CALLDATASIZE SUB DUP2 ADD SWAP1 PUSH2 0x36B SWAP2 SWAP1 PUSH2 0x1E62 JUMP JUMPDEST PUSH2 0x1A02 JUMP JUMPDEST STOP JUMPDEST CALLVALUE DUP1 ISZERO PUSH2 0x37E JUMPI PUSH1 0x0 DUP1 REVERT JUMPDEST POP PUSH2 0x399 PUSH1 0x4 DUP1 CALLDATASIZE SUB DUP2 ADD SWAP1 PUSH2 0x394 SWAP2 SWAP1 PUSH2 0x1E62 JUMP JUMPDEST PUSH2 0x1D0D JUMP JUMPDEST STOP JUMPDEST PUSH1 0x0 PUSH1 0x5 SLOAD CALLVALUE EQ PUSH2 0x3E1 JUMPI PUSH1 0x40 MLOAD PUSH32 0x8C379A000000000000000000000000000000000000000000000000000000000 DUP2 MSTORE PUSH1 0x4 ADD PUSH2 0x3D8 SWAP1 PUSH2 0x22B1 JUMP JUMPDEST PUSH1 0x40 MLOAD DUP1 SWAP2 SUB SWAP1 REVERT JUMPDEST PUSH1 0x0 DUP5 GT PUSH2 0x424 JUMPI PUSH1 0x40 MLOAD PUSH32 0x8C379A000000000000000000000000000000000000000000000000000000000 DUP2 MSTORE PUSH1 0x4 ADD PUSH2 0x41B SWAP1 PUSH2 0x22F1 JUMP JUMPDEST PUSH1 0x40 MLOAD DUP1 SWAP2 SUB SWAP1 REVERT JUMPDEST PUSH1 0x0 PUSH1 0x3 DUP1 SLOAD SWAP1 POP SWAP1 POP PUSH1 0x0 PUSH20 0xFFFFFFFFFFFFFFFFFFFFFFFFFFFFFFFFFFFFFFFF AND PUSH1 0x8 PUSH1 0x0 DUP4 DUP2 MSTORE PUSH1 0x20 ADD SWAP1 DUP2 MSTORE PUSH1 0x20 ADD PUSH1 0x0 KECCAK256 PUSH1 0x0 SWAP1 SLOAD SWAP1 PUSH2 0x100 EXP SWAP1 DIV PUSH20 0xFFFFFFFFFFFFFFFFFFFFFFFFFFFFFFFFFFFFFFFF AND PUSH20 0xFFFFFFFFFFFFFFFFFFFFFFFFFFFFFFFFFFFFFFFF AND EQ PUSH2 0x4D0 JUMPI PUSH1 0x40 MLOAD PUSH32 0x8C379A000000000000000000000000000000000000000000000000000000000 DUP2 MSTORE PUSH1 0x4 ADD PUSH2 0x4C7 SWAP1 PUSH2 0x2211 JUMP JUMPDEST PUSH1 0x40 MLOAD DUP1 SWAP2 SUB SWAP1 REVERT JUMPDEST PUSH1 0x3 PUSH1 0x40 MLOAD DUP1 PUSH1 0x80 ADD PUSH1 0x40 MSTORE DUP1 DUP6 DUP2 MSTORE PUSH1 0x20 ADD DUP4 DUP2 MSTORE PUSH1 0x20 ADD DUP8 DUP2 MSTORE PUSH1 0x20 ADD PUSH1 0x1 ISZERO ISZERO DUP2 MSTORE POP SWAP1 DUP1 PUSH1 0x1 DUP2 SLOAD ADD DUP1 DUP3 SSTORE DUP1 SWAP2 POP POP PUSH1 0x1 SWAP1 SUB SWAP1 PUSH1 0x0 MSTORE PUSH1 0x20 PUSH1 0x0 KECCAK256 SWAP1 PUSH1 0x4 MUL ADD PUSH1 0x0 SWAP1 SWAP2 SWAP1 SWAP2 SWAP1 SWAP2 POP PUSH1 0x0 DUP3 ADD MLOAD DUP2 PUSH1 0x0 ADD SSTORE PUSH1 0x20 DUP3 ADD MLOAD DUP2 PUSH1 0x1 ADD SSTORE PUSH1 0x40 DUP3 ADD MLOAD DUP2 PUSH1 0x2 ADD SSTORE PUSH1 0x60 DUP3 ADD MLOAD DUP2 PUSH1 0x3 ADD PUSH1 0x0 PUSH2 0x100 EXP DUP2 SLOAD DUP2 PUSH1 0xFF MUL NOT AND SWAP1 DUP4 ISZERO ISZERO MUL OR SWAP1 SSTORE POP POP POP CALLER PUSH1 0x8 PUSH1 0x0 DUP4 DUP2 MSTORE PUSH1 0x20 ADD SWAP1 DUP2 MSTORE PUSH1 0x20 ADD PUSH1 0x0 KECCAK256 PUSH1 0x0 PUSH2 0x100 EXP DUP2 SLOAD DUP2 PUSH20 0xFFFFFFFFFFFFFFFFFFFFFFFFFFFFFFFFFFFFFFFF MUL NOT AND SWAP1 DUP4 PUSH20 0xFFFFFFFFFFFFFFFFFFFFFFFFFFFFFFFFFFFFFFFF AND MUL OR SWAP1 SSTORE POP CALLER PUSH1 0xA PUSH1 0x0 DUP4 DUP2 MSTORE PUSH1 0x20 ADD SWAP1 DUP2 MSTORE PUSH1 0x20 ADD PUSH1 0x0 KECCAK256 PUSH1 0x0 PUSH2 0x100 EXP DUP2 SLOAD DUP2 PUSH20 0xFFFFFFFFFFFFFFFFFFFFFFFFFFFFFFFFFFFFFFFF MUL NOT AND SWAP1 DUP4 PUSH20 0xFFFFFFFFFFFFFFFFFFFFFFFFFFFFFFFFFFFFFFFF AND MUL OR SWAP1 SSTORE POP DUP4 PUSH1 0xC PUSH1 0x0 DUP4 DUP2 MSTORE PUSH1 0x20 ADD SWAP1 DUP2 MSTORE PUSH1 0x20 ADD PUSH1 0x0 KECCAK256 DUP2 SWAP1 SSTORE POP PUSH1 0x7 PUSH1 0x0 CALLER PUSH20 0xFFFFFFFFFFFFFFFFFFFFFFFFFFFFFFFFFFFFFFFF AND PUSH20 0xFFFFFFFFFFFFFFFFFFFFFFFFFFFFFFFFFFFFFFFF AND DUP2 MSTORE PUSH1 0x20 ADD SWAP1 DUP2 MSTORE PUSH1 0x20 ADD PUSH1 0x0 KECCAK256 PUSH1 0x0 DUP2 SLOAD DUP1 SWAP3 SWAP2 SWAP1 PUSH1 0x1 ADD SWAP2 SWAP1 POP SSTORE POP PUSH1 0x9 PUSH1 0x0 CALLER PUSH20 0xFFFFFFFFFFFFFFFFFFFFFFFFFFFFFFFFFFFFFFFF AND PUSH20 0xFFFFFFFFFFFFFFFFFFFFFFFFFFFFFFFFFFFFFFFF AND DUP2 MSTORE PUSH1 0x20 ADD SWAP1 DUP2 MSTORE PUSH1 0x20 ADD PUSH1 0x0 KECCAK256 PUSH1 0x0 DUP2 SLOAD DUP1 SWAP3 SWAP2 SWAP1 PUSH1 0x1 ADD SWAP2 SWAP1 POP SSTORE POP PUSH1 0xB PUSH1 0x0 DUP6 DUP2 MSTORE PUSH1 0x20 ADD SWAP1 DUP2 MSTORE PUSH1 0x20 ADD PUSH1 0x0 KECCAK256 PUSH1 0x0 DUP2 SLOAD DUP1 SWAP3 SWAP2 SWAP1 PUSH1 0x1 ADD SWAP2 SWAP1 POP SSTORE POP PUSH1 0x4 PUSH1 0x0 DUP2 SLOAD DUP1 SWAP3 SWAP2 SWAP1 PUSH1 0x1 ADD SWAP2 SWAP1 POP SSTORE POP PUSH1 0x2 PUSH1 0x0 SWAP1 SLOAD SWAP1 PUSH2 0x100 EXP SWAP1 DIV PUSH20 0xFFFFFFFFFFFFFFFFFFFFFFFFFFFFFFFFFFFFFFFF AND PUSH20 0xFFFFFFFFFFFFFFFFFFFFFFFFFFFFFFFFFFFFFFFF AND PUSH2 0x8FC CALLVALUE SWAP1 DUP2 ISZERO MUL SWAP1 PUSH1 0x40 MLOAD PUSH1 0x0 PUSH1 0x40 MLOAD DUP1 DUP4 SUB DUP2 DUP6 DUP9 DUP9 CALL SWAP4 POP POP POP POP ISZERO DUP1 ISZERO PUSH2 0x756 JUMPI RETURNDATASIZE PUSH1 0x0 DUP1 RETURNDATACOPY RETURNDATASIZE PUSH1 0x0 REVERT JUMPDEST POP DUP1 SWAP2 POP POP SWAP4 SWAP3 POP POP POP JUMP JUMPDEST PUSH1 0x60 PUSH1 0x0 DUP1 PUSH1 0x4 SLOAD PUSH8 0xFFFFFFFFFFFFFFFF DUP2 GT ISZERO PUSH2 0x7A9 JUMPI PUSH32 0x4E487B7100000000000000000000000000000000000000000000000000000000 PUSH1 0x0 MSTORE PUSH1 0x41 PUSH1 0x4 MSTORE PUSH1 0x24 PUSH1 0x0 REVERT JUMPDEST PUSH1 0x40 MLOAD SWAP1 DUP1 DUP3 MSTORE DUP1 PUSH1 0x20 MUL PUSH1 0x20 ADD DUP3 ADD PUSH1 0x40 MSTORE DUP1 ISZERO PUSH2 0x7E2 JUMPI DUP2 PUSH1 0x20 ADD JUMPDEST PUSH2 0x7CF PUSH2 0x1DE5 JUMP JUMPDEST DUP2 MSTORE PUSH1 0x20 ADD SWAP1 PUSH1 0x1 SWAP1 SUB SWAP1 DUP2 PUSH2 0x7C7 JUMPI SWAP1 POP JUMPDEST POP SWAP1 POP PUSH1 0x0 JUMPDEST PUSH1 0x3 DUP1 SLOAD SWAP1 POP DUP2 LT ISZERO PUSH2 0x94C JUMPI PUSH1 0x1 ISZERO ISZERO PUSH1 0x3 DUP3 DUP2 SLOAD DUP2 LT PUSH2 0x833 JUMPI PUSH32 0x4E487B7100000000000000000000000000000000000000000000000000000000 PUSH1 0x0 MSTORE PUSH1 0x32 PUSH1 0x4 MSTORE PUSH1 0x24 PUSH1 0x0 REVERT JUMPDEST SWAP1 PUSH1 0x0 MSTORE PUSH1 0x20 PUSH1 0x0 KECCAK256 SWAP1 PUSH1 0x4 MUL ADD PUSH1 0x3 ADD PUSH1 0x0 SWAP1 SLOAD SWAP1 PUSH2 0x100 EXP SWAP1 DIV PUSH1 0xFF AND ISZERO ISZERO EQ ISZERO PUSH2 0x939 JUMPI PUSH1 0x3 DUP2 DUP2 SLOAD DUP2 LT PUSH2 0x894 JUMPI PUSH32 0x4E487B7100000000000000000000000000000000000000000000000000000000 PUSH1 0x0 MSTORE PUSH1 0x32 PUSH1 0x4 MSTORE PUSH1 0x24 PUSH1 0x0 REVERT JUMPDEST SWAP1 PUSH1 0x0 MSTORE PUSH1 0x20 PUSH1 0x0 KECCAK256 SWAP1 PUSH1 0x4 MUL ADD PUSH1 0x40 MLOAD DUP1 PUSH1 0x80 ADD PUSH1 0x40 MSTORE SWAP1 DUP2 PUSH1 0x0 DUP3 ADD SLOAD DUP2 MSTORE PUSH1 0x20 ADD PUSH1 0x1 DUP3 ADD SLOAD DUP2 MSTORE PUSH1 0x20 ADD PUSH1 0x2 DUP3 ADD SLOAD DUP2 MSTORE PUSH1 0x20 ADD PUSH1 0x3 DUP3 ADD PUSH1 0x0 SWAP1 SLOAD SWAP1 PUSH2 0x100 EXP SWAP1 DIV PUSH1 0xFF AND ISZERO ISZERO ISZERO ISZERO DUP2 MSTORE POP POP DUP3 DUP5 DUP2 MLOAD DUP2 LT PUSH2 0x91F JUMPI PUSH32 0x4E487B7100000000000000000000000000000000000000000000000000000000 PUSH1 0x0 MSTORE PUSH1 0x32 PUSH1 0x4 MSTORE PUSH1 0x24 PUSH1 0x0 REVERT JUMPDEST PUSH1 0x20 MUL PUSH1 0x20 ADD ADD DUP2 SWAP1 MSTORE POP DUP3 DUP1 PUSH2 0x935 SWAP1 PUSH2 0x2498 JUMP JUMPDEST SWAP4 POP POP JUMPDEST DUP1 DUP1 PUSH2 0x944 SWAP1 PUSH2 0x2498 JUMP JUMPDEST SWAP2 POP POP PUSH2 0x7E8 JUMP JUMPDEST POP DUP1 SWAP3 POP POP POP SWAP1 JUMP JUMPDEST PUSH1 0x0 PUSH1 0x6 SLOAD SWAP1 POP SWAP1 JUMP JUMPDEST PUSH1 0x2 PUSH1 0x0 SWAP1 SLOAD SWAP1 PUSH2 0x100 EXP SWAP1 DIV PUSH20 0xFFFFFFFFFFFFFFFFFFFFFFFFFFFFFFFFFFFFFFFF AND PUSH20 0xFFFFFFFFFFFFFFFFFFFFFFFFFFFFFFFFFFFFFFFF AND CALLER PUSH20 0xFFFFFFFFFFFFFFFFFFFFFFFFFFFFFFFFFFFFFFFF AND EQ PUSH2 0x9EF JUMPI PUSH1 0x40 MLOAD PUSH32 0x8C379A000000000000000000000000000000000000000000000000000000000 DUP2 MSTORE PUSH1 0x4 ADD PUSH2 0x9E6 SWAP1 PUSH2 0x22D1 JUMP JUMPDEST PUSH1 0x40 MLOAD DUP1 SWAP2 SUB SWAP1 REVERT JUMPDEST DUP1 PUSH1 0x6 DUP2 SWAP1 SSTORE POP POP JUMP JUMPDEST PUSH1 0x60 PUSH1 0x0 DUP1 PUSH1 0xB PUSH1 0x0 DUP6 DUP2 MSTORE PUSH1 0x20 ADD SWAP1 DUP2 MSTORE PUSH1 0x20 ADD PUSH1 0x0 KECCAK256 SLOAD PUSH8 0xFFFFFFFFFFFFFFFF DUP2 GT ISZERO PUSH2 0xA51 JUMPI PUSH32 0x4E487B7100000000000000000000000000000000000000000000000000000000 PUSH1 0x0 MSTORE PUSH1 0x41 PUSH1 0x4 MSTORE PUSH1 0x24 PUSH1 0x0 REVERT JUMPDEST PUSH1 0x40 MLOAD SWAP1 DUP1 DUP3 MSTORE DUP1 PUSH1 0x20 MUL PUSH1 0x20 ADD DUP3 ADD PUSH1 0x40 MSTORE DUP1 ISZERO PUSH2 0xA8A JUMPI DUP2 PUSH1 0x20 ADD JUMPDEST PUSH2 0xA77 PUSH2 0x1DE5 JUMP JUMPDEST DUP2 MSTORE PUSH1 0x20 ADD SWAP1 PUSH1 0x1 SWAP1 SUB SWAP1 DUP2 PUSH2 0xA6F JUMPI SWAP1 POP JUMPDEST POP SWAP1 POP PUSH1 0x0 JUMPDEST PUSH1 0x3 DUP1 SLOAD SWAP1 POP DUP2 LT ISZERO PUSH2 0xC12 JUMPI DUP5 PUSH1 0xC PUSH1 0x0 DUP4 DUP2 MSTORE PUSH1 0x20 ADD SWAP1 DUP2 MSTORE PUSH1 0x20 ADD PUSH1 0x0 KECCAK256 SLOAD EQ DUP1 ISZERO PUSH2 0xB1B JUMPI POP PUSH1 0x1 ISZERO ISZERO PUSH1 0x3 DUP3 DUP2 SLOAD DUP2 LT PUSH2 0xAF8 JUMPI PUSH32 0x4E487B7100000000000000000000000000000000000000000000000000000000 PUSH1 0x0 MSTORE PUSH1 0x32 PUSH1 0x4 MSTORE PUSH1 0x24 PUSH1 0x0 REVERT JUMPDEST SWAP1 PUSH1 0x0 MSTORE PUSH1 0x20 PUSH1 0x0 KECCAK256 SWAP1 PUSH1 0x4 MUL ADD PUSH1 0x3 ADD PUSH1 0x0 SWAP1 SLOAD SWAP1 PUSH2 0x100 EXP SWAP1 DIV PUSH1 0xFF AND ISZERO ISZERO EQ JUMPDEST ISZERO PUSH2 0xBFF JUMPI PUSH1 0x3 DUP2 DUP2 SLOAD DUP2 LT PUSH2 0xB5A JUMPI PUSH32 0x4E487B7100000000000000000000000000000000000000000000000000000000 PUSH1 0x0 MSTORE PUSH1 0x32 PUSH1 0x4 MSTORE PUSH1 0x24 PUSH1 0x0 REVERT JUMPDEST SWAP1 PUSH1 0x0 MSTORE PUSH1 0x20 PUSH1 0x0 KECCAK256 SWAP1 PUSH1 0x4 MUL ADD PUSH1 0x40 MLOAD DUP1 PUSH1 0x80 ADD PUSH1 0x40 MSTORE SWAP1 DUP2 PUSH1 0x0 DUP3 ADD SLOAD DUP2 MSTORE PUSH1 0x20 ADD PUSH1 0x1 DUP3 ADD SLOAD DUP2 MSTORE PUSH1 0x20 ADD PUSH1 0x2 DUP3 ADD SLOAD DUP2 MSTORE PUSH1 0x20 ADD PUSH1 0x3 DUP3 ADD PUSH1 0x0 SWAP1 SLOAD SWAP1 PUSH2 0x100 EXP SWAP1 DIV PUSH1 0xFF AND ISZERO ISZERO ISZERO ISZERO DUP2 MSTORE POP POP DUP3 DUP5 DUP2 MLOAD DUP2 LT PUSH2 0xBE5 JUMPI PUSH32 0x4E487B7100000000000000000000000000000000000000000000000000000000 PUSH1 0x0 MSTORE PUSH1 0x32 PUSH1 0x4 MSTORE PUSH1 0x24 PUSH1 0x0 REVERT JUMPDEST PUSH1 0x20 MUL PUSH1 0x20 ADD ADD DUP2 SWAP1 MSTORE POP DUP3 DUP1 PUSH2 0xBFB SWAP1 PUSH2 0x2498 JUMP JUMPDEST SWAP4 POP POP JUMPDEST DUP1 DUP1 PUSH2 0xC0A SWAP1 PUSH2 0x2498 JUMP JUMPDEST SWAP2 POP POP PUSH2 0xA90 JUMP JUMPDEST POP DUP1 SWAP3 POP POP POP SWAP2 SWAP1 POP JUMP JUMPDEST PUSH1 0x60 PUSH1 0x0 DUP1 PUSH1 0x7 PUSH1 0x0 CALLER PUSH20 0xFFFFFFFFFFFFFFFFFFFFFFFFFFFFFFFFFFFFFFFF AND PUSH20 0xFFFFFFFFFFFFFFFFFFFFFFFFFFFFFFFFFFFFFFFF AND DUP2 MSTORE PUSH1 0x20 ADD SWAP1 DUP2 MSTORE PUSH1 0x20 ADD PUSH1 0x0 KECCAK256 SLOAD PUSH8 0xFFFFFFFFFFFFFFFF DUP2 GT ISZERO PUSH2 0xCA1 JUMPI PUSH32 0x4E487B7100000000000000000000000000000000000000000000000000000000 PUSH1 0x0 MSTORE PUSH1 0x41 PUSH1 0x4 MSTORE PUSH1 0x24 PUSH1 0x0 REVERT JUMPDEST PUSH1 0x40 MLOAD SWAP1 DUP1 DUP3 MSTORE DUP1 PUSH1 0x20 MUL PUSH1 0x20 ADD DUP3 ADD PUSH1 0x40 MSTORE DUP1 ISZERO PUSH2 0xCDA JUMPI DUP2 PUSH1 0x20 ADD JUMPDEST PUSH2 0xCC7 PUSH2 0x1DE5 JUMP JUMPDEST DUP2 MSTORE PUSH1 0x20 ADD SWAP1 PUSH1 0x1 SWAP1 SUB SWAP1 DUP2 PUSH2 0xCBF JUMPI SWAP1 POP JUMPDEST POP SWAP1 POP PUSH1 0x0 JUMPDEST PUSH1 0x3 DUP1 SLOAD SWAP1 POP DUP2 LT ISZERO PUSH2 0xE46 JUMPI CALLER PUSH20 0xFFFFFFFFFFFFFFFFFFFFFFFFFFFFFFFFFFFFFFFF AND PUSH1 0x8 PUSH1 0x0 DUP4 DUP2 MSTORE PUSH1 0x20 ADD SWAP1 DUP2 MSTORE PUSH1 0x20 ADD PUSH1 0x0 KECCAK256 PUSH1 0x0 SWAP1 SLOAD SWAP1 PUSH2 0x100 EXP SWAP1 DIV PUSH20 0xFFFFFFFFFFFFFFFFFFFFFFFFFFFFFFFFFFFFFFFF AND PUSH20 0xFFFFFFFFFFFFFFFFFFFFFFFFFFFFFFFFFFFFFFFF AND EQ ISZERO PUSH2 0xE33 JUMPI PUSH1 0x3 DUP2 DUP2 SLOAD DUP2 LT PUSH2 0xD8E JUMPI PUSH32 0x4E487B7100000000000000000000000000000000000000000000000000000000 PUSH1 0x0 MSTORE PUSH1 0x32 PUSH1 0x4 MSTORE PUSH1 0x24 PUSH1 0x0 REVERT JUMPDEST SWAP1 PUSH1 0x0 MSTORE PUSH1 0x20 PUSH1 0x0 KECCAK256 SWAP1 PUSH1 0x4 MUL ADD PUSH1 0x40 MLOAD DUP1 PUSH1 0x80 ADD PUSH1 0x40 MSTORE SWAP1 DUP2 PUSH1 0x0 DUP3 ADD SLOAD DUP2 MSTORE PUSH1 0x20 ADD PUSH1 0x1 DUP3 ADD SLOAD DUP2 MSTORE PUSH1 0x20 ADD PUSH1 0x2 DUP3 ADD SLOAD DUP2 MSTORE PUSH1 0x20 ADD PUSH1 0x3 DUP3 ADD PUSH1 0x0 SWAP1 SLOAD SWAP1 PUSH2 0x100 EXP SWAP1 DIV PUSH1 0xFF AND ISZERO ISZERO ISZERO ISZERO DUP2 MSTORE POP POP DUP3 DUP5 DUP2 MLOAD DUP2 LT PUSH2 0xE19 JUMPI PUSH32 0x4E487B7100000000000000000000000000000000000000000000000000000000 PUSH1 0x0 MSTORE PUSH1 0x32 PUSH1 0x4 MSTORE PUSH1 0x24 PUSH1 0x0 REVERT JUMPDEST PUSH1 0x20 MUL PUSH1 0x20 ADD ADD DUP2 SWAP1 MSTORE POP DUP3 DUP1 PUSH2 0xE2F SWAP1 PUSH2 0x2498 JUMP JUMPDEST SWAP4 POP POP JUMPDEST DUP1 DUP1 PUSH2 0xE3E SWAP1 PUSH2 0x2498 JUMP JUMPDEST SWAP2 POP POP PUSH2 0xCE0 JUMP JUMPDEST POP DUP1 SWAP3 POP POP POP SWAP1 JUMP JUMPDEST PUSH2 0xE57 PUSH2 0x1DE5 JUMP JUMPDEST PUSH2 0xE5F PUSH2 0x1DE5 JUMP JUMPDEST PUSH1 0x0 JUMPDEST PUSH1 0x3 DUP1 SLOAD SWAP1 POP DUP2 LT ISZERO PUSH2 0xF68 JUMPI DUP4 PUSH1 0x3 DUP3 DUP2 SLOAD DUP2 LT PUSH2 0xEAA JUMPI PUSH32 0x4E487B7100000000000000000000000000000000000000000000000000000000 PUSH1 0x0 MSTORE PUSH1 0x32 PUSH1 0x4 MSTORE PUSH1 0x24 PUSH1 0x0 REVERT JUMPDEST SWAP1 PUSH1 0x0 MSTORE PUSH1 0x20 PUSH1 0x0 KECCAK256 SWAP1 PUSH1 0x4 MUL ADD PUSH1 0x0 ADD SLOAD EQ ISZERO PUSH2 0xF55 JUMPI PUSH1 0x3 DUP2 DUP2 SLOAD DUP2 LT PUSH2 0xEFC JUMPI PUSH32 0x4E487B7100000000000000000000000000000000000000000000000000000000 PUSH1 0x0 MSTORE PUSH1 0x32 PUSH1 0x4 MSTORE PUSH1 0x24 PUSH1 0x0 REVERT JUMPDEST SWAP1 PUSH1 0x0 MSTORE PUSH1 0x20 PUSH1 0x0 KECCAK256 SWAP1 PUSH1 0x4 MUL ADD PUSH1 0x40 MLOAD DUP1 PUSH1 0x80 ADD PUSH1 0x40 MSTORE SWAP1 DUP2 PUSH1 0x0 DUP3 ADD SLOAD DUP2 MSTORE PUSH1 0x20 ADD PUSH1 0x1 DUP3 ADD SLOAD DUP2 MSTORE PUSH1 0x20 ADD PUSH1 0x2 DUP3 ADD SLOAD DUP2 MSTORE PUSH1 0x20 ADD PUSH1 0x3 DUP3 ADD PUSH1 0x0 SWAP1 SLOAD SWAP1 PUSH2 0x100 EXP SWAP1 DIV PUSH1 0xFF AND ISZERO ISZERO ISZERO ISZERO DUP2 MSTORE POP POP SWAP2 POP PUSH2 0xF68 JUMP JUMPDEST DUP1 DUP1 PUSH2 0xF60 SWAP1 PUSH2 0x2498 JUMP JUMPDEST SWAP2 POP POP PUSH2 0xE62 JUMP JUMPDEST POP DUP1 SWAP2 POP POP SWAP2 SWAP1 POP JUMP JUMPDEST PUSH1 0x0 PUSH1 0x8 PUSH1 0x0 DUP4 DUP2 MSTORE PUSH1 0x20 ADD SWAP1 DUP2 MSTORE PUSH1 0x20 ADD PUSH1 0x0 KECCAK256 PUSH1 0x0 SWAP1 SLOAD SWAP1 PUSH2 0x100 EXP SWAP1 DIV PUSH20 0xFFFFFFFFFFFFFFFFFFFFFFFFFFFFFFFFFFFFFFFF AND SWAP1 POP SWAP2 SWAP1 POP JUMP JUMPDEST PUSH1 0x60 PUSH1 0x0 DUP1 PUSH1 0x9 PUSH1 0x0 CALLER PUSH20 0xFFFFFFFFFFFFFFFFFFFFFFFFFFFFFFFFFFFFFFFF AND PUSH20 0xFFFFFFFFFFFFFFFFFFFFFFFFFFFFFFFFFFFFFFFF AND DUP2 MSTORE PUSH1 0x20 ADD SWAP1 DUP2 MSTORE PUSH1 0x20 ADD PUSH1 0x0 KECCAK256 SLOAD PUSH8 0xFFFFFFFFFFFFFFFF DUP2 GT ISZERO PUSH2 0x1033 JUMPI PUSH32 0x4E487B7100000000000000000000000000000000000000000000000000000000 PUSH1 0x0 MSTORE PUSH1 0x41 PUSH1 0x4 MSTORE PUSH1 0x24 PUSH1 0x0 REVERT JUMPDEST PUSH1 0x40 MLOAD SWAP1 DUP1 DUP3 MSTORE DUP1 PUSH1 0x20 MUL PUSH1 0x20 ADD DUP3 ADD PUSH1 0x40 MSTORE DUP1 ISZERO PUSH2 0x106C JUMPI DUP2 PUSH1 0x20 ADD JUMPDEST PUSH2 0x1059 PUSH2 0x1DE5 JUMP JUMPDEST DUP2 MSTORE PUSH1 0x20 ADD SWAP1 PUSH1 0x1 SWAP1 SUB SWAP1 DUP2 PUSH2 0x1051 JUMPI SWAP1 POP JUMPDEST POP SWAP1 POP PUSH1 0x0 JUMPDEST PUSH1 0x3 DUP1 SLOAD SWAP1 POP DUP2 LT ISZERO PUSH2 0x11D8 JUMPI CALLER PUSH20 0xFFFFFFFFFFFFFFFFFFFFFFFFFFFFFFFFFFFFFFFF AND PUSH1 0xA PUSH1 0x0 DUP4 DUP2 MSTORE PUSH1 0x20 ADD SWAP1 DUP2 MSTORE PUSH1 0x20 ADD PUSH1 0x0 KECCAK256 PUSH1 0x0 SWAP1 SLOAD SWAP1 PUSH2 0x100 EXP SWAP1 DIV PUSH20 0xFFFFFFFFFFFFFFFFFFFFFFFFFFFFFFFFFFFFFFFF AND PUSH20 0xFFFFFFFFFFFFFFFFFFFFFFFFFFFFFFFFFFFFFFFF AND EQ ISZERO PUSH2 0x11C5 JUMPI PUSH1 0x3 DUP2 DUP2 SLOAD DUP2 LT PUSH2 0x1120 JUMPI PUSH32 0x4E487B7100000000000000000000000000000000000000000000000000000000 PUSH1 0x0 MSTORE PUSH1 0x32 PUSH1 0x4 MSTORE PUSH1 0x24 PUSH1 0x0 REVERT JUMPDEST SWAP1 PUSH1 0x0 MSTORE PUSH1 0x20 PUSH1 0x0 KECCAK256 SWAP1 PUSH1 0x4 MUL ADD PUSH1 0x40 MLOAD DUP1 PUSH1 0x80 ADD PUSH1 0x40 MSTORE SWAP1 DUP2 PUSH1 0x0 DUP3 ADD SLOAD DUP2 MSTORE PUSH1 0x20 ADD PUSH1 0x1 DUP3 ADD SLOAD DUP2 MSTORE PUSH1 0x20 ADD PUSH1 0x2 DUP3 ADD SLOAD DUP2 MSTORE PUSH1 0x20 ADD PUSH1 0x3 DUP3 ADD PUSH1 0x0 SWAP1 SLOAD SWAP1 PUSH2 0x100 EXP SWAP1 DIV PUSH1 0xFF AND ISZERO ISZERO ISZERO ISZERO DUP2 MSTORE POP POP DUP3 DUP5 DUP2 MLOAD DUP2 LT PUSH2 0x11AB JUMPI PUSH32 0x4E487B7100000000000000000000000000000000000000000000000000000000 PUSH1 0x0 MSTORE PUSH1 0x32 PUSH1 0x4 MSTORE PUSH1 0x24 PUSH1 0x0 REVERT JUMPDEST PUSH1 0x20 MUL PUSH1 0x20 ADD ADD DUP2 SWAP1 MSTORE POP DUP3 DUP1 PUSH2 0x11C1 SWAP1 PUSH2 0x2498 JUMP JUMPDEST SWAP4 POP POP JUMPDEST DUP1 DUP1 PUSH2 0x11D0 SWAP1 PUSH2 0x2498 JUMP JUMPDEST SWAP2 POP POP PUSH2 0x1072 JUMP JUMPDEST POP DUP1 SWAP3 POP POP POP SWAP1 JUMP JUMPDEST PUSH1 0x0 PUSH1 0x7 PUSH1 0x0 DUP4 PUSH20 0xFFFFFFFFFFFFFFFFFFFFFFFFFFFFFFFFFFFFFFFF AND PUSH20 0xFFFFFFFFFFFFFFFFFFFFFFFFFFFFFFFFFFFFFFFF AND DUP2 MSTORE PUSH1 0x20 ADD SWAP1 DUP2 MSTORE PUSH1 0x20 ADD PUSH1 0x0 KECCAK256 SLOAD SWAP1 POP SWAP2 SWAP1 POP JUMP JUMPDEST PUSH1 0x3 DUP2 DUP2 SLOAD DUP2 LT PUSH2 0x1264 JUMPI PUSH32 0x4E487B7100000000000000000000000000000000000000000000000000000000 PUSH1 0x0 MSTORE PUSH1 0x32 PUSH1 0x4 MSTORE PUSH1 0x24 PUSH1 0x0 REVERT JUMPDEST SWAP1 PUSH1 0x0 MSTORE PUSH1 0x20 PUSH1 0x0 KECCAK256 SWAP1 PUSH1 0x4 MUL ADD PUSH1 0x2 ADD SLOAD CALLVALUE EQ PUSH2 0x12B7 JUMPI PUSH1 0x40 MLOAD PUSH32 0x8C379A000000000000000000000000000000000000000000000000000000000 DUP2 MSTORE PUSH1 0x4 ADD PUSH2 0x12AE SWAP1 PUSH2 0x2231 JUMP JUMPDEST PUSH1 0x40 MLOAD DUP1 SWAP2 SUB SWAP1 REVERT JUMPDEST PUSH1 0x0 PUSH20 0xFFFFFFFFFFFFFFFFFFFFFFFFFFFFFFFFFFFFFFFF AND PUSH1 0x8 PUSH1 0x0 DUP4 DUP2 MSTORE PUSH1 0x20 ADD SWAP1 DUP2 MSTORE PUSH1 0x20 ADD PUSH1 0x0 KECCAK256 PUSH1 0x0 SWAP1 SLOAD SWAP1 PUSH2 0x100 EXP SWAP1 DIV PUSH20 0xFFFFFFFFFFFFFFFFFFFFFFFFFFFFFFFFFFFFFFFF AND PUSH20 0xFFFFFFFFFFFFFFFFFFFFFFFFFFFFFFFFFFFFFFFF AND EQ ISZERO PUSH2 0x135A JUMPI PUSH1 0x40 MLOAD PUSH32 0x8C379A000000000000000000000000000000000000000000000000000000000 DUP2 MSTORE PUSH1 0x4 ADD PUSH2 0x1351 SWAP1 PUSH2 0x2251 JUMP JUMPDEST PUSH1 0x40 MLOAD DUP1 SWAP2 SUB SWAP1 REVERT JUMPDEST CALLER PUSH20 0xFFFFFFFFFFFFFFFFFFFFFFFFFFFFFFFFFFFFFFFF AND PUSH1 0x8 PUSH1 0x0 DUP4 DUP2 MSTORE PUSH1 0x20 ADD SWAP1 DUP2 MSTORE PUSH1 0x20 ADD PUSH1 0x0 KECCAK256 PUSH1 0x0 SWAP1 SLOAD SWAP1 PUSH2 0x100 EXP SWAP1 DIV PUSH20 0xFFFFFFFFFFFFFFFFFFFFFFFFFFFFFFFFFFFFFFFF AND PUSH20 0xFFFFFFFFFFFFFFFFFFFFFFFFFFFFFFFFFFFFFFFF AND EQ ISZERO PUSH2 0x13FC JUMPI PUSH1 0x40 MLOAD PUSH32 0x8C379A000000000000000000000000000000000000000000000000000000000 DUP2 MSTORE PUSH1 0x4 ADD PUSH2 0x13F3 SWAP1 PUSH2 0x21D1 JUMP JUMPDEST PUSH1 0x40 MLOAD DUP1 SWAP2 SUB SWAP1 REVERT JUMPDEST PUSH1 0x0 PUSH1 0x8 PUSH1 0x0 DUP4 DUP2 MSTORE PUSH1 0x20 ADD SWAP1 DUP2 MSTORE PUSH1 0x20 ADD PUSH1 0x0 KECCAK256 PUSH1 0x0 SWAP1 SLOAD SWAP1 PUSH2 0x100 EXP SWAP1 DIV PUSH20 0xFFFFFFFFFFFFFFFFFFFFFFFFFFFFFFFFFFFFFFFF AND SWAP1 POP PUSH1 0x0 PUSH1 0x3 DUP4 DUP2 SLOAD DUP2 LT PUSH2 0x1470 JUMPI PUSH32 0x4E487B7100000000000000000000000000000000000000000000000000000000 PUSH1 0x0 MSTORE PUSH1 0x32 PUSH1 0x4 MSTORE PUSH1 0x24 PUSH1 0x0 REVERT JUMPDEST SWAP1 PUSH1 0x0 MSTORE PUSH1 0x20 PUSH1 0x0 KECCAK256 SWAP1 PUSH1 0x4 MUL ADD SWAP1 POP PUSH1 0x0 DUP2 PUSH1 0x3 ADD PUSH1 0x0 PUSH2 0x100 EXP DUP2 SLOAD DUP2 PUSH1 0xFF MUL NOT AND SWAP1 DUP4 ISZERO ISZERO MUL OR SWAP1 SSTORE POP CALLER PUSH1 0x8 PUSH1 0x0 DUP6 DUP2 MSTORE PUSH1 0x20 ADD SWAP1 DUP2 MSTORE PUSH1 0x20 ADD PUSH1 0x0 KECCAK256 PUSH1 0x0 PUSH2 0x100 EXP DUP2 SLOAD DUP2 PUSH20 0xFFFFFFFFFFFFFFFFFFFFFFFFFFFFFFFFFFFFFFFF MUL NOT AND SWAP1 DUP4 PUSH20 0xFFFFFFFFFFFFFFFFFFFFFFFFFFFFFFFFFFFFFFFF AND MUL OR SWAP1 SSTORE POP PUSH1 0x7 PUSH1 0x0 DUP4 PUSH20 0xFFFFFFFFFFFFFFFFFFFFFFFFFFFFFFFFFFFFFFFF AND PUSH20 0xFFFFFFFFFFFFFFFFFFFFFFFFFFFFFFFFFFFFFFFF AND DUP2 MSTORE PUSH1 0x20 ADD SWAP1 DUP2 MSTORE PUSH1 0x20 ADD PUSH1 0x0 KECCAK256 PUSH1 0x0 DUP2 SLOAD DUP1 SWAP3 SWAP2 SWAP1 PUSH1 0x1 SWAP1 SUB SWAP2 SWAP1 POP SSTORE POP PUSH1 0x7 PUSH1 0x0 CALLER PUSH20 0xFFFFFFFFFFFFFFFFFFFFFFFFFFFFFFFFFFFFFFFF AND PUSH20 0xFFFFFFFFFFFFFFFFFFFFFFFFFFFFFFFFFFFFFFFF AND DUP2 MSTORE PUSH1 0x20 ADD SWAP1 DUP2 MSTORE PUSH1 0x20 ADD PUSH1 0x0 KECCAK256 PUSH1 0x0 DUP2 SLOAD DUP1 SWAP3 SWAP2 SWAP1 PUSH1 0x1 ADD SWAP2 SWAP1 POP SSTORE POP PUSH1 0x4 PUSH1 0x0 DUP2 SLOAD DUP1 SWAP3 SWAP2 SWAP1 PUSH1 0x1 SWAP1 SUB SWAP2 SWAP1 POP SSTORE POP DUP2 PUSH20 0xFFFFFFFFFFFFFFFFFFFFFFFFFFFFFFFFFFFFFFFF AND PUSH1 0xA PUSH1 0x0 DUP6 DUP2 MSTORE PUSH1 0x20 ADD SWAP1 DUP2 MSTORE PUSH1 0x20 ADD PUSH1 0x0 KECCAK256 PUSH1 0x0 SWAP1 SLOAD SWAP1 PUSH2 0x100 EXP SWAP1 DIV PUSH20 0xFFFFFFFFFFFFFFFFFFFFFFFFFFFFFFFFFFFFFFFF AND PUSH20 0xFFFFFFFFFFFFFFFFFFFFFFFFFFFFFFFFFFFFFFFF AND EQ ISZERO PUSH2 0x1654 JUMPI DUP2 PUSH20 0xFFFFFFFFFFFFFFFFFFFFFFFFFFFFFFFFFFFFFFFF AND PUSH2 0x8FC CALLVALUE SWAP1 DUP2 ISZERO MUL SWAP1 PUSH1 0x40 MLOAD PUSH1 0x0 PUSH1 0x40 MLOAD DUP1 DUP4 SUB DUP2 DUP6 DUP9 DUP9 CALL SWAP4 POP POP POP POP ISZERO DUP1 ISZERO PUSH2 0x164E JUMPI RETURNDATASIZE PUSH1 0x0 DUP1 RETURNDATACOPY RETURNDATASIZE PUSH1 0x0 REVERT JUMPDEST POP PUSH2 0x172F JUMP JUMPDEST PUSH1 0x0 DUP1 PUSH2 0x1663 CALLVALUE PUSH1 0x6 SLOAD PUSH2 0x1DA7 JUMP JUMPDEST DUP1 SWAP3 POP DUP2 SWAP4 POP POP POP PUSH1 0xA PUSH1 0x0 DUP7 DUP2 MSTORE PUSH1 0x20 ADD SWAP1 DUP2 MSTORE PUSH1 0x20 ADD PUSH1 0x0 KECCAK256 PUSH1 0x0 SWAP1 SLOAD SWAP1 PUSH2 0x100 EXP SWAP1 DIV PUSH20 0xFFFFFFFFFFFFFFFFFFFFFFFFFFFFFFFFFFFFFFFF AND PUSH20 0xFFFFFFFFFFFFFFFFFFFFFFFFFFFFFFFFFFFFFFFF AND PUSH2 0x8FC DUP4 SWAP1 DUP2 ISZERO MUL SWAP1 PUSH1 0x40 MLOAD PUSH1 0x0 PUSH1 0x40 MLOAD DUP1 DUP4 SUB DUP2 DUP6 DUP9 DUP9 CALL SWAP4 POP POP POP POP ISZERO DUP1 ISZERO PUSH2 0x16E4 JUMPI RETURNDATASIZE PUSH1 0x0 DUP1 RETURNDATACOPY RETURNDATASIZE PUSH1 0x0 REVERT JUMPDEST POP DUP4 PUSH20 0xFFFFFFFFFFFFFFFFFFFFFFFFFFFFFFFFFFFFFFFF AND PUSH2 0x8FC DUP3 SWAP1 DUP2 ISZERO MUL SWAP1 PUSH1 0x40 MLOAD PUSH1 0x0 PUSH1 0x40 MLOAD DUP1 DUP4 SUB DUP2 DUP6 DUP9 DUP9 CALL SWAP4 POP POP POP POP ISZERO DUP1 ISZERO PUSH2 0x172B JUMPI RETURNDATASIZE PUSH1 0x0 DUP1 RETURNDATACOPY RETURNDATASIZE PUSH1 0x0 REVERT JUMPDEST POP POP POP JUMPDEST CALLER PUSH20 0xFFFFFFFFFFFFFFFFFFFFFFFFFFFFFFFFFFFFFFFF AND DUP3 PUSH20 0xFFFFFFFFFFFFFFFFFFFFFFFFFFFFFFFFFFFFFFFF AND PUSH32 0xDDF252AD1BE2C89B69C2B068FC378DAA952BA7F163C4A11628F55A4DF523B3EF DUP6 PUSH1 0x40 MLOAD PUSH2 0x178C SWAP2 SWAP1 PUSH2 0x232C JUMP JUMPDEST PUSH1 0x40 MLOAD DUP1 SWAP2 SUB SWAP1 LOG3 POP POP POP JUMP JUMPDEST PUSH1 0x0 PUSH1 0x5 SLOAD SWAP1 POP SWAP1 JUMP JUMPDEST DUP1 CALLER PUSH20 0xFFFFFFFFFFFFFFFFFFFFFFFFFFFFFFFFFFFFFFFF AND PUSH1 0x8 PUSH1 0x0 DUP4 DUP2 MSTORE PUSH1 0x20 ADD SWAP1 DUP2 MSTORE PUSH1 0x20 ADD PUSH1 0x0 KECCAK256 PUSH1 0x0 SWAP1 SLOAD SWAP1 PUSH2 0x100 EXP SWAP1 DIV PUSH20 0xFFFFFFFFFFFFFFFFFFFFFFFFFFFFFFFFFFFFFFFF AND PUSH20 0xFFFFFFFFFFFFFFFFFFFFFFFFFFFFFFFFFFFFFFFF AND EQ PUSH2 0x1845 JUMPI PUSH1 0x40 MLOAD PUSH32 0x8C379A000000000000000000000000000000000000000000000000000000000 DUP2 MSTORE PUSH1 0x4 ADD PUSH2 0x183C SWAP1 PUSH2 0x2271 JUMP JUMPDEST PUSH1 0x40 MLOAD DUP1 SWAP2 SUB SWAP1 REVERT JUMPDEST PUSH1 0x0 PUSH20 0xFFFFFFFFFFFFFFFFFFFFFFFFFFFFFFFFFFFFFFFF AND PUSH1 0x8 PUSH1 0x0 DUP5 DUP2 MSTORE PUSH1 0x20 ADD SWAP1 DUP2 MSTORE PUSH1 0x20 ADD PUSH1 0x0 KECCAK256 PUSH1 0x0 SWAP1 SLOAD SWAP1 PUSH2 0x100 EXP SWAP1 DIV PUSH20 0xFFFFFFFFFFFFFFFFFFFFFFFFFFFFFFFFFFFFFFFF AND PUSH20 0xFFFFFFFFFFFFFFFFFFFFFFFFFFFFFFFFFFFFFFFF AND EQ ISZERO PUSH2 0x18E8 JUMPI PUSH1 0x40 MLOAD PUSH32 0x8C379A000000000000000000000000000000000000000000000000000000000 DUP2 MSTORE PUSH1 0x4 ADD PUSH2 0x18DF SWAP1 PUSH2 0x2251 JUMP JUMPDEST PUSH1 0x40 MLOAD DUP1 SWAP2 SUB SWAP1 REVERT JUMPDEST PUSH1 0x1 ISZERO ISZERO PUSH1 0x3 DUP4 DUP2 SLOAD DUP2 LT PUSH2 0x1926 JUMPI PUSH32 0x4E487B7100000000000000000000000000000000000000000000000000000000 PUSH1 0x0 MSTORE PUSH1 0x32 PUSH1 0x4 MSTORE PUSH1 0x24 PUSH1 0x0 REVERT JUMPDEST SWAP1 PUSH1 0x0 MSTORE PUSH1 0x20 PUSH1 0x0 KECCAK256 SWAP1 PUSH1 0x4 MUL ADD PUSH1 0x3 ADD PUSH1 0x0 SWAP1 SLOAD SWAP1 PUSH2 0x100 EXP SWAP1 DIV PUSH1 0xFF AND ISZERO ISZERO EQ PUSH2 0x1987 JUMPI PUSH1 0x40 MLOAD PUSH32 0x8C379A000000000000000000000000000000000000000000000000000000000 DUP2 MSTORE PUSH1 0x4 ADD PUSH2 0x197E SWAP1 PUSH2 0x21F1 JUMP JUMPDEST PUSH1 0x40 MLOAD DUP1 SWAP2 SUB SWAP1 REVERT JUMPDEST PUSH1 0x0 PUSH1 0x3 DUP4 DUP2 SLOAD DUP2 LT PUSH2 0x19C3 JUMPI PUSH32 0x4E487B7100000000000000000000000000000000000000000000000000000000 PUSH1 0x0 MSTORE PUSH1 0x32 PUSH1 0x4 MSTORE PUSH1 0x24 PUSH1 0x0 REVERT JUMPDEST SWAP1 PUSH1 0x0 MSTORE PUSH1 0x20 PUSH1 0x0 KECCAK256 SWAP1 PUSH1 0x4 MUL ADD PUSH1 0x3 ADD PUSH1 0x0 PUSH2 0x100 EXP DUP2 SLOAD DUP2 PUSH1 0xFF MUL NOT AND SWAP1 DUP4 ISZERO ISZERO MUL OR SWAP1 SSTORE POP PUSH1 0x4 PUSH1 0x0 DUP2 SLOAD DUP1 SWAP3 SWAP2 SWAP1 PUSH1 0x1 SWAP1 SUB SWAP2 SWAP1 POP SSTORE POP POP POP JUMP JUMPDEST PUSH1 0x5 SLOAD CALLVALUE EQ PUSH2 0x1A46 JUMPI PUSH1 0x40 MLOAD PUSH32 0x8C379A000000000000000000000000000000000000000000000000000000000 DUP2 MSTORE PUSH1 0x4 ADD PUSH2 0x1A3D SWAP1 PUSH2 0x22B1 JUMP JUMPDEST PUSH1 0x40 MLOAD DUP1 SWAP2 SUB SWAP1 REVERT JUMPDEST DUP1 CALLER PUSH20 0xFFFFFFFFFFFFFFFFFFFFFFFFFFFFFFFFFFFFFFFF AND PUSH1 0x8 PUSH1 0x0 DUP4 DUP2 MSTORE PUSH1 0x20 ADD SWAP1 DUP2 MSTORE PUSH1 0x20 ADD PUSH1 0x0 KECCAK256 PUSH1 0x0 SWAP1 SLOAD SWAP1 PUSH2 0x100 EXP SWAP1 DIV PUSH20 0xFFFFFFFFFFFFFFFFFFFFFFFFFFFFFFFFFFFFFFFF AND PUSH20 0xFFFFFFFFFFFFFFFFFFFFFFFFFFFFFFFFFFFFFFFF AND EQ PUSH2 0x1AE8 JUMPI PUSH1 0x40 MLOAD PUSH32 0x8C379A000000000000000000000000000000000000000000000000000000000 DUP2 MSTORE PUSH1 0x4 ADD PUSH2 0x1ADF SWAP1 PUSH2 0x2271 JUMP JUMPDEST PUSH1 0x40 MLOAD DUP1 SWAP2 SUB SWAP1 REVERT JUMPDEST PUSH1 0x0 PUSH20 0xFFFFFFFFFFFFFFFFFFFFFFFFFFFFFFFFFFFFFFFF AND PUSH1 0x8 PUSH1 0x0 DUP5 DUP2 MSTORE PUSH1 0x20 ADD SWAP1 DUP2 MSTORE PUSH1 0x20 ADD PUSH1 0x0 KECCAK256 PUSH1 0x0 SWAP1 SLOAD SWAP1 PUSH2 0x100 EXP SWAP1 DIV PUSH20 0xFFFFFFFFFFFFFFFFFFFFFFFFFFFFFFFFFFFFFFFF AND PUSH20 0xFFFFFFFFFFFFFFFFFFFFFFFFFFFFFFFFFFFFFFFF AND EQ ISZERO PUSH2 0x1B8B JUMPI PUSH1 0x40 MLOAD PUSH32 0x8C379A000000000000000000000000000000000000000000000000000000000 DUP2 MSTORE PUSH1 0x4 ADD PUSH2 0x1B82 SWAP1 PUSH2 0x2251 JUMP JUMPDEST PUSH1 0x40 MLOAD DUP1 SWAP2 SUB SWAP1 REVERT JUMPDEST PUSH1 0x0 ISZERO ISZERO PUSH1 0x3 DUP4 DUP2 SLOAD DUP2 LT PUSH2 0x1BC9 JUMPI PUSH32 0x4E487B7100000000000000000000000000000000000000000000000000000000 PUSH1 0x0 MSTORE PUSH1 0x32 PUSH1 0x4 MSTORE PUSH1 0x24 PUSH1 0x0 REVERT JUMPDEST SWAP1 PUSH1 0x0 MSTORE PUSH1 0x20 PUSH1 0x0 KECCAK256 SWAP1 PUSH1 0x4 MUL ADD PUSH1 0x3 ADD PUSH1 0x0 SWAP1 SLOAD SWAP1 PUSH2 0x100 EXP SWAP1 DIV PUSH1 0xFF AND ISZERO ISZERO EQ PUSH2 0x1C2A JUMPI PUSH1 0x40 MLOAD PUSH32 0x8C379A000000000000000000000000000000000000000000000000000000000 DUP2 MSTORE PUSH1 0x4 ADD PUSH2 0x1C21 SWAP1 PUSH2 0x2291 JUMP JUMPDEST PUSH1 0x40 MLOAD DUP1 SWAP2 SUB SWAP1 REVERT JUMPDEST PUSH1 0x1 PUSH1 0x3 DUP4 DUP2 SLOAD DUP2 LT PUSH2 0x1C66 JUMPI PUSH32 0x4E487B7100000000000000000000000000000000000000000000000000000000 PUSH1 0x0 MSTORE PUSH1 0x32 PUSH1 0x4 MSTORE PUSH1 0x24 PUSH1 0x0 REVERT JUMPDEST SWAP1 PUSH1 0x0 MSTORE PUSH1 0x20 PUSH1 0x0 KECCAK256 SWAP1 PUSH1 0x4 MUL ADD PUSH1 0x3 ADD PUSH1 0x0 PUSH2 0x100 EXP DUP2 SLOAD DUP2 PUSH1 0xFF MUL NOT AND SWAP1 DUP4 ISZERO ISZERO MUL OR SWAP1 SSTORE POP PUSH1 0x4 PUSH1 0x0 DUP2 SLOAD DUP1 SWAP3 SWAP2 SWAP1 PUSH1 0x1 ADD SWAP2 SWAP1 POP SSTORE POP PUSH1 0x2 PUSH1 0x0 SWAP1 SLOAD SWAP1 PUSH2 0x100 EXP SWAP1 DIV PUSH20 0xFFFFFFFFFFFFFFFFFFFFFFFFFFFFFFFFFFFFFFFF AND PUSH20 0xFFFFFFFFFFFFFFFFFFFFFFFFFFFFFFFFFFFFFFFF AND PUSH2 0x8FC CALLVALUE SWAP1 DUP2 ISZERO MUL SWAP1 PUSH1 0x40 MLOAD PUSH1 0x0 PUSH1 0x40 MLOAD DUP1 DUP4 SUB DUP2 DUP6 DUP9 DUP9 CALL SWAP4 POP POP POP POP ISZERO DUP1 ISZERO PUSH2 0x1D08 JUMPI RETURNDATASIZE PUSH1 0x0 DUP1 RETURNDATACOPY RETURNDATASIZE PUSH1 0x0 REVERT JUMPDEST POP POP POP JUMP JUMPDEST PUSH1 0x2 PUSH1 0x0 SWAP1 SLOAD SWAP1 PUSH2 0x100 EXP SWAP1 DIV PUSH20 0xFFFFFFFFFFFFFFFFFFFFFFFFFFFFFFFFFFFFFFFF AND PUSH20 0xFFFFFFFFFFFFFFFFFFFFFFFFFFFFFFFFFFFFFFFF AND CALLER PUSH20 0xFFFFFFFFFFFFFFFFFFFFFFFFFFFFFFFFFFFFFFFF AND EQ PUSH2 0x1D9D JUMPI PUSH1 0x40 MLOAD PUSH32 0x8C379A000000000000000000000000000000000000000000000000000000000 DUP2 MSTORE PUSH1 0x4 ADD PUSH2 0x1D94 SWAP1 PUSH2 0x22D1 JUMP JUMPDEST PUSH1 0x40 MLOAD DUP1 SWAP2 SUB SWAP1 REVERT JUMPDEST DUP1 PUSH1 0x5 DUP2 SWAP1 SSTORE POP POP JUMP JUMPDEST PUSH1 0x0 DUP1 PUSH1 0x0 PUSH1 0x64 DUP6 DUP6 PUSH2 0x1DBA SWAP2 SWAP1 PUSH2 0x23C2 JUMP JUMPDEST PUSH2 0x1DC4 SWAP2 SWAP1 PUSH2 0x2391 JUMP JUMPDEST SWAP1 POP PUSH1 0x0 DUP2 DUP7 PUSH2 0x1DD4 SWAP2 SWAP1 PUSH2 0x241C JUMP JUMPDEST SWAP1 POP DUP2 DUP2 SWAP4 POP SWAP4 POP POP POP SWAP3 POP SWAP3 SWAP1 POP JUMP JUMPDEST PUSH1 0x40 MLOAD DUP1 PUSH1 0x80 ADD PUSH1 0x40 MSTORE DUP1 PUSH1 0x0 DUP2 MSTORE PUSH1 0x20 ADD PUSH1 0x0 DUP2 MSTORE PUSH1 0x20 ADD PUSH1 0x0 DUP2 MSTORE PUSH1 0x20 ADD PUSH1 0x0 ISZERO ISZERO DUP2 MSTORE POP SWAP1 JUMP JUMPDEST PUSH1 0x0 DUP2 CALLDATALOAD SWAP1 POP PUSH2 0x1E1E DUP2 PUSH2 0x2771 JUMP JUMPDEST SWAP3 SWAP2 POP POP JUMP JUMPDEST PUSH1 0x0 DUP2 CALLDATALOAD SWAP1 POP PUSH2 0x1E33 DUP2 PUSH2 0x2788 JUMP JUMPDEST SWAP3 SWAP2 POP POP JUMP JUMPDEST PUSH1 0x0 PUSH1 0x20 DUP3 DUP5 SUB SLT ISZERO PUSH2 0x1E4B JUMPI PUSH1 0x0 DUP1 REVERT JUMPDEST PUSH1 0x0 PUSH2 0x1E59 DUP5 DUP3 DUP6 ADD PUSH2 0x1E0F JUMP JUMPDEST SWAP2 POP POP SWAP3 SWAP2 POP POP JUMP JUMPDEST PUSH1 0x0 PUSH1 0x20 DUP3 DUP5 SUB SLT ISZERO PUSH2 0x1E74 JUMPI PUSH1 0x0 DUP1 REVERT JUMPDEST PUSH1 0x0 PUSH2 0x1E82 DUP5 DUP3 DUP6 ADD PUSH2 0x1E24 JUMP JUMPDEST SWAP2 POP POP SWAP3 SWAP2 POP POP JUMP JUMPDEST PUSH1 0x0 DUP1 PUSH1 0x0 PUSH1 0x60 DUP5 DUP7 SUB SLT ISZERO PUSH2 0x1EA0 JUMPI PUSH1 0x0 DUP1 REVERT JUMPDEST PUSH1 0x0 PUSH2 0x1EAE DUP7 DUP3 DUP8 ADD PUSH2 0x1E24 JUMP JUMPDEST SWAP4 POP POP PUSH1 0x20 PUSH2 0x1EBF DUP7 DUP3 DUP8 ADD PUSH2 0x1E24 JUMP JUMPDEST SWAP3 POP POP PUSH1 0x40 PUSH2 0x1ED0 DUP7 DUP3 DUP8 ADD PUSH2 0x1E24 JUMP JUMPDEST SWAP2 POP POP SWAP3 POP SWAP3 POP SWAP3 JUMP JUMPDEST PUSH1 0x0 PUSH2 0x1EE6 DUP4 DUP4 PUSH2 0x20CC JUMP JUMPDEST PUSH1 0x80 DUP4 ADD SWAP1 POP SWAP3 SWAP2 POP POP JUMP JUMPDEST PUSH2 0x1EFB DUP2 PUSH2 0x2450 JUMP JUMPDEST DUP3 MSTORE POP POP JUMP JUMPDEST PUSH1 0x0 PUSH2 0x1F0C DUP3 PUSH2 0x2357 JUMP JUMPDEST PUSH2 0x1F16 DUP2 DUP6 PUSH2 0x236F JUMP JUMPDEST SWAP4 POP PUSH2 0x1F21 DUP4 PUSH2 0x2347 JUMP JUMPDEST DUP1 PUSH1 0x0 JUMPDEST DUP4 DUP2 LT ISZERO PUSH2 0x1F52 JUMPI DUP2 MLOAD PUSH2 0x1F39 DUP9 DUP3 PUSH2 0x1EDA JUMP JUMPDEST SWAP8 POP PUSH2 0x1F44 DUP4 PUSH2 0x2362 JUMP JUMPDEST SWAP3 POP POP PUSH1 0x1 DUP2 ADD SWAP1 POP PUSH2 0x1F25 JUMP JUMPDEST POP DUP6 SWAP4 POP POP POP POP SWAP3 SWAP2 POP POP JUMP JUMPDEST PUSH2 0x1F68 DUP2 PUSH2 0x2462 JUMP JUMPDEST DUP3 MSTORE POP POP JUMP JUMPDEST PUSH1 0x0 PUSH2 0x1F7B PUSH1 0x29 DUP4 PUSH2 0x2380 JUMP JUMPDEST SWAP2 POP PUSH2 0x1F86 DUP3 PUSH2 0x253F JUMP JUMPDEST PUSH1 0x40 DUP3 ADD SWAP1 POP SWAP2 SWAP1 POP JUMP JUMPDEST PUSH1 0x0 PUSH2 0x1F9E PUSH1 0x13 DUP4 PUSH2 0x2380 JUMP JUMPDEST SWAP2 POP PUSH2 0x1FA9 DUP3 PUSH2 0x258E JUMP JUMPDEST PUSH1 0x20 DUP3 ADD SWAP1 POP SWAP2 SWAP1 POP JUMP JUMPDEST PUSH1 0x0 PUSH2 0x1FC1 PUSH1 0x13 DUP4 PUSH2 0x2380 JUMP JUMPDEST SWAP2 POP PUSH2 0x1FCC DUP3 PUSH2 0x25B7 JUMP JUMPDEST PUSH1 0x20 DUP3 ADD SWAP1 POP SWAP2 SWAP1 POP JUMP JUMPDEST PUSH1 0x0 PUSH2 0x1FE4 PUSH1 0x35 DUP4 PUSH2 0x2380 JUMP JUMPDEST SWAP2 POP PUSH2 0x1FEF DUP3 PUSH2 0x25E0 JUMP JUMPDEST PUSH1 0x40 DUP3 ADD SWAP1 POP SWAP2 SWAP1 POP JUMP JUMPDEST PUSH1 0x0 PUSH2 0x2007 PUSH1 0x13 DUP4 PUSH2 0x2380 JUMP JUMPDEST SWAP2 POP PUSH2 0x2012 DUP3 PUSH2 0x262F JUMP JUMPDEST PUSH1 0x20 DUP3 ADD SWAP1 POP SWAP2 SWAP1 POP JUMP JUMPDEST PUSH1 0x0 PUSH2 0x202A PUSH1 0x1D DUP4 PUSH2 0x2380 JUMP JUMPDEST SWAP2 POP PUSH2 0x2035 DUP3 PUSH2 0x2658 JUMP JUMPDEST PUSH1 0x20 DUP3 ADD SWAP1 POP SWAP2 SWAP1 POP JUMP JUMPDEST PUSH1 0x0 PUSH2 0x204D PUSH1 0x18 DUP4 PUSH2 0x2380 JUMP JUMPDEST SWAP2 POP PUSH2 0x2058 DUP3 PUSH2 0x2681 JUMP JUMPDEST PUSH1 0x20 DUP3 ADD SWAP1 POP SWAP2 SWAP1 POP JUMP JUMPDEST PUSH1 0x0 PUSH2 0x2070 PUSH1 0x21 DUP4 PUSH2 0x2380 JUMP JUMPDEST SWAP2 POP PUSH2 0x207B DUP3 PUSH2 0x26AA JUMP JUMPDEST PUSH1 0x40 DUP3 ADD SWAP1 POP SWAP2 SWAP1 POP JUMP JUMPDEST PUSH1 0x0 PUSH2 0x2093 PUSH1 0x21 DUP4 PUSH2 0x2380 JUMP JUMPDEST SWAP2 POP PUSH2 0x209E DUP3 PUSH2 0x26F9 JUMP JUMPDEST PUSH1 0x40 DUP3 ADD SWAP1 POP SWAP2 SWAP1 POP JUMP JUMPDEST PUSH1 0x0 PUSH2 0x20B6 PUSH1 0x1A DUP4 PUSH2 0x2380 JUMP JUMPDEST SWAP2 POP PUSH2 0x20C1 DUP3 PUSH2 0x2748 JUMP JUMPDEST PUSH1 0x20 DUP3 ADD SWAP1 POP SWAP2 SWAP1 POP JUMP JUMPDEST PUSH1 0x80 DUP3 ADD PUSH1 0x0 DUP3 ADD MLOAD PUSH2 0x20E2 PUSH1 0x0 DUP6 ADD DUP3 PUSH2 0x2176 JUMP JUMPDEST POP PUSH1 0x20 DUP3 ADD MLOAD PUSH2 0x20F5 PUSH1 0x20 DUP6 ADD DUP3 PUSH2 0x2176 JUMP JUMPDEST POP PUSH1 0x40 DUP3 ADD MLOAD PUSH2 0x2108 PUSH1 0x40 DUP6 ADD DUP3 PUSH2 0x2176 JUMP JUMPDEST POP PUSH1 0x60 DUP3 ADD MLOAD PUSH2 0x211B PUSH1 0x60 DUP6 ADD DUP3 PUSH2 0x1F5F JUMP JUMPDEST POP POP POP POP JUMP JUMPDEST PUSH1 0x80 DUP3 ADD PUSH1 0x0 DUP3 ADD MLOAD PUSH2 0x2137 PUSH1 0x0 DUP6 ADD DUP3 PUSH2 0x2176 JUMP JUMPDEST POP PUSH1 0x20 DUP3 ADD MLOAD PUSH2 0x214A PUSH1 0x20 DUP6 ADD DUP3 PUSH2 0x2176 JUMP JUMPDEST POP PUSH1 0x40 DUP3 ADD MLOAD PUSH2 0x215D PUSH1 0x40 DUP6 ADD DUP3 PUSH2 0x2176 JUMP JUMPDEST POP PUSH1 0x60 DUP3 ADD MLOAD PUSH2 0x2170 PUSH1 0x60 DUP6 ADD DUP3 PUSH2 0x1F5F JUMP JUMPDEST POP POP POP POP JUMP JUMPDEST PUSH2 0x217F DUP2 PUSH2 0x248E JUMP JUMPDEST DUP3 MSTORE POP POP JUMP JUMPDEST PUSH2 0x218E DUP2 PUSH2 0x248E JUMP JUMPDEST DUP3 MSTORE POP POP JUMP JUMPDEST PUSH1 0x0 PUSH1 0x20 DUP3 ADD SWAP1 POP PUSH2 0x21A9 PUSH1 0x0 DUP4 ADD DUP5 PUSH2 0x1EF2 JUMP JUMPDEST SWAP3 SWAP2 POP POP JUMP JUMPDEST PUSH1 0x0 PUSH1 0x20 DUP3 ADD SWAP1 POP DUP2 DUP2 SUB PUSH1 0x0 DUP4 ADD MSTORE PUSH2 0x21C9 DUP2 DUP5 PUSH2 0x1F01 JUMP JUMPDEST SWAP1 POP SWAP3 SWAP2 POP POP JUMP JUMPDEST PUSH1 0x0 PUSH1 0x20 DUP3 ADD SWAP1 POP DUP2 DUP2 SUB PUSH1 0x0 DUP4 ADD MSTORE PUSH2 0x21EA DUP2 PUSH2 0x1F6E JUMP JUMPDEST SWAP1 POP SWAP2 SWAP1 POP JUMP JUMPDEST PUSH1 0x0 PUSH1 0x20 DUP3 ADD SWAP1 POP DUP2 DUP2 SUB PUSH1 0x0 DUP4 ADD MSTORE PUSH2 0x220A DUP2 PUSH2 0x1F91 JUMP JUMPDEST SWAP1 POP SWAP2 SWAP1 POP JUMP JUMPDEST PUSH1 0x0 PUSH1 0x20 DUP3 ADD SWAP1 POP DUP2 DUP2 SUB PUSH1 0x0 DUP4 ADD MSTORE PUSH2 0x222A DUP2 PUSH2 0x1FB4 JUMP JUMPDEST SWAP1 POP SWAP2 SWAP1 POP JUMP JUMPDEST PUSH1 0x0 PUSH1 0x20 DUP3 ADD SWAP1 POP DUP2 DUP2 SUB PUSH1 0x0 DUP4 ADD MSTORE PUSH2 0x224A DUP2 PUSH2 0x1FD7 JUMP JUMPDEST SWAP1 POP SWAP2 SWAP1 POP JUMP JUMPDEST PUSH1 0x0 PUSH1 0x20 DUP3 ADD SWAP1 POP DUP2 DUP2 SUB PUSH1 0x0 DUP4 ADD MSTORE PUSH2 0x226A DUP2 PUSH2 0x1FFA JUMP JUMPDEST SWAP1 POP SWAP2 SWAP1 POP JUMP JUMPDEST PUSH1 0x0 PUSH1 0x20 DUP3 ADD SWAP1 POP DUP2 DUP2 SUB PUSH1 0x0 DUP4 ADD MSTORE PUSH2 0x228A DUP2 PUSH2 0x201D JUMP JUMPDEST SWAP1 POP SWAP2 SWAP1 POP JUMP JUMPDEST PUSH1 0x0 PUSH1 0x20 DUP3 ADD SWAP1 POP DUP2 DUP2 SUB PUSH1 0x0 DUP4 ADD MSTORE PUSH2 0x22AA DUP2 PUSH2 0x2040 JUMP JUMPDEST SWAP1 POP SWAP2 SWAP1 POP JUMP JUMPDEST PUSH1 0x0 PUSH1 0x20 DUP3 ADD SWAP1 POP DUP2 DUP2 SUB PUSH1 0x0 DUP4 ADD MSTORE PUSH2 0x22CA DUP2 PUSH2 0x2063 JUMP JUMPDEST SWAP1 POP SWAP2 SWAP1 POP JUMP JUMPDEST PUSH1 0x0 PUSH1 0x20 DUP3 ADD SWAP1 POP DUP2 DUP2 SUB PUSH1 0x0 DUP4 ADD MSTORE PUSH2 0x22EA DUP2 PUSH2 0x2086 JUMP JUMPDEST SWAP1 POP SWAP2 SWAP1 POP JUMP JUMPDEST PUSH1 0x0 PUSH1 0x20 DUP3 ADD SWAP1 POP DUP2 DUP2 SUB PUSH1 0x0 DUP4 ADD MSTORE PUSH2 0x230A DUP2 PUSH2 0x20A9 JUMP JUMPDEST SWAP1 POP SWAP2 SWAP1 POP JUMP JUMPDEST PUSH1 0x0 PUSH1 0x80 DUP3 ADD SWAP1 POP PUSH2 0x2326 PUSH1 0x0 DUP4 ADD DUP5 PUSH2 0x2121 JUMP JUMPDEST SWAP3 SWAP2 POP POP JUMP JUMPDEST PUSH1 0x0 PUSH1 0x20 DUP3 ADD SWAP1 POP PUSH2 0x2341 PUSH1 0x0 DUP4 ADD DUP5 PUSH2 0x2185 JUMP JUMPDEST SWAP3 SWAP2 POP POP JUMP JUMPDEST PUSH1 0x0 DUP2 SWAP1 POP PUSH1 0x20 DUP3 ADD SWAP1 POP SWAP2 SWAP1 POP JUMP JUMPDEST PUSH1 0x0 DUP2 MLOAD SWAP1 POP SWAP2 SWAP1 POP JUMP JUMPDEST PUSH1 0x0 PUSH1 0x20 DUP3 ADD SWAP1 POP SWAP2 SWAP1 POP JUMP JUMPDEST PUSH1 0x0 DUP3 DUP3 MSTORE PUSH1 0x20 DUP3 ADD SWAP1 POP SWAP3 SWAP2 POP POP JUMP JUMPDEST PUSH1 0x0 DUP3 DUP3 MSTORE PUSH1 0x20 DUP3 ADD SWAP1 POP SWAP3 SWAP2 POP POP JUMP JUMPDEST PUSH1 0x0 PUSH2 0x239C DUP3 PUSH2 0x248E JUMP JUMPDEST SWAP2 POP PUSH2 0x23A7 DUP4 PUSH2 0x248E JUMP JUMPDEST SWAP3 POP DUP3 PUSH2 0x23B7 JUMPI PUSH2 0x23B6 PUSH2 0x2510 JUMP JUMPDEST JUMPDEST DUP3 DUP3 DIV SWAP1 POP SWAP3 SWAP2 POP POP JUMP JUMPDEST PUSH1 0x0 PUSH2 0x23CD DUP3 PUSH2 0x248E JUMP JUMPDEST SWAP2 POP PUSH2 0x23D8 DUP4 PUSH2 0x248E JUMP JUMPDEST SWAP3 POP DUP2 PUSH32 0xFFFFFFFFFFFFFFFFFFFFFFFFFFFFFFFFFFFFFFFFFFFFFFFFFFFFFFFFFFFFFFFF DIV DUP4 GT DUP3 ISZERO ISZERO AND ISZERO PUSH2 0x2411 JUMPI PUSH2 0x2410 PUSH2 0x24E1 JUMP JUMPDEST JUMPDEST DUP3 DUP3 MUL SWAP1 POP SWAP3 SWAP2 POP POP JUMP JUMPDEST PUSH1 0x0 PUSH2 0x2427 DUP3 PUSH2 0x248E JUMP JUMPDEST SWAP2 POP PUSH2 0x2432 DUP4 PUSH2 0x248E JUMP JUMPDEST SWAP3 POP DUP3 DUP3 LT ISZERO PUSH2 0x2445 JUMPI PUSH2 0x2444 PUSH2 0x24E1 JUMP JUMPDEST JUMPDEST DUP3 DUP3 SUB SWAP1 POP SWAP3 SWAP2 POP POP JUMP JUMPDEST PUSH1 0x0 PUSH2 0x245B DUP3 PUSH2 0x246E JUMP JUMPDEST SWAP1 POP SWAP2 SWAP1 POP JUMP JUMPDEST PUSH1 0x0 DUP2 ISZERO ISZERO SWAP1 POP SWAP2 SWAP1 POP JUMP JUMPDEST PUSH1 0x0 PUSH20 0xFFFFFFFFFFFFFFFFFFFFFFFFFFFFFFFFFFFFFFFF DUP3 AND SWAP1 POP SWAP2 SWAP1 POP JUMP JUMPDEST PUSH1 0x0 DUP2 SWAP1 POP SWAP2 SWAP1 POP JUMP JUMPDEST PUSH1 0x0 PUSH2 0x24A3 DUP3 PUSH2 0x248E JUMP JUMPDEST SWAP2 POP PUSH32 0xFFFFFFFFFFFFFFFFFFFFFFFFFFFFFFFFFFFFFFFFFFFFFFFFFFFFFFFFFFFFFFFF DUP3 EQ ISZERO PUSH2 0x24D6 JUMPI PUSH2 0x24D5 PUSH2 0x24E1 JUMP JUMPDEST JUMPDEST PUSH1 0x1 DUP3 ADD SWAP1 POP SWAP2 SWAP1 POP JUMP JUMPDEST PUSH32 0x4E487B7100000000000000000000000000000000000000000000000000000000 PUSH1 0x0 MSTORE PUSH1 0x11 PUSH1 0x4 MSTORE PUSH1 0x24 PUSH1 0x0 REVERT JUMPDEST PUSH32 0x4E487B7100000000000000000000000000000000000000000000000000000000 PUSH1 0x0 MSTORE PUSH1 0x12 PUSH1 0x4 MSTORE PUSH1 0x24 PUSH1 0x0 REVERT JUMPDEST PUSH32 0x796F752063616E27742062757920616E206974656D20746861742062656C6F6E PUSH1 0x0 DUP3 ADD MSTORE PUSH32 0x677320746F20796F750000000000000000000000000000000000000000000000 PUSH1 0x20 DUP3 ADD MSTORE POP JUMP JUMPDEST PUSH32 0x746F6B656E2069736E277420746F2073656C6C00000000000000000000000000 PUSH1 0x0 DUP3 ADD MSTORE POP JUMP JUMPDEST PUSH32 0x746F6B656E20616C726561647920657869737400000000000000000000000000 PUSH1 0x0 DUP3 ADD MSTORE POP JUMP JUMPDEST PUSH32 0x7472616E73616374696F6E27732076616C75652063616E6E6F74206265206469 PUSH1 0x0 DUP3 ADD MSTORE PUSH32 0x66666572656E74206F66206974656D2070726963650000000000000000000000 PUSH1 0x20 DUP3 ADD MSTORE POP JUMP JUMPDEST PUSH32 0x746F6B656E20646F65736E277420657869737400000000000000000000000000 PUSH1 0x0 DUP3 ADD MSTORE POP JUMP JUMPDEST PUSH32 0x4F6E6C79206974656D2773206F776E65722063616E20646F2074686174000000 PUSH1 0x0 DUP3 ADD MSTORE POP JUMP JUMPDEST PUSH32 0x746F6B656E20697320616C726561647920746F2073656C6C0000000000000000 PUSH1 0x0 DUP3 ADD MSTORE POP JUMP JUMPDEST PUSH32 0x5468616E6B7320746F2073656E6420636F727265637420666565732076616C75 PUSH1 0x0 DUP3 ADD MSTORE PUSH32 0x6500000000000000000000000000000000000000000000000000000000000000 PUSH1 0x20 DUP3 ADD MSTORE POP JUMP JUMPDEST PUSH32 0x4F6E6C7920636F6E74726163742773206F776E65722063616E20646F20746861 PUSH1 0x0 DUP3 ADD MSTORE PUSH32 0x7400000000000000000000000000000000000000000000000000000000000000 PUSH1 0x20 DUP3 ADD MSTORE POP JUMP JUMPDEST PUSH32 0x50726963652063616E6E6F7420626520657175616C20746F2030000000000000 PUSH1 0x0 DUP3 ADD MSTORE POP JUMP JUMPDEST PUSH2 0x277A DUP2 PUSH2 0x2450 JUMP JUMPDEST DUP2 EQ PUSH2 0x2785 JUMPI PUSH1 0x0 DUP1 REVERT JUMPDEST POP JUMP JUMPDEST PUSH2 0x2791 DUP2 PUSH2 0x248E JUMP JUMPDEST DUP2 EQ PUSH2 0x279C JUMPI PUSH1 0x0 DUP1 REVERT JUMPDEST POP JUMP INVALID LOG2 PUSH5 0x6970667358 0x22 SLT KECCAK256 SMOD 0x26 XOR PUSH18 0xBEB3CB604E18870C7C01A0B05DEC856FED35 SHL PUSH23 0x2FC0CC7657162BF064736F6C6343000801003300000000 "
				},
				"gasEstimates": {
					"creation": {
						"codeDepositCost": "2039400",
						"executionCost": "infinite",
						"totalCost": "infinite"
					},
					"external": {
						"addItemToSell(uint256)": "infinite",
						"balanceOf(address)": "1608",
						"fetchItemByDataId(uint256)": "infinite",
						"fetchItemsByCreator()": "infinite",
						"fetchItemsByOwner()": "infinite",
						"fetchItemsToSell()": "infinite",
						"fetchItemsToSellByCatId(uint256)": "infinite",
						"getCreateItemFees()": "1159",
						"getCreatorPercentage()": "1205",
						"mint(uint256,uint256,uint256)": "infinite",
						"ownerOf(uint256)": "1588",
						"removeItemToSell(uint256)": "46727",
						"sellItem(uint256)": "infinite",
						"updateCreateItemFees(uint256)": "21378",
						"updateCreatorPercentage(uint256)": "21313"
					},
					"internal": {
						"getFees(uint256,uint256)": "infinite"
					}
				},
				"methodIdentifiers": {
					"addItemToSell(uint256)": "c0f202ef",
					"balanceOf(address)": "70a08231",
					"fetchItemByDataId(uint256)": "55474257",
					"fetchItemsByCreator()": "67af7d09",
					"fetchItemsByOwner()": "4cad2ffc",
					"fetchItemsToSell()": "073e74df",
					"fetchItemsToSellByCatId(uint256)": "406693b2",
					"getCreateItemFees()": "a411d68d",
					"getCreatorPercentage()": "160035b1",
					"mint(uint256,uint256,uint256)": "02acc94b",
					"ownerOf(uint256)": "6352211e",
					"removeItemToSell(uint256)": "a4964c33",
					"sellItem(uint256)": "91b6be9a",
					"updateCreateItemFees(uint256)": "e6e95ea7",
					"updateCreatorPercentage(uint256)": "1b03427c"
				}
			},
			"storageLayout": {
				"storage": [
					{
						"astId": 12,
						"contract": "contracts/GeekNftMarketPlace.sol:GeekNftMarketPlace",
						"label": "name",
						"offset": 0,
						"slot": "0",
						"type": "t_string_storage"
					},
					{
						"astId": 14,
						"contract": "contracts/GeekNftMarketPlace.sol:GeekNftMarketPlace",
						"label": "symbol",
						"offset": 0,
						"slot": "1",
						"type": "t_string_storage"
					},
					{
						"astId": 16,
						"contract": "contracts/GeekNftMarketPlace.sol:GeekNftMarketPlace",
						"label": "owner",
						"offset": 0,
						"slot": "2",
						"type": "t_address"
					},
					{
						"astId": 29,
						"contract": "contracts/GeekNftMarketPlace.sol:GeekNftMarketPlace",
						"label": "items",
						"offset": 0,
						"slot": "3",
						"type": "t_array(t_struct(Item)25_storage)dyn_storage"
					},
					{
						"astId": 31,
						"contract": "contracts/GeekNftMarketPlace.sol:GeekNftMarketPlace",
						"label": "itemsToSellCount",
						"offset": 0,
						"slot": "4",
						"type": "t_uint256"
					},
					{
						"astId": 34,
						"contract": "contracts/GeekNftMarketPlace.sol:GeekNftMarketPlace",
						"label": "createItemFees",
						"offset": 0,
						"slot": "5",
						"type": "t_uint256"
					},
					{
						"astId": 37,
						"contract": "contracts/GeekNftMarketPlace.sol:GeekNftMarketPlace",
						"label": "creatorPercentage",
						"offset": 0,
						"slot": "6",
						"type": "t_uint256"
					},
					{
						"astId": 41,
						"contract": "contracts/GeekNftMarketPlace.sol:GeekNftMarketPlace",
						"label": "itemsOwnerCount",
						"offset": 0,
						"slot": "7",
						"type": "t_mapping(t_address,t_uint256)"
					},
					{
						"astId": 45,
						"contract": "contracts/GeekNftMarketPlace.sol:GeekNftMarketPlace",
						"label": "itemToOwner",
						"offset": 0,
						"slot": "8",
						"type": "t_mapping(t_uint256,t_address)"
					},
					{
						"astId": 49,
						"contract": "contracts/GeekNftMarketPlace.sol:GeekNftMarketPlace",
						"label": "itemsCreatorCount",
						"offset": 0,
						"slot": "9",
						"type": "t_mapping(t_address,t_uint256)"
					},
					{
						"astId": 53,
						"contract": "contracts/GeekNftMarketPlace.sol:GeekNftMarketPlace",
						"label": "itemToCreator",
						"offset": 0,
						"slot": "10",
						"type": "t_mapping(t_uint256,t_address)"
					},
					{
						"astId": 57,
						"contract": "contracts/GeekNftMarketPlace.sol:GeekNftMarketPlace",
						"label": "itemsCatIdCount",
						"offset": 0,
						"slot": "11",
						"type": "t_mapping(t_uint256,t_uint256)"
					},
					{
						"astId": 61,
						"contract": "contracts/GeekNftMarketPlace.sol:GeekNftMarketPlace",
						"label": "itemToCatId",
						"offset": 0,
						"slot": "12",
						"type": "t_mapping(t_uint256,t_uint256)"
					}
				],
				"types": {
					"t_address": {
						"encoding": "inplace",
						"label": "address",
						"numberOfBytes": "20"
					},
					"t_array(t_struct(Item)25_storage)dyn_storage": {
						"base": "t_struct(Item)25_storage",
						"encoding": "dynamic_array",
						"label": "struct GeekNftMarketPlace.Item[]",
						"numberOfBytes": "32"
					},
					"t_bool": {
						"encoding": "inplace",
						"label": "bool",
						"numberOfBytes": "1"
					},
					"t_mapping(t_address,t_uint256)": {
						"encoding": "mapping",
						"key": "t_address",
						"label": "mapping(address => uint256)",
						"numberOfBytes": "32",
						"value": "t_uint256"
					},
					"t_mapping(t_uint256,t_address)": {
						"encoding": "mapping",
						"key": "t_uint256",
						"label": "mapping(uint256 => address)",
						"numberOfBytes": "32",
						"value": "t_address"
					},
					"t_mapping(t_uint256,t_uint256)": {
						"encoding": "mapping",
						"key": "t_uint256",
						"label": "mapping(uint256 => uint256)",
						"numberOfBytes": "32",
						"value": "t_uint256"
					},
					"t_string_storage": {
						"encoding": "bytes",
						"label": "string",
						"numberOfBytes": "32"
					},
					"t_struct(Item)25_storage": {
						"encoding": "inplace",
						"label": "struct GeekNftMarketPlace.Item",
						"members": [
							{
								"astId": 18,
								"contract": "contracts/GeekNftMarketPlace.sol:GeekNftMarketPlace",
								"label": "dataId",
								"offset": 0,
								"slot": "0",
								"type": "t_uint256"
							},
							{
								"astId": 20,
								"contract": "contracts/GeekNftMarketPlace.sol:GeekNftMarketPlace",
								"label": "tokenId",
								"offset": 0,
								"slot": "1",
								"type": "t_uint256"
							},
							{
								"astId": 22,
								"contract": "contracts/GeekNftMarketPlace.sol:GeekNftMarketPlace",
								"label": "price",
								"offset": 0,
								"slot": "2",
								"type": "t_uint256"
							},
							{
								"astId": 24,
								"contract": "contracts/GeekNftMarketPlace.sol:GeekNftMarketPlace",
								"label": "toSell",
								"offset": 0,
								"slot": "3",
								"type": "t_bool"
							}
						],
						"numberOfBytes": "128"
					},
					"t_uint256": {
						"encoding": "inplace",
						"label": "uint256",
						"numberOfBytes": "32"
					}
				}
			},
			"userdoc": {
				"kind": "user",
				"methods": {},
				"version": 1
			}
		}
	}
}