{
	"contracts/GeekNft.sol": {
		"GeekNft": {
			"abi": [
				{
					"inputs": [
						{
							"internalType": "address",
							"name": "_marketplaceAddress",
							"type": "address"
						},
						{
							"internalType": "string",
							"name": "name_",
							"type": "string"
						},
						{
							"internalType": "string",
							"name": "symbol_",
							"type": "string"
						}
					],
					"stateMutability": "nonpayable",
					"type": "constructor"
				},
				{
					"anonymous": false,
					"inputs": [
						{
							"indexed": false,
							"internalType": "uint256",
							"name": "",
							"type": "uint256"
						}
					],
					"name": "NftMinted",
					"type": "event"
				},
				{
					"anonymous": false,
					"inputs": [
						{
							"indexed": true,
							"internalType": "address",
							"name": "from",
							"type": "address"
						},
						{
							"indexed": true,
							"internalType": "address",
							"name": "to",
							"type": "address"
						},
						{
							"indexed": false,
							"internalType": "uint256",
							"name": "tokenId",
							"type": "uint256"
						}
					],
					"name": "Transfer",
					"type": "event"
				},
				{
					"inputs": [
						{
							"internalType": "string",
							"name": "_tokenUri",
							"type": "string"
						}
					],
					"name": "mint",
					"outputs": [],
					"stateMutability": "nonpayable",
					"type": "function"
				},
				{
					"inputs": [],
					"name": "name",
					"outputs": [
						{
							"internalType": "string",
							"name": "",
							"type": "string"
						}
					],
					"stateMutability": "view",
					"type": "function"
				},
				{
					"inputs": [],
					"name": "symbol",
					"outputs": [
						{
							"internalType": "string",
							"name": "",
							"type": "string"
						}
					],
					"stateMutability": "view",
					"type": "function"
				}
			],
			"devdoc": {
				"kind": "dev",
				"methods": {},
				"version": 1
			},
			"evm": {
				"assembly": "    /* \"contracts/GeekNft.sol\":110:1913  contract GeekNft {... */\n  mstore(0x40, 0x80)\n    /* \"contracts/GeekNft.sol\":175:207  string private _name = \"GeekNft\" */\n  mload(0x40)\n  dup1\n  0x40\n  add\n  0x40\n  mstore\n  dup1\n  0x07\n  dup2\n  mstore\n  0x20\n  add\n  0x4765656b4e667400000000000000000000000000000000000000000000000000\n  dup2\n  mstore\n  pop\n  0x00\n  swap1\n  dup1\n  mload\n  swap1\n  0x20\n  add\n  swap1\n  tag_1\n  swap3\n  swap2\n  swap1\n  tag_2\n  jump\t// in\ntag_1:\n  pop\n    /* \"contracts/GeekNft.sol\":213:245  string private _symbol = \"GEEKT\" */\n  mload(0x40)\n  dup1\n  0x40\n  add\n  0x40\n  mstore\n  dup1\n  0x05\n  dup2\n  mstore\n  0x20\n  add\n  0x4745454b54000000000000000000000000000000000000000000000000000000\n  dup2\n  mstore\n  pop\n  0x01\n  swap1\n  dup1\n  mload\n  swap1\n  0x20\n  add\n  swap1\n  tag_3\n  swap3\n  swap2\n  swap1\n  tag_2\n  jump\t// in\ntag_3:\n  pop\n    /* \"contracts/GeekNft.sol\":655:796  constructor(address _marketplaceAddress, string memory name_, string memory symbol_){... */\n  callvalue\n  dup1\n  iszero\n  tag_4\n  jumpi\n  0x00\n  dup1\n  revert\ntag_4:\n  pop\n  mload(0x40)\n  sub(codesize, bytecodeSize)\n  dup1\n  bytecodeSize\n  dup4\n  codecopy\n  dup2\n  dup2\n  add\n  0x40\n  mstore\n  dup2\n  add\n  swap1\n  tag_5\n  swap2\n  swap1\n  tag_6\n  jump\t// in\ntag_5:\n    /* \"contracts/GeekNft.sol\":770:789  _marketplaceAddress */\n  dup3\n    /* \"contracts/GeekNft.sol\":749:767  marketplaceAddress */\n  0x03\n  0x00\n    /* \"contracts/GeekNft.sol\":749:789  marketplaceAddress = _marketplaceAddress */\n  0x0100\n  exp\n  dup2\n  sload\n  dup2\n  0xffffffffffffffffffffffffffffffffffffffff\n  mul\n  not\n  and\n  swap1\n  dup4\n  0xffffffffffffffffffffffffffffffffffffffff\n  and\n  mul\n  or\n  swap1\n  sstore\n  pop\n    /* \"contracts/GeekNft.sol\":655:796  constructor(address _marketplaceAddress, string memory name_, string memory symbol_){... */\n  pop\n  pop\n  pop\n    /* \"contracts/GeekNft.sol\":110:1913  contract GeekNft {... */\n  jump(tag_9)\ntag_2:\n  dup3\n  dup1\n  sload\n  tag_10\n  swap1\n  tag_11\n  jump\t// in\ntag_10:\n  swap1\n  0x00\n  mstore\n  keccak256(0x00, 0x20)\n  swap1\n  0x1f\n  add\n  0x20\n  swap1\n  div\n  dup2\n  add\n  swap3\n  dup3\n  tag_13\n  jumpi\n  0x00\n  dup6\n  sstore\n  jump(tag_12)\ntag_13:\n  dup3\n  0x1f\n  lt\n  tag_14\n  jumpi\n  dup1\n  mload\n  not(0xff)\n  and\n  dup4\n  dup1\n  add\n  or\n  dup6\n  sstore\n  jump(tag_12)\ntag_14:\n  dup3\n  dup1\n  add\n  0x01\n  add\n  dup6\n  sstore\n  dup3\n  iszero\n  tag_12\n  jumpi\n  swap2\n  dup3\n  add\ntag_15:\n  dup3\n  dup2\n  gt\n  iszero\n  tag_16\n  jumpi\n  dup3\n  mload\n  dup3\n  sstore\n  swap2\n  0x20\n  add\n  swap2\n  swap1\n  0x01\n  add\n  swap1\n  jump(tag_15)\ntag_16:\ntag_12:\n  pop\n  swap1\n  pop\n  tag_17\n  swap2\n  swap1\n  tag_18\n  jump\t// in\ntag_17:\n  pop\n  swap1\n  jump\t// out\ntag_18:\ntag_19:\n  dup1\n  dup3\n  gt\n  iszero\n  tag_20\n  jumpi\n  0x00\n  dup2\n  0x00\n  swap1\n  sstore\n  pop\n  0x01\n  add\n  jump(tag_19)\ntag_20:\n  pop\n  swap1\n  jump\t// out\n    /* \"#utility.yul\":7:361   */\ntag_22:\n  0x00\n    /* \"#utility.yul\":121:187   */\n  tag_24\n    /* \"#utility.yul\":137:186   */\n  tag_25\n    /* \"#utility.yul\":179:185   */\n  dup5\n    /* \"#utility.yul\":137:186   */\n  tag_26\n  jump\t// in\ntag_25:\n    /* \"#utility.yul\":121:187   */\n  tag_27\n  jump\t// in\ntag_24:\n    /* \"#utility.yul\":112:187   */\n  swap1\n  pop\n    /* \"#utility.yul\":210:216   */\n  dup3\n    /* \"#utility.yul\":203:208   */\n  dup2\n    /* \"#utility.yul\":196:217   */\n  mstore\n    /* \"#utility.yul\":248:252   */\n  0x20\n    /* \"#utility.yul\":241:246   */\n  dup2\n    /* \"#utility.yul\":237:253   */\n  add\n    /* \"#utility.yul\":286:289   */\n  dup5\n    /* \"#utility.yul\":277:283   */\n  dup5\n    /* \"#utility.yul\":272:275   */\n  dup5\n    /* \"#utility.yul\":268:284   */\n  add\n    /* \"#utility.yul\":265:290   */\n  gt\n    /* \"#utility.yul\":262:264   */\n  iszero\n  tag_28\n  jumpi\n    /* \"#utility.yul\":303:304   */\n  0x00\n    /* \"#utility.yul\":300:301   */\n  dup1\n    /* \"#utility.yul\":293:305   */\n  revert\n    /* \"#utility.yul\":262:264   */\ntag_28:\n    /* \"#utility.yul\":316:355   */\n  tag_29\n    /* \"#utility.yul\":348:354   */\n  dup5\n    /* \"#utility.yul\":343:346   */\n  dup3\n    /* \"#utility.yul\":338:341   */\n  dup6\n    /* \"#utility.yul\":316:355   */\n  tag_30\n  jump\t// in\ntag_29:\n    /* \"#utility.yul\":102:361   */\n  pop\n  swap4\n  swap3\n  pop\n  pop\n  pop\n  jump\t// out\n    /* \"#utility.yul\":367:510   */\ntag_31:\n  0x00\n    /* \"#utility.yul\":455:461   */\n  dup2\n    /* \"#utility.yul\":449:462   */\n  mload\n    /* \"#utility.yul\":440:462   */\n  swap1\n  pop\n    /* \"#utility.yul\":471:504   */\n  tag_33\n    /* \"#utility.yul\":498:503   */\n  dup2\n    /* \"#utility.yul\":471:504   */\n  tag_34\n  jump\t// in\ntag_33:\n    /* \"#utility.yul\":430:510   */\n  swap3\n  swap2\n  pop\n  pop\n  jump\t// out\n    /* \"#utility.yul\":530:818   */\ntag_35:\n  0x00\n    /* \"#utility.yul\":646:649   */\n  dup3\n    /* \"#utility.yul\":639:643   */\n  0x1f\n    /* \"#utility.yul\":631:637   */\n  dup4\n    /* \"#utility.yul\":627:644   */\n  add\n    /* \"#utility.yul\":623:650   */\n  slt\n    /* \"#utility.yul\":613:615   */\n  tag_37\n  jumpi\n    /* \"#utility.yul\":664:665   */\n  0x00\n    /* \"#utility.yul\":661:662   */\n  dup1\n    /* \"#utility.yul\":654:666   */\n  revert\n    /* \"#utility.yul\":613:615   */\ntag_37:\n    /* \"#utility.yul\":697:703   */\n  dup2\n    /* \"#utility.yul\":691:704   */\n  mload\n    /* \"#utility.yul\":722:812   */\n  tag_38\n    /* \"#utility.yul\":808:811   */\n  dup5\n    /* \"#utility.yul\":800:806   */\n  dup3\n    /* \"#utility.yul\":793:797   */\n  0x20\n    /* \"#utility.yul\":785:791   */\n  dup7\n    /* \"#utility.yul\":781:798   */\n  add\n    /* \"#utility.yul\":722:812   */\n  tag_22\n  jump\t// in\ntag_38:\n    /* \"#utility.yul\":713:812   */\n  swap2\n  pop\n    /* \"#utility.yul\":603:818   */\n  pop\n  swap3\n  swap2\n  pop\n  pop\n  jump\t// out\n    /* \"#utility.yul\":824:1632   */\ntag_6:\n  0x00\n  dup1\n  0x00\n    /* \"#utility.yul\":997:999   */\n  0x60\n    /* \"#utility.yul\":985:994   */\n  dup5\n    /* \"#utility.yul\":976:983   */\n  dup7\n    /* \"#utility.yul\":972:995   */\n  sub\n    /* \"#utility.yul\":968:1000   */\n  slt\n    /* \"#utility.yul\":965:967   */\n  iszero\n  tag_40\n  jumpi\n    /* \"#utility.yul\":1013:1014   */\n  0x00\n    /* \"#utility.yul\":1010:1011   */\n  dup1\n    /* \"#utility.yul\":1003:1015   */\n  revert\n    /* \"#utility.yul\":965:967   */\ntag_40:\n    /* \"#utility.yul\":1056:1057   */\n  0x00\n    /* \"#utility.yul\":1081:1145   */\n  tag_41\n    /* \"#utility.yul\":1137:1144   */\n  dup7\n    /* \"#utility.yul\":1128:1134   */\n  dup3\n    /* \"#utility.yul\":1117:1126   */\n  dup8\n    /* \"#utility.yul\":1113:1135   */\n  add\n    /* \"#utility.yul\":1081:1145   */\n  tag_31\n  jump\t// in\ntag_41:\n    /* \"#utility.yul\":1071:1145   */\n  swap4\n  pop\n    /* \"#utility.yul\":1027:1155   */\n  pop\n    /* \"#utility.yul\":1215:1217   */\n  0x20\n    /* \"#utility.yul\":1204:1213   */\n  dup5\n    /* \"#utility.yul\":1200:1218   */\n  add\n    /* \"#utility.yul\":1194:1219   */\n  mload\n    /* \"#utility.yul\":1246:1264   */\n  0xffffffffffffffff\n    /* \"#utility.yul\":1238:1244   */\n  dup2\n    /* \"#utility.yul\":1235:1265   */\n  gt\n    /* \"#utility.yul\":1232:1234   */\n  iszero\n  tag_42\n  jumpi\n    /* \"#utility.yul\":1278:1279   */\n  0x00\n    /* \"#utility.yul\":1275:1276   */\n  dup1\n    /* \"#utility.yul\":1268:1280   */\n  revert\n    /* \"#utility.yul\":1232:1234   */\ntag_42:\n    /* \"#utility.yul\":1306:1380   */\n  tag_43\n    /* \"#utility.yul\":1372:1379   */\n  dup7\n    /* \"#utility.yul\":1363:1369   */\n  dup3\n    /* \"#utility.yul\":1352:1361   */\n  dup8\n    /* \"#utility.yul\":1348:1370   */\n  add\n    /* \"#utility.yul\":1306:1380   */\n  tag_35\n  jump\t// in\ntag_43:\n    /* \"#utility.yul\":1296:1380   */\n  swap3\n  pop\n    /* \"#utility.yul\":1165:1390   */\n  pop\n    /* \"#utility.yul\":1450:1452   */\n  0x40\n    /* \"#utility.yul\":1439:1448   */\n  dup5\n    /* \"#utility.yul\":1435:1453   */\n  add\n    /* \"#utility.yul\":1429:1454   */\n  mload\n    /* \"#utility.yul\":1481:1499   */\n  0xffffffffffffffff\n    /* \"#utility.yul\":1473:1479   */\n  dup2\n    /* \"#utility.yul\":1470:1500   */\n  gt\n    /* \"#utility.yul\":1467:1469   */\n  iszero\n  tag_44\n  jumpi\n    /* \"#utility.yul\":1513:1514   */\n  0x00\n    /* \"#utility.yul\":1510:1511   */\n  dup1\n    /* \"#utility.yul\":1503:1515   */\n  revert\n    /* \"#utility.yul\":1467:1469   */\ntag_44:\n    /* \"#utility.yul\":1541:1615   */\n  tag_45\n    /* \"#utility.yul\":1607:1614   */\n  dup7\n    /* \"#utility.yul\":1598:1604   */\n  dup3\n    /* \"#utility.yul\":1587:1596   */\n  dup8\n    /* \"#utility.yul\":1583:1605   */\n  add\n    /* \"#utility.yul\":1541:1615   */\n  tag_35\n  jump\t// in\ntag_45:\n    /* \"#utility.yul\":1531:1615   */\n  swap2\n  pop\n    /* \"#utility.yul\":1400:1625   */\n  pop\n    /* \"#utility.yul\":955:1632   */\n  swap3\n  pop\n  swap3\n  pop\n  swap3\n  jump\t// out\n    /* \"#utility.yul\":1638:1767   */\ntag_27:\n  0x00\n    /* \"#utility.yul\":1699:1719   */\n  tag_47\n  tag_48\n  jump\t// in\ntag_47:\n    /* \"#utility.yul\":1689:1719   */\n  swap1\n  pop\n    /* \"#utility.yul\":1728:1761   */\n  tag_49\n    /* \"#utility.yul\":1756:1760   */\n  dup3\n    /* \"#utility.yul\":1748:1754   */\n  dup3\n    /* \"#utility.yul\":1728:1761   */\n  tag_50\n  jump\t// in\ntag_49:\n    /* \"#utility.yul\":1679:1767   */\n  swap2\n  swap1\n  pop\n  jump\t// out\n    /* \"#utility.yul\":1773:1848   */\ntag_48:\n  0x00\n    /* \"#utility.yul\":1839:1841   */\n  0x40\n    /* \"#utility.yul\":1833:1842   */\n  mload\n    /* \"#utility.yul\":1823:1842   */\n  swap1\n  pop\n    /* \"#utility.yul\":1813:1848   */\n  swap1\n  jump\t// out\n    /* \"#utility.yul\":1854:2162   */\ntag_26:\n  0x00\n    /* \"#utility.yul\":2006:2024   */\n  0xffffffffffffffff\n    /* \"#utility.yul\":1998:2004   */\n  dup3\n    /* \"#utility.yul\":1995:2025   */\n  gt\n    /* \"#utility.yul\":1992:1994   */\n  iszero\n  tag_53\n  jumpi\n    /* \"#utility.yul\":2028:2046   */\n  tag_54\n  tag_55\n  jump\t// in\ntag_54:\n    /* \"#utility.yul\":1992:1994   */\ntag_53:\n    /* \"#utility.yul\":2066:2095   */\n  tag_56\n    /* \"#utility.yul\":2088:2094   */\n  dup3\n    /* \"#utility.yul\":2066:2095   */\n  tag_57\n  jump\t// in\ntag_56:\n    /* \"#utility.yul\":2058:2095   */\n  swap1\n  pop\n    /* \"#utility.yul\":2150:2154   */\n  0x20\n    /* \"#utility.yul\":2144:2148   */\n  dup2\n    /* \"#utility.yul\":2140:2155   */\n  add\n    /* \"#utility.yul\":2132:2155   */\n  swap1\n  pop\n    /* \"#utility.yul\":1921:2162   */\n  swap2\n  swap1\n  pop\n  jump\t// out\n    /* \"#utility.yul\":2168:2264   */\ntag_58:\n  0x00\n    /* \"#utility.yul\":2234:2258   */\n  tag_60\n    /* \"#utility.yul\":2252:2257   */\n  dup3\n    /* \"#utility.yul\":2234:2258   */\n  tag_61\n  jump\t// in\ntag_60:\n    /* \"#utility.yul\":2223:2258   */\n  swap1\n  pop\n    /* \"#utility.yul\":2213:2264   */\n  swap2\n  swap1\n  pop\n  jump\t// out\n    /* \"#utility.yul\":2270:2396   */\ntag_61:\n  0x00\n    /* \"#utility.yul\":2347:2389   */\n  0xffffffffffffffffffffffffffffffffffffffff\n    /* \"#utility.yul\":2340:2345   */\n  dup3\n    /* \"#utility.yul\":2336:2390   */\n  and\n    /* \"#utility.yul\":2325:2390   */\n  swap1\n  pop\n    /* \"#utility.yul\":2315:2396   */\n  swap2\n  swap1\n  pop\n  jump\t// out\n    /* \"#utility.yul\":2402:2709   */\ntag_30:\n    /* \"#utility.yul\":2470:2471   */\n  0x00\n    /* \"#utility.yul\":2480:2593   */\ntag_64:\n    /* \"#utility.yul\":2494:2500   */\n  dup4\n    /* \"#utility.yul\":2491:2492   */\n  dup2\n    /* \"#utility.yul\":2488:2501   */\n  lt\n    /* \"#utility.yul\":2480:2593   */\n  iszero\n  tag_66\n  jumpi\n    /* \"#utility.yul\":2579:2580   */\n  dup1\n    /* \"#utility.yul\":2574:2577   */\n  dup3\n    /* \"#utility.yul\":2570:2581   */\n  add\n    /* \"#utility.yul\":2564:2582   */\n  mload\n    /* \"#utility.yul\":2560:2561   */\n  dup2\n    /* \"#utility.yul\":2555:2558   */\n  dup5\n    /* \"#utility.yul\":2551:2562   */\n  add\n    /* \"#utility.yul\":2544:2583   */\n  mstore\n    /* \"#utility.yul\":2516:2518   */\n  0x20\n    /* \"#utility.yul\":2513:2514   */\n  dup2\n    /* \"#utility.yul\":2509:2519   */\n  add\n    /* \"#utility.yul\":2504:2519   */\n  swap1\n  pop\n    /* \"#utility.yul\":2480:2593   */\n  jump(tag_64)\ntag_66:\n    /* \"#utility.yul\":2611:2617   */\n  dup4\n    /* \"#utility.yul\":2608:2609   */\n  dup2\n    /* \"#utility.yul\":2605:2618   */\n  gt\n    /* \"#utility.yul\":2602:2604   */\n  iszero\n  tag_67\n  jumpi\n    /* \"#utility.yul\":2691:2692   */\n  0x00\n    /* \"#utility.yul\":2682:2688   */\n  dup5\n    /* \"#utility.yul\":2677:2680   */\n  dup5\n    /* \"#utility.yul\":2673:2689   */\n  add\n    /* \"#utility.yul\":2666:2693   */\n  mstore\n    /* \"#utility.yul\":2602:2604   */\ntag_67:\n    /* \"#utility.yul\":2451:2709   */\n  pop\n  pop\n  pop\n  pop\n  jump\t// out\n    /* \"#utility.yul\":2715:3035   */\ntag_11:\n  0x00\n    /* \"#utility.yul\":2796:2797   */\n  0x02\n    /* \"#utility.yul\":2790:2794   */\n  dup3\n    /* \"#utility.yul\":2786:2798   */\n  div\n    /* \"#utility.yul\":2776:2798   */\n  swap1\n  pop\n    /* \"#utility.yul\":2843:2844   */\n  0x01\n    /* \"#utility.yul\":2837:2841   */\n  dup3\n    /* \"#utility.yul\":2833:2845   */\n  and\n    /* \"#utility.yul\":2864:2882   */\n  dup1\n    /* \"#utility.yul\":2854:2856   */\n  tag_69\n  jumpi\n    /* \"#utility.yul\":2920:2924   */\n  0x7f\n    /* \"#utility.yul\":2912:2918   */\n  dup3\n    /* \"#utility.yul\":2908:2925   */\n  and\n    /* \"#utility.yul\":2898:2925   */\n  swap2\n  pop\n    /* \"#utility.yul\":2854:2856   */\ntag_69:\n    /* \"#utility.yul\":2982:2984   */\n  0x20\n    /* \"#utility.yul\":2974:2980   */\n  dup3\n    /* \"#utility.yul\":2971:2985   */\n  lt\n    /* \"#utility.yul\":2951:2969   */\n  dup2\n    /* \"#utility.yul\":2948:2986   */\n  eq\n    /* \"#utility.yul\":2945:2947   */\n  iszero\n  tag_70\n  jumpi\n    /* \"#utility.yul\":3001:3019   */\n  tag_71\n  tag_72\n  jump\t// in\ntag_71:\n    /* \"#utility.yul\":2945:2947   */\ntag_70:\n    /* \"#utility.yul\":2766:3035   */\n  pop\n  swap2\n  swap1\n  pop\n  jump\t// out\n    /* \"#utility.yul\":3041:3322   */\ntag_50:\n    /* \"#utility.yul\":3124:3151   */\n  tag_74\n    /* \"#utility.yul\":3146:3150   */\n  dup3\n    /* \"#utility.yul\":3124:3151   */\n  tag_57\n  jump\t// in\ntag_74:\n    /* \"#utility.yul\":3116:3122   */\n  dup2\n    /* \"#utility.yul\":3112:3152   */\n  add\n    /* \"#utility.yul\":3254:3260   */\n  dup2\n    /* \"#utility.yul\":3242:3252   */\n  dup2\n    /* \"#utility.yul\":3239:3261   */\n  lt\n    /* \"#utility.yul\":3218:3236   */\n  0xffffffffffffffff\n    /* \"#utility.yul\":3206:3216   */\n  dup3\n    /* \"#utility.yul\":3203:3237   */\n  gt\n    /* \"#utility.yul\":3200:3262   */\n  or\n    /* \"#utility.yul\":3197:3199   */\n  iszero\n  tag_75\n  jumpi\n    /* \"#utility.yul\":3265:3283   */\n  tag_76\n  tag_55\n  jump\t// in\ntag_76:\n    /* \"#utility.yul\":3197:3199   */\ntag_75:\n    /* \"#utility.yul\":3305:3315   */\n  dup1\n    /* \"#utility.yul\":3301:3303   */\n  0x40\n    /* \"#utility.yul\":3294:3316   */\n  mstore\n    /* \"#utility.yul\":3084:3322   */\n  pop\n  pop\n  pop\n  jump\t// out\n    /* \"#utility.yul\":3328:3508   */\ntag_72:\n    /* \"#utility.yul\":3376:3453   */\n  0x4e487b7100000000000000000000000000000000000000000000000000000000\n    /* \"#utility.yul\":3373:3374   */\n  0x00\n    /* \"#utility.yul\":3366:3454   */\n  mstore\n    /* \"#utility.yul\":3473:3477   */\n  0x22\n    /* \"#utility.yul\":3470:3471   */\n  0x04\n    /* \"#utility.yul\":3463:3478   */\n  mstore\n    /* \"#utility.yul\":3497:3501   */\n  0x24\n    /* \"#utility.yul\":3494:3495   */\n  0x00\n    /* \"#utility.yul\":3487:3502   */\n  revert\n    /* \"#utility.yul\":3514:3694   */\ntag_55:\n    /* \"#utility.yul\":3562:3639   */\n  0x4e487b7100000000000000000000000000000000000000000000000000000000\n    /* \"#utility.yul\":3559:3560   */\n  0x00\n    /* \"#utility.yul\":3552:3640   */\n  mstore\n    /* \"#utility.yul\":3659:3663   */\n  0x41\n    /* \"#utility.yul\":3656:3657   */\n  0x04\n    /* \"#utility.yul\":3649:3664   */\n  mstore\n    /* \"#utility.yul\":3683:3687   */\n  0x24\n    /* \"#utility.yul\":3680:3681   */\n  0x00\n    /* \"#utility.yul\":3673:3688   */\n  revert\n    /* \"#utility.yul\":3700:3802   */\ntag_57:\n  0x00\n    /* \"#utility.yul\":3792:3794   */\n  0x1f\n    /* \"#utility.yul\":3788:3795   */\n  not\n    /* \"#utility.yul\":3783:3785   */\n  0x1f\n    /* \"#utility.yul\":3776:3781   */\n  dup4\n    /* \"#utility.yul\":3772:3786   */\n  add\n    /* \"#utility.yul\":3768:3796   */\n  and\n    /* \"#utility.yul\":3758:3796   */\n  swap1\n  pop\n    /* \"#utility.yul\":3748:3802   */\n  swap2\n  swap1\n  pop\n  jump\t// out\n    /* \"#utility.yul\":3808:3930   */\ntag_34:\n    /* \"#utility.yul\":3881:3905   */\n  tag_81\n    /* \"#utility.yul\":3899:3904   */\n  dup2\n    /* \"#utility.yul\":3881:3905   */\n  tag_58\n  jump\t// in\ntag_81:\n    /* \"#utility.yul\":3874:3879   */\n  dup2\n    /* \"#utility.yul\":3871:3906   */\n  eq\n    /* \"#utility.yul\":3861:3863   */\n  tag_82\n  jumpi\n    /* \"#utility.yul\":3920:3921   */\n  0x00\n    /* \"#utility.yul\":3917:3918   */\n  dup1\n    /* \"#utility.yul\":3910:3922   */\n  revert\n    /* \"#utility.yul\":3861:3863   */\ntag_82:\n    /* \"#utility.yul\":3851:3930   */\n  pop\n  jump\t// out\n    /* \"contracts/GeekNft.sol\":110:1913  contract GeekNft {... */\ntag_9:\n  dataSize(sub_0)\n  dup1\n  dataOffset(sub_0)\n  0x00\n  codecopy\n  0x00\n  return\nstop\n\nsub_0: assembly {\n        /* \"contracts/GeekNft.sol\":110:1913  contract GeekNft {... */\n      mstore(0x40, 0x80)\n      callvalue\n      dup1\n      iszero\n      tag_1\n      jumpi\n      0x00\n      dup1\n      revert\n    tag_1:\n      pop\n      jumpi(tag_2, lt(calldatasize, 0x04))\n      shr(0xe0, calldataload(0x00))\n      dup1\n      0x06fdde03\n      eq\n      tag_3\n      jumpi\n      dup1\n      0x95d89b41\n      eq\n      tag_4\n      jumpi\n      dup1\n      0xd85d3d27\n      eq\n      tag_5\n      jumpi\n    tag_2:\n      0x00\n      dup1\n      revert\n        /* \"contracts/GeekNft.sol\":1062:1143  function name() public view returns (string memory) {... */\n    tag_3:\n      tag_6\n      tag_7\n      jump\t// in\n    tag_6:\n      mload(0x40)\n      tag_8\n      swap2\n      swap1\n      tag_9\n      jump\t// in\n    tag_8:\n      mload(0x40)\n      dup1\n      swap2\n      sub\n      swap1\n      return\n        /* \"contracts/GeekNft.sol\":1153:1238  function symbol() public view returns (string memory) {... */\n    tag_4:\n      tag_10\n      tag_11\n      jump\t// in\n    tag_10:\n      mload(0x40)\n      tag_12\n      swap2\n      swap1\n      tag_9\n      jump\t// in\n    tag_12:\n      mload(0x40)\n      dup1\n      swap2\n      sub\n      swap1\n      return\n        /* \"contracts/GeekNft.sol\":802:1055  function mint(string memory _tokenUri) public {... */\n    tag_5:\n      tag_13\n      0x04\n      dup1\n      calldatasize\n      sub\n      dup2\n      add\n      swap1\n      tag_14\n      swap2\n      swap1\n      tag_15\n      jump\t// in\n    tag_14:\n      tag_16\n      jump\t// in\n    tag_13:\n      stop\n        /* \"contracts/GeekNft.sol\":1062:1143  function name() public view returns (string memory) {... */\n    tag_7:\n        /* \"contracts/GeekNft.sol\":1099:1112  string memory */\n      0x60\n        /* \"contracts/GeekNft.sol\":1131:1136  _name */\n      0x00\n        /* \"contracts/GeekNft.sol\":1124:1136  return _name */\n      dup1\n      sload\n      tag_18\n      swap1\n      tag_19\n      jump\t// in\n    tag_18:\n      dup1\n      0x1f\n      add\n      0x20\n      dup1\n      swap2\n      div\n      mul\n      0x20\n      add\n      mload(0x40)\n      swap1\n      dup2\n      add\n      0x40\n      mstore\n      dup1\n      swap3\n      swap2\n      swap1\n      dup2\n      dup2\n      mstore\n      0x20\n      add\n      dup3\n      dup1\n      sload\n      tag_20\n      swap1\n      tag_19\n      jump\t// in\n    tag_20:\n      dup1\n      iszero\n      tag_21\n      jumpi\n      dup1\n      0x1f\n      lt\n      tag_22\n      jumpi\n      0x0100\n      dup1\n      dup4\n      sload\n      div\n      mul\n      dup4\n      mstore\n      swap2\n      0x20\n      add\n      swap2\n      jump(tag_21)\n    tag_22:\n      dup3\n      add\n      swap2\n      swap1\n      0x00\n      mstore\n      keccak256(0x00, 0x20)\n      swap1\n    tag_23:\n      dup2\n      sload\n      dup2\n      mstore\n      swap1\n      0x01\n      add\n      swap1\n      0x20\n      add\n      dup1\n      dup4\n      gt\n      tag_23\n      jumpi\n      dup3\n      swap1\n      sub\n      0x1f\n      and\n      dup3\n      add\n      swap2\n    tag_21:\n      pop\n      pop\n      pop\n      pop\n      pop\n      swap1\n      pop\n        /* \"contracts/GeekNft.sol\":1062:1143  function name() public view returns (string memory) {... */\n      swap1\n      jump\t// out\n        /* \"contracts/GeekNft.sol\":1153:1238  function symbol() public view returns (string memory) {... */\n    tag_11:\n        /* \"contracts/GeekNft.sol\":1192:1205  string memory */\n      0x60\n        /* \"contracts/GeekNft.sol\":1224:1231  _symbol */\n      0x01\n        /* \"contracts/GeekNft.sol\":1217:1231  return _symbol */\n      dup1\n      sload\n      tag_25\n      swap1\n      tag_19\n      jump\t// in\n    tag_25:\n      dup1\n      0x1f\n      add\n      0x20\n      dup1\n      swap2\n      div\n      mul\n      0x20\n      add\n      mload(0x40)\n      swap1\n      dup2\n      add\n      0x40\n      mstore\n      dup1\n      swap3\n      swap2\n      swap1\n      dup2\n      dup2\n      mstore\n      0x20\n      add\n      dup3\n      dup1\n      sload\n      tag_26\n      swap1\n      tag_19\n      jump\t// in\n    tag_26:\n      dup1\n      iszero\n      tag_27\n      jumpi\n      dup1\n      0x1f\n      lt\n      tag_28\n      jumpi\n      0x0100\n      dup1\n      dup4\n      sload\n      div\n      mul\n      dup4\n      mstore\n      swap2\n      0x20\n      add\n      swap2\n      jump(tag_27)\n    tag_28:\n      dup3\n      add\n      swap2\n      swap1\n      0x00\n      mstore\n      keccak256(0x00, 0x20)\n      swap1\n    tag_29:\n      dup2\n      sload\n      dup2\n      mstore\n      swap1\n      0x01\n      add\n      swap1\n      0x20\n      add\n      dup1\n      dup4\n      gt\n      tag_29\n      jumpi\n      dup3\n      swap1\n      sub\n      0x1f\n      and\n      dup3\n      add\n      swap2\n    tag_27:\n      pop\n      pop\n      pop\n      pop\n      pop\n      swap1\n      pop\n        /* \"contracts/GeekNft.sol\":1153:1238  function symbol() public view returns (string memory) {... */\n      swap1\n      jump\t// out\n        /* \"contracts/GeekNft.sol\":802:1055  function mint(string memory _tokenUri) public {... */\n    tag_16:\n        /* \"contracts/GeekNft.sol\":858:878  tokenIds.increment() */\n      tag_31\n        /* \"contracts/GeekNft.sol\":858:866  tokenIds */\n      0x02\n        /* \"contracts/GeekNft.sol\":858:876  tokenIds.increment */\n      tag_32\n        /* \"contracts/GeekNft.sol\":858:878  tokenIds.increment() */\n      jump\t// in\n    tag_31:\n        /* \"contracts/GeekNft.sol\":888:903  uint newTokenId */\n      0x00\n        /* \"contracts/GeekNft.sol\":906:924  tokenIds.current() */\n      tag_33\n        /* \"contracts/GeekNft.sol\":906:914  tokenIds */\n      0x02\n        /* \"contracts/GeekNft.sol\":906:922  tokenIds.current */\n      tag_34\n        /* \"contracts/GeekNft.sol\":906:924  tokenIds.current() */\n      jump\t// in\n    tag_33:\n        /* \"contracts/GeekNft.sol\":888:924  uint newTokenId = tokenIds.current() */\n      swap1\n      pop\n        /* \"contracts/GeekNft.sol\":934:967  _safeMint(msg.sender, newTokenId) */\n      tag_35\n        /* \"contracts/GeekNft.sol\":944:954  msg.sender */\n      caller\n        /* \"contracts/GeekNft.sol\":956:966  newTokenId */\n      dup3\n        /* \"contracts/GeekNft.sol\":934:943  _safeMint */\n      tag_36\n        /* \"contracts/GeekNft.sol\":934:967  _safeMint(msg.sender, newTokenId) */\n      jump\t// in\n    tag_35:\n        /* \"contracts/GeekNft.sol\":977:1012  _setTokenUri(newTokenId, _tokenUri) */\n      tag_37\n        /* \"contracts/GeekNft.sol\":990:1000  newTokenId */\n      dup2\n        /* \"contracts/GeekNft.sol\":1002:1011  _tokenUri */\n      dup4\n        /* \"contracts/GeekNft.sol\":977:989  _setTokenUri */\n      tag_38\n        /* \"contracts/GeekNft.sol\":977:1012  _setTokenUri(newTokenId, _tokenUri) */\n      jump\t// in\n    tag_37:\n        /* \"contracts/GeekNft.sol\":1027:1048  NftMinted(newTokenId) */\n      0x7f8949b6eca2b14d0feb1af0844a112998e467a4f88b8683301f3a6e409f32ae\n        /* \"contracts/GeekNft.sol\":1037:1047  newTokenId */\n      dup2\n        /* \"contracts/GeekNft.sol\":1027:1048  NftMinted(newTokenId) */\n      mload(0x40)\n      tag_39\n      swap2\n      swap1\n      tag_40\n      jump\t// in\n    tag_39:\n      mload(0x40)\n      dup1\n      swap2\n      sub\n      swap1\n      log1\n        /* \"contracts/GeekNft.sol\":802:1055  function mint(string memory _tokenUri) public {... */\n      pop\n      pop\n      jump\t// out\n        /* \"@openzeppelin/contracts/utils/Counters.sol\":945:1068  function increment(Counter storage counter) internal {... */\n    tag_32:\n        /* \"@openzeppelin/contracts/utils/Counters.sol\":1050:1051  1 */\n      0x01\n        /* \"@openzeppelin/contracts/utils/Counters.sol\":1032:1039  counter */\n      dup2\n        /* \"@openzeppelin/contracts/utils/Counters.sol\":1032:1046  counter._value */\n      0x00\n      add\n      0x00\n        /* \"@openzeppelin/contracts/utils/Counters.sol\":1032:1051  counter._value += 1 */\n      dup3\n      dup3\n      sload\n      add\n      swap3\n      pop\n      pop\n      dup2\n      swap1\n      sstore\n      pop\n        /* \"@openzeppelin/contracts/utils/Counters.sol\":945:1068  function increment(Counter storage counter) internal {... */\n      pop\n      jump\t// out\n        /* \"@openzeppelin/contracts/utils/Counters.sol\":827:939  function current(Counter storage counter) internal view returns (uint256) {... */\n    tag_34:\n        /* \"@openzeppelin/contracts/utils/Counters.sol\":892:899  uint256 */\n      0x00\n        /* \"@openzeppelin/contracts/utils/Counters.sol\":918:925  counter */\n      dup2\n        /* \"@openzeppelin/contracts/utils/Counters.sol\":918:932  counter._value */\n      0x00\n      add\n      sload\n        /* \"@openzeppelin/contracts/utils/Counters.sol\":911:932  return counter._value */\n      swap1\n      pop\n        /* \"@openzeppelin/contracts/utils/Counters.sol\":827:939  function current(Counter storage counter) internal view returns (uint256) {... */\n      swap2\n      swap1\n      pop\n      jump\t// out\n        /* \"contracts/GeekNft.sol\":1264:1705  function _safeMint(address _to, uint _tokenId) private{... */\n    tag_36:\n        /* \"contracts/GeekNft.sol\":1372:1373  0 */\n      0x00\n        /* \"contracts/GeekNft.sol\":1336:1374  tokenToCreator[_tokenId] == address(0) */\n      0xffffffffffffffffffffffffffffffffffffffff\n      and\n        /* \"contracts/GeekNft.sol\":1336:1350  tokenToCreator */\n      0x07\n        /* \"contracts/GeekNft.sol\":1336:1360  tokenToCreator[_tokenId] */\n      0x00\n        /* \"contracts/GeekNft.sol\":1351:1359  _tokenId */\n      dup4\n        /* \"contracts/GeekNft.sol\":1336:1360  tokenToCreator[_tokenId] */\n      dup2\n      mstore\n      0x20\n      add\n      swap1\n      dup2\n      mstore\n      0x20\n      add\n      0x00\n      keccak256\n      0x00\n      swap1\n      sload\n      swap1\n      0x0100\n      exp\n      swap1\n      div\n      0xffffffffffffffffffffffffffffffffffffffff\n      and\n        /* \"contracts/GeekNft.sol\":1336:1374  tokenToCreator[_tokenId] == address(0) */\n      0xffffffffffffffffffffffffffffffffffffffff\n      and\n      eq\n        /* \"contracts/GeekNft.sol\":1328:1398  require(tokenToCreator[_tokenId] == address(0), \"token already exist\") */\n      tag_44\n      jumpi\n      mload(0x40)\n      0x08c379a000000000000000000000000000000000000000000000000000000000\n      dup2\n      mstore\n      0x04\n      add\n      tag_45\n      swap1\n      tag_46\n      jump\t// in\n    tag_45:\n      mload(0x40)\n      dup1\n      swap2\n      sub\n      swap1\n      revert\n    tag_44:\n        /* \"contracts/GeekNft.sol\":1431:1432  0 */\n      0x00\n        /* \"contracts/GeekNft.sol\":1416:1433  _to == address(0) */\n      0xffffffffffffffffffffffffffffffffffffffff\n      and\n        /* \"contracts/GeekNft.sol\":1416:1419  _to */\n      dup3\n        /* \"contracts/GeekNft.sol\":1416:1433  _to == address(0) */\n      0xffffffffffffffffffffffffffffffffffffffff\n      and\n      eq\n        /* \"contracts/GeekNft.sol\":1408:1462  require(_to == address(0), \"mint to the zero address\") */\n      tag_47\n      jumpi\n      mload(0x40)\n      0x08c379a000000000000000000000000000000000000000000000000000000000\n      dup2\n      mstore\n      0x04\n      add\n      tag_48\n      swap1\n      tag_49\n      jump\t// in\n    tag_48:\n      mload(0x40)\n      dup1\n      swap2\n      sub\n      swap1\n      revert\n    tag_47:\n        /* \"contracts/GeekNft.sol\":1498:1501  _to */\n      dup2\n        /* \"contracts/GeekNft.sol\":1473:1485  tokenToOwner */\n      0x05\n        /* \"contracts/GeekNft.sol\":1473:1495  tokenToOwner[_tokenId] */\n      0x00\n        /* \"contracts/GeekNft.sol\":1486:1494  _tokenId */\n      dup4\n        /* \"contracts/GeekNft.sol\":1473:1495  tokenToOwner[_tokenId] */\n      dup2\n      mstore\n      0x20\n      add\n      swap1\n      dup2\n      mstore\n      0x20\n      add\n      0x00\n      keccak256\n      0x00\n        /* \"contracts/GeekNft.sol\":1473:1501  tokenToOwner[_tokenId] = _to */\n      0x0100\n      exp\n      dup2\n      sload\n      dup2\n      0xffffffffffffffffffffffffffffffffffffffff\n      mul\n      not\n      and\n      swap1\n      dup4\n      0xffffffffffffffffffffffffffffffffffffffff\n      and\n      mul\n      or\n      swap1\n      sstore\n      pop\n        /* \"contracts/GeekNft.sol\":1538:1541  _to */\n      dup2\n        /* \"contracts/GeekNft.sol\":1511:1525  tokenToCreator */\n      0x07\n        /* \"contracts/GeekNft.sol\":1511:1535  tokenToCreator[_tokenId] */\n      0x00\n        /* \"contracts/GeekNft.sol\":1526:1534  _tokenId */\n      dup4\n        /* \"contracts/GeekNft.sol\":1511:1535  tokenToCreator[_tokenId] */\n      dup2\n      mstore\n      0x20\n      add\n      swap1\n      dup2\n      mstore\n      0x20\n      add\n      0x00\n      keccak256\n      0x00\n        /* \"contracts/GeekNft.sol\":1511:1541  tokenToCreator[_tokenId] = _to */\n      0x0100\n      exp\n      dup2\n      sload\n      dup2\n      0xffffffffffffffffffffffffffffffffffffffff\n      mul\n      not\n      and\n      swap1\n      dup4\n      0xffffffffffffffffffffffffffffffffffffffff\n      and\n      mul\n      or\n      swap1\n      sstore\n      pop\n        /* \"contracts/GeekNft.sol\":1575:1591  tokensOwnerCount */\n      0x04\n        /* \"contracts/GeekNft.sol\":1575:1596  tokensOwnerCount[_to] */\n      0x00\n        /* \"contracts/GeekNft.sol\":1592:1595  _to */\n      dup4\n        /* \"contracts/GeekNft.sol\":1575:1596  tokensOwnerCount[_to] */\n      0xffffffffffffffffffffffffffffffffffffffff\n      and\n      0xffffffffffffffffffffffffffffffffffffffff\n      and\n      dup2\n      mstore\n      0x20\n      add\n      swap1\n      dup2\n      mstore\n      0x20\n      add\n      0x00\n      keccak256\n      0x00\n        /* \"contracts/GeekNft.sol\":1575:1598  tokensOwnerCount[_to]++ */\n      dup2\n      sload\n      dup1\n      swap3\n      swap2\n      swap1\n      0x01\n      add\n      swap2\n      swap1\n      pop\n      sstore\n      pop\n        /* \"contracts/GeekNft.sol\":1612:1630  tokensCreatorCount */\n      0x06\n        /* \"contracts/GeekNft.sol\":1612:1635  tokensCreatorCount[_to] */\n      0x00\n        /* \"contracts/GeekNft.sol\":1631:1634  _to */\n      dup4\n        /* \"contracts/GeekNft.sol\":1612:1635  tokensCreatorCount[_to] */\n      0xffffffffffffffffffffffffffffffffffffffff\n      and\n      0xffffffffffffffffffffffffffffffffffffffff\n      and\n      dup2\n      mstore\n      0x20\n      add\n      swap1\n      dup2\n      mstore\n      0x20\n      add\n      0x00\n      keccak256\n      0x00\n        /* \"contracts/GeekNft.sol\":1612:1637  tokensCreatorCount[_to]++ */\n      dup2\n      sload\n      dup1\n      swap3\n      swap2\n      swap1\n      0x01\n      add\n      swap2\n      swap1\n      pop\n      sstore\n      pop\n        /* \"contracts/GeekNft.sol\":1684:1687  _to */\n      dup2\n        /* \"contracts/GeekNft.sol\":1663:1698  Transfer(address(0), _to, _tokenId) */\n      0xffffffffffffffffffffffffffffffffffffffff\n      and\n        /* \"contracts/GeekNft.sol\":1680:1681  0 */\n      0x00\n        /* \"contracts/GeekNft.sol\":1663:1698  Transfer(address(0), _to, _tokenId) */\n      0xffffffffffffffffffffffffffffffffffffffff\n      and\n      0xddf252ad1be2c89b69c2b068fc378daa952ba7f163c4a11628f55a4df523b3ef\n        /* \"contracts/GeekNft.sol\":1689:1697  _tokenId */\n      dup4\n        /* \"contracts/GeekNft.sol\":1663:1698  Transfer(address(0), _to, _tokenId) */\n      mload(0x40)\n      tag_50\n      swap2\n      swap1\n      tag_40\n      jump\t// in\n    tag_50:\n      mload(0x40)\n      dup1\n      swap2\n      sub\n      swap1\n      log3\n        /* \"contracts/GeekNft.sol\":1264:1705  function _safeMint(address _to, uint _tokenId) private{... */\n      pop\n      pop\n      jump\t// out\n        /* \"contracts/GeekNft.sol\":1711:1910  function _setTokenUri(uint _tokenId, string memory _tokenUri) private {... */\n    tag_38:\n        /* \"contracts/GeekNft.sol\":1835:1836  0 */\n      0x00\n        /* \"contracts/GeekNft.sol\":1799:1837  tokenToCreator[_tokenId] != address(0) */\n      0xffffffffffffffffffffffffffffffffffffffff\n      and\n        /* \"contracts/GeekNft.sol\":1799:1813  tokenToCreator */\n      0x07\n        /* \"contracts/GeekNft.sol\":1799:1823  tokenToCreator[_tokenId] */\n      0x00\n        /* \"contracts/GeekNft.sol\":1814:1822  _tokenId */\n      dup5\n        /* \"contracts/GeekNft.sol\":1799:1823  tokenToCreator[_tokenId] */\n      dup2\n      mstore\n      0x20\n      add\n      swap1\n      dup2\n      mstore\n      0x20\n      add\n      0x00\n      keccak256\n      0x00\n      swap1\n      sload\n      swap1\n      0x0100\n      exp\n      swap1\n      div\n      0xffffffffffffffffffffffffffffffffffffffff\n      and\n        /* \"contracts/GeekNft.sol\":1799:1837  tokenToCreator[_tokenId] != address(0) */\n      0xffffffffffffffffffffffffffffffffffffffff\n      and\n      eq\n      iszero\n        /* \"contracts/GeekNft.sol\":1791:1861  require(tokenToCreator[_tokenId] != address(0), \"token doesn't exist\") */\n      tag_52\n      jumpi\n      mload(0x40)\n      0x08c379a000000000000000000000000000000000000000000000000000000000\n      dup2\n      mstore\n      0x04\n      add\n      tag_53\n      swap1\n      tag_54\n      jump\t// in\n    tag_53:\n      mload(0x40)\n      dup1\n      swap2\n      sub\n      swap1\n      revert\n    tag_52:\n        /* \"contracts/GeekNft.sol\":1894:1903  _tokenUri */\n      dup1\n        /* \"contracts/GeekNft.sol\":1871:1881  tokenToUri */\n      0x08\n        /* \"contracts/GeekNft.sol\":1871:1891  tokenToUri[_tokenId] */\n      0x00\n        /* \"contracts/GeekNft.sol\":1882:1890  _tokenId */\n      dup5\n        /* \"contracts/GeekNft.sol\":1871:1891  tokenToUri[_tokenId] */\n      dup2\n      mstore\n      0x20\n      add\n      swap1\n      dup2\n      mstore\n      0x20\n      add\n      0x00\n      keccak256\n        /* \"contracts/GeekNft.sol\":1871:1903  tokenToUri[_tokenId] = _tokenUri */\n      swap1\n      dup1\n      mload\n      swap1\n      0x20\n      add\n      swap1\n      tag_55\n      swap3\n      swap2\n      swap1\n      tag_56\n      jump\t// in\n    tag_55:\n      pop\n        /* \"contracts/GeekNft.sol\":1711:1910  function _setTokenUri(uint _tokenId, string memory _tokenUri) private {... */\n      pop\n      pop\n      jump\t// out\n    tag_56:\n      dup3\n      dup1\n      sload\n      tag_57\n      swap1\n      tag_19\n      jump\t// in\n    tag_57:\n      swap1\n      0x00\n      mstore\n      keccak256(0x00, 0x20)\n      swap1\n      0x1f\n      add\n      0x20\n      swap1\n      div\n      dup2\n      add\n      swap3\n      dup3\n      tag_59\n      jumpi\n      0x00\n      dup6\n      sstore\n      jump(tag_58)\n    tag_59:\n      dup3\n      0x1f\n      lt\n      tag_60\n      jumpi\n      dup1\n      mload\n      not(0xff)\n      and\n      dup4\n      dup1\n      add\n      or\n      dup6\n      sstore\n      jump(tag_58)\n    tag_60:\n      dup3\n      dup1\n      add\n      0x01\n      add\n      dup6\n      sstore\n      dup3\n      iszero\n      tag_58\n      jumpi\n      swap2\n      dup3\n      add\n    tag_61:\n      dup3\n      dup2\n      gt\n      iszero\n      tag_62\n      jumpi\n      dup3\n      mload\n      dup3\n      sstore\n      swap2\n      0x20\n      add\n      swap2\n      swap1\n      0x01\n      add\n      swap1\n      jump(tag_61)\n    tag_62:\n    tag_58:\n      pop\n      swap1\n      pop\n      tag_63\n      swap2\n      swap1\n      tag_64\n      jump\t// in\n    tag_63:\n      pop\n      swap1\n      jump\t// out\n    tag_64:\n    tag_65:\n      dup1\n      dup3\n      gt\n      iszero\n      tag_66\n      jumpi\n      0x00\n      dup2\n      0x00\n      swap1\n      sstore\n      pop\n      0x01\n      add\n      jump(tag_65)\n    tag_66:\n      pop\n      swap1\n      jump\t// out\n        /* \"#utility.yul\":7:352   */\n    tag_68:\n      0x00\n        /* \"#utility.yul\":110:176   */\n      tag_70\n        /* \"#utility.yul\":126:175   */\n      tag_71\n        /* \"#utility.yul\":168:174   */\n      dup5\n        /* \"#utility.yul\":126:175   */\n      tag_72\n      jump\t// in\n    tag_71:\n        /* \"#utility.yul\":110:176   */\n      tag_73\n      jump\t// in\n    tag_70:\n        /* \"#utility.yul\":101:176   */\n      swap1\n      pop\n        /* \"#utility.yul\":199:205   */\n      dup3\n        /* \"#utility.yul\":192:197   */\n      dup2\n        /* \"#utility.yul\":185:206   */\n      mstore\n        /* \"#utility.yul\":237:241   */\n      0x20\n        /* \"#utility.yul\":230:235   */\n      dup2\n        /* \"#utility.yul\":226:242   */\n      add\n        /* \"#utility.yul\":275:278   */\n      dup5\n        /* \"#utility.yul\":266:272   */\n      dup5\n        /* \"#utility.yul\":261:264   */\n      dup5\n        /* \"#utility.yul\":257:273   */\n      add\n        /* \"#utility.yul\":254:279   */\n      gt\n        /* \"#utility.yul\":251:253   */\n      iszero\n      tag_74\n      jumpi\n        /* \"#utility.yul\":292:293   */\n      0x00\n        /* \"#utility.yul\":289:290   */\n      dup1\n        /* \"#utility.yul\":282:294   */\n      revert\n        /* \"#utility.yul\":251:253   */\n    tag_74:\n        /* \"#utility.yul\":305:346   */\n      tag_75\n        /* \"#utility.yul\":339:345   */\n      dup5\n        /* \"#utility.yul\":334:337   */\n      dup3\n        /* \"#utility.yul\":329:332   */\n      dup6\n        /* \"#utility.yul\":305:346   */\n      tag_76\n      jump\t// in\n    tag_75:\n        /* \"#utility.yul\":91:352   */\n      pop\n      swap4\n      swap3\n      pop\n      pop\n      pop\n      jump\t// out\n        /* \"#utility.yul\":372:645   */\n    tag_77:\n      0x00\n        /* \"#utility.yul\":477:480   */\n      dup3\n        /* \"#utility.yul\":470:474   */\n      0x1f\n        /* \"#utility.yul\":462:468   */\n      dup4\n        /* \"#utility.yul\":458:475   */\n      add\n        /* \"#utility.yul\":454:481   */\n      slt\n        /* \"#utility.yul\":444:446   */\n      tag_79\n      jumpi\n        /* \"#utility.yul\":495:496   */\n      0x00\n        /* \"#utility.yul\":492:493   */\n      dup1\n        /* \"#utility.yul\":485:497   */\n      revert\n        /* \"#utility.yul\":444:446   */\n    tag_79:\n        /* \"#utility.yul\":535:541   */\n      dup2\n        /* \"#utility.yul\":522:542   */\n      calldataload\n        /* \"#utility.yul\":560:639   */\n      tag_80\n        /* \"#utility.yul\":635:638   */\n      dup5\n        /* \"#utility.yul\":627:633   */\n      dup3\n        /* \"#utility.yul\":620:624   */\n      0x20\n        /* \"#utility.yul\":612:618   */\n      dup7\n        /* \"#utility.yul\":608:625   */\n      add\n        /* \"#utility.yul\":560:639   */\n      tag_68\n      jump\t// in\n    tag_80:\n        /* \"#utility.yul\":551:639   */\n      swap2\n      pop\n        /* \"#utility.yul\":434:645   */\n      pop\n      swap3\n      swap2\n      pop\n      pop\n      jump\t// out\n        /* \"#utility.yul\":651:1026   */\n    tag_15:\n      0x00\n        /* \"#utility.yul\":769:771   */\n      0x20\n        /* \"#utility.yul\":757:766   */\n      dup3\n        /* \"#utility.yul\":748:755   */\n      dup5\n        /* \"#utility.yul\":744:767   */\n      sub\n        /* \"#utility.yul\":740:772   */\n      slt\n        /* \"#utility.yul\":737:739   */\n      iszero\n      tag_82\n      jumpi\n        /* \"#utility.yul\":785:786   */\n      0x00\n        /* \"#utility.yul\":782:783   */\n      dup1\n        /* \"#utility.yul\":775:787   */\n      revert\n        /* \"#utility.yul\":737:739   */\n    tag_82:\n        /* \"#utility.yul\":856:857   */\n      0x00\n        /* \"#utility.yul\":845:854   */\n      dup3\n        /* \"#utility.yul\":841:858   */\n      add\n        /* \"#utility.yul\":828:859   */\n      calldataload\n        /* \"#utility.yul\":886:904   */\n      0xffffffffffffffff\n        /* \"#utility.yul\":878:884   */\n      dup2\n        /* \"#utility.yul\":875:905   */\n      gt\n        /* \"#utility.yul\":872:874   */\n      iszero\n      tag_83\n      jumpi\n        /* \"#utility.yul\":918:919   */\n      0x00\n        /* \"#utility.yul\":915:916   */\n      dup1\n        /* \"#utility.yul\":908:920   */\n      revert\n        /* \"#utility.yul\":872:874   */\n    tag_83:\n        /* \"#utility.yul\":946:1009   */\n      tag_84\n        /* \"#utility.yul\":1001:1008   */\n      dup5\n        /* \"#utility.yul\":992:998   */\n      dup3\n        /* \"#utility.yul\":981:990   */\n      dup6\n        /* \"#utility.yul\":977:999   */\n      add\n        /* \"#utility.yul\":946:1009   */\n      tag_77\n      jump\t// in\n    tag_84:\n        /* \"#utility.yul\":936:1009   */\n      swap2\n      pop\n        /* \"#utility.yul\":799:1019   */\n      pop\n        /* \"#utility.yul\":727:1026   */\n      swap3\n      swap2\n      pop\n      pop\n      jump\t// out\n        /* \"#utility.yul\":1032:1396   */\n    tag_85:\n      0x00\n        /* \"#utility.yul\":1148:1187   */\n      tag_87\n        /* \"#utility.yul\":1181:1186   */\n      dup3\n        /* \"#utility.yul\":1148:1187   */\n      tag_88\n      jump\t// in\n    tag_87:\n        /* \"#utility.yul\":1203:1274   */\n      tag_89\n        /* \"#utility.yul\":1267:1273   */\n      dup2\n        /* \"#utility.yul\":1262:1265   */\n      dup6\n        /* \"#utility.yul\":1203:1274   */\n      tag_90\n      jump\t// in\n    tag_89:\n        /* \"#utility.yul\":1196:1274   */\n      swap4\n      pop\n        /* \"#utility.yul\":1283:1335   */\n      tag_91\n        /* \"#utility.yul\":1328:1334   */\n      dup2\n        /* \"#utility.yul\":1323:1326   */\n      dup6\n        /* \"#utility.yul\":1316:1320   */\n      0x20\n        /* \"#utility.yul\":1309:1314   */\n      dup7\n        /* \"#utility.yul\":1305:1321   */\n      add\n        /* \"#utility.yul\":1283:1335   */\n      tag_92\n      jump\t// in\n    tag_91:\n        /* \"#utility.yul\":1360:1389   */\n      tag_93\n        /* \"#utility.yul\":1382:1388   */\n      dup2\n        /* \"#utility.yul\":1360:1389   */\n      tag_94\n      jump\t// in\n    tag_93:\n        /* \"#utility.yul\":1355:1358   */\n      dup5\n        /* \"#utility.yul\":1351:1390   */\n      add\n        /* \"#utility.yul\":1344:1390   */\n      swap2\n      pop\n        /* \"#utility.yul\":1124:1396   */\n      pop\n      swap3\n      swap2\n      pop\n      pop\n      jump\t// out\n        /* \"#utility.yul\":1402:1768   */\n    tag_95:\n      0x00\n        /* \"#utility.yul\":1565:1632   */\n      tag_97\n        /* \"#utility.yul\":1629:1631   */\n      0x13\n        /* \"#utility.yul\":1624:1627   */\n      dup4\n        /* \"#utility.yul\":1565:1632   */\n      tag_90\n      jump\t// in\n    tag_97:\n        /* \"#utility.yul\":1558:1632   */\n      swap2\n      pop\n        /* \"#utility.yul\":1641:1734   */\n      tag_98\n        /* \"#utility.yul\":1730:1733   */\n      dup3\n        /* \"#utility.yul\":1641:1734   */\n      tag_99\n      jump\t// in\n    tag_98:\n        /* \"#utility.yul\":1759:1761   */\n      0x20\n        /* \"#utility.yul\":1754:1757   */\n      dup3\n        /* \"#utility.yul\":1750:1762   */\n      add\n        /* \"#utility.yul\":1743:1762   */\n      swap1\n      pop\n        /* \"#utility.yul\":1548:1768   */\n      swap2\n      swap1\n      pop\n      jump\t// out\n        /* \"#utility.yul\":1774:2140   */\n    tag_100:\n      0x00\n        /* \"#utility.yul\":1937:2004   */\n      tag_102\n        /* \"#utility.yul\":2001:2003   */\n      0x13\n        /* \"#utility.yul\":1996:1999   */\n      dup4\n        /* \"#utility.yul\":1937:2004   */\n      tag_90\n      jump\t// in\n    tag_102:\n        /* \"#utility.yul\":1930:2004   */\n      swap2\n      pop\n        /* \"#utility.yul\":2013:2106   */\n      tag_103\n        /* \"#utility.yul\":2102:2105   */\n      dup3\n        /* \"#utility.yul\":2013:2106   */\n      tag_104\n      jump\t// in\n    tag_103:\n        /* \"#utility.yul\":2131:2133   */\n      0x20\n        /* \"#utility.yul\":2126:2129   */\n      dup3\n        /* \"#utility.yul\":2122:2134   */\n      add\n        /* \"#utility.yul\":2115:2134   */\n      swap1\n      pop\n        /* \"#utility.yul\":1920:2140   */\n      swap2\n      swap1\n      pop\n      jump\t// out\n        /* \"#utility.yul\":2146:2512   */\n    tag_105:\n      0x00\n        /* \"#utility.yul\":2309:2376   */\n      tag_107\n        /* \"#utility.yul\":2373:2375   */\n      0x18\n        /* \"#utility.yul\":2368:2371   */\n      dup4\n        /* \"#utility.yul\":2309:2376   */\n      tag_90\n      jump\t// in\n    tag_107:\n        /* \"#utility.yul\":2302:2376   */\n      swap2\n      pop\n        /* \"#utility.yul\":2385:2478   */\n      tag_108\n        /* \"#utility.yul\":2474:2477   */\n      dup3\n        /* \"#utility.yul\":2385:2478   */\n      tag_109\n      jump\t// in\n    tag_108:\n        /* \"#utility.yul\":2503:2505   */\n      0x20\n        /* \"#utility.yul\":2498:2501   */\n      dup3\n        /* \"#utility.yul\":2494:2506   */\n      add\n        /* \"#utility.yul\":2487:2506   */\n      swap1\n      pop\n        /* \"#utility.yul\":2292:2512   */\n      swap2\n      swap1\n      pop\n      jump\t// out\n        /* \"#utility.yul\":2518:2636   */\n    tag_110:\n        /* \"#utility.yul\":2605:2629   */\n      tag_112\n        /* \"#utility.yul\":2623:2628   */\n      dup2\n        /* \"#utility.yul\":2605:2629   */\n      tag_113\n      jump\t// in\n    tag_112:\n        /* \"#utility.yul\":2600:2603   */\n      dup3\n        /* \"#utility.yul\":2593:2630   */\n      mstore\n        /* \"#utility.yul\":2583:2636   */\n      pop\n      pop\n      jump\t// out\n        /* \"#utility.yul\":2642:2955   */\n    tag_9:\n      0x00\n        /* \"#utility.yul\":2793:2795   */\n      0x20\n        /* \"#utility.yul\":2782:2791   */\n      dup3\n        /* \"#utility.yul\":2778:2796   */\n      add\n        /* \"#utility.yul\":2770:2796   */\n      swap1\n      pop\n        /* \"#utility.yul\":2842:2851   */\n      dup2\n        /* \"#utility.yul\":2836:2840   */\n      dup2\n        /* \"#utility.yul\":2832:2852   */\n      sub\n        /* \"#utility.yul\":2828:2829   */\n      0x00\n        /* \"#utility.yul\":2817:2826   */\n      dup4\n        /* \"#utility.yul\":2813:2830   */\n      add\n        /* \"#utility.yul\":2806:2853   */\n      mstore\n        /* \"#utility.yul\":2870:2948   */\n      tag_115\n        /* \"#utility.yul\":2943:2947   */\n      dup2\n        /* \"#utility.yul\":2934:2940   */\n      dup5\n        /* \"#utility.yul\":2870:2948   */\n      tag_85\n      jump\t// in\n    tag_115:\n        /* \"#utility.yul\":2862:2948   */\n      swap1\n      pop\n        /* \"#utility.yul\":2760:2955   */\n      swap3\n      swap2\n      pop\n      pop\n      jump\t// out\n        /* \"#utility.yul\":2961:3380   */\n    tag_46:\n      0x00\n        /* \"#utility.yul\":3165:3167   */\n      0x20\n        /* \"#utility.yul\":3154:3163   */\n      dup3\n        /* \"#utility.yul\":3150:3168   */\n      add\n        /* \"#utility.yul\":3142:3168   */\n      swap1\n      pop\n        /* \"#utility.yul\":3214:3223   */\n      dup2\n        /* \"#utility.yul\":3208:3212   */\n      dup2\n        /* \"#utility.yul\":3204:3224   */\n      sub\n        /* \"#utility.yul\":3200:3201   */\n      0x00\n        /* \"#utility.yul\":3189:3198   */\n      dup4\n        /* \"#utility.yul\":3185:3202   */\n      add\n        /* \"#utility.yul\":3178:3225   */\n      mstore\n        /* \"#utility.yul\":3242:3373   */\n      tag_117\n        /* \"#utility.yul\":3368:3372   */\n      dup2\n        /* \"#utility.yul\":3242:3373   */\n      tag_95\n      jump\t// in\n    tag_117:\n        /* \"#utility.yul\":3234:3373   */\n      swap1\n      pop\n        /* \"#utility.yul\":3132:3380   */\n      swap2\n      swap1\n      pop\n      jump\t// out\n        /* \"#utility.yul\":3386:3805   */\n    tag_54:\n      0x00\n        /* \"#utility.yul\":3590:3592   */\n      0x20\n        /* \"#utility.yul\":3579:3588   */\n      dup3\n        /* \"#utility.yul\":3575:3593   */\n      add\n        /* \"#utility.yul\":3567:3593   */\n      swap1\n      pop\n        /* \"#utility.yul\":3639:3648   */\n      dup2\n        /* \"#utility.yul\":3633:3637   */\n      dup2\n        /* \"#utility.yul\":3629:3649   */\n      sub\n        /* \"#utility.yul\":3625:3626   */\n      0x00\n        /* \"#utility.yul\":3614:3623   */\n      dup4\n        /* \"#utility.yul\":3610:3627   */\n      add\n        /* \"#utility.yul\":3603:3650   */\n      mstore\n        /* \"#utility.yul\":3667:3798   */\n      tag_119\n        /* \"#utility.yul\":3793:3797   */\n      dup2\n        /* \"#utility.yul\":3667:3798   */\n      tag_100\n      jump\t// in\n    tag_119:\n        /* \"#utility.yul\":3659:3798   */\n      swap1\n      pop\n        /* \"#utility.yul\":3557:3805   */\n      swap2\n      swap1\n      pop\n      jump\t// out\n        /* \"#utility.yul\":3811:4230   */\n    tag_49:\n      0x00\n        /* \"#utility.yul\":4015:4017   */\n      0x20\n        /* \"#utility.yul\":4004:4013   */\n      dup3\n        /* \"#utility.yul\":4000:4018   */\n      add\n        /* \"#utility.yul\":3992:4018   */\n      swap1\n      pop\n        /* \"#utility.yul\":4064:4073   */\n      dup2\n        /* \"#utility.yul\":4058:4062   */\n      dup2\n        /* \"#utility.yul\":4054:4074   */\n      sub\n        /* \"#utility.yul\":4050:4051   */\n      0x00\n        /* \"#utility.yul\":4039:4048   */\n      dup4\n        /* \"#utility.yul\":4035:4052   */\n      add\n        /* \"#utility.yul\":4028:4075   */\n      mstore\n        /* \"#utility.yul\":4092:4223   */\n      tag_121\n        /* \"#utility.yul\":4218:4222   */\n      dup2\n        /* \"#utility.yul\":4092:4223   */\n      tag_105\n      jump\t// in\n    tag_121:\n        /* \"#utility.yul\":4084:4223   */\n      swap1\n      pop\n        /* \"#utility.yul\":3982:4230   */\n      swap2\n      swap1\n      pop\n      jump\t// out\n        /* \"#utility.yul\":4236:4458   */\n    tag_40:\n      0x00\n        /* \"#utility.yul\":4367:4369   */\n      0x20\n        /* \"#utility.yul\":4356:4365   */\n      dup3\n        /* \"#utility.yul\":4352:4370   */\n      add\n        /* \"#utility.yul\":4344:4370   */\n      swap1\n      pop\n        /* \"#utility.yul\":4380:4451   */\n      tag_123\n        /* \"#utility.yul\":4448:4449   */\n      0x00\n        /* \"#utility.yul\":4437:4446   */\n      dup4\n        /* \"#utility.yul\":4433:4450   */\n      add\n        /* \"#utility.yul\":4424:4430   */\n      dup5\n        /* \"#utility.yul\":4380:4451   */\n      tag_110\n      jump\t// in\n    tag_123:\n        /* \"#utility.yul\":4334:4458   */\n      swap3\n      swap2\n      pop\n      pop\n      jump\t// out\n        /* \"#utility.yul\":4464:4593   */\n    tag_73:\n      0x00\n        /* \"#utility.yul\":4525:4545   */\n      tag_125\n      tag_126\n      jump\t// in\n    tag_125:\n        /* \"#utility.yul\":4515:4545   */\n      swap1\n      pop\n        /* \"#utility.yul\":4554:4587   */\n      tag_127\n        /* \"#utility.yul\":4582:4586   */\n      dup3\n        /* \"#utility.yul\":4574:4580   */\n      dup3\n        /* \"#utility.yul\":4554:4587   */\n      tag_128\n      jump\t// in\n    tag_127:\n        /* \"#utility.yul\":4505:4593   */\n      swap2\n      swap1\n      pop\n      jump\t// out\n        /* \"#utility.yul\":4599:4674   */\n    tag_126:\n      0x00\n        /* \"#utility.yul\":4665:4667   */\n      0x40\n        /* \"#utility.yul\":4659:4668   */\n      mload\n        /* \"#utility.yul\":4649:4668   */\n      swap1\n      pop\n        /* \"#utility.yul\":4639:4674   */\n      swap1\n      jump\t// out\n        /* \"#utility.yul\":4680:4988   */\n    tag_72:\n      0x00\n        /* \"#utility.yul\":4832:4850   */\n      0xffffffffffffffff\n        /* \"#utility.yul\":4824:4830   */\n      dup3\n        /* \"#utility.yul\":4821:4851   */\n      gt\n        /* \"#utility.yul\":4818:4820   */\n      iszero\n      tag_131\n      jumpi\n        /* \"#utility.yul\":4854:4872   */\n      tag_132\n      tag_133\n      jump\t// in\n    tag_132:\n        /* \"#utility.yul\":4818:4820   */\n    tag_131:\n        /* \"#utility.yul\":4892:4921   */\n      tag_134\n        /* \"#utility.yul\":4914:4920   */\n      dup3\n        /* \"#utility.yul\":4892:4921   */\n      tag_94\n      jump\t// in\n    tag_134:\n        /* \"#utility.yul\":4884:4921   */\n      swap1\n      pop\n        /* \"#utility.yul\":4976:4980   */\n      0x20\n        /* \"#utility.yul\":4970:4974   */\n      dup2\n        /* \"#utility.yul\":4966:4981   */\n      add\n        /* \"#utility.yul\":4958:4981   */\n      swap1\n      pop\n        /* \"#utility.yul\":4747:4988   */\n      swap2\n      swap1\n      pop\n      jump\t// out\n        /* \"#utility.yul\":4994:5093   */\n    tag_88:\n      0x00\n        /* \"#utility.yul\":5080:5085   */\n      dup2\n        /* \"#utility.yul\":5074:5086   */\n      mload\n        /* \"#utility.yul\":5064:5086   */\n      swap1\n      pop\n        /* \"#utility.yul\":5053:5093   */\n      swap2\n      swap1\n      pop\n      jump\t// out\n        /* \"#utility.yul\":5099:5268   */\n    tag_90:\n      0x00\n        /* \"#utility.yul\":5217:5223   */\n      dup3\n        /* \"#utility.yul\":5212:5215   */\n      dup3\n        /* \"#utility.yul\":5205:5224   */\n      mstore\n        /* \"#utility.yul\":5257:5261   */\n      0x20\n        /* \"#utility.yul\":5252:5255   */\n      dup3\n        /* \"#utility.yul\":5248:5262   */\n      add\n        /* \"#utility.yul\":5233:5262   */\n      swap1\n      pop\n        /* \"#utility.yul\":5195:5268   */\n      swap3\n      swap2\n      pop\n      pop\n      jump\t// out\n        /* \"#utility.yul\":5274:5351   */\n    tag_113:\n      0x00\n        /* \"#utility.yul\":5340:5345   */\n      dup2\n        /* \"#utility.yul\":5329:5345   */\n      swap1\n      pop\n        /* \"#utility.yul\":5319:5351   */\n      swap2\n      swap1\n      pop\n      jump\t// out\n        /* \"#utility.yul\":5357:5511   */\n    tag_76:\n        /* \"#utility.yul\":5441:5447   */\n      dup3\n        /* \"#utility.yul\":5436:5439   */\n      dup2\n        /* \"#utility.yul\":5431:5434   */\n      dup4\n        /* \"#utility.yul\":5418:5448   */\n      calldatacopy\n        /* \"#utility.yul\":5503:5504   */\n      0x00\n        /* \"#utility.yul\":5494:5500   */\n      dup4\n        /* \"#utility.yul\":5489:5492   */\n      dup4\n        /* \"#utility.yul\":5485:5501   */\n      add\n        /* \"#utility.yul\":5478:5505   */\n      mstore\n        /* \"#utility.yul\":5408:5511   */\n      pop\n      pop\n      pop\n      jump\t// out\n        /* \"#utility.yul\":5517:5824   */\n    tag_92:\n        /* \"#utility.yul\":5585:5586   */\n      0x00\n        /* \"#utility.yul\":5595:5708   */\n    tag_140:\n        /* \"#utility.yul\":5609:5615   */\n      dup4\n        /* \"#utility.yul\":5606:5607   */\n      dup2\n        /* \"#utility.yul\":5603:5616   */\n      lt\n        /* \"#utility.yul\":5595:5708   */\n      iszero\n      tag_142\n      jumpi\n        /* \"#utility.yul\":5694:5695   */\n      dup1\n        /* \"#utility.yul\":5689:5692   */\n      dup3\n        /* \"#utility.yul\":5685:5696   */\n      add\n        /* \"#utility.yul\":5679:5697   */\n      mload\n        /* \"#utility.yul\":5675:5676   */\n      dup2\n        /* \"#utility.yul\":5670:5673   */\n      dup5\n        /* \"#utility.yul\":5666:5677   */\n      add\n        /* \"#utility.yul\":5659:5698   */\n      mstore\n        /* \"#utility.yul\":5631:5633   */\n      0x20\n        /* \"#utility.yul\":5628:5629   */\n      dup2\n        /* \"#utility.yul\":5624:5634   */\n      add\n        /* \"#utility.yul\":5619:5634   */\n      swap1\n      pop\n        /* \"#utility.yul\":5595:5708   */\n      jump(tag_140)\n    tag_142:\n        /* \"#utility.yul\":5726:5732   */\n      dup4\n        /* \"#utility.yul\":5723:5724   */\n      dup2\n        /* \"#utility.yul\":5720:5733   */\n      gt\n        /* \"#utility.yul\":5717:5719   */\n      iszero\n      tag_143\n      jumpi\n        /* \"#utility.yul\":5806:5807   */\n      0x00\n        /* \"#utility.yul\":5797:5803   */\n      dup5\n        /* \"#utility.yul\":5792:5795   */\n      dup5\n        /* \"#utility.yul\":5788:5804   */\n      add\n        /* \"#utility.yul\":5781:5808   */\n      mstore\n        /* \"#utility.yul\":5717:5719   */\n    tag_143:\n        /* \"#utility.yul\":5566:5824   */\n      pop\n      pop\n      pop\n      pop\n      jump\t// out\n        /* \"#utility.yul\":5830:6150   */\n    tag_19:\n      0x00\n        /* \"#utility.yul\":5911:5912   */\n      0x02\n        /* \"#utility.yul\":5905:5909   */\n      dup3\n        /* \"#utility.yul\":5901:5913   */\n      div\n        /* \"#utility.yul\":5891:5913   */\n      swap1\n      pop\n        /* \"#utility.yul\":5958:5959   */\n      0x01\n        /* \"#utility.yul\":5952:5956   */\n      dup3\n        /* \"#utility.yul\":5948:5960   */\n      and\n        /* \"#utility.yul\":5979:5997   */\n      dup1\n        /* \"#utility.yul\":5969:5971   */\n      tag_145\n      jumpi\n        /* \"#utility.yul\":6035:6039   */\n      0x7f\n        /* \"#utility.yul\":6027:6033   */\n      dup3\n        /* \"#utility.yul\":6023:6040   */\n      and\n        /* \"#utility.yul\":6013:6040   */\n      swap2\n      pop\n        /* \"#utility.yul\":5969:5971   */\n    tag_145:\n        /* \"#utility.yul\":6097:6099   */\n      0x20\n        /* \"#utility.yul\":6089:6095   */\n      dup3\n        /* \"#utility.yul\":6086:6100   */\n      lt\n        /* \"#utility.yul\":6066:6084   */\n      dup2\n        /* \"#utility.yul\":6063:6101   */\n      eq\n        /* \"#utility.yul\":6060:6062   */\n      iszero\n      tag_146\n      jumpi\n        /* \"#utility.yul\":6116:6134   */\n      tag_147\n      tag_148\n      jump\t// in\n    tag_147:\n        /* \"#utility.yul\":6060:6062   */\n    tag_146:\n        /* \"#utility.yul\":5881:6150   */\n      pop\n      swap2\n      swap1\n      pop\n      jump\t// out\n        /* \"#utility.yul\":6156:6437   */\n    tag_128:\n        /* \"#utility.yul\":6239:6266   */\n      tag_150\n        /* \"#utility.yul\":6261:6265   */\n      dup3\n        /* \"#utility.yul\":6239:6266   */\n      tag_94\n      jump\t// in\n    tag_150:\n        /* \"#utility.yul\":6231:6237   */\n      dup2\n        /* \"#utility.yul\":6227:6267   */\n      add\n        /* \"#utility.yul\":6369:6375   */\n      dup2\n        /* \"#utility.yul\":6357:6367   */\n      dup2\n        /* \"#utility.yul\":6354:6376   */\n      lt\n        /* \"#utility.yul\":6333:6351   */\n      0xffffffffffffffff\n        /* \"#utility.yul\":6321:6331   */\n      dup3\n        /* \"#utility.yul\":6318:6352   */\n      gt\n        /* \"#utility.yul\":6315:6377   */\n      or\n        /* \"#utility.yul\":6312:6314   */\n      iszero\n      tag_151\n      jumpi\n        /* \"#utility.yul\":6380:6398   */\n      tag_152\n      tag_133\n      jump\t// in\n    tag_152:\n        /* \"#utility.yul\":6312:6314   */\n    tag_151:\n        /* \"#utility.yul\":6420:6430   */\n      dup1\n        /* \"#utility.yul\":6416:6418   */\n      0x40\n        /* \"#utility.yul\":6409:6431   */\n      mstore\n        /* \"#utility.yul\":6199:6437   */\n      pop\n      pop\n      pop\n      jump\t// out\n        /* \"#utility.yul\":6443:6623   */\n    tag_148:\n        /* \"#utility.yul\":6491:6568   */\n      0x4e487b7100000000000000000000000000000000000000000000000000000000\n        /* \"#utility.yul\":6488:6489   */\n      0x00\n        /* \"#utility.yul\":6481:6569   */\n      mstore\n        /* \"#utility.yul\":6588:6592   */\n      0x22\n        /* \"#utility.yul\":6585:6586   */\n      0x04\n        /* \"#utility.yul\":6578:6593   */\n      mstore\n        /* \"#utility.yul\":6612:6616   */\n      0x24\n        /* \"#utility.yul\":6609:6610   */\n      0x00\n        /* \"#utility.yul\":6602:6617   */\n      revert\n        /* \"#utility.yul\":6629:6809   */\n    tag_133:\n        /* \"#utility.yul\":6677:6754   */\n      0x4e487b7100000000000000000000000000000000000000000000000000000000\n        /* \"#utility.yul\":6674:6675   */\n      0x00\n        /* \"#utility.yul\":6667:6755   */\n      mstore\n        /* \"#utility.yul\":6774:6778   */\n      0x41\n        /* \"#utility.yul\":6771:6772   */\n      0x04\n        /* \"#utility.yul\":6764:6779   */\n      mstore\n        /* \"#utility.yul\":6798:6802   */\n      0x24\n        /* \"#utility.yul\":6795:6796   */\n      0x00\n        /* \"#utility.yul\":6788:6803   */\n      revert\n        /* \"#utility.yul\":6815:6917   */\n    tag_94:\n      0x00\n        /* \"#utility.yul\":6907:6909   */\n      0x1f\n        /* \"#utility.yul\":6903:6910   */\n      not\n        /* \"#utility.yul\":6898:6900   */\n      0x1f\n        /* \"#utility.yul\":6891:6896   */\n      dup4\n        /* \"#utility.yul\":6887:6901   */\n      add\n        /* \"#utility.yul\":6883:6911   */\n      and\n        /* \"#utility.yul\":6873:6911   */\n      swap1\n      pop\n        /* \"#utility.yul\":6863:6917   */\n      swap2\n      swap1\n      pop\n      jump\t// out\n        /* \"#utility.yul\":6923:7092   */\n    tag_99:\n        /* \"#utility.yul\":7063:7084   */\n      0x746f6b656e20616c726561647920657869737400000000000000000000000000\n        /* \"#utility.yul\":7059:7060   */\n      0x00\n        /* \"#utility.yul\":7051:7057   */\n      dup3\n        /* \"#utility.yul\":7047:7061   */\n      add\n        /* \"#utility.yul\":7040:7085   */\n      mstore\n        /* \"#utility.yul\":7029:7092   */\n      pop\n      jump\t// out\n        /* \"#utility.yul\":7098:7267   */\n    tag_104:\n        /* \"#utility.yul\":7238:7259   */\n      0x746f6b656e20646f65736e277420657869737400000000000000000000000000\n        /* \"#utility.yul\":7234:7235   */\n      0x00\n        /* \"#utility.yul\":7226:7232   */\n      dup3\n        /* \"#utility.yul\":7222:7236   */\n      add\n        /* \"#utility.yul\":7215:7260   */\n      mstore\n        /* \"#utility.yul\":7204:7267   */\n      pop\n      jump\t// out\n        /* \"#utility.yul\":7273:7447   */\n    tag_109:\n        /* \"#utility.yul\":7413:7439   */\n      0x6d696e7420746f20746865207a65726f20616464726573730000000000000000\n        /* \"#utility.yul\":7409:7410   */\n      0x00\n        /* \"#utility.yul\":7401:7407   */\n      dup3\n        /* \"#utility.yul\":7397:7411   */\n      add\n        /* \"#utility.yul\":7390:7440   */\n      mstore\n        /* \"#utility.yul\":7379:7447   */\n      pop\n      jump\t// out\n\n    auxdata: 0xa26469706673582212209e49f6b7cf089d6f3f09f956dedf93fa6e345139cab817295742fdcd609b76d864736f6c63430008010033\n}\n",
				"bytecode": {
					"linkReferences": {},
					"object": "60806040526040518060400160405280600781526020017f4765656b4e66740000000000000000000000000000000000000000000000000081525060009080519060200190620000519291906200011d565b506040518060400160405280600581526020017f4745454b54000000000000000000000000000000000000000000000000000000815250600190805190602001906200009f9291906200011d565b50348015620000ad57600080fd5b5060405162000f6038038062000f608339818101604052810190620000d3919062000256565b82600360006101000a81548173ffffffffffffffffffffffffffffffffffffffff021916908373ffffffffffffffffffffffffffffffffffffffff1602179055505050506200049c565b8280546200012b90620003a7565b90600052602060002090601f0160209004810192826200014f57600085556200019b565b82601f106200016a57805160ff19168380011785556200019b565b828001600101855582156200019b579182015b828111156200019a5782518255916020019190600101906200017d565b5b509050620001aa9190620001ae565b5090565b5b80821115620001c9576000816000905550600101620001af565b5090565b6000620001e4620001de8462000307565b620002de565b905082815260208101848484011115620001fd57600080fd5b6200020a84828562000371565b509392505050565b600081519050620002238162000482565b92915050565b600082601f8301126200023b57600080fd5b81516200024d848260208601620001cd565b91505092915050565b6000806000606084860312156200026c57600080fd5b60006200027c8682870162000212565b935050602084015167ffffffffffffffff8111156200029a57600080fd5b620002a88682870162000229565b925050604084015167ffffffffffffffff811115620002c657600080fd5b620002d48682870162000229565b9150509250925092565b6000620002ea620002fd565b9050620002f88282620003dd565b919050565b6000604051905090565b600067ffffffffffffffff82111562000325576200032462000442565b5b620003308262000471565b9050602081019050919050565b60006200034a8262000351565b9050919050565b600073ffffffffffffffffffffffffffffffffffffffff82169050919050565b60005b838110156200039157808201518184015260208101905062000374565b83811115620003a1576000848401525b50505050565b60006002820490506001821680620003c057607f821691505b60208210811415620003d757620003d662000413565b5b50919050565b620003e88262000471565b810181811067ffffffffffffffff821117156200040a576200040962000442565b5b80604052505050565b7f4e487b7100000000000000000000000000000000000000000000000000000000600052602260045260246000fd5b7f4e487b7100000000000000000000000000000000000000000000000000000000600052604160045260246000fd5b6000601f19601f8301169050919050565b6200048d816200033d565b81146200049957600080fd5b50565b610ab480620004ac6000396000f3fe608060405234801561001057600080fd5b50600436106100415760003560e01c806306fdde031461004657806395d89b4114610064578063d85d3d2714610082575b600080fd5b61004e61009e565b60405161005b91906107d6565b60405180910390f35b61006c610130565b60405161007991906107d6565b60405180910390f35b61009c600480360381019061009791906106e4565b6101c2565b005b6060600080546100ad90610931565b80601f01602080910402602001604051908101604052809291908181526020018280546100d990610931565b80156101265780601f106100fb57610100808354040283529160200191610126565b820191906000526020600020905b81548152906001019060200180831161010957829003601f168201915b5050505050905090565b60606001805461013f90610931565b80601f016020809104026020016040519081016040528092919081815260200182805461016b90610931565b80156101b85780601f1061018d576101008083540402835291602001916101b8565b820191906000526020600020905b81548152906001019060200180831161019b57829003601f168201915b5050505050905090565b6101cc6002610229565b60006101d8600261023f565b90506101e4338261024d565b6101ee818361050a565b7f7f8949b6eca2b14d0feb1af0844a112998e467a4f88b8683301f3a6e409f32ae8160405161021d9190610858565b60405180910390a15050565b6001816000016000828254019250508190555050565b600081600001549050919050565b600073ffffffffffffffffffffffffffffffffffffffff166007600083815260200190815260200160002060009054906101000a900473ffffffffffffffffffffffffffffffffffffffff1673ffffffffffffffffffffffffffffffffffffffff16146102ef576040517f08c379a00000000000000000000000000000000000000000000000000000000081526004016102e6906107f8565b60405180910390fd5b600073ffffffffffffffffffffffffffffffffffffffff168273ffffffffffffffffffffffffffffffffffffffff161461035e576040517f08c379a000000000000000000000000000000000000000000000000000000000815260040161035590610838565b60405180910390fd5b816005600083815260200190815260200160002060006101000a81548173ffffffffffffffffffffffffffffffffffffffff021916908373ffffffffffffffffffffffffffffffffffffffff160217905550816007600083815260200190815260200160002060006101000a81548173ffffffffffffffffffffffffffffffffffffffff021916908373ffffffffffffffffffffffffffffffffffffffff160217905550600460008373ffffffffffffffffffffffffffffffffffffffff1673ffffffffffffffffffffffffffffffffffffffff16815260200190815260200160002060008154809291906001019190505550600660008373ffffffffffffffffffffffffffffffffffffffff1673ffffffffffffffffffffffffffffffffffffffff168152602001908152602001600020600081548092919060010191905055508173ffffffffffffffffffffffffffffffffffffffff16600073ffffffffffffffffffffffffffffffffffffffff167fddf252ad1be2c89b69c2b068fc378daa952ba7f163c4a11628f55a4df523b3ef836040516104fe9190610858565b60405180910390a35050565b600073ffffffffffffffffffffffffffffffffffffffff166007600084815260200190815260200160002060009054906101000a900473ffffffffffffffffffffffffffffffffffffffff1673ffffffffffffffffffffffffffffffffffffffff1614156105ad576040517f08c379a00000000000000000000000000000000000000000000000000000000081526004016105a490610818565b60405180910390fd5b806008600084815260200190815260200160002090805190602001906105d49291906105d9565b505050565b8280546105e590610931565b90600052602060002090601f016020900481019282610607576000855561064e565b82601f1061062057805160ff191683800117855561064e565b8280016001018555821561064e579182015b8281111561064d578251825591602001919060010190610632565b5b50905061065b919061065f565b5090565b5b80821115610678576000816000905550600101610660565b5090565b600061068f61068a84610898565b610873565b9050828152602081018484840111156106a757600080fd5b6106b28482856108ef565b509392505050565b600082601f8301126106cb57600080fd5b81356106db84826020860161067c565b91505092915050565b6000602082840312156106f657600080fd5b600082013567ffffffffffffffff81111561071057600080fd5b61071c848285016106ba565b91505092915050565b6000610730826108c9565b61073a81856108d4565b935061074a8185602086016108fe565b610753816109f2565b840191505092915050565b600061076b6013836108d4565b915061077682610a03565b602082019050919050565b600061078e6013836108d4565b915061079982610a2c565b602082019050919050565b60006107b16018836108d4565b91506107bc82610a55565b602082019050919050565b6107d0816108e5565b82525050565b600060208201905081810360008301526107f08184610725565b905092915050565b600060208201905081810360008301526108118161075e565b9050919050565b6000602082019050818103600083015261083181610781565b9050919050565b60006020820190508181036000830152610851816107a4565b9050919050565b600060208201905061086d60008301846107c7565b92915050565b600061087d61088e565b90506108898282610963565b919050565b6000604051905090565b600067ffffffffffffffff8211156108b3576108b26109c3565b5b6108bc826109f2565b9050602081019050919050565b600081519050919050565b600082825260208201905092915050565b6000819050919050565b82818337600083830152505050565b60005b8381101561091c578082015181840152602081019050610901565b8381111561092b576000848401525b50505050565b6000600282049050600182168061094957607f821691505b6020821081141561095d5761095c610994565b5b50919050565b61096c826109f2565b810181811067ffffffffffffffff8211171561098b5761098a6109c3565b5b80604052505050565b7f4e487b7100000000000000000000000000000000000000000000000000000000600052602260045260246000fd5b7f4e487b7100000000000000000000000000000000000000000000000000000000600052604160045260246000fd5b6000601f19601f8301169050919050565b7f746f6b656e20616c726561647920657869737400000000000000000000000000600082015250565b7f746f6b656e20646f65736e277420657869737400000000000000000000000000600082015250565b7f6d696e7420746f20746865207a65726f2061646472657373000000000000000060008201525056fea26469706673582212209e49f6b7cf089d6f3f09f956dedf93fa6e345139cab817295742fdcd609b76d864736f6c63430008010033",
					"opcodes": "PUSH1 0x80 PUSH1 0x40 MSTORE PUSH1 0x40 MLOAD DUP1 PUSH1 0x40 ADD PUSH1 0x40 MSTORE DUP1 PUSH1 0x7 DUP2 MSTORE PUSH1 0x20 ADD PUSH32 0x4765656B4E667400000000000000000000000000000000000000000000000000 DUP2 MSTORE POP PUSH1 0x0 SWAP1 DUP1 MLOAD SWAP1 PUSH1 0x20 ADD SWAP1 PUSH3 0x51 SWAP3 SWAP2 SWAP1 PUSH3 0x11D JUMP JUMPDEST POP PUSH1 0x40 MLOAD DUP1 PUSH1 0x40 ADD PUSH1 0x40 MSTORE DUP1 PUSH1 0x5 DUP2 MSTORE PUSH1 0x20 ADD PUSH32 0x4745454B54000000000000000000000000000000000000000000000000000000 DUP2 MSTORE POP PUSH1 0x1 SWAP1 DUP1 MLOAD SWAP1 PUSH1 0x20 ADD SWAP1 PUSH3 0x9F SWAP3 SWAP2 SWAP1 PUSH3 0x11D JUMP JUMPDEST POP CALLVALUE DUP1 ISZERO PUSH3 0xAD JUMPI PUSH1 0x0 DUP1 REVERT JUMPDEST POP PUSH1 0x40 MLOAD PUSH3 0xF60 CODESIZE SUB DUP1 PUSH3 0xF60 DUP4 CODECOPY DUP2 DUP2 ADD PUSH1 0x40 MSTORE DUP2 ADD SWAP1 PUSH3 0xD3 SWAP2 SWAP1 PUSH3 0x256 JUMP JUMPDEST DUP3 PUSH1 0x3 PUSH1 0x0 PUSH2 0x100 EXP DUP2 SLOAD DUP2 PUSH20 0xFFFFFFFFFFFFFFFFFFFFFFFFFFFFFFFFFFFFFFFF MUL NOT AND SWAP1 DUP4 PUSH20 0xFFFFFFFFFFFFFFFFFFFFFFFFFFFFFFFFFFFFFFFF AND MUL OR SWAP1 SSTORE POP POP POP POP PUSH3 0x49C JUMP JUMPDEST DUP3 DUP1 SLOAD PUSH3 0x12B SWAP1 PUSH3 0x3A7 JUMP JUMPDEST SWAP1 PUSH1 0x0 MSTORE PUSH1 0x20 PUSH1 0x0 KECCAK256 SWAP1 PUSH1 0x1F ADD PUSH1 0x20 SWAP1 DIV DUP2 ADD SWAP3 DUP3 PUSH3 0x14F JUMPI PUSH1 0x0 DUP6 SSTORE PUSH3 0x19B JUMP JUMPDEST DUP3 PUSH1 0x1F LT PUSH3 0x16A JUMPI DUP1 MLOAD PUSH1 0xFF NOT AND DUP4 DUP1 ADD OR DUP6 SSTORE PUSH3 0x19B JUMP JUMPDEST DUP3 DUP1 ADD PUSH1 0x1 ADD DUP6 SSTORE DUP3 ISZERO PUSH3 0x19B JUMPI SWAP2 DUP3 ADD JUMPDEST DUP3 DUP2 GT ISZERO PUSH3 0x19A JUMPI DUP3 MLOAD DUP3 SSTORE SWAP2 PUSH1 0x20 ADD SWAP2 SWAP1 PUSH1 0x1 ADD SWAP1 PUSH3 0x17D JUMP JUMPDEST JUMPDEST POP SWAP1 POP PUSH3 0x1AA SWAP2 SWAP1 PUSH3 0x1AE JUMP JUMPDEST POP SWAP1 JUMP JUMPDEST JUMPDEST DUP1 DUP3 GT ISZERO PUSH3 0x1C9 JUMPI PUSH1 0x0 DUP2 PUSH1 0x0 SWAP1 SSTORE POP PUSH1 0x1 ADD PUSH3 0x1AF JUMP JUMPDEST POP SWAP1 JUMP JUMPDEST PUSH1 0x0 PUSH3 0x1E4 PUSH3 0x1DE DUP5 PUSH3 0x307 JUMP JUMPDEST PUSH3 0x2DE JUMP JUMPDEST SWAP1 POP DUP3 DUP2 MSTORE PUSH1 0x20 DUP2 ADD DUP5 DUP5 DUP5 ADD GT ISZERO PUSH3 0x1FD JUMPI PUSH1 0x0 DUP1 REVERT JUMPDEST PUSH3 0x20A DUP5 DUP3 DUP6 PUSH3 0x371 JUMP JUMPDEST POP SWAP4 SWAP3 POP POP POP JUMP JUMPDEST PUSH1 0x0 DUP2 MLOAD SWAP1 POP PUSH3 0x223 DUP2 PUSH3 0x482 JUMP JUMPDEST SWAP3 SWAP2 POP POP JUMP JUMPDEST PUSH1 0x0 DUP3 PUSH1 0x1F DUP4 ADD SLT PUSH3 0x23B JUMPI PUSH1 0x0 DUP1 REVERT JUMPDEST DUP2 MLOAD PUSH3 0x24D DUP5 DUP3 PUSH1 0x20 DUP7 ADD PUSH3 0x1CD JUMP JUMPDEST SWAP2 POP POP SWAP3 SWAP2 POP POP JUMP JUMPDEST PUSH1 0x0 DUP1 PUSH1 0x0 PUSH1 0x60 DUP5 DUP7 SUB SLT ISZERO PUSH3 0x26C JUMPI PUSH1 0x0 DUP1 REVERT JUMPDEST PUSH1 0x0 PUSH3 0x27C DUP7 DUP3 DUP8 ADD PUSH3 0x212 JUMP JUMPDEST SWAP4 POP POP PUSH1 0x20 DUP5 ADD MLOAD PUSH8 0xFFFFFFFFFFFFFFFF DUP2 GT ISZERO PUSH3 0x29A JUMPI PUSH1 0x0 DUP1 REVERT JUMPDEST PUSH3 0x2A8 DUP7 DUP3 DUP8 ADD PUSH3 0x229 JUMP JUMPDEST SWAP3 POP POP PUSH1 0x40 DUP5 ADD MLOAD PUSH8 0xFFFFFFFFFFFFFFFF DUP2 GT ISZERO PUSH3 0x2C6 JUMPI PUSH1 0x0 DUP1 REVERT JUMPDEST PUSH3 0x2D4 DUP7 DUP3 DUP8 ADD PUSH3 0x229 JUMP JUMPDEST SWAP2 POP POP SWAP3 POP SWAP3 POP SWAP3 JUMP JUMPDEST PUSH1 0x0 PUSH3 0x2EA PUSH3 0x2FD JUMP JUMPDEST SWAP1 POP PUSH3 0x2F8 DUP3 DUP3 PUSH3 0x3DD JUMP JUMPDEST SWAP2 SWAP1 POP JUMP JUMPDEST PUSH1 0x0 PUSH1 0x40 MLOAD SWAP1 POP SWAP1 JUMP JUMPDEST PUSH1 0x0 PUSH8 0xFFFFFFFFFFFFFFFF DUP3 GT ISZERO PUSH3 0x325 JUMPI PUSH3 0x324 PUSH3 0x442 JUMP JUMPDEST JUMPDEST PUSH3 0x330 DUP3 PUSH3 0x471 JUMP JUMPDEST SWAP1 POP PUSH1 0x20 DUP2 ADD SWAP1 POP SWAP2 SWAP1 POP JUMP JUMPDEST PUSH1 0x0 PUSH3 0x34A DUP3 PUSH3 0x351 JUMP JUMPDEST SWAP1 POP SWAP2 SWAP1 POP JUMP JUMPDEST PUSH1 0x0 PUSH20 0xFFFFFFFFFFFFFFFFFFFFFFFFFFFFFFFFFFFFFFFF DUP3 AND SWAP1 POP SWAP2 SWAP1 POP JUMP JUMPDEST PUSH1 0x0 JUMPDEST DUP4 DUP2 LT ISZERO PUSH3 0x391 JUMPI DUP1 DUP3 ADD MLOAD DUP2 DUP5 ADD MSTORE PUSH1 0x20 DUP2 ADD SWAP1 POP PUSH3 0x374 JUMP JUMPDEST DUP4 DUP2 GT ISZERO PUSH3 0x3A1 JUMPI PUSH1 0x0 DUP5 DUP5 ADD MSTORE JUMPDEST POP POP POP POP JUMP JUMPDEST PUSH1 0x0 PUSH1 0x2 DUP3 DIV SWAP1 POP PUSH1 0x1 DUP3 AND DUP1 PUSH3 0x3C0 JUMPI PUSH1 0x7F DUP3 AND SWAP2 POP JUMPDEST PUSH1 0x20 DUP3 LT DUP2 EQ ISZERO PUSH3 0x3D7 JUMPI PUSH3 0x3D6 PUSH3 0x413 JUMP JUMPDEST JUMPDEST POP SWAP2 SWAP1 POP JUMP JUMPDEST PUSH3 0x3E8 DUP3 PUSH3 0x471 JUMP JUMPDEST DUP2 ADD DUP2 DUP2 LT PUSH8 0xFFFFFFFFFFFFFFFF DUP3 GT OR ISZERO PUSH3 0x40A JUMPI PUSH3 0x409 PUSH3 0x442 JUMP JUMPDEST JUMPDEST DUP1 PUSH1 0x40 MSTORE POP POP POP JUMP JUMPDEST PUSH32 0x4E487B7100000000000000000000000000000000000000000000000000000000 PUSH1 0x0 MSTORE PUSH1 0x22 PUSH1 0x4 MSTORE PUSH1 0x24 PUSH1 0x0 REVERT JUMPDEST PUSH32 0x4E487B7100000000000000000000000000000000000000000000000000000000 PUSH1 0x0 MSTORE PUSH1 0x41 PUSH1 0x4 MSTORE PUSH1 0x24 PUSH1 0x0 REVERT JUMPDEST PUSH1 0x0 PUSH1 0x1F NOT PUSH1 0x1F DUP4 ADD AND SWAP1 POP SWAP2 SWAP1 POP JUMP JUMPDEST PUSH3 0x48D DUP2 PUSH3 0x33D JUMP JUMPDEST DUP2 EQ PUSH3 0x499 JUMPI PUSH1 0x0 DUP1 REVERT JUMPDEST POP JUMP JUMPDEST PUSH2 0xAB4 DUP1 PUSH3 0x4AC PUSH1 0x0 CODECOPY PUSH1 0x0 RETURN INVALID PUSH1 0x80 PUSH1 0x40 MSTORE CALLVALUE DUP1 ISZERO PUSH2 0x10 JUMPI PUSH1 0x0 DUP1 REVERT JUMPDEST POP PUSH1 0x4 CALLDATASIZE LT PUSH2 0x41 JUMPI PUSH1 0x0 CALLDATALOAD PUSH1 0xE0 SHR DUP1 PUSH4 0x6FDDE03 EQ PUSH2 0x46 JUMPI DUP1 PUSH4 0x95D89B41 EQ PUSH2 0x64 JUMPI DUP1 PUSH4 0xD85D3D27 EQ PUSH2 0x82 JUMPI JUMPDEST PUSH1 0x0 DUP1 REVERT JUMPDEST PUSH2 0x4E PUSH2 0x9E JUMP JUMPDEST PUSH1 0x40 MLOAD PUSH2 0x5B SWAP2 SWAP1 PUSH2 0x7D6 JUMP JUMPDEST PUSH1 0x40 MLOAD DUP1 SWAP2 SUB SWAP1 RETURN JUMPDEST PUSH2 0x6C PUSH2 0x130 JUMP JUMPDEST PUSH1 0x40 MLOAD PUSH2 0x79 SWAP2 SWAP1 PUSH2 0x7D6 JUMP JUMPDEST PUSH1 0x40 MLOAD DUP1 SWAP2 SUB SWAP1 RETURN JUMPDEST PUSH2 0x9C PUSH1 0x4 DUP1 CALLDATASIZE SUB DUP2 ADD SWAP1 PUSH2 0x97 SWAP2 SWAP1 PUSH2 0x6E4 JUMP JUMPDEST PUSH2 0x1C2 JUMP JUMPDEST STOP JUMPDEST PUSH1 0x60 PUSH1 0x0 DUP1 SLOAD PUSH2 0xAD SWAP1 PUSH2 0x931 JUMP JUMPDEST DUP1 PUSH1 0x1F ADD PUSH1 0x20 DUP1 SWAP2 DIV MUL PUSH1 0x20 ADD PUSH1 0x40 MLOAD SWAP1 DUP2 ADD PUSH1 0x40 MSTORE DUP1 SWAP3 SWAP2 SWAP1 DUP2 DUP2 MSTORE PUSH1 0x20 ADD DUP3 DUP1 SLOAD PUSH2 0xD9 SWAP1 PUSH2 0x931 JUMP JUMPDEST DUP1 ISZERO PUSH2 0x126 JUMPI DUP1 PUSH1 0x1F LT PUSH2 0xFB JUMPI PUSH2 0x100 DUP1 DUP4 SLOAD DIV MUL DUP4 MSTORE SWAP2 PUSH1 0x20 ADD SWAP2 PUSH2 0x126 JUMP JUMPDEST DUP3 ADD SWAP2 SWAP1 PUSH1 0x0 MSTORE PUSH1 0x20 PUSH1 0x0 KECCAK256 SWAP1 JUMPDEST DUP2 SLOAD DUP2 MSTORE SWAP1 PUSH1 0x1 ADD SWAP1 PUSH1 0x20 ADD DUP1 DUP4 GT PUSH2 0x109 JUMPI DUP3 SWAP1 SUB PUSH1 0x1F AND DUP3 ADD SWAP2 JUMPDEST POP POP POP POP POP SWAP1 POP SWAP1 JUMP JUMPDEST PUSH1 0x60 PUSH1 0x1 DUP1 SLOAD PUSH2 0x13F SWAP1 PUSH2 0x931 JUMP JUMPDEST DUP1 PUSH1 0x1F ADD PUSH1 0x20 DUP1 SWAP2 DIV MUL PUSH1 0x20 ADD PUSH1 0x40 MLOAD SWAP1 DUP2 ADD PUSH1 0x40 MSTORE DUP1 SWAP3 SWAP2 SWAP1 DUP2 DUP2 MSTORE PUSH1 0x20 ADD DUP3 DUP1 SLOAD PUSH2 0x16B SWAP1 PUSH2 0x931 JUMP JUMPDEST DUP1 ISZERO PUSH2 0x1B8 JUMPI DUP1 PUSH1 0x1F LT PUSH2 0x18D JUMPI PUSH2 0x100 DUP1 DUP4 SLOAD DIV MUL DUP4 MSTORE SWAP2 PUSH1 0x20 ADD SWAP2 PUSH2 0x1B8 JUMP JUMPDEST DUP3 ADD SWAP2 SWAP1 PUSH1 0x0 MSTORE PUSH1 0x20 PUSH1 0x0 KECCAK256 SWAP1 JUMPDEST DUP2 SLOAD DUP2 MSTORE SWAP1 PUSH1 0x1 ADD SWAP1 PUSH1 0x20 ADD DUP1 DUP4 GT PUSH2 0x19B JUMPI DUP3 SWAP1 SUB PUSH1 0x1F AND DUP3 ADD SWAP2 JUMPDEST POP POP POP POP POP SWAP1 POP SWAP1 JUMP JUMPDEST PUSH2 0x1CC PUSH1 0x2 PUSH2 0x229 JUMP JUMPDEST PUSH1 0x0 PUSH2 0x1D8 PUSH1 0x2 PUSH2 0x23F JUMP JUMPDEST SWAP1 POP PUSH2 0x1E4 CALLER DUP3 PUSH2 0x24D JUMP JUMPDEST PUSH2 0x1EE DUP2 DUP4 PUSH2 0x50A JUMP JUMPDEST PUSH32 0x7F8949B6ECA2B14D0FEB1AF0844A112998E467A4F88B8683301F3A6E409F32AE DUP2 PUSH1 0x40 MLOAD PUSH2 0x21D SWAP2 SWAP1 PUSH2 0x858 JUMP JUMPDEST PUSH1 0x40 MLOAD DUP1 SWAP2 SUB SWAP1 LOG1 POP POP JUMP JUMPDEST PUSH1 0x1 DUP2 PUSH1 0x0 ADD PUSH1 0x0 DUP3 DUP3 SLOAD ADD SWAP3 POP POP DUP2 SWAP1 SSTORE POP POP JUMP JUMPDEST PUSH1 0x0 DUP2 PUSH1 0x0 ADD SLOAD SWAP1 POP SWAP2 SWAP1 POP JUMP JUMPDEST PUSH1 0x0 PUSH20 0xFFFFFFFFFFFFFFFFFFFFFFFFFFFFFFFFFFFFFFFF AND PUSH1 0x7 PUSH1 0x0 DUP4 DUP2 MSTORE PUSH1 0x20 ADD SWAP1 DUP2 MSTORE PUSH1 0x20 ADD PUSH1 0x0 KECCAK256 PUSH1 0x0 SWAP1 SLOAD SWAP1 PUSH2 0x100 EXP SWAP1 DIV PUSH20 0xFFFFFFFFFFFFFFFFFFFFFFFFFFFFFFFFFFFFFFFF AND PUSH20 0xFFFFFFFFFFFFFFFFFFFFFFFFFFFFFFFFFFFFFFFF AND EQ PUSH2 0x2EF JUMPI PUSH1 0x40 MLOAD PUSH32 0x8C379A000000000000000000000000000000000000000000000000000000000 DUP2 MSTORE PUSH1 0x4 ADD PUSH2 0x2E6 SWAP1 PUSH2 0x7F8 JUMP JUMPDEST PUSH1 0x40 MLOAD DUP1 SWAP2 SUB SWAP1 REVERT JUMPDEST PUSH1 0x0 PUSH20 0xFFFFFFFFFFFFFFFFFFFFFFFFFFFFFFFFFFFFFFFF AND DUP3 PUSH20 0xFFFFFFFFFFFFFFFFFFFFFFFFFFFFFFFFFFFFFFFF AND EQ PUSH2 0x35E JUMPI PUSH1 0x40 MLOAD PUSH32 0x8C379A000000000000000000000000000000000000000000000000000000000 DUP2 MSTORE PUSH1 0x4 ADD PUSH2 0x355 SWAP1 PUSH2 0x838 JUMP JUMPDEST PUSH1 0x40 MLOAD DUP1 SWAP2 SUB SWAP1 REVERT JUMPDEST DUP2 PUSH1 0x5 PUSH1 0x0 DUP4 DUP2 MSTORE PUSH1 0x20 ADD SWAP1 DUP2 MSTORE PUSH1 0x20 ADD PUSH1 0x0 KECCAK256 PUSH1 0x0 PUSH2 0x100 EXP DUP2 SLOAD DUP2 PUSH20 0xFFFFFFFFFFFFFFFFFFFFFFFFFFFFFFFFFFFFFFFF MUL NOT AND SWAP1 DUP4 PUSH20 0xFFFFFFFFFFFFFFFFFFFFFFFFFFFFFFFFFFFFFFFF AND MUL OR SWAP1 SSTORE POP DUP2 PUSH1 0x7 PUSH1 0x0 DUP4 DUP2 MSTORE PUSH1 0x20 ADD SWAP1 DUP2 MSTORE PUSH1 0x20 ADD PUSH1 0x0 KECCAK256 PUSH1 0x0 PUSH2 0x100 EXP DUP2 SLOAD DUP2 PUSH20 0xFFFFFFFFFFFFFFFFFFFFFFFFFFFFFFFFFFFFFFFF MUL NOT AND SWAP1 DUP4 PUSH20 0xFFFFFFFFFFFFFFFFFFFFFFFFFFFFFFFFFFFFFFFF AND MUL OR SWAP1 SSTORE POP PUSH1 0x4 PUSH1 0x0 DUP4 PUSH20 0xFFFFFFFFFFFFFFFFFFFFFFFFFFFFFFFFFFFFFFFF AND PUSH20 0xFFFFFFFFFFFFFFFFFFFFFFFFFFFFFFFFFFFFFFFF AND DUP2 MSTORE PUSH1 0x20 ADD SWAP1 DUP2 MSTORE PUSH1 0x20 ADD PUSH1 0x0 KECCAK256 PUSH1 0x0 DUP2 SLOAD DUP1 SWAP3 SWAP2 SWAP1 PUSH1 0x1 ADD SWAP2 SWAP1 POP SSTORE POP PUSH1 0x6 PUSH1 0x0 DUP4 PUSH20 0xFFFFFFFFFFFFFFFFFFFFFFFFFFFFFFFFFFFFFFFF AND PUSH20 0xFFFFFFFFFFFFFFFFFFFFFFFFFFFFFFFFFFFFFFFF AND DUP2 MSTORE PUSH1 0x20 ADD SWAP1 DUP2 MSTORE PUSH1 0x20 ADD PUSH1 0x0 KECCAK256 PUSH1 0x0 DUP2 SLOAD DUP1 SWAP3 SWAP2 SWAP1 PUSH1 0x1 ADD SWAP2 SWAP1 POP SSTORE POP DUP2 PUSH20 0xFFFFFFFFFFFFFFFFFFFFFFFFFFFFFFFFFFFFFFFF AND PUSH1 0x0 PUSH20 0xFFFFFFFFFFFFFFFFFFFFFFFFFFFFFFFFFFFFFFFF AND PUSH32 0xDDF252AD1BE2C89B69C2B068FC378DAA952BA7F163C4A11628F55A4DF523B3EF DUP4 PUSH1 0x40 MLOAD PUSH2 0x4FE SWAP2 SWAP1 PUSH2 0x858 JUMP JUMPDEST PUSH1 0x40 MLOAD DUP1 SWAP2 SUB SWAP1 LOG3 POP POP JUMP JUMPDEST PUSH1 0x0 PUSH20 0xFFFFFFFFFFFFFFFFFFFFFFFFFFFFFFFFFFFFFFFF AND PUSH1 0x7 PUSH1 0x0 DUP5 DUP2 MSTORE PUSH1 0x20 ADD SWAP1 DUP2 MSTORE PUSH1 0x20 ADD PUSH1 0x0 KECCAK256 PUSH1 0x0 SWAP1 SLOAD SWAP1 PUSH2 0x100 EXP SWAP1 DIV PUSH20 0xFFFFFFFFFFFFFFFFFFFFFFFFFFFFFFFFFFFFFFFF AND PUSH20 0xFFFFFFFFFFFFFFFFFFFFFFFFFFFFFFFFFFFFFFFF AND EQ ISZERO PUSH2 0x5AD JUMPI PUSH1 0x40 MLOAD PUSH32 0x8C379A000000000000000000000000000000000000000000000000000000000 DUP2 MSTORE PUSH1 0x4 ADD PUSH2 0x5A4 SWAP1 PUSH2 0x818 JUMP JUMPDEST PUSH1 0x40 MLOAD DUP1 SWAP2 SUB SWAP1 REVERT JUMPDEST DUP1 PUSH1 0x8 PUSH1 0x0 DUP5 DUP2 MSTORE PUSH1 0x20 ADD SWAP1 DUP2 MSTORE PUSH1 0x20 ADD PUSH1 0x0 KECCAK256 SWAP1 DUP1 MLOAD SWAP1 PUSH1 0x20 ADD SWAP1 PUSH2 0x5D4 SWAP3 SWAP2 SWAP1 PUSH2 0x5D9 JUMP JUMPDEST POP POP POP JUMP JUMPDEST DUP3 DUP1 SLOAD PUSH2 0x5E5 SWAP1 PUSH2 0x931 JUMP JUMPDEST SWAP1 PUSH1 0x0 MSTORE PUSH1 0x20 PUSH1 0x0 KECCAK256 SWAP1 PUSH1 0x1F ADD PUSH1 0x20 SWAP1 DIV DUP2 ADD SWAP3 DUP3 PUSH2 0x607 JUMPI PUSH1 0x0 DUP6 SSTORE PUSH2 0x64E JUMP JUMPDEST DUP3 PUSH1 0x1F LT PUSH2 0x620 JUMPI DUP1 MLOAD PUSH1 0xFF NOT AND DUP4 DUP1 ADD OR DUP6 SSTORE PUSH2 0x64E JUMP JUMPDEST DUP3 DUP1 ADD PUSH1 0x1 ADD DUP6 SSTORE DUP3 ISZERO PUSH2 0x64E JUMPI SWAP2 DUP3 ADD JUMPDEST DUP3 DUP2 GT ISZERO PUSH2 0x64D JUMPI DUP3 MLOAD DUP3 SSTORE SWAP2 PUSH1 0x20 ADD SWAP2 SWAP1 PUSH1 0x1 ADD SWAP1 PUSH2 0x632 JUMP JUMPDEST JUMPDEST POP SWAP1 POP PUSH2 0x65B SWAP2 SWAP1 PUSH2 0x65F JUMP JUMPDEST POP SWAP1 JUMP JUMPDEST JUMPDEST DUP1 DUP3 GT ISZERO PUSH2 0x678 JUMPI PUSH1 0x0 DUP2 PUSH1 0x0 SWAP1 SSTORE POP PUSH1 0x1 ADD PUSH2 0x660 JUMP JUMPDEST POP SWAP1 JUMP JUMPDEST PUSH1 0x0 PUSH2 0x68F PUSH2 0x68A DUP5 PUSH2 0x898 JUMP JUMPDEST PUSH2 0x873 JUMP JUMPDEST SWAP1 POP DUP3 DUP2 MSTORE PUSH1 0x20 DUP2 ADD DUP5 DUP5 DUP5 ADD GT ISZERO PUSH2 0x6A7 JUMPI PUSH1 0x0 DUP1 REVERT JUMPDEST PUSH2 0x6B2 DUP5 DUP3 DUP6 PUSH2 0x8EF JUMP JUMPDEST POP SWAP4 SWAP3 POP POP POP JUMP JUMPDEST PUSH1 0x0 DUP3 PUSH1 0x1F DUP4 ADD SLT PUSH2 0x6CB JUMPI PUSH1 0x0 DUP1 REVERT JUMPDEST DUP2 CALLDATALOAD PUSH2 0x6DB DUP5 DUP3 PUSH1 0x20 DUP7 ADD PUSH2 0x67C JUMP JUMPDEST SWAP2 POP POP SWAP3 SWAP2 POP POP JUMP JUMPDEST PUSH1 0x0 PUSH1 0x20 DUP3 DUP5 SUB SLT ISZERO PUSH2 0x6F6 JUMPI PUSH1 0x0 DUP1 REVERT JUMPDEST PUSH1 0x0 DUP3 ADD CALLDATALOAD PUSH8 0xFFFFFFFFFFFFFFFF DUP2 GT ISZERO PUSH2 0x710 JUMPI PUSH1 0x0 DUP1 REVERT JUMPDEST PUSH2 0x71C DUP5 DUP3 DUP6 ADD PUSH2 0x6BA JUMP JUMPDEST SWAP2 POP POP SWAP3 SWAP2 POP POP JUMP JUMPDEST PUSH1 0x0 PUSH2 0x730 DUP3 PUSH2 0x8C9 JUMP JUMPDEST PUSH2 0x73A DUP2 DUP6 PUSH2 0x8D4 JUMP JUMPDEST SWAP4 POP PUSH2 0x74A DUP2 DUP6 PUSH1 0x20 DUP7 ADD PUSH2 0x8FE JUMP JUMPDEST PUSH2 0x753 DUP2 PUSH2 0x9F2 JUMP JUMPDEST DUP5 ADD SWAP2 POP POP SWAP3 SWAP2 POP POP JUMP JUMPDEST PUSH1 0x0 PUSH2 0x76B PUSH1 0x13 DUP4 PUSH2 0x8D4 JUMP JUMPDEST SWAP2 POP PUSH2 0x776 DUP3 PUSH2 0xA03 JUMP JUMPDEST PUSH1 0x20 DUP3 ADD SWAP1 POP SWAP2 SWAP1 POP JUMP JUMPDEST PUSH1 0x0 PUSH2 0x78E PUSH1 0x13 DUP4 PUSH2 0x8D4 JUMP JUMPDEST SWAP2 POP PUSH2 0x799 DUP3 PUSH2 0xA2C JUMP JUMPDEST PUSH1 0x20 DUP3 ADD SWAP1 POP SWAP2 SWAP1 POP JUMP JUMPDEST PUSH1 0x0 PUSH2 0x7B1 PUSH1 0x18 DUP4 PUSH2 0x8D4 JUMP JUMPDEST SWAP2 POP PUSH2 0x7BC DUP3 PUSH2 0xA55 JUMP JUMPDEST PUSH1 0x20 DUP3 ADD SWAP1 POP SWAP2 SWAP1 POP JUMP JUMPDEST PUSH2 0x7D0 DUP2 PUSH2 0x8E5 JUMP JUMPDEST DUP3 MSTORE POP POP JUMP JUMPDEST PUSH1 0x0 PUSH1 0x20 DUP3 ADD SWAP1 POP DUP2 DUP2 SUB PUSH1 0x0 DUP4 ADD MSTORE PUSH2 0x7F0 DUP2 DUP5 PUSH2 0x725 JUMP JUMPDEST SWAP1 POP SWAP3 SWAP2 POP POP JUMP JUMPDEST PUSH1 0x0 PUSH1 0x20 DUP3 ADD SWAP1 POP DUP2 DUP2 SUB PUSH1 0x0 DUP4 ADD MSTORE PUSH2 0x811 DUP2 PUSH2 0x75E JUMP JUMPDEST SWAP1 POP SWAP2 SWAP1 POP JUMP JUMPDEST PUSH1 0x0 PUSH1 0x20 DUP3 ADD SWAP1 POP DUP2 DUP2 SUB PUSH1 0x0 DUP4 ADD MSTORE PUSH2 0x831 DUP2 PUSH2 0x781 JUMP JUMPDEST SWAP1 POP SWAP2 SWAP1 POP JUMP JUMPDEST PUSH1 0x0 PUSH1 0x20 DUP3 ADD SWAP1 POP DUP2 DUP2 SUB PUSH1 0x0 DUP4 ADD MSTORE PUSH2 0x851 DUP2 PUSH2 0x7A4 JUMP JUMPDEST SWAP1 POP SWAP2 SWAP1 POP JUMP JUMPDEST PUSH1 0x0 PUSH1 0x20 DUP3 ADD SWAP1 POP PUSH2 0x86D PUSH1 0x0 DUP4 ADD DUP5 PUSH2 0x7C7 JUMP JUMPDEST SWAP3 SWAP2 POP POP JUMP JUMPDEST PUSH1 0x0 PUSH2 0x87D PUSH2 0x88E JUMP JUMPDEST SWAP1 POP PUSH2 0x889 DUP3 DUP3 PUSH2 0x963 JUMP JUMPDEST SWAP2 SWAP1 POP JUMP JUMPDEST PUSH1 0x0 PUSH1 0x40 MLOAD SWAP1 POP SWAP1 JUMP JUMPDEST PUSH1 0x0 PUSH8 0xFFFFFFFFFFFFFFFF DUP3 GT ISZERO PUSH2 0x8B3 JUMPI PUSH2 0x8B2 PUSH2 0x9C3 JUMP JUMPDEST JUMPDEST PUSH2 0x8BC DUP3 PUSH2 0x9F2 JUMP JUMPDEST SWAP1 POP PUSH1 0x20 DUP2 ADD SWAP1 POP SWAP2 SWAP1 POP JUMP JUMPDEST PUSH1 0x0 DUP2 MLOAD SWAP1 POP SWAP2 SWAP1 POP JUMP JUMPDEST PUSH1 0x0 DUP3 DUP3 MSTORE PUSH1 0x20 DUP3 ADD SWAP1 POP SWAP3 SWAP2 POP POP JUMP JUMPDEST PUSH1 0x0 DUP2 SWAP1 POP SWAP2 SWAP1 POP JUMP JUMPDEST DUP3 DUP2 DUP4 CALLDATACOPY PUSH1 0x0 DUP4 DUP4 ADD MSTORE POP POP POP JUMP JUMPDEST PUSH1 0x0 JUMPDEST DUP4 DUP2 LT ISZERO PUSH2 0x91C JUMPI DUP1 DUP3 ADD MLOAD DUP2 DUP5 ADD MSTORE PUSH1 0x20 DUP2 ADD SWAP1 POP PUSH2 0x901 JUMP JUMPDEST DUP4 DUP2 GT ISZERO PUSH2 0x92B JUMPI PUSH1 0x0 DUP5 DUP5 ADD MSTORE JUMPDEST POP POP POP POP JUMP JUMPDEST PUSH1 0x0 PUSH1 0x2 DUP3 DIV SWAP1 POP PUSH1 0x1 DUP3 AND DUP1 PUSH2 0x949 JUMPI PUSH1 0x7F DUP3 AND SWAP2 POP JUMPDEST PUSH1 0x20 DUP3 LT DUP2 EQ ISZERO PUSH2 0x95D JUMPI PUSH2 0x95C PUSH2 0x994 JUMP JUMPDEST JUMPDEST POP SWAP2 SWAP1 POP JUMP JUMPDEST PUSH2 0x96C DUP3 PUSH2 0x9F2 JUMP JUMPDEST DUP2 ADD DUP2 DUP2 LT PUSH8 0xFFFFFFFFFFFFFFFF DUP3 GT OR ISZERO PUSH2 0x98B JUMPI PUSH2 0x98A PUSH2 0x9C3 JUMP JUMPDEST JUMPDEST DUP1 PUSH1 0x40 MSTORE POP POP POP JUMP JUMPDEST PUSH32 0x4E487B7100000000000000000000000000000000000000000000000000000000 PUSH1 0x0 MSTORE PUSH1 0x22 PUSH1 0x4 MSTORE PUSH1 0x24 PUSH1 0x0 REVERT JUMPDEST PUSH32 0x4E487B7100000000000000000000000000000000000000000000000000000000 PUSH1 0x0 MSTORE PUSH1 0x41 PUSH1 0x4 MSTORE PUSH1 0x24 PUSH1 0x0 REVERT JUMPDEST PUSH1 0x0 PUSH1 0x1F NOT PUSH1 0x1F DUP4 ADD AND SWAP1 POP SWAP2 SWAP1 POP JUMP JUMPDEST PUSH32 0x746F6B656E20616C726561647920657869737400000000000000000000000000 PUSH1 0x0 DUP3 ADD MSTORE POP JUMP JUMPDEST PUSH32 0x746F6B656E20646F65736E277420657869737400000000000000000000000000 PUSH1 0x0 DUP3 ADD MSTORE POP JUMP JUMPDEST PUSH32 0x6D696E7420746F20746865207A65726F20616464726573730000000000000000 PUSH1 0x0 DUP3 ADD MSTORE POP JUMP INVALID LOG2 PUSH5 0x6970667358 0x22 SLT KECCAK256 SWAP15 0x49 0xF6 0xB7 0xCF ADDMOD SWAP14 PUSH16 0x3F09F956DEDF93FA6E345139CAB81729 JUMPI TIMESTAMP REVERT 0xCD PUSH1 0x9B PUSH23 0xD864736F6C634300080100330000000000000000000000 "
				},
				"gasEstimates": {
					"creation": {
						"codeDepositCost": "548000",
						"executionCost": "infinite",
						"totalCost": "infinite"
					},
					"external": {
						"mint(string)": "infinite",
						"name()": "infinite",
						"symbol()": "infinite"
					},
					"internal": {
						"_safeMint(address,uint256)": "infinite",
						"_setTokenUri(uint256,string memory)": "infinite"
					}
				},
				"methodIdentifiers": {
					"mint(string)": "d85d3d27",
					"name()": "06fdde03",
					"symbol()": "95d89b41"
				}
			},
			"storageLayout": {
				"storage": [
					{
						"astId": 83,
						"contract": "contracts/GeekNft.sol:GeekNft",
						"label": "_name",
						"offset": 0,
						"slot": "0",
						"type": "t_string_storage"
					},
					{
						"astId": 86,
						"contract": "contracts/GeekNft.sol:GeekNft",
						"label": "_symbol",
						"offset": 0,
						"slot": "1",
						"type": "t_string_storage"
					},
					{
						"astId": 89,
						"contract": "contracts/GeekNft.sol:GeekNft",
						"label": "tokenIds",
						"offset": 0,
						"slot": "2",
						"type": "t_struct(Counter)5_storage"
					},
					{
						"astId": 91,
						"contract": "contracts/GeekNft.sol:GeekNft",
						"label": "marketplaceAddress",
						"offset": 0,
						"slot": "3",
						"type": "t_address"
					},
					{
						"astId": 95,
						"contract": "contracts/GeekNft.sol:GeekNft",
						"label": "tokensOwnerCount",
						"offset": 0,
						"slot": "4",
						"type": "t_mapping(t_address,t_uint256)"
					},
					{
						"astId": 99,
						"contract": "contracts/GeekNft.sol:GeekNft",
						"label": "tokenToOwner",
						"offset": 0,
						"slot": "5",
						"type": "t_mapping(t_uint256,t_address)"
					},
					{
						"astId": 103,
						"contract": "contracts/GeekNft.sol:GeekNft",
						"label": "tokensCreatorCount",
						"offset": 0,
						"slot": "6",
						"type": "t_mapping(t_address,t_uint256)"
					},
					{
						"astId": 107,
						"contract": "contracts/GeekNft.sol:GeekNft",
						"label": "tokenToCreator",
						"offset": 0,
						"slot": "7",
						"type": "t_mapping(t_uint256,t_address)"
					},
					{
						"astId": 111,
						"contract": "contracts/GeekNft.sol:GeekNft",
						"label": "tokenToUri",
						"offset": 0,
						"slot": "8",
						"type": "t_mapping(t_uint256,t_string_storage)"
					}
				],
				"types": {
					"t_address": {
						"encoding": "inplace",
						"label": "address",
						"numberOfBytes": "20"
					},
					"t_mapping(t_address,t_uint256)": {
						"encoding": "mapping",
						"key": "t_address",
						"label": "mapping(address => uint256)",
						"numberOfBytes": "32",
						"value": "t_uint256"
					},
					"t_mapping(t_uint256,t_address)": {
						"encoding": "mapping",
						"key": "t_uint256",
						"label": "mapping(uint256 => address)",
						"numberOfBytes": "32",
						"value": "t_address"
					},
					"t_mapping(t_uint256,t_string_storage)": {
						"encoding": "mapping",
						"key": "t_uint256",
						"label": "mapping(uint256 => string)",
						"numberOfBytes": "32",
						"value": "t_string_storage"
					},
					"t_string_storage": {
						"encoding": "bytes",
						"label": "string",
						"numberOfBytes": "32"
					},
					"t_struct(Counter)5_storage": {
						"encoding": "inplace",
						"label": "struct Counters.Counter",
						"members": [
							{
								"astId": 4,
								"contract": "contracts/GeekNft.sol:GeekNft",
								"label": "_value",
								"offset": 0,
								"slot": "0",
								"type": "t_uint256"
							}
						],
						"numberOfBytes": "32"
					},
					"t_uint256": {
						"encoding": "inplace",
						"label": "uint256",
						"numberOfBytes": "32"
					}
				}
			},
			"userdoc": {
				"kind": "user",
				"methods": {},
				"version": 1
			}
		}
	}
}