{
	"contracts/GeekNftMarketPlace.sol": {
		"GeekNftMarketPlace": {
			"abi": [
				{
					"inputs": [],
					"stateMutability": "nonpayable",
					"type": "constructor"
				},
				{
					"anonymous": false,
					"inputs": [
						{
							"indexed": false,
							"internalType": "address",
							"name": "nftContract",
							"type": "address"
						},
						{
							"indexed": false,
							"internalType": "uint256",
							"name": "tokenId",
							"type": "uint256"
						},
						{
							"indexed": true,
							"internalType": "address",
							"name": "seller",
							"type": "address"
						},
						{
							"indexed": true,
							"internalType": "address",
							"name": "owner",
							"type": "address"
						},
						{
							"indexed": false,
							"internalType": "uint256",
							"name": "price",
							"type": "uint256"
						}
					],
					"name": "NFTListed",
					"type": "event"
				},
				{
					"anonymous": false,
					"inputs": [
						{
							"indexed": false,
							"internalType": "address",
							"name": "nftContract",
							"type": "address"
						},
						{
							"indexed": false,
							"internalType": "uint256",
							"name": "tokenId",
							"type": "uint256"
						},
						{
							"indexed": true,
							"internalType": "address",
							"name": "seller",
							"type": "address"
						},
						{
							"indexed": true,
							"internalType": "address",
							"name": "owner",
							"type": "address"
						},
						{
							"indexed": false,
							"internalType": "uint256",
							"name": "price",
							"type": "uint256"
						}
					],
					"name": "NFTSold",
					"type": "event"
				},
				{
					"inputs": [],
					"name": "LISTING_FEE",
					"outputs": [
						{
							"internalType": "uint256",
							"name": "",
							"type": "uint256"
						}
					],
					"stateMutability": "view",
					"type": "function"
				},
				{
					"inputs": [
						{
							"internalType": "address",
							"name": "_nftContract",
							"type": "address"
						},
						{
							"internalType": "uint256",
							"name": "_tokenId",
							"type": "uint256"
						}
					],
					"name": "buyNft",
					"outputs": [],
					"stateMutability": "payable",
					"type": "function"
				},
				{
					"inputs": [],
					"name": "getListingFee",
					"outputs": [
						{
							"internalType": "uint256",
							"name": "",
							"type": "uint256"
						}
					],
					"stateMutability": "view",
					"type": "function"
				},
				{
					"inputs": [],
					"name": "getMyCreatedNfts",
					"outputs": [
						{
							"components": [
								{
									"internalType": "address",
									"name": "nftContract",
									"type": "address"
								},
								{
									"internalType": "uint256",
									"name": "tokenId",
									"type": "uint256"
								},
								{
									"internalType": "uint256",
									"name": "price",
									"type": "uint256"
								},
								{
									"internalType": "address payable",
									"name": "seller",
									"type": "address"
								},
								{
									"internalType": "address payable",
									"name": "owner",
									"type": "address"
								},
								{
									"internalType": "address payable",
									"name": "creator",
									"type": "address"
								},
								{
									"internalType": "bool",
									"name": "listed",
									"type": "bool"
								}
							],
							"internalType": "struct GeekNftMarketPlace.NFT[]",
							"name": "",
							"type": "tuple[]"
						}
					],
					"stateMutability": "view",
					"type": "function"
				},
				{
					"inputs": [],
					"name": "getMyOwnedNfts",
					"outputs": [
						{
							"components": [
								{
									"internalType": "address",
									"name": "nftContract",
									"type": "address"
								},
								{
									"internalType": "uint256",
									"name": "tokenId",
									"type": "uint256"
								},
								{
									"internalType": "uint256",
									"name": "price",
									"type": "uint256"
								},
								{
									"internalType": "address payable",
									"name": "seller",
									"type": "address"
								},
								{
									"internalType": "address payable",
									"name": "owner",
									"type": "address"
								},
								{
									"internalType": "address payable",
									"name": "creator",
									"type": "address"
								},
								{
									"internalType": "bool",
									"name": "listed",
									"type": "bool"
								}
							],
							"internalType": "struct GeekNftMarketPlace.NFT[]",
							"name": "",
							"type": "tuple[]"
						}
					],
					"stateMutability": "view",
					"type": "function"
				},
				{
					"inputs": [
						{
							"internalType": "address",
							"name": "_nftContract",
							"type": "address"
						},
						{
							"internalType": "uint256",
							"name": "_tokenId",
							"type": "uint256"
						},
						{
							"internalType": "uint256",
							"name": "_price",
							"type": "uint256"
						}
					],
					"name": "listNFT",
					"outputs": [],
					"stateMutability": "payable",
					"type": "function"
				},
				{
					"inputs": [
						{
							"internalType": "address",
							"name": "_nftContract",
							"type": "address"
						},
						{
							"internalType": "uint256",
							"name": "_tokenId",
							"type": "uint256"
						},
						{
							"internalType": "uint256",
							"name": "_price",
							"type": "uint256"
						}
					],
					"name": "resellNFT",
					"outputs": [],
					"stateMutability": "payable",
					"type": "function"
				}
			],
			"devdoc": {
				"kind": "dev",
				"methods": {},
				"version": 1
			},
			"evm": {
				"assembly": "    /* \"contracts/GeekNftMarketPlace.sol\":252:4510  contract GeekNftMarketPlace is ReentrancyGuard {... */\n  mstore(0x40, 0x80)\n    /* \"contracts/GeekNftMarketPlace.sol\":455:466  0.002 ether */\n  0x071afd498d0000\n    /* \"contracts/GeekNftMarketPlace.sol\":429:466  uint public LISTING_FEE = 0.002 ether */\n  0x03\n  sstore\n    /* \"contracts/GeekNftMarketPlace.sol\":1001:1067  constructor() {... */\n  callvalue\n  dup1\n  iszero\n  tag_1\n  jumpi\n  0x00\n  dup1\n  revert\ntag_1:\n  pop\n    /* \"contracts/RenntrancyGuard.sol\":127:128  1 */\n  0x01\n    /* \"contracts/RenntrancyGuard.sol\":232:239  _status */\n  0x00\n    /* \"contracts/RenntrancyGuard.sol\":232:254  _status = _NOT_ENTERED */\n  dup2\n  swap1\n  sstore\n  pop\n    /* \"contracts/GeekNftMarketPlace.sol\":1049:1059  msg.sender */\n  caller\n    /* \"contracts/GeekNftMarketPlace.sol\":1025:1038  _marketOwwner */\n  0x04\n  0x00\n    /* \"contracts/GeekNftMarketPlace.sol\":1025:1060  _marketOwwner = payable(msg.sender) */\n  0x0100\n  exp\n  dup2\n  sload\n  dup2\n  0xffffffffffffffffffffffffffffffffffffffff\n  mul\n  not\n  and\n  swap1\n  dup4\n  0xffffffffffffffffffffffffffffffffffffffff\n  and\n  mul\n  or\n  swap1\n  sstore\n  pop\n    /* \"contracts/GeekNftMarketPlace.sol\":252:4510  contract GeekNftMarketPlace is ReentrancyGuard {... */\n  dataSize(sub_0)\n  dup1\n  dataOffset(sub_0)\n  0x00\n  codecopy\n  0x00\n  return\nstop\n\nsub_0: assembly {\n        /* \"contracts/GeekNftMarketPlace.sol\":252:4510  contract GeekNftMarketPlace is ReentrancyGuard {... */\n      mstore(0x40, 0x80)\n      jumpi(tag_1, lt(calldatasize, 0x04))\n      shr(0xe0, calldataload(0x00))\n      dup1\n      0x8492095a\n      gt\n      tag_9\n      jumpi\n      dup1\n      0x8492095a\n      eq\n      tag_5\n      jumpi\n      dup1\n      0xa46b5c5a\n      eq\n      tag_6\n      jumpi\n      dup1\n      0xad05f1b4\n      eq\n      tag_7\n      jumpi\n      dup1\n      0xb8fe6abe\n      eq\n      tag_8\n      jumpi\n      jump(tag_1)\n    tag_9:\n      dup1\n      0x04935694\n      eq\n      tag_2\n      jumpi\n      dup1\n      0x2b86ae38\n      eq\n      tag_3\n      jumpi\n      dup1\n      0x4ddf4f8f\n      eq\n      tag_4\n      jumpi\n    tag_1:\n      0x00\n      dup1\n      revert\n        /* \"contracts/GeekNftMarketPlace.sol\":2568:3214  function resellNFT(address _nftContract, uint _tokenId, uint _price) public payable nonReentrant{... */\n    tag_2:\n      tag_10\n      0x04\n      dup1\n      calldatasize\n      sub\n      dup2\n      add\n      swap1\n      tag_11\n      swap2\n      swap1\n      tag_12\n      jump\t// in\n    tag_11:\n      tag_13\n      jump\t// in\n    tag_10:\n      stop\n        /* \"contracts/GeekNftMarketPlace.sol\":429:466  uint public LISTING_FEE = 0.002 ether */\n    tag_3:\n      callvalue\n      dup1\n      iszero\n      tag_14\n      jumpi\n      0x00\n      dup1\n      revert\n    tag_14:\n      pop\n      tag_15\n      tag_16\n      jump\t// in\n    tag_15:\n      mload(0x40)\n      tag_17\n      swap2\n      swap1\n      tag_18\n      jump\t// in\n    tag_17:\n      mload(0x40)\n      dup1\n      swap2\n      sub\n      swap1\n      return\n        /* \"contracts/GeekNftMarketPlace.sol\":1953:2513  function buyNft(address _nftContract, uint _tokenId) public payable nonReentrant{... */\n    tag_4:\n      tag_19\n      0x04\n      dup1\n      calldatasize\n      sub\n      dup2\n      add\n      swap1\n      tag_20\n      swap2\n      swap1\n      tag_21\n      jump\t// in\n    tag_20:\n      tag_22\n      jump\t// in\n    tag_19:\n      stop\n        /* \"contracts/GeekNftMarketPlace.sol\":3898:4508  function getMyCreatedNfts() public view returns (NFT[] memory) {... */\n    tag_5:\n      callvalue\n      dup1\n      iszero\n      tag_23\n      jumpi\n      0x00\n      dup1\n      revert\n    tag_23:\n      pop\n      tag_24\n      tag_25\n      jump\t// in\n    tag_24:\n      mload(0x40)\n      tag_26\n      swap2\n      swap1\n      tag_27\n      jump\t// in\n    tag_26:\n      mload(0x40)\n      dup1\n      swap2\n      sub\n      swap1\n      return\n        /* \"contracts/GeekNftMarketPlace.sol\":3253:3857  function getMyOwnedNfts() public view returns (NFT[] memory) {... */\n    tag_6:\n      callvalue\n      dup1\n      iszero\n      tag_28\n      jumpi\n      0x00\n      dup1\n      revert\n    tag_28:\n      pop\n      tag_29\n      tag_30\n      jump\t// in\n    tag_29:\n      mload(0x40)\n      tag_31\n      swap2\n      swap1\n      tag_27\n      jump\t// in\n    tag_31:\n      mload(0x40)\n      dup1\n      swap2\n      sub\n      swap1\n      return\n        /* \"contracts/GeekNftMarketPlace.sol\":1204:1929  function listNFT(address _nftContract, uint _tokenId, uint _price) public payable nonReentrant{... */\n    tag_7:\n      tag_32\n      0x04\n      dup1\n      calldatasize\n      sub\n      dup2\n      add\n      swap1\n      tag_33\n      swap2\n      swap1\n      tag_12\n      jump\t// in\n    tag_33:\n      tag_34\n      jump\t// in\n    tag_32:\n      stop\n        /* \"contracts/GeekNftMarketPlace.sol\":1073:1159  function getListingFee() public view returns (uint){... */\n    tag_8:\n      callvalue\n      dup1\n      iszero\n      tag_35\n      jumpi\n      0x00\n      dup1\n      revert\n    tag_35:\n      pop\n      tag_36\n      tag_37\n      jump\t// in\n    tag_36:\n      mload(0x40)\n      tag_38\n      swap2\n      swap1\n      tag_18\n      jump\t// in\n    tag_38:\n      mload(0x40)\n      dup1\n      swap2\n      sub\n      swap1\n      return\n        /* \"contracts/GeekNftMarketPlace.sol\":2568:3214  function resellNFT(address _nftContract, uint _tokenId, uint _price) public payable nonReentrant{... */\n    tag_13:\n        /* \"contracts/RenntrancyGuard.sol\":170:171  2 */\n      0x02\n        /* \"contracts/RenntrancyGuard.sol\":309:316  _status */\n      sload(0x00)\n        /* \"contracts/RenntrancyGuard.sol\":309:328  _status != _ENTERED */\n      eq\n      iszero\n        /* \"contracts/RenntrancyGuard.sol\":301:364  require(_status != _ENTERED, \"ReentrancyGuard: reentrant call\") */\n      tag_40\n      jumpi\n      mload(0x40)\n      0x08c379a000000000000000000000000000000000000000000000000000000000\n      dup2\n      mstore\n      0x04\n      add\n      tag_41\n      swap1\n      tag_42\n      jump\t// in\n    tag_41:\n      mload(0x40)\n      dup1\n      swap2\n      sub\n      swap1\n      revert\n    tag_40:\n        /* \"contracts/RenntrancyGuard.sol\":170:171  2 */\n      0x02\n        /* \"contracts/RenntrancyGuard.sol\":374:381  _status */\n      0x00\n        /* \"contracts/RenntrancyGuard.sol\":374:392  _status = _ENTERED */\n      dup2\n      swap1\n      sstore\n      pop\n        /* \"contracts/GeekNftMarketPlace.sol\":2691:2692  0 */\n      0x00\n        /* \"contracts/GeekNftMarketPlace.sol\":2682:2688  _price */\n      dup2\n        /* \"contracts/GeekNftMarketPlace.sol\":2682:2692  _price > 0 */\n      gt\n        /* \"contracts/GeekNftMarketPlace.sol\":2674:2725  require(_price > 0, \"Price must be at least 1 wei\") */\n      tag_44\n      jumpi\n      mload(0x40)\n      0x08c379a000000000000000000000000000000000000000000000000000000000\n      dup2\n      mstore\n      0x04\n      add\n      tag_45\n      swap1\n      tag_46\n      jump\t// in\n    tag_45:\n      mload(0x40)\n      dup1\n      swap2\n      sub\n      swap1\n      revert\n    tag_44:\n        /* \"contracts/GeekNftMarketPlace.sol\":2756:2767  LISTING_FEE */\n      sload(0x03)\n        /* \"contracts/GeekNftMarketPlace.sol\":2743:2752  msg.value */\n      callvalue\n        /* \"contracts/GeekNftMarketPlace.sol\":2743:2767  msg.value == LISTING_FEE */\n      eq\n        /* \"contracts/GeekNftMarketPlace.sol\":2735:2804  require(msg.value == LISTING_FEE, \"Not enough ether for listing fee\") */\n      tag_47\n      jumpi\n      mload(0x40)\n      0x08c379a000000000000000000000000000000000000000000000000000000000\n      dup2\n      mstore\n      0x04\n      add\n      tag_48\n      swap1\n      tag_49\n      jump\t// in\n    tag_48:\n      mload(0x40)\n      dup1\n      swap2\n      sub\n      swap1\n      revert\n    tag_47:\n        /* \"contracts/GeekNftMarketPlace.sol\":2832:2844  _nftContract */\n      dup3\n        /* \"contracts/GeekNftMarketPlace.sol\":2815:2858  GeekNftInterface(_nftContract).transferFrom */\n      0xffffffffffffffffffffffffffffffffffffffff\n      and\n      0x23b872dd\n        /* \"contracts/GeekNftMarketPlace.sol\":2859:2869  msg.sender */\n      caller\n        /* \"contracts/GeekNftMarketPlace.sol\":2879:2883  this */\n      address\n        /* \"contracts/GeekNftMarketPlace.sol\":2886:2894  _tokenId */\n      dup6\n        /* \"contracts/GeekNftMarketPlace.sol\":2815:2895  GeekNftInterface(_nftContract).transferFrom(msg.sender, address(this), _tokenId) */\n      mload(0x40)\n      dup5\n      0xffffffff\n      and\n      0xe0\n      shl\n      dup2\n      mstore\n      0x04\n      add\n      tag_50\n      swap4\n      swap3\n      swap2\n      swap1\n      tag_51\n      jump\t// in\n    tag_50:\n      0x00\n      mload(0x40)\n      dup1\n      dup4\n      sub\n      dup2\n      0x00\n      dup8\n      dup1\n      extcodesize\n      iszero\n      dup1\n      iszero\n      tag_52\n      jumpi\n      0x00\n      dup1\n      revert\n    tag_52:\n      pop\n      gas\n      call\n      iszero\n      dup1\n      iszero\n      tag_54\n      jumpi\n      returndatasize\n      0x00\n      dup1\n      returndatacopy\n      revert(0x00, returndatasize)\n    tag_54:\n      pop\n      pop\n      pop\n      pop\n        /* \"contracts/GeekNftMarketPlace.sol\":2906:2921  NFT storage nft */\n      0x00\n        /* \"contracts/GeekNftMarketPlace.sol\":2924:2932  _idToNft */\n      0x05\n        /* \"contracts/GeekNftMarketPlace.sol\":2924:2942  _idToNft[_tokenId] */\n      0x00\n        /* \"contracts/GeekNftMarketPlace.sol\":2933:2941  _tokenId */\n      dup5\n        /* \"contracts/GeekNftMarketPlace.sol\":2924:2942  _idToNft[_tokenId] */\n      dup2\n      mstore\n      0x20\n      add\n      swap1\n      dup2\n      mstore\n      0x20\n      add\n      0x00\n      keccak256\n        /* \"contracts/GeekNftMarketPlace.sol\":2906:2942  NFT storage nft = _idToNft[_tokenId] */\n      swap1\n      pop\n        /* \"contracts/GeekNftMarketPlace.sol\":2973:2983  msg.sender */\n      caller\n        /* \"contracts/GeekNftMarketPlace.sol\":2952:2955  nft */\n      dup2\n        /* \"contracts/GeekNftMarketPlace.sol\":2952:2962  nft.seller */\n      0x03\n      add\n      0x00\n        /* \"contracts/GeekNftMarketPlace.sol\":2952:2984  nft.seller = payable(msg.sender) */\n      0x0100\n      exp\n      dup2\n      sload\n      dup2\n      0xffffffffffffffffffffffffffffffffffffffff\n      mul\n      not\n      and\n      swap1\n      dup4\n      0xffffffffffffffffffffffffffffffffffffffff\n      and\n      mul\n      or\n      swap1\n      sstore\n      pop\n        /* \"contracts/GeekNftMarketPlace.sol\":3022:3026  this */\n      address\n        /* \"contracts/GeekNftMarketPlace.sol\":2994:2997  nft */\n      dup2\n        /* \"contracts/GeekNftMarketPlace.sol\":2994:3003  nft.owner */\n      0x04\n      add\n      0x00\n        /* \"contracts/GeekNftMarketPlace.sol\":2994:3028  nft.owner = payable(address(this)) */\n      0x0100\n      exp\n      dup2\n      sload\n      dup2\n      0xffffffffffffffffffffffffffffffffffffffff\n      mul\n      not\n      and\n      swap1\n      dup4\n      0xffffffffffffffffffffffffffffffffffffffff\n      and\n      mul\n      or\n      swap1\n      sstore\n      pop\n        /* \"contracts/GeekNftMarketPlace.sol\":3051:3055  true */\n      0x01\n        /* \"contracts/GeekNftMarketPlace.sol\":3038:3041  nft */\n      dup2\n        /* \"contracts/GeekNftMarketPlace.sol\":3038:3048  nft.listed */\n      0x05\n      add\n      0x14\n        /* \"contracts/GeekNftMarketPlace.sol\":3038:3055  nft.listed = true */\n      0x0100\n      exp\n      dup2\n      sload\n      dup2\n      0xff\n      mul\n      not\n      and\n      swap1\n      dup4\n      iszero\n      iszero\n      mul\n      or\n      swap1\n      sstore\n      pop\n        /* \"contracts/GeekNftMarketPlace.sol\":3077:3083  _price */\n      dup2\n        /* \"contracts/GeekNftMarketPlace.sol\":3065:3068  nft */\n      dup2\n        /* \"contracts/GeekNftMarketPlace.sol\":3065:3074  nft.price */\n      0x02\n      add\n        /* \"contracts/GeekNftMarketPlace.sol\":3065:3083  nft.price = _price */\n      dup2\n      swap1\n      sstore\n      pop\n        /* \"contracts/GeekNftMarketPlace.sol\":3094:3115  _nftsSold.decrement() */\n      tag_55\n        /* \"contracts/GeekNftMarketPlace.sol\":3094:3103  _nftsSold */\n      0x01\n        /* \"contracts/GeekNftMarketPlace.sol\":3094:3113  _nftsSold.decrement */\n      tag_56\n        /* \"contracts/GeekNftMarketPlace.sol\":3094:3115  _nftsSold.decrement() */\n      jump\t// in\n    tag_55:\n        /* \"contracts/GeekNftMarketPlace.sol\":3193:3197  this */\n      address\n        /* \"contracts/GeekNftMarketPlace.sol\":3139:3207  NFTListed(_nftContract, _tokenId, msg.sender, address(this), _price) */\n      0xffffffffffffffffffffffffffffffffffffffff\n      and\n        /* \"contracts/GeekNftMarketPlace.sol\":3173:3183  msg.sender */\n      caller\n        /* \"contracts/GeekNftMarketPlace.sol\":3139:3207  NFTListed(_nftContract, _tokenId, msg.sender, address(this), _price) */\n      0xffffffffffffffffffffffffffffffffffffffff\n      and\n      0xa0c6c0d02d86fdacecbaa5fdf5894bab204e31a778250474108540733a9b8d19\n        /* \"contracts/GeekNftMarketPlace.sol\":3149:3161  _nftContract */\n      dup7\n        /* \"contracts/GeekNftMarketPlace.sol\":3163:3171  _tokenId */\n      dup7\n        /* \"contracts/GeekNftMarketPlace.sol\":3200:3206  _price */\n      dup7\n        /* \"contracts/GeekNftMarketPlace.sol\":3139:3207  NFTListed(_nftContract, _tokenId, msg.sender, address(this), _price) */\n      mload(0x40)\n      tag_57\n      swap4\n      swap3\n      swap2\n      swap1\n      tag_58\n      jump\t// in\n    tag_57:\n      mload(0x40)\n      dup1\n      swap2\n      sub\n      swap1\n      log3\n        /* \"contracts/RenntrancyGuard.sol\":402:403  _ */\n      pop\n        /* \"contracts/RenntrancyGuard.sol\":127:128  1 */\n      0x01\n        /* \"contracts/RenntrancyGuard.sol\":413:420  _status */\n      0x00\n        /* \"contracts/RenntrancyGuard.sol\":413:435  _status = _NOT_ENTERED */\n      dup2\n      swap1\n      sstore\n      pop\n        /* \"contracts/GeekNftMarketPlace.sol\":2568:3214  function resellNFT(address _nftContract, uint _tokenId, uint _price) public payable nonReentrant{... */\n      pop\n      pop\n      pop\n      jump\t// out\n        /* \"contracts/GeekNftMarketPlace.sol\":429:466  uint public LISTING_FEE = 0.002 ether */\n    tag_16:\n      sload(0x03)\n      dup2\n      jump\t// out\n        /* \"contracts/GeekNftMarketPlace.sol\":1953:2513  function buyNft(address _nftContract, uint _tokenId) public payable nonReentrant{... */\n    tag_22:\n        /* \"contracts/RenntrancyGuard.sol\":170:171  2 */\n      0x02\n        /* \"contracts/RenntrancyGuard.sol\":309:316  _status */\n      sload(0x00)\n        /* \"contracts/RenntrancyGuard.sol\":309:328  _status != _ENTERED */\n      eq\n      iszero\n        /* \"contracts/RenntrancyGuard.sol\":301:364  require(_status != _ENTERED, \"ReentrancyGuard: reentrant call\") */\n      tag_60\n      jumpi\n      mload(0x40)\n      0x08c379a000000000000000000000000000000000000000000000000000000000\n      dup2\n      mstore\n      0x04\n      add\n      tag_61\n      swap1\n      tag_42\n      jump\t// in\n    tag_61:\n      mload(0x40)\n      dup1\n      swap2\n      sub\n      swap1\n      revert\n    tag_60:\n        /* \"contracts/RenntrancyGuard.sol\":170:171  2 */\n      0x02\n        /* \"contracts/RenntrancyGuard.sol\":374:381  _status */\n      0x00\n        /* \"contracts/RenntrancyGuard.sol\":374:392  _status = _ENTERED */\n      dup2\n      swap1\n      sstore\n      pop\n        /* \"contracts/GeekNftMarketPlace.sol\":2043:2058  NFT storage nft */\n      0x00\n        /* \"contracts/GeekNftMarketPlace.sol\":2061:2069  _idToNft */\n      0x05\n        /* \"contracts/GeekNftMarketPlace.sol\":2061:2079  _idToNft[_tokenId] */\n      0x00\n        /* \"contracts/GeekNftMarketPlace.sol\":2070:2078  _tokenId */\n      dup4\n        /* \"contracts/GeekNftMarketPlace.sol\":2061:2079  _idToNft[_tokenId] */\n      dup2\n      mstore\n      0x20\n      add\n      swap1\n      dup2\n      mstore\n      0x20\n      add\n      0x00\n      keccak256\n        /* \"contracts/GeekNftMarketPlace.sol\":2043:2079  NFT storage nft = _idToNft[_tokenId] */\n      swap1\n      pop\n        /* \"contracts/GeekNftMarketPlace.sol\":2110:2113  nft */\n      dup1\n        /* \"contracts/GeekNftMarketPlace.sol\":2110:2119  nft.price */\n      0x02\n      add\n      sload\n        /* \"contracts/GeekNftMarketPlace.sol\":2097:2106  msg.value */\n      callvalue\n        /* \"contracts/GeekNftMarketPlace.sol\":2097:2119  msg.value >= nft.price */\n      lt\n      iszero\n        /* \"contracts/GeekNftMarketPlace.sol\":2089:2162  require(msg.value >= nft.price, \"Not enough ether to cover asking price\") */\n      tag_63\n      jumpi\n      mload(0x40)\n      0x08c379a000000000000000000000000000000000000000000000000000000000\n      dup2\n      mstore\n      0x04\n      add\n      tag_64\n      swap1\n      tag_65\n      jump\t// in\n    tag_64:\n      mload(0x40)\n      dup1\n      swap2\n      sub\n      swap1\n      revert\n    tag_63:\n        /* \"contracts/GeekNftMarketPlace.sol\":2173:2194  address payable buyer */\n      0x00\n        /* \"contracts/GeekNftMarketPlace.sol\":2205:2215  msg.sender */\n      caller\n        /* \"contracts/GeekNftMarketPlace.sol\":2173:2216  address payable buyer = payable(msg.sender) */\n      swap1\n      pop\n        /* \"contracts/GeekNftMarketPlace.sol\":2226:2229  nft */\n      dup2\n        /* \"contracts/GeekNftMarketPlace.sol\":2226:2236  nft.seller */\n      0x03\n      add\n      0x00\n      swap1\n      sload\n      swap1\n      0x0100\n      exp\n      swap1\n      div\n      0xffffffffffffffffffffffffffffffffffffffff\n      and\n        /* \"contracts/GeekNftMarketPlace.sol\":2226:2245  nft.seller.transfer */\n      0xffffffffffffffffffffffffffffffffffffffff\n      and\n        /* \"contracts/GeekNftMarketPlace.sol\":2226:2256  nft.seller.transfer(msg.value) */\n      0x08fc\n        /* \"contracts/GeekNftMarketPlace.sol\":2246:2255  msg.value */\n      callvalue\n        /* \"contracts/GeekNftMarketPlace.sol\":2226:2256  nft.seller.transfer(msg.value) */\n      swap1\n      dup2\n      iszero\n      mul\n      swap1\n      mload(0x40)\n      0x00\n      mload(0x40)\n      dup1\n      dup4\n      sub\n      dup2\n      dup6\n      dup9\n      dup9\n      call\n      swap4\n      pop\n      pop\n      pop\n      pop\n      iszero\n      dup1\n      iszero\n      tag_67\n      jumpi\n      returndatasize\n      0x00\n      dup1\n      returndatacopy\n      revert(0x00, returndatasize)\n    tag_67:\n      pop\n        /* \"contracts/GeekNftMarketPlace.sol\":2284:2296  _nftContract */\n      dup4\n        /* \"contracts/GeekNftMarketPlace.sol\":2267:2310  GeekNftInterface(_nftContract).transferFrom */\n      0xffffffffffffffffffffffffffffffffffffffff\n      and\n      0x23b872dd\n        /* \"contracts/GeekNftMarketPlace.sol\":2319:2323  this */\n      address\n        /* \"contracts/GeekNftMarketPlace.sol\":2326:2331  buyer */\n      dup4\n        /* \"contracts/GeekNftMarketPlace.sol\":2333:2341  _tokenId */\n      dup7\n        /* \"contracts/GeekNftMarketPlace.sol\":2267:2342  GeekNftInterface(_nftContract).transferFrom(address(this), buyer, _tokenId) */\n      mload(0x40)\n      dup5\n      0xffffffff\n      and\n      0xe0\n      shl\n      dup2\n      mstore\n      0x04\n      add\n      tag_68\n      swap4\n      swap3\n      swap2\n      swap1\n      tag_69\n      jump\t// in\n    tag_68:\n      0x00\n      mload(0x40)\n      dup1\n      dup4\n      sub\n      dup2\n      0x00\n      dup8\n      dup1\n      extcodesize\n      iszero\n      dup1\n      iszero\n      tag_70\n      jumpi\n      0x00\n      dup1\n      revert\n    tag_70:\n      pop\n      gas\n      call\n      iszero\n      dup1\n      iszero\n      tag_72\n      jumpi\n      returndatasize\n      0x00\n      dup1\n      returndatacopy\n      revert(0x00, returndatasize)\n    tag_72:\n      pop\n      pop\n      pop\n      pop\n        /* \"contracts/GeekNftMarketPlace.sol\":2364:2369  buyer */\n      dup1\n        /* \"contracts/GeekNftMarketPlace.sol\":2352:2355  nft */\n      dup3\n        /* \"contracts/GeekNftMarketPlace.sol\":2352:2361  nft.owner */\n      0x04\n      add\n      0x00\n        /* \"contracts/GeekNftMarketPlace.sol\":2352:2369  nft.owner = buyer */\n      0x0100\n      exp\n      dup2\n      sload\n      dup2\n      0xffffffffffffffffffffffffffffffffffffffff\n      mul\n      not\n      and\n      swap1\n      dup4\n      0xffffffffffffffffffffffffffffffffffffffff\n      and\n      mul\n      or\n      swap1\n      sstore\n      pop\n        /* \"contracts/GeekNftMarketPlace.sol\":2392:2397  false */\n      0x00\n        /* \"contracts/GeekNftMarketPlace.sol\":2379:2382  nft */\n      dup3\n        /* \"contracts/GeekNftMarketPlace.sol\":2379:2389  nft.listed */\n      0x05\n      add\n      0x14\n        /* \"contracts/GeekNftMarketPlace.sol\":2379:2397  nft.listed = false */\n      0x0100\n      exp\n      dup2\n      sload\n      dup2\n      0xff\n      mul\n      not\n      and\n      swap1\n      dup4\n      iszero\n      iszero\n      mul\n      or\n      swap1\n      sstore\n      pop\n        /* \"contracts/GeekNftMarketPlace.sol\":2408:2429  _nftsSold.increment() */\n      tag_73\n        /* \"contracts/GeekNftMarketPlace.sol\":2408:2417  _nftsSold */\n      0x01\n        /* \"contracts/GeekNftMarketPlace.sol\":2408:2427  _nftsSold.increment */\n      tag_74\n        /* \"contracts/GeekNftMarketPlace.sol\":2408:2429  _nftsSold.increment() */\n      jump\t// in\n    tag_73:\n        /* \"contracts/GeekNftMarketPlace.sol\":2489:2494  buyer */\n      dup1\n        /* \"contracts/GeekNftMarketPlace.sol\":2445:2506  NFTSold(_nftContract, _tokenId, nft.seller, buyer, msg.value) */\n      0xffffffffffffffffffffffffffffffffffffffff\n      and\n        /* \"contracts/GeekNftMarketPlace.sol\":2477:2480  nft */\n      dup3\n        /* \"contracts/GeekNftMarketPlace.sol\":2477:2487  nft.seller */\n      0x03\n      add\n      0x00\n      swap1\n      sload\n      swap1\n      0x0100\n      exp\n      swap1\n      div\n      0xffffffffffffffffffffffffffffffffffffffff\n      and\n        /* \"contracts/GeekNftMarketPlace.sol\":2445:2506  NFTSold(_nftContract, _tokenId, nft.seller, buyer, msg.value) */\n      0xffffffffffffffffffffffffffffffffffffffff\n      and\n      0x16f1dbd97e6bf646d429ed186cce832f1f7fd9907814293b83181e9970ab7bd2\n        /* \"contracts/GeekNftMarketPlace.sol\":2453:2465  _nftContract */\n      dup7\n        /* \"contracts/GeekNftMarketPlace.sol\":2467:2475  _tokenId */\n      dup7\n        /* \"contracts/GeekNftMarketPlace.sol\":2496:2505  msg.value */\n      callvalue\n        /* \"contracts/GeekNftMarketPlace.sol\":2445:2506  NFTSold(_nftContract, _tokenId, nft.seller, buyer, msg.value) */\n      mload(0x40)\n      tag_75\n      swap4\n      swap3\n      swap2\n      swap1\n      tag_58\n      jump\t// in\n    tag_75:\n      mload(0x40)\n      dup1\n      swap2\n      sub\n      swap1\n      log3\n        /* \"contracts/RenntrancyGuard.sol\":402:403  _ */\n      pop\n      pop\n        /* \"contracts/RenntrancyGuard.sol\":127:128  1 */\n      0x01\n        /* \"contracts/RenntrancyGuard.sol\":413:420  _status */\n      0x00\n        /* \"contracts/RenntrancyGuard.sol\":413:435  _status = _NOT_ENTERED */\n      dup2\n      swap1\n      sstore\n      pop\n        /* \"contracts/GeekNftMarketPlace.sol\":1953:2513  function buyNft(address _nftContract, uint _tokenId) public payable nonReentrant{... */\n      pop\n      pop\n      jump\t// out\n        /* \"contracts/GeekNftMarketPlace.sol\":3898:4508  function getMyCreatedNfts() public view returns (NFT[] memory) {... */\n    tag_25:\n        /* \"contracts/GeekNftMarketPlace.sol\":3947:3959  NFT[] memory */\n      0x60\n        /* \"contracts/GeekNftMarketPlace.sol\":3971:3985  uint nftsCount */\n      0x00\n        /* \"contracts/GeekNftMarketPlace.sol\":3988:4008  _nftsCount.current() */\n      tag_77\n        /* \"contracts/GeekNftMarketPlace.sol\":3988:3998  _nftsCount */\n      0x02\n        /* \"contracts/GeekNftMarketPlace.sol\":3988:4006  _nftsCount.current */\n      tag_78\n        /* \"contracts/GeekNftMarketPlace.sol\":3988:4008  _nftsCount.current() */\n      jump\t// in\n    tag_77:\n        /* \"contracts/GeekNftMarketPlace.sol\":3971:4008  uint nftsCount = _nftsCount.current() */\n      swap1\n      pop\n        /* \"contracts/GeekNftMarketPlace.sol\":4018:4034  uint myNftsCount */\n      0x00\n        /* \"contracts/GeekNftMarketPlace.sol\":4053:4059  uint i */\n      dup1\n        /* \"contracts/GeekNftMarketPlace.sol\":4062:4063  1 */\n      0x01\n        /* \"contracts/GeekNftMarketPlace.sol\":4053:4063  uint i = 1 */\n      swap1\n      pop\n        /* \"contracts/GeekNftMarketPlace.sol\":4048:4195  for (uint i = 1; i <= nftsCount; i++) {... */\n    tag_79:\n        /* \"contracts/GeekNftMarketPlace.sol\":4070:4079  nftsCount */\n      dup3\n        /* \"contracts/GeekNftMarketPlace.sol\":4065:4066  i */\n      dup2\n        /* \"contracts/GeekNftMarketPlace.sol\":4065:4079  i <= nftsCount */\n      gt\n        /* \"contracts/GeekNftMarketPlace.sol\":4048:4195  for (uint i = 1; i <= nftsCount; i++) {... */\n      tag_80\n      jumpi\n        /* \"contracts/GeekNftMarketPlace.sol\":4126:4136  msg.sender */\n      caller\n        /* \"contracts/GeekNftMarketPlace.sol\":4103:4136  _idToNft[i].creator == msg.sender */\n      0xffffffffffffffffffffffffffffffffffffffff\n      and\n        /* \"contracts/GeekNftMarketPlace.sol\":4103:4111  _idToNft */\n      0x05\n        /* \"contracts/GeekNftMarketPlace.sol\":4103:4114  _idToNft[i] */\n      0x00\n        /* \"contracts/GeekNftMarketPlace.sol\":4112:4113  i */\n      dup4\n        /* \"contracts/GeekNftMarketPlace.sol\":4103:4114  _idToNft[i] */\n      dup2\n      mstore\n      0x20\n      add\n      swap1\n      dup2\n      mstore\n      0x20\n      add\n      0x00\n      keccak256\n        /* \"contracts/GeekNftMarketPlace.sol\":4103:4122  _idToNft[i].creator */\n      0x05\n      add\n      0x00\n      swap1\n      sload\n      swap1\n      0x0100\n      exp\n      swap1\n      div\n      0xffffffffffffffffffffffffffffffffffffffff\n      and\n        /* \"contracts/GeekNftMarketPlace.sol\":4103:4136  _idToNft[i].creator == msg.sender */\n      0xffffffffffffffffffffffffffffffffffffffff\n      and\n      eq\n        /* \"contracts/GeekNftMarketPlace.sol\":4100:4185  if(_idToNft[i].creator == msg.sender) {... */\n      iszero\n      tag_82\n      jumpi\n        /* \"contracts/GeekNftMarketPlace.sol\":4156:4170  myNftsCount ++ */\n      dup2\n      dup1\n      tag_83\n      swap1\n      tag_84\n      jump\t// in\n    tag_83:\n      swap3\n      pop\n      pop\n        /* \"contracts/GeekNftMarketPlace.sol\":4100:4185  if(_idToNft[i].creator == msg.sender) {... */\n    tag_82:\n        /* \"contracts/GeekNftMarketPlace.sol\":4081:4084  i++ */\n      dup1\n      dup1\n      tag_85\n      swap1\n      tag_84\n      jump\t// in\n    tag_85:\n      swap2\n      pop\n      pop\n        /* \"contracts/GeekNftMarketPlace.sol\":4048:4195  for (uint i = 1; i <= nftsCount; i++) {... */\n      jump(tag_79)\n    tag_80:\n      pop\n        /* \"contracts/GeekNftMarketPlace.sol\":4205:4224  NFT[] memory myNfts */\n      0x00\n        /* \"contracts/GeekNftMarketPlace.sol\":4237:4248  myNftsCount */\n      dup2\n        /* \"contracts/GeekNftMarketPlace.sol\":4227:4249  new NFT[](myNftsCount) */\n      0xffffffffffffffff\n      dup2\n      gt\n      iszero\n      tag_86\n      jumpi\n      mstore(0x00, 0x4e487b7100000000000000000000000000000000000000000000000000000000)\n      mstore(0x04, 0x41)\n      revert(0x00, 0x24)\n    tag_86:\n      mload(0x40)\n      swap1\n      dup1\n      dup3\n      mstore\n      dup1\n      0x20\n      mul\n      0x20\n      add\n      dup3\n      add\n      0x40\n      mstore\n      dup1\n      iszero\n      tag_87\n      jumpi\n      dup2\n      0x20\n      add\n    tag_88:\n      tag_89\n      tag_90\n      jump\t// in\n    tag_89:\n      dup2\n      mstore\n      0x20\n      add\n      swap1\n      0x01\n      swap1\n      sub\n      swap1\n      dup2\n      tag_88\n      jumpi\n      swap1\n      pop\n    tag_87:\n      pop\n        /* \"contracts/GeekNftMarketPlace.sol\":4205:4249  NFT[] memory myNfts = new NFT[](myNftsCount) */\n      swap1\n      pop\n        /* \"contracts/GeekNftMarketPlace.sol\":4259:4272  uint nftIndex */\n      0x00\n        /* \"contracts/GeekNftMarketPlace.sol\":4291:4297  uint i */\n      dup1\n        /* \"contracts/GeekNftMarketPlace.sol\":4300:4301  1 */\n      0x01\n        /* \"contracts/GeekNftMarketPlace.sol\":4291:4301  uint i = 1 */\n      swap1\n      pop\n        /* \"contracts/GeekNftMarketPlace.sol\":4286:4478  for (uint i = 1; i <= nftsCount; i++) {... */\n    tag_91:\n        /* \"contracts/GeekNftMarketPlace.sol\":4308:4317  nftsCount */\n      dup5\n        /* \"contracts/GeekNftMarketPlace.sol\":4303:4304  i */\n      dup2\n        /* \"contracts/GeekNftMarketPlace.sol\":4303:4317  i <= nftsCount */\n      gt\n        /* \"contracts/GeekNftMarketPlace.sol\":4286:4478  for (uint i = 1; i <= nftsCount; i++) {... */\n      tag_92\n      jumpi\n        /* \"contracts/GeekNftMarketPlace.sol\":4364:4374  msg.sender */\n      caller\n        /* \"contracts/GeekNftMarketPlace.sol\":4341:4374  _idToNft[i].creator == msg.sender */\n      0xffffffffffffffffffffffffffffffffffffffff\n      and\n        /* \"contracts/GeekNftMarketPlace.sol\":4341:4349  _idToNft */\n      0x05\n        /* \"contracts/GeekNftMarketPlace.sol\":4341:4352  _idToNft[i] */\n      0x00\n        /* \"contracts/GeekNftMarketPlace.sol\":4350:4351  i */\n      dup4\n        /* \"contracts/GeekNftMarketPlace.sol\":4341:4352  _idToNft[i] */\n      dup2\n      mstore\n      0x20\n      add\n      swap1\n      dup2\n      mstore\n      0x20\n      add\n      0x00\n      keccak256\n        /* \"contracts/GeekNftMarketPlace.sol\":4341:4360  _idToNft[i].creator */\n      0x05\n      add\n      0x00\n      swap1\n      sload\n      swap1\n      0x0100\n      exp\n      swap1\n      div\n      0xffffffffffffffffffffffffffffffffffffffff\n      and\n        /* \"contracts/GeekNftMarketPlace.sol\":4341:4374  _idToNft[i].creator == msg.sender */\n      0xffffffffffffffffffffffffffffffffffffffff\n      and\n      eq\n        /* \"contracts/GeekNftMarketPlace.sol\":4338:4468  if(_idToNft[i].creator == msg.sender) {... */\n      iszero\n      tag_94\n      jumpi\n        /* \"contracts/GeekNftMarketPlace.sol\":4413:4421  _idToNft */\n      0x05\n        /* \"contracts/GeekNftMarketPlace.sol\":4413:4424  _idToNft[i] */\n      0x00\n        /* \"contracts/GeekNftMarketPlace.sol\":4422:4423  i */\n      dup3\n        /* \"contracts/GeekNftMarketPlace.sol\":4413:4424  _idToNft[i] */\n      dup2\n      mstore\n      0x20\n      add\n      swap1\n      dup2\n      mstore\n      0x20\n      add\n      0x00\n      keccak256\n        /* \"contracts/GeekNftMarketPlace.sol\":4394:4424  myNfts[nftIndex] = _idToNft[i] */\n      mload(0x40)\n      dup1\n      0xe0\n      add\n      0x40\n      mstore\n      swap1\n      dup2\n      0x00\n      dup3\n      add\n      0x00\n      swap1\n      sload\n      swap1\n      0x0100\n      exp\n      swap1\n      div\n      0xffffffffffffffffffffffffffffffffffffffff\n      and\n      0xffffffffffffffffffffffffffffffffffffffff\n      and\n      0xffffffffffffffffffffffffffffffffffffffff\n      and\n      dup2\n      mstore\n      0x20\n      add\n      0x01\n      dup3\n      add\n      sload\n      dup2\n      mstore\n      0x20\n      add\n      0x02\n      dup3\n      add\n      sload\n      dup2\n      mstore\n      0x20\n      add\n      0x03\n      dup3\n      add\n      0x00\n      swap1\n      sload\n      swap1\n      0x0100\n      exp\n      swap1\n      div\n      0xffffffffffffffffffffffffffffffffffffffff\n      and\n      0xffffffffffffffffffffffffffffffffffffffff\n      and\n      0xffffffffffffffffffffffffffffffffffffffff\n      and\n      dup2\n      mstore\n      0x20\n      add\n      0x04\n      dup3\n      add\n      0x00\n      swap1\n      sload\n      swap1\n      0x0100\n      exp\n      swap1\n      div\n      0xffffffffffffffffffffffffffffffffffffffff\n      and\n      0xffffffffffffffffffffffffffffffffffffffff\n      and\n      0xffffffffffffffffffffffffffffffffffffffff\n      and\n      dup2\n      mstore\n      0x20\n      add\n      0x05\n      dup3\n      add\n      0x00\n      swap1\n      sload\n      swap1\n      0x0100\n      exp\n      swap1\n      div\n      0xffffffffffffffffffffffffffffffffffffffff\n      and\n      0xffffffffffffffffffffffffffffffffffffffff\n      and\n      0xffffffffffffffffffffffffffffffffffffffff\n      and\n      dup2\n      mstore\n      0x20\n      add\n      0x05\n      dup3\n      add\n      0x14\n      swap1\n      sload\n      swap1\n      0x0100\n      exp\n      swap1\n      div\n      0xff\n      and\n      iszero\n      iszero\n      iszero\n      iszero\n      dup2\n      mstore\n      pop\n      pop\n        /* \"contracts/GeekNftMarketPlace.sol\":4394:4400  myNfts */\n      dup4\n        /* \"contracts/GeekNftMarketPlace.sol\":4401:4409  nftIndex */\n      dup4\n        /* \"contracts/GeekNftMarketPlace.sol\":4394:4410  myNfts[nftIndex] */\n      dup2\n      mload\n      dup2\n      lt\n      tag_95\n      jumpi\n      mstore(0x00, 0x4e487b7100000000000000000000000000000000000000000000000000000000)\n      mstore(0x04, 0x32)\n      revert(0x00, 0x24)\n    tag_95:\n      0x20\n      mul\n      0x20\n      add\n      add\n        /* \"contracts/GeekNftMarketPlace.sol\":4394:4424  myNfts[nftIndex] = _idToNft[i] */\n      dup2\n      swap1\n      mstore\n      pop\n        /* \"contracts/GeekNftMarketPlace.sol\":4442:4453  nftIndex ++ */\n      dup2\n      dup1\n      tag_96\n      swap1\n      tag_84\n      jump\t// in\n    tag_96:\n      swap3\n      pop\n      pop\n        /* \"contracts/GeekNftMarketPlace.sol\":4338:4468  if(_idToNft[i].creator == msg.sender) {... */\n    tag_94:\n        /* \"contracts/GeekNftMarketPlace.sol\":4319:4322  i++ */\n      dup1\n      dup1\n      tag_97\n      swap1\n      tag_84\n      jump\t// in\n    tag_97:\n      swap2\n      pop\n      pop\n        /* \"contracts/GeekNftMarketPlace.sol\":4286:4478  for (uint i = 1; i <= nftsCount; i++) {... */\n      jump(tag_91)\n    tag_92:\n      pop\n        /* \"contracts/GeekNftMarketPlace.sol\":4495:4501  myNfts */\n      dup2\n        /* \"contracts/GeekNftMarketPlace.sol\":4488:4501  return myNfts */\n      swap5\n      pop\n      pop\n      pop\n      pop\n      pop\n        /* \"contracts/GeekNftMarketPlace.sol\":3898:4508  function getMyCreatedNfts() public view returns (NFT[] memory) {... */\n      swap1\n      jump\t// out\n        /* \"contracts/GeekNftMarketPlace.sol\":3253:3857  function getMyOwnedNfts() public view returns (NFT[] memory) {... */\n    tag_30:\n        /* \"contracts/GeekNftMarketPlace.sol\":3300:3312  NFT[] memory */\n      0x60\n        /* \"contracts/GeekNftMarketPlace.sol\":3324:3338  uint nftsCount */\n      0x00\n        /* \"contracts/GeekNftMarketPlace.sol\":3341:3361  _nftsCount.current() */\n      tag_99\n        /* \"contracts/GeekNftMarketPlace.sol\":3341:3351  _nftsCount */\n      0x02\n        /* \"contracts/GeekNftMarketPlace.sol\":3341:3359  _nftsCount.current */\n      tag_78\n        /* \"contracts/GeekNftMarketPlace.sol\":3341:3361  _nftsCount.current() */\n      jump\t// in\n    tag_99:\n        /* \"contracts/GeekNftMarketPlace.sol\":3324:3361  uint nftsCount = _nftsCount.current() */\n      swap1\n      pop\n        /* \"contracts/GeekNftMarketPlace.sol\":3371:3387  uint myNftsCount */\n      0x00\n        /* \"contracts/GeekNftMarketPlace.sol\":3406:3412  uint i */\n      dup1\n        /* \"contracts/GeekNftMarketPlace.sol\":3415:3416  1 */\n      0x01\n        /* \"contracts/GeekNftMarketPlace.sol\":3406:3416  uint i = 1 */\n      swap1\n      pop\n        /* \"contracts/GeekNftMarketPlace.sol\":3401:3546  for (uint i = 1; i <= nftsCount; i++) {... */\n    tag_100:\n        /* \"contracts/GeekNftMarketPlace.sol\":3423:3432  nftsCount */\n      dup3\n        /* \"contracts/GeekNftMarketPlace.sol\":3418:3419  i */\n      dup2\n        /* \"contracts/GeekNftMarketPlace.sol\":3418:3432  i <= nftsCount */\n      gt\n        /* \"contracts/GeekNftMarketPlace.sol\":3401:3546  for (uint i = 1; i <= nftsCount; i++) {... */\n      tag_101\n      jumpi\n        /* \"contracts/GeekNftMarketPlace.sol\":3477:3487  msg.sender */\n      caller\n        /* \"contracts/GeekNftMarketPlace.sol\":3456:3487  _idToNft[i].owner == msg.sender */\n      0xffffffffffffffffffffffffffffffffffffffff\n      and\n        /* \"contracts/GeekNftMarketPlace.sol\":3456:3464  _idToNft */\n      0x05\n        /* \"contracts/GeekNftMarketPlace.sol\":3456:3467  _idToNft[i] */\n      0x00\n        /* \"contracts/GeekNftMarketPlace.sol\":3465:3466  i */\n      dup4\n        /* \"contracts/GeekNftMarketPlace.sol\":3456:3467  _idToNft[i] */\n      dup2\n      mstore\n      0x20\n      add\n      swap1\n      dup2\n      mstore\n      0x20\n      add\n      0x00\n      keccak256\n        /* \"contracts/GeekNftMarketPlace.sol\":3456:3473  _idToNft[i].owner */\n      0x04\n      add\n      0x00\n      swap1\n      sload\n      swap1\n      0x0100\n      exp\n      swap1\n      div\n      0xffffffffffffffffffffffffffffffffffffffff\n      and\n        /* \"contracts/GeekNftMarketPlace.sol\":3456:3487  _idToNft[i].owner == msg.sender */\n      0xffffffffffffffffffffffffffffffffffffffff\n      and\n      eq\n        /* \"contracts/GeekNftMarketPlace.sol\":3453:3536  if(_idToNft[i].owner == msg.sender) {... */\n      iszero\n      tag_103\n      jumpi\n        /* \"contracts/GeekNftMarketPlace.sol\":3507:3521  myNftsCount ++ */\n      dup2\n      dup1\n      tag_104\n      swap1\n      tag_84\n      jump\t// in\n    tag_104:\n      swap3\n      pop\n      pop\n        /* \"contracts/GeekNftMarketPlace.sol\":3453:3536  if(_idToNft[i].owner == msg.sender) {... */\n    tag_103:\n        /* \"contracts/GeekNftMarketPlace.sol\":3434:3437  i++ */\n      dup1\n      dup1\n      tag_105\n      swap1\n      tag_84\n      jump\t// in\n    tag_105:\n      swap2\n      pop\n      pop\n        /* \"contracts/GeekNftMarketPlace.sol\":3401:3546  for (uint i = 1; i <= nftsCount; i++) {... */\n      jump(tag_100)\n    tag_101:\n      pop\n        /* \"contracts/GeekNftMarketPlace.sol\":3556:3575  NFT[] memory myNfts */\n      0x00\n        /* \"contracts/GeekNftMarketPlace.sol\":3588:3599  myNftsCount */\n      dup2\n        /* \"contracts/GeekNftMarketPlace.sol\":3578:3600  new NFT[](myNftsCount) */\n      0xffffffffffffffff\n      dup2\n      gt\n      iszero\n      tag_106\n      jumpi\n      mstore(0x00, 0x4e487b7100000000000000000000000000000000000000000000000000000000)\n      mstore(0x04, 0x41)\n      revert(0x00, 0x24)\n    tag_106:\n      mload(0x40)\n      swap1\n      dup1\n      dup3\n      mstore\n      dup1\n      0x20\n      mul\n      0x20\n      add\n      dup3\n      add\n      0x40\n      mstore\n      dup1\n      iszero\n      tag_107\n      jumpi\n      dup2\n      0x20\n      add\n    tag_108:\n      tag_109\n      tag_90\n      jump\t// in\n    tag_109:\n      dup2\n      mstore\n      0x20\n      add\n      swap1\n      0x01\n      swap1\n      sub\n      swap1\n      dup2\n      tag_108\n      jumpi\n      swap1\n      pop\n    tag_107:\n      pop\n        /* \"contracts/GeekNftMarketPlace.sol\":3556:3600  NFT[] memory myNfts = new NFT[](myNftsCount) */\n      swap1\n      pop\n        /* \"contracts/GeekNftMarketPlace.sol\":3610:3623  uint nftIndex */\n      0x00\n        /* \"contracts/GeekNftMarketPlace.sol\":3642:3648  uint i */\n      dup1\n        /* \"contracts/GeekNftMarketPlace.sol\":3651:3652  1 */\n      0x01\n        /* \"contracts/GeekNftMarketPlace.sol\":3642:3652  uint i = 1 */\n      swap1\n      pop\n        /* \"contracts/GeekNftMarketPlace.sol\":3637:3827  for (uint i = 1; i <= nftsCount; i++) {... */\n    tag_110:\n        /* \"contracts/GeekNftMarketPlace.sol\":3659:3668  nftsCount */\n      dup5\n        /* \"contracts/GeekNftMarketPlace.sol\":3654:3655  i */\n      dup2\n        /* \"contracts/GeekNftMarketPlace.sol\":3654:3668  i <= nftsCount */\n      gt\n        /* \"contracts/GeekNftMarketPlace.sol\":3637:3827  for (uint i = 1; i <= nftsCount; i++) {... */\n      tag_111\n      jumpi\n        /* \"contracts/GeekNftMarketPlace.sol\":3713:3723  msg.sender */\n      caller\n        /* \"contracts/GeekNftMarketPlace.sol\":3692:3723  _idToNft[i].owner == msg.sender */\n      0xffffffffffffffffffffffffffffffffffffffff\n      and\n        /* \"contracts/GeekNftMarketPlace.sol\":3692:3700  _idToNft */\n      0x05\n        /* \"contracts/GeekNftMarketPlace.sol\":3692:3703  _idToNft[i] */\n      0x00\n        /* \"contracts/GeekNftMarketPlace.sol\":3701:3702  i */\n      dup4\n        /* \"contracts/GeekNftMarketPlace.sol\":3692:3703  _idToNft[i] */\n      dup2\n      mstore\n      0x20\n      add\n      swap1\n      dup2\n      mstore\n      0x20\n      add\n      0x00\n      keccak256\n        /* \"contracts/GeekNftMarketPlace.sol\":3692:3709  _idToNft[i].owner */\n      0x04\n      add\n      0x00\n      swap1\n      sload\n      swap1\n      0x0100\n      exp\n      swap1\n      div\n      0xffffffffffffffffffffffffffffffffffffffff\n      and\n        /* \"contracts/GeekNftMarketPlace.sol\":3692:3723  _idToNft[i].owner == msg.sender */\n      0xffffffffffffffffffffffffffffffffffffffff\n      and\n      eq\n        /* \"contracts/GeekNftMarketPlace.sol\":3689:3817  if(_idToNft[i].owner == msg.sender) {... */\n      iszero\n      tag_113\n      jumpi\n        /* \"contracts/GeekNftMarketPlace.sol\":3762:3770  _idToNft */\n      0x05\n        /* \"contracts/GeekNftMarketPlace.sol\":3762:3773  _idToNft[i] */\n      0x00\n        /* \"contracts/GeekNftMarketPlace.sol\":3771:3772  i */\n      dup3\n        /* \"contracts/GeekNftMarketPlace.sol\":3762:3773  _idToNft[i] */\n      dup2\n      mstore\n      0x20\n      add\n      swap1\n      dup2\n      mstore\n      0x20\n      add\n      0x00\n      keccak256\n        /* \"contracts/GeekNftMarketPlace.sol\":3743:3773  myNfts[nftIndex] = _idToNft[i] */\n      mload(0x40)\n      dup1\n      0xe0\n      add\n      0x40\n      mstore\n      swap1\n      dup2\n      0x00\n      dup3\n      add\n      0x00\n      swap1\n      sload\n      swap1\n      0x0100\n      exp\n      swap1\n      div\n      0xffffffffffffffffffffffffffffffffffffffff\n      and\n      0xffffffffffffffffffffffffffffffffffffffff\n      and\n      0xffffffffffffffffffffffffffffffffffffffff\n      and\n      dup2\n      mstore\n      0x20\n      add\n      0x01\n      dup3\n      add\n      sload\n      dup2\n      mstore\n      0x20\n      add\n      0x02\n      dup3\n      add\n      sload\n      dup2\n      mstore\n      0x20\n      add\n      0x03\n      dup3\n      add\n      0x00\n      swap1\n      sload\n      swap1\n      0x0100\n      exp\n      swap1\n      div\n      0xffffffffffffffffffffffffffffffffffffffff\n      and\n      0xffffffffffffffffffffffffffffffffffffffff\n      and\n      0xffffffffffffffffffffffffffffffffffffffff\n      and\n      dup2\n      mstore\n      0x20\n      add\n      0x04\n      dup3\n      add\n      0x00\n      swap1\n      sload\n      swap1\n      0x0100\n      exp\n      swap1\n      div\n      0xffffffffffffffffffffffffffffffffffffffff\n      and\n      0xffffffffffffffffffffffffffffffffffffffff\n      and\n      0xffffffffffffffffffffffffffffffffffffffff\n      and\n      dup2\n      mstore\n      0x20\n      add\n      0x05\n      dup3\n      add\n      0x00\n      swap1\n      sload\n      swap1\n      0x0100\n      exp\n      swap1\n      div\n      0xffffffffffffffffffffffffffffffffffffffff\n      and\n      0xffffffffffffffffffffffffffffffffffffffff\n      and\n      0xffffffffffffffffffffffffffffffffffffffff\n      and\n      dup2\n      mstore\n      0x20\n      add\n      0x05\n      dup3\n      add\n      0x14\n      swap1\n      sload\n      swap1\n      0x0100\n      exp\n      swap1\n      div\n      0xff\n      and\n      iszero\n      iszero\n      iszero\n      iszero\n      dup2\n      mstore\n      pop\n      pop\n        /* \"contracts/GeekNftMarketPlace.sol\":3743:3749  myNfts */\n      dup4\n        /* \"contracts/GeekNftMarketPlace.sol\":3750:3758  nftIndex */\n      dup4\n        /* \"contracts/GeekNftMarketPlace.sol\":3743:3759  myNfts[nftIndex] */\n      dup2\n      mload\n      dup2\n      lt\n      tag_114\n      jumpi\n      mstore(0x00, 0x4e487b7100000000000000000000000000000000000000000000000000000000)\n      mstore(0x04, 0x32)\n      revert(0x00, 0x24)\n    tag_114:\n      0x20\n      mul\n      0x20\n      add\n      add\n        /* \"contracts/GeekNftMarketPlace.sol\":3743:3773  myNfts[nftIndex] = _idToNft[i] */\n      dup2\n      swap1\n      mstore\n      pop\n        /* \"contracts/GeekNftMarketPlace.sol\":3791:3802  nftIndex ++ */\n      dup2\n      dup1\n      tag_115\n      swap1\n      tag_84\n      jump\t// in\n    tag_115:\n      swap3\n      pop\n      pop\n        /* \"contracts/GeekNftMarketPlace.sol\":3689:3817  if(_idToNft[i].owner == msg.sender) {... */\n    tag_113:\n        /* \"contracts/GeekNftMarketPlace.sol\":3670:3673  i++ */\n      dup1\n      dup1\n      tag_116\n      swap1\n      tag_84\n      jump\t// in\n    tag_116:\n      swap2\n      pop\n      pop\n        /* \"contracts/GeekNftMarketPlace.sol\":3637:3827  for (uint i = 1; i <= nftsCount; i++) {... */\n      jump(tag_110)\n    tag_111:\n      pop\n        /* \"contracts/GeekNftMarketPlace.sol\":3844:3850  myNfts */\n      dup2\n        /* \"contracts/GeekNftMarketPlace.sol\":3837:3850  return myNfts */\n      swap5\n      pop\n      pop\n      pop\n      pop\n      pop\n        /* \"contracts/GeekNftMarketPlace.sol\":3253:3857  function getMyOwnedNfts() public view returns (NFT[] memory) {... */\n      swap1\n      jump\t// out\n        /* \"contracts/GeekNftMarketPlace.sol\":1204:1929  function listNFT(address _nftContract, uint _tokenId, uint _price) public payable nonReentrant{... */\n    tag_34:\n        /* \"contracts/RenntrancyGuard.sol\":170:171  2 */\n      0x02\n        /* \"contracts/RenntrancyGuard.sol\":309:316  _status */\n      sload(0x00)\n        /* \"contracts/RenntrancyGuard.sol\":309:328  _status != _ENTERED */\n      eq\n      iszero\n        /* \"contracts/RenntrancyGuard.sol\":301:364  require(_status != _ENTERED, \"ReentrancyGuard: reentrant call\") */\n      tag_118\n      jumpi\n      mload(0x40)\n      0x08c379a000000000000000000000000000000000000000000000000000000000\n      dup2\n      mstore\n      0x04\n      add\n      tag_119\n      swap1\n      tag_42\n      jump\t// in\n    tag_119:\n      mload(0x40)\n      dup1\n      swap2\n      sub\n      swap1\n      revert\n    tag_118:\n        /* \"contracts/RenntrancyGuard.sol\":170:171  2 */\n      0x02\n        /* \"contracts/RenntrancyGuard.sol\":374:381  _status */\n      0x00\n        /* \"contracts/RenntrancyGuard.sol\":374:392  _status = _ENTERED */\n      dup2\n      swap1\n      sstore\n      pop\n        /* \"contracts/GeekNftMarketPlace.sol\":1325:1326  0 */\n      0x00\n        /* \"contracts/GeekNftMarketPlace.sol\":1316:1322  _price */\n      dup2\n        /* \"contracts/GeekNftMarketPlace.sol\":1316:1326  _price > 0 */\n      gt\n        /* \"contracts/GeekNftMarketPlace.sol\":1308:1359  require(_price > 0, \"Price must be at least 1 wei\") */\n      tag_121\n      jumpi\n      mload(0x40)\n      0x08c379a000000000000000000000000000000000000000000000000000000000\n      dup2\n      mstore\n      0x04\n      add\n      tag_122\n      swap1\n      tag_46\n      jump\t// in\n    tag_122:\n      mload(0x40)\n      dup1\n      swap2\n      sub\n      swap1\n      revert\n    tag_121:\n        /* \"contracts/GeekNftMarketPlace.sol\":1390:1401  LISTING_FEE */\n      sload(0x03)\n        /* \"contracts/GeekNftMarketPlace.sol\":1377:1386  msg.value */\n      callvalue\n        /* \"contracts/GeekNftMarketPlace.sol\":1377:1401  msg.value == LISTING_FEE */\n      eq\n        /* \"contracts/GeekNftMarketPlace.sol\":1369:1438  require(msg.value == LISTING_FEE, \"Not enough ether for listing fee\") */\n      tag_123\n      jumpi\n      mload(0x40)\n      0x08c379a000000000000000000000000000000000000000000000000000000000\n      dup2\n      mstore\n      0x04\n      add\n      tag_124\n      swap1\n      tag_49\n      jump\t// in\n    tag_124:\n      mload(0x40)\n      dup1\n      swap2\n      sub\n      swap1\n      revert\n    tag_123:\n        /* \"contracts/GeekNftMarketPlace.sol\":1466:1478  _nftContract */\n      dup3\n        /* \"contracts/GeekNftMarketPlace.sol\":1449:1492  GeekNftInterface(_nftContract).transferFrom */\n      0xffffffffffffffffffffffffffffffffffffffff\n      and\n      0x23b872dd\n        /* \"contracts/GeekNftMarketPlace.sol\":1493:1503  msg.sender */\n      caller\n        /* \"contracts/GeekNftMarketPlace.sol\":1513:1517  this */\n      address\n        /* \"contracts/GeekNftMarketPlace.sol\":1520:1528  _tokenId */\n      dup6\n        /* \"contracts/GeekNftMarketPlace.sol\":1449:1529  GeekNftInterface(_nftContract).transferFrom(msg.sender, address(this), _tokenId) */\n      mload(0x40)\n      dup5\n      0xffffffff\n      and\n      0xe0\n      shl\n      dup2\n      mstore\n      0x04\n      add\n      tag_125\n      swap4\n      swap3\n      swap2\n      swap1\n      tag_51\n      jump\t// in\n    tag_125:\n      0x00\n      mload(0x40)\n      dup1\n      dup4\n      sub\n      dup2\n      0x00\n      dup8\n      dup1\n      extcodesize\n      iszero\n      dup1\n      iszero\n      tag_126\n      jumpi\n      0x00\n      dup1\n      revert\n    tag_126:\n      pop\n      gas\n      call\n      iszero\n      dup1\n      iszero\n      tag_128\n      jumpi\n      returndatasize\n      0x00\n      dup1\n      returndatacopy\n      revert(0x00, returndatasize)\n    tag_128:\n      pop\n      pop\n      pop\n      pop\n        /* \"contracts/GeekNftMarketPlace.sol\":1539:1561  _nftsCount.increment() */\n      tag_129\n        /* \"contracts/GeekNftMarketPlace.sol\":1539:1549  _nftsCount */\n      0x02\n        /* \"contracts/GeekNftMarketPlace.sol\":1539:1559  _nftsCount.increment */\n      tag_74\n        /* \"contracts/GeekNftMarketPlace.sol\":1539:1561  _nftsCount.increment() */\n      jump\t// in\n    tag_129:\n        /* \"contracts/GeekNftMarketPlace.sol\":1593:1794  NFT(... */\n      mload(0x40)\n      dup1\n      0xe0\n      add\n      0x40\n      mstore\n      dup1\n        /* \"contracts/GeekNftMarketPlace.sol\":1610:1622  _nftContract */\n      dup5\n        /* \"contracts/GeekNftMarketPlace.sol\":1593:1794  NFT(... */\n      0xffffffffffffffffffffffffffffffffffffffff\n      and\n      dup2\n      mstore\n      0x20\n      add\n        /* \"contracts/GeekNftMarketPlace.sol\":1636:1644  _tokenId */\n      dup4\n        /* \"contracts/GeekNftMarketPlace.sol\":1593:1794  NFT(... */\n      dup2\n      mstore\n      0x20\n      add\n        /* \"contracts/GeekNftMarketPlace.sol\":1658:1664  _price */\n      dup3\n        /* \"contracts/GeekNftMarketPlace.sol\":1593:1794  NFT(... */\n      dup2\n      mstore\n      0x20\n      add\n        /* \"contracts/GeekNftMarketPlace.sol\":1686:1696  msg.sender */\n      caller\n        /* \"contracts/GeekNftMarketPlace.sol\":1593:1794  NFT(... */\n      0xffffffffffffffffffffffffffffffffffffffff\n      and\n      dup2\n      mstore\n      0x20\n      add\n        /* \"contracts/GeekNftMarketPlace.sol\":1727:1731  this */\n      address\n        /* \"contracts/GeekNftMarketPlace.sol\":1593:1794  NFT(... */\n      0xffffffffffffffffffffffffffffffffffffffff\n      and\n      dup2\n      mstore\n      0x20\n      add\n        /* \"contracts/GeekNftMarketPlace.sol\":1755:1765  msg.sender */\n      caller\n        /* \"contracts/GeekNftMarketPlace.sol\":1593:1794  NFT(... */\n      0xffffffffffffffffffffffffffffffffffffffff\n      and\n      dup2\n      mstore\n      0x20\n      add\n        /* \"contracts/GeekNftMarketPlace.sol\":1780:1784  true */\n      0x01\n        /* \"contracts/GeekNftMarketPlace.sol\":1593:1794  NFT(... */\n      iszero\n      iszero\n      dup2\n      mstore\n      pop\n        /* \"contracts/GeekNftMarketPlace.sol\":1572:1580  _idToNft */\n      0x05\n        /* \"contracts/GeekNftMarketPlace.sol\":1572:1590  _idToNft[_tokenId] */\n      0x00\n        /* \"contracts/GeekNftMarketPlace.sol\":1581:1589  _tokenId */\n      dup5\n        /* \"contracts/GeekNftMarketPlace.sol\":1572:1590  _idToNft[_tokenId] */\n      dup2\n      mstore\n      0x20\n      add\n      swap1\n      dup2\n      mstore\n      0x20\n      add\n      0x00\n      keccak256\n        /* \"contracts/GeekNftMarketPlace.sol\":1572:1794  _idToNft[_tokenId] = NFT(... */\n      0x00\n      dup3\n      add\n      mload\n      dup2\n      0x00\n      add\n      exp(0x0100, 0x00)\n      dup2\n      sload\n      dup2\n      0xffffffffffffffffffffffffffffffffffffffff\n      mul\n      not\n      and\n      swap1\n      dup4\n      0xffffffffffffffffffffffffffffffffffffffff\n      and\n      mul\n      or\n      swap1\n      sstore\n      pop\n      0x20\n      dup3\n      add\n      mload\n      dup2\n      0x01\n      add\n      sstore\n      0x40\n      dup3\n      add\n      mload\n      dup2\n      0x02\n      add\n      sstore\n      0x60\n      dup3\n      add\n      mload\n      dup2\n      0x03\n      add\n      exp(0x0100, 0x00)\n      dup2\n      sload\n      dup2\n      0xffffffffffffffffffffffffffffffffffffffff\n      mul\n      not\n      and\n      swap1\n      dup4\n      0xffffffffffffffffffffffffffffffffffffffff\n      and\n      mul\n      or\n      swap1\n      sstore\n      pop\n      0x80\n      dup3\n      add\n      mload\n      dup2\n      0x04\n      add\n      exp(0x0100, 0x00)\n      dup2\n      sload\n      dup2\n      0xffffffffffffffffffffffffffffffffffffffff\n      mul\n      not\n      and\n      swap1\n      dup4\n      0xffffffffffffffffffffffffffffffffffffffff\n      and\n      mul\n      or\n      swap1\n      sstore\n      pop\n      0xa0\n      dup3\n      add\n      mload\n      dup2\n      0x05\n      add\n      exp(0x0100, 0x00)\n      dup2\n      sload\n      dup2\n      0xffffffffffffffffffffffffffffffffffffffff\n      mul\n      not\n      and\n      swap1\n      dup4\n      0xffffffffffffffffffffffffffffffffffffffff\n      and\n      mul\n      or\n      swap1\n      sstore\n      pop\n      0xc0\n      dup3\n      add\n      mload\n      dup2\n      0x05\n      add\n      exp(0x0100, 0x14)\n      dup2\n      sload\n      dup2\n      0xff\n      mul\n      not\n      and\n      swap1\n      dup4\n      iszero\n      iszero\n      mul\n      or\n      swap1\n      sstore\n      pop\n      swap1\n      pop\n      pop\n        /* \"contracts/GeekNftMarketPlace.sol\":1805:1818  _marketOwwner */\n      0x04\n      0x00\n      swap1\n      sload\n      swap1\n      0x0100\n      exp\n      swap1\n      div\n      0xffffffffffffffffffffffffffffffffffffffff\n      and\n        /* \"contracts/GeekNftMarketPlace.sol\":1805:1827  _marketOwwner.transfer */\n      0xffffffffffffffffffffffffffffffffffffffff\n      and\n        /* \"contracts/GeekNftMarketPlace.sol\":1805:1838  _marketOwwner.transfer(msg.value) */\n      0x08fc\n        /* \"contracts/GeekNftMarketPlace.sol\":1828:1837  msg.value */\n      callvalue\n        /* \"contracts/GeekNftMarketPlace.sol\":1805:1838  _marketOwwner.transfer(msg.value) */\n      swap1\n      dup2\n      iszero\n      mul\n      swap1\n      mload(0x40)\n      0x00\n      mload(0x40)\n      dup1\n      dup4\n      sub\n      dup2\n      dup6\n      dup9\n      dup9\n      call\n      swap4\n      pop\n      pop\n      pop\n      pop\n      iszero\n      dup1\n      iszero\n      tag_131\n      jumpi\n      returndatasize\n      0x00\n      dup1\n      returndatacopy\n      revert(0x00, returndatasize)\n    tag_131:\n      pop\n        /* \"contracts/GeekNftMarketPlace.sol\":1908:1912  this */\n      address\n        /* \"contracts/GeekNftMarketPlace.sol\":1854:1922  NFTListed(_nftContract, _tokenId, msg.sender, address(this), _price) */\n      0xffffffffffffffffffffffffffffffffffffffff\n      and\n        /* \"contracts/GeekNftMarketPlace.sol\":1888:1898  msg.sender */\n      caller\n        /* \"contracts/GeekNftMarketPlace.sol\":1854:1922  NFTListed(_nftContract, _tokenId, msg.sender, address(this), _price) */\n      0xffffffffffffffffffffffffffffffffffffffff\n      and\n      0xa0c6c0d02d86fdacecbaa5fdf5894bab204e31a778250474108540733a9b8d19\n        /* \"contracts/GeekNftMarketPlace.sol\":1864:1876  _nftContract */\n      dup6\n        /* \"contracts/GeekNftMarketPlace.sol\":1878:1886  _tokenId */\n      dup6\n        /* \"contracts/GeekNftMarketPlace.sol\":1915:1921  _price */\n      dup6\n        /* \"contracts/GeekNftMarketPlace.sol\":1854:1922  NFTListed(_nftContract, _tokenId, msg.sender, address(this), _price) */\n      mload(0x40)\n      tag_132\n      swap4\n      swap3\n      swap2\n      swap1\n      tag_58\n      jump\t// in\n    tag_132:\n      mload(0x40)\n      dup1\n      swap2\n      sub\n      swap1\n      log3\n        /* \"contracts/RenntrancyGuard.sol\":127:128  1 */\n      0x01\n        /* \"contracts/RenntrancyGuard.sol\":413:420  _status */\n      0x00\n        /* \"contracts/RenntrancyGuard.sol\":413:435  _status = _NOT_ENTERED */\n      dup2\n      swap1\n      sstore\n      pop\n        /* \"contracts/GeekNftMarketPlace.sol\":1204:1929  function listNFT(address _nftContract, uint _tokenId, uint _price) public payable nonReentrant{... */\n      pop\n      pop\n      pop\n      jump\t// out\n        /* \"contracts/GeekNftMarketPlace.sol\":1073:1159  function getListingFee() public view returns (uint){... */\n    tag_37:\n        /* \"contracts/GeekNftMarketPlace.sol\":1119:1123  uint */\n      0x00\n        /* \"contracts/GeekNftMarketPlace.sol\":1141:1152  LISTING_FEE */\n      sload(0x03)\n        /* \"contracts/GeekNftMarketPlace.sol\":1134:1152  return LISTING_FEE */\n      swap1\n      pop\n        /* \"contracts/GeekNftMarketPlace.sol\":1073:1159  function getListingFee() public view returns (uint){... */\n      swap1\n      jump\t// out\n        /* \"@openzeppelin/contracts/utils/Counters.sol\":1074:1303  function decrement(Counter storage counter) internal {... */\n    tag_56:\n        /* \"@openzeppelin/contracts/utils/Counters.sol\":1137:1150  uint256 value */\n      0x00\n        /* \"@openzeppelin/contracts/utils/Counters.sol\":1153:1160  counter */\n      dup2\n        /* \"@openzeppelin/contracts/utils/Counters.sol\":1153:1167  counter._value */\n      0x00\n      add\n      sload\n        /* \"@openzeppelin/contracts/utils/Counters.sol\":1137:1167  uint256 value = counter._value */\n      swap1\n      pop\n        /* \"@openzeppelin/contracts/utils/Counters.sol\":1193:1194  0 */\n      0x00\n        /* \"@openzeppelin/contracts/utils/Counters.sol\":1185:1190  value */\n      dup2\n        /* \"@openzeppelin/contracts/utils/Counters.sol\":1185:1194  value > 0 */\n      gt\n        /* \"@openzeppelin/contracts/utils/Counters.sol\":1177:1226  require(value > 0, \"Counter: decrement overflow\") */\n      tag_135\n      jumpi\n      mload(0x40)\n      0x08c379a000000000000000000000000000000000000000000000000000000000\n      dup2\n      mstore\n      0x04\n      add\n      tag_136\n      swap1\n      tag_137\n      jump\t// in\n    tag_136:\n      mload(0x40)\n      dup1\n      swap2\n      sub\n      swap1\n      revert\n    tag_135:\n        /* \"@openzeppelin/contracts/utils/Counters.sol\":1285:1286  1 */\n      0x01\n        /* \"@openzeppelin/contracts/utils/Counters.sol\":1277:1282  value */\n      dup2\n        /* \"@openzeppelin/contracts/utils/Counters.sol\":1277:1286  value - 1 */\n      sub\n        /* \"@openzeppelin/contracts/utils/Counters.sol\":1260:1267  counter */\n      dup3\n        /* \"@openzeppelin/contracts/utils/Counters.sol\":1260:1274  counter._value */\n      0x00\n      add\n        /* \"@openzeppelin/contracts/utils/Counters.sol\":1260:1286  counter._value = value - 1 */\n      dup2\n      swap1\n      sstore\n      pop\n        /* \"@openzeppelin/contracts/utils/Counters.sol\":1074:1303  function decrement(Counter storage counter) internal {... */\n      pop\n      pop\n      jump\t// out\n        /* \"@openzeppelin/contracts/utils/Counters.sol\":945:1068  function increment(Counter storage counter) internal {... */\n    tag_74:\n        /* \"@openzeppelin/contracts/utils/Counters.sol\":1050:1051  1 */\n      0x01\n        /* \"@openzeppelin/contracts/utils/Counters.sol\":1032:1039  counter */\n      dup2\n        /* \"@openzeppelin/contracts/utils/Counters.sol\":1032:1046  counter._value */\n      0x00\n      add\n      0x00\n        /* \"@openzeppelin/contracts/utils/Counters.sol\":1032:1051  counter._value += 1 */\n      dup3\n      dup3\n      sload\n      add\n      swap3\n      pop\n      pop\n      dup2\n      swap1\n      sstore\n      pop\n        /* \"@openzeppelin/contracts/utils/Counters.sol\":945:1068  function increment(Counter storage counter) internal {... */\n      pop\n      jump\t// out\n        /* \"@openzeppelin/contracts/utils/Counters.sol\":827:939  function current(Counter storage counter) internal view returns (uint256) {... */\n    tag_78:\n        /* \"@openzeppelin/contracts/utils/Counters.sol\":892:899  uint256 */\n      0x00\n        /* \"@openzeppelin/contracts/utils/Counters.sol\":918:925  counter */\n      dup2\n        /* \"@openzeppelin/contracts/utils/Counters.sol\":918:932  counter._value */\n      0x00\n      add\n      sload\n        /* \"@openzeppelin/contracts/utils/Counters.sol\":911:932  return counter._value */\n      swap1\n      pop\n        /* \"@openzeppelin/contracts/utils/Counters.sol\":827:939  function current(Counter storage counter) internal view returns (uint256) {... */\n      swap2\n      swap1\n      pop\n      jump\t// out\n    tag_90:\n      mload(0x40)\n      dup1\n      0xe0\n      add\n      0x40\n      mstore\n      dup1\n      and(0xffffffffffffffffffffffffffffffffffffffff, 0x00)\n      dup2\n      mstore\n      0x20\n      add\n      0x00\n      dup2\n      mstore\n      0x20\n      add\n      0x00\n      dup2\n      mstore\n      0x20\n      add\n      and(0xffffffffffffffffffffffffffffffffffffffff, 0x00)\n      dup2\n      mstore\n      0x20\n      add\n      and(0xffffffffffffffffffffffffffffffffffffffff, 0x00)\n      dup2\n      mstore\n      0x20\n      add\n      and(0xffffffffffffffffffffffffffffffffffffffff, 0x00)\n      dup2\n      mstore\n      0x20\n      add\n      iszero(iszero(0x00))\n      dup2\n      mstore\n      pop\n      swap1\n      jump\t// out\n        /* \"#utility.yul\":7:146   */\n    tag_141:\n      0x00\n        /* \"#utility.yul\":91:97   */\n      dup2\n        /* \"#utility.yul\":78:98   */\n      calldataload\n        /* \"#utility.yul\":69:98   */\n      swap1\n      pop\n        /* \"#utility.yul\":107:140   */\n      tag_143\n        /* \"#utility.yul\":134:139   */\n      dup2\n        /* \"#utility.yul\":107:140   */\n      tag_144\n      jump\t// in\n    tag_143:\n        /* \"#utility.yul\":59:146   */\n      swap3\n      swap2\n      pop\n      pop\n      jump\t// out\n        /* \"#utility.yul\":152:291   */\n    tag_145:\n      0x00\n        /* \"#utility.yul\":236:242   */\n      dup2\n        /* \"#utility.yul\":223:243   */\n      calldataload\n        /* \"#utility.yul\":214:243   */\n      swap1\n      pop\n        /* \"#utility.yul\":252:285   */\n      tag_147\n        /* \"#utility.yul\":279:284   */\n      dup2\n        /* \"#utility.yul\":252:285   */\n      tag_148\n      jump\t// in\n    tag_147:\n        /* \"#utility.yul\":204:291   */\n      swap3\n      swap2\n      pop\n      pop\n      jump\t// out\n        /* \"#utility.yul\":297:704   */\n    tag_21:\n      0x00\n      dup1\n        /* \"#utility.yul\":422:424   */\n      0x40\n        /* \"#utility.yul\":410:419   */\n      dup4\n        /* \"#utility.yul\":401:408   */\n      dup6\n        /* \"#utility.yul\":397:420   */\n      sub\n        /* \"#utility.yul\":393:425   */\n      slt\n        /* \"#utility.yul\":390:392   */\n      iszero\n      tag_150\n      jumpi\n        /* \"#utility.yul\":438:439   */\n      0x00\n        /* \"#utility.yul\":435:436   */\n      dup1\n        /* \"#utility.yul\":428:440   */\n      revert\n        /* \"#utility.yul\":390:392   */\n    tag_150:\n        /* \"#utility.yul\":481:482   */\n      0x00\n        /* \"#utility.yul\":506:559   */\n      tag_151\n        /* \"#utility.yul\":551:558   */\n      dup6\n        /* \"#utility.yul\":542:548   */\n      dup3\n        /* \"#utility.yul\":531:540   */\n      dup7\n        /* \"#utility.yul\":527:549   */\n      add\n        /* \"#utility.yul\":506:559   */\n      tag_141\n      jump\t// in\n    tag_151:\n        /* \"#utility.yul\":496:559   */\n      swap3\n      pop\n        /* \"#utility.yul\":452:569   */\n      pop\n        /* \"#utility.yul\":608:610   */\n      0x20\n        /* \"#utility.yul\":634:687   */\n      tag_152\n        /* \"#utility.yul\":679:686   */\n      dup6\n        /* \"#utility.yul\":670:676   */\n      dup3\n        /* \"#utility.yul\":659:668   */\n      dup7\n        /* \"#utility.yul\":655:677   */\n      add\n        /* \"#utility.yul\":634:687   */\n      tag_145\n      jump\t// in\n    tag_152:\n        /* \"#utility.yul\":624:687   */\n      swap2\n      pop\n        /* \"#utility.yul\":579:697   */\n      pop\n        /* \"#utility.yul\":380:704   */\n      swap3\n      pop\n      swap3\n      swap1\n      pop\n      jump\t// out\n        /* \"#utility.yul\":710:1262   */\n    tag_12:\n      0x00\n      dup1\n      0x00\n        /* \"#utility.yul\":852:854   */\n      0x60\n        /* \"#utility.yul\":840:849   */\n      dup5\n        /* \"#utility.yul\":831:838   */\n      dup7\n        /* \"#utility.yul\":827:850   */\n      sub\n        /* \"#utility.yul\":823:855   */\n      slt\n        /* \"#utility.yul\":820:822   */\n      iszero\n      tag_154\n      jumpi\n        /* \"#utility.yul\":868:869   */\n      0x00\n        /* \"#utility.yul\":865:866   */\n      dup1\n        /* \"#utility.yul\":858:870   */\n      revert\n        /* \"#utility.yul\":820:822   */\n    tag_154:\n        /* \"#utility.yul\":911:912   */\n      0x00\n        /* \"#utility.yul\":936:989   */\n      tag_155\n        /* \"#utility.yul\":981:988   */\n      dup7\n        /* \"#utility.yul\":972:978   */\n      dup3\n        /* \"#utility.yul\":961:970   */\n      dup8\n        /* \"#utility.yul\":957:979   */\n      add\n        /* \"#utility.yul\":936:989   */\n      tag_141\n      jump\t// in\n    tag_155:\n        /* \"#utility.yul\":926:989   */\n      swap4\n      pop\n        /* \"#utility.yul\":882:999   */\n      pop\n        /* \"#utility.yul\":1038:1040   */\n      0x20\n        /* \"#utility.yul\":1064:1117   */\n      tag_156\n        /* \"#utility.yul\":1109:1116   */\n      dup7\n        /* \"#utility.yul\":1100:1106   */\n      dup3\n        /* \"#utility.yul\":1089:1098   */\n      dup8\n        /* \"#utility.yul\":1085:1107   */\n      add\n        /* \"#utility.yul\":1064:1117   */\n      tag_145\n      jump\t// in\n    tag_156:\n        /* \"#utility.yul\":1054:1117   */\n      swap3\n      pop\n        /* \"#utility.yul\":1009:1127   */\n      pop\n        /* \"#utility.yul\":1166:1168   */\n      0x40\n        /* \"#utility.yul\":1192:1245   */\n      tag_157\n        /* \"#utility.yul\":1237:1244   */\n      dup7\n        /* \"#utility.yul\":1228:1234   */\n      dup3\n        /* \"#utility.yul\":1217:1226   */\n      dup8\n        /* \"#utility.yul\":1213:1235   */\n      add\n        /* \"#utility.yul\":1192:1245   */\n      tag_145\n      jump\t// in\n    tag_157:\n        /* \"#utility.yul\":1182:1245   */\n      swap2\n      pop\n        /* \"#utility.yul\":1137:1255   */\n      pop\n        /* \"#utility.yul\":810:1262   */\n      swap3\n      pop\n      swap3\n      pop\n      swap3\n      jump\t// out\n        /* \"#utility.yul\":1268:1527   */\n    tag_158:\n      0x00\n        /* \"#utility.yul\":1398:1484   */\n      tag_160\n        /* \"#utility.yul\":1480:1483   */\n      dup4\n        /* \"#utility.yul\":1472:1478   */\n      dup4\n        /* \"#utility.yul\":1398:1484   */\n      tag_161\n      jump\t// in\n    tag_160:\n        /* \"#utility.yul\":1516:1520   */\n      0xe0\n        /* \"#utility.yul\":1511:1514   */\n      dup4\n        /* \"#utility.yul\":1507:1521   */\n      add\n        /* \"#utility.yul\":1493:1521   */\n      swap1\n      pop\n        /* \"#utility.yul\":1388:1527   */\n      swap3\n      swap2\n      pop\n      pop\n      jump\t// out\n        /* \"#utility.yul\":1533:1680   */\n    tag_162:\n        /* \"#utility.yul\":1628:1673   */\n      tag_164\n        /* \"#utility.yul\":1667:1672   */\n      dup2\n        /* \"#utility.yul\":1628:1673   */\n      tag_165\n      jump\t// in\n    tag_164:\n        /* \"#utility.yul\":1623:1626   */\n      dup3\n        /* \"#utility.yul\":1616:1674   */\n      mstore\n        /* \"#utility.yul\":1606:1680   */\n      pop\n      pop\n      jump\t// out\n        /* \"#utility.yul\":1686:1818   */\n    tag_166:\n        /* \"#utility.yul\":1779:1811   */\n      tag_168\n        /* \"#utility.yul\":1805:1810   */\n      dup2\n        /* \"#utility.yul\":1779:1811   */\n      tag_169\n      jump\t// in\n    tag_168:\n        /* \"#utility.yul\":1774:1777   */\n      dup3\n        /* \"#utility.yul\":1767:1812   */\n      mstore\n        /* \"#utility.yul\":1757:1818   */\n      pop\n      pop\n      jump\t// out\n        /* \"#utility.yul\":1824:1932   */\n    tag_170:\n        /* \"#utility.yul\":1901:1925   */\n      tag_172\n        /* \"#utility.yul\":1919:1924   */\n      dup2\n        /* \"#utility.yul\":1901:1925   */\n      tag_173\n      jump\t// in\n    tag_172:\n        /* \"#utility.yul\":1896:1899   */\n      dup3\n        /* \"#utility.yul\":1889:1926   */\n      mstore\n        /* \"#utility.yul\":1879:1932   */\n      pop\n      pop\n      jump\t// out\n        /* \"#utility.yul\":1938:2056   */\n    tag_174:\n        /* \"#utility.yul\":2025:2049   */\n      tag_176\n        /* \"#utility.yul\":2043:2048   */\n      dup2\n        /* \"#utility.yul\":2025:2049   */\n      tag_173\n      jump\t// in\n    tag_176:\n        /* \"#utility.yul\":2020:2023   */\n      dup3\n        /* \"#utility.yul\":2013:2050   */\n      mstore\n        /* \"#utility.yul\":2003:2056   */\n      pop\n      pop\n      jump\t// out\n        /* \"#utility.yul\":2136:3028   */\n    tag_177:\n      0x00\n        /* \"#utility.yul\":2324:2398   */\n      tag_179\n        /* \"#utility.yul\":2392:2397   */\n      dup3\n        /* \"#utility.yul\":2324:2398   */\n      tag_180\n      jump\t// in\n    tag_179:\n        /* \"#utility.yul\":2414:2520   */\n      tag_181\n        /* \"#utility.yul\":2513:2519   */\n      dup2\n        /* \"#utility.yul\":2508:2511   */\n      dup6\n        /* \"#utility.yul\":2414:2520   */\n      tag_182\n      jump\t// in\n    tag_181:\n        /* \"#utility.yul\":2407:2520   */\n      swap4\n      pop\n        /* \"#utility.yul\":2544:2620   */\n      tag_183\n        /* \"#utility.yul\":2614:2619   */\n      dup4\n        /* \"#utility.yul\":2544:2620   */\n      tag_184\n      jump\t// in\n    tag_183:\n        /* \"#utility.yul\":2643:2650   */\n      dup1\n        /* \"#utility.yul\":2674:2675   */\n      0x00\n        /* \"#utility.yul\":2659:3003   */\n    tag_185:\n        /* \"#utility.yul\":2684:2690   */\n      dup4\n        /* \"#utility.yul\":2681:2682   */\n      dup2\n        /* \"#utility.yul\":2678:2691   */\n      lt\n        /* \"#utility.yul\":2659:3003   */\n      iszero\n      tag_187\n      jumpi\n        /* \"#utility.yul\":2760:2766   */\n      dup2\n        /* \"#utility.yul\":2754:2767   */\n      mload\n        /* \"#utility.yul\":2787:2890   */\n      tag_188\n        /* \"#utility.yul\":2886:2889   */\n      dup9\n        /* \"#utility.yul\":2871:2884   */\n      dup3\n        /* \"#utility.yul\":2787:2890   */\n      tag_158\n      jump\t// in\n    tag_188:\n        /* \"#utility.yul\":2780:2890   */\n      swap8\n      pop\n        /* \"#utility.yul\":2913:2993   */\n      tag_189\n        /* \"#utility.yul\":2986:2992   */\n      dup4\n        /* \"#utility.yul\":2913:2993   */\n      tag_190\n      jump\t// in\n    tag_189:\n        /* \"#utility.yul\":2903:2993   */\n      swap3\n      pop\n        /* \"#utility.yul\":2719:3003   */\n      pop\n        /* \"#utility.yul\":2706:2707   */\n      0x01\n        /* \"#utility.yul\":2703:2704   */\n      dup2\n        /* \"#utility.yul\":2699:2708   */\n      add\n        /* \"#utility.yul\":2694:2708   */\n      swap1\n      pop\n        /* \"#utility.yul\":2659:3003   */\n      jump(tag_185)\n    tag_187:\n        /* \"#utility.yul\":2663:2677   */\n      pop\n        /* \"#utility.yul\":3019:3022   */\n      dup6\n        /* \"#utility.yul\":3012:3022   */\n      swap4\n      pop\n        /* \"#utility.yul\":2300:3028   */\n      pop\n      pop\n      pop\n      swap3\n      swap2\n      pop\n      pop\n      jump\t// out\n        /* \"#utility.yul\":3034:3133   */\n    tag_191:\n        /* \"#utility.yul\":3105:3126   */\n      tag_193\n        /* \"#utility.yul\":3120:3125   */\n      dup2\n        /* \"#utility.yul\":3105:3126   */\n      tag_194\n      jump\t// in\n    tag_193:\n        /* \"#utility.yul\":3100:3103   */\n      dup3\n        /* \"#utility.yul\":3093:3127   */\n      mstore\n        /* \"#utility.yul\":3083:3133   */\n      pop\n      pop\n      jump\t// out\n        /* \"#utility.yul\":3139:3505   */\n    tag_195:\n      0x00\n        /* \"#utility.yul\":3302:3369   */\n      tag_197\n        /* \"#utility.yul\":3366:3368   */\n      0x1b\n        /* \"#utility.yul\":3361:3364   */\n      dup4\n        /* \"#utility.yul\":3302:3369   */\n      tag_198\n      jump\t// in\n    tag_197:\n        /* \"#utility.yul\":3295:3369   */\n      swap2\n      pop\n        /* \"#utility.yul\":3378:3471   */\n      tag_199\n        /* \"#utility.yul\":3467:3470   */\n      dup3\n        /* \"#utility.yul\":3378:3471   */\n      tag_200\n      jump\t// in\n    tag_199:\n        /* \"#utility.yul\":3496:3498   */\n      0x20\n        /* \"#utility.yul\":3491:3494   */\n      dup3\n        /* \"#utility.yul\":3487:3499   */\n      add\n        /* \"#utility.yul\":3480:3499   */\n      swap1\n      pop\n        /* \"#utility.yul\":3285:3505   */\n      swap2\n      swap1\n      pop\n      jump\t// out\n        /* \"#utility.yul\":3511:3877   */\n    tag_201:\n      0x00\n        /* \"#utility.yul\":3674:3741   */\n      tag_203\n        /* \"#utility.yul\":3738:3740   */\n      0x26\n        /* \"#utility.yul\":3733:3736   */\n      dup4\n        /* \"#utility.yul\":3674:3741   */\n      tag_198\n      jump\t// in\n    tag_203:\n        /* \"#utility.yul\":3667:3741   */\n      swap2\n      pop\n        /* \"#utility.yul\":3750:3843   */\n      tag_204\n        /* \"#utility.yul\":3839:3842   */\n      dup3\n        /* \"#utility.yul\":3750:3843   */\n      tag_205\n      jump\t// in\n    tag_204:\n        /* \"#utility.yul\":3868:3870   */\n      0x40\n        /* \"#utility.yul\":3863:3866   */\n      dup3\n        /* \"#utility.yul\":3859:3871   */\n      add\n        /* \"#utility.yul\":3852:3871   */\n      swap1\n      pop\n        /* \"#utility.yul\":3657:3877   */\n      swap2\n      swap1\n      pop\n      jump\t// out\n        /* \"#utility.yul\":3883:4249   */\n    tag_206:\n      0x00\n        /* \"#utility.yul\":4046:4113   */\n      tag_208\n        /* \"#utility.yul\":4110:4112   */\n      0x20\n        /* \"#utility.yul\":4105:4108   */\n      dup4\n        /* \"#utility.yul\":4046:4113   */\n      tag_198\n      jump\t// in\n    tag_208:\n        /* \"#utility.yul\":4039:4113   */\n      swap2\n      pop\n        /* \"#utility.yul\":4122:4215   */\n      tag_209\n        /* \"#utility.yul\":4211:4214   */\n      dup3\n        /* \"#utility.yul\":4122:4215   */\n      tag_210\n      jump\t// in\n    tag_209:\n        /* \"#utility.yul\":4240:4242   */\n      0x20\n        /* \"#utility.yul\":4235:4238   */\n      dup3\n        /* \"#utility.yul\":4231:4243   */\n      add\n        /* \"#utility.yul\":4224:4243   */\n      swap1\n      pop\n        /* \"#utility.yul\":4029:4249   */\n      swap2\n      swap1\n      pop\n      jump\t// out\n        /* \"#utility.yul\":4255:4621   */\n    tag_211:\n      0x00\n        /* \"#utility.yul\":4418:4485   */\n      tag_213\n        /* \"#utility.yul\":4482:4484   */\n      0x1f\n        /* \"#utility.yul\":4477:4480   */\n      dup4\n        /* \"#utility.yul\":4418:4485   */\n      tag_198\n      jump\t// in\n    tag_213:\n        /* \"#utility.yul\":4411:4485   */\n      swap2\n      pop\n        /* \"#utility.yul\":4494:4587   */\n      tag_214\n        /* \"#utility.yul\":4583:4586   */\n      dup3\n        /* \"#utility.yul\":4494:4587   */\n      tag_215\n      jump\t// in\n    tag_214:\n        /* \"#utility.yul\":4612:4614   */\n      0x20\n        /* \"#utility.yul\":4607:4610   */\n      dup3\n        /* \"#utility.yul\":4603:4615   */\n      add\n        /* \"#utility.yul\":4596:4615   */\n      swap1\n      pop\n        /* \"#utility.yul\":4401:4621   */\n      swap2\n      swap1\n      pop\n      jump\t// out\n        /* \"#utility.yul\":4627:4993   */\n    tag_216:\n      0x00\n        /* \"#utility.yul\":4790:4857   */\n      tag_218\n        /* \"#utility.yul\":4854:4856   */\n      0x1c\n        /* \"#utility.yul\":4849:4852   */\n      dup4\n        /* \"#utility.yul\":4790:4857   */\n      tag_198\n      jump\t// in\n    tag_218:\n        /* \"#utility.yul\":4783:4857   */\n      swap2\n      pop\n        /* \"#utility.yul\":4866:4959   */\n      tag_219\n        /* \"#utility.yul\":4955:4958   */\n      dup3\n        /* \"#utility.yul\":4866:4959   */\n      tag_220\n      jump\t// in\n    tag_219:\n        /* \"#utility.yul\":4984:4986   */\n      0x20\n        /* \"#utility.yul\":4979:4982   */\n      dup3\n        /* \"#utility.yul\":4975:4987   */\n      add\n        /* \"#utility.yul\":4968:4987   */\n      swap1\n      pop\n        /* \"#utility.yul\":4773:4993   */\n      swap2\n      swap1\n      pop\n      jump\t// out\n        /* \"#utility.yul\":5069:6487   */\n    tag_161:\n        /* \"#utility.yul\":5196:5200   */\n      0xe0\n        /* \"#utility.yul\":5191:5194   */\n      dup3\n        /* \"#utility.yul\":5187:5201   */\n      add\n        /* \"#utility.yul\":5290:5294   */\n      0x00\n        /* \"#utility.yul\":5283:5288   */\n      dup3\n        /* \"#utility.yul\":5279:5295   */\n      add\n        /* \"#utility.yul\":5273:5296   */\n      mload\n        /* \"#utility.yul\":5309:5372   */\n      tag_222\n        /* \"#utility.yul\":5366:5370   */\n      0x00\n        /* \"#utility.yul\":5361:5364   */\n      dup6\n        /* \"#utility.yul\":5357:5371   */\n      add\n        /* \"#utility.yul\":5343:5355   */\n      dup3\n        /* \"#utility.yul\":5309:5372   */\n      tag_170\n      jump\t// in\n    tag_222:\n        /* \"#utility.yul\":5211:5382   */\n      pop\n        /* \"#utility.yul\":5467:5471   */\n      0x20\n        /* \"#utility.yul\":5460:5465   */\n      dup3\n        /* \"#utility.yul\":5456:5472   */\n      add\n        /* \"#utility.yul\":5450:5473   */\n      mload\n        /* \"#utility.yul\":5486:5549   */\n      tag_223\n        /* \"#utility.yul\":5543:5547   */\n      0x20\n        /* \"#utility.yul\":5538:5541   */\n      dup6\n        /* \"#utility.yul\":5534:5548   */\n      add\n        /* \"#utility.yul\":5520:5532   */\n      dup3\n        /* \"#utility.yul\":5486:5549   */\n      tag_224\n      jump\t// in\n    tag_223:\n        /* \"#utility.yul\":5392:5559   */\n      pop\n        /* \"#utility.yul\":5642:5646   */\n      0x40\n        /* \"#utility.yul\":5635:5640   */\n      dup3\n        /* \"#utility.yul\":5631:5647   */\n      add\n        /* \"#utility.yul\":5625:5648   */\n      mload\n        /* \"#utility.yul\":5661:5724   */\n      tag_225\n        /* \"#utility.yul\":5718:5722   */\n      0x40\n        /* \"#utility.yul\":5713:5716   */\n      dup6\n        /* \"#utility.yul\":5709:5723   */\n      add\n        /* \"#utility.yul\":5695:5707   */\n      dup3\n        /* \"#utility.yul\":5661:5724   */\n      tag_224\n      jump\t// in\n    tag_225:\n        /* \"#utility.yul\":5569:5734   */\n      pop\n        /* \"#utility.yul\":5818:5822   */\n      0x60\n        /* \"#utility.yul\":5811:5816   */\n      dup3\n        /* \"#utility.yul\":5807:5823   */\n      add\n        /* \"#utility.yul\":5801:5824   */\n      mload\n        /* \"#utility.yul\":5837:5916   */\n      tag_226\n        /* \"#utility.yul\":5910:5914   */\n      0x60\n        /* \"#utility.yul\":5905:5908   */\n      dup6\n        /* \"#utility.yul\":5901:5915   */\n      add\n        /* \"#utility.yul\":5887:5899   */\n      dup3\n        /* \"#utility.yul\":5837:5916   */\n      tag_166\n      jump\t// in\n    tag_226:\n        /* \"#utility.yul\":5744:5926   */\n      pop\n        /* \"#utility.yul\":6009:6013   */\n      0x80\n        /* \"#utility.yul\":6002:6007   */\n      dup3\n        /* \"#utility.yul\":5998:6014   */\n      add\n        /* \"#utility.yul\":5992:6015   */\n      mload\n        /* \"#utility.yul\":6028:6107   */\n      tag_227\n        /* \"#utility.yul\":6101:6105   */\n      0x80\n        /* \"#utility.yul\":6096:6099   */\n      dup6\n        /* \"#utility.yul\":6092:6106   */\n      add\n        /* \"#utility.yul\":6078:6090   */\n      dup3\n        /* \"#utility.yul\":6028:6107   */\n      tag_166\n      jump\t// in\n    tag_227:\n        /* \"#utility.yul\":5936:6117   */\n      pop\n        /* \"#utility.yul\":6202:6206   */\n      0xa0\n        /* \"#utility.yul\":6195:6200   */\n      dup3\n        /* \"#utility.yul\":6191:6207   */\n      add\n        /* \"#utility.yul\":6185:6208   */\n      mload\n        /* \"#utility.yul\":6221:6300   */\n      tag_228\n        /* \"#utility.yul\":6294:6298   */\n      0xa0\n        /* \"#utility.yul\":6289:6292   */\n      dup6\n        /* \"#utility.yul\":6285:6299   */\n      add\n        /* \"#utility.yul\":6271:6283   */\n      dup3\n        /* \"#utility.yul\":6221:6300   */\n      tag_166\n      jump\t// in\n    tag_228:\n        /* \"#utility.yul\":6127:6310   */\n      pop\n        /* \"#utility.yul\":6394:6398   */\n      0xc0\n        /* \"#utility.yul\":6387:6392   */\n      dup3\n        /* \"#utility.yul\":6383:6399   */\n      add\n        /* \"#utility.yul\":6377:6400   */\n      mload\n        /* \"#utility.yul\":6413:6470   */\n      tag_229\n        /* \"#utility.yul\":6464:6468   */\n      0xc0\n        /* \"#utility.yul\":6459:6462   */\n      dup6\n        /* \"#utility.yul\":6455:6469   */\n      add\n        /* \"#utility.yul\":6441:6453   */\n      dup3\n        /* \"#utility.yul\":6413:6470   */\n      tag_191\n      jump\t// in\n    tag_229:\n        /* \"#utility.yul\":6320:6480   */\n      pop\n        /* \"#utility.yul\":5165:6487   */\n      pop\n      pop\n      pop\n      jump\t// out\n        /* \"#utility.yul\":6493:6601   */\n    tag_224:\n        /* \"#utility.yul\":6570:6594   */\n      tag_231\n        /* \"#utility.yul\":6588:6593   */\n      dup2\n        /* \"#utility.yul\":6570:6594   */\n      tag_232\n      jump\t// in\n    tag_231:\n        /* \"#utility.yul\":6565:6568   */\n      dup3\n        /* \"#utility.yul\":6558:6595   */\n      mstore\n        /* \"#utility.yul\":6548:6601   */\n      pop\n      pop\n      jump\t// out\n        /* \"#utility.yul\":6607:6725   */\n    tag_233:\n        /* \"#utility.yul\":6694:6718   */\n      tag_235\n        /* \"#utility.yul\":6712:6717   */\n      dup2\n        /* \"#utility.yul\":6694:6718   */\n      tag_232\n      jump\t// in\n    tag_235:\n        /* \"#utility.yul\":6689:6692   */\n      dup3\n        /* \"#utility.yul\":6682:6719   */\n      mstore\n        /* \"#utility.yul\":6672:6725   */\n      pop\n      pop\n      jump\t// out\n        /* \"#utility.yul\":6731:7189   */\n    tag_69:\n      0x00\n        /* \"#utility.yul\":6926:6928   */\n      0x60\n        /* \"#utility.yul\":6915:6924   */\n      dup3\n        /* \"#utility.yul\":6911:6929   */\n      add\n        /* \"#utility.yul\":6903:6929   */\n      swap1\n      pop\n        /* \"#utility.yul\":6939:7010   */\n      tag_237\n        /* \"#utility.yul\":7007:7008   */\n      0x00\n        /* \"#utility.yul\":6996:7005   */\n      dup4\n        /* \"#utility.yul\":6992:7009   */\n      add\n        /* \"#utility.yul\":6983:6989   */\n      dup7\n        /* \"#utility.yul\":6939:7010   */\n      tag_174\n      jump\t// in\n    tag_237:\n        /* \"#utility.yul\":7020:7100   */\n      tag_238\n        /* \"#utility.yul\":7096:7098   */\n      0x20\n        /* \"#utility.yul\":7085:7094   */\n      dup4\n        /* \"#utility.yul\":7081:7099   */\n      add\n        /* \"#utility.yul\":7072:7078   */\n      dup6\n        /* \"#utility.yul\":7020:7100   */\n      tag_162\n      jump\t// in\n    tag_238:\n        /* \"#utility.yul\":7110:7182   */\n      tag_239\n        /* \"#utility.yul\":7178:7180   */\n      0x40\n        /* \"#utility.yul\":7167:7176   */\n      dup4\n        /* \"#utility.yul\":7163:7181   */\n      add\n        /* \"#utility.yul\":7154:7160   */\n      dup5\n        /* \"#utility.yul\":7110:7182   */\n      tag_233\n      jump\t// in\n    tag_239:\n        /* \"#utility.yul\":6893:7189   */\n      swap5\n      swap4\n      pop\n      pop\n      pop\n      pop\n      jump\t// out\n        /* \"#utility.yul\":7195:7637   */\n    tag_51:\n      0x00\n        /* \"#utility.yul\":7382:7384   */\n      0x60\n        /* \"#utility.yul\":7371:7380   */\n      dup3\n        /* \"#utility.yul\":7367:7385   */\n      add\n        /* \"#utility.yul\":7359:7385   */\n      swap1\n      pop\n        /* \"#utility.yul\":7395:7466   */\n      tag_241\n        /* \"#utility.yul\":7463:7464   */\n      0x00\n        /* \"#utility.yul\":7452:7461   */\n      dup4\n        /* \"#utility.yul\":7448:7465   */\n      add\n        /* \"#utility.yul\":7439:7445   */\n      dup7\n        /* \"#utility.yul\":7395:7466   */\n      tag_174\n      jump\t// in\n    tag_241:\n        /* \"#utility.yul\":7476:7548   */\n      tag_242\n        /* \"#utility.yul\":7544:7546   */\n      0x20\n        /* \"#utility.yul\":7533:7542   */\n      dup4\n        /* \"#utility.yul\":7529:7547   */\n      add\n        /* \"#utility.yul\":7520:7526   */\n      dup6\n        /* \"#utility.yul\":7476:7548   */\n      tag_174\n      jump\t// in\n    tag_242:\n        /* \"#utility.yul\":7558:7630   */\n      tag_243\n        /* \"#utility.yul\":7626:7628   */\n      0x40\n        /* \"#utility.yul\":7615:7624   */\n      dup4\n        /* \"#utility.yul\":7611:7629   */\n      add\n        /* \"#utility.yul\":7602:7608   */\n      dup5\n        /* \"#utility.yul\":7558:7630   */\n      tag_233\n      jump\t// in\n    tag_243:\n        /* \"#utility.yul\":7349:7637   */\n      swap5\n      swap4\n      pop\n      pop\n      pop\n      pop\n      jump\t// out\n        /* \"#utility.yul\":7643:8085   */\n    tag_58:\n      0x00\n        /* \"#utility.yul\":7830:7832   */\n      0x60\n        /* \"#utility.yul\":7819:7828   */\n      dup3\n        /* \"#utility.yul\":7815:7833   */\n      add\n        /* \"#utility.yul\":7807:7833   */\n      swap1\n      pop\n        /* \"#utility.yul\":7843:7914   */\n      tag_245\n        /* \"#utility.yul\":7911:7912   */\n      0x00\n        /* \"#utility.yul\":7900:7909   */\n      dup4\n        /* \"#utility.yul\":7896:7913   */\n      add\n        /* \"#utility.yul\":7887:7893   */\n      dup7\n        /* \"#utility.yul\":7843:7914   */\n      tag_174\n      jump\t// in\n    tag_245:\n        /* \"#utility.yul\":7924:7996   */\n      tag_246\n        /* \"#utility.yul\":7992:7994   */\n      0x20\n        /* \"#utility.yul\":7981:7990   */\n      dup4\n        /* \"#utility.yul\":7977:7995   */\n      add\n        /* \"#utility.yul\":7968:7974   */\n      dup6\n        /* \"#utility.yul\":7924:7996   */\n      tag_233\n      jump\t// in\n    tag_246:\n        /* \"#utility.yul\":8006:8078   */\n      tag_247\n        /* \"#utility.yul\":8074:8076   */\n      0x40\n        /* \"#utility.yul\":8063:8072   */\n      dup4\n        /* \"#utility.yul\":8059:8077   */\n      add\n        /* \"#utility.yul\":8050:8056   */\n      dup5\n        /* \"#utility.yul\":8006:8078   */\n      tag_233\n      jump\t// in\n    tag_247:\n        /* \"#utility.yul\":7797:8085   */\n      swap5\n      swap4\n      pop\n      pop\n      pop\n      pop\n      jump\t// out\n        /* \"#utility.yul\":8091:8544   */\n    tag_27:\n      0x00\n        /* \"#utility.yul\":8312:8314   */\n      0x20\n        /* \"#utility.yul\":8301:8310   */\n      dup3\n        /* \"#utility.yul\":8297:8315   */\n      add\n        /* \"#utility.yul\":8289:8315   */\n      swap1\n      pop\n        /* \"#utility.yul\":8361:8370   */\n      dup2\n        /* \"#utility.yul\":8355:8359   */\n      dup2\n        /* \"#utility.yul\":8351:8371   */\n      sub\n        /* \"#utility.yul\":8347:8348   */\n      0x00\n        /* \"#utility.yul\":8336:8345   */\n      dup4\n        /* \"#utility.yul\":8332:8349   */\n      add\n        /* \"#utility.yul\":8325:8372   */\n      mstore\n        /* \"#utility.yul\":8389:8537   */\n      tag_249\n        /* \"#utility.yul\":8532:8536   */\n      dup2\n        /* \"#utility.yul\":8523:8529   */\n      dup5\n        /* \"#utility.yul\":8389:8537   */\n      tag_177\n      jump\t// in\n    tag_249:\n        /* \"#utility.yul\":8381:8537   */\n      swap1\n      pop\n        /* \"#utility.yul\":8279:8544   */\n      swap3\n      swap2\n      pop\n      pop\n      jump\t// out\n        /* \"#utility.yul\":8550:8969   */\n    tag_137:\n      0x00\n        /* \"#utility.yul\":8754:8756   */\n      0x20\n        /* \"#utility.yul\":8743:8752   */\n      dup3\n        /* \"#utility.yul\":8739:8757   */\n      add\n        /* \"#utility.yul\":8731:8757   */\n      swap1\n      pop\n        /* \"#utility.yul\":8803:8812   */\n      dup2\n        /* \"#utility.yul\":8797:8801   */\n      dup2\n        /* \"#utility.yul\":8793:8813   */\n      sub\n        /* \"#utility.yul\":8789:8790   */\n      0x00\n        /* \"#utility.yul\":8778:8787   */\n      dup4\n        /* \"#utility.yul\":8774:8791   */\n      add\n        /* \"#utility.yul\":8767:8814   */\n      mstore\n        /* \"#utility.yul\":8831:8962   */\n      tag_251\n        /* \"#utility.yul\":8957:8961   */\n      dup2\n        /* \"#utility.yul\":8831:8962   */\n      tag_195\n      jump\t// in\n    tag_251:\n        /* \"#utility.yul\":8823:8962   */\n      swap1\n      pop\n        /* \"#utility.yul\":8721:8969   */\n      swap2\n      swap1\n      pop\n      jump\t// out\n        /* \"#utility.yul\":8975:9394   */\n    tag_65:\n      0x00\n        /* \"#utility.yul\":9179:9181   */\n      0x20\n        /* \"#utility.yul\":9168:9177   */\n      dup3\n        /* \"#utility.yul\":9164:9182   */\n      add\n        /* \"#utility.yul\":9156:9182   */\n      swap1\n      pop\n        /* \"#utility.yul\":9228:9237   */\n      dup2\n        /* \"#utility.yul\":9222:9226   */\n      dup2\n        /* \"#utility.yul\":9218:9238   */\n      sub\n        /* \"#utility.yul\":9214:9215   */\n      0x00\n        /* \"#utility.yul\":9203:9212   */\n      dup4\n        /* \"#utility.yul\":9199:9216   */\n      add\n        /* \"#utility.yul\":9192:9239   */\n      mstore\n        /* \"#utility.yul\":9256:9387   */\n      tag_253\n        /* \"#utility.yul\":9382:9386   */\n      dup2\n        /* \"#utility.yul\":9256:9387   */\n      tag_201\n      jump\t// in\n    tag_253:\n        /* \"#utility.yul\":9248:9387   */\n      swap1\n      pop\n        /* \"#utility.yul\":9146:9394   */\n      swap2\n      swap1\n      pop\n      jump\t// out\n        /* \"#utility.yul\":9400:9819   */\n    tag_49:\n      0x00\n        /* \"#utility.yul\":9604:9606   */\n      0x20\n        /* \"#utility.yul\":9593:9602   */\n      dup3\n        /* \"#utility.yul\":9589:9607   */\n      add\n        /* \"#utility.yul\":9581:9607   */\n      swap1\n      pop\n        /* \"#utility.yul\":9653:9662   */\n      dup2\n        /* \"#utility.yul\":9647:9651   */\n      dup2\n        /* \"#utility.yul\":9643:9663   */\n      sub\n        /* \"#utility.yul\":9639:9640   */\n      0x00\n        /* \"#utility.yul\":9628:9637   */\n      dup4\n        /* \"#utility.yul\":9624:9641   */\n      add\n        /* \"#utility.yul\":9617:9664   */\n      mstore\n        /* \"#utility.yul\":9681:9812   */\n      tag_255\n        /* \"#utility.yul\":9807:9811   */\n      dup2\n        /* \"#utility.yul\":9681:9812   */\n      tag_206\n      jump\t// in\n    tag_255:\n        /* \"#utility.yul\":9673:9812   */\n      swap1\n      pop\n        /* \"#utility.yul\":9571:9819   */\n      swap2\n      swap1\n      pop\n      jump\t// out\n        /* \"#utility.yul\":9825:10244   */\n    tag_42:\n      0x00\n        /* \"#utility.yul\":10029:10031   */\n      0x20\n        /* \"#utility.yul\":10018:10027   */\n      dup3\n        /* \"#utility.yul\":10014:10032   */\n      add\n        /* \"#utility.yul\":10006:10032   */\n      swap1\n      pop\n        /* \"#utility.yul\":10078:10087   */\n      dup2\n        /* \"#utility.yul\":10072:10076   */\n      dup2\n        /* \"#utility.yul\":10068:10088   */\n      sub\n        /* \"#utility.yul\":10064:10065   */\n      0x00\n        /* \"#utility.yul\":10053:10062   */\n      dup4\n        /* \"#utility.yul\":10049:10066   */\n      add\n        /* \"#utility.yul\":10042:10089   */\n      mstore\n        /* \"#utility.yul\":10106:10237   */\n      tag_257\n        /* \"#utility.yul\":10232:10236   */\n      dup2\n        /* \"#utility.yul\":10106:10237   */\n      tag_211\n      jump\t// in\n    tag_257:\n        /* \"#utility.yul\":10098:10237   */\n      swap1\n      pop\n        /* \"#utility.yul\":9996:10244   */\n      swap2\n      swap1\n      pop\n      jump\t// out\n        /* \"#utility.yul\":10250:10669   */\n    tag_46:\n      0x00\n        /* \"#utility.yul\":10454:10456   */\n      0x20\n        /* \"#utility.yul\":10443:10452   */\n      dup3\n        /* \"#utility.yul\":10439:10457   */\n      add\n        /* \"#utility.yul\":10431:10457   */\n      swap1\n      pop\n        /* \"#utility.yul\":10503:10512   */\n      dup2\n        /* \"#utility.yul\":10497:10501   */\n      dup2\n        /* \"#utility.yul\":10493:10513   */\n      sub\n        /* \"#utility.yul\":10489:10490   */\n      0x00\n        /* \"#utility.yul\":10478:10487   */\n      dup4\n        /* \"#utility.yul\":10474:10491   */\n      add\n        /* \"#utility.yul\":10467:10514   */\n      mstore\n        /* \"#utility.yul\":10531:10662   */\n      tag_259\n        /* \"#utility.yul\":10657:10661   */\n      dup2\n        /* \"#utility.yul\":10531:10662   */\n      tag_216\n      jump\t// in\n    tag_259:\n        /* \"#utility.yul\":10523:10662   */\n      swap1\n      pop\n        /* \"#utility.yul\":10421:10669   */\n      swap2\n      swap1\n      pop\n      jump\t// out\n        /* \"#utility.yul\":10675:10897   */\n    tag_18:\n      0x00\n        /* \"#utility.yul\":10806:10808   */\n      0x20\n        /* \"#utility.yul\":10795:10804   */\n      dup3\n        /* \"#utility.yul\":10791:10809   */\n      add\n        /* \"#utility.yul\":10783:10809   */\n      swap1\n      pop\n        /* \"#utility.yul\":10819:10890   */\n      tag_261\n        /* \"#utility.yul\":10887:10888   */\n      0x00\n        /* \"#utility.yul\":10876:10885   */\n      dup4\n        /* \"#utility.yul\":10872:10889   */\n      add\n        /* \"#utility.yul\":10863:10869   */\n      dup5\n        /* \"#utility.yul\":10819:10890   */\n      tag_233\n      jump\t// in\n    tag_261:\n        /* \"#utility.yul\":10773:10897   */\n      swap3\n      swap2\n      pop\n      pop\n      jump\t// out\n        /* \"#utility.yul\":10903:11055   */\n    tag_184:\n      0x00\n        /* \"#utility.yul\":11013:11016   */\n      dup2\n        /* \"#utility.yul\":11005:11016   */\n      swap1\n      pop\n        /* \"#utility.yul\":11043:11047   */\n      0x20\n        /* \"#utility.yul\":11038:11041   */\n      dup3\n        /* \"#utility.yul\":11034:11048   */\n      add\n        /* \"#utility.yul\":11026:11048   */\n      swap1\n      pop\n        /* \"#utility.yul\":10995:11055   */\n      swap2\n      swap1\n      pop\n      jump\t// out\n        /* \"#utility.yul\":11061:11195   */\n    tag_180:\n      0x00\n        /* \"#utility.yul\":11182:11187   */\n      dup2\n        /* \"#utility.yul\":11176:11188   */\n      mload\n        /* \"#utility.yul\":11166:11188   */\n      swap1\n      pop\n        /* \"#utility.yul\":11155:11195   */\n      swap2\n      swap1\n      pop\n      jump\t// out\n        /* \"#utility.yul\":11201:11334   */\n    tag_190:\n      0x00\n        /* \"#utility.yul\":11323:11327   */\n      0x20\n        /* \"#utility.yul\":11318:11321   */\n      dup3\n        /* \"#utility.yul\":11314:11328   */\n      add\n        /* \"#utility.yul\":11306:11328   */\n      swap1\n      pop\n        /* \"#utility.yul\":11296:11334   */\n      swap2\n      swap1\n      pop\n      jump\t// out\n        /* \"#utility.yul\":11340:11544   */\n    tag_182:\n      0x00\n        /* \"#utility.yul\":11493:11499   */\n      dup3\n        /* \"#utility.yul\":11488:11491   */\n      dup3\n        /* \"#utility.yul\":11481:11500   */\n      mstore\n        /* \"#utility.yul\":11533:11537   */\n      0x20\n        /* \"#utility.yul\":11528:11531   */\n      dup3\n        /* \"#utility.yul\":11524:11538   */\n      add\n        /* \"#utility.yul\":11509:11538   */\n      swap1\n      pop\n        /* \"#utility.yul\":11471:11544   */\n      swap3\n      swap2\n      pop\n      pop\n      jump\t// out\n        /* \"#utility.yul\":11550:11719   */\n    tag_198:\n      0x00\n        /* \"#utility.yul\":11668:11674   */\n      dup3\n        /* \"#utility.yul\":11663:11666   */\n      dup3\n        /* \"#utility.yul\":11656:11675   */\n      mstore\n        /* \"#utility.yul\":11708:11712   */\n      0x20\n        /* \"#utility.yul\":11703:11706   */\n      dup3\n        /* \"#utility.yul\":11699:11713   */\n      add\n        /* \"#utility.yul\":11684:11713   */\n      swap1\n      pop\n        /* \"#utility.yul\":11646:11719   */\n      swap3\n      swap2\n      pop\n      pop\n      jump\t// out\n        /* \"#utility.yul\":11725:11821   */\n    tag_173:\n      0x00\n        /* \"#utility.yul\":11791:11815   */\n      tag_268\n        /* \"#utility.yul\":11809:11814   */\n      dup3\n        /* \"#utility.yul\":11791:11815   */\n      tag_269\n      jump\t// in\n    tag_268:\n        /* \"#utility.yul\":11780:11815   */\n      swap1\n      pop\n        /* \"#utility.yul\":11770:11821   */\n      swap2\n      swap1\n      pop\n      jump\t// out\n        /* \"#utility.yul\":11827:11931   */\n    tag_169:\n      0x00\n        /* \"#utility.yul\":11901:11925   */\n      tag_271\n        /* \"#utility.yul\":11919:11924   */\n      dup3\n        /* \"#utility.yul\":11901:11925   */\n      tag_269\n      jump\t// in\n    tag_271:\n        /* \"#utility.yul\":11890:11925   */\n      swap1\n      pop\n        /* \"#utility.yul\":11880:11931   */\n      swap2\n      swap1\n      pop\n      jump\t// out\n        /* \"#utility.yul\":11937:12027   */\n    tag_194:\n      0x00\n        /* \"#utility.yul\":12014:12019   */\n      dup2\n        /* \"#utility.yul\":12007:12020   */\n      iszero\n        /* \"#utility.yul\":12000:12021   */\n      iszero\n        /* \"#utility.yul\":11989:12021   */\n      swap1\n      pop\n        /* \"#utility.yul\":11979:12027   */\n      swap2\n      swap1\n      pop\n      jump\t// out\n        /* \"#utility.yul\":12033:12159   */\n    tag_269:\n      0x00\n        /* \"#utility.yul\":12110:12152   */\n      0xffffffffffffffffffffffffffffffffffffffff\n        /* \"#utility.yul\":12103:12108   */\n      dup3\n        /* \"#utility.yul\":12099:12153   */\n      and\n        /* \"#utility.yul\":12088:12153   */\n      swap1\n      pop\n        /* \"#utility.yul\":12078:12159   */\n      swap2\n      swap1\n      pop\n      jump\t// out\n        /* \"#utility.yul\":12165:12242   */\n    tag_232:\n      0x00\n        /* \"#utility.yul\":12231:12236   */\n      dup2\n        /* \"#utility.yul\":12220:12236   */\n      swap1\n      pop\n        /* \"#utility.yul\":12210:12242   */\n      swap2\n      swap1\n      pop\n      jump\t// out\n        /* \"#utility.yul\":12248:12382   */\n    tag_165:\n      0x00\n        /* \"#utility.yul\":12339:12376   */\n      tag_276\n        /* \"#utility.yul\":12370:12375   */\n      dup3\n        /* \"#utility.yul\":12339:12376   */\n      tag_277\n      jump\t// in\n    tag_276:\n        /* \"#utility.yul\":12326:12376   */\n      swap1\n      pop\n        /* \"#utility.yul\":12316:12382   */\n      swap2\n      swap1\n      pop\n      jump\t// out\n        /* \"#utility.yul\":12388:12514   */\n    tag_277:\n      0x00\n        /* \"#utility.yul\":12471:12508   */\n      tag_279\n        /* \"#utility.yul\":12502:12507   */\n      dup3\n        /* \"#utility.yul\":12471:12508   */\n      tag_280\n      jump\t// in\n    tag_279:\n        /* \"#utility.yul\":12458:12508   */\n      swap1\n      pop\n        /* \"#utility.yul\":12448:12514   */\n      swap2\n      swap1\n      pop\n      jump\t// out\n        /* \"#utility.yul\":12520:12633   */\n    tag_280:\n      0x00\n        /* \"#utility.yul\":12603:12627   */\n      tag_282\n        /* \"#utility.yul\":12621:12626   */\n      dup3\n        /* \"#utility.yul\":12603:12627   */\n      tag_269\n      jump\t// in\n    tag_282:\n        /* \"#utility.yul\":12590:12627   */\n      swap1\n      pop\n        /* \"#utility.yul\":12580:12633   */\n      swap2\n      swap1\n      pop\n      jump\t// out\n        /* \"#utility.yul\":12639:12872   */\n    tag_84:\n      0x00\n        /* \"#utility.yul\":12701:12725   */\n      tag_284\n        /* \"#utility.yul\":12719:12724   */\n      dup3\n        /* \"#utility.yul\":12701:12725   */\n      tag_232\n      jump\t// in\n    tag_284:\n        /* \"#utility.yul\":12692:12725   */\n      swap2\n      pop\n        /* \"#utility.yul\":12747:12813   */\n      0xffffffffffffffffffffffffffffffffffffffffffffffffffffffffffffffff\n        /* \"#utility.yul\":12740:12745   */\n      dup3\n        /* \"#utility.yul\":12737:12814   */\n      eq\n        /* \"#utility.yul\":12734:12736   */\n      iszero\n      tag_285\n      jumpi\n        /* \"#utility.yul\":12817:12835   */\n      tag_286\n      tag_287\n      jump\t// in\n    tag_286:\n        /* \"#utility.yul\":12734:12736   */\n    tag_285:\n        /* \"#utility.yul\":12864:12865   */\n      0x01\n        /* \"#utility.yul\":12857:12862   */\n      dup3\n        /* \"#utility.yul\":12853:12866   */\n      add\n        /* \"#utility.yul\":12846:12866   */\n      swap1\n      pop\n        /* \"#utility.yul\":12682:12872   */\n      swap2\n      swap1\n      pop\n      jump\t// out\n        /* \"#utility.yul\":12878:13058   */\n    tag_287:\n        /* \"#utility.yul\":12926:13003   */\n      0x4e487b7100000000000000000000000000000000000000000000000000000000\n        /* \"#utility.yul\":12923:12924   */\n      0x00\n        /* \"#utility.yul\":12916:13004   */\n      mstore\n        /* \"#utility.yul\":13023:13027   */\n      0x11\n        /* \"#utility.yul\":13020:13021   */\n      0x04\n        /* \"#utility.yul\":13013:13028   */\n      mstore\n        /* \"#utility.yul\":13047:13051   */\n      0x24\n        /* \"#utility.yul\":13044:13045   */\n      0x00\n        /* \"#utility.yul\":13037:13052   */\n      revert\n        /* \"#utility.yul\":13064:13241   */\n    tag_200:\n        /* \"#utility.yul\":13204:13233   */\n      0x436f756e7465723a2064656372656d656e74206f766572666c6f770000000000\n        /* \"#utility.yul\":13200:13201   */\n      0x00\n        /* \"#utility.yul\":13192:13198   */\n      dup3\n        /* \"#utility.yul\":13188:13202   */\n      add\n        /* \"#utility.yul\":13181:13234   */\n      mstore\n        /* \"#utility.yul\":13170:13241   */\n      pop\n      jump\t// out\n        /* \"#utility.yul\":13247:13472   */\n    tag_205:\n        /* \"#utility.yul\":13387:13421   */\n      0x4e6f7420656e6f75676820657468657220746f20636f7665722061736b696e67\n        /* \"#utility.yul\":13383:13384   */\n      0x00\n        /* \"#utility.yul\":13375:13381   */\n      dup3\n        /* \"#utility.yul\":13371:13385   */\n      add\n        /* \"#utility.yul\":13364:13422   */\n      mstore\n        /* \"#utility.yul\":13456:13464   */\n      0x2070726963650000000000000000000000000000000000000000000000000000\n        /* \"#utility.yul\":13451:13453   */\n      0x20\n        /* \"#utility.yul\":13443:13449   */\n      dup3\n        /* \"#utility.yul\":13439:13454   */\n      add\n        /* \"#utility.yul\":13432:13465   */\n      mstore\n        /* \"#utility.yul\":13353:13472   */\n      pop\n      jump\t// out\n        /* \"#utility.yul\":13478:13660   */\n    tag_210:\n        /* \"#utility.yul\":13618:13652   */\n      0x4e6f7420656e6f75676820657468657220666f72206c697374696e6720666565\n        /* \"#utility.yul\":13614:13615   */\n      0x00\n        /* \"#utility.yul\":13606:13612   */\n      dup3\n        /* \"#utility.yul\":13602:13616   */\n      add\n        /* \"#utility.yul\":13595:13653   */\n      mstore\n        /* \"#utility.yul\":13584:13660   */\n      pop\n      jump\t// out\n        /* \"#utility.yul\":13666:13847   */\n    tag_215:\n        /* \"#utility.yul\":13806:13839   */\n      0x5265656e7472616e637947756172643a207265656e7472616e742063616c6c00\n        /* \"#utility.yul\":13802:13803   */\n      0x00\n        /* \"#utility.yul\":13794:13800   */\n      dup3\n        /* \"#utility.yul\":13790:13804   */\n      add\n        /* \"#utility.yul\":13783:13840   */\n      mstore\n        /* \"#utility.yul\":13772:13847   */\n      pop\n      jump\t// out\n        /* \"#utility.yul\":13853:14031   */\n    tag_220:\n        /* \"#utility.yul\":13993:14023   */\n      0x5072696365206d757374206265206174206c6561737420312077656900000000\n        /* \"#utility.yul\":13989:13990   */\n      0x00\n        /* \"#utility.yul\":13981:13987   */\n      dup3\n        /* \"#utility.yul\":13977:13991   */\n      add\n        /* \"#utility.yul\":13970:14024   */\n      mstore\n        /* \"#utility.yul\":13959:14031   */\n      pop\n      jump\t// out\n        /* \"#utility.yul\":14037:14159   */\n    tag_144:\n        /* \"#utility.yul\":14110:14134   */\n      tag_295\n        /* \"#utility.yul\":14128:14133   */\n      dup2\n        /* \"#utility.yul\":14110:14134   */\n      tag_173\n      jump\t// in\n    tag_295:\n        /* \"#utility.yul\":14103:14108   */\n      dup2\n        /* \"#utility.yul\":14100:14135   */\n      eq\n        /* \"#utility.yul\":14090:14092   */\n      tag_296\n      jumpi\n        /* \"#utility.yul\":14149:14150   */\n      0x00\n        /* \"#utility.yul\":14146:14147   */\n      dup1\n        /* \"#utility.yul\":14139:14151   */\n      revert\n        /* \"#utility.yul\":14090:14092   */\n    tag_296:\n        /* \"#utility.yul\":14080:14159   */\n      pop\n      jump\t// out\n        /* \"#utility.yul\":14165:14287   */\n    tag_148:\n        /* \"#utility.yul\":14238:14262   */\n      tag_298\n        /* \"#utility.yul\":14256:14261   */\n      dup2\n        /* \"#utility.yul\":14238:14262   */\n      tag_232\n      jump\t// in\n    tag_298:\n        /* \"#utility.yul\":14231:14236   */\n      dup2\n        /* \"#utility.yul\":14228:14263   */\n      eq\n        /* \"#utility.yul\":14218:14220   */\n      tag_299\n      jumpi\n        /* \"#utility.yul\":14277:14278   */\n      0x00\n        /* \"#utility.yul\":14274:14275   */\n      dup1\n        /* \"#utility.yul\":14267:14279   */\n      revert\n        /* \"#utility.yul\":14218:14220   */\n    tag_299:\n        /* \"#utility.yul\":14208:14287   */\n      pop\n      jump\t// out\n\n    auxdata: 0xa26469706673582212204067dea2ba145c6dfd5b06319772921bbf823df9af1c11fb5ab3af944fd0d5b064736f6c63430008010033\n}\n",
				"bytecode": {
					"linkReferences": {},
					"object": "608060405266071afd498d000060035534801561001b57600080fd5b50600160008190555033600460006101000a81548173ffffffffffffffffffffffffffffffffffffffff021916908373ffffffffffffffffffffffffffffffffffffffff160217905550611a43806100746000396000f3fe6080604052600436106100705760003560e01c80638492095a1161004e5780638492095a146100d8578063a46b5c5a14610103578063ad05f1b41461012e578063b8fe6abe1461014a57610070565b806304935694146100755780632b86ae38146100915780634ddf4f8f146100bc575b600080fd5b61008f600480360381019061008a91906113ad565b610175565b005b34801561009d57600080fd5b506100a66103fd565b6040516100b3919061177f565b60405180910390f35b6100d660048036038101906100d19190611371565b610403565b005b3480156100e457600080fd5b506100ed610693565b6040516100fa91906116bd565b60405180910390f35b34801561010f57600080fd5b50610118610a4c565b60405161012591906116bd565b60405180910390f35b610148600480360381019061014391906113ad565b610e05565b005b34801561015657600080fd5b5061015f611226565b60405161016c919061177f565b60405180910390f35b600260005414156101bb576040517f08c379a00000000000000000000000000000000000000000000000000000000081526004016101b29061173f565b60405180910390fd5b600260008190555060008111610206576040517f08c379a00000000000000000000000000000000000000000000000000000000081526004016101fd9061175f565b60405180910390fd5b600354341461024a576040517f08c379a00000000000000000000000000000000000000000000000000000000081526004016102419061171f565b60405180910390fd5b8273ffffffffffffffffffffffffffffffffffffffff166323b872dd3330856040518463ffffffff1660e01b81526004016102879392919061164f565b600060405180830381600087803b1580156102a157600080fd5b505af11580156102b5573d6000803e3d6000fd5b505050506000600560008481526020019081526020016000209050338160030160006101000a81548173ffffffffffffffffffffffffffffffffffffffff021916908373ffffffffffffffffffffffffffffffffffffffff160217905550308160040160006101000a81548173ffffffffffffffffffffffffffffffffffffffff021916908373ffffffffffffffffffffffffffffffffffffffff16021790555060018160050160146101000a81548160ff0219169083151502179055508181600201819055506103866001611230565b3073ffffffffffffffffffffffffffffffffffffffff163373ffffffffffffffffffffffffffffffffffffffff167fa0c6c0d02d86fdacecbaa5fdf5894bab204e31a778250474108540733a9b8d198686866040516103e793929190611686565b60405180910390a3506001600081905550505050565b60035481565b60026000541415610449576040517f08c379a00000000000000000000000000000000000000000000000000000000081526004016104409061173f565b60405180910390fd5b6002600081905550600060056000838152602001908152602001600020905080600201543410156104af576040517f08c379a00000000000000000000000000000000000000000000000000000000081526004016104a6906116ff565b60405180910390fd5b60003390508160030160009054906101000a900473ffffffffffffffffffffffffffffffffffffffff1673ffffffffffffffffffffffffffffffffffffffff166108fc349081150290604051600060405180830381858888f1935050505015801561051e573d6000803e3d6000fd5b508373ffffffffffffffffffffffffffffffffffffffff166323b872dd3083866040518463ffffffff1660e01b815260040161055c93929190611618565b600060405180830381600087803b15801561057657600080fd5b505af115801561058a573d6000803e3d6000fd5b50505050808260040160006101000a81548173ffffffffffffffffffffffffffffffffffffffff021916908373ffffffffffffffffffffffffffffffffffffffff16021790555060008260050160146101000a81548160ff0219169083151502179055506105f8600161128c565b8073ffffffffffffffffffffffffffffffffffffffff168260030160009054906101000a900473ffffffffffffffffffffffffffffffffffffffff1673ffffffffffffffffffffffffffffffffffffffff167f16f1dbd97e6bf646d429ed186cce832f1f7fd9907814293b83181e9970ab7bd286863460405161067d93929190611686565b60405180910390a3505060016000819055505050565b606060006106a160026112a2565b9050600080600190505b82811161073e573373ffffffffffffffffffffffffffffffffffffffff166005600083815260200190815260200160002060050160009054906101000a900473ffffffffffffffffffffffffffffffffffffffff1673ffffffffffffffffffffffffffffffffffffffff16141561072b57818061072790611874565b9250505b808061073690611874565b9150506106ab565b5060008167ffffffffffffffff811115610781577f4e487b7100000000000000000000000000000000000000000000000000000000600052604160045260246000fd5b6040519080825280602002602001820160405280156107ba57816020015b6107a76112b0565b81526020019060019003908161079f5790505b509050600080600190505b848111610a41573373ffffffffffffffffffffffffffffffffffffffff166005600083815260200190815260200160002060050160009054906101000a900473ffffffffffffffffffffffffffffffffffffffff1673ffffffffffffffffffffffffffffffffffffffff161415610a2e57600560008281526020019081526020016000206040518060e00160405290816000820160009054906101000a900473ffffffffffffffffffffffffffffffffffffffff1673ffffffffffffffffffffffffffffffffffffffff1673ffffffffffffffffffffffffffffffffffffffff16815260200160018201548152602001600282015481526020016003820160009054906101000a900473ffffffffffffffffffffffffffffffffffffffff1673ffffffffffffffffffffffffffffffffffffffff1673ffffffffffffffffffffffffffffffffffffffff1681526020016004820160009054906101000a900473ffffffffffffffffffffffffffffffffffffffff1673ffffffffffffffffffffffffffffffffffffffff1673ffffffffffffffffffffffffffffffffffffffff1681526020016005820160009054906101000a900473ffffffffffffffffffffffffffffffffffffffff1673ffffffffffffffffffffffffffffffffffffffff1673ffffffffffffffffffffffffffffffffffffffff1681526020016005820160149054906101000a900460ff161515151581525050838381518110610a14577f4e487b7100000000000000000000000000000000000000000000000000000000600052603260045260246000fd5b60200260200101819052508180610a2a90611874565b9250505b8080610a3990611874565b9150506107c5565b508194505050505090565b60606000610a5a60026112a2565b9050600080600190505b828111610af7573373ffffffffffffffffffffffffffffffffffffffff166005600083815260200190815260200160002060040160009054906101000a900473ffffffffffffffffffffffffffffffffffffffff1673ffffffffffffffffffffffffffffffffffffffff161415610ae4578180610ae090611874565b9250505b8080610aef90611874565b915050610a64565b5060008167ffffffffffffffff811115610b3a577f4e487b7100000000000000000000000000000000000000000000000000000000600052604160045260246000fd5b604051908082528060200260200182016040528015610b7357816020015b610b606112b0565b815260200190600190039081610b585790505b509050600080600190505b848111610dfa573373ffffffffffffffffffffffffffffffffffffffff166005600083815260200190815260200160002060040160009054906101000a900473ffffffffffffffffffffffffffffffffffffffff1673ffffffffffffffffffffffffffffffffffffffff161415610de757600560008281526020019081526020016000206040518060e00160405290816000820160009054906101000a900473ffffffffffffffffffffffffffffffffffffffff1673ffffffffffffffffffffffffffffffffffffffff1673ffffffffffffffffffffffffffffffffffffffff16815260200160018201548152602001600282015481526020016003820160009054906101000a900473ffffffffffffffffffffffffffffffffffffffff1673ffffffffffffffffffffffffffffffffffffffff1673ffffffffffffffffffffffffffffffffffffffff1681526020016004820160009054906101000a900473ffffffffffffffffffffffffffffffffffffffff1673ffffffffffffffffffffffffffffffffffffffff1673ffffffffffffffffffffffffffffffffffffffff1681526020016005820160009054906101000a900473ffffffffffffffffffffffffffffffffffffffff1673ffffffffffffffffffffffffffffffffffffffff1673ffffffffffffffffffffffffffffffffffffffff1681526020016005820160149054906101000a900460ff161515151581525050838381518110610dcd577f4e487b7100000000000000000000000000000000000000000000000000000000600052603260045260246000fd5b60200260200101819052508180610de390611874565b9250505b8080610df290611874565b915050610b7e565b508194505050505090565b60026000541415610e4b576040517f08c379a0000000000000000000000000000000000000000000000000000000008152600401610e429061173f565b60405180910390fd5b600260008190555060008111610e96576040517f08c379a0000000000000000000000000000000000000000000000000000000008152600401610e8d9061175f565b60405180910390fd5b6003543414610eda576040517f08c379a0000000000000000000000000000000000000000000000000000000008152600401610ed19061171f565b60405180910390fd5b8273ffffffffffffffffffffffffffffffffffffffff166323b872dd3330856040518463ffffffff1660e01b8152600401610f179392919061164f565b600060405180830381600087803b158015610f3157600080fd5b505af1158015610f45573d6000803e3d6000fd5b50505050610f53600261128c565b6040518060e001604052808473ffffffffffffffffffffffffffffffffffffffff1681526020018381526020018281526020013373ffffffffffffffffffffffffffffffffffffffff1681526020013073ffffffffffffffffffffffffffffffffffffffff1681526020013373ffffffffffffffffffffffffffffffffffffffff168152602001600115158152506005600084815260200190815260200160002060008201518160000160006101000a81548173ffffffffffffffffffffffffffffffffffffffff021916908373ffffffffffffffffffffffffffffffffffffffff160217905550602082015181600101556040820151816002015560608201518160030160006101000a81548173ffffffffffffffffffffffffffffffffffffffff021916908373ffffffffffffffffffffffffffffffffffffffff16021790555060808201518160040160006101000a81548173ffffffffffffffffffffffffffffffffffffffff021916908373ffffffffffffffffffffffffffffffffffffffff16021790555060a08201518160050160006101000a81548173ffffffffffffffffffffffffffffffffffffffff021916908373ffffffffffffffffffffffffffffffffffffffff16021790555060c08201518160050160146101000a81548160ff021916908315150217905550905050600460009054906101000a900473ffffffffffffffffffffffffffffffffffffffff1673ffffffffffffffffffffffffffffffffffffffff166108fc349081150290604051600060405180830381858888f193505050501580156111af573d6000803e3d6000fd5b503073ffffffffffffffffffffffffffffffffffffffff163373ffffffffffffffffffffffffffffffffffffffff167fa0c6c0d02d86fdacecbaa5fdf5894bab204e31a778250474108540733a9b8d1985858560405161121193929190611686565b60405180910390a36001600081905550505050565b6000600354905090565b6000816000015490506000811161127c576040517f08c379a0000000000000000000000000000000000000000000000000000000008152600401611273906116df565b60405180910390fd5b6001810382600001819055505050565b6001816000016000828254019250508190555050565b600081600001549050919050565b6040518060e00160405280600073ffffffffffffffffffffffffffffffffffffffff1681526020016000815260200160008152602001600073ffffffffffffffffffffffffffffffffffffffff168152602001600073ffffffffffffffffffffffffffffffffffffffff168152602001600073ffffffffffffffffffffffffffffffffffffffff1681526020016000151581525090565b600081359050611356816119df565b92915050565b60008135905061136b816119f6565b92915050565b6000806040838503121561138457600080fd5b600061139285828601611347565b92505060206113a38582860161135c565b9150509250929050565b6000806000606084860312156113c257600080fd5b60006113d086828701611347565b93505060206113e18682870161135c565b92505060406113f28682870161135c565b9150509250925092565b6000611408838361156c565b60e08301905092915050565b61141d8161183e565b82525050565b61142c816117f6565b82525050565b61143b816117e4565b82525050565b61144a816117e4565b82525050565b600061145b826117aa565b61146581856117c2565b93506114708361179a565b8060005b838110156114a157815161148888826113fc565b9750611493836117b5565b925050600181019050611474565b5085935050505092915050565b6114b781611808565b82525050565b60006114ca601b836117d3565b91506114d5826118ec565b602082019050919050565b60006114ed6026836117d3565b91506114f882611915565b604082019050919050565b60006115106020836117d3565b915061151b82611964565b602082019050919050565b6000611533601f836117d3565b915061153e8261198d565b602082019050919050565b6000611556601c836117d3565b9150611561826119b6565b602082019050919050565b60e0820160008201516115826000850182611432565b50602082015161159560208501826115fa565b5060408201516115a860408501826115fa565b5060608201516115bb6060850182611423565b5060808201516115ce6080850182611423565b5060a08201516115e160a0850182611423565b5060c08201516115f460c08501826114ae565b50505050565b61160381611834565b82525050565b61161281611834565b82525050565b600060608201905061162d6000830186611441565b61163a6020830185611414565b6116476040830184611609565b949350505050565b60006060820190506116646000830186611441565b6116716020830185611441565b61167e6040830184611609565b949350505050565b600060608201905061169b6000830186611441565b6116a86020830185611609565b6116b56040830184611609565b949350505050565b600060208201905081810360008301526116d78184611450565b905092915050565b600060208201905081810360008301526116f8816114bd565b9050919050565b60006020820190508181036000830152611718816114e0565b9050919050565b6000602082019050818103600083015261173881611503565b9050919050565b6000602082019050818103600083015261175881611526565b9050919050565b6000602082019050818103600083015261177881611549565b9050919050565b60006020820190506117946000830184611609565b92915050565b6000819050602082019050919050565b600081519050919050565b6000602082019050919050565b600082825260208201905092915050565b600082825260208201905092915050565b60006117ef82611814565b9050919050565b600061180182611814565b9050919050565b60008115159050919050565b600073ffffffffffffffffffffffffffffffffffffffff82169050919050565b6000819050919050565b600061184982611850565b9050919050565b600061185b82611862565b9050919050565b600061186d82611814565b9050919050565b600061187f82611834565b91507fffffffffffffffffffffffffffffffffffffffffffffffffffffffffffffffff8214156118b2576118b16118bd565b5b600182019050919050565b7f4e487b7100000000000000000000000000000000000000000000000000000000600052601160045260246000fd5b7f436f756e7465723a2064656372656d656e74206f766572666c6f770000000000600082015250565b7f4e6f7420656e6f75676820657468657220746f20636f7665722061736b696e6760008201527f2070726963650000000000000000000000000000000000000000000000000000602082015250565b7f4e6f7420656e6f75676820657468657220666f72206c697374696e6720666565600082015250565b7f5265656e7472616e637947756172643a207265656e7472616e742063616c6c00600082015250565b7f5072696365206d757374206265206174206c6561737420312077656900000000600082015250565b6119e8816117e4565b81146119f357600080fd5b50565b6119ff81611834565b8114611a0a57600080fd5b5056fea26469706673582212204067dea2ba145c6dfd5b06319772921bbf823df9af1c11fb5ab3af944fd0d5b064736f6c63430008010033",
					"opcodes": "PUSH1 0x80 PUSH1 0x40 MSTORE PUSH7 0x71AFD498D0000 PUSH1 0x3 SSTORE CALLVALUE DUP1 ISZERO PUSH2 0x1B JUMPI PUSH1 0x0 DUP1 REVERT JUMPDEST POP PUSH1 0x1 PUSH1 0x0 DUP2 SWAP1 SSTORE POP CALLER PUSH1 0x4 PUSH1 0x0 PUSH2 0x100 EXP DUP2 SLOAD DUP2 PUSH20 0xFFFFFFFFFFFFFFFFFFFFFFFFFFFFFFFFFFFFFFFF MUL NOT AND SWAP1 DUP4 PUSH20 0xFFFFFFFFFFFFFFFFFFFFFFFFFFFFFFFFFFFFFFFF AND MUL OR SWAP1 SSTORE POP PUSH2 0x1A43 DUP1 PUSH2 0x74 PUSH1 0x0 CODECOPY PUSH1 0x0 RETURN INVALID PUSH1 0x80 PUSH1 0x40 MSTORE PUSH1 0x4 CALLDATASIZE LT PUSH2 0x70 JUMPI PUSH1 0x0 CALLDATALOAD PUSH1 0xE0 SHR DUP1 PUSH4 0x8492095A GT PUSH2 0x4E JUMPI DUP1 PUSH4 0x8492095A EQ PUSH2 0xD8 JUMPI DUP1 PUSH4 0xA46B5C5A EQ PUSH2 0x103 JUMPI DUP1 PUSH4 0xAD05F1B4 EQ PUSH2 0x12E JUMPI DUP1 PUSH4 0xB8FE6ABE EQ PUSH2 0x14A JUMPI PUSH2 0x70 JUMP JUMPDEST DUP1 PUSH4 0x4935694 EQ PUSH2 0x75 JUMPI DUP1 PUSH4 0x2B86AE38 EQ PUSH2 0x91 JUMPI DUP1 PUSH4 0x4DDF4F8F EQ PUSH2 0xBC JUMPI JUMPDEST PUSH1 0x0 DUP1 REVERT JUMPDEST PUSH2 0x8F PUSH1 0x4 DUP1 CALLDATASIZE SUB DUP2 ADD SWAP1 PUSH2 0x8A SWAP2 SWAP1 PUSH2 0x13AD JUMP JUMPDEST PUSH2 0x175 JUMP JUMPDEST STOP JUMPDEST CALLVALUE DUP1 ISZERO PUSH2 0x9D JUMPI PUSH1 0x0 DUP1 REVERT JUMPDEST POP PUSH2 0xA6 PUSH2 0x3FD JUMP JUMPDEST PUSH1 0x40 MLOAD PUSH2 0xB3 SWAP2 SWAP1 PUSH2 0x177F JUMP JUMPDEST PUSH1 0x40 MLOAD DUP1 SWAP2 SUB SWAP1 RETURN JUMPDEST PUSH2 0xD6 PUSH1 0x4 DUP1 CALLDATASIZE SUB DUP2 ADD SWAP1 PUSH2 0xD1 SWAP2 SWAP1 PUSH2 0x1371 JUMP JUMPDEST PUSH2 0x403 JUMP JUMPDEST STOP JUMPDEST CALLVALUE DUP1 ISZERO PUSH2 0xE4 JUMPI PUSH1 0x0 DUP1 REVERT JUMPDEST POP PUSH2 0xED PUSH2 0x693 JUMP JUMPDEST PUSH1 0x40 MLOAD PUSH2 0xFA SWAP2 SWAP1 PUSH2 0x16BD JUMP JUMPDEST PUSH1 0x40 MLOAD DUP1 SWAP2 SUB SWAP1 RETURN JUMPDEST CALLVALUE DUP1 ISZERO PUSH2 0x10F JUMPI PUSH1 0x0 DUP1 REVERT JUMPDEST POP PUSH2 0x118 PUSH2 0xA4C JUMP JUMPDEST PUSH1 0x40 MLOAD PUSH2 0x125 SWAP2 SWAP1 PUSH2 0x16BD JUMP JUMPDEST PUSH1 0x40 MLOAD DUP1 SWAP2 SUB SWAP1 RETURN JUMPDEST PUSH2 0x148 PUSH1 0x4 DUP1 CALLDATASIZE SUB DUP2 ADD SWAP1 PUSH2 0x143 SWAP2 SWAP1 PUSH2 0x13AD JUMP JUMPDEST PUSH2 0xE05 JUMP JUMPDEST STOP JUMPDEST CALLVALUE DUP1 ISZERO PUSH2 0x156 JUMPI PUSH1 0x0 DUP1 REVERT JUMPDEST POP PUSH2 0x15F PUSH2 0x1226 JUMP JUMPDEST PUSH1 0x40 MLOAD PUSH2 0x16C SWAP2 SWAP1 PUSH2 0x177F JUMP JUMPDEST PUSH1 0x40 MLOAD DUP1 SWAP2 SUB SWAP1 RETURN JUMPDEST PUSH1 0x2 PUSH1 0x0 SLOAD EQ ISZERO PUSH2 0x1BB JUMPI PUSH1 0x40 MLOAD PUSH32 0x8C379A000000000000000000000000000000000000000000000000000000000 DUP2 MSTORE PUSH1 0x4 ADD PUSH2 0x1B2 SWAP1 PUSH2 0x173F JUMP JUMPDEST PUSH1 0x40 MLOAD DUP1 SWAP2 SUB SWAP1 REVERT JUMPDEST PUSH1 0x2 PUSH1 0x0 DUP2 SWAP1 SSTORE POP PUSH1 0x0 DUP2 GT PUSH2 0x206 JUMPI PUSH1 0x40 MLOAD PUSH32 0x8C379A000000000000000000000000000000000000000000000000000000000 DUP2 MSTORE PUSH1 0x4 ADD PUSH2 0x1FD SWAP1 PUSH2 0x175F JUMP JUMPDEST PUSH1 0x40 MLOAD DUP1 SWAP2 SUB SWAP1 REVERT JUMPDEST PUSH1 0x3 SLOAD CALLVALUE EQ PUSH2 0x24A JUMPI PUSH1 0x40 MLOAD PUSH32 0x8C379A000000000000000000000000000000000000000000000000000000000 DUP2 MSTORE PUSH1 0x4 ADD PUSH2 0x241 SWAP1 PUSH2 0x171F JUMP JUMPDEST PUSH1 0x40 MLOAD DUP1 SWAP2 SUB SWAP1 REVERT JUMPDEST DUP3 PUSH20 0xFFFFFFFFFFFFFFFFFFFFFFFFFFFFFFFFFFFFFFFF AND PUSH4 0x23B872DD CALLER ADDRESS DUP6 PUSH1 0x40 MLOAD DUP5 PUSH4 0xFFFFFFFF AND PUSH1 0xE0 SHL DUP2 MSTORE PUSH1 0x4 ADD PUSH2 0x287 SWAP4 SWAP3 SWAP2 SWAP1 PUSH2 0x164F JUMP JUMPDEST PUSH1 0x0 PUSH1 0x40 MLOAD DUP1 DUP4 SUB DUP2 PUSH1 0x0 DUP8 DUP1 EXTCODESIZE ISZERO DUP1 ISZERO PUSH2 0x2A1 JUMPI PUSH1 0x0 DUP1 REVERT JUMPDEST POP GAS CALL ISZERO DUP1 ISZERO PUSH2 0x2B5 JUMPI RETURNDATASIZE PUSH1 0x0 DUP1 RETURNDATACOPY RETURNDATASIZE PUSH1 0x0 REVERT JUMPDEST POP POP POP POP PUSH1 0x0 PUSH1 0x5 PUSH1 0x0 DUP5 DUP2 MSTORE PUSH1 0x20 ADD SWAP1 DUP2 MSTORE PUSH1 0x20 ADD PUSH1 0x0 KECCAK256 SWAP1 POP CALLER DUP2 PUSH1 0x3 ADD PUSH1 0x0 PUSH2 0x100 EXP DUP2 SLOAD DUP2 PUSH20 0xFFFFFFFFFFFFFFFFFFFFFFFFFFFFFFFFFFFFFFFF MUL NOT AND SWAP1 DUP4 PUSH20 0xFFFFFFFFFFFFFFFFFFFFFFFFFFFFFFFFFFFFFFFF AND MUL OR SWAP1 SSTORE POP ADDRESS DUP2 PUSH1 0x4 ADD PUSH1 0x0 PUSH2 0x100 EXP DUP2 SLOAD DUP2 PUSH20 0xFFFFFFFFFFFFFFFFFFFFFFFFFFFFFFFFFFFFFFFF MUL NOT AND SWAP1 DUP4 PUSH20 0xFFFFFFFFFFFFFFFFFFFFFFFFFFFFFFFFFFFFFFFF AND MUL OR SWAP1 SSTORE POP PUSH1 0x1 DUP2 PUSH1 0x5 ADD PUSH1 0x14 PUSH2 0x100 EXP DUP2 SLOAD DUP2 PUSH1 0xFF MUL NOT AND SWAP1 DUP4 ISZERO ISZERO MUL OR SWAP1 SSTORE POP DUP2 DUP2 PUSH1 0x2 ADD DUP2 SWAP1 SSTORE POP PUSH2 0x386 PUSH1 0x1 PUSH2 0x1230 JUMP JUMPDEST ADDRESS PUSH20 0xFFFFFFFFFFFFFFFFFFFFFFFFFFFFFFFFFFFFFFFF AND CALLER PUSH20 0xFFFFFFFFFFFFFFFFFFFFFFFFFFFFFFFFFFFFFFFF AND PUSH32 0xA0C6C0D02D86FDACECBAA5FDF5894BAB204E31A778250474108540733A9B8D19 DUP7 DUP7 DUP7 PUSH1 0x40 MLOAD PUSH2 0x3E7 SWAP4 SWAP3 SWAP2 SWAP1 PUSH2 0x1686 JUMP JUMPDEST PUSH1 0x40 MLOAD DUP1 SWAP2 SUB SWAP1 LOG3 POP PUSH1 0x1 PUSH1 0x0 DUP2 SWAP1 SSTORE POP POP POP POP JUMP JUMPDEST PUSH1 0x3 SLOAD DUP2 JUMP JUMPDEST PUSH1 0x2 PUSH1 0x0 SLOAD EQ ISZERO PUSH2 0x449 JUMPI PUSH1 0x40 MLOAD PUSH32 0x8C379A000000000000000000000000000000000000000000000000000000000 DUP2 MSTORE PUSH1 0x4 ADD PUSH2 0x440 SWAP1 PUSH2 0x173F JUMP JUMPDEST PUSH1 0x40 MLOAD DUP1 SWAP2 SUB SWAP1 REVERT JUMPDEST PUSH1 0x2 PUSH1 0x0 DUP2 SWAP1 SSTORE POP PUSH1 0x0 PUSH1 0x5 PUSH1 0x0 DUP4 DUP2 MSTORE PUSH1 0x20 ADD SWAP1 DUP2 MSTORE PUSH1 0x20 ADD PUSH1 0x0 KECCAK256 SWAP1 POP DUP1 PUSH1 0x2 ADD SLOAD CALLVALUE LT ISZERO PUSH2 0x4AF JUMPI PUSH1 0x40 MLOAD PUSH32 0x8C379A000000000000000000000000000000000000000000000000000000000 DUP2 MSTORE PUSH1 0x4 ADD PUSH2 0x4A6 SWAP1 PUSH2 0x16FF JUMP JUMPDEST PUSH1 0x40 MLOAD DUP1 SWAP2 SUB SWAP1 REVERT JUMPDEST PUSH1 0x0 CALLER SWAP1 POP DUP2 PUSH1 0x3 ADD PUSH1 0x0 SWAP1 SLOAD SWAP1 PUSH2 0x100 EXP SWAP1 DIV PUSH20 0xFFFFFFFFFFFFFFFFFFFFFFFFFFFFFFFFFFFFFFFF AND PUSH20 0xFFFFFFFFFFFFFFFFFFFFFFFFFFFFFFFFFFFFFFFF AND PUSH2 0x8FC CALLVALUE SWAP1 DUP2 ISZERO MUL SWAP1 PUSH1 0x40 MLOAD PUSH1 0x0 PUSH1 0x40 MLOAD DUP1 DUP4 SUB DUP2 DUP6 DUP9 DUP9 CALL SWAP4 POP POP POP POP ISZERO DUP1 ISZERO PUSH2 0x51E JUMPI RETURNDATASIZE PUSH1 0x0 DUP1 RETURNDATACOPY RETURNDATASIZE PUSH1 0x0 REVERT JUMPDEST POP DUP4 PUSH20 0xFFFFFFFFFFFFFFFFFFFFFFFFFFFFFFFFFFFFFFFF AND PUSH4 0x23B872DD ADDRESS DUP4 DUP7 PUSH1 0x40 MLOAD DUP5 PUSH4 0xFFFFFFFF AND PUSH1 0xE0 SHL DUP2 MSTORE PUSH1 0x4 ADD PUSH2 0x55C SWAP4 SWAP3 SWAP2 SWAP1 PUSH2 0x1618 JUMP JUMPDEST PUSH1 0x0 PUSH1 0x40 MLOAD DUP1 DUP4 SUB DUP2 PUSH1 0x0 DUP8 DUP1 EXTCODESIZE ISZERO DUP1 ISZERO PUSH2 0x576 JUMPI PUSH1 0x0 DUP1 REVERT JUMPDEST POP GAS CALL ISZERO DUP1 ISZERO PUSH2 0x58A JUMPI RETURNDATASIZE PUSH1 0x0 DUP1 RETURNDATACOPY RETURNDATASIZE PUSH1 0x0 REVERT JUMPDEST POP POP POP POP DUP1 DUP3 PUSH1 0x4 ADD PUSH1 0x0 PUSH2 0x100 EXP DUP2 SLOAD DUP2 PUSH20 0xFFFFFFFFFFFFFFFFFFFFFFFFFFFFFFFFFFFFFFFF MUL NOT AND SWAP1 DUP4 PUSH20 0xFFFFFFFFFFFFFFFFFFFFFFFFFFFFFFFFFFFFFFFF AND MUL OR SWAP1 SSTORE POP PUSH1 0x0 DUP3 PUSH1 0x5 ADD PUSH1 0x14 PUSH2 0x100 EXP DUP2 SLOAD DUP2 PUSH1 0xFF MUL NOT AND SWAP1 DUP4 ISZERO ISZERO MUL OR SWAP1 SSTORE POP PUSH2 0x5F8 PUSH1 0x1 PUSH2 0x128C JUMP JUMPDEST DUP1 PUSH20 0xFFFFFFFFFFFFFFFFFFFFFFFFFFFFFFFFFFFFFFFF AND DUP3 PUSH1 0x3 ADD PUSH1 0x0 SWAP1 SLOAD SWAP1 PUSH2 0x100 EXP SWAP1 DIV PUSH20 0xFFFFFFFFFFFFFFFFFFFFFFFFFFFFFFFFFFFFFFFF AND PUSH20 0xFFFFFFFFFFFFFFFFFFFFFFFFFFFFFFFFFFFFFFFF AND PUSH32 0x16F1DBD97E6BF646D429ED186CCE832F1F7FD9907814293B83181E9970AB7BD2 DUP7 DUP7 CALLVALUE PUSH1 0x40 MLOAD PUSH2 0x67D SWAP4 SWAP3 SWAP2 SWAP1 PUSH2 0x1686 JUMP JUMPDEST PUSH1 0x40 MLOAD DUP1 SWAP2 SUB SWAP1 LOG3 POP POP PUSH1 0x1 PUSH1 0x0 DUP2 SWAP1 SSTORE POP POP POP JUMP JUMPDEST PUSH1 0x60 PUSH1 0x0 PUSH2 0x6A1 PUSH1 0x2 PUSH2 0x12A2 JUMP JUMPDEST SWAP1 POP PUSH1 0x0 DUP1 PUSH1 0x1 SWAP1 POP JUMPDEST DUP3 DUP2 GT PUSH2 0x73E JUMPI CALLER PUSH20 0xFFFFFFFFFFFFFFFFFFFFFFFFFFFFFFFFFFFFFFFF AND PUSH1 0x5 PUSH1 0x0 DUP4 DUP2 MSTORE PUSH1 0x20 ADD SWAP1 DUP2 MSTORE PUSH1 0x20 ADD PUSH1 0x0 KECCAK256 PUSH1 0x5 ADD PUSH1 0x0 SWAP1 SLOAD SWAP1 PUSH2 0x100 EXP SWAP1 DIV PUSH20 0xFFFFFFFFFFFFFFFFFFFFFFFFFFFFFFFFFFFFFFFF AND PUSH20 0xFFFFFFFFFFFFFFFFFFFFFFFFFFFFFFFFFFFFFFFF AND EQ ISZERO PUSH2 0x72B JUMPI DUP2 DUP1 PUSH2 0x727 SWAP1 PUSH2 0x1874 JUMP JUMPDEST SWAP3 POP POP JUMPDEST DUP1 DUP1 PUSH2 0x736 SWAP1 PUSH2 0x1874 JUMP JUMPDEST SWAP2 POP POP PUSH2 0x6AB JUMP JUMPDEST POP PUSH1 0x0 DUP2 PUSH8 0xFFFFFFFFFFFFFFFF DUP2 GT ISZERO PUSH2 0x781 JUMPI PUSH32 0x4E487B7100000000000000000000000000000000000000000000000000000000 PUSH1 0x0 MSTORE PUSH1 0x41 PUSH1 0x4 MSTORE PUSH1 0x24 PUSH1 0x0 REVERT JUMPDEST PUSH1 0x40 MLOAD SWAP1 DUP1 DUP3 MSTORE DUP1 PUSH1 0x20 MUL PUSH1 0x20 ADD DUP3 ADD PUSH1 0x40 MSTORE DUP1 ISZERO PUSH2 0x7BA JUMPI DUP2 PUSH1 0x20 ADD JUMPDEST PUSH2 0x7A7 PUSH2 0x12B0 JUMP JUMPDEST DUP2 MSTORE PUSH1 0x20 ADD SWAP1 PUSH1 0x1 SWAP1 SUB SWAP1 DUP2 PUSH2 0x79F JUMPI SWAP1 POP JUMPDEST POP SWAP1 POP PUSH1 0x0 DUP1 PUSH1 0x1 SWAP1 POP JUMPDEST DUP5 DUP2 GT PUSH2 0xA41 JUMPI CALLER PUSH20 0xFFFFFFFFFFFFFFFFFFFFFFFFFFFFFFFFFFFFFFFF AND PUSH1 0x5 PUSH1 0x0 DUP4 DUP2 MSTORE PUSH1 0x20 ADD SWAP1 DUP2 MSTORE PUSH1 0x20 ADD PUSH1 0x0 KECCAK256 PUSH1 0x5 ADD PUSH1 0x0 SWAP1 SLOAD SWAP1 PUSH2 0x100 EXP SWAP1 DIV PUSH20 0xFFFFFFFFFFFFFFFFFFFFFFFFFFFFFFFFFFFFFFFF AND PUSH20 0xFFFFFFFFFFFFFFFFFFFFFFFFFFFFFFFFFFFFFFFF AND EQ ISZERO PUSH2 0xA2E JUMPI PUSH1 0x5 PUSH1 0x0 DUP3 DUP2 MSTORE PUSH1 0x20 ADD SWAP1 DUP2 MSTORE PUSH1 0x20 ADD PUSH1 0x0 KECCAK256 PUSH1 0x40 MLOAD DUP1 PUSH1 0xE0 ADD PUSH1 0x40 MSTORE SWAP1 DUP2 PUSH1 0x0 DUP3 ADD PUSH1 0x0 SWAP1 SLOAD SWAP1 PUSH2 0x100 EXP SWAP1 DIV PUSH20 0xFFFFFFFFFFFFFFFFFFFFFFFFFFFFFFFFFFFFFFFF AND PUSH20 0xFFFFFFFFFFFFFFFFFFFFFFFFFFFFFFFFFFFFFFFF AND PUSH20 0xFFFFFFFFFFFFFFFFFFFFFFFFFFFFFFFFFFFFFFFF AND DUP2 MSTORE PUSH1 0x20 ADD PUSH1 0x1 DUP3 ADD SLOAD DUP2 MSTORE PUSH1 0x20 ADD PUSH1 0x2 DUP3 ADD SLOAD DUP2 MSTORE PUSH1 0x20 ADD PUSH1 0x3 DUP3 ADD PUSH1 0x0 SWAP1 SLOAD SWAP1 PUSH2 0x100 EXP SWAP1 DIV PUSH20 0xFFFFFFFFFFFFFFFFFFFFFFFFFFFFFFFFFFFFFFFF AND PUSH20 0xFFFFFFFFFFFFFFFFFFFFFFFFFFFFFFFFFFFFFFFF AND PUSH20 0xFFFFFFFFFFFFFFFFFFFFFFFFFFFFFFFFFFFFFFFF AND DUP2 MSTORE PUSH1 0x20 ADD PUSH1 0x4 DUP3 ADD PUSH1 0x0 SWAP1 SLOAD SWAP1 PUSH2 0x100 EXP SWAP1 DIV PUSH20 0xFFFFFFFFFFFFFFFFFFFFFFFFFFFFFFFFFFFFFFFF AND PUSH20 0xFFFFFFFFFFFFFFFFFFFFFFFFFFFFFFFFFFFFFFFF AND PUSH20 0xFFFFFFFFFFFFFFFFFFFFFFFFFFFFFFFFFFFFFFFF AND DUP2 MSTORE PUSH1 0x20 ADD PUSH1 0x5 DUP3 ADD PUSH1 0x0 SWAP1 SLOAD SWAP1 PUSH2 0x100 EXP SWAP1 DIV PUSH20 0xFFFFFFFFFFFFFFFFFFFFFFFFFFFFFFFFFFFFFFFF AND PUSH20 0xFFFFFFFFFFFFFFFFFFFFFFFFFFFFFFFFFFFFFFFF AND PUSH20 0xFFFFFFFFFFFFFFFFFFFFFFFFFFFFFFFFFFFFFFFF AND DUP2 MSTORE PUSH1 0x20 ADD PUSH1 0x5 DUP3 ADD PUSH1 0x14 SWAP1 SLOAD SWAP1 PUSH2 0x100 EXP SWAP1 DIV PUSH1 0xFF AND ISZERO ISZERO ISZERO ISZERO DUP2 MSTORE POP POP DUP4 DUP4 DUP2 MLOAD DUP2 LT PUSH2 0xA14 JUMPI PUSH32 0x4E487B7100000000000000000000000000000000000000000000000000000000 PUSH1 0x0 MSTORE PUSH1 0x32 PUSH1 0x4 MSTORE PUSH1 0x24 PUSH1 0x0 REVERT JUMPDEST PUSH1 0x20 MUL PUSH1 0x20 ADD ADD DUP2 SWAP1 MSTORE POP DUP2 DUP1 PUSH2 0xA2A SWAP1 PUSH2 0x1874 JUMP JUMPDEST SWAP3 POP POP JUMPDEST DUP1 DUP1 PUSH2 0xA39 SWAP1 PUSH2 0x1874 JUMP JUMPDEST SWAP2 POP POP PUSH2 0x7C5 JUMP JUMPDEST POP DUP2 SWAP5 POP POP POP POP POP SWAP1 JUMP JUMPDEST PUSH1 0x60 PUSH1 0x0 PUSH2 0xA5A PUSH1 0x2 PUSH2 0x12A2 JUMP JUMPDEST SWAP1 POP PUSH1 0x0 DUP1 PUSH1 0x1 SWAP1 POP JUMPDEST DUP3 DUP2 GT PUSH2 0xAF7 JUMPI CALLER PUSH20 0xFFFFFFFFFFFFFFFFFFFFFFFFFFFFFFFFFFFFFFFF AND PUSH1 0x5 PUSH1 0x0 DUP4 DUP2 MSTORE PUSH1 0x20 ADD SWAP1 DUP2 MSTORE PUSH1 0x20 ADD PUSH1 0x0 KECCAK256 PUSH1 0x4 ADD PUSH1 0x0 SWAP1 SLOAD SWAP1 PUSH2 0x100 EXP SWAP1 DIV PUSH20 0xFFFFFFFFFFFFFFFFFFFFFFFFFFFFFFFFFFFFFFFF AND PUSH20 0xFFFFFFFFFFFFFFFFFFFFFFFFFFFFFFFFFFFFFFFF AND EQ ISZERO PUSH2 0xAE4 JUMPI DUP2 DUP1 PUSH2 0xAE0 SWAP1 PUSH2 0x1874 JUMP JUMPDEST SWAP3 POP POP JUMPDEST DUP1 DUP1 PUSH2 0xAEF SWAP1 PUSH2 0x1874 JUMP JUMPDEST SWAP2 POP POP PUSH2 0xA64 JUMP JUMPDEST POP PUSH1 0x0 DUP2 PUSH8 0xFFFFFFFFFFFFFFFF DUP2 GT ISZERO PUSH2 0xB3A JUMPI PUSH32 0x4E487B7100000000000000000000000000000000000000000000000000000000 PUSH1 0x0 MSTORE PUSH1 0x41 PUSH1 0x4 MSTORE PUSH1 0x24 PUSH1 0x0 REVERT JUMPDEST PUSH1 0x40 MLOAD SWAP1 DUP1 DUP3 MSTORE DUP1 PUSH1 0x20 MUL PUSH1 0x20 ADD DUP3 ADD PUSH1 0x40 MSTORE DUP1 ISZERO PUSH2 0xB73 JUMPI DUP2 PUSH1 0x20 ADD JUMPDEST PUSH2 0xB60 PUSH2 0x12B0 JUMP JUMPDEST DUP2 MSTORE PUSH1 0x20 ADD SWAP1 PUSH1 0x1 SWAP1 SUB SWAP1 DUP2 PUSH2 0xB58 JUMPI SWAP1 POP JUMPDEST POP SWAP1 POP PUSH1 0x0 DUP1 PUSH1 0x1 SWAP1 POP JUMPDEST DUP5 DUP2 GT PUSH2 0xDFA JUMPI CALLER PUSH20 0xFFFFFFFFFFFFFFFFFFFFFFFFFFFFFFFFFFFFFFFF AND PUSH1 0x5 PUSH1 0x0 DUP4 DUP2 MSTORE PUSH1 0x20 ADD SWAP1 DUP2 MSTORE PUSH1 0x20 ADD PUSH1 0x0 KECCAK256 PUSH1 0x4 ADD PUSH1 0x0 SWAP1 SLOAD SWAP1 PUSH2 0x100 EXP SWAP1 DIV PUSH20 0xFFFFFFFFFFFFFFFFFFFFFFFFFFFFFFFFFFFFFFFF AND PUSH20 0xFFFFFFFFFFFFFFFFFFFFFFFFFFFFFFFFFFFFFFFF AND EQ ISZERO PUSH2 0xDE7 JUMPI PUSH1 0x5 PUSH1 0x0 DUP3 DUP2 MSTORE PUSH1 0x20 ADD SWAP1 DUP2 MSTORE PUSH1 0x20 ADD PUSH1 0x0 KECCAK256 PUSH1 0x40 MLOAD DUP1 PUSH1 0xE0 ADD PUSH1 0x40 MSTORE SWAP1 DUP2 PUSH1 0x0 DUP3 ADD PUSH1 0x0 SWAP1 SLOAD SWAP1 PUSH2 0x100 EXP SWAP1 DIV PUSH20 0xFFFFFFFFFFFFFFFFFFFFFFFFFFFFFFFFFFFFFFFF AND PUSH20 0xFFFFFFFFFFFFFFFFFFFFFFFFFFFFFFFFFFFFFFFF AND PUSH20 0xFFFFFFFFFFFFFFFFFFFFFFFFFFFFFFFFFFFFFFFF AND DUP2 MSTORE PUSH1 0x20 ADD PUSH1 0x1 DUP3 ADD SLOAD DUP2 MSTORE PUSH1 0x20 ADD PUSH1 0x2 DUP3 ADD SLOAD DUP2 MSTORE PUSH1 0x20 ADD PUSH1 0x3 DUP3 ADD PUSH1 0x0 SWAP1 SLOAD SWAP1 PUSH2 0x100 EXP SWAP1 DIV PUSH20 0xFFFFFFFFFFFFFFFFFFFFFFFFFFFFFFFFFFFFFFFF AND PUSH20 0xFFFFFFFFFFFFFFFFFFFFFFFFFFFFFFFFFFFFFFFF AND PUSH20 0xFFFFFFFFFFFFFFFFFFFFFFFFFFFFFFFFFFFFFFFF AND DUP2 MSTORE PUSH1 0x20 ADD PUSH1 0x4 DUP3 ADD PUSH1 0x0 SWAP1 SLOAD SWAP1 PUSH2 0x100 EXP SWAP1 DIV PUSH20 0xFFFFFFFFFFFFFFFFFFFFFFFFFFFFFFFFFFFFFFFF AND PUSH20 0xFFFFFFFFFFFFFFFFFFFFFFFFFFFFFFFFFFFFFFFF AND PUSH20 0xFFFFFFFFFFFFFFFFFFFFFFFFFFFFFFFFFFFFFFFF AND DUP2 MSTORE PUSH1 0x20 ADD PUSH1 0x5 DUP3 ADD PUSH1 0x0 SWAP1 SLOAD SWAP1 PUSH2 0x100 EXP SWAP1 DIV PUSH20 0xFFFFFFFFFFFFFFFFFFFFFFFFFFFFFFFFFFFFFFFF AND PUSH20 0xFFFFFFFFFFFFFFFFFFFFFFFFFFFFFFFFFFFFFFFF AND PUSH20 0xFFFFFFFFFFFFFFFFFFFFFFFFFFFFFFFFFFFFFFFF AND DUP2 MSTORE PUSH1 0x20 ADD PUSH1 0x5 DUP3 ADD PUSH1 0x14 SWAP1 SLOAD SWAP1 PUSH2 0x100 EXP SWAP1 DIV PUSH1 0xFF AND ISZERO ISZERO ISZERO ISZERO DUP2 MSTORE POP POP DUP4 DUP4 DUP2 MLOAD DUP2 LT PUSH2 0xDCD JUMPI PUSH32 0x4E487B7100000000000000000000000000000000000000000000000000000000 PUSH1 0x0 MSTORE PUSH1 0x32 PUSH1 0x4 MSTORE PUSH1 0x24 PUSH1 0x0 REVERT JUMPDEST PUSH1 0x20 MUL PUSH1 0x20 ADD ADD DUP2 SWAP1 MSTORE POP DUP2 DUP1 PUSH2 0xDE3 SWAP1 PUSH2 0x1874 JUMP JUMPDEST SWAP3 POP POP JUMPDEST DUP1 DUP1 PUSH2 0xDF2 SWAP1 PUSH2 0x1874 JUMP JUMPDEST SWAP2 POP POP PUSH2 0xB7E JUMP JUMPDEST POP DUP2 SWAP5 POP POP POP POP POP SWAP1 JUMP JUMPDEST PUSH1 0x2 PUSH1 0x0 SLOAD EQ ISZERO PUSH2 0xE4B JUMPI PUSH1 0x40 MLOAD PUSH32 0x8C379A000000000000000000000000000000000000000000000000000000000 DUP2 MSTORE PUSH1 0x4 ADD PUSH2 0xE42 SWAP1 PUSH2 0x173F JUMP JUMPDEST PUSH1 0x40 MLOAD DUP1 SWAP2 SUB SWAP1 REVERT JUMPDEST PUSH1 0x2 PUSH1 0x0 DUP2 SWAP1 SSTORE POP PUSH1 0x0 DUP2 GT PUSH2 0xE96 JUMPI PUSH1 0x40 MLOAD PUSH32 0x8C379A000000000000000000000000000000000000000000000000000000000 DUP2 MSTORE PUSH1 0x4 ADD PUSH2 0xE8D SWAP1 PUSH2 0x175F JUMP JUMPDEST PUSH1 0x40 MLOAD DUP1 SWAP2 SUB SWAP1 REVERT JUMPDEST PUSH1 0x3 SLOAD CALLVALUE EQ PUSH2 0xEDA JUMPI PUSH1 0x40 MLOAD PUSH32 0x8C379A000000000000000000000000000000000000000000000000000000000 DUP2 MSTORE PUSH1 0x4 ADD PUSH2 0xED1 SWAP1 PUSH2 0x171F JUMP JUMPDEST PUSH1 0x40 MLOAD DUP1 SWAP2 SUB SWAP1 REVERT JUMPDEST DUP3 PUSH20 0xFFFFFFFFFFFFFFFFFFFFFFFFFFFFFFFFFFFFFFFF AND PUSH4 0x23B872DD CALLER ADDRESS DUP6 PUSH1 0x40 MLOAD DUP5 PUSH4 0xFFFFFFFF AND PUSH1 0xE0 SHL DUP2 MSTORE PUSH1 0x4 ADD PUSH2 0xF17 SWAP4 SWAP3 SWAP2 SWAP1 PUSH2 0x164F JUMP JUMPDEST PUSH1 0x0 PUSH1 0x40 MLOAD DUP1 DUP4 SUB DUP2 PUSH1 0x0 DUP8 DUP1 EXTCODESIZE ISZERO DUP1 ISZERO PUSH2 0xF31 JUMPI PUSH1 0x0 DUP1 REVERT JUMPDEST POP GAS CALL ISZERO DUP1 ISZERO PUSH2 0xF45 JUMPI RETURNDATASIZE PUSH1 0x0 DUP1 RETURNDATACOPY RETURNDATASIZE PUSH1 0x0 REVERT JUMPDEST POP POP POP POP PUSH2 0xF53 PUSH1 0x2 PUSH2 0x128C JUMP JUMPDEST PUSH1 0x40 MLOAD DUP1 PUSH1 0xE0 ADD PUSH1 0x40 MSTORE DUP1 DUP5 PUSH20 0xFFFFFFFFFFFFFFFFFFFFFFFFFFFFFFFFFFFFFFFF AND DUP2 MSTORE PUSH1 0x20 ADD DUP4 DUP2 MSTORE PUSH1 0x20 ADD DUP3 DUP2 MSTORE PUSH1 0x20 ADD CALLER PUSH20 0xFFFFFFFFFFFFFFFFFFFFFFFFFFFFFFFFFFFFFFFF AND DUP2 MSTORE PUSH1 0x20 ADD ADDRESS PUSH20 0xFFFFFFFFFFFFFFFFFFFFFFFFFFFFFFFFFFFFFFFF AND DUP2 MSTORE PUSH1 0x20 ADD CALLER PUSH20 0xFFFFFFFFFFFFFFFFFFFFFFFFFFFFFFFFFFFFFFFF AND DUP2 MSTORE PUSH1 0x20 ADD PUSH1 0x1 ISZERO ISZERO DUP2 MSTORE POP PUSH1 0x5 PUSH1 0x0 DUP5 DUP2 MSTORE PUSH1 0x20 ADD SWAP1 DUP2 MSTORE PUSH1 0x20 ADD PUSH1 0x0 KECCAK256 PUSH1 0x0 DUP3 ADD MLOAD DUP2 PUSH1 0x0 ADD PUSH1 0x0 PUSH2 0x100 EXP DUP2 SLOAD DUP2 PUSH20 0xFFFFFFFFFFFFFFFFFFFFFFFFFFFFFFFFFFFFFFFF MUL NOT AND SWAP1 DUP4 PUSH20 0xFFFFFFFFFFFFFFFFFFFFFFFFFFFFFFFFFFFFFFFF AND MUL OR SWAP1 SSTORE POP PUSH1 0x20 DUP3 ADD MLOAD DUP2 PUSH1 0x1 ADD SSTORE PUSH1 0x40 DUP3 ADD MLOAD DUP2 PUSH1 0x2 ADD SSTORE PUSH1 0x60 DUP3 ADD MLOAD DUP2 PUSH1 0x3 ADD PUSH1 0x0 PUSH2 0x100 EXP DUP2 SLOAD DUP2 PUSH20 0xFFFFFFFFFFFFFFFFFFFFFFFFFFFFFFFFFFFFFFFF MUL NOT AND SWAP1 DUP4 PUSH20 0xFFFFFFFFFFFFFFFFFFFFFFFFFFFFFFFFFFFFFFFF AND MUL OR SWAP1 SSTORE POP PUSH1 0x80 DUP3 ADD MLOAD DUP2 PUSH1 0x4 ADD PUSH1 0x0 PUSH2 0x100 EXP DUP2 SLOAD DUP2 PUSH20 0xFFFFFFFFFFFFFFFFFFFFFFFFFFFFFFFFFFFFFFFF MUL NOT AND SWAP1 DUP4 PUSH20 0xFFFFFFFFFFFFFFFFFFFFFFFFFFFFFFFFFFFFFFFF AND MUL OR SWAP1 SSTORE POP PUSH1 0xA0 DUP3 ADD MLOAD DUP2 PUSH1 0x5 ADD PUSH1 0x0 PUSH2 0x100 EXP DUP2 SLOAD DUP2 PUSH20 0xFFFFFFFFFFFFFFFFFFFFFFFFFFFFFFFFFFFFFFFF MUL NOT AND SWAP1 DUP4 PUSH20 0xFFFFFFFFFFFFFFFFFFFFFFFFFFFFFFFFFFFFFFFF AND MUL OR SWAP1 SSTORE POP PUSH1 0xC0 DUP3 ADD MLOAD DUP2 PUSH1 0x5 ADD PUSH1 0x14 PUSH2 0x100 EXP DUP2 SLOAD DUP2 PUSH1 0xFF MUL NOT AND SWAP1 DUP4 ISZERO ISZERO MUL OR SWAP1 SSTORE POP SWAP1 POP POP PUSH1 0x4 PUSH1 0x0 SWAP1 SLOAD SWAP1 PUSH2 0x100 EXP SWAP1 DIV PUSH20 0xFFFFFFFFFFFFFFFFFFFFFFFFFFFFFFFFFFFFFFFF AND PUSH20 0xFFFFFFFFFFFFFFFFFFFFFFFFFFFFFFFFFFFFFFFF AND PUSH2 0x8FC CALLVALUE SWAP1 DUP2 ISZERO MUL SWAP1 PUSH1 0x40 MLOAD PUSH1 0x0 PUSH1 0x40 MLOAD DUP1 DUP4 SUB DUP2 DUP6 DUP9 DUP9 CALL SWAP4 POP POP POP POP ISZERO DUP1 ISZERO PUSH2 0x11AF JUMPI RETURNDATASIZE PUSH1 0x0 DUP1 RETURNDATACOPY RETURNDATASIZE PUSH1 0x0 REVERT JUMPDEST POP ADDRESS PUSH20 0xFFFFFFFFFFFFFFFFFFFFFFFFFFFFFFFFFFFFFFFF AND CALLER PUSH20 0xFFFFFFFFFFFFFFFFFFFFFFFFFFFFFFFFFFFFFFFF AND PUSH32 0xA0C6C0D02D86FDACECBAA5FDF5894BAB204E31A778250474108540733A9B8D19 DUP6 DUP6 DUP6 PUSH1 0x40 MLOAD PUSH2 0x1211 SWAP4 SWAP3 SWAP2 SWAP1 PUSH2 0x1686 JUMP JUMPDEST PUSH1 0x40 MLOAD DUP1 SWAP2 SUB SWAP1 LOG3 PUSH1 0x1 PUSH1 0x0 DUP2 SWAP1 SSTORE POP POP POP POP JUMP JUMPDEST PUSH1 0x0 PUSH1 0x3 SLOAD SWAP1 POP SWAP1 JUMP JUMPDEST PUSH1 0x0 DUP2 PUSH1 0x0 ADD SLOAD SWAP1 POP PUSH1 0x0 DUP2 GT PUSH2 0x127C JUMPI PUSH1 0x40 MLOAD PUSH32 0x8C379A000000000000000000000000000000000000000000000000000000000 DUP2 MSTORE PUSH1 0x4 ADD PUSH2 0x1273 SWAP1 PUSH2 0x16DF JUMP JUMPDEST PUSH1 0x40 MLOAD DUP1 SWAP2 SUB SWAP1 REVERT JUMPDEST PUSH1 0x1 DUP2 SUB DUP3 PUSH1 0x0 ADD DUP2 SWAP1 SSTORE POP POP POP JUMP JUMPDEST PUSH1 0x1 DUP2 PUSH1 0x0 ADD PUSH1 0x0 DUP3 DUP3 SLOAD ADD SWAP3 POP POP DUP2 SWAP1 SSTORE POP POP JUMP JUMPDEST PUSH1 0x0 DUP2 PUSH1 0x0 ADD SLOAD SWAP1 POP SWAP2 SWAP1 POP JUMP JUMPDEST PUSH1 0x40 MLOAD DUP1 PUSH1 0xE0 ADD PUSH1 0x40 MSTORE DUP1 PUSH1 0x0 PUSH20 0xFFFFFFFFFFFFFFFFFFFFFFFFFFFFFFFFFFFFFFFF AND DUP2 MSTORE PUSH1 0x20 ADD PUSH1 0x0 DUP2 MSTORE PUSH1 0x20 ADD PUSH1 0x0 DUP2 MSTORE PUSH1 0x20 ADD PUSH1 0x0 PUSH20 0xFFFFFFFFFFFFFFFFFFFFFFFFFFFFFFFFFFFFFFFF AND DUP2 MSTORE PUSH1 0x20 ADD PUSH1 0x0 PUSH20 0xFFFFFFFFFFFFFFFFFFFFFFFFFFFFFFFFFFFFFFFF AND DUP2 MSTORE PUSH1 0x20 ADD PUSH1 0x0 PUSH20 0xFFFFFFFFFFFFFFFFFFFFFFFFFFFFFFFFFFFFFFFF AND DUP2 MSTORE PUSH1 0x20 ADD PUSH1 0x0 ISZERO ISZERO DUP2 MSTORE POP SWAP1 JUMP JUMPDEST PUSH1 0x0 DUP2 CALLDATALOAD SWAP1 POP PUSH2 0x1356 DUP2 PUSH2 0x19DF JUMP JUMPDEST SWAP3 SWAP2 POP POP JUMP JUMPDEST PUSH1 0x0 DUP2 CALLDATALOAD SWAP1 POP PUSH2 0x136B DUP2 PUSH2 0x19F6 JUMP JUMPDEST SWAP3 SWAP2 POP POP JUMP JUMPDEST PUSH1 0x0 DUP1 PUSH1 0x40 DUP4 DUP6 SUB SLT ISZERO PUSH2 0x1384 JUMPI PUSH1 0x0 DUP1 REVERT JUMPDEST PUSH1 0x0 PUSH2 0x1392 DUP6 DUP3 DUP7 ADD PUSH2 0x1347 JUMP JUMPDEST SWAP3 POP POP PUSH1 0x20 PUSH2 0x13A3 DUP6 DUP3 DUP7 ADD PUSH2 0x135C JUMP JUMPDEST SWAP2 POP POP SWAP3 POP SWAP3 SWAP1 POP JUMP JUMPDEST PUSH1 0x0 DUP1 PUSH1 0x0 PUSH1 0x60 DUP5 DUP7 SUB SLT ISZERO PUSH2 0x13C2 JUMPI PUSH1 0x0 DUP1 REVERT JUMPDEST PUSH1 0x0 PUSH2 0x13D0 DUP7 DUP3 DUP8 ADD PUSH2 0x1347 JUMP JUMPDEST SWAP4 POP POP PUSH1 0x20 PUSH2 0x13E1 DUP7 DUP3 DUP8 ADD PUSH2 0x135C JUMP JUMPDEST SWAP3 POP POP PUSH1 0x40 PUSH2 0x13F2 DUP7 DUP3 DUP8 ADD PUSH2 0x135C JUMP JUMPDEST SWAP2 POP POP SWAP3 POP SWAP3 POP SWAP3 JUMP JUMPDEST PUSH1 0x0 PUSH2 0x1408 DUP4 DUP4 PUSH2 0x156C JUMP JUMPDEST PUSH1 0xE0 DUP4 ADD SWAP1 POP SWAP3 SWAP2 POP POP JUMP JUMPDEST PUSH2 0x141D DUP2 PUSH2 0x183E JUMP JUMPDEST DUP3 MSTORE POP POP JUMP JUMPDEST PUSH2 0x142C DUP2 PUSH2 0x17F6 JUMP JUMPDEST DUP3 MSTORE POP POP JUMP JUMPDEST PUSH2 0x143B DUP2 PUSH2 0x17E4 JUMP JUMPDEST DUP3 MSTORE POP POP JUMP JUMPDEST PUSH2 0x144A DUP2 PUSH2 0x17E4 JUMP JUMPDEST DUP3 MSTORE POP POP JUMP JUMPDEST PUSH1 0x0 PUSH2 0x145B DUP3 PUSH2 0x17AA JUMP JUMPDEST PUSH2 0x1465 DUP2 DUP6 PUSH2 0x17C2 JUMP JUMPDEST SWAP4 POP PUSH2 0x1470 DUP4 PUSH2 0x179A JUMP JUMPDEST DUP1 PUSH1 0x0 JUMPDEST DUP4 DUP2 LT ISZERO PUSH2 0x14A1 JUMPI DUP2 MLOAD PUSH2 0x1488 DUP9 DUP3 PUSH2 0x13FC JUMP JUMPDEST SWAP8 POP PUSH2 0x1493 DUP4 PUSH2 0x17B5 JUMP JUMPDEST SWAP3 POP POP PUSH1 0x1 DUP2 ADD SWAP1 POP PUSH2 0x1474 JUMP JUMPDEST POP DUP6 SWAP4 POP POP POP POP SWAP3 SWAP2 POP POP JUMP JUMPDEST PUSH2 0x14B7 DUP2 PUSH2 0x1808 JUMP JUMPDEST DUP3 MSTORE POP POP JUMP JUMPDEST PUSH1 0x0 PUSH2 0x14CA PUSH1 0x1B DUP4 PUSH2 0x17D3 JUMP JUMPDEST SWAP2 POP PUSH2 0x14D5 DUP3 PUSH2 0x18EC JUMP JUMPDEST PUSH1 0x20 DUP3 ADD SWAP1 POP SWAP2 SWAP1 POP JUMP JUMPDEST PUSH1 0x0 PUSH2 0x14ED PUSH1 0x26 DUP4 PUSH2 0x17D3 JUMP JUMPDEST SWAP2 POP PUSH2 0x14F8 DUP3 PUSH2 0x1915 JUMP JUMPDEST PUSH1 0x40 DUP3 ADD SWAP1 POP SWAP2 SWAP1 POP JUMP JUMPDEST PUSH1 0x0 PUSH2 0x1510 PUSH1 0x20 DUP4 PUSH2 0x17D3 JUMP JUMPDEST SWAP2 POP PUSH2 0x151B DUP3 PUSH2 0x1964 JUMP JUMPDEST PUSH1 0x20 DUP3 ADD SWAP1 POP SWAP2 SWAP1 POP JUMP JUMPDEST PUSH1 0x0 PUSH2 0x1533 PUSH1 0x1F DUP4 PUSH2 0x17D3 JUMP JUMPDEST SWAP2 POP PUSH2 0x153E DUP3 PUSH2 0x198D JUMP JUMPDEST PUSH1 0x20 DUP3 ADD SWAP1 POP SWAP2 SWAP1 POP JUMP JUMPDEST PUSH1 0x0 PUSH2 0x1556 PUSH1 0x1C DUP4 PUSH2 0x17D3 JUMP JUMPDEST SWAP2 POP PUSH2 0x1561 DUP3 PUSH2 0x19B6 JUMP JUMPDEST PUSH1 0x20 DUP3 ADD SWAP1 POP SWAP2 SWAP1 POP JUMP JUMPDEST PUSH1 0xE0 DUP3 ADD PUSH1 0x0 DUP3 ADD MLOAD PUSH2 0x1582 PUSH1 0x0 DUP6 ADD DUP3 PUSH2 0x1432 JUMP JUMPDEST POP PUSH1 0x20 DUP3 ADD MLOAD PUSH2 0x1595 PUSH1 0x20 DUP6 ADD DUP3 PUSH2 0x15FA JUMP JUMPDEST POP PUSH1 0x40 DUP3 ADD MLOAD PUSH2 0x15A8 PUSH1 0x40 DUP6 ADD DUP3 PUSH2 0x15FA JUMP JUMPDEST POP PUSH1 0x60 DUP3 ADD MLOAD PUSH2 0x15BB PUSH1 0x60 DUP6 ADD DUP3 PUSH2 0x1423 JUMP JUMPDEST POP PUSH1 0x80 DUP3 ADD MLOAD PUSH2 0x15CE PUSH1 0x80 DUP6 ADD DUP3 PUSH2 0x1423 JUMP JUMPDEST POP PUSH1 0xA0 DUP3 ADD MLOAD PUSH2 0x15E1 PUSH1 0xA0 DUP6 ADD DUP3 PUSH2 0x1423 JUMP JUMPDEST POP PUSH1 0xC0 DUP3 ADD MLOAD PUSH2 0x15F4 PUSH1 0xC0 DUP6 ADD DUP3 PUSH2 0x14AE JUMP JUMPDEST POP POP POP POP JUMP JUMPDEST PUSH2 0x1603 DUP2 PUSH2 0x1834 JUMP JUMPDEST DUP3 MSTORE POP POP JUMP JUMPDEST PUSH2 0x1612 DUP2 PUSH2 0x1834 JUMP JUMPDEST DUP3 MSTORE POP POP JUMP JUMPDEST PUSH1 0x0 PUSH1 0x60 DUP3 ADD SWAP1 POP PUSH2 0x162D PUSH1 0x0 DUP4 ADD DUP7 PUSH2 0x1441 JUMP JUMPDEST PUSH2 0x163A PUSH1 0x20 DUP4 ADD DUP6 PUSH2 0x1414 JUMP JUMPDEST PUSH2 0x1647 PUSH1 0x40 DUP4 ADD DUP5 PUSH2 0x1609 JUMP JUMPDEST SWAP5 SWAP4 POP POP POP POP JUMP JUMPDEST PUSH1 0x0 PUSH1 0x60 DUP3 ADD SWAP1 POP PUSH2 0x1664 PUSH1 0x0 DUP4 ADD DUP7 PUSH2 0x1441 JUMP JUMPDEST PUSH2 0x1671 PUSH1 0x20 DUP4 ADD DUP6 PUSH2 0x1441 JUMP JUMPDEST PUSH2 0x167E PUSH1 0x40 DUP4 ADD DUP5 PUSH2 0x1609 JUMP JUMPDEST SWAP5 SWAP4 POP POP POP POP JUMP JUMPDEST PUSH1 0x0 PUSH1 0x60 DUP3 ADD SWAP1 POP PUSH2 0x169B PUSH1 0x0 DUP4 ADD DUP7 PUSH2 0x1441 JUMP JUMPDEST PUSH2 0x16A8 PUSH1 0x20 DUP4 ADD DUP6 PUSH2 0x1609 JUMP JUMPDEST PUSH2 0x16B5 PUSH1 0x40 DUP4 ADD DUP5 PUSH2 0x1609 JUMP JUMPDEST SWAP5 SWAP4 POP POP POP POP JUMP JUMPDEST PUSH1 0x0 PUSH1 0x20 DUP3 ADD SWAP1 POP DUP2 DUP2 SUB PUSH1 0x0 DUP4 ADD MSTORE PUSH2 0x16D7 DUP2 DUP5 PUSH2 0x1450 JUMP JUMPDEST SWAP1 POP SWAP3 SWAP2 POP POP JUMP JUMPDEST PUSH1 0x0 PUSH1 0x20 DUP3 ADD SWAP1 POP DUP2 DUP2 SUB PUSH1 0x0 DUP4 ADD MSTORE PUSH2 0x16F8 DUP2 PUSH2 0x14BD JUMP JUMPDEST SWAP1 POP SWAP2 SWAP1 POP JUMP JUMPDEST PUSH1 0x0 PUSH1 0x20 DUP3 ADD SWAP1 POP DUP2 DUP2 SUB PUSH1 0x0 DUP4 ADD MSTORE PUSH2 0x1718 DUP2 PUSH2 0x14E0 JUMP JUMPDEST SWAP1 POP SWAP2 SWAP1 POP JUMP JUMPDEST PUSH1 0x0 PUSH1 0x20 DUP3 ADD SWAP1 POP DUP2 DUP2 SUB PUSH1 0x0 DUP4 ADD MSTORE PUSH2 0x1738 DUP2 PUSH2 0x1503 JUMP JUMPDEST SWAP1 POP SWAP2 SWAP1 POP JUMP JUMPDEST PUSH1 0x0 PUSH1 0x20 DUP3 ADD SWAP1 POP DUP2 DUP2 SUB PUSH1 0x0 DUP4 ADD MSTORE PUSH2 0x1758 DUP2 PUSH2 0x1526 JUMP JUMPDEST SWAP1 POP SWAP2 SWAP1 POP JUMP JUMPDEST PUSH1 0x0 PUSH1 0x20 DUP3 ADD SWAP1 POP DUP2 DUP2 SUB PUSH1 0x0 DUP4 ADD MSTORE PUSH2 0x1778 DUP2 PUSH2 0x1549 JUMP JUMPDEST SWAP1 POP SWAP2 SWAP1 POP JUMP JUMPDEST PUSH1 0x0 PUSH1 0x20 DUP3 ADD SWAP1 POP PUSH2 0x1794 PUSH1 0x0 DUP4 ADD DUP5 PUSH2 0x1609 JUMP JUMPDEST SWAP3 SWAP2 POP POP JUMP JUMPDEST PUSH1 0x0 DUP2 SWAP1 POP PUSH1 0x20 DUP3 ADD SWAP1 POP SWAP2 SWAP1 POP JUMP JUMPDEST PUSH1 0x0 DUP2 MLOAD SWAP1 POP SWAP2 SWAP1 POP JUMP JUMPDEST PUSH1 0x0 PUSH1 0x20 DUP3 ADD SWAP1 POP SWAP2 SWAP1 POP JUMP JUMPDEST PUSH1 0x0 DUP3 DUP3 MSTORE PUSH1 0x20 DUP3 ADD SWAP1 POP SWAP3 SWAP2 POP POP JUMP JUMPDEST PUSH1 0x0 DUP3 DUP3 MSTORE PUSH1 0x20 DUP3 ADD SWAP1 POP SWAP3 SWAP2 POP POP JUMP JUMPDEST PUSH1 0x0 PUSH2 0x17EF DUP3 PUSH2 0x1814 JUMP JUMPDEST SWAP1 POP SWAP2 SWAP1 POP JUMP JUMPDEST PUSH1 0x0 PUSH2 0x1801 DUP3 PUSH2 0x1814 JUMP JUMPDEST SWAP1 POP SWAP2 SWAP1 POP JUMP JUMPDEST PUSH1 0x0 DUP2 ISZERO ISZERO SWAP1 POP SWAP2 SWAP1 POP JUMP JUMPDEST PUSH1 0x0 PUSH20 0xFFFFFFFFFFFFFFFFFFFFFFFFFFFFFFFFFFFFFFFF DUP3 AND SWAP1 POP SWAP2 SWAP1 POP JUMP JUMPDEST PUSH1 0x0 DUP2 SWAP1 POP SWAP2 SWAP1 POP JUMP JUMPDEST PUSH1 0x0 PUSH2 0x1849 DUP3 PUSH2 0x1850 JUMP JUMPDEST SWAP1 POP SWAP2 SWAP1 POP JUMP JUMPDEST PUSH1 0x0 PUSH2 0x185B DUP3 PUSH2 0x1862 JUMP JUMPDEST SWAP1 POP SWAP2 SWAP1 POP JUMP JUMPDEST PUSH1 0x0 PUSH2 0x186D DUP3 PUSH2 0x1814 JUMP JUMPDEST SWAP1 POP SWAP2 SWAP1 POP JUMP JUMPDEST PUSH1 0x0 PUSH2 0x187F DUP3 PUSH2 0x1834 JUMP JUMPDEST SWAP2 POP PUSH32 0xFFFFFFFFFFFFFFFFFFFFFFFFFFFFFFFFFFFFFFFFFFFFFFFFFFFFFFFFFFFFFFFF DUP3 EQ ISZERO PUSH2 0x18B2 JUMPI PUSH2 0x18B1 PUSH2 0x18BD JUMP JUMPDEST JUMPDEST PUSH1 0x1 DUP3 ADD SWAP1 POP SWAP2 SWAP1 POP JUMP JUMPDEST PUSH32 0x4E487B7100000000000000000000000000000000000000000000000000000000 PUSH1 0x0 MSTORE PUSH1 0x11 PUSH1 0x4 MSTORE PUSH1 0x24 PUSH1 0x0 REVERT JUMPDEST PUSH32 0x436F756E7465723A2064656372656D656E74206F766572666C6F770000000000 PUSH1 0x0 DUP3 ADD MSTORE POP JUMP JUMPDEST PUSH32 0x4E6F7420656E6F75676820657468657220746F20636F7665722061736B696E67 PUSH1 0x0 DUP3 ADD MSTORE PUSH32 0x2070726963650000000000000000000000000000000000000000000000000000 PUSH1 0x20 DUP3 ADD MSTORE POP JUMP JUMPDEST PUSH32 0x4E6F7420656E6F75676820657468657220666F72206C697374696E6720666565 PUSH1 0x0 DUP3 ADD MSTORE POP JUMP JUMPDEST PUSH32 0x5265656E7472616E637947756172643A207265656E7472616E742063616C6C00 PUSH1 0x0 DUP3 ADD MSTORE POP JUMP JUMPDEST PUSH32 0x5072696365206D757374206265206174206C6561737420312077656900000000 PUSH1 0x0 DUP3 ADD MSTORE POP JUMP JUMPDEST PUSH2 0x19E8 DUP2 PUSH2 0x17E4 JUMP JUMPDEST DUP2 EQ PUSH2 0x19F3 JUMPI PUSH1 0x0 DUP1 REVERT JUMPDEST POP JUMP JUMPDEST PUSH2 0x19FF DUP2 PUSH2 0x1834 JUMP JUMPDEST DUP2 EQ PUSH2 0x1A0A JUMPI PUSH1 0x0 DUP1 REVERT JUMPDEST POP JUMP INVALID LOG2 PUSH5 0x6970667358 0x22 SLT KECCAK256 BLOCKHASH PUSH8 0xDEA2BA145C6DFD5B MOD BALANCE SWAP8 PUSH19 0x921BBF823DF9AF1C11FB5AB3AF944FD0D5B064 PUSH20 0x6F6C634300080100330000000000000000000000 "
				},
				"gasEstimates": {
					"creation": {
						"codeDepositCost": "1344600",
						"executionCost": "62289",
						"totalCost": "1406889"
					},
					"external": {
						"LISTING_FEE()": "1152",
						"buyNft(address,uint256)": "infinite",
						"getListingFee()": "1203",
						"getMyCreatedNfts()": "infinite",
						"getMyOwnedNfts()": "infinite",
						"listNFT(address,uint256,uint256)": "infinite",
						"resellNFT(address,uint256,uint256)": "infinite"
					}
				},
				"methodIdentifiers": {
					"LISTING_FEE()": "2b86ae38",
					"buyNft(address,uint256)": "4ddf4f8f",
					"getListingFee()": "b8fe6abe",
					"getMyCreatedNfts()": "8492095a",
					"getMyOwnedNfts()": "a46b5c5a",
					"listNFT(address,uint256,uint256)": "ad05f1b4",
					"resellNFT(address,uint256,uint256)": "04935694"
				}
			},
			"storageLayout": {
				"storage": [
					{
						"astId": 635,
						"contract": "contracts/GeekNftMarketPlace.sol:GeekNftMarketPlace",
						"label": "_status",
						"offset": 0,
						"slot": "0",
						"type": "t_uint256"
					},
					{
						"astId": 96,
						"contract": "contracts/GeekNftMarketPlace.sol:GeekNftMarketPlace",
						"label": "_nftsSold",
						"offset": 0,
						"slot": "1",
						"type": "t_struct(Counter)5_storage"
					},
					{
						"astId": 99,
						"contract": "contracts/GeekNftMarketPlace.sol:GeekNftMarketPlace",
						"label": "_nftsCount",
						"offset": 0,
						"slot": "2",
						"type": "t_struct(Counter)5_storage"
					},
					{
						"astId": 102,
						"contract": "contracts/GeekNftMarketPlace.sol:GeekNftMarketPlace",
						"label": "LISTING_FEE",
						"offset": 0,
						"slot": "3",
						"type": "t_uint256"
					},
					{
						"astId": 104,
						"contract": "contracts/GeekNftMarketPlace.sol:GeekNftMarketPlace",
						"label": "_marketOwwner",
						"offset": 0,
						"slot": "4",
						"type": "t_address_payable"
					},
					{
						"astId": 109,
						"contract": "contracts/GeekNftMarketPlace.sol:GeekNftMarketPlace",
						"label": "_idToNft",
						"offset": 0,
						"slot": "5",
						"type": "t_mapping(t_uint256,t_struct(NFT)124_storage)"
					}
				],
				"types": {
					"t_address": {
						"encoding": "inplace",
						"label": "address",
						"numberOfBytes": "20"
					},
					"t_address_payable": {
						"encoding": "inplace",
						"label": "address payable",
						"numberOfBytes": "20"
					},
					"t_bool": {
						"encoding": "inplace",
						"label": "bool",
						"numberOfBytes": "1"
					},
					"t_mapping(t_uint256,t_struct(NFT)124_storage)": {
						"encoding": "mapping",
						"key": "t_uint256",
						"label": "mapping(uint256 => struct GeekNftMarketPlace.NFT)",
						"numberOfBytes": "32",
						"value": "t_struct(NFT)124_storage"
					},
					"t_struct(Counter)5_storage": {
						"encoding": "inplace",
						"label": "struct Counters.Counter",
						"members": [
							{
								"astId": 4,
								"contract": "contracts/GeekNftMarketPlace.sol:GeekNftMarketPlace",
								"label": "_value",
								"offset": 0,
								"slot": "0",
								"type": "t_uint256"
							}
						],
						"numberOfBytes": "32"
					},
					"t_struct(NFT)124_storage": {
						"encoding": "inplace",
						"label": "struct GeekNftMarketPlace.NFT",
						"members": [
							{
								"astId": 111,
								"contract": "contracts/GeekNftMarketPlace.sol:GeekNftMarketPlace",
								"label": "nftContract",
								"offset": 0,
								"slot": "0",
								"type": "t_address"
							},
							{
								"astId": 113,
								"contract": "contracts/GeekNftMarketPlace.sol:GeekNftMarketPlace",
								"label": "tokenId",
								"offset": 0,
								"slot": "1",
								"type": "t_uint256"
							},
							{
								"astId": 115,
								"contract": "contracts/GeekNftMarketPlace.sol:GeekNftMarketPlace",
								"label": "price",
								"offset": 0,
								"slot": "2",
								"type": "t_uint256"
							},
							{
								"astId": 117,
								"contract": "contracts/GeekNftMarketPlace.sol:GeekNftMarketPlace",
								"label": "seller",
								"offset": 0,
								"slot": "3",
								"type": "t_address_payable"
							},
							{
								"astId": 119,
								"contract": "contracts/GeekNftMarketPlace.sol:GeekNftMarketPlace",
								"label": "owner",
								"offset": 0,
								"slot": "4",
								"type": "t_address_payable"
							},
							{
								"astId": 121,
								"contract": "contracts/GeekNftMarketPlace.sol:GeekNftMarketPlace",
								"label": "creator",
								"offset": 0,
								"slot": "5",
								"type": "t_address_payable"
							},
							{
								"astId": 123,
								"contract": "contracts/GeekNftMarketPlace.sol:GeekNftMarketPlace",
								"label": "listed",
								"offset": 20,
								"slot": "5",
								"type": "t_bool"
							}
						],
						"numberOfBytes": "192"
					},
					"t_uint256": {
						"encoding": "inplace",
						"label": "uint256",
						"numberOfBytes": "32"
					}
				}
			},
			"userdoc": {
				"kind": "user",
				"methods": {},
				"version": 1
			}
		}
	}
}