{
	"contracts/GeekNftMarketPlace.sol": {
		"GeekNftMarketPlace": {
			"abi": [
				{
					"inputs": [],
					"stateMutability": "nonpayable",
					"type": "constructor"
				},
				{
					"anonymous": false,
					"inputs": [
						{
							"indexed": false,
							"internalType": "address",
							"name": "nftContract",
							"type": "address"
						},
						{
							"indexed": false,
							"internalType": "uint256",
							"name": "tokenId",
							"type": "uint256"
						},
						{
							"indexed": true,
							"internalType": "address",
							"name": "seller",
							"type": "address"
						},
						{
							"indexed": true,
							"internalType": "address",
							"name": "owner",
							"type": "address"
						},
						{
							"indexed": false,
							"internalType": "uint256",
							"name": "price",
							"type": "uint256"
						}
					],
					"name": "NFTListed",
					"type": "event"
				},
				{
					"anonymous": false,
					"inputs": [
						{
							"indexed": false,
							"internalType": "address",
							"name": "nftContract",
							"type": "address"
						},
						{
							"indexed": false,
							"internalType": "uint256",
							"name": "tokenId",
							"type": "uint256"
						},
						{
							"indexed": true,
							"internalType": "address",
							"name": "seller",
							"type": "address"
						},
						{
							"indexed": true,
							"internalType": "address",
							"name": "owner",
							"type": "address"
						},
						{
							"indexed": false,
							"internalType": "uint256",
							"name": "price",
							"type": "uint256"
						}
					],
					"name": "NFTSold",
					"type": "event"
				},
				{
					"inputs": [],
					"name": "LISTING_FEE",
					"outputs": [
						{
							"internalType": "uint256",
							"name": "",
							"type": "uint256"
						}
					],
					"stateMutability": "view",
					"type": "function"
				},
				{
					"inputs": [
						{
							"internalType": "address",
							"name": "_nftContract",
							"type": "address"
						},
						{
							"internalType": "uint256",
							"name": "_tokenId",
							"type": "uint256"
						}
					],
					"name": "buyNft",
					"outputs": [],
					"stateMutability": "payable",
					"type": "function"
				},
				{
					"inputs": [],
					"name": "getListedNfts",
					"outputs": [
						{
							"components": [
								{
									"internalType": "address",
									"name": "nftContract",
									"type": "address"
								},
								{
									"internalType": "uint256",
									"name": "tokenId",
									"type": "uint256"
								},
								{
									"internalType": "uint256",
									"name": "price",
									"type": "uint256"
								},
								{
									"internalType": "address payable",
									"name": "seller",
									"type": "address"
								},
								{
									"internalType": "address payable",
									"name": "owner",
									"type": "address"
								},
								{
									"internalType": "address payable",
									"name": "creator",
									"type": "address"
								},
								{
									"internalType": "bool",
									"name": "listed",
									"type": "bool"
								}
							],
							"internalType": "struct GeekNftMarketPlace.NFT[]",
							"name": "",
							"type": "tuple[]"
						}
					],
					"stateMutability": "view",
					"type": "function"
				},
				{
					"inputs": [],
					"name": "getListingFee",
					"outputs": [
						{
							"internalType": "uint256",
							"name": "",
							"type": "uint256"
						}
					],
					"stateMutability": "view",
					"type": "function"
				},
				{
					"inputs": [],
					"name": "getMyCreatedNfts",
					"outputs": [
						{
							"components": [
								{
									"internalType": "address",
									"name": "nftContract",
									"type": "address"
								},
								{
									"internalType": "uint256",
									"name": "tokenId",
									"type": "uint256"
								},
								{
									"internalType": "uint256",
									"name": "price",
									"type": "uint256"
								},
								{
									"internalType": "address payable",
									"name": "seller",
									"type": "address"
								},
								{
									"internalType": "address payable",
									"name": "owner",
									"type": "address"
								},
								{
									"internalType": "address payable",
									"name": "creator",
									"type": "address"
								},
								{
									"internalType": "bool",
									"name": "listed",
									"type": "bool"
								}
							],
							"internalType": "struct GeekNftMarketPlace.NFT[]",
							"name": "",
							"type": "tuple[]"
						}
					],
					"stateMutability": "view",
					"type": "function"
				},
				{
					"inputs": [],
					"name": "getMyListedNfts",
					"outputs": [
						{
							"components": [
								{
									"internalType": "address",
									"name": "nftContract",
									"type": "address"
								},
								{
									"internalType": "uint256",
									"name": "tokenId",
									"type": "uint256"
								},
								{
									"internalType": "uint256",
									"name": "price",
									"type": "uint256"
								},
								{
									"internalType": "address payable",
									"name": "seller",
									"type": "address"
								},
								{
									"internalType": "address payable",
									"name": "owner",
									"type": "address"
								},
								{
									"internalType": "address payable",
									"name": "creator",
									"type": "address"
								},
								{
									"internalType": "bool",
									"name": "listed",
									"type": "bool"
								}
							],
							"internalType": "struct GeekNftMarketPlace.NFT[]",
							"name": "",
							"type": "tuple[]"
						}
					],
					"stateMutability": "view",
					"type": "function"
				},
				{
					"inputs": [],
					"name": "getMyOwnedNfts",
					"outputs": [
						{
							"components": [
								{
									"internalType": "address",
									"name": "nftContract",
									"type": "address"
								},
								{
									"internalType": "uint256",
									"name": "tokenId",
									"type": "uint256"
								},
								{
									"internalType": "uint256",
									"name": "price",
									"type": "uint256"
								},
								{
									"internalType": "address payable",
									"name": "seller",
									"type": "address"
								},
								{
									"internalType": "address payable",
									"name": "owner",
									"type": "address"
								},
								{
									"internalType": "address payable",
									"name": "creator",
									"type": "address"
								},
								{
									"internalType": "bool",
									"name": "listed",
									"type": "bool"
								}
							],
							"internalType": "struct GeekNftMarketPlace.NFT[]",
							"name": "",
							"type": "tuple[]"
						}
					],
					"stateMutability": "view",
					"type": "function"
				},
				{
					"inputs": [],
					"name": "getNftMy",
					"outputs": [
						{
							"components": [
								{
									"internalType": "address",
									"name": "nftContract",
									"type": "address"
								},
								{
									"internalType": "uint256",
									"name": "tokenId",
									"type": "uint256"
								},
								{
									"internalType": "uint256",
									"name": "price",
									"type": "uint256"
								},
								{
									"internalType": "address payable",
									"name": "seller",
									"type": "address"
								},
								{
									"internalType": "address payable",
									"name": "owner",
									"type": "address"
								},
								{
									"internalType": "address payable",
									"name": "creator",
									"type": "address"
								},
								{
									"internalType": "bool",
									"name": "listed",
									"type": "bool"
								}
							],
							"internalType": "struct GeekNftMarketPlace.NFT[]",
							"name": "",
							"type": "tuple[]"
						}
					],
					"stateMutability": "view",
					"type": "function"
				},
				{
					"inputs": [
						{
							"internalType": "address",
							"name": "_nftContract",
							"type": "address"
						},
						{
							"internalType": "uint256",
							"name": "_tokenId",
							"type": "uint256"
						}
					],
					"name": "getOwner",
					"outputs": [
						{
							"internalType": "address",
							"name": "",
							"type": "address"
						}
					],
					"stateMutability": "view",
					"type": "function"
				},
				{
					"inputs": [
						{
							"internalType": "address",
							"name": "_nftContract",
							"type": "address"
						},
						{
							"internalType": "uint256",
							"name": "_tokenId",
							"type": "uint256"
						},
						{
							"internalType": "uint256",
							"name": "_price",
							"type": "uint256"
						}
					],
					"name": "listNFT",
					"outputs": [],
					"stateMutability": "payable",
					"type": "function"
				},
				{
					"inputs": [
						{
							"internalType": "address",
							"name": "_nftContract",
							"type": "address"
						},
						{
							"internalType": "uint256",
							"name": "_tokenId",
							"type": "uint256"
						},
						{
							"internalType": "uint256",
							"name": "_price",
							"type": "uint256"
						}
					],
					"name": "resellNFT",
					"outputs": [],
					"stateMutability": "payable",
					"type": "function"
				}
			],
			"devdoc": {
				"kind": "dev",
				"methods": {},
				"version": 1
			},
			"evm": {
				"assembly": "    /* \"contracts/GeekNftMarketPlace.sol\":297:7185  contract GeekNftMarketPlace is ReentrancyGuard {... */\n  mstore(0x40, 0x80)\n    /* \"contracts/GeekNftMarketPlace.sol\":500:511  0.002 ether */\n  0x071afd498d0000\n    /* \"contracts/GeekNftMarketPlace.sol\":474:511  uint public LISTING_FEE = 0.002 ether */\n  0x03\n  sstore\n    /* \"contracts/GeekNftMarketPlace.sol\":1019:1085  constructor() {... */\n  callvalue\n  dup1\n  iszero\n  tag_1\n  jumpi\n  0x00\n  dup1\n  revert\ntag_1:\n  pop\n    /* \"contracts/RenntrancyGuard.sol\":128:129  1 */\n  0x01\n    /* \"contracts/RenntrancyGuard.sol\":233:240  _status */\n  0x00\n    /* \"contracts/RenntrancyGuard.sol\":233:255  _status = _NOT_ENTERED */\n  dup2\n  swap1\n  sstore\n  pop\n    /* \"contracts/GeekNftMarketPlace.sol\":1067:1077  msg.sender */\n  caller\n    /* \"contracts/GeekNftMarketPlace.sol\":1043:1056  _marketOwwner */\n  0x04\n  0x00\n    /* \"contracts/GeekNftMarketPlace.sol\":1043:1078  _marketOwwner = payable(msg.sender) */\n  0x0100\n  exp\n  dup2\n  sload\n  dup2\n  0xffffffffffffffffffffffffffffffffffffffff\n  mul\n  not\n  and\n  swap1\n  dup4\n  0xffffffffffffffffffffffffffffffffffffffff\n  and\n  mul\n  or\n  swap1\n  sstore\n  pop\n    /* \"contracts/GeekNftMarketPlace.sol\":297:7185  contract GeekNftMarketPlace is ReentrancyGuard {... */\n  dataSize(sub_0)\n  dup1\n  dataOffset(sub_0)\n  0x00\n  codecopy\n  0x00\n  return\nstop\n\nsub_0: assembly {\n        /* \"contracts/GeekNftMarketPlace.sol\":297:7185  contract GeekNftMarketPlace is ReentrancyGuard {... */\n      mstore(0x40, 0x80)\n      jumpi(tag_1, lt(calldatasize, 0x04))\n      shr(0xe0, calldataload(0x00))\n      dup1\n      0x6dc15e67\n      gt\n      tag_13\n      jumpi\n      dup1\n      0x6dc15e67\n      eq\n      tag_7\n      jumpi\n      dup1\n      0x8492095a\n      eq\n      tag_8\n      jumpi\n      dup1\n      0x8d6cb3fb\n      eq\n      tag_9\n      jumpi\n      dup1\n      0xa46b5c5a\n      eq\n      tag_10\n      jumpi\n      dup1\n      0xad05f1b4\n      eq\n      tag_11\n      jumpi\n      dup1\n      0xb8fe6abe\n      eq\n      tag_12\n      jumpi\n      jump(tag_1)\n    tag_13:\n      dup1\n      0x04935694\n      eq\n      tag_2\n      jumpi\n      dup1\n      0x1f4cc4db\n      eq\n      tag_3\n      jumpi\n      dup1\n      0x2b86ae38\n      eq\n      tag_4\n      jumpi\n      dup1\n      0x2f634a90\n      eq\n      tag_5\n      jumpi\n      dup1\n      0x4ddf4f8f\n      eq\n      tag_6\n      jumpi\n    tag_1:\n      0x00\n      dup1\n      revert\n        /* \"contracts/GeekNftMarketPlace.sol\":2866:3641  function resellNFT(address _nftContract, uint _tokenId, uint _price) public payable nonReentrant{... */\n    tag_2:\n      tag_14\n      0x04\n      dup1\n      calldatasize\n      sub\n      dup2\n      add\n      swap1\n      tag_15\n      swap2\n      swap1\n      tag_16\n      jump\t// in\n    tag_15:\n      tag_17\n      jump\t// in\n    tag_14:\n      stop\n        /* \"contracts/GeekNftMarketPlace.sol\":4948:5577  function getMyListedNfts() public view returns (NFT[] memory) {... */\n    tag_3:\n      callvalue\n      dup1\n      iszero\n      tag_18\n      jumpi\n      0x00\n      dup1\n      revert\n    tag_18:\n      pop\n      tag_19\n      tag_20\n      jump\t// in\n    tag_19:\n      mload(0x40)\n      tag_21\n      swap2\n      swap1\n      tag_22\n      jump\t// in\n    tag_21:\n      mload(0x40)\n      dup1\n      swap2\n      sub\n      swap1\n      return\n        /* \"contracts/GeekNftMarketPlace.sol\":474:511  uint public LISTING_FEE = 0.002 ether */\n    tag_4:\n      callvalue\n      dup1\n      iszero\n      tag_23\n      jumpi\n      0x00\n      dup1\n      revert\n    tag_23:\n      pop\n      tag_24\n      tag_25\n      jump\t// in\n    tag_24:\n      mload(0x40)\n      tag_26\n      swap2\n      swap1\n      tag_27\n      jump\t// in\n    tag_26:\n      mload(0x40)\n      dup1\n      swap2\n      sub\n      swap1\n      return\n        /* \"contracts/GeekNftMarketPlace.sol\":1183:1339  function getOwner(address _nftContract, uint _tokenId) public view returns (address){... */\n    tag_5:\n      callvalue\n      dup1\n      iszero\n      tag_28\n      jumpi\n      0x00\n      dup1\n      revert\n    tag_28:\n      pop\n      tag_29\n      0x04\n      dup1\n      calldatasize\n      sub\n      dup2\n      add\n      swap1\n      tag_30\n      swap2\n      swap1\n      tag_31\n      jump\t// in\n    tag_30:\n      tag_32\n      jump\t// in\n    tag_29:\n      mload(0x40)\n      tag_33\n      swap2\n      swap1\n      tag_34\n      jump\t// in\n    tag_33:\n      mload(0x40)\n      dup1\n      swap2\n      sub\n      swap1\n      return\n        /* \"contracts/GeekNftMarketPlace.sol\":2124:2811  function buyNft(address _nftContract, uint _tokenId) public payable nonReentrant{... */\n    tag_6:\n      tag_35\n      0x04\n      dup1\n      calldatasize\n      sub\n      dup2\n      add\n      swap1\n      tag_36\n      swap2\n      swap1\n      tag_31\n      jump\t// in\n    tag_36:\n      tag_37\n      jump\t// in\n    tag_35:\n      stop\n        /* \"contracts/GeekNftMarketPlace.sol\":5618:6240  function getNftMy() public view returns (NFT[] memory) {... */\n    tag_7:\n      callvalue\n      dup1\n      iszero\n      tag_38\n      jumpi\n      0x00\n      dup1\n      revert\n    tag_38:\n      pop\n      tag_39\n      tag_40\n      jump\t// in\n    tag_39:\n      mload(0x40)\n      tag_41\n      swap2\n      swap1\n      tag_22\n      jump\t// in\n    tag_41:\n      mload(0x40)\n      dup1\n      swap2\n      sub\n      swap1\n      return\n        /* \"contracts/GeekNftMarketPlace.sol\":4311:4907  function getMyCreatedNfts() public view returns (NFT[] memory) {... */\n    tag_8:\n      callvalue\n      dup1\n      iszero\n      tag_42\n      jumpi\n      0x00\n      dup1\n      revert\n    tag_42:\n      pop\n      tag_43\n      tag_44\n      jump\t// in\n    tag_43:\n      mload(0x40)\n      tag_45\n      swap2\n      swap1\n      tag_22\n      jump\t// in\n    tag_45:\n      mload(0x40)\n      dup1\n      swap2\n      sub\n      swap1\n      return\n        /* \"contracts/GeekNftMarketPlace.sol\":6246:6712  function getListedNfts() public view returns (NFT[] memory) {... */\n    tag_9:\n      callvalue\n      dup1\n      iszero\n      tag_46\n      jumpi\n      0x00\n      dup1\n      revert\n    tag_46:\n      pop\n      tag_47\n      tag_48\n      jump\t// in\n    tag_47:\n      mload(0x40)\n      tag_49\n      swap2\n      swap1\n      tag_22\n      jump\t// in\n    tag_49:\n      mload(0x40)\n      dup1\n      swap2\n      sub\n      swap1\n      return\n        /* \"contracts/GeekNftMarketPlace.sol\":3680:4270  function getMyOwnedNfts() public view returns (NFT[] memory) {... */\n    tag_10:\n      callvalue\n      dup1\n      iszero\n      tag_50\n      jumpi\n      0x00\n      dup1\n      revert\n    tag_50:\n      pop\n      tag_51\n      tag_52\n      jump\t// in\n    tag_51:\n      mload(0x40)\n      tag_53\n      swap2\n      swap1\n      tag_22\n      jump\t// in\n    tag_53:\n      mload(0x40)\n      dup1\n      swap2\n      sub\n      swap1\n      return\n        /* \"contracts/GeekNftMarketPlace.sol\":1384:2100  function listNFT(address _nftContract, uint _tokenId, uint _price) public payable nonReentrant{... */\n    tag_11:\n      tag_54\n      0x04\n      dup1\n      calldatasize\n      sub\n      dup2\n      add\n      swap1\n      tag_55\n      swap2\n      swap1\n      tag_16\n      jump\t// in\n    tag_55:\n      tag_56\n      jump\t// in\n    tag_54:\n      stop\n        /* \"contracts/GeekNftMarketPlace.sol\":1091:1177  function getListingFee() public view returns (uint){... */\n    tag_12:\n      callvalue\n      dup1\n      iszero\n      tag_57\n      jumpi\n      0x00\n      dup1\n      revert\n    tag_57:\n      pop\n      tag_58\n      tag_59\n      jump\t// in\n    tag_58:\n      mload(0x40)\n      tag_60\n      swap2\n      swap1\n      tag_27\n      jump\t// in\n    tag_60:\n      mload(0x40)\n      dup1\n      swap2\n      sub\n      swap1\n      return\n        /* \"contracts/GeekNftMarketPlace.sol\":2866:3641  function resellNFT(address _nftContract, uint _tokenId, uint _price) public payable nonReentrant{... */\n    tag_17:\n        /* \"contracts/RenntrancyGuard.sol\":171:172  2 */\n      0x02\n        /* \"contracts/RenntrancyGuard.sol\":310:317  _status */\n      sload(0x00)\n        /* \"contracts/RenntrancyGuard.sol\":310:329  _status != _ENTERED */\n      eq\n      iszero\n        /* \"contracts/RenntrancyGuard.sol\":302:365  require(_status != _ENTERED, \"ReentrancyGuard: reentrant call\") */\n      tag_62\n      jumpi\n      mload(0x40)\n      0x08c379a000000000000000000000000000000000000000000000000000000000\n      dup2\n      mstore\n      0x04\n      add\n      tag_63\n      swap1\n      tag_64\n      jump\t// in\n    tag_63:\n      mload(0x40)\n      dup1\n      swap2\n      sub\n      swap1\n      revert\n    tag_62:\n        /* \"contracts/RenntrancyGuard.sol\":171:172  2 */\n      0x02\n        /* \"contracts/RenntrancyGuard.sol\":375:382  _status */\n      0x00\n        /* \"contracts/RenntrancyGuard.sol\":375:393  _status = _ENTERED */\n      dup2\n      swap1\n      sstore\n      pop\n        /* \"contracts/GeekNftMarketPlace.sol\":2989:2990  0 */\n      0x00\n        /* \"contracts/GeekNftMarketPlace.sol\":2980:2986  _price */\n      dup2\n        /* \"contracts/GeekNftMarketPlace.sol\":2980:2990  _price > 0 */\n      gt\n        /* \"contracts/GeekNftMarketPlace.sol\":2972:3023  require(_price > 0, \"Price must be at least 1 wei\") */\n      tag_66\n      jumpi\n      mload(0x40)\n      0x08c379a000000000000000000000000000000000000000000000000000000000\n      dup2\n      mstore\n      0x04\n      add\n      tag_67\n      swap1\n      tag_68\n      jump\t// in\n    tag_67:\n      mload(0x40)\n      dup1\n      swap2\n      sub\n      swap1\n      revert\n    tag_66:\n        /* \"contracts/GeekNftMarketPlace.sol\":3054:3065  LISTING_FEE */\n      sload(0x03)\n        /* \"contracts/GeekNftMarketPlace.sol\":3041:3050  msg.value */\n      callvalue\n        /* \"contracts/GeekNftMarketPlace.sol\":3041:3065  msg.value == LISTING_FEE */\n      eq\n        /* \"contracts/GeekNftMarketPlace.sol\":3033:3102  require(msg.value == LISTING_FEE, \"Not enough ether for listing fee\") */\n      tag_69\n      jumpi\n      mload(0x40)\n      0x08c379a000000000000000000000000000000000000000000000000000000000\n      dup2\n      mstore\n      0x04\n      add\n      tag_70\n      swap1\n      tag_71\n      jump\t// in\n    tag_70:\n      mload(0x40)\n      dup1\n      swap2\n      sub\n      swap1\n      revert\n    tag_69:\n        /* \"contracts/GeekNftMarketPlace.sol\":3113:3122  int index */\n      0x00\n        /* \"contracts/GeekNftMarketPlace.sol\":3144:3174  getNFT(_nftContract, _tokenId) */\n      tag_72\n        /* \"contracts/GeekNftMarketPlace.sol\":3151:3163  _nftContract */\n      dup5\n        /* \"contracts/GeekNftMarketPlace.sol\":3165:3173  _tokenId */\n      dup5\n        /* \"contracts/GeekNftMarketPlace.sol\":3144:3150  getNFT */\n      tag_73\n        /* \"contracts/GeekNftMarketPlace.sol\":3144:3174  getNFT(_nftContract, _tokenId) */\n      jump\t// in\n    tag_72:\n        /* \"contracts/GeekNftMarketPlace.sol\":3132:3174  (, index) = getNFT(_nftContract, _tokenId) */\n      swap1\n      pop\n      dup1\n      swap2\n      pop\n      pop\n        /* \"contracts/GeekNftMarketPlace.sol\":3201:3203  -1 */\n      0xffffffffffffffffffffffffffffffffffffffffffffffffffffffffffffffff\n        /* \"contracts/GeekNftMarketPlace.sol\":3192:3197  index */\n      dup2\n        /* \"contracts/GeekNftMarketPlace.sol\":3192:3203  index != -1 */\n      eq\n      iszero\n        /* \"contracts/GeekNftMarketPlace.sol\":3184:3221  require(index != -1, \"Nft not found\") */\n      tag_74\n      jumpi\n      mload(0x40)\n      0x08c379a000000000000000000000000000000000000000000000000000000000\n      dup2\n      mstore\n      0x04\n      add\n      tag_75\n      swap1\n      tag_76\n      jump\t// in\n    tag_75:\n      mload(0x40)\n      dup1\n      swap2\n      sub\n      swap1\n      revert\n    tag_74:\n        /* \"contracts/GeekNftMarketPlace.sol\":3249:3261  _nftContract */\n      dup4\n        /* \"contracts/GeekNftMarketPlace.sol\":3232:3275  GeekNftInterface(_nftContract).transferFrom */\n      0xffffffffffffffffffffffffffffffffffffffff\n      and\n      0x23b872dd\n        /* \"contracts/GeekNftMarketPlace.sol\":3276:3286  msg.sender */\n      caller\n        /* \"contracts/GeekNftMarketPlace.sol\":3296:3300  this */\n      address\n        /* \"contracts/GeekNftMarketPlace.sol\":3303:3311  _tokenId */\n      dup7\n        /* \"contracts/GeekNftMarketPlace.sol\":3232:3312  GeekNftInterface(_nftContract).transferFrom(msg.sender, address(this), _tokenId) */\n      mload(0x40)\n      dup5\n      0xffffffff\n      and\n      0xe0\n      shl\n      dup2\n      mstore\n      0x04\n      add\n      tag_77\n      swap4\n      swap3\n      swap2\n      swap1\n      tag_78\n      jump\t// in\n    tag_77:\n      0x00\n      mload(0x40)\n      dup1\n      dup4\n      sub\n      dup2\n      0x00\n      dup8\n      dup1\n      extcodesize\n      iszero\n      dup1\n      iszero\n      tag_79\n      jumpi\n      0x00\n      dup1\n      revert\n    tag_79:\n      pop\n      gas\n      call\n      iszero\n      dup1\n      iszero\n      tag_81\n      jumpi\n      returndatasize\n      0x00\n      dup1\n      returndatacopy\n      revert(0x00, returndatasize)\n    tag_81:\n      pop\n      pop\n      pop\n      pop\n        /* \"contracts/GeekNftMarketPlace.sol\":3358:3368  msg.sender */\n      caller\n        /* \"contracts/GeekNftMarketPlace.sol\":3323:3327  nfts */\n      0x05\n        /* \"contracts/GeekNftMarketPlace.sol\":3333:3338  index */\n      dup3\n        /* \"contracts/GeekNftMarketPlace.sol\":3323:3340  nfts[uint(index)] */\n      dup2\n      sload\n      dup2\n      lt\n      tag_82\n      jumpi\n      tag_83\n      tag_84\n      jump\t// in\n    tag_83:\n    tag_82:\n      swap1\n      0x00\n      mstore\n      keccak256(0x00, 0x20)\n      swap1\n      0x06\n      mul\n      add\n        /* \"contracts/GeekNftMarketPlace.sol\":3323:3347  nfts[uint(index)].seller */\n      0x03\n      add\n      0x00\n        /* \"contracts/GeekNftMarketPlace.sol\":3323:3369  nfts[uint(index)].seller = payable(msg.sender) */\n      0x0100\n      exp\n      dup2\n      sload\n      dup2\n      0xffffffffffffffffffffffffffffffffffffffff\n      mul\n      not\n      and\n      swap1\n      dup4\n      0xffffffffffffffffffffffffffffffffffffffff\n      and\n      mul\n      or\n      swap1\n      sstore\n      pop\n        /* \"contracts/GeekNftMarketPlace.sol\":3421:3425  this */\n      address\n        /* \"contracts/GeekNftMarketPlace.sol\":3379:3383  nfts */\n      0x05\n        /* \"contracts/GeekNftMarketPlace.sol\":3389:3394  index */\n      dup3\n        /* \"contracts/GeekNftMarketPlace.sol\":3379:3396  nfts[uint(index)] */\n      dup2\n      sload\n      dup2\n      lt\n      tag_86\n      jumpi\n      tag_87\n      tag_84\n      jump\t// in\n    tag_87:\n    tag_86:\n      swap1\n      0x00\n      mstore\n      keccak256(0x00, 0x20)\n      swap1\n      0x06\n      mul\n      add\n        /* \"contracts/GeekNftMarketPlace.sol\":3379:3402  nfts[uint(index)].owner */\n      0x04\n      add\n      0x00\n        /* \"contracts/GeekNftMarketPlace.sol\":3379:3427  nfts[uint(index)].owner = payable(address(this)) */\n      0x0100\n      exp\n      dup2\n      sload\n      dup2\n      0xffffffffffffffffffffffffffffffffffffffff\n      mul\n      not\n      and\n      swap1\n      dup4\n      0xffffffffffffffffffffffffffffffffffffffff\n      and\n      mul\n      or\n      swap1\n      sstore\n      pop\n        /* \"contracts/GeekNftMarketPlace.sol\":3464:3468  true */\n      0x01\n        /* \"contracts/GeekNftMarketPlace.sol\":3437:3441  nfts */\n      0x05\n        /* \"contracts/GeekNftMarketPlace.sol\":3447:3452  index */\n      dup3\n        /* \"contracts/GeekNftMarketPlace.sol\":3437:3454  nfts[uint(index)] */\n      dup2\n      sload\n      dup2\n      lt\n      tag_89\n      jumpi\n      tag_90\n      tag_84\n      jump\t// in\n    tag_90:\n    tag_89:\n      swap1\n      0x00\n      mstore\n      keccak256(0x00, 0x20)\n      swap1\n      0x06\n      mul\n      add\n        /* \"contracts/GeekNftMarketPlace.sol\":3437:3461  nfts[uint(index)].listed */\n      0x05\n      add\n      0x14\n        /* \"contracts/GeekNftMarketPlace.sol\":3437:3468  nfts[uint(index)].listed = true */\n      0x0100\n      exp\n      dup2\n      sload\n      dup2\n      0xff\n      mul\n      not\n      and\n      swap1\n      dup4\n      iszero\n      iszero\n      mul\n      or\n      swap1\n      sstore\n      pop\n        /* \"contracts/GeekNftMarketPlace.sol\":3504:3510  _price */\n      dup2\n        /* \"contracts/GeekNftMarketPlace.sol\":3478:3482  nfts */\n      0x05\n        /* \"contracts/GeekNftMarketPlace.sol\":3488:3493  index */\n      dup3\n        /* \"contracts/GeekNftMarketPlace.sol\":3478:3495  nfts[uint(index)] */\n      dup2\n      sload\n      dup2\n      lt\n      tag_92\n      jumpi\n      tag_93\n      tag_84\n      jump\t// in\n    tag_93:\n    tag_92:\n      swap1\n      0x00\n      mstore\n      keccak256(0x00, 0x20)\n      swap1\n      0x06\n      mul\n      add\n        /* \"contracts/GeekNftMarketPlace.sol\":3478:3501  nfts[uint(index)].price */\n      0x02\n      add\n        /* \"contracts/GeekNftMarketPlace.sol\":3478:3510  nfts[uint(index)].price = _price */\n      dup2\n      swap1\n      sstore\n      pop\n        /* \"contracts/GeekNftMarketPlace.sol\":3521:3542  _nftsSold.decrement() */\n      tag_95\n        /* \"contracts/GeekNftMarketPlace.sol\":3521:3530  _nftsSold */\n      0x01\n        /* \"contracts/GeekNftMarketPlace.sol\":3521:3540  _nftsSold.decrement */\n      tag_96\n        /* \"contracts/GeekNftMarketPlace.sol\":3521:3542  _nftsSold.decrement() */\n      jump\t// in\n    tag_95:\n        /* \"contracts/GeekNftMarketPlace.sol\":3620:3624  this */\n      address\n        /* \"contracts/GeekNftMarketPlace.sol\":3566:3634  NFTListed(_nftContract, _tokenId, msg.sender, address(this), _price) */\n      0xffffffffffffffffffffffffffffffffffffffff\n      and\n        /* \"contracts/GeekNftMarketPlace.sol\":3600:3610  msg.sender */\n      caller\n        /* \"contracts/GeekNftMarketPlace.sol\":3566:3634  NFTListed(_nftContract, _tokenId, msg.sender, address(this), _price) */\n      0xffffffffffffffffffffffffffffffffffffffff\n      and\n      0xa0c6c0d02d86fdacecbaa5fdf5894bab204e31a778250474108540733a9b8d19\n        /* \"contracts/GeekNftMarketPlace.sol\":3576:3588  _nftContract */\n      dup7\n        /* \"contracts/GeekNftMarketPlace.sol\":3590:3598  _tokenId */\n      dup7\n        /* \"contracts/GeekNftMarketPlace.sol\":3627:3633  _price */\n      dup7\n        /* \"contracts/GeekNftMarketPlace.sol\":3566:3634  NFTListed(_nftContract, _tokenId, msg.sender, address(this), _price) */\n      mload(0x40)\n      tag_97\n      swap4\n      swap3\n      swap2\n      swap1\n      tag_98\n      jump\t// in\n    tag_97:\n      mload(0x40)\n      dup1\n      swap2\n      sub\n      swap1\n      log3\n        /* \"contracts/GeekNftMarketPlace.sol\":2962:3641  {... */\n      pop\n        /* \"contracts/RenntrancyGuard.sol\":128:129  1 */\n      0x01\n        /* \"contracts/RenntrancyGuard.sol\":414:421  _status */\n      0x00\n        /* \"contracts/RenntrancyGuard.sol\":414:436  _status = _NOT_ENTERED */\n      dup2\n      swap1\n      sstore\n      pop\n        /* \"contracts/GeekNftMarketPlace.sol\":2866:3641  function resellNFT(address _nftContract, uint _tokenId, uint _price) public payable nonReentrant{... */\n      pop\n      pop\n      pop\n      jump\t// out\n        /* \"contracts/GeekNftMarketPlace.sol\":4948:5577  function getMyListedNfts() public view returns (NFT[] memory) {... */\n    tag_20:\n        /* \"contracts/GeekNftMarketPlace.sol\":4996:5008  NFT[] memory */\n      0x60\n        /* \"contracts/GeekNftMarketPlace.sol\":5020:5034  uint nftsCount */\n      0x00\n        /* \"contracts/GeekNftMarketPlace.sol\":5037:5057  _nftsCount.current() */\n      tag_100\n        /* \"contracts/GeekNftMarketPlace.sol\":5037:5047  _nftsCount */\n      0x02\n        /* \"contracts/GeekNftMarketPlace.sol\":5037:5055  _nftsCount.current */\n      tag_101\n        /* \"contracts/GeekNftMarketPlace.sol\":5037:5057  _nftsCount.current() */\n      jump\t// in\n    tag_100:\n        /* \"contracts/GeekNftMarketPlace.sol\":5020:5057  uint nftsCount = _nftsCount.current() */\n      swap1\n      pop\n        /* \"contracts/GeekNftMarketPlace.sol\":5067:5083  uint myNftsCount */\n      0x00\n        /* \"contracts/GeekNftMarketPlace.sol\":5102:5108  uint i */\n      dup1\n        /* \"contracts/GeekNftMarketPlace.sol\":5097:5256  for (uint i = 0; i < nftsCount; i++) {... */\n    tag_102:\n        /* \"contracts/GeekNftMarketPlace.sol\":5118:5127  nftsCount */\n      dup3\n        /* \"contracts/GeekNftMarketPlace.sol\":5114:5115  i */\n      dup2\n        /* \"contracts/GeekNftMarketPlace.sol\":5114:5127  i < nftsCount */\n      lt\n        /* \"contracts/GeekNftMarketPlace.sol\":5097:5256  for (uint i = 0; i < nftsCount; i++) {... */\n      iszero\n      tag_103\n      jumpi\n        /* \"contracts/GeekNftMarketPlace.sol\":5169:5179  msg.sender */\n      caller\n        /* \"contracts/GeekNftMarketPlace.sol\":5151:5179  nfts[i].seller == msg.sender */\n      0xffffffffffffffffffffffffffffffffffffffff\n      and\n        /* \"contracts/GeekNftMarketPlace.sol\":5151:5155  nfts */\n      0x05\n        /* \"contracts/GeekNftMarketPlace.sol\":5156:5157  i */\n      dup3\n        /* \"contracts/GeekNftMarketPlace.sol\":5151:5158  nfts[i] */\n      dup2\n      sload\n      dup2\n      lt\n      tag_105\n      jumpi\n      tag_106\n      tag_84\n      jump\t// in\n    tag_106:\n    tag_105:\n      swap1\n      0x00\n      mstore\n      keccak256(0x00, 0x20)\n      swap1\n      0x06\n      mul\n      add\n        /* \"contracts/GeekNftMarketPlace.sol\":5151:5165  nfts[i].seller */\n      0x03\n      add\n      0x00\n      swap1\n      sload\n      swap1\n      0x0100\n      exp\n      swap1\n      div\n      0xffffffffffffffffffffffffffffffffffffffff\n      and\n        /* \"contracts/GeekNftMarketPlace.sol\":5151:5179  nfts[i].seller == msg.sender */\n      0xffffffffffffffffffffffffffffffffffffffff\n      and\n      eq\n        /* \"contracts/GeekNftMarketPlace.sol\":5151:5197  nfts[i].seller == msg.sender && nfts[i].listed */\n      dup1\n      iszero\n      tag_108\n      jumpi\n      pop\n        /* \"contracts/GeekNftMarketPlace.sol\":5183:5187  nfts */\n      0x05\n        /* \"contracts/GeekNftMarketPlace.sol\":5188:5189  i */\n      dup2\n        /* \"contracts/GeekNftMarketPlace.sol\":5183:5190  nfts[i] */\n      dup2\n      sload\n      dup2\n      lt\n      tag_109\n      jumpi\n      tag_110\n      tag_84\n      jump\t// in\n    tag_110:\n    tag_109:\n      swap1\n      0x00\n      mstore\n      keccak256(0x00, 0x20)\n      swap1\n      0x06\n      mul\n      add\n        /* \"contracts/GeekNftMarketPlace.sol\":5183:5197  nfts[i].listed */\n      0x05\n      add\n      0x14\n      swap1\n      sload\n      swap1\n      0x0100\n      exp\n      swap1\n      div\n      0xff\n      and\n        /* \"contracts/GeekNftMarketPlace.sol\":5151:5197  nfts[i].seller == msg.sender && nfts[i].listed */\n    tag_108:\n        /* \"contracts/GeekNftMarketPlace.sol\":5148:5246  if(nfts[i].seller == msg.sender && nfts[i].listed) {... */\n      iszero\n      tag_112\n      jumpi\n        /* \"contracts/GeekNftMarketPlace.sol\":5217:5231  myNftsCount ++ */\n      dup2\n      dup1\n      tag_113\n      swap1\n      tag_114\n      jump\t// in\n    tag_113:\n      swap3\n      pop\n      pop\n        /* \"contracts/GeekNftMarketPlace.sol\":5148:5246  if(nfts[i].seller == msg.sender && nfts[i].listed) {... */\n    tag_112:\n        /* \"contracts/GeekNftMarketPlace.sol\":5129:5132  i++ */\n      dup1\n      dup1\n      tag_115\n      swap1\n      tag_114\n      jump\t// in\n    tag_115:\n      swap2\n      pop\n      pop\n        /* \"contracts/GeekNftMarketPlace.sol\":5097:5256  for (uint i = 0; i < nftsCount; i++) {... */\n      jump(tag_102)\n    tag_103:\n      pop\n        /* \"contracts/GeekNftMarketPlace.sol\":5266:5285  NFT[] memory myNfts */\n      0x00\n        /* \"contracts/GeekNftMarketPlace.sol\":5298:5309  myNftsCount */\n      dup2\n        /* \"contracts/GeekNftMarketPlace.sol\":5288:5310  new NFT[](myNftsCount) */\n      0xffffffffffffffff\n      dup2\n      gt\n      iszero\n      tag_116\n      jumpi\n      tag_117\n      tag_118\n      jump\t// in\n    tag_117:\n    tag_116:\n      mload(0x40)\n      swap1\n      dup1\n      dup3\n      mstore\n      dup1\n      0x20\n      mul\n      0x20\n      add\n      dup3\n      add\n      0x40\n      mstore\n      dup1\n      iszero\n      tag_119\n      jumpi\n      dup2\n      0x20\n      add\n    tag_120:\n      tag_121\n      tag_122\n      jump\t// in\n    tag_121:\n      dup2\n      mstore\n      0x20\n      add\n      swap1\n      0x01\n      swap1\n      sub\n      swap1\n      dup2\n      tag_120\n      jumpi\n      swap1\n      pop\n    tag_119:\n      pop\n        /* \"contracts/GeekNftMarketPlace.sol\":5266:5310  NFT[] memory myNfts = new NFT[](myNftsCount) */\n      swap1\n      pop\n        /* \"contracts/GeekNftMarketPlace.sol\":5320:5333  uint nftIndex */\n      0x00\n        /* \"contracts/GeekNftMarketPlace.sol\":5352:5358  uint i */\n      dup1\n        /* \"contracts/GeekNftMarketPlace.sol\":5347:5547  for (uint i = 0; i < nftsCount; i++) {... */\n    tag_123:\n        /* \"contracts/GeekNftMarketPlace.sol\":5368:5377  nftsCount */\n      dup5\n        /* \"contracts/GeekNftMarketPlace.sol\":5364:5365  i */\n      dup2\n        /* \"contracts/GeekNftMarketPlace.sol\":5364:5377  i < nftsCount */\n      lt\n        /* \"contracts/GeekNftMarketPlace.sol\":5347:5547  for (uint i = 0; i < nftsCount; i++) {... */\n      iszero\n      tag_124\n      jumpi\n        /* \"contracts/GeekNftMarketPlace.sol\":5419:5429  msg.sender */\n      caller\n        /* \"contracts/GeekNftMarketPlace.sol\":5401:5429  nfts[i].seller == msg.sender */\n      0xffffffffffffffffffffffffffffffffffffffff\n      and\n        /* \"contracts/GeekNftMarketPlace.sol\":5401:5405  nfts */\n      0x05\n        /* \"contracts/GeekNftMarketPlace.sol\":5406:5407  i */\n      dup3\n        /* \"contracts/GeekNftMarketPlace.sol\":5401:5408  nfts[i] */\n      dup2\n      sload\n      dup2\n      lt\n      tag_126\n      jumpi\n      tag_127\n      tag_84\n      jump\t// in\n    tag_127:\n    tag_126:\n      swap1\n      0x00\n      mstore\n      keccak256(0x00, 0x20)\n      swap1\n      0x06\n      mul\n      add\n        /* \"contracts/GeekNftMarketPlace.sol\":5401:5415  nfts[i].seller */\n      0x03\n      add\n      0x00\n      swap1\n      sload\n      swap1\n      0x0100\n      exp\n      swap1\n      div\n      0xffffffffffffffffffffffffffffffffffffffff\n      and\n        /* \"contracts/GeekNftMarketPlace.sol\":5401:5429  nfts[i].seller == msg.sender */\n      0xffffffffffffffffffffffffffffffffffffffff\n      and\n      eq\n        /* \"contracts/GeekNftMarketPlace.sol\":5401:5447  nfts[i].seller == msg.sender && nfts[i].listed */\n      dup1\n      iszero\n      tag_129\n      jumpi\n      pop\n        /* \"contracts/GeekNftMarketPlace.sol\":5433:5437  nfts */\n      0x05\n        /* \"contracts/GeekNftMarketPlace.sol\":5438:5439  i */\n      dup2\n        /* \"contracts/GeekNftMarketPlace.sol\":5433:5440  nfts[i] */\n      dup2\n      sload\n      dup2\n      lt\n      tag_130\n      jumpi\n      tag_131\n      tag_84\n      jump\t// in\n    tag_131:\n    tag_130:\n      swap1\n      0x00\n      mstore\n      keccak256(0x00, 0x20)\n      swap1\n      0x06\n      mul\n      add\n        /* \"contracts/GeekNftMarketPlace.sol\":5433:5447  nfts[i].listed */\n      0x05\n      add\n      0x14\n      swap1\n      sload\n      swap1\n      0x0100\n      exp\n      swap1\n      div\n      0xff\n      and\n        /* \"contracts/GeekNftMarketPlace.sol\":5401:5447  nfts[i].seller == msg.sender && nfts[i].listed */\n    tag_129:\n        /* \"contracts/GeekNftMarketPlace.sol\":5398:5537  if(nfts[i].seller == msg.sender && nfts[i].listed) {... */\n      iszero\n      tag_133\n      jumpi\n        /* \"contracts/GeekNftMarketPlace.sol\":5486:5490  nfts */\n      0x05\n        /* \"contracts/GeekNftMarketPlace.sol\":5491:5492  i */\n      dup2\n        /* \"contracts/GeekNftMarketPlace.sol\":5486:5493  nfts[i] */\n      dup2\n      sload\n      dup2\n      lt\n      tag_134\n      jumpi\n      tag_135\n      tag_84\n      jump\t// in\n    tag_135:\n    tag_134:\n      swap1\n      0x00\n      mstore\n      keccak256(0x00, 0x20)\n      swap1\n      0x06\n      mul\n      add\n        /* \"contracts/GeekNftMarketPlace.sol\":5467:5493  myNfts[nftIndex] = nfts[i] */\n      mload(0x40)\n      dup1\n      0xe0\n      add\n      0x40\n      mstore\n      swap1\n      dup2\n      0x00\n      dup3\n      add\n      0x00\n      swap1\n      sload\n      swap1\n      0x0100\n      exp\n      swap1\n      div\n      0xffffffffffffffffffffffffffffffffffffffff\n      and\n      0xffffffffffffffffffffffffffffffffffffffff\n      and\n      0xffffffffffffffffffffffffffffffffffffffff\n      and\n      dup2\n      mstore\n      0x20\n      add\n      0x01\n      dup3\n      add\n      sload\n      dup2\n      mstore\n      0x20\n      add\n      0x02\n      dup3\n      add\n      sload\n      dup2\n      mstore\n      0x20\n      add\n      0x03\n      dup3\n      add\n      0x00\n      swap1\n      sload\n      swap1\n      0x0100\n      exp\n      swap1\n      div\n      0xffffffffffffffffffffffffffffffffffffffff\n      and\n      0xffffffffffffffffffffffffffffffffffffffff\n      and\n      0xffffffffffffffffffffffffffffffffffffffff\n      and\n      dup2\n      mstore\n      0x20\n      add\n      0x04\n      dup3\n      add\n      0x00\n      swap1\n      sload\n      swap1\n      0x0100\n      exp\n      swap1\n      div\n      0xffffffffffffffffffffffffffffffffffffffff\n      and\n      0xffffffffffffffffffffffffffffffffffffffff\n      and\n      0xffffffffffffffffffffffffffffffffffffffff\n      and\n      dup2\n      mstore\n      0x20\n      add\n      0x05\n      dup3\n      add\n      0x00\n      swap1\n      sload\n      swap1\n      0x0100\n      exp\n      swap1\n      div\n      0xffffffffffffffffffffffffffffffffffffffff\n      and\n      0xffffffffffffffffffffffffffffffffffffffff\n      and\n      0xffffffffffffffffffffffffffffffffffffffff\n      and\n      dup2\n      mstore\n      0x20\n      add\n      0x05\n      dup3\n      add\n      0x14\n      swap1\n      sload\n      swap1\n      0x0100\n      exp\n      swap1\n      div\n      0xff\n      and\n      iszero\n      iszero\n      iszero\n      iszero\n      dup2\n      mstore\n      pop\n      pop\n        /* \"contracts/GeekNftMarketPlace.sol\":5467:5473  myNfts */\n      dup4\n        /* \"contracts/GeekNftMarketPlace.sol\":5474:5482  nftIndex */\n      dup4\n        /* \"contracts/GeekNftMarketPlace.sol\":5467:5483  myNfts[nftIndex] */\n      dup2\n      mload\n      dup2\n      lt\n      tag_137\n      jumpi\n      tag_138\n      tag_84\n      jump\t// in\n    tag_138:\n    tag_137:\n      0x20\n      mul\n      0x20\n      add\n      add\n        /* \"contracts/GeekNftMarketPlace.sol\":5467:5493  myNfts[nftIndex] = nfts[i] */\n      dup2\n      swap1\n      mstore\n      pop\n        /* \"contracts/GeekNftMarketPlace.sol\":5511:5522  nftIndex ++ */\n      dup2\n      dup1\n      tag_139\n      swap1\n      tag_114\n      jump\t// in\n    tag_139:\n      swap3\n      pop\n      pop\n        /* \"contracts/GeekNftMarketPlace.sol\":5398:5537  if(nfts[i].seller == msg.sender && nfts[i].listed) {... */\n    tag_133:\n        /* \"contracts/GeekNftMarketPlace.sol\":5379:5382  i++ */\n      dup1\n      dup1\n      tag_140\n      swap1\n      tag_114\n      jump\t// in\n    tag_140:\n      swap2\n      pop\n      pop\n        /* \"contracts/GeekNftMarketPlace.sol\":5347:5547  for (uint i = 0; i < nftsCount; i++) {... */\n      jump(tag_123)\n    tag_124:\n      pop\n        /* \"contracts/GeekNftMarketPlace.sol\":5564:5570  myNfts */\n      dup2\n        /* \"contracts/GeekNftMarketPlace.sol\":5557:5570  return myNfts */\n      swap5\n      pop\n      pop\n      pop\n      pop\n      pop\n        /* \"contracts/GeekNftMarketPlace.sol\":4948:5577  function getMyListedNfts() public view returns (NFT[] memory) {... */\n      swap1\n      jump\t// out\n        /* \"contracts/GeekNftMarketPlace.sol\":474:511  uint public LISTING_FEE = 0.002 ether */\n    tag_25:\n      sload(0x03)\n      dup2\n      jump\t// out\n        /* \"contracts/GeekNftMarketPlace.sol\":1183:1339  function getOwner(address _nftContract, uint _tokenId) public view returns (address){... */\n    tag_32:\n        /* \"contracts/GeekNftMarketPlace.sol\":1259:1266  address */\n      0x00\n        /* \"contracts/GeekNftMarketPlace.sol\":1301:1313  _nftContract */\n      dup3\n        /* \"contracts/GeekNftMarketPlace.sol\":1284:1322  GeekNftInterface(_nftContract).ownerOf */\n      0xffffffffffffffffffffffffffffffffffffffff\n      and\n      0x6352211e\n        /* \"contracts/GeekNftMarketPlace.sol\":1323:1331  _tokenId */\n      dup4\n        /* \"contracts/GeekNftMarketPlace.sol\":1284:1332  GeekNftInterface(_nftContract).ownerOf(_tokenId) */\n      mload(0x40)\n      dup3\n      0xffffffff\n      and\n      0xe0\n      shl\n      dup2\n      mstore\n      0x04\n      add\n      tag_142\n      swap2\n      swap1\n      tag_27\n      jump\t// in\n    tag_142:\n      0x20\n      mload(0x40)\n      dup1\n      dup4\n      sub\n      dup2\n      dup7\n      dup1\n      extcodesize\n      iszero\n      dup1\n      iszero\n      tag_143\n      jumpi\n      0x00\n      dup1\n      revert\n    tag_143:\n      pop\n      gas\n      staticcall\n      iszero\n      dup1\n      iszero\n      tag_145\n      jumpi\n      returndatasize\n      0x00\n      dup1\n      returndatacopy\n      revert(0x00, returndatasize)\n    tag_145:\n      pop\n      pop\n      pop\n      pop\n      mload(0x40)\n      returndatasize\n      not(0x1f)\n      0x1f\n      dup3\n      add\n      and\n      dup3\n      add\n      dup1\n      0x40\n      mstore\n      pop\n      dup2\n      add\n      swap1\n      tag_146\n      swap2\n      swap1\n      tag_147\n      jump\t// in\n    tag_146:\n        /* \"contracts/GeekNftMarketPlace.sol\":1277:1332  return GeekNftInterface(_nftContract).ownerOf(_tokenId) */\n      swap1\n      pop\n        /* \"contracts/GeekNftMarketPlace.sol\":1183:1339  function getOwner(address _nftContract, uint _tokenId) public view returns (address){... */\n      swap3\n      swap2\n      pop\n      pop\n      jump\t// out\n        /* \"contracts/GeekNftMarketPlace.sol\":2124:2811  function buyNft(address _nftContract, uint _tokenId) public payable nonReentrant{... */\n    tag_37:\n        /* \"contracts/RenntrancyGuard.sol\":171:172  2 */\n      0x02\n        /* \"contracts/RenntrancyGuard.sol\":310:317  _status */\n      sload(0x00)\n        /* \"contracts/RenntrancyGuard.sol\":310:329  _status != _ENTERED */\n      eq\n      iszero\n        /* \"contracts/RenntrancyGuard.sol\":302:365  require(_status != _ENTERED, \"ReentrancyGuard: reentrant call\") */\n      tag_149\n      jumpi\n      mload(0x40)\n      0x08c379a000000000000000000000000000000000000000000000000000000000\n      dup2\n      mstore\n      0x04\n      add\n      tag_150\n      swap1\n      tag_64\n      jump\t// in\n    tag_150:\n      mload(0x40)\n      dup1\n      swap2\n      sub\n      swap1\n      revert\n    tag_149:\n        /* \"contracts/RenntrancyGuard.sol\":171:172  2 */\n      0x02\n        /* \"contracts/RenntrancyGuard.sol\":375:382  _status */\n      0x00\n        /* \"contracts/RenntrancyGuard.sol\":375:393  _status = _ENTERED */\n      dup2\n      swap1\n      sstore\n      pop\n        /* \"contracts/GeekNftMarketPlace.sol\":2214:2228  NFT memory nft */\n      tag_152\n      tag_122\n      jump\t// in\n    tag_152:\n        /* \"contracts/GeekNftMarketPlace.sol\":2238:2247  int index */\n      0x00\n        /* \"contracts/GeekNftMarketPlace.sol\":2272:2302  getNFT(_nftContract, _tokenId) */\n      tag_153\n        /* \"contracts/GeekNftMarketPlace.sol\":2279:2291  _nftContract */\n      dup5\n        /* \"contracts/GeekNftMarketPlace.sol\":2293:2301  _tokenId */\n      dup5\n        /* \"contracts/GeekNftMarketPlace.sol\":2272:2278  getNFT */\n      tag_73\n        /* \"contracts/GeekNftMarketPlace.sol\":2272:2302  getNFT(_nftContract, _tokenId) */\n      jump\t// in\n    tag_153:\n        /* \"contracts/GeekNftMarketPlace.sol\":2257:2302  (nft, index) = getNFT(_nftContract, _tokenId) */\n      dup1\n      swap3\n      pop\n      dup2\n      swap4\n      pop\n      pop\n      pop\n        /* \"contracts/GeekNftMarketPlace.sol\":2329:2331  -1 */\n      0xffffffffffffffffffffffffffffffffffffffffffffffffffffffffffffffff\n        /* \"contracts/GeekNftMarketPlace.sol\":2320:2325  index */\n      dup2\n        /* \"contracts/GeekNftMarketPlace.sol\":2320:2331  index != -1 */\n      eq\n      iszero\n        /* \"contracts/GeekNftMarketPlace.sol\":2312:2349  require(index != -1, \"Nft not found\") */\n      tag_154\n      jumpi\n      mload(0x40)\n      0x08c379a000000000000000000000000000000000000000000000000000000000\n      dup2\n      mstore\n      0x04\n      add\n      tag_155\n      swap1\n      tag_76\n      jump\t// in\n    tag_155:\n      mload(0x40)\n      dup1\n      swap2\n      sub\n      swap1\n      revert\n    tag_154:\n        /* \"contracts/GeekNftMarketPlace.sol\":2380:2383  nft */\n      dup2\n        /* \"contracts/GeekNftMarketPlace.sol\":2380:2389  nft.price */\n      0x40\n      add\n      mload\n        /* \"contracts/GeekNftMarketPlace.sol\":2367:2376  msg.value */\n      callvalue\n        /* \"contracts/GeekNftMarketPlace.sol\":2367:2389  msg.value >= nft.price */\n      lt\n      iszero\n        /* \"contracts/GeekNftMarketPlace.sol\":2359:2432  require(msg.value >= nft.price, \"Not enough ether to cover asking price\") */\n      tag_156\n      jumpi\n      mload(0x40)\n      0x08c379a000000000000000000000000000000000000000000000000000000000\n      dup2\n      mstore\n      0x04\n      add\n      tag_157\n      swap1\n      tag_158\n      jump\t// in\n    tag_157:\n      mload(0x40)\n      dup1\n      swap2\n      sub\n      swap1\n      revert\n    tag_156:\n        /* \"contracts/GeekNftMarketPlace.sol\":2443:2464  address payable buyer */\n      0x00\n        /* \"contracts/GeekNftMarketPlace.sol\":2475:2485  msg.sender */\n      caller\n        /* \"contracts/GeekNftMarketPlace.sol\":2443:2486  address payable buyer = payable(msg.sender) */\n      swap1\n      pop\n        /* \"contracts/GeekNftMarketPlace.sol\":2496:2499  nft */\n      dup3\n        /* \"contracts/GeekNftMarketPlace.sol\":2496:2506  nft.seller */\n      0x60\n      add\n      mload\n        /* \"contracts/GeekNftMarketPlace.sol\":2496:2515  nft.seller.transfer */\n      0xffffffffffffffffffffffffffffffffffffffff\n      and\n        /* \"contracts/GeekNftMarketPlace.sol\":2496:2526  nft.seller.transfer(msg.value) */\n      0x08fc\n        /* \"contracts/GeekNftMarketPlace.sol\":2516:2525  msg.value */\n      callvalue\n        /* \"contracts/GeekNftMarketPlace.sol\":2496:2526  nft.seller.transfer(msg.value) */\n      swap1\n      dup2\n      iszero\n      mul\n      swap1\n      mload(0x40)\n      0x00\n      mload(0x40)\n      dup1\n      dup4\n      sub\n      dup2\n      dup6\n      dup9\n      dup9\n      call\n      swap4\n      pop\n      pop\n      pop\n      pop\n      iszero\n      dup1\n      iszero\n      tag_160\n      jumpi\n      returndatasize\n      0x00\n      dup1\n      returndatacopy\n      revert(0x00, returndatasize)\n    tag_160:\n      pop\n        /* \"contracts/GeekNftMarketPlace.sol\":2554:2566  _nftContract */\n      dup5\n        /* \"contracts/GeekNftMarketPlace.sol\":2537:2580  GeekNftInterface(_nftContract).transferFrom */\n      0xffffffffffffffffffffffffffffffffffffffff\n      and\n      0x23b872dd\n        /* \"contracts/GeekNftMarketPlace.sol\":2589:2593  this */\n      address\n        /* \"contracts/GeekNftMarketPlace.sol\":2596:2601  buyer */\n      dup4\n        /* \"contracts/GeekNftMarketPlace.sol\":2603:2611  _tokenId */\n      dup8\n        /* \"contracts/GeekNftMarketPlace.sol\":2537:2612  GeekNftInterface(_nftContract).transferFrom(address(this), buyer, _tokenId) */\n      mload(0x40)\n      dup5\n      0xffffffff\n      and\n      0xe0\n      shl\n      dup2\n      mstore\n      0x04\n      add\n      tag_161\n      swap4\n      swap3\n      swap2\n      swap1\n      tag_162\n      jump\t// in\n    tag_161:\n      0x00\n      mload(0x40)\n      dup1\n      dup4\n      sub\n      dup2\n      0x00\n      dup8\n      dup1\n      extcodesize\n      iszero\n      dup1\n      iszero\n      tag_163\n      jumpi\n      0x00\n      dup1\n      revert\n    tag_163:\n      pop\n      gas\n      call\n      iszero\n      dup1\n      iszero\n      tag_165\n      jumpi\n      returndatasize\n      0x00\n      dup1\n      returndatacopy\n      revert(0x00, returndatasize)\n    tag_165:\n      pop\n      pop\n      pop\n      pop\n        /* \"contracts/GeekNftMarketPlace.sol\":2648:2653  buyer */\n      dup1\n        /* \"contracts/GeekNftMarketPlace.sol\":2622:2626  nfts */\n      0x05\n        /* \"contracts/GeekNftMarketPlace.sol\":2632:2637  index */\n      dup4\n        /* \"contracts/GeekNftMarketPlace.sol\":2622:2639  nfts[uint(index)] */\n      dup2\n      sload\n      dup2\n      lt\n      tag_166\n      jumpi\n      tag_167\n      tag_84\n      jump\t// in\n    tag_167:\n    tag_166:\n      swap1\n      0x00\n      mstore\n      keccak256(0x00, 0x20)\n      swap1\n      0x06\n      mul\n      add\n        /* \"contracts/GeekNftMarketPlace.sol\":2622:2645  nfts[uint(index)].owner */\n      0x04\n      add\n      0x00\n        /* \"contracts/GeekNftMarketPlace.sol\":2622:2653  nfts[uint(index)].owner = buyer */\n      0x0100\n      exp\n      dup2\n      sload\n      dup2\n      0xffffffffffffffffffffffffffffffffffffffff\n      mul\n      not\n      and\n      swap1\n      dup4\n      0xffffffffffffffffffffffffffffffffffffffff\n      and\n      mul\n      or\n      swap1\n      sstore\n      pop\n        /* \"contracts/GeekNftMarketPlace.sol\":2690:2695  false */\n      0x00\n        /* \"contracts/GeekNftMarketPlace.sol\":2663:2667  nfts */\n      0x05\n        /* \"contracts/GeekNftMarketPlace.sol\":2673:2678  index */\n      dup4\n        /* \"contracts/GeekNftMarketPlace.sol\":2663:2680  nfts[uint(index)] */\n      dup2\n      sload\n      dup2\n      lt\n      tag_169\n      jumpi\n      tag_170\n      tag_84\n      jump\t// in\n    tag_170:\n    tag_169:\n      swap1\n      0x00\n      mstore\n      keccak256(0x00, 0x20)\n      swap1\n      0x06\n      mul\n      add\n        /* \"contracts/GeekNftMarketPlace.sol\":2663:2687  nfts[uint(index)].listed */\n      0x05\n      add\n      0x14\n        /* \"contracts/GeekNftMarketPlace.sol\":2663:2695  nfts[uint(index)].listed = false */\n      0x0100\n      exp\n      dup2\n      sload\n      dup2\n      0xff\n      mul\n      not\n      and\n      swap1\n      dup4\n      iszero\n      iszero\n      mul\n      or\n      swap1\n      sstore\n      pop\n        /* \"contracts/GeekNftMarketPlace.sol\":2706:2727  _nftsSold.increment() */\n      tag_172\n        /* \"contracts/GeekNftMarketPlace.sol\":2706:2715  _nftsSold */\n      0x01\n        /* \"contracts/GeekNftMarketPlace.sol\":2706:2725  _nftsSold.increment */\n      tag_173\n        /* \"contracts/GeekNftMarketPlace.sol\":2706:2727  _nftsSold.increment() */\n      jump\t// in\n    tag_172:\n        /* \"contracts/GeekNftMarketPlace.sol\":2787:2792  buyer */\n      dup1\n        /* \"contracts/GeekNftMarketPlace.sol\":2743:2804  NFTSold(_nftContract, _tokenId, nft.seller, buyer, msg.value) */\n      0xffffffffffffffffffffffffffffffffffffffff\n      and\n        /* \"contracts/GeekNftMarketPlace.sol\":2775:2778  nft */\n      dup4\n        /* \"contracts/GeekNftMarketPlace.sol\":2775:2785  nft.seller */\n      0x60\n      add\n      mload\n        /* \"contracts/GeekNftMarketPlace.sol\":2743:2804  NFTSold(_nftContract, _tokenId, nft.seller, buyer, msg.value) */\n      0xffffffffffffffffffffffffffffffffffffffff\n      and\n      0x16f1dbd97e6bf646d429ed186cce832f1f7fd9907814293b83181e9970ab7bd2\n        /* \"contracts/GeekNftMarketPlace.sol\":2751:2763  _nftContract */\n      dup8\n        /* \"contracts/GeekNftMarketPlace.sol\":2765:2773  _tokenId */\n      dup8\n        /* \"contracts/GeekNftMarketPlace.sol\":2794:2803  msg.value */\n      callvalue\n        /* \"contracts/GeekNftMarketPlace.sol\":2743:2804  NFTSold(_nftContract, _tokenId, nft.seller, buyer, msg.value) */\n      mload(0x40)\n      tag_174\n      swap4\n      swap3\n      swap2\n      swap1\n      tag_98\n      jump\t// in\n    tag_174:\n      mload(0x40)\n      dup1\n      swap2\n      sub\n      swap1\n      log3\n        /* \"contracts/GeekNftMarketPlace.sol\":2204:2811  {... */\n      pop\n      pop\n      pop\n        /* \"contracts/RenntrancyGuard.sol\":128:129  1 */\n      0x01\n        /* \"contracts/RenntrancyGuard.sol\":414:421  _status */\n      0x00\n        /* \"contracts/RenntrancyGuard.sol\":414:436  _status = _NOT_ENTERED */\n      dup2\n      swap1\n      sstore\n      pop\n        /* \"contracts/GeekNftMarketPlace.sol\":2124:2811  function buyNft(address _nftContract, uint _tokenId) public payable nonReentrant{... */\n      pop\n      pop\n      jump\t// out\n        /* \"contracts/GeekNftMarketPlace.sol\":5618:6240  function getNftMy() public view returns (NFT[] memory) {... */\n    tag_40:\n        /* \"contracts/GeekNftMarketPlace.sol\":5659:5671  NFT[] memory */\n      0x60\n        /* \"contracts/GeekNftMarketPlace.sol\":5683:5697  uint nftsCount */\n      0x00\n        /* \"contracts/GeekNftMarketPlace.sol\":5700:5720  _nftsCount.current() */\n      tag_176\n        /* \"contracts/GeekNftMarketPlace.sol\":5700:5710  _nftsCount */\n      0x02\n        /* \"contracts/GeekNftMarketPlace.sol\":5700:5718  _nftsCount.current */\n      tag_101\n        /* \"contracts/GeekNftMarketPlace.sol\":5700:5720  _nftsCount.current() */\n      jump\t// in\n    tag_176:\n        /* \"contracts/GeekNftMarketPlace.sol\":5683:5720  uint nftsCount = _nftsCount.current() */\n      swap1\n      pop\n        /* \"contracts/GeekNftMarketPlace.sol\":5730:5746  uint myNftsCount */\n      0x00\n        /* \"contracts/GeekNftMarketPlace.sol\":5765:5771  uint i */\n      dup1\n        /* \"contracts/GeekNftMarketPlace.sol\":5760:5919  for (uint i = 0; i < nftsCount; i++) {... */\n    tag_177:\n        /* \"contracts/GeekNftMarketPlace.sol\":5781:5790  nftsCount */\n      dup3\n        /* \"contracts/GeekNftMarketPlace.sol\":5777:5778  i */\n      dup2\n        /* \"contracts/GeekNftMarketPlace.sol\":5777:5790  i < nftsCount */\n      lt\n        /* \"contracts/GeekNftMarketPlace.sol\":5760:5919  for (uint i = 0; i < nftsCount; i++) {... */\n      iszero\n      tag_178\n      jumpi\n        /* \"contracts/GeekNftMarketPlace.sol\":5832:5842  msg.sender */\n      caller\n        /* \"contracts/GeekNftMarketPlace.sol\":5814:5842  nfts[i].seller == msg.sender */\n      0xffffffffffffffffffffffffffffffffffffffff\n      and\n        /* \"contracts/GeekNftMarketPlace.sol\":5814:5818  nfts */\n      0x05\n        /* \"contracts/GeekNftMarketPlace.sol\":5819:5820  i */\n      dup3\n        /* \"contracts/GeekNftMarketPlace.sol\":5814:5821  nfts[i] */\n      dup2\n      sload\n      dup2\n      lt\n      tag_180\n      jumpi\n      tag_181\n      tag_84\n      jump\t// in\n    tag_181:\n    tag_180:\n      swap1\n      0x00\n      mstore\n      keccak256(0x00, 0x20)\n      swap1\n      0x06\n      mul\n      add\n        /* \"contracts/GeekNftMarketPlace.sol\":5814:5828  nfts[i].seller */\n      0x03\n      add\n      0x00\n      swap1\n      sload\n      swap1\n      0x0100\n      exp\n      swap1\n      div\n      0xffffffffffffffffffffffffffffffffffffffff\n      and\n        /* \"contracts/GeekNftMarketPlace.sol\":5814:5842  nfts[i].seller == msg.sender */\n      0xffffffffffffffffffffffffffffffffffffffff\n      and\n      eq\n        /* \"contracts/GeekNftMarketPlace.sol\":5814:5860  nfts[i].seller == msg.sender && nfts[i].listed */\n      dup1\n      iszero\n      tag_183\n      jumpi\n      pop\n        /* \"contracts/GeekNftMarketPlace.sol\":5846:5850  nfts */\n      0x05\n        /* \"contracts/GeekNftMarketPlace.sol\":5851:5852  i */\n      dup2\n        /* \"contracts/GeekNftMarketPlace.sol\":5846:5853  nfts[i] */\n      dup2\n      sload\n      dup2\n      lt\n      tag_184\n      jumpi\n      tag_185\n      tag_84\n      jump\t// in\n    tag_185:\n    tag_184:\n      swap1\n      0x00\n      mstore\n      keccak256(0x00, 0x20)\n      swap1\n      0x06\n      mul\n      add\n        /* \"contracts/GeekNftMarketPlace.sol\":5846:5860  nfts[i].listed */\n      0x05\n      add\n      0x14\n      swap1\n      sload\n      swap1\n      0x0100\n      exp\n      swap1\n      div\n      0xff\n      and\n        /* \"contracts/GeekNftMarketPlace.sol\":5814:5860  nfts[i].seller == msg.sender && nfts[i].listed */\n    tag_183:\n        /* \"contracts/GeekNftMarketPlace.sol\":5811:5909  if(nfts[i].seller == msg.sender && nfts[i].listed) {... */\n      iszero\n      tag_187\n      jumpi\n        /* \"contracts/GeekNftMarketPlace.sol\":5880:5894  myNftsCount ++ */\n      dup2\n      dup1\n      tag_188\n      swap1\n      tag_114\n      jump\t// in\n    tag_188:\n      swap3\n      pop\n      pop\n        /* \"contracts/GeekNftMarketPlace.sol\":5811:5909  if(nfts[i].seller == msg.sender && nfts[i].listed) {... */\n    tag_187:\n        /* \"contracts/GeekNftMarketPlace.sol\":5792:5795  i++ */\n      dup1\n      dup1\n      tag_189\n      swap1\n      tag_114\n      jump\t// in\n    tag_189:\n      swap2\n      pop\n      pop\n        /* \"contracts/GeekNftMarketPlace.sol\":5760:5919  for (uint i = 0; i < nftsCount; i++) {... */\n      jump(tag_177)\n    tag_178:\n      pop\n        /* \"contracts/GeekNftMarketPlace.sol\":5929:5948  NFT[] memory myNfts */\n      0x00\n        /* \"contracts/GeekNftMarketPlace.sol\":5961:5972  myNftsCount */\n      dup2\n        /* \"contracts/GeekNftMarketPlace.sol\":5951:5973  new NFT[](myNftsCount) */\n      0xffffffffffffffff\n      dup2\n      gt\n      iszero\n      tag_190\n      jumpi\n      tag_191\n      tag_118\n      jump\t// in\n    tag_191:\n    tag_190:\n      mload(0x40)\n      swap1\n      dup1\n      dup3\n      mstore\n      dup1\n      0x20\n      mul\n      0x20\n      add\n      dup3\n      add\n      0x40\n      mstore\n      dup1\n      iszero\n      tag_192\n      jumpi\n      dup2\n      0x20\n      add\n    tag_193:\n      tag_194\n      tag_122\n      jump\t// in\n    tag_194:\n      dup2\n      mstore\n      0x20\n      add\n      swap1\n      0x01\n      swap1\n      sub\n      swap1\n      dup2\n      tag_193\n      jumpi\n      swap1\n      pop\n    tag_192:\n      pop\n        /* \"contracts/GeekNftMarketPlace.sol\":5929:5973  NFT[] memory myNfts = new NFT[](myNftsCount) */\n      swap1\n      pop\n        /* \"contracts/GeekNftMarketPlace.sol\":5983:5996  uint nftIndex */\n      0x00\n        /* \"contracts/GeekNftMarketPlace.sol\":6015:6021  uint i */\n      dup1\n        /* \"contracts/GeekNftMarketPlace.sol\":6010:6210  for (uint i = 0; i < nftsCount; i++) {... */\n    tag_195:\n        /* \"contracts/GeekNftMarketPlace.sol\":6031:6040  nftsCount */\n      dup5\n        /* \"contracts/GeekNftMarketPlace.sol\":6027:6028  i */\n      dup2\n        /* \"contracts/GeekNftMarketPlace.sol\":6027:6040  i < nftsCount */\n      lt\n        /* \"contracts/GeekNftMarketPlace.sol\":6010:6210  for (uint i = 0; i < nftsCount; i++) {... */\n      iszero\n      tag_196\n      jumpi\n        /* \"contracts/GeekNftMarketPlace.sol\":6082:6092  msg.sender */\n      caller\n        /* \"contracts/GeekNftMarketPlace.sol\":6064:6092  nfts[i].seller == msg.sender */\n      0xffffffffffffffffffffffffffffffffffffffff\n      and\n        /* \"contracts/GeekNftMarketPlace.sol\":6064:6068  nfts */\n      0x05\n        /* \"contracts/GeekNftMarketPlace.sol\":6069:6070  i */\n      dup3\n        /* \"contracts/GeekNftMarketPlace.sol\":6064:6071  nfts[i] */\n      dup2\n      sload\n      dup2\n      lt\n      tag_198\n      jumpi\n      tag_199\n      tag_84\n      jump\t// in\n    tag_199:\n    tag_198:\n      swap1\n      0x00\n      mstore\n      keccak256(0x00, 0x20)\n      swap1\n      0x06\n      mul\n      add\n        /* \"contracts/GeekNftMarketPlace.sol\":6064:6078  nfts[i].seller */\n      0x03\n      add\n      0x00\n      swap1\n      sload\n      swap1\n      0x0100\n      exp\n      swap1\n      div\n      0xffffffffffffffffffffffffffffffffffffffff\n      and\n        /* \"contracts/GeekNftMarketPlace.sol\":6064:6092  nfts[i].seller == msg.sender */\n      0xffffffffffffffffffffffffffffffffffffffff\n      and\n      eq\n        /* \"contracts/GeekNftMarketPlace.sol\":6064:6110  nfts[i].seller == msg.sender && nfts[i].listed */\n      dup1\n      iszero\n      tag_201\n      jumpi\n      pop\n        /* \"contracts/GeekNftMarketPlace.sol\":6096:6100  nfts */\n      0x05\n        /* \"contracts/GeekNftMarketPlace.sol\":6101:6102  i */\n      dup2\n        /* \"contracts/GeekNftMarketPlace.sol\":6096:6103  nfts[i] */\n      dup2\n      sload\n      dup2\n      lt\n      tag_202\n      jumpi\n      tag_203\n      tag_84\n      jump\t// in\n    tag_203:\n    tag_202:\n      swap1\n      0x00\n      mstore\n      keccak256(0x00, 0x20)\n      swap1\n      0x06\n      mul\n      add\n        /* \"contracts/GeekNftMarketPlace.sol\":6096:6110  nfts[i].listed */\n      0x05\n      add\n      0x14\n      swap1\n      sload\n      swap1\n      0x0100\n      exp\n      swap1\n      div\n      0xff\n      and\n        /* \"contracts/GeekNftMarketPlace.sol\":6064:6110  nfts[i].seller == msg.sender && nfts[i].listed */\n    tag_201:\n        /* \"contracts/GeekNftMarketPlace.sol\":6061:6200  if(nfts[i].seller == msg.sender && nfts[i].listed) {... */\n      iszero\n      tag_205\n      jumpi\n        /* \"contracts/GeekNftMarketPlace.sol\":6149:6153  nfts */\n      0x05\n        /* \"contracts/GeekNftMarketPlace.sol\":6154:6155  i */\n      dup2\n        /* \"contracts/GeekNftMarketPlace.sol\":6149:6156  nfts[i] */\n      dup2\n      sload\n      dup2\n      lt\n      tag_206\n      jumpi\n      tag_207\n      tag_84\n      jump\t// in\n    tag_207:\n    tag_206:\n      swap1\n      0x00\n      mstore\n      keccak256(0x00, 0x20)\n      swap1\n      0x06\n      mul\n      add\n        /* \"contracts/GeekNftMarketPlace.sol\":6130:6156  myNfts[nftIndex] = nfts[i] */\n      mload(0x40)\n      dup1\n      0xe0\n      add\n      0x40\n      mstore\n      swap1\n      dup2\n      0x00\n      dup3\n      add\n      0x00\n      swap1\n      sload\n      swap1\n      0x0100\n      exp\n      swap1\n      div\n      0xffffffffffffffffffffffffffffffffffffffff\n      and\n      0xffffffffffffffffffffffffffffffffffffffff\n      and\n      0xffffffffffffffffffffffffffffffffffffffff\n      and\n      dup2\n      mstore\n      0x20\n      add\n      0x01\n      dup3\n      add\n      sload\n      dup2\n      mstore\n      0x20\n      add\n      0x02\n      dup3\n      add\n      sload\n      dup2\n      mstore\n      0x20\n      add\n      0x03\n      dup3\n      add\n      0x00\n      swap1\n      sload\n      swap1\n      0x0100\n      exp\n      swap1\n      div\n      0xffffffffffffffffffffffffffffffffffffffff\n      and\n      0xffffffffffffffffffffffffffffffffffffffff\n      and\n      0xffffffffffffffffffffffffffffffffffffffff\n      and\n      dup2\n      mstore\n      0x20\n      add\n      0x04\n      dup3\n      add\n      0x00\n      swap1\n      sload\n      swap1\n      0x0100\n      exp\n      swap1\n      div\n      0xffffffffffffffffffffffffffffffffffffffff\n      and\n      0xffffffffffffffffffffffffffffffffffffffff\n      and\n      0xffffffffffffffffffffffffffffffffffffffff\n      and\n      dup2\n      mstore\n      0x20\n      add\n      0x05\n      dup3\n      add\n      0x00\n      swap1\n      sload\n      swap1\n      0x0100\n      exp\n      swap1\n      div\n      0xffffffffffffffffffffffffffffffffffffffff\n      and\n      0xffffffffffffffffffffffffffffffffffffffff\n      and\n      0xffffffffffffffffffffffffffffffffffffffff\n      and\n      dup2\n      mstore\n      0x20\n      add\n      0x05\n      dup3\n      add\n      0x14\n      swap1\n      sload\n      swap1\n      0x0100\n      exp\n      swap1\n      div\n      0xff\n      and\n      iszero\n      iszero\n      iszero\n      iszero\n      dup2\n      mstore\n      pop\n      pop\n        /* \"contracts/GeekNftMarketPlace.sol\":6130:6136  myNfts */\n      dup4\n        /* \"contracts/GeekNftMarketPlace.sol\":6137:6145  nftIndex */\n      dup4\n        /* \"contracts/GeekNftMarketPlace.sol\":6130:6146  myNfts[nftIndex] */\n      dup2\n      mload\n      dup2\n      lt\n      tag_209\n      jumpi\n      tag_210\n      tag_84\n      jump\t// in\n    tag_210:\n    tag_209:\n      0x20\n      mul\n      0x20\n      add\n      add\n        /* \"contracts/GeekNftMarketPlace.sol\":6130:6156  myNfts[nftIndex] = nfts[i] */\n      dup2\n      swap1\n      mstore\n      pop\n        /* \"contracts/GeekNftMarketPlace.sol\":6174:6185  nftIndex ++ */\n      dup2\n      dup1\n      tag_211\n      swap1\n      tag_114\n      jump\t// in\n    tag_211:\n      swap3\n      pop\n      pop\n        /* \"contracts/GeekNftMarketPlace.sol\":6061:6200  if(nfts[i].seller == msg.sender && nfts[i].listed) {... */\n    tag_205:\n        /* \"contracts/GeekNftMarketPlace.sol\":6042:6045  i++ */\n      dup1\n      dup1\n      tag_212\n      swap1\n      tag_114\n      jump\t// in\n    tag_212:\n      swap2\n      pop\n      pop\n        /* \"contracts/GeekNftMarketPlace.sol\":6010:6210  for (uint i = 0; i < nftsCount; i++) {... */\n      jump(tag_195)\n    tag_196:\n      pop\n        /* \"contracts/GeekNftMarketPlace.sol\":6227:6233  myNfts */\n      dup2\n        /* \"contracts/GeekNftMarketPlace.sol\":6220:6233  return myNfts */\n      swap5\n      pop\n      pop\n      pop\n      pop\n      pop\n        /* \"contracts/GeekNftMarketPlace.sol\":5618:6240  function getNftMy() public view returns (NFT[] memory) {... */\n      swap1\n      jump\t// out\n        /* \"contracts/GeekNftMarketPlace.sol\":4311:4907  function getMyCreatedNfts() public view returns (NFT[] memory) {... */\n    tag_44:\n        /* \"contracts/GeekNftMarketPlace.sol\":4360:4372  NFT[] memory */\n      0x60\n        /* \"contracts/GeekNftMarketPlace.sol\":4384:4398  uint nftsCount */\n      0x00\n        /* \"contracts/GeekNftMarketPlace.sol\":4401:4421  _nftsCount.current() */\n      tag_214\n        /* \"contracts/GeekNftMarketPlace.sol\":4401:4411  _nftsCount */\n      0x02\n        /* \"contracts/GeekNftMarketPlace.sol\":4401:4419  _nftsCount.current */\n      tag_101\n        /* \"contracts/GeekNftMarketPlace.sol\":4401:4421  _nftsCount.current() */\n      jump\t// in\n    tag_214:\n        /* \"contracts/GeekNftMarketPlace.sol\":4384:4421  uint nftsCount = _nftsCount.current() */\n      swap1\n      pop\n        /* \"contracts/GeekNftMarketPlace.sol\":4431:4447  uint myNftsCount */\n      0x00\n        /* \"contracts/GeekNftMarketPlace.sol\":4466:4472  uint i */\n      dup1\n        /* \"contracts/GeekNftMarketPlace.sol\":4461:4603  for (uint i = 0; i < nftsCount; i++) {... */\n    tag_215:\n        /* \"contracts/GeekNftMarketPlace.sol\":4482:4491  nftsCount */\n      dup3\n        /* \"contracts/GeekNftMarketPlace.sol\":4478:4479  i */\n      dup2\n        /* \"contracts/GeekNftMarketPlace.sol\":4478:4491  i < nftsCount */\n      lt\n        /* \"contracts/GeekNftMarketPlace.sol\":4461:4603  for (uint i = 0; i < nftsCount; i++) {... */\n      iszero\n      tag_216\n      jumpi\n        /* \"contracts/GeekNftMarketPlace.sol\":4534:4544  msg.sender */\n      caller\n        /* \"contracts/GeekNftMarketPlace.sol\":4515:4544  nfts[i].creator == msg.sender */\n      0xffffffffffffffffffffffffffffffffffffffff\n      and\n        /* \"contracts/GeekNftMarketPlace.sol\":4515:4519  nfts */\n      0x05\n        /* \"contracts/GeekNftMarketPlace.sol\":4520:4521  i */\n      dup3\n        /* \"contracts/GeekNftMarketPlace.sol\":4515:4522  nfts[i] */\n      dup2\n      sload\n      dup2\n      lt\n      tag_218\n      jumpi\n      tag_219\n      tag_84\n      jump\t// in\n    tag_219:\n    tag_218:\n      swap1\n      0x00\n      mstore\n      keccak256(0x00, 0x20)\n      swap1\n      0x06\n      mul\n      add\n        /* \"contracts/GeekNftMarketPlace.sol\":4515:4530  nfts[i].creator */\n      0x05\n      add\n      0x00\n      swap1\n      sload\n      swap1\n      0x0100\n      exp\n      swap1\n      div\n      0xffffffffffffffffffffffffffffffffffffffff\n      and\n        /* \"contracts/GeekNftMarketPlace.sol\":4515:4544  nfts[i].creator == msg.sender */\n      0xffffffffffffffffffffffffffffffffffffffff\n      and\n      eq\n        /* \"contracts/GeekNftMarketPlace.sol\":4512:4593  if(nfts[i].creator == msg.sender) {... */\n      iszero\n      tag_221\n      jumpi\n        /* \"contracts/GeekNftMarketPlace.sol\":4564:4578  myNftsCount ++ */\n      dup2\n      dup1\n      tag_222\n      swap1\n      tag_114\n      jump\t// in\n    tag_222:\n      swap3\n      pop\n      pop\n        /* \"contracts/GeekNftMarketPlace.sol\":4512:4593  if(nfts[i].creator == msg.sender) {... */\n    tag_221:\n        /* \"contracts/GeekNftMarketPlace.sol\":4493:4496  i++ */\n      dup1\n      dup1\n      tag_223\n      swap1\n      tag_114\n      jump\t// in\n    tag_223:\n      swap2\n      pop\n      pop\n        /* \"contracts/GeekNftMarketPlace.sol\":4461:4603  for (uint i = 0; i < nftsCount; i++) {... */\n      jump(tag_215)\n    tag_216:\n      pop\n        /* \"contracts/GeekNftMarketPlace.sol\":4613:4632  NFT[] memory myNfts */\n      0x00\n        /* \"contracts/GeekNftMarketPlace.sol\":4645:4656  myNftsCount */\n      dup2\n        /* \"contracts/GeekNftMarketPlace.sol\":4635:4657  new NFT[](myNftsCount) */\n      0xffffffffffffffff\n      dup2\n      gt\n      iszero\n      tag_224\n      jumpi\n      tag_225\n      tag_118\n      jump\t// in\n    tag_225:\n    tag_224:\n      mload(0x40)\n      swap1\n      dup1\n      dup3\n      mstore\n      dup1\n      0x20\n      mul\n      0x20\n      add\n      dup3\n      add\n      0x40\n      mstore\n      dup1\n      iszero\n      tag_226\n      jumpi\n      dup2\n      0x20\n      add\n    tag_227:\n      tag_228\n      tag_122\n      jump\t// in\n    tag_228:\n      dup2\n      mstore\n      0x20\n      add\n      swap1\n      0x01\n      swap1\n      sub\n      swap1\n      dup2\n      tag_227\n      jumpi\n      swap1\n      pop\n    tag_226:\n      pop\n        /* \"contracts/GeekNftMarketPlace.sol\":4613:4657  NFT[] memory myNfts = new NFT[](myNftsCount) */\n      swap1\n      pop\n        /* \"contracts/GeekNftMarketPlace.sol\":4667:4680  uint nftIndex */\n      0x00\n        /* \"contracts/GeekNftMarketPlace.sol\":4699:4705  uint i */\n      dup1\n        /* \"contracts/GeekNftMarketPlace.sol\":4694:4877  for (uint i = 0; i < nftsCount; i++) {... */\n    tag_229:\n        /* \"contracts/GeekNftMarketPlace.sol\":4715:4724  nftsCount */\n      dup5\n        /* \"contracts/GeekNftMarketPlace.sol\":4711:4712  i */\n      dup2\n        /* \"contracts/GeekNftMarketPlace.sol\":4711:4724  i < nftsCount */\n      lt\n        /* \"contracts/GeekNftMarketPlace.sol\":4694:4877  for (uint i = 0; i < nftsCount; i++) {... */\n      iszero\n      tag_230\n      jumpi\n        /* \"contracts/GeekNftMarketPlace.sol\":4767:4777  msg.sender */\n      caller\n        /* \"contracts/GeekNftMarketPlace.sol\":4748:4777  nfts[i].creator == msg.sender */\n      0xffffffffffffffffffffffffffffffffffffffff\n      and\n        /* \"contracts/GeekNftMarketPlace.sol\":4748:4752  nfts */\n      0x05\n        /* \"contracts/GeekNftMarketPlace.sol\":4753:4754  i */\n      dup3\n        /* \"contracts/GeekNftMarketPlace.sol\":4748:4755  nfts[i] */\n      dup2\n      sload\n      dup2\n      lt\n      tag_232\n      jumpi\n      tag_233\n      tag_84\n      jump\t// in\n    tag_233:\n    tag_232:\n      swap1\n      0x00\n      mstore\n      keccak256(0x00, 0x20)\n      swap1\n      0x06\n      mul\n      add\n        /* \"contracts/GeekNftMarketPlace.sol\":4748:4763  nfts[i].creator */\n      0x05\n      add\n      0x00\n      swap1\n      sload\n      swap1\n      0x0100\n      exp\n      swap1\n      div\n      0xffffffffffffffffffffffffffffffffffffffff\n      and\n        /* \"contracts/GeekNftMarketPlace.sol\":4748:4777  nfts[i].creator == msg.sender */\n      0xffffffffffffffffffffffffffffffffffffffff\n      and\n      eq\n        /* \"contracts/GeekNftMarketPlace.sol\":4745:4867  if(nfts[i].creator == msg.sender) {... */\n      iszero\n      tag_235\n      jumpi\n        /* \"contracts/GeekNftMarketPlace.sol\":4816:4820  nfts */\n      0x05\n        /* \"contracts/GeekNftMarketPlace.sol\":4821:4822  i */\n      dup2\n        /* \"contracts/GeekNftMarketPlace.sol\":4816:4823  nfts[i] */\n      dup2\n      sload\n      dup2\n      lt\n      tag_236\n      jumpi\n      tag_237\n      tag_84\n      jump\t// in\n    tag_237:\n    tag_236:\n      swap1\n      0x00\n      mstore\n      keccak256(0x00, 0x20)\n      swap1\n      0x06\n      mul\n      add\n        /* \"contracts/GeekNftMarketPlace.sol\":4797:4823  myNfts[nftIndex] = nfts[i] */\n      mload(0x40)\n      dup1\n      0xe0\n      add\n      0x40\n      mstore\n      swap1\n      dup2\n      0x00\n      dup3\n      add\n      0x00\n      swap1\n      sload\n      swap1\n      0x0100\n      exp\n      swap1\n      div\n      0xffffffffffffffffffffffffffffffffffffffff\n      and\n      0xffffffffffffffffffffffffffffffffffffffff\n      and\n      0xffffffffffffffffffffffffffffffffffffffff\n      and\n      dup2\n      mstore\n      0x20\n      add\n      0x01\n      dup3\n      add\n      sload\n      dup2\n      mstore\n      0x20\n      add\n      0x02\n      dup3\n      add\n      sload\n      dup2\n      mstore\n      0x20\n      add\n      0x03\n      dup3\n      add\n      0x00\n      swap1\n      sload\n      swap1\n      0x0100\n      exp\n      swap1\n      div\n      0xffffffffffffffffffffffffffffffffffffffff\n      and\n      0xffffffffffffffffffffffffffffffffffffffff\n      and\n      0xffffffffffffffffffffffffffffffffffffffff\n      and\n      dup2\n      mstore\n      0x20\n      add\n      0x04\n      dup3\n      add\n      0x00\n      swap1\n      sload\n      swap1\n      0x0100\n      exp\n      swap1\n      div\n      0xffffffffffffffffffffffffffffffffffffffff\n      and\n      0xffffffffffffffffffffffffffffffffffffffff\n      and\n      0xffffffffffffffffffffffffffffffffffffffff\n      and\n      dup2\n      mstore\n      0x20\n      add\n      0x05\n      dup3\n      add\n      0x00\n      swap1\n      sload\n      swap1\n      0x0100\n      exp\n      swap1\n      div\n      0xffffffffffffffffffffffffffffffffffffffff\n      and\n      0xffffffffffffffffffffffffffffffffffffffff\n      and\n      0xffffffffffffffffffffffffffffffffffffffff\n      and\n      dup2\n      mstore\n      0x20\n      add\n      0x05\n      dup3\n      add\n      0x14\n      swap1\n      sload\n      swap1\n      0x0100\n      exp\n      swap1\n      div\n      0xff\n      and\n      iszero\n      iszero\n      iszero\n      iszero\n      dup2\n      mstore\n      pop\n      pop\n        /* \"contracts/GeekNftMarketPlace.sol\":4797:4803  myNfts */\n      dup4\n        /* \"contracts/GeekNftMarketPlace.sol\":4804:4812  nftIndex */\n      dup4\n        /* \"contracts/GeekNftMarketPlace.sol\":4797:4813  myNfts[nftIndex] */\n      dup2\n      mload\n      dup2\n      lt\n      tag_239\n      jumpi\n      tag_240\n      tag_84\n      jump\t// in\n    tag_240:\n    tag_239:\n      0x20\n      mul\n      0x20\n      add\n      add\n        /* \"contracts/GeekNftMarketPlace.sol\":4797:4823  myNfts[nftIndex] = nfts[i] */\n      dup2\n      swap1\n      mstore\n      pop\n        /* \"contracts/GeekNftMarketPlace.sol\":4841:4852  nftIndex ++ */\n      dup2\n      dup1\n      tag_241\n      swap1\n      tag_114\n      jump\t// in\n    tag_241:\n      swap3\n      pop\n      pop\n        /* \"contracts/GeekNftMarketPlace.sol\":4745:4867  if(nfts[i].creator == msg.sender) {... */\n    tag_235:\n        /* \"contracts/GeekNftMarketPlace.sol\":4726:4729  i++ */\n      dup1\n      dup1\n      tag_242\n      swap1\n      tag_114\n      jump\t// in\n    tag_242:\n      swap2\n      pop\n      pop\n        /* \"contracts/GeekNftMarketPlace.sol\":4694:4877  for (uint i = 0; i < nftsCount; i++) {... */\n      jump(tag_229)\n    tag_230:\n      pop\n        /* \"contracts/GeekNftMarketPlace.sol\":4894:4900  myNfts */\n      dup2\n        /* \"contracts/GeekNftMarketPlace.sol\":4887:4900  return myNfts */\n      swap5\n      pop\n      pop\n      pop\n      pop\n      pop\n        /* \"contracts/GeekNftMarketPlace.sol\":4311:4907  function getMyCreatedNfts() public view returns (NFT[] memory) {... */\n      swap1\n      jump\t// out\n        /* \"contracts/GeekNftMarketPlace.sol\":6246:6712  function getListedNfts() public view returns (NFT[] memory) {... */\n    tag_48:\n        /* \"contracts/GeekNftMarketPlace.sol\":6292:6304  NFT[] memory */\n      0x60\n        /* \"contracts/GeekNftMarketPlace.sol\":6316:6332  uint256 nftCount */\n      0x00\n        /* \"contracts/GeekNftMarketPlace.sol\":6335:6355  _nftsCount.current() */\n      tag_244\n        /* \"contracts/GeekNftMarketPlace.sol\":6335:6345  _nftsCount */\n      0x02\n        /* \"contracts/GeekNftMarketPlace.sol\":6335:6353  _nftsCount.current */\n      tag_101\n        /* \"contracts/GeekNftMarketPlace.sol\":6335:6355  _nftsCount.current() */\n      jump\t// in\n    tag_244:\n        /* \"contracts/GeekNftMarketPlace.sol\":6316:6355  uint256 nftCount = _nftsCount.current() */\n      swap1\n      pop\n        /* \"contracts/GeekNftMarketPlace.sol\":6365:6388  uint256 unsoldNftsCount */\n      0x00\n        /* \"contracts/GeekNftMarketPlace.sol\":6402:6421  _nftsSold.current() */\n      tag_245\n        /* \"contracts/GeekNftMarketPlace.sol\":6402:6411  _nftsSold */\n      0x01\n        /* \"contracts/GeekNftMarketPlace.sol\":6402:6419  _nftsSold.current */\n      tag_101\n        /* \"contracts/GeekNftMarketPlace.sol\":6402:6421  _nftsSold.current() */\n      jump\t// in\n    tag_245:\n        /* \"contracts/GeekNftMarketPlace.sol\":6391:6399  nftCount */\n      dup3\n        /* \"contracts/GeekNftMarketPlace.sol\":6391:6421  nftCount - _nftsSold.current() */\n      tag_246\n      swap2\n      swap1\n      tag_247\n      jump\t// in\n    tag_246:\n        /* \"contracts/GeekNftMarketPlace.sol\":6365:6421  uint256 unsoldNftsCount = nftCount - _nftsSold.current() */\n      swap1\n      pop\n        /* \"contracts/GeekNftMarketPlace.sol\":6432:6455  NFT[] memory listedNfts */\n      0x00\n        /* \"contracts/GeekNftMarketPlace.sol\":6468:6483  unsoldNftsCount */\n      dup2\n        /* \"contracts/GeekNftMarketPlace.sol\":6458:6484  new NFT[](unsoldNftsCount) */\n      0xffffffffffffffff\n      dup2\n      gt\n      iszero\n      tag_248\n      jumpi\n      tag_249\n      tag_118\n      jump\t// in\n    tag_249:\n    tag_248:\n      mload(0x40)\n      swap1\n      dup1\n      dup3\n      mstore\n      dup1\n      0x20\n      mul\n      0x20\n      add\n      dup3\n      add\n      0x40\n      mstore\n      dup1\n      iszero\n      tag_250\n      jumpi\n      dup2\n      0x20\n      add\n    tag_251:\n      tag_252\n      tag_122\n      jump\t// in\n    tag_252:\n      dup2\n      mstore\n      0x20\n      add\n      swap1\n      0x01\n      swap1\n      sub\n      swap1\n      dup2\n      tag_251\n      jumpi\n      swap1\n      pop\n    tag_250:\n      pop\n        /* \"contracts/GeekNftMarketPlace.sol\":6432:6484  NFT[] memory listedNfts = new NFT[](unsoldNftsCount) */\n      swap1\n      pop\n        /* \"contracts/GeekNftMarketPlace.sol\":6494:6508  uint nftsIndex */\n      0x00\n        /* \"contracts/GeekNftMarketPlace.sol\":6527:6533  uint i */\n      dup1\n        /* \"contracts/GeekNftMarketPlace.sol\":6522:6679  for (uint i = 0; i < nftCount; i++) {... */\n    tag_253:\n        /* \"contracts/GeekNftMarketPlace.sol\":6543:6551  nftCount */\n      dup5\n        /* \"contracts/GeekNftMarketPlace.sol\":6539:6540  i */\n      dup2\n        /* \"contracts/GeekNftMarketPlace.sol\":6539:6551  i < nftCount */\n      lt\n        /* \"contracts/GeekNftMarketPlace.sol\":6522:6679  for (uint i = 0; i < nftCount; i++) {... */\n      iszero\n      tag_254\n      jumpi\n        /* \"contracts/GeekNftMarketPlace.sol\":6572:6576  nfts */\n      0x05\n        /* \"contracts/GeekNftMarketPlace.sol\":6577:6578  i */\n      dup2\n        /* \"contracts/GeekNftMarketPlace.sol\":6572:6579  nfts[i] */\n      dup2\n      sload\n      dup2\n      lt\n      tag_256\n      jumpi\n      tag_257\n      tag_84\n      jump\t// in\n    tag_257:\n    tag_256:\n      swap1\n      0x00\n      mstore\n      keccak256(0x00, 0x20)\n      swap1\n      0x06\n      mul\n      add\n        /* \"contracts/GeekNftMarketPlace.sol\":6572:6586  nfts[i].listed */\n      0x05\n      add\n      0x14\n      swap1\n      sload\n      swap1\n      0x0100\n      exp\n      swap1\n      div\n      0xff\n      and\n        /* \"contracts/GeekNftMarketPlace.sol\":6568:6669  if (nfts[i].listed) {... */\n      iszero\n      tag_259\n      jumpi\n        /* \"contracts/GeekNftMarketPlace.sol\":6626:6630  nfts */\n      0x05\n        /* \"contracts/GeekNftMarketPlace.sol\":6631:6632  i */\n      dup2\n        /* \"contracts/GeekNftMarketPlace.sol\":6626:6633  nfts[i] */\n      dup2\n      sload\n      dup2\n      lt\n      tag_260\n      jumpi\n      tag_261\n      tag_84\n      jump\t// in\n    tag_261:\n    tag_260:\n      swap1\n      0x00\n      mstore\n      keccak256(0x00, 0x20)\n      swap1\n      0x06\n      mul\n      add\n        /* \"contracts/GeekNftMarketPlace.sol\":6602:6633  listedNfts[nftsIndex] = nfts[i] */\n      mload(0x40)\n      dup1\n      0xe0\n      add\n      0x40\n      mstore\n      swap1\n      dup2\n      0x00\n      dup3\n      add\n      0x00\n      swap1\n      sload\n      swap1\n      0x0100\n      exp\n      swap1\n      div\n      0xffffffffffffffffffffffffffffffffffffffff\n      and\n      0xffffffffffffffffffffffffffffffffffffffff\n      and\n      0xffffffffffffffffffffffffffffffffffffffff\n      and\n      dup2\n      mstore\n      0x20\n      add\n      0x01\n      dup3\n      add\n      sload\n      dup2\n      mstore\n      0x20\n      add\n      0x02\n      dup3\n      add\n      sload\n      dup2\n      mstore\n      0x20\n      add\n      0x03\n      dup3\n      add\n      0x00\n      swap1\n      sload\n      swap1\n      0x0100\n      exp\n      swap1\n      div\n      0xffffffffffffffffffffffffffffffffffffffff\n      and\n      0xffffffffffffffffffffffffffffffffffffffff\n      and\n      0xffffffffffffffffffffffffffffffffffffffff\n      and\n      dup2\n      mstore\n      0x20\n      add\n      0x04\n      dup3\n      add\n      0x00\n      swap1\n      sload\n      swap1\n      0x0100\n      exp\n      swap1\n      div\n      0xffffffffffffffffffffffffffffffffffffffff\n      and\n      0xffffffffffffffffffffffffffffffffffffffff\n      and\n      0xffffffffffffffffffffffffffffffffffffffff\n      and\n      dup2\n      mstore\n      0x20\n      add\n      0x05\n      dup3\n      add\n      0x00\n      swap1\n      sload\n      swap1\n      0x0100\n      exp\n      swap1\n      div\n      0xffffffffffffffffffffffffffffffffffffffff\n      and\n      0xffffffffffffffffffffffffffffffffffffffff\n      and\n      0xffffffffffffffffffffffffffffffffffffffff\n      and\n      dup2\n      mstore\n      0x20\n      add\n      0x05\n      dup3\n      add\n      0x14\n      swap1\n      sload\n      swap1\n      0x0100\n      exp\n      swap1\n      div\n      0xff\n      and\n      iszero\n      iszero\n      iszero\n      iszero\n      dup2\n      mstore\n      pop\n      pop\n        /* \"contracts/GeekNftMarketPlace.sol\":6602:6612  listedNfts */\n      dup4\n        /* \"contracts/GeekNftMarketPlace.sol\":6613:6622  nftsIndex */\n      dup4\n        /* \"contracts/GeekNftMarketPlace.sol\":6602:6623  listedNfts[nftsIndex] */\n      dup2\n      mload\n      dup2\n      lt\n      tag_263\n      jumpi\n      tag_264\n      tag_84\n      jump\t// in\n    tag_264:\n    tag_263:\n      0x20\n      mul\n      0x20\n      add\n      add\n        /* \"contracts/GeekNftMarketPlace.sol\":6602:6633  listedNfts[nftsIndex] = nfts[i] */\n      dup2\n      swap1\n      mstore\n      pop\n        /* \"contracts/GeekNftMarketPlace.sol\":6647:6658  nftsIndex++ */\n      dup2\n      dup1\n      tag_265\n      swap1\n      tag_114\n      jump\t// in\n    tag_265:\n      swap3\n      pop\n      pop\n        /* \"contracts/GeekNftMarketPlace.sol\":6568:6669  if (nfts[i].listed) {... */\n    tag_259:\n        /* \"contracts/GeekNftMarketPlace.sol\":6553:6556  i++ */\n      dup1\n      dup1\n      tag_266\n      swap1\n      tag_114\n      jump\t// in\n    tag_266:\n      swap2\n      pop\n      pop\n        /* \"contracts/GeekNftMarketPlace.sol\":6522:6679  for (uint i = 0; i < nftCount; i++) {... */\n      jump(tag_253)\n    tag_254:\n      pop\n        /* \"contracts/GeekNftMarketPlace.sol\":6695:6705  listedNfts */\n      dup2\n        /* \"contracts/GeekNftMarketPlace.sol\":6688:6705  return listedNfts */\n      swap5\n      pop\n      pop\n      pop\n      pop\n      pop\n        /* \"contracts/GeekNftMarketPlace.sol\":6246:6712  function getListedNfts() public view returns (NFT[] memory) {... */\n      swap1\n      jump\t// out\n        /* \"contracts/GeekNftMarketPlace.sol\":3680:4270  function getMyOwnedNfts() public view returns (NFT[] memory) {... */\n    tag_52:\n        /* \"contracts/GeekNftMarketPlace.sol\":3727:3739  NFT[] memory */\n      0x60\n        /* \"contracts/GeekNftMarketPlace.sol\":3751:3765  uint nftsCount */\n      0x00\n        /* \"contracts/GeekNftMarketPlace.sol\":3768:3788  _nftsCount.current() */\n      tag_268\n        /* \"contracts/GeekNftMarketPlace.sol\":3768:3778  _nftsCount */\n      0x02\n        /* \"contracts/GeekNftMarketPlace.sol\":3768:3786  _nftsCount.current */\n      tag_101\n        /* \"contracts/GeekNftMarketPlace.sol\":3768:3788  _nftsCount.current() */\n      jump\t// in\n    tag_268:\n        /* \"contracts/GeekNftMarketPlace.sol\":3751:3788  uint nftsCount = _nftsCount.current() */\n      swap1\n      pop\n        /* \"contracts/GeekNftMarketPlace.sol\":3798:3814  uint myNftsCount */\n      0x00\n        /* \"contracts/GeekNftMarketPlace.sol\":3833:3839  uint i */\n      dup1\n        /* \"contracts/GeekNftMarketPlace.sol\":3828:3968  for (uint i = 0; i < nftsCount; i++) {... */\n    tag_269:\n        /* \"contracts/GeekNftMarketPlace.sol\":3849:3858  nftsCount */\n      dup3\n        /* \"contracts/GeekNftMarketPlace.sol\":3845:3846  i */\n      dup2\n        /* \"contracts/GeekNftMarketPlace.sol\":3845:3858  i < nftsCount */\n      lt\n        /* \"contracts/GeekNftMarketPlace.sol\":3828:3968  for (uint i = 0; i < nftsCount; i++) {... */\n      iszero\n      tag_270\n      jumpi\n        /* \"contracts/GeekNftMarketPlace.sol\":3899:3909  msg.sender */\n      caller\n        /* \"contracts/GeekNftMarketPlace.sol\":3882:3909  nfts[i].owner == msg.sender */\n      0xffffffffffffffffffffffffffffffffffffffff\n      and\n        /* \"contracts/GeekNftMarketPlace.sol\":3882:3886  nfts */\n      0x05\n        /* \"contracts/GeekNftMarketPlace.sol\":3887:3888  i */\n      dup3\n        /* \"contracts/GeekNftMarketPlace.sol\":3882:3889  nfts[i] */\n      dup2\n      sload\n      dup2\n      lt\n      tag_272\n      jumpi\n      tag_273\n      tag_84\n      jump\t// in\n    tag_273:\n    tag_272:\n      swap1\n      0x00\n      mstore\n      keccak256(0x00, 0x20)\n      swap1\n      0x06\n      mul\n      add\n        /* \"contracts/GeekNftMarketPlace.sol\":3882:3895  nfts[i].owner */\n      0x04\n      add\n      0x00\n      swap1\n      sload\n      swap1\n      0x0100\n      exp\n      swap1\n      div\n      0xffffffffffffffffffffffffffffffffffffffff\n      and\n        /* \"contracts/GeekNftMarketPlace.sol\":3882:3909  nfts[i].owner == msg.sender */\n      0xffffffffffffffffffffffffffffffffffffffff\n      and\n      eq\n        /* \"contracts/GeekNftMarketPlace.sol\":3879:3958  if(nfts[i].owner == msg.sender) {... */\n      iszero\n      tag_275\n      jumpi\n        /* \"contracts/GeekNftMarketPlace.sol\":3929:3943  myNftsCount ++ */\n      dup2\n      dup1\n      tag_276\n      swap1\n      tag_114\n      jump\t// in\n    tag_276:\n      swap3\n      pop\n      pop\n        /* \"contracts/GeekNftMarketPlace.sol\":3879:3958  if(nfts[i].owner == msg.sender) {... */\n    tag_275:\n        /* \"contracts/GeekNftMarketPlace.sol\":3860:3863  i++ */\n      dup1\n      dup1\n      tag_277\n      swap1\n      tag_114\n      jump\t// in\n    tag_277:\n      swap2\n      pop\n      pop\n        /* \"contracts/GeekNftMarketPlace.sol\":3828:3968  for (uint i = 0; i < nftsCount; i++) {... */\n      jump(tag_269)\n    tag_270:\n      pop\n        /* \"contracts/GeekNftMarketPlace.sol\":3978:3997  NFT[] memory myNfts */\n      0x00\n        /* \"contracts/GeekNftMarketPlace.sol\":4010:4021  myNftsCount */\n      dup2\n        /* \"contracts/GeekNftMarketPlace.sol\":4000:4022  new NFT[](myNftsCount) */\n      0xffffffffffffffff\n      dup2\n      gt\n      iszero\n      tag_278\n      jumpi\n      tag_279\n      tag_118\n      jump\t// in\n    tag_279:\n    tag_278:\n      mload(0x40)\n      swap1\n      dup1\n      dup3\n      mstore\n      dup1\n      0x20\n      mul\n      0x20\n      add\n      dup3\n      add\n      0x40\n      mstore\n      dup1\n      iszero\n      tag_280\n      jumpi\n      dup2\n      0x20\n      add\n    tag_281:\n      tag_282\n      tag_122\n      jump\t// in\n    tag_282:\n      dup2\n      mstore\n      0x20\n      add\n      swap1\n      0x01\n      swap1\n      sub\n      swap1\n      dup2\n      tag_281\n      jumpi\n      swap1\n      pop\n    tag_280:\n      pop\n        /* \"contracts/GeekNftMarketPlace.sol\":3978:4022  NFT[] memory myNfts = new NFT[](myNftsCount) */\n      swap1\n      pop\n        /* \"contracts/GeekNftMarketPlace.sol\":4032:4045  uint nftIndex */\n      0x00\n        /* \"contracts/GeekNftMarketPlace.sol\":4064:4070  uint i */\n      dup1\n        /* \"contracts/GeekNftMarketPlace.sol\":4059:4240  for (uint i = 0; i < nftsCount; i++) {... */\n    tag_283:\n        /* \"contracts/GeekNftMarketPlace.sol\":4080:4089  nftsCount */\n      dup5\n        /* \"contracts/GeekNftMarketPlace.sol\":4076:4077  i */\n      dup2\n        /* \"contracts/GeekNftMarketPlace.sol\":4076:4089  i < nftsCount */\n      lt\n        /* \"contracts/GeekNftMarketPlace.sol\":4059:4240  for (uint i = 0; i < nftsCount; i++) {... */\n      iszero\n      tag_284\n      jumpi\n        /* \"contracts/GeekNftMarketPlace.sol\":4130:4140  msg.sender */\n      caller\n        /* \"contracts/GeekNftMarketPlace.sol\":4113:4140  nfts[i].owner == msg.sender */\n      0xffffffffffffffffffffffffffffffffffffffff\n      and\n        /* \"contracts/GeekNftMarketPlace.sol\":4113:4117  nfts */\n      0x05\n        /* \"contracts/GeekNftMarketPlace.sol\":4118:4119  i */\n      dup3\n        /* \"contracts/GeekNftMarketPlace.sol\":4113:4120  nfts[i] */\n      dup2\n      sload\n      dup2\n      lt\n      tag_286\n      jumpi\n      tag_287\n      tag_84\n      jump\t// in\n    tag_287:\n    tag_286:\n      swap1\n      0x00\n      mstore\n      keccak256(0x00, 0x20)\n      swap1\n      0x06\n      mul\n      add\n        /* \"contracts/GeekNftMarketPlace.sol\":4113:4126  nfts[i].owner */\n      0x04\n      add\n      0x00\n      swap1\n      sload\n      swap1\n      0x0100\n      exp\n      swap1\n      div\n      0xffffffffffffffffffffffffffffffffffffffff\n      and\n        /* \"contracts/GeekNftMarketPlace.sol\":4113:4140  nfts[i].owner == msg.sender */\n      0xffffffffffffffffffffffffffffffffffffffff\n      and\n      eq\n        /* \"contracts/GeekNftMarketPlace.sol\":4110:4230  if(nfts[i].owner == msg.sender) {... */\n      iszero\n      tag_289\n      jumpi\n        /* \"contracts/GeekNftMarketPlace.sol\":4179:4183  nfts */\n      0x05\n        /* \"contracts/GeekNftMarketPlace.sol\":4184:4185  i */\n      dup2\n        /* \"contracts/GeekNftMarketPlace.sol\":4179:4186  nfts[i] */\n      dup2\n      sload\n      dup2\n      lt\n      tag_290\n      jumpi\n      tag_291\n      tag_84\n      jump\t// in\n    tag_291:\n    tag_290:\n      swap1\n      0x00\n      mstore\n      keccak256(0x00, 0x20)\n      swap1\n      0x06\n      mul\n      add\n        /* \"contracts/GeekNftMarketPlace.sol\":4160:4186  myNfts[nftIndex] = nfts[i] */\n      mload(0x40)\n      dup1\n      0xe0\n      add\n      0x40\n      mstore\n      swap1\n      dup2\n      0x00\n      dup3\n      add\n      0x00\n      swap1\n      sload\n      swap1\n      0x0100\n      exp\n      swap1\n      div\n      0xffffffffffffffffffffffffffffffffffffffff\n      and\n      0xffffffffffffffffffffffffffffffffffffffff\n      and\n      0xffffffffffffffffffffffffffffffffffffffff\n      and\n      dup2\n      mstore\n      0x20\n      add\n      0x01\n      dup3\n      add\n      sload\n      dup2\n      mstore\n      0x20\n      add\n      0x02\n      dup3\n      add\n      sload\n      dup2\n      mstore\n      0x20\n      add\n      0x03\n      dup3\n      add\n      0x00\n      swap1\n      sload\n      swap1\n      0x0100\n      exp\n      swap1\n      div\n      0xffffffffffffffffffffffffffffffffffffffff\n      and\n      0xffffffffffffffffffffffffffffffffffffffff\n      and\n      0xffffffffffffffffffffffffffffffffffffffff\n      and\n      dup2\n      mstore\n      0x20\n      add\n      0x04\n      dup3\n      add\n      0x00\n      swap1\n      sload\n      swap1\n      0x0100\n      exp\n      swap1\n      div\n      0xffffffffffffffffffffffffffffffffffffffff\n      and\n      0xffffffffffffffffffffffffffffffffffffffff\n      and\n      0xffffffffffffffffffffffffffffffffffffffff\n      and\n      dup2\n      mstore\n      0x20\n      add\n      0x05\n      dup3\n      add\n      0x00\n      swap1\n      sload\n      swap1\n      0x0100\n      exp\n      swap1\n      div\n      0xffffffffffffffffffffffffffffffffffffffff\n      and\n      0xffffffffffffffffffffffffffffffffffffffff\n      and\n      0xffffffffffffffffffffffffffffffffffffffff\n      and\n      dup2\n      mstore\n      0x20\n      add\n      0x05\n      dup3\n      add\n      0x14\n      swap1\n      sload\n      swap1\n      0x0100\n      exp\n      swap1\n      div\n      0xff\n      and\n      iszero\n      iszero\n      iszero\n      iszero\n      dup2\n      mstore\n      pop\n      pop\n        /* \"contracts/GeekNftMarketPlace.sol\":4160:4166  myNfts */\n      dup4\n        /* \"contracts/GeekNftMarketPlace.sol\":4167:4175  nftIndex */\n      dup4\n        /* \"contracts/GeekNftMarketPlace.sol\":4160:4176  myNfts[nftIndex] */\n      dup2\n      mload\n      dup2\n      lt\n      tag_293\n      jumpi\n      tag_294\n      tag_84\n      jump\t// in\n    tag_294:\n    tag_293:\n      0x20\n      mul\n      0x20\n      add\n      add\n        /* \"contracts/GeekNftMarketPlace.sol\":4160:4186  myNfts[nftIndex] = nfts[i] */\n      dup2\n      swap1\n      mstore\n      pop\n        /* \"contracts/GeekNftMarketPlace.sol\":4204:4215  nftIndex ++ */\n      dup2\n      dup1\n      tag_295\n      swap1\n      tag_114\n      jump\t// in\n    tag_295:\n      swap3\n      pop\n      pop\n        /* \"contracts/GeekNftMarketPlace.sol\":4110:4230  if(nfts[i].owner == msg.sender) {... */\n    tag_289:\n        /* \"contracts/GeekNftMarketPlace.sol\":4091:4094  i++ */\n      dup1\n      dup1\n      tag_296\n      swap1\n      tag_114\n      jump\t// in\n    tag_296:\n      swap2\n      pop\n      pop\n        /* \"contracts/GeekNftMarketPlace.sol\":4059:4240  for (uint i = 0; i < nftsCount; i++) {... */\n      jump(tag_283)\n    tag_284:\n      pop\n        /* \"contracts/GeekNftMarketPlace.sol\":4257:4263  myNfts */\n      dup2\n        /* \"contracts/GeekNftMarketPlace.sol\":4250:4263  return myNfts */\n      swap5\n      pop\n      pop\n      pop\n      pop\n      pop\n        /* \"contracts/GeekNftMarketPlace.sol\":3680:4270  function getMyOwnedNfts() public view returns (NFT[] memory) {... */\n      swap1\n      jump\t// out\n        /* \"contracts/GeekNftMarketPlace.sol\":1384:2100  function listNFT(address _nftContract, uint _tokenId, uint _price) public payable nonReentrant{... */\n    tag_56:\n        /* \"contracts/RenntrancyGuard.sol\":171:172  2 */\n      0x02\n        /* \"contracts/RenntrancyGuard.sol\":310:317  _status */\n      sload(0x00)\n        /* \"contracts/RenntrancyGuard.sol\":310:329  _status != _ENTERED */\n      eq\n      iszero\n        /* \"contracts/RenntrancyGuard.sol\":302:365  require(_status != _ENTERED, \"ReentrancyGuard: reentrant call\") */\n      tag_298\n      jumpi\n      mload(0x40)\n      0x08c379a000000000000000000000000000000000000000000000000000000000\n      dup2\n      mstore\n      0x04\n      add\n      tag_299\n      swap1\n      tag_64\n      jump\t// in\n    tag_299:\n      mload(0x40)\n      dup1\n      swap2\n      sub\n      swap1\n      revert\n    tag_298:\n        /* \"contracts/RenntrancyGuard.sol\":171:172  2 */\n      0x02\n        /* \"contracts/RenntrancyGuard.sol\":375:382  _status */\n      0x00\n        /* \"contracts/RenntrancyGuard.sol\":375:393  _status = _ENTERED */\n      dup2\n      swap1\n      sstore\n      pop\n        /* \"contracts/GeekNftMarketPlace.sol\":1505:1506  0 */\n      0x00\n        /* \"contracts/GeekNftMarketPlace.sol\":1496:1502  _price */\n      dup2\n        /* \"contracts/GeekNftMarketPlace.sol\":1496:1506  _price > 0 */\n      gt\n        /* \"contracts/GeekNftMarketPlace.sol\":1488:1539  require(_price > 0, \"Price must be at least 1 wei\") */\n      tag_301\n      jumpi\n      mload(0x40)\n      0x08c379a000000000000000000000000000000000000000000000000000000000\n      dup2\n      mstore\n      0x04\n      add\n      tag_302\n      swap1\n      tag_68\n      jump\t// in\n    tag_302:\n      mload(0x40)\n      dup1\n      swap2\n      sub\n      swap1\n      revert\n    tag_301:\n        /* \"contracts/GeekNftMarketPlace.sol\":1570:1581  LISTING_FEE */\n      sload(0x03)\n        /* \"contracts/GeekNftMarketPlace.sol\":1557:1566  msg.value */\n      callvalue\n        /* \"contracts/GeekNftMarketPlace.sol\":1557:1581  msg.value == LISTING_FEE */\n      eq\n        /* \"contracts/GeekNftMarketPlace.sol\":1549:1618  require(msg.value == LISTING_FEE, \"Not enough ether for listing fee\") */\n      tag_303\n      jumpi\n      mload(0x40)\n      0x08c379a000000000000000000000000000000000000000000000000000000000\n      dup2\n      mstore\n      0x04\n      add\n      tag_304\n      swap1\n      tag_71\n      jump\t// in\n    tag_304:\n      mload(0x40)\n      dup1\n      swap2\n      sub\n      swap1\n      revert\n    tag_303:\n        /* \"contracts/GeekNftMarketPlace.sol\":1646:1658  _nftContract */\n      dup3\n        /* \"contracts/GeekNftMarketPlace.sol\":1629:1672  GeekNftInterface(_nftContract).transferFrom */\n      0xffffffffffffffffffffffffffffffffffffffff\n      and\n      0x23b872dd\n        /* \"contracts/GeekNftMarketPlace.sol\":1673:1683  msg.sender */\n      caller\n        /* \"contracts/GeekNftMarketPlace.sol\":1693:1697  this */\n      address\n        /* \"contracts/GeekNftMarketPlace.sol\":1700:1708  _tokenId */\n      dup6\n        /* \"contracts/GeekNftMarketPlace.sol\":1629:1709  GeekNftInterface(_nftContract).transferFrom(msg.sender, address(this), _tokenId) */\n      mload(0x40)\n      dup5\n      0xffffffff\n      and\n      0xe0\n      shl\n      dup2\n      mstore\n      0x04\n      add\n      tag_305\n      swap4\n      swap3\n      swap2\n      swap1\n      tag_78\n      jump\t// in\n    tag_305:\n      0x00\n      mload(0x40)\n      dup1\n      dup4\n      sub\n      dup2\n      0x00\n      dup8\n      dup1\n      extcodesize\n      iszero\n      dup1\n      iszero\n      tag_306\n      jumpi\n      0x00\n      dup1\n      revert\n    tag_306:\n      pop\n      gas\n      call\n      iszero\n      dup1\n      iszero\n      tag_308\n      jumpi\n      returndatasize\n      0x00\n      dup1\n      returndatacopy\n      revert(0x00, returndatasize)\n    tag_308:\n      pop\n      pop\n      pop\n      pop\n        /* \"contracts/GeekNftMarketPlace.sol\":1720:1724  nfts */\n      0x05\n        /* \"contracts/GeekNftMarketPlace.sol\":1730:1931  NFT(... */\n      mload(0x40)\n      dup1\n      0xe0\n      add\n      0x40\n      mstore\n      dup1\n        /* \"contracts/GeekNftMarketPlace.sol\":1747:1759  _nftContract */\n      dup6\n        /* \"contracts/GeekNftMarketPlace.sol\":1730:1931  NFT(... */\n      0xffffffffffffffffffffffffffffffffffffffff\n      and\n      dup2\n      mstore\n      0x20\n      add\n        /* \"contracts/GeekNftMarketPlace.sol\":1773:1781  _tokenId */\n      dup5\n        /* \"contracts/GeekNftMarketPlace.sol\":1730:1931  NFT(... */\n      dup2\n      mstore\n      0x20\n      add\n        /* \"contracts/GeekNftMarketPlace.sol\":1795:1801  _price */\n      dup4\n        /* \"contracts/GeekNftMarketPlace.sol\":1730:1931  NFT(... */\n      dup2\n      mstore\n      0x20\n      add\n        /* \"contracts/GeekNftMarketPlace.sol\":1823:1833  msg.sender */\n      caller\n        /* \"contracts/GeekNftMarketPlace.sol\":1730:1931  NFT(... */\n      0xffffffffffffffffffffffffffffffffffffffff\n      and\n      dup2\n      mstore\n      0x20\n      add\n        /* \"contracts/GeekNftMarketPlace.sol\":1864:1868  this */\n      address\n        /* \"contracts/GeekNftMarketPlace.sol\":1730:1931  NFT(... */\n      0xffffffffffffffffffffffffffffffffffffffff\n      and\n      dup2\n      mstore\n      0x20\n      add\n        /* \"contracts/GeekNftMarketPlace.sol\":1892:1902  msg.sender */\n      caller\n        /* \"contracts/GeekNftMarketPlace.sol\":1730:1931  NFT(... */\n      0xffffffffffffffffffffffffffffffffffffffff\n      and\n      dup2\n      mstore\n      0x20\n      add\n        /* \"contracts/GeekNftMarketPlace.sol\":1917:1921  true */\n      0x01\n        /* \"contracts/GeekNftMarketPlace.sol\":1730:1931  NFT(... */\n      iszero\n      iszero\n      dup2\n      mstore\n      pop\n        /* \"contracts/GeekNftMarketPlace.sol\":1720:1932  nfts.push(NFT(... */\n      swap1\n      dup1\n      0x01\n      dup2\n      sload\n      add\n      dup1\n      dup3\n      sstore\n      dup1\n      swap2\n      pop\n      pop\n      0x01\n      swap1\n      sub\n      swap1\n      0x00\n      mstore\n      keccak256(0x00, 0x20)\n      swap1\n      0x06\n      mul\n      add\n      0x00\n      swap1\n      swap2\n      swap1\n      swap2\n      swap1\n      swap2\n      pop\n      0x00\n      dup3\n      add\n      mload\n      dup2\n      0x00\n      add\n      exp(0x0100, 0x00)\n      dup2\n      sload\n      dup2\n      0xffffffffffffffffffffffffffffffffffffffff\n      mul\n      not\n      and\n      swap1\n      dup4\n      0xffffffffffffffffffffffffffffffffffffffff\n      and\n      mul\n      or\n      swap1\n      sstore\n      pop\n      0x20\n      dup3\n      add\n      mload\n      dup2\n      0x01\n      add\n      sstore\n      0x40\n      dup3\n      add\n      mload\n      dup2\n      0x02\n      add\n      sstore\n      0x60\n      dup3\n      add\n      mload\n      dup2\n      0x03\n      add\n      exp(0x0100, 0x00)\n      dup2\n      sload\n      dup2\n      0xffffffffffffffffffffffffffffffffffffffff\n      mul\n      not\n      and\n      swap1\n      dup4\n      0xffffffffffffffffffffffffffffffffffffffff\n      and\n      mul\n      or\n      swap1\n      sstore\n      pop\n      0x80\n      dup3\n      add\n      mload\n      dup2\n      0x04\n      add\n      exp(0x0100, 0x00)\n      dup2\n      sload\n      dup2\n      0xffffffffffffffffffffffffffffffffffffffff\n      mul\n      not\n      and\n      swap1\n      dup4\n      0xffffffffffffffffffffffffffffffffffffffff\n      and\n      mul\n      or\n      swap1\n      sstore\n      pop\n      0xa0\n      dup3\n      add\n      mload\n      dup2\n      0x05\n      add\n      exp(0x0100, 0x00)\n      dup2\n      sload\n      dup2\n      0xffffffffffffffffffffffffffffffffffffffff\n      mul\n      not\n      and\n      swap1\n      dup4\n      0xffffffffffffffffffffffffffffffffffffffff\n      and\n      mul\n      or\n      swap1\n      sstore\n      pop\n      0xc0\n      dup3\n      add\n      mload\n      dup2\n      0x05\n      add\n      exp(0x0100, 0x14)\n      dup2\n      sload\n      dup2\n      0xff\n      mul\n      not\n      and\n      swap1\n      dup4\n      iszero\n      iszero\n      mul\n      or\n      swap1\n      sstore\n      pop\n      pop\n      pop\n        /* \"contracts/GeekNftMarketPlace.sol\":1943:1965  _nftsCount.increment() */\n      tag_310\n        /* \"contracts/GeekNftMarketPlace.sol\":1943:1953  _nftsCount */\n      0x02\n        /* \"contracts/GeekNftMarketPlace.sol\":1943:1963  _nftsCount.increment */\n      tag_173\n        /* \"contracts/GeekNftMarketPlace.sol\":1943:1965  _nftsCount.increment() */\n      jump\t// in\n    tag_310:\n        /* \"contracts/GeekNftMarketPlace.sol\":1976:1989  _marketOwwner */\n      0x04\n      0x00\n      swap1\n      sload\n      swap1\n      0x0100\n      exp\n      swap1\n      div\n      0xffffffffffffffffffffffffffffffffffffffff\n      and\n        /* \"contracts/GeekNftMarketPlace.sol\":1976:1998  _marketOwwner.transfer */\n      0xffffffffffffffffffffffffffffffffffffffff\n      and\n        /* \"contracts/GeekNftMarketPlace.sol\":1976:2009  _marketOwwner.transfer(msg.value) */\n      0x08fc\n        /* \"contracts/GeekNftMarketPlace.sol\":1999:2008  msg.value */\n      callvalue\n        /* \"contracts/GeekNftMarketPlace.sol\":1976:2009  _marketOwwner.transfer(msg.value) */\n      swap1\n      dup2\n      iszero\n      mul\n      swap1\n      mload(0x40)\n      0x00\n      mload(0x40)\n      dup1\n      dup4\n      sub\n      dup2\n      dup6\n      dup9\n      dup9\n      call\n      swap4\n      pop\n      pop\n      pop\n      pop\n      iszero\n      dup1\n      iszero\n      tag_312\n      jumpi\n      returndatasize\n      0x00\n      dup1\n      returndatacopy\n      revert(0x00, returndatasize)\n    tag_312:\n      pop\n        /* \"contracts/GeekNftMarketPlace.sol\":2079:2083  this */\n      address\n        /* \"contracts/GeekNftMarketPlace.sol\":2025:2093  NFTListed(_nftContract, _tokenId, msg.sender, address(this), _price) */\n      0xffffffffffffffffffffffffffffffffffffffff\n      and\n        /* \"contracts/GeekNftMarketPlace.sol\":2059:2069  msg.sender */\n      caller\n        /* \"contracts/GeekNftMarketPlace.sol\":2025:2093  NFTListed(_nftContract, _tokenId, msg.sender, address(this), _price) */\n      0xffffffffffffffffffffffffffffffffffffffff\n      and\n      0xa0c6c0d02d86fdacecbaa5fdf5894bab204e31a778250474108540733a9b8d19\n        /* \"contracts/GeekNftMarketPlace.sol\":2035:2047  _nftContract */\n      dup6\n        /* \"contracts/GeekNftMarketPlace.sol\":2049:2057  _tokenId */\n      dup6\n        /* \"contracts/GeekNftMarketPlace.sol\":2086:2092  _price */\n      dup6\n        /* \"contracts/GeekNftMarketPlace.sol\":2025:2093  NFTListed(_nftContract, _tokenId, msg.sender, address(this), _price) */\n      mload(0x40)\n      tag_313\n      swap4\n      swap3\n      swap2\n      swap1\n      tag_98\n      jump\t// in\n    tag_313:\n      mload(0x40)\n      dup1\n      swap2\n      sub\n      swap1\n      log3\n        /* \"contracts/RenntrancyGuard.sol\":128:129  1 */\n      0x01\n        /* \"contracts/RenntrancyGuard.sol\":414:421  _status */\n      0x00\n        /* \"contracts/RenntrancyGuard.sol\":414:436  _status = _NOT_ENTERED */\n      dup2\n      swap1\n      sstore\n      pop\n        /* \"contracts/GeekNftMarketPlace.sol\":1384:2100  function listNFT(address _nftContract, uint _tokenId, uint _price) public payable nonReentrant{... */\n      pop\n      pop\n      pop\n      jump\t// out\n        /* \"contracts/GeekNftMarketPlace.sol\":1091:1177  function getListingFee() public view returns (uint){... */\n    tag_59:\n        /* \"contracts/GeekNftMarketPlace.sol\":1137:1141  uint */\n      0x00\n        /* \"contracts/GeekNftMarketPlace.sol\":1159:1170  LISTING_FEE */\n      sload(0x03)\n        /* \"contracts/GeekNftMarketPlace.sol\":1152:1170  return LISTING_FEE */\n      swap1\n      pop\n        /* \"contracts/GeekNftMarketPlace.sol\":1091:1177  function getListingFee() public view returns (uint){... */\n      swap1\n      jump\t// out\n        /* \"contracts/GeekNftMarketPlace.sol\":6718:7183  function getNFT(address _nftContract, uint _tokenId) private view returns (NFT memory, int) {... */\n    tag_73:\n        /* \"contracts/GeekNftMarketPlace.sol\":6793:6803  NFT memory */\n      tag_315\n      tag_122\n      jump\t// in\n    tag_315:\n        /* \"contracts/GeekNftMarketPlace.sol\":6805:6808  int */\n      0x00\n        /* \"contracts/GeekNftMarketPlace.sol\":6820:6834  NFT memory nft */\n      tag_317\n      tag_122\n      jump\t// in\n    tag_317:\n        /* \"contracts/GeekNftMarketPlace.sol\":6844:6853  int index */\n      0x00\n        /* \"contracts/GeekNftMarketPlace.sol\":6856:6858  -1 */\n      0xffffffffffffffffffffffffffffffffffffffffffffffffffffffffffffffff\n        /* \"contracts/GeekNftMarketPlace.sol\":6844:6858  int index = -1 */\n      swap1\n      pop\n        /* \"contracts/GeekNftMarketPlace.sol\":6868:6884  uint256 nftCount */\n      0x00\n        /* \"contracts/GeekNftMarketPlace.sol\":6887:6907  _nftsCount.current() */\n      tag_318\n        /* \"contracts/GeekNftMarketPlace.sol\":6887:6897  _nftsCount */\n      0x02\n        /* \"contracts/GeekNftMarketPlace.sol\":6887:6905  _nftsCount.current */\n      tag_101\n        /* \"contracts/GeekNftMarketPlace.sol\":6887:6907  _nftsCount.current() */\n      jump\t// in\n    tag_318:\n        /* \"contracts/GeekNftMarketPlace.sol\":6868:6907  uint256 nftCount = _nftsCount.current() */\n      swap1\n      pop\n        /* \"contracts/GeekNftMarketPlace.sol\":6921:6927  uint i */\n      0x00\n        /* \"contracts/GeekNftMarketPlace.sol\":6917:7148  for(uint i = 0; i < nftCount; i++) {... */\n    tag_319:\n        /* \"contracts/GeekNftMarketPlace.sol\":6937:6945  nftCount */\n      dup2\n        /* \"contracts/GeekNftMarketPlace.sol\":6933:6934  i */\n      dup2\n        /* \"contracts/GeekNftMarketPlace.sol\":6933:6945  i < nftCount */\n      lt\n        /* \"contracts/GeekNftMarketPlace.sol\":6917:7148  for(uint i = 0; i < nftCount; i++) {... */\n      iszero\n      tag_320\n      jumpi\n        /* \"contracts/GeekNftMarketPlace.sol\":6992:7004  _nftContract */\n      dup8\n        /* \"contracts/GeekNftMarketPlace.sol\":6969:7004  nfts[i].nftContract == _nftContract */\n      0xffffffffffffffffffffffffffffffffffffffff\n      and\n        /* \"contracts/GeekNftMarketPlace.sol\":6969:6973  nfts */\n      0x05\n        /* \"contracts/GeekNftMarketPlace.sol\":6974:6975  i */\n      dup3\n        /* \"contracts/GeekNftMarketPlace.sol\":6969:6976  nfts[i] */\n      dup2\n      sload\n      dup2\n      lt\n      tag_322\n      jumpi\n      tag_323\n      tag_84\n      jump\t// in\n    tag_323:\n    tag_322:\n      swap1\n      0x00\n      mstore\n      keccak256(0x00, 0x20)\n      swap1\n      0x06\n      mul\n      add\n        /* \"contracts/GeekNftMarketPlace.sol\":6969:6988  nfts[i].nftContract */\n      0x00\n      add\n      0x00\n      swap1\n      sload\n      swap1\n      0x0100\n      exp\n      swap1\n      div\n      0xffffffffffffffffffffffffffffffffffffffff\n      and\n        /* \"contracts/GeekNftMarketPlace.sol\":6969:7004  nfts[i].nftContract == _nftContract */\n      0xffffffffffffffffffffffffffffffffffffffff\n      and\n      eq\n        /* \"contracts/GeekNftMarketPlace.sol\":6969:7035  nfts[i].nftContract == _nftContract && nfts[i].tokenId == _tokenId */\n      dup1\n      iszero\n      tag_325\n      jumpi\n      pop\n        /* \"contracts/GeekNftMarketPlace.sol\":7027:7035  _tokenId */\n      dup7\n        /* \"contracts/GeekNftMarketPlace.sol\":7008:7012  nfts */\n      0x05\n        /* \"contracts/GeekNftMarketPlace.sol\":7013:7014  i */\n      dup3\n        /* \"contracts/GeekNftMarketPlace.sol\":7008:7015  nfts[i] */\n      dup2\n      sload\n      dup2\n      lt\n      tag_326\n      jumpi\n      tag_327\n      tag_84\n      jump\t// in\n    tag_327:\n    tag_326:\n      swap1\n      0x00\n      mstore\n      keccak256(0x00, 0x20)\n      swap1\n      0x06\n      mul\n      add\n        /* \"contracts/GeekNftMarketPlace.sol\":7008:7023  nfts[i].tokenId */\n      0x01\n      add\n      sload\n        /* \"contracts/GeekNftMarketPlace.sol\":7008:7035  nfts[i].tokenId == _tokenId */\n      eq\n        /* \"contracts/GeekNftMarketPlace.sol\":6969:7035  nfts[i].nftContract == _nftContract && nfts[i].tokenId == _tokenId */\n    tag_325:\n        /* \"contracts/GeekNftMarketPlace.sol\":6966:7138  if(nfts[i].nftContract == _nftContract && nfts[i].tokenId == _tokenId) {... */\n      iszero\n      tag_329\n      jumpi\n        /* \"contracts/GeekNftMarketPlace.sol\":7061:7065  nfts */\n      0x05\n        /* \"contracts/GeekNftMarketPlace.sol\":7066:7067  i */\n      dup2\n        /* \"contracts/GeekNftMarketPlace.sol\":7061:7068  nfts[i] */\n      dup2\n      sload\n      dup2\n      lt\n      tag_330\n      jumpi\n      tag_331\n      tag_84\n      jump\t// in\n    tag_331:\n    tag_330:\n      swap1\n      0x00\n      mstore\n      keccak256(0x00, 0x20)\n      swap1\n      0x06\n      mul\n      add\n        /* \"contracts/GeekNftMarketPlace.sol\":7055:7068  nft = nfts[i] */\n      mload(0x40)\n      dup1\n      0xe0\n      add\n      0x40\n      mstore\n      swap1\n      dup2\n      0x00\n      dup3\n      add\n      0x00\n      swap1\n      sload\n      swap1\n      0x0100\n      exp\n      swap1\n      div\n      0xffffffffffffffffffffffffffffffffffffffff\n      and\n      0xffffffffffffffffffffffffffffffffffffffff\n      and\n      0xffffffffffffffffffffffffffffffffffffffff\n      and\n      dup2\n      mstore\n      0x20\n      add\n      0x01\n      dup3\n      add\n      sload\n      dup2\n      mstore\n      0x20\n      add\n      0x02\n      dup3\n      add\n      sload\n      dup2\n      mstore\n      0x20\n      add\n      0x03\n      dup3\n      add\n      0x00\n      swap1\n      sload\n      swap1\n      0x0100\n      exp\n      swap1\n      div\n      0xffffffffffffffffffffffffffffffffffffffff\n      and\n      0xffffffffffffffffffffffffffffffffffffffff\n      and\n      0xffffffffffffffffffffffffffffffffffffffff\n      and\n      dup2\n      mstore\n      0x20\n      add\n      0x04\n      dup3\n      add\n      0x00\n      swap1\n      sload\n      swap1\n      0x0100\n      exp\n      swap1\n      div\n      0xffffffffffffffffffffffffffffffffffffffff\n      and\n      0xffffffffffffffffffffffffffffffffffffffff\n      and\n      0xffffffffffffffffffffffffffffffffffffffff\n      and\n      dup2\n      mstore\n      0x20\n      add\n      0x05\n      dup3\n      add\n      0x00\n      swap1\n      sload\n      swap1\n      0x0100\n      exp\n      swap1\n      div\n      0xffffffffffffffffffffffffffffffffffffffff\n      and\n      0xffffffffffffffffffffffffffffffffffffffff\n      and\n      0xffffffffffffffffffffffffffffffffffffffff\n      and\n      dup2\n      mstore\n      0x20\n      add\n      0x05\n      dup3\n      add\n      0x14\n      swap1\n      sload\n      swap1\n      0x0100\n      exp\n      swap1\n      div\n      0xff\n      and\n      iszero\n      iszero\n      iszero\n      iszero\n      dup2\n      mstore\n      pop\n      pop\n      swap4\n      pop\n        /* \"contracts/GeekNftMarketPlace.sol\":7098:7099  i */\n      dup1\n        /* \"contracts/GeekNftMarketPlace.sol\":7086:7100  index = int(i) */\n      swap3\n      pop\n        /* \"contracts/GeekNftMarketPlace.sol\":7118:7123  break */\n      jump(tag_320)\n        /* \"contracts/GeekNftMarketPlace.sol\":6966:7138  if(nfts[i].nftContract == _nftContract && nfts[i].tokenId == _tokenId) {... */\n    tag_329:\n        /* \"contracts/GeekNftMarketPlace.sol\":6947:6950  i++ */\n      dup1\n      dup1\n      tag_333\n      swap1\n      tag_114\n      jump\t// in\n    tag_333:\n      swap2\n      pop\n      pop\n        /* \"contracts/GeekNftMarketPlace.sol\":6917:7148  for(uint i = 0; i < nftCount; i++) {... */\n      jump(tag_319)\n    tag_320:\n      pop\n        /* \"contracts/GeekNftMarketPlace.sol\":7165:7168  nft */\n      dup3\n        /* \"contracts/GeekNftMarketPlace.sol\":7170:7175  index */\n      dup3\n        /* \"contracts/GeekNftMarketPlace.sol\":7157:7176  return (nft, index) */\n      swap5\n      pop\n      swap5\n      pop\n      pop\n      pop\n      pop\n        /* \"contracts/GeekNftMarketPlace.sol\":6718:7183  function getNFT(address _nftContract, uint _tokenId) private view returns (NFT memory, int) {... */\n      swap3\n      pop\n      swap3\n      swap1\n      pop\n      jump\t// out\n        /* \"contracts/Counters.sol\":1074:1303  function decrement(Counter storage counter) internal {... */\n    tag_96:\n        /* \"contracts/Counters.sol\":1137:1150  uint256 value */\n      0x00\n        /* \"contracts/Counters.sol\":1153:1160  counter */\n      dup2\n        /* \"contracts/Counters.sol\":1153:1167  counter._value */\n      0x00\n      add\n      sload\n        /* \"contracts/Counters.sol\":1137:1167  uint256 value = counter._value */\n      swap1\n      pop\n        /* \"contracts/Counters.sol\":1193:1194  0 */\n      0x00\n        /* \"contracts/Counters.sol\":1185:1190  value */\n      dup2\n        /* \"contracts/Counters.sol\":1185:1194  value > 0 */\n      gt\n        /* \"contracts/Counters.sol\":1177:1226  require(value > 0, \"Counter: decrement overflow\") */\n      tag_335\n      jumpi\n      mload(0x40)\n      0x08c379a000000000000000000000000000000000000000000000000000000000\n      dup2\n      mstore\n      0x04\n      add\n      tag_336\n      swap1\n      tag_337\n      jump\t// in\n    tag_336:\n      mload(0x40)\n      dup1\n      swap2\n      sub\n      swap1\n      revert\n    tag_335:\n        /* \"contracts/Counters.sol\":1285:1286  1 */\n      0x01\n        /* \"contracts/Counters.sol\":1277:1282  value */\n      dup2\n        /* \"contracts/Counters.sol\":1277:1286  value - 1 */\n      sub\n        /* \"contracts/Counters.sol\":1260:1267  counter */\n      dup3\n        /* \"contracts/Counters.sol\":1260:1274  counter._value */\n      0x00\n      add\n        /* \"contracts/Counters.sol\":1260:1286  counter._value = value - 1 */\n      dup2\n      swap1\n      sstore\n      pop\n        /* \"contracts/Counters.sol\":1127:1303  {... */\n      pop\n        /* \"contracts/Counters.sol\":1074:1303  function decrement(Counter storage counter) internal {... */\n      pop\n      jump\t// out\n        /* \"contracts/Counters.sol\":827:939  function current(Counter storage counter) internal view returns (uint256) {... */\n    tag_101:\n        /* \"contracts/Counters.sol\":892:899  uint256 */\n      0x00\n        /* \"contracts/Counters.sol\":918:925  counter */\n      dup2\n        /* \"contracts/Counters.sol\":918:932  counter._value */\n      0x00\n      add\n      sload\n        /* \"contracts/Counters.sol\":911:932  return counter._value */\n      swap1\n      pop\n        /* \"contracts/Counters.sol\":827:939  function current(Counter storage counter) internal view returns (uint256) {... */\n      swap2\n      swap1\n      pop\n      jump\t// out\n        /* \"contracts/Counters.sol\":945:1068  function increment(Counter storage counter) internal {... */\n    tag_173:\n        /* \"contracts/Counters.sol\":1050:1051  1 */\n      0x01\n        /* \"contracts/Counters.sol\":1032:1039  counter */\n      dup2\n        /* \"contracts/Counters.sol\":1032:1046  counter._value */\n      0x00\n      add\n      0x00\n        /* \"contracts/Counters.sol\":1032:1051  counter._value += 1 */\n      dup3\n      dup3\n      sload\n      add\n      swap3\n      pop\n      pop\n      dup2\n      swap1\n      sstore\n      pop\n        /* \"contracts/Counters.sol\":945:1068  function increment(Counter storage counter) internal {... */\n      pop\n      jump\t// out\n    tag_122:\n      mload(0x40)\n      dup1\n      0xe0\n      add\n      0x40\n      mstore\n      dup1\n      and(0xffffffffffffffffffffffffffffffffffffffff, 0x00)\n      dup2\n      mstore\n      0x20\n      add\n      0x00\n      dup2\n      mstore\n      0x20\n      add\n      0x00\n      dup2\n      mstore\n      0x20\n      add\n      and(0xffffffffffffffffffffffffffffffffffffffff, 0x00)\n      dup2\n      mstore\n      0x20\n      add\n      and(0xffffffffffffffffffffffffffffffffffffffff, 0x00)\n      dup2\n      mstore\n      0x20\n      add\n      and(0xffffffffffffffffffffffffffffffffffffffff, 0x00)\n      dup2\n      mstore\n      0x20\n      add\n      iszero(iszero(0x00))\n      dup2\n      mstore\n      pop\n      swap1\n      jump\t// out\n        /* \"#utility.yul\":7:146   */\n    tag_341:\n        /* \"#utility.yul\":53:58   */\n      0x00\n        /* \"#utility.yul\":91:97   */\n      dup2\n        /* \"#utility.yul\":78:98   */\n      calldataload\n        /* \"#utility.yul\":69:98   */\n      swap1\n      pop\n        /* \"#utility.yul\":107:140   */\n      tag_343\n        /* \"#utility.yul\":134:139   */\n      dup2\n        /* \"#utility.yul\":107:140   */\n      tag_344\n      jump\t// in\n    tag_343:\n        /* \"#utility.yul\":7:146   */\n      swap3\n      swap2\n      pop\n      pop\n      jump\t// out\n        /* \"#utility.yul\":152:295   */\n    tag_345:\n        /* \"#utility.yul\":209:214   */\n      0x00\n        /* \"#utility.yul\":240:246   */\n      dup2\n        /* \"#utility.yul\":234:247   */\n      mload\n        /* \"#utility.yul\":225:247   */\n      swap1\n      pop\n        /* \"#utility.yul\":256:289   */\n      tag_347\n        /* \"#utility.yul\":283:288   */\n      dup2\n        /* \"#utility.yul\":256:289   */\n      tag_344\n      jump\t// in\n    tag_347:\n        /* \"#utility.yul\":152:295   */\n      swap3\n      swap2\n      pop\n      pop\n      jump\t// out\n        /* \"#utility.yul\":301:440   */\n    tag_348:\n        /* \"#utility.yul\":347:352   */\n      0x00\n        /* \"#utility.yul\":385:391   */\n      dup2\n        /* \"#utility.yul\":372:392   */\n      calldataload\n        /* \"#utility.yul\":363:392   */\n      swap1\n      pop\n        /* \"#utility.yul\":401:434   */\n      tag_350\n        /* \"#utility.yul\":428:433   */\n      dup2\n        /* \"#utility.yul\":401:434   */\n      tag_351\n      jump\t// in\n    tag_350:\n        /* \"#utility.yul\":301:440   */\n      swap3\n      swap2\n      pop\n      pop\n      jump\t// out\n        /* \"#utility.yul\":446:797   */\n    tag_147:\n        /* \"#utility.yul\":516:522   */\n      0x00\n        /* \"#utility.yul\":565:567   */\n      0x20\n        /* \"#utility.yul\":553:562   */\n      dup3\n        /* \"#utility.yul\":544:551   */\n      dup5\n        /* \"#utility.yul\":540:563   */\n      sub\n        /* \"#utility.yul\":536:568   */\n      slt\n        /* \"#utility.yul\":533:652   */\n      iszero\n      tag_353\n      jumpi\n        /* \"#utility.yul\":571:650   */\n      tag_354\n      tag_355\n      jump\t// in\n    tag_354:\n        /* \"#utility.yul\":533:652   */\n    tag_353:\n        /* \"#utility.yul\":691:692   */\n      0x00\n        /* \"#utility.yul\":716:780   */\n      tag_356\n        /* \"#utility.yul\":772:779   */\n      dup5\n        /* \"#utility.yul\":763:769   */\n      dup3\n        /* \"#utility.yul\":752:761   */\n      dup6\n        /* \"#utility.yul\":748:770   */\n      add\n        /* \"#utility.yul\":716:780   */\n      tag_345\n      jump\t// in\n    tag_356:\n        /* \"#utility.yul\":706:780   */\n      swap2\n      pop\n        /* \"#utility.yul\":662:790   */\n      pop\n        /* \"#utility.yul\":446:797   */\n      swap3\n      swap2\n      pop\n      pop\n      jump\t// out\n        /* \"#utility.yul\":803:1277   */\n    tag_31:\n        /* \"#utility.yul\":871:877   */\n      0x00\n        /* \"#utility.yul\":879:885   */\n      dup1\n        /* \"#utility.yul\":928:930   */\n      0x40\n        /* \"#utility.yul\":916:925   */\n      dup4\n        /* \"#utility.yul\":907:914   */\n      dup6\n        /* \"#utility.yul\":903:926   */\n      sub\n        /* \"#utility.yul\":899:931   */\n      slt\n        /* \"#utility.yul\":896:1015   */\n      iszero\n      tag_358\n      jumpi\n        /* \"#utility.yul\":934:1013   */\n      tag_359\n      tag_355\n      jump\t// in\n    tag_359:\n        /* \"#utility.yul\":896:1015   */\n    tag_358:\n        /* \"#utility.yul\":1054:1055   */\n      0x00\n        /* \"#utility.yul\":1079:1132   */\n      tag_360\n        /* \"#utility.yul\":1124:1131   */\n      dup6\n        /* \"#utility.yul\":1115:1121   */\n      dup3\n        /* \"#utility.yul\":1104:1113   */\n      dup7\n        /* \"#utility.yul\":1100:1122   */\n      add\n        /* \"#utility.yul\":1079:1132   */\n      tag_341\n      jump\t// in\n    tag_360:\n        /* \"#utility.yul\":1069:1132   */\n      swap3\n      pop\n        /* \"#utility.yul\":1025:1142   */\n      pop\n        /* \"#utility.yul\":1181:1183   */\n      0x20\n        /* \"#utility.yul\":1207:1260   */\n      tag_361\n        /* \"#utility.yul\":1252:1259   */\n      dup6\n        /* \"#utility.yul\":1243:1249   */\n      dup3\n        /* \"#utility.yul\":1232:1241   */\n      dup7\n        /* \"#utility.yul\":1228:1250   */\n      add\n        /* \"#utility.yul\":1207:1260   */\n      tag_348\n      jump\t// in\n    tag_361:\n        /* \"#utility.yul\":1197:1260   */\n      swap2\n      pop\n        /* \"#utility.yul\":1152:1270   */\n      pop\n        /* \"#utility.yul\":803:1277   */\n      swap3\n      pop\n      swap3\n      swap1\n      pop\n      jump\t// out\n        /* \"#utility.yul\":1283:1902   */\n    tag_16:\n        /* \"#utility.yul\":1360:1366   */\n      0x00\n        /* \"#utility.yul\":1368:1374   */\n      dup1\n        /* \"#utility.yul\":1376:1382   */\n      0x00\n        /* \"#utility.yul\":1425:1427   */\n      0x60\n        /* \"#utility.yul\":1413:1422   */\n      dup5\n        /* \"#utility.yul\":1404:1411   */\n      dup7\n        /* \"#utility.yul\":1400:1423   */\n      sub\n        /* \"#utility.yul\":1396:1428   */\n      slt\n        /* \"#utility.yul\":1393:1512   */\n      iszero\n      tag_363\n      jumpi\n        /* \"#utility.yul\":1431:1510   */\n      tag_364\n      tag_355\n      jump\t// in\n    tag_364:\n        /* \"#utility.yul\":1393:1512   */\n    tag_363:\n        /* \"#utility.yul\":1551:1552   */\n      0x00\n        /* \"#utility.yul\":1576:1629   */\n      tag_365\n        /* \"#utility.yul\":1621:1628   */\n      dup7\n        /* \"#utility.yul\":1612:1618   */\n      dup3\n        /* \"#utility.yul\":1601:1610   */\n      dup8\n        /* \"#utility.yul\":1597:1619   */\n      add\n        /* \"#utility.yul\":1576:1629   */\n      tag_341\n      jump\t// in\n    tag_365:\n        /* \"#utility.yul\":1566:1629   */\n      swap4\n      pop\n        /* \"#utility.yul\":1522:1639   */\n      pop\n        /* \"#utility.yul\":1678:1680   */\n      0x20\n        /* \"#utility.yul\":1704:1757   */\n      tag_366\n        /* \"#utility.yul\":1749:1756   */\n      dup7\n        /* \"#utility.yul\":1740:1746   */\n      dup3\n        /* \"#utility.yul\":1729:1738   */\n      dup8\n        /* \"#utility.yul\":1725:1747   */\n      add\n        /* \"#utility.yul\":1704:1757   */\n      tag_348\n      jump\t// in\n    tag_366:\n        /* \"#utility.yul\":1694:1757   */\n      swap3\n      pop\n        /* \"#utility.yul\":1649:1767   */\n      pop\n        /* \"#utility.yul\":1806:1808   */\n      0x40\n        /* \"#utility.yul\":1832:1885   */\n      tag_367\n        /* \"#utility.yul\":1877:1884   */\n      dup7\n        /* \"#utility.yul\":1868:1874   */\n      dup3\n        /* \"#utility.yul\":1857:1866   */\n      dup8\n        /* \"#utility.yul\":1853:1875   */\n      add\n        /* \"#utility.yul\":1832:1885   */\n      tag_348\n      jump\t// in\n    tag_367:\n        /* \"#utility.yul\":1822:1885   */\n      swap2\n      pop\n        /* \"#utility.yul\":1777:1895   */\n      pop\n        /* \"#utility.yul\":1283:1902   */\n      swap3\n      pop\n      swap3\n      pop\n      swap3\n      jump\t// out\n        /* \"#utility.yul\":1908:2167   */\n    tag_368:\n        /* \"#utility.yul\":2017:2027   */\n      0x00\n        /* \"#utility.yul\":2038:2124   */\n      tag_370\n        /* \"#utility.yul\":2120:2123   */\n      dup4\n        /* \"#utility.yul\":2112:2118   */\n      dup4\n        /* \"#utility.yul\":2038:2124   */\n      tag_371\n      jump\t// in\n    tag_370:\n        /* \"#utility.yul\":2156:2160   */\n      0xe0\n        /* \"#utility.yul\":2151:2154   */\n      dup4\n        /* \"#utility.yul\":2147:2161   */\n      add\n        /* \"#utility.yul\":2133:2161   */\n      swap1\n      pop\n        /* \"#utility.yul\":1908:2167   */\n      swap3\n      swap2\n      pop\n      pop\n      jump\t// out\n        /* \"#utility.yul\":2173:2320   */\n    tag_372:\n        /* \"#utility.yul\":2268:2313   */\n      tag_374\n        /* \"#utility.yul\":2307:2312   */\n      dup2\n        /* \"#utility.yul\":2268:2313   */\n      tag_375\n      jump\t// in\n    tag_374:\n        /* \"#utility.yul\":2263:2266   */\n      dup3\n        /* \"#utility.yul\":2256:2314   */\n      mstore\n        /* \"#utility.yul\":2173:2320   */\n      pop\n      pop\n      jump\t// out\n        /* \"#utility.yul\":2326:2458   */\n    tag_376:\n        /* \"#utility.yul\":2419:2451   */\n      tag_378\n        /* \"#utility.yul\":2445:2450   */\n      dup2\n        /* \"#utility.yul\":2419:2451   */\n      tag_379\n      jump\t// in\n    tag_378:\n        /* \"#utility.yul\":2414:2417   */\n      dup3\n        /* \"#utility.yul\":2407:2452   */\n      mstore\n        /* \"#utility.yul\":2326:2458   */\n      pop\n      pop\n      jump\t// out\n        /* \"#utility.yul\":2464:2572   */\n    tag_380:\n        /* \"#utility.yul\":2541:2565   */\n      tag_382\n        /* \"#utility.yul\":2559:2564   */\n      dup2\n        /* \"#utility.yul\":2541:2565   */\n      tag_383\n      jump\t// in\n    tag_382:\n        /* \"#utility.yul\":2536:2539   */\n      dup3\n        /* \"#utility.yul\":2529:2566   */\n      mstore\n        /* \"#utility.yul\":2464:2572   */\n      pop\n      pop\n      jump\t// out\n        /* \"#utility.yul\":2578:2696   */\n    tag_384:\n        /* \"#utility.yul\":2665:2689   */\n      tag_386\n        /* \"#utility.yul\":2683:2688   */\n      dup2\n        /* \"#utility.yul\":2665:2689   */\n      tag_383\n      jump\t// in\n    tag_386:\n        /* \"#utility.yul\":2660:2663   */\n      dup3\n        /* \"#utility.yul\":2653:2690   */\n      mstore\n        /* \"#utility.yul\":2578:2696   */\n      pop\n      pop\n      jump\t// out\n        /* \"#utility.yul\":2776:3668   */\n    tag_387:\n        /* \"#utility.yul\":2935:2938   */\n      0x00\n        /* \"#utility.yul\":2964:3038   */\n      tag_389\n        /* \"#utility.yul\":3032:3037   */\n      dup3\n        /* \"#utility.yul\":2964:3038   */\n      tag_390\n      jump\t// in\n    tag_389:\n        /* \"#utility.yul\":3054:3160   */\n      tag_391\n        /* \"#utility.yul\":3153:3159   */\n      dup2\n        /* \"#utility.yul\":3148:3151   */\n      dup6\n        /* \"#utility.yul\":3054:3160   */\n      tag_392\n      jump\t// in\n    tag_391:\n        /* \"#utility.yul\":3047:3160   */\n      swap4\n      pop\n        /* \"#utility.yul\":3184:3260   */\n      tag_393\n        /* \"#utility.yul\":3254:3259   */\n      dup4\n        /* \"#utility.yul\":3184:3260   */\n      tag_394\n      jump\t// in\n    tag_393:\n        /* \"#utility.yul\":3283:3290   */\n      dup1\n        /* \"#utility.yul\":3314:3315   */\n      0x00\n        /* \"#utility.yul\":3299:3643   */\n    tag_395:\n        /* \"#utility.yul\":3324:3330   */\n      dup4\n        /* \"#utility.yul\":3321:3322   */\n      dup2\n        /* \"#utility.yul\":3318:3331   */\n      lt\n        /* \"#utility.yul\":3299:3643   */\n      iszero\n      tag_397\n      jumpi\n        /* \"#utility.yul\":3400:3406   */\n      dup2\n        /* \"#utility.yul\":3394:3407   */\n      mload\n        /* \"#utility.yul\":3427:3530   */\n      tag_398\n        /* \"#utility.yul\":3526:3529   */\n      dup9\n        /* \"#utility.yul\":3511:3524   */\n      dup3\n        /* \"#utility.yul\":3427:3530   */\n      tag_368\n      jump\t// in\n    tag_398:\n        /* \"#utility.yul\":3420:3530   */\n      swap8\n      pop\n        /* \"#utility.yul\":3553:3633   */\n      tag_399\n        /* \"#utility.yul\":3626:3632   */\n      dup4\n        /* \"#utility.yul\":3553:3633   */\n      tag_400\n      jump\t// in\n    tag_399:\n        /* \"#utility.yul\":3543:3633   */\n      swap3\n      pop\n        /* \"#utility.yul\":3359:3643   */\n      pop\n        /* \"#utility.yul\":3346:3347   */\n      0x01\n        /* \"#utility.yul\":3343:3344   */\n      dup2\n        /* \"#utility.yul\":3339:3348   */\n      add\n        /* \"#utility.yul\":3334:3348   */\n      swap1\n      pop\n        /* \"#utility.yul\":3299:3643   */\n      jump(tag_395)\n    tag_397:\n        /* \"#utility.yul\":3303:3317   */\n      pop\n        /* \"#utility.yul\":3659:3662   */\n      dup6\n        /* \"#utility.yul\":3652:3662   */\n      swap4\n      pop\n        /* \"#utility.yul\":2940:3668   */\n      pop\n      pop\n      pop\n        /* \"#utility.yul\":2776:3668   */\n      swap3\n      swap2\n      pop\n      pop\n      jump\t// out\n        /* \"#utility.yul\":3674:3773   */\n    tag_401:\n        /* \"#utility.yul\":3745:3766   */\n      tag_403\n        /* \"#utility.yul\":3760:3765   */\n      dup2\n        /* \"#utility.yul\":3745:3766   */\n      tag_404\n      jump\t// in\n    tag_403:\n        /* \"#utility.yul\":3740:3743   */\n      dup3\n        /* \"#utility.yul\":3733:3767   */\n      mstore\n        /* \"#utility.yul\":3674:3773   */\n      pop\n      pop\n      jump\t// out\n        /* \"#utility.yul\":3779:4145   */\n    tag_405:\n        /* \"#utility.yul\":3921:3924   */\n      0x00\n        /* \"#utility.yul\":3942:4009   */\n      tag_407\n        /* \"#utility.yul\":4006:4008   */\n      0x1b\n        /* \"#utility.yul\":4001:4004   */\n      dup4\n        /* \"#utility.yul\":3942:4009   */\n      tag_408\n      jump\t// in\n    tag_407:\n        /* \"#utility.yul\":3935:4009   */\n      swap2\n      pop\n        /* \"#utility.yul\":4018:4111   */\n      tag_409\n        /* \"#utility.yul\":4107:4110   */\n      dup3\n        /* \"#utility.yul\":4018:4111   */\n      tag_410\n      jump\t// in\n    tag_409:\n        /* \"#utility.yul\":4136:4138   */\n      0x20\n        /* \"#utility.yul\":4131:4134   */\n      dup3\n        /* \"#utility.yul\":4127:4139   */\n      add\n        /* \"#utility.yul\":4120:4139   */\n      swap1\n      pop\n        /* \"#utility.yul\":3779:4145   */\n      swap2\n      swap1\n      pop\n      jump\t// out\n        /* \"#utility.yul\":4151:4517   */\n    tag_411:\n        /* \"#utility.yul\":4293:4296   */\n      0x00\n        /* \"#utility.yul\":4314:4381   */\n      tag_413\n        /* \"#utility.yul\":4378:4380   */\n      0x26\n        /* \"#utility.yul\":4373:4376   */\n      dup4\n        /* \"#utility.yul\":4314:4381   */\n      tag_408\n      jump\t// in\n    tag_413:\n        /* \"#utility.yul\":4307:4381   */\n      swap2\n      pop\n        /* \"#utility.yul\":4390:4483   */\n      tag_414\n        /* \"#utility.yul\":4479:4482   */\n      dup3\n        /* \"#utility.yul\":4390:4483   */\n      tag_415\n      jump\t// in\n    tag_414:\n        /* \"#utility.yul\":4508:4510   */\n      0x40\n        /* \"#utility.yul\":4503:4506   */\n      dup3\n        /* \"#utility.yul\":4499:4511   */\n      add\n        /* \"#utility.yul\":4492:4511   */\n      swap1\n      pop\n        /* \"#utility.yul\":4151:4517   */\n      swap2\n      swap1\n      pop\n      jump\t// out\n        /* \"#utility.yul\":4523:4889   */\n    tag_416:\n        /* \"#utility.yul\":4665:4668   */\n      0x00\n        /* \"#utility.yul\":4686:4753   */\n      tag_418\n        /* \"#utility.yul\":4750:4752   */\n      0x0d\n        /* \"#utility.yul\":4745:4748   */\n      dup4\n        /* \"#utility.yul\":4686:4753   */\n      tag_408\n      jump\t// in\n    tag_418:\n        /* \"#utility.yul\":4679:4753   */\n      swap2\n      pop\n        /* \"#utility.yul\":4762:4855   */\n      tag_419\n        /* \"#utility.yul\":4851:4854   */\n      dup3\n        /* \"#utility.yul\":4762:4855   */\n      tag_420\n      jump\t// in\n    tag_419:\n        /* \"#utility.yul\":4880:4882   */\n      0x20\n        /* \"#utility.yul\":4875:4878   */\n      dup3\n        /* \"#utility.yul\":4871:4883   */\n      add\n        /* \"#utility.yul\":4864:4883   */\n      swap1\n      pop\n        /* \"#utility.yul\":4523:4889   */\n      swap2\n      swap1\n      pop\n      jump\t// out\n        /* \"#utility.yul\":4895:5261   */\n    tag_421:\n        /* \"#utility.yul\":5037:5040   */\n      0x00\n        /* \"#utility.yul\":5058:5125   */\n      tag_423\n        /* \"#utility.yul\":5122:5124   */\n      0x20\n        /* \"#utility.yul\":5117:5120   */\n      dup4\n        /* \"#utility.yul\":5058:5125   */\n      tag_408\n      jump\t// in\n    tag_423:\n        /* \"#utility.yul\":5051:5125   */\n      swap2\n      pop\n        /* \"#utility.yul\":5134:5227   */\n      tag_424\n        /* \"#utility.yul\":5223:5226   */\n      dup3\n        /* \"#utility.yul\":5134:5227   */\n      tag_425\n      jump\t// in\n    tag_424:\n        /* \"#utility.yul\":5252:5254   */\n      0x20\n        /* \"#utility.yul\":5247:5250   */\n      dup3\n        /* \"#utility.yul\":5243:5255   */\n      add\n        /* \"#utility.yul\":5236:5255   */\n      swap1\n      pop\n        /* \"#utility.yul\":4895:5261   */\n      swap2\n      swap1\n      pop\n      jump\t// out\n        /* \"#utility.yul\":5267:5633   */\n    tag_426:\n        /* \"#utility.yul\":5409:5412   */\n      0x00\n        /* \"#utility.yul\":5430:5497   */\n      tag_428\n        /* \"#utility.yul\":5494:5496   */\n      0x1f\n        /* \"#utility.yul\":5489:5492   */\n      dup4\n        /* \"#utility.yul\":5430:5497   */\n      tag_408\n      jump\t// in\n    tag_428:\n        /* \"#utility.yul\":5423:5497   */\n      swap2\n      pop\n        /* \"#utility.yul\":5506:5599   */\n      tag_429\n        /* \"#utility.yul\":5595:5598   */\n      dup3\n        /* \"#utility.yul\":5506:5599   */\n      tag_430\n      jump\t// in\n    tag_429:\n        /* \"#utility.yul\":5624:5626   */\n      0x20\n        /* \"#utility.yul\":5619:5622   */\n      dup3\n        /* \"#utility.yul\":5615:5627   */\n      add\n        /* \"#utility.yul\":5608:5627   */\n      swap1\n      pop\n        /* \"#utility.yul\":5267:5633   */\n      swap2\n      swap1\n      pop\n      jump\t// out\n        /* \"#utility.yul\":5639:6005   */\n    tag_431:\n        /* \"#utility.yul\":5781:5784   */\n      0x00\n        /* \"#utility.yul\":5802:5869   */\n      tag_433\n        /* \"#utility.yul\":5866:5868   */\n      0x1c\n        /* \"#utility.yul\":5861:5864   */\n      dup4\n        /* \"#utility.yul\":5802:5869   */\n      tag_408\n      jump\t// in\n    tag_433:\n        /* \"#utility.yul\":5795:5869   */\n      swap2\n      pop\n        /* \"#utility.yul\":5878:5971   */\n      tag_434\n        /* \"#utility.yul\":5967:5970   */\n      dup3\n        /* \"#utility.yul\":5878:5971   */\n      tag_435\n      jump\t// in\n    tag_434:\n        /* \"#utility.yul\":5996:5998   */\n      0x20\n        /* \"#utility.yul\":5991:5994   */\n      dup3\n        /* \"#utility.yul\":5987:5999   */\n      add\n        /* \"#utility.yul\":5980:5999   */\n      swap1\n      pop\n        /* \"#utility.yul\":5639:6005   */\n      swap2\n      swap1\n      pop\n      jump\t// out\n        /* \"#utility.yul\":6081:7499   */\n    tag_371:\n        /* \"#utility.yul\":6208:6212   */\n      0xe0\n        /* \"#utility.yul\":6203:6206   */\n      dup3\n        /* \"#utility.yul\":6199:6213   */\n      add\n        /* \"#utility.yul\":6302:6306   */\n      0x00\n        /* \"#utility.yul\":6295:6300   */\n      dup3\n        /* \"#utility.yul\":6291:6307   */\n      add\n        /* \"#utility.yul\":6285:6308   */\n      mload\n        /* \"#utility.yul\":6321:6384   */\n      tag_437\n        /* \"#utility.yul\":6378:6382   */\n      0x00\n        /* \"#utility.yul\":6373:6376   */\n      dup6\n        /* \"#utility.yul\":6369:6383   */\n      add\n        /* \"#utility.yul\":6355:6367   */\n      dup3\n        /* \"#utility.yul\":6321:6384   */\n      tag_380\n      jump\t// in\n    tag_437:\n        /* \"#utility.yul\":6223:6394   */\n      pop\n        /* \"#utility.yul\":6479:6483   */\n      0x20\n        /* \"#utility.yul\":6472:6477   */\n      dup3\n        /* \"#utility.yul\":6468:6484   */\n      add\n        /* \"#utility.yul\":6462:6485   */\n      mload\n        /* \"#utility.yul\":6498:6561   */\n      tag_438\n        /* \"#utility.yul\":6555:6559   */\n      0x20\n        /* \"#utility.yul\":6550:6553   */\n      dup6\n        /* \"#utility.yul\":6546:6560   */\n      add\n        /* \"#utility.yul\":6532:6544   */\n      dup3\n        /* \"#utility.yul\":6498:6561   */\n      tag_439\n      jump\t// in\n    tag_438:\n        /* \"#utility.yul\":6404:6571   */\n      pop\n        /* \"#utility.yul\":6654:6658   */\n      0x40\n        /* \"#utility.yul\":6647:6652   */\n      dup3\n        /* \"#utility.yul\":6643:6659   */\n      add\n        /* \"#utility.yul\":6637:6660   */\n      mload\n        /* \"#utility.yul\":6673:6736   */\n      tag_440\n        /* \"#utility.yul\":6730:6734   */\n      0x40\n        /* \"#utility.yul\":6725:6728   */\n      dup6\n        /* \"#utility.yul\":6721:6735   */\n      add\n        /* \"#utility.yul\":6707:6719   */\n      dup3\n        /* \"#utility.yul\":6673:6736   */\n      tag_439\n      jump\t// in\n    tag_440:\n        /* \"#utility.yul\":6581:6746   */\n      pop\n        /* \"#utility.yul\":6830:6834   */\n      0x60\n        /* \"#utility.yul\":6823:6828   */\n      dup3\n        /* \"#utility.yul\":6819:6835   */\n      add\n        /* \"#utility.yul\":6813:6836   */\n      mload\n        /* \"#utility.yul\":6849:6928   */\n      tag_441\n        /* \"#utility.yul\":6922:6926   */\n      0x60\n        /* \"#utility.yul\":6917:6920   */\n      dup6\n        /* \"#utility.yul\":6913:6927   */\n      add\n        /* \"#utility.yul\":6899:6911   */\n      dup3\n        /* \"#utility.yul\":6849:6928   */\n      tag_376\n      jump\t// in\n    tag_441:\n        /* \"#utility.yul\":6756:6938   */\n      pop\n        /* \"#utility.yul\":7021:7025   */\n      0x80\n        /* \"#utility.yul\":7014:7019   */\n      dup3\n        /* \"#utility.yul\":7010:7026   */\n      add\n        /* \"#utility.yul\":7004:7027   */\n      mload\n        /* \"#utility.yul\":7040:7119   */\n      tag_442\n        /* \"#utility.yul\":7113:7117   */\n      0x80\n        /* \"#utility.yul\":7108:7111   */\n      dup6\n        /* \"#utility.yul\":7104:7118   */\n      add\n        /* \"#utility.yul\":7090:7102   */\n      dup3\n        /* \"#utility.yul\":7040:7119   */\n      tag_376\n      jump\t// in\n    tag_442:\n        /* \"#utility.yul\":6948:7129   */\n      pop\n        /* \"#utility.yul\":7214:7218   */\n      0xa0\n        /* \"#utility.yul\":7207:7212   */\n      dup3\n        /* \"#utility.yul\":7203:7219   */\n      add\n        /* \"#utility.yul\":7197:7220   */\n      mload\n        /* \"#utility.yul\":7233:7312   */\n      tag_443\n        /* \"#utility.yul\":7306:7310   */\n      0xa0\n        /* \"#utility.yul\":7301:7304   */\n      dup6\n        /* \"#utility.yul\":7297:7311   */\n      add\n        /* \"#utility.yul\":7283:7295   */\n      dup3\n        /* \"#utility.yul\":7233:7312   */\n      tag_376\n      jump\t// in\n    tag_443:\n        /* \"#utility.yul\":7139:7322   */\n      pop\n        /* \"#utility.yul\":7406:7410   */\n      0xc0\n        /* \"#utility.yul\":7399:7404   */\n      dup3\n        /* \"#utility.yul\":7395:7411   */\n      add\n        /* \"#utility.yul\":7389:7412   */\n      mload\n        /* \"#utility.yul\":7425:7482   */\n      tag_444\n        /* \"#utility.yul\":7476:7480   */\n      0xc0\n        /* \"#utility.yul\":7471:7474   */\n      dup6\n        /* \"#utility.yul\":7467:7481   */\n      add\n        /* \"#utility.yul\":7453:7465   */\n      dup3\n        /* \"#utility.yul\":7425:7482   */\n      tag_401\n      jump\t// in\n    tag_444:\n        /* \"#utility.yul\":7332:7492   */\n      pop\n        /* \"#utility.yul\":6177:7499   */\n      pop\n        /* \"#utility.yul\":6081:7499   */\n      pop\n      pop\n      jump\t// out\n        /* \"#utility.yul\":7505:7613   */\n    tag_439:\n        /* \"#utility.yul\":7582:7606   */\n      tag_446\n        /* \"#utility.yul\":7600:7605   */\n      dup2\n        /* \"#utility.yul\":7582:7606   */\n      tag_447\n      jump\t// in\n    tag_446:\n        /* \"#utility.yul\":7577:7580   */\n      dup3\n        /* \"#utility.yul\":7570:7607   */\n      mstore\n        /* \"#utility.yul\":7505:7613   */\n      pop\n      pop\n      jump\t// out\n        /* \"#utility.yul\":7619:7737   */\n    tag_448:\n        /* \"#utility.yul\":7706:7730   */\n      tag_450\n        /* \"#utility.yul\":7724:7729   */\n      dup2\n        /* \"#utility.yul\":7706:7730   */\n      tag_447\n      jump\t// in\n    tag_450:\n        /* \"#utility.yul\":7701:7704   */\n      dup3\n        /* \"#utility.yul\":7694:7731   */\n      mstore\n        /* \"#utility.yul\":7619:7737   */\n      pop\n      pop\n      jump\t// out\n        /* \"#utility.yul\":7743:7965   */\n    tag_34:\n        /* \"#utility.yul\":7836:7840   */\n      0x00\n        /* \"#utility.yul\":7874:7876   */\n      0x20\n        /* \"#utility.yul\":7863:7872   */\n      dup3\n        /* \"#utility.yul\":7859:7877   */\n      add\n        /* \"#utility.yul\":7851:7877   */\n      swap1\n      pop\n        /* \"#utility.yul\":7887:7958   */\n      tag_452\n        /* \"#utility.yul\":7955:7956   */\n      0x00\n        /* \"#utility.yul\":7944:7953   */\n      dup4\n        /* \"#utility.yul\":7940:7957   */\n      add\n        /* \"#utility.yul\":7931:7937   */\n      dup5\n        /* \"#utility.yul\":7887:7958   */\n      tag_384\n      jump\t// in\n    tag_452:\n        /* \"#utility.yul\":7743:7965   */\n      swap3\n      swap2\n      pop\n      pop\n      jump\t// out\n        /* \"#utility.yul\":7971:8429   */\n    tag_162:\n        /* \"#utility.yul\":8128:8132   */\n      0x00\n        /* \"#utility.yul\":8166:8168   */\n      0x60\n        /* \"#utility.yul\":8155:8164   */\n      dup3\n        /* \"#utility.yul\":8151:8169   */\n      add\n        /* \"#utility.yul\":8143:8169   */\n      swap1\n      pop\n        /* \"#utility.yul\":8179:8250   */\n      tag_454\n        /* \"#utility.yul\":8247:8248   */\n      0x00\n        /* \"#utility.yul\":8236:8245   */\n      dup4\n        /* \"#utility.yul\":8232:8249   */\n      add\n        /* \"#utility.yul\":8223:8229   */\n      dup7\n        /* \"#utility.yul\":8179:8250   */\n      tag_384\n      jump\t// in\n    tag_454:\n        /* \"#utility.yul\":8260:8340   */\n      tag_455\n        /* \"#utility.yul\":8336:8338   */\n      0x20\n        /* \"#utility.yul\":8325:8334   */\n      dup4\n        /* \"#utility.yul\":8321:8339   */\n      add\n        /* \"#utility.yul\":8312:8318   */\n      dup6\n        /* \"#utility.yul\":8260:8340   */\n      tag_372\n      jump\t// in\n    tag_455:\n        /* \"#utility.yul\":8350:8422   */\n      tag_456\n        /* \"#utility.yul\":8418:8420   */\n      0x40\n        /* \"#utility.yul\":8407:8416   */\n      dup4\n        /* \"#utility.yul\":8403:8421   */\n      add\n        /* \"#utility.yul\":8394:8400   */\n      dup5\n        /* \"#utility.yul\":8350:8422   */\n      tag_448\n      jump\t// in\n    tag_456:\n        /* \"#utility.yul\":7971:8429   */\n      swap5\n      swap4\n      pop\n      pop\n      pop\n      pop\n      jump\t// out\n        /* \"#utility.yul\":8435:8877   */\n    tag_78:\n        /* \"#utility.yul\":8584:8588   */\n      0x00\n        /* \"#utility.yul\":8622:8624   */\n      0x60\n        /* \"#utility.yul\":8611:8620   */\n      dup3\n        /* \"#utility.yul\":8607:8625   */\n      add\n        /* \"#utility.yul\":8599:8625   */\n      swap1\n      pop\n        /* \"#utility.yul\":8635:8706   */\n      tag_458\n        /* \"#utility.yul\":8703:8704   */\n      0x00\n        /* \"#utility.yul\":8692:8701   */\n      dup4\n        /* \"#utility.yul\":8688:8705   */\n      add\n        /* \"#utility.yul\":8679:8685   */\n      dup7\n        /* \"#utility.yul\":8635:8706   */\n      tag_384\n      jump\t// in\n    tag_458:\n        /* \"#utility.yul\":8716:8788   */\n      tag_459\n        /* \"#utility.yul\":8784:8786   */\n      0x20\n        /* \"#utility.yul\":8773:8782   */\n      dup4\n        /* \"#utility.yul\":8769:8787   */\n      add\n        /* \"#utility.yul\":8760:8766   */\n      dup6\n        /* \"#utility.yul\":8716:8788   */\n      tag_384\n      jump\t// in\n    tag_459:\n        /* \"#utility.yul\":8798:8870   */\n      tag_460\n        /* \"#utility.yul\":8866:8868   */\n      0x40\n        /* \"#utility.yul\":8855:8864   */\n      dup4\n        /* \"#utility.yul\":8851:8869   */\n      add\n        /* \"#utility.yul\":8842:8848   */\n      dup5\n        /* \"#utility.yul\":8798:8870   */\n      tag_448\n      jump\t// in\n    tag_460:\n        /* \"#utility.yul\":8435:8877   */\n      swap5\n      swap4\n      pop\n      pop\n      pop\n      pop\n      jump\t// out\n        /* \"#utility.yul\":8883:9325   */\n    tag_98:\n        /* \"#utility.yul\":9032:9036   */\n      0x00\n        /* \"#utility.yul\":9070:9072   */\n      0x60\n        /* \"#utility.yul\":9059:9068   */\n      dup3\n        /* \"#utility.yul\":9055:9073   */\n      add\n        /* \"#utility.yul\":9047:9073   */\n      swap1\n      pop\n        /* \"#utility.yul\":9083:9154   */\n      tag_462\n        /* \"#utility.yul\":9151:9152   */\n      0x00\n        /* \"#utility.yul\":9140:9149   */\n      dup4\n        /* \"#utility.yul\":9136:9153   */\n      add\n        /* \"#utility.yul\":9127:9133   */\n      dup7\n        /* \"#utility.yul\":9083:9154   */\n      tag_384\n      jump\t// in\n    tag_462:\n        /* \"#utility.yul\":9164:9236   */\n      tag_463\n        /* \"#utility.yul\":9232:9234   */\n      0x20\n        /* \"#utility.yul\":9221:9230   */\n      dup4\n        /* \"#utility.yul\":9217:9235   */\n      add\n        /* \"#utility.yul\":9208:9214   */\n      dup6\n        /* \"#utility.yul\":9164:9236   */\n      tag_448\n      jump\t// in\n    tag_463:\n        /* \"#utility.yul\":9246:9318   */\n      tag_464\n        /* \"#utility.yul\":9314:9316   */\n      0x40\n        /* \"#utility.yul\":9303:9312   */\n      dup4\n        /* \"#utility.yul\":9299:9317   */\n      add\n        /* \"#utility.yul\":9290:9296   */\n      dup5\n        /* \"#utility.yul\":9246:9318   */\n      tag_448\n      jump\t// in\n    tag_464:\n        /* \"#utility.yul\":8883:9325   */\n      swap5\n      swap4\n      pop\n      pop\n      pop\n      pop\n      jump\t// out\n        /* \"#utility.yul\":9331:9784   */\n    tag_22:\n        /* \"#utility.yul\":9514:9518   */\n      0x00\n        /* \"#utility.yul\":9552:9554   */\n      0x20\n        /* \"#utility.yul\":9541:9550   */\n      dup3\n        /* \"#utility.yul\":9537:9555   */\n      add\n        /* \"#utility.yul\":9529:9555   */\n      swap1\n      pop\n        /* \"#utility.yul\":9601:9610   */\n      dup2\n        /* \"#utility.yul\":9595:9599   */\n      dup2\n        /* \"#utility.yul\":9591:9611   */\n      sub\n        /* \"#utility.yul\":9587:9588   */\n      0x00\n        /* \"#utility.yul\":9576:9585   */\n      dup4\n        /* \"#utility.yul\":9572:9589   */\n      add\n        /* \"#utility.yul\":9565:9612   */\n      mstore\n        /* \"#utility.yul\":9629:9777   */\n      tag_466\n        /* \"#utility.yul\":9772:9776   */\n      dup2\n        /* \"#utility.yul\":9763:9769   */\n      dup5\n        /* \"#utility.yul\":9629:9777   */\n      tag_387\n      jump\t// in\n    tag_466:\n        /* \"#utility.yul\":9621:9777   */\n      swap1\n      pop\n        /* \"#utility.yul\":9331:9784   */\n      swap3\n      swap2\n      pop\n      pop\n      jump\t// out\n        /* \"#utility.yul\":9790:10209   */\n    tag_337:\n        /* \"#utility.yul\":9956:9960   */\n      0x00\n        /* \"#utility.yul\":9994:9996   */\n      0x20\n        /* \"#utility.yul\":9983:9992   */\n      dup3\n        /* \"#utility.yul\":9979:9997   */\n      add\n        /* \"#utility.yul\":9971:9997   */\n      swap1\n      pop\n        /* \"#utility.yul\":10043:10052   */\n      dup2\n        /* \"#utility.yul\":10037:10041   */\n      dup2\n        /* \"#utility.yul\":10033:10053   */\n      sub\n        /* \"#utility.yul\":10029:10030   */\n      0x00\n        /* \"#utility.yul\":10018:10027   */\n      dup4\n        /* \"#utility.yul\":10014:10031   */\n      add\n        /* \"#utility.yul\":10007:10054   */\n      mstore\n        /* \"#utility.yul\":10071:10202   */\n      tag_468\n        /* \"#utility.yul\":10197:10201   */\n      dup2\n        /* \"#utility.yul\":10071:10202   */\n      tag_405\n      jump\t// in\n    tag_468:\n        /* \"#utility.yul\":10063:10202   */\n      swap1\n      pop\n        /* \"#utility.yul\":9790:10209   */\n      swap2\n      swap1\n      pop\n      jump\t// out\n        /* \"#utility.yul\":10215:10634   */\n    tag_158:\n        /* \"#utility.yul\":10381:10385   */\n      0x00\n        /* \"#utility.yul\":10419:10421   */\n      0x20\n        /* \"#utility.yul\":10408:10417   */\n      dup3\n        /* \"#utility.yul\":10404:10422   */\n      add\n        /* \"#utility.yul\":10396:10422   */\n      swap1\n      pop\n        /* \"#utility.yul\":10468:10477   */\n      dup2\n        /* \"#utility.yul\":10462:10466   */\n      dup2\n        /* \"#utility.yul\":10458:10478   */\n      sub\n        /* \"#utility.yul\":10454:10455   */\n      0x00\n        /* \"#utility.yul\":10443:10452   */\n      dup4\n        /* \"#utility.yul\":10439:10456   */\n      add\n        /* \"#utility.yul\":10432:10479   */\n      mstore\n        /* \"#utility.yul\":10496:10627   */\n      tag_470\n        /* \"#utility.yul\":10622:10626   */\n      dup2\n        /* \"#utility.yul\":10496:10627   */\n      tag_411\n      jump\t// in\n    tag_470:\n        /* \"#utility.yul\":10488:10627   */\n      swap1\n      pop\n        /* \"#utility.yul\":10215:10634   */\n      swap2\n      swap1\n      pop\n      jump\t// out\n        /* \"#utility.yul\":10640:11059   */\n    tag_76:\n        /* \"#utility.yul\":10806:10810   */\n      0x00\n        /* \"#utility.yul\":10844:10846   */\n      0x20\n        /* \"#utility.yul\":10833:10842   */\n      dup3\n        /* \"#utility.yul\":10829:10847   */\n      add\n        /* \"#utility.yul\":10821:10847   */\n      swap1\n      pop\n        /* \"#utility.yul\":10893:10902   */\n      dup2\n        /* \"#utility.yul\":10887:10891   */\n      dup2\n        /* \"#utility.yul\":10883:10903   */\n      sub\n        /* \"#utility.yul\":10879:10880   */\n      0x00\n        /* \"#utility.yul\":10868:10877   */\n      dup4\n        /* \"#utility.yul\":10864:10881   */\n      add\n        /* \"#utility.yul\":10857:10904   */\n      mstore\n        /* \"#utility.yul\":10921:11052   */\n      tag_472\n        /* \"#utility.yul\":11047:11051   */\n      dup2\n        /* \"#utility.yul\":10921:11052   */\n      tag_416\n      jump\t// in\n    tag_472:\n        /* \"#utility.yul\":10913:11052   */\n      swap1\n      pop\n        /* \"#utility.yul\":10640:11059   */\n      swap2\n      swap1\n      pop\n      jump\t// out\n        /* \"#utility.yul\":11065:11484   */\n    tag_71:\n        /* \"#utility.yul\":11231:11235   */\n      0x00\n        /* \"#utility.yul\":11269:11271   */\n      0x20\n        /* \"#utility.yul\":11258:11267   */\n      dup3\n        /* \"#utility.yul\":11254:11272   */\n      add\n        /* \"#utility.yul\":11246:11272   */\n      swap1\n      pop\n        /* \"#utility.yul\":11318:11327   */\n      dup2\n        /* \"#utility.yul\":11312:11316   */\n      dup2\n        /* \"#utility.yul\":11308:11328   */\n      sub\n        /* \"#utility.yul\":11304:11305   */\n      0x00\n        /* \"#utility.yul\":11293:11302   */\n      dup4\n        /* \"#utility.yul\":11289:11306   */\n      add\n        /* \"#utility.yul\":11282:11329   */\n      mstore\n        /* \"#utility.yul\":11346:11477   */\n      tag_474\n        /* \"#utility.yul\":11472:11476   */\n      dup2\n        /* \"#utility.yul\":11346:11477   */\n      tag_421\n      jump\t// in\n    tag_474:\n        /* \"#utility.yul\":11338:11477   */\n      swap1\n      pop\n        /* \"#utility.yul\":11065:11484   */\n      swap2\n      swap1\n      pop\n      jump\t// out\n        /* \"#utility.yul\":11490:11909   */\n    tag_64:\n        /* \"#utility.yul\":11656:11660   */\n      0x00\n        /* \"#utility.yul\":11694:11696   */\n      0x20\n        /* \"#utility.yul\":11683:11692   */\n      dup3\n        /* \"#utility.yul\":11679:11697   */\n      add\n        /* \"#utility.yul\":11671:11697   */\n      swap1\n      pop\n        /* \"#utility.yul\":11743:11752   */\n      dup2\n        /* \"#utility.yul\":11737:11741   */\n      dup2\n        /* \"#utility.yul\":11733:11753   */\n      sub\n        /* \"#utility.yul\":11729:11730   */\n      0x00\n        /* \"#utility.yul\":11718:11727   */\n      dup4\n        /* \"#utility.yul\":11714:11731   */\n      add\n        /* \"#utility.yul\":11707:11754   */\n      mstore\n        /* \"#utility.yul\":11771:11902   */\n      tag_476\n        /* \"#utility.yul\":11897:11901   */\n      dup2\n        /* \"#utility.yul\":11771:11902   */\n      tag_426\n      jump\t// in\n    tag_476:\n        /* \"#utility.yul\":11763:11902   */\n      swap1\n      pop\n        /* \"#utility.yul\":11490:11909   */\n      swap2\n      swap1\n      pop\n      jump\t// out\n        /* \"#utility.yul\":11915:12334   */\n    tag_68:\n        /* \"#utility.yul\":12081:12085   */\n      0x00\n        /* \"#utility.yul\":12119:12121   */\n      0x20\n        /* \"#utility.yul\":12108:12117   */\n      dup3\n        /* \"#utility.yul\":12104:12122   */\n      add\n        /* \"#utility.yul\":12096:12122   */\n      swap1\n      pop\n        /* \"#utility.yul\":12168:12177   */\n      dup2\n        /* \"#utility.yul\":12162:12166   */\n      dup2\n        /* \"#utility.yul\":12158:12178   */\n      sub\n        /* \"#utility.yul\":12154:12155   */\n      0x00\n        /* \"#utility.yul\":12143:12152   */\n      dup4\n        /* \"#utility.yul\":12139:12156   */\n      add\n        /* \"#utility.yul\":12132:12179   */\n      mstore\n        /* \"#utility.yul\":12196:12327   */\n      tag_478\n        /* \"#utility.yul\":12322:12326   */\n      dup2\n        /* \"#utility.yul\":12196:12327   */\n      tag_431\n      jump\t// in\n    tag_478:\n        /* \"#utility.yul\":12188:12327   */\n      swap1\n      pop\n        /* \"#utility.yul\":11915:12334   */\n      swap2\n      swap1\n      pop\n      jump\t// out\n        /* \"#utility.yul\":12340:12562   */\n    tag_27:\n        /* \"#utility.yul\":12433:12437   */\n      0x00\n        /* \"#utility.yul\":12471:12473   */\n      0x20\n        /* \"#utility.yul\":12460:12469   */\n      dup3\n        /* \"#utility.yul\":12456:12474   */\n      add\n        /* \"#utility.yul\":12448:12474   */\n      swap1\n      pop\n        /* \"#utility.yul\":12484:12555   */\n      tag_480\n        /* \"#utility.yul\":12552:12553   */\n      0x00\n        /* \"#utility.yul\":12541:12550   */\n      dup4\n        /* \"#utility.yul\":12537:12554   */\n      add\n        /* \"#utility.yul\":12528:12534   */\n      dup5\n        /* \"#utility.yul\":12484:12555   */\n      tag_448\n      jump\t// in\n    tag_480:\n        /* \"#utility.yul\":12340:12562   */\n      swap3\n      swap2\n      pop\n      pop\n      jump\t// out\n        /* \"#utility.yul\":12649:12801   */\n    tag_394:\n        /* \"#utility.yul\":12736:12740   */\n      0x00\n        /* \"#utility.yul\":12759:12762   */\n      dup2\n        /* \"#utility.yul\":12751:12762   */\n      swap1\n      pop\n        /* \"#utility.yul\":12789:12793   */\n      0x20\n        /* \"#utility.yul\":12784:12787   */\n      dup3\n        /* \"#utility.yul\":12780:12794   */\n      add\n        /* \"#utility.yul\":12772:12794   */\n      swap1\n      pop\n        /* \"#utility.yul\":12649:12801   */\n      swap2\n      swap1\n      pop\n      jump\t// out\n        /* \"#utility.yul\":12807:12941   */\n    tag_390:\n        /* \"#utility.yul\":12894:12900   */\n      0x00\n        /* \"#utility.yul\":12928:12933   */\n      dup2\n        /* \"#utility.yul\":12922:12934   */\n      mload\n        /* \"#utility.yul\":12912:12934   */\n      swap1\n      pop\n        /* \"#utility.yul\":12807:12941   */\n      swap2\n      swap1\n      pop\n      jump\t// out\n        /* \"#utility.yul\":12947:13080   */\n    tag_400:\n        /* \"#utility.yul\":13037:13041   */\n      0x00\n        /* \"#utility.yul\":13069:13073   */\n      0x20\n        /* \"#utility.yul\":13064:13067   */\n      dup3\n        /* \"#utility.yul\":13060:13074   */\n      add\n        /* \"#utility.yul\":13052:13074   */\n      swap1\n      pop\n        /* \"#utility.yul\":12947:13080   */\n      swap2\n      swap1\n      pop\n      jump\t// out\n        /* \"#utility.yul\":13086:13290   */\n    tag_392:\n        /* \"#utility.yul\":13205:13216   */\n      0x00\n        /* \"#utility.yul\":13239:13245   */\n      dup3\n        /* \"#utility.yul\":13234:13237   */\n      dup3\n        /* \"#utility.yul\":13227:13246   */\n      mstore\n        /* \"#utility.yul\":13279:13283   */\n      0x20\n        /* \"#utility.yul\":13274:13277   */\n      dup3\n        /* \"#utility.yul\":13270:13284   */\n      add\n        /* \"#utility.yul\":13255:13284   */\n      swap1\n      pop\n        /* \"#utility.yul\":13086:13290   */\n      swap3\n      swap2\n      pop\n      pop\n      jump\t// out\n        /* \"#utility.yul\":13296:13465   */\n    tag_408:\n        /* \"#utility.yul\":13380:13391   */\n      0x00\n        /* \"#utility.yul\":13414:13420   */\n      dup3\n        /* \"#utility.yul\":13409:13412   */\n      dup3\n        /* \"#utility.yul\":13402:13421   */\n      mstore\n        /* \"#utility.yul\":13454:13458   */\n      0x20\n        /* \"#utility.yul\":13449:13452   */\n      dup3\n        /* \"#utility.yul\":13445:13459   */\n      add\n        /* \"#utility.yul\":13430:13459   */\n      swap1\n      pop\n        /* \"#utility.yul\":13296:13465   */\n      swap3\n      swap2\n      pop\n      pop\n      jump\t// out\n        /* \"#utility.yul\":13471:13662   */\n    tag_247:\n        /* \"#utility.yul\":13511:13515   */\n      0x00\n        /* \"#utility.yul\":13531:13551   */\n      tag_489\n        /* \"#utility.yul\":13549:13550   */\n      dup3\n        /* \"#utility.yul\":13531:13551   */\n      tag_447\n      jump\t// in\n    tag_489:\n        /* \"#utility.yul\":13526:13551   */\n      swap2\n      pop\n        /* \"#utility.yul\":13565:13585   */\n      tag_490\n        /* \"#utility.yul\":13583:13584   */\n      dup4\n        /* \"#utility.yul\":13565:13585   */\n      tag_447\n      jump\t// in\n    tag_490:\n        /* \"#utility.yul\":13560:13585   */\n      swap3\n      pop\n        /* \"#utility.yul\":13604:13605   */\n      dup3\n        /* \"#utility.yul\":13601:13602   */\n      dup3\n        /* \"#utility.yul\":13598:13606   */\n      lt\n        /* \"#utility.yul\":13595:13629   */\n      iszero\n      tag_491\n      jumpi\n        /* \"#utility.yul\":13609:13627   */\n      tag_492\n      tag_493\n      jump\t// in\n    tag_492:\n        /* \"#utility.yul\":13595:13629   */\n    tag_491:\n        /* \"#utility.yul\":13654:13655   */\n      dup3\n        /* \"#utility.yul\":13651:13652   */\n      dup3\n        /* \"#utility.yul\":13647:13656   */\n      sub\n        /* \"#utility.yul\":13639:13656   */\n      swap1\n      pop\n        /* \"#utility.yul\":13471:13662   */\n      swap3\n      swap2\n      pop\n      pop\n      jump\t// out\n        /* \"#utility.yul\":13668:13764   */\n    tag_383:\n        /* \"#utility.yul\":13705:13712   */\n      0x00\n        /* \"#utility.yul\":13734:13758   */\n      tag_495\n        /* \"#utility.yul\":13752:13757   */\n      dup3\n        /* \"#utility.yul\":13734:13758   */\n      tag_496\n      jump\t// in\n    tag_495:\n        /* \"#utility.yul\":13723:13758   */\n      swap1\n      pop\n        /* \"#utility.yul\":13668:13764   */\n      swap2\n      swap1\n      pop\n      jump\t// out\n        /* \"#utility.yul\":13770:13874   */\n    tag_379:\n        /* \"#utility.yul\":13815:13822   */\n      0x00\n        /* \"#utility.yul\":13844:13868   */\n      tag_498\n        /* \"#utility.yul\":13862:13867   */\n      dup3\n        /* \"#utility.yul\":13844:13868   */\n      tag_496\n      jump\t// in\n    tag_498:\n        /* \"#utility.yul\":13833:13868   */\n      swap1\n      pop\n        /* \"#utility.yul\":13770:13874   */\n      swap2\n      swap1\n      pop\n      jump\t// out\n        /* \"#utility.yul\":13880:13970   */\n    tag_404:\n        /* \"#utility.yul\":13914:13921   */\n      0x00\n        /* \"#utility.yul\":13957:13962   */\n      dup2\n        /* \"#utility.yul\":13950:13963   */\n      iszero\n        /* \"#utility.yul\":13943:13964   */\n      iszero\n        /* \"#utility.yul\":13932:13964   */\n      swap1\n      pop\n        /* \"#utility.yul\":13880:13970   */\n      swap2\n      swap1\n      pop\n      jump\t// out\n        /* \"#utility.yul\":13976:14102   */\n    tag_496:\n        /* \"#utility.yul\":14013:14020   */\n      0x00\n        /* \"#utility.yul\":14053:14095   */\n      0xffffffffffffffffffffffffffffffffffffffff\n        /* \"#utility.yul\":14046:14051   */\n      dup3\n        /* \"#utility.yul\":14042:14096   */\n      and\n        /* \"#utility.yul\":14031:14096   */\n      swap1\n      pop\n        /* \"#utility.yul\":13976:14102   */\n      swap2\n      swap1\n      pop\n      jump\t// out\n        /* \"#utility.yul\":14108:14185   */\n    tag_447:\n        /* \"#utility.yul\":14145:14152   */\n      0x00\n        /* \"#utility.yul\":14174:14179   */\n      dup2\n        /* \"#utility.yul\":14163:14179   */\n      swap1\n      pop\n        /* \"#utility.yul\":14108:14185   */\n      swap2\n      swap1\n      pop\n      jump\t// out\n        /* \"#utility.yul\":14191:14325   */\n    tag_375:\n        /* \"#utility.yul\":14249:14258   */\n      0x00\n        /* \"#utility.yul\":14282:14319   */\n      tag_503\n        /* \"#utility.yul\":14313:14318   */\n      dup3\n        /* \"#utility.yul\":14282:14319   */\n      tag_504\n      jump\t// in\n    tag_503:\n        /* \"#utility.yul\":14269:14319   */\n      swap1\n      pop\n        /* \"#utility.yul\":14191:14325   */\n      swap2\n      swap1\n      pop\n      jump\t// out\n        /* \"#utility.yul\":14331:14457   */\n    tag_504:\n        /* \"#utility.yul\":14381:14390   */\n      0x00\n        /* \"#utility.yul\":14414:14451   */\n      tag_506\n        /* \"#utility.yul\":14445:14450   */\n      dup3\n        /* \"#utility.yul\":14414:14451   */\n      tag_507\n      jump\t// in\n    tag_506:\n        /* \"#utility.yul\":14401:14451   */\n      swap1\n      pop\n        /* \"#utility.yul\":14331:14457   */\n      swap2\n      swap1\n      pop\n      jump\t// out\n        /* \"#utility.yul\":14463:14576   */\n    tag_507:\n        /* \"#utility.yul\":14513:14522   */\n      0x00\n        /* \"#utility.yul\":14546:14570   */\n      tag_509\n        /* \"#utility.yul\":14564:14569   */\n      dup3\n        /* \"#utility.yul\":14546:14570   */\n      tag_496\n      jump\t// in\n    tag_509:\n        /* \"#utility.yul\":14533:14570   */\n      swap1\n      pop\n        /* \"#utility.yul\":14463:14576   */\n      swap2\n      swap1\n      pop\n      jump\t// out\n        /* \"#utility.yul\":14582:14815   */\n    tag_114:\n        /* \"#utility.yul\":14621:14624   */\n      0x00\n        /* \"#utility.yul\":14644:14668   */\n      tag_511\n        /* \"#utility.yul\":14662:14667   */\n      dup3\n        /* \"#utility.yul\":14644:14668   */\n      tag_447\n      jump\t// in\n    tag_511:\n        /* \"#utility.yul\":14635:14668   */\n      swap2\n      pop\n        /* \"#utility.yul\":14690:14756   */\n      0xffffffffffffffffffffffffffffffffffffffffffffffffffffffffffffffff\n        /* \"#utility.yul\":14683:14688   */\n      dup3\n        /* \"#utility.yul\":14680:14757   */\n      eq\n        /* \"#utility.yul\":14677:14780   */\n      iszero\n      tag_512\n      jumpi\n        /* \"#utility.yul\":14760:14778   */\n      tag_513\n      tag_493\n      jump\t// in\n    tag_513:\n        /* \"#utility.yul\":14677:14780   */\n    tag_512:\n        /* \"#utility.yul\":14807:14808   */\n      0x01\n        /* \"#utility.yul\":14800:14805   */\n      dup3\n        /* \"#utility.yul\":14796:14809   */\n      add\n        /* \"#utility.yul\":14789:14809   */\n      swap1\n      pop\n        /* \"#utility.yul\":14582:14815   */\n      swap2\n      swap1\n      pop\n      jump\t// out\n        /* \"#utility.yul\":14821:15001   */\n    tag_493:\n        /* \"#utility.yul\":14869:14946   */\n      0x4e487b7100000000000000000000000000000000000000000000000000000000\n        /* \"#utility.yul\":14866:14867   */\n      0x00\n        /* \"#utility.yul\":14859:14947   */\n      mstore\n        /* \"#utility.yul\":14966:14970   */\n      0x11\n        /* \"#utility.yul\":14963:14964   */\n      0x04\n        /* \"#utility.yul\":14956:14971   */\n      mstore\n        /* \"#utility.yul\":14990:14994   */\n      0x24\n        /* \"#utility.yul\":14987:14988   */\n      0x00\n        /* \"#utility.yul\":14980:14995   */\n      revert\n        /* \"#utility.yul\":15007:15187   */\n    tag_84:\n        /* \"#utility.yul\":15055:15132   */\n      0x4e487b7100000000000000000000000000000000000000000000000000000000\n        /* \"#utility.yul\":15052:15053   */\n      0x00\n        /* \"#utility.yul\":15045:15133   */\n      mstore\n        /* \"#utility.yul\":15152:15156   */\n      0x32\n        /* \"#utility.yul\":15149:15150   */\n      0x04\n        /* \"#utility.yul\":15142:15157   */\n      mstore\n        /* \"#utility.yul\":15176:15180   */\n      0x24\n        /* \"#utility.yul\":15173:15174   */\n      0x00\n        /* \"#utility.yul\":15166:15181   */\n      revert\n        /* \"#utility.yul\":15193:15373   */\n    tag_118:\n        /* \"#utility.yul\":15241:15318   */\n      0x4e487b7100000000000000000000000000000000000000000000000000000000\n        /* \"#utility.yul\":15238:15239   */\n      0x00\n        /* \"#utility.yul\":15231:15319   */\n      mstore\n        /* \"#utility.yul\":15338:15342   */\n      0x41\n        /* \"#utility.yul\":15335:15336   */\n      0x04\n        /* \"#utility.yul\":15328:15343   */\n      mstore\n        /* \"#utility.yul\":15362:15366   */\n      0x24\n        /* \"#utility.yul\":15359:15360   */\n      0x00\n        /* \"#utility.yul\":15352:15367   */\n      revert\n        /* \"#utility.yul\":15502:15619   */\n    tag_355:\n        /* \"#utility.yul\":15611:15612   */\n      0x00\n        /* \"#utility.yul\":15608:15609   */\n      dup1\n        /* \"#utility.yul\":15601:15613   */\n      revert\n        /* \"#utility.yul\":15625:15802   */\n    tag_410:\n        /* \"#utility.yul\":15765:15794   */\n      0x436f756e7465723a2064656372656d656e74206f766572666c6f770000000000\n        /* \"#utility.yul\":15761:15762   */\n      0x00\n        /* \"#utility.yul\":15753:15759   */\n      dup3\n        /* \"#utility.yul\":15749:15763   */\n      add\n        /* \"#utility.yul\":15742:15795   */\n      mstore\n        /* \"#utility.yul\":15625:15802   */\n      pop\n      jump\t// out\n        /* \"#utility.yul\":15808:16033   */\n    tag_415:\n        /* \"#utility.yul\":15948:15982   */\n      0x4e6f7420656e6f75676820657468657220746f20636f7665722061736b696e67\n        /* \"#utility.yul\":15944:15945   */\n      0x00\n        /* \"#utility.yul\":15936:15942   */\n      dup3\n        /* \"#utility.yul\":15932:15946   */\n      add\n        /* \"#utility.yul\":15925:15983   */\n      mstore\n        /* \"#utility.yul\":16017:16025   */\n      0x2070726963650000000000000000000000000000000000000000000000000000\n        /* \"#utility.yul\":16012:16014   */\n      0x20\n        /* \"#utility.yul\":16004:16010   */\n      dup3\n        /* \"#utility.yul\":16000:16015   */\n      add\n        /* \"#utility.yul\":15993:16026   */\n      mstore\n        /* \"#utility.yul\":15808:16033   */\n      pop\n      jump\t// out\n        /* \"#utility.yul\":16039:16202   */\n    tag_420:\n        /* \"#utility.yul\":16179:16194   */\n      0x4e6674206e6f7420666f756e6400000000000000000000000000000000000000\n        /* \"#utility.yul\":16175:16176   */\n      0x00\n        /* \"#utility.yul\":16167:16173   */\n      dup3\n        /* \"#utility.yul\":16163:16177   */\n      add\n        /* \"#utility.yul\":16156:16195   */\n      mstore\n        /* \"#utility.yul\":16039:16202   */\n      pop\n      jump\t// out\n        /* \"#utility.yul\":16208:16390   */\n    tag_425:\n        /* \"#utility.yul\":16348:16382   */\n      0x4e6f7420656e6f75676820657468657220666f72206c697374696e6720666565\n        /* \"#utility.yul\":16344:16345   */\n      0x00\n        /* \"#utility.yul\":16336:16342   */\n      dup3\n        /* \"#utility.yul\":16332:16346   */\n      add\n        /* \"#utility.yul\":16325:16383   */\n      mstore\n        /* \"#utility.yul\":16208:16390   */\n      pop\n      jump\t// out\n        /* \"#utility.yul\":16396:16577   */\n    tag_430:\n        /* \"#utility.yul\":16536:16569   */\n      0x5265656e7472616e637947756172643a207265656e7472616e742063616c6c00\n        /* \"#utility.yul\":16532:16533   */\n      0x00\n        /* \"#utility.yul\":16524:16530   */\n      dup3\n        /* \"#utility.yul\":16520:16534   */\n      add\n        /* \"#utility.yul\":16513:16570   */\n      mstore\n        /* \"#utility.yul\":16396:16577   */\n      pop\n      jump\t// out\n        /* \"#utility.yul\":16583:16761   */\n    tag_435:\n        /* \"#utility.yul\":16723:16753   */\n      0x5072696365206d757374206265206174206c6561737420312077656900000000\n        /* \"#utility.yul\":16719:16720   */\n      0x00\n        /* \"#utility.yul\":16711:16717   */\n      dup3\n        /* \"#utility.yul\":16707:16721   */\n      add\n        /* \"#utility.yul\":16700:16754   */\n      mstore\n        /* \"#utility.yul\":16583:16761   */\n      pop\n      jump\t// out\n        /* \"#utility.yul\":16767:16889   */\n    tag_344:\n        /* \"#utility.yul\":16840:16864   */\n      tag_527\n        /* \"#utility.yul\":16858:16863   */\n      dup2\n        /* \"#utility.yul\":16840:16864   */\n      tag_383\n      jump\t// in\n    tag_527:\n        /* \"#utility.yul\":16833:16838   */\n      dup2\n        /* \"#utility.yul\":16830:16865   */\n      eq\n        /* \"#utility.yul\":16820:16883   */\n      tag_528\n      jumpi\n        /* \"#utility.yul\":16879:16880   */\n      0x00\n        /* \"#utility.yul\":16876:16877   */\n      dup1\n        /* \"#utility.yul\":16869:16881   */\n      revert\n        /* \"#utility.yul\":16820:16883   */\n    tag_528:\n        /* \"#utility.yul\":16767:16889   */\n      pop\n      jump\t// out\n        /* \"#utility.yul\":16895:17017   */\n    tag_351:\n        /* \"#utility.yul\":16968:16992   */\n      tag_530\n        /* \"#utility.yul\":16986:16991   */\n      dup2\n        /* \"#utility.yul\":16968:16992   */\n      tag_447\n      jump\t// in\n    tag_530:\n        /* \"#utility.yul\":16961:16966   */\n      dup2\n        /* \"#utility.yul\":16958:16993   */\n      eq\n        /* \"#utility.yul\":16948:17011   */\n      tag_531\n      jumpi\n        /* \"#utility.yul\":17007:17008   */\n      0x00\n        /* \"#utility.yul\":17004:17005   */\n      dup1\n        /* \"#utility.yul\":16997:17009   */\n      revert\n        /* \"#utility.yul\":16948:17011   */\n    tag_531:\n        /* \"#utility.yul\":16895:17017   */\n      pop\n      jump\t// out\n\n    auxdata: 0xa2646970667358221220d7832f23eae8ed5f247be1f521ecd4f3927a12c5806bfb88e26de7b45348394d64736f6c63430008070033\n}\n",
				"bytecode": {
					"linkReferences": {},
					"object": "608060405266071afd498d000060035534801561001b57600080fd5b50600160008190555033600460006101000a81548173ffffffffffffffffffffffffffffffffffffffff021916908373ffffffffffffffffffffffffffffffffffffffff160217905550612bf5806100746000396000f3fe60806040526004361061009c5760003560e01c80636dc15e67116100645780636dc15e671461016c5780638492095a146101975780638d6cb3fb146101c2578063a46b5c5a146101ed578063ad05f1b414610218578063b8fe6abe146102345761009c565b806304935694146100a15780631f4cc4db146100bd5780632b86ae38146100e85780632f634a90146101135780634ddf4f8f14610150575b600080fd5b6100bb60048036038101906100b6919061243d565b61025f565b005b3480156100c957600080fd5b506100d26105c9565b6040516100df919061278f565b60405180910390f35b3480156100f457600080fd5b506100fd6109d3565b60405161010a9190612871565b60405180910390f35b34801561011f57600080fd5b5061013a600480360381019061013591906123fd565b6109d9565b60405161014791906126cf565b60405180910390f35b61016a600480360381019061016591906123fd565b610a6c565b005b34801561017857600080fd5b50610181610d67565b60405161018e919061278f565b60405180910390f35b3480156101a357600080fd5b506101ac611171565b6040516101b9919061278f565b60405180910390f35b3480156101ce57600080fd5b506101d7611505565b6040516101e4919061278f565b60405180910390f35b3480156101f957600080fd5b506102026117c9565b60405161020f919061278f565b60405180910390f35b610232600480360381019061022d919061243d565b611b5d565b005b34801561024057600080fd5b50610249611f95565b6040516102569190612871565b60405180910390f35b600260005414156102a5576040517f08c379a000000000000000000000000000000000000000000000000000000000815260040161029c90612831565b60405180910390fd5b6002600081905550600081116102f0576040517f08c379a00000000000000000000000000000000000000000000000000000000081526004016102e790612851565b60405180910390fd5b6003543414610334576040517f08c379a000000000000000000000000000000000000000000000000000000000815260040161032b90612811565b60405180910390fd5b60006103408484611f9f565b9050809150507fffffffffffffffffffffffffffffffffffffffffffffffffffffffffffffffff8114156103a9576040517f08c379a00000000000000000000000000000000000000000000000000000000081526004016103a0906127f1565b60405180910390fd5b8373ffffffffffffffffffffffffffffffffffffffff166323b872dd3330866040518463ffffffff1660e01b81526004016103e693929190612721565b600060405180830381600087803b15801561040057600080fd5b505af1158015610414573d6000803e3d6000fd5b50505050336005828154811061042d5761042c612a12565b5b906000526020600020906006020160030160006101000a81548173ffffffffffffffffffffffffffffffffffffffff021916908373ffffffffffffffffffffffffffffffffffffffff160217905550306005828154811061049157610490612a12565b5b906000526020600020906006020160040160006101000a81548173ffffffffffffffffffffffffffffffffffffffff021916908373ffffffffffffffffffffffffffffffffffffffff1602179055506001600582815481106104f6576104f5612a12565b5b906000526020600020906006020160050160146101000a81548160ff021916908315150217905550816005828154811061053357610532612a12565b5b906000526020600020906006020160020181905550610552600161227a565b3073ffffffffffffffffffffffffffffffffffffffff163373ffffffffffffffffffffffffffffffffffffffff167fa0c6c0d02d86fdacecbaa5fdf5894bab204e31a778250474108540733a9b8d198686866040516105b393929190612758565b60405180910390a3506001600081905550505050565b606060006105d760026122d6565b90506000805b828110156106bb573373ffffffffffffffffffffffffffffffffffffffff16600582815481106106105761060f612a12565b5b906000526020600020906006020160030160009054906101000a900473ffffffffffffffffffffffffffffffffffffffff1673ffffffffffffffffffffffffffffffffffffffff1614801561069457506005818154811061067457610673612a12565b5b906000526020600020906006020160050160149054906101000a900460ff165b156106a85781806106a49061299a565b9250505b80806106b39061299a565b9150506105dd565b5060008167ffffffffffffffff8111156106d8576106d7612a41565b5b60405190808252806020026020018201604052801561071157816020015b6106fe6122fa565b8152602001906001900390816106f65790505b5090506000805b848110156109c8573373ffffffffffffffffffffffffffffffffffffffff166005828154811061074b5761074a612a12565b5b906000526020600020906006020160030160009054906101000a900473ffffffffffffffffffffffffffffffffffffffff1673ffffffffffffffffffffffffffffffffffffffff161480156107cf5750600581815481106107af576107ae612a12565b5b906000526020600020906006020160050160149054906101000a900460ff165b156109b557600581815481106107e8576107e7612a12565b5b90600052602060002090600602016040518060e00160405290816000820160009054906101000a900473ffffffffffffffffffffffffffffffffffffffff1673ffffffffffffffffffffffffffffffffffffffff1673ffffffffffffffffffffffffffffffffffffffff16815260200160018201548152602001600282015481526020016003820160009054906101000a900473ffffffffffffffffffffffffffffffffffffffff1673ffffffffffffffffffffffffffffffffffffffff1673ffffffffffffffffffffffffffffffffffffffff1681526020016004820160009054906101000a900473ffffffffffffffffffffffffffffffffffffffff1673ffffffffffffffffffffffffffffffffffffffff1673ffffffffffffffffffffffffffffffffffffffff1681526020016005820160009054906101000a900473ffffffffffffffffffffffffffffffffffffffff1673ffffffffffffffffffffffffffffffffffffffff1673ffffffffffffffffffffffffffffffffffffffff1681526020016005820160149054906101000a900460ff16151515158152505083838151811061099b5761099a612a12565b5b602002602001018190525081806109b19061299a565b9250505b80806109c09061299a565b915050610718565b508194505050505090565b60035481565b60008273ffffffffffffffffffffffffffffffffffffffff16636352211e836040518263ffffffff1660e01b8152600401610a149190612871565b60206040518083038186803b158015610a2c57600080fd5b505afa158015610a40573d6000803e3d6000fd5b505050506040513d601f19601f82011682018060405250810190610a6491906123d0565b905092915050565b60026000541415610ab2576040517f08c379a0000000000000000000000000000000000000000000000000000000008152600401610aa990612831565b60405180910390fd5b6002600081905550610ac26122fa565b6000610ace8484611f9f565b80925081935050507fffffffffffffffffffffffffffffffffffffffffffffffffffffffffffffffff811415610b39576040517f08c379a0000000000000000000000000000000000000000000000000000000008152600401610b30906127f1565b60405180910390fd5b8160400151341015610b80576040517f08c379a0000000000000000000000000000000000000000000000000000000008152600401610b77906127d1565b60405180910390fd5b6000339050826060015173ffffffffffffffffffffffffffffffffffffffff166108fc349081150290604051600060405180830381858888f19350505050158015610bcf573d6000803e3d6000fd5b508473ffffffffffffffffffffffffffffffffffffffff166323b872dd3083876040518463ffffffff1660e01b8152600401610c0d939291906126ea565b600060405180830381600087803b158015610c2757600080fd5b505af1158015610c3b573d6000803e3d6000fd5b505050508060058381548110610c5457610c53612a12565b5b906000526020600020906006020160040160006101000a81548173ffffffffffffffffffffffffffffffffffffffff021916908373ffffffffffffffffffffffffffffffffffffffff160217905550600060058381548110610cb957610cb8612a12565b5b906000526020600020906006020160050160146101000a81548160ff021916908315150217905550610ceb60016122e4565b8073ffffffffffffffffffffffffffffffffffffffff16836060015173ffffffffffffffffffffffffffffffffffffffff167f16f1dbd97e6bf646d429ed186cce832f1f7fd9907814293b83181e9970ab7bd2878734604051610d5093929190612758565b60405180910390a350505060016000819055505050565b60606000610d7560026122d6565b90506000805b82811015610e59573373ffffffffffffffffffffffffffffffffffffffff1660058281548110610dae57610dad612a12565b5b906000526020600020906006020160030160009054906101000a900473ffffffffffffffffffffffffffffffffffffffff1673ffffffffffffffffffffffffffffffffffffffff16148015610e32575060058181548110610e1257610e11612a12565b5b906000526020600020906006020160050160149054906101000a900460ff165b15610e46578180610e429061299a565b9250505b8080610e519061299a565b915050610d7b565b5060008167ffffffffffffffff811115610e7657610e75612a41565b5b604051908082528060200260200182016040528015610eaf57816020015b610e9c6122fa565b815260200190600190039081610e945790505b5090506000805b84811015611166573373ffffffffffffffffffffffffffffffffffffffff1660058281548110610ee957610ee8612a12565b5b906000526020600020906006020160030160009054906101000a900473ffffffffffffffffffffffffffffffffffffffff1673ffffffffffffffffffffffffffffffffffffffff16148015610f6d575060058181548110610f4d57610f4c612a12565b5b906000526020600020906006020160050160149054906101000a900460ff165b156111535760058181548110610f8657610f85612a12565b5b90600052602060002090600602016040518060e00160405290816000820160009054906101000a900473ffffffffffffffffffffffffffffffffffffffff1673ffffffffffffffffffffffffffffffffffffffff1673ffffffffffffffffffffffffffffffffffffffff16815260200160018201548152602001600282015481526020016003820160009054906101000a900473ffffffffffffffffffffffffffffffffffffffff1673ffffffffffffffffffffffffffffffffffffffff1673ffffffffffffffffffffffffffffffffffffffff1681526020016004820160009054906101000a900473ffffffffffffffffffffffffffffffffffffffff1673ffffffffffffffffffffffffffffffffffffffff1673ffffffffffffffffffffffffffffffffffffffff1681526020016005820160009054906101000a900473ffffffffffffffffffffffffffffffffffffffff1673ffffffffffffffffffffffffffffffffffffffff1673ffffffffffffffffffffffffffffffffffffffff1681526020016005820160149054906101000a900460ff16151515158152505083838151811061113957611138612a12565b5b6020026020010181905250818061114f9061299a565b9250505b808061115e9061299a565b915050610eb6565b508194505050505090565b6060600061117f60026122d6565b90506000805b82811015611228573373ffffffffffffffffffffffffffffffffffffffff16600582815481106111b8576111b7612a12565b5b906000526020600020906006020160050160009054906101000a900473ffffffffffffffffffffffffffffffffffffffff1673ffffffffffffffffffffffffffffffffffffffff1614156112155781806112119061299a565b9250505b80806112209061299a565b915050611185565b5060008167ffffffffffffffff81111561124557611244612a41565b5b60405190808252806020026020018201604052801561127e57816020015b61126b6122fa565b8152602001906001900390816112635790505b5090506000805b848110156114fa573373ffffffffffffffffffffffffffffffffffffffff16600582815481106112b8576112b7612a12565b5b906000526020600020906006020160050160009054906101000a900473ffffffffffffffffffffffffffffffffffffffff1673ffffffffffffffffffffffffffffffffffffffff1614156114e7576005818154811061131a57611319612a12565b5b90600052602060002090600602016040518060e00160405290816000820160009054906101000a900473ffffffffffffffffffffffffffffffffffffffff1673ffffffffffffffffffffffffffffffffffffffff1673ffffffffffffffffffffffffffffffffffffffff16815260200160018201548152602001600282015481526020016003820160009054906101000a900473ffffffffffffffffffffffffffffffffffffffff1673ffffffffffffffffffffffffffffffffffffffff1673ffffffffffffffffffffffffffffffffffffffff1681526020016004820160009054906101000a900473ffffffffffffffffffffffffffffffffffffffff1673ffffffffffffffffffffffffffffffffffffffff1673ffffffffffffffffffffffffffffffffffffffff1681526020016005820160009054906101000a900473ffffffffffffffffffffffffffffffffffffffff1673ffffffffffffffffffffffffffffffffffffffff1673ffffffffffffffffffffffffffffffffffffffff1681526020016005820160149054906101000a900460ff1615151515815250508383815181106114cd576114cc612a12565b5b602002602001018190525081806114e39061299a565b9250505b80806114f29061299a565b915050611285565b508194505050505090565b6060600061151360026122d6565b9050600061152160016122d6565b8261152c91906128d6565b905060008167ffffffffffffffff81111561154a57611549612a41565b5b60405190808252806020026020018201604052801561158357816020015b6115706122fa565b8152602001906001900390816115685790505b5090506000805b848110156117be57600581815481106115a6576115a5612a12565b5b906000526020600020906006020160050160149054906101000a900460ff16156117ab57600581815481106115de576115dd612a12565b5b90600052602060002090600602016040518060e00160405290816000820160009054906101000a900473ffffffffffffffffffffffffffffffffffffffff1673ffffffffffffffffffffffffffffffffffffffff1673ffffffffffffffffffffffffffffffffffffffff16815260200160018201548152602001600282015481526020016003820160009054906101000a900473ffffffffffffffffffffffffffffffffffffffff1673ffffffffffffffffffffffffffffffffffffffff1673ffffffffffffffffffffffffffffffffffffffff1681526020016004820160009054906101000a900473ffffffffffffffffffffffffffffffffffffffff1673ffffffffffffffffffffffffffffffffffffffff1673ffffffffffffffffffffffffffffffffffffffff1681526020016005820160009054906101000a900473ffffffffffffffffffffffffffffffffffffffff1673ffffffffffffffffffffffffffffffffffffffff1673ffffffffffffffffffffffffffffffffffffffff1681526020016005820160149054906101000a900460ff16151515158152505083838151811061179157611790612a12565b5b602002602001018190525081806117a79061299a565b9250505b80806117b69061299a565b91505061158a565b508194505050505090565b606060006117d760026122d6565b90506000805b82811015611880573373ffffffffffffffffffffffffffffffffffffffff16600582815481106118105761180f612a12565b5b906000526020600020906006020160040160009054906101000a900473ffffffffffffffffffffffffffffffffffffffff1673ffffffffffffffffffffffffffffffffffffffff16141561186d5781806118699061299a565b9250505b80806118789061299a565b9150506117dd565b5060008167ffffffffffffffff81111561189d5761189c612a41565b5b6040519080825280602002602001820160405280156118d657816020015b6118c36122fa565b8152602001906001900390816118bb5790505b5090506000805b84811015611b52573373ffffffffffffffffffffffffffffffffffffffff16600582815481106119105761190f612a12565b5b906000526020600020906006020160040160009054906101000a900473ffffffffffffffffffffffffffffffffffffffff1673ffffffffffffffffffffffffffffffffffffffff161415611b3f576005818154811061197257611971612a12565b5b90600052602060002090600602016040518060e00160405290816000820160009054906101000a900473ffffffffffffffffffffffffffffffffffffffff1673ffffffffffffffffffffffffffffffffffffffff1673ffffffffffffffffffffffffffffffffffffffff16815260200160018201548152602001600282015481526020016003820160009054906101000a900473ffffffffffffffffffffffffffffffffffffffff1673ffffffffffffffffffffffffffffffffffffffff1673ffffffffffffffffffffffffffffffffffffffff1681526020016004820160009054906101000a900473ffffffffffffffffffffffffffffffffffffffff1673ffffffffffffffffffffffffffffffffffffffff1673ffffffffffffffffffffffffffffffffffffffff1681526020016005820160009054906101000a900473ffffffffffffffffffffffffffffffffffffffff1673ffffffffffffffffffffffffffffffffffffffff1673ffffffffffffffffffffffffffffffffffffffff1681526020016005820160149054906101000a900460ff161515151581525050838381518110611b2557611b24612a12565b5b60200260200101819052508180611b3b9061299a565b9250505b8080611b4a9061299a565b9150506118dd565b508194505050505090565b60026000541415611ba3576040517f08c379a0000000000000000000000000000000000000000000000000000000008152600401611b9a90612831565b60405180910390fd5b600260008190555060008111611bee576040517f08c379a0000000000000000000000000000000000000000000000000000000008152600401611be590612851565b60405180910390fd5b6003543414611c32576040517f08c379a0000000000000000000000000000000000000000000000000000000008152600401611c2990612811565b60405180910390fd5b8273ffffffffffffffffffffffffffffffffffffffff166323b872dd3330856040518463ffffffff1660e01b8152600401611c6f93929190612721565b600060405180830381600087803b158015611c8957600080fd5b505af1158015611c9d573d6000803e3d6000fd5b5050505060056040518060e001604052808573ffffffffffffffffffffffffffffffffffffffff1681526020018481526020018381526020013373ffffffffffffffffffffffffffffffffffffffff1681526020013073ffffffffffffffffffffffffffffffffffffffff1681526020013373ffffffffffffffffffffffffffffffffffffffff16815260200160011515815250908060018154018082558091505060019003906000526020600020906006020160009091909190915060008201518160000160006101000a81548173ffffffffffffffffffffffffffffffffffffffff021916908373ffffffffffffffffffffffffffffffffffffffff160217905550602082015181600101556040820151816002015560608201518160030160006101000a81548173ffffffffffffffffffffffffffffffffffffffff021916908373ffffffffffffffffffffffffffffffffffffffff16021790555060808201518160040160006101000a81548173ffffffffffffffffffffffffffffffffffffffff021916908373ffffffffffffffffffffffffffffffffffffffff16021790555060a08201518160050160006101000a81548173ffffffffffffffffffffffffffffffffffffffff021916908373ffffffffffffffffffffffffffffffffffffffff16021790555060c08201518160050160146101000a81548160ff0219169083151502179055505050611eb660026122e4565b600460009054906101000a900473ffffffffffffffffffffffffffffffffffffffff1673ffffffffffffffffffffffffffffffffffffffff166108fc349081150290604051600060405180830381858888f19350505050158015611f1e573d6000803e3d6000fd5b503073ffffffffffffffffffffffffffffffffffffffff163373ffffffffffffffffffffffffffffffffffffffff167fa0c6c0d02d86fdacecbaa5fdf5894bab204e31a778250474108540733a9b8d19858585604051611f8093929190612758565b60405180910390a36001600081905550505050565b6000600354905090565b611fa76122fa565b6000611fb16122fa565b60007fffffffffffffffffffffffffffffffffffffffffffffffffffffffffffffffff90506000611fe260026122d6565b905060005b81811015612269578773ffffffffffffffffffffffffffffffffffffffff166005828154811061201a57612019612a12565b5b906000526020600020906006020160000160009054906101000a900473ffffffffffffffffffffffffffffffffffffffff1673ffffffffffffffffffffffffffffffffffffffff161480156120935750866005828154811061207f5761207e612a12565b5b906000526020600020906006020160010154145b1561225657600581815481106120ac576120ab612a12565b5b90600052602060002090600602016040518060e00160405290816000820160009054906101000a900473ffffffffffffffffffffffffffffffffffffffff1673ffffffffffffffffffffffffffffffffffffffff1673ffffffffffffffffffffffffffffffffffffffff16815260200160018201548152602001600282015481526020016003820160009054906101000a900473ffffffffffffffffffffffffffffffffffffffff1673ffffffffffffffffffffffffffffffffffffffff1673ffffffffffffffffffffffffffffffffffffffff1681526020016004820160009054906101000a900473ffffffffffffffffffffffffffffffffffffffff1673ffffffffffffffffffffffffffffffffffffffff1673ffffffffffffffffffffffffffffffffffffffff1681526020016005820160009054906101000a900473ffffffffffffffffffffffffffffffffffffffff1673ffffffffffffffffffffffffffffffffffffffff1673ffffffffffffffffffffffffffffffffffffffff1681526020016005820160149054906101000a900460ff1615151515815250509350809250612269565b80806122619061299a565b915050611fe7565b508282945094505050509250929050565b600081600001549050600081116122c6576040517f08c379a00000000000000000000000000000000000000000000000000000000081526004016122bd906127b1565b60405180910390fd5b6001810382600001819055505050565b600081600001549050919050565b6001816000016000828254019250508190555050565b6040518060e00160405280600073ffffffffffffffffffffffffffffffffffffffff1681526020016000815260200160008152602001600073ffffffffffffffffffffffffffffffffffffffff168152602001600073ffffffffffffffffffffffffffffffffffffffff168152602001600073ffffffffffffffffffffffffffffffffffffffff1681526020016000151581525090565b6000813590506123a081612b91565b92915050565b6000815190506123b581612b91565b92915050565b6000813590506123ca81612ba8565b92915050565b6000602082840312156123e6576123e5612a70565b5b60006123f4848285016123a6565b91505092915050565b6000806040838503121561241457612413612a70565b5b600061242285828601612391565b9250506020612433858286016123bb565b9150509250929050565b60008060006060848603121561245657612455612a70565b5b600061246486828701612391565b9350506020612475868287016123bb565b9250506040612486868287016123bb565b9150509250925092565b600061249c8383612623565b60e08301905092915050565b6124b181612964565b82525050565b6124c08161291c565b82525050565b6124cf8161290a565b82525050565b6124de8161290a565b82525050565b60006124ef8261289c565b6124f981856128b4565b93506125048361288c565b8060005b8381101561253557815161251c8882612490565b9750612527836128a7565b925050600181019050612508565b5085935050505092915050565b61254b8161292e565b82525050565b600061255e601b836128c5565b915061256982612a75565b602082019050919050565b60006125816026836128c5565b915061258c82612a9e565b604082019050919050565b60006125a4600d836128c5565b91506125af82612aed565b602082019050919050565b60006125c76020836128c5565b91506125d282612b16565b602082019050919050565b60006125ea601f836128c5565b91506125f582612b3f565b602082019050919050565b600061260d601c836128c5565b915061261882612b68565b602082019050919050565b60e08201600082015161263960008501826124c6565b50602082015161264c60208501826126b1565b50604082015161265f60408501826126b1565b50606082015161267260608501826124b7565b50608082015161268560808501826124b7565b5060a082015161269860a08501826124b7565b5060c08201516126ab60c0850182612542565b50505050565b6126ba8161295a565b82525050565b6126c98161295a565b82525050565b60006020820190506126e460008301846124d5565b92915050565b60006060820190506126ff60008301866124d5565b61270c60208301856124a8565b61271960408301846126c0565b949350505050565b600060608201905061273660008301866124d5565b61274360208301856124d5565b61275060408301846126c0565b949350505050565b600060608201905061276d60008301866124d5565b61277a60208301856126c0565b61278760408301846126c0565b949350505050565b600060208201905081810360008301526127a981846124e4565b905092915050565b600060208201905081810360008301526127ca81612551565b9050919050565b600060208201905081810360008301526127ea81612574565b9050919050565b6000602082019050818103600083015261280a81612597565b9050919050565b6000602082019050818103600083015261282a816125ba565b9050919050565b6000602082019050818103600083015261284a816125dd565b9050919050565b6000602082019050818103600083015261286a81612600565b9050919050565b600060208201905061288660008301846126c0565b92915050565b6000819050602082019050919050565b600081519050919050565b6000602082019050919050565b600082825260208201905092915050565b600082825260208201905092915050565b60006128e18261295a565b91506128ec8361295a565b9250828210156128ff576128fe6129e3565b5b828203905092915050565b60006129158261293a565b9050919050565b60006129278261293a565b9050919050565b60008115159050919050565b600073ffffffffffffffffffffffffffffffffffffffff82169050919050565b6000819050919050565b600061296f82612976565b9050919050565b600061298182612988565b9050919050565b60006129938261293a565b9050919050565b60006129a58261295a565b91507fffffffffffffffffffffffffffffffffffffffffffffffffffffffffffffffff8214156129d8576129d76129e3565b5b600182019050919050565b7f4e487b7100000000000000000000000000000000000000000000000000000000600052601160045260246000fd5b7f4e487b7100000000000000000000000000000000000000000000000000000000600052603260045260246000fd5b7f4e487b7100000000000000000000000000000000000000000000000000000000600052604160045260246000fd5b600080fd5b7f436f756e7465723a2064656372656d656e74206f766572666c6f770000000000600082015250565b7f4e6f7420656e6f75676820657468657220746f20636f7665722061736b696e6760008201527f2070726963650000000000000000000000000000000000000000000000000000602082015250565b7f4e6674206e6f7420666f756e6400000000000000000000000000000000000000600082015250565b7f4e6f7420656e6f75676820657468657220666f72206c697374696e6720666565600082015250565b7f5265656e7472616e637947756172643a207265656e7472616e742063616c6c00600082015250565b7f5072696365206d757374206265206174206c6561737420312077656900000000600082015250565b612b9a8161290a565b8114612ba557600080fd5b50565b612bb18161295a565b8114612bbc57600080fd5b5056fea2646970667358221220d7832f23eae8ed5f247be1f521ecd4f3927a12c5806bfb88e26de7b45348394d64736f6c63430008070033",
					"opcodes": "PUSH1 0x80 PUSH1 0x40 MSTORE PUSH7 0x71AFD498D0000 PUSH1 0x3 SSTORE CALLVALUE DUP1 ISZERO PUSH2 0x1B JUMPI PUSH1 0x0 DUP1 REVERT JUMPDEST POP PUSH1 0x1 PUSH1 0x0 DUP2 SWAP1 SSTORE POP CALLER PUSH1 0x4 PUSH1 0x0 PUSH2 0x100 EXP DUP2 SLOAD DUP2 PUSH20 0xFFFFFFFFFFFFFFFFFFFFFFFFFFFFFFFFFFFFFFFF MUL NOT AND SWAP1 DUP4 PUSH20 0xFFFFFFFFFFFFFFFFFFFFFFFFFFFFFFFFFFFFFFFF AND MUL OR SWAP1 SSTORE POP PUSH2 0x2BF5 DUP1 PUSH2 0x74 PUSH1 0x0 CODECOPY PUSH1 0x0 RETURN INVALID PUSH1 0x80 PUSH1 0x40 MSTORE PUSH1 0x4 CALLDATASIZE LT PUSH2 0x9C JUMPI PUSH1 0x0 CALLDATALOAD PUSH1 0xE0 SHR DUP1 PUSH4 0x6DC15E67 GT PUSH2 0x64 JUMPI DUP1 PUSH4 0x6DC15E67 EQ PUSH2 0x16C JUMPI DUP1 PUSH4 0x8492095A EQ PUSH2 0x197 JUMPI DUP1 PUSH4 0x8D6CB3FB EQ PUSH2 0x1C2 JUMPI DUP1 PUSH4 0xA46B5C5A EQ PUSH2 0x1ED JUMPI DUP1 PUSH4 0xAD05F1B4 EQ PUSH2 0x218 JUMPI DUP1 PUSH4 0xB8FE6ABE EQ PUSH2 0x234 JUMPI PUSH2 0x9C JUMP JUMPDEST DUP1 PUSH4 0x4935694 EQ PUSH2 0xA1 JUMPI DUP1 PUSH4 0x1F4CC4DB EQ PUSH2 0xBD JUMPI DUP1 PUSH4 0x2B86AE38 EQ PUSH2 0xE8 JUMPI DUP1 PUSH4 0x2F634A90 EQ PUSH2 0x113 JUMPI DUP1 PUSH4 0x4DDF4F8F EQ PUSH2 0x150 JUMPI JUMPDEST PUSH1 0x0 DUP1 REVERT JUMPDEST PUSH2 0xBB PUSH1 0x4 DUP1 CALLDATASIZE SUB DUP2 ADD SWAP1 PUSH2 0xB6 SWAP2 SWAP1 PUSH2 0x243D JUMP JUMPDEST PUSH2 0x25F JUMP JUMPDEST STOP JUMPDEST CALLVALUE DUP1 ISZERO PUSH2 0xC9 JUMPI PUSH1 0x0 DUP1 REVERT JUMPDEST POP PUSH2 0xD2 PUSH2 0x5C9 JUMP JUMPDEST PUSH1 0x40 MLOAD PUSH2 0xDF SWAP2 SWAP1 PUSH2 0x278F JUMP JUMPDEST PUSH1 0x40 MLOAD DUP1 SWAP2 SUB SWAP1 RETURN JUMPDEST CALLVALUE DUP1 ISZERO PUSH2 0xF4 JUMPI PUSH1 0x0 DUP1 REVERT JUMPDEST POP PUSH2 0xFD PUSH2 0x9D3 JUMP JUMPDEST PUSH1 0x40 MLOAD PUSH2 0x10A SWAP2 SWAP1 PUSH2 0x2871 JUMP JUMPDEST PUSH1 0x40 MLOAD DUP1 SWAP2 SUB SWAP1 RETURN JUMPDEST CALLVALUE DUP1 ISZERO PUSH2 0x11F JUMPI PUSH1 0x0 DUP1 REVERT JUMPDEST POP PUSH2 0x13A PUSH1 0x4 DUP1 CALLDATASIZE SUB DUP2 ADD SWAP1 PUSH2 0x135 SWAP2 SWAP1 PUSH2 0x23FD JUMP JUMPDEST PUSH2 0x9D9 JUMP JUMPDEST PUSH1 0x40 MLOAD PUSH2 0x147 SWAP2 SWAP1 PUSH2 0x26CF JUMP JUMPDEST PUSH1 0x40 MLOAD DUP1 SWAP2 SUB SWAP1 RETURN JUMPDEST PUSH2 0x16A PUSH1 0x4 DUP1 CALLDATASIZE SUB DUP2 ADD SWAP1 PUSH2 0x165 SWAP2 SWAP1 PUSH2 0x23FD JUMP JUMPDEST PUSH2 0xA6C JUMP JUMPDEST STOP JUMPDEST CALLVALUE DUP1 ISZERO PUSH2 0x178 JUMPI PUSH1 0x0 DUP1 REVERT JUMPDEST POP PUSH2 0x181 PUSH2 0xD67 JUMP JUMPDEST PUSH1 0x40 MLOAD PUSH2 0x18E SWAP2 SWAP1 PUSH2 0x278F JUMP JUMPDEST PUSH1 0x40 MLOAD DUP1 SWAP2 SUB SWAP1 RETURN JUMPDEST CALLVALUE DUP1 ISZERO PUSH2 0x1A3 JUMPI PUSH1 0x0 DUP1 REVERT JUMPDEST POP PUSH2 0x1AC PUSH2 0x1171 JUMP JUMPDEST PUSH1 0x40 MLOAD PUSH2 0x1B9 SWAP2 SWAP1 PUSH2 0x278F JUMP JUMPDEST PUSH1 0x40 MLOAD DUP1 SWAP2 SUB SWAP1 RETURN JUMPDEST CALLVALUE DUP1 ISZERO PUSH2 0x1CE JUMPI PUSH1 0x0 DUP1 REVERT JUMPDEST POP PUSH2 0x1D7 PUSH2 0x1505 JUMP JUMPDEST PUSH1 0x40 MLOAD PUSH2 0x1E4 SWAP2 SWAP1 PUSH2 0x278F JUMP JUMPDEST PUSH1 0x40 MLOAD DUP1 SWAP2 SUB SWAP1 RETURN JUMPDEST CALLVALUE DUP1 ISZERO PUSH2 0x1F9 JUMPI PUSH1 0x0 DUP1 REVERT JUMPDEST POP PUSH2 0x202 PUSH2 0x17C9 JUMP JUMPDEST PUSH1 0x40 MLOAD PUSH2 0x20F SWAP2 SWAP1 PUSH2 0x278F JUMP JUMPDEST PUSH1 0x40 MLOAD DUP1 SWAP2 SUB SWAP1 RETURN JUMPDEST PUSH2 0x232 PUSH1 0x4 DUP1 CALLDATASIZE SUB DUP2 ADD SWAP1 PUSH2 0x22D SWAP2 SWAP1 PUSH2 0x243D JUMP JUMPDEST PUSH2 0x1B5D JUMP JUMPDEST STOP JUMPDEST CALLVALUE DUP1 ISZERO PUSH2 0x240 JUMPI PUSH1 0x0 DUP1 REVERT JUMPDEST POP PUSH2 0x249 PUSH2 0x1F95 JUMP JUMPDEST PUSH1 0x40 MLOAD PUSH2 0x256 SWAP2 SWAP1 PUSH2 0x2871 JUMP JUMPDEST PUSH1 0x40 MLOAD DUP1 SWAP2 SUB SWAP1 RETURN JUMPDEST PUSH1 0x2 PUSH1 0x0 SLOAD EQ ISZERO PUSH2 0x2A5 JUMPI PUSH1 0x40 MLOAD PUSH32 0x8C379A000000000000000000000000000000000000000000000000000000000 DUP2 MSTORE PUSH1 0x4 ADD PUSH2 0x29C SWAP1 PUSH2 0x2831 JUMP JUMPDEST PUSH1 0x40 MLOAD DUP1 SWAP2 SUB SWAP1 REVERT JUMPDEST PUSH1 0x2 PUSH1 0x0 DUP2 SWAP1 SSTORE POP PUSH1 0x0 DUP2 GT PUSH2 0x2F0 JUMPI PUSH1 0x40 MLOAD PUSH32 0x8C379A000000000000000000000000000000000000000000000000000000000 DUP2 MSTORE PUSH1 0x4 ADD PUSH2 0x2E7 SWAP1 PUSH2 0x2851 JUMP JUMPDEST PUSH1 0x40 MLOAD DUP1 SWAP2 SUB SWAP1 REVERT JUMPDEST PUSH1 0x3 SLOAD CALLVALUE EQ PUSH2 0x334 JUMPI PUSH1 0x40 MLOAD PUSH32 0x8C379A000000000000000000000000000000000000000000000000000000000 DUP2 MSTORE PUSH1 0x4 ADD PUSH2 0x32B SWAP1 PUSH2 0x2811 JUMP JUMPDEST PUSH1 0x40 MLOAD DUP1 SWAP2 SUB SWAP1 REVERT JUMPDEST PUSH1 0x0 PUSH2 0x340 DUP5 DUP5 PUSH2 0x1F9F JUMP JUMPDEST SWAP1 POP DUP1 SWAP2 POP POP PUSH32 0xFFFFFFFFFFFFFFFFFFFFFFFFFFFFFFFFFFFFFFFFFFFFFFFFFFFFFFFFFFFFFFFF DUP2 EQ ISZERO PUSH2 0x3A9 JUMPI PUSH1 0x40 MLOAD PUSH32 0x8C379A000000000000000000000000000000000000000000000000000000000 DUP2 MSTORE PUSH1 0x4 ADD PUSH2 0x3A0 SWAP1 PUSH2 0x27F1 JUMP JUMPDEST PUSH1 0x40 MLOAD DUP1 SWAP2 SUB SWAP1 REVERT JUMPDEST DUP4 PUSH20 0xFFFFFFFFFFFFFFFFFFFFFFFFFFFFFFFFFFFFFFFF AND PUSH4 0x23B872DD CALLER ADDRESS DUP7 PUSH1 0x40 MLOAD DUP5 PUSH4 0xFFFFFFFF AND PUSH1 0xE0 SHL DUP2 MSTORE PUSH1 0x4 ADD PUSH2 0x3E6 SWAP4 SWAP3 SWAP2 SWAP1 PUSH2 0x2721 JUMP JUMPDEST PUSH1 0x0 PUSH1 0x40 MLOAD DUP1 DUP4 SUB DUP2 PUSH1 0x0 DUP8 DUP1 EXTCODESIZE ISZERO DUP1 ISZERO PUSH2 0x400 JUMPI PUSH1 0x0 DUP1 REVERT JUMPDEST POP GAS CALL ISZERO DUP1 ISZERO PUSH2 0x414 JUMPI RETURNDATASIZE PUSH1 0x0 DUP1 RETURNDATACOPY RETURNDATASIZE PUSH1 0x0 REVERT JUMPDEST POP POP POP POP CALLER PUSH1 0x5 DUP3 DUP2 SLOAD DUP2 LT PUSH2 0x42D JUMPI PUSH2 0x42C PUSH2 0x2A12 JUMP JUMPDEST JUMPDEST SWAP1 PUSH1 0x0 MSTORE PUSH1 0x20 PUSH1 0x0 KECCAK256 SWAP1 PUSH1 0x6 MUL ADD PUSH1 0x3 ADD PUSH1 0x0 PUSH2 0x100 EXP DUP2 SLOAD DUP2 PUSH20 0xFFFFFFFFFFFFFFFFFFFFFFFFFFFFFFFFFFFFFFFF MUL NOT AND SWAP1 DUP4 PUSH20 0xFFFFFFFFFFFFFFFFFFFFFFFFFFFFFFFFFFFFFFFF AND MUL OR SWAP1 SSTORE POP ADDRESS PUSH1 0x5 DUP3 DUP2 SLOAD DUP2 LT PUSH2 0x491 JUMPI PUSH2 0x490 PUSH2 0x2A12 JUMP JUMPDEST JUMPDEST SWAP1 PUSH1 0x0 MSTORE PUSH1 0x20 PUSH1 0x0 KECCAK256 SWAP1 PUSH1 0x6 MUL ADD PUSH1 0x4 ADD PUSH1 0x0 PUSH2 0x100 EXP DUP2 SLOAD DUP2 PUSH20 0xFFFFFFFFFFFFFFFFFFFFFFFFFFFFFFFFFFFFFFFF MUL NOT AND SWAP1 DUP4 PUSH20 0xFFFFFFFFFFFFFFFFFFFFFFFFFFFFFFFFFFFFFFFF AND MUL OR SWAP1 SSTORE POP PUSH1 0x1 PUSH1 0x5 DUP3 DUP2 SLOAD DUP2 LT PUSH2 0x4F6 JUMPI PUSH2 0x4F5 PUSH2 0x2A12 JUMP JUMPDEST JUMPDEST SWAP1 PUSH1 0x0 MSTORE PUSH1 0x20 PUSH1 0x0 KECCAK256 SWAP1 PUSH1 0x6 MUL ADD PUSH1 0x5 ADD PUSH1 0x14 PUSH2 0x100 EXP DUP2 SLOAD DUP2 PUSH1 0xFF MUL NOT AND SWAP1 DUP4 ISZERO ISZERO MUL OR SWAP1 SSTORE POP DUP2 PUSH1 0x5 DUP3 DUP2 SLOAD DUP2 LT PUSH2 0x533 JUMPI PUSH2 0x532 PUSH2 0x2A12 JUMP JUMPDEST JUMPDEST SWAP1 PUSH1 0x0 MSTORE PUSH1 0x20 PUSH1 0x0 KECCAK256 SWAP1 PUSH1 0x6 MUL ADD PUSH1 0x2 ADD DUP2 SWAP1 SSTORE POP PUSH2 0x552 PUSH1 0x1 PUSH2 0x227A JUMP JUMPDEST ADDRESS PUSH20 0xFFFFFFFFFFFFFFFFFFFFFFFFFFFFFFFFFFFFFFFF AND CALLER PUSH20 0xFFFFFFFFFFFFFFFFFFFFFFFFFFFFFFFFFFFFFFFF AND PUSH32 0xA0C6C0D02D86FDACECBAA5FDF5894BAB204E31A778250474108540733A9B8D19 DUP7 DUP7 DUP7 PUSH1 0x40 MLOAD PUSH2 0x5B3 SWAP4 SWAP3 SWAP2 SWAP1 PUSH2 0x2758 JUMP JUMPDEST PUSH1 0x40 MLOAD DUP1 SWAP2 SUB SWAP1 LOG3 POP PUSH1 0x1 PUSH1 0x0 DUP2 SWAP1 SSTORE POP POP POP POP JUMP JUMPDEST PUSH1 0x60 PUSH1 0x0 PUSH2 0x5D7 PUSH1 0x2 PUSH2 0x22D6 JUMP JUMPDEST SWAP1 POP PUSH1 0x0 DUP1 JUMPDEST DUP3 DUP2 LT ISZERO PUSH2 0x6BB JUMPI CALLER PUSH20 0xFFFFFFFFFFFFFFFFFFFFFFFFFFFFFFFFFFFFFFFF AND PUSH1 0x5 DUP3 DUP2 SLOAD DUP2 LT PUSH2 0x610 JUMPI PUSH2 0x60F PUSH2 0x2A12 JUMP JUMPDEST JUMPDEST SWAP1 PUSH1 0x0 MSTORE PUSH1 0x20 PUSH1 0x0 KECCAK256 SWAP1 PUSH1 0x6 MUL ADD PUSH1 0x3 ADD PUSH1 0x0 SWAP1 SLOAD SWAP1 PUSH2 0x100 EXP SWAP1 DIV PUSH20 0xFFFFFFFFFFFFFFFFFFFFFFFFFFFFFFFFFFFFFFFF AND PUSH20 0xFFFFFFFFFFFFFFFFFFFFFFFFFFFFFFFFFFFFFFFF AND EQ DUP1 ISZERO PUSH2 0x694 JUMPI POP PUSH1 0x5 DUP2 DUP2 SLOAD DUP2 LT PUSH2 0x674 JUMPI PUSH2 0x673 PUSH2 0x2A12 JUMP JUMPDEST JUMPDEST SWAP1 PUSH1 0x0 MSTORE PUSH1 0x20 PUSH1 0x0 KECCAK256 SWAP1 PUSH1 0x6 MUL ADD PUSH1 0x5 ADD PUSH1 0x14 SWAP1 SLOAD SWAP1 PUSH2 0x100 EXP SWAP1 DIV PUSH1 0xFF AND JUMPDEST ISZERO PUSH2 0x6A8 JUMPI DUP2 DUP1 PUSH2 0x6A4 SWAP1 PUSH2 0x299A JUMP JUMPDEST SWAP3 POP POP JUMPDEST DUP1 DUP1 PUSH2 0x6B3 SWAP1 PUSH2 0x299A JUMP JUMPDEST SWAP2 POP POP PUSH2 0x5DD JUMP JUMPDEST POP PUSH1 0x0 DUP2 PUSH8 0xFFFFFFFFFFFFFFFF DUP2 GT ISZERO PUSH2 0x6D8 JUMPI PUSH2 0x6D7 PUSH2 0x2A41 JUMP JUMPDEST JUMPDEST PUSH1 0x40 MLOAD SWAP1 DUP1 DUP3 MSTORE DUP1 PUSH1 0x20 MUL PUSH1 0x20 ADD DUP3 ADD PUSH1 0x40 MSTORE DUP1 ISZERO PUSH2 0x711 JUMPI DUP2 PUSH1 0x20 ADD JUMPDEST PUSH2 0x6FE PUSH2 0x22FA JUMP JUMPDEST DUP2 MSTORE PUSH1 0x20 ADD SWAP1 PUSH1 0x1 SWAP1 SUB SWAP1 DUP2 PUSH2 0x6F6 JUMPI SWAP1 POP JUMPDEST POP SWAP1 POP PUSH1 0x0 DUP1 JUMPDEST DUP5 DUP2 LT ISZERO PUSH2 0x9C8 JUMPI CALLER PUSH20 0xFFFFFFFFFFFFFFFFFFFFFFFFFFFFFFFFFFFFFFFF AND PUSH1 0x5 DUP3 DUP2 SLOAD DUP2 LT PUSH2 0x74B JUMPI PUSH2 0x74A PUSH2 0x2A12 JUMP JUMPDEST JUMPDEST SWAP1 PUSH1 0x0 MSTORE PUSH1 0x20 PUSH1 0x0 KECCAK256 SWAP1 PUSH1 0x6 MUL ADD PUSH1 0x3 ADD PUSH1 0x0 SWAP1 SLOAD SWAP1 PUSH2 0x100 EXP SWAP1 DIV PUSH20 0xFFFFFFFFFFFFFFFFFFFFFFFFFFFFFFFFFFFFFFFF AND PUSH20 0xFFFFFFFFFFFFFFFFFFFFFFFFFFFFFFFFFFFFFFFF AND EQ DUP1 ISZERO PUSH2 0x7CF JUMPI POP PUSH1 0x5 DUP2 DUP2 SLOAD DUP2 LT PUSH2 0x7AF JUMPI PUSH2 0x7AE PUSH2 0x2A12 JUMP JUMPDEST JUMPDEST SWAP1 PUSH1 0x0 MSTORE PUSH1 0x20 PUSH1 0x0 KECCAK256 SWAP1 PUSH1 0x6 MUL ADD PUSH1 0x5 ADD PUSH1 0x14 SWAP1 SLOAD SWAP1 PUSH2 0x100 EXP SWAP1 DIV PUSH1 0xFF AND JUMPDEST ISZERO PUSH2 0x9B5 JUMPI PUSH1 0x5 DUP2 DUP2 SLOAD DUP2 LT PUSH2 0x7E8 JUMPI PUSH2 0x7E7 PUSH2 0x2A12 JUMP JUMPDEST JUMPDEST SWAP1 PUSH1 0x0 MSTORE PUSH1 0x20 PUSH1 0x0 KECCAK256 SWAP1 PUSH1 0x6 MUL ADD PUSH1 0x40 MLOAD DUP1 PUSH1 0xE0 ADD PUSH1 0x40 MSTORE SWAP1 DUP2 PUSH1 0x0 DUP3 ADD PUSH1 0x0 SWAP1 SLOAD SWAP1 PUSH2 0x100 EXP SWAP1 DIV PUSH20 0xFFFFFFFFFFFFFFFFFFFFFFFFFFFFFFFFFFFFFFFF AND PUSH20 0xFFFFFFFFFFFFFFFFFFFFFFFFFFFFFFFFFFFFFFFF AND PUSH20 0xFFFFFFFFFFFFFFFFFFFFFFFFFFFFFFFFFFFFFFFF AND DUP2 MSTORE PUSH1 0x20 ADD PUSH1 0x1 DUP3 ADD SLOAD DUP2 MSTORE PUSH1 0x20 ADD PUSH1 0x2 DUP3 ADD SLOAD DUP2 MSTORE PUSH1 0x20 ADD PUSH1 0x3 DUP3 ADD PUSH1 0x0 SWAP1 SLOAD SWAP1 PUSH2 0x100 EXP SWAP1 DIV PUSH20 0xFFFFFFFFFFFFFFFFFFFFFFFFFFFFFFFFFFFFFFFF AND PUSH20 0xFFFFFFFFFFFFFFFFFFFFFFFFFFFFFFFFFFFFFFFF AND PUSH20 0xFFFFFFFFFFFFFFFFFFFFFFFFFFFFFFFFFFFFFFFF AND DUP2 MSTORE PUSH1 0x20 ADD PUSH1 0x4 DUP3 ADD PUSH1 0x0 SWAP1 SLOAD SWAP1 PUSH2 0x100 EXP SWAP1 DIV PUSH20 0xFFFFFFFFFFFFFFFFFFFFFFFFFFFFFFFFFFFFFFFF AND PUSH20 0xFFFFFFFFFFFFFFFFFFFFFFFFFFFFFFFFFFFFFFFF AND PUSH20 0xFFFFFFFFFFFFFFFFFFFFFFFFFFFFFFFFFFFFFFFF AND DUP2 MSTORE PUSH1 0x20 ADD PUSH1 0x5 DUP3 ADD PUSH1 0x0 SWAP1 SLOAD SWAP1 PUSH2 0x100 EXP SWAP1 DIV PUSH20 0xFFFFFFFFFFFFFFFFFFFFFFFFFFFFFFFFFFFFFFFF AND PUSH20 0xFFFFFFFFFFFFFFFFFFFFFFFFFFFFFFFFFFFFFFFF AND PUSH20 0xFFFFFFFFFFFFFFFFFFFFFFFFFFFFFFFFFFFFFFFF AND DUP2 MSTORE PUSH1 0x20 ADD PUSH1 0x5 DUP3 ADD PUSH1 0x14 SWAP1 SLOAD SWAP1 PUSH2 0x100 EXP SWAP1 DIV PUSH1 0xFF AND ISZERO ISZERO ISZERO ISZERO DUP2 MSTORE POP POP DUP4 DUP4 DUP2 MLOAD DUP2 LT PUSH2 0x99B JUMPI PUSH2 0x99A PUSH2 0x2A12 JUMP JUMPDEST JUMPDEST PUSH1 0x20 MUL PUSH1 0x20 ADD ADD DUP2 SWAP1 MSTORE POP DUP2 DUP1 PUSH2 0x9B1 SWAP1 PUSH2 0x299A JUMP JUMPDEST SWAP3 POP POP JUMPDEST DUP1 DUP1 PUSH2 0x9C0 SWAP1 PUSH2 0x299A JUMP JUMPDEST SWAP2 POP POP PUSH2 0x718 JUMP JUMPDEST POP DUP2 SWAP5 POP POP POP POP POP SWAP1 JUMP JUMPDEST PUSH1 0x3 SLOAD DUP2 JUMP JUMPDEST PUSH1 0x0 DUP3 PUSH20 0xFFFFFFFFFFFFFFFFFFFFFFFFFFFFFFFFFFFFFFFF AND PUSH4 0x6352211E DUP4 PUSH1 0x40 MLOAD DUP3 PUSH4 0xFFFFFFFF AND PUSH1 0xE0 SHL DUP2 MSTORE PUSH1 0x4 ADD PUSH2 0xA14 SWAP2 SWAP1 PUSH2 0x2871 JUMP JUMPDEST PUSH1 0x20 PUSH1 0x40 MLOAD DUP1 DUP4 SUB DUP2 DUP7 DUP1 EXTCODESIZE ISZERO DUP1 ISZERO PUSH2 0xA2C JUMPI PUSH1 0x0 DUP1 REVERT JUMPDEST POP GAS STATICCALL ISZERO DUP1 ISZERO PUSH2 0xA40 JUMPI RETURNDATASIZE PUSH1 0x0 DUP1 RETURNDATACOPY RETURNDATASIZE PUSH1 0x0 REVERT JUMPDEST POP POP POP POP PUSH1 0x40 MLOAD RETURNDATASIZE PUSH1 0x1F NOT PUSH1 0x1F DUP3 ADD AND DUP3 ADD DUP1 PUSH1 0x40 MSTORE POP DUP2 ADD SWAP1 PUSH2 0xA64 SWAP2 SWAP1 PUSH2 0x23D0 JUMP JUMPDEST SWAP1 POP SWAP3 SWAP2 POP POP JUMP JUMPDEST PUSH1 0x2 PUSH1 0x0 SLOAD EQ ISZERO PUSH2 0xAB2 JUMPI PUSH1 0x40 MLOAD PUSH32 0x8C379A000000000000000000000000000000000000000000000000000000000 DUP2 MSTORE PUSH1 0x4 ADD PUSH2 0xAA9 SWAP1 PUSH2 0x2831 JUMP JUMPDEST PUSH1 0x40 MLOAD DUP1 SWAP2 SUB SWAP1 REVERT JUMPDEST PUSH1 0x2 PUSH1 0x0 DUP2 SWAP1 SSTORE POP PUSH2 0xAC2 PUSH2 0x22FA JUMP JUMPDEST PUSH1 0x0 PUSH2 0xACE DUP5 DUP5 PUSH2 0x1F9F JUMP JUMPDEST DUP1 SWAP3 POP DUP2 SWAP4 POP POP POP PUSH32 0xFFFFFFFFFFFFFFFFFFFFFFFFFFFFFFFFFFFFFFFFFFFFFFFFFFFFFFFFFFFFFFFF DUP2 EQ ISZERO PUSH2 0xB39 JUMPI PUSH1 0x40 MLOAD PUSH32 0x8C379A000000000000000000000000000000000000000000000000000000000 DUP2 MSTORE PUSH1 0x4 ADD PUSH2 0xB30 SWAP1 PUSH2 0x27F1 JUMP JUMPDEST PUSH1 0x40 MLOAD DUP1 SWAP2 SUB SWAP1 REVERT JUMPDEST DUP2 PUSH1 0x40 ADD MLOAD CALLVALUE LT ISZERO PUSH2 0xB80 JUMPI PUSH1 0x40 MLOAD PUSH32 0x8C379A000000000000000000000000000000000000000000000000000000000 DUP2 MSTORE PUSH1 0x4 ADD PUSH2 0xB77 SWAP1 PUSH2 0x27D1 JUMP JUMPDEST PUSH1 0x40 MLOAD DUP1 SWAP2 SUB SWAP1 REVERT JUMPDEST PUSH1 0x0 CALLER SWAP1 POP DUP3 PUSH1 0x60 ADD MLOAD PUSH20 0xFFFFFFFFFFFFFFFFFFFFFFFFFFFFFFFFFFFFFFFF AND PUSH2 0x8FC CALLVALUE SWAP1 DUP2 ISZERO MUL SWAP1 PUSH1 0x40 MLOAD PUSH1 0x0 PUSH1 0x40 MLOAD DUP1 DUP4 SUB DUP2 DUP6 DUP9 DUP9 CALL SWAP4 POP POP POP POP ISZERO DUP1 ISZERO PUSH2 0xBCF JUMPI RETURNDATASIZE PUSH1 0x0 DUP1 RETURNDATACOPY RETURNDATASIZE PUSH1 0x0 REVERT JUMPDEST POP DUP5 PUSH20 0xFFFFFFFFFFFFFFFFFFFFFFFFFFFFFFFFFFFFFFFF AND PUSH4 0x23B872DD ADDRESS DUP4 DUP8 PUSH1 0x40 MLOAD DUP5 PUSH4 0xFFFFFFFF AND PUSH1 0xE0 SHL DUP2 MSTORE PUSH1 0x4 ADD PUSH2 0xC0D SWAP4 SWAP3 SWAP2 SWAP1 PUSH2 0x26EA JUMP JUMPDEST PUSH1 0x0 PUSH1 0x40 MLOAD DUP1 DUP4 SUB DUP2 PUSH1 0x0 DUP8 DUP1 EXTCODESIZE ISZERO DUP1 ISZERO PUSH2 0xC27 JUMPI PUSH1 0x0 DUP1 REVERT JUMPDEST POP GAS CALL ISZERO DUP1 ISZERO PUSH2 0xC3B JUMPI RETURNDATASIZE PUSH1 0x0 DUP1 RETURNDATACOPY RETURNDATASIZE PUSH1 0x0 REVERT JUMPDEST POP POP POP POP DUP1 PUSH1 0x5 DUP4 DUP2 SLOAD DUP2 LT PUSH2 0xC54 JUMPI PUSH2 0xC53 PUSH2 0x2A12 JUMP JUMPDEST JUMPDEST SWAP1 PUSH1 0x0 MSTORE PUSH1 0x20 PUSH1 0x0 KECCAK256 SWAP1 PUSH1 0x6 MUL ADD PUSH1 0x4 ADD PUSH1 0x0 PUSH2 0x100 EXP DUP2 SLOAD DUP2 PUSH20 0xFFFFFFFFFFFFFFFFFFFFFFFFFFFFFFFFFFFFFFFF MUL NOT AND SWAP1 DUP4 PUSH20 0xFFFFFFFFFFFFFFFFFFFFFFFFFFFFFFFFFFFFFFFF AND MUL OR SWAP1 SSTORE POP PUSH1 0x0 PUSH1 0x5 DUP4 DUP2 SLOAD DUP2 LT PUSH2 0xCB9 JUMPI PUSH2 0xCB8 PUSH2 0x2A12 JUMP JUMPDEST JUMPDEST SWAP1 PUSH1 0x0 MSTORE PUSH1 0x20 PUSH1 0x0 KECCAK256 SWAP1 PUSH1 0x6 MUL ADD PUSH1 0x5 ADD PUSH1 0x14 PUSH2 0x100 EXP DUP2 SLOAD DUP2 PUSH1 0xFF MUL NOT AND SWAP1 DUP4 ISZERO ISZERO MUL OR SWAP1 SSTORE POP PUSH2 0xCEB PUSH1 0x1 PUSH2 0x22E4 JUMP JUMPDEST DUP1 PUSH20 0xFFFFFFFFFFFFFFFFFFFFFFFFFFFFFFFFFFFFFFFF AND DUP4 PUSH1 0x60 ADD MLOAD PUSH20 0xFFFFFFFFFFFFFFFFFFFFFFFFFFFFFFFFFFFFFFFF AND PUSH32 0x16F1DBD97E6BF646D429ED186CCE832F1F7FD9907814293B83181E9970AB7BD2 DUP8 DUP8 CALLVALUE PUSH1 0x40 MLOAD PUSH2 0xD50 SWAP4 SWAP3 SWAP2 SWAP1 PUSH2 0x2758 JUMP JUMPDEST PUSH1 0x40 MLOAD DUP1 SWAP2 SUB SWAP1 LOG3 POP POP POP PUSH1 0x1 PUSH1 0x0 DUP2 SWAP1 SSTORE POP POP POP JUMP JUMPDEST PUSH1 0x60 PUSH1 0x0 PUSH2 0xD75 PUSH1 0x2 PUSH2 0x22D6 JUMP JUMPDEST SWAP1 POP PUSH1 0x0 DUP1 JUMPDEST DUP3 DUP2 LT ISZERO PUSH2 0xE59 JUMPI CALLER PUSH20 0xFFFFFFFFFFFFFFFFFFFFFFFFFFFFFFFFFFFFFFFF AND PUSH1 0x5 DUP3 DUP2 SLOAD DUP2 LT PUSH2 0xDAE JUMPI PUSH2 0xDAD PUSH2 0x2A12 JUMP JUMPDEST JUMPDEST SWAP1 PUSH1 0x0 MSTORE PUSH1 0x20 PUSH1 0x0 KECCAK256 SWAP1 PUSH1 0x6 MUL ADD PUSH1 0x3 ADD PUSH1 0x0 SWAP1 SLOAD SWAP1 PUSH2 0x100 EXP SWAP1 DIV PUSH20 0xFFFFFFFFFFFFFFFFFFFFFFFFFFFFFFFFFFFFFFFF AND PUSH20 0xFFFFFFFFFFFFFFFFFFFFFFFFFFFFFFFFFFFFFFFF AND EQ DUP1 ISZERO PUSH2 0xE32 JUMPI POP PUSH1 0x5 DUP2 DUP2 SLOAD DUP2 LT PUSH2 0xE12 JUMPI PUSH2 0xE11 PUSH2 0x2A12 JUMP JUMPDEST JUMPDEST SWAP1 PUSH1 0x0 MSTORE PUSH1 0x20 PUSH1 0x0 KECCAK256 SWAP1 PUSH1 0x6 MUL ADD PUSH1 0x5 ADD PUSH1 0x14 SWAP1 SLOAD SWAP1 PUSH2 0x100 EXP SWAP1 DIV PUSH1 0xFF AND JUMPDEST ISZERO PUSH2 0xE46 JUMPI DUP2 DUP1 PUSH2 0xE42 SWAP1 PUSH2 0x299A JUMP JUMPDEST SWAP3 POP POP JUMPDEST DUP1 DUP1 PUSH2 0xE51 SWAP1 PUSH2 0x299A JUMP JUMPDEST SWAP2 POP POP PUSH2 0xD7B JUMP JUMPDEST POP PUSH1 0x0 DUP2 PUSH8 0xFFFFFFFFFFFFFFFF DUP2 GT ISZERO PUSH2 0xE76 JUMPI PUSH2 0xE75 PUSH2 0x2A41 JUMP JUMPDEST JUMPDEST PUSH1 0x40 MLOAD SWAP1 DUP1 DUP3 MSTORE DUP1 PUSH1 0x20 MUL PUSH1 0x20 ADD DUP3 ADD PUSH1 0x40 MSTORE DUP1 ISZERO PUSH2 0xEAF JUMPI DUP2 PUSH1 0x20 ADD JUMPDEST PUSH2 0xE9C PUSH2 0x22FA JUMP JUMPDEST DUP2 MSTORE PUSH1 0x20 ADD SWAP1 PUSH1 0x1 SWAP1 SUB SWAP1 DUP2 PUSH2 0xE94 JUMPI SWAP1 POP JUMPDEST POP SWAP1 POP PUSH1 0x0 DUP1 JUMPDEST DUP5 DUP2 LT ISZERO PUSH2 0x1166 JUMPI CALLER PUSH20 0xFFFFFFFFFFFFFFFFFFFFFFFFFFFFFFFFFFFFFFFF AND PUSH1 0x5 DUP3 DUP2 SLOAD DUP2 LT PUSH2 0xEE9 JUMPI PUSH2 0xEE8 PUSH2 0x2A12 JUMP JUMPDEST JUMPDEST SWAP1 PUSH1 0x0 MSTORE PUSH1 0x20 PUSH1 0x0 KECCAK256 SWAP1 PUSH1 0x6 MUL ADD PUSH1 0x3 ADD PUSH1 0x0 SWAP1 SLOAD SWAP1 PUSH2 0x100 EXP SWAP1 DIV PUSH20 0xFFFFFFFFFFFFFFFFFFFFFFFFFFFFFFFFFFFFFFFF AND PUSH20 0xFFFFFFFFFFFFFFFFFFFFFFFFFFFFFFFFFFFFFFFF AND EQ DUP1 ISZERO PUSH2 0xF6D JUMPI POP PUSH1 0x5 DUP2 DUP2 SLOAD DUP2 LT PUSH2 0xF4D JUMPI PUSH2 0xF4C PUSH2 0x2A12 JUMP JUMPDEST JUMPDEST SWAP1 PUSH1 0x0 MSTORE PUSH1 0x20 PUSH1 0x0 KECCAK256 SWAP1 PUSH1 0x6 MUL ADD PUSH1 0x5 ADD PUSH1 0x14 SWAP1 SLOAD SWAP1 PUSH2 0x100 EXP SWAP1 DIV PUSH1 0xFF AND JUMPDEST ISZERO PUSH2 0x1153 JUMPI PUSH1 0x5 DUP2 DUP2 SLOAD DUP2 LT PUSH2 0xF86 JUMPI PUSH2 0xF85 PUSH2 0x2A12 JUMP JUMPDEST JUMPDEST SWAP1 PUSH1 0x0 MSTORE PUSH1 0x20 PUSH1 0x0 KECCAK256 SWAP1 PUSH1 0x6 MUL ADD PUSH1 0x40 MLOAD DUP1 PUSH1 0xE0 ADD PUSH1 0x40 MSTORE SWAP1 DUP2 PUSH1 0x0 DUP3 ADD PUSH1 0x0 SWAP1 SLOAD SWAP1 PUSH2 0x100 EXP SWAP1 DIV PUSH20 0xFFFFFFFFFFFFFFFFFFFFFFFFFFFFFFFFFFFFFFFF AND PUSH20 0xFFFFFFFFFFFFFFFFFFFFFFFFFFFFFFFFFFFFFFFF AND PUSH20 0xFFFFFFFFFFFFFFFFFFFFFFFFFFFFFFFFFFFFFFFF AND DUP2 MSTORE PUSH1 0x20 ADD PUSH1 0x1 DUP3 ADD SLOAD DUP2 MSTORE PUSH1 0x20 ADD PUSH1 0x2 DUP3 ADD SLOAD DUP2 MSTORE PUSH1 0x20 ADD PUSH1 0x3 DUP3 ADD PUSH1 0x0 SWAP1 SLOAD SWAP1 PUSH2 0x100 EXP SWAP1 DIV PUSH20 0xFFFFFFFFFFFFFFFFFFFFFFFFFFFFFFFFFFFFFFFF AND PUSH20 0xFFFFFFFFFFFFFFFFFFFFFFFFFFFFFFFFFFFFFFFF AND PUSH20 0xFFFFFFFFFFFFFFFFFFFFFFFFFFFFFFFFFFFFFFFF AND DUP2 MSTORE PUSH1 0x20 ADD PUSH1 0x4 DUP3 ADD PUSH1 0x0 SWAP1 SLOAD SWAP1 PUSH2 0x100 EXP SWAP1 DIV PUSH20 0xFFFFFFFFFFFFFFFFFFFFFFFFFFFFFFFFFFFFFFFF AND PUSH20 0xFFFFFFFFFFFFFFFFFFFFFFFFFFFFFFFFFFFFFFFF AND PUSH20 0xFFFFFFFFFFFFFFFFFFFFFFFFFFFFFFFFFFFFFFFF AND DUP2 MSTORE PUSH1 0x20 ADD PUSH1 0x5 DUP3 ADD PUSH1 0x0 SWAP1 SLOAD SWAP1 PUSH2 0x100 EXP SWAP1 DIV PUSH20 0xFFFFFFFFFFFFFFFFFFFFFFFFFFFFFFFFFFFFFFFF AND PUSH20 0xFFFFFFFFFFFFFFFFFFFFFFFFFFFFFFFFFFFFFFFF AND PUSH20 0xFFFFFFFFFFFFFFFFFFFFFFFFFFFFFFFFFFFFFFFF AND DUP2 MSTORE PUSH1 0x20 ADD PUSH1 0x5 DUP3 ADD PUSH1 0x14 SWAP1 SLOAD SWAP1 PUSH2 0x100 EXP SWAP1 DIV PUSH1 0xFF AND ISZERO ISZERO ISZERO ISZERO DUP2 MSTORE POP POP DUP4 DUP4 DUP2 MLOAD DUP2 LT PUSH2 0x1139 JUMPI PUSH2 0x1138 PUSH2 0x2A12 JUMP JUMPDEST JUMPDEST PUSH1 0x20 MUL PUSH1 0x20 ADD ADD DUP2 SWAP1 MSTORE POP DUP2 DUP1 PUSH2 0x114F SWAP1 PUSH2 0x299A JUMP JUMPDEST SWAP3 POP POP JUMPDEST DUP1 DUP1 PUSH2 0x115E SWAP1 PUSH2 0x299A JUMP JUMPDEST SWAP2 POP POP PUSH2 0xEB6 JUMP JUMPDEST POP DUP2 SWAP5 POP POP POP POP POP SWAP1 JUMP JUMPDEST PUSH1 0x60 PUSH1 0x0 PUSH2 0x117F PUSH1 0x2 PUSH2 0x22D6 JUMP JUMPDEST SWAP1 POP PUSH1 0x0 DUP1 JUMPDEST DUP3 DUP2 LT ISZERO PUSH2 0x1228 JUMPI CALLER PUSH20 0xFFFFFFFFFFFFFFFFFFFFFFFFFFFFFFFFFFFFFFFF AND PUSH1 0x5 DUP3 DUP2 SLOAD DUP2 LT PUSH2 0x11B8 JUMPI PUSH2 0x11B7 PUSH2 0x2A12 JUMP JUMPDEST JUMPDEST SWAP1 PUSH1 0x0 MSTORE PUSH1 0x20 PUSH1 0x0 KECCAK256 SWAP1 PUSH1 0x6 MUL ADD PUSH1 0x5 ADD PUSH1 0x0 SWAP1 SLOAD SWAP1 PUSH2 0x100 EXP SWAP1 DIV PUSH20 0xFFFFFFFFFFFFFFFFFFFFFFFFFFFFFFFFFFFFFFFF AND PUSH20 0xFFFFFFFFFFFFFFFFFFFFFFFFFFFFFFFFFFFFFFFF AND EQ ISZERO PUSH2 0x1215 JUMPI DUP2 DUP1 PUSH2 0x1211 SWAP1 PUSH2 0x299A JUMP JUMPDEST SWAP3 POP POP JUMPDEST DUP1 DUP1 PUSH2 0x1220 SWAP1 PUSH2 0x299A JUMP JUMPDEST SWAP2 POP POP PUSH2 0x1185 JUMP JUMPDEST POP PUSH1 0x0 DUP2 PUSH8 0xFFFFFFFFFFFFFFFF DUP2 GT ISZERO PUSH2 0x1245 JUMPI PUSH2 0x1244 PUSH2 0x2A41 JUMP JUMPDEST JUMPDEST PUSH1 0x40 MLOAD SWAP1 DUP1 DUP3 MSTORE DUP1 PUSH1 0x20 MUL PUSH1 0x20 ADD DUP3 ADD PUSH1 0x40 MSTORE DUP1 ISZERO PUSH2 0x127E JUMPI DUP2 PUSH1 0x20 ADD JUMPDEST PUSH2 0x126B PUSH2 0x22FA JUMP JUMPDEST DUP2 MSTORE PUSH1 0x20 ADD SWAP1 PUSH1 0x1 SWAP1 SUB SWAP1 DUP2 PUSH2 0x1263 JUMPI SWAP1 POP JUMPDEST POP SWAP1 POP PUSH1 0x0 DUP1 JUMPDEST DUP5 DUP2 LT ISZERO PUSH2 0x14FA JUMPI CALLER PUSH20 0xFFFFFFFFFFFFFFFFFFFFFFFFFFFFFFFFFFFFFFFF AND PUSH1 0x5 DUP3 DUP2 SLOAD DUP2 LT PUSH2 0x12B8 JUMPI PUSH2 0x12B7 PUSH2 0x2A12 JUMP JUMPDEST JUMPDEST SWAP1 PUSH1 0x0 MSTORE PUSH1 0x20 PUSH1 0x0 KECCAK256 SWAP1 PUSH1 0x6 MUL ADD PUSH1 0x5 ADD PUSH1 0x0 SWAP1 SLOAD SWAP1 PUSH2 0x100 EXP SWAP1 DIV PUSH20 0xFFFFFFFFFFFFFFFFFFFFFFFFFFFFFFFFFFFFFFFF AND PUSH20 0xFFFFFFFFFFFFFFFFFFFFFFFFFFFFFFFFFFFFFFFF AND EQ ISZERO PUSH2 0x14E7 JUMPI PUSH1 0x5 DUP2 DUP2 SLOAD DUP2 LT PUSH2 0x131A JUMPI PUSH2 0x1319 PUSH2 0x2A12 JUMP JUMPDEST JUMPDEST SWAP1 PUSH1 0x0 MSTORE PUSH1 0x20 PUSH1 0x0 KECCAK256 SWAP1 PUSH1 0x6 MUL ADD PUSH1 0x40 MLOAD DUP1 PUSH1 0xE0 ADD PUSH1 0x40 MSTORE SWAP1 DUP2 PUSH1 0x0 DUP3 ADD PUSH1 0x0 SWAP1 SLOAD SWAP1 PUSH2 0x100 EXP SWAP1 DIV PUSH20 0xFFFFFFFFFFFFFFFFFFFFFFFFFFFFFFFFFFFFFFFF AND PUSH20 0xFFFFFFFFFFFFFFFFFFFFFFFFFFFFFFFFFFFFFFFF AND PUSH20 0xFFFFFFFFFFFFFFFFFFFFFFFFFFFFFFFFFFFFFFFF AND DUP2 MSTORE PUSH1 0x20 ADD PUSH1 0x1 DUP3 ADD SLOAD DUP2 MSTORE PUSH1 0x20 ADD PUSH1 0x2 DUP3 ADD SLOAD DUP2 MSTORE PUSH1 0x20 ADD PUSH1 0x3 DUP3 ADD PUSH1 0x0 SWAP1 SLOAD SWAP1 PUSH2 0x100 EXP SWAP1 DIV PUSH20 0xFFFFFFFFFFFFFFFFFFFFFFFFFFFFFFFFFFFFFFFF AND PUSH20 0xFFFFFFFFFFFFFFFFFFFFFFFFFFFFFFFFFFFFFFFF AND PUSH20 0xFFFFFFFFFFFFFFFFFFFFFFFFFFFFFFFFFFFFFFFF AND DUP2 MSTORE PUSH1 0x20 ADD PUSH1 0x4 DUP3 ADD PUSH1 0x0 SWAP1 SLOAD SWAP1 PUSH2 0x100 EXP SWAP1 DIV PUSH20 0xFFFFFFFFFFFFFFFFFFFFFFFFFFFFFFFFFFFFFFFF AND PUSH20 0xFFFFFFFFFFFFFFFFFFFFFFFFFFFFFFFFFFFFFFFF AND PUSH20 0xFFFFFFFFFFFFFFFFFFFFFFFFFFFFFFFFFFFFFFFF AND DUP2 MSTORE PUSH1 0x20 ADD PUSH1 0x5 DUP3 ADD PUSH1 0x0 SWAP1 SLOAD SWAP1 PUSH2 0x100 EXP SWAP1 DIV PUSH20 0xFFFFFFFFFFFFFFFFFFFFFFFFFFFFFFFFFFFFFFFF AND PUSH20 0xFFFFFFFFFFFFFFFFFFFFFFFFFFFFFFFFFFFFFFFF AND PUSH20 0xFFFFFFFFFFFFFFFFFFFFFFFFFFFFFFFFFFFFFFFF AND DUP2 MSTORE PUSH1 0x20 ADD PUSH1 0x5 DUP3 ADD PUSH1 0x14 SWAP1 SLOAD SWAP1 PUSH2 0x100 EXP SWAP1 DIV PUSH1 0xFF AND ISZERO ISZERO ISZERO ISZERO DUP2 MSTORE POP POP DUP4 DUP4 DUP2 MLOAD DUP2 LT PUSH2 0x14CD JUMPI PUSH2 0x14CC PUSH2 0x2A12 JUMP JUMPDEST JUMPDEST PUSH1 0x20 MUL PUSH1 0x20 ADD ADD DUP2 SWAP1 MSTORE POP DUP2 DUP1 PUSH2 0x14E3 SWAP1 PUSH2 0x299A JUMP JUMPDEST SWAP3 POP POP JUMPDEST DUP1 DUP1 PUSH2 0x14F2 SWAP1 PUSH2 0x299A JUMP JUMPDEST SWAP2 POP POP PUSH2 0x1285 JUMP JUMPDEST POP DUP2 SWAP5 POP POP POP POP POP SWAP1 JUMP JUMPDEST PUSH1 0x60 PUSH1 0x0 PUSH2 0x1513 PUSH1 0x2 PUSH2 0x22D6 JUMP JUMPDEST SWAP1 POP PUSH1 0x0 PUSH2 0x1521 PUSH1 0x1 PUSH2 0x22D6 JUMP JUMPDEST DUP3 PUSH2 0x152C SWAP2 SWAP1 PUSH2 0x28D6 JUMP JUMPDEST SWAP1 POP PUSH1 0x0 DUP2 PUSH8 0xFFFFFFFFFFFFFFFF DUP2 GT ISZERO PUSH2 0x154A JUMPI PUSH2 0x1549 PUSH2 0x2A41 JUMP JUMPDEST JUMPDEST PUSH1 0x40 MLOAD SWAP1 DUP1 DUP3 MSTORE DUP1 PUSH1 0x20 MUL PUSH1 0x20 ADD DUP3 ADD PUSH1 0x40 MSTORE DUP1 ISZERO PUSH2 0x1583 JUMPI DUP2 PUSH1 0x20 ADD JUMPDEST PUSH2 0x1570 PUSH2 0x22FA JUMP JUMPDEST DUP2 MSTORE PUSH1 0x20 ADD SWAP1 PUSH1 0x1 SWAP1 SUB SWAP1 DUP2 PUSH2 0x1568 JUMPI SWAP1 POP JUMPDEST POP SWAP1 POP PUSH1 0x0 DUP1 JUMPDEST DUP5 DUP2 LT ISZERO PUSH2 0x17BE JUMPI PUSH1 0x5 DUP2 DUP2 SLOAD DUP2 LT PUSH2 0x15A6 JUMPI PUSH2 0x15A5 PUSH2 0x2A12 JUMP JUMPDEST JUMPDEST SWAP1 PUSH1 0x0 MSTORE PUSH1 0x20 PUSH1 0x0 KECCAK256 SWAP1 PUSH1 0x6 MUL ADD PUSH1 0x5 ADD PUSH1 0x14 SWAP1 SLOAD SWAP1 PUSH2 0x100 EXP SWAP1 DIV PUSH1 0xFF AND ISZERO PUSH2 0x17AB JUMPI PUSH1 0x5 DUP2 DUP2 SLOAD DUP2 LT PUSH2 0x15DE JUMPI PUSH2 0x15DD PUSH2 0x2A12 JUMP JUMPDEST JUMPDEST SWAP1 PUSH1 0x0 MSTORE PUSH1 0x20 PUSH1 0x0 KECCAK256 SWAP1 PUSH1 0x6 MUL ADD PUSH1 0x40 MLOAD DUP1 PUSH1 0xE0 ADD PUSH1 0x40 MSTORE SWAP1 DUP2 PUSH1 0x0 DUP3 ADD PUSH1 0x0 SWAP1 SLOAD SWAP1 PUSH2 0x100 EXP SWAP1 DIV PUSH20 0xFFFFFFFFFFFFFFFFFFFFFFFFFFFFFFFFFFFFFFFF AND PUSH20 0xFFFFFFFFFFFFFFFFFFFFFFFFFFFFFFFFFFFFFFFF AND PUSH20 0xFFFFFFFFFFFFFFFFFFFFFFFFFFFFFFFFFFFFFFFF AND DUP2 MSTORE PUSH1 0x20 ADD PUSH1 0x1 DUP3 ADD SLOAD DUP2 MSTORE PUSH1 0x20 ADD PUSH1 0x2 DUP3 ADD SLOAD DUP2 MSTORE PUSH1 0x20 ADD PUSH1 0x3 DUP3 ADD PUSH1 0x0 SWAP1 SLOAD SWAP1 PUSH2 0x100 EXP SWAP1 DIV PUSH20 0xFFFFFFFFFFFFFFFFFFFFFFFFFFFFFFFFFFFFFFFF AND PUSH20 0xFFFFFFFFFFFFFFFFFFFFFFFFFFFFFFFFFFFFFFFF AND PUSH20 0xFFFFFFFFFFFFFFFFFFFFFFFFFFFFFFFFFFFFFFFF AND DUP2 MSTORE PUSH1 0x20 ADD PUSH1 0x4 DUP3 ADD PUSH1 0x0 SWAP1 SLOAD SWAP1 PUSH2 0x100 EXP SWAP1 DIV PUSH20 0xFFFFFFFFFFFFFFFFFFFFFFFFFFFFFFFFFFFFFFFF AND PUSH20 0xFFFFFFFFFFFFFFFFFFFFFFFFFFFFFFFFFFFFFFFF AND PUSH20 0xFFFFFFFFFFFFFFFFFFFFFFFFFFFFFFFFFFFFFFFF AND DUP2 MSTORE PUSH1 0x20 ADD PUSH1 0x5 DUP3 ADD PUSH1 0x0 SWAP1 SLOAD SWAP1 PUSH2 0x100 EXP SWAP1 DIV PUSH20 0xFFFFFFFFFFFFFFFFFFFFFFFFFFFFFFFFFFFFFFFF AND PUSH20 0xFFFFFFFFFFFFFFFFFFFFFFFFFFFFFFFFFFFFFFFF AND PUSH20 0xFFFFFFFFFFFFFFFFFFFFFFFFFFFFFFFFFFFFFFFF AND DUP2 MSTORE PUSH1 0x20 ADD PUSH1 0x5 DUP3 ADD PUSH1 0x14 SWAP1 SLOAD SWAP1 PUSH2 0x100 EXP SWAP1 DIV PUSH1 0xFF AND ISZERO ISZERO ISZERO ISZERO DUP2 MSTORE POP POP DUP4 DUP4 DUP2 MLOAD DUP2 LT PUSH2 0x1791 JUMPI PUSH2 0x1790 PUSH2 0x2A12 JUMP JUMPDEST JUMPDEST PUSH1 0x20 MUL PUSH1 0x20 ADD ADD DUP2 SWAP1 MSTORE POP DUP2 DUP1 PUSH2 0x17A7 SWAP1 PUSH2 0x299A JUMP JUMPDEST SWAP3 POP POP JUMPDEST DUP1 DUP1 PUSH2 0x17B6 SWAP1 PUSH2 0x299A JUMP JUMPDEST SWAP2 POP POP PUSH2 0x158A JUMP JUMPDEST POP DUP2 SWAP5 POP POP POP POP POP SWAP1 JUMP JUMPDEST PUSH1 0x60 PUSH1 0x0 PUSH2 0x17D7 PUSH1 0x2 PUSH2 0x22D6 JUMP JUMPDEST SWAP1 POP PUSH1 0x0 DUP1 JUMPDEST DUP3 DUP2 LT ISZERO PUSH2 0x1880 JUMPI CALLER PUSH20 0xFFFFFFFFFFFFFFFFFFFFFFFFFFFFFFFFFFFFFFFF AND PUSH1 0x5 DUP3 DUP2 SLOAD DUP2 LT PUSH2 0x1810 JUMPI PUSH2 0x180F PUSH2 0x2A12 JUMP JUMPDEST JUMPDEST SWAP1 PUSH1 0x0 MSTORE PUSH1 0x20 PUSH1 0x0 KECCAK256 SWAP1 PUSH1 0x6 MUL ADD PUSH1 0x4 ADD PUSH1 0x0 SWAP1 SLOAD SWAP1 PUSH2 0x100 EXP SWAP1 DIV PUSH20 0xFFFFFFFFFFFFFFFFFFFFFFFFFFFFFFFFFFFFFFFF AND PUSH20 0xFFFFFFFFFFFFFFFFFFFFFFFFFFFFFFFFFFFFFFFF AND EQ ISZERO PUSH2 0x186D JUMPI DUP2 DUP1 PUSH2 0x1869 SWAP1 PUSH2 0x299A JUMP JUMPDEST SWAP3 POP POP JUMPDEST DUP1 DUP1 PUSH2 0x1878 SWAP1 PUSH2 0x299A JUMP JUMPDEST SWAP2 POP POP PUSH2 0x17DD JUMP JUMPDEST POP PUSH1 0x0 DUP2 PUSH8 0xFFFFFFFFFFFFFFFF DUP2 GT ISZERO PUSH2 0x189D JUMPI PUSH2 0x189C PUSH2 0x2A41 JUMP JUMPDEST JUMPDEST PUSH1 0x40 MLOAD SWAP1 DUP1 DUP3 MSTORE DUP1 PUSH1 0x20 MUL PUSH1 0x20 ADD DUP3 ADD PUSH1 0x40 MSTORE DUP1 ISZERO PUSH2 0x18D6 JUMPI DUP2 PUSH1 0x20 ADD JUMPDEST PUSH2 0x18C3 PUSH2 0x22FA JUMP JUMPDEST DUP2 MSTORE PUSH1 0x20 ADD SWAP1 PUSH1 0x1 SWAP1 SUB SWAP1 DUP2 PUSH2 0x18BB JUMPI SWAP1 POP JUMPDEST POP SWAP1 POP PUSH1 0x0 DUP1 JUMPDEST DUP5 DUP2 LT ISZERO PUSH2 0x1B52 JUMPI CALLER PUSH20 0xFFFFFFFFFFFFFFFFFFFFFFFFFFFFFFFFFFFFFFFF AND PUSH1 0x5 DUP3 DUP2 SLOAD DUP2 LT PUSH2 0x1910 JUMPI PUSH2 0x190F PUSH2 0x2A12 JUMP JUMPDEST JUMPDEST SWAP1 PUSH1 0x0 MSTORE PUSH1 0x20 PUSH1 0x0 KECCAK256 SWAP1 PUSH1 0x6 MUL ADD PUSH1 0x4 ADD PUSH1 0x0 SWAP1 SLOAD SWAP1 PUSH2 0x100 EXP SWAP1 DIV PUSH20 0xFFFFFFFFFFFFFFFFFFFFFFFFFFFFFFFFFFFFFFFF AND PUSH20 0xFFFFFFFFFFFFFFFFFFFFFFFFFFFFFFFFFFFFFFFF AND EQ ISZERO PUSH2 0x1B3F JUMPI PUSH1 0x5 DUP2 DUP2 SLOAD DUP2 LT PUSH2 0x1972 JUMPI PUSH2 0x1971 PUSH2 0x2A12 JUMP JUMPDEST JUMPDEST SWAP1 PUSH1 0x0 MSTORE PUSH1 0x20 PUSH1 0x0 KECCAK256 SWAP1 PUSH1 0x6 MUL ADD PUSH1 0x40 MLOAD DUP1 PUSH1 0xE0 ADD PUSH1 0x40 MSTORE SWAP1 DUP2 PUSH1 0x0 DUP3 ADD PUSH1 0x0 SWAP1 SLOAD SWAP1 PUSH2 0x100 EXP SWAP1 DIV PUSH20 0xFFFFFFFFFFFFFFFFFFFFFFFFFFFFFFFFFFFFFFFF AND PUSH20 0xFFFFFFFFFFFFFFFFFFFFFFFFFFFFFFFFFFFFFFFF AND PUSH20 0xFFFFFFFFFFFFFFFFFFFFFFFFFFFFFFFFFFFFFFFF AND DUP2 MSTORE PUSH1 0x20 ADD PUSH1 0x1 DUP3 ADD SLOAD DUP2 MSTORE PUSH1 0x20 ADD PUSH1 0x2 DUP3 ADD SLOAD DUP2 MSTORE PUSH1 0x20 ADD PUSH1 0x3 DUP3 ADD PUSH1 0x0 SWAP1 SLOAD SWAP1 PUSH2 0x100 EXP SWAP1 DIV PUSH20 0xFFFFFFFFFFFFFFFFFFFFFFFFFFFFFFFFFFFFFFFF AND PUSH20 0xFFFFFFFFFFFFFFFFFFFFFFFFFFFFFFFFFFFFFFFF AND PUSH20 0xFFFFFFFFFFFFFFFFFFFFFFFFFFFFFFFFFFFFFFFF AND DUP2 MSTORE PUSH1 0x20 ADD PUSH1 0x4 DUP3 ADD PUSH1 0x0 SWAP1 SLOAD SWAP1 PUSH2 0x100 EXP SWAP1 DIV PUSH20 0xFFFFFFFFFFFFFFFFFFFFFFFFFFFFFFFFFFFFFFFF AND PUSH20 0xFFFFFFFFFFFFFFFFFFFFFFFFFFFFFFFFFFFFFFFF AND PUSH20 0xFFFFFFFFFFFFFFFFFFFFFFFFFFFFFFFFFFFFFFFF AND DUP2 MSTORE PUSH1 0x20 ADD PUSH1 0x5 DUP3 ADD PUSH1 0x0 SWAP1 SLOAD SWAP1 PUSH2 0x100 EXP SWAP1 DIV PUSH20 0xFFFFFFFFFFFFFFFFFFFFFFFFFFFFFFFFFFFFFFFF AND PUSH20 0xFFFFFFFFFFFFFFFFFFFFFFFFFFFFFFFFFFFFFFFF AND PUSH20 0xFFFFFFFFFFFFFFFFFFFFFFFFFFFFFFFFFFFFFFFF AND DUP2 MSTORE PUSH1 0x20 ADD PUSH1 0x5 DUP3 ADD PUSH1 0x14 SWAP1 SLOAD SWAP1 PUSH2 0x100 EXP SWAP1 DIV PUSH1 0xFF AND ISZERO ISZERO ISZERO ISZERO DUP2 MSTORE POP POP DUP4 DUP4 DUP2 MLOAD DUP2 LT PUSH2 0x1B25 JUMPI PUSH2 0x1B24 PUSH2 0x2A12 JUMP JUMPDEST JUMPDEST PUSH1 0x20 MUL PUSH1 0x20 ADD ADD DUP2 SWAP1 MSTORE POP DUP2 DUP1 PUSH2 0x1B3B SWAP1 PUSH2 0x299A JUMP JUMPDEST SWAP3 POP POP JUMPDEST DUP1 DUP1 PUSH2 0x1B4A SWAP1 PUSH2 0x299A JUMP JUMPDEST SWAP2 POP POP PUSH2 0x18DD JUMP JUMPDEST POP DUP2 SWAP5 POP POP POP POP POP SWAP1 JUMP JUMPDEST PUSH1 0x2 PUSH1 0x0 SLOAD EQ ISZERO PUSH2 0x1BA3 JUMPI PUSH1 0x40 MLOAD PUSH32 0x8C379A000000000000000000000000000000000000000000000000000000000 DUP2 MSTORE PUSH1 0x4 ADD PUSH2 0x1B9A SWAP1 PUSH2 0x2831 JUMP JUMPDEST PUSH1 0x40 MLOAD DUP1 SWAP2 SUB SWAP1 REVERT JUMPDEST PUSH1 0x2 PUSH1 0x0 DUP2 SWAP1 SSTORE POP PUSH1 0x0 DUP2 GT PUSH2 0x1BEE JUMPI PUSH1 0x40 MLOAD PUSH32 0x8C379A000000000000000000000000000000000000000000000000000000000 DUP2 MSTORE PUSH1 0x4 ADD PUSH2 0x1BE5 SWAP1 PUSH2 0x2851 JUMP JUMPDEST PUSH1 0x40 MLOAD DUP1 SWAP2 SUB SWAP1 REVERT JUMPDEST PUSH1 0x3 SLOAD CALLVALUE EQ PUSH2 0x1C32 JUMPI PUSH1 0x40 MLOAD PUSH32 0x8C379A000000000000000000000000000000000000000000000000000000000 DUP2 MSTORE PUSH1 0x4 ADD PUSH2 0x1C29 SWAP1 PUSH2 0x2811 JUMP JUMPDEST PUSH1 0x40 MLOAD DUP1 SWAP2 SUB SWAP1 REVERT JUMPDEST DUP3 PUSH20 0xFFFFFFFFFFFFFFFFFFFFFFFFFFFFFFFFFFFFFFFF AND PUSH4 0x23B872DD CALLER ADDRESS DUP6 PUSH1 0x40 MLOAD DUP5 PUSH4 0xFFFFFFFF AND PUSH1 0xE0 SHL DUP2 MSTORE PUSH1 0x4 ADD PUSH2 0x1C6F SWAP4 SWAP3 SWAP2 SWAP1 PUSH2 0x2721 JUMP JUMPDEST PUSH1 0x0 PUSH1 0x40 MLOAD DUP1 DUP4 SUB DUP2 PUSH1 0x0 DUP8 DUP1 EXTCODESIZE ISZERO DUP1 ISZERO PUSH2 0x1C89 JUMPI PUSH1 0x0 DUP1 REVERT JUMPDEST POP GAS CALL ISZERO DUP1 ISZERO PUSH2 0x1C9D JUMPI RETURNDATASIZE PUSH1 0x0 DUP1 RETURNDATACOPY RETURNDATASIZE PUSH1 0x0 REVERT JUMPDEST POP POP POP POP PUSH1 0x5 PUSH1 0x40 MLOAD DUP1 PUSH1 0xE0 ADD PUSH1 0x40 MSTORE DUP1 DUP6 PUSH20 0xFFFFFFFFFFFFFFFFFFFFFFFFFFFFFFFFFFFFFFFF AND DUP2 MSTORE PUSH1 0x20 ADD DUP5 DUP2 MSTORE PUSH1 0x20 ADD DUP4 DUP2 MSTORE PUSH1 0x20 ADD CALLER PUSH20 0xFFFFFFFFFFFFFFFFFFFFFFFFFFFFFFFFFFFFFFFF AND DUP2 MSTORE PUSH1 0x20 ADD ADDRESS PUSH20 0xFFFFFFFFFFFFFFFFFFFFFFFFFFFFFFFFFFFFFFFF AND DUP2 MSTORE PUSH1 0x20 ADD CALLER PUSH20 0xFFFFFFFFFFFFFFFFFFFFFFFFFFFFFFFFFFFFFFFF AND DUP2 MSTORE PUSH1 0x20 ADD PUSH1 0x1 ISZERO ISZERO DUP2 MSTORE POP SWAP1 DUP1 PUSH1 0x1 DUP2 SLOAD ADD DUP1 DUP3 SSTORE DUP1 SWAP2 POP POP PUSH1 0x1 SWAP1 SUB SWAP1 PUSH1 0x0 MSTORE PUSH1 0x20 PUSH1 0x0 KECCAK256 SWAP1 PUSH1 0x6 MUL ADD PUSH1 0x0 SWAP1 SWAP2 SWAP1 SWAP2 SWAP1 SWAP2 POP PUSH1 0x0 DUP3 ADD MLOAD DUP2 PUSH1 0x0 ADD PUSH1 0x0 PUSH2 0x100 EXP DUP2 SLOAD DUP2 PUSH20 0xFFFFFFFFFFFFFFFFFFFFFFFFFFFFFFFFFFFFFFFF MUL NOT AND SWAP1 DUP4 PUSH20 0xFFFFFFFFFFFFFFFFFFFFFFFFFFFFFFFFFFFFFFFF AND MUL OR SWAP1 SSTORE POP PUSH1 0x20 DUP3 ADD MLOAD DUP2 PUSH1 0x1 ADD SSTORE PUSH1 0x40 DUP3 ADD MLOAD DUP2 PUSH1 0x2 ADD SSTORE PUSH1 0x60 DUP3 ADD MLOAD DUP2 PUSH1 0x3 ADD PUSH1 0x0 PUSH2 0x100 EXP DUP2 SLOAD DUP2 PUSH20 0xFFFFFFFFFFFFFFFFFFFFFFFFFFFFFFFFFFFFFFFF MUL NOT AND SWAP1 DUP4 PUSH20 0xFFFFFFFFFFFFFFFFFFFFFFFFFFFFFFFFFFFFFFFF AND MUL OR SWAP1 SSTORE POP PUSH1 0x80 DUP3 ADD MLOAD DUP2 PUSH1 0x4 ADD PUSH1 0x0 PUSH2 0x100 EXP DUP2 SLOAD DUP2 PUSH20 0xFFFFFFFFFFFFFFFFFFFFFFFFFFFFFFFFFFFFFFFF MUL NOT AND SWAP1 DUP4 PUSH20 0xFFFFFFFFFFFFFFFFFFFFFFFFFFFFFFFFFFFFFFFF AND MUL OR SWAP1 SSTORE POP PUSH1 0xA0 DUP3 ADD MLOAD DUP2 PUSH1 0x5 ADD PUSH1 0x0 PUSH2 0x100 EXP DUP2 SLOAD DUP2 PUSH20 0xFFFFFFFFFFFFFFFFFFFFFFFFFFFFFFFFFFFFFFFF MUL NOT AND SWAP1 DUP4 PUSH20 0xFFFFFFFFFFFFFFFFFFFFFFFFFFFFFFFFFFFFFFFF AND MUL OR SWAP1 SSTORE POP PUSH1 0xC0 DUP3 ADD MLOAD DUP2 PUSH1 0x5 ADD PUSH1 0x14 PUSH2 0x100 EXP DUP2 SLOAD DUP2 PUSH1 0xFF MUL NOT AND SWAP1 DUP4 ISZERO ISZERO MUL OR SWAP1 SSTORE POP POP POP PUSH2 0x1EB6 PUSH1 0x2 PUSH2 0x22E4 JUMP JUMPDEST PUSH1 0x4 PUSH1 0x0 SWAP1 SLOAD SWAP1 PUSH2 0x100 EXP SWAP1 DIV PUSH20 0xFFFFFFFFFFFFFFFFFFFFFFFFFFFFFFFFFFFFFFFF AND PUSH20 0xFFFFFFFFFFFFFFFFFFFFFFFFFFFFFFFFFFFFFFFF AND PUSH2 0x8FC CALLVALUE SWAP1 DUP2 ISZERO MUL SWAP1 PUSH1 0x40 MLOAD PUSH1 0x0 PUSH1 0x40 MLOAD DUP1 DUP4 SUB DUP2 DUP6 DUP9 DUP9 CALL SWAP4 POP POP POP POP ISZERO DUP1 ISZERO PUSH2 0x1F1E JUMPI RETURNDATASIZE PUSH1 0x0 DUP1 RETURNDATACOPY RETURNDATASIZE PUSH1 0x0 REVERT JUMPDEST POP ADDRESS PUSH20 0xFFFFFFFFFFFFFFFFFFFFFFFFFFFFFFFFFFFFFFFF AND CALLER PUSH20 0xFFFFFFFFFFFFFFFFFFFFFFFFFFFFFFFFFFFFFFFF AND PUSH32 0xA0C6C0D02D86FDACECBAA5FDF5894BAB204E31A778250474108540733A9B8D19 DUP6 DUP6 DUP6 PUSH1 0x40 MLOAD PUSH2 0x1F80 SWAP4 SWAP3 SWAP2 SWAP1 PUSH2 0x2758 JUMP JUMPDEST PUSH1 0x40 MLOAD DUP1 SWAP2 SUB SWAP1 LOG3 PUSH1 0x1 PUSH1 0x0 DUP2 SWAP1 SSTORE POP POP POP POP JUMP JUMPDEST PUSH1 0x0 PUSH1 0x3 SLOAD SWAP1 POP SWAP1 JUMP JUMPDEST PUSH2 0x1FA7 PUSH2 0x22FA JUMP JUMPDEST PUSH1 0x0 PUSH2 0x1FB1 PUSH2 0x22FA JUMP JUMPDEST PUSH1 0x0 PUSH32 0xFFFFFFFFFFFFFFFFFFFFFFFFFFFFFFFFFFFFFFFFFFFFFFFFFFFFFFFFFFFFFFFF SWAP1 POP PUSH1 0x0 PUSH2 0x1FE2 PUSH1 0x2 PUSH2 0x22D6 JUMP JUMPDEST SWAP1 POP PUSH1 0x0 JUMPDEST DUP2 DUP2 LT ISZERO PUSH2 0x2269 JUMPI DUP8 PUSH20 0xFFFFFFFFFFFFFFFFFFFFFFFFFFFFFFFFFFFFFFFF AND PUSH1 0x5 DUP3 DUP2 SLOAD DUP2 LT PUSH2 0x201A JUMPI PUSH2 0x2019 PUSH2 0x2A12 JUMP JUMPDEST JUMPDEST SWAP1 PUSH1 0x0 MSTORE PUSH1 0x20 PUSH1 0x0 KECCAK256 SWAP1 PUSH1 0x6 MUL ADD PUSH1 0x0 ADD PUSH1 0x0 SWAP1 SLOAD SWAP1 PUSH2 0x100 EXP SWAP1 DIV PUSH20 0xFFFFFFFFFFFFFFFFFFFFFFFFFFFFFFFFFFFFFFFF AND PUSH20 0xFFFFFFFFFFFFFFFFFFFFFFFFFFFFFFFFFFFFFFFF AND EQ DUP1 ISZERO PUSH2 0x2093 JUMPI POP DUP7 PUSH1 0x5 DUP3 DUP2 SLOAD DUP2 LT PUSH2 0x207F JUMPI PUSH2 0x207E PUSH2 0x2A12 JUMP JUMPDEST JUMPDEST SWAP1 PUSH1 0x0 MSTORE PUSH1 0x20 PUSH1 0x0 KECCAK256 SWAP1 PUSH1 0x6 MUL ADD PUSH1 0x1 ADD SLOAD EQ JUMPDEST ISZERO PUSH2 0x2256 JUMPI PUSH1 0x5 DUP2 DUP2 SLOAD DUP2 LT PUSH2 0x20AC JUMPI PUSH2 0x20AB PUSH2 0x2A12 JUMP JUMPDEST JUMPDEST SWAP1 PUSH1 0x0 MSTORE PUSH1 0x20 PUSH1 0x0 KECCAK256 SWAP1 PUSH1 0x6 MUL ADD PUSH1 0x40 MLOAD DUP1 PUSH1 0xE0 ADD PUSH1 0x40 MSTORE SWAP1 DUP2 PUSH1 0x0 DUP3 ADD PUSH1 0x0 SWAP1 SLOAD SWAP1 PUSH2 0x100 EXP SWAP1 DIV PUSH20 0xFFFFFFFFFFFFFFFFFFFFFFFFFFFFFFFFFFFFFFFF AND PUSH20 0xFFFFFFFFFFFFFFFFFFFFFFFFFFFFFFFFFFFFFFFF AND PUSH20 0xFFFFFFFFFFFFFFFFFFFFFFFFFFFFFFFFFFFFFFFF AND DUP2 MSTORE PUSH1 0x20 ADD PUSH1 0x1 DUP3 ADD SLOAD DUP2 MSTORE PUSH1 0x20 ADD PUSH1 0x2 DUP3 ADD SLOAD DUP2 MSTORE PUSH1 0x20 ADD PUSH1 0x3 DUP3 ADD PUSH1 0x0 SWAP1 SLOAD SWAP1 PUSH2 0x100 EXP SWAP1 DIV PUSH20 0xFFFFFFFFFFFFFFFFFFFFFFFFFFFFFFFFFFFFFFFF AND PUSH20 0xFFFFFFFFFFFFFFFFFFFFFFFFFFFFFFFFFFFFFFFF AND PUSH20 0xFFFFFFFFFFFFFFFFFFFFFFFFFFFFFFFFFFFFFFFF AND DUP2 MSTORE PUSH1 0x20 ADD PUSH1 0x4 DUP3 ADD PUSH1 0x0 SWAP1 SLOAD SWAP1 PUSH2 0x100 EXP SWAP1 DIV PUSH20 0xFFFFFFFFFFFFFFFFFFFFFFFFFFFFFFFFFFFFFFFF AND PUSH20 0xFFFFFFFFFFFFFFFFFFFFFFFFFFFFFFFFFFFFFFFF AND PUSH20 0xFFFFFFFFFFFFFFFFFFFFFFFFFFFFFFFFFFFFFFFF AND DUP2 MSTORE PUSH1 0x20 ADD PUSH1 0x5 DUP3 ADD PUSH1 0x0 SWAP1 SLOAD SWAP1 PUSH2 0x100 EXP SWAP1 DIV PUSH20 0xFFFFFFFFFFFFFFFFFFFFFFFFFFFFFFFFFFFFFFFF AND PUSH20 0xFFFFFFFFFFFFFFFFFFFFFFFFFFFFFFFFFFFFFFFF AND PUSH20 0xFFFFFFFFFFFFFFFFFFFFFFFFFFFFFFFFFFFFFFFF AND DUP2 MSTORE PUSH1 0x20 ADD PUSH1 0x5 DUP3 ADD PUSH1 0x14 SWAP1 SLOAD SWAP1 PUSH2 0x100 EXP SWAP1 DIV PUSH1 0xFF AND ISZERO ISZERO ISZERO ISZERO DUP2 MSTORE POP POP SWAP4 POP DUP1 SWAP3 POP PUSH2 0x2269 JUMP JUMPDEST DUP1 DUP1 PUSH2 0x2261 SWAP1 PUSH2 0x299A JUMP JUMPDEST SWAP2 POP POP PUSH2 0x1FE7 JUMP JUMPDEST POP DUP3 DUP3 SWAP5 POP SWAP5 POP POP POP POP SWAP3 POP SWAP3 SWAP1 POP JUMP JUMPDEST PUSH1 0x0 DUP2 PUSH1 0x0 ADD SLOAD SWAP1 POP PUSH1 0x0 DUP2 GT PUSH2 0x22C6 JUMPI PUSH1 0x40 MLOAD PUSH32 0x8C379A000000000000000000000000000000000000000000000000000000000 DUP2 MSTORE PUSH1 0x4 ADD PUSH2 0x22BD SWAP1 PUSH2 0x27B1 JUMP JUMPDEST PUSH1 0x40 MLOAD DUP1 SWAP2 SUB SWAP1 REVERT JUMPDEST PUSH1 0x1 DUP2 SUB DUP3 PUSH1 0x0 ADD DUP2 SWAP1 SSTORE POP POP POP JUMP JUMPDEST PUSH1 0x0 DUP2 PUSH1 0x0 ADD SLOAD SWAP1 POP SWAP2 SWAP1 POP JUMP JUMPDEST PUSH1 0x1 DUP2 PUSH1 0x0 ADD PUSH1 0x0 DUP3 DUP3 SLOAD ADD SWAP3 POP POP DUP2 SWAP1 SSTORE POP POP JUMP JUMPDEST PUSH1 0x40 MLOAD DUP1 PUSH1 0xE0 ADD PUSH1 0x40 MSTORE DUP1 PUSH1 0x0 PUSH20 0xFFFFFFFFFFFFFFFFFFFFFFFFFFFFFFFFFFFFFFFF AND DUP2 MSTORE PUSH1 0x20 ADD PUSH1 0x0 DUP2 MSTORE PUSH1 0x20 ADD PUSH1 0x0 DUP2 MSTORE PUSH1 0x20 ADD PUSH1 0x0 PUSH20 0xFFFFFFFFFFFFFFFFFFFFFFFFFFFFFFFFFFFFFFFF AND DUP2 MSTORE PUSH1 0x20 ADD PUSH1 0x0 PUSH20 0xFFFFFFFFFFFFFFFFFFFFFFFFFFFFFFFFFFFFFFFF AND DUP2 MSTORE PUSH1 0x20 ADD PUSH1 0x0 PUSH20 0xFFFFFFFFFFFFFFFFFFFFFFFFFFFFFFFFFFFFFFFF AND DUP2 MSTORE PUSH1 0x20 ADD PUSH1 0x0 ISZERO ISZERO DUP2 MSTORE POP SWAP1 JUMP JUMPDEST PUSH1 0x0 DUP2 CALLDATALOAD SWAP1 POP PUSH2 0x23A0 DUP2 PUSH2 0x2B91 JUMP JUMPDEST SWAP3 SWAP2 POP POP JUMP JUMPDEST PUSH1 0x0 DUP2 MLOAD SWAP1 POP PUSH2 0x23B5 DUP2 PUSH2 0x2B91 JUMP JUMPDEST SWAP3 SWAP2 POP POP JUMP JUMPDEST PUSH1 0x0 DUP2 CALLDATALOAD SWAP1 POP PUSH2 0x23CA DUP2 PUSH2 0x2BA8 JUMP JUMPDEST SWAP3 SWAP2 POP POP JUMP JUMPDEST PUSH1 0x0 PUSH1 0x20 DUP3 DUP5 SUB SLT ISZERO PUSH2 0x23E6 JUMPI PUSH2 0x23E5 PUSH2 0x2A70 JUMP JUMPDEST JUMPDEST PUSH1 0x0 PUSH2 0x23F4 DUP5 DUP3 DUP6 ADD PUSH2 0x23A6 JUMP JUMPDEST SWAP2 POP POP SWAP3 SWAP2 POP POP JUMP JUMPDEST PUSH1 0x0 DUP1 PUSH1 0x40 DUP4 DUP6 SUB SLT ISZERO PUSH2 0x2414 JUMPI PUSH2 0x2413 PUSH2 0x2A70 JUMP JUMPDEST JUMPDEST PUSH1 0x0 PUSH2 0x2422 DUP6 DUP3 DUP7 ADD PUSH2 0x2391 JUMP JUMPDEST SWAP3 POP POP PUSH1 0x20 PUSH2 0x2433 DUP6 DUP3 DUP7 ADD PUSH2 0x23BB JUMP JUMPDEST SWAP2 POP POP SWAP3 POP SWAP3 SWAP1 POP JUMP JUMPDEST PUSH1 0x0 DUP1 PUSH1 0x0 PUSH1 0x60 DUP5 DUP7 SUB SLT ISZERO PUSH2 0x2456 JUMPI PUSH2 0x2455 PUSH2 0x2A70 JUMP JUMPDEST JUMPDEST PUSH1 0x0 PUSH2 0x2464 DUP7 DUP3 DUP8 ADD PUSH2 0x2391 JUMP JUMPDEST SWAP4 POP POP PUSH1 0x20 PUSH2 0x2475 DUP7 DUP3 DUP8 ADD PUSH2 0x23BB JUMP JUMPDEST SWAP3 POP POP PUSH1 0x40 PUSH2 0x2486 DUP7 DUP3 DUP8 ADD PUSH2 0x23BB JUMP JUMPDEST SWAP2 POP POP SWAP3 POP SWAP3 POP SWAP3 JUMP JUMPDEST PUSH1 0x0 PUSH2 0x249C DUP4 DUP4 PUSH2 0x2623 JUMP JUMPDEST PUSH1 0xE0 DUP4 ADD SWAP1 POP SWAP3 SWAP2 POP POP JUMP JUMPDEST PUSH2 0x24B1 DUP2 PUSH2 0x2964 JUMP JUMPDEST DUP3 MSTORE POP POP JUMP JUMPDEST PUSH2 0x24C0 DUP2 PUSH2 0x291C JUMP JUMPDEST DUP3 MSTORE POP POP JUMP JUMPDEST PUSH2 0x24CF DUP2 PUSH2 0x290A JUMP JUMPDEST DUP3 MSTORE POP POP JUMP JUMPDEST PUSH2 0x24DE DUP2 PUSH2 0x290A JUMP JUMPDEST DUP3 MSTORE POP POP JUMP JUMPDEST PUSH1 0x0 PUSH2 0x24EF DUP3 PUSH2 0x289C JUMP JUMPDEST PUSH2 0x24F9 DUP2 DUP6 PUSH2 0x28B4 JUMP JUMPDEST SWAP4 POP PUSH2 0x2504 DUP4 PUSH2 0x288C JUMP JUMPDEST DUP1 PUSH1 0x0 JUMPDEST DUP4 DUP2 LT ISZERO PUSH2 0x2535 JUMPI DUP2 MLOAD PUSH2 0x251C DUP9 DUP3 PUSH2 0x2490 JUMP JUMPDEST SWAP8 POP PUSH2 0x2527 DUP4 PUSH2 0x28A7 JUMP JUMPDEST SWAP3 POP POP PUSH1 0x1 DUP2 ADD SWAP1 POP PUSH2 0x2508 JUMP JUMPDEST POP DUP6 SWAP4 POP POP POP POP SWAP3 SWAP2 POP POP JUMP JUMPDEST PUSH2 0x254B DUP2 PUSH2 0x292E JUMP JUMPDEST DUP3 MSTORE POP POP JUMP JUMPDEST PUSH1 0x0 PUSH2 0x255E PUSH1 0x1B DUP4 PUSH2 0x28C5 JUMP JUMPDEST SWAP2 POP PUSH2 0x2569 DUP3 PUSH2 0x2A75 JUMP JUMPDEST PUSH1 0x20 DUP3 ADD SWAP1 POP SWAP2 SWAP1 POP JUMP JUMPDEST PUSH1 0x0 PUSH2 0x2581 PUSH1 0x26 DUP4 PUSH2 0x28C5 JUMP JUMPDEST SWAP2 POP PUSH2 0x258C DUP3 PUSH2 0x2A9E JUMP JUMPDEST PUSH1 0x40 DUP3 ADD SWAP1 POP SWAP2 SWAP1 POP JUMP JUMPDEST PUSH1 0x0 PUSH2 0x25A4 PUSH1 0xD DUP4 PUSH2 0x28C5 JUMP JUMPDEST SWAP2 POP PUSH2 0x25AF DUP3 PUSH2 0x2AED JUMP JUMPDEST PUSH1 0x20 DUP3 ADD SWAP1 POP SWAP2 SWAP1 POP JUMP JUMPDEST PUSH1 0x0 PUSH2 0x25C7 PUSH1 0x20 DUP4 PUSH2 0x28C5 JUMP JUMPDEST SWAP2 POP PUSH2 0x25D2 DUP3 PUSH2 0x2B16 JUMP JUMPDEST PUSH1 0x20 DUP3 ADD SWAP1 POP SWAP2 SWAP1 POP JUMP JUMPDEST PUSH1 0x0 PUSH2 0x25EA PUSH1 0x1F DUP4 PUSH2 0x28C5 JUMP JUMPDEST SWAP2 POP PUSH2 0x25F5 DUP3 PUSH2 0x2B3F JUMP JUMPDEST PUSH1 0x20 DUP3 ADD SWAP1 POP SWAP2 SWAP1 POP JUMP JUMPDEST PUSH1 0x0 PUSH2 0x260D PUSH1 0x1C DUP4 PUSH2 0x28C5 JUMP JUMPDEST SWAP2 POP PUSH2 0x2618 DUP3 PUSH2 0x2B68 JUMP JUMPDEST PUSH1 0x20 DUP3 ADD SWAP1 POP SWAP2 SWAP1 POP JUMP JUMPDEST PUSH1 0xE0 DUP3 ADD PUSH1 0x0 DUP3 ADD MLOAD PUSH2 0x2639 PUSH1 0x0 DUP6 ADD DUP3 PUSH2 0x24C6 JUMP JUMPDEST POP PUSH1 0x20 DUP3 ADD MLOAD PUSH2 0x264C PUSH1 0x20 DUP6 ADD DUP3 PUSH2 0x26B1 JUMP JUMPDEST POP PUSH1 0x40 DUP3 ADD MLOAD PUSH2 0x265F PUSH1 0x40 DUP6 ADD DUP3 PUSH2 0x26B1 JUMP JUMPDEST POP PUSH1 0x60 DUP3 ADD MLOAD PUSH2 0x2672 PUSH1 0x60 DUP6 ADD DUP3 PUSH2 0x24B7 JUMP JUMPDEST POP PUSH1 0x80 DUP3 ADD MLOAD PUSH2 0x2685 PUSH1 0x80 DUP6 ADD DUP3 PUSH2 0x24B7 JUMP JUMPDEST POP PUSH1 0xA0 DUP3 ADD MLOAD PUSH2 0x2698 PUSH1 0xA0 DUP6 ADD DUP3 PUSH2 0x24B7 JUMP JUMPDEST POP PUSH1 0xC0 DUP3 ADD MLOAD PUSH2 0x26AB PUSH1 0xC0 DUP6 ADD DUP3 PUSH2 0x2542 JUMP JUMPDEST POP POP POP POP JUMP JUMPDEST PUSH2 0x26BA DUP2 PUSH2 0x295A JUMP JUMPDEST DUP3 MSTORE POP POP JUMP JUMPDEST PUSH2 0x26C9 DUP2 PUSH2 0x295A JUMP JUMPDEST DUP3 MSTORE POP POP JUMP JUMPDEST PUSH1 0x0 PUSH1 0x20 DUP3 ADD SWAP1 POP PUSH2 0x26E4 PUSH1 0x0 DUP4 ADD DUP5 PUSH2 0x24D5 JUMP JUMPDEST SWAP3 SWAP2 POP POP JUMP JUMPDEST PUSH1 0x0 PUSH1 0x60 DUP3 ADD SWAP1 POP PUSH2 0x26FF PUSH1 0x0 DUP4 ADD DUP7 PUSH2 0x24D5 JUMP JUMPDEST PUSH2 0x270C PUSH1 0x20 DUP4 ADD DUP6 PUSH2 0x24A8 JUMP JUMPDEST PUSH2 0x2719 PUSH1 0x40 DUP4 ADD DUP5 PUSH2 0x26C0 JUMP JUMPDEST SWAP5 SWAP4 POP POP POP POP JUMP JUMPDEST PUSH1 0x0 PUSH1 0x60 DUP3 ADD SWAP1 POP PUSH2 0x2736 PUSH1 0x0 DUP4 ADD DUP7 PUSH2 0x24D5 JUMP JUMPDEST PUSH2 0x2743 PUSH1 0x20 DUP4 ADD DUP6 PUSH2 0x24D5 JUMP JUMPDEST PUSH2 0x2750 PUSH1 0x40 DUP4 ADD DUP5 PUSH2 0x26C0 JUMP JUMPDEST SWAP5 SWAP4 POP POP POP POP JUMP JUMPDEST PUSH1 0x0 PUSH1 0x60 DUP3 ADD SWAP1 POP PUSH2 0x276D PUSH1 0x0 DUP4 ADD DUP7 PUSH2 0x24D5 JUMP JUMPDEST PUSH2 0x277A PUSH1 0x20 DUP4 ADD DUP6 PUSH2 0x26C0 JUMP JUMPDEST PUSH2 0x2787 PUSH1 0x40 DUP4 ADD DUP5 PUSH2 0x26C0 JUMP JUMPDEST SWAP5 SWAP4 POP POP POP POP JUMP JUMPDEST PUSH1 0x0 PUSH1 0x20 DUP3 ADD SWAP1 POP DUP2 DUP2 SUB PUSH1 0x0 DUP4 ADD MSTORE PUSH2 0x27A9 DUP2 DUP5 PUSH2 0x24E4 JUMP JUMPDEST SWAP1 POP SWAP3 SWAP2 POP POP JUMP JUMPDEST PUSH1 0x0 PUSH1 0x20 DUP3 ADD SWAP1 POP DUP2 DUP2 SUB PUSH1 0x0 DUP4 ADD MSTORE PUSH2 0x27CA DUP2 PUSH2 0x2551 JUMP JUMPDEST SWAP1 POP SWAP2 SWAP1 POP JUMP JUMPDEST PUSH1 0x0 PUSH1 0x20 DUP3 ADD SWAP1 POP DUP2 DUP2 SUB PUSH1 0x0 DUP4 ADD MSTORE PUSH2 0x27EA DUP2 PUSH2 0x2574 JUMP JUMPDEST SWAP1 POP SWAP2 SWAP1 POP JUMP JUMPDEST PUSH1 0x0 PUSH1 0x20 DUP3 ADD SWAP1 POP DUP2 DUP2 SUB PUSH1 0x0 DUP4 ADD MSTORE PUSH2 0x280A DUP2 PUSH2 0x2597 JUMP JUMPDEST SWAP1 POP SWAP2 SWAP1 POP JUMP JUMPDEST PUSH1 0x0 PUSH1 0x20 DUP3 ADD SWAP1 POP DUP2 DUP2 SUB PUSH1 0x0 DUP4 ADD MSTORE PUSH2 0x282A DUP2 PUSH2 0x25BA JUMP JUMPDEST SWAP1 POP SWAP2 SWAP1 POP JUMP JUMPDEST PUSH1 0x0 PUSH1 0x20 DUP3 ADD SWAP1 POP DUP2 DUP2 SUB PUSH1 0x0 DUP4 ADD MSTORE PUSH2 0x284A DUP2 PUSH2 0x25DD JUMP JUMPDEST SWAP1 POP SWAP2 SWAP1 POP JUMP JUMPDEST PUSH1 0x0 PUSH1 0x20 DUP3 ADD SWAP1 POP DUP2 DUP2 SUB PUSH1 0x0 DUP4 ADD MSTORE PUSH2 0x286A DUP2 PUSH2 0x2600 JUMP JUMPDEST SWAP1 POP SWAP2 SWAP1 POP JUMP JUMPDEST PUSH1 0x0 PUSH1 0x20 DUP3 ADD SWAP1 POP PUSH2 0x2886 PUSH1 0x0 DUP4 ADD DUP5 PUSH2 0x26C0 JUMP JUMPDEST SWAP3 SWAP2 POP POP JUMP JUMPDEST PUSH1 0x0 DUP2 SWAP1 POP PUSH1 0x20 DUP3 ADD SWAP1 POP SWAP2 SWAP1 POP JUMP JUMPDEST PUSH1 0x0 DUP2 MLOAD SWAP1 POP SWAP2 SWAP1 POP JUMP JUMPDEST PUSH1 0x0 PUSH1 0x20 DUP3 ADD SWAP1 POP SWAP2 SWAP1 POP JUMP JUMPDEST PUSH1 0x0 DUP3 DUP3 MSTORE PUSH1 0x20 DUP3 ADD SWAP1 POP SWAP3 SWAP2 POP POP JUMP JUMPDEST PUSH1 0x0 DUP3 DUP3 MSTORE PUSH1 0x20 DUP3 ADD SWAP1 POP SWAP3 SWAP2 POP POP JUMP JUMPDEST PUSH1 0x0 PUSH2 0x28E1 DUP3 PUSH2 0x295A JUMP JUMPDEST SWAP2 POP PUSH2 0x28EC DUP4 PUSH2 0x295A JUMP JUMPDEST SWAP3 POP DUP3 DUP3 LT ISZERO PUSH2 0x28FF JUMPI PUSH2 0x28FE PUSH2 0x29E3 JUMP JUMPDEST JUMPDEST DUP3 DUP3 SUB SWAP1 POP SWAP3 SWAP2 POP POP JUMP JUMPDEST PUSH1 0x0 PUSH2 0x2915 DUP3 PUSH2 0x293A JUMP JUMPDEST SWAP1 POP SWAP2 SWAP1 POP JUMP JUMPDEST PUSH1 0x0 PUSH2 0x2927 DUP3 PUSH2 0x293A JUMP JUMPDEST SWAP1 POP SWAP2 SWAP1 POP JUMP JUMPDEST PUSH1 0x0 DUP2 ISZERO ISZERO SWAP1 POP SWAP2 SWAP1 POP JUMP JUMPDEST PUSH1 0x0 PUSH20 0xFFFFFFFFFFFFFFFFFFFFFFFFFFFFFFFFFFFFFFFF DUP3 AND SWAP1 POP SWAP2 SWAP1 POP JUMP JUMPDEST PUSH1 0x0 DUP2 SWAP1 POP SWAP2 SWAP1 POP JUMP JUMPDEST PUSH1 0x0 PUSH2 0x296F DUP3 PUSH2 0x2976 JUMP JUMPDEST SWAP1 POP SWAP2 SWAP1 POP JUMP JUMPDEST PUSH1 0x0 PUSH2 0x2981 DUP3 PUSH2 0x2988 JUMP JUMPDEST SWAP1 POP SWAP2 SWAP1 POP JUMP JUMPDEST PUSH1 0x0 PUSH2 0x2993 DUP3 PUSH2 0x293A JUMP JUMPDEST SWAP1 POP SWAP2 SWAP1 POP JUMP JUMPDEST PUSH1 0x0 PUSH2 0x29A5 DUP3 PUSH2 0x295A JUMP JUMPDEST SWAP2 POP PUSH32 0xFFFFFFFFFFFFFFFFFFFFFFFFFFFFFFFFFFFFFFFFFFFFFFFFFFFFFFFFFFFFFFFF DUP3 EQ ISZERO PUSH2 0x29D8 JUMPI PUSH2 0x29D7 PUSH2 0x29E3 JUMP JUMPDEST JUMPDEST PUSH1 0x1 DUP3 ADD SWAP1 POP SWAP2 SWAP1 POP JUMP JUMPDEST PUSH32 0x4E487B7100000000000000000000000000000000000000000000000000000000 PUSH1 0x0 MSTORE PUSH1 0x11 PUSH1 0x4 MSTORE PUSH1 0x24 PUSH1 0x0 REVERT JUMPDEST PUSH32 0x4E487B7100000000000000000000000000000000000000000000000000000000 PUSH1 0x0 MSTORE PUSH1 0x32 PUSH1 0x4 MSTORE PUSH1 0x24 PUSH1 0x0 REVERT JUMPDEST PUSH32 0x4E487B7100000000000000000000000000000000000000000000000000000000 PUSH1 0x0 MSTORE PUSH1 0x41 PUSH1 0x4 MSTORE PUSH1 0x24 PUSH1 0x0 REVERT JUMPDEST PUSH1 0x0 DUP1 REVERT JUMPDEST PUSH32 0x436F756E7465723A2064656372656D656E74206F766572666C6F770000000000 PUSH1 0x0 DUP3 ADD MSTORE POP JUMP JUMPDEST PUSH32 0x4E6F7420656E6F75676820657468657220746F20636F7665722061736B696E67 PUSH1 0x0 DUP3 ADD MSTORE PUSH32 0x2070726963650000000000000000000000000000000000000000000000000000 PUSH1 0x20 DUP3 ADD MSTORE POP JUMP JUMPDEST PUSH32 0x4E6674206E6F7420666F756E6400000000000000000000000000000000000000 PUSH1 0x0 DUP3 ADD MSTORE POP JUMP JUMPDEST PUSH32 0x4E6F7420656E6F75676820657468657220666F72206C697374696E6720666565 PUSH1 0x0 DUP3 ADD MSTORE POP JUMP JUMPDEST PUSH32 0x5265656E7472616E637947756172643A207265656E7472616E742063616C6C00 PUSH1 0x0 DUP3 ADD MSTORE POP JUMP JUMPDEST PUSH32 0x5072696365206D757374206265206174206C6561737420312077656900000000 PUSH1 0x0 DUP3 ADD MSTORE POP JUMP JUMPDEST PUSH2 0x2B9A DUP2 PUSH2 0x290A JUMP JUMPDEST DUP2 EQ PUSH2 0x2BA5 JUMPI PUSH1 0x0 DUP1 REVERT JUMPDEST POP JUMP JUMPDEST PUSH2 0x2BB1 DUP2 PUSH2 0x295A JUMP JUMPDEST DUP2 EQ PUSH2 0x2BBC JUMPI PUSH1 0x0 DUP1 REVERT JUMPDEST POP JUMP INVALID LOG2 PUSH5 0x6970667358 0x22 SLT KECCAK256 0xD7 DUP4 0x2F 0x23 0xEA 0xE8 0xED 0x5F 0x24 PUSH28 0xE1F521ECD4F3927A12C5806BFB88E26DE7B45348394D64736F6C6343 STOP ADDMOD SMOD STOP CALLER "
				},
				"gasEstimates": {
					"creation": {
						"codeDepositCost": "2250600",
						"executionCost": "70891",
						"totalCost": "2321491"
					},
					"external": {
						"LISTING_FEE()": "2474",
						"buyNft(address,uint256)": "infinite",
						"getListedNfts()": "infinite",
						"getListingFee()": "2547",
						"getMyCreatedNfts()": "infinite",
						"getMyListedNfts()": "infinite",
						"getMyOwnedNfts()": "infinite",
						"getNftMy()": "infinite",
						"getOwner(address,uint256)": "infinite",
						"listNFT(address,uint256,uint256)": "infinite",
						"resellNFT(address,uint256,uint256)": "infinite"
					},
					"internal": {
						"getNFT(address,uint256)": "infinite"
					}
				},
				"methodIdentifiers": {
					"LISTING_FEE()": "2b86ae38",
					"buyNft(address,uint256)": "4ddf4f8f",
					"getListedNfts()": "8d6cb3fb",
					"getListingFee()": "b8fe6abe",
					"getMyCreatedNfts()": "8492095a",
					"getMyListedNfts()": "1f4cc4db",
					"getMyOwnedNfts()": "a46b5c5a",
					"getNftMy()": "6dc15e67",
					"getOwner(address,uint256)": "2f634a90",
					"listNFT(address,uint256,uint256)": "ad05f1b4",
					"resellNFT(address,uint256,uint256)": "04935694"
				}
			},
			"storageLayout": {
				"storage": [
					{
						"astId": 1057,
						"contract": "contracts/GeekNftMarketPlace.sol:GeekNftMarketPlace",
						"label": "_status",
						"offset": 0,
						"slot": "0",
						"type": "t_uint256"
					},
					{
						"astId": 103,
						"contract": "contracts/GeekNftMarketPlace.sol:GeekNftMarketPlace",
						"label": "_nftsSold",
						"offset": 0,
						"slot": "1",
						"type": "t_struct(Counter)5_storage"
					},
					{
						"astId": 106,
						"contract": "contracts/GeekNftMarketPlace.sol:GeekNftMarketPlace",
						"label": "_nftsCount",
						"offset": 0,
						"slot": "2",
						"type": "t_struct(Counter)5_storage"
					},
					{
						"astId": 109,
						"contract": "contracts/GeekNftMarketPlace.sol:GeekNftMarketPlace",
						"label": "LISTING_FEE",
						"offset": 0,
						"slot": "3",
						"type": "t_uint256"
					},
					{
						"astId": 111,
						"contract": "contracts/GeekNftMarketPlace.sol:GeekNftMarketPlace",
						"label": "_marketOwwner",
						"offset": 0,
						"slot": "4",
						"type": "t_address_payable"
					},
					{
						"astId": 115,
						"contract": "contracts/GeekNftMarketPlace.sol:GeekNftMarketPlace",
						"label": "nfts",
						"offset": 0,
						"slot": "5",
						"type": "t_array(t_struct(NFT)130_storage)dyn_storage"
					}
				],
				"types": {
					"t_address": {
						"encoding": "inplace",
						"label": "address",
						"numberOfBytes": "20"
					},
					"t_address_payable": {
						"encoding": "inplace",
						"label": "address payable",
						"numberOfBytes": "20"
					},
					"t_array(t_struct(NFT)130_storage)dyn_storage": {
						"base": "t_struct(NFT)130_storage",
						"encoding": "dynamic_array",
						"label": "struct GeekNftMarketPlace.NFT[]",
						"numberOfBytes": "32"
					},
					"t_bool": {
						"encoding": "inplace",
						"label": "bool",
						"numberOfBytes": "1"
					},
					"t_struct(Counter)5_storage": {
						"encoding": "inplace",
						"label": "struct Counters.Counter",
						"members": [
							{
								"astId": 4,
								"contract": "contracts/GeekNftMarketPlace.sol:GeekNftMarketPlace",
								"label": "_value",
								"offset": 0,
								"slot": "0",
								"type": "t_uint256"
							}
						],
						"numberOfBytes": "32"
					},
					"t_struct(NFT)130_storage": {
						"encoding": "inplace",
						"label": "struct GeekNftMarketPlace.NFT",
						"members": [
							{
								"astId": 117,
								"contract": "contracts/GeekNftMarketPlace.sol:GeekNftMarketPlace",
								"label": "nftContract",
								"offset": 0,
								"slot": "0",
								"type": "t_address"
							},
							{
								"astId": 119,
								"contract": "contracts/GeekNftMarketPlace.sol:GeekNftMarketPlace",
								"label": "tokenId",
								"offset": 0,
								"slot": "1",
								"type": "t_uint256"
							},
							{
								"astId": 121,
								"contract": "contracts/GeekNftMarketPlace.sol:GeekNftMarketPlace",
								"label": "price",
								"offset": 0,
								"slot": "2",
								"type": "t_uint256"
							},
							{
								"astId": 123,
								"contract": "contracts/GeekNftMarketPlace.sol:GeekNftMarketPlace",
								"label": "seller",
								"offset": 0,
								"slot": "3",
								"type": "t_address_payable"
							},
							{
								"astId": 125,
								"contract": "contracts/GeekNftMarketPlace.sol:GeekNftMarketPlace",
								"label": "owner",
								"offset": 0,
								"slot": "4",
								"type": "t_address_payable"
							},
							{
								"astId": 127,
								"contract": "contracts/GeekNftMarketPlace.sol:GeekNftMarketPlace",
								"label": "creator",
								"offset": 0,
								"slot": "5",
								"type": "t_address_payable"
							},
							{
								"astId": 129,
								"contract": "contracts/GeekNftMarketPlace.sol:GeekNftMarketPlace",
								"label": "listed",
								"offset": 20,
								"slot": "5",
								"type": "t_bool"
							}
						],
						"numberOfBytes": "192"
					},
					"t_uint256": {
						"encoding": "inplace",
						"label": "uint256",
						"numberOfBytes": "32"
					}
				}
			},
			"userdoc": {
				"kind": "user",
				"methods": {},
				"version": 1
			}
		}
	}
}