{
	"contracts/GeekNft.sol": {
		"GeekNft": {
			"abi": [
				{
					"inputs": [
						{
							"internalType": "address",
							"name": "_marketplaceAddress",
							"type": "address"
						}
					],
					"stateMutability": "nonpayable",
					"type": "constructor"
				},
				{
					"anonymous": false,
					"inputs": [
						{
							"indexed": false,
							"internalType": "uint256",
							"name": "",
							"type": "uint256"
						}
					],
					"name": "NftMinted",
					"type": "event"
				},
				{
					"anonymous": false,
					"inputs": [
						{
							"indexed": true,
							"internalType": "address",
							"name": "from",
							"type": "address"
						},
						{
							"indexed": true,
							"internalType": "address",
							"name": "to",
							"type": "address"
						},
						{
							"indexed": false,
							"internalType": "uint256",
							"name": "tokenId",
							"type": "uint256"
						}
					],
					"name": "Transfer",
					"type": "event"
				},
				{
					"inputs": [
						{
							"internalType": "string",
							"name": "_tokenUri",
							"type": "string"
						}
					],
					"name": "mint",
					"outputs": [],
					"stateMutability": "nonpayable",
					"type": "function"
				},
				{
					"inputs": [],
					"name": "name",
					"outputs": [
						{
							"internalType": "string",
							"name": "",
							"type": "string"
						}
					],
					"stateMutability": "view",
					"type": "function"
				},
				{
					"inputs": [],
					"name": "symbol",
					"outputs": [
						{
							"internalType": "string",
							"name": "",
							"type": "string"
						}
					],
					"stateMutability": "view",
					"type": "function"
				}
			],
			"devdoc": {
				"kind": "dev",
				"methods": {},
				"version": 1
			},
			"evm": {
				"assembly": "    /* \"contracts/GeekNft.sol\":110:1869  contract GeekNft {... */\n  mstore(0x40, 0x80)\n    /* \"contracts/GeekNft.sol\":175:207  string private _name = \"GeekNft\" */\n  mload(0x40)\n  dup1\n  0x40\n  add\n  0x40\n  mstore\n  dup1\n  0x07\n  dup2\n  mstore\n  0x20\n  add\n  0x4765656b4e667400000000000000000000000000000000000000000000000000\n  dup2\n  mstore\n  pop\n  0x00\n  swap1\n  dup1\n  mload\n  swap1\n  0x20\n  add\n  swap1\n  tag_1\n  swap3\n  swap2\n  swap1\n  tag_2\n  jump\t// in\ntag_1:\n  pop\n    /* \"contracts/GeekNft.sol\":213:245  string private _symbol = \"GEEKT\" */\n  mload(0x40)\n  dup1\n  0x40\n  add\n  0x40\n  mstore\n  dup1\n  0x05\n  dup2\n  mstore\n  0x20\n  add\n  0x4745454b54000000000000000000000000000000000000000000000000000000\n  dup2\n  mstore\n  pop\n  0x01\n  swap1\n  dup1\n  mload\n  swap1\n  0x20\n  add\n  swap1\n  tag_3\n  swap3\n  swap2\n  swap1\n  tag_2\n  jump\t// in\ntag_3:\n  pop\n    /* \"contracts/GeekNft.sol\":655:752  constructor(address _marketplaceAddress){... */\n  callvalue\n  dup1\n  iszero\n  tag_4\n  jumpi\n  0x00\n  dup1\n  revert\ntag_4:\n  pop\n  mload(0x40)\n  sub(codesize, bytecodeSize)\n  dup1\n  bytecodeSize\n  dup4\n  codecopy\n  dup2\n  dup2\n  add\n  0x40\n  mstore\n  dup2\n  add\n  swap1\n  tag_5\n  swap2\n  swap1\n  tag_6\n  jump\t// in\ntag_5:\n    /* \"contracts/GeekNft.sol\":726:745  _marketplaceAddress */\n  dup1\n    /* \"contracts/GeekNft.sol\":705:723  marketplaceAddress */\n  0x03\n  0x00\n    /* \"contracts/GeekNft.sol\":705:745  marketplaceAddress = _marketplaceAddress */\n  0x0100\n  exp\n  dup2\n  sload\n  dup2\n  0xffffffffffffffffffffffffffffffffffffffff\n  mul\n  not\n  and\n  swap1\n  dup4\n  0xffffffffffffffffffffffffffffffffffffffff\n  and\n  mul\n  or\n  swap1\n  sstore\n  pop\n    /* \"contracts/GeekNft.sol\":655:752  constructor(address _marketplaceAddress){... */\n  pop\n    /* \"contracts/GeekNft.sol\":110:1869  contract GeekNft {... */\n  jump(tag_9)\ntag_2:\n  dup3\n  dup1\n  sload\n  tag_10\n  swap1\n  tag_11\n  jump\t// in\ntag_10:\n  swap1\n  0x00\n  mstore\n  keccak256(0x00, 0x20)\n  swap1\n  0x1f\n  add\n  0x20\n  swap1\n  div\n  dup2\n  add\n  swap3\n  dup3\n  tag_13\n  jumpi\n  0x00\n  dup6\n  sstore\n  jump(tag_12)\ntag_13:\n  dup3\n  0x1f\n  lt\n  tag_14\n  jumpi\n  dup1\n  mload\n  not(0xff)\n  and\n  dup4\n  dup1\n  add\n  or\n  dup6\n  sstore\n  jump(tag_12)\ntag_14:\n  dup3\n  dup1\n  add\n  0x01\n  add\n  dup6\n  sstore\n  dup3\n  iszero\n  tag_12\n  jumpi\n  swap2\n  dup3\n  add\ntag_15:\n  dup3\n  dup2\n  gt\n  iszero\n  tag_16\n  jumpi\n  dup3\n  mload\n  dup3\n  sstore\n  swap2\n  0x20\n  add\n  swap2\n  swap1\n  0x01\n  add\n  swap1\n  jump(tag_15)\ntag_16:\ntag_12:\n  pop\n  swap1\n  pop\n  tag_17\n  swap2\n  swap1\n  tag_18\n  jump\t// in\ntag_17:\n  pop\n  swap1\n  jump\t// out\ntag_18:\ntag_19:\n  dup1\n  dup3\n  gt\n  iszero\n  tag_20\n  jumpi\n  0x00\n  dup2\n  0x00\n  swap1\n  sstore\n  pop\n  0x01\n  add\n  jump(tag_19)\ntag_20:\n  pop\n  swap1\n  jump\t// out\n    /* \"#utility.yul\":7:150   */\ntag_22:\n  0x00\n    /* \"#utility.yul\":95:101   */\n  dup2\n    /* \"#utility.yul\":89:102   */\n  mload\n    /* \"#utility.yul\":80:102   */\n  swap1\n  pop\n    /* \"#utility.yul\":111:144   */\n  tag_24\n    /* \"#utility.yul\":138:143   */\n  dup2\n    /* \"#utility.yul\":111:144   */\n  tag_25\n  jump\t// in\ntag_24:\n    /* \"#utility.yul\":70:150   */\n  swap3\n  swap2\n  pop\n  pop\n  jump\t// out\n    /* \"#utility.yul\":156:440   */\ntag_6:\n  0x00\n    /* \"#utility.yul\":275:277   */\n  0x20\n    /* \"#utility.yul\":263:272   */\n  dup3\n    /* \"#utility.yul\":254:261   */\n  dup5\n    /* \"#utility.yul\":250:273   */\n  sub\n    /* \"#utility.yul\":246:278   */\n  slt\n    /* \"#utility.yul\":243:245   */\n  iszero\n  tag_27\n  jumpi\n    /* \"#utility.yul\":291:292   */\n  0x00\n    /* \"#utility.yul\":288:289   */\n  dup1\n    /* \"#utility.yul\":281:293   */\n  revert\n    /* \"#utility.yul\":243:245   */\ntag_27:\n    /* \"#utility.yul\":334:335   */\n  0x00\n    /* \"#utility.yul\":359:423   */\n  tag_28\n    /* \"#utility.yul\":415:422   */\n  dup5\n    /* \"#utility.yul\":406:412   */\n  dup3\n    /* \"#utility.yul\":395:404   */\n  dup6\n    /* \"#utility.yul\":391:413   */\n  add\n    /* \"#utility.yul\":359:423   */\n  tag_22\n  jump\t// in\ntag_28:\n    /* \"#utility.yul\":349:423   */\n  swap2\n  pop\n    /* \"#utility.yul\":305:433   */\n  pop\n    /* \"#utility.yul\":233:440   */\n  swap3\n  swap2\n  pop\n  pop\n  jump\t// out\n    /* \"#utility.yul\":446:542   */\ntag_29:\n  0x00\n    /* \"#utility.yul\":512:536   */\n  tag_31\n    /* \"#utility.yul\":530:535   */\n  dup3\n    /* \"#utility.yul\":512:536   */\n  tag_32\n  jump\t// in\ntag_31:\n    /* \"#utility.yul\":501:536   */\n  swap1\n  pop\n    /* \"#utility.yul\":491:542   */\n  swap2\n  swap1\n  pop\n  jump\t// out\n    /* \"#utility.yul\":548:674   */\ntag_32:\n  0x00\n    /* \"#utility.yul\":625:667   */\n  0xffffffffffffffffffffffffffffffffffffffff\n    /* \"#utility.yul\":618:623   */\n  dup3\n    /* \"#utility.yul\":614:668   */\n  and\n    /* \"#utility.yul\":603:668   */\n  swap1\n  pop\n    /* \"#utility.yul\":593:674   */\n  swap2\n  swap1\n  pop\n  jump\t// out\n    /* \"#utility.yul\":680:1000   */\ntag_11:\n  0x00\n    /* \"#utility.yul\":761:762   */\n  0x02\n    /* \"#utility.yul\":755:759   */\n  dup3\n    /* \"#utility.yul\":751:763   */\n  div\n    /* \"#utility.yul\":741:763   */\n  swap1\n  pop\n    /* \"#utility.yul\":808:809   */\n  0x01\n    /* \"#utility.yul\":802:806   */\n  dup3\n    /* \"#utility.yul\":798:810   */\n  and\n    /* \"#utility.yul\":829:847   */\n  dup1\n    /* \"#utility.yul\":819:821   */\n  tag_35\n  jumpi\n    /* \"#utility.yul\":885:889   */\n  0x7f\n    /* \"#utility.yul\":877:883   */\n  dup3\n    /* \"#utility.yul\":873:890   */\n  and\n    /* \"#utility.yul\":863:890   */\n  swap2\n  pop\n    /* \"#utility.yul\":819:821   */\ntag_35:\n    /* \"#utility.yul\":947:949   */\n  0x20\n    /* \"#utility.yul\":939:945   */\n  dup3\n    /* \"#utility.yul\":936:950   */\n  lt\n    /* \"#utility.yul\":916:934   */\n  dup2\n    /* \"#utility.yul\":913:951   */\n  eq\n    /* \"#utility.yul\":910:912   */\n  iszero\n  tag_36\n  jumpi\n    /* \"#utility.yul\":966:984   */\n  tag_37\n  tag_38\n  jump\t// in\ntag_37:\n    /* \"#utility.yul\":910:912   */\ntag_36:\n    /* \"#utility.yul\":731:1000   */\n  pop\n  swap2\n  swap1\n  pop\n  jump\t// out\n    /* \"#utility.yul\":1006:1186   */\ntag_38:\n    /* \"#utility.yul\":1054:1131   */\n  0x4e487b7100000000000000000000000000000000000000000000000000000000\n    /* \"#utility.yul\":1051:1052   */\n  0x00\n    /* \"#utility.yul\":1044:1132   */\n  mstore\n    /* \"#utility.yul\":1151:1155   */\n  0x22\n    /* \"#utility.yul\":1148:1149   */\n  0x04\n    /* \"#utility.yul\":1141:1156   */\n  mstore\n    /* \"#utility.yul\":1175:1179   */\n  0x24\n    /* \"#utility.yul\":1172:1173   */\n  0x00\n    /* \"#utility.yul\":1165:1180   */\n  revert\n    /* \"#utility.yul\":1192:1314   */\ntag_25:\n    /* \"#utility.yul\":1265:1289   */\n  tag_41\n    /* \"#utility.yul\":1283:1288   */\n  dup2\n    /* \"#utility.yul\":1265:1289   */\n  tag_29\n  jump\t// in\ntag_41:\n    /* \"#utility.yul\":1258:1263   */\n  dup2\n    /* \"#utility.yul\":1255:1290   */\n  eq\n    /* \"#utility.yul\":1245:1247   */\n  tag_42\n  jumpi\n    /* \"#utility.yul\":1304:1305   */\n  0x00\n    /* \"#utility.yul\":1301:1302   */\n  dup1\n    /* \"#utility.yul\":1294:1306   */\n  revert\n    /* \"#utility.yul\":1245:1247   */\ntag_42:\n    /* \"#utility.yul\":1235:1314   */\n  pop\n  jump\t// out\n    /* \"contracts/GeekNft.sol\":110:1869  contract GeekNft {... */\ntag_9:\n  dataSize(sub_0)\n  dup1\n  dataOffset(sub_0)\n  0x00\n  codecopy\n  0x00\n  return\nstop\n\nsub_0: assembly {\n        /* \"contracts/GeekNft.sol\":110:1869  contract GeekNft {... */\n      mstore(0x40, 0x80)\n      callvalue\n      dup1\n      iszero\n      tag_1\n      jumpi\n      0x00\n      dup1\n      revert\n    tag_1:\n      pop\n      jumpi(tag_2, lt(calldatasize, 0x04))\n      shr(0xe0, calldataload(0x00))\n      dup1\n      0x06fdde03\n      eq\n      tag_3\n      jumpi\n      dup1\n      0x95d89b41\n      eq\n      tag_4\n      jumpi\n      dup1\n      0xd85d3d27\n      eq\n      tag_5\n      jumpi\n    tag_2:\n      0x00\n      dup1\n      revert\n        /* \"contracts/GeekNft.sol\":1018:1099  function name() public view returns (string memory) {... */\n    tag_3:\n      tag_6\n      tag_7\n      jump\t// in\n    tag_6:\n      mload(0x40)\n      tag_8\n      swap2\n      swap1\n      tag_9\n      jump\t// in\n    tag_8:\n      mload(0x40)\n      dup1\n      swap2\n      sub\n      swap1\n      return\n        /* \"contracts/GeekNft.sol\":1109:1194  function symbol() public view returns (string memory) {... */\n    tag_4:\n      tag_10\n      tag_11\n      jump\t// in\n    tag_10:\n      mload(0x40)\n      tag_12\n      swap2\n      swap1\n      tag_9\n      jump\t// in\n    tag_12:\n      mload(0x40)\n      dup1\n      swap2\n      sub\n      swap1\n      return\n        /* \"contracts/GeekNft.sol\":758:1011  function mint(string memory _tokenUri) public {... */\n    tag_5:\n      tag_13\n      0x04\n      dup1\n      calldatasize\n      sub\n      dup2\n      add\n      swap1\n      tag_14\n      swap2\n      swap1\n      tag_15\n      jump\t// in\n    tag_14:\n      tag_16\n      jump\t// in\n    tag_13:\n      stop\n        /* \"contracts/GeekNft.sol\":1018:1099  function name() public view returns (string memory) {... */\n    tag_7:\n        /* \"contracts/GeekNft.sol\":1055:1068  string memory */\n      0x60\n        /* \"contracts/GeekNft.sol\":1087:1092  _name */\n      0x00\n        /* \"contracts/GeekNft.sol\":1080:1092  return _name */\n      dup1\n      sload\n      tag_18\n      swap1\n      tag_19\n      jump\t// in\n    tag_18:\n      dup1\n      0x1f\n      add\n      0x20\n      dup1\n      swap2\n      div\n      mul\n      0x20\n      add\n      mload(0x40)\n      swap1\n      dup2\n      add\n      0x40\n      mstore\n      dup1\n      swap3\n      swap2\n      swap1\n      dup2\n      dup2\n      mstore\n      0x20\n      add\n      dup3\n      dup1\n      sload\n      tag_20\n      swap1\n      tag_19\n      jump\t// in\n    tag_20:\n      dup1\n      iszero\n      tag_21\n      jumpi\n      dup1\n      0x1f\n      lt\n      tag_22\n      jumpi\n      0x0100\n      dup1\n      dup4\n      sload\n      div\n      mul\n      dup4\n      mstore\n      swap2\n      0x20\n      add\n      swap2\n      jump(tag_21)\n    tag_22:\n      dup3\n      add\n      swap2\n      swap1\n      0x00\n      mstore\n      keccak256(0x00, 0x20)\n      swap1\n    tag_23:\n      dup2\n      sload\n      dup2\n      mstore\n      swap1\n      0x01\n      add\n      swap1\n      0x20\n      add\n      dup1\n      dup4\n      gt\n      tag_23\n      jumpi\n      dup3\n      swap1\n      sub\n      0x1f\n      and\n      dup3\n      add\n      swap2\n    tag_21:\n      pop\n      pop\n      pop\n      pop\n      pop\n      swap1\n      pop\n        /* \"contracts/GeekNft.sol\":1018:1099  function name() public view returns (string memory) {... */\n      swap1\n      jump\t// out\n        /* \"contracts/GeekNft.sol\":1109:1194  function symbol() public view returns (string memory) {... */\n    tag_11:\n        /* \"contracts/GeekNft.sol\":1148:1161  string memory */\n      0x60\n        /* \"contracts/GeekNft.sol\":1180:1187  _symbol */\n      0x01\n        /* \"contracts/GeekNft.sol\":1173:1187  return _symbol */\n      dup1\n      sload\n      tag_25\n      swap1\n      tag_19\n      jump\t// in\n    tag_25:\n      dup1\n      0x1f\n      add\n      0x20\n      dup1\n      swap2\n      div\n      mul\n      0x20\n      add\n      mload(0x40)\n      swap1\n      dup2\n      add\n      0x40\n      mstore\n      dup1\n      swap3\n      swap2\n      swap1\n      dup2\n      dup2\n      mstore\n      0x20\n      add\n      dup3\n      dup1\n      sload\n      tag_26\n      swap1\n      tag_19\n      jump\t// in\n    tag_26:\n      dup1\n      iszero\n      tag_27\n      jumpi\n      dup1\n      0x1f\n      lt\n      tag_28\n      jumpi\n      0x0100\n      dup1\n      dup4\n      sload\n      div\n      mul\n      dup4\n      mstore\n      swap2\n      0x20\n      add\n      swap2\n      jump(tag_27)\n    tag_28:\n      dup3\n      add\n      swap2\n      swap1\n      0x00\n      mstore\n      keccak256(0x00, 0x20)\n      swap1\n    tag_29:\n      dup2\n      sload\n      dup2\n      mstore\n      swap1\n      0x01\n      add\n      swap1\n      0x20\n      add\n      dup1\n      dup4\n      gt\n      tag_29\n      jumpi\n      dup3\n      swap1\n      sub\n      0x1f\n      and\n      dup3\n      add\n      swap2\n    tag_27:\n      pop\n      pop\n      pop\n      pop\n      pop\n      swap1\n      pop\n        /* \"contracts/GeekNft.sol\":1109:1194  function symbol() public view returns (string memory) {... */\n      swap1\n      jump\t// out\n        /* \"contracts/GeekNft.sol\":758:1011  function mint(string memory _tokenUri) public {... */\n    tag_16:\n        /* \"contracts/GeekNft.sol\":814:834  tokenIds.increment() */\n      tag_31\n        /* \"contracts/GeekNft.sol\":814:822  tokenIds */\n      0x02\n        /* \"contracts/GeekNft.sol\":814:832  tokenIds.increment */\n      tag_32\n        /* \"contracts/GeekNft.sol\":814:834  tokenIds.increment() */\n      jump\t// in\n    tag_31:\n        /* \"contracts/GeekNft.sol\":844:859  uint newTokenId */\n      0x00\n        /* \"contracts/GeekNft.sol\":862:880  tokenIds.current() */\n      tag_33\n        /* \"contracts/GeekNft.sol\":862:870  tokenIds */\n      0x02\n        /* \"contracts/GeekNft.sol\":862:878  tokenIds.current */\n      tag_34\n        /* \"contracts/GeekNft.sol\":862:880  tokenIds.current() */\n      jump\t// in\n    tag_33:\n        /* \"contracts/GeekNft.sol\":844:880  uint newTokenId = tokenIds.current() */\n      swap1\n      pop\n        /* \"contracts/GeekNft.sol\":890:923  _safeMint(msg.sender, newTokenId) */\n      tag_35\n        /* \"contracts/GeekNft.sol\":900:910  msg.sender */\n      caller\n        /* \"contracts/GeekNft.sol\":912:922  newTokenId */\n      dup3\n        /* \"contracts/GeekNft.sol\":890:899  _safeMint */\n      tag_36\n        /* \"contracts/GeekNft.sol\":890:923  _safeMint(msg.sender, newTokenId) */\n      jump\t// in\n    tag_35:\n        /* \"contracts/GeekNft.sol\":933:968  _setTokenUri(newTokenId, _tokenUri) */\n      tag_37\n        /* \"contracts/GeekNft.sol\":946:956  newTokenId */\n      dup2\n        /* \"contracts/GeekNft.sol\":958:967  _tokenUri */\n      dup4\n        /* \"contracts/GeekNft.sol\":933:945  _setTokenUri */\n      tag_38\n        /* \"contracts/GeekNft.sol\":933:968  _setTokenUri(newTokenId, _tokenUri) */\n      jump\t// in\n    tag_37:\n        /* \"contracts/GeekNft.sol\":983:1004  NftMinted(newTokenId) */\n      0x7f8949b6eca2b14d0feb1af0844a112998e467a4f88b8683301f3a6e409f32ae\n        /* \"contracts/GeekNft.sol\":993:1003  newTokenId */\n      dup2\n        /* \"contracts/GeekNft.sol\":983:1004  NftMinted(newTokenId) */\n      mload(0x40)\n      tag_39\n      swap2\n      swap1\n      tag_40\n      jump\t// in\n    tag_39:\n      mload(0x40)\n      dup1\n      swap2\n      sub\n      swap1\n      log1\n        /* \"contracts/GeekNft.sol\":758:1011  function mint(string memory _tokenUri) public {... */\n      pop\n      pop\n      jump\t// out\n        /* \"@openzeppelin/contracts/utils/Counters.sol\":945:1068  function increment(Counter storage counter) internal {... */\n    tag_32:\n        /* \"@openzeppelin/contracts/utils/Counters.sol\":1050:1051  1 */\n      0x01\n        /* \"@openzeppelin/contracts/utils/Counters.sol\":1032:1039  counter */\n      dup2\n        /* \"@openzeppelin/contracts/utils/Counters.sol\":1032:1046  counter._value */\n      0x00\n      add\n      0x00\n        /* \"@openzeppelin/contracts/utils/Counters.sol\":1032:1051  counter._value += 1 */\n      dup3\n      dup3\n      sload\n      add\n      swap3\n      pop\n      pop\n      dup2\n      swap1\n      sstore\n      pop\n        /* \"@openzeppelin/contracts/utils/Counters.sol\":945:1068  function increment(Counter storage counter) internal {... */\n      pop\n      jump\t// out\n        /* \"@openzeppelin/contracts/utils/Counters.sol\":827:939  function current(Counter storage counter) internal view returns (uint256) {... */\n    tag_34:\n        /* \"@openzeppelin/contracts/utils/Counters.sol\":892:899  uint256 */\n      0x00\n        /* \"@openzeppelin/contracts/utils/Counters.sol\":918:925  counter */\n      dup2\n        /* \"@openzeppelin/contracts/utils/Counters.sol\":918:932  counter._value */\n      0x00\n      add\n      sload\n        /* \"@openzeppelin/contracts/utils/Counters.sol\":911:932  return counter._value */\n      swap1\n      pop\n        /* \"@openzeppelin/contracts/utils/Counters.sol\":827:939  function current(Counter storage counter) internal view returns (uint256) {... */\n      swap2\n      swap1\n      pop\n      jump\t// out\n        /* \"contracts/GeekNft.sol\":1220:1661  function _safeMint(address _to, uint _tokenId) private{... */\n    tag_36:\n        /* \"contracts/GeekNft.sol\":1328:1329  0 */\n      0x00\n        /* \"contracts/GeekNft.sol\":1292:1330  tokenToCreator[_tokenId] == address(0) */\n      0xffffffffffffffffffffffffffffffffffffffff\n      and\n        /* \"contracts/GeekNft.sol\":1292:1306  tokenToCreator */\n      0x07\n        /* \"contracts/GeekNft.sol\":1292:1316  tokenToCreator[_tokenId] */\n      0x00\n        /* \"contracts/GeekNft.sol\":1307:1315  _tokenId */\n      dup4\n        /* \"contracts/GeekNft.sol\":1292:1316  tokenToCreator[_tokenId] */\n      dup2\n      mstore\n      0x20\n      add\n      swap1\n      dup2\n      mstore\n      0x20\n      add\n      0x00\n      keccak256\n      0x00\n      swap1\n      sload\n      swap1\n      0x0100\n      exp\n      swap1\n      div\n      0xffffffffffffffffffffffffffffffffffffffff\n      and\n        /* \"contracts/GeekNft.sol\":1292:1330  tokenToCreator[_tokenId] == address(0) */\n      0xffffffffffffffffffffffffffffffffffffffff\n      and\n      eq\n        /* \"contracts/GeekNft.sol\":1284:1354  require(tokenToCreator[_tokenId] == address(0), \"token already exist\") */\n      tag_44\n      jumpi\n      mload(0x40)\n      0x08c379a000000000000000000000000000000000000000000000000000000000\n      dup2\n      mstore\n      0x04\n      add\n      tag_45\n      swap1\n      tag_46\n      jump\t// in\n    tag_45:\n      mload(0x40)\n      dup1\n      swap2\n      sub\n      swap1\n      revert\n    tag_44:\n        /* \"contracts/GeekNft.sol\":1387:1388  0 */\n      0x00\n        /* \"contracts/GeekNft.sol\":1372:1389  _to == address(0) */\n      0xffffffffffffffffffffffffffffffffffffffff\n      and\n        /* \"contracts/GeekNft.sol\":1372:1375  _to */\n      dup3\n        /* \"contracts/GeekNft.sol\":1372:1389  _to == address(0) */\n      0xffffffffffffffffffffffffffffffffffffffff\n      and\n      eq\n        /* \"contracts/GeekNft.sol\":1364:1418  require(_to == address(0), \"mint to the zero address\") */\n      tag_47\n      jumpi\n      mload(0x40)\n      0x08c379a000000000000000000000000000000000000000000000000000000000\n      dup2\n      mstore\n      0x04\n      add\n      tag_48\n      swap1\n      tag_49\n      jump\t// in\n    tag_48:\n      mload(0x40)\n      dup1\n      swap2\n      sub\n      swap1\n      revert\n    tag_47:\n        /* \"contracts/GeekNft.sol\":1454:1457  _to */\n      dup2\n        /* \"contracts/GeekNft.sol\":1429:1441  tokenToOwner */\n      0x05\n        /* \"contracts/GeekNft.sol\":1429:1451  tokenToOwner[_tokenId] */\n      0x00\n        /* \"contracts/GeekNft.sol\":1442:1450  _tokenId */\n      dup4\n        /* \"contracts/GeekNft.sol\":1429:1451  tokenToOwner[_tokenId] */\n      dup2\n      mstore\n      0x20\n      add\n      swap1\n      dup2\n      mstore\n      0x20\n      add\n      0x00\n      keccak256\n      0x00\n        /* \"contracts/GeekNft.sol\":1429:1457  tokenToOwner[_tokenId] = _to */\n      0x0100\n      exp\n      dup2\n      sload\n      dup2\n      0xffffffffffffffffffffffffffffffffffffffff\n      mul\n      not\n      and\n      swap1\n      dup4\n      0xffffffffffffffffffffffffffffffffffffffff\n      and\n      mul\n      or\n      swap1\n      sstore\n      pop\n        /* \"contracts/GeekNft.sol\":1494:1497  _to */\n      dup2\n        /* \"contracts/GeekNft.sol\":1467:1481  tokenToCreator */\n      0x07\n        /* \"contracts/GeekNft.sol\":1467:1491  tokenToCreator[_tokenId] */\n      0x00\n        /* \"contracts/GeekNft.sol\":1482:1490  _tokenId */\n      dup4\n        /* \"contracts/GeekNft.sol\":1467:1491  tokenToCreator[_tokenId] */\n      dup2\n      mstore\n      0x20\n      add\n      swap1\n      dup2\n      mstore\n      0x20\n      add\n      0x00\n      keccak256\n      0x00\n        /* \"contracts/GeekNft.sol\":1467:1497  tokenToCreator[_tokenId] = _to */\n      0x0100\n      exp\n      dup2\n      sload\n      dup2\n      0xffffffffffffffffffffffffffffffffffffffff\n      mul\n      not\n      and\n      swap1\n      dup4\n      0xffffffffffffffffffffffffffffffffffffffff\n      and\n      mul\n      or\n      swap1\n      sstore\n      pop\n        /* \"contracts/GeekNft.sol\":1531:1547  tokensOwnerCount */\n      0x04\n        /* \"contracts/GeekNft.sol\":1531:1552  tokensOwnerCount[_to] */\n      0x00\n        /* \"contracts/GeekNft.sol\":1548:1551  _to */\n      dup4\n        /* \"contracts/GeekNft.sol\":1531:1552  tokensOwnerCount[_to] */\n      0xffffffffffffffffffffffffffffffffffffffff\n      and\n      0xffffffffffffffffffffffffffffffffffffffff\n      and\n      dup2\n      mstore\n      0x20\n      add\n      swap1\n      dup2\n      mstore\n      0x20\n      add\n      0x00\n      keccak256\n      0x00\n        /* \"contracts/GeekNft.sol\":1531:1554  tokensOwnerCount[_to]++ */\n      dup2\n      sload\n      dup1\n      swap3\n      swap2\n      swap1\n      0x01\n      add\n      swap2\n      swap1\n      pop\n      sstore\n      pop\n        /* \"contracts/GeekNft.sol\":1568:1586  tokensCreatorCount */\n      0x06\n        /* \"contracts/GeekNft.sol\":1568:1591  tokensCreatorCount[_to] */\n      0x00\n        /* \"contracts/GeekNft.sol\":1587:1590  _to */\n      dup4\n        /* \"contracts/GeekNft.sol\":1568:1591  tokensCreatorCount[_to] */\n      0xffffffffffffffffffffffffffffffffffffffff\n      and\n      0xffffffffffffffffffffffffffffffffffffffff\n      and\n      dup2\n      mstore\n      0x20\n      add\n      swap1\n      dup2\n      mstore\n      0x20\n      add\n      0x00\n      keccak256\n      0x00\n        /* \"contracts/GeekNft.sol\":1568:1593  tokensCreatorCount[_to]++ */\n      dup2\n      sload\n      dup1\n      swap3\n      swap2\n      swap1\n      0x01\n      add\n      swap2\n      swap1\n      pop\n      sstore\n      pop\n        /* \"contracts/GeekNft.sol\":1640:1643  _to */\n      dup2\n        /* \"contracts/GeekNft.sol\":1619:1654  Transfer(address(0), _to, _tokenId) */\n      0xffffffffffffffffffffffffffffffffffffffff\n      and\n        /* \"contracts/GeekNft.sol\":1636:1637  0 */\n      0x00\n        /* \"contracts/GeekNft.sol\":1619:1654  Transfer(address(0), _to, _tokenId) */\n      0xffffffffffffffffffffffffffffffffffffffff\n      and\n      0xddf252ad1be2c89b69c2b068fc378daa952ba7f163c4a11628f55a4df523b3ef\n        /* \"contracts/GeekNft.sol\":1645:1653  _tokenId */\n      dup4\n        /* \"contracts/GeekNft.sol\":1619:1654  Transfer(address(0), _to, _tokenId) */\n      mload(0x40)\n      tag_50\n      swap2\n      swap1\n      tag_40\n      jump\t// in\n    tag_50:\n      mload(0x40)\n      dup1\n      swap2\n      sub\n      swap1\n      log3\n        /* \"contracts/GeekNft.sol\":1220:1661  function _safeMint(address _to, uint _tokenId) private{... */\n      pop\n      pop\n      jump\t// out\n        /* \"contracts/GeekNft.sol\":1667:1866  function _setTokenUri(uint _tokenId, string memory _tokenUri) private {... */\n    tag_38:\n        /* \"contracts/GeekNft.sol\":1791:1792  0 */\n      0x00\n        /* \"contracts/GeekNft.sol\":1755:1793  tokenToCreator[_tokenId] != address(0) */\n      0xffffffffffffffffffffffffffffffffffffffff\n      and\n        /* \"contracts/GeekNft.sol\":1755:1769  tokenToCreator */\n      0x07\n        /* \"contracts/GeekNft.sol\":1755:1779  tokenToCreator[_tokenId] */\n      0x00\n        /* \"contracts/GeekNft.sol\":1770:1778  _tokenId */\n      dup5\n        /* \"contracts/GeekNft.sol\":1755:1779  tokenToCreator[_tokenId] */\n      dup2\n      mstore\n      0x20\n      add\n      swap1\n      dup2\n      mstore\n      0x20\n      add\n      0x00\n      keccak256\n      0x00\n      swap1\n      sload\n      swap1\n      0x0100\n      exp\n      swap1\n      div\n      0xffffffffffffffffffffffffffffffffffffffff\n      and\n        /* \"contracts/GeekNft.sol\":1755:1793  tokenToCreator[_tokenId] != address(0) */\n      0xffffffffffffffffffffffffffffffffffffffff\n      and\n      eq\n      iszero\n        /* \"contracts/GeekNft.sol\":1747:1817  require(tokenToCreator[_tokenId] != address(0), \"token doesn't exist\") */\n      tag_52\n      jumpi\n      mload(0x40)\n      0x08c379a000000000000000000000000000000000000000000000000000000000\n      dup2\n      mstore\n      0x04\n      add\n      tag_53\n      swap1\n      tag_54\n      jump\t// in\n    tag_53:\n      mload(0x40)\n      dup1\n      swap2\n      sub\n      swap1\n      revert\n    tag_52:\n        /* \"contracts/GeekNft.sol\":1850:1859  _tokenUri */\n      dup1\n        /* \"contracts/GeekNft.sol\":1827:1837  tokenToUri */\n      0x08\n        /* \"contracts/GeekNft.sol\":1827:1847  tokenToUri[_tokenId] */\n      0x00\n        /* \"contracts/GeekNft.sol\":1838:1846  _tokenId */\n      dup5\n        /* \"contracts/GeekNft.sol\":1827:1847  tokenToUri[_tokenId] */\n      dup2\n      mstore\n      0x20\n      add\n      swap1\n      dup2\n      mstore\n      0x20\n      add\n      0x00\n      keccak256\n        /* \"contracts/GeekNft.sol\":1827:1859  tokenToUri[_tokenId] = _tokenUri */\n      swap1\n      dup1\n      mload\n      swap1\n      0x20\n      add\n      swap1\n      tag_55\n      swap3\n      swap2\n      swap1\n      tag_56\n      jump\t// in\n    tag_55:\n      pop\n        /* \"contracts/GeekNft.sol\":1667:1866  function _setTokenUri(uint _tokenId, string memory _tokenUri) private {... */\n      pop\n      pop\n      jump\t// out\n    tag_56:\n      dup3\n      dup1\n      sload\n      tag_57\n      swap1\n      tag_19\n      jump\t// in\n    tag_57:\n      swap1\n      0x00\n      mstore\n      keccak256(0x00, 0x20)\n      swap1\n      0x1f\n      add\n      0x20\n      swap1\n      div\n      dup2\n      add\n      swap3\n      dup3\n      tag_59\n      jumpi\n      0x00\n      dup6\n      sstore\n      jump(tag_58)\n    tag_59:\n      dup3\n      0x1f\n      lt\n      tag_60\n      jumpi\n      dup1\n      mload\n      not(0xff)\n      and\n      dup4\n      dup1\n      add\n      or\n      dup6\n      sstore\n      jump(tag_58)\n    tag_60:\n      dup3\n      dup1\n      add\n      0x01\n      add\n      dup6\n      sstore\n      dup3\n      iszero\n      tag_58\n      jumpi\n      swap2\n      dup3\n      add\n    tag_61:\n      dup3\n      dup2\n      gt\n      iszero\n      tag_62\n      jumpi\n      dup3\n      mload\n      dup3\n      sstore\n      swap2\n      0x20\n      add\n      swap2\n      swap1\n      0x01\n      add\n      swap1\n      jump(tag_61)\n    tag_62:\n    tag_58:\n      pop\n      swap1\n      pop\n      tag_63\n      swap2\n      swap1\n      tag_64\n      jump\t// in\n    tag_63:\n      pop\n      swap1\n      jump\t// out\n    tag_64:\n    tag_65:\n      dup1\n      dup3\n      gt\n      iszero\n      tag_66\n      jumpi\n      0x00\n      dup2\n      0x00\n      swap1\n      sstore\n      pop\n      0x01\n      add\n      jump(tag_65)\n    tag_66:\n      pop\n      swap1\n      jump\t// out\n        /* \"#utility.yul\":7:352   */\n    tag_68:\n      0x00\n        /* \"#utility.yul\":110:176   */\n      tag_70\n        /* \"#utility.yul\":126:175   */\n      tag_71\n        /* \"#utility.yul\":168:174   */\n      dup5\n        /* \"#utility.yul\":126:175   */\n      tag_72\n      jump\t// in\n    tag_71:\n        /* \"#utility.yul\":110:176   */\n      tag_73\n      jump\t// in\n    tag_70:\n        /* \"#utility.yul\":101:176   */\n      swap1\n      pop\n        /* \"#utility.yul\":199:205   */\n      dup3\n        /* \"#utility.yul\":192:197   */\n      dup2\n        /* \"#utility.yul\":185:206   */\n      mstore\n        /* \"#utility.yul\":237:241   */\n      0x20\n        /* \"#utility.yul\":230:235   */\n      dup2\n        /* \"#utility.yul\":226:242   */\n      add\n        /* \"#utility.yul\":275:278   */\n      dup5\n        /* \"#utility.yul\":266:272   */\n      dup5\n        /* \"#utility.yul\":261:264   */\n      dup5\n        /* \"#utility.yul\":257:273   */\n      add\n        /* \"#utility.yul\":254:279   */\n      gt\n        /* \"#utility.yul\":251:253   */\n      iszero\n      tag_74\n      jumpi\n        /* \"#utility.yul\":292:293   */\n      0x00\n        /* \"#utility.yul\":289:290   */\n      dup1\n        /* \"#utility.yul\":282:294   */\n      revert\n        /* \"#utility.yul\":251:253   */\n    tag_74:\n        /* \"#utility.yul\":305:346   */\n      tag_75\n        /* \"#utility.yul\":339:345   */\n      dup5\n        /* \"#utility.yul\":334:337   */\n      dup3\n        /* \"#utility.yul\":329:332   */\n      dup6\n        /* \"#utility.yul\":305:346   */\n      tag_76\n      jump\t// in\n    tag_75:\n        /* \"#utility.yul\":91:352   */\n      pop\n      swap4\n      swap3\n      pop\n      pop\n      pop\n      jump\t// out\n        /* \"#utility.yul\":372:645   */\n    tag_77:\n      0x00\n        /* \"#utility.yul\":477:480   */\n      dup3\n        /* \"#utility.yul\":470:474   */\n      0x1f\n        /* \"#utility.yul\":462:468   */\n      dup4\n        /* \"#utility.yul\":458:475   */\n      add\n        /* \"#utility.yul\":454:481   */\n      slt\n        /* \"#utility.yul\":444:446   */\n      tag_79\n      jumpi\n        /* \"#utility.yul\":495:496   */\n      0x00\n        /* \"#utility.yul\":492:493   */\n      dup1\n        /* \"#utility.yul\":485:497   */\n      revert\n        /* \"#utility.yul\":444:446   */\n    tag_79:\n        /* \"#utility.yul\":535:541   */\n      dup2\n        /* \"#utility.yul\":522:542   */\n      calldataload\n        /* \"#utility.yul\":560:639   */\n      tag_80\n        /* \"#utility.yul\":635:638   */\n      dup5\n        /* \"#utility.yul\":627:633   */\n      dup3\n        /* \"#utility.yul\":620:624   */\n      0x20\n        /* \"#utility.yul\":612:618   */\n      dup7\n        /* \"#utility.yul\":608:625   */\n      add\n        /* \"#utility.yul\":560:639   */\n      tag_68\n      jump\t// in\n    tag_80:\n        /* \"#utility.yul\":551:639   */\n      swap2\n      pop\n        /* \"#utility.yul\":434:645   */\n      pop\n      swap3\n      swap2\n      pop\n      pop\n      jump\t// out\n        /* \"#utility.yul\":651:1026   */\n    tag_15:\n      0x00\n        /* \"#utility.yul\":769:771   */\n      0x20\n        /* \"#utility.yul\":757:766   */\n      dup3\n        /* \"#utility.yul\":748:755   */\n      dup5\n        /* \"#utility.yul\":744:767   */\n      sub\n        /* \"#utility.yul\":740:772   */\n      slt\n        /* \"#utility.yul\":737:739   */\n      iszero\n      tag_82\n      jumpi\n        /* \"#utility.yul\":785:786   */\n      0x00\n        /* \"#utility.yul\":782:783   */\n      dup1\n        /* \"#utility.yul\":775:787   */\n      revert\n        /* \"#utility.yul\":737:739   */\n    tag_82:\n        /* \"#utility.yul\":856:857   */\n      0x00\n        /* \"#utility.yul\":845:854   */\n      dup3\n        /* \"#utility.yul\":841:858   */\n      add\n        /* \"#utility.yul\":828:859   */\n      calldataload\n        /* \"#utility.yul\":886:904   */\n      0xffffffffffffffff\n        /* \"#utility.yul\":878:884   */\n      dup2\n        /* \"#utility.yul\":875:905   */\n      gt\n        /* \"#utility.yul\":872:874   */\n      iszero\n      tag_83\n      jumpi\n        /* \"#utility.yul\":918:919   */\n      0x00\n        /* \"#utility.yul\":915:916   */\n      dup1\n        /* \"#utility.yul\":908:920   */\n      revert\n        /* \"#utility.yul\":872:874   */\n    tag_83:\n        /* \"#utility.yul\":946:1009   */\n      tag_84\n        /* \"#utility.yul\":1001:1008   */\n      dup5\n        /* \"#utility.yul\":992:998   */\n      dup3\n        /* \"#utility.yul\":981:990   */\n      dup6\n        /* \"#utility.yul\":977:999   */\n      add\n        /* \"#utility.yul\":946:1009   */\n      tag_77\n      jump\t// in\n    tag_84:\n        /* \"#utility.yul\":936:1009   */\n      swap2\n      pop\n        /* \"#utility.yul\":799:1019   */\n      pop\n        /* \"#utility.yul\":727:1026   */\n      swap3\n      swap2\n      pop\n      pop\n      jump\t// out\n        /* \"#utility.yul\":1032:1396   */\n    tag_85:\n      0x00\n        /* \"#utility.yul\":1148:1187   */\n      tag_87\n        /* \"#utility.yul\":1181:1186   */\n      dup3\n        /* \"#utility.yul\":1148:1187   */\n      tag_88\n      jump\t// in\n    tag_87:\n        /* \"#utility.yul\":1203:1274   */\n      tag_89\n        /* \"#utility.yul\":1267:1273   */\n      dup2\n        /* \"#utility.yul\":1262:1265   */\n      dup6\n        /* \"#utility.yul\":1203:1274   */\n      tag_90\n      jump\t// in\n    tag_89:\n        /* \"#utility.yul\":1196:1274   */\n      swap4\n      pop\n        /* \"#utility.yul\":1283:1335   */\n      tag_91\n        /* \"#utility.yul\":1328:1334   */\n      dup2\n        /* \"#utility.yul\":1323:1326   */\n      dup6\n        /* \"#utility.yul\":1316:1320   */\n      0x20\n        /* \"#utility.yul\":1309:1314   */\n      dup7\n        /* \"#utility.yul\":1305:1321   */\n      add\n        /* \"#utility.yul\":1283:1335   */\n      tag_92\n      jump\t// in\n    tag_91:\n        /* \"#utility.yul\":1360:1389   */\n      tag_93\n        /* \"#utility.yul\":1382:1388   */\n      dup2\n        /* \"#utility.yul\":1360:1389   */\n      tag_94\n      jump\t// in\n    tag_93:\n        /* \"#utility.yul\":1355:1358   */\n      dup5\n        /* \"#utility.yul\":1351:1390   */\n      add\n        /* \"#utility.yul\":1344:1390   */\n      swap2\n      pop\n        /* \"#utility.yul\":1124:1396   */\n      pop\n      swap3\n      swap2\n      pop\n      pop\n      jump\t// out\n        /* \"#utility.yul\":1402:1768   */\n    tag_95:\n      0x00\n        /* \"#utility.yul\":1565:1632   */\n      tag_97\n        /* \"#utility.yul\":1629:1631   */\n      0x13\n        /* \"#utility.yul\":1624:1627   */\n      dup4\n        /* \"#utility.yul\":1565:1632   */\n      tag_90\n      jump\t// in\n    tag_97:\n        /* \"#utility.yul\":1558:1632   */\n      swap2\n      pop\n        /* \"#utility.yul\":1641:1734   */\n      tag_98\n        /* \"#utility.yul\":1730:1733   */\n      dup3\n        /* \"#utility.yul\":1641:1734   */\n      tag_99\n      jump\t// in\n    tag_98:\n        /* \"#utility.yul\":1759:1761   */\n      0x20\n        /* \"#utility.yul\":1754:1757   */\n      dup3\n        /* \"#utility.yul\":1750:1762   */\n      add\n        /* \"#utility.yul\":1743:1762   */\n      swap1\n      pop\n        /* \"#utility.yul\":1548:1768   */\n      swap2\n      swap1\n      pop\n      jump\t// out\n        /* \"#utility.yul\":1774:2140   */\n    tag_100:\n      0x00\n        /* \"#utility.yul\":1937:2004   */\n      tag_102\n        /* \"#utility.yul\":2001:2003   */\n      0x13\n        /* \"#utility.yul\":1996:1999   */\n      dup4\n        /* \"#utility.yul\":1937:2004   */\n      tag_90\n      jump\t// in\n    tag_102:\n        /* \"#utility.yul\":1930:2004   */\n      swap2\n      pop\n        /* \"#utility.yul\":2013:2106   */\n      tag_103\n        /* \"#utility.yul\":2102:2105   */\n      dup3\n        /* \"#utility.yul\":2013:2106   */\n      tag_104\n      jump\t// in\n    tag_103:\n        /* \"#utility.yul\":2131:2133   */\n      0x20\n        /* \"#utility.yul\":2126:2129   */\n      dup3\n        /* \"#utility.yul\":2122:2134   */\n      add\n        /* \"#utility.yul\":2115:2134   */\n      swap1\n      pop\n        /* \"#utility.yul\":1920:2140   */\n      swap2\n      swap1\n      pop\n      jump\t// out\n        /* \"#utility.yul\":2146:2512   */\n    tag_105:\n      0x00\n        /* \"#utility.yul\":2309:2376   */\n      tag_107\n        /* \"#utility.yul\":2373:2375   */\n      0x18\n        /* \"#utility.yul\":2368:2371   */\n      dup4\n        /* \"#utility.yul\":2309:2376   */\n      tag_90\n      jump\t// in\n    tag_107:\n        /* \"#utility.yul\":2302:2376   */\n      swap2\n      pop\n        /* \"#utility.yul\":2385:2478   */\n      tag_108\n        /* \"#utility.yul\":2474:2477   */\n      dup3\n        /* \"#utility.yul\":2385:2478   */\n      tag_109\n      jump\t// in\n    tag_108:\n        /* \"#utility.yul\":2503:2505   */\n      0x20\n        /* \"#utility.yul\":2498:2501   */\n      dup3\n        /* \"#utility.yul\":2494:2506   */\n      add\n        /* \"#utility.yul\":2487:2506   */\n      swap1\n      pop\n        /* \"#utility.yul\":2292:2512   */\n      swap2\n      swap1\n      pop\n      jump\t// out\n        /* \"#utility.yul\":2518:2636   */\n    tag_110:\n        /* \"#utility.yul\":2605:2629   */\n      tag_112\n        /* \"#utility.yul\":2623:2628   */\n      dup2\n        /* \"#utility.yul\":2605:2629   */\n      tag_113\n      jump\t// in\n    tag_112:\n        /* \"#utility.yul\":2600:2603   */\n      dup3\n        /* \"#utility.yul\":2593:2630   */\n      mstore\n        /* \"#utility.yul\":2583:2636   */\n      pop\n      pop\n      jump\t// out\n        /* \"#utility.yul\":2642:2955   */\n    tag_9:\n      0x00\n        /* \"#utility.yul\":2793:2795   */\n      0x20\n        /* \"#utility.yul\":2782:2791   */\n      dup3\n        /* \"#utility.yul\":2778:2796   */\n      add\n        /* \"#utility.yul\":2770:2796   */\n      swap1\n      pop\n        /* \"#utility.yul\":2842:2851   */\n      dup2\n        /* \"#utility.yul\":2836:2840   */\n      dup2\n        /* \"#utility.yul\":2832:2852   */\n      sub\n        /* \"#utility.yul\":2828:2829   */\n      0x00\n        /* \"#utility.yul\":2817:2826   */\n      dup4\n        /* \"#utility.yul\":2813:2830   */\n      add\n        /* \"#utility.yul\":2806:2853   */\n      mstore\n        /* \"#utility.yul\":2870:2948   */\n      tag_115\n        /* \"#utility.yul\":2943:2947   */\n      dup2\n        /* \"#utility.yul\":2934:2940   */\n      dup5\n        /* \"#utility.yul\":2870:2948   */\n      tag_85\n      jump\t// in\n    tag_115:\n        /* \"#utility.yul\":2862:2948   */\n      swap1\n      pop\n        /* \"#utility.yul\":2760:2955   */\n      swap3\n      swap2\n      pop\n      pop\n      jump\t// out\n        /* \"#utility.yul\":2961:3380   */\n    tag_46:\n      0x00\n        /* \"#utility.yul\":3165:3167   */\n      0x20\n        /* \"#utility.yul\":3154:3163   */\n      dup3\n        /* \"#utility.yul\":3150:3168   */\n      add\n        /* \"#utility.yul\":3142:3168   */\n      swap1\n      pop\n        /* \"#utility.yul\":3214:3223   */\n      dup2\n        /* \"#utility.yul\":3208:3212   */\n      dup2\n        /* \"#utility.yul\":3204:3224   */\n      sub\n        /* \"#utility.yul\":3200:3201   */\n      0x00\n        /* \"#utility.yul\":3189:3198   */\n      dup4\n        /* \"#utility.yul\":3185:3202   */\n      add\n        /* \"#utility.yul\":3178:3225   */\n      mstore\n        /* \"#utility.yul\":3242:3373   */\n      tag_117\n        /* \"#utility.yul\":3368:3372   */\n      dup2\n        /* \"#utility.yul\":3242:3373   */\n      tag_95\n      jump\t// in\n    tag_117:\n        /* \"#utility.yul\":3234:3373   */\n      swap1\n      pop\n        /* \"#utility.yul\":3132:3380   */\n      swap2\n      swap1\n      pop\n      jump\t// out\n        /* \"#utility.yul\":3386:3805   */\n    tag_54:\n      0x00\n        /* \"#utility.yul\":3590:3592   */\n      0x20\n        /* \"#utility.yul\":3579:3588   */\n      dup3\n        /* \"#utility.yul\":3575:3593   */\n      add\n        /* \"#utility.yul\":3567:3593   */\n      swap1\n      pop\n        /* \"#utility.yul\":3639:3648   */\n      dup2\n        /* \"#utility.yul\":3633:3637   */\n      dup2\n        /* \"#utility.yul\":3629:3649   */\n      sub\n        /* \"#utility.yul\":3625:3626   */\n      0x00\n        /* \"#utility.yul\":3614:3623   */\n      dup4\n        /* \"#utility.yul\":3610:3627   */\n      add\n        /* \"#utility.yul\":3603:3650   */\n      mstore\n        /* \"#utility.yul\":3667:3798   */\n      tag_119\n        /* \"#utility.yul\":3793:3797   */\n      dup2\n        /* \"#utility.yul\":3667:3798   */\n      tag_100\n      jump\t// in\n    tag_119:\n        /* \"#utility.yul\":3659:3798   */\n      swap1\n      pop\n        /* \"#utility.yul\":3557:3805   */\n      swap2\n      swap1\n      pop\n      jump\t// out\n        /* \"#utility.yul\":3811:4230   */\n    tag_49:\n      0x00\n        /* \"#utility.yul\":4015:4017   */\n      0x20\n        /* \"#utility.yul\":4004:4013   */\n      dup3\n        /* \"#utility.yul\":4000:4018   */\n      add\n        /* \"#utility.yul\":3992:4018   */\n      swap1\n      pop\n        /* \"#utility.yul\":4064:4073   */\n      dup2\n        /* \"#utility.yul\":4058:4062   */\n      dup2\n        /* \"#utility.yul\":4054:4074   */\n      sub\n        /* \"#utility.yul\":4050:4051   */\n      0x00\n        /* \"#utility.yul\":4039:4048   */\n      dup4\n        /* \"#utility.yul\":4035:4052   */\n      add\n        /* \"#utility.yul\":4028:4075   */\n      mstore\n        /* \"#utility.yul\":4092:4223   */\n      tag_121\n        /* \"#utility.yul\":4218:4222   */\n      dup2\n        /* \"#utility.yul\":4092:4223   */\n      tag_105\n      jump\t// in\n    tag_121:\n        /* \"#utility.yul\":4084:4223   */\n      swap1\n      pop\n        /* \"#utility.yul\":3982:4230   */\n      swap2\n      swap1\n      pop\n      jump\t// out\n        /* \"#utility.yul\":4236:4458   */\n    tag_40:\n      0x00\n        /* \"#utility.yul\":4367:4369   */\n      0x20\n        /* \"#utility.yul\":4356:4365   */\n      dup3\n        /* \"#utility.yul\":4352:4370   */\n      add\n        /* \"#utility.yul\":4344:4370   */\n      swap1\n      pop\n        /* \"#utility.yul\":4380:4451   */\n      tag_123\n        /* \"#utility.yul\":4448:4449   */\n      0x00\n        /* \"#utility.yul\":4437:4446   */\n      dup4\n        /* \"#utility.yul\":4433:4450   */\n      add\n        /* \"#utility.yul\":4424:4430   */\n      dup5\n        /* \"#utility.yul\":4380:4451   */\n      tag_110\n      jump\t// in\n    tag_123:\n        /* \"#utility.yul\":4334:4458   */\n      swap3\n      swap2\n      pop\n      pop\n      jump\t// out\n        /* \"#utility.yul\":4464:4593   */\n    tag_73:\n      0x00\n        /* \"#utility.yul\":4525:4545   */\n      tag_125\n      tag_126\n      jump\t// in\n    tag_125:\n        /* \"#utility.yul\":4515:4545   */\n      swap1\n      pop\n        /* \"#utility.yul\":4554:4587   */\n      tag_127\n        /* \"#utility.yul\":4582:4586   */\n      dup3\n        /* \"#utility.yul\":4574:4580   */\n      dup3\n        /* \"#utility.yul\":4554:4587   */\n      tag_128\n      jump\t// in\n    tag_127:\n        /* \"#utility.yul\":4505:4593   */\n      swap2\n      swap1\n      pop\n      jump\t// out\n        /* \"#utility.yul\":4599:4674   */\n    tag_126:\n      0x00\n        /* \"#utility.yul\":4665:4667   */\n      0x40\n        /* \"#utility.yul\":4659:4668   */\n      mload\n        /* \"#utility.yul\":4649:4668   */\n      swap1\n      pop\n        /* \"#utility.yul\":4639:4674   */\n      swap1\n      jump\t// out\n        /* \"#utility.yul\":4680:4988   */\n    tag_72:\n      0x00\n        /* \"#utility.yul\":4832:4850   */\n      0xffffffffffffffff\n        /* \"#utility.yul\":4824:4830   */\n      dup3\n        /* \"#utility.yul\":4821:4851   */\n      gt\n        /* \"#utility.yul\":4818:4820   */\n      iszero\n      tag_131\n      jumpi\n        /* \"#utility.yul\":4854:4872   */\n      tag_132\n      tag_133\n      jump\t// in\n    tag_132:\n        /* \"#utility.yul\":4818:4820   */\n    tag_131:\n        /* \"#utility.yul\":4892:4921   */\n      tag_134\n        /* \"#utility.yul\":4914:4920   */\n      dup3\n        /* \"#utility.yul\":4892:4921   */\n      tag_94\n      jump\t// in\n    tag_134:\n        /* \"#utility.yul\":4884:4921   */\n      swap1\n      pop\n        /* \"#utility.yul\":4976:4980   */\n      0x20\n        /* \"#utility.yul\":4970:4974   */\n      dup2\n        /* \"#utility.yul\":4966:4981   */\n      add\n        /* \"#utility.yul\":4958:4981   */\n      swap1\n      pop\n        /* \"#utility.yul\":4747:4988   */\n      swap2\n      swap1\n      pop\n      jump\t// out\n        /* \"#utility.yul\":4994:5093   */\n    tag_88:\n      0x00\n        /* \"#utility.yul\":5080:5085   */\n      dup2\n        /* \"#utility.yul\":5074:5086   */\n      mload\n        /* \"#utility.yul\":5064:5086   */\n      swap1\n      pop\n        /* \"#utility.yul\":5053:5093   */\n      swap2\n      swap1\n      pop\n      jump\t// out\n        /* \"#utility.yul\":5099:5268   */\n    tag_90:\n      0x00\n        /* \"#utility.yul\":5217:5223   */\n      dup3\n        /* \"#utility.yul\":5212:5215   */\n      dup3\n        /* \"#utility.yul\":5205:5224   */\n      mstore\n        /* \"#utility.yul\":5257:5261   */\n      0x20\n        /* \"#utility.yul\":5252:5255   */\n      dup3\n        /* \"#utility.yul\":5248:5262   */\n      add\n        /* \"#utility.yul\":5233:5262   */\n      swap1\n      pop\n        /* \"#utility.yul\":5195:5268   */\n      swap3\n      swap2\n      pop\n      pop\n      jump\t// out\n        /* \"#utility.yul\":5274:5351   */\n    tag_113:\n      0x00\n        /* \"#utility.yul\":5340:5345   */\n      dup2\n        /* \"#utility.yul\":5329:5345   */\n      swap1\n      pop\n        /* \"#utility.yul\":5319:5351   */\n      swap2\n      swap1\n      pop\n      jump\t// out\n        /* \"#utility.yul\":5357:5511   */\n    tag_76:\n        /* \"#utility.yul\":5441:5447   */\n      dup3\n        /* \"#utility.yul\":5436:5439   */\n      dup2\n        /* \"#utility.yul\":5431:5434   */\n      dup4\n        /* \"#utility.yul\":5418:5448   */\n      calldatacopy\n        /* \"#utility.yul\":5503:5504   */\n      0x00\n        /* \"#utility.yul\":5494:5500   */\n      dup4\n        /* \"#utility.yul\":5489:5492   */\n      dup4\n        /* \"#utility.yul\":5485:5501   */\n      add\n        /* \"#utility.yul\":5478:5505   */\n      mstore\n        /* \"#utility.yul\":5408:5511   */\n      pop\n      pop\n      pop\n      jump\t// out\n        /* \"#utility.yul\":5517:5824   */\n    tag_92:\n        /* \"#utility.yul\":5585:5586   */\n      0x00\n        /* \"#utility.yul\":5595:5708   */\n    tag_140:\n        /* \"#utility.yul\":5609:5615   */\n      dup4\n        /* \"#utility.yul\":5606:5607   */\n      dup2\n        /* \"#utility.yul\":5603:5616   */\n      lt\n        /* \"#utility.yul\":5595:5708   */\n      iszero\n      tag_142\n      jumpi\n        /* \"#utility.yul\":5694:5695   */\n      dup1\n        /* \"#utility.yul\":5689:5692   */\n      dup3\n        /* \"#utility.yul\":5685:5696   */\n      add\n        /* \"#utility.yul\":5679:5697   */\n      mload\n        /* \"#utility.yul\":5675:5676   */\n      dup2\n        /* \"#utility.yul\":5670:5673   */\n      dup5\n        /* \"#utility.yul\":5666:5677   */\n      add\n        /* \"#utility.yul\":5659:5698   */\n      mstore\n        /* \"#utility.yul\":5631:5633   */\n      0x20\n        /* \"#utility.yul\":5628:5629   */\n      dup2\n        /* \"#utility.yul\":5624:5634   */\n      add\n        /* \"#utility.yul\":5619:5634   */\n      swap1\n      pop\n        /* \"#utility.yul\":5595:5708   */\n      jump(tag_140)\n    tag_142:\n        /* \"#utility.yul\":5726:5732   */\n      dup4\n        /* \"#utility.yul\":5723:5724   */\n      dup2\n        /* \"#utility.yul\":5720:5733   */\n      gt\n        /* \"#utility.yul\":5717:5719   */\n      iszero\n      tag_143\n      jumpi\n        /* \"#utility.yul\":5806:5807   */\n      0x00\n        /* \"#utility.yul\":5797:5803   */\n      dup5\n        /* \"#utility.yul\":5792:5795   */\n      dup5\n        /* \"#utility.yul\":5788:5804   */\n      add\n        /* \"#utility.yul\":5781:5808   */\n      mstore\n        /* \"#utility.yul\":5717:5719   */\n    tag_143:\n        /* \"#utility.yul\":5566:5824   */\n      pop\n      pop\n      pop\n      pop\n      jump\t// out\n        /* \"#utility.yul\":5830:6150   */\n    tag_19:\n      0x00\n        /* \"#utility.yul\":5911:5912   */\n      0x02\n        /* \"#utility.yul\":5905:5909   */\n      dup3\n        /* \"#utility.yul\":5901:5913   */\n      div\n        /* \"#utility.yul\":5891:5913   */\n      swap1\n      pop\n        /* \"#utility.yul\":5958:5959   */\n      0x01\n        /* \"#utility.yul\":5952:5956   */\n      dup3\n        /* \"#utility.yul\":5948:5960   */\n      and\n        /* \"#utility.yul\":5979:5997   */\n      dup1\n        /* \"#utility.yul\":5969:5971   */\n      tag_145\n      jumpi\n        /* \"#utility.yul\":6035:6039   */\n      0x7f\n        /* \"#utility.yul\":6027:6033   */\n      dup3\n        /* \"#utility.yul\":6023:6040   */\n      and\n        /* \"#utility.yul\":6013:6040   */\n      swap2\n      pop\n        /* \"#utility.yul\":5969:5971   */\n    tag_145:\n        /* \"#utility.yul\":6097:6099   */\n      0x20\n        /* \"#utility.yul\":6089:6095   */\n      dup3\n        /* \"#utility.yul\":6086:6100   */\n      lt\n        /* \"#utility.yul\":6066:6084   */\n      dup2\n        /* \"#utility.yul\":6063:6101   */\n      eq\n        /* \"#utility.yul\":6060:6062   */\n      iszero\n      tag_146\n      jumpi\n        /* \"#utility.yul\":6116:6134   */\n      tag_147\n      tag_148\n      jump\t// in\n    tag_147:\n        /* \"#utility.yul\":6060:6062   */\n    tag_146:\n        /* \"#utility.yul\":5881:6150   */\n      pop\n      swap2\n      swap1\n      pop\n      jump\t// out\n        /* \"#utility.yul\":6156:6437   */\n    tag_128:\n        /* \"#utility.yul\":6239:6266   */\n      tag_150\n        /* \"#utility.yul\":6261:6265   */\n      dup3\n        /* \"#utility.yul\":6239:6266   */\n      tag_94\n      jump\t// in\n    tag_150:\n        /* \"#utility.yul\":6231:6237   */\n      dup2\n        /* \"#utility.yul\":6227:6267   */\n      add\n        /* \"#utility.yul\":6369:6375   */\n      dup2\n        /* \"#utility.yul\":6357:6367   */\n      dup2\n        /* \"#utility.yul\":6354:6376   */\n      lt\n        /* \"#utility.yul\":6333:6351   */\n      0xffffffffffffffff\n        /* \"#utility.yul\":6321:6331   */\n      dup3\n        /* \"#utility.yul\":6318:6352   */\n      gt\n        /* \"#utility.yul\":6315:6377   */\n      or\n        /* \"#utility.yul\":6312:6314   */\n      iszero\n      tag_151\n      jumpi\n        /* \"#utility.yul\":6380:6398   */\n      tag_152\n      tag_133\n      jump\t// in\n    tag_152:\n        /* \"#utility.yul\":6312:6314   */\n    tag_151:\n        /* \"#utility.yul\":6420:6430   */\n      dup1\n        /* \"#utility.yul\":6416:6418   */\n      0x40\n        /* \"#utility.yul\":6409:6431   */\n      mstore\n        /* \"#utility.yul\":6199:6437   */\n      pop\n      pop\n      pop\n      jump\t// out\n        /* \"#utility.yul\":6443:6623   */\n    tag_148:\n        /* \"#utility.yul\":6491:6568   */\n      0x4e487b7100000000000000000000000000000000000000000000000000000000\n        /* \"#utility.yul\":6488:6489   */\n      0x00\n        /* \"#utility.yul\":6481:6569   */\n      mstore\n        /* \"#utility.yul\":6588:6592   */\n      0x22\n        /* \"#utility.yul\":6585:6586   */\n      0x04\n        /* \"#utility.yul\":6578:6593   */\n      mstore\n        /* \"#utility.yul\":6612:6616   */\n      0x24\n        /* \"#utility.yul\":6609:6610   */\n      0x00\n        /* \"#utility.yul\":6602:6617   */\n      revert\n        /* \"#utility.yul\":6629:6809   */\n    tag_133:\n        /* \"#utility.yul\":6677:6754   */\n      0x4e487b7100000000000000000000000000000000000000000000000000000000\n        /* \"#utility.yul\":6674:6675   */\n      0x00\n        /* \"#utility.yul\":6667:6755   */\n      mstore\n        /* \"#utility.yul\":6774:6778   */\n      0x41\n        /* \"#utility.yul\":6771:6772   */\n      0x04\n        /* \"#utility.yul\":6764:6779   */\n      mstore\n        /* \"#utility.yul\":6798:6802   */\n      0x24\n        /* \"#utility.yul\":6795:6796   */\n      0x00\n        /* \"#utility.yul\":6788:6803   */\n      revert\n        /* \"#utility.yul\":6815:6917   */\n    tag_94:\n      0x00\n        /* \"#utility.yul\":6907:6909   */\n      0x1f\n        /* \"#utility.yul\":6903:6910   */\n      not\n        /* \"#utility.yul\":6898:6900   */\n      0x1f\n        /* \"#utility.yul\":6891:6896   */\n      dup4\n        /* \"#utility.yul\":6887:6901   */\n      add\n        /* \"#utility.yul\":6883:6911   */\n      and\n        /* \"#utility.yul\":6873:6911   */\n      swap1\n      pop\n        /* \"#utility.yul\":6863:6917   */\n      swap2\n      swap1\n      pop\n      jump\t// out\n        /* \"#utility.yul\":6923:7092   */\n    tag_99:\n        /* \"#utility.yul\":7063:7084   */\n      0x746f6b656e20616c726561647920657869737400000000000000000000000000\n        /* \"#utility.yul\":7059:7060   */\n      0x00\n        /* \"#utility.yul\":7051:7057   */\n      dup3\n        /* \"#utility.yul\":7047:7061   */\n      add\n        /* \"#utility.yul\":7040:7085   */\n      mstore\n        /* \"#utility.yul\":7029:7092   */\n      pop\n      jump\t// out\n        /* \"#utility.yul\":7098:7267   */\n    tag_104:\n        /* \"#utility.yul\":7238:7259   */\n      0x746f6b656e20646f65736e277420657869737400000000000000000000000000\n        /* \"#utility.yul\":7234:7235   */\n      0x00\n        /* \"#utility.yul\":7226:7232   */\n      dup3\n        /* \"#utility.yul\":7222:7236   */\n      add\n        /* \"#utility.yul\":7215:7260   */\n      mstore\n        /* \"#utility.yul\":7204:7267   */\n      pop\n      jump\t// out\n        /* \"#utility.yul\":7273:7447   */\n    tag_109:\n        /* \"#utility.yul\":7413:7439   */\n      0x6d696e7420746f20746865207a65726f20616464726573730000000000000000\n        /* \"#utility.yul\":7409:7410   */\n      0x00\n        /* \"#utility.yul\":7401:7407   */\n      dup3\n        /* \"#utility.yul\":7397:7411   */\n      add\n        /* \"#utility.yul\":7390:7440   */\n      mstore\n        /* \"#utility.yul\":7379:7447   */\n      pop\n      jump\t// out\n\n    auxdata: 0xa26469706673582212208f26eb9f35e5deee816a85bcd499b7b0ee9aae4eae8a144424eb2c2fbd6a92b764736f6c63430008010033\n}\n",
				"bytecode": {
					"linkReferences": {},
					"object": "60806040526040518060400160405280600781526020017f4765656b4e66740000000000000000000000000000000000000000000000000081525060009080519060200190620000519291906200011b565b506040518060400160405280600581526020017f4745454b54000000000000000000000000000000000000000000000000000000815250600190805190602001906200009f9291906200011b565b50348015620000ad57600080fd5b5060405162000d8538038062000d858339818101604052810190620000d39190620001e2565b80600360006101000a81548173ffffffffffffffffffffffffffffffffffffffff021916908373ffffffffffffffffffffffffffffffffffffffff16021790555050620002c1565b828054620001299062000242565b90600052602060002090601f0160209004810192826200014d576000855562000199565b82601f106200016857805160ff191683800117855562000199565b8280016001018555821562000199579182015b82811115620001985782518255916020019190600101906200017b565b5b509050620001a89190620001ac565b5090565b5b80821115620001c7576000816000905550600101620001ad565b5090565b600081519050620001dc81620002a7565b92915050565b600060208284031215620001f557600080fd5b60006200020584828501620001cb565b91505092915050565b60006200021b8262000222565b9050919050565b600073ffffffffffffffffffffffffffffffffffffffff82169050919050565b600060028204905060018216806200025b57607f821691505b6020821081141562000272576200027162000278565b5b50919050565b7f4e487b7100000000000000000000000000000000000000000000000000000000600052602260045260246000fd5b620002b2816200020e565b8114620002be57600080fd5b50565b610ab480620002d16000396000f3fe608060405234801561001057600080fd5b50600436106100415760003560e01c806306fdde031461004657806395d89b4114610064578063d85d3d2714610082575b600080fd5b61004e61009e565b60405161005b91906107d6565b60405180910390f35b61006c610130565b60405161007991906107d6565b60405180910390f35b61009c600480360381019061009791906106e4565b6101c2565b005b6060600080546100ad90610931565b80601f01602080910402602001604051908101604052809291908181526020018280546100d990610931565b80156101265780601f106100fb57610100808354040283529160200191610126565b820191906000526020600020905b81548152906001019060200180831161010957829003601f168201915b5050505050905090565b60606001805461013f90610931565b80601f016020809104026020016040519081016040528092919081815260200182805461016b90610931565b80156101b85780601f1061018d576101008083540402835291602001916101b8565b820191906000526020600020905b81548152906001019060200180831161019b57829003601f168201915b5050505050905090565b6101cc6002610229565b60006101d8600261023f565b90506101e4338261024d565b6101ee818361050a565b7f7f8949b6eca2b14d0feb1af0844a112998e467a4f88b8683301f3a6e409f32ae8160405161021d9190610858565b60405180910390a15050565b6001816000016000828254019250508190555050565b600081600001549050919050565b600073ffffffffffffffffffffffffffffffffffffffff166007600083815260200190815260200160002060009054906101000a900473ffffffffffffffffffffffffffffffffffffffff1673ffffffffffffffffffffffffffffffffffffffff16146102ef576040517f08c379a00000000000000000000000000000000000000000000000000000000081526004016102e6906107f8565b60405180910390fd5b600073ffffffffffffffffffffffffffffffffffffffff168273ffffffffffffffffffffffffffffffffffffffff161461035e576040517f08c379a000000000000000000000000000000000000000000000000000000000815260040161035590610838565b60405180910390fd5b816005600083815260200190815260200160002060006101000a81548173ffffffffffffffffffffffffffffffffffffffff021916908373ffffffffffffffffffffffffffffffffffffffff160217905550816007600083815260200190815260200160002060006101000a81548173ffffffffffffffffffffffffffffffffffffffff021916908373ffffffffffffffffffffffffffffffffffffffff160217905550600460008373ffffffffffffffffffffffffffffffffffffffff1673ffffffffffffffffffffffffffffffffffffffff16815260200190815260200160002060008154809291906001019190505550600660008373ffffffffffffffffffffffffffffffffffffffff1673ffffffffffffffffffffffffffffffffffffffff168152602001908152602001600020600081548092919060010191905055508173ffffffffffffffffffffffffffffffffffffffff16600073ffffffffffffffffffffffffffffffffffffffff167fddf252ad1be2c89b69c2b068fc378daa952ba7f163c4a11628f55a4df523b3ef836040516104fe9190610858565b60405180910390a35050565b600073ffffffffffffffffffffffffffffffffffffffff166007600084815260200190815260200160002060009054906101000a900473ffffffffffffffffffffffffffffffffffffffff1673ffffffffffffffffffffffffffffffffffffffff1614156105ad576040517f08c379a00000000000000000000000000000000000000000000000000000000081526004016105a490610818565b60405180910390fd5b806008600084815260200190815260200160002090805190602001906105d49291906105d9565b505050565b8280546105e590610931565b90600052602060002090601f016020900481019282610607576000855561064e565b82601f1061062057805160ff191683800117855561064e565b8280016001018555821561064e579182015b8281111561064d578251825591602001919060010190610632565b5b50905061065b919061065f565b5090565b5b80821115610678576000816000905550600101610660565b5090565b600061068f61068a84610898565b610873565b9050828152602081018484840111156106a757600080fd5b6106b28482856108ef565b509392505050565b600082601f8301126106cb57600080fd5b81356106db84826020860161067c565b91505092915050565b6000602082840312156106f657600080fd5b600082013567ffffffffffffffff81111561071057600080fd5b61071c848285016106ba565b91505092915050565b6000610730826108c9565b61073a81856108d4565b935061074a8185602086016108fe565b610753816109f2565b840191505092915050565b600061076b6013836108d4565b915061077682610a03565b602082019050919050565b600061078e6013836108d4565b915061079982610a2c565b602082019050919050565b60006107b16018836108d4565b91506107bc82610a55565b602082019050919050565b6107d0816108e5565b82525050565b600060208201905081810360008301526107f08184610725565b905092915050565b600060208201905081810360008301526108118161075e565b9050919050565b6000602082019050818103600083015261083181610781565b9050919050565b60006020820190508181036000830152610851816107a4565b9050919050565b600060208201905061086d60008301846107c7565b92915050565b600061087d61088e565b90506108898282610963565b919050565b6000604051905090565b600067ffffffffffffffff8211156108b3576108b26109c3565b5b6108bc826109f2565b9050602081019050919050565b600081519050919050565b600082825260208201905092915050565b6000819050919050565b82818337600083830152505050565b60005b8381101561091c578082015181840152602081019050610901565b8381111561092b576000848401525b50505050565b6000600282049050600182168061094957607f821691505b6020821081141561095d5761095c610994565b5b50919050565b61096c826109f2565b810181811067ffffffffffffffff8211171561098b5761098a6109c3565b5b80604052505050565b7f4e487b7100000000000000000000000000000000000000000000000000000000600052602260045260246000fd5b7f4e487b7100000000000000000000000000000000000000000000000000000000600052604160045260246000fd5b6000601f19601f8301169050919050565b7f746f6b656e20616c726561647920657869737400000000000000000000000000600082015250565b7f746f6b656e20646f65736e277420657869737400000000000000000000000000600082015250565b7f6d696e7420746f20746865207a65726f2061646472657373000000000000000060008201525056fea26469706673582212208f26eb9f35e5deee816a85bcd499b7b0ee9aae4eae8a144424eb2c2fbd6a92b764736f6c63430008010033",
					"opcodes": "PUSH1 0x80 PUSH1 0x40 MSTORE PUSH1 0x40 MLOAD DUP1 PUSH1 0x40 ADD PUSH1 0x40 MSTORE DUP1 PUSH1 0x7 DUP2 MSTORE PUSH1 0x20 ADD PUSH32 0x4765656B4E667400000000000000000000000000000000000000000000000000 DUP2 MSTORE POP PUSH1 0x0 SWAP1 DUP1 MLOAD SWAP1 PUSH1 0x20 ADD SWAP1 PUSH3 0x51 SWAP3 SWAP2 SWAP1 PUSH3 0x11B JUMP JUMPDEST POP PUSH1 0x40 MLOAD DUP1 PUSH1 0x40 ADD PUSH1 0x40 MSTORE DUP1 PUSH1 0x5 DUP2 MSTORE PUSH1 0x20 ADD PUSH32 0x4745454B54000000000000000000000000000000000000000000000000000000 DUP2 MSTORE POP PUSH1 0x1 SWAP1 DUP1 MLOAD SWAP1 PUSH1 0x20 ADD SWAP1 PUSH3 0x9F SWAP3 SWAP2 SWAP1 PUSH3 0x11B JUMP JUMPDEST POP CALLVALUE DUP1 ISZERO PUSH3 0xAD JUMPI PUSH1 0x0 DUP1 REVERT JUMPDEST POP PUSH1 0x40 MLOAD PUSH3 0xD85 CODESIZE SUB DUP1 PUSH3 0xD85 DUP4 CODECOPY DUP2 DUP2 ADD PUSH1 0x40 MSTORE DUP2 ADD SWAP1 PUSH3 0xD3 SWAP2 SWAP1 PUSH3 0x1E2 JUMP JUMPDEST DUP1 PUSH1 0x3 PUSH1 0x0 PUSH2 0x100 EXP DUP2 SLOAD DUP2 PUSH20 0xFFFFFFFFFFFFFFFFFFFFFFFFFFFFFFFFFFFFFFFF MUL NOT AND SWAP1 DUP4 PUSH20 0xFFFFFFFFFFFFFFFFFFFFFFFFFFFFFFFFFFFFFFFF AND MUL OR SWAP1 SSTORE POP POP PUSH3 0x2C1 JUMP JUMPDEST DUP3 DUP1 SLOAD PUSH3 0x129 SWAP1 PUSH3 0x242 JUMP JUMPDEST SWAP1 PUSH1 0x0 MSTORE PUSH1 0x20 PUSH1 0x0 KECCAK256 SWAP1 PUSH1 0x1F ADD PUSH1 0x20 SWAP1 DIV DUP2 ADD SWAP3 DUP3 PUSH3 0x14D JUMPI PUSH1 0x0 DUP6 SSTORE PUSH3 0x199 JUMP JUMPDEST DUP3 PUSH1 0x1F LT PUSH3 0x168 JUMPI DUP1 MLOAD PUSH1 0xFF NOT AND DUP4 DUP1 ADD OR DUP6 SSTORE PUSH3 0x199 JUMP JUMPDEST DUP3 DUP1 ADD PUSH1 0x1 ADD DUP6 SSTORE DUP3 ISZERO PUSH3 0x199 JUMPI SWAP2 DUP3 ADD JUMPDEST DUP3 DUP2 GT ISZERO PUSH3 0x198 JUMPI DUP3 MLOAD DUP3 SSTORE SWAP2 PUSH1 0x20 ADD SWAP2 SWAP1 PUSH1 0x1 ADD SWAP1 PUSH3 0x17B JUMP JUMPDEST JUMPDEST POP SWAP1 POP PUSH3 0x1A8 SWAP2 SWAP1 PUSH3 0x1AC JUMP JUMPDEST POP SWAP1 JUMP JUMPDEST JUMPDEST DUP1 DUP3 GT ISZERO PUSH3 0x1C7 JUMPI PUSH1 0x0 DUP2 PUSH1 0x0 SWAP1 SSTORE POP PUSH1 0x1 ADD PUSH3 0x1AD JUMP JUMPDEST POP SWAP1 JUMP JUMPDEST PUSH1 0x0 DUP2 MLOAD SWAP1 POP PUSH3 0x1DC DUP2 PUSH3 0x2A7 JUMP JUMPDEST SWAP3 SWAP2 POP POP JUMP JUMPDEST PUSH1 0x0 PUSH1 0x20 DUP3 DUP5 SUB SLT ISZERO PUSH3 0x1F5 JUMPI PUSH1 0x0 DUP1 REVERT JUMPDEST PUSH1 0x0 PUSH3 0x205 DUP5 DUP3 DUP6 ADD PUSH3 0x1CB JUMP JUMPDEST SWAP2 POP POP SWAP3 SWAP2 POP POP JUMP JUMPDEST PUSH1 0x0 PUSH3 0x21B DUP3 PUSH3 0x222 JUMP JUMPDEST SWAP1 POP SWAP2 SWAP1 POP JUMP JUMPDEST PUSH1 0x0 PUSH20 0xFFFFFFFFFFFFFFFFFFFFFFFFFFFFFFFFFFFFFFFF DUP3 AND SWAP1 POP SWAP2 SWAP1 POP JUMP JUMPDEST PUSH1 0x0 PUSH1 0x2 DUP3 DIV SWAP1 POP PUSH1 0x1 DUP3 AND DUP1 PUSH3 0x25B JUMPI PUSH1 0x7F DUP3 AND SWAP2 POP JUMPDEST PUSH1 0x20 DUP3 LT DUP2 EQ ISZERO PUSH3 0x272 JUMPI PUSH3 0x271 PUSH3 0x278 JUMP JUMPDEST JUMPDEST POP SWAP2 SWAP1 POP JUMP JUMPDEST PUSH32 0x4E487B7100000000000000000000000000000000000000000000000000000000 PUSH1 0x0 MSTORE PUSH1 0x22 PUSH1 0x4 MSTORE PUSH1 0x24 PUSH1 0x0 REVERT JUMPDEST PUSH3 0x2B2 DUP2 PUSH3 0x20E JUMP JUMPDEST DUP2 EQ PUSH3 0x2BE JUMPI PUSH1 0x0 DUP1 REVERT JUMPDEST POP JUMP JUMPDEST PUSH2 0xAB4 DUP1 PUSH3 0x2D1 PUSH1 0x0 CODECOPY PUSH1 0x0 RETURN INVALID PUSH1 0x80 PUSH1 0x40 MSTORE CALLVALUE DUP1 ISZERO PUSH2 0x10 JUMPI PUSH1 0x0 DUP1 REVERT JUMPDEST POP PUSH1 0x4 CALLDATASIZE LT PUSH2 0x41 JUMPI PUSH1 0x0 CALLDATALOAD PUSH1 0xE0 SHR DUP1 PUSH4 0x6FDDE03 EQ PUSH2 0x46 JUMPI DUP1 PUSH4 0x95D89B41 EQ PUSH2 0x64 JUMPI DUP1 PUSH4 0xD85D3D27 EQ PUSH2 0x82 JUMPI JUMPDEST PUSH1 0x0 DUP1 REVERT JUMPDEST PUSH2 0x4E PUSH2 0x9E JUMP JUMPDEST PUSH1 0x40 MLOAD PUSH2 0x5B SWAP2 SWAP1 PUSH2 0x7D6 JUMP JUMPDEST PUSH1 0x40 MLOAD DUP1 SWAP2 SUB SWAP1 RETURN JUMPDEST PUSH2 0x6C PUSH2 0x130 JUMP JUMPDEST PUSH1 0x40 MLOAD PUSH2 0x79 SWAP2 SWAP1 PUSH2 0x7D6 JUMP JUMPDEST PUSH1 0x40 MLOAD DUP1 SWAP2 SUB SWAP1 RETURN JUMPDEST PUSH2 0x9C PUSH1 0x4 DUP1 CALLDATASIZE SUB DUP2 ADD SWAP1 PUSH2 0x97 SWAP2 SWAP1 PUSH2 0x6E4 JUMP JUMPDEST PUSH2 0x1C2 JUMP JUMPDEST STOP JUMPDEST PUSH1 0x60 PUSH1 0x0 DUP1 SLOAD PUSH2 0xAD SWAP1 PUSH2 0x931 JUMP JUMPDEST DUP1 PUSH1 0x1F ADD PUSH1 0x20 DUP1 SWAP2 DIV MUL PUSH1 0x20 ADD PUSH1 0x40 MLOAD SWAP1 DUP2 ADD PUSH1 0x40 MSTORE DUP1 SWAP3 SWAP2 SWAP1 DUP2 DUP2 MSTORE PUSH1 0x20 ADD DUP3 DUP1 SLOAD PUSH2 0xD9 SWAP1 PUSH2 0x931 JUMP JUMPDEST DUP1 ISZERO PUSH2 0x126 JUMPI DUP1 PUSH1 0x1F LT PUSH2 0xFB JUMPI PUSH2 0x100 DUP1 DUP4 SLOAD DIV MUL DUP4 MSTORE SWAP2 PUSH1 0x20 ADD SWAP2 PUSH2 0x126 JUMP JUMPDEST DUP3 ADD SWAP2 SWAP1 PUSH1 0x0 MSTORE PUSH1 0x20 PUSH1 0x0 KECCAK256 SWAP1 JUMPDEST DUP2 SLOAD DUP2 MSTORE SWAP1 PUSH1 0x1 ADD SWAP1 PUSH1 0x20 ADD DUP1 DUP4 GT PUSH2 0x109 JUMPI DUP3 SWAP1 SUB PUSH1 0x1F AND DUP3 ADD SWAP2 JUMPDEST POP POP POP POP POP SWAP1 POP SWAP1 JUMP JUMPDEST PUSH1 0x60 PUSH1 0x1 DUP1 SLOAD PUSH2 0x13F SWAP1 PUSH2 0x931 JUMP JUMPDEST DUP1 PUSH1 0x1F ADD PUSH1 0x20 DUP1 SWAP2 DIV MUL PUSH1 0x20 ADD PUSH1 0x40 MLOAD SWAP1 DUP2 ADD PUSH1 0x40 MSTORE DUP1 SWAP3 SWAP2 SWAP1 DUP2 DUP2 MSTORE PUSH1 0x20 ADD DUP3 DUP1 SLOAD PUSH2 0x16B SWAP1 PUSH2 0x931 JUMP JUMPDEST DUP1 ISZERO PUSH2 0x1B8 JUMPI DUP1 PUSH1 0x1F LT PUSH2 0x18D JUMPI PUSH2 0x100 DUP1 DUP4 SLOAD DIV MUL DUP4 MSTORE SWAP2 PUSH1 0x20 ADD SWAP2 PUSH2 0x1B8 JUMP JUMPDEST DUP3 ADD SWAP2 SWAP1 PUSH1 0x0 MSTORE PUSH1 0x20 PUSH1 0x0 KECCAK256 SWAP1 JUMPDEST DUP2 SLOAD DUP2 MSTORE SWAP1 PUSH1 0x1 ADD SWAP1 PUSH1 0x20 ADD DUP1 DUP4 GT PUSH2 0x19B JUMPI DUP3 SWAP1 SUB PUSH1 0x1F AND DUP3 ADD SWAP2 JUMPDEST POP POP POP POP POP SWAP1 POP SWAP1 JUMP JUMPDEST PUSH2 0x1CC PUSH1 0x2 PUSH2 0x229 JUMP JUMPDEST PUSH1 0x0 PUSH2 0x1D8 PUSH1 0x2 PUSH2 0x23F JUMP JUMPDEST SWAP1 POP PUSH2 0x1E4 CALLER DUP3 PUSH2 0x24D JUMP JUMPDEST PUSH2 0x1EE DUP2 DUP4 PUSH2 0x50A JUMP JUMPDEST PUSH32 0x7F8949B6ECA2B14D0FEB1AF0844A112998E467A4F88B8683301F3A6E409F32AE DUP2 PUSH1 0x40 MLOAD PUSH2 0x21D SWAP2 SWAP1 PUSH2 0x858 JUMP JUMPDEST PUSH1 0x40 MLOAD DUP1 SWAP2 SUB SWAP1 LOG1 POP POP JUMP JUMPDEST PUSH1 0x1 DUP2 PUSH1 0x0 ADD PUSH1 0x0 DUP3 DUP3 SLOAD ADD SWAP3 POP POP DUP2 SWAP1 SSTORE POP POP JUMP JUMPDEST PUSH1 0x0 DUP2 PUSH1 0x0 ADD SLOAD SWAP1 POP SWAP2 SWAP1 POP JUMP JUMPDEST PUSH1 0x0 PUSH20 0xFFFFFFFFFFFFFFFFFFFFFFFFFFFFFFFFFFFFFFFF AND PUSH1 0x7 PUSH1 0x0 DUP4 DUP2 MSTORE PUSH1 0x20 ADD SWAP1 DUP2 MSTORE PUSH1 0x20 ADD PUSH1 0x0 KECCAK256 PUSH1 0x0 SWAP1 SLOAD SWAP1 PUSH2 0x100 EXP SWAP1 DIV PUSH20 0xFFFFFFFFFFFFFFFFFFFFFFFFFFFFFFFFFFFFFFFF AND PUSH20 0xFFFFFFFFFFFFFFFFFFFFFFFFFFFFFFFFFFFFFFFF AND EQ PUSH2 0x2EF JUMPI PUSH1 0x40 MLOAD PUSH32 0x8C379A000000000000000000000000000000000000000000000000000000000 DUP2 MSTORE PUSH1 0x4 ADD PUSH2 0x2E6 SWAP1 PUSH2 0x7F8 JUMP JUMPDEST PUSH1 0x40 MLOAD DUP1 SWAP2 SUB SWAP1 REVERT JUMPDEST PUSH1 0x0 PUSH20 0xFFFFFFFFFFFFFFFFFFFFFFFFFFFFFFFFFFFFFFFF AND DUP3 PUSH20 0xFFFFFFFFFFFFFFFFFFFFFFFFFFFFFFFFFFFFFFFF AND EQ PUSH2 0x35E JUMPI PUSH1 0x40 MLOAD PUSH32 0x8C379A000000000000000000000000000000000000000000000000000000000 DUP2 MSTORE PUSH1 0x4 ADD PUSH2 0x355 SWAP1 PUSH2 0x838 JUMP JUMPDEST PUSH1 0x40 MLOAD DUP1 SWAP2 SUB SWAP1 REVERT JUMPDEST DUP2 PUSH1 0x5 PUSH1 0x0 DUP4 DUP2 MSTORE PUSH1 0x20 ADD SWAP1 DUP2 MSTORE PUSH1 0x20 ADD PUSH1 0x0 KECCAK256 PUSH1 0x0 PUSH2 0x100 EXP DUP2 SLOAD DUP2 PUSH20 0xFFFFFFFFFFFFFFFFFFFFFFFFFFFFFFFFFFFFFFFF MUL NOT AND SWAP1 DUP4 PUSH20 0xFFFFFFFFFFFFFFFFFFFFFFFFFFFFFFFFFFFFFFFF AND MUL OR SWAP1 SSTORE POP DUP2 PUSH1 0x7 PUSH1 0x0 DUP4 DUP2 MSTORE PUSH1 0x20 ADD SWAP1 DUP2 MSTORE PUSH1 0x20 ADD PUSH1 0x0 KECCAK256 PUSH1 0x0 PUSH2 0x100 EXP DUP2 SLOAD DUP2 PUSH20 0xFFFFFFFFFFFFFFFFFFFFFFFFFFFFFFFFFFFFFFFF MUL NOT AND SWAP1 DUP4 PUSH20 0xFFFFFFFFFFFFFFFFFFFFFFFFFFFFFFFFFFFFFFFF AND MUL OR SWAP1 SSTORE POP PUSH1 0x4 PUSH1 0x0 DUP4 PUSH20 0xFFFFFFFFFFFFFFFFFFFFFFFFFFFFFFFFFFFFFFFF AND PUSH20 0xFFFFFFFFFFFFFFFFFFFFFFFFFFFFFFFFFFFFFFFF AND DUP2 MSTORE PUSH1 0x20 ADD SWAP1 DUP2 MSTORE PUSH1 0x20 ADD PUSH1 0x0 KECCAK256 PUSH1 0x0 DUP2 SLOAD DUP1 SWAP3 SWAP2 SWAP1 PUSH1 0x1 ADD SWAP2 SWAP1 POP SSTORE POP PUSH1 0x6 PUSH1 0x0 DUP4 PUSH20 0xFFFFFFFFFFFFFFFFFFFFFFFFFFFFFFFFFFFFFFFF AND PUSH20 0xFFFFFFFFFFFFFFFFFFFFFFFFFFFFFFFFFFFFFFFF AND DUP2 MSTORE PUSH1 0x20 ADD SWAP1 DUP2 MSTORE PUSH1 0x20 ADD PUSH1 0x0 KECCAK256 PUSH1 0x0 DUP2 SLOAD DUP1 SWAP3 SWAP2 SWAP1 PUSH1 0x1 ADD SWAP2 SWAP1 POP SSTORE POP DUP2 PUSH20 0xFFFFFFFFFFFFFFFFFFFFFFFFFFFFFFFFFFFFFFFF AND PUSH1 0x0 PUSH20 0xFFFFFFFFFFFFFFFFFFFFFFFFFFFFFFFFFFFFFFFF AND PUSH32 0xDDF252AD1BE2C89B69C2B068FC378DAA952BA7F163C4A11628F55A4DF523B3EF DUP4 PUSH1 0x40 MLOAD PUSH2 0x4FE SWAP2 SWAP1 PUSH2 0x858 JUMP JUMPDEST PUSH1 0x40 MLOAD DUP1 SWAP2 SUB SWAP1 LOG3 POP POP JUMP JUMPDEST PUSH1 0x0 PUSH20 0xFFFFFFFFFFFFFFFFFFFFFFFFFFFFFFFFFFFFFFFF AND PUSH1 0x7 PUSH1 0x0 DUP5 DUP2 MSTORE PUSH1 0x20 ADD SWAP1 DUP2 MSTORE PUSH1 0x20 ADD PUSH1 0x0 KECCAK256 PUSH1 0x0 SWAP1 SLOAD SWAP1 PUSH2 0x100 EXP SWAP1 DIV PUSH20 0xFFFFFFFFFFFFFFFFFFFFFFFFFFFFFFFFFFFFFFFF AND PUSH20 0xFFFFFFFFFFFFFFFFFFFFFFFFFFFFFFFFFFFFFFFF AND EQ ISZERO PUSH2 0x5AD JUMPI PUSH1 0x40 MLOAD PUSH32 0x8C379A000000000000000000000000000000000000000000000000000000000 DUP2 MSTORE PUSH1 0x4 ADD PUSH2 0x5A4 SWAP1 PUSH2 0x818 JUMP JUMPDEST PUSH1 0x40 MLOAD DUP1 SWAP2 SUB SWAP1 REVERT JUMPDEST DUP1 PUSH1 0x8 PUSH1 0x0 DUP5 DUP2 MSTORE PUSH1 0x20 ADD SWAP1 DUP2 MSTORE PUSH1 0x20 ADD PUSH1 0x0 KECCAK256 SWAP1 DUP1 MLOAD SWAP1 PUSH1 0x20 ADD SWAP1 PUSH2 0x5D4 SWAP3 SWAP2 SWAP1 PUSH2 0x5D9 JUMP JUMPDEST POP POP POP JUMP JUMPDEST DUP3 DUP1 SLOAD PUSH2 0x5E5 SWAP1 PUSH2 0x931 JUMP JUMPDEST SWAP1 PUSH1 0x0 MSTORE PUSH1 0x20 PUSH1 0x0 KECCAK256 SWAP1 PUSH1 0x1F ADD PUSH1 0x20 SWAP1 DIV DUP2 ADD SWAP3 DUP3 PUSH2 0x607 JUMPI PUSH1 0x0 DUP6 SSTORE PUSH2 0x64E JUMP JUMPDEST DUP3 PUSH1 0x1F LT PUSH2 0x620 JUMPI DUP1 MLOAD PUSH1 0xFF NOT AND DUP4 DUP1 ADD OR DUP6 SSTORE PUSH2 0x64E JUMP JUMPDEST DUP3 DUP1 ADD PUSH1 0x1 ADD DUP6 SSTORE DUP3 ISZERO PUSH2 0x64E JUMPI SWAP2 DUP3 ADD JUMPDEST DUP3 DUP2 GT ISZERO PUSH2 0x64D JUMPI DUP3 MLOAD DUP3 SSTORE SWAP2 PUSH1 0x20 ADD SWAP2 SWAP1 PUSH1 0x1 ADD SWAP1 PUSH2 0x632 JUMP JUMPDEST JUMPDEST POP SWAP1 POP PUSH2 0x65B SWAP2 SWAP1 PUSH2 0x65F JUMP JUMPDEST POP SWAP1 JUMP JUMPDEST JUMPDEST DUP1 DUP3 GT ISZERO PUSH2 0x678 JUMPI PUSH1 0x0 DUP2 PUSH1 0x0 SWAP1 SSTORE POP PUSH1 0x1 ADD PUSH2 0x660 JUMP JUMPDEST POP SWAP1 JUMP JUMPDEST PUSH1 0x0 PUSH2 0x68F PUSH2 0x68A DUP5 PUSH2 0x898 JUMP JUMPDEST PUSH2 0x873 JUMP JUMPDEST SWAP1 POP DUP3 DUP2 MSTORE PUSH1 0x20 DUP2 ADD DUP5 DUP5 DUP5 ADD GT ISZERO PUSH2 0x6A7 JUMPI PUSH1 0x0 DUP1 REVERT JUMPDEST PUSH2 0x6B2 DUP5 DUP3 DUP6 PUSH2 0x8EF JUMP JUMPDEST POP SWAP4 SWAP3 POP POP POP JUMP JUMPDEST PUSH1 0x0 DUP3 PUSH1 0x1F DUP4 ADD SLT PUSH2 0x6CB JUMPI PUSH1 0x0 DUP1 REVERT JUMPDEST DUP2 CALLDATALOAD PUSH2 0x6DB DUP5 DUP3 PUSH1 0x20 DUP7 ADD PUSH2 0x67C JUMP JUMPDEST SWAP2 POP POP SWAP3 SWAP2 POP POP JUMP JUMPDEST PUSH1 0x0 PUSH1 0x20 DUP3 DUP5 SUB SLT ISZERO PUSH2 0x6F6 JUMPI PUSH1 0x0 DUP1 REVERT JUMPDEST PUSH1 0x0 DUP3 ADD CALLDATALOAD PUSH8 0xFFFFFFFFFFFFFFFF DUP2 GT ISZERO PUSH2 0x710 JUMPI PUSH1 0x0 DUP1 REVERT JUMPDEST PUSH2 0x71C DUP5 DUP3 DUP6 ADD PUSH2 0x6BA JUMP JUMPDEST SWAP2 POP POP SWAP3 SWAP2 POP POP JUMP JUMPDEST PUSH1 0x0 PUSH2 0x730 DUP3 PUSH2 0x8C9 JUMP JUMPDEST PUSH2 0x73A DUP2 DUP6 PUSH2 0x8D4 JUMP JUMPDEST SWAP4 POP PUSH2 0x74A DUP2 DUP6 PUSH1 0x20 DUP7 ADD PUSH2 0x8FE JUMP JUMPDEST PUSH2 0x753 DUP2 PUSH2 0x9F2 JUMP JUMPDEST DUP5 ADD SWAP2 POP POP SWAP3 SWAP2 POP POP JUMP JUMPDEST PUSH1 0x0 PUSH2 0x76B PUSH1 0x13 DUP4 PUSH2 0x8D4 JUMP JUMPDEST SWAP2 POP PUSH2 0x776 DUP3 PUSH2 0xA03 JUMP JUMPDEST PUSH1 0x20 DUP3 ADD SWAP1 POP SWAP2 SWAP1 POP JUMP JUMPDEST PUSH1 0x0 PUSH2 0x78E PUSH1 0x13 DUP4 PUSH2 0x8D4 JUMP JUMPDEST SWAP2 POP PUSH2 0x799 DUP3 PUSH2 0xA2C JUMP JUMPDEST PUSH1 0x20 DUP3 ADD SWAP1 POP SWAP2 SWAP1 POP JUMP JUMPDEST PUSH1 0x0 PUSH2 0x7B1 PUSH1 0x18 DUP4 PUSH2 0x8D4 JUMP JUMPDEST SWAP2 POP PUSH2 0x7BC DUP3 PUSH2 0xA55 JUMP JUMPDEST PUSH1 0x20 DUP3 ADD SWAP1 POP SWAP2 SWAP1 POP JUMP JUMPDEST PUSH2 0x7D0 DUP2 PUSH2 0x8E5 JUMP JUMPDEST DUP3 MSTORE POP POP JUMP JUMPDEST PUSH1 0x0 PUSH1 0x20 DUP3 ADD SWAP1 POP DUP2 DUP2 SUB PUSH1 0x0 DUP4 ADD MSTORE PUSH2 0x7F0 DUP2 DUP5 PUSH2 0x725 JUMP JUMPDEST SWAP1 POP SWAP3 SWAP2 POP POP JUMP JUMPDEST PUSH1 0x0 PUSH1 0x20 DUP3 ADD SWAP1 POP DUP2 DUP2 SUB PUSH1 0x0 DUP4 ADD MSTORE PUSH2 0x811 DUP2 PUSH2 0x75E JUMP JUMPDEST SWAP1 POP SWAP2 SWAP1 POP JUMP JUMPDEST PUSH1 0x0 PUSH1 0x20 DUP3 ADD SWAP1 POP DUP2 DUP2 SUB PUSH1 0x0 DUP4 ADD MSTORE PUSH2 0x831 DUP2 PUSH2 0x781 JUMP JUMPDEST SWAP1 POP SWAP2 SWAP1 POP JUMP JUMPDEST PUSH1 0x0 PUSH1 0x20 DUP3 ADD SWAP1 POP DUP2 DUP2 SUB PUSH1 0x0 DUP4 ADD MSTORE PUSH2 0x851 DUP2 PUSH2 0x7A4 JUMP JUMPDEST SWAP1 POP SWAP2 SWAP1 POP JUMP JUMPDEST PUSH1 0x0 PUSH1 0x20 DUP3 ADD SWAP1 POP PUSH2 0x86D PUSH1 0x0 DUP4 ADD DUP5 PUSH2 0x7C7 JUMP JUMPDEST SWAP3 SWAP2 POP POP JUMP JUMPDEST PUSH1 0x0 PUSH2 0x87D PUSH2 0x88E JUMP JUMPDEST SWAP1 POP PUSH2 0x889 DUP3 DUP3 PUSH2 0x963 JUMP JUMPDEST SWAP2 SWAP1 POP JUMP JUMPDEST PUSH1 0x0 PUSH1 0x40 MLOAD SWAP1 POP SWAP1 JUMP JUMPDEST PUSH1 0x0 PUSH8 0xFFFFFFFFFFFFFFFF DUP3 GT ISZERO PUSH2 0x8B3 JUMPI PUSH2 0x8B2 PUSH2 0x9C3 JUMP JUMPDEST JUMPDEST PUSH2 0x8BC DUP3 PUSH2 0x9F2 JUMP JUMPDEST SWAP1 POP PUSH1 0x20 DUP2 ADD SWAP1 POP SWAP2 SWAP1 POP JUMP JUMPDEST PUSH1 0x0 DUP2 MLOAD SWAP1 POP SWAP2 SWAP1 POP JUMP JUMPDEST PUSH1 0x0 DUP3 DUP3 MSTORE PUSH1 0x20 DUP3 ADD SWAP1 POP SWAP3 SWAP2 POP POP JUMP JUMPDEST PUSH1 0x0 DUP2 SWAP1 POP SWAP2 SWAP1 POP JUMP JUMPDEST DUP3 DUP2 DUP4 CALLDATACOPY PUSH1 0x0 DUP4 DUP4 ADD MSTORE POP POP POP JUMP JUMPDEST PUSH1 0x0 JUMPDEST DUP4 DUP2 LT ISZERO PUSH2 0x91C JUMPI DUP1 DUP3 ADD MLOAD DUP2 DUP5 ADD MSTORE PUSH1 0x20 DUP2 ADD SWAP1 POP PUSH2 0x901 JUMP JUMPDEST DUP4 DUP2 GT ISZERO PUSH2 0x92B JUMPI PUSH1 0x0 DUP5 DUP5 ADD MSTORE JUMPDEST POP POP POP POP JUMP JUMPDEST PUSH1 0x0 PUSH1 0x2 DUP3 DIV SWAP1 POP PUSH1 0x1 DUP3 AND DUP1 PUSH2 0x949 JUMPI PUSH1 0x7F DUP3 AND SWAP2 POP JUMPDEST PUSH1 0x20 DUP3 LT DUP2 EQ ISZERO PUSH2 0x95D JUMPI PUSH2 0x95C PUSH2 0x994 JUMP JUMPDEST JUMPDEST POP SWAP2 SWAP1 POP JUMP JUMPDEST PUSH2 0x96C DUP3 PUSH2 0x9F2 JUMP JUMPDEST DUP2 ADD DUP2 DUP2 LT PUSH8 0xFFFFFFFFFFFFFFFF DUP3 GT OR ISZERO PUSH2 0x98B JUMPI PUSH2 0x98A PUSH2 0x9C3 JUMP JUMPDEST JUMPDEST DUP1 PUSH1 0x40 MSTORE POP POP POP JUMP JUMPDEST PUSH32 0x4E487B7100000000000000000000000000000000000000000000000000000000 PUSH1 0x0 MSTORE PUSH1 0x22 PUSH1 0x4 MSTORE PUSH1 0x24 PUSH1 0x0 REVERT JUMPDEST PUSH32 0x4E487B7100000000000000000000000000000000000000000000000000000000 PUSH1 0x0 MSTORE PUSH1 0x41 PUSH1 0x4 MSTORE PUSH1 0x24 PUSH1 0x0 REVERT JUMPDEST PUSH1 0x0 PUSH1 0x1F NOT PUSH1 0x1F DUP4 ADD AND SWAP1 POP SWAP2 SWAP1 POP JUMP JUMPDEST PUSH32 0x746F6B656E20616C726561647920657869737400000000000000000000000000 PUSH1 0x0 DUP3 ADD MSTORE POP JUMP JUMPDEST PUSH32 0x746F6B656E20646F65736E277420657869737400000000000000000000000000 PUSH1 0x0 DUP3 ADD MSTORE POP JUMP JUMPDEST PUSH32 0x6D696E7420746F20746865207A65726F20616464726573730000000000000000 PUSH1 0x0 DUP3 ADD MSTORE POP JUMP INVALID LOG2 PUSH5 0x6970667358 0x22 SLT KECCAK256 DUP16 0x26 0xEB SWAP16 CALLDATALOAD 0xE5 0xDE 0xEE DUP2 PUSH11 0x85BCD499B7B0EE9AAE4EAE DUP11 EQ DIFFICULTY 0x24 0xEB 0x2C 0x2F 0xBD PUSH11 0x92B764736F6C6343000801 STOP CALLER "
				},
				"gasEstimates": {
					"creation": {
						"codeDepositCost": "548000",
						"executionCost": "infinite",
						"totalCost": "infinite"
					},
					"external": {
						"mint(string)": "infinite",
						"name()": "infinite",
						"symbol()": "infinite"
					},
					"internal": {
						"_safeMint(address,uint256)": "infinite",
						"_setTokenUri(uint256,string memory)": "infinite"
					}
				},
				"methodIdentifiers": {
					"mint(string)": "d85d3d27",
					"name()": "06fdde03",
					"symbol()": "95d89b41"
				}
			},
			"storageLayout": {
				"storage": [
					{
						"astId": 83,
						"contract": "contracts/GeekNft.sol:GeekNft",
						"label": "_name",
						"offset": 0,
						"slot": "0",
						"type": "t_string_storage"
					},
					{
						"astId": 86,
						"contract": "contracts/GeekNft.sol:GeekNft",
						"label": "_symbol",
						"offset": 0,
						"slot": "1",
						"type": "t_string_storage"
					},
					{
						"astId": 89,
						"contract": "contracts/GeekNft.sol:GeekNft",
						"label": "tokenIds",
						"offset": 0,
						"slot": "2",
						"type": "t_struct(Counter)5_storage"
					},
					{
						"astId": 91,
						"contract": "contracts/GeekNft.sol:GeekNft",
						"label": "marketplaceAddress",
						"offset": 0,
						"slot": "3",
						"type": "t_address"
					},
					{
						"astId": 95,
						"contract": "contracts/GeekNft.sol:GeekNft",
						"label": "tokensOwnerCount",
						"offset": 0,
						"slot": "4",
						"type": "t_mapping(t_address,t_uint256)"
					},
					{
						"astId": 99,
						"contract": "contracts/GeekNft.sol:GeekNft",
						"label": "tokenToOwner",
						"offset": 0,
						"slot": "5",
						"type": "t_mapping(t_uint256,t_address)"
					},
					{
						"astId": 103,
						"contract": "contracts/GeekNft.sol:GeekNft",
						"label": "tokensCreatorCount",
						"offset": 0,
						"slot": "6",
						"type": "t_mapping(t_address,t_uint256)"
					},
					{
						"astId": 107,
						"contract": "contracts/GeekNft.sol:GeekNft",
						"label": "tokenToCreator",
						"offset": 0,
						"slot": "7",
						"type": "t_mapping(t_uint256,t_address)"
					},
					{
						"astId": 111,
						"contract": "contracts/GeekNft.sol:GeekNft",
						"label": "tokenToUri",
						"offset": 0,
						"slot": "8",
						"type": "t_mapping(t_uint256,t_string_storage)"
					}
				],
				"types": {
					"t_address": {
						"encoding": "inplace",
						"label": "address",
						"numberOfBytes": "20"
					},
					"t_mapping(t_address,t_uint256)": {
						"encoding": "mapping",
						"key": "t_address",
						"label": "mapping(address => uint256)",
						"numberOfBytes": "32",
						"value": "t_uint256"
					},
					"t_mapping(t_uint256,t_address)": {
						"encoding": "mapping",
						"key": "t_uint256",
						"label": "mapping(uint256 => address)",
						"numberOfBytes": "32",
						"value": "t_address"
					},
					"t_mapping(t_uint256,t_string_storage)": {
						"encoding": "mapping",
						"key": "t_uint256",
						"label": "mapping(uint256 => string)",
						"numberOfBytes": "32",
						"value": "t_string_storage"
					},
					"t_string_storage": {
						"encoding": "bytes",
						"label": "string",
						"numberOfBytes": "32"
					},
					"t_struct(Counter)5_storage": {
						"encoding": "inplace",
						"label": "struct Counters.Counter",
						"members": [
							{
								"astId": 4,
								"contract": "contracts/GeekNft.sol:GeekNft",
								"label": "_value",
								"offset": 0,
								"slot": "0",
								"type": "t_uint256"
							}
						],
						"numberOfBytes": "32"
					},
					"t_uint256": {
						"encoding": "inplace",
						"label": "uint256",
						"numberOfBytes": "32"
					}
				}
			},
			"userdoc": {
				"kind": "user",
				"methods": {},
				"version": 1
			}
		}
	}
}