{
	"contracts/GeekNft.sol": {
		"GeekNft": {
			"abi": [
				{
					"inputs": [
						{
							"internalType": "uint256",
							"name": "",
							"type": "uint256"
						}
					],
					"name": "items",
					"outputs": [
						{
							"internalType": "uint256",
							"name": "tokenId",
							"type": "uint256"
						},
						{
							"internalType": "uint256",
							"name": "price",
							"type": "uint256"
						},
						{
							"internalType": "string",
							"name": "catId",
							"type": "string"
						},
						{
							"internalType": "bool",
							"name": "toSell",
							"type": "bool"
						},
						{
							"internalType": "address",
							"name": "owner",
							"type": "address"
						}
					],
					"stateMutability": "view",
					"type": "function"
				}
			],
			"devdoc": {
				"kind": "dev",
				"methods": {},
				"version": 1
			},
			"evm": {
				"assembly": "    /* \"contracts/GeekNft.sol\":56:254  contract GeekNft {... */\n  mstore(0x40, 0x80)\n  callvalue\n  dup1\n  iszero\n  tag_1\n  jumpi\n  0x00\n  dup1\n  revert\ntag_1:\n  pop\n  dataSize(sub_0)\n  dup1\n  dataOffset(sub_0)\n  0x00\n  codecopy\n  0x00\n  return\nstop\n\nsub_0: assembly {\n        /* \"contracts/GeekNft.sol\":56:254  contract GeekNft {... */\n      mstore(0x40, 0x80)\n      callvalue\n      dup1\n      iszero\n      tag_1\n      jumpi\n      0x00\n      dup1\n      revert\n    tag_1:\n      pop\n      jumpi(tag_2, lt(calldatasize, 0x04))\n      shr(0xe0, calldataload(0x00))\n      dup1\n      0xbfb231d2\n      eq\n      tag_3\n      jumpi\n    tag_2:\n      0x00\n      dup1\n      revert\n        /* \"contracts/GeekNft.sol\":229:248  Item[] public items */\n    tag_3:\n      tag_4\n      0x04\n      dup1\n      calldatasize\n      sub\n      dup2\n      add\n      swap1\n      tag_5\n      swap2\n      swap1\n      tag_6\n      jump\t// in\n    tag_5:\n      tag_7\n      jump\t// in\n    tag_4:\n      mload(0x40)\n      tag_8\n      swap6\n      swap5\n      swap4\n      swap3\n      swap2\n      swap1\n      tag_9\n      jump\t// in\n    tag_8:\n      mload(0x40)\n      dup1\n      swap2\n      sub\n      swap1\n      return\n    tag_7:\n      0x01\n      dup2\n      dup2\n      sload\n      dup2\n      lt\n      tag_10\n      jumpi\n      0x00\n      dup1\n      revert\n    tag_10:\n      swap1\n      0x00\n      mstore\n      keccak256(0x00, 0x20)\n      swap1\n      0x04\n      mul\n      add\n      0x00\n      swap2\n      pop\n      swap1\n      pop\n      dup1\n      0x00\n      add\n      sload\n      swap1\n      dup1\n      0x01\n      add\n      sload\n      swap1\n      dup1\n      0x02\n      add\n      dup1\n      sload\n      tag_12\n      swap1\n      tag_13\n      jump\t// in\n    tag_12:\n      dup1\n      0x1f\n      add\n      0x20\n      dup1\n      swap2\n      div\n      mul\n      0x20\n      add\n      mload(0x40)\n      swap1\n      dup2\n      add\n      0x40\n      mstore\n      dup1\n      swap3\n      swap2\n      swap1\n      dup2\n      dup2\n      mstore\n      0x20\n      add\n      dup3\n      dup1\n      sload\n      tag_14\n      swap1\n      tag_13\n      jump\t// in\n    tag_14:\n      dup1\n      iszero\n      tag_15\n      jumpi\n      dup1\n      0x1f\n      lt\n      tag_16\n      jumpi\n      0x0100\n      dup1\n      dup4\n      sload\n      div\n      mul\n      dup4\n      mstore\n      swap2\n      0x20\n      add\n      swap2\n      jump(tag_15)\n    tag_16:\n      dup3\n      add\n      swap2\n      swap1\n      0x00\n      mstore\n      keccak256(0x00, 0x20)\n      swap1\n    tag_17:\n      dup2\n      sload\n      dup2\n      mstore\n      swap1\n      0x01\n      add\n      swap1\n      0x20\n      add\n      dup1\n      dup4\n      gt\n      tag_17\n      jumpi\n      dup3\n      swap1\n      sub\n      0x1f\n      and\n      dup3\n      add\n      swap2\n    tag_15:\n      pop\n      pop\n      pop\n      pop\n      pop\n      swap1\n      dup1\n      0x03\n      add\n      0x00\n      swap1\n      sload\n      swap1\n      0x0100\n      exp\n      swap1\n      div\n      0xff\n      and\n      swap1\n      dup1\n      0x03\n      add\n      0x01\n      swap1\n      sload\n      swap1\n      0x0100\n      exp\n      swap1\n      div\n      0xffffffffffffffffffffffffffffffffffffffff\n      and\n      swap1\n      pop\n      dup6\n      jump\t// out\n        /* \"#utility.yul\":7:146   */\n    tag_19:\n      0x00\n        /* \"#utility.yul\":91:97   */\n      dup2\n        /* \"#utility.yul\":78:98   */\n      calldataload\n        /* \"#utility.yul\":69:98   */\n      swap1\n      pop\n        /* \"#utility.yul\":107:140   */\n      tag_21\n        /* \"#utility.yul\":134:139   */\n      dup2\n        /* \"#utility.yul\":107:140   */\n      tag_22\n      jump\t// in\n    tag_21:\n        /* \"#utility.yul\":59:146   */\n      swap3\n      swap2\n      pop\n      pop\n      jump\t// out\n        /* \"#utility.yul\":152:414   */\n    tag_6:\n      0x00\n        /* \"#utility.yul\":260:262   */\n      0x20\n        /* \"#utility.yul\":248:257   */\n      dup3\n        /* \"#utility.yul\":239:246   */\n      dup5\n        /* \"#utility.yul\":235:258   */\n      sub\n        /* \"#utility.yul\":231:263   */\n      slt\n        /* \"#utility.yul\":228:230   */\n      iszero\n      tag_24\n      jumpi\n        /* \"#utility.yul\":276:277   */\n      0x00\n        /* \"#utility.yul\":273:274   */\n      dup1\n        /* \"#utility.yul\":266:278   */\n      revert\n        /* \"#utility.yul\":228:230   */\n    tag_24:\n        /* \"#utility.yul\":319:320   */\n      0x00\n        /* \"#utility.yul\":344:397   */\n      tag_25\n        /* \"#utility.yul\":389:396   */\n      dup5\n        /* \"#utility.yul\":380:386   */\n      dup3\n        /* \"#utility.yul\":369:378   */\n      dup6\n        /* \"#utility.yul\":365:387   */\n      add\n        /* \"#utility.yul\":344:397   */\n      tag_19\n      jump\t// in\n    tag_25:\n        /* \"#utility.yul\":334:397   */\n      swap2\n      pop\n        /* \"#utility.yul\":290:407   */\n      pop\n        /* \"#utility.yul\":218:414   */\n      swap3\n      swap2\n      pop\n      pop\n      jump\t// out\n        /* \"#utility.yul\":420:538   */\n    tag_26:\n        /* \"#utility.yul\":507:531   */\n      tag_28\n        /* \"#utility.yul\":525:530   */\n      dup2\n        /* \"#utility.yul\":507:531   */\n      tag_29\n      jump\t// in\n    tag_28:\n        /* \"#utility.yul\":502:505   */\n      dup3\n        /* \"#utility.yul\":495:532   */\n      mstore\n        /* \"#utility.yul\":485:538   */\n      pop\n      pop\n      jump\t// out\n        /* \"#utility.yul\":544:653   */\n    tag_30:\n        /* \"#utility.yul\":625:646   */\n      tag_32\n        /* \"#utility.yul\":640:645   */\n      dup2\n        /* \"#utility.yul\":625:646   */\n      tag_33\n      jump\t// in\n    tag_32:\n        /* \"#utility.yul\":620:623   */\n      dup3\n        /* \"#utility.yul\":613:647   */\n      mstore\n        /* \"#utility.yul\":603:653   */\n      pop\n      pop\n      jump\t// out\n        /* \"#utility.yul\":659:1023   */\n    tag_34:\n      0x00\n        /* \"#utility.yul\":775:814   */\n      tag_36\n        /* \"#utility.yul\":808:813   */\n      dup3\n        /* \"#utility.yul\":775:814   */\n      tag_37\n      jump\t// in\n    tag_36:\n        /* \"#utility.yul\":830:901   */\n      tag_38\n        /* \"#utility.yul\":894:900   */\n      dup2\n        /* \"#utility.yul\":889:892   */\n      dup6\n        /* \"#utility.yul\":830:901   */\n      tag_39\n      jump\t// in\n    tag_38:\n        /* \"#utility.yul\":823:901   */\n      swap4\n      pop\n        /* \"#utility.yul\":910:962   */\n      tag_40\n        /* \"#utility.yul\":955:961   */\n      dup2\n        /* \"#utility.yul\":950:953   */\n      dup6\n        /* \"#utility.yul\":943:947   */\n      0x20\n        /* \"#utility.yul\":936:941   */\n      dup7\n        /* \"#utility.yul\":932:948   */\n      add\n        /* \"#utility.yul\":910:962   */\n      tag_41\n      jump\t// in\n    tag_40:\n        /* \"#utility.yul\":987:1016   */\n      tag_42\n        /* \"#utility.yul\":1009:1015   */\n      dup2\n        /* \"#utility.yul\":987:1016   */\n      tag_43\n      jump\t// in\n    tag_42:\n        /* \"#utility.yul\":982:985   */\n      dup5\n        /* \"#utility.yul\":978:1017   */\n      add\n        /* \"#utility.yul\":971:1017   */\n      swap2\n      pop\n        /* \"#utility.yul\":751:1023   */\n      pop\n      swap3\n      swap2\n      pop\n      pop\n      jump\t// out\n        /* \"#utility.yul\":1029:1147   */\n    tag_44:\n        /* \"#utility.yul\":1116:1140   */\n      tag_46\n        /* \"#utility.yul\":1134:1139   */\n      dup2\n        /* \"#utility.yul\":1116:1140   */\n      tag_47\n      jump\t// in\n    tag_46:\n        /* \"#utility.yul\":1111:1114   */\n      dup3\n        /* \"#utility.yul\":1104:1141   */\n      mstore\n        /* \"#utility.yul\":1094:1147   */\n      pop\n      pop\n      jump\t// out\n        /* \"#utility.yul\":1153:1896   */\n    tag_9:\n      0x00\n        /* \"#utility.yul\":1410:1413   */\n      0xa0\n        /* \"#utility.yul\":1399:1408   */\n      dup3\n        /* \"#utility.yul\":1395:1414   */\n      add\n        /* \"#utility.yul\":1387:1414   */\n      swap1\n      pop\n        /* \"#utility.yul\":1424:1495   */\n      tag_49\n        /* \"#utility.yul\":1492:1493   */\n      0x00\n        /* \"#utility.yul\":1481:1490   */\n      dup4\n        /* \"#utility.yul\":1477:1494   */\n      add\n        /* \"#utility.yul\":1468:1474   */\n      dup9\n        /* \"#utility.yul\":1424:1495   */\n      tag_44\n      jump\t// in\n    tag_49:\n        /* \"#utility.yul\":1505:1577   */\n      tag_50\n        /* \"#utility.yul\":1573:1575   */\n      0x20\n        /* \"#utility.yul\":1562:1571   */\n      dup4\n        /* \"#utility.yul\":1558:1576   */\n      add\n        /* \"#utility.yul\":1549:1555   */\n      dup8\n        /* \"#utility.yul\":1505:1577   */\n      tag_44\n      jump\t// in\n    tag_50:\n        /* \"#utility.yul\":1624:1633   */\n      dup2\n        /* \"#utility.yul\":1618:1622   */\n      dup2\n        /* \"#utility.yul\":1614:1634   */\n      sub\n        /* \"#utility.yul\":1609:1611   */\n      0x40\n        /* \"#utility.yul\":1598:1607   */\n      dup4\n        /* \"#utility.yul\":1594:1612   */\n      add\n        /* \"#utility.yul\":1587:1635   */\n      mstore\n        /* \"#utility.yul\":1652:1730   */\n      tag_51\n        /* \"#utility.yul\":1725:1729   */\n      dup2\n        /* \"#utility.yul\":1716:1722   */\n      dup7\n        /* \"#utility.yul\":1652:1730   */\n      tag_34\n      jump\t// in\n    tag_51:\n        /* \"#utility.yul\":1644:1730   */\n      swap1\n      pop\n        /* \"#utility.yul\":1740:1806   */\n      tag_52\n        /* \"#utility.yul\":1802:1804   */\n      0x60\n        /* \"#utility.yul\":1791:1800   */\n      dup4\n        /* \"#utility.yul\":1787:1805   */\n      add\n        /* \"#utility.yul\":1778:1784   */\n      dup6\n        /* \"#utility.yul\":1740:1806   */\n      tag_30\n      jump\t// in\n    tag_52:\n        /* \"#utility.yul\":1816:1889   */\n      tag_53\n        /* \"#utility.yul\":1884:1887   */\n      0x80\n        /* \"#utility.yul\":1873:1882   */\n      dup4\n        /* \"#utility.yul\":1869:1888   */\n      add\n        /* \"#utility.yul\":1860:1866   */\n      dup5\n        /* \"#utility.yul\":1816:1889   */\n      tag_26\n      jump\t// in\n    tag_53:\n        /* \"#utility.yul\":1377:1896   */\n      swap7\n      swap6\n      pop\n      pop\n      pop\n      pop\n      pop\n      pop\n      jump\t// out\n        /* \"#utility.yul\":1902:2001   */\n    tag_37:\n      0x00\n        /* \"#utility.yul\":1988:1993   */\n      dup2\n        /* \"#utility.yul\":1982:1994   */\n      mload\n        /* \"#utility.yul\":1972:1994   */\n      swap1\n      pop\n        /* \"#utility.yul\":1961:2001   */\n      swap2\n      swap1\n      pop\n      jump\t// out\n        /* \"#utility.yul\":2007:2176   */\n    tag_39:\n      0x00\n        /* \"#utility.yul\":2125:2131   */\n      dup3\n        /* \"#utility.yul\":2120:2123   */\n      dup3\n        /* \"#utility.yul\":2113:2132   */\n      mstore\n        /* \"#utility.yul\":2165:2169   */\n      0x20\n        /* \"#utility.yul\":2160:2163   */\n      dup3\n        /* \"#utility.yul\":2156:2170   */\n      add\n        /* \"#utility.yul\":2141:2170   */\n      swap1\n      pop\n        /* \"#utility.yul\":2103:2176   */\n      swap3\n      swap2\n      pop\n      pop\n      jump\t// out\n        /* \"#utility.yul\":2182:2278   */\n    tag_29:\n      0x00\n        /* \"#utility.yul\":2248:2272   */\n      tag_57\n        /* \"#utility.yul\":2266:2271   */\n      dup3\n        /* \"#utility.yul\":2248:2272   */\n      tag_58\n      jump\t// in\n    tag_57:\n        /* \"#utility.yul\":2237:2272   */\n      swap1\n      pop\n        /* \"#utility.yul\":2227:2278   */\n      swap2\n      swap1\n      pop\n      jump\t// out\n        /* \"#utility.yul\":2284:2374   */\n    tag_33:\n      0x00\n        /* \"#utility.yul\":2361:2366   */\n      dup2\n        /* \"#utility.yul\":2354:2367   */\n      iszero\n        /* \"#utility.yul\":2347:2368   */\n      iszero\n        /* \"#utility.yul\":2336:2368   */\n      swap1\n      pop\n        /* \"#utility.yul\":2326:2374   */\n      swap2\n      swap1\n      pop\n      jump\t// out\n        /* \"#utility.yul\":2380:2506   */\n    tag_58:\n      0x00\n        /* \"#utility.yul\":2457:2499   */\n      0xffffffffffffffffffffffffffffffffffffffff\n        /* \"#utility.yul\":2450:2455   */\n      dup3\n        /* \"#utility.yul\":2446:2500   */\n      and\n        /* \"#utility.yul\":2435:2500   */\n      swap1\n      pop\n        /* \"#utility.yul\":2425:2506   */\n      swap2\n      swap1\n      pop\n      jump\t// out\n        /* \"#utility.yul\":2512:2589   */\n    tag_47:\n      0x00\n        /* \"#utility.yul\":2578:2583   */\n      dup2\n        /* \"#utility.yul\":2567:2583   */\n      swap1\n      pop\n        /* \"#utility.yul\":2557:2589   */\n      swap2\n      swap1\n      pop\n      jump\t// out\n        /* \"#utility.yul\":2595:2902   */\n    tag_41:\n        /* \"#utility.yul\":2663:2664   */\n      0x00\n        /* \"#utility.yul\":2673:2786   */\n    tag_63:\n        /* \"#utility.yul\":2687:2693   */\n      dup4\n        /* \"#utility.yul\":2684:2685   */\n      dup2\n        /* \"#utility.yul\":2681:2694   */\n      lt\n        /* \"#utility.yul\":2673:2786   */\n      iszero\n      tag_65\n      jumpi\n        /* \"#utility.yul\":2772:2773   */\n      dup1\n        /* \"#utility.yul\":2767:2770   */\n      dup3\n        /* \"#utility.yul\":2763:2774   */\n      add\n        /* \"#utility.yul\":2757:2775   */\n      mload\n        /* \"#utility.yul\":2753:2754   */\n      dup2\n        /* \"#utility.yul\":2748:2751   */\n      dup5\n        /* \"#utility.yul\":2744:2755   */\n      add\n        /* \"#utility.yul\":2737:2776   */\n      mstore\n        /* \"#utility.yul\":2709:2711   */\n      0x20\n        /* \"#utility.yul\":2706:2707   */\n      dup2\n        /* \"#utility.yul\":2702:2712   */\n      add\n        /* \"#utility.yul\":2697:2712   */\n      swap1\n      pop\n        /* \"#utility.yul\":2673:2786   */\n      jump(tag_63)\n    tag_65:\n        /* \"#utility.yul\":2804:2810   */\n      dup4\n        /* \"#utility.yul\":2801:2802   */\n      dup2\n        /* \"#utility.yul\":2798:2811   */\n      gt\n        /* \"#utility.yul\":2795:2797   */\n      iszero\n      tag_66\n      jumpi\n        /* \"#utility.yul\":2884:2885   */\n      0x00\n        /* \"#utility.yul\":2875:2881   */\n      dup5\n        /* \"#utility.yul\":2870:2873   */\n      dup5\n        /* \"#utility.yul\":2866:2882   */\n      add\n        /* \"#utility.yul\":2859:2886   */\n      mstore\n        /* \"#utility.yul\":2795:2797   */\n    tag_66:\n        /* \"#utility.yul\":2644:2902   */\n      pop\n      pop\n      pop\n      pop\n      jump\t// out\n        /* \"#utility.yul\":2908:3228   */\n    tag_13:\n      0x00\n        /* \"#utility.yul\":2989:2990   */\n      0x02\n        /* \"#utility.yul\":2983:2987   */\n      dup3\n        /* \"#utility.yul\":2979:2991   */\n      div\n        /* \"#utility.yul\":2969:2991   */\n      swap1\n      pop\n        /* \"#utility.yul\":3036:3037   */\n      0x01\n        /* \"#utility.yul\":3030:3034   */\n      dup3\n        /* \"#utility.yul\":3026:3038   */\n      and\n        /* \"#utility.yul\":3057:3075   */\n      dup1\n        /* \"#utility.yul\":3047:3049   */\n      tag_68\n      jumpi\n        /* \"#utility.yul\":3113:3117   */\n      0x7f\n        /* \"#utility.yul\":3105:3111   */\n      dup3\n        /* \"#utility.yul\":3101:3118   */\n      and\n        /* \"#utility.yul\":3091:3118   */\n      swap2\n      pop\n        /* \"#utility.yul\":3047:3049   */\n    tag_68:\n        /* \"#utility.yul\":3175:3177   */\n      0x20\n        /* \"#utility.yul\":3167:3173   */\n      dup3\n        /* \"#utility.yul\":3164:3178   */\n      lt\n        /* \"#utility.yul\":3144:3162   */\n      dup2\n        /* \"#utility.yul\":3141:3179   */\n      eq\n        /* \"#utility.yul\":3138:3140   */\n      iszero\n      tag_69\n      jumpi\n        /* \"#utility.yul\":3194:3212   */\n      tag_70\n      tag_71\n      jump\t// in\n    tag_70:\n        /* \"#utility.yul\":3138:3140   */\n    tag_69:\n        /* \"#utility.yul\":2959:3228   */\n      pop\n      swap2\n      swap1\n      pop\n      jump\t// out\n        /* \"#utility.yul\":3234:3414   */\n    tag_71:\n        /* \"#utility.yul\":3282:3359   */\n      0x4e487b7100000000000000000000000000000000000000000000000000000000\n        /* \"#utility.yul\":3279:3280   */\n      0x00\n        /* \"#utility.yul\":3272:3360   */\n      mstore\n        /* \"#utility.yul\":3379:3383   */\n      0x22\n        /* \"#utility.yul\":3376:3377   */\n      0x04\n        /* \"#utility.yul\":3369:3384   */\n      mstore\n        /* \"#utility.yul\":3403:3407   */\n      0x24\n        /* \"#utility.yul\":3400:3401   */\n      0x00\n        /* \"#utility.yul\":3393:3408   */\n      revert\n        /* \"#utility.yul\":3420:3522   */\n    tag_43:\n      0x00\n        /* \"#utility.yul\":3512:3514   */\n      0x1f\n        /* \"#utility.yul\":3508:3515   */\n      not\n        /* \"#utility.yul\":3503:3505   */\n      0x1f\n        /* \"#utility.yul\":3496:3501   */\n      dup4\n        /* \"#utility.yul\":3492:3506   */\n      add\n        /* \"#utility.yul\":3488:3516   */\n      and\n        /* \"#utility.yul\":3478:3516   */\n      swap1\n      pop\n        /* \"#utility.yul\":3468:3522   */\n      swap2\n      swap1\n      pop\n      jump\t// out\n        /* \"#utility.yul\":3528:3650   */\n    tag_22:\n        /* \"#utility.yul\":3601:3625   */\n      tag_75\n        /* \"#utility.yul\":3619:3624   */\n      dup2\n        /* \"#utility.yul\":3601:3625   */\n      tag_47\n      jump\t// in\n    tag_75:\n        /* \"#utility.yul\":3594:3599   */\n      dup2\n        /* \"#utility.yul\":3591:3626   */\n      eq\n        /* \"#utility.yul\":3581:3583   */\n      tag_76\n      jumpi\n        /* \"#utility.yul\":3640:3641   */\n      0x00\n        /* \"#utility.yul\":3637:3638   */\n      dup1\n        /* \"#utility.yul\":3630:3642   */\n      revert\n        /* \"#utility.yul\":3581:3583   */\n    tag_76:\n        /* \"#utility.yul\":3571:3650   */\n      pop\n      jump\t// out\n\n    auxdata: 0xa26469706673582212201db105777687b7de12ea6f5aaa21d907773a51071e17cd70abdf6bcbe05c900664736f6c63430008000033\n}\n",
				"bytecode": {
					"linkReferences": {},
					"object": "608060405234801561001057600080fd5b506103b3806100206000396000f3fe608060405234801561001057600080fd5b506004361061002b5760003560e01c8063bfb231d214610030575b600080fd5b61004a60048036038101906100459190610174565b610064565b60405161005b959493929190610203565b60405180910390f35b6001818154811061007457600080fd5b90600052602060002090600402016000915090508060000154908060010154908060020180546100a3906102f4565b80601f01602080910402602001604051908101604052809291908181526020018280546100cf906102f4565b801561011c5780601f106100f15761010080835404028352916020019161011c565b820191906000526020600020905b8154815290600101906020018083116100ff57829003601f168201915b5050505050908060030160009054906101000a900460ff16908060030160019054906101000a900473ffffffffffffffffffffffffffffffffffffffff16905085565b60008135905061016e81610366565b92915050565b60006020828403121561018657600080fd5b60006101948482850161015f565b91505092915050565b6101a681610279565b82525050565b6101b58161028b565b82525050565b60006101c68261025d565b6101d08185610268565b93506101e08185602086016102c1565b6101e981610355565b840191505092915050565b6101fd816102b7565b82525050565b600060a08201905061021860008301886101f4565b61022560208301876101f4565b818103604083015261023781866101bb565b905061024660608301856101ac565b610253608083018461019d565b9695505050505050565b600081519050919050565b600082825260208201905092915050565b600061028482610297565b9050919050565b60008115159050919050565b600073ffffffffffffffffffffffffffffffffffffffff82169050919050565b6000819050919050565b60005b838110156102df5780820151818401526020810190506102c4565b838111156102ee576000848401525b50505050565b6000600282049050600182168061030c57607f821691505b602082108114156103205761031f610326565b5b50919050565b7f4e487b7100000000000000000000000000000000000000000000000000000000600052602260045260246000fd5b6000601f19601f8301169050919050565b61036f816102b7565b811461037a57600080fd5b5056fea26469706673582212201db105777687b7de12ea6f5aaa21d907773a51071e17cd70abdf6bcbe05c900664736f6c63430008000033",
					"opcodes": "PUSH1 0x80 PUSH1 0x40 MSTORE CALLVALUE DUP1 ISZERO PUSH2 0x10 JUMPI PUSH1 0x0 DUP1 REVERT JUMPDEST POP PUSH2 0x3B3 DUP1 PUSH2 0x20 PUSH1 0x0 CODECOPY PUSH1 0x0 RETURN INVALID PUSH1 0x80 PUSH1 0x40 MSTORE CALLVALUE DUP1 ISZERO PUSH2 0x10 JUMPI PUSH1 0x0 DUP1 REVERT JUMPDEST POP PUSH1 0x4 CALLDATASIZE LT PUSH2 0x2B JUMPI PUSH1 0x0 CALLDATALOAD PUSH1 0xE0 SHR DUP1 PUSH4 0xBFB231D2 EQ PUSH2 0x30 JUMPI JUMPDEST PUSH1 0x0 DUP1 REVERT JUMPDEST PUSH2 0x4A PUSH1 0x4 DUP1 CALLDATASIZE SUB DUP2 ADD SWAP1 PUSH2 0x45 SWAP2 SWAP1 PUSH2 0x174 JUMP JUMPDEST PUSH2 0x64 JUMP JUMPDEST PUSH1 0x40 MLOAD PUSH2 0x5B SWAP6 SWAP5 SWAP4 SWAP3 SWAP2 SWAP1 PUSH2 0x203 JUMP JUMPDEST PUSH1 0x40 MLOAD DUP1 SWAP2 SUB SWAP1 RETURN JUMPDEST PUSH1 0x1 DUP2 DUP2 SLOAD DUP2 LT PUSH2 0x74 JUMPI PUSH1 0x0 DUP1 REVERT JUMPDEST SWAP1 PUSH1 0x0 MSTORE PUSH1 0x20 PUSH1 0x0 KECCAK256 SWAP1 PUSH1 0x4 MUL ADD PUSH1 0x0 SWAP2 POP SWAP1 POP DUP1 PUSH1 0x0 ADD SLOAD SWAP1 DUP1 PUSH1 0x1 ADD SLOAD SWAP1 DUP1 PUSH1 0x2 ADD DUP1 SLOAD PUSH2 0xA3 SWAP1 PUSH2 0x2F4 JUMP JUMPDEST DUP1 PUSH1 0x1F ADD PUSH1 0x20 DUP1 SWAP2 DIV MUL PUSH1 0x20 ADD PUSH1 0x40 MLOAD SWAP1 DUP2 ADD PUSH1 0x40 MSTORE DUP1 SWAP3 SWAP2 SWAP1 DUP2 DUP2 MSTORE PUSH1 0x20 ADD DUP3 DUP1 SLOAD PUSH2 0xCF SWAP1 PUSH2 0x2F4 JUMP JUMPDEST DUP1 ISZERO PUSH2 0x11C JUMPI DUP1 PUSH1 0x1F LT PUSH2 0xF1 JUMPI PUSH2 0x100 DUP1 DUP4 SLOAD DIV MUL DUP4 MSTORE SWAP2 PUSH1 0x20 ADD SWAP2 PUSH2 0x11C JUMP JUMPDEST DUP3 ADD SWAP2 SWAP1 PUSH1 0x0 MSTORE PUSH1 0x20 PUSH1 0x0 KECCAK256 SWAP1 JUMPDEST DUP2 SLOAD DUP2 MSTORE SWAP1 PUSH1 0x1 ADD SWAP1 PUSH1 0x20 ADD DUP1 DUP4 GT PUSH2 0xFF JUMPI DUP3 SWAP1 SUB PUSH1 0x1F AND DUP3 ADD SWAP2 JUMPDEST POP POP POP POP POP SWAP1 DUP1 PUSH1 0x3 ADD PUSH1 0x0 SWAP1 SLOAD SWAP1 PUSH2 0x100 EXP SWAP1 DIV PUSH1 0xFF AND SWAP1 DUP1 PUSH1 0x3 ADD PUSH1 0x1 SWAP1 SLOAD SWAP1 PUSH2 0x100 EXP SWAP1 DIV PUSH20 0xFFFFFFFFFFFFFFFFFFFFFFFFFFFFFFFFFFFFFFFF AND SWAP1 POP DUP6 JUMP JUMPDEST PUSH1 0x0 DUP2 CALLDATALOAD SWAP1 POP PUSH2 0x16E DUP2 PUSH2 0x366 JUMP JUMPDEST SWAP3 SWAP2 POP POP JUMP JUMPDEST PUSH1 0x0 PUSH1 0x20 DUP3 DUP5 SUB SLT ISZERO PUSH2 0x186 JUMPI PUSH1 0x0 DUP1 REVERT JUMPDEST PUSH1 0x0 PUSH2 0x194 DUP5 DUP3 DUP6 ADD PUSH2 0x15F JUMP JUMPDEST SWAP2 POP POP SWAP3 SWAP2 POP POP JUMP JUMPDEST PUSH2 0x1A6 DUP2 PUSH2 0x279 JUMP JUMPDEST DUP3 MSTORE POP POP JUMP JUMPDEST PUSH2 0x1B5 DUP2 PUSH2 0x28B JUMP JUMPDEST DUP3 MSTORE POP POP JUMP JUMPDEST PUSH1 0x0 PUSH2 0x1C6 DUP3 PUSH2 0x25D JUMP JUMPDEST PUSH2 0x1D0 DUP2 DUP6 PUSH2 0x268 JUMP JUMPDEST SWAP4 POP PUSH2 0x1E0 DUP2 DUP6 PUSH1 0x20 DUP7 ADD PUSH2 0x2C1 JUMP JUMPDEST PUSH2 0x1E9 DUP2 PUSH2 0x355 JUMP JUMPDEST DUP5 ADD SWAP2 POP POP SWAP3 SWAP2 POP POP JUMP JUMPDEST PUSH2 0x1FD DUP2 PUSH2 0x2B7 JUMP JUMPDEST DUP3 MSTORE POP POP JUMP JUMPDEST PUSH1 0x0 PUSH1 0xA0 DUP3 ADD SWAP1 POP PUSH2 0x218 PUSH1 0x0 DUP4 ADD DUP9 PUSH2 0x1F4 JUMP JUMPDEST PUSH2 0x225 PUSH1 0x20 DUP4 ADD DUP8 PUSH2 0x1F4 JUMP JUMPDEST DUP2 DUP2 SUB PUSH1 0x40 DUP4 ADD MSTORE PUSH2 0x237 DUP2 DUP7 PUSH2 0x1BB JUMP JUMPDEST SWAP1 POP PUSH2 0x246 PUSH1 0x60 DUP4 ADD DUP6 PUSH2 0x1AC JUMP JUMPDEST PUSH2 0x253 PUSH1 0x80 DUP4 ADD DUP5 PUSH2 0x19D JUMP JUMPDEST SWAP7 SWAP6 POP POP POP POP POP POP JUMP JUMPDEST PUSH1 0x0 DUP2 MLOAD SWAP1 POP SWAP2 SWAP1 POP JUMP JUMPDEST PUSH1 0x0 DUP3 DUP3 MSTORE PUSH1 0x20 DUP3 ADD SWAP1 POP SWAP3 SWAP2 POP POP JUMP JUMPDEST PUSH1 0x0 PUSH2 0x284 DUP3 PUSH2 0x297 JUMP JUMPDEST SWAP1 POP SWAP2 SWAP1 POP JUMP JUMPDEST PUSH1 0x0 DUP2 ISZERO ISZERO SWAP1 POP SWAP2 SWAP1 POP JUMP JUMPDEST PUSH1 0x0 PUSH20 0xFFFFFFFFFFFFFFFFFFFFFFFFFFFFFFFFFFFFFFFF DUP3 AND SWAP1 POP SWAP2 SWAP1 POP JUMP JUMPDEST PUSH1 0x0 DUP2 SWAP1 POP SWAP2 SWAP1 POP JUMP JUMPDEST PUSH1 0x0 JUMPDEST DUP4 DUP2 LT ISZERO PUSH2 0x2DF JUMPI DUP1 DUP3 ADD MLOAD DUP2 DUP5 ADD MSTORE PUSH1 0x20 DUP2 ADD SWAP1 POP PUSH2 0x2C4 JUMP JUMPDEST DUP4 DUP2 GT ISZERO PUSH2 0x2EE JUMPI PUSH1 0x0 DUP5 DUP5 ADD MSTORE JUMPDEST POP POP POP POP JUMP JUMPDEST PUSH1 0x0 PUSH1 0x2 DUP3 DIV SWAP1 POP PUSH1 0x1 DUP3 AND DUP1 PUSH2 0x30C JUMPI PUSH1 0x7F DUP3 AND SWAP2 POP JUMPDEST PUSH1 0x20 DUP3 LT DUP2 EQ ISZERO PUSH2 0x320 JUMPI PUSH2 0x31F PUSH2 0x326 JUMP JUMPDEST JUMPDEST POP SWAP2 SWAP1 POP JUMP JUMPDEST PUSH32 0x4E487B7100000000000000000000000000000000000000000000000000000000 PUSH1 0x0 MSTORE PUSH1 0x22 PUSH1 0x4 MSTORE PUSH1 0x24 PUSH1 0x0 REVERT JUMPDEST PUSH1 0x0 PUSH1 0x1F NOT PUSH1 0x1F DUP4 ADD AND SWAP1 POP SWAP2 SWAP1 POP JUMP JUMPDEST PUSH2 0x36F DUP2 PUSH2 0x2B7 JUMP JUMPDEST DUP2 EQ PUSH2 0x37A JUMPI PUSH1 0x0 DUP1 REVERT JUMPDEST POP JUMP INVALID LOG2 PUSH5 0x6970667358 0x22 SLT KECCAK256 SAR 0xB1 SDIV PUSH24 0x7687B7DE12EA6F5AAA21D907773A51071E17CD70ABDF6BCB 0xE0 0x5C SWAP1 MOD PUSH5 0x736F6C6343 STOP ADDMOD STOP STOP CALLER "
				},
				"gasEstimates": {
					"creation": {
						"codeDepositCost": "189400",
						"executionCost": "232",
						"totalCost": "189632"
					},
					"external": {
						"items(uint256)": "infinite"
					}
				},
				"methodIdentifiers": {
					"items(uint256)": "bfb231d2"
				}
			},
			"storageLayout": {
				"storage": [
					{
						"astId": 3,
						"contract": "contracts/GeekNft.sol:GeekNft",
						"label": "owner",
						"offset": 0,
						"slot": "0",
						"type": "t_address"
					},
					{
						"astId": 18,
						"contract": "contracts/GeekNft.sol:GeekNft",
						"label": "items",
						"offset": 0,
						"slot": "1",
						"type": "t_array(t_struct(Item)14_storage)dyn_storage"
					}
				],
				"types": {
					"t_address": {
						"encoding": "inplace",
						"label": "address",
						"numberOfBytes": "20"
					},
					"t_array(t_struct(Item)14_storage)dyn_storage": {
						"base": "t_struct(Item)14_storage",
						"encoding": "dynamic_array",
						"label": "struct GeekNft.Item[]",
						"numberOfBytes": "32"
					},
					"t_bool": {
						"encoding": "inplace",
						"label": "bool",
						"numberOfBytes": "1"
					},
					"t_string_storage": {
						"encoding": "bytes",
						"label": "string",
						"numberOfBytes": "32"
					},
					"t_struct(Item)14_storage": {
						"encoding": "inplace",
						"label": "struct GeekNft.Item",
						"members": [
							{
								"astId": 5,
								"contract": "contracts/GeekNft.sol:GeekNft",
								"label": "tokenId",
								"offset": 0,
								"slot": "0",
								"type": "t_uint256"
							},
							{
								"astId": 7,
								"contract": "contracts/GeekNft.sol:GeekNft",
								"label": "price",
								"offset": 0,
								"slot": "1",
								"type": "t_uint256"
							},
							{
								"astId": 9,
								"contract": "contracts/GeekNft.sol:GeekNft",
								"label": "catId",
								"offset": 0,
								"slot": "2",
								"type": "t_string_storage"
							},
							{
								"astId": 11,
								"contract": "contracts/GeekNft.sol:GeekNft",
								"label": "toSell",
								"offset": 0,
								"slot": "3",
								"type": "t_bool"
							},
							{
								"astId": 13,
								"contract": "contracts/GeekNft.sol:GeekNft",
								"label": "owner",
								"offset": 1,
								"slot": "3",
								"type": "t_address"
							}
						],
						"numberOfBytes": "128"
					},
					"t_uint256": {
						"encoding": "inplace",
						"label": "uint256",
						"numberOfBytes": "32"
					}
				}
			},
			"userdoc": {
				"kind": "user",
				"methods": {},
				"version": 1
			}
		}
	}
}