{
	"contracts/GeekNft.sol": {
		"GeekNft": {
			"abi": [
				{
					"inputs": [
						{
							"internalType": "address",
							"name": "marketplaceAddress_",
							"type": "address"
						},
						{
							"internalType": "string",
							"name": "name_",
							"type": "string"
						},
						{
							"internalType": "string",
							"name": "symbol_",
							"type": "string"
						}
					],
					"stateMutability": "nonpayable",
					"type": "constructor"
				},
				{
					"anonymous": false,
					"inputs": [
						{
							"indexed": true,
							"internalType": "uint256",
							"name": "tokenId",
							"type": "uint256"
						},
						{
							"indexed": false,
							"internalType": "address",
							"name": "from",
							"type": "address"
						}
					],
					"name": "NftMinted",
					"type": "event"
				},
				{
					"anonymous": false,
					"inputs": [
						{
							"indexed": true,
							"internalType": "address",
							"name": "from",
							"type": "address"
						},
						{
							"indexed": true,
							"internalType": "address",
							"name": "to",
							"type": "address"
						},
						{
							"indexed": true,
							"internalType": "uint256",
							"name": "tokenId",
							"type": "uint256"
						}
					],
					"name": "Transfer",
					"type": "event"
				},
				{
					"inputs": [
						{
							"internalType": "string",
							"name": "_tokenUri",
							"type": "string"
						}
					],
					"name": "mint",
					"outputs": [],
					"stateMutability": "nonpayable",
					"type": "function"
				},
				{
					"inputs": [],
					"name": "name",
					"outputs": [
						{
							"internalType": "string",
							"name": "",
							"type": "string"
						}
					],
					"stateMutability": "view",
					"type": "function"
				},
				{
					"inputs": [
						{
							"internalType": "uint256",
							"name": "_tokenId",
							"type": "uint256"
						}
					],
					"name": "ownerOf",
					"outputs": [
						{
							"internalType": "address",
							"name": "",
							"type": "address"
						}
					],
					"stateMutability": "view",
					"type": "function"
				},
				{
					"inputs": [],
					"name": "symbol",
					"outputs": [
						{
							"internalType": "string",
							"name": "",
							"type": "string"
						}
					],
					"stateMutability": "view",
					"type": "function"
				},
				{
					"inputs": [
						{
							"internalType": "uint256",
							"name": "",
							"type": "uint256"
						}
					],
					"name": "tokenToUri",
					"outputs": [
						{
							"internalType": "string",
							"name": "",
							"type": "string"
						}
					],
					"stateMutability": "view",
					"type": "function"
				},
				{
					"inputs": [
						{
							"internalType": "address",
							"name": "_from",
							"type": "address"
						},
						{
							"internalType": "address",
							"name": "_to",
							"type": "address"
						},
						{
							"internalType": "uint256",
							"name": "_tokenId",
							"type": "uint256"
						}
					],
					"name": "transferFrom",
					"outputs": [],
					"stateMutability": "nonpayable",
					"type": "function"
				}
			],
			"devdoc": {
				"kind": "dev",
				"methods": {},
				"version": 1
			},
			"evm": {
				"assembly": "    /* \"contracts/GeekNft.sol\":83:2618  contract GeekNft {... */\n  mstore(0x40, 0x80)\n    /* \"contracts/GeekNft.sol\":651:842  constructor(address marketplaceAddress_, string memory name_, string memory symbol_){... */\n  callvalue\n  dup1\n  iszero\n  tag_1\n  jumpi\n  0x00\n  dup1\n  revert\ntag_1:\n  pop\n  mload(0x40)\n  sub(codesize, bytecodeSize)\n  dup1\n  bytecodeSize\n  dup4\n  codecopy\n  dup2\n  dup2\n  add\n  0x40\n  mstore\n  dup2\n  add\n  swap1\n  tag_2\n  swap2\n  swap1\n  tag_3\n  jump\t// in\ntag_2:\n    /* \"contracts/GeekNft.sol\":766:785  marketplaceAddress_ */\n  dup3\n    /* \"contracts/GeekNft.sol\":745:763  marketplaceAddress */\n  0x03\n  0x00\n    /* \"contracts/GeekNft.sol\":745:785  marketplaceAddress = marketplaceAddress_ */\n  0x0100\n  exp\n  dup2\n  sload\n  dup2\n  0xffffffffffffffffffffffffffffffffffffffff\n  mul\n  not\n  and\n  swap1\n  dup4\n  0xffffffffffffffffffffffffffffffffffffffff\n  and\n  mul\n  or\n  swap1\n  sstore\n  pop\n    /* \"contracts/GeekNft.sol\":803:808  name_ */\n  dup2\n    /* \"contracts/GeekNft.sol\":795:800  _name */\n  0x00\n    /* \"contracts/GeekNft.sol\":795:808  _name = name_ */\n  swap1\n  dup1\n  mload\n  swap1\n  0x20\n  add\n  swap1\n  tag_6\n  swap3\n  swap2\n  swap1\n  tag_7\n  jump\t// in\ntag_6:\n  pop\n    /* \"contracts/GeekNft.sol\":828:835  symbol_ */\n  dup1\n    /* \"contracts/GeekNft.sol\":818:825  _symbol */\n  0x01\n    /* \"contracts/GeekNft.sol\":818:835  _symbol = symbol_ */\n  swap1\n  dup1\n  mload\n  swap1\n  0x20\n  add\n  swap1\n  tag_8\n  swap3\n  swap2\n  swap1\n  tag_7\n  jump\t// in\ntag_8:\n  pop\n    /* \"contracts/GeekNft.sol\":651:842  constructor(address marketplaceAddress_, string memory name_, string memory symbol_){... */\n  pop\n  pop\n  pop\n    /* \"contracts/GeekNft.sol\":83:2618  contract GeekNft {... */\n  jump(tag_9)\ntag_7:\n  dup3\n  dup1\n  sload\n  tag_10\n  swap1\n  tag_11\n  jump\t// in\ntag_10:\n  swap1\n  0x00\n  mstore\n  keccak256(0x00, 0x20)\n  swap1\n  0x1f\n  add\n  0x20\n  swap1\n  div\n  dup2\n  add\n  swap3\n  dup3\n  tag_13\n  jumpi\n  0x00\n  dup6\n  sstore\n  jump(tag_12)\ntag_13:\n  dup3\n  0x1f\n  lt\n  tag_14\n  jumpi\n  dup1\n  mload\n  not(0xff)\n  and\n  dup4\n  dup1\n  add\n  or\n  dup6\n  sstore\n  jump(tag_12)\ntag_14:\n  dup3\n  dup1\n  add\n  0x01\n  add\n  dup6\n  sstore\n  dup3\n  iszero\n  tag_12\n  jumpi\n  swap2\n  dup3\n  add\ntag_15:\n  dup3\n  dup2\n  gt\n  iszero\n  tag_16\n  jumpi\n  dup3\n  mload\n  dup3\n  sstore\n  swap2\n  0x20\n  add\n  swap2\n  swap1\n  0x01\n  add\n  swap1\n  jump(tag_15)\ntag_16:\ntag_12:\n  pop\n  swap1\n  pop\n  tag_17\n  swap2\n  swap1\n  tag_18\n  jump\t// in\ntag_17:\n  pop\n  swap1\n  jump\t// out\ntag_18:\ntag_19:\n  dup1\n  dup3\n  gt\n  iszero\n  tag_20\n  jumpi\n  0x00\n  dup2\n  0x00\n  swap1\n  sstore\n  pop\n  0x01\n  add\n  jump(tag_19)\ntag_20:\n  pop\n  swap1\n  jump\t// out\n    /* \"#utility.yul\":7:428   */\ntag_22:\n    /* \"#utility.yul\":96:101   */\n  0x00\n    /* \"#utility.yul\":121:187   */\n  tag_24\n    /* \"#utility.yul\":137:186   */\n  tag_25\n    /* \"#utility.yul\":179:185   */\n  dup5\n    /* \"#utility.yul\":137:186   */\n  tag_26\n  jump\t// in\ntag_25:\n    /* \"#utility.yul\":121:187   */\n  tag_27\n  jump\t// in\ntag_24:\n    /* \"#utility.yul\":112:187   */\n  swap1\n  pop\n    /* \"#utility.yul\":210:216   */\n  dup3\n    /* \"#utility.yul\":203:208   */\n  dup2\n    /* \"#utility.yul\":196:217   */\n  mstore\n    /* \"#utility.yul\":248:252   */\n  0x20\n    /* \"#utility.yul\":241:246   */\n  dup2\n    /* \"#utility.yul\":237:253   */\n  add\n    /* \"#utility.yul\":286:289   */\n  dup5\n    /* \"#utility.yul\":277:283   */\n  dup5\n    /* \"#utility.yul\":272:275   */\n  dup5\n    /* \"#utility.yul\":268:284   */\n  add\n    /* \"#utility.yul\":265:290   */\n  gt\n    /* \"#utility.yul\":262:374   */\n  iszero\n  tag_28\n  jumpi\n    /* \"#utility.yul\":293:372   */\n  tag_29\n  tag_30\n  jump\t// in\ntag_29:\n    /* \"#utility.yul\":262:374   */\ntag_28:\n    /* \"#utility.yul\":383:422   */\n  tag_31\n    /* \"#utility.yul\":415:421   */\n  dup5\n    /* \"#utility.yul\":410:413   */\n  dup3\n    /* \"#utility.yul\":405:408   */\n  dup6\n    /* \"#utility.yul\":383:422   */\n  tag_32\n  jump\t// in\ntag_31:\n    /* \"#utility.yul\":102:428   */\n  pop\n    /* \"#utility.yul\":7:428   */\n  swap4\n  swap3\n  pop\n  pop\n  pop\n  jump\t// out\n    /* \"#utility.yul\":434:577   */\ntag_33:\n    /* \"#utility.yul\":491:496   */\n  0x00\n    /* \"#utility.yul\":522:528   */\n  dup2\n    /* \"#utility.yul\":516:529   */\n  mload\n    /* \"#utility.yul\":507:529   */\n  swap1\n  pop\n    /* \"#utility.yul\":538:571   */\n  tag_35\n    /* \"#utility.yul\":565:570   */\n  dup2\n    /* \"#utility.yul\":538:571   */\n  tag_36\n  jump\t// in\ntag_35:\n    /* \"#utility.yul\":434:577   */\n  swap3\n  swap2\n  pop\n  pop\n  jump\t// out\n    /* \"#utility.yul\":597:952   */\ntag_37:\n    /* \"#utility.yul\":664:669   */\n  0x00\n    /* \"#utility.yul\":713:716   */\n  dup3\n    /* \"#utility.yul\":706:710   */\n  0x1f\n    /* \"#utility.yul\":698:704   */\n  dup4\n    /* \"#utility.yul\":694:711   */\n  add\n    /* \"#utility.yul\":690:717   */\n  slt\n    /* \"#utility.yul\":680:802   */\n  tag_39\n  jumpi\n    /* \"#utility.yul\":721:800   */\n  tag_40\n  tag_41\n  jump\t// in\ntag_40:\n    /* \"#utility.yul\":680:802   */\ntag_39:\n    /* \"#utility.yul\":831:837   */\n  dup2\n    /* \"#utility.yul\":825:838   */\n  mload\n    /* \"#utility.yul\":856:946   */\n  tag_42\n    /* \"#utility.yul\":942:945   */\n  dup5\n    /* \"#utility.yul\":934:940   */\n  dup3\n    /* \"#utility.yul\":927:931   */\n  0x20\n    /* \"#utility.yul\":919:925   */\n  dup7\n    /* \"#utility.yul\":915:932   */\n  add\n    /* \"#utility.yul\":856:946   */\n  tag_22\n  jump\t// in\ntag_42:\n    /* \"#utility.yul\":847:946   */\n  swap2\n  pop\n    /* \"#utility.yul\":670:952   */\n  pop\n    /* \"#utility.yul\":597:952   */\n  swap3\n  swap2\n  pop\n  pop\n  jump\t// out\n    /* \"#utility.yul\":958:1967   */\ntag_3:\n    /* \"#utility.yul\":1066:1072   */\n  0x00\n    /* \"#utility.yul\":1074:1080   */\n  dup1\n    /* \"#utility.yul\":1082:1088   */\n  0x00\n    /* \"#utility.yul\":1131:1133   */\n  0x60\n    /* \"#utility.yul\":1119:1128   */\n  dup5\n    /* \"#utility.yul\":1110:1117   */\n  dup7\n    /* \"#utility.yul\":1106:1129   */\n  sub\n    /* \"#utility.yul\":1102:1134   */\n  slt\n    /* \"#utility.yul\":1099:1218   */\n  iszero\n  tag_44\n  jumpi\n    /* \"#utility.yul\":1137:1216   */\n  tag_45\n  tag_46\n  jump\t// in\ntag_45:\n    /* \"#utility.yul\":1099:1218   */\ntag_44:\n    /* \"#utility.yul\":1257:1258   */\n  0x00\n    /* \"#utility.yul\":1282:1346   */\n  tag_47\n    /* \"#utility.yul\":1338:1345   */\n  dup7\n    /* \"#utility.yul\":1329:1335   */\n  dup3\n    /* \"#utility.yul\":1318:1327   */\n  dup8\n    /* \"#utility.yul\":1314:1336   */\n  add\n    /* \"#utility.yul\":1282:1346   */\n  tag_33\n  jump\t// in\ntag_47:\n    /* \"#utility.yul\":1272:1346   */\n  swap4\n  pop\n    /* \"#utility.yul\":1228:1356   */\n  pop\n    /* \"#utility.yul\":1416:1418   */\n  0x20\n    /* \"#utility.yul\":1405:1414   */\n  dup5\n    /* \"#utility.yul\":1401:1419   */\n  add\n    /* \"#utility.yul\":1395:1420   */\n  mload\n    /* \"#utility.yul\":1447:1465   */\n  0xffffffffffffffff\n    /* \"#utility.yul\":1439:1445   */\n  dup2\n    /* \"#utility.yul\":1436:1466   */\n  gt\n    /* \"#utility.yul\":1433:1550   */\n  iszero\n  tag_48\n  jumpi\n    /* \"#utility.yul\":1469:1548   */\n  tag_49\n  tag_50\n  jump\t// in\ntag_49:\n    /* \"#utility.yul\":1433:1550   */\ntag_48:\n    /* \"#utility.yul\":1574:1648   */\n  tag_51\n    /* \"#utility.yul\":1640:1647   */\n  dup7\n    /* \"#utility.yul\":1631:1637   */\n  dup3\n    /* \"#utility.yul\":1620:1629   */\n  dup8\n    /* \"#utility.yul\":1616:1638   */\n  add\n    /* \"#utility.yul\":1574:1648   */\n  tag_37\n  jump\t// in\ntag_51:\n    /* \"#utility.yul\":1564:1648   */\n  swap3\n  pop\n    /* \"#utility.yul\":1366:1658   */\n  pop\n    /* \"#utility.yul\":1718:1720   */\n  0x40\n    /* \"#utility.yul\":1707:1716   */\n  dup5\n    /* \"#utility.yul\":1703:1721   */\n  add\n    /* \"#utility.yul\":1697:1722   */\n  mload\n    /* \"#utility.yul\":1749:1767   */\n  0xffffffffffffffff\n    /* \"#utility.yul\":1741:1747   */\n  dup2\n    /* \"#utility.yul\":1738:1768   */\n  gt\n    /* \"#utility.yul\":1735:1852   */\n  iszero\n  tag_52\n  jumpi\n    /* \"#utility.yul\":1771:1850   */\n  tag_53\n  tag_50\n  jump\t// in\ntag_53:\n    /* \"#utility.yul\":1735:1852   */\ntag_52:\n    /* \"#utility.yul\":1876:1950   */\n  tag_54\n    /* \"#utility.yul\":1942:1949   */\n  dup7\n    /* \"#utility.yul\":1933:1939   */\n  dup3\n    /* \"#utility.yul\":1922:1931   */\n  dup8\n    /* \"#utility.yul\":1918:1940   */\n  add\n    /* \"#utility.yul\":1876:1950   */\n  tag_37\n  jump\t// in\ntag_54:\n    /* \"#utility.yul\":1866:1950   */\n  swap2\n  pop\n    /* \"#utility.yul\":1668:1960   */\n  pop\n    /* \"#utility.yul\":958:1967   */\n  swap3\n  pop\n  swap3\n  pop\n  swap3\n  jump\t// out\n    /* \"#utility.yul\":1973:2102   */\ntag_27:\n    /* \"#utility.yul\":2007:2013   */\n  0x00\n    /* \"#utility.yul\":2034:2054   */\n  tag_56\n  tag_57\n  jump\t// in\ntag_56:\n    /* \"#utility.yul\":2024:2054   */\n  swap1\n  pop\n    /* \"#utility.yul\":2063:2096   */\n  tag_58\n    /* \"#utility.yul\":2091:2095   */\n  dup3\n    /* \"#utility.yul\":2083:2089   */\n  dup3\n    /* \"#utility.yul\":2063:2096   */\n  tag_59\n  jump\t// in\ntag_58:\n    /* \"#utility.yul\":1973:2102   */\n  swap2\n  swap1\n  pop\n  jump\t// out\n    /* \"#utility.yul\":2108:2183   */\ntag_57:\n    /* \"#utility.yul\":2141:2147   */\n  0x00\n    /* \"#utility.yul\":2174:2176   */\n  0x40\n    /* \"#utility.yul\":2168:2177   */\n  mload\n    /* \"#utility.yul\":2158:2177   */\n  swap1\n  pop\n    /* \"#utility.yul\":2108:2183   */\n  swap1\n  jump\t// out\n    /* \"#utility.yul\":2189:2497   */\ntag_26:\n    /* \"#utility.yul\":2251:2255   */\n  0x00\n    /* \"#utility.yul\":2341:2359   */\n  0xffffffffffffffff\n    /* \"#utility.yul\":2333:2339   */\n  dup3\n    /* \"#utility.yul\":2330:2360   */\n  gt\n    /* \"#utility.yul\":2327:2383   */\n  iszero\n  tag_62\n  jumpi\n    /* \"#utility.yul\":2363:2381   */\n  tag_63\n  tag_64\n  jump\t// in\ntag_63:\n    /* \"#utility.yul\":2327:2383   */\ntag_62:\n    /* \"#utility.yul\":2401:2430   */\n  tag_65\n    /* \"#utility.yul\":2423:2429   */\n  dup3\n    /* \"#utility.yul\":2401:2430   */\n  tag_66\n  jump\t// in\ntag_65:\n    /* \"#utility.yul\":2393:2430   */\n  swap1\n  pop\n    /* \"#utility.yul\":2485:2489   */\n  0x20\n    /* \"#utility.yul\":2479:2483   */\n  dup2\n    /* \"#utility.yul\":2475:2490   */\n  add\n    /* \"#utility.yul\":2467:2490   */\n  swap1\n  pop\n    /* \"#utility.yul\":2189:2497   */\n  swap2\n  swap1\n  pop\n  jump\t// out\n    /* \"#utility.yul\":2503:2599   */\ntag_67:\n    /* \"#utility.yul\":2540:2547   */\n  0x00\n    /* \"#utility.yul\":2569:2593   */\n  tag_69\n    /* \"#utility.yul\":2587:2592   */\n  dup3\n    /* \"#utility.yul\":2569:2593   */\n  tag_70\n  jump\t// in\ntag_69:\n    /* \"#utility.yul\":2558:2593   */\n  swap1\n  pop\n    /* \"#utility.yul\":2503:2599   */\n  swap2\n  swap1\n  pop\n  jump\t// out\n    /* \"#utility.yul\":2605:2731   */\ntag_70:\n    /* \"#utility.yul\":2642:2649   */\n  0x00\n    /* \"#utility.yul\":2682:2724   */\n  0xffffffffffffffffffffffffffffffffffffffff\n    /* \"#utility.yul\":2675:2680   */\n  dup3\n    /* \"#utility.yul\":2671:2725   */\n  and\n    /* \"#utility.yul\":2660:2725   */\n  swap1\n  pop\n    /* \"#utility.yul\":2605:2731   */\n  swap2\n  swap1\n  pop\n  jump\t// out\n    /* \"#utility.yul\":2737:3044   */\ntag_32:\n    /* \"#utility.yul\":2805:2806   */\n  0x00\n    /* \"#utility.yul\":2815:2928   */\ntag_73:\n    /* \"#utility.yul\":2829:2835   */\n  dup4\n    /* \"#utility.yul\":2826:2827   */\n  dup2\n    /* \"#utility.yul\":2823:2836   */\n  lt\n    /* \"#utility.yul\":2815:2928   */\n  iszero\n  tag_75\n  jumpi\n    /* \"#utility.yul\":2914:2915   */\n  dup1\n    /* \"#utility.yul\":2909:2912   */\n  dup3\n    /* \"#utility.yul\":2905:2916   */\n  add\n    /* \"#utility.yul\":2899:2917   */\n  mload\n    /* \"#utility.yul\":2895:2896   */\n  dup2\n    /* \"#utility.yul\":2890:2893   */\n  dup5\n    /* \"#utility.yul\":2886:2897   */\n  add\n    /* \"#utility.yul\":2879:2918   */\n  mstore\n    /* \"#utility.yul\":2851:2853   */\n  0x20\n    /* \"#utility.yul\":2848:2849   */\n  dup2\n    /* \"#utility.yul\":2844:2854   */\n  add\n    /* \"#utility.yul\":2839:2854   */\n  swap1\n  pop\n    /* \"#utility.yul\":2815:2928   */\n  jump(tag_73)\ntag_75:\n    /* \"#utility.yul\":2946:2952   */\n  dup4\n    /* \"#utility.yul\":2943:2944   */\n  dup2\n    /* \"#utility.yul\":2940:2953   */\n  gt\n    /* \"#utility.yul\":2937:3038   */\n  iszero\n  tag_76\n  jumpi\n    /* \"#utility.yul\":3026:3027   */\n  0x00\n    /* \"#utility.yul\":3017:3023   */\n  dup5\n    /* \"#utility.yul\":3012:3015   */\n  dup5\n    /* \"#utility.yul\":3008:3024   */\n  add\n    /* \"#utility.yul\":3001:3028   */\n  mstore\n    /* \"#utility.yul\":2937:3038   */\ntag_76:\n    /* \"#utility.yul\":2786:3044   */\n  pop\n    /* \"#utility.yul\":2737:3044   */\n  pop\n  pop\n  pop\n  jump\t// out\n    /* \"#utility.yul\":3050:3370   */\ntag_11:\n    /* \"#utility.yul\":3094:3100   */\n  0x00\n    /* \"#utility.yul\":3131:3132   */\n  0x02\n    /* \"#utility.yul\":3125:3129   */\n  dup3\n    /* \"#utility.yul\":3121:3133   */\n  div\n    /* \"#utility.yul\":3111:3133   */\n  swap1\n  pop\n    /* \"#utility.yul\":3178:3179   */\n  0x01\n    /* \"#utility.yul\":3172:3176   */\n  dup3\n    /* \"#utility.yul\":3168:3180   */\n  and\n    /* \"#utility.yul\":3199:3217   */\n  dup1\n    /* \"#utility.yul\":3189:3270   */\n  tag_78\n  jumpi\n    /* \"#utility.yul\":3255:3259   */\n  0x7f\n    /* \"#utility.yul\":3247:3253   */\n  dup3\n    /* \"#utility.yul\":3243:3260   */\n  and\n    /* \"#utility.yul\":3233:3260   */\n  swap2\n  pop\n    /* \"#utility.yul\":3189:3270   */\ntag_78:\n    /* \"#utility.yul\":3317:3319   */\n  0x20\n    /* \"#utility.yul\":3309:3315   */\n  dup3\n    /* \"#utility.yul\":3306:3320   */\n  lt\n    /* \"#utility.yul\":3286:3304   */\n  dup2\n    /* \"#utility.yul\":3283:3321   */\n  eq\n    /* \"#utility.yul\":3280:3364   */\n  iszero\n  tag_79\n  jumpi\n    /* \"#utility.yul\":3336:3354   */\n  tag_80\n  tag_81\n  jump\t// in\ntag_80:\n    /* \"#utility.yul\":3280:3364   */\ntag_79:\n    /* \"#utility.yul\":3101:3370   */\n  pop\n    /* \"#utility.yul\":3050:3370   */\n  swap2\n  swap1\n  pop\n  jump\t// out\n    /* \"#utility.yul\":3376:3657   */\ntag_59:\n    /* \"#utility.yul\":3459:3486   */\n  tag_83\n    /* \"#utility.yul\":3481:3485   */\n  dup3\n    /* \"#utility.yul\":3459:3486   */\n  tag_66\n  jump\t// in\ntag_83:\n    /* \"#utility.yul\":3451:3457   */\n  dup2\n    /* \"#utility.yul\":3447:3487   */\n  add\n    /* \"#utility.yul\":3589:3595   */\n  dup2\n    /* \"#utility.yul\":3577:3587   */\n  dup2\n    /* \"#utility.yul\":3574:3596   */\n  lt\n    /* \"#utility.yul\":3553:3571   */\n  0xffffffffffffffff\n    /* \"#utility.yul\":3541:3551   */\n  dup3\n    /* \"#utility.yul\":3538:3572   */\n  gt\n    /* \"#utility.yul\":3535:3597   */\n  or\n    /* \"#utility.yul\":3532:3620   */\n  iszero\n  tag_84\n  jumpi\n    /* \"#utility.yul\":3600:3618   */\n  tag_85\n  tag_64\n  jump\t// in\ntag_85:\n    /* \"#utility.yul\":3532:3620   */\ntag_84:\n    /* \"#utility.yul\":3640:3650   */\n  dup1\n    /* \"#utility.yul\":3636:3638   */\n  0x40\n    /* \"#utility.yul\":3629:3651   */\n  mstore\n    /* \"#utility.yul\":3419:3657   */\n  pop\n    /* \"#utility.yul\":3376:3657   */\n  pop\n  pop\n  jump\t// out\n    /* \"#utility.yul\":3663:3843   */\ntag_81:\n    /* \"#utility.yul\":3711:3788   */\n  0x4e487b7100000000000000000000000000000000000000000000000000000000\n    /* \"#utility.yul\":3708:3709   */\n  0x00\n    /* \"#utility.yul\":3701:3789   */\n  mstore\n    /* \"#utility.yul\":3808:3812   */\n  0x22\n    /* \"#utility.yul\":3805:3806   */\n  0x04\n    /* \"#utility.yul\":3798:3813   */\n  mstore\n    /* \"#utility.yul\":3832:3836   */\n  0x24\n    /* \"#utility.yul\":3829:3830   */\n  0x00\n    /* \"#utility.yul\":3822:3837   */\n  revert\n    /* \"#utility.yul\":3849:4029   */\ntag_64:\n    /* \"#utility.yul\":3897:3974   */\n  0x4e487b7100000000000000000000000000000000000000000000000000000000\n    /* \"#utility.yul\":3894:3895   */\n  0x00\n    /* \"#utility.yul\":3887:3975   */\n  mstore\n    /* \"#utility.yul\":3994:3998   */\n  0x41\n    /* \"#utility.yul\":3991:3992   */\n  0x04\n    /* \"#utility.yul\":3984:3999   */\n  mstore\n    /* \"#utility.yul\":4018:4022   */\n  0x24\n    /* \"#utility.yul\":4015:4016   */\n  0x00\n    /* \"#utility.yul\":4008:4023   */\n  revert\n    /* \"#utility.yul\":4035:4152   */\ntag_41:\n    /* \"#utility.yul\":4144:4145   */\n  0x00\n    /* \"#utility.yul\":4141:4142   */\n  dup1\n    /* \"#utility.yul\":4134:4146   */\n  revert\n    /* \"#utility.yul\":4158:4275   */\ntag_30:\n    /* \"#utility.yul\":4267:4268   */\n  0x00\n    /* \"#utility.yul\":4264:4265   */\n  dup1\n    /* \"#utility.yul\":4257:4269   */\n  revert\n    /* \"#utility.yul\":4281:4398   */\ntag_50:\n    /* \"#utility.yul\":4390:4391   */\n  0x00\n    /* \"#utility.yul\":4387:4388   */\n  dup1\n    /* \"#utility.yul\":4380:4392   */\n  revert\n    /* \"#utility.yul\":4404:4521   */\ntag_46:\n    /* \"#utility.yul\":4513:4514   */\n  0x00\n    /* \"#utility.yul\":4510:4511   */\n  dup1\n    /* \"#utility.yul\":4503:4515   */\n  revert\n    /* \"#utility.yul\":4527:4629   */\ntag_66:\n    /* \"#utility.yul\":4568:4574   */\n  0x00\n    /* \"#utility.yul\":4619:4621   */\n  0x1f\n    /* \"#utility.yul\":4615:4622   */\n  not\n    /* \"#utility.yul\":4610:4612   */\n  0x1f\n    /* \"#utility.yul\":4603:4608   */\n  dup4\n    /* \"#utility.yul\":4599:4613   */\n  add\n    /* \"#utility.yul\":4595:4623   */\n  and\n    /* \"#utility.yul\":4585:4623   */\n  swap1\n  pop\n    /* \"#utility.yul\":4527:4629   */\n  swap2\n  swap1\n  pop\n  jump\t// out\n    /* \"#utility.yul\":4635:4757   */\ntag_36:\n    /* \"#utility.yul\":4708:4732   */\n  tag_94\n    /* \"#utility.yul\":4726:4731   */\n  dup2\n    /* \"#utility.yul\":4708:4732   */\n  tag_67\n  jump\t// in\ntag_94:\n    /* \"#utility.yul\":4701:4706   */\n  dup2\n    /* \"#utility.yul\":4698:4733   */\n  eq\n    /* \"#utility.yul\":4688:4751   */\n  tag_95\n  jumpi\n    /* \"#utility.yul\":4747:4748   */\n  0x00\n    /* \"#utility.yul\":4744:4745   */\n  dup1\n    /* \"#utility.yul\":4737:4749   */\n  revert\n    /* \"#utility.yul\":4688:4751   */\ntag_95:\n    /* \"#utility.yul\":4635:4757   */\n  pop\n  jump\t// out\n    /* \"contracts/GeekNft.sol\":83:2618  contract GeekNft {... */\ntag_9:\n  dataSize(sub_0)\n  dup1\n  dataOffset(sub_0)\n  0x00\n  codecopy\n  0x00\n  return\nstop\n\nsub_0: assembly {\n        /* \"contracts/GeekNft.sol\":83:2618  contract GeekNft {... */\n      mstore(0x40, 0x80)\n      callvalue\n      dup1\n      iszero\n      tag_1\n      jumpi\n      0x00\n      dup1\n      revert\n    tag_1:\n      pop\n      jumpi(tag_2, lt(calldatasize, 0x04))\n      shr(0xe0, calldataload(0x00))\n      dup1\n      0x06fdde03\n      eq\n      tag_3\n      jumpi\n      dup1\n      0x23b872dd\n      eq\n      tag_4\n      jumpi\n      dup1\n      0x6352211e\n      eq\n      tag_5\n      jumpi\n      dup1\n      0x95d89b41\n      eq\n      tag_6\n      jumpi\n      dup1\n      0xbf59b347\n      eq\n      tag_7\n      jumpi\n      dup1\n      0xd85d3d27\n      eq\n      tag_8\n      jumpi\n    tag_2:\n      0x00\n      dup1\n      revert\n        /* \"contracts/GeekNft.sol\":1120:1201  function name() public view returns (string memory) {... */\n    tag_3:\n      tag_9\n      tag_10\n      jump\t// in\n    tag_9:\n      mload(0x40)\n      tag_11\n      swap2\n      swap1\n      tag_12\n      jump\t// in\n    tag_11:\n      mload(0x40)\n      dup1\n      swap2\n      sub\n      swap1\n      return\n        /* \"contracts/GeekNft.sol\":1302:1727  function transferFrom(address _from, address _to, uint _tokenId) external {... */\n    tag_4:\n      tag_13\n      0x04\n      dup1\n      calldatasize\n      sub\n      dup2\n      add\n      swap1\n      tag_14\n      swap2\n      swap1\n      tag_15\n      jump\t// in\n    tag_14:\n      tag_16\n      jump\t// in\n    tag_13:\n      stop\n        /* \"contracts/GeekNft.sol\":1733:1943  function ownerOf(uint256 _tokenId) external view returns (address) {... */\n    tag_5:\n      tag_17\n      0x04\n      dup1\n      calldatasize\n      sub\n      dup2\n      add\n      swap1\n      tag_18\n      swap2\n      swap1\n      tag_19\n      jump\t// in\n    tag_18:\n      tag_20\n      jump\t// in\n    tag_17:\n      mload(0x40)\n      tag_21\n      swap2\n      swap1\n      tag_22\n      jump\t// in\n    tag_21:\n      mload(0x40)\n      dup1\n      swap2\n      sub\n      swap1\n      return\n        /* \"contracts/GeekNft.sol\":1211:1296  function symbol() public view returns (string memory) {... */\n    tag_6:\n      tag_23\n      tag_24\n      jump\t// in\n    tag_23:\n      mload(0x40)\n      tag_25\n      swap2\n      swap1\n      tag_12\n      jump\t// in\n    tag_25:\n      mload(0x40)\n      dup1\n      swap2\n      sub\n      swap1\n      return\n        /* \"contracts/GeekNft.sol\":461:502  mapping(uint => string) public tokenToUri */\n    tag_7:\n      tag_26\n      0x04\n      dup1\n      calldatasize\n      sub\n      dup2\n      add\n      swap1\n      tag_27\n      swap2\n      swap1\n      tag_19\n      jump\t// in\n    tag_27:\n      tag_28\n      jump\t// in\n    tag_26:\n      mload(0x40)\n      tag_29\n      swap2\n      swap1\n      tag_12\n      jump\t// in\n    tag_29:\n      mload(0x40)\n      dup1\n      swap2\n      sub\n      swap1\n      return\n        /* \"contracts/GeekNft.sol\":848:1113  function mint(string memory _tokenUri) public {... */\n    tag_8:\n      tag_30\n      0x04\n      dup1\n      calldatasize\n      sub\n      dup2\n      add\n      swap1\n      tag_31\n      swap2\n      swap1\n      tag_32\n      jump\t// in\n    tag_31:\n      tag_33\n      jump\t// in\n    tag_30:\n      stop\n        /* \"contracts/GeekNft.sol\":1120:1201  function name() public view returns (string memory) {... */\n    tag_10:\n        /* \"contracts/GeekNft.sol\":1157:1170  string memory */\n      0x60\n        /* \"contracts/GeekNft.sol\":1189:1194  _name */\n      0x00\n        /* \"contracts/GeekNft.sol\":1182:1194  return _name */\n      dup1\n      sload\n      tag_35\n      swap1\n      tag_36\n      jump\t// in\n    tag_35:\n      dup1\n      0x1f\n      add\n      0x20\n      dup1\n      swap2\n      div\n      mul\n      0x20\n      add\n      mload(0x40)\n      swap1\n      dup2\n      add\n      0x40\n      mstore\n      dup1\n      swap3\n      swap2\n      swap1\n      dup2\n      dup2\n      mstore\n      0x20\n      add\n      dup3\n      dup1\n      sload\n      tag_37\n      swap1\n      tag_36\n      jump\t// in\n    tag_37:\n      dup1\n      iszero\n      tag_38\n      jumpi\n      dup1\n      0x1f\n      lt\n      tag_39\n      jumpi\n      0x0100\n      dup1\n      dup4\n      sload\n      div\n      mul\n      dup4\n      mstore\n      swap2\n      0x20\n      add\n      swap2\n      jump(tag_38)\n    tag_39:\n      dup3\n      add\n      swap2\n      swap1\n      0x00\n      mstore\n      keccak256(0x00, 0x20)\n      swap1\n    tag_40:\n      dup2\n      sload\n      dup2\n      mstore\n      swap1\n      0x01\n      add\n      swap1\n      0x20\n      add\n      dup1\n      dup4\n      gt\n      tag_40\n      jumpi\n      dup3\n      swap1\n      sub\n      0x1f\n      and\n      dup3\n      add\n      swap2\n    tag_38:\n      pop\n      pop\n      pop\n      pop\n      pop\n      swap1\n      pop\n        /* \"contracts/GeekNft.sol\":1120:1201  function name() public view returns (string memory) {... */\n      swap1\n      jump\t// out\n        /* \"contracts/GeekNft.sol\":1302:1727  function transferFrom(address _from, address _to, uint _tokenId) external {... */\n    tag_16:\n        /* \"contracts/GeekNft.sol\":1420:1425  _from */\n      dup3\n        /* \"contracts/GeekNft.sol\":1394:1425  tokenToOwner[_tokenId] == _from */\n      0xffffffffffffffffffffffffffffffffffffffff\n      and\n        /* \"contracts/GeekNft.sol\":1394:1406  tokenToOwner */\n      0x05\n        /* \"contracts/GeekNft.sol\":1394:1416  tokenToOwner[_tokenId] */\n      0x00\n        /* \"contracts/GeekNft.sol\":1407:1415  _tokenId */\n      dup4\n        /* \"contracts/GeekNft.sol\":1394:1416  tokenToOwner[_tokenId] */\n      dup2\n      mstore\n      0x20\n      add\n      swap1\n      dup2\n      mstore\n      0x20\n      add\n      0x00\n      keccak256\n      0x00\n      swap1\n      sload\n      swap1\n      0x0100\n      exp\n      swap1\n      div\n      0xffffffffffffffffffffffffffffffffffffffff\n      and\n        /* \"contracts/GeekNft.sol\":1394:1425  tokenToOwner[_tokenId] == _from */\n      0xffffffffffffffffffffffffffffffffffffffff\n      and\n      eq\n        /* \"contracts/GeekNft.sol\":1386:1453  require(tokenToOwner[_tokenId] == _from, \"Not called by the owner\") */\n      tag_42\n      jumpi\n      mload(0x40)\n      0x08c379a000000000000000000000000000000000000000000000000000000000\n      dup2\n      mstore\n      0x04\n      add\n      tag_43\n      swap1\n      tag_44\n      jump\t// in\n    tag_43:\n      mload(0x40)\n      dup1\n      swap2\n      sub\n      swap1\n      revert\n    tag_42:\n        /* \"contracts/GeekNft.sol\":1486:1487  0 */\n      0x00\n        /* \"contracts/GeekNft.sol\":1471:1488  _to != address(0) */\n      0xffffffffffffffffffffffffffffffffffffffff\n      and\n        /* \"contracts/GeekNft.sol\":1471:1474  _to */\n      dup3\n        /* \"contracts/GeekNft.sol\":1471:1488  _to != address(0) */\n      0xffffffffffffffffffffffffffffffffffffffff\n      and\n      eq\n      iszero\n        /* \"contracts/GeekNft.sol\":1463:1529  require(_to != address(0), \"ERC721: transfer to the zero address\") */\n      tag_45\n      jumpi\n      mload(0x40)\n      0x08c379a000000000000000000000000000000000000000000000000000000000\n      dup2\n      mstore\n      0x04\n      add\n      tag_46\n      swap1\n      tag_47\n      jump\t// in\n    tag_46:\n      mload(0x40)\n      dup1\n      swap2\n      sub\n      swap1\n      revert\n    tag_45:\n        /* \"contracts/GeekNft.sol\":1563:1579  tokensOwnerCount */\n      0x04\n        /* \"contracts/GeekNft.sol\":1563:1586  tokensOwnerCount[_from] */\n      0x00\n        /* \"contracts/GeekNft.sol\":1580:1585  _from */\n      dup5\n        /* \"contracts/GeekNft.sol\":1563:1586  tokensOwnerCount[_from] */\n      0xffffffffffffffffffffffffffffffffffffffff\n      and\n      0xffffffffffffffffffffffffffffffffffffffff\n      and\n      dup2\n      mstore\n      0x20\n      add\n      swap1\n      dup2\n      mstore\n      0x20\n      add\n      0x00\n      keccak256\n      0x00\n        /* \"contracts/GeekNft.sol\":1563:1588  tokensOwnerCount[_from]-- */\n      dup2\n      sload\n      dup1\n      swap3\n      swap2\n      swap1\n      0x01\n      swap1\n      sub\n      swap2\n      swap1\n      pop\n      sstore\n      pop\n        /* \"contracts/GeekNft.sol\":1602:1618  tokensOwnerCount */\n      0x04\n        /* \"contracts/GeekNft.sol\":1602:1623  tokensOwnerCount[_to] */\n      0x00\n        /* \"contracts/GeekNft.sol\":1619:1622  _to */\n      dup4\n        /* \"contracts/GeekNft.sol\":1602:1623  tokensOwnerCount[_to] */\n      0xffffffffffffffffffffffffffffffffffffffff\n      and\n      0xffffffffffffffffffffffffffffffffffffffff\n      and\n      dup2\n      mstore\n      0x20\n      add\n      swap1\n      dup2\n      mstore\n      0x20\n      add\n      0x00\n      keccak256\n      0x00\n        /* \"contracts/GeekNft.sol\":1602:1625  tokensOwnerCount[_to]++ */\n      dup2\n      sload\n      dup1\n      swap3\n      swap2\n      swap1\n      0x01\n      add\n      swap2\n      swap1\n      pop\n      sstore\n      pop\n        /* \"contracts/GeekNft.sol\":1671:1674  _to */\n      dup2\n        /* \"contracts/GeekNft.sol\":1646:1658  tokenToOwner */\n      0x05\n        /* \"contracts/GeekNft.sol\":1646:1668  tokenToOwner[_tokenId] */\n      0x00\n        /* \"contracts/GeekNft.sol\":1659:1667  _tokenId */\n      dup4\n        /* \"contracts/GeekNft.sol\":1646:1668  tokenToOwner[_tokenId] */\n      dup2\n      mstore\n      0x20\n      add\n      swap1\n      dup2\n      mstore\n      0x20\n      add\n      0x00\n      keccak256\n      0x00\n        /* \"contracts/GeekNft.sol\":1646:1674  tokenToOwner[_tokenId] = _to */\n      0x0100\n      exp\n      dup2\n      sload\n      dup2\n      0xffffffffffffffffffffffffffffffffffffffff\n      mul\n      not\n      and\n      swap1\n      dup4\n      0xffffffffffffffffffffffffffffffffffffffff\n      and\n      mul\n      or\n      swap1\n      sstore\n      pop\n        /* \"contracts/GeekNft.sol\":1711:1719  _tokenId */\n      dup1\n        /* \"contracts/GeekNft.sol\":1706:1709  _to */\n      dup3\n        /* \"contracts/GeekNft.sol\":1690:1720  Transfer(_from, _to, _tokenId) */\n      0xffffffffffffffffffffffffffffffffffffffff\n      and\n        /* \"contracts/GeekNft.sol\":1699:1704  _from */\n      dup5\n        /* \"contracts/GeekNft.sol\":1690:1720  Transfer(_from, _to, _tokenId) */\n      0xffffffffffffffffffffffffffffffffffffffff\n      and\n      0xddf252ad1be2c89b69c2b068fc378daa952ba7f163c4a11628f55a4df523b3ef\n      mload(0x40)\n      mload(0x40)\n      dup1\n      swap2\n      sub\n      swap1\n      log4\n        /* \"contracts/GeekNft.sol\":1302:1727  function transferFrom(address _from, address _to, uint _tokenId) external {... */\n      pop\n      pop\n      pop\n      jump\t// out\n        /* \"contracts/GeekNft.sol\":1733:1943  function ownerOf(uint256 _tokenId) external view returns (address) {... */\n    tag_20:\n        /* \"contracts/GeekNft.sol\":1791:1798  address */\n      0x00\n        /* \"contracts/GeekNft.sol\":1810:1823  address owner */\n      dup1\n        /* \"contracts/GeekNft.sol\":1826:1838  tokenToOwner */\n      0x05\n        /* \"contracts/GeekNft.sol\":1826:1848  tokenToOwner[_tokenId] */\n      0x00\n        /* \"contracts/GeekNft.sol\":1839:1847  _tokenId */\n      dup5\n        /* \"contracts/GeekNft.sol\":1826:1848  tokenToOwner[_tokenId] */\n      dup2\n      mstore\n      0x20\n      add\n      swap1\n      dup2\n      mstore\n      0x20\n      add\n      0x00\n      keccak256\n      0x00\n      swap1\n      sload\n      swap1\n      0x0100\n      exp\n      swap1\n      div\n      0xffffffffffffffffffffffffffffffffffffffff\n      and\n        /* \"contracts/GeekNft.sol\":1810:1848  address owner = tokenToOwner[_tokenId] */\n      swap1\n      pop\n        /* \"contracts/GeekNft.sol\":1883:1884  0 */\n      0x00\n        /* \"contracts/GeekNft.sol\":1866:1885  owner != address(0) */\n      0xffffffffffffffffffffffffffffffffffffffff\n      and\n        /* \"contracts/GeekNft.sol\":1866:1871  owner */\n      dup2\n        /* \"contracts/GeekNft.sol\":1866:1885  owner != address(0) */\n      0xffffffffffffffffffffffffffffffffffffffff\n      and\n      eq\n      iszero\n        /* \"contracts/GeekNft.sol\":1858:1914  require(owner != address(0), \"ERC721: invalid token ID\") */\n      tag_49\n      jumpi\n      mload(0x40)\n      0x08c379a000000000000000000000000000000000000000000000000000000000\n      dup2\n      mstore\n      0x04\n      add\n      tag_50\n      swap1\n      tag_51\n      jump\t// in\n    tag_50:\n      mload(0x40)\n      dup1\n      swap2\n      sub\n      swap1\n      revert\n    tag_49:\n        /* \"contracts/GeekNft.sol\":1931:1936  owner */\n      dup1\n        /* \"contracts/GeekNft.sol\":1924:1936  return owner */\n      swap2\n      pop\n      pop\n        /* \"contracts/GeekNft.sol\":1733:1943  function ownerOf(uint256 _tokenId) external view returns (address) {... */\n      swap2\n      swap1\n      pop\n      jump\t// out\n        /* \"contracts/GeekNft.sol\":1211:1296  function symbol() public view returns (string memory) {... */\n    tag_24:\n        /* \"contracts/GeekNft.sol\":1250:1263  string memory */\n      0x60\n        /* \"contracts/GeekNft.sol\":1282:1289  _symbol */\n      0x01\n        /* \"contracts/GeekNft.sol\":1275:1289  return _symbol */\n      dup1\n      sload\n      tag_53\n      swap1\n      tag_36\n      jump\t// in\n    tag_53:\n      dup1\n      0x1f\n      add\n      0x20\n      dup1\n      swap2\n      div\n      mul\n      0x20\n      add\n      mload(0x40)\n      swap1\n      dup2\n      add\n      0x40\n      mstore\n      dup1\n      swap3\n      swap2\n      swap1\n      dup2\n      dup2\n      mstore\n      0x20\n      add\n      dup3\n      dup1\n      sload\n      tag_54\n      swap1\n      tag_36\n      jump\t// in\n    tag_54:\n      dup1\n      iszero\n      tag_55\n      jumpi\n      dup1\n      0x1f\n      lt\n      tag_56\n      jumpi\n      0x0100\n      dup1\n      dup4\n      sload\n      div\n      mul\n      dup4\n      mstore\n      swap2\n      0x20\n      add\n      swap2\n      jump(tag_55)\n    tag_56:\n      dup3\n      add\n      swap2\n      swap1\n      0x00\n      mstore\n      keccak256(0x00, 0x20)\n      swap1\n    tag_57:\n      dup2\n      sload\n      dup2\n      mstore\n      swap1\n      0x01\n      add\n      swap1\n      0x20\n      add\n      dup1\n      dup4\n      gt\n      tag_57\n      jumpi\n      dup3\n      swap1\n      sub\n      0x1f\n      and\n      dup3\n      add\n      swap2\n    tag_55:\n      pop\n      pop\n      pop\n      pop\n      pop\n      swap1\n      pop\n        /* \"contracts/GeekNft.sol\":1211:1296  function symbol() public view returns (string memory) {... */\n      swap1\n      jump\t// out\n        /* \"contracts/GeekNft.sol\":461:502  mapping(uint => string) public tokenToUri */\n    tag_28:\n      mstore(0x20, 0x08)\n      dup1\n      0x00\n      mstore\n      keccak256(0x00, 0x40)\n      0x00\n      swap2\n      pop\n      swap1\n      pop\n      dup1\n      sload\n      tag_58\n      swap1\n      tag_36\n      jump\t// in\n    tag_58:\n      dup1\n      0x1f\n      add\n      0x20\n      dup1\n      swap2\n      div\n      mul\n      0x20\n      add\n      mload(0x40)\n      swap1\n      dup2\n      add\n      0x40\n      mstore\n      dup1\n      swap3\n      swap2\n      swap1\n      dup2\n      dup2\n      mstore\n      0x20\n      add\n      dup3\n      dup1\n      sload\n      tag_59\n      swap1\n      tag_36\n      jump\t// in\n    tag_59:\n      dup1\n      iszero\n      tag_60\n      jumpi\n      dup1\n      0x1f\n      lt\n      tag_61\n      jumpi\n      0x0100\n      dup1\n      dup4\n      sload\n      div\n      mul\n      dup4\n      mstore\n      swap2\n      0x20\n      add\n      swap2\n      jump(tag_60)\n    tag_61:\n      dup3\n      add\n      swap2\n      swap1\n      0x00\n      mstore\n      keccak256(0x00, 0x20)\n      swap1\n    tag_62:\n      dup2\n      sload\n      dup2\n      mstore\n      swap1\n      0x01\n      add\n      swap1\n      0x20\n      add\n      dup1\n      dup4\n      gt\n      tag_62\n      jumpi\n      dup3\n      swap1\n      sub\n      0x1f\n      and\n      dup3\n      add\n      swap2\n    tag_60:\n      pop\n      pop\n      pop\n      pop\n      pop\n      dup2\n      jump\t// out\n        /* \"contracts/GeekNft.sol\":848:1113  function mint(string memory _tokenUri) public {... */\n    tag_33:\n        /* \"contracts/GeekNft.sol\":904:924  tokenIds.increment() */\n      tag_64\n        /* \"contracts/GeekNft.sol\":904:912  tokenIds */\n      0x02\n        /* \"contracts/GeekNft.sol\":904:922  tokenIds.increment */\n      tag_65\n        /* \"contracts/GeekNft.sol\":904:924  tokenIds.increment() */\n      jump\t// in\n    tag_64:\n        /* \"contracts/GeekNft.sol\":934:949  uint newTokenId */\n      0x00\n        /* \"contracts/GeekNft.sol\":952:970  tokenIds.current() */\n      tag_66\n        /* \"contracts/GeekNft.sol\":952:960  tokenIds */\n      0x02\n        /* \"contracts/GeekNft.sol\":952:968  tokenIds.current */\n      tag_67\n        /* \"contracts/GeekNft.sol\":952:970  tokenIds.current() */\n      jump\t// in\n    tag_66:\n        /* \"contracts/GeekNft.sol\":934:970  uint newTokenId = tokenIds.current() */\n      swap1\n      pop\n        /* \"contracts/GeekNft.sol\":980:1013  _safeMint(msg.sender, newTokenId) */\n      tag_68\n        /* \"contracts/GeekNft.sol\":990:1000  msg.sender */\n      caller\n        /* \"contracts/GeekNft.sol\":1002:1012  newTokenId */\n      dup3\n        /* \"contracts/GeekNft.sol\":980:989  _safeMint */\n      tag_69\n        /* \"contracts/GeekNft.sol\":980:1013  _safeMint(msg.sender, newTokenId) */\n      jump\t// in\n    tag_68:\n        /* \"contracts/GeekNft.sol\":1023:1058  _setTokenUri(newTokenId, _tokenUri) */\n      tag_70\n        /* \"contracts/GeekNft.sol\":1036:1046  newTokenId */\n      dup2\n        /* \"contracts/GeekNft.sol\":1048:1057  _tokenUri */\n      dup4\n        /* \"contracts/GeekNft.sol\":1023:1035  _setTokenUri */\n      tag_71\n        /* \"contracts/GeekNft.sol\":1023:1058  _setTokenUri(newTokenId, _tokenUri) */\n      jump\t// in\n    tag_70:\n        /* \"contracts/GeekNft.sol\":1083:1093  newTokenId */\n      dup1\n        /* \"contracts/GeekNft.sol\":1073:1106  NftMinted(newTokenId, msg.sender) */\n      0x769eff512f395b679667e0062a0e31dad5d22dbc7e6b87f16c3de7e85e663460\n        /* \"contracts/GeekNft.sol\":1095:1105  msg.sender */\n      caller\n        /* \"contracts/GeekNft.sol\":1073:1106  NftMinted(newTokenId, msg.sender) */\n      mload(0x40)\n      tag_72\n      swap2\n      swap1\n      tag_22\n      jump\t// in\n    tag_72:\n      mload(0x40)\n      dup1\n      swap2\n      sub\n      swap1\n      log2\n        /* \"contracts/GeekNft.sol\":894:1113  {... */\n      pop\n        /* \"contracts/GeekNft.sol\":848:1113  function mint(string memory _tokenUri) public {... */\n      pop\n      jump\t// out\n        /* \"contracts/Counters.sol\":945:1068  function increment(Counter storage counter) internal {... */\n    tag_65:\n        /* \"contracts/Counters.sol\":1050:1051  1 */\n      0x01\n        /* \"contracts/Counters.sol\":1032:1039  counter */\n      dup2\n        /* \"contracts/Counters.sol\":1032:1046  counter._value */\n      0x00\n      add\n      0x00\n        /* \"contracts/Counters.sol\":1032:1051  counter._value += 1 */\n      dup3\n      dup3\n      sload\n      add\n      swap3\n      pop\n      pop\n      dup2\n      swap1\n      sstore\n      pop\n        /* \"contracts/Counters.sol\":945:1068  function increment(Counter storage counter) internal {... */\n      pop\n      jump\t// out\n        /* \"contracts/Counters.sol\":827:939  function current(Counter storage counter) internal view returns (uint256) {... */\n    tag_67:\n        /* \"contracts/Counters.sol\":892:899  uint256 */\n      0x00\n        /* \"contracts/Counters.sol\":918:925  counter */\n      dup2\n        /* \"contracts/Counters.sol\":918:932  counter._value */\n      0x00\n      add\n      sload\n        /* \"contracts/Counters.sol\":911:932  return counter._value */\n      swap1\n      pop\n        /* \"contracts/Counters.sol\":827:939  function current(Counter storage counter) internal view returns (uint256) {... */\n      swap2\n      swap1\n      pop\n      jump\t// out\n        /* \"contracts/GeekNft.sol\":1969:2410  function _safeMint(address _to, uint _tokenId) private{... */\n    tag_69:\n        /* \"contracts/GeekNft.sol\":2077:2078  0 */\n      0x00\n        /* \"contracts/GeekNft.sol\":2041:2079  tokenToCreator[_tokenId] == address(0) */\n      0xffffffffffffffffffffffffffffffffffffffff\n      and\n        /* \"contracts/GeekNft.sol\":2041:2055  tokenToCreator */\n      0x07\n        /* \"contracts/GeekNft.sol\":2041:2065  tokenToCreator[_tokenId] */\n      0x00\n        /* \"contracts/GeekNft.sol\":2056:2064  _tokenId */\n      dup4\n        /* \"contracts/GeekNft.sol\":2041:2065  tokenToCreator[_tokenId] */\n      dup2\n      mstore\n      0x20\n      add\n      swap1\n      dup2\n      mstore\n      0x20\n      add\n      0x00\n      keccak256\n      0x00\n      swap1\n      sload\n      swap1\n      0x0100\n      exp\n      swap1\n      div\n      0xffffffffffffffffffffffffffffffffffffffff\n      and\n        /* \"contracts/GeekNft.sol\":2041:2079  tokenToCreator[_tokenId] == address(0) */\n      0xffffffffffffffffffffffffffffffffffffffff\n      and\n      eq\n        /* \"contracts/GeekNft.sol\":2033:2103  require(tokenToCreator[_tokenId] == address(0), \"token already exist\") */\n      tag_76\n      jumpi\n      mload(0x40)\n      0x08c379a000000000000000000000000000000000000000000000000000000000\n      dup2\n      mstore\n      0x04\n      add\n      tag_77\n      swap1\n      tag_78\n      jump\t// in\n    tag_77:\n      mload(0x40)\n      dup1\n      swap2\n      sub\n      swap1\n      revert\n    tag_76:\n        /* \"contracts/GeekNft.sol\":2136:2137  0 */\n      0x00\n        /* \"contracts/GeekNft.sol\":2121:2138  _to != address(0) */\n      0xffffffffffffffffffffffffffffffffffffffff\n      and\n        /* \"contracts/GeekNft.sol\":2121:2124  _to */\n      dup3\n        /* \"contracts/GeekNft.sol\":2121:2138  _to != address(0) */\n      0xffffffffffffffffffffffffffffffffffffffff\n      and\n      eq\n      iszero\n        /* \"contracts/GeekNft.sol\":2113:2167  require(_to != address(0), \"mint to the zero address\") */\n      tag_79\n      jumpi\n      mload(0x40)\n      0x08c379a000000000000000000000000000000000000000000000000000000000\n      dup2\n      mstore\n      0x04\n      add\n      tag_80\n      swap1\n      tag_81\n      jump\t// in\n    tag_80:\n      mload(0x40)\n      dup1\n      swap2\n      sub\n      swap1\n      revert\n    tag_79:\n        /* \"contracts/GeekNft.sol\":2201:2217  tokensOwnerCount */\n      0x04\n        /* \"contracts/GeekNft.sol\":2201:2222  tokensOwnerCount[_to] */\n      0x00\n        /* \"contracts/GeekNft.sol\":2218:2221  _to */\n      dup4\n        /* \"contracts/GeekNft.sol\":2201:2222  tokensOwnerCount[_to] */\n      0xffffffffffffffffffffffffffffffffffffffff\n      and\n      0xffffffffffffffffffffffffffffffffffffffff\n      and\n      dup2\n      mstore\n      0x20\n      add\n      swap1\n      dup2\n      mstore\n      0x20\n      add\n      0x00\n      keccak256\n      0x00\n        /* \"contracts/GeekNft.sol\":2201:2224  tokensOwnerCount[_to]++ */\n      dup2\n      sload\n      dup1\n      swap3\n      swap2\n      swap1\n      0x01\n      add\n      swap2\n      swap1\n      pop\n      sstore\n      pop\n        /* \"contracts/GeekNft.sol\":2238:2256  tokensCreatorCount */\n      0x06\n        /* \"contracts/GeekNft.sol\":2238:2261  tokensCreatorCount[_to] */\n      0x00\n        /* \"contracts/GeekNft.sol\":2257:2260  _to */\n      dup4\n        /* \"contracts/GeekNft.sol\":2238:2261  tokensCreatorCount[_to] */\n      0xffffffffffffffffffffffffffffffffffffffff\n      and\n      0xffffffffffffffffffffffffffffffffffffffff\n      and\n      dup2\n      mstore\n      0x20\n      add\n      swap1\n      dup2\n      mstore\n      0x20\n      add\n      0x00\n      keccak256\n      0x00\n        /* \"contracts/GeekNft.sol\":2238:2263  tokensCreatorCount[_to]++ */\n      dup2\n      sload\n      dup1\n      swap3\n      swap2\n      swap1\n      0x01\n      add\n      swap2\n      swap1\n      pop\n      sstore\n      pop\n        /* \"contracts/GeekNft.sol\":2309:2312  _to */\n      dup2\n        /* \"contracts/GeekNft.sol\":2284:2296  tokenToOwner */\n      0x05\n        /* \"contracts/GeekNft.sol\":2284:2306  tokenToOwner[_tokenId] */\n      0x00\n        /* \"contracts/GeekNft.sol\":2297:2305  _tokenId */\n      dup4\n        /* \"contracts/GeekNft.sol\":2284:2306  tokenToOwner[_tokenId] */\n      dup2\n      mstore\n      0x20\n      add\n      swap1\n      dup2\n      mstore\n      0x20\n      add\n      0x00\n      keccak256\n      0x00\n        /* \"contracts/GeekNft.sol\":2284:2312  tokenToOwner[_tokenId] = _to */\n      0x0100\n      exp\n      dup2\n      sload\n      dup2\n      0xffffffffffffffffffffffffffffffffffffffff\n      mul\n      not\n      and\n      swap1\n      dup4\n      0xffffffffffffffffffffffffffffffffffffffff\n      and\n      mul\n      or\n      swap1\n      sstore\n      pop\n        /* \"contracts/GeekNft.sol\":2349:2352  _to */\n      dup2\n        /* \"contracts/GeekNft.sol\":2322:2336  tokenToCreator */\n      0x07\n        /* \"contracts/GeekNft.sol\":2322:2346  tokenToCreator[_tokenId] */\n      0x00\n        /* \"contracts/GeekNft.sol\":2337:2345  _tokenId */\n      dup4\n        /* \"contracts/GeekNft.sol\":2322:2346  tokenToCreator[_tokenId] */\n      dup2\n      mstore\n      0x20\n      add\n      swap1\n      dup2\n      mstore\n      0x20\n      add\n      0x00\n      keccak256\n      0x00\n        /* \"contracts/GeekNft.sol\":2322:2352  tokenToCreator[_tokenId] = _to */\n      0x0100\n      exp\n      dup2\n      sload\n      dup2\n      0xffffffffffffffffffffffffffffffffffffffff\n      mul\n      not\n      and\n      swap1\n      dup4\n      0xffffffffffffffffffffffffffffffffffffffff\n      and\n      mul\n      or\n      swap1\n      sstore\n      pop\n        /* \"contracts/GeekNft.sol\":2394:2402  _tokenId */\n      dup1\n        /* \"contracts/GeekNft.sol\":2389:2392  _to */\n      dup3\n        /* \"contracts/GeekNft.sol\":2368:2403  Transfer(address(0), _to, _tokenId) */\n      0xffffffffffffffffffffffffffffffffffffffff\n      and\n        /* \"contracts/GeekNft.sol\":2385:2386  0 */\n      0x00\n        /* \"contracts/GeekNft.sol\":2368:2403  Transfer(address(0), _to, _tokenId) */\n      0xffffffffffffffffffffffffffffffffffffffff\n      and\n      0xddf252ad1be2c89b69c2b068fc378daa952ba7f163c4a11628f55a4df523b3ef\n      mload(0x40)\n      mload(0x40)\n      dup1\n      swap2\n      sub\n      swap1\n      log4\n        /* \"contracts/GeekNft.sol\":1969:2410  function _safeMint(address _to, uint _tokenId) private{... */\n      pop\n      pop\n      jump\t// out\n        /* \"contracts/GeekNft.sol\":2416:2615  function _setTokenUri(uint _tokenId, string memory _tokenUri) private {... */\n    tag_71:\n        /* \"contracts/GeekNft.sol\":2540:2541  0 */\n      0x00\n        /* \"contracts/GeekNft.sol\":2504:2542  tokenToCreator[_tokenId] != address(0) */\n      0xffffffffffffffffffffffffffffffffffffffff\n      and\n        /* \"contracts/GeekNft.sol\":2504:2518  tokenToCreator */\n      0x07\n        /* \"contracts/GeekNft.sol\":2504:2528  tokenToCreator[_tokenId] */\n      0x00\n        /* \"contracts/GeekNft.sol\":2519:2527  _tokenId */\n      dup5\n        /* \"contracts/GeekNft.sol\":2504:2528  tokenToCreator[_tokenId] */\n      dup2\n      mstore\n      0x20\n      add\n      swap1\n      dup2\n      mstore\n      0x20\n      add\n      0x00\n      keccak256\n      0x00\n      swap1\n      sload\n      swap1\n      0x0100\n      exp\n      swap1\n      div\n      0xffffffffffffffffffffffffffffffffffffffff\n      and\n        /* \"contracts/GeekNft.sol\":2504:2542  tokenToCreator[_tokenId] != address(0) */\n      0xffffffffffffffffffffffffffffffffffffffff\n      and\n      eq\n      iszero\n        /* \"contracts/GeekNft.sol\":2496:2566  require(tokenToCreator[_tokenId] != address(0), \"token doesn't exist\") */\n      tag_83\n      jumpi\n      mload(0x40)\n      0x08c379a000000000000000000000000000000000000000000000000000000000\n      dup2\n      mstore\n      0x04\n      add\n      tag_84\n      swap1\n      tag_85\n      jump\t// in\n    tag_84:\n      mload(0x40)\n      dup1\n      swap2\n      sub\n      swap1\n      revert\n    tag_83:\n        /* \"contracts/GeekNft.sol\":2599:2608  _tokenUri */\n      dup1\n        /* \"contracts/GeekNft.sol\":2576:2586  tokenToUri */\n      0x08\n        /* \"contracts/GeekNft.sol\":2576:2596  tokenToUri[_tokenId] */\n      0x00\n        /* \"contracts/GeekNft.sol\":2587:2595  _tokenId */\n      dup5\n        /* \"contracts/GeekNft.sol\":2576:2596  tokenToUri[_tokenId] */\n      dup2\n      mstore\n      0x20\n      add\n      swap1\n      dup2\n      mstore\n      0x20\n      add\n      0x00\n      keccak256\n        /* \"contracts/GeekNft.sol\":2576:2608  tokenToUri[_tokenId] = _tokenUri */\n      swap1\n      dup1\n      mload\n      swap1\n      0x20\n      add\n      swap1\n      tag_86\n      swap3\n      swap2\n      swap1\n      tag_87\n      jump\t// in\n    tag_86:\n      pop\n        /* \"contracts/GeekNft.sol\":2416:2615  function _setTokenUri(uint _tokenId, string memory _tokenUri) private {... */\n      pop\n      pop\n      jump\t// out\n    tag_87:\n      dup3\n      dup1\n      sload\n      tag_88\n      swap1\n      tag_36\n      jump\t// in\n    tag_88:\n      swap1\n      0x00\n      mstore\n      keccak256(0x00, 0x20)\n      swap1\n      0x1f\n      add\n      0x20\n      swap1\n      div\n      dup2\n      add\n      swap3\n      dup3\n      tag_90\n      jumpi\n      0x00\n      dup6\n      sstore\n      jump(tag_89)\n    tag_90:\n      dup3\n      0x1f\n      lt\n      tag_91\n      jumpi\n      dup1\n      mload\n      not(0xff)\n      and\n      dup4\n      dup1\n      add\n      or\n      dup6\n      sstore\n      jump(tag_89)\n    tag_91:\n      dup3\n      dup1\n      add\n      0x01\n      add\n      dup6\n      sstore\n      dup3\n      iszero\n      tag_89\n      jumpi\n      swap2\n      dup3\n      add\n    tag_92:\n      dup3\n      dup2\n      gt\n      iszero\n      tag_93\n      jumpi\n      dup3\n      mload\n      dup3\n      sstore\n      swap2\n      0x20\n      add\n      swap2\n      swap1\n      0x01\n      add\n      swap1\n      jump(tag_92)\n    tag_93:\n    tag_89:\n      pop\n      swap1\n      pop\n      tag_94\n      swap2\n      swap1\n      tag_95\n      jump\t// in\n    tag_94:\n      pop\n      swap1\n      jump\t// out\n    tag_95:\n    tag_96:\n      dup1\n      dup3\n      gt\n      iszero\n      tag_97\n      jumpi\n      0x00\n      dup2\n      0x00\n      swap1\n      sstore\n      pop\n      0x01\n      add\n      jump(tag_96)\n    tag_97:\n      pop\n      swap1\n      jump\t// out\n        /* \"#utility.yul\":7:419   */\n    tag_99:\n        /* \"#utility.yul\":85:90   */\n      0x00\n        /* \"#utility.yul\":110:176   */\n      tag_101\n        /* \"#utility.yul\":126:175   */\n      tag_102\n        /* \"#utility.yul\":168:174   */\n      dup5\n        /* \"#utility.yul\":126:175   */\n      tag_103\n      jump\t// in\n    tag_102:\n        /* \"#utility.yul\":110:176   */\n      tag_104\n      jump\t// in\n    tag_101:\n        /* \"#utility.yul\":101:176   */\n      swap1\n      pop\n        /* \"#utility.yul\":199:205   */\n      dup3\n        /* \"#utility.yul\":192:197   */\n      dup2\n        /* \"#utility.yul\":185:206   */\n      mstore\n        /* \"#utility.yul\":237:241   */\n      0x20\n        /* \"#utility.yul\":230:235   */\n      dup2\n        /* \"#utility.yul\":226:242   */\n      add\n        /* \"#utility.yul\":275:278   */\n      dup5\n        /* \"#utility.yul\":266:272   */\n      dup5\n        /* \"#utility.yul\":261:264   */\n      dup5\n        /* \"#utility.yul\":257:273   */\n      add\n        /* \"#utility.yul\":254:279   */\n      gt\n        /* \"#utility.yul\":251:363   */\n      iszero\n      tag_105\n      jumpi\n        /* \"#utility.yul\":282:361   */\n      tag_106\n      tag_107\n      jump\t// in\n    tag_106:\n        /* \"#utility.yul\":251:363   */\n    tag_105:\n        /* \"#utility.yul\":372:413   */\n      tag_108\n        /* \"#utility.yul\":406:412   */\n      dup5\n        /* \"#utility.yul\":401:404   */\n      dup3\n        /* \"#utility.yul\":396:399   */\n      dup6\n        /* \"#utility.yul\":372:413   */\n      tag_109\n      jump\t// in\n    tag_108:\n        /* \"#utility.yul\":91:419   */\n      pop\n        /* \"#utility.yul\":7:419   */\n      swap4\n      swap3\n      pop\n      pop\n      pop\n      jump\t// out\n        /* \"#utility.yul\":425:564   */\n    tag_110:\n        /* \"#utility.yul\":471:476   */\n      0x00\n        /* \"#utility.yul\":509:515   */\n      dup2\n        /* \"#utility.yul\":496:516   */\n      calldataload\n        /* \"#utility.yul\":487:516   */\n      swap1\n      pop\n        /* \"#utility.yul\":525:558   */\n      tag_112\n        /* \"#utility.yul\":552:557   */\n      dup2\n        /* \"#utility.yul\":525:558   */\n      tag_113\n      jump\t// in\n    tag_112:\n        /* \"#utility.yul\":425:564   */\n      swap3\n      swap2\n      pop\n      pop\n      jump\t// out\n        /* \"#utility.yul\":584:924   */\n    tag_114:\n        /* \"#utility.yul\":640:645   */\n      0x00\n        /* \"#utility.yul\":689:692   */\n      dup3\n        /* \"#utility.yul\":682:686   */\n      0x1f\n        /* \"#utility.yul\":674:680   */\n      dup4\n        /* \"#utility.yul\":670:687   */\n      add\n        /* \"#utility.yul\":666:693   */\n      slt\n        /* \"#utility.yul\":656:778   */\n      tag_116\n      jumpi\n        /* \"#utility.yul\":697:776   */\n      tag_117\n      tag_118\n      jump\t// in\n    tag_117:\n        /* \"#utility.yul\":656:778   */\n    tag_116:\n        /* \"#utility.yul\":814:820   */\n      dup2\n        /* \"#utility.yul\":801:821   */\n      calldataload\n        /* \"#utility.yul\":839:918   */\n      tag_119\n        /* \"#utility.yul\":914:917   */\n      dup5\n        /* \"#utility.yul\":906:912   */\n      dup3\n        /* \"#utility.yul\":899:903   */\n      0x20\n        /* \"#utility.yul\":891:897   */\n      dup7\n        /* \"#utility.yul\":887:904   */\n      add\n        /* \"#utility.yul\":839:918   */\n      tag_99\n      jump\t// in\n    tag_119:\n        /* \"#utility.yul\":830:918   */\n      swap2\n      pop\n        /* \"#utility.yul\":646:924   */\n      pop\n        /* \"#utility.yul\":584:924   */\n      swap3\n      swap2\n      pop\n      pop\n      jump\t// out\n        /* \"#utility.yul\":930:1069   */\n    tag_120:\n        /* \"#utility.yul\":976:981   */\n      0x00\n        /* \"#utility.yul\":1014:1020   */\n      dup2\n        /* \"#utility.yul\":1001:1021   */\n      calldataload\n        /* \"#utility.yul\":992:1021   */\n      swap1\n      pop\n        /* \"#utility.yul\":1030:1063   */\n      tag_122\n        /* \"#utility.yul\":1057:1062   */\n      dup2\n        /* \"#utility.yul\":1030:1063   */\n      tag_123\n      jump\t// in\n    tag_122:\n        /* \"#utility.yul\":930:1069   */\n      swap3\n      swap2\n      pop\n      pop\n      jump\t// out\n        /* \"#utility.yul\":1075:1694   */\n    tag_15:\n        /* \"#utility.yul\":1152:1158   */\n      0x00\n        /* \"#utility.yul\":1160:1166   */\n      dup1\n        /* \"#utility.yul\":1168:1174   */\n      0x00\n        /* \"#utility.yul\":1217:1219   */\n      0x60\n        /* \"#utility.yul\":1205:1214   */\n      dup5\n        /* \"#utility.yul\":1196:1203   */\n      dup7\n        /* \"#utility.yul\":1192:1215   */\n      sub\n        /* \"#utility.yul\":1188:1220   */\n      slt\n        /* \"#utility.yul\":1185:1304   */\n      iszero\n      tag_125\n      jumpi\n        /* \"#utility.yul\":1223:1302   */\n      tag_126\n      tag_127\n      jump\t// in\n    tag_126:\n        /* \"#utility.yul\":1185:1304   */\n    tag_125:\n        /* \"#utility.yul\":1343:1344   */\n      0x00\n        /* \"#utility.yul\":1368:1421   */\n      tag_128\n        /* \"#utility.yul\":1413:1420   */\n      dup7\n        /* \"#utility.yul\":1404:1410   */\n      dup3\n        /* \"#utility.yul\":1393:1402   */\n      dup8\n        /* \"#utility.yul\":1389:1411   */\n      add\n        /* \"#utility.yul\":1368:1421   */\n      tag_110\n      jump\t// in\n    tag_128:\n        /* \"#utility.yul\":1358:1421   */\n      swap4\n      pop\n        /* \"#utility.yul\":1314:1431   */\n      pop\n        /* \"#utility.yul\":1470:1472   */\n      0x20\n        /* \"#utility.yul\":1496:1549   */\n      tag_129\n        /* \"#utility.yul\":1541:1548   */\n      dup7\n        /* \"#utility.yul\":1532:1538   */\n      dup3\n        /* \"#utility.yul\":1521:1530   */\n      dup8\n        /* \"#utility.yul\":1517:1539   */\n      add\n        /* \"#utility.yul\":1496:1549   */\n      tag_110\n      jump\t// in\n    tag_129:\n        /* \"#utility.yul\":1486:1549   */\n      swap3\n      pop\n        /* \"#utility.yul\":1441:1559   */\n      pop\n        /* \"#utility.yul\":1598:1600   */\n      0x40\n        /* \"#utility.yul\":1624:1677   */\n      tag_130\n        /* \"#utility.yul\":1669:1676   */\n      dup7\n        /* \"#utility.yul\":1660:1666   */\n      dup3\n        /* \"#utility.yul\":1649:1658   */\n      dup8\n        /* \"#utility.yul\":1645:1667   */\n      add\n        /* \"#utility.yul\":1624:1677   */\n      tag_120\n      jump\t// in\n    tag_130:\n        /* \"#utility.yul\":1614:1677   */\n      swap2\n      pop\n        /* \"#utility.yul\":1569:1687   */\n      pop\n        /* \"#utility.yul\":1075:1694   */\n      swap3\n      pop\n      swap3\n      pop\n      swap3\n      jump\t// out\n        /* \"#utility.yul\":1700:2209   */\n    tag_32:\n        /* \"#utility.yul\":1769:1775   */\n      0x00\n        /* \"#utility.yul\":1818:1820   */\n      0x20\n        /* \"#utility.yul\":1806:1815   */\n      dup3\n        /* \"#utility.yul\":1797:1804   */\n      dup5\n        /* \"#utility.yul\":1793:1816   */\n      sub\n        /* \"#utility.yul\":1789:1821   */\n      slt\n        /* \"#utility.yul\":1786:1905   */\n      iszero\n      tag_132\n      jumpi\n        /* \"#utility.yul\":1824:1903   */\n      tag_133\n      tag_127\n      jump\t// in\n    tag_133:\n        /* \"#utility.yul\":1786:1905   */\n    tag_132:\n        /* \"#utility.yul\":1972:1973   */\n      0x00\n        /* \"#utility.yul\":1961:1970   */\n      dup3\n        /* \"#utility.yul\":1957:1974   */\n      add\n        /* \"#utility.yul\":1944:1975   */\n      calldataload\n        /* \"#utility.yul\":2002:2020   */\n      0xffffffffffffffff\n        /* \"#utility.yul\":1994:2000   */\n      dup2\n        /* \"#utility.yul\":1991:2021   */\n      gt\n        /* \"#utility.yul\":1988:2105   */\n      iszero\n      tag_134\n      jumpi\n        /* \"#utility.yul\":2024:2103   */\n      tag_135\n      tag_136\n      jump\t// in\n    tag_135:\n        /* \"#utility.yul\":1988:2105   */\n    tag_134:\n        /* \"#utility.yul\":2129:2192   */\n      tag_137\n        /* \"#utility.yul\":2184:2191   */\n      dup5\n        /* \"#utility.yul\":2175:2181   */\n      dup3\n        /* \"#utility.yul\":2164:2173   */\n      dup6\n        /* \"#utility.yul\":2160:2182   */\n      add\n        /* \"#utility.yul\":2129:2192   */\n      tag_114\n      jump\t// in\n    tag_137:\n        /* \"#utility.yul\":2119:2192   */\n      swap2\n      pop\n        /* \"#utility.yul\":1915:2202   */\n      pop\n        /* \"#utility.yul\":1700:2209   */\n      swap3\n      swap2\n      pop\n      pop\n      jump\t// out\n        /* \"#utility.yul\":2215:2544   */\n    tag_19:\n        /* \"#utility.yul\":2274:2280   */\n      0x00\n        /* \"#utility.yul\":2323:2325   */\n      0x20\n        /* \"#utility.yul\":2311:2320   */\n      dup3\n        /* \"#utility.yul\":2302:2309   */\n      dup5\n        /* \"#utility.yul\":2298:2321   */\n      sub\n        /* \"#utility.yul\":2294:2326   */\n      slt\n        /* \"#utility.yul\":2291:2410   */\n      iszero\n      tag_139\n      jumpi\n        /* \"#utility.yul\":2329:2408   */\n      tag_140\n      tag_127\n      jump\t// in\n    tag_140:\n        /* \"#utility.yul\":2291:2410   */\n    tag_139:\n        /* \"#utility.yul\":2449:2450   */\n      0x00\n        /* \"#utility.yul\":2474:2527   */\n      tag_141\n        /* \"#utility.yul\":2519:2526   */\n      dup5\n        /* \"#utility.yul\":2510:2516   */\n      dup3\n        /* \"#utility.yul\":2499:2508   */\n      dup6\n        /* \"#utility.yul\":2495:2517   */\n      add\n        /* \"#utility.yul\":2474:2527   */\n      tag_120\n      jump\t// in\n    tag_141:\n        /* \"#utility.yul\":2464:2527   */\n      swap2\n      pop\n        /* \"#utility.yul\":2420:2537   */\n      pop\n        /* \"#utility.yul\":2215:2544   */\n      swap3\n      swap2\n      pop\n      pop\n      jump\t// out\n        /* \"#utility.yul\":2550:2668   */\n    tag_142:\n        /* \"#utility.yul\":2637:2661   */\n      tag_144\n        /* \"#utility.yul\":2655:2660   */\n      dup2\n        /* \"#utility.yul\":2637:2661   */\n      tag_145\n      jump\t// in\n    tag_144:\n        /* \"#utility.yul\":2632:2635   */\n      dup3\n        /* \"#utility.yul\":2625:2662   */\n      mstore\n        /* \"#utility.yul\":2550:2668   */\n      pop\n      pop\n      jump\t// out\n        /* \"#utility.yul\":2674:3038   */\n    tag_146:\n        /* \"#utility.yul\":2762:2765   */\n      0x00\n        /* \"#utility.yul\":2790:2829   */\n      tag_148\n        /* \"#utility.yul\":2823:2828   */\n      dup3\n        /* \"#utility.yul\":2790:2829   */\n      tag_149\n      jump\t// in\n    tag_148:\n        /* \"#utility.yul\":2845:2916   */\n      tag_150\n        /* \"#utility.yul\":2909:2915   */\n      dup2\n        /* \"#utility.yul\":2904:2907   */\n      dup6\n        /* \"#utility.yul\":2845:2916   */\n      tag_151\n      jump\t// in\n    tag_150:\n        /* \"#utility.yul\":2838:2916   */\n      swap4\n      pop\n        /* \"#utility.yul\":2925:2977   */\n      tag_152\n        /* \"#utility.yul\":2970:2976   */\n      dup2\n        /* \"#utility.yul\":2965:2968   */\n      dup6\n        /* \"#utility.yul\":2958:2962   */\n      0x20\n        /* \"#utility.yul\":2951:2956   */\n      dup7\n        /* \"#utility.yul\":2947:2963   */\n      add\n        /* \"#utility.yul\":2925:2977   */\n      tag_153\n      jump\t// in\n    tag_152:\n        /* \"#utility.yul\":3002:3031   */\n      tag_154\n        /* \"#utility.yul\":3024:3030   */\n      dup2\n        /* \"#utility.yul\":3002:3031   */\n      tag_155\n      jump\t// in\n    tag_154:\n        /* \"#utility.yul\":2997:3000   */\n      dup5\n        /* \"#utility.yul\":2993:3032   */\n      add\n        /* \"#utility.yul\":2986:3032   */\n      swap2\n      pop\n        /* \"#utility.yul\":2766:3038   */\n      pop\n        /* \"#utility.yul\":2674:3038   */\n      swap3\n      swap2\n      pop\n      pop\n      jump\t// out\n        /* \"#utility.yul\":3044:3410   */\n    tag_156:\n        /* \"#utility.yul\":3186:3189   */\n      0x00\n        /* \"#utility.yul\":3207:3274   */\n      tag_158\n        /* \"#utility.yul\":3271:3273   */\n      0x24\n        /* \"#utility.yul\":3266:3269   */\n      dup4\n        /* \"#utility.yul\":3207:3274   */\n      tag_151\n      jump\t// in\n    tag_158:\n        /* \"#utility.yul\":3200:3274   */\n      swap2\n      pop\n        /* \"#utility.yul\":3283:3376   */\n      tag_159\n        /* \"#utility.yul\":3372:3375   */\n      dup3\n        /* \"#utility.yul\":3283:3376   */\n      tag_160\n      jump\t// in\n    tag_159:\n        /* \"#utility.yul\":3401:3403   */\n      0x40\n        /* \"#utility.yul\":3396:3399   */\n      dup3\n        /* \"#utility.yul\":3392:3404   */\n      add\n        /* \"#utility.yul\":3385:3404   */\n      swap1\n      pop\n        /* \"#utility.yul\":3044:3410   */\n      swap2\n      swap1\n      pop\n      jump\t// out\n        /* \"#utility.yul\":3416:3782   */\n    tag_161:\n        /* \"#utility.yul\":3558:3561   */\n      0x00\n        /* \"#utility.yul\":3579:3646   */\n      tag_163\n        /* \"#utility.yul\":3643:3645   */\n      0x13\n        /* \"#utility.yul\":3638:3641   */\n      dup4\n        /* \"#utility.yul\":3579:3646   */\n      tag_151\n      jump\t// in\n    tag_163:\n        /* \"#utility.yul\":3572:3646   */\n      swap2\n      pop\n        /* \"#utility.yul\":3655:3748   */\n      tag_164\n        /* \"#utility.yul\":3744:3747   */\n      dup3\n        /* \"#utility.yul\":3655:3748   */\n      tag_165\n      jump\t// in\n    tag_164:\n        /* \"#utility.yul\":3773:3775   */\n      0x20\n        /* \"#utility.yul\":3768:3771   */\n      dup3\n        /* \"#utility.yul\":3764:3776   */\n      add\n        /* \"#utility.yul\":3757:3776   */\n      swap1\n      pop\n        /* \"#utility.yul\":3416:3782   */\n      swap2\n      swap1\n      pop\n      jump\t// out\n        /* \"#utility.yul\":3788:4154   */\n    tag_166:\n        /* \"#utility.yul\":3930:3933   */\n      0x00\n        /* \"#utility.yul\":3951:4018   */\n      tag_168\n        /* \"#utility.yul\":4015:4017   */\n      0x13\n        /* \"#utility.yul\":4010:4013   */\n      dup4\n        /* \"#utility.yul\":3951:4018   */\n      tag_151\n      jump\t// in\n    tag_168:\n        /* \"#utility.yul\":3944:4018   */\n      swap2\n      pop\n        /* \"#utility.yul\":4027:4120   */\n      tag_169\n        /* \"#utility.yul\":4116:4119   */\n      dup3\n        /* \"#utility.yul\":4027:4120   */\n      tag_170\n      jump\t// in\n    tag_169:\n        /* \"#utility.yul\":4145:4147   */\n      0x20\n        /* \"#utility.yul\":4140:4143   */\n      dup3\n        /* \"#utility.yul\":4136:4148   */\n      add\n        /* \"#utility.yul\":4129:4148   */\n      swap1\n      pop\n        /* \"#utility.yul\":3788:4154   */\n      swap2\n      swap1\n      pop\n      jump\t// out\n        /* \"#utility.yul\":4160:4526   */\n    tag_171:\n        /* \"#utility.yul\":4302:4305   */\n      0x00\n        /* \"#utility.yul\":4323:4390   */\n      tag_173\n        /* \"#utility.yul\":4387:4389   */\n      0x17\n        /* \"#utility.yul\":4382:4385   */\n      dup4\n        /* \"#utility.yul\":4323:4390   */\n      tag_151\n      jump\t// in\n    tag_173:\n        /* \"#utility.yul\":4316:4390   */\n      swap2\n      pop\n        /* \"#utility.yul\":4399:4492   */\n      tag_174\n        /* \"#utility.yul\":4488:4491   */\n      dup3\n        /* \"#utility.yul\":4399:4492   */\n      tag_175\n      jump\t// in\n    tag_174:\n        /* \"#utility.yul\":4517:4519   */\n      0x20\n        /* \"#utility.yul\":4512:4515   */\n      dup3\n        /* \"#utility.yul\":4508:4520   */\n      add\n        /* \"#utility.yul\":4501:4520   */\n      swap1\n      pop\n        /* \"#utility.yul\":4160:4526   */\n      swap2\n      swap1\n      pop\n      jump\t// out\n        /* \"#utility.yul\":4532:4898   */\n    tag_176:\n        /* \"#utility.yul\":4674:4677   */\n      0x00\n        /* \"#utility.yul\":4695:4762   */\n      tag_178\n        /* \"#utility.yul\":4759:4761   */\n      0x18\n        /* \"#utility.yul\":4754:4757   */\n      dup4\n        /* \"#utility.yul\":4695:4762   */\n      tag_151\n      jump\t// in\n    tag_178:\n        /* \"#utility.yul\":4688:4762   */\n      swap2\n      pop\n        /* \"#utility.yul\":4771:4864   */\n      tag_179\n        /* \"#utility.yul\":4860:4863   */\n      dup3\n        /* \"#utility.yul\":4771:4864   */\n      tag_180\n      jump\t// in\n    tag_179:\n        /* \"#utility.yul\":4889:4891   */\n      0x20\n        /* \"#utility.yul\":4884:4887   */\n      dup3\n        /* \"#utility.yul\":4880:4892   */\n      add\n        /* \"#utility.yul\":4873:4892   */\n      swap1\n      pop\n        /* \"#utility.yul\":4532:4898   */\n      swap2\n      swap1\n      pop\n      jump\t// out\n        /* \"#utility.yul\":4904:5270   */\n    tag_181:\n        /* \"#utility.yul\":5046:5049   */\n      0x00\n        /* \"#utility.yul\":5067:5134   */\n      tag_183\n        /* \"#utility.yul\":5131:5133   */\n      0x18\n        /* \"#utility.yul\":5126:5129   */\n      dup4\n        /* \"#utility.yul\":5067:5134   */\n      tag_151\n      jump\t// in\n    tag_183:\n        /* \"#utility.yul\":5060:5134   */\n      swap2\n      pop\n        /* \"#utility.yul\":5143:5236   */\n      tag_184\n        /* \"#utility.yul\":5232:5235   */\n      dup3\n        /* \"#utility.yul\":5143:5236   */\n      tag_185\n      jump\t// in\n    tag_184:\n        /* \"#utility.yul\":5261:5263   */\n      0x20\n        /* \"#utility.yul\":5256:5259   */\n      dup3\n        /* \"#utility.yul\":5252:5264   */\n      add\n        /* \"#utility.yul\":5245:5264   */\n      swap1\n      pop\n        /* \"#utility.yul\":4904:5270   */\n      swap2\n      swap1\n      pop\n      jump\t// out\n        /* \"#utility.yul\":5276:5498   */\n    tag_22:\n        /* \"#utility.yul\":5369:5373   */\n      0x00\n        /* \"#utility.yul\":5407:5409   */\n      0x20\n        /* \"#utility.yul\":5396:5405   */\n      dup3\n        /* \"#utility.yul\":5392:5410   */\n      add\n        /* \"#utility.yul\":5384:5410   */\n      swap1\n      pop\n        /* \"#utility.yul\":5420:5491   */\n      tag_187\n        /* \"#utility.yul\":5488:5489   */\n      0x00\n        /* \"#utility.yul\":5477:5486   */\n      dup4\n        /* \"#utility.yul\":5473:5490   */\n      add\n        /* \"#utility.yul\":5464:5470   */\n      dup5\n        /* \"#utility.yul\":5420:5491   */\n      tag_142\n      jump\t// in\n    tag_187:\n        /* \"#utility.yul\":5276:5498   */\n      swap3\n      swap2\n      pop\n      pop\n      jump\t// out\n        /* \"#utility.yul\":5504:5817   */\n    tag_12:\n        /* \"#utility.yul\":5617:5621   */\n      0x00\n        /* \"#utility.yul\":5655:5657   */\n      0x20\n        /* \"#utility.yul\":5644:5653   */\n      dup3\n        /* \"#utility.yul\":5640:5658   */\n      add\n        /* \"#utility.yul\":5632:5658   */\n      swap1\n      pop\n        /* \"#utility.yul\":5704:5713   */\n      dup2\n        /* \"#utility.yul\":5698:5702   */\n      dup2\n        /* \"#utility.yul\":5694:5714   */\n      sub\n        /* \"#utility.yul\":5690:5691   */\n      0x00\n        /* \"#utility.yul\":5679:5688   */\n      dup4\n        /* \"#utility.yul\":5675:5692   */\n      add\n        /* \"#utility.yul\":5668:5715   */\n      mstore\n        /* \"#utility.yul\":5732:5810   */\n      tag_189\n        /* \"#utility.yul\":5805:5809   */\n      dup2\n        /* \"#utility.yul\":5796:5802   */\n      dup5\n        /* \"#utility.yul\":5732:5810   */\n      tag_146\n      jump\t// in\n    tag_189:\n        /* \"#utility.yul\":5724:5810   */\n      swap1\n      pop\n        /* \"#utility.yul\":5504:5817   */\n      swap3\n      swap2\n      pop\n      pop\n      jump\t// out\n        /* \"#utility.yul\":5823:6242   */\n    tag_47:\n        /* \"#utility.yul\":5989:5993   */\n      0x00\n        /* \"#utility.yul\":6027:6029   */\n      0x20\n        /* \"#utility.yul\":6016:6025   */\n      dup3\n        /* \"#utility.yul\":6012:6030   */\n      add\n        /* \"#utility.yul\":6004:6030   */\n      swap1\n      pop\n        /* \"#utility.yul\":6076:6085   */\n      dup2\n        /* \"#utility.yul\":6070:6074   */\n      dup2\n        /* \"#utility.yul\":6066:6086   */\n      sub\n        /* \"#utility.yul\":6062:6063   */\n      0x00\n        /* \"#utility.yul\":6051:6060   */\n      dup4\n        /* \"#utility.yul\":6047:6064   */\n      add\n        /* \"#utility.yul\":6040:6087   */\n      mstore\n        /* \"#utility.yul\":6104:6235   */\n      tag_191\n        /* \"#utility.yul\":6230:6234   */\n      dup2\n        /* \"#utility.yul\":6104:6235   */\n      tag_156\n      jump\t// in\n    tag_191:\n        /* \"#utility.yul\":6096:6235   */\n      swap1\n      pop\n        /* \"#utility.yul\":5823:6242   */\n      swap2\n      swap1\n      pop\n      jump\t// out\n        /* \"#utility.yul\":6248:6667   */\n    tag_78:\n        /* \"#utility.yul\":6414:6418   */\n      0x00\n        /* \"#utility.yul\":6452:6454   */\n      0x20\n        /* \"#utility.yul\":6441:6450   */\n      dup3\n        /* \"#utility.yul\":6437:6455   */\n      add\n        /* \"#utility.yul\":6429:6455   */\n      swap1\n      pop\n        /* \"#utility.yul\":6501:6510   */\n      dup2\n        /* \"#utility.yul\":6495:6499   */\n      dup2\n        /* \"#utility.yul\":6491:6511   */\n      sub\n        /* \"#utility.yul\":6487:6488   */\n      0x00\n        /* \"#utility.yul\":6476:6485   */\n      dup4\n        /* \"#utility.yul\":6472:6489   */\n      add\n        /* \"#utility.yul\":6465:6512   */\n      mstore\n        /* \"#utility.yul\":6529:6660   */\n      tag_193\n        /* \"#utility.yul\":6655:6659   */\n      dup2\n        /* \"#utility.yul\":6529:6660   */\n      tag_161\n      jump\t// in\n    tag_193:\n        /* \"#utility.yul\":6521:6660   */\n      swap1\n      pop\n        /* \"#utility.yul\":6248:6667   */\n      swap2\n      swap1\n      pop\n      jump\t// out\n        /* \"#utility.yul\":6673:7092   */\n    tag_85:\n        /* \"#utility.yul\":6839:6843   */\n      0x00\n        /* \"#utility.yul\":6877:6879   */\n      0x20\n        /* \"#utility.yul\":6866:6875   */\n      dup3\n        /* \"#utility.yul\":6862:6880   */\n      add\n        /* \"#utility.yul\":6854:6880   */\n      swap1\n      pop\n        /* \"#utility.yul\":6926:6935   */\n      dup2\n        /* \"#utility.yul\":6920:6924   */\n      dup2\n        /* \"#utility.yul\":6916:6936   */\n      sub\n        /* \"#utility.yul\":6912:6913   */\n      0x00\n        /* \"#utility.yul\":6901:6910   */\n      dup4\n        /* \"#utility.yul\":6897:6914   */\n      add\n        /* \"#utility.yul\":6890:6937   */\n      mstore\n        /* \"#utility.yul\":6954:7085   */\n      tag_195\n        /* \"#utility.yul\":7080:7084   */\n      dup2\n        /* \"#utility.yul\":6954:7085   */\n      tag_166\n      jump\t// in\n    tag_195:\n        /* \"#utility.yul\":6946:7085   */\n      swap1\n      pop\n        /* \"#utility.yul\":6673:7092   */\n      swap2\n      swap1\n      pop\n      jump\t// out\n        /* \"#utility.yul\":7098:7517   */\n    tag_44:\n        /* \"#utility.yul\":7264:7268   */\n      0x00\n        /* \"#utility.yul\":7302:7304   */\n      0x20\n        /* \"#utility.yul\":7291:7300   */\n      dup3\n        /* \"#utility.yul\":7287:7305   */\n      add\n        /* \"#utility.yul\":7279:7305   */\n      swap1\n      pop\n        /* \"#utility.yul\":7351:7360   */\n      dup2\n        /* \"#utility.yul\":7345:7349   */\n      dup2\n        /* \"#utility.yul\":7341:7361   */\n      sub\n        /* \"#utility.yul\":7337:7338   */\n      0x00\n        /* \"#utility.yul\":7326:7335   */\n      dup4\n        /* \"#utility.yul\":7322:7339   */\n      add\n        /* \"#utility.yul\":7315:7362   */\n      mstore\n        /* \"#utility.yul\":7379:7510   */\n      tag_197\n        /* \"#utility.yul\":7505:7509   */\n      dup2\n        /* \"#utility.yul\":7379:7510   */\n      tag_171\n      jump\t// in\n    tag_197:\n        /* \"#utility.yul\":7371:7510   */\n      swap1\n      pop\n        /* \"#utility.yul\":7098:7517   */\n      swap2\n      swap1\n      pop\n      jump\t// out\n        /* \"#utility.yul\":7523:7942   */\n    tag_51:\n        /* \"#utility.yul\":7689:7693   */\n      0x00\n        /* \"#utility.yul\":7727:7729   */\n      0x20\n        /* \"#utility.yul\":7716:7725   */\n      dup3\n        /* \"#utility.yul\":7712:7730   */\n      add\n        /* \"#utility.yul\":7704:7730   */\n      swap1\n      pop\n        /* \"#utility.yul\":7776:7785   */\n      dup2\n        /* \"#utility.yul\":7770:7774   */\n      dup2\n        /* \"#utility.yul\":7766:7786   */\n      sub\n        /* \"#utility.yul\":7762:7763   */\n      0x00\n        /* \"#utility.yul\":7751:7760   */\n      dup4\n        /* \"#utility.yul\":7747:7764   */\n      add\n        /* \"#utility.yul\":7740:7787   */\n      mstore\n        /* \"#utility.yul\":7804:7935   */\n      tag_199\n        /* \"#utility.yul\":7930:7934   */\n      dup2\n        /* \"#utility.yul\":7804:7935   */\n      tag_176\n      jump\t// in\n    tag_199:\n        /* \"#utility.yul\":7796:7935   */\n      swap1\n      pop\n        /* \"#utility.yul\":7523:7942   */\n      swap2\n      swap1\n      pop\n      jump\t// out\n        /* \"#utility.yul\":7948:8367   */\n    tag_81:\n        /* \"#utility.yul\":8114:8118   */\n      0x00\n        /* \"#utility.yul\":8152:8154   */\n      0x20\n        /* \"#utility.yul\":8141:8150   */\n      dup3\n        /* \"#utility.yul\":8137:8155   */\n      add\n        /* \"#utility.yul\":8129:8155   */\n      swap1\n      pop\n        /* \"#utility.yul\":8201:8210   */\n      dup2\n        /* \"#utility.yul\":8195:8199   */\n      dup2\n        /* \"#utility.yul\":8191:8211   */\n      sub\n        /* \"#utility.yul\":8187:8188   */\n      0x00\n        /* \"#utility.yul\":8176:8185   */\n      dup4\n        /* \"#utility.yul\":8172:8189   */\n      add\n        /* \"#utility.yul\":8165:8212   */\n      mstore\n        /* \"#utility.yul\":8229:8360   */\n      tag_201\n        /* \"#utility.yul\":8355:8359   */\n      dup2\n        /* \"#utility.yul\":8229:8360   */\n      tag_181\n      jump\t// in\n    tag_201:\n        /* \"#utility.yul\":8221:8360   */\n      swap1\n      pop\n        /* \"#utility.yul\":7948:8367   */\n      swap2\n      swap1\n      pop\n      jump\t// out\n        /* \"#utility.yul\":8373:8502   */\n    tag_104:\n        /* \"#utility.yul\":8407:8413   */\n      0x00\n        /* \"#utility.yul\":8434:8454   */\n      tag_203\n      tag_204\n      jump\t// in\n    tag_203:\n        /* \"#utility.yul\":8424:8454   */\n      swap1\n      pop\n        /* \"#utility.yul\":8463:8496   */\n      tag_205\n        /* \"#utility.yul\":8491:8495   */\n      dup3\n        /* \"#utility.yul\":8483:8489   */\n      dup3\n        /* \"#utility.yul\":8463:8496   */\n      tag_206\n      jump\t// in\n    tag_205:\n        /* \"#utility.yul\":8373:8502   */\n      swap2\n      swap1\n      pop\n      jump\t// out\n        /* \"#utility.yul\":8508:8583   */\n    tag_204:\n        /* \"#utility.yul\":8541:8547   */\n      0x00\n        /* \"#utility.yul\":8574:8576   */\n      0x40\n        /* \"#utility.yul\":8568:8577   */\n      mload\n        /* \"#utility.yul\":8558:8577   */\n      swap1\n      pop\n        /* \"#utility.yul\":8508:8583   */\n      swap1\n      jump\t// out\n        /* \"#utility.yul\":8589:8897   */\n    tag_103:\n        /* \"#utility.yul\":8651:8655   */\n      0x00\n        /* \"#utility.yul\":8741:8759   */\n      0xffffffffffffffff\n        /* \"#utility.yul\":8733:8739   */\n      dup3\n        /* \"#utility.yul\":8730:8760   */\n      gt\n        /* \"#utility.yul\":8727:8783   */\n      iszero\n      tag_209\n      jumpi\n        /* \"#utility.yul\":8763:8781   */\n      tag_210\n      tag_211\n      jump\t// in\n    tag_210:\n        /* \"#utility.yul\":8727:8783   */\n    tag_209:\n        /* \"#utility.yul\":8801:8830   */\n      tag_212\n        /* \"#utility.yul\":8823:8829   */\n      dup3\n        /* \"#utility.yul\":8801:8830   */\n      tag_155\n      jump\t// in\n    tag_212:\n        /* \"#utility.yul\":8793:8830   */\n      swap1\n      pop\n        /* \"#utility.yul\":8885:8889   */\n      0x20\n        /* \"#utility.yul\":8879:8883   */\n      dup2\n        /* \"#utility.yul\":8875:8890   */\n      add\n        /* \"#utility.yul\":8867:8890   */\n      swap1\n      pop\n        /* \"#utility.yul\":8589:8897   */\n      swap2\n      swap1\n      pop\n      jump\t// out\n        /* \"#utility.yul\":8903:9002   */\n    tag_149:\n        /* \"#utility.yul\":8955:8961   */\n      0x00\n        /* \"#utility.yul\":8989:8994   */\n      dup2\n        /* \"#utility.yul\":8983:8995   */\n      mload\n        /* \"#utility.yul\":8973:8995   */\n      swap1\n      pop\n        /* \"#utility.yul\":8903:9002   */\n      swap2\n      swap1\n      pop\n      jump\t// out\n        /* \"#utility.yul\":9008:9177   */\n    tag_151:\n        /* \"#utility.yul\":9092:9103   */\n      0x00\n        /* \"#utility.yul\":9126:9132   */\n      dup3\n        /* \"#utility.yul\":9121:9124   */\n      dup3\n        /* \"#utility.yul\":9114:9133   */\n      mstore\n        /* \"#utility.yul\":9166:9170   */\n      0x20\n        /* \"#utility.yul\":9161:9164   */\n      dup3\n        /* \"#utility.yul\":9157:9171   */\n      add\n        /* \"#utility.yul\":9142:9171   */\n      swap1\n      pop\n        /* \"#utility.yul\":9008:9177   */\n      swap3\n      swap2\n      pop\n      pop\n      jump\t// out\n        /* \"#utility.yul\":9183:9279   */\n    tag_145:\n        /* \"#utility.yul\":9220:9227   */\n      0x00\n        /* \"#utility.yul\":9249:9273   */\n      tag_216\n        /* \"#utility.yul\":9267:9272   */\n      dup3\n        /* \"#utility.yul\":9249:9273   */\n      tag_217\n      jump\t// in\n    tag_216:\n        /* \"#utility.yul\":9238:9273   */\n      swap1\n      pop\n        /* \"#utility.yul\":9183:9279   */\n      swap2\n      swap1\n      pop\n      jump\t// out\n        /* \"#utility.yul\":9285:9411   */\n    tag_217:\n        /* \"#utility.yul\":9322:9329   */\n      0x00\n        /* \"#utility.yul\":9362:9404   */\n      0xffffffffffffffffffffffffffffffffffffffff\n        /* \"#utility.yul\":9355:9360   */\n      dup3\n        /* \"#utility.yul\":9351:9405   */\n      and\n        /* \"#utility.yul\":9340:9405   */\n      swap1\n      pop\n        /* \"#utility.yul\":9285:9411   */\n      swap2\n      swap1\n      pop\n      jump\t// out\n        /* \"#utility.yul\":9417:9494   */\n    tag_219:\n        /* \"#utility.yul\":9454:9461   */\n      0x00\n        /* \"#utility.yul\":9483:9488   */\n      dup2\n        /* \"#utility.yul\":9472:9488   */\n      swap1\n      pop\n        /* \"#utility.yul\":9417:9494   */\n      swap2\n      swap1\n      pop\n      jump\t// out\n        /* \"#utility.yul\":9500:9654   */\n    tag_109:\n        /* \"#utility.yul\":9584:9590   */\n      dup3\n        /* \"#utility.yul\":9579:9582   */\n      dup2\n        /* \"#utility.yul\":9574:9577   */\n      dup4\n        /* \"#utility.yul\":9561:9591   */\n      calldatacopy\n        /* \"#utility.yul\":9646:9647   */\n      0x00\n        /* \"#utility.yul\":9637:9643   */\n      dup4\n        /* \"#utility.yul\":9632:9635   */\n      dup4\n        /* \"#utility.yul\":9628:9644   */\n      add\n        /* \"#utility.yul\":9621:9648   */\n      mstore\n        /* \"#utility.yul\":9500:9654   */\n      pop\n      pop\n      pop\n      jump\t// out\n        /* \"#utility.yul\":9660:9967   */\n    tag_153:\n        /* \"#utility.yul\":9728:9729   */\n      0x00\n        /* \"#utility.yul\":9738:9851   */\n    tag_223:\n        /* \"#utility.yul\":9752:9758   */\n      dup4\n        /* \"#utility.yul\":9749:9750   */\n      dup2\n        /* \"#utility.yul\":9746:9759   */\n      lt\n        /* \"#utility.yul\":9738:9851   */\n      iszero\n      tag_225\n      jumpi\n        /* \"#utility.yul\":9837:9838   */\n      dup1\n        /* \"#utility.yul\":9832:9835   */\n      dup3\n        /* \"#utility.yul\":9828:9839   */\n      add\n        /* \"#utility.yul\":9822:9840   */\n      mload\n        /* \"#utility.yul\":9818:9819   */\n      dup2\n        /* \"#utility.yul\":9813:9816   */\n      dup5\n        /* \"#utility.yul\":9809:9820   */\n      add\n        /* \"#utility.yul\":9802:9841   */\n      mstore\n        /* \"#utility.yul\":9774:9776   */\n      0x20\n        /* \"#utility.yul\":9771:9772   */\n      dup2\n        /* \"#utility.yul\":9767:9777   */\n      add\n        /* \"#utility.yul\":9762:9777   */\n      swap1\n      pop\n        /* \"#utility.yul\":9738:9851   */\n      jump(tag_223)\n    tag_225:\n        /* \"#utility.yul\":9869:9875   */\n      dup4\n        /* \"#utility.yul\":9866:9867   */\n      dup2\n        /* \"#utility.yul\":9863:9876   */\n      gt\n        /* \"#utility.yul\":9860:9961   */\n      iszero\n      tag_226\n      jumpi\n        /* \"#utility.yul\":9949:9950   */\n      0x00\n        /* \"#utility.yul\":9940:9946   */\n      dup5\n        /* \"#utility.yul\":9935:9938   */\n      dup5\n        /* \"#utility.yul\":9931:9947   */\n      add\n        /* \"#utility.yul\":9924:9951   */\n      mstore\n        /* \"#utility.yul\":9860:9961   */\n    tag_226:\n        /* \"#utility.yul\":9709:9967   */\n      pop\n        /* \"#utility.yul\":9660:9967   */\n      pop\n      pop\n      pop\n      jump\t// out\n        /* \"#utility.yul\":9973:10293   */\n    tag_36:\n        /* \"#utility.yul\":10017:10023   */\n      0x00\n        /* \"#utility.yul\":10054:10055   */\n      0x02\n        /* \"#utility.yul\":10048:10052   */\n      dup3\n        /* \"#utility.yul\":10044:10056   */\n      div\n        /* \"#utility.yul\":10034:10056   */\n      swap1\n      pop\n        /* \"#utility.yul\":10101:10102   */\n      0x01\n        /* \"#utility.yul\":10095:10099   */\n      dup3\n        /* \"#utility.yul\":10091:10103   */\n      and\n        /* \"#utility.yul\":10122:10140   */\n      dup1\n        /* \"#utility.yul\":10112:10193   */\n      tag_228\n      jumpi\n        /* \"#utility.yul\":10178:10182   */\n      0x7f\n        /* \"#utility.yul\":10170:10176   */\n      dup3\n        /* \"#utility.yul\":10166:10183   */\n      and\n        /* \"#utility.yul\":10156:10183   */\n      swap2\n      pop\n        /* \"#utility.yul\":10112:10193   */\n    tag_228:\n        /* \"#utility.yul\":10240:10242   */\n      0x20\n        /* \"#utility.yul\":10232:10238   */\n      dup3\n        /* \"#utility.yul\":10229:10243   */\n      lt\n        /* \"#utility.yul\":10209:10227   */\n      dup2\n        /* \"#utility.yul\":10206:10244   */\n      eq\n        /* \"#utility.yul\":10203:10287   */\n      iszero\n      tag_229\n      jumpi\n        /* \"#utility.yul\":10259:10277   */\n      tag_230\n      tag_231\n      jump\t// in\n    tag_230:\n        /* \"#utility.yul\":10203:10287   */\n    tag_229:\n        /* \"#utility.yul\":10024:10293   */\n      pop\n        /* \"#utility.yul\":9973:10293   */\n      swap2\n      swap1\n      pop\n      jump\t// out\n        /* \"#utility.yul\":10299:10580   */\n    tag_206:\n        /* \"#utility.yul\":10382:10409   */\n      tag_233\n        /* \"#utility.yul\":10404:10408   */\n      dup3\n        /* \"#utility.yul\":10382:10409   */\n      tag_155\n      jump\t// in\n    tag_233:\n        /* \"#utility.yul\":10374:10380   */\n      dup2\n        /* \"#utility.yul\":10370:10410   */\n      add\n        /* \"#utility.yul\":10512:10518   */\n      dup2\n        /* \"#utility.yul\":10500:10510   */\n      dup2\n        /* \"#utility.yul\":10497:10519   */\n      lt\n        /* \"#utility.yul\":10476:10494   */\n      0xffffffffffffffff\n        /* \"#utility.yul\":10464:10474   */\n      dup3\n        /* \"#utility.yul\":10461:10495   */\n      gt\n        /* \"#utility.yul\":10458:10520   */\n      or\n        /* \"#utility.yul\":10455:10543   */\n      iszero\n      tag_234\n      jumpi\n        /* \"#utility.yul\":10523:10541   */\n      tag_235\n      tag_211\n      jump\t// in\n    tag_235:\n        /* \"#utility.yul\":10455:10543   */\n    tag_234:\n        /* \"#utility.yul\":10563:10573   */\n      dup1\n        /* \"#utility.yul\":10559:10561   */\n      0x40\n        /* \"#utility.yul\":10552:10574   */\n      mstore\n        /* \"#utility.yul\":10342:10580   */\n      pop\n        /* \"#utility.yul\":10299:10580   */\n      pop\n      pop\n      jump\t// out\n        /* \"#utility.yul\":10586:10766   */\n    tag_231:\n        /* \"#utility.yul\":10634:10711   */\n      0x4e487b7100000000000000000000000000000000000000000000000000000000\n        /* \"#utility.yul\":10631:10632   */\n      0x00\n        /* \"#utility.yul\":10624:10712   */\n      mstore\n        /* \"#utility.yul\":10731:10735   */\n      0x22\n        /* \"#utility.yul\":10728:10729   */\n      0x04\n        /* \"#utility.yul\":10721:10736   */\n      mstore\n        /* \"#utility.yul\":10755:10759   */\n      0x24\n        /* \"#utility.yul\":10752:10753   */\n      0x00\n        /* \"#utility.yul\":10745:10760   */\n      revert\n        /* \"#utility.yul\":10772:10952   */\n    tag_211:\n        /* \"#utility.yul\":10820:10897   */\n      0x4e487b7100000000000000000000000000000000000000000000000000000000\n        /* \"#utility.yul\":10817:10818   */\n      0x00\n        /* \"#utility.yul\":10810:10898   */\n      mstore\n        /* \"#utility.yul\":10917:10921   */\n      0x41\n        /* \"#utility.yul\":10914:10915   */\n      0x04\n        /* \"#utility.yul\":10907:10922   */\n      mstore\n        /* \"#utility.yul\":10941:10945   */\n      0x24\n        /* \"#utility.yul\":10938:10939   */\n      0x00\n        /* \"#utility.yul\":10931:10946   */\n      revert\n        /* \"#utility.yul\":10958:11075   */\n    tag_118:\n        /* \"#utility.yul\":11067:11068   */\n      0x00\n        /* \"#utility.yul\":11064:11065   */\n      dup1\n        /* \"#utility.yul\":11057:11069   */\n      revert\n        /* \"#utility.yul\":11081:11198   */\n    tag_107:\n        /* \"#utility.yul\":11190:11191   */\n      0x00\n        /* \"#utility.yul\":11187:11188   */\n      dup1\n        /* \"#utility.yul\":11180:11192   */\n      revert\n        /* \"#utility.yul\":11204:11321   */\n    tag_136:\n        /* \"#utility.yul\":11313:11314   */\n      0x00\n        /* \"#utility.yul\":11310:11311   */\n      dup1\n        /* \"#utility.yul\":11303:11315   */\n      revert\n        /* \"#utility.yul\":11327:11444   */\n    tag_127:\n        /* \"#utility.yul\":11436:11437   */\n      0x00\n        /* \"#utility.yul\":11433:11434   */\n      dup1\n        /* \"#utility.yul\":11426:11438   */\n      revert\n        /* \"#utility.yul\":11450:11552   */\n    tag_155:\n        /* \"#utility.yul\":11491:11497   */\n      0x00\n        /* \"#utility.yul\":11542:11544   */\n      0x1f\n        /* \"#utility.yul\":11538:11545   */\n      not\n        /* \"#utility.yul\":11533:11535   */\n      0x1f\n        /* \"#utility.yul\":11526:11531   */\n      dup4\n        /* \"#utility.yul\":11522:11536   */\n      add\n        /* \"#utility.yul\":11518:11546   */\n      and\n        /* \"#utility.yul\":11508:11546   */\n      swap1\n      pop\n        /* \"#utility.yul\":11450:11552   */\n      swap2\n      swap1\n      pop\n      jump\t// out\n        /* \"#utility.yul\":11558:11781   */\n    tag_160:\n        /* \"#utility.yul\":11698:11732   */\n      0x4552433732313a207472616e7366657220746f20746865207a65726f20616464\n        /* \"#utility.yul\":11694:11695   */\n      0x00\n        /* \"#utility.yul\":11686:11692   */\n      dup3\n        /* \"#utility.yul\":11682:11696   */\n      add\n        /* \"#utility.yul\":11675:11733   */\n      mstore\n        /* \"#utility.yul\":11767:11773   */\n      0x7265737300000000000000000000000000000000000000000000000000000000\n        /* \"#utility.yul\":11762:11764   */\n      0x20\n        /* \"#utility.yul\":11754:11760   */\n      dup3\n        /* \"#utility.yul\":11750:11765   */\n      add\n        /* \"#utility.yul\":11743:11774   */\n      mstore\n        /* \"#utility.yul\":11558:11781   */\n      pop\n      jump\t// out\n        /* \"#utility.yul\":11787:11956   */\n    tag_165:\n        /* \"#utility.yul\":11927:11948   */\n      0x746f6b656e20616c726561647920657869737400000000000000000000000000\n        /* \"#utility.yul\":11923:11924   */\n      0x00\n        /* \"#utility.yul\":11915:11921   */\n      dup3\n        /* \"#utility.yul\":11911:11925   */\n      add\n        /* \"#utility.yul\":11904:11949   */\n      mstore\n        /* \"#utility.yul\":11787:11956   */\n      pop\n      jump\t// out\n        /* \"#utility.yul\":11962:12131   */\n    tag_170:\n        /* \"#utility.yul\":12102:12123   */\n      0x746f6b656e20646f65736e277420657869737400000000000000000000000000\n        /* \"#utility.yul\":12098:12099   */\n      0x00\n        /* \"#utility.yul\":12090:12096   */\n      dup3\n        /* \"#utility.yul\":12086:12100   */\n      add\n        /* \"#utility.yul\":12079:12124   */\n      mstore\n        /* \"#utility.yul\":11962:12131   */\n      pop\n      jump\t// out\n        /* \"#utility.yul\":12137:12310   */\n    tag_175:\n        /* \"#utility.yul\":12277:12302   */\n      0x4e6f742063616c6c656420627920746865206f776e6572000000000000000000\n        /* \"#utility.yul\":12273:12274   */\n      0x00\n        /* \"#utility.yul\":12265:12271   */\n      dup3\n        /* \"#utility.yul\":12261:12275   */\n      add\n        /* \"#utility.yul\":12254:12303   */\n      mstore\n        /* \"#utility.yul\":12137:12310   */\n      pop\n      jump\t// out\n        /* \"#utility.yul\":12316:12490   */\n    tag_180:\n        /* \"#utility.yul\":12456:12482   */\n      0x4552433732313a20696e76616c696420746f6b656e2049440000000000000000\n        /* \"#utility.yul\":12452:12453   */\n      0x00\n        /* \"#utility.yul\":12444:12450   */\n      dup3\n        /* \"#utility.yul\":12440:12454   */\n      add\n        /* \"#utility.yul\":12433:12483   */\n      mstore\n        /* \"#utility.yul\":12316:12490   */\n      pop\n      jump\t// out\n        /* \"#utility.yul\":12496:12670   */\n    tag_185:\n        /* \"#utility.yul\":12636:12662   */\n      0x6d696e7420746f20746865207a65726f20616464726573730000000000000000\n        /* \"#utility.yul\":12632:12633   */\n      0x00\n        /* \"#utility.yul\":12624:12630   */\n      dup3\n        /* \"#utility.yul\":12620:12634   */\n      add\n        /* \"#utility.yul\":12613:12663   */\n      mstore\n        /* \"#utility.yul\":12496:12670   */\n      pop\n      jump\t// out\n        /* \"#utility.yul\":12676:12798   */\n    tag_113:\n        /* \"#utility.yul\":12749:12773   */\n      tag_250\n        /* \"#utility.yul\":12767:12772   */\n      dup2\n        /* \"#utility.yul\":12749:12773   */\n      tag_145\n      jump\t// in\n    tag_250:\n        /* \"#utility.yul\":12742:12747   */\n      dup2\n        /* \"#utility.yul\":12739:12774   */\n      eq\n        /* \"#utility.yul\":12729:12792   */\n      tag_251\n      jumpi\n        /* \"#utility.yul\":12788:12789   */\n      0x00\n        /* \"#utility.yul\":12785:12786   */\n      dup1\n        /* \"#utility.yul\":12778:12790   */\n      revert\n        /* \"#utility.yul\":12729:12792   */\n    tag_251:\n        /* \"#utility.yul\":12676:12798   */\n      pop\n      jump\t// out\n        /* \"#utility.yul\":12804:12926   */\n    tag_123:\n        /* \"#utility.yul\":12877:12901   */\n      tag_253\n        /* \"#utility.yul\":12895:12900   */\n      dup2\n        /* \"#utility.yul\":12877:12901   */\n      tag_219\n      jump\t// in\n    tag_253:\n        /* \"#utility.yul\":12870:12875   */\n      dup2\n        /* \"#utility.yul\":12867:12902   */\n      eq\n        /* \"#utility.yul\":12857:12920   */\n      tag_254\n      jumpi\n        /* \"#utility.yul\":12916:12917   */\n      0x00\n        /* \"#utility.yul\":12913:12914   */\n      dup1\n        /* \"#utility.yul\":12906:12918   */\n      revert\n        /* \"#utility.yul\":12857:12920   */\n    tag_254:\n        /* \"#utility.yul\":12804:12926   */\n      pop\n      jump\t// out\n\n    auxdata: 0xa2646970667358221220b11183319dd4acf21e7efe5d2e9bed0f2d16d6879ab83356e05b7ca28606632c64736f6c63430008070033\n}\n",
				"bytecode": {
					"linkReferences": {},
					"object": "60806040523480156200001157600080fd5b5060405162001609380380620016098339818101604052810190620000379190620001f8565b82600360006101000a81548173ffffffffffffffffffffffffffffffffffffffff021916908373ffffffffffffffffffffffffffffffffffffffff160217905550816000908051906020019062000090929190620000b3565b508060019080519060200190620000a9929190620000b3565b5050505062000464565b828054620000c1906200035b565b90600052602060002090601f016020900481019282620000e5576000855562000131565b82601f106200010057805160ff191683800117855562000131565b8280016001018555821562000131579182015b828111156200013057825182559160200191906001019062000113565b5b50905062000140919062000144565b5090565b5b808211156200015f57600081600090555060010162000145565b5090565b60006200017a6200017484620002bb565b62000292565b9050828152602081018484840111156200019957620001986200042a565b5b620001a684828562000325565b509392505050565b600081519050620001bf816200044a565b92915050565b600082601f830112620001dd57620001dc62000425565b5b8151620001ef84826020860162000163565b91505092915050565b60008060006060848603121562000214576200021362000434565b5b60006200022486828701620001ae565b935050602084015167ffffffffffffffff8111156200024857620002476200042f565b5b6200025686828701620001c5565b925050604084015167ffffffffffffffff8111156200027a57620002796200042f565b5b6200028886828701620001c5565b9150509250925092565b60006200029e620002b1565b9050620002ac828262000391565b919050565b6000604051905090565b600067ffffffffffffffff821115620002d957620002d8620003f6565b5b620002e48262000439565b9050602081019050919050565b6000620002fe8262000305565b9050919050565b600073ffffffffffffffffffffffffffffffffffffffff82169050919050565b60005b838110156200034557808201518184015260208101905062000328565b8381111562000355576000848401525b50505050565b600060028204905060018216806200037457607f821691505b602082108114156200038b576200038a620003c7565b5b50919050565b6200039c8262000439565b810181811067ffffffffffffffff82111715620003be57620003bd620003f6565b5b80604052505050565b7f4e487b7100000000000000000000000000000000000000000000000000000000600052602260045260246000fd5b7f4e487b7100000000000000000000000000000000000000000000000000000000600052604160045260246000fd5b600080fd5b600080fd5b600080fd5b600080fd5b6000601f19601f8301169050919050565b6200045581620002f1565b81146200046157600080fd5b50565b61119580620004746000396000f3fe608060405234801561001057600080fd5b50600436106100625760003560e01c806306fdde031461006757806323b872dd146100855780636352211e146100a157806395d89b41146100d1578063bf59b347146100ef578063d85d3d271461011f575b600080fd5b61006f61013b565b60405161007c9190610d5d565b60405180910390f35b61009f600480360381019061009a9190610b5f565b6101cd565b005b6100bb60048036038101906100b69190610bfb565b61042f565b6040516100c89190610d42565b60405180910390f35b6100d96104e1565b6040516100e69190610d5d565b60405180910390f35b61010960048036038101906101049190610bfb565b610573565b6040516101169190610d5d565b60405180910390f35b61013960048036038101906101349190610bb2565b610613565b005b60606000805461014a90610f2f565b80601f016020809104026020016040519081016040528092919081815260200182805461017690610f2f565b80156101c35780601f10610198576101008083540402835291602001916101c3565b820191906000526020600020905b8154815290600101906020018083116101a657829003601f168201915b5050505050905090565b8273ffffffffffffffffffffffffffffffffffffffff166005600083815260200190815260200160002060009054906101000a900473ffffffffffffffffffffffffffffffffffffffff1673ffffffffffffffffffffffffffffffffffffffff161461026e576040517f08c379a000000000000000000000000000000000000000000000000000000000815260040161026590610ddf565b60405180910390fd5b600073ffffffffffffffffffffffffffffffffffffffff168273ffffffffffffffffffffffffffffffffffffffff1614156102de576040517f08c379a00000000000000000000000000000000000000000000000000000000081526004016102d590610d7f565b60405180910390fd5b600460008473ffffffffffffffffffffffffffffffffffffffff1673ffffffffffffffffffffffffffffffffffffffff1681526020019081526020016000206000815480929190600190039190505550600460008373ffffffffffffffffffffffffffffffffffffffff1673ffffffffffffffffffffffffffffffffffffffff16815260200190815260200160002060008154809291906001019190505550816005600083815260200190815260200160002060006101000a81548173ffffffffffffffffffffffffffffffffffffffff021916908373ffffffffffffffffffffffffffffffffffffffff160217905550808273ffffffffffffffffffffffffffffffffffffffff168473ffffffffffffffffffffffffffffffffffffffff167fddf252ad1be2c89b69c2b068fc378daa952ba7f163c4a11628f55a4df523b3ef60405160405180910390a4505050565b6000806005600084815260200190815260200160002060009054906101000a900473ffffffffffffffffffffffffffffffffffffffff169050600073ffffffffffffffffffffffffffffffffffffffff168173ffffffffffffffffffffffffffffffffffffffff1614156104d8576040517f08c379a00000000000000000000000000000000000000000000000000000000081526004016104cf90610dff565b60405180910390fd5b80915050919050565b6060600180546104f090610f2f565b80601f016020809104026020016040519081016040528092919081815260200182805461051c90610f2f565b80156105695780601f1061053e57610100808354040283529160200191610569565b820191906000526020600020905b81548152906001019060200180831161054c57829003601f168201915b5050505050905090565b6008602052806000526040600020600091509050805461059290610f2f565b80601f01602080910402602001604051908101604052809291908181526020018280546105be90610f2f565b801561060b5780601f106105e05761010080835404028352916020019161060b565b820191906000526020600020905b8154815290600101906020018083116105ee57829003601f168201915b505050505081565b61061d600261067b565b60006106296002610691565b9050610635338261069f565b61063f8183610953565b807f769eff512f395b679667e0062a0e31dad5d22dbc7e6b87f16c3de7e85e6634603360405161066f9190610d42565b60405180910390a25050565b6001816000016000828254019250508190555050565b600081600001549050919050565b600073ffffffffffffffffffffffffffffffffffffffff166007600083815260200190815260200160002060009054906101000a900473ffffffffffffffffffffffffffffffffffffffff1673ffffffffffffffffffffffffffffffffffffffff1614610741576040517f08c379a000000000000000000000000000000000000000000000000000000000815260040161073890610d9f565b60405180910390fd5b600073ffffffffffffffffffffffffffffffffffffffff168273ffffffffffffffffffffffffffffffffffffffff1614156107b1576040517f08c379a00000000000000000000000000000000000000000000000000000000081526004016107a890610e1f565b60405180910390fd5b600460008373ffffffffffffffffffffffffffffffffffffffff1673ffffffffffffffffffffffffffffffffffffffff16815260200190815260200160002060008154809291906001019190505550600660008373ffffffffffffffffffffffffffffffffffffffff1673ffffffffffffffffffffffffffffffffffffffff16815260200190815260200160002060008154809291906001019190505550816005600083815260200190815260200160002060006101000a81548173ffffffffffffffffffffffffffffffffffffffff021916908373ffffffffffffffffffffffffffffffffffffffff160217905550816007600083815260200190815260200160002060006101000a81548173ffffffffffffffffffffffffffffffffffffffff021916908373ffffffffffffffffffffffffffffffffffffffff160217905550808273ffffffffffffffffffffffffffffffffffffffff16600073ffffffffffffffffffffffffffffffffffffffff167fddf252ad1be2c89b69c2b068fc378daa952ba7f163c4a11628f55a4df523b3ef60405160405180910390a45050565b600073ffffffffffffffffffffffffffffffffffffffff166007600084815260200190815260200160002060009054906101000a900473ffffffffffffffffffffffffffffffffffffffff1673ffffffffffffffffffffffffffffffffffffffff1614156109f6576040517f08c379a00000000000000000000000000000000000000000000000000000000081526004016109ed90610dbf565b60405180910390fd5b80600860008481526020019081526020016000209080519060200190610a1d929190610a22565b505050565b828054610a2e90610f2f565b90600052602060002090601f016020900481019282610a505760008555610a97565b82601f10610a6957805160ff1916838001178555610a97565b82800160010185558215610a97579182015b82811115610a96578251825591602001919060010190610a7b565b5b509050610aa49190610aa8565b5090565b5b80821115610ac1576000816000905550600101610aa9565b5090565b6000610ad8610ad384610e64565b610e3f565b905082815260208101848484011115610af457610af3610ff5565b5b610aff848285610eed565b509392505050565b600081359050610b1681611131565b92915050565b600082601f830112610b3157610b30610ff0565b5b8135610b41848260208601610ac5565b91505092915050565b600081359050610b5981611148565b92915050565b600080600060608486031215610b7857610b77610fff565b5b6000610b8686828701610b07565b9350506020610b9786828701610b07565b9250506040610ba886828701610b4a565b9150509250925092565b600060208284031215610bc857610bc7610fff565b5b600082013567ffffffffffffffff811115610be657610be5610ffa565b5b610bf284828501610b1c565b91505092915050565b600060208284031215610c1157610c10610fff565b5b6000610c1f84828501610b4a565b91505092915050565b610c3181610eb1565b82525050565b6000610c4282610e95565b610c4c8185610ea0565b9350610c5c818560208601610efc565b610c6581611004565b840191505092915050565b6000610c7d602483610ea0565b9150610c8882611015565b604082019050919050565b6000610ca0601383610ea0565b9150610cab82611064565b602082019050919050565b6000610cc3601383610ea0565b9150610cce8261108d565b602082019050919050565b6000610ce6601783610ea0565b9150610cf1826110b6565b602082019050919050565b6000610d09601883610ea0565b9150610d14826110df565b602082019050919050565b6000610d2c601883610ea0565b9150610d3782611108565b602082019050919050565b6000602082019050610d576000830184610c28565b92915050565b60006020820190508181036000830152610d778184610c37565b905092915050565b60006020820190508181036000830152610d9881610c70565b9050919050565b60006020820190508181036000830152610db881610c93565b9050919050565b60006020820190508181036000830152610dd881610cb6565b9050919050565b60006020820190508181036000830152610df881610cd9565b9050919050565b60006020820190508181036000830152610e1881610cfc565b9050919050565b60006020820190508181036000830152610e3881610d1f565b9050919050565b6000610e49610e5a565b9050610e558282610f61565b919050565b6000604051905090565b600067ffffffffffffffff821115610e7f57610e7e610fc1565b5b610e8882611004565b9050602081019050919050565b600081519050919050565b600082825260208201905092915050565b6000610ebc82610ec3565b9050919050565b600073ffffffffffffffffffffffffffffffffffffffff82169050919050565b6000819050919050565b82818337600083830152505050565b60005b83811015610f1a578082015181840152602081019050610eff565b83811115610f29576000848401525b50505050565b60006002820490506001821680610f4757607f821691505b60208210811415610f5b57610f5a610f92565b5b50919050565b610f6a82611004565b810181811067ffffffffffffffff82111715610f8957610f88610fc1565b5b80604052505050565b7f4e487b7100000000000000000000000000000000000000000000000000000000600052602260045260246000fd5b7f4e487b7100000000000000000000000000000000000000000000000000000000600052604160045260246000fd5b600080fd5b600080fd5b600080fd5b600080fd5b6000601f19601f8301169050919050565b7f4552433732313a207472616e7366657220746f20746865207a65726f2061646460008201527f7265737300000000000000000000000000000000000000000000000000000000602082015250565b7f746f6b656e20616c726561647920657869737400000000000000000000000000600082015250565b7f746f6b656e20646f65736e277420657869737400000000000000000000000000600082015250565b7f4e6f742063616c6c656420627920746865206f776e6572000000000000000000600082015250565b7f4552433732313a20696e76616c696420746f6b656e2049440000000000000000600082015250565b7f6d696e7420746f20746865207a65726f20616464726573730000000000000000600082015250565b61113a81610eb1565b811461114557600080fd5b50565b61115181610ee3565b811461115c57600080fd5b5056fea2646970667358221220b11183319dd4acf21e7efe5d2e9bed0f2d16d6879ab83356e05b7ca28606632c64736f6c63430008070033",
					"opcodes": "PUSH1 0x80 PUSH1 0x40 MSTORE CALLVALUE DUP1 ISZERO PUSH3 0x11 JUMPI PUSH1 0x0 DUP1 REVERT JUMPDEST POP PUSH1 0x40 MLOAD PUSH3 0x1609 CODESIZE SUB DUP1 PUSH3 0x1609 DUP4 CODECOPY DUP2 DUP2 ADD PUSH1 0x40 MSTORE DUP2 ADD SWAP1 PUSH3 0x37 SWAP2 SWAP1 PUSH3 0x1F8 JUMP JUMPDEST DUP3 PUSH1 0x3 PUSH1 0x0 PUSH2 0x100 EXP DUP2 SLOAD DUP2 PUSH20 0xFFFFFFFFFFFFFFFFFFFFFFFFFFFFFFFFFFFFFFFF MUL NOT AND SWAP1 DUP4 PUSH20 0xFFFFFFFFFFFFFFFFFFFFFFFFFFFFFFFFFFFFFFFF AND MUL OR SWAP1 SSTORE POP DUP2 PUSH1 0x0 SWAP1 DUP1 MLOAD SWAP1 PUSH1 0x20 ADD SWAP1 PUSH3 0x90 SWAP3 SWAP2 SWAP1 PUSH3 0xB3 JUMP JUMPDEST POP DUP1 PUSH1 0x1 SWAP1 DUP1 MLOAD SWAP1 PUSH1 0x20 ADD SWAP1 PUSH3 0xA9 SWAP3 SWAP2 SWAP1 PUSH3 0xB3 JUMP JUMPDEST POP POP POP POP PUSH3 0x464 JUMP JUMPDEST DUP3 DUP1 SLOAD PUSH3 0xC1 SWAP1 PUSH3 0x35B JUMP JUMPDEST SWAP1 PUSH1 0x0 MSTORE PUSH1 0x20 PUSH1 0x0 KECCAK256 SWAP1 PUSH1 0x1F ADD PUSH1 0x20 SWAP1 DIV DUP2 ADD SWAP3 DUP3 PUSH3 0xE5 JUMPI PUSH1 0x0 DUP6 SSTORE PUSH3 0x131 JUMP JUMPDEST DUP3 PUSH1 0x1F LT PUSH3 0x100 JUMPI DUP1 MLOAD PUSH1 0xFF NOT AND DUP4 DUP1 ADD OR DUP6 SSTORE PUSH3 0x131 JUMP JUMPDEST DUP3 DUP1 ADD PUSH1 0x1 ADD DUP6 SSTORE DUP3 ISZERO PUSH3 0x131 JUMPI SWAP2 DUP3 ADD JUMPDEST DUP3 DUP2 GT ISZERO PUSH3 0x130 JUMPI DUP3 MLOAD DUP3 SSTORE SWAP2 PUSH1 0x20 ADD SWAP2 SWAP1 PUSH1 0x1 ADD SWAP1 PUSH3 0x113 JUMP JUMPDEST JUMPDEST POP SWAP1 POP PUSH3 0x140 SWAP2 SWAP1 PUSH3 0x144 JUMP JUMPDEST POP SWAP1 JUMP JUMPDEST JUMPDEST DUP1 DUP3 GT ISZERO PUSH3 0x15F JUMPI PUSH1 0x0 DUP2 PUSH1 0x0 SWAP1 SSTORE POP PUSH1 0x1 ADD PUSH3 0x145 JUMP JUMPDEST POP SWAP1 JUMP JUMPDEST PUSH1 0x0 PUSH3 0x17A PUSH3 0x174 DUP5 PUSH3 0x2BB JUMP JUMPDEST PUSH3 0x292 JUMP JUMPDEST SWAP1 POP DUP3 DUP2 MSTORE PUSH1 0x20 DUP2 ADD DUP5 DUP5 DUP5 ADD GT ISZERO PUSH3 0x199 JUMPI PUSH3 0x198 PUSH3 0x42A JUMP JUMPDEST JUMPDEST PUSH3 0x1A6 DUP5 DUP3 DUP6 PUSH3 0x325 JUMP JUMPDEST POP SWAP4 SWAP3 POP POP POP JUMP JUMPDEST PUSH1 0x0 DUP2 MLOAD SWAP1 POP PUSH3 0x1BF DUP2 PUSH3 0x44A JUMP JUMPDEST SWAP3 SWAP2 POP POP JUMP JUMPDEST PUSH1 0x0 DUP3 PUSH1 0x1F DUP4 ADD SLT PUSH3 0x1DD JUMPI PUSH3 0x1DC PUSH3 0x425 JUMP JUMPDEST JUMPDEST DUP2 MLOAD PUSH3 0x1EF DUP5 DUP3 PUSH1 0x20 DUP7 ADD PUSH3 0x163 JUMP JUMPDEST SWAP2 POP POP SWAP3 SWAP2 POP POP JUMP JUMPDEST PUSH1 0x0 DUP1 PUSH1 0x0 PUSH1 0x60 DUP5 DUP7 SUB SLT ISZERO PUSH3 0x214 JUMPI PUSH3 0x213 PUSH3 0x434 JUMP JUMPDEST JUMPDEST PUSH1 0x0 PUSH3 0x224 DUP7 DUP3 DUP8 ADD PUSH3 0x1AE JUMP JUMPDEST SWAP4 POP POP PUSH1 0x20 DUP5 ADD MLOAD PUSH8 0xFFFFFFFFFFFFFFFF DUP2 GT ISZERO PUSH3 0x248 JUMPI PUSH3 0x247 PUSH3 0x42F JUMP JUMPDEST JUMPDEST PUSH3 0x256 DUP7 DUP3 DUP8 ADD PUSH3 0x1C5 JUMP JUMPDEST SWAP3 POP POP PUSH1 0x40 DUP5 ADD MLOAD PUSH8 0xFFFFFFFFFFFFFFFF DUP2 GT ISZERO PUSH3 0x27A JUMPI PUSH3 0x279 PUSH3 0x42F JUMP JUMPDEST JUMPDEST PUSH3 0x288 DUP7 DUP3 DUP8 ADD PUSH3 0x1C5 JUMP JUMPDEST SWAP2 POP POP SWAP3 POP SWAP3 POP SWAP3 JUMP JUMPDEST PUSH1 0x0 PUSH3 0x29E PUSH3 0x2B1 JUMP JUMPDEST SWAP1 POP PUSH3 0x2AC DUP3 DUP3 PUSH3 0x391 JUMP JUMPDEST SWAP2 SWAP1 POP JUMP JUMPDEST PUSH1 0x0 PUSH1 0x40 MLOAD SWAP1 POP SWAP1 JUMP JUMPDEST PUSH1 0x0 PUSH8 0xFFFFFFFFFFFFFFFF DUP3 GT ISZERO PUSH3 0x2D9 JUMPI PUSH3 0x2D8 PUSH3 0x3F6 JUMP JUMPDEST JUMPDEST PUSH3 0x2E4 DUP3 PUSH3 0x439 JUMP JUMPDEST SWAP1 POP PUSH1 0x20 DUP2 ADD SWAP1 POP SWAP2 SWAP1 POP JUMP JUMPDEST PUSH1 0x0 PUSH3 0x2FE DUP3 PUSH3 0x305 JUMP JUMPDEST SWAP1 POP SWAP2 SWAP1 POP JUMP JUMPDEST PUSH1 0x0 PUSH20 0xFFFFFFFFFFFFFFFFFFFFFFFFFFFFFFFFFFFFFFFF DUP3 AND SWAP1 POP SWAP2 SWAP1 POP JUMP JUMPDEST PUSH1 0x0 JUMPDEST DUP4 DUP2 LT ISZERO PUSH3 0x345 JUMPI DUP1 DUP3 ADD MLOAD DUP2 DUP5 ADD MSTORE PUSH1 0x20 DUP2 ADD SWAP1 POP PUSH3 0x328 JUMP JUMPDEST DUP4 DUP2 GT ISZERO PUSH3 0x355 JUMPI PUSH1 0x0 DUP5 DUP5 ADD MSTORE JUMPDEST POP POP POP POP JUMP JUMPDEST PUSH1 0x0 PUSH1 0x2 DUP3 DIV SWAP1 POP PUSH1 0x1 DUP3 AND DUP1 PUSH3 0x374 JUMPI PUSH1 0x7F DUP3 AND SWAP2 POP JUMPDEST PUSH1 0x20 DUP3 LT DUP2 EQ ISZERO PUSH3 0x38B JUMPI PUSH3 0x38A PUSH3 0x3C7 JUMP JUMPDEST JUMPDEST POP SWAP2 SWAP1 POP JUMP JUMPDEST PUSH3 0x39C DUP3 PUSH3 0x439 JUMP JUMPDEST DUP2 ADD DUP2 DUP2 LT PUSH8 0xFFFFFFFFFFFFFFFF DUP3 GT OR ISZERO PUSH3 0x3BE JUMPI PUSH3 0x3BD PUSH3 0x3F6 JUMP JUMPDEST JUMPDEST DUP1 PUSH1 0x40 MSTORE POP POP POP JUMP JUMPDEST PUSH32 0x4E487B7100000000000000000000000000000000000000000000000000000000 PUSH1 0x0 MSTORE PUSH1 0x22 PUSH1 0x4 MSTORE PUSH1 0x24 PUSH1 0x0 REVERT JUMPDEST PUSH32 0x4E487B7100000000000000000000000000000000000000000000000000000000 PUSH1 0x0 MSTORE PUSH1 0x41 PUSH1 0x4 MSTORE PUSH1 0x24 PUSH1 0x0 REVERT JUMPDEST PUSH1 0x0 DUP1 REVERT JUMPDEST PUSH1 0x0 DUP1 REVERT JUMPDEST PUSH1 0x0 DUP1 REVERT JUMPDEST PUSH1 0x0 DUP1 REVERT JUMPDEST PUSH1 0x0 PUSH1 0x1F NOT PUSH1 0x1F DUP4 ADD AND SWAP1 POP SWAP2 SWAP1 POP JUMP JUMPDEST PUSH3 0x455 DUP2 PUSH3 0x2F1 JUMP JUMPDEST DUP2 EQ PUSH3 0x461 JUMPI PUSH1 0x0 DUP1 REVERT JUMPDEST POP JUMP JUMPDEST PUSH2 0x1195 DUP1 PUSH3 0x474 PUSH1 0x0 CODECOPY PUSH1 0x0 RETURN INVALID PUSH1 0x80 PUSH1 0x40 MSTORE CALLVALUE DUP1 ISZERO PUSH2 0x10 JUMPI PUSH1 0x0 DUP1 REVERT JUMPDEST POP PUSH1 0x4 CALLDATASIZE LT PUSH2 0x62 JUMPI PUSH1 0x0 CALLDATALOAD PUSH1 0xE0 SHR DUP1 PUSH4 0x6FDDE03 EQ PUSH2 0x67 JUMPI DUP1 PUSH4 0x23B872DD EQ PUSH2 0x85 JUMPI DUP1 PUSH4 0x6352211E EQ PUSH2 0xA1 JUMPI DUP1 PUSH4 0x95D89B41 EQ PUSH2 0xD1 JUMPI DUP1 PUSH4 0xBF59B347 EQ PUSH2 0xEF JUMPI DUP1 PUSH4 0xD85D3D27 EQ PUSH2 0x11F JUMPI JUMPDEST PUSH1 0x0 DUP1 REVERT JUMPDEST PUSH2 0x6F PUSH2 0x13B JUMP JUMPDEST PUSH1 0x40 MLOAD PUSH2 0x7C SWAP2 SWAP1 PUSH2 0xD5D JUMP JUMPDEST PUSH1 0x40 MLOAD DUP1 SWAP2 SUB SWAP1 RETURN JUMPDEST PUSH2 0x9F PUSH1 0x4 DUP1 CALLDATASIZE SUB DUP2 ADD SWAP1 PUSH2 0x9A SWAP2 SWAP1 PUSH2 0xB5F JUMP JUMPDEST PUSH2 0x1CD JUMP JUMPDEST STOP JUMPDEST PUSH2 0xBB PUSH1 0x4 DUP1 CALLDATASIZE SUB DUP2 ADD SWAP1 PUSH2 0xB6 SWAP2 SWAP1 PUSH2 0xBFB JUMP JUMPDEST PUSH2 0x42F JUMP JUMPDEST PUSH1 0x40 MLOAD PUSH2 0xC8 SWAP2 SWAP1 PUSH2 0xD42 JUMP JUMPDEST PUSH1 0x40 MLOAD DUP1 SWAP2 SUB SWAP1 RETURN JUMPDEST PUSH2 0xD9 PUSH2 0x4E1 JUMP JUMPDEST PUSH1 0x40 MLOAD PUSH2 0xE6 SWAP2 SWAP1 PUSH2 0xD5D JUMP JUMPDEST PUSH1 0x40 MLOAD DUP1 SWAP2 SUB SWAP1 RETURN JUMPDEST PUSH2 0x109 PUSH1 0x4 DUP1 CALLDATASIZE SUB DUP2 ADD SWAP1 PUSH2 0x104 SWAP2 SWAP1 PUSH2 0xBFB JUMP JUMPDEST PUSH2 0x573 JUMP JUMPDEST PUSH1 0x40 MLOAD PUSH2 0x116 SWAP2 SWAP1 PUSH2 0xD5D JUMP JUMPDEST PUSH1 0x40 MLOAD DUP1 SWAP2 SUB SWAP1 RETURN JUMPDEST PUSH2 0x139 PUSH1 0x4 DUP1 CALLDATASIZE SUB DUP2 ADD SWAP1 PUSH2 0x134 SWAP2 SWAP1 PUSH2 0xBB2 JUMP JUMPDEST PUSH2 0x613 JUMP JUMPDEST STOP JUMPDEST PUSH1 0x60 PUSH1 0x0 DUP1 SLOAD PUSH2 0x14A SWAP1 PUSH2 0xF2F JUMP JUMPDEST DUP1 PUSH1 0x1F ADD PUSH1 0x20 DUP1 SWAP2 DIV MUL PUSH1 0x20 ADD PUSH1 0x40 MLOAD SWAP1 DUP2 ADD PUSH1 0x40 MSTORE DUP1 SWAP3 SWAP2 SWAP1 DUP2 DUP2 MSTORE PUSH1 0x20 ADD DUP3 DUP1 SLOAD PUSH2 0x176 SWAP1 PUSH2 0xF2F JUMP JUMPDEST DUP1 ISZERO PUSH2 0x1C3 JUMPI DUP1 PUSH1 0x1F LT PUSH2 0x198 JUMPI PUSH2 0x100 DUP1 DUP4 SLOAD DIV MUL DUP4 MSTORE SWAP2 PUSH1 0x20 ADD SWAP2 PUSH2 0x1C3 JUMP JUMPDEST DUP3 ADD SWAP2 SWAP1 PUSH1 0x0 MSTORE PUSH1 0x20 PUSH1 0x0 KECCAK256 SWAP1 JUMPDEST DUP2 SLOAD DUP2 MSTORE SWAP1 PUSH1 0x1 ADD SWAP1 PUSH1 0x20 ADD DUP1 DUP4 GT PUSH2 0x1A6 JUMPI DUP3 SWAP1 SUB PUSH1 0x1F AND DUP3 ADD SWAP2 JUMPDEST POP POP POP POP POP SWAP1 POP SWAP1 JUMP JUMPDEST DUP3 PUSH20 0xFFFFFFFFFFFFFFFFFFFFFFFFFFFFFFFFFFFFFFFF AND PUSH1 0x5 PUSH1 0x0 DUP4 DUP2 MSTORE PUSH1 0x20 ADD SWAP1 DUP2 MSTORE PUSH1 0x20 ADD PUSH1 0x0 KECCAK256 PUSH1 0x0 SWAP1 SLOAD SWAP1 PUSH2 0x100 EXP SWAP1 DIV PUSH20 0xFFFFFFFFFFFFFFFFFFFFFFFFFFFFFFFFFFFFFFFF AND PUSH20 0xFFFFFFFFFFFFFFFFFFFFFFFFFFFFFFFFFFFFFFFF AND EQ PUSH2 0x26E JUMPI PUSH1 0x40 MLOAD PUSH32 0x8C379A000000000000000000000000000000000000000000000000000000000 DUP2 MSTORE PUSH1 0x4 ADD PUSH2 0x265 SWAP1 PUSH2 0xDDF JUMP JUMPDEST PUSH1 0x40 MLOAD DUP1 SWAP2 SUB SWAP1 REVERT JUMPDEST PUSH1 0x0 PUSH20 0xFFFFFFFFFFFFFFFFFFFFFFFFFFFFFFFFFFFFFFFF AND DUP3 PUSH20 0xFFFFFFFFFFFFFFFFFFFFFFFFFFFFFFFFFFFFFFFF AND EQ ISZERO PUSH2 0x2DE JUMPI PUSH1 0x40 MLOAD PUSH32 0x8C379A000000000000000000000000000000000000000000000000000000000 DUP2 MSTORE PUSH1 0x4 ADD PUSH2 0x2D5 SWAP1 PUSH2 0xD7F JUMP JUMPDEST PUSH1 0x40 MLOAD DUP1 SWAP2 SUB SWAP1 REVERT JUMPDEST PUSH1 0x4 PUSH1 0x0 DUP5 PUSH20 0xFFFFFFFFFFFFFFFFFFFFFFFFFFFFFFFFFFFFFFFF AND PUSH20 0xFFFFFFFFFFFFFFFFFFFFFFFFFFFFFFFFFFFFFFFF AND DUP2 MSTORE PUSH1 0x20 ADD SWAP1 DUP2 MSTORE PUSH1 0x20 ADD PUSH1 0x0 KECCAK256 PUSH1 0x0 DUP2 SLOAD DUP1 SWAP3 SWAP2 SWAP1 PUSH1 0x1 SWAP1 SUB SWAP2 SWAP1 POP SSTORE POP PUSH1 0x4 PUSH1 0x0 DUP4 PUSH20 0xFFFFFFFFFFFFFFFFFFFFFFFFFFFFFFFFFFFFFFFF AND PUSH20 0xFFFFFFFFFFFFFFFFFFFFFFFFFFFFFFFFFFFFFFFF AND DUP2 MSTORE PUSH1 0x20 ADD SWAP1 DUP2 MSTORE PUSH1 0x20 ADD PUSH1 0x0 KECCAK256 PUSH1 0x0 DUP2 SLOAD DUP1 SWAP3 SWAP2 SWAP1 PUSH1 0x1 ADD SWAP2 SWAP1 POP SSTORE POP DUP2 PUSH1 0x5 PUSH1 0x0 DUP4 DUP2 MSTORE PUSH1 0x20 ADD SWAP1 DUP2 MSTORE PUSH1 0x20 ADD PUSH1 0x0 KECCAK256 PUSH1 0x0 PUSH2 0x100 EXP DUP2 SLOAD DUP2 PUSH20 0xFFFFFFFFFFFFFFFFFFFFFFFFFFFFFFFFFFFFFFFF MUL NOT AND SWAP1 DUP4 PUSH20 0xFFFFFFFFFFFFFFFFFFFFFFFFFFFFFFFFFFFFFFFF AND MUL OR SWAP1 SSTORE POP DUP1 DUP3 PUSH20 0xFFFFFFFFFFFFFFFFFFFFFFFFFFFFFFFFFFFFFFFF AND DUP5 PUSH20 0xFFFFFFFFFFFFFFFFFFFFFFFFFFFFFFFFFFFFFFFF AND PUSH32 0xDDF252AD1BE2C89B69C2B068FC378DAA952BA7F163C4A11628F55A4DF523B3EF PUSH1 0x40 MLOAD PUSH1 0x40 MLOAD DUP1 SWAP2 SUB SWAP1 LOG4 POP POP POP JUMP JUMPDEST PUSH1 0x0 DUP1 PUSH1 0x5 PUSH1 0x0 DUP5 DUP2 MSTORE PUSH1 0x20 ADD SWAP1 DUP2 MSTORE PUSH1 0x20 ADD PUSH1 0x0 KECCAK256 PUSH1 0x0 SWAP1 SLOAD SWAP1 PUSH2 0x100 EXP SWAP1 DIV PUSH20 0xFFFFFFFFFFFFFFFFFFFFFFFFFFFFFFFFFFFFFFFF AND SWAP1 POP PUSH1 0x0 PUSH20 0xFFFFFFFFFFFFFFFFFFFFFFFFFFFFFFFFFFFFFFFF AND DUP2 PUSH20 0xFFFFFFFFFFFFFFFFFFFFFFFFFFFFFFFFFFFFFFFF AND EQ ISZERO PUSH2 0x4D8 JUMPI PUSH1 0x40 MLOAD PUSH32 0x8C379A000000000000000000000000000000000000000000000000000000000 DUP2 MSTORE PUSH1 0x4 ADD PUSH2 0x4CF SWAP1 PUSH2 0xDFF JUMP JUMPDEST PUSH1 0x40 MLOAD DUP1 SWAP2 SUB SWAP1 REVERT JUMPDEST DUP1 SWAP2 POP POP SWAP2 SWAP1 POP JUMP JUMPDEST PUSH1 0x60 PUSH1 0x1 DUP1 SLOAD PUSH2 0x4F0 SWAP1 PUSH2 0xF2F JUMP JUMPDEST DUP1 PUSH1 0x1F ADD PUSH1 0x20 DUP1 SWAP2 DIV MUL PUSH1 0x20 ADD PUSH1 0x40 MLOAD SWAP1 DUP2 ADD PUSH1 0x40 MSTORE DUP1 SWAP3 SWAP2 SWAP1 DUP2 DUP2 MSTORE PUSH1 0x20 ADD DUP3 DUP1 SLOAD PUSH2 0x51C SWAP1 PUSH2 0xF2F JUMP JUMPDEST DUP1 ISZERO PUSH2 0x569 JUMPI DUP1 PUSH1 0x1F LT PUSH2 0x53E JUMPI PUSH2 0x100 DUP1 DUP4 SLOAD DIV MUL DUP4 MSTORE SWAP2 PUSH1 0x20 ADD SWAP2 PUSH2 0x569 JUMP JUMPDEST DUP3 ADD SWAP2 SWAP1 PUSH1 0x0 MSTORE PUSH1 0x20 PUSH1 0x0 KECCAK256 SWAP1 JUMPDEST DUP2 SLOAD DUP2 MSTORE SWAP1 PUSH1 0x1 ADD SWAP1 PUSH1 0x20 ADD DUP1 DUP4 GT PUSH2 0x54C JUMPI DUP3 SWAP1 SUB PUSH1 0x1F AND DUP3 ADD SWAP2 JUMPDEST POP POP POP POP POP SWAP1 POP SWAP1 JUMP JUMPDEST PUSH1 0x8 PUSH1 0x20 MSTORE DUP1 PUSH1 0x0 MSTORE PUSH1 0x40 PUSH1 0x0 KECCAK256 PUSH1 0x0 SWAP2 POP SWAP1 POP DUP1 SLOAD PUSH2 0x592 SWAP1 PUSH2 0xF2F JUMP JUMPDEST DUP1 PUSH1 0x1F ADD PUSH1 0x20 DUP1 SWAP2 DIV MUL PUSH1 0x20 ADD PUSH1 0x40 MLOAD SWAP1 DUP2 ADD PUSH1 0x40 MSTORE DUP1 SWAP3 SWAP2 SWAP1 DUP2 DUP2 MSTORE PUSH1 0x20 ADD DUP3 DUP1 SLOAD PUSH2 0x5BE SWAP1 PUSH2 0xF2F JUMP JUMPDEST DUP1 ISZERO PUSH2 0x60B JUMPI DUP1 PUSH1 0x1F LT PUSH2 0x5E0 JUMPI PUSH2 0x100 DUP1 DUP4 SLOAD DIV MUL DUP4 MSTORE SWAP2 PUSH1 0x20 ADD SWAP2 PUSH2 0x60B JUMP JUMPDEST DUP3 ADD SWAP2 SWAP1 PUSH1 0x0 MSTORE PUSH1 0x20 PUSH1 0x0 KECCAK256 SWAP1 JUMPDEST DUP2 SLOAD DUP2 MSTORE SWAP1 PUSH1 0x1 ADD SWAP1 PUSH1 0x20 ADD DUP1 DUP4 GT PUSH2 0x5EE JUMPI DUP3 SWAP1 SUB PUSH1 0x1F AND DUP3 ADD SWAP2 JUMPDEST POP POP POP POP POP DUP2 JUMP JUMPDEST PUSH2 0x61D PUSH1 0x2 PUSH2 0x67B JUMP JUMPDEST PUSH1 0x0 PUSH2 0x629 PUSH1 0x2 PUSH2 0x691 JUMP JUMPDEST SWAP1 POP PUSH2 0x635 CALLER DUP3 PUSH2 0x69F JUMP JUMPDEST PUSH2 0x63F DUP2 DUP4 PUSH2 0x953 JUMP JUMPDEST DUP1 PUSH32 0x769EFF512F395B679667E0062A0E31DAD5D22DBC7E6B87F16C3DE7E85E663460 CALLER PUSH1 0x40 MLOAD PUSH2 0x66F SWAP2 SWAP1 PUSH2 0xD42 JUMP JUMPDEST PUSH1 0x40 MLOAD DUP1 SWAP2 SUB SWAP1 LOG2 POP POP JUMP JUMPDEST PUSH1 0x1 DUP2 PUSH1 0x0 ADD PUSH1 0x0 DUP3 DUP3 SLOAD ADD SWAP3 POP POP DUP2 SWAP1 SSTORE POP POP JUMP JUMPDEST PUSH1 0x0 DUP2 PUSH1 0x0 ADD SLOAD SWAP1 POP SWAP2 SWAP1 POP JUMP JUMPDEST PUSH1 0x0 PUSH20 0xFFFFFFFFFFFFFFFFFFFFFFFFFFFFFFFFFFFFFFFF AND PUSH1 0x7 PUSH1 0x0 DUP4 DUP2 MSTORE PUSH1 0x20 ADD SWAP1 DUP2 MSTORE PUSH1 0x20 ADD PUSH1 0x0 KECCAK256 PUSH1 0x0 SWAP1 SLOAD SWAP1 PUSH2 0x100 EXP SWAP1 DIV PUSH20 0xFFFFFFFFFFFFFFFFFFFFFFFFFFFFFFFFFFFFFFFF AND PUSH20 0xFFFFFFFFFFFFFFFFFFFFFFFFFFFFFFFFFFFFFFFF AND EQ PUSH2 0x741 JUMPI PUSH1 0x40 MLOAD PUSH32 0x8C379A000000000000000000000000000000000000000000000000000000000 DUP2 MSTORE PUSH1 0x4 ADD PUSH2 0x738 SWAP1 PUSH2 0xD9F JUMP JUMPDEST PUSH1 0x40 MLOAD DUP1 SWAP2 SUB SWAP1 REVERT JUMPDEST PUSH1 0x0 PUSH20 0xFFFFFFFFFFFFFFFFFFFFFFFFFFFFFFFFFFFFFFFF AND DUP3 PUSH20 0xFFFFFFFFFFFFFFFFFFFFFFFFFFFFFFFFFFFFFFFF AND EQ ISZERO PUSH2 0x7B1 JUMPI PUSH1 0x40 MLOAD PUSH32 0x8C379A000000000000000000000000000000000000000000000000000000000 DUP2 MSTORE PUSH1 0x4 ADD PUSH2 0x7A8 SWAP1 PUSH2 0xE1F JUMP JUMPDEST PUSH1 0x40 MLOAD DUP1 SWAP2 SUB SWAP1 REVERT JUMPDEST PUSH1 0x4 PUSH1 0x0 DUP4 PUSH20 0xFFFFFFFFFFFFFFFFFFFFFFFFFFFFFFFFFFFFFFFF AND PUSH20 0xFFFFFFFFFFFFFFFFFFFFFFFFFFFFFFFFFFFFFFFF AND DUP2 MSTORE PUSH1 0x20 ADD SWAP1 DUP2 MSTORE PUSH1 0x20 ADD PUSH1 0x0 KECCAK256 PUSH1 0x0 DUP2 SLOAD DUP1 SWAP3 SWAP2 SWAP1 PUSH1 0x1 ADD SWAP2 SWAP1 POP SSTORE POP PUSH1 0x6 PUSH1 0x0 DUP4 PUSH20 0xFFFFFFFFFFFFFFFFFFFFFFFFFFFFFFFFFFFFFFFF AND PUSH20 0xFFFFFFFFFFFFFFFFFFFFFFFFFFFFFFFFFFFFFFFF AND DUP2 MSTORE PUSH1 0x20 ADD SWAP1 DUP2 MSTORE PUSH1 0x20 ADD PUSH1 0x0 KECCAK256 PUSH1 0x0 DUP2 SLOAD DUP1 SWAP3 SWAP2 SWAP1 PUSH1 0x1 ADD SWAP2 SWAP1 POP SSTORE POP DUP2 PUSH1 0x5 PUSH1 0x0 DUP4 DUP2 MSTORE PUSH1 0x20 ADD SWAP1 DUP2 MSTORE PUSH1 0x20 ADD PUSH1 0x0 KECCAK256 PUSH1 0x0 PUSH2 0x100 EXP DUP2 SLOAD DUP2 PUSH20 0xFFFFFFFFFFFFFFFFFFFFFFFFFFFFFFFFFFFFFFFF MUL NOT AND SWAP1 DUP4 PUSH20 0xFFFFFFFFFFFFFFFFFFFFFFFFFFFFFFFFFFFFFFFF AND MUL OR SWAP1 SSTORE POP DUP2 PUSH1 0x7 PUSH1 0x0 DUP4 DUP2 MSTORE PUSH1 0x20 ADD SWAP1 DUP2 MSTORE PUSH1 0x20 ADD PUSH1 0x0 KECCAK256 PUSH1 0x0 PUSH2 0x100 EXP DUP2 SLOAD DUP2 PUSH20 0xFFFFFFFFFFFFFFFFFFFFFFFFFFFFFFFFFFFFFFFF MUL NOT AND SWAP1 DUP4 PUSH20 0xFFFFFFFFFFFFFFFFFFFFFFFFFFFFFFFFFFFFFFFF AND MUL OR SWAP1 SSTORE POP DUP1 DUP3 PUSH20 0xFFFFFFFFFFFFFFFFFFFFFFFFFFFFFFFFFFFFFFFF AND PUSH1 0x0 PUSH20 0xFFFFFFFFFFFFFFFFFFFFFFFFFFFFFFFFFFFFFFFF AND PUSH32 0xDDF252AD1BE2C89B69C2B068FC378DAA952BA7F163C4A11628F55A4DF523B3EF PUSH1 0x40 MLOAD PUSH1 0x40 MLOAD DUP1 SWAP2 SUB SWAP1 LOG4 POP POP JUMP JUMPDEST PUSH1 0x0 PUSH20 0xFFFFFFFFFFFFFFFFFFFFFFFFFFFFFFFFFFFFFFFF AND PUSH1 0x7 PUSH1 0x0 DUP5 DUP2 MSTORE PUSH1 0x20 ADD SWAP1 DUP2 MSTORE PUSH1 0x20 ADD PUSH1 0x0 KECCAK256 PUSH1 0x0 SWAP1 SLOAD SWAP1 PUSH2 0x100 EXP SWAP1 DIV PUSH20 0xFFFFFFFFFFFFFFFFFFFFFFFFFFFFFFFFFFFFFFFF AND PUSH20 0xFFFFFFFFFFFFFFFFFFFFFFFFFFFFFFFFFFFFFFFF AND EQ ISZERO PUSH2 0x9F6 JUMPI PUSH1 0x40 MLOAD PUSH32 0x8C379A000000000000000000000000000000000000000000000000000000000 DUP2 MSTORE PUSH1 0x4 ADD PUSH2 0x9ED SWAP1 PUSH2 0xDBF JUMP JUMPDEST PUSH1 0x40 MLOAD DUP1 SWAP2 SUB SWAP1 REVERT JUMPDEST DUP1 PUSH1 0x8 PUSH1 0x0 DUP5 DUP2 MSTORE PUSH1 0x20 ADD SWAP1 DUP2 MSTORE PUSH1 0x20 ADD PUSH1 0x0 KECCAK256 SWAP1 DUP1 MLOAD SWAP1 PUSH1 0x20 ADD SWAP1 PUSH2 0xA1D SWAP3 SWAP2 SWAP1 PUSH2 0xA22 JUMP JUMPDEST POP POP POP JUMP JUMPDEST DUP3 DUP1 SLOAD PUSH2 0xA2E SWAP1 PUSH2 0xF2F JUMP JUMPDEST SWAP1 PUSH1 0x0 MSTORE PUSH1 0x20 PUSH1 0x0 KECCAK256 SWAP1 PUSH1 0x1F ADD PUSH1 0x20 SWAP1 DIV DUP2 ADD SWAP3 DUP3 PUSH2 0xA50 JUMPI PUSH1 0x0 DUP6 SSTORE PUSH2 0xA97 JUMP JUMPDEST DUP3 PUSH1 0x1F LT PUSH2 0xA69 JUMPI DUP1 MLOAD PUSH1 0xFF NOT AND DUP4 DUP1 ADD OR DUP6 SSTORE PUSH2 0xA97 JUMP JUMPDEST DUP3 DUP1 ADD PUSH1 0x1 ADD DUP6 SSTORE DUP3 ISZERO PUSH2 0xA97 JUMPI SWAP2 DUP3 ADD JUMPDEST DUP3 DUP2 GT ISZERO PUSH2 0xA96 JUMPI DUP3 MLOAD DUP3 SSTORE SWAP2 PUSH1 0x20 ADD SWAP2 SWAP1 PUSH1 0x1 ADD SWAP1 PUSH2 0xA7B JUMP JUMPDEST JUMPDEST POP SWAP1 POP PUSH2 0xAA4 SWAP2 SWAP1 PUSH2 0xAA8 JUMP JUMPDEST POP SWAP1 JUMP JUMPDEST JUMPDEST DUP1 DUP3 GT ISZERO PUSH2 0xAC1 JUMPI PUSH1 0x0 DUP2 PUSH1 0x0 SWAP1 SSTORE POP PUSH1 0x1 ADD PUSH2 0xAA9 JUMP JUMPDEST POP SWAP1 JUMP JUMPDEST PUSH1 0x0 PUSH2 0xAD8 PUSH2 0xAD3 DUP5 PUSH2 0xE64 JUMP JUMPDEST PUSH2 0xE3F JUMP JUMPDEST SWAP1 POP DUP3 DUP2 MSTORE PUSH1 0x20 DUP2 ADD DUP5 DUP5 DUP5 ADD GT ISZERO PUSH2 0xAF4 JUMPI PUSH2 0xAF3 PUSH2 0xFF5 JUMP JUMPDEST JUMPDEST PUSH2 0xAFF DUP5 DUP3 DUP6 PUSH2 0xEED JUMP JUMPDEST POP SWAP4 SWAP3 POP POP POP JUMP JUMPDEST PUSH1 0x0 DUP2 CALLDATALOAD SWAP1 POP PUSH2 0xB16 DUP2 PUSH2 0x1131 JUMP JUMPDEST SWAP3 SWAP2 POP POP JUMP JUMPDEST PUSH1 0x0 DUP3 PUSH1 0x1F DUP4 ADD SLT PUSH2 0xB31 JUMPI PUSH2 0xB30 PUSH2 0xFF0 JUMP JUMPDEST JUMPDEST DUP2 CALLDATALOAD PUSH2 0xB41 DUP5 DUP3 PUSH1 0x20 DUP7 ADD PUSH2 0xAC5 JUMP JUMPDEST SWAP2 POP POP SWAP3 SWAP2 POP POP JUMP JUMPDEST PUSH1 0x0 DUP2 CALLDATALOAD SWAP1 POP PUSH2 0xB59 DUP2 PUSH2 0x1148 JUMP JUMPDEST SWAP3 SWAP2 POP POP JUMP JUMPDEST PUSH1 0x0 DUP1 PUSH1 0x0 PUSH1 0x60 DUP5 DUP7 SUB SLT ISZERO PUSH2 0xB78 JUMPI PUSH2 0xB77 PUSH2 0xFFF JUMP JUMPDEST JUMPDEST PUSH1 0x0 PUSH2 0xB86 DUP7 DUP3 DUP8 ADD PUSH2 0xB07 JUMP JUMPDEST SWAP4 POP POP PUSH1 0x20 PUSH2 0xB97 DUP7 DUP3 DUP8 ADD PUSH2 0xB07 JUMP JUMPDEST SWAP3 POP POP PUSH1 0x40 PUSH2 0xBA8 DUP7 DUP3 DUP8 ADD PUSH2 0xB4A JUMP JUMPDEST SWAP2 POP POP SWAP3 POP SWAP3 POP SWAP3 JUMP JUMPDEST PUSH1 0x0 PUSH1 0x20 DUP3 DUP5 SUB SLT ISZERO PUSH2 0xBC8 JUMPI PUSH2 0xBC7 PUSH2 0xFFF JUMP JUMPDEST JUMPDEST PUSH1 0x0 DUP3 ADD CALLDATALOAD PUSH8 0xFFFFFFFFFFFFFFFF DUP2 GT ISZERO PUSH2 0xBE6 JUMPI PUSH2 0xBE5 PUSH2 0xFFA JUMP JUMPDEST JUMPDEST PUSH2 0xBF2 DUP5 DUP3 DUP6 ADD PUSH2 0xB1C JUMP JUMPDEST SWAP2 POP POP SWAP3 SWAP2 POP POP JUMP JUMPDEST PUSH1 0x0 PUSH1 0x20 DUP3 DUP5 SUB SLT ISZERO PUSH2 0xC11 JUMPI PUSH2 0xC10 PUSH2 0xFFF JUMP JUMPDEST JUMPDEST PUSH1 0x0 PUSH2 0xC1F DUP5 DUP3 DUP6 ADD PUSH2 0xB4A JUMP JUMPDEST SWAP2 POP POP SWAP3 SWAP2 POP POP JUMP JUMPDEST PUSH2 0xC31 DUP2 PUSH2 0xEB1 JUMP JUMPDEST DUP3 MSTORE POP POP JUMP JUMPDEST PUSH1 0x0 PUSH2 0xC42 DUP3 PUSH2 0xE95 JUMP JUMPDEST PUSH2 0xC4C DUP2 DUP6 PUSH2 0xEA0 JUMP JUMPDEST SWAP4 POP PUSH2 0xC5C DUP2 DUP6 PUSH1 0x20 DUP7 ADD PUSH2 0xEFC JUMP JUMPDEST PUSH2 0xC65 DUP2 PUSH2 0x1004 JUMP JUMPDEST DUP5 ADD SWAP2 POP POP SWAP3 SWAP2 POP POP JUMP JUMPDEST PUSH1 0x0 PUSH2 0xC7D PUSH1 0x24 DUP4 PUSH2 0xEA0 JUMP JUMPDEST SWAP2 POP PUSH2 0xC88 DUP3 PUSH2 0x1015 JUMP JUMPDEST PUSH1 0x40 DUP3 ADD SWAP1 POP SWAP2 SWAP1 POP JUMP JUMPDEST PUSH1 0x0 PUSH2 0xCA0 PUSH1 0x13 DUP4 PUSH2 0xEA0 JUMP JUMPDEST SWAP2 POP PUSH2 0xCAB DUP3 PUSH2 0x1064 JUMP JUMPDEST PUSH1 0x20 DUP3 ADD SWAP1 POP SWAP2 SWAP1 POP JUMP JUMPDEST PUSH1 0x0 PUSH2 0xCC3 PUSH1 0x13 DUP4 PUSH2 0xEA0 JUMP JUMPDEST SWAP2 POP PUSH2 0xCCE DUP3 PUSH2 0x108D JUMP JUMPDEST PUSH1 0x20 DUP3 ADD SWAP1 POP SWAP2 SWAP1 POP JUMP JUMPDEST PUSH1 0x0 PUSH2 0xCE6 PUSH1 0x17 DUP4 PUSH2 0xEA0 JUMP JUMPDEST SWAP2 POP PUSH2 0xCF1 DUP3 PUSH2 0x10B6 JUMP JUMPDEST PUSH1 0x20 DUP3 ADD SWAP1 POP SWAP2 SWAP1 POP JUMP JUMPDEST PUSH1 0x0 PUSH2 0xD09 PUSH1 0x18 DUP4 PUSH2 0xEA0 JUMP JUMPDEST SWAP2 POP PUSH2 0xD14 DUP3 PUSH2 0x10DF JUMP JUMPDEST PUSH1 0x20 DUP3 ADD SWAP1 POP SWAP2 SWAP1 POP JUMP JUMPDEST PUSH1 0x0 PUSH2 0xD2C PUSH1 0x18 DUP4 PUSH2 0xEA0 JUMP JUMPDEST SWAP2 POP PUSH2 0xD37 DUP3 PUSH2 0x1108 JUMP JUMPDEST PUSH1 0x20 DUP3 ADD SWAP1 POP SWAP2 SWAP1 POP JUMP JUMPDEST PUSH1 0x0 PUSH1 0x20 DUP3 ADD SWAP1 POP PUSH2 0xD57 PUSH1 0x0 DUP4 ADD DUP5 PUSH2 0xC28 JUMP JUMPDEST SWAP3 SWAP2 POP POP JUMP JUMPDEST PUSH1 0x0 PUSH1 0x20 DUP3 ADD SWAP1 POP DUP2 DUP2 SUB PUSH1 0x0 DUP4 ADD MSTORE PUSH2 0xD77 DUP2 DUP5 PUSH2 0xC37 JUMP JUMPDEST SWAP1 POP SWAP3 SWAP2 POP POP JUMP JUMPDEST PUSH1 0x0 PUSH1 0x20 DUP3 ADD SWAP1 POP DUP2 DUP2 SUB PUSH1 0x0 DUP4 ADD MSTORE PUSH2 0xD98 DUP2 PUSH2 0xC70 JUMP JUMPDEST SWAP1 POP SWAP2 SWAP1 POP JUMP JUMPDEST PUSH1 0x0 PUSH1 0x20 DUP3 ADD SWAP1 POP DUP2 DUP2 SUB PUSH1 0x0 DUP4 ADD MSTORE PUSH2 0xDB8 DUP2 PUSH2 0xC93 JUMP JUMPDEST SWAP1 POP SWAP2 SWAP1 POP JUMP JUMPDEST PUSH1 0x0 PUSH1 0x20 DUP3 ADD SWAP1 POP DUP2 DUP2 SUB PUSH1 0x0 DUP4 ADD MSTORE PUSH2 0xDD8 DUP2 PUSH2 0xCB6 JUMP JUMPDEST SWAP1 POP SWAP2 SWAP1 POP JUMP JUMPDEST PUSH1 0x0 PUSH1 0x20 DUP3 ADD SWAP1 POP DUP2 DUP2 SUB PUSH1 0x0 DUP4 ADD MSTORE PUSH2 0xDF8 DUP2 PUSH2 0xCD9 JUMP JUMPDEST SWAP1 POP SWAP2 SWAP1 POP JUMP JUMPDEST PUSH1 0x0 PUSH1 0x20 DUP3 ADD SWAP1 POP DUP2 DUP2 SUB PUSH1 0x0 DUP4 ADD MSTORE PUSH2 0xE18 DUP2 PUSH2 0xCFC JUMP JUMPDEST SWAP1 POP SWAP2 SWAP1 POP JUMP JUMPDEST PUSH1 0x0 PUSH1 0x20 DUP3 ADD SWAP1 POP DUP2 DUP2 SUB PUSH1 0x0 DUP4 ADD MSTORE PUSH2 0xE38 DUP2 PUSH2 0xD1F JUMP JUMPDEST SWAP1 POP SWAP2 SWAP1 POP JUMP JUMPDEST PUSH1 0x0 PUSH2 0xE49 PUSH2 0xE5A JUMP JUMPDEST SWAP1 POP PUSH2 0xE55 DUP3 DUP3 PUSH2 0xF61 JUMP JUMPDEST SWAP2 SWAP1 POP JUMP JUMPDEST PUSH1 0x0 PUSH1 0x40 MLOAD SWAP1 POP SWAP1 JUMP JUMPDEST PUSH1 0x0 PUSH8 0xFFFFFFFFFFFFFFFF DUP3 GT ISZERO PUSH2 0xE7F JUMPI PUSH2 0xE7E PUSH2 0xFC1 JUMP JUMPDEST JUMPDEST PUSH2 0xE88 DUP3 PUSH2 0x1004 JUMP JUMPDEST SWAP1 POP PUSH1 0x20 DUP2 ADD SWAP1 POP SWAP2 SWAP1 POP JUMP JUMPDEST PUSH1 0x0 DUP2 MLOAD SWAP1 POP SWAP2 SWAP1 POP JUMP JUMPDEST PUSH1 0x0 DUP3 DUP3 MSTORE PUSH1 0x20 DUP3 ADD SWAP1 POP SWAP3 SWAP2 POP POP JUMP JUMPDEST PUSH1 0x0 PUSH2 0xEBC DUP3 PUSH2 0xEC3 JUMP JUMPDEST SWAP1 POP SWAP2 SWAP1 POP JUMP JUMPDEST PUSH1 0x0 PUSH20 0xFFFFFFFFFFFFFFFFFFFFFFFFFFFFFFFFFFFFFFFF DUP3 AND SWAP1 POP SWAP2 SWAP1 POP JUMP JUMPDEST PUSH1 0x0 DUP2 SWAP1 POP SWAP2 SWAP1 POP JUMP JUMPDEST DUP3 DUP2 DUP4 CALLDATACOPY PUSH1 0x0 DUP4 DUP4 ADD MSTORE POP POP POP JUMP JUMPDEST PUSH1 0x0 JUMPDEST DUP4 DUP2 LT ISZERO PUSH2 0xF1A JUMPI DUP1 DUP3 ADD MLOAD DUP2 DUP5 ADD MSTORE PUSH1 0x20 DUP2 ADD SWAP1 POP PUSH2 0xEFF JUMP JUMPDEST DUP4 DUP2 GT ISZERO PUSH2 0xF29 JUMPI PUSH1 0x0 DUP5 DUP5 ADD MSTORE JUMPDEST POP POP POP POP JUMP JUMPDEST PUSH1 0x0 PUSH1 0x2 DUP3 DIV SWAP1 POP PUSH1 0x1 DUP3 AND DUP1 PUSH2 0xF47 JUMPI PUSH1 0x7F DUP3 AND SWAP2 POP JUMPDEST PUSH1 0x20 DUP3 LT DUP2 EQ ISZERO PUSH2 0xF5B JUMPI PUSH2 0xF5A PUSH2 0xF92 JUMP JUMPDEST JUMPDEST POP SWAP2 SWAP1 POP JUMP JUMPDEST PUSH2 0xF6A DUP3 PUSH2 0x1004 JUMP JUMPDEST DUP2 ADD DUP2 DUP2 LT PUSH8 0xFFFFFFFFFFFFFFFF DUP3 GT OR ISZERO PUSH2 0xF89 JUMPI PUSH2 0xF88 PUSH2 0xFC1 JUMP JUMPDEST JUMPDEST DUP1 PUSH1 0x40 MSTORE POP POP POP JUMP JUMPDEST PUSH32 0x4E487B7100000000000000000000000000000000000000000000000000000000 PUSH1 0x0 MSTORE PUSH1 0x22 PUSH1 0x4 MSTORE PUSH1 0x24 PUSH1 0x0 REVERT JUMPDEST PUSH32 0x4E487B7100000000000000000000000000000000000000000000000000000000 PUSH1 0x0 MSTORE PUSH1 0x41 PUSH1 0x4 MSTORE PUSH1 0x24 PUSH1 0x0 REVERT JUMPDEST PUSH1 0x0 DUP1 REVERT JUMPDEST PUSH1 0x0 DUP1 REVERT JUMPDEST PUSH1 0x0 DUP1 REVERT JUMPDEST PUSH1 0x0 DUP1 REVERT JUMPDEST PUSH1 0x0 PUSH1 0x1F NOT PUSH1 0x1F DUP4 ADD AND SWAP1 POP SWAP2 SWAP1 POP JUMP JUMPDEST PUSH32 0x4552433732313A207472616E7366657220746F20746865207A65726F20616464 PUSH1 0x0 DUP3 ADD MSTORE PUSH32 0x7265737300000000000000000000000000000000000000000000000000000000 PUSH1 0x20 DUP3 ADD MSTORE POP JUMP JUMPDEST PUSH32 0x746F6B656E20616C726561647920657869737400000000000000000000000000 PUSH1 0x0 DUP3 ADD MSTORE POP JUMP JUMPDEST PUSH32 0x746F6B656E20646F65736E277420657869737400000000000000000000000000 PUSH1 0x0 DUP3 ADD MSTORE POP JUMP JUMPDEST PUSH32 0x4E6F742063616C6C656420627920746865206F776E6572000000000000000000 PUSH1 0x0 DUP3 ADD MSTORE POP JUMP JUMPDEST PUSH32 0x4552433732313A20696E76616C696420746F6B656E2049440000000000000000 PUSH1 0x0 DUP3 ADD MSTORE POP JUMP JUMPDEST PUSH32 0x6D696E7420746F20746865207A65726F20616464726573730000000000000000 PUSH1 0x0 DUP3 ADD MSTORE POP JUMP JUMPDEST PUSH2 0x113A DUP2 PUSH2 0xEB1 JUMP JUMPDEST DUP2 EQ PUSH2 0x1145 JUMPI PUSH1 0x0 DUP1 REVERT JUMPDEST POP JUMP JUMPDEST PUSH2 0x1151 DUP2 PUSH2 0xEE3 JUMP JUMPDEST DUP2 EQ PUSH2 0x115C JUMPI PUSH1 0x0 DUP1 REVERT JUMPDEST POP JUMP INVALID LOG2 PUSH5 0x6970667358 0x22 SLT KECCAK256 0xB1 GT DUP4 BALANCE SWAP14 0xD4 0xAC CALLCODE 0x1E PUSH31 0xFE5D2E9BED0F2D16D6879AB83356E05B7CA28606632C64736F6C6343000807 STOP CALLER "
				},
				"gasEstimates": {
					"creation": {
						"codeDepositCost": "900200",
						"executionCost": "infinite",
						"totalCost": "infinite"
					},
					"external": {
						"mint(string)": "infinite",
						"name()": "infinite",
						"ownerOf(uint256)": "2981",
						"symbol()": "infinite",
						"tokenToUri(uint256)": "infinite",
						"transferFrom(address,address,uint256)": "infinite"
					},
					"internal": {
						"_safeMint(address,uint256)": "infinite",
						"_setTokenUri(uint256,string memory)": "infinite"
					}
				},
				"methodIdentifiers": {
					"mint(string)": "d85d3d27",
					"name()": "06fdde03",
					"ownerOf(uint256)": "6352211e",
					"symbol()": "95d89b41",
					"tokenToUri(uint256)": "bf59b347",
					"transferFrom(address,address,uint256)": "23b872dd"
				}
			},
			"storageLayout": {
				"storage": [
					{
						"astId": 82,
						"contract": "contracts/GeekNft.sol:GeekNft",
						"label": "_name",
						"offset": 0,
						"slot": "0",
						"type": "t_string_storage"
					},
					{
						"astId": 84,
						"contract": "contracts/GeekNft.sol:GeekNft",
						"label": "_symbol",
						"offset": 0,
						"slot": "1",
						"type": "t_string_storage"
					},
					{
						"astId": 87,
						"contract": "contracts/GeekNft.sol:GeekNft",
						"label": "tokenIds",
						"offset": 0,
						"slot": "2",
						"type": "t_struct(Counter)5_storage"
					},
					{
						"astId": 89,
						"contract": "contracts/GeekNft.sol:GeekNft",
						"label": "marketplaceAddress",
						"offset": 0,
						"slot": "3",
						"type": "t_address"
					},
					{
						"astId": 93,
						"contract": "contracts/GeekNft.sol:GeekNft",
						"label": "tokensOwnerCount",
						"offset": 0,
						"slot": "4",
						"type": "t_mapping(t_address,t_uint256)"
					},
					{
						"astId": 97,
						"contract": "contracts/GeekNft.sol:GeekNft",
						"label": "tokenToOwner",
						"offset": 0,
						"slot": "5",
						"type": "t_mapping(t_uint256,t_address)"
					},
					{
						"astId": 101,
						"contract": "contracts/GeekNft.sol:GeekNft",
						"label": "tokensCreatorCount",
						"offset": 0,
						"slot": "6",
						"type": "t_mapping(t_address,t_uint256)"
					},
					{
						"astId": 105,
						"contract": "contracts/GeekNft.sol:GeekNft",
						"label": "tokenToCreator",
						"offset": 0,
						"slot": "7",
						"type": "t_mapping(t_uint256,t_address)"
					},
					{
						"astId": 109,
						"contract": "contracts/GeekNft.sol:GeekNft",
						"label": "tokenToUri",
						"offset": 0,
						"slot": "8",
						"type": "t_mapping(t_uint256,t_string_storage)"
					}
				],
				"types": {
					"t_address": {
						"encoding": "inplace",
						"label": "address",
						"numberOfBytes": "20"
					},
					"t_mapping(t_address,t_uint256)": {
						"encoding": "mapping",
						"key": "t_address",
						"label": "mapping(address => uint256)",
						"numberOfBytes": "32",
						"value": "t_uint256"
					},
					"t_mapping(t_uint256,t_address)": {
						"encoding": "mapping",
						"key": "t_uint256",
						"label": "mapping(uint256 => address)",
						"numberOfBytes": "32",
						"value": "t_address"
					},
					"t_mapping(t_uint256,t_string_storage)": {
						"encoding": "mapping",
						"key": "t_uint256",
						"label": "mapping(uint256 => string)",
						"numberOfBytes": "32",
						"value": "t_string_storage"
					},
					"t_string_storage": {
						"encoding": "bytes",
						"label": "string",
						"numberOfBytes": "32"
					},
					"t_struct(Counter)5_storage": {
						"encoding": "inplace",
						"label": "struct Counters.Counter",
						"members": [
							{
								"astId": 4,
								"contract": "contracts/GeekNft.sol:GeekNft",
								"label": "_value",
								"offset": 0,
								"slot": "0",
								"type": "t_uint256"
							}
						],
						"numberOfBytes": "32"
					},
					"t_uint256": {
						"encoding": "inplace",
						"label": "uint256",
						"numberOfBytes": "32"
					}
				}
			},
			"userdoc": {
				"kind": "user",
				"methods": {},
				"version": 1
			}
		}
	}
}