{
	"contracts/GeekNftMarketPlace.sol": {
		"GeekNftMarketPlace": {
			"abi": [
				{
					"inputs": [],
					"stateMutability": "nonpayable",
					"type": "constructor"
				},
				{
					"anonymous": false,
					"inputs": [
						{
							"indexed": false,
							"internalType": "address",
							"name": "nftContract",
							"type": "address"
						},
						{
							"indexed": false,
							"internalType": "uint256",
							"name": "tokenId",
							"type": "uint256"
						},
						{
							"indexed": true,
							"internalType": "address",
							"name": "seller",
							"type": "address"
						},
						{
							"indexed": true,
							"internalType": "address",
							"name": "owner",
							"type": "address"
						},
						{
							"indexed": false,
							"internalType": "uint256",
							"name": "price",
							"type": "uint256"
						}
					],
					"name": "NFTListed",
					"type": "event"
				},
				{
					"anonymous": false,
					"inputs": [
						{
							"indexed": false,
							"internalType": "address",
							"name": "nftContract",
							"type": "address"
						},
						{
							"indexed": false,
							"internalType": "uint256",
							"name": "tokenId",
							"type": "uint256"
						},
						{
							"indexed": true,
							"internalType": "address",
							"name": "seller",
							"type": "address"
						},
						{
							"indexed": true,
							"internalType": "address",
							"name": "owner",
							"type": "address"
						},
						{
							"indexed": false,
							"internalType": "uint256",
							"name": "price",
							"type": "uint256"
						}
					],
					"name": "NFTSold",
					"type": "event"
				},
				{
					"inputs": [],
					"name": "LISTING_FEE",
					"outputs": [
						{
							"internalType": "uint256",
							"name": "",
							"type": "uint256"
						}
					],
					"stateMutability": "view",
					"type": "function"
				},
				{
					"inputs": [
						{
							"internalType": "address",
							"name": "_nftContract",
							"type": "address"
						},
						{
							"internalType": "uint256",
							"name": "_tokenId",
							"type": "uint256"
						}
					],
					"name": "buyNft",
					"outputs": [],
					"stateMutability": "payable",
					"type": "function"
				},
				{
					"inputs": [
						{
							"internalType": "address",
							"name": "_collection",
							"type": "address"
						}
					],
					"name": "getCollectionNfts",
					"outputs": [
						{
							"components": [
								{
									"internalType": "address",
									"name": "nftContract",
									"type": "address"
								},
								{
									"internalType": "uint256",
									"name": "tokenId",
									"type": "uint256"
								},
								{
									"internalType": "uint256",
									"name": "price",
									"type": "uint256"
								},
								{
									"internalType": "address payable",
									"name": "seller",
									"type": "address"
								},
								{
									"internalType": "address payable",
									"name": "owner",
									"type": "address"
								},
								{
									"internalType": "address payable",
									"name": "creator",
									"type": "address"
								},
								{
									"internalType": "bool",
									"name": "listed",
									"type": "bool"
								}
							],
							"internalType": "struct GeekNftMarketPlace.NFT[]",
							"name": "",
							"type": "tuple[]"
						}
					],
					"stateMutability": "view",
					"type": "function"
				},
				{
					"inputs": [],
					"name": "getListedNfts",
					"outputs": [
						{
							"components": [
								{
									"internalType": "address",
									"name": "nftContract",
									"type": "address"
								},
								{
									"internalType": "uint256",
									"name": "tokenId",
									"type": "uint256"
								},
								{
									"internalType": "uint256",
									"name": "price",
									"type": "uint256"
								},
								{
									"internalType": "address payable",
									"name": "seller",
									"type": "address"
								},
								{
									"internalType": "address payable",
									"name": "owner",
									"type": "address"
								},
								{
									"internalType": "address payable",
									"name": "creator",
									"type": "address"
								},
								{
									"internalType": "bool",
									"name": "listed",
									"type": "bool"
								}
							],
							"internalType": "struct GeekNftMarketPlace.NFT[]",
							"name": "",
							"type": "tuple[]"
						}
					],
					"stateMutability": "view",
					"type": "function"
				},
				{
					"inputs": [],
					"name": "getListingFee",
					"outputs": [
						{
							"internalType": "uint256",
							"name": "",
							"type": "uint256"
						}
					],
					"stateMutability": "view",
					"type": "function"
				},
				{
					"inputs": [],
					"name": "getMyCreatedNfts",
					"outputs": [
						{
							"components": [
								{
									"internalType": "address",
									"name": "nftContract",
									"type": "address"
								},
								{
									"internalType": "uint256",
									"name": "tokenId",
									"type": "uint256"
								},
								{
									"internalType": "uint256",
									"name": "price",
									"type": "uint256"
								},
								{
									"internalType": "address payable",
									"name": "seller",
									"type": "address"
								},
								{
									"internalType": "address payable",
									"name": "owner",
									"type": "address"
								},
								{
									"internalType": "address payable",
									"name": "creator",
									"type": "address"
								},
								{
									"internalType": "bool",
									"name": "listed",
									"type": "bool"
								}
							],
							"internalType": "struct GeekNftMarketPlace.NFT[]",
							"name": "",
							"type": "tuple[]"
						}
					],
					"stateMutability": "view",
					"type": "function"
				},
				{
					"inputs": [],
					"name": "getMyListedNfts",
					"outputs": [
						{
							"components": [
								{
									"internalType": "address",
									"name": "nftContract",
									"type": "address"
								},
								{
									"internalType": "uint256",
									"name": "tokenId",
									"type": "uint256"
								},
								{
									"internalType": "uint256",
									"name": "price",
									"type": "uint256"
								},
								{
									"internalType": "address payable",
									"name": "seller",
									"type": "address"
								},
								{
									"internalType": "address payable",
									"name": "owner",
									"type": "address"
								},
								{
									"internalType": "address payable",
									"name": "creator",
									"type": "address"
								},
								{
									"internalType": "bool",
									"name": "listed",
									"type": "bool"
								}
							],
							"internalType": "struct GeekNftMarketPlace.NFT[]",
							"name": "",
							"type": "tuple[]"
						}
					],
					"stateMutability": "view",
					"type": "function"
				},
				{
					"inputs": [],
					"name": "getMyOwnedNfts",
					"outputs": [
						{
							"components": [
								{
									"internalType": "address",
									"name": "nftContract",
									"type": "address"
								},
								{
									"internalType": "uint256",
									"name": "tokenId",
									"type": "uint256"
								},
								{
									"internalType": "uint256",
									"name": "price",
									"type": "uint256"
								},
								{
									"internalType": "address payable",
									"name": "seller",
									"type": "address"
								},
								{
									"internalType": "address payable",
									"name": "owner",
									"type": "address"
								},
								{
									"internalType": "address payable",
									"name": "creator",
									"type": "address"
								},
								{
									"internalType": "bool",
									"name": "listed",
									"type": "bool"
								}
							],
							"internalType": "struct GeekNftMarketPlace.NFT[]",
							"name": "",
							"type": "tuple[]"
						}
					],
					"stateMutability": "view",
					"type": "function"
				},
				{
					"inputs": [
						{
							"internalType": "address",
							"name": "_nftContract",
							"type": "address"
						},
						{
							"internalType": "uint256",
							"name": "_tokenId",
							"type": "uint256"
						},
						{
							"internalType": "uint256",
							"name": "_price",
							"type": "uint256"
						}
					],
					"name": "listNFT",
					"outputs": [],
					"stateMutability": "payable",
					"type": "function"
				},
				{
					"inputs": [
						{
							"internalType": "address",
							"name": "_nftContract",
							"type": "address"
						},
						{
							"internalType": "uint256",
							"name": "_tokenId",
							"type": "uint256"
						},
						{
							"internalType": "uint256",
							"name": "_price",
							"type": "uint256"
						}
					],
					"name": "resellNFT",
					"outputs": [],
					"stateMutability": "payable",
					"type": "function"
				}
			],
			"devdoc": {
				"kind": "dev",
				"methods": {},
				"version": 1
			},
			"evm": {
				"assembly": "    /* \"contracts/GeekNftMarketPlace.sol\":225:6368  contract GeekNftMarketPlace is ReentrancyGuard {... */\n  mstore(0x40, 0x80)\n    /* \"contracts/GeekNftMarketPlace.sol\":428:439  0.002 ether */\n  0x071afd498d0000\n    /* \"contracts/GeekNftMarketPlace.sol\":402:439  uint public LISTING_FEE = 0.002 ether */\n  0x03\n  sstore\n    /* \"contracts/GeekNftMarketPlace.sol\":974:1040  constructor() {... */\n  callvalue\n  dup1\n  iszero\n  tag_1\n  jumpi\n  0x00\n  dup1\n  revert\ntag_1:\n  pop\n    /* \"contracts/RenntrancyGuard.sol\":128:129  1 */\n  0x01\n    /* \"contracts/RenntrancyGuard.sol\":233:240  _status */\n  0x00\n    /* \"contracts/RenntrancyGuard.sol\":233:255  _status = _NOT_ENTERED */\n  dup2\n  swap1\n  sstore\n  pop\n    /* \"contracts/GeekNftMarketPlace.sol\":1022:1032  msg.sender */\n  caller\n    /* \"contracts/GeekNftMarketPlace.sol\":998:1011  _marketOwwner */\n  0x04\n  0x00\n    /* \"contracts/GeekNftMarketPlace.sol\":998:1033  _marketOwwner = payable(msg.sender) */\n  0x0100\n  exp\n  dup2\n  sload\n  dup2\n  0xffffffffffffffffffffffffffffffffffffffff\n  mul\n  not\n  and\n  swap1\n  dup4\n  0xffffffffffffffffffffffffffffffffffffffff\n  and\n  mul\n  or\n  swap1\n  sstore\n  pop\n    /* \"contracts/GeekNftMarketPlace.sol\":225:6368  contract GeekNftMarketPlace is ReentrancyGuard {... */\n  dataSize(sub_0)\n  dup1\n  dataOffset(sub_0)\n  0x00\n  codecopy\n  0x00\n  return\nstop\n\nsub_0: assembly {\n        /* \"contracts/GeekNftMarketPlace.sol\":225:6368  contract GeekNftMarketPlace is ReentrancyGuard {... */\n      mstore(0x40, 0x80)\n      jumpi(tag_1, lt(calldatasize, 0x04))\n      shr(0xe0, calldataload(0x00))\n      dup1\n      0x8d6cb3fb\n      gt\n      tag_12\n      jumpi\n      dup1\n      0x8d6cb3fb\n      eq\n      tag_7\n      jumpi\n      dup1\n      0xa46b5c5a\n      eq\n      tag_8\n      jumpi\n      dup1\n      0xad05f1b4\n      eq\n      tag_9\n      jumpi\n      dup1\n      0xb8fe6abe\n      eq\n      tag_10\n      jumpi\n      dup1\n      0xccef4339\n      eq\n      tag_11\n      jumpi\n      jump(tag_1)\n    tag_12:\n      dup1\n      0x04935694\n      eq\n      tag_2\n      jumpi\n      dup1\n      0x1f4cc4db\n      eq\n      tag_3\n      jumpi\n      dup1\n      0x2b86ae38\n      eq\n      tag_4\n      jumpi\n      dup1\n      0x4ddf4f8f\n      eq\n      tag_5\n      jumpi\n      dup1\n      0x8492095a\n      eq\n      tag_6\n      jumpi\n    tag_1:\n      0x00\n      dup1\n      revert\n        /* \"contracts/GeekNftMarketPlace.sol\":2541:3187  function resellNFT(address _nftContract, uint _tokenId, uint _price) public payable nonReentrant{... */\n    tag_2:\n      tag_13\n      0x04\n      dup1\n      calldatasize\n      sub\n      dup2\n      add\n      swap1\n      tag_14\n      swap2\n      swap1\n      tag_15\n      jump\t// in\n    tag_14:\n      tag_16\n      jump\t// in\n    tag_13:\n      stop\n        /* \"contracts/GeekNftMarketPlace.sol\":4546:5217  function getMyListedNfts() public view returns (NFT[] memory) {... */\n    tag_3:\n      callvalue\n      dup1\n      iszero\n      tag_17\n      jumpi\n      0x00\n      dup1\n      revert\n    tag_17:\n      pop\n      tag_18\n      tag_19\n      jump\t// in\n    tag_18:\n      mload(0x40)\n      tag_20\n      swap2\n      swap1\n      tag_21\n      jump\t// in\n    tag_20:\n      mload(0x40)\n      dup1\n      swap2\n      sub\n      swap1\n      return\n        /* \"contracts/GeekNftMarketPlace.sol\":402:439  uint public LISTING_FEE = 0.002 ether */\n    tag_4:\n      callvalue\n      dup1\n      iszero\n      tag_22\n      jumpi\n      0x00\n      dup1\n      revert\n    tag_22:\n      pop\n      tag_23\n      tag_24\n      jump\t// in\n    tag_23:\n      mload(0x40)\n      tag_25\n      swap2\n      swap1\n      tag_26\n      jump\t// in\n    tag_25:\n      mload(0x40)\n      dup1\n      swap2\n      sub\n      swap1\n      return\n        /* \"contracts/GeekNftMarketPlace.sol\":1926:2486  function buyNft(address _nftContract, uint _tokenId) public payable nonReentrant{... */\n    tag_5:\n      tag_27\n      0x04\n      dup1\n      calldatasize\n      sub\n      dup2\n      add\n      swap1\n      tag_28\n      swap2\n      swap1\n      tag_29\n      jump\t// in\n    tag_28:\n      tag_30\n      jump\t// in\n    tag_27:\n      stop\n        /* \"contracts/GeekNftMarketPlace.sol\":3883:4505  function getMyCreatedNfts() public view returns (NFT[] memory) {... */\n    tag_6:\n      callvalue\n      dup1\n      iszero\n      tag_31\n      jumpi\n      0x00\n      dup1\n      revert\n    tag_31:\n      pop\n      tag_32\n      tag_33\n      jump\t// in\n    tag_32:\n      mload(0x40)\n      tag_34\n      swap2\n      swap1\n      tag_21\n      jump\t// in\n    tag_34:\n      mload(0x40)\n      dup1\n      swap2\n      sub\n      swap1\n      return\n        /* \"contracts/GeekNftMarketPlace.sol\":5902:6366  function getListedNfts() public view returns (NFT[] memory) {... */\n    tag_7:\n      callvalue\n      dup1\n      iszero\n      tag_35\n      jumpi\n      0x00\n      dup1\n      revert\n    tag_35:\n      pop\n      tag_36\n      tag_37\n      jump\t// in\n    tag_36:\n      mload(0x40)\n      tag_38\n      swap2\n      swap1\n      tag_21\n      jump\t// in\n    tag_38:\n      mload(0x40)\n      dup1\n      swap2\n      sub\n      swap1\n      return\n        /* \"contracts/GeekNftMarketPlace.sol\":3226:3842  function getMyOwnedNfts() public view returns (NFT[] memory) {... */\n    tag_8:\n      callvalue\n      dup1\n      iszero\n      tag_39\n      jumpi\n      0x00\n      dup1\n      revert\n    tag_39:\n      pop\n      tag_40\n      tag_41\n      jump\t// in\n    tag_40:\n      mload(0x40)\n      tag_42\n      swap2\n      swap1\n      tag_21\n      jump\t// in\n    tag_42:\n      mload(0x40)\n      dup1\n      swap2\n      sub\n      swap1\n      return\n        /* \"contracts/GeekNftMarketPlace.sol\":1177:1902  function listNFT(address _nftContract, uint _tokenId, uint _price) public payable nonReentrant{... */\n    tag_9:\n      tag_43\n      0x04\n      dup1\n      calldatasize\n      sub\n      dup2\n      add\n      swap1\n      tag_44\n      swap2\n      swap1\n      tag_15\n      jump\t// in\n    tag_44:\n      tag_45\n      jump\t// in\n    tag_43:\n      stop\n        /* \"contracts/GeekNftMarketPlace.sol\":1046:1132  function getListingFee() public view returns (uint){... */\n    tag_10:\n      callvalue\n      dup1\n      iszero\n      tag_46\n      jumpi\n      0x00\n      dup1\n      revert\n    tag_46:\n      pop\n      tag_47\n      tag_48\n      jump\t// in\n    tag_47:\n      mload(0x40)\n      tag_49\n      swap2\n      swap1\n      tag_26\n      jump\t// in\n    tag_49:\n      mload(0x40)\n      dup1\n      swap2\n      sub\n      swap1\n      return\n        /* \"contracts/GeekNftMarketPlace.sol\":5252:5896  function getCollectionNfts(address _collection) public view returns (NFT[] memory) {... */\n    tag_11:\n      callvalue\n      dup1\n      iszero\n      tag_50\n      jumpi\n      0x00\n      dup1\n      revert\n    tag_50:\n      pop\n      tag_51\n      0x04\n      dup1\n      calldatasize\n      sub\n      dup2\n      add\n      swap1\n      tag_52\n      swap2\n      swap1\n      tag_53\n      jump\t// in\n    tag_52:\n      tag_54\n      jump\t// in\n    tag_51:\n      mload(0x40)\n      tag_55\n      swap2\n      swap1\n      tag_21\n      jump\t// in\n    tag_55:\n      mload(0x40)\n      dup1\n      swap2\n      sub\n      swap1\n      return\n        /* \"contracts/GeekNftMarketPlace.sol\":2541:3187  function resellNFT(address _nftContract, uint _tokenId, uint _price) public payable nonReentrant{... */\n    tag_16:\n        /* \"contracts/RenntrancyGuard.sol\":171:172  2 */\n      0x02\n        /* \"contracts/RenntrancyGuard.sol\":310:317  _status */\n      sload(0x00)\n        /* \"contracts/RenntrancyGuard.sol\":310:329  _status != _ENTERED */\n      eq\n      iszero\n        /* \"contracts/RenntrancyGuard.sol\":302:365  require(_status != _ENTERED, \"ReentrancyGuard: reentrant call\") */\n      tag_57\n      jumpi\n      mload(0x40)\n      0x08c379a000000000000000000000000000000000000000000000000000000000\n      dup2\n      mstore\n      0x04\n      add\n      tag_58\n      swap1\n      tag_59\n      jump\t// in\n    tag_58:\n      mload(0x40)\n      dup1\n      swap2\n      sub\n      swap1\n      revert\n    tag_57:\n        /* \"contracts/RenntrancyGuard.sol\":171:172  2 */\n      0x02\n        /* \"contracts/RenntrancyGuard.sol\":375:382  _status */\n      0x00\n        /* \"contracts/RenntrancyGuard.sol\":375:393  _status = _ENTERED */\n      dup2\n      swap1\n      sstore\n      pop\n        /* \"contracts/GeekNftMarketPlace.sol\":2664:2665  0 */\n      0x00\n        /* \"contracts/GeekNftMarketPlace.sol\":2655:2661  _price */\n      dup2\n        /* \"contracts/GeekNftMarketPlace.sol\":2655:2665  _price > 0 */\n      gt\n        /* \"contracts/GeekNftMarketPlace.sol\":2647:2698  require(_price > 0, \"Price must be at least 1 wei\") */\n      tag_61\n      jumpi\n      mload(0x40)\n      0x08c379a000000000000000000000000000000000000000000000000000000000\n      dup2\n      mstore\n      0x04\n      add\n      tag_62\n      swap1\n      tag_63\n      jump\t// in\n    tag_62:\n      mload(0x40)\n      dup1\n      swap2\n      sub\n      swap1\n      revert\n    tag_61:\n        /* \"contracts/GeekNftMarketPlace.sol\":2729:2740  LISTING_FEE */\n      sload(0x03)\n        /* \"contracts/GeekNftMarketPlace.sol\":2716:2725  msg.value */\n      callvalue\n        /* \"contracts/GeekNftMarketPlace.sol\":2716:2740  msg.value == LISTING_FEE */\n      eq\n        /* \"contracts/GeekNftMarketPlace.sol\":2708:2777  require(msg.value == LISTING_FEE, \"Not enough ether for listing fee\") */\n      tag_64\n      jumpi\n      mload(0x40)\n      0x08c379a000000000000000000000000000000000000000000000000000000000\n      dup2\n      mstore\n      0x04\n      add\n      tag_65\n      swap1\n      tag_66\n      jump\t// in\n    tag_65:\n      mload(0x40)\n      dup1\n      swap2\n      sub\n      swap1\n      revert\n    tag_64:\n        /* \"contracts/GeekNftMarketPlace.sol\":2805:2817  _nftContract */\n      dup3\n        /* \"contracts/GeekNftMarketPlace.sol\":2788:2831  GeekNftInterface(_nftContract).transferFrom */\n      0xffffffffffffffffffffffffffffffffffffffff\n      and\n      0x23b872dd\n        /* \"contracts/GeekNftMarketPlace.sol\":2832:2842  msg.sender */\n      caller\n        /* \"contracts/GeekNftMarketPlace.sol\":2852:2856  this */\n      address\n        /* \"contracts/GeekNftMarketPlace.sol\":2859:2867  _tokenId */\n      dup6\n        /* \"contracts/GeekNftMarketPlace.sol\":2788:2868  GeekNftInterface(_nftContract).transferFrom(msg.sender, address(this), _tokenId) */\n      mload(0x40)\n      dup5\n      0xffffffff\n      and\n      0xe0\n      shl\n      dup2\n      mstore\n      0x04\n      add\n      tag_67\n      swap4\n      swap3\n      swap2\n      swap1\n      tag_68\n      jump\t// in\n    tag_67:\n      0x00\n      mload(0x40)\n      dup1\n      dup4\n      sub\n      dup2\n      0x00\n      dup8\n      dup1\n      extcodesize\n      iszero\n      dup1\n      iszero\n      tag_69\n      jumpi\n      0x00\n      dup1\n      revert\n    tag_69:\n      pop\n      gas\n      call\n      iszero\n      dup1\n      iszero\n      tag_71\n      jumpi\n      returndatasize\n      0x00\n      dup1\n      returndatacopy\n      revert(0x00, returndatasize)\n    tag_71:\n      pop\n      pop\n      pop\n      pop\n        /* \"contracts/GeekNftMarketPlace.sol\":2879:2894  NFT storage nft */\n      0x00\n        /* \"contracts/GeekNftMarketPlace.sol\":2897:2905  _idToNft */\n      0x05\n        /* \"contracts/GeekNftMarketPlace.sol\":2897:2915  _idToNft[_tokenId] */\n      0x00\n        /* \"contracts/GeekNftMarketPlace.sol\":2906:2914  _tokenId */\n      dup5\n        /* \"contracts/GeekNftMarketPlace.sol\":2897:2915  _idToNft[_tokenId] */\n      dup2\n      mstore\n      0x20\n      add\n      swap1\n      dup2\n      mstore\n      0x20\n      add\n      0x00\n      keccak256\n        /* \"contracts/GeekNftMarketPlace.sol\":2879:2915  NFT storage nft = _idToNft[_tokenId] */\n      swap1\n      pop\n        /* \"contracts/GeekNftMarketPlace.sol\":2946:2956  msg.sender */\n      caller\n        /* \"contracts/GeekNftMarketPlace.sol\":2925:2928  nft */\n      dup2\n        /* \"contracts/GeekNftMarketPlace.sol\":2925:2935  nft.seller */\n      0x03\n      add\n      0x00\n        /* \"contracts/GeekNftMarketPlace.sol\":2925:2957  nft.seller = payable(msg.sender) */\n      0x0100\n      exp\n      dup2\n      sload\n      dup2\n      0xffffffffffffffffffffffffffffffffffffffff\n      mul\n      not\n      and\n      swap1\n      dup4\n      0xffffffffffffffffffffffffffffffffffffffff\n      and\n      mul\n      or\n      swap1\n      sstore\n      pop\n        /* \"contracts/GeekNftMarketPlace.sol\":2995:2999  this */\n      address\n        /* \"contracts/GeekNftMarketPlace.sol\":2967:2970  nft */\n      dup2\n        /* \"contracts/GeekNftMarketPlace.sol\":2967:2976  nft.owner */\n      0x04\n      add\n      0x00\n        /* \"contracts/GeekNftMarketPlace.sol\":2967:3001  nft.owner = payable(address(this)) */\n      0x0100\n      exp\n      dup2\n      sload\n      dup2\n      0xffffffffffffffffffffffffffffffffffffffff\n      mul\n      not\n      and\n      swap1\n      dup4\n      0xffffffffffffffffffffffffffffffffffffffff\n      and\n      mul\n      or\n      swap1\n      sstore\n      pop\n        /* \"contracts/GeekNftMarketPlace.sol\":3024:3028  true */\n      0x01\n        /* \"contracts/GeekNftMarketPlace.sol\":3011:3014  nft */\n      dup2\n        /* \"contracts/GeekNftMarketPlace.sol\":3011:3021  nft.listed */\n      0x05\n      add\n      0x14\n        /* \"contracts/GeekNftMarketPlace.sol\":3011:3028  nft.listed = true */\n      0x0100\n      exp\n      dup2\n      sload\n      dup2\n      0xff\n      mul\n      not\n      and\n      swap1\n      dup4\n      iszero\n      iszero\n      mul\n      or\n      swap1\n      sstore\n      pop\n        /* \"contracts/GeekNftMarketPlace.sol\":3050:3056  _price */\n      dup2\n        /* \"contracts/GeekNftMarketPlace.sol\":3038:3041  nft */\n      dup2\n        /* \"contracts/GeekNftMarketPlace.sol\":3038:3047  nft.price */\n      0x02\n      add\n        /* \"contracts/GeekNftMarketPlace.sol\":3038:3056  nft.price = _price */\n      dup2\n      swap1\n      sstore\n      pop\n        /* \"contracts/GeekNftMarketPlace.sol\":3067:3088  _nftsSold.decrement() */\n      tag_72\n        /* \"contracts/GeekNftMarketPlace.sol\":3067:3076  _nftsSold */\n      0x01\n        /* \"contracts/GeekNftMarketPlace.sol\":3067:3086  _nftsSold.decrement */\n      tag_73\n        /* \"contracts/GeekNftMarketPlace.sol\":3067:3088  _nftsSold.decrement() */\n      jump\t// in\n    tag_72:\n        /* \"contracts/GeekNftMarketPlace.sol\":3166:3170  this */\n      address\n        /* \"contracts/GeekNftMarketPlace.sol\":3112:3180  NFTListed(_nftContract, _tokenId, msg.sender, address(this), _price) */\n      0xffffffffffffffffffffffffffffffffffffffff\n      and\n        /* \"contracts/GeekNftMarketPlace.sol\":3146:3156  msg.sender */\n      caller\n        /* \"contracts/GeekNftMarketPlace.sol\":3112:3180  NFTListed(_nftContract, _tokenId, msg.sender, address(this), _price) */\n      0xffffffffffffffffffffffffffffffffffffffff\n      and\n      0xa0c6c0d02d86fdacecbaa5fdf5894bab204e31a778250474108540733a9b8d19\n        /* \"contracts/GeekNftMarketPlace.sol\":3122:3134  _nftContract */\n      dup7\n        /* \"contracts/GeekNftMarketPlace.sol\":3136:3144  _tokenId */\n      dup7\n        /* \"contracts/GeekNftMarketPlace.sol\":3173:3179  _price */\n      dup7\n        /* \"contracts/GeekNftMarketPlace.sol\":3112:3180  NFTListed(_nftContract, _tokenId, msg.sender, address(this), _price) */\n      mload(0x40)\n      tag_74\n      swap4\n      swap3\n      swap2\n      swap1\n      tag_75\n      jump\t// in\n    tag_74:\n      mload(0x40)\n      dup1\n      swap2\n      sub\n      swap1\n      log3\n        /* \"contracts/GeekNftMarketPlace.sol\":2637:3187  {... */\n      pop\n        /* \"contracts/RenntrancyGuard.sol\":128:129  1 */\n      0x01\n        /* \"contracts/RenntrancyGuard.sol\":414:421  _status */\n      0x00\n        /* \"contracts/RenntrancyGuard.sol\":414:436  _status = _NOT_ENTERED */\n      dup2\n      swap1\n      sstore\n      pop\n        /* \"contracts/GeekNftMarketPlace.sol\":2541:3187  function resellNFT(address _nftContract, uint _tokenId, uint _price) public payable nonReentrant{... */\n      pop\n      pop\n      pop\n      jump\t// out\n        /* \"contracts/GeekNftMarketPlace.sol\":4546:5217  function getMyListedNfts() public view returns (NFT[] memory) {... */\n    tag_19:\n        /* \"contracts/GeekNftMarketPlace.sol\":4594:4606  NFT[] memory */\n      0x60\n        /* \"contracts/GeekNftMarketPlace.sol\":4618:4632  uint nftsCount */\n      0x00\n        /* \"contracts/GeekNftMarketPlace.sol\":4635:4655  _nftsCount.current() */\n      tag_77\n        /* \"contracts/GeekNftMarketPlace.sol\":4635:4645  _nftsCount */\n      0x02\n        /* \"contracts/GeekNftMarketPlace.sol\":4635:4653  _nftsCount.current */\n      tag_78\n        /* \"contracts/GeekNftMarketPlace.sol\":4635:4655  _nftsCount.current() */\n      jump\t// in\n    tag_77:\n        /* \"contracts/GeekNftMarketPlace.sol\":4618:4655  uint nftsCount = _nftsCount.current() */\n      swap1\n      pop\n        /* \"contracts/GeekNftMarketPlace.sol\":4665:4681  uint myNftsCount */\n      0x00\n        /* \"contracts/GeekNftMarketPlace.sol\":4700:4706  uint i */\n      dup1\n        /* \"contracts/GeekNftMarketPlace.sol\":4709:4710  1 */\n      0x01\n        /* \"contracts/GeekNftMarketPlace.sol\":4700:4710  uint i = 1 */\n      swap1\n      pop\n        /* \"contracts/GeekNftMarketPlace.sol\":4695:4871  for (uint i = 1; i <= nftsCount; i++) {... */\n    tag_79:\n        /* \"contracts/GeekNftMarketPlace.sol\":4717:4726  nftsCount */\n      dup3\n        /* \"contracts/GeekNftMarketPlace.sol\":4712:4713  i */\n      dup2\n        /* \"contracts/GeekNftMarketPlace.sol\":4712:4726  i <= nftsCount */\n      gt\n        /* \"contracts/GeekNftMarketPlace.sol\":4695:4871  for (uint i = 1; i <= nftsCount; i++) {... */\n      tag_80\n      jumpi\n        /* \"contracts/GeekNftMarketPlace.sol\":4776:4786  msg.sender */\n      caller\n        /* \"contracts/GeekNftMarketPlace.sol\":4750:4786  _idToNft[i + 1].seller == msg.sender */\n      0xffffffffffffffffffffffffffffffffffffffff\n      and\n        /* \"contracts/GeekNftMarketPlace.sol\":4750:4758  _idToNft */\n      0x05\n        /* \"contracts/GeekNftMarketPlace.sol\":4750:4765  _idToNft[i + 1] */\n      0x00\n        /* \"contracts/GeekNftMarketPlace.sol\":4763:4764  1 */\n      0x01\n        /* \"contracts/GeekNftMarketPlace.sol\":4759:4760  i */\n      dup5\n        /* \"contracts/GeekNftMarketPlace.sol\":4759:4764  i + 1 */\n      tag_82\n      swap2\n      swap1\n      tag_83\n      jump\t// in\n    tag_82:\n        /* \"contracts/GeekNftMarketPlace.sol\":4750:4765  _idToNft[i + 1] */\n      dup2\n      mstore\n      0x20\n      add\n      swap1\n      dup2\n      mstore\n      0x20\n      add\n      0x00\n      keccak256\n        /* \"contracts/GeekNftMarketPlace.sol\":4750:4772  _idToNft[i + 1].seller */\n      0x03\n      add\n      0x00\n      swap1\n      sload\n      swap1\n      0x0100\n      exp\n      swap1\n      div\n      0xffffffffffffffffffffffffffffffffffffffff\n      and\n        /* \"contracts/GeekNftMarketPlace.sol\":4750:4786  _idToNft[i + 1].seller == msg.sender */\n      0xffffffffffffffffffffffffffffffffffffffff\n      and\n      eq\n        /* \"contracts/GeekNftMarketPlace.sol\":4750:4812  _idToNft[i + 1].seller == msg.sender && _idToNft[i + 1].listed */\n      dup1\n      iszero\n      tag_84\n      jumpi\n      pop\n        /* \"contracts/GeekNftMarketPlace.sol\":4790:4798  _idToNft */\n      0x05\n        /* \"contracts/GeekNftMarketPlace.sol\":4790:4805  _idToNft[i + 1] */\n      0x00\n        /* \"contracts/GeekNftMarketPlace.sol\":4803:4804  1 */\n      0x01\n        /* \"contracts/GeekNftMarketPlace.sol\":4799:4800  i */\n      dup4\n        /* \"contracts/GeekNftMarketPlace.sol\":4799:4804  i + 1 */\n      tag_85\n      swap2\n      swap1\n      tag_83\n      jump\t// in\n    tag_85:\n        /* \"contracts/GeekNftMarketPlace.sol\":4790:4805  _idToNft[i + 1] */\n      dup2\n      mstore\n      0x20\n      add\n      swap1\n      dup2\n      mstore\n      0x20\n      add\n      0x00\n      keccak256\n        /* \"contracts/GeekNftMarketPlace.sol\":4790:4812  _idToNft[i + 1].listed */\n      0x05\n      add\n      0x14\n      swap1\n      sload\n      swap1\n      0x0100\n      exp\n      swap1\n      div\n      0xff\n      and\n        /* \"contracts/GeekNftMarketPlace.sol\":4750:4812  _idToNft[i + 1].seller == msg.sender && _idToNft[i + 1].listed */\n    tag_84:\n        /* \"contracts/GeekNftMarketPlace.sol\":4747:4861  if(_idToNft[i + 1].seller == msg.sender && _idToNft[i + 1].listed) {... */\n      iszero\n      tag_86\n      jumpi\n        /* \"contracts/GeekNftMarketPlace.sol\":4832:4846  myNftsCount ++ */\n      dup2\n      dup1\n      tag_87\n      swap1\n      tag_88\n      jump\t// in\n    tag_87:\n      swap3\n      pop\n      pop\n        /* \"contracts/GeekNftMarketPlace.sol\":4747:4861  if(_idToNft[i + 1].seller == msg.sender && _idToNft[i + 1].listed) {... */\n    tag_86:\n        /* \"contracts/GeekNftMarketPlace.sol\":4728:4731  i++ */\n      dup1\n      dup1\n      tag_89\n      swap1\n      tag_88\n      jump\t// in\n    tag_89:\n      swap2\n      pop\n      pop\n        /* \"contracts/GeekNftMarketPlace.sol\":4695:4871  for (uint i = 1; i <= nftsCount; i++) {... */\n      jump(tag_79)\n    tag_80:\n      pop\n        /* \"contracts/GeekNftMarketPlace.sol\":4881:4900  NFT[] memory myNfts */\n      0x00\n        /* \"contracts/GeekNftMarketPlace.sol\":4913:4924  myNftsCount */\n      dup2\n        /* \"contracts/GeekNftMarketPlace.sol\":4903:4925  new NFT[](myNftsCount) */\n      0xffffffffffffffff\n      dup2\n      gt\n      iszero\n      tag_90\n      jumpi\n      tag_91\n      tag_92\n      jump\t// in\n    tag_91:\n    tag_90:\n      mload(0x40)\n      swap1\n      dup1\n      dup3\n      mstore\n      dup1\n      0x20\n      mul\n      0x20\n      add\n      dup3\n      add\n      0x40\n      mstore\n      dup1\n      iszero\n      tag_93\n      jumpi\n      dup2\n      0x20\n      add\n    tag_94:\n      tag_95\n      tag_96\n      jump\t// in\n    tag_95:\n      dup2\n      mstore\n      0x20\n      add\n      swap1\n      0x01\n      swap1\n      sub\n      swap1\n      dup2\n      tag_94\n      jumpi\n      swap1\n      pop\n    tag_93:\n      pop\n        /* \"contracts/GeekNftMarketPlace.sol\":4881:4925  NFT[] memory myNfts = new NFT[](myNftsCount) */\n      swap1\n      pop\n        /* \"contracts/GeekNftMarketPlace.sol\":4935:4948  uint nftIndex */\n      0x00\n        /* \"contracts/GeekNftMarketPlace.sol\":4967:4973  uint i */\n      dup1\n        /* \"contracts/GeekNftMarketPlace.sol\":4976:4977  1 */\n      0x01\n        /* \"contracts/GeekNftMarketPlace.sol\":4967:4977  uint i = 1 */\n      swap1\n      pop\n        /* \"contracts/GeekNftMarketPlace.sol\":4962:5187  for (uint i = 1; i <= nftsCount; i++) {... */\n    tag_97:\n        /* \"contracts/GeekNftMarketPlace.sol\":4984:4993  nftsCount */\n      dup5\n        /* \"contracts/GeekNftMarketPlace.sol\":4979:4980  i */\n      dup2\n        /* \"contracts/GeekNftMarketPlace.sol\":4979:4993  i <= nftsCount */\n      gt\n        /* \"contracts/GeekNftMarketPlace.sol\":4962:5187  for (uint i = 1; i <= nftsCount; i++) {... */\n      tag_98\n      jumpi\n        /* \"contracts/GeekNftMarketPlace.sol\":5043:5053  msg.sender */\n      caller\n        /* \"contracts/GeekNftMarketPlace.sol\":5017:5053  _idToNft[i + 1].seller == msg.sender */\n      0xffffffffffffffffffffffffffffffffffffffff\n      and\n        /* \"contracts/GeekNftMarketPlace.sol\":5017:5025  _idToNft */\n      0x05\n        /* \"contracts/GeekNftMarketPlace.sol\":5017:5032  _idToNft[i + 1] */\n      0x00\n        /* \"contracts/GeekNftMarketPlace.sol\":5030:5031  1 */\n      0x01\n        /* \"contracts/GeekNftMarketPlace.sol\":5026:5027  i */\n      dup5\n        /* \"contracts/GeekNftMarketPlace.sol\":5026:5031  i + 1 */\n      tag_100\n      swap2\n      swap1\n      tag_83\n      jump\t// in\n    tag_100:\n        /* \"contracts/GeekNftMarketPlace.sol\":5017:5032  _idToNft[i + 1] */\n      dup2\n      mstore\n      0x20\n      add\n      swap1\n      dup2\n      mstore\n      0x20\n      add\n      0x00\n      keccak256\n        /* \"contracts/GeekNftMarketPlace.sol\":5017:5039  _idToNft[i + 1].seller */\n      0x03\n      add\n      0x00\n      swap1\n      sload\n      swap1\n      0x0100\n      exp\n      swap1\n      div\n      0xffffffffffffffffffffffffffffffffffffffff\n      and\n        /* \"contracts/GeekNftMarketPlace.sol\":5017:5053  _idToNft[i + 1].seller == msg.sender */\n      0xffffffffffffffffffffffffffffffffffffffff\n      and\n      eq\n        /* \"contracts/GeekNftMarketPlace.sol\":5017:5079  _idToNft[i + 1].seller == msg.sender && _idToNft[i + 1].listed */\n      dup1\n      iszero\n      tag_101\n      jumpi\n      pop\n        /* \"contracts/GeekNftMarketPlace.sol\":5057:5065  _idToNft */\n      0x05\n        /* \"contracts/GeekNftMarketPlace.sol\":5057:5072  _idToNft[i + 1] */\n      0x00\n        /* \"contracts/GeekNftMarketPlace.sol\":5070:5071  1 */\n      0x01\n        /* \"contracts/GeekNftMarketPlace.sol\":5066:5067  i */\n      dup4\n        /* \"contracts/GeekNftMarketPlace.sol\":5066:5071  i + 1 */\n      tag_102\n      swap2\n      swap1\n      tag_83\n      jump\t// in\n    tag_102:\n        /* \"contracts/GeekNftMarketPlace.sol\":5057:5072  _idToNft[i + 1] */\n      dup2\n      mstore\n      0x20\n      add\n      swap1\n      dup2\n      mstore\n      0x20\n      add\n      0x00\n      keccak256\n        /* \"contracts/GeekNftMarketPlace.sol\":5057:5079  _idToNft[i + 1].listed */\n      0x05\n      add\n      0x14\n      swap1\n      sload\n      swap1\n      0x0100\n      exp\n      swap1\n      div\n      0xff\n      and\n        /* \"contracts/GeekNftMarketPlace.sol\":5017:5079  _idToNft[i + 1].seller == msg.sender && _idToNft[i + 1].listed */\n    tag_101:\n        /* \"contracts/GeekNftMarketPlace.sol\":5014:5177  if(_idToNft[i + 1].seller == msg.sender && _idToNft[i + 1].listed) {... */\n      iszero\n      tag_103\n      jumpi\n        /* \"contracts/GeekNftMarketPlace.sol\":5118:5126  _idToNft */\n      0x05\n        /* \"contracts/GeekNftMarketPlace.sol\":5118:5133  _idToNft[i + 1] */\n      0x00\n        /* \"contracts/GeekNftMarketPlace.sol\":5131:5132  1 */\n      0x01\n        /* \"contracts/GeekNftMarketPlace.sol\":5127:5128  i */\n      dup4\n        /* \"contracts/GeekNftMarketPlace.sol\":5127:5132  i + 1 */\n      tag_104\n      swap2\n      swap1\n      tag_83\n      jump\t// in\n    tag_104:\n        /* \"contracts/GeekNftMarketPlace.sol\":5118:5133  _idToNft[i + 1] */\n      dup2\n      mstore\n      0x20\n      add\n      swap1\n      dup2\n      mstore\n      0x20\n      add\n      0x00\n      keccak256\n        /* \"contracts/GeekNftMarketPlace.sol\":5099:5133  myNfts[nftIndex] = _idToNft[i + 1] */\n      mload(0x40)\n      dup1\n      0xe0\n      add\n      0x40\n      mstore\n      swap1\n      dup2\n      0x00\n      dup3\n      add\n      0x00\n      swap1\n      sload\n      swap1\n      0x0100\n      exp\n      swap1\n      div\n      0xffffffffffffffffffffffffffffffffffffffff\n      and\n      0xffffffffffffffffffffffffffffffffffffffff\n      and\n      0xffffffffffffffffffffffffffffffffffffffff\n      and\n      dup2\n      mstore\n      0x20\n      add\n      0x01\n      dup3\n      add\n      sload\n      dup2\n      mstore\n      0x20\n      add\n      0x02\n      dup3\n      add\n      sload\n      dup2\n      mstore\n      0x20\n      add\n      0x03\n      dup3\n      add\n      0x00\n      swap1\n      sload\n      swap1\n      0x0100\n      exp\n      swap1\n      div\n      0xffffffffffffffffffffffffffffffffffffffff\n      and\n      0xffffffffffffffffffffffffffffffffffffffff\n      and\n      0xffffffffffffffffffffffffffffffffffffffff\n      and\n      dup2\n      mstore\n      0x20\n      add\n      0x04\n      dup3\n      add\n      0x00\n      swap1\n      sload\n      swap1\n      0x0100\n      exp\n      swap1\n      div\n      0xffffffffffffffffffffffffffffffffffffffff\n      and\n      0xffffffffffffffffffffffffffffffffffffffff\n      and\n      0xffffffffffffffffffffffffffffffffffffffff\n      and\n      dup2\n      mstore\n      0x20\n      add\n      0x05\n      dup3\n      add\n      0x00\n      swap1\n      sload\n      swap1\n      0x0100\n      exp\n      swap1\n      div\n      0xffffffffffffffffffffffffffffffffffffffff\n      and\n      0xffffffffffffffffffffffffffffffffffffffff\n      and\n      0xffffffffffffffffffffffffffffffffffffffff\n      and\n      dup2\n      mstore\n      0x20\n      add\n      0x05\n      dup3\n      add\n      0x14\n      swap1\n      sload\n      swap1\n      0x0100\n      exp\n      swap1\n      div\n      0xff\n      and\n      iszero\n      iszero\n      iszero\n      iszero\n      dup2\n      mstore\n      pop\n      pop\n        /* \"contracts/GeekNftMarketPlace.sol\":5099:5105  myNfts */\n      dup4\n        /* \"contracts/GeekNftMarketPlace.sol\":5106:5114  nftIndex */\n      dup4\n        /* \"contracts/GeekNftMarketPlace.sol\":5099:5115  myNfts[nftIndex] */\n      dup2\n      mload\n      dup2\n      lt\n      tag_105\n      jumpi\n      tag_106\n      tag_107\n      jump\t// in\n    tag_106:\n    tag_105:\n      0x20\n      mul\n      0x20\n      add\n      add\n        /* \"contracts/GeekNftMarketPlace.sol\":5099:5133  myNfts[nftIndex] = _idToNft[i + 1] */\n      dup2\n      swap1\n      mstore\n      pop\n        /* \"contracts/GeekNftMarketPlace.sol\":5151:5162  nftIndex ++ */\n      dup2\n      dup1\n      tag_108\n      swap1\n      tag_88\n      jump\t// in\n    tag_108:\n      swap3\n      pop\n      pop\n        /* \"contracts/GeekNftMarketPlace.sol\":5014:5177  if(_idToNft[i + 1].seller == msg.sender && _idToNft[i + 1].listed) {... */\n    tag_103:\n        /* \"contracts/GeekNftMarketPlace.sol\":4995:4998  i++ */\n      dup1\n      dup1\n      tag_109\n      swap1\n      tag_88\n      jump\t// in\n    tag_109:\n      swap2\n      pop\n      pop\n        /* \"contracts/GeekNftMarketPlace.sol\":4962:5187  for (uint i = 1; i <= nftsCount; i++) {... */\n      jump(tag_97)\n    tag_98:\n      pop\n        /* \"contracts/GeekNftMarketPlace.sol\":5204:5210  myNfts */\n      dup2\n        /* \"contracts/GeekNftMarketPlace.sol\":5197:5210  return myNfts */\n      swap5\n      pop\n      pop\n      pop\n      pop\n      pop\n        /* \"contracts/GeekNftMarketPlace.sol\":4546:5217  function getMyListedNfts() public view returns (NFT[] memory) {... */\n      swap1\n      jump\t// out\n        /* \"contracts/GeekNftMarketPlace.sol\":402:439  uint public LISTING_FEE = 0.002 ether */\n    tag_24:\n      sload(0x03)\n      dup2\n      jump\t// out\n        /* \"contracts/GeekNftMarketPlace.sol\":1926:2486  function buyNft(address _nftContract, uint _tokenId) public payable nonReentrant{... */\n    tag_30:\n        /* \"contracts/RenntrancyGuard.sol\":171:172  2 */\n      0x02\n        /* \"contracts/RenntrancyGuard.sol\":310:317  _status */\n      sload(0x00)\n        /* \"contracts/RenntrancyGuard.sol\":310:329  _status != _ENTERED */\n      eq\n      iszero\n        /* \"contracts/RenntrancyGuard.sol\":302:365  require(_status != _ENTERED, \"ReentrancyGuard: reentrant call\") */\n      tag_111\n      jumpi\n      mload(0x40)\n      0x08c379a000000000000000000000000000000000000000000000000000000000\n      dup2\n      mstore\n      0x04\n      add\n      tag_112\n      swap1\n      tag_59\n      jump\t// in\n    tag_112:\n      mload(0x40)\n      dup1\n      swap2\n      sub\n      swap1\n      revert\n    tag_111:\n        /* \"contracts/RenntrancyGuard.sol\":171:172  2 */\n      0x02\n        /* \"contracts/RenntrancyGuard.sol\":375:382  _status */\n      0x00\n        /* \"contracts/RenntrancyGuard.sol\":375:393  _status = _ENTERED */\n      dup2\n      swap1\n      sstore\n      pop\n        /* \"contracts/GeekNftMarketPlace.sol\":2016:2031  NFT storage nft */\n      0x00\n        /* \"contracts/GeekNftMarketPlace.sol\":2034:2042  _idToNft */\n      0x05\n        /* \"contracts/GeekNftMarketPlace.sol\":2034:2052  _idToNft[_tokenId] */\n      0x00\n        /* \"contracts/GeekNftMarketPlace.sol\":2043:2051  _tokenId */\n      dup4\n        /* \"contracts/GeekNftMarketPlace.sol\":2034:2052  _idToNft[_tokenId] */\n      dup2\n      mstore\n      0x20\n      add\n      swap1\n      dup2\n      mstore\n      0x20\n      add\n      0x00\n      keccak256\n        /* \"contracts/GeekNftMarketPlace.sol\":2016:2052  NFT storage nft = _idToNft[_tokenId] */\n      swap1\n      pop\n        /* \"contracts/GeekNftMarketPlace.sol\":2083:2086  nft */\n      dup1\n        /* \"contracts/GeekNftMarketPlace.sol\":2083:2092  nft.price */\n      0x02\n      add\n      sload\n        /* \"contracts/GeekNftMarketPlace.sol\":2070:2079  msg.value */\n      callvalue\n        /* \"contracts/GeekNftMarketPlace.sol\":2070:2092  msg.value >= nft.price */\n      lt\n      iszero\n        /* \"contracts/GeekNftMarketPlace.sol\":2062:2135  require(msg.value >= nft.price, \"Not enough ether to cover asking price\") */\n      tag_114\n      jumpi\n      mload(0x40)\n      0x08c379a000000000000000000000000000000000000000000000000000000000\n      dup2\n      mstore\n      0x04\n      add\n      tag_115\n      swap1\n      tag_116\n      jump\t// in\n    tag_115:\n      mload(0x40)\n      dup1\n      swap2\n      sub\n      swap1\n      revert\n    tag_114:\n        /* \"contracts/GeekNftMarketPlace.sol\":2146:2167  address payable buyer */\n      0x00\n        /* \"contracts/GeekNftMarketPlace.sol\":2178:2188  msg.sender */\n      caller\n        /* \"contracts/GeekNftMarketPlace.sol\":2146:2189  address payable buyer = payable(msg.sender) */\n      swap1\n      pop\n        /* \"contracts/GeekNftMarketPlace.sol\":2199:2202  nft */\n      dup2\n        /* \"contracts/GeekNftMarketPlace.sol\":2199:2209  nft.seller */\n      0x03\n      add\n      0x00\n      swap1\n      sload\n      swap1\n      0x0100\n      exp\n      swap1\n      div\n      0xffffffffffffffffffffffffffffffffffffffff\n      and\n        /* \"contracts/GeekNftMarketPlace.sol\":2199:2218  nft.seller.transfer */\n      0xffffffffffffffffffffffffffffffffffffffff\n      and\n        /* \"contracts/GeekNftMarketPlace.sol\":2199:2229  nft.seller.transfer(msg.value) */\n      0x08fc\n        /* \"contracts/GeekNftMarketPlace.sol\":2219:2228  msg.value */\n      callvalue\n        /* \"contracts/GeekNftMarketPlace.sol\":2199:2229  nft.seller.transfer(msg.value) */\n      swap1\n      dup2\n      iszero\n      mul\n      swap1\n      mload(0x40)\n      0x00\n      mload(0x40)\n      dup1\n      dup4\n      sub\n      dup2\n      dup6\n      dup9\n      dup9\n      call\n      swap4\n      pop\n      pop\n      pop\n      pop\n      iszero\n      dup1\n      iszero\n      tag_118\n      jumpi\n      returndatasize\n      0x00\n      dup1\n      returndatacopy\n      revert(0x00, returndatasize)\n    tag_118:\n      pop\n        /* \"contracts/GeekNftMarketPlace.sol\":2257:2269  _nftContract */\n      dup4\n        /* \"contracts/GeekNftMarketPlace.sol\":2240:2283  GeekNftInterface(_nftContract).transferFrom */\n      0xffffffffffffffffffffffffffffffffffffffff\n      and\n      0x23b872dd\n        /* \"contracts/GeekNftMarketPlace.sol\":2292:2296  this */\n      address\n        /* \"contracts/GeekNftMarketPlace.sol\":2299:2304  buyer */\n      dup4\n        /* \"contracts/GeekNftMarketPlace.sol\":2306:2314  _tokenId */\n      dup7\n        /* \"contracts/GeekNftMarketPlace.sol\":2240:2315  GeekNftInterface(_nftContract).transferFrom(address(this), buyer, _tokenId) */\n      mload(0x40)\n      dup5\n      0xffffffff\n      and\n      0xe0\n      shl\n      dup2\n      mstore\n      0x04\n      add\n      tag_119\n      swap4\n      swap3\n      swap2\n      swap1\n      tag_120\n      jump\t// in\n    tag_119:\n      0x00\n      mload(0x40)\n      dup1\n      dup4\n      sub\n      dup2\n      0x00\n      dup8\n      dup1\n      extcodesize\n      iszero\n      dup1\n      iszero\n      tag_121\n      jumpi\n      0x00\n      dup1\n      revert\n    tag_121:\n      pop\n      gas\n      call\n      iszero\n      dup1\n      iszero\n      tag_123\n      jumpi\n      returndatasize\n      0x00\n      dup1\n      returndatacopy\n      revert(0x00, returndatasize)\n    tag_123:\n      pop\n      pop\n      pop\n      pop\n        /* \"contracts/GeekNftMarketPlace.sol\":2337:2342  buyer */\n      dup1\n        /* \"contracts/GeekNftMarketPlace.sol\":2325:2328  nft */\n      dup3\n        /* \"contracts/GeekNftMarketPlace.sol\":2325:2334  nft.owner */\n      0x04\n      add\n      0x00\n        /* \"contracts/GeekNftMarketPlace.sol\":2325:2342  nft.owner = buyer */\n      0x0100\n      exp\n      dup2\n      sload\n      dup2\n      0xffffffffffffffffffffffffffffffffffffffff\n      mul\n      not\n      and\n      swap1\n      dup4\n      0xffffffffffffffffffffffffffffffffffffffff\n      and\n      mul\n      or\n      swap1\n      sstore\n      pop\n        /* \"contracts/GeekNftMarketPlace.sol\":2365:2370  false */\n      0x00\n        /* \"contracts/GeekNftMarketPlace.sol\":2352:2355  nft */\n      dup3\n        /* \"contracts/GeekNftMarketPlace.sol\":2352:2362  nft.listed */\n      0x05\n      add\n      0x14\n        /* \"contracts/GeekNftMarketPlace.sol\":2352:2370  nft.listed = false */\n      0x0100\n      exp\n      dup2\n      sload\n      dup2\n      0xff\n      mul\n      not\n      and\n      swap1\n      dup4\n      iszero\n      iszero\n      mul\n      or\n      swap1\n      sstore\n      pop\n        /* \"contracts/GeekNftMarketPlace.sol\":2381:2402  _nftsSold.increment() */\n      tag_124\n        /* \"contracts/GeekNftMarketPlace.sol\":2381:2390  _nftsSold */\n      0x01\n        /* \"contracts/GeekNftMarketPlace.sol\":2381:2400  _nftsSold.increment */\n      tag_125\n        /* \"contracts/GeekNftMarketPlace.sol\":2381:2402  _nftsSold.increment() */\n      jump\t// in\n    tag_124:\n        /* \"contracts/GeekNftMarketPlace.sol\":2462:2467  buyer */\n      dup1\n        /* \"contracts/GeekNftMarketPlace.sol\":2418:2479  NFTSold(_nftContract, _tokenId, nft.seller, buyer, msg.value) */\n      0xffffffffffffffffffffffffffffffffffffffff\n      and\n        /* \"contracts/GeekNftMarketPlace.sol\":2450:2453  nft */\n      dup3\n        /* \"contracts/GeekNftMarketPlace.sol\":2450:2460  nft.seller */\n      0x03\n      add\n      0x00\n      swap1\n      sload\n      swap1\n      0x0100\n      exp\n      swap1\n      div\n      0xffffffffffffffffffffffffffffffffffffffff\n      and\n        /* \"contracts/GeekNftMarketPlace.sol\":2418:2479  NFTSold(_nftContract, _tokenId, nft.seller, buyer, msg.value) */\n      0xffffffffffffffffffffffffffffffffffffffff\n      and\n      0x16f1dbd97e6bf646d429ed186cce832f1f7fd9907814293b83181e9970ab7bd2\n        /* \"contracts/GeekNftMarketPlace.sol\":2426:2438  _nftContract */\n      dup7\n        /* \"contracts/GeekNftMarketPlace.sol\":2440:2448  _tokenId */\n      dup7\n        /* \"contracts/GeekNftMarketPlace.sol\":2469:2478  msg.value */\n      callvalue\n        /* \"contracts/GeekNftMarketPlace.sol\":2418:2479  NFTSold(_nftContract, _tokenId, nft.seller, buyer, msg.value) */\n      mload(0x40)\n      tag_126\n      swap4\n      swap3\n      swap2\n      swap1\n      tag_75\n      jump\t// in\n    tag_126:\n      mload(0x40)\n      dup1\n      swap2\n      sub\n      swap1\n      log3\n        /* \"contracts/GeekNftMarketPlace.sol\":2006:2486  {... */\n      pop\n      pop\n        /* \"contracts/RenntrancyGuard.sol\":128:129  1 */\n      0x01\n        /* \"contracts/RenntrancyGuard.sol\":414:421  _status */\n      0x00\n        /* \"contracts/RenntrancyGuard.sol\":414:436  _status = _NOT_ENTERED */\n      dup2\n      swap1\n      sstore\n      pop\n        /* \"contracts/GeekNftMarketPlace.sol\":1926:2486  function buyNft(address _nftContract, uint _tokenId) public payable nonReentrant{... */\n      pop\n      pop\n      jump\t// out\n        /* \"contracts/GeekNftMarketPlace.sol\":3883:4505  function getMyCreatedNfts() public view returns (NFT[] memory) {... */\n    tag_33:\n        /* \"contracts/GeekNftMarketPlace.sol\":3932:3944  NFT[] memory */\n      0x60\n        /* \"contracts/GeekNftMarketPlace.sol\":3956:3970  uint nftsCount */\n      0x00\n        /* \"contracts/GeekNftMarketPlace.sol\":3973:3993  _nftsCount.current() */\n      tag_128\n        /* \"contracts/GeekNftMarketPlace.sol\":3973:3983  _nftsCount */\n      0x02\n        /* \"contracts/GeekNftMarketPlace.sol\":3973:3991  _nftsCount.current */\n      tag_78\n        /* \"contracts/GeekNftMarketPlace.sol\":3973:3993  _nftsCount.current() */\n      jump\t// in\n    tag_128:\n        /* \"contracts/GeekNftMarketPlace.sol\":3956:3993  uint nftsCount = _nftsCount.current() */\n      swap1\n      pop\n        /* \"contracts/GeekNftMarketPlace.sol\":4003:4019  uint myNftsCount */\n      0x00\n        /* \"contracts/GeekNftMarketPlace.sol\":4038:4044  uint i */\n      dup1\n        /* \"contracts/GeekNftMarketPlace.sol\":4047:4048  1 */\n      0x01\n        /* \"contracts/GeekNftMarketPlace.sol\":4038:4048  uint i = 1 */\n      swap1\n      pop\n        /* \"contracts/GeekNftMarketPlace.sol\":4033:4184  for (uint i = 1; i <= nftsCount; i++) {... */\n    tag_129:\n        /* \"contracts/GeekNftMarketPlace.sol\":4055:4064  nftsCount */\n      dup3\n        /* \"contracts/GeekNftMarketPlace.sol\":4050:4051  i */\n      dup2\n        /* \"contracts/GeekNftMarketPlace.sol\":4050:4064  i <= nftsCount */\n      gt\n        /* \"contracts/GeekNftMarketPlace.sol\":4033:4184  for (uint i = 1; i <= nftsCount; i++) {... */\n      tag_130\n      jumpi\n        /* \"contracts/GeekNftMarketPlace.sol\":4115:4125  msg.sender */\n      caller\n        /* \"contracts/GeekNftMarketPlace.sol\":4088:4125  _idToNft[i + 1].creator == msg.sender */\n      0xffffffffffffffffffffffffffffffffffffffff\n      and\n        /* \"contracts/GeekNftMarketPlace.sol\":4088:4096  _idToNft */\n      0x05\n        /* \"contracts/GeekNftMarketPlace.sol\":4088:4103  _idToNft[i + 1] */\n      0x00\n        /* \"contracts/GeekNftMarketPlace.sol\":4101:4102  1 */\n      0x01\n        /* \"contracts/GeekNftMarketPlace.sol\":4097:4098  i */\n      dup5\n        /* \"contracts/GeekNftMarketPlace.sol\":4097:4102  i + 1 */\n      tag_132\n      swap2\n      swap1\n      tag_83\n      jump\t// in\n    tag_132:\n        /* \"contracts/GeekNftMarketPlace.sol\":4088:4103  _idToNft[i + 1] */\n      dup2\n      mstore\n      0x20\n      add\n      swap1\n      dup2\n      mstore\n      0x20\n      add\n      0x00\n      keccak256\n        /* \"contracts/GeekNftMarketPlace.sol\":4088:4111  _idToNft[i + 1].creator */\n      0x05\n      add\n      0x00\n      swap1\n      sload\n      swap1\n      0x0100\n      exp\n      swap1\n      div\n      0xffffffffffffffffffffffffffffffffffffffff\n      and\n        /* \"contracts/GeekNftMarketPlace.sol\":4088:4125  _idToNft[i + 1].creator == msg.sender */\n      0xffffffffffffffffffffffffffffffffffffffff\n      and\n      eq\n        /* \"contracts/GeekNftMarketPlace.sol\":4085:4174  if(_idToNft[i + 1].creator == msg.sender) {... */\n      iszero\n      tag_133\n      jumpi\n        /* \"contracts/GeekNftMarketPlace.sol\":4145:4159  myNftsCount ++ */\n      dup2\n      dup1\n      tag_134\n      swap1\n      tag_88\n      jump\t// in\n    tag_134:\n      swap3\n      pop\n      pop\n        /* \"contracts/GeekNftMarketPlace.sol\":4085:4174  if(_idToNft[i + 1].creator == msg.sender) {... */\n    tag_133:\n        /* \"contracts/GeekNftMarketPlace.sol\":4066:4069  i++ */\n      dup1\n      dup1\n      tag_135\n      swap1\n      tag_88\n      jump\t// in\n    tag_135:\n      swap2\n      pop\n      pop\n        /* \"contracts/GeekNftMarketPlace.sol\":4033:4184  for (uint i = 1; i <= nftsCount; i++) {... */\n      jump(tag_129)\n    tag_130:\n      pop\n        /* \"contracts/GeekNftMarketPlace.sol\":4194:4213  NFT[] memory myNfts */\n      0x00\n        /* \"contracts/GeekNftMarketPlace.sol\":4226:4237  myNftsCount */\n      dup2\n        /* \"contracts/GeekNftMarketPlace.sol\":4216:4238  new NFT[](myNftsCount) */\n      0xffffffffffffffff\n      dup2\n      gt\n      iszero\n      tag_136\n      jumpi\n      tag_137\n      tag_92\n      jump\t// in\n    tag_137:\n    tag_136:\n      mload(0x40)\n      swap1\n      dup1\n      dup3\n      mstore\n      dup1\n      0x20\n      mul\n      0x20\n      add\n      dup3\n      add\n      0x40\n      mstore\n      dup1\n      iszero\n      tag_138\n      jumpi\n      dup2\n      0x20\n      add\n    tag_139:\n      tag_140\n      tag_96\n      jump\t// in\n    tag_140:\n      dup2\n      mstore\n      0x20\n      add\n      swap1\n      0x01\n      swap1\n      sub\n      swap1\n      dup2\n      tag_139\n      jumpi\n      swap1\n      pop\n    tag_138:\n      pop\n        /* \"contracts/GeekNftMarketPlace.sol\":4194:4238  NFT[] memory myNfts = new NFT[](myNftsCount) */\n      swap1\n      pop\n        /* \"contracts/GeekNftMarketPlace.sol\":4248:4261  uint nftIndex */\n      0x00\n        /* \"contracts/GeekNftMarketPlace.sol\":4280:4286  uint i */\n      dup1\n        /* \"contracts/GeekNftMarketPlace.sol\":4289:4290  1 */\n      0x01\n        /* \"contracts/GeekNftMarketPlace.sol\":4280:4290  uint i = 1 */\n      swap1\n      pop\n        /* \"contracts/GeekNftMarketPlace.sol\":4275:4475  for (uint i = 1; i <= nftsCount; i++) {... */\n    tag_141:\n        /* \"contracts/GeekNftMarketPlace.sol\":4297:4306  nftsCount */\n      dup5\n        /* \"contracts/GeekNftMarketPlace.sol\":4292:4293  i */\n      dup2\n        /* \"contracts/GeekNftMarketPlace.sol\":4292:4306  i <= nftsCount */\n      gt\n        /* \"contracts/GeekNftMarketPlace.sol\":4275:4475  for (uint i = 1; i <= nftsCount; i++) {... */\n      tag_142\n      jumpi\n        /* \"contracts/GeekNftMarketPlace.sol\":4357:4367  msg.sender */\n      caller\n        /* \"contracts/GeekNftMarketPlace.sol\":4330:4367  _idToNft[i + 1].creator == msg.sender */\n      0xffffffffffffffffffffffffffffffffffffffff\n      and\n        /* \"contracts/GeekNftMarketPlace.sol\":4330:4338  _idToNft */\n      0x05\n        /* \"contracts/GeekNftMarketPlace.sol\":4330:4345  _idToNft[i + 1] */\n      0x00\n        /* \"contracts/GeekNftMarketPlace.sol\":4343:4344  1 */\n      0x01\n        /* \"contracts/GeekNftMarketPlace.sol\":4339:4340  i */\n      dup5\n        /* \"contracts/GeekNftMarketPlace.sol\":4339:4344  i + 1 */\n      tag_144\n      swap2\n      swap1\n      tag_83\n      jump\t// in\n    tag_144:\n        /* \"contracts/GeekNftMarketPlace.sol\":4330:4345  _idToNft[i + 1] */\n      dup2\n      mstore\n      0x20\n      add\n      swap1\n      dup2\n      mstore\n      0x20\n      add\n      0x00\n      keccak256\n        /* \"contracts/GeekNftMarketPlace.sol\":4330:4353  _idToNft[i + 1].creator */\n      0x05\n      add\n      0x00\n      swap1\n      sload\n      swap1\n      0x0100\n      exp\n      swap1\n      div\n      0xffffffffffffffffffffffffffffffffffffffff\n      and\n        /* \"contracts/GeekNftMarketPlace.sol\":4330:4367  _idToNft[i + 1].creator == msg.sender */\n      0xffffffffffffffffffffffffffffffffffffffff\n      and\n      eq\n        /* \"contracts/GeekNftMarketPlace.sol\":4327:4465  if(_idToNft[i + 1].creator == msg.sender) {... */\n      iszero\n      tag_145\n      jumpi\n        /* \"contracts/GeekNftMarketPlace.sol\":4406:4414  _idToNft */\n      0x05\n        /* \"contracts/GeekNftMarketPlace.sol\":4406:4421  _idToNft[i + 1] */\n      0x00\n        /* \"contracts/GeekNftMarketPlace.sol\":4419:4420  1 */\n      0x01\n        /* \"contracts/GeekNftMarketPlace.sol\":4415:4416  i */\n      dup4\n        /* \"contracts/GeekNftMarketPlace.sol\":4415:4420  i + 1 */\n      tag_146\n      swap2\n      swap1\n      tag_83\n      jump\t// in\n    tag_146:\n        /* \"contracts/GeekNftMarketPlace.sol\":4406:4421  _idToNft[i + 1] */\n      dup2\n      mstore\n      0x20\n      add\n      swap1\n      dup2\n      mstore\n      0x20\n      add\n      0x00\n      keccak256\n        /* \"contracts/GeekNftMarketPlace.sol\":4387:4421  myNfts[nftIndex] = _idToNft[i + 1] */\n      mload(0x40)\n      dup1\n      0xe0\n      add\n      0x40\n      mstore\n      swap1\n      dup2\n      0x00\n      dup3\n      add\n      0x00\n      swap1\n      sload\n      swap1\n      0x0100\n      exp\n      swap1\n      div\n      0xffffffffffffffffffffffffffffffffffffffff\n      and\n      0xffffffffffffffffffffffffffffffffffffffff\n      and\n      0xffffffffffffffffffffffffffffffffffffffff\n      and\n      dup2\n      mstore\n      0x20\n      add\n      0x01\n      dup3\n      add\n      sload\n      dup2\n      mstore\n      0x20\n      add\n      0x02\n      dup3\n      add\n      sload\n      dup2\n      mstore\n      0x20\n      add\n      0x03\n      dup3\n      add\n      0x00\n      swap1\n      sload\n      swap1\n      0x0100\n      exp\n      swap1\n      div\n      0xffffffffffffffffffffffffffffffffffffffff\n      and\n      0xffffffffffffffffffffffffffffffffffffffff\n      and\n      0xffffffffffffffffffffffffffffffffffffffff\n      and\n      dup2\n      mstore\n      0x20\n      add\n      0x04\n      dup3\n      add\n      0x00\n      swap1\n      sload\n      swap1\n      0x0100\n      exp\n      swap1\n      div\n      0xffffffffffffffffffffffffffffffffffffffff\n      and\n      0xffffffffffffffffffffffffffffffffffffffff\n      and\n      0xffffffffffffffffffffffffffffffffffffffff\n      and\n      dup2\n      mstore\n      0x20\n      add\n      0x05\n      dup3\n      add\n      0x00\n      swap1\n      sload\n      swap1\n      0x0100\n      exp\n      swap1\n      div\n      0xffffffffffffffffffffffffffffffffffffffff\n      and\n      0xffffffffffffffffffffffffffffffffffffffff\n      and\n      0xffffffffffffffffffffffffffffffffffffffff\n      and\n      dup2\n      mstore\n      0x20\n      add\n      0x05\n      dup3\n      add\n      0x14\n      swap1\n      sload\n      swap1\n      0x0100\n      exp\n      swap1\n      div\n      0xff\n      and\n      iszero\n      iszero\n      iszero\n      iszero\n      dup2\n      mstore\n      pop\n      pop\n        /* \"contracts/GeekNftMarketPlace.sol\":4387:4393  myNfts */\n      dup4\n        /* \"contracts/GeekNftMarketPlace.sol\":4394:4402  nftIndex */\n      dup4\n        /* \"contracts/GeekNftMarketPlace.sol\":4387:4403  myNfts[nftIndex] */\n      dup2\n      mload\n      dup2\n      lt\n      tag_147\n      jumpi\n      tag_148\n      tag_107\n      jump\t// in\n    tag_148:\n    tag_147:\n      0x20\n      mul\n      0x20\n      add\n      add\n        /* \"contracts/GeekNftMarketPlace.sol\":4387:4421  myNfts[nftIndex] = _idToNft[i + 1] */\n      dup2\n      swap1\n      mstore\n      pop\n        /* \"contracts/GeekNftMarketPlace.sol\":4439:4450  nftIndex ++ */\n      dup2\n      dup1\n      tag_149\n      swap1\n      tag_88\n      jump\t// in\n    tag_149:\n      swap3\n      pop\n      pop\n        /* \"contracts/GeekNftMarketPlace.sol\":4327:4465  if(_idToNft[i + 1].creator == msg.sender) {... */\n    tag_145:\n        /* \"contracts/GeekNftMarketPlace.sol\":4308:4311  i++ */\n      dup1\n      dup1\n      tag_150\n      swap1\n      tag_88\n      jump\t// in\n    tag_150:\n      swap2\n      pop\n      pop\n        /* \"contracts/GeekNftMarketPlace.sol\":4275:4475  for (uint i = 1; i <= nftsCount; i++) {... */\n      jump(tag_141)\n    tag_142:\n      pop\n        /* \"contracts/GeekNftMarketPlace.sol\":4492:4498  myNfts */\n      dup2\n        /* \"contracts/GeekNftMarketPlace.sol\":4485:4498  return myNfts */\n      swap5\n      pop\n      pop\n      pop\n      pop\n      pop\n        /* \"contracts/GeekNftMarketPlace.sol\":3883:4505  function getMyCreatedNfts() public view returns (NFT[] memory) {... */\n      swap1\n      jump\t// out\n        /* \"contracts/GeekNftMarketPlace.sol\":5902:6366  function getListedNfts() public view returns (NFT[] memory) {... */\n    tag_37:\n        /* \"contracts/GeekNftMarketPlace.sol\":5948:5960  NFT[] memory */\n      0x60\n        /* \"contracts/GeekNftMarketPlace.sol\":5972:5988  uint256 nftCount */\n      0x00\n        /* \"contracts/GeekNftMarketPlace.sol\":5991:6011  _nftsCount.current() */\n      tag_152\n        /* \"contracts/GeekNftMarketPlace.sol\":5991:6001  _nftsCount */\n      0x02\n        /* \"contracts/GeekNftMarketPlace.sol\":5991:6009  _nftsCount.current */\n      tag_78\n        /* \"contracts/GeekNftMarketPlace.sol\":5991:6011  _nftsCount.current() */\n      jump\t// in\n    tag_152:\n        /* \"contracts/GeekNftMarketPlace.sol\":5972:6011  uint256 nftCount = _nftsCount.current() */\n      swap1\n      pop\n        /* \"contracts/GeekNftMarketPlace.sol\":6021:6044  uint256 unsoldNftsCount */\n      0x00\n        /* \"contracts/GeekNftMarketPlace.sol\":6058:6077  _nftsSold.current() */\n      tag_153\n        /* \"contracts/GeekNftMarketPlace.sol\":6058:6067  _nftsSold */\n      0x01\n        /* \"contracts/GeekNftMarketPlace.sol\":6058:6075  _nftsSold.current */\n      tag_78\n        /* \"contracts/GeekNftMarketPlace.sol\":6058:6077  _nftsSold.current() */\n      jump\t// in\n    tag_153:\n        /* \"contracts/GeekNftMarketPlace.sol\":6047:6055  nftCount */\n      dup3\n        /* \"contracts/GeekNftMarketPlace.sol\":6047:6077  nftCount - _nftsSold.current() */\n      tag_154\n      swap2\n      swap1\n      tag_155\n      jump\t// in\n    tag_154:\n        /* \"contracts/GeekNftMarketPlace.sol\":6021:6077  uint256 unsoldNftsCount = nftCount - _nftsSold.current() */\n      swap1\n      pop\n        /* \"contracts/GeekNftMarketPlace.sol\":6088:6105  NFT[] memory nfts */\n      0x00\n        /* \"contracts/GeekNftMarketPlace.sol\":6118:6133  unsoldNftsCount */\n      dup2\n        /* \"contracts/GeekNftMarketPlace.sol\":6108:6134  new NFT[](unsoldNftsCount) */\n      0xffffffffffffffff\n      dup2\n      gt\n      iszero\n      tag_156\n      jumpi\n      tag_157\n      tag_92\n      jump\t// in\n    tag_157:\n    tag_156:\n      mload(0x40)\n      swap1\n      dup1\n      dup3\n      mstore\n      dup1\n      0x20\n      mul\n      0x20\n      add\n      dup3\n      add\n      0x40\n      mstore\n      dup1\n      iszero\n      tag_158\n      jumpi\n      dup2\n      0x20\n      add\n    tag_159:\n      tag_160\n      tag_96\n      jump\t// in\n    tag_160:\n      dup2\n      mstore\n      0x20\n      add\n      swap1\n      0x01\n      swap1\n      sub\n      swap1\n      dup2\n      tag_159\n      jumpi\n      swap1\n      pop\n    tag_158:\n      pop\n        /* \"contracts/GeekNftMarketPlace.sol\":6088:6134  NFT[] memory nfts = new NFT[](unsoldNftsCount) */\n      swap1\n      pop\n        /* \"contracts/GeekNftMarketPlace.sol\":6144:6158  uint nftsIndex */\n      0x00\n        /* \"contracts/GeekNftMarketPlace.sol\":6177:6183  uint i */\n      dup1\n        /* \"contracts/GeekNftMarketPlace.sol\":6186:6187  1 */\n      0x01\n        /* \"contracts/GeekNftMarketPlace.sol\":6177:6187  uint i = 1 */\n      swap1\n      pop\n        /* \"contracts/GeekNftMarketPlace.sol\":6172:6339  for (uint i = 1; i < nftCount; i++) {... */\n    tag_161:\n        /* \"contracts/GeekNftMarketPlace.sol\":6193:6201  nftCount */\n      dup5\n        /* \"contracts/GeekNftMarketPlace.sol\":6189:6190  i */\n      dup2\n        /* \"contracts/GeekNftMarketPlace.sol\":6189:6201  i < nftCount */\n      lt\n        /* \"contracts/GeekNftMarketPlace.sol\":6172:6339  for (uint i = 1; i < nftCount; i++) {... */\n      iszero\n      tag_162\n      jumpi\n        /* \"contracts/GeekNftMarketPlace.sol\":6222:6230  _idToNft */\n      0x05\n        /* \"contracts/GeekNftMarketPlace.sol\":6222:6237  _idToNft[i + 1] */\n      0x00\n        /* \"contracts/GeekNftMarketPlace.sol\":6235:6236  1 */\n      0x01\n        /* \"contracts/GeekNftMarketPlace.sol\":6231:6232  i */\n      dup4\n        /* \"contracts/GeekNftMarketPlace.sol\":6231:6236  i + 1 */\n      tag_164\n      swap2\n      swap1\n      tag_83\n      jump\t// in\n    tag_164:\n        /* \"contracts/GeekNftMarketPlace.sol\":6222:6237  _idToNft[i + 1] */\n      dup2\n      mstore\n      0x20\n      add\n      swap1\n      dup2\n      mstore\n      0x20\n      add\n      0x00\n      keccak256\n        /* \"contracts/GeekNftMarketPlace.sol\":6222:6244  _idToNft[i + 1].listed */\n      0x05\n      add\n      0x14\n      swap1\n      sload\n      swap1\n      0x0100\n      exp\n      swap1\n      div\n      0xff\n      and\n        /* \"contracts/GeekNftMarketPlace.sol\":6218:6329  if (_idToNft[i + 1].listed) {... */\n      iszero\n      tag_165\n      jumpi\n        /* \"contracts/GeekNftMarketPlace.sol\":6278:6286  _idToNft */\n      0x05\n        /* \"contracts/GeekNftMarketPlace.sol\":6278:6293  _idToNft[i + 1] */\n      0x00\n        /* \"contracts/GeekNftMarketPlace.sol\":6291:6292  1 */\n      0x01\n        /* \"contracts/GeekNftMarketPlace.sol\":6287:6288  i */\n      dup4\n        /* \"contracts/GeekNftMarketPlace.sol\":6287:6292  i + 1 */\n      tag_166\n      swap2\n      swap1\n      tag_83\n      jump\t// in\n    tag_166:\n        /* \"contracts/GeekNftMarketPlace.sol\":6278:6293  _idToNft[i + 1] */\n      dup2\n      mstore\n      0x20\n      add\n      swap1\n      dup2\n      mstore\n      0x20\n      add\n      0x00\n      keccak256\n        /* \"contracts/GeekNftMarketPlace.sol\":6260:6293  nfts[nftsIndex] = _idToNft[i + 1] */\n      mload(0x40)\n      dup1\n      0xe0\n      add\n      0x40\n      mstore\n      swap1\n      dup2\n      0x00\n      dup3\n      add\n      0x00\n      swap1\n      sload\n      swap1\n      0x0100\n      exp\n      swap1\n      div\n      0xffffffffffffffffffffffffffffffffffffffff\n      and\n      0xffffffffffffffffffffffffffffffffffffffff\n      and\n      0xffffffffffffffffffffffffffffffffffffffff\n      and\n      dup2\n      mstore\n      0x20\n      add\n      0x01\n      dup3\n      add\n      sload\n      dup2\n      mstore\n      0x20\n      add\n      0x02\n      dup3\n      add\n      sload\n      dup2\n      mstore\n      0x20\n      add\n      0x03\n      dup3\n      add\n      0x00\n      swap1\n      sload\n      swap1\n      0x0100\n      exp\n      swap1\n      div\n      0xffffffffffffffffffffffffffffffffffffffff\n      and\n      0xffffffffffffffffffffffffffffffffffffffff\n      and\n      0xffffffffffffffffffffffffffffffffffffffff\n      and\n      dup2\n      mstore\n      0x20\n      add\n      0x04\n      dup3\n      add\n      0x00\n      swap1\n      sload\n      swap1\n      0x0100\n      exp\n      swap1\n      div\n      0xffffffffffffffffffffffffffffffffffffffff\n      and\n      0xffffffffffffffffffffffffffffffffffffffff\n      and\n      0xffffffffffffffffffffffffffffffffffffffff\n      and\n      dup2\n      mstore\n      0x20\n      add\n      0x05\n      dup3\n      add\n      0x00\n      swap1\n      sload\n      swap1\n      0x0100\n      exp\n      swap1\n      div\n      0xffffffffffffffffffffffffffffffffffffffff\n      and\n      0xffffffffffffffffffffffffffffffffffffffff\n      and\n      0xffffffffffffffffffffffffffffffffffffffff\n      and\n      dup2\n      mstore\n      0x20\n      add\n      0x05\n      dup3\n      add\n      0x14\n      swap1\n      sload\n      swap1\n      0x0100\n      exp\n      swap1\n      div\n      0xff\n      and\n      iszero\n      iszero\n      iszero\n      iszero\n      dup2\n      mstore\n      pop\n      pop\n        /* \"contracts/GeekNftMarketPlace.sol\":6260:6264  nfts */\n      dup4\n        /* \"contracts/GeekNftMarketPlace.sol\":6265:6274  nftsIndex */\n      dup4\n        /* \"contracts/GeekNftMarketPlace.sol\":6260:6275  nfts[nftsIndex] */\n      dup2\n      mload\n      dup2\n      lt\n      tag_167\n      jumpi\n      tag_168\n      tag_107\n      jump\t// in\n    tag_168:\n    tag_167:\n      0x20\n      mul\n      0x20\n      add\n      add\n        /* \"contracts/GeekNftMarketPlace.sol\":6260:6293  nfts[nftsIndex] = _idToNft[i + 1] */\n      dup2\n      swap1\n      mstore\n      pop\n        /* \"contracts/GeekNftMarketPlace.sol\":6307:6318  nftsIndex++ */\n      dup2\n      dup1\n      tag_169\n      swap1\n      tag_88\n      jump\t// in\n    tag_169:\n      swap3\n      pop\n      pop\n        /* \"contracts/GeekNftMarketPlace.sol\":6218:6329  if (_idToNft[i + 1].listed) {... */\n    tag_165:\n        /* \"contracts/GeekNftMarketPlace.sol\":6203:6206  i++ */\n      dup1\n      dup1\n      tag_170\n      swap1\n      tag_88\n      jump\t// in\n    tag_170:\n      swap2\n      pop\n      pop\n        /* \"contracts/GeekNftMarketPlace.sol\":6172:6339  for (uint i = 1; i < nftCount; i++) {... */\n      jump(tag_161)\n    tag_162:\n      pop\n        /* \"contracts/GeekNftMarketPlace.sol\":6355:6359  nfts */\n      dup2\n        /* \"contracts/GeekNftMarketPlace.sol\":6348:6359  return nfts */\n      swap5\n      pop\n      pop\n      pop\n      pop\n      pop\n        /* \"contracts/GeekNftMarketPlace.sol\":5902:6366  function getListedNfts() public view returns (NFT[] memory) {... */\n      swap1\n      jump\t// out\n        /* \"contracts/GeekNftMarketPlace.sol\":3226:3842  function getMyOwnedNfts() public view returns (NFT[] memory) {... */\n    tag_41:\n        /* \"contracts/GeekNftMarketPlace.sol\":3273:3285  NFT[] memory */\n      0x60\n        /* \"contracts/GeekNftMarketPlace.sol\":3297:3311  uint nftsCount */\n      0x00\n        /* \"contracts/GeekNftMarketPlace.sol\":3314:3334  _nftsCount.current() */\n      tag_172\n        /* \"contracts/GeekNftMarketPlace.sol\":3314:3324  _nftsCount */\n      0x02\n        /* \"contracts/GeekNftMarketPlace.sol\":3314:3332  _nftsCount.current */\n      tag_78\n        /* \"contracts/GeekNftMarketPlace.sol\":3314:3334  _nftsCount.current() */\n      jump\t// in\n    tag_172:\n        /* \"contracts/GeekNftMarketPlace.sol\":3297:3334  uint nftsCount = _nftsCount.current() */\n      swap1\n      pop\n        /* \"contracts/GeekNftMarketPlace.sol\":3344:3360  uint myNftsCount */\n      0x00\n        /* \"contracts/GeekNftMarketPlace.sol\":3379:3385  uint i */\n      dup1\n        /* \"contracts/GeekNftMarketPlace.sol\":3388:3389  1 */\n      0x01\n        /* \"contracts/GeekNftMarketPlace.sol\":3379:3389  uint i = 1 */\n      swap1\n      pop\n        /* \"contracts/GeekNftMarketPlace.sol\":3374:3523  for (uint i = 1; i <= nftsCount; i++) {... */\n    tag_173:\n        /* \"contracts/GeekNftMarketPlace.sol\":3396:3405  nftsCount */\n      dup3\n        /* \"contracts/GeekNftMarketPlace.sol\":3391:3392  i */\n      dup2\n        /* \"contracts/GeekNftMarketPlace.sol\":3391:3405  i <= nftsCount */\n      gt\n        /* \"contracts/GeekNftMarketPlace.sol\":3374:3523  for (uint i = 1; i <= nftsCount; i++) {... */\n      tag_174\n      jumpi\n        /* \"contracts/GeekNftMarketPlace.sol\":3454:3464  msg.sender */\n      caller\n        /* \"contracts/GeekNftMarketPlace.sol\":3429:3464  _idToNft[i + 1].owner == msg.sender */\n      0xffffffffffffffffffffffffffffffffffffffff\n      and\n        /* \"contracts/GeekNftMarketPlace.sol\":3429:3437  _idToNft */\n      0x05\n        /* \"contracts/GeekNftMarketPlace.sol\":3429:3444  _idToNft[i + 1] */\n      0x00\n        /* \"contracts/GeekNftMarketPlace.sol\":3442:3443  1 */\n      0x01\n        /* \"contracts/GeekNftMarketPlace.sol\":3438:3439  i */\n      dup5\n        /* \"contracts/GeekNftMarketPlace.sol\":3438:3443  i + 1 */\n      tag_176\n      swap2\n      swap1\n      tag_83\n      jump\t// in\n    tag_176:\n        /* \"contracts/GeekNftMarketPlace.sol\":3429:3444  _idToNft[i + 1] */\n      dup2\n      mstore\n      0x20\n      add\n      swap1\n      dup2\n      mstore\n      0x20\n      add\n      0x00\n      keccak256\n        /* \"contracts/GeekNftMarketPlace.sol\":3429:3450  _idToNft[i + 1].owner */\n      0x04\n      add\n      0x00\n      swap1\n      sload\n      swap1\n      0x0100\n      exp\n      swap1\n      div\n      0xffffffffffffffffffffffffffffffffffffffff\n      and\n        /* \"contracts/GeekNftMarketPlace.sol\":3429:3464  _idToNft[i + 1].owner == msg.sender */\n      0xffffffffffffffffffffffffffffffffffffffff\n      and\n      eq\n        /* \"contracts/GeekNftMarketPlace.sol\":3426:3513  if(_idToNft[i + 1].owner == msg.sender) {... */\n      iszero\n      tag_177\n      jumpi\n        /* \"contracts/GeekNftMarketPlace.sol\":3484:3498  myNftsCount ++ */\n      dup2\n      dup1\n      tag_178\n      swap1\n      tag_88\n      jump\t// in\n    tag_178:\n      swap3\n      pop\n      pop\n        /* \"contracts/GeekNftMarketPlace.sol\":3426:3513  if(_idToNft[i + 1].owner == msg.sender) {... */\n    tag_177:\n        /* \"contracts/GeekNftMarketPlace.sol\":3407:3410  i++ */\n      dup1\n      dup1\n      tag_179\n      swap1\n      tag_88\n      jump\t// in\n    tag_179:\n      swap2\n      pop\n      pop\n        /* \"contracts/GeekNftMarketPlace.sol\":3374:3523  for (uint i = 1; i <= nftsCount; i++) {... */\n      jump(tag_173)\n    tag_174:\n      pop\n        /* \"contracts/GeekNftMarketPlace.sol\":3533:3552  NFT[] memory myNfts */\n      0x00\n        /* \"contracts/GeekNftMarketPlace.sol\":3565:3576  myNftsCount */\n      dup2\n        /* \"contracts/GeekNftMarketPlace.sol\":3555:3577  new NFT[](myNftsCount) */\n      0xffffffffffffffff\n      dup2\n      gt\n      iszero\n      tag_180\n      jumpi\n      tag_181\n      tag_92\n      jump\t// in\n    tag_181:\n    tag_180:\n      mload(0x40)\n      swap1\n      dup1\n      dup3\n      mstore\n      dup1\n      0x20\n      mul\n      0x20\n      add\n      dup3\n      add\n      0x40\n      mstore\n      dup1\n      iszero\n      tag_182\n      jumpi\n      dup2\n      0x20\n      add\n    tag_183:\n      tag_184\n      tag_96\n      jump\t// in\n    tag_184:\n      dup2\n      mstore\n      0x20\n      add\n      swap1\n      0x01\n      swap1\n      sub\n      swap1\n      dup2\n      tag_183\n      jumpi\n      swap1\n      pop\n    tag_182:\n      pop\n        /* \"contracts/GeekNftMarketPlace.sol\":3533:3577  NFT[] memory myNfts = new NFT[](myNftsCount) */\n      swap1\n      pop\n        /* \"contracts/GeekNftMarketPlace.sol\":3587:3600  uint nftIndex */\n      0x00\n        /* \"contracts/GeekNftMarketPlace.sol\":3619:3625  uint i */\n      dup1\n        /* \"contracts/GeekNftMarketPlace.sol\":3628:3629  1 */\n      0x01\n        /* \"contracts/GeekNftMarketPlace.sol\":3619:3629  uint i = 1 */\n      swap1\n      pop\n        /* \"contracts/GeekNftMarketPlace.sol\":3614:3812  for (uint i = 1; i <= nftsCount; i++) {... */\n    tag_185:\n        /* \"contracts/GeekNftMarketPlace.sol\":3636:3645  nftsCount */\n      dup5\n        /* \"contracts/GeekNftMarketPlace.sol\":3631:3632  i */\n      dup2\n        /* \"contracts/GeekNftMarketPlace.sol\":3631:3645  i <= nftsCount */\n      gt\n        /* \"contracts/GeekNftMarketPlace.sol\":3614:3812  for (uint i = 1; i <= nftsCount; i++) {... */\n      tag_186\n      jumpi\n        /* \"contracts/GeekNftMarketPlace.sol\":3694:3704  msg.sender */\n      caller\n        /* \"contracts/GeekNftMarketPlace.sol\":3669:3704  _idToNft[i + 1].owner == msg.sender */\n      0xffffffffffffffffffffffffffffffffffffffff\n      and\n        /* \"contracts/GeekNftMarketPlace.sol\":3669:3677  _idToNft */\n      0x05\n        /* \"contracts/GeekNftMarketPlace.sol\":3669:3684  _idToNft[i + 1] */\n      0x00\n        /* \"contracts/GeekNftMarketPlace.sol\":3682:3683  1 */\n      0x01\n        /* \"contracts/GeekNftMarketPlace.sol\":3678:3679  i */\n      dup5\n        /* \"contracts/GeekNftMarketPlace.sol\":3678:3683  i + 1 */\n      tag_188\n      swap2\n      swap1\n      tag_83\n      jump\t// in\n    tag_188:\n        /* \"contracts/GeekNftMarketPlace.sol\":3669:3684  _idToNft[i + 1] */\n      dup2\n      mstore\n      0x20\n      add\n      swap1\n      dup2\n      mstore\n      0x20\n      add\n      0x00\n      keccak256\n        /* \"contracts/GeekNftMarketPlace.sol\":3669:3690  _idToNft[i + 1].owner */\n      0x04\n      add\n      0x00\n      swap1\n      sload\n      swap1\n      0x0100\n      exp\n      swap1\n      div\n      0xffffffffffffffffffffffffffffffffffffffff\n      and\n        /* \"contracts/GeekNftMarketPlace.sol\":3669:3704  _idToNft[i + 1].owner == msg.sender */\n      0xffffffffffffffffffffffffffffffffffffffff\n      and\n      eq\n        /* \"contracts/GeekNftMarketPlace.sol\":3666:3802  if(_idToNft[i + 1].owner == msg.sender) {... */\n      iszero\n      tag_189\n      jumpi\n        /* \"contracts/GeekNftMarketPlace.sol\":3743:3751  _idToNft */\n      0x05\n        /* \"contracts/GeekNftMarketPlace.sol\":3743:3758  _idToNft[i + 1] */\n      0x00\n        /* \"contracts/GeekNftMarketPlace.sol\":3756:3757  1 */\n      0x01\n        /* \"contracts/GeekNftMarketPlace.sol\":3752:3753  i */\n      dup4\n        /* \"contracts/GeekNftMarketPlace.sol\":3752:3757  i + 1 */\n      tag_190\n      swap2\n      swap1\n      tag_83\n      jump\t// in\n    tag_190:\n        /* \"contracts/GeekNftMarketPlace.sol\":3743:3758  _idToNft[i + 1] */\n      dup2\n      mstore\n      0x20\n      add\n      swap1\n      dup2\n      mstore\n      0x20\n      add\n      0x00\n      keccak256\n        /* \"contracts/GeekNftMarketPlace.sol\":3724:3758  myNfts[nftIndex] = _idToNft[i + 1] */\n      mload(0x40)\n      dup1\n      0xe0\n      add\n      0x40\n      mstore\n      swap1\n      dup2\n      0x00\n      dup3\n      add\n      0x00\n      swap1\n      sload\n      swap1\n      0x0100\n      exp\n      swap1\n      div\n      0xffffffffffffffffffffffffffffffffffffffff\n      and\n      0xffffffffffffffffffffffffffffffffffffffff\n      and\n      0xffffffffffffffffffffffffffffffffffffffff\n      and\n      dup2\n      mstore\n      0x20\n      add\n      0x01\n      dup3\n      add\n      sload\n      dup2\n      mstore\n      0x20\n      add\n      0x02\n      dup3\n      add\n      sload\n      dup2\n      mstore\n      0x20\n      add\n      0x03\n      dup3\n      add\n      0x00\n      swap1\n      sload\n      swap1\n      0x0100\n      exp\n      swap1\n      div\n      0xffffffffffffffffffffffffffffffffffffffff\n      and\n      0xffffffffffffffffffffffffffffffffffffffff\n      and\n      0xffffffffffffffffffffffffffffffffffffffff\n      and\n      dup2\n      mstore\n      0x20\n      add\n      0x04\n      dup3\n      add\n      0x00\n      swap1\n      sload\n      swap1\n      0x0100\n      exp\n      swap1\n      div\n      0xffffffffffffffffffffffffffffffffffffffff\n      and\n      0xffffffffffffffffffffffffffffffffffffffff\n      and\n      0xffffffffffffffffffffffffffffffffffffffff\n      and\n      dup2\n      mstore\n      0x20\n      add\n      0x05\n      dup3\n      add\n      0x00\n      swap1\n      sload\n      swap1\n      0x0100\n      exp\n      swap1\n      div\n      0xffffffffffffffffffffffffffffffffffffffff\n      and\n      0xffffffffffffffffffffffffffffffffffffffff\n      and\n      0xffffffffffffffffffffffffffffffffffffffff\n      and\n      dup2\n      mstore\n      0x20\n      add\n      0x05\n      dup3\n      add\n      0x14\n      swap1\n      sload\n      swap1\n      0x0100\n      exp\n      swap1\n      div\n      0xff\n      and\n      iszero\n      iszero\n      iszero\n      iszero\n      dup2\n      mstore\n      pop\n      pop\n        /* \"contracts/GeekNftMarketPlace.sol\":3724:3730  myNfts */\n      dup4\n        /* \"contracts/GeekNftMarketPlace.sol\":3731:3739  nftIndex */\n      dup4\n        /* \"contracts/GeekNftMarketPlace.sol\":3724:3740  myNfts[nftIndex] */\n      dup2\n      mload\n      dup2\n      lt\n      tag_191\n      jumpi\n      tag_192\n      tag_107\n      jump\t// in\n    tag_192:\n    tag_191:\n      0x20\n      mul\n      0x20\n      add\n      add\n        /* \"contracts/GeekNftMarketPlace.sol\":3724:3758  myNfts[nftIndex] = _idToNft[i + 1] */\n      dup2\n      swap1\n      mstore\n      pop\n        /* \"contracts/GeekNftMarketPlace.sol\":3776:3787  nftIndex ++ */\n      dup2\n      dup1\n      tag_193\n      swap1\n      tag_88\n      jump\t// in\n    tag_193:\n      swap3\n      pop\n      pop\n        /* \"contracts/GeekNftMarketPlace.sol\":3666:3802  if(_idToNft[i + 1].owner == msg.sender) {... */\n    tag_189:\n        /* \"contracts/GeekNftMarketPlace.sol\":3647:3650  i++ */\n      dup1\n      dup1\n      tag_194\n      swap1\n      tag_88\n      jump\t// in\n    tag_194:\n      swap2\n      pop\n      pop\n        /* \"contracts/GeekNftMarketPlace.sol\":3614:3812  for (uint i = 1; i <= nftsCount; i++) {... */\n      jump(tag_185)\n    tag_186:\n      pop\n        /* \"contracts/GeekNftMarketPlace.sol\":3829:3835  myNfts */\n      dup2\n        /* \"contracts/GeekNftMarketPlace.sol\":3822:3835  return myNfts */\n      swap5\n      pop\n      pop\n      pop\n      pop\n      pop\n        /* \"contracts/GeekNftMarketPlace.sol\":3226:3842  function getMyOwnedNfts() public view returns (NFT[] memory) {... */\n      swap1\n      jump\t// out\n        /* \"contracts/GeekNftMarketPlace.sol\":1177:1902  function listNFT(address _nftContract, uint _tokenId, uint _price) public payable nonReentrant{... */\n    tag_45:\n        /* \"contracts/RenntrancyGuard.sol\":171:172  2 */\n      0x02\n        /* \"contracts/RenntrancyGuard.sol\":310:317  _status */\n      sload(0x00)\n        /* \"contracts/RenntrancyGuard.sol\":310:329  _status != _ENTERED */\n      eq\n      iszero\n        /* \"contracts/RenntrancyGuard.sol\":302:365  require(_status != _ENTERED, \"ReentrancyGuard: reentrant call\") */\n      tag_196\n      jumpi\n      mload(0x40)\n      0x08c379a000000000000000000000000000000000000000000000000000000000\n      dup2\n      mstore\n      0x04\n      add\n      tag_197\n      swap1\n      tag_59\n      jump\t// in\n    tag_197:\n      mload(0x40)\n      dup1\n      swap2\n      sub\n      swap1\n      revert\n    tag_196:\n        /* \"contracts/RenntrancyGuard.sol\":171:172  2 */\n      0x02\n        /* \"contracts/RenntrancyGuard.sol\":375:382  _status */\n      0x00\n        /* \"contracts/RenntrancyGuard.sol\":375:393  _status = _ENTERED */\n      dup2\n      swap1\n      sstore\n      pop\n        /* \"contracts/GeekNftMarketPlace.sol\":1298:1299  0 */\n      0x00\n        /* \"contracts/GeekNftMarketPlace.sol\":1289:1295  _price */\n      dup2\n        /* \"contracts/GeekNftMarketPlace.sol\":1289:1299  _price > 0 */\n      gt\n        /* \"contracts/GeekNftMarketPlace.sol\":1281:1332  require(_price > 0, \"Price must be at least 1 wei\") */\n      tag_199\n      jumpi\n      mload(0x40)\n      0x08c379a000000000000000000000000000000000000000000000000000000000\n      dup2\n      mstore\n      0x04\n      add\n      tag_200\n      swap1\n      tag_63\n      jump\t// in\n    tag_200:\n      mload(0x40)\n      dup1\n      swap2\n      sub\n      swap1\n      revert\n    tag_199:\n        /* \"contracts/GeekNftMarketPlace.sol\":1363:1374  LISTING_FEE */\n      sload(0x03)\n        /* \"contracts/GeekNftMarketPlace.sol\":1350:1359  msg.value */\n      callvalue\n        /* \"contracts/GeekNftMarketPlace.sol\":1350:1374  msg.value == LISTING_FEE */\n      eq\n        /* \"contracts/GeekNftMarketPlace.sol\":1342:1411  require(msg.value == LISTING_FEE, \"Not enough ether for listing fee\") */\n      tag_201\n      jumpi\n      mload(0x40)\n      0x08c379a000000000000000000000000000000000000000000000000000000000\n      dup2\n      mstore\n      0x04\n      add\n      tag_202\n      swap1\n      tag_66\n      jump\t// in\n    tag_202:\n      mload(0x40)\n      dup1\n      swap2\n      sub\n      swap1\n      revert\n    tag_201:\n        /* \"contracts/GeekNftMarketPlace.sol\":1439:1451  _nftContract */\n      dup3\n        /* \"contracts/GeekNftMarketPlace.sol\":1422:1465  GeekNftInterface(_nftContract).transferFrom */\n      0xffffffffffffffffffffffffffffffffffffffff\n      and\n      0x23b872dd\n        /* \"contracts/GeekNftMarketPlace.sol\":1466:1476  msg.sender */\n      caller\n        /* \"contracts/GeekNftMarketPlace.sol\":1486:1490  this */\n      address\n        /* \"contracts/GeekNftMarketPlace.sol\":1493:1501  _tokenId */\n      dup6\n        /* \"contracts/GeekNftMarketPlace.sol\":1422:1502  GeekNftInterface(_nftContract).transferFrom(msg.sender, address(this), _tokenId) */\n      mload(0x40)\n      dup5\n      0xffffffff\n      and\n      0xe0\n      shl\n      dup2\n      mstore\n      0x04\n      add\n      tag_203\n      swap4\n      swap3\n      swap2\n      swap1\n      tag_68\n      jump\t// in\n    tag_203:\n      0x00\n      mload(0x40)\n      dup1\n      dup4\n      sub\n      dup2\n      0x00\n      dup8\n      dup1\n      extcodesize\n      iszero\n      dup1\n      iszero\n      tag_204\n      jumpi\n      0x00\n      dup1\n      revert\n    tag_204:\n      pop\n      gas\n      call\n      iszero\n      dup1\n      iszero\n      tag_206\n      jumpi\n      returndatasize\n      0x00\n      dup1\n      returndatacopy\n      revert(0x00, returndatasize)\n    tag_206:\n      pop\n      pop\n      pop\n      pop\n        /* \"contracts/GeekNftMarketPlace.sol\":1512:1534  _nftsCount.increment() */\n      tag_207\n        /* \"contracts/GeekNftMarketPlace.sol\":1512:1522  _nftsCount */\n      0x02\n        /* \"contracts/GeekNftMarketPlace.sol\":1512:1532  _nftsCount.increment */\n      tag_125\n        /* \"contracts/GeekNftMarketPlace.sol\":1512:1534  _nftsCount.increment() */\n      jump\t// in\n    tag_207:\n        /* \"contracts/GeekNftMarketPlace.sol\":1566:1767  NFT(... */\n      mload(0x40)\n      dup1\n      0xe0\n      add\n      0x40\n      mstore\n      dup1\n        /* \"contracts/GeekNftMarketPlace.sol\":1583:1595  _nftContract */\n      dup5\n        /* \"contracts/GeekNftMarketPlace.sol\":1566:1767  NFT(... */\n      0xffffffffffffffffffffffffffffffffffffffff\n      and\n      dup2\n      mstore\n      0x20\n      add\n        /* \"contracts/GeekNftMarketPlace.sol\":1609:1617  _tokenId */\n      dup4\n        /* \"contracts/GeekNftMarketPlace.sol\":1566:1767  NFT(... */\n      dup2\n      mstore\n      0x20\n      add\n        /* \"contracts/GeekNftMarketPlace.sol\":1631:1637  _price */\n      dup3\n        /* \"contracts/GeekNftMarketPlace.sol\":1566:1767  NFT(... */\n      dup2\n      mstore\n      0x20\n      add\n        /* \"contracts/GeekNftMarketPlace.sol\":1659:1669  msg.sender */\n      caller\n        /* \"contracts/GeekNftMarketPlace.sol\":1566:1767  NFT(... */\n      0xffffffffffffffffffffffffffffffffffffffff\n      and\n      dup2\n      mstore\n      0x20\n      add\n        /* \"contracts/GeekNftMarketPlace.sol\":1700:1704  this */\n      address\n        /* \"contracts/GeekNftMarketPlace.sol\":1566:1767  NFT(... */\n      0xffffffffffffffffffffffffffffffffffffffff\n      and\n      dup2\n      mstore\n      0x20\n      add\n        /* \"contracts/GeekNftMarketPlace.sol\":1728:1738  msg.sender */\n      caller\n        /* \"contracts/GeekNftMarketPlace.sol\":1566:1767  NFT(... */\n      0xffffffffffffffffffffffffffffffffffffffff\n      and\n      dup2\n      mstore\n      0x20\n      add\n        /* \"contracts/GeekNftMarketPlace.sol\":1753:1757  true */\n      0x01\n        /* \"contracts/GeekNftMarketPlace.sol\":1566:1767  NFT(... */\n      iszero\n      iszero\n      dup2\n      mstore\n      pop\n        /* \"contracts/GeekNftMarketPlace.sol\":1545:1553  _idToNft */\n      0x05\n        /* \"contracts/GeekNftMarketPlace.sol\":1545:1563  _idToNft[_tokenId] */\n      0x00\n        /* \"contracts/GeekNftMarketPlace.sol\":1554:1562  _tokenId */\n      dup5\n        /* \"contracts/GeekNftMarketPlace.sol\":1545:1563  _idToNft[_tokenId] */\n      dup2\n      mstore\n      0x20\n      add\n      swap1\n      dup2\n      mstore\n      0x20\n      add\n      0x00\n      keccak256\n        /* \"contracts/GeekNftMarketPlace.sol\":1545:1767  _idToNft[_tokenId] = NFT(... */\n      0x00\n      dup3\n      add\n      mload\n      dup2\n      0x00\n      add\n      exp(0x0100, 0x00)\n      dup2\n      sload\n      dup2\n      0xffffffffffffffffffffffffffffffffffffffff\n      mul\n      not\n      and\n      swap1\n      dup4\n      0xffffffffffffffffffffffffffffffffffffffff\n      and\n      mul\n      or\n      swap1\n      sstore\n      pop\n      0x20\n      dup3\n      add\n      mload\n      dup2\n      0x01\n      add\n      sstore\n      0x40\n      dup3\n      add\n      mload\n      dup2\n      0x02\n      add\n      sstore\n      0x60\n      dup3\n      add\n      mload\n      dup2\n      0x03\n      add\n      exp(0x0100, 0x00)\n      dup2\n      sload\n      dup2\n      0xffffffffffffffffffffffffffffffffffffffff\n      mul\n      not\n      and\n      swap1\n      dup4\n      0xffffffffffffffffffffffffffffffffffffffff\n      and\n      mul\n      or\n      swap1\n      sstore\n      pop\n      0x80\n      dup3\n      add\n      mload\n      dup2\n      0x04\n      add\n      exp(0x0100, 0x00)\n      dup2\n      sload\n      dup2\n      0xffffffffffffffffffffffffffffffffffffffff\n      mul\n      not\n      and\n      swap1\n      dup4\n      0xffffffffffffffffffffffffffffffffffffffff\n      and\n      mul\n      or\n      swap1\n      sstore\n      pop\n      0xa0\n      dup3\n      add\n      mload\n      dup2\n      0x05\n      add\n      exp(0x0100, 0x00)\n      dup2\n      sload\n      dup2\n      0xffffffffffffffffffffffffffffffffffffffff\n      mul\n      not\n      and\n      swap1\n      dup4\n      0xffffffffffffffffffffffffffffffffffffffff\n      and\n      mul\n      or\n      swap1\n      sstore\n      pop\n      0xc0\n      dup3\n      add\n      mload\n      dup2\n      0x05\n      add\n      exp(0x0100, 0x14)\n      dup2\n      sload\n      dup2\n      0xff\n      mul\n      not\n      and\n      swap1\n      dup4\n      iszero\n      iszero\n      mul\n      or\n      swap1\n      sstore\n      pop\n      swap1\n      pop\n      pop\n        /* \"contracts/GeekNftMarketPlace.sol\":1778:1791  _marketOwwner */\n      0x04\n      0x00\n      swap1\n      sload\n      swap1\n      0x0100\n      exp\n      swap1\n      div\n      0xffffffffffffffffffffffffffffffffffffffff\n      and\n        /* \"contracts/GeekNftMarketPlace.sol\":1778:1800  _marketOwwner.transfer */\n      0xffffffffffffffffffffffffffffffffffffffff\n      and\n        /* \"contracts/GeekNftMarketPlace.sol\":1778:1811  _marketOwwner.transfer(msg.value) */\n      0x08fc\n        /* \"contracts/GeekNftMarketPlace.sol\":1801:1810  msg.value */\n      callvalue\n        /* \"contracts/GeekNftMarketPlace.sol\":1778:1811  _marketOwwner.transfer(msg.value) */\n      swap1\n      dup2\n      iszero\n      mul\n      swap1\n      mload(0x40)\n      0x00\n      mload(0x40)\n      dup1\n      dup4\n      sub\n      dup2\n      dup6\n      dup9\n      dup9\n      call\n      swap4\n      pop\n      pop\n      pop\n      pop\n      iszero\n      dup1\n      iszero\n      tag_209\n      jumpi\n      returndatasize\n      0x00\n      dup1\n      returndatacopy\n      revert(0x00, returndatasize)\n    tag_209:\n      pop\n        /* \"contracts/GeekNftMarketPlace.sol\":1881:1885  this */\n      address\n        /* \"contracts/GeekNftMarketPlace.sol\":1827:1895  NFTListed(_nftContract, _tokenId, msg.sender, address(this), _price) */\n      0xffffffffffffffffffffffffffffffffffffffff\n      and\n        /* \"contracts/GeekNftMarketPlace.sol\":1861:1871  msg.sender */\n      caller\n        /* \"contracts/GeekNftMarketPlace.sol\":1827:1895  NFTListed(_nftContract, _tokenId, msg.sender, address(this), _price) */\n      0xffffffffffffffffffffffffffffffffffffffff\n      and\n      0xa0c6c0d02d86fdacecbaa5fdf5894bab204e31a778250474108540733a9b8d19\n        /* \"contracts/GeekNftMarketPlace.sol\":1837:1849  _nftContract */\n      dup6\n        /* \"contracts/GeekNftMarketPlace.sol\":1851:1859  _tokenId */\n      dup6\n        /* \"contracts/GeekNftMarketPlace.sol\":1888:1894  _price */\n      dup6\n        /* \"contracts/GeekNftMarketPlace.sol\":1827:1895  NFTListed(_nftContract, _tokenId, msg.sender, address(this), _price) */\n      mload(0x40)\n      tag_210\n      swap4\n      swap3\n      swap2\n      swap1\n      tag_75\n      jump\t// in\n    tag_210:\n      mload(0x40)\n      dup1\n      swap2\n      sub\n      swap1\n      log3\n        /* \"contracts/RenntrancyGuard.sol\":128:129  1 */\n      0x01\n        /* \"contracts/RenntrancyGuard.sol\":414:421  _status */\n      0x00\n        /* \"contracts/RenntrancyGuard.sol\":414:436  _status = _NOT_ENTERED */\n      dup2\n      swap1\n      sstore\n      pop\n        /* \"contracts/GeekNftMarketPlace.sol\":1177:1902  function listNFT(address _nftContract, uint _tokenId, uint _price) public payable nonReentrant{... */\n      pop\n      pop\n      pop\n      jump\t// out\n        /* \"contracts/GeekNftMarketPlace.sol\":1046:1132  function getListingFee() public view returns (uint){... */\n    tag_48:\n        /* \"contracts/GeekNftMarketPlace.sol\":1092:1096  uint */\n      0x00\n        /* \"contracts/GeekNftMarketPlace.sol\":1114:1125  LISTING_FEE */\n      sload(0x03)\n        /* \"contracts/GeekNftMarketPlace.sol\":1107:1125  return LISTING_FEE */\n      swap1\n      pop\n        /* \"contracts/GeekNftMarketPlace.sol\":1046:1132  function getListingFee() public view returns (uint){... */\n      swap1\n      jump\t// out\n        /* \"contracts/GeekNftMarketPlace.sol\":5252:5896  function getCollectionNfts(address _collection) public view returns (NFT[] memory) {... */\n    tag_54:\n        /* \"contracts/GeekNftMarketPlace.sol\":5321:5333  NFT[] memory */\n      0x60\n        /* \"contracts/GeekNftMarketPlace.sol\":5345:5359  uint nftsCount */\n      0x00\n        /* \"contracts/GeekNftMarketPlace.sol\":5362:5382  _nftsCount.current() */\n      tag_213\n        /* \"contracts/GeekNftMarketPlace.sol\":5362:5372  _nftsCount */\n      0x02\n        /* \"contracts/GeekNftMarketPlace.sol\":5362:5380  _nftsCount.current */\n      tag_78\n        /* \"contracts/GeekNftMarketPlace.sol\":5362:5382  _nftsCount.current() */\n      jump\t// in\n    tag_213:\n        /* \"contracts/GeekNftMarketPlace.sol\":5345:5382  uint nftsCount = _nftsCount.current() */\n      swap1\n      pop\n        /* \"contracts/GeekNftMarketPlace.sol\":5392:5408  uint myNftsCount */\n      0x00\n        /* \"contracts/GeekNftMarketPlace.sol\":5427:5433  uint i */\n      dup1\n        /* \"contracts/GeekNftMarketPlace.sol\":5436:5437  1 */\n      0x01\n        /* \"contracts/GeekNftMarketPlace.sol\":5427:5437  uint i = 1 */\n      swap1\n      pop\n        /* \"contracts/GeekNftMarketPlace.sol\":5422:5578  for (uint i = 1; i <= nftsCount; i++) {... */\n    tag_214:\n        /* \"contracts/GeekNftMarketPlace.sol\":5444:5453  nftsCount */\n      dup3\n        /* \"contracts/GeekNftMarketPlace.sol\":5439:5440  i */\n      dup2\n        /* \"contracts/GeekNftMarketPlace.sol\":5439:5453  i <= nftsCount */\n      gt\n        /* \"contracts/GeekNftMarketPlace.sol\":5422:5578  for (uint i = 1; i <= nftsCount; i++) {... */\n      tag_215\n      jumpi\n        /* \"contracts/GeekNftMarketPlace.sol\":5508:5519  _collection */\n      dup5\n        /* \"contracts/GeekNftMarketPlace.sol\":5477:5519  _idToNft[i + 1].nftContract == _collection */\n      0xffffffffffffffffffffffffffffffffffffffff\n      and\n        /* \"contracts/GeekNftMarketPlace.sol\":5477:5485  _idToNft */\n      0x05\n        /* \"contracts/GeekNftMarketPlace.sol\":5477:5492  _idToNft[i + 1] */\n      0x00\n        /* \"contracts/GeekNftMarketPlace.sol\":5490:5491  1 */\n      0x01\n        /* \"contracts/GeekNftMarketPlace.sol\":5486:5487  i */\n      dup5\n        /* \"contracts/GeekNftMarketPlace.sol\":5486:5491  i + 1 */\n      tag_217\n      swap2\n      swap1\n      tag_83\n      jump\t// in\n    tag_217:\n        /* \"contracts/GeekNftMarketPlace.sol\":5477:5492  _idToNft[i + 1] */\n      dup2\n      mstore\n      0x20\n      add\n      swap1\n      dup2\n      mstore\n      0x20\n      add\n      0x00\n      keccak256\n        /* \"contracts/GeekNftMarketPlace.sol\":5477:5504  _idToNft[i + 1].nftContract */\n      0x00\n      add\n      0x00\n      swap1\n      sload\n      swap1\n      0x0100\n      exp\n      swap1\n      div\n      0xffffffffffffffffffffffffffffffffffffffff\n      and\n        /* \"contracts/GeekNftMarketPlace.sol\":5477:5519  _idToNft[i + 1].nftContract == _collection */\n      0xffffffffffffffffffffffffffffffffffffffff\n      and\n      eq\n        /* \"contracts/GeekNftMarketPlace.sol\":5474:5568  if(_idToNft[i + 1].nftContract == _collection) {... */\n      iszero\n      tag_218\n      jumpi\n        /* \"contracts/GeekNftMarketPlace.sol\":5539:5553  myNftsCount ++ */\n      dup2\n      dup1\n      tag_219\n      swap1\n      tag_88\n      jump\t// in\n    tag_219:\n      swap3\n      pop\n      pop\n        /* \"contracts/GeekNftMarketPlace.sol\":5474:5568  if(_idToNft[i + 1].nftContract == _collection) {... */\n    tag_218:\n        /* \"contracts/GeekNftMarketPlace.sol\":5455:5458  i++ */\n      dup1\n      dup1\n      tag_220\n      swap1\n      tag_88\n      jump\t// in\n    tag_220:\n      swap2\n      pop\n      pop\n        /* \"contracts/GeekNftMarketPlace.sol\":5422:5578  for (uint i = 1; i <= nftsCount; i++) {... */\n      jump(tag_214)\n    tag_215:\n      pop\n        /* \"contracts/GeekNftMarketPlace.sol\":5588:5607  NFT[] memory myNfts */\n      0x00\n        /* \"contracts/GeekNftMarketPlace.sol\":5620:5631  myNftsCount */\n      dup2\n        /* \"contracts/GeekNftMarketPlace.sol\":5610:5632  new NFT[](myNftsCount) */\n      0xffffffffffffffff\n      dup2\n      gt\n      iszero\n      tag_221\n      jumpi\n      tag_222\n      tag_92\n      jump\t// in\n    tag_222:\n    tag_221:\n      mload(0x40)\n      swap1\n      dup1\n      dup3\n      mstore\n      dup1\n      0x20\n      mul\n      0x20\n      add\n      dup3\n      add\n      0x40\n      mstore\n      dup1\n      iszero\n      tag_223\n      jumpi\n      dup2\n      0x20\n      add\n    tag_224:\n      tag_225\n      tag_96\n      jump\t// in\n    tag_225:\n      dup2\n      mstore\n      0x20\n      add\n      swap1\n      0x01\n      swap1\n      sub\n      swap1\n      dup2\n      tag_224\n      jumpi\n      swap1\n      pop\n    tag_223:\n      pop\n        /* \"contracts/GeekNftMarketPlace.sol\":5588:5632  NFT[] memory myNfts = new NFT[](myNftsCount) */\n      swap1\n      pop\n        /* \"contracts/GeekNftMarketPlace.sol\":5642:5655  uint nftIndex */\n      0x00\n        /* \"contracts/GeekNftMarketPlace.sol\":5674:5680  uint i */\n      dup1\n        /* \"contracts/GeekNftMarketPlace.sol\":5683:5684  1 */\n      0x01\n        /* \"contracts/GeekNftMarketPlace.sol\":5674:5684  uint i = 1 */\n      swap1\n      pop\n        /* \"contracts/GeekNftMarketPlace.sol\":5669:5866  for (uint i = 1; i <= nftsCount; i++) {... */\n    tag_226:\n        /* \"contracts/GeekNftMarketPlace.sol\":5691:5700  nftsCount */\n      dup5\n        /* \"contracts/GeekNftMarketPlace.sol\":5686:5687  i */\n      dup2\n        /* \"contracts/GeekNftMarketPlace.sol\":5686:5700  i <= nftsCount */\n      gt\n        /* \"contracts/GeekNftMarketPlace.sol\":5669:5866  for (uint i = 1; i <= nftsCount; i++) {... */\n      tag_227\n      jumpi\n        /* \"contracts/GeekNftMarketPlace.sol\":5751:5762  _collection */\n      dup7\n        /* \"contracts/GeekNftMarketPlace.sol\":5724:5762  _idToNft[i].nftContract == _collection */\n      0xffffffffffffffffffffffffffffffffffffffff\n      and\n        /* \"contracts/GeekNftMarketPlace.sol\":5724:5732  _idToNft */\n      0x05\n        /* \"contracts/GeekNftMarketPlace.sol\":5724:5735  _idToNft[i] */\n      0x00\n        /* \"contracts/GeekNftMarketPlace.sol\":5733:5734  i */\n      dup4\n        /* \"contracts/GeekNftMarketPlace.sol\":5724:5735  _idToNft[i] */\n      dup2\n      mstore\n      0x20\n      add\n      swap1\n      dup2\n      mstore\n      0x20\n      add\n      0x00\n      keccak256\n        /* \"contracts/GeekNftMarketPlace.sol\":5724:5747  _idToNft[i].nftContract */\n      0x00\n      add\n      0x00\n      swap1\n      sload\n      swap1\n      0x0100\n      exp\n      swap1\n      div\n      0xffffffffffffffffffffffffffffffffffffffff\n      and\n        /* \"contracts/GeekNftMarketPlace.sol\":5724:5762  _idToNft[i].nftContract == _collection */\n      0xffffffffffffffffffffffffffffffffffffffff\n      and\n      eq\n        /* \"contracts/GeekNftMarketPlace.sol\":5721:5856  if(_idToNft[i].nftContract == _collection) {... */\n      iszero\n      tag_229\n      jumpi\n        /* \"contracts/GeekNftMarketPlace.sol\":5801:5809  _idToNft */\n      0x05\n        /* \"contracts/GeekNftMarketPlace.sol\":5801:5812  _idToNft[i] */\n      0x00\n        /* \"contracts/GeekNftMarketPlace.sol\":5810:5811  i */\n      dup3\n        /* \"contracts/GeekNftMarketPlace.sol\":5801:5812  _idToNft[i] */\n      dup2\n      mstore\n      0x20\n      add\n      swap1\n      dup2\n      mstore\n      0x20\n      add\n      0x00\n      keccak256\n        /* \"contracts/GeekNftMarketPlace.sol\":5782:5812  myNfts[nftIndex] = _idToNft[i] */\n      mload(0x40)\n      dup1\n      0xe0\n      add\n      0x40\n      mstore\n      swap1\n      dup2\n      0x00\n      dup3\n      add\n      0x00\n      swap1\n      sload\n      swap1\n      0x0100\n      exp\n      swap1\n      div\n      0xffffffffffffffffffffffffffffffffffffffff\n      and\n      0xffffffffffffffffffffffffffffffffffffffff\n      and\n      0xffffffffffffffffffffffffffffffffffffffff\n      and\n      dup2\n      mstore\n      0x20\n      add\n      0x01\n      dup3\n      add\n      sload\n      dup2\n      mstore\n      0x20\n      add\n      0x02\n      dup3\n      add\n      sload\n      dup2\n      mstore\n      0x20\n      add\n      0x03\n      dup3\n      add\n      0x00\n      swap1\n      sload\n      swap1\n      0x0100\n      exp\n      swap1\n      div\n      0xffffffffffffffffffffffffffffffffffffffff\n      and\n      0xffffffffffffffffffffffffffffffffffffffff\n      and\n      0xffffffffffffffffffffffffffffffffffffffff\n      and\n      dup2\n      mstore\n      0x20\n      add\n      0x04\n      dup3\n      add\n      0x00\n      swap1\n      sload\n      swap1\n      0x0100\n      exp\n      swap1\n      div\n      0xffffffffffffffffffffffffffffffffffffffff\n      and\n      0xffffffffffffffffffffffffffffffffffffffff\n      and\n      0xffffffffffffffffffffffffffffffffffffffff\n      and\n      dup2\n      mstore\n      0x20\n      add\n      0x05\n      dup3\n      add\n      0x00\n      swap1\n      sload\n      swap1\n      0x0100\n      exp\n      swap1\n      div\n      0xffffffffffffffffffffffffffffffffffffffff\n      and\n      0xffffffffffffffffffffffffffffffffffffffff\n      and\n      0xffffffffffffffffffffffffffffffffffffffff\n      and\n      dup2\n      mstore\n      0x20\n      add\n      0x05\n      dup3\n      add\n      0x14\n      swap1\n      sload\n      swap1\n      0x0100\n      exp\n      swap1\n      div\n      0xff\n      and\n      iszero\n      iszero\n      iszero\n      iszero\n      dup2\n      mstore\n      pop\n      pop\n        /* \"contracts/GeekNftMarketPlace.sol\":5782:5788  myNfts */\n      dup4\n        /* \"contracts/GeekNftMarketPlace.sol\":5789:5797  nftIndex */\n      dup4\n        /* \"contracts/GeekNftMarketPlace.sol\":5782:5798  myNfts[nftIndex] */\n      dup2\n      mload\n      dup2\n      lt\n      tag_230\n      jumpi\n      tag_231\n      tag_107\n      jump\t// in\n    tag_231:\n    tag_230:\n      0x20\n      mul\n      0x20\n      add\n      add\n        /* \"contracts/GeekNftMarketPlace.sol\":5782:5812  myNfts[nftIndex] = _idToNft[i] */\n      dup2\n      swap1\n      mstore\n      pop\n        /* \"contracts/GeekNftMarketPlace.sol\":5830:5841  nftIndex ++ */\n      dup2\n      dup1\n      tag_232\n      swap1\n      tag_88\n      jump\t// in\n    tag_232:\n      swap3\n      pop\n      pop\n        /* \"contracts/GeekNftMarketPlace.sol\":5721:5856  if(_idToNft[i].nftContract == _collection) {... */\n    tag_229:\n        /* \"contracts/GeekNftMarketPlace.sol\":5702:5705  i++ */\n      dup1\n      dup1\n      tag_233\n      swap1\n      tag_88\n      jump\t// in\n    tag_233:\n      swap2\n      pop\n      pop\n        /* \"contracts/GeekNftMarketPlace.sol\":5669:5866  for (uint i = 1; i <= nftsCount; i++) {... */\n      jump(tag_226)\n    tag_227:\n      pop\n        /* \"contracts/GeekNftMarketPlace.sol\":5883:5889  myNfts */\n      dup2\n        /* \"contracts/GeekNftMarketPlace.sol\":5876:5889  return myNfts */\n      swap5\n      pop\n      pop\n      pop\n      pop\n      pop\n        /* \"contracts/GeekNftMarketPlace.sol\":5252:5896  function getCollectionNfts(address _collection) public view returns (NFT[] memory) {... */\n      swap2\n      swap1\n      pop\n      jump\t// out\n        /* \"contracts/Counters.sol\":1074:1303  function decrement(Counter storage counter) internal {... */\n    tag_73:\n        /* \"contracts/Counters.sol\":1137:1150  uint256 value */\n      0x00\n        /* \"contracts/Counters.sol\":1153:1160  counter */\n      dup2\n        /* \"contracts/Counters.sol\":1153:1167  counter._value */\n      0x00\n      add\n      sload\n        /* \"contracts/Counters.sol\":1137:1167  uint256 value = counter._value */\n      swap1\n      pop\n        /* \"contracts/Counters.sol\":1193:1194  0 */\n      0x00\n        /* \"contracts/Counters.sol\":1185:1190  value */\n      dup2\n        /* \"contracts/Counters.sol\":1185:1194  value > 0 */\n      gt\n        /* \"contracts/Counters.sol\":1177:1226  require(value > 0, \"Counter: decrement overflow\") */\n      tag_235\n      jumpi\n      mload(0x40)\n      0x08c379a000000000000000000000000000000000000000000000000000000000\n      dup2\n      mstore\n      0x04\n      add\n      tag_236\n      swap1\n      tag_237\n      jump\t// in\n    tag_236:\n      mload(0x40)\n      dup1\n      swap2\n      sub\n      swap1\n      revert\n    tag_235:\n        /* \"contracts/Counters.sol\":1285:1286  1 */\n      0x01\n        /* \"contracts/Counters.sol\":1277:1282  value */\n      dup2\n        /* \"contracts/Counters.sol\":1277:1286  value - 1 */\n      sub\n        /* \"contracts/Counters.sol\":1260:1267  counter */\n      dup3\n        /* \"contracts/Counters.sol\":1260:1274  counter._value */\n      0x00\n      add\n        /* \"contracts/Counters.sol\":1260:1286  counter._value = value - 1 */\n      dup2\n      swap1\n      sstore\n      pop\n        /* \"contracts/Counters.sol\":1127:1303  {... */\n      pop\n        /* \"contracts/Counters.sol\":1074:1303  function decrement(Counter storage counter) internal {... */\n      pop\n      jump\t// out\n        /* \"contracts/Counters.sol\":827:939  function current(Counter storage counter) internal view returns (uint256) {... */\n    tag_78:\n        /* \"contracts/Counters.sol\":892:899  uint256 */\n      0x00\n        /* \"contracts/Counters.sol\":918:925  counter */\n      dup2\n        /* \"contracts/Counters.sol\":918:932  counter._value */\n      0x00\n      add\n      sload\n        /* \"contracts/Counters.sol\":911:932  return counter._value */\n      swap1\n      pop\n        /* \"contracts/Counters.sol\":827:939  function current(Counter storage counter) internal view returns (uint256) {... */\n      swap2\n      swap1\n      pop\n      jump\t// out\n        /* \"contracts/Counters.sol\":945:1068  function increment(Counter storage counter) internal {... */\n    tag_125:\n        /* \"contracts/Counters.sol\":1050:1051  1 */\n      0x01\n        /* \"contracts/Counters.sol\":1032:1039  counter */\n      dup2\n        /* \"contracts/Counters.sol\":1032:1046  counter._value */\n      0x00\n      add\n      0x00\n        /* \"contracts/Counters.sol\":1032:1051  counter._value += 1 */\n      dup3\n      dup3\n      sload\n      add\n      swap3\n      pop\n      pop\n      dup2\n      swap1\n      sstore\n      pop\n        /* \"contracts/Counters.sol\":945:1068  function increment(Counter storage counter) internal {... */\n      pop\n      jump\t// out\n    tag_96:\n      mload(0x40)\n      dup1\n      0xe0\n      add\n      0x40\n      mstore\n      dup1\n      and(0xffffffffffffffffffffffffffffffffffffffff, 0x00)\n      dup2\n      mstore\n      0x20\n      add\n      0x00\n      dup2\n      mstore\n      0x20\n      add\n      0x00\n      dup2\n      mstore\n      0x20\n      add\n      and(0xffffffffffffffffffffffffffffffffffffffff, 0x00)\n      dup2\n      mstore\n      0x20\n      add\n      and(0xffffffffffffffffffffffffffffffffffffffff, 0x00)\n      dup2\n      mstore\n      0x20\n      add\n      and(0xffffffffffffffffffffffffffffffffffffffff, 0x00)\n      dup2\n      mstore\n      0x20\n      add\n      iszero(iszero(0x00))\n      dup2\n      mstore\n      pop\n      swap1\n      jump\t// out\n        /* \"#utility.yul\":7:146   */\n    tag_241:\n        /* \"#utility.yul\":53:58   */\n      0x00\n        /* \"#utility.yul\":91:97   */\n      dup2\n        /* \"#utility.yul\":78:98   */\n      calldataload\n        /* \"#utility.yul\":69:98   */\n      swap1\n      pop\n        /* \"#utility.yul\":107:140   */\n      tag_243\n        /* \"#utility.yul\":134:139   */\n      dup2\n        /* \"#utility.yul\":107:140   */\n      tag_244\n      jump\t// in\n    tag_243:\n        /* \"#utility.yul\":7:146   */\n      swap3\n      swap2\n      pop\n      pop\n      jump\t// out\n        /* \"#utility.yul\":152:291   */\n    tag_245:\n        /* \"#utility.yul\":198:203   */\n      0x00\n        /* \"#utility.yul\":236:242   */\n      dup2\n        /* \"#utility.yul\":223:243   */\n      calldataload\n        /* \"#utility.yul\":214:243   */\n      swap1\n      pop\n        /* \"#utility.yul\":252:285   */\n      tag_247\n        /* \"#utility.yul\":279:284   */\n      dup2\n        /* \"#utility.yul\":252:285   */\n      tag_248\n      jump\t// in\n    tag_247:\n        /* \"#utility.yul\":152:291   */\n      swap3\n      swap2\n      pop\n      pop\n      jump\t// out\n        /* \"#utility.yul\":297:626   */\n    tag_53:\n        /* \"#utility.yul\":356:362   */\n      0x00\n        /* \"#utility.yul\":405:407   */\n      0x20\n        /* \"#utility.yul\":393:402   */\n      dup3\n        /* \"#utility.yul\":384:391   */\n      dup5\n        /* \"#utility.yul\":380:403   */\n      sub\n        /* \"#utility.yul\":376:408   */\n      slt\n        /* \"#utility.yul\":373:492   */\n      iszero\n      tag_250\n      jumpi\n        /* \"#utility.yul\":411:490   */\n      tag_251\n      tag_252\n      jump\t// in\n    tag_251:\n        /* \"#utility.yul\":373:492   */\n    tag_250:\n        /* \"#utility.yul\":531:532   */\n      0x00\n        /* \"#utility.yul\":556:609   */\n      tag_253\n        /* \"#utility.yul\":601:608   */\n      dup5\n        /* \"#utility.yul\":592:598   */\n      dup3\n        /* \"#utility.yul\":581:590   */\n      dup6\n        /* \"#utility.yul\":577:599   */\n      add\n        /* \"#utility.yul\":556:609   */\n      tag_241\n      jump\t// in\n    tag_253:\n        /* \"#utility.yul\":546:609   */\n      swap2\n      pop\n        /* \"#utility.yul\":502:619   */\n      pop\n        /* \"#utility.yul\":297:626   */\n      swap3\n      swap2\n      pop\n      pop\n      jump\t// out\n        /* \"#utility.yul\":632:1106   */\n    tag_29:\n        /* \"#utility.yul\":700:706   */\n      0x00\n        /* \"#utility.yul\":708:714   */\n      dup1\n        /* \"#utility.yul\":757:759   */\n      0x40\n        /* \"#utility.yul\":745:754   */\n      dup4\n        /* \"#utility.yul\":736:743   */\n      dup6\n        /* \"#utility.yul\":732:755   */\n      sub\n        /* \"#utility.yul\":728:760   */\n      slt\n        /* \"#utility.yul\":725:844   */\n      iszero\n      tag_255\n      jumpi\n        /* \"#utility.yul\":763:842   */\n      tag_256\n      tag_252\n      jump\t// in\n    tag_256:\n        /* \"#utility.yul\":725:844   */\n    tag_255:\n        /* \"#utility.yul\":883:884   */\n      0x00\n        /* \"#utility.yul\":908:961   */\n      tag_257\n        /* \"#utility.yul\":953:960   */\n      dup6\n        /* \"#utility.yul\":944:950   */\n      dup3\n        /* \"#utility.yul\":933:942   */\n      dup7\n        /* \"#utility.yul\":929:951   */\n      add\n        /* \"#utility.yul\":908:961   */\n      tag_241\n      jump\t// in\n    tag_257:\n        /* \"#utility.yul\":898:961   */\n      swap3\n      pop\n        /* \"#utility.yul\":854:971   */\n      pop\n        /* \"#utility.yul\":1010:1012   */\n      0x20\n        /* \"#utility.yul\":1036:1089   */\n      tag_258\n        /* \"#utility.yul\":1081:1088   */\n      dup6\n        /* \"#utility.yul\":1072:1078   */\n      dup3\n        /* \"#utility.yul\":1061:1070   */\n      dup7\n        /* \"#utility.yul\":1057:1079   */\n      add\n        /* \"#utility.yul\":1036:1089   */\n      tag_245\n      jump\t// in\n    tag_258:\n        /* \"#utility.yul\":1026:1089   */\n      swap2\n      pop\n        /* \"#utility.yul\":981:1099   */\n      pop\n        /* \"#utility.yul\":632:1106   */\n      swap3\n      pop\n      swap3\n      swap1\n      pop\n      jump\t// out\n        /* \"#utility.yul\":1112:1731   */\n    tag_15:\n        /* \"#utility.yul\":1189:1195   */\n      0x00\n        /* \"#utility.yul\":1197:1203   */\n      dup1\n        /* \"#utility.yul\":1205:1211   */\n      0x00\n        /* \"#utility.yul\":1254:1256   */\n      0x60\n        /* \"#utility.yul\":1242:1251   */\n      dup5\n        /* \"#utility.yul\":1233:1240   */\n      dup7\n        /* \"#utility.yul\":1229:1252   */\n      sub\n        /* \"#utility.yul\":1225:1257   */\n      slt\n        /* \"#utility.yul\":1222:1341   */\n      iszero\n      tag_260\n      jumpi\n        /* \"#utility.yul\":1260:1339   */\n      tag_261\n      tag_252\n      jump\t// in\n    tag_261:\n        /* \"#utility.yul\":1222:1341   */\n    tag_260:\n        /* \"#utility.yul\":1380:1381   */\n      0x00\n        /* \"#utility.yul\":1405:1458   */\n      tag_262\n        /* \"#utility.yul\":1450:1457   */\n      dup7\n        /* \"#utility.yul\":1441:1447   */\n      dup3\n        /* \"#utility.yul\":1430:1439   */\n      dup8\n        /* \"#utility.yul\":1426:1448   */\n      add\n        /* \"#utility.yul\":1405:1458   */\n      tag_241\n      jump\t// in\n    tag_262:\n        /* \"#utility.yul\":1395:1458   */\n      swap4\n      pop\n        /* \"#utility.yul\":1351:1468   */\n      pop\n        /* \"#utility.yul\":1507:1509   */\n      0x20\n        /* \"#utility.yul\":1533:1586   */\n      tag_263\n        /* \"#utility.yul\":1578:1585   */\n      dup7\n        /* \"#utility.yul\":1569:1575   */\n      dup3\n        /* \"#utility.yul\":1558:1567   */\n      dup8\n        /* \"#utility.yul\":1554:1576   */\n      add\n        /* \"#utility.yul\":1533:1586   */\n      tag_245\n      jump\t// in\n    tag_263:\n        /* \"#utility.yul\":1523:1586   */\n      swap3\n      pop\n        /* \"#utility.yul\":1478:1596   */\n      pop\n        /* \"#utility.yul\":1635:1637   */\n      0x40\n        /* \"#utility.yul\":1661:1714   */\n      tag_264\n        /* \"#utility.yul\":1706:1713   */\n      dup7\n        /* \"#utility.yul\":1697:1703   */\n      dup3\n        /* \"#utility.yul\":1686:1695   */\n      dup8\n        /* \"#utility.yul\":1682:1704   */\n      add\n        /* \"#utility.yul\":1661:1714   */\n      tag_245\n      jump\t// in\n    tag_264:\n        /* \"#utility.yul\":1651:1714   */\n      swap2\n      pop\n        /* \"#utility.yul\":1606:1724   */\n      pop\n        /* \"#utility.yul\":1112:1731   */\n      swap3\n      pop\n      swap3\n      pop\n      swap3\n      jump\t// out\n        /* \"#utility.yul\":1737:1996   */\n    tag_265:\n        /* \"#utility.yul\":1846:1856   */\n      0x00\n        /* \"#utility.yul\":1867:1953   */\n      tag_267\n        /* \"#utility.yul\":1949:1952   */\n      dup4\n        /* \"#utility.yul\":1941:1947   */\n      dup4\n        /* \"#utility.yul\":1867:1953   */\n      tag_268\n      jump\t// in\n    tag_267:\n        /* \"#utility.yul\":1985:1989   */\n      0xe0\n        /* \"#utility.yul\":1980:1983   */\n      dup4\n        /* \"#utility.yul\":1976:1990   */\n      add\n        /* \"#utility.yul\":1962:1990   */\n      swap1\n      pop\n        /* \"#utility.yul\":1737:1996   */\n      swap3\n      swap2\n      pop\n      pop\n      jump\t// out\n        /* \"#utility.yul\":2002:2149   */\n    tag_269:\n        /* \"#utility.yul\":2097:2142   */\n      tag_271\n        /* \"#utility.yul\":2136:2141   */\n      dup2\n        /* \"#utility.yul\":2097:2142   */\n      tag_272\n      jump\t// in\n    tag_271:\n        /* \"#utility.yul\":2092:2095   */\n      dup3\n        /* \"#utility.yul\":2085:2143   */\n      mstore\n        /* \"#utility.yul\":2002:2149   */\n      pop\n      pop\n      jump\t// out\n        /* \"#utility.yul\":2155:2287   */\n    tag_273:\n        /* \"#utility.yul\":2248:2280   */\n      tag_275\n        /* \"#utility.yul\":2274:2279   */\n      dup2\n        /* \"#utility.yul\":2248:2280   */\n      tag_276\n      jump\t// in\n    tag_275:\n        /* \"#utility.yul\":2243:2246   */\n      dup3\n        /* \"#utility.yul\":2236:2281   */\n      mstore\n        /* \"#utility.yul\":2155:2287   */\n      pop\n      pop\n      jump\t// out\n        /* \"#utility.yul\":2293:2401   */\n    tag_277:\n        /* \"#utility.yul\":2370:2394   */\n      tag_279\n        /* \"#utility.yul\":2388:2393   */\n      dup2\n        /* \"#utility.yul\":2370:2394   */\n      tag_280\n      jump\t// in\n    tag_279:\n        /* \"#utility.yul\":2365:2368   */\n      dup3\n        /* \"#utility.yul\":2358:2395   */\n      mstore\n        /* \"#utility.yul\":2293:2401   */\n      pop\n      pop\n      jump\t// out\n        /* \"#utility.yul\":2407:2525   */\n    tag_281:\n        /* \"#utility.yul\":2494:2518   */\n      tag_283\n        /* \"#utility.yul\":2512:2517   */\n      dup2\n        /* \"#utility.yul\":2494:2518   */\n      tag_280\n      jump\t// in\n    tag_283:\n        /* \"#utility.yul\":2489:2492   */\n      dup3\n        /* \"#utility.yul\":2482:2519   */\n      mstore\n        /* \"#utility.yul\":2407:2525   */\n      pop\n      pop\n      jump\t// out\n        /* \"#utility.yul\":2605:3497   */\n    tag_284:\n        /* \"#utility.yul\":2764:2767   */\n      0x00\n        /* \"#utility.yul\":2793:2867   */\n      tag_286\n        /* \"#utility.yul\":2861:2866   */\n      dup3\n        /* \"#utility.yul\":2793:2867   */\n      tag_287\n      jump\t// in\n    tag_286:\n        /* \"#utility.yul\":2883:2989   */\n      tag_288\n        /* \"#utility.yul\":2982:2988   */\n      dup2\n        /* \"#utility.yul\":2977:2980   */\n      dup6\n        /* \"#utility.yul\":2883:2989   */\n      tag_289\n      jump\t// in\n    tag_288:\n        /* \"#utility.yul\":2876:2989   */\n      swap4\n      pop\n        /* \"#utility.yul\":3013:3089   */\n      tag_290\n        /* \"#utility.yul\":3083:3088   */\n      dup4\n        /* \"#utility.yul\":3013:3089   */\n      tag_291\n      jump\t// in\n    tag_290:\n        /* \"#utility.yul\":3112:3119   */\n      dup1\n        /* \"#utility.yul\":3143:3144   */\n      0x00\n        /* \"#utility.yul\":3128:3472   */\n    tag_292:\n        /* \"#utility.yul\":3153:3159   */\n      dup4\n        /* \"#utility.yul\":3150:3151   */\n      dup2\n        /* \"#utility.yul\":3147:3160   */\n      lt\n        /* \"#utility.yul\":3128:3472   */\n      iszero\n      tag_294\n      jumpi\n        /* \"#utility.yul\":3229:3235   */\n      dup2\n        /* \"#utility.yul\":3223:3236   */\n      mload\n        /* \"#utility.yul\":3256:3359   */\n      tag_295\n        /* \"#utility.yul\":3355:3358   */\n      dup9\n        /* \"#utility.yul\":3340:3353   */\n      dup3\n        /* \"#utility.yul\":3256:3359   */\n      tag_265\n      jump\t// in\n    tag_295:\n        /* \"#utility.yul\":3249:3359   */\n      swap8\n      pop\n        /* \"#utility.yul\":3382:3462   */\n      tag_296\n        /* \"#utility.yul\":3455:3461   */\n      dup4\n        /* \"#utility.yul\":3382:3462   */\n      tag_297\n      jump\t// in\n    tag_296:\n        /* \"#utility.yul\":3372:3462   */\n      swap3\n      pop\n        /* \"#utility.yul\":3188:3472   */\n      pop\n        /* \"#utility.yul\":3175:3176   */\n      0x01\n        /* \"#utility.yul\":3172:3173   */\n      dup2\n        /* \"#utility.yul\":3168:3177   */\n      add\n        /* \"#utility.yul\":3163:3177   */\n      swap1\n      pop\n        /* \"#utility.yul\":3128:3472   */\n      jump(tag_292)\n    tag_294:\n        /* \"#utility.yul\":3132:3146   */\n      pop\n        /* \"#utility.yul\":3488:3491   */\n      dup6\n        /* \"#utility.yul\":3481:3491   */\n      swap4\n      pop\n        /* \"#utility.yul\":2769:3497   */\n      pop\n      pop\n      pop\n        /* \"#utility.yul\":2605:3497   */\n      swap3\n      swap2\n      pop\n      pop\n      jump\t// out\n        /* \"#utility.yul\":3503:3602   */\n    tag_298:\n        /* \"#utility.yul\":3574:3595   */\n      tag_300\n        /* \"#utility.yul\":3589:3594   */\n      dup2\n        /* \"#utility.yul\":3574:3595   */\n      tag_301\n      jump\t// in\n    tag_300:\n        /* \"#utility.yul\":3569:3572   */\n      dup3\n        /* \"#utility.yul\":3562:3596   */\n      mstore\n        /* \"#utility.yul\":3503:3602   */\n      pop\n      pop\n      jump\t// out\n        /* \"#utility.yul\":3608:3974   */\n    tag_302:\n        /* \"#utility.yul\":3750:3753   */\n      0x00\n        /* \"#utility.yul\":3771:3838   */\n      tag_304\n        /* \"#utility.yul\":3835:3837   */\n      0x1b\n        /* \"#utility.yul\":3830:3833   */\n      dup4\n        /* \"#utility.yul\":3771:3838   */\n      tag_305\n      jump\t// in\n    tag_304:\n        /* \"#utility.yul\":3764:3838   */\n      swap2\n      pop\n        /* \"#utility.yul\":3847:3940   */\n      tag_306\n        /* \"#utility.yul\":3936:3939   */\n      dup3\n        /* \"#utility.yul\":3847:3940   */\n      tag_307\n      jump\t// in\n    tag_306:\n        /* \"#utility.yul\":3965:3967   */\n      0x20\n        /* \"#utility.yul\":3960:3963   */\n      dup3\n        /* \"#utility.yul\":3956:3968   */\n      add\n        /* \"#utility.yul\":3949:3968   */\n      swap1\n      pop\n        /* \"#utility.yul\":3608:3974   */\n      swap2\n      swap1\n      pop\n      jump\t// out\n        /* \"#utility.yul\":3980:4346   */\n    tag_308:\n        /* \"#utility.yul\":4122:4125   */\n      0x00\n        /* \"#utility.yul\":4143:4210   */\n      tag_310\n        /* \"#utility.yul\":4207:4209   */\n      0x26\n        /* \"#utility.yul\":4202:4205   */\n      dup4\n        /* \"#utility.yul\":4143:4210   */\n      tag_305\n      jump\t// in\n    tag_310:\n        /* \"#utility.yul\":4136:4210   */\n      swap2\n      pop\n        /* \"#utility.yul\":4219:4312   */\n      tag_311\n        /* \"#utility.yul\":4308:4311   */\n      dup3\n        /* \"#utility.yul\":4219:4312   */\n      tag_312\n      jump\t// in\n    tag_311:\n        /* \"#utility.yul\":4337:4339   */\n      0x40\n        /* \"#utility.yul\":4332:4335   */\n      dup3\n        /* \"#utility.yul\":4328:4340   */\n      add\n        /* \"#utility.yul\":4321:4340   */\n      swap1\n      pop\n        /* \"#utility.yul\":3980:4346   */\n      swap2\n      swap1\n      pop\n      jump\t// out\n        /* \"#utility.yul\":4352:4718   */\n    tag_313:\n        /* \"#utility.yul\":4494:4497   */\n      0x00\n        /* \"#utility.yul\":4515:4582   */\n      tag_315\n        /* \"#utility.yul\":4579:4581   */\n      0x20\n        /* \"#utility.yul\":4574:4577   */\n      dup4\n        /* \"#utility.yul\":4515:4582   */\n      tag_305\n      jump\t// in\n    tag_315:\n        /* \"#utility.yul\":4508:4582   */\n      swap2\n      pop\n        /* \"#utility.yul\":4591:4684   */\n      tag_316\n        /* \"#utility.yul\":4680:4683   */\n      dup3\n        /* \"#utility.yul\":4591:4684   */\n      tag_317\n      jump\t// in\n    tag_316:\n        /* \"#utility.yul\":4709:4711   */\n      0x20\n        /* \"#utility.yul\":4704:4707   */\n      dup3\n        /* \"#utility.yul\":4700:4712   */\n      add\n        /* \"#utility.yul\":4693:4712   */\n      swap1\n      pop\n        /* \"#utility.yul\":4352:4718   */\n      swap2\n      swap1\n      pop\n      jump\t// out\n        /* \"#utility.yul\":4724:5090   */\n    tag_318:\n        /* \"#utility.yul\":4866:4869   */\n      0x00\n        /* \"#utility.yul\":4887:4954   */\n      tag_320\n        /* \"#utility.yul\":4951:4953   */\n      0x1f\n        /* \"#utility.yul\":4946:4949   */\n      dup4\n        /* \"#utility.yul\":4887:4954   */\n      tag_305\n      jump\t// in\n    tag_320:\n        /* \"#utility.yul\":4880:4954   */\n      swap2\n      pop\n        /* \"#utility.yul\":4963:5056   */\n      tag_321\n        /* \"#utility.yul\":5052:5055   */\n      dup3\n        /* \"#utility.yul\":4963:5056   */\n      tag_322\n      jump\t// in\n    tag_321:\n        /* \"#utility.yul\":5081:5083   */\n      0x20\n        /* \"#utility.yul\":5076:5079   */\n      dup3\n        /* \"#utility.yul\":5072:5084   */\n      add\n        /* \"#utility.yul\":5065:5084   */\n      swap1\n      pop\n        /* \"#utility.yul\":4724:5090   */\n      swap2\n      swap1\n      pop\n      jump\t// out\n        /* \"#utility.yul\":5096:5462   */\n    tag_323:\n        /* \"#utility.yul\":5238:5241   */\n      0x00\n        /* \"#utility.yul\":5259:5326   */\n      tag_325\n        /* \"#utility.yul\":5323:5325   */\n      0x1c\n        /* \"#utility.yul\":5318:5321   */\n      dup4\n        /* \"#utility.yul\":5259:5326   */\n      tag_305\n      jump\t// in\n    tag_325:\n        /* \"#utility.yul\":5252:5326   */\n      swap2\n      pop\n        /* \"#utility.yul\":5335:5428   */\n      tag_326\n        /* \"#utility.yul\":5424:5427   */\n      dup3\n        /* \"#utility.yul\":5335:5428   */\n      tag_327\n      jump\t// in\n    tag_326:\n        /* \"#utility.yul\":5453:5455   */\n      0x20\n        /* \"#utility.yul\":5448:5451   */\n      dup3\n        /* \"#utility.yul\":5444:5456   */\n      add\n        /* \"#utility.yul\":5437:5456   */\n      swap1\n      pop\n        /* \"#utility.yul\":5096:5462   */\n      swap2\n      swap1\n      pop\n      jump\t// out\n        /* \"#utility.yul\":5538:6956   */\n    tag_268:\n        /* \"#utility.yul\":5665:5669   */\n      0xe0\n        /* \"#utility.yul\":5660:5663   */\n      dup3\n        /* \"#utility.yul\":5656:5670   */\n      add\n        /* \"#utility.yul\":5759:5763   */\n      0x00\n        /* \"#utility.yul\":5752:5757   */\n      dup3\n        /* \"#utility.yul\":5748:5764   */\n      add\n        /* \"#utility.yul\":5742:5765   */\n      mload\n        /* \"#utility.yul\":5778:5841   */\n      tag_329\n        /* \"#utility.yul\":5835:5839   */\n      0x00\n        /* \"#utility.yul\":5830:5833   */\n      dup6\n        /* \"#utility.yul\":5826:5840   */\n      add\n        /* \"#utility.yul\":5812:5824   */\n      dup3\n        /* \"#utility.yul\":5778:5841   */\n      tag_277\n      jump\t// in\n    tag_329:\n        /* \"#utility.yul\":5680:5851   */\n      pop\n        /* \"#utility.yul\":5936:5940   */\n      0x20\n        /* \"#utility.yul\":5929:5934   */\n      dup3\n        /* \"#utility.yul\":5925:5941   */\n      add\n        /* \"#utility.yul\":5919:5942   */\n      mload\n        /* \"#utility.yul\":5955:6018   */\n      tag_330\n        /* \"#utility.yul\":6012:6016   */\n      0x20\n        /* \"#utility.yul\":6007:6010   */\n      dup6\n        /* \"#utility.yul\":6003:6017   */\n      add\n        /* \"#utility.yul\":5989:6001   */\n      dup3\n        /* \"#utility.yul\":5955:6018   */\n      tag_331\n      jump\t// in\n    tag_330:\n        /* \"#utility.yul\":5861:6028   */\n      pop\n        /* \"#utility.yul\":6111:6115   */\n      0x40\n        /* \"#utility.yul\":6104:6109   */\n      dup3\n        /* \"#utility.yul\":6100:6116   */\n      add\n        /* \"#utility.yul\":6094:6117   */\n      mload\n        /* \"#utility.yul\":6130:6193   */\n      tag_332\n        /* \"#utility.yul\":6187:6191   */\n      0x40\n        /* \"#utility.yul\":6182:6185   */\n      dup6\n        /* \"#utility.yul\":6178:6192   */\n      add\n        /* \"#utility.yul\":6164:6176   */\n      dup3\n        /* \"#utility.yul\":6130:6193   */\n      tag_331\n      jump\t// in\n    tag_332:\n        /* \"#utility.yul\":6038:6203   */\n      pop\n        /* \"#utility.yul\":6287:6291   */\n      0x60\n        /* \"#utility.yul\":6280:6285   */\n      dup3\n        /* \"#utility.yul\":6276:6292   */\n      add\n        /* \"#utility.yul\":6270:6293   */\n      mload\n        /* \"#utility.yul\":6306:6385   */\n      tag_333\n        /* \"#utility.yul\":6379:6383   */\n      0x60\n        /* \"#utility.yul\":6374:6377   */\n      dup6\n        /* \"#utility.yul\":6370:6384   */\n      add\n        /* \"#utility.yul\":6356:6368   */\n      dup3\n        /* \"#utility.yul\":6306:6385   */\n      tag_273\n      jump\t// in\n    tag_333:\n        /* \"#utility.yul\":6213:6395   */\n      pop\n        /* \"#utility.yul\":6478:6482   */\n      0x80\n        /* \"#utility.yul\":6471:6476   */\n      dup3\n        /* \"#utility.yul\":6467:6483   */\n      add\n        /* \"#utility.yul\":6461:6484   */\n      mload\n        /* \"#utility.yul\":6497:6576   */\n      tag_334\n        /* \"#utility.yul\":6570:6574   */\n      0x80\n        /* \"#utility.yul\":6565:6568   */\n      dup6\n        /* \"#utility.yul\":6561:6575   */\n      add\n        /* \"#utility.yul\":6547:6559   */\n      dup3\n        /* \"#utility.yul\":6497:6576   */\n      tag_273\n      jump\t// in\n    tag_334:\n        /* \"#utility.yul\":6405:6586   */\n      pop\n        /* \"#utility.yul\":6671:6675   */\n      0xa0\n        /* \"#utility.yul\":6664:6669   */\n      dup3\n        /* \"#utility.yul\":6660:6676   */\n      add\n        /* \"#utility.yul\":6654:6677   */\n      mload\n        /* \"#utility.yul\":6690:6769   */\n      tag_335\n        /* \"#utility.yul\":6763:6767   */\n      0xa0\n        /* \"#utility.yul\":6758:6761   */\n      dup6\n        /* \"#utility.yul\":6754:6768   */\n      add\n        /* \"#utility.yul\":6740:6752   */\n      dup3\n        /* \"#utility.yul\":6690:6769   */\n      tag_273\n      jump\t// in\n    tag_335:\n        /* \"#utility.yul\":6596:6779   */\n      pop\n        /* \"#utility.yul\":6863:6867   */\n      0xc0\n        /* \"#utility.yul\":6856:6861   */\n      dup3\n        /* \"#utility.yul\":6852:6868   */\n      add\n        /* \"#utility.yul\":6846:6869   */\n      mload\n        /* \"#utility.yul\":6882:6939   */\n      tag_336\n        /* \"#utility.yul\":6933:6937   */\n      0xc0\n        /* \"#utility.yul\":6928:6931   */\n      dup6\n        /* \"#utility.yul\":6924:6938   */\n      add\n        /* \"#utility.yul\":6910:6922   */\n      dup3\n        /* \"#utility.yul\":6882:6939   */\n      tag_298\n      jump\t// in\n    tag_336:\n        /* \"#utility.yul\":6789:6949   */\n      pop\n        /* \"#utility.yul\":5634:6956   */\n      pop\n        /* \"#utility.yul\":5538:6956   */\n      pop\n      pop\n      jump\t// out\n        /* \"#utility.yul\":6962:7070   */\n    tag_331:\n        /* \"#utility.yul\":7039:7063   */\n      tag_338\n        /* \"#utility.yul\":7057:7062   */\n      dup2\n        /* \"#utility.yul\":7039:7063   */\n      tag_339\n      jump\t// in\n    tag_338:\n        /* \"#utility.yul\":7034:7037   */\n      dup3\n        /* \"#utility.yul\":7027:7064   */\n      mstore\n        /* \"#utility.yul\":6962:7070   */\n      pop\n      pop\n      jump\t// out\n        /* \"#utility.yul\":7076:7194   */\n    tag_340:\n        /* \"#utility.yul\":7163:7187   */\n      tag_342\n        /* \"#utility.yul\":7181:7186   */\n      dup2\n        /* \"#utility.yul\":7163:7187   */\n      tag_339\n      jump\t// in\n    tag_342:\n        /* \"#utility.yul\":7158:7161   */\n      dup3\n        /* \"#utility.yul\":7151:7188   */\n      mstore\n        /* \"#utility.yul\":7076:7194   */\n      pop\n      pop\n      jump\t// out\n        /* \"#utility.yul\":7200:7658   */\n    tag_120:\n        /* \"#utility.yul\":7357:7361   */\n      0x00\n        /* \"#utility.yul\":7395:7397   */\n      0x60\n        /* \"#utility.yul\":7384:7393   */\n      dup3\n        /* \"#utility.yul\":7380:7398   */\n      add\n        /* \"#utility.yul\":7372:7398   */\n      swap1\n      pop\n        /* \"#utility.yul\":7408:7479   */\n      tag_344\n        /* \"#utility.yul\":7476:7477   */\n      0x00\n        /* \"#utility.yul\":7465:7474   */\n      dup4\n        /* \"#utility.yul\":7461:7478   */\n      add\n        /* \"#utility.yul\":7452:7458   */\n      dup7\n        /* \"#utility.yul\":7408:7479   */\n      tag_281\n      jump\t// in\n    tag_344:\n        /* \"#utility.yul\":7489:7569   */\n      tag_345\n        /* \"#utility.yul\":7565:7567   */\n      0x20\n        /* \"#utility.yul\":7554:7563   */\n      dup4\n        /* \"#utility.yul\":7550:7568   */\n      add\n        /* \"#utility.yul\":7541:7547   */\n      dup6\n        /* \"#utility.yul\":7489:7569   */\n      tag_269\n      jump\t// in\n    tag_345:\n        /* \"#utility.yul\":7579:7651   */\n      tag_346\n        /* \"#utility.yul\":7647:7649   */\n      0x40\n        /* \"#utility.yul\":7636:7645   */\n      dup4\n        /* \"#utility.yul\":7632:7650   */\n      add\n        /* \"#utility.yul\":7623:7629   */\n      dup5\n        /* \"#utility.yul\":7579:7651   */\n      tag_340\n      jump\t// in\n    tag_346:\n        /* \"#utility.yul\":7200:7658   */\n      swap5\n      swap4\n      pop\n      pop\n      pop\n      pop\n      jump\t// out\n        /* \"#utility.yul\":7664:8106   */\n    tag_68:\n        /* \"#utility.yul\":7813:7817   */\n      0x00\n        /* \"#utility.yul\":7851:7853   */\n      0x60\n        /* \"#utility.yul\":7840:7849   */\n      dup3\n        /* \"#utility.yul\":7836:7854   */\n      add\n        /* \"#utility.yul\":7828:7854   */\n      swap1\n      pop\n        /* \"#utility.yul\":7864:7935   */\n      tag_348\n        /* \"#utility.yul\":7932:7933   */\n      0x00\n        /* \"#utility.yul\":7921:7930   */\n      dup4\n        /* \"#utility.yul\":7917:7934   */\n      add\n        /* \"#utility.yul\":7908:7914   */\n      dup7\n        /* \"#utility.yul\":7864:7935   */\n      tag_281\n      jump\t// in\n    tag_348:\n        /* \"#utility.yul\":7945:8017   */\n      tag_349\n        /* \"#utility.yul\":8013:8015   */\n      0x20\n        /* \"#utility.yul\":8002:8011   */\n      dup4\n        /* \"#utility.yul\":7998:8016   */\n      add\n        /* \"#utility.yul\":7989:7995   */\n      dup6\n        /* \"#utility.yul\":7945:8017   */\n      tag_281\n      jump\t// in\n    tag_349:\n        /* \"#utility.yul\":8027:8099   */\n      tag_350\n        /* \"#utility.yul\":8095:8097   */\n      0x40\n        /* \"#utility.yul\":8084:8093   */\n      dup4\n        /* \"#utility.yul\":8080:8098   */\n      add\n        /* \"#utility.yul\":8071:8077   */\n      dup5\n        /* \"#utility.yul\":8027:8099   */\n      tag_340\n      jump\t// in\n    tag_350:\n        /* \"#utility.yul\":7664:8106   */\n      swap5\n      swap4\n      pop\n      pop\n      pop\n      pop\n      jump\t// out\n        /* \"#utility.yul\":8112:8554   */\n    tag_75:\n        /* \"#utility.yul\":8261:8265   */\n      0x00\n        /* \"#utility.yul\":8299:8301   */\n      0x60\n        /* \"#utility.yul\":8288:8297   */\n      dup3\n        /* \"#utility.yul\":8284:8302   */\n      add\n        /* \"#utility.yul\":8276:8302   */\n      swap1\n      pop\n        /* \"#utility.yul\":8312:8383   */\n      tag_352\n        /* \"#utility.yul\":8380:8381   */\n      0x00\n        /* \"#utility.yul\":8369:8378   */\n      dup4\n        /* \"#utility.yul\":8365:8382   */\n      add\n        /* \"#utility.yul\":8356:8362   */\n      dup7\n        /* \"#utility.yul\":8312:8383   */\n      tag_281\n      jump\t// in\n    tag_352:\n        /* \"#utility.yul\":8393:8465   */\n      tag_353\n        /* \"#utility.yul\":8461:8463   */\n      0x20\n        /* \"#utility.yul\":8450:8459   */\n      dup4\n        /* \"#utility.yul\":8446:8464   */\n      add\n        /* \"#utility.yul\":8437:8443   */\n      dup6\n        /* \"#utility.yul\":8393:8465   */\n      tag_340\n      jump\t// in\n    tag_353:\n        /* \"#utility.yul\":8475:8547   */\n      tag_354\n        /* \"#utility.yul\":8543:8545   */\n      0x40\n        /* \"#utility.yul\":8532:8541   */\n      dup4\n        /* \"#utility.yul\":8528:8546   */\n      add\n        /* \"#utility.yul\":8519:8525   */\n      dup5\n        /* \"#utility.yul\":8475:8547   */\n      tag_340\n      jump\t// in\n    tag_354:\n        /* \"#utility.yul\":8112:8554   */\n      swap5\n      swap4\n      pop\n      pop\n      pop\n      pop\n      jump\t// out\n        /* \"#utility.yul\":8560:9013   */\n    tag_21:\n        /* \"#utility.yul\":8743:8747   */\n      0x00\n        /* \"#utility.yul\":8781:8783   */\n      0x20\n        /* \"#utility.yul\":8770:8779   */\n      dup3\n        /* \"#utility.yul\":8766:8784   */\n      add\n        /* \"#utility.yul\":8758:8784   */\n      swap1\n      pop\n        /* \"#utility.yul\":8830:8839   */\n      dup2\n        /* \"#utility.yul\":8824:8828   */\n      dup2\n        /* \"#utility.yul\":8820:8840   */\n      sub\n        /* \"#utility.yul\":8816:8817   */\n      0x00\n        /* \"#utility.yul\":8805:8814   */\n      dup4\n        /* \"#utility.yul\":8801:8818   */\n      add\n        /* \"#utility.yul\":8794:8841   */\n      mstore\n        /* \"#utility.yul\":8858:9006   */\n      tag_356\n        /* \"#utility.yul\":9001:9005   */\n      dup2\n        /* \"#utility.yul\":8992:8998   */\n      dup5\n        /* \"#utility.yul\":8858:9006   */\n      tag_284\n      jump\t// in\n    tag_356:\n        /* \"#utility.yul\":8850:9006   */\n      swap1\n      pop\n        /* \"#utility.yul\":8560:9013   */\n      swap3\n      swap2\n      pop\n      pop\n      jump\t// out\n        /* \"#utility.yul\":9019:9438   */\n    tag_237:\n        /* \"#utility.yul\":9185:9189   */\n      0x00\n        /* \"#utility.yul\":9223:9225   */\n      0x20\n        /* \"#utility.yul\":9212:9221   */\n      dup3\n        /* \"#utility.yul\":9208:9226   */\n      add\n        /* \"#utility.yul\":9200:9226   */\n      swap1\n      pop\n        /* \"#utility.yul\":9272:9281   */\n      dup2\n        /* \"#utility.yul\":9266:9270   */\n      dup2\n        /* \"#utility.yul\":9262:9282   */\n      sub\n        /* \"#utility.yul\":9258:9259   */\n      0x00\n        /* \"#utility.yul\":9247:9256   */\n      dup4\n        /* \"#utility.yul\":9243:9260   */\n      add\n        /* \"#utility.yul\":9236:9283   */\n      mstore\n        /* \"#utility.yul\":9300:9431   */\n      tag_358\n        /* \"#utility.yul\":9426:9430   */\n      dup2\n        /* \"#utility.yul\":9300:9431   */\n      tag_302\n      jump\t// in\n    tag_358:\n        /* \"#utility.yul\":9292:9431   */\n      swap1\n      pop\n        /* \"#utility.yul\":9019:9438   */\n      swap2\n      swap1\n      pop\n      jump\t// out\n        /* \"#utility.yul\":9444:9863   */\n    tag_116:\n        /* \"#utility.yul\":9610:9614   */\n      0x00\n        /* \"#utility.yul\":9648:9650   */\n      0x20\n        /* \"#utility.yul\":9637:9646   */\n      dup3\n        /* \"#utility.yul\":9633:9651   */\n      add\n        /* \"#utility.yul\":9625:9651   */\n      swap1\n      pop\n        /* \"#utility.yul\":9697:9706   */\n      dup2\n        /* \"#utility.yul\":9691:9695   */\n      dup2\n        /* \"#utility.yul\":9687:9707   */\n      sub\n        /* \"#utility.yul\":9683:9684   */\n      0x00\n        /* \"#utility.yul\":9672:9681   */\n      dup4\n        /* \"#utility.yul\":9668:9685   */\n      add\n        /* \"#utility.yul\":9661:9708   */\n      mstore\n        /* \"#utility.yul\":9725:9856   */\n      tag_360\n        /* \"#utility.yul\":9851:9855   */\n      dup2\n        /* \"#utility.yul\":9725:9856   */\n      tag_308\n      jump\t// in\n    tag_360:\n        /* \"#utility.yul\":9717:9856   */\n      swap1\n      pop\n        /* \"#utility.yul\":9444:9863   */\n      swap2\n      swap1\n      pop\n      jump\t// out\n        /* \"#utility.yul\":9869:10288   */\n    tag_66:\n        /* \"#utility.yul\":10035:10039   */\n      0x00\n        /* \"#utility.yul\":10073:10075   */\n      0x20\n        /* \"#utility.yul\":10062:10071   */\n      dup3\n        /* \"#utility.yul\":10058:10076   */\n      add\n        /* \"#utility.yul\":10050:10076   */\n      swap1\n      pop\n        /* \"#utility.yul\":10122:10131   */\n      dup2\n        /* \"#utility.yul\":10116:10120   */\n      dup2\n        /* \"#utility.yul\":10112:10132   */\n      sub\n        /* \"#utility.yul\":10108:10109   */\n      0x00\n        /* \"#utility.yul\":10097:10106   */\n      dup4\n        /* \"#utility.yul\":10093:10110   */\n      add\n        /* \"#utility.yul\":10086:10133   */\n      mstore\n        /* \"#utility.yul\":10150:10281   */\n      tag_362\n        /* \"#utility.yul\":10276:10280   */\n      dup2\n        /* \"#utility.yul\":10150:10281   */\n      tag_313\n      jump\t// in\n    tag_362:\n        /* \"#utility.yul\":10142:10281   */\n      swap1\n      pop\n        /* \"#utility.yul\":9869:10288   */\n      swap2\n      swap1\n      pop\n      jump\t// out\n        /* \"#utility.yul\":10294:10713   */\n    tag_59:\n        /* \"#utility.yul\":10460:10464   */\n      0x00\n        /* \"#utility.yul\":10498:10500   */\n      0x20\n        /* \"#utility.yul\":10487:10496   */\n      dup3\n        /* \"#utility.yul\":10483:10501   */\n      add\n        /* \"#utility.yul\":10475:10501   */\n      swap1\n      pop\n        /* \"#utility.yul\":10547:10556   */\n      dup2\n        /* \"#utility.yul\":10541:10545   */\n      dup2\n        /* \"#utility.yul\":10537:10557   */\n      sub\n        /* \"#utility.yul\":10533:10534   */\n      0x00\n        /* \"#utility.yul\":10522:10531   */\n      dup4\n        /* \"#utility.yul\":10518:10535   */\n      add\n        /* \"#utility.yul\":10511:10558   */\n      mstore\n        /* \"#utility.yul\":10575:10706   */\n      tag_364\n        /* \"#utility.yul\":10701:10705   */\n      dup2\n        /* \"#utility.yul\":10575:10706   */\n      tag_318\n      jump\t// in\n    tag_364:\n        /* \"#utility.yul\":10567:10706   */\n      swap1\n      pop\n        /* \"#utility.yul\":10294:10713   */\n      swap2\n      swap1\n      pop\n      jump\t// out\n        /* \"#utility.yul\":10719:11138   */\n    tag_63:\n        /* \"#utility.yul\":10885:10889   */\n      0x00\n        /* \"#utility.yul\":10923:10925   */\n      0x20\n        /* \"#utility.yul\":10912:10921   */\n      dup3\n        /* \"#utility.yul\":10908:10926   */\n      add\n        /* \"#utility.yul\":10900:10926   */\n      swap1\n      pop\n        /* \"#utility.yul\":10972:10981   */\n      dup2\n        /* \"#utility.yul\":10966:10970   */\n      dup2\n        /* \"#utility.yul\":10962:10982   */\n      sub\n        /* \"#utility.yul\":10958:10959   */\n      0x00\n        /* \"#utility.yul\":10947:10956   */\n      dup4\n        /* \"#utility.yul\":10943:10960   */\n      add\n        /* \"#utility.yul\":10936:10983   */\n      mstore\n        /* \"#utility.yul\":11000:11131   */\n      tag_366\n        /* \"#utility.yul\":11126:11130   */\n      dup2\n        /* \"#utility.yul\":11000:11131   */\n      tag_323\n      jump\t// in\n    tag_366:\n        /* \"#utility.yul\":10992:11131   */\n      swap1\n      pop\n        /* \"#utility.yul\":10719:11138   */\n      swap2\n      swap1\n      pop\n      jump\t// out\n        /* \"#utility.yul\":11144:11366   */\n    tag_26:\n        /* \"#utility.yul\":11237:11241   */\n      0x00\n        /* \"#utility.yul\":11275:11277   */\n      0x20\n        /* \"#utility.yul\":11264:11273   */\n      dup3\n        /* \"#utility.yul\":11260:11278   */\n      add\n        /* \"#utility.yul\":11252:11278   */\n      swap1\n      pop\n        /* \"#utility.yul\":11288:11359   */\n      tag_368\n        /* \"#utility.yul\":11356:11357   */\n      0x00\n        /* \"#utility.yul\":11345:11354   */\n      dup4\n        /* \"#utility.yul\":11341:11358   */\n      add\n        /* \"#utility.yul\":11332:11338   */\n      dup5\n        /* \"#utility.yul\":11288:11359   */\n      tag_340\n      jump\t// in\n    tag_368:\n        /* \"#utility.yul\":11144:11366   */\n      swap3\n      swap2\n      pop\n      pop\n      jump\t// out\n        /* \"#utility.yul\":11453:11605   */\n    tag_291:\n        /* \"#utility.yul\":11540:11544   */\n      0x00\n        /* \"#utility.yul\":11563:11566   */\n      dup2\n        /* \"#utility.yul\":11555:11566   */\n      swap1\n      pop\n        /* \"#utility.yul\":11593:11597   */\n      0x20\n        /* \"#utility.yul\":11588:11591   */\n      dup3\n        /* \"#utility.yul\":11584:11598   */\n      add\n        /* \"#utility.yul\":11576:11598   */\n      swap1\n      pop\n        /* \"#utility.yul\":11453:11605   */\n      swap2\n      swap1\n      pop\n      jump\t// out\n        /* \"#utility.yul\":11611:11745   */\n    tag_287:\n        /* \"#utility.yul\":11698:11704   */\n      0x00\n        /* \"#utility.yul\":11732:11737   */\n      dup2\n        /* \"#utility.yul\":11726:11738   */\n      mload\n        /* \"#utility.yul\":11716:11738   */\n      swap1\n      pop\n        /* \"#utility.yul\":11611:11745   */\n      swap2\n      swap1\n      pop\n      jump\t// out\n        /* \"#utility.yul\":11751:11884   */\n    tag_297:\n        /* \"#utility.yul\":11841:11845   */\n      0x00\n        /* \"#utility.yul\":11873:11877   */\n      0x20\n        /* \"#utility.yul\":11868:11871   */\n      dup3\n        /* \"#utility.yul\":11864:11878   */\n      add\n        /* \"#utility.yul\":11856:11878   */\n      swap1\n      pop\n        /* \"#utility.yul\":11751:11884   */\n      swap2\n      swap1\n      pop\n      jump\t// out\n        /* \"#utility.yul\":11890:12094   */\n    tag_289:\n        /* \"#utility.yul\":12009:12020   */\n      0x00\n        /* \"#utility.yul\":12043:12049   */\n      dup3\n        /* \"#utility.yul\":12038:12041   */\n      dup3\n        /* \"#utility.yul\":12031:12050   */\n      mstore\n        /* \"#utility.yul\":12083:12087   */\n      0x20\n        /* \"#utility.yul\":12078:12081   */\n      dup3\n        /* \"#utility.yul\":12074:12088   */\n      add\n        /* \"#utility.yul\":12059:12088   */\n      swap1\n      pop\n        /* \"#utility.yul\":11890:12094   */\n      swap3\n      swap2\n      pop\n      pop\n      jump\t// out\n        /* \"#utility.yul\":12100:12269   */\n    tag_305:\n        /* \"#utility.yul\":12184:12195   */\n      0x00\n        /* \"#utility.yul\":12218:12224   */\n      dup3\n        /* \"#utility.yul\":12213:12216   */\n      dup3\n        /* \"#utility.yul\":12206:12225   */\n      mstore\n        /* \"#utility.yul\":12258:12262   */\n      0x20\n        /* \"#utility.yul\":12253:12256   */\n      dup3\n        /* \"#utility.yul\":12249:12263   */\n      add\n        /* \"#utility.yul\":12234:12263   */\n      swap1\n      pop\n        /* \"#utility.yul\":12100:12269   */\n      swap3\n      swap2\n      pop\n      pop\n      jump\t// out\n        /* \"#utility.yul\":12275:12580   */\n    tag_83:\n        /* \"#utility.yul\":12315:12318   */\n      0x00\n        /* \"#utility.yul\":12334:12354   */\n      tag_377\n        /* \"#utility.yul\":12352:12353   */\n      dup3\n        /* \"#utility.yul\":12334:12354   */\n      tag_339\n      jump\t// in\n    tag_377:\n        /* \"#utility.yul\":12329:12354   */\n      swap2\n      pop\n        /* \"#utility.yul\":12368:12388   */\n      tag_378\n        /* \"#utility.yul\":12386:12387   */\n      dup4\n        /* \"#utility.yul\":12368:12388   */\n      tag_339\n      jump\t// in\n    tag_378:\n        /* \"#utility.yul\":12363:12388   */\n      swap3\n      pop\n        /* \"#utility.yul\":12522:12523   */\n      dup3\n        /* \"#utility.yul\":12454:12520   */\n      0xffffffffffffffffffffffffffffffffffffffffffffffffffffffffffffffff\n        /* \"#utility.yul\":12450:12524   */\n      sub\n        /* \"#utility.yul\":12447:12448   */\n      dup3\n        /* \"#utility.yul\":12444:12525   */\n      gt\n        /* \"#utility.yul\":12441:12548   */\n      iszero\n      tag_379\n      jumpi\n        /* \"#utility.yul\":12528:12546   */\n      tag_380\n      tag_381\n      jump\t// in\n    tag_380:\n        /* \"#utility.yul\":12441:12548   */\n    tag_379:\n        /* \"#utility.yul\":12572:12573   */\n      dup3\n        /* \"#utility.yul\":12569:12570   */\n      dup3\n        /* \"#utility.yul\":12565:12574   */\n      add\n        /* \"#utility.yul\":12558:12574   */\n      swap1\n      pop\n        /* \"#utility.yul\":12275:12580   */\n      swap3\n      swap2\n      pop\n      pop\n      jump\t// out\n        /* \"#utility.yul\":12586:12777   */\n    tag_155:\n        /* \"#utility.yul\":12626:12630   */\n      0x00\n        /* \"#utility.yul\":12646:12666   */\n      tag_383\n        /* \"#utility.yul\":12664:12665   */\n      dup3\n        /* \"#utility.yul\":12646:12666   */\n      tag_339\n      jump\t// in\n    tag_383:\n        /* \"#utility.yul\":12641:12666   */\n      swap2\n      pop\n        /* \"#utility.yul\":12680:12700   */\n      tag_384\n        /* \"#utility.yul\":12698:12699   */\n      dup4\n        /* \"#utility.yul\":12680:12700   */\n      tag_339\n      jump\t// in\n    tag_384:\n        /* \"#utility.yul\":12675:12700   */\n      swap3\n      pop\n        /* \"#utility.yul\":12719:12720   */\n      dup3\n        /* \"#utility.yul\":12716:12717   */\n      dup3\n        /* \"#utility.yul\":12713:12721   */\n      lt\n        /* \"#utility.yul\":12710:12744   */\n      iszero\n      tag_385\n      jumpi\n        /* \"#utility.yul\":12724:12742   */\n      tag_386\n      tag_381\n      jump\t// in\n    tag_386:\n        /* \"#utility.yul\":12710:12744   */\n    tag_385:\n        /* \"#utility.yul\":12769:12770   */\n      dup3\n        /* \"#utility.yul\":12766:12767   */\n      dup3\n        /* \"#utility.yul\":12762:12771   */\n      sub\n        /* \"#utility.yul\":12754:12771   */\n      swap1\n      pop\n        /* \"#utility.yul\":12586:12777   */\n      swap3\n      swap2\n      pop\n      pop\n      jump\t// out\n        /* \"#utility.yul\":12783:12879   */\n    tag_280:\n        /* \"#utility.yul\":12820:12827   */\n      0x00\n        /* \"#utility.yul\":12849:12873   */\n      tag_388\n        /* \"#utility.yul\":12867:12872   */\n      dup3\n        /* \"#utility.yul\":12849:12873   */\n      tag_389\n      jump\t// in\n    tag_388:\n        /* \"#utility.yul\":12838:12873   */\n      swap1\n      pop\n        /* \"#utility.yul\":12783:12879   */\n      swap2\n      swap1\n      pop\n      jump\t// out\n        /* \"#utility.yul\":12885:12989   */\n    tag_276:\n        /* \"#utility.yul\":12930:12937   */\n      0x00\n        /* \"#utility.yul\":12959:12983   */\n      tag_391\n        /* \"#utility.yul\":12977:12982   */\n      dup3\n        /* \"#utility.yul\":12959:12983   */\n      tag_389\n      jump\t// in\n    tag_391:\n        /* \"#utility.yul\":12948:12983   */\n      swap1\n      pop\n        /* \"#utility.yul\":12885:12989   */\n      swap2\n      swap1\n      pop\n      jump\t// out\n        /* \"#utility.yul\":12995:13085   */\n    tag_301:\n        /* \"#utility.yul\":13029:13036   */\n      0x00\n        /* \"#utility.yul\":13072:13077   */\n      dup2\n        /* \"#utility.yul\":13065:13078   */\n      iszero\n        /* \"#utility.yul\":13058:13079   */\n      iszero\n        /* \"#utility.yul\":13047:13079   */\n      swap1\n      pop\n        /* \"#utility.yul\":12995:13085   */\n      swap2\n      swap1\n      pop\n      jump\t// out\n        /* \"#utility.yul\":13091:13217   */\n    tag_389:\n        /* \"#utility.yul\":13128:13135   */\n      0x00\n        /* \"#utility.yul\":13168:13210   */\n      0xffffffffffffffffffffffffffffffffffffffff\n        /* \"#utility.yul\":13161:13166   */\n      dup3\n        /* \"#utility.yul\":13157:13211   */\n      and\n        /* \"#utility.yul\":13146:13211   */\n      swap1\n      pop\n        /* \"#utility.yul\":13091:13217   */\n      swap2\n      swap1\n      pop\n      jump\t// out\n        /* \"#utility.yul\":13223:13300   */\n    tag_339:\n        /* \"#utility.yul\":13260:13267   */\n      0x00\n        /* \"#utility.yul\":13289:13294   */\n      dup2\n        /* \"#utility.yul\":13278:13294   */\n      swap1\n      pop\n        /* \"#utility.yul\":13223:13300   */\n      swap2\n      swap1\n      pop\n      jump\t// out\n        /* \"#utility.yul\":13306:13440   */\n    tag_272:\n        /* \"#utility.yul\":13364:13373   */\n      0x00\n        /* \"#utility.yul\":13397:13434   */\n      tag_396\n        /* \"#utility.yul\":13428:13433   */\n      dup3\n        /* \"#utility.yul\":13397:13434   */\n      tag_397\n      jump\t// in\n    tag_396:\n        /* \"#utility.yul\":13384:13434   */\n      swap1\n      pop\n        /* \"#utility.yul\":13306:13440   */\n      swap2\n      swap1\n      pop\n      jump\t// out\n        /* \"#utility.yul\":13446:13572   */\n    tag_397:\n        /* \"#utility.yul\":13496:13505   */\n      0x00\n        /* \"#utility.yul\":13529:13566   */\n      tag_399\n        /* \"#utility.yul\":13560:13565   */\n      dup3\n        /* \"#utility.yul\":13529:13566   */\n      tag_400\n      jump\t// in\n    tag_399:\n        /* \"#utility.yul\":13516:13566   */\n      swap1\n      pop\n        /* \"#utility.yul\":13446:13572   */\n      swap2\n      swap1\n      pop\n      jump\t// out\n        /* \"#utility.yul\":13578:13691   */\n    tag_400:\n        /* \"#utility.yul\":13628:13637   */\n      0x00\n        /* \"#utility.yul\":13661:13685   */\n      tag_402\n        /* \"#utility.yul\":13679:13684   */\n      dup3\n        /* \"#utility.yul\":13661:13685   */\n      tag_389\n      jump\t// in\n    tag_402:\n        /* \"#utility.yul\":13648:13685   */\n      swap1\n      pop\n        /* \"#utility.yul\":13578:13691   */\n      swap2\n      swap1\n      pop\n      jump\t// out\n        /* \"#utility.yul\":13697:13930   */\n    tag_88:\n        /* \"#utility.yul\":13736:13739   */\n      0x00\n        /* \"#utility.yul\":13759:13783   */\n      tag_404\n        /* \"#utility.yul\":13777:13782   */\n      dup3\n        /* \"#utility.yul\":13759:13783   */\n      tag_339\n      jump\t// in\n    tag_404:\n        /* \"#utility.yul\":13750:13783   */\n      swap2\n      pop\n        /* \"#utility.yul\":13805:13871   */\n      0xffffffffffffffffffffffffffffffffffffffffffffffffffffffffffffffff\n        /* \"#utility.yul\":13798:13803   */\n      dup3\n        /* \"#utility.yul\":13795:13872   */\n      eq\n        /* \"#utility.yul\":13792:13895   */\n      iszero\n      tag_405\n      jumpi\n        /* \"#utility.yul\":13875:13893   */\n      tag_406\n      tag_381\n      jump\t// in\n    tag_406:\n        /* \"#utility.yul\":13792:13895   */\n    tag_405:\n        /* \"#utility.yul\":13922:13923   */\n      0x01\n        /* \"#utility.yul\":13915:13920   */\n      dup3\n        /* \"#utility.yul\":13911:13924   */\n      add\n        /* \"#utility.yul\":13904:13924   */\n      swap1\n      pop\n        /* \"#utility.yul\":13697:13930   */\n      swap2\n      swap1\n      pop\n      jump\t// out\n        /* \"#utility.yul\":13936:14116   */\n    tag_381:\n        /* \"#utility.yul\":13984:14061   */\n      0x4e487b7100000000000000000000000000000000000000000000000000000000\n        /* \"#utility.yul\":13981:13982   */\n      0x00\n        /* \"#utility.yul\":13974:14062   */\n      mstore\n        /* \"#utility.yul\":14081:14085   */\n      0x11\n        /* \"#utility.yul\":14078:14079   */\n      0x04\n        /* \"#utility.yul\":14071:14086   */\n      mstore\n        /* \"#utility.yul\":14105:14109   */\n      0x24\n        /* \"#utility.yul\":14102:14103   */\n      0x00\n        /* \"#utility.yul\":14095:14110   */\n      revert\n        /* \"#utility.yul\":14122:14302   */\n    tag_107:\n        /* \"#utility.yul\":14170:14247   */\n      0x4e487b7100000000000000000000000000000000000000000000000000000000\n        /* \"#utility.yul\":14167:14168   */\n      0x00\n        /* \"#utility.yul\":14160:14248   */\n      mstore\n        /* \"#utility.yul\":14267:14271   */\n      0x32\n        /* \"#utility.yul\":14264:14265   */\n      0x04\n        /* \"#utility.yul\":14257:14272   */\n      mstore\n        /* \"#utility.yul\":14291:14295   */\n      0x24\n        /* \"#utility.yul\":14288:14289   */\n      0x00\n        /* \"#utility.yul\":14281:14296   */\n      revert\n        /* \"#utility.yul\":14308:14488   */\n    tag_92:\n        /* \"#utility.yul\":14356:14433   */\n      0x4e487b7100000000000000000000000000000000000000000000000000000000\n        /* \"#utility.yul\":14353:14354   */\n      0x00\n        /* \"#utility.yul\":14346:14434   */\n      mstore\n        /* \"#utility.yul\":14453:14457   */\n      0x41\n        /* \"#utility.yul\":14450:14451   */\n      0x04\n        /* \"#utility.yul\":14443:14458   */\n      mstore\n        /* \"#utility.yul\":14477:14481   */\n      0x24\n        /* \"#utility.yul\":14474:14475   */\n      0x00\n        /* \"#utility.yul\":14467:14482   */\n      revert\n        /* \"#utility.yul\":14617:14734   */\n    tag_252:\n        /* \"#utility.yul\":14726:14727   */\n      0x00\n        /* \"#utility.yul\":14723:14724   */\n      dup1\n        /* \"#utility.yul\":14716:14728   */\n      revert\n        /* \"#utility.yul\":14740:14917   */\n    tag_307:\n        /* \"#utility.yul\":14880:14909   */\n      0x436f756e7465723a2064656372656d656e74206f766572666c6f770000000000\n        /* \"#utility.yul\":14876:14877   */\n      0x00\n        /* \"#utility.yul\":14868:14874   */\n      dup3\n        /* \"#utility.yul\":14864:14878   */\n      add\n        /* \"#utility.yul\":14857:14910   */\n      mstore\n        /* \"#utility.yul\":14740:14917   */\n      pop\n      jump\t// out\n        /* \"#utility.yul\":14923:15148   */\n    tag_312:\n        /* \"#utility.yul\":15063:15097   */\n      0x4e6f7420656e6f75676820657468657220746f20636f7665722061736b696e67\n        /* \"#utility.yul\":15059:15060   */\n      0x00\n        /* \"#utility.yul\":15051:15057   */\n      dup3\n        /* \"#utility.yul\":15047:15061   */\n      add\n        /* \"#utility.yul\":15040:15098   */\n      mstore\n        /* \"#utility.yul\":15132:15140   */\n      0x2070726963650000000000000000000000000000000000000000000000000000\n        /* \"#utility.yul\":15127:15129   */\n      0x20\n        /* \"#utility.yul\":15119:15125   */\n      dup3\n        /* \"#utility.yul\":15115:15130   */\n      add\n        /* \"#utility.yul\":15108:15141   */\n      mstore\n        /* \"#utility.yul\":14923:15148   */\n      pop\n      jump\t// out\n        /* \"#utility.yul\":15154:15336   */\n    tag_317:\n        /* \"#utility.yul\":15294:15328   */\n      0x4e6f7420656e6f75676820657468657220666f72206c697374696e6720666565\n        /* \"#utility.yul\":15290:15291   */\n      0x00\n        /* \"#utility.yul\":15282:15288   */\n      dup3\n        /* \"#utility.yul\":15278:15292   */\n      add\n        /* \"#utility.yul\":15271:15329   */\n      mstore\n        /* \"#utility.yul\":15154:15336   */\n      pop\n      jump\t// out\n        /* \"#utility.yul\":15342:15523   */\n    tag_322:\n        /* \"#utility.yul\":15482:15515   */\n      0x5265656e7472616e637947756172643a207265656e7472616e742063616c6c00\n        /* \"#utility.yul\":15478:15479   */\n      0x00\n        /* \"#utility.yul\":15470:15476   */\n      dup3\n        /* \"#utility.yul\":15466:15480   */\n      add\n        /* \"#utility.yul\":15459:15516   */\n      mstore\n        /* \"#utility.yul\":15342:15523   */\n      pop\n      jump\t// out\n        /* \"#utility.yul\":15529:15707   */\n    tag_327:\n        /* \"#utility.yul\":15669:15699   */\n      0x5072696365206d757374206265206174206c6561737420312077656900000000\n        /* \"#utility.yul\":15665:15666   */\n      0x00\n        /* \"#utility.yul\":15657:15663   */\n      dup3\n        /* \"#utility.yul\":15653:15667   */\n      add\n        /* \"#utility.yul\":15646:15700   */\n      mstore\n        /* \"#utility.yul\":15529:15707   */\n      pop\n      jump\t// out\n        /* \"#utility.yul\":15713:15835   */\n    tag_244:\n        /* \"#utility.yul\":15786:15810   */\n      tag_419\n        /* \"#utility.yul\":15804:15809   */\n      dup2\n        /* \"#utility.yul\":15786:15810   */\n      tag_280\n      jump\t// in\n    tag_419:\n        /* \"#utility.yul\":15779:15784   */\n      dup2\n        /* \"#utility.yul\":15776:15811   */\n      eq\n        /* \"#utility.yul\":15766:15829   */\n      tag_420\n      jumpi\n        /* \"#utility.yul\":15825:15826   */\n      0x00\n        /* \"#utility.yul\":15822:15823   */\n      dup1\n        /* \"#utility.yul\":15815:15827   */\n      revert\n        /* \"#utility.yul\":15766:15829   */\n    tag_420:\n        /* \"#utility.yul\":15713:15835   */\n      pop\n      jump\t// out\n        /* \"#utility.yul\":15841:15963   */\n    tag_248:\n        /* \"#utility.yul\":15914:15938   */\n      tag_422\n        /* \"#utility.yul\":15932:15937   */\n      dup2\n        /* \"#utility.yul\":15914:15938   */\n      tag_339\n      jump\t// in\n    tag_422:\n        /* \"#utility.yul\":15907:15912   */\n      dup2\n        /* \"#utility.yul\":15904:15939   */\n      eq\n        /* \"#utility.yul\":15894:15957   */\n      tag_423\n      jumpi\n        /* \"#utility.yul\":15953:15954   */\n      0x00\n        /* \"#utility.yul\":15950:15951   */\n      dup1\n        /* \"#utility.yul\":15943:15955   */\n      revert\n        /* \"#utility.yul\":15894:15957   */\n    tag_423:\n        /* \"#utility.yul\":15841:15963   */\n      pop\n      jump\t// out\n\n    auxdata: 0xa26469706673582212207dd0d130935b73cac46c065410da1b63552325b2ed70c6ba5483902ab8ef695564736f6c63430008070033\n}\n",
				"bytecode": {
					"linkReferences": {},
					"object": "608060405266071afd498d000060035534801561001b57600080fd5b50600160008190555033600460006101000a81548173ffffffffffffffffffffffffffffffffffffffff021916908373ffffffffffffffffffffffffffffffffffffffff160217905550612607806100746000396000f3fe6080604052600436106100915760003560e01c80638d6cb3fb116100595780638d6cb3fb1461014f578063a46b5c5a1461017a578063ad05f1b4146101a5578063b8fe6abe146101c1578063ccef4339146101ec57610091565b806304935694146100965780631f4cc4db146100b25780632b86ae38146100dd5780634ddf4f8f146101085780638492095a14610124575b600080fd5b6100b060048036038101906100ab9190611e80565b610229565b005b3480156100be57600080fd5b506100c76104b1565b6040516100d49190612194565b60405180910390f35b3480156100e957600080fd5b506100f26108b2565b6040516100ff9190612256565b60405180910390f35b610122600480360381019061011d9190611e40565b6108b8565b005b34801561013057600080fd5b50610139610b48565b6040516101469190612194565b60405180910390f35b34801561015b57600080fd5b50610164610ed9565b6040516101719190612194565b60405180910390f35b34801561018657600080fd5b5061018f61119b565b60405161019c9190612194565b60405180910390f35b6101bf60048036038101906101ba9190611e80565b61152c565b005b3480156101cd57600080fd5b506101d661194d565b6040516101e39190612256565b60405180910390f35b3480156101f857600080fd5b50610213600480360381019061020e9190611e13565b611957565b6040516102209190612194565b60405180910390f35b6002600054141561026f576040517f08c379a000000000000000000000000000000000000000000000000000000000815260040161026690612216565b60405180910390fd5b6002600081905550600081116102ba576040517f08c379a00000000000000000000000000000000000000000000000000000000081526004016102b190612236565b60405180910390fd5b60035434146102fe576040517f08c379a00000000000000000000000000000000000000000000000000000000081526004016102f5906121f6565b60405180910390fd5b8273ffffffffffffffffffffffffffffffffffffffff166323b872dd3330856040518463ffffffff1660e01b815260040161033b93929190612126565b600060405180830381600087803b15801561035557600080fd5b505af1158015610369573d6000803e3d6000fd5b505050506000600560008481526020019081526020016000209050338160030160006101000a81548173ffffffffffffffffffffffffffffffffffffffff021916908373ffffffffffffffffffffffffffffffffffffffff160217905550308160040160006101000a81548173ffffffffffffffffffffffffffffffffffffffff021916908373ffffffffffffffffffffffffffffffffffffffff16021790555060018160050160146101000a81548160ff02191690831515021790555081816002018190555061043a6001611cd2565b3073ffffffffffffffffffffffffffffffffffffffff163373ffffffffffffffffffffffffffffffffffffffff167fa0c6c0d02d86fdacecbaa5fdf5894bab204e31a778250474108540733a9b8d1986868660405161049b9392919061215d565b60405180910390a3506001600081905550505050565b606060006104bf6002611d2e565b9050600080600190505b8281116105a0573373ffffffffffffffffffffffffffffffffffffffff16600560006001846104f891906122bb565b815260200190815260200160002060030160009054906101000a900473ffffffffffffffffffffffffffffffffffffffff1673ffffffffffffffffffffffffffffffffffffffff1614801561057957506005600060018361055991906122bb565b815260200190815260200160002060050160149054906101000a900460ff165b1561058d578180610589906123d5565b9250505b8080610598906123d5565b9150506104c9565b5060008167ffffffffffffffff8111156105bd576105bc61247c565b5b6040519080825280602002602001820160405280156105f657816020015b6105e3611d52565b8152602001906001900390816105db5790505b509050600080600190505b8481116108a7573373ffffffffffffffffffffffffffffffffffffffff166005600060018461063091906122bb565b815260200190815260200160002060030160009054906101000a900473ffffffffffffffffffffffffffffffffffffffff1673ffffffffffffffffffffffffffffffffffffffff161480156106b157506005600060018361069191906122bb565b815260200190815260200160002060050160149054906101000a900460ff165b1561089457600560006001836106c791906122bb565b81526020019081526020016000206040518060e00160405290816000820160009054906101000a900473ffffffffffffffffffffffffffffffffffffffff1673ffffffffffffffffffffffffffffffffffffffff1673ffffffffffffffffffffffffffffffffffffffff16815260200160018201548152602001600282015481526020016003820160009054906101000a900473ffffffffffffffffffffffffffffffffffffffff1673ffffffffffffffffffffffffffffffffffffffff1673ffffffffffffffffffffffffffffffffffffffff1681526020016004820160009054906101000a900473ffffffffffffffffffffffffffffffffffffffff1673ffffffffffffffffffffffffffffffffffffffff1673ffffffffffffffffffffffffffffffffffffffff1681526020016005820160009054906101000a900473ffffffffffffffffffffffffffffffffffffffff1673ffffffffffffffffffffffffffffffffffffffff1673ffffffffffffffffffffffffffffffffffffffff1681526020016005820160149054906101000a900460ff16151515158152505083838151811061087a5761087961244d565b5b60200260200101819052508180610890906123d5565b9250505b808061089f906123d5565b915050610601565b508194505050505090565b60035481565b600260005414156108fe576040517f08c379a00000000000000000000000000000000000000000000000000000000081526004016108f590612216565b60405180910390fd5b600260008190555060006005600083815260200190815260200160002090508060020154341015610964576040517f08c379a000000000000000000000000000000000000000000000000000000000815260040161095b906121d6565b60405180910390fd5b60003390508160030160009054906101000a900473ffffffffffffffffffffffffffffffffffffffff1673ffffffffffffffffffffffffffffffffffffffff166108fc349081150290604051600060405180830381858888f193505050501580156109d3573d6000803e3d6000fd5b508373ffffffffffffffffffffffffffffffffffffffff166323b872dd3083866040518463ffffffff1660e01b8152600401610a11939291906120ef565b600060405180830381600087803b158015610a2b57600080fd5b505af1158015610a3f573d6000803e3d6000fd5b50505050808260040160006101000a81548173ffffffffffffffffffffffffffffffffffffffff021916908373ffffffffffffffffffffffffffffffffffffffff16021790555060008260050160146101000a81548160ff021916908315150217905550610aad6001611d3c565b8073ffffffffffffffffffffffffffffffffffffffff168260030160009054906101000a900473ffffffffffffffffffffffffffffffffffffffff1673ffffffffffffffffffffffffffffffffffffffff167f16f1dbd97e6bf646d429ed186cce832f1f7fd9907814293b83181e9970ab7bd2868634604051610b329392919061215d565b60405180910390a3505060016000819055505050565b60606000610b566002611d2e565b9050600080600190505b828111610bff573373ffffffffffffffffffffffffffffffffffffffff1660056000600184610b8f91906122bb565b815260200190815260200160002060050160009054906101000a900473ffffffffffffffffffffffffffffffffffffffff1673ffffffffffffffffffffffffffffffffffffffff161415610bec578180610be8906123d5565b9250505b8080610bf7906123d5565b915050610b60565b5060008167ffffffffffffffff811115610c1c57610c1b61247c565b5b604051908082528060200260200182016040528015610c5557816020015b610c42611d52565b815260200190600190039081610c3a5790505b509050600080600190505b848111610ece573373ffffffffffffffffffffffffffffffffffffffff1660056000600184610c8f91906122bb565b815260200190815260200160002060050160009054906101000a900473ffffffffffffffffffffffffffffffffffffffff1673ffffffffffffffffffffffffffffffffffffffff161415610ebb5760056000600183610cee91906122bb565b81526020019081526020016000206040518060e00160405290816000820160009054906101000a900473ffffffffffffffffffffffffffffffffffffffff1673ffffffffffffffffffffffffffffffffffffffff1673ffffffffffffffffffffffffffffffffffffffff16815260200160018201548152602001600282015481526020016003820160009054906101000a900473ffffffffffffffffffffffffffffffffffffffff1673ffffffffffffffffffffffffffffffffffffffff1673ffffffffffffffffffffffffffffffffffffffff1681526020016004820160009054906101000a900473ffffffffffffffffffffffffffffffffffffffff1673ffffffffffffffffffffffffffffffffffffffff1673ffffffffffffffffffffffffffffffffffffffff1681526020016005820160009054906101000a900473ffffffffffffffffffffffffffffffffffffffff1673ffffffffffffffffffffffffffffffffffffffff1673ffffffffffffffffffffffffffffffffffffffff1681526020016005820160149054906101000a900460ff161515151581525050838381518110610ea157610ea061244d565b5b60200260200101819052508180610eb7906123d5565b9250505b8080610ec6906123d5565b915050610c60565b508194505050505090565b60606000610ee76002611d2e565b90506000610ef56001611d2e565b82610f009190612311565b905060008167ffffffffffffffff811115610f1e57610f1d61247c565b5b604051908082528060200260200182016040528015610f5757816020015b610f44611d52565b815260200190600190039081610f3c5790505b509050600080600190505b848110156111905760056000600183610f7b91906122bb565b815260200190815260200160002060050160149054906101000a900460ff161561117d5760056000600183610fb091906122bb565b81526020019081526020016000206040518060e00160405290816000820160009054906101000a900473ffffffffffffffffffffffffffffffffffffffff1673ffffffffffffffffffffffffffffffffffffffff1673ffffffffffffffffffffffffffffffffffffffff16815260200160018201548152602001600282015481526020016003820160009054906101000a900473ffffffffffffffffffffffffffffffffffffffff1673ffffffffffffffffffffffffffffffffffffffff1673ffffffffffffffffffffffffffffffffffffffff1681526020016004820160009054906101000a900473ffffffffffffffffffffffffffffffffffffffff1673ffffffffffffffffffffffffffffffffffffffff1673ffffffffffffffffffffffffffffffffffffffff1681526020016005820160009054906101000a900473ffffffffffffffffffffffffffffffffffffffff1673ffffffffffffffffffffffffffffffffffffffff1673ffffffffffffffffffffffffffffffffffffffff1681526020016005820160149054906101000a900460ff1615151515815250508383815181106111635761116261244d565b5b60200260200101819052508180611179906123d5565b9250505b8080611188906123d5565b915050610f62565b508194505050505090565b606060006111a96002611d2e565b9050600080600190505b828111611252573373ffffffffffffffffffffffffffffffffffffffff16600560006001846111e291906122bb565b815260200190815260200160002060040160009054906101000a900473ffffffffffffffffffffffffffffffffffffffff1673ffffffffffffffffffffffffffffffffffffffff16141561123f57818061123b906123d5565b9250505b808061124a906123d5565b9150506111b3565b5060008167ffffffffffffffff81111561126f5761126e61247c565b5b6040519080825280602002602001820160405280156112a857816020015b611295611d52565b81526020019060019003908161128d5790505b509050600080600190505b848111611521573373ffffffffffffffffffffffffffffffffffffffff16600560006001846112e291906122bb565b815260200190815260200160002060040160009054906101000a900473ffffffffffffffffffffffffffffffffffffffff1673ffffffffffffffffffffffffffffffffffffffff16141561150e576005600060018361134191906122bb565b81526020019081526020016000206040518060e00160405290816000820160009054906101000a900473ffffffffffffffffffffffffffffffffffffffff1673ffffffffffffffffffffffffffffffffffffffff1673ffffffffffffffffffffffffffffffffffffffff16815260200160018201548152602001600282015481526020016003820160009054906101000a900473ffffffffffffffffffffffffffffffffffffffff1673ffffffffffffffffffffffffffffffffffffffff1673ffffffffffffffffffffffffffffffffffffffff1681526020016004820160009054906101000a900473ffffffffffffffffffffffffffffffffffffffff1673ffffffffffffffffffffffffffffffffffffffff1673ffffffffffffffffffffffffffffffffffffffff1681526020016005820160009054906101000a900473ffffffffffffffffffffffffffffffffffffffff1673ffffffffffffffffffffffffffffffffffffffff1673ffffffffffffffffffffffffffffffffffffffff1681526020016005820160149054906101000a900460ff1615151515815250508383815181106114f4576114f361244d565b5b6020026020010181905250818061150a906123d5565b9250505b8080611519906123d5565b9150506112b3565b508194505050505090565b60026000541415611572576040517f08c379a000000000000000000000000000000000000000000000000000000000815260040161156990612216565b60405180910390fd5b6002600081905550600081116115bd576040517f08c379a00000000000000000000000000000000000000000000000000000000081526004016115b490612236565b60405180910390fd5b6003543414611601576040517f08c379a00000000000000000000000000000000000000000000000000000000081526004016115f8906121f6565b60405180910390fd5b8273ffffffffffffffffffffffffffffffffffffffff166323b872dd3330856040518463ffffffff1660e01b815260040161163e93929190612126565b600060405180830381600087803b15801561165857600080fd5b505af115801561166c573d6000803e3d6000fd5b5050505061167a6002611d3c565b6040518060e001604052808473ffffffffffffffffffffffffffffffffffffffff1681526020018381526020018281526020013373ffffffffffffffffffffffffffffffffffffffff1681526020013073ffffffffffffffffffffffffffffffffffffffff1681526020013373ffffffffffffffffffffffffffffffffffffffff168152602001600115158152506005600084815260200190815260200160002060008201518160000160006101000a81548173ffffffffffffffffffffffffffffffffffffffff021916908373ffffffffffffffffffffffffffffffffffffffff160217905550602082015181600101556040820151816002015560608201518160030160006101000a81548173ffffffffffffffffffffffffffffffffffffffff021916908373ffffffffffffffffffffffffffffffffffffffff16021790555060808201518160040160006101000a81548173ffffffffffffffffffffffffffffffffffffffff021916908373ffffffffffffffffffffffffffffffffffffffff16021790555060a08201518160050160006101000a81548173ffffffffffffffffffffffffffffffffffffffff021916908373ffffffffffffffffffffffffffffffffffffffff16021790555060c08201518160050160146101000a81548160ff021916908315150217905550905050600460009054906101000a900473ffffffffffffffffffffffffffffffffffffffff1673ffffffffffffffffffffffffffffffffffffffff166108fc349081150290604051600060405180830381858888f193505050501580156118d6573d6000803e3d6000fd5b503073ffffffffffffffffffffffffffffffffffffffff163373ffffffffffffffffffffffffffffffffffffffff167fa0c6c0d02d86fdacecbaa5fdf5894bab204e31a778250474108540733a9b8d198585856040516119389392919061215d565b60405180910390a36001600081905550505050565b6000600354905090565b606060006119656002611d2e565b9050600080600190505b828111611a0e578473ffffffffffffffffffffffffffffffffffffffff166005600060018461199e91906122bb565b815260200190815260200160002060000160009054906101000a900473ffffffffffffffffffffffffffffffffffffffff1673ffffffffffffffffffffffffffffffffffffffff1614156119fb5781806119f7906123d5565b9250505b8080611a06906123d5565b91505061196f565b5060008167ffffffffffffffff811115611a2b57611a2a61247c565b5b604051908082528060200260200182016040528015611a6457816020015b611a51611d52565b815260200190600190039081611a495790505b509050600080600190505b848111611cc5578673ffffffffffffffffffffffffffffffffffffffff166005600083815260200190815260200160002060000160009054906101000a900473ffffffffffffffffffffffffffffffffffffffff1673ffffffffffffffffffffffffffffffffffffffff161415611cb257600560008281526020019081526020016000206040518060e00160405290816000820160009054906101000a900473ffffffffffffffffffffffffffffffffffffffff1673ffffffffffffffffffffffffffffffffffffffff1673ffffffffffffffffffffffffffffffffffffffff16815260200160018201548152602001600282015481526020016003820160009054906101000a900473ffffffffffffffffffffffffffffffffffffffff1673ffffffffffffffffffffffffffffffffffffffff1673ffffffffffffffffffffffffffffffffffffffff1681526020016004820160009054906101000a900473ffffffffffffffffffffffffffffffffffffffff1673ffffffffffffffffffffffffffffffffffffffff1673ffffffffffffffffffffffffffffffffffffffff1681526020016005820160009054906101000a900473ffffffffffffffffffffffffffffffffffffffff1673ffffffffffffffffffffffffffffffffffffffff1673ffffffffffffffffffffffffffffffffffffffff1681526020016005820160149054906101000a900460ff161515151581525050838381518110611c9857611c9761244d565b5b60200260200101819052508180611cae906123d5565b9250505b8080611cbd906123d5565b915050611a6f565b5081945050505050919050565b60008160000154905060008111611d1e576040517f08c379a0000000000000000000000000000000000000000000000000000000008152600401611d15906121b6565b60405180910390fd5b6001810382600001819055505050565b600081600001549050919050565b6001816000016000828254019250508190555050565b6040518060e00160405280600073ffffffffffffffffffffffffffffffffffffffff1681526020016000815260200160008152602001600073ffffffffffffffffffffffffffffffffffffffff168152602001600073ffffffffffffffffffffffffffffffffffffffff168152602001600073ffffffffffffffffffffffffffffffffffffffff1681526020016000151581525090565b600081359050611df8816125a3565b92915050565b600081359050611e0d816125ba565b92915050565b600060208284031215611e2957611e286124ab565b5b6000611e3784828501611de9565b91505092915050565b60008060408385031215611e5757611e566124ab565b5b6000611e6585828601611de9565b9250506020611e7685828601611dfe565b9150509250929050565b600080600060608486031215611e9957611e986124ab565b5b6000611ea786828701611de9565b9350506020611eb886828701611dfe565b9250506040611ec986828701611dfe565b9150509250925092565b6000611edf8383612043565b60e08301905092915050565b611ef48161239f565b82525050565b611f0381612357565b82525050565b611f1281612345565b82525050565b611f2181612345565b82525050565b6000611f3282612281565b611f3c8185612299565b9350611f4783612271565b8060005b83811015611f78578151611f5f8882611ed3565b9750611f6a8361228c565b925050600181019050611f4b565b5085935050505092915050565b611f8e81612369565b82525050565b6000611fa1601b836122aa565b9150611fac826124b0565b602082019050919050565b6000611fc46026836122aa565b9150611fcf826124d9565b604082019050919050565b6000611fe76020836122aa565b9150611ff282612528565b602082019050919050565b600061200a601f836122aa565b915061201582612551565b602082019050919050565b600061202d601c836122aa565b91506120388261257a565b602082019050919050565b60e0820160008201516120596000850182611f09565b50602082015161206c60208501826120d1565b50604082015161207f60408501826120d1565b5060608201516120926060850182611efa565b5060808201516120a56080850182611efa565b5060a08201516120b860a0850182611efa565b5060c08201516120cb60c0850182611f85565b50505050565b6120da81612395565b82525050565b6120e981612395565b82525050565b60006060820190506121046000830186611f18565b6121116020830185611eeb565b61211e60408301846120e0565b949350505050565b600060608201905061213b6000830186611f18565b6121486020830185611f18565b61215560408301846120e0565b949350505050565b60006060820190506121726000830186611f18565b61217f60208301856120e0565b61218c60408301846120e0565b949350505050565b600060208201905081810360008301526121ae8184611f27565b905092915050565b600060208201905081810360008301526121cf81611f94565b9050919050565b600060208201905081810360008301526121ef81611fb7565b9050919050565b6000602082019050818103600083015261220f81611fda565b9050919050565b6000602082019050818103600083015261222f81611ffd565b9050919050565b6000602082019050818103600083015261224f81612020565b9050919050565b600060208201905061226b60008301846120e0565b92915050565b6000819050602082019050919050565b600081519050919050565b6000602082019050919050565b600082825260208201905092915050565b600082825260208201905092915050565b60006122c682612395565b91506122d183612395565b9250827fffffffffffffffffffffffffffffffffffffffffffffffffffffffffffffffff038211156123065761230561241e565b5b828201905092915050565b600061231c82612395565b915061232783612395565b92508282101561233a5761233961241e565b5b828203905092915050565b600061235082612375565b9050919050565b600061236282612375565b9050919050565b60008115159050919050565b600073ffffffffffffffffffffffffffffffffffffffff82169050919050565b6000819050919050565b60006123aa826123b1565b9050919050565b60006123bc826123c3565b9050919050565b60006123ce82612375565b9050919050565b60006123e082612395565b91507fffffffffffffffffffffffffffffffffffffffffffffffffffffffffffffffff8214156124135761241261241e565b5b600182019050919050565b7f4e487b7100000000000000000000000000000000000000000000000000000000600052601160045260246000fd5b7f4e487b7100000000000000000000000000000000000000000000000000000000600052603260045260246000fd5b7f4e487b7100000000000000000000000000000000000000000000000000000000600052604160045260246000fd5b600080fd5b7f436f756e7465723a2064656372656d656e74206f766572666c6f770000000000600082015250565b7f4e6f7420656e6f75676820657468657220746f20636f7665722061736b696e6760008201527f2070726963650000000000000000000000000000000000000000000000000000602082015250565b7f4e6f7420656e6f75676820657468657220666f72206c697374696e6720666565600082015250565b7f5265656e7472616e637947756172643a207265656e7472616e742063616c6c00600082015250565b7f5072696365206d757374206265206174206c6561737420312077656900000000600082015250565b6125ac81612345565b81146125b757600080fd5b50565b6125c381612395565b81146125ce57600080fd5b5056fea26469706673582212207dd0d130935b73cac46c065410da1b63552325b2ed70c6ba5483902ab8ef695564736f6c63430008070033",
					"opcodes": "PUSH1 0x80 PUSH1 0x40 MSTORE PUSH7 0x71AFD498D0000 PUSH1 0x3 SSTORE CALLVALUE DUP1 ISZERO PUSH2 0x1B JUMPI PUSH1 0x0 DUP1 REVERT JUMPDEST POP PUSH1 0x1 PUSH1 0x0 DUP2 SWAP1 SSTORE POP CALLER PUSH1 0x4 PUSH1 0x0 PUSH2 0x100 EXP DUP2 SLOAD DUP2 PUSH20 0xFFFFFFFFFFFFFFFFFFFFFFFFFFFFFFFFFFFFFFFF MUL NOT AND SWAP1 DUP4 PUSH20 0xFFFFFFFFFFFFFFFFFFFFFFFFFFFFFFFFFFFFFFFF AND MUL OR SWAP1 SSTORE POP PUSH2 0x2607 DUP1 PUSH2 0x74 PUSH1 0x0 CODECOPY PUSH1 0x0 RETURN INVALID PUSH1 0x80 PUSH1 0x40 MSTORE PUSH1 0x4 CALLDATASIZE LT PUSH2 0x91 JUMPI PUSH1 0x0 CALLDATALOAD PUSH1 0xE0 SHR DUP1 PUSH4 0x8D6CB3FB GT PUSH2 0x59 JUMPI DUP1 PUSH4 0x8D6CB3FB EQ PUSH2 0x14F JUMPI DUP1 PUSH4 0xA46B5C5A EQ PUSH2 0x17A JUMPI DUP1 PUSH4 0xAD05F1B4 EQ PUSH2 0x1A5 JUMPI DUP1 PUSH4 0xB8FE6ABE EQ PUSH2 0x1C1 JUMPI DUP1 PUSH4 0xCCEF4339 EQ PUSH2 0x1EC JUMPI PUSH2 0x91 JUMP JUMPDEST DUP1 PUSH4 0x4935694 EQ PUSH2 0x96 JUMPI DUP1 PUSH4 0x1F4CC4DB EQ PUSH2 0xB2 JUMPI DUP1 PUSH4 0x2B86AE38 EQ PUSH2 0xDD JUMPI DUP1 PUSH4 0x4DDF4F8F EQ PUSH2 0x108 JUMPI DUP1 PUSH4 0x8492095A EQ PUSH2 0x124 JUMPI JUMPDEST PUSH1 0x0 DUP1 REVERT JUMPDEST PUSH2 0xB0 PUSH1 0x4 DUP1 CALLDATASIZE SUB DUP2 ADD SWAP1 PUSH2 0xAB SWAP2 SWAP1 PUSH2 0x1E80 JUMP JUMPDEST PUSH2 0x229 JUMP JUMPDEST STOP JUMPDEST CALLVALUE DUP1 ISZERO PUSH2 0xBE JUMPI PUSH1 0x0 DUP1 REVERT JUMPDEST POP PUSH2 0xC7 PUSH2 0x4B1 JUMP JUMPDEST PUSH1 0x40 MLOAD PUSH2 0xD4 SWAP2 SWAP1 PUSH2 0x2194 JUMP JUMPDEST PUSH1 0x40 MLOAD DUP1 SWAP2 SUB SWAP1 RETURN JUMPDEST CALLVALUE DUP1 ISZERO PUSH2 0xE9 JUMPI PUSH1 0x0 DUP1 REVERT JUMPDEST POP PUSH2 0xF2 PUSH2 0x8B2 JUMP JUMPDEST PUSH1 0x40 MLOAD PUSH2 0xFF SWAP2 SWAP1 PUSH2 0x2256 JUMP JUMPDEST PUSH1 0x40 MLOAD DUP1 SWAP2 SUB SWAP1 RETURN JUMPDEST PUSH2 0x122 PUSH1 0x4 DUP1 CALLDATASIZE SUB DUP2 ADD SWAP1 PUSH2 0x11D SWAP2 SWAP1 PUSH2 0x1E40 JUMP JUMPDEST PUSH2 0x8B8 JUMP JUMPDEST STOP JUMPDEST CALLVALUE DUP1 ISZERO PUSH2 0x130 JUMPI PUSH1 0x0 DUP1 REVERT JUMPDEST POP PUSH2 0x139 PUSH2 0xB48 JUMP JUMPDEST PUSH1 0x40 MLOAD PUSH2 0x146 SWAP2 SWAP1 PUSH2 0x2194 JUMP JUMPDEST PUSH1 0x40 MLOAD DUP1 SWAP2 SUB SWAP1 RETURN JUMPDEST CALLVALUE DUP1 ISZERO PUSH2 0x15B JUMPI PUSH1 0x0 DUP1 REVERT JUMPDEST POP PUSH2 0x164 PUSH2 0xED9 JUMP JUMPDEST PUSH1 0x40 MLOAD PUSH2 0x171 SWAP2 SWAP1 PUSH2 0x2194 JUMP JUMPDEST PUSH1 0x40 MLOAD DUP1 SWAP2 SUB SWAP1 RETURN JUMPDEST CALLVALUE DUP1 ISZERO PUSH2 0x186 JUMPI PUSH1 0x0 DUP1 REVERT JUMPDEST POP PUSH2 0x18F PUSH2 0x119B JUMP JUMPDEST PUSH1 0x40 MLOAD PUSH2 0x19C SWAP2 SWAP1 PUSH2 0x2194 JUMP JUMPDEST PUSH1 0x40 MLOAD DUP1 SWAP2 SUB SWAP1 RETURN JUMPDEST PUSH2 0x1BF PUSH1 0x4 DUP1 CALLDATASIZE SUB DUP2 ADD SWAP1 PUSH2 0x1BA SWAP2 SWAP1 PUSH2 0x1E80 JUMP JUMPDEST PUSH2 0x152C JUMP JUMPDEST STOP JUMPDEST CALLVALUE DUP1 ISZERO PUSH2 0x1CD JUMPI PUSH1 0x0 DUP1 REVERT JUMPDEST POP PUSH2 0x1D6 PUSH2 0x194D JUMP JUMPDEST PUSH1 0x40 MLOAD PUSH2 0x1E3 SWAP2 SWAP1 PUSH2 0x2256 JUMP JUMPDEST PUSH1 0x40 MLOAD DUP1 SWAP2 SUB SWAP1 RETURN JUMPDEST CALLVALUE DUP1 ISZERO PUSH2 0x1F8 JUMPI PUSH1 0x0 DUP1 REVERT JUMPDEST POP PUSH2 0x213 PUSH1 0x4 DUP1 CALLDATASIZE SUB DUP2 ADD SWAP1 PUSH2 0x20E SWAP2 SWAP1 PUSH2 0x1E13 JUMP JUMPDEST PUSH2 0x1957 JUMP JUMPDEST PUSH1 0x40 MLOAD PUSH2 0x220 SWAP2 SWAP1 PUSH2 0x2194 JUMP JUMPDEST PUSH1 0x40 MLOAD DUP1 SWAP2 SUB SWAP1 RETURN JUMPDEST PUSH1 0x2 PUSH1 0x0 SLOAD EQ ISZERO PUSH2 0x26F JUMPI PUSH1 0x40 MLOAD PUSH32 0x8C379A000000000000000000000000000000000000000000000000000000000 DUP2 MSTORE PUSH1 0x4 ADD PUSH2 0x266 SWAP1 PUSH2 0x2216 JUMP JUMPDEST PUSH1 0x40 MLOAD DUP1 SWAP2 SUB SWAP1 REVERT JUMPDEST PUSH1 0x2 PUSH1 0x0 DUP2 SWAP1 SSTORE POP PUSH1 0x0 DUP2 GT PUSH2 0x2BA JUMPI PUSH1 0x40 MLOAD PUSH32 0x8C379A000000000000000000000000000000000000000000000000000000000 DUP2 MSTORE PUSH1 0x4 ADD PUSH2 0x2B1 SWAP1 PUSH2 0x2236 JUMP JUMPDEST PUSH1 0x40 MLOAD DUP1 SWAP2 SUB SWAP1 REVERT JUMPDEST PUSH1 0x3 SLOAD CALLVALUE EQ PUSH2 0x2FE JUMPI PUSH1 0x40 MLOAD PUSH32 0x8C379A000000000000000000000000000000000000000000000000000000000 DUP2 MSTORE PUSH1 0x4 ADD PUSH2 0x2F5 SWAP1 PUSH2 0x21F6 JUMP JUMPDEST PUSH1 0x40 MLOAD DUP1 SWAP2 SUB SWAP1 REVERT JUMPDEST DUP3 PUSH20 0xFFFFFFFFFFFFFFFFFFFFFFFFFFFFFFFFFFFFFFFF AND PUSH4 0x23B872DD CALLER ADDRESS DUP6 PUSH1 0x40 MLOAD DUP5 PUSH4 0xFFFFFFFF AND PUSH1 0xE0 SHL DUP2 MSTORE PUSH1 0x4 ADD PUSH2 0x33B SWAP4 SWAP3 SWAP2 SWAP1 PUSH2 0x2126 JUMP JUMPDEST PUSH1 0x0 PUSH1 0x40 MLOAD DUP1 DUP4 SUB DUP2 PUSH1 0x0 DUP8 DUP1 EXTCODESIZE ISZERO DUP1 ISZERO PUSH2 0x355 JUMPI PUSH1 0x0 DUP1 REVERT JUMPDEST POP GAS CALL ISZERO DUP1 ISZERO PUSH2 0x369 JUMPI RETURNDATASIZE PUSH1 0x0 DUP1 RETURNDATACOPY RETURNDATASIZE PUSH1 0x0 REVERT JUMPDEST POP POP POP POP PUSH1 0x0 PUSH1 0x5 PUSH1 0x0 DUP5 DUP2 MSTORE PUSH1 0x20 ADD SWAP1 DUP2 MSTORE PUSH1 0x20 ADD PUSH1 0x0 KECCAK256 SWAP1 POP CALLER DUP2 PUSH1 0x3 ADD PUSH1 0x0 PUSH2 0x100 EXP DUP2 SLOAD DUP2 PUSH20 0xFFFFFFFFFFFFFFFFFFFFFFFFFFFFFFFFFFFFFFFF MUL NOT AND SWAP1 DUP4 PUSH20 0xFFFFFFFFFFFFFFFFFFFFFFFFFFFFFFFFFFFFFFFF AND MUL OR SWAP1 SSTORE POP ADDRESS DUP2 PUSH1 0x4 ADD PUSH1 0x0 PUSH2 0x100 EXP DUP2 SLOAD DUP2 PUSH20 0xFFFFFFFFFFFFFFFFFFFFFFFFFFFFFFFFFFFFFFFF MUL NOT AND SWAP1 DUP4 PUSH20 0xFFFFFFFFFFFFFFFFFFFFFFFFFFFFFFFFFFFFFFFF AND MUL OR SWAP1 SSTORE POP PUSH1 0x1 DUP2 PUSH1 0x5 ADD PUSH1 0x14 PUSH2 0x100 EXP DUP2 SLOAD DUP2 PUSH1 0xFF MUL NOT AND SWAP1 DUP4 ISZERO ISZERO MUL OR SWAP1 SSTORE POP DUP2 DUP2 PUSH1 0x2 ADD DUP2 SWAP1 SSTORE POP PUSH2 0x43A PUSH1 0x1 PUSH2 0x1CD2 JUMP JUMPDEST ADDRESS PUSH20 0xFFFFFFFFFFFFFFFFFFFFFFFFFFFFFFFFFFFFFFFF AND CALLER PUSH20 0xFFFFFFFFFFFFFFFFFFFFFFFFFFFFFFFFFFFFFFFF AND PUSH32 0xA0C6C0D02D86FDACECBAA5FDF5894BAB204E31A778250474108540733A9B8D19 DUP7 DUP7 DUP7 PUSH1 0x40 MLOAD PUSH2 0x49B SWAP4 SWAP3 SWAP2 SWAP1 PUSH2 0x215D JUMP JUMPDEST PUSH1 0x40 MLOAD DUP1 SWAP2 SUB SWAP1 LOG3 POP PUSH1 0x1 PUSH1 0x0 DUP2 SWAP1 SSTORE POP POP POP POP JUMP JUMPDEST PUSH1 0x60 PUSH1 0x0 PUSH2 0x4BF PUSH1 0x2 PUSH2 0x1D2E JUMP JUMPDEST SWAP1 POP PUSH1 0x0 DUP1 PUSH1 0x1 SWAP1 POP JUMPDEST DUP3 DUP2 GT PUSH2 0x5A0 JUMPI CALLER PUSH20 0xFFFFFFFFFFFFFFFFFFFFFFFFFFFFFFFFFFFFFFFF AND PUSH1 0x5 PUSH1 0x0 PUSH1 0x1 DUP5 PUSH2 0x4F8 SWAP2 SWAP1 PUSH2 0x22BB JUMP JUMPDEST DUP2 MSTORE PUSH1 0x20 ADD SWAP1 DUP2 MSTORE PUSH1 0x20 ADD PUSH1 0x0 KECCAK256 PUSH1 0x3 ADD PUSH1 0x0 SWAP1 SLOAD SWAP1 PUSH2 0x100 EXP SWAP1 DIV PUSH20 0xFFFFFFFFFFFFFFFFFFFFFFFFFFFFFFFFFFFFFFFF AND PUSH20 0xFFFFFFFFFFFFFFFFFFFFFFFFFFFFFFFFFFFFFFFF AND EQ DUP1 ISZERO PUSH2 0x579 JUMPI POP PUSH1 0x5 PUSH1 0x0 PUSH1 0x1 DUP4 PUSH2 0x559 SWAP2 SWAP1 PUSH2 0x22BB JUMP JUMPDEST DUP2 MSTORE PUSH1 0x20 ADD SWAP1 DUP2 MSTORE PUSH1 0x20 ADD PUSH1 0x0 KECCAK256 PUSH1 0x5 ADD PUSH1 0x14 SWAP1 SLOAD SWAP1 PUSH2 0x100 EXP SWAP1 DIV PUSH1 0xFF AND JUMPDEST ISZERO PUSH2 0x58D JUMPI DUP2 DUP1 PUSH2 0x589 SWAP1 PUSH2 0x23D5 JUMP JUMPDEST SWAP3 POP POP JUMPDEST DUP1 DUP1 PUSH2 0x598 SWAP1 PUSH2 0x23D5 JUMP JUMPDEST SWAP2 POP POP PUSH2 0x4C9 JUMP JUMPDEST POP PUSH1 0x0 DUP2 PUSH8 0xFFFFFFFFFFFFFFFF DUP2 GT ISZERO PUSH2 0x5BD JUMPI PUSH2 0x5BC PUSH2 0x247C JUMP JUMPDEST JUMPDEST PUSH1 0x40 MLOAD SWAP1 DUP1 DUP3 MSTORE DUP1 PUSH1 0x20 MUL PUSH1 0x20 ADD DUP3 ADD PUSH1 0x40 MSTORE DUP1 ISZERO PUSH2 0x5F6 JUMPI DUP2 PUSH1 0x20 ADD JUMPDEST PUSH2 0x5E3 PUSH2 0x1D52 JUMP JUMPDEST DUP2 MSTORE PUSH1 0x20 ADD SWAP1 PUSH1 0x1 SWAP1 SUB SWAP1 DUP2 PUSH2 0x5DB JUMPI SWAP1 POP JUMPDEST POP SWAP1 POP PUSH1 0x0 DUP1 PUSH1 0x1 SWAP1 POP JUMPDEST DUP5 DUP2 GT PUSH2 0x8A7 JUMPI CALLER PUSH20 0xFFFFFFFFFFFFFFFFFFFFFFFFFFFFFFFFFFFFFFFF AND PUSH1 0x5 PUSH1 0x0 PUSH1 0x1 DUP5 PUSH2 0x630 SWAP2 SWAP1 PUSH2 0x22BB JUMP JUMPDEST DUP2 MSTORE PUSH1 0x20 ADD SWAP1 DUP2 MSTORE PUSH1 0x20 ADD PUSH1 0x0 KECCAK256 PUSH1 0x3 ADD PUSH1 0x0 SWAP1 SLOAD SWAP1 PUSH2 0x100 EXP SWAP1 DIV PUSH20 0xFFFFFFFFFFFFFFFFFFFFFFFFFFFFFFFFFFFFFFFF AND PUSH20 0xFFFFFFFFFFFFFFFFFFFFFFFFFFFFFFFFFFFFFFFF AND EQ DUP1 ISZERO PUSH2 0x6B1 JUMPI POP PUSH1 0x5 PUSH1 0x0 PUSH1 0x1 DUP4 PUSH2 0x691 SWAP2 SWAP1 PUSH2 0x22BB JUMP JUMPDEST DUP2 MSTORE PUSH1 0x20 ADD SWAP1 DUP2 MSTORE PUSH1 0x20 ADD PUSH1 0x0 KECCAK256 PUSH1 0x5 ADD PUSH1 0x14 SWAP1 SLOAD SWAP1 PUSH2 0x100 EXP SWAP1 DIV PUSH1 0xFF AND JUMPDEST ISZERO PUSH2 0x894 JUMPI PUSH1 0x5 PUSH1 0x0 PUSH1 0x1 DUP4 PUSH2 0x6C7 SWAP2 SWAP1 PUSH2 0x22BB JUMP JUMPDEST DUP2 MSTORE PUSH1 0x20 ADD SWAP1 DUP2 MSTORE PUSH1 0x20 ADD PUSH1 0x0 KECCAK256 PUSH1 0x40 MLOAD DUP1 PUSH1 0xE0 ADD PUSH1 0x40 MSTORE SWAP1 DUP2 PUSH1 0x0 DUP3 ADD PUSH1 0x0 SWAP1 SLOAD SWAP1 PUSH2 0x100 EXP SWAP1 DIV PUSH20 0xFFFFFFFFFFFFFFFFFFFFFFFFFFFFFFFFFFFFFFFF AND PUSH20 0xFFFFFFFFFFFFFFFFFFFFFFFFFFFFFFFFFFFFFFFF AND PUSH20 0xFFFFFFFFFFFFFFFFFFFFFFFFFFFFFFFFFFFFFFFF AND DUP2 MSTORE PUSH1 0x20 ADD PUSH1 0x1 DUP3 ADD SLOAD DUP2 MSTORE PUSH1 0x20 ADD PUSH1 0x2 DUP3 ADD SLOAD DUP2 MSTORE PUSH1 0x20 ADD PUSH1 0x3 DUP3 ADD PUSH1 0x0 SWAP1 SLOAD SWAP1 PUSH2 0x100 EXP SWAP1 DIV PUSH20 0xFFFFFFFFFFFFFFFFFFFFFFFFFFFFFFFFFFFFFFFF AND PUSH20 0xFFFFFFFFFFFFFFFFFFFFFFFFFFFFFFFFFFFFFFFF AND PUSH20 0xFFFFFFFFFFFFFFFFFFFFFFFFFFFFFFFFFFFFFFFF AND DUP2 MSTORE PUSH1 0x20 ADD PUSH1 0x4 DUP3 ADD PUSH1 0x0 SWAP1 SLOAD SWAP1 PUSH2 0x100 EXP SWAP1 DIV PUSH20 0xFFFFFFFFFFFFFFFFFFFFFFFFFFFFFFFFFFFFFFFF AND PUSH20 0xFFFFFFFFFFFFFFFFFFFFFFFFFFFFFFFFFFFFFFFF AND PUSH20 0xFFFFFFFFFFFFFFFFFFFFFFFFFFFFFFFFFFFFFFFF AND DUP2 MSTORE PUSH1 0x20 ADD PUSH1 0x5 DUP3 ADD PUSH1 0x0 SWAP1 SLOAD SWAP1 PUSH2 0x100 EXP SWAP1 DIV PUSH20 0xFFFFFFFFFFFFFFFFFFFFFFFFFFFFFFFFFFFFFFFF AND PUSH20 0xFFFFFFFFFFFFFFFFFFFFFFFFFFFFFFFFFFFFFFFF AND PUSH20 0xFFFFFFFFFFFFFFFFFFFFFFFFFFFFFFFFFFFFFFFF AND DUP2 MSTORE PUSH1 0x20 ADD PUSH1 0x5 DUP3 ADD PUSH1 0x14 SWAP1 SLOAD SWAP1 PUSH2 0x100 EXP SWAP1 DIV PUSH1 0xFF AND ISZERO ISZERO ISZERO ISZERO DUP2 MSTORE POP POP DUP4 DUP4 DUP2 MLOAD DUP2 LT PUSH2 0x87A JUMPI PUSH2 0x879 PUSH2 0x244D JUMP JUMPDEST JUMPDEST PUSH1 0x20 MUL PUSH1 0x20 ADD ADD DUP2 SWAP1 MSTORE POP DUP2 DUP1 PUSH2 0x890 SWAP1 PUSH2 0x23D5 JUMP JUMPDEST SWAP3 POP POP JUMPDEST DUP1 DUP1 PUSH2 0x89F SWAP1 PUSH2 0x23D5 JUMP JUMPDEST SWAP2 POP POP PUSH2 0x601 JUMP JUMPDEST POP DUP2 SWAP5 POP POP POP POP POP SWAP1 JUMP JUMPDEST PUSH1 0x3 SLOAD DUP2 JUMP JUMPDEST PUSH1 0x2 PUSH1 0x0 SLOAD EQ ISZERO PUSH2 0x8FE JUMPI PUSH1 0x40 MLOAD PUSH32 0x8C379A000000000000000000000000000000000000000000000000000000000 DUP2 MSTORE PUSH1 0x4 ADD PUSH2 0x8F5 SWAP1 PUSH2 0x2216 JUMP JUMPDEST PUSH1 0x40 MLOAD DUP1 SWAP2 SUB SWAP1 REVERT JUMPDEST PUSH1 0x2 PUSH1 0x0 DUP2 SWAP1 SSTORE POP PUSH1 0x0 PUSH1 0x5 PUSH1 0x0 DUP4 DUP2 MSTORE PUSH1 0x20 ADD SWAP1 DUP2 MSTORE PUSH1 0x20 ADD PUSH1 0x0 KECCAK256 SWAP1 POP DUP1 PUSH1 0x2 ADD SLOAD CALLVALUE LT ISZERO PUSH2 0x964 JUMPI PUSH1 0x40 MLOAD PUSH32 0x8C379A000000000000000000000000000000000000000000000000000000000 DUP2 MSTORE PUSH1 0x4 ADD PUSH2 0x95B SWAP1 PUSH2 0x21D6 JUMP JUMPDEST PUSH1 0x40 MLOAD DUP1 SWAP2 SUB SWAP1 REVERT JUMPDEST PUSH1 0x0 CALLER SWAP1 POP DUP2 PUSH1 0x3 ADD PUSH1 0x0 SWAP1 SLOAD SWAP1 PUSH2 0x100 EXP SWAP1 DIV PUSH20 0xFFFFFFFFFFFFFFFFFFFFFFFFFFFFFFFFFFFFFFFF AND PUSH20 0xFFFFFFFFFFFFFFFFFFFFFFFFFFFFFFFFFFFFFFFF AND PUSH2 0x8FC CALLVALUE SWAP1 DUP2 ISZERO MUL SWAP1 PUSH1 0x40 MLOAD PUSH1 0x0 PUSH1 0x40 MLOAD DUP1 DUP4 SUB DUP2 DUP6 DUP9 DUP9 CALL SWAP4 POP POP POP POP ISZERO DUP1 ISZERO PUSH2 0x9D3 JUMPI RETURNDATASIZE PUSH1 0x0 DUP1 RETURNDATACOPY RETURNDATASIZE PUSH1 0x0 REVERT JUMPDEST POP DUP4 PUSH20 0xFFFFFFFFFFFFFFFFFFFFFFFFFFFFFFFFFFFFFFFF AND PUSH4 0x23B872DD ADDRESS DUP4 DUP7 PUSH1 0x40 MLOAD DUP5 PUSH4 0xFFFFFFFF AND PUSH1 0xE0 SHL DUP2 MSTORE PUSH1 0x4 ADD PUSH2 0xA11 SWAP4 SWAP3 SWAP2 SWAP1 PUSH2 0x20EF JUMP JUMPDEST PUSH1 0x0 PUSH1 0x40 MLOAD DUP1 DUP4 SUB DUP2 PUSH1 0x0 DUP8 DUP1 EXTCODESIZE ISZERO DUP1 ISZERO PUSH2 0xA2B JUMPI PUSH1 0x0 DUP1 REVERT JUMPDEST POP GAS CALL ISZERO DUP1 ISZERO PUSH2 0xA3F JUMPI RETURNDATASIZE PUSH1 0x0 DUP1 RETURNDATACOPY RETURNDATASIZE PUSH1 0x0 REVERT JUMPDEST POP POP POP POP DUP1 DUP3 PUSH1 0x4 ADD PUSH1 0x0 PUSH2 0x100 EXP DUP2 SLOAD DUP2 PUSH20 0xFFFFFFFFFFFFFFFFFFFFFFFFFFFFFFFFFFFFFFFF MUL NOT AND SWAP1 DUP4 PUSH20 0xFFFFFFFFFFFFFFFFFFFFFFFFFFFFFFFFFFFFFFFF AND MUL OR SWAP1 SSTORE POP PUSH1 0x0 DUP3 PUSH1 0x5 ADD PUSH1 0x14 PUSH2 0x100 EXP DUP2 SLOAD DUP2 PUSH1 0xFF MUL NOT AND SWAP1 DUP4 ISZERO ISZERO MUL OR SWAP1 SSTORE POP PUSH2 0xAAD PUSH1 0x1 PUSH2 0x1D3C JUMP JUMPDEST DUP1 PUSH20 0xFFFFFFFFFFFFFFFFFFFFFFFFFFFFFFFFFFFFFFFF AND DUP3 PUSH1 0x3 ADD PUSH1 0x0 SWAP1 SLOAD SWAP1 PUSH2 0x100 EXP SWAP1 DIV PUSH20 0xFFFFFFFFFFFFFFFFFFFFFFFFFFFFFFFFFFFFFFFF AND PUSH20 0xFFFFFFFFFFFFFFFFFFFFFFFFFFFFFFFFFFFFFFFF AND PUSH32 0x16F1DBD97E6BF646D429ED186CCE832F1F7FD9907814293B83181E9970AB7BD2 DUP7 DUP7 CALLVALUE PUSH1 0x40 MLOAD PUSH2 0xB32 SWAP4 SWAP3 SWAP2 SWAP1 PUSH2 0x215D JUMP JUMPDEST PUSH1 0x40 MLOAD DUP1 SWAP2 SUB SWAP1 LOG3 POP POP PUSH1 0x1 PUSH1 0x0 DUP2 SWAP1 SSTORE POP POP POP JUMP JUMPDEST PUSH1 0x60 PUSH1 0x0 PUSH2 0xB56 PUSH1 0x2 PUSH2 0x1D2E JUMP JUMPDEST SWAP1 POP PUSH1 0x0 DUP1 PUSH1 0x1 SWAP1 POP JUMPDEST DUP3 DUP2 GT PUSH2 0xBFF JUMPI CALLER PUSH20 0xFFFFFFFFFFFFFFFFFFFFFFFFFFFFFFFFFFFFFFFF AND PUSH1 0x5 PUSH1 0x0 PUSH1 0x1 DUP5 PUSH2 0xB8F SWAP2 SWAP1 PUSH2 0x22BB JUMP JUMPDEST DUP2 MSTORE PUSH1 0x20 ADD SWAP1 DUP2 MSTORE PUSH1 0x20 ADD PUSH1 0x0 KECCAK256 PUSH1 0x5 ADD PUSH1 0x0 SWAP1 SLOAD SWAP1 PUSH2 0x100 EXP SWAP1 DIV PUSH20 0xFFFFFFFFFFFFFFFFFFFFFFFFFFFFFFFFFFFFFFFF AND PUSH20 0xFFFFFFFFFFFFFFFFFFFFFFFFFFFFFFFFFFFFFFFF AND EQ ISZERO PUSH2 0xBEC JUMPI DUP2 DUP1 PUSH2 0xBE8 SWAP1 PUSH2 0x23D5 JUMP JUMPDEST SWAP3 POP POP JUMPDEST DUP1 DUP1 PUSH2 0xBF7 SWAP1 PUSH2 0x23D5 JUMP JUMPDEST SWAP2 POP POP PUSH2 0xB60 JUMP JUMPDEST POP PUSH1 0x0 DUP2 PUSH8 0xFFFFFFFFFFFFFFFF DUP2 GT ISZERO PUSH2 0xC1C JUMPI PUSH2 0xC1B PUSH2 0x247C JUMP JUMPDEST JUMPDEST PUSH1 0x40 MLOAD SWAP1 DUP1 DUP3 MSTORE DUP1 PUSH1 0x20 MUL PUSH1 0x20 ADD DUP3 ADD PUSH1 0x40 MSTORE DUP1 ISZERO PUSH2 0xC55 JUMPI DUP2 PUSH1 0x20 ADD JUMPDEST PUSH2 0xC42 PUSH2 0x1D52 JUMP JUMPDEST DUP2 MSTORE PUSH1 0x20 ADD SWAP1 PUSH1 0x1 SWAP1 SUB SWAP1 DUP2 PUSH2 0xC3A JUMPI SWAP1 POP JUMPDEST POP SWAP1 POP PUSH1 0x0 DUP1 PUSH1 0x1 SWAP1 POP JUMPDEST DUP5 DUP2 GT PUSH2 0xECE JUMPI CALLER PUSH20 0xFFFFFFFFFFFFFFFFFFFFFFFFFFFFFFFFFFFFFFFF AND PUSH1 0x5 PUSH1 0x0 PUSH1 0x1 DUP5 PUSH2 0xC8F SWAP2 SWAP1 PUSH2 0x22BB JUMP JUMPDEST DUP2 MSTORE PUSH1 0x20 ADD SWAP1 DUP2 MSTORE PUSH1 0x20 ADD PUSH1 0x0 KECCAK256 PUSH1 0x5 ADD PUSH1 0x0 SWAP1 SLOAD SWAP1 PUSH2 0x100 EXP SWAP1 DIV PUSH20 0xFFFFFFFFFFFFFFFFFFFFFFFFFFFFFFFFFFFFFFFF AND PUSH20 0xFFFFFFFFFFFFFFFFFFFFFFFFFFFFFFFFFFFFFFFF AND EQ ISZERO PUSH2 0xEBB JUMPI PUSH1 0x5 PUSH1 0x0 PUSH1 0x1 DUP4 PUSH2 0xCEE SWAP2 SWAP1 PUSH2 0x22BB JUMP JUMPDEST DUP2 MSTORE PUSH1 0x20 ADD SWAP1 DUP2 MSTORE PUSH1 0x20 ADD PUSH1 0x0 KECCAK256 PUSH1 0x40 MLOAD DUP1 PUSH1 0xE0 ADD PUSH1 0x40 MSTORE SWAP1 DUP2 PUSH1 0x0 DUP3 ADD PUSH1 0x0 SWAP1 SLOAD SWAP1 PUSH2 0x100 EXP SWAP1 DIV PUSH20 0xFFFFFFFFFFFFFFFFFFFFFFFFFFFFFFFFFFFFFFFF AND PUSH20 0xFFFFFFFFFFFFFFFFFFFFFFFFFFFFFFFFFFFFFFFF AND PUSH20 0xFFFFFFFFFFFFFFFFFFFFFFFFFFFFFFFFFFFFFFFF AND DUP2 MSTORE PUSH1 0x20 ADD PUSH1 0x1 DUP3 ADD SLOAD DUP2 MSTORE PUSH1 0x20 ADD PUSH1 0x2 DUP3 ADD SLOAD DUP2 MSTORE PUSH1 0x20 ADD PUSH1 0x3 DUP3 ADD PUSH1 0x0 SWAP1 SLOAD SWAP1 PUSH2 0x100 EXP SWAP1 DIV PUSH20 0xFFFFFFFFFFFFFFFFFFFFFFFFFFFFFFFFFFFFFFFF AND PUSH20 0xFFFFFFFFFFFFFFFFFFFFFFFFFFFFFFFFFFFFFFFF AND PUSH20 0xFFFFFFFFFFFFFFFFFFFFFFFFFFFFFFFFFFFFFFFF AND DUP2 MSTORE PUSH1 0x20 ADD PUSH1 0x4 DUP3 ADD PUSH1 0x0 SWAP1 SLOAD SWAP1 PUSH2 0x100 EXP SWAP1 DIV PUSH20 0xFFFFFFFFFFFFFFFFFFFFFFFFFFFFFFFFFFFFFFFF AND PUSH20 0xFFFFFFFFFFFFFFFFFFFFFFFFFFFFFFFFFFFFFFFF AND PUSH20 0xFFFFFFFFFFFFFFFFFFFFFFFFFFFFFFFFFFFFFFFF AND DUP2 MSTORE PUSH1 0x20 ADD PUSH1 0x5 DUP3 ADD PUSH1 0x0 SWAP1 SLOAD SWAP1 PUSH2 0x100 EXP SWAP1 DIV PUSH20 0xFFFFFFFFFFFFFFFFFFFFFFFFFFFFFFFFFFFFFFFF AND PUSH20 0xFFFFFFFFFFFFFFFFFFFFFFFFFFFFFFFFFFFFFFFF AND PUSH20 0xFFFFFFFFFFFFFFFFFFFFFFFFFFFFFFFFFFFFFFFF AND DUP2 MSTORE PUSH1 0x20 ADD PUSH1 0x5 DUP3 ADD PUSH1 0x14 SWAP1 SLOAD SWAP1 PUSH2 0x100 EXP SWAP1 DIV PUSH1 0xFF AND ISZERO ISZERO ISZERO ISZERO DUP2 MSTORE POP POP DUP4 DUP4 DUP2 MLOAD DUP2 LT PUSH2 0xEA1 JUMPI PUSH2 0xEA0 PUSH2 0x244D JUMP JUMPDEST JUMPDEST PUSH1 0x20 MUL PUSH1 0x20 ADD ADD DUP2 SWAP1 MSTORE POP DUP2 DUP1 PUSH2 0xEB7 SWAP1 PUSH2 0x23D5 JUMP JUMPDEST SWAP3 POP POP JUMPDEST DUP1 DUP1 PUSH2 0xEC6 SWAP1 PUSH2 0x23D5 JUMP JUMPDEST SWAP2 POP POP PUSH2 0xC60 JUMP JUMPDEST POP DUP2 SWAP5 POP POP POP POP POP SWAP1 JUMP JUMPDEST PUSH1 0x60 PUSH1 0x0 PUSH2 0xEE7 PUSH1 0x2 PUSH2 0x1D2E JUMP JUMPDEST SWAP1 POP PUSH1 0x0 PUSH2 0xEF5 PUSH1 0x1 PUSH2 0x1D2E JUMP JUMPDEST DUP3 PUSH2 0xF00 SWAP2 SWAP1 PUSH2 0x2311 JUMP JUMPDEST SWAP1 POP PUSH1 0x0 DUP2 PUSH8 0xFFFFFFFFFFFFFFFF DUP2 GT ISZERO PUSH2 0xF1E JUMPI PUSH2 0xF1D PUSH2 0x247C JUMP JUMPDEST JUMPDEST PUSH1 0x40 MLOAD SWAP1 DUP1 DUP3 MSTORE DUP1 PUSH1 0x20 MUL PUSH1 0x20 ADD DUP3 ADD PUSH1 0x40 MSTORE DUP1 ISZERO PUSH2 0xF57 JUMPI DUP2 PUSH1 0x20 ADD JUMPDEST PUSH2 0xF44 PUSH2 0x1D52 JUMP JUMPDEST DUP2 MSTORE PUSH1 0x20 ADD SWAP1 PUSH1 0x1 SWAP1 SUB SWAP1 DUP2 PUSH2 0xF3C JUMPI SWAP1 POP JUMPDEST POP SWAP1 POP PUSH1 0x0 DUP1 PUSH1 0x1 SWAP1 POP JUMPDEST DUP5 DUP2 LT ISZERO PUSH2 0x1190 JUMPI PUSH1 0x5 PUSH1 0x0 PUSH1 0x1 DUP4 PUSH2 0xF7B SWAP2 SWAP1 PUSH2 0x22BB JUMP JUMPDEST DUP2 MSTORE PUSH1 0x20 ADD SWAP1 DUP2 MSTORE PUSH1 0x20 ADD PUSH1 0x0 KECCAK256 PUSH1 0x5 ADD PUSH1 0x14 SWAP1 SLOAD SWAP1 PUSH2 0x100 EXP SWAP1 DIV PUSH1 0xFF AND ISZERO PUSH2 0x117D JUMPI PUSH1 0x5 PUSH1 0x0 PUSH1 0x1 DUP4 PUSH2 0xFB0 SWAP2 SWAP1 PUSH2 0x22BB JUMP JUMPDEST DUP2 MSTORE PUSH1 0x20 ADD SWAP1 DUP2 MSTORE PUSH1 0x20 ADD PUSH1 0x0 KECCAK256 PUSH1 0x40 MLOAD DUP1 PUSH1 0xE0 ADD PUSH1 0x40 MSTORE SWAP1 DUP2 PUSH1 0x0 DUP3 ADD PUSH1 0x0 SWAP1 SLOAD SWAP1 PUSH2 0x100 EXP SWAP1 DIV PUSH20 0xFFFFFFFFFFFFFFFFFFFFFFFFFFFFFFFFFFFFFFFF AND PUSH20 0xFFFFFFFFFFFFFFFFFFFFFFFFFFFFFFFFFFFFFFFF AND PUSH20 0xFFFFFFFFFFFFFFFFFFFFFFFFFFFFFFFFFFFFFFFF AND DUP2 MSTORE PUSH1 0x20 ADD PUSH1 0x1 DUP3 ADD SLOAD DUP2 MSTORE PUSH1 0x20 ADD PUSH1 0x2 DUP3 ADD SLOAD DUP2 MSTORE PUSH1 0x20 ADD PUSH1 0x3 DUP3 ADD PUSH1 0x0 SWAP1 SLOAD SWAP1 PUSH2 0x100 EXP SWAP1 DIV PUSH20 0xFFFFFFFFFFFFFFFFFFFFFFFFFFFFFFFFFFFFFFFF AND PUSH20 0xFFFFFFFFFFFFFFFFFFFFFFFFFFFFFFFFFFFFFFFF AND PUSH20 0xFFFFFFFFFFFFFFFFFFFFFFFFFFFFFFFFFFFFFFFF AND DUP2 MSTORE PUSH1 0x20 ADD PUSH1 0x4 DUP3 ADD PUSH1 0x0 SWAP1 SLOAD SWAP1 PUSH2 0x100 EXP SWAP1 DIV PUSH20 0xFFFFFFFFFFFFFFFFFFFFFFFFFFFFFFFFFFFFFFFF AND PUSH20 0xFFFFFFFFFFFFFFFFFFFFFFFFFFFFFFFFFFFFFFFF AND PUSH20 0xFFFFFFFFFFFFFFFFFFFFFFFFFFFFFFFFFFFFFFFF AND DUP2 MSTORE PUSH1 0x20 ADD PUSH1 0x5 DUP3 ADD PUSH1 0x0 SWAP1 SLOAD SWAP1 PUSH2 0x100 EXP SWAP1 DIV PUSH20 0xFFFFFFFFFFFFFFFFFFFFFFFFFFFFFFFFFFFFFFFF AND PUSH20 0xFFFFFFFFFFFFFFFFFFFFFFFFFFFFFFFFFFFFFFFF AND PUSH20 0xFFFFFFFFFFFFFFFFFFFFFFFFFFFFFFFFFFFFFFFF AND DUP2 MSTORE PUSH1 0x20 ADD PUSH1 0x5 DUP3 ADD PUSH1 0x14 SWAP1 SLOAD SWAP1 PUSH2 0x100 EXP SWAP1 DIV PUSH1 0xFF AND ISZERO ISZERO ISZERO ISZERO DUP2 MSTORE POP POP DUP4 DUP4 DUP2 MLOAD DUP2 LT PUSH2 0x1163 JUMPI PUSH2 0x1162 PUSH2 0x244D JUMP JUMPDEST JUMPDEST PUSH1 0x20 MUL PUSH1 0x20 ADD ADD DUP2 SWAP1 MSTORE POP DUP2 DUP1 PUSH2 0x1179 SWAP1 PUSH2 0x23D5 JUMP JUMPDEST SWAP3 POP POP JUMPDEST DUP1 DUP1 PUSH2 0x1188 SWAP1 PUSH2 0x23D5 JUMP JUMPDEST SWAP2 POP POP PUSH2 0xF62 JUMP JUMPDEST POP DUP2 SWAP5 POP POP POP POP POP SWAP1 JUMP JUMPDEST PUSH1 0x60 PUSH1 0x0 PUSH2 0x11A9 PUSH1 0x2 PUSH2 0x1D2E JUMP JUMPDEST SWAP1 POP PUSH1 0x0 DUP1 PUSH1 0x1 SWAP1 POP JUMPDEST DUP3 DUP2 GT PUSH2 0x1252 JUMPI CALLER PUSH20 0xFFFFFFFFFFFFFFFFFFFFFFFFFFFFFFFFFFFFFFFF AND PUSH1 0x5 PUSH1 0x0 PUSH1 0x1 DUP5 PUSH2 0x11E2 SWAP2 SWAP1 PUSH2 0x22BB JUMP JUMPDEST DUP2 MSTORE PUSH1 0x20 ADD SWAP1 DUP2 MSTORE PUSH1 0x20 ADD PUSH1 0x0 KECCAK256 PUSH1 0x4 ADD PUSH1 0x0 SWAP1 SLOAD SWAP1 PUSH2 0x100 EXP SWAP1 DIV PUSH20 0xFFFFFFFFFFFFFFFFFFFFFFFFFFFFFFFFFFFFFFFF AND PUSH20 0xFFFFFFFFFFFFFFFFFFFFFFFFFFFFFFFFFFFFFFFF AND EQ ISZERO PUSH2 0x123F JUMPI DUP2 DUP1 PUSH2 0x123B SWAP1 PUSH2 0x23D5 JUMP JUMPDEST SWAP3 POP POP JUMPDEST DUP1 DUP1 PUSH2 0x124A SWAP1 PUSH2 0x23D5 JUMP JUMPDEST SWAP2 POP POP PUSH2 0x11B3 JUMP JUMPDEST POP PUSH1 0x0 DUP2 PUSH8 0xFFFFFFFFFFFFFFFF DUP2 GT ISZERO PUSH2 0x126F JUMPI PUSH2 0x126E PUSH2 0x247C JUMP JUMPDEST JUMPDEST PUSH1 0x40 MLOAD SWAP1 DUP1 DUP3 MSTORE DUP1 PUSH1 0x20 MUL PUSH1 0x20 ADD DUP3 ADD PUSH1 0x40 MSTORE DUP1 ISZERO PUSH2 0x12A8 JUMPI DUP2 PUSH1 0x20 ADD JUMPDEST PUSH2 0x1295 PUSH2 0x1D52 JUMP JUMPDEST DUP2 MSTORE PUSH1 0x20 ADD SWAP1 PUSH1 0x1 SWAP1 SUB SWAP1 DUP2 PUSH2 0x128D JUMPI SWAP1 POP JUMPDEST POP SWAP1 POP PUSH1 0x0 DUP1 PUSH1 0x1 SWAP1 POP JUMPDEST DUP5 DUP2 GT PUSH2 0x1521 JUMPI CALLER PUSH20 0xFFFFFFFFFFFFFFFFFFFFFFFFFFFFFFFFFFFFFFFF AND PUSH1 0x5 PUSH1 0x0 PUSH1 0x1 DUP5 PUSH2 0x12E2 SWAP2 SWAP1 PUSH2 0x22BB JUMP JUMPDEST DUP2 MSTORE PUSH1 0x20 ADD SWAP1 DUP2 MSTORE PUSH1 0x20 ADD PUSH1 0x0 KECCAK256 PUSH1 0x4 ADD PUSH1 0x0 SWAP1 SLOAD SWAP1 PUSH2 0x100 EXP SWAP1 DIV PUSH20 0xFFFFFFFFFFFFFFFFFFFFFFFFFFFFFFFFFFFFFFFF AND PUSH20 0xFFFFFFFFFFFFFFFFFFFFFFFFFFFFFFFFFFFFFFFF AND EQ ISZERO PUSH2 0x150E JUMPI PUSH1 0x5 PUSH1 0x0 PUSH1 0x1 DUP4 PUSH2 0x1341 SWAP2 SWAP1 PUSH2 0x22BB JUMP JUMPDEST DUP2 MSTORE PUSH1 0x20 ADD SWAP1 DUP2 MSTORE PUSH1 0x20 ADD PUSH1 0x0 KECCAK256 PUSH1 0x40 MLOAD DUP1 PUSH1 0xE0 ADD PUSH1 0x40 MSTORE SWAP1 DUP2 PUSH1 0x0 DUP3 ADD PUSH1 0x0 SWAP1 SLOAD SWAP1 PUSH2 0x100 EXP SWAP1 DIV PUSH20 0xFFFFFFFFFFFFFFFFFFFFFFFFFFFFFFFFFFFFFFFF AND PUSH20 0xFFFFFFFFFFFFFFFFFFFFFFFFFFFFFFFFFFFFFFFF AND PUSH20 0xFFFFFFFFFFFFFFFFFFFFFFFFFFFFFFFFFFFFFFFF AND DUP2 MSTORE PUSH1 0x20 ADD PUSH1 0x1 DUP3 ADD SLOAD DUP2 MSTORE PUSH1 0x20 ADD PUSH1 0x2 DUP3 ADD SLOAD DUP2 MSTORE PUSH1 0x20 ADD PUSH1 0x3 DUP3 ADD PUSH1 0x0 SWAP1 SLOAD SWAP1 PUSH2 0x100 EXP SWAP1 DIV PUSH20 0xFFFFFFFFFFFFFFFFFFFFFFFFFFFFFFFFFFFFFFFF AND PUSH20 0xFFFFFFFFFFFFFFFFFFFFFFFFFFFFFFFFFFFFFFFF AND PUSH20 0xFFFFFFFFFFFFFFFFFFFFFFFFFFFFFFFFFFFFFFFF AND DUP2 MSTORE PUSH1 0x20 ADD PUSH1 0x4 DUP3 ADD PUSH1 0x0 SWAP1 SLOAD SWAP1 PUSH2 0x100 EXP SWAP1 DIV PUSH20 0xFFFFFFFFFFFFFFFFFFFFFFFFFFFFFFFFFFFFFFFF AND PUSH20 0xFFFFFFFFFFFFFFFFFFFFFFFFFFFFFFFFFFFFFFFF AND PUSH20 0xFFFFFFFFFFFFFFFFFFFFFFFFFFFFFFFFFFFFFFFF AND DUP2 MSTORE PUSH1 0x20 ADD PUSH1 0x5 DUP3 ADD PUSH1 0x0 SWAP1 SLOAD SWAP1 PUSH2 0x100 EXP SWAP1 DIV PUSH20 0xFFFFFFFFFFFFFFFFFFFFFFFFFFFFFFFFFFFFFFFF AND PUSH20 0xFFFFFFFFFFFFFFFFFFFFFFFFFFFFFFFFFFFFFFFF AND PUSH20 0xFFFFFFFFFFFFFFFFFFFFFFFFFFFFFFFFFFFFFFFF AND DUP2 MSTORE PUSH1 0x20 ADD PUSH1 0x5 DUP3 ADD PUSH1 0x14 SWAP1 SLOAD SWAP1 PUSH2 0x100 EXP SWAP1 DIV PUSH1 0xFF AND ISZERO ISZERO ISZERO ISZERO DUP2 MSTORE POP POP DUP4 DUP4 DUP2 MLOAD DUP2 LT PUSH2 0x14F4 JUMPI PUSH2 0x14F3 PUSH2 0x244D JUMP JUMPDEST JUMPDEST PUSH1 0x20 MUL PUSH1 0x20 ADD ADD DUP2 SWAP1 MSTORE POP DUP2 DUP1 PUSH2 0x150A SWAP1 PUSH2 0x23D5 JUMP JUMPDEST SWAP3 POP POP JUMPDEST DUP1 DUP1 PUSH2 0x1519 SWAP1 PUSH2 0x23D5 JUMP JUMPDEST SWAP2 POP POP PUSH2 0x12B3 JUMP JUMPDEST POP DUP2 SWAP5 POP POP POP POP POP SWAP1 JUMP JUMPDEST PUSH1 0x2 PUSH1 0x0 SLOAD EQ ISZERO PUSH2 0x1572 JUMPI PUSH1 0x40 MLOAD PUSH32 0x8C379A000000000000000000000000000000000000000000000000000000000 DUP2 MSTORE PUSH1 0x4 ADD PUSH2 0x1569 SWAP1 PUSH2 0x2216 JUMP JUMPDEST PUSH1 0x40 MLOAD DUP1 SWAP2 SUB SWAP1 REVERT JUMPDEST PUSH1 0x2 PUSH1 0x0 DUP2 SWAP1 SSTORE POP PUSH1 0x0 DUP2 GT PUSH2 0x15BD JUMPI PUSH1 0x40 MLOAD PUSH32 0x8C379A000000000000000000000000000000000000000000000000000000000 DUP2 MSTORE PUSH1 0x4 ADD PUSH2 0x15B4 SWAP1 PUSH2 0x2236 JUMP JUMPDEST PUSH1 0x40 MLOAD DUP1 SWAP2 SUB SWAP1 REVERT JUMPDEST PUSH1 0x3 SLOAD CALLVALUE EQ PUSH2 0x1601 JUMPI PUSH1 0x40 MLOAD PUSH32 0x8C379A000000000000000000000000000000000000000000000000000000000 DUP2 MSTORE PUSH1 0x4 ADD PUSH2 0x15F8 SWAP1 PUSH2 0x21F6 JUMP JUMPDEST PUSH1 0x40 MLOAD DUP1 SWAP2 SUB SWAP1 REVERT JUMPDEST DUP3 PUSH20 0xFFFFFFFFFFFFFFFFFFFFFFFFFFFFFFFFFFFFFFFF AND PUSH4 0x23B872DD CALLER ADDRESS DUP6 PUSH1 0x40 MLOAD DUP5 PUSH4 0xFFFFFFFF AND PUSH1 0xE0 SHL DUP2 MSTORE PUSH1 0x4 ADD PUSH2 0x163E SWAP4 SWAP3 SWAP2 SWAP1 PUSH2 0x2126 JUMP JUMPDEST PUSH1 0x0 PUSH1 0x40 MLOAD DUP1 DUP4 SUB DUP2 PUSH1 0x0 DUP8 DUP1 EXTCODESIZE ISZERO DUP1 ISZERO PUSH2 0x1658 JUMPI PUSH1 0x0 DUP1 REVERT JUMPDEST POP GAS CALL ISZERO DUP1 ISZERO PUSH2 0x166C JUMPI RETURNDATASIZE PUSH1 0x0 DUP1 RETURNDATACOPY RETURNDATASIZE PUSH1 0x0 REVERT JUMPDEST POP POP POP POP PUSH2 0x167A PUSH1 0x2 PUSH2 0x1D3C JUMP JUMPDEST PUSH1 0x40 MLOAD DUP1 PUSH1 0xE0 ADD PUSH1 0x40 MSTORE DUP1 DUP5 PUSH20 0xFFFFFFFFFFFFFFFFFFFFFFFFFFFFFFFFFFFFFFFF AND DUP2 MSTORE PUSH1 0x20 ADD DUP4 DUP2 MSTORE PUSH1 0x20 ADD DUP3 DUP2 MSTORE PUSH1 0x20 ADD CALLER PUSH20 0xFFFFFFFFFFFFFFFFFFFFFFFFFFFFFFFFFFFFFFFF AND DUP2 MSTORE PUSH1 0x20 ADD ADDRESS PUSH20 0xFFFFFFFFFFFFFFFFFFFFFFFFFFFFFFFFFFFFFFFF AND DUP2 MSTORE PUSH1 0x20 ADD CALLER PUSH20 0xFFFFFFFFFFFFFFFFFFFFFFFFFFFFFFFFFFFFFFFF AND DUP2 MSTORE PUSH1 0x20 ADD PUSH1 0x1 ISZERO ISZERO DUP2 MSTORE POP PUSH1 0x5 PUSH1 0x0 DUP5 DUP2 MSTORE PUSH1 0x20 ADD SWAP1 DUP2 MSTORE PUSH1 0x20 ADD PUSH1 0x0 KECCAK256 PUSH1 0x0 DUP3 ADD MLOAD DUP2 PUSH1 0x0 ADD PUSH1 0x0 PUSH2 0x100 EXP DUP2 SLOAD DUP2 PUSH20 0xFFFFFFFFFFFFFFFFFFFFFFFFFFFFFFFFFFFFFFFF MUL NOT AND SWAP1 DUP4 PUSH20 0xFFFFFFFFFFFFFFFFFFFFFFFFFFFFFFFFFFFFFFFF AND MUL OR SWAP1 SSTORE POP PUSH1 0x20 DUP3 ADD MLOAD DUP2 PUSH1 0x1 ADD SSTORE PUSH1 0x40 DUP3 ADD MLOAD DUP2 PUSH1 0x2 ADD SSTORE PUSH1 0x60 DUP3 ADD MLOAD DUP2 PUSH1 0x3 ADD PUSH1 0x0 PUSH2 0x100 EXP DUP2 SLOAD DUP2 PUSH20 0xFFFFFFFFFFFFFFFFFFFFFFFFFFFFFFFFFFFFFFFF MUL NOT AND SWAP1 DUP4 PUSH20 0xFFFFFFFFFFFFFFFFFFFFFFFFFFFFFFFFFFFFFFFF AND MUL OR SWAP1 SSTORE POP PUSH1 0x80 DUP3 ADD MLOAD DUP2 PUSH1 0x4 ADD PUSH1 0x0 PUSH2 0x100 EXP DUP2 SLOAD DUP2 PUSH20 0xFFFFFFFFFFFFFFFFFFFFFFFFFFFFFFFFFFFFFFFF MUL NOT AND SWAP1 DUP4 PUSH20 0xFFFFFFFFFFFFFFFFFFFFFFFFFFFFFFFFFFFFFFFF AND MUL OR SWAP1 SSTORE POP PUSH1 0xA0 DUP3 ADD MLOAD DUP2 PUSH1 0x5 ADD PUSH1 0x0 PUSH2 0x100 EXP DUP2 SLOAD DUP2 PUSH20 0xFFFFFFFFFFFFFFFFFFFFFFFFFFFFFFFFFFFFFFFF MUL NOT AND SWAP1 DUP4 PUSH20 0xFFFFFFFFFFFFFFFFFFFFFFFFFFFFFFFFFFFFFFFF AND MUL OR SWAP1 SSTORE POP PUSH1 0xC0 DUP3 ADD MLOAD DUP2 PUSH1 0x5 ADD PUSH1 0x14 PUSH2 0x100 EXP DUP2 SLOAD DUP2 PUSH1 0xFF MUL NOT AND SWAP1 DUP4 ISZERO ISZERO MUL OR SWAP1 SSTORE POP SWAP1 POP POP PUSH1 0x4 PUSH1 0x0 SWAP1 SLOAD SWAP1 PUSH2 0x100 EXP SWAP1 DIV PUSH20 0xFFFFFFFFFFFFFFFFFFFFFFFFFFFFFFFFFFFFFFFF AND PUSH20 0xFFFFFFFFFFFFFFFFFFFFFFFFFFFFFFFFFFFFFFFF AND PUSH2 0x8FC CALLVALUE SWAP1 DUP2 ISZERO MUL SWAP1 PUSH1 0x40 MLOAD PUSH1 0x0 PUSH1 0x40 MLOAD DUP1 DUP4 SUB DUP2 DUP6 DUP9 DUP9 CALL SWAP4 POP POP POP POP ISZERO DUP1 ISZERO PUSH2 0x18D6 JUMPI RETURNDATASIZE PUSH1 0x0 DUP1 RETURNDATACOPY RETURNDATASIZE PUSH1 0x0 REVERT JUMPDEST POP ADDRESS PUSH20 0xFFFFFFFFFFFFFFFFFFFFFFFFFFFFFFFFFFFFFFFF AND CALLER PUSH20 0xFFFFFFFFFFFFFFFFFFFFFFFFFFFFFFFFFFFFFFFF AND PUSH32 0xA0C6C0D02D86FDACECBAA5FDF5894BAB204E31A778250474108540733A9B8D19 DUP6 DUP6 DUP6 PUSH1 0x40 MLOAD PUSH2 0x1938 SWAP4 SWAP3 SWAP2 SWAP1 PUSH2 0x215D JUMP JUMPDEST PUSH1 0x40 MLOAD DUP1 SWAP2 SUB SWAP1 LOG3 PUSH1 0x1 PUSH1 0x0 DUP2 SWAP1 SSTORE POP POP POP POP JUMP JUMPDEST PUSH1 0x0 PUSH1 0x3 SLOAD SWAP1 POP SWAP1 JUMP JUMPDEST PUSH1 0x60 PUSH1 0x0 PUSH2 0x1965 PUSH1 0x2 PUSH2 0x1D2E JUMP JUMPDEST SWAP1 POP PUSH1 0x0 DUP1 PUSH1 0x1 SWAP1 POP JUMPDEST DUP3 DUP2 GT PUSH2 0x1A0E JUMPI DUP5 PUSH20 0xFFFFFFFFFFFFFFFFFFFFFFFFFFFFFFFFFFFFFFFF AND PUSH1 0x5 PUSH1 0x0 PUSH1 0x1 DUP5 PUSH2 0x199E SWAP2 SWAP1 PUSH2 0x22BB JUMP JUMPDEST DUP2 MSTORE PUSH1 0x20 ADD SWAP1 DUP2 MSTORE PUSH1 0x20 ADD PUSH1 0x0 KECCAK256 PUSH1 0x0 ADD PUSH1 0x0 SWAP1 SLOAD SWAP1 PUSH2 0x100 EXP SWAP1 DIV PUSH20 0xFFFFFFFFFFFFFFFFFFFFFFFFFFFFFFFFFFFFFFFF AND PUSH20 0xFFFFFFFFFFFFFFFFFFFFFFFFFFFFFFFFFFFFFFFF AND EQ ISZERO PUSH2 0x19FB JUMPI DUP2 DUP1 PUSH2 0x19F7 SWAP1 PUSH2 0x23D5 JUMP JUMPDEST SWAP3 POP POP JUMPDEST DUP1 DUP1 PUSH2 0x1A06 SWAP1 PUSH2 0x23D5 JUMP JUMPDEST SWAP2 POP POP PUSH2 0x196F JUMP JUMPDEST POP PUSH1 0x0 DUP2 PUSH8 0xFFFFFFFFFFFFFFFF DUP2 GT ISZERO PUSH2 0x1A2B JUMPI PUSH2 0x1A2A PUSH2 0x247C JUMP JUMPDEST JUMPDEST PUSH1 0x40 MLOAD SWAP1 DUP1 DUP3 MSTORE DUP1 PUSH1 0x20 MUL PUSH1 0x20 ADD DUP3 ADD PUSH1 0x40 MSTORE DUP1 ISZERO PUSH2 0x1A64 JUMPI DUP2 PUSH1 0x20 ADD JUMPDEST PUSH2 0x1A51 PUSH2 0x1D52 JUMP JUMPDEST DUP2 MSTORE PUSH1 0x20 ADD SWAP1 PUSH1 0x1 SWAP1 SUB SWAP1 DUP2 PUSH2 0x1A49 JUMPI SWAP1 POP JUMPDEST POP SWAP1 POP PUSH1 0x0 DUP1 PUSH1 0x1 SWAP1 POP JUMPDEST DUP5 DUP2 GT PUSH2 0x1CC5 JUMPI DUP7 PUSH20 0xFFFFFFFFFFFFFFFFFFFFFFFFFFFFFFFFFFFFFFFF AND PUSH1 0x5 PUSH1 0x0 DUP4 DUP2 MSTORE PUSH1 0x20 ADD SWAP1 DUP2 MSTORE PUSH1 0x20 ADD PUSH1 0x0 KECCAK256 PUSH1 0x0 ADD PUSH1 0x0 SWAP1 SLOAD SWAP1 PUSH2 0x100 EXP SWAP1 DIV PUSH20 0xFFFFFFFFFFFFFFFFFFFFFFFFFFFFFFFFFFFFFFFF AND PUSH20 0xFFFFFFFFFFFFFFFFFFFFFFFFFFFFFFFFFFFFFFFF AND EQ ISZERO PUSH2 0x1CB2 JUMPI PUSH1 0x5 PUSH1 0x0 DUP3 DUP2 MSTORE PUSH1 0x20 ADD SWAP1 DUP2 MSTORE PUSH1 0x20 ADD PUSH1 0x0 KECCAK256 PUSH1 0x40 MLOAD DUP1 PUSH1 0xE0 ADD PUSH1 0x40 MSTORE SWAP1 DUP2 PUSH1 0x0 DUP3 ADD PUSH1 0x0 SWAP1 SLOAD SWAP1 PUSH2 0x100 EXP SWAP1 DIV PUSH20 0xFFFFFFFFFFFFFFFFFFFFFFFFFFFFFFFFFFFFFFFF AND PUSH20 0xFFFFFFFFFFFFFFFFFFFFFFFFFFFFFFFFFFFFFFFF AND PUSH20 0xFFFFFFFFFFFFFFFFFFFFFFFFFFFFFFFFFFFFFFFF AND DUP2 MSTORE PUSH1 0x20 ADD PUSH1 0x1 DUP3 ADD SLOAD DUP2 MSTORE PUSH1 0x20 ADD PUSH1 0x2 DUP3 ADD SLOAD DUP2 MSTORE PUSH1 0x20 ADD PUSH1 0x3 DUP3 ADD PUSH1 0x0 SWAP1 SLOAD SWAP1 PUSH2 0x100 EXP SWAP1 DIV PUSH20 0xFFFFFFFFFFFFFFFFFFFFFFFFFFFFFFFFFFFFFFFF AND PUSH20 0xFFFFFFFFFFFFFFFFFFFFFFFFFFFFFFFFFFFFFFFF AND PUSH20 0xFFFFFFFFFFFFFFFFFFFFFFFFFFFFFFFFFFFFFFFF AND DUP2 MSTORE PUSH1 0x20 ADD PUSH1 0x4 DUP3 ADD PUSH1 0x0 SWAP1 SLOAD SWAP1 PUSH2 0x100 EXP SWAP1 DIV PUSH20 0xFFFFFFFFFFFFFFFFFFFFFFFFFFFFFFFFFFFFFFFF AND PUSH20 0xFFFFFFFFFFFFFFFFFFFFFFFFFFFFFFFFFFFFFFFF AND PUSH20 0xFFFFFFFFFFFFFFFFFFFFFFFFFFFFFFFFFFFFFFFF AND DUP2 MSTORE PUSH1 0x20 ADD PUSH1 0x5 DUP3 ADD PUSH1 0x0 SWAP1 SLOAD SWAP1 PUSH2 0x100 EXP SWAP1 DIV PUSH20 0xFFFFFFFFFFFFFFFFFFFFFFFFFFFFFFFFFFFFFFFF AND PUSH20 0xFFFFFFFFFFFFFFFFFFFFFFFFFFFFFFFFFFFFFFFF AND PUSH20 0xFFFFFFFFFFFFFFFFFFFFFFFFFFFFFFFFFFFFFFFF AND DUP2 MSTORE PUSH1 0x20 ADD PUSH1 0x5 DUP3 ADD PUSH1 0x14 SWAP1 SLOAD SWAP1 PUSH2 0x100 EXP SWAP1 DIV PUSH1 0xFF AND ISZERO ISZERO ISZERO ISZERO DUP2 MSTORE POP POP DUP4 DUP4 DUP2 MLOAD DUP2 LT PUSH2 0x1C98 JUMPI PUSH2 0x1C97 PUSH2 0x244D JUMP JUMPDEST JUMPDEST PUSH1 0x20 MUL PUSH1 0x20 ADD ADD DUP2 SWAP1 MSTORE POP DUP2 DUP1 PUSH2 0x1CAE SWAP1 PUSH2 0x23D5 JUMP JUMPDEST SWAP3 POP POP JUMPDEST DUP1 DUP1 PUSH2 0x1CBD SWAP1 PUSH2 0x23D5 JUMP JUMPDEST SWAP2 POP POP PUSH2 0x1A6F JUMP JUMPDEST POP DUP2 SWAP5 POP POP POP POP POP SWAP2 SWAP1 POP JUMP JUMPDEST PUSH1 0x0 DUP2 PUSH1 0x0 ADD SLOAD SWAP1 POP PUSH1 0x0 DUP2 GT PUSH2 0x1D1E JUMPI PUSH1 0x40 MLOAD PUSH32 0x8C379A000000000000000000000000000000000000000000000000000000000 DUP2 MSTORE PUSH1 0x4 ADD PUSH2 0x1D15 SWAP1 PUSH2 0x21B6 JUMP JUMPDEST PUSH1 0x40 MLOAD DUP1 SWAP2 SUB SWAP1 REVERT JUMPDEST PUSH1 0x1 DUP2 SUB DUP3 PUSH1 0x0 ADD DUP2 SWAP1 SSTORE POP POP POP JUMP JUMPDEST PUSH1 0x0 DUP2 PUSH1 0x0 ADD SLOAD SWAP1 POP SWAP2 SWAP1 POP JUMP JUMPDEST PUSH1 0x1 DUP2 PUSH1 0x0 ADD PUSH1 0x0 DUP3 DUP3 SLOAD ADD SWAP3 POP POP DUP2 SWAP1 SSTORE POP POP JUMP JUMPDEST PUSH1 0x40 MLOAD DUP1 PUSH1 0xE0 ADD PUSH1 0x40 MSTORE DUP1 PUSH1 0x0 PUSH20 0xFFFFFFFFFFFFFFFFFFFFFFFFFFFFFFFFFFFFFFFF AND DUP2 MSTORE PUSH1 0x20 ADD PUSH1 0x0 DUP2 MSTORE PUSH1 0x20 ADD PUSH1 0x0 DUP2 MSTORE PUSH1 0x20 ADD PUSH1 0x0 PUSH20 0xFFFFFFFFFFFFFFFFFFFFFFFFFFFFFFFFFFFFFFFF AND DUP2 MSTORE PUSH1 0x20 ADD PUSH1 0x0 PUSH20 0xFFFFFFFFFFFFFFFFFFFFFFFFFFFFFFFFFFFFFFFF AND DUP2 MSTORE PUSH1 0x20 ADD PUSH1 0x0 PUSH20 0xFFFFFFFFFFFFFFFFFFFFFFFFFFFFFFFFFFFFFFFF AND DUP2 MSTORE PUSH1 0x20 ADD PUSH1 0x0 ISZERO ISZERO DUP2 MSTORE POP SWAP1 JUMP JUMPDEST PUSH1 0x0 DUP2 CALLDATALOAD SWAP1 POP PUSH2 0x1DF8 DUP2 PUSH2 0x25A3 JUMP JUMPDEST SWAP3 SWAP2 POP POP JUMP JUMPDEST PUSH1 0x0 DUP2 CALLDATALOAD SWAP1 POP PUSH2 0x1E0D DUP2 PUSH2 0x25BA JUMP JUMPDEST SWAP3 SWAP2 POP POP JUMP JUMPDEST PUSH1 0x0 PUSH1 0x20 DUP3 DUP5 SUB SLT ISZERO PUSH2 0x1E29 JUMPI PUSH2 0x1E28 PUSH2 0x24AB JUMP JUMPDEST JUMPDEST PUSH1 0x0 PUSH2 0x1E37 DUP5 DUP3 DUP6 ADD PUSH2 0x1DE9 JUMP JUMPDEST SWAP2 POP POP SWAP3 SWAP2 POP POP JUMP JUMPDEST PUSH1 0x0 DUP1 PUSH1 0x40 DUP4 DUP6 SUB SLT ISZERO PUSH2 0x1E57 JUMPI PUSH2 0x1E56 PUSH2 0x24AB JUMP JUMPDEST JUMPDEST PUSH1 0x0 PUSH2 0x1E65 DUP6 DUP3 DUP7 ADD PUSH2 0x1DE9 JUMP JUMPDEST SWAP3 POP POP PUSH1 0x20 PUSH2 0x1E76 DUP6 DUP3 DUP7 ADD PUSH2 0x1DFE JUMP JUMPDEST SWAP2 POP POP SWAP3 POP SWAP3 SWAP1 POP JUMP JUMPDEST PUSH1 0x0 DUP1 PUSH1 0x0 PUSH1 0x60 DUP5 DUP7 SUB SLT ISZERO PUSH2 0x1E99 JUMPI PUSH2 0x1E98 PUSH2 0x24AB JUMP JUMPDEST JUMPDEST PUSH1 0x0 PUSH2 0x1EA7 DUP7 DUP3 DUP8 ADD PUSH2 0x1DE9 JUMP JUMPDEST SWAP4 POP POP PUSH1 0x20 PUSH2 0x1EB8 DUP7 DUP3 DUP8 ADD PUSH2 0x1DFE JUMP JUMPDEST SWAP3 POP POP PUSH1 0x40 PUSH2 0x1EC9 DUP7 DUP3 DUP8 ADD PUSH2 0x1DFE JUMP JUMPDEST SWAP2 POP POP SWAP3 POP SWAP3 POP SWAP3 JUMP JUMPDEST PUSH1 0x0 PUSH2 0x1EDF DUP4 DUP4 PUSH2 0x2043 JUMP JUMPDEST PUSH1 0xE0 DUP4 ADD SWAP1 POP SWAP3 SWAP2 POP POP JUMP JUMPDEST PUSH2 0x1EF4 DUP2 PUSH2 0x239F JUMP JUMPDEST DUP3 MSTORE POP POP JUMP JUMPDEST PUSH2 0x1F03 DUP2 PUSH2 0x2357 JUMP JUMPDEST DUP3 MSTORE POP POP JUMP JUMPDEST PUSH2 0x1F12 DUP2 PUSH2 0x2345 JUMP JUMPDEST DUP3 MSTORE POP POP JUMP JUMPDEST PUSH2 0x1F21 DUP2 PUSH2 0x2345 JUMP JUMPDEST DUP3 MSTORE POP POP JUMP JUMPDEST PUSH1 0x0 PUSH2 0x1F32 DUP3 PUSH2 0x2281 JUMP JUMPDEST PUSH2 0x1F3C DUP2 DUP6 PUSH2 0x2299 JUMP JUMPDEST SWAP4 POP PUSH2 0x1F47 DUP4 PUSH2 0x2271 JUMP JUMPDEST DUP1 PUSH1 0x0 JUMPDEST DUP4 DUP2 LT ISZERO PUSH2 0x1F78 JUMPI DUP2 MLOAD PUSH2 0x1F5F DUP9 DUP3 PUSH2 0x1ED3 JUMP JUMPDEST SWAP8 POP PUSH2 0x1F6A DUP4 PUSH2 0x228C JUMP JUMPDEST SWAP3 POP POP PUSH1 0x1 DUP2 ADD SWAP1 POP PUSH2 0x1F4B JUMP JUMPDEST POP DUP6 SWAP4 POP POP POP POP SWAP3 SWAP2 POP POP JUMP JUMPDEST PUSH2 0x1F8E DUP2 PUSH2 0x2369 JUMP JUMPDEST DUP3 MSTORE POP POP JUMP JUMPDEST PUSH1 0x0 PUSH2 0x1FA1 PUSH1 0x1B DUP4 PUSH2 0x22AA JUMP JUMPDEST SWAP2 POP PUSH2 0x1FAC DUP3 PUSH2 0x24B0 JUMP JUMPDEST PUSH1 0x20 DUP3 ADD SWAP1 POP SWAP2 SWAP1 POP JUMP JUMPDEST PUSH1 0x0 PUSH2 0x1FC4 PUSH1 0x26 DUP4 PUSH2 0x22AA JUMP JUMPDEST SWAP2 POP PUSH2 0x1FCF DUP3 PUSH2 0x24D9 JUMP JUMPDEST PUSH1 0x40 DUP3 ADD SWAP1 POP SWAP2 SWAP1 POP JUMP JUMPDEST PUSH1 0x0 PUSH2 0x1FE7 PUSH1 0x20 DUP4 PUSH2 0x22AA JUMP JUMPDEST SWAP2 POP PUSH2 0x1FF2 DUP3 PUSH2 0x2528 JUMP JUMPDEST PUSH1 0x20 DUP3 ADD SWAP1 POP SWAP2 SWAP1 POP JUMP JUMPDEST PUSH1 0x0 PUSH2 0x200A PUSH1 0x1F DUP4 PUSH2 0x22AA JUMP JUMPDEST SWAP2 POP PUSH2 0x2015 DUP3 PUSH2 0x2551 JUMP JUMPDEST PUSH1 0x20 DUP3 ADD SWAP1 POP SWAP2 SWAP1 POP JUMP JUMPDEST PUSH1 0x0 PUSH2 0x202D PUSH1 0x1C DUP4 PUSH2 0x22AA JUMP JUMPDEST SWAP2 POP PUSH2 0x2038 DUP3 PUSH2 0x257A JUMP JUMPDEST PUSH1 0x20 DUP3 ADD SWAP1 POP SWAP2 SWAP1 POP JUMP JUMPDEST PUSH1 0xE0 DUP3 ADD PUSH1 0x0 DUP3 ADD MLOAD PUSH2 0x2059 PUSH1 0x0 DUP6 ADD DUP3 PUSH2 0x1F09 JUMP JUMPDEST POP PUSH1 0x20 DUP3 ADD MLOAD PUSH2 0x206C PUSH1 0x20 DUP6 ADD DUP3 PUSH2 0x20D1 JUMP JUMPDEST POP PUSH1 0x40 DUP3 ADD MLOAD PUSH2 0x207F PUSH1 0x40 DUP6 ADD DUP3 PUSH2 0x20D1 JUMP JUMPDEST POP PUSH1 0x60 DUP3 ADD MLOAD PUSH2 0x2092 PUSH1 0x60 DUP6 ADD DUP3 PUSH2 0x1EFA JUMP JUMPDEST POP PUSH1 0x80 DUP3 ADD MLOAD PUSH2 0x20A5 PUSH1 0x80 DUP6 ADD DUP3 PUSH2 0x1EFA JUMP JUMPDEST POP PUSH1 0xA0 DUP3 ADD MLOAD PUSH2 0x20B8 PUSH1 0xA0 DUP6 ADD DUP3 PUSH2 0x1EFA JUMP JUMPDEST POP PUSH1 0xC0 DUP3 ADD MLOAD PUSH2 0x20CB PUSH1 0xC0 DUP6 ADD DUP3 PUSH2 0x1F85 JUMP JUMPDEST POP POP POP POP JUMP JUMPDEST PUSH2 0x20DA DUP2 PUSH2 0x2395 JUMP JUMPDEST DUP3 MSTORE POP POP JUMP JUMPDEST PUSH2 0x20E9 DUP2 PUSH2 0x2395 JUMP JUMPDEST DUP3 MSTORE POP POP JUMP JUMPDEST PUSH1 0x0 PUSH1 0x60 DUP3 ADD SWAP1 POP PUSH2 0x2104 PUSH1 0x0 DUP4 ADD DUP7 PUSH2 0x1F18 JUMP JUMPDEST PUSH2 0x2111 PUSH1 0x20 DUP4 ADD DUP6 PUSH2 0x1EEB JUMP JUMPDEST PUSH2 0x211E PUSH1 0x40 DUP4 ADD DUP5 PUSH2 0x20E0 JUMP JUMPDEST SWAP5 SWAP4 POP POP POP POP JUMP JUMPDEST PUSH1 0x0 PUSH1 0x60 DUP3 ADD SWAP1 POP PUSH2 0x213B PUSH1 0x0 DUP4 ADD DUP7 PUSH2 0x1F18 JUMP JUMPDEST PUSH2 0x2148 PUSH1 0x20 DUP4 ADD DUP6 PUSH2 0x1F18 JUMP JUMPDEST PUSH2 0x2155 PUSH1 0x40 DUP4 ADD DUP5 PUSH2 0x20E0 JUMP JUMPDEST SWAP5 SWAP4 POP POP POP POP JUMP JUMPDEST PUSH1 0x0 PUSH1 0x60 DUP3 ADD SWAP1 POP PUSH2 0x2172 PUSH1 0x0 DUP4 ADD DUP7 PUSH2 0x1F18 JUMP JUMPDEST PUSH2 0x217F PUSH1 0x20 DUP4 ADD DUP6 PUSH2 0x20E0 JUMP JUMPDEST PUSH2 0x218C PUSH1 0x40 DUP4 ADD DUP5 PUSH2 0x20E0 JUMP JUMPDEST SWAP5 SWAP4 POP POP POP POP JUMP JUMPDEST PUSH1 0x0 PUSH1 0x20 DUP3 ADD SWAP1 POP DUP2 DUP2 SUB PUSH1 0x0 DUP4 ADD MSTORE PUSH2 0x21AE DUP2 DUP5 PUSH2 0x1F27 JUMP JUMPDEST SWAP1 POP SWAP3 SWAP2 POP POP JUMP JUMPDEST PUSH1 0x0 PUSH1 0x20 DUP3 ADD SWAP1 POP DUP2 DUP2 SUB PUSH1 0x0 DUP4 ADD MSTORE PUSH2 0x21CF DUP2 PUSH2 0x1F94 JUMP JUMPDEST SWAP1 POP SWAP2 SWAP1 POP JUMP JUMPDEST PUSH1 0x0 PUSH1 0x20 DUP3 ADD SWAP1 POP DUP2 DUP2 SUB PUSH1 0x0 DUP4 ADD MSTORE PUSH2 0x21EF DUP2 PUSH2 0x1FB7 JUMP JUMPDEST SWAP1 POP SWAP2 SWAP1 POP JUMP JUMPDEST PUSH1 0x0 PUSH1 0x20 DUP3 ADD SWAP1 POP DUP2 DUP2 SUB PUSH1 0x0 DUP4 ADD MSTORE PUSH2 0x220F DUP2 PUSH2 0x1FDA JUMP JUMPDEST SWAP1 POP SWAP2 SWAP1 POP JUMP JUMPDEST PUSH1 0x0 PUSH1 0x20 DUP3 ADD SWAP1 POP DUP2 DUP2 SUB PUSH1 0x0 DUP4 ADD MSTORE PUSH2 0x222F DUP2 PUSH2 0x1FFD JUMP JUMPDEST SWAP1 POP SWAP2 SWAP1 POP JUMP JUMPDEST PUSH1 0x0 PUSH1 0x20 DUP3 ADD SWAP1 POP DUP2 DUP2 SUB PUSH1 0x0 DUP4 ADD MSTORE PUSH2 0x224F DUP2 PUSH2 0x2020 JUMP JUMPDEST SWAP1 POP SWAP2 SWAP1 POP JUMP JUMPDEST PUSH1 0x0 PUSH1 0x20 DUP3 ADD SWAP1 POP PUSH2 0x226B PUSH1 0x0 DUP4 ADD DUP5 PUSH2 0x20E0 JUMP JUMPDEST SWAP3 SWAP2 POP POP JUMP JUMPDEST PUSH1 0x0 DUP2 SWAP1 POP PUSH1 0x20 DUP3 ADD SWAP1 POP SWAP2 SWAP1 POP JUMP JUMPDEST PUSH1 0x0 DUP2 MLOAD SWAP1 POP SWAP2 SWAP1 POP JUMP JUMPDEST PUSH1 0x0 PUSH1 0x20 DUP3 ADD SWAP1 POP SWAP2 SWAP1 POP JUMP JUMPDEST PUSH1 0x0 DUP3 DUP3 MSTORE PUSH1 0x20 DUP3 ADD SWAP1 POP SWAP3 SWAP2 POP POP JUMP JUMPDEST PUSH1 0x0 DUP3 DUP3 MSTORE PUSH1 0x20 DUP3 ADD SWAP1 POP SWAP3 SWAP2 POP POP JUMP JUMPDEST PUSH1 0x0 PUSH2 0x22C6 DUP3 PUSH2 0x2395 JUMP JUMPDEST SWAP2 POP PUSH2 0x22D1 DUP4 PUSH2 0x2395 JUMP JUMPDEST SWAP3 POP DUP3 PUSH32 0xFFFFFFFFFFFFFFFFFFFFFFFFFFFFFFFFFFFFFFFFFFFFFFFFFFFFFFFFFFFFFFFF SUB DUP3 GT ISZERO PUSH2 0x2306 JUMPI PUSH2 0x2305 PUSH2 0x241E JUMP JUMPDEST JUMPDEST DUP3 DUP3 ADD SWAP1 POP SWAP3 SWAP2 POP POP JUMP JUMPDEST PUSH1 0x0 PUSH2 0x231C DUP3 PUSH2 0x2395 JUMP JUMPDEST SWAP2 POP PUSH2 0x2327 DUP4 PUSH2 0x2395 JUMP JUMPDEST SWAP3 POP DUP3 DUP3 LT ISZERO PUSH2 0x233A JUMPI PUSH2 0x2339 PUSH2 0x241E JUMP JUMPDEST JUMPDEST DUP3 DUP3 SUB SWAP1 POP SWAP3 SWAP2 POP POP JUMP JUMPDEST PUSH1 0x0 PUSH2 0x2350 DUP3 PUSH2 0x2375 JUMP JUMPDEST SWAP1 POP SWAP2 SWAP1 POP JUMP JUMPDEST PUSH1 0x0 PUSH2 0x2362 DUP3 PUSH2 0x2375 JUMP JUMPDEST SWAP1 POP SWAP2 SWAP1 POP JUMP JUMPDEST PUSH1 0x0 DUP2 ISZERO ISZERO SWAP1 POP SWAP2 SWAP1 POP JUMP JUMPDEST PUSH1 0x0 PUSH20 0xFFFFFFFFFFFFFFFFFFFFFFFFFFFFFFFFFFFFFFFF DUP3 AND SWAP1 POP SWAP2 SWAP1 POP JUMP JUMPDEST PUSH1 0x0 DUP2 SWAP1 POP SWAP2 SWAP1 POP JUMP JUMPDEST PUSH1 0x0 PUSH2 0x23AA DUP3 PUSH2 0x23B1 JUMP JUMPDEST SWAP1 POP SWAP2 SWAP1 POP JUMP JUMPDEST PUSH1 0x0 PUSH2 0x23BC DUP3 PUSH2 0x23C3 JUMP JUMPDEST SWAP1 POP SWAP2 SWAP1 POP JUMP JUMPDEST PUSH1 0x0 PUSH2 0x23CE DUP3 PUSH2 0x2375 JUMP JUMPDEST SWAP1 POP SWAP2 SWAP1 POP JUMP JUMPDEST PUSH1 0x0 PUSH2 0x23E0 DUP3 PUSH2 0x2395 JUMP JUMPDEST SWAP2 POP PUSH32 0xFFFFFFFFFFFFFFFFFFFFFFFFFFFFFFFFFFFFFFFFFFFFFFFFFFFFFFFFFFFFFFFF DUP3 EQ ISZERO PUSH2 0x2413 JUMPI PUSH2 0x2412 PUSH2 0x241E JUMP JUMPDEST JUMPDEST PUSH1 0x1 DUP3 ADD SWAP1 POP SWAP2 SWAP1 POP JUMP JUMPDEST PUSH32 0x4E487B7100000000000000000000000000000000000000000000000000000000 PUSH1 0x0 MSTORE PUSH1 0x11 PUSH1 0x4 MSTORE PUSH1 0x24 PUSH1 0x0 REVERT JUMPDEST PUSH32 0x4E487B7100000000000000000000000000000000000000000000000000000000 PUSH1 0x0 MSTORE PUSH1 0x32 PUSH1 0x4 MSTORE PUSH1 0x24 PUSH1 0x0 REVERT JUMPDEST PUSH32 0x4E487B7100000000000000000000000000000000000000000000000000000000 PUSH1 0x0 MSTORE PUSH1 0x41 PUSH1 0x4 MSTORE PUSH1 0x24 PUSH1 0x0 REVERT JUMPDEST PUSH1 0x0 DUP1 REVERT JUMPDEST PUSH32 0x436F756E7465723A2064656372656D656E74206F766572666C6F770000000000 PUSH1 0x0 DUP3 ADD MSTORE POP JUMP JUMPDEST PUSH32 0x4E6F7420656E6F75676820657468657220746F20636F7665722061736B696E67 PUSH1 0x0 DUP3 ADD MSTORE PUSH32 0x2070726963650000000000000000000000000000000000000000000000000000 PUSH1 0x20 DUP3 ADD MSTORE POP JUMP JUMPDEST PUSH32 0x4E6F7420656E6F75676820657468657220666F72206C697374696E6720666565 PUSH1 0x0 DUP3 ADD MSTORE POP JUMP JUMPDEST PUSH32 0x5265656E7472616E637947756172643A207265656E7472616E742063616C6C00 PUSH1 0x0 DUP3 ADD MSTORE POP JUMP JUMPDEST PUSH32 0x5072696365206D757374206265206174206C6561737420312077656900000000 PUSH1 0x0 DUP3 ADD MSTORE POP JUMP JUMPDEST PUSH2 0x25AC DUP2 PUSH2 0x2345 JUMP JUMPDEST DUP2 EQ PUSH2 0x25B7 JUMPI PUSH1 0x0 DUP1 REVERT JUMPDEST POP JUMP JUMPDEST PUSH2 0x25C3 DUP2 PUSH2 0x2395 JUMP JUMPDEST DUP2 EQ PUSH2 0x25CE JUMPI PUSH1 0x0 DUP1 REVERT JUMPDEST POP JUMP INVALID LOG2 PUSH5 0x6970667358 0x22 SLT KECCAK256 PUSH30 0xD0D130935B73CAC46C065410DA1B63552325B2ED70C6BA5483902AB8EF69 SSTORE PUSH5 0x736F6C6343 STOP ADDMOD SMOD STOP CALLER "
				},
				"gasEstimates": {
					"creation": {
						"codeDepositCost": "1947000",
						"executionCost": "70548",
						"totalCost": "2017548"
					},
					"external": {
						"LISTING_FEE()": "2474",
						"buyNft(address,uint256)": "infinite",
						"getCollectionNfts(address)": "infinite",
						"getListedNfts()": "infinite",
						"getListingFee()": "2503",
						"getMyCreatedNfts()": "infinite",
						"getMyListedNfts()": "infinite",
						"getMyOwnedNfts()": "infinite",
						"listNFT(address,uint256,uint256)": "infinite",
						"resellNFT(address,uint256,uint256)": "infinite"
					}
				},
				"methodIdentifiers": {
					"LISTING_FEE()": "2b86ae38",
					"buyNft(address,uint256)": "4ddf4f8f",
					"getCollectionNfts(address)": "ccef4339",
					"getListedNfts()": "8d6cb3fb",
					"getListingFee()": "b8fe6abe",
					"getMyCreatedNfts()": "8492095a",
					"getMyListedNfts()": "1f4cc4db",
					"getMyOwnedNfts()": "a46b5c5a",
					"listNFT(address,uint256,uint256)": "ad05f1b4",
					"resellNFT(address,uint256,uint256)": "04935694"
				}
			},
			"storageLayout": {
				"storage": [
					{
						"astId": 926,
						"contract": "contracts/GeekNftMarketPlace.sol:GeekNftMarketPlace",
						"label": "_status",
						"offset": 0,
						"slot": "0",
						"type": "t_uint256"
					},
					{
						"astId": 96,
						"contract": "contracts/GeekNftMarketPlace.sol:GeekNftMarketPlace",
						"label": "_nftsSold",
						"offset": 0,
						"slot": "1",
						"type": "t_struct(Counter)5_storage"
					},
					{
						"astId": 99,
						"contract": "contracts/GeekNftMarketPlace.sol:GeekNftMarketPlace",
						"label": "_nftsCount",
						"offset": 0,
						"slot": "2",
						"type": "t_struct(Counter)5_storage"
					},
					{
						"astId": 102,
						"contract": "contracts/GeekNftMarketPlace.sol:GeekNftMarketPlace",
						"label": "LISTING_FEE",
						"offset": 0,
						"slot": "3",
						"type": "t_uint256"
					},
					{
						"astId": 104,
						"contract": "contracts/GeekNftMarketPlace.sol:GeekNftMarketPlace",
						"label": "_marketOwwner",
						"offset": 0,
						"slot": "4",
						"type": "t_address_payable"
					},
					{
						"astId": 109,
						"contract": "contracts/GeekNftMarketPlace.sol:GeekNftMarketPlace",
						"label": "_idToNft",
						"offset": 0,
						"slot": "5",
						"type": "t_mapping(t_uint256,t_struct(NFT)124_storage)"
					}
				],
				"types": {
					"t_address": {
						"encoding": "inplace",
						"label": "address",
						"numberOfBytes": "20"
					},
					"t_address_payable": {
						"encoding": "inplace",
						"label": "address payable",
						"numberOfBytes": "20"
					},
					"t_bool": {
						"encoding": "inplace",
						"label": "bool",
						"numberOfBytes": "1"
					},
					"t_mapping(t_uint256,t_struct(NFT)124_storage)": {
						"encoding": "mapping",
						"key": "t_uint256",
						"label": "mapping(uint256 => struct GeekNftMarketPlace.NFT)",
						"numberOfBytes": "32",
						"value": "t_struct(NFT)124_storage"
					},
					"t_struct(Counter)5_storage": {
						"encoding": "inplace",
						"label": "struct Counters.Counter",
						"members": [
							{
								"astId": 4,
								"contract": "contracts/GeekNftMarketPlace.sol:GeekNftMarketPlace",
								"label": "_value",
								"offset": 0,
								"slot": "0",
								"type": "t_uint256"
							}
						],
						"numberOfBytes": "32"
					},
					"t_struct(NFT)124_storage": {
						"encoding": "inplace",
						"label": "struct GeekNftMarketPlace.NFT",
						"members": [
							{
								"astId": 111,
								"contract": "contracts/GeekNftMarketPlace.sol:GeekNftMarketPlace",
								"label": "nftContract",
								"offset": 0,
								"slot": "0",
								"type": "t_address"
							},
							{
								"astId": 113,
								"contract": "contracts/GeekNftMarketPlace.sol:GeekNftMarketPlace",
								"label": "tokenId",
								"offset": 0,
								"slot": "1",
								"type": "t_uint256"
							},
							{
								"astId": 115,
								"contract": "contracts/GeekNftMarketPlace.sol:GeekNftMarketPlace",
								"label": "price",
								"offset": 0,
								"slot": "2",
								"type": "t_uint256"
							},
							{
								"astId": 117,
								"contract": "contracts/GeekNftMarketPlace.sol:GeekNftMarketPlace",
								"label": "seller",
								"offset": 0,
								"slot": "3",
								"type": "t_address_payable"
							},
							{
								"astId": 119,
								"contract": "contracts/GeekNftMarketPlace.sol:GeekNftMarketPlace",
								"label": "owner",
								"offset": 0,
								"slot": "4",
								"type": "t_address_payable"
							},
							{
								"astId": 121,
								"contract": "contracts/GeekNftMarketPlace.sol:GeekNftMarketPlace",
								"label": "creator",
								"offset": 0,
								"slot": "5",
								"type": "t_address_payable"
							},
							{
								"astId": 123,
								"contract": "contracts/GeekNftMarketPlace.sol:GeekNftMarketPlace",
								"label": "listed",
								"offset": 20,
								"slot": "5",
								"type": "t_bool"
							}
						],
						"numberOfBytes": "192"
					},
					"t_uint256": {
						"encoding": "inplace",
						"label": "uint256",
						"numberOfBytes": "32"
					}
				}
			},
			"userdoc": {
				"kind": "user",
				"methods": {},
				"version": 1
			}
		}
	}
}