{
	"contracts/GeekNftMarketPlace.sol": {
		"GeekNftMarketPlace": {
			"abi": [
				{
					"inputs": [],
					"stateMutability": "nonpayable",
					"type": "constructor"
				},
				{
					"anonymous": false,
					"inputs": [
						{
							"indexed": false,
							"internalType": "address",
							"name": "nftContract",
							"type": "address"
						},
						{
							"indexed": false,
							"internalType": "uint256",
							"name": "tokenId",
							"type": "uint256"
						},
						{
							"indexed": true,
							"internalType": "address",
							"name": "seller",
							"type": "address"
						},
						{
							"indexed": true,
							"internalType": "address",
							"name": "owner",
							"type": "address"
						},
						{
							"indexed": false,
							"internalType": "uint256",
							"name": "price",
							"type": "uint256"
						}
					],
					"name": "NFTListed",
					"type": "event"
				},
				{
					"anonymous": false,
					"inputs": [
						{
							"indexed": false,
							"internalType": "address",
							"name": "nftContract",
							"type": "address"
						},
						{
							"indexed": false,
							"internalType": "uint256",
							"name": "tokenId",
							"type": "uint256"
						},
						{
							"indexed": true,
							"internalType": "address",
							"name": "seller",
							"type": "address"
						},
						{
							"indexed": true,
							"internalType": "address",
							"name": "owner",
							"type": "address"
						},
						{
							"indexed": false,
							"internalType": "uint256",
							"name": "price",
							"type": "uint256"
						}
					],
					"name": "NFTSold",
					"type": "event"
				},
				{
					"inputs": [],
					"name": "LISTING_FEE",
					"outputs": [
						{
							"internalType": "uint256",
							"name": "",
							"type": "uint256"
						}
					],
					"stateMutability": "view",
					"type": "function"
				},
				{
					"inputs": [
						{
							"internalType": "address",
							"name": "_nftContract",
							"type": "address"
						},
						{
							"internalType": "uint256",
							"name": "_tokenId",
							"type": "uint256"
						}
					],
					"name": "buyNft",
					"outputs": [],
					"stateMutability": "payable",
					"type": "function"
				},
				{
					"inputs": [
						{
							"internalType": "address",
							"name": "_nftContract",
							"type": "address"
						},
						{
							"internalType": "uint256",
							"name": "_tokenId",
							"type": "uint256"
						},
						{
							"internalType": "uint256",
							"name": "_price",
							"type": "uint256"
						}
					],
					"name": "listNFT",
					"outputs": [],
					"stateMutability": "payable",
					"type": "function"
				}
			],
			"devdoc": {
				"kind": "dev",
				"methods": {},
				"version": 1
			},
			"evm": {
				"assembly": "    /* \"contracts/GeekNftMarketPlace.sol\":252:1953  contract GeekNftMarketPlace is ReentrancyGuard {... */\n  mstore(0x40, 0x80)\n    /* \"contracts/GeekNftMarketPlace.sol\":455:466  0.002 ether */\n  0x071afd498d0000\n    /* \"contracts/GeekNftMarketPlace.sol\":429:466  uint public LISTING_FEE = 0.002 ether */\n  0x03\n  sstore\n    /* \"contracts/GeekNftMarketPlace.sol\":1001:1067  constructor() {... */\n  callvalue\n  dup1\n  iszero\n  tag_1\n  jumpi\n  0x00\n  dup1\n  revert\ntag_1:\n  pop\n    /* \"contracts/RenntrancyGuard.sol\":127:128  1 */\n  0x01\n    /* \"contracts/RenntrancyGuard.sol\":232:239  _status */\n  0x00\n    /* \"contracts/RenntrancyGuard.sol\":232:254  _status = _NOT_ENTERED */\n  dup2\n  swap1\n  sstore\n  pop\n    /* \"contracts/GeekNftMarketPlace.sol\":1049:1059  msg.sender */\n  caller\n    /* \"contracts/GeekNftMarketPlace.sol\":1025:1038  _marketOwwner */\n  0x04\n  0x00\n    /* \"contracts/GeekNftMarketPlace.sol\":1025:1060  _marketOwwner = payable(msg.sender) */\n  0x0100\n  exp\n  dup2\n  sload\n  dup2\n  0xffffffffffffffffffffffffffffffffffffffff\n  mul\n  not\n  and\n  swap1\n  dup4\n  0xffffffffffffffffffffffffffffffffffffffff\n  and\n  mul\n  or\n  swap1\n  sstore\n  pop\n    /* \"contracts/GeekNftMarketPlace.sol\":252:1953  contract GeekNftMarketPlace is ReentrancyGuard {... */\n  dataSize(sub_0)\n  dup1\n  dataOffset(sub_0)\n  0x00\n  codecopy\n  0x00\n  return\nstop\n\nsub_0: assembly {\n        /* \"contracts/GeekNftMarketPlace.sol\":252:1953  contract GeekNftMarketPlace is ReentrancyGuard {... */\n      mstore(0x40, 0x80)\n      jumpi(tag_1, lt(calldatasize, 0x04))\n      shr(0xe0, calldataload(0x00))\n      dup1\n      0x2b86ae38\n      eq\n      tag_2\n      jumpi\n      dup1\n      0x4ddf4f8f\n      eq\n      tag_3\n      jumpi\n      dup1\n      0xad05f1b4\n      eq\n      tag_4\n      jumpi\n    tag_1:\n      0x00\n      dup1\n      revert\n        /* \"contracts/GeekNftMarketPlace.sol\":429:466  uint public LISTING_FEE = 0.002 ether */\n    tag_2:\n      callvalue\n      dup1\n      iszero\n      tag_5\n      jumpi\n      0x00\n      dup1\n      revert\n    tag_5:\n      pop\n      tag_6\n      tag_7\n      jump\t// in\n    tag_6:\n      mload(0x40)\n      tag_8\n      swap2\n      swap1\n      tag_9\n      jump\t// in\n    tag_8:\n      mload(0x40)\n      dup1\n      swap2\n      sub\n      swap1\n      return\n        /* \"contracts/GeekNftMarketPlace.sol\":1817:1951  function buyNft(address _nftContract, uint _tokenId) public payable nonReentrant{... */\n    tag_3:\n      tag_10\n      0x04\n      dup1\n      calldatasize\n      sub\n      dup2\n      add\n      swap1\n      tag_11\n      swap2\n      swap1\n      tag_12\n      jump\t// in\n    tag_11:\n      tag_13\n      jump\t// in\n    tag_10:\n      stop\n        /* \"contracts/GeekNftMarketPlace.sol\":1112:1793  function listNFT(address _nftContract, uint _tokenId, uint _price) public payable nonReentrant{... */\n    tag_4:\n      tag_14\n      0x04\n      dup1\n      calldatasize\n      sub\n      dup2\n      add\n      swap1\n      tag_15\n      swap2\n      swap1\n      tag_16\n      jump\t// in\n    tag_15:\n      tag_17\n      jump\t// in\n    tag_14:\n      stop\n        /* \"contracts/GeekNftMarketPlace.sol\":429:466  uint public LISTING_FEE = 0.002 ether */\n    tag_7:\n      sload(0x03)\n      dup2\n      jump\t// out\n        /* \"contracts/GeekNftMarketPlace.sol\":1817:1951  function buyNft(address _nftContract, uint _tokenId) public payable nonReentrant{... */\n    tag_13:\n        /* \"contracts/RenntrancyGuard.sol\":170:171  2 */\n      0x02\n        /* \"contracts/RenntrancyGuard.sol\":309:316  _status */\n      sload(0x00)\n        /* \"contracts/RenntrancyGuard.sol\":309:328  _status != _ENTERED */\n      eq\n      iszero\n        /* \"contracts/RenntrancyGuard.sol\":301:364  require(_status != _ENTERED, \"ReentrancyGuard: reentrant call\") */\n      tag_19\n      jumpi\n      mload(0x40)\n      0x08c379a000000000000000000000000000000000000000000000000000000000\n      dup2\n      mstore\n      0x04\n      add\n      tag_20\n      swap1\n      tag_21\n      jump\t// in\n    tag_20:\n      mload(0x40)\n      dup1\n      swap2\n      sub\n      swap1\n      revert\n    tag_19:\n        /* \"contracts/RenntrancyGuard.sol\":170:171  2 */\n      0x02\n        /* \"contracts/RenntrancyGuard.sol\":374:381  _status */\n      0x00\n        /* \"contracts/RenntrancyGuard.sol\":374:392  _status = _ENTERED */\n      dup2\n      swap1\n      sstore\n      pop\n        /* \"contracts/GeekNftMarketPlace.sol\":1907:1922  NFT storage nft */\n      0x00\n        /* \"contracts/GeekNftMarketPlace.sol\":1925:1933  _idToNft */\n      0x05\n        /* \"contracts/GeekNftMarketPlace.sol\":1925:1943  _idToNft[_tokenId] */\n      0x00\n        /* \"contracts/GeekNftMarketPlace.sol\":1934:1942  _tokenId */\n      dup4\n        /* \"contracts/GeekNftMarketPlace.sol\":1925:1943  _idToNft[_tokenId] */\n      dup2\n      mstore\n      0x20\n      add\n      swap1\n      dup2\n      mstore\n      0x20\n      add\n      0x00\n      keccak256\n        /* \"contracts/GeekNftMarketPlace.sol\":1907:1943  NFT storage nft = _idToNft[_tokenId] */\n      swap1\n      pop\n        /* \"contracts/RenntrancyGuard.sol\":402:403  _ */\n      pop\n        /* \"contracts/RenntrancyGuard.sol\":127:128  1 */\n      0x01\n        /* \"contracts/RenntrancyGuard.sol\":413:420  _status */\n      0x00\n        /* \"contracts/RenntrancyGuard.sol\":413:435  _status = _NOT_ENTERED */\n      dup2\n      swap1\n      sstore\n      pop\n        /* \"contracts/GeekNftMarketPlace.sol\":1817:1951  function buyNft(address _nftContract, uint _tokenId) public payable nonReentrant{... */\n      pop\n      pop\n      jump\t// out\n        /* \"contracts/GeekNftMarketPlace.sol\":1112:1793  function listNFT(address _nftContract, uint _tokenId, uint _price) public payable nonReentrant{... */\n    tag_17:\n        /* \"contracts/RenntrancyGuard.sol\":170:171  2 */\n      0x02\n        /* \"contracts/RenntrancyGuard.sol\":309:316  _status */\n      sload(0x00)\n        /* \"contracts/RenntrancyGuard.sol\":309:328  _status != _ENTERED */\n      eq\n      iszero\n        /* \"contracts/RenntrancyGuard.sol\":301:364  require(_status != _ENTERED, \"ReentrancyGuard: reentrant call\") */\n      tag_24\n      jumpi\n      mload(0x40)\n      0x08c379a000000000000000000000000000000000000000000000000000000000\n      dup2\n      mstore\n      0x04\n      add\n      tag_25\n      swap1\n      tag_21\n      jump\t// in\n    tag_25:\n      mload(0x40)\n      dup1\n      swap2\n      sub\n      swap1\n      revert\n    tag_24:\n        /* \"contracts/RenntrancyGuard.sol\":170:171  2 */\n      0x02\n        /* \"contracts/RenntrancyGuard.sol\":374:381  _status */\n      0x00\n        /* \"contracts/RenntrancyGuard.sol\":374:392  _status = _ENTERED */\n      dup2\n      swap1\n      sstore\n      pop\n        /* \"contracts/GeekNftMarketPlace.sol\":1233:1234  0 */\n      0x00\n        /* \"contracts/GeekNftMarketPlace.sol\":1224:1230  _price */\n      dup2\n        /* \"contracts/GeekNftMarketPlace.sol\":1224:1234  _price > 0 */\n      gt\n        /* \"contracts/GeekNftMarketPlace.sol\":1216:1267  require(_price > 0, \"Price must be at least 1 wei\") */\n      tag_27\n      jumpi\n      mload(0x40)\n      0x08c379a000000000000000000000000000000000000000000000000000000000\n      dup2\n      mstore\n      0x04\n      add\n      tag_28\n      swap1\n      tag_29\n      jump\t// in\n    tag_28:\n      mload(0x40)\n      dup1\n      swap2\n      sub\n      swap1\n      revert\n    tag_27:\n        /* \"contracts/GeekNftMarketPlace.sol\":1298:1309  LISTING_FEE */\n      sload(0x03)\n        /* \"contracts/GeekNftMarketPlace.sol\":1285:1294  msg.value */\n      callvalue\n        /* \"contracts/GeekNftMarketPlace.sol\":1285:1309  msg.value == LISTING_FEE */\n      eq\n        /* \"contracts/GeekNftMarketPlace.sol\":1277:1346  require(msg.value == LISTING_FEE, \"Not enough ether for listing fee\") */\n      tag_30\n      jumpi\n      mload(0x40)\n      0x08c379a000000000000000000000000000000000000000000000000000000000\n      dup2\n      mstore\n      0x04\n      add\n      tag_31\n      swap1\n      tag_32\n      jump\t// in\n    tag_31:\n      mload(0x40)\n      dup1\n      swap2\n      sub\n      swap1\n      revert\n    tag_30:\n        /* \"contracts/GeekNftMarketPlace.sol\":1374:1386  _nftContract */\n      dup3\n        /* \"contracts/GeekNftMarketPlace.sol\":1357:1400  GeekNftInterface(_nftContract).transferFrom */\n      0xffffffffffffffffffffffffffffffffffffffff\n      and\n      0x23b872dd\n        /* \"contracts/GeekNftMarketPlace.sol\":1401:1411  msg.sender */\n      caller\n        /* \"contracts/GeekNftMarketPlace.sol\":1421:1425  this */\n      address\n        /* \"contracts/GeekNftMarketPlace.sol\":1428:1436  _tokenId */\n      dup6\n        /* \"contracts/GeekNftMarketPlace.sol\":1357:1437  GeekNftInterface(_nftContract).transferFrom(msg.sender, address(this), _tokenId) */\n      mload(0x40)\n      dup5\n      0xffffffff\n      and\n      0xe0\n      shl\n      dup2\n      mstore\n      0x04\n      add\n      tag_33\n      swap4\n      swap3\n      swap2\n      swap1\n      tag_34\n      jump\t// in\n    tag_33:\n      0x00\n      mload(0x40)\n      dup1\n      dup4\n      sub\n      dup2\n      0x00\n      dup8\n      dup1\n      extcodesize\n      iszero\n      dup1\n      iszero\n      tag_35\n      jumpi\n      0x00\n      dup1\n      revert\n    tag_35:\n      pop\n      gas\n      call\n      iszero\n      dup1\n      iszero\n      tag_37\n      jumpi\n      returndatasize\n      0x00\n      dup1\n      returndatacopy\n      revert(0x00, returndatasize)\n    tag_37:\n      pop\n      pop\n      pop\n      pop\n        /* \"contracts/GeekNftMarketPlace.sol\":1447:1469  _nftsCount.increment() */\n      tag_38\n        /* \"contracts/GeekNftMarketPlace.sol\":1447:1457  _nftsCount */\n      0x02\n        /* \"contracts/GeekNftMarketPlace.sol\":1447:1467  _nftsCount.increment */\n      tag_39\n        /* \"contracts/GeekNftMarketPlace.sol\":1447:1469  _nftsCount.increment() */\n      jump\t// in\n    tag_38:\n        /* \"contracts/GeekNftMarketPlace.sol\":1501:1702  NFT(... */\n      mload(0x40)\n      dup1\n      0xe0\n      add\n      0x40\n      mstore\n      dup1\n        /* \"contracts/GeekNftMarketPlace.sol\":1518:1530  _nftContract */\n      dup5\n        /* \"contracts/GeekNftMarketPlace.sol\":1501:1702  NFT(... */\n      0xffffffffffffffffffffffffffffffffffffffff\n      and\n      dup2\n      mstore\n      0x20\n      add\n        /* \"contracts/GeekNftMarketPlace.sol\":1544:1552  _tokenId */\n      dup4\n        /* \"contracts/GeekNftMarketPlace.sol\":1501:1702  NFT(... */\n      dup2\n      mstore\n      0x20\n      add\n        /* \"contracts/GeekNftMarketPlace.sol\":1566:1572  _price */\n      dup3\n        /* \"contracts/GeekNftMarketPlace.sol\":1501:1702  NFT(... */\n      dup2\n      mstore\n      0x20\n      add\n        /* \"contracts/GeekNftMarketPlace.sol\":1594:1604  msg.sender */\n      caller\n        /* \"contracts/GeekNftMarketPlace.sol\":1501:1702  NFT(... */\n      0xffffffffffffffffffffffffffffffffffffffff\n      and\n      dup2\n      mstore\n      0x20\n      add\n        /* \"contracts/GeekNftMarketPlace.sol\":1635:1639  this */\n      address\n        /* \"contracts/GeekNftMarketPlace.sol\":1501:1702  NFT(... */\n      0xffffffffffffffffffffffffffffffffffffffff\n      and\n      dup2\n      mstore\n      0x20\n      add\n        /* \"contracts/GeekNftMarketPlace.sol\":1663:1673  msg.sender */\n      caller\n        /* \"contracts/GeekNftMarketPlace.sol\":1501:1702  NFT(... */\n      0xffffffffffffffffffffffffffffffffffffffff\n      and\n      dup2\n      mstore\n      0x20\n      add\n        /* \"contracts/GeekNftMarketPlace.sol\":1688:1692  true */\n      0x01\n        /* \"contracts/GeekNftMarketPlace.sol\":1501:1702  NFT(... */\n      iszero\n      iszero\n      dup2\n      mstore\n      pop\n        /* \"contracts/GeekNftMarketPlace.sol\":1480:1488  _idToNft */\n      0x05\n        /* \"contracts/GeekNftMarketPlace.sol\":1480:1498  _idToNft[_tokenId] */\n      0x00\n        /* \"contracts/GeekNftMarketPlace.sol\":1489:1497  _tokenId */\n      dup5\n        /* \"contracts/GeekNftMarketPlace.sol\":1480:1498  _idToNft[_tokenId] */\n      dup2\n      mstore\n      0x20\n      add\n      swap1\n      dup2\n      mstore\n      0x20\n      add\n      0x00\n      keccak256\n        /* \"contracts/GeekNftMarketPlace.sol\":1480:1702  _idToNft[_tokenId] = NFT(... */\n      0x00\n      dup3\n      add\n      mload\n      dup2\n      0x00\n      add\n      exp(0x0100, 0x00)\n      dup2\n      sload\n      dup2\n      0xffffffffffffffffffffffffffffffffffffffff\n      mul\n      not\n      and\n      swap1\n      dup4\n      0xffffffffffffffffffffffffffffffffffffffff\n      and\n      mul\n      or\n      swap1\n      sstore\n      pop\n      0x20\n      dup3\n      add\n      mload\n      dup2\n      0x01\n      add\n      sstore\n      0x40\n      dup3\n      add\n      mload\n      dup2\n      0x02\n      add\n      sstore\n      0x60\n      dup3\n      add\n      mload\n      dup2\n      0x03\n      add\n      exp(0x0100, 0x00)\n      dup2\n      sload\n      dup2\n      0xffffffffffffffffffffffffffffffffffffffff\n      mul\n      not\n      and\n      swap1\n      dup4\n      0xffffffffffffffffffffffffffffffffffffffff\n      and\n      mul\n      or\n      swap1\n      sstore\n      pop\n      0x80\n      dup3\n      add\n      mload\n      dup2\n      0x04\n      add\n      exp(0x0100, 0x00)\n      dup2\n      sload\n      dup2\n      0xffffffffffffffffffffffffffffffffffffffff\n      mul\n      not\n      and\n      swap1\n      dup4\n      0xffffffffffffffffffffffffffffffffffffffff\n      and\n      mul\n      or\n      swap1\n      sstore\n      pop\n      0xa0\n      dup3\n      add\n      mload\n      dup2\n      0x05\n      add\n      exp(0x0100, 0x00)\n      dup2\n      sload\n      dup2\n      0xffffffffffffffffffffffffffffffffffffffff\n      mul\n      not\n      and\n      swap1\n      dup4\n      0xffffffffffffffffffffffffffffffffffffffff\n      and\n      mul\n      or\n      swap1\n      sstore\n      pop\n      0xc0\n      dup3\n      add\n      mload\n      dup2\n      0x05\n      add\n      exp(0x0100, 0x14)\n      dup2\n      sload\n      dup2\n      0xff\n      mul\n      not\n      and\n      swap1\n      dup4\n      iszero\n      iszero\n      mul\n      or\n      swap1\n      sstore\n      pop\n      swap1\n      pop\n      pop\n        /* \"contracts/GeekNftMarketPlace.sol\":1772:1776  this */\n      address\n        /* \"contracts/GeekNftMarketPlace.sol\":1718:1786  NFTListed(_nftContract, _tokenId, msg.sender, address(this), _price) */\n      0xffffffffffffffffffffffffffffffffffffffff\n      and\n        /* \"contracts/GeekNftMarketPlace.sol\":1752:1762  msg.sender */\n      caller\n        /* \"contracts/GeekNftMarketPlace.sol\":1718:1786  NFTListed(_nftContract, _tokenId, msg.sender, address(this), _price) */\n      0xffffffffffffffffffffffffffffffffffffffff\n      and\n      0xa0c6c0d02d86fdacecbaa5fdf5894bab204e31a778250474108540733a9b8d19\n        /* \"contracts/GeekNftMarketPlace.sol\":1728:1740  _nftContract */\n      dup6\n        /* \"contracts/GeekNftMarketPlace.sol\":1742:1750  _tokenId */\n      dup6\n        /* \"contracts/GeekNftMarketPlace.sol\":1779:1785  _price */\n      dup6\n        /* \"contracts/GeekNftMarketPlace.sol\":1718:1786  NFTListed(_nftContract, _tokenId, msg.sender, address(this), _price) */\n      mload(0x40)\n      tag_40\n      swap4\n      swap3\n      swap2\n      swap1\n      tag_41\n      jump\t// in\n    tag_40:\n      mload(0x40)\n      dup1\n      swap2\n      sub\n      swap1\n      log3\n        /* \"contracts/RenntrancyGuard.sol\":127:128  1 */\n      0x01\n        /* \"contracts/RenntrancyGuard.sol\":413:420  _status */\n      0x00\n        /* \"contracts/RenntrancyGuard.sol\":413:435  _status = _NOT_ENTERED */\n      dup2\n      swap1\n      sstore\n      pop\n        /* \"contracts/GeekNftMarketPlace.sol\":1112:1793  function listNFT(address _nftContract, uint _tokenId, uint _price) public payable nonReentrant{... */\n      pop\n      pop\n      pop\n      jump\t// out\n        /* \"@openzeppelin/contracts/utils/Counters.sol\":945:1068  function increment(Counter storage counter) internal {... */\n    tag_39:\n        /* \"@openzeppelin/contracts/utils/Counters.sol\":1050:1051  1 */\n      0x01\n        /* \"@openzeppelin/contracts/utils/Counters.sol\":1032:1039  counter */\n      dup2\n        /* \"@openzeppelin/contracts/utils/Counters.sol\":1032:1046  counter._value */\n      0x00\n      add\n      0x00\n        /* \"@openzeppelin/contracts/utils/Counters.sol\":1032:1051  counter._value += 1 */\n      dup3\n      dup3\n      sload\n      add\n      swap3\n      pop\n      pop\n      dup2\n      swap1\n      sstore\n      pop\n        /* \"@openzeppelin/contracts/utils/Counters.sol\":945:1068  function increment(Counter storage counter) internal {... */\n      pop\n      jump\t// out\n        /* \"#utility.yul\":7:146   */\n    tag_44:\n      0x00\n        /* \"#utility.yul\":91:97   */\n      dup2\n        /* \"#utility.yul\":78:98   */\n      calldataload\n        /* \"#utility.yul\":69:98   */\n      swap1\n      pop\n        /* \"#utility.yul\":107:140   */\n      tag_46\n        /* \"#utility.yul\":134:139   */\n      dup2\n        /* \"#utility.yul\":107:140   */\n      tag_47\n      jump\t// in\n    tag_46:\n        /* \"#utility.yul\":59:146   */\n      swap3\n      swap2\n      pop\n      pop\n      jump\t// out\n        /* \"#utility.yul\":152:291   */\n    tag_48:\n      0x00\n        /* \"#utility.yul\":236:242   */\n      dup2\n        /* \"#utility.yul\":223:243   */\n      calldataload\n        /* \"#utility.yul\":214:243   */\n      swap1\n      pop\n        /* \"#utility.yul\":252:285   */\n      tag_50\n        /* \"#utility.yul\":279:284   */\n      dup2\n        /* \"#utility.yul\":252:285   */\n      tag_51\n      jump\t// in\n    tag_50:\n        /* \"#utility.yul\":204:291   */\n      swap3\n      swap2\n      pop\n      pop\n      jump\t// out\n        /* \"#utility.yul\":297:704   */\n    tag_12:\n      0x00\n      dup1\n        /* \"#utility.yul\":422:424   */\n      0x40\n        /* \"#utility.yul\":410:419   */\n      dup4\n        /* \"#utility.yul\":401:408   */\n      dup6\n        /* \"#utility.yul\":397:420   */\n      sub\n        /* \"#utility.yul\":393:425   */\n      slt\n        /* \"#utility.yul\":390:392   */\n      iszero\n      tag_53\n      jumpi\n        /* \"#utility.yul\":438:439   */\n      0x00\n        /* \"#utility.yul\":435:436   */\n      dup1\n        /* \"#utility.yul\":428:440   */\n      revert\n        /* \"#utility.yul\":390:392   */\n    tag_53:\n        /* \"#utility.yul\":481:482   */\n      0x00\n        /* \"#utility.yul\":506:559   */\n      tag_54\n        /* \"#utility.yul\":551:558   */\n      dup6\n        /* \"#utility.yul\":542:548   */\n      dup3\n        /* \"#utility.yul\":531:540   */\n      dup7\n        /* \"#utility.yul\":527:549   */\n      add\n        /* \"#utility.yul\":506:559   */\n      tag_44\n      jump\t// in\n    tag_54:\n        /* \"#utility.yul\":496:559   */\n      swap3\n      pop\n        /* \"#utility.yul\":452:569   */\n      pop\n        /* \"#utility.yul\":608:610   */\n      0x20\n        /* \"#utility.yul\":634:687   */\n      tag_55\n        /* \"#utility.yul\":679:686   */\n      dup6\n        /* \"#utility.yul\":670:676   */\n      dup3\n        /* \"#utility.yul\":659:668   */\n      dup7\n        /* \"#utility.yul\":655:677   */\n      add\n        /* \"#utility.yul\":634:687   */\n      tag_48\n      jump\t// in\n    tag_55:\n        /* \"#utility.yul\":624:687   */\n      swap2\n      pop\n        /* \"#utility.yul\":579:697   */\n      pop\n        /* \"#utility.yul\":380:704   */\n      swap3\n      pop\n      swap3\n      swap1\n      pop\n      jump\t// out\n        /* \"#utility.yul\":710:1262   */\n    tag_16:\n      0x00\n      dup1\n      0x00\n        /* \"#utility.yul\":852:854   */\n      0x60\n        /* \"#utility.yul\":840:849   */\n      dup5\n        /* \"#utility.yul\":831:838   */\n      dup7\n        /* \"#utility.yul\":827:850   */\n      sub\n        /* \"#utility.yul\":823:855   */\n      slt\n        /* \"#utility.yul\":820:822   */\n      iszero\n      tag_57\n      jumpi\n        /* \"#utility.yul\":868:869   */\n      0x00\n        /* \"#utility.yul\":865:866   */\n      dup1\n        /* \"#utility.yul\":858:870   */\n      revert\n        /* \"#utility.yul\":820:822   */\n    tag_57:\n        /* \"#utility.yul\":911:912   */\n      0x00\n        /* \"#utility.yul\":936:989   */\n      tag_58\n        /* \"#utility.yul\":981:988   */\n      dup7\n        /* \"#utility.yul\":972:978   */\n      dup3\n        /* \"#utility.yul\":961:970   */\n      dup8\n        /* \"#utility.yul\":957:979   */\n      add\n        /* \"#utility.yul\":936:989   */\n      tag_44\n      jump\t// in\n    tag_58:\n        /* \"#utility.yul\":926:989   */\n      swap4\n      pop\n        /* \"#utility.yul\":882:999   */\n      pop\n        /* \"#utility.yul\":1038:1040   */\n      0x20\n        /* \"#utility.yul\":1064:1117   */\n      tag_59\n        /* \"#utility.yul\":1109:1116   */\n      dup7\n        /* \"#utility.yul\":1100:1106   */\n      dup3\n        /* \"#utility.yul\":1089:1098   */\n      dup8\n        /* \"#utility.yul\":1085:1107   */\n      add\n        /* \"#utility.yul\":1064:1117   */\n      tag_48\n      jump\t// in\n    tag_59:\n        /* \"#utility.yul\":1054:1117   */\n      swap3\n      pop\n        /* \"#utility.yul\":1009:1127   */\n      pop\n        /* \"#utility.yul\":1166:1168   */\n      0x40\n        /* \"#utility.yul\":1192:1245   */\n      tag_60\n        /* \"#utility.yul\":1237:1244   */\n      dup7\n        /* \"#utility.yul\":1228:1234   */\n      dup3\n        /* \"#utility.yul\":1217:1226   */\n      dup8\n        /* \"#utility.yul\":1213:1235   */\n      add\n        /* \"#utility.yul\":1192:1245   */\n      tag_48\n      jump\t// in\n    tag_60:\n        /* \"#utility.yul\":1182:1245   */\n      swap2\n      pop\n        /* \"#utility.yul\":1137:1255   */\n      pop\n        /* \"#utility.yul\":810:1262   */\n      swap3\n      pop\n      swap3\n      pop\n      swap3\n      jump\t// out\n        /* \"#utility.yul\":1268:1386   */\n    tag_61:\n        /* \"#utility.yul\":1355:1379   */\n      tag_63\n        /* \"#utility.yul\":1373:1378   */\n      dup2\n        /* \"#utility.yul\":1355:1379   */\n      tag_64\n      jump\t// in\n    tag_63:\n        /* \"#utility.yul\":1350:1353   */\n      dup3\n        /* \"#utility.yul\":1343:1380   */\n      mstore\n        /* \"#utility.yul\":1333:1386   */\n      pop\n      pop\n      jump\t// out\n        /* \"#utility.yul\":1392:1758   */\n    tag_65:\n      0x00\n        /* \"#utility.yul\":1555:1622   */\n      tag_67\n        /* \"#utility.yul\":1619:1621   */\n      0x20\n        /* \"#utility.yul\":1614:1617   */\n      dup4\n        /* \"#utility.yul\":1555:1622   */\n      tag_68\n      jump\t// in\n    tag_67:\n        /* \"#utility.yul\":1548:1622   */\n      swap2\n      pop\n        /* \"#utility.yul\":1631:1724   */\n      tag_69\n        /* \"#utility.yul\":1720:1723   */\n      dup3\n        /* \"#utility.yul\":1631:1724   */\n      tag_70\n      jump\t// in\n    tag_69:\n        /* \"#utility.yul\":1749:1751   */\n      0x20\n        /* \"#utility.yul\":1744:1747   */\n      dup3\n        /* \"#utility.yul\":1740:1752   */\n      add\n        /* \"#utility.yul\":1733:1752   */\n      swap1\n      pop\n        /* \"#utility.yul\":1538:1758   */\n      swap2\n      swap1\n      pop\n      jump\t// out\n        /* \"#utility.yul\":1764:2130   */\n    tag_71:\n      0x00\n        /* \"#utility.yul\":1927:1994   */\n      tag_73\n        /* \"#utility.yul\":1991:1993   */\n      0x1f\n        /* \"#utility.yul\":1986:1989   */\n      dup4\n        /* \"#utility.yul\":1927:1994   */\n      tag_68\n      jump\t// in\n    tag_73:\n        /* \"#utility.yul\":1920:1994   */\n      swap2\n      pop\n        /* \"#utility.yul\":2003:2096   */\n      tag_74\n        /* \"#utility.yul\":2092:2095   */\n      dup3\n        /* \"#utility.yul\":2003:2096   */\n      tag_75\n      jump\t// in\n    tag_74:\n        /* \"#utility.yul\":2121:2123   */\n      0x20\n        /* \"#utility.yul\":2116:2119   */\n      dup3\n        /* \"#utility.yul\":2112:2124   */\n      add\n        /* \"#utility.yul\":2105:2124   */\n      swap1\n      pop\n        /* \"#utility.yul\":1910:2130   */\n      swap2\n      swap1\n      pop\n      jump\t// out\n        /* \"#utility.yul\":2136:2502   */\n    tag_76:\n      0x00\n        /* \"#utility.yul\":2299:2366   */\n      tag_78\n        /* \"#utility.yul\":2363:2365   */\n      0x1c\n        /* \"#utility.yul\":2358:2361   */\n      dup4\n        /* \"#utility.yul\":2299:2366   */\n      tag_68\n      jump\t// in\n    tag_78:\n        /* \"#utility.yul\":2292:2366   */\n      swap2\n      pop\n        /* \"#utility.yul\":2375:2468   */\n      tag_79\n        /* \"#utility.yul\":2464:2467   */\n      dup3\n        /* \"#utility.yul\":2375:2468   */\n      tag_80\n      jump\t// in\n    tag_79:\n        /* \"#utility.yul\":2493:2495   */\n      0x20\n        /* \"#utility.yul\":2488:2491   */\n      dup3\n        /* \"#utility.yul\":2484:2496   */\n      add\n        /* \"#utility.yul\":2477:2496   */\n      swap1\n      pop\n        /* \"#utility.yul\":2282:2502   */\n      swap2\n      swap1\n      pop\n      jump\t// out\n        /* \"#utility.yul\":2508:2626   */\n    tag_81:\n        /* \"#utility.yul\":2595:2619   */\n      tag_83\n        /* \"#utility.yul\":2613:2618   */\n      dup2\n        /* \"#utility.yul\":2595:2619   */\n      tag_84\n      jump\t// in\n    tag_83:\n        /* \"#utility.yul\":2590:2593   */\n      dup3\n        /* \"#utility.yul\":2583:2620   */\n      mstore\n        /* \"#utility.yul\":2573:2626   */\n      pop\n      pop\n      jump\t// out\n        /* \"#utility.yul\":2632:3074   */\n    tag_34:\n      0x00\n        /* \"#utility.yul\":2819:2821   */\n      0x60\n        /* \"#utility.yul\":2808:2817   */\n      dup3\n        /* \"#utility.yul\":2804:2822   */\n      add\n        /* \"#utility.yul\":2796:2822   */\n      swap1\n      pop\n        /* \"#utility.yul\":2832:2903   */\n      tag_86\n        /* \"#utility.yul\":2900:2901   */\n      0x00\n        /* \"#utility.yul\":2889:2898   */\n      dup4\n        /* \"#utility.yul\":2885:2902   */\n      add\n        /* \"#utility.yul\":2876:2882   */\n      dup7\n        /* \"#utility.yul\":2832:2903   */\n      tag_61\n      jump\t// in\n    tag_86:\n        /* \"#utility.yul\":2913:2985   */\n      tag_87\n        /* \"#utility.yul\":2981:2983   */\n      0x20\n        /* \"#utility.yul\":2970:2979   */\n      dup4\n        /* \"#utility.yul\":2966:2984   */\n      add\n        /* \"#utility.yul\":2957:2963   */\n      dup6\n        /* \"#utility.yul\":2913:2985   */\n      tag_61\n      jump\t// in\n    tag_87:\n        /* \"#utility.yul\":2995:3067   */\n      tag_88\n        /* \"#utility.yul\":3063:3065   */\n      0x40\n        /* \"#utility.yul\":3052:3061   */\n      dup4\n        /* \"#utility.yul\":3048:3066   */\n      add\n        /* \"#utility.yul\":3039:3045   */\n      dup5\n        /* \"#utility.yul\":2995:3067   */\n      tag_81\n      jump\t// in\n    tag_88:\n        /* \"#utility.yul\":2786:3074   */\n      swap5\n      swap4\n      pop\n      pop\n      pop\n      pop\n      jump\t// out\n        /* \"#utility.yul\":3080:3522   */\n    tag_41:\n      0x00\n        /* \"#utility.yul\":3267:3269   */\n      0x60\n        /* \"#utility.yul\":3256:3265   */\n      dup3\n        /* \"#utility.yul\":3252:3270   */\n      add\n        /* \"#utility.yul\":3244:3270   */\n      swap1\n      pop\n        /* \"#utility.yul\":3280:3351   */\n      tag_90\n        /* \"#utility.yul\":3348:3349   */\n      0x00\n        /* \"#utility.yul\":3337:3346   */\n      dup4\n        /* \"#utility.yul\":3333:3350   */\n      add\n        /* \"#utility.yul\":3324:3330   */\n      dup7\n        /* \"#utility.yul\":3280:3351   */\n      tag_61\n      jump\t// in\n    tag_90:\n        /* \"#utility.yul\":3361:3433   */\n      tag_91\n        /* \"#utility.yul\":3429:3431   */\n      0x20\n        /* \"#utility.yul\":3418:3427   */\n      dup4\n        /* \"#utility.yul\":3414:3432   */\n      add\n        /* \"#utility.yul\":3405:3411   */\n      dup6\n        /* \"#utility.yul\":3361:3433   */\n      tag_81\n      jump\t// in\n    tag_91:\n        /* \"#utility.yul\":3443:3515   */\n      tag_92\n        /* \"#utility.yul\":3511:3513   */\n      0x40\n        /* \"#utility.yul\":3500:3509   */\n      dup4\n        /* \"#utility.yul\":3496:3514   */\n      add\n        /* \"#utility.yul\":3487:3493   */\n      dup5\n        /* \"#utility.yul\":3443:3515   */\n      tag_81\n      jump\t// in\n    tag_92:\n        /* \"#utility.yul\":3234:3522   */\n      swap5\n      swap4\n      pop\n      pop\n      pop\n      pop\n      jump\t// out\n        /* \"#utility.yul\":3528:3947   */\n    tag_32:\n      0x00\n        /* \"#utility.yul\":3732:3734   */\n      0x20\n        /* \"#utility.yul\":3721:3730   */\n      dup3\n        /* \"#utility.yul\":3717:3735   */\n      add\n        /* \"#utility.yul\":3709:3735   */\n      swap1\n      pop\n        /* \"#utility.yul\":3781:3790   */\n      dup2\n        /* \"#utility.yul\":3775:3779   */\n      dup2\n        /* \"#utility.yul\":3771:3791   */\n      sub\n        /* \"#utility.yul\":3767:3768   */\n      0x00\n        /* \"#utility.yul\":3756:3765   */\n      dup4\n        /* \"#utility.yul\":3752:3769   */\n      add\n        /* \"#utility.yul\":3745:3792   */\n      mstore\n        /* \"#utility.yul\":3809:3940   */\n      tag_94\n        /* \"#utility.yul\":3935:3939   */\n      dup2\n        /* \"#utility.yul\":3809:3940   */\n      tag_65\n      jump\t// in\n    tag_94:\n        /* \"#utility.yul\":3801:3940   */\n      swap1\n      pop\n        /* \"#utility.yul\":3699:3947   */\n      swap2\n      swap1\n      pop\n      jump\t// out\n        /* \"#utility.yul\":3953:4372   */\n    tag_21:\n      0x00\n        /* \"#utility.yul\":4157:4159   */\n      0x20\n        /* \"#utility.yul\":4146:4155   */\n      dup3\n        /* \"#utility.yul\":4142:4160   */\n      add\n        /* \"#utility.yul\":4134:4160   */\n      swap1\n      pop\n        /* \"#utility.yul\":4206:4215   */\n      dup2\n        /* \"#utility.yul\":4200:4204   */\n      dup2\n        /* \"#utility.yul\":4196:4216   */\n      sub\n        /* \"#utility.yul\":4192:4193   */\n      0x00\n        /* \"#utility.yul\":4181:4190   */\n      dup4\n        /* \"#utility.yul\":4177:4194   */\n      add\n        /* \"#utility.yul\":4170:4217   */\n      mstore\n        /* \"#utility.yul\":4234:4365   */\n      tag_96\n        /* \"#utility.yul\":4360:4364   */\n      dup2\n        /* \"#utility.yul\":4234:4365   */\n      tag_71\n      jump\t// in\n    tag_96:\n        /* \"#utility.yul\":4226:4365   */\n      swap1\n      pop\n        /* \"#utility.yul\":4124:4372   */\n      swap2\n      swap1\n      pop\n      jump\t// out\n        /* \"#utility.yul\":4378:4797   */\n    tag_29:\n      0x00\n        /* \"#utility.yul\":4582:4584   */\n      0x20\n        /* \"#utility.yul\":4571:4580   */\n      dup3\n        /* \"#utility.yul\":4567:4585   */\n      add\n        /* \"#utility.yul\":4559:4585   */\n      swap1\n      pop\n        /* \"#utility.yul\":4631:4640   */\n      dup2\n        /* \"#utility.yul\":4625:4629   */\n      dup2\n        /* \"#utility.yul\":4621:4641   */\n      sub\n        /* \"#utility.yul\":4617:4618   */\n      0x00\n        /* \"#utility.yul\":4606:4615   */\n      dup4\n        /* \"#utility.yul\":4602:4619   */\n      add\n        /* \"#utility.yul\":4595:4642   */\n      mstore\n        /* \"#utility.yul\":4659:4790   */\n      tag_98\n        /* \"#utility.yul\":4785:4789   */\n      dup2\n        /* \"#utility.yul\":4659:4790   */\n      tag_76\n      jump\t// in\n    tag_98:\n        /* \"#utility.yul\":4651:4790   */\n      swap1\n      pop\n        /* \"#utility.yul\":4549:4797   */\n      swap2\n      swap1\n      pop\n      jump\t// out\n        /* \"#utility.yul\":4803:5025   */\n    tag_9:\n      0x00\n        /* \"#utility.yul\":4934:4936   */\n      0x20\n        /* \"#utility.yul\":4923:4932   */\n      dup3\n        /* \"#utility.yul\":4919:4937   */\n      add\n        /* \"#utility.yul\":4911:4937   */\n      swap1\n      pop\n        /* \"#utility.yul\":4947:5018   */\n      tag_100\n        /* \"#utility.yul\":5015:5016   */\n      0x00\n        /* \"#utility.yul\":5004:5013   */\n      dup4\n        /* \"#utility.yul\":5000:5017   */\n      add\n        /* \"#utility.yul\":4991:4997   */\n      dup5\n        /* \"#utility.yul\":4947:5018   */\n      tag_81\n      jump\t// in\n    tag_100:\n        /* \"#utility.yul\":4901:5025   */\n      swap3\n      swap2\n      pop\n      pop\n      jump\t// out\n        /* \"#utility.yul\":5031:5200   */\n    tag_68:\n      0x00\n        /* \"#utility.yul\":5149:5155   */\n      dup3\n        /* \"#utility.yul\":5144:5147   */\n      dup3\n        /* \"#utility.yul\":5137:5156   */\n      mstore\n        /* \"#utility.yul\":5189:5193   */\n      0x20\n        /* \"#utility.yul\":5184:5187   */\n      dup3\n        /* \"#utility.yul\":5180:5194   */\n      add\n        /* \"#utility.yul\":5165:5194   */\n      swap1\n      pop\n        /* \"#utility.yul\":5127:5200   */\n      swap3\n      swap2\n      pop\n      pop\n      jump\t// out\n        /* \"#utility.yul\":5206:5302   */\n    tag_64:\n      0x00\n        /* \"#utility.yul\":5272:5296   */\n      tag_103\n        /* \"#utility.yul\":5290:5295   */\n      dup3\n        /* \"#utility.yul\":5272:5296   */\n      tag_104\n      jump\t// in\n    tag_103:\n        /* \"#utility.yul\":5261:5296   */\n      swap1\n      pop\n        /* \"#utility.yul\":5251:5302   */\n      swap2\n      swap1\n      pop\n      jump\t// out\n        /* \"#utility.yul\":5308:5434   */\n    tag_104:\n      0x00\n        /* \"#utility.yul\":5385:5427   */\n      0xffffffffffffffffffffffffffffffffffffffff\n        /* \"#utility.yul\":5378:5383   */\n      dup3\n        /* \"#utility.yul\":5374:5428   */\n      and\n        /* \"#utility.yul\":5363:5428   */\n      swap1\n      pop\n        /* \"#utility.yul\":5353:5434   */\n      swap2\n      swap1\n      pop\n      jump\t// out\n        /* \"#utility.yul\":5440:5517   */\n    tag_84:\n      0x00\n        /* \"#utility.yul\":5506:5511   */\n      dup2\n        /* \"#utility.yul\":5495:5511   */\n      swap1\n      pop\n        /* \"#utility.yul\":5485:5517   */\n      swap2\n      swap1\n      pop\n      jump\t// out\n        /* \"#utility.yul\":5523:5705   */\n    tag_70:\n        /* \"#utility.yul\":5663:5697   */\n      0x4e6f7420656e6f75676820657468657220666f72206c697374696e6720666565\n        /* \"#utility.yul\":5659:5660   */\n      0x00\n        /* \"#utility.yul\":5651:5657   */\n      dup3\n        /* \"#utility.yul\":5647:5661   */\n      add\n        /* \"#utility.yul\":5640:5698   */\n      mstore\n        /* \"#utility.yul\":5629:5705   */\n      pop\n      jump\t// out\n        /* \"#utility.yul\":5711:5892   */\n    tag_75:\n        /* \"#utility.yul\":5851:5884   */\n      0x5265656e7472616e637947756172643a207265656e7472616e742063616c6c00\n        /* \"#utility.yul\":5847:5848   */\n      0x00\n        /* \"#utility.yul\":5839:5845   */\n      dup3\n        /* \"#utility.yul\":5835:5849   */\n      add\n        /* \"#utility.yul\":5828:5885   */\n      mstore\n        /* \"#utility.yul\":5817:5892   */\n      pop\n      jump\t// out\n        /* \"#utility.yul\":5898:6076   */\n    tag_80:\n        /* \"#utility.yul\":6038:6068   */\n      0x5072696365206d757374206265206174206c6561737420312077656900000000\n        /* \"#utility.yul\":6034:6035   */\n      0x00\n        /* \"#utility.yul\":6026:6032   */\n      dup3\n        /* \"#utility.yul\":6022:6036   */\n      add\n        /* \"#utility.yul\":6015:6069   */\n      mstore\n        /* \"#utility.yul\":6004:6076   */\n      pop\n      jump\t// out\n        /* \"#utility.yul\":6082:6204   */\n    tag_47:\n        /* \"#utility.yul\":6155:6179   */\n      tag_111\n        /* \"#utility.yul\":6173:6178   */\n      dup2\n        /* \"#utility.yul\":6155:6179   */\n      tag_64\n      jump\t// in\n    tag_111:\n        /* \"#utility.yul\":6148:6153   */\n      dup2\n        /* \"#utility.yul\":6145:6180   */\n      eq\n        /* \"#utility.yul\":6135:6137   */\n      tag_112\n      jumpi\n        /* \"#utility.yul\":6194:6195   */\n      0x00\n        /* \"#utility.yul\":6191:6192   */\n      dup1\n        /* \"#utility.yul\":6184:6196   */\n      revert\n        /* \"#utility.yul\":6135:6137   */\n    tag_112:\n        /* \"#utility.yul\":6125:6204   */\n      pop\n      jump\t// out\n        /* \"#utility.yul\":6210:6332   */\n    tag_51:\n        /* \"#utility.yul\":6283:6307   */\n      tag_114\n        /* \"#utility.yul\":6301:6306   */\n      dup2\n        /* \"#utility.yul\":6283:6307   */\n      tag_84\n      jump\t// in\n    tag_114:\n        /* \"#utility.yul\":6276:6281   */\n      dup2\n        /* \"#utility.yul\":6273:6308   */\n      eq\n        /* \"#utility.yul\":6263:6265   */\n      tag_115\n      jumpi\n        /* \"#utility.yul\":6322:6323   */\n      0x00\n        /* \"#utility.yul\":6319:6320   */\n      dup1\n        /* \"#utility.yul\":6312:6324   */\n      revert\n        /* \"#utility.yul\":6263:6265   */\n    tag_115:\n        /* \"#utility.yul\":6253:6332   */\n      pop\n      jump\t// out\n\n    auxdata: 0xa2646970667358221220fabf49b0d722ff302fe6dc22559657fe9a271abdd10bf847fff4b4fc73713bad64736f6c63430008010033\n}\n",
				"bytecode": {
					"linkReferences": {},
					"object": "608060405266071afd498d000060035534801561001b57600080fd5b50600160008190555033600460006101000a81548173ffffffffffffffffffffffffffffffffffffffff021916908373ffffffffffffffffffffffffffffffffffffffff160217905550610833806100746000396000f3fe6080604052600436106100345760003560e01c80632b86ae38146100395780634ddf4f8f14610064578063ad05f1b414610080575b600080fd5b34801561004557600080fd5b5061004e61009c565b60405161005b91906106ec565b60405180910390f35b61007e6004803603810190610079919061050c565b6100a2565b005b61009a60048036038101906100959190610548565b610114565b005b60035481565b600260005414156100e8576040517f08c379a00000000000000000000000000000000000000000000000000000000081526004016100df906106ac565b60405180910390fd5b600260008190555060006005600083815260200190815260200160002090505060016000819055505050565b6002600054141561015a576040517f08c379a0000000000000000000000000000000000000000000000000000000008152600401610151906106ac565b60405180910390fd5b6002600081905550600081116101a5576040517f08c379a000000000000000000000000000000000000000000000000000000000815260040161019c906106cc565b60405180910390fd5b60035434146101e9576040517f08c379a00000000000000000000000000000000000000000000000000000000081526004016101e09061068c565b60405180910390fd5b8273ffffffffffffffffffffffffffffffffffffffff166323b872dd3330856040518463ffffffff1660e01b81526004016102269392919061061e565b600060405180830381600087803b15801561024057600080fd5b505af1158015610254573d6000803e3d6000fd5b5050505061026260026104cc565b6040518060e001604052808473ffffffffffffffffffffffffffffffffffffffff1681526020018381526020018281526020013373ffffffffffffffffffffffffffffffffffffffff1681526020013073ffffffffffffffffffffffffffffffffffffffff1681526020013373ffffffffffffffffffffffffffffffffffffffff168152602001600115158152506005600084815260200190815260200160002060008201518160000160006101000a81548173ffffffffffffffffffffffffffffffffffffffff021916908373ffffffffffffffffffffffffffffffffffffffff160217905550602082015181600101556040820151816002015560608201518160030160006101000a81548173ffffffffffffffffffffffffffffffffffffffff021916908373ffffffffffffffffffffffffffffffffffffffff16021790555060808201518160040160006101000a81548173ffffffffffffffffffffffffffffffffffffffff021916908373ffffffffffffffffffffffffffffffffffffffff16021790555060a08201518160050160006101000a81548173ffffffffffffffffffffffffffffffffffffffff021916908373ffffffffffffffffffffffffffffffffffffffff16021790555060c08201518160050160146101000a81548160ff0219169083151502179055509050503073ffffffffffffffffffffffffffffffffffffffff163373ffffffffffffffffffffffffffffffffffffffff167fa0c6c0d02d86fdacecbaa5fdf5894bab204e31a778250474108540733a9b8d198585856040516104b793929190610655565b60405180910390a36001600081905550505050565b6001816000016000828254019250508190555050565b6000813590506104f1816107cf565b92915050565b600081359050610506816107e6565b92915050565b6000806040838503121561051f57600080fd5b600061052d858286016104e2565b925050602061053e858286016104f7565b9150509250929050565b60008060006060848603121561055d57600080fd5b600061056b868287016104e2565b935050602061057c868287016104f7565b925050604061058d868287016104f7565b9150509250925092565b6105a081610718565b82525050565b60006105b3602083610707565b91506105be82610754565b602082019050919050565b60006105d6601f83610707565b91506105e18261077d565b602082019050919050565b60006105f9601c83610707565b9150610604826107a6565b602082019050919050565b6106188161074a565b82525050565b60006060820190506106336000830186610597565b6106406020830185610597565b61064d604083018461060f565b949350505050565b600060608201905061066a6000830186610597565b610677602083018561060f565b610684604083018461060f565b949350505050565b600060208201905081810360008301526106a5816105a6565b9050919050565b600060208201905081810360008301526106c5816105c9565b9050919050565b600060208201905081810360008301526106e5816105ec565b9050919050565b6000602082019050610701600083018461060f565b92915050565b600082825260208201905092915050565b60006107238261072a565b9050919050565b600073ffffffffffffffffffffffffffffffffffffffff82169050919050565b6000819050919050565b7f4e6f7420656e6f75676820657468657220666f72206c697374696e6720666565600082015250565b7f5265656e7472616e637947756172643a207265656e7472616e742063616c6c00600082015250565b7f5072696365206d757374206265206174206c6561737420312077656900000000600082015250565b6107d881610718565b81146107e357600080fd5b50565b6107ef8161074a565b81146107fa57600080fd5b5056fea2646970667358221220fabf49b0d722ff302fe6dc22559657fe9a271abdd10bf847fff4b4fc73713bad64736f6c63430008010033",
					"opcodes": "PUSH1 0x80 PUSH1 0x40 MSTORE PUSH7 0x71AFD498D0000 PUSH1 0x3 SSTORE CALLVALUE DUP1 ISZERO PUSH2 0x1B JUMPI PUSH1 0x0 DUP1 REVERT JUMPDEST POP PUSH1 0x1 PUSH1 0x0 DUP2 SWAP1 SSTORE POP CALLER PUSH1 0x4 PUSH1 0x0 PUSH2 0x100 EXP DUP2 SLOAD DUP2 PUSH20 0xFFFFFFFFFFFFFFFFFFFFFFFFFFFFFFFFFFFFFFFF MUL NOT AND SWAP1 DUP4 PUSH20 0xFFFFFFFFFFFFFFFFFFFFFFFFFFFFFFFFFFFFFFFF AND MUL OR SWAP1 SSTORE POP PUSH2 0x833 DUP1 PUSH2 0x74 PUSH1 0x0 CODECOPY PUSH1 0x0 RETURN INVALID PUSH1 0x80 PUSH1 0x40 MSTORE PUSH1 0x4 CALLDATASIZE LT PUSH2 0x34 JUMPI PUSH1 0x0 CALLDATALOAD PUSH1 0xE0 SHR DUP1 PUSH4 0x2B86AE38 EQ PUSH2 0x39 JUMPI DUP1 PUSH4 0x4DDF4F8F EQ PUSH2 0x64 JUMPI DUP1 PUSH4 0xAD05F1B4 EQ PUSH2 0x80 JUMPI JUMPDEST PUSH1 0x0 DUP1 REVERT JUMPDEST CALLVALUE DUP1 ISZERO PUSH2 0x45 JUMPI PUSH1 0x0 DUP1 REVERT JUMPDEST POP PUSH2 0x4E PUSH2 0x9C JUMP JUMPDEST PUSH1 0x40 MLOAD PUSH2 0x5B SWAP2 SWAP1 PUSH2 0x6EC JUMP JUMPDEST PUSH1 0x40 MLOAD DUP1 SWAP2 SUB SWAP1 RETURN JUMPDEST PUSH2 0x7E PUSH1 0x4 DUP1 CALLDATASIZE SUB DUP2 ADD SWAP1 PUSH2 0x79 SWAP2 SWAP1 PUSH2 0x50C JUMP JUMPDEST PUSH2 0xA2 JUMP JUMPDEST STOP JUMPDEST PUSH2 0x9A PUSH1 0x4 DUP1 CALLDATASIZE SUB DUP2 ADD SWAP1 PUSH2 0x95 SWAP2 SWAP1 PUSH2 0x548 JUMP JUMPDEST PUSH2 0x114 JUMP JUMPDEST STOP JUMPDEST PUSH1 0x3 SLOAD DUP2 JUMP JUMPDEST PUSH1 0x2 PUSH1 0x0 SLOAD EQ ISZERO PUSH2 0xE8 JUMPI PUSH1 0x40 MLOAD PUSH32 0x8C379A000000000000000000000000000000000000000000000000000000000 DUP2 MSTORE PUSH1 0x4 ADD PUSH2 0xDF SWAP1 PUSH2 0x6AC JUMP JUMPDEST PUSH1 0x40 MLOAD DUP1 SWAP2 SUB SWAP1 REVERT JUMPDEST PUSH1 0x2 PUSH1 0x0 DUP2 SWAP1 SSTORE POP PUSH1 0x0 PUSH1 0x5 PUSH1 0x0 DUP4 DUP2 MSTORE PUSH1 0x20 ADD SWAP1 DUP2 MSTORE PUSH1 0x20 ADD PUSH1 0x0 KECCAK256 SWAP1 POP POP PUSH1 0x1 PUSH1 0x0 DUP2 SWAP1 SSTORE POP POP POP JUMP JUMPDEST PUSH1 0x2 PUSH1 0x0 SLOAD EQ ISZERO PUSH2 0x15A JUMPI PUSH1 0x40 MLOAD PUSH32 0x8C379A000000000000000000000000000000000000000000000000000000000 DUP2 MSTORE PUSH1 0x4 ADD PUSH2 0x151 SWAP1 PUSH2 0x6AC JUMP JUMPDEST PUSH1 0x40 MLOAD DUP1 SWAP2 SUB SWAP1 REVERT JUMPDEST PUSH1 0x2 PUSH1 0x0 DUP2 SWAP1 SSTORE POP PUSH1 0x0 DUP2 GT PUSH2 0x1A5 JUMPI PUSH1 0x40 MLOAD PUSH32 0x8C379A000000000000000000000000000000000000000000000000000000000 DUP2 MSTORE PUSH1 0x4 ADD PUSH2 0x19C SWAP1 PUSH2 0x6CC JUMP JUMPDEST PUSH1 0x40 MLOAD DUP1 SWAP2 SUB SWAP1 REVERT JUMPDEST PUSH1 0x3 SLOAD CALLVALUE EQ PUSH2 0x1E9 JUMPI PUSH1 0x40 MLOAD PUSH32 0x8C379A000000000000000000000000000000000000000000000000000000000 DUP2 MSTORE PUSH1 0x4 ADD PUSH2 0x1E0 SWAP1 PUSH2 0x68C JUMP JUMPDEST PUSH1 0x40 MLOAD DUP1 SWAP2 SUB SWAP1 REVERT JUMPDEST DUP3 PUSH20 0xFFFFFFFFFFFFFFFFFFFFFFFFFFFFFFFFFFFFFFFF AND PUSH4 0x23B872DD CALLER ADDRESS DUP6 PUSH1 0x40 MLOAD DUP5 PUSH4 0xFFFFFFFF AND PUSH1 0xE0 SHL DUP2 MSTORE PUSH1 0x4 ADD PUSH2 0x226 SWAP4 SWAP3 SWAP2 SWAP1 PUSH2 0x61E JUMP JUMPDEST PUSH1 0x0 PUSH1 0x40 MLOAD DUP1 DUP4 SUB DUP2 PUSH1 0x0 DUP8 DUP1 EXTCODESIZE ISZERO DUP1 ISZERO PUSH2 0x240 JUMPI PUSH1 0x0 DUP1 REVERT JUMPDEST POP GAS CALL ISZERO DUP1 ISZERO PUSH2 0x254 JUMPI RETURNDATASIZE PUSH1 0x0 DUP1 RETURNDATACOPY RETURNDATASIZE PUSH1 0x0 REVERT JUMPDEST POP POP POP POP PUSH2 0x262 PUSH1 0x2 PUSH2 0x4CC JUMP JUMPDEST PUSH1 0x40 MLOAD DUP1 PUSH1 0xE0 ADD PUSH1 0x40 MSTORE DUP1 DUP5 PUSH20 0xFFFFFFFFFFFFFFFFFFFFFFFFFFFFFFFFFFFFFFFF AND DUP2 MSTORE PUSH1 0x20 ADD DUP4 DUP2 MSTORE PUSH1 0x20 ADD DUP3 DUP2 MSTORE PUSH1 0x20 ADD CALLER PUSH20 0xFFFFFFFFFFFFFFFFFFFFFFFFFFFFFFFFFFFFFFFF AND DUP2 MSTORE PUSH1 0x20 ADD ADDRESS PUSH20 0xFFFFFFFFFFFFFFFFFFFFFFFFFFFFFFFFFFFFFFFF AND DUP2 MSTORE PUSH1 0x20 ADD CALLER PUSH20 0xFFFFFFFFFFFFFFFFFFFFFFFFFFFFFFFFFFFFFFFF AND DUP2 MSTORE PUSH1 0x20 ADD PUSH1 0x1 ISZERO ISZERO DUP2 MSTORE POP PUSH1 0x5 PUSH1 0x0 DUP5 DUP2 MSTORE PUSH1 0x20 ADD SWAP1 DUP2 MSTORE PUSH1 0x20 ADD PUSH1 0x0 KECCAK256 PUSH1 0x0 DUP3 ADD MLOAD DUP2 PUSH1 0x0 ADD PUSH1 0x0 PUSH2 0x100 EXP DUP2 SLOAD DUP2 PUSH20 0xFFFFFFFFFFFFFFFFFFFFFFFFFFFFFFFFFFFFFFFF MUL NOT AND SWAP1 DUP4 PUSH20 0xFFFFFFFFFFFFFFFFFFFFFFFFFFFFFFFFFFFFFFFF AND MUL OR SWAP1 SSTORE POP PUSH1 0x20 DUP3 ADD MLOAD DUP2 PUSH1 0x1 ADD SSTORE PUSH1 0x40 DUP3 ADD MLOAD DUP2 PUSH1 0x2 ADD SSTORE PUSH1 0x60 DUP3 ADD MLOAD DUP2 PUSH1 0x3 ADD PUSH1 0x0 PUSH2 0x100 EXP DUP2 SLOAD DUP2 PUSH20 0xFFFFFFFFFFFFFFFFFFFFFFFFFFFFFFFFFFFFFFFF MUL NOT AND SWAP1 DUP4 PUSH20 0xFFFFFFFFFFFFFFFFFFFFFFFFFFFFFFFFFFFFFFFF AND MUL OR SWAP1 SSTORE POP PUSH1 0x80 DUP3 ADD MLOAD DUP2 PUSH1 0x4 ADD PUSH1 0x0 PUSH2 0x100 EXP DUP2 SLOAD DUP2 PUSH20 0xFFFFFFFFFFFFFFFFFFFFFFFFFFFFFFFFFFFFFFFF MUL NOT AND SWAP1 DUP4 PUSH20 0xFFFFFFFFFFFFFFFFFFFFFFFFFFFFFFFFFFFFFFFF AND MUL OR SWAP1 SSTORE POP PUSH1 0xA0 DUP3 ADD MLOAD DUP2 PUSH1 0x5 ADD PUSH1 0x0 PUSH2 0x100 EXP DUP2 SLOAD DUP2 PUSH20 0xFFFFFFFFFFFFFFFFFFFFFFFFFFFFFFFFFFFFFFFF MUL NOT AND SWAP1 DUP4 PUSH20 0xFFFFFFFFFFFFFFFFFFFFFFFFFFFFFFFFFFFFFFFF AND MUL OR SWAP1 SSTORE POP PUSH1 0xC0 DUP3 ADD MLOAD DUP2 PUSH1 0x5 ADD PUSH1 0x14 PUSH2 0x100 EXP DUP2 SLOAD DUP2 PUSH1 0xFF MUL NOT AND SWAP1 DUP4 ISZERO ISZERO MUL OR SWAP1 SSTORE POP SWAP1 POP POP ADDRESS PUSH20 0xFFFFFFFFFFFFFFFFFFFFFFFFFFFFFFFFFFFFFFFF AND CALLER PUSH20 0xFFFFFFFFFFFFFFFFFFFFFFFFFFFFFFFFFFFFFFFF AND PUSH32 0xA0C6C0D02D86FDACECBAA5FDF5894BAB204E31A778250474108540733A9B8D19 DUP6 DUP6 DUP6 PUSH1 0x40 MLOAD PUSH2 0x4B7 SWAP4 SWAP3 SWAP2 SWAP1 PUSH2 0x655 JUMP JUMPDEST PUSH1 0x40 MLOAD DUP1 SWAP2 SUB SWAP1 LOG3 PUSH1 0x1 PUSH1 0x0 DUP2 SWAP1 SSTORE POP POP POP POP JUMP JUMPDEST PUSH1 0x1 DUP2 PUSH1 0x0 ADD PUSH1 0x0 DUP3 DUP3 SLOAD ADD SWAP3 POP POP DUP2 SWAP1 SSTORE POP POP JUMP JUMPDEST PUSH1 0x0 DUP2 CALLDATALOAD SWAP1 POP PUSH2 0x4F1 DUP2 PUSH2 0x7CF JUMP JUMPDEST SWAP3 SWAP2 POP POP JUMP JUMPDEST PUSH1 0x0 DUP2 CALLDATALOAD SWAP1 POP PUSH2 0x506 DUP2 PUSH2 0x7E6 JUMP JUMPDEST SWAP3 SWAP2 POP POP JUMP JUMPDEST PUSH1 0x0 DUP1 PUSH1 0x40 DUP4 DUP6 SUB SLT ISZERO PUSH2 0x51F JUMPI PUSH1 0x0 DUP1 REVERT JUMPDEST PUSH1 0x0 PUSH2 0x52D DUP6 DUP3 DUP7 ADD PUSH2 0x4E2 JUMP JUMPDEST SWAP3 POP POP PUSH1 0x20 PUSH2 0x53E DUP6 DUP3 DUP7 ADD PUSH2 0x4F7 JUMP JUMPDEST SWAP2 POP POP SWAP3 POP SWAP3 SWAP1 POP JUMP JUMPDEST PUSH1 0x0 DUP1 PUSH1 0x0 PUSH1 0x60 DUP5 DUP7 SUB SLT ISZERO PUSH2 0x55D JUMPI PUSH1 0x0 DUP1 REVERT JUMPDEST PUSH1 0x0 PUSH2 0x56B DUP7 DUP3 DUP8 ADD PUSH2 0x4E2 JUMP JUMPDEST SWAP4 POP POP PUSH1 0x20 PUSH2 0x57C DUP7 DUP3 DUP8 ADD PUSH2 0x4F7 JUMP JUMPDEST SWAP3 POP POP PUSH1 0x40 PUSH2 0x58D DUP7 DUP3 DUP8 ADD PUSH2 0x4F7 JUMP JUMPDEST SWAP2 POP POP SWAP3 POP SWAP3 POP SWAP3 JUMP JUMPDEST PUSH2 0x5A0 DUP2 PUSH2 0x718 JUMP JUMPDEST DUP3 MSTORE POP POP JUMP JUMPDEST PUSH1 0x0 PUSH2 0x5B3 PUSH1 0x20 DUP4 PUSH2 0x707 JUMP JUMPDEST SWAP2 POP PUSH2 0x5BE DUP3 PUSH2 0x754 JUMP JUMPDEST PUSH1 0x20 DUP3 ADD SWAP1 POP SWAP2 SWAP1 POP JUMP JUMPDEST PUSH1 0x0 PUSH2 0x5D6 PUSH1 0x1F DUP4 PUSH2 0x707 JUMP JUMPDEST SWAP2 POP PUSH2 0x5E1 DUP3 PUSH2 0x77D JUMP JUMPDEST PUSH1 0x20 DUP3 ADD SWAP1 POP SWAP2 SWAP1 POP JUMP JUMPDEST PUSH1 0x0 PUSH2 0x5F9 PUSH1 0x1C DUP4 PUSH2 0x707 JUMP JUMPDEST SWAP2 POP PUSH2 0x604 DUP3 PUSH2 0x7A6 JUMP JUMPDEST PUSH1 0x20 DUP3 ADD SWAP1 POP SWAP2 SWAP1 POP JUMP JUMPDEST PUSH2 0x618 DUP2 PUSH2 0x74A JUMP JUMPDEST DUP3 MSTORE POP POP JUMP JUMPDEST PUSH1 0x0 PUSH1 0x60 DUP3 ADD SWAP1 POP PUSH2 0x633 PUSH1 0x0 DUP4 ADD DUP7 PUSH2 0x597 JUMP JUMPDEST PUSH2 0x640 PUSH1 0x20 DUP4 ADD DUP6 PUSH2 0x597 JUMP JUMPDEST PUSH2 0x64D PUSH1 0x40 DUP4 ADD DUP5 PUSH2 0x60F JUMP JUMPDEST SWAP5 SWAP4 POP POP POP POP JUMP JUMPDEST PUSH1 0x0 PUSH1 0x60 DUP3 ADD SWAP1 POP PUSH2 0x66A PUSH1 0x0 DUP4 ADD DUP7 PUSH2 0x597 JUMP JUMPDEST PUSH2 0x677 PUSH1 0x20 DUP4 ADD DUP6 PUSH2 0x60F JUMP JUMPDEST PUSH2 0x684 PUSH1 0x40 DUP4 ADD DUP5 PUSH2 0x60F JUMP JUMPDEST SWAP5 SWAP4 POP POP POP POP JUMP JUMPDEST PUSH1 0x0 PUSH1 0x20 DUP3 ADD SWAP1 POP DUP2 DUP2 SUB PUSH1 0x0 DUP4 ADD MSTORE PUSH2 0x6A5 DUP2 PUSH2 0x5A6 JUMP JUMPDEST SWAP1 POP SWAP2 SWAP1 POP JUMP JUMPDEST PUSH1 0x0 PUSH1 0x20 DUP3 ADD SWAP1 POP DUP2 DUP2 SUB PUSH1 0x0 DUP4 ADD MSTORE PUSH2 0x6C5 DUP2 PUSH2 0x5C9 JUMP JUMPDEST SWAP1 POP SWAP2 SWAP1 POP JUMP JUMPDEST PUSH1 0x0 PUSH1 0x20 DUP3 ADD SWAP1 POP DUP2 DUP2 SUB PUSH1 0x0 DUP4 ADD MSTORE PUSH2 0x6E5 DUP2 PUSH2 0x5EC JUMP JUMPDEST SWAP1 POP SWAP2 SWAP1 POP JUMP JUMPDEST PUSH1 0x0 PUSH1 0x20 DUP3 ADD SWAP1 POP PUSH2 0x701 PUSH1 0x0 DUP4 ADD DUP5 PUSH2 0x60F JUMP JUMPDEST SWAP3 SWAP2 POP POP JUMP JUMPDEST PUSH1 0x0 DUP3 DUP3 MSTORE PUSH1 0x20 DUP3 ADD SWAP1 POP SWAP3 SWAP2 POP POP JUMP JUMPDEST PUSH1 0x0 PUSH2 0x723 DUP3 PUSH2 0x72A JUMP JUMPDEST SWAP1 POP SWAP2 SWAP1 POP JUMP JUMPDEST PUSH1 0x0 PUSH20 0xFFFFFFFFFFFFFFFFFFFFFFFFFFFFFFFFFFFFFFFF DUP3 AND SWAP1 POP SWAP2 SWAP1 POP JUMP JUMPDEST PUSH1 0x0 DUP2 SWAP1 POP SWAP2 SWAP1 POP JUMP JUMPDEST PUSH32 0x4E6F7420656E6F75676820657468657220666F72206C697374696E6720666565 PUSH1 0x0 DUP3 ADD MSTORE POP JUMP JUMPDEST PUSH32 0x5265656E7472616E637947756172643A207265656E7472616E742063616C6C00 PUSH1 0x0 DUP3 ADD MSTORE POP JUMP JUMPDEST PUSH32 0x5072696365206D757374206265206174206C6561737420312077656900000000 PUSH1 0x0 DUP3 ADD MSTORE POP JUMP JUMPDEST PUSH2 0x7D8 DUP2 PUSH2 0x718 JUMP JUMPDEST DUP2 EQ PUSH2 0x7E3 JUMPI PUSH1 0x0 DUP1 REVERT JUMPDEST POP JUMP JUMPDEST PUSH2 0x7EF DUP2 PUSH2 0x74A JUMP JUMPDEST DUP2 EQ PUSH2 0x7FA JUMPI PUSH1 0x0 DUP1 REVERT JUMPDEST POP JUMP INVALID LOG2 PUSH5 0x6970667358 0x22 SLT KECCAK256 STATICCALL 0xBF 0x49 0xB0 0xD7 0x22 SELFDESTRUCT ADDRESS 0x2F 0xE6 0xDC 0x22 SSTORE SWAP7 JUMPI INVALID SWAP11 0x27 BYTE 0xBD 0xD1 SIGNEXTEND 0xF8 SELFBALANCE SELFDESTRUCT DELEGATECALL 0xB4 0xFC PUSH20 0x713BAD64736F6C63430008010033000000000000 "
				},
				"gasEstimates": {
					"creation": {
						"codeDepositCost": "419800",
						"executionCost": "61341",
						"totalCost": "481141"
					},
					"external": {
						"LISTING_FEE()": "1107",
						"buyNft(address,uint256)": "26549",
						"listNFT(address,uint256,uint256)": "infinite"
					}
				},
				"methodIdentifiers": {
					"LISTING_FEE()": "2b86ae38",
					"buyNft(address,uint256)": "4ddf4f8f",
					"listNFT(address,uint256,uint256)": "ad05f1b4"
				}
			},
			"storageLayout": {
				"storage": [
					{
						"astId": 273,
						"contract": "contracts/GeekNftMarketPlace.sol:GeekNftMarketPlace",
						"label": "_status",
						"offset": 0,
						"slot": "0",
						"type": "t_uint256"
					},
					{
						"astId": 96,
						"contract": "contracts/GeekNftMarketPlace.sol:GeekNftMarketPlace",
						"label": "_nftsSold",
						"offset": 0,
						"slot": "1",
						"type": "t_struct(Counter)5_storage"
					},
					{
						"astId": 99,
						"contract": "contracts/GeekNftMarketPlace.sol:GeekNftMarketPlace",
						"label": "_nftsCount",
						"offset": 0,
						"slot": "2",
						"type": "t_struct(Counter)5_storage"
					},
					{
						"astId": 102,
						"contract": "contracts/GeekNftMarketPlace.sol:GeekNftMarketPlace",
						"label": "LISTING_FEE",
						"offset": 0,
						"slot": "3",
						"type": "t_uint256"
					},
					{
						"astId": 104,
						"contract": "contracts/GeekNftMarketPlace.sol:GeekNftMarketPlace",
						"label": "_marketOwwner",
						"offset": 0,
						"slot": "4",
						"type": "t_address_payable"
					},
					{
						"astId": 109,
						"contract": "contracts/GeekNftMarketPlace.sol:GeekNftMarketPlace",
						"label": "_idToNft",
						"offset": 0,
						"slot": "5",
						"type": "t_mapping(t_uint256,t_struct(NFT)124_storage)"
					}
				],
				"types": {
					"t_address": {
						"encoding": "inplace",
						"label": "address",
						"numberOfBytes": "20"
					},
					"t_address_payable": {
						"encoding": "inplace",
						"label": "address payable",
						"numberOfBytes": "20"
					},
					"t_bool": {
						"encoding": "inplace",
						"label": "bool",
						"numberOfBytes": "1"
					},
					"t_mapping(t_uint256,t_struct(NFT)124_storage)": {
						"encoding": "mapping",
						"key": "t_uint256",
						"label": "mapping(uint256 => struct GeekNftMarketPlace.NFT)",
						"numberOfBytes": "32",
						"value": "t_struct(NFT)124_storage"
					},
					"t_struct(Counter)5_storage": {
						"encoding": "inplace",
						"label": "struct Counters.Counter",
						"members": [
							{
								"astId": 4,
								"contract": "contracts/GeekNftMarketPlace.sol:GeekNftMarketPlace",
								"label": "_value",
								"offset": 0,
								"slot": "0",
								"type": "t_uint256"
							}
						],
						"numberOfBytes": "32"
					},
					"t_struct(NFT)124_storage": {
						"encoding": "inplace",
						"label": "struct GeekNftMarketPlace.NFT",
						"members": [
							{
								"astId": 111,
								"contract": "contracts/GeekNftMarketPlace.sol:GeekNftMarketPlace",
								"label": "nftContract",
								"offset": 0,
								"slot": "0",
								"type": "t_address"
							},
							{
								"astId": 113,
								"contract": "contracts/GeekNftMarketPlace.sol:GeekNftMarketPlace",
								"label": "tokenId",
								"offset": 0,
								"slot": "1",
								"type": "t_uint256"
							},
							{
								"astId": 115,
								"contract": "contracts/GeekNftMarketPlace.sol:GeekNftMarketPlace",
								"label": "price",
								"offset": 0,
								"slot": "2",
								"type": "t_uint256"
							},
							{
								"astId": 117,
								"contract": "contracts/GeekNftMarketPlace.sol:GeekNftMarketPlace",
								"label": "seller",
								"offset": 0,
								"slot": "3",
								"type": "t_address_payable"
							},
							{
								"astId": 119,
								"contract": "contracts/GeekNftMarketPlace.sol:GeekNftMarketPlace",
								"label": "owner",
								"offset": 0,
								"slot": "4",
								"type": "t_address_payable"
							},
							{
								"astId": 121,
								"contract": "contracts/GeekNftMarketPlace.sol:GeekNftMarketPlace",
								"label": "creator",
								"offset": 0,
								"slot": "5",
								"type": "t_address_payable"
							},
							{
								"astId": 123,
								"contract": "contracts/GeekNftMarketPlace.sol:GeekNftMarketPlace",
								"label": "listed",
								"offset": 20,
								"slot": "5",
								"type": "t_bool"
							}
						],
						"numberOfBytes": "192"
					},
					"t_uint256": {
						"encoding": "inplace",
						"label": "uint256",
						"numberOfBytes": "32"
					}
				}
			},
			"userdoc": {
				"kind": "user",
				"methods": {},
				"version": 1
			}
		}
	}
}