{
	"contracts/GeekNft.sol": {
		"GeekNft": {
			"abi": [
				{
					"inputs": [],
					"stateMutability": "nonpayable",
					"type": "constructor"
				},
				{
					"anonymous": false,
					"inputs": [
						{
							"indexed": true,
							"internalType": "address",
							"name": "_from",
							"type": "address"
						},
						{
							"indexed": true,
							"internalType": "address",
							"name": "_to",
							"type": "address"
						},
						{
							"indexed": false,
							"internalType": "uint256",
							"name": "_tokenId",
							"type": "uint256"
						}
					],
					"name": "Transfer",
					"type": "event"
				},
				{
					"inputs": [
						{
							"internalType": "uint256",
							"name": "_tokenId",
							"type": "uint256"
						}
					],
					"name": "addItemToSell",
					"outputs": [],
					"stateMutability": "payable",
					"type": "function"
				},
				{
					"inputs": [
						{
							"internalType": "address",
							"name": "_owner",
							"type": "address"
						}
					],
					"name": "balanceOf",
					"outputs": [
						{
							"internalType": "uint256",
							"name": "",
							"type": "uint256"
						}
					],
					"stateMutability": "view",
					"type": "function"
				},
				{
					"inputs": [],
					"name": "fetchItemsByCreator",
					"outputs": [
						{
							"components": [
								{
									"internalType": "uint256",
									"name": "dataId",
									"type": "uint256"
								},
								{
									"internalType": "uint256",
									"name": "tokenId",
									"type": "uint256"
								},
								{
									"internalType": "uint256",
									"name": "price",
									"type": "uint256"
								},
								{
									"internalType": "bool",
									"name": "toSell",
									"type": "bool"
								}
							],
							"internalType": "struct GeekNft.Item[]",
							"name": "",
							"type": "tuple[]"
						}
					],
					"stateMutability": "view",
					"type": "function"
				},
				{
					"inputs": [],
					"name": "fetchItemsByOwner",
					"outputs": [
						{
							"components": [
								{
									"internalType": "uint256",
									"name": "dataId",
									"type": "uint256"
								},
								{
									"internalType": "uint256",
									"name": "tokenId",
									"type": "uint256"
								},
								{
									"internalType": "uint256",
									"name": "price",
									"type": "uint256"
								},
								{
									"internalType": "bool",
									"name": "toSell",
									"type": "bool"
								}
							],
							"internalType": "struct GeekNft.Item[]",
							"name": "",
							"type": "tuple[]"
						}
					],
					"stateMutability": "view",
					"type": "function"
				},
				{
					"inputs": [],
					"name": "fetchItemsToSell",
					"outputs": [
						{
							"components": [
								{
									"internalType": "uint256",
									"name": "dataId",
									"type": "uint256"
								},
								{
									"internalType": "uint256",
									"name": "tokenId",
									"type": "uint256"
								},
								{
									"internalType": "uint256",
									"name": "price",
									"type": "uint256"
								},
								{
									"internalType": "bool",
									"name": "toSell",
									"type": "bool"
								}
							],
							"internalType": "struct GeekNft.Item[]",
							"name": "",
							"type": "tuple[]"
						}
					],
					"stateMutability": "view",
					"type": "function"
				},
				{
					"inputs": [
						{
							"internalType": "uint256",
							"name": "_catId",
							"type": "uint256"
						}
					],
					"name": "fetchItemsToSellByCatId",
					"outputs": [
						{
							"components": [
								{
									"internalType": "uint256",
									"name": "dataId",
									"type": "uint256"
								},
								{
									"internalType": "uint256",
									"name": "tokenId",
									"type": "uint256"
								},
								{
									"internalType": "uint256",
									"name": "price",
									"type": "uint256"
								},
								{
									"internalType": "bool",
									"name": "toSell",
									"type": "bool"
								}
							],
							"internalType": "struct GeekNft.Item[]",
							"name": "",
							"type": "tuple[]"
						}
					],
					"stateMutability": "view",
					"type": "function"
				},
				{
					"inputs": [],
					"name": "getCreateItemFees",
					"outputs": [
						{
							"internalType": "uint256",
							"name": "",
							"type": "uint256"
						}
					],
					"stateMutability": "view",
					"type": "function"
				},
				{
					"inputs": [],
					"name": "getCreatorPercentage",
					"outputs": [
						{
							"internalType": "uint256",
							"name": "",
							"type": "uint256"
						}
					],
					"stateMutability": "view",
					"type": "function"
				},
				{
					"inputs": [
						{
							"internalType": "uint256",
							"name": "_price",
							"type": "uint256"
						},
						{
							"internalType": "uint256",
							"name": "_catId",
							"type": "uint256"
						},
						{
							"internalType": "uint256",
							"name": "_dataId",
							"type": "uint256"
						}
					],
					"name": "mint",
					"outputs": [
						{
							"internalType": "uint256",
							"name": "",
							"type": "uint256"
						}
					],
					"stateMutability": "payable",
					"type": "function"
				},
				{
					"inputs": [
						{
							"internalType": "uint256",
							"name": "_tokenId",
							"type": "uint256"
						}
					],
					"name": "ownerOf",
					"outputs": [
						{
							"internalType": "address",
							"name": "",
							"type": "address"
						}
					],
					"stateMutability": "view",
					"type": "function"
				},
				{
					"inputs": [
						{
							"internalType": "uint256",
							"name": "_tokenId",
							"type": "uint256"
						}
					],
					"name": "removeItemToSell",
					"outputs": [],
					"stateMutability": "nonpayable",
					"type": "function"
				},
				{
					"inputs": [
						{
							"internalType": "uint256",
							"name": "_tokenId",
							"type": "uint256"
						}
					],
					"name": "sellItem",
					"outputs": [],
					"stateMutability": "payable",
					"type": "function"
				},
				{
					"inputs": [
						{
							"internalType": "uint256",
							"name": "_newFees",
							"type": "uint256"
						}
					],
					"name": "updateCreateItemFees",
					"outputs": [],
					"stateMutability": "nonpayable",
					"type": "function"
				},
				{
					"inputs": [
						{
							"internalType": "uint256",
							"name": "_newPercentage",
							"type": "uint256"
						}
					],
					"name": "updateCreatorPercentage",
					"outputs": [],
					"stateMutability": "nonpayable",
					"type": "function"
				}
			],
			"devdoc": {
				"kind": "dev",
				"methods": {},
				"version": 1
			},
			"evm": {
				"assembly": "    /* \"contracts/GeekNft.sol\":56:6407  contract GeekNft {... */\n  mstore(0x40, 0x80)\n    /* \"contracts/GeekNft.sol\":389:402  0.00025 ether */\n  0xe35fa931a000\n    /* \"contracts/GeekNft.sol\":367:402  uint createItemFees = 0.00025 ether */\n  0x05\n  sstore\n    /* \"contracts/GeekNft.sol\":433:434  5 */\n  0x05\n    /* \"contracts/GeekNft.sol\":408:434  uint creatorPercentage = 5 */\n  0x06\n  sstore\n    /* \"contracts/GeekNft.sol\":706:811  constructor() {... */\n  callvalue\n  dup1\n  iszero\n  tag_1\n  jumpi\n  0x00\n  dup1\n  revert\ntag_1:\n  pop\n    /* \"contracts/GeekNft.sol\":738:748  msg.sender */\n  caller\n    /* \"contracts/GeekNft.sol\":730:735  owner */\n  0x02\n  0x00\n    /* \"contracts/GeekNft.sol\":730:748  owner = msg.sender */\n  0x0100\n  exp\n  dup2\n  sload\n  dup2\n  0xffffffffffffffffffffffffffffffffffffffff\n  mul\n  not\n  and\n  swap1\n  dup4\n  0xffffffffffffffffffffffffffffffffffffffff\n  and\n  mul\n  or\n  swap1\n  sstore\n  pop\n    /* \"contracts/GeekNft.sol\":758:778  name = \"Geek Tokens\" */\n  mload(0x40)\n  dup1\n  0x40\n  add\n  0x40\n  mstore\n  dup1\n  0x0b\n  dup2\n  mstore\n  0x20\n  add\n  0x4765656b20546f6b656e73000000000000000000000000000000000000000000\n  dup2\n  mstore\n  pop\n    /* \"contracts/GeekNft.sol\":758:762  name */\n  0x00\n    /* \"contracts/GeekNft.sol\":758:778  name = \"Geek Tokens\" */\n  swap1\n  dup1\n  mload\n  swap1\n  0x20\n  add\n  swap1\n  tag_4\n  swap3\n  swap2\n  swap1\n  tag_5\n  jump\t// in\ntag_4:\n  pop\n    /* \"contracts/GeekNft.sol\":788:804  symbol = \"GEEKT\" */\n  mload(0x40)\n  dup1\n  0x40\n  add\n  0x40\n  mstore\n  dup1\n  0x05\n  dup2\n  mstore\n  0x20\n  add\n  0x4745454b54000000000000000000000000000000000000000000000000000000\n  dup2\n  mstore\n  pop\n    /* \"contracts/GeekNft.sol\":788:794  symbol */\n  0x01\n    /* \"contracts/GeekNft.sol\":788:804  symbol = \"GEEKT\" */\n  swap1\n  dup1\n  mload\n  swap1\n  0x20\n  add\n  swap1\n  tag_6\n  swap3\n  swap2\n  swap1\n  tag_5\n  jump\t// in\ntag_6:\n  pop\n    /* \"contracts/GeekNft.sol\":56:6407  contract GeekNft {... */\n  jump(tag_7)\ntag_5:\n  dup3\n  dup1\n  sload\n  tag_8\n  swap1\n  tag_9\n  jump\t// in\ntag_8:\n  swap1\n  0x00\n  mstore\n  keccak256(0x00, 0x20)\n  swap1\n  0x1f\n  add\n  0x20\n  swap1\n  div\n  dup2\n  add\n  swap3\n  dup3\n  tag_11\n  jumpi\n  0x00\n  dup6\n  sstore\n  jump(tag_10)\ntag_11:\n  dup3\n  0x1f\n  lt\n  tag_12\n  jumpi\n  dup1\n  mload\n  not(0xff)\n  and\n  dup4\n  dup1\n  add\n  or\n  dup6\n  sstore\n  jump(tag_10)\ntag_12:\n  dup3\n  dup1\n  add\n  0x01\n  add\n  dup6\n  sstore\n  dup3\n  iszero\n  tag_10\n  jumpi\n  swap2\n  dup3\n  add\ntag_13:\n  dup3\n  dup2\n  gt\n  iszero\n  tag_14\n  jumpi\n  dup3\n  mload\n  dup3\n  sstore\n  swap2\n  0x20\n  add\n  swap2\n  swap1\n  0x01\n  add\n  swap1\n  jump(tag_13)\ntag_14:\ntag_10:\n  pop\n  swap1\n  pop\n  tag_15\n  swap2\n  swap1\n  tag_16\n  jump\t// in\ntag_15:\n  pop\n  swap1\n  jump\t// out\ntag_16:\ntag_17:\n  dup1\n  dup3\n  gt\n  iszero\n  tag_18\n  jumpi\n  0x00\n  dup2\n  0x00\n  swap1\n  sstore\n  pop\n  0x01\n  add\n  jump(tag_17)\ntag_18:\n  pop\n  swap1\n  jump\t// out\n    /* \"#utility.yul\":7:327   */\ntag_9:\n  0x00\n    /* \"#utility.yul\":88:89   */\n  0x02\n    /* \"#utility.yul\":82:86   */\n  dup3\n    /* \"#utility.yul\":78:90   */\n  div\n    /* \"#utility.yul\":68:90   */\n  swap1\n  pop\n    /* \"#utility.yul\":135:136   */\n  0x01\n    /* \"#utility.yul\":129:133   */\n  dup3\n    /* \"#utility.yul\":125:137   */\n  and\n    /* \"#utility.yul\":156:174   */\n  dup1\n    /* \"#utility.yul\":146:148   */\n  tag_21\n  jumpi\n    /* \"#utility.yul\":212:216   */\n  0x7f\n    /* \"#utility.yul\":204:210   */\n  dup3\n    /* \"#utility.yul\":200:217   */\n  and\n    /* \"#utility.yul\":190:217   */\n  swap2\n  pop\n    /* \"#utility.yul\":146:148   */\ntag_21:\n    /* \"#utility.yul\":274:276   */\n  0x20\n    /* \"#utility.yul\":266:272   */\n  dup3\n    /* \"#utility.yul\":263:277   */\n  lt\n    /* \"#utility.yul\":243:261   */\n  dup2\n    /* \"#utility.yul\":240:278   */\n  eq\n    /* \"#utility.yul\":237:239   */\n  iszero\n  tag_22\n  jumpi\n    /* \"#utility.yul\":293:311   */\n  tag_23\n  tag_24\n  jump\t// in\ntag_23:\n    /* \"#utility.yul\":237:239   */\ntag_22:\n    /* \"#utility.yul\":58:327   */\n  pop\n  swap2\n  swap1\n  pop\n  jump\t// out\n    /* \"#utility.yul\":333:513   */\ntag_24:\n    /* \"#utility.yul\":381:458   */\n  0x4e487b7100000000000000000000000000000000000000000000000000000000\n    /* \"#utility.yul\":378:379   */\n  0x00\n    /* \"#utility.yul\":371:459   */\n  mstore\n    /* \"#utility.yul\":478:482   */\n  0x22\n    /* \"#utility.yul\":475:476   */\n  0x04\n    /* \"#utility.yul\":468:483   */\n  mstore\n    /* \"#utility.yul\":502:506   */\n  0x24\n    /* \"#utility.yul\":499:500   */\n  0x00\n    /* \"#utility.yul\":492:507   */\n  revert\n    /* \"contracts/GeekNft.sol\":56:6407  contract GeekNft {... */\ntag_7:\n  dataSize(sub_0)\n  dup1\n  dataOffset(sub_0)\n  0x00\n  codecopy\n  0x00\n  return\nstop\n\nsub_0: assembly {\n        /* \"contracts/GeekNft.sol\":56:6407  contract GeekNft {... */\n      mstore(0x40, 0x80)\n      jumpi(tag_1, lt(calldatasize, 0x04))\n      shr(0xe0, calldataload(0x00))\n      dup1\n      0x67af7d09\n      gt\n      tag_16\n      jumpi\n      dup1\n      0xa411d68d\n      gt\n      tag_17\n      jumpi\n      dup1\n      0xa411d68d\n      eq\n      tag_12\n      jumpi\n      dup1\n      0xa4964c33\n      eq\n      tag_13\n      jumpi\n      dup1\n      0xc0f202ef\n      eq\n      tag_14\n      jumpi\n      dup1\n      0xe6e95ea7\n      eq\n      tag_15\n      jumpi\n      jump(tag_1)\n    tag_17:\n      dup1\n      0x67af7d09\n      eq\n      tag_9\n      jumpi\n      dup1\n      0x70a08231\n      eq\n      tag_10\n      jumpi\n      dup1\n      0x91b6be9a\n      eq\n      tag_11\n      jumpi\n      jump(tag_1)\n    tag_16:\n      dup1\n      0x1b03427c\n      gt\n      tag_18\n      jumpi\n      dup1\n      0x1b03427c\n      eq\n      tag_5\n      jumpi\n      dup1\n      0x406693b2\n      eq\n      tag_6\n      jumpi\n      dup1\n      0x4cad2ffc\n      eq\n      tag_7\n      jumpi\n      dup1\n      0x6352211e\n      eq\n      tag_8\n      jumpi\n      jump(tag_1)\n    tag_18:\n      dup1\n      0x02acc94b\n      eq\n      tag_2\n      jumpi\n      dup1\n      0x073e74df\n      eq\n      tag_3\n      jumpi\n      dup1\n      0x160035b1\n      eq\n      tag_4\n      jumpi\n    tag_1:\n      0x00\n      dup1\n      revert\n        /* \"contracts/GeekNft.sol\":1691:2439  function mint(uint _price, uint _catId, uint _dataId) public payable sendCorrectFeesValue returns (uint){... */\n    tag_2:\n      tag_19\n      0x04\n      dup1\n      calldatasize\n      sub\n      dup2\n      add\n      swap1\n      tag_20\n      swap2\n      swap1\n      tag_21\n      jump\t// in\n    tag_20:\n      tag_22\n      jump\t// in\n    tag_19:\n      mload(0x40)\n      tag_23\n      swap2\n      swap1\n      tag_24\n      jump\t// in\n    tag_23:\n      mload(0x40)\n      dup1\n      swap2\n      sub\n      swap1\n      return\n        /* \"contracts/GeekNft.sol\":4532:4899  function fetchItemsToSell() public view returns (Item[] memory){... */\n    tag_3:\n      callvalue\n      dup1\n      iszero\n      tag_25\n      jumpi\n      0x00\n      dup1\n      revert\n    tag_25:\n      pop\n      tag_26\n      tag_27\n      jump\t// in\n    tag_26:\n      mload(0x40)\n      tag_28\n      swap2\n      swap1\n      tag_29\n      jump\t// in\n    tag_28:\n      mload(0x40)\n      dup1\n      swap2\n      sub\n      swap1\n      return\n        /* \"contracts/GeekNft.sol\":1585:1685  function getCreatorPercentage() public view returns (uint) {... */\n    tag_4:\n      callvalue\n      dup1\n      iszero\n      tag_30\n      jumpi\n      0x00\n      dup1\n      revert\n    tag_30:\n      pop\n      tag_31\n      tag_32\n      jump\t// in\n    tag_31:\n      mload(0x40)\n      tag_33\n      swap2\n      swap1\n      tag_24\n      jump\t// in\n    tag_33:\n      mload(0x40)\n      dup1\n      swap2\n      sub\n      swap1\n      return\n        /* \"contracts/GeekNft.sol\":1450:1579  function updateCreatorPercentage(uint _newPercentage) public onlyContractOwner{... */\n    tag_5:\n      callvalue\n      dup1\n      iszero\n      tag_34\n      jumpi\n      0x00\n      dup1\n      revert\n    tag_34:\n      pop\n      tag_35\n      0x04\n      dup1\n      calldatasize\n      sub\n      dup2\n      add\n      swap1\n      tag_36\n      swap2\n      swap1\n      tag_37\n      jump\t// in\n    tag_36:\n      tag_38\n      jump\t// in\n    tag_35:\n      stop\n        /* \"contracts/GeekNft.sol\":5691:6111  function fetchItemsToSellByCatId(uint _catId) public view returns (Item[] memory){... */\n    tag_6:\n      callvalue\n      dup1\n      iszero\n      tag_39\n      jumpi\n      0x00\n      dup1\n      revert\n    tag_39:\n      pop\n      tag_40\n      0x04\n      dup1\n      calldatasize\n      sub\n      dup2\n      add\n      swap1\n      tag_41\n      swap2\n      swap1\n      tag_37\n      jump\t// in\n    tag_41:\n      tag_42\n      jump\t// in\n    tag_40:\n      mload(0x40)\n      tag_43\n      swap2\n      swap1\n      tag_29\n      jump\t// in\n    tag_43:\n      mload(0x40)\n      dup1\n      swap2\n      sub\n      swap1\n      return\n        /* \"contracts/GeekNft.sol\":4905:5289  function fetchItemsByOwner() public view returns (Item[] memory){... */\n    tag_7:\n      callvalue\n      dup1\n      iszero\n      tag_44\n      jumpi\n      0x00\n      dup1\n      revert\n    tag_44:\n      pop\n      tag_45\n      tag_46\n      jump\t// in\n    tag_45:\n      mload(0x40)\n      tag_47\n      swap2\n      swap1\n      tag_29\n      jump\t// in\n    tag_47:\n      mload(0x40)\n      dup1\n      swap2\n      sub\n      swap1\n      return\n        /* \"contracts/GeekNft.sol\":3561:3667  function ownerOf(uint _tokenId) public view returns (address){... */\n    tag_8:\n      callvalue\n      dup1\n      iszero\n      tag_48\n      jumpi\n      0x00\n      dup1\n      revert\n    tag_48:\n      pop\n      tag_49\n      0x04\n      dup1\n      calldatasize\n      sub\n      dup2\n      add\n      swap1\n      tag_50\n      swap2\n      swap1\n      tag_37\n      jump\t// in\n    tag_50:\n      tag_51\n      jump\t// in\n    tag_49:\n      mload(0x40)\n      tag_52\n      swap2\n      swap1\n      tag_53\n      jump\t// in\n    tag_52:\n      mload(0x40)\n      dup1\n      swap2\n      sub\n      swap1\n      return\n        /* \"contracts/GeekNft.sol\":5295:5685  function fetchItemsByCreator() public view returns (Item[] memory){... */\n    tag_9:\n      callvalue\n      dup1\n      iszero\n      tag_54\n      jumpi\n      0x00\n      dup1\n      revert\n    tag_54:\n      pop\n      tag_55\n      tag_56\n      jump\t// in\n    tag_55:\n      mload(0x40)\n      tag_57\n      swap2\n      swap1\n      tag_29\n      jump\t// in\n    tag_57:\n      mload(0x40)\n      dup1\n      swap2\n      sub\n      swap1\n      return\n        /* \"contracts/GeekNft.sol\":3673:3781  function balanceOf(address _owner) public view returns (uint){... */\n    tag_10:\n      callvalue\n      dup1\n      iszero\n      tag_58\n      jumpi\n      0x00\n      dup1\n      revert\n    tag_58:\n      pop\n      tag_59\n      0x04\n      dup1\n      calldatasize\n      sub\n      dup2\n      add\n      swap1\n      tag_60\n      swap2\n      swap1\n      tag_61\n      jump\t// in\n    tag_60:\n      tag_62\n      jump\t// in\n    tag_59:\n      mload(0x40)\n      tag_63\n      swap2\n      swap1\n      tag_24\n      jump\t// in\n    tag_63:\n      mload(0x40)\n      dup1\n      swap2\n      sub\n      swap1\n      return\n        /* \"contracts/GeekNft.sol\":2445:3555  function sellItem(uint _tokenId) public payable{... */\n    tag_11:\n      tag_64\n      0x04\n      dup1\n      calldatasize\n      sub\n      dup2\n      add\n      swap1\n      tag_65\n      swap2\n      swap1\n      tag_37\n      jump\t// in\n    tag_65:\n      tag_66\n      jump\t// in\n    tag_64:\n      stop\n        /* \"contracts/GeekNft.sol\":1350:1444  function getCreateItemFees() public view returns (uint) {... */\n    tag_12:\n      callvalue\n      dup1\n      iszero\n      tag_67\n      jumpi\n      0x00\n      dup1\n      revert\n    tag_67:\n      pop\n      tag_68\n      tag_69\n      jump\t// in\n    tag_68:\n      mload(0x40)\n      tag_70\n      swap2\n      swap1\n      tag_24\n      jump\t// in\n    tag_70:\n      mload(0x40)\n      dup1\n      swap2\n      sub\n      swap1\n      return\n        /* \"contracts/GeekNft.sol\":3787:4116  function removeItemToSell(uint _tokenId) public onlyItemOwner(_tokenId) {... */\n    tag_13:\n      callvalue\n      dup1\n      iszero\n      tag_71\n      jumpi\n      0x00\n      dup1\n      revert\n    tag_71:\n      pop\n      tag_72\n      0x04\n      dup1\n      calldatasize\n      sub\n      dup2\n      add\n      swap1\n      tag_73\n      swap2\n      swap1\n      tag_37\n      jump\t// in\n    tag_73:\n      tag_74\n      jump\t// in\n    tag_72:\n      stop\n        /* \"contracts/GeekNft.sol\":4122:4526  function addItemToSell(uint _tokenId) public payable sendCorrectFeesValue onlyItemOwner(_tokenId) {... */\n    tag_14:\n      tag_75\n      0x04\n      dup1\n      calldatasize\n      sub\n      dup2\n      add\n      swap1\n      tag_76\n      swap2\n      swap1\n      tag_37\n      jump\t// in\n    tag_76:\n      tag_77\n      jump\t// in\n    tag_75:\n      stop\n        /* \"contracts/GeekNft.sol\":1233:1344  function updateCreateItemFees(uint _newFees) public onlyContractOwner{... */\n    tag_15:\n      callvalue\n      dup1\n      iszero\n      tag_78\n      jumpi\n      0x00\n      dup1\n      revert\n    tag_78:\n      pop\n      tag_79\n      0x04\n      dup1\n      calldatasize\n      sub\n      dup2\n      add\n      swap1\n      tag_80\n      swap2\n      swap1\n      tag_37\n      jump\t// in\n    tag_80:\n      tag_81\n      jump\t// in\n    tag_79:\n      stop\n        /* \"contracts/GeekNft.sol\":1691:2439  function mint(uint _price, uint _catId, uint _dataId) public payable sendCorrectFeesValue returns (uint){... */\n    tag_22:\n        /* \"contracts/GeekNft.sol\":1790:1794  uint */\n      0x00\n        /* \"contracts/GeekNft.sol\":1157:1171  createItemFees */\n      sload(0x05)\n        /* \"contracts/GeekNft.sol\":1144:1153  msg.value */\n      callvalue\n        /* \"contracts/GeekNft.sol\":1144:1171  msg.value == createItemFees */\n      eq\n        /* \"contracts/GeekNft.sol\":1136:1209  require(msg.value == createItemFees, \"Thanks to send correct fees value\") */\n      tag_83\n      jumpi\n      mload(0x40)\n      0x08c379a000000000000000000000000000000000000000000000000000000000\n      dup2\n      mstore\n      0x04\n      add\n      tag_84\n      swap1\n      tag_85\n      jump\t// in\n    tag_84:\n      mload(0x40)\n      dup1\n      swap2\n      sub\n      swap1\n      revert\n    tag_83:\n        /* \"contracts/GeekNft.sol\":1822:1823  0 */\n      0x00\n        /* \"contracts/GeekNft.sol\":1813:1819  _price */\n      dup5\n        /* \"contracts/GeekNft.sol\":1813:1823  _price > 0 */\n      gt\n        /* \"contracts/GeekNft.sol\":1805:1854  require(_price > 0, \"Price cannot be equal to 0\") */\n      tag_87\n      jumpi\n      mload(0x40)\n      0x08c379a000000000000000000000000000000000000000000000000000000000\n      dup2\n      mstore\n      0x04\n      add\n      tag_88\n      swap1\n      tag_89\n      jump\t// in\n    tag_88:\n      mload(0x40)\n      dup1\n      swap2\n      sub\n      swap1\n      revert\n    tag_87:\n        /* \"contracts/GeekNft.sol\":1864:1879  uint newTokenId */\n      0x00\n        /* \"contracts/GeekNft.sol\":1882:1887  items */\n      0x03\n        /* \"contracts/GeekNft.sol\":1882:1894  items.length */\n      dup1\n      sload\n      swap1\n      pop\n        /* \"contracts/GeekNft.sol\":1864:1894  uint newTokenId = items.length */\n      swap1\n      pop\n        /* \"contracts/GeekNft.sol\":1948:1949  0 */\n      0x00\n        /* \"contracts/GeekNft.sol\":1913:1950  itemToOwner[newTokenId] == address(0) */\n      0xffffffffffffffffffffffffffffffffffffffff\n      and\n        /* \"contracts/GeekNft.sol\":1913:1924  itemToOwner */\n      0x08\n        /* \"contracts/GeekNft.sol\":1913:1936  itemToOwner[newTokenId] */\n      0x00\n        /* \"contracts/GeekNft.sol\":1925:1935  newTokenId */\n      dup4\n        /* \"contracts/GeekNft.sol\":1913:1936  itemToOwner[newTokenId] */\n      dup2\n      mstore\n      0x20\n      add\n      swap1\n      dup2\n      mstore\n      0x20\n      add\n      0x00\n      keccak256\n      0x00\n      swap1\n      sload\n      swap1\n      0x0100\n      exp\n      swap1\n      div\n      0xffffffffffffffffffffffffffffffffffffffff\n      and\n        /* \"contracts/GeekNft.sol\":1913:1950  itemToOwner[newTokenId] == address(0) */\n      0xffffffffffffffffffffffffffffffffffffffff\n      and\n      eq\n        /* \"contracts/GeekNft.sol\":1905:1974  require(itemToOwner[newTokenId] == address(0), \"token already exist\") */\n      tag_90\n      jumpi\n      mload(0x40)\n      0x08c379a000000000000000000000000000000000000000000000000000000000\n      dup2\n      mstore\n      0x04\n      add\n      tag_91\n      swap1\n      tag_92\n      jump\t// in\n    tag_91:\n      mload(0x40)\n      dup1\n      swap2\n      sub\n      swap1\n      revert\n    tag_90:\n        /* \"contracts/GeekNft.sol\":1985:1990  items */\n      0x03\n        /* \"contracts/GeekNft.sol\":1996:2035  Item(_dataId, newTokenId, _price, true) */\n      mload(0x40)\n      dup1\n      0x80\n      add\n      0x40\n      mstore\n      dup1\n        /* \"contracts/GeekNft.sol\":2001:2008  _dataId */\n      dup6\n        /* \"contracts/GeekNft.sol\":1996:2035  Item(_dataId, newTokenId, _price, true) */\n      dup2\n      mstore\n      0x20\n      add\n        /* \"contracts/GeekNft.sol\":2010:2020  newTokenId */\n      dup4\n        /* \"contracts/GeekNft.sol\":1996:2035  Item(_dataId, newTokenId, _price, true) */\n      dup2\n      mstore\n      0x20\n      add\n        /* \"contracts/GeekNft.sol\":2022:2028  _price */\n      dup8\n        /* \"contracts/GeekNft.sol\":1996:2035  Item(_dataId, newTokenId, _price, true) */\n      dup2\n      mstore\n      0x20\n      add\n        /* \"contracts/GeekNft.sol\":2030:2034  true */\n      0x01\n        /* \"contracts/GeekNft.sol\":1996:2035  Item(_dataId, newTokenId, _price, true) */\n      iszero\n      iszero\n      dup2\n      mstore\n      pop\n        /* \"contracts/GeekNft.sol\":1985:2036  items.push(Item(_dataId, newTokenId, _price, true)) */\n      swap1\n      dup1\n      0x01\n      dup2\n      sload\n      add\n      dup1\n      dup3\n      sstore\n      dup1\n      swap2\n      pop\n      pop\n      0x01\n      swap1\n      sub\n      swap1\n      0x00\n      mstore\n      keccak256(0x00, 0x20)\n      swap1\n      0x04\n      mul\n      add\n      0x00\n      swap1\n      swap2\n      swap1\n      swap2\n      swap1\n      swap2\n      pop\n      0x00\n      dup3\n      add\n      mload\n      dup2\n      0x00\n      add\n      sstore\n      0x20\n      dup3\n      add\n      mload\n      dup2\n      0x01\n      add\n      sstore\n      0x40\n      dup3\n      add\n      mload\n      dup2\n      0x02\n      add\n      sstore\n      0x60\n      dup3\n      add\n      mload\n      dup2\n      0x03\n      add\n      exp(0x0100, 0x00)\n      dup2\n      sload\n      dup2\n      0xff\n      mul\n      not\n      and\n      swap1\n      dup4\n      iszero\n      iszero\n      mul\n      or\n      swap1\n      sstore\n      pop\n      pop\n      pop\n        /* \"contracts/GeekNft.sol\":2072:2082  msg.sender */\n      caller\n        /* \"contracts/GeekNft.sol\":2046:2057  itemToOwner */\n      0x08\n        /* \"contracts/GeekNft.sol\":2046:2069  itemToOwner[newTokenId] */\n      0x00\n        /* \"contracts/GeekNft.sol\":2058:2068  newTokenId */\n      dup4\n        /* \"contracts/GeekNft.sol\":2046:2069  itemToOwner[newTokenId] */\n      dup2\n      mstore\n      0x20\n      add\n      swap1\n      dup2\n      mstore\n      0x20\n      add\n      0x00\n      keccak256\n      0x00\n        /* \"contracts/GeekNft.sol\":2046:2082  itemToOwner[newTokenId] = msg.sender */\n      0x0100\n      exp\n      dup2\n      sload\n      dup2\n      0xffffffffffffffffffffffffffffffffffffffff\n      mul\n      not\n      and\n      swap1\n      dup4\n      0xffffffffffffffffffffffffffffffffffffffff\n      and\n      mul\n      or\n      swap1\n      sstore\n      pop\n        /* \"contracts/GeekNft.sol\":2120:2130  msg.sender */\n      caller\n        /* \"contracts/GeekNft.sol\":2092:2105  itemToCreator */\n      0x0a\n        /* \"contracts/GeekNft.sol\":2092:2117  itemToCreator[newTokenId] */\n      0x00\n        /* \"contracts/GeekNft.sol\":2106:2116  newTokenId */\n      dup4\n        /* \"contracts/GeekNft.sol\":2092:2117  itemToCreator[newTokenId] */\n      dup2\n      mstore\n      0x20\n      add\n      swap1\n      dup2\n      mstore\n      0x20\n      add\n      0x00\n      keccak256\n      0x00\n        /* \"contracts/GeekNft.sol\":2092:2130  itemToCreator[newTokenId] = msg.sender */\n      0x0100\n      exp\n      dup2\n      sload\n      dup2\n      0xffffffffffffffffffffffffffffffffffffffff\n      mul\n      not\n      and\n      swap1\n      dup4\n      0xffffffffffffffffffffffffffffffffffffffff\n      and\n      mul\n      or\n      swap1\n      sstore\n      pop\n        /* \"contracts/GeekNft.sol\":2166:2172  _catId */\n      dup4\n        /* \"contracts/GeekNft.sol\":2140:2151  itemToCatId */\n      0x0c\n        /* \"contracts/GeekNft.sol\":2140:2163  itemToCatId[newTokenId] */\n      0x00\n        /* \"contracts/GeekNft.sol\":2152:2162  newTokenId */\n      dup4\n        /* \"contracts/GeekNft.sol\":2140:2163  itemToCatId[newTokenId] */\n      dup2\n      mstore\n      0x20\n      add\n      swap1\n      dup2\n      mstore\n      0x20\n      add\n      0x00\n      keccak256\n        /* \"contracts/GeekNft.sol\":2140:2172  itemToCatId[newTokenId] = _catId */\n      dup2\n      swap1\n      sstore\n      pop\n        /* \"contracts/GeekNft.sol\":2206:2221  itemsOwnerCount */\n      0x07\n        /* \"contracts/GeekNft.sol\":2206:2233  itemsOwnerCount[msg.sender] */\n      0x00\n        /* \"contracts/GeekNft.sol\":2222:2232  msg.sender */\n      caller\n        /* \"contracts/GeekNft.sol\":2206:2233  itemsOwnerCount[msg.sender] */\n      0xffffffffffffffffffffffffffffffffffffffff\n      and\n      0xffffffffffffffffffffffffffffffffffffffff\n      and\n      dup2\n      mstore\n      0x20\n      add\n      swap1\n      dup2\n      mstore\n      0x20\n      add\n      0x00\n      keccak256\n      0x00\n        /* \"contracts/GeekNft.sol\":2206:2235  itemsOwnerCount[msg.sender]++ */\n      dup2\n      sload\n      dup1\n      swap3\n      swap2\n      swap1\n      0x01\n      add\n      swap2\n      swap1\n      pop\n      sstore\n      pop\n        /* \"contracts/GeekNft.sol\":2249:2266  itemsCreatorCount */\n      0x09\n        /* \"contracts/GeekNft.sol\":2249:2278  itemsCreatorCount[msg.sender] */\n      0x00\n        /* \"contracts/GeekNft.sol\":2267:2277  msg.sender */\n      caller\n        /* \"contracts/GeekNft.sol\":2249:2278  itemsCreatorCount[msg.sender] */\n      0xffffffffffffffffffffffffffffffffffffffff\n      and\n      0xffffffffffffffffffffffffffffffffffffffff\n      and\n      dup2\n      mstore\n      0x20\n      add\n      swap1\n      dup2\n      mstore\n      0x20\n      add\n      0x00\n      keccak256\n      0x00\n        /* \"contracts/GeekNft.sol\":2249:2280  itemsCreatorCount[msg.sender]++ */\n      dup2\n      sload\n      dup1\n      swap3\n      swap2\n      swap1\n      0x01\n      add\n      swap2\n      swap1\n      pop\n      sstore\n      pop\n        /* \"contracts/GeekNft.sol\":2294:2309  itemsCatIdCount */\n      0x0b\n        /* \"contracts/GeekNft.sol\":2294:2317  itemsCatIdCount[_catId] */\n      0x00\n        /* \"contracts/GeekNft.sol\":2310:2316  _catId */\n      dup6\n        /* \"contracts/GeekNft.sol\":2294:2317  itemsCatIdCount[_catId] */\n      dup2\n      mstore\n      0x20\n      add\n      swap1\n      dup2\n      mstore\n      0x20\n      add\n      0x00\n      keccak256\n      0x00\n        /* \"contracts/GeekNft.sol\":2294:2319  itemsCatIdCount[_catId]++ */\n      dup2\n      sload\n      dup1\n      swap3\n      swap2\n      swap1\n      0x01\n      add\n      swap2\n      swap1\n      pop\n      sstore\n      pop\n        /* \"contracts/GeekNft.sol\":2333:2349  itemsToSellCount */\n      0x04\n      0x00\n        /* \"contracts/GeekNft.sol\":2333:2351  itemsToSellCount++ */\n      dup2\n      sload\n      dup1\n      swap3\n      swap2\n      swap1\n      0x01\n      add\n      swap2\n      swap1\n      pop\n      sstore\n      pop\n        /* \"contracts/GeekNft.sol\":2379:2384  owner */\n      0x02\n      0x00\n      swap1\n      sload\n      swap1\n      0x0100\n      exp\n      swap1\n      div\n      0xffffffffffffffffffffffffffffffffffffffff\n      and\n        /* \"contracts/GeekNft.sol\":2371:2394  payable(owner).transfer */\n      0xffffffffffffffffffffffffffffffffffffffff\n      and\n        /* \"contracts/GeekNft.sol\":2371:2405  payable(owner).transfer(msg.value) */\n      0x08fc\n        /* \"contracts/GeekNft.sol\":2395:2404  msg.value */\n      callvalue\n        /* \"contracts/GeekNft.sol\":2371:2405  payable(owner).transfer(msg.value) */\n      swap1\n      dup2\n      iszero\n      mul\n      swap1\n      mload(0x40)\n      0x00\n      mload(0x40)\n      dup1\n      dup4\n      sub\n      dup2\n      dup6\n      dup9\n      dup9\n      call\n      swap4\n      pop\n      pop\n      pop\n      pop\n      iszero\n      dup1\n      iszero\n      tag_95\n      jumpi\n      returndatasize\n      0x00\n      dup1\n      returndatacopy\n      revert(0x00, returndatasize)\n    tag_95:\n      pop\n        /* \"contracts/GeekNft.sol\":2422:2432  newTokenId */\n      dup1\n        /* \"contracts/GeekNft.sol\":2415:2432  return newTokenId */\n      swap2\n      pop\n      pop\n        /* \"contracts/GeekNft.sol\":1691:2439  function mint(uint _price, uint _catId, uint _dataId) public payable sendCorrectFeesValue returns (uint){... */\n      swap4\n      swap3\n      pop\n      pop\n      pop\n      jump\t// out\n        /* \"contracts/GeekNft.sol\":4532:4899  function fetchItemsToSell() public view returns (Item[] memory){... */\n    tag_27:\n        /* \"contracts/GeekNft.sol\":4581:4594  Item[] memory */\n      0x60\n        /* \"contracts/GeekNft.sol\":4605:4617  uint counter */\n      0x00\n        /* \"contracts/GeekNft.sol\":4631:4651  Item[] memory result */\n      dup1\n        /* \"contracts/GeekNft.sol\":4665:4681  itemsToSellCount */\n      sload(0x04)\n        /* \"contracts/GeekNft.sol\":4654:4682  new Item[](itemsToSellCount) */\n      0xffffffffffffffff\n      dup2\n      gt\n      iszero\n      tag_97\n      jumpi\n      mstore(0x00, 0x4e487b7100000000000000000000000000000000000000000000000000000000)\n      mstore(0x04, 0x41)\n      revert(0x00, 0x24)\n    tag_97:\n      mload(0x40)\n      swap1\n      dup1\n      dup3\n      mstore\n      dup1\n      0x20\n      mul\n      0x20\n      add\n      dup3\n      add\n      0x40\n      mstore\n      dup1\n      iszero\n      tag_98\n      jumpi\n      dup2\n      0x20\n      add\n    tag_99:\n      tag_100\n      tag_101\n      jump\t// in\n    tag_100:\n      dup2\n      mstore\n      0x20\n      add\n      swap1\n      0x01\n      swap1\n      sub\n      swap1\n      dup2\n      tag_99\n      jumpi\n      swap1\n      pop\n    tag_98:\n      pop\n        /* \"contracts/GeekNft.sol\":4631:4682  Item[] memory result = new Item[](itemsToSellCount) */\n      swap1\n      pop\n        /* \"contracts/GeekNft.sol\":4697:4703  uint i */\n      0x00\n        /* \"contracts/GeekNft.sol\":4693:4869  for(uint i = 0; i < items.length; i++) {... */\n    tag_102:\n        /* \"contracts/GeekNft.sol\":4713:4718  items */\n      0x03\n        /* \"contracts/GeekNft.sol\":4713:4725  items.length */\n      dup1\n      sload\n      swap1\n      pop\n        /* \"contracts/GeekNft.sol\":4709:4710  i */\n      dup2\n        /* \"contracts/GeekNft.sol\":4709:4725  i < items.length */\n      lt\n        /* \"contracts/GeekNft.sol\":4693:4869  for(uint i = 0; i < items.length; i++) {... */\n      iszero\n      tag_103\n      jumpi\n        /* \"contracts/GeekNft.sol\":4768:4772  true */\n      0x01\n        /* \"contracts/GeekNft.sol\":4749:4772  items[i].toSell == true */\n      iszero\n      iszero\n        /* \"contracts/GeekNft.sol\":4749:4754  items */\n      0x03\n        /* \"contracts/GeekNft.sol\":4755:4756  i */\n      dup3\n        /* \"contracts/GeekNft.sol\":4749:4757  items[i] */\n      dup2\n      sload\n      dup2\n      lt\n      tag_105\n      jumpi\n      mstore(0x00, 0x4e487b7100000000000000000000000000000000000000000000000000000000)\n      mstore(0x04, 0x32)\n      revert(0x00, 0x24)\n    tag_105:\n      swap1\n      0x00\n      mstore\n      keccak256(0x00, 0x20)\n      swap1\n      0x04\n      mul\n      add\n        /* \"contracts/GeekNft.sol\":4749:4764  items[i].toSell */\n      0x03\n      add\n      0x00\n      swap1\n      sload\n      swap1\n      0x0100\n      exp\n      swap1\n      div\n      0xff\n      and\n        /* \"contracts/GeekNft.sol\":4749:4772  items[i].toSell == true */\n      iszero\n      iszero\n      eq\n        /* \"contracts/GeekNft.sol\":4746:4859  if(items[i].toSell == true){... */\n      iszero\n      tag_107\n      jumpi\n        /* \"contracts/GeekNft.sol\":4809:4814  items */\n      0x03\n        /* \"contracts/GeekNft.sol\":4815:4816  i */\n      dup2\n        /* \"contracts/GeekNft.sol\":4809:4817  items[i] */\n      dup2\n      sload\n      dup2\n      lt\n      tag_108\n      jumpi\n      mstore(0x00, 0x4e487b7100000000000000000000000000000000000000000000000000000000)\n      mstore(0x04, 0x32)\n      revert(0x00, 0x24)\n    tag_108:\n      swap1\n      0x00\n      mstore\n      keccak256(0x00, 0x20)\n      swap1\n      0x04\n      mul\n      add\n        /* \"contracts/GeekNft.sol\":4791:4817  result[counter] = items[i] */\n      mload(0x40)\n      dup1\n      0x80\n      add\n      0x40\n      mstore\n      swap1\n      dup2\n      0x00\n      dup3\n      add\n      sload\n      dup2\n      mstore\n      0x20\n      add\n      0x01\n      dup3\n      add\n      sload\n      dup2\n      mstore\n      0x20\n      add\n      0x02\n      dup3\n      add\n      sload\n      dup2\n      mstore\n      0x20\n      add\n      0x03\n      dup3\n      add\n      0x00\n      swap1\n      sload\n      swap1\n      0x0100\n      exp\n      swap1\n      div\n      0xff\n      and\n      iszero\n      iszero\n      iszero\n      iszero\n      dup2\n      mstore\n      pop\n      pop\n        /* \"contracts/GeekNft.sol\":4791:4797  result */\n      dup3\n        /* \"contracts/GeekNft.sol\":4798:4805  counter */\n      dup5\n        /* \"contracts/GeekNft.sol\":4791:4806  result[counter] */\n      dup2\n      mload\n      dup2\n      lt\n      tag_110\n      jumpi\n      mstore(0x00, 0x4e487b7100000000000000000000000000000000000000000000000000000000)\n      mstore(0x04, 0x32)\n      revert(0x00, 0x24)\n    tag_110:\n      0x20\n      mul\n      0x20\n      add\n      add\n        /* \"contracts/GeekNft.sol\":4791:4817  result[counter] = items[i] */\n      dup2\n      swap1\n      mstore\n      pop\n        /* \"contracts/GeekNft.sol\":4835:4844  counter++ */\n      dup3\n      dup1\n      tag_111\n      swap1\n      tag_112\n      jump\t// in\n    tag_111:\n      swap4\n      pop\n      pop\n        /* \"contracts/GeekNft.sol\":4746:4859  if(items[i].toSell == true){... */\n    tag_107:\n        /* \"contracts/GeekNft.sol\":4727:4730  i++ */\n      dup1\n      dup1\n      tag_113\n      swap1\n      tag_112\n      jump\t// in\n    tag_113:\n      swap2\n      pop\n      pop\n        /* \"contracts/GeekNft.sol\":4693:4869  for(uint i = 0; i < items.length; i++) {... */\n      jump(tag_102)\n    tag_103:\n      pop\n        /* \"contracts/GeekNft.sol\":4886:4892  result */\n      dup1\n        /* \"contracts/GeekNft.sol\":4879:4892  return result */\n      swap3\n      pop\n      pop\n      pop\n        /* \"contracts/GeekNft.sol\":4532:4899  function fetchItemsToSell() public view returns (Item[] memory){... */\n      swap1\n      jump\t// out\n        /* \"contracts/GeekNft.sol\":1585:1685  function getCreatorPercentage() public view returns (uint) {... */\n    tag_32:\n        /* \"contracts/GeekNft.sol\":1638:1642  uint */\n      0x00\n        /* \"contracts/GeekNft.sol\":1661:1678  creatorPercentage */\n      sload(0x06)\n        /* \"contracts/GeekNft.sol\":1654:1678  return creatorPercentage */\n      swap1\n      pop\n        /* \"contracts/GeekNft.sol\":1585:1685  function getCreatorPercentage() public view returns (uint) {... */\n      swap1\n      jump\t// out\n        /* \"contracts/GeekNft.sol\":1450:1579  function updateCreatorPercentage(uint _newPercentage) public onlyContractOwner{... */\n    tag_38:\n        /* \"contracts/GeekNft.sol\":878:883  owner */\n      0x02\n      0x00\n      swap1\n      sload\n      swap1\n      0x0100\n      exp\n      swap1\n      div\n      0xffffffffffffffffffffffffffffffffffffffff\n      and\n        /* \"contracts/GeekNft.sol\":864:883  msg.sender == owner */\n      0xffffffffffffffffffffffffffffffffffffffff\n      and\n        /* \"contracts/GeekNft.sol\":864:874  msg.sender */\n      caller\n        /* \"contracts/GeekNft.sol\":864:883  msg.sender == owner */\n      0xffffffffffffffffffffffffffffffffffffffff\n      and\n      eq\n        /* \"contracts/GeekNft.sol\":856:921  require(msg.sender == owner, \"Only contract's owner can do that\") */\n      tag_116\n      jumpi\n      mload(0x40)\n      0x08c379a000000000000000000000000000000000000000000000000000000000\n      dup2\n      mstore\n      0x04\n      add\n      tag_117\n      swap1\n      tag_118\n      jump\t// in\n    tag_117:\n      mload(0x40)\n      dup1\n      swap2\n      sub\n      swap1\n      revert\n    tag_116:\n        /* \"contracts/GeekNft.sol\":1558:1572  _newPercentage */\n      dup1\n        /* \"contracts/GeekNft.sol\":1538:1555  creatorPercentage */\n      0x06\n        /* \"contracts/GeekNft.sol\":1538:1572  creatorPercentage = _newPercentage */\n      dup2\n      swap1\n      sstore\n      pop\n        /* \"contracts/GeekNft.sol\":1450:1579  function updateCreatorPercentage(uint _newPercentage) public onlyContractOwner{... */\n      pop\n      jump\t// out\n        /* \"contracts/GeekNft.sol\":5691:6111  function fetchItemsToSellByCatId(uint _catId) public view returns (Item[] memory){... */\n    tag_42:\n        /* \"contracts/GeekNft.sol\":5758:5771  Item[] memory */\n      0x60\n        /* \"contracts/GeekNft.sol\":5782:5794  uint counter */\n      0x00\n        /* \"contracts/GeekNft.sol\":5808:5828  Item[] memory result */\n      dup1\n        /* \"contracts/GeekNft.sol\":5842:5857  itemsCatIdCount */\n      0x0b\n        /* \"contracts/GeekNft.sol\":5842:5865  itemsCatIdCount[_catId] */\n      0x00\n        /* \"contracts/GeekNft.sol\":5858:5864  _catId */\n      dup6\n        /* \"contracts/GeekNft.sol\":5842:5865  itemsCatIdCount[_catId] */\n      dup2\n      mstore\n      0x20\n      add\n      swap1\n      dup2\n      mstore\n      0x20\n      add\n      0x00\n      keccak256\n      sload\n        /* \"contracts/GeekNft.sol\":5831:5866  new Item[](itemsCatIdCount[_catId]) */\n      0xffffffffffffffff\n      dup2\n      gt\n      iszero\n      tag_121\n      jumpi\n      mstore(0x00, 0x4e487b7100000000000000000000000000000000000000000000000000000000)\n      mstore(0x04, 0x41)\n      revert(0x00, 0x24)\n    tag_121:\n      mload(0x40)\n      swap1\n      dup1\n      dup3\n      mstore\n      dup1\n      0x20\n      mul\n      0x20\n      add\n      dup3\n      add\n      0x40\n      mstore\n      dup1\n      iszero\n      tag_122\n      jumpi\n      dup2\n      0x20\n      add\n    tag_123:\n      tag_124\n      tag_101\n      jump\t// in\n    tag_124:\n      dup2\n      mstore\n      0x20\n      add\n      swap1\n      0x01\n      swap1\n      sub\n      swap1\n      dup2\n      tag_123\n      jumpi\n      swap1\n      pop\n    tag_122:\n      pop\n        /* \"contracts/GeekNft.sol\":5808:5866  Item[] memory result = new Item[](itemsCatIdCount[_catId]) */\n      swap1\n      pop\n        /* \"contracts/GeekNft.sol\":5881:5887  uint i */\n      0x00\n        /* \"contracts/GeekNft.sol\":5877:6081  for(uint i = 0; i < items.length; i++) {... */\n    tag_125:\n        /* \"contracts/GeekNft.sol\":5897:5902  items */\n      0x03\n        /* \"contracts/GeekNft.sol\":5897:5909  items.length */\n      dup1\n      sload\n      swap1\n      pop\n        /* \"contracts/GeekNft.sol\":5893:5894  i */\n      dup2\n        /* \"contracts/GeekNft.sol\":5893:5909  i < items.length */\n      lt\n        /* \"contracts/GeekNft.sol\":5877:6081  for(uint i = 0; i < items.length; i++) {... */\n      iszero\n      tag_126\n      jumpi\n        /* \"contracts/GeekNft.sol\":5951:5957  _catId */\n      dup5\n        /* \"contracts/GeekNft.sol\":5933:5944  itemToCatId */\n      0x0c\n        /* \"contracts/GeekNft.sol\":5933:5947  itemToCatId[i] */\n      0x00\n        /* \"contracts/GeekNft.sol\":5945:5946  i */\n      dup4\n        /* \"contracts/GeekNft.sol\":5933:5947  itemToCatId[i] */\n      dup2\n      mstore\n      0x20\n      add\n      swap1\n      dup2\n      mstore\n      0x20\n      add\n      0x00\n      keccak256\n      sload\n        /* \"contracts/GeekNft.sol\":5933:5957  itemToCatId[i] == _catId */\n      eq\n        /* \"contracts/GeekNft.sol\":5933:5984  itemToCatId[i] == _catId && items[i].toSell == true */\n      dup1\n      iszero\n      tag_128\n      jumpi\n      pop\n        /* \"contracts/GeekNft.sol\":5980:5984  true */\n      0x01\n        /* \"contracts/GeekNft.sol\":5961:5984  items[i].toSell == true */\n      iszero\n      iszero\n        /* \"contracts/GeekNft.sol\":5961:5966  items */\n      0x03\n        /* \"contracts/GeekNft.sol\":5967:5968  i */\n      dup3\n        /* \"contracts/GeekNft.sol\":5961:5969  items[i] */\n      dup2\n      sload\n      dup2\n      lt\n      tag_129\n      jumpi\n      mstore(0x00, 0x4e487b7100000000000000000000000000000000000000000000000000000000)\n      mstore(0x04, 0x32)\n      revert(0x00, 0x24)\n    tag_129:\n      swap1\n      0x00\n      mstore\n      keccak256(0x00, 0x20)\n      swap1\n      0x04\n      mul\n      add\n        /* \"contracts/GeekNft.sol\":5961:5976  items[i].toSell */\n      0x03\n      add\n      0x00\n      swap1\n      sload\n      swap1\n      0x0100\n      exp\n      swap1\n      div\n      0xff\n      and\n        /* \"contracts/GeekNft.sol\":5961:5984  items[i].toSell == true */\n      iszero\n      iszero\n      eq\n        /* \"contracts/GeekNft.sol\":5933:5984  itemToCatId[i] == _catId && items[i].toSell == true */\n    tag_128:\n        /* \"contracts/GeekNft.sol\":5930:6071  if(itemToCatId[i] == _catId && items[i].toSell == true){... */\n      iszero\n      tag_131\n      jumpi\n        /* \"contracts/GeekNft.sol\":6021:6026  items */\n      0x03\n        /* \"contracts/GeekNft.sol\":6027:6028  i */\n      dup2\n        /* \"contracts/GeekNft.sol\":6021:6029  items[i] */\n      dup2\n      sload\n      dup2\n      lt\n      tag_132\n      jumpi\n      mstore(0x00, 0x4e487b7100000000000000000000000000000000000000000000000000000000)\n      mstore(0x04, 0x32)\n      revert(0x00, 0x24)\n    tag_132:\n      swap1\n      0x00\n      mstore\n      keccak256(0x00, 0x20)\n      swap1\n      0x04\n      mul\n      add\n        /* \"contracts/GeekNft.sol\":6003:6029  result[counter] = items[i] */\n      mload(0x40)\n      dup1\n      0x80\n      add\n      0x40\n      mstore\n      swap1\n      dup2\n      0x00\n      dup3\n      add\n      sload\n      dup2\n      mstore\n      0x20\n      add\n      0x01\n      dup3\n      add\n      sload\n      dup2\n      mstore\n      0x20\n      add\n      0x02\n      dup3\n      add\n      sload\n      dup2\n      mstore\n      0x20\n      add\n      0x03\n      dup3\n      add\n      0x00\n      swap1\n      sload\n      swap1\n      0x0100\n      exp\n      swap1\n      div\n      0xff\n      and\n      iszero\n      iszero\n      iszero\n      iszero\n      dup2\n      mstore\n      pop\n      pop\n        /* \"contracts/GeekNft.sol\":6003:6009  result */\n      dup3\n        /* \"contracts/GeekNft.sol\":6010:6017  counter */\n      dup5\n        /* \"contracts/GeekNft.sol\":6003:6018  result[counter] */\n      dup2\n      mload\n      dup2\n      lt\n      tag_134\n      jumpi\n      mstore(0x00, 0x4e487b7100000000000000000000000000000000000000000000000000000000)\n      mstore(0x04, 0x32)\n      revert(0x00, 0x24)\n    tag_134:\n      0x20\n      mul\n      0x20\n      add\n      add\n        /* \"contracts/GeekNft.sol\":6003:6029  result[counter] = items[i] */\n      dup2\n      swap1\n      mstore\n      pop\n        /* \"contracts/GeekNft.sol\":6047:6056  counter++ */\n      dup3\n      dup1\n      tag_135\n      swap1\n      tag_112\n      jump\t// in\n    tag_135:\n      swap4\n      pop\n      pop\n        /* \"contracts/GeekNft.sol\":5930:6071  if(itemToCatId[i] == _catId && items[i].toSell == true){... */\n    tag_131:\n        /* \"contracts/GeekNft.sol\":5911:5914  i++ */\n      dup1\n      dup1\n      tag_136\n      swap1\n      tag_112\n      jump\t// in\n    tag_136:\n      swap2\n      pop\n      pop\n        /* \"contracts/GeekNft.sol\":5877:6081  for(uint i = 0; i < items.length; i++) {... */\n      jump(tag_125)\n    tag_126:\n      pop\n        /* \"contracts/GeekNft.sol\":6098:6104  result */\n      dup1\n        /* \"contracts/GeekNft.sol\":6091:6104  return result */\n      swap3\n      pop\n      pop\n      pop\n        /* \"contracts/GeekNft.sol\":5691:6111  function fetchItemsToSellByCatId(uint _catId) public view returns (Item[] memory){... */\n      swap2\n      swap1\n      pop\n      jump\t// out\n        /* \"contracts/GeekNft.sol\":4905:5289  function fetchItemsByOwner() public view returns (Item[] memory){... */\n    tag_46:\n        /* \"contracts/GeekNft.sol\":4955:4968  Item[] memory */\n      0x60\n        /* \"contracts/GeekNft.sol\":4979:4991  uint counter */\n      0x00\n        /* \"contracts/GeekNft.sol\":5005:5025  Item[] memory result */\n      dup1\n        /* \"contracts/GeekNft.sol\":5039:5054  itemsOwnerCount */\n      0x07\n        /* \"contracts/GeekNft.sol\":5039:5066  itemsOwnerCount[msg.sender] */\n      0x00\n        /* \"contracts/GeekNft.sol\":5055:5065  msg.sender */\n      caller\n        /* \"contracts/GeekNft.sol\":5039:5066  itemsOwnerCount[msg.sender] */\n      0xffffffffffffffffffffffffffffffffffffffff\n      and\n      0xffffffffffffffffffffffffffffffffffffffff\n      and\n      dup2\n      mstore\n      0x20\n      add\n      swap1\n      dup2\n      mstore\n      0x20\n      add\n      0x00\n      keccak256\n      sload\n        /* \"contracts/GeekNft.sol\":5028:5067  new Item[](itemsOwnerCount[msg.sender]) */\n      0xffffffffffffffff\n      dup2\n      gt\n      iszero\n      tag_138\n      jumpi\n      mstore(0x00, 0x4e487b7100000000000000000000000000000000000000000000000000000000)\n      mstore(0x04, 0x41)\n      revert(0x00, 0x24)\n    tag_138:\n      mload(0x40)\n      swap1\n      dup1\n      dup3\n      mstore\n      dup1\n      0x20\n      mul\n      0x20\n      add\n      dup3\n      add\n      0x40\n      mstore\n      dup1\n      iszero\n      tag_139\n      jumpi\n      dup2\n      0x20\n      add\n    tag_140:\n      tag_141\n      tag_101\n      jump\t// in\n    tag_141:\n      dup2\n      mstore\n      0x20\n      add\n      swap1\n      0x01\n      swap1\n      sub\n      swap1\n      dup2\n      tag_140\n      jumpi\n      swap1\n      pop\n    tag_139:\n      pop\n        /* \"contracts/GeekNft.sol\":5005:5067  Item[] memory result = new Item[](itemsOwnerCount[msg.sender]) */\n      swap1\n      pop\n        /* \"contracts/GeekNft.sol\":5082:5088  uint i */\n      0x00\n        /* \"contracts/GeekNft.sol\":5078:5259  for(uint i = 0; i < items.length; i++) {... */\n    tag_142:\n        /* \"contracts/GeekNft.sol\":5098:5103  items */\n      0x03\n        /* \"contracts/GeekNft.sol\":5098:5110  items.length */\n      dup1\n      sload\n      swap1\n      pop\n        /* \"contracts/GeekNft.sol\":5094:5095  i */\n      dup2\n        /* \"contracts/GeekNft.sol\":5094:5110  i < items.length */\n      lt\n        /* \"contracts/GeekNft.sol\":5078:5259  for(uint i = 0; i < items.length; i++) {... */\n      iszero\n      tag_143\n      jumpi\n        /* \"contracts/GeekNft.sol\":5152:5162  msg.sender */\n      caller\n        /* \"contracts/GeekNft.sol\":5134:5162  itemToOwner[i] == msg.sender */\n      0xffffffffffffffffffffffffffffffffffffffff\n      and\n        /* \"contracts/GeekNft.sol\":5134:5145  itemToOwner */\n      0x08\n        /* \"contracts/GeekNft.sol\":5134:5148  itemToOwner[i] */\n      0x00\n        /* \"contracts/GeekNft.sol\":5146:5147  i */\n      dup4\n        /* \"contracts/GeekNft.sol\":5134:5148  itemToOwner[i] */\n      dup2\n      mstore\n      0x20\n      add\n      swap1\n      dup2\n      mstore\n      0x20\n      add\n      0x00\n      keccak256\n      0x00\n      swap1\n      sload\n      swap1\n      0x0100\n      exp\n      swap1\n      div\n      0xffffffffffffffffffffffffffffffffffffffff\n      and\n        /* \"contracts/GeekNft.sol\":5134:5162  itemToOwner[i] == msg.sender */\n      0xffffffffffffffffffffffffffffffffffffffff\n      and\n      eq\n        /* \"contracts/GeekNft.sol\":5131:5249  if(itemToOwner[i] == msg.sender){... */\n      iszero\n      tag_145\n      jumpi\n        /* \"contracts/GeekNft.sol\":5199:5204  items */\n      0x03\n        /* \"contracts/GeekNft.sol\":5205:5206  i */\n      dup2\n        /* \"contracts/GeekNft.sol\":5199:5207  items[i] */\n      dup2\n      sload\n      dup2\n      lt\n      tag_146\n      jumpi\n      mstore(0x00, 0x4e487b7100000000000000000000000000000000000000000000000000000000)\n      mstore(0x04, 0x32)\n      revert(0x00, 0x24)\n    tag_146:\n      swap1\n      0x00\n      mstore\n      keccak256(0x00, 0x20)\n      swap1\n      0x04\n      mul\n      add\n        /* \"contracts/GeekNft.sol\":5181:5207  result[counter] = items[i] */\n      mload(0x40)\n      dup1\n      0x80\n      add\n      0x40\n      mstore\n      swap1\n      dup2\n      0x00\n      dup3\n      add\n      sload\n      dup2\n      mstore\n      0x20\n      add\n      0x01\n      dup3\n      add\n      sload\n      dup2\n      mstore\n      0x20\n      add\n      0x02\n      dup3\n      add\n      sload\n      dup2\n      mstore\n      0x20\n      add\n      0x03\n      dup3\n      add\n      0x00\n      swap1\n      sload\n      swap1\n      0x0100\n      exp\n      swap1\n      div\n      0xff\n      and\n      iszero\n      iszero\n      iszero\n      iszero\n      dup2\n      mstore\n      pop\n      pop\n        /* \"contracts/GeekNft.sol\":5181:5187  result */\n      dup3\n        /* \"contracts/GeekNft.sol\":5188:5195  counter */\n      dup5\n        /* \"contracts/GeekNft.sol\":5181:5196  result[counter] */\n      dup2\n      mload\n      dup2\n      lt\n      tag_148\n      jumpi\n      mstore(0x00, 0x4e487b7100000000000000000000000000000000000000000000000000000000)\n      mstore(0x04, 0x32)\n      revert(0x00, 0x24)\n    tag_148:\n      0x20\n      mul\n      0x20\n      add\n      add\n        /* \"contracts/GeekNft.sol\":5181:5207  result[counter] = items[i] */\n      dup2\n      swap1\n      mstore\n      pop\n        /* \"contracts/GeekNft.sol\":5225:5234  counter++ */\n      dup3\n      dup1\n      tag_149\n      swap1\n      tag_112\n      jump\t// in\n    tag_149:\n      swap4\n      pop\n      pop\n        /* \"contracts/GeekNft.sol\":5131:5249  if(itemToOwner[i] == msg.sender){... */\n    tag_145:\n        /* \"contracts/GeekNft.sol\":5112:5115  i++ */\n      dup1\n      dup1\n      tag_150\n      swap1\n      tag_112\n      jump\t// in\n    tag_150:\n      swap2\n      pop\n      pop\n        /* \"contracts/GeekNft.sol\":5078:5259  for(uint i = 0; i < items.length; i++) {... */\n      jump(tag_142)\n    tag_143:\n      pop\n        /* \"contracts/GeekNft.sol\":5276:5282  result */\n      dup1\n        /* \"contracts/GeekNft.sol\":5269:5282  return result */\n      swap3\n      pop\n      pop\n      pop\n        /* \"contracts/GeekNft.sol\":4905:5289  function fetchItemsByOwner() public view returns (Item[] memory){... */\n      swap1\n      jump\t// out\n        /* \"contracts/GeekNft.sol\":3561:3667  function ownerOf(uint _tokenId) public view returns (address){... */\n    tag_51:\n        /* \"contracts/GeekNft.sol\":3614:3621  address */\n      0x00\n        /* \"contracts/GeekNft.sol\":3639:3650  itemToOwner */\n      0x08\n        /* \"contracts/GeekNft.sol\":3639:3660  itemToOwner[_tokenId] */\n      0x00\n        /* \"contracts/GeekNft.sol\":3651:3659  _tokenId */\n      dup4\n        /* \"contracts/GeekNft.sol\":3639:3660  itemToOwner[_tokenId] */\n      dup2\n      mstore\n      0x20\n      add\n      swap1\n      dup2\n      mstore\n      0x20\n      add\n      0x00\n      keccak256\n      0x00\n      swap1\n      sload\n      swap1\n      0x0100\n      exp\n      swap1\n      div\n      0xffffffffffffffffffffffffffffffffffffffff\n      and\n        /* \"contracts/GeekNft.sol\":3632:3660  return itemToOwner[_tokenId] */\n      swap1\n      pop\n        /* \"contracts/GeekNft.sol\":3561:3667  function ownerOf(uint _tokenId) public view returns (address){... */\n      swap2\n      swap1\n      pop\n      jump\t// out\n        /* \"contracts/GeekNft.sol\":5295:5685  function fetchItemsByCreator() public view returns (Item[] memory){... */\n    tag_56:\n        /* \"contracts/GeekNft.sol\":5347:5360  Item[] memory */\n      0x60\n        /* \"contracts/GeekNft.sol\":5371:5383  uint counter */\n      0x00\n        /* \"contracts/GeekNft.sol\":5397:5417  Item[] memory result */\n      dup1\n        /* \"contracts/GeekNft.sol\":5431:5448  itemsCreatorCount */\n      0x09\n        /* \"contracts/GeekNft.sol\":5431:5460  itemsCreatorCount[msg.sender] */\n      0x00\n        /* \"contracts/GeekNft.sol\":5449:5459  msg.sender */\n      caller\n        /* \"contracts/GeekNft.sol\":5431:5460  itemsCreatorCount[msg.sender] */\n      0xffffffffffffffffffffffffffffffffffffffff\n      and\n      0xffffffffffffffffffffffffffffffffffffffff\n      and\n      dup2\n      mstore\n      0x20\n      add\n      swap1\n      dup2\n      mstore\n      0x20\n      add\n      0x00\n      keccak256\n      sload\n        /* \"contracts/GeekNft.sol\":5420:5461  new Item[](itemsCreatorCount[msg.sender]) */\n      0xffffffffffffffff\n      dup2\n      gt\n      iszero\n      tag_153\n      jumpi\n      mstore(0x00, 0x4e487b7100000000000000000000000000000000000000000000000000000000)\n      mstore(0x04, 0x41)\n      revert(0x00, 0x24)\n    tag_153:\n      mload(0x40)\n      swap1\n      dup1\n      dup3\n      mstore\n      dup1\n      0x20\n      mul\n      0x20\n      add\n      dup3\n      add\n      0x40\n      mstore\n      dup1\n      iszero\n      tag_154\n      jumpi\n      dup2\n      0x20\n      add\n    tag_155:\n      tag_156\n      tag_101\n      jump\t// in\n    tag_156:\n      dup2\n      mstore\n      0x20\n      add\n      swap1\n      0x01\n      swap1\n      sub\n      swap1\n      dup2\n      tag_155\n      jumpi\n      swap1\n      pop\n    tag_154:\n      pop\n        /* \"contracts/GeekNft.sol\":5397:5461  Item[] memory result = new Item[](itemsCreatorCount[msg.sender]) */\n      swap1\n      pop\n        /* \"contracts/GeekNft.sol\":5476:5482  uint i */\n      0x00\n        /* \"contracts/GeekNft.sol\":5472:5655  for(uint i = 0; i < items.length; i++) {... */\n    tag_157:\n        /* \"contracts/GeekNft.sol\":5492:5497  items */\n      0x03\n        /* \"contracts/GeekNft.sol\":5492:5504  items.length */\n      dup1\n      sload\n      swap1\n      pop\n        /* \"contracts/GeekNft.sol\":5488:5489  i */\n      dup2\n        /* \"contracts/GeekNft.sol\":5488:5504  i < items.length */\n      lt\n        /* \"contracts/GeekNft.sol\":5472:5655  for(uint i = 0; i < items.length; i++) {... */\n      iszero\n      tag_158\n      jumpi\n        /* \"contracts/GeekNft.sol\":5548:5558  msg.sender */\n      caller\n        /* \"contracts/GeekNft.sol\":5528:5558  itemToCreator[i] == msg.sender */\n      0xffffffffffffffffffffffffffffffffffffffff\n      and\n        /* \"contracts/GeekNft.sol\":5528:5541  itemToCreator */\n      0x0a\n        /* \"contracts/GeekNft.sol\":5528:5544  itemToCreator[i] */\n      0x00\n        /* \"contracts/GeekNft.sol\":5542:5543  i */\n      dup4\n        /* \"contracts/GeekNft.sol\":5528:5544  itemToCreator[i] */\n      dup2\n      mstore\n      0x20\n      add\n      swap1\n      dup2\n      mstore\n      0x20\n      add\n      0x00\n      keccak256\n      0x00\n      swap1\n      sload\n      swap1\n      0x0100\n      exp\n      swap1\n      div\n      0xffffffffffffffffffffffffffffffffffffffff\n      and\n        /* \"contracts/GeekNft.sol\":5528:5558  itemToCreator[i] == msg.sender */\n      0xffffffffffffffffffffffffffffffffffffffff\n      and\n      eq\n        /* \"contracts/GeekNft.sol\":5525:5645  if(itemToCreator[i] == msg.sender){... */\n      iszero\n      tag_160\n      jumpi\n        /* \"contracts/GeekNft.sol\":5595:5600  items */\n      0x03\n        /* \"contracts/GeekNft.sol\":5601:5602  i */\n      dup2\n        /* \"contracts/GeekNft.sol\":5595:5603  items[i] */\n      dup2\n      sload\n      dup2\n      lt\n      tag_161\n      jumpi\n      mstore(0x00, 0x4e487b7100000000000000000000000000000000000000000000000000000000)\n      mstore(0x04, 0x32)\n      revert(0x00, 0x24)\n    tag_161:\n      swap1\n      0x00\n      mstore\n      keccak256(0x00, 0x20)\n      swap1\n      0x04\n      mul\n      add\n        /* \"contracts/GeekNft.sol\":5577:5603  result[counter] = items[i] */\n      mload(0x40)\n      dup1\n      0x80\n      add\n      0x40\n      mstore\n      swap1\n      dup2\n      0x00\n      dup3\n      add\n      sload\n      dup2\n      mstore\n      0x20\n      add\n      0x01\n      dup3\n      add\n      sload\n      dup2\n      mstore\n      0x20\n      add\n      0x02\n      dup3\n      add\n      sload\n      dup2\n      mstore\n      0x20\n      add\n      0x03\n      dup3\n      add\n      0x00\n      swap1\n      sload\n      swap1\n      0x0100\n      exp\n      swap1\n      div\n      0xff\n      and\n      iszero\n      iszero\n      iszero\n      iszero\n      dup2\n      mstore\n      pop\n      pop\n        /* \"contracts/GeekNft.sol\":5577:5583  result */\n      dup3\n        /* \"contracts/GeekNft.sol\":5584:5591  counter */\n      dup5\n        /* \"contracts/GeekNft.sol\":5577:5592  result[counter] */\n      dup2\n      mload\n      dup2\n      lt\n      tag_163\n      jumpi\n      mstore(0x00, 0x4e487b7100000000000000000000000000000000000000000000000000000000)\n      mstore(0x04, 0x32)\n      revert(0x00, 0x24)\n    tag_163:\n      0x20\n      mul\n      0x20\n      add\n      add\n        /* \"contracts/GeekNft.sol\":5577:5603  result[counter] = items[i] */\n      dup2\n      swap1\n      mstore\n      pop\n        /* \"contracts/GeekNft.sol\":5621:5630  counter++ */\n      dup3\n      dup1\n      tag_164\n      swap1\n      tag_112\n      jump\t// in\n    tag_164:\n      swap4\n      pop\n      pop\n        /* \"contracts/GeekNft.sol\":5525:5645  if(itemToCreator[i] == msg.sender){... */\n    tag_160:\n        /* \"contracts/GeekNft.sol\":5506:5509  i++ */\n      dup1\n      dup1\n      tag_165\n      swap1\n      tag_112\n      jump\t// in\n    tag_165:\n      swap2\n      pop\n      pop\n        /* \"contracts/GeekNft.sol\":5472:5655  for(uint i = 0; i < items.length; i++) {... */\n      jump(tag_157)\n    tag_158:\n      pop\n        /* \"contracts/GeekNft.sol\":5672:5678  result */\n      dup1\n        /* \"contracts/GeekNft.sol\":5665:5678  return result */\n      swap3\n      pop\n      pop\n      pop\n        /* \"contracts/GeekNft.sol\":5295:5685  function fetchItemsByCreator() public view returns (Item[] memory){... */\n      swap1\n      jump\t// out\n        /* \"contracts/GeekNft.sol\":3673:3781  function balanceOf(address _owner) public view returns (uint){... */\n    tag_62:\n        /* \"contracts/GeekNft.sol\":3729:3733  uint */\n      0x00\n        /* \"contracts/GeekNft.sol\":3751:3766  itemsOwnerCount */\n      0x07\n        /* \"contracts/GeekNft.sol\":3751:3774  itemsOwnerCount[_owner] */\n      0x00\n        /* \"contracts/GeekNft.sol\":3767:3773  _owner */\n      dup4\n        /* \"contracts/GeekNft.sol\":3751:3774  itemsOwnerCount[_owner] */\n      0xffffffffffffffffffffffffffffffffffffffff\n      and\n      0xffffffffffffffffffffffffffffffffffffffff\n      and\n      dup2\n      mstore\n      0x20\n      add\n      swap1\n      dup2\n      mstore\n      0x20\n      add\n      0x00\n      keccak256\n      sload\n        /* \"contracts/GeekNft.sol\":3744:3774  return itemsOwnerCount[_owner] */\n      swap1\n      pop\n        /* \"contracts/GeekNft.sol\":3673:3781  function balanceOf(address _owner) public view returns (uint){... */\n      swap2\n      swap1\n      pop\n      jump\t// out\n        /* \"contracts/GeekNft.sol\":2445:3555  function sellItem(uint _tokenId) public payable{... */\n    tag_66:\n        /* \"contracts/GeekNft.sol\":2523:2528  items */\n      0x03\n        /* \"contracts/GeekNft.sol\":2529:2537  _tokenId */\n      dup2\n        /* \"contracts/GeekNft.sol\":2523:2538  items[_tokenId] */\n      dup2\n      sload\n      dup2\n      lt\n      tag_168\n      jumpi\n      mstore(0x00, 0x4e487b7100000000000000000000000000000000000000000000000000000000)\n      mstore(0x04, 0x32)\n      revert(0x00, 0x24)\n    tag_168:\n      swap1\n      0x00\n      mstore\n      keccak256(0x00, 0x20)\n      swap1\n      0x04\n      mul\n      add\n        /* \"contracts/GeekNft.sol\":2523:2544  items[_tokenId].price */\n      0x02\n      add\n      sload\n        /* \"contracts/GeekNft.sol\":2510:2519  msg.value */\n      callvalue\n        /* \"contracts/GeekNft.sol\":2510:2544  msg.value == items[_tokenId].price */\n      eq\n        /* \"contracts/GeekNft.sol\":2502:2602  require(msg.value == items[_tokenId].price, \"transaction's value cannot be different of item price\") */\n      tag_170\n      jumpi\n      mload(0x40)\n      0x08c379a000000000000000000000000000000000000000000000000000000000\n      dup2\n      mstore\n      0x04\n      add\n      tag_171\n      swap1\n      tag_172\n      jump\t// in\n    tag_171:\n      mload(0x40)\n      dup1\n      swap2\n      sub\n      swap1\n      revert\n    tag_170:\n        /* \"contracts/GeekNft.sol\":2653:2654  0 */\n      0x00\n        /* \"contracts/GeekNft.sol\":2620:2655  itemToOwner[_tokenId] != address(0) */\n      0xffffffffffffffffffffffffffffffffffffffff\n      and\n        /* \"contracts/GeekNft.sol\":2620:2631  itemToOwner */\n      0x08\n        /* \"contracts/GeekNft.sol\":2620:2641  itemToOwner[_tokenId] */\n      0x00\n        /* \"contracts/GeekNft.sol\":2632:2640  _tokenId */\n      dup4\n        /* \"contracts/GeekNft.sol\":2620:2641  itemToOwner[_tokenId] */\n      dup2\n      mstore\n      0x20\n      add\n      swap1\n      dup2\n      mstore\n      0x20\n      add\n      0x00\n      keccak256\n      0x00\n      swap1\n      sload\n      swap1\n      0x0100\n      exp\n      swap1\n      div\n      0xffffffffffffffffffffffffffffffffffffffff\n      and\n        /* \"contracts/GeekNft.sol\":2620:2655  itemToOwner[_tokenId] != address(0) */\n      0xffffffffffffffffffffffffffffffffffffffff\n      and\n      eq\n      iszero\n        /* \"contracts/GeekNft.sol\":2612:2679  require(itemToOwner[_tokenId] != address(0), \"token doesn't exist\") */\n      tag_173\n      jumpi\n      mload(0x40)\n      0x08c379a000000000000000000000000000000000000000000000000000000000\n      dup2\n      mstore\n      0x04\n      add\n      tag_174\n      swap1\n      tag_175\n      jump\t// in\n    tag_174:\n      mload(0x40)\n      dup1\n      swap2\n      sub\n      swap1\n      revert\n    tag_173:\n        /* \"contracts/GeekNft.sol\":2722:2732  msg.sender */\n      caller\n        /* \"contracts/GeekNft.sol\":2697:2732  itemToOwner[_tokenId] != msg.sender */\n      0xffffffffffffffffffffffffffffffffffffffff\n      and\n        /* \"contracts/GeekNft.sol\":2697:2708  itemToOwner */\n      0x08\n        /* \"contracts/GeekNft.sol\":2697:2718  itemToOwner[_tokenId] */\n      0x00\n        /* \"contracts/GeekNft.sol\":2709:2717  _tokenId */\n      dup4\n        /* \"contracts/GeekNft.sol\":2697:2718  itemToOwner[_tokenId] */\n      dup2\n      mstore\n      0x20\n      add\n      swap1\n      dup2\n      mstore\n      0x20\n      add\n      0x00\n      keccak256\n      0x00\n      swap1\n      sload\n      swap1\n      0x0100\n      exp\n      swap1\n      div\n      0xffffffffffffffffffffffffffffffffffffffff\n      and\n        /* \"contracts/GeekNft.sol\":2697:2732  itemToOwner[_tokenId] != msg.sender */\n      0xffffffffffffffffffffffffffffffffffffffff\n      and\n      eq\n      iszero\n        /* \"contracts/GeekNft.sol\":2689:2778  require(itemToOwner[_tokenId] != msg.sender, \"you can't buy an item that belongs to you\") */\n      tag_176\n      jumpi\n      mload(0x40)\n      0x08c379a000000000000000000000000000000000000000000000000000000000\n      dup2\n      mstore\n      0x04\n      add\n      tag_177\n      swap1\n      tag_178\n      jump\t// in\n    tag_177:\n      mload(0x40)\n      dup1\n      swap2\n      sub\n      swap1\n      revert\n    tag_176:\n        /* \"contracts/GeekNft.sol\":2789:2805  address oldOwner */\n      0x00\n        /* \"contracts/GeekNft.sol\":2808:2819  itemToOwner */\n      0x08\n        /* \"contracts/GeekNft.sol\":2808:2829  itemToOwner[_tokenId] */\n      0x00\n        /* \"contracts/GeekNft.sol\":2820:2828  _tokenId */\n      dup4\n        /* \"contracts/GeekNft.sol\":2808:2829  itemToOwner[_tokenId] */\n      dup2\n      mstore\n      0x20\n      add\n      swap1\n      dup2\n      mstore\n      0x20\n      add\n      0x00\n      keccak256\n      0x00\n      swap1\n      sload\n      swap1\n      0x0100\n      exp\n      swap1\n      div\n      0xffffffffffffffffffffffffffffffffffffffff\n      and\n        /* \"contracts/GeekNft.sol\":2789:2829  address oldOwner = itemToOwner[_tokenId] */\n      swap1\n      pop\n        /* \"contracts/GeekNft.sol\":2848:2871  Item storage itemToSell */\n      0x00\n        /* \"contracts/GeekNft.sol\":2874:2879  items */\n      0x03\n        /* \"contracts/GeekNft.sol\":2880:2888  _tokenId */\n      dup4\n        /* \"contracts/GeekNft.sol\":2874:2889  items[_tokenId] */\n      dup2\n      sload\n      dup2\n      lt\n      tag_179\n      jumpi\n      mstore(0x00, 0x4e487b7100000000000000000000000000000000000000000000000000000000)\n      mstore(0x04, 0x32)\n      revert(0x00, 0x24)\n    tag_179:\n      swap1\n      0x00\n      mstore\n      keccak256(0x00, 0x20)\n      swap1\n      0x04\n      mul\n      add\n        /* \"contracts/GeekNft.sol\":2848:2889  Item storage itemToSell = items[_tokenId] */\n      swap1\n      pop\n        /* \"contracts/GeekNft.sol\":2919:2924  false */\n      0x00\n        /* \"contracts/GeekNft.sol\":2899:2909  itemToSell */\n      dup2\n        /* \"contracts/GeekNft.sol\":2899:2916  itemToSell.toSell */\n      0x03\n      add\n      0x00\n        /* \"contracts/GeekNft.sol\":2899:2924  itemToSell.toSell = false */\n      0x0100\n      exp\n      dup2\n      sload\n      dup2\n      0xff\n      mul\n      not\n      and\n      swap1\n      dup4\n      iszero\n      iszero\n      mul\n      or\n      swap1\n      sstore\n      pop\n        /* \"contracts/GeekNft.sol\":2959:2969  msg.sender */\n      caller\n        /* \"contracts/GeekNft.sol\":2935:2946  itemToOwner */\n      0x08\n        /* \"contracts/GeekNft.sol\":2935:2956  itemToOwner[_tokenId] */\n      0x00\n        /* \"contracts/GeekNft.sol\":2947:2955  _tokenId */\n      dup6\n        /* \"contracts/GeekNft.sol\":2935:2956  itemToOwner[_tokenId] */\n      dup2\n      mstore\n      0x20\n      add\n      swap1\n      dup2\n      mstore\n      0x20\n      add\n      0x00\n      keccak256\n      0x00\n        /* \"contracts/GeekNft.sol\":2935:2969  itemToOwner[_tokenId] = msg.sender */\n      0x0100\n      exp\n      dup2\n      sload\n      dup2\n      0xffffffffffffffffffffffffffffffffffffffff\n      mul\n      not\n      and\n      swap1\n      dup4\n      0xffffffffffffffffffffffffffffffffffffffff\n      and\n      mul\n      or\n      swap1\n      sstore\n      pop\n        /* \"contracts/GeekNft.sol\":3003:3018  itemsOwnerCount */\n      0x07\n        /* \"contracts/GeekNft.sol\":3003:3028  itemsOwnerCount[oldOwner] */\n      0x00\n        /* \"contracts/GeekNft.sol\":3019:3027  oldOwner */\n      dup4\n        /* \"contracts/GeekNft.sol\":3003:3028  itemsOwnerCount[oldOwner] */\n      0xffffffffffffffffffffffffffffffffffffffff\n      and\n      0xffffffffffffffffffffffffffffffffffffffff\n      and\n      dup2\n      mstore\n      0x20\n      add\n      swap1\n      dup2\n      mstore\n      0x20\n      add\n      0x00\n      keccak256\n      0x00\n        /* \"contracts/GeekNft.sol\":3003:3030  itemsOwnerCount[oldOwner]-- */\n      dup2\n      sload\n      dup1\n      swap3\n      swap2\n      swap1\n      0x01\n      swap1\n      sub\n      swap2\n      swap1\n      pop\n      sstore\n      pop\n        /* \"contracts/GeekNft.sol\":3044:3059  itemsOwnerCount */\n      0x07\n        /* \"contracts/GeekNft.sol\":3044:3071  itemsOwnerCount[msg.sender] */\n      0x00\n        /* \"contracts/GeekNft.sol\":3060:3070  msg.sender */\n      caller\n        /* \"contracts/GeekNft.sol\":3044:3071  itemsOwnerCount[msg.sender] */\n      0xffffffffffffffffffffffffffffffffffffffff\n      and\n      0xffffffffffffffffffffffffffffffffffffffff\n      and\n      dup2\n      mstore\n      0x20\n      add\n      swap1\n      dup2\n      mstore\n      0x20\n      add\n      0x00\n      keccak256\n      0x00\n        /* \"contracts/GeekNft.sol\":3044:3073  itemsOwnerCount[msg.sender]++ */\n      dup2\n      sload\n      dup1\n      swap3\n      swap2\n      swap1\n      0x01\n      add\n      swap2\n      swap1\n      pop\n      sstore\n      pop\n        /* \"contracts/GeekNft.sol\":3087:3103  itemsToSellCount */\n      0x04\n      0x00\n        /* \"contracts/GeekNft.sol\":3087:3105  itemsToSellCount-- */\n      dup2\n      sload\n      dup1\n      swap3\n      swap2\n      swap1\n      0x01\n      swap1\n      sub\n      swap2\n      swap1\n      pop\n      sstore\n      pop\n        /* \"contracts/GeekNft.sol\":3156:3164  oldOwner */\n      dup2\n        /* \"contracts/GeekNft.sol\":3129:3164  itemToCreator[_tokenId] == oldOwner */\n      0xffffffffffffffffffffffffffffffffffffffff\n      and\n        /* \"contracts/GeekNft.sol\":3129:3142  itemToCreator */\n      0x0a\n        /* \"contracts/GeekNft.sol\":3129:3152  itemToCreator[_tokenId] */\n      0x00\n        /* \"contracts/GeekNft.sol\":3143:3151  _tokenId */\n      dup6\n        /* \"contracts/GeekNft.sol\":3129:3152  itemToCreator[_tokenId] */\n      dup2\n      mstore\n      0x20\n      add\n      swap1\n      dup2\n      mstore\n      0x20\n      add\n      0x00\n      keccak256\n      0x00\n      swap1\n      sload\n      swap1\n      0x0100\n      exp\n      swap1\n      div\n      0xffffffffffffffffffffffffffffffffffffffff\n      and\n        /* \"contracts/GeekNft.sol\":3129:3164  itemToCreator[_tokenId] == oldOwner */\n      0xffffffffffffffffffffffffffffffffffffffff\n      and\n      eq\n        /* \"contracts/GeekNft.sol\":3126:3493  if(itemToCreator[_tokenId] == oldOwner){... */\n      iszero\n      tag_181\n      jumpi\n        /* \"contracts/GeekNft.sol\":3187:3195  oldOwner */\n      dup2\n        /* \"contracts/GeekNft.sol\":3179:3205  payable(oldOwner).transfer */\n      0xffffffffffffffffffffffffffffffffffffffff\n      and\n        /* \"contracts/GeekNft.sol\":3179:3216  payable(oldOwner).transfer(msg.value) */\n      0x08fc\n        /* \"contracts/GeekNft.sol\":3206:3215  msg.value */\n      callvalue\n        /* \"contracts/GeekNft.sol\":3179:3216  payable(oldOwner).transfer(msg.value) */\n      swap1\n      dup2\n      iszero\n      mul\n      swap1\n      mload(0x40)\n      0x00\n      mload(0x40)\n      dup1\n      dup4\n      sub\n      dup2\n      dup6\n      dup9\n      dup9\n      call\n      swap4\n      pop\n      pop\n      pop\n      pop\n      iszero\n      dup1\n      iszero\n      tag_183\n      jumpi\n      returndatasize\n      0x00\n      dup1\n      returndatacopy\n      revert(0x00, returndatasize)\n    tag_183:\n      pop\n        /* \"contracts/GeekNft.sol\":3126:3493  if(itemToCreator[_tokenId] == oldOwner){... */\n      jump(tag_184)\n    tag_181:\n        /* \"contracts/GeekNft.sol\":3247:3256  uint fees */\n      0x00\n        /* \"contracts/GeekNft.sol\":3270:3289  uint totalMinusFees */\n      dup1\n        /* \"contracts/GeekNft.sol\":3328:3365  getFees(msg.value, creatorPercentage) */\n      tag_185\n        /* \"contracts/GeekNft.sol\":3336:3345  msg.value */\n      callvalue\n        /* \"contracts/GeekNft.sol\":3347:3364  creatorPercentage */\n      sload(0x06)\n        /* \"contracts/GeekNft.sol\":3328:3335  getFees */\n      tag_186\n        /* \"contracts/GeekNft.sol\":3328:3365  getFees(msg.value, creatorPercentage) */\n      jump\t// in\n    tag_185:\n        /* \"contracts/GeekNft.sol\":3303:3365  (fees, totalMinusFees) = getFees(msg.value, creatorPercentage) */\n      dup1\n      swap3\n      pop\n      dup2\n      swap4\n      pop\n      pop\n      pop\n        /* \"contracts/GeekNft.sol\":3387:3400  itemToCreator */\n      0x0a\n        /* \"contracts/GeekNft.sol\":3387:3410  itemToCreator[_tokenId] */\n      0x00\n        /* \"contracts/GeekNft.sol\":3401:3409  _tokenId */\n      dup7\n        /* \"contracts/GeekNft.sol\":3387:3410  itemToCreator[_tokenId] */\n      dup2\n      mstore\n      0x20\n      add\n      swap1\n      dup2\n      mstore\n      0x20\n      add\n      0x00\n      keccak256\n      0x00\n      swap1\n      sload\n      swap1\n      0x0100\n      exp\n      swap1\n      div\n      0xffffffffffffffffffffffffffffffffffffffff\n      and\n        /* \"contracts/GeekNft.sol\":3379:3420  payable(itemToCreator[_tokenId]).transfer */\n      0xffffffffffffffffffffffffffffffffffffffff\n      and\n        /* \"contracts/GeekNft.sol\":3379:3426  payable(itemToCreator[_tokenId]).transfer(fees) */\n      0x08fc\n        /* \"contracts/GeekNft.sol\":3421:3425  fees */\n      dup4\n        /* \"contracts/GeekNft.sol\":3379:3426  payable(itemToCreator[_tokenId]).transfer(fees) */\n      swap1\n      dup2\n      iszero\n      mul\n      swap1\n      mload(0x40)\n      0x00\n      mload(0x40)\n      dup1\n      dup4\n      sub\n      dup2\n      dup6\n      dup9\n      dup9\n      call\n      swap4\n      pop\n      pop\n      pop\n      pop\n      iszero\n      dup1\n      iszero\n      tag_188\n      jumpi\n      returndatasize\n      0x00\n      dup1\n      returndatacopy\n      revert(0x00, returndatasize)\n    tag_188:\n      pop\n        /* \"contracts/GeekNft.sol\":3448:3456  oldOwner */\n      dup4\n        /* \"contracts/GeekNft.sol\":3440:3466  payable(oldOwner).transfer */\n      0xffffffffffffffffffffffffffffffffffffffff\n      and\n        /* \"contracts/GeekNft.sol\":3440:3482  payable(oldOwner).transfer(totalMinusFees) */\n      0x08fc\n        /* \"contracts/GeekNft.sol\":3467:3481  totalMinusFees */\n      dup3\n        /* \"contracts/GeekNft.sol\":3440:3482  payable(oldOwner).transfer(totalMinusFees) */\n      swap1\n      dup2\n      iszero\n      mul\n      swap1\n      mload(0x40)\n      0x00\n      mload(0x40)\n      dup1\n      dup4\n      sub\n      dup2\n      dup6\n      dup9\n      dup9\n      call\n      swap4\n      pop\n      pop\n      pop\n      pop\n      iszero\n      dup1\n      iszero\n      tag_190\n      jumpi\n      returndatasize\n      0x00\n      dup1\n      returndatacopy\n      revert(0x00, returndatasize)\n    tag_190:\n      pop\n        /* \"contracts/GeekNft.sol\":3126:3493  if(itemToCreator[_tokenId] == oldOwner){... */\n      pop\n      pop\n    tag_184:\n        /* \"contracts/GeekNft.sol\":3527:3537  msg.sender */\n      caller\n        /* \"contracts/GeekNft.sol\":3508:3548  Transfer(oldOwner, msg.sender, _tokenId) */\n      0xffffffffffffffffffffffffffffffffffffffff\n      and\n        /* \"contracts/GeekNft.sol\":3517:3525  oldOwner */\n      dup3\n        /* \"contracts/GeekNft.sol\":3508:3548  Transfer(oldOwner, msg.sender, _tokenId) */\n      0xffffffffffffffffffffffffffffffffffffffff\n      and\n      0xddf252ad1be2c89b69c2b068fc378daa952ba7f163c4a11628f55a4df523b3ef\n        /* \"contracts/GeekNft.sol\":3539:3547  _tokenId */\n      dup6\n        /* \"contracts/GeekNft.sol\":3508:3548  Transfer(oldOwner, msg.sender, _tokenId) */\n      mload(0x40)\n      tag_191\n      swap2\n      swap1\n      tag_24\n      jump\t// in\n    tag_191:\n      mload(0x40)\n      dup1\n      swap2\n      sub\n      swap1\n      log3\n        /* \"contracts/GeekNft.sol\":2445:3555  function sellItem(uint _tokenId) public payable{... */\n      pop\n      pop\n      pop\n      jump\t// out\n        /* \"contracts/GeekNft.sol\":1350:1444  function getCreateItemFees() public view returns (uint) {... */\n    tag_69:\n        /* \"contracts/GeekNft.sol\":1400:1404  uint */\n      0x00\n        /* \"contracts/GeekNft.sol\":1423:1437  createItemFees */\n      sload(0x05)\n        /* \"contracts/GeekNft.sol\":1416:1437  return createItemFees */\n      swap1\n      pop\n        /* \"contracts/GeekNft.sol\":1350:1444  function getCreateItemFees() public view returns (uint) {... */\n      swap1\n      jump\t// out\n        /* \"contracts/GeekNft.sol\":3787:4116  function removeItemToSell(uint _tokenId) public onlyItemOwner(_tokenId) {... */\n    tag_74:\n        /* \"contracts/GeekNft.sol\":3849:3857  _tokenId */\n      dup1\n        /* \"contracts/GeekNft.sol\":1026:1036  msg.sender */\n      caller\n        /* \"contracts/GeekNft.sol\":1001:1036  itemToOwner[_tokenId] == msg.sender */\n      0xffffffffffffffffffffffffffffffffffffffff\n      and\n        /* \"contracts/GeekNft.sol\":1001:1012  itemToOwner */\n      0x08\n        /* \"contracts/GeekNft.sol\":1001:1022  itemToOwner[_tokenId] */\n      0x00\n        /* \"contracts/GeekNft.sol\":1013:1021  _tokenId */\n      dup4\n        /* \"contracts/GeekNft.sol\":1001:1022  itemToOwner[_tokenId] */\n      dup2\n      mstore\n      0x20\n      add\n      swap1\n      dup2\n      mstore\n      0x20\n      add\n      0x00\n      keccak256\n      0x00\n      swap1\n      sload\n      swap1\n      0x0100\n      exp\n      swap1\n      div\n      0xffffffffffffffffffffffffffffffffffffffff\n      and\n        /* \"contracts/GeekNft.sol\":1001:1036  itemToOwner[_tokenId] == msg.sender */\n      0xffffffffffffffffffffffffffffffffffffffff\n      and\n      eq\n        /* \"contracts/GeekNft.sol\":993:1070  require(itemToOwner[_tokenId] == msg.sender, \"Only item's owner can do that\") */\n      tag_194\n      jumpi\n      mload(0x40)\n      0x08c379a000000000000000000000000000000000000000000000000000000000\n      dup2\n      mstore\n      0x04\n      add\n      tag_195\n      swap1\n      tag_196\n      jump\t// in\n    tag_195:\n      mload(0x40)\n      dup1\n      swap2\n      sub\n      swap1\n      revert\n    tag_194:\n        /* \"contracts/GeekNft.sol\":3910:3911  0 */\n      0x00\n        /* \"contracts/GeekNft.sol\":3877:3912  itemToOwner[_tokenId] != address(0) */\n      0xffffffffffffffffffffffffffffffffffffffff\n      and\n        /* \"contracts/GeekNft.sol\":3877:3888  itemToOwner */\n      0x08\n        /* \"contracts/GeekNft.sol\":3877:3898  itemToOwner[_tokenId] */\n      0x00\n        /* \"contracts/GeekNft.sol\":3889:3897  _tokenId */\n      dup5\n        /* \"contracts/GeekNft.sol\":3877:3898  itemToOwner[_tokenId] */\n      dup2\n      mstore\n      0x20\n      add\n      swap1\n      dup2\n      mstore\n      0x20\n      add\n      0x00\n      keccak256\n      0x00\n      swap1\n      sload\n      swap1\n      0x0100\n      exp\n      swap1\n      div\n      0xffffffffffffffffffffffffffffffffffffffff\n      and\n        /* \"contracts/GeekNft.sol\":3877:3912  itemToOwner[_tokenId] != address(0) */\n      0xffffffffffffffffffffffffffffffffffffffff\n      and\n      eq\n      iszero\n        /* \"contracts/GeekNft.sol\":3869:3936  require(itemToOwner[_tokenId] != address(0), \"token doesn't exist\") */\n      tag_198\n      jumpi\n      mload(0x40)\n      0x08c379a000000000000000000000000000000000000000000000000000000000\n      dup2\n      mstore\n      0x04\n      add\n      tag_199\n      swap1\n      tag_175\n      jump\t// in\n    tag_199:\n      mload(0x40)\n      dup1\n      swap2\n      sub\n      swap1\n      revert\n    tag_198:\n        /* \"contracts/GeekNft.sol\":3980:3984  true */\n      0x01\n        /* \"contracts/GeekNft.sol\":3954:3984  items[_tokenId].toSell == true */\n      iszero\n      iszero\n        /* \"contracts/GeekNft.sol\":3954:3959  items */\n      0x03\n        /* \"contracts/GeekNft.sol\":3960:3968  _tokenId */\n      dup4\n        /* \"contracts/GeekNft.sol\":3954:3969  items[_tokenId] */\n      dup2\n      sload\n      dup2\n      lt\n      tag_200\n      jumpi\n      mstore(0x00, 0x4e487b7100000000000000000000000000000000000000000000000000000000)\n      mstore(0x04, 0x32)\n      revert(0x00, 0x24)\n    tag_200:\n      swap1\n      0x00\n      mstore\n      keccak256(0x00, 0x20)\n      swap1\n      0x04\n      mul\n      add\n        /* \"contracts/GeekNft.sol\":3954:3976  items[_tokenId].toSell */\n      0x03\n      add\n      0x00\n      swap1\n      sload\n      swap1\n      0x0100\n      exp\n      swap1\n      div\n      0xff\n      and\n        /* \"contracts/GeekNft.sol\":3954:3984  items[_tokenId].toSell == true */\n      iszero\n      iszero\n      eq\n        /* \"contracts/GeekNft.sol\":3946:4008  require(items[_tokenId].toSell == true, \"token isn't to sell\") */\n      tag_202\n      jumpi\n      mload(0x40)\n      0x08c379a000000000000000000000000000000000000000000000000000000000\n      dup2\n      mstore\n      0x04\n      add\n      tag_203\n      swap1\n      tag_204\n      jump\t// in\n    tag_203:\n      mload(0x40)\n      dup1\n      swap2\n      sub\n      swap1\n      revert\n    tag_202:\n        /* \"contracts/GeekNft.sol\":4043:4048  false */\n      0x00\n        /* \"contracts/GeekNft.sol\":4018:4023  items */\n      0x03\n        /* \"contracts/GeekNft.sol\":4024:4032  _tokenId */\n      dup4\n        /* \"contracts/GeekNft.sol\":4018:4033  items[_tokenId] */\n      dup2\n      sload\n      dup2\n      lt\n      tag_205\n      jumpi\n      mstore(0x00, 0x4e487b7100000000000000000000000000000000000000000000000000000000)\n      mstore(0x04, 0x32)\n      revert(0x00, 0x24)\n    tag_205:\n      swap1\n      0x00\n      mstore\n      keccak256(0x00, 0x20)\n      swap1\n      0x04\n      mul\n      add\n        /* \"contracts/GeekNft.sol\":4018:4040  items[_tokenId].toSell */\n      0x03\n      add\n      0x00\n        /* \"contracts/GeekNft.sol\":4018:4048  items[_tokenId].toSell = false */\n      0x0100\n      exp\n      dup2\n      sload\n      dup2\n      0xff\n      mul\n      not\n      and\n      swap1\n      dup4\n      iszero\n      iszero\n      mul\n      or\n      swap1\n      sstore\n      pop\n        /* \"contracts/GeekNft.sol\":4081:4097  itemsToSellCount */\n      0x04\n      0x00\n        /* \"contracts/GeekNft.sol\":4081:4099  itemsToSellCount-- */\n      dup2\n      sload\n      dup1\n      swap3\n      swap2\n      swap1\n      0x01\n      swap1\n      sub\n      swap2\n      swap1\n      pop\n      sstore\n      pop\n        /* \"contracts/GeekNft.sol\":3787:4116  function removeItemToSell(uint _tokenId) public onlyItemOwner(_tokenId) {... */\n      pop\n      pop\n      jump\t// out\n        /* \"contracts/GeekNft.sol\":4122:4526  function addItemToSell(uint _tokenId) public payable sendCorrectFeesValue onlyItemOwner(_tokenId) {... */\n    tag_77:\n        /* \"contracts/GeekNft.sol\":1157:1171  createItemFees */\n      sload(0x05)\n        /* \"contracts/GeekNft.sol\":1144:1153  msg.value */\n      callvalue\n        /* \"contracts/GeekNft.sol\":1144:1171  msg.value == createItemFees */\n      eq\n        /* \"contracts/GeekNft.sol\":1136:1209  require(msg.value == createItemFees, \"Thanks to send correct fees value\") */\n      tag_208\n      jumpi\n      mload(0x40)\n      0x08c379a000000000000000000000000000000000000000000000000000000000\n      dup2\n      mstore\n      0x04\n      add\n      tag_209\n      swap1\n      tag_85\n      jump\t// in\n    tag_209:\n      mload(0x40)\n      dup1\n      swap2\n      sub\n      swap1\n      revert\n    tag_208:\n        /* \"contracts/GeekNft.sol\":4210:4218  _tokenId */\n      dup1\n        /* \"contracts/GeekNft.sol\":1026:1036  msg.sender */\n      caller\n        /* \"contracts/GeekNft.sol\":1001:1036  itemToOwner[_tokenId] == msg.sender */\n      0xffffffffffffffffffffffffffffffffffffffff\n      and\n        /* \"contracts/GeekNft.sol\":1001:1012  itemToOwner */\n      0x08\n        /* \"contracts/GeekNft.sol\":1001:1022  itemToOwner[_tokenId] */\n      0x00\n        /* \"contracts/GeekNft.sol\":1013:1021  _tokenId */\n      dup4\n        /* \"contracts/GeekNft.sol\":1001:1022  itemToOwner[_tokenId] */\n      dup2\n      mstore\n      0x20\n      add\n      swap1\n      dup2\n      mstore\n      0x20\n      add\n      0x00\n      keccak256\n      0x00\n      swap1\n      sload\n      swap1\n      0x0100\n      exp\n      swap1\n      div\n      0xffffffffffffffffffffffffffffffffffffffff\n      and\n        /* \"contracts/GeekNft.sol\":1001:1036  itemToOwner[_tokenId] == msg.sender */\n      0xffffffffffffffffffffffffffffffffffffffff\n      and\n      eq\n        /* \"contracts/GeekNft.sol\":993:1070  require(itemToOwner[_tokenId] == msg.sender, \"Only item's owner can do that\") */\n      tag_211\n      jumpi\n      mload(0x40)\n      0x08c379a000000000000000000000000000000000000000000000000000000000\n      dup2\n      mstore\n      0x04\n      add\n      tag_212\n      swap1\n      tag_196\n      jump\t// in\n    tag_212:\n      mload(0x40)\n      dup1\n      swap2\n      sub\n      swap1\n      revert\n    tag_211:\n        /* \"contracts/GeekNft.sol\":4271:4272  0 */\n      0x00\n        /* \"contracts/GeekNft.sol\":4238:4273  itemToOwner[_tokenId] != address(0) */\n      0xffffffffffffffffffffffffffffffffffffffff\n      and\n        /* \"contracts/GeekNft.sol\":4238:4249  itemToOwner */\n      0x08\n        /* \"contracts/GeekNft.sol\":4238:4259  itemToOwner[_tokenId] */\n      0x00\n        /* \"contracts/GeekNft.sol\":4250:4258  _tokenId */\n      dup5\n        /* \"contracts/GeekNft.sol\":4238:4259  itemToOwner[_tokenId] */\n      dup2\n      mstore\n      0x20\n      add\n      swap1\n      dup2\n      mstore\n      0x20\n      add\n      0x00\n      keccak256\n      0x00\n      swap1\n      sload\n      swap1\n      0x0100\n      exp\n      swap1\n      div\n      0xffffffffffffffffffffffffffffffffffffffff\n      and\n        /* \"contracts/GeekNft.sol\":4238:4273  itemToOwner[_tokenId] != address(0) */\n      0xffffffffffffffffffffffffffffffffffffffff\n      and\n      eq\n      iszero\n        /* \"contracts/GeekNft.sol\":4230:4297  require(itemToOwner[_tokenId] != address(0), \"token doesn't exist\") */\n      tag_214\n      jumpi\n      mload(0x40)\n      0x08c379a000000000000000000000000000000000000000000000000000000000\n      dup2\n      mstore\n      0x04\n      add\n      tag_215\n      swap1\n      tag_175\n      jump\t// in\n    tag_215:\n      mload(0x40)\n      dup1\n      swap2\n      sub\n      swap1\n      revert\n    tag_214:\n        /* \"contracts/GeekNft.sol\":4341:4346  false */\n      0x00\n        /* \"contracts/GeekNft.sol\":4315:4346  items[_tokenId].toSell == false */\n      iszero\n      iszero\n        /* \"contracts/GeekNft.sol\":4315:4320  items */\n      0x03\n        /* \"contracts/GeekNft.sol\":4321:4329  _tokenId */\n      dup4\n        /* \"contracts/GeekNft.sol\":4315:4330  items[_tokenId] */\n      dup2\n      sload\n      dup2\n      lt\n      tag_216\n      jumpi\n      mstore(0x00, 0x4e487b7100000000000000000000000000000000000000000000000000000000)\n      mstore(0x04, 0x32)\n      revert(0x00, 0x24)\n    tag_216:\n      swap1\n      0x00\n      mstore\n      keccak256(0x00, 0x20)\n      swap1\n      0x04\n      mul\n      add\n        /* \"contracts/GeekNft.sol\":4315:4337  items[_tokenId].toSell */\n      0x03\n      add\n      0x00\n      swap1\n      sload\n      swap1\n      0x0100\n      exp\n      swap1\n      div\n      0xff\n      and\n        /* \"contracts/GeekNft.sol\":4315:4346  items[_tokenId].toSell == false */\n      iszero\n      iszero\n      eq\n        /* \"contracts/GeekNft.sol\":4307:4375  require(items[_tokenId].toSell == false, \"token is already to sell\") */\n      tag_218\n      jumpi\n      mload(0x40)\n      0x08c379a000000000000000000000000000000000000000000000000000000000\n      dup2\n      mstore\n      0x04\n      add\n      tag_219\n      swap1\n      tag_220\n      jump\t// in\n    tag_219:\n      mload(0x40)\n      dup1\n      swap2\n      sub\n      swap1\n      revert\n    tag_218:\n        /* \"contracts/GeekNft.sol\":4410:4414  true */\n      0x01\n        /* \"contracts/GeekNft.sol\":4385:4390  items */\n      0x03\n        /* \"contracts/GeekNft.sol\":4391:4399  _tokenId */\n      dup4\n        /* \"contracts/GeekNft.sol\":4385:4400  items[_tokenId] */\n      dup2\n      sload\n      dup2\n      lt\n      tag_221\n      jumpi\n      mstore(0x00, 0x4e487b7100000000000000000000000000000000000000000000000000000000)\n      mstore(0x04, 0x32)\n      revert(0x00, 0x24)\n    tag_221:\n      swap1\n      0x00\n      mstore\n      keccak256(0x00, 0x20)\n      swap1\n      0x04\n      mul\n      add\n        /* \"contracts/GeekNft.sol\":4385:4407  items[_tokenId].toSell */\n      0x03\n      add\n      0x00\n        /* \"contracts/GeekNft.sol\":4385:4414  items[_tokenId].toSell = true */\n      0x0100\n      exp\n      dup2\n      sload\n      dup2\n      0xff\n      mul\n      not\n      and\n      swap1\n      dup4\n      iszero\n      iszero\n      mul\n      or\n      swap1\n      sstore\n      pop\n        /* \"contracts/GeekNft.sol\":4447:4463  itemsToSellCount */\n      0x04\n      0x00\n        /* \"contracts/GeekNft.sol\":4447:4465  itemsToSellCount++ */\n      dup2\n      sload\n      dup1\n      swap3\n      swap2\n      swap1\n      0x01\n      add\n      swap2\n      swap1\n      pop\n      sstore\n      pop\n        /* \"contracts/GeekNft.sol\":4493:4498  owner */\n      0x02\n      0x00\n      swap1\n      sload\n      swap1\n      0x0100\n      exp\n      swap1\n      div\n      0xffffffffffffffffffffffffffffffffffffffff\n      and\n        /* \"contracts/GeekNft.sol\":4485:4508  payable(owner).transfer */\n      0xffffffffffffffffffffffffffffffffffffffff\n      and\n        /* \"contracts/GeekNft.sol\":4485:4519  payable(owner).transfer(msg.value) */\n      0x08fc\n        /* \"contracts/GeekNft.sol\":4509:4518  msg.value */\n      callvalue\n        /* \"contracts/GeekNft.sol\":4485:4519  payable(owner).transfer(msg.value) */\n      swap1\n      dup2\n      iszero\n      mul\n      swap1\n      mload(0x40)\n      0x00\n      mload(0x40)\n      dup1\n      dup4\n      sub\n      dup2\n      dup6\n      dup9\n      dup9\n      call\n      swap4\n      pop\n      pop\n      pop\n      pop\n      iszero\n      dup1\n      iszero\n      tag_224\n      jumpi\n      returndatasize\n      0x00\n      dup1\n      returndatacopy\n      revert(0x00, returndatasize)\n    tag_224:\n      pop\n        /* \"contracts/GeekNft.sol\":1219:1220  _ */\n      pop\n        /* \"contracts/GeekNft.sol\":4122:4526  function addItemToSell(uint _tokenId) public payable sendCorrectFeesValue onlyItemOwner(_tokenId) {... */\n      pop\n      jump\t// out\n        /* \"contracts/GeekNft.sol\":1233:1344  function updateCreateItemFees(uint _newFees) public onlyContractOwner{... */\n    tag_81:\n        /* \"contracts/GeekNft.sol\":878:883  owner */\n      0x02\n      0x00\n      swap1\n      sload\n      swap1\n      0x0100\n      exp\n      swap1\n      div\n      0xffffffffffffffffffffffffffffffffffffffff\n      and\n        /* \"contracts/GeekNft.sol\":864:883  msg.sender == owner */\n      0xffffffffffffffffffffffffffffffffffffffff\n      and\n        /* \"contracts/GeekNft.sol\":864:874  msg.sender */\n      caller\n        /* \"contracts/GeekNft.sol\":864:883  msg.sender == owner */\n      0xffffffffffffffffffffffffffffffffffffffff\n      and\n      eq\n        /* \"contracts/GeekNft.sol\":856:921  require(msg.sender == owner, \"Only contract's owner can do that\") */\n      tag_226\n      jumpi\n      mload(0x40)\n      0x08c379a000000000000000000000000000000000000000000000000000000000\n      dup2\n      mstore\n      0x04\n      add\n      tag_227\n      swap1\n      tag_118\n      jump\t// in\n    tag_227:\n      mload(0x40)\n      dup1\n      swap2\n      sub\n      swap1\n      revert\n    tag_226:\n        /* \"contracts/GeekNft.sol\":1329:1337  _newFees */\n      dup1\n        /* \"contracts/GeekNft.sol\":1312:1326  createItemFees */\n      0x05\n        /* \"contracts/GeekNft.sol\":1312:1337  createItemFees = _newFees */\n      dup2\n      swap1\n      sstore\n      pop\n        /* \"contracts/GeekNft.sol\":1233:1344  function updateCreateItemFees(uint _newFees) public onlyContractOwner{... */\n      pop\n      jump\t// out\n        /* \"contracts/GeekNft.sol\":6182:6404  function getFees(uint _price, uint _percentage) private pure returns (uint, uint){... */\n    tag_186:\n        /* \"contracts/GeekNft.sol\":6252:6256  uint */\n      0x00\n        /* \"contracts/GeekNft.sol\":6258:6262  uint */\n      dup1\n        /* \"contracts/GeekNft.sol\":6273:6282  uint fees */\n      0x00\n        /* \"contracts/GeekNft.sol\":6310:6313  100 */\n      0x64\n        /* \"contracts/GeekNft.sol\":6300:6306  _price */\n      dup6\n        /* \"contracts/GeekNft.sol\":6286:6297  _percentage */\n      dup6\n        /* \"contracts/GeekNft.sol\":6286:6306  _percentage * _price */\n      tag_230\n      swap2\n      swap1\n      tag_231\n      jump\t// in\n    tag_230:\n        /* \"contracts/GeekNft.sol\":6285:6313  (_percentage * _price) / 100 */\n      tag_232\n      swap2\n      swap1\n      tag_233\n      jump\t// in\n    tag_232:\n        /* \"contracts/GeekNft.sol\":6273:6313  uint fees = (_percentage * _price) / 100 */\n      swap1\n      pop\n        /* \"contracts/GeekNft.sol\":6323:6342  uint totalMinusFees */\n      0x00\n        /* \"contracts/GeekNft.sol\":6354:6358  fees */\n      dup2\n        /* \"contracts/GeekNft.sol\":6345:6351  _price */\n      dup7\n        /* \"contracts/GeekNft.sol\":6345:6358  _price - fees */\n      tag_234\n      swap2\n      swap1\n      tag_235\n      jump\t// in\n    tag_234:\n        /* \"contracts/GeekNft.sol\":6323:6358  uint totalMinusFees = _price - fees */\n      swap1\n      pop\n        /* \"contracts/GeekNft.sol\":6376:6380  fees */\n      dup2\n        /* \"contracts/GeekNft.sol\":6382:6396  totalMinusFees */\n      dup2\n        /* \"contracts/GeekNft.sol\":6368:6397  return (fees, totalMinusFees) */\n      swap4\n      pop\n      swap4\n      pop\n      pop\n      pop\n        /* \"contracts/GeekNft.sol\":6182:6404  function getFees(uint _price, uint _percentage) private pure returns (uint, uint){... */\n      swap3\n      pop\n      swap3\n      swap1\n      pop\n      jump\t// out\n    tag_101:\n      mload(0x40)\n      dup1\n      0x80\n      add\n      0x40\n      mstore\n      dup1\n      0x00\n      dup2\n      mstore\n      0x20\n      add\n      0x00\n      dup2\n      mstore\n      0x20\n      add\n      0x00\n      dup2\n      mstore\n      0x20\n      add\n      iszero(iszero(0x00))\n      dup2\n      mstore\n      pop\n      swap1\n      jump\t// out\n        /* \"#utility.yul\":7:146   */\n    tag_237:\n      0x00\n        /* \"#utility.yul\":91:97   */\n      dup2\n        /* \"#utility.yul\":78:98   */\n      calldataload\n        /* \"#utility.yul\":69:98   */\n      swap1\n      pop\n        /* \"#utility.yul\":107:140   */\n      tag_239\n        /* \"#utility.yul\":134:139   */\n      dup2\n        /* \"#utility.yul\":107:140   */\n      tag_240\n      jump\t// in\n    tag_239:\n        /* \"#utility.yul\":59:146   */\n      swap3\n      swap2\n      pop\n      pop\n      jump\t// out\n        /* \"#utility.yul\":152:291   */\n    tag_241:\n      0x00\n        /* \"#utility.yul\":236:242   */\n      dup2\n        /* \"#utility.yul\":223:243   */\n      calldataload\n        /* \"#utility.yul\":214:243   */\n      swap1\n      pop\n        /* \"#utility.yul\":252:285   */\n      tag_243\n        /* \"#utility.yul\":279:284   */\n      dup2\n        /* \"#utility.yul\":252:285   */\n      tag_244\n      jump\t// in\n    tag_243:\n        /* \"#utility.yul\":204:291   */\n      swap3\n      swap2\n      pop\n      pop\n      jump\t// out\n        /* \"#utility.yul\":297:559   */\n    tag_61:\n      0x00\n        /* \"#utility.yul\":405:407   */\n      0x20\n        /* \"#utility.yul\":393:402   */\n      dup3\n        /* \"#utility.yul\":384:391   */\n      dup5\n        /* \"#utility.yul\":380:403   */\n      sub\n        /* \"#utility.yul\":376:408   */\n      slt\n        /* \"#utility.yul\":373:375   */\n      iszero\n      tag_246\n      jumpi\n        /* \"#utility.yul\":421:422   */\n      0x00\n        /* \"#utility.yul\":418:419   */\n      dup1\n        /* \"#utility.yul\":411:423   */\n      revert\n        /* \"#utility.yul\":373:375   */\n    tag_246:\n        /* \"#utility.yul\":464:465   */\n      0x00\n        /* \"#utility.yul\":489:542   */\n      tag_247\n        /* \"#utility.yul\":534:541   */\n      dup5\n        /* \"#utility.yul\":525:531   */\n      dup3\n        /* \"#utility.yul\":514:523   */\n      dup6\n        /* \"#utility.yul\":510:532   */\n      add\n        /* \"#utility.yul\":489:542   */\n      tag_237\n      jump\t// in\n    tag_247:\n        /* \"#utility.yul\":479:542   */\n      swap2\n      pop\n        /* \"#utility.yul\":435:552   */\n      pop\n        /* \"#utility.yul\":363:559   */\n      swap3\n      swap2\n      pop\n      pop\n      jump\t// out\n        /* \"#utility.yul\":565:827   */\n    tag_37:\n      0x00\n        /* \"#utility.yul\":673:675   */\n      0x20\n        /* \"#utility.yul\":661:670   */\n      dup3\n        /* \"#utility.yul\":652:659   */\n      dup5\n        /* \"#utility.yul\":648:671   */\n      sub\n        /* \"#utility.yul\":644:676   */\n      slt\n        /* \"#utility.yul\":641:643   */\n      iszero\n      tag_249\n      jumpi\n        /* \"#utility.yul\":689:690   */\n      0x00\n        /* \"#utility.yul\":686:687   */\n      dup1\n        /* \"#utility.yul\":679:691   */\n      revert\n        /* \"#utility.yul\":641:643   */\n    tag_249:\n        /* \"#utility.yul\":732:733   */\n      0x00\n        /* \"#utility.yul\":757:810   */\n      tag_250\n        /* \"#utility.yul\":802:809   */\n      dup5\n        /* \"#utility.yul\":793:799   */\n      dup3\n        /* \"#utility.yul\":782:791   */\n      dup6\n        /* \"#utility.yul\":778:800   */\n      add\n        /* \"#utility.yul\":757:810   */\n      tag_241\n      jump\t// in\n    tag_250:\n        /* \"#utility.yul\":747:810   */\n      swap2\n      pop\n        /* \"#utility.yul\":703:820   */\n      pop\n        /* \"#utility.yul\":631:827   */\n      swap3\n      swap2\n      pop\n      pop\n      jump\t// out\n        /* \"#utility.yul\":833:1385   */\n    tag_21:\n      0x00\n      dup1\n      0x00\n        /* \"#utility.yul\":975:977   */\n      0x60\n        /* \"#utility.yul\":963:972   */\n      dup5\n        /* \"#utility.yul\":954:961   */\n      dup7\n        /* \"#utility.yul\":950:973   */\n      sub\n        /* \"#utility.yul\":946:978   */\n      slt\n        /* \"#utility.yul\":943:945   */\n      iszero\n      tag_252\n      jumpi\n        /* \"#utility.yul\":991:992   */\n      0x00\n        /* \"#utility.yul\":988:989   */\n      dup1\n        /* \"#utility.yul\":981:993   */\n      revert\n        /* \"#utility.yul\":943:945   */\n    tag_252:\n        /* \"#utility.yul\":1034:1035   */\n      0x00\n        /* \"#utility.yul\":1059:1112   */\n      tag_253\n        /* \"#utility.yul\":1104:1111   */\n      dup7\n        /* \"#utility.yul\":1095:1101   */\n      dup3\n        /* \"#utility.yul\":1084:1093   */\n      dup8\n        /* \"#utility.yul\":1080:1102   */\n      add\n        /* \"#utility.yul\":1059:1112   */\n      tag_241\n      jump\t// in\n    tag_253:\n        /* \"#utility.yul\":1049:1112   */\n      swap4\n      pop\n        /* \"#utility.yul\":1005:1122   */\n      pop\n        /* \"#utility.yul\":1161:1163   */\n      0x20\n        /* \"#utility.yul\":1187:1240   */\n      tag_254\n        /* \"#utility.yul\":1232:1239   */\n      dup7\n        /* \"#utility.yul\":1223:1229   */\n      dup3\n        /* \"#utility.yul\":1212:1221   */\n      dup8\n        /* \"#utility.yul\":1208:1230   */\n      add\n        /* \"#utility.yul\":1187:1240   */\n      tag_241\n      jump\t// in\n    tag_254:\n        /* \"#utility.yul\":1177:1240   */\n      swap3\n      pop\n        /* \"#utility.yul\":1132:1250   */\n      pop\n        /* \"#utility.yul\":1289:1291   */\n      0x40\n        /* \"#utility.yul\":1315:1368   */\n      tag_255\n        /* \"#utility.yul\":1360:1367   */\n      dup7\n        /* \"#utility.yul\":1351:1357   */\n      dup3\n        /* \"#utility.yul\":1340:1349   */\n      dup8\n        /* \"#utility.yul\":1336:1358   */\n      add\n        /* \"#utility.yul\":1315:1368   */\n      tag_241\n      jump\t// in\n    tag_255:\n        /* \"#utility.yul\":1305:1368   */\n      swap2\n      pop\n        /* \"#utility.yul\":1260:1378   */\n      pop\n        /* \"#utility.yul\":933:1385   */\n      swap3\n      pop\n      swap3\n      pop\n      swap3\n      jump\t// out\n        /* \"#utility.yul\":1391:1650   */\n    tag_256:\n      0x00\n        /* \"#utility.yul\":1521:1607   */\n      tag_258\n        /* \"#utility.yul\":1603:1606   */\n      dup4\n        /* \"#utility.yul\":1595:1601   */\n      dup4\n        /* \"#utility.yul\":1521:1607   */\n      tag_259\n      jump\t// in\n    tag_258:\n        /* \"#utility.yul\":1639:1643   */\n      0x80\n        /* \"#utility.yul\":1634:1637   */\n      dup4\n        /* \"#utility.yul\":1630:1644   */\n      add\n        /* \"#utility.yul\":1616:1644   */\n      swap1\n      pop\n        /* \"#utility.yul\":1511:1650   */\n      swap3\n      swap2\n      pop\n      pop\n      jump\t// out\n        /* \"#utility.yul\":1656:1774   */\n    tag_260:\n        /* \"#utility.yul\":1743:1767   */\n      tag_262\n        /* \"#utility.yul\":1761:1766   */\n      dup2\n        /* \"#utility.yul\":1743:1767   */\n      tag_263\n      jump\t// in\n    tag_262:\n        /* \"#utility.yul\":1738:1741   */\n      dup3\n        /* \"#utility.yul\":1731:1768   */\n      mstore\n        /* \"#utility.yul\":1721:1774   */\n      pop\n      pop\n      jump\t// out\n        /* \"#utility.yul\":1834:2726   */\n    tag_264:\n      0x00\n        /* \"#utility.yul\":2022:2096   */\n      tag_266\n        /* \"#utility.yul\":2090:2095   */\n      dup3\n        /* \"#utility.yul\":2022:2096   */\n      tag_267\n      jump\t// in\n    tag_266:\n        /* \"#utility.yul\":2112:2218   */\n      tag_268\n        /* \"#utility.yul\":2211:2217   */\n      dup2\n        /* \"#utility.yul\":2206:2209   */\n      dup6\n        /* \"#utility.yul\":2112:2218   */\n      tag_269\n      jump\t// in\n    tag_268:\n        /* \"#utility.yul\":2105:2218   */\n      swap4\n      pop\n        /* \"#utility.yul\":2242:2318   */\n      tag_270\n        /* \"#utility.yul\":2312:2317   */\n      dup4\n        /* \"#utility.yul\":2242:2318   */\n      tag_271\n      jump\t// in\n    tag_270:\n        /* \"#utility.yul\":2341:2348   */\n      dup1\n        /* \"#utility.yul\":2372:2373   */\n      0x00\n        /* \"#utility.yul\":2357:2701   */\n    tag_272:\n        /* \"#utility.yul\":2382:2388   */\n      dup4\n        /* \"#utility.yul\":2379:2380   */\n      dup2\n        /* \"#utility.yul\":2376:2389   */\n      lt\n        /* \"#utility.yul\":2357:2701   */\n      iszero\n      tag_274\n      jumpi\n        /* \"#utility.yul\":2458:2464   */\n      dup2\n        /* \"#utility.yul\":2452:2465   */\n      mload\n        /* \"#utility.yul\":2485:2588   */\n      tag_275\n        /* \"#utility.yul\":2584:2587   */\n      dup9\n        /* \"#utility.yul\":2569:2582   */\n      dup3\n        /* \"#utility.yul\":2485:2588   */\n      tag_256\n      jump\t// in\n    tag_275:\n        /* \"#utility.yul\":2478:2588   */\n      swap8\n      pop\n        /* \"#utility.yul\":2611:2691   */\n      tag_276\n        /* \"#utility.yul\":2684:2690   */\n      dup4\n        /* \"#utility.yul\":2611:2691   */\n      tag_277\n      jump\t// in\n    tag_276:\n        /* \"#utility.yul\":2601:2691   */\n      swap3\n      pop\n        /* \"#utility.yul\":2417:2701   */\n      pop\n        /* \"#utility.yul\":2404:2405   */\n      0x01\n        /* \"#utility.yul\":2401:2402   */\n      dup2\n        /* \"#utility.yul\":2397:2406   */\n      add\n        /* \"#utility.yul\":2392:2406   */\n      swap1\n      pop\n        /* \"#utility.yul\":2357:2701   */\n      jump(tag_272)\n    tag_274:\n        /* \"#utility.yul\":2361:2375   */\n      pop\n        /* \"#utility.yul\":2717:2720   */\n      dup6\n        /* \"#utility.yul\":2710:2720   */\n      swap4\n      pop\n        /* \"#utility.yul\":1998:2726   */\n      pop\n      pop\n      pop\n      swap3\n      swap2\n      pop\n      pop\n      jump\t// out\n        /* \"#utility.yul\":2732:2831   */\n    tag_278:\n        /* \"#utility.yul\":2803:2824   */\n      tag_280\n        /* \"#utility.yul\":2818:2823   */\n      dup2\n        /* \"#utility.yul\":2803:2824   */\n      tag_281\n      jump\t// in\n    tag_280:\n        /* \"#utility.yul\":2798:2801   */\n      dup3\n        /* \"#utility.yul\":2791:2825   */\n      mstore\n        /* \"#utility.yul\":2781:2831   */\n      pop\n      pop\n      jump\t// out\n        /* \"#utility.yul\":2837:3203   */\n    tag_282:\n      0x00\n        /* \"#utility.yul\":3000:3067   */\n      tag_284\n        /* \"#utility.yul\":3064:3066   */\n      0x29\n        /* \"#utility.yul\":3059:3062   */\n      dup4\n        /* \"#utility.yul\":3000:3067   */\n      tag_285\n      jump\t// in\n    tag_284:\n        /* \"#utility.yul\":2993:3067   */\n      swap2\n      pop\n        /* \"#utility.yul\":3076:3169   */\n      tag_286\n        /* \"#utility.yul\":3165:3168   */\n      dup3\n        /* \"#utility.yul\":3076:3169   */\n      tag_287\n      jump\t// in\n    tag_286:\n        /* \"#utility.yul\":3194:3196   */\n      0x40\n        /* \"#utility.yul\":3189:3192   */\n      dup3\n        /* \"#utility.yul\":3185:3197   */\n      add\n        /* \"#utility.yul\":3178:3197   */\n      swap1\n      pop\n        /* \"#utility.yul\":2983:3203   */\n      swap2\n      swap1\n      pop\n      jump\t// out\n        /* \"#utility.yul\":3209:3575   */\n    tag_288:\n      0x00\n        /* \"#utility.yul\":3372:3439   */\n      tag_290\n        /* \"#utility.yul\":3436:3438   */\n      0x13\n        /* \"#utility.yul\":3431:3434   */\n      dup4\n        /* \"#utility.yul\":3372:3439   */\n      tag_285\n      jump\t// in\n    tag_290:\n        /* \"#utility.yul\":3365:3439   */\n      swap2\n      pop\n        /* \"#utility.yul\":3448:3541   */\n      tag_291\n        /* \"#utility.yul\":3537:3540   */\n      dup3\n        /* \"#utility.yul\":3448:3541   */\n      tag_292\n      jump\t// in\n    tag_291:\n        /* \"#utility.yul\":3566:3568   */\n      0x20\n        /* \"#utility.yul\":3561:3564   */\n      dup3\n        /* \"#utility.yul\":3557:3569   */\n      add\n        /* \"#utility.yul\":3550:3569   */\n      swap1\n      pop\n        /* \"#utility.yul\":3355:3575   */\n      swap2\n      swap1\n      pop\n      jump\t// out\n        /* \"#utility.yul\":3581:3947   */\n    tag_293:\n      0x00\n        /* \"#utility.yul\":3744:3811   */\n      tag_295\n        /* \"#utility.yul\":3808:3810   */\n      0x13\n        /* \"#utility.yul\":3803:3806   */\n      dup4\n        /* \"#utility.yul\":3744:3811   */\n      tag_285\n      jump\t// in\n    tag_295:\n        /* \"#utility.yul\":3737:3811   */\n      swap2\n      pop\n        /* \"#utility.yul\":3820:3913   */\n      tag_296\n        /* \"#utility.yul\":3909:3912   */\n      dup3\n        /* \"#utility.yul\":3820:3913   */\n      tag_297\n      jump\t// in\n    tag_296:\n        /* \"#utility.yul\":3938:3940   */\n      0x20\n        /* \"#utility.yul\":3933:3936   */\n      dup3\n        /* \"#utility.yul\":3929:3941   */\n      add\n        /* \"#utility.yul\":3922:3941   */\n      swap1\n      pop\n        /* \"#utility.yul\":3727:3947   */\n      swap2\n      swap1\n      pop\n      jump\t// out\n        /* \"#utility.yul\":3953:4319   */\n    tag_298:\n      0x00\n        /* \"#utility.yul\":4116:4183   */\n      tag_300\n        /* \"#utility.yul\":4180:4182   */\n      0x35\n        /* \"#utility.yul\":4175:4178   */\n      dup4\n        /* \"#utility.yul\":4116:4183   */\n      tag_285\n      jump\t// in\n    tag_300:\n        /* \"#utility.yul\":4109:4183   */\n      swap2\n      pop\n        /* \"#utility.yul\":4192:4285   */\n      tag_301\n        /* \"#utility.yul\":4281:4284   */\n      dup3\n        /* \"#utility.yul\":4192:4285   */\n      tag_302\n      jump\t// in\n    tag_301:\n        /* \"#utility.yul\":4310:4312   */\n      0x40\n        /* \"#utility.yul\":4305:4308   */\n      dup3\n        /* \"#utility.yul\":4301:4313   */\n      add\n        /* \"#utility.yul\":4294:4313   */\n      swap1\n      pop\n        /* \"#utility.yul\":4099:4319   */\n      swap2\n      swap1\n      pop\n      jump\t// out\n        /* \"#utility.yul\":4325:4691   */\n    tag_303:\n      0x00\n        /* \"#utility.yul\":4488:4555   */\n      tag_305\n        /* \"#utility.yul\":4552:4554   */\n      0x13\n        /* \"#utility.yul\":4547:4550   */\n      dup4\n        /* \"#utility.yul\":4488:4555   */\n      tag_285\n      jump\t// in\n    tag_305:\n        /* \"#utility.yul\":4481:4555   */\n      swap2\n      pop\n        /* \"#utility.yul\":4564:4657   */\n      tag_306\n        /* \"#utility.yul\":4653:4656   */\n      dup3\n        /* \"#utility.yul\":4564:4657   */\n      tag_307\n      jump\t// in\n    tag_306:\n        /* \"#utility.yul\":4682:4684   */\n      0x20\n        /* \"#utility.yul\":4677:4680   */\n      dup3\n        /* \"#utility.yul\":4673:4685   */\n      add\n        /* \"#utility.yul\":4666:4685   */\n      swap1\n      pop\n        /* \"#utility.yul\":4471:4691   */\n      swap2\n      swap1\n      pop\n      jump\t// out\n        /* \"#utility.yul\":4697:5063   */\n    tag_308:\n      0x00\n        /* \"#utility.yul\":4860:4927   */\n      tag_310\n        /* \"#utility.yul\":4924:4926   */\n      0x1d\n        /* \"#utility.yul\":4919:4922   */\n      dup4\n        /* \"#utility.yul\":4860:4927   */\n      tag_285\n      jump\t// in\n    tag_310:\n        /* \"#utility.yul\":4853:4927   */\n      swap2\n      pop\n        /* \"#utility.yul\":4936:5029   */\n      tag_311\n        /* \"#utility.yul\":5025:5028   */\n      dup3\n        /* \"#utility.yul\":4936:5029   */\n      tag_312\n      jump\t// in\n    tag_311:\n        /* \"#utility.yul\":5054:5056   */\n      0x20\n        /* \"#utility.yul\":5049:5052   */\n      dup3\n        /* \"#utility.yul\":5045:5057   */\n      add\n        /* \"#utility.yul\":5038:5057   */\n      swap1\n      pop\n        /* \"#utility.yul\":4843:5063   */\n      swap2\n      swap1\n      pop\n      jump\t// out\n        /* \"#utility.yul\":5069:5435   */\n    tag_313:\n      0x00\n        /* \"#utility.yul\":5232:5299   */\n      tag_315\n        /* \"#utility.yul\":5296:5298   */\n      0x18\n        /* \"#utility.yul\":5291:5294   */\n      dup4\n        /* \"#utility.yul\":5232:5299   */\n      tag_285\n      jump\t// in\n    tag_315:\n        /* \"#utility.yul\":5225:5299   */\n      swap2\n      pop\n        /* \"#utility.yul\":5308:5401   */\n      tag_316\n        /* \"#utility.yul\":5397:5400   */\n      dup3\n        /* \"#utility.yul\":5308:5401   */\n      tag_317\n      jump\t// in\n    tag_316:\n        /* \"#utility.yul\":5426:5428   */\n      0x20\n        /* \"#utility.yul\":5421:5424   */\n      dup3\n        /* \"#utility.yul\":5417:5429   */\n      add\n        /* \"#utility.yul\":5410:5429   */\n      swap1\n      pop\n        /* \"#utility.yul\":5215:5435   */\n      swap2\n      swap1\n      pop\n      jump\t// out\n        /* \"#utility.yul\":5441:5807   */\n    tag_318:\n      0x00\n        /* \"#utility.yul\":5604:5671   */\n      tag_320\n        /* \"#utility.yul\":5668:5670   */\n      0x21\n        /* \"#utility.yul\":5663:5666   */\n      dup4\n        /* \"#utility.yul\":5604:5671   */\n      tag_285\n      jump\t// in\n    tag_320:\n        /* \"#utility.yul\":5597:5671   */\n      swap2\n      pop\n        /* \"#utility.yul\":5680:5773   */\n      tag_321\n        /* \"#utility.yul\":5769:5772   */\n      dup3\n        /* \"#utility.yul\":5680:5773   */\n      tag_322\n      jump\t// in\n    tag_321:\n        /* \"#utility.yul\":5798:5800   */\n      0x40\n        /* \"#utility.yul\":5793:5796   */\n      dup3\n        /* \"#utility.yul\":5789:5801   */\n      add\n        /* \"#utility.yul\":5782:5801   */\n      swap1\n      pop\n        /* \"#utility.yul\":5587:5807   */\n      swap2\n      swap1\n      pop\n      jump\t// out\n        /* \"#utility.yul\":5813:6179   */\n    tag_323:\n      0x00\n        /* \"#utility.yul\":5976:6043   */\n      tag_325\n        /* \"#utility.yul\":6040:6042   */\n      0x21\n        /* \"#utility.yul\":6035:6038   */\n      dup4\n        /* \"#utility.yul\":5976:6043   */\n      tag_285\n      jump\t// in\n    tag_325:\n        /* \"#utility.yul\":5969:6043   */\n      swap2\n      pop\n        /* \"#utility.yul\":6052:6145   */\n      tag_326\n        /* \"#utility.yul\":6141:6144   */\n      dup3\n        /* \"#utility.yul\":6052:6145   */\n      tag_327\n      jump\t// in\n    tag_326:\n        /* \"#utility.yul\":6170:6172   */\n      0x40\n        /* \"#utility.yul\":6165:6168   */\n      dup3\n        /* \"#utility.yul\":6161:6173   */\n      add\n        /* \"#utility.yul\":6154:6173   */\n      swap1\n      pop\n        /* \"#utility.yul\":5959:6179   */\n      swap2\n      swap1\n      pop\n      jump\t// out\n        /* \"#utility.yul\":6185:6551   */\n    tag_328:\n      0x00\n        /* \"#utility.yul\":6348:6415   */\n      tag_330\n        /* \"#utility.yul\":6412:6414   */\n      0x1a\n        /* \"#utility.yul\":6407:6410   */\n      dup4\n        /* \"#utility.yul\":6348:6415   */\n      tag_285\n      jump\t// in\n    tag_330:\n        /* \"#utility.yul\":6341:6415   */\n      swap2\n      pop\n        /* \"#utility.yul\":6424:6517   */\n      tag_331\n        /* \"#utility.yul\":6513:6516   */\n      dup3\n        /* \"#utility.yul\":6424:6517   */\n      tag_332\n      jump\t// in\n    tag_331:\n        /* \"#utility.yul\":6542:6544   */\n      0x20\n        /* \"#utility.yul\":6537:6540   */\n      dup3\n        /* \"#utility.yul\":6533:6545   */\n      add\n        /* \"#utility.yul\":6526:6545   */\n      swap1\n      pop\n        /* \"#utility.yul\":6331:6551   */\n      swap2\n      swap1\n      pop\n      jump\t// out\n        /* \"#utility.yul\":6607:7444   */\n    tag_259:\n        /* \"#utility.yul\":6734:6738   */\n      0x80\n        /* \"#utility.yul\":6729:6732   */\n      dup3\n        /* \"#utility.yul\":6725:6739   */\n      add\n        /* \"#utility.yul\":6823:6827   */\n      0x00\n        /* \"#utility.yul\":6816:6821   */\n      dup3\n        /* \"#utility.yul\":6812:6828   */\n      add\n        /* \"#utility.yul\":6806:6829   */\n      mload\n        /* \"#utility.yul\":6842:6905   */\n      tag_334\n        /* \"#utility.yul\":6899:6903   */\n      0x00\n        /* \"#utility.yul\":6894:6897   */\n      dup6\n        /* \"#utility.yul\":6890:6904   */\n      add\n        /* \"#utility.yul\":6876:6888   */\n      dup3\n        /* \"#utility.yul\":6842:6905   */\n      tag_335\n      jump\t// in\n    tag_334:\n        /* \"#utility.yul\":6749:6915   */\n      pop\n        /* \"#utility.yul\":7000:7004   */\n      0x20\n        /* \"#utility.yul\":6993:6998   */\n      dup3\n        /* \"#utility.yul\":6989:7005   */\n      add\n        /* \"#utility.yul\":6983:7006   */\n      mload\n        /* \"#utility.yul\":7019:7082   */\n      tag_336\n        /* \"#utility.yul\":7076:7080   */\n      0x20\n        /* \"#utility.yul\":7071:7074   */\n      dup6\n        /* \"#utility.yul\":7067:7081   */\n      add\n        /* \"#utility.yul\":7053:7065   */\n      dup3\n        /* \"#utility.yul\":7019:7082   */\n      tag_335\n      jump\t// in\n    tag_336:\n        /* \"#utility.yul\":6925:7092   */\n      pop\n        /* \"#utility.yul\":7175:7179   */\n      0x40\n        /* \"#utility.yul\":7168:7173   */\n      dup3\n        /* \"#utility.yul\":7164:7180   */\n      add\n        /* \"#utility.yul\":7158:7181   */\n      mload\n        /* \"#utility.yul\":7194:7257   */\n      tag_337\n        /* \"#utility.yul\":7251:7255   */\n      0x40\n        /* \"#utility.yul\":7246:7249   */\n      dup6\n        /* \"#utility.yul\":7242:7256   */\n      add\n        /* \"#utility.yul\":7228:7240   */\n      dup3\n        /* \"#utility.yul\":7194:7257   */\n      tag_335\n      jump\t// in\n    tag_337:\n        /* \"#utility.yul\":7102:7267   */\n      pop\n        /* \"#utility.yul\":7351:7355   */\n      0x60\n        /* \"#utility.yul\":7344:7349   */\n      dup3\n        /* \"#utility.yul\":7340:7356   */\n      add\n        /* \"#utility.yul\":7334:7357   */\n      mload\n        /* \"#utility.yul\":7370:7427   */\n      tag_338\n        /* \"#utility.yul\":7421:7425   */\n      0x60\n        /* \"#utility.yul\":7416:7419   */\n      dup6\n        /* \"#utility.yul\":7412:7426   */\n      add\n        /* \"#utility.yul\":7398:7410   */\n      dup3\n        /* \"#utility.yul\":7370:7427   */\n      tag_278\n      jump\t// in\n    tag_338:\n        /* \"#utility.yul\":7277:7437   */\n      pop\n        /* \"#utility.yul\":6703:7444   */\n      pop\n      pop\n      pop\n      jump\t// out\n        /* \"#utility.yul\":7450:7558   */\n    tag_335:\n        /* \"#utility.yul\":7527:7551   */\n      tag_340\n        /* \"#utility.yul\":7545:7550   */\n      dup2\n        /* \"#utility.yul\":7527:7551   */\n      tag_341\n      jump\t// in\n    tag_340:\n        /* \"#utility.yul\":7522:7525   */\n      dup3\n        /* \"#utility.yul\":7515:7552   */\n      mstore\n        /* \"#utility.yul\":7505:7558   */\n      pop\n      pop\n      jump\t// out\n        /* \"#utility.yul\":7564:7682   */\n    tag_342:\n        /* \"#utility.yul\":7651:7675   */\n      tag_344\n        /* \"#utility.yul\":7669:7674   */\n      dup2\n        /* \"#utility.yul\":7651:7675   */\n      tag_341\n      jump\t// in\n    tag_344:\n        /* \"#utility.yul\":7646:7649   */\n      dup3\n        /* \"#utility.yul\":7639:7676   */\n      mstore\n        /* \"#utility.yul\":7629:7682   */\n      pop\n      pop\n      jump\t// out\n        /* \"#utility.yul\":7688:7910   */\n    tag_53:\n      0x00\n        /* \"#utility.yul\":7819:7821   */\n      0x20\n        /* \"#utility.yul\":7808:7817   */\n      dup3\n        /* \"#utility.yul\":7804:7822   */\n      add\n        /* \"#utility.yul\":7796:7822   */\n      swap1\n      pop\n        /* \"#utility.yul\":7832:7903   */\n      tag_346\n        /* \"#utility.yul\":7900:7901   */\n      0x00\n        /* \"#utility.yul\":7889:7898   */\n      dup4\n        /* \"#utility.yul\":7885:7902   */\n      add\n        /* \"#utility.yul\":7876:7882   */\n      dup5\n        /* \"#utility.yul\":7832:7903   */\n      tag_260\n      jump\t// in\n    tag_346:\n        /* \"#utility.yul\":7786:7910   */\n      swap3\n      swap2\n      pop\n      pop\n      jump\t// out\n        /* \"#utility.yul\":7916:8369   */\n    tag_29:\n      0x00\n        /* \"#utility.yul\":8137:8139   */\n      0x20\n        /* \"#utility.yul\":8126:8135   */\n      dup3\n        /* \"#utility.yul\":8122:8140   */\n      add\n        /* \"#utility.yul\":8114:8140   */\n      swap1\n      pop\n        /* \"#utility.yul\":8186:8195   */\n      dup2\n        /* \"#utility.yul\":8180:8184   */\n      dup2\n        /* \"#utility.yul\":8176:8196   */\n      sub\n        /* \"#utility.yul\":8172:8173   */\n      0x00\n        /* \"#utility.yul\":8161:8170   */\n      dup4\n        /* \"#utility.yul\":8157:8174   */\n      add\n        /* \"#utility.yul\":8150:8197   */\n      mstore\n        /* \"#utility.yul\":8214:8362   */\n      tag_348\n        /* \"#utility.yul\":8357:8361   */\n      dup2\n        /* \"#utility.yul\":8348:8354   */\n      dup5\n        /* \"#utility.yul\":8214:8362   */\n      tag_264\n      jump\t// in\n    tag_348:\n        /* \"#utility.yul\":8206:8362   */\n      swap1\n      pop\n        /* \"#utility.yul\":8104:8369   */\n      swap3\n      swap2\n      pop\n      pop\n      jump\t// out\n        /* \"#utility.yul\":8375:8794   */\n    tag_178:\n      0x00\n        /* \"#utility.yul\":8579:8581   */\n      0x20\n        /* \"#utility.yul\":8568:8577   */\n      dup3\n        /* \"#utility.yul\":8564:8582   */\n      add\n        /* \"#utility.yul\":8556:8582   */\n      swap1\n      pop\n        /* \"#utility.yul\":8628:8637   */\n      dup2\n        /* \"#utility.yul\":8622:8626   */\n      dup2\n        /* \"#utility.yul\":8618:8638   */\n      sub\n        /* \"#utility.yul\":8614:8615   */\n      0x00\n        /* \"#utility.yul\":8603:8612   */\n      dup4\n        /* \"#utility.yul\":8599:8616   */\n      add\n        /* \"#utility.yul\":8592:8639   */\n      mstore\n        /* \"#utility.yul\":8656:8787   */\n      tag_350\n        /* \"#utility.yul\":8782:8786   */\n      dup2\n        /* \"#utility.yul\":8656:8787   */\n      tag_282\n      jump\t// in\n    tag_350:\n        /* \"#utility.yul\":8648:8787   */\n      swap1\n      pop\n        /* \"#utility.yul\":8546:8794   */\n      swap2\n      swap1\n      pop\n      jump\t// out\n        /* \"#utility.yul\":8800:9219   */\n    tag_204:\n      0x00\n        /* \"#utility.yul\":9004:9006   */\n      0x20\n        /* \"#utility.yul\":8993:9002   */\n      dup3\n        /* \"#utility.yul\":8989:9007   */\n      add\n        /* \"#utility.yul\":8981:9007   */\n      swap1\n      pop\n        /* \"#utility.yul\":9053:9062   */\n      dup2\n        /* \"#utility.yul\":9047:9051   */\n      dup2\n        /* \"#utility.yul\":9043:9063   */\n      sub\n        /* \"#utility.yul\":9039:9040   */\n      0x00\n        /* \"#utility.yul\":9028:9037   */\n      dup4\n        /* \"#utility.yul\":9024:9041   */\n      add\n        /* \"#utility.yul\":9017:9064   */\n      mstore\n        /* \"#utility.yul\":9081:9212   */\n      tag_352\n        /* \"#utility.yul\":9207:9211   */\n      dup2\n        /* \"#utility.yul\":9081:9212   */\n      tag_288\n      jump\t// in\n    tag_352:\n        /* \"#utility.yul\":9073:9212   */\n      swap1\n      pop\n        /* \"#utility.yul\":8971:9219   */\n      swap2\n      swap1\n      pop\n      jump\t// out\n        /* \"#utility.yul\":9225:9644   */\n    tag_92:\n      0x00\n        /* \"#utility.yul\":9429:9431   */\n      0x20\n        /* \"#utility.yul\":9418:9427   */\n      dup3\n        /* \"#utility.yul\":9414:9432   */\n      add\n        /* \"#utility.yul\":9406:9432   */\n      swap1\n      pop\n        /* \"#utility.yul\":9478:9487   */\n      dup2\n        /* \"#utility.yul\":9472:9476   */\n      dup2\n        /* \"#utility.yul\":9468:9488   */\n      sub\n        /* \"#utility.yul\":9464:9465   */\n      0x00\n        /* \"#utility.yul\":9453:9462   */\n      dup4\n        /* \"#utility.yul\":9449:9466   */\n      add\n        /* \"#utility.yul\":9442:9489   */\n      mstore\n        /* \"#utility.yul\":9506:9637   */\n      tag_354\n        /* \"#utility.yul\":9632:9636   */\n      dup2\n        /* \"#utility.yul\":9506:9637   */\n      tag_293\n      jump\t// in\n    tag_354:\n        /* \"#utility.yul\":9498:9637   */\n      swap1\n      pop\n        /* \"#utility.yul\":9396:9644   */\n      swap2\n      swap1\n      pop\n      jump\t// out\n        /* \"#utility.yul\":9650:10069   */\n    tag_172:\n      0x00\n        /* \"#utility.yul\":9854:9856   */\n      0x20\n        /* \"#utility.yul\":9843:9852   */\n      dup3\n        /* \"#utility.yul\":9839:9857   */\n      add\n        /* \"#utility.yul\":9831:9857   */\n      swap1\n      pop\n        /* \"#utility.yul\":9903:9912   */\n      dup2\n        /* \"#utility.yul\":9897:9901   */\n      dup2\n        /* \"#utility.yul\":9893:9913   */\n      sub\n        /* \"#utility.yul\":9889:9890   */\n      0x00\n        /* \"#utility.yul\":9878:9887   */\n      dup4\n        /* \"#utility.yul\":9874:9891   */\n      add\n        /* \"#utility.yul\":9867:9914   */\n      mstore\n        /* \"#utility.yul\":9931:10062   */\n      tag_356\n        /* \"#utility.yul\":10057:10061   */\n      dup2\n        /* \"#utility.yul\":9931:10062   */\n      tag_298\n      jump\t// in\n    tag_356:\n        /* \"#utility.yul\":9923:10062   */\n      swap1\n      pop\n        /* \"#utility.yul\":9821:10069   */\n      swap2\n      swap1\n      pop\n      jump\t// out\n        /* \"#utility.yul\":10075:10494   */\n    tag_175:\n      0x00\n        /* \"#utility.yul\":10279:10281   */\n      0x20\n        /* \"#utility.yul\":10268:10277   */\n      dup3\n        /* \"#utility.yul\":10264:10282   */\n      add\n        /* \"#utility.yul\":10256:10282   */\n      swap1\n      pop\n        /* \"#utility.yul\":10328:10337   */\n      dup2\n        /* \"#utility.yul\":10322:10326   */\n      dup2\n        /* \"#utility.yul\":10318:10338   */\n      sub\n        /* \"#utility.yul\":10314:10315   */\n      0x00\n        /* \"#utility.yul\":10303:10312   */\n      dup4\n        /* \"#utility.yul\":10299:10316   */\n      add\n        /* \"#utility.yul\":10292:10339   */\n      mstore\n        /* \"#utility.yul\":10356:10487   */\n      tag_358\n        /* \"#utility.yul\":10482:10486   */\n      dup2\n        /* \"#utility.yul\":10356:10487   */\n      tag_303\n      jump\t// in\n    tag_358:\n        /* \"#utility.yul\":10348:10487   */\n      swap1\n      pop\n        /* \"#utility.yul\":10246:10494   */\n      swap2\n      swap1\n      pop\n      jump\t// out\n        /* \"#utility.yul\":10500:10919   */\n    tag_196:\n      0x00\n        /* \"#utility.yul\":10704:10706   */\n      0x20\n        /* \"#utility.yul\":10693:10702   */\n      dup3\n        /* \"#utility.yul\":10689:10707   */\n      add\n        /* \"#utility.yul\":10681:10707   */\n      swap1\n      pop\n        /* \"#utility.yul\":10753:10762   */\n      dup2\n        /* \"#utility.yul\":10747:10751   */\n      dup2\n        /* \"#utility.yul\":10743:10763   */\n      sub\n        /* \"#utility.yul\":10739:10740   */\n      0x00\n        /* \"#utility.yul\":10728:10737   */\n      dup4\n        /* \"#utility.yul\":10724:10741   */\n      add\n        /* \"#utility.yul\":10717:10764   */\n      mstore\n        /* \"#utility.yul\":10781:10912   */\n      tag_360\n        /* \"#utility.yul\":10907:10911   */\n      dup2\n        /* \"#utility.yul\":10781:10912   */\n      tag_308\n      jump\t// in\n    tag_360:\n        /* \"#utility.yul\":10773:10912   */\n      swap1\n      pop\n        /* \"#utility.yul\":10671:10919   */\n      swap2\n      swap1\n      pop\n      jump\t// out\n        /* \"#utility.yul\":10925:11344   */\n    tag_220:\n      0x00\n        /* \"#utility.yul\":11129:11131   */\n      0x20\n        /* \"#utility.yul\":11118:11127   */\n      dup3\n        /* \"#utility.yul\":11114:11132   */\n      add\n        /* \"#utility.yul\":11106:11132   */\n      swap1\n      pop\n        /* \"#utility.yul\":11178:11187   */\n      dup2\n        /* \"#utility.yul\":11172:11176   */\n      dup2\n        /* \"#utility.yul\":11168:11188   */\n      sub\n        /* \"#utility.yul\":11164:11165   */\n      0x00\n        /* \"#utility.yul\":11153:11162   */\n      dup4\n        /* \"#utility.yul\":11149:11166   */\n      add\n        /* \"#utility.yul\":11142:11189   */\n      mstore\n        /* \"#utility.yul\":11206:11337   */\n      tag_362\n        /* \"#utility.yul\":11332:11336   */\n      dup2\n        /* \"#utility.yul\":11206:11337   */\n      tag_313\n      jump\t// in\n    tag_362:\n        /* \"#utility.yul\":11198:11337   */\n      swap1\n      pop\n        /* \"#utility.yul\":11096:11344   */\n      swap2\n      swap1\n      pop\n      jump\t// out\n        /* \"#utility.yul\":11350:11769   */\n    tag_85:\n      0x00\n        /* \"#utility.yul\":11554:11556   */\n      0x20\n        /* \"#utility.yul\":11543:11552   */\n      dup3\n        /* \"#utility.yul\":11539:11557   */\n      add\n        /* \"#utility.yul\":11531:11557   */\n      swap1\n      pop\n        /* \"#utility.yul\":11603:11612   */\n      dup2\n        /* \"#utility.yul\":11597:11601   */\n      dup2\n        /* \"#utility.yul\":11593:11613   */\n      sub\n        /* \"#utility.yul\":11589:11590   */\n      0x00\n        /* \"#utility.yul\":11578:11587   */\n      dup4\n        /* \"#utility.yul\":11574:11591   */\n      add\n        /* \"#utility.yul\":11567:11614   */\n      mstore\n        /* \"#utility.yul\":11631:11762   */\n      tag_364\n        /* \"#utility.yul\":11757:11761   */\n      dup2\n        /* \"#utility.yul\":11631:11762   */\n      tag_318\n      jump\t// in\n    tag_364:\n        /* \"#utility.yul\":11623:11762   */\n      swap1\n      pop\n        /* \"#utility.yul\":11521:11769   */\n      swap2\n      swap1\n      pop\n      jump\t// out\n        /* \"#utility.yul\":11775:12194   */\n    tag_118:\n      0x00\n        /* \"#utility.yul\":11979:11981   */\n      0x20\n        /* \"#utility.yul\":11968:11977   */\n      dup3\n        /* \"#utility.yul\":11964:11982   */\n      add\n        /* \"#utility.yul\":11956:11982   */\n      swap1\n      pop\n        /* \"#utility.yul\":12028:12037   */\n      dup2\n        /* \"#utility.yul\":12022:12026   */\n      dup2\n        /* \"#utility.yul\":12018:12038   */\n      sub\n        /* \"#utility.yul\":12014:12015   */\n      0x00\n        /* \"#utility.yul\":12003:12012   */\n      dup4\n        /* \"#utility.yul\":11999:12016   */\n      add\n        /* \"#utility.yul\":11992:12039   */\n      mstore\n        /* \"#utility.yul\":12056:12187   */\n      tag_366\n        /* \"#utility.yul\":12182:12186   */\n      dup2\n        /* \"#utility.yul\":12056:12187   */\n      tag_323\n      jump\t// in\n    tag_366:\n        /* \"#utility.yul\":12048:12187   */\n      swap1\n      pop\n        /* \"#utility.yul\":11946:12194   */\n      swap2\n      swap1\n      pop\n      jump\t// out\n        /* \"#utility.yul\":12200:12619   */\n    tag_89:\n      0x00\n        /* \"#utility.yul\":12404:12406   */\n      0x20\n        /* \"#utility.yul\":12393:12402   */\n      dup3\n        /* \"#utility.yul\":12389:12407   */\n      add\n        /* \"#utility.yul\":12381:12407   */\n      swap1\n      pop\n        /* \"#utility.yul\":12453:12462   */\n      dup2\n        /* \"#utility.yul\":12447:12451   */\n      dup2\n        /* \"#utility.yul\":12443:12463   */\n      sub\n        /* \"#utility.yul\":12439:12440   */\n      0x00\n        /* \"#utility.yul\":12428:12437   */\n      dup4\n        /* \"#utility.yul\":12424:12441   */\n      add\n        /* \"#utility.yul\":12417:12464   */\n      mstore\n        /* \"#utility.yul\":12481:12612   */\n      tag_368\n        /* \"#utility.yul\":12607:12611   */\n      dup2\n        /* \"#utility.yul\":12481:12612   */\n      tag_328\n      jump\t// in\n    tag_368:\n        /* \"#utility.yul\":12473:12612   */\n      swap1\n      pop\n        /* \"#utility.yul\":12371:12619   */\n      swap2\n      swap1\n      pop\n      jump\t// out\n        /* \"#utility.yul\":12625:12847   */\n    tag_24:\n      0x00\n        /* \"#utility.yul\":12756:12758   */\n      0x20\n        /* \"#utility.yul\":12745:12754   */\n      dup3\n        /* \"#utility.yul\":12741:12759   */\n      add\n        /* \"#utility.yul\":12733:12759   */\n      swap1\n      pop\n        /* \"#utility.yul\":12769:12840   */\n      tag_370\n        /* \"#utility.yul\":12837:12838   */\n      0x00\n        /* \"#utility.yul\":12826:12835   */\n      dup4\n        /* \"#utility.yul\":12822:12839   */\n      add\n        /* \"#utility.yul\":12813:12819   */\n      dup5\n        /* \"#utility.yul\":12769:12840   */\n      tag_342\n      jump\t// in\n    tag_370:\n        /* \"#utility.yul\":12723:12847   */\n      swap3\n      swap2\n      pop\n      pop\n      jump\t// out\n        /* \"#utility.yul\":12853:13005   */\n    tag_271:\n      0x00\n        /* \"#utility.yul\":12963:12966   */\n      dup2\n        /* \"#utility.yul\":12955:12966   */\n      swap1\n      pop\n        /* \"#utility.yul\":12993:12997   */\n      0x20\n        /* \"#utility.yul\":12988:12991   */\n      dup3\n        /* \"#utility.yul\":12984:12998   */\n      add\n        /* \"#utility.yul\":12976:12998   */\n      swap1\n      pop\n        /* \"#utility.yul\":12945:13005   */\n      swap2\n      swap1\n      pop\n      jump\t// out\n        /* \"#utility.yul\":13011:13145   */\n    tag_267:\n      0x00\n        /* \"#utility.yul\":13132:13137   */\n      dup2\n        /* \"#utility.yul\":13126:13138   */\n      mload\n        /* \"#utility.yul\":13116:13138   */\n      swap1\n      pop\n        /* \"#utility.yul\":13105:13145   */\n      swap2\n      swap1\n      pop\n      jump\t// out\n        /* \"#utility.yul\":13151:13284   */\n    tag_277:\n      0x00\n        /* \"#utility.yul\":13273:13277   */\n      0x20\n        /* \"#utility.yul\":13268:13271   */\n      dup3\n        /* \"#utility.yul\":13264:13278   */\n      add\n        /* \"#utility.yul\":13256:13278   */\n      swap1\n      pop\n        /* \"#utility.yul\":13246:13284   */\n      swap2\n      swap1\n      pop\n      jump\t// out\n        /* \"#utility.yul\":13290:13494   */\n    tag_269:\n      0x00\n        /* \"#utility.yul\":13443:13449   */\n      dup3\n        /* \"#utility.yul\":13438:13441   */\n      dup3\n        /* \"#utility.yul\":13431:13450   */\n      mstore\n        /* \"#utility.yul\":13483:13487   */\n      0x20\n        /* \"#utility.yul\":13478:13481   */\n      dup3\n        /* \"#utility.yul\":13474:13488   */\n      add\n        /* \"#utility.yul\":13459:13488   */\n      swap1\n      pop\n        /* \"#utility.yul\":13421:13494   */\n      swap3\n      swap2\n      pop\n      pop\n      jump\t// out\n        /* \"#utility.yul\":13500:13669   */\n    tag_285:\n      0x00\n        /* \"#utility.yul\":13618:13624   */\n      dup3\n        /* \"#utility.yul\":13613:13616   */\n      dup3\n        /* \"#utility.yul\":13606:13625   */\n      mstore\n        /* \"#utility.yul\":13658:13662   */\n      0x20\n        /* \"#utility.yul\":13653:13656   */\n      dup3\n        /* \"#utility.yul\":13649:13663   */\n      add\n        /* \"#utility.yul\":13634:13663   */\n      swap1\n      pop\n        /* \"#utility.yul\":13596:13669   */\n      swap3\n      swap2\n      pop\n      pop\n      jump\t// out\n        /* \"#utility.yul\":13675:13860   */\n    tag_233:\n      0x00\n        /* \"#utility.yul\":13732:13752   */\n      tag_377\n        /* \"#utility.yul\":13750:13751   */\n      dup3\n        /* \"#utility.yul\":13732:13752   */\n      tag_341\n      jump\t// in\n    tag_377:\n        /* \"#utility.yul\":13727:13752   */\n      swap2\n      pop\n        /* \"#utility.yul\":13766:13786   */\n      tag_378\n        /* \"#utility.yul\":13784:13785   */\n      dup4\n        /* \"#utility.yul\":13766:13786   */\n      tag_341\n      jump\t// in\n    tag_378:\n        /* \"#utility.yul\":13761:13786   */\n      swap3\n      pop\n        /* \"#utility.yul\":13805:13806   */\n      dup3\n        /* \"#utility.yul\":13795:13797   */\n      tag_379\n      jumpi\n        /* \"#utility.yul\":13810:13828   */\n      tag_380\n      tag_381\n      jump\t// in\n    tag_380:\n        /* \"#utility.yul\":13795:13797   */\n    tag_379:\n        /* \"#utility.yul\":13852:13853   */\n      dup3\n        /* \"#utility.yul\":13849:13850   */\n      dup3\n        /* \"#utility.yul\":13845:13854   */\n      div\n        /* \"#utility.yul\":13840:13854   */\n      swap1\n      pop\n        /* \"#utility.yul\":13717:13860   */\n      swap3\n      swap2\n      pop\n      pop\n      jump\t// out\n        /* \"#utility.yul\":13866:14214   */\n    tag_231:\n      0x00\n        /* \"#utility.yul\":13929:13949   */\n      tag_383\n        /* \"#utility.yul\":13947:13948   */\n      dup3\n        /* \"#utility.yul\":13929:13949   */\n      tag_341\n      jump\t// in\n    tag_383:\n        /* \"#utility.yul\":13924:13949   */\n      swap2\n      pop\n        /* \"#utility.yul\":13963:13983   */\n      tag_384\n        /* \"#utility.yul\":13981:13982   */\n      dup4\n        /* \"#utility.yul\":13963:13983   */\n      tag_341\n      jump\t// in\n    tag_384:\n        /* \"#utility.yul\":13958:13983   */\n      swap3\n      pop\n        /* \"#utility.yul\":14151:14152   */\n      dup2\n        /* \"#utility.yul\":14083:14149   */\n      0xffffffffffffffffffffffffffffffffffffffffffffffffffffffffffffffff\n        /* \"#utility.yul\":14079:14153   */\n      div\n        /* \"#utility.yul\":14076:14077   */\n      dup4\n        /* \"#utility.yul\":14073:14154   */\n      gt\n        /* \"#utility.yul\":14068:14069   */\n      dup3\n        /* \"#utility.yul\":14061:14070   */\n      iszero\n        /* \"#utility.yul\":14054:14071   */\n      iszero\n        /* \"#utility.yul\":14050:14155   */\n      and\n        /* \"#utility.yul\":14047:14049   */\n      iszero\n      tag_385\n      jumpi\n        /* \"#utility.yul\":14158:14176   */\n      tag_386\n      tag_387\n      jump\t// in\n    tag_386:\n        /* \"#utility.yul\":14047:14049   */\n    tag_385:\n        /* \"#utility.yul\":14206:14207   */\n      dup3\n        /* \"#utility.yul\":14203:14204   */\n      dup3\n        /* \"#utility.yul\":14199:14208   */\n      mul\n        /* \"#utility.yul\":14188:14208   */\n      swap1\n      pop\n        /* \"#utility.yul\":13914:14214   */\n      swap3\n      swap2\n      pop\n      pop\n      jump\t// out\n        /* \"#utility.yul\":14220:14411   */\n    tag_235:\n      0x00\n        /* \"#utility.yul\":14280:14300   */\n      tag_389\n        /* \"#utility.yul\":14298:14299   */\n      dup3\n        /* \"#utility.yul\":14280:14300   */\n      tag_341\n      jump\t// in\n    tag_389:\n        /* \"#utility.yul\":14275:14300   */\n      swap2\n      pop\n        /* \"#utility.yul\":14314:14334   */\n      tag_390\n        /* \"#utility.yul\":14332:14333   */\n      dup4\n        /* \"#utility.yul\":14314:14334   */\n      tag_341\n      jump\t// in\n    tag_390:\n        /* \"#utility.yul\":14309:14334   */\n      swap3\n      pop\n        /* \"#utility.yul\":14353:14354   */\n      dup3\n        /* \"#utility.yul\":14350:14351   */\n      dup3\n        /* \"#utility.yul\":14347:14355   */\n      lt\n        /* \"#utility.yul\":14344:14346   */\n      iszero\n      tag_391\n      jumpi\n        /* \"#utility.yul\":14358:14376   */\n      tag_392\n      tag_387\n      jump\t// in\n    tag_392:\n        /* \"#utility.yul\":14344:14346   */\n    tag_391:\n        /* \"#utility.yul\":14403:14404   */\n      dup3\n        /* \"#utility.yul\":14400:14401   */\n      dup3\n        /* \"#utility.yul\":14396:14405   */\n      sub\n        /* \"#utility.yul\":14388:14405   */\n      swap1\n      pop\n        /* \"#utility.yul\":14265:14411   */\n      swap3\n      swap2\n      pop\n      pop\n      jump\t// out\n        /* \"#utility.yul\":14417:14513   */\n    tag_263:\n      0x00\n        /* \"#utility.yul\":14483:14507   */\n      tag_394\n        /* \"#utility.yul\":14501:14506   */\n      dup3\n        /* \"#utility.yul\":14483:14507   */\n      tag_395\n      jump\t// in\n    tag_394:\n        /* \"#utility.yul\":14472:14507   */\n      swap1\n      pop\n        /* \"#utility.yul\":14462:14513   */\n      swap2\n      swap1\n      pop\n      jump\t// out\n        /* \"#utility.yul\":14519:14609   */\n    tag_281:\n      0x00\n        /* \"#utility.yul\":14596:14601   */\n      dup2\n        /* \"#utility.yul\":14589:14602   */\n      iszero\n        /* \"#utility.yul\":14582:14603   */\n      iszero\n        /* \"#utility.yul\":14571:14603   */\n      swap1\n      pop\n        /* \"#utility.yul\":14561:14609   */\n      swap2\n      swap1\n      pop\n      jump\t// out\n        /* \"#utility.yul\":14615:14741   */\n    tag_395:\n      0x00\n        /* \"#utility.yul\":14692:14734   */\n      0xffffffffffffffffffffffffffffffffffffffff\n        /* \"#utility.yul\":14685:14690   */\n      dup3\n        /* \"#utility.yul\":14681:14735   */\n      and\n        /* \"#utility.yul\":14670:14735   */\n      swap1\n      pop\n        /* \"#utility.yul\":14660:14741   */\n      swap2\n      swap1\n      pop\n      jump\t// out\n        /* \"#utility.yul\":14747:14824   */\n    tag_341:\n      0x00\n        /* \"#utility.yul\":14813:14818   */\n      dup2\n        /* \"#utility.yul\":14802:14818   */\n      swap1\n      pop\n        /* \"#utility.yul\":14792:14824   */\n      swap2\n      swap1\n      pop\n      jump\t// out\n        /* \"#utility.yul\":14830:15063   */\n    tag_112:\n      0x00\n        /* \"#utility.yul\":14892:14916   */\n      tag_400\n        /* \"#utility.yul\":14910:14915   */\n      dup3\n        /* \"#utility.yul\":14892:14916   */\n      tag_341\n      jump\t// in\n    tag_400:\n        /* \"#utility.yul\":14883:14916   */\n      swap2\n      pop\n        /* \"#utility.yul\":14938:15004   */\n      0xffffffffffffffffffffffffffffffffffffffffffffffffffffffffffffffff\n        /* \"#utility.yul\":14931:14936   */\n      dup3\n        /* \"#utility.yul\":14928:15005   */\n      eq\n        /* \"#utility.yul\":14925:14927   */\n      iszero\n      tag_401\n      jumpi\n        /* \"#utility.yul\":15008:15026   */\n      tag_402\n      tag_387\n      jump\t// in\n    tag_402:\n        /* \"#utility.yul\":14925:14927   */\n    tag_401:\n        /* \"#utility.yul\":15055:15056   */\n      0x01\n        /* \"#utility.yul\":15048:15053   */\n      dup3\n        /* \"#utility.yul\":15044:15057   */\n      add\n        /* \"#utility.yul\":15037:15057   */\n      swap1\n      pop\n        /* \"#utility.yul\":14873:15063   */\n      swap2\n      swap1\n      pop\n      jump\t// out\n        /* \"#utility.yul\":15069:15249   */\n    tag_387:\n        /* \"#utility.yul\":15117:15194   */\n      0x4e487b7100000000000000000000000000000000000000000000000000000000\n        /* \"#utility.yul\":15114:15115   */\n      0x00\n        /* \"#utility.yul\":15107:15195   */\n      mstore\n        /* \"#utility.yul\":15214:15218   */\n      0x11\n        /* \"#utility.yul\":15211:15212   */\n      0x04\n        /* \"#utility.yul\":15204:15219   */\n      mstore\n        /* \"#utility.yul\":15238:15242   */\n      0x24\n        /* \"#utility.yul\":15235:15236   */\n      0x00\n        /* \"#utility.yul\":15228:15243   */\n      revert\n        /* \"#utility.yul\":15255:15435   */\n    tag_381:\n        /* \"#utility.yul\":15303:15380   */\n      0x4e487b7100000000000000000000000000000000000000000000000000000000\n        /* \"#utility.yul\":15300:15301   */\n      0x00\n        /* \"#utility.yul\":15293:15381   */\n      mstore\n        /* \"#utility.yul\":15400:15404   */\n      0x12\n        /* \"#utility.yul\":15397:15398   */\n      0x04\n        /* \"#utility.yul\":15390:15405   */\n      mstore\n        /* \"#utility.yul\":15424:15428   */\n      0x24\n        /* \"#utility.yul\":15421:15422   */\n      0x00\n        /* \"#utility.yul\":15414:15429   */\n      revert\n        /* \"#utility.yul\":15441:15669   */\n    tag_287:\n        /* \"#utility.yul\":15581:15615   */\n      0x796f752063616e27742062757920616e206974656d20746861742062656c6f6e\n        /* \"#utility.yul\":15577:15578   */\n      0x00\n        /* \"#utility.yul\":15569:15575   */\n      dup3\n        /* \"#utility.yul\":15565:15579   */\n      add\n        /* \"#utility.yul\":15558:15616   */\n      mstore\n        /* \"#utility.yul\":15650:15661   */\n      0x677320746f20796f750000000000000000000000000000000000000000000000\n        /* \"#utility.yul\":15645:15647   */\n      0x20\n        /* \"#utility.yul\":15637:15643   */\n      dup3\n        /* \"#utility.yul\":15633:15648   */\n      add\n        /* \"#utility.yul\":15626:15662   */\n      mstore\n        /* \"#utility.yul\":15547:15669   */\n      pop\n      jump\t// out\n        /* \"#utility.yul\":15675:15844   */\n    tag_292:\n        /* \"#utility.yul\":15815:15836   */\n      0x746f6b656e2069736e277420746f2073656c6c00000000000000000000000000\n        /* \"#utility.yul\":15811:15812   */\n      0x00\n        /* \"#utility.yul\":15803:15809   */\n      dup3\n        /* \"#utility.yul\":15799:15813   */\n      add\n        /* \"#utility.yul\":15792:15837   */\n      mstore\n        /* \"#utility.yul\":15781:15844   */\n      pop\n      jump\t// out\n        /* \"#utility.yul\":15850:16019   */\n    tag_297:\n        /* \"#utility.yul\":15990:16011   */\n      0x746f6b656e20616c726561647920657869737400000000000000000000000000\n        /* \"#utility.yul\":15986:15987   */\n      0x00\n        /* \"#utility.yul\":15978:15984   */\n      dup3\n        /* \"#utility.yul\":15974:15988   */\n      add\n        /* \"#utility.yul\":15967:16012   */\n      mstore\n        /* \"#utility.yul\":15956:16019   */\n      pop\n      jump\t// out\n        /* \"#utility.yul\":16025:16265   */\n    tag_302:\n        /* \"#utility.yul\":16165:16199   */\n      0x7472616e73616374696f6e27732076616c75652063616e6e6f74206265206469\n        /* \"#utility.yul\":16161:16162   */\n      0x00\n        /* \"#utility.yul\":16153:16159   */\n      dup3\n        /* \"#utility.yul\":16149:16163   */\n      add\n        /* \"#utility.yul\":16142:16200   */\n      mstore\n        /* \"#utility.yul\":16234:16257   */\n      0x66666572656e74206f66206974656d2070726963650000000000000000000000\n        /* \"#utility.yul\":16229:16231   */\n      0x20\n        /* \"#utility.yul\":16221:16227   */\n      dup3\n        /* \"#utility.yul\":16217:16232   */\n      add\n        /* \"#utility.yul\":16210:16258   */\n      mstore\n        /* \"#utility.yul\":16131:16265   */\n      pop\n      jump\t// out\n        /* \"#utility.yul\":16271:16440   */\n    tag_307:\n        /* \"#utility.yul\":16411:16432   */\n      0x746f6b656e20646f65736e277420657869737400000000000000000000000000\n        /* \"#utility.yul\":16407:16408   */\n      0x00\n        /* \"#utility.yul\":16399:16405   */\n      dup3\n        /* \"#utility.yul\":16395:16409   */\n      add\n        /* \"#utility.yul\":16388:16433   */\n      mstore\n        /* \"#utility.yul\":16377:16440   */\n      pop\n      jump\t// out\n        /* \"#utility.yul\":16446:16625   */\n    tag_312:\n        /* \"#utility.yul\":16586:16617   */\n      0x4f6e6c79206974656d2773206f776e65722063616e20646f2074686174000000\n        /* \"#utility.yul\":16582:16583   */\n      0x00\n        /* \"#utility.yul\":16574:16580   */\n      dup3\n        /* \"#utility.yul\":16570:16584   */\n      add\n        /* \"#utility.yul\":16563:16618   */\n      mstore\n        /* \"#utility.yul\":16552:16625   */\n      pop\n      jump\t// out\n        /* \"#utility.yul\":16631:16805   */\n    tag_317:\n        /* \"#utility.yul\":16771:16797   */\n      0x746f6b656e20697320616c726561647920746f2073656c6c0000000000000000\n        /* \"#utility.yul\":16767:16768   */\n      0x00\n        /* \"#utility.yul\":16759:16765   */\n      dup3\n        /* \"#utility.yul\":16755:16769   */\n      add\n        /* \"#utility.yul\":16748:16798   */\n      mstore\n        /* \"#utility.yul\":16737:16805   */\n      pop\n      jump\t// out\n        /* \"#utility.yul\":16811:17031   */\n    tag_322:\n        /* \"#utility.yul\":16951:16985   */\n      0x5468616e6b7320746f2073656e6420636f727265637420666565732076616c75\n        /* \"#utility.yul\":16947:16948   */\n      0x00\n        /* \"#utility.yul\":16939:16945   */\n      dup3\n        /* \"#utility.yul\":16935:16949   */\n      add\n        /* \"#utility.yul\":16928:16986   */\n      mstore\n        /* \"#utility.yul\":17020:17023   */\n      0x6500000000000000000000000000000000000000000000000000000000000000\n        /* \"#utility.yul\":17015:17017   */\n      0x20\n        /* \"#utility.yul\":17007:17013   */\n      dup3\n        /* \"#utility.yul\":17003:17018   */\n      add\n        /* \"#utility.yul\":16996:17024   */\n      mstore\n        /* \"#utility.yul\":16917:17031   */\n      pop\n      jump\t// out\n        /* \"#utility.yul\":17037:17257   */\n    tag_327:\n        /* \"#utility.yul\":17177:17211   */\n      0x4f6e6c7920636f6e74726163742773206f776e65722063616e20646f20746861\n        /* \"#utility.yul\":17173:17174   */\n      0x00\n        /* \"#utility.yul\":17165:17171   */\n      dup3\n        /* \"#utility.yul\":17161:17175   */\n      add\n        /* \"#utility.yul\":17154:17212   */\n      mstore\n        /* \"#utility.yul\":17246:17249   */\n      0x7400000000000000000000000000000000000000000000000000000000000000\n        /* \"#utility.yul\":17241:17243   */\n      0x20\n        /* \"#utility.yul\":17233:17239   */\n      dup3\n        /* \"#utility.yul\":17229:17244   */\n      add\n        /* \"#utility.yul\":17222:17250   */\n      mstore\n        /* \"#utility.yul\":17143:17257   */\n      pop\n      jump\t// out\n        /* \"#utility.yul\":17263:17439   */\n    tag_332:\n        /* \"#utility.yul\":17403:17431   */\n      0x50726963652063616e6e6f7420626520657175616c20746f2030000000000000\n        /* \"#utility.yul\":17399:17400   */\n      0x00\n        /* \"#utility.yul\":17391:17397   */\n      dup3\n        /* \"#utility.yul\":17387:17401   */\n      add\n        /* \"#utility.yul\":17380:17432   */\n      mstore\n        /* \"#utility.yul\":17369:17439   */\n      pop\n      jump\t// out\n        /* \"#utility.yul\":17445:17567   */\n    tag_240:\n        /* \"#utility.yul\":17518:17542   */\n      tag_416\n        /* \"#utility.yul\":17536:17541   */\n      dup2\n        /* \"#utility.yul\":17518:17542   */\n      tag_263\n      jump\t// in\n    tag_416:\n        /* \"#utility.yul\":17511:17516   */\n      dup2\n        /* \"#utility.yul\":17508:17543   */\n      eq\n        /* \"#utility.yul\":17498:17500   */\n      tag_417\n      jumpi\n        /* \"#utility.yul\":17557:17558   */\n      0x00\n        /* \"#utility.yul\":17554:17555   */\n      dup1\n        /* \"#utility.yul\":17547:17559   */\n      revert\n        /* \"#utility.yul\":17498:17500   */\n    tag_417:\n        /* \"#utility.yul\":17488:17567   */\n      pop\n      jump\t// out\n        /* \"#utility.yul\":17573:17695   */\n    tag_244:\n        /* \"#utility.yul\":17646:17670   */\n      tag_419\n        /* \"#utility.yul\":17664:17669   */\n      dup2\n        /* \"#utility.yul\":17646:17670   */\n      tag_341\n      jump\t// in\n    tag_419:\n        /* \"#utility.yul\":17639:17644   */\n      dup2\n        /* \"#utility.yul\":17636:17671   */\n      eq\n        /* \"#utility.yul\":17626:17628   */\n      tag_420\n      jumpi\n        /* \"#utility.yul\":17685:17686   */\n      0x00\n        /* \"#utility.yul\":17682:17683   */\n      dup1\n        /* \"#utility.yul\":17675:17687   */\n      revert\n        /* \"#utility.yul\":17626:17628   */\n    tag_420:\n        /* \"#utility.yul\":17616:17695   */\n      pop\n      jump\t// out\n\n    auxdata: 0xa264697066735822122010028420f13077b338c8738353a119e26d2cfeb8cae93063d92ed5db1d4ff82a64736f6c63430008010033\n}\n",
				"bytecode": {
					"linkReferences": {},
					"object": "608060405265e35fa931a00060055560056006553480156200002057600080fd5b5033600260006101000a81548173ffffffffffffffffffffffffffffffffffffffff021916908373ffffffffffffffffffffffffffffffffffffffff1602179055506040518060400160405280600b81526020017f4765656b20546f6b656e7300000000000000000000000000000000000000000081525060009080519060200190620000af92919062000104565b506040518060400160405280600581526020017f4745454b5400000000000000000000000000000000000000000000000000000081525060019080519060200190620000fd92919062000104565b5062000219565b8280546200011290620001b4565b90600052602060002090601f01602090048101928262000136576000855562000182565b82601f106200015157805160ff191683800117855562000182565b8280016001018555821562000182579182015b828111156200018157825182559160200191906001019062000164565b5b50905062000191919062000195565b5090565b5b80821115620001b057600081600090555060010162000196565b5090565b60006002820490506001821680620001cd57607f821691505b60208210811415620001e457620001e3620001ea565b5b50919050565b7f4e487b7100000000000000000000000000000000000000000000000000000000600052602260045260246000fd5b6125fa80620002296000396000f3fe6080604052600436106100dd5760003560e01c806367af7d091161007f578063a411d68d11610059578063a411d68d146102ba578063a4964c33146102e5578063c0f202ef1461030e578063e6e95ea71461032a576100dd565b806367af7d091461023657806370a082311461026157806391b6be9a1461029e576100dd565b80631b03427c116100bb5780631b03427c14610168578063406693b2146101915780634cad2ffc146101ce5780636352211e146101f9576100dd565b806302acc94b146100e2578063073e74df14610112578063160035b11461013d575b600080fd5b6100fc60048036038101906100f79190611d20565b610353565b6040516101099190612151565b60405180910390f35b34801561011e57600080fd5b5061012761071a565b6040516101349190611fef565b60405180910390f35b34801561014957600080fd5b5061015261090d565b60405161015f9190612151565b60405180910390f35b34801561017457600080fd5b5061018f600480360381019061018a9190611cf7565b610917565b005b34801561019d57600080fd5b506101b860048036038101906101b39190611cf7565b6109b1565b6040516101c59190611fef565b60405180910390f35b3480156101da57600080fd5b506101e3610bd5565b6040516101f09190611fef565b60405180910390f35b34801561020557600080fd5b50610220600480360381019061021b9190611cf7565b610e07565b60405161022d9190611fd4565b60405180910390f35b34801561024257600080fd5b5061024b610e44565b6040516102589190611fef565b60405180910390f35b34801561026d57600080fd5b5061028860048036038101906102839190611cce565b611076565b6040516102959190612151565b60405180910390f35b6102b860048036038101906102b39190611cf7565b6110bf565b005b3480156102c657600080fd5b506102cf61162e565b6040516102dc9190612151565b60405180910390f35b3480156102f157600080fd5b5061030c60048036038101906103079190611cf7565b611638565b005b61032860048036038101906103239190611cf7565b611897565b005b34801561033657600080fd5b50610351600480360381019061034c9190611cf7565b611ba2565b005b60006005543414610399576040517f08c379a0000000000000000000000000000000000000000000000000000000008152600401610390906120f1565b60405180910390fd5b600084116103dc576040517f08c379a00000000000000000000000000000000000000000000000000000000081526004016103d390612131565b60405180910390fd5b60006003805490509050600073ffffffffffffffffffffffffffffffffffffffff166008600083815260200190815260200160002060009054906101000a900473ffffffffffffffffffffffffffffffffffffffff1673ffffffffffffffffffffffffffffffffffffffff1614610488576040517f08c379a000000000000000000000000000000000000000000000000000000000815260040161047f90612051565b60405180910390fd5b6003604051806080016040528085815260200183815260200187815260200160011515815250908060018154018082558091505060019003906000526020600020906004020160009091909190915060008201518160000155602082015181600101556040820151816002015560608201518160030160006101000a81548160ff0219169083151502179055505050336008600083815260200190815260200160002060006101000a81548173ffffffffffffffffffffffffffffffffffffffff021916908373ffffffffffffffffffffffffffffffffffffffff16021790555033600a600083815260200190815260200160002060006101000a81548173ffffffffffffffffffffffffffffffffffffffff021916908373ffffffffffffffffffffffffffffffffffffffff16021790555083600c600083815260200190815260200160002081905550600760003373ffffffffffffffffffffffffffffffffffffffff1673ffffffffffffffffffffffffffffffffffffffff16815260200190815260200160002060008154809291906001019190505550600960003373ffffffffffffffffffffffffffffffffffffffff1673ffffffffffffffffffffffffffffffffffffffff16815260200190815260200160002060008154809291906001019190505550600b600085815260200190815260200160002060008154809291906001019190505550600460008154809291906001019190505550600260009054906101000a900473ffffffffffffffffffffffffffffffffffffffff1673ffffffffffffffffffffffffffffffffffffffff166108fc349081150290604051600060405180830381858888f1935050505015801561070e573d6000803e3d6000fd5b50809150509392505050565b606060008060045467ffffffffffffffff811115610761577f4e487b7100000000000000000000000000000000000000000000000000000000600052604160045260246000fd5b60405190808252806020026020018201604052801561079a57816020015b610787611c7a565b81526020019060019003908161077f5790505b50905060005b6003805490508110156109045760011515600382815481106107eb577f4e487b7100000000000000000000000000000000000000000000000000000000600052603260045260246000fd5b906000526020600020906004020160030160009054906101000a900460ff16151514156108f1576003818154811061084c577f4e487b7100000000000000000000000000000000000000000000000000000000600052603260045260246000fd5b90600052602060002090600402016040518060800160405290816000820154815260200160018201548152602001600282015481526020016003820160009054906101000a900460ff1615151515815250508284815181106108d7577f4e487b7100000000000000000000000000000000000000000000000000000000600052603260045260246000fd5b602002602001018190525082806108ed906122bd565b9350505b80806108fc906122bd565b9150506107a0565b50809250505090565b6000600654905090565b600260009054906101000a900473ffffffffffffffffffffffffffffffffffffffff1673ffffffffffffffffffffffffffffffffffffffff163373ffffffffffffffffffffffffffffffffffffffff16146109a7576040517f08c379a000000000000000000000000000000000000000000000000000000000815260040161099e90612111565b60405180910390fd5b8060068190555050565b6060600080600b60008581526020019081526020016000205467ffffffffffffffff811115610a09577f4e487b7100000000000000000000000000000000000000000000000000000000600052604160045260246000fd5b604051908082528060200260200182016040528015610a4257816020015b610a2f611c7a565b815260200190600190039081610a275790505b50905060005b600380549050811015610bca5784600c600083815260200190815260200160002054148015610ad357506001151560038281548110610ab0577f4e487b7100000000000000000000000000000000000000000000000000000000600052603260045260246000fd5b906000526020600020906004020160030160009054906101000a900460ff161515145b15610bb75760038181548110610b12577f4e487b7100000000000000000000000000000000000000000000000000000000600052603260045260246000fd5b90600052602060002090600402016040518060800160405290816000820154815260200160018201548152602001600282015481526020016003820160009054906101000a900460ff161515151581525050828481518110610b9d577f4e487b7100000000000000000000000000000000000000000000000000000000600052603260045260246000fd5b60200260200101819052508280610bb3906122bd565b9350505b8080610bc2906122bd565b915050610a48565b508092505050919050565b6060600080600760003373ffffffffffffffffffffffffffffffffffffffff1673ffffffffffffffffffffffffffffffffffffffff1681526020019081526020016000205467ffffffffffffffff811115610c59577f4e487b7100000000000000000000000000000000000000000000000000000000600052604160045260246000fd5b604051908082528060200260200182016040528015610c9257816020015b610c7f611c7a565b815260200190600190039081610c775790505b50905060005b600380549050811015610dfe573373ffffffffffffffffffffffffffffffffffffffff166008600083815260200190815260200160002060009054906101000a900473ffffffffffffffffffffffffffffffffffffffff1673ffffffffffffffffffffffffffffffffffffffff161415610deb5760038181548110610d46577f4e487b7100000000000000000000000000000000000000000000000000000000600052603260045260246000fd5b90600052602060002090600402016040518060800160405290816000820154815260200160018201548152602001600282015481526020016003820160009054906101000a900460ff161515151581525050828481518110610dd1577f4e487b7100000000000000000000000000000000000000000000000000000000600052603260045260246000fd5b60200260200101819052508280610de7906122bd565b9350505b8080610df6906122bd565b915050610c98565b50809250505090565b60006008600083815260200190815260200160002060009054906101000a900473ffffffffffffffffffffffffffffffffffffffff169050919050565b6060600080600960003373ffffffffffffffffffffffffffffffffffffffff1673ffffffffffffffffffffffffffffffffffffffff1681526020019081526020016000205467ffffffffffffffff811115610ec8577f4e487b7100000000000000000000000000000000000000000000000000000000600052604160045260246000fd5b604051908082528060200260200182016040528015610f0157816020015b610eee611c7a565b815260200190600190039081610ee65790505b50905060005b60038054905081101561106d573373ffffffffffffffffffffffffffffffffffffffff16600a600083815260200190815260200160002060009054906101000a900473ffffffffffffffffffffffffffffffffffffffff1673ffffffffffffffffffffffffffffffffffffffff16141561105a5760038181548110610fb5577f4e487b7100000000000000000000000000000000000000000000000000000000600052603260045260246000fd5b90600052602060002090600402016040518060800160405290816000820154815260200160018201548152602001600282015481526020016003820160009054906101000a900460ff161515151581525050828481518110611040577f4e487b7100000000000000000000000000000000000000000000000000000000600052603260045260246000fd5b60200260200101819052508280611056906122bd565b9350505b8080611065906122bd565b915050610f07565b50809250505090565b6000600760008373ffffffffffffffffffffffffffffffffffffffff1673ffffffffffffffffffffffffffffffffffffffff168152602001908152602001600020549050919050565b600381815481106110f9577f4e487b7100000000000000000000000000000000000000000000000000000000600052603260045260246000fd5b906000526020600020906004020160020154341461114c576040517f08c379a000000000000000000000000000000000000000000000000000000000815260040161114390612071565b60405180910390fd5b600073ffffffffffffffffffffffffffffffffffffffff166008600083815260200190815260200160002060009054906101000a900473ffffffffffffffffffffffffffffffffffffffff1673ffffffffffffffffffffffffffffffffffffffff1614156111ef576040517f08c379a00000000000000000000000000000000000000000000000000000000081526004016111e690612091565b60405180910390fd5b3373ffffffffffffffffffffffffffffffffffffffff166008600083815260200190815260200160002060009054906101000a900473ffffffffffffffffffffffffffffffffffffffff1673ffffffffffffffffffffffffffffffffffffffff161415611291576040517f08c379a000000000000000000000000000000000000000000000000000000000815260040161128890612011565b60405180910390fd5b60006008600083815260200190815260200160002060009054906101000a900473ffffffffffffffffffffffffffffffffffffffff169050600060038381548110611305577f4e487b7100000000000000000000000000000000000000000000000000000000600052603260045260246000fd5b9060005260206000209060040201905060008160030160006101000a81548160ff021916908315150217905550336008600085815260200190815260200160002060006101000a81548173ffffffffffffffffffffffffffffffffffffffff021916908373ffffffffffffffffffffffffffffffffffffffff160217905550600760008373ffffffffffffffffffffffffffffffffffffffff1673ffffffffffffffffffffffffffffffffffffffff1681526020019081526020016000206000815480929190600190039190505550600760003373ffffffffffffffffffffffffffffffffffffffff1673ffffffffffffffffffffffffffffffffffffffff16815260200190815260200160002060008154809291906001019190505550600460008154809291906001900391905055508173ffffffffffffffffffffffffffffffffffffffff16600a600085815260200190815260200160002060009054906101000a900473ffffffffffffffffffffffffffffffffffffffff1673ffffffffffffffffffffffffffffffffffffffff1614156114e9578173ffffffffffffffffffffffffffffffffffffffff166108fc349081150290604051600060405180830381858888f193505050501580156114e3573d6000803e3d6000fd5b506115c4565b6000806114f834600654611c3c565b8092508193505050600a600086815260200190815260200160002060009054906101000a900473ffffffffffffffffffffffffffffffffffffffff1673ffffffffffffffffffffffffffffffffffffffff166108fc839081150290604051600060405180830381858888f19350505050158015611579573d6000803e3d6000fd5b508373ffffffffffffffffffffffffffffffffffffffff166108fc829081150290604051600060405180830381858888f193505050501580156115c0573d6000803e3d6000fd5b5050505b3373ffffffffffffffffffffffffffffffffffffffff168273ffffffffffffffffffffffffffffffffffffffff167fddf252ad1be2c89b69c2b068fc378daa952ba7f163c4a11628f55a4df523b3ef856040516116219190612151565b60405180910390a3505050565b6000600554905090565b803373ffffffffffffffffffffffffffffffffffffffff166008600083815260200190815260200160002060009054906101000a900473ffffffffffffffffffffffffffffffffffffffff1673ffffffffffffffffffffffffffffffffffffffff16146116da576040517f08c379a00000000000000000000000000000000000000000000000000000000081526004016116d1906120b1565b60405180910390fd5b600073ffffffffffffffffffffffffffffffffffffffff166008600084815260200190815260200160002060009054906101000a900473ffffffffffffffffffffffffffffffffffffffff1673ffffffffffffffffffffffffffffffffffffffff16141561177d576040517f08c379a000000000000000000000000000000000000000000000000000000000815260040161177490612091565b60405180910390fd5b60011515600383815481106117bb577f4e487b7100000000000000000000000000000000000000000000000000000000600052603260045260246000fd5b906000526020600020906004020160030160009054906101000a900460ff1615151461181c576040517f08c379a000000000000000000000000000000000000000000000000000000000815260040161181390612031565b60405180910390fd5b600060038381548110611858577f4e487b7100000000000000000000000000000000000000000000000000000000600052603260045260246000fd5b906000526020600020906004020160030160006101000a81548160ff021916908315150217905550600460008154809291906001900391905055505050565b60055434146118db576040517f08c379a00000000000000000000000000000000000000000000000000000000081526004016118d2906120f1565b60405180910390fd5b803373ffffffffffffffffffffffffffffffffffffffff166008600083815260200190815260200160002060009054906101000a900473ffffffffffffffffffffffffffffffffffffffff1673ffffffffffffffffffffffffffffffffffffffff161461197d576040517f08c379a0000000000000000000000000000000000000000000000000000000008152600401611974906120b1565b60405180910390fd5b600073ffffffffffffffffffffffffffffffffffffffff166008600084815260200190815260200160002060009054906101000a900473ffffffffffffffffffffffffffffffffffffffff1673ffffffffffffffffffffffffffffffffffffffff161415611a20576040517f08c379a0000000000000000000000000000000000000000000000000000000008152600401611a1790612091565b60405180910390fd5b6000151560038381548110611a5e577f4e487b7100000000000000000000000000000000000000000000000000000000600052603260045260246000fd5b906000526020600020906004020160030160009054906101000a900460ff16151514611abf576040517f08c379a0000000000000000000000000000000000000000000000000000000008152600401611ab6906120d1565b60405180910390fd5b600160038381548110611afb577f4e487b7100000000000000000000000000000000000000000000000000000000600052603260045260246000fd5b906000526020600020906004020160030160006101000a81548160ff021916908315150217905550600460008154809291906001019190505550600260009054906101000a900473ffffffffffffffffffffffffffffffffffffffff1673ffffffffffffffffffffffffffffffffffffffff166108fc349081150290604051600060405180830381858888f19350505050158015611b9d573d6000803e3d6000fd5b505050565b600260009054906101000a900473ffffffffffffffffffffffffffffffffffffffff1673ffffffffffffffffffffffffffffffffffffffff163373ffffffffffffffffffffffffffffffffffffffff1614611c32576040517f08c379a0000000000000000000000000000000000000000000000000000000008152600401611c2990612111565b60405180910390fd5b8060058190555050565b600080600060648585611c4f91906121e7565b611c5991906121b6565b905060008186611c699190612241565b905081819350935050509250929050565b60405180608001604052806000815260200160008152602001600081526020016000151581525090565b600081359050611cb381612596565b92915050565b600081359050611cc8816125ad565b92915050565b600060208284031215611ce057600080fd5b6000611cee84828501611ca4565b91505092915050565b600060208284031215611d0957600080fd5b6000611d1784828501611cb9565b91505092915050565b600080600060608486031215611d3557600080fd5b6000611d4386828701611cb9565b9350506020611d5486828701611cb9565b9250506040611d6586828701611cb9565b9150509250925092565b6000611d7b8383611f61565b60808301905092915050565b611d9081612275565b82525050565b6000611da18261217c565b611dab8185612194565b9350611db68361216c565b8060005b83811015611de7578151611dce8882611d6f565b9750611dd983612187565b925050600181019050611dba565b5085935050505092915050565b611dfd81612287565b82525050565b6000611e106029836121a5565b9150611e1b82612364565b604082019050919050565b6000611e336013836121a5565b9150611e3e826123b3565b602082019050919050565b6000611e566013836121a5565b9150611e61826123dc565b602082019050919050565b6000611e796035836121a5565b9150611e8482612405565b604082019050919050565b6000611e9c6013836121a5565b9150611ea782612454565b602082019050919050565b6000611ebf601d836121a5565b9150611eca8261247d565b602082019050919050565b6000611ee26018836121a5565b9150611eed826124a6565b602082019050919050565b6000611f056021836121a5565b9150611f10826124cf565b604082019050919050565b6000611f286021836121a5565b9150611f338261251e565b604082019050919050565b6000611f4b601a836121a5565b9150611f568261256d565b602082019050919050565b608082016000820151611f776000850182611fb6565b506020820151611f8a6020850182611fb6565b506040820151611f9d6040850182611fb6565b506060820151611fb06060850182611df4565b50505050565b611fbf816122b3565b82525050565b611fce816122b3565b82525050565b6000602082019050611fe96000830184611d87565b92915050565b600060208201905081810360008301526120098184611d96565b905092915050565b6000602082019050818103600083015261202a81611e03565b9050919050565b6000602082019050818103600083015261204a81611e26565b9050919050565b6000602082019050818103600083015261206a81611e49565b9050919050565b6000602082019050818103600083015261208a81611e6c565b9050919050565b600060208201905081810360008301526120aa81611e8f565b9050919050565b600060208201905081810360008301526120ca81611eb2565b9050919050565b600060208201905081810360008301526120ea81611ed5565b9050919050565b6000602082019050818103600083015261210a81611ef8565b9050919050565b6000602082019050818103600083015261212a81611f1b565b9050919050565b6000602082019050818103600083015261214a81611f3e565b9050919050565b60006020820190506121666000830184611fc5565b92915050565b6000819050602082019050919050565b600081519050919050565b6000602082019050919050565b600082825260208201905092915050565b600082825260208201905092915050565b60006121c1826122b3565b91506121cc836122b3565b9250826121dc576121db612335565b5b828204905092915050565b60006121f2826122b3565b91506121fd836122b3565b9250817fffffffffffffffffffffffffffffffffffffffffffffffffffffffffffffffff048311821515161561223657612235612306565b5b828202905092915050565b600061224c826122b3565b9150612257836122b3565b92508282101561226a57612269612306565b5b828203905092915050565b600061228082612293565b9050919050565b60008115159050919050565b600073ffffffffffffffffffffffffffffffffffffffff82169050919050565b6000819050919050565b60006122c8826122b3565b91507fffffffffffffffffffffffffffffffffffffffffffffffffffffffffffffffff8214156122fb576122fa612306565b5b600182019050919050565b7f4e487b7100000000000000000000000000000000000000000000000000000000600052601160045260246000fd5b7f4e487b7100000000000000000000000000000000000000000000000000000000600052601260045260246000fd5b7f796f752063616e27742062757920616e206974656d20746861742062656c6f6e60008201527f677320746f20796f750000000000000000000000000000000000000000000000602082015250565b7f746f6b656e2069736e277420746f2073656c6c00000000000000000000000000600082015250565b7f746f6b656e20616c726561647920657869737400000000000000000000000000600082015250565b7f7472616e73616374696f6e27732076616c75652063616e6e6f7420626520646960008201527f66666572656e74206f66206974656d2070726963650000000000000000000000602082015250565b7f746f6b656e20646f65736e277420657869737400000000000000000000000000600082015250565b7f4f6e6c79206974656d2773206f776e65722063616e20646f2074686174000000600082015250565b7f746f6b656e20697320616c726561647920746f2073656c6c0000000000000000600082015250565b7f5468616e6b7320746f2073656e6420636f727265637420666565732076616c7560008201527f6500000000000000000000000000000000000000000000000000000000000000602082015250565b7f4f6e6c7920636f6e74726163742773206f776e65722063616e20646f2074686160008201527f7400000000000000000000000000000000000000000000000000000000000000602082015250565b7f50726963652063616e6e6f7420626520657175616c20746f2030000000000000600082015250565b61259f81612275565b81146125aa57600080fd5b50565b6125b6816122b3565b81146125c157600080fd5b5056fea264697066735822122010028420f13077b338c8738353a119e26d2cfeb8cae93063d92ed5db1d4ff82a64736f6c63430008010033",
					"opcodes": "PUSH1 0x80 PUSH1 0x40 MSTORE PUSH6 0xE35FA931A000 PUSH1 0x5 SSTORE PUSH1 0x5 PUSH1 0x6 SSTORE CALLVALUE DUP1 ISZERO PUSH3 0x20 JUMPI PUSH1 0x0 DUP1 REVERT JUMPDEST POP CALLER PUSH1 0x2 PUSH1 0x0 PUSH2 0x100 EXP DUP2 SLOAD DUP2 PUSH20 0xFFFFFFFFFFFFFFFFFFFFFFFFFFFFFFFFFFFFFFFF MUL NOT AND SWAP1 DUP4 PUSH20 0xFFFFFFFFFFFFFFFFFFFFFFFFFFFFFFFFFFFFFFFF AND MUL OR SWAP1 SSTORE POP PUSH1 0x40 MLOAD DUP1 PUSH1 0x40 ADD PUSH1 0x40 MSTORE DUP1 PUSH1 0xB DUP2 MSTORE PUSH1 0x20 ADD PUSH32 0x4765656B20546F6B656E73000000000000000000000000000000000000000000 DUP2 MSTORE POP PUSH1 0x0 SWAP1 DUP1 MLOAD SWAP1 PUSH1 0x20 ADD SWAP1 PUSH3 0xAF SWAP3 SWAP2 SWAP1 PUSH3 0x104 JUMP JUMPDEST POP PUSH1 0x40 MLOAD DUP1 PUSH1 0x40 ADD PUSH1 0x40 MSTORE DUP1 PUSH1 0x5 DUP2 MSTORE PUSH1 0x20 ADD PUSH32 0x4745454B54000000000000000000000000000000000000000000000000000000 DUP2 MSTORE POP PUSH1 0x1 SWAP1 DUP1 MLOAD SWAP1 PUSH1 0x20 ADD SWAP1 PUSH3 0xFD SWAP3 SWAP2 SWAP1 PUSH3 0x104 JUMP JUMPDEST POP PUSH3 0x219 JUMP JUMPDEST DUP3 DUP1 SLOAD PUSH3 0x112 SWAP1 PUSH3 0x1B4 JUMP JUMPDEST SWAP1 PUSH1 0x0 MSTORE PUSH1 0x20 PUSH1 0x0 KECCAK256 SWAP1 PUSH1 0x1F ADD PUSH1 0x20 SWAP1 DIV DUP2 ADD SWAP3 DUP3 PUSH3 0x136 JUMPI PUSH1 0x0 DUP6 SSTORE PUSH3 0x182 JUMP JUMPDEST DUP3 PUSH1 0x1F LT PUSH3 0x151 JUMPI DUP1 MLOAD PUSH1 0xFF NOT AND DUP4 DUP1 ADD OR DUP6 SSTORE PUSH3 0x182 JUMP JUMPDEST DUP3 DUP1 ADD PUSH1 0x1 ADD DUP6 SSTORE DUP3 ISZERO PUSH3 0x182 JUMPI SWAP2 DUP3 ADD JUMPDEST DUP3 DUP2 GT ISZERO PUSH3 0x181 JUMPI DUP3 MLOAD DUP3 SSTORE SWAP2 PUSH1 0x20 ADD SWAP2 SWAP1 PUSH1 0x1 ADD SWAP1 PUSH3 0x164 JUMP JUMPDEST JUMPDEST POP SWAP1 POP PUSH3 0x191 SWAP2 SWAP1 PUSH3 0x195 JUMP JUMPDEST POP SWAP1 JUMP JUMPDEST JUMPDEST DUP1 DUP3 GT ISZERO PUSH3 0x1B0 JUMPI PUSH1 0x0 DUP2 PUSH1 0x0 SWAP1 SSTORE POP PUSH1 0x1 ADD PUSH3 0x196 JUMP JUMPDEST POP SWAP1 JUMP JUMPDEST PUSH1 0x0 PUSH1 0x2 DUP3 DIV SWAP1 POP PUSH1 0x1 DUP3 AND DUP1 PUSH3 0x1CD JUMPI PUSH1 0x7F DUP3 AND SWAP2 POP JUMPDEST PUSH1 0x20 DUP3 LT DUP2 EQ ISZERO PUSH3 0x1E4 JUMPI PUSH3 0x1E3 PUSH3 0x1EA JUMP JUMPDEST JUMPDEST POP SWAP2 SWAP1 POP JUMP JUMPDEST PUSH32 0x4E487B7100000000000000000000000000000000000000000000000000000000 PUSH1 0x0 MSTORE PUSH1 0x22 PUSH1 0x4 MSTORE PUSH1 0x24 PUSH1 0x0 REVERT JUMPDEST PUSH2 0x25FA DUP1 PUSH3 0x229 PUSH1 0x0 CODECOPY PUSH1 0x0 RETURN INVALID PUSH1 0x80 PUSH1 0x40 MSTORE PUSH1 0x4 CALLDATASIZE LT PUSH2 0xDD JUMPI PUSH1 0x0 CALLDATALOAD PUSH1 0xE0 SHR DUP1 PUSH4 0x67AF7D09 GT PUSH2 0x7F JUMPI DUP1 PUSH4 0xA411D68D GT PUSH2 0x59 JUMPI DUP1 PUSH4 0xA411D68D EQ PUSH2 0x2BA JUMPI DUP1 PUSH4 0xA4964C33 EQ PUSH2 0x2E5 JUMPI DUP1 PUSH4 0xC0F202EF EQ PUSH2 0x30E JUMPI DUP1 PUSH4 0xE6E95EA7 EQ PUSH2 0x32A JUMPI PUSH2 0xDD JUMP JUMPDEST DUP1 PUSH4 0x67AF7D09 EQ PUSH2 0x236 JUMPI DUP1 PUSH4 0x70A08231 EQ PUSH2 0x261 JUMPI DUP1 PUSH4 0x91B6BE9A EQ PUSH2 0x29E JUMPI PUSH2 0xDD JUMP JUMPDEST DUP1 PUSH4 0x1B03427C GT PUSH2 0xBB JUMPI DUP1 PUSH4 0x1B03427C EQ PUSH2 0x168 JUMPI DUP1 PUSH4 0x406693B2 EQ PUSH2 0x191 JUMPI DUP1 PUSH4 0x4CAD2FFC EQ PUSH2 0x1CE JUMPI DUP1 PUSH4 0x6352211E EQ PUSH2 0x1F9 JUMPI PUSH2 0xDD JUMP JUMPDEST DUP1 PUSH4 0x2ACC94B EQ PUSH2 0xE2 JUMPI DUP1 PUSH4 0x73E74DF EQ PUSH2 0x112 JUMPI DUP1 PUSH4 0x160035B1 EQ PUSH2 0x13D JUMPI JUMPDEST PUSH1 0x0 DUP1 REVERT JUMPDEST PUSH2 0xFC PUSH1 0x4 DUP1 CALLDATASIZE SUB DUP2 ADD SWAP1 PUSH2 0xF7 SWAP2 SWAP1 PUSH2 0x1D20 JUMP JUMPDEST PUSH2 0x353 JUMP JUMPDEST PUSH1 0x40 MLOAD PUSH2 0x109 SWAP2 SWAP1 PUSH2 0x2151 JUMP JUMPDEST PUSH1 0x40 MLOAD DUP1 SWAP2 SUB SWAP1 RETURN JUMPDEST CALLVALUE DUP1 ISZERO PUSH2 0x11E JUMPI PUSH1 0x0 DUP1 REVERT JUMPDEST POP PUSH2 0x127 PUSH2 0x71A JUMP JUMPDEST PUSH1 0x40 MLOAD PUSH2 0x134 SWAP2 SWAP1 PUSH2 0x1FEF JUMP JUMPDEST PUSH1 0x40 MLOAD DUP1 SWAP2 SUB SWAP1 RETURN JUMPDEST CALLVALUE DUP1 ISZERO PUSH2 0x149 JUMPI PUSH1 0x0 DUP1 REVERT JUMPDEST POP PUSH2 0x152 PUSH2 0x90D JUMP JUMPDEST PUSH1 0x40 MLOAD PUSH2 0x15F SWAP2 SWAP1 PUSH2 0x2151 JUMP JUMPDEST PUSH1 0x40 MLOAD DUP1 SWAP2 SUB SWAP1 RETURN JUMPDEST CALLVALUE DUP1 ISZERO PUSH2 0x174 JUMPI PUSH1 0x0 DUP1 REVERT JUMPDEST POP PUSH2 0x18F PUSH1 0x4 DUP1 CALLDATASIZE SUB DUP2 ADD SWAP1 PUSH2 0x18A SWAP2 SWAP1 PUSH2 0x1CF7 JUMP JUMPDEST PUSH2 0x917 JUMP JUMPDEST STOP JUMPDEST CALLVALUE DUP1 ISZERO PUSH2 0x19D JUMPI PUSH1 0x0 DUP1 REVERT JUMPDEST POP PUSH2 0x1B8 PUSH1 0x4 DUP1 CALLDATASIZE SUB DUP2 ADD SWAP1 PUSH2 0x1B3 SWAP2 SWAP1 PUSH2 0x1CF7 JUMP JUMPDEST PUSH2 0x9B1 JUMP JUMPDEST PUSH1 0x40 MLOAD PUSH2 0x1C5 SWAP2 SWAP1 PUSH2 0x1FEF JUMP JUMPDEST PUSH1 0x40 MLOAD DUP1 SWAP2 SUB SWAP1 RETURN JUMPDEST CALLVALUE DUP1 ISZERO PUSH2 0x1DA JUMPI PUSH1 0x0 DUP1 REVERT JUMPDEST POP PUSH2 0x1E3 PUSH2 0xBD5 JUMP JUMPDEST PUSH1 0x40 MLOAD PUSH2 0x1F0 SWAP2 SWAP1 PUSH2 0x1FEF JUMP JUMPDEST PUSH1 0x40 MLOAD DUP1 SWAP2 SUB SWAP1 RETURN JUMPDEST CALLVALUE DUP1 ISZERO PUSH2 0x205 JUMPI PUSH1 0x0 DUP1 REVERT JUMPDEST POP PUSH2 0x220 PUSH1 0x4 DUP1 CALLDATASIZE SUB DUP2 ADD SWAP1 PUSH2 0x21B SWAP2 SWAP1 PUSH2 0x1CF7 JUMP JUMPDEST PUSH2 0xE07 JUMP JUMPDEST PUSH1 0x40 MLOAD PUSH2 0x22D SWAP2 SWAP1 PUSH2 0x1FD4 JUMP JUMPDEST PUSH1 0x40 MLOAD DUP1 SWAP2 SUB SWAP1 RETURN JUMPDEST CALLVALUE DUP1 ISZERO PUSH2 0x242 JUMPI PUSH1 0x0 DUP1 REVERT JUMPDEST POP PUSH2 0x24B PUSH2 0xE44 JUMP JUMPDEST PUSH1 0x40 MLOAD PUSH2 0x258 SWAP2 SWAP1 PUSH2 0x1FEF JUMP JUMPDEST PUSH1 0x40 MLOAD DUP1 SWAP2 SUB SWAP1 RETURN JUMPDEST CALLVALUE DUP1 ISZERO PUSH2 0x26D JUMPI PUSH1 0x0 DUP1 REVERT JUMPDEST POP PUSH2 0x288 PUSH1 0x4 DUP1 CALLDATASIZE SUB DUP2 ADD SWAP1 PUSH2 0x283 SWAP2 SWAP1 PUSH2 0x1CCE JUMP JUMPDEST PUSH2 0x1076 JUMP JUMPDEST PUSH1 0x40 MLOAD PUSH2 0x295 SWAP2 SWAP1 PUSH2 0x2151 JUMP JUMPDEST PUSH1 0x40 MLOAD DUP1 SWAP2 SUB SWAP1 RETURN JUMPDEST PUSH2 0x2B8 PUSH1 0x4 DUP1 CALLDATASIZE SUB DUP2 ADD SWAP1 PUSH2 0x2B3 SWAP2 SWAP1 PUSH2 0x1CF7 JUMP JUMPDEST PUSH2 0x10BF JUMP JUMPDEST STOP JUMPDEST CALLVALUE DUP1 ISZERO PUSH2 0x2C6 JUMPI PUSH1 0x0 DUP1 REVERT JUMPDEST POP PUSH2 0x2CF PUSH2 0x162E JUMP JUMPDEST PUSH1 0x40 MLOAD PUSH2 0x2DC SWAP2 SWAP1 PUSH2 0x2151 JUMP JUMPDEST PUSH1 0x40 MLOAD DUP1 SWAP2 SUB SWAP1 RETURN JUMPDEST CALLVALUE DUP1 ISZERO PUSH2 0x2F1 JUMPI PUSH1 0x0 DUP1 REVERT JUMPDEST POP PUSH2 0x30C PUSH1 0x4 DUP1 CALLDATASIZE SUB DUP2 ADD SWAP1 PUSH2 0x307 SWAP2 SWAP1 PUSH2 0x1CF7 JUMP JUMPDEST PUSH2 0x1638 JUMP JUMPDEST STOP JUMPDEST PUSH2 0x328 PUSH1 0x4 DUP1 CALLDATASIZE SUB DUP2 ADD SWAP1 PUSH2 0x323 SWAP2 SWAP1 PUSH2 0x1CF7 JUMP JUMPDEST PUSH2 0x1897 JUMP JUMPDEST STOP JUMPDEST CALLVALUE DUP1 ISZERO PUSH2 0x336 JUMPI PUSH1 0x0 DUP1 REVERT JUMPDEST POP PUSH2 0x351 PUSH1 0x4 DUP1 CALLDATASIZE SUB DUP2 ADD SWAP1 PUSH2 0x34C SWAP2 SWAP1 PUSH2 0x1CF7 JUMP JUMPDEST PUSH2 0x1BA2 JUMP JUMPDEST STOP JUMPDEST PUSH1 0x0 PUSH1 0x5 SLOAD CALLVALUE EQ PUSH2 0x399 JUMPI PUSH1 0x40 MLOAD PUSH32 0x8C379A000000000000000000000000000000000000000000000000000000000 DUP2 MSTORE PUSH1 0x4 ADD PUSH2 0x390 SWAP1 PUSH2 0x20F1 JUMP JUMPDEST PUSH1 0x40 MLOAD DUP1 SWAP2 SUB SWAP1 REVERT JUMPDEST PUSH1 0x0 DUP5 GT PUSH2 0x3DC JUMPI PUSH1 0x40 MLOAD PUSH32 0x8C379A000000000000000000000000000000000000000000000000000000000 DUP2 MSTORE PUSH1 0x4 ADD PUSH2 0x3D3 SWAP1 PUSH2 0x2131 JUMP JUMPDEST PUSH1 0x40 MLOAD DUP1 SWAP2 SUB SWAP1 REVERT JUMPDEST PUSH1 0x0 PUSH1 0x3 DUP1 SLOAD SWAP1 POP SWAP1 POP PUSH1 0x0 PUSH20 0xFFFFFFFFFFFFFFFFFFFFFFFFFFFFFFFFFFFFFFFF AND PUSH1 0x8 PUSH1 0x0 DUP4 DUP2 MSTORE PUSH1 0x20 ADD SWAP1 DUP2 MSTORE PUSH1 0x20 ADD PUSH1 0x0 KECCAK256 PUSH1 0x0 SWAP1 SLOAD SWAP1 PUSH2 0x100 EXP SWAP1 DIV PUSH20 0xFFFFFFFFFFFFFFFFFFFFFFFFFFFFFFFFFFFFFFFF AND PUSH20 0xFFFFFFFFFFFFFFFFFFFFFFFFFFFFFFFFFFFFFFFF AND EQ PUSH2 0x488 JUMPI PUSH1 0x40 MLOAD PUSH32 0x8C379A000000000000000000000000000000000000000000000000000000000 DUP2 MSTORE PUSH1 0x4 ADD PUSH2 0x47F SWAP1 PUSH2 0x2051 JUMP JUMPDEST PUSH1 0x40 MLOAD DUP1 SWAP2 SUB SWAP1 REVERT JUMPDEST PUSH1 0x3 PUSH1 0x40 MLOAD DUP1 PUSH1 0x80 ADD PUSH1 0x40 MSTORE DUP1 DUP6 DUP2 MSTORE PUSH1 0x20 ADD DUP4 DUP2 MSTORE PUSH1 0x20 ADD DUP8 DUP2 MSTORE PUSH1 0x20 ADD PUSH1 0x1 ISZERO ISZERO DUP2 MSTORE POP SWAP1 DUP1 PUSH1 0x1 DUP2 SLOAD ADD DUP1 DUP3 SSTORE DUP1 SWAP2 POP POP PUSH1 0x1 SWAP1 SUB SWAP1 PUSH1 0x0 MSTORE PUSH1 0x20 PUSH1 0x0 KECCAK256 SWAP1 PUSH1 0x4 MUL ADD PUSH1 0x0 SWAP1 SWAP2 SWAP1 SWAP2 SWAP1 SWAP2 POP PUSH1 0x0 DUP3 ADD MLOAD DUP2 PUSH1 0x0 ADD SSTORE PUSH1 0x20 DUP3 ADD MLOAD DUP2 PUSH1 0x1 ADD SSTORE PUSH1 0x40 DUP3 ADD MLOAD DUP2 PUSH1 0x2 ADD SSTORE PUSH1 0x60 DUP3 ADD MLOAD DUP2 PUSH1 0x3 ADD PUSH1 0x0 PUSH2 0x100 EXP DUP2 SLOAD DUP2 PUSH1 0xFF MUL NOT AND SWAP1 DUP4 ISZERO ISZERO MUL OR SWAP1 SSTORE POP POP POP CALLER PUSH1 0x8 PUSH1 0x0 DUP4 DUP2 MSTORE PUSH1 0x20 ADD SWAP1 DUP2 MSTORE PUSH1 0x20 ADD PUSH1 0x0 KECCAK256 PUSH1 0x0 PUSH2 0x100 EXP DUP2 SLOAD DUP2 PUSH20 0xFFFFFFFFFFFFFFFFFFFFFFFFFFFFFFFFFFFFFFFF MUL NOT AND SWAP1 DUP4 PUSH20 0xFFFFFFFFFFFFFFFFFFFFFFFFFFFFFFFFFFFFFFFF AND MUL OR SWAP1 SSTORE POP CALLER PUSH1 0xA PUSH1 0x0 DUP4 DUP2 MSTORE PUSH1 0x20 ADD SWAP1 DUP2 MSTORE PUSH1 0x20 ADD PUSH1 0x0 KECCAK256 PUSH1 0x0 PUSH2 0x100 EXP DUP2 SLOAD DUP2 PUSH20 0xFFFFFFFFFFFFFFFFFFFFFFFFFFFFFFFFFFFFFFFF MUL NOT AND SWAP1 DUP4 PUSH20 0xFFFFFFFFFFFFFFFFFFFFFFFFFFFFFFFFFFFFFFFF AND MUL OR SWAP1 SSTORE POP DUP4 PUSH1 0xC PUSH1 0x0 DUP4 DUP2 MSTORE PUSH1 0x20 ADD SWAP1 DUP2 MSTORE PUSH1 0x20 ADD PUSH1 0x0 KECCAK256 DUP2 SWAP1 SSTORE POP PUSH1 0x7 PUSH1 0x0 CALLER PUSH20 0xFFFFFFFFFFFFFFFFFFFFFFFFFFFFFFFFFFFFFFFF AND PUSH20 0xFFFFFFFFFFFFFFFFFFFFFFFFFFFFFFFFFFFFFFFF AND DUP2 MSTORE PUSH1 0x20 ADD SWAP1 DUP2 MSTORE PUSH1 0x20 ADD PUSH1 0x0 KECCAK256 PUSH1 0x0 DUP2 SLOAD DUP1 SWAP3 SWAP2 SWAP1 PUSH1 0x1 ADD SWAP2 SWAP1 POP SSTORE POP PUSH1 0x9 PUSH1 0x0 CALLER PUSH20 0xFFFFFFFFFFFFFFFFFFFFFFFFFFFFFFFFFFFFFFFF AND PUSH20 0xFFFFFFFFFFFFFFFFFFFFFFFFFFFFFFFFFFFFFFFF AND DUP2 MSTORE PUSH1 0x20 ADD SWAP1 DUP2 MSTORE PUSH1 0x20 ADD PUSH1 0x0 KECCAK256 PUSH1 0x0 DUP2 SLOAD DUP1 SWAP3 SWAP2 SWAP1 PUSH1 0x1 ADD SWAP2 SWAP1 POP SSTORE POP PUSH1 0xB PUSH1 0x0 DUP6 DUP2 MSTORE PUSH1 0x20 ADD SWAP1 DUP2 MSTORE PUSH1 0x20 ADD PUSH1 0x0 KECCAK256 PUSH1 0x0 DUP2 SLOAD DUP1 SWAP3 SWAP2 SWAP1 PUSH1 0x1 ADD SWAP2 SWAP1 POP SSTORE POP PUSH1 0x4 PUSH1 0x0 DUP2 SLOAD DUP1 SWAP3 SWAP2 SWAP1 PUSH1 0x1 ADD SWAP2 SWAP1 POP SSTORE POP PUSH1 0x2 PUSH1 0x0 SWAP1 SLOAD SWAP1 PUSH2 0x100 EXP SWAP1 DIV PUSH20 0xFFFFFFFFFFFFFFFFFFFFFFFFFFFFFFFFFFFFFFFF AND PUSH20 0xFFFFFFFFFFFFFFFFFFFFFFFFFFFFFFFFFFFFFFFF AND PUSH2 0x8FC CALLVALUE SWAP1 DUP2 ISZERO MUL SWAP1 PUSH1 0x40 MLOAD PUSH1 0x0 PUSH1 0x40 MLOAD DUP1 DUP4 SUB DUP2 DUP6 DUP9 DUP9 CALL SWAP4 POP POP POP POP ISZERO DUP1 ISZERO PUSH2 0x70E JUMPI RETURNDATASIZE PUSH1 0x0 DUP1 RETURNDATACOPY RETURNDATASIZE PUSH1 0x0 REVERT JUMPDEST POP DUP1 SWAP2 POP POP SWAP4 SWAP3 POP POP POP JUMP JUMPDEST PUSH1 0x60 PUSH1 0x0 DUP1 PUSH1 0x4 SLOAD PUSH8 0xFFFFFFFFFFFFFFFF DUP2 GT ISZERO PUSH2 0x761 JUMPI PUSH32 0x4E487B7100000000000000000000000000000000000000000000000000000000 PUSH1 0x0 MSTORE PUSH1 0x41 PUSH1 0x4 MSTORE PUSH1 0x24 PUSH1 0x0 REVERT JUMPDEST PUSH1 0x40 MLOAD SWAP1 DUP1 DUP3 MSTORE DUP1 PUSH1 0x20 MUL PUSH1 0x20 ADD DUP3 ADD PUSH1 0x40 MSTORE DUP1 ISZERO PUSH2 0x79A JUMPI DUP2 PUSH1 0x20 ADD JUMPDEST PUSH2 0x787 PUSH2 0x1C7A JUMP JUMPDEST DUP2 MSTORE PUSH1 0x20 ADD SWAP1 PUSH1 0x1 SWAP1 SUB SWAP1 DUP2 PUSH2 0x77F JUMPI SWAP1 POP JUMPDEST POP SWAP1 POP PUSH1 0x0 JUMPDEST PUSH1 0x3 DUP1 SLOAD SWAP1 POP DUP2 LT ISZERO PUSH2 0x904 JUMPI PUSH1 0x1 ISZERO ISZERO PUSH1 0x3 DUP3 DUP2 SLOAD DUP2 LT PUSH2 0x7EB JUMPI PUSH32 0x4E487B7100000000000000000000000000000000000000000000000000000000 PUSH1 0x0 MSTORE PUSH1 0x32 PUSH1 0x4 MSTORE PUSH1 0x24 PUSH1 0x0 REVERT JUMPDEST SWAP1 PUSH1 0x0 MSTORE PUSH1 0x20 PUSH1 0x0 KECCAK256 SWAP1 PUSH1 0x4 MUL ADD PUSH1 0x3 ADD PUSH1 0x0 SWAP1 SLOAD SWAP1 PUSH2 0x100 EXP SWAP1 DIV PUSH1 0xFF AND ISZERO ISZERO EQ ISZERO PUSH2 0x8F1 JUMPI PUSH1 0x3 DUP2 DUP2 SLOAD DUP2 LT PUSH2 0x84C JUMPI PUSH32 0x4E487B7100000000000000000000000000000000000000000000000000000000 PUSH1 0x0 MSTORE PUSH1 0x32 PUSH1 0x4 MSTORE PUSH1 0x24 PUSH1 0x0 REVERT JUMPDEST SWAP1 PUSH1 0x0 MSTORE PUSH1 0x20 PUSH1 0x0 KECCAK256 SWAP1 PUSH1 0x4 MUL ADD PUSH1 0x40 MLOAD DUP1 PUSH1 0x80 ADD PUSH1 0x40 MSTORE SWAP1 DUP2 PUSH1 0x0 DUP3 ADD SLOAD DUP2 MSTORE PUSH1 0x20 ADD PUSH1 0x1 DUP3 ADD SLOAD DUP2 MSTORE PUSH1 0x20 ADD PUSH1 0x2 DUP3 ADD SLOAD DUP2 MSTORE PUSH1 0x20 ADD PUSH1 0x3 DUP3 ADD PUSH1 0x0 SWAP1 SLOAD SWAP1 PUSH2 0x100 EXP SWAP1 DIV PUSH1 0xFF AND ISZERO ISZERO ISZERO ISZERO DUP2 MSTORE POP POP DUP3 DUP5 DUP2 MLOAD DUP2 LT PUSH2 0x8D7 JUMPI PUSH32 0x4E487B7100000000000000000000000000000000000000000000000000000000 PUSH1 0x0 MSTORE PUSH1 0x32 PUSH1 0x4 MSTORE PUSH1 0x24 PUSH1 0x0 REVERT JUMPDEST PUSH1 0x20 MUL PUSH1 0x20 ADD ADD DUP2 SWAP1 MSTORE POP DUP3 DUP1 PUSH2 0x8ED SWAP1 PUSH2 0x22BD JUMP JUMPDEST SWAP4 POP POP JUMPDEST DUP1 DUP1 PUSH2 0x8FC SWAP1 PUSH2 0x22BD JUMP JUMPDEST SWAP2 POP POP PUSH2 0x7A0 JUMP JUMPDEST POP DUP1 SWAP3 POP POP POP SWAP1 JUMP JUMPDEST PUSH1 0x0 PUSH1 0x6 SLOAD SWAP1 POP SWAP1 JUMP JUMPDEST PUSH1 0x2 PUSH1 0x0 SWAP1 SLOAD SWAP1 PUSH2 0x100 EXP SWAP1 DIV PUSH20 0xFFFFFFFFFFFFFFFFFFFFFFFFFFFFFFFFFFFFFFFF AND PUSH20 0xFFFFFFFFFFFFFFFFFFFFFFFFFFFFFFFFFFFFFFFF AND CALLER PUSH20 0xFFFFFFFFFFFFFFFFFFFFFFFFFFFFFFFFFFFFFFFF AND EQ PUSH2 0x9A7 JUMPI PUSH1 0x40 MLOAD PUSH32 0x8C379A000000000000000000000000000000000000000000000000000000000 DUP2 MSTORE PUSH1 0x4 ADD PUSH2 0x99E SWAP1 PUSH2 0x2111 JUMP JUMPDEST PUSH1 0x40 MLOAD DUP1 SWAP2 SUB SWAP1 REVERT JUMPDEST DUP1 PUSH1 0x6 DUP2 SWAP1 SSTORE POP POP JUMP JUMPDEST PUSH1 0x60 PUSH1 0x0 DUP1 PUSH1 0xB PUSH1 0x0 DUP6 DUP2 MSTORE PUSH1 0x20 ADD SWAP1 DUP2 MSTORE PUSH1 0x20 ADD PUSH1 0x0 KECCAK256 SLOAD PUSH8 0xFFFFFFFFFFFFFFFF DUP2 GT ISZERO PUSH2 0xA09 JUMPI PUSH32 0x4E487B7100000000000000000000000000000000000000000000000000000000 PUSH1 0x0 MSTORE PUSH1 0x41 PUSH1 0x4 MSTORE PUSH1 0x24 PUSH1 0x0 REVERT JUMPDEST PUSH1 0x40 MLOAD SWAP1 DUP1 DUP3 MSTORE DUP1 PUSH1 0x20 MUL PUSH1 0x20 ADD DUP3 ADD PUSH1 0x40 MSTORE DUP1 ISZERO PUSH2 0xA42 JUMPI DUP2 PUSH1 0x20 ADD JUMPDEST PUSH2 0xA2F PUSH2 0x1C7A JUMP JUMPDEST DUP2 MSTORE PUSH1 0x20 ADD SWAP1 PUSH1 0x1 SWAP1 SUB SWAP1 DUP2 PUSH2 0xA27 JUMPI SWAP1 POP JUMPDEST POP SWAP1 POP PUSH1 0x0 JUMPDEST PUSH1 0x3 DUP1 SLOAD SWAP1 POP DUP2 LT ISZERO PUSH2 0xBCA JUMPI DUP5 PUSH1 0xC PUSH1 0x0 DUP4 DUP2 MSTORE PUSH1 0x20 ADD SWAP1 DUP2 MSTORE PUSH1 0x20 ADD PUSH1 0x0 KECCAK256 SLOAD EQ DUP1 ISZERO PUSH2 0xAD3 JUMPI POP PUSH1 0x1 ISZERO ISZERO PUSH1 0x3 DUP3 DUP2 SLOAD DUP2 LT PUSH2 0xAB0 JUMPI PUSH32 0x4E487B7100000000000000000000000000000000000000000000000000000000 PUSH1 0x0 MSTORE PUSH1 0x32 PUSH1 0x4 MSTORE PUSH1 0x24 PUSH1 0x0 REVERT JUMPDEST SWAP1 PUSH1 0x0 MSTORE PUSH1 0x20 PUSH1 0x0 KECCAK256 SWAP1 PUSH1 0x4 MUL ADD PUSH1 0x3 ADD PUSH1 0x0 SWAP1 SLOAD SWAP1 PUSH2 0x100 EXP SWAP1 DIV PUSH1 0xFF AND ISZERO ISZERO EQ JUMPDEST ISZERO PUSH2 0xBB7 JUMPI PUSH1 0x3 DUP2 DUP2 SLOAD DUP2 LT PUSH2 0xB12 JUMPI PUSH32 0x4E487B7100000000000000000000000000000000000000000000000000000000 PUSH1 0x0 MSTORE PUSH1 0x32 PUSH1 0x4 MSTORE PUSH1 0x24 PUSH1 0x0 REVERT JUMPDEST SWAP1 PUSH1 0x0 MSTORE PUSH1 0x20 PUSH1 0x0 KECCAK256 SWAP1 PUSH1 0x4 MUL ADD PUSH1 0x40 MLOAD DUP1 PUSH1 0x80 ADD PUSH1 0x40 MSTORE SWAP1 DUP2 PUSH1 0x0 DUP3 ADD SLOAD DUP2 MSTORE PUSH1 0x20 ADD PUSH1 0x1 DUP3 ADD SLOAD DUP2 MSTORE PUSH1 0x20 ADD PUSH1 0x2 DUP3 ADD SLOAD DUP2 MSTORE PUSH1 0x20 ADD PUSH1 0x3 DUP3 ADD PUSH1 0x0 SWAP1 SLOAD SWAP1 PUSH2 0x100 EXP SWAP1 DIV PUSH1 0xFF AND ISZERO ISZERO ISZERO ISZERO DUP2 MSTORE POP POP DUP3 DUP5 DUP2 MLOAD DUP2 LT PUSH2 0xB9D JUMPI PUSH32 0x4E487B7100000000000000000000000000000000000000000000000000000000 PUSH1 0x0 MSTORE PUSH1 0x32 PUSH1 0x4 MSTORE PUSH1 0x24 PUSH1 0x0 REVERT JUMPDEST PUSH1 0x20 MUL PUSH1 0x20 ADD ADD DUP2 SWAP1 MSTORE POP DUP3 DUP1 PUSH2 0xBB3 SWAP1 PUSH2 0x22BD JUMP JUMPDEST SWAP4 POP POP JUMPDEST DUP1 DUP1 PUSH2 0xBC2 SWAP1 PUSH2 0x22BD JUMP JUMPDEST SWAP2 POP POP PUSH2 0xA48 JUMP JUMPDEST POP DUP1 SWAP3 POP POP POP SWAP2 SWAP1 POP JUMP JUMPDEST PUSH1 0x60 PUSH1 0x0 DUP1 PUSH1 0x7 PUSH1 0x0 CALLER PUSH20 0xFFFFFFFFFFFFFFFFFFFFFFFFFFFFFFFFFFFFFFFF AND PUSH20 0xFFFFFFFFFFFFFFFFFFFFFFFFFFFFFFFFFFFFFFFF AND DUP2 MSTORE PUSH1 0x20 ADD SWAP1 DUP2 MSTORE PUSH1 0x20 ADD PUSH1 0x0 KECCAK256 SLOAD PUSH8 0xFFFFFFFFFFFFFFFF DUP2 GT ISZERO PUSH2 0xC59 JUMPI PUSH32 0x4E487B7100000000000000000000000000000000000000000000000000000000 PUSH1 0x0 MSTORE PUSH1 0x41 PUSH1 0x4 MSTORE PUSH1 0x24 PUSH1 0x0 REVERT JUMPDEST PUSH1 0x40 MLOAD SWAP1 DUP1 DUP3 MSTORE DUP1 PUSH1 0x20 MUL PUSH1 0x20 ADD DUP3 ADD PUSH1 0x40 MSTORE DUP1 ISZERO PUSH2 0xC92 JUMPI DUP2 PUSH1 0x20 ADD JUMPDEST PUSH2 0xC7F PUSH2 0x1C7A JUMP JUMPDEST DUP2 MSTORE PUSH1 0x20 ADD SWAP1 PUSH1 0x1 SWAP1 SUB SWAP1 DUP2 PUSH2 0xC77 JUMPI SWAP1 POP JUMPDEST POP SWAP1 POP PUSH1 0x0 JUMPDEST PUSH1 0x3 DUP1 SLOAD SWAP1 POP DUP2 LT ISZERO PUSH2 0xDFE JUMPI CALLER PUSH20 0xFFFFFFFFFFFFFFFFFFFFFFFFFFFFFFFFFFFFFFFF AND PUSH1 0x8 PUSH1 0x0 DUP4 DUP2 MSTORE PUSH1 0x20 ADD SWAP1 DUP2 MSTORE PUSH1 0x20 ADD PUSH1 0x0 KECCAK256 PUSH1 0x0 SWAP1 SLOAD SWAP1 PUSH2 0x100 EXP SWAP1 DIV PUSH20 0xFFFFFFFFFFFFFFFFFFFFFFFFFFFFFFFFFFFFFFFF AND PUSH20 0xFFFFFFFFFFFFFFFFFFFFFFFFFFFFFFFFFFFFFFFF AND EQ ISZERO PUSH2 0xDEB JUMPI PUSH1 0x3 DUP2 DUP2 SLOAD DUP2 LT PUSH2 0xD46 JUMPI PUSH32 0x4E487B7100000000000000000000000000000000000000000000000000000000 PUSH1 0x0 MSTORE PUSH1 0x32 PUSH1 0x4 MSTORE PUSH1 0x24 PUSH1 0x0 REVERT JUMPDEST SWAP1 PUSH1 0x0 MSTORE PUSH1 0x20 PUSH1 0x0 KECCAK256 SWAP1 PUSH1 0x4 MUL ADD PUSH1 0x40 MLOAD DUP1 PUSH1 0x80 ADD PUSH1 0x40 MSTORE SWAP1 DUP2 PUSH1 0x0 DUP3 ADD SLOAD DUP2 MSTORE PUSH1 0x20 ADD PUSH1 0x1 DUP3 ADD SLOAD DUP2 MSTORE PUSH1 0x20 ADD PUSH1 0x2 DUP3 ADD SLOAD DUP2 MSTORE PUSH1 0x20 ADD PUSH1 0x3 DUP3 ADD PUSH1 0x0 SWAP1 SLOAD SWAP1 PUSH2 0x100 EXP SWAP1 DIV PUSH1 0xFF AND ISZERO ISZERO ISZERO ISZERO DUP2 MSTORE POP POP DUP3 DUP5 DUP2 MLOAD DUP2 LT PUSH2 0xDD1 JUMPI PUSH32 0x4E487B7100000000000000000000000000000000000000000000000000000000 PUSH1 0x0 MSTORE PUSH1 0x32 PUSH1 0x4 MSTORE PUSH1 0x24 PUSH1 0x0 REVERT JUMPDEST PUSH1 0x20 MUL PUSH1 0x20 ADD ADD DUP2 SWAP1 MSTORE POP DUP3 DUP1 PUSH2 0xDE7 SWAP1 PUSH2 0x22BD JUMP JUMPDEST SWAP4 POP POP JUMPDEST DUP1 DUP1 PUSH2 0xDF6 SWAP1 PUSH2 0x22BD JUMP JUMPDEST SWAP2 POP POP PUSH2 0xC98 JUMP JUMPDEST POP DUP1 SWAP3 POP POP POP SWAP1 JUMP JUMPDEST PUSH1 0x0 PUSH1 0x8 PUSH1 0x0 DUP4 DUP2 MSTORE PUSH1 0x20 ADD SWAP1 DUP2 MSTORE PUSH1 0x20 ADD PUSH1 0x0 KECCAK256 PUSH1 0x0 SWAP1 SLOAD SWAP1 PUSH2 0x100 EXP SWAP1 DIV PUSH20 0xFFFFFFFFFFFFFFFFFFFFFFFFFFFFFFFFFFFFFFFF AND SWAP1 POP SWAP2 SWAP1 POP JUMP JUMPDEST PUSH1 0x60 PUSH1 0x0 DUP1 PUSH1 0x9 PUSH1 0x0 CALLER PUSH20 0xFFFFFFFFFFFFFFFFFFFFFFFFFFFFFFFFFFFFFFFF AND PUSH20 0xFFFFFFFFFFFFFFFFFFFFFFFFFFFFFFFFFFFFFFFF AND DUP2 MSTORE PUSH1 0x20 ADD SWAP1 DUP2 MSTORE PUSH1 0x20 ADD PUSH1 0x0 KECCAK256 SLOAD PUSH8 0xFFFFFFFFFFFFFFFF DUP2 GT ISZERO PUSH2 0xEC8 JUMPI PUSH32 0x4E487B7100000000000000000000000000000000000000000000000000000000 PUSH1 0x0 MSTORE PUSH1 0x41 PUSH1 0x4 MSTORE PUSH1 0x24 PUSH1 0x0 REVERT JUMPDEST PUSH1 0x40 MLOAD SWAP1 DUP1 DUP3 MSTORE DUP1 PUSH1 0x20 MUL PUSH1 0x20 ADD DUP3 ADD PUSH1 0x40 MSTORE DUP1 ISZERO PUSH2 0xF01 JUMPI DUP2 PUSH1 0x20 ADD JUMPDEST PUSH2 0xEEE PUSH2 0x1C7A JUMP JUMPDEST DUP2 MSTORE PUSH1 0x20 ADD SWAP1 PUSH1 0x1 SWAP1 SUB SWAP1 DUP2 PUSH2 0xEE6 JUMPI SWAP1 POP JUMPDEST POP SWAP1 POP PUSH1 0x0 JUMPDEST PUSH1 0x3 DUP1 SLOAD SWAP1 POP DUP2 LT ISZERO PUSH2 0x106D JUMPI CALLER PUSH20 0xFFFFFFFFFFFFFFFFFFFFFFFFFFFFFFFFFFFFFFFF AND PUSH1 0xA PUSH1 0x0 DUP4 DUP2 MSTORE PUSH1 0x20 ADD SWAP1 DUP2 MSTORE PUSH1 0x20 ADD PUSH1 0x0 KECCAK256 PUSH1 0x0 SWAP1 SLOAD SWAP1 PUSH2 0x100 EXP SWAP1 DIV PUSH20 0xFFFFFFFFFFFFFFFFFFFFFFFFFFFFFFFFFFFFFFFF AND PUSH20 0xFFFFFFFFFFFFFFFFFFFFFFFFFFFFFFFFFFFFFFFF AND EQ ISZERO PUSH2 0x105A JUMPI PUSH1 0x3 DUP2 DUP2 SLOAD DUP2 LT PUSH2 0xFB5 JUMPI PUSH32 0x4E487B7100000000000000000000000000000000000000000000000000000000 PUSH1 0x0 MSTORE PUSH1 0x32 PUSH1 0x4 MSTORE PUSH1 0x24 PUSH1 0x0 REVERT JUMPDEST SWAP1 PUSH1 0x0 MSTORE PUSH1 0x20 PUSH1 0x0 KECCAK256 SWAP1 PUSH1 0x4 MUL ADD PUSH1 0x40 MLOAD DUP1 PUSH1 0x80 ADD PUSH1 0x40 MSTORE SWAP1 DUP2 PUSH1 0x0 DUP3 ADD SLOAD DUP2 MSTORE PUSH1 0x20 ADD PUSH1 0x1 DUP3 ADD SLOAD DUP2 MSTORE PUSH1 0x20 ADD PUSH1 0x2 DUP3 ADD SLOAD DUP2 MSTORE PUSH1 0x20 ADD PUSH1 0x3 DUP3 ADD PUSH1 0x0 SWAP1 SLOAD SWAP1 PUSH2 0x100 EXP SWAP1 DIV PUSH1 0xFF AND ISZERO ISZERO ISZERO ISZERO DUP2 MSTORE POP POP DUP3 DUP5 DUP2 MLOAD DUP2 LT PUSH2 0x1040 JUMPI PUSH32 0x4E487B7100000000000000000000000000000000000000000000000000000000 PUSH1 0x0 MSTORE PUSH1 0x32 PUSH1 0x4 MSTORE PUSH1 0x24 PUSH1 0x0 REVERT JUMPDEST PUSH1 0x20 MUL PUSH1 0x20 ADD ADD DUP2 SWAP1 MSTORE POP DUP3 DUP1 PUSH2 0x1056 SWAP1 PUSH2 0x22BD JUMP JUMPDEST SWAP4 POP POP JUMPDEST DUP1 DUP1 PUSH2 0x1065 SWAP1 PUSH2 0x22BD JUMP JUMPDEST SWAP2 POP POP PUSH2 0xF07 JUMP JUMPDEST POP DUP1 SWAP3 POP POP POP SWAP1 JUMP JUMPDEST PUSH1 0x0 PUSH1 0x7 PUSH1 0x0 DUP4 PUSH20 0xFFFFFFFFFFFFFFFFFFFFFFFFFFFFFFFFFFFFFFFF AND PUSH20 0xFFFFFFFFFFFFFFFFFFFFFFFFFFFFFFFFFFFFFFFF AND DUP2 MSTORE PUSH1 0x20 ADD SWAP1 DUP2 MSTORE PUSH1 0x20 ADD PUSH1 0x0 KECCAK256 SLOAD SWAP1 POP SWAP2 SWAP1 POP JUMP JUMPDEST PUSH1 0x3 DUP2 DUP2 SLOAD DUP2 LT PUSH2 0x10F9 JUMPI PUSH32 0x4E487B7100000000000000000000000000000000000000000000000000000000 PUSH1 0x0 MSTORE PUSH1 0x32 PUSH1 0x4 MSTORE PUSH1 0x24 PUSH1 0x0 REVERT JUMPDEST SWAP1 PUSH1 0x0 MSTORE PUSH1 0x20 PUSH1 0x0 KECCAK256 SWAP1 PUSH1 0x4 MUL ADD PUSH1 0x2 ADD SLOAD CALLVALUE EQ PUSH2 0x114C JUMPI PUSH1 0x40 MLOAD PUSH32 0x8C379A000000000000000000000000000000000000000000000000000000000 DUP2 MSTORE PUSH1 0x4 ADD PUSH2 0x1143 SWAP1 PUSH2 0x2071 JUMP JUMPDEST PUSH1 0x40 MLOAD DUP1 SWAP2 SUB SWAP1 REVERT JUMPDEST PUSH1 0x0 PUSH20 0xFFFFFFFFFFFFFFFFFFFFFFFFFFFFFFFFFFFFFFFF AND PUSH1 0x8 PUSH1 0x0 DUP4 DUP2 MSTORE PUSH1 0x20 ADD SWAP1 DUP2 MSTORE PUSH1 0x20 ADD PUSH1 0x0 KECCAK256 PUSH1 0x0 SWAP1 SLOAD SWAP1 PUSH2 0x100 EXP SWAP1 DIV PUSH20 0xFFFFFFFFFFFFFFFFFFFFFFFFFFFFFFFFFFFFFFFF AND PUSH20 0xFFFFFFFFFFFFFFFFFFFFFFFFFFFFFFFFFFFFFFFF AND EQ ISZERO PUSH2 0x11EF JUMPI PUSH1 0x40 MLOAD PUSH32 0x8C379A000000000000000000000000000000000000000000000000000000000 DUP2 MSTORE PUSH1 0x4 ADD PUSH2 0x11E6 SWAP1 PUSH2 0x2091 JUMP JUMPDEST PUSH1 0x40 MLOAD DUP1 SWAP2 SUB SWAP1 REVERT JUMPDEST CALLER PUSH20 0xFFFFFFFFFFFFFFFFFFFFFFFFFFFFFFFFFFFFFFFF AND PUSH1 0x8 PUSH1 0x0 DUP4 DUP2 MSTORE PUSH1 0x20 ADD SWAP1 DUP2 MSTORE PUSH1 0x20 ADD PUSH1 0x0 KECCAK256 PUSH1 0x0 SWAP1 SLOAD SWAP1 PUSH2 0x100 EXP SWAP1 DIV PUSH20 0xFFFFFFFFFFFFFFFFFFFFFFFFFFFFFFFFFFFFFFFF AND PUSH20 0xFFFFFFFFFFFFFFFFFFFFFFFFFFFFFFFFFFFFFFFF AND EQ ISZERO PUSH2 0x1291 JUMPI PUSH1 0x40 MLOAD PUSH32 0x8C379A000000000000000000000000000000000000000000000000000000000 DUP2 MSTORE PUSH1 0x4 ADD PUSH2 0x1288 SWAP1 PUSH2 0x2011 JUMP JUMPDEST PUSH1 0x40 MLOAD DUP1 SWAP2 SUB SWAP1 REVERT JUMPDEST PUSH1 0x0 PUSH1 0x8 PUSH1 0x0 DUP4 DUP2 MSTORE PUSH1 0x20 ADD SWAP1 DUP2 MSTORE PUSH1 0x20 ADD PUSH1 0x0 KECCAK256 PUSH1 0x0 SWAP1 SLOAD SWAP1 PUSH2 0x100 EXP SWAP1 DIV PUSH20 0xFFFFFFFFFFFFFFFFFFFFFFFFFFFFFFFFFFFFFFFF AND SWAP1 POP PUSH1 0x0 PUSH1 0x3 DUP4 DUP2 SLOAD DUP2 LT PUSH2 0x1305 JUMPI PUSH32 0x4E487B7100000000000000000000000000000000000000000000000000000000 PUSH1 0x0 MSTORE PUSH1 0x32 PUSH1 0x4 MSTORE PUSH1 0x24 PUSH1 0x0 REVERT JUMPDEST SWAP1 PUSH1 0x0 MSTORE PUSH1 0x20 PUSH1 0x0 KECCAK256 SWAP1 PUSH1 0x4 MUL ADD SWAP1 POP PUSH1 0x0 DUP2 PUSH1 0x3 ADD PUSH1 0x0 PUSH2 0x100 EXP DUP2 SLOAD DUP2 PUSH1 0xFF MUL NOT AND SWAP1 DUP4 ISZERO ISZERO MUL OR SWAP1 SSTORE POP CALLER PUSH1 0x8 PUSH1 0x0 DUP6 DUP2 MSTORE PUSH1 0x20 ADD SWAP1 DUP2 MSTORE PUSH1 0x20 ADD PUSH1 0x0 KECCAK256 PUSH1 0x0 PUSH2 0x100 EXP DUP2 SLOAD DUP2 PUSH20 0xFFFFFFFFFFFFFFFFFFFFFFFFFFFFFFFFFFFFFFFF MUL NOT AND SWAP1 DUP4 PUSH20 0xFFFFFFFFFFFFFFFFFFFFFFFFFFFFFFFFFFFFFFFF AND MUL OR SWAP1 SSTORE POP PUSH1 0x7 PUSH1 0x0 DUP4 PUSH20 0xFFFFFFFFFFFFFFFFFFFFFFFFFFFFFFFFFFFFFFFF AND PUSH20 0xFFFFFFFFFFFFFFFFFFFFFFFFFFFFFFFFFFFFFFFF AND DUP2 MSTORE PUSH1 0x20 ADD SWAP1 DUP2 MSTORE PUSH1 0x20 ADD PUSH1 0x0 KECCAK256 PUSH1 0x0 DUP2 SLOAD DUP1 SWAP3 SWAP2 SWAP1 PUSH1 0x1 SWAP1 SUB SWAP2 SWAP1 POP SSTORE POP PUSH1 0x7 PUSH1 0x0 CALLER PUSH20 0xFFFFFFFFFFFFFFFFFFFFFFFFFFFFFFFFFFFFFFFF AND PUSH20 0xFFFFFFFFFFFFFFFFFFFFFFFFFFFFFFFFFFFFFFFF AND DUP2 MSTORE PUSH1 0x20 ADD SWAP1 DUP2 MSTORE PUSH1 0x20 ADD PUSH1 0x0 KECCAK256 PUSH1 0x0 DUP2 SLOAD DUP1 SWAP3 SWAP2 SWAP1 PUSH1 0x1 ADD SWAP2 SWAP1 POP SSTORE POP PUSH1 0x4 PUSH1 0x0 DUP2 SLOAD DUP1 SWAP3 SWAP2 SWAP1 PUSH1 0x1 SWAP1 SUB SWAP2 SWAP1 POP SSTORE POP DUP2 PUSH20 0xFFFFFFFFFFFFFFFFFFFFFFFFFFFFFFFFFFFFFFFF AND PUSH1 0xA PUSH1 0x0 DUP6 DUP2 MSTORE PUSH1 0x20 ADD SWAP1 DUP2 MSTORE PUSH1 0x20 ADD PUSH1 0x0 KECCAK256 PUSH1 0x0 SWAP1 SLOAD SWAP1 PUSH2 0x100 EXP SWAP1 DIV PUSH20 0xFFFFFFFFFFFFFFFFFFFFFFFFFFFFFFFFFFFFFFFF AND PUSH20 0xFFFFFFFFFFFFFFFFFFFFFFFFFFFFFFFFFFFFFFFF AND EQ ISZERO PUSH2 0x14E9 JUMPI DUP2 PUSH20 0xFFFFFFFFFFFFFFFFFFFFFFFFFFFFFFFFFFFFFFFF AND PUSH2 0x8FC CALLVALUE SWAP1 DUP2 ISZERO MUL SWAP1 PUSH1 0x40 MLOAD PUSH1 0x0 PUSH1 0x40 MLOAD DUP1 DUP4 SUB DUP2 DUP6 DUP9 DUP9 CALL SWAP4 POP POP POP POP ISZERO DUP1 ISZERO PUSH2 0x14E3 JUMPI RETURNDATASIZE PUSH1 0x0 DUP1 RETURNDATACOPY RETURNDATASIZE PUSH1 0x0 REVERT JUMPDEST POP PUSH2 0x15C4 JUMP JUMPDEST PUSH1 0x0 DUP1 PUSH2 0x14F8 CALLVALUE PUSH1 0x6 SLOAD PUSH2 0x1C3C JUMP JUMPDEST DUP1 SWAP3 POP DUP2 SWAP4 POP POP POP PUSH1 0xA PUSH1 0x0 DUP7 DUP2 MSTORE PUSH1 0x20 ADD SWAP1 DUP2 MSTORE PUSH1 0x20 ADD PUSH1 0x0 KECCAK256 PUSH1 0x0 SWAP1 SLOAD SWAP1 PUSH2 0x100 EXP SWAP1 DIV PUSH20 0xFFFFFFFFFFFFFFFFFFFFFFFFFFFFFFFFFFFFFFFF AND PUSH20 0xFFFFFFFFFFFFFFFFFFFFFFFFFFFFFFFFFFFFFFFF AND PUSH2 0x8FC DUP4 SWAP1 DUP2 ISZERO MUL SWAP1 PUSH1 0x40 MLOAD PUSH1 0x0 PUSH1 0x40 MLOAD DUP1 DUP4 SUB DUP2 DUP6 DUP9 DUP9 CALL SWAP4 POP POP POP POP ISZERO DUP1 ISZERO PUSH2 0x1579 JUMPI RETURNDATASIZE PUSH1 0x0 DUP1 RETURNDATACOPY RETURNDATASIZE PUSH1 0x0 REVERT JUMPDEST POP DUP4 PUSH20 0xFFFFFFFFFFFFFFFFFFFFFFFFFFFFFFFFFFFFFFFF AND PUSH2 0x8FC DUP3 SWAP1 DUP2 ISZERO MUL SWAP1 PUSH1 0x40 MLOAD PUSH1 0x0 PUSH1 0x40 MLOAD DUP1 DUP4 SUB DUP2 DUP6 DUP9 DUP9 CALL SWAP4 POP POP POP POP ISZERO DUP1 ISZERO PUSH2 0x15C0 JUMPI RETURNDATASIZE PUSH1 0x0 DUP1 RETURNDATACOPY RETURNDATASIZE PUSH1 0x0 REVERT JUMPDEST POP POP POP JUMPDEST CALLER PUSH20 0xFFFFFFFFFFFFFFFFFFFFFFFFFFFFFFFFFFFFFFFF AND DUP3 PUSH20 0xFFFFFFFFFFFFFFFFFFFFFFFFFFFFFFFFFFFFFFFF AND PUSH32 0xDDF252AD1BE2C89B69C2B068FC378DAA952BA7F163C4A11628F55A4DF523B3EF DUP6 PUSH1 0x40 MLOAD PUSH2 0x1621 SWAP2 SWAP1 PUSH2 0x2151 JUMP JUMPDEST PUSH1 0x40 MLOAD DUP1 SWAP2 SUB SWAP1 LOG3 POP POP POP JUMP JUMPDEST PUSH1 0x0 PUSH1 0x5 SLOAD SWAP1 POP SWAP1 JUMP JUMPDEST DUP1 CALLER PUSH20 0xFFFFFFFFFFFFFFFFFFFFFFFFFFFFFFFFFFFFFFFF AND PUSH1 0x8 PUSH1 0x0 DUP4 DUP2 MSTORE PUSH1 0x20 ADD SWAP1 DUP2 MSTORE PUSH1 0x20 ADD PUSH1 0x0 KECCAK256 PUSH1 0x0 SWAP1 SLOAD SWAP1 PUSH2 0x100 EXP SWAP1 DIV PUSH20 0xFFFFFFFFFFFFFFFFFFFFFFFFFFFFFFFFFFFFFFFF AND PUSH20 0xFFFFFFFFFFFFFFFFFFFFFFFFFFFFFFFFFFFFFFFF AND EQ PUSH2 0x16DA JUMPI PUSH1 0x40 MLOAD PUSH32 0x8C379A000000000000000000000000000000000000000000000000000000000 DUP2 MSTORE PUSH1 0x4 ADD PUSH2 0x16D1 SWAP1 PUSH2 0x20B1 JUMP JUMPDEST PUSH1 0x40 MLOAD DUP1 SWAP2 SUB SWAP1 REVERT JUMPDEST PUSH1 0x0 PUSH20 0xFFFFFFFFFFFFFFFFFFFFFFFFFFFFFFFFFFFFFFFF AND PUSH1 0x8 PUSH1 0x0 DUP5 DUP2 MSTORE PUSH1 0x20 ADD SWAP1 DUP2 MSTORE PUSH1 0x20 ADD PUSH1 0x0 KECCAK256 PUSH1 0x0 SWAP1 SLOAD SWAP1 PUSH2 0x100 EXP SWAP1 DIV PUSH20 0xFFFFFFFFFFFFFFFFFFFFFFFFFFFFFFFFFFFFFFFF AND PUSH20 0xFFFFFFFFFFFFFFFFFFFFFFFFFFFFFFFFFFFFFFFF AND EQ ISZERO PUSH2 0x177D JUMPI PUSH1 0x40 MLOAD PUSH32 0x8C379A000000000000000000000000000000000000000000000000000000000 DUP2 MSTORE PUSH1 0x4 ADD PUSH2 0x1774 SWAP1 PUSH2 0x2091 JUMP JUMPDEST PUSH1 0x40 MLOAD DUP1 SWAP2 SUB SWAP1 REVERT JUMPDEST PUSH1 0x1 ISZERO ISZERO PUSH1 0x3 DUP4 DUP2 SLOAD DUP2 LT PUSH2 0x17BB JUMPI PUSH32 0x4E487B7100000000000000000000000000000000000000000000000000000000 PUSH1 0x0 MSTORE PUSH1 0x32 PUSH1 0x4 MSTORE PUSH1 0x24 PUSH1 0x0 REVERT JUMPDEST SWAP1 PUSH1 0x0 MSTORE PUSH1 0x20 PUSH1 0x0 KECCAK256 SWAP1 PUSH1 0x4 MUL ADD PUSH1 0x3 ADD PUSH1 0x0 SWAP1 SLOAD SWAP1 PUSH2 0x100 EXP SWAP1 DIV PUSH1 0xFF AND ISZERO ISZERO EQ PUSH2 0x181C JUMPI PUSH1 0x40 MLOAD PUSH32 0x8C379A000000000000000000000000000000000000000000000000000000000 DUP2 MSTORE PUSH1 0x4 ADD PUSH2 0x1813 SWAP1 PUSH2 0x2031 JUMP JUMPDEST PUSH1 0x40 MLOAD DUP1 SWAP2 SUB SWAP1 REVERT JUMPDEST PUSH1 0x0 PUSH1 0x3 DUP4 DUP2 SLOAD DUP2 LT PUSH2 0x1858 JUMPI PUSH32 0x4E487B7100000000000000000000000000000000000000000000000000000000 PUSH1 0x0 MSTORE PUSH1 0x32 PUSH1 0x4 MSTORE PUSH1 0x24 PUSH1 0x0 REVERT JUMPDEST SWAP1 PUSH1 0x0 MSTORE PUSH1 0x20 PUSH1 0x0 KECCAK256 SWAP1 PUSH1 0x4 MUL ADD PUSH1 0x3 ADD PUSH1 0x0 PUSH2 0x100 EXP DUP2 SLOAD DUP2 PUSH1 0xFF MUL NOT AND SWAP1 DUP4 ISZERO ISZERO MUL OR SWAP1 SSTORE POP PUSH1 0x4 PUSH1 0x0 DUP2 SLOAD DUP1 SWAP3 SWAP2 SWAP1 PUSH1 0x1 SWAP1 SUB SWAP2 SWAP1 POP SSTORE POP POP POP JUMP JUMPDEST PUSH1 0x5 SLOAD CALLVALUE EQ PUSH2 0x18DB JUMPI PUSH1 0x40 MLOAD PUSH32 0x8C379A000000000000000000000000000000000000000000000000000000000 DUP2 MSTORE PUSH1 0x4 ADD PUSH2 0x18D2 SWAP1 PUSH2 0x20F1 JUMP JUMPDEST PUSH1 0x40 MLOAD DUP1 SWAP2 SUB SWAP1 REVERT JUMPDEST DUP1 CALLER PUSH20 0xFFFFFFFFFFFFFFFFFFFFFFFFFFFFFFFFFFFFFFFF AND PUSH1 0x8 PUSH1 0x0 DUP4 DUP2 MSTORE PUSH1 0x20 ADD SWAP1 DUP2 MSTORE PUSH1 0x20 ADD PUSH1 0x0 KECCAK256 PUSH1 0x0 SWAP1 SLOAD SWAP1 PUSH2 0x100 EXP SWAP1 DIV PUSH20 0xFFFFFFFFFFFFFFFFFFFFFFFFFFFFFFFFFFFFFFFF AND PUSH20 0xFFFFFFFFFFFFFFFFFFFFFFFFFFFFFFFFFFFFFFFF AND EQ PUSH2 0x197D JUMPI PUSH1 0x40 MLOAD PUSH32 0x8C379A000000000000000000000000000000000000000000000000000000000 DUP2 MSTORE PUSH1 0x4 ADD PUSH2 0x1974 SWAP1 PUSH2 0x20B1 JUMP JUMPDEST PUSH1 0x40 MLOAD DUP1 SWAP2 SUB SWAP1 REVERT JUMPDEST PUSH1 0x0 PUSH20 0xFFFFFFFFFFFFFFFFFFFFFFFFFFFFFFFFFFFFFFFF AND PUSH1 0x8 PUSH1 0x0 DUP5 DUP2 MSTORE PUSH1 0x20 ADD SWAP1 DUP2 MSTORE PUSH1 0x20 ADD PUSH1 0x0 KECCAK256 PUSH1 0x0 SWAP1 SLOAD SWAP1 PUSH2 0x100 EXP SWAP1 DIV PUSH20 0xFFFFFFFFFFFFFFFFFFFFFFFFFFFFFFFFFFFFFFFF AND PUSH20 0xFFFFFFFFFFFFFFFFFFFFFFFFFFFFFFFFFFFFFFFF AND EQ ISZERO PUSH2 0x1A20 JUMPI PUSH1 0x40 MLOAD PUSH32 0x8C379A000000000000000000000000000000000000000000000000000000000 DUP2 MSTORE PUSH1 0x4 ADD PUSH2 0x1A17 SWAP1 PUSH2 0x2091 JUMP JUMPDEST PUSH1 0x40 MLOAD DUP1 SWAP2 SUB SWAP1 REVERT JUMPDEST PUSH1 0x0 ISZERO ISZERO PUSH1 0x3 DUP4 DUP2 SLOAD DUP2 LT PUSH2 0x1A5E JUMPI PUSH32 0x4E487B7100000000000000000000000000000000000000000000000000000000 PUSH1 0x0 MSTORE PUSH1 0x32 PUSH1 0x4 MSTORE PUSH1 0x24 PUSH1 0x0 REVERT JUMPDEST SWAP1 PUSH1 0x0 MSTORE PUSH1 0x20 PUSH1 0x0 KECCAK256 SWAP1 PUSH1 0x4 MUL ADD PUSH1 0x3 ADD PUSH1 0x0 SWAP1 SLOAD SWAP1 PUSH2 0x100 EXP SWAP1 DIV PUSH1 0xFF AND ISZERO ISZERO EQ PUSH2 0x1ABF JUMPI PUSH1 0x40 MLOAD PUSH32 0x8C379A000000000000000000000000000000000000000000000000000000000 DUP2 MSTORE PUSH1 0x4 ADD PUSH2 0x1AB6 SWAP1 PUSH2 0x20D1 JUMP JUMPDEST PUSH1 0x40 MLOAD DUP1 SWAP2 SUB SWAP1 REVERT JUMPDEST PUSH1 0x1 PUSH1 0x3 DUP4 DUP2 SLOAD DUP2 LT PUSH2 0x1AFB JUMPI PUSH32 0x4E487B7100000000000000000000000000000000000000000000000000000000 PUSH1 0x0 MSTORE PUSH1 0x32 PUSH1 0x4 MSTORE PUSH1 0x24 PUSH1 0x0 REVERT JUMPDEST SWAP1 PUSH1 0x0 MSTORE PUSH1 0x20 PUSH1 0x0 KECCAK256 SWAP1 PUSH1 0x4 MUL ADD PUSH1 0x3 ADD PUSH1 0x0 PUSH2 0x100 EXP DUP2 SLOAD DUP2 PUSH1 0xFF MUL NOT AND SWAP1 DUP4 ISZERO ISZERO MUL OR SWAP1 SSTORE POP PUSH1 0x4 PUSH1 0x0 DUP2 SLOAD DUP1 SWAP3 SWAP2 SWAP1 PUSH1 0x1 ADD SWAP2 SWAP1 POP SSTORE POP PUSH1 0x2 PUSH1 0x0 SWAP1 SLOAD SWAP1 PUSH2 0x100 EXP SWAP1 DIV PUSH20 0xFFFFFFFFFFFFFFFFFFFFFFFFFFFFFFFFFFFFFFFF AND PUSH20 0xFFFFFFFFFFFFFFFFFFFFFFFFFFFFFFFFFFFFFFFF AND PUSH2 0x8FC CALLVALUE SWAP1 DUP2 ISZERO MUL SWAP1 PUSH1 0x40 MLOAD PUSH1 0x0 PUSH1 0x40 MLOAD DUP1 DUP4 SUB DUP2 DUP6 DUP9 DUP9 CALL SWAP4 POP POP POP POP ISZERO DUP1 ISZERO PUSH2 0x1B9D JUMPI RETURNDATASIZE PUSH1 0x0 DUP1 RETURNDATACOPY RETURNDATASIZE PUSH1 0x0 REVERT JUMPDEST POP POP POP JUMP JUMPDEST PUSH1 0x2 PUSH1 0x0 SWAP1 SLOAD SWAP1 PUSH2 0x100 EXP SWAP1 DIV PUSH20 0xFFFFFFFFFFFFFFFFFFFFFFFFFFFFFFFFFFFFFFFF AND PUSH20 0xFFFFFFFFFFFFFFFFFFFFFFFFFFFFFFFFFFFFFFFF AND CALLER PUSH20 0xFFFFFFFFFFFFFFFFFFFFFFFFFFFFFFFFFFFFFFFF AND EQ PUSH2 0x1C32 JUMPI PUSH1 0x40 MLOAD PUSH32 0x8C379A000000000000000000000000000000000000000000000000000000000 DUP2 MSTORE PUSH1 0x4 ADD PUSH2 0x1C29 SWAP1 PUSH2 0x2111 JUMP JUMPDEST PUSH1 0x40 MLOAD DUP1 SWAP2 SUB SWAP1 REVERT JUMPDEST DUP1 PUSH1 0x5 DUP2 SWAP1 SSTORE POP POP JUMP JUMPDEST PUSH1 0x0 DUP1 PUSH1 0x0 PUSH1 0x64 DUP6 DUP6 PUSH2 0x1C4F SWAP2 SWAP1 PUSH2 0x21E7 JUMP JUMPDEST PUSH2 0x1C59 SWAP2 SWAP1 PUSH2 0x21B6 JUMP JUMPDEST SWAP1 POP PUSH1 0x0 DUP2 DUP7 PUSH2 0x1C69 SWAP2 SWAP1 PUSH2 0x2241 JUMP JUMPDEST SWAP1 POP DUP2 DUP2 SWAP4 POP SWAP4 POP POP POP SWAP3 POP SWAP3 SWAP1 POP JUMP JUMPDEST PUSH1 0x40 MLOAD DUP1 PUSH1 0x80 ADD PUSH1 0x40 MSTORE DUP1 PUSH1 0x0 DUP2 MSTORE PUSH1 0x20 ADD PUSH1 0x0 DUP2 MSTORE PUSH1 0x20 ADD PUSH1 0x0 DUP2 MSTORE PUSH1 0x20 ADD PUSH1 0x0 ISZERO ISZERO DUP2 MSTORE POP SWAP1 JUMP JUMPDEST PUSH1 0x0 DUP2 CALLDATALOAD SWAP1 POP PUSH2 0x1CB3 DUP2 PUSH2 0x2596 JUMP JUMPDEST SWAP3 SWAP2 POP POP JUMP JUMPDEST PUSH1 0x0 DUP2 CALLDATALOAD SWAP1 POP PUSH2 0x1CC8 DUP2 PUSH2 0x25AD JUMP JUMPDEST SWAP3 SWAP2 POP POP JUMP JUMPDEST PUSH1 0x0 PUSH1 0x20 DUP3 DUP5 SUB SLT ISZERO PUSH2 0x1CE0 JUMPI PUSH1 0x0 DUP1 REVERT JUMPDEST PUSH1 0x0 PUSH2 0x1CEE DUP5 DUP3 DUP6 ADD PUSH2 0x1CA4 JUMP JUMPDEST SWAP2 POP POP SWAP3 SWAP2 POP POP JUMP JUMPDEST PUSH1 0x0 PUSH1 0x20 DUP3 DUP5 SUB SLT ISZERO PUSH2 0x1D09 JUMPI PUSH1 0x0 DUP1 REVERT JUMPDEST PUSH1 0x0 PUSH2 0x1D17 DUP5 DUP3 DUP6 ADD PUSH2 0x1CB9 JUMP JUMPDEST SWAP2 POP POP SWAP3 SWAP2 POP POP JUMP JUMPDEST PUSH1 0x0 DUP1 PUSH1 0x0 PUSH1 0x60 DUP5 DUP7 SUB SLT ISZERO PUSH2 0x1D35 JUMPI PUSH1 0x0 DUP1 REVERT JUMPDEST PUSH1 0x0 PUSH2 0x1D43 DUP7 DUP3 DUP8 ADD PUSH2 0x1CB9 JUMP JUMPDEST SWAP4 POP POP PUSH1 0x20 PUSH2 0x1D54 DUP7 DUP3 DUP8 ADD PUSH2 0x1CB9 JUMP JUMPDEST SWAP3 POP POP PUSH1 0x40 PUSH2 0x1D65 DUP7 DUP3 DUP8 ADD PUSH2 0x1CB9 JUMP JUMPDEST SWAP2 POP POP SWAP3 POP SWAP3 POP SWAP3 JUMP JUMPDEST PUSH1 0x0 PUSH2 0x1D7B DUP4 DUP4 PUSH2 0x1F61 JUMP JUMPDEST PUSH1 0x80 DUP4 ADD SWAP1 POP SWAP3 SWAP2 POP POP JUMP JUMPDEST PUSH2 0x1D90 DUP2 PUSH2 0x2275 JUMP JUMPDEST DUP3 MSTORE POP POP JUMP JUMPDEST PUSH1 0x0 PUSH2 0x1DA1 DUP3 PUSH2 0x217C JUMP JUMPDEST PUSH2 0x1DAB DUP2 DUP6 PUSH2 0x2194 JUMP JUMPDEST SWAP4 POP PUSH2 0x1DB6 DUP4 PUSH2 0x216C JUMP JUMPDEST DUP1 PUSH1 0x0 JUMPDEST DUP4 DUP2 LT ISZERO PUSH2 0x1DE7 JUMPI DUP2 MLOAD PUSH2 0x1DCE DUP9 DUP3 PUSH2 0x1D6F JUMP JUMPDEST SWAP8 POP PUSH2 0x1DD9 DUP4 PUSH2 0x2187 JUMP JUMPDEST SWAP3 POP POP PUSH1 0x1 DUP2 ADD SWAP1 POP PUSH2 0x1DBA JUMP JUMPDEST POP DUP6 SWAP4 POP POP POP POP SWAP3 SWAP2 POP POP JUMP JUMPDEST PUSH2 0x1DFD DUP2 PUSH2 0x2287 JUMP JUMPDEST DUP3 MSTORE POP POP JUMP JUMPDEST PUSH1 0x0 PUSH2 0x1E10 PUSH1 0x29 DUP4 PUSH2 0x21A5 JUMP JUMPDEST SWAP2 POP PUSH2 0x1E1B DUP3 PUSH2 0x2364 JUMP JUMPDEST PUSH1 0x40 DUP3 ADD SWAP1 POP SWAP2 SWAP1 POP JUMP JUMPDEST PUSH1 0x0 PUSH2 0x1E33 PUSH1 0x13 DUP4 PUSH2 0x21A5 JUMP JUMPDEST SWAP2 POP PUSH2 0x1E3E DUP3 PUSH2 0x23B3 JUMP JUMPDEST PUSH1 0x20 DUP3 ADD SWAP1 POP SWAP2 SWAP1 POP JUMP JUMPDEST PUSH1 0x0 PUSH2 0x1E56 PUSH1 0x13 DUP4 PUSH2 0x21A5 JUMP JUMPDEST SWAP2 POP PUSH2 0x1E61 DUP3 PUSH2 0x23DC JUMP JUMPDEST PUSH1 0x20 DUP3 ADD SWAP1 POP SWAP2 SWAP1 POP JUMP JUMPDEST PUSH1 0x0 PUSH2 0x1E79 PUSH1 0x35 DUP4 PUSH2 0x21A5 JUMP JUMPDEST SWAP2 POP PUSH2 0x1E84 DUP3 PUSH2 0x2405 JUMP JUMPDEST PUSH1 0x40 DUP3 ADD SWAP1 POP SWAP2 SWAP1 POP JUMP JUMPDEST PUSH1 0x0 PUSH2 0x1E9C PUSH1 0x13 DUP4 PUSH2 0x21A5 JUMP JUMPDEST SWAP2 POP PUSH2 0x1EA7 DUP3 PUSH2 0x2454 JUMP JUMPDEST PUSH1 0x20 DUP3 ADD SWAP1 POP SWAP2 SWAP1 POP JUMP JUMPDEST PUSH1 0x0 PUSH2 0x1EBF PUSH1 0x1D DUP4 PUSH2 0x21A5 JUMP JUMPDEST SWAP2 POP PUSH2 0x1ECA DUP3 PUSH2 0x247D JUMP JUMPDEST PUSH1 0x20 DUP3 ADD SWAP1 POP SWAP2 SWAP1 POP JUMP JUMPDEST PUSH1 0x0 PUSH2 0x1EE2 PUSH1 0x18 DUP4 PUSH2 0x21A5 JUMP JUMPDEST SWAP2 POP PUSH2 0x1EED DUP3 PUSH2 0x24A6 JUMP JUMPDEST PUSH1 0x20 DUP3 ADD SWAP1 POP SWAP2 SWAP1 POP JUMP JUMPDEST PUSH1 0x0 PUSH2 0x1F05 PUSH1 0x21 DUP4 PUSH2 0x21A5 JUMP JUMPDEST SWAP2 POP PUSH2 0x1F10 DUP3 PUSH2 0x24CF JUMP JUMPDEST PUSH1 0x40 DUP3 ADD SWAP1 POP SWAP2 SWAP1 POP JUMP JUMPDEST PUSH1 0x0 PUSH2 0x1F28 PUSH1 0x21 DUP4 PUSH2 0x21A5 JUMP JUMPDEST SWAP2 POP PUSH2 0x1F33 DUP3 PUSH2 0x251E JUMP JUMPDEST PUSH1 0x40 DUP3 ADD SWAP1 POP SWAP2 SWAP1 POP JUMP JUMPDEST PUSH1 0x0 PUSH2 0x1F4B PUSH1 0x1A DUP4 PUSH2 0x21A5 JUMP JUMPDEST SWAP2 POP PUSH2 0x1F56 DUP3 PUSH2 0x256D JUMP JUMPDEST PUSH1 0x20 DUP3 ADD SWAP1 POP SWAP2 SWAP1 POP JUMP JUMPDEST PUSH1 0x80 DUP3 ADD PUSH1 0x0 DUP3 ADD MLOAD PUSH2 0x1F77 PUSH1 0x0 DUP6 ADD DUP3 PUSH2 0x1FB6 JUMP JUMPDEST POP PUSH1 0x20 DUP3 ADD MLOAD PUSH2 0x1F8A PUSH1 0x20 DUP6 ADD DUP3 PUSH2 0x1FB6 JUMP JUMPDEST POP PUSH1 0x40 DUP3 ADD MLOAD PUSH2 0x1F9D PUSH1 0x40 DUP6 ADD DUP3 PUSH2 0x1FB6 JUMP JUMPDEST POP PUSH1 0x60 DUP3 ADD MLOAD PUSH2 0x1FB0 PUSH1 0x60 DUP6 ADD DUP3 PUSH2 0x1DF4 JUMP JUMPDEST POP POP POP POP JUMP JUMPDEST PUSH2 0x1FBF DUP2 PUSH2 0x22B3 JUMP JUMPDEST DUP3 MSTORE POP POP JUMP JUMPDEST PUSH2 0x1FCE DUP2 PUSH2 0x22B3 JUMP JUMPDEST DUP3 MSTORE POP POP JUMP JUMPDEST PUSH1 0x0 PUSH1 0x20 DUP3 ADD SWAP1 POP PUSH2 0x1FE9 PUSH1 0x0 DUP4 ADD DUP5 PUSH2 0x1D87 JUMP JUMPDEST SWAP3 SWAP2 POP POP JUMP JUMPDEST PUSH1 0x0 PUSH1 0x20 DUP3 ADD SWAP1 POP DUP2 DUP2 SUB PUSH1 0x0 DUP4 ADD MSTORE PUSH2 0x2009 DUP2 DUP5 PUSH2 0x1D96 JUMP JUMPDEST SWAP1 POP SWAP3 SWAP2 POP POP JUMP JUMPDEST PUSH1 0x0 PUSH1 0x20 DUP3 ADD SWAP1 POP DUP2 DUP2 SUB PUSH1 0x0 DUP4 ADD MSTORE PUSH2 0x202A DUP2 PUSH2 0x1E03 JUMP JUMPDEST SWAP1 POP SWAP2 SWAP1 POP JUMP JUMPDEST PUSH1 0x0 PUSH1 0x20 DUP3 ADD SWAP1 POP DUP2 DUP2 SUB PUSH1 0x0 DUP4 ADD MSTORE PUSH2 0x204A DUP2 PUSH2 0x1E26 JUMP JUMPDEST SWAP1 POP SWAP2 SWAP1 POP JUMP JUMPDEST PUSH1 0x0 PUSH1 0x20 DUP3 ADD SWAP1 POP DUP2 DUP2 SUB PUSH1 0x0 DUP4 ADD MSTORE PUSH2 0x206A DUP2 PUSH2 0x1E49 JUMP JUMPDEST SWAP1 POP SWAP2 SWAP1 POP JUMP JUMPDEST PUSH1 0x0 PUSH1 0x20 DUP3 ADD SWAP1 POP DUP2 DUP2 SUB PUSH1 0x0 DUP4 ADD MSTORE PUSH2 0x208A DUP2 PUSH2 0x1E6C JUMP JUMPDEST SWAP1 POP SWAP2 SWAP1 POP JUMP JUMPDEST PUSH1 0x0 PUSH1 0x20 DUP3 ADD SWAP1 POP DUP2 DUP2 SUB PUSH1 0x0 DUP4 ADD MSTORE PUSH2 0x20AA DUP2 PUSH2 0x1E8F JUMP JUMPDEST SWAP1 POP SWAP2 SWAP1 POP JUMP JUMPDEST PUSH1 0x0 PUSH1 0x20 DUP3 ADD SWAP1 POP DUP2 DUP2 SUB PUSH1 0x0 DUP4 ADD MSTORE PUSH2 0x20CA DUP2 PUSH2 0x1EB2 JUMP JUMPDEST SWAP1 POP SWAP2 SWAP1 POP JUMP JUMPDEST PUSH1 0x0 PUSH1 0x20 DUP3 ADD SWAP1 POP DUP2 DUP2 SUB PUSH1 0x0 DUP4 ADD MSTORE PUSH2 0x20EA DUP2 PUSH2 0x1ED5 JUMP JUMPDEST SWAP1 POP SWAP2 SWAP1 POP JUMP JUMPDEST PUSH1 0x0 PUSH1 0x20 DUP3 ADD SWAP1 POP DUP2 DUP2 SUB PUSH1 0x0 DUP4 ADD MSTORE PUSH2 0x210A DUP2 PUSH2 0x1EF8 JUMP JUMPDEST SWAP1 POP SWAP2 SWAP1 POP JUMP JUMPDEST PUSH1 0x0 PUSH1 0x20 DUP3 ADD SWAP1 POP DUP2 DUP2 SUB PUSH1 0x0 DUP4 ADD MSTORE PUSH2 0x212A DUP2 PUSH2 0x1F1B JUMP JUMPDEST SWAP1 POP SWAP2 SWAP1 POP JUMP JUMPDEST PUSH1 0x0 PUSH1 0x20 DUP3 ADD SWAP1 POP DUP2 DUP2 SUB PUSH1 0x0 DUP4 ADD MSTORE PUSH2 0x214A DUP2 PUSH2 0x1F3E JUMP JUMPDEST SWAP1 POP SWAP2 SWAP1 POP JUMP JUMPDEST PUSH1 0x0 PUSH1 0x20 DUP3 ADD SWAP1 POP PUSH2 0x2166 PUSH1 0x0 DUP4 ADD DUP5 PUSH2 0x1FC5 JUMP JUMPDEST SWAP3 SWAP2 POP POP JUMP JUMPDEST PUSH1 0x0 DUP2 SWAP1 POP PUSH1 0x20 DUP3 ADD SWAP1 POP SWAP2 SWAP1 POP JUMP JUMPDEST PUSH1 0x0 DUP2 MLOAD SWAP1 POP SWAP2 SWAP1 POP JUMP JUMPDEST PUSH1 0x0 PUSH1 0x20 DUP3 ADD SWAP1 POP SWAP2 SWAP1 POP JUMP JUMPDEST PUSH1 0x0 DUP3 DUP3 MSTORE PUSH1 0x20 DUP3 ADD SWAP1 POP SWAP3 SWAP2 POP POP JUMP JUMPDEST PUSH1 0x0 DUP3 DUP3 MSTORE PUSH1 0x20 DUP3 ADD SWAP1 POP SWAP3 SWAP2 POP POP JUMP JUMPDEST PUSH1 0x0 PUSH2 0x21C1 DUP3 PUSH2 0x22B3 JUMP JUMPDEST SWAP2 POP PUSH2 0x21CC DUP4 PUSH2 0x22B3 JUMP JUMPDEST SWAP3 POP DUP3 PUSH2 0x21DC JUMPI PUSH2 0x21DB PUSH2 0x2335 JUMP JUMPDEST JUMPDEST DUP3 DUP3 DIV SWAP1 POP SWAP3 SWAP2 POP POP JUMP JUMPDEST PUSH1 0x0 PUSH2 0x21F2 DUP3 PUSH2 0x22B3 JUMP JUMPDEST SWAP2 POP PUSH2 0x21FD DUP4 PUSH2 0x22B3 JUMP JUMPDEST SWAP3 POP DUP2 PUSH32 0xFFFFFFFFFFFFFFFFFFFFFFFFFFFFFFFFFFFFFFFFFFFFFFFFFFFFFFFFFFFFFFFF DIV DUP4 GT DUP3 ISZERO ISZERO AND ISZERO PUSH2 0x2236 JUMPI PUSH2 0x2235 PUSH2 0x2306 JUMP JUMPDEST JUMPDEST DUP3 DUP3 MUL SWAP1 POP SWAP3 SWAP2 POP POP JUMP JUMPDEST PUSH1 0x0 PUSH2 0x224C DUP3 PUSH2 0x22B3 JUMP JUMPDEST SWAP2 POP PUSH2 0x2257 DUP4 PUSH2 0x22B3 JUMP JUMPDEST SWAP3 POP DUP3 DUP3 LT ISZERO PUSH2 0x226A JUMPI PUSH2 0x2269 PUSH2 0x2306 JUMP JUMPDEST JUMPDEST DUP3 DUP3 SUB SWAP1 POP SWAP3 SWAP2 POP POP JUMP JUMPDEST PUSH1 0x0 PUSH2 0x2280 DUP3 PUSH2 0x2293 JUMP JUMPDEST SWAP1 POP SWAP2 SWAP1 POP JUMP JUMPDEST PUSH1 0x0 DUP2 ISZERO ISZERO SWAP1 POP SWAP2 SWAP1 POP JUMP JUMPDEST PUSH1 0x0 PUSH20 0xFFFFFFFFFFFFFFFFFFFFFFFFFFFFFFFFFFFFFFFF DUP3 AND SWAP1 POP SWAP2 SWAP1 POP JUMP JUMPDEST PUSH1 0x0 DUP2 SWAP1 POP SWAP2 SWAP1 POP JUMP JUMPDEST PUSH1 0x0 PUSH2 0x22C8 DUP3 PUSH2 0x22B3 JUMP JUMPDEST SWAP2 POP PUSH32 0xFFFFFFFFFFFFFFFFFFFFFFFFFFFFFFFFFFFFFFFFFFFFFFFFFFFFFFFFFFFFFFFF DUP3 EQ ISZERO PUSH2 0x22FB JUMPI PUSH2 0x22FA PUSH2 0x2306 JUMP JUMPDEST JUMPDEST PUSH1 0x1 DUP3 ADD SWAP1 POP SWAP2 SWAP1 POP JUMP JUMPDEST PUSH32 0x4E487B7100000000000000000000000000000000000000000000000000000000 PUSH1 0x0 MSTORE PUSH1 0x11 PUSH1 0x4 MSTORE PUSH1 0x24 PUSH1 0x0 REVERT JUMPDEST PUSH32 0x4E487B7100000000000000000000000000000000000000000000000000000000 PUSH1 0x0 MSTORE PUSH1 0x12 PUSH1 0x4 MSTORE PUSH1 0x24 PUSH1 0x0 REVERT JUMPDEST PUSH32 0x796F752063616E27742062757920616E206974656D20746861742062656C6F6E PUSH1 0x0 DUP3 ADD MSTORE PUSH32 0x677320746F20796F750000000000000000000000000000000000000000000000 PUSH1 0x20 DUP3 ADD MSTORE POP JUMP JUMPDEST PUSH32 0x746F6B656E2069736E277420746F2073656C6C00000000000000000000000000 PUSH1 0x0 DUP3 ADD MSTORE POP JUMP JUMPDEST PUSH32 0x746F6B656E20616C726561647920657869737400000000000000000000000000 PUSH1 0x0 DUP3 ADD MSTORE POP JUMP JUMPDEST PUSH32 0x7472616E73616374696F6E27732076616C75652063616E6E6F74206265206469 PUSH1 0x0 DUP3 ADD MSTORE PUSH32 0x66666572656E74206F66206974656D2070726963650000000000000000000000 PUSH1 0x20 DUP3 ADD MSTORE POP JUMP JUMPDEST PUSH32 0x746F6B656E20646F65736E277420657869737400000000000000000000000000 PUSH1 0x0 DUP3 ADD MSTORE POP JUMP JUMPDEST PUSH32 0x4F6E6C79206974656D2773206F776E65722063616E20646F2074686174000000 PUSH1 0x0 DUP3 ADD MSTORE POP JUMP JUMPDEST PUSH32 0x746F6B656E20697320616C726561647920746F2073656C6C0000000000000000 PUSH1 0x0 DUP3 ADD MSTORE POP JUMP JUMPDEST PUSH32 0x5468616E6B7320746F2073656E6420636F727265637420666565732076616C75 PUSH1 0x0 DUP3 ADD MSTORE PUSH32 0x6500000000000000000000000000000000000000000000000000000000000000 PUSH1 0x20 DUP3 ADD MSTORE POP JUMP JUMPDEST PUSH32 0x4F6E6C7920636F6E74726163742773206F776E65722063616E20646F20746861 PUSH1 0x0 DUP3 ADD MSTORE PUSH32 0x7400000000000000000000000000000000000000000000000000000000000000 PUSH1 0x20 DUP3 ADD MSTORE POP JUMP JUMPDEST PUSH32 0x50726963652063616E6E6F7420626520657175616C20746F2030000000000000 PUSH1 0x0 DUP3 ADD MSTORE POP JUMP JUMPDEST PUSH2 0x259F DUP2 PUSH2 0x2275 JUMP JUMPDEST DUP2 EQ PUSH2 0x25AA JUMPI PUSH1 0x0 DUP1 REVERT JUMPDEST POP JUMP JUMPDEST PUSH2 0x25B6 DUP2 PUSH2 0x22B3 JUMP JUMPDEST DUP2 EQ PUSH2 0x25C1 JUMPI PUSH1 0x0 DUP1 REVERT JUMPDEST POP JUMP INVALID LOG2 PUSH5 0x6970667358 0x22 SLT KECCAK256 LT MUL DUP5 KECCAK256 CALL ADDRESS PUSH24 0xB338C8738353A119E26D2CFEB8CAE93063D92ED5DB1D4FF8 0x2A PUSH5 0x736F6C6343 STOP ADDMOD ADD STOP CALLER "
				},
				"gasEstimates": {
					"creation": {
						"codeDepositCost": "1944400",
						"executionCost": "infinite",
						"totalCost": "infinite"
					},
					"external": {
						"addItemToSell(uint256)": "infinite",
						"balanceOf(address)": "1586",
						"fetchItemsByCreator()": "infinite",
						"fetchItemsByOwner()": "infinite",
						"fetchItemsToSell()": "infinite",
						"fetchItemsToSellByCatId(uint256)": "infinite",
						"getCreateItemFees()": "1159",
						"getCreatorPercentage()": "1205",
						"mint(uint256,uint256,uint256)": "infinite",
						"ownerOf(uint256)": "1654",
						"removeItemToSell(uint256)": "46727",
						"sellItem(uint256)": "infinite",
						"updateCreateItemFees(uint256)": "21378",
						"updateCreatorPercentage(uint256)": "21313"
					},
					"internal": {
						"getFees(uint256,uint256)": "infinite"
					}
				},
				"methodIdentifiers": {
					"addItemToSell(uint256)": "c0f202ef",
					"balanceOf(address)": "70a08231",
					"fetchItemsByCreator()": "67af7d09",
					"fetchItemsByOwner()": "4cad2ffc",
					"fetchItemsToSell()": "073e74df",
					"fetchItemsToSellByCatId(uint256)": "406693b2",
					"getCreateItemFees()": "a411d68d",
					"getCreatorPercentage()": "160035b1",
					"mint(uint256,uint256,uint256)": "02acc94b",
					"ownerOf(uint256)": "6352211e",
					"removeItemToSell(uint256)": "a4964c33",
					"sellItem(uint256)": "91b6be9a",
					"updateCreateItemFees(uint256)": "e6e95ea7",
					"updateCreatorPercentage(uint256)": "1b03427c"
				}
			},
			"storageLayout": {
				"storage": [
					{
						"astId": 11,
						"contract": "contracts/GeekNft.sol:GeekNft",
						"label": "name",
						"offset": 0,
						"slot": "0",
						"type": "t_string_storage"
					},
					{
						"astId": 13,
						"contract": "contracts/GeekNft.sol:GeekNft",
						"label": "symbol",
						"offset": 0,
						"slot": "1",
						"type": "t_string_storage"
					},
					{
						"astId": 15,
						"contract": "contracts/GeekNft.sol:GeekNft",
						"label": "owner",
						"offset": 0,
						"slot": "2",
						"type": "t_address"
					},
					{
						"astId": 28,
						"contract": "contracts/GeekNft.sol:GeekNft",
						"label": "items",
						"offset": 0,
						"slot": "3",
						"type": "t_array(t_struct(Item)24_storage)dyn_storage"
					},
					{
						"astId": 30,
						"contract": "contracts/GeekNft.sol:GeekNft",
						"label": "itemsToSellCount",
						"offset": 0,
						"slot": "4",
						"type": "t_uint256"
					},
					{
						"astId": 33,
						"contract": "contracts/GeekNft.sol:GeekNft",
						"label": "createItemFees",
						"offset": 0,
						"slot": "5",
						"type": "t_uint256"
					},
					{
						"astId": 36,
						"contract": "contracts/GeekNft.sol:GeekNft",
						"label": "creatorPercentage",
						"offset": 0,
						"slot": "6",
						"type": "t_uint256"
					},
					{
						"astId": 40,
						"contract": "contracts/GeekNft.sol:GeekNft",
						"label": "itemsOwnerCount",
						"offset": 0,
						"slot": "7",
						"type": "t_mapping(t_address,t_uint256)"
					},
					{
						"astId": 44,
						"contract": "contracts/GeekNft.sol:GeekNft",
						"label": "itemToOwner",
						"offset": 0,
						"slot": "8",
						"type": "t_mapping(t_uint256,t_address)"
					},
					{
						"astId": 48,
						"contract": "contracts/GeekNft.sol:GeekNft",
						"label": "itemsCreatorCount",
						"offset": 0,
						"slot": "9",
						"type": "t_mapping(t_address,t_uint256)"
					},
					{
						"astId": 52,
						"contract": "contracts/GeekNft.sol:GeekNft",
						"label": "itemToCreator",
						"offset": 0,
						"slot": "10",
						"type": "t_mapping(t_uint256,t_address)"
					},
					{
						"astId": 56,
						"contract": "contracts/GeekNft.sol:GeekNft",
						"label": "itemsCatIdCount",
						"offset": 0,
						"slot": "11",
						"type": "t_mapping(t_uint256,t_uint256)"
					},
					{
						"astId": 60,
						"contract": "contracts/GeekNft.sol:GeekNft",
						"label": "itemToCatId",
						"offset": 0,
						"slot": "12",
						"type": "t_mapping(t_uint256,t_uint256)"
					}
				],
				"types": {
					"t_address": {
						"encoding": "inplace",
						"label": "address",
						"numberOfBytes": "20"
					},
					"t_array(t_struct(Item)24_storage)dyn_storage": {
						"base": "t_struct(Item)24_storage",
						"encoding": "dynamic_array",
						"label": "struct GeekNft.Item[]",
						"numberOfBytes": "32"
					},
					"t_bool": {
						"encoding": "inplace",
						"label": "bool",
						"numberOfBytes": "1"
					},
					"t_mapping(t_address,t_uint256)": {
						"encoding": "mapping",
						"key": "t_address",
						"label": "mapping(address => uint256)",
						"numberOfBytes": "32",
						"value": "t_uint256"
					},
					"t_mapping(t_uint256,t_address)": {
						"encoding": "mapping",
						"key": "t_uint256",
						"label": "mapping(uint256 => address)",
						"numberOfBytes": "32",
						"value": "t_address"
					},
					"t_mapping(t_uint256,t_uint256)": {
						"encoding": "mapping",
						"key": "t_uint256",
						"label": "mapping(uint256 => uint256)",
						"numberOfBytes": "32",
						"value": "t_uint256"
					},
					"t_string_storage": {
						"encoding": "bytes",
						"label": "string",
						"numberOfBytes": "32"
					},
					"t_struct(Item)24_storage": {
						"encoding": "inplace",
						"label": "struct GeekNft.Item",
						"members": [
							{
								"astId": 17,
								"contract": "contracts/GeekNft.sol:GeekNft",
								"label": "dataId",
								"offset": 0,
								"slot": "0",
								"type": "t_uint256"
							},
							{
								"astId": 19,
								"contract": "contracts/GeekNft.sol:GeekNft",
								"label": "tokenId",
								"offset": 0,
								"slot": "1",
								"type": "t_uint256"
							},
							{
								"astId": 21,
								"contract": "contracts/GeekNft.sol:GeekNft",
								"label": "price",
								"offset": 0,
								"slot": "2",
								"type": "t_uint256"
							},
							{
								"astId": 23,
								"contract": "contracts/GeekNft.sol:GeekNft",
								"label": "toSell",
								"offset": 0,
								"slot": "3",
								"type": "t_bool"
							}
						],
						"numberOfBytes": "128"
					},
					"t_uint256": {
						"encoding": "inplace",
						"label": "uint256",
						"numberOfBytes": "32"
					}
				}
			},
			"userdoc": {
				"kind": "user",
				"methods": {},
				"version": 1
			}
		}
	}
}