{
	"contracts/GeekNft.sol": {
		"GeekNft": {
			"abi": [
				{
					"inputs": [],
					"stateMutability": "nonpayable",
					"type": "constructor"
				},
				{
					"anonymous": false,
					"inputs": [
						{
							"indexed": true,
							"internalType": "address",
							"name": "_from",
							"type": "address"
						},
						{
							"indexed": true,
							"internalType": "address",
							"name": "_to",
							"type": "address"
						},
						{
							"indexed": false,
							"internalType": "uint256",
							"name": "_tokenId",
							"type": "uint256"
						}
					],
					"name": "Transfer",
					"type": "event"
				},
				{
					"inputs": [
						{
							"internalType": "uint256",
							"name": "_tokenId",
							"type": "uint256"
						}
					],
					"name": "addItemToSell",
					"outputs": [],
					"stateMutability": "nonpayable",
					"type": "function"
				},
				{
					"inputs": [
						{
							"internalType": "address",
							"name": "_owner",
							"type": "address"
						}
					],
					"name": "balanceOf",
					"outputs": [
						{
							"internalType": "uint256",
							"name": "",
							"type": "uint256"
						}
					],
					"stateMutability": "view",
					"type": "function"
				},
				{
					"inputs": [
						{
							"internalType": "uint256",
							"name": "_price",
							"type": "uint256"
						},
						{
							"internalType": "uint256",
							"name": "_catId",
							"type": "uint256"
						}
					],
					"name": "createItem",
					"outputs": [
						{
							"internalType": "uint256",
							"name": "",
							"type": "uint256"
						}
					],
					"stateMutability": "nonpayable",
					"type": "function"
				},
				{
					"inputs": [
						{
							"internalType": "uint256",
							"name": "_catId",
							"type": "uint256"
						}
					],
					"name": "fetchItemsByCatId",
					"outputs": [
						{
							"components": [
								{
									"internalType": "uint256",
									"name": "tokenId",
									"type": "uint256"
								},
								{
									"internalType": "uint256",
									"name": "price",
									"type": "uint256"
								},
								{
									"internalType": "uint256",
									"name": "catId",
									"type": "uint256"
								},
								{
									"internalType": "bool",
									"name": "toSell",
									"type": "bool"
								}
							],
							"internalType": "struct GeekNft.Item[]",
							"name": "",
							"type": "tuple[]"
						}
					],
					"stateMutability": "view",
					"type": "function"
				},
				{
					"inputs": [],
					"name": "fetchItemsByOwner",
					"outputs": [
						{
							"components": [
								{
									"internalType": "uint256",
									"name": "tokenId",
									"type": "uint256"
								},
								{
									"internalType": "uint256",
									"name": "price",
									"type": "uint256"
								},
								{
									"internalType": "uint256",
									"name": "catId",
									"type": "uint256"
								},
								{
									"internalType": "bool",
									"name": "toSell",
									"type": "bool"
								}
							],
							"internalType": "struct GeekNft.Item[]",
							"name": "",
							"type": "tuple[]"
						}
					],
					"stateMutability": "view",
					"type": "function"
				},
				{
					"inputs": [],
					"name": "fetchItemsToSell",
					"outputs": [
						{
							"components": [
								{
									"internalType": "uint256",
									"name": "tokenId",
									"type": "uint256"
								},
								{
									"internalType": "uint256",
									"name": "price",
									"type": "uint256"
								},
								{
									"internalType": "uint256",
									"name": "catId",
									"type": "uint256"
								},
								{
									"internalType": "bool",
									"name": "toSell",
									"type": "bool"
								}
							],
							"internalType": "struct GeekNft.Item[]",
							"name": "",
							"type": "tuple[]"
						}
					],
					"stateMutability": "view",
					"type": "function"
				},
				{
					"inputs": [],
					"name": "getFeesPercentage",
					"outputs": [
						{
							"internalType": "uint256",
							"name": "",
							"type": "uint256"
						}
					],
					"stateMutability": "view",
					"type": "function"
				},
				{
					"inputs": [
						{
							"internalType": "uint256",
							"name": "_newPercentage",
							"type": "uint256"
						}
					],
					"name": "modifyFeesPercentage",
					"outputs": [],
					"stateMutability": "nonpayable",
					"type": "function"
				},
				{
					"inputs": [
						{
							"internalType": "uint256",
							"name": "_tokenId",
							"type": "uint256"
						}
					],
					"name": "ownerOf",
					"outputs": [
						{
							"internalType": "address",
							"name": "",
							"type": "address"
						}
					],
					"stateMutability": "view",
					"type": "function"
				},
				{
					"inputs": [
						{
							"internalType": "uint256",
							"name": "_tokenId",
							"type": "uint256"
						}
					],
					"name": "removeItemToSell",
					"outputs": [],
					"stateMutability": "nonpayable",
					"type": "function"
				},
				{
					"inputs": [
						{
							"internalType": "uint256",
							"name": "_tokenId",
							"type": "uint256"
						}
					],
					"name": "sellItem",
					"outputs": [],
					"stateMutability": "payable",
					"type": "function"
				}
			],
			"devdoc": {
				"kind": "dev",
				"methods": {},
				"version": 1
			},
			"evm": {
				"assembly": "    /* \"contracts/GeekNft.sol\":56:4941  contract GeekNft {... */\n  mstore(0x40, 0x80)\n    /* \"contracts/GeekNft.sol\":523:628  constructor() {... */\n  callvalue\n  dup1\n  iszero\n  tag_1\n  jumpi\n  0x00\n  dup1\n  revert\ntag_1:\n  pop\n    /* \"contracts/GeekNft.sol\":555:565  msg.sender */\n  caller\n    /* \"contracts/GeekNft.sol\":547:552  owner */\n  0x02\n  0x00\n    /* \"contracts/GeekNft.sol\":547:565  owner = msg.sender */\n  0x0100\n  exp\n  dup2\n  sload\n  dup2\n  0xffffffffffffffffffffffffffffffffffffffff\n  mul\n  not\n  and\n  swap1\n  dup4\n  0xffffffffffffffffffffffffffffffffffffffff\n  and\n  mul\n  or\n  swap1\n  sstore\n  pop\n    /* \"contracts/GeekNft.sol\":575:595  name = \"Geek Tokens\" */\n  mload(0x40)\n  dup1\n  0x40\n  add\n  0x40\n  mstore\n  dup1\n  0x0b\n  dup2\n  mstore\n  0x20\n  add\n  0x4765656b20546f6b656e73000000000000000000000000000000000000000000\n  dup2\n  mstore\n  pop\n    /* \"contracts/GeekNft.sol\":575:579  name */\n  0x00\n    /* \"contracts/GeekNft.sol\":575:595  name = \"Geek Tokens\" */\n  swap1\n  dup1\n  mload\n  swap1\n  0x20\n  add\n  swap1\n  tag_4\n  swap3\n  swap2\n  swap1\n  tag_5\n  jump\t// in\ntag_4:\n  pop\n    /* \"contracts/GeekNft.sol\":605:621  symbol = \"GEEKT\" */\n  mload(0x40)\n  dup1\n  0x40\n  add\n  0x40\n  mstore\n  dup1\n  0x05\n  dup2\n  mstore\n  0x20\n  add\n  0x4745454b54000000000000000000000000000000000000000000000000000000\n  dup2\n  mstore\n  pop\n    /* \"contracts/GeekNft.sol\":605:611  symbol */\n  0x01\n    /* \"contracts/GeekNft.sol\":605:621  symbol = \"GEEKT\" */\n  swap1\n  dup1\n  mload\n  swap1\n  0x20\n  add\n  swap1\n  tag_6\n  swap3\n  swap2\n  swap1\n  tag_5\n  jump\t// in\ntag_6:\n  pop\n    /* \"contracts/GeekNft.sol\":56:4941  contract GeekNft {... */\n  jump(tag_7)\ntag_5:\n  dup3\n  dup1\n  sload\n  tag_8\n  swap1\n  tag_9\n  jump\t// in\ntag_8:\n  swap1\n  0x00\n  mstore\n  keccak256(0x00, 0x20)\n  swap1\n  0x1f\n  add\n  0x20\n  swap1\n  div\n  dup2\n  add\n  swap3\n  dup3\n  tag_11\n  jumpi\n  0x00\n  dup6\n  sstore\n  jump(tag_10)\ntag_11:\n  dup3\n  0x1f\n  lt\n  tag_12\n  jumpi\n  dup1\n  mload\n  not(0xff)\n  and\n  dup4\n  dup1\n  add\n  or\n  dup6\n  sstore\n  jump(tag_10)\ntag_12:\n  dup3\n  dup1\n  add\n  0x01\n  add\n  dup6\n  sstore\n  dup3\n  iszero\n  tag_10\n  jumpi\n  swap2\n  dup3\n  add\ntag_13:\n  dup3\n  dup2\n  gt\n  iszero\n  tag_14\n  jumpi\n  dup3\n  mload\n  dup3\n  sstore\n  swap2\n  0x20\n  add\n  swap2\n  swap1\n  0x01\n  add\n  swap1\n  jump(tag_13)\ntag_14:\ntag_10:\n  pop\n  swap1\n  pop\n  tag_15\n  swap2\n  swap1\n  tag_16\n  jump\t// in\ntag_15:\n  pop\n  swap1\n  jump\t// out\ntag_16:\ntag_17:\n  dup1\n  dup3\n  gt\n  iszero\n  tag_18\n  jumpi\n  0x00\n  dup2\n  0x00\n  swap1\n  sstore\n  pop\n  0x01\n  add\n  jump(tag_17)\ntag_18:\n  pop\n  swap1\n  jump\t// out\n    /* \"#utility.yul\":7:327   */\ntag_9:\n  0x00\n    /* \"#utility.yul\":88:89   */\n  0x02\n    /* \"#utility.yul\":82:86   */\n  dup3\n    /* \"#utility.yul\":78:90   */\n  div\n    /* \"#utility.yul\":68:90   */\n  swap1\n  pop\n    /* \"#utility.yul\":135:136   */\n  0x01\n    /* \"#utility.yul\":129:133   */\n  dup3\n    /* \"#utility.yul\":125:137   */\n  and\n    /* \"#utility.yul\":156:174   */\n  dup1\n    /* \"#utility.yul\":146:148   */\n  tag_21\n  jumpi\n    /* \"#utility.yul\":212:216   */\n  0x7f\n    /* \"#utility.yul\":204:210   */\n  dup3\n    /* \"#utility.yul\":200:217   */\n  and\n    /* \"#utility.yul\":190:217   */\n  swap2\n  pop\n    /* \"#utility.yul\":146:148   */\ntag_21:\n    /* \"#utility.yul\":274:276   */\n  0x20\n    /* \"#utility.yul\":266:272   */\n  dup3\n    /* \"#utility.yul\":263:277   */\n  lt\n    /* \"#utility.yul\":243:261   */\n  dup2\n    /* \"#utility.yul\":240:278   */\n  eq\n    /* \"#utility.yul\":237:239   */\n  iszero\n  tag_22\n  jumpi\n    /* \"#utility.yul\":293:311   */\n  tag_23\n  tag_24\n  jump\t// in\ntag_23:\n    /* \"#utility.yul\":237:239   */\ntag_22:\n    /* \"#utility.yul\":58:327   */\n  pop\n  swap2\n  swap1\n  pop\n  jump\t// out\n    /* \"#utility.yul\":333:513   */\ntag_24:\n    /* \"#utility.yul\":381:458   */\n  0x4e487b7100000000000000000000000000000000000000000000000000000000\n    /* \"#utility.yul\":378:379   */\n  0x00\n    /* \"#utility.yul\":371:459   */\n  mstore\n    /* \"#utility.yul\":478:482   */\n  0x22\n    /* \"#utility.yul\":475:476   */\n  0x04\n    /* \"#utility.yul\":468:483   */\n  mstore\n    /* \"#utility.yul\":502:506   */\n  0x24\n    /* \"#utility.yul\":499:500   */\n  0x00\n    /* \"#utility.yul\":492:507   */\n  revert\n    /* \"contracts/GeekNft.sol\":56:4941  contract GeekNft {... */\ntag_7:\n  dataSize(sub_0)\n  dup1\n  dataOffset(sub_0)\n  0x00\n  codecopy\n  0x00\n  return\nstop\n\nsub_0: assembly {\n        /* \"contracts/GeekNft.sol\":56:4941  contract GeekNft {... */\n      mstore(0x40, 0x80)\n      jumpi(tag_1, lt(calldatasize, 0x04))\n      shr(0xe0, calldataload(0x00))\n      dup1\n      0x70a08231\n      gt\n      tag_13\n      jumpi\n      dup1\n      0x70a08231\n      eq\n      tag_7\n      jumpi\n      dup1\n      0x91b6be9a\n      eq\n      tag_8\n      jumpi\n      dup1\n      0xa4964c33\n      eq\n      tag_9\n      jumpi\n      dup1\n      0xadae08dd\n      eq\n      tag_10\n      jumpi\n      dup1\n      0xc0f202ef\n      eq\n      tag_11\n      jumpi\n      dup1\n      0xea0ff14a\n      eq\n      tag_12\n      jumpi\n      jump(tag_1)\n    tag_13:\n      dup1\n      0x073e74df\n      eq\n      tag_2\n      jumpi\n      dup1\n      0x2165e65a\n      eq\n      tag_3\n      jumpi\n      dup1\n      0x29de6246\n      eq\n      tag_4\n      jumpi\n      dup1\n      0x4cad2ffc\n      eq\n      tag_5\n      jumpi\n      dup1\n      0x6352211e\n      eq\n      tag_6\n      jumpi\n    tag_1:\n      0x00\n      dup1\n      revert\n        /* \"contracts/GeekNft.sol\":3495:3862  function fetchItemsToSell() public view returns (Item[] memory){... */\n    tag_2:\n      callvalue\n      dup1\n      iszero\n      tag_14\n      jumpi\n      0x00\n      dup1\n      revert\n    tag_14:\n      pop\n      tag_15\n      tag_16\n      jump\t// in\n    tag_15:\n      mload(0x40)\n      tag_17\n      swap2\n      swap1\n      tag_18\n      jump\t// in\n    tag_17:\n      mload(0x40)\n      dup1\n      swap2\n      sub\n      swap1\n      return\n        /* \"contracts/GeekNft.sol\":4258:4645  function fetchItemsByCatId(uint _catId) public view returns (Item[] memory){... */\n    tag_3:\n      callvalue\n      dup1\n      iszero\n      tag_19\n      jumpi\n      0x00\n      dup1\n      revert\n    tag_19:\n      pop\n      tag_20\n      0x04\n      dup1\n      calldatasize\n      sub\n      dup2\n      add\n      swap1\n      tag_21\n      swap2\n      swap1\n      tag_22\n      jump\t// in\n    tag_21:\n      tag_23\n      jump\t// in\n    tag_20:\n      mload(0x40)\n      tag_24\n      swap2\n      swap1\n      tag_18\n      jump\t// in\n    tag_24:\n      mload(0x40)\n      dup1\n      swap2\n      sub\n      swap1\n      return\n        /* \"contracts/GeekNft.sol\":911:1034  function modifyFeesPercentage(uint _newPercentage) public onlyContractOwner{... */\n    tag_4:\n      callvalue\n      dup1\n      iszero\n      tag_25\n      jumpi\n      0x00\n      dup1\n      revert\n    tag_25:\n      pop\n      tag_26\n      0x04\n      dup1\n      calldatasize\n      sub\n      dup2\n      add\n      swap1\n      tag_27\n      swap2\n      swap1\n      tag_22\n      jump\t// in\n    tag_27:\n      tag_28\n      jump\t// in\n    tag_26:\n      stop\n        /* \"contracts/GeekNft.sol\":3868:4252  function fetchItemsByOwner() public view returns (Item[] memory){... */\n    tag_5:\n      callvalue\n      dup1\n      iszero\n      tag_29\n      jumpi\n      0x00\n      dup1\n      revert\n    tag_29:\n      pop\n      tag_30\n      tag_31\n      jump\t// in\n    tag_30:\n      mload(0x40)\n      tag_32\n      swap2\n      swap1\n      tag_18\n      jump\t// in\n    tag_32:\n      mload(0x40)\n      dup1\n      swap2\n      sub\n      swap1\n      return\n        /* \"contracts/GeekNft.sol\":2597:2703  function ownerOf(uint _tokenId) public view returns (address){... */\n    tag_6:\n      callvalue\n      dup1\n      iszero\n      tag_33\n      jumpi\n      0x00\n      dup1\n      revert\n    tag_33:\n      pop\n      tag_34\n      0x04\n      dup1\n      calldatasize\n      sub\n      dup2\n      add\n      swap1\n      tag_35\n      swap2\n      swap1\n      tag_22\n      jump\t// in\n    tag_35:\n      tag_36\n      jump\t// in\n    tag_34:\n      mload(0x40)\n      tag_37\n      swap2\n      swap1\n      tag_38\n      jump\t// in\n    tag_37:\n      mload(0x40)\n      dup1\n      swap2\n      sub\n      swap1\n      return\n        /* \"contracts/GeekNft.sol\":2709:2817  function balanceOf(address _owner) public view returns (uint){... */\n    tag_7:\n      callvalue\n      dup1\n      iszero\n      tag_39\n      jumpi\n      0x00\n      dup1\n      revert\n    tag_39:\n      pop\n      tag_40\n      0x04\n      dup1\n      calldatasize\n      sub\n      dup2\n      add\n      swap1\n      tag_41\n      swap2\n      swap1\n      tag_42\n      jump\t// in\n    tag_41:\n      tag_43\n      jump\t// in\n    tag_40:\n      mload(0x40)\n      tag_44\n      swap2\n      swap1\n      tag_45\n      jump\t// in\n    tag_44:\n      mload(0x40)\n      dup1\n      swap2\n      sub\n      swap1\n      return\n        /* \"contracts/GeekNft.sol\":1678:2591  function sellItem(uint _tokenId) public payable{... */\n    tag_8:\n      tag_46\n      0x04\n      dup1\n      calldatasize\n      sub\n      dup2\n      add\n      swap1\n      tag_47\n      swap2\n      swap1\n      tag_22\n      jump\t// in\n    tag_47:\n      tag_48\n      jump\t// in\n    tag_46:\n      stop\n        /* \"contracts/GeekNft.sol\":2823:3152  function removeItemToSell(uint _tokenId) public onlyItemOwner(_tokenId) {... */\n    tag_9:\n      callvalue\n      dup1\n      iszero\n      tag_49\n      jumpi\n      0x00\n      dup1\n      revert\n    tag_49:\n      pop\n      tag_50\n      0x04\n      dup1\n      calldatasize\n      sub\n      dup2\n      add\n      swap1\n      tag_51\n      swap2\n      swap1\n      tag_22\n      jump\t// in\n    tag_51:\n      tag_52\n      jump\t// in\n    tag_50:\n      stop\n        /* \"contracts/GeekNft.sol\":1140:1672  function createItem(uint _price, uint _catId) public returns (uint){... */\n    tag_10:\n      callvalue\n      dup1\n      iszero\n      tag_53\n      jumpi\n      0x00\n      dup1\n      revert\n    tag_53:\n      pop\n      tag_54\n      0x04\n      dup1\n      calldatasize\n      sub\n      dup2\n      add\n      swap1\n      tag_55\n      swap2\n      swap1\n      tag_56\n      jump\t// in\n    tag_55:\n      tag_57\n      jump\t// in\n    tag_54:\n      mload(0x40)\n      tag_58\n      swap2\n      swap1\n      tag_45\n      jump\t// in\n    tag_58:\n      mload(0x40)\n      dup1\n      swap2\n      sub\n      swap1\n      return\n        /* \"contracts/GeekNft.sol\":3158:3489  function addItemToSell(uint _tokenId) public onlyItemOwner(_tokenId) {... */\n    tag_11:\n      callvalue\n      dup1\n      iszero\n      tag_59\n      jumpi\n      0x00\n      dup1\n      revert\n    tag_59:\n      pop\n      tag_60\n      0x04\n      dup1\n      calldatasize\n      sub\n      dup2\n      add\n      swap1\n      tag_61\n      swap2\n      swap1\n      tag_22\n      jump\t// in\n    tag_61:\n      tag_62\n      jump\t// in\n    tag_60:\n      stop\n        /* \"contracts/GeekNft.sol\":1040:1134  function getFeesPercentage() public view returns (uint) {... */\n    tag_12:\n      callvalue\n      dup1\n      iszero\n      tag_63\n      jumpi\n      0x00\n      dup1\n      revert\n    tag_63:\n      pop\n      tag_64\n      tag_65\n      jump\t// in\n    tag_64:\n      mload(0x40)\n      tag_66\n      swap2\n      swap1\n      tag_45\n      jump\t// in\n    tag_66:\n      mload(0x40)\n      dup1\n      swap2\n      sub\n      swap1\n      return\n        /* \"contracts/GeekNft.sol\":3495:3862  function fetchItemsToSell() public view returns (Item[] memory){... */\n    tag_16:\n        /* \"contracts/GeekNft.sol\":3544:3557  Item[] memory */\n      0x60\n        /* \"contracts/GeekNft.sol\":3568:3580  uint counter */\n      0x00\n        /* \"contracts/GeekNft.sol\":3594:3614  Item[] memory result */\n      dup1\n        /* \"contracts/GeekNft.sol\":3628:3644  itemsToSellCount */\n      sload(0x04)\n        /* \"contracts/GeekNft.sol\":3617:3645  new Item[](itemsToSellCount) */\n      0xffffffffffffffff\n      dup2\n      gt\n      iszero\n      tag_68\n      jumpi\n      mstore(0x00, 0x4e487b7100000000000000000000000000000000000000000000000000000000)\n      mstore(0x04, 0x41)\n      revert(0x00, 0x24)\n    tag_68:\n      mload(0x40)\n      swap1\n      dup1\n      dup3\n      mstore\n      dup1\n      0x20\n      mul\n      0x20\n      add\n      dup3\n      add\n      0x40\n      mstore\n      dup1\n      iszero\n      tag_69\n      jumpi\n      dup2\n      0x20\n      add\n    tag_70:\n      tag_71\n      tag_72\n      jump\t// in\n    tag_71:\n      dup2\n      mstore\n      0x20\n      add\n      swap1\n      0x01\n      swap1\n      sub\n      swap1\n      dup2\n      tag_70\n      jumpi\n      swap1\n      pop\n    tag_69:\n      pop\n        /* \"contracts/GeekNft.sol\":3594:3645  Item[] memory result = new Item[](itemsToSellCount) */\n      swap1\n      pop\n        /* \"contracts/GeekNft.sol\":3660:3666  uint i */\n      0x00\n        /* \"contracts/GeekNft.sol\":3656:3832  for(uint i = 0; i < items.length; i++) {... */\n    tag_73:\n        /* \"contracts/GeekNft.sol\":3676:3681  items */\n      0x03\n        /* \"contracts/GeekNft.sol\":3676:3688  items.length */\n      dup1\n      sload\n      swap1\n      pop\n        /* \"contracts/GeekNft.sol\":3672:3673  i */\n      dup2\n        /* \"contracts/GeekNft.sol\":3672:3688  i < items.length */\n      lt\n        /* \"contracts/GeekNft.sol\":3656:3832  for(uint i = 0; i < items.length; i++) {... */\n      iszero\n      tag_74\n      jumpi\n        /* \"contracts/GeekNft.sol\":3731:3735  true */\n      0x01\n        /* \"contracts/GeekNft.sol\":3712:3735  items[i].toSell == true */\n      iszero\n      iszero\n        /* \"contracts/GeekNft.sol\":3712:3717  items */\n      0x03\n        /* \"contracts/GeekNft.sol\":3718:3719  i */\n      dup3\n        /* \"contracts/GeekNft.sol\":3712:3720  items[i] */\n      dup2\n      sload\n      dup2\n      lt\n      tag_76\n      jumpi\n      mstore(0x00, 0x4e487b7100000000000000000000000000000000000000000000000000000000)\n      mstore(0x04, 0x32)\n      revert(0x00, 0x24)\n    tag_76:\n      swap1\n      0x00\n      mstore\n      keccak256(0x00, 0x20)\n      swap1\n      0x04\n      mul\n      add\n        /* \"contracts/GeekNft.sol\":3712:3727  items[i].toSell */\n      0x03\n      add\n      0x00\n      swap1\n      sload\n      swap1\n      0x0100\n      exp\n      swap1\n      div\n      0xff\n      and\n        /* \"contracts/GeekNft.sol\":3712:3735  items[i].toSell == true */\n      iszero\n      iszero\n      eq\n        /* \"contracts/GeekNft.sol\":3709:3822  if(items[i].toSell == true){... */\n      iszero\n      tag_78\n      jumpi\n        /* \"contracts/GeekNft.sol\":3772:3777  items */\n      0x03\n        /* \"contracts/GeekNft.sol\":3778:3779  i */\n      dup2\n        /* \"contracts/GeekNft.sol\":3772:3780  items[i] */\n      dup2\n      sload\n      dup2\n      lt\n      tag_79\n      jumpi\n      mstore(0x00, 0x4e487b7100000000000000000000000000000000000000000000000000000000)\n      mstore(0x04, 0x32)\n      revert(0x00, 0x24)\n    tag_79:\n      swap1\n      0x00\n      mstore\n      keccak256(0x00, 0x20)\n      swap1\n      0x04\n      mul\n      add\n        /* \"contracts/GeekNft.sol\":3754:3780  result[counter] = items[i] */\n      mload(0x40)\n      dup1\n      0x80\n      add\n      0x40\n      mstore\n      swap1\n      dup2\n      0x00\n      dup3\n      add\n      sload\n      dup2\n      mstore\n      0x20\n      add\n      0x01\n      dup3\n      add\n      sload\n      dup2\n      mstore\n      0x20\n      add\n      0x02\n      dup3\n      add\n      sload\n      dup2\n      mstore\n      0x20\n      add\n      0x03\n      dup3\n      add\n      0x00\n      swap1\n      sload\n      swap1\n      0x0100\n      exp\n      swap1\n      div\n      0xff\n      and\n      iszero\n      iszero\n      iszero\n      iszero\n      dup2\n      mstore\n      pop\n      pop\n        /* \"contracts/GeekNft.sol\":3754:3760  result */\n      dup3\n        /* \"contracts/GeekNft.sol\":3761:3768  counter */\n      dup5\n        /* \"contracts/GeekNft.sol\":3754:3769  result[counter] */\n      dup2\n      mload\n      dup2\n      lt\n      tag_81\n      jumpi\n      mstore(0x00, 0x4e487b7100000000000000000000000000000000000000000000000000000000)\n      mstore(0x04, 0x32)\n      revert(0x00, 0x24)\n    tag_81:\n      0x20\n      mul\n      0x20\n      add\n      add\n        /* \"contracts/GeekNft.sol\":3754:3780  result[counter] = items[i] */\n      dup2\n      swap1\n      mstore\n      pop\n        /* \"contracts/GeekNft.sol\":3798:3807  counter++ */\n      dup3\n      dup1\n      tag_82\n      swap1\n      tag_83\n      jump\t// in\n    tag_82:\n      swap4\n      pop\n      pop\n        /* \"contracts/GeekNft.sol\":3709:3822  if(items[i].toSell == true){... */\n    tag_78:\n        /* \"contracts/GeekNft.sol\":3690:3693  i++ */\n      dup1\n      dup1\n      tag_84\n      swap1\n      tag_83\n      jump\t// in\n    tag_84:\n      swap2\n      pop\n      pop\n        /* \"contracts/GeekNft.sol\":3656:3832  for(uint i = 0; i < items.length; i++) {... */\n      jump(tag_73)\n    tag_74:\n      pop\n        /* \"contracts/GeekNft.sol\":3849:3855  result */\n      dup1\n        /* \"contracts/GeekNft.sol\":3842:3855  return result */\n      swap3\n      pop\n      pop\n      pop\n        /* \"contracts/GeekNft.sol\":3495:3862  function fetchItemsToSell() public view returns (Item[] memory){... */\n      swap1\n      jump\t// out\n        /* \"contracts/GeekNft.sol\":4258:4645  function fetchItemsByCatId(uint _catId) public view returns (Item[] memory){... */\n    tag_23:\n        /* \"contracts/GeekNft.sol\":4319:4332  Item[] memory */\n      0x60\n        /* \"contracts/GeekNft.sol\":4343:4355  uint counter */\n      0x00\n        /* \"contracts/GeekNft.sol\":4369:4389  Item[] memory result */\n      dup1\n        /* \"contracts/GeekNft.sol\":4403:4418  itemsCatIdCount */\n      0x08\n        /* \"contracts/GeekNft.sol\":4403:4426  itemsCatIdCount[_catId] */\n      0x00\n        /* \"contracts/GeekNft.sol\":4419:4425  _catId */\n      dup6\n        /* \"contracts/GeekNft.sol\":4403:4426  itemsCatIdCount[_catId] */\n      dup2\n      mstore\n      0x20\n      add\n      swap1\n      dup2\n      mstore\n      0x20\n      add\n      0x00\n      keccak256\n      sload\n        /* \"contracts/GeekNft.sol\":4392:4427  new Item[](itemsCatIdCount[_catId]) */\n      0xffffffffffffffff\n      dup2\n      gt\n      iszero\n      tag_86\n      jumpi\n      mstore(0x00, 0x4e487b7100000000000000000000000000000000000000000000000000000000)\n      mstore(0x04, 0x41)\n      revert(0x00, 0x24)\n    tag_86:\n      mload(0x40)\n      swap1\n      dup1\n      dup3\n      mstore\n      dup1\n      0x20\n      mul\n      0x20\n      add\n      dup3\n      add\n      0x40\n      mstore\n      dup1\n      iszero\n      tag_87\n      jumpi\n      dup2\n      0x20\n      add\n    tag_88:\n      tag_89\n      tag_72\n      jump\t// in\n    tag_89:\n      dup2\n      mstore\n      0x20\n      add\n      swap1\n      0x01\n      swap1\n      sub\n      swap1\n      dup2\n      tag_88\n      jumpi\n      swap1\n      pop\n    tag_87:\n      pop\n        /* \"contracts/GeekNft.sol\":4369:4427  Item[] memory result = new Item[](itemsCatIdCount[_catId]) */\n      swap1\n      pop\n        /* \"contracts/GeekNft.sol\":4442:4448  uint i */\n      0x00\n        /* \"contracts/GeekNft.sol\":4438:4615  for(uint i = 0; i < items.length; i++) {... */\n    tag_90:\n        /* \"contracts/GeekNft.sol\":4458:4463  items */\n      0x03\n        /* \"contracts/GeekNft.sol\":4458:4470  items.length */\n      dup1\n      sload\n      swap1\n      pop\n        /* \"contracts/GeekNft.sol\":4454:4455  i */\n      dup2\n        /* \"contracts/GeekNft.sol\":4454:4470  i < items.length */\n      lt\n        /* \"contracts/GeekNft.sol\":4438:4615  for(uint i = 0; i < items.length; i++) {... */\n      iszero\n      tag_91\n      jumpi\n        /* \"contracts/GeekNft.sol\":4512:4518  _catId */\n      dup5\n        /* \"contracts/GeekNft.sol\":4494:4499  items */\n      0x03\n        /* \"contracts/GeekNft.sol\":4500:4501  i */\n      dup3\n        /* \"contracts/GeekNft.sol\":4494:4502  items[i] */\n      dup2\n      sload\n      dup2\n      lt\n      tag_93\n      jumpi\n      mstore(0x00, 0x4e487b7100000000000000000000000000000000000000000000000000000000)\n      mstore(0x04, 0x32)\n      revert(0x00, 0x24)\n    tag_93:\n      swap1\n      0x00\n      mstore\n      keccak256(0x00, 0x20)\n      swap1\n      0x04\n      mul\n      add\n        /* \"contracts/GeekNft.sol\":4494:4508  items[i].catId */\n      0x02\n      add\n      sload\n        /* \"contracts/GeekNft.sol\":4494:4518  items[i].catId == _catId */\n      eq\n        /* \"contracts/GeekNft.sol\":4491:4605  if(items[i].catId == _catId){... */\n      iszero\n      tag_95\n      jumpi\n        /* \"contracts/GeekNft.sol\":4555:4560  items */\n      0x03\n        /* \"contracts/GeekNft.sol\":4561:4562  i */\n      dup2\n        /* \"contracts/GeekNft.sol\":4555:4563  items[i] */\n      dup2\n      sload\n      dup2\n      lt\n      tag_96\n      jumpi\n      mstore(0x00, 0x4e487b7100000000000000000000000000000000000000000000000000000000)\n      mstore(0x04, 0x32)\n      revert(0x00, 0x24)\n    tag_96:\n      swap1\n      0x00\n      mstore\n      keccak256(0x00, 0x20)\n      swap1\n      0x04\n      mul\n      add\n        /* \"contracts/GeekNft.sol\":4537:4563  result[counter] = items[i] */\n      mload(0x40)\n      dup1\n      0x80\n      add\n      0x40\n      mstore\n      swap1\n      dup2\n      0x00\n      dup3\n      add\n      sload\n      dup2\n      mstore\n      0x20\n      add\n      0x01\n      dup3\n      add\n      sload\n      dup2\n      mstore\n      0x20\n      add\n      0x02\n      dup3\n      add\n      sload\n      dup2\n      mstore\n      0x20\n      add\n      0x03\n      dup3\n      add\n      0x00\n      swap1\n      sload\n      swap1\n      0x0100\n      exp\n      swap1\n      div\n      0xff\n      and\n      iszero\n      iszero\n      iszero\n      iszero\n      dup2\n      mstore\n      pop\n      pop\n        /* \"contracts/GeekNft.sol\":4537:4543  result */\n      dup3\n        /* \"contracts/GeekNft.sol\":4544:4551  counter */\n      dup5\n        /* \"contracts/GeekNft.sol\":4537:4552  result[counter] */\n      dup2\n      mload\n      dup2\n      lt\n      tag_98\n      jumpi\n      mstore(0x00, 0x4e487b7100000000000000000000000000000000000000000000000000000000)\n      mstore(0x04, 0x32)\n      revert(0x00, 0x24)\n    tag_98:\n      0x20\n      mul\n      0x20\n      add\n      add\n        /* \"contracts/GeekNft.sol\":4537:4563  result[counter] = items[i] */\n      dup2\n      swap1\n      mstore\n      pop\n        /* \"contracts/GeekNft.sol\":4581:4590  counter++ */\n      dup3\n      dup1\n      tag_99\n      swap1\n      tag_83\n      jump\t// in\n    tag_99:\n      swap4\n      pop\n      pop\n        /* \"contracts/GeekNft.sol\":4491:4605  if(items[i].catId == _catId){... */\n    tag_95:\n        /* \"contracts/GeekNft.sol\":4472:4475  i++ */\n      dup1\n      dup1\n      tag_100\n      swap1\n      tag_83\n      jump\t// in\n    tag_100:\n      swap2\n      pop\n      pop\n        /* \"contracts/GeekNft.sol\":4438:4615  for(uint i = 0; i < items.length; i++) {... */\n      jump(tag_90)\n    tag_91:\n      pop\n        /* \"contracts/GeekNft.sol\":4632:4638  result */\n      dup1\n        /* \"contracts/GeekNft.sol\":4625:4638  return result */\n      swap3\n      pop\n      pop\n      pop\n        /* \"contracts/GeekNft.sol\":4258:4645  function fetchItemsByCatId(uint _catId) public view returns (Item[] memory){... */\n      swap2\n      swap1\n      pop\n      jump\t// out\n        /* \"contracts/GeekNft.sol\":911:1034  function modifyFeesPercentage(uint _newPercentage) public onlyContractOwner{... */\n    tag_28:\n        /* \"contracts/GeekNft.sol\":695:700  owner */\n      0x02\n      0x00\n      swap1\n      sload\n      swap1\n      0x0100\n      exp\n      swap1\n      div\n      0xffffffffffffffffffffffffffffffffffffffff\n      and\n        /* \"contracts/GeekNft.sol\":681:700  msg.sender == owner */\n      0xffffffffffffffffffffffffffffffffffffffff\n      and\n        /* \"contracts/GeekNft.sol\":681:691  msg.sender */\n      caller\n        /* \"contracts/GeekNft.sol\":681:700  msg.sender == owner */\n      0xffffffffffffffffffffffffffffffffffffffff\n      and\n      eq\n        /* \"contracts/GeekNft.sol\":673:738  require(msg.sender == owner, \"Only contract's owner can do that\") */\n      tag_102\n      jumpi\n      mload(0x40)\n      0x08c379a000000000000000000000000000000000000000000000000000000000\n      dup2\n      mstore\n      0x04\n      add\n      tag_103\n      swap1\n      tag_104\n      jump\t// in\n    tag_103:\n      mload(0x40)\n      dup1\n      swap2\n      sub\n      swap1\n      revert\n    tag_102:\n        /* \"contracts/GeekNft.sol\":1013:1027  _newPercentage */\n      dup1\n        /* \"contracts/GeekNft.sol\":996:1010  feesPercentage */\n      0x05\n        /* \"contracts/GeekNft.sol\":996:1027  feesPercentage = _newPercentage */\n      dup2\n      swap1\n      sstore\n      pop\n        /* \"contracts/GeekNft.sol\":911:1034  function modifyFeesPercentage(uint _newPercentage) public onlyContractOwner{... */\n      pop\n      jump\t// out\n        /* \"contracts/GeekNft.sol\":3868:4252  function fetchItemsByOwner() public view returns (Item[] memory){... */\n    tag_31:\n        /* \"contracts/GeekNft.sol\":3918:3931  Item[] memory */\n      0x60\n        /* \"contracts/GeekNft.sol\":3942:3954  uint counter */\n      0x00\n        /* \"contracts/GeekNft.sol\":3968:3988  Item[] memory result */\n      dup1\n        /* \"contracts/GeekNft.sol\":4002:4017  itemsOwnerCount */\n      0x07\n        /* \"contracts/GeekNft.sol\":4002:4029  itemsOwnerCount[msg.sender] */\n      0x00\n        /* \"contracts/GeekNft.sol\":4018:4028  msg.sender */\n      caller\n        /* \"contracts/GeekNft.sol\":4002:4029  itemsOwnerCount[msg.sender] */\n      0xffffffffffffffffffffffffffffffffffffffff\n      and\n      0xffffffffffffffffffffffffffffffffffffffff\n      and\n      dup2\n      mstore\n      0x20\n      add\n      swap1\n      dup2\n      mstore\n      0x20\n      add\n      0x00\n      keccak256\n      sload\n        /* \"contracts/GeekNft.sol\":3991:4030  new Item[](itemsOwnerCount[msg.sender]) */\n      0xffffffffffffffff\n      dup2\n      gt\n      iszero\n      tag_107\n      jumpi\n      mstore(0x00, 0x4e487b7100000000000000000000000000000000000000000000000000000000)\n      mstore(0x04, 0x41)\n      revert(0x00, 0x24)\n    tag_107:\n      mload(0x40)\n      swap1\n      dup1\n      dup3\n      mstore\n      dup1\n      0x20\n      mul\n      0x20\n      add\n      dup3\n      add\n      0x40\n      mstore\n      dup1\n      iszero\n      tag_108\n      jumpi\n      dup2\n      0x20\n      add\n    tag_109:\n      tag_110\n      tag_72\n      jump\t// in\n    tag_110:\n      dup2\n      mstore\n      0x20\n      add\n      swap1\n      0x01\n      swap1\n      sub\n      swap1\n      dup2\n      tag_109\n      jumpi\n      swap1\n      pop\n    tag_108:\n      pop\n        /* \"contracts/GeekNft.sol\":3968:4030  Item[] memory result = new Item[](itemsOwnerCount[msg.sender]) */\n      swap1\n      pop\n        /* \"contracts/GeekNft.sol\":4045:4051  uint i */\n      0x00\n        /* \"contracts/GeekNft.sol\":4041:4222  for(uint i = 0; i < items.length; i++) {... */\n    tag_111:\n        /* \"contracts/GeekNft.sol\":4061:4066  items */\n      0x03\n        /* \"contracts/GeekNft.sol\":4061:4073  items.length */\n      dup1\n      sload\n      swap1\n      pop\n        /* \"contracts/GeekNft.sol\":4057:4058  i */\n      dup2\n        /* \"contracts/GeekNft.sol\":4057:4073  i < items.length */\n      lt\n        /* \"contracts/GeekNft.sol\":4041:4222  for(uint i = 0; i < items.length; i++) {... */\n      iszero\n      tag_112\n      jumpi\n        /* \"contracts/GeekNft.sol\":4115:4125  msg.sender */\n      caller\n        /* \"contracts/GeekNft.sol\":4097:4125  itemToOwner[i] == msg.sender */\n      0xffffffffffffffffffffffffffffffffffffffff\n      and\n        /* \"contracts/GeekNft.sol\":4097:4108  itemToOwner */\n      0x06\n        /* \"contracts/GeekNft.sol\":4097:4111  itemToOwner[i] */\n      0x00\n        /* \"contracts/GeekNft.sol\":4109:4110  i */\n      dup4\n        /* \"contracts/GeekNft.sol\":4097:4111  itemToOwner[i] */\n      dup2\n      mstore\n      0x20\n      add\n      swap1\n      dup2\n      mstore\n      0x20\n      add\n      0x00\n      keccak256\n      0x00\n      swap1\n      sload\n      swap1\n      0x0100\n      exp\n      swap1\n      div\n      0xffffffffffffffffffffffffffffffffffffffff\n      and\n        /* \"contracts/GeekNft.sol\":4097:4125  itemToOwner[i] == msg.sender */\n      0xffffffffffffffffffffffffffffffffffffffff\n      and\n      eq\n        /* \"contracts/GeekNft.sol\":4094:4212  if(itemToOwner[i] == msg.sender){... */\n      iszero\n      tag_114\n      jumpi\n        /* \"contracts/GeekNft.sol\":4162:4167  items */\n      0x03\n        /* \"contracts/GeekNft.sol\":4168:4169  i */\n      dup2\n        /* \"contracts/GeekNft.sol\":4162:4170  items[i] */\n      dup2\n      sload\n      dup2\n      lt\n      tag_115\n      jumpi\n      mstore(0x00, 0x4e487b7100000000000000000000000000000000000000000000000000000000)\n      mstore(0x04, 0x32)\n      revert(0x00, 0x24)\n    tag_115:\n      swap1\n      0x00\n      mstore\n      keccak256(0x00, 0x20)\n      swap1\n      0x04\n      mul\n      add\n        /* \"contracts/GeekNft.sol\":4144:4170  result[counter] = items[i] */\n      mload(0x40)\n      dup1\n      0x80\n      add\n      0x40\n      mstore\n      swap1\n      dup2\n      0x00\n      dup3\n      add\n      sload\n      dup2\n      mstore\n      0x20\n      add\n      0x01\n      dup3\n      add\n      sload\n      dup2\n      mstore\n      0x20\n      add\n      0x02\n      dup3\n      add\n      sload\n      dup2\n      mstore\n      0x20\n      add\n      0x03\n      dup3\n      add\n      0x00\n      swap1\n      sload\n      swap1\n      0x0100\n      exp\n      swap1\n      div\n      0xff\n      and\n      iszero\n      iszero\n      iszero\n      iszero\n      dup2\n      mstore\n      pop\n      pop\n        /* \"contracts/GeekNft.sol\":4144:4150  result */\n      dup3\n        /* \"contracts/GeekNft.sol\":4151:4158  counter */\n      dup5\n        /* \"contracts/GeekNft.sol\":4144:4159  result[counter] */\n      dup2\n      mload\n      dup2\n      lt\n      tag_117\n      jumpi\n      mstore(0x00, 0x4e487b7100000000000000000000000000000000000000000000000000000000)\n      mstore(0x04, 0x32)\n      revert(0x00, 0x24)\n    tag_117:\n      0x20\n      mul\n      0x20\n      add\n      add\n        /* \"contracts/GeekNft.sol\":4144:4170  result[counter] = items[i] */\n      dup2\n      swap1\n      mstore\n      pop\n        /* \"contracts/GeekNft.sol\":4188:4197  counter++ */\n      dup3\n      dup1\n      tag_118\n      swap1\n      tag_83\n      jump\t// in\n    tag_118:\n      swap4\n      pop\n      pop\n        /* \"contracts/GeekNft.sol\":4094:4212  if(itemToOwner[i] == msg.sender){... */\n    tag_114:\n        /* \"contracts/GeekNft.sol\":4075:4078  i++ */\n      dup1\n      dup1\n      tag_119\n      swap1\n      tag_83\n      jump\t// in\n    tag_119:\n      swap2\n      pop\n      pop\n        /* \"contracts/GeekNft.sol\":4041:4222  for(uint i = 0; i < items.length; i++) {... */\n      jump(tag_111)\n    tag_112:\n      pop\n        /* \"contracts/GeekNft.sol\":4239:4245  result */\n      dup1\n        /* \"contracts/GeekNft.sol\":4232:4245  return result */\n      swap3\n      pop\n      pop\n      pop\n        /* \"contracts/GeekNft.sol\":3868:4252  function fetchItemsByOwner() public view returns (Item[] memory){... */\n      swap1\n      jump\t// out\n        /* \"contracts/GeekNft.sol\":2597:2703  function ownerOf(uint _tokenId) public view returns (address){... */\n    tag_36:\n        /* \"contracts/GeekNft.sol\":2650:2657  address */\n      0x00\n        /* \"contracts/GeekNft.sol\":2675:2686  itemToOwner */\n      0x06\n        /* \"contracts/GeekNft.sol\":2675:2696  itemToOwner[_tokenId] */\n      0x00\n        /* \"contracts/GeekNft.sol\":2687:2695  _tokenId */\n      dup4\n        /* \"contracts/GeekNft.sol\":2675:2696  itemToOwner[_tokenId] */\n      dup2\n      mstore\n      0x20\n      add\n      swap1\n      dup2\n      mstore\n      0x20\n      add\n      0x00\n      keccak256\n      0x00\n      swap1\n      sload\n      swap1\n      0x0100\n      exp\n      swap1\n      div\n      0xffffffffffffffffffffffffffffffffffffffff\n      and\n        /* \"contracts/GeekNft.sol\":2668:2696  return itemToOwner[_tokenId] */\n      swap1\n      pop\n        /* \"contracts/GeekNft.sol\":2597:2703  function ownerOf(uint _tokenId) public view returns (address){... */\n      swap2\n      swap1\n      pop\n      jump\t// out\n        /* \"contracts/GeekNft.sol\":2709:2817  function balanceOf(address _owner) public view returns (uint){... */\n    tag_43:\n        /* \"contracts/GeekNft.sol\":2765:2769  uint */\n      0x00\n        /* \"contracts/GeekNft.sol\":2787:2802  itemsOwnerCount */\n      0x07\n        /* \"contracts/GeekNft.sol\":2787:2810  itemsOwnerCount[_owner] */\n      0x00\n        /* \"contracts/GeekNft.sol\":2803:2809  _owner */\n      dup4\n        /* \"contracts/GeekNft.sol\":2787:2810  itemsOwnerCount[_owner] */\n      0xffffffffffffffffffffffffffffffffffffffff\n      and\n      0xffffffffffffffffffffffffffffffffffffffff\n      and\n      dup2\n      mstore\n      0x20\n      add\n      swap1\n      dup2\n      mstore\n      0x20\n      add\n      0x00\n      keccak256\n      sload\n        /* \"contracts/GeekNft.sol\":2780:2810  return itemsOwnerCount[_owner] */\n      swap1\n      pop\n        /* \"contracts/GeekNft.sol\":2709:2817  function balanceOf(address _owner) public view returns (uint){... */\n      swap2\n      swap1\n      pop\n      jump\t// out\n        /* \"contracts/GeekNft.sol\":1678:2591  function sellItem(uint _tokenId) public payable{... */\n    tag_48:\n        /* \"contracts/GeekNft.sol\":1756:1761  items */\n      0x03\n        /* \"contracts/GeekNft.sol\":1762:1770  _tokenId */\n      dup2\n        /* \"contracts/GeekNft.sol\":1756:1771  items[_tokenId] */\n      dup2\n      sload\n      dup2\n      lt\n      tag_123\n      jumpi\n      mstore(0x00, 0x4e487b7100000000000000000000000000000000000000000000000000000000)\n      mstore(0x04, 0x32)\n      revert(0x00, 0x24)\n    tag_123:\n      swap1\n      0x00\n      mstore\n      keccak256(0x00, 0x20)\n      swap1\n      0x04\n      mul\n      add\n        /* \"contracts/GeekNft.sol\":1756:1777  items[_tokenId].price */\n      0x01\n      add\n      sload\n        /* \"contracts/GeekNft.sol\":1743:1752  msg.value */\n      callvalue\n        /* \"contracts/GeekNft.sol\":1743:1777  msg.value == items[_tokenId].price */\n      eq\n        /* \"contracts/GeekNft.sol\":1735:1835  require(msg.value == items[_tokenId].price, \"transaction's value cannot be different of item price\") */\n      tag_125\n      jumpi\n      mload(0x40)\n      0x08c379a000000000000000000000000000000000000000000000000000000000\n      dup2\n      mstore\n      0x04\n      add\n      tag_126\n      swap1\n      tag_127\n      jump\t// in\n    tag_126:\n      mload(0x40)\n      dup1\n      swap2\n      sub\n      swap1\n      revert\n    tag_125:\n        /* \"contracts/GeekNft.sol\":1886:1887  0 */\n      0x00\n        /* \"contracts/GeekNft.sol\":1853:1888  itemToOwner[_tokenId] != address(0) */\n      0xffffffffffffffffffffffffffffffffffffffff\n      and\n        /* \"contracts/GeekNft.sol\":1853:1864  itemToOwner */\n      0x06\n        /* \"contracts/GeekNft.sol\":1853:1874  itemToOwner[_tokenId] */\n      0x00\n        /* \"contracts/GeekNft.sol\":1865:1873  _tokenId */\n      dup4\n        /* \"contracts/GeekNft.sol\":1853:1874  itemToOwner[_tokenId] */\n      dup2\n      mstore\n      0x20\n      add\n      swap1\n      dup2\n      mstore\n      0x20\n      add\n      0x00\n      keccak256\n      0x00\n      swap1\n      sload\n      swap1\n      0x0100\n      exp\n      swap1\n      div\n      0xffffffffffffffffffffffffffffffffffffffff\n      and\n        /* \"contracts/GeekNft.sol\":1853:1888  itemToOwner[_tokenId] != address(0) */\n      0xffffffffffffffffffffffffffffffffffffffff\n      and\n      eq\n      iszero\n        /* \"contracts/GeekNft.sol\":1845:1912  require(itemToOwner[_tokenId] != address(0), \"token doesn't exist\") */\n      tag_128\n      jumpi\n      mload(0x40)\n      0x08c379a000000000000000000000000000000000000000000000000000000000\n      dup2\n      mstore\n      0x04\n      add\n      tag_129\n      swap1\n      tag_130\n      jump\t// in\n    tag_129:\n      mload(0x40)\n      dup1\n      swap2\n      sub\n      swap1\n      revert\n    tag_128:\n        /* \"contracts/GeekNft.sol\":1955:1965  msg.sender */\n      caller\n        /* \"contracts/GeekNft.sol\":1930:1965  itemToOwner[_tokenId] != msg.sender */\n      0xffffffffffffffffffffffffffffffffffffffff\n      and\n        /* \"contracts/GeekNft.sol\":1930:1941  itemToOwner */\n      0x06\n        /* \"contracts/GeekNft.sol\":1930:1951  itemToOwner[_tokenId] */\n      0x00\n        /* \"contracts/GeekNft.sol\":1942:1950  _tokenId */\n      dup4\n        /* \"contracts/GeekNft.sol\":1930:1951  itemToOwner[_tokenId] */\n      dup2\n      mstore\n      0x20\n      add\n      swap1\n      dup2\n      mstore\n      0x20\n      add\n      0x00\n      keccak256\n      0x00\n      swap1\n      sload\n      swap1\n      0x0100\n      exp\n      swap1\n      div\n      0xffffffffffffffffffffffffffffffffffffffff\n      and\n        /* \"contracts/GeekNft.sol\":1930:1965  itemToOwner[_tokenId] != msg.sender */\n      0xffffffffffffffffffffffffffffffffffffffff\n      and\n      eq\n      iszero\n        /* \"contracts/GeekNft.sol\":1922:1982  require(itemToOwner[_tokenId] != msg.sender, \"You can't se\") */\n      tag_131\n      jumpi\n      mload(0x40)\n      0x08c379a000000000000000000000000000000000000000000000000000000000\n      dup2\n      mstore\n      0x04\n      add\n      tag_132\n      swap1\n      tag_133\n      jump\t// in\n    tag_132:\n      mload(0x40)\n      dup1\n      swap2\n      sub\n      swap1\n      revert\n    tag_131:\n        /* \"contracts/GeekNft.sol\":1993:2009  address oldOwner */\n      0x00\n        /* \"contracts/GeekNft.sol\":2012:2023  itemToOwner */\n      0x06\n        /* \"contracts/GeekNft.sol\":2012:2033  itemToOwner[_tokenId] */\n      0x00\n        /* \"contracts/GeekNft.sol\":2024:2032  _tokenId */\n      dup4\n        /* \"contracts/GeekNft.sol\":2012:2033  itemToOwner[_tokenId] */\n      dup2\n      mstore\n      0x20\n      add\n      swap1\n      dup2\n      mstore\n      0x20\n      add\n      0x00\n      keccak256\n      0x00\n      swap1\n      sload\n      swap1\n      0x0100\n      exp\n      swap1\n      div\n      0xffffffffffffffffffffffffffffffffffffffff\n      and\n        /* \"contracts/GeekNft.sol\":1993:2033  address oldOwner = itemToOwner[_tokenId] */\n      swap1\n      pop\n        /* \"contracts/GeekNft.sol\":2052:2075  Item storage itemToSell */\n      0x00\n        /* \"contracts/GeekNft.sol\":2078:2083  items */\n      0x03\n        /* \"contracts/GeekNft.sol\":2084:2092  _tokenId */\n      dup4\n        /* \"contracts/GeekNft.sol\":2078:2093  items[_tokenId] */\n      dup2\n      sload\n      dup2\n      lt\n      tag_134\n      jumpi\n      mstore(0x00, 0x4e487b7100000000000000000000000000000000000000000000000000000000)\n      mstore(0x04, 0x32)\n      revert(0x00, 0x24)\n    tag_134:\n      swap1\n      0x00\n      mstore\n      keccak256(0x00, 0x20)\n      swap1\n      0x04\n      mul\n      add\n        /* \"contracts/GeekNft.sol\":2052:2093  Item storage itemToSell = items[_tokenId] */\n      swap1\n      pop\n        /* \"contracts/GeekNft.sol\":2123:2128  false */\n      0x00\n        /* \"contracts/GeekNft.sol\":2103:2113  itemToSell */\n      dup2\n        /* \"contracts/GeekNft.sol\":2103:2120  itemToSell.toSell */\n      0x03\n      add\n      0x00\n        /* \"contracts/GeekNft.sol\":2103:2128  itemToSell.toSell = false */\n      0x0100\n      exp\n      dup2\n      sload\n      dup2\n      0xff\n      mul\n      not\n      and\n      swap1\n      dup4\n      iszero\n      iszero\n      mul\n      or\n      swap1\n      sstore\n      pop\n        /* \"contracts/GeekNft.sol\":2163:2173  msg.sender */\n      caller\n        /* \"contracts/GeekNft.sol\":2139:2150  itemToOwner */\n      0x06\n        /* \"contracts/GeekNft.sol\":2139:2160  itemToOwner[_tokenId] */\n      0x00\n        /* \"contracts/GeekNft.sol\":2151:2159  _tokenId */\n      dup6\n        /* \"contracts/GeekNft.sol\":2139:2160  itemToOwner[_tokenId] */\n      dup2\n      mstore\n      0x20\n      add\n      swap1\n      dup2\n      mstore\n      0x20\n      add\n      0x00\n      keccak256\n      0x00\n        /* \"contracts/GeekNft.sol\":2139:2173  itemToOwner[_tokenId] = msg.sender */\n      0x0100\n      exp\n      dup2\n      sload\n      dup2\n      0xffffffffffffffffffffffffffffffffffffffff\n      mul\n      not\n      and\n      swap1\n      dup4\n      0xffffffffffffffffffffffffffffffffffffffff\n      and\n      mul\n      or\n      swap1\n      sstore\n      pop\n        /* \"contracts/GeekNft.sol\":2207:2222  itemsOwnerCount */\n      0x07\n        /* \"contracts/GeekNft.sol\":2207:2232  itemsOwnerCount[oldOwner] */\n      0x00\n        /* \"contracts/GeekNft.sol\":2223:2231  oldOwner */\n      dup4\n        /* \"contracts/GeekNft.sol\":2207:2232  itemsOwnerCount[oldOwner] */\n      0xffffffffffffffffffffffffffffffffffffffff\n      and\n      0xffffffffffffffffffffffffffffffffffffffff\n      and\n      dup2\n      mstore\n      0x20\n      add\n      swap1\n      dup2\n      mstore\n      0x20\n      add\n      0x00\n      keccak256\n      0x00\n        /* \"contracts/GeekNft.sol\":2207:2234  itemsOwnerCount[oldOwner]-- */\n      dup2\n      sload\n      dup1\n      swap3\n      swap2\n      swap1\n      0x01\n      swap1\n      sub\n      swap2\n      swap1\n      pop\n      sstore\n      pop\n        /* \"contracts/GeekNft.sol\":2248:2263  itemsOwnerCount */\n      0x07\n        /* \"contracts/GeekNft.sol\":2248:2275  itemsOwnerCount[msg.sender] */\n      0x00\n        /* \"contracts/GeekNft.sol\":2264:2274  msg.sender */\n      caller\n        /* \"contracts/GeekNft.sol\":2248:2275  itemsOwnerCount[msg.sender] */\n      0xffffffffffffffffffffffffffffffffffffffff\n      and\n      0xffffffffffffffffffffffffffffffffffffffff\n      and\n      dup2\n      mstore\n      0x20\n      add\n      swap1\n      dup2\n      mstore\n      0x20\n      add\n      0x00\n      keccak256\n      0x00\n        /* \"contracts/GeekNft.sol\":2248:2277  itemsOwnerCount[msg.sender]++ */\n      dup2\n      sload\n      dup1\n      swap3\n      swap2\n      swap1\n      0x01\n      add\n      swap2\n      swap1\n      pop\n      sstore\n      pop\n        /* \"contracts/GeekNft.sol\":2291:2307  itemsToSellCount */\n      0x04\n      0x00\n        /* \"contracts/GeekNft.sol\":2291:2309  itemsToSellCount-- */\n      dup2\n      sload\n      dup1\n      swap3\n      swap2\n      swap1\n      0x01\n      swap1\n      sub\n      swap2\n      swap1\n      pop\n      sstore\n      pop\n        /* \"contracts/GeekNft.sol\":2330:2339  uint fees */\n      0x00\n        /* \"contracts/GeekNft.sol\":2349:2368  uint totalMinusFees */\n      dup1\n        /* \"contracts/GeekNft.sol\":2403:2437  getFees(msg.value, feesPercentage) */\n      tag_136\n        /* \"contracts/GeekNft.sol\":2411:2420  msg.value */\n      callvalue\n        /* \"contracts/GeekNft.sol\":2422:2436  feesPercentage */\n      sload(0x05)\n        /* \"contracts/GeekNft.sol\":2403:2410  getFees */\n      tag_137\n        /* \"contracts/GeekNft.sol\":2403:2437  getFees(msg.value, feesPercentage) */\n      jump\t// in\n    tag_136:\n        /* \"contracts/GeekNft.sol\":2378:2437  (fees, totalMinusFees) = getFees(msg.value, feesPercentage) */\n      dup1\n      swap3\n      pop\n      dup2\n      swap4\n      pop\n      pop\n      pop\n        /* \"contracts/GeekNft.sol\":2455:2460  owner */\n      0x02\n      0x00\n      swap1\n      sload\n      swap1\n      0x0100\n      exp\n      swap1\n      div\n      0xffffffffffffffffffffffffffffffffffffffff\n      and\n        /* \"contracts/GeekNft.sol\":2447:2470  payable(owner).transfer */\n      0xffffffffffffffffffffffffffffffffffffffff\n      and\n        /* \"contracts/GeekNft.sol\":2447:2476  payable(owner).transfer(fees) */\n      0x08fc\n        /* \"contracts/GeekNft.sol\":2471:2475  fees */\n      dup4\n        /* \"contracts/GeekNft.sol\":2447:2476  payable(owner).transfer(fees) */\n      swap1\n      dup2\n      iszero\n      mul\n      swap1\n      mload(0x40)\n      0x00\n      mload(0x40)\n      dup1\n      dup4\n      sub\n      dup2\n      dup6\n      dup9\n      dup9\n      call\n      swap4\n      pop\n      pop\n      pop\n      pop\n      iszero\n      dup1\n      iszero\n      tag_139\n      jumpi\n      returndatasize\n      0x00\n      dup1\n      returndatacopy\n      revert(0x00, returndatasize)\n    tag_139:\n      pop\n        /* \"contracts/GeekNft.sol\":2494:2502  oldOwner */\n      dup4\n        /* \"contracts/GeekNft.sol\":2486:2512  payable(oldOwner).transfer */\n      0xffffffffffffffffffffffffffffffffffffffff\n      and\n        /* \"contracts/GeekNft.sol\":2486:2528  payable(oldOwner).transfer(totalMinusFees) */\n      0x08fc\n        /* \"contracts/GeekNft.sol\":2513:2527  totalMinusFees */\n      dup3\n        /* \"contracts/GeekNft.sol\":2486:2528  payable(oldOwner).transfer(totalMinusFees) */\n      swap1\n      dup2\n      iszero\n      mul\n      swap1\n      mload(0x40)\n      0x00\n      mload(0x40)\n      dup1\n      dup4\n      sub\n      dup2\n      dup6\n      dup9\n      dup9\n      call\n      swap4\n      pop\n      pop\n      pop\n      pop\n      iszero\n      dup1\n      iszero\n      tag_141\n      jumpi\n      returndatasize\n      0x00\n      dup1\n      returndatacopy\n      revert(0x00, returndatasize)\n    tag_141:\n      pop\n        /* \"contracts/GeekNft.sol\":2563:2573  msg.sender */\n      caller\n        /* \"contracts/GeekNft.sol\":2544:2584  Transfer(oldOwner, msg.sender, _tokenId) */\n      0xffffffffffffffffffffffffffffffffffffffff\n      and\n        /* \"contracts/GeekNft.sol\":2553:2561  oldOwner */\n      dup5\n        /* \"contracts/GeekNft.sol\":2544:2584  Transfer(oldOwner, msg.sender, _tokenId) */\n      0xffffffffffffffffffffffffffffffffffffffff\n      and\n      0xddf252ad1be2c89b69c2b068fc378daa952ba7f163c4a11628f55a4df523b3ef\n        /* \"contracts/GeekNft.sol\":2575:2583  _tokenId */\n      dup8\n        /* \"contracts/GeekNft.sol\":2544:2584  Transfer(oldOwner, msg.sender, _tokenId) */\n      mload(0x40)\n      tag_142\n      swap2\n      swap1\n      tag_45\n      jump\t// in\n    tag_142:\n      mload(0x40)\n      dup1\n      swap2\n      sub\n      swap1\n      log3\n        /* \"contracts/GeekNft.sol\":1678:2591  function sellItem(uint _tokenId) public payable{... */\n      pop\n      pop\n      pop\n      pop\n      pop\n      jump\t// out\n        /* \"contracts/GeekNft.sol\":2823:3152  function removeItemToSell(uint _tokenId) public onlyItemOwner(_tokenId) {... */\n    tag_52:\n        /* \"contracts/GeekNft.sol\":2885:2893  _tokenId */\n      dup1\n        /* \"contracts/GeekNft.sol\":843:853  msg.sender */\n      caller\n        /* \"contracts/GeekNft.sol\":818:853  itemToOwner[_tokenId] == msg.sender */\n      0xffffffffffffffffffffffffffffffffffffffff\n      and\n        /* \"contracts/GeekNft.sol\":818:829  itemToOwner */\n      0x06\n        /* \"contracts/GeekNft.sol\":818:839  itemToOwner[_tokenId] */\n      0x00\n        /* \"contracts/GeekNft.sol\":830:838  _tokenId */\n      dup4\n        /* \"contracts/GeekNft.sol\":818:839  itemToOwner[_tokenId] */\n      dup2\n      mstore\n      0x20\n      add\n      swap1\n      dup2\n      mstore\n      0x20\n      add\n      0x00\n      keccak256\n      0x00\n      swap1\n      sload\n      swap1\n      0x0100\n      exp\n      swap1\n      div\n      0xffffffffffffffffffffffffffffffffffffffff\n      and\n        /* \"contracts/GeekNft.sol\":818:853  itemToOwner[_tokenId] == msg.sender */\n      0xffffffffffffffffffffffffffffffffffffffff\n      and\n      eq\n        /* \"contracts/GeekNft.sol\":810:887  require(itemToOwner[_tokenId] == msg.sender, \"Only item's owner can do that\") */\n      tag_144\n      jumpi\n      mload(0x40)\n      0x08c379a000000000000000000000000000000000000000000000000000000000\n      dup2\n      mstore\n      0x04\n      add\n      tag_145\n      swap1\n      tag_146\n      jump\t// in\n    tag_145:\n      mload(0x40)\n      dup1\n      swap2\n      sub\n      swap1\n      revert\n    tag_144:\n        /* \"contracts/GeekNft.sol\":2946:2947  0 */\n      0x00\n        /* \"contracts/GeekNft.sol\":2913:2948  itemToOwner[_tokenId] != address(0) */\n      0xffffffffffffffffffffffffffffffffffffffff\n      and\n        /* \"contracts/GeekNft.sol\":2913:2924  itemToOwner */\n      0x06\n        /* \"contracts/GeekNft.sol\":2913:2934  itemToOwner[_tokenId] */\n      0x00\n        /* \"contracts/GeekNft.sol\":2925:2933  _tokenId */\n      dup5\n        /* \"contracts/GeekNft.sol\":2913:2934  itemToOwner[_tokenId] */\n      dup2\n      mstore\n      0x20\n      add\n      swap1\n      dup2\n      mstore\n      0x20\n      add\n      0x00\n      keccak256\n      0x00\n      swap1\n      sload\n      swap1\n      0x0100\n      exp\n      swap1\n      div\n      0xffffffffffffffffffffffffffffffffffffffff\n      and\n        /* \"contracts/GeekNft.sol\":2913:2948  itemToOwner[_tokenId] != address(0) */\n      0xffffffffffffffffffffffffffffffffffffffff\n      and\n      eq\n      iszero\n        /* \"contracts/GeekNft.sol\":2905:2972  require(itemToOwner[_tokenId] != address(0), \"token doesn't exist\") */\n      tag_148\n      jumpi\n      mload(0x40)\n      0x08c379a000000000000000000000000000000000000000000000000000000000\n      dup2\n      mstore\n      0x04\n      add\n      tag_149\n      swap1\n      tag_130\n      jump\t// in\n    tag_149:\n      mload(0x40)\n      dup1\n      swap2\n      sub\n      swap1\n      revert\n    tag_148:\n        /* \"contracts/GeekNft.sol\":3016:3020  true */\n      0x01\n        /* \"contracts/GeekNft.sol\":2990:3020  items[_tokenId].toSell == true */\n      iszero\n      iszero\n        /* \"contracts/GeekNft.sol\":2990:2995  items */\n      0x03\n        /* \"contracts/GeekNft.sol\":2996:3004  _tokenId */\n      dup4\n        /* \"contracts/GeekNft.sol\":2990:3005  items[_tokenId] */\n      dup2\n      sload\n      dup2\n      lt\n      tag_150\n      jumpi\n      mstore(0x00, 0x4e487b7100000000000000000000000000000000000000000000000000000000)\n      mstore(0x04, 0x32)\n      revert(0x00, 0x24)\n    tag_150:\n      swap1\n      0x00\n      mstore\n      keccak256(0x00, 0x20)\n      swap1\n      0x04\n      mul\n      add\n        /* \"contracts/GeekNft.sol\":2990:3012  items[_tokenId].toSell */\n      0x03\n      add\n      0x00\n      swap1\n      sload\n      swap1\n      0x0100\n      exp\n      swap1\n      div\n      0xff\n      and\n        /* \"contracts/GeekNft.sol\":2990:3020  items[_tokenId].toSell == true */\n      iszero\n      iszero\n      eq\n        /* \"contracts/GeekNft.sol\":2982:3044  require(items[_tokenId].toSell == true, \"token isn't to sell\") */\n      tag_152\n      jumpi\n      mload(0x40)\n      0x08c379a000000000000000000000000000000000000000000000000000000000\n      dup2\n      mstore\n      0x04\n      add\n      tag_153\n      swap1\n      tag_154\n      jump\t// in\n    tag_153:\n      mload(0x40)\n      dup1\n      swap2\n      sub\n      swap1\n      revert\n    tag_152:\n        /* \"contracts/GeekNft.sol\":3079:3084  false */\n      0x00\n        /* \"contracts/GeekNft.sol\":3054:3059  items */\n      0x03\n        /* \"contracts/GeekNft.sol\":3060:3068  _tokenId */\n      dup4\n        /* \"contracts/GeekNft.sol\":3054:3069  items[_tokenId] */\n      dup2\n      sload\n      dup2\n      lt\n      tag_155\n      jumpi\n      mstore(0x00, 0x4e487b7100000000000000000000000000000000000000000000000000000000)\n      mstore(0x04, 0x32)\n      revert(0x00, 0x24)\n    tag_155:\n      swap1\n      0x00\n      mstore\n      keccak256(0x00, 0x20)\n      swap1\n      0x04\n      mul\n      add\n        /* \"contracts/GeekNft.sol\":3054:3076  items[_tokenId].toSell */\n      0x03\n      add\n      0x00\n        /* \"contracts/GeekNft.sol\":3054:3084  items[_tokenId].toSell = false */\n      0x0100\n      exp\n      dup2\n      sload\n      dup2\n      0xff\n      mul\n      not\n      and\n      swap1\n      dup4\n      iszero\n      iszero\n      mul\n      or\n      swap1\n      sstore\n      pop\n        /* \"contracts/GeekNft.sol\":3117:3133  itemsToSellCount */\n      0x04\n      0x00\n        /* \"contracts/GeekNft.sol\":3117:3135  itemsToSellCount-- */\n      dup2\n      sload\n      dup1\n      swap3\n      swap2\n      swap1\n      0x01\n      swap1\n      sub\n      swap2\n      swap1\n      pop\n      sstore\n      pop\n        /* \"contracts/GeekNft.sol\":2823:3152  function removeItemToSell(uint _tokenId) public onlyItemOwner(_tokenId) {... */\n      pop\n      pop\n      jump\t// out\n        /* \"contracts/GeekNft.sol\":1140:1672  function createItem(uint _price, uint _catId) public returns (uint){... */\n    tag_57:\n        /* \"contracts/GeekNft.sol\":1202:1206  uint */\n      0x00\n        /* \"contracts/GeekNft.sol\":1234:1235  0 */\n      dup1\n        /* \"contracts/GeekNft.sol\":1225:1231  _price */\n      dup4\n        /* \"contracts/GeekNft.sol\":1225:1235  _price > 0 */\n      gt\n        /* \"contracts/GeekNft.sol\":1217:1266  require(_price > 0, \"Price cannot be equal to 0\") */\n      tag_158\n      jumpi\n      mload(0x40)\n      0x08c379a000000000000000000000000000000000000000000000000000000000\n      dup2\n      mstore\n      0x04\n      add\n      tag_159\n      swap1\n      tag_160\n      jump\t// in\n    tag_159:\n      mload(0x40)\n      dup1\n      swap2\n      sub\n      swap1\n      revert\n    tag_158:\n        /* \"contracts/GeekNft.sol\":1276:1291  uint newTokenId */\n      0x00\n        /* \"contracts/GeekNft.sol\":1294:1299  items */\n      0x03\n        /* \"contracts/GeekNft.sol\":1294:1306  items.length */\n      dup1\n      sload\n      swap1\n      pop\n        /* \"contracts/GeekNft.sol\":1276:1306  uint newTokenId = items.length */\n      swap1\n      pop\n        /* \"contracts/GeekNft.sol\":1360:1361  0 */\n      0x00\n        /* \"contracts/GeekNft.sol\":1325:1362  itemToOwner[newTokenId] == address(0) */\n      0xffffffffffffffffffffffffffffffffffffffff\n      and\n        /* \"contracts/GeekNft.sol\":1325:1336  itemToOwner */\n      0x06\n        /* \"contracts/GeekNft.sol\":1325:1348  itemToOwner[newTokenId] */\n      0x00\n        /* \"contracts/GeekNft.sol\":1337:1347  newTokenId */\n      dup4\n        /* \"contracts/GeekNft.sol\":1325:1348  itemToOwner[newTokenId] */\n      dup2\n      mstore\n      0x20\n      add\n      swap1\n      dup2\n      mstore\n      0x20\n      add\n      0x00\n      keccak256\n      0x00\n      swap1\n      sload\n      swap1\n      0x0100\n      exp\n      swap1\n      div\n      0xffffffffffffffffffffffffffffffffffffffff\n      and\n        /* \"contracts/GeekNft.sol\":1325:1362  itemToOwner[newTokenId] == address(0) */\n      0xffffffffffffffffffffffffffffffffffffffff\n      and\n      eq\n        /* \"contracts/GeekNft.sol\":1317:1386  require(itemToOwner[newTokenId] == address(0), \"token already exist\") */\n      tag_161\n      jumpi\n      mload(0x40)\n      0x08c379a000000000000000000000000000000000000000000000000000000000\n      dup2\n      mstore\n      0x04\n      add\n      tag_162\n      swap1\n      tag_163\n      jump\t// in\n    tag_162:\n      mload(0x40)\n      dup1\n      swap2\n      sub\n      swap1\n      revert\n    tag_161:\n        /* \"contracts/GeekNft.sol\":1397:1402  items */\n      0x03\n        /* \"contracts/GeekNft.sol\":1408:1446  Item(newTokenId, _price, _catId, true) */\n      mload(0x40)\n      dup1\n      0x80\n      add\n      0x40\n      mstore\n      dup1\n        /* \"contracts/GeekNft.sol\":1413:1423  newTokenId */\n      dup4\n        /* \"contracts/GeekNft.sol\":1408:1446  Item(newTokenId, _price, _catId, true) */\n      dup2\n      mstore\n      0x20\n      add\n        /* \"contracts/GeekNft.sol\":1425:1431  _price */\n      dup7\n        /* \"contracts/GeekNft.sol\":1408:1446  Item(newTokenId, _price, _catId, true) */\n      dup2\n      mstore\n      0x20\n      add\n        /* \"contracts/GeekNft.sol\":1433:1439  _catId */\n      dup6\n        /* \"contracts/GeekNft.sol\":1408:1446  Item(newTokenId, _price, _catId, true) */\n      dup2\n      mstore\n      0x20\n      add\n        /* \"contracts/GeekNft.sol\":1441:1445  true */\n      0x01\n        /* \"contracts/GeekNft.sol\":1408:1446  Item(newTokenId, _price, _catId, true) */\n      iszero\n      iszero\n      dup2\n      mstore\n      pop\n        /* \"contracts/GeekNft.sol\":1397:1447  items.push(Item(newTokenId, _price, _catId, true)) */\n      swap1\n      dup1\n      0x01\n      dup2\n      sload\n      add\n      dup1\n      dup3\n      sstore\n      dup1\n      swap2\n      pop\n      pop\n      0x01\n      swap1\n      sub\n      swap1\n      0x00\n      mstore\n      keccak256(0x00, 0x20)\n      swap1\n      0x04\n      mul\n      add\n      0x00\n      swap1\n      swap2\n      swap1\n      swap2\n      swap1\n      swap2\n      pop\n      0x00\n      dup3\n      add\n      mload\n      dup2\n      0x00\n      add\n      sstore\n      0x20\n      dup3\n      add\n      mload\n      dup2\n      0x01\n      add\n      sstore\n      0x40\n      dup3\n      add\n      mload\n      dup2\n      0x02\n      add\n      sstore\n      0x60\n      dup3\n      add\n      mload\n      dup2\n      0x03\n      add\n      exp(0x0100, 0x00)\n      dup2\n      sload\n      dup2\n      0xff\n      mul\n      not\n      and\n      swap1\n      dup4\n      iszero\n      iszero\n      mul\n      or\n      swap1\n      sstore\n      pop\n      pop\n      pop\n        /* \"contracts/GeekNft.sol\":1483:1493  msg.sender */\n      caller\n        /* \"contracts/GeekNft.sol\":1457:1468  itemToOwner */\n      0x06\n        /* \"contracts/GeekNft.sol\":1457:1480  itemToOwner[newTokenId] */\n      0x00\n        /* \"contracts/GeekNft.sol\":1469:1479  newTokenId */\n      dup4\n        /* \"contracts/GeekNft.sol\":1457:1480  itemToOwner[newTokenId] */\n      dup2\n      mstore\n      0x20\n      add\n      swap1\n      dup2\n      mstore\n      0x20\n      add\n      0x00\n      keccak256\n      0x00\n        /* \"contracts/GeekNft.sol\":1457:1493  itemToOwner[newTokenId] = msg.sender */\n      0x0100\n      exp\n      dup2\n      sload\n      dup2\n      0xffffffffffffffffffffffffffffffffffffffff\n      mul\n      not\n      and\n      swap1\n      dup4\n      0xffffffffffffffffffffffffffffffffffffffff\n      and\n      mul\n      or\n      swap1\n      sstore\n      pop\n        /* \"contracts/GeekNft.sol\":1527:1542  itemsOwnerCount */\n      0x07\n        /* \"contracts/GeekNft.sol\":1527:1554  itemsOwnerCount[msg.sender] */\n      0x00\n        /* \"contracts/GeekNft.sol\":1543:1553  msg.sender */\n      caller\n        /* \"contracts/GeekNft.sol\":1527:1554  itemsOwnerCount[msg.sender] */\n      0xffffffffffffffffffffffffffffffffffffffff\n      and\n      0xffffffffffffffffffffffffffffffffffffffff\n      and\n      dup2\n      mstore\n      0x20\n      add\n      swap1\n      dup2\n      mstore\n      0x20\n      add\n      0x00\n      keccak256\n      0x00\n        /* \"contracts/GeekNft.sol\":1527:1556  itemsOwnerCount[msg.sender]++ */\n      dup2\n      sload\n      dup1\n      swap3\n      swap2\n      swap1\n      0x01\n      add\n      swap2\n      swap1\n      pop\n      sstore\n      pop\n        /* \"contracts/GeekNft.sol\":1570:1585  itemsCatIdCount */\n      0x08\n        /* \"contracts/GeekNft.sol\":1570:1593  itemsCatIdCount[_catId] */\n      0x00\n        /* \"contracts/GeekNft.sol\":1586:1592  _catId */\n      dup5\n        /* \"contracts/GeekNft.sol\":1570:1593  itemsCatIdCount[_catId] */\n      dup2\n      mstore\n      0x20\n      add\n      swap1\n      dup2\n      mstore\n      0x20\n      add\n      0x00\n      keccak256\n      0x00\n        /* \"contracts/GeekNft.sol\":1570:1595  itemsCatIdCount[_catId]++ */\n      dup2\n      sload\n      dup1\n      swap3\n      swap2\n      swap1\n      0x01\n      add\n      swap2\n      swap1\n      pop\n      sstore\n      pop\n        /* \"contracts/GeekNft.sol\":1609:1625  itemsToSellCount */\n      0x04\n      0x00\n        /* \"contracts/GeekNft.sol\":1609:1627  itemsToSellCount++ */\n      dup2\n      sload\n      dup1\n      swap3\n      swap2\n      swap1\n      0x01\n      add\n      swap2\n      swap1\n      pop\n      sstore\n      pop\n        /* \"contracts/GeekNft.sol\":1655:1665  newTokenId */\n      dup1\n        /* \"contracts/GeekNft.sol\":1648:1665  return newTokenId */\n      swap2\n      pop\n      pop\n        /* \"contracts/GeekNft.sol\":1140:1672  function createItem(uint _price, uint _catId) public returns (uint){... */\n      swap3\n      swap2\n      pop\n      pop\n      jump\t// out\n        /* \"contracts/GeekNft.sol\":3158:3489  function addItemToSell(uint _tokenId) public onlyItemOwner(_tokenId) {... */\n    tag_62:\n        /* \"contracts/GeekNft.sol\":3217:3225  _tokenId */\n      dup1\n        /* \"contracts/GeekNft.sol\":843:853  msg.sender */\n      caller\n        /* \"contracts/GeekNft.sol\":818:853  itemToOwner[_tokenId] == msg.sender */\n      0xffffffffffffffffffffffffffffffffffffffff\n      and\n        /* \"contracts/GeekNft.sol\":818:829  itemToOwner */\n      0x06\n        /* \"contracts/GeekNft.sol\":818:839  itemToOwner[_tokenId] */\n      0x00\n        /* \"contracts/GeekNft.sol\":830:838  _tokenId */\n      dup4\n        /* \"contracts/GeekNft.sol\":818:839  itemToOwner[_tokenId] */\n      dup2\n      mstore\n      0x20\n      add\n      swap1\n      dup2\n      mstore\n      0x20\n      add\n      0x00\n      keccak256\n      0x00\n      swap1\n      sload\n      swap1\n      0x0100\n      exp\n      swap1\n      div\n      0xffffffffffffffffffffffffffffffffffffffff\n      and\n        /* \"contracts/GeekNft.sol\":818:853  itemToOwner[_tokenId] == msg.sender */\n      0xffffffffffffffffffffffffffffffffffffffff\n      and\n      eq\n        /* \"contracts/GeekNft.sol\":810:887  require(itemToOwner[_tokenId] == msg.sender, \"Only item's owner can do that\") */\n      tag_166\n      jumpi\n      mload(0x40)\n      0x08c379a000000000000000000000000000000000000000000000000000000000\n      dup2\n      mstore\n      0x04\n      add\n      tag_167\n      swap1\n      tag_146\n      jump\t// in\n    tag_167:\n      mload(0x40)\n      dup1\n      swap2\n      sub\n      swap1\n      revert\n    tag_166:\n        /* \"contracts/GeekNft.sol\":3278:3279  0 */\n      0x00\n        /* \"contracts/GeekNft.sol\":3245:3280  itemToOwner[_tokenId] != address(0) */\n      0xffffffffffffffffffffffffffffffffffffffff\n      and\n        /* \"contracts/GeekNft.sol\":3245:3256  itemToOwner */\n      0x06\n        /* \"contracts/GeekNft.sol\":3245:3266  itemToOwner[_tokenId] */\n      0x00\n        /* \"contracts/GeekNft.sol\":3257:3265  _tokenId */\n      dup5\n        /* \"contracts/GeekNft.sol\":3245:3266  itemToOwner[_tokenId] */\n      dup2\n      mstore\n      0x20\n      add\n      swap1\n      dup2\n      mstore\n      0x20\n      add\n      0x00\n      keccak256\n      0x00\n      swap1\n      sload\n      swap1\n      0x0100\n      exp\n      swap1\n      div\n      0xffffffffffffffffffffffffffffffffffffffff\n      and\n        /* \"contracts/GeekNft.sol\":3245:3280  itemToOwner[_tokenId] != address(0) */\n      0xffffffffffffffffffffffffffffffffffffffff\n      and\n      eq\n      iszero\n        /* \"contracts/GeekNft.sol\":3237:3304  require(itemToOwner[_tokenId] != address(0), \"token doesn't exist\") */\n      tag_169\n      jumpi\n      mload(0x40)\n      0x08c379a000000000000000000000000000000000000000000000000000000000\n      dup2\n      mstore\n      0x04\n      add\n      tag_170\n      swap1\n      tag_130\n      jump\t// in\n    tag_170:\n      mload(0x40)\n      dup1\n      swap2\n      sub\n      swap1\n      revert\n    tag_169:\n        /* \"contracts/GeekNft.sol\":3348:3353  false */\n      0x00\n        /* \"contracts/GeekNft.sol\":3322:3353  items[_tokenId].toSell == false */\n      iszero\n      iszero\n        /* \"contracts/GeekNft.sol\":3322:3327  items */\n      0x03\n        /* \"contracts/GeekNft.sol\":3328:3336  _tokenId */\n      dup4\n        /* \"contracts/GeekNft.sol\":3322:3337  items[_tokenId] */\n      dup2\n      sload\n      dup2\n      lt\n      tag_171\n      jumpi\n      mstore(0x00, 0x4e487b7100000000000000000000000000000000000000000000000000000000)\n      mstore(0x04, 0x32)\n      revert(0x00, 0x24)\n    tag_171:\n      swap1\n      0x00\n      mstore\n      keccak256(0x00, 0x20)\n      swap1\n      0x04\n      mul\n      add\n        /* \"contracts/GeekNft.sol\":3322:3344  items[_tokenId].toSell */\n      0x03\n      add\n      0x00\n      swap1\n      sload\n      swap1\n      0x0100\n      exp\n      swap1\n      div\n      0xff\n      and\n        /* \"contracts/GeekNft.sol\":3322:3353  items[_tokenId].toSell == false */\n      iszero\n      iszero\n      eq\n        /* \"contracts/GeekNft.sol\":3314:3382  require(items[_tokenId].toSell == false, \"token is already to sell\") */\n      tag_173\n      jumpi\n      mload(0x40)\n      0x08c379a000000000000000000000000000000000000000000000000000000000\n      dup2\n      mstore\n      0x04\n      add\n      tag_174\n      swap1\n      tag_175\n      jump\t// in\n    tag_174:\n      mload(0x40)\n      dup1\n      swap2\n      sub\n      swap1\n      revert\n    tag_173:\n        /* \"contracts/GeekNft.sol\":3417:3421  true */\n      0x01\n        /* \"contracts/GeekNft.sol\":3392:3397  items */\n      0x03\n        /* \"contracts/GeekNft.sol\":3398:3406  _tokenId */\n      dup4\n        /* \"contracts/GeekNft.sol\":3392:3407  items[_tokenId] */\n      dup2\n      sload\n      dup2\n      lt\n      tag_176\n      jumpi\n      mstore(0x00, 0x4e487b7100000000000000000000000000000000000000000000000000000000)\n      mstore(0x04, 0x32)\n      revert(0x00, 0x24)\n    tag_176:\n      swap1\n      0x00\n      mstore\n      keccak256(0x00, 0x20)\n      swap1\n      0x04\n      mul\n      add\n        /* \"contracts/GeekNft.sol\":3392:3414  items[_tokenId].toSell */\n      0x03\n      add\n      0x00\n        /* \"contracts/GeekNft.sol\":3392:3421  items[_tokenId].toSell = true */\n      0x0100\n      exp\n      dup2\n      sload\n      dup2\n      0xff\n      mul\n      not\n      and\n      swap1\n      dup4\n      iszero\n      iszero\n      mul\n      or\n      swap1\n      sstore\n      pop\n        /* \"contracts/GeekNft.sol\":3454:3470  itemsToSellCount */\n      0x04\n      0x00\n        /* \"contracts/GeekNft.sol\":3454:3472  itemsToSellCount++ */\n      dup2\n      sload\n      dup1\n      swap3\n      swap2\n      swap1\n      0x01\n      add\n      swap2\n      swap1\n      pop\n      sstore\n      pop\n        /* \"contracts/GeekNft.sol\":3158:3489  function addItemToSell(uint _tokenId) public onlyItemOwner(_tokenId) {... */\n      pop\n      pop\n      jump\t// out\n        /* \"contracts/GeekNft.sol\":1040:1134  function getFeesPercentage() public view returns (uint) {... */\n    tag_65:\n        /* \"contracts/GeekNft.sol\":1090:1094  uint */\n      0x00\n        /* \"contracts/GeekNft.sol\":1113:1127  feesPercentage */\n      sload(0x05)\n        /* \"contracts/GeekNft.sol\":1106:1127  return feesPercentage */\n      swap1\n      pop\n        /* \"contracts/GeekNft.sol\":1040:1134  function getFeesPercentage() public view returns (uint) {... */\n      swap1\n      jump\t// out\n        /* \"contracts/GeekNft.sol\":4716:4938  function getFees(uint _price, uint _percentage) private pure returns (uint, uint){... */\n    tag_137:\n        /* \"contracts/GeekNft.sol\":4786:4790  uint */\n      0x00\n        /* \"contracts/GeekNft.sol\":4792:4796  uint */\n      dup1\n        /* \"contracts/GeekNft.sol\":4807:4816  uint fees */\n      0x00\n        /* \"contracts/GeekNft.sol\":4844:4847  100 */\n      0x64\n        /* \"contracts/GeekNft.sol\":4834:4840  _price */\n      dup6\n        /* \"contracts/GeekNft.sol\":4820:4831  _percentage */\n      dup6\n        /* \"contracts/GeekNft.sol\":4820:4840  _percentage * _price */\n      tag_180\n      swap2\n      swap1\n      tag_181\n      jump\t// in\n    tag_180:\n        /* \"contracts/GeekNft.sol\":4819:4847  (_percentage * _price) / 100 */\n      tag_182\n      swap2\n      swap1\n      tag_183\n      jump\t// in\n    tag_182:\n        /* \"contracts/GeekNft.sol\":4807:4847  uint fees = (_percentage * _price) / 100 */\n      swap1\n      pop\n        /* \"contracts/GeekNft.sol\":4857:4876  uint totalMinusFees */\n      0x00\n        /* \"contracts/GeekNft.sol\":4888:4892  fees */\n      dup2\n        /* \"contracts/GeekNft.sol\":4879:4885  _price */\n      dup7\n        /* \"contracts/GeekNft.sol\":4879:4892  _price - fees */\n      tag_184\n      swap2\n      swap1\n      tag_185\n      jump\t// in\n    tag_184:\n        /* \"contracts/GeekNft.sol\":4857:4892  uint totalMinusFees = _price - fees */\n      swap1\n      pop\n        /* \"contracts/GeekNft.sol\":4910:4914  fees */\n      dup2\n        /* \"contracts/GeekNft.sol\":4916:4930  totalMinusFees */\n      dup2\n        /* \"contracts/GeekNft.sol\":4902:4931  return (fees, totalMinusFees) */\n      swap4\n      pop\n      swap4\n      pop\n      pop\n      pop\n        /* \"contracts/GeekNft.sol\":4716:4938  function getFees(uint _price, uint _percentage) private pure returns (uint, uint){... */\n      swap3\n      pop\n      swap3\n      swap1\n      pop\n      jump\t// out\n    tag_72:\n      mload(0x40)\n      dup1\n      0x80\n      add\n      0x40\n      mstore\n      dup1\n      0x00\n      dup2\n      mstore\n      0x20\n      add\n      0x00\n      dup2\n      mstore\n      0x20\n      add\n      0x00\n      dup2\n      mstore\n      0x20\n      add\n      iszero(iszero(0x00))\n      dup2\n      mstore\n      pop\n      swap1\n      jump\t// out\n        /* \"#utility.yul\":7:146   */\n    tag_187:\n      0x00\n        /* \"#utility.yul\":91:97   */\n      dup2\n        /* \"#utility.yul\":78:98   */\n      calldataload\n        /* \"#utility.yul\":69:98   */\n      swap1\n      pop\n        /* \"#utility.yul\":107:140   */\n      tag_189\n        /* \"#utility.yul\":134:139   */\n      dup2\n        /* \"#utility.yul\":107:140   */\n      tag_190\n      jump\t// in\n    tag_189:\n        /* \"#utility.yul\":59:146   */\n      swap3\n      swap2\n      pop\n      pop\n      jump\t// out\n        /* \"#utility.yul\":152:291   */\n    tag_191:\n      0x00\n        /* \"#utility.yul\":236:242   */\n      dup2\n        /* \"#utility.yul\":223:243   */\n      calldataload\n        /* \"#utility.yul\":214:243   */\n      swap1\n      pop\n        /* \"#utility.yul\":252:285   */\n      tag_193\n        /* \"#utility.yul\":279:284   */\n      dup2\n        /* \"#utility.yul\":252:285   */\n      tag_194\n      jump\t// in\n    tag_193:\n        /* \"#utility.yul\":204:291   */\n      swap3\n      swap2\n      pop\n      pop\n      jump\t// out\n        /* \"#utility.yul\":297:559   */\n    tag_42:\n      0x00\n        /* \"#utility.yul\":405:407   */\n      0x20\n        /* \"#utility.yul\":393:402   */\n      dup3\n        /* \"#utility.yul\":384:391   */\n      dup5\n        /* \"#utility.yul\":380:403   */\n      sub\n        /* \"#utility.yul\":376:408   */\n      slt\n        /* \"#utility.yul\":373:375   */\n      iszero\n      tag_196\n      jumpi\n        /* \"#utility.yul\":421:422   */\n      0x00\n        /* \"#utility.yul\":418:419   */\n      dup1\n        /* \"#utility.yul\":411:423   */\n      revert\n        /* \"#utility.yul\":373:375   */\n    tag_196:\n        /* \"#utility.yul\":464:465   */\n      0x00\n        /* \"#utility.yul\":489:542   */\n      tag_197\n        /* \"#utility.yul\":534:541   */\n      dup5\n        /* \"#utility.yul\":525:531   */\n      dup3\n        /* \"#utility.yul\":514:523   */\n      dup6\n        /* \"#utility.yul\":510:532   */\n      add\n        /* \"#utility.yul\":489:542   */\n      tag_187\n      jump\t// in\n    tag_197:\n        /* \"#utility.yul\":479:542   */\n      swap2\n      pop\n        /* \"#utility.yul\":435:552   */\n      pop\n        /* \"#utility.yul\":363:559   */\n      swap3\n      swap2\n      pop\n      pop\n      jump\t// out\n        /* \"#utility.yul\":565:827   */\n    tag_22:\n      0x00\n        /* \"#utility.yul\":673:675   */\n      0x20\n        /* \"#utility.yul\":661:670   */\n      dup3\n        /* \"#utility.yul\":652:659   */\n      dup5\n        /* \"#utility.yul\":648:671   */\n      sub\n        /* \"#utility.yul\":644:676   */\n      slt\n        /* \"#utility.yul\":641:643   */\n      iszero\n      tag_199\n      jumpi\n        /* \"#utility.yul\":689:690   */\n      0x00\n        /* \"#utility.yul\":686:687   */\n      dup1\n        /* \"#utility.yul\":679:691   */\n      revert\n        /* \"#utility.yul\":641:643   */\n    tag_199:\n        /* \"#utility.yul\":732:733   */\n      0x00\n        /* \"#utility.yul\":757:810   */\n      tag_200\n        /* \"#utility.yul\":802:809   */\n      dup5\n        /* \"#utility.yul\":793:799   */\n      dup3\n        /* \"#utility.yul\":782:791   */\n      dup6\n        /* \"#utility.yul\":778:800   */\n      add\n        /* \"#utility.yul\":757:810   */\n      tag_191\n      jump\t// in\n    tag_200:\n        /* \"#utility.yul\":747:810   */\n      swap2\n      pop\n        /* \"#utility.yul\":703:820   */\n      pop\n        /* \"#utility.yul\":631:827   */\n      swap3\n      swap2\n      pop\n      pop\n      jump\t// out\n        /* \"#utility.yul\":833:1240   */\n    tag_56:\n      0x00\n      dup1\n        /* \"#utility.yul\":958:960   */\n      0x40\n        /* \"#utility.yul\":946:955   */\n      dup4\n        /* \"#utility.yul\":937:944   */\n      dup6\n        /* \"#utility.yul\":933:956   */\n      sub\n        /* \"#utility.yul\":929:961   */\n      slt\n        /* \"#utility.yul\":926:928   */\n      iszero\n      tag_202\n      jumpi\n        /* \"#utility.yul\":974:975   */\n      0x00\n        /* \"#utility.yul\":971:972   */\n      dup1\n        /* \"#utility.yul\":964:976   */\n      revert\n        /* \"#utility.yul\":926:928   */\n    tag_202:\n        /* \"#utility.yul\":1017:1018   */\n      0x00\n        /* \"#utility.yul\":1042:1095   */\n      tag_203\n        /* \"#utility.yul\":1087:1094   */\n      dup6\n        /* \"#utility.yul\":1078:1084   */\n      dup3\n        /* \"#utility.yul\":1067:1076   */\n      dup7\n        /* \"#utility.yul\":1063:1085   */\n      add\n        /* \"#utility.yul\":1042:1095   */\n      tag_191\n      jump\t// in\n    tag_203:\n        /* \"#utility.yul\":1032:1095   */\n      swap3\n      pop\n        /* \"#utility.yul\":988:1105   */\n      pop\n        /* \"#utility.yul\":1144:1146   */\n      0x20\n        /* \"#utility.yul\":1170:1223   */\n      tag_204\n        /* \"#utility.yul\":1215:1222   */\n      dup6\n        /* \"#utility.yul\":1206:1212   */\n      dup3\n        /* \"#utility.yul\":1195:1204   */\n      dup7\n        /* \"#utility.yul\":1191:1213   */\n      add\n        /* \"#utility.yul\":1170:1223   */\n      tag_191\n      jump\t// in\n    tag_204:\n        /* \"#utility.yul\":1160:1223   */\n      swap2\n      pop\n        /* \"#utility.yul\":1115:1233   */\n      pop\n        /* \"#utility.yul\":916:1240   */\n      swap3\n      pop\n      swap3\n      swap1\n      pop\n      jump\t// out\n        /* \"#utility.yul\":1246:1505   */\n    tag_205:\n      0x00\n        /* \"#utility.yul\":1376:1462   */\n      tag_207\n        /* \"#utility.yul\":1458:1461   */\n      dup4\n        /* \"#utility.yul\":1450:1456   */\n      dup4\n        /* \"#utility.yul\":1376:1462   */\n      tag_208\n      jump\t// in\n    tag_207:\n        /* \"#utility.yul\":1494:1498   */\n      0x80\n        /* \"#utility.yul\":1489:1492   */\n      dup4\n        /* \"#utility.yul\":1485:1499   */\n      add\n        /* \"#utility.yul\":1471:1499   */\n      swap1\n      pop\n        /* \"#utility.yul\":1366:1505   */\n      swap3\n      swap2\n      pop\n      pop\n      jump\t// out\n        /* \"#utility.yul\":1511:1629   */\n    tag_209:\n        /* \"#utility.yul\":1598:1622   */\n      tag_211\n        /* \"#utility.yul\":1616:1621   */\n      dup2\n        /* \"#utility.yul\":1598:1622   */\n      tag_212\n      jump\t// in\n    tag_211:\n        /* \"#utility.yul\":1593:1596   */\n      dup3\n        /* \"#utility.yul\":1586:1623   */\n      mstore\n        /* \"#utility.yul\":1576:1629   */\n      pop\n      pop\n      jump\t// out\n        /* \"#utility.yul\":1689:2581   */\n    tag_213:\n      0x00\n        /* \"#utility.yul\":1877:1951   */\n      tag_215\n        /* \"#utility.yul\":1945:1950   */\n      dup3\n        /* \"#utility.yul\":1877:1951   */\n      tag_216\n      jump\t// in\n    tag_215:\n        /* \"#utility.yul\":1967:2073   */\n      tag_217\n        /* \"#utility.yul\":2066:2072   */\n      dup2\n        /* \"#utility.yul\":2061:2064   */\n      dup6\n        /* \"#utility.yul\":1967:2073   */\n      tag_218\n      jump\t// in\n    tag_217:\n        /* \"#utility.yul\":1960:2073   */\n      swap4\n      pop\n        /* \"#utility.yul\":2097:2173   */\n      tag_219\n        /* \"#utility.yul\":2167:2172   */\n      dup4\n        /* \"#utility.yul\":2097:2173   */\n      tag_220\n      jump\t// in\n    tag_219:\n        /* \"#utility.yul\":2196:2203   */\n      dup1\n        /* \"#utility.yul\":2227:2228   */\n      0x00\n        /* \"#utility.yul\":2212:2556   */\n    tag_221:\n        /* \"#utility.yul\":2237:2243   */\n      dup4\n        /* \"#utility.yul\":2234:2235   */\n      dup2\n        /* \"#utility.yul\":2231:2244   */\n      lt\n        /* \"#utility.yul\":2212:2556   */\n      iszero\n      tag_223\n      jumpi\n        /* \"#utility.yul\":2313:2319   */\n      dup2\n        /* \"#utility.yul\":2307:2320   */\n      mload\n        /* \"#utility.yul\":2340:2443   */\n      tag_224\n        /* \"#utility.yul\":2439:2442   */\n      dup9\n        /* \"#utility.yul\":2424:2437   */\n      dup3\n        /* \"#utility.yul\":2340:2443   */\n      tag_205\n      jump\t// in\n    tag_224:\n        /* \"#utility.yul\":2333:2443   */\n      swap8\n      pop\n        /* \"#utility.yul\":2466:2546   */\n      tag_225\n        /* \"#utility.yul\":2539:2545   */\n      dup4\n        /* \"#utility.yul\":2466:2546   */\n      tag_226\n      jump\t// in\n    tag_225:\n        /* \"#utility.yul\":2456:2546   */\n      swap3\n      pop\n        /* \"#utility.yul\":2272:2556   */\n      pop\n        /* \"#utility.yul\":2259:2260   */\n      0x01\n        /* \"#utility.yul\":2256:2257   */\n      dup2\n        /* \"#utility.yul\":2252:2261   */\n      add\n        /* \"#utility.yul\":2247:2261   */\n      swap1\n      pop\n        /* \"#utility.yul\":2212:2556   */\n      jump(tag_221)\n    tag_223:\n        /* \"#utility.yul\":2216:2230   */\n      pop\n        /* \"#utility.yul\":2572:2575   */\n      dup6\n        /* \"#utility.yul\":2565:2575   */\n      swap4\n      pop\n        /* \"#utility.yul\":1853:2581   */\n      pop\n      pop\n      pop\n      swap3\n      swap2\n      pop\n      pop\n      jump\t// out\n        /* \"#utility.yul\":2587:2686   */\n    tag_227:\n        /* \"#utility.yul\":2658:2679   */\n      tag_229\n        /* \"#utility.yul\":2673:2678   */\n      dup2\n        /* \"#utility.yul\":2658:2679   */\n      tag_230\n      jump\t// in\n    tag_229:\n        /* \"#utility.yul\":2653:2656   */\n      dup3\n        /* \"#utility.yul\":2646:2680   */\n      mstore\n        /* \"#utility.yul\":2636:2686   */\n      pop\n      pop\n      jump\t// out\n        /* \"#utility.yul\":2692:3058   */\n    tag_231:\n      0x00\n        /* \"#utility.yul\":2855:2922   */\n      tag_233\n        /* \"#utility.yul\":2919:2921   */\n      0x13\n        /* \"#utility.yul\":2914:2917   */\n      dup4\n        /* \"#utility.yul\":2855:2922   */\n      tag_234\n      jump\t// in\n    tag_233:\n        /* \"#utility.yul\":2848:2922   */\n      swap2\n      pop\n        /* \"#utility.yul\":2931:3024   */\n      tag_235\n        /* \"#utility.yul\":3020:3023   */\n      dup3\n        /* \"#utility.yul\":2931:3024   */\n      tag_236\n      jump\t// in\n    tag_235:\n        /* \"#utility.yul\":3049:3051   */\n      0x20\n        /* \"#utility.yul\":3044:3047   */\n      dup3\n        /* \"#utility.yul\":3040:3052   */\n      add\n        /* \"#utility.yul\":3033:3052   */\n      swap1\n      pop\n        /* \"#utility.yul\":2838:3058   */\n      swap2\n      swap1\n      pop\n      jump\t// out\n        /* \"#utility.yul\":3064:3430   */\n    tag_237:\n      0x00\n        /* \"#utility.yul\":3227:3294   */\n      tag_239\n        /* \"#utility.yul\":3291:3293   */\n      0x13\n        /* \"#utility.yul\":3286:3289   */\n      dup4\n        /* \"#utility.yul\":3227:3294   */\n      tag_234\n      jump\t// in\n    tag_239:\n        /* \"#utility.yul\":3220:3294   */\n      swap2\n      pop\n        /* \"#utility.yul\":3303:3396   */\n      tag_240\n        /* \"#utility.yul\":3392:3395   */\n      dup3\n        /* \"#utility.yul\":3303:3396   */\n      tag_241\n      jump\t// in\n    tag_240:\n        /* \"#utility.yul\":3421:3423   */\n      0x20\n        /* \"#utility.yul\":3416:3419   */\n      dup3\n        /* \"#utility.yul\":3412:3424   */\n      add\n        /* \"#utility.yul\":3405:3424   */\n      swap1\n      pop\n        /* \"#utility.yul\":3210:3430   */\n      swap2\n      swap1\n      pop\n      jump\t// out\n        /* \"#utility.yul\":3436:3802   */\n    tag_242:\n      0x00\n        /* \"#utility.yul\":3599:3666   */\n      tag_244\n        /* \"#utility.yul\":3663:3665   */\n      0x35\n        /* \"#utility.yul\":3658:3661   */\n      dup4\n        /* \"#utility.yul\":3599:3666   */\n      tag_234\n      jump\t// in\n    tag_244:\n        /* \"#utility.yul\":3592:3666   */\n      swap2\n      pop\n        /* \"#utility.yul\":3675:3768   */\n      tag_245\n        /* \"#utility.yul\":3764:3767   */\n      dup3\n        /* \"#utility.yul\":3675:3768   */\n      tag_246\n      jump\t// in\n    tag_245:\n        /* \"#utility.yul\":3793:3795   */\n      0x40\n        /* \"#utility.yul\":3788:3791   */\n      dup3\n        /* \"#utility.yul\":3784:3796   */\n      add\n        /* \"#utility.yul\":3777:3796   */\n      swap1\n      pop\n        /* \"#utility.yul\":3582:3802   */\n      swap2\n      swap1\n      pop\n      jump\t// out\n        /* \"#utility.yul\":3808:4174   */\n    tag_247:\n      0x00\n        /* \"#utility.yul\":3971:4038   */\n      tag_249\n        /* \"#utility.yul\":4035:4037   */\n      0x13\n        /* \"#utility.yul\":4030:4033   */\n      dup4\n        /* \"#utility.yul\":3971:4038   */\n      tag_234\n      jump\t// in\n    tag_249:\n        /* \"#utility.yul\":3964:4038   */\n      swap2\n      pop\n        /* \"#utility.yul\":4047:4140   */\n      tag_250\n        /* \"#utility.yul\":4136:4139   */\n      dup3\n        /* \"#utility.yul\":4047:4140   */\n      tag_251\n      jump\t// in\n    tag_250:\n        /* \"#utility.yul\":4165:4167   */\n      0x20\n        /* \"#utility.yul\":4160:4163   */\n      dup3\n        /* \"#utility.yul\":4156:4168   */\n      add\n        /* \"#utility.yul\":4149:4168   */\n      swap1\n      pop\n        /* \"#utility.yul\":3954:4174   */\n      swap2\n      swap1\n      pop\n      jump\t// out\n        /* \"#utility.yul\":4180:4546   */\n    tag_252:\n      0x00\n        /* \"#utility.yul\":4343:4410   */\n      tag_254\n        /* \"#utility.yul\":4407:4409   */\n      0x1d\n        /* \"#utility.yul\":4402:4405   */\n      dup4\n        /* \"#utility.yul\":4343:4410   */\n      tag_234\n      jump\t// in\n    tag_254:\n        /* \"#utility.yul\":4336:4410   */\n      swap2\n      pop\n        /* \"#utility.yul\":4419:4512   */\n      tag_255\n        /* \"#utility.yul\":4508:4511   */\n      dup3\n        /* \"#utility.yul\":4419:4512   */\n      tag_256\n      jump\t// in\n    tag_255:\n        /* \"#utility.yul\":4537:4539   */\n      0x20\n        /* \"#utility.yul\":4532:4535   */\n      dup3\n        /* \"#utility.yul\":4528:4540   */\n      add\n        /* \"#utility.yul\":4521:4540   */\n      swap1\n      pop\n        /* \"#utility.yul\":4326:4546   */\n      swap2\n      swap1\n      pop\n      jump\t// out\n        /* \"#utility.yul\":4552:4918   */\n    tag_257:\n      0x00\n        /* \"#utility.yul\":4715:4782   */\n      tag_259\n        /* \"#utility.yul\":4779:4781   */\n      0x18\n        /* \"#utility.yul\":4774:4777   */\n      dup4\n        /* \"#utility.yul\":4715:4782   */\n      tag_234\n      jump\t// in\n    tag_259:\n        /* \"#utility.yul\":4708:4782   */\n      swap2\n      pop\n        /* \"#utility.yul\":4791:4884   */\n      tag_260\n        /* \"#utility.yul\":4880:4883   */\n      dup3\n        /* \"#utility.yul\":4791:4884   */\n      tag_261\n      jump\t// in\n    tag_260:\n        /* \"#utility.yul\":4909:4911   */\n      0x20\n        /* \"#utility.yul\":4904:4907   */\n      dup3\n        /* \"#utility.yul\":4900:4912   */\n      add\n        /* \"#utility.yul\":4893:4912   */\n      swap1\n      pop\n        /* \"#utility.yul\":4698:4918   */\n      swap2\n      swap1\n      pop\n      jump\t// out\n        /* \"#utility.yul\":4924:5290   */\n    tag_262:\n      0x00\n        /* \"#utility.yul\":5087:5154   */\n      tag_264\n        /* \"#utility.yul\":5151:5153   */\n      0x0c\n        /* \"#utility.yul\":5146:5149   */\n      dup4\n        /* \"#utility.yul\":5087:5154   */\n      tag_234\n      jump\t// in\n    tag_264:\n        /* \"#utility.yul\":5080:5154   */\n      swap2\n      pop\n        /* \"#utility.yul\":5163:5256   */\n      tag_265\n        /* \"#utility.yul\":5252:5255   */\n      dup3\n        /* \"#utility.yul\":5163:5256   */\n      tag_266\n      jump\t// in\n    tag_265:\n        /* \"#utility.yul\":5281:5283   */\n      0x20\n        /* \"#utility.yul\":5276:5279   */\n      dup3\n        /* \"#utility.yul\":5272:5284   */\n      add\n        /* \"#utility.yul\":5265:5284   */\n      swap1\n      pop\n        /* \"#utility.yul\":5070:5290   */\n      swap2\n      swap1\n      pop\n      jump\t// out\n        /* \"#utility.yul\":5296:5662   */\n    tag_267:\n      0x00\n        /* \"#utility.yul\":5459:5526   */\n      tag_269\n        /* \"#utility.yul\":5523:5525   */\n      0x21\n        /* \"#utility.yul\":5518:5521   */\n      dup4\n        /* \"#utility.yul\":5459:5526   */\n      tag_234\n      jump\t// in\n    tag_269:\n        /* \"#utility.yul\":5452:5526   */\n      swap2\n      pop\n        /* \"#utility.yul\":5535:5628   */\n      tag_270\n        /* \"#utility.yul\":5624:5627   */\n      dup3\n        /* \"#utility.yul\":5535:5628   */\n      tag_271\n      jump\t// in\n    tag_270:\n        /* \"#utility.yul\":5653:5655   */\n      0x40\n        /* \"#utility.yul\":5648:5651   */\n      dup3\n        /* \"#utility.yul\":5644:5656   */\n      add\n        /* \"#utility.yul\":5637:5656   */\n      swap1\n      pop\n        /* \"#utility.yul\":5442:5662   */\n      swap2\n      swap1\n      pop\n      jump\t// out\n        /* \"#utility.yul\":5668:6034   */\n    tag_272:\n      0x00\n        /* \"#utility.yul\":5831:5898   */\n      tag_274\n        /* \"#utility.yul\":5895:5897   */\n      0x1a\n        /* \"#utility.yul\":5890:5893   */\n      dup4\n        /* \"#utility.yul\":5831:5898   */\n      tag_234\n      jump\t// in\n    tag_274:\n        /* \"#utility.yul\":5824:5898   */\n      swap2\n      pop\n        /* \"#utility.yul\":5907:6000   */\n      tag_275\n        /* \"#utility.yul\":5996:5999   */\n      dup3\n        /* \"#utility.yul\":5907:6000   */\n      tag_276\n      jump\t// in\n    tag_275:\n        /* \"#utility.yul\":6025:6027   */\n      0x20\n        /* \"#utility.yul\":6020:6023   */\n      dup3\n        /* \"#utility.yul\":6016:6028   */\n      add\n        /* \"#utility.yul\":6009:6028   */\n      swap1\n      pop\n        /* \"#utility.yul\":5814:6034   */\n      swap2\n      swap1\n      pop\n      jump\t// out\n        /* \"#utility.yul\":6090:6926   */\n    tag_208:\n        /* \"#utility.yul\":6217:6221   */\n      0x80\n        /* \"#utility.yul\":6212:6215   */\n      dup3\n        /* \"#utility.yul\":6208:6222   */\n      add\n        /* \"#utility.yul\":6307:6311   */\n      0x00\n        /* \"#utility.yul\":6300:6305   */\n      dup3\n        /* \"#utility.yul\":6296:6312   */\n      add\n        /* \"#utility.yul\":6290:6313   */\n      mload\n        /* \"#utility.yul\":6326:6389   */\n      tag_278\n        /* \"#utility.yul\":6383:6387   */\n      0x00\n        /* \"#utility.yul\":6378:6381   */\n      dup6\n        /* \"#utility.yul\":6374:6388   */\n      add\n        /* \"#utility.yul\":6360:6372   */\n      dup3\n        /* \"#utility.yul\":6326:6389   */\n      tag_279\n      jump\t// in\n    tag_278:\n        /* \"#utility.yul\":6232:6399   */\n      pop\n        /* \"#utility.yul\":6482:6486   */\n      0x20\n        /* \"#utility.yul\":6475:6480   */\n      dup3\n        /* \"#utility.yul\":6471:6487   */\n      add\n        /* \"#utility.yul\":6465:6488   */\n      mload\n        /* \"#utility.yul\":6501:6564   */\n      tag_280\n        /* \"#utility.yul\":6558:6562   */\n      0x20\n        /* \"#utility.yul\":6553:6556   */\n      dup6\n        /* \"#utility.yul\":6549:6563   */\n      add\n        /* \"#utility.yul\":6535:6547   */\n      dup3\n        /* \"#utility.yul\":6501:6564   */\n      tag_279\n      jump\t// in\n    tag_280:\n        /* \"#utility.yul\":6409:6574   */\n      pop\n        /* \"#utility.yul\":6657:6661   */\n      0x40\n        /* \"#utility.yul\":6650:6655   */\n      dup3\n        /* \"#utility.yul\":6646:6662   */\n      add\n        /* \"#utility.yul\":6640:6663   */\n      mload\n        /* \"#utility.yul\":6676:6739   */\n      tag_281\n        /* \"#utility.yul\":6733:6737   */\n      0x40\n        /* \"#utility.yul\":6728:6731   */\n      dup6\n        /* \"#utility.yul\":6724:6738   */\n      add\n        /* \"#utility.yul\":6710:6722   */\n      dup3\n        /* \"#utility.yul\":6676:6739   */\n      tag_279\n      jump\t// in\n    tag_281:\n        /* \"#utility.yul\":6584:6749   */\n      pop\n        /* \"#utility.yul\":6833:6837   */\n      0x60\n        /* \"#utility.yul\":6826:6831   */\n      dup3\n        /* \"#utility.yul\":6822:6838   */\n      add\n        /* \"#utility.yul\":6816:6839   */\n      mload\n        /* \"#utility.yul\":6852:6909   */\n      tag_282\n        /* \"#utility.yul\":6903:6907   */\n      0x60\n        /* \"#utility.yul\":6898:6901   */\n      dup6\n        /* \"#utility.yul\":6894:6908   */\n      add\n        /* \"#utility.yul\":6880:6892   */\n      dup3\n        /* \"#utility.yul\":6852:6909   */\n      tag_227\n      jump\t// in\n    tag_282:\n        /* \"#utility.yul\":6759:6919   */\n      pop\n        /* \"#utility.yul\":6186:6926   */\n      pop\n      pop\n      pop\n      jump\t// out\n        /* \"#utility.yul\":6932:7040   */\n    tag_279:\n        /* \"#utility.yul\":7009:7033   */\n      tag_284\n        /* \"#utility.yul\":7027:7032   */\n      dup2\n        /* \"#utility.yul\":7009:7033   */\n      tag_285\n      jump\t// in\n    tag_284:\n        /* \"#utility.yul\":7004:7007   */\n      dup3\n        /* \"#utility.yul\":6997:7034   */\n      mstore\n        /* \"#utility.yul\":6987:7040   */\n      pop\n      pop\n      jump\t// out\n        /* \"#utility.yul\":7046:7164   */\n    tag_286:\n        /* \"#utility.yul\":7133:7157   */\n      tag_288\n        /* \"#utility.yul\":7151:7156   */\n      dup2\n        /* \"#utility.yul\":7133:7157   */\n      tag_285\n      jump\t// in\n    tag_288:\n        /* \"#utility.yul\":7128:7131   */\n      dup3\n        /* \"#utility.yul\":7121:7158   */\n      mstore\n        /* \"#utility.yul\":7111:7164   */\n      pop\n      pop\n      jump\t// out\n        /* \"#utility.yul\":7170:7392   */\n    tag_38:\n      0x00\n        /* \"#utility.yul\":7301:7303   */\n      0x20\n        /* \"#utility.yul\":7290:7299   */\n      dup3\n        /* \"#utility.yul\":7286:7304   */\n      add\n        /* \"#utility.yul\":7278:7304   */\n      swap1\n      pop\n        /* \"#utility.yul\":7314:7385   */\n      tag_290\n        /* \"#utility.yul\":7382:7383   */\n      0x00\n        /* \"#utility.yul\":7371:7380   */\n      dup4\n        /* \"#utility.yul\":7367:7384   */\n      add\n        /* \"#utility.yul\":7358:7364   */\n      dup5\n        /* \"#utility.yul\":7314:7385   */\n      tag_209\n      jump\t// in\n    tag_290:\n        /* \"#utility.yul\":7268:7392   */\n      swap3\n      swap2\n      pop\n      pop\n      jump\t// out\n        /* \"#utility.yul\":7398:7851   */\n    tag_18:\n      0x00\n        /* \"#utility.yul\":7619:7621   */\n      0x20\n        /* \"#utility.yul\":7608:7617   */\n      dup3\n        /* \"#utility.yul\":7604:7622   */\n      add\n        /* \"#utility.yul\":7596:7622   */\n      swap1\n      pop\n        /* \"#utility.yul\":7668:7677   */\n      dup2\n        /* \"#utility.yul\":7662:7666   */\n      dup2\n        /* \"#utility.yul\":7658:7678   */\n      sub\n        /* \"#utility.yul\":7654:7655   */\n      0x00\n        /* \"#utility.yul\":7643:7652   */\n      dup4\n        /* \"#utility.yul\":7639:7656   */\n      add\n        /* \"#utility.yul\":7632:7679   */\n      mstore\n        /* \"#utility.yul\":7696:7844   */\n      tag_292\n        /* \"#utility.yul\":7839:7843   */\n      dup2\n        /* \"#utility.yul\":7830:7836   */\n      dup5\n        /* \"#utility.yul\":7696:7844   */\n      tag_213\n      jump\t// in\n    tag_292:\n        /* \"#utility.yul\":7688:7844   */\n      swap1\n      pop\n        /* \"#utility.yul\":7586:7851   */\n      swap3\n      swap2\n      pop\n      pop\n      jump\t// out\n        /* \"#utility.yul\":7857:8276   */\n    tag_154:\n      0x00\n        /* \"#utility.yul\":8061:8063   */\n      0x20\n        /* \"#utility.yul\":8050:8059   */\n      dup3\n        /* \"#utility.yul\":8046:8064   */\n      add\n        /* \"#utility.yul\":8038:8064   */\n      swap1\n      pop\n        /* \"#utility.yul\":8110:8119   */\n      dup2\n        /* \"#utility.yul\":8104:8108   */\n      dup2\n        /* \"#utility.yul\":8100:8120   */\n      sub\n        /* \"#utility.yul\":8096:8097   */\n      0x00\n        /* \"#utility.yul\":8085:8094   */\n      dup4\n        /* \"#utility.yul\":8081:8098   */\n      add\n        /* \"#utility.yul\":8074:8121   */\n      mstore\n        /* \"#utility.yul\":8138:8269   */\n      tag_294\n        /* \"#utility.yul\":8264:8268   */\n      dup2\n        /* \"#utility.yul\":8138:8269   */\n      tag_231\n      jump\t// in\n    tag_294:\n        /* \"#utility.yul\":8130:8269   */\n      swap1\n      pop\n        /* \"#utility.yul\":8028:8276   */\n      swap2\n      swap1\n      pop\n      jump\t// out\n        /* \"#utility.yul\":8282:8701   */\n    tag_163:\n      0x00\n        /* \"#utility.yul\":8486:8488   */\n      0x20\n        /* \"#utility.yul\":8475:8484   */\n      dup3\n        /* \"#utility.yul\":8471:8489   */\n      add\n        /* \"#utility.yul\":8463:8489   */\n      swap1\n      pop\n        /* \"#utility.yul\":8535:8544   */\n      dup2\n        /* \"#utility.yul\":8529:8533   */\n      dup2\n        /* \"#utility.yul\":8525:8545   */\n      sub\n        /* \"#utility.yul\":8521:8522   */\n      0x00\n        /* \"#utility.yul\":8510:8519   */\n      dup4\n        /* \"#utility.yul\":8506:8523   */\n      add\n        /* \"#utility.yul\":8499:8546   */\n      mstore\n        /* \"#utility.yul\":8563:8694   */\n      tag_296\n        /* \"#utility.yul\":8689:8693   */\n      dup2\n        /* \"#utility.yul\":8563:8694   */\n      tag_237\n      jump\t// in\n    tag_296:\n        /* \"#utility.yul\":8555:8694   */\n      swap1\n      pop\n        /* \"#utility.yul\":8453:8701   */\n      swap2\n      swap1\n      pop\n      jump\t// out\n        /* \"#utility.yul\":8707:9126   */\n    tag_127:\n      0x00\n        /* \"#utility.yul\":8911:8913   */\n      0x20\n        /* \"#utility.yul\":8900:8909   */\n      dup3\n        /* \"#utility.yul\":8896:8914   */\n      add\n        /* \"#utility.yul\":8888:8914   */\n      swap1\n      pop\n        /* \"#utility.yul\":8960:8969   */\n      dup2\n        /* \"#utility.yul\":8954:8958   */\n      dup2\n        /* \"#utility.yul\":8950:8970   */\n      sub\n        /* \"#utility.yul\":8946:8947   */\n      0x00\n        /* \"#utility.yul\":8935:8944   */\n      dup4\n        /* \"#utility.yul\":8931:8948   */\n      add\n        /* \"#utility.yul\":8924:8971   */\n      mstore\n        /* \"#utility.yul\":8988:9119   */\n      tag_298\n        /* \"#utility.yul\":9114:9118   */\n      dup2\n        /* \"#utility.yul\":8988:9119   */\n      tag_242\n      jump\t// in\n    tag_298:\n        /* \"#utility.yul\":8980:9119   */\n      swap1\n      pop\n        /* \"#utility.yul\":8878:9126   */\n      swap2\n      swap1\n      pop\n      jump\t// out\n        /* \"#utility.yul\":9132:9551   */\n    tag_130:\n      0x00\n        /* \"#utility.yul\":9336:9338   */\n      0x20\n        /* \"#utility.yul\":9325:9334   */\n      dup3\n        /* \"#utility.yul\":9321:9339   */\n      add\n        /* \"#utility.yul\":9313:9339   */\n      swap1\n      pop\n        /* \"#utility.yul\":9385:9394   */\n      dup2\n        /* \"#utility.yul\":9379:9383   */\n      dup2\n        /* \"#utility.yul\":9375:9395   */\n      sub\n        /* \"#utility.yul\":9371:9372   */\n      0x00\n        /* \"#utility.yul\":9360:9369   */\n      dup4\n        /* \"#utility.yul\":9356:9373   */\n      add\n        /* \"#utility.yul\":9349:9396   */\n      mstore\n        /* \"#utility.yul\":9413:9544   */\n      tag_300\n        /* \"#utility.yul\":9539:9543   */\n      dup2\n        /* \"#utility.yul\":9413:9544   */\n      tag_247\n      jump\t// in\n    tag_300:\n        /* \"#utility.yul\":9405:9544   */\n      swap1\n      pop\n        /* \"#utility.yul\":9303:9551   */\n      swap2\n      swap1\n      pop\n      jump\t// out\n        /* \"#utility.yul\":9557:9976   */\n    tag_146:\n      0x00\n        /* \"#utility.yul\":9761:9763   */\n      0x20\n        /* \"#utility.yul\":9750:9759   */\n      dup3\n        /* \"#utility.yul\":9746:9764   */\n      add\n        /* \"#utility.yul\":9738:9764   */\n      swap1\n      pop\n        /* \"#utility.yul\":9810:9819   */\n      dup2\n        /* \"#utility.yul\":9804:9808   */\n      dup2\n        /* \"#utility.yul\":9800:9820   */\n      sub\n        /* \"#utility.yul\":9796:9797   */\n      0x00\n        /* \"#utility.yul\":9785:9794   */\n      dup4\n        /* \"#utility.yul\":9781:9798   */\n      add\n        /* \"#utility.yul\":9774:9821   */\n      mstore\n        /* \"#utility.yul\":9838:9969   */\n      tag_302\n        /* \"#utility.yul\":9964:9968   */\n      dup2\n        /* \"#utility.yul\":9838:9969   */\n      tag_252\n      jump\t// in\n    tag_302:\n        /* \"#utility.yul\":9830:9969   */\n      swap1\n      pop\n        /* \"#utility.yul\":9728:9976   */\n      swap2\n      swap1\n      pop\n      jump\t// out\n        /* \"#utility.yul\":9982:10401   */\n    tag_175:\n      0x00\n        /* \"#utility.yul\":10186:10188   */\n      0x20\n        /* \"#utility.yul\":10175:10184   */\n      dup3\n        /* \"#utility.yul\":10171:10189   */\n      add\n        /* \"#utility.yul\":10163:10189   */\n      swap1\n      pop\n        /* \"#utility.yul\":10235:10244   */\n      dup2\n        /* \"#utility.yul\":10229:10233   */\n      dup2\n        /* \"#utility.yul\":10225:10245   */\n      sub\n        /* \"#utility.yul\":10221:10222   */\n      0x00\n        /* \"#utility.yul\":10210:10219   */\n      dup4\n        /* \"#utility.yul\":10206:10223   */\n      add\n        /* \"#utility.yul\":10199:10246   */\n      mstore\n        /* \"#utility.yul\":10263:10394   */\n      tag_304\n        /* \"#utility.yul\":10389:10393   */\n      dup2\n        /* \"#utility.yul\":10263:10394   */\n      tag_257\n      jump\t// in\n    tag_304:\n        /* \"#utility.yul\":10255:10394   */\n      swap1\n      pop\n        /* \"#utility.yul\":10153:10401   */\n      swap2\n      swap1\n      pop\n      jump\t// out\n        /* \"#utility.yul\":10407:10826   */\n    tag_133:\n      0x00\n        /* \"#utility.yul\":10611:10613   */\n      0x20\n        /* \"#utility.yul\":10600:10609   */\n      dup3\n        /* \"#utility.yul\":10596:10614   */\n      add\n        /* \"#utility.yul\":10588:10614   */\n      swap1\n      pop\n        /* \"#utility.yul\":10660:10669   */\n      dup2\n        /* \"#utility.yul\":10654:10658   */\n      dup2\n        /* \"#utility.yul\":10650:10670   */\n      sub\n        /* \"#utility.yul\":10646:10647   */\n      0x00\n        /* \"#utility.yul\":10635:10644   */\n      dup4\n        /* \"#utility.yul\":10631:10648   */\n      add\n        /* \"#utility.yul\":10624:10671   */\n      mstore\n        /* \"#utility.yul\":10688:10819   */\n      tag_306\n        /* \"#utility.yul\":10814:10818   */\n      dup2\n        /* \"#utility.yul\":10688:10819   */\n      tag_262\n      jump\t// in\n    tag_306:\n        /* \"#utility.yul\":10680:10819   */\n      swap1\n      pop\n        /* \"#utility.yul\":10578:10826   */\n      swap2\n      swap1\n      pop\n      jump\t// out\n        /* \"#utility.yul\":10832:11251   */\n    tag_104:\n      0x00\n        /* \"#utility.yul\":11036:11038   */\n      0x20\n        /* \"#utility.yul\":11025:11034   */\n      dup3\n        /* \"#utility.yul\":11021:11039   */\n      add\n        /* \"#utility.yul\":11013:11039   */\n      swap1\n      pop\n        /* \"#utility.yul\":11085:11094   */\n      dup2\n        /* \"#utility.yul\":11079:11083   */\n      dup2\n        /* \"#utility.yul\":11075:11095   */\n      sub\n        /* \"#utility.yul\":11071:11072   */\n      0x00\n        /* \"#utility.yul\":11060:11069   */\n      dup4\n        /* \"#utility.yul\":11056:11073   */\n      add\n        /* \"#utility.yul\":11049:11096   */\n      mstore\n        /* \"#utility.yul\":11113:11244   */\n      tag_308\n        /* \"#utility.yul\":11239:11243   */\n      dup2\n        /* \"#utility.yul\":11113:11244   */\n      tag_267\n      jump\t// in\n    tag_308:\n        /* \"#utility.yul\":11105:11244   */\n      swap1\n      pop\n        /* \"#utility.yul\":11003:11251   */\n      swap2\n      swap1\n      pop\n      jump\t// out\n        /* \"#utility.yul\":11257:11676   */\n    tag_160:\n      0x00\n        /* \"#utility.yul\":11461:11463   */\n      0x20\n        /* \"#utility.yul\":11450:11459   */\n      dup3\n        /* \"#utility.yul\":11446:11464   */\n      add\n        /* \"#utility.yul\":11438:11464   */\n      swap1\n      pop\n        /* \"#utility.yul\":11510:11519   */\n      dup2\n        /* \"#utility.yul\":11504:11508   */\n      dup2\n        /* \"#utility.yul\":11500:11520   */\n      sub\n        /* \"#utility.yul\":11496:11497   */\n      0x00\n        /* \"#utility.yul\":11485:11494   */\n      dup4\n        /* \"#utility.yul\":11481:11498   */\n      add\n        /* \"#utility.yul\":11474:11521   */\n      mstore\n        /* \"#utility.yul\":11538:11669   */\n      tag_310\n        /* \"#utility.yul\":11664:11668   */\n      dup2\n        /* \"#utility.yul\":11538:11669   */\n      tag_272\n      jump\t// in\n    tag_310:\n        /* \"#utility.yul\":11530:11669   */\n      swap1\n      pop\n        /* \"#utility.yul\":11428:11676   */\n      swap2\n      swap1\n      pop\n      jump\t// out\n        /* \"#utility.yul\":11682:11904   */\n    tag_45:\n      0x00\n        /* \"#utility.yul\":11813:11815   */\n      0x20\n        /* \"#utility.yul\":11802:11811   */\n      dup3\n        /* \"#utility.yul\":11798:11816   */\n      add\n        /* \"#utility.yul\":11790:11816   */\n      swap1\n      pop\n        /* \"#utility.yul\":11826:11897   */\n      tag_312\n        /* \"#utility.yul\":11894:11895   */\n      0x00\n        /* \"#utility.yul\":11883:11892   */\n      dup4\n        /* \"#utility.yul\":11879:11896   */\n      add\n        /* \"#utility.yul\":11870:11876   */\n      dup5\n        /* \"#utility.yul\":11826:11897   */\n      tag_286\n      jump\t// in\n    tag_312:\n        /* \"#utility.yul\":11780:11904   */\n      swap3\n      swap2\n      pop\n      pop\n      jump\t// out\n        /* \"#utility.yul\":11910:12062   */\n    tag_220:\n      0x00\n        /* \"#utility.yul\":12020:12023   */\n      dup2\n        /* \"#utility.yul\":12012:12023   */\n      swap1\n      pop\n        /* \"#utility.yul\":12050:12054   */\n      0x20\n        /* \"#utility.yul\":12045:12048   */\n      dup3\n        /* \"#utility.yul\":12041:12055   */\n      add\n        /* \"#utility.yul\":12033:12055   */\n      swap1\n      pop\n        /* \"#utility.yul\":12002:12062   */\n      swap2\n      swap1\n      pop\n      jump\t// out\n        /* \"#utility.yul\":12068:12202   */\n    tag_216:\n      0x00\n        /* \"#utility.yul\":12189:12194   */\n      dup2\n        /* \"#utility.yul\":12183:12195   */\n      mload\n        /* \"#utility.yul\":12173:12195   */\n      swap1\n      pop\n        /* \"#utility.yul\":12162:12202   */\n      swap2\n      swap1\n      pop\n      jump\t// out\n        /* \"#utility.yul\":12208:12341   */\n    tag_226:\n      0x00\n        /* \"#utility.yul\":12330:12334   */\n      0x20\n        /* \"#utility.yul\":12325:12328   */\n      dup3\n        /* \"#utility.yul\":12321:12335   */\n      add\n        /* \"#utility.yul\":12313:12335   */\n      swap1\n      pop\n        /* \"#utility.yul\":12303:12341   */\n      swap2\n      swap1\n      pop\n      jump\t// out\n        /* \"#utility.yul\":12347:12551   */\n    tag_218:\n      0x00\n        /* \"#utility.yul\":12500:12506   */\n      dup3\n        /* \"#utility.yul\":12495:12498   */\n      dup3\n        /* \"#utility.yul\":12488:12507   */\n      mstore\n        /* \"#utility.yul\":12540:12544   */\n      0x20\n        /* \"#utility.yul\":12535:12538   */\n      dup3\n        /* \"#utility.yul\":12531:12545   */\n      add\n        /* \"#utility.yul\":12516:12545   */\n      swap1\n      pop\n        /* \"#utility.yul\":12478:12551   */\n      swap3\n      swap2\n      pop\n      pop\n      jump\t// out\n        /* \"#utility.yul\":12557:12726   */\n    tag_234:\n      0x00\n        /* \"#utility.yul\":12675:12681   */\n      dup3\n        /* \"#utility.yul\":12670:12673   */\n      dup3\n        /* \"#utility.yul\":12663:12682   */\n      mstore\n        /* \"#utility.yul\":12715:12719   */\n      0x20\n        /* \"#utility.yul\":12710:12713   */\n      dup3\n        /* \"#utility.yul\":12706:12720   */\n      add\n        /* \"#utility.yul\":12691:12720   */\n      swap1\n      pop\n        /* \"#utility.yul\":12653:12726   */\n      swap3\n      swap2\n      pop\n      pop\n      jump\t// out\n        /* \"#utility.yul\":12732:12917   */\n    tag_183:\n      0x00\n        /* \"#utility.yul\":12789:12809   */\n      tag_319\n        /* \"#utility.yul\":12807:12808   */\n      dup3\n        /* \"#utility.yul\":12789:12809   */\n      tag_285\n      jump\t// in\n    tag_319:\n        /* \"#utility.yul\":12784:12809   */\n      swap2\n      pop\n        /* \"#utility.yul\":12823:12843   */\n      tag_320\n        /* \"#utility.yul\":12841:12842   */\n      dup4\n        /* \"#utility.yul\":12823:12843   */\n      tag_285\n      jump\t// in\n    tag_320:\n        /* \"#utility.yul\":12818:12843   */\n      swap3\n      pop\n        /* \"#utility.yul\":12862:12863   */\n      dup3\n        /* \"#utility.yul\":12852:12854   */\n      tag_321\n      jumpi\n        /* \"#utility.yul\":12867:12885   */\n      tag_322\n      tag_323\n      jump\t// in\n    tag_322:\n        /* \"#utility.yul\":12852:12854   */\n    tag_321:\n        /* \"#utility.yul\":12909:12910   */\n      dup3\n        /* \"#utility.yul\":12906:12907   */\n      dup3\n        /* \"#utility.yul\":12902:12911   */\n      div\n        /* \"#utility.yul\":12897:12911   */\n      swap1\n      pop\n        /* \"#utility.yul\":12774:12917   */\n      swap3\n      swap2\n      pop\n      pop\n      jump\t// out\n        /* \"#utility.yul\":12923:13271   */\n    tag_181:\n      0x00\n        /* \"#utility.yul\":12986:13006   */\n      tag_325\n        /* \"#utility.yul\":13004:13005   */\n      dup3\n        /* \"#utility.yul\":12986:13006   */\n      tag_285\n      jump\t// in\n    tag_325:\n        /* \"#utility.yul\":12981:13006   */\n      swap2\n      pop\n        /* \"#utility.yul\":13020:13040   */\n      tag_326\n        /* \"#utility.yul\":13038:13039   */\n      dup4\n        /* \"#utility.yul\":13020:13040   */\n      tag_285\n      jump\t// in\n    tag_326:\n        /* \"#utility.yul\":13015:13040   */\n      swap3\n      pop\n        /* \"#utility.yul\":13208:13209   */\n      dup2\n        /* \"#utility.yul\":13140:13206   */\n      0xffffffffffffffffffffffffffffffffffffffffffffffffffffffffffffffff\n        /* \"#utility.yul\":13136:13210   */\n      div\n        /* \"#utility.yul\":13133:13134   */\n      dup4\n        /* \"#utility.yul\":13130:13211   */\n      gt\n        /* \"#utility.yul\":13125:13126   */\n      dup3\n        /* \"#utility.yul\":13118:13127   */\n      iszero\n        /* \"#utility.yul\":13111:13128   */\n      iszero\n        /* \"#utility.yul\":13107:13212   */\n      and\n        /* \"#utility.yul\":13104:13106   */\n      iszero\n      tag_327\n      jumpi\n        /* \"#utility.yul\":13215:13233   */\n      tag_328\n      tag_329\n      jump\t// in\n    tag_328:\n        /* \"#utility.yul\":13104:13106   */\n    tag_327:\n        /* \"#utility.yul\":13263:13264   */\n      dup3\n        /* \"#utility.yul\":13260:13261   */\n      dup3\n        /* \"#utility.yul\":13256:13265   */\n      mul\n        /* \"#utility.yul\":13245:13265   */\n      swap1\n      pop\n        /* \"#utility.yul\":12971:13271   */\n      swap3\n      swap2\n      pop\n      pop\n      jump\t// out\n        /* \"#utility.yul\":13277:13468   */\n    tag_185:\n      0x00\n        /* \"#utility.yul\":13337:13357   */\n      tag_331\n        /* \"#utility.yul\":13355:13356   */\n      dup3\n        /* \"#utility.yul\":13337:13357   */\n      tag_285\n      jump\t// in\n    tag_331:\n        /* \"#utility.yul\":13332:13357   */\n      swap2\n      pop\n        /* \"#utility.yul\":13371:13391   */\n      tag_332\n        /* \"#utility.yul\":13389:13390   */\n      dup4\n        /* \"#utility.yul\":13371:13391   */\n      tag_285\n      jump\t// in\n    tag_332:\n        /* \"#utility.yul\":13366:13391   */\n      swap3\n      pop\n        /* \"#utility.yul\":13410:13411   */\n      dup3\n        /* \"#utility.yul\":13407:13408   */\n      dup3\n        /* \"#utility.yul\":13404:13412   */\n      lt\n        /* \"#utility.yul\":13401:13403   */\n      iszero\n      tag_333\n      jumpi\n        /* \"#utility.yul\":13415:13433   */\n      tag_334\n      tag_329\n      jump\t// in\n    tag_334:\n        /* \"#utility.yul\":13401:13403   */\n    tag_333:\n        /* \"#utility.yul\":13460:13461   */\n      dup3\n        /* \"#utility.yul\":13457:13458   */\n      dup3\n        /* \"#utility.yul\":13453:13462   */\n      sub\n        /* \"#utility.yul\":13445:13462   */\n      swap1\n      pop\n        /* \"#utility.yul\":13322:13468   */\n      swap3\n      swap2\n      pop\n      pop\n      jump\t// out\n        /* \"#utility.yul\":13474:13570   */\n    tag_212:\n      0x00\n        /* \"#utility.yul\":13540:13564   */\n      tag_336\n        /* \"#utility.yul\":13558:13563   */\n      dup3\n        /* \"#utility.yul\":13540:13564   */\n      tag_337\n      jump\t// in\n    tag_336:\n        /* \"#utility.yul\":13529:13564   */\n      swap1\n      pop\n        /* \"#utility.yul\":13519:13570   */\n      swap2\n      swap1\n      pop\n      jump\t// out\n        /* \"#utility.yul\":13576:13666   */\n    tag_230:\n      0x00\n        /* \"#utility.yul\":13653:13658   */\n      dup2\n        /* \"#utility.yul\":13646:13659   */\n      iszero\n        /* \"#utility.yul\":13639:13660   */\n      iszero\n        /* \"#utility.yul\":13628:13660   */\n      swap1\n      pop\n        /* \"#utility.yul\":13618:13666   */\n      swap2\n      swap1\n      pop\n      jump\t// out\n        /* \"#utility.yul\":13672:13798   */\n    tag_337:\n      0x00\n        /* \"#utility.yul\":13749:13791   */\n      0xffffffffffffffffffffffffffffffffffffffff\n        /* \"#utility.yul\":13742:13747   */\n      dup3\n        /* \"#utility.yul\":13738:13792   */\n      and\n        /* \"#utility.yul\":13727:13792   */\n      swap1\n      pop\n        /* \"#utility.yul\":13717:13798   */\n      swap2\n      swap1\n      pop\n      jump\t// out\n        /* \"#utility.yul\":13804:13881   */\n    tag_285:\n      0x00\n        /* \"#utility.yul\":13870:13875   */\n      dup2\n        /* \"#utility.yul\":13859:13875   */\n      swap1\n      pop\n        /* \"#utility.yul\":13849:13881   */\n      swap2\n      swap1\n      pop\n      jump\t// out\n        /* \"#utility.yul\":13887:14120   */\n    tag_83:\n      0x00\n        /* \"#utility.yul\":13949:13973   */\n      tag_342\n        /* \"#utility.yul\":13967:13972   */\n      dup3\n        /* \"#utility.yul\":13949:13973   */\n      tag_285\n      jump\t// in\n    tag_342:\n        /* \"#utility.yul\":13940:13973   */\n      swap2\n      pop\n        /* \"#utility.yul\":13995:14061   */\n      0xffffffffffffffffffffffffffffffffffffffffffffffffffffffffffffffff\n        /* \"#utility.yul\":13988:13993   */\n      dup3\n        /* \"#utility.yul\":13985:14062   */\n      eq\n        /* \"#utility.yul\":13982:13984   */\n      iszero\n      tag_343\n      jumpi\n        /* \"#utility.yul\":14065:14083   */\n      tag_344\n      tag_329\n      jump\t// in\n    tag_344:\n        /* \"#utility.yul\":13982:13984   */\n    tag_343:\n        /* \"#utility.yul\":14112:14113   */\n      0x01\n        /* \"#utility.yul\":14105:14110   */\n      dup3\n        /* \"#utility.yul\":14101:14114   */\n      add\n        /* \"#utility.yul\":14094:14114   */\n      swap1\n      pop\n        /* \"#utility.yul\":13930:14120   */\n      swap2\n      swap1\n      pop\n      jump\t// out\n        /* \"#utility.yul\":14126:14306   */\n    tag_329:\n        /* \"#utility.yul\":14174:14251   */\n      0x4e487b7100000000000000000000000000000000000000000000000000000000\n        /* \"#utility.yul\":14171:14172   */\n      0x00\n        /* \"#utility.yul\":14164:14252   */\n      mstore\n        /* \"#utility.yul\":14271:14275   */\n      0x11\n        /* \"#utility.yul\":14268:14269   */\n      0x04\n        /* \"#utility.yul\":14261:14276   */\n      mstore\n        /* \"#utility.yul\":14295:14299   */\n      0x24\n        /* \"#utility.yul\":14292:14293   */\n      0x00\n        /* \"#utility.yul\":14285:14300   */\n      revert\n        /* \"#utility.yul\":14312:14492   */\n    tag_323:\n        /* \"#utility.yul\":14360:14437   */\n      0x4e487b7100000000000000000000000000000000000000000000000000000000\n        /* \"#utility.yul\":14357:14358   */\n      0x00\n        /* \"#utility.yul\":14350:14438   */\n      mstore\n        /* \"#utility.yul\":14457:14461   */\n      0x12\n        /* \"#utility.yul\":14454:14455   */\n      0x04\n        /* \"#utility.yul\":14447:14462   */\n      mstore\n        /* \"#utility.yul\":14481:14485   */\n      0x24\n        /* \"#utility.yul\":14478:14479   */\n      0x00\n        /* \"#utility.yul\":14471:14486   */\n      revert\n        /* \"#utility.yul\":14498:14667   */\n    tag_236:\n        /* \"#utility.yul\":14638:14659   */\n      0x746f6b656e2069736e277420746f2073656c6c00000000000000000000000000\n        /* \"#utility.yul\":14634:14635   */\n      0x00\n        /* \"#utility.yul\":14626:14632   */\n      dup3\n        /* \"#utility.yul\":14622:14636   */\n      add\n        /* \"#utility.yul\":14615:14660   */\n      mstore\n        /* \"#utility.yul\":14604:14667   */\n      pop\n      jump\t// out\n        /* \"#utility.yul\":14673:14842   */\n    tag_241:\n        /* \"#utility.yul\":14813:14834   */\n      0x746f6b656e20616c726561647920657869737400000000000000000000000000\n        /* \"#utility.yul\":14809:14810   */\n      0x00\n        /* \"#utility.yul\":14801:14807   */\n      dup3\n        /* \"#utility.yul\":14797:14811   */\n      add\n        /* \"#utility.yul\":14790:14835   */\n      mstore\n        /* \"#utility.yul\":14779:14842   */\n      pop\n      jump\t// out\n        /* \"#utility.yul\":14848:15088   */\n    tag_246:\n        /* \"#utility.yul\":14988:15022   */\n      0x7472616e73616374696f6e27732076616c75652063616e6e6f74206265206469\n        /* \"#utility.yul\":14984:14985   */\n      0x00\n        /* \"#utility.yul\":14976:14982   */\n      dup3\n        /* \"#utility.yul\":14972:14986   */\n      add\n        /* \"#utility.yul\":14965:15023   */\n      mstore\n        /* \"#utility.yul\":15057:15080   */\n      0x66666572656e74206f66206974656d2070726963650000000000000000000000\n        /* \"#utility.yul\":15052:15054   */\n      0x20\n        /* \"#utility.yul\":15044:15050   */\n      dup3\n        /* \"#utility.yul\":15040:15055   */\n      add\n        /* \"#utility.yul\":15033:15081   */\n      mstore\n        /* \"#utility.yul\":14954:15088   */\n      pop\n      jump\t// out\n        /* \"#utility.yul\":15094:15263   */\n    tag_251:\n        /* \"#utility.yul\":15234:15255   */\n      0x746f6b656e20646f65736e277420657869737400000000000000000000000000\n        /* \"#utility.yul\":15230:15231   */\n      0x00\n        /* \"#utility.yul\":15222:15228   */\n      dup3\n        /* \"#utility.yul\":15218:15232   */\n      add\n        /* \"#utility.yul\":15211:15256   */\n      mstore\n        /* \"#utility.yul\":15200:15263   */\n      pop\n      jump\t// out\n        /* \"#utility.yul\":15269:15448   */\n    tag_256:\n        /* \"#utility.yul\":15409:15440   */\n      0x4f6e6c79206974656d2773206f776e65722063616e20646f2074686174000000\n        /* \"#utility.yul\":15405:15406   */\n      0x00\n        /* \"#utility.yul\":15397:15403   */\n      dup3\n        /* \"#utility.yul\":15393:15407   */\n      add\n        /* \"#utility.yul\":15386:15441   */\n      mstore\n        /* \"#utility.yul\":15375:15448   */\n      pop\n      jump\t// out\n        /* \"#utility.yul\":15454:15628   */\n    tag_261:\n        /* \"#utility.yul\":15594:15620   */\n      0x746f6b656e20697320616c726561647920746f2073656c6c0000000000000000\n        /* \"#utility.yul\":15590:15591   */\n      0x00\n        /* \"#utility.yul\":15582:15588   */\n      dup3\n        /* \"#utility.yul\":15578:15592   */\n      add\n        /* \"#utility.yul\":15571:15621   */\n      mstore\n        /* \"#utility.yul\":15560:15628   */\n      pop\n      jump\t// out\n        /* \"#utility.yul\":15634:15796   */\n    tag_266:\n        /* \"#utility.yul\":15774:15788   */\n      0x596f752063616e27742073650000000000000000000000000000000000000000\n        /* \"#utility.yul\":15770:15771   */\n      0x00\n        /* \"#utility.yul\":15762:15768   */\n      dup3\n        /* \"#utility.yul\":15758:15772   */\n      add\n        /* \"#utility.yul\":15751:15789   */\n      mstore\n        /* \"#utility.yul\":15740:15796   */\n      pop\n      jump\t// out\n        /* \"#utility.yul\":15802:16022   */\n    tag_271:\n        /* \"#utility.yul\":15942:15976   */\n      0x4f6e6c7920636f6e74726163742773206f776e65722063616e20646f20746861\n        /* \"#utility.yul\":15938:15939   */\n      0x00\n        /* \"#utility.yul\":15930:15936   */\n      dup3\n        /* \"#utility.yul\":15926:15940   */\n      add\n        /* \"#utility.yul\":15919:15977   */\n      mstore\n        /* \"#utility.yul\":16011:16014   */\n      0x7400000000000000000000000000000000000000000000000000000000000000\n        /* \"#utility.yul\":16006:16008   */\n      0x20\n        /* \"#utility.yul\":15998:16004   */\n      dup3\n        /* \"#utility.yul\":15994:16009   */\n      add\n        /* \"#utility.yul\":15987:16015   */\n      mstore\n        /* \"#utility.yul\":15908:16022   */\n      pop\n      jump\t// out\n        /* \"#utility.yul\":16028:16204   */\n    tag_276:\n        /* \"#utility.yul\":16168:16196   */\n      0x50726963652063616e6e6f7420626520657175616c20746f2030000000000000\n        /* \"#utility.yul\":16164:16165   */\n      0x00\n        /* \"#utility.yul\":16156:16162   */\n      dup3\n        /* \"#utility.yul\":16152:16166   */\n      add\n        /* \"#utility.yul\":16145:16197   */\n      mstore\n        /* \"#utility.yul\":16134:16204   */\n      pop\n      jump\t// out\n        /* \"#utility.yul\":16210:16332   */\n    tag_190:\n        /* \"#utility.yul\":16283:16307   */\n      tag_357\n        /* \"#utility.yul\":16301:16306   */\n      dup2\n        /* \"#utility.yul\":16283:16307   */\n      tag_212\n      jump\t// in\n    tag_357:\n        /* \"#utility.yul\":16276:16281   */\n      dup2\n        /* \"#utility.yul\":16273:16308   */\n      eq\n        /* \"#utility.yul\":16263:16265   */\n      tag_358\n      jumpi\n        /* \"#utility.yul\":16322:16323   */\n      0x00\n        /* \"#utility.yul\":16319:16320   */\n      dup1\n        /* \"#utility.yul\":16312:16324   */\n      revert\n        /* \"#utility.yul\":16263:16265   */\n    tag_358:\n        /* \"#utility.yul\":16253:16332   */\n      pop\n      jump\t// out\n        /* \"#utility.yul\":16338:16460   */\n    tag_194:\n        /* \"#utility.yul\":16411:16435   */\n      tag_360\n        /* \"#utility.yul\":16429:16434   */\n      dup2\n        /* \"#utility.yul\":16411:16435   */\n      tag_285\n      jump\t// in\n    tag_360:\n        /* \"#utility.yul\":16404:16409   */\n      dup2\n        /* \"#utility.yul\":16401:16436   */\n      eq\n        /* \"#utility.yul\":16391:16393   */\n      tag_361\n      jumpi\n        /* \"#utility.yul\":16450:16451   */\n      0x00\n        /* \"#utility.yul\":16447:16448   */\n      dup1\n        /* \"#utility.yul\":16440:16452   */\n      revert\n        /* \"#utility.yul\":16391:16393   */\n    tag_361:\n        /* \"#utility.yul\":16381:16460   */\n      pop\n      jump\t// out\n\n    auxdata: 0xa264697066735822122006fac28b27032b018d62284a67d410e7a9d93e94e4b0c4948e391dc26ce6345064736f6c63430008010033\n}\n",
				"bytecode": {
					"linkReferences": {},
					"object": "60806040523480156200001157600080fd5b5033600260006101000a81548173ffffffffffffffffffffffffffffffffffffffff021916908373ffffffffffffffffffffffffffffffffffffffff1602179055506040518060400160405280600b81526020017f4765656b20546f6b656e7300000000000000000000000000000000000000000081525060009080519060200190620000a0929190620000f5565b506040518060400160405280600581526020017f4745454b5400000000000000000000000000000000000000000000000000000081525060019080519060200190620000ee929190620000f5565b506200020a565b8280546200010390620001a5565b90600052602060002090601f01602090048101928262000127576000855562000173565b82601f106200014257805160ff191683800117855562000173565b8280016001018555821562000173579182015b828111156200017257825182559160200191906001019062000155565b5b50905062000182919062000186565b5090565b5b80821115620001a157600081600090555060010162000187565b5090565b60006002820490506001821680620001be57607f821691505b60208210811415620001d557620001d4620001db565b5b50919050565b7f4e487b7100000000000000000000000000000000000000000000000000000000600052602260045260246000fd5b611ea9806200021a6000396000f3fe60806040526004361061009c5760003560e01c806370a082311161006457806370a082311461019a57806391b6be9a146101d7578063a4964c33146101f3578063adae08dd1461021c578063c0f202ef14610259578063ea0ff14a146102825761009c565b8063073e74df146100a15780632165e65a146100cc57806329de6246146101095780634cad2ffc146101325780636352211e1461015d575b600080fd5b3480156100ad57600080fd5b506100b66102ad565b6040516100c39190611933565b60405180910390f35b3480156100d857600080fd5b506100f360048036038101906100ee9190611671565b6104a0565b6040516101009190611933565b60405180910390f35b34801561011557600080fd5b50610130600480360381019061012b9190611671565b610694565b005b34801561013e57600080fd5b5061014761072e565b6040516101549190611933565b60405180910390f35b34801561016957600080fd5b50610184600480360381019061017f9190611671565b610960565b6040516101919190611918565b60405180910390f35b3480156101a657600080fd5b506101c160048036038101906101bc9190611648565b61099d565b6040516101ce9190611a75565b60405180910390f35b6101f160048036038101906101ec9190611671565b6109e6565b005b3480156101ff57600080fd5b5061021a60048036038101906102159190611671565b610e90565b005b34801561022857600080fd5b50610243600480360381019061023e919061169a565b6110ef565b6040516102509190611a75565b60405180910390f35b34801561026557600080fd5b50610280600480360381019061027b9190611671565b61134e565b005b34801561028e57600080fd5b506102976115ac565b6040516102a49190611a75565b60405180910390f35b606060008060045467ffffffffffffffff8111156102f4577f4e487b7100000000000000000000000000000000000000000000000000000000600052604160045260246000fd5b60405190808252806020026020018201604052801561032d57816020015b61031a6115f4565b8152602001906001900390816103125790505b50905060005b60038054905081101561049757600115156003828154811061037e577f4e487b7100000000000000000000000000000000000000000000000000000000600052603260045260246000fd5b906000526020600020906004020160030160009054906101000a900460ff161515141561048457600381815481106103df577f4e487b7100000000000000000000000000000000000000000000000000000000600052603260045260246000fd5b90600052602060002090600402016040518060800160405290816000820154815260200160018201548152602001600282015481526020016003820160009054906101000a900460ff16151515158152505082848151811061046a577f4e487b7100000000000000000000000000000000000000000000000000000000600052603260045260246000fd5b6020026020010181905250828061048090611be1565b9350505b808061048f90611be1565b915050610333565b50809250505090565b6060600080600860008581526020019081526020016000205467ffffffffffffffff8111156104f8577f4e487b7100000000000000000000000000000000000000000000000000000000600052604160045260246000fd5b60405190808252806020026020018201604052801561053157816020015b61051e6115f4565b8152602001906001900390816105165790505b50905060005b60038054905081101561068957846003828154811061057f577f4e487b7100000000000000000000000000000000000000000000000000000000600052603260045260246000fd5b906000526020600020906004020160020154141561067657600381815481106105d1577f4e487b7100000000000000000000000000000000000000000000000000000000600052603260045260246000fd5b90600052602060002090600402016040518060800160405290816000820154815260200160018201548152602001600282015481526020016003820160009054906101000a900460ff16151515158152505082848151811061065c577f4e487b7100000000000000000000000000000000000000000000000000000000600052603260045260246000fd5b6020026020010181905250828061067290611be1565b9350505b808061068190611be1565b915050610537565b508092505050919050565b600260009054906101000a900473ffffffffffffffffffffffffffffffffffffffff1673ffffffffffffffffffffffffffffffffffffffff163373ffffffffffffffffffffffffffffffffffffffff1614610724576040517f08c379a000000000000000000000000000000000000000000000000000000000815260040161071b90611a35565b60405180910390fd5b8060058190555050565b6060600080600760003373ffffffffffffffffffffffffffffffffffffffff1673ffffffffffffffffffffffffffffffffffffffff1681526020019081526020016000205467ffffffffffffffff8111156107b2577f4e487b7100000000000000000000000000000000000000000000000000000000600052604160045260246000fd5b6040519080825280602002602001820160405280156107eb57816020015b6107d86115f4565b8152602001906001900390816107d05790505b50905060005b600380549050811015610957573373ffffffffffffffffffffffffffffffffffffffff166006600083815260200190815260200160002060009054906101000a900473ffffffffffffffffffffffffffffffffffffffff1673ffffffffffffffffffffffffffffffffffffffff161415610944576003818154811061089f577f4e487b7100000000000000000000000000000000000000000000000000000000600052603260045260246000fd5b90600052602060002090600402016040518060800160405290816000820154815260200160018201548152602001600282015481526020016003820160009054906101000a900460ff16151515158152505082848151811061092a577f4e487b7100000000000000000000000000000000000000000000000000000000600052603260045260246000fd5b6020026020010181905250828061094090611be1565b9350505b808061094f90611be1565b9150506107f1565b50809250505090565b60006006600083815260200190815260200160002060009054906101000a900473ffffffffffffffffffffffffffffffffffffffff169050919050565b6000600760008373ffffffffffffffffffffffffffffffffffffffff1673ffffffffffffffffffffffffffffffffffffffff168152602001908152602001600020549050919050565b60038181548110610a20577f4e487b7100000000000000000000000000000000000000000000000000000000600052603260045260246000fd5b9060005260206000209060040201600101543414610a73576040517f08c379a0000000000000000000000000000000000000000000000000000000008152600401610a6a90611995565b60405180910390fd5b600073ffffffffffffffffffffffffffffffffffffffff166006600083815260200190815260200160002060009054906101000a900473ffffffffffffffffffffffffffffffffffffffff1673ffffffffffffffffffffffffffffffffffffffff161415610b16576040517f08c379a0000000000000000000000000000000000000000000000000000000008152600401610b0d906119b5565b60405180910390fd5b3373ffffffffffffffffffffffffffffffffffffffff166006600083815260200190815260200160002060009054906101000a900473ffffffffffffffffffffffffffffffffffffffff1673ffffffffffffffffffffffffffffffffffffffff161415610bb8576040517f08c379a0000000000000000000000000000000000000000000000000000000008152600401610baf90611a15565b60405180910390fd5b60006006600083815260200190815260200160002060009054906101000a900473ffffffffffffffffffffffffffffffffffffffff169050600060038381548110610c2c577f4e487b7100000000000000000000000000000000000000000000000000000000600052603260045260246000fd5b9060005260206000209060040201905060008160030160006101000a81548160ff021916908315150217905550336006600085815260200190815260200160002060006101000a81548173ffffffffffffffffffffffffffffffffffffffff021916908373ffffffffffffffffffffffffffffffffffffffff160217905550600760008373ffffffffffffffffffffffffffffffffffffffff1673ffffffffffffffffffffffffffffffffffffffff1681526020019081526020016000206000815480929190600190039190505550600760003373ffffffffffffffffffffffffffffffffffffffff1673ffffffffffffffffffffffffffffffffffffffff1681526020019081526020016000206000815480929190600101919050555060046000815480929190600190039190505550600080610d6c346005546115b6565b8092508193505050600260009054906101000a900473ffffffffffffffffffffffffffffffffffffffff1673ffffffffffffffffffffffffffffffffffffffff166108fc839081150290604051600060405180830381858888f19350505050158015610ddc573d6000803e3d6000fd5b508373ffffffffffffffffffffffffffffffffffffffff166108fc829081150290604051600060405180830381858888f19350505050158015610e23573d6000803e3d6000fd5b503373ffffffffffffffffffffffffffffffffffffffff168473ffffffffffffffffffffffffffffffffffffffff167fddf252ad1be2c89b69c2b068fc378daa952ba7f163c4a11628f55a4df523b3ef87604051610e819190611a75565b60405180910390a35050505050565b803373ffffffffffffffffffffffffffffffffffffffff166006600083815260200190815260200160002060009054906101000a900473ffffffffffffffffffffffffffffffffffffffff1673ffffffffffffffffffffffffffffffffffffffff1614610f32576040517f08c379a0000000000000000000000000000000000000000000000000000000008152600401610f29906119d5565b60405180910390fd5b600073ffffffffffffffffffffffffffffffffffffffff166006600084815260200190815260200160002060009054906101000a900473ffffffffffffffffffffffffffffffffffffffff1673ffffffffffffffffffffffffffffffffffffffff161415610fd5576040517f08c379a0000000000000000000000000000000000000000000000000000000008152600401610fcc906119b5565b60405180910390fd5b6001151560038381548110611013577f4e487b7100000000000000000000000000000000000000000000000000000000600052603260045260246000fd5b906000526020600020906004020160030160009054906101000a900460ff16151514611074576040517f08c379a000000000000000000000000000000000000000000000000000000000815260040161106b90611955565b60405180910390fd5b6000600383815481106110b0577f4e487b7100000000000000000000000000000000000000000000000000000000600052603260045260246000fd5b906000526020600020906004020160030160006101000a81548160ff021916908315150217905550600460008154809291906001900391905055505050565b6000808311611133576040517f08c379a000000000000000000000000000000000000000000000000000000000815260040161112a90611a55565b60405180910390fd5b60006003805490509050600073ffffffffffffffffffffffffffffffffffffffff166006600083815260200190815260200160002060009054906101000a900473ffffffffffffffffffffffffffffffffffffffff1673ffffffffffffffffffffffffffffffffffffffff16146111df576040517f08c379a00000000000000000000000000000000000000000000000000000000081526004016111d690611975565b60405180910390fd5b6003604051806080016040528083815260200186815260200185815260200160011515815250908060018154018082558091505060019003906000526020600020906004020160009091909190915060008201518160000155602082015181600101556040820151816002015560608201518160030160006101000a81548160ff0219169083151502179055505050336006600083815260200190815260200160002060006101000a81548173ffffffffffffffffffffffffffffffffffffffff021916908373ffffffffffffffffffffffffffffffffffffffff160217905550600760003373ffffffffffffffffffffffffffffffffffffffff1673ffffffffffffffffffffffffffffffffffffffff1681526020019081526020016000206000815480929190600101919050555060086000848152602001908152602001600020600081548092919060010191905055506004600081548092919060010191905055508091505092915050565b803373ffffffffffffffffffffffffffffffffffffffff166006600083815260200190815260200160002060009054906101000a900473ffffffffffffffffffffffffffffffffffffffff1673ffffffffffffffffffffffffffffffffffffffff16146113f0576040517f08c379a00000000000000000000000000000000000000000000000000000000081526004016113e7906119d5565b60405180910390fd5b600073ffffffffffffffffffffffffffffffffffffffff166006600084815260200190815260200160002060009054906101000a900473ffffffffffffffffffffffffffffffffffffffff1673ffffffffffffffffffffffffffffffffffffffff161415611493576040517f08c379a000000000000000000000000000000000000000000000000000000000815260040161148a906119b5565b60405180910390fd5b60001515600383815481106114d1577f4e487b7100000000000000000000000000000000000000000000000000000000600052603260045260246000fd5b906000526020600020906004020160030160009054906101000a900460ff16151514611532576040517f08c379a0000000000000000000000000000000000000000000000000000000008152600401611529906119f5565b60405180910390fd5b60016003838154811061156e577f4e487b7100000000000000000000000000000000000000000000000000000000600052603260045260246000fd5b906000526020600020906004020160030160006101000a81548160ff0219169083151502179055506004600081548092919060010191905055505050565b6000600554905090565b6000806000606485856115c99190611b0b565b6115d39190611ada565b9050600081866115e39190611b65565b905081819350935050509250929050565b60405180608001604052806000815260200160008152602001600081526020016000151581525090565b60008135905061162d81611e45565b92915050565b60008135905061164281611e5c565b92915050565b60006020828403121561165a57600080fd5b60006116688482850161161e565b91505092915050565b60006020828403121561168357600080fd5b600061169184828501611633565b91505092915050565b600080604083850312156116ad57600080fd5b60006116bb85828601611633565b92505060206116cc85828601611633565b9150509250929050565b60006116e283836118a5565b60808301905092915050565b6116f781611b99565b82525050565b600061170882611aa0565b6117128185611ab8565b935061171d83611a90565b8060005b8381101561174e57815161173588826116d6565b975061174083611aab565b925050600181019050611721565b5085935050505092915050565b61176481611bab565b82525050565b6000611777601383611ac9565b915061178282611c88565b602082019050919050565b600061179a601383611ac9565b91506117a582611cb1565b602082019050919050565b60006117bd603583611ac9565b91506117c882611cda565b604082019050919050565b60006117e0601383611ac9565b91506117eb82611d29565b602082019050919050565b6000611803601d83611ac9565b915061180e82611d52565b602082019050919050565b6000611826601883611ac9565b915061183182611d7b565b602082019050919050565b6000611849600c83611ac9565b915061185482611da4565b602082019050919050565b600061186c602183611ac9565b915061187782611dcd565b604082019050919050565b600061188f601a83611ac9565b915061189a82611e1c565b602082019050919050565b6080820160008201516118bb60008501826118fa565b5060208201516118ce60208501826118fa565b5060408201516118e160408501826118fa565b5060608201516118f4606085018261175b565b50505050565b61190381611bd7565b82525050565b61191281611bd7565b82525050565b600060208201905061192d60008301846116ee565b92915050565b6000602082019050818103600083015261194d81846116fd565b905092915050565b6000602082019050818103600083015261196e8161176a565b9050919050565b6000602082019050818103600083015261198e8161178d565b9050919050565b600060208201905081810360008301526119ae816117b0565b9050919050565b600060208201905081810360008301526119ce816117d3565b9050919050565b600060208201905081810360008301526119ee816117f6565b9050919050565b60006020820190508181036000830152611a0e81611819565b9050919050565b60006020820190508181036000830152611a2e8161183c565b9050919050565b60006020820190508181036000830152611a4e8161185f565b9050919050565b60006020820190508181036000830152611a6e81611882565b9050919050565b6000602082019050611a8a6000830184611909565b92915050565b6000819050602082019050919050565b600081519050919050565b6000602082019050919050565b600082825260208201905092915050565b600082825260208201905092915050565b6000611ae582611bd7565b9150611af083611bd7565b925082611b0057611aff611c59565b5b828204905092915050565b6000611b1682611bd7565b9150611b2183611bd7565b9250817fffffffffffffffffffffffffffffffffffffffffffffffffffffffffffffffff0483118215151615611b5a57611b59611c2a565b5b828202905092915050565b6000611b7082611bd7565b9150611b7b83611bd7565b925082821015611b8e57611b8d611c2a565b5b828203905092915050565b6000611ba482611bb7565b9050919050565b60008115159050919050565b600073ffffffffffffffffffffffffffffffffffffffff82169050919050565b6000819050919050565b6000611bec82611bd7565b91507fffffffffffffffffffffffffffffffffffffffffffffffffffffffffffffffff821415611c1f57611c1e611c2a565b5b600182019050919050565b7f4e487b7100000000000000000000000000000000000000000000000000000000600052601160045260246000fd5b7f4e487b7100000000000000000000000000000000000000000000000000000000600052601260045260246000fd5b7f746f6b656e2069736e277420746f2073656c6c00000000000000000000000000600082015250565b7f746f6b656e20616c726561647920657869737400000000000000000000000000600082015250565b7f7472616e73616374696f6e27732076616c75652063616e6e6f7420626520646960008201527f66666572656e74206f66206974656d2070726963650000000000000000000000602082015250565b7f746f6b656e20646f65736e277420657869737400000000000000000000000000600082015250565b7f4f6e6c79206974656d2773206f776e65722063616e20646f2074686174000000600082015250565b7f746f6b656e20697320616c726561647920746f2073656c6c0000000000000000600082015250565b7f596f752063616e27742073650000000000000000000000000000000000000000600082015250565b7f4f6e6c7920636f6e74726163742773206f776e65722063616e20646f2074686160008201527f7400000000000000000000000000000000000000000000000000000000000000602082015250565b7f50726963652063616e6e6f7420626520657175616c20746f2030000000000000600082015250565b611e4e81611b99565b8114611e5957600080fd5b50565b611e6581611bd7565b8114611e7057600080fd5b5056fea264697066735822122006fac28b27032b018d62284a67d410e7a9d93e94e4b0c4948e391dc26ce6345064736f6c63430008010033",
					"opcodes": "PUSH1 0x80 PUSH1 0x40 MSTORE CALLVALUE DUP1 ISZERO PUSH3 0x11 JUMPI PUSH1 0x0 DUP1 REVERT JUMPDEST POP CALLER PUSH1 0x2 PUSH1 0x0 PUSH2 0x100 EXP DUP2 SLOAD DUP2 PUSH20 0xFFFFFFFFFFFFFFFFFFFFFFFFFFFFFFFFFFFFFFFF MUL NOT AND SWAP1 DUP4 PUSH20 0xFFFFFFFFFFFFFFFFFFFFFFFFFFFFFFFFFFFFFFFF AND MUL OR SWAP1 SSTORE POP PUSH1 0x40 MLOAD DUP1 PUSH1 0x40 ADD PUSH1 0x40 MSTORE DUP1 PUSH1 0xB DUP2 MSTORE PUSH1 0x20 ADD PUSH32 0x4765656B20546F6B656E73000000000000000000000000000000000000000000 DUP2 MSTORE POP PUSH1 0x0 SWAP1 DUP1 MLOAD SWAP1 PUSH1 0x20 ADD SWAP1 PUSH3 0xA0 SWAP3 SWAP2 SWAP1 PUSH3 0xF5 JUMP JUMPDEST POP PUSH1 0x40 MLOAD DUP1 PUSH1 0x40 ADD PUSH1 0x40 MSTORE DUP1 PUSH1 0x5 DUP2 MSTORE PUSH1 0x20 ADD PUSH32 0x4745454B54000000000000000000000000000000000000000000000000000000 DUP2 MSTORE POP PUSH1 0x1 SWAP1 DUP1 MLOAD SWAP1 PUSH1 0x20 ADD SWAP1 PUSH3 0xEE SWAP3 SWAP2 SWAP1 PUSH3 0xF5 JUMP JUMPDEST POP PUSH3 0x20A JUMP JUMPDEST DUP3 DUP1 SLOAD PUSH3 0x103 SWAP1 PUSH3 0x1A5 JUMP JUMPDEST SWAP1 PUSH1 0x0 MSTORE PUSH1 0x20 PUSH1 0x0 KECCAK256 SWAP1 PUSH1 0x1F ADD PUSH1 0x20 SWAP1 DIV DUP2 ADD SWAP3 DUP3 PUSH3 0x127 JUMPI PUSH1 0x0 DUP6 SSTORE PUSH3 0x173 JUMP JUMPDEST DUP3 PUSH1 0x1F LT PUSH3 0x142 JUMPI DUP1 MLOAD PUSH1 0xFF NOT AND DUP4 DUP1 ADD OR DUP6 SSTORE PUSH3 0x173 JUMP JUMPDEST DUP3 DUP1 ADD PUSH1 0x1 ADD DUP6 SSTORE DUP3 ISZERO PUSH3 0x173 JUMPI SWAP2 DUP3 ADD JUMPDEST DUP3 DUP2 GT ISZERO PUSH3 0x172 JUMPI DUP3 MLOAD DUP3 SSTORE SWAP2 PUSH1 0x20 ADD SWAP2 SWAP1 PUSH1 0x1 ADD SWAP1 PUSH3 0x155 JUMP JUMPDEST JUMPDEST POP SWAP1 POP PUSH3 0x182 SWAP2 SWAP1 PUSH3 0x186 JUMP JUMPDEST POP SWAP1 JUMP JUMPDEST JUMPDEST DUP1 DUP3 GT ISZERO PUSH3 0x1A1 JUMPI PUSH1 0x0 DUP2 PUSH1 0x0 SWAP1 SSTORE POP PUSH1 0x1 ADD PUSH3 0x187 JUMP JUMPDEST POP SWAP1 JUMP JUMPDEST PUSH1 0x0 PUSH1 0x2 DUP3 DIV SWAP1 POP PUSH1 0x1 DUP3 AND DUP1 PUSH3 0x1BE JUMPI PUSH1 0x7F DUP3 AND SWAP2 POP JUMPDEST PUSH1 0x20 DUP3 LT DUP2 EQ ISZERO PUSH3 0x1D5 JUMPI PUSH3 0x1D4 PUSH3 0x1DB JUMP JUMPDEST JUMPDEST POP SWAP2 SWAP1 POP JUMP JUMPDEST PUSH32 0x4E487B7100000000000000000000000000000000000000000000000000000000 PUSH1 0x0 MSTORE PUSH1 0x22 PUSH1 0x4 MSTORE PUSH1 0x24 PUSH1 0x0 REVERT JUMPDEST PUSH2 0x1EA9 DUP1 PUSH3 0x21A PUSH1 0x0 CODECOPY PUSH1 0x0 RETURN INVALID PUSH1 0x80 PUSH1 0x40 MSTORE PUSH1 0x4 CALLDATASIZE LT PUSH2 0x9C JUMPI PUSH1 0x0 CALLDATALOAD PUSH1 0xE0 SHR DUP1 PUSH4 0x70A08231 GT PUSH2 0x64 JUMPI DUP1 PUSH4 0x70A08231 EQ PUSH2 0x19A JUMPI DUP1 PUSH4 0x91B6BE9A EQ PUSH2 0x1D7 JUMPI DUP1 PUSH4 0xA4964C33 EQ PUSH2 0x1F3 JUMPI DUP1 PUSH4 0xADAE08DD EQ PUSH2 0x21C JUMPI DUP1 PUSH4 0xC0F202EF EQ PUSH2 0x259 JUMPI DUP1 PUSH4 0xEA0FF14A EQ PUSH2 0x282 JUMPI PUSH2 0x9C JUMP JUMPDEST DUP1 PUSH4 0x73E74DF EQ PUSH2 0xA1 JUMPI DUP1 PUSH4 0x2165E65A EQ PUSH2 0xCC JUMPI DUP1 PUSH4 0x29DE6246 EQ PUSH2 0x109 JUMPI DUP1 PUSH4 0x4CAD2FFC EQ PUSH2 0x132 JUMPI DUP1 PUSH4 0x6352211E EQ PUSH2 0x15D JUMPI JUMPDEST PUSH1 0x0 DUP1 REVERT JUMPDEST CALLVALUE DUP1 ISZERO PUSH2 0xAD JUMPI PUSH1 0x0 DUP1 REVERT JUMPDEST POP PUSH2 0xB6 PUSH2 0x2AD JUMP JUMPDEST PUSH1 0x40 MLOAD PUSH2 0xC3 SWAP2 SWAP1 PUSH2 0x1933 JUMP JUMPDEST PUSH1 0x40 MLOAD DUP1 SWAP2 SUB SWAP1 RETURN JUMPDEST CALLVALUE DUP1 ISZERO PUSH2 0xD8 JUMPI PUSH1 0x0 DUP1 REVERT JUMPDEST POP PUSH2 0xF3 PUSH1 0x4 DUP1 CALLDATASIZE SUB DUP2 ADD SWAP1 PUSH2 0xEE SWAP2 SWAP1 PUSH2 0x1671 JUMP JUMPDEST PUSH2 0x4A0 JUMP JUMPDEST PUSH1 0x40 MLOAD PUSH2 0x100 SWAP2 SWAP1 PUSH2 0x1933 JUMP JUMPDEST PUSH1 0x40 MLOAD DUP1 SWAP2 SUB SWAP1 RETURN JUMPDEST CALLVALUE DUP1 ISZERO PUSH2 0x115 JUMPI PUSH1 0x0 DUP1 REVERT JUMPDEST POP PUSH2 0x130 PUSH1 0x4 DUP1 CALLDATASIZE SUB DUP2 ADD SWAP1 PUSH2 0x12B SWAP2 SWAP1 PUSH2 0x1671 JUMP JUMPDEST PUSH2 0x694 JUMP JUMPDEST STOP JUMPDEST CALLVALUE DUP1 ISZERO PUSH2 0x13E JUMPI PUSH1 0x0 DUP1 REVERT JUMPDEST POP PUSH2 0x147 PUSH2 0x72E JUMP JUMPDEST PUSH1 0x40 MLOAD PUSH2 0x154 SWAP2 SWAP1 PUSH2 0x1933 JUMP JUMPDEST PUSH1 0x40 MLOAD DUP1 SWAP2 SUB SWAP1 RETURN JUMPDEST CALLVALUE DUP1 ISZERO PUSH2 0x169 JUMPI PUSH1 0x0 DUP1 REVERT JUMPDEST POP PUSH2 0x184 PUSH1 0x4 DUP1 CALLDATASIZE SUB DUP2 ADD SWAP1 PUSH2 0x17F SWAP2 SWAP1 PUSH2 0x1671 JUMP JUMPDEST PUSH2 0x960 JUMP JUMPDEST PUSH1 0x40 MLOAD PUSH2 0x191 SWAP2 SWAP1 PUSH2 0x1918 JUMP JUMPDEST PUSH1 0x40 MLOAD DUP1 SWAP2 SUB SWAP1 RETURN JUMPDEST CALLVALUE DUP1 ISZERO PUSH2 0x1A6 JUMPI PUSH1 0x0 DUP1 REVERT JUMPDEST POP PUSH2 0x1C1 PUSH1 0x4 DUP1 CALLDATASIZE SUB DUP2 ADD SWAP1 PUSH2 0x1BC SWAP2 SWAP1 PUSH2 0x1648 JUMP JUMPDEST PUSH2 0x99D JUMP JUMPDEST PUSH1 0x40 MLOAD PUSH2 0x1CE SWAP2 SWAP1 PUSH2 0x1A75 JUMP JUMPDEST PUSH1 0x40 MLOAD DUP1 SWAP2 SUB SWAP1 RETURN JUMPDEST PUSH2 0x1F1 PUSH1 0x4 DUP1 CALLDATASIZE SUB DUP2 ADD SWAP1 PUSH2 0x1EC SWAP2 SWAP1 PUSH2 0x1671 JUMP JUMPDEST PUSH2 0x9E6 JUMP JUMPDEST STOP JUMPDEST CALLVALUE DUP1 ISZERO PUSH2 0x1FF JUMPI PUSH1 0x0 DUP1 REVERT JUMPDEST POP PUSH2 0x21A PUSH1 0x4 DUP1 CALLDATASIZE SUB DUP2 ADD SWAP1 PUSH2 0x215 SWAP2 SWAP1 PUSH2 0x1671 JUMP JUMPDEST PUSH2 0xE90 JUMP JUMPDEST STOP JUMPDEST CALLVALUE DUP1 ISZERO PUSH2 0x228 JUMPI PUSH1 0x0 DUP1 REVERT JUMPDEST POP PUSH2 0x243 PUSH1 0x4 DUP1 CALLDATASIZE SUB DUP2 ADD SWAP1 PUSH2 0x23E SWAP2 SWAP1 PUSH2 0x169A JUMP JUMPDEST PUSH2 0x10EF JUMP JUMPDEST PUSH1 0x40 MLOAD PUSH2 0x250 SWAP2 SWAP1 PUSH2 0x1A75 JUMP JUMPDEST PUSH1 0x40 MLOAD DUP1 SWAP2 SUB SWAP1 RETURN JUMPDEST CALLVALUE DUP1 ISZERO PUSH2 0x265 JUMPI PUSH1 0x0 DUP1 REVERT JUMPDEST POP PUSH2 0x280 PUSH1 0x4 DUP1 CALLDATASIZE SUB DUP2 ADD SWAP1 PUSH2 0x27B SWAP2 SWAP1 PUSH2 0x1671 JUMP JUMPDEST PUSH2 0x134E JUMP JUMPDEST STOP JUMPDEST CALLVALUE DUP1 ISZERO PUSH2 0x28E JUMPI PUSH1 0x0 DUP1 REVERT JUMPDEST POP PUSH2 0x297 PUSH2 0x15AC JUMP JUMPDEST PUSH1 0x40 MLOAD PUSH2 0x2A4 SWAP2 SWAP1 PUSH2 0x1A75 JUMP JUMPDEST PUSH1 0x40 MLOAD DUP1 SWAP2 SUB SWAP1 RETURN JUMPDEST PUSH1 0x60 PUSH1 0x0 DUP1 PUSH1 0x4 SLOAD PUSH8 0xFFFFFFFFFFFFFFFF DUP2 GT ISZERO PUSH2 0x2F4 JUMPI PUSH32 0x4E487B7100000000000000000000000000000000000000000000000000000000 PUSH1 0x0 MSTORE PUSH1 0x41 PUSH1 0x4 MSTORE PUSH1 0x24 PUSH1 0x0 REVERT JUMPDEST PUSH1 0x40 MLOAD SWAP1 DUP1 DUP3 MSTORE DUP1 PUSH1 0x20 MUL PUSH1 0x20 ADD DUP3 ADD PUSH1 0x40 MSTORE DUP1 ISZERO PUSH2 0x32D JUMPI DUP2 PUSH1 0x20 ADD JUMPDEST PUSH2 0x31A PUSH2 0x15F4 JUMP JUMPDEST DUP2 MSTORE PUSH1 0x20 ADD SWAP1 PUSH1 0x1 SWAP1 SUB SWAP1 DUP2 PUSH2 0x312 JUMPI SWAP1 POP JUMPDEST POP SWAP1 POP PUSH1 0x0 JUMPDEST PUSH1 0x3 DUP1 SLOAD SWAP1 POP DUP2 LT ISZERO PUSH2 0x497 JUMPI PUSH1 0x1 ISZERO ISZERO PUSH1 0x3 DUP3 DUP2 SLOAD DUP2 LT PUSH2 0x37E JUMPI PUSH32 0x4E487B7100000000000000000000000000000000000000000000000000000000 PUSH1 0x0 MSTORE PUSH1 0x32 PUSH1 0x4 MSTORE PUSH1 0x24 PUSH1 0x0 REVERT JUMPDEST SWAP1 PUSH1 0x0 MSTORE PUSH1 0x20 PUSH1 0x0 KECCAK256 SWAP1 PUSH1 0x4 MUL ADD PUSH1 0x3 ADD PUSH1 0x0 SWAP1 SLOAD SWAP1 PUSH2 0x100 EXP SWAP1 DIV PUSH1 0xFF AND ISZERO ISZERO EQ ISZERO PUSH2 0x484 JUMPI PUSH1 0x3 DUP2 DUP2 SLOAD DUP2 LT PUSH2 0x3DF JUMPI PUSH32 0x4E487B7100000000000000000000000000000000000000000000000000000000 PUSH1 0x0 MSTORE PUSH1 0x32 PUSH1 0x4 MSTORE PUSH1 0x24 PUSH1 0x0 REVERT JUMPDEST SWAP1 PUSH1 0x0 MSTORE PUSH1 0x20 PUSH1 0x0 KECCAK256 SWAP1 PUSH1 0x4 MUL ADD PUSH1 0x40 MLOAD DUP1 PUSH1 0x80 ADD PUSH1 0x40 MSTORE SWAP1 DUP2 PUSH1 0x0 DUP3 ADD SLOAD DUP2 MSTORE PUSH1 0x20 ADD PUSH1 0x1 DUP3 ADD SLOAD DUP2 MSTORE PUSH1 0x20 ADD PUSH1 0x2 DUP3 ADD SLOAD DUP2 MSTORE PUSH1 0x20 ADD PUSH1 0x3 DUP3 ADD PUSH1 0x0 SWAP1 SLOAD SWAP1 PUSH2 0x100 EXP SWAP1 DIV PUSH1 0xFF AND ISZERO ISZERO ISZERO ISZERO DUP2 MSTORE POP POP DUP3 DUP5 DUP2 MLOAD DUP2 LT PUSH2 0x46A JUMPI PUSH32 0x4E487B7100000000000000000000000000000000000000000000000000000000 PUSH1 0x0 MSTORE PUSH1 0x32 PUSH1 0x4 MSTORE PUSH1 0x24 PUSH1 0x0 REVERT JUMPDEST PUSH1 0x20 MUL PUSH1 0x20 ADD ADD DUP2 SWAP1 MSTORE POP DUP3 DUP1 PUSH2 0x480 SWAP1 PUSH2 0x1BE1 JUMP JUMPDEST SWAP4 POP POP JUMPDEST DUP1 DUP1 PUSH2 0x48F SWAP1 PUSH2 0x1BE1 JUMP JUMPDEST SWAP2 POP POP PUSH2 0x333 JUMP JUMPDEST POP DUP1 SWAP3 POP POP POP SWAP1 JUMP JUMPDEST PUSH1 0x60 PUSH1 0x0 DUP1 PUSH1 0x8 PUSH1 0x0 DUP6 DUP2 MSTORE PUSH1 0x20 ADD SWAP1 DUP2 MSTORE PUSH1 0x20 ADD PUSH1 0x0 KECCAK256 SLOAD PUSH8 0xFFFFFFFFFFFFFFFF DUP2 GT ISZERO PUSH2 0x4F8 JUMPI PUSH32 0x4E487B7100000000000000000000000000000000000000000000000000000000 PUSH1 0x0 MSTORE PUSH1 0x41 PUSH1 0x4 MSTORE PUSH1 0x24 PUSH1 0x0 REVERT JUMPDEST PUSH1 0x40 MLOAD SWAP1 DUP1 DUP3 MSTORE DUP1 PUSH1 0x20 MUL PUSH1 0x20 ADD DUP3 ADD PUSH1 0x40 MSTORE DUP1 ISZERO PUSH2 0x531 JUMPI DUP2 PUSH1 0x20 ADD JUMPDEST PUSH2 0x51E PUSH2 0x15F4 JUMP JUMPDEST DUP2 MSTORE PUSH1 0x20 ADD SWAP1 PUSH1 0x1 SWAP1 SUB SWAP1 DUP2 PUSH2 0x516 JUMPI SWAP1 POP JUMPDEST POP SWAP1 POP PUSH1 0x0 JUMPDEST PUSH1 0x3 DUP1 SLOAD SWAP1 POP DUP2 LT ISZERO PUSH2 0x689 JUMPI DUP5 PUSH1 0x3 DUP3 DUP2 SLOAD DUP2 LT PUSH2 0x57F JUMPI PUSH32 0x4E487B7100000000000000000000000000000000000000000000000000000000 PUSH1 0x0 MSTORE PUSH1 0x32 PUSH1 0x4 MSTORE PUSH1 0x24 PUSH1 0x0 REVERT JUMPDEST SWAP1 PUSH1 0x0 MSTORE PUSH1 0x20 PUSH1 0x0 KECCAK256 SWAP1 PUSH1 0x4 MUL ADD PUSH1 0x2 ADD SLOAD EQ ISZERO PUSH2 0x676 JUMPI PUSH1 0x3 DUP2 DUP2 SLOAD DUP2 LT PUSH2 0x5D1 JUMPI PUSH32 0x4E487B7100000000000000000000000000000000000000000000000000000000 PUSH1 0x0 MSTORE PUSH1 0x32 PUSH1 0x4 MSTORE PUSH1 0x24 PUSH1 0x0 REVERT JUMPDEST SWAP1 PUSH1 0x0 MSTORE PUSH1 0x20 PUSH1 0x0 KECCAK256 SWAP1 PUSH1 0x4 MUL ADD PUSH1 0x40 MLOAD DUP1 PUSH1 0x80 ADD PUSH1 0x40 MSTORE SWAP1 DUP2 PUSH1 0x0 DUP3 ADD SLOAD DUP2 MSTORE PUSH1 0x20 ADD PUSH1 0x1 DUP3 ADD SLOAD DUP2 MSTORE PUSH1 0x20 ADD PUSH1 0x2 DUP3 ADD SLOAD DUP2 MSTORE PUSH1 0x20 ADD PUSH1 0x3 DUP3 ADD PUSH1 0x0 SWAP1 SLOAD SWAP1 PUSH2 0x100 EXP SWAP1 DIV PUSH1 0xFF AND ISZERO ISZERO ISZERO ISZERO DUP2 MSTORE POP POP DUP3 DUP5 DUP2 MLOAD DUP2 LT PUSH2 0x65C JUMPI PUSH32 0x4E487B7100000000000000000000000000000000000000000000000000000000 PUSH1 0x0 MSTORE PUSH1 0x32 PUSH1 0x4 MSTORE PUSH1 0x24 PUSH1 0x0 REVERT JUMPDEST PUSH1 0x20 MUL PUSH1 0x20 ADD ADD DUP2 SWAP1 MSTORE POP DUP3 DUP1 PUSH2 0x672 SWAP1 PUSH2 0x1BE1 JUMP JUMPDEST SWAP4 POP POP JUMPDEST DUP1 DUP1 PUSH2 0x681 SWAP1 PUSH2 0x1BE1 JUMP JUMPDEST SWAP2 POP POP PUSH2 0x537 JUMP JUMPDEST POP DUP1 SWAP3 POP POP POP SWAP2 SWAP1 POP JUMP JUMPDEST PUSH1 0x2 PUSH1 0x0 SWAP1 SLOAD SWAP1 PUSH2 0x100 EXP SWAP1 DIV PUSH20 0xFFFFFFFFFFFFFFFFFFFFFFFFFFFFFFFFFFFFFFFF AND PUSH20 0xFFFFFFFFFFFFFFFFFFFFFFFFFFFFFFFFFFFFFFFF AND CALLER PUSH20 0xFFFFFFFFFFFFFFFFFFFFFFFFFFFFFFFFFFFFFFFF AND EQ PUSH2 0x724 JUMPI PUSH1 0x40 MLOAD PUSH32 0x8C379A000000000000000000000000000000000000000000000000000000000 DUP2 MSTORE PUSH1 0x4 ADD PUSH2 0x71B SWAP1 PUSH2 0x1A35 JUMP JUMPDEST PUSH1 0x40 MLOAD DUP1 SWAP2 SUB SWAP1 REVERT JUMPDEST DUP1 PUSH1 0x5 DUP2 SWAP1 SSTORE POP POP JUMP JUMPDEST PUSH1 0x60 PUSH1 0x0 DUP1 PUSH1 0x7 PUSH1 0x0 CALLER PUSH20 0xFFFFFFFFFFFFFFFFFFFFFFFFFFFFFFFFFFFFFFFF AND PUSH20 0xFFFFFFFFFFFFFFFFFFFFFFFFFFFFFFFFFFFFFFFF AND DUP2 MSTORE PUSH1 0x20 ADD SWAP1 DUP2 MSTORE PUSH1 0x20 ADD PUSH1 0x0 KECCAK256 SLOAD PUSH8 0xFFFFFFFFFFFFFFFF DUP2 GT ISZERO PUSH2 0x7B2 JUMPI PUSH32 0x4E487B7100000000000000000000000000000000000000000000000000000000 PUSH1 0x0 MSTORE PUSH1 0x41 PUSH1 0x4 MSTORE PUSH1 0x24 PUSH1 0x0 REVERT JUMPDEST PUSH1 0x40 MLOAD SWAP1 DUP1 DUP3 MSTORE DUP1 PUSH1 0x20 MUL PUSH1 0x20 ADD DUP3 ADD PUSH1 0x40 MSTORE DUP1 ISZERO PUSH2 0x7EB JUMPI DUP2 PUSH1 0x20 ADD JUMPDEST PUSH2 0x7D8 PUSH2 0x15F4 JUMP JUMPDEST DUP2 MSTORE PUSH1 0x20 ADD SWAP1 PUSH1 0x1 SWAP1 SUB SWAP1 DUP2 PUSH2 0x7D0 JUMPI SWAP1 POP JUMPDEST POP SWAP1 POP PUSH1 0x0 JUMPDEST PUSH1 0x3 DUP1 SLOAD SWAP1 POP DUP2 LT ISZERO PUSH2 0x957 JUMPI CALLER PUSH20 0xFFFFFFFFFFFFFFFFFFFFFFFFFFFFFFFFFFFFFFFF AND PUSH1 0x6 PUSH1 0x0 DUP4 DUP2 MSTORE PUSH1 0x20 ADD SWAP1 DUP2 MSTORE PUSH1 0x20 ADD PUSH1 0x0 KECCAK256 PUSH1 0x0 SWAP1 SLOAD SWAP1 PUSH2 0x100 EXP SWAP1 DIV PUSH20 0xFFFFFFFFFFFFFFFFFFFFFFFFFFFFFFFFFFFFFFFF AND PUSH20 0xFFFFFFFFFFFFFFFFFFFFFFFFFFFFFFFFFFFFFFFF AND EQ ISZERO PUSH2 0x944 JUMPI PUSH1 0x3 DUP2 DUP2 SLOAD DUP2 LT PUSH2 0x89F JUMPI PUSH32 0x4E487B7100000000000000000000000000000000000000000000000000000000 PUSH1 0x0 MSTORE PUSH1 0x32 PUSH1 0x4 MSTORE PUSH1 0x24 PUSH1 0x0 REVERT JUMPDEST SWAP1 PUSH1 0x0 MSTORE PUSH1 0x20 PUSH1 0x0 KECCAK256 SWAP1 PUSH1 0x4 MUL ADD PUSH1 0x40 MLOAD DUP1 PUSH1 0x80 ADD PUSH1 0x40 MSTORE SWAP1 DUP2 PUSH1 0x0 DUP3 ADD SLOAD DUP2 MSTORE PUSH1 0x20 ADD PUSH1 0x1 DUP3 ADD SLOAD DUP2 MSTORE PUSH1 0x20 ADD PUSH1 0x2 DUP3 ADD SLOAD DUP2 MSTORE PUSH1 0x20 ADD PUSH1 0x3 DUP3 ADD PUSH1 0x0 SWAP1 SLOAD SWAP1 PUSH2 0x100 EXP SWAP1 DIV PUSH1 0xFF AND ISZERO ISZERO ISZERO ISZERO DUP2 MSTORE POP POP DUP3 DUP5 DUP2 MLOAD DUP2 LT PUSH2 0x92A JUMPI PUSH32 0x4E487B7100000000000000000000000000000000000000000000000000000000 PUSH1 0x0 MSTORE PUSH1 0x32 PUSH1 0x4 MSTORE PUSH1 0x24 PUSH1 0x0 REVERT JUMPDEST PUSH1 0x20 MUL PUSH1 0x20 ADD ADD DUP2 SWAP1 MSTORE POP DUP3 DUP1 PUSH2 0x940 SWAP1 PUSH2 0x1BE1 JUMP JUMPDEST SWAP4 POP POP JUMPDEST DUP1 DUP1 PUSH2 0x94F SWAP1 PUSH2 0x1BE1 JUMP JUMPDEST SWAP2 POP POP PUSH2 0x7F1 JUMP JUMPDEST POP DUP1 SWAP3 POP POP POP SWAP1 JUMP JUMPDEST PUSH1 0x0 PUSH1 0x6 PUSH1 0x0 DUP4 DUP2 MSTORE PUSH1 0x20 ADD SWAP1 DUP2 MSTORE PUSH1 0x20 ADD PUSH1 0x0 KECCAK256 PUSH1 0x0 SWAP1 SLOAD SWAP1 PUSH2 0x100 EXP SWAP1 DIV PUSH20 0xFFFFFFFFFFFFFFFFFFFFFFFFFFFFFFFFFFFFFFFF AND SWAP1 POP SWAP2 SWAP1 POP JUMP JUMPDEST PUSH1 0x0 PUSH1 0x7 PUSH1 0x0 DUP4 PUSH20 0xFFFFFFFFFFFFFFFFFFFFFFFFFFFFFFFFFFFFFFFF AND PUSH20 0xFFFFFFFFFFFFFFFFFFFFFFFFFFFFFFFFFFFFFFFF AND DUP2 MSTORE PUSH1 0x20 ADD SWAP1 DUP2 MSTORE PUSH1 0x20 ADD PUSH1 0x0 KECCAK256 SLOAD SWAP1 POP SWAP2 SWAP1 POP JUMP JUMPDEST PUSH1 0x3 DUP2 DUP2 SLOAD DUP2 LT PUSH2 0xA20 JUMPI PUSH32 0x4E487B7100000000000000000000000000000000000000000000000000000000 PUSH1 0x0 MSTORE PUSH1 0x32 PUSH1 0x4 MSTORE PUSH1 0x24 PUSH1 0x0 REVERT JUMPDEST SWAP1 PUSH1 0x0 MSTORE PUSH1 0x20 PUSH1 0x0 KECCAK256 SWAP1 PUSH1 0x4 MUL ADD PUSH1 0x1 ADD SLOAD CALLVALUE EQ PUSH2 0xA73 JUMPI PUSH1 0x40 MLOAD PUSH32 0x8C379A000000000000000000000000000000000000000000000000000000000 DUP2 MSTORE PUSH1 0x4 ADD PUSH2 0xA6A SWAP1 PUSH2 0x1995 JUMP JUMPDEST PUSH1 0x40 MLOAD DUP1 SWAP2 SUB SWAP1 REVERT JUMPDEST PUSH1 0x0 PUSH20 0xFFFFFFFFFFFFFFFFFFFFFFFFFFFFFFFFFFFFFFFF AND PUSH1 0x6 PUSH1 0x0 DUP4 DUP2 MSTORE PUSH1 0x20 ADD SWAP1 DUP2 MSTORE PUSH1 0x20 ADD PUSH1 0x0 KECCAK256 PUSH1 0x0 SWAP1 SLOAD SWAP1 PUSH2 0x100 EXP SWAP1 DIV PUSH20 0xFFFFFFFFFFFFFFFFFFFFFFFFFFFFFFFFFFFFFFFF AND PUSH20 0xFFFFFFFFFFFFFFFFFFFFFFFFFFFFFFFFFFFFFFFF AND EQ ISZERO PUSH2 0xB16 JUMPI PUSH1 0x40 MLOAD PUSH32 0x8C379A000000000000000000000000000000000000000000000000000000000 DUP2 MSTORE PUSH1 0x4 ADD PUSH2 0xB0D SWAP1 PUSH2 0x19B5 JUMP JUMPDEST PUSH1 0x40 MLOAD DUP1 SWAP2 SUB SWAP1 REVERT JUMPDEST CALLER PUSH20 0xFFFFFFFFFFFFFFFFFFFFFFFFFFFFFFFFFFFFFFFF AND PUSH1 0x6 PUSH1 0x0 DUP4 DUP2 MSTORE PUSH1 0x20 ADD SWAP1 DUP2 MSTORE PUSH1 0x20 ADD PUSH1 0x0 KECCAK256 PUSH1 0x0 SWAP1 SLOAD SWAP1 PUSH2 0x100 EXP SWAP1 DIV PUSH20 0xFFFFFFFFFFFFFFFFFFFFFFFFFFFFFFFFFFFFFFFF AND PUSH20 0xFFFFFFFFFFFFFFFFFFFFFFFFFFFFFFFFFFFFFFFF AND EQ ISZERO PUSH2 0xBB8 JUMPI PUSH1 0x40 MLOAD PUSH32 0x8C379A000000000000000000000000000000000000000000000000000000000 DUP2 MSTORE PUSH1 0x4 ADD PUSH2 0xBAF SWAP1 PUSH2 0x1A15 JUMP JUMPDEST PUSH1 0x40 MLOAD DUP1 SWAP2 SUB SWAP1 REVERT JUMPDEST PUSH1 0x0 PUSH1 0x6 PUSH1 0x0 DUP4 DUP2 MSTORE PUSH1 0x20 ADD SWAP1 DUP2 MSTORE PUSH1 0x20 ADD PUSH1 0x0 KECCAK256 PUSH1 0x0 SWAP1 SLOAD SWAP1 PUSH2 0x100 EXP SWAP1 DIV PUSH20 0xFFFFFFFFFFFFFFFFFFFFFFFFFFFFFFFFFFFFFFFF AND SWAP1 POP PUSH1 0x0 PUSH1 0x3 DUP4 DUP2 SLOAD DUP2 LT PUSH2 0xC2C JUMPI PUSH32 0x4E487B7100000000000000000000000000000000000000000000000000000000 PUSH1 0x0 MSTORE PUSH1 0x32 PUSH1 0x4 MSTORE PUSH1 0x24 PUSH1 0x0 REVERT JUMPDEST SWAP1 PUSH1 0x0 MSTORE PUSH1 0x20 PUSH1 0x0 KECCAK256 SWAP1 PUSH1 0x4 MUL ADD SWAP1 POP PUSH1 0x0 DUP2 PUSH1 0x3 ADD PUSH1 0x0 PUSH2 0x100 EXP DUP2 SLOAD DUP2 PUSH1 0xFF MUL NOT AND SWAP1 DUP4 ISZERO ISZERO MUL OR SWAP1 SSTORE POP CALLER PUSH1 0x6 PUSH1 0x0 DUP6 DUP2 MSTORE PUSH1 0x20 ADD SWAP1 DUP2 MSTORE PUSH1 0x20 ADD PUSH1 0x0 KECCAK256 PUSH1 0x0 PUSH2 0x100 EXP DUP2 SLOAD DUP2 PUSH20 0xFFFFFFFFFFFFFFFFFFFFFFFFFFFFFFFFFFFFFFFF MUL NOT AND SWAP1 DUP4 PUSH20 0xFFFFFFFFFFFFFFFFFFFFFFFFFFFFFFFFFFFFFFFF AND MUL OR SWAP1 SSTORE POP PUSH1 0x7 PUSH1 0x0 DUP4 PUSH20 0xFFFFFFFFFFFFFFFFFFFFFFFFFFFFFFFFFFFFFFFF AND PUSH20 0xFFFFFFFFFFFFFFFFFFFFFFFFFFFFFFFFFFFFFFFF AND DUP2 MSTORE PUSH1 0x20 ADD SWAP1 DUP2 MSTORE PUSH1 0x20 ADD PUSH1 0x0 KECCAK256 PUSH1 0x0 DUP2 SLOAD DUP1 SWAP3 SWAP2 SWAP1 PUSH1 0x1 SWAP1 SUB SWAP2 SWAP1 POP SSTORE POP PUSH1 0x7 PUSH1 0x0 CALLER PUSH20 0xFFFFFFFFFFFFFFFFFFFFFFFFFFFFFFFFFFFFFFFF AND PUSH20 0xFFFFFFFFFFFFFFFFFFFFFFFFFFFFFFFFFFFFFFFF AND DUP2 MSTORE PUSH1 0x20 ADD SWAP1 DUP2 MSTORE PUSH1 0x20 ADD PUSH1 0x0 KECCAK256 PUSH1 0x0 DUP2 SLOAD DUP1 SWAP3 SWAP2 SWAP1 PUSH1 0x1 ADD SWAP2 SWAP1 POP SSTORE POP PUSH1 0x4 PUSH1 0x0 DUP2 SLOAD DUP1 SWAP3 SWAP2 SWAP1 PUSH1 0x1 SWAP1 SUB SWAP2 SWAP1 POP SSTORE POP PUSH1 0x0 DUP1 PUSH2 0xD6C CALLVALUE PUSH1 0x5 SLOAD PUSH2 0x15B6 JUMP JUMPDEST DUP1 SWAP3 POP DUP2 SWAP4 POP POP POP PUSH1 0x2 PUSH1 0x0 SWAP1 SLOAD SWAP1 PUSH2 0x100 EXP SWAP1 DIV PUSH20 0xFFFFFFFFFFFFFFFFFFFFFFFFFFFFFFFFFFFFFFFF AND PUSH20 0xFFFFFFFFFFFFFFFFFFFFFFFFFFFFFFFFFFFFFFFF AND PUSH2 0x8FC DUP4 SWAP1 DUP2 ISZERO MUL SWAP1 PUSH1 0x40 MLOAD PUSH1 0x0 PUSH1 0x40 MLOAD DUP1 DUP4 SUB DUP2 DUP6 DUP9 DUP9 CALL SWAP4 POP POP POP POP ISZERO DUP1 ISZERO PUSH2 0xDDC JUMPI RETURNDATASIZE PUSH1 0x0 DUP1 RETURNDATACOPY RETURNDATASIZE PUSH1 0x0 REVERT JUMPDEST POP DUP4 PUSH20 0xFFFFFFFFFFFFFFFFFFFFFFFFFFFFFFFFFFFFFFFF AND PUSH2 0x8FC DUP3 SWAP1 DUP2 ISZERO MUL SWAP1 PUSH1 0x40 MLOAD PUSH1 0x0 PUSH1 0x40 MLOAD DUP1 DUP4 SUB DUP2 DUP6 DUP9 DUP9 CALL SWAP4 POP POP POP POP ISZERO DUP1 ISZERO PUSH2 0xE23 JUMPI RETURNDATASIZE PUSH1 0x0 DUP1 RETURNDATACOPY RETURNDATASIZE PUSH1 0x0 REVERT JUMPDEST POP CALLER PUSH20 0xFFFFFFFFFFFFFFFFFFFFFFFFFFFFFFFFFFFFFFFF AND DUP5 PUSH20 0xFFFFFFFFFFFFFFFFFFFFFFFFFFFFFFFFFFFFFFFF AND PUSH32 0xDDF252AD1BE2C89B69C2B068FC378DAA952BA7F163C4A11628F55A4DF523B3EF DUP8 PUSH1 0x40 MLOAD PUSH2 0xE81 SWAP2 SWAP1 PUSH2 0x1A75 JUMP JUMPDEST PUSH1 0x40 MLOAD DUP1 SWAP2 SUB SWAP1 LOG3 POP POP POP POP POP JUMP JUMPDEST DUP1 CALLER PUSH20 0xFFFFFFFFFFFFFFFFFFFFFFFFFFFFFFFFFFFFFFFF AND PUSH1 0x6 PUSH1 0x0 DUP4 DUP2 MSTORE PUSH1 0x20 ADD SWAP1 DUP2 MSTORE PUSH1 0x20 ADD PUSH1 0x0 KECCAK256 PUSH1 0x0 SWAP1 SLOAD SWAP1 PUSH2 0x100 EXP SWAP1 DIV PUSH20 0xFFFFFFFFFFFFFFFFFFFFFFFFFFFFFFFFFFFFFFFF AND PUSH20 0xFFFFFFFFFFFFFFFFFFFFFFFFFFFFFFFFFFFFFFFF AND EQ PUSH2 0xF32 JUMPI PUSH1 0x40 MLOAD PUSH32 0x8C379A000000000000000000000000000000000000000000000000000000000 DUP2 MSTORE PUSH1 0x4 ADD PUSH2 0xF29 SWAP1 PUSH2 0x19D5 JUMP JUMPDEST PUSH1 0x40 MLOAD DUP1 SWAP2 SUB SWAP1 REVERT JUMPDEST PUSH1 0x0 PUSH20 0xFFFFFFFFFFFFFFFFFFFFFFFFFFFFFFFFFFFFFFFF AND PUSH1 0x6 PUSH1 0x0 DUP5 DUP2 MSTORE PUSH1 0x20 ADD SWAP1 DUP2 MSTORE PUSH1 0x20 ADD PUSH1 0x0 KECCAK256 PUSH1 0x0 SWAP1 SLOAD SWAP1 PUSH2 0x100 EXP SWAP1 DIV PUSH20 0xFFFFFFFFFFFFFFFFFFFFFFFFFFFFFFFFFFFFFFFF AND PUSH20 0xFFFFFFFFFFFFFFFFFFFFFFFFFFFFFFFFFFFFFFFF AND EQ ISZERO PUSH2 0xFD5 JUMPI PUSH1 0x40 MLOAD PUSH32 0x8C379A000000000000000000000000000000000000000000000000000000000 DUP2 MSTORE PUSH1 0x4 ADD PUSH2 0xFCC SWAP1 PUSH2 0x19B5 JUMP JUMPDEST PUSH1 0x40 MLOAD DUP1 SWAP2 SUB SWAP1 REVERT JUMPDEST PUSH1 0x1 ISZERO ISZERO PUSH1 0x3 DUP4 DUP2 SLOAD DUP2 LT PUSH2 0x1013 JUMPI PUSH32 0x4E487B7100000000000000000000000000000000000000000000000000000000 PUSH1 0x0 MSTORE PUSH1 0x32 PUSH1 0x4 MSTORE PUSH1 0x24 PUSH1 0x0 REVERT JUMPDEST SWAP1 PUSH1 0x0 MSTORE PUSH1 0x20 PUSH1 0x0 KECCAK256 SWAP1 PUSH1 0x4 MUL ADD PUSH1 0x3 ADD PUSH1 0x0 SWAP1 SLOAD SWAP1 PUSH2 0x100 EXP SWAP1 DIV PUSH1 0xFF AND ISZERO ISZERO EQ PUSH2 0x1074 JUMPI PUSH1 0x40 MLOAD PUSH32 0x8C379A000000000000000000000000000000000000000000000000000000000 DUP2 MSTORE PUSH1 0x4 ADD PUSH2 0x106B SWAP1 PUSH2 0x1955 JUMP JUMPDEST PUSH1 0x40 MLOAD DUP1 SWAP2 SUB SWAP1 REVERT JUMPDEST PUSH1 0x0 PUSH1 0x3 DUP4 DUP2 SLOAD DUP2 LT PUSH2 0x10B0 JUMPI PUSH32 0x4E487B7100000000000000000000000000000000000000000000000000000000 PUSH1 0x0 MSTORE PUSH1 0x32 PUSH1 0x4 MSTORE PUSH1 0x24 PUSH1 0x0 REVERT JUMPDEST SWAP1 PUSH1 0x0 MSTORE PUSH1 0x20 PUSH1 0x0 KECCAK256 SWAP1 PUSH1 0x4 MUL ADD PUSH1 0x3 ADD PUSH1 0x0 PUSH2 0x100 EXP DUP2 SLOAD DUP2 PUSH1 0xFF MUL NOT AND SWAP1 DUP4 ISZERO ISZERO MUL OR SWAP1 SSTORE POP PUSH1 0x4 PUSH1 0x0 DUP2 SLOAD DUP1 SWAP3 SWAP2 SWAP1 PUSH1 0x1 SWAP1 SUB SWAP2 SWAP1 POP SSTORE POP POP POP JUMP JUMPDEST PUSH1 0x0 DUP1 DUP4 GT PUSH2 0x1133 JUMPI PUSH1 0x40 MLOAD PUSH32 0x8C379A000000000000000000000000000000000000000000000000000000000 DUP2 MSTORE PUSH1 0x4 ADD PUSH2 0x112A SWAP1 PUSH2 0x1A55 JUMP JUMPDEST PUSH1 0x40 MLOAD DUP1 SWAP2 SUB SWAP1 REVERT JUMPDEST PUSH1 0x0 PUSH1 0x3 DUP1 SLOAD SWAP1 POP SWAP1 POP PUSH1 0x0 PUSH20 0xFFFFFFFFFFFFFFFFFFFFFFFFFFFFFFFFFFFFFFFF AND PUSH1 0x6 PUSH1 0x0 DUP4 DUP2 MSTORE PUSH1 0x20 ADD SWAP1 DUP2 MSTORE PUSH1 0x20 ADD PUSH1 0x0 KECCAK256 PUSH1 0x0 SWAP1 SLOAD SWAP1 PUSH2 0x100 EXP SWAP1 DIV PUSH20 0xFFFFFFFFFFFFFFFFFFFFFFFFFFFFFFFFFFFFFFFF AND PUSH20 0xFFFFFFFFFFFFFFFFFFFFFFFFFFFFFFFFFFFFFFFF AND EQ PUSH2 0x11DF JUMPI PUSH1 0x40 MLOAD PUSH32 0x8C379A000000000000000000000000000000000000000000000000000000000 DUP2 MSTORE PUSH1 0x4 ADD PUSH2 0x11D6 SWAP1 PUSH2 0x1975 JUMP JUMPDEST PUSH1 0x40 MLOAD DUP1 SWAP2 SUB SWAP1 REVERT JUMPDEST PUSH1 0x3 PUSH1 0x40 MLOAD DUP1 PUSH1 0x80 ADD PUSH1 0x40 MSTORE DUP1 DUP4 DUP2 MSTORE PUSH1 0x20 ADD DUP7 DUP2 MSTORE PUSH1 0x20 ADD DUP6 DUP2 MSTORE PUSH1 0x20 ADD PUSH1 0x1 ISZERO ISZERO DUP2 MSTORE POP SWAP1 DUP1 PUSH1 0x1 DUP2 SLOAD ADD DUP1 DUP3 SSTORE DUP1 SWAP2 POP POP PUSH1 0x1 SWAP1 SUB SWAP1 PUSH1 0x0 MSTORE PUSH1 0x20 PUSH1 0x0 KECCAK256 SWAP1 PUSH1 0x4 MUL ADD PUSH1 0x0 SWAP1 SWAP2 SWAP1 SWAP2 SWAP1 SWAP2 POP PUSH1 0x0 DUP3 ADD MLOAD DUP2 PUSH1 0x0 ADD SSTORE PUSH1 0x20 DUP3 ADD MLOAD DUP2 PUSH1 0x1 ADD SSTORE PUSH1 0x40 DUP3 ADD MLOAD DUP2 PUSH1 0x2 ADD SSTORE PUSH1 0x60 DUP3 ADD MLOAD DUP2 PUSH1 0x3 ADD PUSH1 0x0 PUSH2 0x100 EXP DUP2 SLOAD DUP2 PUSH1 0xFF MUL NOT AND SWAP1 DUP4 ISZERO ISZERO MUL OR SWAP1 SSTORE POP POP POP CALLER PUSH1 0x6 PUSH1 0x0 DUP4 DUP2 MSTORE PUSH1 0x20 ADD SWAP1 DUP2 MSTORE PUSH1 0x20 ADD PUSH1 0x0 KECCAK256 PUSH1 0x0 PUSH2 0x100 EXP DUP2 SLOAD DUP2 PUSH20 0xFFFFFFFFFFFFFFFFFFFFFFFFFFFFFFFFFFFFFFFF MUL NOT AND SWAP1 DUP4 PUSH20 0xFFFFFFFFFFFFFFFFFFFFFFFFFFFFFFFFFFFFFFFF AND MUL OR SWAP1 SSTORE POP PUSH1 0x7 PUSH1 0x0 CALLER PUSH20 0xFFFFFFFFFFFFFFFFFFFFFFFFFFFFFFFFFFFFFFFF AND PUSH20 0xFFFFFFFFFFFFFFFFFFFFFFFFFFFFFFFFFFFFFFFF AND DUP2 MSTORE PUSH1 0x20 ADD SWAP1 DUP2 MSTORE PUSH1 0x20 ADD PUSH1 0x0 KECCAK256 PUSH1 0x0 DUP2 SLOAD DUP1 SWAP3 SWAP2 SWAP1 PUSH1 0x1 ADD SWAP2 SWAP1 POP SSTORE POP PUSH1 0x8 PUSH1 0x0 DUP5 DUP2 MSTORE PUSH1 0x20 ADD SWAP1 DUP2 MSTORE PUSH1 0x20 ADD PUSH1 0x0 KECCAK256 PUSH1 0x0 DUP2 SLOAD DUP1 SWAP3 SWAP2 SWAP1 PUSH1 0x1 ADD SWAP2 SWAP1 POP SSTORE POP PUSH1 0x4 PUSH1 0x0 DUP2 SLOAD DUP1 SWAP3 SWAP2 SWAP1 PUSH1 0x1 ADD SWAP2 SWAP1 POP SSTORE POP DUP1 SWAP2 POP POP SWAP3 SWAP2 POP POP JUMP JUMPDEST DUP1 CALLER PUSH20 0xFFFFFFFFFFFFFFFFFFFFFFFFFFFFFFFFFFFFFFFF AND PUSH1 0x6 PUSH1 0x0 DUP4 DUP2 MSTORE PUSH1 0x20 ADD SWAP1 DUP2 MSTORE PUSH1 0x20 ADD PUSH1 0x0 KECCAK256 PUSH1 0x0 SWAP1 SLOAD SWAP1 PUSH2 0x100 EXP SWAP1 DIV PUSH20 0xFFFFFFFFFFFFFFFFFFFFFFFFFFFFFFFFFFFFFFFF AND PUSH20 0xFFFFFFFFFFFFFFFFFFFFFFFFFFFFFFFFFFFFFFFF AND EQ PUSH2 0x13F0 JUMPI PUSH1 0x40 MLOAD PUSH32 0x8C379A000000000000000000000000000000000000000000000000000000000 DUP2 MSTORE PUSH1 0x4 ADD PUSH2 0x13E7 SWAP1 PUSH2 0x19D5 JUMP JUMPDEST PUSH1 0x40 MLOAD DUP1 SWAP2 SUB SWAP1 REVERT JUMPDEST PUSH1 0x0 PUSH20 0xFFFFFFFFFFFFFFFFFFFFFFFFFFFFFFFFFFFFFFFF AND PUSH1 0x6 PUSH1 0x0 DUP5 DUP2 MSTORE PUSH1 0x20 ADD SWAP1 DUP2 MSTORE PUSH1 0x20 ADD PUSH1 0x0 KECCAK256 PUSH1 0x0 SWAP1 SLOAD SWAP1 PUSH2 0x100 EXP SWAP1 DIV PUSH20 0xFFFFFFFFFFFFFFFFFFFFFFFFFFFFFFFFFFFFFFFF AND PUSH20 0xFFFFFFFFFFFFFFFFFFFFFFFFFFFFFFFFFFFFFFFF AND EQ ISZERO PUSH2 0x1493 JUMPI PUSH1 0x40 MLOAD PUSH32 0x8C379A000000000000000000000000000000000000000000000000000000000 DUP2 MSTORE PUSH1 0x4 ADD PUSH2 0x148A SWAP1 PUSH2 0x19B5 JUMP JUMPDEST PUSH1 0x40 MLOAD DUP1 SWAP2 SUB SWAP1 REVERT JUMPDEST PUSH1 0x0 ISZERO ISZERO PUSH1 0x3 DUP4 DUP2 SLOAD DUP2 LT PUSH2 0x14D1 JUMPI PUSH32 0x4E487B7100000000000000000000000000000000000000000000000000000000 PUSH1 0x0 MSTORE PUSH1 0x32 PUSH1 0x4 MSTORE PUSH1 0x24 PUSH1 0x0 REVERT JUMPDEST SWAP1 PUSH1 0x0 MSTORE PUSH1 0x20 PUSH1 0x0 KECCAK256 SWAP1 PUSH1 0x4 MUL ADD PUSH1 0x3 ADD PUSH1 0x0 SWAP1 SLOAD SWAP1 PUSH2 0x100 EXP SWAP1 DIV PUSH1 0xFF AND ISZERO ISZERO EQ PUSH2 0x1532 JUMPI PUSH1 0x40 MLOAD PUSH32 0x8C379A000000000000000000000000000000000000000000000000000000000 DUP2 MSTORE PUSH1 0x4 ADD PUSH2 0x1529 SWAP1 PUSH2 0x19F5 JUMP JUMPDEST PUSH1 0x40 MLOAD DUP1 SWAP2 SUB SWAP1 REVERT JUMPDEST PUSH1 0x1 PUSH1 0x3 DUP4 DUP2 SLOAD DUP2 LT PUSH2 0x156E JUMPI PUSH32 0x4E487B7100000000000000000000000000000000000000000000000000000000 PUSH1 0x0 MSTORE PUSH1 0x32 PUSH1 0x4 MSTORE PUSH1 0x24 PUSH1 0x0 REVERT JUMPDEST SWAP1 PUSH1 0x0 MSTORE PUSH1 0x20 PUSH1 0x0 KECCAK256 SWAP1 PUSH1 0x4 MUL ADD PUSH1 0x3 ADD PUSH1 0x0 PUSH2 0x100 EXP DUP2 SLOAD DUP2 PUSH1 0xFF MUL NOT AND SWAP1 DUP4 ISZERO ISZERO MUL OR SWAP1 SSTORE POP PUSH1 0x4 PUSH1 0x0 DUP2 SLOAD DUP1 SWAP3 SWAP2 SWAP1 PUSH1 0x1 ADD SWAP2 SWAP1 POP SSTORE POP POP POP JUMP JUMPDEST PUSH1 0x0 PUSH1 0x5 SLOAD SWAP1 POP SWAP1 JUMP JUMPDEST PUSH1 0x0 DUP1 PUSH1 0x0 PUSH1 0x64 DUP6 DUP6 PUSH2 0x15C9 SWAP2 SWAP1 PUSH2 0x1B0B JUMP JUMPDEST PUSH2 0x15D3 SWAP2 SWAP1 PUSH2 0x1ADA JUMP JUMPDEST SWAP1 POP PUSH1 0x0 DUP2 DUP7 PUSH2 0x15E3 SWAP2 SWAP1 PUSH2 0x1B65 JUMP JUMPDEST SWAP1 POP DUP2 DUP2 SWAP4 POP SWAP4 POP POP POP SWAP3 POP SWAP3 SWAP1 POP JUMP JUMPDEST PUSH1 0x40 MLOAD DUP1 PUSH1 0x80 ADD PUSH1 0x40 MSTORE DUP1 PUSH1 0x0 DUP2 MSTORE PUSH1 0x20 ADD PUSH1 0x0 DUP2 MSTORE PUSH1 0x20 ADD PUSH1 0x0 DUP2 MSTORE PUSH1 0x20 ADD PUSH1 0x0 ISZERO ISZERO DUP2 MSTORE POP SWAP1 JUMP JUMPDEST PUSH1 0x0 DUP2 CALLDATALOAD SWAP1 POP PUSH2 0x162D DUP2 PUSH2 0x1E45 JUMP JUMPDEST SWAP3 SWAP2 POP POP JUMP JUMPDEST PUSH1 0x0 DUP2 CALLDATALOAD SWAP1 POP PUSH2 0x1642 DUP2 PUSH2 0x1E5C JUMP JUMPDEST SWAP3 SWAP2 POP POP JUMP JUMPDEST PUSH1 0x0 PUSH1 0x20 DUP3 DUP5 SUB SLT ISZERO PUSH2 0x165A JUMPI PUSH1 0x0 DUP1 REVERT JUMPDEST PUSH1 0x0 PUSH2 0x1668 DUP5 DUP3 DUP6 ADD PUSH2 0x161E JUMP JUMPDEST SWAP2 POP POP SWAP3 SWAP2 POP POP JUMP JUMPDEST PUSH1 0x0 PUSH1 0x20 DUP3 DUP5 SUB SLT ISZERO PUSH2 0x1683 JUMPI PUSH1 0x0 DUP1 REVERT JUMPDEST PUSH1 0x0 PUSH2 0x1691 DUP5 DUP3 DUP6 ADD PUSH2 0x1633 JUMP JUMPDEST SWAP2 POP POP SWAP3 SWAP2 POP POP JUMP JUMPDEST PUSH1 0x0 DUP1 PUSH1 0x40 DUP4 DUP6 SUB SLT ISZERO PUSH2 0x16AD JUMPI PUSH1 0x0 DUP1 REVERT JUMPDEST PUSH1 0x0 PUSH2 0x16BB DUP6 DUP3 DUP7 ADD PUSH2 0x1633 JUMP JUMPDEST SWAP3 POP POP PUSH1 0x20 PUSH2 0x16CC DUP6 DUP3 DUP7 ADD PUSH2 0x1633 JUMP JUMPDEST SWAP2 POP POP SWAP3 POP SWAP3 SWAP1 POP JUMP JUMPDEST PUSH1 0x0 PUSH2 0x16E2 DUP4 DUP4 PUSH2 0x18A5 JUMP JUMPDEST PUSH1 0x80 DUP4 ADD SWAP1 POP SWAP3 SWAP2 POP POP JUMP JUMPDEST PUSH2 0x16F7 DUP2 PUSH2 0x1B99 JUMP JUMPDEST DUP3 MSTORE POP POP JUMP JUMPDEST PUSH1 0x0 PUSH2 0x1708 DUP3 PUSH2 0x1AA0 JUMP JUMPDEST PUSH2 0x1712 DUP2 DUP6 PUSH2 0x1AB8 JUMP JUMPDEST SWAP4 POP PUSH2 0x171D DUP4 PUSH2 0x1A90 JUMP JUMPDEST DUP1 PUSH1 0x0 JUMPDEST DUP4 DUP2 LT ISZERO PUSH2 0x174E JUMPI DUP2 MLOAD PUSH2 0x1735 DUP9 DUP3 PUSH2 0x16D6 JUMP JUMPDEST SWAP8 POP PUSH2 0x1740 DUP4 PUSH2 0x1AAB JUMP JUMPDEST SWAP3 POP POP PUSH1 0x1 DUP2 ADD SWAP1 POP PUSH2 0x1721 JUMP JUMPDEST POP DUP6 SWAP4 POP POP POP POP SWAP3 SWAP2 POP POP JUMP JUMPDEST PUSH2 0x1764 DUP2 PUSH2 0x1BAB JUMP JUMPDEST DUP3 MSTORE POP POP JUMP JUMPDEST PUSH1 0x0 PUSH2 0x1777 PUSH1 0x13 DUP4 PUSH2 0x1AC9 JUMP JUMPDEST SWAP2 POP PUSH2 0x1782 DUP3 PUSH2 0x1C88 JUMP JUMPDEST PUSH1 0x20 DUP3 ADD SWAP1 POP SWAP2 SWAP1 POP JUMP JUMPDEST PUSH1 0x0 PUSH2 0x179A PUSH1 0x13 DUP4 PUSH2 0x1AC9 JUMP JUMPDEST SWAP2 POP PUSH2 0x17A5 DUP3 PUSH2 0x1CB1 JUMP JUMPDEST PUSH1 0x20 DUP3 ADD SWAP1 POP SWAP2 SWAP1 POP JUMP JUMPDEST PUSH1 0x0 PUSH2 0x17BD PUSH1 0x35 DUP4 PUSH2 0x1AC9 JUMP JUMPDEST SWAP2 POP PUSH2 0x17C8 DUP3 PUSH2 0x1CDA JUMP JUMPDEST PUSH1 0x40 DUP3 ADD SWAP1 POP SWAP2 SWAP1 POP JUMP JUMPDEST PUSH1 0x0 PUSH2 0x17E0 PUSH1 0x13 DUP4 PUSH2 0x1AC9 JUMP JUMPDEST SWAP2 POP PUSH2 0x17EB DUP3 PUSH2 0x1D29 JUMP JUMPDEST PUSH1 0x20 DUP3 ADD SWAP1 POP SWAP2 SWAP1 POP JUMP JUMPDEST PUSH1 0x0 PUSH2 0x1803 PUSH1 0x1D DUP4 PUSH2 0x1AC9 JUMP JUMPDEST SWAP2 POP PUSH2 0x180E DUP3 PUSH2 0x1D52 JUMP JUMPDEST PUSH1 0x20 DUP3 ADD SWAP1 POP SWAP2 SWAP1 POP JUMP JUMPDEST PUSH1 0x0 PUSH2 0x1826 PUSH1 0x18 DUP4 PUSH2 0x1AC9 JUMP JUMPDEST SWAP2 POP PUSH2 0x1831 DUP3 PUSH2 0x1D7B JUMP JUMPDEST PUSH1 0x20 DUP3 ADD SWAP1 POP SWAP2 SWAP1 POP JUMP JUMPDEST PUSH1 0x0 PUSH2 0x1849 PUSH1 0xC DUP4 PUSH2 0x1AC9 JUMP JUMPDEST SWAP2 POP PUSH2 0x1854 DUP3 PUSH2 0x1DA4 JUMP JUMPDEST PUSH1 0x20 DUP3 ADD SWAP1 POP SWAP2 SWAP1 POP JUMP JUMPDEST PUSH1 0x0 PUSH2 0x186C PUSH1 0x21 DUP4 PUSH2 0x1AC9 JUMP JUMPDEST SWAP2 POP PUSH2 0x1877 DUP3 PUSH2 0x1DCD JUMP JUMPDEST PUSH1 0x40 DUP3 ADD SWAP1 POP SWAP2 SWAP1 POP JUMP JUMPDEST PUSH1 0x0 PUSH2 0x188F PUSH1 0x1A DUP4 PUSH2 0x1AC9 JUMP JUMPDEST SWAP2 POP PUSH2 0x189A DUP3 PUSH2 0x1E1C JUMP JUMPDEST PUSH1 0x20 DUP3 ADD SWAP1 POP SWAP2 SWAP1 POP JUMP JUMPDEST PUSH1 0x80 DUP3 ADD PUSH1 0x0 DUP3 ADD MLOAD PUSH2 0x18BB PUSH1 0x0 DUP6 ADD DUP3 PUSH2 0x18FA JUMP JUMPDEST POP PUSH1 0x20 DUP3 ADD MLOAD PUSH2 0x18CE PUSH1 0x20 DUP6 ADD DUP3 PUSH2 0x18FA JUMP JUMPDEST POP PUSH1 0x40 DUP3 ADD MLOAD PUSH2 0x18E1 PUSH1 0x40 DUP6 ADD DUP3 PUSH2 0x18FA JUMP JUMPDEST POP PUSH1 0x60 DUP3 ADD MLOAD PUSH2 0x18F4 PUSH1 0x60 DUP6 ADD DUP3 PUSH2 0x175B JUMP JUMPDEST POP POP POP POP JUMP JUMPDEST PUSH2 0x1903 DUP2 PUSH2 0x1BD7 JUMP JUMPDEST DUP3 MSTORE POP POP JUMP JUMPDEST PUSH2 0x1912 DUP2 PUSH2 0x1BD7 JUMP JUMPDEST DUP3 MSTORE POP POP JUMP JUMPDEST PUSH1 0x0 PUSH1 0x20 DUP3 ADD SWAP1 POP PUSH2 0x192D PUSH1 0x0 DUP4 ADD DUP5 PUSH2 0x16EE JUMP JUMPDEST SWAP3 SWAP2 POP POP JUMP JUMPDEST PUSH1 0x0 PUSH1 0x20 DUP3 ADD SWAP1 POP DUP2 DUP2 SUB PUSH1 0x0 DUP4 ADD MSTORE PUSH2 0x194D DUP2 DUP5 PUSH2 0x16FD JUMP JUMPDEST SWAP1 POP SWAP3 SWAP2 POP POP JUMP JUMPDEST PUSH1 0x0 PUSH1 0x20 DUP3 ADD SWAP1 POP DUP2 DUP2 SUB PUSH1 0x0 DUP4 ADD MSTORE PUSH2 0x196E DUP2 PUSH2 0x176A JUMP JUMPDEST SWAP1 POP SWAP2 SWAP1 POP JUMP JUMPDEST PUSH1 0x0 PUSH1 0x20 DUP3 ADD SWAP1 POP DUP2 DUP2 SUB PUSH1 0x0 DUP4 ADD MSTORE PUSH2 0x198E DUP2 PUSH2 0x178D JUMP JUMPDEST SWAP1 POP SWAP2 SWAP1 POP JUMP JUMPDEST PUSH1 0x0 PUSH1 0x20 DUP3 ADD SWAP1 POP DUP2 DUP2 SUB PUSH1 0x0 DUP4 ADD MSTORE PUSH2 0x19AE DUP2 PUSH2 0x17B0 JUMP JUMPDEST SWAP1 POP SWAP2 SWAP1 POP JUMP JUMPDEST PUSH1 0x0 PUSH1 0x20 DUP3 ADD SWAP1 POP DUP2 DUP2 SUB PUSH1 0x0 DUP4 ADD MSTORE PUSH2 0x19CE DUP2 PUSH2 0x17D3 JUMP JUMPDEST SWAP1 POP SWAP2 SWAP1 POP JUMP JUMPDEST PUSH1 0x0 PUSH1 0x20 DUP3 ADD SWAP1 POP DUP2 DUP2 SUB PUSH1 0x0 DUP4 ADD MSTORE PUSH2 0x19EE DUP2 PUSH2 0x17F6 JUMP JUMPDEST SWAP1 POP SWAP2 SWAP1 POP JUMP JUMPDEST PUSH1 0x0 PUSH1 0x20 DUP3 ADD SWAP1 POP DUP2 DUP2 SUB PUSH1 0x0 DUP4 ADD MSTORE PUSH2 0x1A0E DUP2 PUSH2 0x1819 JUMP JUMPDEST SWAP1 POP SWAP2 SWAP1 POP JUMP JUMPDEST PUSH1 0x0 PUSH1 0x20 DUP3 ADD SWAP1 POP DUP2 DUP2 SUB PUSH1 0x0 DUP4 ADD MSTORE PUSH2 0x1A2E DUP2 PUSH2 0x183C JUMP JUMPDEST SWAP1 POP SWAP2 SWAP1 POP JUMP JUMPDEST PUSH1 0x0 PUSH1 0x20 DUP3 ADD SWAP1 POP DUP2 DUP2 SUB PUSH1 0x0 DUP4 ADD MSTORE PUSH2 0x1A4E DUP2 PUSH2 0x185F JUMP JUMPDEST SWAP1 POP SWAP2 SWAP1 POP JUMP JUMPDEST PUSH1 0x0 PUSH1 0x20 DUP3 ADD SWAP1 POP DUP2 DUP2 SUB PUSH1 0x0 DUP4 ADD MSTORE PUSH2 0x1A6E DUP2 PUSH2 0x1882 JUMP JUMPDEST SWAP1 POP SWAP2 SWAP1 POP JUMP JUMPDEST PUSH1 0x0 PUSH1 0x20 DUP3 ADD SWAP1 POP PUSH2 0x1A8A PUSH1 0x0 DUP4 ADD DUP5 PUSH2 0x1909 JUMP JUMPDEST SWAP3 SWAP2 POP POP JUMP JUMPDEST PUSH1 0x0 DUP2 SWAP1 POP PUSH1 0x20 DUP3 ADD SWAP1 POP SWAP2 SWAP1 POP JUMP JUMPDEST PUSH1 0x0 DUP2 MLOAD SWAP1 POP SWAP2 SWAP1 POP JUMP JUMPDEST PUSH1 0x0 PUSH1 0x20 DUP3 ADD SWAP1 POP SWAP2 SWAP1 POP JUMP JUMPDEST PUSH1 0x0 DUP3 DUP3 MSTORE PUSH1 0x20 DUP3 ADD SWAP1 POP SWAP3 SWAP2 POP POP JUMP JUMPDEST PUSH1 0x0 DUP3 DUP3 MSTORE PUSH1 0x20 DUP3 ADD SWAP1 POP SWAP3 SWAP2 POP POP JUMP JUMPDEST PUSH1 0x0 PUSH2 0x1AE5 DUP3 PUSH2 0x1BD7 JUMP JUMPDEST SWAP2 POP PUSH2 0x1AF0 DUP4 PUSH2 0x1BD7 JUMP JUMPDEST SWAP3 POP DUP3 PUSH2 0x1B00 JUMPI PUSH2 0x1AFF PUSH2 0x1C59 JUMP JUMPDEST JUMPDEST DUP3 DUP3 DIV SWAP1 POP SWAP3 SWAP2 POP POP JUMP JUMPDEST PUSH1 0x0 PUSH2 0x1B16 DUP3 PUSH2 0x1BD7 JUMP JUMPDEST SWAP2 POP PUSH2 0x1B21 DUP4 PUSH2 0x1BD7 JUMP JUMPDEST SWAP3 POP DUP2 PUSH32 0xFFFFFFFFFFFFFFFFFFFFFFFFFFFFFFFFFFFFFFFFFFFFFFFFFFFFFFFFFFFFFFFF DIV DUP4 GT DUP3 ISZERO ISZERO AND ISZERO PUSH2 0x1B5A JUMPI PUSH2 0x1B59 PUSH2 0x1C2A JUMP JUMPDEST JUMPDEST DUP3 DUP3 MUL SWAP1 POP SWAP3 SWAP2 POP POP JUMP JUMPDEST PUSH1 0x0 PUSH2 0x1B70 DUP3 PUSH2 0x1BD7 JUMP JUMPDEST SWAP2 POP PUSH2 0x1B7B DUP4 PUSH2 0x1BD7 JUMP JUMPDEST SWAP3 POP DUP3 DUP3 LT ISZERO PUSH2 0x1B8E JUMPI PUSH2 0x1B8D PUSH2 0x1C2A JUMP JUMPDEST JUMPDEST DUP3 DUP3 SUB SWAP1 POP SWAP3 SWAP2 POP POP JUMP JUMPDEST PUSH1 0x0 PUSH2 0x1BA4 DUP3 PUSH2 0x1BB7 JUMP JUMPDEST SWAP1 POP SWAP2 SWAP1 POP JUMP JUMPDEST PUSH1 0x0 DUP2 ISZERO ISZERO SWAP1 POP SWAP2 SWAP1 POP JUMP JUMPDEST PUSH1 0x0 PUSH20 0xFFFFFFFFFFFFFFFFFFFFFFFFFFFFFFFFFFFFFFFF DUP3 AND SWAP1 POP SWAP2 SWAP1 POP JUMP JUMPDEST PUSH1 0x0 DUP2 SWAP1 POP SWAP2 SWAP1 POP JUMP JUMPDEST PUSH1 0x0 PUSH2 0x1BEC DUP3 PUSH2 0x1BD7 JUMP JUMPDEST SWAP2 POP PUSH32 0xFFFFFFFFFFFFFFFFFFFFFFFFFFFFFFFFFFFFFFFFFFFFFFFFFFFFFFFFFFFFFFFF DUP3 EQ ISZERO PUSH2 0x1C1F JUMPI PUSH2 0x1C1E PUSH2 0x1C2A JUMP JUMPDEST JUMPDEST PUSH1 0x1 DUP3 ADD SWAP1 POP SWAP2 SWAP1 POP JUMP JUMPDEST PUSH32 0x4E487B7100000000000000000000000000000000000000000000000000000000 PUSH1 0x0 MSTORE PUSH1 0x11 PUSH1 0x4 MSTORE PUSH1 0x24 PUSH1 0x0 REVERT JUMPDEST PUSH32 0x4E487B7100000000000000000000000000000000000000000000000000000000 PUSH1 0x0 MSTORE PUSH1 0x12 PUSH1 0x4 MSTORE PUSH1 0x24 PUSH1 0x0 REVERT JUMPDEST PUSH32 0x746F6B656E2069736E277420746F2073656C6C00000000000000000000000000 PUSH1 0x0 DUP3 ADD MSTORE POP JUMP JUMPDEST PUSH32 0x746F6B656E20616C726561647920657869737400000000000000000000000000 PUSH1 0x0 DUP3 ADD MSTORE POP JUMP JUMPDEST PUSH32 0x7472616E73616374696F6E27732076616C75652063616E6E6F74206265206469 PUSH1 0x0 DUP3 ADD MSTORE PUSH32 0x66666572656E74206F66206974656D2070726963650000000000000000000000 PUSH1 0x20 DUP3 ADD MSTORE POP JUMP JUMPDEST PUSH32 0x746F6B656E20646F65736E277420657869737400000000000000000000000000 PUSH1 0x0 DUP3 ADD MSTORE POP JUMP JUMPDEST PUSH32 0x4F6E6C79206974656D2773206F776E65722063616E20646F2074686174000000 PUSH1 0x0 DUP3 ADD MSTORE POP JUMP JUMPDEST PUSH32 0x746F6B656E20697320616C726561647920746F2073656C6C0000000000000000 PUSH1 0x0 DUP3 ADD MSTORE POP JUMP JUMPDEST PUSH32 0x596F752063616E27742073650000000000000000000000000000000000000000 PUSH1 0x0 DUP3 ADD MSTORE POP JUMP JUMPDEST PUSH32 0x4F6E6C7920636F6E74726163742773206F776E65722063616E20646F20746861 PUSH1 0x0 DUP3 ADD MSTORE PUSH32 0x7400000000000000000000000000000000000000000000000000000000000000 PUSH1 0x20 DUP3 ADD MSTORE POP JUMP JUMPDEST PUSH32 0x50726963652063616E6E6F7420626520657175616C20746F2030000000000000 PUSH1 0x0 DUP3 ADD MSTORE POP JUMP JUMPDEST PUSH2 0x1E4E DUP2 PUSH2 0x1B99 JUMP JUMPDEST DUP2 EQ PUSH2 0x1E59 JUMPI PUSH1 0x0 DUP1 REVERT JUMPDEST POP JUMP JUMPDEST PUSH2 0x1E65 DUP2 PUSH2 0x1BD7 JUMP JUMPDEST DUP2 EQ PUSH2 0x1E70 JUMPI PUSH1 0x0 DUP1 REVERT JUMPDEST POP JUMP INVALID LOG2 PUSH5 0x6970667358 0x22 SLT KECCAK256 MOD STATICCALL 0xC2 DUP12 0x27 SUB 0x2B ADD DUP14 PUSH3 0x284A67 0xD4 LT 0xE7 0xA9 0xD9 RETURNDATACOPY SWAP5 0xE4 0xB0 0xC4 SWAP5 DUP15 CODECOPY SAR 0xC2 PUSH13 0xE6345064736F6C634300080100 CALLER "
				},
				"gasEstimates": {
					"creation": {
						"codeDepositCost": "1569800",
						"executionCost": "infinite",
						"totalCost": "infinite"
					},
					"external": {
						"addItemToSell(uint256)": "46768",
						"balanceOf(address)": "1541",
						"createItem(uint256,uint256)": "infinite",
						"fetchItemsByCatId(uint256)": "infinite",
						"fetchItemsByOwner()": "infinite",
						"fetchItemsToSell()": "infinite",
						"getFeesPercentage()": "1247",
						"modifyFeesPercentage(uint256)": "21335",
						"ownerOf(uint256)": "1654",
						"removeItemToSell(uint256)": "46727",
						"sellItem(uint256)": "infinite"
					},
					"internal": {
						"getFees(uint256,uint256)": "infinite"
					}
				},
				"methodIdentifiers": {
					"addItemToSell(uint256)": "c0f202ef",
					"balanceOf(address)": "70a08231",
					"createItem(uint256,uint256)": "adae08dd",
					"fetchItemsByCatId(uint256)": "2165e65a",
					"fetchItemsByOwner()": "4cad2ffc",
					"fetchItemsToSell()": "073e74df",
					"getFeesPercentage()": "ea0ff14a",
					"modifyFeesPercentage(uint256)": "29de6246",
					"ownerOf(uint256)": "6352211e",
					"removeItemToSell(uint256)": "a4964c33",
					"sellItem(uint256)": "91b6be9a"
				}
			},
			"storageLayout": {
				"storage": [
					{
						"astId": 11,
						"contract": "contracts/GeekNft.sol:GeekNft",
						"label": "name",
						"offset": 0,
						"slot": "0",
						"type": "t_string_storage"
					},
					{
						"astId": 13,
						"contract": "contracts/GeekNft.sol:GeekNft",
						"label": "symbol",
						"offset": 0,
						"slot": "1",
						"type": "t_string_storage"
					},
					{
						"astId": 15,
						"contract": "contracts/GeekNft.sol:GeekNft",
						"label": "owner",
						"offset": 0,
						"slot": "2",
						"type": "t_address"
					},
					{
						"astId": 28,
						"contract": "contracts/GeekNft.sol:GeekNft",
						"label": "items",
						"offset": 0,
						"slot": "3",
						"type": "t_array(t_struct(Item)24_storage)dyn_storage"
					},
					{
						"astId": 30,
						"contract": "contracts/GeekNft.sol:GeekNft",
						"label": "itemsToSellCount",
						"offset": 0,
						"slot": "4",
						"type": "t_uint256"
					},
					{
						"astId": 32,
						"contract": "contracts/GeekNft.sol:GeekNft",
						"label": "feesPercentage",
						"offset": 0,
						"slot": "5",
						"type": "t_uint256"
					},
					{
						"astId": 36,
						"contract": "contracts/GeekNft.sol:GeekNft",
						"label": "itemToOwner",
						"offset": 0,
						"slot": "6",
						"type": "t_mapping(t_uint256,t_address)"
					},
					{
						"astId": 40,
						"contract": "contracts/GeekNft.sol:GeekNft",
						"label": "itemsOwnerCount",
						"offset": 0,
						"slot": "7",
						"type": "t_mapping(t_address,t_uint256)"
					},
					{
						"astId": 44,
						"contract": "contracts/GeekNft.sol:GeekNft",
						"label": "itemsCatIdCount",
						"offset": 0,
						"slot": "8",
						"type": "t_mapping(t_uint256,t_uint256)"
					}
				],
				"types": {
					"t_address": {
						"encoding": "inplace",
						"label": "address",
						"numberOfBytes": "20"
					},
					"t_array(t_struct(Item)24_storage)dyn_storage": {
						"base": "t_struct(Item)24_storage",
						"encoding": "dynamic_array",
						"label": "struct GeekNft.Item[]",
						"numberOfBytes": "32"
					},
					"t_bool": {
						"encoding": "inplace",
						"label": "bool",
						"numberOfBytes": "1"
					},
					"t_mapping(t_address,t_uint256)": {
						"encoding": "mapping",
						"key": "t_address",
						"label": "mapping(address => uint256)",
						"numberOfBytes": "32",
						"value": "t_uint256"
					},
					"t_mapping(t_uint256,t_address)": {
						"encoding": "mapping",
						"key": "t_uint256",
						"label": "mapping(uint256 => address)",
						"numberOfBytes": "32",
						"value": "t_address"
					},
					"t_mapping(t_uint256,t_uint256)": {
						"encoding": "mapping",
						"key": "t_uint256",
						"label": "mapping(uint256 => uint256)",
						"numberOfBytes": "32",
						"value": "t_uint256"
					},
					"t_string_storage": {
						"encoding": "bytes",
						"label": "string",
						"numberOfBytes": "32"
					},
					"t_struct(Item)24_storage": {
						"encoding": "inplace",
						"label": "struct GeekNft.Item",
						"members": [
							{
								"astId": 17,
								"contract": "contracts/GeekNft.sol:GeekNft",
								"label": "tokenId",
								"offset": 0,
								"slot": "0",
								"type": "t_uint256"
							},
							{
								"astId": 19,
								"contract": "contracts/GeekNft.sol:GeekNft",
								"label": "price",
								"offset": 0,
								"slot": "1",
								"type": "t_uint256"
							},
							{
								"astId": 21,
								"contract": "contracts/GeekNft.sol:GeekNft",
								"label": "catId",
								"offset": 0,
								"slot": "2",
								"type": "t_uint256"
							},
							{
								"astId": 23,
								"contract": "contracts/GeekNft.sol:GeekNft",
								"label": "toSell",
								"offset": 0,
								"slot": "3",
								"type": "t_bool"
							}
						],
						"numberOfBytes": "128"
					},
					"t_uint256": {
						"encoding": "inplace",
						"label": "uint256",
						"numberOfBytes": "32"
					}
				}
			},
			"userdoc": {
				"kind": "user",
				"methods": {},
				"version": 1
			}
		}
	}
}