{
	"contracts/GeekNftMarketPlace.sol": {
		"GeekNftMarketPlace": {
			"abi": [
				{
					"inputs": [],
					"stateMutability": "nonpayable",
					"type": "constructor"
				},
				{
					"anonymous": false,
					"inputs": [
						{
							"indexed": false,
							"internalType": "address",
							"name": "nftContract",
							"type": "address"
						},
						{
							"indexed": false,
							"internalType": "uint256",
							"name": "tokenId",
							"type": "uint256"
						},
						{
							"indexed": true,
							"internalType": "address",
							"name": "seller",
							"type": "address"
						},
						{
							"indexed": true,
							"internalType": "address",
							"name": "owner",
							"type": "address"
						},
						{
							"indexed": false,
							"internalType": "uint256",
							"name": "price",
							"type": "uint256"
						}
					],
					"name": "NFTListed",
					"type": "event"
				},
				{
					"anonymous": false,
					"inputs": [
						{
							"indexed": false,
							"internalType": "address",
							"name": "nftContract",
							"type": "address"
						},
						{
							"indexed": false,
							"internalType": "uint256",
							"name": "tokenId",
							"type": "uint256"
						},
						{
							"indexed": true,
							"internalType": "address",
							"name": "seller",
							"type": "address"
						},
						{
							"indexed": true,
							"internalType": "address",
							"name": "owner",
							"type": "address"
						},
						{
							"indexed": false,
							"internalType": "uint256",
							"name": "price",
							"type": "uint256"
						}
					],
					"name": "NFTSold",
					"type": "event"
				},
				{
					"inputs": [],
					"name": "LISTING_FEE",
					"outputs": [
						{
							"internalType": "uint256",
							"name": "",
							"type": "uint256"
						}
					],
					"stateMutability": "view",
					"type": "function"
				},
				{
					"inputs": [
						{
							"internalType": "address",
							"name": "_nftContract",
							"type": "address"
						},
						{
							"internalType": "uint256",
							"name": "_tokenId",
							"type": "uint256"
						}
					],
					"name": "buyNft",
					"outputs": [],
					"stateMutability": "payable",
					"type": "function"
				},
				{
					"inputs": [
						{
							"internalType": "address",
							"name": "_collection",
							"type": "address"
						}
					],
					"name": "getCollectionNfts",
					"outputs": [
						{
							"components": [
								{
									"internalType": "address",
									"name": "nftContract",
									"type": "address"
								},
								{
									"internalType": "uint256",
									"name": "tokenId",
									"type": "uint256"
								},
								{
									"internalType": "uint256",
									"name": "price",
									"type": "uint256"
								},
								{
									"internalType": "address payable",
									"name": "seller",
									"type": "address"
								},
								{
									"internalType": "address payable",
									"name": "owner",
									"type": "address"
								},
								{
									"internalType": "address payable",
									"name": "creator",
									"type": "address"
								},
								{
									"internalType": "bool",
									"name": "listed",
									"type": "bool"
								}
							],
							"internalType": "struct GeekNftMarketPlace.NFT[]",
							"name": "",
							"type": "tuple[]"
						}
					],
					"stateMutability": "view",
					"type": "function"
				},
				{
					"inputs": [],
					"name": "getListedNfts",
					"outputs": [
						{
							"components": [
								{
									"internalType": "address",
									"name": "nftContract",
									"type": "address"
								},
								{
									"internalType": "uint256",
									"name": "tokenId",
									"type": "uint256"
								},
								{
									"internalType": "uint256",
									"name": "price",
									"type": "uint256"
								},
								{
									"internalType": "address payable",
									"name": "seller",
									"type": "address"
								},
								{
									"internalType": "address payable",
									"name": "owner",
									"type": "address"
								},
								{
									"internalType": "address payable",
									"name": "creator",
									"type": "address"
								},
								{
									"internalType": "bool",
									"name": "listed",
									"type": "bool"
								}
							],
							"internalType": "struct GeekNftMarketPlace.NFT[]",
							"name": "",
							"type": "tuple[]"
						}
					],
					"stateMutability": "view",
					"type": "function"
				},
				{
					"inputs": [],
					"name": "getListingFee",
					"outputs": [
						{
							"internalType": "uint256",
							"name": "",
							"type": "uint256"
						}
					],
					"stateMutability": "view",
					"type": "function"
				},
				{
					"inputs": [],
					"name": "getMyCreatedNfts",
					"outputs": [
						{
							"components": [
								{
									"internalType": "address",
									"name": "nftContract",
									"type": "address"
								},
								{
									"internalType": "uint256",
									"name": "tokenId",
									"type": "uint256"
								},
								{
									"internalType": "uint256",
									"name": "price",
									"type": "uint256"
								},
								{
									"internalType": "address payable",
									"name": "seller",
									"type": "address"
								},
								{
									"internalType": "address payable",
									"name": "owner",
									"type": "address"
								},
								{
									"internalType": "address payable",
									"name": "creator",
									"type": "address"
								},
								{
									"internalType": "bool",
									"name": "listed",
									"type": "bool"
								}
							],
							"internalType": "struct GeekNftMarketPlace.NFT[]",
							"name": "",
							"type": "tuple[]"
						}
					],
					"stateMutability": "view",
					"type": "function"
				},
				{
					"inputs": [],
					"name": "getMyListedNfts",
					"outputs": [
						{
							"components": [
								{
									"internalType": "address",
									"name": "nftContract",
									"type": "address"
								},
								{
									"internalType": "uint256",
									"name": "tokenId",
									"type": "uint256"
								},
								{
									"internalType": "uint256",
									"name": "price",
									"type": "uint256"
								},
								{
									"internalType": "address payable",
									"name": "seller",
									"type": "address"
								},
								{
									"internalType": "address payable",
									"name": "owner",
									"type": "address"
								},
								{
									"internalType": "address payable",
									"name": "creator",
									"type": "address"
								},
								{
									"internalType": "bool",
									"name": "listed",
									"type": "bool"
								}
							],
							"internalType": "struct GeekNftMarketPlace.NFT[]",
							"name": "",
							"type": "tuple[]"
						}
					],
					"stateMutability": "view",
					"type": "function"
				},
				{
					"inputs": [],
					"name": "getMyOwnedNfts",
					"outputs": [
						{
							"components": [
								{
									"internalType": "address",
									"name": "nftContract",
									"type": "address"
								},
								{
									"internalType": "uint256",
									"name": "tokenId",
									"type": "uint256"
								},
								{
									"internalType": "uint256",
									"name": "price",
									"type": "uint256"
								},
								{
									"internalType": "address payable",
									"name": "seller",
									"type": "address"
								},
								{
									"internalType": "address payable",
									"name": "owner",
									"type": "address"
								},
								{
									"internalType": "address payable",
									"name": "creator",
									"type": "address"
								},
								{
									"internalType": "bool",
									"name": "listed",
									"type": "bool"
								}
							],
							"internalType": "struct GeekNftMarketPlace.NFT[]",
							"name": "",
							"type": "tuple[]"
						}
					],
					"stateMutability": "view",
					"type": "function"
				},
				{
					"inputs": [
						{
							"internalType": "address",
							"name": "_nftContract",
							"type": "address"
						},
						{
							"internalType": "uint256",
							"name": "_tokenId",
							"type": "uint256"
						},
						{
							"internalType": "uint256",
							"name": "_price",
							"type": "uint256"
						}
					],
					"name": "listNFT",
					"outputs": [],
					"stateMutability": "payable",
					"type": "function"
				},
				{
					"inputs": [
						{
							"internalType": "address",
							"name": "_nftContract",
							"type": "address"
						},
						{
							"internalType": "uint256",
							"name": "_tokenId",
							"type": "uint256"
						},
						{
							"internalType": "uint256",
							"name": "_price",
							"type": "uint256"
						}
					],
					"name": "resellNFT",
					"outputs": [],
					"stateMutability": "payable",
					"type": "function"
				}
			],
			"devdoc": {
				"kind": "dev",
				"methods": {},
				"version": 1
			},
			"evm": {
				"assembly": "    /* \"contracts/GeekNftMarketPlace.sol\":225:6312  contract GeekNftMarketPlace is ReentrancyGuard {... */\n  mstore(0x40, 0x80)\n    /* \"contracts/GeekNftMarketPlace.sol\":428:439  0.002 ether */\n  0x071afd498d0000\n    /* \"contracts/GeekNftMarketPlace.sol\":402:439  uint public LISTING_FEE = 0.002 ether */\n  0x03\n  sstore\n    /* \"contracts/GeekNftMarketPlace.sol\":974:1040  constructor() {... */\n  callvalue\n  dup1\n  iszero\n  tag_1\n  jumpi\n  0x00\n  dup1\n  revert\ntag_1:\n  pop\n    /* \"contracts/RenntrancyGuard.sol\":128:129  1 */\n  0x01\n    /* \"contracts/RenntrancyGuard.sol\":233:240  _status */\n  0x00\n    /* \"contracts/RenntrancyGuard.sol\":233:255  _status = _NOT_ENTERED */\n  dup2\n  swap1\n  sstore\n  pop\n    /* \"contracts/GeekNftMarketPlace.sol\":1022:1032  msg.sender */\n  caller\n    /* \"contracts/GeekNftMarketPlace.sol\":998:1011  _marketOwwner */\n  0x04\n  0x00\n    /* \"contracts/GeekNftMarketPlace.sol\":998:1033  _marketOwwner = payable(msg.sender) */\n  0x0100\n  exp\n  dup2\n  sload\n  dup2\n  0xffffffffffffffffffffffffffffffffffffffff\n  mul\n  not\n  and\n  swap1\n  dup4\n  0xffffffffffffffffffffffffffffffffffffffff\n  and\n  mul\n  or\n  swap1\n  sstore\n  pop\n    /* \"contracts/GeekNftMarketPlace.sol\":225:6312  contract GeekNftMarketPlace is ReentrancyGuard {... */\n  dataSize(sub_0)\n  dup1\n  dataOffset(sub_0)\n  0x00\n  codecopy\n  0x00\n  return\nstop\n\nsub_0: assembly {\n        /* \"contracts/GeekNftMarketPlace.sol\":225:6312  contract GeekNftMarketPlace is ReentrancyGuard {... */\n      mstore(0x40, 0x80)\n      jumpi(tag_1, lt(calldatasize, 0x04))\n      shr(0xe0, calldataload(0x00))\n      dup1\n      0x8d6cb3fb\n      gt\n      tag_12\n      jumpi\n      dup1\n      0x8d6cb3fb\n      eq\n      tag_7\n      jumpi\n      dup1\n      0xa46b5c5a\n      eq\n      tag_8\n      jumpi\n      dup1\n      0xad05f1b4\n      eq\n      tag_9\n      jumpi\n      dup1\n      0xb8fe6abe\n      eq\n      tag_10\n      jumpi\n      dup1\n      0xccef4339\n      eq\n      tag_11\n      jumpi\n      jump(tag_1)\n    tag_12:\n      dup1\n      0x04935694\n      eq\n      tag_2\n      jumpi\n      dup1\n      0x1f4cc4db\n      eq\n      tag_3\n      jumpi\n      dup1\n      0x2b86ae38\n      eq\n      tag_4\n      jumpi\n      dup1\n      0x4ddf4f8f\n      eq\n      tag_5\n      jumpi\n      dup1\n      0x8492095a\n      eq\n      tag_6\n      jumpi\n    tag_1:\n      0x00\n      dup1\n      revert\n        /* \"contracts/GeekNftMarketPlace.sol\":2541:3187  function resellNFT(address _nftContract, uint _tokenId, uint _price) public payable nonReentrant{... */\n    tag_2:\n      tag_13\n      0x04\n      dup1\n      calldatasize\n      sub\n      dup2\n      add\n      swap1\n      tag_14\n      swap2\n      swap1\n      tag_15\n      jump\t// in\n    tag_14:\n      tag_16\n      jump\t// in\n    tag_13:\n      stop\n        /* \"contracts/GeekNftMarketPlace.sol\":4522:5173  function getMyListedNfts() public view returns (NFT[] memory) {... */\n    tag_3:\n      callvalue\n      dup1\n      iszero\n      tag_17\n      jumpi\n      0x00\n      dup1\n      revert\n    tag_17:\n      pop\n      tag_18\n      tag_19\n      jump\t// in\n    tag_18:\n      mload(0x40)\n      tag_20\n      swap2\n      swap1\n      tag_21\n      jump\t// in\n    tag_20:\n      mload(0x40)\n      dup1\n      swap2\n      sub\n      swap1\n      return\n        /* \"contracts/GeekNftMarketPlace.sol\":402:439  uint public LISTING_FEE = 0.002 ether */\n    tag_4:\n      callvalue\n      dup1\n      iszero\n      tag_22\n      jumpi\n      0x00\n      dup1\n      revert\n    tag_22:\n      pop\n      tag_23\n      tag_24\n      jump\t// in\n    tag_23:\n      mload(0x40)\n      tag_25\n      swap2\n      swap1\n      tag_26\n      jump\t// in\n    tag_25:\n      mload(0x40)\n      dup1\n      swap2\n      sub\n      swap1\n      return\n        /* \"contracts/GeekNftMarketPlace.sol\":1926:2486  function buyNft(address _nftContract, uint _tokenId) public payable nonReentrant{... */\n    tag_5:\n      tag_27\n      0x04\n      dup1\n      calldatasize\n      sub\n      dup2\n      add\n      swap1\n      tag_28\n      swap2\n      swap1\n      tag_29\n      jump\t// in\n    tag_28:\n      tag_30\n      jump\t// in\n    tag_27:\n      stop\n        /* \"contracts/GeekNftMarketPlace.sol\":3871:4481  function getMyCreatedNfts() public view returns (NFT[] memory) {... */\n    tag_6:\n      callvalue\n      dup1\n      iszero\n      tag_31\n      jumpi\n      0x00\n      dup1\n      revert\n    tag_31:\n      pop\n      tag_32\n      tag_33\n      jump\t// in\n    tag_32:\n      mload(0x40)\n      tag_34\n      swap2\n      swap1\n      tag_21\n      jump\t// in\n    tag_34:\n      mload(0x40)\n      dup1\n      swap2\n      sub\n      swap1\n      return\n        /* \"contracts/GeekNftMarketPlace.sol\":5854:6310  function getListedNfts() public view returns (NFT[] memory) {... */\n    tag_7:\n      callvalue\n      dup1\n      iszero\n      tag_35\n      jumpi\n      0x00\n      dup1\n      revert\n    tag_35:\n      pop\n      tag_36\n      tag_37\n      jump\t// in\n    tag_36:\n      mload(0x40)\n      tag_38\n      swap2\n      swap1\n      tag_21\n      jump\t// in\n    tag_38:\n      mload(0x40)\n      dup1\n      swap2\n      sub\n      swap1\n      return\n        /* \"contracts/GeekNftMarketPlace.sol\":3226:3830  function getMyOwnedNfts() public view returns (NFT[] memory) {... */\n    tag_8:\n      callvalue\n      dup1\n      iszero\n      tag_39\n      jumpi\n      0x00\n      dup1\n      revert\n    tag_39:\n      pop\n      tag_40\n      tag_41\n      jump\t// in\n    tag_40:\n      mload(0x40)\n      tag_42\n      swap2\n      swap1\n      tag_21\n      jump\t// in\n    tag_42:\n      mload(0x40)\n      dup1\n      swap2\n      sub\n      swap1\n      return\n        /* \"contracts/GeekNftMarketPlace.sol\":1177:1902  function listNFT(address _nftContract, uint _tokenId, uint _price) public payable nonReentrant{... */\n    tag_9:\n      tag_43\n      0x04\n      dup1\n      calldatasize\n      sub\n      dup2\n      add\n      swap1\n      tag_44\n      swap2\n      swap1\n      tag_15\n      jump\t// in\n    tag_44:\n      tag_45\n      jump\t// in\n    tag_43:\n      stop\n        /* \"contracts/GeekNftMarketPlace.sol\":1046:1132  function getListingFee() public view returns (uint){... */\n    tag_10:\n      callvalue\n      dup1\n      iszero\n      tag_46\n      jumpi\n      0x00\n      dup1\n      revert\n    tag_46:\n      pop\n      tag_47\n      tag_48\n      jump\t// in\n    tag_47:\n      mload(0x40)\n      tag_49\n      swap2\n      swap1\n      tag_26\n      jump\t// in\n    tag_49:\n      mload(0x40)\n      dup1\n      swap2\n      sub\n      swap1\n      return\n        /* \"contracts/GeekNftMarketPlace.sol\":5208:5848  function getCollectionNfts(address _collection) public view returns (NFT[] memory) {... */\n    tag_11:\n      callvalue\n      dup1\n      iszero\n      tag_50\n      jumpi\n      0x00\n      dup1\n      revert\n    tag_50:\n      pop\n      tag_51\n      0x04\n      dup1\n      calldatasize\n      sub\n      dup2\n      add\n      swap1\n      tag_52\n      swap2\n      swap1\n      tag_53\n      jump\t// in\n    tag_52:\n      tag_54\n      jump\t// in\n    tag_51:\n      mload(0x40)\n      tag_55\n      swap2\n      swap1\n      tag_21\n      jump\t// in\n    tag_55:\n      mload(0x40)\n      dup1\n      swap2\n      sub\n      swap1\n      return\n        /* \"contracts/GeekNftMarketPlace.sol\":2541:3187  function resellNFT(address _nftContract, uint _tokenId, uint _price) public payable nonReentrant{... */\n    tag_16:\n        /* \"contracts/RenntrancyGuard.sol\":171:172  2 */\n      0x02\n        /* \"contracts/RenntrancyGuard.sol\":310:317  _status */\n      sload(0x00)\n        /* \"contracts/RenntrancyGuard.sol\":310:329  _status != _ENTERED */\n      eq\n      iszero\n        /* \"contracts/RenntrancyGuard.sol\":302:365  require(_status != _ENTERED, \"ReentrancyGuard: reentrant call\") */\n      tag_57\n      jumpi\n      mload(0x40)\n      0x08c379a000000000000000000000000000000000000000000000000000000000\n      dup2\n      mstore\n      0x04\n      add\n      tag_58\n      swap1\n      tag_59\n      jump\t// in\n    tag_58:\n      mload(0x40)\n      dup1\n      swap2\n      sub\n      swap1\n      revert\n    tag_57:\n        /* \"contracts/RenntrancyGuard.sol\":171:172  2 */\n      0x02\n        /* \"contracts/RenntrancyGuard.sol\":375:382  _status */\n      0x00\n        /* \"contracts/RenntrancyGuard.sol\":375:393  _status = _ENTERED */\n      dup2\n      swap1\n      sstore\n      pop\n        /* \"contracts/GeekNftMarketPlace.sol\":2664:2665  0 */\n      0x00\n        /* \"contracts/GeekNftMarketPlace.sol\":2655:2661  _price */\n      dup2\n        /* \"contracts/GeekNftMarketPlace.sol\":2655:2665  _price > 0 */\n      gt\n        /* \"contracts/GeekNftMarketPlace.sol\":2647:2698  require(_price > 0, \"Price must be at least 1 wei\") */\n      tag_61\n      jumpi\n      mload(0x40)\n      0x08c379a000000000000000000000000000000000000000000000000000000000\n      dup2\n      mstore\n      0x04\n      add\n      tag_62\n      swap1\n      tag_63\n      jump\t// in\n    tag_62:\n      mload(0x40)\n      dup1\n      swap2\n      sub\n      swap1\n      revert\n    tag_61:\n        /* \"contracts/GeekNftMarketPlace.sol\":2729:2740  LISTING_FEE */\n      sload(0x03)\n        /* \"contracts/GeekNftMarketPlace.sol\":2716:2725  msg.value */\n      callvalue\n        /* \"contracts/GeekNftMarketPlace.sol\":2716:2740  msg.value == LISTING_FEE */\n      eq\n        /* \"contracts/GeekNftMarketPlace.sol\":2708:2777  require(msg.value == LISTING_FEE, \"Not enough ether for listing fee\") */\n      tag_64\n      jumpi\n      mload(0x40)\n      0x08c379a000000000000000000000000000000000000000000000000000000000\n      dup2\n      mstore\n      0x04\n      add\n      tag_65\n      swap1\n      tag_66\n      jump\t// in\n    tag_65:\n      mload(0x40)\n      dup1\n      swap2\n      sub\n      swap1\n      revert\n    tag_64:\n        /* \"contracts/GeekNftMarketPlace.sol\":2805:2817  _nftContract */\n      dup3\n        /* \"contracts/GeekNftMarketPlace.sol\":2788:2831  GeekNftInterface(_nftContract).transferFrom */\n      0xffffffffffffffffffffffffffffffffffffffff\n      and\n      0x23b872dd\n        /* \"contracts/GeekNftMarketPlace.sol\":2832:2842  msg.sender */\n      caller\n        /* \"contracts/GeekNftMarketPlace.sol\":2852:2856  this */\n      address\n        /* \"contracts/GeekNftMarketPlace.sol\":2859:2867  _tokenId */\n      dup6\n        /* \"contracts/GeekNftMarketPlace.sol\":2788:2868  GeekNftInterface(_nftContract).transferFrom(msg.sender, address(this), _tokenId) */\n      mload(0x40)\n      dup5\n      0xffffffff\n      and\n      0xe0\n      shl\n      dup2\n      mstore\n      0x04\n      add\n      tag_67\n      swap4\n      swap3\n      swap2\n      swap1\n      tag_68\n      jump\t// in\n    tag_67:\n      0x00\n      mload(0x40)\n      dup1\n      dup4\n      sub\n      dup2\n      0x00\n      dup8\n      dup1\n      extcodesize\n      iszero\n      dup1\n      iszero\n      tag_69\n      jumpi\n      0x00\n      dup1\n      revert\n    tag_69:\n      pop\n      gas\n      call\n      iszero\n      dup1\n      iszero\n      tag_71\n      jumpi\n      returndatasize\n      0x00\n      dup1\n      returndatacopy\n      revert(0x00, returndatasize)\n    tag_71:\n      pop\n      pop\n      pop\n      pop\n        /* \"contracts/GeekNftMarketPlace.sol\":2879:2894  NFT storage nft */\n      0x00\n        /* \"contracts/GeekNftMarketPlace.sol\":2897:2905  _idToNft */\n      0x05\n        /* \"contracts/GeekNftMarketPlace.sol\":2897:2915  _idToNft[_tokenId] */\n      0x00\n        /* \"contracts/GeekNftMarketPlace.sol\":2906:2914  _tokenId */\n      dup5\n        /* \"contracts/GeekNftMarketPlace.sol\":2897:2915  _idToNft[_tokenId] */\n      dup2\n      mstore\n      0x20\n      add\n      swap1\n      dup2\n      mstore\n      0x20\n      add\n      0x00\n      keccak256\n        /* \"contracts/GeekNftMarketPlace.sol\":2879:2915  NFT storage nft = _idToNft[_tokenId] */\n      swap1\n      pop\n        /* \"contracts/GeekNftMarketPlace.sol\":2946:2956  msg.sender */\n      caller\n        /* \"contracts/GeekNftMarketPlace.sol\":2925:2928  nft */\n      dup2\n        /* \"contracts/GeekNftMarketPlace.sol\":2925:2935  nft.seller */\n      0x03\n      add\n      0x00\n        /* \"contracts/GeekNftMarketPlace.sol\":2925:2957  nft.seller = payable(msg.sender) */\n      0x0100\n      exp\n      dup2\n      sload\n      dup2\n      0xffffffffffffffffffffffffffffffffffffffff\n      mul\n      not\n      and\n      swap1\n      dup4\n      0xffffffffffffffffffffffffffffffffffffffff\n      and\n      mul\n      or\n      swap1\n      sstore\n      pop\n        /* \"contracts/GeekNftMarketPlace.sol\":2995:2999  this */\n      address\n        /* \"contracts/GeekNftMarketPlace.sol\":2967:2970  nft */\n      dup2\n        /* \"contracts/GeekNftMarketPlace.sol\":2967:2976  nft.owner */\n      0x04\n      add\n      0x00\n        /* \"contracts/GeekNftMarketPlace.sol\":2967:3001  nft.owner = payable(address(this)) */\n      0x0100\n      exp\n      dup2\n      sload\n      dup2\n      0xffffffffffffffffffffffffffffffffffffffff\n      mul\n      not\n      and\n      swap1\n      dup4\n      0xffffffffffffffffffffffffffffffffffffffff\n      and\n      mul\n      or\n      swap1\n      sstore\n      pop\n        /* \"contracts/GeekNftMarketPlace.sol\":3024:3028  true */\n      0x01\n        /* \"contracts/GeekNftMarketPlace.sol\":3011:3014  nft */\n      dup2\n        /* \"contracts/GeekNftMarketPlace.sol\":3011:3021  nft.listed */\n      0x05\n      add\n      0x14\n        /* \"contracts/GeekNftMarketPlace.sol\":3011:3028  nft.listed = true */\n      0x0100\n      exp\n      dup2\n      sload\n      dup2\n      0xff\n      mul\n      not\n      and\n      swap1\n      dup4\n      iszero\n      iszero\n      mul\n      or\n      swap1\n      sstore\n      pop\n        /* \"contracts/GeekNftMarketPlace.sol\":3050:3056  _price */\n      dup2\n        /* \"contracts/GeekNftMarketPlace.sol\":3038:3041  nft */\n      dup2\n        /* \"contracts/GeekNftMarketPlace.sol\":3038:3047  nft.price */\n      0x02\n      add\n        /* \"contracts/GeekNftMarketPlace.sol\":3038:3056  nft.price = _price */\n      dup2\n      swap1\n      sstore\n      pop\n        /* \"contracts/GeekNftMarketPlace.sol\":3067:3088  _nftsSold.decrement() */\n      tag_72\n        /* \"contracts/GeekNftMarketPlace.sol\":3067:3076  _nftsSold */\n      0x01\n        /* \"contracts/GeekNftMarketPlace.sol\":3067:3086  _nftsSold.decrement */\n      tag_73\n        /* \"contracts/GeekNftMarketPlace.sol\":3067:3088  _nftsSold.decrement() */\n      jump\t// in\n    tag_72:\n        /* \"contracts/GeekNftMarketPlace.sol\":3166:3170  this */\n      address\n        /* \"contracts/GeekNftMarketPlace.sol\":3112:3180  NFTListed(_nftContract, _tokenId, msg.sender, address(this), _price) */\n      0xffffffffffffffffffffffffffffffffffffffff\n      and\n        /* \"contracts/GeekNftMarketPlace.sol\":3146:3156  msg.sender */\n      caller\n        /* \"contracts/GeekNftMarketPlace.sol\":3112:3180  NFTListed(_nftContract, _tokenId, msg.sender, address(this), _price) */\n      0xffffffffffffffffffffffffffffffffffffffff\n      and\n      0xa0c6c0d02d86fdacecbaa5fdf5894bab204e31a778250474108540733a9b8d19\n        /* \"contracts/GeekNftMarketPlace.sol\":3122:3134  _nftContract */\n      dup7\n        /* \"contracts/GeekNftMarketPlace.sol\":3136:3144  _tokenId */\n      dup7\n        /* \"contracts/GeekNftMarketPlace.sol\":3173:3179  _price */\n      dup7\n        /* \"contracts/GeekNftMarketPlace.sol\":3112:3180  NFTListed(_nftContract, _tokenId, msg.sender, address(this), _price) */\n      mload(0x40)\n      tag_74\n      swap4\n      swap3\n      swap2\n      swap1\n      tag_75\n      jump\t// in\n    tag_74:\n      mload(0x40)\n      dup1\n      swap2\n      sub\n      swap1\n      log3\n        /* \"contracts/GeekNftMarketPlace.sol\":2637:3187  {... */\n      pop\n        /* \"contracts/RenntrancyGuard.sol\":128:129  1 */\n      0x01\n        /* \"contracts/RenntrancyGuard.sol\":414:421  _status */\n      0x00\n        /* \"contracts/RenntrancyGuard.sol\":414:436  _status = _NOT_ENTERED */\n      dup2\n      swap1\n      sstore\n      pop\n        /* \"contracts/GeekNftMarketPlace.sol\":2541:3187  function resellNFT(address _nftContract, uint _tokenId, uint _price) public payable nonReentrant{... */\n      pop\n      pop\n      pop\n      jump\t// out\n        /* \"contracts/GeekNftMarketPlace.sol\":4522:5173  function getMyListedNfts() public view returns (NFT[] memory) {... */\n    tag_19:\n        /* \"contracts/GeekNftMarketPlace.sol\":4570:4582  NFT[] memory */\n      0x60\n        /* \"contracts/GeekNftMarketPlace.sol\":4594:4608  uint nftsCount */\n      0x00\n        /* \"contracts/GeekNftMarketPlace.sol\":4611:4631  _nftsCount.current() */\n      tag_77\n        /* \"contracts/GeekNftMarketPlace.sol\":4611:4621  _nftsCount */\n      0x02\n        /* \"contracts/GeekNftMarketPlace.sol\":4611:4629  _nftsCount.current */\n      tag_78\n        /* \"contracts/GeekNftMarketPlace.sol\":4611:4631  _nftsCount.current() */\n      jump\t// in\n    tag_77:\n        /* \"contracts/GeekNftMarketPlace.sol\":4594:4631  uint nftsCount = _nftsCount.current() */\n      swap1\n      pop\n        /* \"contracts/GeekNftMarketPlace.sol\":4641:4657  uint myNftsCount */\n      0x00\n        /* \"contracts/GeekNftMarketPlace.sol\":4676:4682  uint i */\n      dup1\n        /* \"contracts/GeekNftMarketPlace.sol\":4685:4686  1 */\n      0x01\n        /* \"contracts/GeekNftMarketPlace.sol\":4676:4686  uint i = 1 */\n      swap1\n      pop\n        /* \"contracts/GeekNftMarketPlace.sol\":4671:4839  for (uint i = 1; i <= nftsCount; i++) {... */\n    tag_79:\n        /* \"contracts/GeekNftMarketPlace.sol\":4693:4702  nftsCount */\n      dup3\n        /* \"contracts/GeekNftMarketPlace.sol\":4688:4689  i */\n      dup2\n        /* \"contracts/GeekNftMarketPlace.sol\":4688:4702  i <= nftsCount */\n      gt\n        /* \"contracts/GeekNftMarketPlace.sol\":4671:4839  for (uint i = 1; i <= nftsCount; i++) {... */\n      tag_80\n      jumpi\n        /* \"contracts/GeekNftMarketPlace.sol\":4748:4758  msg.sender */\n      caller\n        /* \"contracts/GeekNftMarketPlace.sol\":4726:4758  _idToNft[i].seller == msg.sender */\n      0xffffffffffffffffffffffffffffffffffffffff\n      and\n        /* \"contracts/GeekNftMarketPlace.sol\":4726:4734  _idToNft */\n      0x05\n        /* \"contracts/GeekNftMarketPlace.sol\":4726:4737  _idToNft[i] */\n      0x00\n        /* \"contracts/GeekNftMarketPlace.sol\":4735:4736  i */\n      dup4\n        /* \"contracts/GeekNftMarketPlace.sol\":4726:4737  _idToNft[i] */\n      dup2\n      mstore\n      0x20\n      add\n      swap1\n      dup2\n      mstore\n      0x20\n      add\n      0x00\n      keccak256\n        /* \"contracts/GeekNftMarketPlace.sol\":4726:4744  _idToNft[i].seller */\n      0x03\n      add\n      0x00\n      swap1\n      sload\n      swap1\n      0x0100\n      exp\n      swap1\n      div\n      0xffffffffffffffffffffffffffffffffffffffff\n      and\n        /* \"contracts/GeekNftMarketPlace.sol\":4726:4758  _idToNft[i].seller == msg.sender */\n      0xffffffffffffffffffffffffffffffffffffffff\n      and\n      eq\n        /* \"contracts/GeekNftMarketPlace.sol\":4726:4780  _idToNft[i].seller == msg.sender && _idToNft[i].listed */\n      dup1\n      iszero\n      tag_82\n      jumpi\n      pop\n        /* \"contracts/GeekNftMarketPlace.sol\":4762:4770  _idToNft */\n      0x05\n        /* \"contracts/GeekNftMarketPlace.sol\":4762:4773  _idToNft[i] */\n      0x00\n        /* \"contracts/GeekNftMarketPlace.sol\":4771:4772  i */\n      dup3\n        /* \"contracts/GeekNftMarketPlace.sol\":4762:4773  _idToNft[i] */\n      dup2\n      mstore\n      0x20\n      add\n      swap1\n      dup2\n      mstore\n      0x20\n      add\n      0x00\n      keccak256\n        /* \"contracts/GeekNftMarketPlace.sol\":4762:4780  _idToNft[i].listed */\n      0x05\n      add\n      0x14\n      swap1\n      sload\n      swap1\n      0x0100\n      exp\n      swap1\n      div\n      0xff\n      and\n        /* \"contracts/GeekNftMarketPlace.sol\":4726:4780  _idToNft[i].seller == msg.sender && _idToNft[i].listed */\n    tag_82:\n        /* \"contracts/GeekNftMarketPlace.sol\":4723:4829  if(_idToNft[i].seller == msg.sender && _idToNft[i].listed) {... */\n      iszero\n      tag_83\n      jumpi\n        /* \"contracts/GeekNftMarketPlace.sol\":4800:4814  myNftsCount ++ */\n      dup2\n      dup1\n      tag_84\n      swap1\n      tag_85\n      jump\t// in\n    tag_84:\n      swap3\n      pop\n      pop\n        /* \"contracts/GeekNftMarketPlace.sol\":4723:4829  if(_idToNft[i].seller == msg.sender && _idToNft[i].listed) {... */\n    tag_83:\n        /* \"contracts/GeekNftMarketPlace.sol\":4704:4707  i++ */\n      dup1\n      dup1\n      tag_86\n      swap1\n      tag_85\n      jump\t// in\n    tag_86:\n      swap2\n      pop\n      pop\n        /* \"contracts/GeekNftMarketPlace.sol\":4671:4839  for (uint i = 1; i <= nftsCount; i++) {... */\n      jump(tag_79)\n    tag_80:\n      pop\n        /* \"contracts/GeekNftMarketPlace.sol\":4849:4868  NFT[] memory myNfts */\n      0x00\n        /* \"contracts/GeekNftMarketPlace.sol\":4881:4892  myNftsCount */\n      dup2\n        /* \"contracts/GeekNftMarketPlace.sol\":4871:4893  new NFT[](myNftsCount) */\n      0xffffffffffffffff\n      dup2\n      gt\n      iszero\n      tag_87\n      jumpi\n      tag_88\n      tag_89\n      jump\t// in\n    tag_88:\n    tag_87:\n      mload(0x40)\n      swap1\n      dup1\n      dup3\n      mstore\n      dup1\n      0x20\n      mul\n      0x20\n      add\n      dup3\n      add\n      0x40\n      mstore\n      dup1\n      iszero\n      tag_90\n      jumpi\n      dup2\n      0x20\n      add\n    tag_91:\n      tag_92\n      tag_93\n      jump\t// in\n    tag_92:\n      dup2\n      mstore\n      0x20\n      add\n      swap1\n      0x01\n      swap1\n      sub\n      swap1\n      dup2\n      tag_91\n      jumpi\n      swap1\n      pop\n    tag_90:\n      pop\n        /* \"contracts/GeekNftMarketPlace.sol\":4849:4893  NFT[] memory myNfts = new NFT[](myNftsCount) */\n      swap1\n      pop\n        /* \"contracts/GeekNftMarketPlace.sol\":4903:4916  uint nftIndex */\n      0x00\n        /* \"contracts/GeekNftMarketPlace.sol\":4935:4941  uint i */\n      dup1\n        /* \"contracts/GeekNftMarketPlace.sol\":4944:4945  1 */\n      0x01\n        /* \"contracts/GeekNftMarketPlace.sol\":4935:4945  uint i = 1 */\n      swap1\n      pop\n        /* \"contracts/GeekNftMarketPlace.sol\":4930:5143  for (uint i = 1; i <= nftsCount; i++) {... */\n    tag_94:\n        /* \"contracts/GeekNftMarketPlace.sol\":4952:4961  nftsCount */\n      dup5\n        /* \"contracts/GeekNftMarketPlace.sol\":4947:4948  i */\n      dup2\n        /* \"contracts/GeekNftMarketPlace.sol\":4947:4961  i <= nftsCount */\n      gt\n        /* \"contracts/GeekNftMarketPlace.sol\":4930:5143  for (uint i = 1; i <= nftsCount; i++) {... */\n      tag_95\n      jumpi\n        /* \"contracts/GeekNftMarketPlace.sol\":5007:5017  msg.sender */\n      caller\n        /* \"contracts/GeekNftMarketPlace.sol\":4985:5017  _idToNft[i].seller == msg.sender */\n      0xffffffffffffffffffffffffffffffffffffffff\n      and\n        /* \"contracts/GeekNftMarketPlace.sol\":4985:4993  _idToNft */\n      0x05\n        /* \"contracts/GeekNftMarketPlace.sol\":4985:4996  _idToNft[i] */\n      0x00\n        /* \"contracts/GeekNftMarketPlace.sol\":4994:4995  i */\n      dup4\n        /* \"contracts/GeekNftMarketPlace.sol\":4985:4996  _idToNft[i] */\n      dup2\n      mstore\n      0x20\n      add\n      swap1\n      dup2\n      mstore\n      0x20\n      add\n      0x00\n      keccak256\n        /* \"contracts/GeekNftMarketPlace.sol\":4985:5003  _idToNft[i].seller */\n      0x03\n      add\n      0x00\n      swap1\n      sload\n      swap1\n      0x0100\n      exp\n      swap1\n      div\n      0xffffffffffffffffffffffffffffffffffffffff\n      and\n        /* \"contracts/GeekNftMarketPlace.sol\":4985:5017  _idToNft[i].seller == msg.sender */\n      0xffffffffffffffffffffffffffffffffffffffff\n      and\n      eq\n        /* \"contracts/GeekNftMarketPlace.sol\":4985:5039  _idToNft[i].seller == msg.sender && _idToNft[i].listed */\n      dup1\n      iszero\n      tag_97\n      jumpi\n      pop\n        /* \"contracts/GeekNftMarketPlace.sol\":5021:5029  _idToNft */\n      0x05\n        /* \"contracts/GeekNftMarketPlace.sol\":5021:5032  _idToNft[i] */\n      0x00\n        /* \"contracts/GeekNftMarketPlace.sol\":5030:5031  i */\n      dup3\n        /* \"contracts/GeekNftMarketPlace.sol\":5021:5032  _idToNft[i] */\n      dup2\n      mstore\n      0x20\n      add\n      swap1\n      dup2\n      mstore\n      0x20\n      add\n      0x00\n      keccak256\n        /* \"contracts/GeekNftMarketPlace.sol\":5021:5039  _idToNft[i].listed */\n      0x05\n      add\n      0x14\n      swap1\n      sload\n      swap1\n      0x0100\n      exp\n      swap1\n      div\n      0xff\n      and\n        /* \"contracts/GeekNftMarketPlace.sol\":4985:5039  _idToNft[i].seller == msg.sender && _idToNft[i].listed */\n    tag_97:\n        /* \"contracts/GeekNftMarketPlace.sol\":4982:5133  if(_idToNft[i].seller == msg.sender && _idToNft[i].listed) {... */\n      iszero\n      tag_98\n      jumpi\n        /* \"contracts/GeekNftMarketPlace.sol\":5078:5086  _idToNft */\n      0x05\n        /* \"contracts/GeekNftMarketPlace.sol\":5078:5089  _idToNft[i] */\n      0x00\n        /* \"contracts/GeekNftMarketPlace.sol\":5087:5088  i */\n      dup3\n        /* \"contracts/GeekNftMarketPlace.sol\":5078:5089  _idToNft[i] */\n      dup2\n      mstore\n      0x20\n      add\n      swap1\n      dup2\n      mstore\n      0x20\n      add\n      0x00\n      keccak256\n        /* \"contracts/GeekNftMarketPlace.sol\":5059:5089  myNfts[nftIndex] = _idToNft[i] */\n      mload(0x40)\n      dup1\n      0xe0\n      add\n      0x40\n      mstore\n      swap1\n      dup2\n      0x00\n      dup3\n      add\n      0x00\n      swap1\n      sload\n      swap1\n      0x0100\n      exp\n      swap1\n      div\n      0xffffffffffffffffffffffffffffffffffffffff\n      and\n      0xffffffffffffffffffffffffffffffffffffffff\n      and\n      0xffffffffffffffffffffffffffffffffffffffff\n      and\n      dup2\n      mstore\n      0x20\n      add\n      0x01\n      dup3\n      add\n      sload\n      dup2\n      mstore\n      0x20\n      add\n      0x02\n      dup3\n      add\n      sload\n      dup2\n      mstore\n      0x20\n      add\n      0x03\n      dup3\n      add\n      0x00\n      swap1\n      sload\n      swap1\n      0x0100\n      exp\n      swap1\n      div\n      0xffffffffffffffffffffffffffffffffffffffff\n      and\n      0xffffffffffffffffffffffffffffffffffffffff\n      and\n      0xffffffffffffffffffffffffffffffffffffffff\n      and\n      dup2\n      mstore\n      0x20\n      add\n      0x04\n      dup3\n      add\n      0x00\n      swap1\n      sload\n      swap1\n      0x0100\n      exp\n      swap1\n      div\n      0xffffffffffffffffffffffffffffffffffffffff\n      and\n      0xffffffffffffffffffffffffffffffffffffffff\n      and\n      0xffffffffffffffffffffffffffffffffffffffff\n      and\n      dup2\n      mstore\n      0x20\n      add\n      0x05\n      dup3\n      add\n      0x00\n      swap1\n      sload\n      swap1\n      0x0100\n      exp\n      swap1\n      div\n      0xffffffffffffffffffffffffffffffffffffffff\n      and\n      0xffffffffffffffffffffffffffffffffffffffff\n      and\n      0xffffffffffffffffffffffffffffffffffffffff\n      and\n      dup2\n      mstore\n      0x20\n      add\n      0x05\n      dup3\n      add\n      0x14\n      swap1\n      sload\n      swap1\n      0x0100\n      exp\n      swap1\n      div\n      0xff\n      and\n      iszero\n      iszero\n      iszero\n      iszero\n      dup2\n      mstore\n      pop\n      pop\n        /* \"contracts/GeekNftMarketPlace.sol\":5059:5065  myNfts */\n      dup4\n        /* \"contracts/GeekNftMarketPlace.sol\":5066:5074  nftIndex */\n      dup4\n        /* \"contracts/GeekNftMarketPlace.sol\":5059:5075  myNfts[nftIndex] */\n      dup2\n      mload\n      dup2\n      lt\n      tag_99\n      jumpi\n      tag_100\n      tag_101\n      jump\t// in\n    tag_100:\n    tag_99:\n      0x20\n      mul\n      0x20\n      add\n      add\n        /* \"contracts/GeekNftMarketPlace.sol\":5059:5089  myNfts[nftIndex] = _idToNft[i] */\n      dup2\n      swap1\n      mstore\n      pop\n        /* \"contracts/GeekNftMarketPlace.sol\":5107:5118  nftIndex ++ */\n      dup2\n      dup1\n      tag_102\n      swap1\n      tag_85\n      jump\t// in\n    tag_102:\n      swap3\n      pop\n      pop\n        /* \"contracts/GeekNftMarketPlace.sol\":4982:5133  if(_idToNft[i].seller == msg.sender && _idToNft[i].listed) {... */\n    tag_98:\n        /* \"contracts/GeekNftMarketPlace.sol\":4963:4966  i++ */\n      dup1\n      dup1\n      tag_103\n      swap1\n      tag_85\n      jump\t// in\n    tag_103:\n      swap2\n      pop\n      pop\n        /* \"contracts/GeekNftMarketPlace.sol\":4930:5143  for (uint i = 1; i <= nftsCount; i++) {... */\n      jump(tag_94)\n    tag_95:\n      pop\n        /* \"contracts/GeekNftMarketPlace.sol\":5160:5166  myNfts */\n      dup2\n        /* \"contracts/GeekNftMarketPlace.sol\":5153:5166  return myNfts */\n      swap5\n      pop\n      pop\n      pop\n      pop\n      pop\n        /* \"contracts/GeekNftMarketPlace.sol\":4522:5173  function getMyListedNfts() public view returns (NFT[] memory) {... */\n      swap1\n      jump\t// out\n        /* \"contracts/GeekNftMarketPlace.sol\":402:439  uint public LISTING_FEE = 0.002 ether */\n    tag_24:\n      sload(0x03)\n      dup2\n      jump\t// out\n        /* \"contracts/GeekNftMarketPlace.sol\":1926:2486  function buyNft(address _nftContract, uint _tokenId) public payable nonReentrant{... */\n    tag_30:\n        /* \"contracts/RenntrancyGuard.sol\":171:172  2 */\n      0x02\n        /* \"contracts/RenntrancyGuard.sol\":310:317  _status */\n      sload(0x00)\n        /* \"contracts/RenntrancyGuard.sol\":310:329  _status != _ENTERED */\n      eq\n      iszero\n        /* \"contracts/RenntrancyGuard.sol\":302:365  require(_status != _ENTERED, \"ReentrancyGuard: reentrant call\") */\n      tag_105\n      jumpi\n      mload(0x40)\n      0x08c379a000000000000000000000000000000000000000000000000000000000\n      dup2\n      mstore\n      0x04\n      add\n      tag_106\n      swap1\n      tag_59\n      jump\t// in\n    tag_106:\n      mload(0x40)\n      dup1\n      swap2\n      sub\n      swap1\n      revert\n    tag_105:\n        /* \"contracts/RenntrancyGuard.sol\":171:172  2 */\n      0x02\n        /* \"contracts/RenntrancyGuard.sol\":375:382  _status */\n      0x00\n        /* \"contracts/RenntrancyGuard.sol\":375:393  _status = _ENTERED */\n      dup2\n      swap1\n      sstore\n      pop\n        /* \"contracts/GeekNftMarketPlace.sol\":2016:2031  NFT storage nft */\n      0x00\n        /* \"contracts/GeekNftMarketPlace.sol\":2034:2042  _idToNft */\n      0x05\n        /* \"contracts/GeekNftMarketPlace.sol\":2034:2052  _idToNft[_tokenId] */\n      0x00\n        /* \"contracts/GeekNftMarketPlace.sol\":2043:2051  _tokenId */\n      dup4\n        /* \"contracts/GeekNftMarketPlace.sol\":2034:2052  _idToNft[_tokenId] */\n      dup2\n      mstore\n      0x20\n      add\n      swap1\n      dup2\n      mstore\n      0x20\n      add\n      0x00\n      keccak256\n        /* \"contracts/GeekNftMarketPlace.sol\":2016:2052  NFT storage nft = _idToNft[_tokenId] */\n      swap1\n      pop\n        /* \"contracts/GeekNftMarketPlace.sol\":2083:2086  nft */\n      dup1\n        /* \"contracts/GeekNftMarketPlace.sol\":2083:2092  nft.price */\n      0x02\n      add\n      sload\n        /* \"contracts/GeekNftMarketPlace.sol\":2070:2079  msg.value */\n      callvalue\n        /* \"contracts/GeekNftMarketPlace.sol\":2070:2092  msg.value >= nft.price */\n      lt\n      iszero\n        /* \"contracts/GeekNftMarketPlace.sol\":2062:2135  require(msg.value >= nft.price, \"Not enough ether to cover asking price\") */\n      tag_108\n      jumpi\n      mload(0x40)\n      0x08c379a000000000000000000000000000000000000000000000000000000000\n      dup2\n      mstore\n      0x04\n      add\n      tag_109\n      swap1\n      tag_110\n      jump\t// in\n    tag_109:\n      mload(0x40)\n      dup1\n      swap2\n      sub\n      swap1\n      revert\n    tag_108:\n        /* \"contracts/GeekNftMarketPlace.sol\":2146:2167  address payable buyer */\n      0x00\n        /* \"contracts/GeekNftMarketPlace.sol\":2178:2188  msg.sender */\n      caller\n        /* \"contracts/GeekNftMarketPlace.sol\":2146:2189  address payable buyer = payable(msg.sender) */\n      swap1\n      pop\n        /* \"contracts/GeekNftMarketPlace.sol\":2199:2202  nft */\n      dup2\n        /* \"contracts/GeekNftMarketPlace.sol\":2199:2209  nft.seller */\n      0x03\n      add\n      0x00\n      swap1\n      sload\n      swap1\n      0x0100\n      exp\n      swap1\n      div\n      0xffffffffffffffffffffffffffffffffffffffff\n      and\n        /* \"contracts/GeekNftMarketPlace.sol\":2199:2218  nft.seller.transfer */\n      0xffffffffffffffffffffffffffffffffffffffff\n      and\n        /* \"contracts/GeekNftMarketPlace.sol\":2199:2229  nft.seller.transfer(msg.value) */\n      0x08fc\n        /* \"contracts/GeekNftMarketPlace.sol\":2219:2228  msg.value */\n      callvalue\n        /* \"contracts/GeekNftMarketPlace.sol\":2199:2229  nft.seller.transfer(msg.value) */\n      swap1\n      dup2\n      iszero\n      mul\n      swap1\n      mload(0x40)\n      0x00\n      mload(0x40)\n      dup1\n      dup4\n      sub\n      dup2\n      dup6\n      dup9\n      dup9\n      call\n      swap4\n      pop\n      pop\n      pop\n      pop\n      iszero\n      dup1\n      iszero\n      tag_112\n      jumpi\n      returndatasize\n      0x00\n      dup1\n      returndatacopy\n      revert(0x00, returndatasize)\n    tag_112:\n      pop\n        /* \"contracts/GeekNftMarketPlace.sol\":2257:2269  _nftContract */\n      dup4\n        /* \"contracts/GeekNftMarketPlace.sol\":2240:2283  GeekNftInterface(_nftContract).transferFrom */\n      0xffffffffffffffffffffffffffffffffffffffff\n      and\n      0x23b872dd\n        /* \"contracts/GeekNftMarketPlace.sol\":2292:2296  this */\n      address\n        /* \"contracts/GeekNftMarketPlace.sol\":2299:2304  buyer */\n      dup4\n        /* \"contracts/GeekNftMarketPlace.sol\":2306:2314  _tokenId */\n      dup7\n        /* \"contracts/GeekNftMarketPlace.sol\":2240:2315  GeekNftInterface(_nftContract).transferFrom(address(this), buyer, _tokenId) */\n      mload(0x40)\n      dup5\n      0xffffffff\n      and\n      0xe0\n      shl\n      dup2\n      mstore\n      0x04\n      add\n      tag_113\n      swap4\n      swap3\n      swap2\n      swap1\n      tag_114\n      jump\t// in\n    tag_113:\n      0x00\n      mload(0x40)\n      dup1\n      dup4\n      sub\n      dup2\n      0x00\n      dup8\n      dup1\n      extcodesize\n      iszero\n      dup1\n      iszero\n      tag_115\n      jumpi\n      0x00\n      dup1\n      revert\n    tag_115:\n      pop\n      gas\n      call\n      iszero\n      dup1\n      iszero\n      tag_117\n      jumpi\n      returndatasize\n      0x00\n      dup1\n      returndatacopy\n      revert(0x00, returndatasize)\n    tag_117:\n      pop\n      pop\n      pop\n      pop\n        /* \"contracts/GeekNftMarketPlace.sol\":2337:2342  buyer */\n      dup1\n        /* \"contracts/GeekNftMarketPlace.sol\":2325:2328  nft */\n      dup3\n        /* \"contracts/GeekNftMarketPlace.sol\":2325:2334  nft.owner */\n      0x04\n      add\n      0x00\n        /* \"contracts/GeekNftMarketPlace.sol\":2325:2342  nft.owner = buyer */\n      0x0100\n      exp\n      dup2\n      sload\n      dup2\n      0xffffffffffffffffffffffffffffffffffffffff\n      mul\n      not\n      and\n      swap1\n      dup4\n      0xffffffffffffffffffffffffffffffffffffffff\n      and\n      mul\n      or\n      swap1\n      sstore\n      pop\n        /* \"contracts/GeekNftMarketPlace.sol\":2365:2370  false */\n      0x00\n        /* \"contracts/GeekNftMarketPlace.sol\":2352:2355  nft */\n      dup3\n        /* \"contracts/GeekNftMarketPlace.sol\":2352:2362  nft.listed */\n      0x05\n      add\n      0x14\n        /* \"contracts/GeekNftMarketPlace.sol\":2352:2370  nft.listed = false */\n      0x0100\n      exp\n      dup2\n      sload\n      dup2\n      0xff\n      mul\n      not\n      and\n      swap1\n      dup4\n      iszero\n      iszero\n      mul\n      or\n      swap1\n      sstore\n      pop\n        /* \"contracts/GeekNftMarketPlace.sol\":2381:2402  _nftsSold.increment() */\n      tag_118\n        /* \"contracts/GeekNftMarketPlace.sol\":2381:2390  _nftsSold */\n      0x01\n        /* \"contracts/GeekNftMarketPlace.sol\":2381:2400  _nftsSold.increment */\n      tag_119\n        /* \"contracts/GeekNftMarketPlace.sol\":2381:2402  _nftsSold.increment() */\n      jump\t// in\n    tag_118:\n        /* \"contracts/GeekNftMarketPlace.sol\":2462:2467  buyer */\n      dup1\n        /* \"contracts/GeekNftMarketPlace.sol\":2418:2479  NFTSold(_nftContract, _tokenId, nft.seller, buyer, msg.value) */\n      0xffffffffffffffffffffffffffffffffffffffff\n      and\n        /* \"contracts/GeekNftMarketPlace.sol\":2450:2453  nft */\n      dup3\n        /* \"contracts/GeekNftMarketPlace.sol\":2450:2460  nft.seller */\n      0x03\n      add\n      0x00\n      swap1\n      sload\n      swap1\n      0x0100\n      exp\n      swap1\n      div\n      0xffffffffffffffffffffffffffffffffffffffff\n      and\n        /* \"contracts/GeekNftMarketPlace.sol\":2418:2479  NFTSold(_nftContract, _tokenId, nft.seller, buyer, msg.value) */\n      0xffffffffffffffffffffffffffffffffffffffff\n      and\n      0x16f1dbd97e6bf646d429ed186cce832f1f7fd9907814293b83181e9970ab7bd2\n        /* \"contracts/GeekNftMarketPlace.sol\":2426:2438  _nftContract */\n      dup7\n        /* \"contracts/GeekNftMarketPlace.sol\":2440:2448  _tokenId */\n      dup7\n        /* \"contracts/GeekNftMarketPlace.sol\":2469:2478  msg.value */\n      callvalue\n        /* \"contracts/GeekNftMarketPlace.sol\":2418:2479  NFTSold(_nftContract, _tokenId, nft.seller, buyer, msg.value) */\n      mload(0x40)\n      tag_120\n      swap4\n      swap3\n      swap2\n      swap1\n      tag_75\n      jump\t// in\n    tag_120:\n      mload(0x40)\n      dup1\n      swap2\n      sub\n      swap1\n      log3\n        /* \"contracts/GeekNftMarketPlace.sol\":2006:2486  {... */\n      pop\n      pop\n        /* \"contracts/RenntrancyGuard.sol\":128:129  1 */\n      0x01\n        /* \"contracts/RenntrancyGuard.sol\":414:421  _status */\n      0x00\n        /* \"contracts/RenntrancyGuard.sol\":414:436  _status = _NOT_ENTERED */\n      dup2\n      swap1\n      sstore\n      pop\n        /* \"contracts/GeekNftMarketPlace.sol\":1926:2486  function buyNft(address _nftContract, uint _tokenId) public payable nonReentrant{... */\n      pop\n      pop\n      jump\t// out\n        /* \"contracts/GeekNftMarketPlace.sol\":3871:4481  function getMyCreatedNfts() public view returns (NFT[] memory) {... */\n    tag_33:\n        /* \"contracts/GeekNftMarketPlace.sol\":3920:3932  NFT[] memory */\n      0x60\n        /* \"contracts/GeekNftMarketPlace.sol\":3944:3958  uint nftsCount */\n      0x00\n        /* \"contracts/GeekNftMarketPlace.sol\":3961:3981  _nftsCount.current() */\n      tag_122\n        /* \"contracts/GeekNftMarketPlace.sol\":3961:3971  _nftsCount */\n      0x02\n        /* \"contracts/GeekNftMarketPlace.sol\":3961:3979  _nftsCount.current */\n      tag_78\n        /* \"contracts/GeekNftMarketPlace.sol\":3961:3981  _nftsCount.current() */\n      jump\t// in\n    tag_122:\n        /* \"contracts/GeekNftMarketPlace.sol\":3944:3981  uint nftsCount = _nftsCount.current() */\n      swap1\n      pop\n        /* \"contracts/GeekNftMarketPlace.sol\":3991:4007  uint myNftsCount */\n      0x00\n        /* \"contracts/GeekNftMarketPlace.sol\":4026:4032  uint i */\n      dup1\n        /* \"contracts/GeekNftMarketPlace.sol\":4035:4036  1 */\n      0x01\n        /* \"contracts/GeekNftMarketPlace.sol\":4026:4036  uint i = 1 */\n      swap1\n      pop\n        /* \"contracts/GeekNftMarketPlace.sol\":4021:4168  for (uint i = 1; i <= nftsCount; i++) {... */\n    tag_123:\n        /* \"contracts/GeekNftMarketPlace.sol\":4043:4052  nftsCount */\n      dup3\n        /* \"contracts/GeekNftMarketPlace.sol\":4038:4039  i */\n      dup2\n        /* \"contracts/GeekNftMarketPlace.sol\":4038:4052  i <= nftsCount */\n      gt\n        /* \"contracts/GeekNftMarketPlace.sol\":4021:4168  for (uint i = 1; i <= nftsCount; i++) {... */\n      tag_124\n      jumpi\n        /* \"contracts/GeekNftMarketPlace.sol\":4099:4109  msg.sender */\n      caller\n        /* \"contracts/GeekNftMarketPlace.sol\":4076:4109  _idToNft[i].creator == msg.sender */\n      0xffffffffffffffffffffffffffffffffffffffff\n      and\n        /* \"contracts/GeekNftMarketPlace.sol\":4076:4084  _idToNft */\n      0x05\n        /* \"contracts/GeekNftMarketPlace.sol\":4076:4087  _idToNft[i] */\n      0x00\n        /* \"contracts/GeekNftMarketPlace.sol\":4085:4086  i */\n      dup4\n        /* \"contracts/GeekNftMarketPlace.sol\":4076:4087  _idToNft[i] */\n      dup2\n      mstore\n      0x20\n      add\n      swap1\n      dup2\n      mstore\n      0x20\n      add\n      0x00\n      keccak256\n        /* \"contracts/GeekNftMarketPlace.sol\":4076:4095  _idToNft[i].creator */\n      0x05\n      add\n      0x00\n      swap1\n      sload\n      swap1\n      0x0100\n      exp\n      swap1\n      div\n      0xffffffffffffffffffffffffffffffffffffffff\n      and\n        /* \"contracts/GeekNftMarketPlace.sol\":4076:4109  _idToNft[i].creator == msg.sender */\n      0xffffffffffffffffffffffffffffffffffffffff\n      and\n      eq\n        /* \"contracts/GeekNftMarketPlace.sol\":4073:4158  if(_idToNft[i].creator == msg.sender) {... */\n      iszero\n      tag_126\n      jumpi\n        /* \"contracts/GeekNftMarketPlace.sol\":4129:4143  myNftsCount ++ */\n      dup2\n      dup1\n      tag_127\n      swap1\n      tag_85\n      jump\t// in\n    tag_127:\n      swap3\n      pop\n      pop\n        /* \"contracts/GeekNftMarketPlace.sol\":4073:4158  if(_idToNft[i].creator == msg.sender) {... */\n    tag_126:\n        /* \"contracts/GeekNftMarketPlace.sol\":4054:4057  i++ */\n      dup1\n      dup1\n      tag_128\n      swap1\n      tag_85\n      jump\t// in\n    tag_128:\n      swap2\n      pop\n      pop\n        /* \"contracts/GeekNftMarketPlace.sol\":4021:4168  for (uint i = 1; i <= nftsCount; i++) {... */\n      jump(tag_123)\n    tag_124:\n      pop\n        /* \"contracts/GeekNftMarketPlace.sol\":4178:4197  NFT[] memory myNfts */\n      0x00\n        /* \"contracts/GeekNftMarketPlace.sol\":4210:4221  myNftsCount */\n      dup2\n        /* \"contracts/GeekNftMarketPlace.sol\":4200:4222  new NFT[](myNftsCount) */\n      0xffffffffffffffff\n      dup2\n      gt\n      iszero\n      tag_129\n      jumpi\n      tag_130\n      tag_89\n      jump\t// in\n    tag_130:\n    tag_129:\n      mload(0x40)\n      swap1\n      dup1\n      dup3\n      mstore\n      dup1\n      0x20\n      mul\n      0x20\n      add\n      dup3\n      add\n      0x40\n      mstore\n      dup1\n      iszero\n      tag_131\n      jumpi\n      dup2\n      0x20\n      add\n    tag_132:\n      tag_133\n      tag_93\n      jump\t// in\n    tag_133:\n      dup2\n      mstore\n      0x20\n      add\n      swap1\n      0x01\n      swap1\n      sub\n      swap1\n      dup2\n      tag_132\n      jumpi\n      swap1\n      pop\n    tag_131:\n      pop\n        /* \"contracts/GeekNftMarketPlace.sol\":4178:4222  NFT[] memory myNfts = new NFT[](myNftsCount) */\n      swap1\n      pop\n        /* \"contracts/GeekNftMarketPlace.sol\":4232:4245  uint nftIndex */\n      0x00\n        /* \"contracts/GeekNftMarketPlace.sol\":4264:4270  uint i */\n      dup1\n        /* \"contracts/GeekNftMarketPlace.sol\":4273:4274  1 */\n      0x01\n        /* \"contracts/GeekNftMarketPlace.sol\":4264:4274  uint i = 1 */\n      swap1\n      pop\n        /* \"contracts/GeekNftMarketPlace.sol\":4259:4451  for (uint i = 1; i <= nftsCount; i++) {... */\n    tag_134:\n        /* \"contracts/GeekNftMarketPlace.sol\":4281:4290  nftsCount */\n      dup5\n        /* \"contracts/GeekNftMarketPlace.sol\":4276:4277  i */\n      dup2\n        /* \"contracts/GeekNftMarketPlace.sol\":4276:4290  i <= nftsCount */\n      gt\n        /* \"contracts/GeekNftMarketPlace.sol\":4259:4451  for (uint i = 1; i <= nftsCount; i++) {... */\n      tag_135\n      jumpi\n        /* \"contracts/GeekNftMarketPlace.sol\":4337:4347  msg.sender */\n      caller\n        /* \"contracts/GeekNftMarketPlace.sol\":4314:4347  _idToNft[i].creator == msg.sender */\n      0xffffffffffffffffffffffffffffffffffffffff\n      and\n        /* \"contracts/GeekNftMarketPlace.sol\":4314:4322  _idToNft */\n      0x05\n        /* \"contracts/GeekNftMarketPlace.sol\":4314:4325  _idToNft[i] */\n      0x00\n        /* \"contracts/GeekNftMarketPlace.sol\":4323:4324  i */\n      dup4\n        /* \"contracts/GeekNftMarketPlace.sol\":4314:4325  _idToNft[i] */\n      dup2\n      mstore\n      0x20\n      add\n      swap1\n      dup2\n      mstore\n      0x20\n      add\n      0x00\n      keccak256\n        /* \"contracts/GeekNftMarketPlace.sol\":4314:4333  _idToNft[i].creator */\n      0x05\n      add\n      0x00\n      swap1\n      sload\n      swap1\n      0x0100\n      exp\n      swap1\n      div\n      0xffffffffffffffffffffffffffffffffffffffff\n      and\n        /* \"contracts/GeekNftMarketPlace.sol\":4314:4347  _idToNft[i].creator == msg.sender */\n      0xffffffffffffffffffffffffffffffffffffffff\n      and\n      eq\n        /* \"contracts/GeekNftMarketPlace.sol\":4311:4441  if(_idToNft[i].creator == msg.sender) {... */\n      iszero\n      tag_137\n      jumpi\n        /* \"contracts/GeekNftMarketPlace.sol\":4386:4394  _idToNft */\n      0x05\n        /* \"contracts/GeekNftMarketPlace.sol\":4386:4397  _idToNft[i] */\n      0x00\n        /* \"contracts/GeekNftMarketPlace.sol\":4395:4396  i */\n      dup3\n        /* \"contracts/GeekNftMarketPlace.sol\":4386:4397  _idToNft[i] */\n      dup2\n      mstore\n      0x20\n      add\n      swap1\n      dup2\n      mstore\n      0x20\n      add\n      0x00\n      keccak256\n        /* \"contracts/GeekNftMarketPlace.sol\":4367:4397  myNfts[nftIndex] = _idToNft[i] */\n      mload(0x40)\n      dup1\n      0xe0\n      add\n      0x40\n      mstore\n      swap1\n      dup2\n      0x00\n      dup3\n      add\n      0x00\n      swap1\n      sload\n      swap1\n      0x0100\n      exp\n      swap1\n      div\n      0xffffffffffffffffffffffffffffffffffffffff\n      and\n      0xffffffffffffffffffffffffffffffffffffffff\n      and\n      0xffffffffffffffffffffffffffffffffffffffff\n      and\n      dup2\n      mstore\n      0x20\n      add\n      0x01\n      dup3\n      add\n      sload\n      dup2\n      mstore\n      0x20\n      add\n      0x02\n      dup3\n      add\n      sload\n      dup2\n      mstore\n      0x20\n      add\n      0x03\n      dup3\n      add\n      0x00\n      swap1\n      sload\n      swap1\n      0x0100\n      exp\n      swap1\n      div\n      0xffffffffffffffffffffffffffffffffffffffff\n      and\n      0xffffffffffffffffffffffffffffffffffffffff\n      and\n      0xffffffffffffffffffffffffffffffffffffffff\n      and\n      dup2\n      mstore\n      0x20\n      add\n      0x04\n      dup3\n      add\n      0x00\n      swap1\n      sload\n      swap1\n      0x0100\n      exp\n      swap1\n      div\n      0xffffffffffffffffffffffffffffffffffffffff\n      and\n      0xffffffffffffffffffffffffffffffffffffffff\n      and\n      0xffffffffffffffffffffffffffffffffffffffff\n      and\n      dup2\n      mstore\n      0x20\n      add\n      0x05\n      dup3\n      add\n      0x00\n      swap1\n      sload\n      swap1\n      0x0100\n      exp\n      swap1\n      div\n      0xffffffffffffffffffffffffffffffffffffffff\n      and\n      0xffffffffffffffffffffffffffffffffffffffff\n      and\n      0xffffffffffffffffffffffffffffffffffffffff\n      and\n      dup2\n      mstore\n      0x20\n      add\n      0x05\n      dup3\n      add\n      0x14\n      swap1\n      sload\n      swap1\n      0x0100\n      exp\n      swap1\n      div\n      0xff\n      and\n      iszero\n      iszero\n      iszero\n      iszero\n      dup2\n      mstore\n      pop\n      pop\n        /* \"contracts/GeekNftMarketPlace.sol\":4367:4373  myNfts */\n      dup4\n        /* \"contracts/GeekNftMarketPlace.sol\":4374:4382  nftIndex */\n      dup4\n        /* \"contracts/GeekNftMarketPlace.sol\":4367:4383  myNfts[nftIndex] */\n      dup2\n      mload\n      dup2\n      lt\n      tag_138\n      jumpi\n      tag_139\n      tag_101\n      jump\t// in\n    tag_139:\n    tag_138:\n      0x20\n      mul\n      0x20\n      add\n      add\n        /* \"contracts/GeekNftMarketPlace.sol\":4367:4397  myNfts[nftIndex] = _idToNft[i] */\n      dup2\n      swap1\n      mstore\n      pop\n        /* \"contracts/GeekNftMarketPlace.sol\":4415:4426  nftIndex ++ */\n      dup2\n      dup1\n      tag_140\n      swap1\n      tag_85\n      jump\t// in\n    tag_140:\n      swap3\n      pop\n      pop\n        /* \"contracts/GeekNftMarketPlace.sol\":4311:4441  if(_idToNft[i].creator == msg.sender) {... */\n    tag_137:\n        /* \"contracts/GeekNftMarketPlace.sol\":4292:4295  i++ */\n      dup1\n      dup1\n      tag_141\n      swap1\n      tag_85\n      jump\t// in\n    tag_141:\n      swap2\n      pop\n      pop\n        /* \"contracts/GeekNftMarketPlace.sol\":4259:4451  for (uint i = 1; i <= nftsCount; i++) {... */\n      jump(tag_134)\n    tag_135:\n      pop\n        /* \"contracts/GeekNftMarketPlace.sol\":4468:4474  myNfts */\n      dup2\n        /* \"contracts/GeekNftMarketPlace.sol\":4461:4474  return myNfts */\n      swap5\n      pop\n      pop\n      pop\n      pop\n      pop\n        /* \"contracts/GeekNftMarketPlace.sol\":3871:4481  function getMyCreatedNfts() public view returns (NFT[] memory) {... */\n      swap1\n      jump\t// out\n        /* \"contracts/GeekNftMarketPlace.sol\":5854:6310  function getListedNfts() public view returns (NFT[] memory) {... */\n    tag_37:\n        /* \"contracts/GeekNftMarketPlace.sol\":5900:5912  NFT[] memory */\n      0x60\n        /* \"contracts/GeekNftMarketPlace.sol\":5924:5940  uint256 nftCount */\n      0x00\n        /* \"contracts/GeekNftMarketPlace.sol\":5943:5963  _nftsCount.current() */\n      tag_143\n        /* \"contracts/GeekNftMarketPlace.sol\":5943:5953  _nftsCount */\n      0x02\n        /* \"contracts/GeekNftMarketPlace.sol\":5943:5961  _nftsCount.current */\n      tag_78\n        /* \"contracts/GeekNftMarketPlace.sol\":5943:5963  _nftsCount.current() */\n      jump\t// in\n    tag_143:\n        /* \"contracts/GeekNftMarketPlace.sol\":5924:5963  uint256 nftCount = _nftsCount.current() */\n      swap1\n      pop\n        /* \"contracts/GeekNftMarketPlace.sol\":5973:5996  uint256 unsoldNftsCount */\n      0x00\n        /* \"contracts/GeekNftMarketPlace.sol\":6010:6029  _nftsSold.current() */\n      tag_144\n        /* \"contracts/GeekNftMarketPlace.sol\":6010:6019  _nftsSold */\n      0x01\n        /* \"contracts/GeekNftMarketPlace.sol\":6010:6027  _nftsSold.current */\n      tag_78\n        /* \"contracts/GeekNftMarketPlace.sol\":6010:6029  _nftsSold.current() */\n      jump\t// in\n    tag_144:\n        /* \"contracts/GeekNftMarketPlace.sol\":5999:6007  nftCount */\n      dup3\n        /* \"contracts/GeekNftMarketPlace.sol\":5999:6029  nftCount - _nftsSold.current() */\n      tag_145\n      swap2\n      swap1\n      tag_146\n      jump\t// in\n    tag_145:\n        /* \"contracts/GeekNftMarketPlace.sol\":5973:6029  uint256 unsoldNftsCount = nftCount - _nftsSold.current() */\n      swap1\n      pop\n        /* \"contracts/GeekNftMarketPlace.sol\":6040:6057  NFT[] memory nfts */\n      0x00\n        /* \"contracts/GeekNftMarketPlace.sol\":6070:6085  unsoldNftsCount */\n      dup2\n        /* \"contracts/GeekNftMarketPlace.sol\":6060:6086  new NFT[](unsoldNftsCount) */\n      0xffffffffffffffff\n      dup2\n      gt\n      iszero\n      tag_147\n      jumpi\n      tag_148\n      tag_89\n      jump\t// in\n    tag_148:\n    tag_147:\n      mload(0x40)\n      swap1\n      dup1\n      dup3\n      mstore\n      dup1\n      0x20\n      mul\n      0x20\n      add\n      dup3\n      add\n      0x40\n      mstore\n      dup1\n      iszero\n      tag_149\n      jumpi\n      dup2\n      0x20\n      add\n    tag_150:\n      tag_151\n      tag_93\n      jump\t// in\n    tag_151:\n      dup2\n      mstore\n      0x20\n      add\n      swap1\n      0x01\n      swap1\n      sub\n      swap1\n      dup2\n      tag_150\n      jumpi\n      swap1\n      pop\n    tag_149:\n      pop\n        /* \"contracts/GeekNftMarketPlace.sol\":6040:6086  NFT[] memory nfts = new NFT[](unsoldNftsCount) */\n      swap1\n      pop\n        /* \"contracts/GeekNftMarketPlace.sol\":6096:6110  uint nftsIndex */\n      0x00\n        /* \"contracts/GeekNftMarketPlace.sol\":6129:6135  uint i */\n      dup1\n        /* \"contracts/GeekNftMarketPlace.sol\":6138:6139  1 */\n      0x01\n        /* \"contracts/GeekNftMarketPlace.sol\":6129:6139  uint i = 1 */\n      swap1\n      pop\n        /* \"contracts/GeekNftMarketPlace.sol\":6124:6283  for (uint i = 1; i < nftCount; i++) {... */\n    tag_152:\n        /* \"contracts/GeekNftMarketPlace.sol\":6145:6153  nftCount */\n      dup5\n        /* \"contracts/GeekNftMarketPlace.sol\":6141:6142  i */\n      dup2\n        /* \"contracts/GeekNftMarketPlace.sol\":6141:6153  i < nftCount */\n      lt\n        /* \"contracts/GeekNftMarketPlace.sol\":6124:6283  for (uint i = 1; i < nftCount; i++) {... */\n      iszero\n      tag_153\n      jumpi\n        /* \"contracts/GeekNftMarketPlace.sol\":6174:6182  _idToNft */\n      0x05\n        /* \"contracts/GeekNftMarketPlace.sol\":6174:6185  _idToNft[i] */\n      0x00\n        /* \"contracts/GeekNftMarketPlace.sol\":6183:6184  i */\n      dup3\n        /* \"contracts/GeekNftMarketPlace.sol\":6174:6185  _idToNft[i] */\n      dup2\n      mstore\n      0x20\n      add\n      swap1\n      dup2\n      mstore\n      0x20\n      add\n      0x00\n      keccak256\n        /* \"contracts/GeekNftMarketPlace.sol\":6174:6192  _idToNft[i].listed */\n      0x05\n      add\n      0x14\n      swap1\n      sload\n      swap1\n      0x0100\n      exp\n      swap1\n      div\n      0xff\n      and\n        /* \"contracts/GeekNftMarketPlace.sol\":6170:6273  if (_idToNft[i].listed) {... */\n      iszero\n      tag_155\n      jumpi\n        /* \"contracts/GeekNftMarketPlace.sol\":6226:6234  _idToNft */\n      0x05\n        /* \"contracts/GeekNftMarketPlace.sol\":6226:6237  _idToNft[i] */\n      0x00\n        /* \"contracts/GeekNftMarketPlace.sol\":6235:6236  i */\n      dup3\n        /* \"contracts/GeekNftMarketPlace.sol\":6226:6237  _idToNft[i] */\n      dup2\n      mstore\n      0x20\n      add\n      swap1\n      dup2\n      mstore\n      0x20\n      add\n      0x00\n      keccak256\n        /* \"contracts/GeekNftMarketPlace.sol\":6208:6237  nfts[nftsIndex] = _idToNft[i] */\n      mload(0x40)\n      dup1\n      0xe0\n      add\n      0x40\n      mstore\n      swap1\n      dup2\n      0x00\n      dup3\n      add\n      0x00\n      swap1\n      sload\n      swap1\n      0x0100\n      exp\n      swap1\n      div\n      0xffffffffffffffffffffffffffffffffffffffff\n      and\n      0xffffffffffffffffffffffffffffffffffffffff\n      and\n      0xffffffffffffffffffffffffffffffffffffffff\n      and\n      dup2\n      mstore\n      0x20\n      add\n      0x01\n      dup3\n      add\n      sload\n      dup2\n      mstore\n      0x20\n      add\n      0x02\n      dup3\n      add\n      sload\n      dup2\n      mstore\n      0x20\n      add\n      0x03\n      dup3\n      add\n      0x00\n      swap1\n      sload\n      swap1\n      0x0100\n      exp\n      swap1\n      div\n      0xffffffffffffffffffffffffffffffffffffffff\n      and\n      0xffffffffffffffffffffffffffffffffffffffff\n      and\n      0xffffffffffffffffffffffffffffffffffffffff\n      and\n      dup2\n      mstore\n      0x20\n      add\n      0x04\n      dup3\n      add\n      0x00\n      swap1\n      sload\n      swap1\n      0x0100\n      exp\n      swap1\n      div\n      0xffffffffffffffffffffffffffffffffffffffff\n      and\n      0xffffffffffffffffffffffffffffffffffffffff\n      and\n      0xffffffffffffffffffffffffffffffffffffffff\n      and\n      dup2\n      mstore\n      0x20\n      add\n      0x05\n      dup3\n      add\n      0x00\n      swap1\n      sload\n      swap1\n      0x0100\n      exp\n      swap1\n      div\n      0xffffffffffffffffffffffffffffffffffffffff\n      and\n      0xffffffffffffffffffffffffffffffffffffffff\n      and\n      0xffffffffffffffffffffffffffffffffffffffff\n      and\n      dup2\n      mstore\n      0x20\n      add\n      0x05\n      dup3\n      add\n      0x14\n      swap1\n      sload\n      swap1\n      0x0100\n      exp\n      swap1\n      div\n      0xff\n      and\n      iszero\n      iszero\n      iszero\n      iszero\n      dup2\n      mstore\n      pop\n      pop\n        /* \"contracts/GeekNftMarketPlace.sol\":6208:6212  nfts */\n      dup4\n        /* \"contracts/GeekNftMarketPlace.sol\":6213:6222  nftsIndex */\n      dup4\n        /* \"contracts/GeekNftMarketPlace.sol\":6208:6223  nfts[nftsIndex] */\n      dup2\n      mload\n      dup2\n      lt\n      tag_156\n      jumpi\n      tag_157\n      tag_101\n      jump\t// in\n    tag_157:\n    tag_156:\n      0x20\n      mul\n      0x20\n      add\n      add\n        /* \"contracts/GeekNftMarketPlace.sol\":6208:6237  nfts[nftsIndex] = _idToNft[i] */\n      dup2\n      swap1\n      mstore\n      pop\n        /* \"contracts/GeekNftMarketPlace.sol\":6251:6262  nftsIndex++ */\n      dup2\n      dup1\n      tag_158\n      swap1\n      tag_85\n      jump\t// in\n    tag_158:\n      swap3\n      pop\n      pop\n        /* \"contracts/GeekNftMarketPlace.sol\":6170:6273  if (_idToNft[i].listed) {... */\n    tag_155:\n        /* \"contracts/GeekNftMarketPlace.sol\":6155:6158  i++ */\n      dup1\n      dup1\n      tag_159\n      swap1\n      tag_85\n      jump\t// in\n    tag_159:\n      swap2\n      pop\n      pop\n        /* \"contracts/GeekNftMarketPlace.sol\":6124:6283  for (uint i = 1; i < nftCount; i++) {... */\n      jump(tag_152)\n    tag_153:\n      pop\n        /* \"contracts/GeekNftMarketPlace.sol\":6299:6303  nfts */\n      dup2\n        /* \"contracts/GeekNftMarketPlace.sol\":6292:6303  return nfts */\n      swap5\n      pop\n      pop\n      pop\n      pop\n      pop\n        /* \"contracts/GeekNftMarketPlace.sol\":5854:6310  function getListedNfts() public view returns (NFT[] memory) {... */\n      swap1\n      jump\t// out\n        /* \"contracts/GeekNftMarketPlace.sol\":3226:3830  function getMyOwnedNfts() public view returns (NFT[] memory) {... */\n    tag_41:\n        /* \"contracts/GeekNftMarketPlace.sol\":3273:3285  NFT[] memory */\n      0x60\n        /* \"contracts/GeekNftMarketPlace.sol\":3297:3311  uint nftsCount */\n      0x00\n        /* \"contracts/GeekNftMarketPlace.sol\":3314:3334  _nftsCount.current() */\n      tag_161\n        /* \"contracts/GeekNftMarketPlace.sol\":3314:3324  _nftsCount */\n      0x02\n        /* \"contracts/GeekNftMarketPlace.sol\":3314:3332  _nftsCount.current */\n      tag_78\n        /* \"contracts/GeekNftMarketPlace.sol\":3314:3334  _nftsCount.current() */\n      jump\t// in\n    tag_161:\n        /* \"contracts/GeekNftMarketPlace.sol\":3297:3334  uint nftsCount = _nftsCount.current() */\n      swap1\n      pop\n        /* \"contracts/GeekNftMarketPlace.sol\":3344:3360  uint myNftsCount */\n      0x00\n        /* \"contracts/GeekNftMarketPlace.sol\":3379:3385  uint i */\n      dup1\n        /* \"contracts/GeekNftMarketPlace.sol\":3388:3389  1 */\n      0x01\n        /* \"contracts/GeekNftMarketPlace.sol\":3379:3389  uint i = 1 */\n      swap1\n      pop\n        /* \"contracts/GeekNftMarketPlace.sol\":3374:3519  for (uint i = 1; i <= nftsCount; i++) {... */\n    tag_162:\n        /* \"contracts/GeekNftMarketPlace.sol\":3396:3405  nftsCount */\n      dup3\n        /* \"contracts/GeekNftMarketPlace.sol\":3391:3392  i */\n      dup2\n        /* \"contracts/GeekNftMarketPlace.sol\":3391:3405  i <= nftsCount */\n      gt\n        /* \"contracts/GeekNftMarketPlace.sol\":3374:3519  for (uint i = 1; i <= nftsCount; i++) {... */\n      tag_163\n      jumpi\n        /* \"contracts/GeekNftMarketPlace.sol\":3450:3460  msg.sender */\n      caller\n        /* \"contracts/GeekNftMarketPlace.sol\":3429:3460  _idToNft[i].owner == msg.sender */\n      0xffffffffffffffffffffffffffffffffffffffff\n      and\n        /* \"contracts/GeekNftMarketPlace.sol\":3429:3437  _idToNft */\n      0x05\n        /* \"contracts/GeekNftMarketPlace.sol\":3429:3440  _idToNft[i] */\n      0x00\n        /* \"contracts/GeekNftMarketPlace.sol\":3438:3439  i */\n      dup4\n        /* \"contracts/GeekNftMarketPlace.sol\":3429:3440  _idToNft[i] */\n      dup2\n      mstore\n      0x20\n      add\n      swap1\n      dup2\n      mstore\n      0x20\n      add\n      0x00\n      keccak256\n        /* \"contracts/GeekNftMarketPlace.sol\":3429:3446  _idToNft[i].owner */\n      0x04\n      add\n      0x00\n      swap1\n      sload\n      swap1\n      0x0100\n      exp\n      swap1\n      div\n      0xffffffffffffffffffffffffffffffffffffffff\n      and\n        /* \"contracts/GeekNftMarketPlace.sol\":3429:3460  _idToNft[i].owner == msg.sender */\n      0xffffffffffffffffffffffffffffffffffffffff\n      and\n      eq\n        /* \"contracts/GeekNftMarketPlace.sol\":3426:3509  if(_idToNft[i].owner == msg.sender) {... */\n      iszero\n      tag_165\n      jumpi\n        /* \"contracts/GeekNftMarketPlace.sol\":3480:3494  myNftsCount ++ */\n      dup2\n      dup1\n      tag_166\n      swap1\n      tag_85\n      jump\t// in\n    tag_166:\n      swap3\n      pop\n      pop\n        /* \"contracts/GeekNftMarketPlace.sol\":3426:3509  if(_idToNft[i].owner == msg.sender) {... */\n    tag_165:\n        /* \"contracts/GeekNftMarketPlace.sol\":3407:3410  i++ */\n      dup1\n      dup1\n      tag_167\n      swap1\n      tag_85\n      jump\t// in\n    tag_167:\n      swap2\n      pop\n      pop\n        /* \"contracts/GeekNftMarketPlace.sol\":3374:3519  for (uint i = 1; i <= nftsCount; i++) {... */\n      jump(tag_162)\n    tag_163:\n      pop\n        /* \"contracts/GeekNftMarketPlace.sol\":3529:3548  NFT[] memory myNfts */\n      0x00\n        /* \"contracts/GeekNftMarketPlace.sol\":3561:3572  myNftsCount */\n      dup2\n        /* \"contracts/GeekNftMarketPlace.sol\":3551:3573  new NFT[](myNftsCount) */\n      0xffffffffffffffff\n      dup2\n      gt\n      iszero\n      tag_168\n      jumpi\n      tag_169\n      tag_89\n      jump\t// in\n    tag_169:\n    tag_168:\n      mload(0x40)\n      swap1\n      dup1\n      dup3\n      mstore\n      dup1\n      0x20\n      mul\n      0x20\n      add\n      dup3\n      add\n      0x40\n      mstore\n      dup1\n      iszero\n      tag_170\n      jumpi\n      dup2\n      0x20\n      add\n    tag_171:\n      tag_172\n      tag_93\n      jump\t// in\n    tag_172:\n      dup2\n      mstore\n      0x20\n      add\n      swap1\n      0x01\n      swap1\n      sub\n      swap1\n      dup2\n      tag_171\n      jumpi\n      swap1\n      pop\n    tag_170:\n      pop\n        /* \"contracts/GeekNftMarketPlace.sol\":3529:3573  NFT[] memory myNfts = new NFT[](myNftsCount) */\n      swap1\n      pop\n        /* \"contracts/GeekNftMarketPlace.sol\":3583:3596  uint nftIndex */\n      0x00\n        /* \"contracts/GeekNftMarketPlace.sol\":3615:3621  uint i */\n      dup1\n        /* \"contracts/GeekNftMarketPlace.sol\":3624:3625  1 */\n      0x01\n        /* \"contracts/GeekNftMarketPlace.sol\":3615:3625  uint i = 1 */\n      swap1\n      pop\n        /* \"contracts/GeekNftMarketPlace.sol\":3610:3800  for (uint i = 1; i <= nftsCount; i++) {... */\n    tag_173:\n        /* \"contracts/GeekNftMarketPlace.sol\":3632:3641  nftsCount */\n      dup5\n        /* \"contracts/GeekNftMarketPlace.sol\":3627:3628  i */\n      dup2\n        /* \"contracts/GeekNftMarketPlace.sol\":3627:3641  i <= nftsCount */\n      gt\n        /* \"contracts/GeekNftMarketPlace.sol\":3610:3800  for (uint i = 1; i <= nftsCount; i++) {... */\n      tag_174\n      jumpi\n        /* \"contracts/GeekNftMarketPlace.sol\":3686:3696  msg.sender */\n      caller\n        /* \"contracts/GeekNftMarketPlace.sol\":3665:3696  _idToNft[i].owner == msg.sender */\n      0xffffffffffffffffffffffffffffffffffffffff\n      and\n        /* \"contracts/GeekNftMarketPlace.sol\":3665:3673  _idToNft */\n      0x05\n        /* \"contracts/GeekNftMarketPlace.sol\":3665:3676  _idToNft[i] */\n      0x00\n        /* \"contracts/GeekNftMarketPlace.sol\":3674:3675  i */\n      dup4\n        /* \"contracts/GeekNftMarketPlace.sol\":3665:3676  _idToNft[i] */\n      dup2\n      mstore\n      0x20\n      add\n      swap1\n      dup2\n      mstore\n      0x20\n      add\n      0x00\n      keccak256\n        /* \"contracts/GeekNftMarketPlace.sol\":3665:3682  _idToNft[i].owner */\n      0x04\n      add\n      0x00\n      swap1\n      sload\n      swap1\n      0x0100\n      exp\n      swap1\n      div\n      0xffffffffffffffffffffffffffffffffffffffff\n      and\n        /* \"contracts/GeekNftMarketPlace.sol\":3665:3696  _idToNft[i].owner == msg.sender */\n      0xffffffffffffffffffffffffffffffffffffffff\n      and\n      eq\n        /* \"contracts/GeekNftMarketPlace.sol\":3662:3790  if(_idToNft[i].owner == msg.sender) {... */\n      iszero\n      tag_176\n      jumpi\n        /* \"contracts/GeekNftMarketPlace.sol\":3735:3743  _idToNft */\n      0x05\n        /* \"contracts/GeekNftMarketPlace.sol\":3735:3746  _idToNft[i] */\n      0x00\n        /* \"contracts/GeekNftMarketPlace.sol\":3744:3745  i */\n      dup3\n        /* \"contracts/GeekNftMarketPlace.sol\":3735:3746  _idToNft[i] */\n      dup2\n      mstore\n      0x20\n      add\n      swap1\n      dup2\n      mstore\n      0x20\n      add\n      0x00\n      keccak256\n        /* \"contracts/GeekNftMarketPlace.sol\":3716:3746  myNfts[nftIndex] = _idToNft[i] */\n      mload(0x40)\n      dup1\n      0xe0\n      add\n      0x40\n      mstore\n      swap1\n      dup2\n      0x00\n      dup3\n      add\n      0x00\n      swap1\n      sload\n      swap1\n      0x0100\n      exp\n      swap1\n      div\n      0xffffffffffffffffffffffffffffffffffffffff\n      and\n      0xffffffffffffffffffffffffffffffffffffffff\n      and\n      0xffffffffffffffffffffffffffffffffffffffff\n      and\n      dup2\n      mstore\n      0x20\n      add\n      0x01\n      dup3\n      add\n      sload\n      dup2\n      mstore\n      0x20\n      add\n      0x02\n      dup3\n      add\n      sload\n      dup2\n      mstore\n      0x20\n      add\n      0x03\n      dup3\n      add\n      0x00\n      swap1\n      sload\n      swap1\n      0x0100\n      exp\n      swap1\n      div\n      0xffffffffffffffffffffffffffffffffffffffff\n      and\n      0xffffffffffffffffffffffffffffffffffffffff\n      and\n      0xffffffffffffffffffffffffffffffffffffffff\n      and\n      dup2\n      mstore\n      0x20\n      add\n      0x04\n      dup3\n      add\n      0x00\n      swap1\n      sload\n      swap1\n      0x0100\n      exp\n      swap1\n      div\n      0xffffffffffffffffffffffffffffffffffffffff\n      and\n      0xffffffffffffffffffffffffffffffffffffffff\n      and\n      0xffffffffffffffffffffffffffffffffffffffff\n      and\n      dup2\n      mstore\n      0x20\n      add\n      0x05\n      dup3\n      add\n      0x00\n      swap1\n      sload\n      swap1\n      0x0100\n      exp\n      swap1\n      div\n      0xffffffffffffffffffffffffffffffffffffffff\n      and\n      0xffffffffffffffffffffffffffffffffffffffff\n      and\n      0xffffffffffffffffffffffffffffffffffffffff\n      and\n      dup2\n      mstore\n      0x20\n      add\n      0x05\n      dup3\n      add\n      0x14\n      swap1\n      sload\n      swap1\n      0x0100\n      exp\n      swap1\n      div\n      0xff\n      and\n      iszero\n      iszero\n      iszero\n      iszero\n      dup2\n      mstore\n      pop\n      pop\n        /* \"contracts/GeekNftMarketPlace.sol\":3716:3722  myNfts */\n      dup4\n        /* \"contracts/GeekNftMarketPlace.sol\":3723:3731  nftIndex */\n      dup4\n        /* \"contracts/GeekNftMarketPlace.sol\":3716:3732  myNfts[nftIndex] */\n      dup2\n      mload\n      dup2\n      lt\n      tag_177\n      jumpi\n      tag_178\n      tag_101\n      jump\t// in\n    tag_178:\n    tag_177:\n      0x20\n      mul\n      0x20\n      add\n      add\n        /* \"contracts/GeekNftMarketPlace.sol\":3716:3746  myNfts[nftIndex] = _idToNft[i] */\n      dup2\n      swap1\n      mstore\n      pop\n        /* \"contracts/GeekNftMarketPlace.sol\":3764:3775  nftIndex ++ */\n      dup2\n      dup1\n      tag_179\n      swap1\n      tag_85\n      jump\t// in\n    tag_179:\n      swap3\n      pop\n      pop\n        /* \"contracts/GeekNftMarketPlace.sol\":3662:3790  if(_idToNft[i].owner == msg.sender) {... */\n    tag_176:\n        /* \"contracts/GeekNftMarketPlace.sol\":3643:3646  i++ */\n      dup1\n      dup1\n      tag_180\n      swap1\n      tag_85\n      jump\t// in\n    tag_180:\n      swap2\n      pop\n      pop\n        /* \"contracts/GeekNftMarketPlace.sol\":3610:3800  for (uint i = 1; i <= nftsCount; i++) {... */\n      jump(tag_173)\n    tag_174:\n      pop\n        /* \"contracts/GeekNftMarketPlace.sol\":3817:3823  myNfts */\n      dup2\n        /* \"contracts/GeekNftMarketPlace.sol\":3810:3823  return myNfts */\n      swap5\n      pop\n      pop\n      pop\n      pop\n      pop\n        /* \"contracts/GeekNftMarketPlace.sol\":3226:3830  function getMyOwnedNfts() public view returns (NFT[] memory) {... */\n      swap1\n      jump\t// out\n        /* \"contracts/GeekNftMarketPlace.sol\":1177:1902  function listNFT(address _nftContract, uint _tokenId, uint _price) public payable nonReentrant{... */\n    tag_45:\n        /* \"contracts/RenntrancyGuard.sol\":171:172  2 */\n      0x02\n        /* \"contracts/RenntrancyGuard.sol\":310:317  _status */\n      sload(0x00)\n        /* \"contracts/RenntrancyGuard.sol\":310:329  _status != _ENTERED */\n      eq\n      iszero\n        /* \"contracts/RenntrancyGuard.sol\":302:365  require(_status != _ENTERED, \"ReentrancyGuard: reentrant call\") */\n      tag_182\n      jumpi\n      mload(0x40)\n      0x08c379a000000000000000000000000000000000000000000000000000000000\n      dup2\n      mstore\n      0x04\n      add\n      tag_183\n      swap1\n      tag_59\n      jump\t// in\n    tag_183:\n      mload(0x40)\n      dup1\n      swap2\n      sub\n      swap1\n      revert\n    tag_182:\n        /* \"contracts/RenntrancyGuard.sol\":171:172  2 */\n      0x02\n        /* \"contracts/RenntrancyGuard.sol\":375:382  _status */\n      0x00\n        /* \"contracts/RenntrancyGuard.sol\":375:393  _status = _ENTERED */\n      dup2\n      swap1\n      sstore\n      pop\n        /* \"contracts/GeekNftMarketPlace.sol\":1298:1299  0 */\n      0x00\n        /* \"contracts/GeekNftMarketPlace.sol\":1289:1295  _price */\n      dup2\n        /* \"contracts/GeekNftMarketPlace.sol\":1289:1299  _price > 0 */\n      gt\n        /* \"contracts/GeekNftMarketPlace.sol\":1281:1332  require(_price > 0, \"Price must be at least 1 wei\") */\n      tag_185\n      jumpi\n      mload(0x40)\n      0x08c379a000000000000000000000000000000000000000000000000000000000\n      dup2\n      mstore\n      0x04\n      add\n      tag_186\n      swap1\n      tag_63\n      jump\t// in\n    tag_186:\n      mload(0x40)\n      dup1\n      swap2\n      sub\n      swap1\n      revert\n    tag_185:\n        /* \"contracts/GeekNftMarketPlace.sol\":1363:1374  LISTING_FEE */\n      sload(0x03)\n        /* \"contracts/GeekNftMarketPlace.sol\":1350:1359  msg.value */\n      callvalue\n        /* \"contracts/GeekNftMarketPlace.sol\":1350:1374  msg.value == LISTING_FEE */\n      eq\n        /* \"contracts/GeekNftMarketPlace.sol\":1342:1411  require(msg.value == LISTING_FEE, \"Not enough ether for listing fee\") */\n      tag_187\n      jumpi\n      mload(0x40)\n      0x08c379a000000000000000000000000000000000000000000000000000000000\n      dup2\n      mstore\n      0x04\n      add\n      tag_188\n      swap1\n      tag_66\n      jump\t// in\n    tag_188:\n      mload(0x40)\n      dup1\n      swap2\n      sub\n      swap1\n      revert\n    tag_187:\n        /* \"contracts/GeekNftMarketPlace.sol\":1439:1451  _nftContract */\n      dup3\n        /* \"contracts/GeekNftMarketPlace.sol\":1422:1465  GeekNftInterface(_nftContract).transferFrom */\n      0xffffffffffffffffffffffffffffffffffffffff\n      and\n      0x23b872dd\n        /* \"contracts/GeekNftMarketPlace.sol\":1466:1476  msg.sender */\n      caller\n        /* \"contracts/GeekNftMarketPlace.sol\":1486:1490  this */\n      address\n        /* \"contracts/GeekNftMarketPlace.sol\":1493:1501  _tokenId */\n      dup6\n        /* \"contracts/GeekNftMarketPlace.sol\":1422:1502  GeekNftInterface(_nftContract).transferFrom(msg.sender, address(this), _tokenId) */\n      mload(0x40)\n      dup5\n      0xffffffff\n      and\n      0xe0\n      shl\n      dup2\n      mstore\n      0x04\n      add\n      tag_189\n      swap4\n      swap3\n      swap2\n      swap1\n      tag_68\n      jump\t// in\n    tag_189:\n      0x00\n      mload(0x40)\n      dup1\n      dup4\n      sub\n      dup2\n      0x00\n      dup8\n      dup1\n      extcodesize\n      iszero\n      dup1\n      iszero\n      tag_190\n      jumpi\n      0x00\n      dup1\n      revert\n    tag_190:\n      pop\n      gas\n      call\n      iszero\n      dup1\n      iszero\n      tag_192\n      jumpi\n      returndatasize\n      0x00\n      dup1\n      returndatacopy\n      revert(0x00, returndatasize)\n    tag_192:\n      pop\n      pop\n      pop\n      pop\n        /* \"contracts/GeekNftMarketPlace.sol\":1512:1534  _nftsCount.increment() */\n      tag_193\n        /* \"contracts/GeekNftMarketPlace.sol\":1512:1522  _nftsCount */\n      0x02\n        /* \"contracts/GeekNftMarketPlace.sol\":1512:1532  _nftsCount.increment */\n      tag_119\n        /* \"contracts/GeekNftMarketPlace.sol\":1512:1534  _nftsCount.increment() */\n      jump\t// in\n    tag_193:\n        /* \"contracts/GeekNftMarketPlace.sol\":1566:1767  NFT(... */\n      mload(0x40)\n      dup1\n      0xe0\n      add\n      0x40\n      mstore\n      dup1\n        /* \"contracts/GeekNftMarketPlace.sol\":1583:1595  _nftContract */\n      dup5\n        /* \"contracts/GeekNftMarketPlace.sol\":1566:1767  NFT(... */\n      0xffffffffffffffffffffffffffffffffffffffff\n      and\n      dup2\n      mstore\n      0x20\n      add\n        /* \"contracts/GeekNftMarketPlace.sol\":1609:1617  _tokenId */\n      dup4\n        /* \"contracts/GeekNftMarketPlace.sol\":1566:1767  NFT(... */\n      dup2\n      mstore\n      0x20\n      add\n        /* \"contracts/GeekNftMarketPlace.sol\":1631:1637  _price */\n      dup3\n        /* \"contracts/GeekNftMarketPlace.sol\":1566:1767  NFT(... */\n      dup2\n      mstore\n      0x20\n      add\n        /* \"contracts/GeekNftMarketPlace.sol\":1659:1669  msg.sender */\n      caller\n        /* \"contracts/GeekNftMarketPlace.sol\":1566:1767  NFT(... */\n      0xffffffffffffffffffffffffffffffffffffffff\n      and\n      dup2\n      mstore\n      0x20\n      add\n        /* \"contracts/GeekNftMarketPlace.sol\":1700:1704  this */\n      address\n        /* \"contracts/GeekNftMarketPlace.sol\":1566:1767  NFT(... */\n      0xffffffffffffffffffffffffffffffffffffffff\n      and\n      dup2\n      mstore\n      0x20\n      add\n        /* \"contracts/GeekNftMarketPlace.sol\":1728:1738  msg.sender */\n      caller\n        /* \"contracts/GeekNftMarketPlace.sol\":1566:1767  NFT(... */\n      0xffffffffffffffffffffffffffffffffffffffff\n      and\n      dup2\n      mstore\n      0x20\n      add\n        /* \"contracts/GeekNftMarketPlace.sol\":1753:1757  true */\n      0x01\n        /* \"contracts/GeekNftMarketPlace.sol\":1566:1767  NFT(... */\n      iszero\n      iszero\n      dup2\n      mstore\n      pop\n        /* \"contracts/GeekNftMarketPlace.sol\":1545:1553  _idToNft */\n      0x05\n        /* \"contracts/GeekNftMarketPlace.sol\":1545:1563  _idToNft[_tokenId] */\n      0x00\n        /* \"contracts/GeekNftMarketPlace.sol\":1554:1562  _tokenId */\n      dup5\n        /* \"contracts/GeekNftMarketPlace.sol\":1545:1563  _idToNft[_tokenId] */\n      dup2\n      mstore\n      0x20\n      add\n      swap1\n      dup2\n      mstore\n      0x20\n      add\n      0x00\n      keccak256\n        /* \"contracts/GeekNftMarketPlace.sol\":1545:1767  _idToNft[_tokenId] = NFT(... */\n      0x00\n      dup3\n      add\n      mload\n      dup2\n      0x00\n      add\n      exp(0x0100, 0x00)\n      dup2\n      sload\n      dup2\n      0xffffffffffffffffffffffffffffffffffffffff\n      mul\n      not\n      and\n      swap1\n      dup4\n      0xffffffffffffffffffffffffffffffffffffffff\n      and\n      mul\n      or\n      swap1\n      sstore\n      pop\n      0x20\n      dup3\n      add\n      mload\n      dup2\n      0x01\n      add\n      sstore\n      0x40\n      dup3\n      add\n      mload\n      dup2\n      0x02\n      add\n      sstore\n      0x60\n      dup3\n      add\n      mload\n      dup2\n      0x03\n      add\n      exp(0x0100, 0x00)\n      dup2\n      sload\n      dup2\n      0xffffffffffffffffffffffffffffffffffffffff\n      mul\n      not\n      and\n      swap1\n      dup4\n      0xffffffffffffffffffffffffffffffffffffffff\n      and\n      mul\n      or\n      swap1\n      sstore\n      pop\n      0x80\n      dup3\n      add\n      mload\n      dup2\n      0x04\n      add\n      exp(0x0100, 0x00)\n      dup2\n      sload\n      dup2\n      0xffffffffffffffffffffffffffffffffffffffff\n      mul\n      not\n      and\n      swap1\n      dup4\n      0xffffffffffffffffffffffffffffffffffffffff\n      and\n      mul\n      or\n      swap1\n      sstore\n      pop\n      0xa0\n      dup3\n      add\n      mload\n      dup2\n      0x05\n      add\n      exp(0x0100, 0x00)\n      dup2\n      sload\n      dup2\n      0xffffffffffffffffffffffffffffffffffffffff\n      mul\n      not\n      and\n      swap1\n      dup4\n      0xffffffffffffffffffffffffffffffffffffffff\n      and\n      mul\n      or\n      swap1\n      sstore\n      pop\n      0xc0\n      dup3\n      add\n      mload\n      dup2\n      0x05\n      add\n      exp(0x0100, 0x14)\n      dup2\n      sload\n      dup2\n      0xff\n      mul\n      not\n      and\n      swap1\n      dup4\n      iszero\n      iszero\n      mul\n      or\n      swap1\n      sstore\n      pop\n      swap1\n      pop\n      pop\n        /* \"contracts/GeekNftMarketPlace.sol\":1778:1791  _marketOwwner */\n      0x04\n      0x00\n      swap1\n      sload\n      swap1\n      0x0100\n      exp\n      swap1\n      div\n      0xffffffffffffffffffffffffffffffffffffffff\n      and\n        /* \"contracts/GeekNftMarketPlace.sol\":1778:1800  _marketOwwner.transfer */\n      0xffffffffffffffffffffffffffffffffffffffff\n      and\n        /* \"contracts/GeekNftMarketPlace.sol\":1778:1811  _marketOwwner.transfer(msg.value) */\n      0x08fc\n        /* \"contracts/GeekNftMarketPlace.sol\":1801:1810  msg.value */\n      callvalue\n        /* \"contracts/GeekNftMarketPlace.sol\":1778:1811  _marketOwwner.transfer(msg.value) */\n      swap1\n      dup2\n      iszero\n      mul\n      swap1\n      mload(0x40)\n      0x00\n      mload(0x40)\n      dup1\n      dup4\n      sub\n      dup2\n      dup6\n      dup9\n      dup9\n      call\n      swap4\n      pop\n      pop\n      pop\n      pop\n      iszero\n      dup1\n      iszero\n      tag_195\n      jumpi\n      returndatasize\n      0x00\n      dup1\n      returndatacopy\n      revert(0x00, returndatasize)\n    tag_195:\n      pop\n        /* \"contracts/GeekNftMarketPlace.sol\":1881:1885  this */\n      address\n        /* \"contracts/GeekNftMarketPlace.sol\":1827:1895  NFTListed(_nftContract, _tokenId, msg.sender, address(this), _price) */\n      0xffffffffffffffffffffffffffffffffffffffff\n      and\n        /* \"contracts/GeekNftMarketPlace.sol\":1861:1871  msg.sender */\n      caller\n        /* \"contracts/GeekNftMarketPlace.sol\":1827:1895  NFTListed(_nftContract, _tokenId, msg.sender, address(this), _price) */\n      0xffffffffffffffffffffffffffffffffffffffff\n      and\n      0xa0c6c0d02d86fdacecbaa5fdf5894bab204e31a778250474108540733a9b8d19\n        /* \"contracts/GeekNftMarketPlace.sol\":1837:1849  _nftContract */\n      dup6\n        /* \"contracts/GeekNftMarketPlace.sol\":1851:1859  _tokenId */\n      dup6\n        /* \"contracts/GeekNftMarketPlace.sol\":1888:1894  _price */\n      dup6\n        /* \"contracts/GeekNftMarketPlace.sol\":1827:1895  NFTListed(_nftContract, _tokenId, msg.sender, address(this), _price) */\n      mload(0x40)\n      tag_196\n      swap4\n      swap3\n      swap2\n      swap1\n      tag_75\n      jump\t// in\n    tag_196:\n      mload(0x40)\n      dup1\n      swap2\n      sub\n      swap1\n      log3\n        /* \"contracts/RenntrancyGuard.sol\":128:129  1 */\n      0x01\n        /* \"contracts/RenntrancyGuard.sol\":414:421  _status */\n      0x00\n        /* \"contracts/RenntrancyGuard.sol\":414:436  _status = _NOT_ENTERED */\n      dup2\n      swap1\n      sstore\n      pop\n        /* \"contracts/GeekNftMarketPlace.sol\":1177:1902  function listNFT(address _nftContract, uint _tokenId, uint _price) public payable nonReentrant{... */\n      pop\n      pop\n      pop\n      jump\t// out\n        /* \"contracts/GeekNftMarketPlace.sol\":1046:1132  function getListingFee() public view returns (uint){... */\n    tag_48:\n        /* \"contracts/GeekNftMarketPlace.sol\":1092:1096  uint */\n      0x00\n        /* \"contracts/GeekNftMarketPlace.sol\":1114:1125  LISTING_FEE */\n      sload(0x03)\n        /* \"contracts/GeekNftMarketPlace.sol\":1107:1125  return LISTING_FEE */\n      swap1\n      pop\n        /* \"contracts/GeekNftMarketPlace.sol\":1046:1132  function getListingFee() public view returns (uint){... */\n      swap1\n      jump\t// out\n        /* \"contracts/GeekNftMarketPlace.sol\":5208:5848  function getCollectionNfts(address _collection) public view returns (NFT[] memory) {... */\n    tag_54:\n        /* \"contracts/GeekNftMarketPlace.sol\":5277:5289  NFT[] memory */\n      0x60\n        /* \"contracts/GeekNftMarketPlace.sol\":5301:5315  uint nftsCount */\n      0x00\n        /* \"contracts/GeekNftMarketPlace.sol\":5318:5338  _nftsCount.current() */\n      tag_199\n        /* \"contracts/GeekNftMarketPlace.sol\":5318:5328  _nftsCount */\n      0x02\n        /* \"contracts/GeekNftMarketPlace.sol\":5318:5336  _nftsCount.current */\n      tag_78\n        /* \"contracts/GeekNftMarketPlace.sol\":5318:5338  _nftsCount.current() */\n      jump\t// in\n    tag_199:\n        /* \"contracts/GeekNftMarketPlace.sol\":5301:5338  uint nftsCount = _nftsCount.current() */\n      swap1\n      pop\n        /* \"contracts/GeekNftMarketPlace.sol\":5348:5364  uint myNftsCount */\n      0x00\n        /* \"contracts/GeekNftMarketPlace.sol\":5383:5389  uint i */\n      dup1\n        /* \"contracts/GeekNftMarketPlace.sol\":5392:5393  1 */\n      0x01\n        /* \"contracts/GeekNftMarketPlace.sol\":5383:5393  uint i = 1 */\n      swap1\n      pop\n        /* \"contracts/GeekNftMarketPlace.sol\":5378:5530  for (uint i = 1; i <= nftsCount; i++) {... */\n    tag_200:\n        /* \"contracts/GeekNftMarketPlace.sol\":5400:5409  nftsCount */\n      dup3\n        /* \"contracts/GeekNftMarketPlace.sol\":5395:5396  i */\n      dup2\n        /* \"contracts/GeekNftMarketPlace.sol\":5395:5409  i <= nftsCount */\n      gt\n        /* \"contracts/GeekNftMarketPlace.sol\":5378:5530  for (uint i = 1; i <= nftsCount; i++) {... */\n      tag_201\n      jumpi\n        /* \"contracts/GeekNftMarketPlace.sol\":5460:5471  _collection */\n      dup5\n        /* \"contracts/GeekNftMarketPlace.sol\":5433:5471  _idToNft[i].nftContract == _collection */\n      0xffffffffffffffffffffffffffffffffffffffff\n      and\n        /* \"contracts/GeekNftMarketPlace.sol\":5433:5441  _idToNft */\n      0x05\n        /* \"contracts/GeekNftMarketPlace.sol\":5433:5444  _idToNft[i] */\n      0x00\n        /* \"contracts/GeekNftMarketPlace.sol\":5442:5443  i */\n      dup4\n        /* \"contracts/GeekNftMarketPlace.sol\":5433:5444  _idToNft[i] */\n      dup2\n      mstore\n      0x20\n      add\n      swap1\n      dup2\n      mstore\n      0x20\n      add\n      0x00\n      keccak256\n        /* \"contracts/GeekNftMarketPlace.sol\":5433:5456  _idToNft[i].nftContract */\n      0x00\n      add\n      0x00\n      swap1\n      sload\n      swap1\n      0x0100\n      exp\n      swap1\n      div\n      0xffffffffffffffffffffffffffffffffffffffff\n      and\n        /* \"contracts/GeekNftMarketPlace.sol\":5433:5471  _idToNft[i].nftContract == _collection */\n      0xffffffffffffffffffffffffffffffffffffffff\n      and\n      eq\n        /* \"contracts/GeekNftMarketPlace.sol\":5430:5520  if(_idToNft[i].nftContract == _collection) {... */\n      iszero\n      tag_203\n      jumpi\n        /* \"contracts/GeekNftMarketPlace.sol\":5491:5505  myNftsCount ++ */\n      dup2\n      dup1\n      tag_204\n      swap1\n      tag_85\n      jump\t// in\n    tag_204:\n      swap3\n      pop\n      pop\n        /* \"contracts/GeekNftMarketPlace.sol\":5430:5520  if(_idToNft[i].nftContract == _collection) {... */\n    tag_203:\n        /* \"contracts/GeekNftMarketPlace.sol\":5411:5414  i++ */\n      dup1\n      dup1\n      tag_205\n      swap1\n      tag_85\n      jump\t// in\n    tag_205:\n      swap2\n      pop\n      pop\n        /* \"contracts/GeekNftMarketPlace.sol\":5378:5530  for (uint i = 1; i <= nftsCount; i++) {... */\n      jump(tag_200)\n    tag_201:\n      pop\n        /* \"contracts/GeekNftMarketPlace.sol\":5540:5559  NFT[] memory myNfts */\n      0x00\n        /* \"contracts/GeekNftMarketPlace.sol\":5572:5583  myNftsCount */\n      dup2\n        /* \"contracts/GeekNftMarketPlace.sol\":5562:5584  new NFT[](myNftsCount) */\n      0xffffffffffffffff\n      dup2\n      gt\n      iszero\n      tag_206\n      jumpi\n      tag_207\n      tag_89\n      jump\t// in\n    tag_207:\n    tag_206:\n      mload(0x40)\n      swap1\n      dup1\n      dup3\n      mstore\n      dup1\n      0x20\n      mul\n      0x20\n      add\n      dup3\n      add\n      0x40\n      mstore\n      dup1\n      iszero\n      tag_208\n      jumpi\n      dup2\n      0x20\n      add\n    tag_209:\n      tag_210\n      tag_93\n      jump\t// in\n    tag_210:\n      dup2\n      mstore\n      0x20\n      add\n      swap1\n      0x01\n      swap1\n      sub\n      swap1\n      dup2\n      tag_209\n      jumpi\n      swap1\n      pop\n    tag_208:\n      pop\n        /* \"contracts/GeekNftMarketPlace.sol\":5540:5584  NFT[] memory myNfts = new NFT[](myNftsCount) */\n      swap1\n      pop\n        /* \"contracts/GeekNftMarketPlace.sol\":5594:5607  uint nftIndex */\n      0x00\n        /* \"contracts/GeekNftMarketPlace.sol\":5626:5632  uint i */\n      dup1\n        /* \"contracts/GeekNftMarketPlace.sol\":5635:5636  1 */\n      0x01\n        /* \"contracts/GeekNftMarketPlace.sol\":5626:5636  uint i = 1 */\n      swap1\n      pop\n        /* \"contracts/GeekNftMarketPlace.sol\":5621:5818  for (uint i = 1; i <= nftsCount; i++) {... */\n    tag_211:\n        /* \"contracts/GeekNftMarketPlace.sol\":5643:5652  nftsCount */\n      dup5\n        /* \"contracts/GeekNftMarketPlace.sol\":5638:5639  i */\n      dup2\n        /* \"contracts/GeekNftMarketPlace.sol\":5638:5652  i <= nftsCount */\n      gt\n        /* \"contracts/GeekNftMarketPlace.sol\":5621:5818  for (uint i = 1; i <= nftsCount; i++) {... */\n      tag_212\n      jumpi\n        /* \"contracts/GeekNftMarketPlace.sol\":5703:5714  _collection */\n      dup7\n        /* \"contracts/GeekNftMarketPlace.sol\":5676:5714  _idToNft[i].nftContract == _collection */\n      0xffffffffffffffffffffffffffffffffffffffff\n      and\n        /* \"contracts/GeekNftMarketPlace.sol\":5676:5684  _idToNft */\n      0x05\n        /* \"contracts/GeekNftMarketPlace.sol\":5676:5687  _idToNft[i] */\n      0x00\n        /* \"contracts/GeekNftMarketPlace.sol\":5685:5686  i */\n      dup4\n        /* \"contracts/GeekNftMarketPlace.sol\":5676:5687  _idToNft[i] */\n      dup2\n      mstore\n      0x20\n      add\n      swap1\n      dup2\n      mstore\n      0x20\n      add\n      0x00\n      keccak256\n        /* \"contracts/GeekNftMarketPlace.sol\":5676:5699  _idToNft[i].nftContract */\n      0x00\n      add\n      0x00\n      swap1\n      sload\n      swap1\n      0x0100\n      exp\n      swap1\n      div\n      0xffffffffffffffffffffffffffffffffffffffff\n      and\n        /* \"contracts/GeekNftMarketPlace.sol\":5676:5714  _idToNft[i].nftContract == _collection */\n      0xffffffffffffffffffffffffffffffffffffffff\n      and\n      eq\n        /* \"contracts/GeekNftMarketPlace.sol\":5673:5808  if(_idToNft[i].nftContract == _collection) {... */\n      iszero\n      tag_214\n      jumpi\n        /* \"contracts/GeekNftMarketPlace.sol\":5753:5761  _idToNft */\n      0x05\n        /* \"contracts/GeekNftMarketPlace.sol\":5753:5764  _idToNft[i] */\n      0x00\n        /* \"contracts/GeekNftMarketPlace.sol\":5762:5763  i */\n      dup3\n        /* \"contracts/GeekNftMarketPlace.sol\":5753:5764  _idToNft[i] */\n      dup2\n      mstore\n      0x20\n      add\n      swap1\n      dup2\n      mstore\n      0x20\n      add\n      0x00\n      keccak256\n        /* \"contracts/GeekNftMarketPlace.sol\":5734:5764  myNfts[nftIndex] = _idToNft[i] */\n      mload(0x40)\n      dup1\n      0xe0\n      add\n      0x40\n      mstore\n      swap1\n      dup2\n      0x00\n      dup3\n      add\n      0x00\n      swap1\n      sload\n      swap1\n      0x0100\n      exp\n      swap1\n      div\n      0xffffffffffffffffffffffffffffffffffffffff\n      and\n      0xffffffffffffffffffffffffffffffffffffffff\n      and\n      0xffffffffffffffffffffffffffffffffffffffff\n      and\n      dup2\n      mstore\n      0x20\n      add\n      0x01\n      dup3\n      add\n      sload\n      dup2\n      mstore\n      0x20\n      add\n      0x02\n      dup3\n      add\n      sload\n      dup2\n      mstore\n      0x20\n      add\n      0x03\n      dup3\n      add\n      0x00\n      swap1\n      sload\n      swap1\n      0x0100\n      exp\n      swap1\n      div\n      0xffffffffffffffffffffffffffffffffffffffff\n      and\n      0xffffffffffffffffffffffffffffffffffffffff\n      and\n      0xffffffffffffffffffffffffffffffffffffffff\n      and\n      dup2\n      mstore\n      0x20\n      add\n      0x04\n      dup3\n      add\n      0x00\n      swap1\n      sload\n      swap1\n      0x0100\n      exp\n      swap1\n      div\n      0xffffffffffffffffffffffffffffffffffffffff\n      and\n      0xffffffffffffffffffffffffffffffffffffffff\n      and\n      0xffffffffffffffffffffffffffffffffffffffff\n      and\n      dup2\n      mstore\n      0x20\n      add\n      0x05\n      dup3\n      add\n      0x00\n      swap1\n      sload\n      swap1\n      0x0100\n      exp\n      swap1\n      div\n      0xffffffffffffffffffffffffffffffffffffffff\n      and\n      0xffffffffffffffffffffffffffffffffffffffff\n      and\n      0xffffffffffffffffffffffffffffffffffffffff\n      and\n      dup2\n      mstore\n      0x20\n      add\n      0x05\n      dup3\n      add\n      0x14\n      swap1\n      sload\n      swap1\n      0x0100\n      exp\n      swap1\n      div\n      0xff\n      and\n      iszero\n      iszero\n      iszero\n      iszero\n      dup2\n      mstore\n      pop\n      pop\n        /* \"contracts/GeekNftMarketPlace.sol\":5734:5740  myNfts */\n      dup4\n        /* \"contracts/GeekNftMarketPlace.sol\":5741:5749  nftIndex */\n      dup4\n        /* \"contracts/GeekNftMarketPlace.sol\":5734:5750  myNfts[nftIndex] */\n      dup2\n      mload\n      dup2\n      lt\n      tag_215\n      jumpi\n      tag_216\n      tag_101\n      jump\t// in\n    tag_216:\n    tag_215:\n      0x20\n      mul\n      0x20\n      add\n      add\n        /* \"contracts/GeekNftMarketPlace.sol\":5734:5764  myNfts[nftIndex] = _idToNft[i] */\n      dup2\n      swap1\n      mstore\n      pop\n        /* \"contracts/GeekNftMarketPlace.sol\":5782:5793  nftIndex ++ */\n      dup2\n      dup1\n      tag_217\n      swap1\n      tag_85\n      jump\t// in\n    tag_217:\n      swap3\n      pop\n      pop\n        /* \"contracts/GeekNftMarketPlace.sol\":5673:5808  if(_idToNft[i].nftContract == _collection) {... */\n    tag_214:\n        /* \"contracts/GeekNftMarketPlace.sol\":5654:5657  i++ */\n      dup1\n      dup1\n      tag_218\n      swap1\n      tag_85\n      jump\t// in\n    tag_218:\n      swap2\n      pop\n      pop\n        /* \"contracts/GeekNftMarketPlace.sol\":5621:5818  for (uint i = 1; i <= nftsCount; i++) {... */\n      jump(tag_211)\n    tag_212:\n      pop\n        /* \"contracts/GeekNftMarketPlace.sol\":5835:5841  myNfts */\n      dup2\n        /* \"contracts/GeekNftMarketPlace.sol\":5828:5841  return myNfts */\n      swap5\n      pop\n      pop\n      pop\n      pop\n      pop\n        /* \"contracts/GeekNftMarketPlace.sol\":5208:5848  function getCollectionNfts(address _collection) public view returns (NFT[] memory) {... */\n      swap2\n      swap1\n      pop\n      jump\t// out\n        /* \"contracts/Counters.sol\":1074:1303  function decrement(Counter storage counter) internal {... */\n    tag_73:\n        /* \"contracts/Counters.sol\":1137:1150  uint256 value */\n      0x00\n        /* \"contracts/Counters.sol\":1153:1160  counter */\n      dup2\n        /* \"contracts/Counters.sol\":1153:1167  counter._value */\n      0x00\n      add\n      sload\n        /* \"contracts/Counters.sol\":1137:1167  uint256 value = counter._value */\n      swap1\n      pop\n        /* \"contracts/Counters.sol\":1193:1194  0 */\n      0x00\n        /* \"contracts/Counters.sol\":1185:1190  value */\n      dup2\n        /* \"contracts/Counters.sol\":1185:1194  value > 0 */\n      gt\n        /* \"contracts/Counters.sol\":1177:1226  require(value > 0, \"Counter: decrement overflow\") */\n      tag_220\n      jumpi\n      mload(0x40)\n      0x08c379a000000000000000000000000000000000000000000000000000000000\n      dup2\n      mstore\n      0x04\n      add\n      tag_221\n      swap1\n      tag_222\n      jump\t// in\n    tag_221:\n      mload(0x40)\n      dup1\n      swap2\n      sub\n      swap1\n      revert\n    tag_220:\n        /* \"contracts/Counters.sol\":1285:1286  1 */\n      0x01\n        /* \"contracts/Counters.sol\":1277:1282  value */\n      dup2\n        /* \"contracts/Counters.sol\":1277:1286  value - 1 */\n      sub\n        /* \"contracts/Counters.sol\":1260:1267  counter */\n      dup3\n        /* \"contracts/Counters.sol\":1260:1274  counter._value */\n      0x00\n      add\n        /* \"contracts/Counters.sol\":1260:1286  counter._value = value - 1 */\n      dup2\n      swap1\n      sstore\n      pop\n        /* \"contracts/Counters.sol\":1127:1303  {... */\n      pop\n        /* \"contracts/Counters.sol\":1074:1303  function decrement(Counter storage counter) internal {... */\n      pop\n      jump\t// out\n        /* \"contracts/Counters.sol\":827:939  function current(Counter storage counter) internal view returns (uint256) {... */\n    tag_78:\n        /* \"contracts/Counters.sol\":892:899  uint256 */\n      0x00\n        /* \"contracts/Counters.sol\":918:925  counter */\n      dup2\n        /* \"contracts/Counters.sol\":918:932  counter._value */\n      0x00\n      add\n      sload\n        /* \"contracts/Counters.sol\":911:932  return counter._value */\n      swap1\n      pop\n        /* \"contracts/Counters.sol\":827:939  function current(Counter storage counter) internal view returns (uint256) {... */\n      swap2\n      swap1\n      pop\n      jump\t// out\n        /* \"contracts/Counters.sol\":945:1068  function increment(Counter storage counter) internal {... */\n    tag_119:\n        /* \"contracts/Counters.sol\":1050:1051  1 */\n      0x01\n        /* \"contracts/Counters.sol\":1032:1039  counter */\n      dup2\n        /* \"contracts/Counters.sol\":1032:1046  counter._value */\n      0x00\n      add\n      0x00\n        /* \"contracts/Counters.sol\":1032:1051  counter._value += 1 */\n      dup3\n      dup3\n      sload\n      add\n      swap3\n      pop\n      pop\n      dup2\n      swap1\n      sstore\n      pop\n        /* \"contracts/Counters.sol\":945:1068  function increment(Counter storage counter) internal {... */\n      pop\n      jump\t// out\n    tag_93:\n      mload(0x40)\n      dup1\n      0xe0\n      add\n      0x40\n      mstore\n      dup1\n      and(0xffffffffffffffffffffffffffffffffffffffff, 0x00)\n      dup2\n      mstore\n      0x20\n      add\n      0x00\n      dup2\n      mstore\n      0x20\n      add\n      0x00\n      dup2\n      mstore\n      0x20\n      add\n      and(0xffffffffffffffffffffffffffffffffffffffff, 0x00)\n      dup2\n      mstore\n      0x20\n      add\n      and(0xffffffffffffffffffffffffffffffffffffffff, 0x00)\n      dup2\n      mstore\n      0x20\n      add\n      and(0xffffffffffffffffffffffffffffffffffffffff, 0x00)\n      dup2\n      mstore\n      0x20\n      add\n      iszero(iszero(0x00))\n      dup2\n      mstore\n      pop\n      swap1\n      jump\t// out\n        /* \"#utility.yul\":7:146   */\n    tag_226:\n        /* \"#utility.yul\":53:58   */\n      0x00\n        /* \"#utility.yul\":91:97   */\n      dup2\n        /* \"#utility.yul\":78:98   */\n      calldataload\n        /* \"#utility.yul\":69:98   */\n      swap1\n      pop\n        /* \"#utility.yul\":107:140   */\n      tag_228\n        /* \"#utility.yul\":134:139   */\n      dup2\n        /* \"#utility.yul\":107:140   */\n      tag_229\n      jump\t// in\n    tag_228:\n        /* \"#utility.yul\":7:146   */\n      swap3\n      swap2\n      pop\n      pop\n      jump\t// out\n        /* \"#utility.yul\":152:291   */\n    tag_230:\n        /* \"#utility.yul\":198:203   */\n      0x00\n        /* \"#utility.yul\":236:242   */\n      dup2\n        /* \"#utility.yul\":223:243   */\n      calldataload\n        /* \"#utility.yul\":214:243   */\n      swap1\n      pop\n        /* \"#utility.yul\":252:285   */\n      tag_232\n        /* \"#utility.yul\":279:284   */\n      dup2\n        /* \"#utility.yul\":252:285   */\n      tag_233\n      jump\t// in\n    tag_232:\n        /* \"#utility.yul\":152:291   */\n      swap3\n      swap2\n      pop\n      pop\n      jump\t// out\n        /* \"#utility.yul\":297:626   */\n    tag_53:\n        /* \"#utility.yul\":356:362   */\n      0x00\n        /* \"#utility.yul\":405:407   */\n      0x20\n        /* \"#utility.yul\":393:402   */\n      dup3\n        /* \"#utility.yul\":384:391   */\n      dup5\n        /* \"#utility.yul\":380:403   */\n      sub\n        /* \"#utility.yul\":376:408   */\n      slt\n        /* \"#utility.yul\":373:492   */\n      iszero\n      tag_235\n      jumpi\n        /* \"#utility.yul\":411:490   */\n      tag_236\n      tag_237\n      jump\t// in\n    tag_236:\n        /* \"#utility.yul\":373:492   */\n    tag_235:\n        /* \"#utility.yul\":531:532   */\n      0x00\n        /* \"#utility.yul\":556:609   */\n      tag_238\n        /* \"#utility.yul\":601:608   */\n      dup5\n        /* \"#utility.yul\":592:598   */\n      dup3\n        /* \"#utility.yul\":581:590   */\n      dup6\n        /* \"#utility.yul\":577:599   */\n      add\n        /* \"#utility.yul\":556:609   */\n      tag_226\n      jump\t// in\n    tag_238:\n        /* \"#utility.yul\":546:609   */\n      swap2\n      pop\n        /* \"#utility.yul\":502:619   */\n      pop\n        /* \"#utility.yul\":297:626   */\n      swap3\n      swap2\n      pop\n      pop\n      jump\t// out\n        /* \"#utility.yul\":632:1106   */\n    tag_29:\n        /* \"#utility.yul\":700:706   */\n      0x00\n        /* \"#utility.yul\":708:714   */\n      dup1\n        /* \"#utility.yul\":757:759   */\n      0x40\n        /* \"#utility.yul\":745:754   */\n      dup4\n        /* \"#utility.yul\":736:743   */\n      dup6\n        /* \"#utility.yul\":732:755   */\n      sub\n        /* \"#utility.yul\":728:760   */\n      slt\n        /* \"#utility.yul\":725:844   */\n      iszero\n      tag_240\n      jumpi\n        /* \"#utility.yul\":763:842   */\n      tag_241\n      tag_237\n      jump\t// in\n    tag_241:\n        /* \"#utility.yul\":725:844   */\n    tag_240:\n        /* \"#utility.yul\":883:884   */\n      0x00\n        /* \"#utility.yul\":908:961   */\n      tag_242\n        /* \"#utility.yul\":953:960   */\n      dup6\n        /* \"#utility.yul\":944:950   */\n      dup3\n        /* \"#utility.yul\":933:942   */\n      dup7\n        /* \"#utility.yul\":929:951   */\n      add\n        /* \"#utility.yul\":908:961   */\n      tag_226\n      jump\t// in\n    tag_242:\n        /* \"#utility.yul\":898:961   */\n      swap3\n      pop\n        /* \"#utility.yul\":854:971   */\n      pop\n        /* \"#utility.yul\":1010:1012   */\n      0x20\n        /* \"#utility.yul\":1036:1089   */\n      tag_243\n        /* \"#utility.yul\":1081:1088   */\n      dup6\n        /* \"#utility.yul\":1072:1078   */\n      dup3\n        /* \"#utility.yul\":1061:1070   */\n      dup7\n        /* \"#utility.yul\":1057:1079   */\n      add\n        /* \"#utility.yul\":1036:1089   */\n      tag_230\n      jump\t// in\n    tag_243:\n        /* \"#utility.yul\":1026:1089   */\n      swap2\n      pop\n        /* \"#utility.yul\":981:1099   */\n      pop\n        /* \"#utility.yul\":632:1106   */\n      swap3\n      pop\n      swap3\n      swap1\n      pop\n      jump\t// out\n        /* \"#utility.yul\":1112:1731   */\n    tag_15:\n        /* \"#utility.yul\":1189:1195   */\n      0x00\n        /* \"#utility.yul\":1197:1203   */\n      dup1\n        /* \"#utility.yul\":1205:1211   */\n      0x00\n        /* \"#utility.yul\":1254:1256   */\n      0x60\n        /* \"#utility.yul\":1242:1251   */\n      dup5\n        /* \"#utility.yul\":1233:1240   */\n      dup7\n        /* \"#utility.yul\":1229:1252   */\n      sub\n        /* \"#utility.yul\":1225:1257   */\n      slt\n        /* \"#utility.yul\":1222:1341   */\n      iszero\n      tag_245\n      jumpi\n        /* \"#utility.yul\":1260:1339   */\n      tag_246\n      tag_237\n      jump\t// in\n    tag_246:\n        /* \"#utility.yul\":1222:1341   */\n    tag_245:\n        /* \"#utility.yul\":1380:1381   */\n      0x00\n        /* \"#utility.yul\":1405:1458   */\n      tag_247\n        /* \"#utility.yul\":1450:1457   */\n      dup7\n        /* \"#utility.yul\":1441:1447   */\n      dup3\n        /* \"#utility.yul\":1430:1439   */\n      dup8\n        /* \"#utility.yul\":1426:1448   */\n      add\n        /* \"#utility.yul\":1405:1458   */\n      tag_226\n      jump\t// in\n    tag_247:\n        /* \"#utility.yul\":1395:1458   */\n      swap4\n      pop\n        /* \"#utility.yul\":1351:1468   */\n      pop\n        /* \"#utility.yul\":1507:1509   */\n      0x20\n        /* \"#utility.yul\":1533:1586   */\n      tag_248\n        /* \"#utility.yul\":1578:1585   */\n      dup7\n        /* \"#utility.yul\":1569:1575   */\n      dup3\n        /* \"#utility.yul\":1558:1567   */\n      dup8\n        /* \"#utility.yul\":1554:1576   */\n      add\n        /* \"#utility.yul\":1533:1586   */\n      tag_230\n      jump\t// in\n    tag_248:\n        /* \"#utility.yul\":1523:1586   */\n      swap3\n      pop\n        /* \"#utility.yul\":1478:1596   */\n      pop\n        /* \"#utility.yul\":1635:1637   */\n      0x40\n        /* \"#utility.yul\":1661:1714   */\n      tag_249\n        /* \"#utility.yul\":1706:1713   */\n      dup7\n        /* \"#utility.yul\":1697:1703   */\n      dup3\n        /* \"#utility.yul\":1686:1695   */\n      dup8\n        /* \"#utility.yul\":1682:1704   */\n      add\n        /* \"#utility.yul\":1661:1714   */\n      tag_230\n      jump\t// in\n    tag_249:\n        /* \"#utility.yul\":1651:1714   */\n      swap2\n      pop\n        /* \"#utility.yul\":1606:1724   */\n      pop\n        /* \"#utility.yul\":1112:1731   */\n      swap3\n      pop\n      swap3\n      pop\n      swap3\n      jump\t// out\n        /* \"#utility.yul\":1737:1996   */\n    tag_250:\n        /* \"#utility.yul\":1846:1856   */\n      0x00\n        /* \"#utility.yul\":1867:1953   */\n      tag_252\n        /* \"#utility.yul\":1949:1952   */\n      dup4\n        /* \"#utility.yul\":1941:1947   */\n      dup4\n        /* \"#utility.yul\":1867:1953   */\n      tag_253\n      jump\t// in\n    tag_252:\n        /* \"#utility.yul\":1985:1989   */\n      0xe0\n        /* \"#utility.yul\":1980:1983   */\n      dup4\n        /* \"#utility.yul\":1976:1990   */\n      add\n        /* \"#utility.yul\":1962:1990   */\n      swap1\n      pop\n        /* \"#utility.yul\":1737:1996   */\n      swap3\n      swap2\n      pop\n      pop\n      jump\t// out\n        /* \"#utility.yul\":2002:2149   */\n    tag_254:\n        /* \"#utility.yul\":2097:2142   */\n      tag_256\n        /* \"#utility.yul\":2136:2141   */\n      dup2\n        /* \"#utility.yul\":2097:2142   */\n      tag_257\n      jump\t// in\n    tag_256:\n        /* \"#utility.yul\":2092:2095   */\n      dup3\n        /* \"#utility.yul\":2085:2143   */\n      mstore\n        /* \"#utility.yul\":2002:2149   */\n      pop\n      pop\n      jump\t// out\n        /* \"#utility.yul\":2155:2287   */\n    tag_258:\n        /* \"#utility.yul\":2248:2280   */\n      tag_260\n        /* \"#utility.yul\":2274:2279   */\n      dup2\n        /* \"#utility.yul\":2248:2280   */\n      tag_261\n      jump\t// in\n    tag_260:\n        /* \"#utility.yul\":2243:2246   */\n      dup3\n        /* \"#utility.yul\":2236:2281   */\n      mstore\n        /* \"#utility.yul\":2155:2287   */\n      pop\n      pop\n      jump\t// out\n        /* \"#utility.yul\":2293:2401   */\n    tag_262:\n        /* \"#utility.yul\":2370:2394   */\n      tag_264\n        /* \"#utility.yul\":2388:2393   */\n      dup2\n        /* \"#utility.yul\":2370:2394   */\n      tag_265\n      jump\t// in\n    tag_264:\n        /* \"#utility.yul\":2365:2368   */\n      dup3\n        /* \"#utility.yul\":2358:2395   */\n      mstore\n        /* \"#utility.yul\":2293:2401   */\n      pop\n      pop\n      jump\t// out\n        /* \"#utility.yul\":2407:2525   */\n    tag_266:\n        /* \"#utility.yul\":2494:2518   */\n      tag_268\n        /* \"#utility.yul\":2512:2517   */\n      dup2\n        /* \"#utility.yul\":2494:2518   */\n      tag_265\n      jump\t// in\n    tag_268:\n        /* \"#utility.yul\":2489:2492   */\n      dup3\n        /* \"#utility.yul\":2482:2519   */\n      mstore\n        /* \"#utility.yul\":2407:2525   */\n      pop\n      pop\n      jump\t// out\n        /* \"#utility.yul\":2605:3497   */\n    tag_269:\n        /* \"#utility.yul\":2764:2767   */\n      0x00\n        /* \"#utility.yul\":2793:2867   */\n      tag_271\n        /* \"#utility.yul\":2861:2866   */\n      dup3\n        /* \"#utility.yul\":2793:2867   */\n      tag_272\n      jump\t// in\n    tag_271:\n        /* \"#utility.yul\":2883:2989   */\n      tag_273\n        /* \"#utility.yul\":2982:2988   */\n      dup2\n        /* \"#utility.yul\":2977:2980   */\n      dup6\n        /* \"#utility.yul\":2883:2989   */\n      tag_274\n      jump\t// in\n    tag_273:\n        /* \"#utility.yul\":2876:2989   */\n      swap4\n      pop\n        /* \"#utility.yul\":3013:3089   */\n      tag_275\n        /* \"#utility.yul\":3083:3088   */\n      dup4\n        /* \"#utility.yul\":3013:3089   */\n      tag_276\n      jump\t// in\n    tag_275:\n        /* \"#utility.yul\":3112:3119   */\n      dup1\n        /* \"#utility.yul\":3143:3144   */\n      0x00\n        /* \"#utility.yul\":3128:3472   */\n    tag_277:\n        /* \"#utility.yul\":3153:3159   */\n      dup4\n        /* \"#utility.yul\":3150:3151   */\n      dup2\n        /* \"#utility.yul\":3147:3160   */\n      lt\n        /* \"#utility.yul\":3128:3472   */\n      iszero\n      tag_279\n      jumpi\n        /* \"#utility.yul\":3229:3235   */\n      dup2\n        /* \"#utility.yul\":3223:3236   */\n      mload\n        /* \"#utility.yul\":3256:3359   */\n      tag_280\n        /* \"#utility.yul\":3355:3358   */\n      dup9\n        /* \"#utility.yul\":3340:3353   */\n      dup3\n        /* \"#utility.yul\":3256:3359   */\n      tag_250\n      jump\t// in\n    tag_280:\n        /* \"#utility.yul\":3249:3359   */\n      swap8\n      pop\n        /* \"#utility.yul\":3382:3462   */\n      tag_281\n        /* \"#utility.yul\":3455:3461   */\n      dup4\n        /* \"#utility.yul\":3382:3462   */\n      tag_282\n      jump\t// in\n    tag_281:\n        /* \"#utility.yul\":3372:3462   */\n      swap3\n      pop\n        /* \"#utility.yul\":3188:3472   */\n      pop\n        /* \"#utility.yul\":3175:3176   */\n      0x01\n        /* \"#utility.yul\":3172:3173   */\n      dup2\n        /* \"#utility.yul\":3168:3177   */\n      add\n        /* \"#utility.yul\":3163:3177   */\n      swap1\n      pop\n        /* \"#utility.yul\":3128:3472   */\n      jump(tag_277)\n    tag_279:\n        /* \"#utility.yul\":3132:3146   */\n      pop\n        /* \"#utility.yul\":3488:3491   */\n      dup6\n        /* \"#utility.yul\":3481:3491   */\n      swap4\n      pop\n        /* \"#utility.yul\":2769:3497   */\n      pop\n      pop\n      pop\n        /* \"#utility.yul\":2605:3497   */\n      swap3\n      swap2\n      pop\n      pop\n      jump\t// out\n        /* \"#utility.yul\":3503:3602   */\n    tag_283:\n        /* \"#utility.yul\":3574:3595   */\n      tag_285\n        /* \"#utility.yul\":3589:3594   */\n      dup2\n        /* \"#utility.yul\":3574:3595   */\n      tag_286\n      jump\t// in\n    tag_285:\n        /* \"#utility.yul\":3569:3572   */\n      dup3\n        /* \"#utility.yul\":3562:3596   */\n      mstore\n        /* \"#utility.yul\":3503:3602   */\n      pop\n      pop\n      jump\t// out\n        /* \"#utility.yul\":3608:3974   */\n    tag_287:\n        /* \"#utility.yul\":3750:3753   */\n      0x00\n        /* \"#utility.yul\":3771:3838   */\n      tag_289\n        /* \"#utility.yul\":3835:3837   */\n      0x1b\n        /* \"#utility.yul\":3830:3833   */\n      dup4\n        /* \"#utility.yul\":3771:3838   */\n      tag_290\n      jump\t// in\n    tag_289:\n        /* \"#utility.yul\":3764:3838   */\n      swap2\n      pop\n        /* \"#utility.yul\":3847:3940   */\n      tag_291\n        /* \"#utility.yul\":3936:3939   */\n      dup3\n        /* \"#utility.yul\":3847:3940   */\n      tag_292\n      jump\t// in\n    tag_291:\n        /* \"#utility.yul\":3965:3967   */\n      0x20\n        /* \"#utility.yul\":3960:3963   */\n      dup3\n        /* \"#utility.yul\":3956:3968   */\n      add\n        /* \"#utility.yul\":3949:3968   */\n      swap1\n      pop\n        /* \"#utility.yul\":3608:3974   */\n      swap2\n      swap1\n      pop\n      jump\t// out\n        /* \"#utility.yul\":3980:4346   */\n    tag_293:\n        /* \"#utility.yul\":4122:4125   */\n      0x00\n        /* \"#utility.yul\":4143:4210   */\n      tag_295\n        /* \"#utility.yul\":4207:4209   */\n      0x26\n        /* \"#utility.yul\":4202:4205   */\n      dup4\n        /* \"#utility.yul\":4143:4210   */\n      tag_290\n      jump\t// in\n    tag_295:\n        /* \"#utility.yul\":4136:4210   */\n      swap2\n      pop\n        /* \"#utility.yul\":4219:4312   */\n      tag_296\n        /* \"#utility.yul\":4308:4311   */\n      dup3\n        /* \"#utility.yul\":4219:4312   */\n      tag_297\n      jump\t// in\n    tag_296:\n        /* \"#utility.yul\":4337:4339   */\n      0x40\n        /* \"#utility.yul\":4332:4335   */\n      dup3\n        /* \"#utility.yul\":4328:4340   */\n      add\n        /* \"#utility.yul\":4321:4340   */\n      swap1\n      pop\n        /* \"#utility.yul\":3980:4346   */\n      swap2\n      swap1\n      pop\n      jump\t// out\n        /* \"#utility.yul\":4352:4718   */\n    tag_298:\n        /* \"#utility.yul\":4494:4497   */\n      0x00\n        /* \"#utility.yul\":4515:4582   */\n      tag_300\n        /* \"#utility.yul\":4579:4581   */\n      0x20\n        /* \"#utility.yul\":4574:4577   */\n      dup4\n        /* \"#utility.yul\":4515:4582   */\n      tag_290\n      jump\t// in\n    tag_300:\n        /* \"#utility.yul\":4508:4582   */\n      swap2\n      pop\n        /* \"#utility.yul\":4591:4684   */\n      tag_301\n        /* \"#utility.yul\":4680:4683   */\n      dup3\n        /* \"#utility.yul\":4591:4684   */\n      tag_302\n      jump\t// in\n    tag_301:\n        /* \"#utility.yul\":4709:4711   */\n      0x20\n        /* \"#utility.yul\":4704:4707   */\n      dup3\n        /* \"#utility.yul\":4700:4712   */\n      add\n        /* \"#utility.yul\":4693:4712   */\n      swap1\n      pop\n        /* \"#utility.yul\":4352:4718   */\n      swap2\n      swap1\n      pop\n      jump\t// out\n        /* \"#utility.yul\":4724:5090   */\n    tag_303:\n        /* \"#utility.yul\":4866:4869   */\n      0x00\n        /* \"#utility.yul\":4887:4954   */\n      tag_305\n        /* \"#utility.yul\":4951:4953   */\n      0x1f\n        /* \"#utility.yul\":4946:4949   */\n      dup4\n        /* \"#utility.yul\":4887:4954   */\n      tag_290\n      jump\t// in\n    tag_305:\n        /* \"#utility.yul\":4880:4954   */\n      swap2\n      pop\n        /* \"#utility.yul\":4963:5056   */\n      tag_306\n        /* \"#utility.yul\":5052:5055   */\n      dup3\n        /* \"#utility.yul\":4963:5056   */\n      tag_307\n      jump\t// in\n    tag_306:\n        /* \"#utility.yul\":5081:5083   */\n      0x20\n        /* \"#utility.yul\":5076:5079   */\n      dup3\n        /* \"#utility.yul\":5072:5084   */\n      add\n        /* \"#utility.yul\":5065:5084   */\n      swap1\n      pop\n        /* \"#utility.yul\":4724:5090   */\n      swap2\n      swap1\n      pop\n      jump\t// out\n        /* \"#utility.yul\":5096:5462   */\n    tag_308:\n        /* \"#utility.yul\":5238:5241   */\n      0x00\n        /* \"#utility.yul\":5259:5326   */\n      tag_310\n        /* \"#utility.yul\":5323:5325   */\n      0x1c\n        /* \"#utility.yul\":5318:5321   */\n      dup4\n        /* \"#utility.yul\":5259:5326   */\n      tag_290\n      jump\t// in\n    tag_310:\n        /* \"#utility.yul\":5252:5326   */\n      swap2\n      pop\n        /* \"#utility.yul\":5335:5428   */\n      tag_311\n        /* \"#utility.yul\":5424:5427   */\n      dup3\n        /* \"#utility.yul\":5335:5428   */\n      tag_312\n      jump\t// in\n    tag_311:\n        /* \"#utility.yul\":5453:5455   */\n      0x20\n        /* \"#utility.yul\":5448:5451   */\n      dup3\n        /* \"#utility.yul\":5444:5456   */\n      add\n        /* \"#utility.yul\":5437:5456   */\n      swap1\n      pop\n        /* \"#utility.yul\":5096:5462   */\n      swap2\n      swap1\n      pop\n      jump\t// out\n        /* \"#utility.yul\":5538:6956   */\n    tag_253:\n        /* \"#utility.yul\":5665:5669   */\n      0xe0\n        /* \"#utility.yul\":5660:5663   */\n      dup3\n        /* \"#utility.yul\":5656:5670   */\n      add\n        /* \"#utility.yul\":5759:5763   */\n      0x00\n        /* \"#utility.yul\":5752:5757   */\n      dup3\n        /* \"#utility.yul\":5748:5764   */\n      add\n        /* \"#utility.yul\":5742:5765   */\n      mload\n        /* \"#utility.yul\":5778:5841   */\n      tag_314\n        /* \"#utility.yul\":5835:5839   */\n      0x00\n        /* \"#utility.yul\":5830:5833   */\n      dup6\n        /* \"#utility.yul\":5826:5840   */\n      add\n        /* \"#utility.yul\":5812:5824   */\n      dup3\n        /* \"#utility.yul\":5778:5841   */\n      tag_262\n      jump\t// in\n    tag_314:\n        /* \"#utility.yul\":5680:5851   */\n      pop\n        /* \"#utility.yul\":5936:5940   */\n      0x20\n        /* \"#utility.yul\":5929:5934   */\n      dup3\n        /* \"#utility.yul\":5925:5941   */\n      add\n        /* \"#utility.yul\":5919:5942   */\n      mload\n        /* \"#utility.yul\":5955:6018   */\n      tag_315\n        /* \"#utility.yul\":6012:6016   */\n      0x20\n        /* \"#utility.yul\":6007:6010   */\n      dup6\n        /* \"#utility.yul\":6003:6017   */\n      add\n        /* \"#utility.yul\":5989:6001   */\n      dup3\n        /* \"#utility.yul\":5955:6018   */\n      tag_316\n      jump\t// in\n    tag_315:\n        /* \"#utility.yul\":5861:6028   */\n      pop\n        /* \"#utility.yul\":6111:6115   */\n      0x40\n        /* \"#utility.yul\":6104:6109   */\n      dup3\n        /* \"#utility.yul\":6100:6116   */\n      add\n        /* \"#utility.yul\":6094:6117   */\n      mload\n        /* \"#utility.yul\":6130:6193   */\n      tag_317\n        /* \"#utility.yul\":6187:6191   */\n      0x40\n        /* \"#utility.yul\":6182:6185   */\n      dup6\n        /* \"#utility.yul\":6178:6192   */\n      add\n        /* \"#utility.yul\":6164:6176   */\n      dup3\n        /* \"#utility.yul\":6130:6193   */\n      tag_316\n      jump\t// in\n    tag_317:\n        /* \"#utility.yul\":6038:6203   */\n      pop\n        /* \"#utility.yul\":6287:6291   */\n      0x60\n        /* \"#utility.yul\":6280:6285   */\n      dup3\n        /* \"#utility.yul\":6276:6292   */\n      add\n        /* \"#utility.yul\":6270:6293   */\n      mload\n        /* \"#utility.yul\":6306:6385   */\n      tag_318\n        /* \"#utility.yul\":6379:6383   */\n      0x60\n        /* \"#utility.yul\":6374:6377   */\n      dup6\n        /* \"#utility.yul\":6370:6384   */\n      add\n        /* \"#utility.yul\":6356:6368   */\n      dup3\n        /* \"#utility.yul\":6306:6385   */\n      tag_258\n      jump\t// in\n    tag_318:\n        /* \"#utility.yul\":6213:6395   */\n      pop\n        /* \"#utility.yul\":6478:6482   */\n      0x80\n        /* \"#utility.yul\":6471:6476   */\n      dup3\n        /* \"#utility.yul\":6467:6483   */\n      add\n        /* \"#utility.yul\":6461:6484   */\n      mload\n        /* \"#utility.yul\":6497:6576   */\n      tag_319\n        /* \"#utility.yul\":6570:6574   */\n      0x80\n        /* \"#utility.yul\":6565:6568   */\n      dup6\n        /* \"#utility.yul\":6561:6575   */\n      add\n        /* \"#utility.yul\":6547:6559   */\n      dup3\n        /* \"#utility.yul\":6497:6576   */\n      tag_258\n      jump\t// in\n    tag_319:\n        /* \"#utility.yul\":6405:6586   */\n      pop\n        /* \"#utility.yul\":6671:6675   */\n      0xa0\n        /* \"#utility.yul\":6664:6669   */\n      dup3\n        /* \"#utility.yul\":6660:6676   */\n      add\n        /* \"#utility.yul\":6654:6677   */\n      mload\n        /* \"#utility.yul\":6690:6769   */\n      tag_320\n        /* \"#utility.yul\":6763:6767   */\n      0xa0\n        /* \"#utility.yul\":6758:6761   */\n      dup6\n        /* \"#utility.yul\":6754:6768   */\n      add\n        /* \"#utility.yul\":6740:6752   */\n      dup3\n        /* \"#utility.yul\":6690:6769   */\n      tag_258\n      jump\t// in\n    tag_320:\n        /* \"#utility.yul\":6596:6779   */\n      pop\n        /* \"#utility.yul\":6863:6867   */\n      0xc0\n        /* \"#utility.yul\":6856:6861   */\n      dup3\n        /* \"#utility.yul\":6852:6868   */\n      add\n        /* \"#utility.yul\":6846:6869   */\n      mload\n        /* \"#utility.yul\":6882:6939   */\n      tag_321\n        /* \"#utility.yul\":6933:6937   */\n      0xc0\n        /* \"#utility.yul\":6928:6931   */\n      dup6\n        /* \"#utility.yul\":6924:6938   */\n      add\n        /* \"#utility.yul\":6910:6922   */\n      dup3\n        /* \"#utility.yul\":6882:6939   */\n      tag_283\n      jump\t// in\n    tag_321:\n        /* \"#utility.yul\":6789:6949   */\n      pop\n        /* \"#utility.yul\":5634:6956   */\n      pop\n        /* \"#utility.yul\":5538:6956   */\n      pop\n      pop\n      jump\t// out\n        /* \"#utility.yul\":6962:7070   */\n    tag_316:\n        /* \"#utility.yul\":7039:7063   */\n      tag_323\n        /* \"#utility.yul\":7057:7062   */\n      dup2\n        /* \"#utility.yul\":7039:7063   */\n      tag_324\n      jump\t// in\n    tag_323:\n        /* \"#utility.yul\":7034:7037   */\n      dup3\n        /* \"#utility.yul\":7027:7064   */\n      mstore\n        /* \"#utility.yul\":6962:7070   */\n      pop\n      pop\n      jump\t// out\n        /* \"#utility.yul\":7076:7194   */\n    tag_325:\n        /* \"#utility.yul\":7163:7187   */\n      tag_327\n        /* \"#utility.yul\":7181:7186   */\n      dup2\n        /* \"#utility.yul\":7163:7187   */\n      tag_324\n      jump\t// in\n    tag_327:\n        /* \"#utility.yul\":7158:7161   */\n      dup3\n        /* \"#utility.yul\":7151:7188   */\n      mstore\n        /* \"#utility.yul\":7076:7194   */\n      pop\n      pop\n      jump\t// out\n        /* \"#utility.yul\":7200:7658   */\n    tag_114:\n        /* \"#utility.yul\":7357:7361   */\n      0x00\n        /* \"#utility.yul\":7395:7397   */\n      0x60\n        /* \"#utility.yul\":7384:7393   */\n      dup3\n        /* \"#utility.yul\":7380:7398   */\n      add\n        /* \"#utility.yul\":7372:7398   */\n      swap1\n      pop\n        /* \"#utility.yul\":7408:7479   */\n      tag_329\n        /* \"#utility.yul\":7476:7477   */\n      0x00\n        /* \"#utility.yul\":7465:7474   */\n      dup4\n        /* \"#utility.yul\":7461:7478   */\n      add\n        /* \"#utility.yul\":7452:7458   */\n      dup7\n        /* \"#utility.yul\":7408:7479   */\n      tag_266\n      jump\t// in\n    tag_329:\n        /* \"#utility.yul\":7489:7569   */\n      tag_330\n        /* \"#utility.yul\":7565:7567   */\n      0x20\n        /* \"#utility.yul\":7554:7563   */\n      dup4\n        /* \"#utility.yul\":7550:7568   */\n      add\n        /* \"#utility.yul\":7541:7547   */\n      dup6\n        /* \"#utility.yul\":7489:7569   */\n      tag_254\n      jump\t// in\n    tag_330:\n        /* \"#utility.yul\":7579:7651   */\n      tag_331\n        /* \"#utility.yul\":7647:7649   */\n      0x40\n        /* \"#utility.yul\":7636:7645   */\n      dup4\n        /* \"#utility.yul\":7632:7650   */\n      add\n        /* \"#utility.yul\":7623:7629   */\n      dup5\n        /* \"#utility.yul\":7579:7651   */\n      tag_325\n      jump\t// in\n    tag_331:\n        /* \"#utility.yul\":7200:7658   */\n      swap5\n      swap4\n      pop\n      pop\n      pop\n      pop\n      jump\t// out\n        /* \"#utility.yul\":7664:8106   */\n    tag_68:\n        /* \"#utility.yul\":7813:7817   */\n      0x00\n        /* \"#utility.yul\":7851:7853   */\n      0x60\n        /* \"#utility.yul\":7840:7849   */\n      dup3\n        /* \"#utility.yul\":7836:7854   */\n      add\n        /* \"#utility.yul\":7828:7854   */\n      swap1\n      pop\n        /* \"#utility.yul\":7864:7935   */\n      tag_333\n        /* \"#utility.yul\":7932:7933   */\n      0x00\n        /* \"#utility.yul\":7921:7930   */\n      dup4\n        /* \"#utility.yul\":7917:7934   */\n      add\n        /* \"#utility.yul\":7908:7914   */\n      dup7\n        /* \"#utility.yul\":7864:7935   */\n      tag_266\n      jump\t// in\n    tag_333:\n        /* \"#utility.yul\":7945:8017   */\n      tag_334\n        /* \"#utility.yul\":8013:8015   */\n      0x20\n        /* \"#utility.yul\":8002:8011   */\n      dup4\n        /* \"#utility.yul\":7998:8016   */\n      add\n        /* \"#utility.yul\":7989:7995   */\n      dup6\n        /* \"#utility.yul\":7945:8017   */\n      tag_266\n      jump\t// in\n    tag_334:\n        /* \"#utility.yul\":8027:8099   */\n      tag_335\n        /* \"#utility.yul\":8095:8097   */\n      0x40\n        /* \"#utility.yul\":8084:8093   */\n      dup4\n        /* \"#utility.yul\":8080:8098   */\n      add\n        /* \"#utility.yul\":8071:8077   */\n      dup5\n        /* \"#utility.yul\":8027:8099   */\n      tag_325\n      jump\t// in\n    tag_335:\n        /* \"#utility.yul\":7664:8106   */\n      swap5\n      swap4\n      pop\n      pop\n      pop\n      pop\n      jump\t// out\n        /* \"#utility.yul\":8112:8554   */\n    tag_75:\n        /* \"#utility.yul\":8261:8265   */\n      0x00\n        /* \"#utility.yul\":8299:8301   */\n      0x60\n        /* \"#utility.yul\":8288:8297   */\n      dup3\n        /* \"#utility.yul\":8284:8302   */\n      add\n        /* \"#utility.yul\":8276:8302   */\n      swap1\n      pop\n        /* \"#utility.yul\":8312:8383   */\n      tag_337\n        /* \"#utility.yul\":8380:8381   */\n      0x00\n        /* \"#utility.yul\":8369:8378   */\n      dup4\n        /* \"#utility.yul\":8365:8382   */\n      add\n        /* \"#utility.yul\":8356:8362   */\n      dup7\n        /* \"#utility.yul\":8312:8383   */\n      tag_266\n      jump\t// in\n    tag_337:\n        /* \"#utility.yul\":8393:8465   */\n      tag_338\n        /* \"#utility.yul\":8461:8463   */\n      0x20\n        /* \"#utility.yul\":8450:8459   */\n      dup4\n        /* \"#utility.yul\":8446:8464   */\n      add\n        /* \"#utility.yul\":8437:8443   */\n      dup6\n        /* \"#utility.yul\":8393:8465   */\n      tag_325\n      jump\t// in\n    tag_338:\n        /* \"#utility.yul\":8475:8547   */\n      tag_339\n        /* \"#utility.yul\":8543:8545   */\n      0x40\n        /* \"#utility.yul\":8532:8541   */\n      dup4\n        /* \"#utility.yul\":8528:8546   */\n      add\n        /* \"#utility.yul\":8519:8525   */\n      dup5\n        /* \"#utility.yul\":8475:8547   */\n      tag_325\n      jump\t// in\n    tag_339:\n        /* \"#utility.yul\":8112:8554   */\n      swap5\n      swap4\n      pop\n      pop\n      pop\n      pop\n      jump\t// out\n        /* \"#utility.yul\":8560:9013   */\n    tag_21:\n        /* \"#utility.yul\":8743:8747   */\n      0x00\n        /* \"#utility.yul\":8781:8783   */\n      0x20\n        /* \"#utility.yul\":8770:8779   */\n      dup3\n        /* \"#utility.yul\":8766:8784   */\n      add\n        /* \"#utility.yul\":8758:8784   */\n      swap1\n      pop\n        /* \"#utility.yul\":8830:8839   */\n      dup2\n        /* \"#utility.yul\":8824:8828   */\n      dup2\n        /* \"#utility.yul\":8820:8840   */\n      sub\n        /* \"#utility.yul\":8816:8817   */\n      0x00\n        /* \"#utility.yul\":8805:8814   */\n      dup4\n        /* \"#utility.yul\":8801:8818   */\n      add\n        /* \"#utility.yul\":8794:8841   */\n      mstore\n        /* \"#utility.yul\":8858:9006   */\n      tag_341\n        /* \"#utility.yul\":9001:9005   */\n      dup2\n        /* \"#utility.yul\":8992:8998   */\n      dup5\n        /* \"#utility.yul\":8858:9006   */\n      tag_269\n      jump\t// in\n    tag_341:\n        /* \"#utility.yul\":8850:9006   */\n      swap1\n      pop\n        /* \"#utility.yul\":8560:9013   */\n      swap3\n      swap2\n      pop\n      pop\n      jump\t// out\n        /* \"#utility.yul\":9019:9438   */\n    tag_222:\n        /* \"#utility.yul\":9185:9189   */\n      0x00\n        /* \"#utility.yul\":9223:9225   */\n      0x20\n        /* \"#utility.yul\":9212:9221   */\n      dup3\n        /* \"#utility.yul\":9208:9226   */\n      add\n        /* \"#utility.yul\":9200:9226   */\n      swap1\n      pop\n        /* \"#utility.yul\":9272:9281   */\n      dup2\n        /* \"#utility.yul\":9266:9270   */\n      dup2\n        /* \"#utility.yul\":9262:9282   */\n      sub\n        /* \"#utility.yul\":9258:9259   */\n      0x00\n        /* \"#utility.yul\":9247:9256   */\n      dup4\n        /* \"#utility.yul\":9243:9260   */\n      add\n        /* \"#utility.yul\":9236:9283   */\n      mstore\n        /* \"#utility.yul\":9300:9431   */\n      tag_343\n        /* \"#utility.yul\":9426:9430   */\n      dup2\n        /* \"#utility.yul\":9300:9431   */\n      tag_287\n      jump\t// in\n    tag_343:\n        /* \"#utility.yul\":9292:9431   */\n      swap1\n      pop\n        /* \"#utility.yul\":9019:9438   */\n      swap2\n      swap1\n      pop\n      jump\t// out\n        /* \"#utility.yul\":9444:9863   */\n    tag_110:\n        /* \"#utility.yul\":9610:9614   */\n      0x00\n        /* \"#utility.yul\":9648:9650   */\n      0x20\n        /* \"#utility.yul\":9637:9646   */\n      dup3\n        /* \"#utility.yul\":9633:9651   */\n      add\n        /* \"#utility.yul\":9625:9651   */\n      swap1\n      pop\n        /* \"#utility.yul\":9697:9706   */\n      dup2\n        /* \"#utility.yul\":9691:9695   */\n      dup2\n        /* \"#utility.yul\":9687:9707   */\n      sub\n        /* \"#utility.yul\":9683:9684   */\n      0x00\n        /* \"#utility.yul\":9672:9681   */\n      dup4\n        /* \"#utility.yul\":9668:9685   */\n      add\n        /* \"#utility.yul\":9661:9708   */\n      mstore\n        /* \"#utility.yul\":9725:9856   */\n      tag_345\n        /* \"#utility.yul\":9851:9855   */\n      dup2\n        /* \"#utility.yul\":9725:9856   */\n      tag_293\n      jump\t// in\n    tag_345:\n        /* \"#utility.yul\":9717:9856   */\n      swap1\n      pop\n        /* \"#utility.yul\":9444:9863   */\n      swap2\n      swap1\n      pop\n      jump\t// out\n        /* \"#utility.yul\":9869:10288   */\n    tag_66:\n        /* \"#utility.yul\":10035:10039   */\n      0x00\n        /* \"#utility.yul\":10073:10075   */\n      0x20\n        /* \"#utility.yul\":10062:10071   */\n      dup3\n        /* \"#utility.yul\":10058:10076   */\n      add\n        /* \"#utility.yul\":10050:10076   */\n      swap1\n      pop\n        /* \"#utility.yul\":10122:10131   */\n      dup2\n        /* \"#utility.yul\":10116:10120   */\n      dup2\n        /* \"#utility.yul\":10112:10132   */\n      sub\n        /* \"#utility.yul\":10108:10109   */\n      0x00\n        /* \"#utility.yul\":10097:10106   */\n      dup4\n        /* \"#utility.yul\":10093:10110   */\n      add\n        /* \"#utility.yul\":10086:10133   */\n      mstore\n        /* \"#utility.yul\":10150:10281   */\n      tag_347\n        /* \"#utility.yul\":10276:10280   */\n      dup2\n        /* \"#utility.yul\":10150:10281   */\n      tag_298\n      jump\t// in\n    tag_347:\n        /* \"#utility.yul\":10142:10281   */\n      swap1\n      pop\n        /* \"#utility.yul\":9869:10288   */\n      swap2\n      swap1\n      pop\n      jump\t// out\n        /* \"#utility.yul\":10294:10713   */\n    tag_59:\n        /* \"#utility.yul\":10460:10464   */\n      0x00\n        /* \"#utility.yul\":10498:10500   */\n      0x20\n        /* \"#utility.yul\":10487:10496   */\n      dup3\n        /* \"#utility.yul\":10483:10501   */\n      add\n        /* \"#utility.yul\":10475:10501   */\n      swap1\n      pop\n        /* \"#utility.yul\":10547:10556   */\n      dup2\n        /* \"#utility.yul\":10541:10545   */\n      dup2\n        /* \"#utility.yul\":10537:10557   */\n      sub\n        /* \"#utility.yul\":10533:10534   */\n      0x00\n        /* \"#utility.yul\":10522:10531   */\n      dup4\n        /* \"#utility.yul\":10518:10535   */\n      add\n        /* \"#utility.yul\":10511:10558   */\n      mstore\n        /* \"#utility.yul\":10575:10706   */\n      tag_349\n        /* \"#utility.yul\":10701:10705   */\n      dup2\n        /* \"#utility.yul\":10575:10706   */\n      tag_303\n      jump\t// in\n    tag_349:\n        /* \"#utility.yul\":10567:10706   */\n      swap1\n      pop\n        /* \"#utility.yul\":10294:10713   */\n      swap2\n      swap1\n      pop\n      jump\t// out\n        /* \"#utility.yul\":10719:11138   */\n    tag_63:\n        /* \"#utility.yul\":10885:10889   */\n      0x00\n        /* \"#utility.yul\":10923:10925   */\n      0x20\n        /* \"#utility.yul\":10912:10921   */\n      dup3\n        /* \"#utility.yul\":10908:10926   */\n      add\n        /* \"#utility.yul\":10900:10926   */\n      swap1\n      pop\n        /* \"#utility.yul\":10972:10981   */\n      dup2\n        /* \"#utility.yul\":10966:10970   */\n      dup2\n        /* \"#utility.yul\":10962:10982   */\n      sub\n        /* \"#utility.yul\":10958:10959   */\n      0x00\n        /* \"#utility.yul\":10947:10956   */\n      dup4\n        /* \"#utility.yul\":10943:10960   */\n      add\n        /* \"#utility.yul\":10936:10983   */\n      mstore\n        /* \"#utility.yul\":11000:11131   */\n      tag_351\n        /* \"#utility.yul\":11126:11130   */\n      dup2\n        /* \"#utility.yul\":11000:11131   */\n      tag_308\n      jump\t// in\n    tag_351:\n        /* \"#utility.yul\":10992:11131   */\n      swap1\n      pop\n        /* \"#utility.yul\":10719:11138   */\n      swap2\n      swap1\n      pop\n      jump\t// out\n        /* \"#utility.yul\":11144:11366   */\n    tag_26:\n        /* \"#utility.yul\":11237:11241   */\n      0x00\n        /* \"#utility.yul\":11275:11277   */\n      0x20\n        /* \"#utility.yul\":11264:11273   */\n      dup3\n        /* \"#utility.yul\":11260:11278   */\n      add\n        /* \"#utility.yul\":11252:11278   */\n      swap1\n      pop\n        /* \"#utility.yul\":11288:11359   */\n      tag_353\n        /* \"#utility.yul\":11356:11357   */\n      0x00\n        /* \"#utility.yul\":11345:11354   */\n      dup4\n        /* \"#utility.yul\":11341:11358   */\n      add\n        /* \"#utility.yul\":11332:11338   */\n      dup5\n        /* \"#utility.yul\":11288:11359   */\n      tag_325\n      jump\t// in\n    tag_353:\n        /* \"#utility.yul\":11144:11366   */\n      swap3\n      swap2\n      pop\n      pop\n      jump\t// out\n        /* \"#utility.yul\":11453:11605   */\n    tag_276:\n        /* \"#utility.yul\":11540:11544   */\n      0x00\n        /* \"#utility.yul\":11563:11566   */\n      dup2\n        /* \"#utility.yul\":11555:11566   */\n      swap1\n      pop\n        /* \"#utility.yul\":11593:11597   */\n      0x20\n        /* \"#utility.yul\":11588:11591   */\n      dup3\n        /* \"#utility.yul\":11584:11598   */\n      add\n        /* \"#utility.yul\":11576:11598   */\n      swap1\n      pop\n        /* \"#utility.yul\":11453:11605   */\n      swap2\n      swap1\n      pop\n      jump\t// out\n        /* \"#utility.yul\":11611:11745   */\n    tag_272:\n        /* \"#utility.yul\":11698:11704   */\n      0x00\n        /* \"#utility.yul\":11732:11737   */\n      dup2\n        /* \"#utility.yul\":11726:11738   */\n      mload\n        /* \"#utility.yul\":11716:11738   */\n      swap1\n      pop\n        /* \"#utility.yul\":11611:11745   */\n      swap2\n      swap1\n      pop\n      jump\t// out\n        /* \"#utility.yul\":11751:11884   */\n    tag_282:\n        /* \"#utility.yul\":11841:11845   */\n      0x00\n        /* \"#utility.yul\":11873:11877   */\n      0x20\n        /* \"#utility.yul\":11868:11871   */\n      dup3\n        /* \"#utility.yul\":11864:11878   */\n      add\n        /* \"#utility.yul\":11856:11878   */\n      swap1\n      pop\n        /* \"#utility.yul\":11751:11884   */\n      swap2\n      swap1\n      pop\n      jump\t// out\n        /* \"#utility.yul\":11890:12094   */\n    tag_274:\n        /* \"#utility.yul\":12009:12020   */\n      0x00\n        /* \"#utility.yul\":12043:12049   */\n      dup3\n        /* \"#utility.yul\":12038:12041   */\n      dup3\n        /* \"#utility.yul\":12031:12050   */\n      mstore\n        /* \"#utility.yul\":12083:12087   */\n      0x20\n        /* \"#utility.yul\":12078:12081   */\n      dup3\n        /* \"#utility.yul\":12074:12088   */\n      add\n        /* \"#utility.yul\":12059:12088   */\n      swap1\n      pop\n        /* \"#utility.yul\":11890:12094   */\n      swap3\n      swap2\n      pop\n      pop\n      jump\t// out\n        /* \"#utility.yul\":12100:12269   */\n    tag_290:\n        /* \"#utility.yul\":12184:12195   */\n      0x00\n        /* \"#utility.yul\":12218:12224   */\n      dup3\n        /* \"#utility.yul\":12213:12216   */\n      dup3\n        /* \"#utility.yul\":12206:12225   */\n      mstore\n        /* \"#utility.yul\":12258:12262   */\n      0x20\n        /* \"#utility.yul\":12253:12256   */\n      dup3\n        /* \"#utility.yul\":12249:12263   */\n      add\n        /* \"#utility.yul\":12234:12263   */\n      swap1\n      pop\n        /* \"#utility.yul\":12100:12269   */\n      swap3\n      swap2\n      pop\n      pop\n      jump\t// out\n        /* \"#utility.yul\":12275:12466   */\n    tag_146:\n        /* \"#utility.yul\":12315:12319   */\n      0x00\n        /* \"#utility.yul\":12335:12355   */\n      tag_362\n        /* \"#utility.yul\":12353:12354   */\n      dup3\n        /* \"#utility.yul\":12335:12355   */\n      tag_324\n      jump\t// in\n    tag_362:\n        /* \"#utility.yul\":12330:12355   */\n      swap2\n      pop\n        /* \"#utility.yul\":12369:12389   */\n      tag_363\n        /* \"#utility.yul\":12387:12388   */\n      dup4\n        /* \"#utility.yul\":12369:12389   */\n      tag_324\n      jump\t// in\n    tag_363:\n        /* \"#utility.yul\":12364:12389   */\n      swap3\n      pop\n        /* \"#utility.yul\":12408:12409   */\n      dup3\n        /* \"#utility.yul\":12405:12406   */\n      dup3\n        /* \"#utility.yul\":12402:12410   */\n      lt\n        /* \"#utility.yul\":12399:12433   */\n      iszero\n      tag_364\n      jumpi\n        /* \"#utility.yul\":12413:12431   */\n      tag_365\n      tag_366\n      jump\t// in\n    tag_365:\n        /* \"#utility.yul\":12399:12433   */\n    tag_364:\n        /* \"#utility.yul\":12458:12459   */\n      dup3\n        /* \"#utility.yul\":12455:12456   */\n      dup3\n        /* \"#utility.yul\":12451:12460   */\n      sub\n        /* \"#utility.yul\":12443:12460   */\n      swap1\n      pop\n        /* \"#utility.yul\":12275:12466   */\n      swap3\n      swap2\n      pop\n      pop\n      jump\t// out\n        /* \"#utility.yul\":12472:12568   */\n    tag_265:\n        /* \"#utility.yul\":12509:12516   */\n      0x00\n        /* \"#utility.yul\":12538:12562   */\n      tag_368\n        /* \"#utility.yul\":12556:12561   */\n      dup3\n        /* \"#utility.yul\":12538:12562   */\n      tag_369\n      jump\t// in\n    tag_368:\n        /* \"#utility.yul\":12527:12562   */\n      swap1\n      pop\n        /* \"#utility.yul\":12472:12568   */\n      swap2\n      swap1\n      pop\n      jump\t// out\n        /* \"#utility.yul\":12574:12678   */\n    tag_261:\n        /* \"#utility.yul\":12619:12626   */\n      0x00\n        /* \"#utility.yul\":12648:12672   */\n      tag_371\n        /* \"#utility.yul\":12666:12671   */\n      dup3\n        /* \"#utility.yul\":12648:12672   */\n      tag_369\n      jump\t// in\n    tag_371:\n        /* \"#utility.yul\":12637:12672   */\n      swap1\n      pop\n        /* \"#utility.yul\":12574:12678   */\n      swap2\n      swap1\n      pop\n      jump\t// out\n        /* \"#utility.yul\":12684:12774   */\n    tag_286:\n        /* \"#utility.yul\":12718:12725   */\n      0x00\n        /* \"#utility.yul\":12761:12766   */\n      dup2\n        /* \"#utility.yul\":12754:12767   */\n      iszero\n        /* \"#utility.yul\":12747:12768   */\n      iszero\n        /* \"#utility.yul\":12736:12768   */\n      swap1\n      pop\n        /* \"#utility.yul\":12684:12774   */\n      swap2\n      swap1\n      pop\n      jump\t// out\n        /* \"#utility.yul\":12780:12906   */\n    tag_369:\n        /* \"#utility.yul\":12817:12824   */\n      0x00\n        /* \"#utility.yul\":12857:12899   */\n      0xffffffffffffffffffffffffffffffffffffffff\n        /* \"#utility.yul\":12850:12855   */\n      dup3\n        /* \"#utility.yul\":12846:12900   */\n      and\n        /* \"#utility.yul\":12835:12900   */\n      swap1\n      pop\n        /* \"#utility.yul\":12780:12906   */\n      swap2\n      swap1\n      pop\n      jump\t// out\n        /* \"#utility.yul\":12912:12989   */\n    tag_324:\n        /* \"#utility.yul\":12949:12956   */\n      0x00\n        /* \"#utility.yul\":12978:12983   */\n      dup2\n        /* \"#utility.yul\":12967:12983   */\n      swap1\n      pop\n        /* \"#utility.yul\":12912:12989   */\n      swap2\n      swap1\n      pop\n      jump\t// out\n        /* \"#utility.yul\":12995:13129   */\n    tag_257:\n        /* \"#utility.yul\":13053:13062   */\n      0x00\n        /* \"#utility.yul\":13086:13123   */\n      tag_376\n        /* \"#utility.yul\":13117:13122   */\n      dup3\n        /* \"#utility.yul\":13086:13123   */\n      tag_377\n      jump\t// in\n    tag_376:\n        /* \"#utility.yul\":13073:13123   */\n      swap1\n      pop\n        /* \"#utility.yul\":12995:13129   */\n      swap2\n      swap1\n      pop\n      jump\t// out\n        /* \"#utility.yul\":13135:13261   */\n    tag_377:\n        /* \"#utility.yul\":13185:13194   */\n      0x00\n        /* \"#utility.yul\":13218:13255   */\n      tag_379\n        /* \"#utility.yul\":13249:13254   */\n      dup3\n        /* \"#utility.yul\":13218:13255   */\n      tag_380\n      jump\t// in\n    tag_379:\n        /* \"#utility.yul\":13205:13255   */\n      swap1\n      pop\n        /* \"#utility.yul\":13135:13261   */\n      swap2\n      swap1\n      pop\n      jump\t// out\n        /* \"#utility.yul\":13267:13380   */\n    tag_380:\n        /* \"#utility.yul\":13317:13326   */\n      0x00\n        /* \"#utility.yul\":13350:13374   */\n      tag_382\n        /* \"#utility.yul\":13368:13373   */\n      dup3\n        /* \"#utility.yul\":13350:13374   */\n      tag_369\n      jump\t// in\n    tag_382:\n        /* \"#utility.yul\":13337:13374   */\n      swap1\n      pop\n        /* \"#utility.yul\":13267:13380   */\n      swap2\n      swap1\n      pop\n      jump\t// out\n        /* \"#utility.yul\":13386:13619   */\n    tag_85:\n        /* \"#utility.yul\":13425:13428   */\n      0x00\n        /* \"#utility.yul\":13448:13472   */\n      tag_384\n        /* \"#utility.yul\":13466:13471   */\n      dup3\n        /* \"#utility.yul\":13448:13472   */\n      tag_324\n      jump\t// in\n    tag_384:\n        /* \"#utility.yul\":13439:13472   */\n      swap2\n      pop\n        /* \"#utility.yul\":13494:13560   */\n      0xffffffffffffffffffffffffffffffffffffffffffffffffffffffffffffffff\n        /* \"#utility.yul\":13487:13492   */\n      dup3\n        /* \"#utility.yul\":13484:13561   */\n      eq\n        /* \"#utility.yul\":13481:13584   */\n      iszero\n      tag_385\n      jumpi\n        /* \"#utility.yul\":13564:13582   */\n      tag_386\n      tag_366\n      jump\t// in\n    tag_386:\n        /* \"#utility.yul\":13481:13584   */\n    tag_385:\n        /* \"#utility.yul\":13611:13612   */\n      0x01\n        /* \"#utility.yul\":13604:13609   */\n      dup3\n        /* \"#utility.yul\":13600:13613   */\n      add\n        /* \"#utility.yul\":13593:13613   */\n      swap1\n      pop\n        /* \"#utility.yul\":13386:13619   */\n      swap2\n      swap1\n      pop\n      jump\t// out\n        /* \"#utility.yul\":13625:13805   */\n    tag_366:\n        /* \"#utility.yul\":13673:13750   */\n      0x4e487b7100000000000000000000000000000000000000000000000000000000\n        /* \"#utility.yul\":13670:13671   */\n      0x00\n        /* \"#utility.yul\":13663:13751   */\n      mstore\n        /* \"#utility.yul\":13770:13774   */\n      0x11\n        /* \"#utility.yul\":13767:13768   */\n      0x04\n        /* \"#utility.yul\":13760:13775   */\n      mstore\n        /* \"#utility.yul\":13794:13798   */\n      0x24\n        /* \"#utility.yul\":13791:13792   */\n      0x00\n        /* \"#utility.yul\":13784:13799   */\n      revert\n        /* \"#utility.yul\":13811:13991   */\n    tag_101:\n        /* \"#utility.yul\":13859:13936   */\n      0x4e487b7100000000000000000000000000000000000000000000000000000000\n        /* \"#utility.yul\":13856:13857   */\n      0x00\n        /* \"#utility.yul\":13849:13937   */\n      mstore\n        /* \"#utility.yul\":13956:13960   */\n      0x32\n        /* \"#utility.yul\":13953:13954   */\n      0x04\n        /* \"#utility.yul\":13946:13961   */\n      mstore\n        /* \"#utility.yul\":13980:13984   */\n      0x24\n        /* \"#utility.yul\":13977:13978   */\n      0x00\n        /* \"#utility.yul\":13970:13985   */\n      revert\n        /* \"#utility.yul\":13997:14177   */\n    tag_89:\n        /* \"#utility.yul\":14045:14122   */\n      0x4e487b7100000000000000000000000000000000000000000000000000000000\n        /* \"#utility.yul\":14042:14043   */\n      0x00\n        /* \"#utility.yul\":14035:14123   */\n      mstore\n        /* \"#utility.yul\":14142:14146   */\n      0x41\n        /* \"#utility.yul\":14139:14140   */\n      0x04\n        /* \"#utility.yul\":14132:14147   */\n      mstore\n        /* \"#utility.yul\":14166:14170   */\n      0x24\n        /* \"#utility.yul\":14163:14164   */\n      0x00\n        /* \"#utility.yul\":14156:14171   */\n      revert\n        /* \"#utility.yul\":14306:14423   */\n    tag_237:\n        /* \"#utility.yul\":14415:14416   */\n      0x00\n        /* \"#utility.yul\":14412:14413   */\n      dup1\n        /* \"#utility.yul\":14405:14417   */\n      revert\n        /* \"#utility.yul\":14429:14606   */\n    tag_292:\n        /* \"#utility.yul\":14569:14598   */\n      0x436f756e7465723a2064656372656d656e74206f766572666c6f770000000000\n        /* \"#utility.yul\":14565:14566   */\n      0x00\n        /* \"#utility.yul\":14557:14563   */\n      dup3\n        /* \"#utility.yul\":14553:14567   */\n      add\n        /* \"#utility.yul\":14546:14599   */\n      mstore\n        /* \"#utility.yul\":14429:14606   */\n      pop\n      jump\t// out\n        /* \"#utility.yul\":14612:14837   */\n    tag_297:\n        /* \"#utility.yul\":14752:14786   */\n      0x4e6f7420656e6f75676820657468657220746f20636f7665722061736b696e67\n        /* \"#utility.yul\":14748:14749   */\n      0x00\n        /* \"#utility.yul\":14740:14746   */\n      dup3\n        /* \"#utility.yul\":14736:14750   */\n      add\n        /* \"#utility.yul\":14729:14787   */\n      mstore\n        /* \"#utility.yul\":14821:14829   */\n      0x2070726963650000000000000000000000000000000000000000000000000000\n        /* \"#utility.yul\":14816:14818   */\n      0x20\n        /* \"#utility.yul\":14808:14814   */\n      dup3\n        /* \"#utility.yul\":14804:14819   */\n      add\n        /* \"#utility.yul\":14797:14830   */\n      mstore\n        /* \"#utility.yul\":14612:14837   */\n      pop\n      jump\t// out\n        /* \"#utility.yul\":14843:15025   */\n    tag_302:\n        /* \"#utility.yul\":14983:15017   */\n      0x4e6f7420656e6f75676820657468657220666f72206c697374696e6720666565\n        /* \"#utility.yul\":14979:14980   */\n      0x00\n        /* \"#utility.yul\":14971:14977   */\n      dup3\n        /* \"#utility.yul\":14967:14981   */\n      add\n        /* \"#utility.yul\":14960:15018   */\n      mstore\n        /* \"#utility.yul\":14843:15025   */\n      pop\n      jump\t// out\n        /* \"#utility.yul\":15031:15212   */\n    tag_307:\n        /* \"#utility.yul\":15171:15204   */\n      0x5265656e7472616e637947756172643a207265656e7472616e742063616c6c00\n        /* \"#utility.yul\":15167:15168   */\n      0x00\n        /* \"#utility.yul\":15159:15165   */\n      dup3\n        /* \"#utility.yul\":15155:15169   */\n      add\n        /* \"#utility.yul\":15148:15205   */\n      mstore\n        /* \"#utility.yul\":15031:15212   */\n      pop\n      jump\t// out\n        /* \"#utility.yul\":15218:15396   */\n    tag_312:\n        /* \"#utility.yul\":15358:15388   */\n      0x5072696365206d757374206265206174206c6561737420312077656900000000\n        /* \"#utility.yul\":15354:15355   */\n      0x00\n        /* \"#utility.yul\":15346:15352   */\n      dup3\n        /* \"#utility.yul\":15342:15356   */\n      add\n        /* \"#utility.yul\":15335:15389   */\n      mstore\n        /* \"#utility.yul\":15218:15396   */\n      pop\n      jump\t// out\n        /* \"#utility.yul\":15402:15524   */\n    tag_229:\n        /* \"#utility.yul\":15475:15499   */\n      tag_399\n        /* \"#utility.yul\":15493:15498   */\n      dup2\n        /* \"#utility.yul\":15475:15499   */\n      tag_265\n      jump\t// in\n    tag_399:\n        /* \"#utility.yul\":15468:15473   */\n      dup2\n        /* \"#utility.yul\":15465:15500   */\n      eq\n        /* \"#utility.yul\":15455:15518   */\n      tag_400\n      jumpi\n        /* \"#utility.yul\":15514:15515   */\n      0x00\n        /* \"#utility.yul\":15511:15512   */\n      dup1\n        /* \"#utility.yul\":15504:15516   */\n      revert\n        /* \"#utility.yul\":15455:15518   */\n    tag_400:\n        /* \"#utility.yul\":15402:15524   */\n      pop\n      jump\t// out\n        /* \"#utility.yul\":15530:15652   */\n    tag_233:\n        /* \"#utility.yul\":15603:15627   */\n      tag_402\n        /* \"#utility.yul\":15621:15626   */\n      dup2\n        /* \"#utility.yul\":15603:15627   */\n      tag_324\n      jump\t// in\n    tag_402:\n        /* \"#utility.yul\":15596:15601   */\n      dup2\n        /* \"#utility.yul\":15593:15628   */\n      eq\n        /* \"#utility.yul\":15583:15646   */\n      tag_403\n      jumpi\n        /* \"#utility.yul\":15642:15643   */\n      0x00\n        /* \"#utility.yul\":15639:15640   */\n      dup1\n        /* \"#utility.yul\":15632:15644   */\n      revert\n        /* \"#utility.yul\":15583:15646   */\n    tag_403:\n        /* \"#utility.yul\":15530:15652   */\n      pop\n      jump\t// out\n\n    auxdata: 0xa26469706673582212205ed3ff998a0443ba2217c8140f364ef5cca73348b049716556034fdbe90c966164736f6c63430008070033\n}\n",
				"bytecode": {
					"linkReferences": {},
					"object": "608060405266071afd498d000060035534801561001b57600080fd5b50600160008190555033600460006101000a81548173ffffffffffffffffffffffffffffffffffffffff021916908373ffffffffffffffffffffffffffffffffffffffff160217905550612509806100746000396000f3fe6080604052600436106100915760003560e01c80638d6cb3fb116100595780638d6cb3fb1461014f578063a46b5c5a1461017a578063ad05f1b4146101a5578063b8fe6abe146101c1578063ccef4339146101ec57610091565b806304935694146100965780631f4cc4db146100b25780632b86ae38146100dd5780634ddf4f8f146101085780638492095a14610124575b600080fd5b6100b060048036038101906100ab9190611dd8565b610229565b005b3480156100be57600080fd5b506100c76104b1565b6040516100d491906120ec565b60405180910390f35b3480156100e957600080fd5b506100f2610876565b6040516100ff91906121ae565b60405180910390f35b610122600480360381019061011d9190611d98565b61087c565b005b34801561013057600080fd5b50610139610b0c565b60405161014691906120ec565b60405180910390f35b34801561015b57600080fd5b50610164610e79565b60405161017191906120ec565b60405180910390f35b34801561018657600080fd5b5061018f611123565b60405161019c91906120ec565b60405180910390f35b6101bf60048036038101906101ba9190611dd8565b611490565b005b3480156101cd57600080fd5b506101d66118b1565b6040516101e391906121ae565b60405180910390f35b3480156101f857600080fd5b50610213600480360381019061020e9190611d6b565b6118bb565b60405161022091906120ec565b60405180910390f35b6002600054141561026f576040517f08c379a00000000000000000000000000000000000000000000000000000000081526004016102669061216e565b60405180910390fd5b6002600081905550600081116102ba576040517f08c379a00000000000000000000000000000000000000000000000000000000081526004016102b19061218e565b60405180910390fd5b60035434146102fe576040517f08c379a00000000000000000000000000000000000000000000000000000000081526004016102f59061214e565b60405180910390fd5b8273ffffffffffffffffffffffffffffffffffffffff166323b872dd3330856040518463ffffffff1660e01b815260040161033b9392919061207e565b600060405180830381600087803b15801561035557600080fd5b505af1158015610369573d6000803e3d6000fd5b505050506000600560008481526020019081526020016000209050338160030160006101000a81548173ffffffffffffffffffffffffffffffffffffffff021916908373ffffffffffffffffffffffffffffffffffffffff160217905550308160040160006101000a81548173ffffffffffffffffffffffffffffffffffffffff021916908373ffffffffffffffffffffffffffffffffffffffff16021790555060018160050160146101000a81548160ff02191690831515021790555081816002018190555061043a6001611c2a565b3073ffffffffffffffffffffffffffffffffffffffff163373ffffffffffffffffffffffffffffffffffffffff167fa0c6c0d02d86fdacecbaa5fdf5894bab204e31a778250474108540733a9b8d1986868660405161049b939291906120b5565b60405180910390a3506001600081905550505050565b606060006104bf6002611c86565b9050600080600190505b828111610588573373ffffffffffffffffffffffffffffffffffffffff166005600083815260200190815260200160002060030160009054906101000a900473ffffffffffffffffffffffffffffffffffffffff1673ffffffffffffffffffffffffffffffffffffffff1614801561056157506005600082815260200190815260200160002060050160149054906101000a900460ff165b15610575578180610571906122d7565b9250505b8080610580906122d7565b9150506104c9565b5060008167ffffffffffffffff8111156105a5576105a461237e565b5b6040519080825280602002602001820160405280156105de57816020015b6105cb611caa565b8152602001906001900390816105c35790505b509050600080600190505b84811161086b573373ffffffffffffffffffffffffffffffffffffffff166005600083815260200190815260200160002060030160009054906101000a900473ffffffffffffffffffffffffffffffffffffffff1673ffffffffffffffffffffffffffffffffffffffff1614801561068157506005600082815260200190815260200160002060050160149054906101000a900460ff165b1561085857600560008281526020019081526020016000206040518060e00160405290816000820160009054906101000a900473ffffffffffffffffffffffffffffffffffffffff1673ffffffffffffffffffffffffffffffffffffffff1673ffffffffffffffffffffffffffffffffffffffff16815260200160018201548152602001600282015481526020016003820160009054906101000a900473ffffffffffffffffffffffffffffffffffffffff1673ffffffffffffffffffffffffffffffffffffffff1673ffffffffffffffffffffffffffffffffffffffff1681526020016004820160009054906101000a900473ffffffffffffffffffffffffffffffffffffffff1673ffffffffffffffffffffffffffffffffffffffff1673ffffffffffffffffffffffffffffffffffffffff1681526020016005820160009054906101000a900473ffffffffffffffffffffffffffffffffffffffff1673ffffffffffffffffffffffffffffffffffffffff1673ffffffffffffffffffffffffffffffffffffffff1681526020016005820160149054906101000a900460ff16151515158152505083838151811061083e5761083d61234f565b5b60200260200101819052508180610854906122d7565b9250505b8080610863906122d7565b9150506105e9565b508194505050505090565b60035481565b600260005414156108c2576040517f08c379a00000000000000000000000000000000000000000000000000000000081526004016108b99061216e565b60405180910390fd5b600260008190555060006005600083815260200190815260200160002090508060020154341015610928576040517f08c379a000000000000000000000000000000000000000000000000000000000815260040161091f9061212e565b60405180910390fd5b60003390508160030160009054906101000a900473ffffffffffffffffffffffffffffffffffffffff1673ffffffffffffffffffffffffffffffffffffffff166108fc349081150290604051600060405180830381858888f19350505050158015610997573d6000803e3d6000fd5b508373ffffffffffffffffffffffffffffffffffffffff166323b872dd3083866040518463ffffffff1660e01b81526004016109d593929190612047565b600060405180830381600087803b1580156109ef57600080fd5b505af1158015610a03573d6000803e3d6000fd5b50505050808260040160006101000a81548173ffffffffffffffffffffffffffffffffffffffff021916908373ffffffffffffffffffffffffffffffffffffffff16021790555060008260050160146101000a81548160ff021916908315150217905550610a716001611c94565b8073ffffffffffffffffffffffffffffffffffffffff168260030160009054906101000a900473ffffffffffffffffffffffffffffffffffffffff1673ffffffffffffffffffffffffffffffffffffffff167f16f1dbd97e6bf646d429ed186cce832f1f7fd9907814293b83181e9970ab7bd2868634604051610af6939291906120b5565b60405180910390a3505060016000819055505050565b60606000610b1a6002611c86565b9050600080600190505b828111610bb7573373ffffffffffffffffffffffffffffffffffffffff166005600083815260200190815260200160002060050160009054906101000a900473ffffffffffffffffffffffffffffffffffffffff1673ffffffffffffffffffffffffffffffffffffffff161415610ba4578180610ba0906122d7565b9250505b8080610baf906122d7565b915050610b24565b5060008167ffffffffffffffff811115610bd457610bd361237e565b5b604051908082528060200260200182016040528015610c0d57816020015b610bfa611caa565b815260200190600190039081610bf25790505b509050600080600190505b848111610e6e573373ffffffffffffffffffffffffffffffffffffffff166005600083815260200190815260200160002060050160009054906101000a900473ffffffffffffffffffffffffffffffffffffffff1673ffffffffffffffffffffffffffffffffffffffff161415610e5b57600560008281526020019081526020016000206040518060e00160405290816000820160009054906101000a900473ffffffffffffffffffffffffffffffffffffffff1673ffffffffffffffffffffffffffffffffffffffff1673ffffffffffffffffffffffffffffffffffffffff16815260200160018201548152602001600282015481526020016003820160009054906101000a900473ffffffffffffffffffffffffffffffffffffffff1673ffffffffffffffffffffffffffffffffffffffff1673ffffffffffffffffffffffffffffffffffffffff1681526020016004820160009054906101000a900473ffffffffffffffffffffffffffffffffffffffff1673ffffffffffffffffffffffffffffffffffffffff1673ffffffffffffffffffffffffffffffffffffffff1681526020016005820160009054906101000a900473ffffffffffffffffffffffffffffffffffffffff1673ffffffffffffffffffffffffffffffffffffffff1673ffffffffffffffffffffffffffffffffffffffff1681526020016005820160149054906101000a900460ff161515151581525050838381518110610e4157610e4061234f565b5b60200260200101819052508180610e57906122d7565b9250505b8080610e66906122d7565b915050610c18565b508194505050505090565b60606000610e876002611c86565b90506000610e956001611c86565b82610ea09190612213565b905060008167ffffffffffffffff811115610ebe57610ebd61237e565b5b604051908082528060200260200182016040528015610ef757816020015b610ee4611caa565b815260200190600190039081610edc5790505b509050600080600190505b84811015611118576005600082815260200190815260200160002060050160149054906101000a900460ff161561110557600560008281526020019081526020016000206040518060e00160405290816000820160009054906101000a900473ffffffffffffffffffffffffffffffffffffffff1673ffffffffffffffffffffffffffffffffffffffff1673ffffffffffffffffffffffffffffffffffffffff16815260200160018201548152602001600282015481526020016003820160009054906101000a900473ffffffffffffffffffffffffffffffffffffffff1673ffffffffffffffffffffffffffffffffffffffff1673ffffffffffffffffffffffffffffffffffffffff1681526020016004820160009054906101000a900473ffffffffffffffffffffffffffffffffffffffff1673ffffffffffffffffffffffffffffffffffffffff1673ffffffffffffffffffffffffffffffffffffffff1681526020016005820160009054906101000a900473ffffffffffffffffffffffffffffffffffffffff1673ffffffffffffffffffffffffffffffffffffffff1673ffffffffffffffffffffffffffffffffffffffff1681526020016005820160149054906101000a900460ff1615151515815250508383815181106110eb576110ea61234f565b5b60200260200101819052508180611101906122d7565b9250505b8080611110906122d7565b915050610f02565b508194505050505090565b606060006111316002611c86565b9050600080600190505b8281116111ce573373ffffffffffffffffffffffffffffffffffffffff166005600083815260200190815260200160002060040160009054906101000a900473ffffffffffffffffffffffffffffffffffffffff1673ffffffffffffffffffffffffffffffffffffffff1614156111bb5781806111b7906122d7565b9250505b80806111c6906122d7565b91505061113b565b5060008167ffffffffffffffff8111156111eb576111ea61237e565b5b60405190808252806020026020018201604052801561122457816020015b611211611caa565b8152602001906001900390816112095790505b509050600080600190505b848111611485573373ffffffffffffffffffffffffffffffffffffffff166005600083815260200190815260200160002060040160009054906101000a900473ffffffffffffffffffffffffffffffffffffffff1673ffffffffffffffffffffffffffffffffffffffff16141561147257600560008281526020019081526020016000206040518060e00160405290816000820160009054906101000a900473ffffffffffffffffffffffffffffffffffffffff1673ffffffffffffffffffffffffffffffffffffffff1673ffffffffffffffffffffffffffffffffffffffff16815260200160018201548152602001600282015481526020016003820160009054906101000a900473ffffffffffffffffffffffffffffffffffffffff1673ffffffffffffffffffffffffffffffffffffffff1673ffffffffffffffffffffffffffffffffffffffff1681526020016004820160009054906101000a900473ffffffffffffffffffffffffffffffffffffffff1673ffffffffffffffffffffffffffffffffffffffff1673ffffffffffffffffffffffffffffffffffffffff1681526020016005820160009054906101000a900473ffffffffffffffffffffffffffffffffffffffff1673ffffffffffffffffffffffffffffffffffffffff1673ffffffffffffffffffffffffffffffffffffffff1681526020016005820160149054906101000a900460ff1615151515815250508383815181106114585761145761234f565b5b6020026020010181905250818061146e906122d7565b9250505b808061147d906122d7565b91505061122f565b508194505050505090565b600260005414156114d6576040517f08c379a00000000000000000000000000000000000000000000000000000000081526004016114cd9061216e565b60405180910390fd5b600260008190555060008111611521576040517f08c379a00000000000000000000000000000000000000000000000000000000081526004016115189061218e565b60405180910390fd5b6003543414611565576040517f08c379a000000000000000000000000000000000000000000000000000000000815260040161155c9061214e565b60405180910390fd5b8273ffffffffffffffffffffffffffffffffffffffff166323b872dd3330856040518463ffffffff1660e01b81526004016115a29392919061207e565b600060405180830381600087803b1580156115bc57600080fd5b505af11580156115d0573d6000803e3d6000fd5b505050506115de6002611c94565b6040518060e001604052808473ffffffffffffffffffffffffffffffffffffffff1681526020018381526020018281526020013373ffffffffffffffffffffffffffffffffffffffff1681526020013073ffffffffffffffffffffffffffffffffffffffff1681526020013373ffffffffffffffffffffffffffffffffffffffff168152602001600115158152506005600084815260200190815260200160002060008201518160000160006101000a81548173ffffffffffffffffffffffffffffffffffffffff021916908373ffffffffffffffffffffffffffffffffffffffff160217905550602082015181600101556040820151816002015560608201518160030160006101000a81548173ffffffffffffffffffffffffffffffffffffffff021916908373ffffffffffffffffffffffffffffffffffffffff16021790555060808201518160040160006101000a81548173ffffffffffffffffffffffffffffffffffffffff021916908373ffffffffffffffffffffffffffffffffffffffff16021790555060a08201518160050160006101000a81548173ffffffffffffffffffffffffffffffffffffffff021916908373ffffffffffffffffffffffffffffffffffffffff16021790555060c08201518160050160146101000a81548160ff021916908315150217905550905050600460009054906101000a900473ffffffffffffffffffffffffffffffffffffffff1673ffffffffffffffffffffffffffffffffffffffff166108fc349081150290604051600060405180830381858888f1935050505015801561183a573d6000803e3d6000fd5b503073ffffffffffffffffffffffffffffffffffffffff163373ffffffffffffffffffffffffffffffffffffffff167fa0c6c0d02d86fdacecbaa5fdf5894bab204e31a778250474108540733a9b8d1985858560405161189c939291906120b5565b60405180910390a36001600081905550505050565b6000600354905090565b606060006118c96002611c86565b9050600080600190505b828111611966578473ffffffffffffffffffffffffffffffffffffffff166005600083815260200190815260200160002060000160009054906101000a900473ffffffffffffffffffffffffffffffffffffffff1673ffffffffffffffffffffffffffffffffffffffff16141561195357818061194f906122d7565b9250505b808061195e906122d7565b9150506118d3565b5060008167ffffffffffffffff8111156119835761198261237e565b5b6040519080825280602002602001820160405280156119bc57816020015b6119a9611caa565b8152602001906001900390816119a15790505b509050600080600190505b848111611c1d578673ffffffffffffffffffffffffffffffffffffffff166005600083815260200190815260200160002060000160009054906101000a900473ffffffffffffffffffffffffffffffffffffffff1673ffffffffffffffffffffffffffffffffffffffff161415611c0a57600560008281526020019081526020016000206040518060e00160405290816000820160009054906101000a900473ffffffffffffffffffffffffffffffffffffffff1673ffffffffffffffffffffffffffffffffffffffff1673ffffffffffffffffffffffffffffffffffffffff16815260200160018201548152602001600282015481526020016003820160009054906101000a900473ffffffffffffffffffffffffffffffffffffffff1673ffffffffffffffffffffffffffffffffffffffff1673ffffffffffffffffffffffffffffffffffffffff1681526020016004820160009054906101000a900473ffffffffffffffffffffffffffffffffffffffff1673ffffffffffffffffffffffffffffffffffffffff1673ffffffffffffffffffffffffffffffffffffffff1681526020016005820160009054906101000a900473ffffffffffffffffffffffffffffffffffffffff1673ffffffffffffffffffffffffffffffffffffffff1673ffffffffffffffffffffffffffffffffffffffff1681526020016005820160149054906101000a900460ff161515151581525050838381518110611bf057611bef61234f565b5b60200260200101819052508180611c06906122d7565b9250505b8080611c15906122d7565b9150506119c7565b5081945050505050919050565b60008160000154905060008111611c76576040517f08c379a0000000000000000000000000000000000000000000000000000000008152600401611c6d9061210e565b60405180910390fd5b6001810382600001819055505050565b600081600001549050919050565b6001816000016000828254019250508190555050565b6040518060e00160405280600073ffffffffffffffffffffffffffffffffffffffff1681526020016000815260200160008152602001600073ffffffffffffffffffffffffffffffffffffffff168152602001600073ffffffffffffffffffffffffffffffffffffffff168152602001600073ffffffffffffffffffffffffffffffffffffffff1681526020016000151581525090565b600081359050611d50816124a5565b92915050565b600081359050611d65816124bc565b92915050565b600060208284031215611d8157611d806123ad565b5b6000611d8f84828501611d41565b91505092915050565b60008060408385031215611daf57611dae6123ad565b5b6000611dbd85828601611d41565b9250506020611dce85828601611d56565b9150509250929050565b600080600060608486031215611df157611df06123ad565b5b6000611dff86828701611d41565b9350506020611e1086828701611d56565b9250506040611e2186828701611d56565b9150509250925092565b6000611e378383611f9b565b60e08301905092915050565b611e4c816122a1565b82525050565b611e5b81612259565b82525050565b611e6a81612247565b82525050565b611e7981612247565b82525050565b6000611e8a826121d9565b611e9481856121f1565b9350611e9f836121c9565b8060005b83811015611ed0578151611eb78882611e2b565b9750611ec2836121e4565b925050600181019050611ea3565b5085935050505092915050565b611ee68161226b565b82525050565b6000611ef9601b83612202565b9150611f04826123b2565b602082019050919050565b6000611f1c602683612202565b9150611f27826123db565b604082019050919050565b6000611f3f602083612202565b9150611f4a8261242a565b602082019050919050565b6000611f62601f83612202565b9150611f6d82612453565b602082019050919050565b6000611f85601c83612202565b9150611f908261247c565b602082019050919050565b60e082016000820151611fb16000850182611e61565b506020820151611fc46020850182612029565b506040820151611fd76040850182612029565b506060820151611fea6060850182611e52565b506080820151611ffd6080850182611e52565b5060a082015161201060a0850182611e52565b5060c082015161202360c0850182611edd565b50505050565b61203281612297565b82525050565b61204181612297565b82525050565b600060608201905061205c6000830186611e70565b6120696020830185611e43565b6120766040830184612038565b949350505050565b60006060820190506120936000830186611e70565b6120a06020830185611e70565b6120ad6040830184612038565b949350505050565b60006060820190506120ca6000830186611e70565b6120d76020830185612038565b6120e46040830184612038565b949350505050565b600060208201905081810360008301526121068184611e7f565b905092915050565b6000602082019050818103600083015261212781611eec565b9050919050565b6000602082019050818103600083015261214781611f0f565b9050919050565b6000602082019050818103600083015261216781611f32565b9050919050565b6000602082019050818103600083015261218781611f55565b9050919050565b600060208201905081810360008301526121a781611f78565b9050919050565b60006020820190506121c36000830184612038565b92915050565b6000819050602082019050919050565b600081519050919050565b6000602082019050919050565b600082825260208201905092915050565b600082825260208201905092915050565b600061221e82612297565b915061222983612297565b92508282101561223c5761223b612320565b5b828203905092915050565b600061225282612277565b9050919050565b600061226482612277565b9050919050565b60008115159050919050565b600073ffffffffffffffffffffffffffffffffffffffff82169050919050565b6000819050919050565b60006122ac826122b3565b9050919050565b60006122be826122c5565b9050919050565b60006122d082612277565b9050919050565b60006122e282612297565b91507fffffffffffffffffffffffffffffffffffffffffffffffffffffffffffffffff82141561231557612314612320565b5b600182019050919050565b7f4e487b7100000000000000000000000000000000000000000000000000000000600052601160045260246000fd5b7f4e487b7100000000000000000000000000000000000000000000000000000000600052603260045260246000fd5b7f4e487b7100000000000000000000000000000000000000000000000000000000600052604160045260246000fd5b600080fd5b7f436f756e7465723a2064656372656d656e74206f766572666c6f770000000000600082015250565b7f4e6f7420656e6f75676820657468657220746f20636f7665722061736b696e6760008201527f2070726963650000000000000000000000000000000000000000000000000000602082015250565b7f4e6f7420656e6f75676820657468657220666f72206c697374696e6720666565600082015250565b7f5265656e7472616e637947756172643a207265656e7472616e742063616c6c00600082015250565b7f5072696365206d757374206265206174206c6561737420312077656900000000600082015250565b6124ae81612247565b81146124b957600080fd5b50565b6124c581612297565b81146124d057600080fd5b5056fea26469706673582212205ed3ff998a0443ba2217c8140f364ef5cca73348b049716556034fdbe90c966164736f6c63430008070033",
					"opcodes": "PUSH1 0x80 PUSH1 0x40 MSTORE PUSH7 0x71AFD498D0000 PUSH1 0x3 SSTORE CALLVALUE DUP1 ISZERO PUSH2 0x1B JUMPI PUSH1 0x0 DUP1 REVERT JUMPDEST POP PUSH1 0x1 PUSH1 0x0 DUP2 SWAP1 SSTORE POP CALLER PUSH1 0x4 PUSH1 0x0 PUSH2 0x100 EXP DUP2 SLOAD DUP2 PUSH20 0xFFFFFFFFFFFFFFFFFFFFFFFFFFFFFFFFFFFFFFFF MUL NOT AND SWAP1 DUP4 PUSH20 0xFFFFFFFFFFFFFFFFFFFFFFFFFFFFFFFFFFFFFFFF AND MUL OR SWAP1 SSTORE POP PUSH2 0x2509 DUP1 PUSH2 0x74 PUSH1 0x0 CODECOPY PUSH1 0x0 RETURN INVALID PUSH1 0x80 PUSH1 0x40 MSTORE PUSH1 0x4 CALLDATASIZE LT PUSH2 0x91 JUMPI PUSH1 0x0 CALLDATALOAD PUSH1 0xE0 SHR DUP1 PUSH4 0x8D6CB3FB GT PUSH2 0x59 JUMPI DUP1 PUSH4 0x8D6CB3FB EQ PUSH2 0x14F JUMPI DUP1 PUSH4 0xA46B5C5A EQ PUSH2 0x17A JUMPI DUP1 PUSH4 0xAD05F1B4 EQ PUSH2 0x1A5 JUMPI DUP1 PUSH4 0xB8FE6ABE EQ PUSH2 0x1C1 JUMPI DUP1 PUSH4 0xCCEF4339 EQ PUSH2 0x1EC JUMPI PUSH2 0x91 JUMP JUMPDEST DUP1 PUSH4 0x4935694 EQ PUSH2 0x96 JUMPI DUP1 PUSH4 0x1F4CC4DB EQ PUSH2 0xB2 JUMPI DUP1 PUSH4 0x2B86AE38 EQ PUSH2 0xDD JUMPI DUP1 PUSH4 0x4DDF4F8F EQ PUSH2 0x108 JUMPI DUP1 PUSH4 0x8492095A EQ PUSH2 0x124 JUMPI JUMPDEST PUSH1 0x0 DUP1 REVERT JUMPDEST PUSH2 0xB0 PUSH1 0x4 DUP1 CALLDATASIZE SUB DUP2 ADD SWAP1 PUSH2 0xAB SWAP2 SWAP1 PUSH2 0x1DD8 JUMP JUMPDEST PUSH2 0x229 JUMP JUMPDEST STOP JUMPDEST CALLVALUE DUP1 ISZERO PUSH2 0xBE JUMPI PUSH1 0x0 DUP1 REVERT JUMPDEST POP PUSH2 0xC7 PUSH2 0x4B1 JUMP JUMPDEST PUSH1 0x40 MLOAD PUSH2 0xD4 SWAP2 SWAP1 PUSH2 0x20EC JUMP JUMPDEST PUSH1 0x40 MLOAD DUP1 SWAP2 SUB SWAP1 RETURN JUMPDEST CALLVALUE DUP1 ISZERO PUSH2 0xE9 JUMPI PUSH1 0x0 DUP1 REVERT JUMPDEST POP PUSH2 0xF2 PUSH2 0x876 JUMP JUMPDEST PUSH1 0x40 MLOAD PUSH2 0xFF SWAP2 SWAP1 PUSH2 0x21AE JUMP JUMPDEST PUSH1 0x40 MLOAD DUP1 SWAP2 SUB SWAP1 RETURN JUMPDEST PUSH2 0x122 PUSH1 0x4 DUP1 CALLDATASIZE SUB DUP2 ADD SWAP1 PUSH2 0x11D SWAP2 SWAP1 PUSH2 0x1D98 JUMP JUMPDEST PUSH2 0x87C JUMP JUMPDEST STOP JUMPDEST CALLVALUE DUP1 ISZERO PUSH2 0x130 JUMPI PUSH1 0x0 DUP1 REVERT JUMPDEST POP PUSH2 0x139 PUSH2 0xB0C JUMP JUMPDEST PUSH1 0x40 MLOAD PUSH2 0x146 SWAP2 SWAP1 PUSH2 0x20EC JUMP JUMPDEST PUSH1 0x40 MLOAD DUP1 SWAP2 SUB SWAP1 RETURN JUMPDEST CALLVALUE DUP1 ISZERO PUSH2 0x15B JUMPI PUSH1 0x0 DUP1 REVERT JUMPDEST POP PUSH2 0x164 PUSH2 0xE79 JUMP JUMPDEST PUSH1 0x40 MLOAD PUSH2 0x171 SWAP2 SWAP1 PUSH2 0x20EC JUMP JUMPDEST PUSH1 0x40 MLOAD DUP1 SWAP2 SUB SWAP1 RETURN JUMPDEST CALLVALUE DUP1 ISZERO PUSH2 0x186 JUMPI PUSH1 0x0 DUP1 REVERT JUMPDEST POP PUSH2 0x18F PUSH2 0x1123 JUMP JUMPDEST PUSH1 0x40 MLOAD PUSH2 0x19C SWAP2 SWAP1 PUSH2 0x20EC JUMP JUMPDEST PUSH1 0x40 MLOAD DUP1 SWAP2 SUB SWAP1 RETURN JUMPDEST PUSH2 0x1BF PUSH1 0x4 DUP1 CALLDATASIZE SUB DUP2 ADD SWAP1 PUSH2 0x1BA SWAP2 SWAP1 PUSH2 0x1DD8 JUMP JUMPDEST PUSH2 0x1490 JUMP JUMPDEST STOP JUMPDEST CALLVALUE DUP1 ISZERO PUSH2 0x1CD JUMPI PUSH1 0x0 DUP1 REVERT JUMPDEST POP PUSH2 0x1D6 PUSH2 0x18B1 JUMP JUMPDEST PUSH1 0x40 MLOAD PUSH2 0x1E3 SWAP2 SWAP1 PUSH2 0x21AE JUMP JUMPDEST PUSH1 0x40 MLOAD DUP1 SWAP2 SUB SWAP1 RETURN JUMPDEST CALLVALUE DUP1 ISZERO PUSH2 0x1F8 JUMPI PUSH1 0x0 DUP1 REVERT JUMPDEST POP PUSH2 0x213 PUSH1 0x4 DUP1 CALLDATASIZE SUB DUP2 ADD SWAP1 PUSH2 0x20E SWAP2 SWAP1 PUSH2 0x1D6B JUMP JUMPDEST PUSH2 0x18BB JUMP JUMPDEST PUSH1 0x40 MLOAD PUSH2 0x220 SWAP2 SWAP1 PUSH2 0x20EC JUMP JUMPDEST PUSH1 0x40 MLOAD DUP1 SWAP2 SUB SWAP1 RETURN JUMPDEST PUSH1 0x2 PUSH1 0x0 SLOAD EQ ISZERO PUSH2 0x26F JUMPI PUSH1 0x40 MLOAD PUSH32 0x8C379A000000000000000000000000000000000000000000000000000000000 DUP2 MSTORE PUSH1 0x4 ADD PUSH2 0x266 SWAP1 PUSH2 0x216E JUMP JUMPDEST PUSH1 0x40 MLOAD DUP1 SWAP2 SUB SWAP1 REVERT JUMPDEST PUSH1 0x2 PUSH1 0x0 DUP2 SWAP1 SSTORE POP PUSH1 0x0 DUP2 GT PUSH2 0x2BA JUMPI PUSH1 0x40 MLOAD PUSH32 0x8C379A000000000000000000000000000000000000000000000000000000000 DUP2 MSTORE PUSH1 0x4 ADD PUSH2 0x2B1 SWAP1 PUSH2 0x218E JUMP JUMPDEST PUSH1 0x40 MLOAD DUP1 SWAP2 SUB SWAP1 REVERT JUMPDEST PUSH1 0x3 SLOAD CALLVALUE EQ PUSH2 0x2FE JUMPI PUSH1 0x40 MLOAD PUSH32 0x8C379A000000000000000000000000000000000000000000000000000000000 DUP2 MSTORE PUSH1 0x4 ADD PUSH2 0x2F5 SWAP1 PUSH2 0x214E JUMP JUMPDEST PUSH1 0x40 MLOAD DUP1 SWAP2 SUB SWAP1 REVERT JUMPDEST DUP3 PUSH20 0xFFFFFFFFFFFFFFFFFFFFFFFFFFFFFFFFFFFFFFFF AND PUSH4 0x23B872DD CALLER ADDRESS DUP6 PUSH1 0x40 MLOAD DUP5 PUSH4 0xFFFFFFFF AND PUSH1 0xE0 SHL DUP2 MSTORE PUSH1 0x4 ADD PUSH2 0x33B SWAP4 SWAP3 SWAP2 SWAP1 PUSH2 0x207E JUMP JUMPDEST PUSH1 0x0 PUSH1 0x40 MLOAD DUP1 DUP4 SUB DUP2 PUSH1 0x0 DUP8 DUP1 EXTCODESIZE ISZERO DUP1 ISZERO PUSH2 0x355 JUMPI PUSH1 0x0 DUP1 REVERT JUMPDEST POP GAS CALL ISZERO DUP1 ISZERO PUSH2 0x369 JUMPI RETURNDATASIZE PUSH1 0x0 DUP1 RETURNDATACOPY RETURNDATASIZE PUSH1 0x0 REVERT JUMPDEST POP POP POP POP PUSH1 0x0 PUSH1 0x5 PUSH1 0x0 DUP5 DUP2 MSTORE PUSH1 0x20 ADD SWAP1 DUP2 MSTORE PUSH1 0x20 ADD PUSH1 0x0 KECCAK256 SWAP1 POP CALLER DUP2 PUSH1 0x3 ADD PUSH1 0x0 PUSH2 0x100 EXP DUP2 SLOAD DUP2 PUSH20 0xFFFFFFFFFFFFFFFFFFFFFFFFFFFFFFFFFFFFFFFF MUL NOT AND SWAP1 DUP4 PUSH20 0xFFFFFFFFFFFFFFFFFFFFFFFFFFFFFFFFFFFFFFFF AND MUL OR SWAP1 SSTORE POP ADDRESS DUP2 PUSH1 0x4 ADD PUSH1 0x0 PUSH2 0x100 EXP DUP2 SLOAD DUP2 PUSH20 0xFFFFFFFFFFFFFFFFFFFFFFFFFFFFFFFFFFFFFFFF MUL NOT AND SWAP1 DUP4 PUSH20 0xFFFFFFFFFFFFFFFFFFFFFFFFFFFFFFFFFFFFFFFF AND MUL OR SWAP1 SSTORE POP PUSH1 0x1 DUP2 PUSH1 0x5 ADD PUSH1 0x14 PUSH2 0x100 EXP DUP2 SLOAD DUP2 PUSH1 0xFF MUL NOT AND SWAP1 DUP4 ISZERO ISZERO MUL OR SWAP1 SSTORE POP DUP2 DUP2 PUSH1 0x2 ADD DUP2 SWAP1 SSTORE POP PUSH2 0x43A PUSH1 0x1 PUSH2 0x1C2A JUMP JUMPDEST ADDRESS PUSH20 0xFFFFFFFFFFFFFFFFFFFFFFFFFFFFFFFFFFFFFFFF AND CALLER PUSH20 0xFFFFFFFFFFFFFFFFFFFFFFFFFFFFFFFFFFFFFFFF AND PUSH32 0xA0C6C0D02D86FDACECBAA5FDF5894BAB204E31A778250474108540733A9B8D19 DUP7 DUP7 DUP7 PUSH1 0x40 MLOAD PUSH2 0x49B SWAP4 SWAP3 SWAP2 SWAP1 PUSH2 0x20B5 JUMP JUMPDEST PUSH1 0x40 MLOAD DUP1 SWAP2 SUB SWAP1 LOG3 POP PUSH1 0x1 PUSH1 0x0 DUP2 SWAP1 SSTORE POP POP POP POP JUMP JUMPDEST PUSH1 0x60 PUSH1 0x0 PUSH2 0x4BF PUSH1 0x2 PUSH2 0x1C86 JUMP JUMPDEST SWAP1 POP PUSH1 0x0 DUP1 PUSH1 0x1 SWAP1 POP JUMPDEST DUP3 DUP2 GT PUSH2 0x588 JUMPI CALLER PUSH20 0xFFFFFFFFFFFFFFFFFFFFFFFFFFFFFFFFFFFFFFFF AND PUSH1 0x5 PUSH1 0x0 DUP4 DUP2 MSTORE PUSH1 0x20 ADD SWAP1 DUP2 MSTORE PUSH1 0x20 ADD PUSH1 0x0 KECCAK256 PUSH1 0x3 ADD PUSH1 0x0 SWAP1 SLOAD SWAP1 PUSH2 0x100 EXP SWAP1 DIV PUSH20 0xFFFFFFFFFFFFFFFFFFFFFFFFFFFFFFFFFFFFFFFF AND PUSH20 0xFFFFFFFFFFFFFFFFFFFFFFFFFFFFFFFFFFFFFFFF AND EQ DUP1 ISZERO PUSH2 0x561 JUMPI POP PUSH1 0x5 PUSH1 0x0 DUP3 DUP2 MSTORE PUSH1 0x20 ADD SWAP1 DUP2 MSTORE PUSH1 0x20 ADD PUSH1 0x0 KECCAK256 PUSH1 0x5 ADD PUSH1 0x14 SWAP1 SLOAD SWAP1 PUSH2 0x100 EXP SWAP1 DIV PUSH1 0xFF AND JUMPDEST ISZERO PUSH2 0x575 JUMPI DUP2 DUP1 PUSH2 0x571 SWAP1 PUSH2 0x22D7 JUMP JUMPDEST SWAP3 POP POP JUMPDEST DUP1 DUP1 PUSH2 0x580 SWAP1 PUSH2 0x22D7 JUMP JUMPDEST SWAP2 POP POP PUSH2 0x4C9 JUMP JUMPDEST POP PUSH1 0x0 DUP2 PUSH8 0xFFFFFFFFFFFFFFFF DUP2 GT ISZERO PUSH2 0x5A5 JUMPI PUSH2 0x5A4 PUSH2 0x237E JUMP JUMPDEST JUMPDEST PUSH1 0x40 MLOAD SWAP1 DUP1 DUP3 MSTORE DUP1 PUSH1 0x20 MUL PUSH1 0x20 ADD DUP3 ADD PUSH1 0x40 MSTORE DUP1 ISZERO PUSH2 0x5DE JUMPI DUP2 PUSH1 0x20 ADD JUMPDEST PUSH2 0x5CB PUSH2 0x1CAA JUMP JUMPDEST DUP2 MSTORE PUSH1 0x20 ADD SWAP1 PUSH1 0x1 SWAP1 SUB SWAP1 DUP2 PUSH2 0x5C3 JUMPI SWAP1 POP JUMPDEST POP SWAP1 POP PUSH1 0x0 DUP1 PUSH1 0x1 SWAP1 POP JUMPDEST DUP5 DUP2 GT PUSH2 0x86B JUMPI CALLER PUSH20 0xFFFFFFFFFFFFFFFFFFFFFFFFFFFFFFFFFFFFFFFF AND PUSH1 0x5 PUSH1 0x0 DUP4 DUP2 MSTORE PUSH1 0x20 ADD SWAP1 DUP2 MSTORE PUSH1 0x20 ADD PUSH1 0x0 KECCAK256 PUSH1 0x3 ADD PUSH1 0x0 SWAP1 SLOAD SWAP1 PUSH2 0x100 EXP SWAP1 DIV PUSH20 0xFFFFFFFFFFFFFFFFFFFFFFFFFFFFFFFFFFFFFFFF AND PUSH20 0xFFFFFFFFFFFFFFFFFFFFFFFFFFFFFFFFFFFFFFFF AND EQ DUP1 ISZERO PUSH2 0x681 JUMPI POP PUSH1 0x5 PUSH1 0x0 DUP3 DUP2 MSTORE PUSH1 0x20 ADD SWAP1 DUP2 MSTORE PUSH1 0x20 ADD PUSH1 0x0 KECCAK256 PUSH1 0x5 ADD PUSH1 0x14 SWAP1 SLOAD SWAP1 PUSH2 0x100 EXP SWAP1 DIV PUSH1 0xFF AND JUMPDEST ISZERO PUSH2 0x858 JUMPI PUSH1 0x5 PUSH1 0x0 DUP3 DUP2 MSTORE PUSH1 0x20 ADD SWAP1 DUP2 MSTORE PUSH1 0x20 ADD PUSH1 0x0 KECCAK256 PUSH1 0x40 MLOAD DUP1 PUSH1 0xE0 ADD PUSH1 0x40 MSTORE SWAP1 DUP2 PUSH1 0x0 DUP3 ADD PUSH1 0x0 SWAP1 SLOAD SWAP1 PUSH2 0x100 EXP SWAP1 DIV PUSH20 0xFFFFFFFFFFFFFFFFFFFFFFFFFFFFFFFFFFFFFFFF AND PUSH20 0xFFFFFFFFFFFFFFFFFFFFFFFFFFFFFFFFFFFFFFFF AND PUSH20 0xFFFFFFFFFFFFFFFFFFFFFFFFFFFFFFFFFFFFFFFF AND DUP2 MSTORE PUSH1 0x20 ADD PUSH1 0x1 DUP3 ADD SLOAD DUP2 MSTORE PUSH1 0x20 ADD PUSH1 0x2 DUP3 ADD SLOAD DUP2 MSTORE PUSH1 0x20 ADD PUSH1 0x3 DUP3 ADD PUSH1 0x0 SWAP1 SLOAD SWAP1 PUSH2 0x100 EXP SWAP1 DIV PUSH20 0xFFFFFFFFFFFFFFFFFFFFFFFFFFFFFFFFFFFFFFFF AND PUSH20 0xFFFFFFFFFFFFFFFFFFFFFFFFFFFFFFFFFFFFFFFF AND PUSH20 0xFFFFFFFFFFFFFFFFFFFFFFFFFFFFFFFFFFFFFFFF AND DUP2 MSTORE PUSH1 0x20 ADD PUSH1 0x4 DUP3 ADD PUSH1 0x0 SWAP1 SLOAD SWAP1 PUSH2 0x100 EXP SWAP1 DIV PUSH20 0xFFFFFFFFFFFFFFFFFFFFFFFFFFFFFFFFFFFFFFFF AND PUSH20 0xFFFFFFFFFFFFFFFFFFFFFFFFFFFFFFFFFFFFFFFF AND PUSH20 0xFFFFFFFFFFFFFFFFFFFFFFFFFFFFFFFFFFFFFFFF AND DUP2 MSTORE PUSH1 0x20 ADD PUSH1 0x5 DUP3 ADD PUSH1 0x0 SWAP1 SLOAD SWAP1 PUSH2 0x100 EXP SWAP1 DIV PUSH20 0xFFFFFFFFFFFFFFFFFFFFFFFFFFFFFFFFFFFFFFFF AND PUSH20 0xFFFFFFFFFFFFFFFFFFFFFFFFFFFFFFFFFFFFFFFF AND PUSH20 0xFFFFFFFFFFFFFFFFFFFFFFFFFFFFFFFFFFFFFFFF AND DUP2 MSTORE PUSH1 0x20 ADD PUSH1 0x5 DUP3 ADD PUSH1 0x14 SWAP1 SLOAD SWAP1 PUSH2 0x100 EXP SWAP1 DIV PUSH1 0xFF AND ISZERO ISZERO ISZERO ISZERO DUP2 MSTORE POP POP DUP4 DUP4 DUP2 MLOAD DUP2 LT PUSH2 0x83E JUMPI PUSH2 0x83D PUSH2 0x234F JUMP JUMPDEST JUMPDEST PUSH1 0x20 MUL PUSH1 0x20 ADD ADD DUP2 SWAP1 MSTORE POP DUP2 DUP1 PUSH2 0x854 SWAP1 PUSH2 0x22D7 JUMP JUMPDEST SWAP3 POP POP JUMPDEST DUP1 DUP1 PUSH2 0x863 SWAP1 PUSH2 0x22D7 JUMP JUMPDEST SWAP2 POP POP PUSH2 0x5E9 JUMP JUMPDEST POP DUP2 SWAP5 POP POP POP POP POP SWAP1 JUMP JUMPDEST PUSH1 0x3 SLOAD DUP2 JUMP JUMPDEST PUSH1 0x2 PUSH1 0x0 SLOAD EQ ISZERO PUSH2 0x8C2 JUMPI PUSH1 0x40 MLOAD PUSH32 0x8C379A000000000000000000000000000000000000000000000000000000000 DUP2 MSTORE PUSH1 0x4 ADD PUSH2 0x8B9 SWAP1 PUSH2 0x216E JUMP JUMPDEST PUSH1 0x40 MLOAD DUP1 SWAP2 SUB SWAP1 REVERT JUMPDEST PUSH1 0x2 PUSH1 0x0 DUP2 SWAP1 SSTORE POP PUSH1 0x0 PUSH1 0x5 PUSH1 0x0 DUP4 DUP2 MSTORE PUSH1 0x20 ADD SWAP1 DUP2 MSTORE PUSH1 0x20 ADD PUSH1 0x0 KECCAK256 SWAP1 POP DUP1 PUSH1 0x2 ADD SLOAD CALLVALUE LT ISZERO PUSH2 0x928 JUMPI PUSH1 0x40 MLOAD PUSH32 0x8C379A000000000000000000000000000000000000000000000000000000000 DUP2 MSTORE PUSH1 0x4 ADD PUSH2 0x91F SWAP1 PUSH2 0x212E JUMP JUMPDEST PUSH1 0x40 MLOAD DUP1 SWAP2 SUB SWAP1 REVERT JUMPDEST PUSH1 0x0 CALLER SWAP1 POP DUP2 PUSH1 0x3 ADD PUSH1 0x0 SWAP1 SLOAD SWAP1 PUSH2 0x100 EXP SWAP1 DIV PUSH20 0xFFFFFFFFFFFFFFFFFFFFFFFFFFFFFFFFFFFFFFFF AND PUSH20 0xFFFFFFFFFFFFFFFFFFFFFFFFFFFFFFFFFFFFFFFF AND PUSH2 0x8FC CALLVALUE SWAP1 DUP2 ISZERO MUL SWAP1 PUSH1 0x40 MLOAD PUSH1 0x0 PUSH1 0x40 MLOAD DUP1 DUP4 SUB DUP2 DUP6 DUP9 DUP9 CALL SWAP4 POP POP POP POP ISZERO DUP1 ISZERO PUSH2 0x997 JUMPI RETURNDATASIZE PUSH1 0x0 DUP1 RETURNDATACOPY RETURNDATASIZE PUSH1 0x0 REVERT JUMPDEST POP DUP4 PUSH20 0xFFFFFFFFFFFFFFFFFFFFFFFFFFFFFFFFFFFFFFFF AND PUSH4 0x23B872DD ADDRESS DUP4 DUP7 PUSH1 0x40 MLOAD DUP5 PUSH4 0xFFFFFFFF AND PUSH1 0xE0 SHL DUP2 MSTORE PUSH1 0x4 ADD PUSH2 0x9D5 SWAP4 SWAP3 SWAP2 SWAP1 PUSH2 0x2047 JUMP JUMPDEST PUSH1 0x0 PUSH1 0x40 MLOAD DUP1 DUP4 SUB DUP2 PUSH1 0x0 DUP8 DUP1 EXTCODESIZE ISZERO DUP1 ISZERO PUSH2 0x9EF JUMPI PUSH1 0x0 DUP1 REVERT JUMPDEST POP GAS CALL ISZERO DUP1 ISZERO PUSH2 0xA03 JUMPI RETURNDATASIZE PUSH1 0x0 DUP1 RETURNDATACOPY RETURNDATASIZE PUSH1 0x0 REVERT JUMPDEST POP POP POP POP DUP1 DUP3 PUSH1 0x4 ADD PUSH1 0x0 PUSH2 0x100 EXP DUP2 SLOAD DUP2 PUSH20 0xFFFFFFFFFFFFFFFFFFFFFFFFFFFFFFFFFFFFFFFF MUL NOT AND SWAP1 DUP4 PUSH20 0xFFFFFFFFFFFFFFFFFFFFFFFFFFFFFFFFFFFFFFFF AND MUL OR SWAP1 SSTORE POP PUSH1 0x0 DUP3 PUSH1 0x5 ADD PUSH1 0x14 PUSH2 0x100 EXP DUP2 SLOAD DUP2 PUSH1 0xFF MUL NOT AND SWAP1 DUP4 ISZERO ISZERO MUL OR SWAP1 SSTORE POP PUSH2 0xA71 PUSH1 0x1 PUSH2 0x1C94 JUMP JUMPDEST DUP1 PUSH20 0xFFFFFFFFFFFFFFFFFFFFFFFFFFFFFFFFFFFFFFFF AND DUP3 PUSH1 0x3 ADD PUSH1 0x0 SWAP1 SLOAD SWAP1 PUSH2 0x100 EXP SWAP1 DIV PUSH20 0xFFFFFFFFFFFFFFFFFFFFFFFFFFFFFFFFFFFFFFFF AND PUSH20 0xFFFFFFFFFFFFFFFFFFFFFFFFFFFFFFFFFFFFFFFF AND PUSH32 0x16F1DBD97E6BF646D429ED186CCE832F1F7FD9907814293B83181E9970AB7BD2 DUP7 DUP7 CALLVALUE PUSH1 0x40 MLOAD PUSH2 0xAF6 SWAP4 SWAP3 SWAP2 SWAP1 PUSH2 0x20B5 JUMP JUMPDEST PUSH1 0x40 MLOAD DUP1 SWAP2 SUB SWAP1 LOG3 POP POP PUSH1 0x1 PUSH1 0x0 DUP2 SWAP1 SSTORE POP POP POP JUMP JUMPDEST PUSH1 0x60 PUSH1 0x0 PUSH2 0xB1A PUSH1 0x2 PUSH2 0x1C86 JUMP JUMPDEST SWAP1 POP PUSH1 0x0 DUP1 PUSH1 0x1 SWAP1 POP JUMPDEST DUP3 DUP2 GT PUSH2 0xBB7 JUMPI CALLER PUSH20 0xFFFFFFFFFFFFFFFFFFFFFFFFFFFFFFFFFFFFFFFF AND PUSH1 0x5 PUSH1 0x0 DUP4 DUP2 MSTORE PUSH1 0x20 ADD SWAP1 DUP2 MSTORE PUSH1 0x20 ADD PUSH1 0x0 KECCAK256 PUSH1 0x5 ADD PUSH1 0x0 SWAP1 SLOAD SWAP1 PUSH2 0x100 EXP SWAP1 DIV PUSH20 0xFFFFFFFFFFFFFFFFFFFFFFFFFFFFFFFFFFFFFFFF AND PUSH20 0xFFFFFFFFFFFFFFFFFFFFFFFFFFFFFFFFFFFFFFFF AND EQ ISZERO PUSH2 0xBA4 JUMPI DUP2 DUP1 PUSH2 0xBA0 SWAP1 PUSH2 0x22D7 JUMP JUMPDEST SWAP3 POP POP JUMPDEST DUP1 DUP1 PUSH2 0xBAF SWAP1 PUSH2 0x22D7 JUMP JUMPDEST SWAP2 POP POP PUSH2 0xB24 JUMP JUMPDEST POP PUSH1 0x0 DUP2 PUSH8 0xFFFFFFFFFFFFFFFF DUP2 GT ISZERO PUSH2 0xBD4 JUMPI PUSH2 0xBD3 PUSH2 0x237E JUMP JUMPDEST JUMPDEST PUSH1 0x40 MLOAD SWAP1 DUP1 DUP3 MSTORE DUP1 PUSH1 0x20 MUL PUSH1 0x20 ADD DUP3 ADD PUSH1 0x40 MSTORE DUP1 ISZERO PUSH2 0xC0D JUMPI DUP2 PUSH1 0x20 ADD JUMPDEST PUSH2 0xBFA PUSH2 0x1CAA JUMP JUMPDEST DUP2 MSTORE PUSH1 0x20 ADD SWAP1 PUSH1 0x1 SWAP1 SUB SWAP1 DUP2 PUSH2 0xBF2 JUMPI SWAP1 POP JUMPDEST POP SWAP1 POP PUSH1 0x0 DUP1 PUSH1 0x1 SWAP1 POP JUMPDEST DUP5 DUP2 GT PUSH2 0xE6E JUMPI CALLER PUSH20 0xFFFFFFFFFFFFFFFFFFFFFFFFFFFFFFFFFFFFFFFF AND PUSH1 0x5 PUSH1 0x0 DUP4 DUP2 MSTORE PUSH1 0x20 ADD SWAP1 DUP2 MSTORE PUSH1 0x20 ADD PUSH1 0x0 KECCAK256 PUSH1 0x5 ADD PUSH1 0x0 SWAP1 SLOAD SWAP1 PUSH2 0x100 EXP SWAP1 DIV PUSH20 0xFFFFFFFFFFFFFFFFFFFFFFFFFFFFFFFFFFFFFFFF AND PUSH20 0xFFFFFFFFFFFFFFFFFFFFFFFFFFFFFFFFFFFFFFFF AND EQ ISZERO PUSH2 0xE5B JUMPI PUSH1 0x5 PUSH1 0x0 DUP3 DUP2 MSTORE PUSH1 0x20 ADD SWAP1 DUP2 MSTORE PUSH1 0x20 ADD PUSH1 0x0 KECCAK256 PUSH1 0x40 MLOAD DUP1 PUSH1 0xE0 ADD PUSH1 0x40 MSTORE SWAP1 DUP2 PUSH1 0x0 DUP3 ADD PUSH1 0x0 SWAP1 SLOAD SWAP1 PUSH2 0x100 EXP SWAP1 DIV PUSH20 0xFFFFFFFFFFFFFFFFFFFFFFFFFFFFFFFFFFFFFFFF AND PUSH20 0xFFFFFFFFFFFFFFFFFFFFFFFFFFFFFFFFFFFFFFFF AND PUSH20 0xFFFFFFFFFFFFFFFFFFFFFFFFFFFFFFFFFFFFFFFF AND DUP2 MSTORE PUSH1 0x20 ADD PUSH1 0x1 DUP3 ADD SLOAD DUP2 MSTORE PUSH1 0x20 ADD PUSH1 0x2 DUP3 ADD SLOAD DUP2 MSTORE PUSH1 0x20 ADD PUSH1 0x3 DUP3 ADD PUSH1 0x0 SWAP1 SLOAD SWAP1 PUSH2 0x100 EXP SWAP1 DIV PUSH20 0xFFFFFFFFFFFFFFFFFFFFFFFFFFFFFFFFFFFFFFFF AND PUSH20 0xFFFFFFFFFFFFFFFFFFFFFFFFFFFFFFFFFFFFFFFF AND PUSH20 0xFFFFFFFFFFFFFFFFFFFFFFFFFFFFFFFFFFFFFFFF AND DUP2 MSTORE PUSH1 0x20 ADD PUSH1 0x4 DUP3 ADD PUSH1 0x0 SWAP1 SLOAD SWAP1 PUSH2 0x100 EXP SWAP1 DIV PUSH20 0xFFFFFFFFFFFFFFFFFFFFFFFFFFFFFFFFFFFFFFFF AND PUSH20 0xFFFFFFFFFFFFFFFFFFFFFFFFFFFFFFFFFFFFFFFF AND PUSH20 0xFFFFFFFFFFFFFFFFFFFFFFFFFFFFFFFFFFFFFFFF AND DUP2 MSTORE PUSH1 0x20 ADD PUSH1 0x5 DUP3 ADD PUSH1 0x0 SWAP1 SLOAD SWAP1 PUSH2 0x100 EXP SWAP1 DIV PUSH20 0xFFFFFFFFFFFFFFFFFFFFFFFFFFFFFFFFFFFFFFFF AND PUSH20 0xFFFFFFFFFFFFFFFFFFFFFFFFFFFFFFFFFFFFFFFF AND PUSH20 0xFFFFFFFFFFFFFFFFFFFFFFFFFFFFFFFFFFFFFFFF AND DUP2 MSTORE PUSH1 0x20 ADD PUSH1 0x5 DUP3 ADD PUSH1 0x14 SWAP1 SLOAD SWAP1 PUSH2 0x100 EXP SWAP1 DIV PUSH1 0xFF AND ISZERO ISZERO ISZERO ISZERO DUP2 MSTORE POP POP DUP4 DUP4 DUP2 MLOAD DUP2 LT PUSH2 0xE41 JUMPI PUSH2 0xE40 PUSH2 0x234F JUMP JUMPDEST JUMPDEST PUSH1 0x20 MUL PUSH1 0x20 ADD ADD DUP2 SWAP1 MSTORE POP DUP2 DUP1 PUSH2 0xE57 SWAP1 PUSH2 0x22D7 JUMP JUMPDEST SWAP3 POP POP JUMPDEST DUP1 DUP1 PUSH2 0xE66 SWAP1 PUSH2 0x22D7 JUMP JUMPDEST SWAP2 POP POP PUSH2 0xC18 JUMP JUMPDEST POP DUP2 SWAP5 POP POP POP POP POP SWAP1 JUMP JUMPDEST PUSH1 0x60 PUSH1 0x0 PUSH2 0xE87 PUSH1 0x2 PUSH2 0x1C86 JUMP JUMPDEST SWAP1 POP PUSH1 0x0 PUSH2 0xE95 PUSH1 0x1 PUSH2 0x1C86 JUMP JUMPDEST DUP3 PUSH2 0xEA0 SWAP2 SWAP1 PUSH2 0x2213 JUMP JUMPDEST SWAP1 POP PUSH1 0x0 DUP2 PUSH8 0xFFFFFFFFFFFFFFFF DUP2 GT ISZERO PUSH2 0xEBE JUMPI PUSH2 0xEBD PUSH2 0x237E JUMP JUMPDEST JUMPDEST PUSH1 0x40 MLOAD SWAP1 DUP1 DUP3 MSTORE DUP1 PUSH1 0x20 MUL PUSH1 0x20 ADD DUP3 ADD PUSH1 0x40 MSTORE DUP1 ISZERO PUSH2 0xEF7 JUMPI DUP2 PUSH1 0x20 ADD JUMPDEST PUSH2 0xEE4 PUSH2 0x1CAA JUMP JUMPDEST DUP2 MSTORE PUSH1 0x20 ADD SWAP1 PUSH1 0x1 SWAP1 SUB SWAP1 DUP2 PUSH2 0xEDC JUMPI SWAP1 POP JUMPDEST POP SWAP1 POP PUSH1 0x0 DUP1 PUSH1 0x1 SWAP1 POP JUMPDEST DUP5 DUP2 LT ISZERO PUSH2 0x1118 JUMPI PUSH1 0x5 PUSH1 0x0 DUP3 DUP2 MSTORE PUSH1 0x20 ADD SWAP1 DUP2 MSTORE PUSH1 0x20 ADD PUSH1 0x0 KECCAK256 PUSH1 0x5 ADD PUSH1 0x14 SWAP1 SLOAD SWAP1 PUSH2 0x100 EXP SWAP1 DIV PUSH1 0xFF AND ISZERO PUSH2 0x1105 JUMPI PUSH1 0x5 PUSH1 0x0 DUP3 DUP2 MSTORE PUSH1 0x20 ADD SWAP1 DUP2 MSTORE PUSH1 0x20 ADD PUSH1 0x0 KECCAK256 PUSH1 0x40 MLOAD DUP1 PUSH1 0xE0 ADD PUSH1 0x40 MSTORE SWAP1 DUP2 PUSH1 0x0 DUP3 ADD PUSH1 0x0 SWAP1 SLOAD SWAP1 PUSH2 0x100 EXP SWAP1 DIV PUSH20 0xFFFFFFFFFFFFFFFFFFFFFFFFFFFFFFFFFFFFFFFF AND PUSH20 0xFFFFFFFFFFFFFFFFFFFFFFFFFFFFFFFFFFFFFFFF AND PUSH20 0xFFFFFFFFFFFFFFFFFFFFFFFFFFFFFFFFFFFFFFFF AND DUP2 MSTORE PUSH1 0x20 ADD PUSH1 0x1 DUP3 ADD SLOAD DUP2 MSTORE PUSH1 0x20 ADD PUSH1 0x2 DUP3 ADD SLOAD DUP2 MSTORE PUSH1 0x20 ADD PUSH1 0x3 DUP3 ADD PUSH1 0x0 SWAP1 SLOAD SWAP1 PUSH2 0x100 EXP SWAP1 DIV PUSH20 0xFFFFFFFFFFFFFFFFFFFFFFFFFFFFFFFFFFFFFFFF AND PUSH20 0xFFFFFFFFFFFFFFFFFFFFFFFFFFFFFFFFFFFFFFFF AND PUSH20 0xFFFFFFFFFFFFFFFFFFFFFFFFFFFFFFFFFFFFFFFF AND DUP2 MSTORE PUSH1 0x20 ADD PUSH1 0x4 DUP3 ADD PUSH1 0x0 SWAP1 SLOAD SWAP1 PUSH2 0x100 EXP SWAP1 DIV PUSH20 0xFFFFFFFFFFFFFFFFFFFFFFFFFFFFFFFFFFFFFFFF AND PUSH20 0xFFFFFFFFFFFFFFFFFFFFFFFFFFFFFFFFFFFFFFFF AND PUSH20 0xFFFFFFFFFFFFFFFFFFFFFFFFFFFFFFFFFFFFFFFF AND DUP2 MSTORE PUSH1 0x20 ADD PUSH1 0x5 DUP3 ADD PUSH1 0x0 SWAP1 SLOAD SWAP1 PUSH2 0x100 EXP SWAP1 DIV PUSH20 0xFFFFFFFFFFFFFFFFFFFFFFFFFFFFFFFFFFFFFFFF AND PUSH20 0xFFFFFFFFFFFFFFFFFFFFFFFFFFFFFFFFFFFFFFFF AND PUSH20 0xFFFFFFFFFFFFFFFFFFFFFFFFFFFFFFFFFFFFFFFF AND DUP2 MSTORE PUSH1 0x20 ADD PUSH1 0x5 DUP3 ADD PUSH1 0x14 SWAP1 SLOAD SWAP1 PUSH2 0x100 EXP SWAP1 DIV PUSH1 0xFF AND ISZERO ISZERO ISZERO ISZERO DUP2 MSTORE POP POP DUP4 DUP4 DUP2 MLOAD DUP2 LT PUSH2 0x10EB JUMPI PUSH2 0x10EA PUSH2 0x234F JUMP JUMPDEST JUMPDEST PUSH1 0x20 MUL PUSH1 0x20 ADD ADD DUP2 SWAP1 MSTORE POP DUP2 DUP1 PUSH2 0x1101 SWAP1 PUSH2 0x22D7 JUMP JUMPDEST SWAP3 POP POP JUMPDEST DUP1 DUP1 PUSH2 0x1110 SWAP1 PUSH2 0x22D7 JUMP JUMPDEST SWAP2 POP POP PUSH2 0xF02 JUMP JUMPDEST POP DUP2 SWAP5 POP POP POP POP POP SWAP1 JUMP JUMPDEST PUSH1 0x60 PUSH1 0x0 PUSH2 0x1131 PUSH1 0x2 PUSH2 0x1C86 JUMP JUMPDEST SWAP1 POP PUSH1 0x0 DUP1 PUSH1 0x1 SWAP1 POP JUMPDEST DUP3 DUP2 GT PUSH2 0x11CE JUMPI CALLER PUSH20 0xFFFFFFFFFFFFFFFFFFFFFFFFFFFFFFFFFFFFFFFF AND PUSH1 0x5 PUSH1 0x0 DUP4 DUP2 MSTORE PUSH1 0x20 ADD SWAP1 DUP2 MSTORE PUSH1 0x20 ADD PUSH1 0x0 KECCAK256 PUSH1 0x4 ADD PUSH1 0x0 SWAP1 SLOAD SWAP1 PUSH2 0x100 EXP SWAP1 DIV PUSH20 0xFFFFFFFFFFFFFFFFFFFFFFFFFFFFFFFFFFFFFFFF AND PUSH20 0xFFFFFFFFFFFFFFFFFFFFFFFFFFFFFFFFFFFFFFFF AND EQ ISZERO PUSH2 0x11BB JUMPI DUP2 DUP1 PUSH2 0x11B7 SWAP1 PUSH2 0x22D7 JUMP JUMPDEST SWAP3 POP POP JUMPDEST DUP1 DUP1 PUSH2 0x11C6 SWAP1 PUSH2 0x22D7 JUMP JUMPDEST SWAP2 POP POP PUSH2 0x113B JUMP JUMPDEST POP PUSH1 0x0 DUP2 PUSH8 0xFFFFFFFFFFFFFFFF DUP2 GT ISZERO PUSH2 0x11EB JUMPI PUSH2 0x11EA PUSH2 0x237E JUMP JUMPDEST JUMPDEST PUSH1 0x40 MLOAD SWAP1 DUP1 DUP3 MSTORE DUP1 PUSH1 0x20 MUL PUSH1 0x20 ADD DUP3 ADD PUSH1 0x40 MSTORE DUP1 ISZERO PUSH2 0x1224 JUMPI DUP2 PUSH1 0x20 ADD JUMPDEST PUSH2 0x1211 PUSH2 0x1CAA JUMP JUMPDEST DUP2 MSTORE PUSH1 0x20 ADD SWAP1 PUSH1 0x1 SWAP1 SUB SWAP1 DUP2 PUSH2 0x1209 JUMPI SWAP1 POP JUMPDEST POP SWAP1 POP PUSH1 0x0 DUP1 PUSH1 0x1 SWAP1 POP JUMPDEST DUP5 DUP2 GT PUSH2 0x1485 JUMPI CALLER PUSH20 0xFFFFFFFFFFFFFFFFFFFFFFFFFFFFFFFFFFFFFFFF AND PUSH1 0x5 PUSH1 0x0 DUP4 DUP2 MSTORE PUSH1 0x20 ADD SWAP1 DUP2 MSTORE PUSH1 0x20 ADD PUSH1 0x0 KECCAK256 PUSH1 0x4 ADD PUSH1 0x0 SWAP1 SLOAD SWAP1 PUSH2 0x100 EXP SWAP1 DIV PUSH20 0xFFFFFFFFFFFFFFFFFFFFFFFFFFFFFFFFFFFFFFFF AND PUSH20 0xFFFFFFFFFFFFFFFFFFFFFFFFFFFFFFFFFFFFFFFF AND EQ ISZERO PUSH2 0x1472 JUMPI PUSH1 0x5 PUSH1 0x0 DUP3 DUP2 MSTORE PUSH1 0x20 ADD SWAP1 DUP2 MSTORE PUSH1 0x20 ADD PUSH1 0x0 KECCAK256 PUSH1 0x40 MLOAD DUP1 PUSH1 0xE0 ADD PUSH1 0x40 MSTORE SWAP1 DUP2 PUSH1 0x0 DUP3 ADD PUSH1 0x0 SWAP1 SLOAD SWAP1 PUSH2 0x100 EXP SWAP1 DIV PUSH20 0xFFFFFFFFFFFFFFFFFFFFFFFFFFFFFFFFFFFFFFFF AND PUSH20 0xFFFFFFFFFFFFFFFFFFFFFFFFFFFFFFFFFFFFFFFF AND PUSH20 0xFFFFFFFFFFFFFFFFFFFFFFFFFFFFFFFFFFFFFFFF AND DUP2 MSTORE PUSH1 0x20 ADD PUSH1 0x1 DUP3 ADD SLOAD DUP2 MSTORE PUSH1 0x20 ADD PUSH1 0x2 DUP3 ADD SLOAD DUP2 MSTORE PUSH1 0x20 ADD PUSH1 0x3 DUP3 ADD PUSH1 0x0 SWAP1 SLOAD SWAP1 PUSH2 0x100 EXP SWAP1 DIV PUSH20 0xFFFFFFFFFFFFFFFFFFFFFFFFFFFFFFFFFFFFFFFF AND PUSH20 0xFFFFFFFFFFFFFFFFFFFFFFFFFFFFFFFFFFFFFFFF AND PUSH20 0xFFFFFFFFFFFFFFFFFFFFFFFFFFFFFFFFFFFFFFFF AND DUP2 MSTORE PUSH1 0x20 ADD PUSH1 0x4 DUP3 ADD PUSH1 0x0 SWAP1 SLOAD SWAP1 PUSH2 0x100 EXP SWAP1 DIV PUSH20 0xFFFFFFFFFFFFFFFFFFFFFFFFFFFFFFFFFFFFFFFF AND PUSH20 0xFFFFFFFFFFFFFFFFFFFFFFFFFFFFFFFFFFFFFFFF AND PUSH20 0xFFFFFFFFFFFFFFFFFFFFFFFFFFFFFFFFFFFFFFFF AND DUP2 MSTORE PUSH1 0x20 ADD PUSH1 0x5 DUP3 ADD PUSH1 0x0 SWAP1 SLOAD SWAP1 PUSH2 0x100 EXP SWAP1 DIV PUSH20 0xFFFFFFFFFFFFFFFFFFFFFFFFFFFFFFFFFFFFFFFF AND PUSH20 0xFFFFFFFFFFFFFFFFFFFFFFFFFFFFFFFFFFFFFFFF AND PUSH20 0xFFFFFFFFFFFFFFFFFFFFFFFFFFFFFFFFFFFFFFFF AND DUP2 MSTORE PUSH1 0x20 ADD PUSH1 0x5 DUP3 ADD PUSH1 0x14 SWAP1 SLOAD SWAP1 PUSH2 0x100 EXP SWAP1 DIV PUSH1 0xFF AND ISZERO ISZERO ISZERO ISZERO DUP2 MSTORE POP POP DUP4 DUP4 DUP2 MLOAD DUP2 LT PUSH2 0x1458 JUMPI PUSH2 0x1457 PUSH2 0x234F JUMP JUMPDEST JUMPDEST PUSH1 0x20 MUL PUSH1 0x20 ADD ADD DUP2 SWAP1 MSTORE POP DUP2 DUP1 PUSH2 0x146E SWAP1 PUSH2 0x22D7 JUMP JUMPDEST SWAP3 POP POP JUMPDEST DUP1 DUP1 PUSH2 0x147D SWAP1 PUSH2 0x22D7 JUMP JUMPDEST SWAP2 POP POP PUSH2 0x122F JUMP JUMPDEST POP DUP2 SWAP5 POP POP POP POP POP SWAP1 JUMP JUMPDEST PUSH1 0x2 PUSH1 0x0 SLOAD EQ ISZERO PUSH2 0x14D6 JUMPI PUSH1 0x40 MLOAD PUSH32 0x8C379A000000000000000000000000000000000000000000000000000000000 DUP2 MSTORE PUSH1 0x4 ADD PUSH2 0x14CD SWAP1 PUSH2 0x216E JUMP JUMPDEST PUSH1 0x40 MLOAD DUP1 SWAP2 SUB SWAP1 REVERT JUMPDEST PUSH1 0x2 PUSH1 0x0 DUP2 SWAP1 SSTORE POP PUSH1 0x0 DUP2 GT PUSH2 0x1521 JUMPI PUSH1 0x40 MLOAD PUSH32 0x8C379A000000000000000000000000000000000000000000000000000000000 DUP2 MSTORE PUSH1 0x4 ADD PUSH2 0x1518 SWAP1 PUSH2 0x218E JUMP JUMPDEST PUSH1 0x40 MLOAD DUP1 SWAP2 SUB SWAP1 REVERT JUMPDEST PUSH1 0x3 SLOAD CALLVALUE EQ PUSH2 0x1565 JUMPI PUSH1 0x40 MLOAD PUSH32 0x8C379A000000000000000000000000000000000000000000000000000000000 DUP2 MSTORE PUSH1 0x4 ADD PUSH2 0x155C SWAP1 PUSH2 0x214E JUMP JUMPDEST PUSH1 0x40 MLOAD DUP1 SWAP2 SUB SWAP1 REVERT JUMPDEST DUP3 PUSH20 0xFFFFFFFFFFFFFFFFFFFFFFFFFFFFFFFFFFFFFFFF AND PUSH4 0x23B872DD CALLER ADDRESS DUP6 PUSH1 0x40 MLOAD DUP5 PUSH4 0xFFFFFFFF AND PUSH1 0xE0 SHL DUP2 MSTORE PUSH1 0x4 ADD PUSH2 0x15A2 SWAP4 SWAP3 SWAP2 SWAP1 PUSH2 0x207E JUMP JUMPDEST PUSH1 0x0 PUSH1 0x40 MLOAD DUP1 DUP4 SUB DUP2 PUSH1 0x0 DUP8 DUP1 EXTCODESIZE ISZERO DUP1 ISZERO PUSH2 0x15BC JUMPI PUSH1 0x0 DUP1 REVERT JUMPDEST POP GAS CALL ISZERO DUP1 ISZERO PUSH2 0x15D0 JUMPI RETURNDATASIZE PUSH1 0x0 DUP1 RETURNDATACOPY RETURNDATASIZE PUSH1 0x0 REVERT JUMPDEST POP POP POP POP PUSH2 0x15DE PUSH1 0x2 PUSH2 0x1C94 JUMP JUMPDEST PUSH1 0x40 MLOAD DUP1 PUSH1 0xE0 ADD PUSH1 0x40 MSTORE DUP1 DUP5 PUSH20 0xFFFFFFFFFFFFFFFFFFFFFFFFFFFFFFFFFFFFFFFF AND DUP2 MSTORE PUSH1 0x20 ADD DUP4 DUP2 MSTORE PUSH1 0x20 ADD DUP3 DUP2 MSTORE PUSH1 0x20 ADD CALLER PUSH20 0xFFFFFFFFFFFFFFFFFFFFFFFFFFFFFFFFFFFFFFFF AND DUP2 MSTORE PUSH1 0x20 ADD ADDRESS PUSH20 0xFFFFFFFFFFFFFFFFFFFFFFFFFFFFFFFFFFFFFFFF AND DUP2 MSTORE PUSH1 0x20 ADD CALLER PUSH20 0xFFFFFFFFFFFFFFFFFFFFFFFFFFFFFFFFFFFFFFFF AND DUP2 MSTORE PUSH1 0x20 ADD PUSH1 0x1 ISZERO ISZERO DUP2 MSTORE POP PUSH1 0x5 PUSH1 0x0 DUP5 DUP2 MSTORE PUSH1 0x20 ADD SWAP1 DUP2 MSTORE PUSH1 0x20 ADD PUSH1 0x0 KECCAK256 PUSH1 0x0 DUP3 ADD MLOAD DUP2 PUSH1 0x0 ADD PUSH1 0x0 PUSH2 0x100 EXP DUP2 SLOAD DUP2 PUSH20 0xFFFFFFFFFFFFFFFFFFFFFFFFFFFFFFFFFFFFFFFF MUL NOT AND SWAP1 DUP4 PUSH20 0xFFFFFFFFFFFFFFFFFFFFFFFFFFFFFFFFFFFFFFFF AND MUL OR SWAP1 SSTORE POP PUSH1 0x20 DUP3 ADD MLOAD DUP2 PUSH1 0x1 ADD SSTORE PUSH1 0x40 DUP3 ADD MLOAD DUP2 PUSH1 0x2 ADD SSTORE PUSH1 0x60 DUP3 ADD MLOAD DUP2 PUSH1 0x3 ADD PUSH1 0x0 PUSH2 0x100 EXP DUP2 SLOAD DUP2 PUSH20 0xFFFFFFFFFFFFFFFFFFFFFFFFFFFFFFFFFFFFFFFF MUL NOT AND SWAP1 DUP4 PUSH20 0xFFFFFFFFFFFFFFFFFFFFFFFFFFFFFFFFFFFFFFFF AND MUL OR SWAP1 SSTORE POP PUSH1 0x80 DUP3 ADD MLOAD DUP2 PUSH1 0x4 ADD PUSH1 0x0 PUSH2 0x100 EXP DUP2 SLOAD DUP2 PUSH20 0xFFFFFFFFFFFFFFFFFFFFFFFFFFFFFFFFFFFFFFFF MUL NOT AND SWAP1 DUP4 PUSH20 0xFFFFFFFFFFFFFFFFFFFFFFFFFFFFFFFFFFFFFFFF AND MUL OR SWAP1 SSTORE POP PUSH1 0xA0 DUP3 ADD MLOAD DUP2 PUSH1 0x5 ADD PUSH1 0x0 PUSH2 0x100 EXP DUP2 SLOAD DUP2 PUSH20 0xFFFFFFFFFFFFFFFFFFFFFFFFFFFFFFFFFFFFFFFF MUL NOT AND SWAP1 DUP4 PUSH20 0xFFFFFFFFFFFFFFFFFFFFFFFFFFFFFFFFFFFFFFFF AND MUL OR SWAP1 SSTORE POP PUSH1 0xC0 DUP3 ADD MLOAD DUP2 PUSH1 0x5 ADD PUSH1 0x14 PUSH2 0x100 EXP DUP2 SLOAD DUP2 PUSH1 0xFF MUL NOT AND SWAP1 DUP4 ISZERO ISZERO MUL OR SWAP1 SSTORE POP SWAP1 POP POP PUSH1 0x4 PUSH1 0x0 SWAP1 SLOAD SWAP1 PUSH2 0x100 EXP SWAP1 DIV PUSH20 0xFFFFFFFFFFFFFFFFFFFFFFFFFFFFFFFFFFFFFFFF AND PUSH20 0xFFFFFFFFFFFFFFFFFFFFFFFFFFFFFFFFFFFFFFFF AND PUSH2 0x8FC CALLVALUE SWAP1 DUP2 ISZERO MUL SWAP1 PUSH1 0x40 MLOAD PUSH1 0x0 PUSH1 0x40 MLOAD DUP1 DUP4 SUB DUP2 DUP6 DUP9 DUP9 CALL SWAP4 POP POP POP POP ISZERO DUP1 ISZERO PUSH2 0x183A JUMPI RETURNDATASIZE PUSH1 0x0 DUP1 RETURNDATACOPY RETURNDATASIZE PUSH1 0x0 REVERT JUMPDEST POP ADDRESS PUSH20 0xFFFFFFFFFFFFFFFFFFFFFFFFFFFFFFFFFFFFFFFF AND CALLER PUSH20 0xFFFFFFFFFFFFFFFFFFFFFFFFFFFFFFFFFFFFFFFF AND PUSH32 0xA0C6C0D02D86FDACECBAA5FDF5894BAB204E31A778250474108540733A9B8D19 DUP6 DUP6 DUP6 PUSH1 0x40 MLOAD PUSH2 0x189C SWAP4 SWAP3 SWAP2 SWAP1 PUSH2 0x20B5 JUMP JUMPDEST PUSH1 0x40 MLOAD DUP1 SWAP2 SUB SWAP1 LOG3 PUSH1 0x1 PUSH1 0x0 DUP2 SWAP1 SSTORE POP POP POP POP JUMP JUMPDEST PUSH1 0x0 PUSH1 0x3 SLOAD SWAP1 POP SWAP1 JUMP JUMPDEST PUSH1 0x60 PUSH1 0x0 PUSH2 0x18C9 PUSH1 0x2 PUSH2 0x1C86 JUMP JUMPDEST SWAP1 POP PUSH1 0x0 DUP1 PUSH1 0x1 SWAP1 POP JUMPDEST DUP3 DUP2 GT PUSH2 0x1966 JUMPI DUP5 PUSH20 0xFFFFFFFFFFFFFFFFFFFFFFFFFFFFFFFFFFFFFFFF AND PUSH1 0x5 PUSH1 0x0 DUP4 DUP2 MSTORE PUSH1 0x20 ADD SWAP1 DUP2 MSTORE PUSH1 0x20 ADD PUSH1 0x0 KECCAK256 PUSH1 0x0 ADD PUSH1 0x0 SWAP1 SLOAD SWAP1 PUSH2 0x100 EXP SWAP1 DIV PUSH20 0xFFFFFFFFFFFFFFFFFFFFFFFFFFFFFFFFFFFFFFFF AND PUSH20 0xFFFFFFFFFFFFFFFFFFFFFFFFFFFFFFFFFFFFFFFF AND EQ ISZERO PUSH2 0x1953 JUMPI DUP2 DUP1 PUSH2 0x194F SWAP1 PUSH2 0x22D7 JUMP JUMPDEST SWAP3 POP POP JUMPDEST DUP1 DUP1 PUSH2 0x195E SWAP1 PUSH2 0x22D7 JUMP JUMPDEST SWAP2 POP POP PUSH2 0x18D3 JUMP JUMPDEST POP PUSH1 0x0 DUP2 PUSH8 0xFFFFFFFFFFFFFFFF DUP2 GT ISZERO PUSH2 0x1983 JUMPI PUSH2 0x1982 PUSH2 0x237E JUMP JUMPDEST JUMPDEST PUSH1 0x40 MLOAD SWAP1 DUP1 DUP3 MSTORE DUP1 PUSH1 0x20 MUL PUSH1 0x20 ADD DUP3 ADD PUSH1 0x40 MSTORE DUP1 ISZERO PUSH2 0x19BC JUMPI DUP2 PUSH1 0x20 ADD JUMPDEST PUSH2 0x19A9 PUSH2 0x1CAA JUMP JUMPDEST DUP2 MSTORE PUSH1 0x20 ADD SWAP1 PUSH1 0x1 SWAP1 SUB SWAP1 DUP2 PUSH2 0x19A1 JUMPI SWAP1 POP JUMPDEST POP SWAP1 POP PUSH1 0x0 DUP1 PUSH1 0x1 SWAP1 POP JUMPDEST DUP5 DUP2 GT PUSH2 0x1C1D JUMPI DUP7 PUSH20 0xFFFFFFFFFFFFFFFFFFFFFFFFFFFFFFFFFFFFFFFF AND PUSH1 0x5 PUSH1 0x0 DUP4 DUP2 MSTORE PUSH1 0x20 ADD SWAP1 DUP2 MSTORE PUSH1 0x20 ADD PUSH1 0x0 KECCAK256 PUSH1 0x0 ADD PUSH1 0x0 SWAP1 SLOAD SWAP1 PUSH2 0x100 EXP SWAP1 DIV PUSH20 0xFFFFFFFFFFFFFFFFFFFFFFFFFFFFFFFFFFFFFFFF AND PUSH20 0xFFFFFFFFFFFFFFFFFFFFFFFFFFFFFFFFFFFFFFFF AND EQ ISZERO PUSH2 0x1C0A JUMPI PUSH1 0x5 PUSH1 0x0 DUP3 DUP2 MSTORE PUSH1 0x20 ADD SWAP1 DUP2 MSTORE PUSH1 0x20 ADD PUSH1 0x0 KECCAK256 PUSH1 0x40 MLOAD DUP1 PUSH1 0xE0 ADD PUSH1 0x40 MSTORE SWAP1 DUP2 PUSH1 0x0 DUP3 ADD PUSH1 0x0 SWAP1 SLOAD SWAP1 PUSH2 0x100 EXP SWAP1 DIV PUSH20 0xFFFFFFFFFFFFFFFFFFFFFFFFFFFFFFFFFFFFFFFF AND PUSH20 0xFFFFFFFFFFFFFFFFFFFFFFFFFFFFFFFFFFFFFFFF AND PUSH20 0xFFFFFFFFFFFFFFFFFFFFFFFFFFFFFFFFFFFFFFFF AND DUP2 MSTORE PUSH1 0x20 ADD PUSH1 0x1 DUP3 ADD SLOAD DUP2 MSTORE PUSH1 0x20 ADD PUSH1 0x2 DUP3 ADD SLOAD DUP2 MSTORE PUSH1 0x20 ADD PUSH1 0x3 DUP3 ADD PUSH1 0x0 SWAP1 SLOAD SWAP1 PUSH2 0x100 EXP SWAP1 DIV PUSH20 0xFFFFFFFFFFFFFFFFFFFFFFFFFFFFFFFFFFFFFFFF AND PUSH20 0xFFFFFFFFFFFFFFFFFFFFFFFFFFFFFFFFFFFFFFFF AND PUSH20 0xFFFFFFFFFFFFFFFFFFFFFFFFFFFFFFFFFFFFFFFF AND DUP2 MSTORE PUSH1 0x20 ADD PUSH1 0x4 DUP3 ADD PUSH1 0x0 SWAP1 SLOAD SWAP1 PUSH2 0x100 EXP SWAP1 DIV PUSH20 0xFFFFFFFFFFFFFFFFFFFFFFFFFFFFFFFFFFFFFFFF AND PUSH20 0xFFFFFFFFFFFFFFFFFFFFFFFFFFFFFFFFFFFFFFFF AND PUSH20 0xFFFFFFFFFFFFFFFFFFFFFFFFFFFFFFFFFFFFFFFF AND DUP2 MSTORE PUSH1 0x20 ADD PUSH1 0x5 DUP3 ADD PUSH1 0x0 SWAP1 SLOAD SWAP1 PUSH2 0x100 EXP SWAP1 DIV PUSH20 0xFFFFFFFFFFFFFFFFFFFFFFFFFFFFFFFFFFFFFFFF AND PUSH20 0xFFFFFFFFFFFFFFFFFFFFFFFFFFFFFFFFFFFFFFFF AND PUSH20 0xFFFFFFFFFFFFFFFFFFFFFFFFFFFFFFFFFFFFFFFF AND DUP2 MSTORE PUSH1 0x20 ADD PUSH1 0x5 DUP3 ADD PUSH1 0x14 SWAP1 SLOAD SWAP1 PUSH2 0x100 EXP SWAP1 DIV PUSH1 0xFF AND ISZERO ISZERO ISZERO ISZERO DUP2 MSTORE POP POP DUP4 DUP4 DUP2 MLOAD DUP2 LT PUSH2 0x1BF0 JUMPI PUSH2 0x1BEF PUSH2 0x234F JUMP JUMPDEST JUMPDEST PUSH1 0x20 MUL PUSH1 0x20 ADD ADD DUP2 SWAP1 MSTORE POP DUP2 DUP1 PUSH2 0x1C06 SWAP1 PUSH2 0x22D7 JUMP JUMPDEST SWAP3 POP POP JUMPDEST DUP1 DUP1 PUSH2 0x1C15 SWAP1 PUSH2 0x22D7 JUMP JUMPDEST SWAP2 POP POP PUSH2 0x19C7 JUMP JUMPDEST POP DUP2 SWAP5 POP POP POP POP POP SWAP2 SWAP1 POP JUMP JUMPDEST PUSH1 0x0 DUP2 PUSH1 0x0 ADD SLOAD SWAP1 POP PUSH1 0x0 DUP2 GT PUSH2 0x1C76 JUMPI PUSH1 0x40 MLOAD PUSH32 0x8C379A000000000000000000000000000000000000000000000000000000000 DUP2 MSTORE PUSH1 0x4 ADD PUSH2 0x1C6D SWAP1 PUSH2 0x210E JUMP JUMPDEST PUSH1 0x40 MLOAD DUP1 SWAP2 SUB SWAP1 REVERT JUMPDEST PUSH1 0x1 DUP2 SUB DUP3 PUSH1 0x0 ADD DUP2 SWAP1 SSTORE POP POP POP JUMP JUMPDEST PUSH1 0x0 DUP2 PUSH1 0x0 ADD SLOAD SWAP1 POP SWAP2 SWAP1 POP JUMP JUMPDEST PUSH1 0x1 DUP2 PUSH1 0x0 ADD PUSH1 0x0 DUP3 DUP3 SLOAD ADD SWAP3 POP POP DUP2 SWAP1 SSTORE POP POP JUMP JUMPDEST PUSH1 0x40 MLOAD DUP1 PUSH1 0xE0 ADD PUSH1 0x40 MSTORE DUP1 PUSH1 0x0 PUSH20 0xFFFFFFFFFFFFFFFFFFFFFFFFFFFFFFFFFFFFFFFF AND DUP2 MSTORE PUSH1 0x20 ADD PUSH1 0x0 DUP2 MSTORE PUSH1 0x20 ADD PUSH1 0x0 DUP2 MSTORE PUSH1 0x20 ADD PUSH1 0x0 PUSH20 0xFFFFFFFFFFFFFFFFFFFFFFFFFFFFFFFFFFFFFFFF AND DUP2 MSTORE PUSH1 0x20 ADD PUSH1 0x0 PUSH20 0xFFFFFFFFFFFFFFFFFFFFFFFFFFFFFFFFFFFFFFFF AND DUP2 MSTORE PUSH1 0x20 ADD PUSH1 0x0 PUSH20 0xFFFFFFFFFFFFFFFFFFFFFFFFFFFFFFFFFFFFFFFF AND DUP2 MSTORE PUSH1 0x20 ADD PUSH1 0x0 ISZERO ISZERO DUP2 MSTORE POP SWAP1 JUMP JUMPDEST PUSH1 0x0 DUP2 CALLDATALOAD SWAP1 POP PUSH2 0x1D50 DUP2 PUSH2 0x24A5 JUMP JUMPDEST SWAP3 SWAP2 POP POP JUMP JUMPDEST PUSH1 0x0 DUP2 CALLDATALOAD SWAP1 POP PUSH2 0x1D65 DUP2 PUSH2 0x24BC JUMP JUMPDEST SWAP3 SWAP2 POP POP JUMP JUMPDEST PUSH1 0x0 PUSH1 0x20 DUP3 DUP5 SUB SLT ISZERO PUSH2 0x1D81 JUMPI PUSH2 0x1D80 PUSH2 0x23AD JUMP JUMPDEST JUMPDEST PUSH1 0x0 PUSH2 0x1D8F DUP5 DUP3 DUP6 ADD PUSH2 0x1D41 JUMP JUMPDEST SWAP2 POP POP SWAP3 SWAP2 POP POP JUMP JUMPDEST PUSH1 0x0 DUP1 PUSH1 0x40 DUP4 DUP6 SUB SLT ISZERO PUSH2 0x1DAF JUMPI PUSH2 0x1DAE PUSH2 0x23AD JUMP JUMPDEST JUMPDEST PUSH1 0x0 PUSH2 0x1DBD DUP6 DUP3 DUP7 ADD PUSH2 0x1D41 JUMP JUMPDEST SWAP3 POP POP PUSH1 0x20 PUSH2 0x1DCE DUP6 DUP3 DUP7 ADD PUSH2 0x1D56 JUMP JUMPDEST SWAP2 POP POP SWAP3 POP SWAP3 SWAP1 POP JUMP JUMPDEST PUSH1 0x0 DUP1 PUSH1 0x0 PUSH1 0x60 DUP5 DUP7 SUB SLT ISZERO PUSH2 0x1DF1 JUMPI PUSH2 0x1DF0 PUSH2 0x23AD JUMP JUMPDEST JUMPDEST PUSH1 0x0 PUSH2 0x1DFF DUP7 DUP3 DUP8 ADD PUSH2 0x1D41 JUMP JUMPDEST SWAP4 POP POP PUSH1 0x20 PUSH2 0x1E10 DUP7 DUP3 DUP8 ADD PUSH2 0x1D56 JUMP JUMPDEST SWAP3 POP POP PUSH1 0x40 PUSH2 0x1E21 DUP7 DUP3 DUP8 ADD PUSH2 0x1D56 JUMP JUMPDEST SWAP2 POP POP SWAP3 POP SWAP3 POP SWAP3 JUMP JUMPDEST PUSH1 0x0 PUSH2 0x1E37 DUP4 DUP4 PUSH2 0x1F9B JUMP JUMPDEST PUSH1 0xE0 DUP4 ADD SWAP1 POP SWAP3 SWAP2 POP POP JUMP JUMPDEST PUSH2 0x1E4C DUP2 PUSH2 0x22A1 JUMP JUMPDEST DUP3 MSTORE POP POP JUMP JUMPDEST PUSH2 0x1E5B DUP2 PUSH2 0x2259 JUMP JUMPDEST DUP3 MSTORE POP POP JUMP JUMPDEST PUSH2 0x1E6A DUP2 PUSH2 0x2247 JUMP JUMPDEST DUP3 MSTORE POP POP JUMP JUMPDEST PUSH2 0x1E79 DUP2 PUSH2 0x2247 JUMP JUMPDEST DUP3 MSTORE POP POP JUMP JUMPDEST PUSH1 0x0 PUSH2 0x1E8A DUP3 PUSH2 0x21D9 JUMP JUMPDEST PUSH2 0x1E94 DUP2 DUP6 PUSH2 0x21F1 JUMP JUMPDEST SWAP4 POP PUSH2 0x1E9F DUP4 PUSH2 0x21C9 JUMP JUMPDEST DUP1 PUSH1 0x0 JUMPDEST DUP4 DUP2 LT ISZERO PUSH2 0x1ED0 JUMPI DUP2 MLOAD PUSH2 0x1EB7 DUP9 DUP3 PUSH2 0x1E2B JUMP JUMPDEST SWAP8 POP PUSH2 0x1EC2 DUP4 PUSH2 0x21E4 JUMP JUMPDEST SWAP3 POP POP PUSH1 0x1 DUP2 ADD SWAP1 POP PUSH2 0x1EA3 JUMP JUMPDEST POP DUP6 SWAP4 POP POP POP POP SWAP3 SWAP2 POP POP JUMP JUMPDEST PUSH2 0x1EE6 DUP2 PUSH2 0x226B JUMP JUMPDEST DUP3 MSTORE POP POP JUMP JUMPDEST PUSH1 0x0 PUSH2 0x1EF9 PUSH1 0x1B DUP4 PUSH2 0x2202 JUMP JUMPDEST SWAP2 POP PUSH2 0x1F04 DUP3 PUSH2 0x23B2 JUMP JUMPDEST PUSH1 0x20 DUP3 ADD SWAP1 POP SWAP2 SWAP1 POP JUMP JUMPDEST PUSH1 0x0 PUSH2 0x1F1C PUSH1 0x26 DUP4 PUSH2 0x2202 JUMP JUMPDEST SWAP2 POP PUSH2 0x1F27 DUP3 PUSH2 0x23DB JUMP JUMPDEST PUSH1 0x40 DUP3 ADD SWAP1 POP SWAP2 SWAP1 POP JUMP JUMPDEST PUSH1 0x0 PUSH2 0x1F3F PUSH1 0x20 DUP4 PUSH2 0x2202 JUMP JUMPDEST SWAP2 POP PUSH2 0x1F4A DUP3 PUSH2 0x242A JUMP JUMPDEST PUSH1 0x20 DUP3 ADD SWAP1 POP SWAP2 SWAP1 POP JUMP JUMPDEST PUSH1 0x0 PUSH2 0x1F62 PUSH1 0x1F DUP4 PUSH2 0x2202 JUMP JUMPDEST SWAP2 POP PUSH2 0x1F6D DUP3 PUSH2 0x2453 JUMP JUMPDEST PUSH1 0x20 DUP3 ADD SWAP1 POP SWAP2 SWAP1 POP JUMP JUMPDEST PUSH1 0x0 PUSH2 0x1F85 PUSH1 0x1C DUP4 PUSH2 0x2202 JUMP JUMPDEST SWAP2 POP PUSH2 0x1F90 DUP3 PUSH2 0x247C JUMP JUMPDEST PUSH1 0x20 DUP3 ADD SWAP1 POP SWAP2 SWAP1 POP JUMP JUMPDEST PUSH1 0xE0 DUP3 ADD PUSH1 0x0 DUP3 ADD MLOAD PUSH2 0x1FB1 PUSH1 0x0 DUP6 ADD DUP3 PUSH2 0x1E61 JUMP JUMPDEST POP PUSH1 0x20 DUP3 ADD MLOAD PUSH2 0x1FC4 PUSH1 0x20 DUP6 ADD DUP3 PUSH2 0x2029 JUMP JUMPDEST POP PUSH1 0x40 DUP3 ADD MLOAD PUSH2 0x1FD7 PUSH1 0x40 DUP6 ADD DUP3 PUSH2 0x2029 JUMP JUMPDEST POP PUSH1 0x60 DUP3 ADD MLOAD PUSH2 0x1FEA PUSH1 0x60 DUP6 ADD DUP3 PUSH2 0x1E52 JUMP JUMPDEST POP PUSH1 0x80 DUP3 ADD MLOAD PUSH2 0x1FFD PUSH1 0x80 DUP6 ADD DUP3 PUSH2 0x1E52 JUMP JUMPDEST POP PUSH1 0xA0 DUP3 ADD MLOAD PUSH2 0x2010 PUSH1 0xA0 DUP6 ADD DUP3 PUSH2 0x1E52 JUMP JUMPDEST POP PUSH1 0xC0 DUP3 ADD MLOAD PUSH2 0x2023 PUSH1 0xC0 DUP6 ADD DUP3 PUSH2 0x1EDD JUMP JUMPDEST POP POP POP POP JUMP JUMPDEST PUSH2 0x2032 DUP2 PUSH2 0x2297 JUMP JUMPDEST DUP3 MSTORE POP POP JUMP JUMPDEST PUSH2 0x2041 DUP2 PUSH2 0x2297 JUMP JUMPDEST DUP3 MSTORE POP POP JUMP JUMPDEST PUSH1 0x0 PUSH1 0x60 DUP3 ADD SWAP1 POP PUSH2 0x205C PUSH1 0x0 DUP4 ADD DUP7 PUSH2 0x1E70 JUMP JUMPDEST PUSH2 0x2069 PUSH1 0x20 DUP4 ADD DUP6 PUSH2 0x1E43 JUMP JUMPDEST PUSH2 0x2076 PUSH1 0x40 DUP4 ADD DUP5 PUSH2 0x2038 JUMP JUMPDEST SWAP5 SWAP4 POP POP POP POP JUMP JUMPDEST PUSH1 0x0 PUSH1 0x60 DUP3 ADD SWAP1 POP PUSH2 0x2093 PUSH1 0x0 DUP4 ADD DUP7 PUSH2 0x1E70 JUMP JUMPDEST PUSH2 0x20A0 PUSH1 0x20 DUP4 ADD DUP6 PUSH2 0x1E70 JUMP JUMPDEST PUSH2 0x20AD PUSH1 0x40 DUP4 ADD DUP5 PUSH2 0x2038 JUMP JUMPDEST SWAP5 SWAP4 POP POP POP POP JUMP JUMPDEST PUSH1 0x0 PUSH1 0x60 DUP3 ADD SWAP1 POP PUSH2 0x20CA PUSH1 0x0 DUP4 ADD DUP7 PUSH2 0x1E70 JUMP JUMPDEST PUSH2 0x20D7 PUSH1 0x20 DUP4 ADD DUP6 PUSH2 0x2038 JUMP JUMPDEST PUSH2 0x20E4 PUSH1 0x40 DUP4 ADD DUP5 PUSH2 0x2038 JUMP JUMPDEST SWAP5 SWAP4 POP POP POP POP JUMP JUMPDEST PUSH1 0x0 PUSH1 0x20 DUP3 ADD SWAP1 POP DUP2 DUP2 SUB PUSH1 0x0 DUP4 ADD MSTORE PUSH2 0x2106 DUP2 DUP5 PUSH2 0x1E7F JUMP JUMPDEST SWAP1 POP SWAP3 SWAP2 POP POP JUMP JUMPDEST PUSH1 0x0 PUSH1 0x20 DUP3 ADD SWAP1 POP DUP2 DUP2 SUB PUSH1 0x0 DUP4 ADD MSTORE PUSH2 0x2127 DUP2 PUSH2 0x1EEC JUMP JUMPDEST SWAP1 POP SWAP2 SWAP1 POP JUMP JUMPDEST PUSH1 0x0 PUSH1 0x20 DUP3 ADD SWAP1 POP DUP2 DUP2 SUB PUSH1 0x0 DUP4 ADD MSTORE PUSH2 0x2147 DUP2 PUSH2 0x1F0F JUMP JUMPDEST SWAP1 POP SWAP2 SWAP1 POP JUMP JUMPDEST PUSH1 0x0 PUSH1 0x20 DUP3 ADD SWAP1 POP DUP2 DUP2 SUB PUSH1 0x0 DUP4 ADD MSTORE PUSH2 0x2167 DUP2 PUSH2 0x1F32 JUMP JUMPDEST SWAP1 POP SWAP2 SWAP1 POP JUMP JUMPDEST PUSH1 0x0 PUSH1 0x20 DUP3 ADD SWAP1 POP DUP2 DUP2 SUB PUSH1 0x0 DUP4 ADD MSTORE PUSH2 0x2187 DUP2 PUSH2 0x1F55 JUMP JUMPDEST SWAP1 POP SWAP2 SWAP1 POP JUMP JUMPDEST PUSH1 0x0 PUSH1 0x20 DUP3 ADD SWAP1 POP DUP2 DUP2 SUB PUSH1 0x0 DUP4 ADD MSTORE PUSH2 0x21A7 DUP2 PUSH2 0x1F78 JUMP JUMPDEST SWAP1 POP SWAP2 SWAP1 POP JUMP JUMPDEST PUSH1 0x0 PUSH1 0x20 DUP3 ADD SWAP1 POP PUSH2 0x21C3 PUSH1 0x0 DUP4 ADD DUP5 PUSH2 0x2038 JUMP JUMPDEST SWAP3 SWAP2 POP POP JUMP JUMPDEST PUSH1 0x0 DUP2 SWAP1 POP PUSH1 0x20 DUP3 ADD SWAP1 POP SWAP2 SWAP1 POP JUMP JUMPDEST PUSH1 0x0 DUP2 MLOAD SWAP1 POP SWAP2 SWAP1 POP JUMP JUMPDEST PUSH1 0x0 PUSH1 0x20 DUP3 ADD SWAP1 POP SWAP2 SWAP1 POP JUMP JUMPDEST PUSH1 0x0 DUP3 DUP3 MSTORE PUSH1 0x20 DUP3 ADD SWAP1 POP SWAP3 SWAP2 POP POP JUMP JUMPDEST PUSH1 0x0 DUP3 DUP3 MSTORE PUSH1 0x20 DUP3 ADD SWAP1 POP SWAP3 SWAP2 POP POP JUMP JUMPDEST PUSH1 0x0 PUSH2 0x221E DUP3 PUSH2 0x2297 JUMP JUMPDEST SWAP2 POP PUSH2 0x2229 DUP4 PUSH2 0x2297 JUMP JUMPDEST SWAP3 POP DUP3 DUP3 LT ISZERO PUSH2 0x223C JUMPI PUSH2 0x223B PUSH2 0x2320 JUMP JUMPDEST JUMPDEST DUP3 DUP3 SUB SWAP1 POP SWAP3 SWAP2 POP POP JUMP JUMPDEST PUSH1 0x0 PUSH2 0x2252 DUP3 PUSH2 0x2277 JUMP JUMPDEST SWAP1 POP SWAP2 SWAP1 POP JUMP JUMPDEST PUSH1 0x0 PUSH2 0x2264 DUP3 PUSH2 0x2277 JUMP JUMPDEST SWAP1 POP SWAP2 SWAP1 POP JUMP JUMPDEST PUSH1 0x0 DUP2 ISZERO ISZERO SWAP1 POP SWAP2 SWAP1 POP JUMP JUMPDEST PUSH1 0x0 PUSH20 0xFFFFFFFFFFFFFFFFFFFFFFFFFFFFFFFFFFFFFFFF DUP3 AND SWAP1 POP SWAP2 SWAP1 POP JUMP JUMPDEST PUSH1 0x0 DUP2 SWAP1 POP SWAP2 SWAP1 POP JUMP JUMPDEST PUSH1 0x0 PUSH2 0x22AC DUP3 PUSH2 0x22B3 JUMP JUMPDEST SWAP1 POP SWAP2 SWAP1 POP JUMP JUMPDEST PUSH1 0x0 PUSH2 0x22BE DUP3 PUSH2 0x22C5 JUMP JUMPDEST SWAP1 POP SWAP2 SWAP1 POP JUMP JUMPDEST PUSH1 0x0 PUSH2 0x22D0 DUP3 PUSH2 0x2277 JUMP JUMPDEST SWAP1 POP SWAP2 SWAP1 POP JUMP JUMPDEST PUSH1 0x0 PUSH2 0x22E2 DUP3 PUSH2 0x2297 JUMP JUMPDEST SWAP2 POP PUSH32 0xFFFFFFFFFFFFFFFFFFFFFFFFFFFFFFFFFFFFFFFFFFFFFFFFFFFFFFFFFFFFFFFF DUP3 EQ ISZERO PUSH2 0x2315 JUMPI PUSH2 0x2314 PUSH2 0x2320 JUMP JUMPDEST JUMPDEST PUSH1 0x1 DUP3 ADD SWAP1 POP SWAP2 SWAP1 POP JUMP JUMPDEST PUSH32 0x4E487B7100000000000000000000000000000000000000000000000000000000 PUSH1 0x0 MSTORE PUSH1 0x11 PUSH1 0x4 MSTORE PUSH1 0x24 PUSH1 0x0 REVERT JUMPDEST PUSH32 0x4E487B7100000000000000000000000000000000000000000000000000000000 PUSH1 0x0 MSTORE PUSH1 0x32 PUSH1 0x4 MSTORE PUSH1 0x24 PUSH1 0x0 REVERT JUMPDEST PUSH32 0x4E487B7100000000000000000000000000000000000000000000000000000000 PUSH1 0x0 MSTORE PUSH1 0x41 PUSH1 0x4 MSTORE PUSH1 0x24 PUSH1 0x0 REVERT JUMPDEST PUSH1 0x0 DUP1 REVERT JUMPDEST PUSH32 0x436F756E7465723A2064656372656D656E74206F766572666C6F770000000000 PUSH1 0x0 DUP3 ADD MSTORE POP JUMP JUMPDEST PUSH32 0x4E6F7420656E6F75676820657468657220746F20636F7665722061736B696E67 PUSH1 0x0 DUP3 ADD MSTORE PUSH32 0x2070726963650000000000000000000000000000000000000000000000000000 PUSH1 0x20 DUP3 ADD MSTORE POP JUMP JUMPDEST PUSH32 0x4E6F7420656E6F75676820657468657220666F72206C697374696E6720666565 PUSH1 0x0 DUP3 ADD MSTORE POP JUMP JUMPDEST PUSH32 0x5265656E7472616E637947756172643A207265656E7472616E742063616C6C00 PUSH1 0x0 DUP3 ADD MSTORE POP JUMP JUMPDEST PUSH32 0x5072696365206D757374206265206174206C6561737420312077656900000000 PUSH1 0x0 DUP3 ADD MSTORE POP JUMP JUMPDEST PUSH2 0x24AE DUP2 PUSH2 0x2247 JUMP JUMPDEST DUP2 EQ PUSH2 0x24B9 JUMPI PUSH1 0x0 DUP1 REVERT JUMPDEST POP JUMP JUMPDEST PUSH2 0x24C5 DUP2 PUSH2 0x2297 JUMP JUMPDEST DUP2 EQ PUSH2 0x24D0 JUMPI PUSH1 0x0 DUP1 REVERT JUMPDEST POP JUMP INVALID LOG2 PUSH5 0x6970667358 0x22 SLT KECCAK256 0x5E 0xD3 SELFDESTRUCT SWAP10 DUP11 DIV NUMBER 0xBA 0x22 OR 0xC8 EQ 0xF CALLDATASIZE 0x4E CREATE2 0xCC 0xA7 CALLER BASEFEE 0xB0 0x49 PUSH18 0x6556034FDBE90C966164736F6C6343000807 STOP CALLER "
				},
				"gasEstimates": {
					"creation": {
						"codeDepositCost": "1896200",
						"executionCost": "70491",
						"totalCost": "1966691"
					},
					"external": {
						"LISTING_FEE()": "2474",
						"buyNft(address,uint256)": "infinite",
						"getCollectionNfts(address)": "infinite",
						"getListedNfts()": "infinite",
						"getListingFee()": "2503",
						"getMyCreatedNfts()": "infinite",
						"getMyListedNfts()": "infinite",
						"getMyOwnedNfts()": "infinite",
						"listNFT(address,uint256,uint256)": "infinite",
						"resellNFT(address,uint256,uint256)": "infinite"
					}
				},
				"methodIdentifiers": {
					"LISTING_FEE()": "2b86ae38",
					"buyNft(address,uint256)": "4ddf4f8f",
					"getCollectionNfts(address)": "ccef4339",
					"getListedNfts()": "8d6cb3fb",
					"getListingFee()": "b8fe6abe",
					"getMyCreatedNfts()": "8492095a",
					"getMyListedNfts()": "1f4cc4db",
					"getMyOwnedNfts()": "a46b5c5a",
					"listNFT(address,uint256,uint256)": "ad05f1b4",
					"resellNFT(address,uint256,uint256)": "04935694"
				}
			},
			"storageLayout": {
				"storage": [
					{
						"astId": 898,
						"contract": "contracts/GeekNftMarketPlace.sol:GeekNftMarketPlace",
						"label": "_status",
						"offset": 0,
						"slot": "0",
						"type": "t_uint256"
					},
					{
						"astId": 96,
						"contract": "contracts/GeekNftMarketPlace.sol:GeekNftMarketPlace",
						"label": "_nftsSold",
						"offset": 0,
						"slot": "1",
						"type": "t_struct(Counter)5_storage"
					},
					{
						"astId": 99,
						"contract": "contracts/GeekNftMarketPlace.sol:GeekNftMarketPlace",
						"label": "_nftsCount",
						"offset": 0,
						"slot": "2",
						"type": "t_struct(Counter)5_storage"
					},
					{
						"astId": 102,
						"contract": "contracts/GeekNftMarketPlace.sol:GeekNftMarketPlace",
						"label": "LISTING_FEE",
						"offset": 0,
						"slot": "3",
						"type": "t_uint256"
					},
					{
						"astId": 104,
						"contract": "contracts/GeekNftMarketPlace.sol:GeekNftMarketPlace",
						"label": "_marketOwwner",
						"offset": 0,
						"slot": "4",
						"type": "t_address_payable"
					},
					{
						"astId": 109,
						"contract": "contracts/GeekNftMarketPlace.sol:GeekNftMarketPlace",
						"label": "_idToNft",
						"offset": 0,
						"slot": "5",
						"type": "t_mapping(t_uint256,t_struct(NFT)124_storage)"
					}
				],
				"types": {
					"t_address": {
						"encoding": "inplace",
						"label": "address",
						"numberOfBytes": "20"
					},
					"t_address_payable": {
						"encoding": "inplace",
						"label": "address payable",
						"numberOfBytes": "20"
					},
					"t_bool": {
						"encoding": "inplace",
						"label": "bool",
						"numberOfBytes": "1"
					},
					"t_mapping(t_uint256,t_struct(NFT)124_storage)": {
						"encoding": "mapping",
						"key": "t_uint256",
						"label": "mapping(uint256 => struct GeekNftMarketPlace.NFT)",
						"numberOfBytes": "32",
						"value": "t_struct(NFT)124_storage"
					},
					"t_struct(Counter)5_storage": {
						"encoding": "inplace",
						"label": "struct Counters.Counter",
						"members": [
							{
								"astId": 4,
								"contract": "contracts/GeekNftMarketPlace.sol:GeekNftMarketPlace",
								"label": "_value",
								"offset": 0,
								"slot": "0",
								"type": "t_uint256"
							}
						],
						"numberOfBytes": "32"
					},
					"t_struct(NFT)124_storage": {
						"encoding": "inplace",
						"label": "struct GeekNftMarketPlace.NFT",
						"members": [
							{
								"astId": 111,
								"contract": "contracts/GeekNftMarketPlace.sol:GeekNftMarketPlace",
								"label": "nftContract",
								"offset": 0,
								"slot": "0",
								"type": "t_address"
							},
							{
								"astId": 113,
								"contract": "contracts/GeekNftMarketPlace.sol:GeekNftMarketPlace",
								"label": "tokenId",
								"offset": 0,
								"slot": "1",
								"type": "t_uint256"
							},
							{
								"astId": 115,
								"contract": "contracts/GeekNftMarketPlace.sol:GeekNftMarketPlace",
								"label": "price",
								"offset": 0,
								"slot": "2",
								"type": "t_uint256"
							},
							{
								"astId": 117,
								"contract": "contracts/GeekNftMarketPlace.sol:GeekNftMarketPlace",
								"label": "seller",
								"offset": 0,
								"slot": "3",
								"type": "t_address_payable"
							},
							{
								"astId": 119,
								"contract": "contracts/GeekNftMarketPlace.sol:GeekNftMarketPlace",
								"label": "owner",
								"offset": 0,
								"slot": "4",
								"type": "t_address_payable"
							},
							{
								"astId": 121,
								"contract": "contracts/GeekNftMarketPlace.sol:GeekNftMarketPlace",
								"label": "creator",
								"offset": 0,
								"slot": "5",
								"type": "t_address_payable"
							},
							{
								"astId": 123,
								"contract": "contracts/GeekNftMarketPlace.sol:GeekNftMarketPlace",
								"label": "listed",
								"offset": 20,
								"slot": "5",
								"type": "t_bool"
							}
						],
						"numberOfBytes": "192"
					},
					"t_uint256": {
						"encoding": "inplace",
						"label": "uint256",
						"numberOfBytes": "32"
					}
				}
			},
			"userdoc": {
				"kind": "user",
				"methods": {},
				"version": 1
			}
		}
	}
}