{
	"contracts/GeekNft.sol": {
		"GeekNft": {
			"abi": [
				{
					"inputs": [],
					"stateMutability": "nonpayable",
					"type": "constructor"
				},
				{
					"anonymous": false,
					"inputs": [
						{
							"indexed": true,
							"internalType": "address",
							"name": "_from",
							"type": "address"
						},
						{
							"indexed": true,
							"internalType": "address",
							"name": "_to",
							"type": "address"
						},
						{
							"indexed": false,
							"internalType": "uint256",
							"name": "_tokenId",
							"type": "uint256"
						}
					],
					"name": "Transfer",
					"type": "event"
				},
				{
					"inputs": [
						{
							"internalType": "uint256",
							"name": "_tokenId",
							"type": "uint256"
						}
					],
					"name": "addItemToSell",
					"outputs": [],
					"stateMutability": "nonpayable",
					"type": "function"
				},
				{
					"inputs": [
						{
							"internalType": "address",
							"name": "_owner",
							"type": "address"
						}
					],
					"name": "balanceOf",
					"outputs": [
						{
							"internalType": "uint256",
							"name": "",
							"type": "uint256"
						}
					],
					"stateMutability": "view",
					"type": "function"
				},
				{
					"inputs": [
						{
							"internalType": "uint256",
							"name": "_price",
							"type": "uint256"
						},
						{
							"internalType": "uint256",
							"name": "_catId",
							"type": "uint256"
						}
					],
					"name": "createItem",
					"outputs": [
						{
							"internalType": "uint256",
							"name": "",
							"type": "uint256"
						}
					],
					"stateMutability": "nonpayable",
					"type": "function"
				},
				{
					"inputs": [
						{
							"internalType": "uint256",
							"name": "_catId",
							"type": "uint256"
						}
					],
					"name": "fetchItemsByCatId",
					"outputs": [
						{
							"components": [
								{
									"internalType": "uint256",
									"name": "tokenId",
									"type": "uint256"
								},
								{
									"internalType": "uint256",
									"name": "price",
									"type": "uint256"
								},
								{
									"internalType": "uint256",
									"name": "catId",
									"type": "uint256"
								},
								{
									"internalType": "bool",
									"name": "toSell",
									"type": "bool"
								}
							],
							"internalType": "struct GeekNft.Item[]",
							"name": "",
							"type": "tuple[]"
						}
					],
					"stateMutability": "view",
					"type": "function"
				},
				{
					"inputs": [],
					"name": "fetchItemsByOwner",
					"outputs": [
						{
							"components": [
								{
									"internalType": "uint256",
									"name": "tokenId",
									"type": "uint256"
								},
								{
									"internalType": "uint256",
									"name": "price",
									"type": "uint256"
								},
								{
									"internalType": "uint256",
									"name": "catId",
									"type": "uint256"
								},
								{
									"internalType": "bool",
									"name": "toSell",
									"type": "bool"
								}
							],
							"internalType": "struct GeekNft.Item[]",
							"name": "",
							"type": "tuple[]"
						}
					],
					"stateMutability": "view",
					"type": "function"
				},
				{
					"inputs": [],
					"name": "fetchItemsToSell",
					"outputs": [
						{
							"components": [
								{
									"internalType": "uint256",
									"name": "tokenId",
									"type": "uint256"
								},
								{
									"internalType": "uint256",
									"name": "price",
									"type": "uint256"
								},
								{
									"internalType": "uint256",
									"name": "catId",
									"type": "uint256"
								},
								{
									"internalType": "bool",
									"name": "toSell",
									"type": "bool"
								}
							],
							"internalType": "struct GeekNft.Item[]",
							"name": "",
							"type": "tuple[]"
						}
					],
					"stateMutability": "view",
					"type": "function"
				},
				{
					"inputs": [],
					"name": "getFeesPercentage",
					"outputs": [
						{
							"internalType": "uint256",
							"name": "",
							"type": "uint256"
						}
					],
					"stateMutability": "view",
					"type": "function"
				},
				{
					"inputs": [
						{
							"internalType": "uint256",
							"name": "",
							"type": "uint256"
						}
					],
					"name": "itemsCatIdCount",
					"outputs": [
						{
							"internalType": "uint256",
							"name": "",
							"type": "uint256"
						}
					],
					"stateMutability": "view",
					"type": "function"
				},
				{
					"inputs": [
						{
							"internalType": "uint256",
							"name": "_newPercentage",
							"type": "uint256"
						}
					],
					"name": "modifyFeesPercentage",
					"outputs": [],
					"stateMutability": "nonpayable",
					"type": "function"
				},
				{
					"inputs": [
						{
							"internalType": "uint256",
							"name": "_tokenId",
							"type": "uint256"
						}
					],
					"name": "ownerOf",
					"outputs": [
						{
							"internalType": "address",
							"name": "",
							"type": "address"
						}
					],
					"stateMutability": "view",
					"type": "function"
				},
				{
					"inputs": [
						{
							"internalType": "uint256",
							"name": "_tokenId",
							"type": "uint256"
						}
					],
					"name": "removeItemToSell",
					"outputs": [],
					"stateMutability": "nonpayable",
					"type": "function"
				},
				{
					"inputs": [
						{
							"internalType": "uint256",
							"name": "_tokenId",
							"type": "uint256"
						}
					],
					"name": "sellItem",
					"outputs": [],
					"stateMutability": "payable",
					"type": "function"
				}
			],
			"devdoc": {
				"kind": "dev",
				"methods": {},
				"version": 1
			},
			"evm": {
				"assembly": "    /* \"contracts/GeekNft.sol\":56:4829  contract GeekNft {... */\n  mstore(0x40, 0x80)\n    /* \"contracts/GeekNft.sol\":530:635  constructor() {... */\n  callvalue\n  dup1\n  iszero\n  tag_1\n  jumpi\n  0x00\n  dup1\n  revert\ntag_1:\n  pop\n    /* \"contracts/GeekNft.sol\":562:572  msg.sender */\n  caller\n    /* \"contracts/GeekNft.sol\":554:559  owner */\n  0x02\n  0x00\n    /* \"contracts/GeekNft.sol\":554:572  owner = msg.sender */\n  0x0100\n  exp\n  dup2\n  sload\n  dup2\n  0xffffffffffffffffffffffffffffffffffffffff\n  mul\n  not\n  and\n  swap1\n  dup4\n  0xffffffffffffffffffffffffffffffffffffffff\n  and\n  mul\n  or\n  swap1\n  sstore\n  pop\n    /* \"contracts/GeekNft.sol\":582:602  name = \"Geek Tokens\" */\n  mload(0x40)\n  dup1\n  0x40\n  add\n  0x40\n  mstore\n  dup1\n  0x0b\n  dup2\n  mstore\n  0x20\n  add\n  0x4765656b20546f6b656e73000000000000000000000000000000000000000000\n  dup2\n  mstore\n  pop\n    /* \"contracts/GeekNft.sol\":582:586  name */\n  0x00\n    /* \"contracts/GeekNft.sol\":582:602  name = \"Geek Tokens\" */\n  swap1\n  dup1\n  mload\n  swap1\n  0x20\n  add\n  swap1\n  tag_4\n  swap3\n  swap2\n  swap1\n  tag_5\n  jump\t// in\ntag_4:\n  pop\n    /* \"contracts/GeekNft.sol\":612:628  symbol = \"GEEKT\" */\n  mload(0x40)\n  dup1\n  0x40\n  add\n  0x40\n  mstore\n  dup1\n  0x05\n  dup2\n  mstore\n  0x20\n  add\n  0x4745454b54000000000000000000000000000000000000000000000000000000\n  dup2\n  mstore\n  pop\n    /* \"contracts/GeekNft.sol\":612:618  symbol */\n  0x01\n    /* \"contracts/GeekNft.sol\":612:628  symbol = \"GEEKT\" */\n  swap1\n  dup1\n  mload\n  swap1\n  0x20\n  add\n  swap1\n  tag_6\n  swap3\n  swap2\n  swap1\n  tag_5\n  jump\t// in\ntag_6:\n  pop\n    /* \"contracts/GeekNft.sol\":56:4829  contract GeekNft {... */\n  jump(tag_7)\ntag_5:\n  dup3\n  dup1\n  sload\n  tag_8\n  swap1\n  tag_9\n  jump\t// in\ntag_8:\n  swap1\n  0x00\n  mstore\n  keccak256(0x00, 0x20)\n  swap1\n  0x1f\n  add\n  0x20\n  swap1\n  div\n  dup2\n  add\n  swap3\n  dup3\n  tag_11\n  jumpi\n  0x00\n  dup6\n  sstore\n  jump(tag_10)\ntag_11:\n  dup3\n  0x1f\n  lt\n  tag_12\n  jumpi\n  dup1\n  mload\n  not(0xff)\n  and\n  dup4\n  dup1\n  add\n  or\n  dup6\n  sstore\n  jump(tag_10)\ntag_12:\n  dup3\n  dup1\n  add\n  0x01\n  add\n  dup6\n  sstore\n  dup3\n  iszero\n  tag_10\n  jumpi\n  swap2\n  dup3\n  add\ntag_13:\n  dup3\n  dup2\n  gt\n  iszero\n  tag_14\n  jumpi\n  dup3\n  mload\n  dup3\n  sstore\n  swap2\n  0x20\n  add\n  swap2\n  swap1\n  0x01\n  add\n  swap1\n  jump(tag_13)\ntag_14:\ntag_10:\n  pop\n  swap1\n  pop\n  tag_15\n  swap2\n  swap1\n  tag_16\n  jump\t// in\ntag_15:\n  pop\n  swap1\n  jump\t// out\ntag_16:\ntag_17:\n  dup1\n  dup3\n  gt\n  iszero\n  tag_18\n  jumpi\n  0x00\n  dup2\n  0x00\n  swap1\n  sstore\n  pop\n  0x01\n  add\n  jump(tag_17)\ntag_18:\n  pop\n  swap1\n  jump\t// out\n    /* \"#utility.yul\":7:327   */\ntag_9:\n  0x00\n    /* \"#utility.yul\":88:89   */\n  0x02\n    /* \"#utility.yul\":82:86   */\n  dup3\n    /* \"#utility.yul\":78:90   */\n  div\n    /* \"#utility.yul\":68:90   */\n  swap1\n  pop\n    /* \"#utility.yul\":135:136   */\n  0x01\n    /* \"#utility.yul\":129:133   */\n  dup3\n    /* \"#utility.yul\":125:137   */\n  and\n    /* \"#utility.yul\":156:174   */\n  dup1\n    /* \"#utility.yul\":146:148   */\n  tag_21\n  jumpi\n    /* \"#utility.yul\":212:216   */\n  0x7f\n    /* \"#utility.yul\":204:210   */\n  dup3\n    /* \"#utility.yul\":200:217   */\n  and\n    /* \"#utility.yul\":190:217   */\n  swap2\n  pop\n    /* \"#utility.yul\":146:148   */\ntag_21:\n    /* \"#utility.yul\":274:276   */\n  0x20\n    /* \"#utility.yul\":266:272   */\n  dup3\n    /* \"#utility.yul\":263:277   */\n  lt\n    /* \"#utility.yul\":243:261   */\n  dup2\n    /* \"#utility.yul\":240:278   */\n  eq\n    /* \"#utility.yul\":237:239   */\n  iszero\n  tag_22\n  jumpi\n    /* \"#utility.yul\":293:311   */\n  tag_23\n  tag_24\n  jump\t// in\ntag_23:\n    /* \"#utility.yul\":237:239   */\ntag_22:\n    /* \"#utility.yul\":58:327   */\n  pop\n  swap2\n  swap1\n  pop\n  jump\t// out\n    /* \"#utility.yul\":333:513   */\ntag_24:\n    /* \"#utility.yul\":381:458   */\n  0x4e487b7100000000000000000000000000000000000000000000000000000000\n    /* \"#utility.yul\":378:379   */\n  0x00\n    /* \"#utility.yul\":371:459   */\n  mstore\n    /* \"#utility.yul\":478:482   */\n  0x22\n    /* \"#utility.yul\":475:476   */\n  0x04\n    /* \"#utility.yul\":468:483   */\n  mstore\n    /* \"#utility.yul\":502:506   */\n  0x24\n    /* \"#utility.yul\":499:500   */\n  0x00\n    /* \"#utility.yul\":492:507   */\n  revert\n    /* \"contracts/GeekNft.sol\":56:4829  contract GeekNft {... */\ntag_7:\n  dataSize(sub_0)\n  dup1\n  dataOffset(sub_0)\n  0x00\n  codecopy\n  0x00\n  return\nstop\n\nsub_0: assembly {\n        /* \"contracts/GeekNft.sol\":56:4829  contract GeekNft {... */\n      mstore(0x40, 0x80)\n      jumpi(tag_1, lt(calldatasize, 0x04))\n      shr(0xe0, calldataload(0x00))\n      dup1\n      0x91b6be9a\n      gt\n      tag_14\n      jumpi\n      dup1\n      0x91b6be9a\n      eq\n      tag_8\n      jumpi\n      dup1\n      0xa4964c33\n      eq\n      tag_9\n      jumpi\n      dup1\n      0xadae08dd\n      eq\n      tag_10\n      jumpi\n      dup1\n      0xc0f202ef\n      eq\n      tag_11\n      jumpi\n      dup1\n      0xd48644bd\n      eq\n      tag_12\n      jumpi\n      dup1\n      0xea0ff14a\n      eq\n      tag_13\n      jumpi\n      jump(tag_1)\n    tag_14:\n      dup1\n      0x073e74df\n      eq\n      tag_2\n      jumpi\n      dup1\n      0x2165e65a\n      eq\n      tag_3\n      jumpi\n      dup1\n      0x29de6246\n      eq\n      tag_4\n      jumpi\n      dup1\n      0x4cad2ffc\n      eq\n      tag_5\n      jumpi\n      dup1\n      0x6352211e\n      eq\n      tag_6\n      jumpi\n      dup1\n      0x70a08231\n      eq\n      tag_7\n      jumpi\n    tag_1:\n      0x00\n      dup1\n      revert\n        /* \"contracts/GeekNft.sol\":3383:3750  function fetchItemsToSell() public view returns (Item[] memory){... */\n    tag_2:\n      callvalue\n      dup1\n      iszero\n      tag_15\n      jumpi\n      0x00\n      dup1\n      revert\n    tag_15:\n      pop\n      tag_16\n      tag_17\n      jump\t// in\n    tag_16:\n      mload(0x40)\n      tag_18\n      swap2\n      swap1\n      tag_19\n      jump\t// in\n    tag_18:\n      mload(0x40)\n      dup1\n      swap2\n      sub\n      swap1\n      return\n        /* \"contracts/GeekNft.sol\":4146:4533  function fetchItemsByCatId(uint _catId) public view returns (Item[] memory){... */\n    tag_3:\n      callvalue\n      dup1\n      iszero\n      tag_20\n      jumpi\n      0x00\n      dup1\n      revert\n    tag_20:\n      pop\n      tag_21\n      0x04\n      dup1\n      calldatasize\n      sub\n      dup2\n      add\n      swap1\n      tag_22\n      swap2\n      swap1\n      tag_23\n      jump\t// in\n    tag_22:\n      tag_24\n      jump\t// in\n    tag_21:\n      mload(0x40)\n      tag_25\n      swap2\n      swap1\n      tag_19\n      jump\t// in\n    tag_25:\n      mload(0x40)\n      dup1\n      swap2\n      sub\n      swap1\n      return\n        /* \"contracts/GeekNft.sol\":918:1041  function modifyFeesPercentage(uint _newPercentage) public onlyContractOwner{... */\n    tag_4:\n      callvalue\n      dup1\n      iszero\n      tag_26\n      jumpi\n      0x00\n      dup1\n      revert\n    tag_26:\n      pop\n      tag_27\n      0x04\n      dup1\n      calldatasize\n      sub\n      dup2\n      add\n      swap1\n      tag_28\n      swap2\n      swap1\n      tag_23\n      jump\t// in\n    tag_28:\n      tag_29\n      jump\t// in\n    tag_27:\n      stop\n        /* \"contracts/GeekNft.sol\":3756:4140  function fetchItemsByOwner() public view returns (Item[] memory){... */\n    tag_5:\n      callvalue\n      dup1\n      iszero\n      tag_30\n      jumpi\n      0x00\n      dup1\n      revert\n    tag_30:\n      pop\n      tag_31\n      tag_32\n      jump\t// in\n    tag_31:\n      mload(0x40)\n      tag_33\n      swap2\n      swap1\n      tag_19\n      jump\t// in\n    tag_33:\n      mload(0x40)\n      dup1\n      swap2\n      sub\n      swap1\n      return\n        /* \"contracts/GeekNft.sol\":2485:2591  function ownerOf(uint _tokenId) public view returns (address){... */\n    tag_6:\n      callvalue\n      dup1\n      iszero\n      tag_34\n      jumpi\n      0x00\n      dup1\n      revert\n    tag_34:\n      pop\n      tag_35\n      0x04\n      dup1\n      calldatasize\n      sub\n      dup2\n      add\n      swap1\n      tag_36\n      swap2\n      swap1\n      tag_23\n      jump\t// in\n    tag_36:\n      tag_37\n      jump\t// in\n    tag_35:\n      mload(0x40)\n      tag_38\n      swap2\n      swap1\n      tag_39\n      jump\t// in\n    tag_38:\n      mload(0x40)\n      dup1\n      swap2\n      sub\n      swap1\n      return\n        /* \"contracts/GeekNft.sol\":2597:2705  function balanceOf(address _owner) public view returns (uint){... */\n    tag_7:\n      callvalue\n      dup1\n      iszero\n      tag_40\n      jumpi\n      0x00\n      dup1\n      revert\n    tag_40:\n      pop\n      tag_41\n      0x04\n      dup1\n      calldatasize\n      sub\n      dup2\n      add\n      swap1\n      tag_42\n      swap2\n      swap1\n      tag_43\n      jump\t// in\n    tag_42:\n      tag_44\n      jump\t// in\n    tag_41:\n      mload(0x40)\n      tag_45\n      swap2\n      swap1\n      tag_46\n      jump\t// in\n    tag_45:\n      mload(0x40)\n      dup1\n      swap2\n      sub\n      swap1\n      return\n        /* \"contracts/GeekNft.sol\":1693:2479  function sellItem(uint _tokenId) public payable{... */\n    tag_8:\n      tag_47\n      0x04\n      dup1\n      calldatasize\n      sub\n      dup2\n      add\n      swap1\n      tag_48\n      swap2\n      swap1\n      tag_23\n      jump\t// in\n    tag_48:\n      tag_49\n      jump\t// in\n    tag_47:\n      stop\n        /* \"contracts/GeekNft.sol\":2711:3040  function removeItemToSell(uint _tokenId) public onlyItemOwner(_tokenId) {... */\n    tag_9:\n      callvalue\n      dup1\n      iszero\n      tag_50\n      jumpi\n      0x00\n      dup1\n      revert\n    tag_50:\n      pop\n      tag_51\n      0x04\n      dup1\n      calldatasize\n      sub\n      dup2\n      add\n      swap1\n      tag_52\n      swap2\n      swap1\n      tag_23\n      jump\t// in\n    tag_52:\n      tag_53\n      jump\t// in\n    tag_51:\n      stop\n        /* \"contracts/GeekNft.sol\":1147:1687  function createItem(uint _price, uint _catId) public returns (uint){... */\n    tag_10:\n      callvalue\n      dup1\n      iszero\n      tag_54\n      jumpi\n      0x00\n      dup1\n      revert\n    tag_54:\n      pop\n      tag_55\n      0x04\n      dup1\n      calldatasize\n      sub\n      dup2\n      add\n      swap1\n      tag_56\n      swap2\n      swap1\n      tag_57\n      jump\t// in\n    tag_56:\n      tag_58\n      jump\t// in\n    tag_55:\n      mload(0x40)\n      tag_59\n      swap2\n      swap1\n      tag_46\n      jump\t// in\n    tag_59:\n      mload(0x40)\n      dup1\n      swap2\n      sub\n      swap1\n      return\n        /* \"contracts/GeekNft.sol\":3046:3377  function addItemToSell(uint _tokenId) public onlyItemOwner(_tokenId) {... */\n    tag_11:\n      callvalue\n      dup1\n      iszero\n      tag_60\n      jumpi\n      0x00\n      dup1\n      revert\n    tag_60:\n      pop\n      tag_61\n      0x04\n      dup1\n      calldatasize\n      sub\n      dup2\n      add\n      swap1\n      tag_62\n      swap2\n      swap1\n      tag_23\n      jump\t// in\n    tag_62:\n      tag_63\n      jump\t// in\n    tag_61:\n      stop\n        /* \"contracts/GeekNft.sol\":479:523  mapping(uint => uint) public itemsCatIdCount */\n    tag_12:\n      callvalue\n      dup1\n      iszero\n      tag_64\n      jumpi\n      0x00\n      dup1\n      revert\n    tag_64:\n      pop\n      tag_65\n      0x04\n      dup1\n      calldatasize\n      sub\n      dup2\n      add\n      swap1\n      tag_66\n      swap2\n      swap1\n      tag_23\n      jump\t// in\n    tag_66:\n      tag_67\n      jump\t// in\n    tag_65:\n      mload(0x40)\n      tag_68\n      swap2\n      swap1\n      tag_46\n      jump\t// in\n    tag_68:\n      mload(0x40)\n      dup1\n      swap2\n      sub\n      swap1\n      return\n        /* \"contracts/GeekNft.sol\":1047:1141  function getFeesPercentage() public view returns (uint) {... */\n    tag_13:\n      callvalue\n      dup1\n      iszero\n      tag_69\n      jumpi\n      0x00\n      dup1\n      revert\n    tag_69:\n      pop\n      tag_70\n      tag_71\n      jump\t// in\n    tag_70:\n      mload(0x40)\n      tag_72\n      swap2\n      swap1\n      tag_46\n      jump\t// in\n    tag_72:\n      mload(0x40)\n      dup1\n      swap2\n      sub\n      swap1\n      return\n        /* \"contracts/GeekNft.sol\":3383:3750  function fetchItemsToSell() public view returns (Item[] memory){... */\n    tag_17:\n        /* \"contracts/GeekNft.sol\":3432:3445  Item[] memory */\n      0x60\n        /* \"contracts/GeekNft.sol\":3456:3468  uint counter */\n      0x00\n        /* \"contracts/GeekNft.sol\":3482:3502  Item[] memory result */\n      dup1\n        /* \"contracts/GeekNft.sol\":3516:3532  itemsToSellCount */\n      sload(0x04)\n        /* \"contracts/GeekNft.sol\":3505:3533  new Item[](itemsToSellCount) */\n      0xffffffffffffffff\n      dup2\n      gt\n      iszero\n      tag_74\n      jumpi\n      mstore(0x00, 0x4e487b7100000000000000000000000000000000000000000000000000000000)\n      mstore(0x04, 0x41)\n      revert(0x00, 0x24)\n    tag_74:\n      mload(0x40)\n      swap1\n      dup1\n      dup3\n      mstore\n      dup1\n      0x20\n      mul\n      0x20\n      add\n      dup3\n      add\n      0x40\n      mstore\n      dup1\n      iszero\n      tag_75\n      jumpi\n      dup2\n      0x20\n      add\n    tag_76:\n      tag_77\n      tag_78\n      jump\t// in\n    tag_77:\n      dup2\n      mstore\n      0x20\n      add\n      swap1\n      0x01\n      swap1\n      sub\n      swap1\n      dup2\n      tag_76\n      jumpi\n      swap1\n      pop\n    tag_75:\n      pop\n        /* \"contracts/GeekNft.sol\":3482:3533  Item[] memory result = new Item[](itemsToSellCount) */\n      swap1\n      pop\n        /* \"contracts/GeekNft.sol\":3548:3554  uint i */\n      0x00\n        /* \"contracts/GeekNft.sol\":3544:3720  for(uint i = 0; i < items.length; i++) {... */\n    tag_79:\n        /* \"contracts/GeekNft.sol\":3564:3569  items */\n      0x03\n        /* \"contracts/GeekNft.sol\":3564:3576  items.length */\n      dup1\n      sload\n      swap1\n      pop\n        /* \"contracts/GeekNft.sol\":3560:3561  i */\n      dup2\n        /* \"contracts/GeekNft.sol\":3560:3576  i < items.length */\n      lt\n        /* \"contracts/GeekNft.sol\":3544:3720  for(uint i = 0; i < items.length; i++) {... */\n      iszero\n      tag_80\n      jumpi\n        /* \"contracts/GeekNft.sol\":3619:3623  true */\n      0x01\n        /* \"contracts/GeekNft.sol\":3600:3623  items[i].toSell == true */\n      iszero\n      iszero\n        /* \"contracts/GeekNft.sol\":3600:3605  items */\n      0x03\n        /* \"contracts/GeekNft.sol\":3606:3607  i */\n      dup3\n        /* \"contracts/GeekNft.sol\":3600:3608  items[i] */\n      dup2\n      sload\n      dup2\n      lt\n      tag_82\n      jumpi\n      mstore(0x00, 0x4e487b7100000000000000000000000000000000000000000000000000000000)\n      mstore(0x04, 0x32)\n      revert(0x00, 0x24)\n    tag_82:\n      swap1\n      0x00\n      mstore\n      keccak256(0x00, 0x20)\n      swap1\n      0x04\n      mul\n      add\n        /* \"contracts/GeekNft.sol\":3600:3615  items[i].toSell */\n      0x03\n      add\n      0x00\n      swap1\n      sload\n      swap1\n      0x0100\n      exp\n      swap1\n      div\n      0xff\n      and\n        /* \"contracts/GeekNft.sol\":3600:3623  items[i].toSell == true */\n      iszero\n      iszero\n      eq\n        /* \"contracts/GeekNft.sol\":3597:3710  if(items[i].toSell == true){... */\n      iszero\n      tag_84\n      jumpi\n        /* \"contracts/GeekNft.sol\":3660:3665  items */\n      0x03\n        /* \"contracts/GeekNft.sol\":3666:3667  i */\n      dup2\n        /* \"contracts/GeekNft.sol\":3660:3668  items[i] */\n      dup2\n      sload\n      dup2\n      lt\n      tag_85\n      jumpi\n      mstore(0x00, 0x4e487b7100000000000000000000000000000000000000000000000000000000)\n      mstore(0x04, 0x32)\n      revert(0x00, 0x24)\n    tag_85:\n      swap1\n      0x00\n      mstore\n      keccak256(0x00, 0x20)\n      swap1\n      0x04\n      mul\n      add\n        /* \"contracts/GeekNft.sol\":3642:3668  result[counter] = items[i] */\n      mload(0x40)\n      dup1\n      0x80\n      add\n      0x40\n      mstore\n      swap1\n      dup2\n      0x00\n      dup3\n      add\n      sload\n      dup2\n      mstore\n      0x20\n      add\n      0x01\n      dup3\n      add\n      sload\n      dup2\n      mstore\n      0x20\n      add\n      0x02\n      dup3\n      add\n      sload\n      dup2\n      mstore\n      0x20\n      add\n      0x03\n      dup3\n      add\n      0x00\n      swap1\n      sload\n      swap1\n      0x0100\n      exp\n      swap1\n      div\n      0xff\n      and\n      iszero\n      iszero\n      iszero\n      iszero\n      dup2\n      mstore\n      pop\n      pop\n        /* \"contracts/GeekNft.sol\":3642:3648  result */\n      dup3\n        /* \"contracts/GeekNft.sol\":3649:3656  counter */\n      dup5\n        /* \"contracts/GeekNft.sol\":3642:3657  result[counter] */\n      dup2\n      mload\n      dup2\n      lt\n      tag_87\n      jumpi\n      mstore(0x00, 0x4e487b7100000000000000000000000000000000000000000000000000000000)\n      mstore(0x04, 0x32)\n      revert(0x00, 0x24)\n    tag_87:\n      0x20\n      mul\n      0x20\n      add\n      add\n        /* \"contracts/GeekNft.sol\":3642:3668  result[counter] = items[i] */\n      dup2\n      swap1\n      mstore\n      pop\n        /* \"contracts/GeekNft.sol\":3686:3695  counter++ */\n      dup3\n      dup1\n      tag_88\n      swap1\n      tag_89\n      jump\t// in\n    tag_88:\n      swap4\n      pop\n      pop\n        /* \"contracts/GeekNft.sol\":3597:3710  if(items[i].toSell == true){... */\n    tag_84:\n        /* \"contracts/GeekNft.sol\":3578:3581  i++ */\n      dup1\n      dup1\n      tag_90\n      swap1\n      tag_89\n      jump\t// in\n    tag_90:\n      swap2\n      pop\n      pop\n        /* \"contracts/GeekNft.sol\":3544:3720  for(uint i = 0; i < items.length; i++) {... */\n      jump(tag_79)\n    tag_80:\n      pop\n        /* \"contracts/GeekNft.sol\":3737:3743  result */\n      dup1\n        /* \"contracts/GeekNft.sol\":3730:3743  return result */\n      swap3\n      pop\n      pop\n      pop\n        /* \"contracts/GeekNft.sol\":3383:3750  function fetchItemsToSell() public view returns (Item[] memory){... */\n      swap1\n      jump\t// out\n        /* \"contracts/GeekNft.sol\":4146:4533  function fetchItemsByCatId(uint _catId) public view returns (Item[] memory){... */\n    tag_24:\n        /* \"contracts/GeekNft.sol\":4207:4220  Item[] memory */\n      0x60\n        /* \"contracts/GeekNft.sol\":4231:4243  uint counter */\n      0x00\n        /* \"contracts/GeekNft.sol\":4257:4277  Item[] memory result */\n      dup1\n        /* \"contracts/GeekNft.sol\":4291:4306  itemsCatIdCount */\n      0x08\n        /* \"contracts/GeekNft.sol\":4291:4314  itemsCatIdCount[_catId] */\n      0x00\n        /* \"contracts/GeekNft.sol\":4307:4313  _catId */\n      dup6\n        /* \"contracts/GeekNft.sol\":4291:4314  itemsCatIdCount[_catId] */\n      dup2\n      mstore\n      0x20\n      add\n      swap1\n      dup2\n      mstore\n      0x20\n      add\n      0x00\n      keccak256\n      sload\n        /* \"contracts/GeekNft.sol\":4280:4315  new Item[](itemsCatIdCount[_catId]) */\n      0xffffffffffffffff\n      dup2\n      gt\n      iszero\n      tag_92\n      jumpi\n      mstore(0x00, 0x4e487b7100000000000000000000000000000000000000000000000000000000)\n      mstore(0x04, 0x41)\n      revert(0x00, 0x24)\n    tag_92:\n      mload(0x40)\n      swap1\n      dup1\n      dup3\n      mstore\n      dup1\n      0x20\n      mul\n      0x20\n      add\n      dup3\n      add\n      0x40\n      mstore\n      dup1\n      iszero\n      tag_93\n      jumpi\n      dup2\n      0x20\n      add\n    tag_94:\n      tag_95\n      tag_78\n      jump\t// in\n    tag_95:\n      dup2\n      mstore\n      0x20\n      add\n      swap1\n      0x01\n      swap1\n      sub\n      swap1\n      dup2\n      tag_94\n      jumpi\n      swap1\n      pop\n    tag_93:\n      pop\n        /* \"contracts/GeekNft.sol\":4257:4315  Item[] memory result = new Item[](itemsCatIdCount[_catId]) */\n      swap1\n      pop\n        /* \"contracts/GeekNft.sol\":4330:4336  uint i */\n      0x00\n        /* \"contracts/GeekNft.sol\":4326:4503  for(uint i = 0; i < items.length; i++) {... */\n    tag_96:\n        /* \"contracts/GeekNft.sol\":4346:4351  items */\n      0x03\n        /* \"contracts/GeekNft.sol\":4346:4358  items.length */\n      dup1\n      sload\n      swap1\n      pop\n        /* \"contracts/GeekNft.sol\":4342:4343  i */\n      dup2\n        /* \"contracts/GeekNft.sol\":4342:4358  i < items.length */\n      lt\n        /* \"contracts/GeekNft.sol\":4326:4503  for(uint i = 0; i < items.length; i++) {... */\n      iszero\n      tag_97\n      jumpi\n        /* \"contracts/GeekNft.sol\":4400:4406  _catId */\n      dup5\n        /* \"contracts/GeekNft.sol\":4382:4387  items */\n      0x03\n        /* \"contracts/GeekNft.sol\":4388:4389  i */\n      dup3\n        /* \"contracts/GeekNft.sol\":4382:4390  items[i] */\n      dup2\n      sload\n      dup2\n      lt\n      tag_99\n      jumpi\n      mstore(0x00, 0x4e487b7100000000000000000000000000000000000000000000000000000000)\n      mstore(0x04, 0x32)\n      revert(0x00, 0x24)\n    tag_99:\n      swap1\n      0x00\n      mstore\n      keccak256(0x00, 0x20)\n      swap1\n      0x04\n      mul\n      add\n        /* \"contracts/GeekNft.sol\":4382:4396  items[i].catId */\n      0x02\n      add\n      sload\n        /* \"contracts/GeekNft.sol\":4382:4406  items[i].catId == _catId */\n      eq\n        /* \"contracts/GeekNft.sol\":4379:4493  if(items[i].catId == _catId){... */\n      iszero\n      tag_101\n      jumpi\n        /* \"contracts/GeekNft.sol\":4443:4448  items */\n      0x03\n        /* \"contracts/GeekNft.sol\":4449:4450  i */\n      dup2\n        /* \"contracts/GeekNft.sol\":4443:4451  items[i] */\n      dup2\n      sload\n      dup2\n      lt\n      tag_102\n      jumpi\n      mstore(0x00, 0x4e487b7100000000000000000000000000000000000000000000000000000000)\n      mstore(0x04, 0x32)\n      revert(0x00, 0x24)\n    tag_102:\n      swap1\n      0x00\n      mstore\n      keccak256(0x00, 0x20)\n      swap1\n      0x04\n      mul\n      add\n        /* \"contracts/GeekNft.sol\":4425:4451  result[counter] = items[i] */\n      mload(0x40)\n      dup1\n      0x80\n      add\n      0x40\n      mstore\n      swap1\n      dup2\n      0x00\n      dup3\n      add\n      sload\n      dup2\n      mstore\n      0x20\n      add\n      0x01\n      dup3\n      add\n      sload\n      dup2\n      mstore\n      0x20\n      add\n      0x02\n      dup3\n      add\n      sload\n      dup2\n      mstore\n      0x20\n      add\n      0x03\n      dup3\n      add\n      0x00\n      swap1\n      sload\n      swap1\n      0x0100\n      exp\n      swap1\n      div\n      0xff\n      and\n      iszero\n      iszero\n      iszero\n      iszero\n      dup2\n      mstore\n      pop\n      pop\n        /* \"contracts/GeekNft.sol\":4425:4431  result */\n      dup3\n        /* \"contracts/GeekNft.sol\":4432:4439  counter */\n      dup5\n        /* \"contracts/GeekNft.sol\":4425:4440  result[counter] */\n      dup2\n      mload\n      dup2\n      lt\n      tag_104\n      jumpi\n      mstore(0x00, 0x4e487b7100000000000000000000000000000000000000000000000000000000)\n      mstore(0x04, 0x32)\n      revert(0x00, 0x24)\n    tag_104:\n      0x20\n      mul\n      0x20\n      add\n      add\n        /* \"contracts/GeekNft.sol\":4425:4451  result[counter] = items[i] */\n      dup2\n      swap1\n      mstore\n      pop\n        /* \"contracts/GeekNft.sol\":4469:4478  counter++ */\n      dup3\n      dup1\n      tag_105\n      swap1\n      tag_89\n      jump\t// in\n    tag_105:\n      swap4\n      pop\n      pop\n        /* \"contracts/GeekNft.sol\":4379:4493  if(items[i].catId == _catId){... */\n    tag_101:\n        /* \"contracts/GeekNft.sol\":4360:4363  i++ */\n      dup1\n      dup1\n      tag_106\n      swap1\n      tag_89\n      jump\t// in\n    tag_106:\n      swap2\n      pop\n      pop\n        /* \"contracts/GeekNft.sol\":4326:4503  for(uint i = 0; i < items.length; i++) {... */\n      jump(tag_96)\n    tag_97:\n      pop\n        /* \"contracts/GeekNft.sol\":4520:4526  result */\n      dup1\n        /* \"contracts/GeekNft.sol\":4513:4526  return result */\n      swap3\n      pop\n      pop\n      pop\n        /* \"contracts/GeekNft.sol\":4146:4533  function fetchItemsByCatId(uint _catId) public view returns (Item[] memory){... */\n      swap2\n      swap1\n      pop\n      jump\t// out\n        /* \"contracts/GeekNft.sol\":918:1041  function modifyFeesPercentage(uint _newPercentage) public onlyContractOwner{... */\n    tag_29:\n        /* \"contracts/GeekNft.sol\":702:707  owner */\n      0x02\n      0x00\n      swap1\n      sload\n      swap1\n      0x0100\n      exp\n      swap1\n      div\n      0xffffffffffffffffffffffffffffffffffffffff\n      and\n        /* \"contracts/GeekNft.sol\":688:707  msg.sender == owner */\n      0xffffffffffffffffffffffffffffffffffffffff\n      and\n        /* \"contracts/GeekNft.sol\":688:698  msg.sender */\n      caller\n        /* \"contracts/GeekNft.sol\":688:707  msg.sender == owner */\n      0xffffffffffffffffffffffffffffffffffffffff\n      and\n      eq\n        /* \"contracts/GeekNft.sol\":680:745  require(msg.sender == owner, \"Only contract's owner can do that\") */\n      tag_108\n      jumpi\n      mload(0x40)\n      0x08c379a000000000000000000000000000000000000000000000000000000000\n      dup2\n      mstore\n      0x04\n      add\n      tag_109\n      swap1\n      tag_110\n      jump\t// in\n    tag_109:\n      mload(0x40)\n      dup1\n      swap2\n      sub\n      swap1\n      revert\n    tag_108:\n        /* \"contracts/GeekNft.sol\":1020:1034  _newPercentage */\n      dup1\n        /* \"contracts/GeekNft.sol\":1003:1017  feesPercentage */\n      0x05\n        /* \"contracts/GeekNft.sol\":1003:1034  feesPercentage = _newPercentage */\n      dup2\n      swap1\n      sstore\n      pop\n        /* \"contracts/GeekNft.sol\":918:1041  function modifyFeesPercentage(uint _newPercentage) public onlyContractOwner{... */\n      pop\n      jump\t// out\n        /* \"contracts/GeekNft.sol\":3756:4140  function fetchItemsByOwner() public view returns (Item[] memory){... */\n    tag_32:\n        /* \"contracts/GeekNft.sol\":3806:3819  Item[] memory */\n      0x60\n        /* \"contracts/GeekNft.sol\":3830:3842  uint counter */\n      0x00\n        /* \"contracts/GeekNft.sol\":3856:3876  Item[] memory result */\n      dup1\n        /* \"contracts/GeekNft.sol\":3890:3905  itemsOwnerCount */\n      0x07\n        /* \"contracts/GeekNft.sol\":3890:3917  itemsOwnerCount[msg.sender] */\n      0x00\n        /* \"contracts/GeekNft.sol\":3906:3916  msg.sender */\n      caller\n        /* \"contracts/GeekNft.sol\":3890:3917  itemsOwnerCount[msg.sender] */\n      0xffffffffffffffffffffffffffffffffffffffff\n      and\n      0xffffffffffffffffffffffffffffffffffffffff\n      and\n      dup2\n      mstore\n      0x20\n      add\n      swap1\n      dup2\n      mstore\n      0x20\n      add\n      0x00\n      keccak256\n      sload\n        /* \"contracts/GeekNft.sol\":3879:3918  new Item[](itemsOwnerCount[msg.sender]) */\n      0xffffffffffffffff\n      dup2\n      gt\n      iszero\n      tag_113\n      jumpi\n      mstore(0x00, 0x4e487b7100000000000000000000000000000000000000000000000000000000)\n      mstore(0x04, 0x41)\n      revert(0x00, 0x24)\n    tag_113:\n      mload(0x40)\n      swap1\n      dup1\n      dup3\n      mstore\n      dup1\n      0x20\n      mul\n      0x20\n      add\n      dup3\n      add\n      0x40\n      mstore\n      dup1\n      iszero\n      tag_114\n      jumpi\n      dup2\n      0x20\n      add\n    tag_115:\n      tag_116\n      tag_78\n      jump\t// in\n    tag_116:\n      dup2\n      mstore\n      0x20\n      add\n      swap1\n      0x01\n      swap1\n      sub\n      swap1\n      dup2\n      tag_115\n      jumpi\n      swap1\n      pop\n    tag_114:\n      pop\n        /* \"contracts/GeekNft.sol\":3856:3918  Item[] memory result = new Item[](itemsOwnerCount[msg.sender]) */\n      swap1\n      pop\n        /* \"contracts/GeekNft.sol\":3933:3939  uint i */\n      0x00\n        /* \"contracts/GeekNft.sol\":3929:4110  for(uint i = 0; i < items.length; i++) {... */\n    tag_117:\n        /* \"contracts/GeekNft.sol\":3949:3954  items */\n      0x03\n        /* \"contracts/GeekNft.sol\":3949:3961  items.length */\n      dup1\n      sload\n      swap1\n      pop\n        /* \"contracts/GeekNft.sol\":3945:3946  i */\n      dup2\n        /* \"contracts/GeekNft.sol\":3945:3961  i < items.length */\n      lt\n        /* \"contracts/GeekNft.sol\":3929:4110  for(uint i = 0; i < items.length; i++) {... */\n      iszero\n      tag_118\n      jumpi\n        /* \"contracts/GeekNft.sol\":4003:4013  msg.sender */\n      caller\n        /* \"contracts/GeekNft.sol\":3985:4013  itemToOwner[i] == msg.sender */\n      0xffffffffffffffffffffffffffffffffffffffff\n      and\n        /* \"contracts/GeekNft.sol\":3985:3996  itemToOwner */\n      0x06\n        /* \"contracts/GeekNft.sol\":3985:3999  itemToOwner[i] */\n      0x00\n        /* \"contracts/GeekNft.sol\":3997:3998  i */\n      dup4\n        /* \"contracts/GeekNft.sol\":3985:3999  itemToOwner[i] */\n      dup2\n      mstore\n      0x20\n      add\n      swap1\n      dup2\n      mstore\n      0x20\n      add\n      0x00\n      keccak256\n      0x00\n      swap1\n      sload\n      swap1\n      0x0100\n      exp\n      swap1\n      div\n      0xffffffffffffffffffffffffffffffffffffffff\n      and\n        /* \"contracts/GeekNft.sol\":3985:4013  itemToOwner[i] == msg.sender */\n      0xffffffffffffffffffffffffffffffffffffffff\n      and\n      eq\n        /* \"contracts/GeekNft.sol\":3982:4100  if(itemToOwner[i] == msg.sender){... */\n      iszero\n      tag_120\n      jumpi\n        /* \"contracts/GeekNft.sol\":4050:4055  items */\n      0x03\n        /* \"contracts/GeekNft.sol\":4056:4057  i */\n      dup2\n        /* \"contracts/GeekNft.sol\":4050:4058  items[i] */\n      dup2\n      sload\n      dup2\n      lt\n      tag_121\n      jumpi\n      mstore(0x00, 0x4e487b7100000000000000000000000000000000000000000000000000000000)\n      mstore(0x04, 0x32)\n      revert(0x00, 0x24)\n    tag_121:\n      swap1\n      0x00\n      mstore\n      keccak256(0x00, 0x20)\n      swap1\n      0x04\n      mul\n      add\n        /* \"contracts/GeekNft.sol\":4032:4058  result[counter] = items[i] */\n      mload(0x40)\n      dup1\n      0x80\n      add\n      0x40\n      mstore\n      swap1\n      dup2\n      0x00\n      dup3\n      add\n      sload\n      dup2\n      mstore\n      0x20\n      add\n      0x01\n      dup3\n      add\n      sload\n      dup2\n      mstore\n      0x20\n      add\n      0x02\n      dup3\n      add\n      sload\n      dup2\n      mstore\n      0x20\n      add\n      0x03\n      dup3\n      add\n      0x00\n      swap1\n      sload\n      swap1\n      0x0100\n      exp\n      swap1\n      div\n      0xff\n      and\n      iszero\n      iszero\n      iszero\n      iszero\n      dup2\n      mstore\n      pop\n      pop\n        /* \"contracts/GeekNft.sol\":4032:4038  result */\n      dup3\n        /* \"contracts/GeekNft.sol\":4039:4046  counter */\n      dup5\n        /* \"contracts/GeekNft.sol\":4032:4047  result[counter] */\n      dup2\n      mload\n      dup2\n      lt\n      tag_123\n      jumpi\n      mstore(0x00, 0x4e487b7100000000000000000000000000000000000000000000000000000000)\n      mstore(0x04, 0x32)\n      revert(0x00, 0x24)\n    tag_123:\n      0x20\n      mul\n      0x20\n      add\n      add\n        /* \"contracts/GeekNft.sol\":4032:4058  result[counter] = items[i] */\n      dup2\n      swap1\n      mstore\n      pop\n        /* \"contracts/GeekNft.sol\":4076:4085  counter++ */\n      dup3\n      dup1\n      tag_124\n      swap1\n      tag_89\n      jump\t// in\n    tag_124:\n      swap4\n      pop\n      pop\n        /* \"contracts/GeekNft.sol\":3982:4100  if(itemToOwner[i] == msg.sender){... */\n    tag_120:\n        /* \"contracts/GeekNft.sol\":3963:3966  i++ */\n      dup1\n      dup1\n      tag_125\n      swap1\n      tag_89\n      jump\t// in\n    tag_125:\n      swap2\n      pop\n      pop\n        /* \"contracts/GeekNft.sol\":3929:4110  for(uint i = 0; i < items.length; i++) {... */\n      jump(tag_117)\n    tag_118:\n      pop\n        /* \"contracts/GeekNft.sol\":4127:4133  result */\n      dup1\n        /* \"contracts/GeekNft.sol\":4120:4133  return result */\n      swap3\n      pop\n      pop\n      pop\n        /* \"contracts/GeekNft.sol\":3756:4140  function fetchItemsByOwner() public view returns (Item[] memory){... */\n      swap1\n      jump\t// out\n        /* \"contracts/GeekNft.sol\":2485:2591  function ownerOf(uint _tokenId) public view returns (address){... */\n    tag_37:\n        /* \"contracts/GeekNft.sol\":2538:2545  address */\n      0x00\n        /* \"contracts/GeekNft.sol\":2563:2574  itemToOwner */\n      0x06\n        /* \"contracts/GeekNft.sol\":2563:2584  itemToOwner[_tokenId] */\n      0x00\n        /* \"contracts/GeekNft.sol\":2575:2583  _tokenId */\n      dup4\n        /* \"contracts/GeekNft.sol\":2563:2584  itemToOwner[_tokenId] */\n      dup2\n      mstore\n      0x20\n      add\n      swap1\n      dup2\n      mstore\n      0x20\n      add\n      0x00\n      keccak256\n      0x00\n      swap1\n      sload\n      swap1\n      0x0100\n      exp\n      swap1\n      div\n      0xffffffffffffffffffffffffffffffffffffffff\n      and\n        /* \"contracts/GeekNft.sol\":2556:2584  return itemToOwner[_tokenId] */\n      swap1\n      pop\n        /* \"contracts/GeekNft.sol\":2485:2591  function ownerOf(uint _tokenId) public view returns (address){... */\n      swap2\n      swap1\n      pop\n      jump\t// out\n        /* \"contracts/GeekNft.sol\":2597:2705  function balanceOf(address _owner) public view returns (uint){... */\n    tag_44:\n        /* \"contracts/GeekNft.sol\":2653:2657  uint */\n      0x00\n        /* \"contracts/GeekNft.sol\":2675:2690  itemsOwnerCount */\n      0x07\n        /* \"contracts/GeekNft.sol\":2675:2698  itemsOwnerCount[_owner] */\n      0x00\n        /* \"contracts/GeekNft.sol\":2691:2697  _owner */\n      dup4\n        /* \"contracts/GeekNft.sol\":2675:2698  itemsOwnerCount[_owner] */\n      0xffffffffffffffffffffffffffffffffffffffff\n      and\n      0xffffffffffffffffffffffffffffffffffffffff\n      and\n      dup2\n      mstore\n      0x20\n      add\n      swap1\n      dup2\n      mstore\n      0x20\n      add\n      0x00\n      keccak256\n      sload\n        /* \"contracts/GeekNft.sol\":2668:2698  return itemsOwnerCount[_owner] */\n      swap1\n      pop\n        /* \"contracts/GeekNft.sol\":2597:2705  function balanceOf(address _owner) public view returns (uint){... */\n      swap2\n      swap1\n      pop\n      jump\t// out\n        /* \"contracts/GeekNft.sol\":1693:2479  function sellItem(uint _tokenId) public payable{... */\n    tag_49:\n        /* \"contracts/GeekNft.sol\":1771:1776  items */\n      0x03\n        /* \"contracts/GeekNft.sol\":1777:1785  _tokenId */\n      dup2\n        /* \"contracts/GeekNft.sol\":1771:1786  items[_tokenId] */\n      dup2\n      sload\n      dup2\n      lt\n      tag_129\n      jumpi\n      mstore(0x00, 0x4e487b7100000000000000000000000000000000000000000000000000000000)\n      mstore(0x04, 0x32)\n      revert(0x00, 0x24)\n    tag_129:\n      swap1\n      0x00\n      mstore\n      keccak256(0x00, 0x20)\n      swap1\n      0x04\n      mul\n      add\n        /* \"contracts/GeekNft.sol\":1771:1792  items[_tokenId].price */\n      0x01\n      add\n      sload\n        /* \"contracts/GeekNft.sol\":1758:1767  msg.value */\n      callvalue\n        /* \"contracts/GeekNft.sol\":1758:1792  msg.value == items[_tokenId].price */\n      eq\n        /* \"contracts/GeekNft.sol\":1750:1793  require(msg.value == items[_tokenId].price) */\n      tag_131\n      jumpi\n      0x00\n      dup1\n      revert\n    tag_131:\n        /* \"contracts/GeekNft.sol\":1844:1845  0 */\n      0x00\n        /* \"contracts/GeekNft.sol\":1811:1846  itemToOwner[_tokenId] != address(0) */\n      0xffffffffffffffffffffffffffffffffffffffff\n      and\n        /* \"contracts/GeekNft.sol\":1811:1822  itemToOwner */\n      0x06\n        /* \"contracts/GeekNft.sol\":1811:1832  itemToOwner[_tokenId] */\n      0x00\n        /* \"contracts/GeekNft.sol\":1823:1831  _tokenId */\n      dup4\n        /* \"contracts/GeekNft.sol\":1811:1832  itemToOwner[_tokenId] */\n      dup2\n      mstore\n      0x20\n      add\n      swap1\n      dup2\n      mstore\n      0x20\n      add\n      0x00\n      keccak256\n      0x00\n      swap1\n      sload\n      swap1\n      0x0100\n      exp\n      swap1\n      div\n      0xffffffffffffffffffffffffffffffffffffffff\n      and\n        /* \"contracts/GeekNft.sol\":1811:1846  itemToOwner[_tokenId] != address(0) */\n      0xffffffffffffffffffffffffffffffffffffffff\n      and\n      eq\n      iszero\n        /* \"contracts/GeekNft.sol\":1803:1870  require(itemToOwner[_tokenId] != address(0), \"token doesn't exist\") */\n      tag_132\n      jumpi\n      mload(0x40)\n      0x08c379a000000000000000000000000000000000000000000000000000000000\n      dup2\n      mstore\n      0x04\n      add\n      tag_133\n      swap1\n      tag_134\n      jump\t// in\n    tag_133:\n      mload(0x40)\n      dup1\n      swap2\n      sub\n      swap1\n      revert\n    tag_132:\n        /* \"contracts/GeekNft.sol\":1881:1897  address oldOwner */\n      0x00\n        /* \"contracts/GeekNft.sol\":1900:1911  itemToOwner */\n      0x06\n        /* \"contracts/GeekNft.sol\":1900:1921  itemToOwner[_tokenId] */\n      0x00\n        /* \"contracts/GeekNft.sol\":1912:1920  _tokenId */\n      dup4\n        /* \"contracts/GeekNft.sol\":1900:1921  itemToOwner[_tokenId] */\n      dup2\n      mstore\n      0x20\n      add\n      swap1\n      dup2\n      mstore\n      0x20\n      add\n      0x00\n      keccak256\n      0x00\n      swap1\n      sload\n      swap1\n      0x0100\n      exp\n      swap1\n      div\n      0xffffffffffffffffffffffffffffffffffffffff\n      and\n        /* \"contracts/GeekNft.sol\":1881:1921  address oldOwner = itemToOwner[_tokenId] */\n      swap1\n      pop\n        /* \"contracts/GeekNft.sol\":1940:1963  Item storage itemToSell */\n      0x00\n        /* \"contracts/GeekNft.sol\":1966:1971  items */\n      0x03\n        /* \"contracts/GeekNft.sol\":1972:1980  _tokenId */\n      dup4\n        /* \"contracts/GeekNft.sol\":1966:1981  items[_tokenId] */\n      dup2\n      sload\n      dup2\n      lt\n      tag_135\n      jumpi\n      mstore(0x00, 0x4e487b7100000000000000000000000000000000000000000000000000000000)\n      mstore(0x04, 0x32)\n      revert(0x00, 0x24)\n    tag_135:\n      swap1\n      0x00\n      mstore\n      keccak256(0x00, 0x20)\n      swap1\n      0x04\n      mul\n      add\n        /* \"contracts/GeekNft.sol\":1940:1981  Item storage itemToSell = items[_tokenId] */\n      swap1\n      pop\n        /* \"contracts/GeekNft.sol\":2011:2016  false */\n      0x00\n        /* \"contracts/GeekNft.sol\":1991:2001  itemToSell */\n      dup2\n        /* \"contracts/GeekNft.sol\":1991:2008  itemToSell.toSell */\n      0x03\n      add\n      0x00\n        /* \"contracts/GeekNft.sol\":1991:2016  itemToSell.toSell = false */\n      0x0100\n      exp\n      dup2\n      sload\n      dup2\n      0xff\n      mul\n      not\n      and\n      swap1\n      dup4\n      iszero\n      iszero\n      mul\n      or\n      swap1\n      sstore\n      pop\n        /* \"contracts/GeekNft.sol\":2051:2061  msg.sender */\n      caller\n        /* \"contracts/GeekNft.sol\":2027:2038  itemToOwner */\n      0x06\n        /* \"contracts/GeekNft.sol\":2027:2048  itemToOwner[_tokenId] */\n      0x00\n        /* \"contracts/GeekNft.sol\":2039:2047  _tokenId */\n      dup6\n        /* \"contracts/GeekNft.sol\":2027:2048  itemToOwner[_tokenId] */\n      dup2\n      mstore\n      0x20\n      add\n      swap1\n      dup2\n      mstore\n      0x20\n      add\n      0x00\n      keccak256\n      0x00\n        /* \"contracts/GeekNft.sol\":2027:2061  itemToOwner[_tokenId] = msg.sender */\n      0x0100\n      exp\n      dup2\n      sload\n      dup2\n      0xffffffffffffffffffffffffffffffffffffffff\n      mul\n      not\n      and\n      swap1\n      dup4\n      0xffffffffffffffffffffffffffffffffffffffff\n      and\n      mul\n      or\n      swap1\n      sstore\n      pop\n        /* \"contracts/GeekNft.sol\":2095:2110  itemsOwnerCount */\n      0x07\n        /* \"contracts/GeekNft.sol\":2095:2120  itemsOwnerCount[oldOwner] */\n      0x00\n        /* \"contracts/GeekNft.sol\":2111:2119  oldOwner */\n      dup4\n        /* \"contracts/GeekNft.sol\":2095:2120  itemsOwnerCount[oldOwner] */\n      0xffffffffffffffffffffffffffffffffffffffff\n      and\n      0xffffffffffffffffffffffffffffffffffffffff\n      and\n      dup2\n      mstore\n      0x20\n      add\n      swap1\n      dup2\n      mstore\n      0x20\n      add\n      0x00\n      keccak256\n      0x00\n        /* \"contracts/GeekNft.sol\":2095:2122  itemsOwnerCount[oldOwner]-- */\n      dup2\n      sload\n      dup1\n      swap3\n      swap2\n      swap1\n      0x01\n      swap1\n      sub\n      swap2\n      swap1\n      pop\n      sstore\n      pop\n        /* \"contracts/GeekNft.sol\":2136:2151  itemsOwnerCount */\n      0x07\n        /* \"contracts/GeekNft.sol\":2136:2163  itemsOwnerCount[msg.sender] */\n      0x00\n        /* \"contracts/GeekNft.sol\":2152:2162  msg.sender */\n      caller\n        /* \"contracts/GeekNft.sol\":2136:2163  itemsOwnerCount[msg.sender] */\n      0xffffffffffffffffffffffffffffffffffffffff\n      and\n      0xffffffffffffffffffffffffffffffffffffffff\n      and\n      dup2\n      mstore\n      0x20\n      add\n      swap1\n      dup2\n      mstore\n      0x20\n      add\n      0x00\n      keccak256\n      0x00\n        /* \"contracts/GeekNft.sol\":2136:2165  itemsOwnerCount[msg.sender]++ */\n      dup2\n      sload\n      dup1\n      swap3\n      swap2\n      swap1\n      0x01\n      add\n      swap2\n      swap1\n      pop\n      sstore\n      pop\n        /* \"contracts/GeekNft.sol\":2179:2195  itemsToSellCount */\n      0x04\n      0x00\n        /* \"contracts/GeekNft.sol\":2179:2197  itemsToSellCount-- */\n      dup2\n      sload\n      dup1\n      swap3\n      swap2\n      swap1\n      0x01\n      swap1\n      sub\n      swap2\n      swap1\n      pop\n      sstore\n      pop\n        /* \"contracts/GeekNft.sol\":2218:2227  uint fees */\n      0x00\n        /* \"contracts/GeekNft.sol\":2237:2256  uint totalMinusFees */\n      dup1\n        /* \"contracts/GeekNft.sol\":2291:2325  getFees(msg.value, feesPercentage) */\n      tag_137\n        /* \"contracts/GeekNft.sol\":2299:2308  msg.value */\n      callvalue\n        /* \"contracts/GeekNft.sol\":2310:2324  feesPercentage */\n      sload(0x05)\n        /* \"contracts/GeekNft.sol\":2291:2298  getFees */\n      tag_138\n        /* \"contracts/GeekNft.sol\":2291:2325  getFees(msg.value, feesPercentage) */\n      jump\t// in\n    tag_137:\n        /* \"contracts/GeekNft.sol\":2266:2325  (fees, totalMinusFees) = getFees(msg.value, feesPercentage) */\n      dup1\n      swap3\n      pop\n      dup2\n      swap4\n      pop\n      pop\n      pop\n        /* \"contracts/GeekNft.sol\":2343:2348  owner */\n      0x02\n      0x00\n      swap1\n      sload\n      swap1\n      0x0100\n      exp\n      swap1\n      div\n      0xffffffffffffffffffffffffffffffffffffffff\n      and\n        /* \"contracts/GeekNft.sol\":2335:2358  payable(owner).transfer */\n      0xffffffffffffffffffffffffffffffffffffffff\n      and\n        /* \"contracts/GeekNft.sol\":2335:2364  payable(owner).transfer(fees) */\n      0x08fc\n        /* \"contracts/GeekNft.sol\":2359:2363  fees */\n      dup4\n        /* \"contracts/GeekNft.sol\":2335:2364  payable(owner).transfer(fees) */\n      swap1\n      dup2\n      iszero\n      mul\n      swap1\n      mload(0x40)\n      0x00\n      mload(0x40)\n      dup1\n      dup4\n      sub\n      dup2\n      dup6\n      dup9\n      dup9\n      call\n      swap4\n      pop\n      pop\n      pop\n      pop\n      iszero\n      dup1\n      iszero\n      tag_140\n      jumpi\n      returndatasize\n      0x00\n      dup1\n      returndatacopy\n      revert(0x00, returndatasize)\n    tag_140:\n      pop\n        /* \"contracts/GeekNft.sol\":2382:2390  oldOwner */\n      dup4\n        /* \"contracts/GeekNft.sol\":2374:2400  payable(oldOwner).transfer */\n      0xffffffffffffffffffffffffffffffffffffffff\n      and\n        /* \"contracts/GeekNft.sol\":2374:2416  payable(oldOwner).transfer(totalMinusFees) */\n      0x08fc\n        /* \"contracts/GeekNft.sol\":2401:2415  totalMinusFees */\n      dup3\n        /* \"contracts/GeekNft.sol\":2374:2416  payable(oldOwner).transfer(totalMinusFees) */\n      swap1\n      dup2\n      iszero\n      mul\n      swap1\n      mload(0x40)\n      0x00\n      mload(0x40)\n      dup1\n      dup4\n      sub\n      dup2\n      dup6\n      dup9\n      dup9\n      call\n      swap4\n      pop\n      pop\n      pop\n      pop\n      iszero\n      dup1\n      iszero\n      tag_142\n      jumpi\n      returndatasize\n      0x00\n      dup1\n      returndatacopy\n      revert(0x00, returndatasize)\n    tag_142:\n      pop\n        /* \"contracts/GeekNft.sol\":2451:2461  msg.sender */\n      caller\n        /* \"contracts/GeekNft.sol\":2432:2472  Transfer(oldOwner, msg.sender, _tokenId) */\n      0xffffffffffffffffffffffffffffffffffffffff\n      and\n        /* \"contracts/GeekNft.sol\":2441:2449  oldOwner */\n      dup5\n        /* \"contracts/GeekNft.sol\":2432:2472  Transfer(oldOwner, msg.sender, _tokenId) */\n      0xffffffffffffffffffffffffffffffffffffffff\n      and\n      0xddf252ad1be2c89b69c2b068fc378daa952ba7f163c4a11628f55a4df523b3ef\n        /* \"contracts/GeekNft.sol\":2463:2471  _tokenId */\n      dup8\n        /* \"contracts/GeekNft.sol\":2432:2472  Transfer(oldOwner, msg.sender, _tokenId) */\n      mload(0x40)\n      tag_143\n      swap2\n      swap1\n      tag_46\n      jump\t// in\n    tag_143:\n      mload(0x40)\n      dup1\n      swap2\n      sub\n      swap1\n      log3\n        /* \"contracts/GeekNft.sol\":1693:2479  function sellItem(uint _tokenId) public payable{... */\n      pop\n      pop\n      pop\n      pop\n      pop\n      jump\t// out\n        /* \"contracts/GeekNft.sol\":2711:3040  function removeItemToSell(uint _tokenId) public onlyItemOwner(_tokenId) {... */\n    tag_53:\n        /* \"contracts/GeekNft.sol\":2773:2781  _tokenId */\n      dup1\n        /* \"contracts/GeekNft.sol\":850:860  msg.sender */\n      caller\n        /* \"contracts/GeekNft.sol\":825:860  itemToOwner[_tokenId] == msg.sender */\n      0xffffffffffffffffffffffffffffffffffffffff\n      and\n        /* \"contracts/GeekNft.sol\":825:836  itemToOwner */\n      0x06\n        /* \"contracts/GeekNft.sol\":825:846  itemToOwner[_tokenId] */\n      0x00\n        /* \"contracts/GeekNft.sol\":837:845  _tokenId */\n      dup4\n        /* \"contracts/GeekNft.sol\":825:846  itemToOwner[_tokenId] */\n      dup2\n      mstore\n      0x20\n      add\n      swap1\n      dup2\n      mstore\n      0x20\n      add\n      0x00\n      keccak256\n      0x00\n      swap1\n      sload\n      swap1\n      0x0100\n      exp\n      swap1\n      div\n      0xffffffffffffffffffffffffffffffffffffffff\n      and\n        /* \"contracts/GeekNft.sol\":825:860  itemToOwner[_tokenId] == msg.sender */\n      0xffffffffffffffffffffffffffffffffffffffff\n      and\n      eq\n        /* \"contracts/GeekNft.sol\":817:894  require(itemToOwner[_tokenId] == msg.sender, \"Only item's owner can do that\") */\n      tag_145\n      jumpi\n      mload(0x40)\n      0x08c379a000000000000000000000000000000000000000000000000000000000\n      dup2\n      mstore\n      0x04\n      add\n      tag_146\n      swap1\n      tag_147\n      jump\t// in\n    tag_146:\n      mload(0x40)\n      dup1\n      swap2\n      sub\n      swap1\n      revert\n    tag_145:\n        /* \"contracts/GeekNft.sol\":2834:2835  0 */\n      0x00\n        /* \"contracts/GeekNft.sol\":2801:2836  itemToOwner[_tokenId] != address(0) */\n      0xffffffffffffffffffffffffffffffffffffffff\n      and\n        /* \"contracts/GeekNft.sol\":2801:2812  itemToOwner */\n      0x06\n        /* \"contracts/GeekNft.sol\":2801:2822  itemToOwner[_tokenId] */\n      0x00\n        /* \"contracts/GeekNft.sol\":2813:2821  _tokenId */\n      dup5\n        /* \"contracts/GeekNft.sol\":2801:2822  itemToOwner[_tokenId] */\n      dup2\n      mstore\n      0x20\n      add\n      swap1\n      dup2\n      mstore\n      0x20\n      add\n      0x00\n      keccak256\n      0x00\n      swap1\n      sload\n      swap1\n      0x0100\n      exp\n      swap1\n      div\n      0xffffffffffffffffffffffffffffffffffffffff\n      and\n        /* \"contracts/GeekNft.sol\":2801:2836  itemToOwner[_tokenId] != address(0) */\n      0xffffffffffffffffffffffffffffffffffffffff\n      and\n      eq\n      iszero\n        /* \"contracts/GeekNft.sol\":2793:2860  require(itemToOwner[_tokenId] != address(0), \"token doesn't exist\") */\n      tag_149\n      jumpi\n      mload(0x40)\n      0x08c379a000000000000000000000000000000000000000000000000000000000\n      dup2\n      mstore\n      0x04\n      add\n      tag_150\n      swap1\n      tag_134\n      jump\t// in\n    tag_150:\n      mload(0x40)\n      dup1\n      swap2\n      sub\n      swap1\n      revert\n    tag_149:\n        /* \"contracts/GeekNft.sol\":2904:2908  true */\n      0x01\n        /* \"contracts/GeekNft.sol\":2878:2908  items[_tokenId].toSell == true */\n      iszero\n      iszero\n        /* \"contracts/GeekNft.sol\":2878:2883  items */\n      0x03\n        /* \"contracts/GeekNft.sol\":2884:2892  _tokenId */\n      dup4\n        /* \"contracts/GeekNft.sol\":2878:2893  items[_tokenId] */\n      dup2\n      sload\n      dup2\n      lt\n      tag_151\n      jumpi\n      mstore(0x00, 0x4e487b7100000000000000000000000000000000000000000000000000000000)\n      mstore(0x04, 0x32)\n      revert(0x00, 0x24)\n    tag_151:\n      swap1\n      0x00\n      mstore\n      keccak256(0x00, 0x20)\n      swap1\n      0x04\n      mul\n      add\n        /* \"contracts/GeekNft.sol\":2878:2900  items[_tokenId].toSell */\n      0x03\n      add\n      0x00\n      swap1\n      sload\n      swap1\n      0x0100\n      exp\n      swap1\n      div\n      0xff\n      and\n        /* \"contracts/GeekNft.sol\":2878:2908  items[_tokenId].toSell == true */\n      iszero\n      iszero\n      eq\n        /* \"contracts/GeekNft.sol\":2870:2932  require(items[_tokenId].toSell == true, \"token isn't to sell\") */\n      tag_153\n      jumpi\n      mload(0x40)\n      0x08c379a000000000000000000000000000000000000000000000000000000000\n      dup2\n      mstore\n      0x04\n      add\n      tag_154\n      swap1\n      tag_155\n      jump\t// in\n    tag_154:\n      mload(0x40)\n      dup1\n      swap2\n      sub\n      swap1\n      revert\n    tag_153:\n        /* \"contracts/GeekNft.sol\":2967:2972  false */\n      0x00\n        /* \"contracts/GeekNft.sol\":2942:2947  items */\n      0x03\n        /* \"contracts/GeekNft.sol\":2948:2956  _tokenId */\n      dup4\n        /* \"contracts/GeekNft.sol\":2942:2957  items[_tokenId] */\n      dup2\n      sload\n      dup2\n      lt\n      tag_156\n      jumpi\n      mstore(0x00, 0x4e487b7100000000000000000000000000000000000000000000000000000000)\n      mstore(0x04, 0x32)\n      revert(0x00, 0x24)\n    tag_156:\n      swap1\n      0x00\n      mstore\n      keccak256(0x00, 0x20)\n      swap1\n      0x04\n      mul\n      add\n        /* \"contracts/GeekNft.sol\":2942:2964  items[_tokenId].toSell */\n      0x03\n      add\n      0x00\n        /* \"contracts/GeekNft.sol\":2942:2972  items[_tokenId].toSell = false */\n      0x0100\n      exp\n      dup2\n      sload\n      dup2\n      0xff\n      mul\n      not\n      and\n      swap1\n      dup4\n      iszero\n      iszero\n      mul\n      or\n      swap1\n      sstore\n      pop\n        /* \"contracts/GeekNft.sol\":3005:3021  itemsToSellCount */\n      0x04\n      0x00\n        /* \"contracts/GeekNft.sol\":3005:3023  itemsToSellCount-- */\n      dup2\n      sload\n      dup1\n      swap3\n      swap2\n      swap1\n      0x01\n      swap1\n      sub\n      swap2\n      swap1\n      pop\n      sstore\n      pop\n        /* \"contracts/GeekNft.sol\":2711:3040  function removeItemToSell(uint _tokenId) public onlyItemOwner(_tokenId) {... */\n      pop\n      pop\n      jump\t// out\n        /* \"contracts/GeekNft.sol\":1147:1687  function createItem(uint _price, uint _catId) public returns (uint){... */\n    tag_58:\n        /* \"contracts/GeekNft.sol\":1209:1213  uint */\n      0x00\n        /* \"contracts/GeekNft.sol\":1241:1242  0 */\n      dup1\n        /* \"contracts/GeekNft.sol\":1232:1238  _price */\n      dup4\n        /* \"contracts/GeekNft.sol\":1232:1242  _price > 0 */\n      gt\n        /* \"contracts/GeekNft.sol\":1224:1273  require(_price > 0, \"Price cannot be equal to 0\") */\n      tag_159\n      jumpi\n      mload(0x40)\n      0x08c379a000000000000000000000000000000000000000000000000000000000\n      dup2\n      mstore\n      0x04\n      add\n      tag_160\n      swap1\n      tag_161\n      jump\t// in\n    tag_160:\n      mload(0x40)\n      dup1\n      swap2\n      sub\n      swap1\n      revert\n    tag_159:\n        /* \"contracts/GeekNft.sol\":1283:1298  uint newTokenId */\n      0x00\n        /* \"contracts/GeekNft.sol\":1301:1306  items */\n      0x03\n        /* \"contracts/GeekNft.sol\":1301:1313  items.length */\n      dup1\n      sload\n      swap1\n      pop\n        /* \"contracts/GeekNft.sol\":1283:1313  uint newTokenId = items.length */\n      swap1\n      pop\n        /* \"contracts/GeekNft.sol\":1367:1368  0 */\n      0x00\n        /* \"contracts/GeekNft.sol\":1332:1369  itemToOwner[newTokenId] == address(0) */\n      0xffffffffffffffffffffffffffffffffffffffff\n      and\n        /* \"contracts/GeekNft.sol\":1332:1343  itemToOwner */\n      0x06\n        /* \"contracts/GeekNft.sol\":1332:1355  itemToOwner[newTokenId] */\n      0x00\n        /* \"contracts/GeekNft.sol\":1344:1354  newTokenId */\n      dup4\n        /* \"contracts/GeekNft.sol\":1332:1355  itemToOwner[newTokenId] */\n      dup2\n      mstore\n      0x20\n      add\n      swap1\n      dup2\n      mstore\n      0x20\n      add\n      0x00\n      keccak256\n      0x00\n      swap1\n      sload\n      swap1\n      0x0100\n      exp\n      swap1\n      div\n      0xffffffffffffffffffffffffffffffffffffffff\n      and\n        /* \"contracts/GeekNft.sol\":1332:1369  itemToOwner[newTokenId] == address(0) */\n      0xffffffffffffffffffffffffffffffffffffffff\n      and\n      eq\n        /* \"contracts/GeekNft.sol\":1324:1393  require(itemToOwner[newTokenId] == address(0), \"token already exist\") */\n      tag_162\n      jumpi\n      mload(0x40)\n      0x08c379a000000000000000000000000000000000000000000000000000000000\n      dup2\n      mstore\n      0x04\n      add\n      tag_163\n      swap1\n      tag_164\n      jump\t// in\n    tag_163:\n      mload(0x40)\n      dup1\n      swap2\n      sub\n      swap1\n      revert\n    tag_162:\n        /* \"contracts/GeekNft.sol\":1424:1462  Item(newTokenId, _price, _catId, true) */\n      mload(0x40)\n      dup1\n      0x80\n      add\n      0x40\n      mstore\n      dup1\n        /* \"contracts/GeekNft.sol\":1429:1439  newTokenId */\n      dup3\n        /* \"contracts/GeekNft.sol\":1424:1462  Item(newTokenId, _price, _catId, true) */\n      dup2\n      mstore\n      0x20\n      add\n        /* \"contracts/GeekNft.sol\":1441:1447  _price */\n      dup6\n        /* \"contracts/GeekNft.sol\":1424:1462  Item(newTokenId, _price, _catId, true) */\n      dup2\n      mstore\n      0x20\n      add\n        /* \"contracts/GeekNft.sol\":1449:1455  _catId */\n      dup5\n        /* \"contracts/GeekNft.sol\":1424:1462  Item(newTokenId, _price, _catId, true) */\n      dup2\n      mstore\n      0x20\n      add\n        /* \"contracts/GeekNft.sol\":1457:1461  true */\n      0x01\n        /* \"contracts/GeekNft.sol\":1424:1462  Item(newTokenId, _price, _catId, true) */\n      iszero\n      iszero\n      dup2\n      mstore\n      pop\n        /* \"contracts/GeekNft.sol\":1404:1409  items */\n      0x03\n        /* \"contracts/GeekNft.sol\":1410:1420  newTokenId */\n      dup3\n        /* \"contracts/GeekNft.sol\":1404:1421  items[newTokenId] */\n      dup2\n      sload\n      dup2\n      lt\n      tag_165\n      jumpi\n      mstore(0x00, 0x4e487b7100000000000000000000000000000000000000000000000000000000)\n      mstore(0x04, 0x32)\n      revert(0x00, 0x24)\n    tag_165:\n      swap1\n      0x00\n      mstore\n      keccak256(0x00, 0x20)\n      swap1\n      0x04\n      mul\n      add\n        /* \"contracts/GeekNft.sol\":1404:1462  items[newTokenId] = Item(newTokenId, _price, _catId, true) */\n      0x00\n      dup3\n      add\n      mload\n      dup2\n      0x00\n      add\n      sstore\n      0x20\n      dup3\n      add\n      mload\n      dup2\n      0x01\n      add\n      sstore\n      0x40\n      dup3\n      add\n      mload\n      dup2\n      0x02\n      add\n      sstore\n      0x60\n      dup3\n      add\n      mload\n      dup2\n      0x03\n      add\n      exp(0x0100, 0x00)\n      dup2\n      sload\n      dup2\n      0xff\n      mul\n      not\n      and\n      swap1\n      dup4\n      iszero\n      iszero\n      mul\n      or\n      swap1\n      sstore\n      pop\n      swap1\n      pop\n      pop\n        /* \"contracts/GeekNft.sol\":1498:1508  msg.sender */\n      caller\n        /* \"contracts/GeekNft.sol\":1472:1483  itemToOwner */\n      0x06\n        /* \"contracts/GeekNft.sol\":1472:1495  itemToOwner[newTokenId] */\n      0x00\n        /* \"contracts/GeekNft.sol\":1484:1494  newTokenId */\n      dup4\n        /* \"contracts/GeekNft.sol\":1472:1495  itemToOwner[newTokenId] */\n      dup2\n      mstore\n      0x20\n      add\n      swap1\n      dup2\n      mstore\n      0x20\n      add\n      0x00\n      keccak256\n      0x00\n        /* \"contracts/GeekNft.sol\":1472:1508  itemToOwner[newTokenId] = msg.sender */\n      0x0100\n      exp\n      dup2\n      sload\n      dup2\n      0xffffffffffffffffffffffffffffffffffffffff\n      mul\n      not\n      and\n      swap1\n      dup4\n      0xffffffffffffffffffffffffffffffffffffffff\n      and\n      mul\n      or\n      swap1\n      sstore\n      pop\n        /* \"contracts/GeekNft.sol\":1542:1557  itemsOwnerCount */\n      0x07\n        /* \"contracts/GeekNft.sol\":1542:1569  itemsOwnerCount[msg.sender] */\n      0x00\n        /* \"contracts/GeekNft.sol\":1558:1568  msg.sender */\n      caller\n        /* \"contracts/GeekNft.sol\":1542:1569  itemsOwnerCount[msg.sender] */\n      0xffffffffffffffffffffffffffffffffffffffff\n      and\n      0xffffffffffffffffffffffffffffffffffffffff\n      and\n      dup2\n      mstore\n      0x20\n      add\n      swap1\n      dup2\n      mstore\n      0x20\n      add\n      0x00\n      keccak256\n      0x00\n        /* \"contracts/GeekNft.sol\":1542:1571  itemsOwnerCount[msg.sender]++ */\n      dup2\n      sload\n      dup1\n      swap3\n      swap2\n      swap1\n      0x01\n      add\n      swap2\n      swap1\n      pop\n      sstore\n      pop\n        /* \"contracts/GeekNft.sol\":1585:1600  itemsCatIdCount */\n      0x08\n        /* \"contracts/GeekNft.sol\":1585:1608  itemsCatIdCount[_catId] */\n      0x00\n        /* \"contracts/GeekNft.sol\":1601:1607  _catId */\n      dup5\n        /* \"contracts/GeekNft.sol\":1585:1608  itemsCatIdCount[_catId] */\n      dup2\n      mstore\n      0x20\n      add\n      swap1\n      dup2\n      mstore\n      0x20\n      add\n      0x00\n      keccak256\n      0x00\n        /* \"contracts/GeekNft.sol\":1585:1610  itemsCatIdCount[_catId]++ */\n      dup2\n      sload\n      dup1\n      swap3\n      swap2\n      swap1\n      0x01\n      add\n      swap2\n      swap1\n      pop\n      sstore\n      pop\n        /* \"contracts/GeekNft.sol\":1624:1640  itemsToSellCount */\n      0x04\n      0x00\n        /* \"contracts/GeekNft.sol\":1624:1642  itemsToSellCount++ */\n      dup2\n      sload\n      dup1\n      swap3\n      swap2\n      swap1\n      0x01\n      add\n      swap2\n      swap1\n      pop\n      sstore\n      pop\n        /* \"contracts/GeekNft.sol\":1670:1680  newTokenId */\n      dup1\n        /* \"contracts/GeekNft.sol\":1663:1680  return newTokenId */\n      swap2\n      pop\n      pop\n        /* \"contracts/GeekNft.sol\":1147:1687  function createItem(uint _price, uint _catId) public returns (uint){... */\n      swap3\n      swap2\n      pop\n      pop\n      jump\t// out\n        /* \"contracts/GeekNft.sol\":3046:3377  function addItemToSell(uint _tokenId) public onlyItemOwner(_tokenId) {... */\n    tag_63:\n        /* \"contracts/GeekNft.sol\":3105:3113  _tokenId */\n      dup1\n        /* \"contracts/GeekNft.sol\":850:860  msg.sender */\n      caller\n        /* \"contracts/GeekNft.sol\":825:860  itemToOwner[_tokenId] == msg.sender */\n      0xffffffffffffffffffffffffffffffffffffffff\n      and\n        /* \"contracts/GeekNft.sol\":825:836  itemToOwner */\n      0x06\n        /* \"contracts/GeekNft.sol\":825:846  itemToOwner[_tokenId] */\n      0x00\n        /* \"contracts/GeekNft.sol\":837:845  _tokenId */\n      dup4\n        /* \"contracts/GeekNft.sol\":825:846  itemToOwner[_tokenId] */\n      dup2\n      mstore\n      0x20\n      add\n      swap1\n      dup2\n      mstore\n      0x20\n      add\n      0x00\n      keccak256\n      0x00\n      swap1\n      sload\n      swap1\n      0x0100\n      exp\n      swap1\n      div\n      0xffffffffffffffffffffffffffffffffffffffff\n      and\n        /* \"contracts/GeekNft.sol\":825:860  itemToOwner[_tokenId] == msg.sender */\n      0xffffffffffffffffffffffffffffffffffffffff\n      and\n      eq\n        /* \"contracts/GeekNft.sol\":817:894  require(itemToOwner[_tokenId] == msg.sender, \"Only item's owner can do that\") */\n      tag_168\n      jumpi\n      mload(0x40)\n      0x08c379a000000000000000000000000000000000000000000000000000000000\n      dup2\n      mstore\n      0x04\n      add\n      tag_169\n      swap1\n      tag_147\n      jump\t// in\n    tag_169:\n      mload(0x40)\n      dup1\n      swap2\n      sub\n      swap1\n      revert\n    tag_168:\n        /* \"contracts/GeekNft.sol\":3166:3167  0 */\n      0x00\n        /* \"contracts/GeekNft.sol\":3133:3168  itemToOwner[_tokenId] != address(0) */\n      0xffffffffffffffffffffffffffffffffffffffff\n      and\n        /* \"contracts/GeekNft.sol\":3133:3144  itemToOwner */\n      0x06\n        /* \"contracts/GeekNft.sol\":3133:3154  itemToOwner[_tokenId] */\n      0x00\n        /* \"contracts/GeekNft.sol\":3145:3153  _tokenId */\n      dup5\n        /* \"contracts/GeekNft.sol\":3133:3154  itemToOwner[_tokenId] */\n      dup2\n      mstore\n      0x20\n      add\n      swap1\n      dup2\n      mstore\n      0x20\n      add\n      0x00\n      keccak256\n      0x00\n      swap1\n      sload\n      swap1\n      0x0100\n      exp\n      swap1\n      div\n      0xffffffffffffffffffffffffffffffffffffffff\n      and\n        /* \"contracts/GeekNft.sol\":3133:3168  itemToOwner[_tokenId] != address(0) */\n      0xffffffffffffffffffffffffffffffffffffffff\n      and\n      eq\n      iszero\n        /* \"contracts/GeekNft.sol\":3125:3192  require(itemToOwner[_tokenId] != address(0), \"token doesn't exist\") */\n      tag_171\n      jumpi\n      mload(0x40)\n      0x08c379a000000000000000000000000000000000000000000000000000000000\n      dup2\n      mstore\n      0x04\n      add\n      tag_172\n      swap1\n      tag_134\n      jump\t// in\n    tag_172:\n      mload(0x40)\n      dup1\n      swap2\n      sub\n      swap1\n      revert\n    tag_171:\n        /* \"contracts/GeekNft.sol\":3236:3241  false */\n      0x00\n        /* \"contracts/GeekNft.sol\":3210:3241  items[_tokenId].toSell == false */\n      iszero\n      iszero\n        /* \"contracts/GeekNft.sol\":3210:3215  items */\n      0x03\n        /* \"contracts/GeekNft.sol\":3216:3224  _tokenId */\n      dup4\n        /* \"contracts/GeekNft.sol\":3210:3225  items[_tokenId] */\n      dup2\n      sload\n      dup2\n      lt\n      tag_173\n      jumpi\n      mstore(0x00, 0x4e487b7100000000000000000000000000000000000000000000000000000000)\n      mstore(0x04, 0x32)\n      revert(0x00, 0x24)\n    tag_173:\n      swap1\n      0x00\n      mstore\n      keccak256(0x00, 0x20)\n      swap1\n      0x04\n      mul\n      add\n        /* \"contracts/GeekNft.sol\":3210:3232  items[_tokenId].toSell */\n      0x03\n      add\n      0x00\n      swap1\n      sload\n      swap1\n      0x0100\n      exp\n      swap1\n      div\n      0xff\n      and\n        /* \"contracts/GeekNft.sol\":3210:3241  items[_tokenId].toSell == false */\n      iszero\n      iszero\n      eq\n        /* \"contracts/GeekNft.sol\":3202:3270  require(items[_tokenId].toSell == false, \"token is already to sell\") */\n      tag_175\n      jumpi\n      mload(0x40)\n      0x08c379a000000000000000000000000000000000000000000000000000000000\n      dup2\n      mstore\n      0x04\n      add\n      tag_176\n      swap1\n      tag_177\n      jump\t// in\n    tag_176:\n      mload(0x40)\n      dup1\n      swap2\n      sub\n      swap1\n      revert\n    tag_175:\n        /* \"contracts/GeekNft.sol\":3305:3309  true */\n      0x01\n        /* \"contracts/GeekNft.sol\":3280:3285  items */\n      0x03\n        /* \"contracts/GeekNft.sol\":3286:3294  _tokenId */\n      dup4\n        /* \"contracts/GeekNft.sol\":3280:3295  items[_tokenId] */\n      dup2\n      sload\n      dup2\n      lt\n      tag_178\n      jumpi\n      mstore(0x00, 0x4e487b7100000000000000000000000000000000000000000000000000000000)\n      mstore(0x04, 0x32)\n      revert(0x00, 0x24)\n    tag_178:\n      swap1\n      0x00\n      mstore\n      keccak256(0x00, 0x20)\n      swap1\n      0x04\n      mul\n      add\n        /* \"contracts/GeekNft.sol\":3280:3302  items[_tokenId].toSell */\n      0x03\n      add\n      0x00\n        /* \"contracts/GeekNft.sol\":3280:3309  items[_tokenId].toSell = true */\n      0x0100\n      exp\n      dup2\n      sload\n      dup2\n      0xff\n      mul\n      not\n      and\n      swap1\n      dup4\n      iszero\n      iszero\n      mul\n      or\n      swap1\n      sstore\n      pop\n        /* \"contracts/GeekNft.sol\":3342:3358  itemsToSellCount */\n      0x04\n      0x00\n        /* \"contracts/GeekNft.sol\":3342:3360  itemsToSellCount++ */\n      dup2\n      sload\n      dup1\n      swap3\n      swap2\n      swap1\n      0x01\n      add\n      swap2\n      swap1\n      pop\n      sstore\n      pop\n        /* \"contracts/GeekNft.sol\":3046:3377  function addItemToSell(uint _tokenId) public onlyItemOwner(_tokenId) {... */\n      pop\n      pop\n      jump\t// out\n        /* \"contracts/GeekNft.sol\":479:523  mapping(uint => uint) public itemsCatIdCount */\n    tag_67:\n      mstore(0x20, 0x08)\n      dup1\n      0x00\n      mstore\n      keccak256(0x00, 0x40)\n      0x00\n      swap2\n      pop\n      swap1\n      pop\n      sload\n      dup2\n      jump\t// out\n        /* \"contracts/GeekNft.sol\":1047:1141  function getFeesPercentage() public view returns (uint) {... */\n    tag_71:\n        /* \"contracts/GeekNft.sol\":1097:1101  uint */\n      0x00\n        /* \"contracts/GeekNft.sol\":1120:1134  feesPercentage */\n      sload(0x05)\n        /* \"contracts/GeekNft.sol\":1113:1134  return feesPercentage */\n      swap1\n      pop\n        /* \"contracts/GeekNft.sol\":1047:1141  function getFeesPercentage() public view returns (uint) {... */\n      swap1\n      jump\t// out\n        /* \"contracts/GeekNft.sol\":4604:4826  function getFees(uint _price, uint _percentage) private pure returns (uint, uint){... */\n    tag_138:\n        /* \"contracts/GeekNft.sol\":4674:4678  uint */\n      0x00\n        /* \"contracts/GeekNft.sol\":4680:4684  uint */\n      dup1\n        /* \"contracts/GeekNft.sol\":4695:4704  uint fees */\n      0x00\n        /* \"contracts/GeekNft.sol\":4732:4735  100 */\n      0x64\n        /* \"contracts/GeekNft.sol\":4722:4728  _price */\n      dup6\n        /* \"contracts/GeekNft.sol\":4708:4719  _percentage */\n      dup6\n        /* \"contracts/GeekNft.sol\":4708:4728  _percentage * _price */\n      tag_182\n      swap2\n      swap1\n      tag_183\n      jump\t// in\n    tag_182:\n        /* \"contracts/GeekNft.sol\":4707:4735  (_percentage * _price) / 100 */\n      tag_184\n      swap2\n      swap1\n      tag_185\n      jump\t// in\n    tag_184:\n        /* \"contracts/GeekNft.sol\":4695:4735  uint fees = (_percentage * _price) / 100 */\n      swap1\n      pop\n        /* \"contracts/GeekNft.sol\":4745:4764  uint totalMinusFees */\n      0x00\n        /* \"contracts/GeekNft.sol\":4776:4780  fees */\n      dup2\n        /* \"contracts/GeekNft.sol\":4767:4773  _price */\n      dup7\n        /* \"contracts/GeekNft.sol\":4767:4780  _price - fees */\n      tag_186\n      swap2\n      swap1\n      tag_187\n      jump\t// in\n    tag_186:\n        /* \"contracts/GeekNft.sol\":4745:4780  uint totalMinusFees = _price - fees */\n      swap1\n      pop\n        /* \"contracts/GeekNft.sol\":4798:4802  fees */\n      dup2\n        /* \"contracts/GeekNft.sol\":4804:4818  totalMinusFees */\n      dup2\n        /* \"contracts/GeekNft.sol\":4790:4819  return (fees, totalMinusFees) */\n      swap4\n      pop\n      swap4\n      pop\n      pop\n      pop\n        /* \"contracts/GeekNft.sol\":4604:4826  function getFees(uint _price, uint _percentage) private pure returns (uint, uint){... */\n      swap3\n      pop\n      swap3\n      swap1\n      pop\n      jump\t// out\n    tag_78:\n      mload(0x40)\n      dup1\n      0x80\n      add\n      0x40\n      mstore\n      dup1\n      0x00\n      dup2\n      mstore\n      0x20\n      add\n      0x00\n      dup2\n      mstore\n      0x20\n      add\n      0x00\n      dup2\n      mstore\n      0x20\n      add\n      iszero(iszero(0x00))\n      dup2\n      mstore\n      pop\n      swap1\n      jump\t// out\n        /* \"#utility.yul\":7:146   */\n    tag_189:\n      0x00\n        /* \"#utility.yul\":91:97   */\n      dup2\n        /* \"#utility.yul\":78:98   */\n      calldataload\n        /* \"#utility.yul\":69:98   */\n      swap1\n      pop\n        /* \"#utility.yul\":107:140   */\n      tag_191\n        /* \"#utility.yul\":134:139   */\n      dup2\n        /* \"#utility.yul\":107:140   */\n      tag_192\n      jump\t// in\n    tag_191:\n        /* \"#utility.yul\":59:146   */\n      swap3\n      swap2\n      pop\n      pop\n      jump\t// out\n        /* \"#utility.yul\":152:291   */\n    tag_193:\n      0x00\n        /* \"#utility.yul\":236:242   */\n      dup2\n        /* \"#utility.yul\":223:243   */\n      calldataload\n        /* \"#utility.yul\":214:243   */\n      swap1\n      pop\n        /* \"#utility.yul\":252:285   */\n      tag_195\n        /* \"#utility.yul\":279:284   */\n      dup2\n        /* \"#utility.yul\":252:285   */\n      tag_196\n      jump\t// in\n    tag_195:\n        /* \"#utility.yul\":204:291   */\n      swap3\n      swap2\n      pop\n      pop\n      jump\t// out\n        /* \"#utility.yul\":297:559   */\n    tag_43:\n      0x00\n        /* \"#utility.yul\":405:407   */\n      0x20\n        /* \"#utility.yul\":393:402   */\n      dup3\n        /* \"#utility.yul\":384:391   */\n      dup5\n        /* \"#utility.yul\":380:403   */\n      sub\n        /* \"#utility.yul\":376:408   */\n      slt\n        /* \"#utility.yul\":373:375   */\n      iszero\n      tag_198\n      jumpi\n        /* \"#utility.yul\":421:422   */\n      0x00\n        /* \"#utility.yul\":418:419   */\n      dup1\n        /* \"#utility.yul\":411:423   */\n      revert\n        /* \"#utility.yul\":373:375   */\n    tag_198:\n        /* \"#utility.yul\":464:465   */\n      0x00\n        /* \"#utility.yul\":489:542   */\n      tag_199\n        /* \"#utility.yul\":534:541   */\n      dup5\n        /* \"#utility.yul\":525:531   */\n      dup3\n        /* \"#utility.yul\":514:523   */\n      dup6\n        /* \"#utility.yul\":510:532   */\n      add\n        /* \"#utility.yul\":489:542   */\n      tag_189\n      jump\t// in\n    tag_199:\n        /* \"#utility.yul\":479:542   */\n      swap2\n      pop\n        /* \"#utility.yul\":435:552   */\n      pop\n        /* \"#utility.yul\":363:559   */\n      swap3\n      swap2\n      pop\n      pop\n      jump\t// out\n        /* \"#utility.yul\":565:827   */\n    tag_23:\n      0x00\n        /* \"#utility.yul\":673:675   */\n      0x20\n        /* \"#utility.yul\":661:670   */\n      dup3\n        /* \"#utility.yul\":652:659   */\n      dup5\n        /* \"#utility.yul\":648:671   */\n      sub\n        /* \"#utility.yul\":644:676   */\n      slt\n        /* \"#utility.yul\":641:643   */\n      iszero\n      tag_201\n      jumpi\n        /* \"#utility.yul\":689:690   */\n      0x00\n        /* \"#utility.yul\":686:687   */\n      dup1\n        /* \"#utility.yul\":679:691   */\n      revert\n        /* \"#utility.yul\":641:643   */\n    tag_201:\n        /* \"#utility.yul\":732:733   */\n      0x00\n        /* \"#utility.yul\":757:810   */\n      tag_202\n        /* \"#utility.yul\":802:809   */\n      dup5\n        /* \"#utility.yul\":793:799   */\n      dup3\n        /* \"#utility.yul\":782:791   */\n      dup6\n        /* \"#utility.yul\":778:800   */\n      add\n        /* \"#utility.yul\":757:810   */\n      tag_193\n      jump\t// in\n    tag_202:\n        /* \"#utility.yul\":747:810   */\n      swap2\n      pop\n        /* \"#utility.yul\":703:820   */\n      pop\n        /* \"#utility.yul\":631:827   */\n      swap3\n      swap2\n      pop\n      pop\n      jump\t// out\n        /* \"#utility.yul\":833:1240   */\n    tag_57:\n      0x00\n      dup1\n        /* \"#utility.yul\":958:960   */\n      0x40\n        /* \"#utility.yul\":946:955   */\n      dup4\n        /* \"#utility.yul\":937:944   */\n      dup6\n        /* \"#utility.yul\":933:956   */\n      sub\n        /* \"#utility.yul\":929:961   */\n      slt\n        /* \"#utility.yul\":926:928   */\n      iszero\n      tag_204\n      jumpi\n        /* \"#utility.yul\":974:975   */\n      0x00\n        /* \"#utility.yul\":971:972   */\n      dup1\n        /* \"#utility.yul\":964:976   */\n      revert\n        /* \"#utility.yul\":926:928   */\n    tag_204:\n        /* \"#utility.yul\":1017:1018   */\n      0x00\n        /* \"#utility.yul\":1042:1095   */\n      tag_205\n        /* \"#utility.yul\":1087:1094   */\n      dup6\n        /* \"#utility.yul\":1078:1084   */\n      dup3\n        /* \"#utility.yul\":1067:1076   */\n      dup7\n        /* \"#utility.yul\":1063:1085   */\n      add\n        /* \"#utility.yul\":1042:1095   */\n      tag_193\n      jump\t// in\n    tag_205:\n        /* \"#utility.yul\":1032:1095   */\n      swap3\n      pop\n        /* \"#utility.yul\":988:1105   */\n      pop\n        /* \"#utility.yul\":1144:1146   */\n      0x20\n        /* \"#utility.yul\":1170:1223   */\n      tag_206\n        /* \"#utility.yul\":1215:1222   */\n      dup6\n        /* \"#utility.yul\":1206:1212   */\n      dup3\n        /* \"#utility.yul\":1195:1204   */\n      dup7\n        /* \"#utility.yul\":1191:1213   */\n      add\n        /* \"#utility.yul\":1170:1223   */\n      tag_193\n      jump\t// in\n    tag_206:\n        /* \"#utility.yul\":1160:1223   */\n      swap2\n      pop\n        /* \"#utility.yul\":1115:1233   */\n      pop\n        /* \"#utility.yul\":916:1240   */\n      swap3\n      pop\n      swap3\n      swap1\n      pop\n      jump\t// out\n        /* \"#utility.yul\":1246:1505   */\n    tag_207:\n      0x00\n        /* \"#utility.yul\":1376:1462   */\n      tag_209\n        /* \"#utility.yul\":1458:1461   */\n      dup4\n        /* \"#utility.yul\":1450:1456   */\n      dup4\n        /* \"#utility.yul\":1376:1462   */\n      tag_210\n      jump\t// in\n    tag_209:\n        /* \"#utility.yul\":1494:1498   */\n      0x80\n        /* \"#utility.yul\":1489:1492   */\n      dup4\n        /* \"#utility.yul\":1485:1499   */\n      add\n        /* \"#utility.yul\":1471:1499   */\n      swap1\n      pop\n        /* \"#utility.yul\":1366:1505   */\n      swap3\n      swap2\n      pop\n      pop\n      jump\t// out\n        /* \"#utility.yul\":1511:1629   */\n    tag_211:\n        /* \"#utility.yul\":1598:1622   */\n      tag_213\n        /* \"#utility.yul\":1616:1621   */\n      dup2\n        /* \"#utility.yul\":1598:1622   */\n      tag_214\n      jump\t// in\n    tag_213:\n        /* \"#utility.yul\":1593:1596   */\n      dup3\n        /* \"#utility.yul\":1586:1623   */\n      mstore\n        /* \"#utility.yul\":1576:1629   */\n      pop\n      pop\n      jump\t// out\n        /* \"#utility.yul\":1689:2581   */\n    tag_215:\n      0x00\n        /* \"#utility.yul\":1877:1951   */\n      tag_217\n        /* \"#utility.yul\":1945:1950   */\n      dup3\n        /* \"#utility.yul\":1877:1951   */\n      tag_218\n      jump\t// in\n    tag_217:\n        /* \"#utility.yul\":1967:2073   */\n      tag_219\n        /* \"#utility.yul\":2066:2072   */\n      dup2\n        /* \"#utility.yul\":2061:2064   */\n      dup6\n        /* \"#utility.yul\":1967:2073   */\n      tag_220\n      jump\t// in\n    tag_219:\n        /* \"#utility.yul\":1960:2073   */\n      swap4\n      pop\n        /* \"#utility.yul\":2097:2173   */\n      tag_221\n        /* \"#utility.yul\":2167:2172   */\n      dup4\n        /* \"#utility.yul\":2097:2173   */\n      tag_222\n      jump\t// in\n    tag_221:\n        /* \"#utility.yul\":2196:2203   */\n      dup1\n        /* \"#utility.yul\":2227:2228   */\n      0x00\n        /* \"#utility.yul\":2212:2556   */\n    tag_223:\n        /* \"#utility.yul\":2237:2243   */\n      dup4\n        /* \"#utility.yul\":2234:2235   */\n      dup2\n        /* \"#utility.yul\":2231:2244   */\n      lt\n        /* \"#utility.yul\":2212:2556   */\n      iszero\n      tag_225\n      jumpi\n        /* \"#utility.yul\":2313:2319   */\n      dup2\n        /* \"#utility.yul\":2307:2320   */\n      mload\n        /* \"#utility.yul\":2340:2443   */\n      tag_226\n        /* \"#utility.yul\":2439:2442   */\n      dup9\n        /* \"#utility.yul\":2424:2437   */\n      dup3\n        /* \"#utility.yul\":2340:2443   */\n      tag_207\n      jump\t// in\n    tag_226:\n        /* \"#utility.yul\":2333:2443   */\n      swap8\n      pop\n        /* \"#utility.yul\":2466:2546   */\n      tag_227\n        /* \"#utility.yul\":2539:2545   */\n      dup4\n        /* \"#utility.yul\":2466:2546   */\n      tag_228\n      jump\t// in\n    tag_227:\n        /* \"#utility.yul\":2456:2546   */\n      swap3\n      pop\n        /* \"#utility.yul\":2272:2556   */\n      pop\n        /* \"#utility.yul\":2259:2260   */\n      0x01\n        /* \"#utility.yul\":2256:2257   */\n      dup2\n        /* \"#utility.yul\":2252:2261   */\n      add\n        /* \"#utility.yul\":2247:2261   */\n      swap1\n      pop\n        /* \"#utility.yul\":2212:2556   */\n      jump(tag_223)\n    tag_225:\n        /* \"#utility.yul\":2216:2230   */\n      pop\n        /* \"#utility.yul\":2572:2575   */\n      dup6\n        /* \"#utility.yul\":2565:2575   */\n      swap4\n      pop\n        /* \"#utility.yul\":1853:2581   */\n      pop\n      pop\n      pop\n      swap3\n      swap2\n      pop\n      pop\n      jump\t// out\n        /* \"#utility.yul\":2587:2686   */\n    tag_229:\n        /* \"#utility.yul\":2658:2679   */\n      tag_231\n        /* \"#utility.yul\":2673:2678   */\n      dup2\n        /* \"#utility.yul\":2658:2679   */\n      tag_232\n      jump\t// in\n    tag_231:\n        /* \"#utility.yul\":2653:2656   */\n      dup3\n        /* \"#utility.yul\":2646:2680   */\n      mstore\n        /* \"#utility.yul\":2636:2686   */\n      pop\n      pop\n      jump\t// out\n        /* \"#utility.yul\":2692:3058   */\n    tag_233:\n      0x00\n        /* \"#utility.yul\":2855:2922   */\n      tag_235\n        /* \"#utility.yul\":2919:2921   */\n      0x13\n        /* \"#utility.yul\":2914:2917   */\n      dup4\n        /* \"#utility.yul\":2855:2922   */\n      tag_236\n      jump\t// in\n    tag_235:\n        /* \"#utility.yul\":2848:2922   */\n      swap2\n      pop\n        /* \"#utility.yul\":2931:3024   */\n      tag_237\n        /* \"#utility.yul\":3020:3023   */\n      dup3\n        /* \"#utility.yul\":2931:3024   */\n      tag_238\n      jump\t// in\n    tag_237:\n        /* \"#utility.yul\":3049:3051   */\n      0x20\n        /* \"#utility.yul\":3044:3047   */\n      dup3\n        /* \"#utility.yul\":3040:3052   */\n      add\n        /* \"#utility.yul\":3033:3052   */\n      swap1\n      pop\n        /* \"#utility.yul\":2838:3058   */\n      swap2\n      swap1\n      pop\n      jump\t// out\n        /* \"#utility.yul\":3064:3430   */\n    tag_239:\n      0x00\n        /* \"#utility.yul\":3227:3294   */\n      tag_241\n        /* \"#utility.yul\":3291:3293   */\n      0x13\n        /* \"#utility.yul\":3286:3289   */\n      dup4\n        /* \"#utility.yul\":3227:3294   */\n      tag_236\n      jump\t// in\n    tag_241:\n        /* \"#utility.yul\":3220:3294   */\n      swap2\n      pop\n        /* \"#utility.yul\":3303:3396   */\n      tag_242\n        /* \"#utility.yul\":3392:3395   */\n      dup3\n        /* \"#utility.yul\":3303:3396   */\n      tag_243\n      jump\t// in\n    tag_242:\n        /* \"#utility.yul\":3421:3423   */\n      0x20\n        /* \"#utility.yul\":3416:3419   */\n      dup3\n        /* \"#utility.yul\":3412:3424   */\n      add\n        /* \"#utility.yul\":3405:3424   */\n      swap1\n      pop\n        /* \"#utility.yul\":3210:3430   */\n      swap2\n      swap1\n      pop\n      jump\t// out\n        /* \"#utility.yul\":3436:3802   */\n    tag_244:\n      0x00\n        /* \"#utility.yul\":3599:3666   */\n      tag_246\n        /* \"#utility.yul\":3663:3665   */\n      0x13\n        /* \"#utility.yul\":3658:3661   */\n      dup4\n        /* \"#utility.yul\":3599:3666   */\n      tag_236\n      jump\t// in\n    tag_246:\n        /* \"#utility.yul\":3592:3666   */\n      swap2\n      pop\n        /* \"#utility.yul\":3675:3768   */\n      tag_247\n        /* \"#utility.yul\":3764:3767   */\n      dup3\n        /* \"#utility.yul\":3675:3768   */\n      tag_248\n      jump\t// in\n    tag_247:\n        /* \"#utility.yul\":3793:3795   */\n      0x20\n        /* \"#utility.yul\":3788:3791   */\n      dup3\n        /* \"#utility.yul\":3784:3796   */\n      add\n        /* \"#utility.yul\":3777:3796   */\n      swap1\n      pop\n        /* \"#utility.yul\":3582:3802   */\n      swap2\n      swap1\n      pop\n      jump\t// out\n        /* \"#utility.yul\":3808:4174   */\n    tag_249:\n      0x00\n        /* \"#utility.yul\":3971:4038   */\n      tag_251\n        /* \"#utility.yul\":4035:4037   */\n      0x1d\n        /* \"#utility.yul\":4030:4033   */\n      dup4\n        /* \"#utility.yul\":3971:4038   */\n      tag_236\n      jump\t// in\n    tag_251:\n        /* \"#utility.yul\":3964:4038   */\n      swap2\n      pop\n        /* \"#utility.yul\":4047:4140   */\n      tag_252\n        /* \"#utility.yul\":4136:4139   */\n      dup3\n        /* \"#utility.yul\":4047:4140   */\n      tag_253\n      jump\t// in\n    tag_252:\n        /* \"#utility.yul\":4165:4167   */\n      0x20\n        /* \"#utility.yul\":4160:4163   */\n      dup3\n        /* \"#utility.yul\":4156:4168   */\n      add\n        /* \"#utility.yul\":4149:4168   */\n      swap1\n      pop\n        /* \"#utility.yul\":3954:4174   */\n      swap2\n      swap1\n      pop\n      jump\t// out\n        /* \"#utility.yul\":4180:4546   */\n    tag_254:\n      0x00\n        /* \"#utility.yul\":4343:4410   */\n      tag_256\n        /* \"#utility.yul\":4407:4409   */\n      0x18\n        /* \"#utility.yul\":4402:4405   */\n      dup4\n        /* \"#utility.yul\":4343:4410   */\n      tag_236\n      jump\t// in\n    tag_256:\n        /* \"#utility.yul\":4336:4410   */\n      swap2\n      pop\n        /* \"#utility.yul\":4419:4512   */\n      tag_257\n        /* \"#utility.yul\":4508:4511   */\n      dup3\n        /* \"#utility.yul\":4419:4512   */\n      tag_258\n      jump\t// in\n    tag_257:\n        /* \"#utility.yul\":4537:4539   */\n      0x20\n        /* \"#utility.yul\":4532:4535   */\n      dup3\n        /* \"#utility.yul\":4528:4540   */\n      add\n        /* \"#utility.yul\":4521:4540   */\n      swap1\n      pop\n        /* \"#utility.yul\":4326:4546   */\n      swap2\n      swap1\n      pop\n      jump\t// out\n        /* \"#utility.yul\":4552:4918   */\n    tag_259:\n      0x00\n        /* \"#utility.yul\":4715:4782   */\n      tag_261\n        /* \"#utility.yul\":4779:4781   */\n      0x21\n        /* \"#utility.yul\":4774:4777   */\n      dup4\n        /* \"#utility.yul\":4715:4782   */\n      tag_236\n      jump\t// in\n    tag_261:\n        /* \"#utility.yul\":4708:4782   */\n      swap2\n      pop\n        /* \"#utility.yul\":4791:4884   */\n      tag_262\n        /* \"#utility.yul\":4880:4883   */\n      dup3\n        /* \"#utility.yul\":4791:4884   */\n      tag_263\n      jump\t// in\n    tag_262:\n        /* \"#utility.yul\":4909:4911   */\n      0x40\n        /* \"#utility.yul\":4904:4907   */\n      dup3\n        /* \"#utility.yul\":4900:4912   */\n      add\n        /* \"#utility.yul\":4893:4912   */\n      swap1\n      pop\n        /* \"#utility.yul\":4698:4918   */\n      swap2\n      swap1\n      pop\n      jump\t// out\n        /* \"#utility.yul\":4924:5290   */\n    tag_264:\n      0x00\n        /* \"#utility.yul\":5087:5154   */\n      tag_266\n        /* \"#utility.yul\":5151:5153   */\n      0x1a\n        /* \"#utility.yul\":5146:5149   */\n      dup4\n        /* \"#utility.yul\":5087:5154   */\n      tag_236\n      jump\t// in\n    tag_266:\n        /* \"#utility.yul\":5080:5154   */\n      swap2\n      pop\n        /* \"#utility.yul\":5163:5256   */\n      tag_267\n        /* \"#utility.yul\":5252:5255   */\n      dup3\n        /* \"#utility.yul\":5163:5256   */\n      tag_268\n      jump\t// in\n    tag_267:\n        /* \"#utility.yul\":5281:5283   */\n      0x20\n        /* \"#utility.yul\":5276:5279   */\n      dup3\n        /* \"#utility.yul\":5272:5284   */\n      add\n        /* \"#utility.yul\":5265:5284   */\n      swap1\n      pop\n        /* \"#utility.yul\":5070:5290   */\n      swap2\n      swap1\n      pop\n      jump\t// out\n        /* \"#utility.yul\":5346:6182   */\n    tag_210:\n        /* \"#utility.yul\":5473:5477   */\n      0x80\n        /* \"#utility.yul\":5468:5471   */\n      dup3\n        /* \"#utility.yul\":5464:5478   */\n      add\n        /* \"#utility.yul\":5563:5567   */\n      0x00\n        /* \"#utility.yul\":5556:5561   */\n      dup3\n        /* \"#utility.yul\":5552:5568   */\n      add\n        /* \"#utility.yul\":5546:5569   */\n      mload\n        /* \"#utility.yul\":5582:5645   */\n      tag_270\n        /* \"#utility.yul\":5639:5643   */\n      0x00\n        /* \"#utility.yul\":5634:5637   */\n      dup6\n        /* \"#utility.yul\":5630:5644   */\n      add\n        /* \"#utility.yul\":5616:5628   */\n      dup3\n        /* \"#utility.yul\":5582:5645   */\n      tag_271\n      jump\t// in\n    tag_270:\n        /* \"#utility.yul\":5488:5655   */\n      pop\n        /* \"#utility.yul\":5738:5742   */\n      0x20\n        /* \"#utility.yul\":5731:5736   */\n      dup3\n        /* \"#utility.yul\":5727:5743   */\n      add\n        /* \"#utility.yul\":5721:5744   */\n      mload\n        /* \"#utility.yul\":5757:5820   */\n      tag_272\n        /* \"#utility.yul\":5814:5818   */\n      0x20\n        /* \"#utility.yul\":5809:5812   */\n      dup6\n        /* \"#utility.yul\":5805:5819   */\n      add\n        /* \"#utility.yul\":5791:5803   */\n      dup3\n        /* \"#utility.yul\":5757:5820   */\n      tag_271\n      jump\t// in\n    tag_272:\n        /* \"#utility.yul\":5665:5830   */\n      pop\n        /* \"#utility.yul\":5913:5917   */\n      0x40\n        /* \"#utility.yul\":5906:5911   */\n      dup3\n        /* \"#utility.yul\":5902:5918   */\n      add\n        /* \"#utility.yul\":5896:5919   */\n      mload\n        /* \"#utility.yul\":5932:5995   */\n      tag_273\n        /* \"#utility.yul\":5989:5993   */\n      0x40\n        /* \"#utility.yul\":5984:5987   */\n      dup6\n        /* \"#utility.yul\":5980:5994   */\n      add\n        /* \"#utility.yul\":5966:5978   */\n      dup3\n        /* \"#utility.yul\":5932:5995   */\n      tag_271\n      jump\t// in\n    tag_273:\n        /* \"#utility.yul\":5840:6005   */\n      pop\n        /* \"#utility.yul\":6089:6093   */\n      0x60\n        /* \"#utility.yul\":6082:6087   */\n      dup3\n        /* \"#utility.yul\":6078:6094   */\n      add\n        /* \"#utility.yul\":6072:6095   */\n      mload\n        /* \"#utility.yul\":6108:6165   */\n      tag_274\n        /* \"#utility.yul\":6159:6163   */\n      0x60\n        /* \"#utility.yul\":6154:6157   */\n      dup6\n        /* \"#utility.yul\":6150:6164   */\n      add\n        /* \"#utility.yul\":6136:6148   */\n      dup3\n        /* \"#utility.yul\":6108:6165   */\n      tag_229\n      jump\t// in\n    tag_274:\n        /* \"#utility.yul\":6015:6175   */\n      pop\n        /* \"#utility.yul\":5442:6182   */\n      pop\n      pop\n      pop\n      jump\t// out\n        /* \"#utility.yul\":6188:6296   */\n    tag_271:\n        /* \"#utility.yul\":6265:6289   */\n      tag_276\n        /* \"#utility.yul\":6283:6288   */\n      dup2\n        /* \"#utility.yul\":6265:6289   */\n      tag_277\n      jump\t// in\n    tag_276:\n        /* \"#utility.yul\":6260:6263   */\n      dup3\n        /* \"#utility.yul\":6253:6290   */\n      mstore\n        /* \"#utility.yul\":6243:6296   */\n      pop\n      pop\n      jump\t// out\n        /* \"#utility.yul\":6302:6420   */\n    tag_278:\n        /* \"#utility.yul\":6389:6413   */\n      tag_280\n        /* \"#utility.yul\":6407:6412   */\n      dup2\n        /* \"#utility.yul\":6389:6413   */\n      tag_277\n      jump\t// in\n    tag_280:\n        /* \"#utility.yul\":6384:6387   */\n      dup3\n        /* \"#utility.yul\":6377:6414   */\n      mstore\n        /* \"#utility.yul\":6367:6420   */\n      pop\n      pop\n      jump\t// out\n        /* \"#utility.yul\":6426:6648   */\n    tag_39:\n      0x00\n        /* \"#utility.yul\":6557:6559   */\n      0x20\n        /* \"#utility.yul\":6546:6555   */\n      dup3\n        /* \"#utility.yul\":6542:6560   */\n      add\n        /* \"#utility.yul\":6534:6560   */\n      swap1\n      pop\n        /* \"#utility.yul\":6570:6641   */\n      tag_282\n        /* \"#utility.yul\":6638:6639   */\n      0x00\n        /* \"#utility.yul\":6627:6636   */\n      dup4\n        /* \"#utility.yul\":6623:6640   */\n      add\n        /* \"#utility.yul\":6614:6620   */\n      dup5\n        /* \"#utility.yul\":6570:6641   */\n      tag_211\n      jump\t// in\n    tag_282:\n        /* \"#utility.yul\":6524:6648   */\n      swap3\n      swap2\n      pop\n      pop\n      jump\t// out\n        /* \"#utility.yul\":6654:7107   */\n    tag_19:\n      0x00\n        /* \"#utility.yul\":6875:6877   */\n      0x20\n        /* \"#utility.yul\":6864:6873   */\n      dup3\n        /* \"#utility.yul\":6860:6878   */\n      add\n        /* \"#utility.yul\":6852:6878   */\n      swap1\n      pop\n        /* \"#utility.yul\":6924:6933   */\n      dup2\n        /* \"#utility.yul\":6918:6922   */\n      dup2\n        /* \"#utility.yul\":6914:6934   */\n      sub\n        /* \"#utility.yul\":6910:6911   */\n      0x00\n        /* \"#utility.yul\":6899:6908   */\n      dup4\n        /* \"#utility.yul\":6895:6912   */\n      add\n        /* \"#utility.yul\":6888:6935   */\n      mstore\n        /* \"#utility.yul\":6952:7100   */\n      tag_284\n        /* \"#utility.yul\":7095:7099   */\n      dup2\n        /* \"#utility.yul\":7086:7092   */\n      dup5\n        /* \"#utility.yul\":6952:7100   */\n      tag_215\n      jump\t// in\n    tag_284:\n        /* \"#utility.yul\":6944:7100   */\n      swap1\n      pop\n        /* \"#utility.yul\":6842:7107   */\n      swap3\n      swap2\n      pop\n      pop\n      jump\t// out\n        /* \"#utility.yul\":7113:7532   */\n    tag_155:\n      0x00\n        /* \"#utility.yul\":7317:7319   */\n      0x20\n        /* \"#utility.yul\":7306:7315   */\n      dup3\n        /* \"#utility.yul\":7302:7320   */\n      add\n        /* \"#utility.yul\":7294:7320   */\n      swap1\n      pop\n        /* \"#utility.yul\":7366:7375   */\n      dup2\n        /* \"#utility.yul\":7360:7364   */\n      dup2\n        /* \"#utility.yul\":7356:7376   */\n      sub\n        /* \"#utility.yul\":7352:7353   */\n      0x00\n        /* \"#utility.yul\":7341:7350   */\n      dup4\n        /* \"#utility.yul\":7337:7354   */\n      add\n        /* \"#utility.yul\":7330:7377   */\n      mstore\n        /* \"#utility.yul\":7394:7525   */\n      tag_286\n        /* \"#utility.yul\":7520:7524   */\n      dup2\n        /* \"#utility.yul\":7394:7525   */\n      tag_233\n      jump\t// in\n    tag_286:\n        /* \"#utility.yul\":7386:7525   */\n      swap1\n      pop\n        /* \"#utility.yul\":7284:7532   */\n      swap2\n      swap1\n      pop\n      jump\t// out\n        /* \"#utility.yul\":7538:7957   */\n    tag_164:\n      0x00\n        /* \"#utility.yul\":7742:7744   */\n      0x20\n        /* \"#utility.yul\":7731:7740   */\n      dup3\n        /* \"#utility.yul\":7727:7745   */\n      add\n        /* \"#utility.yul\":7719:7745   */\n      swap1\n      pop\n        /* \"#utility.yul\":7791:7800   */\n      dup2\n        /* \"#utility.yul\":7785:7789   */\n      dup2\n        /* \"#utility.yul\":7781:7801   */\n      sub\n        /* \"#utility.yul\":7777:7778   */\n      0x00\n        /* \"#utility.yul\":7766:7775   */\n      dup4\n        /* \"#utility.yul\":7762:7779   */\n      add\n        /* \"#utility.yul\":7755:7802   */\n      mstore\n        /* \"#utility.yul\":7819:7950   */\n      tag_288\n        /* \"#utility.yul\":7945:7949   */\n      dup2\n        /* \"#utility.yul\":7819:7950   */\n      tag_239\n      jump\t// in\n    tag_288:\n        /* \"#utility.yul\":7811:7950   */\n      swap1\n      pop\n        /* \"#utility.yul\":7709:7957   */\n      swap2\n      swap1\n      pop\n      jump\t// out\n        /* \"#utility.yul\":7963:8382   */\n    tag_134:\n      0x00\n        /* \"#utility.yul\":8167:8169   */\n      0x20\n        /* \"#utility.yul\":8156:8165   */\n      dup3\n        /* \"#utility.yul\":8152:8170   */\n      add\n        /* \"#utility.yul\":8144:8170   */\n      swap1\n      pop\n        /* \"#utility.yul\":8216:8225   */\n      dup2\n        /* \"#utility.yul\":8210:8214   */\n      dup2\n        /* \"#utility.yul\":8206:8226   */\n      sub\n        /* \"#utility.yul\":8202:8203   */\n      0x00\n        /* \"#utility.yul\":8191:8200   */\n      dup4\n        /* \"#utility.yul\":8187:8204   */\n      add\n        /* \"#utility.yul\":8180:8227   */\n      mstore\n        /* \"#utility.yul\":8244:8375   */\n      tag_290\n        /* \"#utility.yul\":8370:8374   */\n      dup2\n        /* \"#utility.yul\":8244:8375   */\n      tag_244\n      jump\t// in\n    tag_290:\n        /* \"#utility.yul\":8236:8375   */\n      swap1\n      pop\n        /* \"#utility.yul\":8134:8382   */\n      swap2\n      swap1\n      pop\n      jump\t// out\n        /* \"#utility.yul\":8388:8807   */\n    tag_147:\n      0x00\n        /* \"#utility.yul\":8592:8594   */\n      0x20\n        /* \"#utility.yul\":8581:8590   */\n      dup3\n        /* \"#utility.yul\":8577:8595   */\n      add\n        /* \"#utility.yul\":8569:8595   */\n      swap1\n      pop\n        /* \"#utility.yul\":8641:8650   */\n      dup2\n        /* \"#utility.yul\":8635:8639   */\n      dup2\n        /* \"#utility.yul\":8631:8651   */\n      sub\n        /* \"#utility.yul\":8627:8628   */\n      0x00\n        /* \"#utility.yul\":8616:8625   */\n      dup4\n        /* \"#utility.yul\":8612:8629   */\n      add\n        /* \"#utility.yul\":8605:8652   */\n      mstore\n        /* \"#utility.yul\":8669:8800   */\n      tag_292\n        /* \"#utility.yul\":8795:8799   */\n      dup2\n        /* \"#utility.yul\":8669:8800   */\n      tag_249\n      jump\t// in\n    tag_292:\n        /* \"#utility.yul\":8661:8800   */\n      swap1\n      pop\n        /* \"#utility.yul\":8559:8807   */\n      swap2\n      swap1\n      pop\n      jump\t// out\n        /* \"#utility.yul\":8813:9232   */\n    tag_177:\n      0x00\n        /* \"#utility.yul\":9017:9019   */\n      0x20\n        /* \"#utility.yul\":9006:9015   */\n      dup3\n        /* \"#utility.yul\":9002:9020   */\n      add\n        /* \"#utility.yul\":8994:9020   */\n      swap1\n      pop\n        /* \"#utility.yul\":9066:9075   */\n      dup2\n        /* \"#utility.yul\":9060:9064   */\n      dup2\n        /* \"#utility.yul\":9056:9076   */\n      sub\n        /* \"#utility.yul\":9052:9053   */\n      0x00\n        /* \"#utility.yul\":9041:9050   */\n      dup4\n        /* \"#utility.yul\":9037:9054   */\n      add\n        /* \"#utility.yul\":9030:9077   */\n      mstore\n        /* \"#utility.yul\":9094:9225   */\n      tag_294\n        /* \"#utility.yul\":9220:9224   */\n      dup2\n        /* \"#utility.yul\":9094:9225   */\n      tag_254\n      jump\t// in\n    tag_294:\n        /* \"#utility.yul\":9086:9225   */\n      swap1\n      pop\n        /* \"#utility.yul\":8984:9232   */\n      swap2\n      swap1\n      pop\n      jump\t// out\n        /* \"#utility.yul\":9238:9657   */\n    tag_110:\n      0x00\n        /* \"#utility.yul\":9442:9444   */\n      0x20\n        /* \"#utility.yul\":9431:9440   */\n      dup3\n        /* \"#utility.yul\":9427:9445   */\n      add\n        /* \"#utility.yul\":9419:9445   */\n      swap1\n      pop\n        /* \"#utility.yul\":9491:9500   */\n      dup2\n        /* \"#utility.yul\":9485:9489   */\n      dup2\n        /* \"#utility.yul\":9481:9501   */\n      sub\n        /* \"#utility.yul\":9477:9478   */\n      0x00\n        /* \"#utility.yul\":9466:9475   */\n      dup4\n        /* \"#utility.yul\":9462:9479   */\n      add\n        /* \"#utility.yul\":9455:9502   */\n      mstore\n        /* \"#utility.yul\":9519:9650   */\n      tag_296\n        /* \"#utility.yul\":9645:9649   */\n      dup2\n        /* \"#utility.yul\":9519:9650   */\n      tag_259\n      jump\t// in\n    tag_296:\n        /* \"#utility.yul\":9511:9650   */\n      swap1\n      pop\n        /* \"#utility.yul\":9409:9657   */\n      swap2\n      swap1\n      pop\n      jump\t// out\n        /* \"#utility.yul\":9663:10082   */\n    tag_161:\n      0x00\n        /* \"#utility.yul\":9867:9869   */\n      0x20\n        /* \"#utility.yul\":9856:9865   */\n      dup3\n        /* \"#utility.yul\":9852:9870   */\n      add\n        /* \"#utility.yul\":9844:9870   */\n      swap1\n      pop\n        /* \"#utility.yul\":9916:9925   */\n      dup2\n        /* \"#utility.yul\":9910:9914   */\n      dup2\n        /* \"#utility.yul\":9906:9926   */\n      sub\n        /* \"#utility.yul\":9902:9903   */\n      0x00\n        /* \"#utility.yul\":9891:9900   */\n      dup4\n        /* \"#utility.yul\":9887:9904   */\n      add\n        /* \"#utility.yul\":9880:9927   */\n      mstore\n        /* \"#utility.yul\":9944:10075   */\n      tag_298\n        /* \"#utility.yul\":10070:10074   */\n      dup2\n        /* \"#utility.yul\":9944:10075   */\n      tag_264\n      jump\t// in\n    tag_298:\n        /* \"#utility.yul\":9936:10075   */\n      swap1\n      pop\n        /* \"#utility.yul\":9834:10082   */\n      swap2\n      swap1\n      pop\n      jump\t// out\n        /* \"#utility.yul\":10088:10310   */\n    tag_46:\n      0x00\n        /* \"#utility.yul\":10219:10221   */\n      0x20\n        /* \"#utility.yul\":10208:10217   */\n      dup3\n        /* \"#utility.yul\":10204:10222   */\n      add\n        /* \"#utility.yul\":10196:10222   */\n      swap1\n      pop\n        /* \"#utility.yul\":10232:10303   */\n      tag_300\n        /* \"#utility.yul\":10300:10301   */\n      0x00\n        /* \"#utility.yul\":10289:10298   */\n      dup4\n        /* \"#utility.yul\":10285:10302   */\n      add\n        /* \"#utility.yul\":10276:10282   */\n      dup5\n        /* \"#utility.yul\":10232:10303   */\n      tag_278\n      jump\t// in\n    tag_300:\n        /* \"#utility.yul\":10186:10310   */\n      swap3\n      swap2\n      pop\n      pop\n      jump\t// out\n        /* \"#utility.yul\":10316:10468   */\n    tag_222:\n      0x00\n        /* \"#utility.yul\":10426:10429   */\n      dup2\n        /* \"#utility.yul\":10418:10429   */\n      swap1\n      pop\n        /* \"#utility.yul\":10456:10460   */\n      0x20\n        /* \"#utility.yul\":10451:10454   */\n      dup3\n        /* \"#utility.yul\":10447:10461   */\n      add\n        /* \"#utility.yul\":10439:10461   */\n      swap1\n      pop\n        /* \"#utility.yul\":10408:10468   */\n      swap2\n      swap1\n      pop\n      jump\t// out\n        /* \"#utility.yul\":10474:10608   */\n    tag_218:\n      0x00\n        /* \"#utility.yul\":10595:10600   */\n      dup2\n        /* \"#utility.yul\":10589:10601   */\n      mload\n        /* \"#utility.yul\":10579:10601   */\n      swap1\n      pop\n        /* \"#utility.yul\":10568:10608   */\n      swap2\n      swap1\n      pop\n      jump\t// out\n        /* \"#utility.yul\":10614:10747   */\n    tag_228:\n      0x00\n        /* \"#utility.yul\":10736:10740   */\n      0x20\n        /* \"#utility.yul\":10731:10734   */\n      dup3\n        /* \"#utility.yul\":10727:10741   */\n      add\n        /* \"#utility.yul\":10719:10741   */\n      swap1\n      pop\n        /* \"#utility.yul\":10709:10747   */\n      swap2\n      swap1\n      pop\n      jump\t// out\n        /* \"#utility.yul\":10753:10957   */\n    tag_220:\n      0x00\n        /* \"#utility.yul\":10906:10912   */\n      dup3\n        /* \"#utility.yul\":10901:10904   */\n      dup3\n        /* \"#utility.yul\":10894:10913   */\n      mstore\n        /* \"#utility.yul\":10946:10950   */\n      0x20\n        /* \"#utility.yul\":10941:10944   */\n      dup3\n        /* \"#utility.yul\":10937:10951   */\n      add\n        /* \"#utility.yul\":10922:10951   */\n      swap1\n      pop\n        /* \"#utility.yul\":10884:10957   */\n      swap3\n      swap2\n      pop\n      pop\n      jump\t// out\n        /* \"#utility.yul\":10963:11132   */\n    tag_236:\n      0x00\n        /* \"#utility.yul\":11081:11087   */\n      dup3\n        /* \"#utility.yul\":11076:11079   */\n      dup3\n        /* \"#utility.yul\":11069:11088   */\n      mstore\n        /* \"#utility.yul\":11121:11125   */\n      0x20\n        /* \"#utility.yul\":11116:11119   */\n      dup3\n        /* \"#utility.yul\":11112:11126   */\n      add\n        /* \"#utility.yul\":11097:11126   */\n      swap1\n      pop\n        /* \"#utility.yul\":11059:11132   */\n      swap3\n      swap2\n      pop\n      pop\n      jump\t// out\n        /* \"#utility.yul\":11138:11323   */\n    tag_185:\n      0x00\n        /* \"#utility.yul\":11195:11215   */\n      tag_307\n        /* \"#utility.yul\":11213:11214   */\n      dup3\n        /* \"#utility.yul\":11195:11215   */\n      tag_277\n      jump\t// in\n    tag_307:\n        /* \"#utility.yul\":11190:11215   */\n      swap2\n      pop\n        /* \"#utility.yul\":11229:11249   */\n      tag_308\n        /* \"#utility.yul\":11247:11248   */\n      dup4\n        /* \"#utility.yul\":11229:11249   */\n      tag_277\n      jump\t// in\n    tag_308:\n        /* \"#utility.yul\":11224:11249   */\n      swap3\n      pop\n        /* \"#utility.yul\":11268:11269   */\n      dup3\n        /* \"#utility.yul\":11258:11260   */\n      tag_309\n      jumpi\n        /* \"#utility.yul\":11273:11291   */\n      tag_310\n      tag_311\n      jump\t// in\n    tag_310:\n        /* \"#utility.yul\":11258:11260   */\n    tag_309:\n        /* \"#utility.yul\":11315:11316   */\n      dup3\n        /* \"#utility.yul\":11312:11313   */\n      dup3\n        /* \"#utility.yul\":11308:11317   */\n      div\n        /* \"#utility.yul\":11303:11317   */\n      swap1\n      pop\n        /* \"#utility.yul\":11180:11323   */\n      swap3\n      swap2\n      pop\n      pop\n      jump\t// out\n        /* \"#utility.yul\":11329:11677   */\n    tag_183:\n      0x00\n        /* \"#utility.yul\":11392:11412   */\n      tag_313\n        /* \"#utility.yul\":11410:11411   */\n      dup3\n        /* \"#utility.yul\":11392:11412   */\n      tag_277\n      jump\t// in\n    tag_313:\n        /* \"#utility.yul\":11387:11412   */\n      swap2\n      pop\n        /* \"#utility.yul\":11426:11446   */\n      tag_314\n        /* \"#utility.yul\":11444:11445   */\n      dup4\n        /* \"#utility.yul\":11426:11446   */\n      tag_277\n      jump\t// in\n    tag_314:\n        /* \"#utility.yul\":11421:11446   */\n      swap3\n      pop\n        /* \"#utility.yul\":11614:11615   */\n      dup2\n        /* \"#utility.yul\":11546:11612   */\n      0xffffffffffffffffffffffffffffffffffffffffffffffffffffffffffffffff\n        /* \"#utility.yul\":11542:11616   */\n      div\n        /* \"#utility.yul\":11539:11540   */\n      dup4\n        /* \"#utility.yul\":11536:11617   */\n      gt\n        /* \"#utility.yul\":11531:11532   */\n      dup3\n        /* \"#utility.yul\":11524:11533   */\n      iszero\n        /* \"#utility.yul\":11517:11534   */\n      iszero\n        /* \"#utility.yul\":11513:11618   */\n      and\n        /* \"#utility.yul\":11510:11512   */\n      iszero\n      tag_315\n      jumpi\n        /* \"#utility.yul\":11621:11639   */\n      tag_316\n      tag_317\n      jump\t// in\n    tag_316:\n        /* \"#utility.yul\":11510:11512   */\n    tag_315:\n        /* \"#utility.yul\":11669:11670   */\n      dup3\n        /* \"#utility.yul\":11666:11667   */\n      dup3\n        /* \"#utility.yul\":11662:11671   */\n      mul\n        /* \"#utility.yul\":11651:11671   */\n      swap1\n      pop\n        /* \"#utility.yul\":11377:11677   */\n      swap3\n      swap2\n      pop\n      pop\n      jump\t// out\n        /* \"#utility.yul\":11683:11874   */\n    tag_187:\n      0x00\n        /* \"#utility.yul\":11743:11763   */\n      tag_319\n        /* \"#utility.yul\":11761:11762   */\n      dup3\n        /* \"#utility.yul\":11743:11763   */\n      tag_277\n      jump\t// in\n    tag_319:\n        /* \"#utility.yul\":11738:11763   */\n      swap2\n      pop\n        /* \"#utility.yul\":11777:11797   */\n      tag_320\n        /* \"#utility.yul\":11795:11796   */\n      dup4\n        /* \"#utility.yul\":11777:11797   */\n      tag_277\n      jump\t// in\n    tag_320:\n        /* \"#utility.yul\":11772:11797   */\n      swap3\n      pop\n        /* \"#utility.yul\":11816:11817   */\n      dup3\n        /* \"#utility.yul\":11813:11814   */\n      dup3\n        /* \"#utility.yul\":11810:11818   */\n      lt\n        /* \"#utility.yul\":11807:11809   */\n      iszero\n      tag_321\n      jumpi\n        /* \"#utility.yul\":11821:11839   */\n      tag_322\n      tag_317\n      jump\t// in\n    tag_322:\n        /* \"#utility.yul\":11807:11809   */\n    tag_321:\n        /* \"#utility.yul\":11866:11867   */\n      dup3\n        /* \"#utility.yul\":11863:11864   */\n      dup3\n        /* \"#utility.yul\":11859:11868   */\n      sub\n        /* \"#utility.yul\":11851:11868   */\n      swap1\n      pop\n        /* \"#utility.yul\":11728:11874   */\n      swap3\n      swap2\n      pop\n      pop\n      jump\t// out\n        /* \"#utility.yul\":11880:11976   */\n    tag_214:\n      0x00\n        /* \"#utility.yul\":11946:11970   */\n      tag_324\n        /* \"#utility.yul\":11964:11969   */\n      dup3\n        /* \"#utility.yul\":11946:11970   */\n      tag_325\n      jump\t// in\n    tag_324:\n        /* \"#utility.yul\":11935:11970   */\n      swap1\n      pop\n        /* \"#utility.yul\":11925:11976   */\n      swap2\n      swap1\n      pop\n      jump\t// out\n        /* \"#utility.yul\":11982:12072   */\n    tag_232:\n      0x00\n        /* \"#utility.yul\":12059:12064   */\n      dup2\n        /* \"#utility.yul\":12052:12065   */\n      iszero\n        /* \"#utility.yul\":12045:12066   */\n      iszero\n        /* \"#utility.yul\":12034:12066   */\n      swap1\n      pop\n        /* \"#utility.yul\":12024:12072   */\n      swap2\n      swap1\n      pop\n      jump\t// out\n        /* \"#utility.yul\":12078:12204   */\n    tag_325:\n      0x00\n        /* \"#utility.yul\":12155:12197   */\n      0xffffffffffffffffffffffffffffffffffffffff\n        /* \"#utility.yul\":12148:12153   */\n      dup3\n        /* \"#utility.yul\":12144:12198   */\n      and\n        /* \"#utility.yul\":12133:12198   */\n      swap1\n      pop\n        /* \"#utility.yul\":12123:12204   */\n      swap2\n      swap1\n      pop\n      jump\t// out\n        /* \"#utility.yul\":12210:12287   */\n    tag_277:\n      0x00\n        /* \"#utility.yul\":12276:12281   */\n      dup2\n        /* \"#utility.yul\":12265:12281   */\n      swap1\n      pop\n        /* \"#utility.yul\":12255:12287   */\n      swap2\n      swap1\n      pop\n      jump\t// out\n        /* \"#utility.yul\":12293:12526   */\n    tag_89:\n      0x00\n        /* \"#utility.yul\":12355:12379   */\n      tag_330\n        /* \"#utility.yul\":12373:12378   */\n      dup3\n        /* \"#utility.yul\":12355:12379   */\n      tag_277\n      jump\t// in\n    tag_330:\n        /* \"#utility.yul\":12346:12379   */\n      swap2\n      pop\n        /* \"#utility.yul\":12401:12467   */\n      0xffffffffffffffffffffffffffffffffffffffffffffffffffffffffffffffff\n        /* \"#utility.yul\":12394:12399   */\n      dup3\n        /* \"#utility.yul\":12391:12468   */\n      eq\n        /* \"#utility.yul\":12388:12390   */\n      iszero\n      tag_331\n      jumpi\n        /* \"#utility.yul\":12471:12489   */\n      tag_332\n      tag_317\n      jump\t// in\n    tag_332:\n        /* \"#utility.yul\":12388:12390   */\n    tag_331:\n        /* \"#utility.yul\":12518:12519   */\n      0x01\n        /* \"#utility.yul\":12511:12516   */\n      dup3\n        /* \"#utility.yul\":12507:12520   */\n      add\n        /* \"#utility.yul\":12500:12520   */\n      swap1\n      pop\n        /* \"#utility.yul\":12336:12526   */\n      swap2\n      swap1\n      pop\n      jump\t// out\n        /* \"#utility.yul\":12532:12712   */\n    tag_317:\n        /* \"#utility.yul\":12580:12657   */\n      0x4e487b7100000000000000000000000000000000000000000000000000000000\n        /* \"#utility.yul\":12577:12578   */\n      0x00\n        /* \"#utility.yul\":12570:12658   */\n      mstore\n        /* \"#utility.yul\":12677:12681   */\n      0x11\n        /* \"#utility.yul\":12674:12675   */\n      0x04\n        /* \"#utility.yul\":12667:12682   */\n      mstore\n        /* \"#utility.yul\":12701:12705   */\n      0x24\n        /* \"#utility.yul\":12698:12699   */\n      0x00\n        /* \"#utility.yul\":12691:12706   */\n      revert\n        /* \"#utility.yul\":12718:12898   */\n    tag_311:\n        /* \"#utility.yul\":12766:12843   */\n      0x4e487b7100000000000000000000000000000000000000000000000000000000\n        /* \"#utility.yul\":12763:12764   */\n      0x00\n        /* \"#utility.yul\":12756:12844   */\n      mstore\n        /* \"#utility.yul\":12863:12867   */\n      0x12\n        /* \"#utility.yul\":12860:12861   */\n      0x04\n        /* \"#utility.yul\":12853:12868   */\n      mstore\n        /* \"#utility.yul\":12887:12891   */\n      0x24\n        /* \"#utility.yul\":12884:12885   */\n      0x00\n        /* \"#utility.yul\":12877:12892   */\n      revert\n        /* \"#utility.yul\":12904:13073   */\n    tag_238:\n        /* \"#utility.yul\":13044:13065   */\n      0x746f6b656e2069736e277420746f2073656c6c00000000000000000000000000\n        /* \"#utility.yul\":13040:13041   */\n      0x00\n        /* \"#utility.yul\":13032:13038   */\n      dup3\n        /* \"#utility.yul\":13028:13042   */\n      add\n        /* \"#utility.yul\":13021:13066   */\n      mstore\n        /* \"#utility.yul\":13010:13073   */\n      pop\n      jump\t// out\n        /* \"#utility.yul\":13079:13248   */\n    tag_243:\n        /* \"#utility.yul\":13219:13240   */\n      0x746f6b656e20616c726561647920657869737400000000000000000000000000\n        /* \"#utility.yul\":13215:13216   */\n      0x00\n        /* \"#utility.yul\":13207:13213   */\n      dup3\n        /* \"#utility.yul\":13203:13217   */\n      add\n        /* \"#utility.yul\":13196:13241   */\n      mstore\n        /* \"#utility.yul\":13185:13248   */\n      pop\n      jump\t// out\n        /* \"#utility.yul\":13254:13423   */\n    tag_248:\n        /* \"#utility.yul\":13394:13415   */\n      0x746f6b656e20646f65736e277420657869737400000000000000000000000000\n        /* \"#utility.yul\":13390:13391   */\n      0x00\n        /* \"#utility.yul\":13382:13388   */\n      dup3\n        /* \"#utility.yul\":13378:13392   */\n      add\n        /* \"#utility.yul\":13371:13416   */\n      mstore\n        /* \"#utility.yul\":13360:13423   */\n      pop\n      jump\t// out\n        /* \"#utility.yul\":13429:13608   */\n    tag_253:\n        /* \"#utility.yul\":13569:13600   */\n      0x4f6e6c79206974656d2773206f776e65722063616e20646f2074686174000000\n        /* \"#utility.yul\":13565:13566   */\n      0x00\n        /* \"#utility.yul\":13557:13563   */\n      dup3\n        /* \"#utility.yul\":13553:13567   */\n      add\n        /* \"#utility.yul\":13546:13601   */\n      mstore\n        /* \"#utility.yul\":13535:13608   */\n      pop\n      jump\t// out\n        /* \"#utility.yul\":13614:13788   */\n    tag_258:\n        /* \"#utility.yul\":13754:13780   */\n      0x746f6b656e20697320616c726561647920746f2073656c6c0000000000000000\n        /* \"#utility.yul\":13750:13751   */\n      0x00\n        /* \"#utility.yul\":13742:13748   */\n      dup3\n        /* \"#utility.yul\":13738:13752   */\n      add\n        /* \"#utility.yul\":13731:13781   */\n      mstore\n        /* \"#utility.yul\":13720:13788   */\n      pop\n      jump\t// out\n        /* \"#utility.yul\":13794:14014   */\n    tag_263:\n        /* \"#utility.yul\":13934:13968   */\n      0x4f6e6c7920636f6e74726163742773206f776e65722063616e20646f20746861\n        /* \"#utility.yul\":13930:13931   */\n      0x00\n        /* \"#utility.yul\":13922:13928   */\n      dup3\n        /* \"#utility.yul\":13918:13932   */\n      add\n        /* \"#utility.yul\":13911:13969   */\n      mstore\n        /* \"#utility.yul\":14003:14006   */\n      0x7400000000000000000000000000000000000000000000000000000000000000\n        /* \"#utility.yul\":13998:14000   */\n      0x20\n        /* \"#utility.yul\":13990:13996   */\n      dup3\n        /* \"#utility.yul\":13986:14001   */\n      add\n        /* \"#utility.yul\":13979:14007   */\n      mstore\n        /* \"#utility.yul\":13900:14014   */\n      pop\n      jump\t// out\n        /* \"#utility.yul\":14020:14196   */\n    tag_268:\n        /* \"#utility.yul\":14160:14188   */\n      0x50726963652063616e6e6f7420626520657175616c20746f2030000000000000\n        /* \"#utility.yul\":14156:14157   */\n      0x00\n        /* \"#utility.yul\":14148:14154   */\n      dup3\n        /* \"#utility.yul\":14144:14158   */\n      add\n        /* \"#utility.yul\":14137:14189   */\n      mstore\n        /* \"#utility.yul\":14126:14196   */\n      pop\n      jump\t// out\n        /* \"#utility.yul\":14202:14324   */\n    tag_192:\n        /* \"#utility.yul\":14275:14299   */\n      tag_343\n        /* \"#utility.yul\":14293:14298   */\n      dup2\n        /* \"#utility.yul\":14275:14299   */\n      tag_214\n      jump\t// in\n    tag_343:\n        /* \"#utility.yul\":14268:14273   */\n      dup2\n        /* \"#utility.yul\":14265:14300   */\n      eq\n        /* \"#utility.yul\":14255:14257   */\n      tag_344\n      jumpi\n        /* \"#utility.yul\":14314:14315   */\n      0x00\n        /* \"#utility.yul\":14311:14312   */\n      dup1\n        /* \"#utility.yul\":14304:14316   */\n      revert\n        /* \"#utility.yul\":14255:14257   */\n    tag_344:\n        /* \"#utility.yul\":14245:14324   */\n      pop\n      jump\t// out\n        /* \"#utility.yul\":14330:14452   */\n    tag_196:\n        /* \"#utility.yul\":14403:14427   */\n      tag_346\n        /* \"#utility.yul\":14421:14426   */\n      dup2\n        /* \"#utility.yul\":14403:14427   */\n      tag_277\n      jump\t// in\n    tag_346:\n        /* \"#utility.yul\":14396:14401   */\n      dup2\n        /* \"#utility.yul\":14393:14428   */\n      eq\n        /* \"#utility.yul\":14383:14385   */\n      tag_347\n      jumpi\n        /* \"#utility.yul\":14442:14443   */\n      0x00\n        /* \"#utility.yul\":14439:14440   */\n      dup1\n        /* \"#utility.yul\":14432:14444   */\n      revert\n        /* \"#utility.yul\":14383:14385   */\n    tag_347:\n        /* \"#utility.yul\":14373:14452   */\n      pop\n      jump\t// out\n\n    auxdata: 0xa2646970667358221220ec422f7b7a216ee267ec012cf63643bb8aa61bd4b84fa996ab8f4c33439c4c5a64736f6c63430008010033\n}\n",
				"bytecode": {
					"linkReferences": {},
					"object": "60806040523480156200001157600080fd5b5033600260006101000a81548173ffffffffffffffffffffffffffffffffffffffff021916908373ffffffffffffffffffffffffffffffffffffffff1602179055506040518060400160405280600b81526020017f4765656b20546f6b656e7300000000000000000000000000000000000000000081525060009080519060200190620000a0929190620000f5565b506040518060400160405280600581526020017f4745454b5400000000000000000000000000000000000000000000000000000081525060019080519060200190620000ee929190620000f5565b506200020a565b8280546200010390620001a5565b90600052602060002090601f01602090048101928262000127576000855562000173565b82601f106200014257805160ff191683800117855562000173565b8280016001018555821562000173579182015b828111156200017257825182559160200191906001019062000155565b5b50905062000182919062000186565b5090565b5b80821115620001a157600081600090555060010162000187565b5090565b60006002820490506001821680620001be57607f821691505b60208210811415620001d557620001d4620001db565b5b50919050565b7f4e487b7100000000000000000000000000000000000000000000000000000000600052602260045260246000fd5b611d51806200021a6000396000f3fe6080604052600436106100a75760003560e01c806391b6be9a1161006457806391b6be9a146101e2578063a4964c33146101fe578063adae08dd14610227578063c0f202ef14610264578063d48644bd1461028d578063ea0ff14a146102ca576100a7565b8063073e74df146100ac5780632165e65a146100d757806329de6246146101145780634cad2ffc1461013d5780636352211e1461016857806370a08231146101a5575b600080fd5b3480156100b857600080fd5b506100c16102f5565b6040516100ce9190611893565b60405180910390f35b3480156100e357600080fd5b506100fe60048036038101906100f99190611617565b6104e8565b60405161010b9190611893565b60405180910390f35b34801561012057600080fd5b5061013b60048036038101906101369190611617565b6106dc565b005b34801561014957600080fd5b50610152610776565b60405161015f9190611893565b60405180910390f35b34801561017457600080fd5b5061018f600480360381019061018a9190611617565b6109a8565b60405161019c9190611878565b60405180910390f35b3480156101b157600080fd5b506101cc60048036038101906101c791906115ee565b6109e5565b6040516101d99190611995565b60405180910390f35b6101fc60048036038101906101f79190611617565b610a2e565b005b34801561020a57600080fd5b5061022560048036038101906102209190611617565b610e00565b005b34801561023357600080fd5b5061024e60048036038101906102499190611640565b61105f565b60405161025b9190611995565b60405180910390f35b34801561027057600080fd5b5061028b60048036038101906102869190611617565b6112dc565b005b34801561029957600080fd5b506102b460048036038101906102af9190611617565b61153a565b6040516102c19190611995565b60405180910390f35b3480156102d657600080fd5b506102df611552565b6040516102ec9190611995565b60405180910390f35b606060008060045467ffffffffffffffff81111561033c577f4e487b7100000000000000000000000000000000000000000000000000000000600052604160045260246000fd5b60405190808252806020026020018201604052801561037557816020015b61036261159a565b81526020019060019003908161035a5790505b50905060005b6003805490508110156104df5760011515600382815481106103c6577f4e487b7100000000000000000000000000000000000000000000000000000000600052603260045260246000fd5b906000526020600020906004020160030160009054906101000a900460ff16151514156104cc5760038181548110610427577f4e487b7100000000000000000000000000000000000000000000000000000000600052603260045260246000fd5b90600052602060002090600402016040518060800160405290816000820154815260200160018201548152602001600282015481526020016003820160009054906101000a900460ff1615151515815250508284815181106104b2577f4e487b7100000000000000000000000000000000000000000000000000000000600052603260045260246000fd5b602002602001018190525082806104c890611b01565b9350505b80806104d790611b01565b91505061037b565b50809250505090565b6060600080600860008581526020019081526020016000205467ffffffffffffffff811115610540577f4e487b7100000000000000000000000000000000000000000000000000000000600052604160045260246000fd5b60405190808252806020026020018201604052801561057957816020015b61056661159a565b81526020019060019003908161055e5790505b50905060005b6003805490508110156106d15784600382815481106105c7577f4e487b7100000000000000000000000000000000000000000000000000000000600052603260045260246000fd5b90600052602060002090600402016002015414156106be5760038181548110610619577f4e487b7100000000000000000000000000000000000000000000000000000000600052603260045260246000fd5b90600052602060002090600402016040518060800160405290816000820154815260200160018201548152602001600282015481526020016003820160009054906101000a900460ff1615151515815250508284815181106106a4577f4e487b7100000000000000000000000000000000000000000000000000000000600052603260045260246000fd5b602002602001018190525082806106ba90611b01565b9350505b80806106c990611b01565b91505061057f565b508092505050919050565b600260009054906101000a900473ffffffffffffffffffffffffffffffffffffffff1673ffffffffffffffffffffffffffffffffffffffff163373ffffffffffffffffffffffffffffffffffffffff161461076c576040517f08c379a000000000000000000000000000000000000000000000000000000000815260040161076390611955565b60405180910390fd5b8060058190555050565b6060600080600760003373ffffffffffffffffffffffffffffffffffffffff1673ffffffffffffffffffffffffffffffffffffffff1681526020019081526020016000205467ffffffffffffffff8111156107fa577f4e487b7100000000000000000000000000000000000000000000000000000000600052604160045260246000fd5b60405190808252806020026020018201604052801561083357816020015b61082061159a565b8152602001906001900390816108185790505b50905060005b60038054905081101561099f573373ffffffffffffffffffffffffffffffffffffffff166006600083815260200190815260200160002060009054906101000a900473ffffffffffffffffffffffffffffffffffffffff1673ffffffffffffffffffffffffffffffffffffffff16141561098c57600381815481106108e7577f4e487b7100000000000000000000000000000000000000000000000000000000600052603260045260246000fd5b90600052602060002090600402016040518060800160405290816000820154815260200160018201548152602001600282015481526020016003820160009054906101000a900460ff161515151581525050828481518110610972577f4e487b7100000000000000000000000000000000000000000000000000000000600052603260045260246000fd5b6020026020010181905250828061098890611b01565b9350505b808061099790611b01565b915050610839565b50809250505090565b60006006600083815260200190815260200160002060009054906101000a900473ffffffffffffffffffffffffffffffffffffffff169050919050565b6000600760008373ffffffffffffffffffffffffffffffffffffffff1673ffffffffffffffffffffffffffffffffffffffff168152602001908152602001600020549050919050565b60038181548110610a68577f4e487b7100000000000000000000000000000000000000000000000000000000600052603260045260246000fd5b9060005260206000209060040201600101543414610a8557600080fd5b600073ffffffffffffffffffffffffffffffffffffffff166006600083815260200190815260200160002060009054906101000a900473ffffffffffffffffffffffffffffffffffffffff1673ffffffffffffffffffffffffffffffffffffffff161415610b28576040517f08c379a0000000000000000000000000000000000000000000000000000000008152600401610b1f906118f5565b60405180910390fd5b60006006600083815260200190815260200160002060009054906101000a900473ffffffffffffffffffffffffffffffffffffffff169050600060038381548110610b9c577f4e487b7100000000000000000000000000000000000000000000000000000000600052603260045260246000fd5b9060005260206000209060040201905060008160030160006101000a81548160ff021916908315150217905550336006600085815260200190815260200160002060006101000a81548173ffffffffffffffffffffffffffffffffffffffff021916908373ffffffffffffffffffffffffffffffffffffffff160217905550600760008373ffffffffffffffffffffffffffffffffffffffff1673ffffffffffffffffffffffffffffffffffffffff1681526020019081526020016000206000815480929190600190039190505550600760003373ffffffffffffffffffffffffffffffffffffffff1673ffffffffffffffffffffffffffffffffffffffff1681526020019081526020016000206000815480929190600101919050555060046000815480929190600190039190505550600080610cdc3460055461155c565b8092508193505050600260009054906101000a900473ffffffffffffffffffffffffffffffffffffffff1673ffffffffffffffffffffffffffffffffffffffff166108fc839081150290604051600060405180830381858888f19350505050158015610d4c573d6000803e3d6000fd5b508373ffffffffffffffffffffffffffffffffffffffff166108fc829081150290604051600060405180830381858888f19350505050158015610d93573d6000803e3d6000fd5b503373ffffffffffffffffffffffffffffffffffffffff168473ffffffffffffffffffffffffffffffffffffffff167fddf252ad1be2c89b69c2b068fc378daa952ba7f163c4a11628f55a4df523b3ef87604051610df19190611995565b60405180910390a35050505050565b803373ffffffffffffffffffffffffffffffffffffffff166006600083815260200190815260200160002060009054906101000a900473ffffffffffffffffffffffffffffffffffffffff1673ffffffffffffffffffffffffffffffffffffffff1614610ea2576040517f08c379a0000000000000000000000000000000000000000000000000000000008152600401610e9990611915565b60405180910390fd5b600073ffffffffffffffffffffffffffffffffffffffff166006600084815260200190815260200160002060009054906101000a900473ffffffffffffffffffffffffffffffffffffffff1673ffffffffffffffffffffffffffffffffffffffff161415610f45576040517f08c379a0000000000000000000000000000000000000000000000000000000008152600401610f3c906118f5565b60405180910390fd5b6001151560038381548110610f83577f4e487b7100000000000000000000000000000000000000000000000000000000600052603260045260246000fd5b906000526020600020906004020160030160009054906101000a900460ff16151514610fe4576040517f08c379a0000000000000000000000000000000000000000000000000000000008152600401610fdb906118b5565b60405180910390fd5b600060038381548110611020577f4e487b7100000000000000000000000000000000000000000000000000000000600052603260045260246000fd5b906000526020600020906004020160030160006101000a81548160ff021916908315150217905550600460008154809291906001900391905055505050565b60008083116110a3576040517f08c379a000000000000000000000000000000000000000000000000000000000815260040161109a90611975565b60405180910390fd5b60006003805490509050600073ffffffffffffffffffffffffffffffffffffffff166006600083815260200190815260200160002060009054906101000a900473ffffffffffffffffffffffffffffffffffffffff1673ffffffffffffffffffffffffffffffffffffffff161461114f576040517f08c379a0000000000000000000000000000000000000000000000000000000008152600401611146906118d5565b60405180910390fd5b604051806080016040528082815260200185815260200184815260200160011515815250600382815481106111ad577f4e487b7100000000000000000000000000000000000000000000000000000000600052603260045260246000fd5b906000526020600020906004020160008201518160000155602082015181600101556040820151816002015560608201518160030160006101000a81548160ff021916908315150217905550905050336006600083815260200190815260200160002060006101000a81548173ffffffffffffffffffffffffffffffffffffffff021916908373ffffffffffffffffffffffffffffffffffffffff160217905550600760003373ffffffffffffffffffffffffffffffffffffffff1673ffffffffffffffffffffffffffffffffffffffff1681526020019081526020016000206000815480929190600101919050555060086000848152602001908152602001600020600081548092919060010191905055506004600081548092919060010191905055508091505092915050565b803373ffffffffffffffffffffffffffffffffffffffff166006600083815260200190815260200160002060009054906101000a900473ffffffffffffffffffffffffffffffffffffffff1673ffffffffffffffffffffffffffffffffffffffff161461137e576040517f08c379a000000000000000000000000000000000000000000000000000000000815260040161137590611915565b60405180910390fd5b600073ffffffffffffffffffffffffffffffffffffffff166006600084815260200190815260200160002060009054906101000a900473ffffffffffffffffffffffffffffffffffffffff1673ffffffffffffffffffffffffffffffffffffffff161415611421576040517f08c379a0000000000000000000000000000000000000000000000000000000008152600401611418906118f5565b60405180910390fd5b600015156003838154811061145f577f4e487b7100000000000000000000000000000000000000000000000000000000600052603260045260246000fd5b906000526020600020906004020160030160009054906101000a900460ff161515146114c0576040517f08c379a00000000000000000000000000000000000000000000000000000000081526004016114b790611935565b60405180910390fd5b6001600383815481106114fc577f4e487b7100000000000000000000000000000000000000000000000000000000600052603260045260246000fd5b906000526020600020906004020160030160006101000a81548160ff0219169083151502179055506004600081548092919060010191905055505050565b60086020528060005260406000206000915090505481565b6000600554905090565b60008060006064858561156f9190611a2b565b61157991906119fa565b9050600081866115899190611a85565b905081819350935050509250929050565b60405180608001604052806000815260200160008152602001600081526020016000151581525090565b6000813590506115d381611ced565b92915050565b6000813590506115e881611d04565b92915050565b60006020828403121561160057600080fd5b600061160e848285016115c4565b91505092915050565b60006020828403121561162957600080fd5b6000611637848285016115d9565b91505092915050565b6000806040838503121561165357600080fd5b6000611661858286016115d9565b9250506020611672858286016115d9565b9150509250929050565b60006116888383611805565b60808301905092915050565b61169d81611ab9565b82525050565b60006116ae826119c0565b6116b881856119d8565b93506116c3836119b0565b8060005b838110156116f45781516116db888261167c565b97506116e6836119cb565b9250506001810190506116c7565b5085935050505092915050565b61170a81611acb565b82525050565b600061171d6013836119e9565b915061172882611ba8565b602082019050919050565b60006117406013836119e9565b915061174b82611bd1565b602082019050919050565b60006117636013836119e9565b915061176e82611bfa565b602082019050919050565b6000611786601d836119e9565b915061179182611c23565b602082019050919050565b60006117a96018836119e9565b91506117b482611c4c565b602082019050919050565b60006117cc6021836119e9565b91506117d782611c75565b604082019050919050565b60006117ef601a836119e9565b91506117fa82611cc4565b602082019050919050565b60808201600082015161181b600085018261185a565b50602082015161182e602085018261185a565b506040820151611841604085018261185a565b5060608201516118546060850182611701565b50505050565b61186381611af7565b82525050565b61187281611af7565b82525050565b600060208201905061188d6000830184611694565b92915050565b600060208201905081810360008301526118ad81846116a3565b905092915050565b600060208201905081810360008301526118ce81611710565b9050919050565b600060208201905081810360008301526118ee81611733565b9050919050565b6000602082019050818103600083015261190e81611756565b9050919050565b6000602082019050818103600083015261192e81611779565b9050919050565b6000602082019050818103600083015261194e8161179c565b9050919050565b6000602082019050818103600083015261196e816117bf565b9050919050565b6000602082019050818103600083015261198e816117e2565b9050919050565b60006020820190506119aa6000830184611869565b92915050565b6000819050602082019050919050565b600081519050919050565b6000602082019050919050565b600082825260208201905092915050565b600082825260208201905092915050565b6000611a0582611af7565b9150611a1083611af7565b925082611a2057611a1f611b79565b5b828204905092915050565b6000611a3682611af7565b9150611a4183611af7565b9250817fffffffffffffffffffffffffffffffffffffffffffffffffffffffffffffffff0483118215151615611a7a57611a79611b4a565b5b828202905092915050565b6000611a9082611af7565b9150611a9b83611af7565b925082821015611aae57611aad611b4a565b5b828203905092915050565b6000611ac482611ad7565b9050919050565b60008115159050919050565b600073ffffffffffffffffffffffffffffffffffffffff82169050919050565b6000819050919050565b6000611b0c82611af7565b91507fffffffffffffffffffffffffffffffffffffffffffffffffffffffffffffffff821415611b3f57611b3e611b4a565b5b600182019050919050565b7f4e487b7100000000000000000000000000000000000000000000000000000000600052601160045260246000fd5b7f4e487b7100000000000000000000000000000000000000000000000000000000600052601260045260246000fd5b7f746f6b656e2069736e277420746f2073656c6c00000000000000000000000000600082015250565b7f746f6b656e20616c726561647920657869737400000000000000000000000000600082015250565b7f746f6b656e20646f65736e277420657869737400000000000000000000000000600082015250565b7f4f6e6c79206974656d2773206f776e65722063616e20646f2074686174000000600082015250565b7f746f6b656e20697320616c726561647920746f2073656c6c0000000000000000600082015250565b7f4f6e6c7920636f6e74726163742773206f776e65722063616e20646f2074686160008201527f7400000000000000000000000000000000000000000000000000000000000000602082015250565b7f50726963652063616e6e6f7420626520657175616c20746f2030000000000000600082015250565b611cf681611ab9565b8114611d0157600080fd5b50565b611d0d81611af7565b8114611d1857600080fd5b5056fea2646970667358221220ec422f7b7a216ee267ec012cf63643bb8aa61bd4b84fa996ab8f4c33439c4c5a64736f6c63430008010033",
					"opcodes": "PUSH1 0x80 PUSH1 0x40 MSTORE CALLVALUE DUP1 ISZERO PUSH3 0x11 JUMPI PUSH1 0x0 DUP1 REVERT JUMPDEST POP CALLER PUSH1 0x2 PUSH1 0x0 PUSH2 0x100 EXP DUP2 SLOAD DUP2 PUSH20 0xFFFFFFFFFFFFFFFFFFFFFFFFFFFFFFFFFFFFFFFF MUL NOT AND SWAP1 DUP4 PUSH20 0xFFFFFFFFFFFFFFFFFFFFFFFFFFFFFFFFFFFFFFFF AND MUL OR SWAP1 SSTORE POP PUSH1 0x40 MLOAD DUP1 PUSH1 0x40 ADD PUSH1 0x40 MSTORE DUP1 PUSH1 0xB DUP2 MSTORE PUSH1 0x20 ADD PUSH32 0x4765656B20546F6B656E73000000000000000000000000000000000000000000 DUP2 MSTORE POP PUSH1 0x0 SWAP1 DUP1 MLOAD SWAP1 PUSH1 0x20 ADD SWAP1 PUSH3 0xA0 SWAP3 SWAP2 SWAP1 PUSH3 0xF5 JUMP JUMPDEST POP PUSH1 0x40 MLOAD DUP1 PUSH1 0x40 ADD PUSH1 0x40 MSTORE DUP1 PUSH1 0x5 DUP2 MSTORE PUSH1 0x20 ADD PUSH32 0x4745454B54000000000000000000000000000000000000000000000000000000 DUP2 MSTORE POP PUSH1 0x1 SWAP1 DUP1 MLOAD SWAP1 PUSH1 0x20 ADD SWAP1 PUSH3 0xEE SWAP3 SWAP2 SWAP1 PUSH3 0xF5 JUMP JUMPDEST POP PUSH3 0x20A JUMP JUMPDEST DUP3 DUP1 SLOAD PUSH3 0x103 SWAP1 PUSH3 0x1A5 JUMP JUMPDEST SWAP1 PUSH1 0x0 MSTORE PUSH1 0x20 PUSH1 0x0 KECCAK256 SWAP1 PUSH1 0x1F ADD PUSH1 0x20 SWAP1 DIV DUP2 ADD SWAP3 DUP3 PUSH3 0x127 JUMPI PUSH1 0x0 DUP6 SSTORE PUSH3 0x173 JUMP JUMPDEST DUP3 PUSH1 0x1F LT PUSH3 0x142 JUMPI DUP1 MLOAD PUSH1 0xFF NOT AND DUP4 DUP1 ADD OR DUP6 SSTORE PUSH3 0x173 JUMP JUMPDEST DUP3 DUP1 ADD PUSH1 0x1 ADD DUP6 SSTORE DUP3 ISZERO PUSH3 0x173 JUMPI SWAP2 DUP3 ADD JUMPDEST DUP3 DUP2 GT ISZERO PUSH3 0x172 JUMPI DUP3 MLOAD DUP3 SSTORE SWAP2 PUSH1 0x20 ADD SWAP2 SWAP1 PUSH1 0x1 ADD SWAP1 PUSH3 0x155 JUMP JUMPDEST JUMPDEST POP SWAP1 POP PUSH3 0x182 SWAP2 SWAP1 PUSH3 0x186 JUMP JUMPDEST POP SWAP1 JUMP JUMPDEST JUMPDEST DUP1 DUP3 GT ISZERO PUSH3 0x1A1 JUMPI PUSH1 0x0 DUP2 PUSH1 0x0 SWAP1 SSTORE POP PUSH1 0x1 ADD PUSH3 0x187 JUMP JUMPDEST POP SWAP1 JUMP JUMPDEST PUSH1 0x0 PUSH1 0x2 DUP3 DIV SWAP1 POP PUSH1 0x1 DUP3 AND DUP1 PUSH3 0x1BE JUMPI PUSH1 0x7F DUP3 AND SWAP2 POP JUMPDEST PUSH1 0x20 DUP3 LT DUP2 EQ ISZERO PUSH3 0x1D5 JUMPI PUSH3 0x1D4 PUSH3 0x1DB JUMP JUMPDEST JUMPDEST POP SWAP2 SWAP1 POP JUMP JUMPDEST PUSH32 0x4E487B7100000000000000000000000000000000000000000000000000000000 PUSH1 0x0 MSTORE PUSH1 0x22 PUSH1 0x4 MSTORE PUSH1 0x24 PUSH1 0x0 REVERT JUMPDEST PUSH2 0x1D51 DUP1 PUSH3 0x21A PUSH1 0x0 CODECOPY PUSH1 0x0 RETURN INVALID PUSH1 0x80 PUSH1 0x40 MSTORE PUSH1 0x4 CALLDATASIZE LT PUSH2 0xA7 JUMPI PUSH1 0x0 CALLDATALOAD PUSH1 0xE0 SHR DUP1 PUSH4 0x91B6BE9A GT PUSH2 0x64 JUMPI DUP1 PUSH4 0x91B6BE9A EQ PUSH2 0x1E2 JUMPI DUP1 PUSH4 0xA4964C33 EQ PUSH2 0x1FE JUMPI DUP1 PUSH4 0xADAE08DD EQ PUSH2 0x227 JUMPI DUP1 PUSH4 0xC0F202EF EQ PUSH2 0x264 JUMPI DUP1 PUSH4 0xD48644BD EQ PUSH2 0x28D JUMPI DUP1 PUSH4 0xEA0FF14A EQ PUSH2 0x2CA JUMPI PUSH2 0xA7 JUMP JUMPDEST DUP1 PUSH4 0x73E74DF EQ PUSH2 0xAC JUMPI DUP1 PUSH4 0x2165E65A EQ PUSH2 0xD7 JUMPI DUP1 PUSH4 0x29DE6246 EQ PUSH2 0x114 JUMPI DUP1 PUSH4 0x4CAD2FFC EQ PUSH2 0x13D JUMPI DUP1 PUSH4 0x6352211E EQ PUSH2 0x168 JUMPI DUP1 PUSH4 0x70A08231 EQ PUSH2 0x1A5 JUMPI JUMPDEST PUSH1 0x0 DUP1 REVERT JUMPDEST CALLVALUE DUP1 ISZERO PUSH2 0xB8 JUMPI PUSH1 0x0 DUP1 REVERT JUMPDEST POP PUSH2 0xC1 PUSH2 0x2F5 JUMP JUMPDEST PUSH1 0x40 MLOAD PUSH2 0xCE SWAP2 SWAP1 PUSH2 0x1893 JUMP JUMPDEST PUSH1 0x40 MLOAD DUP1 SWAP2 SUB SWAP1 RETURN JUMPDEST CALLVALUE DUP1 ISZERO PUSH2 0xE3 JUMPI PUSH1 0x0 DUP1 REVERT JUMPDEST POP PUSH2 0xFE PUSH1 0x4 DUP1 CALLDATASIZE SUB DUP2 ADD SWAP1 PUSH2 0xF9 SWAP2 SWAP1 PUSH2 0x1617 JUMP JUMPDEST PUSH2 0x4E8 JUMP JUMPDEST PUSH1 0x40 MLOAD PUSH2 0x10B SWAP2 SWAP1 PUSH2 0x1893 JUMP JUMPDEST PUSH1 0x40 MLOAD DUP1 SWAP2 SUB SWAP1 RETURN JUMPDEST CALLVALUE DUP1 ISZERO PUSH2 0x120 JUMPI PUSH1 0x0 DUP1 REVERT JUMPDEST POP PUSH2 0x13B PUSH1 0x4 DUP1 CALLDATASIZE SUB DUP2 ADD SWAP1 PUSH2 0x136 SWAP2 SWAP1 PUSH2 0x1617 JUMP JUMPDEST PUSH2 0x6DC JUMP JUMPDEST STOP JUMPDEST CALLVALUE DUP1 ISZERO PUSH2 0x149 JUMPI PUSH1 0x0 DUP1 REVERT JUMPDEST POP PUSH2 0x152 PUSH2 0x776 JUMP JUMPDEST PUSH1 0x40 MLOAD PUSH2 0x15F SWAP2 SWAP1 PUSH2 0x1893 JUMP JUMPDEST PUSH1 0x40 MLOAD DUP1 SWAP2 SUB SWAP1 RETURN JUMPDEST CALLVALUE DUP1 ISZERO PUSH2 0x174 JUMPI PUSH1 0x0 DUP1 REVERT JUMPDEST POP PUSH2 0x18F PUSH1 0x4 DUP1 CALLDATASIZE SUB DUP2 ADD SWAP1 PUSH2 0x18A SWAP2 SWAP1 PUSH2 0x1617 JUMP JUMPDEST PUSH2 0x9A8 JUMP JUMPDEST PUSH1 0x40 MLOAD PUSH2 0x19C SWAP2 SWAP1 PUSH2 0x1878 JUMP JUMPDEST PUSH1 0x40 MLOAD DUP1 SWAP2 SUB SWAP1 RETURN JUMPDEST CALLVALUE DUP1 ISZERO PUSH2 0x1B1 JUMPI PUSH1 0x0 DUP1 REVERT JUMPDEST POP PUSH2 0x1CC PUSH1 0x4 DUP1 CALLDATASIZE SUB DUP2 ADD SWAP1 PUSH2 0x1C7 SWAP2 SWAP1 PUSH2 0x15EE JUMP JUMPDEST PUSH2 0x9E5 JUMP JUMPDEST PUSH1 0x40 MLOAD PUSH2 0x1D9 SWAP2 SWAP1 PUSH2 0x1995 JUMP JUMPDEST PUSH1 0x40 MLOAD DUP1 SWAP2 SUB SWAP1 RETURN JUMPDEST PUSH2 0x1FC PUSH1 0x4 DUP1 CALLDATASIZE SUB DUP2 ADD SWAP1 PUSH2 0x1F7 SWAP2 SWAP1 PUSH2 0x1617 JUMP JUMPDEST PUSH2 0xA2E JUMP JUMPDEST STOP JUMPDEST CALLVALUE DUP1 ISZERO PUSH2 0x20A JUMPI PUSH1 0x0 DUP1 REVERT JUMPDEST POP PUSH2 0x225 PUSH1 0x4 DUP1 CALLDATASIZE SUB DUP2 ADD SWAP1 PUSH2 0x220 SWAP2 SWAP1 PUSH2 0x1617 JUMP JUMPDEST PUSH2 0xE00 JUMP JUMPDEST STOP JUMPDEST CALLVALUE DUP1 ISZERO PUSH2 0x233 JUMPI PUSH1 0x0 DUP1 REVERT JUMPDEST POP PUSH2 0x24E PUSH1 0x4 DUP1 CALLDATASIZE SUB DUP2 ADD SWAP1 PUSH2 0x249 SWAP2 SWAP1 PUSH2 0x1640 JUMP JUMPDEST PUSH2 0x105F JUMP JUMPDEST PUSH1 0x40 MLOAD PUSH2 0x25B SWAP2 SWAP1 PUSH2 0x1995 JUMP JUMPDEST PUSH1 0x40 MLOAD DUP1 SWAP2 SUB SWAP1 RETURN JUMPDEST CALLVALUE DUP1 ISZERO PUSH2 0x270 JUMPI PUSH1 0x0 DUP1 REVERT JUMPDEST POP PUSH2 0x28B PUSH1 0x4 DUP1 CALLDATASIZE SUB DUP2 ADD SWAP1 PUSH2 0x286 SWAP2 SWAP1 PUSH2 0x1617 JUMP JUMPDEST PUSH2 0x12DC JUMP JUMPDEST STOP JUMPDEST CALLVALUE DUP1 ISZERO PUSH2 0x299 JUMPI PUSH1 0x0 DUP1 REVERT JUMPDEST POP PUSH2 0x2B4 PUSH1 0x4 DUP1 CALLDATASIZE SUB DUP2 ADD SWAP1 PUSH2 0x2AF SWAP2 SWAP1 PUSH2 0x1617 JUMP JUMPDEST PUSH2 0x153A JUMP JUMPDEST PUSH1 0x40 MLOAD PUSH2 0x2C1 SWAP2 SWAP1 PUSH2 0x1995 JUMP JUMPDEST PUSH1 0x40 MLOAD DUP1 SWAP2 SUB SWAP1 RETURN JUMPDEST CALLVALUE DUP1 ISZERO PUSH2 0x2D6 JUMPI PUSH1 0x0 DUP1 REVERT JUMPDEST POP PUSH2 0x2DF PUSH2 0x1552 JUMP JUMPDEST PUSH1 0x40 MLOAD PUSH2 0x2EC SWAP2 SWAP1 PUSH2 0x1995 JUMP JUMPDEST PUSH1 0x40 MLOAD DUP1 SWAP2 SUB SWAP1 RETURN JUMPDEST PUSH1 0x60 PUSH1 0x0 DUP1 PUSH1 0x4 SLOAD PUSH8 0xFFFFFFFFFFFFFFFF DUP2 GT ISZERO PUSH2 0x33C JUMPI PUSH32 0x4E487B7100000000000000000000000000000000000000000000000000000000 PUSH1 0x0 MSTORE PUSH1 0x41 PUSH1 0x4 MSTORE PUSH1 0x24 PUSH1 0x0 REVERT JUMPDEST PUSH1 0x40 MLOAD SWAP1 DUP1 DUP3 MSTORE DUP1 PUSH1 0x20 MUL PUSH1 0x20 ADD DUP3 ADD PUSH1 0x40 MSTORE DUP1 ISZERO PUSH2 0x375 JUMPI DUP2 PUSH1 0x20 ADD JUMPDEST PUSH2 0x362 PUSH2 0x159A JUMP JUMPDEST DUP2 MSTORE PUSH1 0x20 ADD SWAP1 PUSH1 0x1 SWAP1 SUB SWAP1 DUP2 PUSH2 0x35A JUMPI SWAP1 POP JUMPDEST POP SWAP1 POP PUSH1 0x0 JUMPDEST PUSH1 0x3 DUP1 SLOAD SWAP1 POP DUP2 LT ISZERO PUSH2 0x4DF JUMPI PUSH1 0x1 ISZERO ISZERO PUSH1 0x3 DUP3 DUP2 SLOAD DUP2 LT PUSH2 0x3C6 JUMPI PUSH32 0x4E487B7100000000000000000000000000000000000000000000000000000000 PUSH1 0x0 MSTORE PUSH1 0x32 PUSH1 0x4 MSTORE PUSH1 0x24 PUSH1 0x0 REVERT JUMPDEST SWAP1 PUSH1 0x0 MSTORE PUSH1 0x20 PUSH1 0x0 KECCAK256 SWAP1 PUSH1 0x4 MUL ADD PUSH1 0x3 ADD PUSH1 0x0 SWAP1 SLOAD SWAP1 PUSH2 0x100 EXP SWAP1 DIV PUSH1 0xFF AND ISZERO ISZERO EQ ISZERO PUSH2 0x4CC JUMPI PUSH1 0x3 DUP2 DUP2 SLOAD DUP2 LT PUSH2 0x427 JUMPI PUSH32 0x4E487B7100000000000000000000000000000000000000000000000000000000 PUSH1 0x0 MSTORE PUSH1 0x32 PUSH1 0x4 MSTORE PUSH1 0x24 PUSH1 0x0 REVERT JUMPDEST SWAP1 PUSH1 0x0 MSTORE PUSH1 0x20 PUSH1 0x0 KECCAK256 SWAP1 PUSH1 0x4 MUL ADD PUSH1 0x40 MLOAD DUP1 PUSH1 0x80 ADD PUSH1 0x40 MSTORE SWAP1 DUP2 PUSH1 0x0 DUP3 ADD SLOAD DUP2 MSTORE PUSH1 0x20 ADD PUSH1 0x1 DUP3 ADD SLOAD DUP2 MSTORE PUSH1 0x20 ADD PUSH1 0x2 DUP3 ADD SLOAD DUP2 MSTORE PUSH1 0x20 ADD PUSH1 0x3 DUP3 ADD PUSH1 0x0 SWAP1 SLOAD SWAP1 PUSH2 0x100 EXP SWAP1 DIV PUSH1 0xFF AND ISZERO ISZERO ISZERO ISZERO DUP2 MSTORE POP POP DUP3 DUP5 DUP2 MLOAD DUP2 LT PUSH2 0x4B2 JUMPI PUSH32 0x4E487B7100000000000000000000000000000000000000000000000000000000 PUSH1 0x0 MSTORE PUSH1 0x32 PUSH1 0x4 MSTORE PUSH1 0x24 PUSH1 0x0 REVERT JUMPDEST PUSH1 0x20 MUL PUSH1 0x20 ADD ADD DUP2 SWAP1 MSTORE POP DUP3 DUP1 PUSH2 0x4C8 SWAP1 PUSH2 0x1B01 JUMP JUMPDEST SWAP4 POP POP JUMPDEST DUP1 DUP1 PUSH2 0x4D7 SWAP1 PUSH2 0x1B01 JUMP JUMPDEST SWAP2 POP POP PUSH2 0x37B JUMP JUMPDEST POP DUP1 SWAP3 POP POP POP SWAP1 JUMP JUMPDEST PUSH1 0x60 PUSH1 0x0 DUP1 PUSH1 0x8 PUSH1 0x0 DUP6 DUP2 MSTORE PUSH1 0x20 ADD SWAP1 DUP2 MSTORE PUSH1 0x20 ADD PUSH1 0x0 KECCAK256 SLOAD PUSH8 0xFFFFFFFFFFFFFFFF DUP2 GT ISZERO PUSH2 0x540 JUMPI PUSH32 0x4E487B7100000000000000000000000000000000000000000000000000000000 PUSH1 0x0 MSTORE PUSH1 0x41 PUSH1 0x4 MSTORE PUSH1 0x24 PUSH1 0x0 REVERT JUMPDEST PUSH1 0x40 MLOAD SWAP1 DUP1 DUP3 MSTORE DUP1 PUSH1 0x20 MUL PUSH1 0x20 ADD DUP3 ADD PUSH1 0x40 MSTORE DUP1 ISZERO PUSH2 0x579 JUMPI DUP2 PUSH1 0x20 ADD JUMPDEST PUSH2 0x566 PUSH2 0x159A JUMP JUMPDEST DUP2 MSTORE PUSH1 0x20 ADD SWAP1 PUSH1 0x1 SWAP1 SUB SWAP1 DUP2 PUSH2 0x55E JUMPI SWAP1 POP JUMPDEST POP SWAP1 POP PUSH1 0x0 JUMPDEST PUSH1 0x3 DUP1 SLOAD SWAP1 POP DUP2 LT ISZERO PUSH2 0x6D1 JUMPI DUP5 PUSH1 0x3 DUP3 DUP2 SLOAD DUP2 LT PUSH2 0x5C7 JUMPI PUSH32 0x4E487B7100000000000000000000000000000000000000000000000000000000 PUSH1 0x0 MSTORE PUSH1 0x32 PUSH1 0x4 MSTORE PUSH1 0x24 PUSH1 0x0 REVERT JUMPDEST SWAP1 PUSH1 0x0 MSTORE PUSH1 0x20 PUSH1 0x0 KECCAK256 SWAP1 PUSH1 0x4 MUL ADD PUSH1 0x2 ADD SLOAD EQ ISZERO PUSH2 0x6BE JUMPI PUSH1 0x3 DUP2 DUP2 SLOAD DUP2 LT PUSH2 0x619 JUMPI PUSH32 0x4E487B7100000000000000000000000000000000000000000000000000000000 PUSH1 0x0 MSTORE PUSH1 0x32 PUSH1 0x4 MSTORE PUSH1 0x24 PUSH1 0x0 REVERT JUMPDEST SWAP1 PUSH1 0x0 MSTORE PUSH1 0x20 PUSH1 0x0 KECCAK256 SWAP1 PUSH1 0x4 MUL ADD PUSH1 0x40 MLOAD DUP1 PUSH1 0x80 ADD PUSH1 0x40 MSTORE SWAP1 DUP2 PUSH1 0x0 DUP3 ADD SLOAD DUP2 MSTORE PUSH1 0x20 ADD PUSH1 0x1 DUP3 ADD SLOAD DUP2 MSTORE PUSH1 0x20 ADD PUSH1 0x2 DUP3 ADD SLOAD DUP2 MSTORE PUSH1 0x20 ADD PUSH1 0x3 DUP3 ADD PUSH1 0x0 SWAP1 SLOAD SWAP1 PUSH2 0x100 EXP SWAP1 DIV PUSH1 0xFF AND ISZERO ISZERO ISZERO ISZERO DUP2 MSTORE POP POP DUP3 DUP5 DUP2 MLOAD DUP2 LT PUSH2 0x6A4 JUMPI PUSH32 0x4E487B7100000000000000000000000000000000000000000000000000000000 PUSH1 0x0 MSTORE PUSH1 0x32 PUSH1 0x4 MSTORE PUSH1 0x24 PUSH1 0x0 REVERT JUMPDEST PUSH1 0x20 MUL PUSH1 0x20 ADD ADD DUP2 SWAP1 MSTORE POP DUP3 DUP1 PUSH2 0x6BA SWAP1 PUSH2 0x1B01 JUMP JUMPDEST SWAP4 POP POP JUMPDEST DUP1 DUP1 PUSH2 0x6C9 SWAP1 PUSH2 0x1B01 JUMP JUMPDEST SWAP2 POP POP PUSH2 0x57F JUMP JUMPDEST POP DUP1 SWAP3 POP POP POP SWAP2 SWAP1 POP JUMP JUMPDEST PUSH1 0x2 PUSH1 0x0 SWAP1 SLOAD SWAP1 PUSH2 0x100 EXP SWAP1 DIV PUSH20 0xFFFFFFFFFFFFFFFFFFFFFFFFFFFFFFFFFFFFFFFF AND PUSH20 0xFFFFFFFFFFFFFFFFFFFFFFFFFFFFFFFFFFFFFFFF AND CALLER PUSH20 0xFFFFFFFFFFFFFFFFFFFFFFFFFFFFFFFFFFFFFFFF AND EQ PUSH2 0x76C JUMPI PUSH1 0x40 MLOAD PUSH32 0x8C379A000000000000000000000000000000000000000000000000000000000 DUP2 MSTORE PUSH1 0x4 ADD PUSH2 0x763 SWAP1 PUSH2 0x1955 JUMP JUMPDEST PUSH1 0x40 MLOAD DUP1 SWAP2 SUB SWAP1 REVERT JUMPDEST DUP1 PUSH1 0x5 DUP2 SWAP1 SSTORE POP POP JUMP JUMPDEST PUSH1 0x60 PUSH1 0x0 DUP1 PUSH1 0x7 PUSH1 0x0 CALLER PUSH20 0xFFFFFFFFFFFFFFFFFFFFFFFFFFFFFFFFFFFFFFFF AND PUSH20 0xFFFFFFFFFFFFFFFFFFFFFFFFFFFFFFFFFFFFFFFF AND DUP2 MSTORE PUSH1 0x20 ADD SWAP1 DUP2 MSTORE PUSH1 0x20 ADD PUSH1 0x0 KECCAK256 SLOAD PUSH8 0xFFFFFFFFFFFFFFFF DUP2 GT ISZERO PUSH2 0x7FA JUMPI PUSH32 0x4E487B7100000000000000000000000000000000000000000000000000000000 PUSH1 0x0 MSTORE PUSH1 0x41 PUSH1 0x4 MSTORE PUSH1 0x24 PUSH1 0x0 REVERT JUMPDEST PUSH1 0x40 MLOAD SWAP1 DUP1 DUP3 MSTORE DUP1 PUSH1 0x20 MUL PUSH1 0x20 ADD DUP3 ADD PUSH1 0x40 MSTORE DUP1 ISZERO PUSH2 0x833 JUMPI DUP2 PUSH1 0x20 ADD JUMPDEST PUSH2 0x820 PUSH2 0x159A JUMP JUMPDEST DUP2 MSTORE PUSH1 0x20 ADD SWAP1 PUSH1 0x1 SWAP1 SUB SWAP1 DUP2 PUSH2 0x818 JUMPI SWAP1 POP JUMPDEST POP SWAP1 POP PUSH1 0x0 JUMPDEST PUSH1 0x3 DUP1 SLOAD SWAP1 POP DUP2 LT ISZERO PUSH2 0x99F JUMPI CALLER PUSH20 0xFFFFFFFFFFFFFFFFFFFFFFFFFFFFFFFFFFFFFFFF AND PUSH1 0x6 PUSH1 0x0 DUP4 DUP2 MSTORE PUSH1 0x20 ADD SWAP1 DUP2 MSTORE PUSH1 0x20 ADD PUSH1 0x0 KECCAK256 PUSH1 0x0 SWAP1 SLOAD SWAP1 PUSH2 0x100 EXP SWAP1 DIV PUSH20 0xFFFFFFFFFFFFFFFFFFFFFFFFFFFFFFFFFFFFFFFF AND PUSH20 0xFFFFFFFFFFFFFFFFFFFFFFFFFFFFFFFFFFFFFFFF AND EQ ISZERO PUSH2 0x98C JUMPI PUSH1 0x3 DUP2 DUP2 SLOAD DUP2 LT PUSH2 0x8E7 JUMPI PUSH32 0x4E487B7100000000000000000000000000000000000000000000000000000000 PUSH1 0x0 MSTORE PUSH1 0x32 PUSH1 0x4 MSTORE PUSH1 0x24 PUSH1 0x0 REVERT JUMPDEST SWAP1 PUSH1 0x0 MSTORE PUSH1 0x20 PUSH1 0x0 KECCAK256 SWAP1 PUSH1 0x4 MUL ADD PUSH1 0x40 MLOAD DUP1 PUSH1 0x80 ADD PUSH1 0x40 MSTORE SWAP1 DUP2 PUSH1 0x0 DUP3 ADD SLOAD DUP2 MSTORE PUSH1 0x20 ADD PUSH1 0x1 DUP3 ADD SLOAD DUP2 MSTORE PUSH1 0x20 ADD PUSH1 0x2 DUP3 ADD SLOAD DUP2 MSTORE PUSH1 0x20 ADD PUSH1 0x3 DUP3 ADD PUSH1 0x0 SWAP1 SLOAD SWAP1 PUSH2 0x100 EXP SWAP1 DIV PUSH1 0xFF AND ISZERO ISZERO ISZERO ISZERO DUP2 MSTORE POP POP DUP3 DUP5 DUP2 MLOAD DUP2 LT PUSH2 0x972 JUMPI PUSH32 0x4E487B7100000000000000000000000000000000000000000000000000000000 PUSH1 0x0 MSTORE PUSH1 0x32 PUSH1 0x4 MSTORE PUSH1 0x24 PUSH1 0x0 REVERT JUMPDEST PUSH1 0x20 MUL PUSH1 0x20 ADD ADD DUP2 SWAP1 MSTORE POP DUP3 DUP1 PUSH2 0x988 SWAP1 PUSH2 0x1B01 JUMP JUMPDEST SWAP4 POP POP JUMPDEST DUP1 DUP1 PUSH2 0x997 SWAP1 PUSH2 0x1B01 JUMP JUMPDEST SWAP2 POP POP PUSH2 0x839 JUMP JUMPDEST POP DUP1 SWAP3 POP POP POP SWAP1 JUMP JUMPDEST PUSH1 0x0 PUSH1 0x6 PUSH1 0x0 DUP4 DUP2 MSTORE PUSH1 0x20 ADD SWAP1 DUP2 MSTORE PUSH1 0x20 ADD PUSH1 0x0 KECCAK256 PUSH1 0x0 SWAP1 SLOAD SWAP1 PUSH2 0x100 EXP SWAP1 DIV PUSH20 0xFFFFFFFFFFFFFFFFFFFFFFFFFFFFFFFFFFFFFFFF AND SWAP1 POP SWAP2 SWAP1 POP JUMP JUMPDEST PUSH1 0x0 PUSH1 0x7 PUSH1 0x0 DUP4 PUSH20 0xFFFFFFFFFFFFFFFFFFFFFFFFFFFFFFFFFFFFFFFF AND PUSH20 0xFFFFFFFFFFFFFFFFFFFFFFFFFFFFFFFFFFFFFFFF AND DUP2 MSTORE PUSH1 0x20 ADD SWAP1 DUP2 MSTORE PUSH1 0x20 ADD PUSH1 0x0 KECCAK256 SLOAD SWAP1 POP SWAP2 SWAP1 POP JUMP JUMPDEST PUSH1 0x3 DUP2 DUP2 SLOAD DUP2 LT PUSH2 0xA68 JUMPI PUSH32 0x4E487B7100000000000000000000000000000000000000000000000000000000 PUSH1 0x0 MSTORE PUSH1 0x32 PUSH1 0x4 MSTORE PUSH1 0x24 PUSH1 0x0 REVERT JUMPDEST SWAP1 PUSH1 0x0 MSTORE PUSH1 0x20 PUSH1 0x0 KECCAK256 SWAP1 PUSH1 0x4 MUL ADD PUSH1 0x1 ADD SLOAD CALLVALUE EQ PUSH2 0xA85 JUMPI PUSH1 0x0 DUP1 REVERT JUMPDEST PUSH1 0x0 PUSH20 0xFFFFFFFFFFFFFFFFFFFFFFFFFFFFFFFFFFFFFFFF AND PUSH1 0x6 PUSH1 0x0 DUP4 DUP2 MSTORE PUSH1 0x20 ADD SWAP1 DUP2 MSTORE PUSH1 0x20 ADD PUSH1 0x0 KECCAK256 PUSH1 0x0 SWAP1 SLOAD SWAP1 PUSH2 0x100 EXP SWAP1 DIV PUSH20 0xFFFFFFFFFFFFFFFFFFFFFFFFFFFFFFFFFFFFFFFF AND PUSH20 0xFFFFFFFFFFFFFFFFFFFFFFFFFFFFFFFFFFFFFFFF AND EQ ISZERO PUSH2 0xB28 JUMPI PUSH1 0x40 MLOAD PUSH32 0x8C379A000000000000000000000000000000000000000000000000000000000 DUP2 MSTORE PUSH1 0x4 ADD PUSH2 0xB1F SWAP1 PUSH2 0x18F5 JUMP JUMPDEST PUSH1 0x40 MLOAD DUP1 SWAP2 SUB SWAP1 REVERT JUMPDEST PUSH1 0x0 PUSH1 0x6 PUSH1 0x0 DUP4 DUP2 MSTORE PUSH1 0x20 ADD SWAP1 DUP2 MSTORE PUSH1 0x20 ADD PUSH1 0x0 KECCAK256 PUSH1 0x0 SWAP1 SLOAD SWAP1 PUSH2 0x100 EXP SWAP1 DIV PUSH20 0xFFFFFFFFFFFFFFFFFFFFFFFFFFFFFFFFFFFFFFFF AND SWAP1 POP PUSH1 0x0 PUSH1 0x3 DUP4 DUP2 SLOAD DUP2 LT PUSH2 0xB9C JUMPI PUSH32 0x4E487B7100000000000000000000000000000000000000000000000000000000 PUSH1 0x0 MSTORE PUSH1 0x32 PUSH1 0x4 MSTORE PUSH1 0x24 PUSH1 0x0 REVERT JUMPDEST SWAP1 PUSH1 0x0 MSTORE PUSH1 0x20 PUSH1 0x0 KECCAK256 SWAP1 PUSH1 0x4 MUL ADD SWAP1 POP PUSH1 0x0 DUP2 PUSH1 0x3 ADD PUSH1 0x0 PUSH2 0x100 EXP DUP2 SLOAD DUP2 PUSH1 0xFF MUL NOT AND SWAP1 DUP4 ISZERO ISZERO MUL OR SWAP1 SSTORE POP CALLER PUSH1 0x6 PUSH1 0x0 DUP6 DUP2 MSTORE PUSH1 0x20 ADD SWAP1 DUP2 MSTORE PUSH1 0x20 ADD PUSH1 0x0 KECCAK256 PUSH1 0x0 PUSH2 0x100 EXP DUP2 SLOAD DUP2 PUSH20 0xFFFFFFFFFFFFFFFFFFFFFFFFFFFFFFFFFFFFFFFF MUL NOT AND SWAP1 DUP4 PUSH20 0xFFFFFFFFFFFFFFFFFFFFFFFFFFFFFFFFFFFFFFFF AND MUL OR SWAP1 SSTORE POP PUSH1 0x7 PUSH1 0x0 DUP4 PUSH20 0xFFFFFFFFFFFFFFFFFFFFFFFFFFFFFFFFFFFFFFFF AND PUSH20 0xFFFFFFFFFFFFFFFFFFFFFFFFFFFFFFFFFFFFFFFF AND DUP2 MSTORE PUSH1 0x20 ADD SWAP1 DUP2 MSTORE PUSH1 0x20 ADD PUSH1 0x0 KECCAK256 PUSH1 0x0 DUP2 SLOAD DUP1 SWAP3 SWAP2 SWAP1 PUSH1 0x1 SWAP1 SUB SWAP2 SWAP1 POP SSTORE POP PUSH1 0x7 PUSH1 0x0 CALLER PUSH20 0xFFFFFFFFFFFFFFFFFFFFFFFFFFFFFFFFFFFFFFFF AND PUSH20 0xFFFFFFFFFFFFFFFFFFFFFFFFFFFFFFFFFFFFFFFF AND DUP2 MSTORE PUSH1 0x20 ADD SWAP1 DUP2 MSTORE PUSH1 0x20 ADD PUSH1 0x0 KECCAK256 PUSH1 0x0 DUP2 SLOAD DUP1 SWAP3 SWAP2 SWAP1 PUSH1 0x1 ADD SWAP2 SWAP1 POP SSTORE POP PUSH1 0x4 PUSH1 0x0 DUP2 SLOAD DUP1 SWAP3 SWAP2 SWAP1 PUSH1 0x1 SWAP1 SUB SWAP2 SWAP1 POP SSTORE POP PUSH1 0x0 DUP1 PUSH2 0xCDC CALLVALUE PUSH1 0x5 SLOAD PUSH2 0x155C JUMP JUMPDEST DUP1 SWAP3 POP DUP2 SWAP4 POP POP POP PUSH1 0x2 PUSH1 0x0 SWAP1 SLOAD SWAP1 PUSH2 0x100 EXP SWAP1 DIV PUSH20 0xFFFFFFFFFFFFFFFFFFFFFFFFFFFFFFFFFFFFFFFF AND PUSH20 0xFFFFFFFFFFFFFFFFFFFFFFFFFFFFFFFFFFFFFFFF AND PUSH2 0x8FC DUP4 SWAP1 DUP2 ISZERO MUL SWAP1 PUSH1 0x40 MLOAD PUSH1 0x0 PUSH1 0x40 MLOAD DUP1 DUP4 SUB DUP2 DUP6 DUP9 DUP9 CALL SWAP4 POP POP POP POP ISZERO DUP1 ISZERO PUSH2 0xD4C JUMPI RETURNDATASIZE PUSH1 0x0 DUP1 RETURNDATACOPY RETURNDATASIZE PUSH1 0x0 REVERT JUMPDEST POP DUP4 PUSH20 0xFFFFFFFFFFFFFFFFFFFFFFFFFFFFFFFFFFFFFFFF AND PUSH2 0x8FC DUP3 SWAP1 DUP2 ISZERO MUL SWAP1 PUSH1 0x40 MLOAD PUSH1 0x0 PUSH1 0x40 MLOAD DUP1 DUP4 SUB DUP2 DUP6 DUP9 DUP9 CALL SWAP4 POP POP POP POP ISZERO DUP1 ISZERO PUSH2 0xD93 JUMPI RETURNDATASIZE PUSH1 0x0 DUP1 RETURNDATACOPY RETURNDATASIZE PUSH1 0x0 REVERT JUMPDEST POP CALLER PUSH20 0xFFFFFFFFFFFFFFFFFFFFFFFFFFFFFFFFFFFFFFFF AND DUP5 PUSH20 0xFFFFFFFFFFFFFFFFFFFFFFFFFFFFFFFFFFFFFFFF AND PUSH32 0xDDF252AD1BE2C89B69C2B068FC378DAA952BA7F163C4A11628F55A4DF523B3EF DUP8 PUSH1 0x40 MLOAD PUSH2 0xDF1 SWAP2 SWAP1 PUSH2 0x1995 JUMP JUMPDEST PUSH1 0x40 MLOAD DUP1 SWAP2 SUB SWAP1 LOG3 POP POP POP POP POP JUMP JUMPDEST DUP1 CALLER PUSH20 0xFFFFFFFFFFFFFFFFFFFFFFFFFFFFFFFFFFFFFFFF AND PUSH1 0x6 PUSH1 0x0 DUP4 DUP2 MSTORE PUSH1 0x20 ADD SWAP1 DUP2 MSTORE PUSH1 0x20 ADD PUSH1 0x0 KECCAK256 PUSH1 0x0 SWAP1 SLOAD SWAP1 PUSH2 0x100 EXP SWAP1 DIV PUSH20 0xFFFFFFFFFFFFFFFFFFFFFFFFFFFFFFFFFFFFFFFF AND PUSH20 0xFFFFFFFFFFFFFFFFFFFFFFFFFFFFFFFFFFFFFFFF AND EQ PUSH2 0xEA2 JUMPI PUSH1 0x40 MLOAD PUSH32 0x8C379A000000000000000000000000000000000000000000000000000000000 DUP2 MSTORE PUSH1 0x4 ADD PUSH2 0xE99 SWAP1 PUSH2 0x1915 JUMP JUMPDEST PUSH1 0x40 MLOAD DUP1 SWAP2 SUB SWAP1 REVERT JUMPDEST PUSH1 0x0 PUSH20 0xFFFFFFFFFFFFFFFFFFFFFFFFFFFFFFFFFFFFFFFF AND PUSH1 0x6 PUSH1 0x0 DUP5 DUP2 MSTORE PUSH1 0x20 ADD SWAP1 DUP2 MSTORE PUSH1 0x20 ADD PUSH1 0x0 KECCAK256 PUSH1 0x0 SWAP1 SLOAD SWAP1 PUSH2 0x100 EXP SWAP1 DIV PUSH20 0xFFFFFFFFFFFFFFFFFFFFFFFFFFFFFFFFFFFFFFFF AND PUSH20 0xFFFFFFFFFFFFFFFFFFFFFFFFFFFFFFFFFFFFFFFF AND EQ ISZERO PUSH2 0xF45 JUMPI PUSH1 0x40 MLOAD PUSH32 0x8C379A000000000000000000000000000000000000000000000000000000000 DUP2 MSTORE PUSH1 0x4 ADD PUSH2 0xF3C SWAP1 PUSH2 0x18F5 JUMP JUMPDEST PUSH1 0x40 MLOAD DUP1 SWAP2 SUB SWAP1 REVERT JUMPDEST PUSH1 0x1 ISZERO ISZERO PUSH1 0x3 DUP4 DUP2 SLOAD DUP2 LT PUSH2 0xF83 JUMPI PUSH32 0x4E487B7100000000000000000000000000000000000000000000000000000000 PUSH1 0x0 MSTORE PUSH1 0x32 PUSH1 0x4 MSTORE PUSH1 0x24 PUSH1 0x0 REVERT JUMPDEST SWAP1 PUSH1 0x0 MSTORE PUSH1 0x20 PUSH1 0x0 KECCAK256 SWAP1 PUSH1 0x4 MUL ADD PUSH1 0x3 ADD PUSH1 0x0 SWAP1 SLOAD SWAP1 PUSH2 0x100 EXP SWAP1 DIV PUSH1 0xFF AND ISZERO ISZERO EQ PUSH2 0xFE4 JUMPI PUSH1 0x40 MLOAD PUSH32 0x8C379A000000000000000000000000000000000000000000000000000000000 DUP2 MSTORE PUSH1 0x4 ADD PUSH2 0xFDB SWAP1 PUSH2 0x18B5 JUMP JUMPDEST PUSH1 0x40 MLOAD DUP1 SWAP2 SUB SWAP1 REVERT JUMPDEST PUSH1 0x0 PUSH1 0x3 DUP4 DUP2 SLOAD DUP2 LT PUSH2 0x1020 JUMPI PUSH32 0x4E487B7100000000000000000000000000000000000000000000000000000000 PUSH1 0x0 MSTORE PUSH1 0x32 PUSH1 0x4 MSTORE PUSH1 0x24 PUSH1 0x0 REVERT JUMPDEST SWAP1 PUSH1 0x0 MSTORE PUSH1 0x20 PUSH1 0x0 KECCAK256 SWAP1 PUSH1 0x4 MUL ADD PUSH1 0x3 ADD PUSH1 0x0 PUSH2 0x100 EXP DUP2 SLOAD DUP2 PUSH1 0xFF MUL NOT AND SWAP1 DUP4 ISZERO ISZERO MUL OR SWAP1 SSTORE POP PUSH1 0x4 PUSH1 0x0 DUP2 SLOAD DUP1 SWAP3 SWAP2 SWAP1 PUSH1 0x1 SWAP1 SUB SWAP2 SWAP1 POP SSTORE POP POP POP JUMP JUMPDEST PUSH1 0x0 DUP1 DUP4 GT PUSH2 0x10A3 JUMPI PUSH1 0x40 MLOAD PUSH32 0x8C379A000000000000000000000000000000000000000000000000000000000 DUP2 MSTORE PUSH1 0x4 ADD PUSH2 0x109A SWAP1 PUSH2 0x1975 JUMP JUMPDEST PUSH1 0x40 MLOAD DUP1 SWAP2 SUB SWAP1 REVERT JUMPDEST PUSH1 0x0 PUSH1 0x3 DUP1 SLOAD SWAP1 POP SWAP1 POP PUSH1 0x0 PUSH20 0xFFFFFFFFFFFFFFFFFFFFFFFFFFFFFFFFFFFFFFFF AND PUSH1 0x6 PUSH1 0x0 DUP4 DUP2 MSTORE PUSH1 0x20 ADD SWAP1 DUP2 MSTORE PUSH1 0x20 ADD PUSH1 0x0 KECCAK256 PUSH1 0x0 SWAP1 SLOAD SWAP1 PUSH2 0x100 EXP SWAP1 DIV PUSH20 0xFFFFFFFFFFFFFFFFFFFFFFFFFFFFFFFFFFFFFFFF AND PUSH20 0xFFFFFFFFFFFFFFFFFFFFFFFFFFFFFFFFFFFFFFFF AND EQ PUSH2 0x114F JUMPI PUSH1 0x40 MLOAD PUSH32 0x8C379A000000000000000000000000000000000000000000000000000000000 DUP2 MSTORE PUSH1 0x4 ADD PUSH2 0x1146 SWAP1 PUSH2 0x18D5 JUMP JUMPDEST PUSH1 0x40 MLOAD DUP1 SWAP2 SUB SWAP1 REVERT JUMPDEST PUSH1 0x40 MLOAD DUP1 PUSH1 0x80 ADD PUSH1 0x40 MSTORE DUP1 DUP3 DUP2 MSTORE PUSH1 0x20 ADD DUP6 DUP2 MSTORE PUSH1 0x20 ADD DUP5 DUP2 MSTORE PUSH1 0x20 ADD PUSH1 0x1 ISZERO ISZERO DUP2 MSTORE POP PUSH1 0x3 DUP3 DUP2 SLOAD DUP2 LT PUSH2 0x11AD JUMPI PUSH32 0x4E487B7100000000000000000000000000000000000000000000000000000000 PUSH1 0x0 MSTORE PUSH1 0x32 PUSH1 0x4 MSTORE PUSH1 0x24 PUSH1 0x0 REVERT JUMPDEST SWAP1 PUSH1 0x0 MSTORE PUSH1 0x20 PUSH1 0x0 KECCAK256 SWAP1 PUSH1 0x4 MUL ADD PUSH1 0x0 DUP3 ADD MLOAD DUP2 PUSH1 0x0 ADD SSTORE PUSH1 0x20 DUP3 ADD MLOAD DUP2 PUSH1 0x1 ADD SSTORE PUSH1 0x40 DUP3 ADD MLOAD DUP2 PUSH1 0x2 ADD SSTORE PUSH1 0x60 DUP3 ADD MLOAD DUP2 PUSH1 0x3 ADD PUSH1 0x0 PUSH2 0x100 EXP DUP2 SLOAD DUP2 PUSH1 0xFF MUL NOT AND SWAP1 DUP4 ISZERO ISZERO MUL OR SWAP1 SSTORE POP SWAP1 POP POP CALLER PUSH1 0x6 PUSH1 0x0 DUP4 DUP2 MSTORE PUSH1 0x20 ADD SWAP1 DUP2 MSTORE PUSH1 0x20 ADD PUSH1 0x0 KECCAK256 PUSH1 0x0 PUSH2 0x100 EXP DUP2 SLOAD DUP2 PUSH20 0xFFFFFFFFFFFFFFFFFFFFFFFFFFFFFFFFFFFFFFFF MUL NOT AND SWAP1 DUP4 PUSH20 0xFFFFFFFFFFFFFFFFFFFFFFFFFFFFFFFFFFFFFFFF AND MUL OR SWAP1 SSTORE POP PUSH1 0x7 PUSH1 0x0 CALLER PUSH20 0xFFFFFFFFFFFFFFFFFFFFFFFFFFFFFFFFFFFFFFFF AND PUSH20 0xFFFFFFFFFFFFFFFFFFFFFFFFFFFFFFFFFFFFFFFF AND DUP2 MSTORE PUSH1 0x20 ADD SWAP1 DUP2 MSTORE PUSH1 0x20 ADD PUSH1 0x0 KECCAK256 PUSH1 0x0 DUP2 SLOAD DUP1 SWAP3 SWAP2 SWAP1 PUSH1 0x1 ADD SWAP2 SWAP1 POP SSTORE POP PUSH1 0x8 PUSH1 0x0 DUP5 DUP2 MSTORE PUSH1 0x20 ADD SWAP1 DUP2 MSTORE PUSH1 0x20 ADD PUSH1 0x0 KECCAK256 PUSH1 0x0 DUP2 SLOAD DUP1 SWAP3 SWAP2 SWAP1 PUSH1 0x1 ADD SWAP2 SWAP1 POP SSTORE POP PUSH1 0x4 PUSH1 0x0 DUP2 SLOAD DUP1 SWAP3 SWAP2 SWAP1 PUSH1 0x1 ADD SWAP2 SWAP1 POP SSTORE POP DUP1 SWAP2 POP POP SWAP3 SWAP2 POP POP JUMP JUMPDEST DUP1 CALLER PUSH20 0xFFFFFFFFFFFFFFFFFFFFFFFFFFFFFFFFFFFFFFFF AND PUSH1 0x6 PUSH1 0x0 DUP4 DUP2 MSTORE PUSH1 0x20 ADD SWAP1 DUP2 MSTORE PUSH1 0x20 ADD PUSH1 0x0 KECCAK256 PUSH1 0x0 SWAP1 SLOAD SWAP1 PUSH2 0x100 EXP SWAP1 DIV PUSH20 0xFFFFFFFFFFFFFFFFFFFFFFFFFFFFFFFFFFFFFFFF AND PUSH20 0xFFFFFFFFFFFFFFFFFFFFFFFFFFFFFFFFFFFFFFFF AND EQ PUSH2 0x137E JUMPI PUSH1 0x40 MLOAD PUSH32 0x8C379A000000000000000000000000000000000000000000000000000000000 DUP2 MSTORE PUSH1 0x4 ADD PUSH2 0x1375 SWAP1 PUSH2 0x1915 JUMP JUMPDEST PUSH1 0x40 MLOAD DUP1 SWAP2 SUB SWAP1 REVERT JUMPDEST PUSH1 0x0 PUSH20 0xFFFFFFFFFFFFFFFFFFFFFFFFFFFFFFFFFFFFFFFF AND PUSH1 0x6 PUSH1 0x0 DUP5 DUP2 MSTORE PUSH1 0x20 ADD SWAP1 DUP2 MSTORE PUSH1 0x20 ADD PUSH1 0x0 KECCAK256 PUSH1 0x0 SWAP1 SLOAD SWAP1 PUSH2 0x100 EXP SWAP1 DIV PUSH20 0xFFFFFFFFFFFFFFFFFFFFFFFFFFFFFFFFFFFFFFFF AND PUSH20 0xFFFFFFFFFFFFFFFFFFFFFFFFFFFFFFFFFFFFFFFF AND EQ ISZERO PUSH2 0x1421 JUMPI PUSH1 0x40 MLOAD PUSH32 0x8C379A000000000000000000000000000000000000000000000000000000000 DUP2 MSTORE PUSH1 0x4 ADD PUSH2 0x1418 SWAP1 PUSH2 0x18F5 JUMP JUMPDEST PUSH1 0x40 MLOAD DUP1 SWAP2 SUB SWAP1 REVERT JUMPDEST PUSH1 0x0 ISZERO ISZERO PUSH1 0x3 DUP4 DUP2 SLOAD DUP2 LT PUSH2 0x145F JUMPI PUSH32 0x4E487B7100000000000000000000000000000000000000000000000000000000 PUSH1 0x0 MSTORE PUSH1 0x32 PUSH1 0x4 MSTORE PUSH1 0x24 PUSH1 0x0 REVERT JUMPDEST SWAP1 PUSH1 0x0 MSTORE PUSH1 0x20 PUSH1 0x0 KECCAK256 SWAP1 PUSH1 0x4 MUL ADD PUSH1 0x3 ADD PUSH1 0x0 SWAP1 SLOAD SWAP1 PUSH2 0x100 EXP SWAP1 DIV PUSH1 0xFF AND ISZERO ISZERO EQ PUSH2 0x14C0 JUMPI PUSH1 0x40 MLOAD PUSH32 0x8C379A000000000000000000000000000000000000000000000000000000000 DUP2 MSTORE PUSH1 0x4 ADD PUSH2 0x14B7 SWAP1 PUSH2 0x1935 JUMP JUMPDEST PUSH1 0x40 MLOAD DUP1 SWAP2 SUB SWAP1 REVERT JUMPDEST PUSH1 0x1 PUSH1 0x3 DUP4 DUP2 SLOAD DUP2 LT PUSH2 0x14FC JUMPI PUSH32 0x4E487B7100000000000000000000000000000000000000000000000000000000 PUSH1 0x0 MSTORE PUSH1 0x32 PUSH1 0x4 MSTORE PUSH1 0x24 PUSH1 0x0 REVERT JUMPDEST SWAP1 PUSH1 0x0 MSTORE PUSH1 0x20 PUSH1 0x0 KECCAK256 SWAP1 PUSH1 0x4 MUL ADD PUSH1 0x3 ADD PUSH1 0x0 PUSH2 0x100 EXP DUP2 SLOAD DUP2 PUSH1 0xFF MUL NOT AND SWAP1 DUP4 ISZERO ISZERO MUL OR SWAP1 SSTORE POP PUSH1 0x4 PUSH1 0x0 DUP2 SLOAD DUP1 SWAP3 SWAP2 SWAP1 PUSH1 0x1 ADD SWAP2 SWAP1 POP SSTORE POP POP POP JUMP JUMPDEST PUSH1 0x8 PUSH1 0x20 MSTORE DUP1 PUSH1 0x0 MSTORE PUSH1 0x40 PUSH1 0x0 KECCAK256 PUSH1 0x0 SWAP2 POP SWAP1 POP SLOAD DUP2 JUMP JUMPDEST PUSH1 0x0 PUSH1 0x5 SLOAD SWAP1 POP SWAP1 JUMP JUMPDEST PUSH1 0x0 DUP1 PUSH1 0x0 PUSH1 0x64 DUP6 DUP6 PUSH2 0x156F SWAP2 SWAP1 PUSH2 0x1A2B JUMP JUMPDEST PUSH2 0x1579 SWAP2 SWAP1 PUSH2 0x19FA JUMP JUMPDEST SWAP1 POP PUSH1 0x0 DUP2 DUP7 PUSH2 0x1589 SWAP2 SWAP1 PUSH2 0x1A85 JUMP JUMPDEST SWAP1 POP DUP2 DUP2 SWAP4 POP SWAP4 POP POP POP SWAP3 POP SWAP3 SWAP1 POP JUMP JUMPDEST PUSH1 0x40 MLOAD DUP1 PUSH1 0x80 ADD PUSH1 0x40 MSTORE DUP1 PUSH1 0x0 DUP2 MSTORE PUSH1 0x20 ADD PUSH1 0x0 DUP2 MSTORE PUSH1 0x20 ADD PUSH1 0x0 DUP2 MSTORE PUSH1 0x20 ADD PUSH1 0x0 ISZERO ISZERO DUP2 MSTORE POP SWAP1 JUMP JUMPDEST PUSH1 0x0 DUP2 CALLDATALOAD SWAP1 POP PUSH2 0x15D3 DUP2 PUSH2 0x1CED JUMP JUMPDEST SWAP3 SWAP2 POP POP JUMP JUMPDEST PUSH1 0x0 DUP2 CALLDATALOAD SWAP1 POP PUSH2 0x15E8 DUP2 PUSH2 0x1D04 JUMP JUMPDEST SWAP3 SWAP2 POP POP JUMP JUMPDEST PUSH1 0x0 PUSH1 0x20 DUP3 DUP5 SUB SLT ISZERO PUSH2 0x1600 JUMPI PUSH1 0x0 DUP1 REVERT JUMPDEST PUSH1 0x0 PUSH2 0x160E DUP5 DUP3 DUP6 ADD PUSH2 0x15C4 JUMP JUMPDEST SWAP2 POP POP SWAP3 SWAP2 POP POP JUMP JUMPDEST PUSH1 0x0 PUSH1 0x20 DUP3 DUP5 SUB SLT ISZERO PUSH2 0x1629 JUMPI PUSH1 0x0 DUP1 REVERT JUMPDEST PUSH1 0x0 PUSH2 0x1637 DUP5 DUP3 DUP6 ADD PUSH2 0x15D9 JUMP JUMPDEST SWAP2 POP POP SWAP3 SWAP2 POP POP JUMP JUMPDEST PUSH1 0x0 DUP1 PUSH1 0x40 DUP4 DUP6 SUB SLT ISZERO PUSH2 0x1653 JUMPI PUSH1 0x0 DUP1 REVERT JUMPDEST PUSH1 0x0 PUSH2 0x1661 DUP6 DUP3 DUP7 ADD PUSH2 0x15D9 JUMP JUMPDEST SWAP3 POP POP PUSH1 0x20 PUSH2 0x1672 DUP6 DUP3 DUP7 ADD PUSH2 0x15D9 JUMP JUMPDEST SWAP2 POP POP SWAP3 POP SWAP3 SWAP1 POP JUMP JUMPDEST PUSH1 0x0 PUSH2 0x1688 DUP4 DUP4 PUSH2 0x1805 JUMP JUMPDEST PUSH1 0x80 DUP4 ADD SWAP1 POP SWAP3 SWAP2 POP POP JUMP JUMPDEST PUSH2 0x169D DUP2 PUSH2 0x1AB9 JUMP JUMPDEST DUP3 MSTORE POP POP JUMP JUMPDEST PUSH1 0x0 PUSH2 0x16AE DUP3 PUSH2 0x19C0 JUMP JUMPDEST PUSH2 0x16B8 DUP2 DUP6 PUSH2 0x19D8 JUMP JUMPDEST SWAP4 POP PUSH2 0x16C3 DUP4 PUSH2 0x19B0 JUMP JUMPDEST DUP1 PUSH1 0x0 JUMPDEST DUP4 DUP2 LT ISZERO PUSH2 0x16F4 JUMPI DUP2 MLOAD PUSH2 0x16DB DUP9 DUP3 PUSH2 0x167C JUMP JUMPDEST SWAP8 POP PUSH2 0x16E6 DUP4 PUSH2 0x19CB JUMP JUMPDEST SWAP3 POP POP PUSH1 0x1 DUP2 ADD SWAP1 POP PUSH2 0x16C7 JUMP JUMPDEST POP DUP6 SWAP4 POP POP POP POP SWAP3 SWAP2 POP POP JUMP JUMPDEST PUSH2 0x170A DUP2 PUSH2 0x1ACB JUMP JUMPDEST DUP3 MSTORE POP POP JUMP JUMPDEST PUSH1 0x0 PUSH2 0x171D PUSH1 0x13 DUP4 PUSH2 0x19E9 JUMP JUMPDEST SWAP2 POP PUSH2 0x1728 DUP3 PUSH2 0x1BA8 JUMP JUMPDEST PUSH1 0x20 DUP3 ADD SWAP1 POP SWAP2 SWAP1 POP JUMP JUMPDEST PUSH1 0x0 PUSH2 0x1740 PUSH1 0x13 DUP4 PUSH2 0x19E9 JUMP JUMPDEST SWAP2 POP PUSH2 0x174B DUP3 PUSH2 0x1BD1 JUMP JUMPDEST PUSH1 0x20 DUP3 ADD SWAP1 POP SWAP2 SWAP1 POP JUMP JUMPDEST PUSH1 0x0 PUSH2 0x1763 PUSH1 0x13 DUP4 PUSH2 0x19E9 JUMP JUMPDEST SWAP2 POP PUSH2 0x176E DUP3 PUSH2 0x1BFA JUMP JUMPDEST PUSH1 0x20 DUP3 ADD SWAP1 POP SWAP2 SWAP1 POP JUMP JUMPDEST PUSH1 0x0 PUSH2 0x1786 PUSH1 0x1D DUP4 PUSH2 0x19E9 JUMP JUMPDEST SWAP2 POP PUSH2 0x1791 DUP3 PUSH2 0x1C23 JUMP JUMPDEST PUSH1 0x20 DUP3 ADD SWAP1 POP SWAP2 SWAP1 POP JUMP JUMPDEST PUSH1 0x0 PUSH2 0x17A9 PUSH1 0x18 DUP4 PUSH2 0x19E9 JUMP JUMPDEST SWAP2 POP PUSH2 0x17B4 DUP3 PUSH2 0x1C4C JUMP JUMPDEST PUSH1 0x20 DUP3 ADD SWAP1 POP SWAP2 SWAP1 POP JUMP JUMPDEST PUSH1 0x0 PUSH2 0x17CC PUSH1 0x21 DUP4 PUSH2 0x19E9 JUMP JUMPDEST SWAP2 POP PUSH2 0x17D7 DUP3 PUSH2 0x1C75 JUMP JUMPDEST PUSH1 0x40 DUP3 ADD SWAP1 POP SWAP2 SWAP1 POP JUMP JUMPDEST PUSH1 0x0 PUSH2 0x17EF PUSH1 0x1A DUP4 PUSH2 0x19E9 JUMP JUMPDEST SWAP2 POP PUSH2 0x17FA DUP3 PUSH2 0x1CC4 JUMP JUMPDEST PUSH1 0x20 DUP3 ADD SWAP1 POP SWAP2 SWAP1 POP JUMP JUMPDEST PUSH1 0x80 DUP3 ADD PUSH1 0x0 DUP3 ADD MLOAD PUSH2 0x181B PUSH1 0x0 DUP6 ADD DUP3 PUSH2 0x185A JUMP JUMPDEST POP PUSH1 0x20 DUP3 ADD MLOAD PUSH2 0x182E PUSH1 0x20 DUP6 ADD DUP3 PUSH2 0x185A JUMP JUMPDEST POP PUSH1 0x40 DUP3 ADD MLOAD PUSH2 0x1841 PUSH1 0x40 DUP6 ADD DUP3 PUSH2 0x185A JUMP JUMPDEST POP PUSH1 0x60 DUP3 ADD MLOAD PUSH2 0x1854 PUSH1 0x60 DUP6 ADD DUP3 PUSH2 0x1701 JUMP JUMPDEST POP POP POP POP JUMP JUMPDEST PUSH2 0x1863 DUP2 PUSH2 0x1AF7 JUMP JUMPDEST DUP3 MSTORE POP POP JUMP JUMPDEST PUSH2 0x1872 DUP2 PUSH2 0x1AF7 JUMP JUMPDEST DUP3 MSTORE POP POP JUMP JUMPDEST PUSH1 0x0 PUSH1 0x20 DUP3 ADD SWAP1 POP PUSH2 0x188D PUSH1 0x0 DUP4 ADD DUP5 PUSH2 0x1694 JUMP JUMPDEST SWAP3 SWAP2 POP POP JUMP JUMPDEST PUSH1 0x0 PUSH1 0x20 DUP3 ADD SWAP1 POP DUP2 DUP2 SUB PUSH1 0x0 DUP4 ADD MSTORE PUSH2 0x18AD DUP2 DUP5 PUSH2 0x16A3 JUMP JUMPDEST SWAP1 POP SWAP3 SWAP2 POP POP JUMP JUMPDEST PUSH1 0x0 PUSH1 0x20 DUP3 ADD SWAP1 POP DUP2 DUP2 SUB PUSH1 0x0 DUP4 ADD MSTORE PUSH2 0x18CE DUP2 PUSH2 0x1710 JUMP JUMPDEST SWAP1 POP SWAP2 SWAP1 POP JUMP JUMPDEST PUSH1 0x0 PUSH1 0x20 DUP3 ADD SWAP1 POP DUP2 DUP2 SUB PUSH1 0x0 DUP4 ADD MSTORE PUSH2 0x18EE DUP2 PUSH2 0x1733 JUMP JUMPDEST SWAP1 POP SWAP2 SWAP1 POP JUMP JUMPDEST PUSH1 0x0 PUSH1 0x20 DUP3 ADD SWAP1 POP DUP2 DUP2 SUB PUSH1 0x0 DUP4 ADD MSTORE PUSH2 0x190E DUP2 PUSH2 0x1756 JUMP JUMPDEST SWAP1 POP SWAP2 SWAP1 POP JUMP JUMPDEST PUSH1 0x0 PUSH1 0x20 DUP3 ADD SWAP1 POP DUP2 DUP2 SUB PUSH1 0x0 DUP4 ADD MSTORE PUSH2 0x192E DUP2 PUSH2 0x1779 JUMP JUMPDEST SWAP1 POP SWAP2 SWAP1 POP JUMP JUMPDEST PUSH1 0x0 PUSH1 0x20 DUP3 ADD SWAP1 POP DUP2 DUP2 SUB PUSH1 0x0 DUP4 ADD MSTORE PUSH2 0x194E DUP2 PUSH2 0x179C JUMP JUMPDEST SWAP1 POP SWAP2 SWAP1 POP JUMP JUMPDEST PUSH1 0x0 PUSH1 0x20 DUP3 ADD SWAP1 POP DUP2 DUP2 SUB PUSH1 0x0 DUP4 ADD MSTORE PUSH2 0x196E DUP2 PUSH2 0x17BF JUMP JUMPDEST SWAP1 POP SWAP2 SWAP1 POP JUMP JUMPDEST PUSH1 0x0 PUSH1 0x20 DUP3 ADD SWAP1 POP DUP2 DUP2 SUB PUSH1 0x0 DUP4 ADD MSTORE PUSH2 0x198E DUP2 PUSH2 0x17E2 JUMP JUMPDEST SWAP1 POP SWAP2 SWAP1 POP JUMP JUMPDEST PUSH1 0x0 PUSH1 0x20 DUP3 ADD SWAP1 POP PUSH2 0x19AA PUSH1 0x0 DUP4 ADD DUP5 PUSH2 0x1869 JUMP JUMPDEST SWAP3 SWAP2 POP POP JUMP JUMPDEST PUSH1 0x0 DUP2 SWAP1 POP PUSH1 0x20 DUP3 ADD SWAP1 POP SWAP2 SWAP1 POP JUMP JUMPDEST PUSH1 0x0 DUP2 MLOAD SWAP1 POP SWAP2 SWAP1 POP JUMP JUMPDEST PUSH1 0x0 PUSH1 0x20 DUP3 ADD SWAP1 POP SWAP2 SWAP1 POP JUMP JUMPDEST PUSH1 0x0 DUP3 DUP3 MSTORE PUSH1 0x20 DUP3 ADD SWAP1 POP SWAP3 SWAP2 POP POP JUMP JUMPDEST PUSH1 0x0 DUP3 DUP3 MSTORE PUSH1 0x20 DUP3 ADD SWAP1 POP SWAP3 SWAP2 POP POP JUMP JUMPDEST PUSH1 0x0 PUSH2 0x1A05 DUP3 PUSH2 0x1AF7 JUMP JUMPDEST SWAP2 POP PUSH2 0x1A10 DUP4 PUSH2 0x1AF7 JUMP JUMPDEST SWAP3 POP DUP3 PUSH2 0x1A20 JUMPI PUSH2 0x1A1F PUSH2 0x1B79 JUMP JUMPDEST JUMPDEST DUP3 DUP3 DIV SWAP1 POP SWAP3 SWAP2 POP POP JUMP JUMPDEST PUSH1 0x0 PUSH2 0x1A36 DUP3 PUSH2 0x1AF7 JUMP JUMPDEST SWAP2 POP PUSH2 0x1A41 DUP4 PUSH2 0x1AF7 JUMP JUMPDEST SWAP3 POP DUP2 PUSH32 0xFFFFFFFFFFFFFFFFFFFFFFFFFFFFFFFFFFFFFFFFFFFFFFFFFFFFFFFFFFFFFFFF DIV DUP4 GT DUP3 ISZERO ISZERO AND ISZERO PUSH2 0x1A7A JUMPI PUSH2 0x1A79 PUSH2 0x1B4A JUMP JUMPDEST JUMPDEST DUP3 DUP3 MUL SWAP1 POP SWAP3 SWAP2 POP POP JUMP JUMPDEST PUSH1 0x0 PUSH2 0x1A90 DUP3 PUSH2 0x1AF7 JUMP JUMPDEST SWAP2 POP PUSH2 0x1A9B DUP4 PUSH2 0x1AF7 JUMP JUMPDEST SWAP3 POP DUP3 DUP3 LT ISZERO PUSH2 0x1AAE JUMPI PUSH2 0x1AAD PUSH2 0x1B4A JUMP JUMPDEST JUMPDEST DUP3 DUP3 SUB SWAP1 POP SWAP3 SWAP2 POP POP JUMP JUMPDEST PUSH1 0x0 PUSH2 0x1AC4 DUP3 PUSH2 0x1AD7 JUMP JUMPDEST SWAP1 POP SWAP2 SWAP1 POP JUMP JUMPDEST PUSH1 0x0 DUP2 ISZERO ISZERO SWAP1 POP SWAP2 SWAP1 POP JUMP JUMPDEST PUSH1 0x0 PUSH20 0xFFFFFFFFFFFFFFFFFFFFFFFFFFFFFFFFFFFFFFFF DUP3 AND SWAP1 POP SWAP2 SWAP1 POP JUMP JUMPDEST PUSH1 0x0 DUP2 SWAP1 POP SWAP2 SWAP1 POP JUMP JUMPDEST PUSH1 0x0 PUSH2 0x1B0C DUP3 PUSH2 0x1AF7 JUMP JUMPDEST SWAP2 POP PUSH32 0xFFFFFFFFFFFFFFFFFFFFFFFFFFFFFFFFFFFFFFFFFFFFFFFFFFFFFFFFFFFFFFFF DUP3 EQ ISZERO PUSH2 0x1B3F JUMPI PUSH2 0x1B3E PUSH2 0x1B4A JUMP JUMPDEST JUMPDEST PUSH1 0x1 DUP3 ADD SWAP1 POP SWAP2 SWAP1 POP JUMP JUMPDEST PUSH32 0x4E487B7100000000000000000000000000000000000000000000000000000000 PUSH1 0x0 MSTORE PUSH1 0x11 PUSH1 0x4 MSTORE PUSH1 0x24 PUSH1 0x0 REVERT JUMPDEST PUSH32 0x4E487B7100000000000000000000000000000000000000000000000000000000 PUSH1 0x0 MSTORE PUSH1 0x12 PUSH1 0x4 MSTORE PUSH1 0x24 PUSH1 0x0 REVERT JUMPDEST PUSH32 0x746F6B656E2069736E277420746F2073656C6C00000000000000000000000000 PUSH1 0x0 DUP3 ADD MSTORE POP JUMP JUMPDEST PUSH32 0x746F6B656E20616C726561647920657869737400000000000000000000000000 PUSH1 0x0 DUP3 ADD MSTORE POP JUMP JUMPDEST PUSH32 0x746F6B656E20646F65736E277420657869737400000000000000000000000000 PUSH1 0x0 DUP3 ADD MSTORE POP JUMP JUMPDEST PUSH32 0x4F6E6C79206974656D2773206F776E65722063616E20646F2074686174000000 PUSH1 0x0 DUP3 ADD MSTORE POP JUMP JUMPDEST PUSH32 0x746F6B656E20697320616C726561647920746F2073656C6C0000000000000000 PUSH1 0x0 DUP3 ADD MSTORE POP JUMP JUMPDEST PUSH32 0x4F6E6C7920636F6E74726163742773206F776E65722063616E20646F20746861 PUSH1 0x0 DUP3 ADD MSTORE PUSH32 0x7400000000000000000000000000000000000000000000000000000000000000 PUSH1 0x20 DUP3 ADD MSTORE POP JUMP JUMPDEST PUSH32 0x50726963652063616E6E6F7420626520657175616C20746F2030000000000000 PUSH1 0x0 DUP3 ADD MSTORE POP JUMP JUMPDEST PUSH2 0x1CF6 DUP2 PUSH2 0x1AB9 JUMP JUMPDEST DUP2 EQ PUSH2 0x1D01 JUMPI PUSH1 0x0 DUP1 REVERT JUMPDEST POP JUMP JUMPDEST PUSH2 0x1D0D DUP2 PUSH2 0x1AF7 JUMP JUMPDEST DUP2 EQ PUSH2 0x1D18 JUMPI PUSH1 0x0 DUP1 REVERT JUMPDEST POP JUMP INVALID LOG2 PUSH5 0x6970667358 0x22 SLT KECCAK256 0xEC TIMESTAMP 0x2F PUSH28 0x7A216EE267EC012CF63643BB8AA61BD4B84FA996AB8F4C33439C4C5A PUSH5 0x736F6C6343 STOP ADDMOD ADD STOP CALLER "
				},
				"gasEstimates": {
					"creation": {
						"codeDepositCost": "1501000",
						"executionCost": "infinite",
						"totalCost": "infinite"
					},
					"external": {
						"addItemToSell(uint256)": "46746",
						"balanceOf(address)": "1652",
						"createItem(uint256,uint256)": "infinite",
						"fetchItemsByCatId(uint256)": "infinite",
						"fetchItemsByOwner()": "infinite",
						"fetchItemsToSell()": "infinite",
						"getFeesPercentage()": "1247",
						"itemsCatIdCount(uint256)": "infinite",
						"modifyFeesPercentage(uint256)": "21335",
						"ownerOf(uint256)": "1654",
						"removeItemToSell(uint256)": "46705",
						"sellItem(uint256)": "infinite"
					},
					"internal": {
						"getFees(uint256,uint256)": "infinite"
					}
				},
				"methodIdentifiers": {
					"addItemToSell(uint256)": "c0f202ef",
					"balanceOf(address)": "70a08231",
					"createItem(uint256,uint256)": "adae08dd",
					"fetchItemsByCatId(uint256)": "2165e65a",
					"fetchItemsByOwner()": "4cad2ffc",
					"fetchItemsToSell()": "073e74df",
					"getFeesPercentage()": "ea0ff14a",
					"itemsCatIdCount(uint256)": "d48644bd",
					"modifyFeesPercentage(uint256)": "29de6246",
					"ownerOf(uint256)": "6352211e",
					"removeItemToSell(uint256)": "a4964c33",
					"sellItem(uint256)": "91b6be9a"
				}
			},
			"storageLayout": {
				"storage": [
					{
						"astId": 11,
						"contract": "contracts/GeekNft.sol:GeekNft",
						"label": "name",
						"offset": 0,
						"slot": "0",
						"type": "t_string_storage"
					},
					{
						"astId": 13,
						"contract": "contracts/GeekNft.sol:GeekNft",
						"label": "symbol",
						"offset": 0,
						"slot": "1",
						"type": "t_string_storage"
					},
					{
						"astId": 15,
						"contract": "contracts/GeekNft.sol:GeekNft",
						"label": "owner",
						"offset": 0,
						"slot": "2",
						"type": "t_address"
					},
					{
						"astId": 28,
						"contract": "contracts/GeekNft.sol:GeekNft",
						"label": "items",
						"offset": 0,
						"slot": "3",
						"type": "t_array(t_struct(Item)24_storage)dyn_storage"
					},
					{
						"astId": 30,
						"contract": "contracts/GeekNft.sol:GeekNft",
						"label": "itemsToSellCount",
						"offset": 0,
						"slot": "4",
						"type": "t_uint256"
					},
					{
						"astId": 32,
						"contract": "contracts/GeekNft.sol:GeekNft",
						"label": "feesPercentage",
						"offset": 0,
						"slot": "5",
						"type": "t_uint256"
					},
					{
						"astId": 36,
						"contract": "contracts/GeekNft.sol:GeekNft",
						"label": "itemToOwner",
						"offset": 0,
						"slot": "6",
						"type": "t_mapping(t_uint256,t_address)"
					},
					{
						"astId": 40,
						"contract": "contracts/GeekNft.sol:GeekNft",
						"label": "itemsOwnerCount",
						"offset": 0,
						"slot": "7",
						"type": "t_mapping(t_address,t_uint256)"
					},
					{
						"astId": 44,
						"contract": "contracts/GeekNft.sol:GeekNft",
						"label": "itemsCatIdCount",
						"offset": 0,
						"slot": "8",
						"type": "t_mapping(t_uint256,t_uint256)"
					}
				],
				"types": {
					"t_address": {
						"encoding": "inplace",
						"label": "address",
						"numberOfBytes": "20"
					},
					"t_array(t_struct(Item)24_storage)dyn_storage": {
						"base": "t_struct(Item)24_storage",
						"encoding": "dynamic_array",
						"label": "struct GeekNft.Item[]",
						"numberOfBytes": "32"
					},
					"t_bool": {
						"encoding": "inplace",
						"label": "bool",
						"numberOfBytes": "1"
					},
					"t_mapping(t_address,t_uint256)": {
						"encoding": "mapping",
						"key": "t_address",
						"label": "mapping(address => uint256)",
						"numberOfBytes": "32",
						"value": "t_uint256"
					},
					"t_mapping(t_uint256,t_address)": {
						"encoding": "mapping",
						"key": "t_uint256",
						"label": "mapping(uint256 => address)",
						"numberOfBytes": "32",
						"value": "t_address"
					},
					"t_mapping(t_uint256,t_uint256)": {
						"encoding": "mapping",
						"key": "t_uint256",
						"label": "mapping(uint256 => uint256)",
						"numberOfBytes": "32",
						"value": "t_uint256"
					},
					"t_string_storage": {
						"encoding": "bytes",
						"label": "string",
						"numberOfBytes": "32"
					},
					"t_struct(Item)24_storage": {
						"encoding": "inplace",
						"label": "struct GeekNft.Item",
						"members": [
							{
								"astId": 17,
								"contract": "contracts/GeekNft.sol:GeekNft",
								"label": "tokenId",
								"offset": 0,
								"slot": "0",
								"type": "t_uint256"
							},
							{
								"astId": 19,
								"contract": "contracts/GeekNft.sol:GeekNft",
								"label": "price",
								"offset": 0,
								"slot": "1",
								"type": "t_uint256"
							},
							{
								"astId": 21,
								"contract": "contracts/GeekNft.sol:GeekNft",
								"label": "catId",
								"offset": 0,
								"slot": "2",
								"type": "t_uint256"
							},
							{
								"astId": 23,
								"contract": "contracts/GeekNft.sol:GeekNft",
								"label": "toSell",
								"offset": 0,
								"slot": "3",
								"type": "t_bool"
							}
						],
						"numberOfBytes": "128"
					},
					"t_uint256": {
						"encoding": "inplace",
						"label": "uint256",
						"numberOfBytes": "32"
					}
				}
			},
			"userdoc": {
				"kind": "user",
				"methods": {},
				"version": 1
			}
		}
	}
}