{
	"contracts/GeekNft.sol": {
		"GeekNft": {
			"abi": [
				{
					"inputs": [
						{
							"internalType": "address",
							"name": "marketplaceAddress_",
							"type": "address"
						},
						{
							"internalType": "string",
							"name": "name_",
							"type": "string"
						},
						{
							"internalType": "string",
							"name": "symbol_",
							"type": "string"
						}
					],
					"stateMutability": "nonpayable",
					"type": "constructor"
				},
				{
					"anonymous": false,
					"inputs": [
						{
							"indexed": true,
							"internalType": "uint256",
							"name": "tokenId",
							"type": "uint256"
						},
						{
							"indexed": false,
							"internalType": "address",
							"name": "from",
							"type": "address"
						}
					],
					"name": "NftMinted",
					"type": "event"
				},
				{
					"anonymous": false,
					"inputs": [
						{
							"indexed": true,
							"internalType": "address",
							"name": "from",
							"type": "address"
						},
						{
							"indexed": true,
							"internalType": "address",
							"name": "to",
							"type": "address"
						},
						{
							"indexed": true,
							"internalType": "uint256",
							"name": "tokenId",
							"type": "uint256"
						}
					],
					"name": "Transfer",
					"type": "event"
				},
				{
					"inputs": [
						{
							"internalType": "address",
							"name": "_owner",
							"type": "address"
						}
					],
					"name": "balanceOf",
					"outputs": [
						{
							"internalType": "uint256",
							"name": "",
							"type": "uint256"
						}
					],
					"stateMutability": "view",
					"type": "function"
				},
				{
					"inputs": [
						{
							"internalType": "string",
							"name": "_tokenUri",
							"type": "string"
						}
					],
					"name": "mint",
					"outputs": [],
					"stateMutability": "nonpayable",
					"type": "function"
				},
				{
					"inputs": [],
					"name": "name",
					"outputs": [
						{
							"internalType": "string",
							"name": "",
							"type": "string"
						}
					],
					"stateMutability": "view",
					"type": "function"
				},
				{
					"inputs": [
						{
							"internalType": "uint256",
							"name": "_tokenId",
							"type": "uint256"
						}
					],
					"name": "ownerOf",
					"outputs": [
						{
							"internalType": "address",
							"name": "",
							"type": "address"
						}
					],
					"stateMutability": "view",
					"type": "function"
				},
				{
					"inputs": [],
					"name": "symbol",
					"outputs": [
						{
							"internalType": "string",
							"name": "",
							"type": "string"
						}
					],
					"stateMutability": "view",
					"type": "function"
				},
				{
					"inputs": [
						{
							"internalType": "uint256",
							"name": "",
							"type": "uint256"
						}
					],
					"name": "tokenToUri",
					"outputs": [
						{
							"internalType": "string",
							"name": "",
							"type": "string"
						}
					],
					"stateMutability": "view",
					"type": "function"
				},
				{
					"inputs": [
						{
							"internalType": "address",
							"name": "_from",
							"type": "address"
						},
						{
							"internalType": "address",
							"name": "_to",
							"type": "address"
						},
						{
							"internalType": "uint256",
							"name": "_tokenId",
							"type": "uint256"
						}
					],
					"name": "transferFrom",
					"outputs": [],
					"stateMutability": "nonpayable",
					"type": "function"
				},
				{
					"inputs": [
						{
							"internalType": "address",
							"name": "_owner",
							"type": "address"
						}
					],
					"name": "walletOfOwner",
					"outputs": [
						{
							"internalType": "uint256[]",
							"name": "",
							"type": "uint256[]"
						}
					],
					"stateMutability": "view",
					"type": "function"
				}
			],
			"devdoc": {
				"kind": "dev",
				"methods": {},
				"version": 1
			},
			"evm": {
				"assembly": "    /* \"contracts/GeekNft.sol\":119:1105  contract GeekNft is ERC721 {... */\n  mstore(0x40, 0x80)\n    /* \"contracts/GeekNft.sol\":266:429  constructor(address marketplaceAddress_, string memory name_, string memory symbol_)ERC721(name_, symbol_){... */\n  callvalue\n  dup1\n  iszero\n  tag_1\n  jumpi\n  0x00\n  dup1\n  revert\ntag_1:\n  pop\n  mload(0x40)\n  sub(codesize, bytecodeSize)\n  dup1\n  bytecodeSize\n  dup4\n  codecopy\n  dup2\n  dup2\n  add\n  0x40\n  mstore\n  dup2\n  add\n  swap1\n  tag_2\n  swap2\n  swap1\n  tag_3\n  jump\t// in\ntag_2:\n    /* \"contracts/GeekNft.sol\":357:362  name_ */\n  dup2\n    /* \"contracts/GeekNft.sol\":364:371  symbol_ */\n  dup2\n    /* \"contracts/ERC721/ERC721.sol\":585:590  name_ */\n  dup2\n    /* \"contracts/ERC721/ERC721.sol\":577:582  _name */\n  0x00\n    /* \"contracts/ERC721/ERC721.sol\":577:590  _name = name_ */\n  swap1\n  dup1\n  mload\n  swap1\n  0x20\n  add\n  swap1\n  tag_7\n  swap3\n  swap2\n  swap1\n  tag_8\n  jump\t// in\ntag_7:\n  pop\n    /* \"contracts/ERC721/ERC721.sol\":610:617  symbol_ */\n  dup1\n    /* \"contracts/ERC721/ERC721.sol\":600:607  _symbol */\n  0x01\n    /* \"contracts/ERC721/ERC721.sol\":600:617  _symbol = symbol_ */\n  swap1\n  dup1\n  mload\n  swap1\n  0x20\n  add\n  swap1\n  tag_9\n  swap3\n  swap2\n  swap1\n  tag_8\n  jump\t// in\ntag_9:\n  pop\n    /* \"contracts/ERC721/ERC721.sol\":512:624  constructor(string memory name_, string memory symbol_){... */\n  pop\n  pop\n    /* \"contracts/GeekNft.sol\":403:422  marketplaceAddress_ */\n  dup3\n    /* \"contracts/GeekNft.sol\":382:400  marketplaceAddress */\n  0x08\n  0x00\n    /* \"contracts/GeekNft.sol\":382:422  marketplaceAddress = marketplaceAddress_ */\n  0x0100\n  exp\n  dup2\n  sload\n  dup2\n  0xffffffffffffffffffffffffffffffffffffffff\n  mul\n  not\n  and\n  swap1\n  dup4\n  0xffffffffffffffffffffffffffffffffffffffff\n  and\n  mul\n  or\n  swap1\n  sstore\n  pop\n    /* \"contracts/GeekNft.sol\":266:429  constructor(address marketplaceAddress_, string memory name_, string memory symbol_)ERC721(name_, symbol_){... */\n  pop\n  pop\n  pop\n    /* \"contracts/GeekNft.sol\":119:1105  contract GeekNft is ERC721 {... */\n  jump(tag_11)\ntag_8:\n  dup3\n  dup1\n  sload\n  tag_12\n  swap1\n  tag_13\n  jump\t// in\ntag_12:\n  swap1\n  0x00\n  mstore\n  keccak256(0x00, 0x20)\n  swap1\n  0x1f\n  add\n  0x20\n  swap1\n  div\n  dup2\n  add\n  swap3\n  dup3\n  tag_15\n  jumpi\n  0x00\n  dup6\n  sstore\n  jump(tag_14)\ntag_15:\n  dup3\n  0x1f\n  lt\n  tag_16\n  jumpi\n  dup1\n  mload\n  not(0xff)\n  and\n  dup4\n  dup1\n  add\n  or\n  dup6\n  sstore\n  jump(tag_14)\ntag_16:\n  dup3\n  dup1\n  add\n  0x01\n  add\n  dup6\n  sstore\n  dup3\n  iszero\n  tag_14\n  jumpi\n  swap2\n  dup3\n  add\ntag_17:\n  dup3\n  dup2\n  gt\n  iszero\n  tag_18\n  jumpi\n  dup3\n  mload\n  dup3\n  sstore\n  swap2\n  0x20\n  add\n  swap2\n  swap1\n  0x01\n  add\n  swap1\n  jump(tag_17)\ntag_18:\ntag_14:\n  pop\n  swap1\n  pop\n  tag_19\n  swap2\n  swap1\n  tag_20\n  jump\t// in\ntag_19:\n  pop\n  swap1\n  jump\t// out\ntag_20:\ntag_21:\n  dup1\n  dup3\n  gt\n  iszero\n  tag_22\n  jumpi\n  0x00\n  dup2\n  0x00\n  swap1\n  sstore\n  pop\n  0x01\n  add\n  jump(tag_21)\ntag_22:\n  pop\n  swap1\n  jump\t// out\n    /* \"#utility.yul\":7:428   */\ntag_24:\n    /* \"#utility.yul\":96:101   */\n  0x00\n    /* \"#utility.yul\":121:187   */\n  tag_26\n    /* \"#utility.yul\":137:186   */\n  tag_27\n    /* \"#utility.yul\":179:185   */\n  dup5\n    /* \"#utility.yul\":137:186   */\n  tag_28\n  jump\t// in\ntag_27:\n    /* \"#utility.yul\":121:187   */\n  tag_29\n  jump\t// in\ntag_26:\n    /* \"#utility.yul\":112:187   */\n  swap1\n  pop\n    /* \"#utility.yul\":210:216   */\n  dup3\n    /* \"#utility.yul\":203:208   */\n  dup2\n    /* \"#utility.yul\":196:217   */\n  mstore\n    /* \"#utility.yul\":248:252   */\n  0x20\n    /* \"#utility.yul\":241:246   */\n  dup2\n    /* \"#utility.yul\":237:253   */\n  add\n    /* \"#utility.yul\":286:289   */\n  dup5\n    /* \"#utility.yul\":277:283   */\n  dup5\n    /* \"#utility.yul\":272:275   */\n  dup5\n    /* \"#utility.yul\":268:284   */\n  add\n    /* \"#utility.yul\":265:290   */\n  gt\n    /* \"#utility.yul\":262:374   */\n  iszero\n  tag_30\n  jumpi\n    /* \"#utility.yul\":293:372   */\n  tag_31\n  tag_32\n  jump\t// in\ntag_31:\n    /* \"#utility.yul\":262:374   */\ntag_30:\n    /* \"#utility.yul\":383:422   */\n  tag_33\n    /* \"#utility.yul\":415:421   */\n  dup5\n    /* \"#utility.yul\":410:413   */\n  dup3\n    /* \"#utility.yul\":405:408   */\n  dup6\n    /* \"#utility.yul\":383:422   */\n  tag_34\n  jump\t// in\ntag_33:\n    /* \"#utility.yul\":102:428   */\n  pop\n    /* \"#utility.yul\":7:428   */\n  swap4\n  swap3\n  pop\n  pop\n  pop\n  jump\t// out\n    /* \"#utility.yul\":434:577   */\ntag_35:\n    /* \"#utility.yul\":491:496   */\n  0x00\n    /* \"#utility.yul\":522:528   */\n  dup2\n    /* \"#utility.yul\":516:529   */\n  mload\n    /* \"#utility.yul\":507:529   */\n  swap1\n  pop\n    /* \"#utility.yul\":538:571   */\n  tag_37\n    /* \"#utility.yul\":565:570   */\n  dup2\n    /* \"#utility.yul\":538:571   */\n  tag_38\n  jump\t// in\ntag_37:\n    /* \"#utility.yul\":434:577   */\n  swap3\n  swap2\n  pop\n  pop\n  jump\t// out\n    /* \"#utility.yul\":597:952   */\ntag_39:\n    /* \"#utility.yul\":664:669   */\n  0x00\n    /* \"#utility.yul\":713:716   */\n  dup3\n    /* \"#utility.yul\":706:710   */\n  0x1f\n    /* \"#utility.yul\":698:704   */\n  dup4\n    /* \"#utility.yul\":694:711   */\n  add\n    /* \"#utility.yul\":690:717   */\n  slt\n    /* \"#utility.yul\":680:802   */\n  tag_41\n  jumpi\n    /* \"#utility.yul\":721:800   */\n  tag_42\n  tag_43\n  jump\t// in\ntag_42:\n    /* \"#utility.yul\":680:802   */\ntag_41:\n    /* \"#utility.yul\":831:837   */\n  dup2\n    /* \"#utility.yul\":825:838   */\n  mload\n    /* \"#utility.yul\":856:946   */\n  tag_44\n    /* \"#utility.yul\":942:945   */\n  dup5\n    /* \"#utility.yul\":934:940   */\n  dup3\n    /* \"#utility.yul\":927:931   */\n  0x20\n    /* \"#utility.yul\":919:925   */\n  dup7\n    /* \"#utility.yul\":915:932   */\n  add\n    /* \"#utility.yul\":856:946   */\n  tag_24\n  jump\t// in\ntag_44:\n    /* \"#utility.yul\":847:946   */\n  swap2\n  pop\n    /* \"#utility.yul\":670:952   */\n  pop\n    /* \"#utility.yul\":597:952   */\n  swap3\n  swap2\n  pop\n  pop\n  jump\t// out\n    /* \"#utility.yul\":958:1967   */\ntag_3:\n    /* \"#utility.yul\":1066:1072   */\n  0x00\n    /* \"#utility.yul\":1074:1080   */\n  dup1\n    /* \"#utility.yul\":1082:1088   */\n  0x00\n    /* \"#utility.yul\":1131:1133   */\n  0x60\n    /* \"#utility.yul\":1119:1128   */\n  dup5\n    /* \"#utility.yul\":1110:1117   */\n  dup7\n    /* \"#utility.yul\":1106:1129   */\n  sub\n    /* \"#utility.yul\":1102:1134   */\n  slt\n    /* \"#utility.yul\":1099:1218   */\n  iszero\n  tag_46\n  jumpi\n    /* \"#utility.yul\":1137:1216   */\n  tag_47\n  tag_48\n  jump\t// in\ntag_47:\n    /* \"#utility.yul\":1099:1218   */\ntag_46:\n    /* \"#utility.yul\":1257:1258   */\n  0x00\n    /* \"#utility.yul\":1282:1346   */\n  tag_49\n    /* \"#utility.yul\":1338:1345   */\n  dup7\n    /* \"#utility.yul\":1329:1335   */\n  dup3\n    /* \"#utility.yul\":1318:1327   */\n  dup8\n    /* \"#utility.yul\":1314:1336   */\n  add\n    /* \"#utility.yul\":1282:1346   */\n  tag_35\n  jump\t// in\ntag_49:\n    /* \"#utility.yul\":1272:1346   */\n  swap4\n  pop\n    /* \"#utility.yul\":1228:1356   */\n  pop\n    /* \"#utility.yul\":1416:1418   */\n  0x20\n    /* \"#utility.yul\":1405:1414   */\n  dup5\n    /* \"#utility.yul\":1401:1419   */\n  add\n    /* \"#utility.yul\":1395:1420   */\n  mload\n    /* \"#utility.yul\":1447:1465   */\n  0xffffffffffffffff\n    /* \"#utility.yul\":1439:1445   */\n  dup2\n    /* \"#utility.yul\":1436:1466   */\n  gt\n    /* \"#utility.yul\":1433:1550   */\n  iszero\n  tag_50\n  jumpi\n    /* \"#utility.yul\":1469:1548   */\n  tag_51\n  tag_52\n  jump\t// in\ntag_51:\n    /* \"#utility.yul\":1433:1550   */\ntag_50:\n    /* \"#utility.yul\":1574:1648   */\n  tag_53\n    /* \"#utility.yul\":1640:1647   */\n  dup7\n    /* \"#utility.yul\":1631:1637   */\n  dup3\n    /* \"#utility.yul\":1620:1629   */\n  dup8\n    /* \"#utility.yul\":1616:1638   */\n  add\n    /* \"#utility.yul\":1574:1648   */\n  tag_39\n  jump\t// in\ntag_53:\n    /* \"#utility.yul\":1564:1648   */\n  swap3\n  pop\n    /* \"#utility.yul\":1366:1658   */\n  pop\n    /* \"#utility.yul\":1718:1720   */\n  0x40\n    /* \"#utility.yul\":1707:1716   */\n  dup5\n    /* \"#utility.yul\":1703:1721   */\n  add\n    /* \"#utility.yul\":1697:1722   */\n  mload\n    /* \"#utility.yul\":1749:1767   */\n  0xffffffffffffffff\n    /* \"#utility.yul\":1741:1747   */\n  dup2\n    /* \"#utility.yul\":1738:1768   */\n  gt\n    /* \"#utility.yul\":1735:1852   */\n  iszero\n  tag_54\n  jumpi\n    /* \"#utility.yul\":1771:1850   */\n  tag_55\n  tag_52\n  jump\t// in\ntag_55:\n    /* \"#utility.yul\":1735:1852   */\ntag_54:\n    /* \"#utility.yul\":1876:1950   */\n  tag_56\n    /* \"#utility.yul\":1942:1949   */\n  dup7\n    /* \"#utility.yul\":1933:1939   */\n  dup3\n    /* \"#utility.yul\":1922:1931   */\n  dup8\n    /* \"#utility.yul\":1918:1940   */\n  add\n    /* \"#utility.yul\":1876:1950   */\n  tag_39\n  jump\t// in\ntag_56:\n    /* \"#utility.yul\":1866:1950   */\n  swap2\n  pop\n    /* \"#utility.yul\":1668:1960   */\n  pop\n    /* \"#utility.yul\":958:1967   */\n  swap3\n  pop\n  swap3\n  pop\n  swap3\n  jump\t// out\n    /* \"#utility.yul\":1973:2102   */\ntag_29:\n    /* \"#utility.yul\":2007:2013   */\n  0x00\n    /* \"#utility.yul\":2034:2054   */\n  tag_58\n  tag_59\n  jump\t// in\ntag_58:\n    /* \"#utility.yul\":2024:2054   */\n  swap1\n  pop\n    /* \"#utility.yul\":2063:2096   */\n  tag_60\n    /* \"#utility.yul\":2091:2095   */\n  dup3\n    /* \"#utility.yul\":2083:2089   */\n  dup3\n    /* \"#utility.yul\":2063:2096   */\n  tag_61\n  jump\t// in\ntag_60:\n    /* \"#utility.yul\":1973:2102   */\n  swap2\n  swap1\n  pop\n  jump\t// out\n    /* \"#utility.yul\":2108:2183   */\ntag_59:\n    /* \"#utility.yul\":2141:2147   */\n  0x00\n    /* \"#utility.yul\":2174:2176   */\n  0x40\n    /* \"#utility.yul\":2168:2177   */\n  mload\n    /* \"#utility.yul\":2158:2177   */\n  swap1\n  pop\n    /* \"#utility.yul\":2108:2183   */\n  swap1\n  jump\t// out\n    /* \"#utility.yul\":2189:2497   */\ntag_28:\n    /* \"#utility.yul\":2251:2255   */\n  0x00\n    /* \"#utility.yul\":2341:2359   */\n  0xffffffffffffffff\n    /* \"#utility.yul\":2333:2339   */\n  dup3\n    /* \"#utility.yul\":2330:2360   */\n  gt\n    /* \"#utility.yul\":2327:2383   */\n  iszero\n  tag_64\n  jumpi\n    /* \"#utility.yul\":2363:2381   */\n  tag_65\n  tag_66\n  jump\t// in\ntag_65:\n    /* \"#utility.yul\":2327:2383   */\ntag_64:\n    /* \"#utility.yul\":2401:2430   */\n  tag_67\n    /* \"#utility.yul\":2423:2429   */\n  dup3\n    /* \"#utility.yul\":2401:2430   */\n  tag_68\n  jump\t// in\ntag_67:\n    /* \"#utility.yul\":2393:2430   */\n  swap1\n  pop\n    /* \"#utility.yul\":2485:2489   */\n  0x20\n    /* \"#utility.yul\":2479:2483   */\n  dup2\n    /* \"#utility.yul\":2475:2490   */\n  add\n    /* \"#utility.yul\":2467:2490   */\n  swap1\n  pop\n    /* \"#utility.yul\":2189:2497   */\n  swap2\n  swap1\n  pop\n  jump\t// out\n    /* \"#utility.yul\":2503:2599   */\ntag_69:\n    /* \"#utility.yul\":2540:2547   */\n  0x00\n    /* \"#utility.yul\":2569:2593   */\n  tag_71\n    /* \"#utility.yul\":2587:2592   */\n  dup3\n    /* \"#utility.yul\":2569:2593   */\n  tag_72\n  jump\t// in\ntag_71:\n    /* \"#utility.yul\":2558:2593   */\n  swap1\n  pop\n    /* \"#utility.yul\":2503:2599   */\n  swap2\n  swap1\n  pop\n  jump\t// out\n    /* \"#utility.yul\":2605:2731   */\ntag_72:\n    /* \"#utility.yul\":2642:2649   */\n  0x00\n    /* \"#utility.yul\":2682:2724   */\n  0xffffffffffffffffffffffffffffffffffffffff\n    /* \"#utility.yul\":2675:2680   */\n  dup3\n    /* \"#utility.yul\":2671:2725   */\n  and\n    /* \"#utility.yul\":2660:2725   */\n  swap1\n  pop\n    /* \"#utility.yul\":2605:2731   */\n  swap2\n  swap1\n  pop\n  jump\t// out\n    /* \"#utility.yul\":2737:3044   */\ntag_34:\n    /* \"#utility.yul\":2805:2806   */\n  0x00\n    /* \"#utility.yul\":2815:2928   */\ntag_75:\n    /* \"#utility.yul\":2829:2835   */\n  dup4\n    /* \"#utility.yul\":2826:2827   */\n  dup2\n    /* \"#utility.yul\":2823:2836   */\n  lt\n    /* \"#utility.yul\":2815:2928   */\n  iszero\n  tag_77\n  jumpi\n    /* \"#utility.yul\":2914:2915   */\n  dup1\n    /* \"#utility.yul\":2909:2912   */\n  dup3\n    /* \"#utility.yul\":2905:2916   */\n  add\n    /* \"#utility.yul\":2899:2917   */\n  mload\n    /* \"#utility.yul\":2895:2896   */\n  dup2\n    /* \"#utility.yul\":2890:2893   */\n  dup5\n    /* \"#utility.yul\":2886:2897   */\n  add\n    /* \"#utility.yul\":2879:2918   */\n  mstore\n    /* \"#utility.yul\":2851:2853   */\n  0x20\n    /* \"#utility.yul\":2848:2849   */\n  dup2\n    /* \"#utility.yul\":2844:2854   */\n  add\n    /* \"#utility.yul\":2839:2854   */\n  swap1\n  pop\n    /* \"#utility.yul\":2815:2928   */\n  jump(tag_75)\ntag_77:\n    /* \"#utility.yul\":2946:2952   */\n  dup4\n    /* \"#utility.yul\":2943:2944   */\n  dup2\n    /* \"#utility.yul\":2940:2953   */\n  gt\n    /* \"#utility.yul\":2937:3038   */\n  iszero\n  tag_78\n  jumpi\n    /* \"#utility.yul\":3026:3027   */\n  0x00\n    /* \"#utility.yul\":3017:3023   */\n  dup5\n    /* \"#utility.yul\":3012:3015   */\n  dup5\n    /* \"#utility.yul\":3008:3024   */\n  add\n    /* \"#utility.yul\":3001:3028   */\n  mstore\n    /* \"#utility.yul\":2937:3038   */\ntag_78:\n    /* \"#utility.yul\":2786:3044   */\n  pop\n    /* \"#utility.yul\":2737:3044   */\n  pop\n  pop\n  pop\n  jump\t// out\n    /* \"#utility.yul\":3050:3370   */\ntag_13:\n    /* \"#utility.yul\":3094:3100   */\n  0x00\n    /* \"#utility.yul\":3131:3132   */\n  0x02\n    /* \"#utility.yul\":3125:3129   */\n  dup3\n    /* \"#utility.yul\":3121:3133   */\n  div\n    /* \"#utility.yul\":3111:3133   */\n  swap1\n  pop\n    /* \"#utility.yul\":3178:3179   */\n  0x01\n    /* \"#utility.yul\":3172:3176   */\n  dup3\n    /* \"#utility.yul\":3168:3180   */\n  and\n    /* \"#utility.yul\":3199:3217   */\n  dup1\n    /* \"#utility.yul\":3189:3270   */\n  tag_80\n  jumpi\n    /* \"#utility.yul\":3255:3259   */\n  0x7f\n    /* \"#utility.yul\":3247:3253   */\n  dup3\n    /* \"#utility.yul\":3243:3260   */\n  and\n    /* \"#utility.yul\":3233:3260   */\n  swap2\n  pop\n    /* \"#utility.yul\":3189:3270   */\ntag_80:\n    /* \"#utility.yul\":3317:3319   */\n  0x20\n    /* \"#utility.yul\":3309:3315   */\n  dup3\n    /* \"#utility.yul\":3306:3320   */\n  lt\n    /* \"#utility.yul\":3286:3304   */\n  dup2\n    /* \"#utility.yul\":3283:3321   */\n  eq\n    /* \"#utility.yul\":3280:3364   */\n  iszero\n  tag_81\n  jumpi\n    /* \"#utility.yul\":3336:3354   */\n  tag_82\n  tag_83\n  jump\t// in\ntag_82:\n    /* \"#utility.yul\":3280:3364   */\ntag_81:\n    /* \"#utility.yul\":3101:3370   */\n  pop\n    /* \"#utility.yul\":3050:3370   */\n  swap2\n  swap1\n  pop\n  jump\t// out\n    /* \"#utility.yul\":3376:3657   */\ntag_61:\n    /* \"#utility.yul\":3459:3486   */\n  tag_85\n    /* \"#utility.yul\":3481:3485   */\n  dup3\n    /* \"#utility.yul\":3459:3486   */\n  tag_68\n  jump\t// in\ntag_85:\n    /* \"#utility.yul\":3451:3457   */\n  dup2\n    /* \"#utility.yul\":3447:3487   */\n  add\n    /* \"#utility.yul\":3589:3595   */\n  dup2\n    /* \"#utility.yul\":3577:3587   */\n  dup2\n    /* \"#utility.yul\":3574:3596   */\n  lt\n    /* \"#utility.yul\":3553:3571   */\n  0xffffffffffffffff\n    /* \"#utility.yul\":3541:3551   */\n  dup3\n    /* \"#utility.yul\":3538:3572   */\n  gt\n    /* \"#utility.yul\":3535:3597   */\n  or\n    /* \"#utility.yul\":3532:3620   */\n  iszero\n  tag_86\n  jumpi\n    /* \"#utility.yul\":3600:3618   */\n  tag_87\n  tag_66\n  jump\t// in\ntag_87:\n    /* \"#utility.yul\":3532:3620   */\ntag_86:\n    /* \"#utility.yul\":3640:3650   */\n  dup1\n    /* \"#utility.yul\":3636:3638   */\n  0x40\n    /* \"#utility.yul\":3629:3651   */\n  mstore\n    /* \"#utility.yul\":3419:3657   */\n  pop\n    /* \"#utility.yul\":3376:3657   */\n  pop\n  pop\n  jump\t// out\n    /* \"#utility.yul\":3663:3843   */\ntag_83:\n    /* \"#utility.yul\":3711:3788   */\n  0x4e487b7100000000000000000000000000000000000000000000000000000000\n    /* \"#utility.yul\":3708:3709   */\n  0x00\n    /* \"#utility.yul\":3701:3789   */\n  mstore\n    /* \"#utility.yul\":3808:3812   */\n  0x22\n    /* \"#utility.yul\":3805:3806   */\n  0x04\n    /* \"#utility.yul\":3798:3813   */\n  mstore\n    /* \"#utility.yul\":3832:3836   */\n  0x24\n    /* \"#utility.yul\":3829:3830   */\n  0x00\n    /* \"#utility.yul\":3822:3837   */\n  revert\n    /* \"#utility.yul\":3849:4029   */\ntag_66:\n    /* \"#utility.yul\":3897:3974   */\n  0x4e487b7100000000000000000000000000000000000000000000000000000000\n    /* \"#utility.yul\":3894:3895   */\n  0x00\n    /* \"#utility.yul\":3887:3975   */\n  mstore\n    /* \"#utility.yul\":3994:3998   */\n  0x41\n    /* \"#utility.yul\":3991:3992   */\n  0x04\n    /* \"#utility.yul\":3984:3999   */\n  mstore\n    /* \"#utility.yul\":4018:4022   */\n  0x24\n    /* \"#utility.yul\":4015:4016   */\n  0x00\n    /* \"#utility.yul\":4008:4023   */\n  revert\n    /* \"#utility.yul\":4035:4152   */\ntag_43:\n    /* \"#utility.yul\":4144:4145   */\n  0x00\n    /* \"#utility.yul\":4141:4142   */\n  dup1\n    /* \"#utility.yul\":4134:4146   */\n  revert\n    /* \"#utility.yul\":4158:4275   */\ntag_32:\n    /* \"#utility.yul\":4267:4268   */\n  0x00\n    /* \"#utility.yul\":4264:4265   */\n  dup1\n    /* \"#utility.yul\":4257:4269   */\n  revert\n    /* \"#utility.yul\":4281:4398   */\ntag_52:\n    /* \"#utility.yul\":4390:4391   */\n  0x00\n    /* \"#utility.yul\":4387:4388   */\n  dup1\n    /* \"#utility.yul\":4380:4392   */\n  revert\n    /* \"#utility.yul\":4404:4521   */\ntag_48:\n    /* \"#utility.yul\":4513:4514   */\n  0x00\n    /* \"#utility.yul\":4510:4511   */\n  dup1\n    /* \"#utility.yul\":4503:4515   */\n  revert\n    /* \"#utility.yul\":4527:4629   */\ntag_68:\n    /* \"#utility.yul\":4568:4574   */\n  0x00\n    /* \"#utility.yul\":4619:4621   */\n  0x1f\n    /* \"#utility.yul\":4615:4622   */\n  not\n    /* \"#utility.yul\":4610:4612   */\n  0x1f\n    /* \"#utility.yul\":4603:4608   */\n  dup4\n    /* \"#utility.yul\":4599:4613   */\n  add\n    /* \"#utility.yul\":4595:4623   */\n  and\n    /* \"#utility.yul\":4585:4623   */\n  swap1\n  pop\n    /* \"#utility.yul\":4527:4629   */\n  swap2\n  swap1\n  pop\n  jump\t// out\n    /* \"#utility.yul\":4635:4757   */\ntag_38:\n    /* \"#utility.yul\":4708:4732   */\n  tag_96\n    /* \"#utility.yul\":4726:4731   */\n  dup2\n    /* \"#utility.yul\":4708:4732   */\n  tag_69\n  jump\t// in\ntag_96:\n    /* \"#utility.yul\":4701:4706   */\n  dup2\n    /* \"#utility.yul\":4698:4733   */\n  eq\n    /* \"#utility.yul\":4688:4751   */\n  tag_97\n  jumpi\n    /* \"#utility.yul\":4747:4748   */\n  0x00\n    /* \"#utility.yul\":4744:4745   */\n  dup1\n    /* \"#utility.yul\":4737:4749   */\n  revert\n    /* \"#utility.yul\":4688:4751   */\ntag_97:\n    /* \"#utility.yul\":4635:4757   */\n  pop\n  jump\t// out\n    /* \"contracts/GeekNft.sol\":119:1105  contract GeekNft is ERC721 {... */\ntag_11:\n  dataSize(sub_0)\n  dup1\n  dataOffset(sub_0)\n  0x00\n  codecopy\n  0x00\n  return\nstop\n\nsub_0: assembly {\n        /* \"contracts/GeekNft.sol\":119:1105  contract GeekNft is ERC721 {... */\n      mstore(0x40, 0x80)\n      callvalue\n      dup1\n      iszero\n      tag_1\n      jumpi\n      0x00\n      dup1\n      revert\n    tag_1:\n      pop\n      jumpi(tag_2, lt(calldatasize, 0x04))\n      shr(0xe0, calldataload(0x00))\n      dup1\n      0x70a08231\n      gt\n      tag_11\n      jumpi\n      dup1\n      0x70a08231\n      eq\n      tag_7\n      jumpi\n      dup1\n      0x95d89b41\n      eq\n      tag_8\n      jumpi\n      dup1\n      0xbf59b347\n      eq\n      tag_9\n      jumpi\n      dup1\n      0xd85d3d27\n      eq\n      tag_10\n      jumpi\n      jump(tag_2)\n    tag_11:\n      dup1\n      0x06fdde03\n      eq\n      tag_3\n      jumpi\n      dup1\n      0x23b872dd\n      eq\n      tag_4\n      jumpi\n      dup1\n      0x438b6300\n      eq\n      tag_5\n      jumpi\n      dup1\n      0x6352211e\n      eq\n      tag_6\n      jumpi\n    tag_2:\n      0x00\n      dup1\n      revert\n        /* \"contracts/ERC721/ERC721.sol\":630:711  function name() public view returns (string memory) {... */\n    tag_3:\n      tag_12\n      tag_13\n      jump\t// in\n    tag_12:\n      mload(0x40)\n      tag_14\n      swap2\n      swap1\n      tag_15\n      jump\t// in\n    tag_14:\n      mload(0x40)\n      dup1\n      swap2\n      sub\n      swap1\n      return\n        /* \"contracts/ERC721/ERC721.sol\":1466:1891  function transferFrom(address _from, address _to, uint _tokenId) external {... */\n    tag_4:\n      tag_16\n      0x04\n      dup1\n      calldatasize\n      sub\n      dup2\n      add\n      swap1\n      tag_17\n      swap2\n      swap1\n      tag_18\n      jump\t// in\n    tag_17:\n      tag_19\n      jump\t// in\n    tag_16:\n      stop\n        /* \"contracts/GeekNft.sol\":707:1102  function walletOfOwner(address _owner) public view returns (uint[] memory) {... */\n    tag_5:\n      tag_20\n      0x04\n      dup1\n      calldatasize\n      sub\n      dup2\n      add\n      swap1\n      tag_21\n      swap2\n      swap1\n      tag_22\n      jump\t// in\n    tag_21:\n      tag_23\n      jump\t// in\n    tag_20:\n      mload(0x40)\n      tag_24\n      swap2\n      swap1\n      tag_25\n      jump\t// in\n    tag_24:\n      mload(0x40)\n      dup1\n      swap2\n      sub\n      swap1\n      return\n        /* \"contracts/ERC721/ERC721.sol\":1897:2107  function ownerOf(uint256 _tokenId) external view returns (address) {... */\n    tag_6:\n      tag_26\n      0x04\n      dup1\n      calldatasize\n      sub\n      dup2\n      add\n      swap1\n      tag_27\n      swap2\n      swap1\n      tag_28\n      jump\t// in\n    tag_27:\n      tag_29\n      jump\t// in\n    tag_26:\n      mload(0x40)\n      tag_30\n      swap2\n      swap1\n      tag_31\n      jump\t// in\n    tag_30:\n      mload(0x40)\n      dup1\n      swap2\n      sub\n      swap1\n      return\n        /* \"contracts/ERC721/ERC721.sol\":2113:2223  function balanceOf(address _owner) public view returns (uint) {... */\n    tag_7:\n      tag_32\n      0x04\n      dup1\n      calldatasize\n      sub\n      dup2\n      add\n      swap1\n      tag_33\n      swap2\n      swap1\n      tag_22\n      jump\t// in\n    tag_33:\n      tag_34\n      jump\t// in\n    tag_32:\n      mload(0x40)\n      tag_35\n      swap2\n      swap1\n      tag_36\n      jump\t// in\n    tag_35:\n      mload(0x40)\n      dup1\n      swap2\n      sub\n      swap1\n      return\n        /* \"contracts/ERC721/ERC721.sol\":721:806  function symbol() public view returns (string memory) {... */\n    tag_8:\n      tag_37\n      tag_38\n      jump\t// in\n    tag_37:\n      mload(0x40)\n      tag_39\n      swap2\n      swap1\n      tag_15\n      jump\t// in\n    tag_39:\n      mload(0x40)\n      dup1\n      swap2\n      sub\n      swap1\n      return\n        /* \"contracts/ERC721/ERC721.sol\":322:363  mapping(uint => string) public tokenToUri */\n    tag_9:\n      tag_40\n      0x04\n      dup1\n      calldatasize\n      sub\n      dup2\n      add\n      swap1\n      tag_41\n      swap2\n      swap1\n      tag_28\n      jump\t// in\n    tag_41:\n      tag_42\n      jump\t// in\n    tag_40:\n      mload(0x40)\n      tag_43\n      swap2\n      swap1\n      tag_15\n      jump\t// in\n    tag_43:\n      mload(0x40)\n      dup1\n      swap2\n      sub\n      swap1\n      return\n        /* \"contracts/GeekNft.sol\":435:700  function mint(string memory _tokenUri) public {... */\n    tag_10:\n      tag_44\n      0x04\n      dup1\n      calldatasize\n      sub\n      dup2\n      add\n      swap1\n      tag_45\n      swap2\n      swap1\n      tag_46\n      jump\t// in\n    tag_45:\n      tag_47\n      jump\t// in\n    tag_44:\n      stop\n        /* \"contracts/ERC721/ERC721.sol\":630:711  function name() public view returns (string memory) {... */\n    tag_13:\n        /* \"contracts/ERC721/ERC721.sol\":667:680  string memory */\n      0x60\n        /* \"contracts/ERC721/ERC721.sol\":699:704  _name */\n      0x00\n        /* \"contracts/ERC721/ERC721.sol\":692:704  return _name */\n      dup1\n      sload\n      tag_49\n      swap1\n      tag_50\n      jump\t// in\n    tag_49:\n      dup1\n      0x1f\n      add\n      0x20\n      dup1\n      swap2\n      div\n      mul\n      0x20\n      add\n      mload(0x40)\n      swap1\n      dup2\n      add\n      0x40\n      mstore\n      dup1\n      swap3\n      swap2\n      swap1\n      dup2\n      dup2\n      mstore\n      0x20\n      add\n      dup3\n      dup1\n      sload\n      tag_51\n      swap1\n      tag_50\n      jump\t// in\n    tag_51:\n      dup1\n      iszero\n      tag_52\n      jumpi\n      dup1\n      0x1f\n      lt\n      tag_53\n      jumpi\n      0x0100\n      dup1\n      dup4\n      sload\n      div\n      mul\n      dup4\n      mstore\n      swap2\n      0x20\n      add\n      swap2\n      jump(tag_52)\n    tag_53:\n      dup3\n      add\n      swap2\n      swap1\n      0x00\n      mstore\n      keccak256(0x00, 0x20)\n      swap1\n    tag_54:\n      dup2\n      sload\n      dup2\n      mstore\n      swap1\n      0x01\n      add\n      swap1\n      0x20\n      add\n      dup1\n      dup4\n      gt\n      tag_54\n      jumpi\n      dup3\n      swap1\n      sub\n      0x1f\n      and\n      dup3\n      add\n      swap2\n    tag_52:\n      pop\n      pop\n      pop\n      pop\n      pop\n      swap1\n      pop\n        /* \"contracts/ERC721/ERC721.sol\":630:711  function name() public view returns (string memory) {... */\n      swap1\n      jump\t// out\n        /* \"contracts/ERC721/ERC721.sol\":1466:1891  function transferFrom(address _from, address _to, uint _tokenId) external {... */\n    tag_19:\n        /* \"contracts/ERC721/ERC721.sol\":1584:1589  _from */\n      dup3\n        /* \"contracts/ERC721/ERC721.sol\":1558:1589  tokenToOwner[_tokenId] == _from */\n      0xffffffffffffffffffffffffffffffffffffffff\n      and\n        /* \"contracts/ERC721/ERC721.sol\":1558:1570  tokenToOwner */\n      0x03\n        /* \"contracts/ERC721/ERC721.sol\":1558:1580  tokenToOwner[_tokenId] */\n      0x00\n        /* \"contracts/ERC721/ERC721.sol\":1571:1579  _tokenId */\n      dup4\n        /* \"contracts/ERC721/ERC721.sol\":1558:1580  tokenToOwner[_tokenId] */\n      dup2\n      mstore\n      0x20\n      add\n      swap1\n      dup2\n      mstore\n      0x20\n      add\n      0x00\n      keccak256\n      0x00\n      swap1\n      sload\n      swap1\n      0x0100\n      exp\n      swap1\n      div\n      0xffffffffffffffffffffffffffffffffffffffff\n      and\n        /* \"contracts/ERC721/ERC721.sol\":1558:1589  tokenToOwner[_tokenId] == _from */\n      0xffffffffffffffffffffffffffffffffffffffff\n      and\n      eq\n        /* \"contracts/ERC721/ERC721.sol\":1550:1617  require(tokenToOwner[_tokenId] == _from, \"Not called by the owner\") */\n      tag_56\n      jumpi\n      mload(0x40)\n      0x08c379a000000000000000000000000000000000000000000000000000000000\n      dup2\n      mstore\n      0x04\n      add\n      tag_57\n      swap1\n      tag_58\n      jump\t// in\n    tag_57:\n      mload(0x40)\n      dup1\n      swap2\n      sub\n      swap1\n      revert\n    tag_56:\n        /* \"contracts/ERC721/ERC721.sol\":1650:1651  0 */\n      0x00\n        /* \"contracts/ERC721/ERC721.sol\":1635:1652  _to != address(0) */\n      0xffffffffffffffffffffffffffffffffffffffff\n      and\n        /* \"contracts/ERC721/ERC721.sol\":1635:1638  _to */\n      dup3\n        /* \"contracts/ERC721/ERC721.sol\":1635:1652  _to != address(0) */\n      0xffffffffffffffffffffffffffffffffffffffff\n      and\n      eq\n      iszero\n        /* \"contracts/ERC721/ERC721.sol\":1627:1693  require(_to != address(0), \"ERC721: transfer to the zero address\") */\n      tag_59\n      jumpi\n      mload(0x40)\n      0x08c379a000000000000000000000000000000000000000000000000000000000\n      dup2\n      mstore\n      0x04\n      add\n      tag_60\n      swap1\n      tag_61\n      jump\t// in\n    tag_60:\n      mload(0x40)\n      dup1\n      swap2\n      sub\n      swap1\n      revert\n    tag_59:\n        /* \"contracts/ERC721/ERC721.sol\":1727:1743  tokensOwnerCount */\n      0x02\n        /* \"contracts/ERC721/ERC721.sol\":1727:1750  tokensOwnerCount[_from] */\n      0x00\n        /* \"contracts/ERC721/ERC721.sol\":1744:1749  _from */\n      dup5\n        /* \"contracts/ERC721/ERC721.sol\":1727:1750  tokensOwnerCount[_from] */\n      0xffffffffffffffffffffffffffffffffffffffff\n      and\n      0xffffffffffffffffffffffffffffffffffffffff\n      and\n      dup2\n      mstore\n      0x20\n      add\n      swap1\n      dup2\n      mstore\n      0x20\n      add\n      0x00\n      keccak256\n      0x00\n        /* \"contracts/ERC721/ERC721.sol\":1727:1752  tokensOwnerCount[_from]-- */\n      dup2\n      sload\n      dup1\n      swap3\n      swap2\n      swap1\n      0x01\n      swap1\n      sub\n      swap2\n      swap1\n      pop\n      sstore\n      pop\n        /* \"contracts/ERC721/ERC721.sol\":1766:1782  tokensOwnerCount */\n      0x02\n        /* \"contracts/ERC721/ERC721.sol\":1766:1787  tokensOwnerCount[_to] */\n      0x00\n        /* \"contracts/ERC721/ERC721.sol\":1783:1786  _to */\n      dup4\n        /* \"contracts/ERC721/ERC721.sol\":1766:1787  tokensOwnerCount[_to] */\n      0xffffffffffffffffffffffffffffffffffffffff\n      and\n      0xffffffffffffffffffffffffffffffffffffffff\n      and\n      dup2\n      mstore\n      0x20\n      add\n      swap1\n      dup2\n      mstore\n      0x20\n      add\n      0x00\n      keccak256\n      0x00\n        /* \"contracts/ERC721/ERC721.sol\":1766:1789  tokensOwnerCount[_to]++ */\n      dup2\n      sload\n      dup1\n      swap3\n      swap2\n      swap1\n      0x01\n      add\n      swap2\n      swap1\n      pop\n      sstore\n      pop\n        /* \"contracts/ERC721/ERC721.sol\":1835:1838  _to */\n      dup2\n        /* \"contracts/ERC721/ERC721.sol\":1810:1822  tokenToOwner */\n      0x03\n        /* \"contracts/ERC721/ERC721.sol\":1810:1832  tokenToOwner[_tokenId] */\n      0x00\n        /* \"contracts/ERC721/ERC721.sol\":1823:1831  _tokenId */\n      dup4\n        /* \"contracts/ERC721/ERC721.sol\":1810:1832  tokenToOwner[_tokenId] */\n      dup2\n      mstore\n      0x20\n      add\n      swap1\n      dup2\n      mstore\n      0x20\n      add\n      0x00\n      keccak256\n      0x00\n        /* \"contracts/ERC721/ERC721.sol\":1810:1838  tokenToOwner[_tokenId] = _to */\n      0x0100\n      exp\n      dup2\n      sload\n      dup2\n      0xffffffffffffffffffffffffffffffffffffffff\n      mul\n      not\n      and\n      swap1\n      dup4\n      0xffffffffffffffffffffffffffffffffffffffff\n      and\n      mul\n      or\n      swap1\n      sstore\n      pop\n        /* \"contracts/ERC721/ERC721.sol\":1875:1883  _tokenId */\n      dup1\n        /* \"contracts/ERC721/ERC721.sol\":1870:1873  _to */\n      dup3\n        /* \"contracts/ERC721/ERC721.sol\":1854:1884  Transfer(_from, _to, _tokenId) */\n      0xffffffffffffffffffffffffffffffffffffffff\n      and\n        /* \"contracts/ERC721/ERC721.sol\":1863:1868  _from */\n      dup5\n        /* \"contracts/ERC721/ERC721.sol\":1854:1884  Transfer(_from, _to, _tokenId) */\n      0xffffffffffffffffffffffffffffffffffffffff\n      and\n      0xddf252ad1be2c89b69c2b068fc378daa952ba7f163c4a11628f55a4df523b3ef\n      mload(0x40)\n      mload(0x40)\n      dup1\n      swap2\n      sub\n      swap1\n      log4\n        /* \"contracts/ERC721/ERC721.sol\":1466:1891  function transferFrom(address _from, address _to, uint _tokenId) external {... */\n      pop\n      pop\n      pop\n      jump\t// out\n        /* \"contracts/GeekNft.sol\":707:1102  function walletOfOwner(address _owner) public view returns (uint[] memory) {... */\n    tag_23:\n        /* \"contracts/GeekNft.sol\":767:780  uint[] memory */\n      0x60\n        /* \"contracts/GeekNft.sol\":793:813  uint[] memory myNfts */\n      0x00\n        /* \"contracts/GeekNft.sol\":827:843  tokensOwnerCount */\n      0x02\n        /* \"contracts/GeekNft.sol\":827:851  tokensOwnerCount[_owner] */\n      0x00\n        /* \"contracts/GeekNft.sol\":844:850  _owner */\n      dup5\n        /* \"contracts/GeekNft.sol\":827:851  tokensOwnerCount[_owner] */\n      0xffffffffffffffffffffffffffffffffffffffff\n      and\n      0xffffffffffffffffffffffffffffffffffffffff\n      and\n      dup2\n      mstore\n      0x20\n      add\n      swap1\n      dup2\n      mstore\n      0x20\n      add\n      0x00\n      keccak256\n      sload\n        /* \"contracts/GeekNft.sol\":816:852  new uint[](tokensOwnerCount[_owner]) */\n      0xffffffffffffffff\n      dup2\n      gt\n      iszero\n      tag_63\n      jumpi\n      tag_64\n      tag_65\n      jump\t// in\n    tag_64:\n    tag_63:\n      mload(0x40)\n      swap1\n      dup1\n      dup3\n      mstore\n      dup1\n      0x20\n      mul\n      0x20\n      add\n      dup3\n      add\n      0x40\n      mstore\n      dup1\n      iszero\n      tag_66\n      jumpi\n      dup2\n      0x20\n      add\n      0x20\n      dup3\n      mul\n      dup1\n      calldatasize\n      dup4\n      calldatacopy\n      dup1\n      dup3\n      add\n      swap2\n      pop\n      pop\n      swap1\n      pop\n    tag_66:\n      pop\n        /* \"contracts/GeekNft.sol\":793:852  uint[] memory myNfts = new uint[](tokensOwnerCount[_owner]) */\n      swap1\n      pop\n        /* \"contracts/GeekNft.sol\":862:875  uint nftIndex */\n      0x00\n        /* \"contracts/GeekNft.sol\":894:900  uint i */\n      dup1\n        /* \"contracts/GeekNft.sol\":903:904  1 */\n      0x01\n        /* \"contracts/GeekNft.sol\":894:904  uint i = 1 */\n      swap1\n      pop\n        /* \"contracts/GeekNft.sol\":889:1072  for (uint i = 1; i <= tokenIds.current(); i++) {... */\n    tag_67:\n        /* \"contracts/GeekNft.sol\":911:929  tokenIds.current() */\n      tag_70\n        /* \"contracts/GeekNft.sol\":911:919  tokenIds */\n      0x07\n        /* \"contracts/GeekNft.sol\":911:927  tokenIds.current */\n      tag_71\n        /* \"contracts/GeekNft.sol\":911:929  tokenIds.current() */\n      jump\t// in\n    tag_70:\n        /* \"contracts/GeekNft.sol\":906:907  i */\n      dup2\n        /* \"contracts/GeekNft.sol\":906:929  i <= tokenIds.current() */\n      gt\n        /* \"contracts/GeekNft.sol\":889:1072  for (uint i = 1; i <= tokenIds.current(); i++) {... */\n      tag_68\n      jumpi\n        /* \"contracts/GeekNft.sol\":972:978  _owner */\n      dup5\n        /* \"contracts/GeekNft.sol\":953:978  tokenToOwner[i] == _owner */\n      0xffffffffffffffffffffffffffffffffffffffff\n      and\n        /* \"contracts/GeekNft.sol\":953:965  tokenToOwner */\n      0x03\n        /* \"contracts/GeekNft.sol\":953:968  tokenToOwner[i] */\n      0x00\n        /* \"contracts/GeekNft.sol\":966:967  i */\n      dup4\n        /* \"contracts/GeekNft.sol\":953:968  tokenToOwner[i] */\n      dup2\n      mstore\n      0x20\n      add\n      swap1\n      dup2\n      mstore\n      0x20\n      add\n      0x00\n      keccak256\n      0x00\n      swap1\n      sload\n      swap1\n      0x0100\n      exp\n      swap1\n      div\n      0xffffffffffffffffffffffffffffffffffffffff\n      and\n        /* \"contracts/GeekNft.sol\":953:978  tokenToOwner[i] == _owner */\n      0xffffffffffffffffffffffffffffffffffffffff\n      and\n      eq\n        /* \"contracts/GeekNft.sol\":950:1062  if(tokenToOwner[i] == _owner) {... */\n      iszero\n      tag_72\n      jumpi\n        /* \"contracts/GeekNft.sol\":1017:1018  i */\n      dup1\n        /* \"contracts/GeekNft.sol\":998:1004  myNfts */\n      dup4\n        /* \"contracts/GeekNft.sol\":1005:1013  nftIndex */\n      dup4\n        /* \"contracts/GeekNft.sol\":998:1014  myNfts[nftIndex] */\n      dup2\n      mload\n      dup2\n      lt\n      tag_73\n      jumpi\n      tag_74\n      tag_75\n      jump\t// in\n    tag_74:\n    tag_73:\n      0x20\n      mul\n      0x20\n      add\n      add\n        /* \"contracts/GeekNft.sol\":998:1018  myNfts[nftIndex] = i */\n      dup2\n      dup2\n      mstore\n      pop\n      pop\n        /* \"contracts/GeekNft.sol\":1036:1047  nftIndex ++ */\n      dup2\n      dup1\n      tag_76\n      swap1\n      tag_77\n      jump\t// in\n    tag_76:\n      swap3\n      pop\n      pop\n        /* \"contracts/GeekNft.sol\":950:1062  if(tokenToOwner[i] == _owner) {... */\n    tag_72:\n        /* \"contracts/GeekNft.sol\":931:934  i++ */\n      dup1\n      dup1\n      tag_78\n      swap1\n      tag_77\n      jump\t// in\n    tag_78:\n      swap2\n      pop\n      pop\n        /* \"contracts/GeekNft.sol\":889:1072  for (uint i = 1; i <= tokenIds.current(); i++) {... */\n      jump(tag_67)\n    tag_68:\n      pop\n        /* \"contracts/GeekNft.sol\":1089:1095  myNfts */\n      dup2\n        /* \"contracts/GeekNft.sol\":1082:1095  return myNfts */\n      swap3\n      pop\n      pop\n      pop\n        /* \"contracts/GeekNft.sol\":707:1102  function walletOfOwner(address _owner) public view returns (uint[] memory) {... */\n      swap2\n      swap1\n      pop\n      jump\t// out\n        /* \"contracts/ERC721/ERC721.sol\":1897:2107  function ownerOf(uint256 _tokenId) external view returns (address) {... */\n    tag_29:\n        /* \"contracts/ERC721/ERC721.sol\":1955:1962  address */\n      0x00\n        /* \"contracts/ERC721/ERC721.sol\":1974:1987  address owner */\n      dup1\n        /* \"contracts/ERC721/ERC721.sol\":1990:2002  tokenToOwner */\n      0x03\n        /* \"contracts/ERC721/ERC721.sol\":1990:2012  tokenToOwner[_tokenId] */\n      0x00\n        /* \"contracts/ERC721/ERC721.sol\":2003:2011  _tokenId */\n      dup5\n        /* \"contracts/ERC721/ERC721.sol\":1990:2012  tokenToOwner[_tokenId] */\n      dup2\n      mstore\n      0x20\n      add\n      swap1\n      dup2\n      mstore\n      0x20\n      add\n      0x00\n      keccak256\n      0x00\n      swap1\n      sload\n      swap1\n      0x0100\n      exp\n      swap1\n      div\n      0xffffffffffffffffffffffffffffffffffffffff\n      and\n        /* \"contracts/ERC721/ERC721.sol\":1974:2012  address owner = tokenToOwner[_tokenId] */\n      swap1\n      pop\n        /* \"contracts/ERC721/ERC721.sol\":2047:2048  0 */\n      0x00\n        /* \"contracts/ERC721/ERC721.sol\":2030:2049  owner != address(0) */\n      0xffffffffffffffffffffffffffffffffffffffff\n      and\n        /* \"contracts/ERC721/ERC721.sol\":2030:2035  owner */\n      dup2\n        /* \"contracts/ERC721/ERC721.sol\":2030:2049  owner != address(0) */\n      0xffffffffffffffffffffffffffffffffffffffff\n      and\n      eq\n      iszero\n        /* \"contracts/ERC721/ERC721.sol\":2022:2078  require(owner != address(0), \"ERC721: invalid token ID\") */\n      tag_80\n      jumpi\n      mload(0x40)\n      0x08c379a000000000000000000000000000000000000000000000000000000000\n      dup2\n      mstore\n      0x04\n      add\n      tag_81\n      swap1\n      tag_82\n      jump\t// in\n    tag_81:\n      mload(0x40)\n      dup1\n      swap2\n      sub\n      swap1\n      revert\n    tag_80:\n        /* \"contracts/ERC721/ERC721.sol\":2095:2100  owner */\n      dup1\n        /* \"contracts/ERC721/ERC721.sol\":2088:2100  return owner */\n      swap2\n      pop\n      pop\n        /* \"contracts/ERC721/ERC721.sol\":1897:2107  function ownerOf(uint256 _tokenId) external view returns (address) {... */\n      swap2\n      swap1\n      pop\n      jump\t// out\n        /* \"contracts/ERC721/ERC721.sol\":2113:2223  function balanceOf(address _owner) public view returns (uint) {... */\n    tag_34:\n        /* \"contracts/ERC721/ERC721.sol\":2169:2173  uint */\n      0x00\n        /* \"contracts/ERC721/ERC721.sol\":2192:2208  tokensOwnerCount */\n      0x02\n        /* \"contracts/ERC721/ERC721.sol\":2192:2216  tokensOwnerCount[_owner] */\n      0x00\n        /* \"contracts/ERC721/ERC721.sol\":2209:2215  _owner */\n      dup4\n        /* \"contracts/ERC721/ERC721.sol\":2192:2216  tokensOwnerCount[_owner] */\n      0xffffffffffffffffffffffffffffffffffffffff\n      and\n      0xffffffffffffffffffffffffffffffffffffffff\n      and\n      dup2\n      mstore\n      0x20\n      add\n      swap1\n      dup2\n      mstore\n      0x20\n      add\n      0x00\n      keccak256\n      sload\n        /* \"contracts/ERC721/ERC721.sol\":2185:2216  return tokensOwnerCount[_owner] */\n      swap1\n      pop\n        /* \"contracts/ERC721/ERC721.sol\":2113:2223  function balanceOf(address _owner) public view returns (uint) {... */\n      swap2\n      swap1\n      pop\n      jump\t// out\n        /* \"contracts/ERC721/ERC721.sol\":721:806  function symbol() public view returns (string memory) {... */\n    tag_38:\n        /* \"contracts/ERC721/ERC721.sol\":760:773  string memory */\n      0x60\n        /* \"contracts/ERC721/ERC721.sol\":792:799  _symbol */\n      0x01\n        /* \"contracts/ERC721/ERC721.sol\":785:799  return _symbol */\n      dup1\n      sload\n      tag_85\n      swap1\n      tag_50\n      jump\t// in\n    tag_85:\n      dup1\n      0x1f\n      add\n      0x20\n      dup1\n      swap2\n      div\n      mul\n      0x20\n      add\n      mload(0x40)\n      swap1\n      dup2\n      add\n      0x40\n      mstore\n      dup1\n      swap3\n      swap2\n      swap1\n      dup2\n      dup2\n      mstore\n      0x20\n      add\n      dup3\n      dup1\n      sload\n      tag_86\n      swap1\n      tag_50\n      jump\t// in\n    tag_86:\n      dup1\n      iszero\n      tag_87\n      jumpi\n      dup1\n      0x1f\n      lt\n      tag_88\n      jumpi\n      0x0100\n      dup1\n      dup4\n      sload\n      div\n      mul\n      dup4\n      mstore\n      swap2\n      0x20\n      add\n      swap2\n      jump(tag_87)\n    tag_88:\n      dup3\n      add\n      swap2\n      swap1\n      0x00\n      mstore\n      keccak256(0x00, 0x20)\n      swap1\n    tag_89:\n      dup2\n      sload\n      dup2\n      mstore\n      swap1\n      0x01\n      add\n      swap1\n      0x20\n      add\n      dup1\n      dup4\n      gt\n      tag_89\n      jumpi\n      dup3\n      swap1\n      sub\n      0x1f\n      and\n      dup3\n      add\n      swap2\n    tag_87:\n      pop\n      pop\n      pop\n      pop\n      pop\n      swap1\n      pop\n        /* \"contracts/ERC721/ERC721.sol\":721:806  function symbol() public view returns (string memory) {... */\n      swap1\n      jump\t// out\n        /* \"contracts/ERC721/ERC721.sol\":322:363  mapping(uint => string) public tokenToUri */\n    tag_42:\n      mstore(0x20, 0x06)\n      dup1\n      0x00\n      mstore\n      keccak256(0x00, 0x40)\n      0x00\n      swap2\n      pop\n      swap1\n      pop\n      dup1\n      sload\n      tag_90\n      swap1\n      tag_50\n      jump\t// in\n    tag_90:\n      dup1\n      0x1f\n      add\n      0x20\n      dup1\n      swap2\n      div\n      mul\n      0x20\n      add\n      mload(0x40)\n      swap1\n      dup2\n      add\n      0x40\n      mstore\n      dup1\n      swap3\n      swap2\n      swap1\n      dup2\n      dup2\n      mstore\n      0x20\n      add\n      dup3\n      dup1\n      sload\n      tag_91\n      swap1\n      tag_50\n      jump\t// in\n    tag_91:\n      dup1\n      iszero\n      tag_92\n      jumpi\n      dup1\n      0x1f\n      lt\n      tag_93\n      jumpi\n      0x0100\n      dup1\n      dup4\n      sload\n      div\n      mul\n      dup4\n      mstore\n      swap2\n      0x20\n      add\n      swap2\n      jump(tag_92)\n    tag_93:\n      dup3\n      add\n      swap2\n      swap1\n      0x00\n      mstore\n      keccak256(0x00, 0x20)\n      swap1\n    tag_94:\n      dup2\n      sload\n      dup2\n      mstore\n      swap1\n      0x01\n      add\n      swap1\n      0x20\n      add\n      dup1\n      dup4\n      gt\n      tag_94\n      jumpi\n      dup3\n      swap1\n      sub\n      0x1f\n      and\n      dup3\n      add\n      swap2\n    tag_92:\n      pop\n      pop\n      pop\n      pop\n      pop\n      dup2\n      jump\t// out\n        /* \"contracts/GeekNft.sol\":435:700  function mint(string memory _tokenUri) public {... */\n    tag_47:\n        /* \"contracts/GeekNft.sol\":491:511  tokenIds.increment() */\n      tag_96\n        /* \"contracts/GeekNft.sol\":491:499  tokenIds */\n      0x07\n        /* \"contracts/GeekNft.sol\":491:509  tokenIds.increment */\n      tag_97\n        /* \"contracts/GeekNft.sol\":491:511  tokenIds.increment() */\n      jump\t// in\n    tag_96:\n        /* \"contracts/GeekNft.sol\":521:536  uint newTokenId */\n      0x00\n        /* \"contracts/GeekNft.sol\":539:557  tokenIds.current() */\n      tag_98\n        /* \"contracts/GeekNft.sol\":539:547  tokenIds */\n      0x07\n        /* \"contracts/GeekNft.sol\":539:555  tokenIds.current */\n      tag_71\n        /* \"contracts/GeekNft.sol\":539:557  tokenIds.current() */\n      jump\t// in\n    tag_98:\n        /* \"contracts/GeekNft.sol\":521:557  uint newTokenId = tokenIds.current() */\n      swap1\n      pop\n        /* \"contracts/GeekNft.sol\":567:600  _safeMint(msg.sender, newTokenId) */\n      tag_99\n        /* \"contracts/GeekNft.sol\":577:587  msg.sender */\n      caller\n        /* \"contracts/GeekNft.sol\":589:599  newTokenId */\n      dup3\n        /* \"contracts/GeekNft.sol\":567:576  _safeMint */\n      tag_100\n        /* \"contracts/GeekNft.sol\":567:600  _safeMint(msg.sender, newTokenId) */\n      jump\t// in\n    tag_99:\n        /* \"contracts/GeekNft.sol\":610:645  _setTokenUri(newTokenId, _tokenUri) */\n      tag_101\n        /* \"contracts/GeekNft.sol\":623:633  newTokenId */\n      dup2\n        /* \"contracts/GeekNft.sol\":635:644  _tokenUri */\n      dup4\n        /* \"contracts/GeekNft.sol\":610:622  _setTokenUri */\n      tag_102\n        /* \"contracts/GeekNft.sol\":610:645  _setTokenUri(newTokenId, _tokenUri) */\n      jump\t// in\n    tag_101:\n        /* \"contracts/GeekNft.sol\":670:680  newTokenId */\n      dup1\n        /* \"contracts/GeekNft.sol\":660:693  NftMinted(newTokenId, msg.sender) */\n      0x769eff512f395b679667e0062a0e31dad5d22dbc7e6b87f16c3de7e85e663460\n        /* \"contracts/GeekNft.sol\":682:692  msg.sender */\n      caller\n        /* \"contracts/GeekNft.sol\":660:693  NftMinted(newTokenId, msg.sender) */\n      mload(0x40)\n      tag_103\n      swap2\n      swap1\n      tag_31\n      jump\t// in\n    tag_103:\n      mload(0x40)\n      dup1\n      swap2\n      sub\n      swap1\n      log2\n        /* \"contracts/GeekNft.sol\":481:700  {... */\n      pop\n        /* \"contracts/GeekNft.sol\":435:700  function mint(string memory _tokenUri) public {... */\n      pop\n      jump\t// out\n        /* \"contracts/utils/Counters.sol\":827:939  function current(Counter storage counter) internal view returns (uint256) {... */\n    tag_71:\n        /* \"contracts/utils/Counters.sol\":892:899  uint256 */\n      0x00\n        /* \"contracts/utils/Counters.sol\":918:925  counter */\n      dup2\n        /* \"contracts/utils/Counters.sol\":918:932  counter._value */\n      0x00\n      add\n      sload\n        /* \"contracts/utils/Counters.sol\":911:932  return counter._value */\n      swap1\n      pop\n        /* \"contracts/utils/Counters.sol\":827:939  function current(Counter storage counter) internal view returns (uint256) {... */\n      swap2\n      swap1\n      pop\n      jump\t// out\n        /* \"contracts/utils/Counters.sol\":945:1068  function increment(Counter storage counter) internal {... */\n    tag_97:\n        /* \"contracts/utils/Counters.sol\":1050:1051  1 */\n      0x01\n        /* \"contracts/utils/Counters.sol\":1032:1039  counter */\n      dup2\n        /* \"contracts/utils/Counters.sol\":1032:1046  counter._value */\n      0x00\n      add\n      0x00\n        /* \"contracts/utils/Counters.sol\":1032:1051  counter._value += 1 */\n      dup3\n      dup3\n      sload\n      add\n      swap3\n      pop\n      pop\n      dup2\n      swap1\n      sstore\n      pop\n        /* \"contracts/utils/Counters.sol\":945:1068  function increment(Counter storage counter) internal {... */\n      pop\n      jump\t// out\n        /* \"contracts/ERC721/ERC721.sol\":812:1254  function _safeMint(address _to, uint _tokenId) internal{... */\n    tag_100:\n        /* \"contracts/ERC721/ERC721.sol\":921:922  0 */\n      0x00\n        /* \"contracts/ERC721/ERC721.sol\":885:923  tokenToCreator[_tokenId] == address(0) */\n      0xffffffffffffffffffffffffffffffffffffffff\n      and\n        /* \"contracts/ERC721/ERC721.sol\":885:899  tokenToCreator */\n      0x05\n        /* \"contracts/ERC721/ERC721.sol\":885:909  tokenToCreator[_tokenId] */\n      0x00\n        /* \"contracts/ERC721/ERC721.sol\":900:908  _tokenId */\n      dup4\n        /* \"contracts/ERC721/ERC721.sol\":885:909  tokenToCreator[_tokenId] */\n      dup2\n      mstore\n      0x20\n      add\n      swap1\n      dup2\n      mstore\n      0x20\n      add\n      0x00\n      keccak256\n      0x00\n      swap1\n      sload\n      swap1\n      0x0100\n      exp\n      swap1\n      div\n      0xffffffffffffffffffffffffffffffffffffffff\n      and\n        /* \"contracts/ERC721/ERC721.sol\":885:923  tokenToCreator[_tokenId] == address(0) */\n      0xffffffffffffffffffffffffffffffffffffffff\n      and\n      eq\n        /* \"contracts/ERC721/ERC721.sol\":877:947  require(tokenToCreator[_tokenId] == address(0), \"token already exist\") */\n      tag_107\n      jumpi\n      mload(0x40)\n      0x08c379a000000000000000000000000000000000000000000000000000000000\n      dup2\n      mstore\n      0x04\n      add\n      tag_108\n      swap1\n      tag_109\n      jump\t// in\n    tag_108:\n      mload(0x40)\n      dup1\n      swap2\n      sub\n      swap1\n      revert\n    tag_107:\n        /* \"contracts/ERC721/ERC721.sol\":980:981  0 */\n      0x00\n        /* \"contracts/ERC721/ERC721.sol\":965:982  _to != address(0) */\n      0xffffffffffffffffffffffffffffffffffffffff\n      and\n        /* \"contracts/ERC721/ERC721.sol\":965:968  _to */\n      dup3\n        /* \"contracts/ERC721/ERC721.sol\":965:982  _to != address(0) */\n      0xffffffffffffffffffffffffffffffffffffffff\n      and\n      eq\n      iszero\n        /* \"contracts/ERC721/ERC721.sol\":957:1011  require(_to != address(0), \"mint to the zero address\") */\n      tag_110\n      jumpi\n      mload(0x40)\n      0x08c379a000000000000000000000000000000000000000000000000000000000\n      dup2\n      mstore\n      0x04\n      add\n      tag_111\n      swap1\n      tag_112\n      jump\t// in\n    tag_111:\n      mload(0x40)\n      dup1\n      swap2\n      sub\n      swap1\n      revert\n    tag_110:\n        /* \"contracts/ERC721/ERC721.sol\":1045:1061  tokensOwnerCount */\n      0x02\n        /* \"contracts/ERC721/ERC721.sol\":1045:1066  tokensOwnerCount[_to] */\n      0x00\n        /* \"contracts/ERC721/ERC721.sol\":1062:1065  _to */\n      dup4\n        /* \"contracts/ERC721/ERC721.sol\":1045:1066  tokensOwnerCount[_to] */\n      0xffffffffffffffffffffffffffffffffffffffff\n      and\n      0xffffffffffffffffffffffffffffffffffffffff\n      and\n      dup2\n      mstore\n      0x20\n      add\n      swap1\n      dup2\n      mstore\n      0x20\n      add\n      0x00\n      keccak256\n      0x00\n        /* \"contracts/ERC721/ERC721.sol\":1045:1068  tokensOwnerCount[_to]++ */\n      dup2\n      sload\n      dup1\n      swap3\n      swap2\n      swap1\n      0x01\n      add\n      swap2\n      swap1\n      pop\n      sstore\n      pop\n        /* \"contracts/ERC721/ERC721.sol\":1082:1100  tokensCreatorCount */\n      0x04\n        /* \"contracts/ERC721/ERC721.sol\":1082:1105  tokensCreatorCount[_to] */\n      0x00\n        /* \"contracts/ERC721/ERC721.sol\":1101:1104  _to */\n      dup4\n        /* \"contracts/ERC721/ERC721.sol\":1082:1105  tokensCreatorCount[_to] */\n      0xffffffffffffffffffffffffffffffffffffffff\n      and\n      0xffffffffffffffffffffffffffffffffffffffff\n      and\n      dup2\n      mstore\n      0x20\n      add\n      swap1\n      dup2\n      mstore\n      0x20\n      add\n      0x00\n      keccak256\n      0x00\n        /* \"contracts/ERC721/ERC721.sol\":1082:1107  tokensCreatorCount[_to]++ */\n      dup2\n      sload\n      dup1\n      swap3\n      swap2\n      swap1\n      0x01\n      add\n      swap2\n      swap1\n      pop\n      sstore\n      pop\n        /* \"contracts/ERC721/ERC721.sol\":1153:1156  _to */\n      dup2\n        /* \"contracts/ERC721/ERC721.sol\":1128:1140  tokenToOwner */\n      0x03\n        /* \"contracts/ERC721/ERC721.sol\":1128:1150  tokenToOwner[_tokenId] */\n      0x00\n        /* \"contracts/ERC721/ERC721.sol\":1141:1149  _tokenId */\n      dup4\n        /* \"contracts/ERC721/ERC721.sol\":1128:1150  tokenToOwner[_tokenId] */\n      dup2\n      mstore\n      0x20\n      add\n      swap1\n      dup2\n      mstore\n      0x20\n      add\n      0x00\n      keccak256\n      0x00\n        /* \"contracts/ERC721/ERC721.sol\":1128:1156  tokenToOwner[_tokenId] = _to */\n      0x0100\n      exp\n      dup2\n      sload\n      dup2\n      0xffffffffffffffffffffffffffffffffffffffff\n      mul\n      not\n      and\n      swap1\n      dup4\n      0xffffffffffffffffffffffffffffffffffffffff\n      and\n      mul\n      or\n      swap1\n      sstore\n      pop\n        /* \"contracts/ERC721/ERC721.sol\":1193:1196  _to */\n      dup2\n        /* \"contracts/ERC721/ERC721.sol\":1166:1180  tokenToCreator */\n      0x05\n        /* \"contracts/ERC721/ERC721.sol\":1166:1190  tokenToCreator[_tokenId] */\n      0x00\n        /* \"contracts/ERC721/ERC721.sol\":1181:1189  _tokenId */\n      dup4\n        /* \"contracts/ERC721/ERC721.sol\":1166:1190  tokenToCreator[_tokenId] */\n      dup2\n      mstore\n      0x20\n      add\n      swap1\n      dup2\n      mstore\n      0x20\n      add\n      0x00\n      keccak256\n      0x00\n        /* \"contracts/ERC721/ERC721.sol\":1166:1196  tokenToCreator[_tokenId] = _to */\n      0x0100\n      exp\n      dup2\n      sload\n      dup2\n      0xffffffffffffffffffffffffffffffffffffffff\n      mul\n      not\n      and\n      swap1\n      dup4\n      0xffffffffffffffffffffffffffffffffffffffff\n      and\n      mul\n      or\n      swap1\n      sstore\n      pop\n        /* \"contracts/ERC721/ERC721.sol\":1238:1246  _tokenId */\n      dup1\n        /* \"contracts/ERC721/ERC721.sol\":1233:1236  _to */\n      dup3\n        /* \"contracts/ERC721/ERC721.sol\":1212:1247  Transfer(address(0), _to, _tokenId) */\n      0xffffffffffffffffffffffffffffffffffffffff\n      and\n        /* \"contracts/ERC721/ERC721.sol\":1229:1230  0 */\n      0x00\n        /* \"contracts/ERC721/ERC721.sol\":1212:1247  Transfer(address(0), _to, _tokenId) */\n      0xffffffffffffffffffffffffffffffffffffffff\n      and\n      0xddf252ad1be2c89b69c2b068fc378daa952ba7f163c4a11628f55a4df523b3ef\n      mload(0x40)\n      mload(0x40)\n      dup1\n      swap2\n      sub\n      swap1\n      log4\n        /* \"contracts/ERC721/ERC721.sol\":812:1254  function _safeMint(address _to, uint _tokenId) internal{... */\n      pop\n      pop\n      jump\t// out\n        /* \"contracts/ERC721/ERC721.sol\":1260:1460  function _setTokenUri(uint _tokenId, string memory _tokenUri) internal {... */\n    tag_102:\n        /* \"contracts/ERC721/ERC721.sol\":1385:1386  0 */\n      0x00\n        /* \"contracts/ERC721/ERC721.sol\":1349:1387  tokenToCreator[_tokenId] != address(0) */\n      0xffffffffffffffffffffffffffffffffffffffff\n      and\n        /* \"contracts/ERC721/ERC721.sol\":1349:1363  tokenToCreator */\n      0x05\n        /* \"contracts/ERC721/ERC721.sol\":1349:1373  tokenToCreator[_tokenId] */\n      0x00\n        /* \"contracts/ERC721/ERC721.sol\":1364:1372  _tokenId */\n      dup5\n        /* \"contracts/ERC721/ERC721.sol\":1349:1373  tokenToCreator[_tokenId] */\n      dup2\n      mstore\n      0x20\n      add\n      swap1\n      dup2\n      mstore\n      0x20\n      add\n      0x00\n      keccak256\n      0x00\n      swap1\n      sload\n      swap1\n      0x0100\n      exp\n      swap1\n      div\n      0xffffffffffffffffffffffffffffffffffffffff\n      and\n        /* \"contracts/ERC721/ERC721.sol\":1349:1387  tokenToCreator[_tokenId] != address(0) */\n      0xffffffffffffffffffffffffffffffffffffffff\n      and\n      eq\n      iszero\n        /* \"contracts/ERC721/ERC721.sol\":1341:1411  require(tokenToCreator[_tokenId] != address(0), \"token doesn't exist\") */\n      tag_114\n      jumpi\n      mload(0x40)\n      0x08c379a000000000000000000000000000000000000000000000000000000000\n      dup2\n      mstore\n      0x04\n      add\n      tag_115\n      swap1\n      tag_116\n      jump\t// in\n    tag_115:\n      mload(0x40)\n      dup1\n      swap2\n      sub\n      swap1\n      revert\n    tag_114:\n        /* \"contracts/ERC721/ERC721.sol\":1444:1453  _tokenUri */\n      dup1\n        /* \"contracts/ERC721/ERC721.sol\":1421:1431  tokenToUri */\n      0x06\n        /* \"contracts/ERC721/ERC721.sol\":1421:1441  tokenToUri[_tokenId] */\n      0x00\n        /* \"contracts/ERC721/ERC721.sol\":1432:1440  _tokenId */\n      dup5\n        /* \"contracts/ERC721/ERC721.sol\":1421:1441  tokenToUri[_tokenId] */\n      dup2\n      mstore\n      0x20\n      add\n      swap1\n      dup2\n      mstore\n      0x20\n      add\n      0x00\n      keccak256\n        /* \"contracts/ERC721/ERC721.sol\":1421:1453  tokenToUri[_tokenId] = _tokenUri */\n      swap1\n      dup1\n      mload\n      swap1\n      0x20\n      add\n      swap1\n      tag_117\n      swap3\n      swap2\n      swap1\n      tag_118\n      jump\t// in\n    tag_117:\n      pop\n        /* \"contracts/ERC721/ERC721.sol\":1260:1460  function _setTokenUri(uint _tokenId, string memory _tokenUri) internal {... */\n      pop\n      pop\n      jump\t// out\n    tag_118:\n      dup3\n      dup1\n      sload\n      tag_119\n      swap1\n      tag_50\n      jump\t// in\n    tag_119:\n      swap1\n      0x00\n      mstore\n      keccak256(0x00, 0x20)\n      swap1\n      0x1f\n      add\n      0x20\n      swap1\n      div\n      dup2\n      add\n      swap3\n      dup3\n      tag_121\n      jumpi\n      0x00\n      dup6\n      sstore\n      jump(tag_120)\n    tag_121:\n      dup3\n      0x1f\n      lt\n      tag_122\n      jumpi\n      dup1\n      mload\n      not(0xff)\n      and\n      dup4\n      dup1\n      add\n      or\n      dup6\n      sstore\n      jump(tag_120)\n    tag_122:\n      dup3\n      dup1\n      add\n      0x01\n      add\n      dup6\n      sstore\n      dup3\n      iszero\n      tag_120\n      jumpi\n      swap2\n      dup3\n      add\n    tag_123:\n      dup3\n      dup2\n      gt\n      iszero\n      tag_124\n      jumpi\n      dup3\n      mload\n      dup3\n      sstore\n      swap2\n      0x20\n      add\n      swap2\n      swap1\n      0x01\n      add\n      swap1\n      jump(tag_123)\n    tag_124:\n    tag_120:\n      pop\n      swap1\n      pop\n      tag_125\n      swap2\n      swap1\n      tag_126\n      jump\t// in\n    tag_125:\n      pop\n      swap1\n      jump\t// out\n    tag_126:\n    tag_127:\n      dup1\n      dup3\n      gt\n      iszero\n      tag_128\n      jumpi\n      0x00\n      dup2\n      0x00\n      swap1\n      sstore\n      pop\n      0x01\n      add\n      jump(tag_127)\n    tag_128:\n      pop\n      swap1\n      jump\t// out\n        /* \"#utility.yul\":7:419   */\n    tag_130:\n        /* \"#utility.yul\":85:90   */\n      0x00\n        /* \"#utility.yul\":110:176   */\n      tag_132\n        /* \"#utility.yul\":126:175   */\n      tag_133\n        /* \"#utility.yul\":168:174   */\n      dup5\n        /* \"#utility.yul\":126:175   */\n      tag_134\n      jump\t// in\n    tag_133:\n        /* \"#utility.yul\":110:176   */\n      tag_135\n      jump\t// in\n    tag_132:\n        /* \"#utility.yul\":101:176   */\n      swap1\n      pop\n        /* \"#utility.yul\":199:205   */\n      dup3\n        /* \"#utility.yul\":192:197   */\n      dup2\n        /* \"#utility.yul\":185:206   */\n      mstore\n        /* \"#utility.yul\":237:241   */\n      0x20\n        /* \"#utility.yul\":230:235   */\n      dup2\n        /* \"#utility.yul\":226:242   */\n      add\n        /* \"#utility.yul\":275:278   */\n      dup5\n        /* \"#utility.yul\":266:272   */\n      dup5\n        /* \"#utility.yul\":261:264   */\n      dup5\n        /* \"#utility.yul\":257:273   */\n      add\n        /* \"#utility.yul\":254:279   */\n      gt\n        /* \"#utility.yul\":251:363   */\n      iszero\n      tag_136\n      jumpi\n        /* \"#utility.yul\":282:361   */\n      tag_137\n      tag_138\n      jump\t// in\n    tag_137:\n        /* \"#utility.yul\":251:363   */\n    tag_136:\n        /* \"#utility.yul\":372:413   */\n      tag_139\n        /* \"#utility.yul\":406:412   */\n      dup5\n        /* \"#utility.yul\":401:404   */\n      dup3\n        /* \"#utility.yul\":396:399   */\n      dup6\n        /* \"#utility.yul\":372:413   */\n      tag_140\n      jump\t// in\n    tag_139:\n        /* \"#utility.yul\":91:419   */\n      pop\n        /* \"#utility.yul\":7:419   */\n      swap4\n      swap3\n      pop\n      pop\n      pop\n      jump\t// out\n        /* \"#utility.yul\":425:564   */\n    tag_141:\n        /* \"#utility.yul\":471:476   */\n      0x00\n        /* \"#utility.yul\":509:515   */\n      dup2\n        /* \"#utility.yul\":496:516   */\n      calldataload\n        /* \"#utility.yul\":487:516   */\n      swap1\n      pop\n        /* \"#utility.yul\":525:558   */\n      tag_143\n        /* \"#utility.yul\":552:557   */\n      dup2\n        /* \"#utility.yul\":525:558   */\n      tag_144\n      jump\t// in\n    tag_143:\n        /* \"#utility.yul\":425:564   */\n      swap3\n      swap2\n      pop\n      pop\n      jump\t// out\n        /* \"#utility.yul\":584:924   */\n    tag_145:\n        /* \"#utility.yul\":640:645   */\n      0x00\n        /* \"#utility.yul\":689:692   */\n      dup3\n        /* \"#utility.yul\":682:686   */\n      0x1f\n        /* \"#utility.yul\":674:680   */\n      dup4\n        /* \"#utility.yul\":670:687   */\n      add\n        /* \"#utility.yul\":666:693   */\n      slt\n        /* \"#utility.yul\":656:778   */\n      tag_147\n      jumpi\n        /* \"#utility.yul\":697:776   */\n      tag_148\n      tag_149\n      jump\t// in\n    tag_148:\n        /* \"#utility.yul\":656:778   */\n    tag_147:\n        /* \"#utility.yul\":814:820   */\n      dup2\n        /* \"#utility.yul\":801:821   */\n      calldataload\n        /* \"#utility.yul\":839:918   */\n      tag_150\n        /* \"#utility.yul\":914:917   */\n      dup5\n        /* \"#utility.yul\":906:912   */\n      dup3\n        /* \"#utility.yul\":899:903   */\n      0x20\n        /* \"#utility.yul\":891:897   */\n      dup7\n        /* \"#utility.yul\":887:904   */\n      add\n        /* \"#utility.yul\":839:918   */\n      tag_130\n      jump\t// in\n    tag_150:\n        /* \"#utility.yul\":830:918   */\n      swap2\n      pop\n        /* \"#utility.yul\":646:924   */\n      pop\n        /* \"#utility.yul\":584:924   */\n      swap3\n      swap2\n      pop\n      pop\n      jump\t// out\n        /* \"#utility.yul\":930:1069   */\n    tag_151:\n        /* \"#utility.yul\":976:981   */\n      0x00\n        /* \"#utility.yul\":1014:1020   */\n      dup2\n        /* \"#utility.yul\":1001:1021   */\n      calldataload\n        /* \"#utility.yul\":992:1021   */\n      swap1\n      pop\n        /* \"#utility.yul\":1030:1063   */\n      tag_153\n        /* \"#utility.yul\":1057:1062   */\n      dup2\n        /* \"#utility.yul\":1030:1063   */\n      tag_154\n      jump\t// in\n    tag_153:\n        /* \"#utility.yul\":930:1069   */\n      swap3\n      swap2\n      pop\n      pop\n      jump\t// out\n        /* \"#utility.yul\":1075:1404   */\n    tag_22:\n        /* \"#utility.yul\":1134:1140   */\n      0x00\n        /* \"#utility.yul\":1183:1185   */\n      0x20\n        /* \"#utility.yul\":1171:1180   */\n      dup3\n        /* \"#utility.yul\":1162:1169   */\n      dup5\n        /* \"#utility.yul\":1158:1181   */\n      sub\n        /* \"#utility.yul\":1154:1186   */\n      slt\n        /* \"#utility.yul\":1151:1270   */\n      iszero\n      tag_156\n      jumpi\n        /* \"#utility.yul\":1189:1268   */\n      tag_157\n      tag_158\n      jump\t// in\n    tag_157:\n        /* \"#utility.yul\":1151:1270   */\n    tag_156:\n        /* \"#utility.yul\":1309:1310   */\n      0x00\n        /* \"#utility.yul\":1334:1387   */\n      tag_159\n        /* \"#utility.yul\":1379:1386   */\n      dup5\n        /* \"#utility.yul\":1370:1376   */\n      dup3\n        /* \"#utility.yul\":1359:1368   */\n      dup6\n        /* \"#utility.yul\":1355:1377   */\n      add\n        /* \"#utility.yul\":1334:1387   */\n      tag_141\n      jump\t// in\n    tag_159:\n        /* \"#utility.yul\":1324:1387   */\n      swap2\n      pop\n        /* \"#utility.yul\":1280:1397   */\n      pop\n        /* \"#utility.yul\":1075:1404   */\n      swap3\n      swap2\n      pop\n      pop\n      jump\t// out\n        /* \"#utility.yul\":1410:2029   */\n    tag_18:\n        /* \"#utility.yul\":1487:1493   */\n      0x00\n        /* \"#utility.yul\":1495:1501   */\n      dup1\n        /* \"#utility.yul\":1503:1509   */\n      0x00\n        /* \"#utility.yul\":1552:1554   */\n      0x60\n        /* \"#utility.yul\":1540:1549   */\n      dup5\n        /* \"#utility.yul\":1531:1538   */\n      dup7\n        /* \"#utility.yul\":1527:1550   */\n      sub\n        /* \"#utility.yul\":1523:1555   */\n      slt\n        /* \"#utility.yul\":1520:1639   */\n      iszero\n      tag_161\n      jumpi\n        /* \"#utility.yul\":1558:1637   */\n      tag_162\n      tag_158\n      jump\t// in\n    tag_162:\n        /* \"#utility.yul\":1520:1639   */\n    tag_161:\n        /* \"#utility.yul\":1678:1679   */\n      0x00\n        /* \"#utility.yul\":1703:1756   */\n      tag_163\n        /* \"#utility.yul\":1748:1755   */\n      dup7\n        /* \"#utility.yul\":1739:1745   */\n      dup3\n        /* \"#utility.yul\":1728:1737   */\n      dup8\n        /* \"#utility.yul\":1724:1746   */\n      add\n        /* \"#utility.yul\":1703:1756   */\n      tag_141\n      jump\t// in\n    tag_163:\n        /* \"#utility.yul\":1693:1756   */\n      swap4\n      pop\n        /* \"#utility.yul\":1649:1766   */\n      pop\n        /* \"#utility.yul\":1805:1807   */\n      0x20\n        /* \"#utility.yul\":1831:1884   */\n      tag_164\n        /* \"#utility.yul\":1876:1883   */\n      dup7\n        /* \"#utility.yul\":1867:1873   */\n      dup3\n        /* \"#utility.yul\":1856:1865   */\n      dup8\n        /* \"#utility.yul\":1852:1874   */\n      add\n        /* \"#utility.yul\":1831:1884   */\n      tag_141\n      jump\t// in\n    tag_164:\n        /* \"#utility.yul\":1821:1884   */\n      swap3\n      pop\n        /* \"#utility.yul\":1776:1894   */\n      pop\n        /* \"#utility.yul\":1933:1935   */\n      0x40\n        /* \"#utility.yul\":1959:2012   */\n      tag_165\n        /* \"#utility.yul\":2004:2011   */\n      dup7\n        /* \"#utility.yul\":1995:2001   */\n      dup3\n        /* \"#utility.yul\":1984:1993   */\n      dup8\n        /* \"#utility.yul\":1980:2002   */\n      add\n        /* \"#utility.yul\":1959:2012   */\n      tag_151\n      jump\t// in\n    tag_165:\n        /* \"#utility.yul\":1949:2012   */\n      swap2\n      pop\n        /* \"#utility.yul\":1904:2022   */\n      pop\n        /* \"#utility.yul\":1410:2029   */\n      swap3\n      pop\n      swap3\n      pop\n      swap3\n      jump\t// out\n        /* \"#utility.yul\":2035:2544   */\n    tag_46:\n        /* \"#utility.yul\":2104:2110   */\n      0x00\n        /* \"#utility.yul\":2153:2155   */\n      0x20\n        /* \"#utility.yul\":2141:2150   */\n      dup3\n        /* \"#utility.yul\":2132:2139   */\n      dup5\n        /* \"#utility.yul\":2128:2151   */\n      sub\n        /* \"#utility.yul\":2124:2156   */\n      slt\n        /* \"#utility.yul\":2121:2240   */\n      iszero\n      tag_167\n      jumpi\n        /* \"#utility.yul\":2159:2238   */\n      tag_168\n      tag_158\n      jump\t// in\n    tag_168:\n        /* \"#utility.yul\":2121:2240   */\n    tag_167:\n        /* \"#utility.yul\":2307:2308   */\n      0x00\n        /* \"#utility.yul\":2296:2305   */\n      dup3\n        /* \"#utility.yul\":2292:2309   */\n      add\n        /* \"#utility.yul\":2279:2310   */\n      calldataload\n        /* \"#utility.yul\":2337:2355   */\n      0xffffffffffffffff\n        /* \"#utility.yul\":2329:2335   */\n      dup2\n        /* \"#utility.yul\":2326:2356   */\n      gt\n        /* \"#utility.yul\":2323:2440   */\n      iszero\n      tag_169\n      jumpi\n        /* \"#utility.yul\":2359:2438   */\n      tag_170\n      tag_171\n      jump\t// in\n    tag_170:\n        /* \"#utility.yul\":2323:2440   */\n    tag_169:\n        /* \"#utility.yul\":2464:2527   */\n      tag_172\n        /* \"#utility.yul\":2519:2526   */\n      dup5\n        /* \"#utility.yul\":2510:2516   */\n      dup3\n        /* \"#utility.yul\":2499:2508   */\n      dup6\n        /* \"#utility.yul\":2495:2517   */\n      add\n        /* \"#utility.yul\":2464:2527   */\n      tag_145\n      jump\t// in\n    tag_172:\n        /* \"#utility.yul\":2454:2527   */\n      swap2\n      pop\n        /* \"#utility.yul\":2250:2537   */\n      pop\n        /* \"#utility.yul\":2035:2544   */\n      swap3\n      swap2\n      pop\n      pop\n      jump\t// out\n        /* \"#utility.yul\":2550:2879   */\n    tag_28:\n        /* \"#utility.yul\":2609:2615   */\n      0x00\n        /* \"#utility.yul\":2658:2660   */\n      0x20\n        /* \"#utility.yul\":2646:2655   */\n      dup3\n        /* \"#utility.yul\":2637:2644   */\n      dup5\n        /* \"#utility.yul\":2633:2656   */\n      sub\n        /* \"#utility.yul\":2629:2661   */\n      slt\n        /* \"#utility.yul\":2626:2745   */\n      iszero\n      tag_174\n      jumpi\n        /* \"#utility.yul\":2664:2743   */\n      tag_175\n      tag_158\n      jump\t// in\n    tag_175:\n        /* \"#utility.yul\":2626:2745   */\n    tag_174:\n        /* \"#utility.yul\":2784:2785   */\n      0x00\n        /* \"#utility.yul\":2809:2862   */\n      tag_176\n        /* \"#utility.yul\":2854:2861   */\n      dup5\n        /* \"#utility.yul\":2845:2851   */\n      dup3\n        /* \"#utility.yul\":2834:2843   */\n      dup6\n        /* \"#utility.yul\":2830:2852   */\n      add\n        /* \"#utility.yul\":2809:2862   */\n      tag_151\n      jump\t// in\n    tag_176:\n        /* \"#utility.yul\":2799:2862   */\n      swap2\n      pop\n        /* \"#utility.yul\":2755:2872   */\n      pop\n        /* \"#utility.yul\":2550:2879   */\n      swap3\n      swap2\n      pop\n      pop\n      jump\t// out\n        /* \"#utility.yul\":2885:3064   */\n    tag_177:\n        /* \"#utility.yul\":2954:2964   */\n      0x00\n        /* \"#utility.yul\":2975:3021   */\n      tag_179\n        /* \"#utility.yul\":3017:3020   */\n      dup4\n        /* \"#utility.yul\":3009:3015   */\n      dup4\n        /* \"#utility.yul\":2975:3021   */\n      tag_180\n      jump\t// in\n    tag_179:\n        /* \"#utility.yul\":3053:3057   */\n      0x20\n        /* \"#utility.yul\":3048:3051   */\n      dup4\n        /* \"#utility.yul\":3044:3058   */\n      add\n        /* \"#utility.yul\":3030:3058   */\n      swap1\n      pop\n        /* \"#utility.yul\":2885:3064   */\n      swap3\n      swap2\n      pop\n      pop\n      jump\t// out\n        /* \"#utility.yul\":3070:3188   */\n    tag_181:\n        /* \"#utility.yul\":3157:3181   */\n      tag_183\n        /* \"#utility.yul\":3175:3180   */\n      dup2\n        /* \"#utility.yul\":3157:3181   */\n      tag_184\n      jump\t// in\n    tag_183:\n        /* \"#utility.yul\":3152:3155   */\n      dup3\n        /* \"#utility.yul\":3145:3182   */\n      mstore\n        /* \"#utility.yul\":3070:3188   */\n      pop\n      pop\n      jump\t// out\n        /* \"#utility.yul\":3224:3956   */\n    tag_185:\n        /* \"#utility.yul\":3343:3346   */\n      0x00\n        /* \"#utility.yul\":3372:3426   */\n      tag_187\n        /* \"#utility.yul\":3420:3425   */\n      dup3\n        /* \"#utility.yul\":3372:3426   */\n      tag_188\n      jump\t// in\n    tag_187:\n        /* \"#utility.yul\":3442:3528   */\n      tag_189\n        /* \"#utility.yul\":3521:3527   */\n      dup2\n        /* \"#utility.yul\":3516:3519   */\n      dup6\n        /* \"#utility.yul\":3442:3528   */\n      tag_190\n      jump\t// in\n    tag_189:\n        /* \"#utility.yul\":3435:3528   */\n      swap4\n      pop\n        /* \"#utility.yul\":3552:3608   */\n      tag_191\n        /* \"#utility.yul\":3602:3607   */\n      dup4\n        /* \"#utility.yul\":3552:3608   */\n      tag_192\n      jump\t// in\n    tag_191:\n        /* \"#utility.yul\":3631:3638   */\n      dup1\n        /* \"#utility.yul\":3662:3663   */\n      0x00\n        /* \"#utility.yul\":3647:3931   */\n    tag_193:\n        /* \"#utility.yul\":3672:3678   */\n      dup4\n        /* \"#utility.yul\":3669:3670   */\n      dup2\n        /* \"#utility.yul\":3666:3679   */\n      lt\n        /* \"#utility.yul\":3647:3931   */\n      iszero\n      tag_195\n      jumpi\n        /* \"#utility.yul\":3748:3754   */\n      dup2\n        /* \"#utility.yul\":3742:3755   */\n      mload\n        /* \"#utility.yul\":3775:3838   */\n      tag_196\n        /* \"#utility.yul\":3834:3837   */\n      dup9\n        /* \"#utility.yul\":3819:3832   */\n      dup3\n        /* \"#utility.yul\":3775:3838   */\n      tag_177\n      jump\t// in\n    tag_196:\n        /* \"#utility.yul\":3768:3838   */\n      swap8\n      pop\n        /* \"#utility.yul\":3861:3921   */\n      tag_197\n        /* \"#utility.yul\":3914:3920   */\n      dup4\n        /* \"#utility.yul\":3861:3921   */\n      tag_198\n      jump\t// in\n    tag_197:\n        /* \"#utility.yul\":3851:3921   */\n      swap3\n      pop\n        /* \"#utility.yul\":3707:3931   */\n      pop\n        /* \"#utility.yul\":3694:3695   */\n      0x01\n        /* \"#utility.yul\":3691:3692   */\n      dup2\n        /* \"#utility.yul\":3687:3696   */\n      add\n        /* \"#utility.yul\":3682:3696   */\n      swap1\n      pop\n        /* \"#utility.yul\":3647:3931   */\n      jump(tag_193)\n    tag_195:\n        /* \"#utility.yul\":3651:3665   */\n      pop\n        /* \"#utility.yul\":3947:3950   */\n      dup6\n        /* \"#utility.yul\":3940:3950   */\n      swap4\n      pop\n        /* \"#utility.yul\":3348:3956   */\n      pop\n      pop\n      pop\n        /* \"#utility.yul\":3224:3956   */\n      swap3\n      swap2\n      pop\n      pop\n      jump\t// out\n        /* \"#utility.yul\":3962:4326   */\n    tag_199:\n        /* \"#utility.yul\":4050:4053   */\n      0x00\n        /* \"#utility.yul\":4078:4117   */\n      tag_201\n        /* \"#utility.yul\":4111:4116   */\n      dup3\n        /* \"#utility.yul\":4078:4117   */\n      tag_202\n      jump\t// in\n    tag_201:\n        /* \"#utility.yul\":4133:4204   */\n      tag_203\n        /* \"#utility.yul\":4197:4203   */\n      dup2\n        /* \"#utility.yul\":4192:4195   */\n      dup6\n        /* \"#utility.yul\":4133:4204   */\n      tag_204\n      jump\t// in\n    tag_203:\n        /* \"#utility.yul\":4126:4204   */\n      swap4\n      pop\n        /* \"#utility.yul\":4213:4265   */\n      tag_205\n        /* \"#utility.yul\":4258:4264   */\n      dup2\n        /* \"#utility.yul\":4253:4256   */\n      dup6\n        /* \"#utility.yul\":4246:4250   */\n      0x20\n        /* \"#utility.yul\":4239:4244   */\n      dup7\n        /* \"#utility.yul\":4235:4251   */\n      add\n        /* \"#utility.yul\":4213:4265   */\n      tag_206\n      jump\t// in\n    tag_205:\n        /* \"#utility.yul\":4290:4319   */\n      tag_207\n        /* \"#utility.yul\":4312:4318   */\n      dup2\n        /* \"#utility.yul\":4290:4319   */\n      tag_208\n      jump\t// in\n    tag_207:\n        /* \"#utility.yul\":4285:4288   */\n      dup5\n        /* \"#utility.yul\":4281:4320   */\n      add\n        /* \"#utility.yul\":4274:4320   */\n      swap2\n      pop\n        /* \"#utility.yul\":4054:4326   */\n      pop\n        /* \"#utility.yul\":3962:4326   */\n      swap3\n      swap2\n      pop\n      pop\n      jump\t// out\n        /* \"#utility.yul\":4332:4698   */\n    tag_209:\n        /* \"#utility.yul\":4474:4477   */\n      0x00\n        /* \"#utility.yul\":4495:4562   */\n      tag_211\n        /* \"#utility.yul\":4559:4561   */\n      0x24\n        /* \"#utility.yul\":4554:4557   */\n      dup4\n        /* \"#utility.yul\":4495:4562   */\n      tag_204\n      jump\t// in\n    tag_211:\n        /* \"#utility.yul\":4488:4562   */\n      swap2\n      pop\n        /* \"#utility.yul\":4571:4664   */\n      tag_212\n        /* \"#utility.yul\":4660:4663   */\n      dup3\n        /* \"#utility.yul\":4571:4664   */\n      tag_213\n      jump\t// in\n    tag_212:\n        /* \"#utility.yul\":4689:4691   */\n      0x40\n        /* \"#utility.yul\":4684:4687   */\n      dup3\n        /* \"#utility.yul\":4680:4692   */\n      add\n        /* \"#utility.yul\":4673:4692   */\n      swap1\n      pop\n        /* \"#utility.yul\":4332:4698   */\n      swap2\n      swap1\n      pop\n      jump\t// out\n        /* \"#utility.yul\":4704:5070   */\n    tag_214:\n        /* \"#utility.yul\":4846:4849   */\n      0x00\n        /* \"#utility.yul\":4867:4934   */\n      tag_216\n        /* \"#utility.yul\":4931:4933   */\n      0x13\n        /* \"#utility.yul\":4926:4929   */\n      dup4\n        /* \"#utility.yul\":4867:4934   */\n      tag_204\n      jump\t// in\n    tag_216:\n        /* \"#utility.yul\":4860:4934   */\n      swap2\n      pop\n        /* \"#utility.yul\":4943:5036   */\n      tag_217\n        /* \"#utility.yul\":5032:5035   */\n      dup3\n        /* \"#utility.yul\":4943:5036   */\n      tag_218\n      jump\t// in\n    tag_217:\n        /* \"#utility.yul\":5061:5063   */\n      0x20\n        /* \"#utility.yul\":5056:5059   */\n      dup3\n        /* \"#utility.yul\":5052:5064   */\n      add\n        /* \"#utility.yul\":5045:5064   */\n      swap1\n      pop\n        /* \"#utility.yul\":4704:5070   */\n      swap2\n      swap1\n      pop\n      jump\t// out\n        /* \"#utility.yul\":5076:5442   */\n    tag_219:\n        /* \"#utility.yul\":5218:5221   */\n      0x00\n        /* \"#utility.yul\":5239:5306   */\n      tag_221\n        /* \"#utility.yul\":5303:5305   */\n      0x13\n        /* \"#utility.yul\":5298:5301   */\n      dup4\n        /* \"#utility.yul\":5239:5306   */\n      tag_204\n      jump\t// in\n    tag_221:\n        /* \"#utility.yul\":5232:5306   */\n      swap2\n      pop\n        /* \"#utility.yul\":5315:5408   */\n      tag_222\n        /* \"#utility.yul\":5404:5407   */\n      dup3\n        /* \"#utility.yul\":5315:5408   */\n      tag_223\n      jump\t// in\n    tag_222:\n        /* \"#utility.yul\":5433:5435   */\n      0x20\n        /* \"#utility.yul\":5428:5431   */\n      dup3\n        /* \"#utility.yul\":5424:5436   */\n      add\n        /* \"#utility.yul\":5417:5436   */\n      swap1\n      pop\n        /* \"#utility.yul\":5076:5442   */\n      swap2\n      swap1\n      pop\n      jump\t// out\n        /* \"#utility.yul\":5448:5814   */\n    tag_224:\n        /* \"#utility.yul\":5590:5593   */\n      0x00\n        /* \"#utility.yul\":5611:5678   */\n      tag_226\n        /* \"#utility.yul\":5675:5677   */\n      0x17\n        /* \"#utility.yul\":5670:5673   */\n      dup4\n        /* \"#utility.yul\":5611:5678   */\n      tag_204\n      jump\t// in\n    tag_226:\n        /* \"#utility.yul\":5604:5678   */\n      swap2\n      pop\n        /* \"#utility.yul\":5687:5780   */\n      tag_227\n        /* \"#utility.yul\":5776:5779   */\n      dup3\n        /* \"#utility.yul\":5687:5780   */\n      tag_228\n      jump\t// in\n    tag_227:\n        /* \"#utility.yul\":5805:5807   */\n      0x20\n        /* \"#utility.yul\":5800:5803   */\n      dup3\n        /* \"#utility.yul\":5796:5808   */\n      add\n        /* \"#utility.yul\":5789:5808   */\n      swap1\n      pop\n        /* \"#utility.yul\":5448:5814   */\n      swap2\n      swap1\n      pop\n      jump\t// out\n        /* \"#utility.yul\":5820:6186   */\n    tag_229:\n        /* \"#utility.yul\":5962:5965   */\n      0x00\n        /* \"#utility.yul\":5983:6050   */\n      tag_231\n        /* \"#utility.yul\":6047:6049   */\n      0x18\n        /* \"#utility.yul\":6042:6045   */\n      dup4\n        /* \"#utility.yul\":5983:6050   */\n      tag_204\n      jump\t// in\n    tag_231:\n        /* \"#utility.yul\":5976:6050   */\n      swap2\n      pop\n        /* \"#utility.yul\":6059:6152   */\n      tag_232\n        /* \"#utility.yul\":6148:6151   */\n      dup3\n        /* \"#utility.yul\":6059:6152   */\n      tag_233\n      jump\t// in\n    tag_232:\n        /* \"#utility.yul\":6177:6179   */\n      0x20\n        /* \"#utility.yul\":6172:6175   */\n      dup3\n        /* \"#utility.yul\":6168:6180   */\n      add\n        /* \"#utility.yul\":6161:6180   */\n      swap1\n      pop\n        /* \"#utility.yul\":5820:6186   */\n      swap2\n      swap1\n      pop\n      jump\t// out\n        /* \"#utility.yul\":6192:6558   */\n    tag_234:\n        /* \"#utility.yul\":6334:6337   */\n      0x00\n        /* \"#utility.yul\":6355:6422   */\n      tag_236\n        /* \"#utility.yul\":6419:6421   */\n      0x18\n        /* \"#utility.yul\":6414:6417   */\n      dup4\n        /* \"#utility.yul\":6355:6422   */\n      tag_204\n      jump\t// in\n    tag_236:\n        /* \"#utility.yul\":6348:6422   */\n      swap2\n      pop\n        /* \"#utility.yul\":6431:6524   */\n      tag_237\n        /* \"#utility.yul\":6520:6523   */\n      dup3\n        /* \"#utility.yul\":6431:6524   */\n      tag_238\n      jump\t// in\n    tag_237:\n        /* \"#utility.yul\":6549:6551   */\n      0x20\n        /* \"#utility.yul\":6544:6547   */\n      dup3\n        /* \"#utility.yul\":6540:6552   */\n      add\n        /* \"#utility.yul\":6533:6552   */\n      swap1\n      pop\n        /* \"#utility.yul\":6192:6558   */\n      swap2\n      swap1\n      pop\n      jump\t// out\n        /* \"#utility.yul\":6564:6672   */\n    tag_180:\n        /* \"#utility.yul\":6641:6665   */\n      tag_240\n        /* \"#utility.yul\":6659:6664   */\n      dup2\n        /* \"#utility.yul\":6641:6665   */\n      tag_241\n      jump\t// in\n    tag_240:\n        /* \"#utility.yul\":6636:6639   */\n      dup3\n        /* \"#utility.yul\":6629:6666   */\n      mstore\n        /* \"#utility.yul\":6564:6672   */\n      pop\n      pop\n      jump\t// out\n        /* \"#utility.yul\":6678:6796   */\n    tag_242:\n        /* \"#utility.yul\":6765:6789   */\n      tag_244\n        /* \"#utility.yul\":6783:6788   */\n      dup2\n        /* \"#utility.yul\":6765:6789   */\n      tag_241\n      jump\t// in\n    tag_244:\n        /* \"#utility.yul\":6760:6763   */\n      dup3\n        /* \"#utility.yul\":6753:6790   */\n      mstore\n        /* \"#utility.yul\":6678:6796   */\n      pop\n      pop\n      jump\t// out\n        /* \"#utility.yul\":6802:7024   */\n    tag_31:\n        /* \"#utility.yul\":6895:6899   */\n      0x00\n        /* \"#utility.yul\":6933:6935   */\n      0x20\n        /* \"#utility.yul\":6922:6931   */\n      dup3\n        /* \"#utility.yul\":6918:6936   */\n      add\n        /* \"#utility.yul\":6910:6936   */\n      swap1\n      pop\n        /* \"#utility.yul\":6946:7017   */\n      tag_246\n        /* \"#utility.yul\":7014:7015   */\n      0x00\n        /* \"#utility.yul\":7003:7012   */\n      dup4\n        /* \"#utility.yul\":6999:7016   */\n      add\n        /* \"#utility.yul\":6990:6996   */\n      dup5\n        /* \"#utility.yul\":6946:7017   */\n      tag_181\n      jump\t// in\n    tag_246:\n        /* \"#utility.yul\":6802:7024   */\n      swap3\n      swap2\n      pop\n      pop\n      jump\t// out\n        /* \"#utility.yul\":7030:7403   */\n    tag_25:\n        /* \"#utility.yul\":7173:7177   */\n      0x00\n        /* \"#utility.yul\":7211:7213   */\n      0x20\n        /* \"#utility.yul\":7200:7209   */\n      dup3\n        /* \"#utility.yul\":7196:7214   */\n      add\n        /* \"#utility.yul\":7188:7214   */\n      swap1\n      pop\n        /* \"#utility.yul\":7260:7269   */\n      dup2\n        /* \"#utility.yul\":7254:7258   */\n      dup2\n        /* \"#utility.yul\":7250:7270   */\n      sub\n        /* \"#utility.yul\":7246:7247   */\n      0x00\n        /* \"#utility.yul\":7235:7244   */\n      dup4\n        /* \"#utility.yul\":7231:7248   */\n      add\n        /* \"#utility.yul\":7224:7271   */\n      mstore\n        /* \"#utility.yul\":7288:7396   */\n      tag_248\n        /* \"#utility.yul\":7391:7395   */\n      dup2\n        /* \"#utility.yul\":7382:7388   */\n      dup5\n        /* \"#utility.yul\":7288:7396   */\n      tag_185\n      jump\t// in\n    tag_248:\n        /* \"#utility.yul\":7280:7396   */\n      swap1\n      pop\n        /* \"#utility.yul\":7030:7403   */\n      swap3\n      swap2\n      pop\n      pop\n      jump\t// out\n        /* \"#utility.yul\":7409:7722   */\n    tag_15:\n        /* \"#utility.yul\":7522:7526   */\n      0x00\n        /* \"#utility.yul\":7560:7562   */\n      0x20\n        /* \"#utility.yul\":7549:7558   */\n      dup3\n        /* \"#utility.yul\":7545:7563   */\n      add\n        /* \"#utility.yul\":7537:7563   */\n      swap1\n      pop\n        /* \"#utility.yul\":7609:7618   */\n      dup2\n        /* \"#utility.yul\":7603:7607   */\n      dup2\n        /* \"#utility.yul\":7599:7619   */\n      sub\n        /* \"#utility.yul\":7595:7596   */\n      0x00\n        /* \"#utility.yul\":7584:7593   */\n      dup4\n        /* \"#utility.yul\":7580:7597   */\n      add\n        /* \"#utility.yul\":7573:7620   */\n      mstore\n        /* \"#utility.yul\":7637:7715   */\n      tag_250\n        /* \"#utility.yul\":7710:7714   */\n      dup2\n        /* \"#utility.yul\":7701:7707   */\n      dup5\n        /* \"#utility.yul\":7637:7715   */\n      tag_199\n      jump\t// in\n    tag_250:\n        /* \"#utility.yul\":7629:7715   */\n      swap1\n      pop\n        /* \"#utility.yul\":7409:7722   */\n      swap3\n      swap2\n      pop\n      pop\n      jump\t// out\n        /* \"#utility.yul\":7728:8147   */\n    tag_61:\n        /* \"#utility.yul\":7894:7898   */\n      0x00\n        /* \"#utility.yul\":7932:7934   */\n      0x20\n        /* \"#utility.yul\":7921:7930   */\n      dup3\n        /* \"#utility.yul\":7917:7935   */\n      add\n        /* \"#utility.yul\":7909:7935   */\n      swap1\n      pop\n        /* \"#utility.yul\":7981:7990   */\n      dup2\n        /* \"#utility.yul\":7975:7979   */\n      dup2\n        /* \"#utility.yul\":7971:7991   */\n      sub\n        /* \"#utility.yul\":7967:7968   */\n      0x00\n        /* \"#utility.yul\":7956:7965   */\n      dup4\n        /* \"#utility.yul\":7952:7969   */\n      add\n        /* \"#utility.yul\":7945:7992   */\n      mstore\n        /* \"#utility.yul\":8009:8140   */\n      tag_252\n        /* \"#utility.yul\":8135:8139   */\n      dup2\n        /* \"#utility.yul\":8009:8140   */\n      tag_209\n      jump\t// in\n    tag_252:\n        /* \"#utility.yul\":8001:8140   */\n      swap1\n      pop\n        /* \"#utility.yul\":7728:8147   */\n      swap2\n      swap1\n      pop\n      jump\t// out\n        /* \"#utility.yul\":8153:8572   */\n    tag_109:\n        /* \"#utility.yul\":8319:8323   */\n      0x00\n        /* \"#utility.yul\":8357:8359   */\n      0x20\n        /* \"#utility.yul\":8346:8355   */\n      dup3\n        /* \"#utility.yul\":8342:8360   */\n      add\n        /* \"#utility.yul\":8334:8360   */\n      swap1\n      pop\n        /* \"#utility.yul\":8406:8415   */\n      dup2\n        /* \"#utility.yul\":8400:8404   */\n      dup2\n        /* \"#utility.yul\":8396:8416   */\n      sub\n        /* \"#utility.yul\":8392:8393   */\n      0x00\n        /* \"#utility.yul\":8381:8390   */\n      dup4\n        /* \"#utility.yul\":8377:8394   */\n      add\n        /* \"#utility.yul\":8370:8417   */\n      mstore\n        /* \"#utility.yul\":8434:8565   */\n      tag_254\n        /* \"#utility.yul\":8560:8564   */\n      dup2\n        /* \"#utility.yul\":8434:8565   */\n      tag_214\n      jump\t// in\n    tag_254:\n        /* \"#utility.yul\":8426:8565   */\n      swap1\n      pop\n        /* \"#utility.yul\":8153:8572   */\n      swap2\n      swap1\n      pop\n      jump\t// out\n        /* \"#utility.yul\":8578:8997   */\n    tag_116:\n        /* \"#utility.yul\":8744:8748   */\n      0x00\n        /* \"#utility.yul\":8782:8784   */\n      0x20\n        /* \"#utility.yul\":8771:8780   */\n      dup3\n        /* \"#utility.yul\":8767:8785   */\n      add\n        /* \"#utility.yul\":8759:8785   */\n      swap1\n      pop\n        /* \"#utility.yul\":8831:8840   */\n      dup2\n        /* \"#utility.yul\":8825:8829   */\n      dup2\n        /* \"#utility.yul\":8821:8841   */\n      sub\n        /* \"#utility.yul\":8817:8818   */\n      0x00\n        /* \"#utility.yul\":8806:8815   */\n      dup4\n        /* \"#utility.yul\":8802:8819   */\n      add\n        /* \"#utility.yul\":8795:8842   */\n      mstore\n        /* \"#utility.yul\":8859:8990   */\n      tag_256\n        /* \"#utility.yul\":8985:8989   */\n      dup2\n        /* \"#utility.yul\":8859:8990   */\n      tag_219\n      jump\t// in\n    tag_256:\n        /* \"#utility.yul\":8851:8990   */\n      swap1\n      pop\n        /* \"#utility.yul\":8578:8997   */\n      swap2\n      swap1\n      pop\n      jump\t// out\n        /* \"#utility.yul\":9003:9422   */\n    tag_58:\n        /* \"#utility.yul\":9169:9173   */\n      0x00\n        /* \"#utility.yul\":9207:9209   */\n      0x20\n        /* \"#utility.yul\":9196:9205   */\n      dup3\n        /* \"#utility.yul\":9192:9210   */\n      add\n        /* \"#utility.yul\":9184:9210   */\n      swap1\n      pop\n        /* \"#utility.yul\":9256:9265   */\n      dup2\n        /* \"#utility.yul\":9250:9254   */\n      dup2\n        /* \"#utility.yul\":9246:9266   */\n      sub\n        /* \"#utility.yul\":9242:9243   */\n      0x00\n        /* \"#utility.yul\":9231:9240   */\n      dup4\n        /* \"#utility.yul\":9227:9244   */\n      add\n        /* \"#utility.yul\":9220:9267   */\n      mstore\n        /* \"#utility.yul\":9284:9415   */\n      tag_258\n        /* \"#utility.yul\":9410:9414   */\n      dup2\n        /* \"#utility.yul\":9284:9415   */\n      tag_224\n      jump\t// in\n    tag_258:\n        /* \"#utility.yul\":9276:9415   */\n      swap1\n      pop\n        /* \"#utility.yul\":9003:9422   */\n      swap2\n      swap1\n      pop\n      jump\t// out\n        /* \"#utility.yul\":9428:9847   */\n    tag_82:\n        /* \"#utility.yul\":9594:9598   */\n      0x00\n        /* \"#utility.yul\":9632:9634   */\n      0x20\n        /* \"#utility.yul\":9621:9630   */\n      dup3\n        /* \"#utility.yul\":9617:9635   */\n      add\n        /* \"#utility.yul\":9609:9635   */\n      swap1\n      pop\n        /* \"#utility.yul\":9681:9690   */\n      dup2\n        /* \"#utility.yul\":9675:9679   */\n      dup2\n        /* \"#utility.yul\":9671:9691   */\n      sub\n        /* \"#utility.yul\":9667:9668   */\n      0x00\n        /* \"#utility.yul\":9656:9665   */\n      dup4\n        /* \"#utility.yul\":9652:9669   */\n      add\n        /* \"#utility.yul\":9645:9692   */\n      mstore\n        /* \"#utility.yul\":9709:9840   */\n      tag_260\n        /* \"#utility.yul\":9835:9839   */\n      dup2\n        /* \"#utility.yul\":9709:9840   */\n      tag_229\n      jump\t// in\n    tag_260:\n        /* \"#utility.yul\":9701:9840   */\n      swap1\n      pop\n        /* \"#utility.yul\":9428:9847   */\n      swap2\n      swap1\n      pop\n      jump\t// out\n        /* \"#utility.yul\":9853:10272   */\n    tag_112:\n        /* \"#utility.yul\":10019:10023   */\n      0x00\n        /* \"#utility.yul\":10057:10059   */\n      0x20\n        /* \"#utility.yul\":10046:10055   */\n      dup3\n        /* \"#utility.yul\":10042:10060   */\n      add\n        /* \"#utility.yul\":10034:10060   */\n      swap1\n      pop\n        /* \"#utility.yul\":10106:10115   */\n      dup2\n        /* \"#utility.yul\":10100:10104   */\n      dup2\n        /* \"#utility.yul\":10096:10116   */\n      sub\n        /* \"#utility.yul\":10092:10093   */\n      0x00\n        /* \"#utility.yul\":10081:10090   */\n      dup4\n        /* \"#utility.yul\":10077:10094   */\n      add\n        /* \"#utility.yul\":10070:10117   */\n      mstore\n        /* \"#utility.yul\":10134:10265   */\n      tag_262\n        /* \"#utility.yul\":10260:10264   */\n      dup2\n        /* \"#utility.yul\":10134:10265   */\n      tag_234\n      jump\t// in\n    tag_262:\n        /* \"#utility.yul\":10126:10265   */\n      swap1\n      pop\n        /* \"#utility.yul\":9853:10272   */\n      swap2\n      swap1\n      pop\n      jump\t// out\n        /* \"#utility.yul\":10278:10500   */\n    tag_36:\n        /* \"#utility.yul\":10371:10375   */\n      0x00\n        /* \"#utility.yul\":10409:10411   */\n      0x20\n        /* \"#utility.yul\":10398:10407   */\n      dup3\n        /* \"#utility.yul\":10394:10412   */\n      add\n        /* \"#utility.yul\":10386:10412   */\n      swap1\n      pop\n        /* \"#utility.yul\":10422:10493   */\n      tag_264\n        /* \"#utility.yul\":10490:10491   */\n      0x00\n        /* \"#utility.yul\":10479:10488   */\n      dup4\n        /* \"#utility.yul\":10475:10492   */\n      add\n        /* \"#utility.yul\":10466:10472   */\n      dup5\n        /* \"#utility.yul\":10422:10493   */\n      tag_242\n      jump\t// in\n    tag_264:\n        /* \"#utility.yul\":10278:10500   */\n      swap3\n      swap2\n      pop\n      pop\n      jump\t// out\n        /* \"#utility.yul\":10506:10635   */\n    tag_135:\n        /* \"#utility.yul\":10540:10546   */\n      0x00\n        /* \"#utility.yul\":10567:10587   */\n      tag_266\n      tag_267\n      jump\t// in\n    tag_266:\n        /* \"#utility.yul\":10557:10587   */\n      swap1\n      pop\n        /* \"#utility.yul\":10596:10629   */\n      tag_268\n        /* \"#utility.yul\":10624:10628   */\n      dup3\n        /* \"#utility.yul\":10616:10622   */\n      dup3\n        /* \"#utility.yul\":10596:10629   */\n      tag_269\n      jump\t// in\n    tag_268:\n        /* \"#utility.yul\":10506:10635   */\n      swap2\n      swap1\n      pop\n      jump\t// out\n        /* \"#utility.yul\":10641:10716   */\n    tag_267:\n        /* \"#utility.yul\":10674:10680   */\n      0x00\n        /* \"#utility.yul\":10707:10709   */\n      0x40\n        /* \"#utility.yul\":10701:10710   */\n      mload\n        /* \"#utility.yul\":10691:10710   */\n      swap1\n      pop\n        /* \"#utility.yul\":10641:10716   */\n      swap1\n      jump\t// out\n        /* \"#utility.yul\":10722:11030   */\n    tag_134:\n        /* \"#utility.yul\":10784:10788   */\n      0x00\n        /* \"#utility.yul\":10874:10892   */\n      0xffffffffffffffff\n        /* \"#utility.yul\":10866:10872   */\n      dup3\n        /* \"#utility.yul\":10863:10893   */\n      gt\n        /* \"#utility.yul\":10860:10916   */\n      iszero\n      tag_272\n      jumpi\n        /* \"#utility.yul\":10896:10914   */\n      tag_273\n      tag_65\n      jump\t// in\n    tag_273:\n        /* \"#utility.yul\":10860:10916   */\n    tag_272:\n        /* \"#utility.yul\":10934:10963   */\n      tag_274\n        /* \"#utility.yul\":10956:10962   */\n      dup3\n        /* \"#utility.yul\":10934:10963   */\n      tag_208\n      jump\t// in\n    tag_274:\n        /* \"#utility.yul\":10926:10963   */\n      swap1\n      pop\n        /* \"#utility.yul\":11018:11022   */\n      0x20\n        /* \"#utility.yul\":11012:11016   */\n      dup2\n        /* \"#utility.yul\":11008:11023   */\n      add\n        /* \"#utility.yul\":11000:11023   */\n      swap1\n      pop\n        /* \"#utility.yul\":10722:11030   */\n      swap2\n      swap1\n      pop\n      jump\t// out\n        /* \"#utility.yul\":11036:11168   */\n    tag_192:\n        /* \"#utility.yul\":11103:11107   */\n      0x00\n        /* \"#utility.yul\":11126:11129   */\n      dup2\n        /* \"#utility.yul\":11118:11129   */\n      swap1\n      pop\n        /* \"#utility.yul\":11156:11160   */\n      0x20\n        /* \"#utility.yul\":11151:11154   */\n      dup3\n        /* \"#utility.yul\":11147:11161   */\n      add\n        /* \"#utility.yul\":11139:11161   */\n      swap1\n      pop\n        /* \"#utility.yul\":11036:11168   */\n      swap2\n      swap1\n      pop\n      jump\t// out\n        /* \"#utility.yul\":11174:11288   */\n    tag_188:\n        /* \"#utility.yul\":11241:11247   */\n      0x00\n        /* \"#utility.yul\":11275:11280   */\n      dup2\n        /* \"#utility.yul\":11269:11281   */\n      mload\n        /* \"#utility.yul\":11259:11281   */\n      swap1\n      pop\n        /* \"#utility.yul\":11174:11288   */\n      swap2\n      swap1\n      pop\n      jump\t// out\n        /* \"#utility.yul\":11294:11393   */\n    tag_202:\n        /* \"#utility.yul\":11346:11352   */\n      0x00\n        /* \"#utility.yul\":11380:11385   */\n      dup2\n        /* \"#utility.yul\":11374:11386   */\n      mload\n        /* \"#utility.yul\":11364:11386   */\n      swap1\n      pop\n        /* \"#utility.yul\":11294:11393   */\n      swap2\n      swap1\n      pop\n      jump\t// out\n        /* \"#utility.yul\":11399:11512   */\n    tag_198:\n        /* \"#utility.yul\":11469:11473   */\n      0x00\n        /* \"#utility.yul\":11501:11505   */\n      0x20\n        /* \"#utility.yul\":11496:11499   */\n      dup3\n        /* \"#utility.yul\":11492:11506   */\n      add\n        /* \"#utility.yul\":11484:11506   */\n      swap1\n      pop\n        /* \"#utility.yul\":11399:11512   */\n      swap2\n      swap1\n      pop\n      jump\t// out\n        /* \"#utility.yul\":11518:11702   */\n    tag_190:\n        /* \"#utility.yul\":11617:11628   */\n      0x00\n        /* \"#utility.yul\":11651:11657   */\n      dup3\n        /* \"#utility.yul\":11646:11649   */\n      dup3\n        /* \"#utility.yul\":11639:11658   */\n      mstore\n        /* \"#utility.yul\":11691:11695   */\n      0x20\n        /* \"#utility.yul\":11686:11689   */\n      dup3\n        /* \"#utility.yul\":11682:11696   */\n      add\n        /* \"#utility.yul\":11667:11696   */\n      swap1\n      pop\n        /* \"#utility.yul\":11518:11702   */\n      swap3\n      swap2\n      pop\n      pop\n      jump\t// out\n        /* \"#utility.yul\":11708:11877   */\n    tag_204:\n        /* \"#utility.yul\":11792:11803   */\n      0x00\n        /* \"#utility.yul\":11826:11832   */\n      dup3\n        /* \"#utility.yul\":11821:11824   */\n      dup3\n        /* \"#utility.yul\":11814:11833   */\n      mstore\n        /* \"#utility.yul\":11866:11870   */\n      0x20\n        /* \"#utility.yul\":11861:11864   */\n      dup3\n        /* \"#utility.yul\":11857:11871   */\n      add\n        /* \"#utility.yul\":11842:11871   */\n      swap1\n      pop\n        /* \"#utility.yul\":11708:11877   */\n      swap3\n      swap2\n      pop\n      pop\n      jump\t// out\n        /* \"#utility.yul\":11883:11979   */\n    tag_184:\n        /* \"#utility.yul\":11920:11927   */\n      0x00\n        /* \"#utility.yul\":11949:11973   */\n      tag_282\n        /* \"#utility.yul\":11967:11972   */\n      dup3\n        /* \"#utility.yul\":11949:11973   */\n      tag_283\n      jump\t// in\n    tag_282:\n        /* \"#utility.yul\":11938:11973   */\n      swap1\n      pop\n        /* \"#utility.yul\":11883:11979   */\n      swap2\n      swap1\n      pop\n      jump\t// out\n        /* \"#utility.yul\":11985:12111   */\n    tag_283:\n        /* \"#utility.yul\":12022:12029   */\n      0x00\n        /* \"#utility.yul\":12062:12104   */\n      0xffffffffffffffffffffffffffffffffffffffff\n        /* \"#utility.yul\":12055:12060   */\n      dup3\n        /* \"#utility.yul\":12051:12105   */\n      and\n        /* \"#utility.yul\":12040:12105   */\n      swap1\n      pop\n        /* \"#utility.yul\":11985:12111   */\n      swap2\n      swap1\n      pop\n      jump\t// out\n        /* \"#utility.yul\":12117:12194   */\n    tag_241:\n        /* \"#utility.yul\":12154:12161   */\n      0x00\n        /* \"#utility.yul\":12183:12188   */\n      dup2\n        /* \"#utility.yul\":12172:12188   */\n      swap1\n      pop\n        /* \"#utility.yul\":12117:12194   */\n      swap2\n      swap1\n      pop\n      jump\t// out\n        /* \"#utility.yul\":12200:12354   */\n    tag_140:\n        /* \"#utility.yul\":12284:12290   */\n      dup3\n        /* \"#utility.yul\":12279:12282   */\n      dup2\n        /* \"#utility.yul\":12274:12277   */\n      dup4\n        /* \"#utility.yul\":12261:12291   */\n      calldatacopy\n        /* \"#utility.yul\":12346:12347   */\n      0x00\n        /* \"#utility.yul\":12337:12343   */\n      dup4\n        /* \"#utility.yul\":12332:12335   */\n      dup4\n        /* \"#utility.yul\":12328:12344   */\n      add\n        /* \"#utility.yul\":12321:12348   */\n      mstore\n        /* \"#utility.yul\":12200:12354   */\n      pop\n      pop\n      pop\n      jump\t// out\n        /* \"#utility.yul\":12360:12667   */\n    tag_206:\n        /* \"#utility.yul\":12428:12429   */\n      0x00\n        /* \"#utility.yul\":12438:12551   */\n    tag_288:\n        /* \"#utility.yul\":12452:12458   */\n      dup4\n        /* \"#utility.yul\":12449:12450   */\n      dup2\n        /* \"#utility.yul\":12446:12459   */\n      lt\n        /* \"#utility.yul\":12438:12551   */\n      iszero\n      tag_290\n      jumpi\n        /* \"#utility.yul\":12537:12538   */\n      dup1\n        /* \"#utility.yul\":12532:12535   */\n      dup3\n        /* \"#utility.yul\":12528:12539   */\n      add\n        /* \"#utility.yul\":12522:12540   */\n      mload\n        /* \"#utility.yul\":12518:12519   */\n      dup2\n        /* \"#utility.yul\":12513:12516   */\n      dup5\n        /* \"#utility.yul\":12509:12520   */\n      add\n        /* \"#utility.yul\":12502:12541   */\n      mstore\n        /* \"#utility.yul\":12474:12476   */\n      0x20\n        /* \"#utility.yul\":12471:12472   */\n      dup2\n        /* \"#utility.yul\":12467:12477   */\n      add\n        /* \"#utility.yul\":12462:12477   */\n      swap1\n      pop\n        /* \"#utility.yul\":12438:12551   */\n      jump(tag_288)\n    tag_290:\n        /* \"#utility.yul\":12569:12575   */\n      dup4\n        /* \"#utility.yul\":12566:12567   */\n      dup2\n        /* \"#utility.yul\":12563:12576   */\n      gt\n        /* \"#utility.yul\":12560:12661   */\n      iszero\n      tag_291\n      jumpi\n        /* \"#utility.yul\":12649:12650   */\n      0x00\n        /* \"#utility.yul\":12640:12646   */\n      dup5\n        /* \"#utility.yul\":12635:12638   */\n      dup5\n        /* \"#utility.yul\":12631:12647   */\n      add\n        /* \"#utility.yul\":12624:12651   */\n      mstore\n        /* \"#utility.yul\":12560:12661   */\n    tag_291:\n        /* \"#utility.yul\":12409:12667   */\n      pop\n        /* \"#utility.yul\":12360:12667   */\n      pop\n      pop\n      pop\n      jump\t// out\n        /* \"#utility.yul\":12673:12993   */\n    tag_50:\n        /* \"#utility.yul\":12717:12723   */\n      0x00\n        /* \"#utility.yul\":12754:12755   */\n      0x02\n        /* \"#utility.yul\":12748:12752   */\n      dup3\n        /* \"#utility.yul\":12744:12756   */\n      div\n        /* \"#utility.yul\":12734:12756   */\n      swap1\n      pop\n        /* \"#utility.yul\":12801:12802   */\n      0x01\n        /* \"#utility.yul\":12795:12799   */\n      dup3\n        /* \"#utility.yul\":12791:12803   */\n      and\n        /* \"#utility.yul\":12822:12840   */\n      dup1\n        /* \"#utility.yul\":12812:12893   */\n      tag_293\n      jumpi\n        /* \"#utility.yul\":12878:12882   */\n      0x7f\n        /* \"#utility.yul\":12870:12876   */\n      dup3\n        /* \"#utility.yul\":12866:12883   */\n      and\n        /* \"#utility.yul\":12856:12883   */\n      swap2\n      pop\n        /* \"#utility.yul\":12812:12893   */\n    tag_293:\n        /* \"#utility.yul\":12940:12942   */\n      0x20\n        /* \"#utility.yul\":12932:12938   */\n      dup3\n        /* \"#utility.yul\":12929:12943   */\n      lt\n        /* \"#utility.yul\":12909:12927   */\n      dup2\n        /* \"#utility.yul\":12906:12944   */\n      eq\n        /* \"#utility.yul\":12903:12987   */\n      iszero\n      tag_294\n      jumpi\n        /* \"#utility.yul\":12959:12977   */\n      tag_295\n      tag_296\n      jump\t// in\n    tag_295:\n        /* \"#utility.yul\":12903:12987   */\n    tag_294:\n        /* \"#utility.yul\":12724:12993   */\n      pop\n        /* \"#utility.yul\":12673:12993   */\n      swap2\n      swap1\n      pop\n      jump\t// out\n        /* \"#utility.yul\":12999:13280   */\n    tag_269:\n        /* \"#utility.yul\":13082:13109   */\n      tag_298\n        /* \"#utility.yul\":13104:13108   */\n      dup3\n        /* \"#utility.yul\":13082:13109   */\n      tag_208\n      jump\t// in\n    tag_298:\n        /* \"#utility.yul\":13074:13080   */\n      dup2\n        /* \"#utility.yul\":13070:13110   */\n      add\n        /* \"#utility.yul\":13212:13218   */\n      dup2\n        /* \"#utility.yul\":13200:13210   */\n      dup2\n        /* \"#utility.yul\":13197:13219   */\n      lt\n        /* \"#utility.yul\":13176:13194   */\n      0xffffffffffffffff\n        /* \"#utility.yul\":13164:13174   */\n      dup3\n        /* \"#utility.yul\":13161:13195   */\n      gt\n        /* \"#utility.yul\":13158:13220   */\n      or\n        /* \"#utility.yul\":13155:13243   */\n      iszero\n      tag_299\n      jumpi\n        /* \"#utility.yul\":13223:13241   */\n      tag_300\n      tag_65\n      jump\t// in\n    tag_300:\n        /* \"#utility.yul\":13155:13243   */\n    tag_299:\n        /* \"#utility.yul\":13263:13273   */\n      dup1\n        /* \"#utility.yul\":13259:13261   */\n      0x40\n        /* \"#utility.yul\":13252:13274   */\n      mstore\n        /* \"#utility.yul\":13042:13280   */\n      pop\n        /* \"#utility.yul\":12999:13280   */\n      pop\n      pop\n      jump\t// out\n        /* \"#utility.yul\":13286:13519   */\n    tag_77:\n        /* \"#utility.yul\":13325:13328   */\n      0x00\n        /* \"#utility.yul\":13348:13372   */\n      tag_302\n        /* \"#utility.yul\":13366:13371   */\n      dup3\n        /* \"#utility.yul\":13348:13372   */\n      tag_241\n      jump\t// in\n    tag_302:\n        /* \"#utility.yul\":13339:13372   */\n      swap2\n      pop\n        /* \"#utility.yul\":13394:13460   */\n      0xffffffffffffffffffffffffffffffffffffffffffffffffffffffffffffffff\n        /* \"#utility.yul\":13387:13392   */\n      dup3\n        /* \"#utility.yul\":13384:13461   */\n      eq\n        /* \"#utility.yul\":13381:13484   */\n      iszero\n      tag_303\n      jumpi\n        /* \"#utility.yul\":13464:13482   */\n      tag_304\n      tag_305\n      jump\t// in\n    tag_304:\n        /* \"#utility.yul\":13381:13484   */\n    tag_303:\n        /* \"#utility.yul\":13511:13512   */\n      0x01\n        /* \"#utility.yul\":13504:13509   */\n      dup3\n        /* \"#utility.yul\":13500:13513   */\n      add\n        /* \"#utility.yul\":13493:13513   */\n      swap1\n      pop\n        /* \"#utility.yul\":13286:13519   */\n      swap2\n      swap1\n      pop\n      jump\t// out\n        /* \"#utility.yul\":13525:13705   */\n    tag_305:\n        /* \"#utility.yul\":13573:13650   */\n      0x4e487b7100000000000000000000000000000000000000000000000000000000\n        /* \"#utility.yul\":13570:13571   */\n      0x00\n        /* \"#utility.yul\":13563:13651   */\n      mstore\n        /* \"#utility.yul\":13670:13674   */\n      0x11\n        /* \"#utility.yul\":13667:13668   */\n      0x04\n        /* \"#utility.yul\":13660:13675   */\n      mstore\n        /* \"#utility.yul\":13694:13698   */\n      0x24\n        /* \"#utility.yul\":13691:13692   */\n      0x00\n        /* \"#utility.yul\":13684:13699   */\n      revert\n        /* \"#utility.yul\":13711:13891   */\n    tag_296:\n        /* \"#utility.yul\":13759:13836   */\n      0x4e487b7100000000000000000000000000000000000000000000000000000000\n        /* \"#utility.yul\":13756:13757   */\n      0x00\n        /* \"#utility.yul\":13749:13837   */\n      mstore\n        /* \"#utility.yul\":13856:13860   */\n      0x22\n        /* \"#utility.yul\":13853:13854   */\n      0x04\n        /* \"#utility.yul\":13846:13861   */\n      mstore\n        /* \"#utility.yul\":13880:13884   */\n      0x24\n        /* \"#utility.yul\":13877:13878   */\n      0x00\n        /* \"#utility.yul\":13870:13885   */\n      revert\n        /* \"#utility.yul\":13897:14077   */\n    tag_75:\n        /* \"#utility.yul\":13945:14022   */\n      0x4e487b7100000000000000000000000000000000000000000000000000000000\n        /* \"#utility.yul\":13942:13943   */\n      0x00\n        /* \"#utility.yul\":13935:14023   */\n      mstore\n        /* \"#utility.yul\":14042:14046   */\n      0x32\n        /* \"#utility.yul\":14039:14040   */\n      0x04\n        /* \"#utility.yul\":14032:14047   */\n      mstore\n        /* \"#utility.yul\":14066:14070   */\n      0x24\n        /* \"#utility.yul\":14063:14064   */\n      0x00\n        /* \"#utility.yul\":14056:14071   */\n      revert\n        /* \"#utility.yul\":14083:14263   */\n    tag_65:\n        /* \"#utility.yul\":14131:14208   */\n      0x4e487b7100000000000000000000000000000000000000000000000000000000\n        /* \"#utility.yul\":14128:14129   */\n      0x00\n        /* \"#utility.yul\":14121:14209   */\n      mstore\n        /* \"#utility.yul\":14228:14232   */\n      0x41\n        /* \"#utility.yul\":14225:14226   */\n      0x04\n        /* \"#utility.yul\":14218:14233   */\n      mstore\n        /* \"#utility.yul\":14252:14256   */\n      0x24\n        /* \"#utility.yul\":14249:14250   */\n      0x00\n        /* \"#utility.yul\":14242:14257   */\n      revert\n        /* \"#utility.yul\":14269:14386   */\n    tag_149:\n        /* \"#utility.yul\":14378:14379   */\n      0x00\n        /* \"#utility.yul\":14375:14376   */\n      dup1\n        /* \"#utility.yul\":14368:14380   */\n      revert\n        /* \"#utility.yul\":14392:14509   */\n    tag_138:\n        /* \"#utility.yul\":14501:14502   */\n      0x00\n        /* \"#utility.yul\":14498:14499   */\n      dup1\n        /* \"#utility.yul\":14491:14503   */\n      revert\n        /* \"#utility.yul\":14515:14632   */\n    tag_171:\n        /* \"#utility.yul\":14624:14625   */\n      0x00\n        /* \"#utility.yul\":14621:14622   */\n      dup1\n        /* \"#utility.yul\":14614:14626   */\n      revert\n        /* \"#utility.yul\":14638:14755   */\n    tag_158:\n        /* \"#utility.yul\":14747:14748   */\n      0x00\n        /* \"#utility.yul\":14744:14745   */\n      dup1\n        /* \"#utility.yul\":14737:14749   */\n      revert\n        /* \"#utility.yul\":14761:14863   */\n    tag_208:\n        /* \"#utility.yul\":14802:14808   */\n      0x00\n        /* \"#utility.yul\":14853:14855   */\n      0x1f\n        /* \"#utility.yul\":14849:14856   */\n      not\n        /* \"#utility.yul\":14844:14846   */\n      0x1f\n        /* \"#utility.yul\":14837:14842   */\n      dup4\n        /* \"#utility.yul\":14833:14847   */\n      add\n        /* \"#utility.yul\":14829:14857   */\n      and\n        /* \"#utility.yul\":14819:14857   */\n      swap1\n      pop\n        /* \"#utility.yul\":14761:14863   */\n      swap2\n      swap1\n      pop\n      jump\t// out\n        /* \"#utility.yul\":14869:15092   */\n    tag_213:\n        /* \"#utility.yul\":15009:15043   */\n      0x4552433732313a207472616e7366657220746f20746865207a65726f20616464\n        /* \"#utility.yul\":15005:15006   */\n      0x00\n        /* \"#utility.yul\":14997:15003   */\n      dup3\n        /* \"#utility.yul\":14993:15007   */\n      add\n        /* \"#utility.yul\":14986:15044   */\n      mstore\n        /* \"#utility.yul\":15078:15084   */\n      0x7265737300000000000000000000000000000000000000000000000000000000\n        /* \"#utility.yul\":15073:15075   */\n      0x20\n        /* \"#utility.yul\":15065:15071   */\n      dup3\n        /* \"#utility.yul\":15061:15076   */\n      add\n        /* \"#utility.yul\":15054:15085   */\n      mstore\n        /* \"#utility.yul\":14869:15092   */\n      pop\n      jump\t// out\n        /* \"#utility.yul\":15098:15267   */\n    tag_218:\n        /* \"#utility.yul\":15238:15259   */\n      0x746f6b656e20616c726561647920657869737400000000000000000000000000\n        /* \"#utility.yul\":15234:15235   */\n      0x00\n        /* \"#utility.yul\":15226:15232   */\n      dup3\n        /* \"#utility.yul\":15222:15236   */\n      add\n        /* \"#utility.yul\":15215:15260   */\n      mstore\n        /* \"#utility.yul\":15098:15267   */\n      pop\n      jump\t// out\n        /* \"#utility.yul\":15273:15442   */\n    tag_223:\n        /* \"#utility.yul\":15413:15434   */\n      0x746f6b656e20646f65736e277420657869737400000000000000000000000000\n        /* \"#utility.yul\":15409:15410   */\n      0x00\n        /* \"#utility.yul\":15401:15407   */\n      dup3\n        /* \"#utility.yul\":15397:15411   */\n      add\n        /* \"#utility.yul\":15390:15435   */\n      mstore\n        /* \"#utility.yul\":15273:15442   */\n      pop\n      jump\t// out\n        /* \"#utility.yul\":15448:15621   */\n    tag_228:\n        /* \"#utility.yul\":15588:15613   */\n      0x4e6f742063616c6c656420627920746865206f776e6572000000000000000000\n        /* \"#utility.yul\":15584:15585   */\n      0x00\n        /* \"#utility.yul\":15576:15582   */\n      dup3\n        /* \"#utility.yul\":15572:15586   */\n      add\n        /* \"#utility.yul\":15565:15614   */\n      mstore\n        /* \"#utility.yul\":15448:15621   */\n      pop\n      jump\t// out\n        /* \"#utility.yul\":15627:15801   */\n    tag_233:\n        /* \"#utility.yul\":15767:15793   */\n      0x4552433732313a20696e76616c696420746f6b656e2049440000000000000000\n        /* \"#utility.yul\":15763:15764   */\n      0x00\n        /* \"#utility.yul\":15755:15761   */\n      dup3\n        /* \"#utility.yul\":15751:15765   */\n      add\n        /* \"#utility.yul\":15744:15794   */\n      mstore\n        /* \"#utility.yul\":15627:15801   */\n      pop\n      jump\t// out\n        /* \"#utility.yul\":15807:15981   */\n    tag_238:\n        /* \"#utility.yul\":15947:15973   */\n      0x6d696e7420746f20746865207a65726f20616464726573730000000000000000\n        /* \"#utility.yul\":15943:15944   */\n      0x00\n        /* \"#utility.yul\":15935:15941   */\n      dup3\n        /* \"#utility.yul\":15931:15945   */\n      add\n        /* \"#utility.yul\":15924:15974   */\n      mstore\n        /* \"#utility.yul\":15807:15981   */\n      pop\n      jump\t// out\n        /* \"#utility.yul\":15987:16109   */\n    tag_144:\n        /* \"#utility.yul\":16060:16084   */\n      tag_322\n        /* \"#utility.yul\":16078:16083   */\n      dup2\n        /* \"#utility.yul\":16060:16084   */\n      tag_184\n      jump\t// in\n    tag_322:\n        /* \"#utility.yul\":16053:16058   */\n      dup2\n        /* \"#utility.yul\":16050:16085   */\n      eq\n        /* \"#utility.yul\":16040:16103   */\n      tag_323\n      jumpi\n        /* \"#utility.yul\":16099:16100   */\n      0x00\n        /* \"#utility.yul\":16096:16097   */\n      dup1\n        /* \"#utility.yul\":16089:16101   */\n      revert\n        /* \"#utility.yul\":16040:16103   */\n    tag_323:\n        /* \"#utility.yul\":15987:16109   */\n      pop\n      jump\t// out\n        /* \"#utility.yul\":16115:16237   */\n    tag_154:\n        /* \"#utility.yul\":16188:16212   */\n      tag_325\n        /* \"#utility.yul\":16206:16211   */\n      dup2\n        /* \"#utility.yul\":16188:16212   */\n      tag_241\n      jump\t// in\n    tag_325:\n        /* \"#utility.yul\":16181:16186   */\n      dup2\n        /* \"#utility.yul\":16178:16213   */\n      eq\n        /* \"#utility.yul\":16168:16231   */\n      tag_326\n      jumpi\n        /* \"#utility.yul\":16227:16228   */\n      0x00\n        /* \"#utility.yul\":16224:16225   */\n      dup1\n        /* \"#utility.yul\":16217:16229   */\n      revert\n        /* \"#utility.yul\":16168:16231   */\n    tag_326:\n        /* \"#utility.yul\":16115:16237   */\n      pop\n      jump\t// out\n\n    auxdata: 0xa2646970667358221220fb0c82bdc4d6d9117009f8aafdb9dbefdb47090a4470995528c17d32782a879664736f6c63430008070033\n}\n",
				"bytecode": {
					"linkReferences": {},
					"object": "60806040523480156200001157600080fd5b5060405162001a1438038062001a148339818101604052810190620000379190620001fc565b8181816000908051906020019062000051929190620000b7565b5080600190805190602001906200006a929190620000b7565b50505082600860006101000a81548173ffffffffffffffffffffffffffffffffffffffff021916908373ffffffffffffffffffffffffffffffffffffffff16021790555050505062000468565b828054620000c5906200035f565b90600052602060002090601f016020900481019282620000e9576000855562000135565b82601f106200010457805160ff191683800117855562000135565b8280016001018555821562000135579182015b828111156200013457825182559160200191906001019062000117565b5b50905062000144919062000148565b5090565b5b808211156200016357600081600090555060010162000149565b5090565b60006200017e6200017884620002bf565b62000296565b9050828152602081018484840111156200019d576200019c6200042e565b5b620001aa84828562000329565b509392505050565b600081519050620001c3816200044e565b92915050565b600082601f830112620001e157620001e062000429565b5b8151620001f384826020860162000167565b91505092915050565b60008060006060848603121562000218576200021762000438565b5b60006200022886828701620001b2565b935050602084015167ffffffffffffffff8111156200024c576200024b62000433565b5b6200025a86828701620001c9565b925050604084015167ffffffffffffffff8111156200027e576200027d62000433565b5b6200028c86828701620001c9565b9150509250925092565b6000620002a2620002b5565b9050620002b0828262000395565b919050565b6000604051905090565b600067ffffffffffffffff821115620002dd57620002dc620003fa565b5b620002e8826200043d565b9050602081019050919050565b6000620003028262000309565b9050919050565b600073ffffffffffffffffffffffffffffffffffffffff82169050919050565b60005b83811015620003495780820151818401526020810190506200032c565b8381111562000359576000848401525b50505050565b600060028204905060018216806200037857607f821691505b602082108114156200038f576200038e620003cb565b5b50919050565b620003a0826200043d565b810181811067ffffffffffffffff82111715620003c257620003c1620003fa565b5b80604052505050565b7f4e487b7100000000000000000000000000000000000000000000000000000000600052602260045260246000fd5b7f4e487b7100000000000000000000000000000000000000000000000000000000600052604160045260246000fd5b600080fd5b600080fd5b600080fd5b600080fd5b6000601f19601f8301169050919050565b6200045981620002f5565b81146200046557600080fd5b50565b61159c80620004786000396000f3fe608060405234801561001057600080fd5b50600436106100885760003560e01c806370a082311161005b57806370a082311461012757806395d89b4114610157578063bf59b34714610175578063d85d3d27146101a557610088565b806306fdde031461008d57806323b872dd146100ab578063438b6300146100c75780636352211e146100f7575b600080fd5b6100956101c1565b6040516100a29190611069565b60405180910390f35b6100c560048036038101906100c09190610db5565b610253565b005b6100e160048036038101906100dc9190610d88565b6104b5565b6040516100ee9190611047565b60405180910390f35b610111600480360381019061010c9190610e51565b61060f565b60405161011e919061102c565b60405180910390f35b610141600480360381019061013c9190610d88565b6106c1565b60405161014e919061114b565b60405180910390f35b61015f61070a565b60405161016c9190611069565b60405180910390f35b61018f600480360381019061018a9190610e51565b61079c565b60405161019c9190611069565b60405180910390f35b6101bf60048036038101906101ba9190610e08565b61083c565b005b6060600080546101d09061128f565b80601f01602080910402602001604051908101604052809291908181526020018280546101fc9061128f565b80156102495780601f1061021e57610100808354040283529160200191610249565b820191906000526020600020905b81548152906001019060200180831161022c57829003601f168201915b5050505050905090565b8273ffffffffffffffffffffffffffffffffffffffff166003600083815260200190815260200160002060009054906101000a900473ffffffffffffffffffffffffffffffffffffffff1673ffffffffffffffffffffffffffffffffffffffff16146102f4576040517f08c379a00000000000000000000000000000000000000000000000000000000081526004016102eb906110eb565b60405180910390fd5b600073ffffffffffffffffffffffffffffffffffffffff168273ffffffffffffffffffffffffffffffffffffffff161415610364576040517f08c379a000000000000000000000000000000000000000000000000000000000815260040161035b9061108b565b60405180910390fd5b600260008473ffffffffffffffffffffffffffffffffffffffff1673ffffffffffffffffffffffffffffffffffffffff1681526020019081526020016000206000815480929190600190039190505550600260008373ffffffffffffffffffffffffffffffffffffffff1673ffffffffffffffffffffffffffffffffffffffff16815260200190815260200160002060008154809291906001019190505550816003600083815260200190815260200160002060006101000a81548173ffffffffffffffffffffffffffffffffffffffff021916908373ffffffffffffffffffffffffffffffffffffffff160217905550808273ffffffffffffffffffffffffffffffffffffffff168473ffffffffffffffffffffffffffffffffffffffff167fddf252ad1be2c89b69c2b068fc378daa952ba7f163c4a11628f55a4df523b3ef60405160405180910390a4505050565b60606000600260008473ffffffffffffffffffffffffffffffffffffffff1673ffffffffffffffffffffffffffffffffffffffff1681526020019081526020016000205467ffffffffffffffff811115610512576105116113c8565b5b6040519080825280602002602001820160405280156105405781602001602082028036833780820191505090505b509050600080600190505b61055560076108a4565b8111610604578473ffffffffffffffffffffffffffffffffffffffff166003600083815260200190815260200160002060009054906101000a900473ffffffffffffffffffffffffffffffffffffffff1673ffffffffffffffffffffffffffffffffffffffff1614156105f157808383815181106105d6576105d5611399565b5b60200260200101818152505081806105ed906112f2565b9250505b80806105fc906112f2565b91505061054b565b508192505050919050565b6000806003600084815260200190815260200160002060009054906101000a900473ffffffffffffffffffffffffffffffffffffffff169050600073ffffffffffffffffffffffffffffffffffffffff168173ffffffffffffffffffffffffffffffffffffffff1614156106b8576040517f08c379a00000000000000000000000000000000000000000000000000000000081526004016106af9061110b565b60405180910390fd5b80915050919050565b6000600260008373ffffffffffffffffffffffffffffffffffffffff1673ffffffffffffffffffffffffffffffffffffffff168152602001908152602001600020549050919050565b6060600180546107199061128f565b80601f01602080910402602001604051908101604052809291908181526020018280546107459061128f565b80156107925780601f1061076757610100808354040283529160200191610792565b820191906000526020600020905b81548152906001019060200180831161077557829003601f168201915b5050505050905090565b600660205280600052604060002060009150905080546107bb9061128f565b80601f01602080910402602001604051908101604052809291908181526020018280546107e79061128f565b80156108345780601f1061080957610100808354040283529160200191610834565b820191906000526020600020905b81548152906001019060200180831161081757829003601f168201915b505050505081565b61084660076108b2565b600061085260076108a4565b905061085e33826108c8565b6108688183610b7c565b807f769eff512f395b679667e0062a0e31dad5d22dbc7e6b87f16c3de7e85e66346033604051610898919061102c565b60405180910390a25050565b600081600001549050919050565b6001816000016000828254019250508190555050565b600073ffffffffffffffffffffffffffffffffffffffff166005600083815260200190815260200160002060009054906101000a900473ffffffffffffffffffffffffffffffffffffffff1673ffffffffffffffffffffffffffffffffffffffff161461096a576040517f08c379a0000000000000000000000000000000000000000000000000000000008152600401610961906110ab565b60405180910390fd5b600073ffffffffffffffffffffffffffffffffffffffff168273ffffffffffffffffffffffffffffffffffffffff1614156109da576040517f08c379a00000000000000000000000000000000000000000000000000000000081526004016109d19061112b565b60405180910390fd5b600260008373ffffffffffffffffffffffffffffffffffffffff1673ffffffffffffffffffffffffffffffffffffffff16815260200190815260200160002060008154809291906001019190505550600460008373ffffffffffffffffffffffffffffffffffffffff1673ffffffffffffffffffffffffffffffffffffffff16815260200190815260200160002060008154809291906001019190505550816003600083815260200190815260200160002060006101000a81548173ffffffffffffffffffffffffffffffffffffffff021916908373ffffffffffffffffffffffffffffffffffffffff160217905550816005600083815260200190815260200160002060006101000a81548173ffffffffffffffffffffffffffffffffffffffff021916908373ffffffffffffffffffffffffffffffffffffffff160217905550808273ffffffffffffffffffffffffffffffffffffffff16600073ffffffffffffffffffffffffffffffffffffffff167fddf252ad1be2c89b69c2b068fc378daa952ba7f163c4a11628f55a4df523b3ef60405160405180910390a45050565b600073ffffffffffffffffffffffffffffffffffffffff166005600084815260200190815260200160002060009054906101000a900473ffffffffffffffffffffffffffffffffffffffff1673ffffffffffffffffffffffffffffffffffffffff161415610c1f576040517f08c379a0000000000000000000000000000000000000000000000000000000008152600401610c16906110cb565b60405180910390fd5b80600660008481526020019081526020016000209080519060200190610c46929190610c4b565b505050565b828054610c579061128f565b90600052602060002090601f016020900481019282610c795760008555610cc0565b82601f10610c9257805160ff1916838001178555610cc0565b82800160010185558215610cc0579182015b82811115610cbf578251825591602001919060010190610ca4565b5b509050610ccd9190610cd1565b5090565b5b80821115610cea576000816000905550600101610cd2565b5090565b6000610d01610cfc8461118b565b611166565b905082815260208101848484011115610d1d57610d1c6113fc565b5b610d2884828561124d565b509392505050565b600081359050610d3f81611538565b92915050565b600082601f830112610d5a57610d596113f7565b5b8135610d6a848260208601610cee565b91505092915050565b600081359050610d828161154f565b92915050565b600060208284031215610d9e57610d9d611406565b5b6000610dac84828501610d30565b91505092915050565b600080600060608486031215610dce57610dcd611406565b5b6000610ddc86828701610d30565b9350506020610ded86828701610d30565b9250506040610dfe86828701610d73565b9150509250925092565b600060208284031215610e1e57610e1d611406565b5b600082013567ffffffffffffffff811115610e3c57610e3b611401565b5b610e4884828501610d45565b91505092915050565b600060208284031215610e6757610e66611406565b5b6000610e7584828501610d73565b91505092915050565b6000610e8a838361100e565b60208301905092915050565b610e9f81611211565b82525050565b6000610eb0826111cc565b610eba81856111ef565b9350610ec5836111bc565b8060005b83811015610ef6578151610edd8882610e7e565b9750610ee8836111e2565b925050600181019050610ec9565b5085935050505092915050565b6000610f0e826111d7565b610f188185611200565b9350610f2881856020860161125c565b610f318161140b565b840191505092915050565b6000610f49602483611200565b9150610f548261141c565b604082019050919050565b6000610f6c601383611200565b9150610f778261146b565b602082019050919050565b6000610f8f601383611200565b9150610f9a82611494565b602082019050919050565b6000610fb2601783611200565b9150610fbd826114bd565b602082019050919050565b6000610fd5601883611200565b9150610fe0826114e6565b602082019050919050565b6000610ff8601883611200565b91506110038261150f565b602082019050919050565b61101781611243565b82525050565b61102681611243565b82525050565b60006020820190506110416000830184610e96565b92915050565b600060208201905081810360008301526110618184610ea5565b905092915050565b600060208201905081810360008301526110838184610f03565b905092915050565b600060208201905081810360008301526110a481610f3c565b9050919050565b600060208201905081810360008301526110c481610f5f565b9050919050565b600060208201905081810360008301526110e481610f82565b9050919050565b6000602082019050818103600083015261110481610fa5565b9050919050565b6000602082019050818103600083015261112481610fc8565b9050919050565b6000602082019050818103600083015261114481610feb565b9050919050565b6000602082019050611160600083018461101d565b92915050565b6000611170611181565b905061117c82826112c1565b919050565b6000604051905090565b600067ffffffffffffffff8211156111a6576111a56113c8565b5b6111af8261140b565b9050602081019050919050565b6000819050602082019050919050565b600081519050919050565b600081519050919050565b6000602082019050919050565b600082825260208201905092915050565b600082825260208201905092915050565b600061121c82611223565b9050919050565b600073ffffffffffffffffffffffffffffffffffffffff82169050919050565b6000819050919050565b82818337600083830152505050565b60005b8381101561127a57808201518184015260208101905061125f565b83811115611289576000848401525b50505050565b600060028204905060018216806112a757607f821691505b602082108114156112bb576112ba61136a565b5b50919050565b6112ca8261140b565b810181811067ffffffffffffffff821117156112e9576112e86113c8565b5b80604052505050565b60006112fd82611243565b91507fffffffffffffffffffffffffffffffffffffffffffffffffffffffffffffffff8214156113305761132f61133b565b5b600182019050919050565b7f4e487b7100000000000000000000000000000000000000000000000000000000600052601160045260246000fd5b7f4e487b7100000000000000000000000000000000000000000000000000000000600052602260045260246000fd5b7f4e487b7100000000000000000000000000000000000000000000000000000000600052603260045260246000fd5b7f4e487b7100000000000000000000000000000000000000000000000000000000600052604160045260246000fd5b600080fd5b600080fd5b600080fd5b600080fd5b6000601f19601f8301169050919050565b7f4552433732313a207472616e7366657220746f20746865207a65726f2061646460008201527f7265737300000000000000000000000000000000000000000000000000000000602082015250565b7f746f6b656e20616c726561647920657869737400000000000000000000000000600082015250565b7f746f6b656e20646f65736e277420657869737400000000000000000000000000600082015250565b7f4e6f742063616c6c656420627920746865206f776e6572000000000000000000600082015250565b7f4552433732313a20696e76616c696420746f6b656e2049440000000000000000600082015250565b7f6d696e7420746f20746865207a65726f20616464726573730000000000000000600082015250565b61154181611211565b811461154c57600080fd5b50565b61155881611243565b811461156357600080fd5b5056fea2646970667358221220fb0c82bdc4d6d9117009f8aafdb9dbefdb47090a4470995528c17d32782a879664736f6c63430008070033",
					"opcodes": "PUSH1 0x80 PUSH1 0x40 MSTORE CALLVALUE DUP1 ISZERO PUSH3 0x11 JUMPI PUSH1 0x0 DUP1 REVERT JUMPDEST POP PUSH1 0x40 MLOAD PUSH3 0x1A14 CODESIZE SUB DUP1 PUSH3 0x1A14 DUP4 CODECOPY DUP2 DUP2 ADD PUSH1 0x40 MSTORE DUP2 ADD SWAP1 PUSH3 0x37 SWAP2 SWAP1 PUSH3 0x1FC JUMP JUMPDEST DUP2 DUP2 DUP2 PUSH1 0x0 SWAP1 DUP1 MLOAD SWAP1 PUSH1 0x20 ADD SWAP1 PUSH3 0x51 SWAP3 SWAP2 SWAP1 PUSH3 0xB7 JUMP JUMPDEST POP DUP1 PUSH1 0x1 SWAP1 DUP1 MLOAD SWAP1 PUSH1 0x20 ADD SWAP1 PUSH3 0x6A SWAP3 SWAP2 SWAP1 PUSH3 0xB7 JUMP JUMPDEST POP POP POP DUP3 PUSH1 0x8 PUSH1 0x0 PUSH2 0x100 EXP DUP2 SLOAD DUP2 PUSH20 0xFFFFFFFFFFFFFFFFFFFFFFFFFFFFFFFFFFFFFFFF MUL NOT AND SWAP1 DUP4 PUSH20 0xFFFFFFFFFFFFFFFFFFFFFFFFFFFFFFFFFFFFFFFF AND MUL OR SWAP1 SSTORE POP POP POP POP PUSH3 0x468 JUMP JUMPDEST DUP3 DUP1 SLOAD PUSH3 0xC5 SWAP1 PUSH3 0x35F JUMP JUMPDEST SWAP1 PUSH1 0x0 MSTORE PUSH1 0x20 PUSH1 0x0 KECCAK256 SWAP1 PUSH1 0x1F ADD PUSH1 0x20 SWAP1 DIV DUP2 ADD SWAP3 DUP3 PUSH3 0xE9 JUMPI PUSH1 0x0 DUP6 SSTORE PUSH3 0x135 JUMP JUMPDEST DUP3 PUSH1 0x1F LT PUSH3 0x104 JUMPI DUP1 MLOAD PUSH1 0xFF NOT AND DUP4 DUP1 ADD OR DUP6 SSTORE PUSH3 0x135 JUMP JUMPDEST DUP3 DUP1 ADD PUSH1 0x1 ADD DUP6 SSTORE DUP3 ISZERO PUSH3 0x135 JUMPI SWAP2 DUP3 ADD JUMPDEST DUP3 DUP2 GT ISZERO PUSH3 0x134 JUMPI DUP3 MLOAD DUP3 SSTORE SWAP2 PUSH1 0x20 ADD SWAP2 SWAP1 PUSH1 0x1 ADD SWAP1 PUSH3 0x117 JUMP JUMPDEST JUMPDEST POP SWAP1 POP PUSH3 0x144 SWAP2 SWAP1 PUSH3 0x148 JUMP JUMPDEST POP SWAP1 JUMP JUMPDEST JUMPDEST DUP1 DUP3 GT ISZERO PUSH3 0x163 JUMPI PUSH1 0x0 DUP2 PUSH1 0x0 SWAP1 SSTORE POP PUSH1 0x1 ADD PUSH3 0x149 JUMP JUMPDEST POP SWAP1 JUMP JUMPDEST PUSH1 0x0 PUSH3 0x17E PUSH3 0x178 DUP5 PUSH3 0x2BF JUMP JUMPDEST PUSH3 0x296 JUMP JUMPDEST SWAP1 POP DUP3 DUP2 MSTORE PUSH1 0x20 DUP2 ADD DUP5 DUP5 DUP5 ADD GT ISZERO PUSH3 0x19D JUMPI PUSH3 0x19C PUSH3 0x42E JUMP JUMPDEST JUMPDEST PUSH3 0x1AA DUP5 DUP3 DUP6 PUSH3 0x329 JUMP JUMPDEST POP SWAP4 SWAP3 POP POP POP JUMP JUMPDEST PUSH1 0x0 DUP2 MLOAD SWAP1 POP PUSH3 0x1C3 DUP2 PUSH3 0x44E JUMP JUMPDEST SWAP3 SWAP2 POP POP JUMP JUMPDEST PUSH1 0x0 DUP3 PUSH1 0x1F DUP4 ADD SLT PUSH3 0x1E1 JUMPI PUSH3 0x1E0 PUSH3 0x429 JUMP JUMPDEST JUMPDEST DUP2 MLOAD PUSH3 0x1F3 DUP5 DUP3 PUSH1 0x20 DUP7 ADD PUSH3 0x167 JUMP JUMPDEST SWAP2 POP POP SWAP3 SWAP2 POP POP JUMP JUMPDEST PUSH1 0x0 DUP1 PUSH1 0x0 PUSH1 0x60 DUP5 DUP7 SUB SLT ISZERO PUSH3 0x218 JUMPI PUSH3 0x217 PUSH3 0x438 JUMP JUMPDEST JUMPDEST PUSH1 0x0 PUSH3 0x228 DUP7 DUP3 DUP8 ADD PUSH3 0x1B2 JUMP JUMPDEST SWAP4 POP POP PUSH1 0x20 DUP5 ADD MLOAD PUSH8 0xFFFFFFFFFFFFFFFF DUP2 GT ISZERO PUSH3 0x24C JUMPI PUSH3 0x24B PUSH3 0x433 JUMP JUMPDEST JUMPDEST PUSH3 0x25A DUP7 DUP3 DUP8 ADD PUSH3 0x1C9 JUMP JUMPDEST SWAP3 POP POP PUSH1 0x40 DUP5 ADD MLOAD PUSH8 0xFFFFFFFFFFFFFFFF DUP2 GT ISZERO PUSH3 0x27E JUMPI PUSH3 0x27D PUSH3 0x433 JUMP JUMPDEST JUMPDEST PUSH3 0x28C DUP7 DUP3 DUP8 ADD PUSH3 0x1C9 JUMP JUMPDEST SWAP2 POP POP SWAP3 POP SWAP3 POP SWAP3 JUMP JUMPDEST PUSH1 0x0 PUSH3 0x2A2 PUSH3 0x2B5 JUMP JUMPDEST SWAP1 POP PUSH3 0x2B0 DUP3 DUP3 PUSH3 0x395 JUMP JUMPDEST SWAP2 SWAP1 POP JUMP JUMPDEST PUSH1 0x0 PUSH1 0x40 MLOAD SWAP1 POP SWAP1 JUMP JUMPDEST PUSH1 0x0 PUSH8 0xFFFFFFFFFFFFFFFF DUP3 GT ISZERO PUSH3 0x2DD JUMPI PUSH3 0x2DC PUSH3 0x3FA JUMP JUMPDEST JUMPDEST PUSH3 0x2E8 DUP3 PUSH3 0x43D JUMP JUMPDEST SWAP1 POP PUSH1 0x20 DUP2 ADD SWAP1 POP SWAP2 SWAP1 POP JUMP JUMPDEST PUSH1 0x0 PUSH3 0x302 DUP3 PUSH3 0x309 JUMP JUMPDEST SWAP1 POP SWAP2 SWAP1 POP JUMP JUMPDEST PUSH1 0x0 PUSH20 0xFFFFFFFFFFFFFFFFFFFFFFFFFFFFFFFFFFFFFFFF DUP3 AND SWAP1 POP SWAP2 SWAP1 POP JUMP JUMPDEST PUSH1 0x0 JUMPDEST DUP4 DUP2 LT ISZERO PUSH3 0x349 JUMPI DUP1 DUP3 ADD MLOAD DUP2 DUP5 ADD MSTORE PUSH1 0x20 DUP2 ADD SWAP1 POP PUSH3 0x32C JUMP JUMPDEST DUP4 DUP2 GT ISZERO PUSH3 0x359 JUMPI PUSH1 0x0 DUP5 DUP5 ADD MSTORE JUMPDEST POP POP POP POP JUMP JUMPDEST PUSH1 0x0 PUSH1 0x2 DUP3 DIV SWAP1 POP PUSH1 0x1 DUP3 AND DUP1 PUSH3 0x378 JUMPI PUSH1 0x7F DUP3 AND SWAP2 POP JUMPDEST PUSH1 0x20 DUP3 LT DUP2 EQ ISZERO PUSH3 0x38F JUMPI PUSH3 0x38E PUSH3 0x3CB JUMP JUMPDEST JUMPDEST POP SWAP2 SWAP1 POP JUMP JUMPDEST PUSH3 0x3A0 DUP3 PUSH3 0x43D JUMP JUMPDEST DUP2 ADD DUP2 DUP2 LT PUSH8 0xFFFFFFFFFFFFFFFF DUP3 GT OR ISZERO PUSH3 0x3C2 JUMPI PUSH3 0x3C1 PUSH3 0x3FA JUMP JUMPDEST JUMPDEST DUP1 PUSH1 0x40 MSTORE POP POP POP JUMP JUMPDEST PUSH32 0x4E487B7100000000000000000000000000000000000000000000000000000000 PUSH1 0x0 MSTORE PUSH1 0x22 PUSH1 0x4 MSTORE PUSH1 0x24 PUSH1 0x0 REVERT JUMPDEST PUSH32 0x4E487B7100000000000000000000000000000000000000000000000000000000 PUSH1 0x0 MSTORE PUSH1 0x41 PUSH1 0x4 MSTORE PUSH1 0x24 PUSH1 0x0 REVERT JUMPDEST PUSH1 0x0 DUP1 REVERT JUMPDEST PUSH1 0x0 DUP1 REVERT JUMPDEST PUSH1 0x0 DUP1 REVERT JUMPDEST PUSH1 0x0 DUP1 REVERT JUMPDEST PUSH1 0x0 PUSH1 0x1F NOT PUSH1 0x1F DUP4 ADD AND SWAP1 POP SWAP2 SWAP1 POP JUMP JUMPDEST PUSH3 0x459 DUP2 PUSH3 0x2F5 JUMP JUMPDEST DUP2 EQ PUSH3 0x465 JUMPI PUSH1 0x0 DUP1 REVERT JUMPDEST POP JUMP JUMPDEST PUSH2 0x159C DUP1 PUSH3 0x478 PUSH1 0x0 CODECOPY PUSH1 0x0 RETURN INVALID PUSH1 0x80 PUSH1 0x40 MSTORE CALLVALUE DUP1 ISZERO PUSH2 0x10 JUMPI PUSH1 0x0 DUP1 REVERT JUMPDEST POP PUSH1 0x4 CALLDATASIZE LT PUSH2 0x88 JUMPI PUSH1 0x0 CALLDATALOAD PUSH1 0xE0 SHR DUP1 PUSH4 0x70A08231 GT PUSH2 0x5B JUMPI DUP1 PUSH4 0x70A08231 EQ PUSH2 0x127 JUMPI DUP1 PUSH4 0x95D89B41 EQ PUSH2 0x157 JUMPI DUP1 PUSH4 0xBF59B347 EQ PUSH2 0x175 JUMPI DUP1 PUSH4 0xD85D3D27 EQ PUSH2 0x1A5 JUMPI PUSH2 0x88 JUMP JUMPDEST DUP1 PUSH4 0x6FDDE03 EQ PUSH2 0x8D JUMPI DUP1 PUSH4 0x23B872DD EQ PUSH2 0xAB JUMPI DUP1 PUSH4 0x438B6300 EQ PUSH2 0xC7 JUMPI DUP1 PUSH4 0x6352211E EQ PUSH2 0xF7 JUMPI JUMPDEST PUSH1 0x0 DUP1 REVERT JUMPDEST PUSH2 0x95 PUSH2 0x1C1 JUMP JUMPDEST PUSH1 0x40 MLOAD PUSH2 0xA2 SWAP2 SWAP1 PUSH2 0x1069 JUMP JUMPDEST PUSH1 0x40 MLOAD DUP1 SWAP2 SUB SWAP1 RETURN JUMPDEST PUSH2 0xC5 PUSH1 0x4 DUP1 CALLDATASIZE SUB DUP2 ADD SWAP1 PUSH2 0xC0 SWAP2 SWAP1 PUSH2 0xDB5 JUMP JUMPDEST PUSH2 0x253 JUMP JUMPDEST STOP JUMPDEST PUSH2 0xE1 PUSH1 0x4 DUP1 CALLDATASIZE SUB DUP2 ADD SWAP1 PUSH2 0xDC SWAP2 SWAP1 PUSH2 0xD88 JUMP JUMPDEST PUSH2 0x4B5 JUMP JUMPDEST PUSH1 0x40 MLOAD PUSH2 0xEE SWAP2 SWAP1 PUSH2 0x1047 JUMP JUMPDEST PUSH1 0x40 MLOAD DUP1 SWAP2 SUB SWAP1 RETURN JUMPDEST PUSH2 0x111 PUSH1 0x4 DUP1 CALLDATASIZE SUB DUP2 ADD SWAP1 PUSH2 0x10C SWAP2 SWAP1 PUSH2 0xE51 JUMP JUMPDEST PUSH2 0x60F JUMP JUMPDEST PUSH1 0x40 MLOAD PUSH2 0x11E SWAP2 SWAP1 PUSH2 0x102C JUMP JUMPDEST PUSH1 0x40 MLOAD DUP1 SWAP2 SUB SWAP1 RETURN JUMPDEST PUSH2 0x141 PUSH1 0x4 DUP1 CALLDATASIZE SUB DUP2 ADD SWAP1 PUSH2 0x13C SWAP2 SWAP1 PUSH2 0xD88 JUMP JUMPDEST PUSH2 0x6C1 JUMP JUMPDEST PUSH1 0x40 MLOAD PUSH2 0x14E SWAP2 SWAP1 PUSH2 0x114B JUMP JUMPDEST PUSH1 0x40 MLOAD DUP1 SWAP2 SUB SWAP1 RETURN JUMPDEST PUSH2 0x15F PUSH2 0x70A JUMP JUMPDEST PUSH1 0x40 MLOAD PUSH2 0x16C SWAP2 SWAP1 PUSH2 0x1069 JUMP JUMPDEST PUSH1 0x40 MLOAD DUP1 SWAP2 SUB SWAP1 RETURN JUMPDEST PUSH2 0x18F PUSH1 0x4 DUP1 CALLDATASIZE SUB DUP2 ADD SWAP1 PUSH2 0x18A SWAP2 SWAP1 PUSH2 0xE51 JUMP JUMPDEST PUSH2 0x79C JUMP JUMPDEST PUSH1 0x40 MLOAD PUSH2 0x19C SWAP2 SWAP1 PUSH2 0x1069 JUMP JUMPDEST PUSH1 0x40 MLOAD DUP1 SWAP2 SUB SWAP1 RETURN JUMPDEST PUSH2 0x1BF PUSH1 0x4 DUP1 CALLDATASIZE SUB DUP2 ADD SWAP1 PUSH2 0x1BA SWAP2 SWAP1 PUSH2 0xE08 JUMP JUMPDEST PUSH2 0x83C JUMP JUMPDEST STOP JUMPDEST PUSH1 0x60 PUSH1 0x0 DUP1 SLOAD PUSH2 0x1D0 SWAP1 PUSH2 0x128F JUMP JUMPDEST DUP1 PUSH1 0x1F ADD PUSH1 0x20 DUP1 SWAP2 DIV MUL PUSH1 0x20 ADD PUSH1 0x40 MLOAD SWAP1 DUP2 ADD PUSH1 0x40 MSTORE DUP1 SWAP3 SWAP2 SWAP1 DUP2 DUP2 MSTORE PUSH1 0x20 ADD DUP3 DUP1 SLOAD PUSH2 0x1FC SWAP1 PUSH2 0x128F JUMP JUMPDEST DUP1 ISZERO PUSH2 0x249 JUMPI DUP1 PUSH1 0x1F LT PUSH2 0x21E JUMPI PUSH2 0x100 DUP1 DUP4 SLOAD DIV MUL DUP4 MSTORE SWAP2 PUSH1 0x20 ADD SWAP2 PUSH2 0x249 JUMP JUMPDEST DUP3 ADD SWAP2 SWAP1 PUSH1 0x0 MSTORE PUSH1 0x20 PUSH1 0x0 KECCAK256 SWAP1 JUMPDEST DUP2 SLOAD DUP2 MSTORE SWAP1 PUSH1 0x1 ADD SWAP1 PUSH1 0x20 ADD DUP1 DUP4 GT PUSH2 0x22C JUMPI DUP3 SWAP1 SUB PUSH1 0x1F AND DUP3 ADD SWAP2 JUMPDEST POP POP POP POP POP SWAP1 POP SWAP1 JUMP JUMPDEST DUP3 PUSH20 0xFFFFFFFFFFFFFFFFFFFFFFFFFFFFFFFFFFFFFFFF AND PUSH1 0x3 PUSH1 0x0 DUP4 DUP2 MSTORE PUSH1 0x20 ADD SWAP1 DUP2 MSTORE PUSH1 0x20 ADD PUSH1 0x0 KECCAK256 PUSH1 0x0 SWAP1 SLOAD SWAP1 PUSH2 0x100 EXP SWAP1 DIV PUSH20 0xFFFFFFFFFFFFFFFFFFFFFFFFFFFFFFFFFFFFFFFF AND PUSH20 0xFFFFFFFFFFFFFFFFFFFFFFFFFFFFFFFFFFFFFFFF AND EQ PUSH2 0x2F4 JUMPI PUSH1 0x40 MLOAD PUSH32 0x8C379A000000000000000000000000000000000000000000000000000000000 DUP2 MSTORE PUSH1 0x4 ADD PUSH2 0x2EB SWAP1 PUSH2 0x10EB JUMP JUMPDEST PUSH1 0x40 MLOAD DUP1 SWAP2 SUB SWAP1 REVERT JUMPDEST PUSH1 0x0 PUSH20 0xFFFFFFFFFFFFFFFFFFFFFFFFFFFFFFFFFFFFFFFF AND DUP3 PUSH20 0xFFFFFFFFFFFFFFFFFFFFFFFFFFFFFFFFFFFFFFFF AND EQ ISZERO PUSH2 0x364 JUMPI PUSH1 0x40 MLOAD PUSH32 0x8C379A000000000000000000000000000000000000000000000000000000000 DUP2 MSTORE PUSH1 0x4 ADD PUSH2 0x35B SWAP1 PUSH2 0x108B JUMP JUMPDEST PUSH1 0x40 MLOAD DUP1 SWAP2 SUB SWAP1 REVERT JUMPDEST PUSH1 0x2 PUSH1 0x0 DUP5 PUSH20 0xFFFFFFFFFFFFFFFFFFFFFFFFFFFFFFFFFFFFFFFF AND PUSH20 0xFFFFFFFFFFFFFFFFFFFFFFFFFFFFFFFFFFFFFFFF AND DUP2 MSTORE PUSH1 0x20 ADD SWAP1 DUP2 MSTORE PUSH1 0x20 ADD PUSH1 0x0 KECCAK256 PUSH1 0x0 DUP2 SLOAD DUP1 SWAP3 SWAP2 SWAP1 PUSH1 0x1 SWAP1 SUB SWAP2 SWAP1 POP SSTORE POP PUSH1 0x2 PUSH1 0x0 DUP4 PUSH20 0xFFFFFFFFFFFFFFFFFFFFFFFFFFFFFFFFFFFFFFFF AND PUSH20 0xFFFFFFFFFFFFFFFFFFFFFFFFFFFFFFFFFFFFFFFF AND DUP2 MSTORE PUSH1 0x20 ADD SWAP1 DUP2 MSTORE PUSH1 0x20 ADD PUSH1 0x0 KECCAK256 PUSH1 0x0 DUP2 SLOAD DUP1 SWAP3 SWAP2 SWAP1 PUSH1 0x1 ADD SWAP2 SWAP1 POP SSTORE POP DUP2 PUSH1 0x3 PUSH1 0x0 DUP4 DUP2 MSTORE PUSH1 0x20 ADD SWAP1 DUP2 MSTORE PUSH1 0x20 ADD PUSH1 0x0 KECCAK256 PUSH1 0x0 PUSH2 0x100 EXP DUP2 SLOAD DUP2 PUSH20 0xFFFFFFFFFFFFFFFFFFFFFFFFFFFFFFFFFFFFFFFF MUL NOT AND SWAP1 DUP4 PUSH20 0xFFFFFFFFFFFFFFFFFFFFFFFFFFFFFFFFFFFFFFFF AND MUL OR SWAP1 SSTORE POP DUP1 DUP3 PUSH20 0xFFFFFFFFFFFFFFFFFFFFFFFFFFFFFFFFFFFFFFFF AND DUP5 PUSH20 0xFFFFFFFFFFFFFFFFFFFFFFFFFFFFFFFFFFFFFFFF AND PUSH32 0xDDF252AD1BE2C89B69C2B068FC378DAA952BA7F163C4A11628F55A4DF523B3EF PUSH1 0x40 MLOAD PUSH1 0x40 MLOAD DUP1 SWAP2 SUB SWAP1 LOG4 POP POP POP JUMP JUMPDEST PUSH1 0x60 PUSH1 0x0 PUSH1 0x2 PUSH1 0x0 DUP5 PUSH20 0xFFFFFFFFFFFFFFFFFFFFFFFFFFFFFFFFFFFFFFFF AND PUSH20 0xFFFFFFFFFFFFFFFFFFFFFFFFFFFFFFFFFFFFFFFF AND DUP2 MSTORE PUSH1 0x20 ADD SWAP1 DUP2 MSTORE PUSH1 0x20 ADD PUSH1 0x0 KECCAK256 SLOAD PUSH8 0xFFFFFFFFFFFFFFFF DUP2 GT ISZERO PUSH2 0x512 JUMPI PUSH2 0x511 PUSH2 0x13C8 JUMP JUMPDEST JUMPDEST PUSH1 0x40 MLOAD SWAP1 DUP1 DUP3 MSTORE DUP1 PUSH1 0x20 MUL PUSH1 0x20 ADD DUP3 ADD PUSH1 0x40 MSTORE DUP1 ISZERO PUSH2 0x540 JUMPI DUP2 PUSH1 0x20 ADD PUSH1 0x20 DUP3 MUL DUP1 CALLDATASIZE DUP4 CALLDATACOPY DUP1 DUP3 ADD SWAP2 POP POP SWAP1 POP JUMPDEST POP SWAP1 POP PUSH1 0x0 DUP1 PUSH1 0x1 SWAP1 POP JUMPDEST PUSH2 0x555 PUSH1 0x7 PUSH2 0x8A4 JUMP JUMPDEST DUP2 GT PUSH2 0x604 JUMPI DUP5 PUSH20 0xFFFFFFFFFFFFFFFFFFFFFFFFFFFFFFFFFFFFFFFF AND PUSH1 0x3 PUSH1 0x0 DUP4 DUP2 MSTORE PUSH1 0x20 ADD SWAP1 DUP2 MSTORE PUSH1 0x20 ADD PUSH1 0x0 KECCAK256 PUSH1 0x0 SWAP1 SLOAD SWAP1 PUSH2 0x100 EXP SWAP1 DIV PUSH20 0xFFFFFFFFFFFFFFFFFFFFFFFFFFFFFFFFFFFFFFFF AND PUSH20 0xFFFFFFFFFFFFFFFFFFFFFFFFFFFFFFFFFFFFFFFF AND EQ ISZERO PUSH2 0x5F1 JUMPI DUP1 DUP4 DUP4 DUP2 MLOAD DUP2 LT PUSH2 0x5D6 JUMPI PUSH2 0x5D5 PUSH2 0x1399 JUMP JUMPDEST JUMPDEST PUSH1 0x20 MUL PUSH1 0x20 ADD ADD DUP2 DUP2 MSTORE POP POP DUP2 DUP1 PUSH2 0x5ED SWAP1 PUSH2 0x12F2 JUMP JUMPDEST SWAP3 POP POP JUMPDEST DUP1 DUP1 PUSH2 0x5FC SWAP1 PUSH2 0x12F2 JUMP JUMPDEST SWAP2 POP POP PUSH2 0x54B JUMP JUMPDEST POP DUP2 SWAP3 POP POP POP SWAP2 SWAP1 POP JUMP JUMPDEST PUSH1 0x0 DUP1 PUSH1 0x3 PUSH1 0x0 DUP5 DUP2 MSTORE PUSH1 0x20 ADD SWAP1 DUP2 MSTORE PUSH1 0x20 ADD PUSH1 0x0 KECCAK256 PUSH1 0x0 SWAP1 SLOAD SWAP1 PUSH2 0x100 EXP SWAP1 DIV PUSH20 0xFFFFFFFFFFFFFFFFFFFFFFFFFFFFFFFFFFFFFFFF AND SWAP1 POP PUSH1 0x0 PUSH20 0xFFFFFFFFFFFFFFFFFFFFFFFFFFFFFFFFFFFFFFFF AND DUP2 PUSH20 0xFFFFFFFFFFFFFFFFFFFFFFFFFFFFFFFFFFFFFFFF AND EQ ISZERO PUSH2 0x6B8 JUMPI PUSH1 0x40 MLOAD PUSH32 0x8C379A000000000000000000000000000000000000000000000000000000000 DUP2 MSTORE PUSH1 0x4 ADD PUSH2 0x6AF SWAP1 PUSH2 0x110B JUMP JUMPDEST PUSH1 0x40 MLOAD DUP1 SWAP2 SUB SWAP1 REVERT JUMPDEST DUP1 SWAP2 POP POP SWAP2 SWAP1 POP JUMP JUMPDEST PUSH1 0x0 PUSH1 0x2 PUSH1 0x0 DUP4 PUSH20 0xFFFFFFFFFFFFFFFFFFFFFFFFFFFFFFFFFFFFFFFF AND PUSH20 0xFFFFFFFFFFFFFFFFFFFFFFFFFFFFFFFFFFFFFFFF AND DUP2 MSTORE PUSH1 0x20 ADD SWAP1 DUP2 MSTORE PUSH1 0x20 ADD PUSH1 0x0 KECCAK256 SLOAD SWAP1 POP SWAP2 SWAP1 POP JUMP JUMPDEST PUSH1 0x60 PUSH1 0x1 DUP1 SLOAD PUSH2 0x719 SWAP1 PUSH2 0x128F JUMP JUMPDEST DUP1 PUSH1 0x1F ADD PUSH1 0x20 DUP1 SWAP2 DIV MUL PUSH1 0x20 ADD PUSH1 0x40 MLOAD SWAP1 DUP2 ADD PUSH1 0x40 MSTORE DUP1 SWAP3 SWAP2 SWAP1 DUP2 DUP2 MSTORE PUSH1 0x20 ADD DUP3 DUP1 SLOAD PUSH2 0x745 SWAP1 PUSH2 0x128F JUMP JUMPDEST DUP1 ISZERO PUSH2 0x792 JUMPI DUP1 PUSH1 0x1F LT PUSH2 0x767 JUMPI PUSH2 0x100 DUP1 DUP4 SLOAD DIV MUL DUP4 MSTORE SWAP2 PUSH1 0x20 ADD SWAP2 PUSH2 0x792 JUMP JUMPDEST DUP3 ADD SWAP2 SWAP1 PUSH1 0x0 MSTORE PUSH1 0x20 PUSH1 0x0 KECCAK256 SWAP1 JUMPDEST DUP2 SLOAD DUP2 MSTORE SWAP1 PUSH1 0x1 ADD SWAP1 PUSH1 0x20 ADD DUP1 DUP4 GT PUSH2 0x775 JUMPI DUP3 SWAP1 SUB PUSH1 0x1F AND DUP3 ADD SWAP2 JUMPDEST POP POP POP POP POP SWAP1 POP SWAP1 JUMP JUMPDEST PUSH1 0x6 PUSH1 0x20 MSTORE DUP1 PUSH1 0x0 MSTORE PUSH1 0x40 PUSH1 0x0 KECCAK256 PUSH1 0x0 SWAP2 POP SWAP1 POP DUP1 SLOAD PUSH2 0x7BB SWAP1 PUSH2 0x128F JUMP JUMPDEST DUP1 PUSH1 0x1F ADD PUSH1 0x20 DUP1 SWAP2 DIV MUL PUSH1 0x20 ADD PUSH1 0x40 MLOAD SWAP1 DUP2 ADD PUSH1 0x40 MSTORE DUP1 SWAP3 SWAP2 SWAP1 DUP2 DUP2 MSTORE PUSH1 0x20 ADD DUP3 DUP1 SLOAD PUSH2 0x7E7 SWAP1 PUSH2 0x128F JUMP JUMPDEST DUP1 ISZERO PUSH2 0x834 JUMPI DUP1 PUSH1 0x1F LT PUSH2 0x809 JUMPI PUSH2 0x100 DUP1 DUP4 SLOAD DIV MUL DUP4 MSTORE SWAP2 PUSH1 0x20 ADD SWAP2 PUSH2 0x834 JUMP JUMPDEST DUP3 ADD SWAP2 SWAP1 PUSH1 0x0 MSTORE PUSH1 0x20 PUSH1 0x0 KECCAK256 SWAP1 JUMPDEST DUP2 SLOAD DUP2 MSTORE SWAP1 PUSH1 0x1 ADD SWAP1 PUSH1 0x20 ADD DUP1 DUP4 GT PUSH2 0x817 JUMPI DUP3 SWAP1 SUB PUSH1 0x1F AND DUP3 ADD SWAP2 JUMPDEST POP POP POP POP POP DUP2 JUMP JUMPDEST PUSH2 0x846 PUSH1 0x7 PUSH2 0x8B2 JUMP JUMPDEST PUSH1 0x0 PUSH2 0x852 PUSH1 0x7 PUSH2 0x8A4 JUMP JUMPDEST SWAP1 POP PUSH2 0x85E CALLER DUP3 PUSH2 0x8C8 JUMP JUMPDEST PUSH2 0x868 DUP2 DUP4 PUSH2 0xB7C JUMP JUMPDEST DUP1 PUSH32 0x769EFF512F395B679667E0062A0E31DAD5D22DBC7E6B87F16C3DE7E85E663460 CALLER PUSH1 0x40 MLOAD PUSH2 0x898 SWAP2 SWAP1 PUSH2 0x102C JUMP JUMPDEST PUSH1 0x40 MLOAD DUP1 SWAP2 SUB SWAP1 LOG2 POP POP JUMP JUMPDEST PUSH1 0x0 DUP2 PUSH1 0x0 ADD SLOAD SWAP1 POP SWAP2 SWAP1 POP JUMP JUMPDEST PUSH1 0x1 DUP2 PUSH1 0x0 ADD PUSH1 0x0 DUP3 DUP3 SLOAD ADD SWAP3 POP POP DUP2 SWAP1 SSTORE POP POP JUMP JUMPDEST PUSH1 0x0 PUSH20 0xFFFFFFFFFFFFFFFFFFFFFFFFFFFFFFFFFFFFFFFF AND PUSH1 0x5 PUSH1 0x0 DUP4 DUP2 MSTORE PUSH1 0x20 ADD SWAP1 DUP2 MSTORE PUSH1 0x20 ADD PUSH1 0x0 KECCAK256 PUSH1 0x0 SWAP1 SLOAD SWAP1 PUSH2 0x100 EXP SWAP1 DIV PUSH20 0xFFFFFFFFFFFFFFFFFFFFFFFFFFFFFFFFFFFFFFFF AND PUSH20 0xFFFFFFFFFFFFFFFFFFFFFFFFFFFFFFFFFFFFFFFF AND EQ PUSH2 0x96A JUMPI PUSH1 0x40 MLOAD PUSH32 0x8C379A000000000000000000000000000000000000000000000000000000000 DUP2 MSTORE PUSH1 0x4 ADD PUSH2 0x961 SWAP1 PUSH2 0x10AB JUMP JUMPDEST PUSH1 0x40 MLOAD DUP1 SWAP2 SUB SWAP1 REVERT JUMPDEST PUSH1 0x0 PUSH20 0xFFFFFFFFFFFFFFFFFFFFFFFFFFFFFFFFFFFFFFFF AND DUP3 PUSH20 0xFFFFFFFFFFFFFFFFFFFFFFFFFFFFFFFFFFFFFFFF AND EQ ISZERO PUSH2 0x9DA JUMPI PUSH1 0x40 MLOAD PUSH32 0x8C379A000000000000000000000000000000000000000000000000000000000 DUP2 MSTORE PUSH1 0x4 ADD PUSH2 0x9D1 SWAP1 PUSH2 0x112B JUMP JUMPDEST PUSH1 0x40 MLOAD DUP1 SWAP2 SUB SWAP1 REVERT JUMPDEST PUSH1 0x2 PUSH1 0x0 DUP4 PUSH20 0xFFFFFFFFFFFFFFFFFFFFFFFFFFFFFFFFFFFFFFFF AND PUSH20 0xFFFFFFFFFFFFFFFFFFFFFFFFFFFFFFFFFFFFFFFF AND DUP2 MSTORE PUSH1 0x20 ADD SWAP1 DUP2 MSTORE PUSH1 0x20 ADD PUSH1 0x0 KECCAK256 PUSH1 0x0 DUP2 SLOAD DUP1 SWAP3 SWAP2 SWAP1 PUSH1 0x1 ADD SWAP2 SWAP1 POP SSTORE POP PUSH1 0x4 PUSH1 0x0 DUP4 PUSH20 0xFFFFFFFFFFFFFFFFFFFFFFFFFFFFFFFFFFFFFFFF AND PUSH20 0xFFFFFFFFFFFFFFFFFFFFFFFFFFFFFFFFFFFFFFFF AND DUP2 MSTORE PUSH1 0x20 ADD SWAP1 DUP2 MSTORE PUSH1 0x20 ADD PUSH1 0x0 KECCAK256 PUSH1 0x0 DUP2 SLOAD DUP1 SWAP3 SWAP2 SWAP1 PUSH1 0x1 ADD SWAP2 SWAP1 POP SSTORE POP DUP2 PUSH1 0x3 PUSH1 0x0 DUP4 DUP2 MSTORE PUSH1 0x20 ADD SWAP1 DUP2 MSTORE PUSH1 0x20 ADD PUSH1 0x0 KECCAK256 PUSH1 0x0 PUSH2 0x100 EXP DUP2 SLOAD DUP2 PUSH20 0xFFFFFFFFFFFFFFFFFFFFFFFFFFFFFFFFFFFFFFFF MUL NOT AND SWAP1 DUP4 PUSH20 0xFFFFFFFFFFFFFFFFFFFFFFFFFFFFFFFFFFFFFFFF AND MUL OR SWAP1 SSTORE POP DUP2 PUSH1 0x5 PUSH1 0x0 DUP4 DUP2 MSTORE PUSH1 0x20 ADD SWAP1 DUP2 MSTORE PUSH1 0x20 ADD PUSH1 0x0 KECCAK256 PUSH1 0x0 PUSH2 0x100 EXP DUP2 SLOAD DUP2 PUSH20 0xFFFFFFFFFFFFFFFFFFFFFFFFFFFFFFFFFFFFFFFF MUL NOT AND SWAP1 DUP4 PUSH20 0xFFFFFFFFFFFFFFFFFFFFFFFFFFFFFFFFFFFFFFFF AND MUL OR SWAP1 SSTORE POP DUP1 DUP3 PUSH20 0xFFFFFFFFFFFFFFFFFFFFFFFFFFFFFFFFFFFFFFFF AND PUSH1 0x0 PUSH20 0xFFFFFFFFFFFFFFFFFFFFFFFFFFFFFFFFFFFFFFFF AND PUSH32 0xDDF252AD1BE2C89B69C2B068FC378DAA952BA7F163C4A11628F55A4DF523B3EF PUSH1 0x40 MLOAD PUSH1 0x40 MLOAD DUP1 SWAP2 SUB SWAP1 LOG4 POP POP JUMP JUMPDEST PUSH1 0x0 PUSH20 0xFFFFFFFFFFFFFFFFFFFFFFFFFFFFFFFFFFFFFFFF AND PUSH1 0x5 PUSH1 0x0 DUP5 DUP2 MSTORE PUSH1 0x20 ADD SWAP1 DUP2 MSTORE PUSH1 0x20 ADD PUSH1 0x0 KECCAK256 PUSH1 0x0 SWAP1 SLOAD SWAP1 PUSH2 0x100 EXP SWAP1 DIV PUSH20 0xFFFFFFFFFFFFFFFFFFFFFFFFFFFFFFFFFFFFFFFF AND PUSH20 0xFFFFFFFFFFFFFFFFFFFFFFFFFFFFFFFFFFFFFFFF AND EQ ISZERO PUSH2 0xC1F JUMPI PUSH1 0x40 MLOAD PUSH32 0x8C379A000000000000000000000000000000000000000000000000000000000 DUP2 MSTORE PUSH1 0x4 ADD PUSH2 0xC16 SWAP1 PUSH2 0x10CB JUMP JUMPDEST PUSH1 0x40 MLOAD DUP1 SWAP2 SUB SWAP1 REVERT JUMPDEST DUP1 PUSH1 0x6 PUSH1 0x0 DUP5 DUP2 MSTORE PUSH1 0x20 ADD SWAP1 DUP2 MSTORE PUSH1 0x20 ADD PUSH1 0x0 KECCAK256 SWAP1 DUP1 MLOAD SWAP1 PUSH1 0x20 ADD SWAP1 PUSH2 0xC46 SWAP3 SWAP2 SWAP1 PUSH2 0xC4B JUMP JUMPDEST POP POP POP JUMP JUMPDEST DUP3 DUP1 SLOAD PUSH2 0xC57 SWAP1 PUSH2 0x128F JUMP JUMPDEST SWAP1 PUSH1 0x0 MSTORE PUSH1 0x20 PUSH1 0x0 KECCAK256 SWAP1 PUSH1 0x1F ADD PUSH1 0x20 SWAP1 DIV DUP2 ADD SWAP3 DUP3 PUSH2 0xC79 JUMPI PUSH1 0x0 DUP6 SSTORE PUSH2 0xCC0 JUMP JUMPDEST DUP3 PUSH1 0x1F LT PUSH2 0xC92 JUMPI DUP1 MLOAD PUSH1 0xFF NOT AND DUP4 DUP1 ADD OR DUP6 SSTORE PUSH2 0xCC0 JUMP JUMPDEST DUP3 DUP1 ADD PUSH1 0x1 ADD DUP6 SSTORE DUP3 ISZERO PUSH2 0xCC0 JUMPI SWAP2 DUP3 ADD JUMPDEST DUP3 DUP2 GT ISZERO PUSH2 0xCBF JUMPI DUP3 MLOAD DUP3 SSTORE SWAP2 PUSH1 0x20 ADD SWAP2 SWAP1 PUSH1 0x1 ADD SWAP1 PUSH2 0xCA4 JUMP JUMPDEST JUMPDEST POP SWAP1 POP PUSH2 0xCCD SWAP2 SWAP1 PUSH2 0xCD1 JUMP JUMPDEST POP SWAP1 JUMP JUMPDEST JUMPDEST DUP1 DUP3 GT ISZERO PUSH2 0xCEA JUMPI PUSH1 0x0 DUP2 PUSH1 0x0 SWAP1 SSTORE POP PUSH1 0x1 ADD PUSH2 0xCD2 JUMP JUMPDEST POP SWAP1 JUMP JUMPDEST PUSH1 0x0 PUSH2 0xD01 PUSH2 0xCFC DUP5 PUSH2 0x118B JUMP JUMPDEST PUSH2 0x1166 JUMP JUMPDEST SWAP1 POP DUP3 DUP2 MSTORE PUSH1 0x20 DUP2 ADD DUP5 DUP5 DUP5 ADD GT ISZERO PUSH2 0xD1D JUMPI PUSH2 0xD1C PUSH2 0x13FC JUMP JUMPDEST JUMPDEST PUSH2 0xD28 DUP5 DUP3 DUP6 PUSH2 0x124D JUMP JUMPDEST POP SWAP4 SWAP3 POP POP POP JUMP JUMPDEST PUSH1 0x0 DUP2 CALLDATALOAD SWAP1 POP PUSH2 0xD3F DUP2 PUSH2 0x1538 JUMP JUMPDEST SWAP3 SWAP2 POP POP JUMP JUMPDEST PUSH1 0x0 DUP3 PUSH1 0x1F DUP4 ADD SLT PUSH2 0xD5A JUMPI PUSH2 0xD59 PUSH2 0x13F7 JUMP JUMPDEST JUMPDEST DUP2 CALLDATALOAD PUSH2 0xD6A DUP5 DUP3 PUSH1 0x20 DUP7 ADD PUSH2 0xCEE JUMP JUMPDEST SWAP2 POP POP SWAP3 SWAP2 POP POP JUMP JUMPDEST PUSH1 0x0 DUP2 CALLDATALOAD SWAP1 POP PUSH2 0xD82 DUP2 PUSH2 0x154F JUMP JUMPDEST SWAP3 SWAP2 POP POP JUMP JUMPDEST PUSH1 0x0 PUSH1 0x20 DUP3 DUP5 SUB SLT ISZERO PUSH2 0xD9E JUMPI PUSH2 0xD9D PUSH2 0x1406 JUMP JUMPDEST JUMPDEST PUSH1 0x0 PUSH2 0xDAC DUP5 DUP3 DUP6 ADD PUSH2 0xD30 JUMP JUMPDEST SWAP2 POP POP SWAP3 SWAP2 POP POP JUMP JUMPDEST PUSH1 0x0 DUP1 PUSH1 0x0 PUSH1 0x60 DUP5 DUP7 SUB SLT ISZERO PUSH2 0xDCE JUMPI PUSH2 0xDCD PUSH2 0x1406 JUMP JUMPDEST JUMPDEST PUSH1 0x0 PUSH2 0xDDC DUP7 DUP3 DUP8 ADD PUSH2 0xD30 JUMP JUMPDEST SWAP4 POP POP PUSH1 0x20 PUSH2 0xDED DUP7 DUP3 DUP8 ADD PUSH2 0xD30 JUMP JUMPDEST SWAP3 POP POP PUSH1 0x40 PUSH2 0xDFE DUP7 DUP3 DUP8 ADD PUSH2 0xD73 JUMP JUMPDEST SWAP2 POP POP SWAP3 POP SWAP3 POP SWAP3 JUMP JUMPDEST PUSH1 0x0 PUSH1 0x20 DUP3 DUP5 SUB SLT ISZERO PUSH2 0xE1E JUMPI PUSH2 0xE1D PUSH2 0x1406 JUMP JUMPDEST JUMPDEST PUSH1 0x0 DUP3 ADD CALLDATALOAD PUSH8 0xFFFFFFFFFFFFFFFF DUP2 GT ISZERO PUSH2 0xE3C JUMPI PUSH2 0xE3B PUSH2 0x1401 JUMP JUMPDEST JUMPDEST PUSH2 0xE48 DUP5 DUP3 DUP6 ADD PUSH2 0xD45 JUMP JUMPDEST SWAP2 POP POP SWAP3 SWAP2 POP POP JUMP JUMPDEST PUSH1 0x0 PUSH1 0x20 DUP3 DUP5 SUB SLT ISZERO PUSH2 0xE67 JUMPI PUSH2 0xE66 PUSH2 0x1406 JUMP JUMPDEST JUMPDEST PUSH1 0x0 PUSH2 0xE75 DUP5 DUP3 DUP6 ADD PUSH2 0xD73 JUMP JUMPDEST SWAP2 POP POP SWAP3 SWAP2 POP POP JUMP JUMPDEST PUSH1 0x0 PUSH2 0xE8A DUP4 DUP4 PUSH2 0x100E JUMP JUMPDEST PUSH1 0x20 DUP4 ADD SWAP1 POP SWAP3 SWAP2 POP POP JUMP JUMPDEST PUSH2 0xE9F DUP2 PUSH2 0x1211 JUMP JUMPDEST DUP3 MSTORE POP POP JUMP JUMPDEST PUSH1 0x0 PUSH2 0xEB0 DUP3 PUSH2 0x11CC JUMP JUMPDEST PUSH2 0xEBA DUP2 DUP6 PUSH2 0x11EF JUMP JUMPDEST SWAP4 POP PUSH2 0xEC5 DUP4 PUSH2 0x11BC JUMP JUMPDEST DUP1 PUSH1 0x0 JUMPDEST DUP4 DUP2 LT ISZERO PUSH2 0xEF6 JUMPI DUP2 MLOAD PUSH2 0xEDD DUP9 DUP3 PUSH2 0xE7E JUMP JUMPDEST SWAP8 POP PUSH2 0xEE8 DUP4 PUSH2 0x11E2 JUMP JUMPDEST SWAP3 POP POP PUSH1 0x1 DUP2 ADD SWAP1 POP PUSH2 0xEC9 JUMP JUMPDEST POP DUP6 SWAP4 POP POP POP POP SWAP3 SWAP2 POP POP JUMP JUMPDEST PUSH1 0x0 PUSH2 0xF0E DUP3 PUSH2 0x11D7 JUMP JUMPDEST PUSH2 0xF18 DUP2 DUP6 PUSH2 0x1200 JUMP JUMPDEST SWAP4 POP PUSH2 0xF28 DUP2 DUP6 PUSH1 0x20 DUP7 ADD PUSH2 0x125C JUMP JUMPDEST PUSH2 0xF31 DUP2 PUSH2 0x140B JUMP JUMPDEST DUP5 ADD SWAP2 POP POP SWAP3 SWAP2 POP POP JUMP JUMPDEST PUSH1 0x0 PUSH2 0xF49 PUSH1 0x24 DUP4 PUSH2 0x1200 JUMP JUMPDEST SWAP2 POP PUSH2 0xF54 DUP3 PUSH2 0x141C JUMP JUMPDEST PUSH1 0x40 DUP3 ADD SWAP1 POP SWAP2 SWAP1 POP JUMP JUMPDEST PUSH1 0x0 PUSH2 0xF6C PUSH1 0x13 DUP4 PUSH2 0x1200 JUMP JUMPDEST SWAP2 POP PUSH2 0xF77 DUP3 PUSH2 0x146B JUMP JUMPDEST PUSH1 0x20 DUP3 ADD SWAP1 POP SWAP2 SWAP1 POP JUMP JUMPDEST PUSH1 0x0 PUSH2 0xF8F PUSH1 0x13 DUP4 PUSH2 0x1200 JUMP JUMPDEST SWAP2 POP PUSH2 0xF9A DUP3 PUSH2 0x1494 JUMP JUMPDEST PUSH1 0x20 DUP3 ADD SWAP1 POP SWAP2 SWAP1 POP JUMP JUMPDEST PUSH1 0x0 PUSH2 0xFB2 PUSH1 0x17 DUP4 PUSH2 0x1200 JUMP JUMPDEST SWAP2 POP PUSH2 0xFBD DUP3 PUSH2 0x14BD JUMP JUMPDEST PUSH1 0x20 DUP3 ADD SWAP1 POP SWAP2 SWAP1 POP JUMP JUMPDEST PUSH1 0x0 PUSH2 0xFD5 PUSH1 0x18 DUP4 PUSH2 0x1200 JUMP JUMPDEST SWAP2 POP PUSH2 0xFE0 DUP3 PUSH2 0x14E6 JUMP JUMPDEST PUSH1 0x20 DUP3 ADD SWAP1 POP SWAP2 SWAP1 POP JUMP JUMPDEST PUSH1 0x0 PUSH2 0xFF8 PUSH1 0x18 DUP4 PUSH2 0x1200 JUMP JUMPDEST SWAP2 POP PUSH2 0x1003 DUP3 PUSH2 0x150F JUMP JUMPDEST PUSH1 0x20 DUP3 ADD SWAP1 POP SWAP2 SWAP1 POP JUMP JUMPDEST PUSH2 0x1017 DUP2 PUSH2 0x1243 JUMP JUMPDEST DUP3 MSTORE POP POP JUMP JUMPDEST PUSH2 0x1026 DUP2 PUSH2 0x1243 JUMP JUMPDEST DUP3 MSTORE POP POP JUMP JUMPDEST PUSH1 0x0 PUSH1 0x20 DUP3 ADD SWAP1 POP PUSH2 0x1041 PUSH1 0x0 DUP4 ADD DUP5 PUSH2 0xE96 JUMP JUMPDEST SWAP3 SWAP2 POP POP JUMP JUMPDEST PUSH1 0x0 PUSH1 0x20 DUP3 ADD SWAP1 POP DUP2 DUP2 SUB PUSH1 0x0 DUP4 ADD MSTORE PUSH2 0x1061 DUP2 DUP5 PUSH2 0xEA5 JUMP JUMPDEST SWAP1 POP SWAP3 SWAP2 POP POP JUMP JUMPDEST PUSH1 0x0 PUSH1 0x20 DUP3 ADD SWAP1 POP DUP2 DUP2 SUB PUSH1 0x0 DUP4 ADD MSTORE PUSH2 0x1083 DUP2 DUP5 PUSH2 0xF03 JUMP JUMPDEST SWAP1 POP SWAP3 SWAP2 POP POP JUMP JUMPDEST PUSH1 0x0 PUSH1 0x20 DUP3 ADD SWAP1 POP DUP2 DUP2 SUB PUSH1 0x0 DUP4 ADD MSTORE PUSH2 0x10A4 DUP2 PUSH2 0xF3C JUMP JUMPDEST SWAP1 POP SWAP2 SWAP1 POP JUMP JUMPDEST PUSH1 0x0 PUSH1 0x20 DUP3 ADD SWAP1 POP DUP2 DUP2 SUB PUSH1 0x0 DUP4 ADD MSTORE PUSH2 0x10C4 DUP2 PUSH2 0xF5F JUMP JUMPDEST SWAP1 POP SWAP2 SWAP1 POP JUMP JUMPDEST PUSH1 0x0 PUSH1 0x20 DUP3 ADD SWAP1 POP DUP2 DUP2 SUB PUSH1 0x0 DUP4 ADD MSTORE PUSH2 0x10E4 DUP2 PUSH2 0xF82 JUMP JUMPDEST SWAP1 POP SWAP2 SWAP1 POP JUMP JUMPDEST PUSH1 0x0 PUSH1 0x20 DUP3 ADD SWAP1 POP DUP2 DUP2 SUB PUSH1 0x0 DUP4 ADD MSTORE PUSH2 0x1104 DUP2 PUSH2 0xFA5 JUMP JUMPDEST SWAP1 POP SWAP2 SWAP1 POP JUMP JUMPDEST PUSH1 0x0 PUSH1 0x20 DUP3 ADD SWAP1 POP DUP2 DUP2 SUB PUSH1 0x0 DUP4 ADD MSTORE PUSH2 0x1124 DUP2 PUSH2 0xFC8 JUMP JUMPDEST SWAP1 POP SWAP2 SWAP1 POP JUMP JUMPDEST PUSH1 0x0 PUSH1 0x20 DUP3 ADD SWAP1 POP DUP2 DUP2 SUB PUSH1 0x0 DUP4 ADD MSTORE PUSH2 0x1144 DUP2 PUSH2 0xFEB JUMP JUMPDEST SWAP1 POP SWAP2 SWAP1 POP JUMP JUMPDEST PUSH1 0x0 PUSH1 0x20 DUP3 ADD SWAP1 POP PUSH2 0x1160 PUSH1 0x0 DUP4 ADD DUP5 PUSH2 0x101D JUMP JUMPDEST SWAP3 SWAP2 POP POP JUMP JUMPDEST PUSH1 0x0 PUSH2 0x1170 PUSH2 0x1181 JUMP JUMPDEST SWAP1 POP PUSH2 0x117C DUP3 DUP3 PUSH2 0x12C1 JUMP JUMPDEST SWAP2 SWAP1 POP JUMP JUMPDEST PUSH1 0x0 PUSH1 0x40 MLOAD SWAP1 POP SWAP1 JUMP JUMPDEST PUSH1 0x0 PUSH8 0xFFFFFFFFFFFFFFFF DUP3 GT ISZERO PUSH2 0x11A6 JUMPI PUSH2 0x11A5 PUSH2 0x13C8 JUMP JUMPDEST JUMPDEST PUSH2 0x11AF DUP3 PUSH2 0x140B JUMP JUMPDEST SWAP1 POP PUSH1 0x20 DUP2 ADD SWAP1 POP SWAP2 SWAP1 POP JUMP JUMPDEST PUSH1 0x0 DUP2 SWAP1 POP PUSH1 0x20 DUP3 ADD SWAP1 POP SWAP2 SWAP1 POP JUMP JUMPDEST PUSH1 0x0 DUP2 MLOAD SWAP1 POP SWAP2 SWAP1 POP JUMP JUMPDEST PUSH1 0x0 DUP2 MLOAD SWAP1 POP SWAP2 SWAP1 POP JUMP JUMPDEST PUSH1 0x0 PUSH1 0x20 DUP3 ADD SWAP1 POP SWAP2 SWAP1 POP JUMP JUMPDEST PUSH1 0x0 DUP3 DUP3 MSTORE PUSH1 0x20 DUP3 ADD SWAP1 POP SWAP3 SWAP2 POP POP JUMP JUMPDEST PUSH1 0x0 DUP3 DUP3 MSTORE PUSH1 0x20 DUP3 ADD SWAP1 POP SWAP3 SWAP2 POP POP JUMP JUMPDEST PUSH1 0x0 PUSH2 0x121C DUP3 PUSH2 0x1223 JUMP JUMPDEST SWAP1 POP SWAP2 SWAP1 POP JUMP JUMPDEST PUSH1 0x0 PUSH20 0xFFFFFFFFFFFFFFFFFFFFFFFFFFFFFFFFFFFFFFFF DUP3 AND SWAP1 POP SWAP2 SWAP1 POP JUMP JUMPDEST PUSH1 0x0 DUP2 SWAP1 POP SWAP2 SWAP1 POP JUMP JUMPDEST DUP3 DUP2 DUP4 CALLDATACOPY PUSH1 0x0 DUP4 DUP4 ADD MSTORE POP POP POP JUMP JUMPDEST PUSH1 0x0 JUMPDEST DUP4 DUP2 LT ISZERO PUSH2 0x127A JUMPI DUP1 DUP3 ADD MLOAD DUP2 DUP5 ADD MSTORE PUSH1 0x20 DUP2 ADD SWAP1 POP PUSH2 0x125F JUMP JUMPDEST DUP4 DUP2 GT ISZERO PUSH2 0x1289 JUMPI PUSH1 0x0 DUP5 DUP5 ADD MSTORE JUMPDEST POP POP POP POP JUMP JUMPDEST PUSH1 0x0 PUSH1 0x2 DUP3 DIV SWAP1 POP PUSH1 0x1 DUP3 AND DUP1 PUSH2 0x12A7 JUMPI PUSH1 0x7F DUP3 AND SWAP2 POP JUMPDEST PUSH1 0x20 DUP3 LT DUP2 EQ ISZERO PUSH2 0x12BB JUMPI PUSH2 0x12BA PUSH2 0x136A JUMP JUMPDEST JUMPDEST POP SWAP2 SWAP1 POP JUMP JUMPDEST PUSH2 0x12CA DUP3 PUSH2 0x140B JUMP JUMPDEST DUP2 ADD DUP2 DUP2 LT PUSH8 0xFFFFFFFFFFFFFFFF DUP3 GT OR ISZERO PUSH2 0x12E9 JUMPI PUSH2 0x12E8 PUSH2 0x13C8 JUMP JUMPDEST JUMPDEST DUP1 PUSH1 0x40 MSTORE POP POP POP JUMP JUMPDEST PUSH1 0x0 PUSH2 0x12FD DUP3 PUSH2 0x1243 JUMP JUMPDEST SWAP2 POP PUSH32 0xFFFFFFFFFFFFFFFFFFFFFFFFFFFFFFFFFFFFFFFFFFFFFFFFFFFFFFFFFFFFFFFF DUP3 EQ ISZERO PUSH2 0x1330 JUMPI PUSH2 0x132F PUSH2 0x133B JUMP JUMPDEST JUMPDEST PUSH1 0x1 DUP3 ADD SWAP1 POP SWAP2 SWAP1 POP JUMP JUMPDEST PUSH32 0x4E487B7100000000000000000000000000000000000000000000000000000000 PUSH1 0x0 MSTORE PUSH1 0x11 PUSH1 0x4 MSTORE PUSH1 0x24 PUSH1 0x0 REVERT JUMPDEST PUSH32 0x4E487B7100000000000000000000000000000000000000000000000000000000 PUSH1 0x0 MSTORE PUSH1 0x22 PUSH1 0x4 MSTORE PUSH1 0x24 PUSH1 0x0 REVERT JUMPDEST PUSH32 0x4E487B7100000000000000000000000000000000000000000000000000000000 PUSH1 0x0 MSTORE PUSH1 0x32 PUSH1 0x4 MSTORE PUSH1 0x24 PUSH1 0x0 REVERT JUMPDEST PUSH32 0x4E487B7100000000000000000000000000000000000000000000000000000000 PUSH1 0x0 MSTORE PUSH1 0x41 PUSH1 0x4 MSTORE PUSH1 0x24 PUSH1 0x0 REVERT JUMPDEST PUSH1 0x0 DUP1 REVERT JUMPDEST PUSH1 0x0 DUP1 REVERT JUMPDEST PUSH1 0x0 DUP1 REVERT JUMPDEST PUSH1 0x0 DUP1 REVERT JUMPDEST PUSH1 0x0 PUSH1 0x1F NOT PUSH1 0x1F DUP4 ADD AND SWAP1 POP SWAP2 SWAP1 POP JUMP JUMPDEST PUSH32 0x4552433732313A207472616E7366657220746F20746865207A65726F20616464 PUSH1 0x0 DUP3 ADD MSTORE PUSH32 0x7265737300000000000000000000000000000000000000000000000000000000 PUSH1 0x20 DUP3 ADD MSTORE POP JUMP JUMPDEST PUSH32 0x746F6B656E20616C726561647920657869737400000000000000000000000000 PUSH1 0x0 DUP3 ADD MSTORE POP JUMP JUMPDEST PUSH32 0x746F6B656E20646F65736E277420657869737400000000000000000000000000 PUSH1 0x0 DUP3 ADD MSTORE POP JUMP JUMPDEST PUSH32 0x4E6F742063616C6C656420627920746865206F776E6572000000000000000000 PUSH1 0x0 DUP3 ADD MSTORE POP JUMP JUMPDEST PUSH32 0x4552433732313A20696E76616C696420746F6B656E2049440000000000000000 PUSH1 0x0 DUP3 ADD MSTORE POP JUMP JUMPDEST PUSH32 0x6D696E7420746F20746865207A65726F20616464726573730000000000000000 PUSH1 0x0 DUP3 ADD MSTORE POP JUMP JUMPDEST PUSH2 0x1541 DUP2 PUSH2 0x1211 JUMP JUMPDEST DUP2 EQ PUSH2 0x154C JUMPI PUSH1 0x0 DUP1 REVERT JUMPDEST POP JUMP JUMPDEST PUSH2 0x1558 DUP2 PUSH2 0x1243 JUMP JUMPDEST DUP2 EQ PUSH2 0x1563 JUMPI PUSH1 0x0 DUP1 REVERT JUMPDEST POP JUMP INVALID LOG2 PUSH5 0x6970667358 0x22 SLT KECCAK256 0xFB 0xC DUP3 0xBD 0xC4 0xD6 0xD9 GT PUSH17 0x9F8AAFDB9DBEFDB47090A4470995528C1 PUSH30 0x32782A879664736F6C634300080700330000000000000000000000000000 "
				},
				"gasEstimates": {
					"creation": {
						"codeDepositCost": "1106400",
						"executionCost": "infinite",
						"totalCost": "infinite"
					},
					"external": {
						"balanceOf(address)": "2841",
						"mint(string)": "infinite",
						"name()": "infinite",
						"ownerOf(uint256)": "3026",
						"symbol()": "infinite",
						"tokenToUri(uint256)": "infinite",
						"transferFrom(address,address,uint256)": "infinite",
						"walletOfOwner(address)": "infinite"
					}
				},
				"methodIdentifiers": {
					"balanceOf(address)": "70a08231",
					"mint(string)": "d85d3d27",
					"name()": "06fdde03",
					"ownerOf(uint256)": "6352211e",
					"symbol()": "95d89b41",
					"tokenToUri(uint256)": "bf59b347",
					"transferFrom(address,address,uint256)": "23b872dd",
					"walletOfOwner(address)": "438b6300"
				}
			},
			"storageLayout": {
				"storage": [
					{
						"astId": 3,
						"contract": "contracts/GeekNft.sol:GeekNft",
						"label": "_name",
						"offset": 0,
						"slot": "0",
						"type": "t_string_storage"
					},
					{
						"astId": 5,
						"contract": "contracts/GeekNft.sol:GeekNft",
						"label": "_symbol",
						"offset": 0,
						"slot": "1",
						"type": "t_string_storage"
					},
					{
						"astId": 9,
						"contract": "contracts/GeekNft.sol:GeekNft",
						"label": "tokensOwnerCount",
						"offset": 0,
						"slot": "2",
						"type": "t_mapping(t_address,t_uint256)"
					},
					{
						"astId": 13,
						"contract": "contracts/GeekNft.sol:GeekNft",
						"label": "tokenToOwner",
						"offset": 0,
						"slot": "3",
						"type": "t_mapping(t_uint256,t_address)"
					},
					{
						"astId": 17,
						"contract": "contracts/GeekNft.sol:GeekNft",
						"label": "tokensCreatorCount",
						"offset": 0,
						"slot": "4",
						"type": "t_mapping(t_address,t_uint256)"
					},
					{
						"astId": 21,
						"contract": "contracts/GeekNft.sol:GeekNft",
						"label": "tokenToCreator",
						"offset": 0,
						"slot": "5",
						"type": "t_mapping(t_uint256,t_address)"
					},
					{
						"astId": 25,
						"contract": "contracts/GeekNft.sol:GeekNft",
						"label": "tokenToUri",
						"offset": 0,
						"slot": "6",
						"type": "t_mapping(t_uint256,t_string_storage)"
					},
					{
						"astId": 263,
						"contract": "contracts/GeekNft.sol:GeekNft",
						"label": "tokenIds",
						"offset": 0,
						"slot": "7",
						"type": "t_struct(Counter)382_storage"
					},
					{
						"astId": 265,
						"contract": "contracts/GeekNft.sol:GeekNft",
						"label": "marketplaceAddress",
						"offset": 0,
						"slot": "8",
						"type": "t_address"
					}
				],
				"types": {
					"t_address": {
						"encoding": "inplace",
						"label": "address",
						"numberOfBytes": "20"
					},
					"t_mapping(t_address,t_uint256)": {
						"encoding": "mapping",
						"key": "t_address",
						"label": "mapping(address => uint256)",
						"numberOfBytes": "32",
						"value": "t_uint256"
					},
					"t_mapping(t_uint256,t_address)": {
						"encoding": "mapping",
						"key": "t_uint256",
						"label": "mapping(uint256 => address)",
						"numberOfBytes": "32",
						"value": "t_address"
					},
					"t_mapping(t_uint256,t_string_storage)": {
						"encoding": "mapping",
						"key": "t_uint256",
						"label": "mapping(uint256 => string)",
						"numberOfBytes": "32",
						"value": "t_string_storage"
					},
					"t_string_storage": {
						"encoding": "bytes",
						"label": "string",
						"numberOfBytes": "32"
					},
					"t_struct(Counter)382_storage": {
						"encoding": "inplace",
						"label": "struct Counters.Counter",
						"members": [
							{
								"astId": 381,
								"contract": "contracts/GeekNft.sol:GeekNft",
								"label": "_value",
								"offset": 0,
								"slot": "0",
								"type": "t_uint256"
							}
						],
						"numberOfBytes": "32"
					},
					"t_uint256": {
						"encoding": "inplace",
						"label": "uint256",
						"numberOfBytes": "32"
					}
				}
			},
			"userdoc": {
				"kind": "user",
				"methods": {},
				"version": 1
			}
		}
	}
}