{
	"contracts/GeekNft.sol": {
		"GeekNft": {
			"abi": [
				{
					"inputs": [
						{
							"internalType": "address",
							"name": "marketplaceAddress_",
							"type": "address"
						},
						{
							"internalType": "string",
							"name": "name_",
							"type": "string"
						},
						{
							"internalType": "string",
							"name": "symbol_",
							"type": "string"
						}
					],
					"stateMutability": "nonpayable",
					"type": "constructor"
				},
				{
					"anonymous": false,
					"inputs": [
						{
							"indexed": false,
							"internalType": "uint256",
							"name": "",
							"type": "uint256"
						}
					],
					"name": "NftMinted",
					"type": "event"
				},
				{
					"anonymous": false,
					"inputs": [
						{
							"indexed": true,
							"internalType": "address",
							"name": "from",
							"type": "address"
						},
						{
							"indexed": true,
							"internalType": "address",
							"name": "to",
							"type": "address"
						},
						{
							"indexed": false,
							"internalType": "uint256",
							"name": "tokenId",
							"type": "uint256"
						}
					],
					"name": "Transfer",
					"type": "event"
				},
				{
					"inputs": [
						{
							"internalType": "string",
							"name": "_tokenUri",
							"type": "string"
						}
					],
					"name": "mint",
					"outputs": [],
					"stateMutability": "nonpayable",
					"type": "function"
				},
				{
					"inputs": [],
					"name": "name",
					"outputs": [
						{
							"internalType": "string",
							"name": "",
							"type": "string"
						}
					],
					"stateMutability": "view",
					"type": "function"
				},
				{
					"inputs": [],
					"name": "symbol",
					"outputs": [
						{
							"internalType": "string",
							"name": "",
							"type": "string"
						}
					],
					"stateMutability": "view",
					"type": "function"
				},
				{
					"inputs": [
						{
							"internalType": "address",
							"name": "_from",
							"type": "address"
						},
						{
							"internalType": "address",
							"name": "_to",
							"type": "address"
						},
						{
							"internalType": "uint256",
							"name": "_tokenId",
							"type": "uint256"
						}
					],
					"name": "transferFrom",
					"outputs": [],
					"stateMutability": "nonpayable",
					"type": "function"
				}
			],
			"devdoc": {
				"kind": "dev",
				"methods": {},
				"version": 1
			},
			"evm": {
				"assembly": "    /* \"contracts/GeekNft.sol\":83:2350  contract GeekNft {... */\n  mstore(0x40, 0x80)\n    /* \"contracts/GeekNft.sol\":606:797  constructor(address marketplaceAddress_, string memory name_, string memory symbol_){... */\n  callvalue\n  dup1\n  iszero\n  tag_1\n  jumpi\n  0x00\n  dup1\n  revert\ntag_1:\n  pop\n  mload(0x40)\n  sub(codesize, bytecodeSize)\n  dup1\n  bytecodeSize\n  dup4\n  codecopy\n  dup2\n  dup2\n  add\n  0x40\n  mstore\n  dup2\n  add\n  swap1\n  tag_2\n  swap2\n  swap1\n  tag_3\n  jump\t// in\ntag_2:\n    /* \"contracts/GeekNft.sol\":721:740  marketplaceAddress_ */\n  dup3\n    /* \"contracts/GeekNft.sol\":700:718  marketplaceAddress */\n  0x03\n  0x00\n    /* \"contracts/GeekNft.sol\":700:740  marketplaceAddress = marketplaceAddress_ */\n  0x0100\n  exp\n  dup2\n  sload\n  dup2\n  0xffffffffffffffffffffffffffffffffffffffff\n  mul\n  not\n  and\n  swap1\n  dup4\n  0xffffffffffffffffffffffffffffffffffffffff\n  and\n  mul\n  or\n  swap1\n  sstore\n  pop\n    /* \"contracts/GeekNft.sol\":758:763  name_ */\n  dup2\n    /* \"contracts/GeekNft.sol\":750:755  _name */\n  0x00\n    /* \"contracts/GeekNft.sol\":750:763  _name = name_ */\n  swap1\n  dup1\n  mload\n  swap1\n  0x20\n  add\n  swap1\n  tag_6\n  swap3\n  swap2\n  swap1\n  tag_7\n  jump\t// in\ntag_6:\n  pop\n    /* \"contracts/GeekNft.sol\":783:790  symbol_ */\n  dup1\n    /* \"contracts/GeekNft.sol\":773:780  _symbol */\n  0x01\n    /* \"contracts/GeekNft.sol\":773:790  _symbol = symbol_ */\n  swap1\n  dup1\n  mload\n  swap1\n  0x20\n  add\n  swap1\n  tag_8\n  swap3\n  swap2\n  swap1\n  tag_7\n  jump\t// in\ntag_8:\n  pop\n    /* \"contracts/GeekNft.sol\":606:797  constructor(address marketplaceAddress_, string memory name_, string memory symbol_){... */\n  pop\n  pop\n  pop\n    /* \"contracts/GeekNft.sol\":83:2350  contract GeekNft {... */\n  jump(tag_9)\ntag_7:\n  dup3\n  dup1\n  sload\n  tag_10\n  swap1\n  tag_11\n  jump\t// in\ntag_10:\n  swap1\n  0x00\n  mstore\n  keccak256(0x00, 0x20)\n  swap1\n  0x1f\n  add\n  0x20\n  swap1\n  div\n  dup2\n  add\n  swap3\n  dup3\n  tag_13\n  jumpi\n  0x00\n  dup6\n  sstore\n  jump(tag_12)\ntag_13:\n  dup3\n  0x1f\n  lt\n  tag_14\n  jumpi\n  dup1\n  mload\n  not(0xff)\n  and\n  dup4\n  dup1\n  add\n  or\n  dup6\n  sstore\n  jump(tag_12)\ntag_14:\n  dup3\n  dup1\n  add\n  0x01\n  add\n  dup6\n  sstore\n  dup3\n  iszero\n  tag_12\n  jumpi\n  swap2\n  dup3\n  add\ntag_15:\n  dup3\n  dup2\n  gt\n  iszero\n  tag_16\n  jumpi\n  dup3\n  mload\n  dup3\n  sstore\n  swap2\n  0x20\n  add\n  swap2\n  swap1\n  0x01\n  add\n  swap1\n  jump(tag_15)\ntag_16:\ntag_12:\n  pop\n  swap1\n  pop\n  tag_17\n  swap2\n  swap1\n  tag_18\n  jump\t// in\ntag_17:\n  pop\n  swap1\n  jump\t// out\ntag_18:\ntag_19:\n  dup1\n  dup3\n  gt\n  iszero\n  tag_20\n  jumpi\n  0x00\n  dup2\n  0x00\n  swap1\n  sstore\n  pop\n  0x01\n  add\n  jump(tag_19)\ntag_20:\n  pop\n  swap1\n  jump\t// out\n    /* \"#utility.yul\":7:361   */\ntag_22:\n  0x00\n    /* \"#utility.yul\":121:187   */\n  tag_24\n    /* \"#utility.yul\":137:186   */\n  tag_25\n    /* \"#utility.yul\":179:185   */\n  dup5\n    /* \"#utility.yul\":137:186   */\n  tag_26\n  jump\t// in\ntag_25:\n    /* \"#utility.yul\":121:187   */\n  tag_27\n  jump\t// in\ntag_24:\n    /* \"#utility.yul\":112:187   */\n  swap1\n  pop\n    /* \"#utility.yul\":210:216   */\n  dup3\n    /* \"#utility.yul\":203:208   */\n  dup2\n    /* \"#utility.yul\":196:217   */\n  mstore\n    /* \"#utility.yul\":248:252   */\n  0x20\n    /* \"#utility.yul\":241:246   */\n  dup2\n    /* \"#utility.yul\":237:253   */\n  add\n    /* \"#utility.yul\":286:289   */\n  dup5\n    /* \"#utility.yul\":277:283   */\n  dup5\n    /* \"#utility.yul\":272:275   */\n  dup5\n    /* \"#utility.yul\":268:284   */\n  add\n    /* \"#utility.yul\":265:290   */\n  gt\n    /* \"#utility.yul\":262:264   */\n  iszero\n  tag_28\n  jumpi\n    /* \"#utility.yul\":303:304   */\n  0x00\n    /* \"#utility.yul\":300:301   */\n  dup1\n    /* \"#utility.yul\":293:305   */\n  revert\n    /* \"#utility.yul\":262:264   */\ntag_28:\n    /* \"#utility.yul\":316:355   */\n  tag_29\n    /* \"#utility.yul\":348:354   */\n  dup5\n    /* \"#utility.yul\":343:346   */\n  dup3\n    /* \"#utility.yul\":338:341   */\n  dup6\n    /* \"#utility.yul\":316:355   */\n  tag_30\n  jump\t// in\ntag_29:\n    /* \"#utility.yul\":102:361   */\n  pop\n  swap4\n  swap3\n  pop\n  pop\n  pop\n  jump\t// out\n    /* \"#utility.yul\":367:510   */\ntag_31:\n  0x00\n    /* \"#utility.yul\":455:461   */\n  dup2\n    /* \"#utility.yul\":449:462   */\n  mload\n    /* \"#utility.yul\":440:462   */\n  swap1\n  pop\n    /* \"#utility.yul\":471:504   */\n  tag_33\n    /* \"#utility.yul\":498:503   */\n  dup2\n    /* \"#utility.yul\":471:504   */\n  tag_34\n  jump\t// in\ntag_33:\n    /* \"#utility.yul\":430:510   */\n  swap3\n  swap2\n  pop\n  pop\n  jump\t// out\n    /* \"#utility.yul\":530:818   */\ntag_35:\n  0x00\n    /* \"#utility.yul\":646:649   */\n  dup3\n    /* \"#utility.yul\":639:643   */\n  0x1f\n    /* \"#utility.yul\":631:637   */\n  dup4\n    /* \"#utility.yul\":627:644   */\n  add\n    /* \"#utility.yul\":623:650   */\n  slt\n    /* \"#utility.yul\":613:615   */\n  tag_37\n  jumpi\n    /* \"#utility.yul\":664:665   */\n  0x00\n    /* \"#utility.yul\":661:662   */\n  dup1\n    /* \"#utility.yul\":654:666   */\n  revert\n    /* \"#utility.yul\":613:615   */\ntag_37:\n    /* \"#utility.yul\":697:703   */\n  dup2\n    /* \"#utility.yul\":691:704   */\n  mload\n    /* \"#utility.yul\":722:812   */\n  tag_38\n    /* \"#utility.yul\":808:811   */\n  dup5\n    /* \"#utility.yul\":800:806   */\n  dup3\n    /* \"#utility.yul\":793:797   */\n  0x20\n    /* \"#utility.yul\":785:791   */\n  dup7\n    /* \"#utility.yul\":781:798   */\n  add\n    /* \"#utility.yul\":722:812   */\n  tag_22\n  jump\t// in\ntag_38:\n    /* \"#utility.yul\":713:812   */\n  swap2\n  pop\n    /* \"#utility.yul\":603:818   */\n  pop\n  swap3\n  swap2\n  pop\n  pop\n  jump\t// out\n    /* \"#utility.yul\":824:1632   */\ntag_3:\n  0x00\n  dup1\n  0x00\n    /* \"#utility.yul\":997:999   */\n  0x60\n    /* \"#utility.yul\":985:994   */\n  dup5\n    /* \"#utility.yul\":976:983   */\n  dup7\n    /* \"#utility.yul\":972:995   */\n  sub\n    /* \"#utility.yul\":968:1000   */\n  slt\n    /* \"#utility.yul\":965:967   */\n  iszero\n  tag_40\n  jumpi\n    /* \"#utility.yul\":1013:1014   */\n  0x00\n    /* \"#utility.yul\":1010:1011   */\n  dup1\n    /* \"#utility.yul\":1003:1015   */\n  revert\n    /* \"#utility.yul\":965:967   */\ntag_40:\n    /* \"#utility.yul\":1056:1057   */\n  0x00\n    /* \"#utility.yul\":1081:1145   */\n  tag_41\n    /* \"#utility.yul\":1137:1144   */\n  dup7\n    /* \"#utility.yul\":1128:1134   */\n  dup3\n    /* \"#utility.yul\":1117:1126   */\n  dup8\n    /* \"#utility.yul\":1113:1135   */\n  add\n    /* \"#utility.yul\":1081:1145   */\n  tag_31\n  jump\t// in\ntag_41:\n    /* \"#utility.yul\":1071:1145   */\n  swap4\n  pop\n    /* \"#utility.yul\":1027:1155   */\n  pop\n    /* \"#utility.yul\":1215:1217   */\n  0x20\n    /* \"#utility.yul\":1204:1213   */\n  dup5\n    /* \"#utility.yul\":1200:1218   */\n  add\n    /* \"#utility.yul\":1194:1219   */\n  mload\n    /* \"#utility.yul\":1246:1264   */\n  0xffffffffffffffff\n    /* \"#utility.yul\":1238:1244   */\n  dup2\n    /* \"#utility.yul\":1235:1265   */\n  gt\n    /* \"#utility.yul\":1232:1234   */\n  iszero\n  tag_42\n  jumpi\n    /* \"#utility.yul\":1278:1279   */\n  0x00\n    /* \"#utility.yul\":1275:1276   */\n  dup1\n    /* \"#utility.yul\":1268:1280   */\n  revert\n    /* \"#utility.yul\":1232:1234   */\ntag_42:\n    /* \"#utility.yul\":1306:1380   */\n  tag_43\n    /* \"#utility.yul\":1372:1379   */\n  dup7\n    /* \"#utility.yul\":1363:1369   */\n  dup3\n    /* \"#utility.yul\":1352:1361   */\n  dup8\n    /* \"#utility.yul\":1348:1370   */\n  add\n    /* \"#utility.yul\":1306:1380   */\n  tag_35\n  jump\t// in\ntag_43:\n    /* \"#utility.yul\":1296:1380   */\n  swap3\n  pop\n    /* \"#utility.yul\":1165:1390   */\n  pop\n    /* \"#utility.yul\":1450:1452   */\n  0x40\n    /* \"#utility.yul\":1439:1448   */\n  dup5\n    /* \"#utility.yul\":1435:1453   */\n  add\n    /* \"#utility.yul\":1429:1454   */\n  mload\n    /* \"#utility.yul\":1481:1499   */\n  0xffffffffffffffff\n    /* \"#utility.yul\":1473:1479   */\n  dup2\n    /* \"#utility.yul\":1470:1500   */\n  gt\n    /* \"#utility.yul\":1467:1469   */\n  iszero\n  tag_44\n  jumpi\n    /* \"#utility.yul\":1513:1514   */\n  0x00\n    /* \"#utility.yul\":1510:1511   */\n  dup1\n    /* \"#utility.yul\":1503:1515   */\n  revert\n    /* \"#utility.yul\":1467:1469   */\ntag_44:\n    /* \"#utility.yul\":1541:1615   */\n  tag_45\n    /* \"#utility.yul\":1607:1614   */\n  dup7\n    /* \"#utility.yul\":1598:1604   */\n  dup3\n    /* \"#utility.yul\":1587:1596   */\n  dup8\n    /* \"#utility.yul\":1583:1605   */\n  add\n    /* \"#utility.yul\":1541:1615   */\n  tag_35\n  jump\t// in\ntag_45:\n    /* \"#utility.yul\":1531:1615   */\n  swap2\n  pop\n    /* \"#utility.yul\":1400:1625   */\n  pop\n    /* \"#utility.yul\":955:1632   */\n  swap3\n  pop\n  swap3\n  pop\n  swap3\n  jump\t// out\n    /* \"#utility.yul\":1638:1767   */\ntag_27:\n  0x00\n    /* \"#utility.yul\":1699:1719   */\n  tag_47\n  tag_48\n  jump\t// in\ntag_47:\n    /* \"#utility.yul\":1689:1719   */\n  swap1\n  pop\n    /* \"#utility.yul\":1728:1761   */\n  tag_49\n    /* \"#utility.yul\":1756:1760   */\n  dup3\n    /* \"#utility.yul\":1748:1754   */\n  dup3\n    /* \"#utility.yul\":1728:1761   */\n  tag_50\n  jump\t// in\ntag_49:\n    /* \"#utility.yul\":1679:1767   */\n  swap2\n  swap1\n  pop\n  jump\t// out\n    /* \"#utility.yul\":1773:1848   */\ntag_48:\n  0x00\n    /* \"#utility.yul\":1839:1841   */\n  0x40\n    /* \"#utility.yul\":1833:1842   */\n  mload\n    /* \"#utility.yul\":1823:1842   */\n  swap1\n  pop\n    /* \"#utility.yul\":1813:1848   */\n  swap1\n  jump\t// out\n    /* \"#utility.yul\":1854:2162   */\ntag_26:\n  0x00\n    /* \"#utility.yul\":2006:2024   */\n  0xffffffffffffffff\n    /* \"#utility.yul\":1998:2004   */\n  dup3\n    /* \"#utility.yul\":1995:2025   */\n  gt\n    /* \"#utility.yul\":1992:1994   */\n  iszero\n  tag_53\n  jumpi\n    /* \"#utility.yul\":2028:2046   */\n  tag_54\n  tag_55\n  jump\t// in\ntag_54:\n    /* \"#utility.yul\":1992:1994   */\ntag_53:\n    /* \"#utility.yul\":2066:2095   */\n  tag_56\n    /* \"#utility.yul\":2088:2094   */\n  dup3\n    /* \"#utility.yul\":2066:2095   */\n  tag_57\n  jump\t// in\ntag_56:\n    /* \"#utility.yul\":2058:2095   */\n  swap1\n  pop\n    /* \"#utility.yul\":2150:2154   */\n  0x20\n    /* \"#utility.yul\":2144:2148   */\n  dup2\n    /* \"#utility.yul\":2140:2155   */\n  add\n    /* \"#utility.yul\":2132:2155   */\n  swap1\n  pop\n    /* \"#utility.yul\":1921:2162   */\n  swap2\n  swap1\n  pop\n  jump\t// out\n    /* \"#utility.yul\":2168:2264   */\ntag_58:\n  0x00\n    /* \"#utility.yul\":2234:2258   */\n  tag_60\n    /* \"#utility.yul\":2252:2257   */\n  dup3\n    /* \"#utility.yul\":2234:2258   */\n  tag_61\n  jump\t// in\ntag_60:\n    /* \"#utility.yul\":2223:2258   */\n  swap1\n  pop\n    /* \"#utility.yul\":2213:2264   */\n  swap2\n  swap1\n  pop\n  jump\t// out\n    /* \"#utility.yul\":2270:2396   */\ntag_61:\n  0x00\n    /* \"#utility.yul\":2347:2389   */\n  0xffffffffffffffffffffffffffffffffffffffff\n    /* \"#utility.yul\":2340:2345   */\n  dup3\n    /* \"#utility.yul\":2336:2390   */\n  and\n    /* \"#utility.yul\":2325:2390   */\n  swap1\n  pop\n    /* \"#utility.yul\":2315:2396   */\n  swap2\n  swap1\n  pop\n  jump\t// out\n    /* \"#utility.yul\":2402:2709   */\ntag_30:\n    /* \"#utility.yul\":2470:2471   */\n  0x00\n    /* \"#utility.yul\":2480:2593   */\ntag_64:\n    /* \"#utility.yul\":2494:2500   */\n  dup4\n    /* \"#utility.yul\":2491:2492   */\n  dup2\n    /* \"#utility.yul\":2488:2501   */\n  lt\n    /* \"#utility.yul\":2480:2593   */\n  iszero\n  tag_66\n  jumpi\n    /* \"#utility.yul\":2579:2580   */\n  dup1\n    /* \"#utility.yul\":2574:2577   */\n  dup3\n    /* \"#utility.yul\":2570:2581   */\n  add\n    /* \"#utility.yul\":2564:2582   */\n  mload\n    /* \"#utility.yul\":2560:2561   */\n  dup2\n    /* \"#utility.yul\":2555:2558   */\n  dup5\n    /* \"#utility.yul\":2551:2562   */\n  add\n    /* \"#utility.yul\":2544:2583   */\n  mstore\n    /* \"#utility.yul\":2516:2518   */\n  0x20\n    /* \"#utility.yul\":2513:2514   */\n  dup2\n    /* \"#utility.yul\":2509:2519   */\n  add\n    /* \"#utility.yul\":2504:2519   */\n  swap1\n  pop\n    /* \"#utility.yul\":2480:2593   */\n  jump(tag_64)\ntag_66:\n    /* \"#utility.yul\":2611:2617   */\n  dup4\n    /* \"#utility.yul\":2608:2609   */\n  dup2\n    /* \"#utility.yul\":2605:2618   */\n  gt\n    /* \"#utility.yul\":2602:2604   */\n  iszero\n  tag_67\n  jumpi\n    /* \"#utility.yul\":2691:2692   */\n  0x00\n    /* \"#utility.yul\":2682:2688   */\n  dup5\n    /* \"#utility.yul\":2677:2680   */\n  dup5\n    /* \"#utility.yul\":2673:2689   */\n  add\n    /* \"#utility.yul\":2666:2693   */\n  mstore\n    /* \"#utility.yul\":2602:2604   */\ntag_67:\n    /* \"#utility.yul\":2451:2709   */\n  pop\n  pop\n  pop\n  pop\n  jump\t// out\n    /* \"#utility.yul\":2715:3035   */\ntag_11:\n  0x00\n    /* \"#utility.yul\":2796:2797   */\n  0x02\n    /* \"#utility.yul\":2790:2794   */\n  dup3\n    /* \"#utility.yul\":2786:2798   */\n  div\n    /* \"#utility.yul\":2776:2798   */\n  swap1\n  pop\n    /* \"#utility.yul\":2843:2844   */\n  0x01\n    /* \"#utility.yul\":2837:2841   */\n  dup3\n    /* \"#utility.yul\":2833:2845   */\n  and\n    /* \"#utility.yul\":2864:2882   */\n  dup1\n    /* \"#utility.yul\":2854:2856   */\n  tag_69\n  jumpi\n    /* \"#utility.yul\":2920:2924   */\n  0x7f\n    /* \"#utility.yul\":2912:2918   */\n  dup3\n    /* \"#utility.yul\":2908:2925   */\n  and\n    /* \"#utility.yul\":2898:2925   */\n  swap2\n  pop\n    /* \"#utility.yul\":2854:2856   */\ntag_69:\n    /* \"#utility.yul\":2982:2984   */\n  0x20\n    /* \"#utility.yul\":2974:2980   */\n  dup3\n    /* \"#utility.yul\":2971:2985   */\n  lt\n    /* \"#utility.yul\":2951:2969   */\n  dup2\n    /* \"#utility.yul\":2948:2986   */\n  eq\n    /* \"#utility.yul\":2945:2947   */\n  iszero\n  tag_70\n  jumpi\n    /* \"#utility.yul\":3001:3019   */\n  tag_71\n  tag_72\n  jump\t// in\ntag_71:\n    /* \"#utility.yul\":2945:2947   */\ntag_70:\n    /* \"#utility.yul\":2766:3035   */\n  pop\n  swap2\n  swap1\n  pop\n  jump\t// out\n    /* \"#utility.yul\":3041:3322   */\ntag_50:\n    /* \"#utility.yul\":3124:3151   */\n  tag_74\n    /* \"#utility.yul\":3146:3150   */\n  dup3\n    /* \"#utility.yul\":3124:3151   */\n  tag_57\n  jump\t// in\ntag_74:\n    /* \"#utility.yul\":3116:3122   */\n  dup2\n    /* \"#utility.yul\":3112:3152   */\n  add\n    /* \"#utility.yul\":3254:3260   */\n  dup2\n    /* \"#utility.yul\":3242:3252   */\n  dup2\n    /* \"#utility.yul\":3239:3261   */\n  lt\n    /* \"#utility.yul\":3218:3236   */\n  0xffffffffffffffff\n    /* \"#utility.yul\":3206:3216   */\n  dup3\n    /* \"#utility.yul\":3203:3237   */\n  gt\n    /* \"#utility.yul\":3200:3262   */\n  or\n    /* \"#utility.yul\":3197:3199   */\n  iszero\n  tag_75\n  jumpi\n    /* \"#utility.yul\":3265:3283   */\n  tag_76\n  tag_55\n  jump\t// in\ntag_76:\n    /* \"#utility.yul\":3197:3199   */\ntag_75:\n    /* \"#utility.yul\":3305:3315   */\n  dup1\n    /* \"#utility.yul\":3301:3303   */\n  0x40\n    /* \"#utility.yul\":3294:3316   */\n  mstore\n    /* \"#utility.yul\":3084:3322   */\n  pop\n  pop\n  pop\n  jump\t// out\n    /* \"#utility.yul\":3328:3508   */\ntag_72:\n    /* \"#utility.yul\":3376:3453   */\n  0x4e487b7100000000000000000000000000000000000000000000000000000000\n    /* \"#utility.yul\":3373:3374   */\n  0x00\n    /* \"#utility.yul\":3366:3454   */\n  mstore\n    /* \"#utility.yul\":3473:3477   */\n  0x22\n    /* \"#utility.yul\":3470:3471   */\n  0x04\n    /* \"#utility.yul\":3463:3478   */\n  mstore\n    /* \"#utility.yul\":3497:3501   */\n  0x24\n    /* \"#utility.yul\":3494:3495   */\n  0x00\n    /* \"#utility.yul\":3487:3502   */\n  revert\n    /* \"#utility.yul\":3514:3694   */\ntag_55:\n    /* \"#utility.yul\":3562:3639   */\n  0x4e487b7100000000000000000000000000000000000000000000000000000000\n    /* \"#utility.yul\":3559:3560   */\n  0x00\n    /* \"#utility.yul\":3552:3640   */\n  mstore\n    /* \"#utility.yul\":3659:3663   */\n  0x41\n    /* \"#utility.yul\":3656:3657   */\n  0x04\n    /* \"#utility.yul\":3649:3664   */\n  mstore\n    /* \"#utility.yul\":3683:3687   */\n  0x24\n    /* \"#utility.yul\":3680:3681   */\n  0x00\n    /* \"#utility.yul\":3673:3688   */\n  revert\n    /* \"#utility.yul\":3700:3802   */\ntag_57:\n  0x00\n    /* \"#utility.yul\":3792:3794   */\n  0x1f\n    /* \"#utility.yul\":3788:3795   */\n  not\n    /* \"#utility.yul\":3783:3785   */\n  0x1f\n    /* \"#utility.yul\":3776:3781   */\n  dup4\n    /* \"#utility.yul\":3772:3786   */\n  add\n    /* \"#utility.yul\":3768:3796   */\n  and\n    /* \"#utility.yul\":3758:3796   */\n  swap1\n  pop\n    /* \"#utility.yul\":3748:3802   */\n  swap2\n  swap1\n  pop\n  jump\t// out\n    /* \"#utility.yul\":3808:3930   */\ntag_34:\n    /* \"#utility.yul\":3881:3905   */\n  tag_81\n    /* \"#utility.yul\":3899:3904   */\n  dup2\n    /* \"#utility.yul\":3881:3905   */\n  tag_58\n  jump\t// in\ntag_81:\n    /* \"#utility.yul\":3874:3879   */\n  dup2\n    /* \"#utility.yul\":3871:3906   */\n  eq\n    /* \"#utility.yul\":3861:3863   */\n  tag_82\n  jumpi\n    /* \"#utility.yul\":3920:3921   */\n  0x00\n    /* \"#utility.yul\":3917:3918   */\n  dup1\n    /* \"#utility.yul\":3910:3922   */\n  revert\n    /* \"#utility.yul\":3861:3863   */\ntag_82:\n    /* \"#utility.yul\":3851:3930   */\n  pop\n  jump\t// out\n    /* \"contracts/GeekNft.sol\":83:2350  contract GeekNft {... */\ntag_9:\n  dataSize(sub_0)\n  dup1\n  dataOffset(sub_0)\n  0x00\n  codecopy\n  0x00\n  return\nstop\n\nsub_0: assembly {\n        /* \"contracts/GeekNft.sol\":83:2350  contract GeekNft {... */\n      mstore(0x40, 0x80)\n      callvalue\n      dup1\n      iszero\n      tag_1\n      jumpi\n      0x00\n      dup1\n      revert\n    tag_1:\n      pop\n      jumpi(tag_2, lt(calldatasize, 0x04))\n      shr(0xe0, calldataload(0x00))\n      dup1\n      0x06fdde03\n      eq\n      tag_3\n      jumpi\n      dup1\n      0x23b872dd\n      eq\n      tag_4\n      jumpi\n      dup1\n      0x95d89b41\n      eq\n      tag_5\n      jumpi\n      dup1\n      0xd85d3d27\n      eq\n      tag_6\n      jumpi\n    tag_2:\n      0x00\n      dup1\n      revert\n        /* \"contracts/GeekNft.sol\":1063:1144  function name() public view returns (string memory) {... */\n    tag_3:\n      tag_7\n      tag_8\n      jump\t// in\n    tag_7:\n      mload(0x40)\n      tag_9\n      swap2\n      swap1\n      tag_10\n      jump\t// in\n    tag_9:\n      mload(0x40)\n      dup1\n      swap2\n      sub\n      swap1\n      return\n        /* \"contracts/GeekNft.sol\":1245:1670  function transferFrom(address _from, address _to, uint _tokenId) external {... */\n    tag_4:\n      tag_11\n      0x04\n      dup1\n      calldatasize\n      sub\n      dup2\n      add\n      swap1\n      tag_12\n      swap2\n      swap1\n      tag_13\n      jump\t// in\n    tag_12:\n      tag_14\n      jump\t// in\n    tag_11:\n      stop\n        /* \"contracts/GeekNft.sol\":1154:1239  function symbol() public view returns (string memory) {... */\n    tag_5:\n      tag_15\n      tag_16\n      jump\t// in\n    tag_15:\n      mload(0x40)\n      tag_17\n      swap2\n      swap1\n      tag_10\n      jump\t// in\n    tag_17:\n      mload(0x40)\n      dup1\n      swap2\n      sub\n      swap1\n      return\n        /* \"contracts/GeekNft.sol\":803:1056  function mint(string memory _tokenUri) public {... */\n    tag_6:\n      tag_18\n      0x04\n      dup1\n      calldatasize\n      sub\n      dup2\n      add\n      swap1\n      tag_19\n      swap2\n      swap1\n      tag_20\n      jump\t// in\n    tag_19:\n      tag_21\n      jump\t// in\n    tag_18:\n      stop\n        /* \"contracts/GeekNft.sol\":1063:1144  function name() public view returns (string memory) {... */\n    tag_8:\n        /* \"contracts/GeekNft.sol\":1100:1113  string memory */\n      0x60\n        /* \"contracts/GeekNft.sol\":1132:1137  _name */\n      0x00\n        /* \"contracts/GeekNft.sol\":1125:1137  return _name */\n      dup1\n      sload\n      tag_23\n      swap1\n      tag_24\n      jump\t// in\n    tag_23:\n      dup1\n      0x1f\n      add\n      0x20\n      dup1\n      swap2\n      div\n      mul\n      0x20\n      add\n      mload(0x40)\n      swap1\n      dup2\n      add\n      0x40\n      mstore\n      dup1\n      swap3\n      swap2\n      swap1\n      dup2\n      dup2\n      mstore\n      0x20\n      add\n      dup3\n      dup1\n      sload\n      tag_25\n      swap1\n      tag_24\n      jump\t// in\n    tag_25:\n      dup1\n      iszero\n      tag_26\n      jumpi\n      dup1\n      0x1f\n      lt\n      tag_27\n      jumpi\n      0x0100\n      dup1\n      dup4\n      sload\n      div\n      mul\n      dup4\n      mstore\n      swap2\n      0x20\n      add\n      swap2\n      jump(tag_26)\n    tag_27:\n      dup3\n      add\n      swap2\n      swap1\n      0x00\n      mstore\n      keccak256(0x00, 0x20)\n      swap1\n    tag_28:\n      dup2\n      sload\n      dup2\n      mstore\n      swap1\n      0x01\n      add\n      swap1\n      0x20\n      add\n      dup1\n      dup4\n      gt\n      tag_28\n      jumpi\n      dup3\n      swap1\n      sub\n      0x1f\n      and\n      dup3\n      add\n      swap2\n    tag_26:\n      pop\n      pop\n      pop\n      pop\n      pop\n      swap1\n      pop\n        /* \"contracts/GeekNft.sol\":1063:1144  function name() public view returns (string memory) {... */\n      swap1\n      jump\t// out\n        /* \"contracts/GeekNft.sol\":1245:1670  function transferFrom(address _from, address _to, uint _tokenId) external {... */\n    tag_14:\n        /* \"contracts/GeekNft.sol\":1363:1368  _from */\n      dup3\n        /* \"contracts/GeekNft.sol\":1337:1368  tokenToOwner[_tokenId] == _from */\n      0xffffffffffffffffffffffffffffffffffffffff\n      and\n        /* \"contracts/GeekNft.sol\":1337:1349  tokenToOwner */\n      0x05\n        /* \"contracts/GeekNft.sol\":1337:1359  tokenToOwner[_tokenId] */\n      0x00\n        /* \"contracts/GeekNft.sol\":1350:1358  _tokenId */\n      dup4\n        /* \"contracts/GeekNft.sol\":1337:1359  tokenToOwner[_tokenId] */\n      dup2\n      mstore\n      0x20\n      add\n      swap1\n      dup2\n      mstore\n      0x20\n      add\n      0x00\n      keccak256\n      0x00\n      swap1\n      sload\n      swap1\n      0x0100\n      exp\n      swap1\n      div\n      0xffffffffffffffffffffffffffffffffffffffff\n      and\n        /* \"contracts/GeekNft.sol\":1337:1368  tokenToOwner[_tokenId] == _from */\n      0xffffffffffffffffffffffffffffffffffffffff\n      and\n      eq\n        /* \"contracts/GeekNft.sol\":1329:1396  require(tokenToOwner[_tokenId] == _from, \"Not called by the owner\") */\n      tag_30\n      jumpi\n      mload(0x40)\n      0x08c379a000000000000000000000000000000000000000000000000000000000\n      dup2\n      mstore\n      0x04\n      add\n      tag_31\n      swap1\n      tag_32\n      jump\t// in\n    tag_31:\n      mload(0x40)\n      dup1\n      swap2\n      sub\n      swap1\n      revert\n    tag_30:\n        /* \"contracts/GeekNft.sol\":1429:1430  0 */\n      0x00\n        /* \"contracts/GeekNft.sol\":1414:1431  _to != address(0) */\n      0xffffffffffffffffffffffffffffffffffffffff\n      and\n        /* \"contracts/GeekNft.sol\":1414:1417  _to */\n      dup3\n        /* \"contracts/GeekNft.sol\":1414:1431  _to != address(0) */\n      0xffffffffffffffffffffffffffffffffffffffff\n      and\n      eq\n      iszero\n        /* \"contracts/GeekNft.sol\":1406:1472  require(_to != address(0), \"ERC721: transfer to the zero address\") */\n      tag_33\n      jumpi\n      mload(0x40)\n      0x08c379a000000000000000000000000000000000000000000000000000000000\n      dup2\n      mstore\n      0x04\n      add\n      tag_34\n      swap1\n      tag_35\n      jump\t// in\n    tag_34:\n      mload(0x40)\n      dup1\n      swap2\n      sub\n      swap1\n      revert\n    tag_33:\n        /* \"contracts/GeekNft.sol\":1506:1522  tokensOwnerCount */\n      0x04\n        /* \"contracts/GeekNft.sol\":1506:1529  tokensOwnerCount[_from] */\n      0x00\n        /* \"contracts/GeekNft.sol\":1523:1528  _from */\n      dup5\n        /* \"contracts/GeekNft.sol\":1506:1529  tokensOwnerCount[_from] */\n      0xffffffffffffffffffffffffffffffffffffffff\n      and\n      0xffffffffffffffffffffffffffffffffffffffff\n      and\n      dup2\n      mstore\n      0x20\n      add\n      swap1\n      dup2\n      mstore\n      0x20\n      add\n      0x00\n      keccak256\n      0x00\n        /* \"contracts/GeekNft.sol\":1506:1531  tokensOwnerCount[_from]-- */\n      dup2\n      sload\n      dup1\n      swap3\n      swap2\n      swap1\n      0x01\n      swap1\n      sub\n      swap2\n      swap1\n      pop\n      sstore\n      pop\n        /* \"contracts/GeekNft.sol\":1545:1561  tokensOwnerCount */\n      0x04\n        /* \"contracts/GeekNft.sol\":1545:1566  tokensOwnerCount[_to] */\n      0x00\n        /* \"contracts/GeekNft.sol\":1562:1565  _to */\n      dup4\n        /* \"contracts/GeekNft.sol\":1545:1566  tokensOwnerCount[_to] */\n      0xffffffffffffffffffffffffffffffffffffffff\n      and\n      0xffffffffffffffffffffffffffffffffffffffff\n      and\n      dup2\n      mstore\n      0x20\n      add\n      swap1\n      dup2\n      mstore\n      0x20\n      add\n      0x00\n      keccak256\n      0x00\n        /* \"contracts/GeekNft.sol\":1545:1568  tokensOwnerCount[_to]++ */\n      dup2\n      sload\n      dup1\n      swap3\n      swap2\n      swap1\n      0x01\n      add\n      swap2\n      swap1\n      pop\n      sstore\n      pop\n        /* \"contracts/GeekNft.sol\":1614:1617  _to */\n      dup2\n        /* \"contracts/GeekNft.sol\":1589:1601  tokenToOwner */\n      0x05\n        /* \"contracts/GeekNft.sol\":1589:1611  tokenToOwner[_tokenId] */\n      0x00\n        /* \"contracts/GeekNft.sol\":1602:1610  _tokenId */\n      dup4\n        /* \"contracts/GeekNft.sol\":1589:1611  tokenToOwner[_tokenId] */\n      dup2\n      mstore\n      0x20\n      add\n      swap1\n      dup2\n      mstore\n      0x20\n      add\n      0x00\n      keccak256\n      0x00\n        /* \"contracts/GeekNft.sol\":1589:1617  tokenToOwner[_tokenId] = _to */\n      0x0100\n      exp\n      dup2\n      sload\n      dup2\n      0xffffffffffffffffffffffffffffffffffffffff\n      mul\n      not\n      and\n      swap1\n      dup4\n      0xffffffffffffffffffffffffffffffffffffffff\n      and\n      mul\n      or\n      swap1\n      sstore\n      pop\n        /* \"contracts/GeekNft.sol\":1649:1652  _to */\n      dup2\n        /* \"contracts/GeekNft.sol\":1633:1663  Transfer(_from, _to, _tokenId) */\n      0xffffffffffffffffffffffffffffffffffffffff\n      and\n        /* \"contracts/GeekNft.sol\":1642:1647  _from */\n      dup4\n        /* \"contracts/GeekNft.sol\":1633:1663  Transfer(_from, _to, _tokenId) */\n      0xffffffffffffffffffffffffffffffffffffffff\n      and\n      0xddf252ad1be2c89b69c2b068fc378daa952ba7f163c4a11628f55a4df523b3ef\n        /* \"contracts/GeekNft.sol\":1654:1662  _tokenId */\n      dup4\n        /* \"contracts/GeekNft.sol\":1633:1663  Transfer(_from, _to, _tokenId) */\n      mload(0x40)\n      tag_36\n      swap2\n      swap1\n      tag_37\n      jump\t// in\n    tag_36:\n      mload(0x40)\n      dup1\n      swap2\n      sub\n      swap1\n      log3\n        /* \"contracts/GeekNft.sol\":1245:1670  function transferFrom(address _from, address _to, uint _tokenId) external {... */\n      pop\n      pop\n      pop\n      jump\t// out\n        /* \"contracts/GeekNft.sol\":1154:1239  function symbol() public view returns (string memory) {... */\n    tag_16:\n        /* \"contracts/GeekNft.sol\":1193:1206  string memory */\n      0x60\n        /* \"contracts/GeekNft.sol\":1225:1232  _symbol */\n      0x01\n        /* \"contracts/GeekNft.sol\":1218:1232  return _symbol */\n      dup1\n      sload\n      tag_39\n      swap1\n      tag_24\n      jump\t// in\n    tag_39:\n      dup1\n      0x1f\n      add\n      0x20\n      dup1\n      swap2\n      div\n      mul\n      0x20\n      add\n      mload(0x40)\n      swap1\n      dup2\n      add\n      0x40\n      mstore\n      dup1\n      swap3\n      swap2\n      swap1\n      dup2\n      dup2\n      mstore\n      0x20\n      add\n      dup3\n      dup1\n      sload\n      tag_40\n      swap1\n      tag_24\n      jump\t// in\n    tag_40:\n      dup1\n      iszero\n      tag_41\n      jumpi\n      dup1\n      0x1f\n      lt\n      tag_42\n      jumpi\n      0x0100\n      dup1\n      dup4\n      sload\n      div\n      mul\n      dup4\n      mstore\n      swap2\n      0x20\n      add\n      swap2\n      jump(tag_41)\n    tag_42:\n      dup3\n      add\n      swap2\n      swap1\n      0x00\n      mstore\n      keccak256(0x00, 0x20)\n      swap1\n    tag_43:\n      dup2\n      sload\n      dup2\n      mstore\n      swap1\n      0x01\n      add\n      swap1\n      0x20\n      add\n      dup1\n      dup4\n      gt\n      tag_43\n      jumpi\n      dup3\n      swap1\n      sub\n      0x1f\n      and\n      dup3\n      add\n      swap2\n    tag_41:\n      pop\n      pop\n      pop\n      pop\n      pop\n      swap1\n      pop\n        /* \"contracts/GeekNft.sol\":1154:1239  function symbol() public view returns (string memory) {... */\n      swap1\n      jump\t// out\n        /* \"contracts/GeekNft.sol\":803:1056  function mint(string memory _tokenUri) public {... */\n    tag_21:\n        /* \"contracts/GeekNft.sol\":859:879  tokenIds.increment() */\n      tag_45\n        /* \"contracts/GeekNft.sol\":859:867  tokenIds */\n      0x02\n        /* \"contracts/GeekNft.sol\":859:877  tokenIds.increment */\n      tag_46\n        /* \"contracts/GeekNft.sol\":859:879  tokenIds.increment() */\n      jump\t// in\n    tag_45:\n        /* \"contracts/GeekNft.sol\":889:904  uint newTokenId */\n      0x00\n        /* \"contracts/GeekNft.sol\":907:925  tokenIds.current() */\n      tag_47\n        /* \"contracts/GeekNft.sol\":907:915  tokenIds */\n      0x02\n        /* \"contracts/GeekNft.sol\":907:923  tokenIds.current */\n      tag_48\n        /* \"contracts/GeekNft.sol\":907:925  tokenIds.current() */\n      jump\t// in\n    tag_47:\n        /* \"contracts/GeekNft.sol\":889:925  uint newTokenId = tokenIds.current() */\n      swap1\n      pop\n        /* \"contracts/GeekNft.sol\":935:968  _safeMint(msg.sender, newTokenId) */\n      tag_49\n        /* \"contracts/GeekNft.sol\":945:955  msg.sender */\n      caller\n        /* \"contracts/GeekNft.sol\":957:967  newTokenId */\n      dup3\n        /* \"contracts/GeekNft.sol\":935:944  _safeMint */\n      tag_50\n        /* \"contracts/GeekNft.sol\":935:968  _safeMint(msg.sender, newTokenId) */\n      jump\t// in\n    tag_49:\n        /* \"contracts/GeekNft.sol\":978:1013  _setTokenUri(newTokenId, _tokenUri) */\n      tag_51\n        /* \"contracts/GeekNft.sol\":991:1001  newTokenId */\n      dup2\n        /* \"contracts/GeekNft.sol\":1003:1012  _tokenUri */\n      dup4\n        /* \"contracts/GeekNft.sol\":978:990  _setTokenUri */\n      tag_52\n        /* \"contracts/GeekNft.sol\":978:1013  _setTokenUri(newTokenId, _tokenUri) */\n      jump\t// in\n    tag_51:\n        /* \"contracts/GeekNft.sol\":1028:1049  NftMinted(newTokenId) */\n      0x7f8949b6eca2b14d0feb1af0844a112998e467a4f88b8683301f3a6e409f32ae\n        /* \"contracts/GeekNft.sol\":1038:1048  newTokenId */\n      dup2\n        /* \"contracts/GeekNft.sol\":1028:1049  NftMinted(newTokenId) */\n      mload(0x40)\n      tag_53\n      swap2\n      swap1\n      tag_37\n      jump\t// in\n    tag_53:\n      mload(0x40)\n      dup1\n      swap2\n      sub\n      swap1\n      log1\n        /* \"contracts/GeekNft.sol\":803:1056  function mint(string memory _tokenUri) public {... */\n      pop\n      pop\n      jump\t// out\n        /* \"contracts/Counters.sol\":945:1068  function increment(Counter storage counter) internal {... */\n    tag_46:\n        /* \"contracts/Counters.sol\":1050:1051  1 */\n      0x01\n        /* \"contracts/Counters.sol\":1032:1039  counter */\n      dup2\n        /* \"contracts/Counters.sol\":1032:1046  counter._value */\n      0x00\n      add\n      0x00\n        /* \"contracts/Counters.sol\":1032:1051  counter._value += 1 */\n      dup3\n      dup3\n      sload\n      add\n      swap3\n      pop\n      pop\n      dup2\n      swap1\n      sstore\n      pop\n        /* \"contracts/Counters.sol\":945:1068  function increment(Counter storage counter) internal {... */\n      pop\n      jump\t// out\n        /* \"contracts/Counters.sol\":827:939  function current(Counter storage counter) internal view returns (uint256) {... */\n    tag_48:\n        /* \"contracts/Counters.sol\":892:899  uint256 */\n      0x00\n        /* \"contracts/Counters.sol\":918:925  counter */\n      dup2\n        /* \"contracts/Counters.sol\":918:932  counter._value */\n      0x00\n      add\n      sload\n        /* \"contracts/Counters.sol\":911:932  return counter._value */\n      swap1\n      pop\n        /* \"contracts/Counters.sol\":827:939  function current(Counter storage counter) internal view returns (uint256) {... */\n      swap2\n      swap1\n      pop\n      jump\t// out\n        /* \"contracts/GeekNft.sol\":1701:2142  function _safeMint(address _to, uint _tokenId) private{... */\n    tag_50:\n        /* \"contracts/GeekNft.sol\":1809:1810  0 */\n      0x00\n        /* \"contracts/GeekNft.sol\":1773:1811  tokenToCreator[_tokenId] == address(0) */\n      0xffffffffffffffffffffffffffffffffffffffff\n      and\n        /* \"contracts/GeekNft.sol\":1773:1787  tokenToCreator */\n      0x07\n        /* \"contracts/GeekNft.sol\":1773:1797  tokenToCreator[_tokenId] */\n      0x00\n        /* \"contracts/GeekNft.sol\":1788:1796  _tokenId */\n      dup4\n        /* \"contracts/GeekNft.sol\":1773:1797  tokenToCreator[_tokenId] */\n      dup2\n      mstore\n      0x20\n      add\n      swap1\n      dup2\n      mstore\n      0x20\n      add\n      0x00\n      keccak256\n      0x00\n      swap1\n      sload\n      swap1\n      0x0100\n      exp\n      swap1\n      div\n      0xffffffffffffffffffffffffffffffffffffffff\n      and\n        /* \"contracts/GeekNft.sol\":1773:1811  tokenToCreator[_tokenId] == address(0) */\n      0xffffffffffffffffffffffffffffffffffffffff\n      and\n      eq\n        /* \"contracts/GeekNft.sol\":1765:1835  require(tokenToCreator[_tokenId] == address(0), \"token already exist\") */\n      tag_57\n      jumpi\n      mload(0x40)\n      0x08c379a000000000000000000000000000000000000000000000000000000000\n      dup2\n      mstore\n      0x04\n      add\n      tag_58\n      swap1\n      tag_59\n      jump\t// in\n    tag_58:\n      mload(0x40)\n      dup1\n      swap2\n      sub\n      swap1\n      revert\n    tag_57:\n        /* \"contracts/GeekNft.sol\":1868:1869  0 */\n      0x00\n        /* \"contracts/GeekNft.sol\":1853:1870  _to == address(0) */\n      0xffffffffffffffffffffffffffffffffffffffff\n      and\n        /* \"contracts/GeekNft.sol\":1853:1856  _to */\n      dup3\n        /* \"contracts/GeekNft.sol\":1853:1870  _to == address(0) */\n      0xffffffffffffffffffffffffffffffffffffffff\n      and\n      eq\n        /* \"contracts/GeekNft.sol\":1845:1899  require(_to == address(0), \"mint to the zero address\") */\n      tag_60\n      jumpi\n      mload(0x40)\n      0x08c379a000000000000000000000000000000000000000000000000000000000\n      dup2\n      mstore\n      0x04\n      add\n      tag_61\n      swap1\n      tag_62\n      jump\t// in\n    tag_61:\n      mload(0x40)\n      dup1\n      swap2\n      sub\n      swap1\n      revert\n    tag_60:\n        /* \"contracts/GeekNft.sol\":1933:1949  tokensOwnerCount */\n      0x04\n        /* \"contracts/GeekNft.sol\":1933:1954  tokensOwnerCount[_to] */\n      0x00\n        /* \"contracts/GeekNft.sol\":1950:1953  _to */\n      dup4\n        /* \"contracts/GeekNft.sol\":1933:1954  tokensOwnerCount[_to] */\n      0xffffffffffffffffffffffffffffffffffffffff\n      and\n      0xffffffffffffffffffffffffffffffffffffffff\n      and\n      dup2\n      mstore\n      0x20\n      add\n      swap1\n      dup2\n      mstore\n      0x20\n      add\n      0x00\n      keccak256\n      0x00\n        /* \"contracts/GeekNft.sol\":1933:1956  tokensOwnerCount[_to]++ */\n      dup2\n      sload\n      dup1\n      swap3\n      swap2\n      swap1\n      0x01\n      add\n      swap2\n      swap1\n      pop\n      sstore\n      pop\n        /* \"contracts/GeekNft.sol\":1970:1988  tokensCreatorCount */\n      0x06\n        /* \"contracts/GeekNft.sol\":1970:1993  tokensCreatorCount[_to] */\n      0x00\n        /* \"contracts/GeekNft.sol\":1989:1992  _to */\n      dup4\n        /* \"contracts/GeekNft.sol\":1970:1993  tokensCreatorCount[_to] */\n      0xffffffffffffffffffffffffffffffffffffffff\n      and\n      0xffffffffffffffffffffffffffffffffffffffff\n      and\n      dup2\n      mstore\n      0x20\n      add\n      swap1\n      dup2\n      mstore\n      0x20\n      add\n      0x00\n      keccak256\n      0x00\n        /* \"contracts/GeekNft.sol\":1970:1995  tokensCreatorCount[_to]++ */\n      dup2\n      sload\n      dup1\n      swap3\n      swap2\n      swap1\n      0x01\n      add\n      swap2\n      swap1\n      pop\n      sstore\n      pop\n        /* \"contracts/GeekNft.sol\":2041:2044  _to */\n      dup2\n        /* \"contracts/GeekNft.sol\":2016:2028  tokenToOwner */\n      0x05\n        /* \"contracts/GeekNft.sol\":2016:2038  tokenToOwner[_tokenId] */\n      0x00\n        /* \"contracts/GeekNft.sol\":2029:2037  _tokenId */\n      dup4\n        /* \"contracts/GeekNft.sol\":2016:2038  tokenToOwner[_tokenId] */\n      dup2\n      mstore\n      0x20\n      add\n      swap1\n      dup2\n      mstore\n      0x20\n      add\n      0x00\n      keccak256\n      0x00\n        /* \"contracts/GeekNft.sol\":2016:2044  tokenToOwner[_tokenId] = _to */\n      0x0100\n      exp\n      dup2\n      sload\n      dup2\n      0xffffffffffffffffffffffffffffffffffffffff\n      mul\n      not\n      and\n      swap1\n      dup4\n      0xffffffffffffffffffffffffffffffffffffffff\n      and\n      mul\n      or\n      swap1\n      sstore\n      pop\n        /* \"contracts/GeekNft.sol\":2081:2084  _to */\n      dup2\n        /* \"contracts/GeekNft.sol\":2054:2068  tokenToCreator */\n      0x07\n        /* \"contracts/GeekNft.sol\":2054:2078  tokenToCreator[_tokenId] */\n      0x00\n        /* \"contracts/GeekNft.sol\":2069:2077  _tokenId */\n      dup4\n        /* \"contracts/GeekNft.sol\":2054:2078  tokenToCreator[_tokenId] */\n      dup2\n      mstore\n      0x20\n      add\n      swap1\n      dup2\n      mstore\n      0x20\n      add\n      0x00\n      keccak256\n      0x00\n        /* \"contracts/GeekNft.sol\":2054:2084  tokenToCreator[_tokenId] = _to */\n      0x0100\n      exp\n      dup2\n      sload\n      dup2\n      0xffffffffffffffffffffffffffffffffffffffff\n      mul\n      not\n      and\n      swap1\n      dup4\n      0xffffffffffffffffffffffffffffffffffffffff\n      and\n      mul\n      or\n      swap1\n      sstore\n      pop\n        /* \"contracts/GeekNft.sol\":2121:2124  _to */\n      dup2\n        /* \"contracts/GeekNft.sol\":2100:2135  Transfer(address(0), _to, _tokenId) */\n      0xffffffffffffffffffffffffffffffffffffffff\n      and\n        /* \"contracts/GeekNft.sol\":2117:2118  0 */\n      0x00\n        /* \"contracts/GeekNft.sol\":2100:2135  Transfer(address(0), _to, _tokenId) */\n      0xffffffffffffffffffffffffffffffffffffffff\n      and\n      0xddf252ad1be2c89b69c2b068fc378daa952ba7f163c4a11628f55a4df523b3ef\n        /* \"contracts/GeekNft.sol\":2126:2134  _tokenId */\n      dup4\n        /* \"contracts/GeekNft.sol\":2100:2135  Transfer(address(0), _to, _tokenId) */\n      mload(0x40)\n      tag_63\n      swap2\n      swap1\n      tag_37\n      jump\t// in\n    tag_63:\n      mload(0x40)\n      dup1\n      swap2\n      sub\n      swap1\n      log3\n        /* \"contracts/GeekNft.sol\":1701:2142  function _safeMint(address _to, uint _tokenId) private{... */\n      pop\n      pop\n      jump\t// out\n        /* \"contracts/GeekNft.sol\":2148:2347  function _setTokenUri(uint _tokenId, string memory _tokenUri) private {... */\n    tag_52:\n        /* \"contracts/GeekNft.sol\":2272:2273  0 */\n      0x00\n        /* \"contracts/GeekNft.sol\":2236:2274  tokenToCreator[_tokenId] != address(0) */\n      0xffffffffffffffffffffffffffffffffffffffff\n      and\n        /* \"contracts/GeekNft.sol\":2236:2250  tokenToCreator */\n      0x07\n        /* \"contracts/GeekNft.sol\":2236:2260  tokenToCreator[_tokenId] */\n      0x00\n        /* \"contracts/GeekNft.sol\":2251:2259  _tokenId */\n      dup5\n        /* \"contracts/GeekNft.sol\":2236:2260  tokenToCreator[_tokenId] */\n      dup2\n      mstore\n      0x20\n      add\n      swap1\n      dup2\n      mstore\n      0x20\n      add\n      0x00\n      keccak256\n      0x00\n      swap1\n      sload\n      swap1\n      0x0100\n      exp\n      swap1\n      div\n      0xffffffffffffffffffffffffffffffffffffffff\n      and\n        /* \"contracts/GeekNft.sol\":2236:2274  tokenToCreator[_tokenId] != address(0) */\n      0xffffffffffffffffffffffffffffffffffffffff\n      and\n      eq\n      iszero\n        /* \"contracts/GeekNft.sol\":2228:2298  require(tokenToCreator[_tokenId] != address(0), \"token doesn't exist\") */\n      tag_65\n      jumpi\n      mload(0x40)\n      0x08c379a000000000000000000000000000000000000000000000000000000000\n      dup2\n      mstore\n      0x04\n      add\n      tag_66\n      swap1\n      tag_67\n      jump\t// in\n    tag_66:\n      mload(0x40)\n      dup1\n      swap2\n      sub\n      swap1\n      revert\n    tag_65:\n        /* \"contracts/GeekNft.sol\":2331:2340  _tokenUri */\n      dup1\n        /* \"contracts/GeekNft.sol\":2308:2318  tokenToUri */\n      0x08\n        /* \"contracts/GeekNft.sol\":2308:2328  tokenToUri[_tokenId] */\n      0x00\n        /* \"contracts/GeekNft.sol\":2319:2327  _tokenId */\n      dup5\n        /* \"contracts/GeekNft.sol\":2308:2328  tokenToUri[_tokenId] */\n      dup2\n      mstore\n      0x20\n      add\n      swap1\n      dup2\n      mstore\n      0x20\n      add\n      0x00\n      keccak256\n        /* \"contracts/GeekNft.sol\":2308:2340  tokenToUri[_tokenId] = _tokenUri */\n      swap1\n      dup1\n      mload\n      swap1\n      0x20\n      add\n      swap1\n      tag_68\n      swap3\n      swap2\n      swap1\n      tag_69\n      jump\t// in\n    tag_68:\n      pop\n        /* \"contracts/GeekNft.sol\":2148:2347  function _setTokenUri(uint _tokenId, string memory _tokenUri) private {... */\n      pop\n      pop\n      jump\t// out\n    tag_69:\n      dup3\n      dup1\n      sload\n      tag_70\n      swap1\n      tag_24\n      jump\t// in\n    tag_70:\n      swap1\n      0x00\n      mstore\n      keccak256(0x00, 0x20)\n      swap1\n      0x1f\n      add\n      0x20\n      swap1\n      div\n      dup2\n      add\n      swap3\n      dup3\n      tag_72\n      jumpi\n      0x00\n      dup6\n      sstore\n      jump(tag_71)\n    tag_72:\n      dup3\n      0x1f\n      lt\n      tag_73\n      jumpi\n      dup1\n      mload\n      not(0xff)\n      and\n      dup4\n      dup1\n      add\n      or\n      dup6\n      sstore\n      jump(tag_71)\n    tag_73:\n      dup3\n      dup1\n      add\n      0x01\n      add\n      dup6\n      sstore\n      dup3\n      iszero\n      tag_71\n      jumpi\n      swap2\n      dup3\n      add\n    tag_74:\n      dup3\n      dup2\n      gt\n      iszero\n      tag_75\n      jumpi\n      dup3\n      mload\n      dup3\n      sstore\n      swap2\n      0x20\n      add\n      swap2\n      swap1\n      0x01\n      add\n      swap1\n      jump(tag_74)\n    tag_75:\n    tag_71:\n      pop\n      swap1\n      pop\n      tag_76\n      swap2\n      swap1\n      tag_77\n      jump\t// in\n    tag_76:\n      pop\n      swap1\n      jump\t// out\n    tag_77:\n    tag_78:\n      dup1\n      dup3\n      gt\n      iszero\n      tag_79\n      jumpi\n      0x00\n      dup2\n      0x00\n      swap1\n      sstore\n      pop\n      0x01\n      add\n      jump(tag_78)\n    tag_79:\n      pop\n      swap1\n      jump\t// out\n        /* \"#utility.yul\":7:352   */\n    tag_81:\n      0x00\n        /* \"#utility.yul\":110:176   */\n      tag_83\n        /* \"#utility.yul\":126:175   */\n      tag_84\n        /* \"#utility.yul\":168:174   */\n      dup5\n        /* \"#utility.yul\":126:175   */\n      tag_85\n      jump\t// in\n    tag_84:\n        /* \"#utility.yul\":110:176   */\n      tag_86\n      jump\t// in\n    tag_83:\n        /* \"#utility.yul\":101:176   */\n      swap1\n      pop\n        /* \"#utility.yul\":199:205   */\n      dup3\n        /* \"#utility.yul\":192:197   */\n      dup2\n        /* \"#utility.yul\":185:206   */\n      mstore\n        /* \"#utility.yul\":237:241   */\n      0x20\n        /* \"#utility.yul\":230:235   */\n      dup2\n        /* \"#utility.yul\":226:242   */\n      add\n        /* \"#utility.yul\":275:278   */\n      dup5\n        /* \"#utility.yul\":266:272   */\n      dup5\n        /* \"#utility.yul\":261:264   */\n      dup5\n        /* \"#utility.yul\":257:273   */\n      add\n        /* \"#utility.yul\":254:279   */\n      gt\n        /* \"#utility.yul\":251:253   */\n      iszero\n      tag_87\n      jumpi\n        /* \"#utility.yul\":292:293   */\n      0x00\n        /* \"#utility.yul\":289:290   */\n      dup1\n        /* \"#utility.yul\":282:294   */\n      revert\n        /* \"#utility.yul\":251:253   */\n    tag_87:\n        /* \"#utility.yul\":305:346   */\n      tag_88\n        /* \"#utility.yul\":339:345   */\n      dup5\n        /* \"#utility.yul\":334:337   */\n      dup3\n        /* \"#utility.yul\":329:332   */\n      dup6\n        /* \"#utility.yul\":305:346   */\n      tag_89\n      jump\t// in\n    tag_88:\n        /* \"#utility.yul\":91:352   */\n      pop\n      swap4\n      swap3\n      pop\n      pop\n      pop\n      jump\t// out\n        /* \"#utility.yul\":358:497   */\n    tag_90:\n      0x00\n        /* \"#utility.yul\":442:448   */\n      dup2\n        /* \"#utility.yul\":429:449   */\n      calldataload\n        /* \"#utility.yul\":420:449   */\n      swap1\n      pop\n        /* \"#utility.yul\":458:491   */\n      tag_92\n        /* \"#utility.yul\":485:490   */\n      dup2\n        /* \"#utility.yul\":458:491   */\n      tag_93\n      jump\t// in\n    tag_92:\n        /* \"#utility.yul\":410:497   */\n      swap3\n      swap2\n      pop\n      pop\n      jump\t// out\n        /* \"#utility.yul\":517:790   */\n    tag_94:\n      0x00\n        /* \"#utility.yul\":622:625   */\n      dup3\n        /* \"#utility.yul\":615:619   */\n      0x1f\n        /* \"#utility.yul\":607:613   */\n      dup4\n        /* \"#utility.yul\":603:620   */\n      add\n        /* \"#utility.yul\":599:626   */\n      slt\n        /* \"#utility.yul\":589:591   */\n      tag_96\n      jumpi\n        /* \"#utility.yul\":640:641   */\n      0x00\n        /* \"#utility.yul\":637:638   */\n      dup1\n        /* \"#utility.yul\":630:642   */\n      revert\n        /* \"#utility.yul\":589:591   */\n    tag_96:\n        /* \"#utility.yul\":680:686   */\n      dup2\n        /* \"#utility.yul\":667:687   */\n      calldataload\n        /* \"#utility.yul\":705:784   */\n      tag_97\n        /* \"#utility.yul\":780:783   */\n      dup5\n        /* \"#utility.yul\":772:778   */\n      dup3\n        /* \"#utility.yul\":765:769   */\n      0x20\n        /* \"#utility.yul\":757:763   */\n      dup7\n        /* \"#utility.yul\":753:770   */\n      add\n        /* \"#utility.yul\":705:784   */\n      tag_81\n      jump\t// in\n    tag_97:\n        /* \"#utility.yul\":696:784   */\n      swap2\n      pop\n        /* \"#utility.yul\":579:790   */\n      pop\n      swap3\n      swap2\n      pop\n      pop\n      jump\t// out\n        /* \"#utility.yul\":796:935   */\n    tag_98:\n      0x00\n        /* \"#utility.yul\":880:886   */\n      dup2\n        /* \"#utility.yul\":867:887   */\n      calldataload\n        /* \"#utility.yul\":858:887   */\n      swap1\n      pop\n        /* \"#utility.yul\":896:929   */\n      tag_100\n        /* \"#utility.yul\":923:928   */\n      dup2\n        /* \"#utility.yul\":896:929   */\n      tag_101\n      jump\t// in\n    tag_100:\n        /* \"#utility.yul\":848:935   */\n      swap3\n      swap2\n      pop\n      pop\n      jump\t// out\n        /* \"#utility.yul\":941:1493   */\n    tag_13:\n      0x00\n      dup1\n      0x00\n        /* \"#utility.yul\":1083:1085   */\n      0x60\n        /* \"#utility.yul\":1071:1080   */\n      dup5\n        /* \"#utility.yul\":1062:1069   */\n      dup7\n        /* \"#utility.yul\":1058:1081   */\n      sub\n        /* \"#utility.yul\":1054:1086   */\n      slt\n        /* \"#utility.yul\":1051:1053   */\n      iszero\n      tag_103\n      jumpi\n        /* \"#utility.yul\":1099:1100   */\n      0x00\n        /* \"#utility.yul\":1096:1097   */\n      dup1\n        /* \"#utility.yul\":1089:1101   */\n      revert\n        /* \"#utility.yul\":1051:1053   */\n    tag_103:\n        /* \"#utility.yul\":1142:1143   */\n      0x00\n        /* \"#utility.yul\":1167:1220   */\n      tag_104\n        /* \"#utility.yul\":1212:1219   */\n      dup7\n        /* \"#utility.yul\":1203:1209   */\n      dup3\n        /* \"#utility.yul\":1192:1201   */\n      dup8\n        /* \"#utility.yul\":1188:1210   */\n      add\n        /* \"#utility.yul\":1167:1220   */\n      tag_90\n      jump\t// in\n    tag_104:\n        /* \"#utility.yul\":1157:1220   */\n      swap4\n      pop\n        /* \"#utility.yul\":1113:1230   */\n      pop\n        /* \"#utility.yul\":1269:1271   */\n      0x20\n        /* \"#utility.yul\":1295:1348   */\n      tag_105\n        /* \"#utility.yul\":1340:1347   */\n      dup7\n        /* \"#utility.yul\":1331:1337   */\n      dup3\n        /* \"#utility.yul\":1320:1329   */\n      dup8\n        /* \"#utility.yul\":1316:1338   */\n      add\n        /* \"#utility.yul\":1295:1348   */\n      tag_90\n      jump\t// in\n    tag_105:\n        /* \"#utility.yul\":1285:1348   */\n      swap3\n      pop\n        /* \"#utility.yul\":1240:1358   */\n      pop\n        /* \"#utility.yul\":1397:1399   */\n      0x40\n        /* \"#utility.yul\":1423:1476   */\n      tag_106\n        /* \"#utility.yul\":1468:1475   */\n      dup7\n        /* \"#utility.yul\":1459:1465   */\n      dup3\n        /* \"#utility.yul\":1448:1457   */\n      dup8\n        /* \"#utility.yul\":1444:1466   */\n      add\n        /* \"#utility.yul\":1423:1476   */\n      tag_98\n      jump\t// in\n    tag_106:\n        /* \"#utility.yul\":1413:1476   */\n      swap2\n      pop\n        /* \"#utility.yul\":1368:1486   */\n      pop\n        /* \"#utility.yul\":1041:1493   */\n      swap3\n      pop\n      swap3\n      pop\n      swap3\n      jump\t// out\n        /* \"#utility.yul\":1499:1874   */\n    tag_20:\n      0x00\n        /* \"#utility.yul\":1617:1619   */\n      0x20\n        /* \"#utility.yul\":1605:1614   */\n      dup3\n        /* \"#utility.yul\":1596:1603   */\n      dup5\n        /* \"#utility.yul\":1592:1615   */\n      sub\n        /* \"#utility.yul\":1588:1620   */\n      slt\n        /* \"#utility.yul\":1585:1587   */\n      iszero\n      tag_108\n      jumpi\n        /* \"#utility.yul\":1633:1634   */\n      0x00\n        /* \"#utility.yul\":1630:1631   */\n      dup1\n        /* \"#utility.yul\":1623:1635   */\n      revert\n        /* \"#utility.yul\":1585:1587   */\n    tag_108:\n        /* \"#utility.yul\":1704:1705   */\n      0x00\n        /* \"#utility.yul\":1693:1702   */\n      dup3\n        /* \"#utility.yul\":1689:1706   */\n      add\n        /* \"#utility.yul\":1676:1707   */\n      calldataload\n        /* \"#utility.yul\":1734:1752   */\n      0xffffffffffffffff\n        /* \"#utility.yul\":1726:1732   */\n      dup2\n        /* \"#utility.yul\":1723:1753   */\n      gt\n        /* \"#utility.yul\":1720:1722   */\n      iszero\n      tag_109\n      jumpi\n        /* \"#utility.yul\":1766:1767   */\n      0x00\n        /* \"#utility.yul\":1763:1764   */\n      dup1\n        /* \"#utility.yul\":1756:1768   */\n      revert\n        /* \"#utility.yul\":1720:1722   */\n    tag_109:\n        /* \"#utility.yul\":1794:1857   */\n      tag_110\n        /* \"#utility.yul\":1849:1856   */\n      dup5\n        /* \"#utility.yul\":1840:1846   */\n      dup3\n        /* \"#utility.yul\":1829:1838   */\n      dup6\n        /* \"#utility.yul\":1825:1847   */\n      add\n        /* \"#utility.yul\":1794:1857   */\n      tag_94\n      jump\t// in\n    tag_110:\n        /* \"#utility.yul\":1784:1857   */\n      swap2\n      pop\n        /* \"#utility.yul\":1647:1867   */\n      pop\n        /* \"#utility.yul\":1575:1874   */\n      swap3\n      swap2\n      pop\n      pop\n      jump\t// out\n        /* \"#utility.yul\":1880:2244   */\n    tag_111:\n      0x00\n        /* \"#utility.yul\":1996:2035   */\n      tag_113\n        /* \"#utility.yul\":2029:2034   */\n      dup3\n        /* \"#utility.yul\":1996:2035   */\n      tag_114\n      jump\t// in\n    tag_113:\n        /* \"#utility.yul\":2051:2122   */\n      tag_115\n        /* \"#utility.yul\":2115:2121   */\n      dup2\n        /* \"#utility.yul\":2110:2113   */\n      dup6\n        /* \"#utility.yul\":2051:2122   */\n      tag_116\n      jump\t// in\n    tag_115:\n        /* \"#utility.yul\":2044:2122   */\n      swap4\n      pop\n        /* \"#utility.yul\":2131:2183   */\n      tag_117\n        /* \"#utility.yul\":2176:2182   */\n      dup2\n        /* \"#utility.yul\":2171:2174   */\n      dup6\n        /* \"#utility.yul\":2164:2168   */\n      0x20\n        /* \"#utility.yul\":2157:2162   */\n      dup7\n        /* \"#utility.yul\":2153:2169   */\n      add\n        /* \"#utility.yul\":2131:2183   */\n      tag_118\n      jump\t// in\n    tag_117:\n        /* \"#utility.yul\":2208:2237   */\n      tag_119\n        /* \"#utility.yul\":2230:2236   */\n      dup2\n        /* \"#utility.yul\":2208:2237   */\n      tag_120\n      jump\t// in\n    tag_119:\n        /* \"#utility.yul\":2203:2206   */\n      dup5\n        /* \"#utility.yul\":2199:2238   */\n      add\n        /* \"#utility.yul\":2192:2238   */\n      swap2\n      pop\n        /* \"#utility.yul\":1972:2244   */\n      pop\n      swap3\n      swap2\n      pop\n      pop\n      jump\t// out\n        /* \"#utility.yul\":2250:2616   */\n    tag_121:\n      0x00\n        /* \"#utility.yul\":2413:2480   */\n      tag_123\n        /* \"#utility.yul\":2477:2479   */\n      0x24\n        /* \"#utility.yul\":2472:2475   */\n      dup4\n        /* \"#utility.yul\":2413:2480   */\n      tag_116\n      jump\t// in\n    tag_123:\n        /* \"#utility.yul\":2406:2480   */\n      swap2\n      pop\n        /* \"#utility.yul\":2489:2582   */\n      tag_124\n        /* \"#utility.yul\":2578:2581   */\n      dup3\n        /* \"#utility.yul\":2489:2582   */\n      tag_125\n      jump\t// in\n    tag_124:\n        /* \"#utility.yul\":2607:2609   */\n      0x40\n        /* \"#utility.yul\":2602:2605   */\n      dup3\n        /* \"#utility.yul\":2598:2610   */\n      add\n        /* \"#utility.yul\":2591:2610   */\n      swap1\n      pop\n        /* \"#utility.yul\":2396:2616   */\n      swap2\n      swap1\n      pop\n      jump\t// out\n        /* \"#utility.yul\":2622:2988   */\n    tag_126:\n      0x00\n        /* \"#utility.yul\":2785:2852   */\n      tag_128\n        /* \"#utility.yul\":2849:2851   */\n      0x13\n        /* \"#utility.yul\":2844:2847   */\n      dup4\n        /* \"#utility.yul\":2785:2852   */\n      tag_116\n      jump\t// in\n    tag_128:\n        /* \"#utility.yul\":2778:2852   */\n      swap2\n      pop\n        /* \"#utility.yul\":2861:2954   */\n      tag_129\n        /* \"#utility.yul\":2950:2953   */\n      dup3\n        /* \"#utility.yul\":2861:2954   */\n      tag_130\n      jump\t// in\n    tag_129:\n        /* \"#utility.yul\":2979:2981   */\n      0x20\n        /* \"#utility.yul\":2974:2977   */\n      dup3\n        /* \"#utility.yul\":2970:2982   */\n      add\n        /* \"#utility.yul\":2963:2982   */\n      swap1\n      pop\n        /* \"#utility.yul\":2768:2988   */\n      swap2\n      swap1\n      pop\n      jump\t// out\n        /* \"#utility.yul\":2994:3360   */\n    tag_131:\n      0x00\n        /* \"#utility.yul\":3157:3224   */\n      tag_133\n        /* \"#utility.yul\":3221:3223   */\n      0x13\n        /* \"#utility.yul\":3216:3219   */\n      dup4\n        /* \"#utility.yul\":3157:3224   */\n      tag_116\n      jump\t// in\n    tag_133:\n        /* \"#utility.yul\":3150:3224   */\n      swap2\n      pop\n        /* \"#utility.yul\":3233:3326   */\n      tag_134\n        /* \"#utility.yul\":3322:3325   */\n      dup3\n        /* \"#utility.yul\":3233:3326   */\n      tag_135\n      jump\t// in\n    tag_134:\n        /* \"#utility.yul\":3351:3353   */\n      0x20\n        /* \"#utility.yul\":3346:3349   */\n      dup3\n        /* \"#utility.yul\":3342:3354   */\n      add\n        /* \"#utility.yul\":3335:3354   */\n      swap1\n      pop\n        /* \"#utility.yul\":3140:3360   */\n      swap2\n      swap1\n      pop\n      jump\t// out\n        /* \"#utility.yul\":3366:3732   */\n    tag_136:\n      0x00\n        /* \"#utility.yul\":3529:3596   */\n      tag_138\n        /* \"#utility.yul\":3593:3595   */\n      0x17\n        /* \"#utility.yul\":3588:3591   */\n      dup4\n        /* \"#utility.yul\":3529:3596   */\n      tag_116\n      jump\t// in\n    tag_138:\n        /* \"#utility.yul\":3522:3596   */\n      swap2\n      pop\n        /* \"#utility.yul\":3605:3698   */\n      tag_139\n        /* \"#utility.yul\":3694:3697   */\n      dup3\n        /* \"#utility.yul\":3605:3698   */\n      tag_140\n      jump\t// in\n    tag_139:\n        /* \"#utility.yul\":3723:3725   */\n      0x20\n        /* \"#utility.yul\":3718:3721   */\n      dup3\n        /* \"#utility.yul\":3714:3726   */\n      add\n        /* \"#utility.yul\":3707:3726   */\n      swap1\n      pop\n        /* \"#utility.yul\":3512:3732   */\n      swap2\n      swap1\n      pop\n      jump\t// out\n        /* \"#utility.yul\":3738:4104   */\n    tag_141:\n      0x00\n        /* \"#utility.yul\":3901:3968   */\n      tag_143\n        /* \"#utility.yul\":3965:3967   */\n      0x18\n        /* \"#utility.yul\":3960:3963   */\n      dup4\n        /* \"#utility.yul\":3901:3968   */\n      tag_116\n      jump\t// in\n    tag_143:\n        /* \"#utility.yul\":3894:3968   */\n      swap2\n      pop\n        /* \"#utility.yul\":3977:4070   */\n      tag_144\n        /* \"#utility.yul\":4066:4069   */\n      dup3\n        /* \"#utility.yul\":3977:4070   */\n      tag_145\n      jump\t// in\n    tag_144:\n        /* \"#utility.yul\":4095:4097   */\n      0x20\n        /* \"#utility.yul\":4090:4093   */\n      dup3\n        /* \"#utility.yul\":4086:4098   */\n      add\n        /* \"#utility.yul\":4079:4098   */\n      swap1\n      pop\n        /* \"#utility.yul\":3884:4104   */\n      swap2\n      swap1\n      pop\n      jump\t// out\n        /* \"#utility.yul\":4110:4228   */\n    tag_146:\n        /* \"#utility.yul\":4197:4221   */\n      tag_148\n        /* \"#utility.yul\":4215:4220   */\n      dup2\n        /* \"#utility.yul\":4197:4221   */\n      tag_149\n      jump\t// in\n    tag_148:\n        /* \"#utility.yul\":4192:4195   */\n      dup3\n        /* \"#utility.yul\":4185:4222   */\n      mstore\n        /* \"#utility.yul\":4175:4228   */\n      pop\n      pop\n      jump\t// out\n        /* \"#utility.yul\":4234:4547   */\n    tag_10:\n      0x00\n        /* \"#utility.yul\":4385:4387   */\n      0x20\n        /* \"#utility.yul\":4374:4383   */\n      dup3\n        /* \"#utility.yul\":4370:4388   */\n      add\n        /* \"#utility.yul\":4362:4388   */\n      swap1\n      pop\n        /* \"#utility.yul\":4434:4443   */\n      dup2\n        /* \"#utility.yul\":4428:4432   */\n      dup2\n        /* \"#utility.yul\":4424:4444   */\n      sub\n        /* \"#utility.yul\":4420:4421   */\n      0x00\n        /* \"#utility.yul\":4409:4418   */\n      dup4\n        /* \"#utility.yul\":4405:4422   */\n      add\n        /* \"#utility.yul\":4398:4445   */\n      mstore\n        /* \"#utility.yul\":4462:4540   */\n      tag_151\n        /* \"#utility.yul\":4535:4539   */\n      dup2\n        /* \"#utility.yul\":4526:4532   */\n      dup5\n        /* \"#utility.yul\":4462:4540   */\n      tag_111\n      jump\t// in\n    tag_151:\n        /* \"#utility.yul\":4454:4540   */\n      swap1\n      pop\n        /* \"#utility.yul\":4352:4547   */\n      swap3\n      swap2\n      pop\n      pop\n      jump\t// out\n        /* \"#utility.yul\":4553:4972   */\n    tag_35:\n      0x00\n        /* \"#utility.yul\":4757:4759   */\n      0x20\n        /* \"#utility.yul\":4746:4755   */\n      dup3\n        /* \"#utility.yul\":4742:4760   */\n      add\n        /* \"#utility.yul\":4734:4760   */\n      swap1\n      pop\n        /* \"#utility.yul\":4806:4815   */\n      dup2\n        /* \"#utility.yul\":4800:4804   */\n      dup2\n        /* \"#utility.yul\":4796:4816   */\n      sub\n        /* \"#utility.yul\":4792:4793   */\n      0x00\n        /* \"#utility.yul\":4781:4790   */\n      dup4\n        /* \"#utility.yul\":4777:4794   */\n      add\n        /* \"#utility.yul\":4770:4817   */\n      mstore\n        /* \"#utility.yul\":4834:4965   */\n      tag_153\n        /* \"#utility.yul\":4960:4964   */\n      dup2\n        /* \"#utility.yul\":4834:4965   */\n      tag_121\n      jump\t// in\n    tag_153:\n        /* \"#utility.yul\":4826:4965   */\n      swap1\n      pop\n        /* \"#utility.yul\":4724:4972   */\n      swap2\n      swap1\n      pop\n      jump\t// out\n        /* \"#utility.yul\":4978:5397   */\n    tag_59:\n      0x00\n        /* \"#utility.yul\":5182:5184   */\n      0x20\n        /* \"#utility.yul\":5171:5180   */\n      dup3\n        /* \"#utility.yul\":5167:5185   */\n      add\n        /* \"#utility.yul\":5159:5185   */\n      swap1\n      pop\n        /* \"#utility.yul\":5231:5240   */\n      dup2\n        /* \"#utility.yul\":5225:5229   */\n      dup2\n        /* \"#utility.yul\":5221:5241   */\n      sub\n        /* \"#utility.yul\":5217:5218   */\n      0x00\n        /* \"#utility.yul\":5206:5215   */\n      dup4\n        /* \"#utility.yul\":5202:5219   */\n      add\n        /* \"#utility.yul\":5195:5242   */\n      mstore\n        /* \"#utility.yul\":5259:5390   */\n      tag_155\n        /* \"#utility.yul\":5385:5389   */\n      dup2\n        /* \"#utility.yul\":5259:5390   */\n      tag_126\n      jump\t// in\n    tag_155:\n        /* \"#utility.yul\":5251:5390   */\n      swap1\n      pop\n        /* \"#utility.yul\":5149:5397   */\n      swap2\n      swap1\n      pop\n      jump\t// out\n        /* \"#utility.yul\":5403:5822   */\n    tag_67:\n      0x00\n        /* \"#utility.yul\":5607:5609   */\n      0x20\n        /* \"#utility.yul\":5596:5605   */\n      dup3\n        /* \"#utility.yul\":5592:5610   */\n      add\n        /* \"#utility.yul\":5584:5610   */\n      swap1\n      pop\n        /* \"#utility.yul\":5656:5665   */\n      dup2\n        /* \"#utility.yul\":5650:5654   */\n      dup2\n        /* \"#utility.yul\":5646:5666   */\n      sub\n        /* \"#utility.yul\":5642:5643   */\n      0x00\n        /* \"#utility.yul\":5631:5640   */\n      dup4\n        /* \"#utility.yul\":5627:5644   */\n      add\n        /* \"#utility.yul\":5620:5667   */\n      mstore\n        /* \"#utility.yul\":5684:5815   */\n      tag_157\n        /* \"#utility.yul\":5810:5814   */\n      dup2\n        /* \"#utility.yul\":5684:5815   */\n      tag_131\n      jump\t// in\n    tag_157:\n        /* \"#utility.yul\":5676:5815   */\n      swap1\n      pop\n        /* \"#utility.yul\":5574:5822   */\n      swap2\n      swap1\n      pop\n      jump\t// out\n        /* \"#utility.yul\":5828:6247   */\n    tag_32:\n      0x00\n        /* \"#utility.yul\":6032:6034   */\n      0x20\n        /* \"#utility.yul\":6021:6030   */\n      dup3\n        /* \"#utility.yul\":6017:6035   */\n      add\n        /* \"#utility.yul\":6009:6035   */\n      swap1\n      pop\n        /* \"#utility.yul\":6081:6090   */\n      dup2\n        /* \"#utility.yul\":6075:6079   */\n      dup2\n        /* \"#utility.yul\":6071:6091   */\n      sub\n        /* \"#utility.yul\":6067:6068   */\n      0x00\n        /* \"#utility.yul\":6056:6065   */\n      dup4\n        /* \"#utility.yul\":6052:6069   */\n      add\n        /* \"#utility.yul\":6045:6092   */\n      mstore\n        /* \"#utility.yul\":6109:6240   */\n      tag_159\n        /* \"#utility.yul\":6235:6239   */\n      dup2\n        /* \"#utility.yul\":6109:6240   */\n      tag_136\n      jump\t// in\n    tag_159:\n        /* \"#utility.yul\":6101:6240   */\n      swap1\n      pop\n        /* \"#utility.yul\":5999:6247   */\n      swap2\n      swap1\n      pop\n      jump\t// out\n        /* \"#utility.yul\":6253:6672   */\n    tag_62:\n      0x00\n        /* \"#utility.yul\":6457:6459   */\n      0x20\n        /* \"#utility.yul\":6446:6455   */\n      dup3\n        /* \"#utility.yul\":6442:6460   */\n      add\n        /* \"#utility.yul\":6434:6460   */\n      swap1\n      pop\n        /* \"#utility.yul\":6506:6515   */\n      dup2\n        /* \"#utility.yul\":6500:6504   */\n      dup2\n        /* \"#utility.yul\":6496:6516   */\n      sub\n        /* \"#utility.yul\":6492:6493   */\n      0x00\n        /* \"#utility.yul\":6481:6490   */\n      dup4\n        /* \"#utility.yul\":6477:6494   */\n      add\n        /* \"#utility.yul\":6470:6517   */\n      mstore\n        /* \"#utility.yul\":6534:6665   */\n      tag_161\n        /* \"#utility.yul\":6660:6664   */\n      dup2\n        /* \"#utility.yul\":6534:6665   */\n      tag_141\n      jump\t// in\n    tag_161:\n        /* \"#utility.yul\":6526:6665   */\n      swap1\n      pop\n        /* \"#utility.yul\":6424:6672   */\n      swap2\n      swap1\n      pop\n      jump\t// out\n        /* \"#utility.yul\":6678:6900   */\n    tag_37:\n      0x00\n        /* \"#utility.yul\":6809:6811   */\n      0x20\n        /* \"#utility.yul\":6798:6807   */\n      dup3\n        /* \"#utility.yul\":6794:6812   */\n      add\n        /* \"#utility.yul\":6786:6812   */\n      swap1\n      pop\n        /* \"#utility.yul\":6822:6893   */\n      tag_163\n        /* \"#utility.yul\":6890:6891   */\n      0x00\n        /* \"#utility.yul\":6879:6888   */\n      dup4\n        /* \"#utility.yul\":6875:6892   */\n      add\n        /* \"#utility.yul\":6866:6872   */\n      dup5\n        /* \"#utility.yul\":6822:6893   */\n      tag_146\n      jump\t// in\n    tag_163:\n        /* \"#utility.yul\":6776:6900   */\n      swap3\n      swap2\n      pop\n      pop\n      jump\t// out\n        /* \"#utility.yul\":6906:7035   */\n    tag_86:\n      0x00\n        /* \"#utility.yul\":6967:6987   */\n      tag_165\n      tag_166\n      jump\t// in\n    tag_165:\n        /* \"#utility.yul\":6957:6987   */\n      swap1\n      pop\n        /* \"#utility.yul\":6996:7029   */\n      tag_167\n        /* \"#utility.yul\":7024:7028   */\n      dup3\n        /* \"#utility.yul\":7016:7022   */\n      dup3\n        /* \"#utility.yul\":6996:7029   */\n      tag_168\n      jump\t// in\n    tag_167:\n        /* \"#utility.yul\":6947:7035   */\n      swap2\n      swap1\n      pop\n      jump\t// out\n        /* \"#utility.yul\":7041:7116   */\n    tag_166:\n      0x00\n        /* \"#utility.yul\":7107:7109   */\n      0x40\n        /* \"#utility.yul\":7101:7110   */\n      mload\n        /* \"#utility.yul\":7091:7110   */\n      swap1\n      pop\n        /* \"#utility.yul\":7081:7116   */\n      swap1\n      jump\t// out\n        /* \"#utility.yul\":7122:7430   */\n    tag_85:\n      0x00\n        /* \"#utility.yul\":7274:7292   */\n      0xffffffffffffffff\n        /* \"#utility.yul\":7266:7272   */\n      dup3\n        /* \"#utility.yul\":7263:7293   */\n      gt\n        /* \"#utility.yul\":7260:7262   */\n      iszero\n      tag_171\n      jumpi\n        /* \"#utility.yul\":7296:7314   */\n      tag_172\n      tag_173\n      jump\t// in\n    tag_172:\n        /* \"#utility.yul\":7260:7262   */\n    tag_171:\n        /* \"#utility.yul\":7334:7363   */\n      tag_174\n        /* \"#utility.yul\":7356:7362   */\n      dup3\n        /* \"#utility.yul\":7334:7363   */\n      tag_120\n      jump\t// in\n    tag_174:\n        /* \"#utility.yul\":7326:7363   */\n      swap1\n      pop\n        /* \"#utility.yul\":7418:7422   */\n      0x20\n        /* \"#utility.yul\":7412:7416   */\n      dup2\n        /* \"#utility.yul\":7408:7423   */\n      add\n        /* \"#utility.yul\":7400:7423   */\n      swap1\n      pop\n        /* \"#utility.yul\":7189:7430   */\n      swap2\n      swap1\n      pop\n      jump\t// out\n        /* \"#utility.yul\":7436:7535   */\n    tag_114:\n      0x00\n        /* \"#utility.yul\":7522:7527   */\n      dup2\n        /* \"#utility.yul\":7516:7528   */\n      mload\n        /* \"#utility.yul\":7506:7528   */\n      swap1\n      pop\n        /* \"#utility.yul\":7495:7535   */\n      swap2\n      swap1\n      pop\n      jump\t// out\n        /* \"#utility.yul\":7541:7710   */\n    tag_116:\n      0x00\n        /* \"#utility.yul\":7659:7665   */\n      dup3\n        /* \"#utility.yul\":7654:7657   */\n      dup3\n        /* \"#utility.yul\":7647:7666   */\n      mstore\n        /* \"#utility.yul\":7699:7703   */\n      0x20\n        /* \"#utility.yul\":7694:7697   */\n      dup3\n        /* \"#utility.yul\":7690:7704   */\n      add\n        /* \"#utility.yul\":7675:7704   */\n      swap1\n      pop\n        /* \"#utility.yul\":7637:7710   */\n      swap3\n      swap2\n      pop\n      pop\n      jump\t// out\n        /* \"#utility.yul\":7716:7812   */\n    tag_177:\n      0x00\n        /* \"#utility.yul\":7782:7806   */\n      tag_179\n        /* \"#utility.yul\":7800:7805   */\n      dup3\n        /* \"#utility.yul\":7782:7806   */\n      tag_180\n      jump\t// in\n    tag_179:\n        /* \"#utility.yul\":7771:7806   */\n      swap1\n      pop\n        /* \"#utility.yul\":7761:7812   */\n      swap2\n      swap1\n      pop\n      jump\t// out\n        /* \"#utility.yul\":7818:7944   */\n    tag_180:\n      0x00\n        /* \"#utility.yul\":7895:7937   */\n      0xffffffffffffffffffffffffffffffffffffffff\n        /* \"#utility.yul\":7888:7893   */\n      dup3\n        /* \"#utility.yul\":7884:7938   */\n      and\n        /* \"#utility.yul\":7873:7938   */\n      swap1\n      pop\n        /* \"#utility.yul\":7863:7944   */\n      swap2\n      swap1\n      pop\n      jump\t// out\n        /* \"#utility.yul\":7950:8027   */\n    tag_149:\n      0x00\n        /* \"#utility.yul\":8016:8021   */\n      dup2\n        /* \"#utility.yul\":8005:8021   */\n      swap1\n      pop\n        /* \"#utility.yul\":7995:8027   */\n      swap2\n      swap1\n      pop\n      jump\t// out\n        /* \"#utility.yul\":8033:8187   */\n    tag_89:\n        /* \"#utility.yul\":8117:8123   */\n      dup3\n        /* \"#utility.yul\":8112:8115   */\n      dup2\n        /* \"#utility.yul\":8107:8110   */\n      dup4\n        /* \"#utility.yul\":8094:8124   */\n      calldatacopy\n        /* \"#utility.yul\":8179:8180   */\n      0x00\n        /* \"#utility.yul\":8170:8176   */\n      dup4\n        /* \"#utility.yul\":8165:8168   */\n      dup4\n        /* \"#utility.yul\":8161:8177   */\n      add\n        /* \"#utility.yul\":8154:8181   */\n      mstore\n        /* \"#utility.yul\":8084:8187   */\n      pop\n      pop\n      pop\n      jump\t// out\n        /* \"#utility.yul\":8193:8500   */\n    tag_118:\n        /* \"#utility.yul\":8261:8262   */\n      0x00\n        /* \"#utility.yul\":8271:8384   */\n    tag_185:\n        /* \"#utility.yul\":8285:8291   */\n      dup4\n        /* \"#utility.yul\":8282:8283   */\n      dup2\n        /* \"#utility.yul\":8279:8292   */\n      lt\n        /* \"#utility.yul\":8271:8384   */\n      iszero\n      tag_187\n      jumpi\n        /* \"#utility.yul\":8370:8371   */\n      dup1\n        /* \"#utility.yul\":8365:8368   */\n      dup3\n        /* \"#utility.yul\":8361:8372   */\n      add\n        /* \"#utility.yul\":8355:8373   */\n      mload\n        /* \"#utility.yul\":8351:8352   */\n      dup2\n        /* \"#utility.yul\":8346:8349   */\n      dup5\n        /* \"#utility.yul\":8342:8353   */\n      add\n        /* \"#utility.yul\":8335:8374   */\n      mstore\n        /* \"#utility.yul\":8307:8309   */\n      0x20\n        /* \"#utility.yul\":8304:8305   */\n      dup2\n        /* \"#utility.yul\":8300:8310   */\n      add\n        /* \"#utility.yul\":8295:8310   */\n      swap1\n      pop\n        /* \"#utility.yul\":8271:8384   */\n      jump(tag_185)\n    tag_187:\n        /* \"#utility.yul\":8402:8408   */\n      dup4\n        /* \"#utility.yul\":8399:8400   */\n      dup2\n        /* \"#utility.yul\":8396:8409   */\n      gt\n        /* \"#utility.yul\":8393:8395   */\n      iszero\n      tag_188\n      jumpi\n        /* \"#utility.yul\":8482:8483   */\n      0x00\n        /* \"#utility.yul\":8473:8479   */\n      dup5\n        /* \"#utility.yul\":8468:8471   */\n      dup5\n        /* \"#utility.yul\":8464:8480   */\n      add\n        /* \"#utility.yul\":8457:8484   */\n      mstore\n        /* \"#utility.yul\":8393:8395   */\n    tag_188:\n        /* \"#utility.yul\":8242:8500   */\n      pop\n      pop\n      pop\n      pop\n      jump\t// out\n        /* \"#utility.yul\":8506:8826   */\n    tag_24:\n      0x00\n        /* \"#utility.yul\":8587:8588   */\n      0x02\n        /* \"#utility.yul\":8581:8585   */\n      dup3\n        /* \"#utility.yul\":8577:8589   */\n      div\n        /* \"#utility.yul\":8567:8589   */\n      swap1\n      pop\n        /* \"#utility.yul\":8634:8635   */\n      0x01\n        /* \"#utility.yul\":8628:8632   */\n      dup3\n        /* \"#utility.yul\":8624:8636   */\n      and\n        /* \"#utility.yul\":8655:8673   */\n      dup1\n        /* \"#utility.yul\":8645:8647   */\n      tag_190\n      jumpi\n        /* \"#utility.yul\":8711:8715   */\n      0x7f\n        /* \"#utility.yul\":8703:8709   */\n      dup3\n        /* \"#utility.yul\":8699:8716   */\n      and\n        /* \"#utility.yul\":8689:8716   */\n      swap2\n      pop\n        /* \"#utility.yul\":8645:8647   */\n    tag_190:\n        /* \"#utility.yul\":8773:8775   */\n      0x20\n        /* \"#utility.yul\":8765:8771   */\n      dup3\n        /* \"#utility.yul\":8762:8776   */\n      lt\n        /* \"#utility.yul\":8742:8760   */\n      dup2\n        /* \"#utility.yul\":8739:8777   */\n      eq\n        /* \"#utility.yul\":8736:8738   */\n      iszero\n      tag_191\n      jumpi\n        /* \"#utility.yul\":8792:8810   */\n      tag_192\n      tag_193\n      jump\t// in\n    tag_192:\n        /* \"#utility.yul\":8736:8738   */\n    tag_191:\n        /* \"#utility.yul\":8557:8826   */\n      pop\n      swap2\n      swap1\n      pop\n      jump\t// out\n        /* \"#utility.yul\":8832:9113   */\n    tag_168:\n        /* \"#utility.yul\":8915:8942   */\n      tag_195\n        /* \"#utility.yul\":8937:8941   */\n      dup3\n        /* \"#utility.yul\":8915:8942   */\n      tag_120\n      jump\t// in\n    tag_195:\n        /* \"#utility.yul\":8907:8913   */\n      dup2\n        /* \"#utility.yul\":8903:8943   */\n      add\n        /* \"#utility.yul\":9045:9051   */\n      dup2\n        /* \"#utility.yul\":9033:9043   */\n      dup2\n        /* \"#utility.yul\":9030:9052   */\n      lt\n        /* \"#utility.yul\":9009:9027   */\n      0xffffffffffffffff\n        /* \"#utility.yul\":8997:9007   */\n      dup3\n        /* \"#utility.yul\":8994:9028   */\n      gt\n        /* \"#utility.yul\":8991:9053   */\n      or\n        /* \"#utility.yul\":8988:8990   */\n      iszero\n      tag_196\n      jumpi\n        /* \"#utility.yul\":9056:9074   */\n      tag_197\n      tag_173\n      jump\t// in\n    tag_197:\n        /* \"#utility.yul\":8988:8990   */\n    tag_196:\n        /* \"#utility.yul\":9096:9106   */\n      dup1\n        /* \"#utility.yul\":9092:9094   */\n      0x40\n        /* \"#utility.yul\":9085:9107   */\n      mstore\n        /* \"#utility.yul\":8875:9113   */\n      pop\n      pop\n      pop\n      jump\t// out\n        /* \"#utility.yul\":9119:9299   */\n    tag_193:\n        /* \"#utility.yul\":9167:9244   */\n      0x4e487b7100000000000000000000000000000000000000000000000000000000\n        /* \"#utility.yul\":9164:9165   */\n      0x00\n        /* \"#utility.yul\":9157:9245   */\n      mstore\n        /* \"#utility.yul\":9264:9268   */\n      0x22\n        /* \"#utility.yul\":9261:9262   */\n      0x04\n        /* \"#utility.yul\":9254:9269   */\n      mstore\n        /* \"#utility.yul\":9288:9292   */\n      0x24\n        /* \"#utility.yul\":9285:9286   */\n      0x00\n        /* \"#utility.yul\":9278:9293   */\n      revert\n        /* \"#utility.yul\":9305:9485   */\n    tag_173:\n        /* \"#utility.yul\":9353:9430   */\n      0x4e487b7100000000000000000000000000000000000000000000000000000000\n        /* \"#utility.yul\":9350:9351   */\n      0x00\n        /* \"#utility.yul\":9343:9431   */\n      mstore\n        /* \"#utility.yul\":9450:9454   */\n      0x41\n        /* \"#utility.yul\":9447:9448   */\n      0x04\n        /* \"#utility.yul\":9440:9455   */\n      mstore\n        /* \"#utility.yul\":9474:9478   */\n      0x24\n        /* \"#utility.yul\":9471:9472   */\n      0x00\n        /* \"#utility.yul\":9464:9479   */\n      revert\n        /* \"#utility.yul\":9491:9593   */\n    tag_120:\n      0x00\n        /* \"#utility.yul\":9583:9585   */\n      0x1f\n        /* \"#utility.yul\":9579:9586   */\n      not\n        /* \"#utility.yul\":9574:9576   */\n      0x1f\n        /* \"#utility.yul\":9567:9572   */\n      dup4\n        /* \"#utility.yul\":9563:9577   */\n      add\n        /* \"#utility.yul\":9559:9587   */\n      and\n        /* \"#utility.yul\":9549:9587   */\n      swap1\n      pop\n        /* \"#utility.yul\":9539:9593   */\n      swap2\n      swap1\n      pop\n      jump\t// out\n        /* \"#utility.yul\":9599:9822   */\n    tag_125:\n        /* \"#utility.yul\":9739:9773   */\n      0x4552433732313a207472616e7366657220746f20746865207a65726f20616464\n        /* \"#utility.yul\":9735:9736   */\n      0x00\n        /* \"#utility.yul\":9727:9733   */\n      dup3\n        /* \"#utility.yul\":9723:9737   */\n      add\n        /* \"#utility.yul\":9716:9774   */\n      mstore\n        /* \"#utility.yul\":9808:9814   */\n      0x7265737300000000000000000000000000000000000000000000000000000000\n        /* \"#utility.yul\":9803:9805   */\n      0x20\n        /* \"#utility.yul\":9795:9801   */\n      dup3\n        /* \"#utility.yul\":9791:9806   */\n      add\n        /* \"#utility.yul\":9784:9815   */\n      mstore\n        /* \"#utility.yul\":9705:9822   */\n      pop\n      jump\t// out\n        /* \"#utility.yul\":9828:9997   */\n    tag_130:\n        /* \"#utility.yul\":9968:9989   */\n      0x746f6b656e20616c726561647920657869737400000000000000000000000000\n        /* \"#utility.yul\":9964:9965   */\n      0x00\n        /* \"#utility.yul\":9956:9962   */\n      dup3\n        /* \"#utility.yul\":9952:9966   */\n      add\n        /* \"#utility.yul\":9945:9990   */\n      mstore\n        /* \"#utility.yul\":9934:9997   */\n      pop\n      jump\t// out\n        /* \"#utility.yul\":10003:10172   */\n    tag_135:\n        /* \"#utility.yul\":10143:10164   */\n      0x746f6b656e20646f65736e277420657869737400000000000000000000000000\n        /* \"#utility.yul\":10139:10140   */\n      0x00\n        /* \"#utility.yul\":10131:10137   */\n      dup3\n        /* \"#utility.yul\":10127:10141   */\n      add\n        /* \"#utility.yul\":10120:10165   */\n      mstore\n        /* \"#utility.yul\":10109:10172   */\n      pop\n      jump\t// out\n        /* \"#utility.yul\":10178:10351   */\n    tag_140:\n        /* \"#utility.yul\":10318:10343   */\n      0x4e6f742063616c6c656420627920746865206f776e6572000000000000000000\n        /* \"#utility.yul\":10314:10315   */\n      0x00\n        /* \"#utility.yul\":10306:10312   */\n      dup3\n        /* \"#utility.yul\":10302:10316   */\n      add\n        /* \"#utility.yul\":10295:10344   */\n      mstore\n        /* \"#utility.yul\":10284:10351   */\n      pop\n      jump\t// out\n        /* \"#utility.yul\":10357:10531   */\n    tag_145:\n        /* \"#utility.yul\":10497:10523   */\n      0x6d696e7420746f20746865207a65726f20616464726573730000000000000000\n        /* \"#utility.yul\":10493:10494   */\n      0x00\n        /* \"#utility.yul\":10485:10491   */\n      dup3\n        /* \"#utility.yul\":10481:10495   */\n      add\n        /* \"#utility.yul\":10474:10524   */\n      mstore\n        /* \"#utility.yul\":10463:10531   */\n      pop\n      jump\t// out\n        /* \"#utility.yul\":10537:10659   */\n    tag_93:\n        /* \"#utility.yul\":10610:10634   */\n      tag_207\n        /* \"#utility.yul\":10628:10633   */\n      dup2\n        /* \"#utility.yul\":10610:10634   */\n      tag_177\n      jump\t// in\n    tag_207:\n        /* \"#utility.yul\":10603:10608   */\n      dup2\n        /* \"#utility.yul\":10600:10635   */\n      eq\n        /* \"#utility.yul\":10590:10592   */\n      tag_208\n      jumpi\n        /* \"#utility.yul\":10649:10650   */\n      0x00\n        /* \"#utility.yul\":10646:10647   */\n      dup1\n        /* \"#utility.yul\":10639:10651   */\n      revert\n        /* \"#utility.yul\":10590:10592   */\n    tag_208:\n        /* \"#utility.yul\":10580:10659   */\n      pop\n      jump\t// out\n        /* \"#utility.yul\":10665:10787   */\n    tag_101:\n        /* \"#utility.yul\":10738:10762   */\n      tag_210\n        /* \"#utility.yul\":10756:10761   */\n      dup2\n        /* \"#utility.yul\":10738:10762   */\n      tag_149\n      jump\t// in\n    tag_210:\n        /* \"#utility.yul\":10731:10736   */\n      dup2\n        /* \"#utility.yul\":10728:10763   */\n      eq\n        /* \"#utility.yul\":10718:10720   */\n      tag_211\n      jumpi\n        /* \"#utility.yul\":10777:10778   */\n      0x00\n        /* \"#utility.yul\":10774:10775   */\n      dup1\n        /* \"#utility.yul\":10767:10779   */\n      revert\n        /* \"#utility.yul\":10718:10720   */\n    tag_211:\n        /* \"#utility.yul\":10708:10787   */\n      pop\n      jump\t// out\n\n    auxdata: 0xa26469706673582212207daab3e14512b23e04b7d4d396865c92c39e9c2824963b6bb9dee75f94d6572464736f6c63430008010033\n}\n",
				"bytecode": {
					"linkReferences": {},
					"object": "60806040523480156200001157600080fd5b5060405162001360380380620013608339818101604052810190620000379190620001ec565b82600360006101000a81548173ffffffffffffffffffffffffffffffffffffffff021916908373ffffffffffffffffffffffffffffffffffffffff160217905550816000908051906020019062000090929190620000b3565b508060019080519060200190620000a9929190620000b3565b5050505062000432565b828054620000c1906200033d565b90600052602060002090601f016020900481019282620000e5576000855562000131565b82601f106200010057805160ff191683800117855562000131565b8280016001018555821562000131579182015b828111156200013057825182559160200191906001019062000113565b5b50905062000140919062000144565b5090565b5b808211156200015f57600081600090555060010162000145565b5090565b60006200017a62000174846200029d565b62000274565b9050828152602081018484840111156200019357600080fd5b620001a084828562000307565b509392505050565b600081519050620001b98162000418565b92915050565b600082601f830112620001d157600080fd5b8151620001e384826020860162000163565b91505092915050565b6000806000606084860312156200020257600080fd5b60006200021286828701620001a8565b935050602084015167ffffffffffffffff8111156200023057600080fd5b6200023e86828701620001bf565b925050604084015167ffffffffffffffff8111156200025c57600080fd5b6200026a86828701620001bf565b9150509250925092565b60006200028062000293565b90506200028e828262000373565b919050565b6000604051905090565b600067ffffffffffffffff821115620002bb57620002ba620003d8565b5b620002c68262000407565b9050602081019050919050565b6000620002e082620002e7565b9050919050565b600073ffffffffffffffffffffffffffffffffffffffff82169050919050565b60005b83811015620003275780820151818401526020810190506200030a565b8381111562000337576000848401525b50505050565b600060028204905060018216806200035657607f821691505b602082108114156200036d576200036c620003a9565b5b50919050565b6200037e8262000407565b810181811067ffffffffffffffff82111715620003a0576200039f620003d8565b5b80604052505050565b7f4e487b7100000000000000000000000000000000000000000000000000000000600052602260045260246000fd5b7f4e487b7100000000000000000000000000000000000000000000000000000000600052604160045260246000fd5b6000601f19601f8301169050919050565b6200042381620002d3565b81146200042f57600080fd5b50565b610f1e80620004426000396000f3fe608060405234801561001057600080fd5b506004361061004c5760003560e01c806306fdde031461005157806323b872dd1461006f57806395d89b411461008b578063d85d3d27146100a9575b600080fd5b6100596100c5565b6040516100669190610b28565b60405180910390f35b610089600480360381019061008491906109a1565b610157565b005b6100936103c3565b6040516100a09190610b28565b60405180910390f35b6100c360048036038101906100be91906109f0565b610455565b005b6060600080546100d490610cf5565b80601f016020809104026020016040519081016040528092919081815260200182805461010090610cf5565b801561014d5780601f106101225761010080835404028352916020019161014d565b820191906000526020600020905b81548152906001019060200180831161013057829003601f168201915b5050505050905090565b8273ffffffffffffffffffffffffffffffffffffffff166005600083815260200190815260200160002060009054906101000a900473ffffffffffffffffffffffffffffffffffffffff1673ffffffffffffffffffffffffffffffffffffffff16146101f8576040517f08c379a00000000000000000000000000000000000000000000000000000000081526004016101ef90610baa565b60405180910390fd5b600073ffffffffffffffffffffffffffffffffffffffff168273ffffffffffffffffffffffffffffffffffffffff161415610268576040517f08c379a000000000000000000000000000000000000000000000000000000000815260040161025f90610b4a565b60405180910390fd5b600460008473ffffffffffffffffffffffffffffffffffffffff1673ffffffffffffffffffffffffffffffffffffffff1681526020019081526020016000206000815480929190600190039190505550600460008373ffffffffffffffffffffffffffffffffffffffff1673ffffffffffffffffffffffffffffffffffffffff16815260200190815260200160002060008154809291906001019190505550816005600083815260200190815260200160002060006101000a81548173ffffffffffffffffffffffffffffffffffffffff021916908373ffffffffffffffffffffffffffffffffffffffff1602179055508173ffffffffffffffffffffffffffffffffffffffff168373ffffffffffffffffffffffffffffffffffffffff167fddf252ad1be2c89b69c2b068fc378daa952ba7f163c4a11628f55a4df523b3ef836040516103b69190610bea565b60405180910390a3505050565b6060600180546103d290610cf5565b80601f01602080910402602001604051908101604052809291908181526020018280546103fe90610cf5565b801561044b5780601f106104205761010080835404028352916020019161044b565b820191906000526020600020905b81548152906001019060200180831161042e57829003601f168201915b5050505050905090565b61045f60026104bc565b600061046b60026104d2565b905061047733826104e0565b610481818361079d565b7f7f8949b6eca2b14d0feb1af0844a112998e467a4f88b8683301f3a6e409f32ae816040516104b09190610bea565b60405180910390a15050565b6001816000016000828254019250508190555050565b600081600001549050919050565b600073ffffffffffffffffffffffffffffffffffffffff166007600083815260200190815260200160002060009054906101000a900473ffffffffffffffffffffffffffffffffffffffff1673ffffffffffffffffffffffffffffffffffffffff1614610582576040517f08c379a000000000000000000000000000000000000000000000000000000000815260040161057990610b6a565b60405180910390fd5b600073ffffffffffffffffffffffffffffffffffffffff168273ffffffffffffffffffffffffffffffffffffffff16146105f1576040517f08c379a00000000000000000000000000000000000000000000000000000000081526004016105e890610bca565b60405180910390fd5b600460008373ffffffffffffffffffffffffffffffffffffffff1673ffffffffffffffffffffffffffffffffffffffff16815260200190815260200160002060008154809291906001019190505550600660008373ffffffffffffffffffffffffffffffffffffffff1673ffffffffffffffffffffffffffffffffffffffff16815260200190815260200160002060008154809291906001019190505550816005600083815260200190815260200160002060006101000a81548173ffffffffffffffffffffffffffffffffffffffff021916908373ffffffffffffffffffffffffffffffffffffffff160217905550816007600083815260200190815260200160002060006101000a81548173ffffffffffffffffffffffffffffffffffffffff021916908373ffffffffffffffffffffffffffffffffffffffff1602179055508173ffffffffffffffffffffffffffffffffffffffff16600073ffffffffffffffffffffffffffffffffffffffff167fddf252ad1be2c89b69c2b068fc378daa952ba7f163c4a11628f55a4df523b3ef836040516107919190610bea565b60405180910390a35050565b600073ffffffffffffffffffffffffffffffffffffffff166007600084815260200190815260200160002060009054906101000a900473ffffffffffffffffffffffffffffffffffffffff1673ffffffffffffffffffffffffffffffffffffffff161415610840576040517f08c379a000000000000000000000000000000000000000000000000000000000815260040161083790610b8a565b60405180910390fd5b8060086000848152602001908152602001600020908051906020019061086792919061086c565b505050565b82805461087890610cf5565b90600052602060002090601f01602090048101928261089a57600085556108e1565b82601f106108b357805160ff19168380011785556108e1565b828001600101855582156108e1579182015b828111156108e05782518255916020019190600101906108c5565b5b5090506108ee91906108f2565b5090565b5b8082111561090b5760008160009055506001016108f3565b5090565b600061092261091d84610c2a565b610c05565b90508281526020810184848401111561093a57600080fd5b610945848285610cb3565b509392505050565b60008135905061095c81610eba565b92915050565b600082601f83011261097357600080fd5b813561098384826020860161090f565b91505092915050565b60008135905061099b81610ed1565b92915050565b6000806000606084860312156109b657600080fd5b60006109c48682870161094d565b93505060206109d58682870161094d565b92505060406109e68682870161098c565b9150509250925092565b600060208284031215610a0257600080fd5b600082013567ffffffffffffffff811115610a1c57600080fd5b610a2884828501610962565b91505092915050565b6000610a3c82610c5b565b610a468185610c66565b9350610a56818560208601610cc2565b610a5f81610db6565b840191505092915050565b6000610a77602483610c66565b9150610a8282610dc7565b604082019050919050565b6000610a9a601383610c66565b9150610aa582610e16565b602082019050919050565b6000610abd601383610c66565b9150610ac882610e3f565b602082019050919050565b6000610ae0601783610c66565b9150610aeb82610e68565b602082019050919050565b6000610b03601883610c66565b9150610b0e82610e91565b602082019050919050565b610b2281610ca9565b82525050565b60006020820190508181036000830152610b428184610a31565b905092915050565b60006020820190508181036000830152610b6381610a6a565b9050919050565b60006020820190508181036000830152610b8381610a8d565b9050919050565b60006020820190508181036000830152610ba381610ab0565b9050919050565b60006020820190508181036000830152610bc381610ad3565b9050919050565b60006020820190508181036000830152610be381610af6565b9050919050565b6000602082019050610bff6000830184610b19565b92915050565b6000610c0f610c20565b9050610c1b8282610d27565b919050565b6000604051905090565b600067ffffffffffffffff821115610c4557610c44610d87565b5b610c4e82610db6565b9050602081019050919050565b600081519050919050565b600082825260208201905092915050565b6000610c8282610c89565b9050919050565b600073ffffffffffffffffffffffffffffffffffffffff82169050919050565b6000819050919050565b82818337600083830152505050565b60005b83811015610ce0578082015181840152602081019050610cc5565b83811115610cef576000848401525b50505050565b60006002820490506001821680610d0d57607f821691505b60208210811415610d2157610d20610d58565b5b50919050565b610d3082610db6565b810181811067ffffffffffffffff82111715610d4f57610d4e610d87565b5b80604052505050565b7f4e487b7100000000000000000000000000000000000000000000000000000000600052602260045260246000fd5b7f4e487b7100000000000000000000000000000000000000000000000000000000600052604160045260246000fd5b6000601f19601f8301169050919050565b7f4552433732313a207472616e7366657220746f20746865207a65726f2061646460008201527f7265737300000000000000000000000000000000000000000000000000000000602082015250565b7f746f6b656e20616c726561647920657869737400000000000000000000000000600082015250565b7f746f6b656e20646f65736e277420657869737400000000000000000000000000600082015250565b7f4e6f742063616c6c656420627920746865206f776e6572000000000000000000600082015250565b7f6d696e7420746f20746865207a65726f20616464726573730000000000000000600082015250565b610ec381610c77565b8114610ece57600080fd5b50565b610eda81610ca9565b8114610ee557600080fd5b5056fea26469706673582212207daab3e14512b23e04b7d4d396865c92c39e9c2824963b6bb9dee75f94d6572464736f6c63430008010033",
					"opcodes": "PUSH1 0x80 PUSH1 0x40 MSTORE CALLVALUE DUP1 ISZERO PUSH3 0x11 JUMPI PUSH1 0x0 DUP1 REVERT JUMPDEST POP PUSH1 0x40 MLOAD PUSH3 0x1360 CODESIZE SUB DUP1 PUSH3 0x1360 DUP4 CODECOPY DUP2 DUP2 ADD PUSH1 0x40 MSTORE DUP2 ADD SWAP1 PUSH3 0x37 SWAP2 SWAP1 PUSH3 0x1EC JUMP JUMPDEST DUP3 PUSH1 0x3 PUSH1 0x0 PUSH2 0x100 EXP DUP2 SLOAD DUP2 PUSH20 0xFFFFFFFFFFFFFFFFFFFFFFFFFFFFFFFFFFFFFFFF MUL NOT AND SWAP1 DUP4 PUSH20 0xFFFFFFFFFFFFFFFFFFFFFFFFFFFFFFFFFFFFFFFF AND MUL OR SWAP1 SSTORE POP DUP2 PUSH1 0x0 SWAP1 DUP1 MLOAD SWAP1 PUSH1 0x20 ADD SWAP1 PUSH3 0x90 SWAP3 SWAP2 SWAP1 PUSH3 0xB3 JUMP JUMPDEST POP DUP1 PUSH1 0x1 SWAP1 DUP1 MLOAD SWAP1 PUSH1 0x20 ADD SWAP1 PUSH3 0xA9 SWAP3 SWAP2 SWAP1 PUSH3 0xB3 JUMP JUMPDEST POP POP POP POP PUSH3 0x432 JUMP JUMPDEST DUP3 DUP1 SLOAD PUSH3 0xC1 SWAP1 PUSH3 0x33D JUMP JUMPDEST SWAP1 PUSH1 0x0 MSTORE PUSH1 0x20 PUSH1 0x0 KECCAK256 SWAP1 PUSH1 0x1F ADD PUSH1 0x20 SWAP1 DIV DUP2 ADD SWAP3 DUP3 PUSH3 0xE5 JUMPI PUSH1 0x0 DUP6 SSTORE PUSH3 0x131 JUMP JUMPDEST DUP3 PUSH1 0x1F LT PUSH3 0x100 JUMPI DUP1 MLOAD PUSH1 0xFF NOT AND DUP4 DUP1 ADD OR DUP6 SSTORE PUSH3 0x131 JUMP JUMPDEST DUP3 DUP1 ADD PUSH1 0x1 ADD DUP6 SSTORE DUP3 ISZERO PUSH3 0x131 JUMPI SWAP2 DUP3 ADD JUMPDEST DUP3 DUP2 GT ISZERO PUSH3 0x130 JUMPI DUP3 MLOAD DUP3 SSTORE SWAP2 PUSH1 0x20 ADD SWAP2 SWAP1 PUSH1 0x1 ADD SWAP1 PUSH3 0x113 JUMP JUMPDEST JUMPDEST POP SWAP1 POP PUSH3 0x140 SWAP2 SWAP1 PUSH3 0x144 JUMP JUMPDEST POP SWAP1 JUMP JUMPDEST JUMPDEST DUP1 DUP3 GT ISZERO PUSH3 0x15F JUMPI PUSH1 0x0 DUP2 PUSH1 0x0 SWAP1 SSTORE POP PUSH1 0x1 ADD PUSH3 0x145 JUMP JUMPDEST POP SWAP1 JUMP JUMPDEST PUSH1 0x0 PUSH3 0x17A PUSH3 0x174 DUP5 PUSH3 0x29D JUMP JUMPDEST PUSH3 0x274 JUMP JUMPDEST SWAP1 POP DUP3 DUP2 MSTORE PUSH1 0x20 DUP2 ADD DUP5 DUP5 DUP5 ADD GT ISZERO PUSH3 0x193 JUMPI PUSH1 0x0 DUP1 REVERT JUMPDEST PUSH3 0x1A0 DUP5 DUP3 DUP6 PUSH3 0x307 JUMP JUMPDEST POP SWAP4 SWAP3 POP POP POP JUMP JUMPDEST PUSH1 0x0 DUP2 MLOAD SWAP1 POP PUSH3 0x1B9 DUP2 PUSH3 0x418 JUMP JUMPDEST SWAP3 SWAP2 POP POP JUMP JUMPDEST PUSH1 0x0 DUP3 PUSH1 0x1F DUP4 ADD SLT PUSH3 0x1D1 JUMPI PUSH1 0x0 DUP1 REVERT JUMPDEST DUP2 MLOAD PUSH3 0x1E3 DUP5 DUP3 PUSH1 0x20 DUP7 ADD PUSH3 0x163 JUMP JUMPDEST SWAP2 POP POP SWAP3 SWAP2 POP POP JUMP JUMPDEST PUSH1 0x0 DUP1 PUSH1 0x0 PUSH1 0x60 DUP5 DUP7 SUB SLT ISZERO PUSH3 0x202 JUMPI PUSH1 0x0 DUP1 REVERT JUMPDEST PUSH1 0x0 PUSH3 0x212 DUP7 DUP3 DUP8 ADD PUSH3 0x1A8 JUMP JUMPDEST SWAP4 POP POP PUSH1 0x20 DUP5 ADD MLOAD PUSH8 0xFFFFFFFFFFFFFFFF DUP2 GT ISZERO PUSH3 0x230 JUMPI PUSH1 0x0 DUP1 REVERT JUMPDEST PUSH3 0x23E DUP7 DUP3 DUP8 ADD PUSH3 0x1BF JUMP JUMPDEST SWAP3 POP POP PUSH1 0x40 DUP5 ADD MLOAD PUSH8 0xFFFFFFFFFFFFFFFF DUP2 GT ISZERO PUSH3 0x25C JUMPI PUSH1 0x0 DUP1 REVERT JUMPDEST PUSH3 0x26A DUP7 DUP3 DUP8 ADD PUSH3 0x1BF JUMP JUMPDEST SWAP2 POP POP SWAP3 POP SWAP3 POP SWAP3 JUMP JUMPDEST PUSH1 0x0 PUSH3 0x280 PUSH3 0x293 JUMP JUMPDEST SWAP1 POP PUSH3 0x28E DUP3 DUP3 PUSH3 0x373 JUMP JUMPDEST SWAP2 SWAP1 POP JUMP JUMPDEST PUSH1 0x0 PUSH1 0x40 MLOAD SWAP1 POP SWAP1 JUMP JUMPDEST PUSH1 0x0 PUSH8 0xFFFFFFFFFFFFFFFF DUP3 GT ISZERO PUSH3 0x2BB JUMPI PUSH3 0x2BA PUSH3 0x3D8 JUMP JUMPDEST JUMPDEST PUSH3 0x2C6 DUP3 PUSH3 0x407 JUMP JUMPDEST SWAP1 POP PUSH1 0x20 DUP2 ADD SWAP1 POP SWAP2 SWAP1 POP JUMP JUMPDEST PUSH1 0x0 PUSH3 0x2E0 DUP3 PUSH3 0x2E7 JUMP JUMPDEST SWAP1 POP SWAP2 SWAP1 POP JUMP JUMPDEST PUSH1 0x0 PUSH20 0xFFFFFFFFFFFFFFFFFFFFFFFFFFFFFFFFFFFFFFFF DUP3 AND SWAP1 POP SWAP2 SWAP1 POP JUMP JUMPDEST PUSH1 0x0 JUMPDEST DUP4 DUP2 LT ISZERO PUSH3 0x327 JUMPI DUP1 DUP3 ADD MLOAD DUP2 DUP5 ADD MSTORE PUSH1 0x20 DUP2 ADD SWAP1 POP PUSH3 0x30A JUMP JUMPDEST DUP4 DUP2 GT ISZERO PUSH3 0x337 JUMPI PUSH1 0x0 DUP5 DUP5 ADD MSTORE JUMPDEST POP POP POP POP JUMP JUMPDEST PUSH1 0x0 PUSH1 0x2 DUP3 DIV SWAP1 POP PUSH1 0x1 DUP3 AND DUP1 PUSH3 0x356 JUMPI PUSH1 0x7F DUP3 AND SWAP2 POP JUMPDEST PUSH1 0x20 DUP3 LT DUP2 EQ ISZERO PUSH3 0x36D JUMPI PUSH3 0x36C PUSH3 0x3A9 JUMP JUMPDEST JUMPDEST POP SWAP2 SWAP1 POP JUMP JUMPDEST PUSH3 0x37E DUP3 PUSH3 0x407 JUMP JUMPDEST DUP2 ADD DUP2 DUP2 LT PUSH8 0xFFFFFFFFFFFFFFFF DUP3 GT OR ISZERO PUSH3 0x3A0 JUMPI PUSH3 0x39F PUSH3 0x3D8 JUMP JUMPDEST JUMPDEST DUP1 PUSH1 0x40 MSTORE POP POP POP JUMP JUMPDEST PUSH32 0x4E487B7100000000000000000000000000000000000000000000000000000000 PUSH1 0x0 MSTORE PUSH1 0x22 PUSH1 0x4 MSTORE PUSH1 0x24 PUSH1 0x0 REVERT JUMPDEST PUSH32 0x4E487B7100000000000000000000000000000000000000000000000000000000 PUSH1 0x0 MSTORE PUSH1 0x41 PUSH1 0x4 MSTORE PUSH1 0x24 PUSH1 0x0 REVERT JUMPDEST PUSH1 0x0 PUSH1 0x1F NOT PUSH1 0x1F DUP4 ADD AND SWAP1 POP SWAP2 SWAP1 POP JUMP JUMPDEST PUSH3 0x423 DUP2 PUSH3 0x2D3 JUMP JUMPDEST DUP2 EQ PUSH3 0x42F JUMPI PUSH1 0x0 DUP1 REVERT JUMPDEST POP JUMP JUMPDEST PUSH2 0xF1E DUP1 PUSH3 0x442 PUSH1 0x0 CODECOPY PUSH1 0x0 RETURN INVALID PUSH1 0x80 PUSH1 0x40 MSTORE CALLVALUE DUP1 ISZERO PUSH2 0x10 JUMPI PUSH1 0x0 DUP1 REVERT JUMPDEST POP PUSH1 0x4 CALLDATASIZE LT PUSH2 0x4C JUMPI PUSH1 0x0 CALLDATALOAD PUSH1 0xE0 SHR DUP1 PUSH4 0x6FDDE03 EQ PUSH2 0x51 JUMPI DUP1 PUSH4 0x23B872DD EQ PUSH2 0x6F JUMPI DUP1 PUSH4 0x95D89B41 EQ PUSH2 0x8B JUMPI DUP1 PUSH4 0xD85D3D27 EQ PUSH2 0xA9 JUMPI JUMPDEST PUSH1 0x0 DUP1 REVERT JUMPDEST PUSH2 0x59 PUSH2 0xC5 JUMP JUMPDEST PUSH1 0x40 MLOAD PUSH2 0x66 SWAP2 SWAP1 PUSH2 0xB28 JUMP JUMPDEST PUSH1 0x40 MLOAD DUP1 SWAP2 SUB SWAP1 RETURN JUMPDEST PUSH2 0x89 PUSH1 0x4 DUP1 CALLDATASIZE SUB DUP2 ADD SWAP1 PUSH2 0x84 SWAP2 SWAP1 PUSH2 0x9A1 JUMP JUMPDEST PUSH2 0x157 JUMP JUMPDEST STOP JUMPDEST PUSH2 0x93 PUSH2 0x3C3 JUMP JUMPDEST PUSH1 0x40 MLOAD PUSH2 0xA0 SWAP2 SWAP1 PUSH2 0xB28 JUMP JUMPDEST PUSH1 0x40 MLOAD DUP1 SWAP2 SUB SWAP1 RETURN JUMPDEST PUSH2 0xC3 PUSH1 0x4 DUP1 CALLDATASIZE SUB DUP2 ADD SWAP1 PUSH2 0xBE SWAP2 SWAP1 PUSH2 0x9F0 JUMP JUMPDEST PUSH2 0x455 JUMP JUMPDEST STOP JUMPDEST PUSH1 0x60 PUSH1 0x0 DUP1 SLOAD PUSH2 0xD4 SWAP1 PUSH2 0xCF5 JUMP JUMPDEST DUP1 PUSH1 0x1F ADD PUSH1 0x20 DUP1 SWAP2 DIV MUL PUSH1 0x20 ADD PUSH1 0x40 MLOAD SWAP1 DUP2 ADD PUSH1 0x40 MSTORE DUP1 SWAP3 SWAP2 SWAP1 DUP2 DUP2 MSTORE PUSH1 0x20 ADD DUP3 DUP1 SLOAD PUSH2 0x100 SWAP1 PUSH2 0xCF5 JUMP JUMPDEST DUP1 ISZERO PUSH2 0x14D JUMPI DUP1 PUSH1 0x1F LT PUSH2 0x122 JUMPI PUSH2 0x100 DUP1 DUP4 SLOAD DIV MUL DUP4 MSTORE SWAP2 PUSH1 0x20 ADD SWAP2 PUSH2 0x14D JUMP JUMPDEST DUP3 ADD SWAP2 SWAP1 PUSH1 0x0 MSTORE PUSH1 0x20 PUSH1 0x0 KECCAK256 SWAP1 JUMPDEST DUP2 SLOAD DUP2 MSTORE SWAP1 PUSH1 0x1 ADD SWAP1 PUSH1 0x20 ADD DUP1 DUP4 GT PUSH2 0x130 JUMPI DUP3 SWAP1 SUB PUSH1 0x1F AND DUP3 ADD SWAP2 JUMPDEST POP POP POP POP POP SWAP1 POP SWAP1 JUMP JUMPDEST DUP3 PUSH20 0xFFFFFFFFFFFFFFFFFFFFFFFFFFFFFFFFFFFFFFFF AND PUSH1 0x5 PUSH1 0x0 DUP4 DUP2 MSTORE PUSH1 0x20 ADD SWAP1 DUP2 MSTORE PUSH1 0x20 ADD PUSH1 0x0 KECCAK256 PUSH1 0x0 SWAP1 SLOAD SWAP1 PUSH2 0x100 EXP SWAP1 DIV PUSH20 0xFFFFFFFFFFFFFFFFFFFFFFFFFFFFFFFFFFFFFFFF AND PUSH20 0xFFFFFFFFFFFFFFFFFFFFFFFFFFFFFFFFFFFFFFFF AND EQ PUSH2 0x1F8 JUMPI PUSH1 0x40 MLOAD PUSH32 0x8C379A000000000000000000000000000000000000000000000000000000000 DUP2 MSTORE PUSH1 0x4 ADD PUSH2 0x1EF SWAP1 PUSH2 0xBAA JUMP JUMPDEST PUSH1 0x40 MLOAD DUP1 SWAP2 SUB SWAP1 REVERT JUMPDEST PUSH1 0x0 PUSH20 0xFFFFFFFFFFFFFFFFFFFFFFFFFFFFFFFFFFFFFFFF AND DUP3 PUSH20 0xFFFFFFFFFFFFFFFFFFFFFFFFFFFFFFFFFFFFFFFF AND EQ ISZERO PUSH2 0x268 JUMPI PUSH1 0x40 MLOAD PUSH32 0x8C379A000000000000000000000000000000000000000000000000000000000 DUP2 MSTORE PUSH1 0x4 ADD PUSH2 0x25F SWAP1 PUSH2 0xB4A JUMP JUMPDEST PUSH1 0x40 MLOAD DUP1 SWAP2 SUB SWAP1 REVERT JUMPDEST PUSH1 0x4 PUSH1 0x0 DUP5 PUSH20 0xFFFFFFFFFFFFFFFFFFFFFFFFFFFFFFFFFFFFFFFF AND PUSH20 0xFFFFFFFFFFFFFFFFFFFFFFFFFFFFFFFFFFFFFFFF AND DUP2 MSTORE PUSH1 0x20 ADD SWAP1 DUP2 MSTORE PUSH1 0x20 ADD PUSH1 0x0 KECCAK256 PUSH1 0x0 DUP2 SLOAD DUP1 SWAP3 SWAP2 SWAP1 PUSH1 0x1 SWAP1 SUB SWAP2 SWAP1 POP SSTORE POP PUSH1 0x4 PUSH1 0x0 DUP4 PUSH20 0xFFFFFFFFFFFFFFFFFFFFFFFFFFFFFFFFFFFFFFFF AND PUSH20 0xFFFFFFFFFFFFFFFFFFFFFFFFFFFFFFFFFFFFFFFF AND DUP2 MSTORE PUSH1 0x20 ADD SWAP1 DUP2 MSTORE PUSH1 0x20 ADD PUSH1 0x0 KECCAK256 PUSH1 0x0 DUP2 SLOAD DUP1 SWAP3 SWAP2 SWAP1 PUSH1 0x1 ADD SWAP2 SWAP1 POP SSTORE POP DUP2 PUSH1 0x5 PUSH1 0x0 DUP4 DUP2 MSTORE PUSH1 0x20 ADD SWAP1 DUP2 MSTORE PUSH1 0x20 ADD PUSH1 0x0 KECCAK256 PUSH1 0x0 PUSH2 0x100 EXP DUP2 SLOAD DUP2 PUSH20 0xFFFFFFFFFFFFFFFFFFFFFFFFFFFFFFFFFFFFFFFF MUL NOT AND SWAP1 DUP4 PUSH20 0xFFFFFFFFFFFFFFFFFFFFFFFFFFFFFFFFFFFFFFFF AND MUL OR SWAP1 SSTORE POP DUP2 PUSH20 0xFFFFFFFFFFFFFFFFFFFFFFFFFFFFFFFFFFFFFFFF AND DUP4 PUSH20 0xFFFFFFFFFFFFFFFFFFFFFFFFFFFFFFFFFFFFFFFF AND PUSH32 0xDDF252AD1BE2C89B69C2B068FC378DAA952BA7F163C4A11628F55A4DF523B3EF DUP4 PUSH1 0x40 MLOAD PUSH2 0x3B6 SWAP2 SWAP1 PUSH2 0xBEA JUMP JUMPDEST PUSH1 0x40 MLOAD DUP1 SWAP2 SUB SWAP1 LOG3 POP POP POP JUMP JUMPDEST PUSH1 0x60 PUSH1 0x1 DUP1 SLOAD PUSH2 0x3D2 SWAP1 PUSH2 0xCF5 JUMP JUMPDEST DUP1 PUSH1 0x1F ADD PUSH1 0x20 DUP1 SWAP2 DIV MUL PUSH1 0x20 ADD PUSH1 0x40 MLOAD SWAP1 DUP2 ADD PUSH1 0x40 MSTORE DUP1 SWAP3 SWAP2 SWAP1 DUP2 DUP2 MSTORE PUSH1 0x20 ADD DUP3 DUP1 SLOAD PUSH2 0x3FE SWAP1 PUSH2 0xCF5 JUMP JUMPDEST DUP1 ISZERO PUSH2 0x44B JUMPI DUP1 PUSH1 0x1F LT PUSH2 0x420 JUMPI PUSH2 0x100 DUP1 DUP4 SLOAD DIV MUL DUP4 MSTORE SWAP2 PUSH1 0x20 ADD SWAP2 PUSH2 0x44B JUMP JUMPDEST DUP3 ADD SWAP2 SWAP1 PUSH1 0x0 MSTORE PUSH1 0x20 PUSH1 0x0 KECCAK256 SWAP1 JUMPDEST DUP2 SLOAD DUP2 MSTORE SWAP1 PUSH1 0x1 ADD SWAP1 PUSH1 0x20 ADD DUP1 DUP4 GT PUSH2 0x42E JUMPI DUP3 SWAP1 SUB PUSH1 0x1F AND DUP3 ADD SWAP2 JUMPDEST POP POP POP POP POP SWAP1 POP SWAP1 JUMP JUMPDEST PUSH2 0x45F PUSH1 0x2 PUSH2 0x4BC JUMP JUMPDEST PUSH1 0x0 PUSH2 0x46B PUSH1 0x2 PUSH2 0x4D2 JUMP JUMPDEST SWAP1 POP PUSH2 0x477 CALLER DUP3 PUSH2 0x4E0 JUMP JUMPDEST PUSH2 0x481 DUP2 DUP4 PUSH2 0x79D JUMP JUMPDEST PUSH32 0x7F8949B6ECA2B14D0FEB1AF0844A112998E467A4F88B8683301F3A6E409F32AE DUP2 PUSH1 0x40 MLOAD PUSH2 0x4B0 SWAP2 SWAP1 PUSH2 0xBEA JUMP JUMPDEST PUSH1 0x40 MLOAD DUP1 SWAP2 SUB SWAP1 LOG1 POP POP JUMP JUMPDEST PUSH1 0x1 DUP2 PUSH1 0x0 ADD PUSH1 0x0 DUP3 DUP3 SLOAD ADD SWAP3 POP POP DUP2 SWAP1 SSTORE POP POP JUMP JUMPDEST PUSH1 0x0 DUP2 PUSH1 0x0 ADD SLOAD SWAP1 POP SWAP2 SWAP1 POP JUMP JUMPDEST PUSH1 0x0 PUSH20 0xFFFFFFFFFFFFFFFFFFFFFFFFFFFFFFFFFFFFFFFF AND PUSH1 0x7 PUSH1 0x0 DUP4 DUP2 MSTORE PUSH1 0x20 ADD SWAP1 DUP2 MSTORE PUSH1 0x20 ADD PUSH1 0x0 KECCAK256 PUSH1 0x0 SWAP1 SLOAD SWAP1 PUSH2 0x100 EXP SWAP1 DIV PUSH20 0xFFFFFFFFFFFFFFFFFFFFFFFFFFFFFFFFFFFFFFFF AND PUSH20 0xFFFFFFFFFFFFFFFFFFFFFFFFFFFFFFFFFFFFFFFF AND EQ PUSH2 0x582 JUMPI PUSH1 0x40 MLOAD PUSH32 0x8C379A000000000000000000000000000000000000000000000000000000000 DUP2 MSTORE PUSH1 0x4 ADD PUSH2 0x579 SWAP1 PUSH2 0xB6A JUMP JUMPDEST PUSH1 0x40 MLOAD DUP1 SWAP2 SUB SWAP1 REVERT JUMPDEST PUSH1 0x0 PUSH20 0xFFFFFFFFFFFFFFFFFFFFFFFFFFFFFFFFFFFFFFFF AND DUP3 PUSH20 0xFFFFFFFFFFFFFFFFFFFFFFFFFFFFFFFFFFFFFFFF AND EQ PUSH2 0x5F1 JUMPI PUSH1 0x40 MLOAD PUSH32 0x8C379A000000000000000000000000000000000000000000000000000000000 DUP2 MSTORE PUSH1 0x4 ADD PUSH2 0x5E8 SWAP1 PUSH2 0xBCA JUMP JUMPDEST PUSH1 0x40 MLOAD DUP1 SWAP2 SUB SWAP1 REVERT JUMPDEST PUSH1 0x4 PUSH1 0x0 DUP4 PUSH20 0xFFFFFFFFFFFFFFFFFFFFFFFFFFFFFFFFFFFFFFFF AND PUSH20 0xFFFFFFFFFFFFFFFFFFFFFFFFFFFFFFFFFFFFFFFF AND DUP2 MSTORE PUSH1 0x20 ADD SWAP1 DUP2 MSTORE PUSH1 0x20 ADD PUSH1 0x0 KECCAK256 PUSH1 0x0 DUP2 SLOAD DUP1 SWAP3 SWAP2 SWAP1 PUSH1 0x1 ADD SWAP2 SWAP1 POP SSTORE POP PUSH1 0x6 PUSH1 0x0 DUP4 PUSH20 0xFFFFFFFFFFFFFFFFFFFFFFFFFFFFFFFFFFFFFFFF AND PUSH20 0xFFFFFFFFFFFFFFFFFFFFFFFFFFFFFFFFFFFFFFFF AND DUP2 MSTORE PUSH1 0x20 ADD SWAP1 DUP2 MSTORE PUSH1 0x20 ADD PUSH1 0x0 KECCAK256 PUSH1 0x0 DUP2 SLOAD DUP1 SWAP3 SWAP2 SWAP1 PUSH1 0x1 ADD SWAP2 SWAP1 POP SSTORE POP DUP2 PUSH1 0x5 PUSH1 0x0 DUP4 DUP2 MSTORE PUSH1 0x20 ADD SWAP1 DUP2 MSTORE PUSH1 0x20 ADD PUSH1 0x0 KECCAK256 PUSH1 0x0 PUSH2 0x100 EXP DUP2 SLOAD DUP2 PUSH20 0xFFFFFFFFFFFFFFFFFFFFFFFFFFFFFFFFFFFFFFFF MUL NOT AND SWAP1 DUP4 PUSH20 0xFFFFFFFFFFFFFFFFFFFFFFFFFFFFFFFFFFFFFFFF AND MUL OR SWAP1 SSTORE POP DUP2 PUSH1 0x7 PUSH1 0x0 DUP4 DUP2 MSTORE PUSH1 0x20 ADD SWAP1 DUP2 MSTORE PUSH1 0x20 ADD PUSH1 0x0 KECCAK256 PUSH1 0x0 PUSH2 0x100 EXP DUP2 SLOAD DUP2 PUSH20 0xFFFFFFFFFFFFFFFFFFFFFFFFFFFFFFFFFFFFFFFF MUL NOT AND SWAP1 DUP4 PUSH20 0xFFFFFFFFFFFFFFFFFFFFFFFFFFFFFFFFFFFFFFFF AND MUL OR SWAP1 SSTORE POP DUP2 PUSH20 0xFFFFFFFFFFFFFFFFFFFFFFFFFFFFFFFFFFFFFFFF AND PUSH1 0x0 PUSH20 0xFFFFFFFFFFFFFFFFFFFFFFFFFFFFFFFFFFFFFFFF AND PUSH32 0xDDF252AD1BE2C89B69C2B068FC378DAA952BA7F163C4A11628F55A4DF523B3EF DUP4 PUSH1 0x40 MLOAD PUSH2 0x791 SWAP2 SWAP1 PUSH2 0xBEA JUMP JUMPDEST PUSH1 0x40 MLOAD DUP1 SWAP2 SUB SWAP1 LOG3 POP POP JUMP JUMPDEST PUSH1 0x0 PUSH20 0xFFFFFFFFFFFFFFFFFFFFFFFFFFFFFFFFFFFFFFFF AND PUSH1 0x7 PUSH1 0x0 DUP5 DUP2 MSTORE PUSH1 0x20 ADD SWAP1 DUP2 MSTORE PUSH1 0x20 ADD PUSH1 0x0 KECCAK256 PUSH1 0x0 SWAP1 SLOAD SWAP1 PUSH2 0x100 EXP SWAP1 DIV PUSH20 0xFFFFFFFFFFFFFFFFFFFFFFFFFFFFFFFFFFFFFFFF AND PUSH20 0xFFFFFFFFFFFFFFFFFFFFFFFFFFFFFFFFFFFFFFFF AND EQ ISZERO PUSH2 0x840 JUMPI PUSH1 0x40 MLOAD PUSH32 0x8C379A000000000000000000000000000000000000000000000000000000000 DUP2 MSTORE PUSH1 0x4 ADD PUSH2 0x837 SWAP1 PUSH2 0xB8A JUMP JUMPDEST PUSH1 0x40 MLOAD DUP1 SWAP2 SUB SWAP1 REVERT JUMPDEST DUP1 PUSH1 0x8 PUSH1 0x0 DUP5 DUP2 MSTORE PUSH1 0x20 ADD SWAP1 DUP2 MSTORE PUSH1 0x20 ADD PUSH1 0x0 KECCAK256 SWAP1 DUP1 MLOAD SWAP1 PUSH1 0x20 ADD SWAP1 PUSH2 0x867 SWAP3 SWAP2 SWAP1 PUSH2 0x86C JUMP JUMPDEST POP POP POP JUMP JUMPDEST DUP3 DUP1 SLOAD PUSH2 0x878 SWAP1 PUSH2 0xCF5 JUMP JUMPDEST SWAP1 PUSH1 0x0 MSTORE PUSH1 0x20 PUSH1 0x0 KECCAK256 SWAP1 PUSH1 0x1F ADD PUSH1 0x20 SWAP1 DIV DUP2 ADD SWAP3 DUP3 PUSH2 0x89A JUMPI PUSH1 0x0 DUP6 SSTORE PUSH2 0x8E1 JUMP JUMPDEST DUP3 PUSH1 0x1F LT PUSH2 0x8B3 JUMPI DUP1 MLOAD PUSH1 0xFF NOT AND DUP4 DUP1 ADD OR DUP6 SSTORE PUSH2 0x8E1 JUMP JUMPDEST DUP3 DUP1 ADD PUSH1 0x1 ADD DUP6 SSTORE DUP3 ISZERO PUSH2 0x8E1 JUMPI SWAP2 DUP3 ADD JUMPDEST DUP3 DUP2 GT ISZERO PUSH2 0x8E0 JUMPI DUP3 MLOAD DUP3 SSTORE SWAP2 PUSH1 0x20 ADD SWAP2 SWAP1 PUSH1 0x1 ADD SWAP1 PUSH2 0x8C5 JUMP JUMPDEST JUMPDEST POP SWAP1 POP PUSH2 0x8EE SWAP2 SWAP1 PUSH2 0x8F2 JUMP JUMPDEST POP SWAP1 JUMP JUMPDEST JUMPDEST DUP1 DUP3 GT ISZERO PUSH2 0x90B JUMPI PUSH1 0x0 DUP2 PUSH1 0x0 SWAP1 SSTORE POP PUSH1 0x1 ADD PUSH2 0x8F3 JUMP JUMPDEST POP SWAP1 JUMP JUMPDEST PUSH1 0x0 PUSH2 0x922 PUSH2 0x91D DUP5 PUSH2 0xC2A JUMP JUMPDEST PUSH2 0xC05 JUMP JUMPDEST SWAP1 POP DUP3 DUP2 MSTORE PUSH1 0x20 DUP2 ADD DUP5 DUP5 DUP5 ADD GT ISZERO PUSH2 0x93A JUMPI PUSH1 0x0 DUP1 REVERT JUMPDEST PUSH2 0x945 DUP5 DUP3 DUP6 PUSH2 0xCB3 JUMP JUMPDEST POP SWAP4 SWAP3 POP POP POP JUMP JUMPDEST PUSH1 0x0 DUP2 CALLDATALOAD SWAP1 POP PUSH2 0x95C DUP2 PUSH2 0xEBA JUMP JUMPDEST SWAP3 SWAP2 POP POP JUMP JUMPDEST PUSH1 0x0 DUP3 PUSH1 0x1F DUP4 ADD SLT PUSH2 0x973 JUMPI PUSH1 0x0 DUP1 REVERT JUMPDEST DUP2 CALLDATALOAD PUSH2 0x983 DUP5 DUP3 PUSH1 0x20 DUP7 ADD PUSH2 0x90F JUMP JUMPDEST SWAP2 POP POP SWAP3 SWAP2 POP POP JUMP JUMPDEST PUSH1 0x0 DUP2 CALLDATALOAD SWAP1 POP PUSH2 0x99B DUP2 PUSH2 0xED1 JUMP JUMPDEST SWAP3 SWAP2 POP POP JUMP JUMPDEST PUSH1 0x0 DUP1 PUSH1 0x0 PUSH1 0x60 DUP5 DUP7 SUB SLT ISZERO PUSH2 0x9B6 JUMPI PUSH1 0x0 DUP1 REVERT JUMPDEST PUSH1 0x0 PUSH2 0x9C4 DUP7 DUP3 DUP8 ADD PUSH2 0x94D JUMP JUMPDEST SWAP4 POP POP PUSH1 0x20 PUSH2 0x9D5 DUP7 DUP3 DUP8 ADD PUSH2 0x94D JUMP JUMPDEST SWAP3 POP POP PUSH1 0x40 PUSH2 0x9E6 DUP7 DUP3 DUP8 ADD PUSH2 0x98C JUMP JUMPDEST SWAP2 POP POP SWAP3 POP SWAP3 POP SWAP3 JUMP JUMPDEST PUSH1 0x0 PUSH1 0x20 DUP3 DUP5 SUB SLT ISZERO PUSH2 0xA02 JUMPI PUSH1 0x0 DUP1 REVERT JUMPDEST PUSH1 0x0 DUP3 ADD CALLDATALOAD PUSH8 0xFFFFFFFFFFFFFFFF DUP2 GT ISZERO PUSH2 0xA1C JUMPI PUSH1 0x0 DUP1 REVERT JUMPDEST PUSH2 0xA28 DUP5 DUP3 DUP6 ADD PUSH2 0x962 JUMP JUMPDEST SWAP2 POP POP SWAP3 SWAP2 POP POP JUMP JUMPDEST PUSH1 0x0 PUSH2 0xA3C DUP3 PUSH2 0xC5B JUMP JUMPDEST PUSH2 0xA46 DUP2 DUP6 PUSH2 0xC66 JUMP JUMPDEST SWAP4 POP PUSH2 0xA56 DUP2 DUP6 PUSH1 0x20 DUP7 ADD PUSH2 0xCC2 JUMP JUMPDEST PUSH2 0xA5F DUP2 PUSH2 0xDB6 JUMP JUMPDEST DUP5 ADD SWAP2 POP POP SWAP3 SWAP2 POP POP JUMP JUMPDEST PUSH1 0x0 PUSH2 0xA77 PUSH1 0x24 DUP4 PUSH2 0xC66 JUMP JUMPDEST SWAP2 POP PUSH2 0xA82 DUP3 PUSH2 0xDC7 JUMP JUMPDEST PUSH1 0x40 DUP3 ADD SWAP1 POP SWAP2 SWAP1 POP JUMP JUMPDEST PUSH1 0x0 PUSH2 0xA9A PUSH1 0x13 DUP4 PUSH2 0xC66 JUMP JUMPDEST SWAP2 POP PUSH2 0xAA5 DUP3 PUSH2 0xE16 JUMP JUMPDEST PUSH1 0x20 DUP3 ADD SWAP1 POP SWAP2 SWAP1 POP JUMP JUMPDEST PUSH1 0x0 PUSH2 0xABD PUSH1 0x13 DUP4 PUSH2 0xC66 JUMP JUMPDEST SWAP2 POP PUSH2 0xAC8 DUP3 PUSH2 0xE3F JUMP JUMPDEST PUSH1 0x20 DUP3 ADD SWAP1 POP SWAP2 SWAP1 POP JUMP JUMPDEST PUSH1 0x0 PUSH2 0xAE0 PUSH1 0x17 DUP4 PUSH2 0xC66 JUMP JUMPDEST SWAP2 POP PUSH2 0xAEB DUP3 PUSH2 0xE68 JUMP JUMPDEST PUSH1 0x20 DUP3 ADD SWAP1 POP SWAP2 SWAP1 POP JUMP JUMPDEST PUSH1 0x0 PUSH2 0xB03 PUSH1 0x18 DUP4 PUSH2 0xC66 JUMP JUMPDEST SWAP2 POP PUSH2 0xB0E DUP3 PUSH2 0xE91 JUMP JUMPDEST PUSH1 0x20 DUP3 ADD SWAP1 POP SWAP2 SWAP1 POP JUMP JUMPDEST PUSH2 0xB22 DUP2 PUSH2 0xCA9 JUMP JUMPDEST DUP3 MSTORE POP POP JUMP JUMPDEST PUSH1 0x0 PUSH1 0x20 DUP3 ADD SWAP1 POP DUP2 DUP2 SUB PUSH1 0x0 DUP4 ADD MSTORE PUSH2 0xB42 DUP2 DUP5 PUSH2 0xA31 JUMP JUMPDEST SWAP1 POP SWAP3 SWAP2 POP POP JUMP JUMPDEST PUSH1 0x0 PUSH1 0x20 DUP3 ADD SWAP1 POP DUP2 DUP2 SUB PUSH1 0x0 DUP4 ADD MSTORE PUSH2 0xB63 DUP2 PUSH2 0xA6A JUMP JUMPDEST SWAP1 POP SWAP2 SWAP1 POP JUMP JUMPDEST PUSH1 0x0 PUSH1 0x20 DUP3 ADD SWAP1 POP DUP2 DUP2 SUB PUSH1 0x0 DUP4 ADD MSTORE PUSH2 0xB83 DUP2 PUSH2 0xA8D JUMP JUMPDEST SWAP1 POP SWAP2 SWAP1 POP JUMP JUMPDEST PUSH1 0x0 PUSH1 0x20 DUP3 ADD SWAP1 POP DUP2 DUP2 SUB PUSH1 0x0 DUP4 ADD MSTORE PUSH2 0xBA3 DUP2 PUSH2 0xAB0 JUMP JUMPDEST SWAP1 POP SWAP2 SWAP1 POP JUMP JUMPDEST PUSH1 0x0 PUSH1 0x20 DUP3 ADD SWAP1 POP DUP2 DUP2 SUB PUSH1 0x0 DUP4 ADD MSTORE PUSH2 0xBC3 DUP2 PUSH2 0xAD3 JUMP JUMPDEST SWAP1 POP SWAP2 SWAP1 POP JUMP JUMPDEST PUSH1 0x0 PUSH1 0x20 DUP3 ADD SWAP1 POP DUP2 DUP2 SUB PUSH1 0x0 DUP4 ADD MSTORE PUSH2 0xBE3 DUP2 PUSH2 0xAF6 JUMP JUMPDEST SWAP1 POP SWAP2 SWAP1 POP JUMP JUMPDEST PUSH1 0x0 PUSH1 0x20 DUP3 ADD SWAP1 POP PUSH2 0xBFF PUSH1 0x0 DUP4 ADD DUP5 PUSH2 0xB19 JUMP JUMPDEST SWAP3 SWAP2 POP POP JUMP JUMPDEST PUSH1 0x0 PUSH2 0xC0F PUSH2 0xC20 JUMP JUMPDEST SWAP1 POP PUSH2 0xC1B DUP3 DUP3 PUSH2 0xD27 JUMP JUMPDEST SWAP2 SWAP1 POP JUMP JUMPDEST PUSH1 0x0 PUSH1 0x40 MLOAD SWAP1 POP SWAP1 JUMP JUMPDEST PUSH1 0x0 PUSH8 0xFFFFFFFFFFFFFFFF DUP3 GT ISZERO PUSH2 0xC45 JUMPI PUSH2 0xC44 PUSH2 0xD87 JUMP JUMPDEST JUMPDEST PUSH2 0xC4E DUP3 PUSH2 0xDB6 JUMP JUMPDEST SWAP1 POP PUSH1 0x20 DUP2 ADD SWAP1 POP SWAP2 SWAP1 POP JUMP JUMPDEST PUSH1 0x0 DUP2 MLOAD SWAP1 POP SWAP2 SWAP1 POP JUMP JUMPDEST PUSH1 0x0 DUP3 DUP3 MSTORE PUSH1 0x20 DUP3 ADD SWAP1 POP SWAP3 SWAP2 POP POP JUMP JUMPDEST PUSH1 0x0 PUSH2 0xC82 DUP3 PUSH2 0xC89 JUMP JUMPDEST SWAP1 POP SWAP2 SWAP1 POP JUMP JUMPDEST PUSH1 0x0 PUSH20 0xFFFFFFFFFFFFFFFFFFFFFFFFFFFFFFFFFFFFFFFF DUP3 AND SWAP1 POP SWAP2 SWAP1 POP JUMP JUMPDEST PUSH1 0x0 DUP2 SWAP1 POP SWAP2 SWAP1 POP JUMP JUMPDEST DUP3 DUP2 DUP4 CALLDATACOPY PUSH1 0x0 DUP4 DUP4 ADD MSTORE POP POP POP JUMP JUMPDEST PUSH1 0x0 JUMPDEST DUP4 DUP2 LT ISZERO PUSH2 0xCE0 JUMPI DUP1 DUP3 ADD MLOAD DUP2 DUP5 ADD MSTORE PUSH1 0x20 DUP2 ADD SWAP1 POP PUSH2 0xCC5 JUMP JUMPDEST DUP4 DUP2 GT ISZERO PUSH2 0xCEF JUMPI PUSH1 0x0 DUP5 DUP5 ADD MSTORE JUMPDEST POP POP POP POP JUMP JUMPDEST PUSH1 0x0 PUSH1 0x2 DUP3 DIV SWAP1 POP PUSH1 0x1 DUP3 AND DUP1 PUSH2 0xD0D JUMPI PUSH1 0x7F DUP3 AND SWAP2 POP JUMPDEST PUSH1 0x20 DUP3 LT DUP2 EQ ISZERO PUSH2 0xD21 JUMPI PUSH2 0xD20 PUSH2 0xD58 JUMP JUMPDEST JUMPDEST POP SWAP2 SWAP1 POP JUMP JUMPDEST PUSH2 0xD30 DUP3 PUSH2 0xDB6 JUMP JUMPDEST DUP2 ADD DUP2 DUP2 LT PUSH8 0xFFFFFFFFFFFFFFFF DUP3 GT OR ISZERO PUSH2 0xD4F JUMPI PUSH2 0xD4E PUSH2 0xD87 JUMP JUMPDEST JUMPDEST DUP1 PUSH1 0x40 MSTORE POP POP POP JUMP JUMPDEST PUSH32 0x4E487B7100000000000000000000000000000000000000000000000000000000 PUSH1 0x0 MSTORE PUSH1 0x22 PUSH1 0x4 MSTORE PUSH1 0x24 PUSH1 0x0 REVERT JUMPDEST PUSH32 0x4E487B7100000000000000000000000000000000000000000000000000000000 PUSH1 0x0 MSTORE PUSH1 0x41 PUSH1 0x4 MSTORE PUSH1 0x24 PUSH1 0x0 REVERT JUMPDEST PUSH1 0x0 PUSH1 0x1F NOT PUSH1 0x1F DUP4 ADD AND SWAP1 POP SWAP2 SWAP1 POP JUMP JUMPDEST PUSH32 0x4552433732313A207472616E7366657220746F20746865207A65726F20616464 PUSH1 0x0 DUP3 ADD MSTORE PUSH32 0x7265737300000000000000000000000000000000000000000000000000000000 PUSH1 0x20 DUP3 ADD MSTORE POP JUMP JUMPDEST PUSH32 0x746F6B656E20616C726561647920657869737400000000000000000000000000 PUSH1 0x0 DUP3 ADD MSTORE POP JUMP JUMPDEST PUSH32 0x746F6B656E20646F65736E277420657869737400000000000000000000000000 PUSH1 0x0 DUP3 ADD MSTORE POP JUMP JUMPDEST PUSH32 0x4E6F742063616C6C656420627920746865206F776E6572000000000000000000 PUSH1 0x0 DUP3 ADD MSTORE POP JUMP JUMPDEST PUSH32 0x6D696E7420746F20746865207A65726F20616464726573730000000000000000 PUSH1 0x0 DUP3 ADD MSTORE POP JUMP JUMPDEST PUSH2 0xEC3 DUP2 PUSH2 0xC77 JUMP JUMPDEST DUP2 EQ PUSH2 0xECE JUMPI PUSH1 0x0 DUP1 REVERT JUMPDEST POP JUMP JUMPDEST PUSH2 0xEDA DUP2 PUSH2 0xCA9 JUMP JUMPDEST DUP2 EQ PUSH2 0xEE5 JUMPI PUSH1 0x0 DUP1 REVERT JUMPDEST POP JUMP INVALID LOG2 PUSH5 0x6970667358 0x22 SLT KECCAK256 PUSH30 0xAAB3E14512B23E04B7D4D396865C92C39E9C2824963B6BB9DEE75F94D657 0x24 PUSH5 0x736F6C6343 STOP ADDMOD ADD STOP CALLER "
				},
				"gasEstimates": {
					"creation": {
						"codeDepositCost": "774000",
						"executionCost": "infinite",
						"totalCost": "infinite"
					},
					"external": {
						"mint(string)": "infinite",
						"name()": "infinite",
						"symbol()": "infinite",
						"transferFrom(address,address,uint256)": "infinite"
					},
					"internal": {
						"_safeMint(address,uint256)": "infinite",
						"_setTokenUri(uint256,string memory)": "infinite"
					}
				},
				"methodIdentifiers": {
					"mint(string)": "d85d3d27",
					"name()": "06fdde03",
					"symbol()": "95d89b41",
					"transferFrom(address,address,uint256)": "23b872dd"
				}
			},
			"storageLayout": {
				"storage": [
					{
						"astId": 82,
						"contract": "contracts/GeekNft.sol:GeekNft",
						"label": "_name",
						"offset": 0,
						"slot": "0",
						"type": "t_string_storage"
					},
					{
						"astId": 84,
						"contract": "contracts/GeekNft.sol:GeekNft",
						"label": "_symbol",
						"offset": 0,
						"slot": "1",
						"type": "t_string_storage"
					},
					{
						"astId": 87,
						"contract": "contracts/GeekNft.sol:GeekNft",
						"label": "tokenIds",
						"offset": 0,
						"slot": "2",
						"type": "t_struct(Counter)5_storage"
					},
					{
						"astId": 89,
						"contract": "contracts/GeekNft.sol:GeekNft",
						"label": "marketplaceAddress",
						"offset": 0,
						"slot": "3",
						"type": "t_address"
					},
					{
						"astId": 93,
						"contract": "contracts/GeekNft.sol:GeekNft",
						"label": "tokensOwnerCount",
						"offset": 0,
						"slot": "4",
						"type": "t_mapping(t_address,t_uint256)"
					},
					{
						"astId": 97,
						"contract": "contracts/GeekNft.sol:GeekNft",
						"label": "tokenToOwner",
						"offset": 0,
						"slot": "5",
						"type": "t_mapping(t_uint256,t_address)"
					},
					{
						"astId": 101,
						"contract": "contracts/GeekNft.sol:GeekNft",
						"label": "tokensCreatorCount",
						"offset": 0,
						"slot": "6",
						"type": "t_mapping(t_address,t_uint256)"
					},
					{
						"astId": 105,
						"contract": "contracts/GeekNft.sol:GeekNft",
						"label": "tokenToCreator",
						"offset": 0,
						"slot": "7",
						"type": "t_mapping(t_uint256,t_address)"
					},
					{
						"astId": 109,
						"contract": "contracts/GeekNft.sol:GeekNft",
						"label": "tokenToUri",
						"offset": 0,
						"slot": "8",
						"type": "t_mapping(t_uint256,t_string_storage)"
					}
				],
				"types": {
					"t_address": {
						"encoding": "inplace",
						"label": "address",
						"numberOfBytes": "20"
					},
					"t_mapping(t_address,t_uint256)": {
						"encoding": "mapping",
						"key": "t_address",
						"label": "mapping(address => uint256)",
						"numberOfBytes": "32",
						"value": "t_uint256"
					},
					"t_mapping(t_uint256,t_address)": {
						"encoding": "mapping",
						"key": "t_uint256",
						"label": "mapping(uint256 => address)",
						"numberOfBytes": "32",
						"value": "t_address"
					},
					"t_mapping(t_uint256,t_string_storage)": {
						"encoding": "mapping",
						"key": "t_uint256",
						"label": "mapping(uint256 => string)",
						"numberOfBytes": "32",
						"value": "t_string_storage"
					},
					"t_string_storage": {
						"encoding": "bytes",
						"label": "string",
						"numberOfBytes": "32"
					},
					"t_struct(Counter)5_storage": {
						"encoding": "inplace",
						"label": "struct Counters.Counter",
						"members": [
							{
								"astId": 4,
								"contract": "contracts/GeekNft.sol:GeekNft",
								"label": "_value",
								"offset": 0,
								"slot": "0",
								"type": "t_uint256"
							}
						],
						"numberOfBytes": "32"
					},
					"t_uint256": {
						"encoding": "inplace",
						"label": "uint256",
						"numberOfBytes": "32"
					}
				}
			},
			"userdoc": {
				"kind": "user",
				"methods": {},
				"version": 1
			}
		}
	}
}