{
	"contracts/GeekNft.sol": {
		"GeekNft": {
			"abi": [
				{
					"inputs": [],
					"stateMutability": "nonpayable",
					"type": "constructor"
				},
				{
					"anonymous": false,
					"inputs": [
						{
							"indexed": true,
							"internalType": "address",
							"name": "_from",
							"type": "address"
						},
						{
							"indexed": true,
							"internalType": "address",
							"name": "_to",
							"type": "address"
						},
						{
							"indexed": false,
							"internalType": "uint256",
							"name": "_tokenId",
							"type": "uint256"
						}
					],
					"name": "Transfer",
					"type": "event"
				},
				{
					"inputs": [
						{
							"internalType": "uint256",
							"name": "_tokenId",
							"type": "uint256"
						}
					],
					"name": "addItemToSell",
					"outputs": [],
					"stateMutability": "payable",
					"type": "function"
				},
				{
					"inputs": [
						{
							"internalType": "address",
							"name": "_owner",
							"type": "address"
						}
					],
					"name": "balanceOf",
					"outputs": [
						{
							"internalType": "uint256",
							"name": "",
							"type": "uint256"
						}
					],
					"stateMutability": "view",
					"type": "function"
				},
				{
					"inputs": [],
					"name": "fetchItemsByOwner",
					"outputs": [
						{
							"components": [
								{
									"internalType": "uint256",
									"name": "dataId",
									"type": "uint256"
								},
								{
									"internalType": "uint256",
									"name": "tokenId",
									"type": "uint256"
								},
								{
									"internalType": "uint256",
									"name": "price",
									"type": "uint256"
								},
								{
									"internalType": "uint256",
									"name": "catId",
									"type": "uint256"
								},
								{
									"internalType": "bool",
									"name": "toSell",
									"type": "bool"
								},
								{
									"internalType": "address",
									"name": "creator",
									"type": "address"
								}
							],
							"internalType": "struct GeekNft.Item[]",
							"name": "",
							"type": "tuple[]"
						}
					],
					"stateMutability": "view",
					"type": "function"
				},
				{
					"inputs": [],
					"name": "fetchItemsToSell",
					"outputs": [
						{
							"components": [
								{
									"internalType": "uint256",
									"name": "dataId",
									"type": "uint256"
								},
								{
									"internalType": "uint256",
									"name": "tokenId",
									"type": "uint256"
								},
								{
									"internalType": "uint256",
									"name": "price",
									"type": "uint256"
								},
								{
									"internalType": "uint256",
									"name": "catId",
									"type": "uint256"
								},
								{
									"internalType": "bool",
									"name": "toSell",
									"type": "bool"
								},
								{
									"internalType": "address",
									"name": "creator",
									"type": "address"
								}
							],
							"internalType": "struct GeekNft.Item[]",
							"name": "",
							"type": "tuple[]"
						}
					],
					"stateMutability": "view",
					"type": "function"
				},
				{
					"inputs": [
						{
							"internalType": "uint256",
							"name": "_catId",
							"type": "uint256"
						}
					],
					"name": "fetchItemsToSellByCatId",
					"outputs": [
						{
							"components": [
								{
									"internalType": "uint256",
									"name": "dataId",
									"type": "uint256"
								},
								{
									"internalType": "uint256",
									"name": "tokenId",
									"type": "uint256"
								},
								{
									"internalType": "uint256",
									"name": "price",
									"type": "uint256"
								},
								{
									"internalType": "uint256",
									"name": "catId",
									"type": "uint256"
								},
								{
									"internalType": "bool",
									"name": "toSell",
									"type": "bool"
								},
								{
									"internalType": "address",
									"name": "creator",
									"type": "address"
								}
							],
							"internalType": "struct GeekNft.Item[]",
							"name": "",
							"type": "tuple[]"
						}
					],
					"stateMutability": "view",
					"type": "function"
				},
				{
					"inputs": [],
					"name": "getCreateItemFees",
					"outputs": [
						{
							"internalType": "uint256",
							"name": "",
							"type": "uint256"
						}
					],
					"stateMutability": "view",
					"type": "function"
				},
				{
					"inputs": [],
					"name": "getCreatorPercentage",
					"outputs": [
						{
							"internalType": "uint256",
							"name": "",
							"type": "uint256"
						}
					],
					"stateMutability": "view",
					"type": "function"
				},
				{
					"inputs": [
						{
							"internalType": "uint256",
							"name": "_price",
							"type": "uint256"
						},
						{
							"internalType": "uint256",
							"name": "_catId",
							"type": "uint256"
						},
						{
							"internalType": "uint256",
							"name": "_dataId",
							"type": "uint256"
						}
					],
					"name": "mint",
					"outputs": [
						{
							"internalType": "uint256",
							"name": "",
							"type": "uint256"
						}
					],
					"stateMutability": "payable",
					"type": "function"
				},
				{
					"inputs": [
						{
							"internalType": "uint256",
							"name": "_tokenId",
							"type": "uint256"
						}
					],
					"name": "ownerOf",
					"outputs": [
						{
							"internalType": "address",
							"name": "",
							"type": "address"
						}
					],
					"stateMutability": "view",
					"type": "function"
				},
				{
					"inputs": [
						{
							"internalType": "uint256",
							"name": "_tokenId",
							"type": "uint256"
						}
					],
					"name": "removeItemToSell",
					"outputs": [],
					"stateMutability": "nonpayable",
					"type": "function"
				},
				{
					"inputs": [
						{
							"internalType": "uint256",
							"name": "_tokenId",
							"type": "uint256"
						}
					],
					"name": "sellItem",
					"outputs": [],
					"stateMutability": "payable",
					"type": "function"
				},
				{
					"inputs": [
						{
							"internalType": "uint256",
							"name": "_newFees",
							"type": "uint256"
						}
					],
					"name": "updateCreateItemFees",
					"outputs": [],
					"stateMutability": "nonpayable",
					"type": "function"
				},
				{
					"inputs": [
						{
							"internalType": "uint256",
							"name": "_newPercentage",
							"type": "uint256"
						}
					],
					"name": "updateCreatorPercentage",
					"outputs": [],
					"stateMutability": "nonpayable",
					"type": "function"
				}
			],
			"devdoc": {
				"kind": "dev",
				"methods": {},
				"version": 1
			},
			"evm": {
				"assembly": "    /* \"contracts/GeekNft.sol\":56:5805  contract GeekNft {... */\n  mstore(0x40, 0x80)\n    /* \"contracts/GeekNft.sol\":442:455  0.00025 ether */\n  0xe35fa931a000\n    /* \"contracts/GeekNft.sol\":420:455  uint createItemFees = 0.00025 ether */\n  0x05\n  sstore\n    /* \"contracts/GeekNft.sol\":486:487  5 */\n  0x05\n    /* \"contracts/GeekNft.sol\":461:487  uint creatorPercentage = 5 */\n  0x06\n  sstore\n    /* \"contracts/GeekNft.sol\":625:730  constructor() {... */\n  callvalue\n  dup1\n  iszero\n  tag_1\n  jumpi\n  0x00\n  dup1\n  revert\ntag_1:\n  pop\n    /* \"contracts/GeekNft.sol\":657:667  msg.sender */\n  caller\n    /* \"contracts/GeekNft.sol\":649:654  owner */\n  0x02\n  0x00\n    /* \"contracts/GeekNft.sol\":649:667  owner = msg.sender */\n  0x0100\n  exp\n  dup2\n  sload\n  dup2\n  0xffffffffffffffffffffffffffffffffffffffff\n  mul\n  not\n  and\n  swap1\n  dup4\n  0xffffffffffffffffffffffffffffffffffffffff\n  and\n  mul\n  or\n  swap1\n  sstore\n  pop\n    /* \"contracts/GeekNft.sol\":677:697  name = \"Geek Tokens\" */\n  mload(0x40)\n  dup1\n  0x40\n  add\n  0x40\n  mstore\n  dup1\n  0x0b\n  dup2\n  mstore\n  0x20\n  add\n  0x4765656b20546f6b656e73000000000000000000000000000000000000000000\n  dup2\n  mstore\n  pop\n    /* \"contracts/GeekNft.sol\":677:681  name */\n  0x00\n    /* \"contracts/GeekNft.sol\":677:697  name = \"Geek Tokens\" */\n  swap1\n  dup1\n  mload\n  swap1\n  0x20\n  add\n  swap1\n  tag_4\n  swap3\n  swap2\n  swap1\n  tag_5\n  jump\t// in\ntag_4:\n  pop\n    /* \"contracts/GeekNft.sol\":707:723  symbol = \"GEEKT\" */\n  mload(0x40)\n  dup1\n  0x40\n  add\n  0x40\n  mstore\n  dup1\n  0x05\n  dup2\n  mstore\n  0x20\n  add\n  0x4745454b54000000000000000000000000000000000000000000000000000000\n  dup2\n  mstore\n  pop\n    /* \"contracts/GeekNft.sol\":707:713  symbol */\n  0x01\n    /* \"contracts/GeekNft.sol\":707:723  symbol = \"GEEKT\" */\n  swap1\n  dup1\n  mload\n  swap1\n  0x20\n  add\n  swap1\n  tag_6\n  swap3\n  swap2\n  swap1\n  tag_5\n  jump\t// in\ntag_6:\n  pop\n    /* \"contracts/GeekNft.sol\":56:5805  contract GeekNft {... */\n  jump(tag_7)\ntag_5:\n  dup3\n  dup1\n  sload\n  tag_8\n  swap1\n  tag_9\n  jump\t// in\ntag_8:\n  swap1\n  0x00\n  mstore\n  keccak256(0x00, 0x20)\n  swap1\n  0x1f\n  add\n  0x20\n  swap1\n  div\n  dup2\n  add\n  swap3\n  dup3\n  tag_11\n  jumpi\n  0x00\n  dup6\n  sstore\n  jump(tag_10)\ntag_11:\n  dup3\n  0x1f\n  lt\n  tag_12\n  jumpi\n  dup1\n  mload\n  not(0xff)\n  and\n  dup4\n  dup1\n  add\n  or\n  dup6\n  sstore\n  jump(tag_10)\ntag_12:\n  dup3\n  dup1\n  add\n  0x01\n  add\n  dup6\n  sstore\n  dup3\n  iszero\n  tag_10\n  jumpi\n  swap2\n  dup3\n  add\ntag_13:\n  dup3\n  dup2\n  gt\n  iszero\n  tag_14\n  jumpi\n  dup3\n  mload\n  dup3\n  sstore\n  swap2\n  0x20\n  add\n  swap2\n  swap1\n  0x01\n  add\n  swap1\n  jump(tag_13)\ntag_14:\ntag_10:\n  pop\n  swap1\n  pop\n  tag_15\n  swap2\n  swap1\n  tag_16\n  jump\t// in\ntag_15:\n  pop\n  swap1\n  jump\t// out\ntag_16:\ntag_17:\n  dup1\n  dup3\n  gt\n  iszero\n  tag_18\n  jumpi\n  0x00\n  dup2\n  0x00\n  swap1\n  sstore\n  pop\n  0x01\n  add\n  jump(tag_17)\ntag_18:\n  pop\n  swap1\n  jump\t// out\n    /* \"#utility.yul\":7:327   */\ntag_9:\n  0x00\n    /* \"#utility.yul\":88:89   */\n  0x02\n    /* \"#utility.yul\":82:86   */\n  dup3\n    /* \"#utility.yul\":78:90   */\n  div\n    /* \"#utility.yul\":68:90   */\n  swap1\n  pop\n    /* \"#utility.yul\":135:136   */\n  0x01\n    /* \"#utility.yul\":129:133   */\n  dup3\n    /* \"#utility.yul\":125:137   */\n  and\n    /* \"#utility.yul\":156:174   */\n  dup1\n    /* \"#utility.yul\":146:148   */\n  tag_21\n  jumpi\n    /* \"#utility.yul\":212:216   */\n  0x7f\n    /* \"#utility.yul\":204:210   */\n  dup3\n    /* \"#utility.yul\":200:217   */\n  and\n    /* \"#utility.yul\":190:217   */\n  swap2\n  pop\n    /* \"#utility.yul\":146:148   */\ntag_21:\n    /* \"#utility.yul\":274:276   */\n  0x20\n    /* \"#utility.yul\":266:272   */\n  dup3\n    /* \"#utility.yul\":263:277   */\n  lt\n    /* \"#utility.yul\":243:261   */\n  dup2\n    /* \"#utility.yul\":240:278   */\n  eq\n    /* \"#utility.yul\":237:239   */\n  iszero\n  tag_22\n  jumpi\n    /* \"#utility.yul\":293:311   */\n  tag_23\n  tag_24\n  jump\t// in\ntag_23:\n    /* \"#utility.yul\":237:239   */\ntag_22:\n    /* \"#utility.yul\":58:327   */\n  pop\n  swap2\n  swap1\n  pop\n  jump\t// out\n    /* \"#utility.yul\":333:513   */\ntag_24:\n    /* \"#utility.yul\":381:458   */\n  0x4e487b7100000000000000000000000000000000000000000000000000000000\n    /* \"#utility.yul\":378:379   */\n  0x00\n    /* \"#utility.yul\":371:459   */\n  mstore\n    /* \"#utility.yul\":478:482   */\n  0x22\n    /* \"#utility.yul\":475:476   */\n  0x04\n    /* \"#utility.yul\":468:483   */\n  mstore\n    /* \"#utility.yul\":502:506   */\n  0x24\n    /* \"#utility.yul\":499:500   */\n  0x00\n    /* \"#utility.yul\":492:507   */\n  revert\n    /* \"contracts/GeekNft.sol\":56:5805  contract GeekNft {... */\ntag_7:\n  dataSize(sub_0)\n  dup1\n  dataOffset(sub_0)\n  0x00\n  codecopy\n  0x00\n  return\nstop\n\nsub_0: assembly {\n        /* \"contracts/GeekNft.sol\":56:5805  contract GeekNft {... */\n      mstore(0x40, 0x80)\n      jumpi(tag_1, lt(calldatasize, 0x04))\n      shr(0xe0, calldataload(0x00))\n      dup1\n      0x6352211e\n      gt\n      tag_15\n      jumpi\n      dup1\n      0xa411d68d\n      gt\n      tag_16\n      jumpi\n      dup1\n      0xa411d68d\n      eq\n      tag_11\n      jumpi\n      dup1\n      0xa4964c33\n      eq\n      tag_12\n      jumpi\n      dup1\n      0xc0f202ef\n      eq\n      tag_13\n      jumpi\n      dup1\n      0xe6e95ea7\n      eq\n      tag_14\n      jumpi\n      jump(tag_1)\n    tag_16:\n      dup1\n      0x6352211e\n      eq\n      tag_8\n      jumpi\n      dup1\n      0x70a08231\n      eq\n      tag_9\n      jumpi\n      dup1\n      0x91b6be9a\n      eq\n      tag_10\n      jumpi\n      jump(tag_1)\n    tag_15:\n      dup1\n      0x02acc94b\n      eq\n      tag_2\n      jumpi\n      dup1\n      0x073e74df\n      eq\n      tag_3\n      jumpi\n      dup1\n      0x160035b1\n      eq\n      tag_4\n      jumpi\n      dup1\n      0x1b03427c\n      eq\n      tag_5\n      jumpi\n      dup1\n      0x406693b2\n      eq\n      tag_6\n      jumpi\n      dup1\n      0x4cad2ffc\n      eq\n      tag_7\n      jumpi\n    tag_1:\n      0x00\n      dup1\n      revert\n        /* \"contracts/GeekNft.sol\":1610:2243  function mint(uint _price, uint _catId, uint _dataId) public payable sendCorrectFeesValue returns (uint){... */\n    tag_2:\n      tag_17\n      0x04\n      dup1\n      calldatasize\n      sub\n      dup2\n      add\n      swap1\n      tag_18\n      swap2\n      swap1\n      tag_19\n      jump\t// in\n    tag_18:\n      tag_20\n      jump\t// in\n    tag_17:\n      mload(0x40)\n      tag_21\n      swap2\n      swap1\n      tag_22\n      jump\t// in\n    tag_21:\n      mload(0x40)\n      dup1\n      swap2\n      sub\n      swap1\n      return\n        /* \"contracts/GeekNft.sol\":4326:4693  function fetchItemsToSell() public view returns (Item[] memory){... */\n    tag_3:\n      callvalue\n      dup1\n      iszero\n      tag_23\n      jumpi\n      0x00\n      dup1\n      revert\n    tag_23:\n      pop\n      tag_24\n      tag_25\n      jump\t// in\n    tag_24:\n      mload(0x40)\n      tag_26\n      swap2\n      swap1\n      tag_27\n      jump\t// in\n    tag_26:\n      mload(0x40)\n      dup1\n      swap2\n      sub\n      swap1\n      return\n        /* \"contracts/GeekNft.sol\":1504:1604  function getCreatorPercentage() public view returns (uint) {... */\n    tag_4:\n      callvalue\n      dup1\n      iszero\n      tag_28\n      jumpi\n      0x00\n      dup1\n      revert\n    tag_28:\n      pop\n      tag_29\n      tag_30\n      jump\t// in\n    tag_29:\n      mload(0x40)\n      tag_31\n      swap2\n      swap1\n      tag_22\n      jump\t// in\n    tag_31:\n      mload(0x40)\n      dup1\n      swap2\n      sub\n      swap1\n      return\n        /* \"contracts/GeekNft.sol\":1369:1498  function updateCreatorPercentage(uint _newPercentage) public onlyContractOwner{... */\n    tag_5:\n      callvalue\n      dup1\n      iszero\n      tag_32\n      jumpi\n      0x00\n      dup1\n      revert\n    tag_32:\n      pop\n      tag_33\n      0x04\n      dup1\n      calldatasize\n      sub\n      dup2\n      add\n      swap1\n      tag_34\n      swap2\n      swap1\n      tag_35\n      jump\t// in\n    tag_34:\n      tag_36\n      jump\t// in\n    tag_33:\n      stop\n        /* \"contracts/GeekNft.sol\":5089:5509  function fetchItemsToSellByCatId(uint _catId) public view returns (Item[] memory){... */\n    tag_6:\n      callvalue\n      dup1\n      iszero\n      tag_37\n      jumpi\n      0x00\n      dup1\n      revert\n    tag_37:\n      pop\n      tag_38\n      0x04\n      dup1\n      calldatasize\n      sub\n      dup2\n      add\n      swap1\n      tag_39\n      swap2\n      swap1\n      tag_35\n      jump\t// in\n    tag_39:\n      tag_40\n      jump\t// in\n    tag_38:\n      mload(0x40)\n      tag_41\n      swap2\n      swap1\n      tag_27\n      jump\t// in\n    tag_41:\n      mload(0x40)\n      dup1\n      swap2\n      sub\n      swap1\n      return\n        /* \"contracts/GeekNft.sol\":4699:5083  function fetchItemsByOwner() public view returns (Item[] memory){... */\n    tag_7:\n      callvalue\n      dup1\n      iszero\n      tag_42\n      jumpi\n      0x00\n      dup1\n      revert\n    tag_42:\n      pop\n      tag_43\n      tag_44\n      jump\t// in\n    tag_43:\n      mload(0x40)\n      tag_45\n      swap2\n      swap1\n      tag_27\n      jump\t// in\n    tag_45:\n      mload(0x40)\n      dup1\n      swap2\n      sub\n      swap1\n      return\n        /* \"contracts/GeekNft.sol\":3355:3461  function ownerOf(uint _tokenId) public view returns (address){... */\n    tag_8:\n      callvalue\n      dup1\n      iszero\n      tag_46\n      jumpi\n      0x00\n      dup1\n      revert\n    tag_46:\n      pop\n      tag_47\n      0x04\n      dup1\n      calldatasize\n      sub\n      dup2\n      add\n      swap1\n      tag_48\n      swap2\n      swap1\n      tag_35\n      jump\t// in\n    tag_48:\n      tag_49\n      jump\t// in\n    tag_47:\n      mload(0x40)\n      tag_50\n      swap2\n      swap1\n      tag_51\n      jump\t// in\n    tag_50:\n      mload(0x40)\n      dup1\n      swap2\n      sub\n      swap1\n      return\n        /* \"contracts/GeekNft.sol\":3467:3575  function balanceOf(address _owner) public view returns (uint){... */\n    tag_9:\n      callvalue\n      dup1\n      iszero\n      tag_52\n      jumpi\n      0x00\n      dup1\n      revert\n    tag_52:\n      pop\n      tag_53\n      0x04\n      dup1\n      calldatasize\n      sub\n      dup2\n      add\n      swap1\n      tag_54\n      swap2\n      swap1\n      tag_55\n      jump\t// in\n    tag_54:\n      tag_56\n      jump\t// in\n    tag_53:\n      mload(0x40)\n      tag_57\n      swap2\n      swap1\n      tag_22\n      jump\t// in\n    tag_57:\n      mload(0x40)\n      dup1\n      swap2\n      sub\n      swap1\n      return\n        /* \"contracts/GeekNft.sol\":2249:3349  function sellItem(uint _tokenId) public payable{... */\n    tag_10:\n      tag_58\n      0x04\n      dup1\n      calldatasize\n      sub\n      dup2\n      add\n      swap1\n      tag_59\n      swap2\n      swap1\n      tag_35\n      jump\t// in\n    tag_59:\n      tag_60\n      jump\t// in\n    tag_58:\n      stop\n        /* \"contracts/GeekNft.sol\":1269:1363  function getCreateItemFees() public view returns (uint) {... */\n    tag_11:\n      callvalue\n      dup1\n      iszero\n      tag_61\n      jumpi\n      0x00\n      dup1\n      revert\n    tag_61:\n      pop\n      tag_62\n      tag_63\n      jump\t// in\n    tag_62:\n      mload(0x40)\n      tag_64\n      swap2\n      swap1\n      tag_22\n      jump\t// in\n    tag_64:\n      mload(0x40)\n      dup1\n      swap2\n      sub\n      swap1\n      return\n        /* \"contracts/GeekNft.sol\":3581:3910  function removeItemToSell(uint _tokenId) public onlyItemOwner(_tokenId) {... */\n    tag_12:\n      callvalue\n      dup1\n      iszero\n      tag_65\n      jumpi\n      0x00\n      dup1\n      revert\n    tag_65:\n      pop\n      tag_66\n      0x04\n      dup1\n      calldatasize\n      sub\n      dup2\n      add\n      swap1\n      tag_67\n      swap2\n      swap1\n      tag_35\n      jump\t// in\n    tag_67:\n      tag_68\n      jump\t// in\n    tag_66:\n      stop\n        /* \"contracts/GeekNft.sol\":3916:4320  function addItemToSell(uint _tokenId) public payable sendCorrectFeesValue onlyItemOwner(_tokenId) {... */\n    tag_13:\n      tag_69\n      0x04\n      dup1\n      calldatasize\n      sub\n      dup2\n      add\n      swap1\n      tag_70\n      swap2\n      swap1\n      tag_35\n      jump\t// in\n    tag_70:\n      tag_71\n      jump\t// in\n    tag_69:\n      stop\n        /* \"contracts/GeekNft.sol\":1152:1263  function updateCreateItemFees(uint _newFees) public onlyContractOwner{... */\n    tag_14:\n      callvalue\n      dup1\n      iszero\n      tag_72\n      jumpi\n      0x00\n      dup1\n      revert\n    tag_72:\n      pop\n      tag_73\n      0x04\n      dup1\n      calldatasize\n      sub\n      dup2\n      add\n      swap1\n      tag_74\n      swap2\n      swap1\n      tag_35\n      jump\t// in\n    tag_74:\n      tag_75\n      jump\t// in\n    tag_73:\n      stop\n        /* \"contracts/GeekNft.sol\":1610:2243  function mint(uint _price, uint _catId, uint _dataId) public payable sendCorrectFeesValue returns (uint){... */\n    tag_20:\n        /* \"contracts/GeekNft.sol\":1709:1713  uint */\n      0x00\n        /* \"contracts/GeekNft.sol\":1076:1090  createItemFees */\n      sload(0x05)\n        /* \"contracts/GeekNft.sol\":1063:1072  msg.value */\n      callvalue\n        /* \"contracts/GeekNft.sol\":1063:1090  msg.value == createItemFees */\n      eq\n        /* \"contracts/GeekNft.sol\":1055:1128  require(msg.value == createItemFees, \"Thanks to send correct fees value\") */\n      tag_77\n      jumpi\n      mload(0x40)\n      0x08c379a000000000000000000000000000000000000000000000000000000000\n      dup2\n      mstore\n      0x04\n      add\n      tag_78\n      swap1\n      tag_79\n      jump\t// in\n    tag_78:\n      mload(0x40)\n      dup1\n      swap2\n      sub\n      swap1\n      revert\n    tag_77:\n        /* \"contracts/GeekNft.sol\":1741:1742  0 */\n      0x00\n        /* \"contracts/GeekNft.sol\":1732:1738  _price */\n      dup5\n        /* \"contracts/GeekNft.sol\":1732:1742  _price > 0 */\n      gt\n        /* \"contracts/GeekNft.sol\":1724:1773  require(_price > 0, \"Price cannot be equal to 0\") */\n      tag_81\n      jumpi\n      mload(0x40)\n      0x08c379a000000000000000000000000000000000000000000000000000000000\n      dup2\n      mstore\n      0x04\n      add\n      tag_82\n      swap1\n      tag_83\n      jump\t// in\n    tag_82:\n      mload(0x40)\n      dup1\n      swap2\n      sub\n      swap1\n      revert\n    tag_81:\n        /* \"contracts/GeekNft.sol\":1783:1798  uint newTokenId */\n      0x00\n        /* \"contracts/GeekNft.sol\":1801:1806  items */\n      0x03\n        /* \"contracts/GeekNft.sol\":1801:1813  items.length */\n      dup1\n      sload\n      swap1\n      pop\n        /* \"contracts/GeekNft.sol\":1783:1813  uint newTokenId = items.length */\n      swap1\n      pop\n        /* \"contracts/GeekNft.sol\":1867:1868  0 */\n      0x00\n        /* \"contracts/GeekNft.sol\":1832:1869  itemToOwner[newTokenId] == address(0) */\n      0xffffffffffffffffffffffffffffffffffffffff\n      and\n        /* \"contracts/GeekNft.sol\":1832:1843  itemToOwner */\n      0x07\n        /* \"contracts/GeekNft.sol\":1832:1855  itemToOwner[newTokenId] */\n      0x00\n        /* \"contracts/GeekNft.sol\":1844:1854  newTokenId */\n      dup4\n        /* \"contracts/GeekNft.sol\":1832:1855  itemToOwner[newTokenId] */\n      dup2\n      mstore\n      0x20\n      add\n      swap1\n      dup2\n      mstore\n      0x20\n      add\n      0x00\n      keccak256\n      0x00\n      swap1\n      sload\n      swap1\n      0x0100\n      exp\n      swap1\n      div\n      0xffffffffffffffffffffffffffffffffffffffff\n      and\n        /* \"contracts/GeekNft.sol\":1832:1869  itemToOwner[newTokenId] == address(0) */\n      0xffffffffffffffffffffffffffffffffffffffff\n      and\n      eq\n        /* \"contracts/GeekNft.sol\":1824:1893  require(itemToOwner[newTokenId] == address(0), \"token already exist\") */\n      tag_84\n      jumpi\n      mload(0x40)\n      0x08c379a000000000000000000000000000000000000000000000000000000000\n      dup2\n      mstore\n      0x04\n      add\n      tag_85\n      swap1\n      tag_86\n      jump\t// in\n    tag_85:\n      mload(0x40)\n      dup1\n      swap2\n      sub\n      swap1\n      revert\n    tag_84:\n        /* \"contracts/GeekNft.sol\":1904:1909  items */\n      0x03\n        /* \"contracts/GeekNft.sol\":1915:1974  Item(_dataId, newTokenId, _price, _catId, true, msg.sender) */\n      mload(0x40)\n      dup1\n      0xc0\n      add\n      0x40\n      mstore\n      dup1\n        /* \"contracts/GeekNft.sol\":1920:1927  _dataId */\n      dup6\n        /* \"contracts/GeekNft.sol\":1915:1974  Item(_dataId, newTokenId, _price, _catId, true, msg.sender) */\n      dup2\n      mstore\n      0x20\n      add\n        /* \"contracts/GeekNft.sol\":1929:1939  newTokenId */\n      dup4\n        /* \"contracts/GeekNft.sol\":1915:1974  Item(_dataId, newTokenId, _price, _catId, true, msg.sender) */\n      dup2\n      mstore\n      0x20\n      add\n        /* \"contracts/GeekNft.sol\":1941:1947  _price */\n      dup8\n        /* \"contracts/GeekNft.sol\":1915:1974  Item(_dataId, newTokenId, _price, _catId, true, msg.sender) */\n      dup2\n      mstore\n      0x20\n      add\n        /* \"contracts/GeekNft.sol\":1949:1955  _catId */\n      dup7\n        /* \"contracts/GeekNft.sol\":1915:1974  Item(_dataId, newTokenId, _price, _catId, true, msg.sender) */\n      dup2\n      mstore\n      0x20\n      add\n        /* \"contracts/GeekNft.sol\":1957:1961  true */\n      0x01\n        /* \"contracts/GeekNft.sol\":1915:1974  Item(_dataId, newTokenId, _price, _catId, true, msg.sender) */\n      iszero\n      iszero\n      dup2\n      mstore\n      0x20\n      add\n        /* \"contracts/GeekNft.sol\":1963:1973  msg.sender */\n      caller\n        /* \"contracts/GeekNft.sol\":1915:1974  Item(_dataId, newTokenId, _price, _catId, true, msg.sender) */\n      0xffffffffffffffffffffffffffffffffffffffff\n      and\n      dup2\n      mstore\n      pop\n        /* \"contracts/GeekNft.sol\":1904:1975  items.push(Item(_dataId, newTokenId, _price, _catId, true, msg.sender)) */\n      swap1\n      dup1\n      0x01\n      dup2\n      sload\n      add\n      dup1\n      dup3\n      sstore\n      dup1\n      swap2\n      pop\n      pop\n      0x01\n      swap1\n      sub\n      swap1\n      0x00\n      mstore\n      keccak256(0x00, 0x20)\n      swap1\n      0x05\n      mul\n      add\n      0x00\n      swap1\n      swap2\n      swap1\n      swap2\n      swap1\n      swap2\n      pop\n      0x00\n      dup3\n      add\n      mload\n      dup2\n      0x00\n      add\n      sstore\n      0x20\n      dup3\n      add\n      mload\n      dup2\n      0x01\n      add\n      sstore\n      0x40\n      dup3\n      add\n      mload\n      dup2\n      0x02\n      add\n      sstore\n      0x60\n      dup3\n      add\n      mload\n      dup2\n      0x03\n      add\n      sstore\n      0x80\n      dup3\n      add\n      mload\n      dup2\n      0x04\n      add\n      exp(0x0100, 0x00)\n      dup2\n      sload\n      dup2\n      0xff\n      mul\n      not\n      and\n      swap1\n      dup4\n      iszero\n      iszero\n      mul\n      or\n      swap1\n      sstore\n      pop\n      0xa0\n      dup3\n      add\n      mload\n      dup2\n      0x04\n      add\n      exp(0x0100, 0x01)\n      dup2\n      sload\n      dup2\n      0xffffffffffffffffffffffffffffffffffffffff\n      mul\n      not\n      and\n      swap1\n      dup4\n      0xffffffffffffffffffffffffffffffffffffffff\n      and\n      mul\n      or\n      swap1\n      sstore\n      pop\n      pop\n      pop\n        /* \"contracts/GeekNft.sol\":2011:2021  msg.sender */\n      caller\n        /* \"contracts/GeekNft.sol\":1985:1996  itemToOwner */\n      0x07\n        /* \"contracts/GeekNft.sol\":1985:2008  itemToOwner[newTokenId] */\n      0x00\n        /* \"contracts/GeekNft.sol\":1997:2007  newTokenId */\n      dup4\n        /* \"contracts/GeekNft.sol\":1985:2008  itemToOwner[newTokenId] */\n      dup2\n      mstore\n      0x20\n      add\n      swap1\n      dup2\n      mstore\n      0x20\n      add\n      0x00\n      keccak256\n      0x00\n        /* \"contracts/GeekNft.sol\":1985:2021  itemToOwner[newTokenId] = msg.sender */\n      0x0100\n      exp\n      dup2\n      sload\n      dup2\n      0xffffffffffffffffffffffffffffffffffffffff\n      mul\n      not\n      and\n      swap1\n      dup4\n      0xffffffffffffffffffffffffffffffffffffffff\n      and\n      mul\n      or\n      swap1\n      sstore\n      pop\n        /* \"contracts/GeekNft.sol\":2055:2070  itemsOwnerCount */\n      0x08\n        /* \"contracts/GeekNft.sol\":2055:2082  itemsOwnerCount[msg.sender] */\n      0x00\n        /* \"contracts/GeekNft.sol\":2071:2081  msg.sender */\n      caller\n        /* \"contracts/GeekNft.sol\":2055:2082  itemsOwnerCount[msg.sender] */\n      0xffffffffffffffffffffffffffffffffffffffff\n      and\n      0xffffffffffffffffffffffffffffffffffffffff\n      and\n      dup2\n      mstore\n      0x20\n      add\n      swap1\n      dup2\n      mstore\n      0x20\n      add\n      0x00\n      keccak256\n      0x00\n        /* \"contracts/GeekNft.sol\":2055:2084  itemsOwnerCount[msg.sender]++ */\n      dup2\n      sload\n      dup1\n      swap3\n      swap2\n      swap1\n      0x01\n      add\n      swap2\n      swap1\n      pop\n      sstore\n      pop\n        /* \"contracts/GeekNft.sol\":2098:2113  itemsCatIdCount */\n      0x09\n        /* \"contracts/GeekNft.sol\":2098:2121  itemsCatIdCount[_catId] */\n      0x00\n        /* \"contracts/GeekNft.sol\":2114:2120  _catId */\n      dup6\n        /* \"contracts/GeekNft.sol\":2098:2121  itemsCatIdCount[_catId] */\n      dup2\n      mstore\n      0x20\n      add\n      swap1\n      dup2\n      mstore\n      0x20\n      add\n      0x00\n      keccak256\n      0x00\n        /* \"contracts/GeekNft.sol\":2098:2123  itemsCatIdCount[_catId]++ */\n      dup2\n      sload\n      dup1\n      swap3\n      swap2\n      swap1\n      0x01\n      add\n      swap2\n      swap1\n      pop\n      sstore\n      pop\n        /* \"contracts/GeekNft.sol\":2137:2153  itemsToSellCount */\n      0x04\n      0x00\n        /* \"contracts/GeekNft.sol\":2137:2155  itemsToSellCount++ */\n      dup2\n      sload\n      dup1\n      swap3\n      swap2\n      swap1\n      0x01\n      add\n      swap2\n      swap1\n      pop\n      sstore\n      pop\n        /* \"contracts/GeekNft.sol\":2183:2188  owner */\n      0x02\n      0x00\n      swap1\n      sload\n      swap1\n      0x0100\n      exp\n      swap1\n      div\n      0xffffffffffffffffffffffffffffffffffffffff\n      and\n        /* \"contracts/GeekNft.sol\":2175:2198  payable(owner).transfer */\n      0xffffffffffffffffffffffffffffffffffffffff\n      and\n        /* \"contracts/GeekNft.sol\":2175:2209  payable(owner).transfer(msg.value) */\n      0x08fc\n        /* \"contracts/GeekNft.sol\":2199:2208  msg.value */\n      callvalue\n        /* \"contracts/GeekNft.sol\":2175:2209  payable(owner).transfer(msg.value) */\n      swap1\n      dup2\n      iszero\n      mul\n      swap1\n      mload(0x40)\n      0x00\n      mload(0x40)\n      dup1\n      dup4\n      sub\n      dup2\n      dup6\n      dup9\n      dup9\n      call\n      swap4\n      pop\n      pop\n      pop\n      pop\n      iszero\n      dup1\n      iszero\n      tag_89\n      jumpi\n      returndatasize\n      0x00\n      dup1\n      returndatacopy\n      revert(0x00, returndatasize)\n    tag_89:\n      pop\n        /* \"contracts/GeekNft.sol\":2226:2236  newTokenId */\n      dup1\n        /* \"contracts/GeekNft.sol\":2219:2236  return newTokenId */\n      swap2\n      pop\n      pop\n        /* \"contracts/GeekNft.sol\":1610:2243  function mint(uint _price, uint _catId, uint _dataId) public payable sendCorrectFeesValue returns (uint){... */\n      swap4\n      swap3\n      pop\n      pop\n      pop\n      jump\t// out\n        /* \"contracts/GeekNft.sol\":4326:4693  function fetchItemsToSell() public view returns (Item[] memory){... */\n    tag_25:\n        /* \"contracts/GeekNft.sol\":4375:4388  Item[] memory */\n      0x60\n        /* \"contracts/GeekNft.sol\":4399:4411  uint counter */\n      0x00\n        /* \"contracts/GeekNft.sol\":4425:4445  Item[] memory result */\n      dup1\n        /* \"contracts/GeekNft.sol\":4459:4475  itemsToSellCount */\n      sload(0x04)\n        /* \"contracts/GeekNft.sol\":4448:4476  new Item[](itemsToSellCount) */\n      0xffffffffffffffff\n      dup2\n      gt\n      iszero\n      tag_91\n      jumpi\n      mstore(0x00, 0x4e487b7100000000000000000000000000000000000000000000000000000000)\n      mstore(0x04, 0x41)\n      revert(0x00, 0x24)\n    tag_91:\n      mload(0x40)\n      swap1\n      dup1\n      dup3\n      mstore\n      dup1\n      0x20\n      mul\n      0x20\n      add\n      dup3\n      add\n      0x40\n      mstore\n      dup1\n      iszero\n      tag_92\n      jumpi\n      dup2\n      0x20\n      add\n    tag_93:\n      tag_94\n      tag_95\n      jump\t// in\n    tag_94:\n      dup2\n      mstore\n      0x20\n      add\n      swap1\n      0x01\n      swap1\n      sub\n      swap1\n      dup2\n      tag_93\n      jumpi\n      swap1\n      pop\n    tag_92:\n      pop\n        /* \"contracts/GeekNft.sol\":4425:4476  Item[] memory result = new Item[](itemsToSellCount) */\n      swap1\n      pop\n        /* \"contracts/GeekNft.sol\":4491:4497  uint i */\n      0x00\n        /* \"contracts/GeekNft.sol\":4487:4663  for(uint i = 0; i < items.length; i++) {... */\n    tag_96:\n        /* \"contracts/GeekNft.sol\":4507:4512  items */\n      0x03\n        /* \"contracts/GeekNft.sol\":4507:4519  items.length */\n      dup1\n      sload\n      swap1\n      pop\n        /* \"contracts/GeekNft.sol\":4503:4504  i */\n      dup2\n        /* \"contracts/GeekNft.sol\":4503:4519  i < items.length */\n      lt\n        /* \"contracts/GeekNft.sol\":4487:4663  for(uint i = 0; i < items.length; i++) {... */\n      iszero\n      tag_97\n      jumpi\n        /* \"contracts/GeekNft.sol\":4562:4566  true */\n      0x01\n        /* \"contracts/GeekNft.sol\":4543:4566  items[i].toSell == true */\n      iszero\n      iszero\n        /* \"contracts/GeekNft.sol\":4543:4548  items */\n      0x03\n        /* \"contracts/GeekNft.sol\":4549:4550  i */\n      dup3\n        /* \"contracts/GeekNft.sol\":4543:4551  items[i] */\n      dup2\n      sload\n      dup2\n      lt\n      tag_99\n      jumpi\n      mstore(0x00, 0x4e487b7100000000000000000000000000000000000000000000000000000000)\n      mstore(0x04, 0x32)\n      revert(0x00, 0x24)\n    tag_99:\n      swap1\n      0x00\n      mstore\n      keccak256(0x00, 0x20)\n      swap1\n      0x05\n      mul\n      add\n        /* \"contracts/GeekNft.sol\":4543:4558  items[i].toSell */\n      0x04\n      add\n      0x00\n      swap1\n      sload\n      swap1\n      0x0100\n      exp\n      swap1\n      div\n      0xff\n      and\n        /* \"contracts/GeekNft.sol\":4543:4566  items[i].toSell == true */\n      iszero\n      iszero\n      eq\n        /* \"contracts/GeekNft.sol\":4540:4653  if(items[i].toSell == true){... */\n      iszero\n      tag_101\n      jumpi\n        /* \"contracts/GeekNft.sol\":4603:4608  items */\n      0x03\n        /* \"contracts/GeekNft.sol\":4609:4610  i */\n      dup2\n        /* \"contracts/GeekNft.sol\":4603:4611  items[i] */\n      dup2\n      sload\n      dup2\n      lt\n      tag_102\n      jumpi\n      mstore(0x00, 0x4e487b7100000000000000000000000000000000000000000000000000000000)\n      mstore(0x04, 0x32)\n      revert(0x00, 0x24)\n    tag_102:\n      swap1\n      0x00\n      mstore\n      keccak256(0x00, 0x20)\n      swap1\n      0x05\n      mul\n      add\n        /* \"contracts/GeekNft.sol\":4585:4611  result[counter] = items[i] */\n      mload(0x40)\n      dup1\n      0xc0\n      add\n      0x40\n      mstore\n      swap1\n      dup2\n      0x00\n      dup3\n      add\n      sload\n      dup2\n      mstore\n      0x20\n      add\n      0x01\n      dup3\n      add\n      sload\n      dup2\n      mstore\n      0x20\n      add\n      0x02\n      dup3\n      add\n      sload\n      dup2\n      mstore\n      0x20\n      add\n      0x03\n      dup3\n      add\n      sload\n      dup2\n      mstore\n      0x20\n      add\n      0x04\n      dup3\n      add\n      0x00\n      swap1\n      sload\n      swap1\n      0x0100\n      exp\n      swap1\n      div\n      0xff\n      and\n      iszero\n      iszero\n      iszero\n      iszero\n      dup2\n      mstore\n      0x20\n      add\n      0x04\n      dup3\n      add\n      0x01\n      swap1\n      sload\n      swap1\n      0x0100\n      exp\n      swap1\n      div\n      0xffffffffffffffffffffffffffffffffffffffff\n      and\n      0xffffffffffffffffffffffffffffffffffffffff\n      and\n      0xffffffffffffffffffffffffffffffffffffffff\n      and\n      dup2\n      mstore\n      pop\n      pop\n        /* \"contracts/GeekNft.sol\":4585:4591  result */\n      dup3\n        /* \"contracts/GeekNft.sol\":4592:4599  counter */\n      dup5\n        /* \"contracts/GeekNft.sol\":4585:4600  result[counter] */\n      dup2\n      mload\n      dup2\n      lt\n      tag_104\n      jumpi\n      mstore(0x00, 0x4e487b7100000000000000000000000000000000000000000000000000000000)\n      mstore(0x04, 0x32)\n      revert(0x00, 0x24)\n    tag_104:\n      0x20\n      mul\n      0x20\n      add\n      add\n        /* \"contracts/GeekNft.sol\":4585:4611  result[counter] = items[i] */\n      dup2\n      swap1\n      mstore\n      pop\n        /* \"contracts/GeekNft.sol\":4629:4638  counter++ */\n      dup3\n      dup1\n      tag_105\n      swap1\n      tag_106\n      jump\t// in\n    tag_105:\n      swap4\n      pop\n      pop\n        /* \"contracts/GeekNft.sol\":4540:4653  if(items[i].toSell == true){... */\n    tag_101:\n        /* \"contracts/GeekNft.sol\":4521:4524  i++ */\n      dup1\n      dup1\n      tag_107\n      swap1\n      tag_106\n      jump\t// in\n    tag_107:\n      swap2\n      pop\n      pop\n        /* \"contracts/GeekNft.sol\":4487:4663  for(uint i = 0; i < items.length; i++) {... */\n      jump(tag_96)\n    tag_97:\n      pop\n        /* \"contracts/GeekNft.sol\":4680:4686  result */\n      dup1\n        /* \"contracts/GeekNft.sol\":4673:4686  return result */\n      swap3\n      pop\n      pop\n      pop\n        /* \"contracts/GeekNft.sol\":4326:4693  function fetchItemsToSell() public view returns (Item[] memory){... */\n      swap1\n      jump\t// out\n        /* \"contracts/GeekNft.sol\":1504:1604  function getCreatorPercentage() public view returns (uint) {... */\n    tag_30:\n        /* \"contracts/GeekNft.sol\":1557:1561  uint */\n      0x00\n        /* \"contracts/GeekNft.sol\":1580:1597  creatorPercentage */\n      sload(0x06)\n        /* \"contracts/GeekNft.sol\":1573:1597  return creatorPercentage */\n      swap1\n      pop\n        /* \"contracts/GeekNft.sol\":1504:1604  function getCreatorPercentage() public view returns (uint) {... */\n      swap1\n      jump\t// out\n        /* \"contracts/GeekNft.sol\":1369:1498  function updateCreatorPercentage(uint _newPercentage) public onlyContractOwner{... */\n    tag_36:\n        /* \"contracts/GeekNft.sol\":797:802  owner */\n      0x02\n      0x00\n      swap1\n      sload\n      swap1\n      0x0100\n      exp\n      swap1\n      div\n      0xffffffffffffffffffffffffffffffffffffffff\n      and\n        /* \"contracts/GeekNft.sol\":783:802  msg.sender == owner */\n      0xffffffffffffffffffffffffffffffffffffffff\n      and\n        /* \"contracts/GeekNft.sol\":783:793  msg.sender */\n      caller\n        /* \"contracts/GeekNft.sol\":783:802  msg.sender == owner */\n      0xffffffffffffffffffffffffffffffffffffffff\n      and\n      eq\n        /* \"contracts/GeekNft.sol\":775:840  require(msg.sender == owner, \"Only contract's owner can do that\") */\n      tag_110\n      jumpi\n      mload(0x40)\n      0x08c379a000000000000000000000000000000000000000000000000000000000\n      dup2\n      mstore\n      0x04\n      add\n      tag_111\n      swap1\n      tag_112\n      jump\t// in\n    tag_111:\n      mload(0x40)\n      dup1\n      swap2\n      sub\n      swap1\n      revert\n    tag_110:\n        /* \"contracts/GeekNft.sol\":1477:1491  _newPercentage */\n      dup1\n        /* \"contracts/GeekNft.sol\":1457:1474  creatorPercentage */\n      0x06\n        /* \"contracts/GeekNft.sol\":1457:1491  creatorPercentage = _newPercentage */\n      dup2\n      swap1\n      sstore\n      pop\n        /* \"contracts/GeekNft.sol\":1369:1498  function updateCreatorPercentage(uint _newPercentage) public onlyContractOwner{... */\n      pop\n      jump\t// out\n        /* \"contracts/GeekNft.sol\":5089:5509  function fetchItemsToSellByCatId(uint _catId) public view returns (Item[] memory){... */\n    tag_40:\n        /* \"contracts/GeekNft.sol\":5156:5169  Item[] memory */\n      0x60\n        /* \"contracts/GeekNft.sol\":5180:5192  uint counter */\n      0x00\n        /* \"contracts/GeekNft.sol\":5206:5226  Item[] memory result */\n      dup1\n        /* \"contracts/GeekNft.sol\":5240:5255  itemsCatIdCount */\n      0x09\n        /* \"contracts/GeekNft.sol\":5240:5263  itemsCatIdCount[_catId] */\n      0x00\n        /* \"contracts/GeekNft.sol\":5256:5262  _catId */\n      dup6\n        /* \"contracts/GeekNft.sol\":5240:5263  itemsCatIdCount[_catId] */\n      dup2\n      mstore\n      0x20\n      add\n      swap1\n      dup2\n      mstore\n      0x20\n      add\n      0x00\n      keccak256\n      sload\n        /* \"contracts/GeekNft.sol\":5229:5264  new Item[](itemsCatIdCount[_catId]) */\n      0xffffffffffffffff\n      dup2\n      gt\n      iszero\n      tag_115\n      jumpi\n      mstore(0x00, 0x4e487b7100000000000000000000000000000000000000000000000000000000)\n      mstore(0x04, 0x41)\n      revert(0x00, 0x24)\n    tag_115:\n      mload(0x40)\n      swap1\n      dup1\n      dup3\n      mstore\n      dup1\n      0x20\n      mul\n      0x20\n      add\n      dup3\n      add\n      0x40\n      mstore\n      dup1\n      iszero\n      tag_116\n      jumpi\n      dup2\n      0x20\n      add\n    tag_117:\n      tag_118\n      tag_95\n      jump\t// in\n    tag_118:\n      dup2\n      mstore\n      0x20\n      add\n      swap1\n      0x01\n      swap1\n      sub\n      swap1\n      dup2\n      tag_117\n      jumpi\n      swap1\n      pop\n    tag_116:\n      pop\n        /* \"contracts/GeekNft.sol\":5206:5264  Item[] memory result = new Item[](itemsCatIdCount[_catId]) */\n      swap1\n      pop\n        /* \"contracts/GeekNft.sol\":5279:5285  uint i */\n      0x00\n        /* \"contracts/GeekNft.sol\":5275:5479  for(uint i = 0; i < items.length; i++) {... */\n    tag_119:\n        /* \"contracts/GeekNft.sol\":5295:5300  items */\n      0x03\n        /* \"contracts/GeekNft.sol\":5295:5307  items.length */\n      dup1\n      sload\n      swap1\n      pop\n        /* \"contracts/GeekNft.sol\":5291:5292  i */\n      dup2\n        /* \"contracts/GeekNft.sol\":5291:5307  i < items.length */\n      lt\n        /* \"contracts/GeekNft.sol\":5275:5479  for(uint i = 0; i < items.length; i++) {... */\n      iszero\n      tag_120\n      jumpi\n        /* \"contracts/GeekNft.sol\":5349:5355  _catId */\n      dup5\n        /* \"contracts/GeekNft.sol\":5331:5336  items */\n      0x03\n        /* \"contracts/GeekNft.sol\":5337:5338  i */\n      dup3\n        /* \"contracts/GeekNft.sol\":5331:5339  items[i] */\n      dup2\n      sload\n      dup2\n      lt\n      tag_122\n      jumpi\n      mstore(0x00, 0x4e487b7100000000000000000000000000000000000000000000000000000000)\n      mstore(0x04, 0x32)\n      revert(0x00, 0x24)\n    tag_122:\n      swap1\n      0x00\n      mstore\n      keccak256(0x00, 0x20)\n      swap1\n      0x05\n      mul\n      add\n        /* \"contracts/GeekNft.sol\":5331:5345  items[i].catId */\n      0x03\n      add\n      sload\n        /* \"contracts/GeekNft.sol\":5331:5355  items[i].catId == _catId */\n      eq\n        /* \"contracts/GeekNft.sol\":5331:5382  items[i].catId == _catId && items[i].toSell == true */\n      dup1\n      iszero\n      tag_124\n      jumpi\n      pop\n        /* \"contracts/GeekNft.sol\":5378:5382  true */\n      0x01\n        /* \"contracts/GeekNft.sol\":5359:5382  items[i].toSell == true */\n      iszero\n      iszero\n        /* \"contracts/GeekNft.sol\":5359:5364  items */\n      0x03\n        /* \"contracts/GeekNft.sol\":5365:5366  i */\n      dup3\n        /* \"contracts/GeekNft.sol\":5359:5367  items[i] */\n      dup2\n      sload\n      dup2\n      lt\n      tag_125\n      jumpi\n      mstore(0x00, 0x4e487b7100000000000000000000000000000000000000000000000000000000)\n      mstore(0x04, 0x32)\n      revert(0x00, 0x24)\n    tag_125:\n      swap1\n      0x00\n      mstore\n      keccak256(0x00, 0x20)\n      swap1\n      0x05\n      mul\n      add\n        /* \"contracts/GeekNft.sol\":5359:5374  items[i].toSell */\n      0x04\n      add\n      0x00\n      swap1\n      sload\n      swap1\n      0x0100\n      exp\n      swap1\n      div\n      0xff\n      and\n        /* \"contracts/GeekNft.sol\":5359:5382  items[i].toSell == true */\n      iszero\n      iszero\n      eq\n        /* \"contracts/GeekNft.sol\":5331:5382  items[i].catId == _catId && items[i].toSell == true */\n    tag_124:\n        /* \"contracts/GeekNft.sol\":5328:5469  if(items[i].catId == _catId && items[i].toSell == true){... */\n      iszero\n      tag_127\n      jumpi\n        /* \"contracts/GeekNft.sol\":5419:5424  items */\n      0x03\n        /* \"contracts/GeekNft.sol\":5425:5426  i */\n      dup2\n        /* \"contracts/GeekNft.sol\":5419:5427  items[i] */\n      dup2\n      sload\n      dup2\n      lt\n      tag_128\n      jumpi\n      mstore(0x00, 0x4e487b7100000000000000000000000000000000000000000000000000000000)\n      mstore(0x04, 0x32)\n      revert(0x00, 0x24)\n    tag_128:\n      swap1\n      0x00\n      mstore\n      keccak256(0x00, 0x20)\n      swap1\n      0x05\n      mul\n      add\n        /* \"contracts/GeekNft.sol\":5401:5427  result[counter] = items[i] */\n      mload(0x40)\n      dup1\n      0xc0\n      add\n      0x40\n      mstore\n      swap1\n      dup2\n      0x00\n      dup3\n      add\n      sload\n      dup2\n      mstore\n      0x20\n      add\n      0x01\n      dup3\n      add\n      sload\n      dup2\n      mstore\n      0x20\n      add\n      0x02\n      dup3\n      add\n      sload\n      dup2\n      mstore\n      0x20\n      add\n      0x03\n      dup3\n      add\n      sload\n      dup2\n      mstore\n      0x20\n      add\n      0x04\n      dup3\n      add\n      0x00\n      swap1\n      sload\n      swap1\n      0x0100\n      exp\n      swap1\n      div\n      0xff\n      and\n      iszero\n      iszero\n      iszero\n      iszero\n      dup2\n      mstore\n      0x20\n      add\n      0x04\n      dup3\n      add\n      0x01\n      swap1\n      sload\n      swap1\n      0x0100\n      exp\n      swap1\n      div\n      0xffffffffffffffffffffffffffffffffffffffff\n      and\n      0xffffffffffffffffffffffffffffffffffffffff\n      and\n      0xffffffffffffffffffffffffffffffffffffffff\n      and\n      dup2\n      mstore\n      pop\n      pop\n        /* \"contracts/GeekNft.sol\":5401:5407  result */\n      dup3\n        /* \"contracts/GeekNft.sol\":5408:5415  counter */\n      dup5\n        /* \"contracts/GeekNft.sol\":5401:5416  result[counter] */\n      dup2\n      mload\n      dup2\n      lt\n      tag_130\n      jumpi\n      mstore(0x00, 0x4e487b7100000000000000000000000000000000000000000000000000000000)\n      mstore(0x04, 0x32)\n      revert(0x00, 0x24)\n    tag_130:\n      0x20\n      mul\n      0x20\n      add\n      add\n        /* \"contracts/GeekNft.sol\":5401:5427  result[counter] = items[i] */\n      dup2\n      swap1\n      mstore\n      pop\n        /* \"contracts/GeekNft.sol\":5445:5454  counter++ */\n      dup3\n      dup1\n      tag_131\n      swap1\n      tag_106\n      jump\t// in\n    tag_131:\n      swap4\n      pop\n      pop\n        /* \"contracts/GeekNft.sol\":5328:5469  if(items[i].catId == _catId && items[i].toSell == true){... */\n    tag_127:\n        /* \"contracts/GeekNft.sol\":5309:5312  i++ */\n      dup1\n      dup1\n      tag_132\n      swap1\n      tag_106\n      jump\t// in\n    tag_132:\n      swap2\n      pop\n      pop\n        /* \"contracts/GeekNft.sol\":5275:5479  for(uint i = 0; i < items.length; i++) {... */\n      jump(tag_119)\n    tag_120:\n      pop\n        /* \"contracts/GeekNft.sol\":5496:5502  result */\n      dup1\n        /* \"contracts/GeekNft.sol\":5489:5502  return result */\n      swap3\n      pop\n      pop\n      pop\n        /* \"contracts/GeekNft.sol\":5089:5509  function fetchItemsToSellByCatId(uint _catId) public view returns (Item[] memory){... */\n      swap2\n      swap1\n      pop\n      jump\t// out\n        /* \"contracts/GeekNft.sol\":4699:5083  function fetchItemsByOwner() public view returns (Item[] memory){... */\n    tag_44:\n        /* \"contracts/GeekNft.sol\":4749:4762  Item[] memory */\n      0x60\n        /* \"contracts/GeekNft.sol\":4773:4785  uint counter */\n      0x00\n        /* \"contracts/GeekNft.sol\":4799:4819  Item[] memory result */\n      dup1\n        /* \"contracts/GeekNft.sol\":4833:4848  itemsOwnerCount */\n      0x08\n        /* \"contracts/GeekNft.sol\":4833:4860  itemsOwnerCount[msg.sender] */\n      0x00\n        /* \"contracts/GeekNft.sol\":4849:4859  msg.sender */\n      caller\n        /* \"contracts/GeekNft.sol\":4833:4860  itemsOwnerCount[msg.sender] */\n      0xffffffffffffffffffffffffffffffffffffffff\n      and\n      0xffffffffffffffffffffffffffffffffffffffff\n      and\n      dup2\n      mstore\n      0x20\n      add\n      swap1\n      dup2\n      mstore\n      0x20\n      add\n      0x00\n      keccak256\n      sload\n        /* \"contracts/GeekNft.sol\":4822:4861  new Item[](itemsOwnerCount[msg.sender]) */\n      0xffffffffffffffff\n      dup2\n      gt\n      iszero\n      tag_134\n      jumpi\n      mstore(0x00, 0x4e487b7100000000000000000000000000000000000000000000000000000000)\n      mstore(0x04, 0x41)\n      revert(0x00, 0x24)\n    tag_134:\n      mload(0x40)\n      swap1\n      dup1\n      dup3\n      mstore\n      dup1\n      0x20\n      mul\n      0x20\n      add\n      dup3\n      add\n      0x40\n      mstore\n      dup1\n      iszero\n      tag_135\n      jumpi\n      dup2\n      0x20\n      add\n    tag_136:\n      tag_137\n      tag_95\n      jump\t// in\n    tag_137:\n      dup2\n      mstore\n      0x20\n      add\n      swap1\n      0x01\n      swap1\n      sub\n      swap1\n      dup2\n      tag_136\n      jumpi\n      swap1\n      pop\n    tag_135:\n      pop\n        /* \"contracts/GeekNft.sol\":4799:4861  Item[] memory result = new Item[](itemsOwnerCount[msg.sender]) */\n      swap1\n      pop\n        /* \"contracts/GeekNft.sol\":4876:4882  uint i */\n      0x00\n        /* \"contracts/GeekNft.sol\":4872:5053  for(uint i = 0; i < items.length; i++) {... */\n    tag_138:\n        /* \"contracts/GeekNft.sol\":4892:4897  items */\n      0x03\n        /* \"contracts/GeekNft.sol\":4892:4904  items.length */\n      dup1\n      sload\n      swap1\n      pop\n        /* \"contracts/GeekNft.sol\":4888:4889  i */\n      dup2\n        /* \"contracts/GeekNft.sol\":4888:4904  i < items.length */\n      lt\n        /* \"contracts/GeekNft.sol\":4872:5053  for(uint i = 0; i < items.length; i++) {... */\n      iszero\n      tag_139\n      jumpi\n        /* \"contracts/GeekNft.sol\":4946:4956  msg.sender */\n      caller\n        /* \"contracts/GeekNft.sol\":4928:4956  itemToOwner[i] == msg.sender */\n      0xffffffffffffffffffffffffffffffffffffffff\n      and\n        /* \"contracts/GeekNft.sol\":4928:4939  itemToOwner */\n      0x07\n        /* \"contracts/GeekNft.sol\":4928:4942  itemToOwner[i] */\n      0x00\n        /* \"contracts/GeekNft.sol\":4940:4941  i */\n      dup4\n        /* \"contracts/GeekNft.sol\":4928:4942  itemToOwner[i] */\n      dup2\n      mstore\n      0x20\n      add\n      swap1\n      dup2\n      mstore\n      0x20\n      add\n      0x00\n      keccak256\n      0x00\n      swap1\n      sload\n      swap1\n      0x0100\n      exp\n      swap1\n      div\n      0xffffffffffffffffffffffffffffffffffffffff\n      and\n        /* \"contracts/GeekNft.sol\":4928:4956  itemToOwner[i] == msg.sender */\n      0xffffffffffffffffffffffffffffffffffffffff\n      and\n      eq\n        /* \"contracts/GeekNft.sol\":4925:5043  if(itemToOwner[i] == msg.sender){... */\n      iszero\n      tag_141\n      jumpi\n        /* \"contracts/GeekNft.sol\":4993:4998  items */\n      0x03\n        /* \"contracts/GeekNft.sol\":4999:5000  i */\n      dup2\n        /* \"contracts/GeekNft.sol\":4993:5001  items[i] */\n      dup2\n      sload\n      dup2\n      lt\n      tag_142\n      jumpi\n      mstore(0x00, 0x4e487b7100000000000000000000000000000000000000000000000000000000)\n      mstore(0x04, 0x32)\n      revert(0x00, 0x24)\n    tag_142:\n      swap1\n      0x00\n      mstore\n      keccak256(0x00, 0x20)\n      swap1\n      0x05\n      mul\n      add\n        /* \"contracts/GeekNft.sol\":4975:5001  result[counter] = items[i] */\n      mload(0x40)\n      dup1\n      0xc0\n      add\n      0x40\n      mstore\n      swap1\n      dup2\n      0x00\n      dup3\n      add\n      sload\n      dup2\n      mstore\n      0x20\n      add\n      0x01\n      dup3\n      add\n      sload\n      dup2\n      mstore\n      0x20\n      add\n      0x02\n      dup3\n      add\n      sload\n      dup2\n      mstore\n      0x20\n      add\n      0x03\n      dup3\n      add\n      sload\n      dup2\n      mstore\n      0x20\n      add\n      0x04\n      dup3\n      add\n      0x00\n      swap1\n      sload\n      swap1\n      0x0100\n      exp\n      swap1\n      div\n      0xff\n      and\n      iszero\n      iszero\n      iszero\n      iszero\n      dup2\n      mstore\n      0x20\n      add\n      0x04\n      dup3\n      add\n      0x01\n      swap1\n      sload\n      swap1\n      0x0100\n      exp\n      swap1\n      div\n      0xffffffffffffffffffffffffffffffffffffffff\n      and\n      0xffffffffffffffffffffffffffffffffffffffff\n      and\n      0xffffffffffffffffffffffffffffffffffffffff\n      and\n      dup2\n      mstore\n      pop\n      pop\n        /* \"contracts/GeekNft.sol\":4975:4981  result */\n      dup3\n        /* \"contracts/GeekNft.sol\":4982:4989  counter */\n      dup5\n        /* \"contracts/GeekNft.sol\":4975:4990  result[counter] */\n      dup2\n      mload\n      dup2\n      lt\n      tag_144\n      jumpi\n      mstore(0x00, 0x4e487b7100000000000000000000000000000000000000000000000000000000)\n      mstore(0x04, 0x32)\n      revert(0x00, 0x24)\n    tag_144:\n      0x20\n      mul\n      0x20\n      add\n      add\n        /* \"contracts/GeekNft.sol\":4975:5001  result[counter] = items[i] */\n      dup2\n      swap1\n      mstore\n      pop\n        /* \"contracts/GeekNft.sol\":5019:5028  counter++ */\n      dup3\n      dup1\n      tag_145\n      swap1\n      tag_106\n      jump\t// in\n    tag_145:\n      swap4\n      pop\n      pop\n        /* \"contracts/GeekNft.sol\":4925:5043  if(itemToOwner[i] == msg.sender){... */\n    tag_141:\n        /* \"contracts/GeekNft.sol\":4906:4909  i++ */\n      dup1\n      dup1\n      tag_146\n      swap1\n      tag_106\n      jump\t// in\n    tag_146:\n      swap2\n      pop\n      pop\n        /* \"contracts/GeekNft.sol\":4872:5053  for(uint i = 0; i < items.length; i++) {... */\n      jump(tag_138)\n    tag_139:\n      pop\n        /* \"contracts/GeekNft.sol\":5070:5076  result */\n      dup1\n        /* \"contracts/GeekNft.sol\":5063:5076  return result */\n      swap3\n      pop\n      pop\n      pop\n        /* \"contracts/GeekNft.sol\":4699:5083  function fetchItemsByOwner() public view returns (Item[] memory){... */\n      swap1\n      jump\t// out\n        /* \"contracts/GeekNft.sol\":3355:3461  function ownerOf(uint _tokenId) public view returns (address){... */\n    tag_49:\n        /* \"contracts/GeekNft.sol\":3408:3415  address */\n      0x00\n        /* \"contracts/GeekNft.sol\":3433:3444  itemToOwner */\n      0x07\n        /* \"contracts/GeekNft.sol\":3433:3454  itemToOwner[_tokenId] */\n      0x00\n        /* \"contracts/GeekNft.sol\":3445:3453  _tokenId */\n      dup4\n        /* \"contracts/GeekNft.sol\":3433:3454  itemToOwner[_tokenId] */\n      dup2\n      mstore\n      0x20\n      add\n      swap1\n      dup2\n      mstore\n      0x20\n      add\n      0x00\n      keccak256\n      0x00\n      swap1\n      sload\n      swap1\n      0x0100\n      exp\n      swap1\n      div\n      0xffffffffffffffffffffffffffffffffffffffff\n      and\n        /* \"contracts/GeekNft.sol\":3426:3454  return itemToOwner[_tokenId] */\n      swap1\n      pop\n        /* \"contracts/GeekNft.sol\":3355:3461  function ownerOf(uint _tokenId) public view returns (address){... */\n      swap2\n      swap1\n      pop\n      jump\t// out\n        /* \"contracts/GeekNft.sol\":3467:3575  function balanceOf(address _owner) public view returns (uint){... */\n    tag_56:\n        /* \"contracts/GeekNft.sol\":3523:3527  uint */\n      0x00\n        /* \"contracts/GeekNft.sol\":3545:3560  itemsOwnerCount */\n      0x08\n        /* \"contracts/GeekNft.sol\":3545:3568  itemsOwnerCount[_owner] */\n      0x00\n        /* \"contracts/GeekNft.sol\":3561:3567  _owner */\n      dup4\n        /* \"contracts/GeekNft.sol\":3545:3568  itemsOwnerCount[_owner] */\n      0xffffffffffffffffffffffffffffffffffffffff\n      and\n      0xffffffffffffffffffffffffffffffffffffffff\n      and\n      dup2\n      mstore\n      0x20\n      add\n      swap1\n      dup2\n      mstore\n      0x20\n      add\n      0x00\n      keccak256\n      sload\n        /* \"contracts/GeekNft.sol\":3538:3568  return itemsOwnerCount[_owner] */\n      swap1\n      pop\n        /* \"contracts/GeekNft.sol\":3467:3575  function balanceOf(address _owner) public view returns (uint){... */\n      swap2\n      swap1\n      pop\n      jump\t// out\n        /* \"contracts/GeekNft.sol\":2249:3349  function sellItem(uint _tokenId) public payable{... */\n    tag_60:\n        /* \"contracts/GeekNft.sol\":2327:2332  items */\n      0x03\n        /* \"contracts/GeekNft.sol\":2333:2341  _tokenId */\n      dup2\n        /* \"contracts/GeekNft.sol\":2327:2342  items[_tokenId] */\n      dup2\n      sload\n      dup2\n      lt\n      tag_150\n      jumpi\n      mstore(0x00, 0x4e487b7100000000000000000000000000000000000000000000000000000000)\n      mstore(0x04, 0x32)\n      revert(0x00, 0x24)\n    tag_150:\n      swap1\n      0x00\n      mstore\n      keccak256(0x00, 0x20)\n      swap1\n      0x05\n      mul\n      add\n        /* \"contracts/GeekNft.sol\":2327:2348  items[_tokenId].price */\n      0x02\n      add\n      sload\n        /* \"contracts/GeekNft.sol\":2314:2323  msg.value */\n      callvalue\n        /* \"contracts/GeekNft.sol\":2314:2348  msg.value == items[_tokenId].price */\n      eq\n        /* \"contracts/GeekNft.sol\":2306:2406  require(msg.value == items[_tokenId].price, \"transaction's value cannot be different of item price\") */\n      tag_152\n      jumpi\n      mload(0x40)\n      0x08c379a000000000000000000000000000000000000000000000000000000000\n      dup2\n      mstore\n      0x04\n      add\n      tag_153\n      swap1\n      tag_154\n      jump\t// in\n    tag_153:\n      mload(0x40)\n      dup1\n      swap2\n      sub\n      swap1\n      revert\n    tag_152:\n        /* \"contracts/GeekNft.sol\":2457:2458  0 */\n      0x00\n        /* \"contracts/GeekNft.sol\":2424:2459  itemToOwner[_tokenId] != address(0) */\n      0xffffffffffffffffffffffffffffffffffffffff\n      and\n        /* \"contracts/GeekNft.sol\":2424:2435  itemToOwner */\n      0x07\n        /* \"contracts/GeekNft.sol\":2424:2445  itemToOwner[_tokenId] */\n      0x00\n        /* \"contracts/GeekNft.sol\":2436:2444  _tokenId */\n      dup4\n        /* \"contracts/GeekNft.sol\":2424:2445  itemToOwner[_tokenId] */\n      dup2\n      mstore\n      0x20\n      add\n      swap1\n      dup2\n      mstore\n      0x20\n      add\n      0x00\n      keccak256\n      0x00\n      swap1\n      sload\n      swap1\n      0x0100\n      exp\n      swap1\n      div\n      0xffffffffffffffffffffffffffffffffffffffff\n      and\n        /* \"contracts/GeekNft.sol\":2424:2459  itemToOwner[_tokenId] != address(0) */\n      0xffffffffffffffffffffffffffffffffffffffff\n      and\n      eq\n      iszero\n        /* \"contracts/GeekNft.sol\":2416:2483  require(itemToOwner[_tokenId] != address(0), \"token doesn't exist\") */\n      tag_155\n      jumpi\n      mload(0x40)\n      0x08c379a000000000000000000000000000000000000000000000000000000000\n      dup2\n      mstore\n      0x04\n      add\n      tag_156\n      swap1\n      tag_157\n      jump\t// in\n    tag_156:\n      mload(0x40)\n      dup1\n      swap2\n      sub\n      swap1\n      revert\n    tag_155:\n        /* \"contracts/GeekNft.sol\":2526:2536  msg.sender */\n      caller\n        /* \"contracts/GeekNft.sol\":2501:2536  itemToOwner[_tokenId] != msg.sender */\n      0xffffffffffffffffffffffffffffffffffffffff\n      and\n        /* \"contracts/GeekNft.sol\":2501:2512  itemToOwner */\n      0x07\n        /* \"contracts/GeekNft.sol\":2501:2522  itemToOwner[_tokenId] */\n      0x00\n        /* \"contracts/GeekNft.sol\":2513:2521  _tokenId */\n      dup4\n        /* \"contracts/GeekNft.sol\":2501:2522  itemToOwner[_tokenId] */\n      dup2\n      mstore\n      0x20\n      add\n      swap1\n      dup2\n      mstore\n      0x20\n      add\n      0x00\n      keccak256\n      0x00\n      swap1\n      sload\n      swap1\n      0x0100\n      exp\n      swap1\n      div\n      0xffffffffffffffffffffffffffffffffffffffff\n      and\n        /* \"contracts/GeekNft.sol\":2501:2536  itemToOwner[_tokenId] != msg.sender */\n      0xffffffffffffffffffffffffffffffffffffffff\n      and\n      eq\n      iszero\n        /* \"contracts/GeekNft.sol\":2493:2582  require(itemToOwner[_tokenId] != msg.sender, \"you can't buy an item that belongs to you\") */\n      tag_158\n      jumpi\n      mload(0x40)\n      0x08c379a000000000000000000000000000000000000000000000000000000000\n      dup2\n      mstore\n      0x04\n      add\n      tag_159\n      swap1\n      tag_160\n      jump\t// in\n    tag_159:\n      mload(0x40)\n      dup1\n      swap2\n      sub\n      swap1\n      revert\n    tag_158:\n        /* \"contracts/GeekNft.sol\":2593:2609  address oldOwner */\n      0x00\n        /* \"contracts/GeekNft.sol\":2612:2623  itemToOwner */\n      0x07\n        /* \"contracts/GeekNft.sol\":2612:2633  itemToOwner[_tokenId] */\n      0x00\n        /* \"contracts/GeekNft.sol\":2624:2632  _tokenId */\n      dup4\n        /* \"contracts/GeekNft.sol\":2612:2633  itemToOwner[_tokenId] */\n      dup2\n      mstore\n      0x20\n      add\n      swap1\n      dup2\n      mstore\n      0x20\n      add\n      0x00\n      keccak256\n      0x00\n      swap1\n      sload\n      swap1\n      0x0100\n      exp\n      swap1\n      div\n      0xffffffffffffffffffffffffffffffffffffffff\n      and\n        /* \"contracts/GeekNft.sol\":2593:2633  address oldOwner = itemToOwner[_tokenId] */\n      swap1\n      pop\n        /* \"contracts/GeekNft.sol\":2652:2675  Item storage itemToSell */\n      0x00\n        /* \"contracts/GeekNft.sol\":2678:2683  items */\n      0x03\n        /* \"contracts/GeekNft.sol\":2684:2692  _tokenId */\n      dup4\n        /* \"contracts/GeekNft.sol\":2678:2693  items[_tokenId] */\n      dup2\n      sload\n      dup2\n      lt\n      tag_161\n      jumpi\n      mstore(0x00, 0x4e487b7100000000000000000000000000000000000000000000000000000000)\n      mstore(0x04, 0x32)\n      revert(0x00, 0x24)\n    tag_161:\n      swap1\n      0x00\n      mstore\n      keccak256(0x00, 0x20)\n      swap1\n      0x05\n      mul\n      add\n        /* \"contracts/GeekNft.sol\":2652:2693  Item storage itemToSell = items[_tokenId] */\n      swap1\n      pop\n        /* \"contracts/GeekNft.sol\":2723:2728  false */\n      0x00\n        /* \"contracts/GeekNft.sol\":2703:2713  itemToSell */\n      dup2\n        /* \"contracts/GeekNft.sol\":2703:2720  itemToSell.toSell */\n      0x04\n      add\n      0x00\n        /* \"contracts/GeekNft.sol\":2703:2728  itemToSell.toSell = false */\n      0x0100\n      exp\n      dup2\n      sload\n      dup2\n      0xff\n      mul\n      not\n      and\n      swap1\n      dup4\n      iszero\n      iszero\n      mul\n      or\n      swap1\n      sstore\n      pop\n        /* \"contracts/GeekNft.sol\":2763:2773  msg.sender */\n      caller\n        /* \"contracts/GeekNft.sol\":2739:2750  itemToOwner */\n      0x07\n        /* \"contracts/GeekNft.sol\":2739:2760  itemToOwner[_tokenId] */\n      0x00\n        /* \"contracts/GeekNft.sol\":2751:2759  _tokenId */\n      dup6\n        /* \"contracts/GeekNft.sol\":2739:2760  itemToOwner[_tokenId] */\n      dup2\n      mstore\n      0x20\n      add\n      swap1\n      dup2\n      mstore\n      0x20\n      add\n      0x00\n      keccak256\n      0x00\n        /* \"contracts/GeekNft.sol\":2739:2773  itemToOwner[_tokenId] = msg.sender */\n      0x0100\n      exp\n      dup2\n      sload\n      dup2\n      0xffffffffffffffffffffffffffffffffffffffff\n      mul\n      not\n      and\n      swap1\n      dup4\n      0xffffffffffffffffffffffffffffffffffffffff\n      and\n      mul\n      or\n      swap1\n      sstore\n      pop\n        /* \"contracts/GeekNft.sol\":2807:2822  itemsOwnerCount */\n      0x08\n        /* \"contracts/GeekNft.sol\":2807:2832  itemsOwnerCount[oldOwner] */\n      0x00\n        /* \"contracts/GeekNft.sol\":2823:2831  oldOwner */\n      dup4\n        /* \"contracts/GeekNft.sol\":2807:2832  itemsOwnerCount[oldOwner] */\n      0xffffffffffffffffffffffffffffffffffffffff\n      and\n      0xffffffffffffffffffffffffffffffffffffffff\n      and\n      dup2\n      mstore\n      0x20\n      add\n      swap1\n      dup2\n      mstore\n      0x20\n      add\n      0x00\n      keccak256\n      0x00\n        /* \"contracts/GeekNft.sol\":2807:2834  itemsOwnerCount[oldOwner]-- */\n      dup2\n      sload\n      dup1\n      swap3\n      swap2\n      swap1\n      0x01\n      swap1\n      sub\n      swap2\n      swap1\n      pop\n      sstore\n      pop\n        /* \"contracts/GeekNft.sol\":2848:2863  itemsOwnerCount */\n      0x08\n        /* \"contracts/GeekNft.sol\":2848:2875  itemsOwnerCount[msg.sender] */\n      0x00\n        /* \"contracts/GeekNft.sol\":2864:2874  msg.sender */\n      caller\n        /* \"contracts/GeekNft.sol\":2848:2875  itemsOwnerCount[msg.sender] */\n      0xffffffffffffffffffffffffffffffffffffffff\n      and\n      0xffffffffffffffffffffffffffffffffffffffff\n      and\n      dup2\n      mstore\n      0x20\n      add\n      swap1\n      dup2\n      mstore\n      0x20\n      add\n      0x00\n      keccak256\n      0x00\n        /* \"contracts/GeekNft.sol\":2848:2877  itemsOwnerCount[msg.sender]++ */\n      dup2\n      sload\n      dup1\n      swap3\n      swap2\n      swap1\n      0x01\n      add\n      swap2\n      swap1\n      pop\n      sstore\n      pop\n        /* \"contracts/GeekNft.sol\":2891:2907  itemsToSellCount */\n      0x04\n      0x00\n        /* \"contracts/GeekNft.sol\":2891:2909  itemsToSellCount-- */\n      dup2\n      sload\n      dup1\n      swap3\n      swap2\n      swap1\n      0x01\n      swap1\n      sub\n      swap2\n      swap1\n      pop\n      sstore\n      pop\n        /* \"contracts/GeekNft.sol\":2955:2963  oldOwner */\n      dup2\n        /* \"contracts/GeekNft.sol\":2933:2963  itemToSell.creator == oldOwner */\n      0xffffffffffffffffffffffffffffffffffffffff\n      and\n        /* \"contracts/GeekNft.sol\":2933:2943  itemToSell */\n      dup2\n        /* \"contracts/GeekNft.sol\":2933:2951  itemToSell.creator */\n      0x04\n      add\n      0x01\n      swap1\n      sload\n      swap1\n      0x0100\n      exp\n      swap1\n      div\n      0xffffffffffffffffffffffffffffffffffffffff\n      and\n        /* \"contracts/GeekNft.sol\":2933:2963  itemToSell.creator == oldOwner */\n      0xffffffffffffffffffffffffffffffffffffffff\n      and\n      eq\n        /* \"contracts/GeekNft.sol\":2930:3287  if(itemToSell.creator == oldOwner){... */\n      iszero\n      tag_163\n      jumpi\n        /* \"contracts/GeekNft.sol\":2986:2994  oldOwner */\n      dup2\n        /* \"contracts/GeekNft.sol\":2978:3004  payable(oldOwner).transfer */\n      0xffffffffffffffffffffffffffffffffffffffff\n      and\n        /* \"contracts/GeekNft.sol\":2978:3015  payable(oldOwner).transfer(msg.value) */\n      0x08fc\n        /* \"contracts/GeekNft.sol\":3005:3014  msg.value */\n      callvalue\n        /* \"contracts/GeekNft.sol\":2978:3015  payable(oldOwner).transfer(msg.value) */\n      swap1\n      dup2\n      iszero\n      mul\n      swap1\n      mload(0x40)\n      0x00\n      mload(0x40)\n      dup1\n      dup4\n      sub\n      dup2\n      dup6\n      dup9\n      dup9\n      call\n      swap4\n      pop\n      pop\n      pop\n      pop\n      iszero\n      dup1\n      iszero\n      tag_165\n      jumpi\n      returndatasize\n      0x00\n      dup1\n      returndatacopy\n      revert(0x00, returndatasize)\n    tag_165:\n      pop\n        /* \"contracts/GeekNft.sol\":2930:3287  if(itemToSell.creator == oldOwner){... */\n      jump(tag_166)\n    tag_163:\n        /* \"contracts/GeekNft.sol\":3046:3055  uint fees */\n      0x00\n        /* \"contracts/GeekNft.sol\":3069:3088  uint totalMinusFees */\n      dup1\n        /* \"contracts/GeekNft.sol\":3127:3164  getFees(msg.value, creatorPercentage) */\n      tag_167\n        /* \"contracts/GeekNft.sol\":3135:3144  msg.value */\n      callvalue\n        /* \"contracts/GeekNft.sol\":3146:3163  creatorPercentage */\n      sload(0x06)\n        /* \"contracts/GeekNft.sol\":3127:3134  getFees */\n      tag_168\n        /* \"contracts/GeekNft.sol\":3127:3164  getFees(msg.value, creatorPercentage) */\n      jump\t// in\n    tag_167:\n        /* \"contracts/GeekNft.sol\":3102:3164  (fees, totalMinusFees) = getFees(msg.value, creatorPercentage) */\n      dup1\n      swap3\n      pop\n      dup2\n      swap4\n      pop\n      pop\n      pop\n        /* \"contracts/GeekNft.sol\":3186:3196  itemToSell */\n      dup3\n        /* \"contracts/GeekNft.sol\":3186:3204  itemToSell.creator */\n      0x04\n      add\n      0x01\n      swap1\n      sload\n      swap1\n      0x0100\n      exp\n      swap1\n      div\n      0xffffffffffffffffffffffffffffffffffffffff\n      and\n        /* \"contracts/GeekNft.sol\":3178:3214  payable(itemToSell.creator).transfer */\n      0xffffffffffffffffffffffffffffffffffffffff\n      and\n        /* \"contracts/GeekNft.sol\":3178:3220  payable(itemToSell.creator).transfer(fees) */\n      0x08fc\n        /* \"contracts/GeekNft.sol\":3215:3219  fees */\n      dup4\n        /* \"contracts/GeekNft.sol\":3178:3220  payable(itemToSell.creator).transfer(fees) */\n      swap1\n      dup2\n      iszero\n      mul\n      swap1\n      mload(0x40)\n      0x00\n      mload(0x40)\n      dup1\n      dup4\n      sub\n      dup2\n      dup6\n      dup9\n      dup9\n      call\n      swap4\n      pop\n      pop\n      pop\n      pop\n      iszero\n      dup1\n      iszero\n      tag_170\n      jumpi\n      returndatasize\n      0x00\n      dup1\n      returndatacopy\n      revert(0x00, returndatasize)\n    tag_170:\n      pop\n        /* \"contracts/GeekNft.sol\":3242:3250  oldOwner */\n      dup4\n        /* \"contracts/GeekNft.sol\":3234:3260  payable(oldOwner).transfer */\n      0xffffffffffffffffffffffffffffffffffffffff\n      and\n        /* \"contracts/GeekNft.sol\":3234:3276  payable(oldOwner).transfer(totalMinusFees) */\n      0x08fc\n        /* \"contracts/GeekNft.sol\":3261:3275  totalMinusFees */\n      dup3\n        /* \"contracts/GeekNft.sol\":3234:3276  payable(oldOwner).transfer(totalMinusFees) */\n      swap1\n      dup2\n      iszero\n      mul\n      swap1\n      mload(0x40)\n      0x00\n      mload(0x40)\n      dup1\n      dup4\n      sub\n      dup2\n      dup6\n      dup9\n      dup9\n      call\n      swap4\n      pop\n      pop\n      pop\n      pop\n      iszero\n      dup1\n      iszero\n      tag_172\n      jumpi\n      returndatasize\n      0x00\n      dup1\n      returndatacopy\n      revert(0x00, returndatasize)\n    tag_172:\n      pop\n        /* \"contracts/GeekNft.sol\":2930:3287  if(itemToSell.creator == oldOwner){... */\n      pop\n      pop\n    tag_166:\n        /* \"contracts/GeekNft.sol\":3321:3331  msg.sender */\n      caller\n        /* \"contracts/GeekNft.sol\":3302:3342  Transfer(oldOwner, msg.sender, _tokenId) */\n      0xffffffffffffffffffffffffffffffffffffffff\n      and\n        /* \"contracts/GeekNft.sol\":3311:3319  oldOwner */\n      dup3\n        /* \"contracts/GeekNft.sol\":3302:3342  Transfer(oldOwner, msg.sender, _tokenId) */\n      0xffffffffffffffffffffffffffffffffffffffff\n      and\n      0xddf252ad1be2c89b69c2b068fc378daa952ba7f163c4a11628f55a4df523b3ef\n        /* \"contracts/GeekNft.sol\":3333:3341  _tokenId */\n      dup6\n        /* \"contracts/GeekNft.sol\":3302:3342  Transfer(oldOwner, msg.sender, _tokenId) */\n      mload(0x40)\n      tag_173\n      swap2\n      swap1\n      tag_22\n      jump\t// in\n    tag_173:\n      mload(0x40)\n      dup1\n      swap2\n      sub\n      swap1\n      log3\n        /* \"contracts/GeekNft.sol\":2249:3349  function sellItem(uint _tokenId) public payable{... */\n      pop\n      pop\n      pop\n      jump\t// out\n        /* \"contracts/GeekNft.sol\":1269:1363  function getCreateItemFees() public view returns (uint) {... */\n    tag_63:\n        /* \"contracts/GeekNft.sol\":1319:1323  uint */\n      0x00\n        /* \"contracts/GeekNft.sol\":1342:1356  createItemFees */\n      sload(0x05)\n        /* \"contracts/GeekNft.sol\":1335:1356  return createItemFees */\n      swap1\n      pop\n        /* \"contracts/GeekNft.sol\":1269:1363  function getCreateItemFees() public view returns (uint) {... */\n      swap1\n      jump\t// out\n        /* \"contracts/GeekNft.sol\":3581:3910  function removeItemToSell(uint _tokenId) public onlyItemOwner(_tokenId) {... */\n    tag_68:\n        /* \"contracts/GeekNft.sol\":3643:3651  _tokenId */\n      dup1\n        /* \"contracts/GeekNft.sol\":945:955  msg.sender */\n      caller\n        /* \"contracts/GeekNft.sol\":920:955  itemToOwner[_tokenId] == msg.sender */\n      0xffffffffffffffffffffffffffffffffffffffff\n      and\n        /* \"contracts/GeekNft.sol\":920:931  itemToOwner */\n      0x07\n        /* \"contracts/GeekNft.sol\":920:941  itemToOwner[_tokenId] */\n      0x00\n        /* \"contracts/GeekNft.sol\":932:940  _tokenId */\n      dup4\n        /* \"contracts/GeekNft.sol\":920:941  itemToOwner[_tokenId] */\n      dup2\n      mstore\n      0x20\n      add\n      swap1\n      dup2\n      mstore\n      0x20\n      add\n      0x00\n      keccak256\n      0x00\n      swap1\n      sload\n      swap1\n      0x0100\n      exp\n      swap1\n      div\n      0xffffffffffffffffffffffffffffffffffffffff\n      and\n        /* \"contracts/GeekNft.sol\":920:955  itemToOwner[_tokenId] == msg.sender */\n      0xffffffffffffffffffffffffffffffffffffffff\n      and\n      eq\n        /* \"contracts/GeekNft.sol\":912:989  require(itemToOwner[_tokenId] == msg.sender, \"Only item's owner can do that\") */\n      tag_176\n      jumpi\n      mload(0x40)\n      0x08c379a000000000000000000000000000000000000000000000000000000000\n      dup2\n      mstore\n      0x04\n      add\n      tag_177\n      swap1\n      tag_178\n      jump\t// in\n    tag_177:\n      mload(0x40)\n      dup1\n      swap2\n      sub\n      swap1\n      revert\n    tag_176:\n        /* \"contracts/GeekNft.sol\":3704:3705  0 */\n      0x00\n        /* \"contracts/GeekNft.sol\":3671:3706  itemToOwner[_tokenId] != address(0) */\n      0xffffffffffffffffffffffffffffffffffffffff\n      and\n        /* \"contracts/GeekNft.sol\":3671:3682  itemToOwner */\n      0x07\n        /* \"contracts/GeekNft.sol\":3671:3692  itemToOwner[_tokenId] */\n      0x00\n        /* \"contracts/GeekNft.sol\":3683:3691  _tokenId */\n      dup5\n        /* \"contracts/GeekNft.sol\":3671:3692  itemToOwner[_tokenId] */\n      dup2\n      mstore\n      0x20\n      add\n      swap1\n      dup2\n      mstore\n      0x20\n      add\n      0x00\n      keccak256\n      0x00\n      swap1\n      sload\n      swap1\n      0x0100\n      exp\n      swap1\n      div\n      0xffffffffffffffffffffffffffffffffffffffff\n      and\n        /* \"contracts/GeekNft.sol\":3671:3706  itemToOwner[_tokenId] != address(0) */\n      0xffffffffffffffffffffffffffffffffffffffff\n      and\n      eq\n      iszero\n        /* \"contracts/GeekNft.sol\":3663:3730  require(itemToOwner[_tokenId] != address(0), \"token doesn't exist\") */\n      tag_180\n      jumpi\n      mload(0x40)\n      0x08c379a000000000000000000000000000000000000000000000000000000000\n      dup2\n      mstore\n      0x04\n      add\n      tag_181\n      swap1\n      tag_157\n      jump\t// in\n    tag_181:\n      mload(0x40)\n      dup1\n      swap2\n      sub\n      swap1\n      revert\n    tag_180:\n        /* \"contracts/GeekNft.sol\":3774:3778  true */\n      0x01\n        /* \"contracts/GeekNft.sol\":3748:3778  items[_tokenId].toSell == true */\n      iszero\n      iszero\n        /* \"contracts/GeekNft.sol\":3748:3753  items */\n      0x03\n        /* \"contracts/GeekNft.sol\":3754:3762  _tokenId */\n      dup4\n        /* \"contracts/GeekNft.sol\":3748:3763  items[_tokenId] */\n      dup2\n      sload\n      dup2\n      lt\n      tag_182\n      jumpi\n      mstore(0x00, 0x4e487b7100000000000000000000000000000000000000000000000000000000)\n      mstore(0x04, 0x32)\n      revert(0x00, 0x24)\n    tag_182:\n      swap1\n      0x00\n      mstore\n      keccak256(0x00, 0x20)\n      swap1\n      0x05\n      mul\n      add\n        /* \"contracts/GeekNft.sol\":3748:3770  items[_tokenId].toSell */\n      0x04\n      add\n      0x00\n      swap1\n      sload\n      swap1\n      0x0100\n      exp\n      swap1\n      div\n      0xff\n      and\n        /* \"contracts/GeekNft.sol\":3748:3778  items[_tokenId].toSell == true */\n      iszero\n      iszero\n      eq\n        /* \"contracts/GeekNft.sol\":3740:3802  require(items[_tokenId].toSell == true, \"token isn't to sell\") */\n      tag_184\n      jumpi\n      mload(0x40)\n      0x08c379a000000000000000000000000000000000000000000000000000000000\n      dup2\n      mstore\n      0x04\n      add\n      tag_185\n      swap1\n      tag_186\n      jump\t// in\n    tag_185:\n      mload(0x40)\n      dup1\n      swap2\n      sub\n      swap1\n      revert\n    tag_184:\n        /* \"contracts/GeekNft.sol\":3837:3842  false */\n      0x00\n        /* \"contracts/GeekNft.sol\":3812:3817  items */\n      0x03\n        /* \"contracts/GeekNft.sol\":3818:3826  _tokenId */\n      dup4\n        /* \"contracts/GeekNft.sol\":3812:3827  items[_tokenId] */\n      dup2\n      sload\n      dup2\n      lt\n      tag_187\n      jumpi\n      mstore(0x00, 0x4e487b7100000000000000000000000000000000000000000000000000000000)\n      mstore(0x04, 0x32)\n      revert(0x00, 0x24)\n    tag_187:\n      swap1\n      0x00\n      mstore\n      keccak256(0x00, 0x20)\n      swap1\n      0x05\n      mul\n      add\n        /* \"contracts/GeekNft.sol\":3812:3834  items[_tokenId].toSell */\n      0x04\n      add\n      0x00\n        /* \"contracts/GeekNft.sol\":3812:3842  items[_tokenId].toSell = false */\n      0x0100\n      exp\n      dup2\n      sload\n      dup2\n      0xff\n      mul\n      not\n      and\n      swap1\n      dup4\n      iszero\n      iszero\n      mul\n      or\n      swap1\n      sstore\n      pop\n        /* \"contracts/GeekNft.sol\":3875:3891  itemsToSellCount */\n      0x04\n      0x00\n        /* \"contracts/GeekNft.sol\":3875:3893  itemsToSellCount-- */\n      dup2\n      sload\n      dup1\n      swap3\n      swap2\n      swap1\n      0x01\n      swap1\n      sub\n      swap2\n      swap1\n      pop\n      sstore\n      pop\n        /* \"contracts/GeekNft.sol\":3581:3910  function removeItemToSell(uint _tokenId) public onlyItemOwner(_tokenId) {... */\n      pop\n      pop\n      jump\t// out\n        /* \"contracts/GeekNft.sol\":3916:4320  function addItemToSell(uint _tokenId) public payable sendCorrectFeesValue onlyItemOwner(_tokenId) {... */\n    tag_71:\n        /* \"contracts/GeekNft.sol\":1076:1090  createItemFees */\n      sload(0x05)\n        /* \"contracts/GeekNft.sol\":1063:1072  msg.value */\n      callvalue\n        /* \"contracts/GeekNft.sol\":1063:1090  msg.value == createItemFees */\n      eq\n        /* \"contracts/GeekNft.sol\":1055:1128  require(msg.value == createItemFees, \"Thanks to send correct fees value\") */\n      tag_190\n      jumpi\n      mload(0x40)\n      0x08c379a000000000000000000000000000000000000000000000000000000000\n      dup2\n      mstore\n      0x04\n      add\n      tag_191\n      swap1\n      tag_79\n      jump\t// in\n    tag_191:\n      mload(0x40)\n      dup1\n      swap2\n      sub\n      swap1\n      revert\n    tag_190:\n        /* \"contracts/GeekNft.sol\":4004:4012  _tokenId */\n      dup1\n        /* \"contracts/GeekNft.sol\":945:955  msg.sender */\n      caller\n        /* \"contracts/GeekNft.sol\":920:955  itemToOwner[_tokenId] == msg.sender */\n      0xffffffffffffffffffffffffffffffffffffffff\n      and\n        /* \"contracts/GeekNft.sol\":920:931  itemToOwner */\n      0x07\n        /* \"contracts/GeekNft.sol\":920:941  itemToOwner[_tokenId] */\n      0x00\n        /* \"contracts/GeekNft.sol\":932:940  _tokenId */\n      dup4\n        /* \"contracts/GeekNft.sol\":920:941  itemToOwner[_tokenId] */\n      dup2\n      mstore\n      0x20\n      add\n      swap1\n      dup2\n      mstore\n      0x20\n      add\n      0x00\n      keccak256\n      0x00\n      swap1\n      sload\n      swap1\n      0x0100\n      exp\n      swap1\n      div\n      0xffffffffffffffffffffffffffffffffffffffff\n      and\n        /* \"contracts/GeekNft.sol\":920:955  itemToOwner[_tokenId] == msg.sender */\n      0xffffffffffffffffffffffffffffffffffffffff\n      and\n      eq\n        /* \"contracts/GeekNft.sol\":912:989  require(itemToOwner[_tokenId] == msg.sender, \"Only item's owner can do that\") */\n      tag_193\n      jumpi\n      mload(0x40)\n      0x08c379a000000000000000000000000000000000000000000000000000000000\n      dup2\n      mstore\n      0x04\n      add\n      tag_194\n      swap1\n      tag_178\n      jump\t// in\n    tag_194:\n      mload(0x40)\n      dup1\n      swap2\n      sub\n      swap1\n      revert\n    tag_193:\n        /* \"contracts/GeekNft.sol\":4065:4066  0 */\n      0x00\n        /* \"contracts/GeekNft.sol\":4032:4067  itemToOwner[_tokenId] != address(0) */\n      0xffffffffffffffffffffffffffffffffffffffff\n      and\n        /* \"contracts/GeekNft.sol\":4032:4043  itemToOwner */\n      0x07\n        /* \"contracts/GeekNft.sol\":4032:4053  itemToOwner[_tokenId] */\n      0x00\n        /* \"contracts/GeekNft.sol\":4044:4052  _tokenId */\n      dup5\n        /* \"contracts/GeekNft.sol\":4032:4053  itemToOwner[_tokenId] */\n      dup2\n      mstore\n      0x20\n      add\n      swap1\n      dup2\n      mstore\n      0x20\n      add\n      0x00\n      keccak256\n      0x00\n      swap1\n      sload\n      swap1\n      0x0100\n      exp\n      swap1\n      div\n      0xffffffffffffffffffffffffffffffffffffffff\n      and\n        /* \"contracts/GeekNft.sol\":4032:4067  itemToOwner[_tokenId] != address(0) */\n      0xffffffffffffffffffffffffffffffffffffffff\n      and\n      eq\n      iszero\n        /* \"contracts/GeekNft.sol\":4024:4091  require(itemToOwner[_tokenId] != address(0), \"token doesn't exist\") */\n      tag_196\n      jumpi\n      mload(0x40)\n      0x08c379a000000000000000000000000000000000000000000000000000000000\n      dup2\n      mstore\n      0x04\n      add\n      tag_197\n      swap1\n      tag_157\n      jump\t// in\n    tag_197:\n      mload(0x40)\n      dup1\n      swap2\n      sub\n      swap1\n      revert\n    tag_196:\n        /* \"contracts/GeekNft.sol\":4135:4140  false */\n      0x00\n        /* \"contracts/GeekNft.sol\":4109:4140  items[_tokenId].toSell == false */\n      iszero\n      iszero\n        /* \"contracts/GeekNft.sol\":4109:4114  items */\n      0x03\n        /* \"contracts/GeekNft.sol\":4115:4123  _tokenId */\n      dup4\n        /* \"contracts/GeekNft.sol\":4109:4124  items[_tokenId] */\n      dup2\n      sload\n      dup2\n      lt\n      tag_198\n      jumpi\n      mstore(0x00, 0x4e487b7100000000000000000000000000000000000000000000000000000000)\n      mstore(0x04, 0x32)\n      revert(0x00, 0x24)\n    tag_198:\n      swap1\n      0x00\n      mstore\n      keccak256(0x00, 0x20)\n      swap1\n      0x05\n      mul\n      add\n        /* \"contracts/GeekNft.sol\":4109:4131  items[_tokenId].toSell */\n      0x04\n      add\n      0x00\n      swap1\n      sload\n      swap1\n      0x0100\n      exp\n      swap1\n      div\n      0xff\n      and\n        /* \"contracts/GeekNft.sol\":4109:4140  items[_tokenId].toSell == false */\n      iszero\n      iszero\n      eq\n        /* \"contracts/GeekNft.sol\":4101:4169  require(items[_tokenId].toSell == false, \"token is already to sell\") */\n      tag_200\n      jumpi\n      mload(0x40)\n      0x08c379a000000000000000000000000000000000000000000000000000000000\n      dup2\n      mstore\n      0x04\n      add\n      tag_201\n      swap1\n      tag_202\n      jump\t// in\n    tag_201:\n      mload(0x40)\n      dup1\n      swap2\n      sub\n      swap1\n      revert\n    tag_200:\n        /* \"contracts/GeekNft.sol\":4204:4208  true */\n      0x01\n        /* \"contracts/GeekNft.sol\":4179:4184  items */\n      0x03\n        /* \"contracts/GeekNft.sol\":4185:4193  _tokenId */\n      dup4\n        /* \"contracts/GeekNft.sol\":4179:4194  items[_tokenId] */\n      dup2\n      sload\n      dup2\n      lt\n      tag_203\n      jumpi\n      mstore(0x00, 0x4e487b7100000000000000000000000000000000000000000000000000000000)\n      mstore(0x04, 0x32)\n      revert(0x00, 0x24)\n    tag_203:\n      swap1\n      0x00\n      mstore\n      keccak256(0x00, 0x20)\n      swap1\n      0x05\n      mul\n      add\n        /* \"contracts/GeekNft.sol\":4179:4201  items[_tokenId].toSell */\n      0x04\n      add\n      0x00\n        /* \"contracts/GeekNft.sol\":4179:4208  items[_tokenId].toSell = true */\n      0x0100\n      exp\n      dup2\n      sload\n      dup2\n      0xff\n      mul\n      not\n      and\n      swap1\n      dup4\n      iszero\n      iszero\n      mul\n      or\n      swap1\n      sstore\n      pop\n        /* \"contracts/GeekNft.sol\":4241:4257  itemsToSellCount */\n      0x04\n      0x00\n        /* \"contracts/GeekNft.sol\":4241:4259  itemsToSellCount++ */\n      dup2\n      sload\n      dup1\n      swap3\n      swap2\n      swap1\n      0x01\n      add\n      swap2\n      swap1\n      pop\n      sstore\n      pop\n        /* \"contracts/GeekNft.sol\":4287:4292  owner */\n      0x02\n      0x00\n      swap1\n      sload\n      swap1\n      0x0100\n      exp\n      swap1\n      div\n      0xffffffffffffffffffffffffffffffffffffffff\n      and\n        /* \"contracts/GeekNft.sol\":4279:4302  payable(owner).transfer */\n      0xffffffffffffffffffffffffffffffffffffffff\n      and\n        /* \"contracts/GeekNft.sol\":4279:4313  payable(owner).transfer(msg.value) */\n      0x08fc\n        /* \"contracts/GeekNft.sol\":4303:4312  msg.value */\n      callvalue\n        /* \"contracts/GeekNft.sol\":4279:4313  payable(owner).transfer(msg.value) */\n      swap1\n      dup2\n      iszero\n      mul\n      swap1\n      mload(0x40)\n      0x00\n      mload(0x40)\n      dup1\n      dup4\n      sub\n      dup2\n      dup6\n      dup9\n      dup9\n      call\n      swap4\n      pop\n      pop\n      pop\n      pop\n      iszero\n      dup1\n      iszero\n      tag_206\n      jumpi\n      returndatasize\n      0x00\n      dup1\n      returndatacopy\n      revert(0x00, returndatasize)\n    tag_206:\n      pop\n        /* \"contracts/GeekNft.sol\":1138:1139  _ */\n      pop\n        /* \"contracts/GeekNft.sol\":3916:4320  function addItemToSell(uint _tokenId) public payable sendCorrectFeesValue onlyItemOwner(_tokenId) {... */\n      pop\n      jump\t// out\n        /* \"contracts/GeekNft.sol\":1152:1263  function updateCreateItemFees(uint _newFees) public onlyContractOwner{... */\n    tag_75:\n        /* \"contracts/GeekNft.sol\":797:802  owner */\n      0x02\n      0x00\n      swap1\n      sload\n      swap1\n      0x0100\n      exp\n      swap1\n      div\n      0xffffffffffffffffffffffffffffffffffffffff\n      and\n        /* \"contracts/GeekNft.sol\":783:802  msg.sender == owner */\n      0xffffffffffffffffffffffffffffffffffffffff\n      and\n        /* \"contracts/GeekNft.sol\":783:793  msg.sender */\n      caller\n        /* \"contracts/GeekNft.sol\":783:802  msg.sender == owner */\n      0xffffffffffffffffffffffffffffffffffffffff\n      and\n      eq\n        /* \"contracts/GeekNft.sol\":775:840  require(msg.sender == owner, \"Only contract's owner can do that\") */\n      tag_208\n      jumpi\n      mload(0x40)\n      0x08c379a000000000000000000000000000000000000000000000000000000000\n      dup2\n      mstore\n      0x04\n      add\n      tag_209\n      swap1\n      tag_112\n      jump\t// in\n    tag_209:\n      mload(0x40)\n      dup1\n      swap2\n      sub\n      swap1\n      revert\n    tag_208:\n        /* \"contracts/GeekNft.sol\":1248:1256  _newFees */\n      dup1\n        /* \"contracts/GeekNft.sol\":1231:1245  createItemFees */\n      0x05\n        /* \"contracts/GeekNft.sol\":1231:1256  createItemFees = _newFees */\n      dup2\n      swap1\n      sstore\n      pop\n        /* \"contracts/GeekNft.sol\":1152:1263  function updateCreateItemFees(uint _newFees) public onlyContractOwner{... */\n      pop\n      jump\t// out\n        /* \"contracts/GeekNft.sol\":5580:5802  function getFees(uint _price, uint _percentage) private pure returns (uint, uint){... */\n    tag_168:\n        /* \"contracts/GeekNft.sol\":5650:5654  uint */\n      0x00\n        /* \"contracts/GeekNft.sol\":5656:5660  uint */\n      dup1\n        /* \"contracts/GeekNft.sol\":5671:5680  uint fees */\n      0x00\n        /* \"contracts/GeekNft.sol\":5708:5711  100 */\n      0x64\n        /* \"contracts/GeekNft.sol\":5698:5704  _price */\n      dup6\n        /* \"contracts/GeekNft.sol\":5684:5695  _percentage */\n      dup6\n        /* \"contracts/GeekNft.sol\":5684:5704  _percentage * _price */\n      tag_212\n      swap2\n      swap1\n      tag_213\n      jump\t// in\n    tag_212:\n        /* \"contracts/GeekNft.sol\":5683:5711  (_percentage * _price) / 100 */\n      tag_214\n      swap2\n      swap1\n      tag_215\n      jump\t// in\n    tag_214:\n        /* \"contracts/GeekNft.sol\":5671:5711  uint fees = (_percentage * _price) / 100 */\n      swap1\n      pop\n        /* \"contracts/GeekNft.sol\":5721:5740  uint totalMinusFees */\n      0x00\n        /* \"contracts/GeekNft.sol\":5752:5756  fees */\n      dup2\n        /* \"contracts/GeekNft.sol\":5743:5749  _price */\n      dup7\n        /* \"contracts/GeekNft.sol\":5743:5756  _price - fees */\n      tag_216\n      swap2\n      swap1\n      tag_217\n      jump\t// in\n    tag_216:\n        /* \"contracts/GeekNft.sol\":5721:5756  uint totalMinusFees = _price - fees */\n      swap1\n      pop\n        /* \"contracts/GeekNft.sol\":5774:5778  fees */\n      dup2\n        /* \"contracts/GeekNft.sol\":5780:5794  totalMinusFees */\n      dup2\n        /* \"contracts/GeekNft.sol\":5766:5795  return (fees, totalMinusFees) */\n      swap4\n      pop\n      swap4\n      pop\n      pop\n      pop\n        /* \"contracts/GeekNft.sol\":5580:5802  function getFees(uint _price, uint _percentage) private pure returns (uint, uint){... */\n      swap3\n      pop\n      swap3\n      swap1\n      pop\n      jump\t// out\n    tag_95:\n      mload(0x40)\n      dup1\n      0xc0\n      add\n      0x40\n      mstore\n      dup1\n      0x00\n      dup2\n      mstore\n      0x20\n      add\n      0x00\n      dup2\n      mstore\n      0x20\n      add\n      0x00\n      dup2\n      mstore\n      0x20\n      add\n      0x00\n      dup2\n      mstore\n      0x20\n      add\n      iszero(iszero(0x00))\n      dup2\n      mstore\n      0x20\n      add\n      and(0xffffffffffffffffffffffffffffffffffffffff, 0x00)\n      dup2\n      mstore\n      pop\n      swap1\n      jump\t// out\n        /* \"#utility.yul\":7:146   */\n    tag_219:\n      0x00\n        /* \"#utility.yul\":91:97   */\n      dup2\n        /* \"#utility.yul\":78:98   */\n      calldataload\n        /* \"#utility.yul\":69:98   */\n      swap1\n      pop\n        /* \"#utility.yul\":107:140   */\n      tag_221\n        /* \"#utility.yul\":134:139   */\n      dup2\n        /* \"#utility.yul\":107:140   */\n      tag_222\n      jump\t// in\n    tag_221:\n        /* \"#utility.yul\":59:146   */\n      swap3\n      swap2\n      pop\n      pop\n      jump\t// out\n        /* \"#utility.yul\":152:291   */\n    tag_223:\n      0x00\n        /* \"#utility.yul\":236:242   */\n      dup2\n        /* \"#utility.yul\":223:243   */\n      calldataload\n        /* \"#utility.yul\":214:243   */\n      swap1\n      pop\n        /* \"#utility.yul\":252:285   */\n      tag_225\n        /* \"#utility.yul\":279:284   */\n      dup2\n        /* \"#utility.yul\":252:285   */\n      tag_226\n      jump\t// in\n    tag_225:\n        /* \"#utility.yul\":204:291   */\n      swap3\n      swap2\n      pop\n      pop\n      jump\t// out\n        /* \"#utility.yul\":297:559   */\n    tag_55:\n      0x00\n        /* \"#utility.yul\":405:407   */\n      0x20\n        /* \"#utility.yul\":393:402   */\n      dup3\n        /* \"#utility.yul\":384:391   */\n      dup5\n        /* \"#utility.yul\":380:403   */\n      sub\n        /* \"#utility.yul\":376:408   */\n      slt\n        /* \"#utility.yul\":373:375   */\n      iszero\n      tag_228\n      jumpi\n        /* \"#utility.yul\":421:422   */\n      0x00\n        /* \"#utility.yul\":418:419   */\n      dup1\n        /* \"#utility.yul\":411:423   */\n      revert\n        /* \"#utility.yul\":373:375   */\n    tag_228:\n        /* \"#utility.yul\":464:465   */\n      0x00\n        /* \"#utility.yul\":489:542   */\n      tag_229\n        /* \"#utility.yul\":534:541   */\n      dup5\n        /* \"#utility.yul\":525:531   */\n      dup3\n        /* \"#utility.yul\":514:523   */\n      dup6\n        /* \"#utility.yul\":510:532   */\n      add\n        /* \"#utility.yul\":489:542   */\n      tag_219\n      jump\t// in\n    tag_229:\n        /* \"#utility.yul\":479:542   */\n      swap2\n      pop\n        /* \"#utility.yul\":435:552   */\n      pop\n        /* \"#utility.yul\":363:559   */\n      swap3\n      swap2\n      pop\n      pop\n      jump\t// out\n        /* \"#utility.yul\":565:827   */\n    tag_35:\n      0x00\n        /* \"#utility.yul\":673:675   */\n      0x20\n        /* \"#utility.yul\":661:670   */\n      dup3\n        /* \"#utility.yul\":652:659   */\n      dup5\n        /* \"#utility.yul\":648:671   */\n      sub\n        /* \"#utility.yul\":644:676   */\n      slt\n        /* \"#utility.yul\":641:643   */\n      iszero\n      tag_231\n      jumpi\n        /* \"#utility.yul\":689:690   */\n      0x00\n        /* \"#utility.yul\":686:687   */\n      dup1\n        /* \"#utility.yul\":679:691   */\n      revert\n        /* \"#utility.yul\":641:643   */\n    tag_231:\n        /* \"#utility.yul\":732:733   */\n      0x00\n        /* \"#utility.yul\":757:810   */\n      tag_232\n        /* \"#utility.yul\":802:809   */\n      dup5\n        /* \"#utility.yul\":793:799   */\n      dup3\n        /* \"#utility.yul\":782:791   */\n      dup6\n        /* \"#utility.yul\":778:800   */\n      add\n        /* \"#utility.yul\":757:810   */\n      tag_223\n      jump\t// in\n    tag_232:\n        /* \"#utility.yul\":747:810   */\n      swap2\n      pop\n        /* \"#utility.yul\":703:820   */\n      pop\n        /* \"#utility.yul\":631:827   */\n      swap3\n      swap2\n      pop\n      pop\n      jump\t// out\n        /* \"#utility.yul\":833:1385   */\n    tag_19:\n      0x00\n      dup1\n      0x00\n        /* \"#utility.yul\":975:977   */\n      0x60\n        /* \"#utility.yul\":963:972   */\n      dup5\n        /* \"#utility.yul\":954:961   */\n      dup7\n        /* \"#utility.yul\":950:973   */\n      sub\n        /* \"#utility.yul\":946:978   */\n      slt\n        /* \"#utility.yul\":943:945   */\n      iszero\n      tag_234\n      jumpi\n        /* \"#utility.yul\":991:992   */\n      0x00\n        /* \"#utility.yul\":988:989   */\n      dup1\n        /* \"#utility.yul\":981:993   */\n      revert\n        /* \"#utility.yul\":943:945   */\n    tag_234:\n        /* \"#utility.yul\":1034:1035   */\n      0x00\n        /* \"#utility.yul\":1059:1112   */\n      tag_235\n        /* \"#utility.yul\":1104:1111   */\n      dup7\n        /* \"#utility.yul\":1095:1101   */\n      dup3\n        /* \"#utility.yul\":1084:1093   */\n      dup8\n        /* \"#utility.yul\":1080:1102   */\n      add\n        /* \"#utility.yul\":1059:1112   */\n      tag_223\n      jump\t// in\n    tag_235:\n        /* \"#utility.yul\":1049:1112   */\n      swap4\n      pop\n        /* \"#utility.yul\":1005:1122   */\n      pop\n        /* \"#utility.yul\":1161:1163   */\n      0x20\n        /* \"#utility.yul\":1187:1240   */\n      tag_236\n        /* \"#utility.yul\":1232:1239   */\n      dup7\n        /* \"#utility.yul\":1223:1229   */\n      dup3\n        /* \"#utility.yul\":1212:1221   */\n      dup8\n        /* \"#utility.yul\":1208:1230   */\n      add\n        /* \"#utility.yul\":1187:1240   */\n      tag_223\n      jump\t// in\n    tag_236:\n        /* \"#utility.yul\":1177:1240   */\n      swap3\n      pop\n        /* \"#utility.yul\":1132:1250   */\n      pop\n        /* \"#utility.yul\":1289:1291   */\n      0x40\n        /* \"#utility.yul\":1315:1368   */\n      tag_237\n        /* \"#utility.yul\":1360:1367   */\n      dup7\n        /* \"#utility.yul\":1351:1357   */\n      dup3\n        /* \"#utility.yul\":1340:1349   */\n      dup8\n        /* \"#utility.yul\":1336:1358   */\n      add\n        /* \"#utility.yul\":1315:1368   */\n      tag_223\n      jump\t// in\n    tag_237:\n        /* \"#utility.yul\":1305:1368   */\n      swap2\n      pop\n        /* \"#utility.yul\":1260:1378   */\n      pop\n        /* \"#utility.yul\":933:1385   */\n      swap3\n      pop\n      swap3\n      pop\n      swap3\n      jump\t// out\n        /* \"#utility.yul\":1391:1650   */\n    tag_238:\n      0x00\n        /* \"#utility.yul\":1521:1607   */\n      tag_240\n        /* \"#utility.yul\":1603:1606   */\n      dup4\n        /* \"#utility.yul\":1595:1601   */\n      dup4\n        /* \"#utility.yul\":1521:1607   */\n      tag_241\n      jump\t// in\n    tag_240:\n        /* \"#utility.yul\":1639:1643   */\n      0xc0\n        /* \"#utility.yul\":1634:1637   */\n      dup4\n        /* \"#utility.yul\":1630:1644   */\n      add\n        /* \"#utility.yul\":1616:1644   */\n      swap1\n      pop\n        /* \"#utility.yul\":1511:1650   */\n      swap3\n      swap2\n      pop\n      pop\n      jump\t// out\n        /* \"#utility.yul\":1656:1764   */\n    tag_242:\n        /* \"#utility.yul\":1733:1757   */\n      tag_244\n        /* \"#utility.yul\":1751:1756   */\n      dup2\n        /* \"#utility.yul\":1733:1757   */\n      tag_245\n      jump\t// in\n    tag_244:\n        /* \"#utility.yul\":1728:1731   */\n      dup3\n        /* \"#utility.yul\":1721:1758   */\n      mstore\n        /* \"#utility.yul\":1711:1764   */\n      pop\n      pop\n      jump\t// out\n        /* \"#utility.yul\":1770:1888   */\n    tag_246:\n        /* \"#utility.yul\":1857:1881   */\n      tag_248\n        /* \"#utility.yul\":1875:1880   */\n      dup2\n        /* \"#utility.yul\":1857:1881   */\n      tag_245\n      jump\t// in\n    tag_248:\n        /* \"#utility.yul\":1852:1855   */\n      dup3\n        /* \"#utility.yul\":1845:1882   */\n      mstore\n        /* \"#utility.yul\":1835:1888   */\n      pop\n      pop\n      jump\t// out\n        /* \"#utility.yul\":1948:2840   */\n    tag_249:\n      0x00\n        /* \"#utility.yul\":2136:2210   */\n      tag_251\n        /* \"#utility.yul\":2204:2209   */\n      dup3\n        /* \"#utility.yul\":2136:2210   */\n      tag_252\n      jump\t// in\n    tag_251:\n        /* \"#utility.yul\":2226:2332   */\n      tag_253\n        /* \"#utility.yul\":2325:2331   */\n      dup2\n        /* \"#utility.yul\":2320:2323   */\n      dup6\n        /* \"#utility.yul\":2226:2332   */\n      tag_254\n      jump\t// in\n    tag_253:\n        /* \"#utility.yul\":2219:2332   */\n      swap4\n      pop\n        /* \"#utility.yul\":2356:2432   */\n      tag_255\n        /* \"#utility.yul\":2426:2431   */\n      dup4\n        /* \"#utility.yul\":2356:2432   */\n      tag_256\n      jump\t// in\n    tag_255:\n        /* \"#utility.yul\":2455:2462   */\n      dup1\n        /* \"#utility.yul\":2486:2487   */\n      0x00\n        /* \"#utility.yul\":2471:2815   */\n    tag_257:\n        /* \"#utility.yul\":2496:2502   */\n      dup4\n        /* \"#utility.yul\":2493:2494   */\n      dup2\n        /* \"#utility.yul\":2490:2503   */\n      lt\n        /* \"#utility.yul\":2471:2815   */\n      iszero\n      tag_259\n      jumpi\n        /* \"#utility.yul\":2572:2578   */\n      dup2\n        /* \"#utility.yul\":2566:2579   */\n      mload\n        /* \"#utility.yul\":2599:2702   */\n      tag_260\n        /* \"#utility.yul\":2698:2701   */\n      dup9\n        /* \"#utility.yul\":2683:2696   */\n      dup3\n        /* \"#utility.yul\":2599:2702   */\n      tag_238\n      jump\t// in\n    tag_260:\n        /* \"#utility.yul\":2592:2702   */\n      swap8\n      pop\n        /* \"#utility.yul\":2725:2805   */\n      tag_261\n        /* \"#utility.yul\":2798:2804   */\n      dup4\n        /* \"#utility.yul\":2725:2805   */\n      tag_262\n      jump\t// in\n    tag_261:\n        /* \"#utility.yul\":2715:2805   */\n      swap3\n      pop\n        /* \"#utility.yul\":2531:2815   */\n      pop\n        /* \"#utility.yul\":2518:2519   */\n      0x01\n        /* \"#utility.yul\":2515:2516   */\n      dup2\n        /* \"#utility.yul\":2511:2520   */\n      add\n        /* \"#utility.yul\":2506:2520   */\n      swap1\n      pop\n        /* \"#utility.yul\":2471:2815   */\n      jump(tag_257)\n    tag_259:\n        /* \"#utility.yul\":2475:2489   */\n      pop\n        /* \"#utility.yul\":2831:2834   */\n      dup6\n        /* \"#utility.yul\":2824:2834   */\n      swap4\n      pop\n        /* \"#utility.yul\":2112:2840   */\n      pop\n      pop\n      pop\n      swap3\n      swap2\n      pop\n      pop\n      jump\t// out\n        /* \"#utility.yul\":2846:2945   */\n    tag_263:\n        /* \"#utility.yul\":2917:2938   */\n      tag_265\n        /* \"#utility.yul\":2932:2937   */\n      dup2\n        /* \"#utility.yul\":2917:2938   */\n      tag_266\n      jump\t// in\n    tag_265:\n        /* \"#utility.yul\":2912:2915   */\n      dup3\n        /* \"#utility.yul\":2905:2939   */\n      mstore\n        /* \"#utility.yul\":2895:2945   */\n      pop\n      pop\n      jump\t// out\n        /* \"#utility.yul\":2951:3317   */\n    tag_267:\n      0x00\n        /* \"#utility.yul\":3114:3181   */\n      tag_269\n        /* \"#utility.yul\":3178:3180   */\n      0x29\n        /* \"#utility.yul\":3173:3176   */\n      dup4\n        /* \"#utility.yul\":3114:3181   */\n      tag_270\n      jump\t// in\n    tag_269:\n        /* \"#utility.yul\":3107:3181   */\n      swap2\n      pop\n        /* \"#utility.yul\":3190:3283   */\n      tag_271\n        /* \"#utility.yul\":3279:3282   */\n      dup3\n        /* \"#utility.yul\":3190:3283   */\n      tag_272\n      jump\t// in\n    tag_271:\n        /* \"#utility.yul\":3308:3310   */\n      0x40\n        /* \"#utility.yul\":3303:3306   */\n      dup3\n        /* \"#utility.yul\":3299:3311   */\n      add\n        /* \"#utility.yul\":3292:3311   */\n      swap1\n      pop\n        /* \"#utility.yul\":3097:3317   */\n      swap2\n      swap1\n      pop\n      jump\t// out\n        /* \"#utility.yul\":3323:3689   */\n    tag_273:\n      0x00\n        /* \"#utility.yul\":3486:3553   */\n      tag_275\n        /* \"#utility.yul\":3550:3552   */\n      0x13\n        /* \"#utility.yul\":3545:3548   */\n      dup4\n        /* \"#utility.yul\":3486:3553   */\n      tag_270\n      jump\t// in\n    tag_275:\n        /* \"#utility.yul\":3479:3553   */\n      swap2\n      pop\n        /* \"#utility.yul\":3562:3655   */\n      tag_276\n        /* \"#utility.yul\":3651:3654   */\n      dup3\n        /* \"#utility.yul\":3562:3655   */\n      tag_277\n      jump\t// in\n    tag_276:\n        /* \"#utility.yul\":3680:3682   */\n      0x20\n        /* \"#utility.yul\":3675:3678   */\n      dup3\n        /* \"#utility.yul\":3671:3683   */\n      add\n        /* \"#utility.yul\":3664:3683   */\n      swap1\n      pop\n        /* \"#utility.yul\":3469:3689   */\n      swap2\n      swap1\n      pop\n      jump\t// out\n        /* \"#utility.yul\":3695:4061   */\n    tag_278:\n      0x00\n        /* \"#utility.yul\":3858:3925   */\n      tag_280\n        /* \"#utility.yul\":3922:3924   */\n      0x13\n        /* \"#utility.yul\":3917:3920   */\n      dup4\n        /* \"#utility.yul\":3858:3925   */\n      tag_270\n      jump\t// in\n    tag_280:\n        /* \"#utility.yul\":3851:3925   */\n      swap2\n      pop\n        /* \"#utility.yul\":3934:4027   */\n      tag_281\n        /* \"#utility.yul\":4023:4026   */\n      dup3\n        /* \"#utility.yul\":3934:4027   */\n      tag_282\n      jump\t// in\n    tag_281:\n        /* \"#utility.yul\":4052:4054   */\n      0x20\n        /* \"#utility.yul\":4047:4050   */\n      dup3\n        /* \"#utility.yul\":4043:4055   */\n      add\n        /* \"#utility.yul\":4036:4055   */\n      swap1\n      pop\n        /* \"#utility.yul\":3841:4061   */\n      swap2\n      swap1\n      pop\n      jump\t// out\n        /* \"#utility.yul\":4067:4433   */\n    tag_283:\n      0x00\n        /* \"#utility.yul\":4230:4297   */\n      tag_285\n        /* \"#utility.yul\":4294:4296   */\n      0x35\n        /* \"#utility.yul\":4289:4292   */\n      dup4\n        /* \"#utility.yul\":4230:4297   */\n      tag_270\n      jump\t// in\n    tag_285:\n        /* \"#utility.yul\":4223:4297   */\n      swap2\n      pop\n        /* \"#utility.yul\":4306:4399   */\n      tag_286\n        /* \"#utility.yul\":4395:4398   */\n      dup3\n        /* \"#utility.yul\":4306:4399   */\n      tag_287\n      jump\t// in\n    tag_286:\n        /* \"#utility.yul\":4424:4426   */\n      0x40\n        /* \"#utility.yul\":4419:4422   */\n      dup3\n        /* \"#utility.yul\":4415:4427   */\n      add\n        /* \"#utility.yul\":4408:4427   */\n      swap1\n      pop\n        /* \"#utility.yul\":4213:4433   */\n      swap2\n      swap1\n      pop\n      jump\t// out\n        /* \"#utility.yul\":4439:4805   */\n    tag_288:\n      0x00\n        /* \"#utility.yul\":4602:4669   */\n      tag_290\n        /* \"#utility.yul\":4666:4668   */\n      0x13\n        /* \"#utility.yul\":4661:4664   */\n      dup4\n        /* \"#utility.yul\":4602:4669   */\n      tag_270\n      jump\t// in\n    tag_290:\n        /* \"#utility.yul\":4595:4669   */\n      swap2\n      pop\n        /* \"#utility.yul\":4678:4771   */\n      tag_291\n        /* \"#utility.yul\":4767:4770   */\n      dup3\n        /* \"#utility.yul\":4678:4771   */\n      tag_292\n      jump\t// in\n    tag_291:\n        /* \"#utility.yul\":4796:4798   */\n      0x20\n        /* \"#utility.yul\":4791:4794   */\n      dup3\n        /* \"#utility.yul\":4787:4799   */\n      add\n        /* \"#utility.yul\":4780:4799   */\n      swap1\n      pop\n        /* \"#utility.yul\":4585:4805   */\n      swap2\n      swap1\n      pop\n      jump\t// out\n        /* \"#utility.yul\":4811:5177   */\n    tag_293:\n      0x00\n        /* \"#utility.yul\":4974:5041   */\n      tag_295\n        /* \"#utility.yul\":5038:5040   */\n      0x1d\n        /* \"#utility.yul\":5033:5036   */\n      dup4\n        /* \"#utility.yul\":4974:5041   */\n      tag_270\n      jump\t// in\n    tag_295:\n        /* \"#utility.yul\":4967:5041   */\n      swap2\n      pop\n        /* \"#utility.yul\":5050:5143   */\n      tag_296\n        /* \"#utility.yul\":5139:5142   */\n      dup3\n        /* \"#utility.yul\":5050:5143   */\n      tag_297\n      jump\t// in\n    tag_296:\n        /* \"#utility.yul\":5168:5170   */\n      0x20\n        /* \"#utility.yul\":5163:5166   */\n      dup3\n        /* \"#utility.yul\":5159:5171   */\n      add\n        /* \"#utility.yul\":5152:5171   */\n      swap1\n      pop\n        /* \"#utility.yul\":4957:5177   */\n      swap2\n      swap1\n      pop\n      jump\t// out\n        /* \"#utility.yul\":5183:5549   */\n    tag_298:\n      0x00\n        /* \"#utility.yul\":5346:5413   */\n      tag_300\n        /* \"#utility.yul\":5410:5412   */\n      0x18\n        /* \"#utility.yul\":5405:5408   */\n      dup4\n        /* \"#utility.yul\":5346:5413   */\n      tag_270\n      jump\t// in\n    tag_300:\n        /* \"#utility.yul\":5339:5413   */\n      swap2\n      pop\n        /* \"#utility.yul\":5422:5515   */\n      tag_301\n        /* \"#utility.yul\":5511:5514   */\n      dup3\n        /* \"#utility.yul\":5422:5515   */\n      tag_302\n      jump\t// in\n    tag_301:\n        /* \"#utility.yul\":5540:5542   */\n      0x20\n        /* \"#utility.yul\":5535:5538   */\n      dup3\n        /* \"#utility.yul\":5531:5543   */\n      add\n        /* \"#utility.yul\":5524:5543   */\n      swap1\n      pop\n        /* \"#utility.yul\":5329:5549   */\n      swap2\n      swap1\n      pop\n      jump\t// out\n        /* \"#utility.yul\":5555:5921   */\n    tag_303:\n      0x00\n        /* \"#utility.yul\":5718:5785   */\n      tag_305\n        /* \"#utility.yul\":5782:5784   */\n      0x21\n        /* \"#utility.yul\":5777:5780   */\n      dup4\n        /* \"#utility.yul\":5718:5785   */\n      tag_270\n      jump\t// in\n    tag_305:\n        /* \"#utility.yul\":5711:5785   */\n      swap2\n      pop\n        /* \"#utility.yul\":5794:5887   */\n      tag_306\n        /* \"#utility.yul\":5883:5886   */\n      dup3\n        /* \"#utility.yul\":5794:5887   */\n      tag_307\n      jump\t// in\n    tag_306:\n        /* \"#utility.yul\":5912:5914   */\n      0x40\n        /* \"#utility.yul\":5907:5910   */\n      dup3\n        /* \"#utility.yul\":5903:5915   */\n      add\n        /* \"#utility.yul\":5896:5915   */\n      swap1\n      pop\n        /* \"#utility.yul\":5701:5921   */\n      swap2\n      swap1\n      pop\n      jump\t// out\n        /* \"#utility.yul\":5927:6293   */\n    tag_308:\n      0x00\n        /* \"#utility.yul\":6090:6157   */\n      tag_310\n        /* \"#utility.yul\":6154:6156   */\n      0x21\n        /* \"#utility.yul\":6149:6152   */\n      dup4\n        /* \"#utility.yul\":6090:6157   */\n      tag_270\n      jump\t// in\n    tag_310:\n        /* \"#utility.yul\":6083:6157   */\n      swap2\n      pop\n        /* \"#utility.yul\":6166:6259   */\n      tag_311\n        /* \"#utility.yul\":6255:6258   */\n      dup3\n        /* \"#utility.yul\":6166:6259   */\n      tag_312\n      jump\t// in\n    tag_311:\n        /* \"#utility.yul\":6284:6286   */\n      0x40\n        /* \"#utility.yul\":6279:6282   */\n      dup3\n        /* \"#utility.yul\":6275:6287   */\n      add\n        /* \"#utility.yul\":6268:6287   */\n      swap1\n      pop\n        /* \"#utility.yul\":6073:6293   */\n      swap2\n      swap1\n      pop\n      jump\t// out\n        /* \"#utility.yul\":6299:6665   */\n    tag_313:\n      0x00\n        /* \"#utility.yul\":6462:6529   */\n      tag_315\n        /* \"#utility.yul\":6526:6528   */\n      0x1a\n        /* \"#utility.yul\":6521:6524   */\n      dup4\n        /* \"#utility.yul\":6462:6529   */\n      tag_270\n      jump\t// in\n    tag_315:\n        /* \"#utility.yul\":6455:6529   */\n      swap2\n      pop\n        /* \"#utility.yul\":6538:6631   */\n      tag_316\n        /* \"#utility.yul\":6627:6630   */\n      dup3\n        /* \"#utility.yul\":6538:6631   */\n      tag_317\n      jump\t// in\n    tag_316:\n        /* \"#utility.yul\":6656:6658   */\n      0x20\n        /* \"#utility.yul\":6651:6654   */\n      dup3\n        /* \"#utility.yul\":6647:6659   */\n      add\n        /* \"#utility.yul\":6640:6659   */\n      swap1\n      pop\n        /* \"#utility.yul\":6445:6665   */\n      swap2\n      swap1\n      pop\n      jump\t// out\n        /* \"#utility.yul\":6721:7910   */\n    tag_241:\n        /* \"#utility.yul\":6848:6852   */\n      0xc0\n        /* \"#utility.yul\":6843:6846   */\n      dup3\n        /* \"#utility.yul\":6839:6853   */\n      add\n        /* \"#utility.yul\":6937:6941   */\n      0x00\n        /* \"#utility.yul\":6930:6935   */\n      dup3\n        /* \"#utility.yul\":6926:6942   */\n      add\n        /* \"#utility.yul\":6920:6943   */\n      mload\n        /* \"#utility.yul\":6956:7019   */\n      tag_319\n        /* \"#utility.yul\":7013:7017   */\n      0x00\n        /* \"#utility.yul\":7008:7011   */\n      dup6\n        /* \"#utility.yul\":7004:7018   */\n      add\n        /* \"#utility.yul\":6990:7002   */\n      dup3\n        /* \"#utility.yul\":6956:7019   */\n      tag_320\n      jump\t// in\n    tag_319:\n        /* \"#utility.yul\":6863:7029   */\n      pop\n        /* \"#utility.yul\":7114:7118   */\n      0x20\n        /* \"#utility.yul\":7107:7112   */\n      dup3\n        /* \"#utility.yul\":7103:7119   */\n      add\n        /* \"#utility.yul\":7097:7120   */\n      mload\n        /* \"#utility.yul\":7133:7196   */\n      tag_321\n        /* \"#utility.yul\":7190:7194   */\n      0x20\n        /* \"#utility.yul\":7185:7188   */\n      dup6\n        /* \"#utility.yul\":7181:7195   */\n      add\n        /* \"#utility.yul\":7167:7179   */\n      dup3\n        /* \"#utility.yul\":7133:7196   */\n      tag_320\n      jump\t// in\n    tag_321:\n        /* \"#utility.yul\":7039:7206   */\n      pop\n        /* \"#utility.yul\":7289:7293   */\n      0x40\n        /* \"#utility.yul\":7282:7287   */\n      dup3\n        /* \"#utility.yul\":7278:7294   */\n      add\n        /* \"#utility.yul\":7272:7295   */\n      mload\n        /* \"#utility.yul\":7308:7371   */\n      tag_322\n        /* \"#utility.yul\":7365:7369   */\n      0x40\n        /* \"#utility.yul\":7360:7363   */\n      dup6\n        /* \"#utility.yul\":7356:7370   */\n      add\n        /* \"#utility.yul\":7342:7354   */\n      dup3\n        /* \"#utility.yul\":7308:7371   */\n      tag_320\n      jump\t// in\n    tag_322:\n        /* \"#utility.yul\":7216:7381   */\n      pop\n        /* \"#utility.yul\":7464:7468   */\n      0x60\n        /* \"#utility.yul\":7457:7462   */\n      dup3\n        /* \"#utility.yul\":7453:7469   */\n      add\n        /* \"#utility.yul\":7447:7470   */\n      mload\n        /* \"#utility.yul\":7483:7546   */\n      tag_323\n        /* \"#utility.yul\":7540:7544   */\n      0x60\n        /* \"#utility.yul\":7535:7538   */\n      dup6\n        /* \"#utility.yul\":7531:7545   */\n      add\n        /* \"#utility.yul\":7517:7529   */\n      dup3\n        /* \"#utility.yul\":7483:7546   */\n      tag_320\n      jump\t// in\n    tag_323:\n        /* \"#utility.yul\":7391:7556   */\n      pop\n        /* \"#utility.yul\":7640:7644   */\n      0x80\n        /* \"#utility.yul\":7633:7638   */\n      dup3\n        /* \"#utility.yul\":7629:7645   */\n      add\n        /* \"#utility.yul\":7623:7646   */\n      mload\n        /* \"#utility.yul\":7659:7716   */\n      tag_324\n        /* \"#utility.yul\":7710:7714   */\n      0x80\n        /* \"#utility.yul\":7705:7708   */\n      dup6\n        /* \"#utility.yul\":7701:7715   */\n      add\n        /* \"#utility.yul\":7687:7699   */\n      dup3\n        /* \"#utility.yul\":7659:7716   */\n      tag_263\n      jump\t// in\n    tag_324:\n        /* \"#utility.yul\":7566:7726   */\n      pop\n        /* \"#utility.yul\":7811:7815   */\n      0xa0\n        /* \"#utility.yul\":7804:7809   */\n      dup3\n        /* \"#utility.yul\":7800:7816   */\n      add\n        /* \"#utility.yul\":7794:7817   */\n      mload\n        /* \"#utility.yul\":7830:7893   */\n      tag_325\n        /* \"#utility.yul\":7887:7891   */\n      0xa0\n        /* \"#utility.yul\":7882:7885   */\n      dup6\n        /* \"#utility.yul\":7878:7892   */\n      add\n        /* \"#utility.yul\":7864:7876   */\n      dup3\n        /* \"#utility.yul\":7830:7893   */\n      tag_242\n      jump\t// in\n    tag_325:\n        /* \"#utility.yul\":7736:7903   */\n      pop\n        /* \"#utility.yul\":6817:7910   */\n      pop\n      pop\n      pop\n      jump\t// out\n        /* \"#utility.yul\":7916:8024   */\n    tag_320:\n        /* \"#utility.yul\":7993:8017   */\n      tag_327\n        /* \"#utility.yul\":8011:8016   */\n      dup2\n        /* \"#utility.yul\":7993:8017   */\n      tag_328\n      jump\t// in\n    tag_327:\n        /* \"#utility.yul\":7988:7991   */\n      dup3\n        /* \"#utility.yul\":7981:8018   */\n      mstore\n        /* \"#utility.yul\":7971:8024   */\n      pop\n      pop\n      jump\t// out\n        /* \"#utility.yul\":8030:8148   */\n    tag_329:\n        /* \"#utility.yul\":8117:8141   */\n      tag_331\n        /* \"#utility.yul\":8135:8140   */\n      dup2\n        /* \"#utility.yul\":8117:8141   */\n      tag_328\n      jump\t// in\n    tag_331:\n        /* \"#utility.yul\":8112:8115   */\n      dup3\n        /* \"#utility.yul\":8105:8142   */\n      mstore\n        /* \"#utility.yul\":8095:8148   */\n      pop\n      pop\n      jump\t// out\n        /* \"#utility.yul\":8154:8376   */\n    tag_51:\n      0x00\n        /* \"#utility.yul\":8285:8287   */\n      0x20\n        /* \"#utility.yul\":8274:8283   */\n      dup3\n        /* \"#utility.yul\":8270:8288   */\n      add\n        /* \"#utility.yul\":8262:8288   */\n      swap1\n      pop\n        /* \"#utility.yul\":8298:8369   */\n      tag_333\n        /* \"#utility.yul\":8366:8367   */\n      0x00\n        /* \"#utility.yul\":8355:8364   */\n      dup4\n        /* \"#utility.yul\":8351:8368   */\n      add\n        /* \"#utility.yul\":8342:8348   */\n      dup5\n        /* \"#utility.yul\":8298:8369   */\n      tag_246\n      jump\t// in\n    tag_333:\n        /* \"#utility.yul\":8252:8376   */\n      swap3\n      swap2\n      pop\n      pop\n      jump\t// out\n        /* \"#utility.yul\":8382:8835   */\n    tag_27:\n      0x00\n        /* \"#utility.yul\":8603:8605   */\n      0x20\n        /* \"#utility.yul\":8592:8601   */\n      dup3\n        /* \"#utility.yul\":8588:8606   */\n      add\n        /* \"#utility.yul\":8580:8606   */\n      swap1\n      pop\n        /* \"#utility.yul\":8652:8661   */\n      dup2\n        /* \"#utility.yul\":8646:8650   */\n      dup2\n        /* \"#utility.yul\":8642:8662   */\n      sub\n        /* \"#utility.yul\":8638:8639   */\n      0x00\n        /* \"#utility.yul\":8627:8636   */\n      dup4\n        /* \"#utility.yul\":8623:8640   */\n      add\n        /* \"#utility.yul\":8616:8663   */\n      mstore\n        /* \"#utility.yul\":8680:8828   */\n      tag_335\n        /* \"#utility.yul\":8823:8827   */\n      dup2\n        /* \"#utility.yul\":8814:8820   */\n      dup5\n        /* \"#utility.yul\":8680:8828   */\n      tag_249\n      jump\t// in\n    tag_335:\n        /* \"#utility.yul\":8672:8828   */\n      swap1\n      pop\n        /* \"#utility.yul\":8570:8835   */\n      swap3\n      swap2\n      pop\n      pop\n      jump\t// out\n        /* \"#utility.yul\":8841:9260   */\n    tag_160:\n      0x00\n        /* \"#utility.yul\":9045:9047   */\n      0x20\n        /* \"#utility.yul\":9034:9043   */\n      dup3\n        /* \"#utility.yul\":9030:9048   */\n      add\n        /* \"#utility.yul\":9022:9048   */\n      swap1\n      pop\n        /* \"#utility.yul\":9094:9103   */\n      dup2\n        /* \"#utility.yul\":9088:9092   */\n      dup2\n        /* \"#utility.yul\":9084:9104   */\n      sub\n        /* \"#utility.yul\":9080:9081   */\n      0x00\n        /* \"#utility.yul\":9069:9078   */\n      dup4\n        /* \"#utility.yul\":9065:9082   */\n      add\n        /* \"#utility.yul\":9058:9105   */\n      mstore\n        /* \"#utility.yul\":9122:9253   */\n      tag_337\n        /* \"#utility.yul\":9248:9252   */\n      dup2\n        /* \"#utility.yul\":9122:9253   */\n      tag_267\n      jump\t// in\n    tag_337:\n        /* \"#utility.yul\":9114:9253   */\n      swap1\n      pop\n        /* \"#utility.yul\":9012:9260   */\n      swap2\n      swap1\n      pop\n      jump\t// out\n        /* \"#utility.yul\":9266:9685   */\n    tag_186:\n      0x00\n        /* \"#utility.yul\":9470:9472   */\n      0x20\n        /* \"#utility.yul\":9459:9468   */\n      dup3\n        /* \"#utility.yul\":9455:9473   */\n      add\n        /* \"#utility.yul\":9447:9473   */\n      swap1\n      pop\n        /* \"#utility.yul\":9519:9528   */\n      dup2\n        /* \"#utility.yul\":9513:9517   */\n      dup2\n        /* \"#utility.yul\":9509:9529   */\n      sub\n        /* \"#utility.yul\":9505:9506   */\n      0x00\n        /* \"#utility.yul\":9494:9503   */\n      dup4\n        /* \"#utility.yul\":9490:9507   */\n      add\n        /* \"#utility.yul\":9483:9530   */\n      mstore\n        /* \"#utility.yul\":9547:9678   */\n      tag_339\n        /* \"#utility.yul\":9673:9677   */\n      dup2\n        /* \"#utility.yul\":9547:9678   */\n      tag_273\n      jump\t// in\n    tag_339:\n        /* \"#utility.yul\":9539:9678   */\n      swap1\n      pop\n        /* \"#utility.yul\":9437:9685   */\n      swap2\n      swap1\n      pop\n      jump\t// out\n        /* \"#utility.yul\":9691:10110   */\n    tag_86:\n      0x00\n        /* \"#utility.yul\":9895:9897   */\n      0x20\n        /* \"#utility.yul\":9884:9893   */\n      dup3\n        /* \"#utility.yul\":9880:9898   */\n      add\n        /* \"#utility.yul\":9872:9898   */\n      swap1\n      pop\n        /* \"#utility.yul\":9944:9953   */\n      dup2\n        /* \"#utility.yul\":9938:9942   */\n      dup2\n        /* \"#utility.yul\":9934:9954   */\n      sub\n        /* \"#utility.yul\":9930:9931   */\n      0x00\n        /* \"#utility.yul\":9919:9928   */\n      dup4\n        /* \"#utility.yul\":9915:9932   */\n      add\n        /* \"#utility.yul\":9908:9955   */\n      mstore\n        /* \"#utility.yul\":9972:10103   */\n      tag_341\n        /* \"#utility.yul\":10098:10102   */\n      dup2\n        /* \"#utility.yul\":9972:10103   */\n      tag_278\n      jump\t// in\n    tag_341:\n        /* \"#utility.yul\":9964:10103   */\n      swap1\n      pop\n        /* \"#utility.yul\":9862:10110   */\n      swap2\n      swap1\n      pop\n      jump\t// out\n        /* \"#utility.yul\":10116:10535   */\n    tag_154:\n      0x00\n        /* \"#utility.yul\":10320:10322   */\n      0x20\n        /* \"#utility.yul\":10309:10318   */\n      dup3\n        /* \"#utility.yul\":10305:10323   */\n      add\n        /* \"#utility.yul\":10297:10323   */\n      swap1\n      pop\n        /* \"#utility.yul\":10369:10378   */\n      dup2\n        /* \"#utility.yul\":10363:10367   */\n      dup2\n        /* \"#utility.yul\":10359:10379   */\n      sub\n        /* \"#utility.yul\":10355:10356   */\n      0x00\n        /* \"#utility.yul\":10344:10353   */\n      dup4\n        /* \"#utility.yul\":10340:10357   */\n      add\n        /* \"#utility.yul\":10333:10380   */\n      mstore\n        /* \"#utility.yul\":10397:10528   */\n      tag_343\n        /* \"#utility.yul\":10523:10527   */\n      dup2\n        /* \"#utility.yul\":10397:10528   */\n      tag_283\n      jump\t// in\n    tag_343:\n        /* \"#utility.yul\":10389:10528   */\n      swap1\n      pop\n        /* \"#utility.yul\":10287:10535   */\n      swap2\n      swap1\n      pop\n      jump\t// out\n        /* \"#utility.yul\":10541:10960   */\n    tag_157:\n      0x00\n        /* \"#utility.yul\":10745:10747   */\n      0x20\n        /* \"#utility.yul\":10734:10743   */\n      dup3\n        /* \"#utility.yul\":10730:10748   */\n      add\n        /* \"#utility.yul\":10722:10748   */\n      swap1\n      pop\n        /* \"#utility.yul\":10794:10803   */\n      dup2\n        /* \"#utility.yul\":10788:10792   */\n      dup2\n        /* \"#utility.yul\":10784:10804   */\n      sub\n        /* \"#utility.yul\":10780:10781   */\n      0x00\n        /* \"#utility.yul\":10769:10778   */\n      dup4\n        /* \"#utility.yul\":10765:10782   */\n      add\n        /* \"#utility.yul\":10758:10805   */\n      mstore\n        /* \"#utility.yul\":10822:10953   */\n      tag_345\n        /* \"#utility.yul\":10948:10952   */\n      dup2\n        /* \"#utility.yul\":10822:10953   */\n      tag_288\n      jump\t// in\n    tag_345:\n        /* \"#utility.yul\":10814:10953   */\n      swap1\n      pop\n        /* \"#utility.yul\":10712:10960   */\n      swap2\n      swap1\n      pop\n      jump\t// out\n        /* \"#utility.yul\":10966:11385   */\n    tag_178:\n      0x00\n        /* \"#utility.yul\":11170:11172   */\n      0x20\n        /* \"#utility.yul\":11159:11168   */\n      dup3\n        /* \"#utility.yul\":11155:11173   */\n      add\n        /* \"#utility.yul\":11147:11173   */\n      swap1\n      pop\n        /* \"#utility.yul\":11219:11228   */\n      dup2\n        /* \"#utility.yul\":11213:11217   */\n      dup2\n        /* \"#utility.yul\":11209:11229   */\n      sub\n        /* \"#utility.yul\":11205:11206   */\n      0x00\n        /* \"#utility.yul\":11194:11203   */\n      dup4\n        /* \"#utility.yul\":11190:11207   */\n      add\n        /* \"#utility.yul\":11183:11230   */\n      mstore\n        /* \"#utility.yul\":11247:11378   */\n      tag_347\n        /* \"#utility.yul\":11373:11377   */\n      dup2\n        /* \"#utility.yul\":11247:11378   */\n      tag_293\n      jump\t// in\n    tag_347:\n        /* \"#utility.yul\":11239:11378   */\n      swap1\n      pop\n        /* \"#utility.yul\":11137:11385   */\n      swap2\n      swap1\n      pop\n      jump\t// out\n        /* \"#utility.yul\":11391:11810   */\n    tag_202:\n      0x00\n        /* \"#utility.yul\":11595:11597   */\n      0x20\n        /* \"#utility.yul\":11584:11593   */\n      dup3\n        /* \"#utility.yul\":11580:11598   */\n      add\n        /* \"#utility.yul\":11572:11598   */\n      swap1\n      pop\n        /* \"#utility.yul\":11644:11653   */\n      dup2\n        /* \"#utility.yul\":11638:11642   */\n      dup2\n        /* \"#utility.yul\":11634:11654   */\n      sub\n        /* \"#utility.yul\":11630:11631   */\n      0x00\n        /* \"#utility.yul\":11619:11628   */\n      dup4\n        /* \"#utility.yul\":11615:11632   */\n      add\n        /* \"#utility.yul\":11608:11655   */\n      mstore\n        /* \"#utility.yul\":11672:11803   */\n      tag_349\n        /* \"#utility.yul\":11798:11802   */\n      dup2\n        /* \"#utility.yul\":11672:11803   */\n      tag_298\n      jump\t// in\n    tag_349:\n        /* \"#utility.yul\":11664:11803   */\n      swap1\n      pop\n        /* \"#utility.yul\":11562:11810   */\n      swap2\n      swap1\n      pop\n      jump\t// out\n        /* \"#utility.yul\":11816:12235   */\n    tag_79:\n      0x00\n        /* \"#utility.yul\":12020:12022   */\n      0x20\n        /* \"#utility.yul\":12009:12018   */\n      dup3\n        /* \"#utility.yul\":12005:12023   */\n      add\n        /* \"#utility.yul\":11997:12023   */\n      swap1\n      pop\n        /* \"#utility.yul\":12069:12078   */\n      dup2\n        /* \"#utility.yul\":12063:12067   */\n      dup2\n        /* \"#utility.yul\":12059:12079   */\n      sub\n        /* \"#utility.yul\":12055:12056   */\n      0x00\n        /* \"#utility.yul\":12044:12053   */\n      dup4\n        /* \"#utility.yul\":12040:12057   */\n      add\n        /* \"#utility.yul\":12033:12080   */\n      mstore\n        /* \"#utility.yul\":12097:12228   */\n      tag_351\n        /* \"#utility.yul\":12223:12227   */\n      dup2\n        /* \"#utility.yul\":12097:12228   */\n      tag_303\n      jump\t// in\n    tag_351:\n        /* \"#utility.yul\":12089:12228   */\n      swap1\n      pop\n        /* \"#utility.yul\":11987:12235   */\n      swap2\n      swap1\n      pop\n      jump\t// out\n        /* \"#utility.yul\":12241:12660   */\n    tag_112:\n      0x00\n        /* \"#utility.yul\":12445:12447   */\n      0x20\n        /* \"#utility.yul\":12434:12443   */\n      dup3\n        /* \"#utility.yul\":12430:12448   */\n      add\n        /* \"#utility.yul\":12422:12448   */\n      swap1\n      pop\n        /* \"#utility.yul\":12494:12503   */\n      dup2\n        /* \"#utility.yul\":12488:12492   */\n      dup2\n        /* \"#utility.yul\":12484:12504   */\n      sub\n        /* \"#utility.yul\":12480:12481   */\n      0x00\n        /* \"#utility.yul\":12469:12478   */\n      dup4\n        /* \"#utility.yul\":12465:12482   */\n      add\n        /* \"#utility.yul\":12458:12505   */\n      mstore\n        /* \"#utility.yul\":12522:12653   */\n      tag_353\n        /* \"#utility.yul\":12648:12652   */\n      dup2\n        /* \"#utility.yul\":12522:12653   */\n      tag_308\n      jump\t// in\n    tag_353:\n        /* \"#utility.yul\":12514:12653   */\n      swap1\n      pop\n        /* \"#utility.yul\":12412:12660   */\n      swap2\n      swap1\n      pop\n      jump\t// out\n        /* \"#utility.yul\":12666:13085   */\n    tag_83:\n      0x00\n        /* \"#utility.yul\":12870:12872   */\n      0x20\n        /* \"#utility.yul\":12859:12868   */\n      dup3\n        /* \"#utility.yul\":12855:12873   */\n      add\n        /* \"#utility.yul\":12847:12873   */\n      swap1\n      pop\n        /* \"#utility.yul\":12919:12928   */\n      dup2\n        /* \"#utility.yul\":12913:12917   */\n      dup2\n        /* \"#utility.yul\":12909:12929   */\n      sub\n        /* \"#utility.yul\":12905:12906   */\n      0x00\n        /* \"#utility.yul\":12894:12903   */\n      dup4\n        /* \"#utility.yul\":12890:12907   */\n      add\n        /* \"#utility.yul\":12883:12930   */\n      mstore\n        /* \"#utility.yul\":12947:13078   */\n      tag_355\n        /* \"#utility.yul\":13073:13077   */\n      dup2\n        /* \"#utility.yul\":12947:13078   */\n      tag_313\n      jump\t// in\n    tag_355:\n        /* \"#utility.yul\":12939:13078   */\n      swap1\n      pop\n        /* \"#utility.yul\":12837:13085   */\n      swap2\n      swap1\n      pop\n      jump\t// out\n        /* \"#utility.yul\":13091:13313   */\n    tag_22:\n      0x00\n        /* \"#utility.yul\":13222:13224   */\n      0x20\n        /* \"#utility.yul\":13211:13220   */\n      dup3\n        /* \"#utility.yul\":13207:13225   */\n      add\n        /* \"#utility.yul\":13199:13225   */\n      swap1\n      pop\n        /* \"#utility.yul\":13235:13306   */\n      tag_357\n        /* \"#utility.yul\":13303:13304   */\n      0x00\n        /* \"#utility.yul\":13292:13301   */\n      dup4\n        /* \"#utility.yul\":13288:13305   */\n      add\n        /* \"#utility.yul\":13279:13285   */\n      dup5\n        /* \"#utility.yul\":13235:13306   */\n      tag_329\n      jump\t// in\n    tag_357:\n        /* \"#utility.yul\":13189:13313   */\n      swap3\n      swap2\n      pop\n      pop\n      jump\t// out\n        /* \"#utility.yul\":13319:13471   */\n    tag_256:\n      0x00\n        /* \"#utility.yul\":13429:13432   */\n      dup2\n        /* \"#utility.yul\":13421:13432   */\n      swap1\n      pop\n        /* \"#utility.yul\":13459:13463   */\n      0x20\n        /* \"#utility.yul\":13454:13457   */\n      dup3\n        /* \"#utility.yul\":13450:13464   */\n      add\n        /* \"#utility.yul\":13442:13464   */\n      swap1\n      pop\n        /* \"#utility.yul\":13411:13471   */\n      swap2\n      swap1\n      pop\n      jump\t// out\n        /* \"#utility.yul\":13477:13611   */\n    tag_252:\n      0x00\n        /* \"#utility.yul\":13598:13603   */\n      dup2\n        /* \"#utility.yul\":13592:13604   */\n      mload\n        /* \"#utility.yul\":13582:13604   */\n      swap1\n      pop\n        /* \"#utility.yul\":13571:13611   */\n      swap2\n      swap1\n      pop\n      jump\t// out\n        /* \"#utility.yul\":13617:13750   */\n    tag_262:\n      0x00\n        /* \"#utility.yul\":13739:13743   */\n      0x20\n        /* \"#utility.yul\":13734:13737   */\n      dup3\n        /* \"#utility.yul\":13730:13744   */\n      add\n        /* \"#utility.yul\":13722:13744   */\n      swap1\n      pop\n        /* \"#utility.yul\":13712:13750   */\n      swap2\n      swap1\n      pop\n      jump\t// out\n        /* \"#utility.yul\":13756:13960   */\n    tag_254:\n      0x00\n        /* \"#utility.yul\":13909:13915   */\n      dup3\n        /* \"#utility.yul\":13904:13907   */\n      dup3\n        /* \"#utility.yul\":13897:13916   */\n      mstore\n        /* \"#utility.yul\":13949:13953   */\n      0x20\n        /* \"#utility.yul\":13944:13947   */\n      dup3\n        /* \"#utility.yul\":13940:13954   */\n      add\n        /* \"#utility.yul\":13925:13954   */\n      swap1\n      pop\n        /* \"#utility.yul\":13887:13960   */\n      swap3\n      swap2\n      pop\n      pop\n      jump\t// out\n        /* \"#utility.yul\":13966:14135   */\n    tag_270:\n      0x00\n        /* \"#utility.yul\":14084:14090   */\n      dup3\n        /* \"#utility.yul\":14079:14082   */\n      dup3\n        /* \"#utility.yul\":14072:14091   */\n      mstore\n        /* \"#utility.yul\":14124:14128   */\n      0x20\n        /* \"#utility.yul\":14119:14122   */\n      dup3\n        /* \"#utility.yul\":14115:14129   */\n      add\n        /* \"#utility.yul\":14100:14129   */\n      swap1\n      pop\n        /* \"#utility.yul\":14062:14135   */\n      swap3\n      swap2\n      pop\n      pop\n      jump\t// out\n        /* \"#utility.yul\":14141:14326   */\n    tag_215:\n      0x00\n        /* \"#utility.yul\":14198:14218   */\n      tag_364\n        /* \"#utility.yul\":14216:14217   */\n      dup3\n        /* \"#utility.yul\":14198:14218   */\n      tag_328\n      jump\t// in\n    tag_364:\n        /* \"#utility.yul\":14193:14218   */\n      swap2\n      pop\n        /* \"#utility.yul\":14232:14252   */\n      tag_365\n        /* \"#utility.yul\":14250:14251   */\n      dup4\n        /* \"#utility.yul\":14232:14252   */\n      tag_328\n      jump\t// in\n    tag_365:\n        /* \"#utility.yul\":14227:14252   */\n      swap3\n      pop\n        /* \"#utility.yul\":14271:14272   */\n      dup3\n        /* \"#utility.yul\":14261:14263   */\n      tag_366\n      jumpi\n        /* \"#utility.yul\":14276:14294   */\n      tag_367\n      tag_368\n      jump\t// in\n    tag_367:\n        /* \"#utility.yul\":14261:14263   */\n    tag_366:\n        /* \"#utility.yul\":14318:14319   */\n      dup3\n        /* \"#utility.yul\":14315:14316   */\n      dup3\n        /* \"#utility.yul\":14311:14320   */\n      div\n        /* \"#utility.yul\":14306:14320   */\n      swap1\n      pop\n        /* \"#utility.yul\":14183:14326   */\n      swap3\n      swap2\n      pop\n      pop\n      jump\t// out\n        /* \"#utility.yul\":14332:14680   */\n    tag_213:\n      0x00\n        /* \"#utility.yul\":14395:14415   */\n      tag_370\n        /* \"#utility.yul\":14413:14414   */\n      dup3\n        /* \"#utility.yul\":14395:14415   */\n      tag_328\n      jump\t// in\n    tag_370:\n        /* \"#utility.yul\":14390:14415   */\n      swap2\n      pop\n        /* \"#utility.yul\":14429:14449   */\n      tag_371\n        /* \"#utility.yul\":14447:14448   */\n      dup4\n        /* \"#utility.yul\":14429:14449   */\n      tag_328\n      jump\t// in\n    tag_371:\n        /* \"#utility.yul\":14424:14449   */\n      swap3\n      pop\n        /* \"#utility.yul\":14617:14618   */\n      dup2\n        /* \"#utility.yul\":14549:14615   */\n      0xffffffffffffffffffffffffffffffffffffffffffffffffffffffffffffffff\n        /* \"#utility.yul\":14545:14619   */\n      div\n        /* \"#utility.yul\":14542:14543   */\n      dup4\n        /* \"#utility.yul\":14539:14620   */\n      gt\n        /* \"#utility.yul\":14534:14535   */\n      dup3\n        /* \"#utility.yul\":14527:14536   */\n      iszero\n        /* \"#utility.yul\":14520:14537   */\n      iszero\n        /* \"#utility.yul\":14516:14621   */\n      and\n        /* \"#utility.yul\":14513:14515   */\n      iszero\n      tag_372\n      jumpi\n        /* \"#utility.yul\":14624:14642   */\n      tag_373\n      tag_374\n      jump\t// in\n    tag_373:\n        /* \"#utility.yul\":14513:14515   */\n    tag_372:\n        /* \"#utility.yul\":14672:14673   */\n      dup3\n        /* \"#utility.yul\":14669:14670   */\n      dup3\n        /* \"#utility.yul\":14665:14674   */\n      mul\n        /* \"#utility.yul\":14654:14674   */\n      swap1\n      pop\n        /* \"#utility.yul\":14380:14680   */\n      swap3\n      swap2\n      pop\n      pop\n      jump\t// out\n        /* \"#utility.yul\":14686:14877   */\n    tag_217:\n      0x00\n        /* \"#utility.yul\":14746:14766   */\n      tag_376\n        /* \"#utility.yul\":14764:14765   */\n      dup3\n        /* \"#utility.yul\":14746:14766   */\n      tag_328\n      jump\t// in\n    tag_376:\n        /* \"#utility.yul\":14741:14766   */\n      swap2\n      pop\n        /* \"#utility.yul\":14780:14800   */\n      tag_377\n        /* \"#utility.yul\":14798:14799   */\n      dup4\n        /* \"#utility.yul\":14780:14800   */\n      tag_328\n      jump\t// in\n    tag_377:\n        /* \"#utility.yul\":14775:14800   */\n      swap3\n      pop\n        /* \"#utility.yul\":14819:14820   */\n      dup3\n        /* \"#utility.yul\":14816:14817   */\n      dup3\n        /* \"#utility.yul\":14813:14821   */\n      lt\n        /* \"#utility.yul\":14810:14812   */\n      iszero\n      tag_378\n      jumpi\n        /* \"#utility.yul\":14824:14842   */\n      tag_379\n      tag_374\n      jump\t// in\n    tag_379:\n        /* \"#utility.yul\":14810:14812   */\n    tag_378:\n        /* \"#utility.yul\":14869:14870   */\n      dup3\n        /* \"#utility.yul\":14866:14867   */\n      dup3\n        /* \"#utility.yul\":14862:14871   */\n      sub\n        /* \"#utility.yul\":14854:14871   */\n      swap1\n      pop\n        /* \"#utility.yul\":14731:14877   */\n      swap3\n      swap2\n      pop\n      pop\n      jump\t// out\n        /* \"#utility.yul\":14883:14979   */\n    tag_245:\n      0x00\n        /* \"#utility.yul\":14949:14973   */\n      tag_381\n        /* \"#utility.yul\":14967:14972   */\n      dup3\n        /* \"#utility.yul\":14949:14973   */\n      tag_382\n      jump\t// in\n    tag_381:\n        /* \"#utility.yul\":14938:14973   */\n      swap1\n      pop\n        /* \"#utility.yul\":14928:14979   */\n      swap2\n      swap1\n      pop\n      jump\t// out\n        /* \"#utility.yul\":14985:15075   */\n    tag_266:\n      0x00\n        /* \"#utility.yul\":15062:15067   */\n      dup2\n        /* \"#utility.yul\":15055:15068   */\n      iszero\n        /* \"#utility.yul\":15048:15069   */\n      iszero\n        /* \"#utility.yul\":15037:15069   */\n      swap1\n      pop\n        /* \"#utility.yul\":15027:15075   */\n      swap2\n      swap1\n      pop\n      jump\t// out\n        /* \"#utility.yul\":15081:15207   */\n    tag_382:\n      0x00\n        /* \"#utility.yul\":15158:15200   */\n      0xffffffffffffffffffffffffffffffffffffffff\n        /* \"#utility.yul\":15151:15156   */\n      dup3\n        /* \"#utility.yul\":15147:15201   */\n      and\n        /* \"#utility.yul\":15136:15201   */\n      swap1\n      pop\n        /* \"#utility.yul\":15126:15207   */\n      swap2\n      swap1\n      pop\n      jump\t// out\n        /* \"#utility.yul\":15213:15290   */\n    tag_328:\n      0x00\n        /* \"#utility.yul\":15279:15284   */\n      dup2\n        /* \"#utility.yul\":15268:15284   */\n      swap1\n      pop\n        /* \"#utility.yul\":15258:15290   */\n      swap2\n      swap1\n      pop\n      jump\t// out\n        /* \"#utility.yul\":15296:15529   */\n    tag_106:\n      0x00\n        /* \"#utility.yul\":15358:15382   */\n      tag_387\n        /* \"#utility.yul\":15376:15381   */\n      dup3\n        /* \"#utility.yul\":15358:15382   */\n      tag_328\n      jump\t// in\n    tag_387:\n        /* \"#utility.yul\":15349:15382   */\n      swap2\n      pop\n        /* \"#utility.yul\":15404:15470   */\n      0xffffffffffffffffffffffffffffffffffffffffffffffffffffffffffffffff\n        /* \"#utility.yul\":15397:15402   */\n      dup3\n        /* \"#utility.yul\":15394:15471   */\n      eq\n        /* \"#utility.yul\":15391:15393   */\n      iszero\n      tag_388\n      jumpi\n        /* \"#utility.yul\":15474:15492   */\n      tag_389\n      tag_374\n      jump\t// in\n    tag_389:\n        /* \"#utility.yul\":15391:15393   */\n    tag_388:\n        /* \"#utility.yul\":15521:15522   */\n      0x01\n        /* \"#utility.yul\":15514:15519   */\n      dup3\n        /* \"#utility.yul\":15510:15523   */\n      add\n        /* \"#utility.yul\":15503:15523   */\n      swap1\n      pop\n        /* \"#utility.yul\":15339:15529   */\n      swap2\n      swap1\n      pop\n      jump\t// out\n        /* \"#utility.yul\":15535:15715   */\n    tag_374:\n        /* \"#utility.yul\":15583:15660   */\n      0x4e487b7100000000000000000000000000000000000000000000000000000000\n        /* \"#utility.yul\":15580:15581   */\n      0x00\n        /* \"#utility.yul\":15573:15661   */\n      mstore\n        /* \"#utility.yul\":15680:15684   */\n      0x11\n        /* \"#utility.yul\":15677:15678   */\n      0x04\n        /* \"#utility.yul\":15670:15685   */\n      mstore\n        /* \"#utility.yul\":15704:15708   */\n      0x24\n        /* \"#utility.yul\":15701:15702   */\n      0x00\n        /* \"#utility.yul\":15694:15709   */\n      revert\n        /* \"#utility.yul\":15721:15901   */\n    tag_368:\n        /* \"#utility.yul\":15769:15846   */\n      0x4e487b7100000000000000000000000000000000000000000000000000000000\n        /* \"#utility.yul\":15766:15767   */\n      0x00\n        /* \"#utility.yul\":15759:15847   */\n      mstore\n        /* \"#utility.yul\":15866:15870   */\n      0x12\n        /* \"#utility.yul\":15863:15864   */\n      0x04\n        /* \"#utility.yul\":15856:15871   */\n      mstore\n        /* \"#utility.yul\":15890:15894   */\n      0x24\n        /* \"#utility.yul\":15887:15888   */\n      0x00\n        /* \"#utility.yul\":15880:15895   */\n      revert\n        /* \"#utility.yul\":15907:16135   */\n    tag_272:\n        /* \"#utility.yul\":16047:16081   */\n      0x796f752063616e27742062757920616e206974656d20746861742062656c6f6e\n        /* \"#utility.yul\":16043:16044   */\n      0x00\n        /* \"#utility.yul\":16035:16041   */\n      dup3\n        /* \"#utility.yul\":16031:16045   */\n      add\n        /* \"#utility.yul\":16024:16082   */\n      mstore\n        /* \"#utility.yul\":16116:16127   */\n      0x677320746f20796f750000000000000000000000000000000000000000000000\n        /* \"#utility.yul\":16111:16113   */\n      0x20\n        /* \"#utility.yul\":16103:16109   */\n      dup3\n        /* \"#utility.yul\":16099:16114   */\n      add\n        /* \"#utility.yul\":16092:16128   */\n      mstore\n        /* \"#utility.yul\":16013:16135   */\n      pop\n      jump\t// out\n        /* \"#utility.yul\":16141:16310   */\n    tag_277:\n        /* \"#utility.yul\":16281:16302   */\n      0x746f6b656e2069736e277420746f2073656c6c00000000000000000000000000\n        /* \"#utility.yul\":16277:16278   */\n      0x00\n        /* \"#utility.yul\":16269:16275   */\n      dup3\n        /* \"#utility.yul\":16265:16279   */\n      add\n        /* \"#utility.yul\":16258:16303   */\n      mstore\n        /* \"#utility.yul\":16247:16310   */\n      pop\n      jump\t// out\n        /* \"#utility.yul\":16316:16485   */\n    tag_282:\n        /* \"#utility.yul\":16456:16477   */\n      0x746f6b656e20616c726561647920657869737400000000000000000000000000\n        /* \"#utility.yul\":16452:16453   */\n      0x00\n        /* \"#utility.yul\":16444:16450   */\n      dup3\n        /* \"#utility.yul\":16440:16454   */\n      add\n        /* \"#utility.yul\":16433:16478   */\n      mstore\n        /* \"#utility.yul\":16422:16485   */\n      pop\n      jump\t// out\n        /* \"#utility.yul\":16491:16731   */\n    tag_287:\n        /* \"#utility.yul\":16631:16665   */\n      0x7472616e73616374696f6e27732076616c75652063616e6e6f74206265206469\n        /* \"#utility.yul\":16627:16628   */\n      0x00\n        /* \"#utility.yul\":16619:16625   */\n      dup3\n        /* \"#utility.yul\":16615:16629   */\n      add\n        /* \"#utility.yul\":16608:16666   */\n      mstore\n        /* \"#utility.yul\":16700:16723   */\n      0x66666572656e74206f66206974656d2070726963650000000000000000000000\n        /* \"#utility.yul\":16695:16697   */\n      0x20\n        /* \"#utility.yul\":16687:16693   */\n      dup3\n        /* \"#utility.yul\":16683:16698   */\n      add\n        /* \"#utility.yul\":16676:16724   */\n      mstore\n        /* \"#utility.yul\":16597:16731   */\n      pop\n      jump\t// out\n        /* \"#utility.yul\":16737:16906   */\n    tag_292:\n        /* \"#utility.yul\":16877:16898   */\n      0x746f6b656e20646f65736e277420657869737400000000000000000000000000\n        /* \"#utility.yul\":16873:16874   */\n      0x00\n        /* \"#utility.yul\":16865:16871   */\n      dup3\n        /* \"#utility.yul\":16861:16875   */\n      add\n        /* \"#utility.yul\":16854:16899   */\n      mstore\n        /* \"#utility.yul\":16843:16906   */\n      pop\n      jump\t// out\n        /* \"#utility.yul\":16912:17091   */\n    tag_297:\n        /* \"#utility.yul\":17052:17083   */\n      0x4f6e6c79206974656d2773206f776e65722063616e20646f2074686174000000\n        /* \"#utility.yul\":17048:17049   */\n      0x00\n        /* \"#utility.yul\":17040:17046   */\n      dup3\n        /* \"#utility.yul\":17036:17050   */\n      add\n        /* \"#utility.yul\":17029:17084   */\n      mstore\n        /* \"#utility.yul\":17018:17091   */\n      pop\n      jump\t// out\n        /* \"#utility.yul\":17097:17271   */\n    tag_302:\n        /* \"#utility.yul\":17237:17263   */\n      0x746f6b656e20697320616c726561647920746f2073656c6c0000000000000000\n        /* \"#utility.yul\":17233:17234   */\n      0x00\n        /* \"#utility.yul\":17225:17231   */\n      dup3\n        /* \"#utility.yul\":17221:17235   */\n      add\n        /* \"#utility.yul\":17214:17264   */\n      mstore\n        /* \"#utility.yul\":17203:17271   */\n      pop\n      jump\t// out\n        /* \"#utility.yul\":17277:17497   */\n    tag_307:\n        /* \"#utility.yul\":17417:17451   */\n      0x5468616e6b7320746f2073656e6420636f727265637420666565732076616c75\n        /* \"#utility.yul\":17413:17414   */\n      0x00\n        /* \"#utility.yul\":17405:17411   */\n      dup3\n        /* \"#utility.yul\":17401:17415   */\n      add\n        /* \"#utility.yul\":17394:17452   */\n      mstore\n        /* \"#utility.yul\":17486:17489   */\n      0x6500000000000000000000000000000000000000000000000000000000000000\n        /* \"#utility.yul\":17481:17483   */\n      0x20\n        /* \"#utility.yul\":17473:17479   */\n      dup3\n        /* \"#utility.yul\":17469:17484   */\n      add\n        /* \"#utility.yul\":17462:17490   */\n      mstore\n        /* \"#utility.yul\":17383:17497   */\n      pop\n      jump\t// out\n        /* \"#utility.yul\":17503:17723   */\n    tag_312:\n        /* \"#utility.yul\":17643:17677   */\n      0x4f6e6c7920636f6e74726163742773206f776e65722063616e20646f20746861\n        /* \"#utility.yul\":17639:17640   */\n      0x00\n        /* \"#utility.yul\":17631:17637   */\n      dup3\n        /* \"#utility.yul\":17627:17641   */\n      add\n        /* \"#utility.yul\":17620:17678   */\n      mstore\n        /* \"#utility.yul\":17712:17715   */\n      0x7400000000000000000000000000000000000000000000000000000000000000\n        /* \"#utility.yul\":17707:17709   */\n      0x20\n        /* \"#utility.yul\":17699:17705   */\n      dup3\n        /* \"#utility.yul\":17695:17710   */\n      add\n        /* \"#utility.yul\":17688:17716   */\n      mstore\n        /* \"#utility.yul\":17609:17723   */\n      pop\n      jump\t// out\n        /* \"#utility.yul\":17729:17905   */\n    tag_317:\n        /* \"#utility.yul\":17869:17897   */\n      0x50726963652063616e6e6f7420626520657175616c20746f2030000000000000\n        /* \"#utility.yul\":17865:17866   */\n      0x00\n        /* \"#utility.yul\":17857:17863   */\n      dup3\n        /* \"#utility.yul\":17853:17867   */\n      add\n        /* \"#utility.yul\":17846:17898   */\n      mstore\n        /* \"#utility.yul\":17835:17905   */\n      pop\n      jump\t// out\n        /* \"#utility.yul\":17911:18033   */\n    tag_222:\n        /* \"#utility.yul\":17984:18008   */\n      tag_403\n        /* \"#utility.yul\":18002:18007   */\n      dup2\n        /* \"#utility.yul\":17984:18008   */\n      tag_245\n      jump\t// in\n    tag_403:\n        /* \"#utility.yul\":17977:17982   */\n      dup2\n        /* \"#utility.yul\":17974:18009   */\n      eq\n        /* \"#utility.yul\":17964:17966   */\n      tag_404\n      jumpi\n        /* \"#utility.yul\":18023:18024   */\n      0x00\n        /* \"#utility.yul\":18020:18021   */\n      dup1\n        /* \"#utility.yul\":18013:18025   */\n      revert\n        /* \"#utility.yul\":17964:17966   */\n    tag_404:\n        /* \"#utility.yul\":17954:18033   */\n      pop\n      jump\t// out\n        /* \"#utility.yul\":18039:18161   */\n    tag_226:\n        /* \"#utility.yul\":18112:18136   */\n      tag_406\n        /* \"#utility.yul\":18130:18135   */\n      dup2\n        /* \"#utility.yul\":18112:18136   */\n      tag_328\n      jump\t// in\n    tag_406:\n        /* \"#utility.yul\":18105:18110   */\n      dup2\n        /* \"#utility.yul\":18102:18137   */\n      eq\n        /* \"#utility.yul\":18092:18094   */\n      tag_407\n      jumpi\n        /* \"#utility.yul\":18151:18152   */\n      0x00\n        /* \"#utility.yul\":18148:18149   */\n      dup1\n        /* \"#utility.yul\":18141:18153   */\n      revert\n        /* \"#utility.yul\":18092:18094   */\n    tag_407:\n        /* \"#utility.yul\":18082:18161   */\n      pop\n      jump\t// out\n\n    auxdata: 0xa264697066735822122036a64abd80277bf93fc946d9fdb04efa25897abe740729d0315983a46a1e9f9564736f6c63430008010033\n}\n",
				"bytecode": {
					"linkReferences": {},
					"object": "608060405265e35fa931a00060055560056006553480156200002057600080fd5b5033600260006101000a81548173ffffffffffffffffffffffffffffffffffffffff021916908373ffffffffffffffffffffffffffffffffffffffff1602179055506040518060400160405280600b81526020017f4765656b20546f6b656e7300000000000000000000000000000000000000000081525060009080519060200190620000af92919062000104565b506040518060400160405280600581526020017f4745454b5400000000000000000000000000000000000000000000000000000081525060019080519060200190620000fd92919062000104565b5062000219565b8280546200011290620001b4565b90600052602060002090601f01602090048101928262000136576000855562000182565b82601f106200015157805160ff191683800117855562000182565b8280016001018555821562000182579182015b828111156200018157825182559160200191906001019062000164565b5b50905062000191919062000195565b5090565b5b80821115620001b057600081600090555060010162000196565b5090565b60006002820490506001821680620001cd57607f821691505b60208210811415620001e457620001e3620001ea565b5b50919050565b7f4e487b7100000000000000000000000000000000000000000000000000000000600052602260045260246000fd5b6124cf80620002296000396000f3fe6080604052600436106100c25760003560e01c80636352211e1161007f578063a411d68d11610059578063a411d68d14610274578063a4964c331461029f578063c0f202ef146102c8578063e6e95ea7146102e4576100c2565b80636352211e146101de57806370a082311461021b57806391b6be9a14610258576100c2565b806302acc94b146100c7578063073e74df146100f7578063160035b1146101225780631b03427c1461014d578063406693b2146101765780634cad2ffc146101b3575b600080fd5b6100e160048036038101906100dc9190611bc0565b61030d565b6040516100ee9190612026565b60405180910390f35b34801561010357600080fd5b5061010c61068e565b6040516101199190611ec4565b60405180910390f35b34801561012e57600080fd5b506101376108e1565b6040516101449190612026565b60405180910390f35b34801561015957600080fd5b50610174600480360381019061016f9190611b97565b6108eb565b005b34801561018257600080fd5b5061019d60048036038101906101989190611b97565b610985565b6040516101aa9190611ec4565b60405180910390f35b3480156101bf57600080fd5b506101c8610c41565b6040516101d59190611ec4565b60405180910390f35b3480156101ea57600080fd5b5061020560048036038101906102009190611b97565b610ed3565b6040516102129190611ea9565b60405180910390f35b34801561022757600080fd5b50610242600480360381019061023d9190611b6e565b610f10565b60405161024f9190612026565b60405180910390f35b610272600480360381019061026d9190611b97565b610f59565b005b34801561028057600080fd5b506102896114aa565b6040516102969190612026565b60405180910390f35b3480156102ab57600080fd5b506102c660048036038101906102c19190611b97565b6114b4565b005b6102e260048036038101906102dd9190611b97565b611713565b005b3480156102f057600080fd5b5061030b60048036038101906103069190611b97565b611a1e565b005b60006005543414610353576040517f08c379a000000000000000000000000000000000000000000000000000000000815260040161034a90611fc6565b60405180910390fd5b60008411610396576040517f08c379a000000000000000000000000000000000000000000000000000000000815260040161038d90612006565b60405180910390fd5b60006003805490509050600073ffffffffffffffffffffffffffffffffffffffff166007600083815260200190815260200160002060009054906101000a900473ffffffffffffffffffffffffffffffffffffffff1673ffffffffffffffffffffffffffffffffffffffff1614610442576040517f08c379a000000000000000000000000000000000000000000000000000000000815260040161043990611f26565b60405180910390fd5b60036040518060c001604052808581526020018381526020018781526020018681526020016001151581526020013373ffffffffffffffffffffffffffffffffffffffff1681525090806001815401808255809150506001900390600052602060002090600502016000909190919091506000820151816000015560208201518160010155604082015181600201556060820151816003015560808201518160040160006101000a81548160ff02191690831515021790555060a08201518160040160016101000a81548173ffffffffffffffffffffffffffffffffffffffff021916908373ffffffffffffffffffffffffffffffffffffffff1602179055505050336007600083815260200190815260200160002060006101000a81548173ffffffffffffffffffffffffffffffffffffffff021916908373ffffffffffffffffffffffffffffffffffffffff160217905550600860003373ffffffffffffffffffffffffffffffffffffffff1673ffffffffffffffffffffffffffffffffffffffff168152602001908152602001600020600081548092919060010191905055506009600085815260200190815260200160002060008154809291906001019190505550600460008154809291906001019190505550600260009054906101000a900473ffffffffffffffffffffffffffffffffffffffff1673ffffffffffffffffffffffffffffffffffffffff166108fc349081150290604051600060405180830381858888f19350505050158015610682573d6000803e3d6000fd5b50809150509392505050565b606060008060045467ffffffffffffffff8111156106d5577f4e487b7100000000000000000000000000000000000000000000000000000000600052604160045260246000fd5b60405190808252806020026020018201604052801561070e57816020015b6106fb611af6565b8152602001906001900390816106f35790505b50905060005b6003805490508110156108d857600115156003828154811061075f577f4e487b7100000000000000000000000000000000000000000000000000000000600052603260045260246000fd5b906000526020600020906005020160040160009054906101000a900460ff16151514156108c557600381815481106107c0577f4e487b7100000000000000000000000000000000000000000000000000000000600052603260045260246000fd5b90600052602060002090600502016040518060c0016040529081600082015481526020016001820154815260200160028201548152602001600382015481526020016004820160009054906101000a900460ff161515151581526020016004820160019054906101000a900473ffffffffffffffffffffffffffffffffffffffff1673ffffffffffffffffffffffffffffffffffffffff1673ffffffffffffffffffffffffffffffffffffffff16815250508284815181106108ab577f4e487b7100000000000000000000000000000000000000000000000000000000600052603260045260246000fd5b602002602001018190525082806108c190612192565b9350505b80806108d090612192565b915050610714565b50809250505090565b6000600654905090565b600260009054906101000a900473ffffffffffffffffffffffffffffffffffffffff1673ffffffffffffffffffffffffffffffffffffffff163373ffffffffffffffffffffffffffffffffffffffff161461097b576040517f08c379a000000000000000000000000000000000000000000000000000000000815260040161097290611fe6565b60405180910390fd5b8060068190555050565b6060600080600960008581526020019081526020016000205467ffffffffffffffff8111156109dd577f4e487b7100000000000000000000000000000000000000000000000000000000600052604160045260246000fd5b604051908082528060200260200182016040528015610a1657816020015b610a03611af6565b8152602001906001900390816109fb5790505b50905060005b600380549050811015610c36578460038281548110610a64577f4e487b7100000000000000000000000000000000000000000000000000000000600052603260045260246000fd5b906000526020600020906005020160030154148015610adf57506001151560038281548110610abc577f4e487b7100000000000000000000000000000000000000000000000000000000600052603260045260246000fd5b906000526020600020906005020160040160009054906101000a900460ff161515145b15610c235760038181548110610b1e577f4e487b7100000000000000000000000000000000000000000000000000000000600052603260045260246000fd5b90600052602060002090600502016040518060c0016040529081600082015481526020016001820154815260200160028201548152602001600382015481526020016004820160009054906101000a900460ff161515151581526020016004820160019054906101000a900473ffffffffffffffffffffffffffffffffffffffff1673ffffffffffffffffffffffffffffffffffffffff1673ffffffffffffffffffffffffffffffffffffffff1681525050828481518110610c09577f4e487b7100000000000000000000000000000000000000000000000000000000600052603260045260246000fd5b60200260200101819052508280610c1f90612192565b9350505b8080610c2e90612192565b915050610a1c565b508092505050919050565b6060600080600860003373ffffffffffffffffffffffffffffffffffffffff1673ffffffffffffffffffffffffffffffffffffffff1681526020019081526020016000205467ffffffffffffffff811115610cc5577f4e487b7100000000000000000000000000000000000000000000000000000000600052604160045260246000fd5b604051908082528060200260200182016040528015610cfe57816020015b610ceb611af6565b815260200190600190039081610ce35790505b50905060005b600380549050811015610eca573373ffffffffffffffffffffffffffffffffffffffff166007600083815260200190815260200160002060009054906101000a900473ffffffffffffffffffffffffffffffffffffffff1673ffffffffffffffffffffffffffffffffffffffff161415610eb75760038181548110610db2577f4e487b7100000000000000000000000000000000000000000000000000000000600052603260045260246000fd5b90600052602060002090600502016040518060c0016040529081600082015481526020016001820154815260200160028201548152602001600382015481526020016004820160009054906101000a900460ff161515151581526020016004820160019054906101000a900473ffffffffffffffffffffffffffffffffffffffff1673ffffffffffffffffffffffffffffffffffffffff1673ffffffffffffffffffffffffffffffffffffffff1681525050828481518110610e9d577f4e487b7100000000000000000000000000000000000000000000000000000000600052603260045260246000fd5b60200260200101819052508280610eb390612192565b9350505b8080610ec290612192565b915050610d04565b50809250505090565b60006007600083815260200190815260200160002060009054906101000a900473ffffffffffffffffffffffffffffffffffffffff169050919050565b6000600860008373ffffffffffffffffffffffffffffffffffffffff1673ffffffffffffffffffffffffffffffffffffffff168152602001908152602001600020549050919050565b60038181548110610f93577f4e487b7100000000000000000000000000000000000000000000000000000000600052603260045260246000fd5b9060005260206000209060050201600201543414610fe6576040517f08c379a0000000000000000000000000000000000000000000000000000000008152600401610fdd90611f46565b60405180910390fd5b600073ffffffffffffffffffffffffffffffffffffffff166007600083815260200190815260200160002060009054906101000a900473ffffffffffffffffffffffffffffffffffffffff1673ffffffffffffffffffffffffffffffffffffffff161415611089576040517f08c379a000000000000000000000000000000000000000000000000000000000815260040161108090611f66565b60405180910390fd5b3373ffffffffffffffffffffffffffffffffffffffff166007600083815260200190815260200160002060009054906101000a900473ffffffffffffffffffffffffffffffffffffffff1673ffffffffffffffffffffffffffffffffffffffff16141561112b576040517f08c379a000000000000000000000000000000000000000000000000000000000815260040161112290611ee6565b60405180910390fd5b60006007600083815260200190815260200160002060009054906101000a900473ffffffffffffffffffffffffffffffffffffffff16905060006003838154811061119f577f4e487b7100000000000000000000000000000000000000000000000000000000600052603260045260246000fd5b9060005260206000209060050201905060008160040160006101000a81548160ff021916908315150217905550336007600085815260200190815260200160002060006101000a81548173ffffffffffffffffffffffffffffffffffffffff021916908373ffffffffffffffffffffffffffffffffffffffff160217905550600860008373ffffffffffffffffffffffffffffffffffffffff1673ffffffffffffffffffffffffffffffffffffffff1681526020019081526020016000206000815480929190600190039190505550600860003373ffffffffffffffffffffffffffffffffffffffff1673ffffffffffffffffffffffffffffffffffffffff16815260200190815260200160002060008154809291906001019190505550600460008154809291906001900391905055508173ffffffffffffffffffffffffffffffffffffffff168160040160019054906101000a900473ffffffffffffffffffffffffffffffffffffffff1673ffffffffffffffffffffffffffffffffffffffff161415611374578173ffffffffffffffffffffffffffffffffffffffff166108fc349081150290604051600060405180830381858888f1935050505015801561136e573d6000803e3d6000fd5b50611440565b60008061138334600654611ab8565b80925081935050508260040160019054906101000a900473ffffffffffffffffffffffffffffffffffffffff1673ffffffffffffffffffffffffffffffffffffffff166108fc839081150290604051600060405180830381858888f193505050501580156113f5573d6000803e3d6000fd5b508373ffffffffffffffffffffffffffffffffffffffff166108fc829081150290604051600060405180830381858888f1935050505015801561143c573d6000803e3d6000fd5b5050505b3373ffffffffffffffffffffffffffffffffffffffff168273ffffffffffffffffffffffffffffffffffffffff167fddf252ad1be2c89b69c2b068fc378daa952ba7f163c4a11628f55a4df523b3ef8560405161149d9190612026565b60405180910390a3505050565b6000600554905090565b803373ffffffffffffffffffffffffffffffffffffffff166007600083815260200190815260200160002060009054906101000a900473ffffffffffffffffffffffffffffffffffffffff1673ffffffffffffffffffffffffffffffffffffffff1614611556576040517f08c379a000000000000000000000000000000000000000000000000000000000815260040161154d90611f86565b60405180910390fd5b600073ffffffffffffffffffffffffffffffffffffffff166007600084815260200190815260200160002060009054906101000a900473ffffffffffffffffffffffffffffffffffffffff1673ffffffffffffffffffffffffffffffffffffffff1614156115f9576040517f08c379a00000000000000000000000000000000000000000000000000000000081526004016115f090611f66565b60405180910390fd5b6001151560038381548110611637577f4e487b7100000000000000000000000000000000000000000000000000000000600052603260045260246000fd5b906000526020600020906005020160040160009054906101000a900460ff16151514611698576040517f08c379a000000000000000000000000000000000000000000000000000000000815260040161168f90611f06565b60405180910390fd5b6000600383815481106116d4577f4e487b7100000000000000000000000000000000000000000000000000000000600052603260045260246000fd5b906000526020600020906005020160040160006101000a81548160ff021916908315150217905550600460008154809291906001900391905055505050565b6005543414611757576040517f08c379a000000000000000000000000000000000000000000000000000000000815260040161174e90611fc6565b60405180910390fd5b803373ffffffffffffffffffffffffffffffffffffffff166007600083815260200190815260200160002060009054906101000a900473ffffffffffffffffffffffffffffffffffffffff1673ffffffffffffffffffffffffffffffffffffffff16146117f9576040517f08c379a00000000000000000000000000000000000000000000000000000000081526004016117f090611f86565b60405180910390fd5b600073ffffffffffffffffffffffffffffffffffffffff166007600084815260200190815260200160002060009054906101000a900473ffffffffffffffffffffffffffffffffffffffff1673ffffffffffffffffffffffffffffffffffffffff16141561189c576040517f08c379a000000000000000000000000000000000000000000000000000000000815260040161189390611f66565b60405180910390fd5b60001515600383815481106118da577f4e487b7100000000000000000000000000000000000000000000000000000000600052603260045260246000fd5b906000526020600020906005020160040160009054906101000a900460ff1615151461193b576040517f08c379a000000000000000000000000000000000000000000000000000000000815260040161193290611fa6565b60405180910390fd5b600160038381548110611977577f4e487b7100000000000000000000000000000000000000000000000000000000600052603260045260246000fd5b906000526020600020906005020160040160006101000a81548160ff021916908315150217905550600460008154809291906001019190505550600260009054906101000a900473ffffffffffffffffffffffffffffffffffffffff1673ffffffffffffffffffffffffffffffffffffffff166108fc349081150290604051600060405180830381858888f19350505050158015611a19573d6000803e3d6000fd5b505050565b600260009054906101000a900473ffffffffffffffffffffffffffffffffffffffff1673ffffffffffffffffffffffffffffffffffffffff163373ffffffffffffffffffffffffffffffffffffffff1614611aae576040517f08c379a0000000000000000000000000000000000000000000000000000000008152600401611aa590611fe6565b60405180910390fd5b8060058190555050565b600080600060648585611acb91906120bc565b611ad5919061208b565b905060008186611ae59190612116565b905081819350935050509250929050565b6040518060c0016040528060008152602001600081526020016000815260200160008152602001600015158152602001600073ffffffffffffffffffffffffffffffffffffffff1681525090565b600081359050611b538161246b565b92915050565b600081359050611b6881612482565b92915050565b600060208284031215611b8057600080fd5b6000611b8e84828501611b44565b91505092915050565b600060208284031215611ba957600080fd5b6000611bb784828501611b59565b91505092915050565b600080600060608486031215611bd557600080fd5b6000611be386828701611b59565b9350506020611bf486828701611b59565b9250506040611c0586828701611b59565b9150509250925092565b6000611c1b8383611e10565b60c08301905092915050565b611c308161214a565b82525050565b611c3f8161214a565b82525050565b6000611c5082612051565b611c5a8185612069565b9350611c6583612041565b8060005b83811015611c96578151611c7d8882611c0f565b9750611c888361205c565b925050600181019050611c69565b5085935050505092915050565b611cac8161215c565b82525050565b6000611cbf60298361207a565b9150611cca82612239565b604082019050919050565b6000611ce260138361207a565b9150611ced82612288565b602082019050919050565b6000611d0560138361207a565b9150611d10826122b1565b602082019050919050565b6000611d2860358361207a565b9150611d33826122da565b604082019050919050565b6000611d4b60138361207a565b9150611d5682612329565b602082019050919050565b6000611d6e601d8361207a565b9150611d7982612352565b602082019050919050565b6000611d9160188361207a565b9150611d9c8261237b565b602082019050919050565b6000611db460218361207a565b9150611dbf826123a4565b604082019050919050565b6000611dd760218361207a565b9150611de2826123f3565b604082019050919050565b6000611dfa601a8361207a565b9150611e0582612442565b602082019050919050565b60c082016000820151611e266000850182611e8b565b506020820151611e396020850182611e8b565b506040820151611e4c6040850182611e8b565b506060820151611e5f6060850182611e8b565b506080820151611e726080850182611ca3565b5060a0820151611e8560a0850182611c27565b50505050565b611e9481612188565b82525050565b611ea381612188565b82525050565b6000602082019050611ebe6000830184611c36565b92915050565b60006020820190508181036000830152611ede8184611c45565b905092915050565b60006020820190508181036000830152611eff81611cb2565b9050919050565b60006020820190508181036000830152611f1f81611cd5565b9050919050565b60006020820190508181036000830152611f3f81611cf8565b9050919050565b60006020820190508181036000830152611f5f81611d1b565b9050919050565b60006020820190508181036000830152611f7f81611d3e565b9050919050565b60006020820190508181036000830152611f9f81611d61565b9050919050565b60006020820190508181036000830152611fbf81611d84565b9050919050565b60006020820190508181036000830152611fdf81611da7565b9050919050565b60006020820190508181036000830152611fff81611dca565b9050919050565b6000602082019050818103600083015261201f81611ded565b9050919050565b600060208201905061203b6000830184611e9a565b92915050565b6000819050602082019050919050565b600081519050919050565b6000602082019050919050565b600082825260208201905092915050565b600082825260208201905092915050565b600061209682612188565b91506120a183612188565b9250826120b1576120b061220a565b5b828204905092915050565b60006120c782612188565b91506120d283612188565b9250817fffffffffffffffffffffffffffffffffffffffffffffffffffffffffffffffff048311821515161561210b5761210a6121db565b5b828202905092915050565b600061212182612188565b915061212c83612188565b92508282101561213f5761213e6121db565b5b828203905092915050565b600061215582612168565b9050919050565b60008115159050919050565b600073ffffffffffffffffffffffffffffffffffffffff82169050919050565b6000819050919050565b600061219d82612188565b91507fffffffffffffffffffffffffffffffffffffffffffffffffffffffffffffffff8214156121d0576121cf6121db565b5b600182019050919050565b7f4e487b7100000000000000000000000000000000000000000000000000000000600052601160045260246000fd5b7f4e487b7100000000000000000000000000000000000000000000000000000000600052601260045260246000fd5b7f796f752063616e27742062757920616e206974656d20746861742062656c6f6e60008201527f677320746f20796f750000000000000000000000000000000000000000000000602082015250565b7f746f6b656e2069736e277420746f2073656c6c00000000000000000000000000600082015250565b7f746f6b656e20616c726561647920657869737400000000000000000000000000600082015250565b7f7472616e73616374696f6e27732076616c75652063616e6e6f7420626520646960008201527f66666572656e74206f66206974656d2070726963650000000000000000000000602082015250565b7f746f6b656e20646f65736e277420657869737400000000000000000000000000600082015250565b7f4f6e6c79206974656d2773206f776e65722063616e20646f2074686174000000600082015250565b7f746f6b656e20697320616c726561647920746f2073656c6c0000000000000000600082015250565b7f5468616e6b7320746f2073656e6420636f727265637420666565732076616c7560008201527f6500000000000000000000000000000000000000000000000000000000000000602082015250565b7f4f6e6c7920636f6e74726163742773206f776e65722063616e20646f2074686160008201527f7400000000000000000000000000000000000000000000000000000000000000602082015250565b7f50726963652063616e6e6f7420626520657175616c20746f2030000000000000600082015250565b6124748161214a565b811461247f57600080fd5b50565b61248b81612188565b811461249657600080fd5b5056fea264697066735822122036a64abd80277bf93fc946d9fdb04efa25897abe740729d0315983a46a1e9f9564736f6c63430008010033",
					"opcodes": "PUSH1 0x80 PUSH1 0x40 MSTORE PUSH6 0xE35FA931A000 PUSH1 0x5 SSTORE PUSH1 0x5 PUSH1 0x6 SSTORE CALLVALUE DUP1 ISZERO PUSH3 0x20 JUMPI PUSH1 0x0 DUP1 REVERT JUMPDEST POP CALLER PUSH1 0x2 PUSH1 0x0 PUSH2 0x100 EXP DUP2 SLOAD DUP2 PUSH20 0xFFFFFFFFFFFFFFFFFFFFFFFFFFFFFFFFFFFFFFFF MUL NOT AND SWAP1 DUP4 PUSH20 0xFFFFFFFFFFFFFFFFFFFFFFFFFFFFFFFFFFFFFFFF AND MUL OR SWAP1 SSTORE POP PUSH1 0x40 MLOAD DUP1 PUSH1 0x40 ADD PUSH1 0x40 MSTORE DUP1 PUSH1 0xB DUP2 MSTORE PUSH1 0x20 ADD PUSH32 0x4765656B20546F6B656E73000000000000000000000000000000000000000000 DUP2 MSTORE POP PUSH1 0x0 SWAP1 DUP1 MLOAD SWAP1 PUSH1 0x20 ADD SWAP1 PUSH3 0xAF SWAP3 SWAP2 SWAP1 PUSH3 0x104 JUMP JUMPDEST POP PUSH1 0x40 MLOAD DUP1 PUSH1 0x40 ADD PUSH1 0x40 MSTORE DUP1 PUSH1 0x5 DUP2 MSTORE PUSH1 0x20 ADD PUSH32 0x4745454B54000000000000000000000000000000000000000000000000000000 DUP2 MSTORE POP PUSH1 0x1 SWAP1 DUP1 MLOAD SWAP1 PUSH1 0x20 ADD SWAP1 PUSH3 0xFD SWAP3 SWAP2 SWAP1 PUSH3 0x104 JUMP JUMPDEST POP PUSH3 0x219 JUMP JUMPDEST DUP3 DUP1 SLOAD PUSH3 0x112 SWAP1 PUSH3 0x1B4 JUMP JUMPDEST SWAP1 PUSH1 0x0 MSTORE PUSH1 0x20 PUSH1 0x0 KECCAK256 SWAP1 PUSH1 0x1F ADD PUSH1 0x20 SWAP1 DIV DUP2 ADD SWAP3 DUP3 PUSH3 0x136 JUMPI PUSH1 0x0 DUP6 SSTORE PUSH3 0x182 JUMP JUMPDEST DUP3 PUSH1 0x1F LT PUSH3 0x151 JUMPI DUP1 MLOAD PUSH1 0xFF NOT AND DUP4 DUP1 ADD OR DUP6 SSTORE PUSH3 0x182 JUMP JUMPDEST DUP3 DUP1 ADD PUSH1 0x1 ADD DUP6 SSTORE DUP3 ISZERO PUSH3 0x182 JUMPI SWAP2 DUP3 ADD JUMPDEST DUP3 DUP2 GT ISZERO PUSH3 0x181 JUMPI DUP3 MLOAD DUP3 SSTORE SWAP2 PUSH1 0x20 ADD SWAP2 SWAP1 PUSH1 0x1 ADD SWAP1 PUSH3 0x164 JUMP JUMPDEST JUMPDEST POP SWAP1 POP PUSH3 0x191 SWAP2 SWAP1 PUSH3 0x195 JUMP JUMPDEST POP SWAP1 JUMP JUMPDEST JUMPDEST DUP1 DUP3 GT ISZERO PUSH3 0x1B0 JUMPI PUSH1 0x0 DUP2 PUSH1 0x0 SWAP1 SSTORE POP PUSH1 0x1 ADD PUSH3 0x196 JUMP JUMPDEST POP SWAP1 JUMP JUMPDEST PUSH1 0x0 PUSH1 0x2 DUP3 DIV SWAP1 POP PUSH1 0x1 DUP3 AND DUP1 PUSH3 0x1CD JUMPI PUSH1 0x7F DUP3 AND SWAP2 POP JUMPDEST PUSH1 0x20 DUP3 LT DUP2 EQ ISZERO PUSH3 0x1E4 JUMPI PUSH3 0x1E3 PUSH3 0x1EA JUMP JUMPDEST JUMPDEST POP SWAP2 SWAP1 POP JUMP JUMPDEST PUSH32 0x4E487B7100000000000000000000000000000000000000000000000000000000 PUSH1 0x0 MSTORE PUSH1 0x22 PUSH1 0x4 MSTORE PUSH1 0x24 PUSH1 0x0 REVERT JUMPDEST PUSH2 0x24CF DUP1 PUSH3 0x229 PUSH1 0x0 CODECOPY PUSH1 0x0 RETURN INVALID PUSH1 0x80 PUSH1 0x40 MSTORE PUSH1 0x4 CALLDATASIZE LT PUSH2 0xC2 JUMPI PUSH1 0x0 CALLDATALOAD PUSH1 0xE0 SHR DUP1 PUSH4 0x6352211E GT PUSH2 0x7F JUMPI DUP1 PUSH4 0xA411D68D GT PUSH2 0x59 JUMPI DUP1 PUSH4 0xA411D68D EQ PUSH2 0x274 JUMPI DUP1 PUSH4 0xA4964C33 EQ PUSH2 0x29F JUMPI DUP1 PUSH4 0xC0F202EF EQ PUSH2 0x2C8 JUMPI DUP1 PUSH4 0xE6E95EA7 EQ PUSH2 0x2E4 JUMPI PUSH2 0xC2 JUMP JUMPDEST DUP1 PUSH4 0x6352211E EQ PUSH2 0x1DE JUMPI DUP1 PUSH4 0x70A08231 EQ PUSH2 0x21B JUMPI DUP1 PUSH4 0x91B6BE9A EQ PUSH2 0x258 JUMPI PUSH2 0xC2 JUMP JUMPDEST DUP1 PUSH4 0x2ACC94B EQ PUSH2 0xC7 JUMPI DUP1 PUSH4 0x73E74DF EQ PUSH2 0xF7 JUMPI DUP1 PUSH4 0x160035B1 EQ PUSH2 0x122 JUMPI DUP1 PUSH4 0x1B03427C EQ PUSH2 0x14D JUMPI DUP1 PUSH4 0x406693B2 EQ PUSH2 0x176 JUMPI DUP1 PUSH4 0x4CAD2FFC EQ PUSH2 0x1B3 JUMPI JUMPDEST PUSH1 0x0 DUP1 REVERT JUMPDEST PUSH2 0xE1 PUSH1 0x4 DUP1 CALLDATASIZE SUB DUP2 ADD SWAP1 PUSH2 0xDC SWAP2 SWAP1 PUSH2 0x1BC0 JUMP JUMPDEST PUSH2 0x30D JUMP JUMPDEST PUSH1 0x40 MLOAD PUSH2 0xEE SWAP2 SWAP1 PUSH2 0x2026 JUMP JUMPDEST PUSH1 0x40 MLOAD DUP1 SWAP2 SUB SWAP1 RETURN JUMPDEST CALLVALUE DUP1 ISZERO PUSH2 0x103 JUMPI PUSH1 0x0 DUP1 REVERT JUMPDEST POP PUSH2 0x10C PUSH2 0x68E JUMP JUMPDEST PUSH1 0x40 MLOAD PUSH2 0x119 SWAP2 SWAP1 PUSH2 0x1EC4 JUMP JUMPDEST PUSH1 0x40 MLOAD DUP1 SWAP2 SUB SWAP1 RETURN JUMPDEST CALLVALUE DUP1 ISZERO PUSH2 0x12E JUMPI PUSH1 0x0 DUP1 REVERT JUMPDEST POP PUSH2 0x137 PUSH2 0x8E1 JUMP JUMPDEST PUSH1 0x40 MLOAD PUSH2 0x144 SWAP2 SWAP1 PUSH2 0x2026 JUMP JUMPDEST PUSH1 0x40 MLOAD DUP1 SWAP2 SUB SWAP1 RETURN JUMPDEST CALLVALUE DUP1 ISZERO PUSH2 0x159 JUMPI PUSH1 0x0 DUP1 REVERT JUMPDEST POP PUSH2 0x174 PUSH1 0x4 DUP1 CALLDATASIZE SUB DUP2 ADD SWAP1 PUSH2 0x16F SWAP2 SWAP1 PUSH2 0x1B97 JUMP JUMPDEST PUSH2 0x8EB JUMP JUMPDEST STOP JUMPDEST CALLVALUE DUP1 ISZERO PUSH2 0x182 JUMPI PUSH1 0x0 DUP1 REVERT JUMPDEST POP PUSH2 0x19D PUSH1 0x4 DUP1 CALLDATASIZE SUB DUP2 ADD SWAP1 PUSH2 0x198 SWAP2 SWAP1 PUSH2 0x1B97 JUMP JUMPDEST PUSH2 0x985 JUMP JUMPDEST PUSH1 0x40 MLOAD PUSH2 0x1AA SWAP2 SWAP1 PUSH2 0x1EC4 JUMP JUMPDEST PUSH1 0x40 MLOAD DUP1 SWAP2 SUB SWAP1 RETURN JUMPDEST CALLVALUE DUP1 ISZERO PUSH2 0x1BF JUMPI PUSH1 0x0 DUP1 REVERT JUMPDEST POP PUSH2 0x1C8 PUSH2 0xC41 JUMP JUMPDEST PUSH1 0x40 MLOAD PUSH2 0x1D5 SWAP2 SWAP1 PUSH2 0x1EC4 JUMP JUMPDEST PUSH1 0x40 MLOAD DUP1 SWAP2 SUB SWAP1 RETURN JUMPDEST CALLVALUE DUP1 ISZERO PUSH2 0x1EA JUMPI PUSH1 0x0 DUP1 REVERT JUMPDEST POP PUSH2 0x205 PUSH1 0x4 DUP1 CALLDATASIZE SUB DUP2 ADD SWAP1 PUSH2 0x200 SWAP2 SWAP1 PUSH2 0x1B97 JUMP JUMPDEST PUSH2 0xED3 JUMP JUMPDEST PUSH1 0x40 MLOAD PUSH2 0x212 SWAP2 SWAP1 PUSH2 0x1EA9 JUMP JUMPDEST PUSH1 0x40 MLOAD DUP1 SWAP2 SUB SWAP1 RETURN JUMPDEST CALLVALUE DUP1 ISZERO PUSH2 0x227 JUMPI PUSH1 0x0 DUP1 REVERT JUMPDEST POP PUSH2 0x242 PUSH1 0x4 DUP1 CALLDATASIZE SUB DUP2 ADD SWAP1 PUSH2 0x23D SWAP2 SWAP1 PUSH2 0x1B6E JUMP JUMPDEST PUSH2 0xF10 JUMP JUMPDEST PUSH1 0x40 MLOAD PUSH2 0x24F SWAP2 SWAP1 PUSH2 0x2026 JUMP JUMPDEST PUSH1 0x40 MLOAD DUP1 SWAP2 SUB SWAP1 RETURN JUMPDEST PUSH2 0x272 PUSH1 0x4 DUP1 CALLDATASIZE SUB DUP2 ADD SWAP1 PUSH2 0x26D SWAP2 SWAP1 PUSH2 0x1B97 JUMP JUMPDEST PUSH2 0xF59 JUMP JUMPDEST STOP JUMPDEST CALLVALUE DUP1 ISZERO PUSH2 0x280 JUMPI PUSH1 0x0 DUP1 REVERT JUMPDEST POP PUSH2 0x289 PUSH2 0x14AA JUMP JUMPDEST PUSH1 0x40 MLOAD PUSH2 0x296 SWAP2 SWAP1 PUSH2 0x2026 JUMP JUMPDEST PUSH1 0x40 MLOAD DUP1 SWAP2 SUB SWAP1 RETURN JUMPDEST CALLVALUE DUP1 ISZERO PUSH2 0x2AB JUMPI PUSH1 0x0 DUP1 REVERT JUMPDEST POP PUSH2 0x2C6 PUSH1 0x4 DUP1 CALLDATASIZE SUB DUP2 ADD SWAP1 PUSH2 0x2C1 SWAP2 SWAP1 PUSH2 0x1B97 JUMP JUMPDEST PUSH2 0x14B4 JUMP JUMPDEST STOP JUMPDEST PUSH2 0x2E2 PUSH1 0x4 DUP1 CALLDATASIZE SUB DUP2 ADD SWAP1 PUSH2 0x2DD SWAP2 SWAP1 PUSH2 0x1B97 JUMP JUMPDEST PUSH2 0x1713 JUMP JUMPDEST STOP JUMPDEST CALLVALUE DUP1 ISZERO PUSH2 0x2F0 JUMPI PUSH1 0x0 DUP1 REVERT JUMPDEST POP PUSH2 0x30B PUSH1 0x4 DUP1 CALLDATASIZE SUB DUP2 ADD SWAP1 PUSH2 0x306 SWAP2 SWAP1 PUSH2 0x1B97 JUMP JUMPDEST PUSH2 0x1A1E JUMP JUMPDEST STOP JUMPDEST PUSH1 0x0 PUSH1 0x5 SLOAD CALLVALUE EQ PUSH2 0x353 JUMPI PUSH1 0x40 MLOAD PUSH32 0x8C379A000000000000000000000000000000000000000000000000000000000 DUP2 MSTORE PUSH1 0x4 ADD PUSH2 0x34A SWAP1 PUSH2 0x1FC6 JUMP JUMPDEST PUSH1 0x40 MLOAD DUP1 SWAP2 SUB SWAP1 REVERT JUMPDEST PUSH1 0x0 DUP5 GT PUSH2 0x396 JUMPI PUSH1 0x40 MLOAD PUSH32 0x8C379A000000000000000000000000000000000000000000000000000000000 DUP2 MSTORE PUSH1 0x4 ADD PUSH2 0x38D SWAP1 PUSH2 0x2006 JUMP JUMPDEST PUSH1 0x40 MLOAD DUP1 SWAP2 SUB SWAP1 REVERT JUMPDEST PUSH1 0x0 PUSH1 0x3 DUP1 SLOAD SWAP1 POP SWAP1 POP PUSH1 0x0 PUSH20 0xFFFFFFFFFFFFFFFFFFFFFFFFFFFFFFFFFFFFFFFF AND PUSH1 0x7 PUSH1 0x0 DUP4 DUP2 MSTORE PUSH1 0x20 ADD SWAP1 DUP2 MSTORE PUSH1 0x20 ADD PUSH1 0x0 KECCAK256 PUSH1 0x0 SWAP1 SLOAD SWAP1 PUSH2 0x100 EXP SWAP1 DIV PUSH20 0xFFFFFFFFFFFFFFFFFFFFFFFFFFFFFFFFFFFFFFFF AND PUSH20 0xFFFFFFFFFFFFFFFFFFFFFFFFFFFFFFFFFFFFFFFF AND EQ PUSH2 0x442 JUMPI PUSH1 0x40 MLOAD PUSH32 0x8C379A000000000000000000000000000000000000000000000000000000000 DUP2 MSTORE PUSH1 0x4 ADD PUSH2 0x439 SWAP1 PUSH2 0x1F26 JUMP JUMPDEST PUSH1 0x40 MLOAD DUP1 SWAP2 SUB SWAP1 REVERT JUMPDEST PUSH1 0x3 PUSH1 0x40 MLOAD DUP1 PUSH1 0xC0 ADD PUSH1 0x40 MSTORE DUP1 DUP6 DUP2 MSTORE PUSH1 0x20 ADD DUP4 DUP2 MSTORE PUSH1 0x20 ADD DUP8 DUP2 MSTORE PUSH1 0x20 ADD DUP7 DUP2 MSTORE PUSH1 0x20 ADD PUSH1 0x1 ISZERO ISZERO DUP2 MSTORE PUSH1 0x20 ADD CALLER PUSH20 0xFFFFFFFFFFFFFFFFFFFFFFFFFFFFFFFFFFFFFFFF AND DUP2 MSTORE POP SWAP1 DUP1 PUSH1 0x1 DUP2 SLOAD ADD DUP1 DUP3 SSTORE DUP1 SWAP2 POP POP PUSH1 0x1 SWAP1 SUB SWAP1 PUSH1 0x0 MSTORE PUSH1 0x20 PUSH1 0x0 KECCAK256 SWAP1 PUSH1 0x5 MUL ADD PUSH1 0x0 SWAP1 SWAP2 SWAP1 SWAP2 SWAP1 SWAP2 POP PUSH1 0x0 DUP3 ADD MLOAD DUP2 PUSH1 0x0 ADD SSTORE PUSH1 0x20 DUP3 ADD MLOAD DUP2 PUSH1 0x1 ADD SSTORE PUSH1 0x40 DUP3 ADD MLOAD DUP2 PUSH1 0x2 ADD SSTORE PUSH1 0x60 DUP3 ADD MLOAD DUP2 PUSH1 0x3 ADD SSTORE PUSH1 0x80 DUP3 ADD MLOAD DUP2 PUSH1 0x4 ADD PUSH1 0x0 PUSH2 0x100 EXP DUP2 SLOAD DUP2 PUSH1 0xFF MUL NOT AND SWAP1 DUP4 ISZERO ISZERO MUL OR SWAP1 SSTORE POP PUSH1 0xA0 DUP3 ADD MLOAD DUP2 PUSH1 0x4 ADD PUSH1 0x1 PUSH2 0x100 EXP DUP2 SLOAD DUP2 PUSH20 0xFFFFFFFFFFFFFFFFFFFFFFFFFFFFFFFFFFFFFFFF MUL NOT AND SWAP1 DUP4 PUSH20 0xFFFFFFFFFFFFFFFFFFFFFFFFFFFFFFFFFFFFFFFF AND MUL OR SWAP1 SSTORE POP POP POP CALLER PUSH1 0x7 PUSH1 0x0 DUP4 DUP2 MSTORE PUSH1 0x20 ADD SWAP1 DUP2 MSTORE PUSH1 0x20 ADD PUSH1 0x0 KECCAK256 PUSH1 0x0 PUSH2 0x100 EXP DUP2 SLOAD DUP2 PUSH20 0xFFFFFFFFFFFFFFFFFFFFFFFFFFFFFFFFFFFFFFFF MUL NOT AND SWAP1 DUP4 PUSH20 0xFFFFFFFFFFFFFFFFFFFFFFFFFFFFFFFFFFFFFFFF AND MUL OR SWAP1 SSTORE POP PUSH1 0x8 PUSH1 0x0 CALLER PUSH20 0xFFFFFFFFFFFFFFFFFFFFFFFFFFFFFFFFFFFFFFFF AND PUSH20 0xFFFFFFFFFFFFFFFFFFFFFFFFFFFFFFFFFFFFFFFF AND DUP2 MSTORE PUSH1 0x20 ADD SWAP1 DUP2 MSTORE PUSH1 0x20 ADD PUSH1 0x0 KECCAK256 PUSH1 0x0 DUP2 SLOAD DUP1 SWAP3 SWAP2 SWAP1 PUSH1 0x1 ADD SWAP2 SWAP1 POP SSTORE POP PUSH1 0x9 PUSH1 0x0 DUP6 DUP2 MSTORE PUSH1 0x20 ADD SWAP1 DUP2 MSTORE PUSH1 0x20 ADD PUSH1 0x0 KECCAK256 PUSH1 0x0 DUP2 SLOAD DUP1 SWAP3 SWAP2 SWAP1 PUSH1 0x1 ADD SWAP2 SWAP1 POP SSTORE POP PUSH1 0x4 PUSH1 0x0 DUP2 SLOAD DUP1 SWAP3 SWAP2 SWAP1 PUSH1 0x1 ADD SWAP2 SWAP1 POP SSTORE POP PUSH1 0x2 PUSH1 0x0 SWAP1 SLOAD SWAP1 PUSH2 0x100 EXP SWAP1 DIV PUSH20 0xFFFFFFFFFFFFFFFFFFFFFFFFFFFFFFFFFFFFFFFF AND PUSH20 0xFFFFFFFFFFFFFFFFFFFFFFFFFFFFFFFFFFFFFFFF AND PUSH2 0x8FC CALLVALUE SWAP1 DUP2 ISZERO MUL SWAP1 PUSH1 0x40 MLOAD PUSH1 0x0 PUSH1 0x40 MLOAD DUP1 DUP4 SUB DUP2 DUP6 DUP9 DUP9 CALL SWAP4 POP POP POP POP ISZERO DUP1 ISZERO PUSH2 0x682 JUMPI RETURNDATASIZE PUSH1 0x0 DUP1 RETURNDATACOPY RETURNDATASIZE PUSH1 0x0 REVERT JUMPDEST POP DUP1 SWAP2 POP POP SWAP4 SWAP3 POP POP POP JUMP JUMPDEST PUSH1 0x60 PUSH1 0x0 DUP1 PUSH1 0x4 SLOAD PUSH8 0xFFFFFFFFFFFFFFFF DUP2 GT ISZERO PUSH2 0x6D5 JUMPI PUSH32 0x4E487B7100000000000000000000000000000000000000000000000000000000 PUSH1 0x0 MSTORE PUSH1 0x41 PUSH1 0x4 MSTORE PUSH1 0x24 PUSH1 0x0 REVERT JUMPDEST PUSH1 0x40 MLOAD SWAP1 DUP1 DUP3 MSTORE DUP1 PUSH1 0x20 MUL PUSH1 0x20 ADD DUP3 ADD PUSH1 0x40 MSTORE DUP1 ISZERO PUSH2 0x70E JUMPI DUP2 PUSH1 0x20 ADD JUMPDEST PUSH2 0x6FB PUSH2 0x1AF6 JUMP JUMPDEST DUP2 MSTORE PUSH1 0x20 ADD SWAP1 PUSH1 0x1 SWAP1 SUB SWAP1 DUP2 PUSH2 0x6F3 JUMPI SWAP1 POP JUMPDEST POP SWAP1 POP PUSH1 0x0 JUMPDEST PUSH1 0x3 DUP1 SLOAD SWAP1 POP DUP2 LT ISZERO PUSH2 0x8D8 JUMPI PUSH1 0x1 ISZERO ISZERO PUSH1 0x3 DUP3 DUP2 SLOAD DUP2 LT PUSH2 0x75F JUMPI PUSH32 0x4E487B7100000000000000000000000000000000000000000000000000000000 PUSH1 0x0 MSTORE PUSH1 0x32 PUSH1 0x4 MSTORE PUSH1 0x24 PUSH1 0x0 REVERT JUMPDEST SWAP1 PUSH1 0x0 MSTORE PUSH1 0x20 PUSH1 0x0 KECCAK256 SWAP1 PUSH1 0x5 MUL ADD PUSH1 0x4 ADD PUSH1 0x0 SWAP1 SLOAD SWAP1 PUSH2 0x100 EXP SWAP1 DIV PUSH1 0xFF AND ISZERO ISZERO EQ ISZERO PUSH2 0x8C5 JUMPI PUSH1 0x3 DUP2 DUP2 SLOAD DUP2 LT PUSH2 0x7C0 JUMPI PUSH32 0x4E487B7100000000000000000000000000000000000000000000000000000000 PUSH1 0x0 MSTORE PUSH1 0x32 PUSH1 0x4 MSTORE PUSH1 0x24 PUSH1 0x0 REVERT JUMPDEST SWAP1 PUSH1 0x0 MSTORE PUSH1 0x20 PUSH1 0x0 KECCAK256 SWAP1 PUSH1 0x5 MUL ADD PUSH1 0x40 MLOAD DUP1 PUSH1 0xC0 ADD PUSH1 0x40 MSTORE SWAP1 DUP2 PUSH1 0x0 DUP3 ADD SLOAD DUP2 MSTORE PUSH1 0x20 ADD PUSH1 0x1 DUP3 ADD SLOAD DUP2 MSTORE PUSH1 0x20 ADD PUSH1 0x2 DUP3 ADD SLOAD DUP2 MSTORE PUSH1 0x20 ADD PUSH1 0x3 DUP3 ADD SLOAD DUP2 MSTORE PUSH1 0x20 ADD PUSH1 0x4 DUP3 ADD PUSH1 0x0 SWAP1 SLOAD SWAP1 PUSH2 0x100 EXP SWAP1 DIV PUSH1 0xFF AND ISZERO ISZERO ISZERO ISZERO DUP2 MSTORE PUSH1 0x20 ADD PUSH1 0x4 DUP3 ADD PUSH1 0x1 SWAP1 SLOAD SWAP1 PUSH2 0x100 EXP SWAP1 DIV PUSH20 0xFFFFFFFFFFFFFFFFFFFFFFFFFFFFFFFFFFFFFFFF AND PUSH20 0xFFFFFFFFFFFFFFFFFFFFFFFFFFFFFFFFFFFFFFFF AND PUSH20 0xFFFFFFFFFFFFFFFFFFFFFFFFFFFFFFFFFFFFFFFF AND DUP2 MSTORE POP POP DUP3 DUP5 DUP2 MLOAD DUP2 LT PUSH2 0x8AB JUMPI PUSH32 0x4E487B7100000000000000000000000000000000000000000000000000000000 PUSH1 0x0 MSTORE PUSH1 0x32 PUSH1 0x4 MSTORE PUSH1 0x24 PUSH1 0x0 REVERT JUMPDEST PUSH1 0x20 MUL PUSH1 0x20 ADD ADD DUP2 SWAP1 MSTORE POP DUP3 DUP1 PUSH2 0x8C1 SWAP1 PUSH2 0x2192 JUMP JUMPDEST SWAP4 POP POP JUMPDEST DUP1 DUP1 PUSH2 0x8D0 SWAP1 PUSH2 0x2192 JUMP JUMPDEST SWAP2 POP POP PUSH2 0x714 JUMP JUMPDEST POP DUP1 SWAP3 POP POP POP SWAP1 JUMP JUMPDEST PUSH1 0x0 PUSH1 0x6 SLOAD SWAP1 POP SWAP1 JUMP JUMPDEST PUSH1 0x2 PUSH1 0x0 SWAP1 SLOAD SWAP1 PUSH2 0x100 EXP SWAP1 DIV PUSH20 0xFFFFFFFFFFFFFFFFFFFFFFFFFFFFFFFFFFFFFFFF AND PUSH20 0xFFFFFFFFFFFFFFFFFFFFFFFFFFFFFFFFFFFFFFFF AND CALLER PUSH20 0xFFFFFFFFFFFFFFFFFFFFFFFFFFFFFFFFFFFFFFFF AND EQ PUSH2 0x97B JUMPI PUSH1 0x40 MLOAD PUSH32 0x8C379A000000000000000000000000000000000000000000000000000000000 DUP2 MSTORE PUSH1 0x4 ADD PUSH2 0x972 SWAP1 PUSH2 0x1FE6 JUMP JUMPDEST PUSH1 0x40 MLOAD DUP1 SWAP2 SUB SWAP1 REVERT JUMPDEST DUP1 PUSH1 0x6 DUP2 SWAP1 SSTORE POP POP JUMP JUMPDEST PUSH1 0x60 PUSH1 0x0 DUP1 PUSH1 0x9 PUSH1 0x0 DUP6 DUP2 MSTORE PUSH1 0x20 ADD SWAP1 DUP2 MSTORE PUSH1 0x20 ADD PUSH1 0x0 KECCAK256 SLOAD PUSH8 0xFFFFFFFFFFFFFFFF DUP2 GT ISZERO PUSH2 0x9DD JUMPI PUSH32 0x4E487B7100000000000000000000000000000000000000000000000000000000 PUSH1 0x0 MSTORE PUSH1 0x41 PUSH1 0x4 MSTORE PUSH1 0x24 PUSH1 0x0 REVERT JUMPDEST PUSH1 0x40 MLOAD SWAP1 DUP1 DUP3 MSTORE DUP1 PUSH1 0x20 MUL PUSH1 0x20 ADD DUP3 ADD PUSH1 0x40 MSTORE DUP1 ISZERO PUSH2 0xA16 JUMPI DUP2 PUSH1 0x20 ADD JUMPDEST PUSH2 0xA03 PUSH2 0x1AF6 JUMP JUMPDEST DUP2 MSTORE PUSH1 0x20 ADD SWAP1 PUSH1 0x1 SWAP1 SUB SWAP1 DUP2 PUSH2 0x9FB JUMPI SWAP1 POP JUMPDEST POP SWAP1 POP PUSH1 0x0 JUMPDEST PUSH1 0x3 DUP1 SLOAD SWAP1 POP DUP2 LT ISZERO PUSH2 0xC36 JUMPI DUP5 PUSH1 0x3 DUP3 DUP2 SLOAD DUP2 LT PUSH2 0xA64 JUMPI PUSH32 0x4E487B7100000000000000000000000000000000000000000000000000000000 PUSH1 0x0 MSTORE PUSH1 0x32 PUSH1 0x4 MSTORE PUSH1 0x24 PUSH1 0x0 REVERT JUMPDEST SWAP1 PUSH1 0x0 MSTORE PUSH1 0x20 PUSH1 0x0 KECCAK256 SWAP1 PUSH1 0x5 MUL ADD PUSH1 0x3 ADD SLOAD EQ DUP1 ISZERO PUSH2 0xADF JUMPI POP PUSH1 0x1 ISZERO ISZERO PUSH1 0x3 DUP3 DUP2 SLOAD DUP2 LT PUSH2 0xABC JUMPI PUSH32 0x4E487B7100000000000000000000000000000000000000000000000000000000 PUSH1 0x0 MSTORE PUSH1 0x32 PUSH1 0x4 MSTORE PUSH1 0x24 PUSH1 0x0 REVERT JUMPDEST SWAP1 PUSH1 0x0 MSTORE PUSH1 0x20 PUSH1 0x0 KECCAK256 SWAP1 PUSH1 0x5 MUL ADD PUSH1 0x4 ADD PUSH1 0x0 SWAP1 SLOAD SWAP1 PUSH2 0x100 EXP SWAP1 DIV PUSH1 0xFF AND ISZERO ISZERO EQ JUMPDEST ISZERO PUSH2 0xC23 JUMPI PUSH1 0x3 DUP2 DUP2 SLOAD DUP2 LT PUSH2 0xB1E JUMPI PUSH32 0x4E487B7100000000000000000000000000000000000000000000000000000000 PUSH1 0x0 MSTORE PUSH1 0x32 PUSH1 0x4 MSTORE PUSH1 0x24 PUSH1 0x0 REVERT JUMPDEST SWAP1 PUSH1 0x0 MSTORE PUSH1 0x20 PUSH1 0x0 KECCAK256 SWAP1 PUSH1 0x5 MUL ADD PUSH1 0x40 MLOAD DUP1 PUSH1 0xC0 ADD PUSH1 0x40 MSTORE SWAP1 DUP2 PUSH1 0x0 DUP3 ADD SLOAD DUP2 MSTORE PUSH1 0x20 ADD PUSH1 0x1 DUP3 ADD SLOAD DUP2 MSTORE PUSH1 0x20 ADD PUSH1 0x2 DUP3 ADD SLOAD DUP2 MSTORE PUSH1 0x20 ADD PUSH1 0x3 DUP3 ADD SLOAD DUP2 MSTORE PUSH1 0x20 ADD PUSH1 0x4 DUP3 ADD PUSH1 0x0 SWAP1 SLOAD SWAP1 PUSH2 0x100 EXP SWAP1 DIV PUSH1 0xFF AND ISZERO ISZERO ISZERO ISZERO DUP2 MSTORE PUSH1 0x20 ADD PUSH1 0x4 DUP3 ADD PUSH1 0x1 SWAP1 SLOAD SWAP1 PUSH2 0x100 EXP SWAP1 DIV PUSH20 0xFFFFFFFFFFFFFFFFFFFFFFFFFFFFFFFFFFFFFFFF AND PUSH20 0xFFFFFFFFFFFFFFFFFFFFFFFFFFFFFFFFFFFFFFFF AND PUSH20 0xFFFFFFFFFFFFFFFFFFFFFFFFFFFFFFFFFFFFFFFF AND DUP2 MSTORE POP POP DUP3 DUP5 DUP2 MLOAD DUP2 LT PUSH2 0xC09 JUMPI PUSH32 0x4E487B7100000000000000000000000000000000000000000000000000000000 PUSH1 0x0 MSTORE PUSH1 0x32 PUSH1 0x4 MSTORE PUSH1 0x24 PUSH1 0x0 REVERT JUMPDEST PUSH1 0x20 MUL PUSH1 0x20 ADD ADD DUP2 SWAP1 MSTORE POP DUP3 DUP1 PUSH2 0xC1F SWAP1 PUSH2 0x2192 JUMP JUMPDEST SWAP4 POP POP JUMPDEST DUP1 DUP1 PUSH2 0xC2E SWAP1 PUSH2 0x2192 JUMP JUMPDEST SWAP2 POP POP PUSH2 0xA1C JUMP JUMPDEST POP DUP1 SWAP3 POP POP POP SWAP2 SWAP1 POP JUMP JUMPDEST PUSH1 0x60 PUSH1 0x0 DUP1 PUSH1 0x8 PUSH1 0x0 CALLER PUSH20 0xFFFFFFFFFFFFFFFFFFFFFFFFFFFFFFFFFFFFFFFF AND PUSH20 0xFFFFFFFFFFFFFFFFFFFFFFFFFFFFFFFFFFFFFFFF AND DUP2 MSTORE PUSH1 0x20 ADD SWAP1 DUP2 MSTORE PUSH1 0x20 ADD PUSH1 0x0 KECCAK256 SLOAD PUSH8 0xFFFFFFFFFFFFFFFF DUP2 GT ISZERO PUSH2 0xCC5 JUMPI PUSH32 0x4E487B7100000000000000000000000000000000000000000000000000000000 PUSH1 0x0 MSTORE PUSH1 0x41 PUSH1 0x4 MSTORE PUSH1 0x24 PUSH1 0x0 REVERT JUMPDEST PUSH1 0x40 MLOAD SWAP1 DUP1 DUP3 MSTORE DUP1 PUSH1 0x20 MUL PUSH1 0x20 ADD DUP3 ADD PUSH1 0x40 MSTORE DUP1 ISZERO PUSH2 0xCFE JUMPI DUP2 PUSH1 0x20 ADD JUMPDEST PUSH2 0xCEB PUSH2 0x1AF6 JUMP JUMPDEST DUP2 MSTORE PUSH1 0x20 ADD SWAP1 PUSH1 0x1 SWAP1 SUB SWAP1 DUP2 PUSH2 0xCE3 JUMPI SWAP1 POP JUMPDEST POP SWAP1 POP PUSH1 0x0 JUMPDEST PUSH1 0x3 DUP1 SLOAD SWAP1 POP DUP2 LT ISZERO PUSH2 0xECA JUMPI CALLER PUSH20 0xFFFFFFFFFFFFFFFFFFFFFFFFFFFFFFFFFFFFFFFF AND PUSH1 0x7 PUSH1 0x0 DUP4 DUP2 MSTORE PUSH1 0x20 ADD SWAP1 DUP2 MSTORE PUSH1 0x20 ADD PUSH1 0x0 KECCAK256 PUSH1 0x0 SWAP1 SLOAD SWAP1 PUSH2 0x100 EXP SWAP1 DIV PUSH20 0xFFFFFFFFFFFFFFFFFFFFFFFFFFFFFFFFFFFFFFFF AND PUSH20 0xFFFFFFFFFFFFFFFFFFFFFFFFFFFFFFFFFFFFFFFF AND EQ ISZERO PUSH2 0xEB7 JUMPI PUSH1 0x3 DUP2 DUP2 SLOAD DUP2 LT PUSH2 0xDB2 JUMPI PUSH32 0x4E487B7100000000000000000000000000000000000000000000000000000000 PUSH1 0x0 MSTORE PUSH1 0x32 PUSH1 0x4 MSTORE PUSH1 0x24 PUSH1 0x0 REVERT JUMPDEST SWAP1 PUSH1 0x0 MSTORE PUSH1 0x20 PUSH1 0x0 KECCAK256 SWAP1 PUSH1 0x5 MUL ADD PUSH1 0x40 MLOAD DUP1 PUSH1 0xC0 ADD PUSH1 0x40 MSTORE SWAP1 DUP2 PUSH1 0x0 DUP3 ADD SLOAD DUP2 MSTORE PUSH1 0x20 ADD PUSH1 0x1 DUP3 ADD SLOAD DUP2 MSTORE PUSH1 0x20 ADD PUSH1 0x2 DUP3 ADD SLOAD DUP2 MSTORE PUSH1 0x20 ADD PUSH1 0x3 DUP3 ADD SLOAD DUP2 MSTORE PUSH1 0x20 ADD PUSH1 0x4 DUP3 ADD PUSH1 0x0 SWAP1 SLOAD SWAP1 PUSH2 0x100 EXP SWAP1 DIV PUSH1 0xFF AND ISZERO ISZERO ISZERO ISZERO DUP2 MSTORE PUSH1 0x20 ADD PUSH1 0x4 DUP3 ADD PUSH1 0x1 SWAP1 SLOAD SWAP1 PUSH2 0x100 EXP SWAP1 DIV PUSH20 0xFFFFFFFFFFFFFFFFFFFFFFFFFFFFFFFFFFFFFFFF AND PUSH20 0xFFFFFFFFFFFFFFFFFFFFFFFFFFFFFFFFFFFFFFFF AND PUSH20 0xFFFFFFFFFFFFFFFFFFFFFFFFFFFFFFFFFFFFFFFF AND DUP2 MSTORE POP POP DUP3 DUP5 DUP2 MLOAD DUP2 LT PUSH2 0xE9D JUMPI PUSH32 0x4E487B7100000000000000000000000000000000000000000000000000000000 PUSH1 0x0 MSTORE PUSH1 0x32 PUSH1 0x4 MSTORE PUSH1 0x24 PUSH1 0x0 REVERT JUMPDEST PUSH1 0x20 MUL PUSH1 0x20 ADD ADD DUP2 SWAP1 MSTORE POP DUP3 DUP1 PUSH2 0xEB3 SWAP1 PUSH2 0x2192 JUMP JUMPDEST SWAP4 POP POP JUMPDEST DUP1 DUP1 PUSH2 0xEC2 SWAP1 PUSH2 0x2192 JUMP JUMPDEST SWAP2 POP POP PUSH2 0xD04 JUMP JUMPDEST POP DUP1 SWAP3 POP POP POP SWAP1 JUMP JUMPDEST PUSH1 0x0 PUSH1 0x7 PUSH1 0x0 DUP4 DUP2 MSTORE PUSH1 0x20 ADD SWAP1 DUP2 MSTORE PUSH1 0x20 ADD PUSH1 0x0 KECCAK256 PUSH1 0x0 SWAP1 SLOAD SWAP1 PUSH2 0x100 EXP SWAP1 DIV PUSH20 0xFFFFFFFFFFFFFFFFFFFFFFFFFFFFFFFFFFFFFFFF AND SWAP1 POP SWAP2 SWAP1 POP JUMP JUMPDEST PUSH1 0x0 PUSH1 0x8 PUSH1 0x0 DUP4 PUSH20 0xFFFFFFFFFFFFFFFFFFFFFFFFFFFFFFFFFFFFFFFF AND PUSH20 0xFFFFFFFFFFFFFFFFFFFFFFFFFFFFFFFFFFFFFFFF AND DUP2 MSTORE PUSH1 0x20 ADD SWAP1 DUP2 MSTORE PUSH1 0x20 ADD PUSH1 0x0 KECCAK256 SLOAD SWAP1 POP SWAP2 SWAP1 POP JUMP JUMPDEST PUSH1 0x3 DUP2 DUP2 SLOAD DUP2 LT PUSH2 0xF93 JUMPI PUSH32 0x4E487B7100000000000000000000000000000000000000000000000000000000 PUSH1 0x0 MSTORE PUSH1 0x32 PUSH1 0x4 MSTORE PUSH1 0x24 PUSH1 0x0 REVERT JUMPDEST SWAP1 PUSH1 0x0 MSTORE PUSH1 0x20 PUSH1 0x0 KECCAK256 SWAP1 PUSH1 0x5 MUL ADD PUSH1 0x2 ADD SLOAD CALLVALUE EQ PUSH2 0xFE6 JUMPI PUSH1 0x40 MLOAD PUSH32 0x8C379A000000000000000000000000000000000000000000000000000000000 DUP2 MSTORE PUSH1 0x4 ADD PUSH2 0xFDD SWAP1 PUSH2 0x1F46 JUMP JUMPDEST PUSH1 0x40 MLOAD DUP1 SWAP2 SUB SWAP1 REVERT JUMPDEST PUSH1 0x0 PUSH20 0xFFFFFFFFFFFFFFFFFFFFFFFFFFFFFFFFFFFFFFFF AND PUSH1 0x7 PUSH1 0x0 DUP4 DUP2 MSTORE PUSH1 0x20 ADD SWAP1 DUP2 MSTORE PUSH1 0x20 ADD PUSH1 0x0 KECCAK256 PUSH1 0x0 SWAP1 SLOAD SWAP1 PUSH2 0x100 EXP SWAP1 DIV PUSH20 0xFFFFFFFFFFFFFFFFFFFFFFFFFFFFFFFFFFFFFFFF AND PUSH20 0xFFFFFFFFFFFFFFFFFFFFFFFFFFFFFFFFFFFFFFFF AND EQ ISZERO PUSH2 0x1089 JUMPI PUSH1 0x40 MLOAD PUSH32 0x8C379A000000000000000000000000000000000000000000000000000000000 DUP2 MSTORE PUSH1 0x4 ADD PUSH2 0x1080 SWAP1 PUSH2 0x1F66 JUMP JUMPDEST PUSH1 0x40 MLOAD DUP1 SWAP2 SUB SWAP1 REVERT JUMPDEST CALLER PUSH20 0xFFFFFFFFFFFFFFFFFFFFFFFFFFFFFFFFFFFFFFFF AND PUSH1 0x7 PUSH1 0x0 DUP4 DUP2 MSTORE PUSH1 0x20 ADD SWAP1 DUP2 MSTORE PUSH1 0x20 ADD PUSH1 0x0 KECCAK256 PUSH1 0x0 SWAP1 SLOAD SWAP1 PUSH2 0x100 EXP SWAP1 DIV PUSH20 0xFFFFFFFFFFFFFFFFFFFFFFFFFFFFFFFFFFFFFFFF AND PUSH20 0xFFFFFFFFFFFFFFFFFFFFFFFFFFFFFFFFFFFFFFFF AND EQ ISZERO PUSH2 0x112B JUMPI PUSH1 0x40 MLOAD PUSH32 0x8C379A000000000000000000000000000000000000000000000000000000000 DUP2 MSTORE PUSH1 0x4 ADD PUSH2 0x1122 SWAP1 PUSH2 0x1EE6 JUMP JUMPDEST PUSH1 0x40 MLOAD DUP1 SWAP2 SUB SWAP1 REVERT JUMPDEST PUSH1 0x0 PUSH1 0x7 PUSH1 0x0 DUP4 DUP2 MSTORE PUSH1 0x20 ADD SWAP1 DUP2 MSTORE PUSH1 0x20 ADD PUSH1 0x0 KECCAK256 PUSH1 0x0 SWAP1 SLOAD SWAP1 PUSH2 0x100 EXP SWAP1 DIV PUSH20 0xFFFFFFFFFFFFFFFFFFFFFFFFFFFFFFFFFFFFFFFF AND SWAP1 POP PUSH1 0x0 PUSH1 0x3 DUP4 DUP2 SLOAD DUP2 LT PUSH2 0x119F JUMPI PUSH32 0x4E487B7100000000000000000000000000000000000000000000000000000000 PUSH1 0x0 MSTORE PUSH1 0x32 PUSH1 0x4 MSTORE PUSH1 0x24 PUSH1 0x0 REVERT JUMPDEST SWAP1 PUSH1 0x0 MSTORE PUSH1 0x20 PUSH1 0x0 KECCAK256 SWAP1 PUSH1 0x5 MUL ADD SWAP1 POP PUSH1 0x0 DUP2 PUSH1 0x4 ADD PUSH1 0x0 PUSH2 0x100 EXP DUP2 SLOAD DUP2 PUSH1 0xFF MUL NOT AND SWAP1 DUP4 ISZERO ISZERO MUL OR SWAP1 SSTORE POP CALLER PUSH1 0x7 PUSH1 0x0 DUP6 DUP2 MSTORE PUSH1 0x20 ADD SWAP1 DUP2 MSTORE PUSH1 0x20 ADD PUSH1 0x0 KECCAK256 PUSH1 0x0 PUSH2 0x100 EXP DUP2 SLOAD DUP2 PUSH20 0xFFFFFFFFFFFFFFFFFFFFFFFFFFFFFFFFFFFFFFFF MUL NOT AND SWAP1 DUP4 PUSH20 0xFFFFFFFFFFFFFFFFFFFFFFFFFFFFFFFFFFFFFFFF AND MUL OR SWAP1 SSTORE POP PUSH1 0x8 PUSH1 0x0 DUP4 PUSH20 0xFFFFFFFFFFFFFFFFFFFFFFFFFFFFFFFFFFFFFFFF AND PUSH20 0xFFFFFFFFFFFFFFFFFFFFFFFFFFFFFFFFFFFFFFFF AND DUP2 MSTORE PUSH1 0x20 ADD SWAP1 DUP2 MSTORE PUSH1 0x20 ADD PUSH1 0x0 KECCAK256 PUSH1 0x0 DUP2 SLOAD DUP1 SWAP3 SWAP2 SWAP1 PUSH1 0x1 SWAP1 SUB SWAP2 SWAP1 POP SSTORE POP PUSH1 0x8 PUSH1 0x0 CALLER PUSH20 0xFFFFFFFFFFFFFFFFFFFFFFFFFFFFFFFFFFFFFFFF AND PUSH20 0xFFFFFFFFFFFFFFFFFFFFFFFFFFFFFFFFFFFFFFFF AND DUP2 MSTORE PUSH1 0x20 ADD SWAP1 DUP2 MSTORE PUSH1 0x20 ADD PUSH1 0x0 KECCAK256 PUSH1 0x0 DUP2 SLOAD DUP1 SWAP3 SWAP2 SWAP1 PUSH1 0x1 ADD SWAP2 SWAP1 POP SSTORE POP PUSH1 0x4 PUSH1 0x0 DUP2 SLOAD DUP1 SWAP3 SWAP2 SWAP1 PUSH1 0x1 SWAP1 SUB SWAP2 SWAP1 POP SSTORE POP DUP2 PUSH20 0xFFFFFFFFFFFFFFFFFFFFFFFFFFFFFFFFFFFFFFFF AND DUP2 PUSH1 0x4 ADD PUSH1 0x1 SWAP1 SLOAD SWAP1 PUSH2 0x100 EXP SWAP1 DIV PUSH20 0xFFFFFFFFFFFFFFFFFFFFFFFFFFFFFFFFFFFFFFFF AND PUSH20 0xFFFFFFFFFFFFFFFFFFFFFFFFFFFFFFFFFFFFFFFF AND EQ ISZERO PUSH2 0x1374 JUMPI DUP2 PUSH20 0xFFFFFFFFFFFFFFFFFFFFFFFFFFFFFFFFFFFFFFFF AND PUSH2 0x8FC CALLVALUE SWAP1 DUP2 ISZERO MUL SWAP1 PUSH1 0x40 MLOAD PUSH1 0x0 PUSH1 0x40 MLOAD DUP1 DUP4 SUB DUP2 DUP6 DUP9 DUP9 CALL SWAP4 POP POP POP POP ISZERO DUP1 ISZERO PUSH2 0x136E JUMPI RETURNDATASIZE PUSH1 0x0 DUP1 RETURNDATACOPY RETURNDATASIZE PUSH1 0x0 REVERT JUMPDEST POP PUSH2 0x1440 JUMP JUMPDEST PUSH1 0x0 DUP1 PUSH2 0x1383 CALLVALUE PUSH1 0x6 SLOAD PUSH2 0x1AB8 JUMP JUMPDEST DUP1 SWAP3 POP DUP2 SWAP4 POP POP POP DUP3 PUSH1 0x4 ADD PUSH1 0x1 SWAP1 SLOAD SWAP1 PUSH2 0x100 EXP SWAP1 DIV PUSH20 0xFFFFFFFFFFFFFFFFFFFFFFFFFFFFFFFFFFFFFFFF AND PUSH20 0xFFFFFFFFFFFFFFFFFFFFFFFFFFFFFFFFFFFFFFFF AND PUSH2 0x8FC DUP4 SWAP1 DUP2 ISZERO MUL SWAP1 PUSH1 0x40 MLOAD PUSH1 0x0 PUSH1 0x40 MLOAD DUP1 DUP4 SUB DUP2 DUP6 DUP9 DUP9 CALL SWAP4 POP POP POP POP ISZERO DUP1 ISZERO PUSH2 0x13F5 JUMPI RETURNDATASIZE PUSH1 0x0 DUP1 RETURNDATACOPY RETURNDATASIZE PUSH1 0x0 REVERT JUMPDEST POP DUP4 PUSH20 0xFFFFFFFFFFFFFFFFFFFFFFFFFFFFFFFFFFFFFFFF AND PUSH2 0x8FC DUP3 SWAP1 DUP2 ISZERO MUL SWAP1 PUSH1 0x40 MLOAD PUSH1 0x0 PUSH1 0x40 MLOAD DUP1 DUP4 SUB DUP2 DUP6 DUP9 DUP9 CALL SWAP4 POP POP POP POP ISZERO DUP1 ISZERO PUSH2 0x143C JUMPI RETURNDATASIZE PUSH1 0x0 DUP1 RETURNDATACOPY RETURNDATASIZE PUSH1 0x0 REVERT JUMPDEST POP POP POP JUMPDEST CALLER PUSH20 0xFFFFFFFFFFFFFFFFFFFFFFFFFFFFFFFFFFFFFFFF AND DUP3 PUSH20 0xFFFFFFFFFFFFFFFFFFFFFFFFFFFFFFFFFFFFFFFF AND PUSH32 0xDDF252AD1BE2C89B69C2B068FC378DAA952BA7F163C4A11628F55A4DF523B3EF DUP6 PUSH1 0x40 MLOAD PUSH2 0x149D SWAP2 SWAP1 PUSH2 0x2026 JUMP JUMPDEST PUSH1 0x40 MLOAD DUP1 SWAP2 SUB SWAP1 LOG3 POP POP POP JUMP JUMPDEST PUSH1 0x0 PUSH1 0x5 SLOAD SWAP1 POP SWAP1 JUMP JUMPDEST DUP1 CALLER PUSH20 0xFFFFFFFFFFFFFFFFFFFFFFFFFFFFFFFFFFFFFFFF AND PUSH1 0x7 PUSH1 0x0 DUP4 DUP2 MSTORE PUSH1 0x20 ADD SWAP1 DUP2 MSTORE PUSH1 0x20 ADD PUSH1 0x0 KECCAK256 PUSH1 0x0 SWAP1 SLOAD SWAP1 PUSH2 0x100 EXP SWAP1 DIV PUSH20 0xFFFFFFFFFFFFFFFFFFFFFFFFFFFFFFFFFFFFFFFF AND PUSH20 0xFFFFFFFFFFFFFFFFFFFFFFFFFFFFFFFFFFFFFFFF AND EQ PUSH2 0x1556 JUMPI PUSH1 0x40 MLOAD PUSH32 0x8C379A000000000000000000000000000000000000000000000000000000000 DUP2 MSTORE PUSH1 0x4 ADD PUSH2 0x154D SWAP1 PUSH2 0x1F86 JUMP JUMPDEST PUSH1 0x40 MLOAD DUP1 SWAP2 SUB SWAP1 REVERT JUMPDEST PUSH1 0x0 PUSH20 0xFFFFFFFFFFFFFFFFFFFFFFFFFFFFFFFFFFFFFFFF AND PUSH1 0x7 PUSH1 0x0 DUP5 DUP2 MSTORE PUSH1 0x20 ADD SWAP1 DUP2 MSTORE PUSH1 0x20 ADD PUSH1 0x0 KECCAK256 PUSH1 0x0 SWAP1 SLOAD SWAP1 PUSH2 0x100 EXP SWAP1 DIV PUSH20 0xFFFFFFFFFFFFFFFFFFFFFFFFFFFFFFFFFFFFFFFF AND PUSH20 0xFFFFFFFFFFFFFFFFFFFFFFFFFFFFFFFFFFFFFFFF AND EQ ISZERO PUSH2 0x15F9 JUMPI PUSH1 0x40 MLOAD PUSH32 0x8C379A000000000000000000000000000000000000000000000000000000000 DUP2 MSTORE PUSH1 0x4 ADD PUSH2 0x15F0 SWAP1 PUSH2 0x1F66 JUMP JUMPDEST PUSH1 0x40 MLOAD DUP1 SWAP2 SUB SWAP1 REVERT JUMPDEST PUSH1 0x1 ISZERO ISZERO PUSH1 0x3 DUP4 DUP2 SLOAD DUP2 LT PUSH2 0x1637 JUMPI PUSH32 0x4E487B7100000000000000000000000000000000000000000000000000000000 PUSH1 0x0 MSTORE PUSH1 0x32 PUSH1 0x4 MSTORE PUSH1 0x24 PUSH1 0x0 REVERT JUMPDEST SWAP1 PUSH1 0x0 MSTORE PUSH1 0x20 PUSH1 0x0 KECCAK256 SWAP1 PUSH1 0x5 MUL ADD PUSH1 0x4 ADD PUSH1 0x0 SWAP1 SLOAD SWAP1 PUSH2 0x100 EXP SWAP1 DIV PUSH1 0xFF AND ISZERO ISZERO EQ PUSH2 0x1698 JUMPI PUSH1 0x40 MLOAD PUSH32 0x8C379A000000000000000000000000000000000000000000000000000000000 DUP2 MSTORE PUSH1 0x4 ADD PUSH2 0x168F SWAP1 PUSH2 0x1F06 JUMP JUMPDEST PUSH1 0x40 MLOAD DUP1 SWAP2 SUB SWAP1 REVERT JUMPDEST PUSH1 0x0 PUSH1 0x3 DUP4 DUP2 SLOAD DUP2 LT PUSH2 0x16D4 JUMPI PUSH32 0x4E487B7100000000000000000000000000000000000000000000000000000000 PUSH1 0x0 MSTORE PUSH1 0x32 PUSH1 0x4 MSTORE PUSH1 0x24 PUSH1 0x0 REVERT JUMPDEST SWAP1 PUSH1 0x0 MSTORE PUSH1 0x20 PUSH1 0x0 KECCAK256 SWAP1 PUSH1 0x5 MUL ADD PUSH1 0x4 ADD PUSH1 0x0 PUSH2 0x100 EXP DUP2 SLOAD DUP2 PUSH1 0xFF MUL NOT AND SWAP1 DUP4 ISZERO ISZERO MUL OR SWAP1 SSTORE POP PUSH1 0x4 PUSH1 0x0 DUP2 SLOAD DUP1 SWAP3 SWAP2 SWAP1 PUSH1 0x1 SWAP1 SUB SWAP2 SWAP1 POP SSTORE POP POP POP JUMP JUMPDEST PUSH1 0x5 SLOAD CALLVALUE EQ PUSH2 0x1757 JUMPI PUSH1 0x40 MLOAD PUSH32 0x8C379A000000000000000000000000000000000000000000000000000000000 DUP2 MSTORE PUSH1 0x4 ADD PUSH2 0x174E SWAP1 PUSH2 0x1FC6 JUMP JUMPDEST PUSH1 0x40 MLOAD DUP1 SWAP2 SUB SWAP1 REVERT JUMPDEST DUP1 CALLER PUSH20 0xFFFFFFFFFFFFFFFFFFFFFFFFFFFFFFFFFFFFFFFF AND PUSH1 0x7 PUSH1 0x0 DUP4 DUP2 MSTORE PUSH1 0x20 ADD SWAP1 DUP2 MSTORE PUSH1 0x20 ADD PUSH1 0x0 KECCAK256 PUSH1 0x0 SWAP1 SLOAD SWAP1 PUSH2 0x100 EXP SWAP1 DIV PUSH20 0xFFFFFFFFFFFFFFFFFFFFFFFFFFFFFFFFFFFFFFFF AND PUSH20 0xFFFFFFFFFFFFFFFFFFFFFFFFFFFFFFFFFFFFFFFF AND EQ PUSH2 0x17F9 JUMPI PUSH1 0x40 MLOAD PUSH32 0x8C379A000000000000000000000000000000000000000000000000000000000 DUP2 MSTORE PUSH1 0x4 ADD PUSH2 0x17F0 SWAP1 PUSH2 0x1F86 JUMP JUMPDEST PUSH1 0x40 MLOAD DUP1 SWAP2 SUB SWAP1 REVERT JUMPDEST PUSH1 0x0 PUSH20 0xFFFFFFFFFFFFFFFFFFFFFFFFFFFFFFFFFFFFFFFF AND PUSH1 0x7 PUSH1 0x0 DUP5 DUP2 MSTORE PUSH1 0x20 ADD SWAP1 DUP2 MSTORE PUSH1 0x20 ADD PUSH1 0x0 KECCAK256 PUSH1 0x0 SWAP1 SLOAD SWAP1 PUSH2 0x100 EXP SWAP1 DIV PUSH20 0xFFFFFFFFFFFFFFFFFFFFFFFFFFFFFFFFFFFFFFFF AND PUSH20 0xFFFFFFFFFFFFFFFFFFFFFFFFFFFFFFFFFFFFFFFF AND EQ ISZERO PUSH2 0x189C JUMPI PUSH1 0x40 MLOAD PUSH32 0x8C379A000000000000000000000000000000000000000000000000000000000 DUP2 MSTORE PUSH1 0x4 ADD PUSH2 0x1893 SWAP1 PUSH2 0x1F66 JUMP JUMPDEST PUSH1 0x40 MLOAD DUP1 SWAP2 SUB SWAP1 REVERT JUMPDEST PUSH1 0x0 ISZERO ISZERO PUSH1 0x3 DUP4 DUP2 SLOAD DUP2 LT PUSH2 0x18DA JUMPI PUSH32 0x4E487B7100000000000000000000000000000000000000000000000000000000 PUSH1 0x0 MSTORE PUSH1 0x32 PUSH1 0x4 MSTORE PUSH1 0x24 PUSH1 0x0 REVERT JUMPDEST SWAP1 PUSH1 0x0 MSTORE PUSH1 0x20 PUSH1 0x0 KECCAK256 SWAP1 PUSH1 0x5 MUL ADD PUSH1 0x4 ADD PUSH1 0x0 SWAP1 SLOAD SWAP1 PUSH2 0x100 EXP SWAP1 DIV PUSH1 0xFF AND ISZERO ISZERO EQ PUSH2 0x193B JUMPI PUSH1 0x40 MLOAD PUSH32 0x8C379A000000000000000000000000000000000000000000000000000000000 DUP2 MSTORE PUSH1 0x4 ADD PUSH2 0x1932 SWAP1 PUSH2 0x1FA6 JUMP JUMPDEST PUSH1 0x40 MLOAD DUP1 SWAP2 SUB SWAP1 REVERT JUMPDEST PUSH1 0x1 PUSH1 0x3 DUP4 DUP2 SLOAD DUP2 LT PUSH2 0x1977 JUMPI PUSH32 0x4E487B7100000000000000000000000000000000000000000000000000000000 PUSH1 0x0 MSTORE PUSH1 0x32 PUSH1 0x4 MSTORE PUSH1 0x24 PUSH1 0x0 REVERT JUMPDEST SWAP1 PUSH1 0x0 MSTORE PUSH1 0x20 PUSH1 0x0 KECCAK256 SWAP1 PUSH1 0x5 MUL ADD PUSH1 0x4 ADD PUSH1 0x0 PUSH2 0x100 EXP DUP2 SLOAD DUP2 PUSH1 0xFF MUL NOT AND SWAP1 DUP4 ISZERO ISZERO MUL OR SWAP1 SSTORE POP PUSH1 0x4 PUSH1 0x0 DUP2 SLOAD DUP1 SWAP3 SWAP2 SWAP1 PUSH1 0x1 ADD SWAP2 SWAP1 POP SSTORE POP PUSH1 0x2 PUSH1 0x0 SWAP1 SLOAD SWAP1 PUSH2 0x100 EXP SWAP1 DIV PUSH20 0xFFFFFFFFFFFFFFFFFFFFFFFFFFFFFFFFFFFFFFFF AND PUSH20 0xFFFFFFFFFFFFFFFFFFFFFFFFFFFFFFFFFFFFFFFF AND PUSH2 0x8FC CALLVALUE SWAP1 DUP2 ISZERO MUL SWAP1 PUSH1 0x40 MLOAD PUSH1 0x0 PUSH1 0x40 MLOAD DUP1 DUP4 SUB DUP2 DUP6 DUP9 DUP9 CALL SWAP4 POP POP POP POP ISZERO DUP1 ISZERO PUSH2 0x1A19 JUMPI RETURNDATASIZE PUSH1 0x0 DUP1 RETURNDATACOPY RETURNDATASIZE PUSH1 0x0 REVERT JUMPDEST POP POP POP JUMP JUMPDEST PUSH1 0x2 PUSH1 0x0 SWAP1 SLOAD SWAP1 PUSH2 0x100 EXP SWAP1 DIV PUSH20 0xFFFFFFFFFFFFFFFFFFFFFFFFFFFFFFFFFFFFFFFF AND PUSH20 0xFFFFFFFFFFFFFFFFFFFFFFFFFFFFFFFFFFFFFFFF AND CALLER PUSH20 0xFFFFFFFFFFFFFFFFFFFFFFFFFFFFFFFFFFFFFFFF AND EQ PUSH2 0x1AAE JUMPI PUSH1 0x40 MLOAD PUSH32 0x8C379A000000000000000000000000000000000000000000000000000000000 DUP2 MSTORE PUSH1 0x4 ADD PUSH2 0x1AA5 SWAP1 PUSH2 0x1FE6 JUMP JUMPDEST PUSH1 0x40 MLOAD DUP1 SWAP2 SUB SWAP1 REVERT JUMPDEST DUP1 PUSH1 0x5 DUP2 SWAP1 SSTORE POP POP JUMP JUMPDEST PUSH1 0x0 DUP1 PUSH1 0x0 PUSH1 0x64 DUP6 DUP6 PUSH2 0x1ACB SWAP2 SWAP1 PUSH2 0x20BC JUMP JUMPDEST PUSH2 0x1AD5 SWAP2 SWAP1 PUSH2 0x208B JUMP JUMPDEST SWAP1 POP PUSH1 0x0 DUP2 DUP7 PUSH2 0x1AE5 SWAP2 SWAP1 PUSH2 0x2116 JUMP JUMPDEST SWAP1 POP DUP2 DUP2 SWAP4 POP SWAP4 POP POP POP SWAP3 POP SWAP3 SWAP1 POP JUMP JUMPDEST PUSH1 0x40 MLOAD DUP1 PUSH1 0xC0 ADD PUSH1 0x40 MSTORE DUP1 PUSH1 0x0 DUP2 MSTORE PUSH1 0x20 ADD PUSH1 0x0 DUP2 MSTORE PUSH1 0x20 ADD PUSH1 0x0 DUP2 MSTORE PUSH1 0x20 ADD PUSH1 0x0 DUP2 MSTORE PUSH1 0x20 ADD PUSH1 0x0 ISZERO ISZERO DUP2 MSTORE PUSH1 0x20 ADD PUSH1 0x0 PUSH20 0xFFFFFFFFFFFFFFFFFFFFFFFFFFFFFFFFFFFFFFFF AND DUP2 MSTORE POP SWAP1 JUMP JUMPDEST PUSH1 0x0 DUP2 CALLDATALOAD SWAP1 POP PUSH2 0x1B53 DUP2 PUSH2 0x246B JUMP JUMPDEST SWAP3 SWAP2 POP POP JUMP JUMPDEST PUSH1 0x0 DUP2 CALLDATALOAD SWAP1 POP PUSH2 0x1B68 DUP2 PUSH2 0x2482 JUMP JUMPDEST SWAP3 SWAP2 POP POP JUMP JUMPDEST PUSH1 0x0 PUSH1 0x20 DUP3 DUP5 SUB SLT ISZERO PUSH2 0x1B80 JUMPI PUSH1 0x0 DUP1 REVERT JUMPDEST PUSH1 0x0 PUSH2 0x1B8E DUP5 DUP3 DUP6 ADD PUSH2 0x1B44 JUMP JUMPDEST SWAP2 POP POP SWAP3 SWAP2 POP POP JUMP JUMPDEST PUSH1 0x0 PUSH1 0x20 DUP3 DUP5 SUB SLT ISZERO PUSH2 0x1BA9 JUMPI PUSH1 0x0 DUP1 REVERT JUMPDEST PUSH1 0x0 PUSH2 0x1BB7 DUP5 DUP3 DUP6 ADD PUSH2 0x1B59 JUMP JUMPDEST SWAP2 POP POP SWAP3 SWAP2 POP POP JUMP JUMPDEST PUSH1 0x0 DUP1 PUSH1 0x0 PUSH1 0x60 DUP5 DUP7 SUB SLT ISZERO PUSH2 0x1BD5 JUMPI PUSH1 0x0 DUP1 REVERT JUMPDEST PUSH1 0x0 PUSH2 0x1BE3 DUP7 DUP3 DUP8 ADD PUSH2 0x1B59 JUMP JUMPDEST SWAP4 POP POP PUSH1 0x20 PUSH2 0x1BF4 DUP7 DUP3 DUP8 ADD PUSH2 0x1B59 JUMP JUMPDEST SWAP3 POP POP PUSH1 0x40 PUSH2 0x1C05 DUP7 DUP3 DUP8 ADD PUSH2 0x1B59 JUMP JUMPDEST SWAP2 POP POP SWAP3 POP SWAP3 POP SWAP3 JUMP JUMPDEST PUSH1 0x0 PUSH2 0x1C1B DUP4 DUP4 PUSH2 0x1E10 JUMP JUMPDEST PUSH1 0xC0 DUP4 ADD SWAP1 POP SWAP3 SWAP2 POP POP JUMP JUMPDEST PUSH2 0x1C30 DUP2 PUSH2 0x214A JUMP JUMPDEST DUP3 MSTORE POP POP JUMP JUMPDEST PUSH2 0x1C3F DUP2 PUSH2 0x214A JUMP JUMPDEST DUP3 MSTORE POP POP JUMP JUMPDEST PUSH1 0x0 PUSH2 0x1C50 DUP3 PUSH2 0x2051 JUMP JUMPDEST PUSH2 0x1C5A DUP2 DUP6 PUSH2 0x2069 JUMP JUMPDEST SWAP4 POP PUSH2 0x1C65 DUP4 PUSH2 0x2041 JUMP JUMPDEST DUP1 PUSH1 0x0 JUMPDEST DUP4 DUP2 LT ISZERO PUSH2 0x1C96 JUMPI DUP2 MLOAD PUSH2 0x1C7D DUP9 DUP3 PUSH2 0x1C0F JUMP JUMPDEST SWAP8 POP PUSH2 0x1C88 DUP4 PUSH2 0x205C JUMP JUMPDEST SWAP3 POP POP PUSH1 0x1 DUP2 ADD SWAP1 POP PUSH2 0x1C69 JUMP JUMPDEST POP DUP6 SWAP4 POP POP POP POP SWAP3 SWAP2 POP POP JUMP JUMPDEST PUSH2 0x1CAC DUP2 PUSH2 0x215C JUMP JUMPDEST DUP3 MSTORE POP POP JUMP JUMPDEST PUSH1 0x0 PUSH2 0x1CBF PUSH1 0x29 DUP4 PUSH2 0x207A JUMP JUMPDEST SWAP2 POP PUSH2 0x1CCA DUP3 PUSH2 0x2239 JUMP JUMPDEST PUSH1 0x40 DUP3 ADD SWAP1 POP SWAP2 SWAP1 POP JUMP JUMPDEST PUSH1 0x0 PUSH2 0x1CE2 PUSH1 0x13 DUP4 PUSH2 0x207A JUMP JUMPDEST SWAP2 POP PUSH2 0x1CED DUP3 PUSH2 0x2288 JUMP JUMPDEST PUSH1 0x20 DUP3 ADD SWAP1 POP SWAP2 SWAP1 POP JUMP JUMPDEST PUSH1 0x0 PUSH2 0x1D05 PUSH1 0x13 DUP4 PUSH2 0x207A JUMP JUMPDEST SWAP2 POP PUSH2 0x1D10 DUP3 PUSH2 0x22B1 JUMP JUMPDEST PUSH1 0x20 DUP3 ADD SWAP1 POP SWAP2 SWAP1 POP JUMP JUMPDEST PUSH1 0x0 PUSH2 0x1D28 PUSH1 0x35 DUP4 PUSH2 0x207A JUMP JUMPDEST SWAP2 POP PUSH2 0x1D33 DUP3 PUSH2 0x22DA JUMP JUMPDEST PUSH1 0x40 DUP3 ADD SWAP1 POP SWAP2 SWAP1 POP JUMP JUMPDEST PUSH1 0x0 PUSH2 0x1D4B PUSH1 0x13 DUP4 PUSH2 0x207A JUMP JUMPDEST SWAP2 POP PUSH2 0x1D56 DUP3 PUSH2 0x2329 JUMP JUMPDEST PUSH1 0x20 DUP3 ADD SWAP1 POP SWAP2 SWAP1 POP JUMP JUMPDEST PUSH1 0x0 PUSH2 0x1D6E PUSH1 0x1D DUP4 PUSH2 0x207A JUMP JUMPDEST SWAP2 POP PUSH2 0x1D79 DUP3 PUSH2 0x2352 JUMP JUMPDEST PUSH1 0x20 DUP3 ADD SWAP1 POP SWAP2 SWAP1 POP JUMP JUMPDEST PUSH1 0x0 PUSH2 0x1D91 PUSH1 0x18 DUP4 PUSH2 0x207A JUMP JUMPDEST SWAP2 POP PUSH2 0x1D9C DUP3 PUSH2 0x237B JUMP JUMPDEST PUSH1 0x20 DUP3 ADD SWAP1 POP SWAP2 SWAP1 POP JUMP JUMPDEST PUSH1 0x0 PUSH2 0x1DB4 PUSH1 0x21 DUP4 PUSH2 0x207A JUMP JUMPDEST SWAP2 POP PUSH2 0x1DBF DUP3 PUSH2 0x23A4 JUMP JUMPDEST PUSH1 0x40 DUP3 ADD SWAP1 POP SWAP2 SWAP1 POP JUMP JUMPDEST PUSH1 0x0 PUSH2 0x1DD7 PUSH1 0x21 DUP4 PUSH2 0x207A JUMP JUMPDEST SWAP2 POP PUSH2 0x1DE2 DUP3 PUSH2 0x23F3 JUMP JUMPDEST PUSH1 0x40 DUP3 ADD SWAP1 POP SWAP2 SWAP1 POP JUMP JUMPDEST PUSH1 0x0 PUSH2 0x1DFA PUSH1 0x1A DUP4 PUSH2 0x207A JUMP JUMPDEST SWAP2 POP PUSH2 0x1E05 DUP3 PUSH2 0x2442 JUMP JUMPDEST PUSH1 0x20 DUP3 ADD SWAP1 POP SWAP2 SWAP1 POP JUMP JUMPDEST PUSH1 0xC0 DUP3 ADD PUSH1 0x0 DUP3 ADD MLOAD PUSH2 0x1E26 PUSH1 0x0 DUP6 ADD DUP3 PUSH2 0x1E8B JUMP JUMPDEST POP PUSH1 0x20 DUP3 ADD MLOAD PUSH2 0x1E39 PUSH1 0x20 DUP6 ADD DUP3 PUSH2 0x1E8B JUMP JUMPDEST POP PUSH1 0x40 DUP3 ADD MLOAD PUSH2 0x1E4C PUSH1 0x40 DUP6 ADD DUP3 PUSH2 0x1E8B JUMP JUMPDEST POP PUSH1 0x60 DUP3 ADD MLOAD PUSH2 0x1E5F PUSH1 0x60 DUP6 ADD DUP3 PUSH2 0x1E8B JUMP JUMPDEST POP PUSH1 0x80 DUP3 ADD MLOAD PUSH2 0x1E72 PUSH1 0x80 DUP6 ADD DUP3 PUSH2 0x1CA3 JUMP JUMPDEST POP PUSH1 0xA0 DUP3 ADD MLOAD PUSH2 0x1E85 PUSH1 0xA0 DUP6 ADD DUP3 PUSH2 0x1C27 JUMP JUMPDEST POP POP POP POP JUMP JUMPDEST PUSH2 0x1E94 DUP2 PUSH2 0x2188 JUMP JUMPDEST DUP3 MSTORE POP POP JUMP JUMPDEST PUSH2 0x1EA3 DUP2 PUSH2 0x2188 JUMP JUMPDEST DUP3 MSTORE POP POP JUMP JUMPDEST PUSH1 0x0 PUSH1 0x20 DUP3 ADD SWAP1 POP PUSH2 0x1EBE PUSH1 0x0 DUP4 ADD DUP5 PUSH2 0x1C36 JUMP JUMPDEST SWAP3 SWAP2 POP POP JUMP JUMPDEST PUSH1 0x0 PUSH1 0x20 DUP3 ADD SWAP1 POP DUP2 DUP2 SUB PUSH1 0x0 DUP4 ADD MSTORE PUSH2 0x1EDE DUP2 DUP5 PUSH2 0x1C45 JUMP JUMPDEST SWAP1 POP SWAP3 SWAP2 POP POP JUMP JUMPDEST PUSH1 0x0 PUSH1 0x20 DUP3 ADD SWAP1 POP DUP2 DUP2 SUB PUSH1 0x0 DUP4 ADD MSTORE PUSH2 0x1EFF DUP2 PUSH2 0x1CB2 JUMP JUMPDEST SWAP1 POP SWAP2 SWAP1 POP JUMP JUMPDEST PUSH1 0x0 PUSH1 0x20 DUP3 ADD SWAP1 POP DUP2 DUP2 SUB PUSH1 0x0 DUP4 ADD MSTORE PUSH2 0x1F1F DUP2 PUSH2 0x1CD5 JUMP JUMPDEST SWAP1 POP SWAP2 SWAP1 POP JUMP JUMPDEST PUSH1 0x0 PUSH1 0x20 DUP3 ADD SWAP1 POP DUP2 DUP2 SUB PUSH1 0x0 DUP4 ADD MSTORE PUSH2 0x1F3F DUP2 PUSH2 0x1CF8 JUMP JUMPDEST SWAP1 POP SWAP2 SWAP1 POP JUMP JUMPDEST PUSH1 0x0 PUSH1 0x20 DUP3 ADD SWAP1 POP DUP2 DUP2 SUB PUSH1 0x0 DUP4 ADD MSTORE PUSH2 0x1F5F DUP2 PUSH2 0x1D1B JUMP JUMPDEST SWAP1 POP SWAP2 SWAP1 POP JUMP JUMPDEST PUSH1 0x0 PUSH1 0x20 DUP3 ADD SWAP1 POP DUP2 DUP2 SUB PUSH1 0x0 DUP4 ADD MSTORE PUSH2 0x1F7F DUP2 PUSH2 0x1D3E JUMP JUMPDEST SWAP1 POP SWAP2 SWAP1 POP JUMP JUMPDEST PUSH1 0x0 PUSH1 0x20 DUP3 ADD SWAP1 POP DUP2 DUP2 SUB PUSH1 0x0 DUP4 ADD MSTORE PUSH2 0x1F9F DUP2 PUSH2 0x1D61 JUMP JUMPDEST SWAP1 POP SWAP2 SWAP1 POP JUMP JUMPDEST PUSH1 0x0 PUSH1 0x20 DUP3 ADD SWAP1 POP DUP2 DUP2 SUB PUSH1 0x0 DUP4 ADD MSTORE PUSH2 0x1FBF DUP2 PUSH2 0x1D84 JUMP JUMPDEST SWAP1 POP SWAP2 SWAP1 POP JUMP JUMPDEST PUSH1 0x0 PUSH1 0x20 DUP3 ADD SWAP1 POP DUP2 DUP2 SUB PUSH1 0x0 DUP4 ADD MSTORE PUSH2 0x1FDF DUP2 PUSH2 0x1DA7 JUMP JUMPDEST SWAP1 POP SWAP2 SWAP1 POP JUMP JUMPDEST PUSH1 0x0 PUSH1 0x20 DUP3 ADD SWAP1 POP DUP2 DUP2 SUB PUSH1 0x0 DUP4 ADD MSTORE PUSH2 0x1FFF DUP2 PUSH2 0x1DCA JUMP JUMPDEST SWAP1 POP SWAP2 SWAP1 POP JUMP JUMPDEST PUSH1 0x0 PUSH1 0x20 DUP3 ADD SWAP1 POP DUP2 DUP2 SUB PUSH1 0x0 DUP4 ADD MSTORE PUSH2 0x201F DUP2 PUSH2 0x1DED JUMP JUMPDEST SWAP1 POP SWAP2 SWAP1 POP JUMP JUMPDEST PUSH1 0x0 PUSH1 0x20 DUP3 ADD SWAP1 POP PUSH2 0x203B PUSH1 0x0 DUP4 ADD DUP5 PUSH2 0x1E9A JUMP JUMPDEST SWAP3 SWAP2 POP POP JUMP JUMPDEST PUSH1 0x0 DUP2 SWAP1 POP PUSH1 0x20 DUP3 ADD SWAP1 POP SWAP2 SWAP1 POP JUMP JUMPDEST PUSH1 0x0 DUP2 MLOAD SWAP1 POP SWAP2 SWAP1 POP JUMP JUMPDEST PUSH1 0x0 PUSH1 0x20 DUP3 ADD SWAP1 POP SWAP2 SWAP1 POP JUMP JUMPDEST PUSH1 0x0 DUP3 DUP3 MSTORE PUSH1 0x20 DUP3 ADD SWAP1 POP SWAP3 SWAP2 POP POP JUMP JUMPDEST PUSH1 0x0 DUP3 DUP3 MSTORE PUSH1 0x20 DUP3 ADD SWAP1 POP SWAP3 SWAP2 POP POP JUMP JUMPDEST PUSH1 0x0 PUSH2 0x2096 DUP3 PUSH2 0x2188 JUMP JUMPDEST SWAP2 POP PUSH2 0x20A1 DUP4 PUSH2 0x2188 JUMP JUMPDEST SWAP3 POP DUP3 PUSH2 0x20B1 JUMPI PUSH2 0x20B0 PUSH2 0x220A JUMP JUMPDEST JUMPDEST DUP3 DUP3 DIV SWAP1 POP SWAP3 SWAP2 POP POP JUMP JUMPDEST PUSH1 0x0 PUSH2 0x20C7 DUP3 PUSH2 0x2188 JUMP JUMPDEST SWAP2 POP PUSH2 0x20D2 DUP4 PUSH2 0x2188 JUMP JUMPDEST SWAP3 POP DUP2 PUSH32 0xFFFFFFFFFFFFFFFFFFFFFFFFFFFFFFFFFFFFFFFFFFFFFFFFFFFFFFFFFFFFFFFF DIV DUP4 GT DUP3 ISZERO ISZERO AND ISZERO PUSH2 0x210B JUMPI PUSH2 0x210A PUSH2 0x21DB JUMP JUMPDEST JUMPDEST DUP3 DUP3 MUL SWAP1 POP SWAP3 SWAP2 POP POP JUMP JUMPDEST PUSH1 0x0 PUSH2 0x2121 DUP3 PUSH2 0x2188 JUMP JUMPDEST SWAP2 POP PUSH2 0x212C DUP4 PUSH2 0x2188 JUMP JUMPDEST SWAP3 POP DUP3 DUP3 LT ISZERO PUSH2 0x213F JUMPI PUSH2 0x213E PUSH2 0x21DB JUMP JUMPDEST JUMPDEST DUP3 DUP3 SUB SWAP1 POP SWAP3 SWAP2 POP POP JUMP JUMPDEST PUSH1 0x0 PUSH2 0x2155 DUP3 PUSH2 0x2168 JUMP JUMPDEST SWAP1 POP SWAP2 SWAP1 POP JUMP JUMPDEST PUSH1 0x0 DUP2 ISZERO ISZERO SWAP1 POP SWAP2 SWAP1 POP JUMP JUMPDEST PUSH1 0x0 PUSH20 0xFFFFFFFFFFFFFFFFFFFFFFFFFFFFFFFFFFFFFFFF DUP3 AND SWAP1 POP SWAP2 SWAP1 POP JUMP JUMPDEST PUSH1 0x0 DUP2 SWAP1 POP SWAP2 SWAP1 POP JUMP JUMPDEST PUSH1 0x0 PUSH2 0x219D DUP3 PUSH2 0x2188 JUMP JUMPDEST SWAP2 POP PUSH32 0xFFFFFFFFFFFFFFFFFFFFFFFFFFFFFFFFFFFFFFFFFFFFFFFFFFFFFFFFFFFFFFFF DUP3 EQ ISZERO PUSH2 0x21D0 JUMPI PUSH2 0x21CF PUSH2 0x21DB JUMP JUMPDEST JUMPDEST PUSH1 0x1 DUP3 ADD SWAP1 POP SWAP2 SWAP1 POP JUMP JUMPDEST PUSH32 0x4E487B7100000000000000000000000000000000000000000000000000000000 PUSH1 0x0 MSTORE PUSH1 0x11 PUSH1 0x4 MSTORE PUSH1 0x24 PUSH1 0x0 REVERT JUMPDEST PUSH32 0x4E487B7100000000000000000000000000000000000000000000000000000000 PUSH1 0x0 MSTORE PUSH1 0x12 PUSH1 0x4 MSTORE PUSH1 0x24 PUSH1 0x0 REVERT JUMPDEST PUSH32 0x796F752063616E27742062757920616E206974656D20746861742062656C6F6E PUSH1 0x0 DUP3 ADD MSTORE PUSH32 0x677320746F20796F750000000000000000000000000000000000000000000000 PUSH1 0x20 DUP3 ADD MSTORE POP JUMP JUMPDEST PUSH32 0x746F6B656E2069736E277420746F2073656C6C00000000000000000000000000 PUSH1 0x0 DUP3 ADD MSTORE POP JUMP JUMPDEST PUSH32 0x746F6B656E20616C726561647920657869737400000000000000000000000000 PUSH1 0x0 DUP3 ADD MSTORE POP JUMP JUMPDEST PUSH32 0x7472616E73616374696F6E27732076616C75652063616E6E6F74206265206469 PUSH1 0x0 DUP3 ADD MSTORE PUSH32 0x66666572656E74206F66206974656D2070726963650000000000000000000000 PUSH1 0x20 DUP3 ADD MSTORE POP JUMP JUMPDEST PUSH32 0x746F6B656E20646F65736E277420657869737400000000000000000000000000 PUSH1 0x0 DUP3 ADD MSTORE POP JUMP JUMPDEST PUSH32 0x4F6E6C79206974656D2773206F776E65722063616E20646F2074686174000000 PUSH1 0x0 DUP3 ADD MSTORE POP JUMP JUMPDEST PUSH32 0x746F6B656E20697320616C726561647920746F2073656C6C0000000000000000 PUSH1 0x0 DUP3 ADD MSTORE POP JUMP JUMPDEST PUSH32 0x5468616E6B7320746F2073656E6420636F727265637420666565732076616C75 PUSH1 0x0 DUP3 ADD MSTORE PUSH32 0x6500000000000000000000000000000000000000000000000000000000000000 PUSH1 0x20 DUP3 ADD MSTORE POP JUMP JUMPDEST PUSH32 0x4F6E6C7920636F6E74726163742773206F776E65722063616E20646F20746861 PUSH1 0x0 DUP3 ADD MSTORE PUSH32 0x7400000000000000000000000000000000000000000000000000000000000000 PUSH1 0x20 DUP3 ADD MSTORE POP JUMP JUMPDEST PUSH32 0x50726963652063616E6E6F7420626520657175616C20746F2030000000000000 PUSH1 0x0 DUP3 ADD MSTORE POP JUMP JUMPDEST PUSH2 0x2474 DUP2 PUSH2 0x214A JUMP JUMPDEST DUP2 EQ PUSH2 0x247F JUMPI PUSH1 0x0 DUP1 REVERT JUMPDEST POP JUMP JUMPDEST PUSH2 0x248B DUP2 PUSH2 0x2188 JUMP JUMPDEST DUP2 EQ PUSH2 0x2496 JUMPI PUSH1 0x0 DUP1 REVERT JUMPDEST POP JUMP INVALID LOG2 PUSH5 0x6970667358 0x22 SLT KECCAK256 CALLDATASIZE 0xA6 0x4A 0xBD DUP1 0x27 PUSH28 0xF93FC946D9FDB04EFA25897ABE740729D0315983A46A1E9F9564736F PUSH13 0x63430008010033000000000000 "
				},
				"gasEstimates": {
					"creation": {
						"codeDepositCost": "1884600",
						"executionCost": "infinite",
						"totalCost": "infinite"
					},
					"external": {
						"addItemToSell(uint256)": "infinite",
						"balanceOf(address)": "1586",
						"fetchItemsByOwner()": "infinite",
						"fetchItemsToSell()": "infinite",
						"fetchItemsToSellByCatId(uint256)": "infinite",
						"getCreateItemFees()": "1159",
						"getCreatorPercentage()": "1182",
						"mint(uint256,uint256,uint256)": "infinite",
						"ownerOf(uint256)": "1588",
						"removeItemToSell(uint256)": "46727",
						"sellItem(uint256)": "infinite",
						"updateCreateItemFees(uint256)": "21378",
						"updateCreatorPercentage(uint256)": "21357"
					},
					"internal": {
						"getFees(uint256,uint256)": "infinite"
					}
				},
				"methodIdentifiers": {
					"addItemToSell(uint256)": "c0f202ef",
					"balanceOf(address)": "70a08231",
					"fetchItemsByOwner()": "4cad2ffc",
					"fetchItemsToSell()": "073e74df",
					"fetchItemsToSellByCatId(uint256)": "406693b2",
					"getCreateItemFees()": "a411d68d",
					"getCreatorPercentage()": "160035b1",
					"mint(uint256,uint256,uint256)": "02acc94b",
					"ownerOf(uint256)": "6352211e",
					"removeItemToSell(uint256)": "a4964c33",
					"sellItem(uint256)": "91b6be9a",
					"updateCreateItemFees(uint256)": "e6e95ea7",
					"updateCreatorPercentage(uint256)": "1b03427c"
				}
			},
			"storageLayout": {
				"storage": [
					{
						"astId": 11,
						"contract": "contracts/GeekNft.sol:GeekNft",
						"label": "name",
						"offset": 0,
						"slot": "0",
						"type": "t_string_storage"
					},
					{
						"astId": 13,
						"contract": "contracts/GeekNft.sol:GeekNft",
						"label": "symbol",
						"offset": 0,
						"slot": "1",
						"type": "t_string_storage"
					},
					{
						"astId": 15,
						"contract": "contracts/GeekNft.sol:GeekNft",
						"label": "owner",
						"offset": 0,
						"slot": "2",
						"type": "t_address"
					},
					{
						"astId": 32,
						"contract": "contracts/GeekNft.sol:GeekNft",
						"label": "items",
						"offset": 0,
						"slot": "3",
						"type": "t_array(t_struct(Item)28_storage)dyn_storage"
					},
					{
						"astId": 34,
						"contract": "contracts/GeekNft.sol:GeekNft",
						"label": "itemsToSellCount",
						"offset": 0,
						"slot": "4",
						"type": "t_uint256"
					},
					{
						"astId": 37,
						"contract": "contracts/GeekNft.sol:GeekNft",
						"label": "createItemFees",
						"offset": 0,
						"slot": "5",
						"type": "t_uint256"
					},
					{
						"astId": 40,
						"contract": "contracts/GeekNft.sol:GeekNft",
						"label": "creatorPercentage",
						"offset": 0,
						"slot": "6",
						"type": "t_uint256"
					},
					{
						"astId": 44,
						"contract": "contracts/GeekNft.sol:GeekNft",
						"label": "itemToOwner",
						"offset": 0,
						"slot": "7",
						"type": "t_mapping(t_uint256,t_address)"
					},
					{
						"astId": 48,
						"contract": "contracts/GeekNft.sol:GeekNft",
						"label": "itemsOwnerCount",
						"offset": 0,
						"slot": "8",
						"type": "t_mapping(t_address,t_uint256)"
					},
					{
						"astId": 52,
						"contract": "contracts/GeekNft.sol:GeekNft",
						"label": "itemsCatIdCount",
						"offset": 0,
						"slot": "9",
						"type": "t_mapping(t_uint256,t_uint256)"
					}
				],
				"types": {
					"t_address": {
						"encoding": "inplace",
						"label": "address",
						"numberOfBytes": "20"
					},
					"t_array(t_struct(Item)28_storage)dyn_storage": {
						"base": "t_struct(Item)28_storage",
						"encoding": "dynamic_array",
						"label": "struct GeekNft.Item[]",
						"numberOfBytes": "32"
					},
					"t_bool": {
						"encoding": "inplace",
						"label": "bool",
						"numberOfBytes": "1"
					},
					"t_mapping(t_address,t_uint256)": {
						"encoding": "mapping",
						"key": "t_address",
						"label": "mapping(address => uint256)",
						"numberOfBytes": "32",
						"value": "t_uint256"
					},
					"t_mapping(t_uint256,t_address)": {
						"encoding": "mapping",
						"key": "t_uint256",
						"label": "mapping(uint256 => address)",
						"numberOfBytes": "32",
						"value": "t_address"
					},
					"t_mapping(t_uint256,t_uint256)": {
						"encoding": "mapping",
						"key": "t_uint256",
						"label": "mapping(uint256 => uint256)",
						"numberOfBytes": "32",
						"value": "t_uint256"
					},
					"t_string_storage": {
						"encoding": "bytes",
						"label": "string",
						"numberOfBytes": "32"
					},
					"t_struct(Item)28_storage": {
						"encoding": "inplace",
						"label": "struct GeekNft.Item",
						"members": [
							{
								"astId": 17,
								"contract": "contracts/GeekNft.sol:GeekNft",
								"label": "dataId",
								"offset": 0,
								"slot": "0",
								"type": "t_uint256"
							},
							{
								"astId": 19,
								"contract": "contracts/GeekNft.sol:GeekNft",
								"label": "tokenId",
								"offset": 0,
								"slot": "1",
								"type": "t_uint256"
							},
							{
								"astId": 21,
								"contract": "contracts/GeekNft.sol:GeekNft",
								"label": "price",
								"offset": 0,
								"slot": "2",
								"type": "t_uint256"
							},
							{
								"astId": 23,
								"contract": "contracts/GeekNft.sol:GeekNft",
								"label": "catId",
								"offset": 0,
								"slot": "3",
								"type": "t_uint256"
							},
							{
								"astId": 25,
								"contract": "contracts/GeekNft.sol:GeekNft",
								"label": "toSell",
								"offset": 0,
								"slot": "4",
								"type": "t_bool"
							},
							{
								"astId": 27,
								"contract": "contracts/GeekNft.sol:GeekNft",
								"label": "creator",
								"offset": 1,
								"slot": "4",
								"type": "t_address"
							}
						],
						"numberOfBytes": "160"
					},
					"t_uint256": {
						"encoding": "inplace",
						"label": "uint256",
						"numberOfBytes": "32"
					}
				}
			},
			"userdoc": {
				"kind": "user",
				"methods": {},
				"version": 1
			}
		}
	}
}