{
	"contracts/GeekNft.sol": {
		"GeekNft": {
			"abi": [
				{
					"inputs": [
						{
							"internalType": "uint256",
							"name": "",
							"type": "uint256"
						}
					],
					"name": "items",
					"outputs": [
						{
							"internalType": "uint256",
							"name": "tokenId",
							"type": "uint256"
						},
						{
							"internalType": "string",
							"name": "name",
							"type": "string"
						},
						{
							"internalType": "bool",
							"name": "toSell",
							"type": "bool"
						},
						{
							"internalType": "address",
							"name": "owner",
							"type": "address"
						}
					],
					"stateMutability": "view",
					"type": "function"
				}
			],
			"devdoc": {
				"kind": "dev",
				"methods": {},
				"version": 1
			},
			"evm": {
				"assembly": "    /* \"contracts/GeekNft.sol\":56:231  contract GeekNft {... */\n  mstore(0x40, 0x80)\n  callvalue\n  dup1\n  iszero\n  tag_1\n  jumpi\n  0x00\n  dup1\n  revert\ntag_1:\n  pop\n  dataSize(sub_0)\n  dup1\n  dataOffset(sub_0)\n  0x00\n  codecopy\n  0x00\n  return\nstop\n\nsub_0: assembly {\n        /* \"contracts/GeekNft.sol\":56:231  contract GeekNft {... */\n      mstore(0x40, 0x80)\n      callvalue\n      dup1\n      iszero\n      tag_1\n      jumpi\n      0x00\n      dup1\n      revert\n    tag_1:\n      pop\n      jumpi(tag_2, lt(calldatasize, 0x04))\n      shr(0xe0, calldataload(0x00))\n      dup1\n      0xbfb231d2\n      eq\n      tag_3\n      jumpi\n    tag_2:\n      0x00\n      dup1\n      revert\n        /* \"contracts/GeekNft.sol\":208:227  Item[] public items */\n    tag_3:\n      tag_4\n      0x04\n      dup1\n      calldatasize\n      sub\n      dup2\n      add\n      swap1\n      tag_5\n      swap2\n      swap1\n      tag_6\n      jump\t// in\n    tag_5:\n      tag_7\n      jump\t// in\n    tag_4:\n      mload(0x40)\n      tag_8\n      swap5\n      swap4\n      swap3\n      swap2\n      swap1\n      tag_9\n      jump\t// in\n    tag_8:\n      mload(0x40)\n      dup1\n      swap2\n      sub\n      swap1\n      return\n    tag_7:\n      0x01\n      dup2\n      dup2\n      sload\n      dup2\n      lt\n      tag_10\n      jumpi\n      0x00\n      dup1\n      revert\n    tag_10:\n      swap1\n      0x00\n      mstore\n      keccak256(0x00, 0x20)\n      swap1\n      0x03\n      mul\n      add\n      0x00\n      swap2\n      pop\n      swap1\n      pop\n      dup1\n      0x00\n      add\n      sload\n      swap1\n      dup1\n      0x01\n      add\n      dup1\n      sload\n      tag_12\n      swap1\n      tag_13\n      jump\t// in\n    tag_12:\n      dup1\n      0x1f\n      add\n      0x20\n      dup1\n      swap2\n      div\n      mul\n      0x20\n      add\n      mload(0x40)\n      swap1\n      dup2\n      add\n      0x40\n      mstore\n      dup1\n      swap3\n      swap2\n      swap1\n      dup2\n      dup2\n      mstore\n      0x20\n      add\n      dup3\n      dup1\n      sload\n      tag_14\n      swap1\n      tag_13\n      jump\t// in\n    tag_14:\n      dup1\n      iszero\n      tag_15\n      jumpi\n      dup1\n      0x1f\n      lt\n      tag_16\n      jumpi\n      0x0100\n      dup1\n      dup4\n      sload\n      div\n      mul\n      dup4\n      mstore\n      swap2\n      0x20\n      add\n      swap2\n      jump(tag_15)\n    tag_16:\n      dup3\n      add\n      swap2\n      swap1\n      0x00\n      mstore\n      keccak256(0x00, 0x20)\n      swap1\n    tag_17:\n      dup2\n      sload\n      dup2\n      mstore\n      swap1\n      0x01\n      add\n      swap1\n      0x20\n      add\n      dup1\n      dup4\n      gt\n      tag_17\n      jumpi\n      dup3\n      swap1\n      sub\n      0x1f\n      and\n      dup3\n      add\n      swap2\n    tag_15:\n      pop\n      pop\n      pop\n      pop\n      pop\n      swap1\n      dup1\n      0x02\n      add\n      0x00\n      swap1\n      sload\n      swap1\n      0x0100\n      exp\n      swap1\n      div\n      0xff\n      and\n      swap1\n      dup1\n      0x02\n      add\n      0x01\n      swap1\n      sload\n      swap1\n      0x0100\n      exp\n      swap1\n      div\n      0xffffffffffffffffffffffffffffffffffffffff\n      and\n      swap1\n      pop\n      dup5\n      jump\t// out\n        /* \"#utility.yul\":7:146   */\n    tag_19:\n      0x00\n        /* \"#utility.yul\":91:97   */\n      dup2\n        /* \"#utility.yul\":78:98   */\n      calldataload\n        /* \"#utility.yul\":69:98   */\n      swap1\n      pop\n        /* \"#utility.yul\":107:140   */\n      tag_21\n        /* \"#utility.yul\":134:139   */\n      dup2\n        /* \"#utility.yul\":107:140   */\n      tag_22\n      jump\t// in\n    tag_21:\n        /* \"#utility.yul\":59:146   */\n      swap3\n      swap2\n      pop\n      pop\n      jump\t// out\n        /* \"#utility.yul\":152:414   */\n    tag_6:\n      0x00\n        /* \"#utility.yul\":260:262   */\n      0x20\n        /* \"#utility.yul\":248:257   */\n      dup3\n        /* \"#utility.yul\":239:246   */\n      dup5\n        /* \"#utility.yul\":235:258   */\n      sub\n        /* \"#utility.yul\":231:263   */\n      slt\n        /* \"#utility.yul\":228:230   */\n      iszero\n      tag_24\n      jumpi\n        /* \"#utility.yul\":276:277   */\n      0x00\n        /* \"#utility.yul\":273:274   */\n      dup1\n        /* \"#utility.yul\":266:278   */\n      revert\n        /* \"#utility.yul\":228:230   */\n    tag_24:\n        /* \"#utility.yul\":319:320   */\n      0x00\n        /* \"#utility.yul\":344:397   */\n      tag_25\n        /* \"#utility.yul\":389:396   */\n      dup5\n        /* \"#utility.yul\":380:386   */\n      dup3\n        /* \"#utility.yul\":369:378   */\n      dup6\n        /* \"#utility.yul\":365:387   */\n      add\n        /* \"#utility.yul\":344:397   */\n      tag_19\n      jump\t// in\n    tag_25:\n        /* \"#utility.yul\":334:397   */\n      swap2\n      pop\n        /* \"#utility.yul\":290:407   */\n      pop\n        /* \"#utility.yul\":218:414   */\n      swap3\n      swap2\n      pop\n      pop\n      jump\t// out\n        /* \"#utility.yul\":420:538   */\n    tag_26:\n        /* \"#utility.yul\":507:531   */\n      tag_28\n        /* \"#utility.yul\":525:530   */\n      dup2\n        /* \"#utility.yul\":507:531   */\n      tag_29\n      jump\t// in\n    tag_28:\n        /* \"#utility.yul\":502:505   */\n      dup3\n        /* \"#utility.yul\":495:532   */\n      mstore\n        /* \"#utility.yul\":485:538   */\n      pop\n      pop\n      jump\t// out\n        /* \"#utility.yul\":544:653   */\n    tag_30:\n        /* \"#utility.yul\":625:646   */\n      tag_32\n        /* \"#utility.yul\":640:645   */\n      dup2\n        /* \"#utility.yul\":625:646   */\n      tag_33\n      jump\t// in\n    tag_32:\n        /* \"#utility.yul\":620:623   */\n      dup3\n        /* \"#utility.yul\":613:647   */\n      mstore\n        /* \"#utility.yul\":603:653   */\n      pop\n      pop\n      jump\t// out\n        /* \"#utility.yul\":659:1023   */\n    tag_34:\n      0x00\n        /* \"#utility.yul\":775:814   */\n      tag_36\n        /* \"#utility.yul\":808:813   */\n      dup3\n        /* \"#utility.yul\":775:814   */\n      tag_37\n      jump\t// in\n    tag_36:\n        /* \"#utility.yul\":830:901   */\n      tag_38\n        /* \"#utility.yul\":894:900   */\n      dup2\n        /* \"#utility.yul\":889:892   */\n      dup6\n        /* \"#utility.yul\":830:901   */\n      tag_39\n      jump\t// in\n    tag_38:\n        /* \"#utility.yul\":823:901   */\n      swap4\n      pop\n        /* \"#utility.yul\":910:962   */\n      tag_40\n        /* \"#utility.yul\":955:961   */\n      dup2\n        /* \"#utility.yul\":950:953   */\n      dup6\n        /* \"#utility.yul\":943:947   */\n      0x20\n        /* \"#utility.yul\":936:941   */\n      dup7\n        /* \"#utility.yul\":932:948   */\n      add\n        /* \"#utility.yul\":910:962   */\n      tag_41\n      jump\t// in\n    tag_40:\n        /* \"#utility.yul\":987:1016   */\n      tag_42\n        /* \"#utility.yul\":1009:1015   */\n      dup2\n        /* \"#utility.yul\":987:1016   */\n      tag_43\n      jump\t// in\n    tag_42:\n        /* \"#utility.yul\":982:985   */\n      dup5\n        /* \"#utility.yul\":978:1017   */\n      add\n        /* \"#utility.yul\":971:1017   */\n      swap2\n      pop\n        /* \"#utility.yul\":751:1023   */\n      pop\n      swap3\n      swap2\n      pop\n      pop\n      jump\t// out\n        /* \"#utility.yul\":1029:1147   */\n    tag_44:\n        /* \"#utility.yul\":1116:1140   */\n      tag_46\n        /* \"#utility.yul\":1134:1139   */\n      dup2\n        /* \"#utility.yul\":1116:1140   */\n      tag_47\n      jump\t// in\n    tag_46:\n        /* \"#utility.yul\":1111:1114   */\n      dup3\n        /* \"#utility.yul\":1104:1141   */\n      mstore\n        /* \"#utility.yul\":1094:1147   */\n      pop\n      pop\n      jump\t// out\n        /* \"#utility.yul\":1153:1785   */\n    tag_9:\n      0x00\n        /* \"#utility.yul\":1382:1385   */\n      0x80\n        /* \"#utility.yul\":1371:1380   */\n      dup3\n        /* \"#utility.yul\":1367:1386   */\n      add\n        /* \"#utility.yul\":1359:1386   */\n      swap1\n      pop\n        /* \"#utility.yul\":1396:1467   */\n      tag_49\n        /* \"#utility.yul\":1464:1465   */\n      0x00\n        /* \"#utility.yul\":1453:1462   */\n      dup4\n        /* \"#utility.yul\":1449:1466   */\n      add\n        /* \"#utility.yul\":1440:1446   */\n      dup8\n        /* \"#utility.yul\":1396:1467   */\n      tag_44\n      jump\t// in\n    tag_49:\n        /* \"#utility.yul\":1514:1523   */\n      dup2\n        /* \"#utility.yul\":1508:1512   */\n      dup2\n        /* \"#utility.yul\":1504:1524   */\n      sub\n        /* \"#utility.yul\":1499:1501   */\n      0x20\n        /* \"#utility.yul\":1488:1497   */\n      dup4\n        /* \"#utility.yul\":1484:1502   */\n      add\n        /* \"#utility.yul\":1477:1525   */\n      mstore\n        /* \"#utility.yul\":1542:1620   */\n      tag_50\n        /* \"#utility.yul\":1615:1619   */\n      dup2\n        /* \"#utility.yul\":1606:1612   */\n      dup7\n        /* \"#utility.yul\":1542:1620   */\n      tag_34\n      jump\t// in\n    tag_50:\n        /* \"#utility.yul\":1534:1620   */\n      swap1\n      pop\n        /* \"#utility.yul\":1630:1696   */\n      tag_51\n        /* \"#utility.yul\":1692:1694   */\n      0x40\n        /* \"#utility.yul\":1681:1690   */\n      dup4\n        /* \"#utility.yul\":1677:1695   */\n      add\n        /* \"#utility.yul\":1668:1674   */\n      dup6\n        /* \"#utility.yul\":1630:1696   */\n      tag_30\n      jump\t// in\n    tag_51:\n        /* \"#utility.yul\":1706:1778   */\n      tag_52\n        /* \"#utility.yul\":1774:1776   */\n      0x60\n        /* \"#utility.yul\":1763:1772   */\n      dup4\n        /* \"#utility.yul\":1759:1777   */\n      add\n        /* \"#utility.yul\":1750:1756   */\n      dup5\n        /* \"#utility.yul\":1706:1778   */\n      tag_26\n      jump\t// in\n    tag_52:\n        /* \"#utility.yul\":1349:1785   */\n      swap6\n      swap5\n      pop\n      pop\n      pop\n      pop\n      pop\n      jump\t// out\n        /* \"#utility.yul\":1791:1890   */\n    tag_37:\n      0x00\n        /* \"#utility.yul\":1877:1882   */\n      dup2\n        /* \"#utility.yul\":1871:1883   */\n      mload\n        /* \"#utility.yul\":1861:1883   */\n      swap1\n      pop\n        /* \"#utility.yul\":1850:1890   */\n      swap2\n      swap1\n      pop\n      jump\t// out\n        /* \"#utility.yul\":1896:2065   */\n    tag_39:\n      0x00\n        /* \"#utility.yul\":2014:2020   */\n      dup3\n        /* \"#utility.yul\":2009:2012   */\n      dup3\n        /* \"#utility.yul\":2002:2021   */\n      mstore\n        /* \"#utility.yul\":2054:2058   */\n      0x20\n        /* \"#utility.yul\":2049:2052   */\n      dup3\n        /* \"#utility.yul\":2045:2059   */\n      add\n        /* \"#utility.yul\":2030:2059   */\n      swap1\n      pop\n        /* \"#utility.yul\":1992:2065   */\n      swap3\n      swap2\n      pop\n      pop\n      jump\t// out\n        /* \"#utility.yul\":2071:2167   */\n    tag_29:\n      0x00\n        /* \"#utility.yul\":2137:2161   */\n      tag_56\n        /* \"#utility.yul\":2155:2160   */\n      dup3\n        /* \"#utility.yul\":2137:2161   */\n      tag_57\n      jump\t// in\n    tag_56:\n        /* \"#utility.yul\":2126:2161   */\n      swap1\n      pop\n        /* \"#utility.yul\":2116:2167   */\n      swap2\n      swap1\n      pop\n      jump\t// out\n        /* \"#utility.yul\":2173:2263   */\n    tag_33:\n      0x00\n        /* \"#utility.yul\":2250:2255   */\n      dup2\n        /* \"#utility.yul\":2243:2256   */\n      iszero\n        /* \"#utility.yul\":2236:2257   */\n      iszero\n        /* \"#utility.yul\":2225:2257   */\n      swap1\n      pop\n        /* \"#utility.yul\":2215:2263   */\n      swap2\n      swap1\n      pop\n      jump\t// out\n        /* \"#utility.yul\":2269:2395   */\n    tag_57:\n      0x00\n        /* \"#utility.yul\":2346:2388   */\n      0xffffffffffffffffffffffffffffffffffffffff\n        /* \"#utility.yul\":2339:2344   */\n      dup3\n        /* \"#utility.yul\":2335:2389   */\n      and\n        /* \"#utility.yul\":2324:2389   */\n      swap1\n      pop\n        /* \"#utility.yul\":2314:2395   */\n      swap2\n      swap1\n      pop\n      jump\t// out\n        /* \"#utility.yul\":2401:2478   */\n    tag_47:\n      0x00\n        /* \"#utility.yul\":2467:2472   */\n      dup2\n        /* \"#utility.yul\":2456:2472   */\n      swap1\n      pop\n        /* \"#utility.yul\":2446:2478   */\n      swap2\n      swap1\n      pop\n      jump\t// out\n        /* \"#utility.yul\":2484:2791   */\n    tag_41:\n        /* \"#utility.yul\":2552:2553   */\n      0x00\n        /* \"#utility.yul\":2562:2675   */\n    tag_62:\n        /* \"#utility.yul\":2576:2582   */\n      dup4\n        /* \"#utility.yul\":2573:2574   */\n      dup2\n        /* \"#utility.yul\":2570:2583   */\n      lt\n        /* \"#utility.yul\":2562:2675   */\n      iszero\n      tag_64\n      jumpi\n        /* \"#utility.yul\":2661:2662   */\n      dup1\n        /* \"#utility.yul\":2656:2659   */\n      dup3\n        /* \"#utility.yul\":2652:2663   */\n      add\n        /* \"#utility.yul\":2646:2664   */\n      mload\n        /* \"#utility.yul\":2642:2643   */\n      dup2\n        /* \"#utility.yul\":2637:2640   */\n      dup5\n        /* \"#utility.yul\":2633:2644   */\n      add\n        /* \"#utility.yul\":2626:2665   */\n      mstore\n        /* \"#utility.yul\":2598:2600   */\n      0x20\n        /* \"#utility.yul\":2595:2596   */\n      dup2\n        /* \"#utility.yul\":2591:2601   */\n      add\n        /* \"#utility.yul\":2586:2601   */\n      swap1\n      pop\n        /* \"#utility.yul\":2562:2675   */\n      jump(tag_62)\n    tag_64:\n        /* \"#utility.yul\":2693:2699   */\n      dup4\n        /* \"#utility.yul\":2690:2691   */\n      dup2\n        /* \"#utility.yul\":2687:2700   */\n      gt\n        /* \"#utility.yul\":2684:2686   */\n      iszero\n      tag_65\n      jumpi\n        /* \"#utility.yul\":2773:2774   */\n      0x00\n        /* \"#utility.yul\":2764:2770   */\n      dup5\n        /* \"#utility.yul\":2759:2762   */\n      dup5\n        /* \"#utility.yul\":2755:2771   */\n      add\n        /* \"#utility.yul\":2748:2775   */\n      mstore\n        /* \"#utility.yul\":2684:2686   */\n    tag_65:\n        /* \"#utility.yul\":2533:2791   */\n      pop\n      pop\n      pop\n      pop\n      jump\t// out\n        /* \"#utility.yul\":2797:3117   */\n    tag_13:\n      0x00\n        /* \"#utility.yul\":2878:2879   */\n      0x02\n        /* \"#utility.yul\":2872:2876   */\n      dup3\n        /* \"#utility.yul\":2868:2880   */\n      div\n        /* \"#utility.yul\":2858:2880   */\n      swap1\n      pop\n        /* \"#utility.yul\":2925:2926   */\n      0x01\n        /* \"#utility.yul\":2919:2923   */\n      dup3\n        /* \"#utility.yul\":2915:2927   */\n      and\n        /* \"#utility.yul\":2946:2964   */\n      dup1\n        /* \"#utility.yul\":2936:2938   */\n      tag_67\n      jumpi\n        /* \"#utility.yul\":3002:3006   */\n      0x7f\n        /* \"#utility.yul\":2994:3000   */\n      dup3\n        /* \"#utility.yul\":2990:3007   */\n      and\n        /* \"#utility.yul\":2980:3007   */\n      swap2\n      pop\n        /* \"#utility.yul\":2936:2938   */\n    tag_67:\n        /* \"#utility.yul\":3064:3066   */\n      0x20\n        /* \"#utility.yul\":3056:3062   */\n      dup3\n        /* \"#utility.yul\":3053:3067   */\n      lt\n        /* \"#utility.yul\":3033:3051   */\n      dup2\n        /* \"#utility.yul\":3030:3068   */\n      eq\n        /* \"#utility.yul\":3027:3029   */\n      iszero\n      tag_68\n      jumpi\n        /* \"#utility.yul\":3083:3101   */\n      tag_69\n      tag_70\n      jump\t// in\n    tag_69:\n        /* \"#utility.yul\":3027:3029   */\n    tag_68:\n        /* \"#utility.yul\":2848:3117   */\n      pop\n      swap2\n      swap1\n      pop\n      jump\t// out\n        /* \"#utility.yul\":3123:3303   */\n    tag_70:\n        /* \"#utility.yul\":3171:3248   */\n      0x4e487b7100000000000000000000000000000000000000000000000000000000\n        /* \"#utility.yul\":3168:3169   */\n      0x00\n        /* \"#utility.yul\":3161:3249   */\n      mstore\n        /* \"#utility.yul\":3268:3272   */\n      0x22\n        /* \"#utility.yul\":3265:3266   */\n      0x04\n        /* \"#utility.yul\":3258:3273   */\n      mstore\n        /* \"#utility.yul\":3292:3296   */\n      0x24\n        /* \"#utility.yul\":3289:3290   */\n      0x00\n        /* \"#utility.yul\":3282:3297   */\n      revert\n        /* \"#utility.yul\":3309:3411   */\n    tag_43:\n      0x00\n        /* \"#utility.yul\":3401:3403   */\n      0x1f\n        /* \"#utility.yul\":3397:3404   */\n      not\n        /* \"#utility.yul\":3392:3394   */\n      0x1f\n        /* \"#utility.yul\":3385:3390   */\n      dup4\n        /* \"#utility.yul\":3381:3395   */\n      add\n        /* \"#utility.yul\":3377:3405   */\n      and\n        /* \"#utility.yul\":3367:3405   */\n      swap1\n      pop\n        /* \"#utility.yul\":3357:3411   */\n      swap2\n      swap1\n      pop\n      jump\t// out\n        /* \"#utility.yul\":3417:3539   */\n    tag_22:\n        /* \"#utility.yul\":3490:3514   */\n      tag_74\n        /* \"#utility.yul\":3508:3513   */\n      dup2\n        /* \"#utility.yul\":3490:3514   */\n      tag_47\n      jump\t// in\n    tag_74:\n        /* \"#utility.yul\":3483:3488   */\n      dup2\n        /* \"#utility.yul\":3480:3515   */\n      eq\n        /* \"#utility.yul\":3470:3472   */\n      tag_75\n      jumpi\n        /* \"#utility.yul\":3529:3530   */\n      0x00\n        /* \"#utility.yul\":3526:3527   */\n      dup1\n        /* \"#utility.yul\":3519:3531   */\n      revert\n        /* \"#utility.yul\":3470:3472   */\n    tag_75:\n        /* \"#utility.yul\":3460:3539   */\n      pop\n      jump\t// out\n\n    auxdata: 0xa2646970667358221220dbb0a850a10efc32bc17fc5c3c13c5ccdd2070abf05e57baee0bbf559a2bc42a64736f6c63430008000033\n}\n",
				"bytecode": {
					"linkReferences": {},
					"object": "608060405234801561001057600080fd5b5061039e806100206000396000f3fe608060405234801561001057600080fd5b506004361061002b5760003560e01c8063bfb231d214610030575b600080fd5b61004a6004803603810190610045919061016d565b610063565b60405161005a94939291906101fc565b60405180910390f35b6001818154811061007357600080fd5b906000526020600020906003020160009150905080600001549080600101805461009c906102df565b80601f01602080910402602001604051908101604052809291908181526020018280546100c8906102df565b80156101155780601f106100ea57610100808354040283529160200191610115565b820191906000526020600020905b8154815290600101906020018083116100f857829003601f168201915b5050505050908060020160009054906101000a900460ff16908060020160019054906101000a900473ffffffffffffffffffffffffffffffffffffffff16905084565b60008135905061016781610351565b92915050565b60006020828403121561017f57600080fd5b600061018d84828501610158565b91505092915050565b61019f81610264565b82525050565b6101ae81610276565b82525050565b60006101bf82610248565b6101c98185610253565b93506101d98185602086016102ac565b6101e281610340565b840191505092915050565b6101f6816102a2565b82525050565b600060808201905061021160008301876101ed565b818103602083015261022381866101b4565b905061023260408301856101a5565b61023f6060830184610196565b95945050505050565b600081519050919050565b600082825260208201905092915050565b600061026f82610282565b9050919050565b60008115159050919050565b600073ffffffffffffffffffffffffffffffffffffffff82169050919050565b6000819050919050565b60005b838110156102ca5780820151818401526020810190506102af565b838111156102d9576000848401525b50505050565b600060028204905060018216806102f757607f821691505b6020821081141561030b5761030a610311565b5b50919050565b7f4e487b7100000000000000000000000000000000000000000000000000000000600052602260045260246000fd5b6000601f19601f8301169050919050565b61035a816102a2565b811461036557600080fd5b5056fea2646970667358221220dbb0a850a10efc32bc17fc5c3c13c5ccdd2070abf05e57baee0bbf559a2bc42a64736f6c63430008000033",
					"opcodes": "PUSH1 0x80 PUSH1 0x40 MSTORE CALLVALUE DUP1 ISZERO PUSH2 0x10 JUMPI PUSH1 0x0 DUP1 REVERT JUMPDEST POP PUSH2 0x39E DUP1 PUSH2 0x20 PUSH1 0x0 CODECOPY PUSH1 0x0 RETURN INVALID PUSH1 0x80 PUSH1 0x40 MSTORE CALLVALUE DUP1 ISZERO PUSH2 0x10 JUMPI PUSH1 0x0 DUP1 REVERT JUMPDEST POP PUSH1 0x4 CALLDATASIZE LT PUSH2 0x2B JUMPI PUSH1 0x0 CALLDATALOAD PUSH1 0xE0 SHR DUP1 PUSH4 0xBFB231D2 EQ PUSH2 0x30 JUMPI JUMPDEST PUSH1 0x0 DUP1 REVERT JUMPDEST PUSH2 0x4A PUSH1 0x4 DUP1 CALLDATASIZE SUB DUP2 ADD SWAP1 PUSH2 0x45 SWAP2 SWAP1 PUSH2 0x16D JUMP JUMPDEST PUSH2 0x63 JUMP JUMPDEST PUSH1 0x40 MLOAD PUSH2 0x5A SWAP5 SWAP4 SWAP3 SWAP2 SWAP1 PUSH2 0x1FC JUMP JUMPDEST PUSH1 0x40 MLOAD DUP1 SWAP2 SUB SWAP1 RETURN JUMPDEST PUSH1 0x1 DUP2 DUP2 SLOAD DUP2 LT PUSH2 0x73 JUMPI PUSH1 0x0 DUP1 REVERT JUMPDEST SWAP1 PUSH1 0x0 MSTORE PUSH1 0x20 PUSH1 0x0 KECCAK256 SWAP1 PUSH1 0x3 MUL ADD PUSH1 0x0 SWAP2 POP SWAP1 POP DUP1 PUSH1 0x0 ADD SLOAD SWAP1 DUP1 PUSH1 0x1 ADD DUP1 SLOAD PUSH2 0x9C SWAP1 PUSH2 0x2DF JUMP JUMPDEST DUP1 PUSH1 0x1F ADD PUSH1 0x20 DUP1 SWAP2 DIV MUL PUSH1 0x20 ADD PUSH1 0x40 MLOAD SWAP1 DUP2 ADD PUSH1 0x40 MSTORE DUP1 SWAP3 SWAP2 SWAP1 DUP2 DUP2 MSTORE PUSH1 0x20 ADD DUP3 DUP1 SLOAD PUSH2 0xC8 SWAP1 PUSH2 0x2DF JUMP JUMPDEST DUP1 ISZERO PUSH2 0x115 JUMPI DUP1 PUSH1 0x1F LT PUSH2 0xEA JUMPI PUSH2 0x100 DUP1 DUP4 SLOAD DIV MUL DUP4 MSTORE SWAP2 PUSH1 0x20 ADD SWAP2 PUSH2 0x115 JUMP JUMPDEST DUP3 ADD SWAP2 SWAP1 PUSH1 0x0 MSTORE PUSH1 0x20 PUSH1 0x0 KECCAK256 SWAP1 JUMPDEST DUP2 SLOAD DUP2 MSTORE SWAP1 PUSH1 0x1 ADD SWAP1 PUSH1 0x20 ADD DUP1 DUP4 GT PUSH2 0xF8 JUMPI DUP3 SWAP1 SUB PUSH1 0x1F AND DUP3 ADD SWAP2 JUMPDEST POP POP POP POP POP SWAP1 DUP1 PUSH1 0x2 ADD PUSH1 0x0 SWAP1 SLOAD SWAP1 PUSH2 0x100 EXP SWAP1 DIV PUSH1 0xFF AND SWAP1 DUP1 PUSH1 0x2 ADD PUSH1 0x1 SWAP1 SLOAD SWAP1 PUSH2 0x100 EXP SWAP1 DIV PUSH20 0xFFFFFFFFFFFFFFFFFFFFFFFFFFFFFFFFFFFFFFFF AND SWAP1 POP DUP5 JUMP JUMPDEST PUSH1 0x0 DUP2 CALLDATALOAD SWAP1 POP PUSH2 0x167 DUP2 PUSH2 0x351 JUMP JUMPDEST SWAP3 SWAP2 POP POP JUMP JUMPDEST PUSH1 0x0 PUSH1 0x20 DUP3 DUP5 SUB SLT ISZERO PUSH2 0x17F JUMPI PUSH1 0x0 DUP1 REVERT JUMPDEST PUSH1 0x0 PUSH2 0x18D DUP5 DUP3 DUP6 ADD PUSH2 0x158 JUMP JUMPDEST SWAP2 POP POP SWAP3 SWAP2 POP POP JUMP JUMPDEST PUSH2 0x19F DUP2 PUSH2 0x264 JUMP JUMPDEST DUP3 MSTORE POP POP JUMP JUMPDEST PUSH2 0x1AE DUP2 PUSH2 0x276 JUMP JUMPDEST DUP3 MSTORE POP POP JUMP JUMPDEST PUSH1 0x0 PUSH2 0x1BF DUP3 PUSH2 0x248 JUMP JUMPDEST PUSH2 0x1C9 DUP2 DUP6 PUSH2 0x253 JUMP JUMPDEST SWAP4 POP PUSH2 0x1D9 DUP2 DUP6 PUSH1 0x20 DUP7 ADD PUSH2 0x2AC JUMP JUMPDEST PUSH2 0x1E2 DUP2 PUSH2 0x340 JUMP JUMPDEST DUP5 ADD SWAP2 POP POP SWAP3 SWAP2 POP POP JUMP JUMPDEST PUSH2 0x1F6 DUP2 PUSH2 0x2A2 JUMP JUMPDEST DUP3 MSTORE POP POP JUMP JUMPDEST PUSH1 0x0 PUSH1 0x80 DUP3 ADD SWAP1 POP PUSH2 0x211 PUSH1 0x0 DUP4 ADD DUP8 PUSH2 0x1ED JUMP JUMPDEST DUP2 DUP2 SUB PUSH1 0x20 DUP4 ADD MSTORE PUSH2 0x223 DUP2 DUP7 PUSH2 0x1B4 JUMP JUMPDEST SWAP1 POP PUSH2 0x232 PUSH1 0x40 DUP4 ADD DUP6 PUSH2 0x1A5 JUMP JUMPDEST PUSH2 0x23F PUSH1 0x60 DUP4 ADD DUP5 PUSH2 0x196 JUMP JUMPDEST SWAP6 SWAP5 POP POP POP POP POP JUMP JUMPDEST PUSH1 0x0 DUP2 MLOAD SWAP1 POP SWAP2 SWAP1 POP JUMP JUMPDEST PUSH1 0x0 DUP3 DUP3 MSTORE PUSH1 0x20 DUP3 ADD SWAP1 POP SWAP3 SWAP2 POP POP JUMP JUMPDEST PUSH1 0x0 PUSH2 0x26F DUP3 PUSH2 0x282 JUMP JUMPDEST SWAP1 POP SWAP2 SWAP1 POP JUMP JUMPDEST PUSH1 0x0 DUP2 ISZERO ISZERO SWAP1 POP SWAP2 SWAP1 POP JUMP JUMPDEST PUSH1 0x0 PUSH20 0xFFFFFFFFFFFFFFFFFFFFFFFFFFFFFFFFFFFFFFFF DUP3 AND SWAP1 POP SWAP2 SWAP1 POP JUMP JUMPDEST PUSH1 0x0 DUP2 SWAP1 POP SWAP2 SWAP1 POP JUMP JUMPDEST PUSH1 0x0 JUMPDEST DUP4 DUP2 LT ISZERO PUSH2 0x2CA JUMPI DUP1 DUP3 ADD MLOAD DUP2 DUP5 ADD MSTORE PUSH1 0x20 DUP2 ADD SWAP1 POP PUSH2 0x2AF JUMP JUMPDEST DUP4 DUP2 GT ISZERO PUSH2 0x2D9 JUMPI PUSH1 0x0 DUP5 DUP5 ADD MSTORE JUMPDEST POP POP POP POP JUMP JUMPDEST PUSH1 0x0 PUSH1 0x2 DUP3 DIV SWAP1 POP PUSH1 0x1 DUP3 AND DUP1 PUSH2 0x2F7 JUMPI PUSH1 0x7F DUP3 AND SWAP2 POP JUMPDEST PUSH1 0x20 DUP3 LT DUP2 EQ ISZERO PUSH2 0x30B JUMPI PUSH2 0x30A PUSH2 0x311 JUMP JUMPDEST JUMPDEST POP SWAP2 SWAP1 POP JUMP JUMPDEST PUSH32 0x4E487B7100000000000000000000000000000000000000000000000000000000 PUSH1 0x0 MSTORE PUSH1 0x22 PUSH1 0x4 MSTORE PUSH1 0x24 PUSH1 0x0 REVERT JUMPDEST PUSH1 0x0 PUSH1 0x1F NOT PUSH1 0x1F DUP4 ADD AND SWAP1 POP SWAP2 SWAP1 POP JUMP JUMPDEST PUSH2 0x35A DUP2 PUSH2 0x2A2 JUMP JUMPDEST DUP2 EQ PUSH2 0x365 JUMPI PUSH1 0x0 DUP1 REVERT JUMPDEST POP JUMP INVALID LOG2 PUSH5 0x6970667358 0x22 SLT KECCAK256 0xDB 0xB0 0xA8 POP LOG1 0xE 0xFC ORIGIN 0xBC OR 0xFC 0x5C EXTCODECOPY SGT 0xC5 0xCC 0xDD KECCAK256 PUSH17 0xABF05E57BAEE0BBF559A2BC42A64736F6C PUSH4 0x43000800 STOP CALLER "
				},
				"gasEstimates": {
					"creation": {
						"codeDepositCost": "185200",
						"executionCost": "226",
						"totalCost": "185426"
					},
					"external": {
						"items(uint256)": "infinite"
					}
				},
				"methodIdentifiers": {
					"items(uint256)": "bfb231d2"
				}
			},
			"storageLayout": {
				"storage": [
					{
						"astId": 3,
						"contract": "contracts/GeekNft.sol:GeekNft",
						"label": "owner",
						"offset": 0,
						"slot": "0",
						"type": "t_address"
					},
					{
						"astId": 16,
						"contract": "contracts/GeekNft.sol:GeekNft",
						"label": "items",
						"offset": 0,
						"slot": "1",
						"type": "t_array(t_struct(Item)12_storage)dyn_storage"
					}
				],
				"types": {
					"t_address": {
						"encoding": "inplace",
						"label": "address",
						"numberOfBytes": "20"
					},
					"t_array(t_struct(Item)12_storage)dyn_storage": {
						"base": "t_struct(Item)12_storage",
						"encoding": "dynamic_array",
						"label": "struct GeekNft.Item[]",
						"numberOfBytes": "32"
					},
					"t_bool": {
						"encoding": "inplace",
						"label": "bool",
						"numberOfBytes": "1"
					},
					"t_string_storage": {
						"encoding": "bytes",
						"label": "string",
						"numberOfBytes": "32"
					},
					"t_struct(Item)12_storage": {
						"encoding": "inplace",
						"label": "struct GeekNft.Item",
						"members": [
							{
								"astId": 5,
								"contract": "contracts/GeekNft.sol:GeekNft",
								"label": "tokenId",
								"offset": 0,
								"slot": "0",
								"type": "t_uint256"
							},
							{
								"astId": 7,
								"contract": "contracts/GeekNft.sol:GeekNft",
								"label": "name",
								"offset": 0,
								"slot": "1",
								"type": "t_string_storage"
							},
							{
								"astId": 9,
								"contract": "contracts/GeekNft.sol:GeekNft",
								"label": "toSell",
								"offset": 0,
								"slot": "2",
								"type": "t_bool"
							},
							{
								"astId": 11,
								"contract": "contracts/GeekNft.sol:GeekNft",
								"label": "owner",
								"offset": 1,
								"slot": "2",
								"type": "t_address"
							}
						],
						"numberOfBytes": "96"
					},
					"t_uint256": {
						"encoding": "inplace",
						"label": "uint256",
						"numberOfBytes": "32"
					}
				}
			},
			"userdoc": {
				"kind": "user",
				"methods": {},
				"version": 1
			}
		}
	}
}