{
	"contracts/GeekNft.sol": {
		"GeekNft": {
			"abi": [
				{
					"inputs": [],
					"stateMutability": "nonpayable",
					"type": "constructor"
				},
				{
					"anonymous": false,
					"inputs": [
						{
							"indexed": true,
							"internalType": "address",
							"name": "_from",
							"type": "address"
						},
						{
							"indexed": true,
							"internalType": "address",
							"name": "_to",
							"type": "address"
						},
						{
							"indexed": false,
							"internalType": "uint256",
							"name": "_tokenId",
							"type": "uint256"
						}
					],
					"name": "Transfer",
					"type": "event"
				},
				{
					"inputs": [
						{
							"internalType": "uint256",
							"name": "_tokenId",
							"type": "uint256"
						}
					],
					"name": "addItemToSell",
					"outputs": [],
					"stateMutability": "nonpayable",
					"type": "function"
				},
				{
					"inputs": [
						{
							"internalType": "address",
							"name": "_owner",
							"type": "address"
						}
					],
					"name": "balanceOf",
					"outputs": [
						{
							"internalType": "uint256",
							"name": "",
							"type": "uint256"
						}
					],
					"stateMutability": "view",
					"type": "function"
				},
				{
					"inputs": [
						{
							"internalType": "uint256",
							"name": "_price",
							"type": "uint256"
						},
						{
							"internalType": "uint256",
							"name": "_catId",
							"type": "uint256"
						}
					],
					"name": "createItem",
					"outputs": [
						{
							"internalType": "uint256",
							"name": "",
							"type": "uint256"
						}
					],
					"stateMutability": "nonpayable",
					"type": "function"
				},
				{
					"inputs": [
						{
							"internalType": "uint256",
							"name": "_catId",
							"type": "uint256"
						}
					],
					"name": "fetchItemsByCatId",
					"outputs": [
						{
							"components": [
								{
									"internalType": "uint256",
									"name": "tokenId",
									"type": "uint256"
								},
								{
									"internalType": "uint256",
									"name": "price",
									"type": "uint256"
								},
								{
									"internalType": "uint256",
									"name": "catId",
									"type": "uint256"
								},
								{
									"internalType": "bool",
									"name": "toSell",
									"type": "bool"
								}
							],
							"internalType": "struct GeekNft.Item[]",
							"name": "",
							"type": "tuple[]"
						}
					],
					"stateMutability": "view",
					"type": "function"
				},
				{
					"inputs": [],
					"name": "fetchItemsByOwner",
					"outputs": [
						{
							"components": [
								{
									"internalType": "uint256",
									"name": "tokenId",
									"type": "uint256"
								},
								{
									"internalType": "uint256",
									"name": "price",
									"type": "uint256"
								},
								{
									"internalType": "uint256",
									"name": "catId",
									"type": "uint256"
								},
								{
									"internalType": "bool",
									"name": "toSell",
									"type": "bool"
								}
							],
							"internalType": "struct GeekNft.Item[]",
							"name": "",
							"type": "tuple[]"
						}
					],
					"stateMutability": "view",
					"type": "function"
				},
				{
					"inputs": [],
					"name": "fetchItemsToSell",
					"outputs": [
						{
							"components": [
								{
									"internalType": "uint256",
									"name": "tokenId",
									"type": "uint256"
								},
								{
									"internalType": "uint256",
									"name": "price",
									"type": "uint256"
								},
								{
									"internalType": "uint256",
									"name": "catId",
									"type": "uint256"
								},
								{
									"internalType": "bool",
									"name": "toSell",
									"type": "bool"
								}
							],
							"internalType": "struct GeekNft.Item[]",
							"name": "",
							"type": "tuple[]"
						}
					],
					"stateMutability": "view",
					"type": "function"
				},
				{
					"inputs": [],
					"name": "getFeesPercentage",
					"outputs": [
						{
							"internalType": "uint256",
							"name": "",
							"type": "uint256"
						}
					],
					"stateMutability": "view",
					"type": "function"
				},
				{
					"inputs": [
						{
							"internalType": "uint256",
							"name": "",
							"type": "uint256"
						}
					],
					"name": "itemToOwner",
					"outputs": [
						{
							"internalType": "address",
							"name": "",
							"type": "address"
						}
					],
					"stateMutability": "view",
					"type": "function"
				},
				{
					"inputs": [
						{
							"internalType": "uint256",
							"name": "",
							"type": "uint256"
						}
					],
					"name": "itemsCatIdCount",
					"outputs": [
						{
							"internalType": "uint256",
							"name": "",
							"type": "uint256"
						}
					],
					"stateMutability": "view",
					"type": "function"
				},
				{
					"inputs": [
						{
							"internalType": "address",
							"name": "",
							"type": "address"
						}
					],
					"name": "itemsOwnerCount",
					"outputs": [
						{
							"internalType": "uint256",
							"name": "",
							"type": "uint256"
						}
					],
					"stateMutability": "view",
					"type": "function"
				},
				{
					"inputs": [],
					"name": "itemsToSellCount",
					"outputs": [
						{
							"internalType": "uint256",
							"name": "",
							"type": "uint256"
						}
					],
					"stateMutability": "view",
					"type": "function"
				},
				{
					"inputs": [
						{
							"internalType": "uint256",
							"name": "_newPercentage",
							"type": "uint256"
						}
					],
					"name": "modifyFeesPercentage",
					"outputs": [],
					"stateMutability": "nonpayable",
					"type": "function"
				},
				{
					"inputs": [
						{
							"internalType": "uint256",
							"name": "_tokenId",
							"type": "uint256"
						}
					],
					"name": "ownerOf",
					"outputs": [
						{
							"internalType": "address",
							"name": "",
							"type": "address"
						}
					],
					"stateMutability": "view",
					"type": "function"
				},
				{
					"inputs": [
						{
							"internalType": "uint256",
							"name": "_tokenId",
							"type": "uint256"
						}
					],
					"name": "removeItemToSell",
					"outputs": [],
					"stateMutability": "nonpayable",
					"type": "function"
				},
				{
					"inputs": [
						{
							"internalType": "uint256",
							"name": "_tokenId",
							"type": "uint256"
						}
					],
					"name": "sellItem",
					"outputs": [],
					"stateMutability": "payable",
					"type": "function"
				}
			],
			"devdoc": {
				"kind": "dev",
				"methods": {},
				"version": 1
			},
			"evm": {
				"assembly": "    /* \"contracts/GeekNft.sol\":56:4850  contract GeekNft {... */\n  mstore(0x40, 0x80)\n    /* \"contracts/GeekNft.sol\":551:656  constructor() {... */\n  callvalue\n  dup1\n  iszero\n  tag_1\n  jumpi\n  0x00\n  dup1\n  revert\ntag_1:\n  pop\n    /* \"contracts/GeekNft.sol\":583:593  msg.sender */\n  caller\n    /* \"contracts/GeekNft.sol\":575:580  owner */\n  0x02\n  0x00\n    /* \"contracts/GeekNft.sol\":575:593  owner = msg.sender */\n  0x0100\n  exp\n  dup2\n  sload\n  dup2\n  0xffffffffffffffffffffffffffffffffffffffff\n  mul\n  not\n  and\n  swap1\n  dup4\n  0xffffffffffffffffffffffffffffffffffffffff\n  and\n  mul\n  or\n  swap1\n  sstore\n  pop\n    /* \"contracts/GeekNft.sol\":603:623  name = \"Geek Tokens\" */\n  mload(0x40)\n  dup1\n  0x40\n  add\n  0x40\n  mstore\n  dup1\n  0x0b\n  dup2\n  mstore\n  0x20\n  add\n  0x4765656b20546f6b656e73000000000000000000000000000000000000000000\n  dup2\n  mstore\n  pop\n    /* \"contracts/GeekNft.sol\":603:607  name */\n  0x00\n    /* \"contracts/GeekNft.sol\":603:623  name = \"Geek Tokens\" */\n  swap1\n  dup1\n  mload\n  swap1\n  0x20\n  add\n  swap1\n  tag_4\n  swap3\n  swap2\n  swap1\n  tag_5\n  jump\t// in\ntag_4:\n  pop\n    /* \"contracts/GeekNft.sol\":633:649  symbol = \"GEEKT\" */\n  mload(0x40)\n  dup1\n  0x40\n  add\n  0x40\n  mstore\n  dup1\n  0x05\n  dup2\n  mstore\n  0x20\n  add\n  0x4745454b54000000000000000000000000000000000000000000000000000000\n  dup2\n  mstore\n  pop\n    /* \"contracts/GeekNft.sol\":633:639  symbol */\n  0x01\n    /* \"contracts/GeekNft.sol\":633:649  symbol = \"GEEKT\" */\n  swap1\n  dup1\n  mload\n  swap1\n  0x20\n  add\n  swap1\n  tag_6\n  swap3\n  swap2\n  swap1\n  tag_5\n  jump\t// in\ntag_6:\n  pop\n    /* \"contracts/GeekNft.sol\":56:4850  contract GeekNft {... */\n  jump(tag_7)\ntag_5:\n  dup3\n  dup1\n  sload\n  tag_8\n  swap1\n  tag_9\n  jump\t// in\ntag_8:\n  swap1\n  0x00\n  mstore\n  keccak256(0x00, 0x20)\n  swap1\n  0x1f\n  add\n  0x20\n  swap1\n  div\n  dup2\n  add\n  swap3\n  dup3\n  tag_11\n  jumpi\n  0x00\n  dup6\n  sstore\n  jump(tag_10)\ntag_11:\n  dup3\n  0x1f\n  lt\n  tag_12\n  jumpi\n  dup1\n  mload\n  not(0xff)\n  and\n  dup4\n  dup1\n  add\n  or\n  dup6\n  sstore\n  jump(tag_10)\ntag_12:\n  dup3\n  dup1\n  add\n  0x01\n  add\n  dup6\n  sstore\n  dup3\n  iszero\n  tag_10\n  jumpi\n  swap2\n  dup3\n  add\ntag_13:\n  dup3\n  dup2\n  gt\n  iszero\n  tag_14\n  jumpi\n  dup3\n  mload\n  dup3\n  sstore\n  swap2\n  0x20\n  add\n  swap2\n  swap1\n  0x01\n  add\n  swap1\n  jump(tag_13)\ntag_14:\ntag_10:\n  pop\n  swap1\n  pop\n  tag_15\n  swap2\n  swap1\n  tag_16\n  jump\t// in\ntag_15:\n  pop\n  swap1\n  jump\t// out\ntag_16:\ntag_17:\n  dup1\n  dup3\n  gt\n  iszero\n  tag_18\n  jumpi\n  0x00\n  dup2\n  0x00\n  swap1\n  sstore\n  pop\n  0x01\n  add\n  jump(tag_17)\ntag_18:\n  pop\n  swap1\n  jump\t// out\n    /* \"#utility.yul\":7:327   */\ntag_9:\n  0x00\n    /* \"#utility.yul\":88:89   */\n  0x02\n    /* \"#utility.yul\":82:86   */\n  dup3\n    /* \"#utility.yul\":78:90   */\n  div\n    /* \"#utility.yul\":68:90   */\n  swap1\n  pop\n    /* \"#utility.yul\":135:136   */\n  0x01\n    /* \"#utility.yul\":129:133   */\n  dup3\n    /* \"#utility.yul\":125:137   */\n  and\n    /* \"#utility.yul\":156:174   */\n  dup1\n    /* \"#utility.yul\":146:148   */\n  tag_21\n  jumpi\n    /* \"#utility.yul\":212:216   */\n  0x7f\n    /* \"#utility.yul\":204:210   */\n  dup3\n    /* \"#utility.yul\":200:217   */\n  and\n    /* \"#utility.yul\":190:217   */\n  swap2\n  pop\n    /* \"#utility.yul\":146:148   */\ntag_21:\n    /* \"#utility.yul\":274:276   */\n  0x20\n    /* \"#utility.yul\":266:272   */\n  dup3\n    /* \"#utility.yul\":263:277   */\n  lt\n    /* \"#utility.yul\":243:261   */\n  dup2\n    /* \"#utility.yul\":240:278   */\n  eq\n    /* \"#utility.yul\":237:239   */\n  iszero\n  tag_22\n  jumpi\n    /* \"#utility.yul\":293:311   */\n  tag_23\n  tag_24\n  jump\t// in\ntag_23:\n    /* \"#utility.yul\":237:239   */\ntag_22:\n    /* \"#utility.yul\":58:327   */\n  pop\n  swap2\n  swap1\n  pop\n  jump\t// out\n    /* \"#utility.yul\":333:513   */\ntag_24:\n    /* \"#utility.yul\":381:458   */\n  0x4e487b7100000000000000000000000000000000000000000000000000000000\n    /* \"#utility.yul\":378:379   */\n  0x00\n    /* \"#utility.yul\":371:459   */\n  mstore\n    /* \"#utility.yul\":478:482   */\n  0x22\n    /* \"#utility.yul\":475:476   */\n  0x04\n    /* \"#utility.yul\":468:483   */\n  mstore\n    /* \"#utility.yul\":502:506   */\n  0x24\n    /* \"#utility.yul\":499:500   */\n  0x00\n    /* \"#utility.yul\":492:507   */\n  revert\n    /* \"contracts/GeekNft.sol\":56:4850  contract GeekNft {... */\ntag_7:\n  dataSize(sub_0)\n  dup1\n  dataOffset(sub_0)\n  0x00\n  codecopy\n  0x00\n  return\nstop\n\nsub_0: assembly {\n        /* \"contracts/GeekNft.sol\":56:4850  contract GeekNft {... */\n      mstore(0x40, 0x80)\n      jumpi(tag_1, lt(calldatasize, 0x04))\n      shr(0xe0, calldataload(0x00))\n      dup1\n      0x70a08231\n      gt\n      tag_17\n      jumpi\n      dup1\n      0xc0f202ef\n      gt\n      tag_18\n      jumpi\n      dup1\n      0xc0f202ef\n      eq\n      tag_13\n      jumpi\n      dup1\n      0xc3921895\n      eq\n      tag_14\n      jumpi\n      dup1\n      0xd48644bd\n      eq\n      tag_15\n      jumpi\n      dup1\n      0xea0ff14a\n      eq\n      tag_16\n      jumpi\n      jump(tag_1)\n    tag_18:\n      dup1\n      0x70a08231\n      eq\n      tag_9\n      jumpi\n      dup1\n      0x91b6be9a\n      eq\n      tag_10\n      jumpi\n      dup1\n      0xa4964c33\n      eq\n      tag_11\n      jumpi\n      dup1\n      0xadae08dd\n      eq\n      tag_12\n      jumpi\n      jump(tag_1)\n    tag_17:\n      dup1\n      0x29de6246\n      gt\n      tag_19\n      jumpi\n      dup1\n      0x29de6246\n      eq\n      tag_5\n      jumpi\n      dup1\n      0x4c389e65\n      eq\n      tag_6\n      jumpi\n      dup1\n      0x4cad2ffc\n      eq\n      tag_7\n      jumpi\n      dup1\n      0x6352211e\n      eq\n      tag_8\n      jumpi\n      jump(tag_1)\n    tag_19:\n      dup1\n      0x073e74df\n      eq\n      tag_2\n      jumpi\n      dup1\n      0x1a4d96cd\n      eq\n      tag_3\n      jumpi\n      dup1\n      0x2165e65a\n      eq\n      tag_4\n      jumpi\n    tag_1:\n      0x00\n      dup1\n      revert\n        /* \"contracts/GeekNft.sol\":3404:3771  function fetchItemsToSell() public view returns (Item[] memory){... */\n    tag_2:\n      callvalue\n      dup1\n      iszero\n      tag_20\n      jumpi\n      0x00\n      dup1\n      revert\n    tag_20:\n      pop\n      tag_21\n      tag_22\n      jump\t// in\n    tag_21:\n      mload(0x40)\n      tag_23\n      swap2\n      swap1\n      tag_24\n      jump\t// in\n    tag_23:\n      mload(0x40)\n      dup1\n      swap2\n      sub\n      swap1\n      return\n        /* \"contracts/GeekNft.sol\":398:441  mapping(uint => address) public itemToOwner */\n    tag_3:\n      callvalue\n      dup1\n      iszero\n      tag_25\n      jumpi\n      0x00\n      dup1\n      revert\n    tag_25:\n      pop\n      tag_26\n      0x04\n      dup1\n      calldatasize\n      sub\n      dup2\n      add\n      swap1\n      tag_27\n      swap2\n      swap1\n      tag_28\n      jump\t// in\n    tag_27:\n      tag_29\n      jump\t// in\n    tag_26:\n      mload(0x40)\n      tag_30\n      swap2\n      swap1\n      tag_31\n      jump\t// in\n    tag_30:\n      mload(0x40)\n      dup1\n      swap2\n      sub\n      swap1\n      return\n        /* \"contracts/GeekNft.sol\":4167:4554  function fetchItemsByCatId(uint _catId) public view returns (Item[] memory){... */\n    tag_4:\n      callvalue\n      dup1\n      iszero\n      tag_32\n      jumpi\n      0x00\n      dup1\n      revert\n    tag_32:\n      pop\n      tag_33\n      0x04\n      dup1\n      calldatasize\n      sub\n      dup2\n      add\n      swap1\n      tag_34\n      swap2\n      swap1\n      tag_28\n      jump\t// in\n    tag_34:\n      tag_35\n      jump\t// in\n    tag_33:\n      mload(0x40)\n      tag_36\n      swap2\n      swap1\n      tag_24\n      jump\t// in\n    tag_36:\n      mload(0x40)\n      dup1\n      swap2\n      sub\n      swap1\n      return\n        /* \"contracts/GeekNft.sol\":939:1062  function modifyFeesPercentage(uint _newPercentage) public onlyContractOwner{... */\n    tag_5:\n      callvalue\n      dup1\n      iszero\n      tag_37\n      jumpi\n      0x00\n      dup1\n      revert\n    tag_37:\n      pop\n      tag_38\n      0x04\n      dup1\n      calldatasize\n      sub\n      dup2\n      add\n      swap1\n      tag_39\n      swap2\n      swap1\n      tag_28\n      jump\t// in\n    tag_39:\n      tag_40\n      jump\t// in\n    tag_38:\n      stop\n        /* \"contracts/GeekNft.sol\":339:367  uint public itemsToSellCount */\n    tag_6:\n      callvalue\n      dup1\n      iszero\n      tag_41\n      jumpi\n      0x00\n      dup1\n      revert\n    tag_41:\n      pop\n      tag_42\n      tag_43\n      jump\t// in\n    tag_42:\n      mload(0x40)\n      tag_44\n      swap2\n      swap1\n      tag_45\n      jump\t// in\n    tag_44:\n      mload(0x40)\n      dup1\n      swap2\n      sub\n      swap1\n      return\n        /* \"contracts/GeekNft.sol\":3777:4161  function fetchItemsByOwner() public view returns (Item[] memory){... */\n    tag_7:\n      callvalue\n      dup1\n      iszero\n      tag_46\n      jumpi\n      0x00\n      dup1\n      revert\n    tag_46:\n      pop\n      tag_47\n      tag_48\n      jump\t// in\n    tag_47:\n      mload(0x40)\n      tag_49\n      swap2\n      swap1\n      tag_24\n      jump\t// in\n    tag_49:\n      mload(0x40)\n      dup1\n      swap2\n      sub\n      swap1\n      return\n        /* \"contracts/GeekNft.sol\":2506:2612  function ownerOf(uint _tokenId) public view returns (address){... */\n    tag_8:\n      callvalue\n      dup1\n      iszero\n      tag_50\n      jumpi\n      0x00\n      dup1\n      revert\n    tag_50:\n      pop\n      tag_51\n      0x04\n      dup1\n      calldatasize\n      sub\n      dup2\n      add\n      swap1\n      tag_52\n      swap2\n      swap1\n      tag_28\n      jump\t// in\n    tag_52:\n      tag_53\n      jump\t// in\n    tag_51:\n      mload(0x40)\n      tag_54\n      swap2\n      swap1\n      tag_31\n      jump\t// in\n    tag_54:\n      mload(0x40)\n      dup1\n      swap2\n      sub\n      swap1\n      return\n        /* \"contracts/GeekNft.sol\":2618:2726  function balanceOf(address _owner) public view returns (uint){... */\n    tag_9:\n      callvalue\n      dup1\n      iszero\n      tag_55\n      jumpi\n      0x00\n      dup1\n      revert\n    tag_55:\n      pop\n      tag_56\n      0x04\n      dup1\n      calldatasize\n      sub\n      dup2\n      add\n      swap1\n      tag_57\n      swap2\n      swap1\n      tag_58\n      jump\t// in\n    tag_57:\n      tag_59\n      jump\t// in\n    tag_56:\n      mload(0x40)\n      tag_60\n      swap2\n      swap1\n      tag_45\n      jump\t// in\n    tag_60:\n      mload(0x40)\n      dup1\n      swap2\n      sub\n      swap1\n      return\n        /* \"contracts/GeekNft.sol\":1714:2500  function sellItem(uint _tokenId) public payable{... */\n    tag_10:\n      tag_61\n      0x04\n      dup1\n      calldatasize\n      sub\n      dup2\n      add\n      swap1\n      tag_62\n      swap2\n      swap1\n      tag_28\n      jump\t// in\n    tag_62:\n      tag_63\n      jump\t// in\n    tag_61:\n      stop\n        /* \"contracts/GeekNft.sol\":2732:3061  function removeItemToSell(uint _tokenId) public onlyItemOwner(_tokenId) {... */\n    tag_11:\n      callvalue\n      dup1\n      iszero\n      tag_64\n      jumpi\n      0x00\n      dup1\n      revert\n    tag_64:\n      pop\n      tag_65\n      0x04\n      dup1\n      calldatasize\n      sub\n      dup2\n      add\n      swap1\n      tag_66\n      swap2\n      swap1\n      tag_28\n      jump\t// in\n    tag_66:\n      tag_67\n      jump\t// in\n    tag_65:\n      stop\n        /* \"contracts/GeekNft.sol\":1168:1708  function createItem(uint _price, uint _catId) public returns (uint){... */\n    tag_12:\n      callvalue\n      dup1\n      iszero\n      tag_68\n      jumpi\n      0x00\n      dup1\n      revert\n    tag_68:\n      pop\n      tag_69\n      0x04\n      dup1\n      calldatasize\n      sub\n      dup2\n      add\n      swap1\n      tag_70\n      swap2\n      swap1\n      tag_71\n      jump\t// in\n    tag_70:\n      tag_72\n      jump\t// in\n    tag_69:\n      mload(0x40)\n      tag_73\n      swap2\n      swap1\n      tag_45\n      jump\t// in\n    tag_73:\n      mload(0x40)\n      dup1\n      swap2\n      sub\n      swap1\n      return\n        /* \"contracts/GeekNft.sol\":3067:3398  function addItemToSell(uint _tokenId) public onlyItemOwner(_tokenId) {... */\n    tag_13:\n      callvalue\n      dup1\n      iszero\n      tag_74\n      jumpi\n      0x00\n      dup1\n      revert\n    tag_74:\n      pop\n      tag_75\n      0x04\n      dup1\n      calldatasize\n      sub\n      dup2\n      add\n      swap1\n      tag_76\n      swap2\n      swap1\n      tag_28\n      jump\t// in\n    tag_76:\n      tag_77\n      jump\t// in\n    tag_75:\n      stop\n        /* \"contracts/GeekNft.sol\":447:494  mapping(address => uint) public itemsOwnerCount */\n    tag_14:\n      callvalue\n      dup1\n      iszero\n      tag_78\n      jumpi\n      0x00\n      dup1\n      revert\n    tag_78:\n      pop\n      tag_79\n      0x04\n      dup1\n      calldatasize\n      sub\n      dup2\n      add\n      swap1\n      tag_80\n      swap2\n      swap1\n      tag_58\n      jump\t// in\n    tag_80:\n      tag_81\n      jump\t// in\n    tag_79:\n      mload(0x40)\n      tag_82\n      swap2\n      swap1\n      tag_45\n      jump\t// in\n    tag_82:\n      mload(0x40)\n      dup1\n      swap2\n      sub\n      swap1\n      return\n        /* \"contracts/GeekNft.sol\":500:544  mapping(uint => uint) public itemsCatIdCount */\n    tag_15:\n      callvalue\n      dup1\n      iszero\n      tag_83\n      jumpi\n      0x00\n      dup1\n      revert\n    tag_83:\n      pop\n      tag_84\n      0x04\n      dup1\n      calldatasize\n      sub\n      dup2\n      add\n      swap1\n      tag_85\n      swap2\n      swap1\n      tag_28\n      jump\t// in\n    tag_85:\n      tag_86\n      jump\t// in\n    tag_84:\n      mload(0x40)\n      tag_87\n      swap2\n      swap1\n      tag_45\n      jump\t// in\n    tag_87:\n      mload(0x40)\n      dup1\n      swap2\n      sub\n      swap1\n      return\n        /* \"contracts/GeekNft.sol\":1068:1162  function getFeesPercentage() public view returns (uint) {... */\n    tag_16:\n      callvalue\n      dup1\n      iszero\n      tag_88\n      jumpi\n      0x00\n      dup1\n      revert\n    tag_88:\n      pop\n      tag_89\n      tag_90\n      jump\t// in\n    tag_89:\n      mload(0x40)\n      tag_91\n      swap2\n      swap1\n      tag_45\n      jump\t// in\n    tag_91:\n      mload(0x40)\n      dup1\n      swap2\n      sub\n      swap1\n      return\n        /* \"contracts/GeekNft.sol\":3404:3771  function fetchItemsToSell() public view returns (Item[] memory){... */\n    tag_22:\n        /* \"contracts/GeekNft.sol\":3453:3466  Item[] memory */\n      0x60\n        /* \"contracts/GeekNft.sol\":3477:3489  uint counter */\n      0x00\n        /* \"contracts/GeekNft.sol\":3503:3523  Item[] memory result */\n      dup1\n        /* \"contracts/GeekNft.sol\":3537:3553  itemsToSellCount */\n      sload(0x04)\n        /* \"contracts/GeekNft.sol\":3526:3554  new Item[](itemsToSellCount) */\n      0xffffffffffffffff\n      dup2\n      gt\n      iszero\n      tag_93\n      jumpi\n      mstore(0x00, 0x4e487b7100000000000000000000000000000000000000000000000000000000)\n      mstore(0x04, 0x41)\n      revert(0x00, 0x24)\n    tag_93:\n      mload(0x40)\n      swap1\n      dup1\n      dup3\n      mstore\n      dup1\n      0x20\n      mul\n      0x20\n      add\n      dup3\n      add\n      0x40\n      mstore\n      dup1\n      iszero\n      tag_94\n      jumpi\n      dup2\n      0x20\n      add\n    tag_95:\n      tag_96\n      tag_97\n      jump\t// in\n    tag_96:\n      dup2\n      mstore\n      0x20\n      add\n      swap1\n      0x01\n      swap1\n      sub\n      swap1\n      dup2\n      tag_95\n      jumpi\n      swap1\n      pop\n    tag_94:\n      pop\n        /* \"contracts/GeekNft.sol\":3503:3554  Item[] memory result = new Item[](itemsToSellCount) */\n      swap1\n      pop\n        /* \"contracts/GeekNft.sol\":3569:3575  uint i */\n      0x00\n        /* \"contracts/GeekNft.sol\":3565:3741  for(uint i = 0; i < items.length; i++) {... */\n    tag_98:\n        /* \"contracts/GeekNft.sol\":3585:3590  items */\n      0x03\n        /* \"contracts/GeekNft.sol\":3585:3597  items.length */\n      dup1\n      sload\n      swap1\n      pop\n        /* \"contracts/GeekNft.sol\":3581:3582  i */\n      dup2\n        /* \"contracts/GeekNft.sol\":3581:3597  i < items.length */\n      lt\n        /* \"contracts/GeekNft.sol\":3565:3741  for(uint i = 0; i < items.length; i++) {... */\n      iszero\n      tag_99\n      jumpi\n        /* \"contracts/GeekNft.sol\":3640:3644  true */\n      0x01\n        /* \"contracts/GeekNft.sol\":3621:3644  items[i].toSell == true */\n      iszero\n      iszero\n        /* \"contracts/GeekNft.sol\":3621:3626  items */\n      0x03\n        /* \"contracts/GeekNft.sol\":3627:3628  i */\n      dup3\n        /* \"contracts/GeekNft.sol\":3621:3629  items[i] */\n      dup2\n      sload\n      dup2\n      lt\n      tag_101\n      jumpi\n      mstore(0x00, 0x4e487b7100000000000000000000000000000000000000000000000000000000)\n      mstore(0x04, 0x32)\n      revert(0x00, 0x24)\n    tag_101:\n      swap1\n      0x00\n      mstore\n      keccak256(0x00, 0x20)\n      swap1\n      0x04\n      mul\n      add\n        /* \"contracts/GeekNft.sol\":3621:3636  items[i].toSell */\n      0x03\n      add\n      0x00\n      swap1\n      sload\n      swap1\n      0x0100\n      exp\n      swap1\n      div\n      0xff\n      and\n        /* \"contracts/GeekNft.sol\":3621:3644  items[i].toSell == true */\n      iszero\n      iszero\n      eq\n        /* \"contracts/GeekNft.sol\":3618:3731  if(items[i].toSell == true){... */\n      iszero\n      tag_103\n      jumpi\n        /* \"contracts/GeekNft.sol\":3681:3686  items */\n      0x03\n        /* \"contracts/GeekNft.sol\":3687:3688  i */\n      dup2\n        /* \"contracts/GeekNft.sol\":3681:3689  items[i] */\n      dup2\n      sload\n      dup2\n      lt\n      tag_104\n      jumpi\n      mstore(0x00, 0x4e487b7100000000000000000000000000000000000000000000000000000000)\n      mstore(0x04, 0x32)\n      revert(0x00, 0x24)\n    tag_104:\n      swap1\n      0x00\n      mstore\n      keccak256(0x00, 0x20)\n      swap1\n      0x04\n      mul\n      add\n        /* \"contracts/GeekNft.sol\":3663:3689  result[counter] = items[i] */\n      mload(0x40)\n      dup1\n      0x80\n      add\n      0x40\n      mstore\n      swap1\n      dup2\n      0x00\n      dup3\n      add\n      sload\n      dup2\n      mstore\n      0x20\n      add\n      0x01\n      dup3\n      add\n      sload\n      dup2\n      mstore\n      0x20\n      add\n      0x02\n      dup3\n      add\n      sload\n      dup2\n      mstore\n      0x20\n      add\n      0x03\n      dup3\n      add\n      0x00\n      swap1\n      sload\n      swap1\n      0x0100\n      exp\n      swap1\n      div\n      0xff\n      and\n      iszero\n      iszero\n      iszero\n      iszero\n      dup2\n      mstore\n      pop\n      pop\n        /* \"contracts/GeekNft.sol\":3663:3669  result */\n      dup3\n        /* \"contracts/GeekNft.sol\":3670:3677  counter */\n      dup5\n        /* \"contracts/GeekNft.sol\":3663:3678  result[counter] */\n      dup2\n      mload\n      dup2\n      lt\n      tag_106\n      jumpi\n      mstore(0x00, 0x4e487b7100000000000000000000000000000000000000000000000000000000)\n      mstore(0x04, 0x32)\n      revert(0x00, 0x24)\n    tag_106:\n      0x20\n      mul\n      0x20\n      add\n      add\n        /* \"contracts/GeekNft.sol\":3663:3689  result[counter] = items[i] */\n      dup2\n      swap1\n      mstore\n      pop\n        /* \"contracts/GeekNft.sol\":3707:3716  counter++ */\n      dup3\n      dup1\n      tag_107\n      swap1\n      tag_108\n      jump\t// in\n    tag_107:\n      swap4\n      pop\n      pop\n        /* \"contracts/GeekNft.sol\":3618:3731  if(items[i].toSell == true){... */\n    tag_103:\n        /* \"contracts/GeekNft.sol\":3599:3602  i++ */\n      dup1\n      dup1\n      tag_109\n      swap1\n      tag_108\n      jump\t// in\n    tag_109:\n      swap2\n      pop\n      pop\n        /* \"contracts/GeekNft.sol\":3565:3741  for(uint i = 0; i < items.length; i++) {... */\n      jump(tag_98)\n    tag_99:\n      pop\n        /* \"contracts/GeekNft.sol\":3758:3764  result */\n      dup1\n        /* \"contracts/GeekNft.sol\":3751:3764  return result */\n      swap3\n      pop\n      pop\n      pop\n        /* \"contracts/GeekNft.sol\":3404:3771  function fetchItemsToSell() public view returns (Item[] memory){... */\n      swap1\n      jump\t// out\n        /* \"contracts/GeekNft.sol\":398:441  mapping(uint => address) public itemToOwner */\n    tag_29:\n      mstore(0x20, 0x06)\n      dup1\n      0x00\n      mstore\n      keccak256(0x00, 0x40)\n      0x00\n      swap2\n      pop\n      sload\n      swap1\n      0x0100\n      exp\n      swap1\n      div\n      0xffffffffffffffffffffffffffffffffffffffff\n      and\n      dup2\n      jump\t// out\n        /* \"contracts/GeekNft.sol\":4167:4554  function fetchItemsByCatId(uint _catId) public view returns (Item[] memory){... */\n    tag_35:\n        /* \"contracts/GeekNft.sol\":4228:4241  Item[] memory */\n      0x60\n        /* \"contracts/GeekNft.sol\":4252:4264  uint counter */\n      0x00\n        /* \"contracts/GeekNft.sol\":4278:4298  Item[] memory result */\n      dup1\n        /* \"contracts/GeekNft.sol\":4312:4327  itemsCatIdCount */\n      0x08\n        /* \"contracts/GeekNft.sol\":4312:4335  itemsCatIdCount[_catId] */\n      0x00\n        /* \"contracts/GeekNft.sol\":4328:4334  _catId */\n      dup6\n        /* \"contracts/GeekNft.sol\":4312:4335  itemsCatIdCount[_catId] */\n      dup2\n      mstore\n      0x20\n      add\n      swap1\n      dup2\n      mstore\n      0x20\n      add\n      0x00\n      keccak256\n      sload\n        /* \"contracts/GeekNft.sol\":4301:4336  new Item[](itemsCatIdCount[_catId]) */\n      0xffffffffffffffff\n      dup2\n      gt\n      iszero\n      tag_111\n      jumpi\n      mstore(0x00, 0x4e487b7100000000000000000000000000000000000000000000000000000000)\n      mstore(0x04, 0x41)\n      revert(0x00, 0x24)\n    tag_111:\n      mload(0x40)\n      swap1\n      dup1\n      dup3\n      mstore\n      dup1\n      0x20\n      mul\n      0x20\n      add\n      dup3\n      add\n      0x40\n      mstore\n      dup1\n      iszero\n      tag_112\n      jumpi\n      dup2\n      0x20\n      add\n    tag_113:\n      tag_114\n      tag_97\n      jump\t// in\n    tag_114:\n      dup2\n      mstore\n      0x20\n      add\n      swap1\n      0x01\n      swap1\n      sub\n      swap1\n      dup2\n      tag_113\n      jumpi\n      swap1\n      pop\n    tag_112:\n      pop\n        /* \"contracts/GeekNft.sol\":4278:4336  Item[] memory result = new Item[](itemsCatIdCount[_catId]) */\n      swap1\n      pop\n        /* \"contracts/GeekNft.sol\":4351:4357  uint i */\n      0x00\n        /* \"contracts/GeekNft.sol\":4347:4524  for(uint i = 0; i < items.length; i++) {... */\n    tag_115:\n        /* \"contracts/GeekNft.sol\":4367:4372  items */\n      0x03\n        /* \"contracts/GeekNft.sol\":4367:4379  items.length */\n      dup1\n      sload\n      swap1\n      pop\n        /* \"contracts/GeekNft.sol\":4363:4364  i */\n      dup2\n        /* \"contracts/GeekNft.sol\":4363:4379  i < items.length */\n      lt\n        /* \"contracts/GeekNft.sol\":4347:4524  for(uint i = 0; i < items.length; i++) {... */\n      iszero\n      tag_116\n      jumpi\n        /* \"contracts/GeekNft.sol\":4421:4427  _catId */\n      dup5\n        /* \"contracts/GeekNft.sol\":4403:4408  items */\n      0x03\n        /* \"contracts/GeekNft.sol\":4409:4410  i */\n      dup3\n        /* \"contracts/GeekNft.sol\":4403:4411  items[i] */\n      dup2\n      sload\n      dup2\n      lt\n      tag_118\n      jumpi\n      mstore(0x00, 0x4e487b7100000000000000000000000000000000000000000000000000000000)\n      mstore(0x04, 0x32)\n      revert(0x00, 0x24)\n    tag_118:\n      swap1\n      0x00\n      mstore\n      keccak256(0x00, 0x20)\n      swap1\n      0x04\n      mul\n      add\n        /* \"contracts/GeekNft.sol\":4403:4417  items[i].catId */\n      0x02\n      add\n      sload\n        /* \"contracts/GeekNft.sol\":4403:4427  items[i].catId == _catId */\n      eq\n        /* \"contracts/GeekNft.sol\":4400:4514  if(items[i].catId == _catId){... */\n      iszero\n      tag_120\n      jumpi\n        /* \"contracts/GeekNft.sol\":4464:4469  items */\n      0x03\n        /* \"contracts/GeekNft.sol\":4470:4471  i */\n      dup2\n        /* \"contracts/GeekNft.sol\":4464:4472  items[i] */\n      dup2\n      sload\n      dup2\n      lt\n      tag_121\n      jumpi\n      mstore(0x00, 0x4e487b7100000000000000000000000000000000000000000000000000000000)\n      mstore(0x04, 0x32)\n      revert(0x00, 0x24)\n    tag_121:\n      swap1\n      0x00\n      mstore\n      keccak256(0x00, 0x20)\n      swap1\n      0x04\n      mul\n      add\n        /* \"contracts/GeekNft.sol\":4446:4472  result[counter] = items[i] */\n      mload(0x40)\n      dup1\n      0x80\n      add\n      0x40\n      mstore\n      swap1\n      dup2\n      0x00\n      dup3\n      add\n      sload\n      dup2\n      mstore\n      0x20\n      add\n      0x01\n      dup3\n      add\n      sload\n      dup2\n      mstore\n      0x20\n      add\n      0x02\n      dup3\n      add\n      sload\n      dup2\n      mstore\n      0x20\n      add\n      0x03\n      dup3\n      add\n      0x00\n      swap1\n      sload\n      swap1\n      0x0100\n      exp\n      swap1\n      div\n      0xff\n      and\n      iszero\n      iszero\n      iszero\n      iszero\n      dup2\n      mstore\n      pop\n      pop\n        /* \"contracts/GeekNft.sol\":4446:4452  result */\n      dup3\n        /* \"contracts/GeekNft.sol\":4453:4460  counter */\n      dup5\n        /* \"contracts/GeekNft.sol\":4446:4461  result[counter] */\n      dup2\n      mload\n      dup2\n      lt\n      tag_123\n      jumpi\n      mstore(0x00, 0x4e487b7100000000000000000000000000000000000000000000000000000000)\n      mstore(0x04, 0x32)\n      revert(0x00, 0x24)\n    tag_123:\n      0x20\n      mul\n      0x20\n      add\n      add\n        /* \"contracts/GeekNft.sol\":4446:4472  result[counter] = items[i] */\n      dup2\n      swap1\n      mstore\n      pop\n        /* \"contracts/GeekNft.sol\":4490:4499  counter++ */\n      dup3\n      dup1\n      tag_124\n      swap1\n      tag_108\n      jump\t// in\n    tag_124:\n      swap4\n      pop\n      pop\n        /* \"contracts/GeekNft.sol\":4400:4514  if(items[i].catId == _catId){... */\n    tag_120:\n        /* \"contracts/GeekNft.sol\":4381:4384  i++ */\n      dup1\n      dup1\n      tag_125\n      swap1\n      tag_108\n      jump\t// in\n    tag_125:\n      swap2\n      pop\n      pop\n        /* \"contracts/GeekNft.sol\":4347:4524  for(uint i = 0; i < items.length; i++) {... */\n      jump(tag_115)\n    tag_116:\n      pop\n        /* \"contracts/GeekNft.sol\":4541:4547  result */\n      dup1\n        /* \"contracts/GeekNft.sol\":4534:4547  return result */\n      swap3\n      pop\n      pop\n      pop\n        /* \"contracts/GeekNft.sol\":4167:4554  function fetchItemsByCatId(uint _catId) public view returns (Item[] memory){... */\n      swap2\n      swap1\n      pop\n      jump\t// out\n        /* \"contracts/GeekNft.sol\":939:1062  function modifyFeesPercentage(uint _newPercentage) public onlyContractOwner{... */\n    tag_40:\n        /* \"contracts/GeekNft.sol\":723:728  owner */\n      0x02\n      0x00\n      swap1\n      sload\n      swap1\n      0x0100\n      exp\n      swap1\n      div\n      0xffffffffffffffffffffffffffffffffffffffff\n      and\n        /* \"contracts/GeekNft.sol\":709:728  msg.sender == owner */\n      0xffffffffffffffffffffffffffffffffffffffff\n      and\n        /* \"contracts/GeekNft.sol\":709:719  msg.sender */\n      caller\n        /* \"contracts/GeekNft.sol\":709:728  msg.sender == owner */\n      0xffffffffffffffffffffffffffffffffffffffff\n      and\n      eq\n        /* \"contracts/GeekNft.sol\":701:766  require(msg.sender == owner, \"Only contract's owner can do that\") */\n      tag_127\n      jumpi\n      mload(0x40)\n      0x08c379a000000000000000000000000000000000000000000000000000000000\n      dup2\n      mstore\n      0x04\n      add\n      tag_128\n      swap1\n      tag_129\n      jump\t// in\n    tag_128:\n      mload(0x40)\n      dup1\n      swap2\n      sub\n      swap1\n      revert\n    tag_127:\n        /* \"contracts/GeekNft.sol\":1041:1055  _newPercentage */\n      dup1\n        /* \"contracts/GeekNft.sol\":1024:1038  feesPercentage */\n      0x05\n        /* \"contracts/GeekNft.sol\":1024:1055  feesPercentage = _newPercentage */\n      dup2\n      swap1\n      sstore\n      pop\n        /* \"contracts/GeekNft.sol\":939:1062  function modifyFeesPercentage(uint _newPercentage) public onlyContractOwner{... */\n      pop\n      jump\t// out\n        /* \"contracts/GeekNft.sol\":339:367  uint public itemsToSellCount */\n    tag_43:\n      sload(0x04)\n      dup2\n      jump\t// out\n        /* \"contracts/GeekNft.sol\":3777:4161  function fetchItemsByOwner() public view returns (Item[] memory){... */\n    tag_48:\n        /* \"contracts/GeekNft.sol\":3827:3840  Item[] memory */\n      0x60\n        /* \"contracts/GeekNft.sol\":3851:3863  uint counter */\n      0x00\n        /* \"contracts/GeekNft.sol\":3877:3897  Item[] memory result */\n      dup1\n        /* \"contracts/GeekNft.sol\":3911:3926  itemsOwnerCount */\n      0x07\n        /* \"contracts/GeekNft.sol\":3911:3938  itemsOwnerCount[msg.sender] */\n      0x00\n        /* \"contracts/GeekNft.sol\":3927:3937  msg.sender */\n      caller\n        /* \"contracts/GeekNft.sol\":3911:3938  itemsOwnerCount[msg.sender] */\n      0xffffffffffffffffffffffffffffffffffffffff\n      and\n      0xffffffffffffffffffffffffffffffffffffffff\n      and\n      dup2\n      mstore\n      0x20\n      add\n      swap1\n      dup2\n      mstore\n      0x20\n      add\n      0x00\n      keccak256\n      sload\n        /* \"contracts/GeekNft.sol\":3900:3939  new Item[](itemsOwnerCount[msg.sender]) */\n      0xffffffffffffffff\n      dup2\n      gt\n      iszero\n      tag_132\n      jumpi\n      mstore(0x00, 0x4e487b7100000000000000000000000000000000000000000000000000000000)\n      mstore(0x04, 0x41)\n      revert(0x00, 0x24)\n    tag_132:\n      mload(0x40)\n      swap1\n      dup1\n      dup3\n      mstore\n      dup1\n      0x20\n      mul\n      0x20\n      add\n      dup3\n      add\n      0x40\n      mstore\n      dup1\n      iszero\n      tag_133\n      jumpi\n      dup2\n      0x20\n      add\n    tag_134:\n      tag_135\n      tag_97\n      jump\t// in\n    tag_135:\n      dup2\n      mstore\n      0x20\n      add\n      swap1\n      0x01\n      swap1\n      sub\n      swap1\n      dup2\n      tag_134\n      jumpi\n      swap1\n      pop\n    tag_133:\n      pop\n        /* \"contracts/GeekNft.sol\":3877:3939  Item[] memory result = new Item[](itemsOwnerCount[msg.sender]) */\n      swap1\n      pop\n        /* \"contracts/GeekNft.sol\":3954:3960  uint i */\n      0x00\n        /* \"contracts/GeekNft.sol\":3950:4131  for(uint i = 0; i < items.length; i++) {... */\n    tag_136:\n        /* \"contracts/GeekNft.sol\":3970:3975  items */\n      0x03\n        /* \"contracts/GeekNft.sol\":3970:3982  items.length */\n      dup1\n      sload\n      swap1\n      pop\n        /* \"contracts/GeekNft.sol\":3966:3967  i */\n      dup2\n        /* \"contracts/GeekNft.sol\":3966:3982  i < items.length */\n      lt\n        /* \"contracts/GeekNft.sol\":3950:4131  for(uint i = 0; i < items.length; i++) {... */\n      iszero\n      tag_137\n      jumpi\n        /* \"contracts/GeekNft.sol\":4024:4034  msg.sender */\n      caller\n        /* \"contracts/GeekNft.sol\":4006:4034  itemToOwner[i] == msg.sender */\n      0xffffffffffffffffffffffffffffffffffffffff\n      and\n        /* \"contracts/GeekNft.sol\":4006:4017  itemToOwner */\n      0x06\n        /* \"contracts/GeekNft.sol\":4006:4020  itemToOwner[i] */\n      0x00\n        /* \"contracts/GeekNft.sol\":4018:4019  i */\n      dup4\n        /* \"contracts/GeekNft.sol\":4006:4020  itemToOwner[i] */\n      dup2\n      mstore\n      0x20\n      add\n      swap1\n      dup2\n      mstore\n      0x20\n      add\n      0x00\n      keccak256\n      0x00\n      swap1\n      sload\n      swap1\n      0x0100\n      exp\n      swap1\n      div\n      0xffffffffffffffffffffffffffffffffffffffff\n      and\n        /* \"contracts/GeekNft.sol\":4006:4034  itemToOwner[i] == msg.sender */\n      0xffffffffffffffffffffffffffffffffffffffff\n      and\n      eq\n        /* \"contracts/GeekNft.sol\":4003:4121  if(itemToOwner[i] == msg.sender){... */\n      iszero\n      tag_139\n      jumpi\n        /* \"contracts/GeekNft.sol\":4071:4076  items */\n      0x03\n        /* \"contracts/GeekNft.sol\":4077:4078  i */\n      dup2\n        /* \"contracts/GeekNft.sol\":4071:4079  items[i] */\n      dup2\n      sload\n      dup2\n      lt\n      tag_140\n      jumpi\n      mstore(0x00, 0x4e487b7100000000000000000000000000000000000000000000000000000000)\n      mstore(0x04, 0x32)\n      revert(0x00, 0x24)\n    tag_140:\n      swap1\n      0x00\n      mstore\n      keccak256(0x00, 0x20)\n      swap1\n      0x04\n      mul\n      add\n        /* \"contracts/GeekNft.sol\":4053:4079  result[counter] = items[i] */\n      mload(0x40)\n      dup1\n      0x80\n      add\n      0x40\n      mstore\n      swap1\n      dup2\n      0x00\n      dup3\n      add\n      sload\n      dup2\n      mstore\n      0x20\n      add\n      0x01\n      dup3\n      add\n      sload\n      dup2\n      mstore\n      0x20\n      add\n      0x02\n      dup3\n      add\n      sload\n      dup2\n      mstore\n      0x20\n      add\n      0x03\n      dup3\n      add\n      0x00\n      swap1\n      sload\n      swap1\n      0x0100\n      exp\n      swap1\n      div\n      0xff\n      and\n      iszero\n      iszero\n      iszero\n      iszero\n      dup2\n      mstore\n      pop\n      pop\n        /* \"contracts/GeekNft.sol\":4053:4059  result */\n      dup3\n        /* \"contracts/GeekNft.sol\":4060:4067  counter */\n      dup5\n        /* \"contracts/GeekNft.sol\":4053:4068  result[counter] */\n      dup2\n      mload\n      dup2\n      lt\n      tag_142\n      jumpi\n      mstore(0x00, 0x4e487b7100000000000000000000000000000000000000000000000000000000)\n      mstore(0x04, 0x32)\n      revert(0x00, 0x24)\n    tag_142:\n      0x20\n      mul\n      0x20\n      add\n      add\n        /* \"contracts/GeekNft.sol\":4053:4079  result[counter] = items[i] */\n      dup2\n      swap1\n      mstore\n      pop\n        /* \"contracts/GeekNft.sol\":4097:4106  counter++ */\n      dup3\n      dup1\n      tag_143\n      swap1\n      tag_108\n      jump\t// in\n    tag_143:\n      swap4\n      pop\n      pop\n        /* \"contracts/GeekNft.sol\":4003:4121  if(itemToOwner[i] == msg.sender){... */\n    tag_139:\n        /* \"contracts/GeekNft.sol\":3984:3987  i++ */\n      dup1\n      dup1\n      tag_144\n      swap1\n      tag_108\n      jump\t// in\n    tag_144:\n      swap2\n      pop\n      pop\n        /* \"contracts/GeekNft.sol\":3950:4131  for(uint i = 0; i < items.length; i++) {... */\n      jump(tag_136)\n    tag_137:\n      pop\n        /* \"contracts/GeekNft.sol\":4148:4154  result */\n      dup1\n        /* \"contracts/GeekNft.sol\":4141:4154  return result */\n      swap3\n      pop\n      pop\n      pop\n        /* \"contracts/GeekNft.sol\":3777:4161  function fetchItemsByOwner() public view returns (Item[] memory){... */\n      swap1\n      jump\t// out\n        /* \"contracts/GeekNft.sol\":2506:2612  function ownerOf(uint _tokenId) public view returns (address){... */\n    tag_53:\n        /* \"contracts/GeekNft.sol\":2559:2566  address */\n      0x00\n        /* \"contracts/GeekNft.sol\":2584:2595  itemToOwner */\n      0x06\n        /* \"contracts/GeekNft.sol\":2584:2605  itemToOwner[_tokenId] */\n      0x00\n        /* \"contracts/GeekNft.sol\":2596:2604  _tokenId */\n      dup4\n        /* \"contracts/GeekNft.sol\":2584:2605  itemToOwner[_tokenId] */\n      dup2\n      mstore\n      0x20\n      add\n      swap1\n      dup2\n      mstore\n      0x20\n      add\n      0x00\n      keccak256\n      0x00\n      swap1\n      sload\n      swap1\n      0x0100\n      exp\n      swap1\n      div\n      0xffffffffffffffffffffffffffffffffffffffff\n      and\n        /* \"contracts/GeekNft.sol\":2577:2605  return itemToOwner[_tokenId] */\n      swap1\n      pop\n        /* \"contracts/GeekNft.sol\":2506:2612  function ownerOf(uint _tokenId) public view returns (address){... */\n      swap2\n      swap1\n      pop\n      jump\t// out\n        /* \"contracts/GeekNft.sol\":2618:2726  function balanceOf(address _owner) public view returns (uint){... */\n    tag_59:\n        /* \"contracts/GeekNft.sol\":2674:2678  uint */\n      0x00\n        /* \"contracts/GeekNft.sol\":2696:2711  itemsOwnerCount */\n      0x07\n        /* \"contracts/GeekNft.sol\":2696:2719  itemsOwnerCount[_owner] */\n      0x00\n        /* \"contracts/GeekNft.sol\":2712:2718  _owner */\n      dup4\n        /* \"contracts/GeekNft.sol\":2696:2719  itemsOwnerCount[_owner] */\n      0xffffffffffffffffffffffffffffffffffffffff\n      and\n      0xffffffffffffffffffffffffffffffffffffffff\n      and\n      dup2\n      mstore\n      0x20\n      add\n      swap1\n      dup2\n      mstore\n      0x20\n      add\n      0x00\n      keccak256\n      sload\n        /* \"contracts/GeekNft.sol\":2689:2719  return itemsOwnerCount[_owner] */\n      swap1\n      pop\n        /* \"contracts/GeekNft.sol\":2618:2726  function balanceOf(address _owner) public view returns (uint){... */\n      swap2\n      swap1\n      pop\n      jump\t// out\n        /* \"contracts/GeekNft.sol\":1714:2500  function sellItem(uint _tokenId) public payable{... */\n    tag_63:\n        /* \"contracts/GeekNft.sol\":1792:1797  items */\n      0x03\n        /* \"contracts/GeekNft.sol\":1798:1806  _tokenId */\n      dup2\n        /* \"contracts/GeekNft.sol\":1792:1807  items[_tokenId] */\n      dup2\n      sload\n      dup2\n      lt\n      tag_148\n      jumpi\n      mstore(0x00, 0x4e487b7100000000000000000000000000000000000000000000000000000000)\n      mstore(0x04, 0x32)\n      revert(0x00, 0x24)\n    tag_148:\n      swap1\n      0x00\n      mstore\n      keccak256(0x00, 0x20)\n      swap1\n      0x04\n      mul\n      add\n        /* \"contracts/GeekNft.sol\":1792:1813  items[_tokenId].price */\n      0x01\n      add\n      sload\n        /* \"contracts/GeekNft.sol\":1779:1788  msg.value */\n      callvalue\n        /* \"contracts/GeekNft.sol\":1779:1813  msg.value == items[_tokenId].price */\n      eq\n        /* \"contracts/GeekNft.sol\":1771:1814  require(msg.value == items[_tokenId].price) */\n      tag_150\n      jumpi\n      0x00\n      dup1\n      revert\n    tag_150:\n        /* \"contracts/GeekNft.sol\":1865:1866  0 */\n      0x00\n        /* \"contracts/GeekNft.sol\":1832:1867  itemToOwner[_tokenId] != address(0) */\n      0xffffffffffffffffffffffffffffffffffffffff\n      and\n        /* \"contracts/GeekNft.sol\":1832:1843  itemToOwner */\n      0x06\n        /* \"contracts/GeekNft.sol\":1832:1853  itemToOwner[_tokenId] */\n      0x00\n        /* \"contracts/GeekNft.sol\":1844:1852  _tokenId */\n      dup4\n        /* \"contracts/GeekNft.sol\":1832:1853  itemToOwner[_tokenId] */\n      dup2\n      mstore\n      0x20\n      add\n      swap1\n      dup2\n      mstore\n      0x20\n      add\n      0x00\n      keccak256\n      0x00\n      swap1\n      sload\n      swap1\n      0x0100\n      exp\n      swap1\n      div\n      0xffffffffffffffffffffffffffffffffffffffff\n      and\n        /* \"contracts/GeekNft.sol\":1832:1867  itemToOwner[_tokenId] != address(0) */\n      0xffffffffffffffffffffffffffffffffffffffff\n      and\n      eq\n      iszero\n        /* \"contracts/GeekNft.sol\":1824:1891  require(itemToOwner[_tokenId] != address(0), \"token doesn't exist\") */\n      tag_151\n      jumpi\n      mload(0x40)\n      0x08c379a000000000000000000000000000000000000000000000000000000000\n      dup2\n      mstore\n      0x04\n      add\n      tag_152\n      swap1\n      tag_153\n      jump\t// in\n    tag_152:\n      mload(0x40)\n      dup1\n      swap2\n      sub\n      swap1\n      revert\n    tag_151:\n        /* \"contracts/GeekNft.sol\":1902:1918  address oldOwner */\n      0x00\n        /* \"contracts/GeekNft.sol\":1921:1932  itemToOwner */\n      0x06\n        /* \"contracts/GeekNft.sol\":1921:1942  itemToOwner[_tokenId] */\n      0x00\n        /* \"contracts/GeekNft.sol\":1933:1941  _tokenId */\n      dup4\n        /* \"contracts/GeekNft.sol\":1921:1942  itemToOwner[_tokenId] */\n      dup2\n      mstore\n      0x20\n      add\n      swap1\n      dup2\n      mstore\n      0x20\n      add\n      0x00\n      keccak256\n      0x00\n      swap1\n      sload\n      swap1\n      0x0100\n      exp\n      swap1\n      div\n      0xffffffffffffffffffffffffffffffffffffffff\n      and\n        /* \"contracts/GeekNft.sol\":1902:1942  address oldOwner = itemToOwner[_tokenId] */\n      swap1\n      pop\n        /* \"contracts/GeekNft.sol\":1961:1984  Item storage itemToSell */\n      0x00\n        /* \"contracts/GeekNft.sol\":1987:1992  items */\n      0x03\n        /* \"contracts/GeekNft.sol\":1993:2001  _tokenId */\n      dup4\n        /* \"contracts/GeekNft.sol\":1987:2002  items[_tokenId] */\n      dup2\n      sload\n      dup2\n      lt\n      tag_154\n      jumpi\n      mstore(0x00, 0x4e487b7100000000000000000000000000000000000000000000000000000000)\n      mstore(0x04, 0x32)\n      revert(0x00, 0x24)\n    tag_154:\n      swap1\n      0x00\n      mstore\n      keccak256(0x00, 0x20)\n      swap1\n      0x04\n      mul\n      add\n        /* \"contracts/GeekNft.sol\":1961:2002  Item storage itemToSell = items[_tokenId] */\n      swap1\n      pop\n        /* \"contracts/GeekNft.sol\":2032:2037  false */\n      0x00\n        /* \"contracts/GeekNft.sol\":2012:2022  itemToSell */\n      dup2\n        /* \"contracts/GeekNft.sol\":2012:2029  itemToSell.toSell */\n      0x03\n      add\n      0x00\n        /* \"contracts/GeekNft.sol\":2012:2037  itemToSell.toSell = false */\n      0x0100\n      exp\n      dup2\n      sload\n      dup2\n      0xff\n      mul\n      not\n      and\n      swap1\n      dup4\n      iszero\n      iszero\n      mul\n      or\n      swap1\n      sstore\n      pop\n        /* \"contracts/GeekNft.sol\":2072:2082  msg.sender */\n      caller\n        /* \"contracts/GeekNft.sol\":2048:2059  itemToOwner */\n      0x06\n        /* \"contracts/GeekNft.sol\":2048:2069  itemToOwner[_tokenId] */\n      0x00\n        /* \"contracts/GeekNft.sol\":2060:2068  _tokenId */\n      dup6\n        /* \"contracts/GeekNft.sol\":2048:2069  itemToOwner[_tokenId] */\n      dup2\n      mstore\n      0x20\n      add\n      swap1\n      dup2\n      mstore\n      0x20\n      add\n      0x00\n      keccak256\n      0x00\n        /* \"contracts/GeekNft.sol\":2048:2082  itemToOwner[_tokenId] = msg.sender */\n      0x0100\n      exp\n      dup2\n      sload\n      dup2\n      0xffffffffffffffffffffffffffffffffffffffff\n      mul\n      not\n      and\n      swap1\n      dup4\n      0xffffffffffffffffffffffffffffffffffffffff\n      and\n      mul\n      or\n      swap1\n      sstore\n      pop\n        /* \"contracts/GeekNft.sol\":2116:2131  itemsOwnerCount */\n      0x07\n        /* \"contracts/GeekNft.sol\":2116:2141  itemsOwnerCount[oldOwner] */\n      0x00\n        /* \"contracts/GeekNft.sol\":2132:2140  oldOwner */\n      dup4\n        /* \"contracts/GeekNft.sol\":2116:2141  itemsOwnerCount[oldOwner] */\n      0xffffffffffffffffffffffffffffffffffffffff\n      and\n      0xffffffffffffffffffffffffffffffffffffffff\n      and\n      dup2\n      mstore\n      0x20\n      add\n      swap1\n      dup2\n      mstore\n      0x20\n      add\n      0x00\n      keccak256\n      0x00\n        /* \"contracts/GeekNft.sol\":2116:2143  itemsOwnerCount[oldOwner]-- */\n      dup2\n      sload\n      dup1\n      swap3\n      swap2\n      swap1\n      0x01\n      swap1\n      sub\n      swap2\n      swap1\n      pop\n      sstore\n      pop\n        /* \"contracts/GeekNft.sol\":2157:2172  itemsOwnerCount */\n      0x07\n        /* \"contracts/GeekNft.sol\":2157:2184  itemsOwnerCount[msg.sender] */\n      0x00\n        /* \"contracts/GeekNft.sol\":2173:2183  msg.sender */\n      caller\n        /* \"contracts/GeekNft.sol\":2157:2184  itemsOwnerCount[msg.sender] */\n      0xffffffffffffffffffffffffffffffffffffffff\n      and\n      0xffffffffffffffffffffffffffffffffffffffff\n      and\n      dup2\n      mstore\n      0x20\n      add\n      swap1\n      dup2\n      mstore\n      0x20\n      add\n      0x00\n      keccak256\n      0x00\n        /* \"contracts/GeekNft.sol\":2157:2186  itemsOwnerCount[msg.sender]++ */\n      dup2\n      sload\n      dup1\n      swap3\n      swap2\n      swap1\n      0x01\n      add\n      swap2\n      swap1\n      pop\n      sstore\n      pop\n        /* \"contracts/GeekNft.sol\":2200:2216  itemsToSellCount */\n      0x04\n      0x00\n        /* \"contracts/GeekNft.sol\":2200:2218  itemsToSellCount-- */\n      dup2\n      sload\n      dup1\n      swap3\n      swap2\n      swap1\n      0x01\n      swap1\n      sub\n      swap2\n      swap1\n      pop\n      sstore\n      pop\n        /* \"contracts/GeekNft.sol\":2239:2248  uint fees */\n      0x00\n        /* \"contracts/GeekNft.sol\":2258:2277  uint totalMinusFees */\n      dup1\n        /* \"contracts/GeekNft.sol\":2312:2346  getFees(msg.value, feesPercentage) */\n      tag_156\n        /* \"contracts/GeekNft.sol\":2320:2329  msg.value */\n      callvalue\n        /* \"contracts/GeekNft.sol\":2331:2345  feesPercentage */\n      sload(0x05)\n        /* \"contracts/GeekNft.sol\":2312:2319  getFees */\n      tag_157\n        /* \"contracts/GeekNft.sol\":2312:2346  getFees(msg.value, feesPercentage) */\n      jump\t// in\n    tag_156:\n        /* \"contracts/GeekNft.sol\":2287:2346  (fees, totalMinusFees) = getFees(msg.value, feesPercentage) */\n      dup1\n      swap3\n      pop\n      dup2\n      swap4\n      pop\n      pop\n      pop\n        /* \"contracts/GeekNft.sol\":2364:2369  owner */\n      0x02\n      0x00\n      swap1\n      sload\n      swap1\n      0x0100\n      exp\n      swap1\n      div\n      0xffffffffffffffffffffffffffffffffffffffff\n      and\n        /* \"contracts/GeekNft.sol\":2356:2379  payable(owner).transfer */\n      0xffffffffffffffffffffffffffffffffffffffff\n      and\n        /* \"contracts/GeekNft.sol\":2356:2385  payable(owner).transfer(fees) */\n      0x08fc\n        /* \"contracts/GeekNft.sol\":2380:2384  fees */\n      dup4\n        /* \"contracts/GeekNft.sol\":2356:2385  payable(owner).transfer(fees) */\n      swap1\n      dup2\n      iszero\n      mul\n      swap1\n      mload(0x40)\n      0x00\n      mload(0x40)\n      dup1\n      dup4\n      sub\n      dup2\n      dup6\n      dup9\n      dup9\n      call\n      swap4\n      pop\n      pop\n      pop\n      pop\n      iszero\n      dup1\n      iszero\n      tag_159\n      jumpi\n      returndatasize\n      0x00\n      dup1\n      returndatacopy\n      revert(0x00, returndatasize)\n    tag_159:\n      pop\n        /* \"contracts/GeekNft.sol\":2403:2411  oldOwner */\n      dup4\n        /* \"contracts/GeekNft.sol\":2395:2421  payable(oldOwner).transfer */\n      0xffffffffffffffffffffffffffffffffffffffff\n      and\n        /* \"contracts/GeekNft.sol\":2395:2437  payable(oldOwner).transfer(totalMinusFees) */\n      0x08fc\n        /* \"contracts/GeekNft.sol\":2422:2436  totalMinusFees */\n      dup3\n        /* \"contracts/GeekNft.sol\":2395:2437  payable(oldOwner).transfer(totalMinusFees) */\n      swap1\n      dup2\n      iszero\n      mul\n      swap1\n      mload(0x40)\n      0x00\n      mload(0x40)\n      dup1\n      dup4\n      sub\n      dup2\n      dup6\n      dup9\n      dup9\n      call\n      swap4\n      pop\n      pop\n      pop\n      pop\n      iszero\n      dup1\n      iszero\n      tag_161\n      jumpi\n      returndatasize\n      0x00\n      dup1\n      returndatacopy\n      revert(0x00, returndatasize)\n    tag_161:\n      pop\n        /* \"contracts/GeekNft.sol\":2472:2482  msg.sender */\n      caller\n        /* \"contracts/GeekNft.sol\":2453:2493  Transfer(oldOwner, msg.sender, _tokenId) */\n      0xffffffffffffffffffffffffffffffffffffffff\n      and\n        /* \"contracts/GeekNft.sol\":2462:2470  oldOwner */\n      dup5\n        /* \"contracts/GeekNft.sol\":2453:2493  Transfer(oldOwner, msg.sender, _tokenId) */\n      0xffffffffffffffffffffffffffffffffffffffff\n      and\n      0xddf252ad1be2c89b69c2b068fc378daa952ba7f163c4a11628f55a4df523b3ef\n        /* \"contracts/GeekNft.sol\":2484:2492  _tokenId */\n      dup8\n        /* \"contracts/GeekNft.sol\":2453:2493  Transfer(oldOwner, msg.sender, _tokenId) */\n      mload(0x40)\n      tag_162\n      swap2\n      swap1\n      tag_45\n      jump\t// in\n    tag_162:\n      mload(0x40)\n      dup1\n      swap2\n      sub\n      swap1\n      log3\n        /* \"contracts/GeekNft.sol\":1714:2500  function sellItem(uint _tokenId) public payable{... */\n      pop\n      pop\n      pop\n      pop\n      pop\n      jump\t// out\n        /* \"contracts/GeekNft.sol\":2732:3061  function removeItemToSell(uint _tokenId) public onlyItemOwner(_tokenId) {... */\n    tag_67:\n        /* \"contracts/GeekNft.sol\":2794:2802  _tokenId */\n      dup1\n        /* \"contracts/GeekNft.sol\":871:881  msg.sender */\n      caller\n        /* \"contracts/GeekNft.sol\":846:881  itemToOwner[_tokenId] == msg.sender */\n      0xffffffffffffffffffffffffffffffffffffffff\n      and\n        /* \"contracts/GeekNft.sol\":846:857  itemToOwner */\n      0x06\n        /* \"contracts/GeekNft.sol\":846:867  itemToOwner[_tokenId] */\n      0x00\n        /* \"contracts/GeekNft.sol\":858:866  _tokenId */\n      dup4\n        /* \"contracts/GeekNft.sol\":846:867  itemToOwner[_tokenId] */\n      dup2\n      mstore\n      0x20\n      add\n      swap1\n      dup2\n      mstore\n      0x20\n      add\n      0x00\n      keccak256\n      0x00\n      swap1\n      sload\n      swap1\n      0x0100\n      exp\n      swap1\n      div\n      0xffffffffffffffffffffffffffffffffffffffff\n      and\n        /* \"contracts/GeekNft.sol\":846:881  itemToOwner[_tokenId] == msg.sender */\n      0xffffffffffffffffffffffffffffffffffffffff\n      and\n      eq\n        /* \"contracts/GeekNft.sol\":838:915  require(itemToOwner[_tokenId] == msg.sender, \"Only item's owner can do that\") */\n      tag_164\n      jumpi\n      mload(0x40)\n      0x08c379a000000000000000000000000000000000000000000000000000000000\n      dup2\n      mstore\n      0x04\n      add\n      tag_165\n      swap1\n      tag_166\n      jump\t// in\n    tag_165:\n      mload(0x40)\n      dup1\n      swap2\n      sub\n      swap1\n      revert\n    tag_164:\n        /* \"contracts/GeekNft.sol\":2855:2856  0 */\n      0x00\n        /* \"contracts/GeekNft.sol\":2822:2857  itemToOwner[_tokenId] != address(0) */\n      0xffffffffffffffffffffffffffffffffffffffff\n      and\n        /* \"contracts/GeekNft.sol\":2822:2833  itemToOwner */\n      0x06\n        /* \"contracts/GeekNft.sol\":2822:2843  itemToOwner[_tokenId] */\n      0x00\n        /* \"contracts/GeekNft.sol\":2834:2842  _tokenId */\n      dup5\n        /* \"contracts/GeekNft.sol\":2822:2843  itemToOwner[_tokenId] */\n      dup2\n      mstore\n      0x20\n      add\n      swap1\n      dup2\n      mstore\n      0x20\n      add\n      0x00\n      keccak256\n      0x00\n      swap1\n      sload\n      swap1\n      0x0100\n      exp\n      swap1\n      div\n      0xffffffffffffffffffffffffffffffffffffffff\n      and\n        /* \"contracts/GeekNft.sol\":2822:2857  itemToOwner[_tokenId] != address(0) */\n      0xffffffffffffffffffffffffffffffffffffffff\n      and\n      eq\n      iszero\n        /* \"contracts/GeekNft.sol\":2814:2881  require(itemToOwner[_tokenId] != address(0), \"token doesn't exist\") */\n      tag_168\n      jumpi\n      mload(0x40)\n      0x08c379a000000000000000000000000000000000000000000000000000000000\n      dup2\n      mstore\n      0x04\n      add\n      tag_169\n      swap1\n      tag_153\n      jump\t// in\n    tag_169:\n      mload(0x40)\n      dup1\n      swap2\n      sub\n      swap1\n      revert\n    tag_168:\n        /* \"contracts/GeekNft.sol\":2925:2929  true */\n      0x01\n        /* \"contracts/GeekNft.sol\":2899:2929  items[_tokenId].toSell == true */\n      iszero\n      iszero\n        /* \"contracts/GeekNft.sol\":2899:2904  items */\n      0x03\n        /* \"contracts/GeekNft.sol\":2905:2913  _tokenId */\n      dup4\n        /* \"contracts/GeekNft.sol\":2899:2914  items[_tokenId] */\n      dup2\n      sload\n      dup2\n      lt\n      tag_170\n      jumpi\n      mstore(0x00, 0x4e487b7100000000000000000000000000000000000000000000000000000000)\n      mstore(0x04, 0x32)\n      revert(0x00, 0x24)\n    tag_170:\n      swap1\n      0x00\n      mstore\n      keccak256(0x00, 0x20)\n      swap1\n      0x04\n      mul\n      add\n        /* \"contracts/GeekNft.sol\":2899:2921  items[_tokenId].toSell */\n      0x03\n      add\n      0x00\n      swap1\n      sload\n      swap1\n      0x0100\n      exp\n      swap1\n      div\n      0xff\n      and\n        /* \"contracts/GeekNft.sol\":2899:2929  items[_tokenId].toSell == true */\n      iszero\n      iszero\n      eq\n        /* \"contracts/GeekNft.sol\":2891:2953  require(items[_tokenId].toSell == true, \"token isn't to sell\") */\n      tag_172\n      jumpi\n      mload(0x40)\n      0x08c379a000000000000000000000000000000000000000000000000000000000\n      dup2\n      mstore\n      0x04\n      add\n      tag_173\n      swap1\n      tag_174\n      jump\t// in\n    tag_173:\n      mload(0x40)\n      dup1\n      swap2\n      sub\n      swap1\n      revert\n    tag_172:\n        /* \"contracts/GeekNft.sol\":2988:2993  false */\n      0x00\n        /* \"contracts/GeekNft.sol\":2963:2968  items */\n      0x03\n        /* \"contracts/GeekNft.sol\":2969:2977  _tokenId */\n      dup4\n        /* \"contracts/GeekNft.sol\":2963:2978  items[_tokenId] */\n      dup2\n      sload\n      dup2\n      lt\n      tag_175\n      jumpi\n      mstore(0x00, 0x4e487b7100000000000000000000000000000000000000000000000000000000)\n      mstore(0x04, 0x32)\n      revert(0x00, 0x24)\n    tag_175:\n      swap1\n      0x00\n      mstore\n      keccak256(0x00, 0x20)\n      swap1\n      0x04\n      mul\n      add\n        /* \"contracts/GeekNft.sol\":2963:2985  items[_tokenId].toSell */\n      0x03\n      add\n      0x00\n        /* \"contracts/GeekNft.sol\":2963:2993  items[_tokenId].toSell = false */\n      0x0100\n      exp\n      dup2\n      sload\n      dup2\n      0xff\n      mul\n      not\n      and\n      swap1\n      dup4\n      iszero\n      iszero\n      mul\n      or\n      swap1\n      sstore\n      pop\n        /* \"contracts/GeekNft.sol\":3026:3042  itemsToSellCount */\n      0x04\n      0x00\n        /* \"contracts/GeekNft.sol\":3026:3044  itemsToSellCount-- */\n      dup2\n      sload\n      dup1\n      swap3\n      swap2\n      swap1\n      0x01\n      swap1\n      sub\n      swap2\n      swap1\n      pop\n      sstore\n      pop\n        /* \"contracts/GeekNft.sol\":2732:3061  function removeItemToSell(uint _tokenId) public onlyItemOwner(_tokenId) {... */\n      pop\n      pop\n      jump\t// out\n        /* \"contracts/GeekNft.sol\":1168:1708  function createItem(uint _price, uint _catId) public returns (uint){... */\n    tag_72:\n        /* \"contracts/GeekNft.sol\":1230:1234  uint */\n      0x00\n        /* \"contracts/GeekNft.sol\":1262:1263  0 */\n      dup1\n        /* \"contracts/GeekNft.sol\":1253:1259  _price */\n      dup4\n        /* \"contracts/GeekNft.sol\":1253:1263  _price > 0 */\n      gt\n        /* \"contracts/GeekNft.sol\":1245:1294  require(_price > 0, \"Price cannot be equal to 0\") */\n      tag_178\n      jumpi\n      mload(0x40)\n      0x08c379a000000000000000000000000000000000000000000000000000000000\n      dup2\n      mstore\n      0x04\n      add\n      tag_179\n      swap1\n      tag_180\n      jump\t// in\n    tag_179:\n      mload(0x40)\n      dup1\n      swap2\n      sub\n      swap1\n      revert\n    tag_178:\n        /* \"contracts/GeekNft.sol\":1304:1319  uint newTokenId */\n      0x00\n        /* \"contracts/GeekNft.sol\":1322:1327  items */\n      0x03\n        /* \"contracts/GeekNft.sol\":1322:1334  items.length */\n      dup1\n      sload\n      swap1\n      pop\n        /* \"contracts/GeekNft.sol\":1304:1334  uint newTokenId = items.length */\n      swap1\n      pop\n        /* \"contracts/GeekNft.sol\":1388:1389  0 */\n      0x00\n        /* \"contracts/GeekNft.sol\":1353:1390  itemToOwner[newTokenId] == address(0) */\n      0xffffffffffffffffffffffffffffffffffffffff\n      and\n        /* \"contracts/GeekNft.sol\":1353:1364  itemToOwner */\n      0x06\n        /* \"contracts/GeekNft.sol\":1353:1376  itemToOwner[newTokenId] */\n      0x00\n        /* \"contracts/GeekNft.sol\":1365:1375  newTokenId */\n      dup4\n        /* \"contracts/GeekNft.sol\":1353:1376  itemToOwner[newTokenId] */\n      dup2\n      mstore\n      0x20\n      add\n      swap1\n      dup2\n      mstore\n      0x20\n      add\n      0x00\n      keccak256\n      0x00\n      swap1\n      sload\n      swap1\n      0x0100\n      exp\n      swap1\n      div\n      0xffffffffffffffffffffffffffffffffffffffff\n      and\n        /* \"contracts/GeekNft.sol\":1353:1390  itemToOwner[newTokenId] == address(0) */\n      0xffffffffffffffffffffffffffffffffffffffff\n      and\n      eq\n        /* \"contracts/GeekNft.sol\":1345:1414  require(itemToOwner[newTokenId] == address(0), \"token already exist\") */\n      tag_181\n      jumpi\n      mload(0x40)\n      0x08c379a000000000000000000000000000000000000000000000000000000000\n      dup2\n      mstore\n      0x04\n      add\n      tag_182\n      swap1\n      tag_183\n      jump\t// in\n    tag_182:\n      mload(0x40)\n      dup1\n      swap2\n      sub\n      swap1\n      revert\n    tag_181:\n        /* \"contracts/GeekNft.sol\":1445:1483  Item(newTokenId, _price, _catId, true) */\n      mload(0x40)\n      dup1\n      0x80\n      add\n      0x40\n      mstore\n      dup1\n        /* \"contracts/GeekNft.sol\":1450:1460  newTokenId */\n      dup3\n        /* \"contracts/GeekNft.sol\":1445:1483  Item(newTokenId, _price, _catId, true) */\n      dup2\n      mstore\n      0x20\n      add\n        /* \"contracts/GeekNft.sol\":1462:1468  _price */\n      dup6\n        /* \"contracts/GeekNft.sol\":1445:1483  Item(newTokenId, _price, _catId, true) */\n      dup2\n      mstore\n      0x20\n      add\n        /* \"contracts/GeekNft.sol\":1470:1476  _catId */\n      dup5\n        /* \"contracts/GeekNft.sol\":1445:1483  Item(newTokenId, _price, _catId, true) */\n      dup2\n      mstore\n      0x20\n      add\n        /* \"contracts/GeekNft.sol\":1478:1482  true */\n      0x01\n        /* \"contracts/GeekNft.sol\":1445:1483  Item(newTokenId, _price, _catId, true) */\n      iszero\n      iszero\n      dup2\n      mstore\n      pop\n        /* \"contracts/GeekNft.sol\":1425:1430  items */\n      0x03\n        /* \"contracts/GeekNft.sol\":1431:1441  newTokenId */\n      dup3\n        /* \"contracts/GeekNft.sol\":1425:1442  items[newTokenId] */\n      dup2\n      sload\n      dup2\n      lt\n      tag_184\n      jumpi\n      mstore(0x00, 0x4e487b7100000000000000000000000000000000000000000000000000000000)\n      mstore(0x04, 0x32)\n      revert(0x00, 0x24)\n    tag_184:\n      swap1\n      0x00\n      mstore\n      keccak256(0x00, 0x20)\n      swap1\n      0x04\n      mul\n      add\n        /* \"contracts/GeekNft.sol\":1425:1483  items[newTokenId] = Item(newTokenId, _price, _catId, true) */\n      0x00\n      dup3\n      add\n      mload\n      dup2\n      0x00\n      add\n      sstore\n      0x20\n      dup3\n      add\n      mload\n      dup2\n      0x01\n      add\n      sstore\n      0x40\n      dup3\n      add\n      mload\n      dup2\n      0x02\n      add\n      sstore\n      0x60\n      dup3\n      add\n      mload\n      dup2\n      0x03\n      add\n      exp(0x0100, 0x00)\n      dup2\n      sload\n      dup2\n      0xff\n      mul\n      not\n      and\n      swap1\n      dup4\n      iszero\n      iszero\n      mul\n      or\n      swap1\n      sstore\n      pop\n      swap1\n      pop\n      pop\n        /* \"contracts/GeekNft.sol\":1519:1529  msg.sender */\n      caller\n        /* \"contracts/GeekNft.sol\":1493:1504  itemToOwner */\n      0x06\n        /* \"contracts/GeekNft.sol\":1493:1516  itemToOwner[newTokenId] */\n      0x00\n        /* \"contracts/GeekNft.sol\":1505:1515  newTokenId */\n      dup4\n        /* \"contracts/GeekNft.sol\":1493:1516  itemToOwner[newTokenId] */\n      dup2\n      mstore\n      0x20\n      add\n      swap1\n      dup2\n      mstore\n      0x20\n      add\n      0x00\n      keccak256\n      0x00\n        /* \"contracts/GeekNft.sol\":1493:1529  itemToOwner[newTokenId] = msg.sender */\n      0x0100\n      exp\n      dup2\n      sload\n      dup2\n      0xffffffffffffffffffffffffffffffffffffffff\n      mul\n      not\n      and\n      swap1\n      dup4\n      0xffffffffffffffffffffffffffffffffffffffff\n      and\n      mul\n      or\n      swap1\n      sstore\n      pop\n        /* \"contracts/GeekNft.sol\":1563:1578  itemsOwnerCount */\n      0x07\n        /* \"contracts/GeekNft.sol\":1563:1590  itemsOwnerCount[msg.sender] */\n      0x00\n        /* \"contracts/GeekNft.sol\":1579:1589  msg.sender */\n      caller\n        /* \"contracts/GeekNft.sol\":1563:1590  itemsOwnerCount[msg.sender] */\n      0xffffffffffffffffffffffffffffffffffffffff\n      and\n      0xffffffffffffffffffffffffffffffffffffffff\n      and\n      dup2\n      mstore\n      0x20\n      add\n      swap1\n      dup2\n      mstore\n      0x20\n      add\n      0x00\n      keccak256\n      0x00\n        /* \"contracts/GeekNft.sol\":1563:1592  itemsOwnerCount[msg.sender]++ */\n      dup2\n      sload\n      dup1\n      swap3\n      swap2\n      swap1\n      0x01\n      add\n      swap2\n      swap1\n      pop\n      sstore\n      pop\n        /* \"contracts/GeekNft.sol\":1606:1621  itemsCatIdCount */\n      0x08\n        /* \"contracts/GeekNft.sol\":1606:1629  itemsCatIdCount[_catId] */\n      0x00\n        /* \"contracts/GeekNft.sol\":1622:1628  _catId */\n      dup5\n        /* \"contracts/GeekNft.sol\":1606:1629  itemsCatIdCount[_catId] */\n      dup2\n      mstore\n      0x20\n      add\n      swap1\n      dup2\n      mstore\n      0x20\n      add\n      0x00\n      keccak256\n      0x00\n        /* \"contracts/GeekNft.sol\":1606:1631  itemsCatIdCount[_catId]++ */\n      dup2\n      sload\n      dup1\n      swap3\n      swap2\n      swap1\n      0x01\n      add\n      swap2\n      swap1\n      pop\n      sstore\n      pop\n        /* \"contracts/GeekNft.sol\":1645:1661  itemsToSellCount */\n      0x04\n      0x00\n        /* \"contracts/GeekNft.sol\":1645:1663  itemsToSellCount++ */\n      dup2\n      sload\n      dup1\n      swap3\n      swap2\n      swap1\n      0x01\n      add\n      swap2\n      swap1\n      pop\n      sstore\n      pop\n        /* \"contracts/GeekNft.sol\":1691:1701  newTokenId */\n      dup1\n        /* \"contracts/GeekNft.sol\":1684:1701  return newTokenId */\n      swap2\n      pop\n      pop\n        /* \"contracts/GeekNft.sol\":1168:1708  function createItem(uint _price, uint _catId) public returns (uint){... */\n      swap3\n      swap2\n      pop\n      pop\n      jump\t// out\n        /* \"contracts/GeekNft.sol\":3067:3398  function addItemToSell(uint _tokenId) public onlyItemOwner(_tokenId) {... */\n    tag_77:\n        /* \"contracts/GeekNft.sol\":3126:3134  _tokenId */\n      dup1\n        /* \"contracts/GeekNft.sol\":871:881  msg.sender */\n      caller\n        /* \"contracts/GeekNft.sol\":846:881  itemToOwner[_tokenId] == msg.sender */\n      0xffffffffffffffffffffffffffffffffffffffff\n      and\n        /* \"contracts/GeekNft.sol\":846:857  itemToOwner */\n      0x06\n        /* \"contracts/GeekNft.sol\":846:867  itemToOwner[_tokenId] */\n      0x00\n        /* \"contracts/GeekNft.sol\":858:866  _tokenId */\n      dup4\n        /* \"contracts/GeekNft.sol\":846:867  itemToOwner[_tokenId] */\n      dup2\n      mstore\n      0x20\n      add\n      swap1\n      dup2\n      mstore\n      0x20\n      add\n      0x00\n      keccak256\n      0x00\n      swap1\n      sload\n      swap1\n      0x0100\n      exp\n      swap1\n      div\n      0xffffffffffffffffffffffffffffffffffffffff\n      and\n        /* \"contracts/GeekNft.sol\":846:881  itemToOwner[_tokenId] == msg.sender */\n      0xffffffffffffffffffffffffffffffffffffffff\n      and\n      eq\n        /* \"contracts/GeekNft.sol\":838:915  require(itemToOwner[_tokenId] == msg.sender, \"Only item's owner can do that\") */\n      tag_187\n      jumpi\n      mload(0x40)\n      0x08c379a000000000000000000000000000000000000000000000000000000000\n      dup2\n      mstore\n      0x04\n      add\n      tag_188\n      swap1\n      tag_166\n      jump\t// in\n    tag_188:\n      mload(0x40)\n      dup1\n      swap2\n      sub\n      swap1\n      revert\n    tag_187:\n        /* \"contracts/GeekNft.sol\":3187:3188  0 */\n      0x00\n        /* \"contracts/GeekNft.sol\":3154:3189  itemToOwner[_tokenId] != address(0) */\n      0xffffffffffffffffffffffffffffffffffffffff\n      and\n        /* \"contracts/GeekNft.sol\":3154:3165  itemToOwner */\n      0x06\n        /* \"contracts/GeekNft.sol\":3154:3175  itemToOwner[_tokenId] */\n      0x00\n        /* \"contracts/GeekNft.sol\":3166:3174  _tokenId */\n      dup5\n        /* \"contracts/GeekNft.sol\":3154:3175  itemToOwner[_tokenId] */\n      dup2\n      mstore\n      0x20\n      add\n      swap1\n      dup2\n      mstore\n      0x20\n      add\n      0x00\n      keccak256\n      0x00\n      swap1\n      sload\n      swap1\n      0x0100\n      exp\n      swap1\n      div\n      0xffffffffffffffffffffffffffffffffffffffff\n      and\n        /* \"contracts/GeekNft.sol\":3154:3189  itemToOwner[_tokenId] != address(0) */\n      0xffffffffffffffffffffffffffffffffffffffff\n      and\n      eq\n      iszero\n        /* \"contracts/GeekNft.sol\":3146:3213  require(itemToOwner[_tokenId] != address(0), \"token doesn't exist\") */\n      tag_190\n      jumpi\n      mload(0x40)\n      0x08c379a000000000000000000000000000000000000000000000000000000000\n      dup2\n      mstore\n      0x04\n      add\n      tag_191\n      swap1\n      tag_153\n      jump\t// in\n    tag_191:\n      mload(0x40)\n      dup1\n      swap2\n      sub\n      swap1\n      revert\n    tag_190:\n        /* \"contracts/GeekNft.sol\":3257:3262  false */\n      0x00\n        /* \"contracts/GeekNft.sol\":3231:3262  items[_tokenId].toSell == false */\n      iszero\n      iszero\n        /* \"contracts/GeekNft.sol\":3231:3236  items */\n      0x03\n        /* \"contracts/GeekNft.sol\":3237:3245  _tokenId */\n      dup4\n        /* \"contracts/GeekNft.sol\":3231:3246  items[_tokenId] */\n      dup2\n      sload\n      dup2\n      lt\n      tag_192\n      jumpi\n      mstore(0x00, 0x4e487b7100000000000000000000000000000000000000000000000000000000)\n      mstore(0x04, 0x32)\n      revert(0x00, 0x24)\n    tag_192:\n      swap1\n      0x00\n      mstore\n      keccak256(0x00, 0x20)\n      swap1\n      0x04\n      mul\n      add\n        /* \"contracts/GeekNft.sol\":3231:3253  items[_tokenId].toSell */\n      0x03\n      add\n      0x00\n      swap1\n      sload\n      swap1\n      0x0100\n      exp\n      swap1\n      div\n      0xff\n      and\n        /* \"contracts/GeekNft.sol\":3231:3262  items[_tokenId].toSell == false */\n      iszero\n      iszero\n      eq\n        /* \"contracts/GeekNft.sol\":3223:3291  require(items[_tokenId].toSell == false, \"token is already to sell\") */\n      tag_194\n      jumpi\n      mload(0x40)\n      0x08c379a000000000000000000000000000000000000000000000000000000000\n      dup2\n      mstore\n      0x04\n      add\n      tag_195\n      swap1\n      tag_196\n      jump\t// in\n    tag_195:\n      mload(0x40)\n      dup1\n      swap2\n      sub\n      swap1\n      revert\n    tag_194:\n        /* \"contracts/GeekNft.sol\":3326:3330  true */\n      0x01\n        /* \"contracts/GeekNft.sol\":3301:3306  items */\n      0x03\n        /* \"contracts/GeekNft.sol\":3307:3315  _tokenId */\n      dup4\n        /* \"contracts/GeekNft.sol\":3301:3316  items[_tokenId] */\n      dup2\n      sload\n      dup2\n      lt\n      tag_197\n      jumpi\n      mstore(0x00, 0x4e487b7100000000000000000000000000000000000000000000000000000000)\n      mstore(0x04, 0x32)\n      revert(0x00, 0x24)\n    tag_197:\n      swap1\n      0x00\n      mstore\n      keccak256(0x00, 0x20)\n      swap1\n      0x04\n      mul\n      add\n        /* \"contracts/GeekNft.sol\":3301:3323  items[_tokenId].toSell */\n      0x03\n      add\n      0x00\n        /* \"contracts/GeekNft.sol\":3301:3330  items[_tokenId].toSell = true */\n      0x0100\n      exp\n      dup2\n      sload\n      dup2\n      0xff\n      mul\n      not\n      and\n      swap1\n      dup4\n      iszero\n      iszero\n      mul\n      or\n      swap1\n      sstore\n      pop\n        /* \"contracts/GeekNft.sol\":3363:3379  itemsToSellCount */\n      0x04\n      0x00\n        /* \"contracts/GeekNft.sol\":3363:3381  itemsToSellCount++ */\n      dup2\n      sload\n      dup1\n      swap3\n      swap2\n      swap1\n      0x01\n      add\n      swap2\n      swap1\n      pop\n      sstore\n      pop\n        /* \"contracts/GeekNft.sol\":3067:3398  function addItemToSell(uint _tokenId) public onlyItemOwner(_tokenId) {... */\n      pop\n      pop\n      jump\t// out\n        /* \"contracts/GeekNft.sol\":447:494  mapping(address => uint) public itemsOwnerCount */\n    tag_81:\n      mstore(0x20, 0x07)\n      dup1\n      0x00\n      mstore\n      keccak256(0x00, 0x40)\n      0x00\n      swap2\n      pop\n      swap1\n      pop\n      sload\n      dup2\n      jump\t// out\n        /* \"contracts/GeekNft.sol\":500:544  mapping(uint => uint) public itemsCatIdCount */\n    tag_86:\n      mstore(0x20, 0x08)\n      dup1\n      0x00\n      mstore\n      keccak256(0x00, 0x40)\n      0x00\n      swap2\n      pop\n      swap1\n      pop\n      sload\n      dup2\n      jump\t// out\n        /* \"contracts/GeekNft.sol\":1068:1162  function getFeesPercentage() public view returns (uint) {... */\n    tag_90:\n        /* \"contracts/GeekNft.sol\":1118:1122  uint */\n      0x00\n        /* \"contracts/GeekNft.sol\":1141:1155  feesPercentage */\n      sload(0x05)\n        /* \"contracts/GeekNft.sol\":1134:1155  return feesPercentage */\n      swap1\n      pop\n        /* \"contracts/GeekNft.sol\":1068:1162  function getFeesPercentage() public view returns (uint) {... */\n      swap1\n      jump\t// out\n        /* \"contracts/GeekNft.sol\":4625:4847  function getFees(uint _price, uint _percentage) private pure returns (uint, uint){... */\n    tag_157:\n        /* \"contracts/GeekNft.sol\":4695:4699  uint */\n      0x00\n        /* \"contracts/GeekNft.sol\":4701:4705  uint */\n      dup1\n        /* \"contracts/GeekNft.sol\":4716:4725  uint fees */\n      0x00\n        /* \"contracts/GeekNft.sol\":4753:4756  100 */\n      0x64\n        /* \"contracts/GeekNft.sol\":4743:4749  _price */\n      dup6\n        /* \"contracts/GeekNft.sol\":4729:4740  _percentage */\n      dup6\n        /* \"contracts/GeekNft.sol\":4729:4749  _percentage * _price */\n      tag_201\n      swap2\n      swap1\n      tag_202\n      jump\t// in\n    tag_201:\n        /* \"contracts/GeekNft.sol\":4728:4756  (_percentage * _price) / 100 */\n      tag_203\n      swap2\n      swap1\n      tag_204\n      jump\t// in\n    tag_203:\n        /* \"contracts/GeekNft.sol\":4716:4756  uint fees = (_percentage * _price) / 100 */\n      swap1\n      pop\n        /* \"contracts/GeekNft.sol\":4766:4785  uint totalMinusFees */\n      0x00\n        /* \"contracts/GeekNft.sol\":4797:4801  fees */\n      dup2\n        /* \"contracts/GeekNft.sol\":4788:4794  _price */\n      dup7\n        /* \"contracts/GeekNft.sol\":4788:4801  _price - fees */\n      tag_205\n      swap2\n      swap1\n      tag_206\n      jump\t// in\n    tag_205:\n        /* \"contracts/GeekNft.sol\":4766:4801  uint totalMinusFees = _price - fees */\n      swap1\n      pop\n        /* \"contracts/GeekNft.sol\":4819:4823  fees */\n      dup2\n        /* \"contracts/GeekNft.sol\":4825:4839  totalMinusFees */\n      dup2\n        /* \"contracts/GeekNft.sol\":4811:4840  return (fees, totalMinusFees) */\n      swap4\n      pop\n      swap4\n      pop\n      pop\n      pop\n        /* \"contracts/GeekNft.sol\":4625:4847  function getFees(uint _price, uint _percentage) private pure returns (uint, uint){... */\n      swap3\n      pop\n      swap3\n      swap1\n      pop\n      jump\t// out\n    tag_97:\n      mload(0x40)\n      dup1\n      0x80\n      add\n      0x40\n      mstore\n      dup1\n      0x00\n      dup2\n      mstore\n      0x20\n      add\n      0x00\n      dup2\n      mstore\n      0x20\n      add\n      0x00\n      dup2\n      mstore\n      0x20\n      add\n      iszero(iszero(0x00))\n      dup2\n      mstore\n      pop\n      swap1\n      jump\t// out\n        /* \"#utility.yul\":7:146   */\n    tag_208:\n      0x00\n        /* \"#utility.yul\":91:97   */\n      dup2\n        /* \"#utility.yul\":78:98   */\n      calldataload\n        /* \"#utility.yul\":69:98   */\n      swap1\n      pop\n        /* \"#utility.yul\":107:140   */\n      tag_210\n        /* \"#utility.yul\":134:139   */\n      dup2\n        /* \"#utility.yul\":107:140   */\n      tag_211\n      jump\t// in\n    tag_210:\n        /* \"#utility.yul\":59:146   */\n      swap3\n      swap2\n      pop\n      pop\n      jump\t// out\n        /* \"#utility.yul\":152:291   */\n    tag_212:\n      0x00\n        /* \"#utility.yul\":236:242   */\n      dup2\n        /* \"#utility.yul\":223:243   */\n      calldataload\n        /* \"#utility.yul\":214:243   */\n      swap1\n      pop\n        /* \"#utility.yul\":252:285   */\n      tag_214\n        /* \"#utility.yul\":279:284   */\n      dup2\n        /* \"#utility.yul\":252:285   */\n      tag_215\n      jump\t// in\n    tag_214:\n        /* \"#utility.yul\":204:291   */\n      swap3\n      swap2\n      pop\n      pop\n      jump\t// out\n        /* \"#utility.yul\":297:559   */\n    tag_58:\n      0x00\n        /* \"#utility.yul\":405:407   */\n      0x20\n        /* \"#utility.yul\":393:402   */\n      dup3\n        /* \"#utility.yul\":384:391   */\n      dup5\n        /* \"#utility.yul\":380:403   */\n      sub\n        /* \"#utility.yul\":376:408   */\n      slt\n        /* \"#utility.yul\":373:375   */\n      iszero\n      tag_217\n      jumpi\n        /* \"#utility.yul\":421:422   */\n      0x00\n        /* \"#utility.yul\":418:419   */\n      dup1\n        /* \"#utility.yul\":411:423   */\n      revert\n        /* \"#utility.yul\":373:375   */\n    tag_217:\n        /* \"#utility.yul\":464:465   */\n      0x00\n        /* \"#utility.yul\":489:542   */\n      tag_218\n        /* \"#utility.yul\":534:541   */\n      dup5\n        /* \"#utility.yul\":525:531   */\n      dup3\n        /* \"#utility.yul\":514:523   */\n      dup6\n        /* \"#utility.yul\":510:532   */\n      add\n        /* \"#utility.yul\":489:542   */\n      tag_208\n      jump\t// in\n    tag_218:\n        /* \"#utility.yul\":479:542   */\n      swap2\n      pop\n        /* \"#utility.yul\":435:552   */\n      pop\n        /* \"#utility.yul\":363:559   */\n      swap3\n      swap2\n      pop\n      pop\n      jump\t// out\n        /* \"#utility.yul\":565:827   */\n    tag_28:\n      0x00\n        /* \"#utility.yul\":673:675   */\n      0x20\n        /* \"#utility.yul\":661:670   */\n      dup3\n        /* \"#utility.yul\":652:659   */\n      dup5\n        /* \"#utility.yul\":648:671   */\n      sub\n        /* \"#utility.yul\":644:676   */\n      slt\n        /* \"#utility.yul\":641:643   */\n      iszero\n      tag_220\n      jumpi\n        /* \"#utility.yul\":689:690   */\n      0x00\n        /* \"#utility.yul\":686:687   */\n      dup1\n        /* \"#utility.yul\":679:691   */\n      revert\n        /* \"#utility.yul\":641:643   */\n    tag_220:\n        /* \"#utility.yul\":732:733   */\n      0x00\n        /* \"#utility.yul\":757:810   */\n      tag_221\n        /* \"#utility.yul\":802:809   */\n      dup5\n        /* \"#utility.yul\":793:799   */\n      dup3\n        /* \"#utility.yul\":782:791   */\n      dup6\n        /* \"#utility.yul\":778:800   */\n      add\n        /* \"#utility.yul\":757:810   */\n      tag_212\n      jump\t// in\n    tag_221:\n        /* \"#utility.yul\":747:810   */\n      swap2\n      pop\n        /* \"#utility.yul\":703:820   */\n      pop\n        /* \"#utility.yul\":631:827   */\n      swap3\n      swap2\n      pop\n      pop\n      jump\t// out\n        /* \"#utility.yul\":833:1240   */\n    tag_71:\n      0x00\n      dup1\n        /* \"#utility.yul\":958:960   */\n      0x40\n        /* \"#utility.yul\":946:955   */\n      dup4\n        /* \"#utility.yul\":937:944   */\n      dup6\n        /* \"#utility.yul\":933:956   */\n      sub\n        /* \"#utility.yul\":929:961   */\n      slt\n        /* \"#utility.yul\":926:928   */\n      iszero\n      tag_223\n      jumpi\n        /* \"#utility.yul\":974:975   */\n      0x00\n        /* \"#utility.yul\":971:972   */\n      dup1\n        /* \"#utility.yul\":964:976   */\n      revert\n        /* \"#utility.yul\":926:928   */\n    tag_223:\n        /* \"#utility.yul\":1017:1018   */\n      0x00\n        /* \"#utility.yul\":1042:1095   */\n      tag_224\n        /* \"#utility.yul\":1087:1094   */\n      dup6\n        /* \"#utility.yul\":1078:1084   */\n      dup3\n        /* \"#utility.yul\":1067:1076   */\n      dup7\n        /* \"#utility.yul\":1063:1085   */\n      add\n        /* \"#utility.yul\":1042:1095   */\n      tag_212\n      jump\t// in\n    tag_224:\n        /* \"#utility.yul\":1032:1095   */\n      swap3\n      pop\n        /* \"#utility.yul\":988:1105   */\n      pop\n        /* \"#utility.yul\":1144:1146   */\n      0x20\n        /* \"#utility.yul\":1170:1223   */\n      tag_225\n        /* \"#utility.yul\":1215:1222   */\n      dup6\n        /* \"#utility.yul\":1206:1212   */\n      dup3\n        /* \"#utility.yul\":1195:1204   */\n      dup7\n        /* \"#utility.yul\":1191:1213   */\n      add\n        /* \"#utility.yul\":1170:1223   */\n      tag_212\n      jump\t// in\n    tag_225:\n        /* \"#utility.yul\":1160:1223   */\n      swap2\n      pop\n        /* \"#utility.yul\":1115:1233   */\n      pop\n        /* \"#utility.yul\":916:1240   */\n      swap3\n      pop\n      swap3\n      swap1\n      pop\n      jump\t// out\n        /* \"#utility.yul\":1246:1505   */\n    tag_226:\n      0x00\n        /* \"#utility.yul\":1376:1462   */\n      tag_228\n        /* \"#utility.yul\":1458:1461   */\n      dup4\n        /* \"#utility.yul\":1450:1456   */\n      dup4\n        /* \"#utility.yul\":1376:1462   */\n      tag_229\n      jump\t// in\n    tag_228:\n        /* \"#utility.yul\":1494:1498   */\n      0x80\n        /* \"#utility.yul\":1489:1492   */\n      dup4\n        /* \"#utility.yul\":1485:1499   */\n      add\n        /* \"#utility.yul\":1471:1499   */\n      swap1\n      pop\n        /* \"#utility.yul\":1366:1505   */\n      swap3\n      swap2\n      pop\n      pop\n      jump\t// out\n        /* \"#utility.yul\":1511:1629   */\n    tag_230:\n        /* \"#utility.yul\":1598:1622   */\n      tag_232\n        /* \"#utility.yul\":1616:1621   */\n      dup2\n        /* \"#utility.yul\":1598:1622   */\n      tag_233\n      jump\t// in\n    tag_232:\n        /* \"#utility.yul\":1593:1596   */\n      dup3\n        /* \"#utility.yul\":1586:1623   */\n      mstore\n        /* \"#utility.yul\":1576:1629   */\n      pop\n      pop\n      jump\t// out\n        /* \"#utility.yul\":1689:2581   */\n    tag_234:\n      0x00\n        /* \"#utility.yul\":1877:1951   */\n      tag_236\n        /* \"#utility.yul\":1945:1950   */\n      dup3\n        /* \"#utility.yul\":1877:1951   */\n      tag_237\n      jump\t// in\n    tag_236:\n        /* \"#utility.yul\":1967:2073   */\n      tag_238\n        /* \"#utility.yul\":2066:2072   */\n      dup2\n        /* \"#utility.yul\":2061:2064   */\n      dup6\n        /* \"#utility.yul\":1967:2073   */\n      tag_239\n      jump\t// in\n    tag_238:\n        /* \"#utility.yul\":1960:2073   */\n      swap4\n      pop\n        /* \"#utility.yul\":2097:2173   */\n      tag_240\n        /* \"#utility.yul\":2167:2172   */\n      dup4\n        /* \"#utility.yul\":2097:2173   */\n      tag_241\n      jump\t// in\n    tag_240:\n        /* \"#utility.yul\":2196:2203   */\n      dup1\n        /* \"#utility.yul\":2227:2228   */\n      0x00\n        /* \"#utility.yul\":2212:2556   */\n    tag_242:\n        /* \"#utility.yul\":2237:2243   */\n      dup4\n        /* \"#utility.yul\":2234:2235   */\n      dup2\n        /* \"#utility.yul\":2231:2244   */\n      lt\n        /* \"#utility.yul\":2212:2556   */\n      iszero\n      tag_244\n      jumpi\n        /* \"#utility.yul\":2313:2319   */\n      dup2\n        /* \"#utility.yul\":2307:2320   */\n      mload\n        /* \"#utility.yul\":2340:2443   */\n      tag_245\n        /* \"#utility.yul\":2439:2442   */\n      dup9\n        /* \"#utility.yul\":2424:2437   */\n      dup3\n        /* \"#utility.yul\":2340:2443   */\n      tag_226\n      jump\t// in\n    tag_245:\n        /* \"#utility.yul\":2333:2443   */\n      swap8\n      pop\n        /* \"#utility.yul\":2466:2546   */\n      tag_246\n        /* \"#utility.yul\":2539:2545   */\n      dup4\n        /* \"#utility.yul\":2466:2546   */\n      tag_247\n      jump\t// in\n    tag_246:\n        /* \"#utility.yul\":2456:2546   */\n      swap3\n      pop\n        /* \"#utility.yul\":2272:2556   */\n      pop\n        /* \"#utility.yul\":2259:2260   */\n      0x01\n        /* \"#utility.yul\":2256:2257   */\n      dup2\n        /* \"#utility.yul\":2252:2261   */\n      add\n        /* \"#utility.yul\":2247:2261   */\n      swap1\n      pop\n        /* \"#utility.yul\":2212:2556   */\n      jump(tag_242)\n    tag_244:\n        /* \"#utility.yul\":2216:2230   */\n      pop\n        /* \"#utility.yul\":2572:2575   */\n      dup6\n        /* \"#utility.yul\":2565:2575   */\n      swap4\n      pop\n        /* \"#utility.yul\":1853:2581   */\n      pop\n      pop\n      pop\n      swap3\n      swap2\n      pop\n      pop\n      jump\t// out\n        /* \"#utility.yul\":2587:2686   */\n    tag_248:\n        /* \"#utility.yul\":2658:2679   */\n      tag_250\n        /* \"#utility.yul\":2673:2678   */\n      dup2\n        /* \"#utility.yul\":2658:2679   */\n      tag_251\n      jump\t// in\n    tag_250:\n        /* \"#utility.yul\":2653:2656   */\n      dup3\n        /* \"#utility.yul\":2646:2680   */\n      mstore\n        /* \"#utility.yul\":2636:2686   */\n      pop\n      pop\n      jump\t// out\n        /* \"#utility.yul\":2692:3058   */\n    tag_252:\n      0x00\n        /* \"#utility.yul\":2855:2922   */\n      tag_254\n        /* \"#utility.yul\":2919:2921   */\n      0x13\n        /* \"#utility.yul\":2914:2917   */\n      dup4\n        /* \"#utility.yul\":2855:2922   */\n      tag_255\n      jump\t// in\n    tag_254:\n        /* \"#utility.yul\":2848:2922   */\n      swap2\n      pop\n        /* \"#utility.yul\":2931:3024   */\n      tag_256\n        /* \"#utility.yul\":3020:3023   */\n      dup3\n        /* \"#utility.yul\":2931:3024   */\n      tag_257\n      jump\t// in\n    tag_256:\n        /* \"#utility.yul\":3049:3051   */\n      0x20\n        /* \"#utility.yul\":3044:3047   */\n      dup3\n        /* \"#utility.yul\":3040:3052   */\n      add\n        /* \"#utility.yul\":3033:3052   */\n      swap1\n      pop\n        /* \"#utility.yul\":2838:3058   */\n      swap2\n      swap1\n      pop\n      jump\t// out\n        /* \"#utility.yul\":3064:3430   */\n    tag_258:\n      0x00\n        /* \"#utility.yul\":3227:3294   */\n      tag_260\n        /* \"#utility.yul\":3291:3293   */\n      0x13\n        /* \"#utility.yul\":3286:3289   */\n      dup4\n        /* \"#utility.yul\":3227:3294   */\n      tag_255\n      jump\t// in\n    tag_260:\n        /* \"#utility.yul\":3220:3294   */\n      swap2\n      pop\n        /* \"#utility.yul\":3303:3396   */\n      tag_261\n        /* \"#utility.yul\":3392:3395   */\n      dup3\n        /* \"#utility.yul\":3303:3396   */\n      tag_262\n      jump\t// in\n    tag_261:\n        /* \"#utility.yul\":3421:3423   */\n      0x20\n        /* \"#utility.yul\":3416:3419   */\n      dup3\n        /* \"#utility.yul\":3412:3424   */\n      add\n        /* \"#utility.yul\":3405:3424   */\n      swap1\n      pop\n        /* \"#utility.yul\":3210:3430   */\n      swap2\n      swap1\n      pop\n      jump\t// out\n        /* \"#utility.yul\":3436:3802   */\n    tag_263:\n      0x00\n        /* \"#utility.yul\":3599:3666   */\n      tag_265\n        /* \"#utility.yul\":3663:3665   */\n      0x13\n        /* \"#utility.yul\":3658:3661   */\n      dup4\n        /* \"#utility.yul\":3599:3666   */\n      tag_255\n      jump\t// in\n    tag_265:\n        /* \"#utility.yul\":3592:3666   */\n      swap2\n      pop\n        /* \"#utility.yul\":3675:3768   */\n      tag_266\n        /* \"#utility.yul\":3764:3767   */\n      dup3\n        /* \"#utility.yul\":3675:3768   */\n      tag_267\n      jump\t// in\n    tag_266:\n        /* \"#utility.yul\":3793:3795   */\n      0x20\n        /* \"#utility.yul\":3788:3791   */\n      dup3\n        /* \"#utility.yul\":3784:3796   */\n      add\n        /* \"#utility.yul\":3777:3796   */\n      swap1\n      pop\n        /* \"#utility.yul\":3582:3802   */\n      swap2\n      swap1\n      pop\n      jump\t// out\n        /* \"#utility.yul\":3808:4174   */\n    tag_268:\n      0x00\n        /* \"#utility.yul\":3971:4038   */\n      tag_270\n        /* \"#utility.yul\":4035:4037   */\n      0x1d\n        /* \"#utility.yul\":4030:4033   */\n      dup4\n        /* \"#utility.yul\":3971:4038   */\n      tag_255\n      jump\t// in\n    tag_270:\n        /* \"#utility.yul\":3964:4038   */\n      swap2\n      pop\n        /* \"#utility.yul\":4047:4140   */\n      tag_271\n        /* \"#utility.yul\":4136:4139   */\n      dup3\n        /* \"#utility.yul\":4047:4140   */\n      tag_272\n      jump\t// in\n    tag_271:\n        /* \"#utility.yul\":4165:4167   */\n      0x20\n        /* \"#utility.yul\":4160:4163   */\n      dup3\n        /* \"#utility.yul\":4156:4168   */\n      add\n        /* \"#utility.yul\":4149:4168   */\n      swap1\n      pop\n        /* \"#utility.yul\":3954:4174   */\n      swap2\n      swap1\n      pop\n      jump\t// out\n        /* \"#utility.yul\":4180:4546   */\n    tag_273:\n      0x00\n        /* \"#utility.yul\":4343:4410   */\n      tag_275\n        /* \"#utility.yul\":4407:4409   */\n      0x18\n        /* \"#utility.yul\":4402:4405   */\n      dup4\n        /* \"#utility.yul\":4343:4410   */\n      tag_255\n      jump\t// in\n    tag_275:\n        /* \"#utility.yul\":4336:4410   */\n      swap2\n      pop\n        /* \"#utility.yul\":4419:4512   */\n      tag_276\n        /* \"#utility.yul\":4508:4511   */\n      dup3\n        /* \"#utility.yul\":4419:4512   */\n      tag_277\n      jump\t// in\n    tag_276:\n        /* \"#utility.yul\":4537:4539   */\n      0x20\n        /* \"#utility.yul\":4532:4535   */\n      dup3\n        /* \"#utility.yul\":4528:4540   */\n      add\n        /* \"#utility.yul\":4521:4540   */\n      swap1\n      pop\n        /* \"#utility.yul\":4326:4546   */\n      swap2\n      swap1\n      pop\n      jump\t// out\n        /* \"#utility.yul\":4552:4918   */\n    tag_278:\n      0x00\n        /* \"#utility.yul\":4715:4782   */\n      tag_280\n        /* \"#utility.yul\":4779:4781   */\n      0x21\n        /* \"#utility.yul\":4774:4777   */\n      dup4\n        /* \"#utility.yul\":4715:4782   */\n      tag_255\n      jump\t// in\n    tag_280:\n        /* \"#utility.yul\":4708:4782   */\n      swap2\n      pop\n        /* \"#utility.yul\":4791:4884   */\n      tag_281\n        /* \"#utility.yul\":4880:4883   */\n      dup3\n        /* \"#utility.yul\":4791:4884   */\n      tag_282\n      jump\t// in\n    tag_281:\n        /* \"#utility.yul\":4909:4911   */\n      0x40\n        /* \"#utility.yul\":4904:4907   */\n      dup3\n        /* \"#utility.yul\":4900:4912   */\n      add\n        /* \"#utility.yul\":4893:4912   */\n      swap1\n      pop\n        /* \"#utility.yul\":4698:4918   */\n      swap2\n      swap1\n      pop\n      jump\t// out\n        /* \"#utility.yul\":4924:5290   */\n    tag_283:\n      0x00\n        /* \"#utility.yul\":5087:5154   */\n      tag_285\n        /* \"#utility.yul\":5151:5153   */\n      0x1a\n        /* \"#utility.yul\":5146:5149   */\n      dup4\n        /* \"#utility.yul\":5087:5154   */\n      tag_255\n      jump\t// in\n    tag_285:\n        /* \"#utility.yul\":5080:5154   */\n      swap2\n      pop\n        /* \"#utility.yul\":5163:5256   */\n      tag_286\n        /* \"#utility.yul\":5252:5255   */\n      dup3\n        /* \"#utility.yul\":5163:5256   */\n      tag_287\n      jump\t// in\n    tag_286:\n        /* \"#utility.yul\":5281:5283   */\n      0x20\n        /* \"#utility.yul\":5276:5279   */\n      dup3\n        /* \"#utility.yul\":5272:5284   */\n      add\n        /* \"#utility.yul\":5265:5284   */\n      swap1\n      pop\n        /* \"#utility.yul\":5070:5290   */\n      swap2\n      swap1\n      pop\n      jump\t// out\n        /* \"#utility.yul\":5346:6182   */\n    tag_229:\n        /* \"#utility.yul\":5473:5477   */\n      0x80\n        /* \"#utility.yul\":5468:5471   */\n      dup3\n        /* \"#utility.yul\":5464:5478   */\n      add\n        /* \"#utility.yul\":5563:5567   */\n      0x00\n        /* \"#utility.yul\":5556:5561   */\n      dup3\n        /* \"#utility.yul\":5552:5568   */\n      add\n        /* \"#utility.yul\":5546:5569   */\n      mload\n        /* \"#utility.yul\":5582:5645   */\n      tag_289\n        /* \"#utility.yul\":5639:5643   */\n      0x00\n        /* \"#utility.yul\":5634:5637   */\n      dup6\n        /* \"#utility.yul\":5630:5644   */\n      add\n        /* \"#utility.yul\":5616:5628   */\n      dup3\n        /* \"#utility.yul\":5582:5645   */\n      tag_290\n      jump\t// in\n    tag_289:\n        /* \"#utility.yul\":5488:5655   */\n      pop\n        /* \"#utility.yul\":5738:5742   */\n      0x20\n        /* \"#utility.yul\":5731:5736   */\n      dup3\n        /* \"#utility.yul\":5727:5743   */\n      add\n        /* \"#utility.yul\":5721:5744   */\n      mload\n        /* \"#utility.yul\":5757:5820   */\n      tag_291\n        /* \"#utility.yul\":5814:5818   */\n      0x20\n        /* \"#utility.yul\":5809:5812   */\n      dup6\n        /* \"#utility.yul\":5805:5819   */\n      add\n        /* \"#utility.yul\":5791:5803   */\n      dup3\n        /* \"#utility.yul\":5757:5820   */\n      tag_290\n      jump\t// in\n    tag_291:\n        /* \"#utility.yul\":5665:5830   */\n      pop\n        /* \"#utility.yul\":5913:5917   */\n      0x40\n        /* \"#utility.yul\":5906:5911   */\n      dup3\n        /* \"#utility.yul\":5902:5918   */\n      add\n        /* \"#utility.yul\":5896:5919   */\n      mload\n        /* \"#utility.yul\":5932:5995   */\n      tag_292\n        /* \"#utility.yul\":5989:5993   */\n      0x40\n        /* \"#utility.yul\":5984:5987   */\n      dup6\n        /* \"#utility.yul\":5980:5994   */\n      add\n        /* \"#utility.yul\":5966:5978   */\n      dup3\n        /* \"#utility.yul\":5932:5995   */\n      tag_290\n      jump\t// in\n    tag_292:\n        /* \"#utility.yul\":5840:6005   */\n      pop\n        /* \"#utility.yul\":6089:6093   */\n      0x60\n        /* \"#utility.yul\":6082:6087   */\n      dup3\n        /* \"#utility.yul\":6078:6094   */\n      add\n        /* \"#utility.yul\":6072:6095   */\n      mload\n        /* \"#utility.yul\":6108:6165   */\n      tag_293\n        /* \"#utility.yul\":6159:6163   */\n      0x60\n        /* \"#utility.yul\":6154:6157   */\n      dup6\n        /* \"#utility.yul\":6150:6164   */\n      add\n        /* \"#utility.yul\":6136:6148   */\n      dup3\n        /* \"#utility.yul\":6108:6165   */\n      tag_248\n      jump\t// in\n    tag_293:\n        /* \"#utility.yul\":6015:6175   */\n      pop\n        /* \"#utility.yul\":5442:6182   */\n      pop\n      pop\n      pop\n      jump\t// out\n        /* \"#utility.yul\":6188:6296   */\n    tag_290:\n        /* \"#utility.yul\":6265:6289   */\n      tag_295\n        /* \"#utility.yul\":6283:6288   */\n      dup2\n        /* \"#utility.yul\":6265:6289   */\n      tag_296\n      jump\t// in\n    tag_295:\n        /* \"#utility.yul\":6260:6263   */\n      dup3\n        /* \"#utility.yul\":6253:6290   */\n      mstore\n        /* \"#utility.yul\":6243:6296   */\n      pop\n      pop\n      jump\t// out\n        /* \"#utility.yul\":6302:6420   */\n    tag_297:\n        /* \"#utility.yul\":6389:6413   */\n      tag_299\n        /* \"#utility.yul\":6407:6412   */\n      dup2\n        /* \"#utility.yul\":6389:6413   */\n      tag_296\n      jump\t// in\n    tag_299:\n        /* \"#utility.yul\":6384:6387   */\n      dup3\n        /* \"#utility.yul\":6377:6414   */\n      mstore\n        /* \"#utility.yul\":6367:6420   */\n      pop\n      pop\n      jump\t// out\n        /* \"#utility.yul\":6426:6648   */\n    tag_31:\n      0x00\n        /* \"#utility.yul\":6557:6559   */\n      0x20\n        /* \"#utility.yul\":6546:6555   */\n      dup3\n        /* \"#utility.yul\":6542:6560   */\n      add\n        /* \"#utility.yul\":6534:6560   */\n      swap1\n      pop\n        /* \"#utility.yul\":6570:6641   */\n      tag_301\n        /* \"#utility.yul\":6638:6639   */\n      0x00\n        /* \"#utility.yul\":6627:6636   */\n      dup4\n        /* \"#utility.yul\":6623:6640   */\n      add\n        /* \"#utility.yul\":6614:6620   */\n      dup5\n        /* \"#utility.yul\":6570:6641   */\n      tag_230\n      jump\t// in\n    tag_301:\n        /* \"#utility.yul\":6524:6648   */\n      swap3\n      swap2\n      pop\n      pop\n      jump\t// out\n        /* \"#utility.yul\":6654:7107   */\n    tag_24:\n      0x00\n        /* \"#utility.yul\":6875:6877   */\n      0x20\n        /* \"#utility.yul\":6864:6873   */\n      dup3\n        /* \"#utility.yul\":6860:6878   */\n      add\n        /* \"#utility.yul\":6852:6878   */\n      swap1\n      pop\n        /* \"#utility.yul\":6924:6933   */\n      dup2\n        /* \"#utility.yul\":6918:6922   */\n      dup2\n        /* \"#utility.yul\":6914:6934   */\n      sub\n        /* \"#utility.yul\":6910:6911   */\n      0x00\n        /* \"#utility.yul\":6899:6908   */\n      dup4\n        /* \"#utility.yul\":6895:6912   */\n      add\n        /* \"#utility.yul\":6888:6935   */\n      mstore\n        /* \"#utility.yul\":6952:7100   */\n      tag_303\n        /* \"#utility.yul\":7095:7099   */\n      dup2\n        /* \"#utility.yul\":7086:7092   */\n      dup5\n        /* \"#utility.yul\":6952:7100   */\n      tag_234\n      jump\t// in\n    tag_303:\n        /* \"#utility.yul\":6944:7100   */\n      swap1\n      pop\n        /* \"#utility.yul\":6842:7107   */\n      swap3\n      swap2\n      pop\n      pop\n      jump\t// out\n        /* \"#utility.yul\":7113:7532   */\n    tag_174:\n      0x00\n        /* \"#utility.yul\":7317:7319   */\n      0x20\n        /* \"#utility.yul\":7306:7315   */\n      dup3\n        /* \"#utility.yul\":7302:7320   */\n      add\n        /* \"#utility.yul\":7294:7320   */\n      swap1\n      pop\n        /* \"#utility.yul\":7366:7375   */\n      dup2\n        /* \"#utility.yul\":7360:7364   */\n      dup2\n        /* \"#utility.yul\":7356:7376   */\n      sub\n        /* \"#utility.yul\":7352:7353   */\n      0x00\n        /* \"#utility.yul\":7341:7350   */\n      dup4\n        /* \"#utility.yul\":7337:7354   */\n      add\n        /* \"#utility.yul\":7330:7377   */\n      mstore\n        /* \"#utility.yul\":7394:7525   */\n      tag_305\n        /* \"#utility.yul\":7520:7524   */\n      dup2\n        /* \"#utility.yul\":7394:7525   */\n      tag_252\n      jump\t// in\n    tag_305:\n        /* \"#utility.yul\":7386:7525   */\n      swap1\n      pop\n        /* \"#utility.yul\":7284:7532   */\n      swap2\n      swap1\n      pop\n      jump\t// out\n        /* \"#utility.yul\":7538:7957   */\n    tag_183:\n      0x00\n        /* \"#utility.yul\":7742:7744   */\n      0x20\n        /* \"#utility.yul\":7731:7740   */\n      dup3\n        /* \"#utility.yul\":7727:7745   */\n      add\n        /* \"#utility.yul\":7719:7745   */\n      swap1\n      pop\n        /* \"#utility.yul\":7791:7800   */\n      dup2\n        /* \"#utility.yul\":7785:7789   */\n      dup2\n        /* \"#utility.yul\":7781:7801   */\n      sub\n        /* \"#utility.yul\":7777:7778   */\n      0x00\n        /* \"#utility.yul\":7766:7775   */\n      dup4\n        /* \"#utility.yul\":7762:7779   */\n      add\n        /* \"#utility.yul\":7755:7802   */\n      mstore\n        /* \"#utility.yul\":7819:7950   */\n      tag_307\n        /* \"#utility.yul\":7945:7949   */\n      dup2\n        /* \"#utility.yul\":7819:7950   */\n      tag_258\n      jump\t// in\n    tag_307:\n        /* \"#utility.yul\":7811:7950   */\n      swap1\n      pop\n        /* \"#utility.yul\":7709:7957   */\n      swap2\n      swap1\n      pop\n      jump\t// out\n        /* \"#utility.yul\":7963:8382   */\n    tag_153:\n      0x00\n        /* \"#utility.yul\":8167:8169   */\n      0x20\n        /* \"#utility.yul\":8156:8165   */\n      dup3\n        /* \"#utility.yul\":8152:8170   */\n      add\n        /* \"#utility.yul\":8144:8170   */\n      swap1\n      pop\n        /* \"#utility.yul\":8216:8225   */\n      dup2\n        /* \"#utility.yul\":8210:8214   */\n      dup2\n        /* \"#utility.yul\":8206:8226   */\n      sub\n        /* \"#utility.yul\":8202:8203   */\n      0x00\n        /* \"#utility.yul\":8191:8200   */\n      dup4\n        /* \"#utility.yul\":8187:8204   */\n      add\n        /* \"#utility.yul\":8180:8227   */\n      mstore\n        /* \"#utility.yul\":8244:8375   */\n      tag_309\n        /* \"#utility.yul\":8370:8374   */\n      dup2\n        /* \"#utility.yul\":8244:8375   */\n      tag_263\n      jump\t// in\n    tag_309:\n        /* \"#utility.yul\":8236:8375   */\n      swap1\n      pop\n        /* \"#utility.yul\":8134:8382   */\n      swap2\n      swap1\n      pop\n      jump\t// out\n        /* \"#utility.yul\":8388:8807   */\n    tag_166:\n      0x00\n        /* \"#utility.yul\":8592:8594   */\n      0x20\n        /* \"#utility.yul\":8581:8590   */\n      dup3\n        /* \"#utility.yul\":8577:8595   */\n      add\n        /* \"#utility.yul\":8569:8595   */\n      swap1\n      pop\n        /* \"#utility.yul\":8641:8650   */\n      dup2\n        /* \"#utility.yul\":8635:8639   */\n      dup2\n        /* \"#utility.yul\":8631:8651   */\n      sub\n        /* \"#utility.yul\":8627:8628   */\n      0x00\n        /* \"#utility.yul\":8616:8625   */\n      dup4\n        /* \"#utility.yul\":8612:8629   */\n      add\n        /* \"#utility.yul\":8605:8652   */\n      mstore\n        /* \"#utility.yul\":8669:8800   */\n      tag_311\n        /* \"#utility.yul\":8795:8799   */\n      dup2\n        /* \"#utility.yul\":8669:8800   */\n      tag_268\n      jump\t// in\n    tag_311:\n        /* \"#utility.yul\":8661:8800   */\n      swap1\n      pop\n        /* \"#utility.yul\":8559:8807   */\n      swap2\n      swap1\n      pop\n      jump\t// out\n        /* \"#utility.yul\":8813:9232   */\n    tag_196:\n      0x00\n        /* \"#utility.yul\":9017:9019   */\n      0x20\n        /* \"#utility.yul\":9006:9015   */\n      dup3\n        /* \"#utility.yul\":9002:9020   */\n      add\n        /* \"#utility.yul\":8994:9020   */\n      swap1\n      pop\n        /* \"#utility.yul\":9066:9075   */\n      dup2\n        /* \"#utility.yul\":9060:9064   */\n      dup2\n        /* \"#utility.yul\":9056:9076   */\n      sub\n        /* \"#utility.yul\":9052:9053   */\n      0x00\n        /* \"#utility.yul\":9041:9050   */\n      dup4\n        /* \"#utility.yul\":9037:9054   */\n      add\n        /* \"#utility.yul\":9030:9077   */\n      mstore\n        /* \"#utility.yul\":9094:9225   */\n      tag_313\n        /* \"#utility.yul\":9220:9224   */\n      dup2\n        /* \"#utility.yul\":9094:9225   */\n      tag_273\n      jump\t// in\n    tag_313:\n        /* \"#utility.yul\":9086:9225   */\n      swap1\n      pop\n        /* \"#utility.yul\":8984:9232   */\n      swap2\n      swap1\n      pop\n      jump\t// out\n        /* \"#utility.yul\":9238:9657   */\n    tag_129:\n      0x00\n        /* \"#utility.yul\":9442:9444   */\n      0x20\n        /* \"#utility.yul\":9431:9440   */\n      dup3\n        /* \"#utility.yul\":9427:9445   */\n      add\n        /* \"#utility.yul\":9419:9445   */\n      swap1\n      pop\n        /* \"#utility.yul\":9491:9500   */\n      dup2\n        /* \"#utility.yul\":9485:9489   */\n      dup2\n        /* \"#utility.yul\":9481:9501   */\n      sub\n        /* \"#utility.yul\":9477:9478   */\n      0x00\n        /* \"#utility.yul\":9466:9475   */\n      dup4\n        /* \"#utility.yul\":9462:9479   */\n      add\n        /* \"#utility.yul\":9455:9502   */\n      mstore\n        /* \"#utility.yul\":9519:9650   */\n      tag_315\n        /* \"#utility.yul\":9645:9649   */\n      dup2\n        /* \"#utility.yul\":9519:9650   */\n      tag_278\n      jump\t// in\n    tag_315:\n        /* \"#utility.yul\":9511:9650   */\n      swap1\n      pop\n        /* \"#utility.yul\":9409:9657   */\n      swap2\n      swap1\n      pop\n      jump\t// out\n        /* \"#utility.yul\":9663:10082   */\n    tag_180:\n      0x00\n        /* \"#utility.yul\":9867:9869   */\n      0x20\n        /* \"#utility.yul\":9856:9865   */\n      dup3\n        /* \"#utility.yul\":9852:9870   */\n      add\n        /* \"#utility.yul\":9844:9870   */\n      swap1\n      pop\n        /* \"#utility.yul\":9916:9925   */\n      dup2\n        /* \"#utility.yul\":9910:9914   */\n      dup2\n        /* \"#utility.yul\":9906:9926   */\n      sub\n        /* \"#utility.yul\":9902:9903   */\n      0x00\n        /* \"#utility.yul\":9891:9900   */\n      dup4\n        /* \"#utility.yul\":9887:9904   */\n      add\n        /* \"#utility.yul\":9880:9927   */\n      mstore\n        /* \"#utility.yul\":9944:10075   */\n      tag_317\n        /* \"#utility.yul\":10070:10074   */\n      dup2\n        /* \"#utility.yul\":9944:10075   */\n      tag_283\n      jump\t// in\n    tag_317:\n        /* \"#utility.yul\":9936:10075   */\n      swap1\n      pop\n        /* \"#utility.yul\":9834:10082   */\n      swap2\n      swap1\n      pop\n      jump\t// out\n        /* \"#utility.yul\":10088:10310   */\n    tag_45:\n      0x00\n        /* \"#utility.yul\":10219:10221   */\n      0x20\n        /* \"#utility.yul\":10208:10217   */\n      dup3\n        /* \"#utility.yul\":10204:10222   */\n      add\n        /* \"#utility.yul\":10196:10222   */\n      swap1\n      pop\n        /* \"#utility.yul\":10232:10303   */\n      tag_319\n        /* \"#utility.yul\":10300:10301   */\n      0x00\n        /* \"#utility.yul\":10289:10298   */\n      dup4\n        /* \"#utility.yul\":10285:10302   */\n      add\n        /* \"#utility.yul\":10276:10282   */\n      dup5\n        /* \"#utility.yul\":10232:10303   */\n      tag_297\n      jump\t// in\n    tag_319:\n        /* \"#utility.yul\":10186:10310   */\n      swap3\n      swap2\n      pop\n      pop\n      jump\t// out\n        /* \"#utility.yul\":10316:10468   */\n    tag_241:\n      0x00\n        /* \"#utility.yul\":10426:10429   */\n      dup2\n        /* \"#utility.yul\":10418:10429   */\n      swap1\n      pop\n        /* \"#utility.yul\":10456:10460   */\n      0x20\n        /* \"#utility.yul\":10451:10454   */\n      dup3\n        /* \"#utility.yul\":10447:10461   */\n      add\n        /* \"#utility.yul\":10439:10461   */\n      swap1\n      pop\n        /* \"#utility.yul\":10408:10468   */\n      swap2\n      swap1\n      pop\n      jump\t// out\n        /* \"#utility.yul\":10474:10608   */\n    tag_237:\n      0x00\n        /* \"#utility.yul\":10595:10600   */\n      dup2\n        /* \"#utility.yul\":10589:10601   */\n      mload\n        /* \"#utility.yul\":10579:10601   */\n      swap1\n      pop\n        /* \"#utility.yul\":10568:10608   */\n      swap2\n      swap1\n      pop\n      jump\t// out\n        /* \"#utility.yul\":10614:10747   */\n    tag_247:\n      0x00\n        /* \"#utility.yul\":10736:10740   */\n      0x20\n        /* \"#utility.yul\":10731:10734   */\n      dup3\n        /* \"#utility.yul\":10727:10741   */\n      add\n        /* \"#utility.yul\":10719:10741   */\n      swap1\n      pop\n        /* \"#utility.yul\":10709:10747   */\n      swap2\n      swap1\n      pop\n      jump\t// out\n        /* \"#utility.yul\":10753:10957   */\n    tag_239:\n      0x00\n        /* \"#utility.yul\":10906:10912   */\n      dup3\n        /* \"#utility.yul\":10901:10904   */\n      dup3\n        /* \"#utility.yul\":10894:10913   */\n      mstore\n        /* \"#utility.yul\":10946:10950   */\n      0x20\n        /* \"#utility.yul\":10941:10944   */\n      dup3\n        /* \"#utility.yul\":10937:10951   */\n      add\n        /* \"#utility.yul\":10922:10951   */\n      swap1\n      pop\n        /* \"#utility.yul\":10884:10957   */\n      swap3\n      swap2\n      pop\n      pop\n      jump\t// out\n        /* \"#utility.yul\":10963:11132   */\n    tag_255:\n      0x00\n        /* \"#utility.yul\":11081:11087   */\n      dup3\n        /* \"#utility.yul\":11076:11079   */\n      dup3\n        /* \"#utility.yul\":11069:11088   */\n      mstore\n        /* \"#utility.yul\":11121:11125   */\n      0x20\n        /* \"#utility.yul\":11116:11119   */\n      dup3\n        /* \"#utility.yul\":11112:11126   */\n      add\n        /* \"#utility.yul\":11097:11126   */\n      swap1\n      pop\n        /* \"#utility.yul\":11059:11132   */\n      swap3\n      swap2\n      pop\n      pop\n      jump\t// out\n        /* \"#utility.yul\":11138:11323   */\n    tag_204:\n      0x00\n        /* \"#utility.yul\":11195:11215   */\n      tag_326\n        /* \"#utility.yul\":11213:11214   */\n      dup3\n        /* \"#utility.yul\":11195:11215   */\n      tag_296\n      jump\t// in\n    tag_326:\n        /* \"#utility.yul\":11190:11215   */\n      swap2\n      pop\n        /* \"#utility.yul\":11229:11249   */\n      tag_327\n        /* \"#utility.yul\":11247:11248   */\n      dup4\n        /* \"#utility.yul\":11229:11249   */\n      tag_296\n      jump\t// in\n    tag_327:\n        /* \"#utility.yul\":11224:11249   */\n      swap3\n      pop\n        /* \"#utility.yul\":11268:11269   */\n      dup3\n        /* \"#utility.yul\":11258:11260   */\n      tag_328\n      jumpi\n        /* \"#utility.yul\":11273:11291   */\n      tag_329\n      tag_330\n      jump\t// in\n    tag_329:\n        /* \"#utility.yul\":11258:11260   */\n    tag_328:\n        /* \"#utility.yul\":11315:11316   */\n      dup3\n        /* \"#utility.yul\":11312:11313   */\n      dup3\n        /* \"#utility.yul\":11308:11317   */\n      div\n        /* \"#utility.yul\":11303:11317   */\n      swap1\n      pop\n        /* \"#utility.yul\":11180:11323   */\n      swap3\n      swap2\n      pop\n      pop\n      jump\t// out\n        /* \"#utility.yul\":11329:11677   */\n    tag_202:\n      0x00\n        /* \"#utility.yul\":11392:11412   */\n      tag_332\n        /* \"#utility.yul\":11410:11411   */\n      dup3\n        /* \"#utility.yul\":11392:11412   */\n      tag_296\n      jump\t// in\n    tag_332:\n        /* \"#utility.yul\":11387:11412   */\n      swap2\n      pop\n        /* \"#utility.yul\":11426:11446   */\n      tag_333\n        /* \"#utility.yul\":11444:11445   */\n      dup4\n        /* \"#utility.yul\":11426:11446   */\n      tag_296\n      jump\t// in\n    tag_333:\n        /* \"#utility.yul\":11421:11446   */\n      swap3\n      pop\n        /* \"#utility.yul\":11614:11615   */\n      dup2\n        /* \"#utility.yul\":11546:11612   */\n      0xffffffffffffffffffffffffffffffffffffffffffffffffffffffffffffffff\n        /* \"#utility.yul\":11542:11616   */\n      div\n        /* \"#utility.yul\":11539:11540   */\n      dup4\n        /* \"#utility.yul\":11536:11617   */\n      gt\n        /* \"#utility.yul\":11531:11532   */\n      dup3\n        /* \"#utility.yul\":11524:11533   */\n      iszero\n        /* \"#utility.yul\":11517:11534   */\n      iszero\n        /* \"#utility.yul\":11513:11618   */\n      and\n        /* \"#utility.yul\":11510:11512   */\n      iszero\n      tag_334\n      jumpi\n        /* \"#utility.yul\":11621:11639   */\n      tag_335\n      tag_336\n      jump\t// in\n    tag_335:\n        /* \"#utility.yul\":11510:11512   */\n    tag_334:\n        /* \"#utility.yul\":11669:11670   */\n      dup3\n        /* \"#utility.yul\":11666:11667   */\n      dup3\n        /* \"#utility.yul\":11662:11671   */\n      mul\n        /* \"#utility.yul\":11651:11671   */\n      swap1\n      pop\n        /* \"#utility.yul\":11377:11677   */\n      swap3\n      swap2\n      pop\n      pop\n      jump\t// out\n        /* \"#utility.yul\":11683:11874   */\n    tag_206:\n      0x00\n        /* \"#utility.yul\":11743:11763   */\n      tag_338\n        /* \"#utility.yul\":11761:11762   */\n      dup3\n        /* \"#utility.yul\":11743:11763   */\n      tag_296\n      jump\t// in\n    tag_338:\n        /* \"#utility.yul\":11738:11763   */\n      swap2\n      pop\n        /* \"#utility.yul\":11777:11797   */\n      tag_339\n        /* \"#utility.yul\":11795:11796   */\n      dup4\n        /* \"#utility.yul\":11777:11797   */\n      tag_296\n      jump\t// in\n    tag_339:\n        /* \"#utility.yul\":11772:11797   */\n      swap3\n      pop\n        /* \"#utility.yul\":11816:11817   */\n      dup3\n        /* \"#utility.yul\":11813:11814   */\n      dup3\n        /* \"#utility.yul\":11810:11818   */\n      lt\n        /* \"#utility.yul\":11807:11809   */\n      iszero\n      tag_340\n      jumpi\n        /* \"#utility.yul\":11821:11839   */\n      tag_341\n      tag_336\n      jump\t// in\n    tag_341:\n        /* \"#utility.yul\":11807:11809   */\n    tag_340:\n        /* \"#utility.yul\":11866:11867   */\n      dup3\n        /* \"#utility.yul\":11863:11864   */\n      dup3\n        /* \"#utility.yul\":11859:11868   */\n      sub\n        /* \"#utility.yul\":11851:11868   */\n      swap1\n      pop\n        /* \"#utility.yul\":11728:11874   */\n      swap3\n      swap2\n      pop\n      pop\n      jump\t// out\n        /* \"#utility.yul\":11880:11976   */\n    tag_233:\n      0x00\n        /* \"#utility.yul\":11946:11970   */\n      tag_343\n        /* \"#utility.yul\":11964:11969   */\n      dup3\n        /* \"#utility.yul\":11946:11970   */\n      tag_344\n      jump\t// in\n    tag_343:\n        /* \"#utility.yul\":11935:11970   */\n      swap1\n      pop\n        /* \"#utility.yul\":11925:11976   */\n      swap2\n      swap1\n      pop\n      jump\t// out\n        /* \"#utility.yul\":11982:12072   */\n    tag_251:\n      0x00\n        /* \"#utility.yul\":12059:12064   */\n      dup2\n        /* \"#utility.yul\":12052:12065   */\n      iszero\n        /* \"#utility.yul\":12045:12066   */\n      iszero\n        /* \"#utility.yul\":12034:12066   */\n      swap1\n      pop\n        /* \"#utility.yul\":12024:12072   */\n      swap2\n      swap1\n      pop\n      jump\t// out\n        /* \"#utility.yul\":12078:12204   */\n    tag_344:\n      0x00\n        /* \"#utility.yul\":12155:12197   */\n      0xffffffffffffffffffffffffffffffffffffffff\n        /* \"#utility.yul\":12148:12153   */\n      dup3\n        /* \"#utility.yul\":12144:12198   */\n      and\n        /* \"#utility.yul\":12133:12198   */\n      swap1\n      pop\n        /* \"#utility.yul\":12123:12204   */\n      swap2\n      swap1\n      pop\n      jump\t// out\n        /* \"#utility.yul\":12210:12287   */\n    tag_296:\n      0x00\n        /* \"#utility.yul\":12276:12281   */\n      dup2\n        /* \"#utility.yul\":12265:12281   */\n      swap1\n      pop\n        /* \"#utility.yul\":12255:12287   */\n      swap2\n      swap1\n      pop\n      jump\t// out\n        /* \"#utility.yul\":12293:12526   */\n    tag_108:\n      0x00\n        /* \"#utility.yul\":12355:12379   */\n      tag_349\n        /* \"#utility.yul\":12373:12378   */\n      dup3\n        /* \"#utility.yul\":12355:12379   */\n      tag_296\n      jump\t// in\n    tag_349:\n        /* \"#utility.yul\":12346:12379   */\n      swap2\n      pop\n        /* \"#utility.yul\":12401:12467   */\n      0xffffffffffffffffffffffffffffffffffffffffffffffffffffffffffffffff\n        /* \"#utility.yul\":12394:12399   */\n      dup3\n        /* \"#utility.yul\":12391:12468   */\n      eq\n        /* \"#utility.yul\":12388:12390   */\n      iszero\n      tag_350\n      jumpi\n        /* \"#utility.yul\":12471:12489   */\n      tag_351\n      tag_336\n      jump\t// in\n    tag_351:\n        /* \"#utility.yul\":12388:12390   */\n    tag_350:\n        /* \"#utility.yul\":12518:12519   */\n      0x01\n        /* \"#utility.yul\":12511:12516   */\n      dup3\n        /* \"#utility.yul\":12507:12520   */\n      add\n        /* \"#utility.yul\":12500:12520   */\n      swap1\n      pop\n        /* \"#utility.yul\":12336:12526   */\n      swap2\n      swap1\n      pop\n      jump\t// out\n        /* \"#utility.yul\":12532:12712   */\n    tag_336:\n        /* \"#utility.yul\":12580:12657   */\n      0x4e487b7100000000000000000000000000000000000000000000000000000000\n        /* \"#utility.yul\":12577:12578   */\n      0x00\n        /* \"#utility.yul\":12570:12658   */\n      mstore\n        /* \"#utility.yul\":12677:12681   */\n      0x11\n        /* \"#utility.yul\":12674:12675   */\n      0x04\n        /* \"#utility.yul\":12667:12682   */\n      mstore\n        /* \"#utility.yul\":12701:12705   */\n      0x24\n        /* \"#utility.yul\":12698:12699   */\n      0x00\n        /* \"#utility.yul\":12691:12706   */\n      revert\n        /* \"#utility.yul\":12718:12898   */\n    tag_330:\n        /* \"#utility.yul\":12766:12843   */\n      0x4e487b7100000000000000000000000000000000000000000000000000000000\n        /* \"#utility.yul\":12763:12764   */\n      0x00\n        /* \"#utility.yul\":12756:12844   */\n      mstore\n        /* \"#utility.yul\":12863:12867   */\n      0x12\n        /* \"#utility.yul\":12860:12861   */\n      0x04\n        /* \"#utility.yul\":12853:12868   */\n      mstore\n        /* \"#utility.yul\":12887:12891   */\n      0x24\n        /* \"#utility.yul\":12884:12885   */\n      0x00\n        /* \"#utility.yul\":12877:12892   */\n      revert\n        /* \"#utility.yul\":12904:13073   */\n    tag_257:\n        /* \"#utility.yul\":13044:13065   */\n      0x746f6b656e2069736e277420746f2073656c6c00000000000000000000000000\n        /* \"#utility.yul\":13040:13041   */\n      0x00\n        /* \"#utility.yul\":13032:13038   */\n      dup3\n        /* \"#utility.yul\":13028:13042   */\n      add\n        /* \"#utility.yul\":13021:13066   */\n      mstore\n        /* \"#utility.yul\":13010:13073   */\n      pop\n      jump\t// out\n        /* \"#utility.yul\":13079:13248   */\n    tag_262:\n        /* \"#utility.yul\":13219:13240   */\n      0x746f6b656e20616c726561647920657869737400000000000000000000000000\n        /* \"#utility.yul\":13215:13216   */\n      0x00\n        /* \"#utility.yul\":13207:13213   */\n      dup3\n        /* \"#utility.yul\":13203:13217   */\n      add\n        /* \"#utility.yul\":13196:13241   */\n      mstore\n        /* \"#utility.yul\":13185:13248   */\n      pop\n      jump\t// out\n        /* \"#utility.yul\":13254:13423   */\n    tag_267:\n        /* \"#utility.yul\":13394:13415   */\n      0x746f6b656e20646f65736e277420657869737400000000000000000000000000\n        /* \"#utility.yul\":13390:13391   */\n      0x00\n        /* \"#utility.yul\":13382:13388   */\n      dup3\n        /* \"#utility.yul\":13378:13392   */\n      add\n        /* \"#utility.yul\":13371:13416   */\n      mstore\n        /* \"#utility.yul\":13360:13423   */\n      pop\n      jump\t// out\n        /* \"#utility.yul\":13429:13608   */\n    tag_272:\n        /* \"#utility.yul\":13569:13600   */\n      0x4f6e6c79206974656d2773206f776e65722063616e20646f2074686174000000\n        /* \"#utility.yul\":13565:13566   */\n      0x00\n        /* \"#utility.yul\":13557:13563   */\n      dup3\n        /* \"#utility.yul\":13553:13567   */\n      add\n        /* \"#utility.yul\":13546:13601   */\n      mstore\n        /* \"#utility.yul\":13535:13608   */\n      pop\n      jump\t// out\n        /* \"#utility.yul\":13614:13788   */\n    tag_277:\n        /* \"#utility.yul\":13754:13780   */\n      0x746f6b656e20697320616c726561647920746f2073656c6c0000000000000000\n        /* \"#utility.yul\":13750:13751   */\n      0x00\n        /* \"#utility.yul\":13742:13748   */\n      dup3\n        /* \"#utility.yul\":13738:13752   */\n      add\n        /* \"#utility.yul\":13731:13781   */\n      mstore\n        /* \"#utility.yul\":13720:13788   */\n      pop\n      jump\t// out\n        /* \"#utility.yul\":13794:14014   */\n    tag_282:\n        /* \"#utility.yul\":13934:13968   */\n      0x4f6e6c7920636f6e74726163742773206f776e65722063616e20646f20746861\n        /* \"#utility.yul\":13930:13931   */\n      0x00\n        /* \"#utility.yul\":13922:13928   */\n      dup3\n        /* \"#utility.yul\":13918:13932   */\n      add\n        /* \"#utility.yul\":13911:13969   */\n      mstore\n        /* \"#utility.yul\":14003:14006   */\n      0x7400000000000000000000000000000000000000000000000000000000000000\n        /* \"#utility.yul\":13998:14000   */\n      0x20\n        /* \"#utility.yul\":13990:13996   */\n      dup3\n        /* \"#utility.yul\":13986:14001   */\n      add\n        /* \"#utility.yul\":13979:14007   */\n      mstore\n        /* \"#utility.yul\":13900:14014   */\n      pop\n      jump\t// out\n        /* \"#utility.yul\":14020:14196   */\n    tag_287:\n        /* \"#utility.yul\":14160:14188   */\n      0x50726963652063616e6e6f7420626520657175616c20746f2030000000000000\n        /* \"#utility.yul\":14156:14157   */\n      0x00\n        /* \"#utility.yul\":14148:14154   */\n      dup3\n        /* \"#utility.yul\":14144:14158   */\n      add\n        /* \"#utility.yul\":14137:14189   */\n      mstore\n        /* \"#utility.yul\":14126:14196   */\n      pop\n      jump\t// out\n        /* \"#utility.yul\":14202:14324   */\n    tag_211:\n        /* \"#utility.yul\":14275:14299   */\n      tag_362\n        /* \"#utility.yul\":14293:14298   */\n      dup2\n        /* \"#utility.yul\":14275:14299   */\n      tag_233\n      jump\t// in\n    tag_362:\n        /* \"#utility.yul\":14268:14273   */\n      dup2\n        /* \"#utility.yul\":14265:14300   */\n      eq\n        /* \"#utility.yul\":14255:14257   */\n      tag_363\n      jumpi\n        /* \"#utility.yul\":14314:14315   */\n      0x00\n        /* \"#utility.yul\":14311:14312   */\n      dup1\n        /* \"#utility.yul\":14304:14316   */\n      revert\n        /* \"#utility.yul\":14255:14257   */\n    tag_363:\n        /* \"#utility.yul\":14245:14324   */\n      pop\n      jump\t// out\n        /* \"#utility.yul\":14330:14452   */\n    tag_215:\n        /* \"#utility.yul\":14403:14427   */\n      tag_365\n        /* \"#utility.yul\":14421:14426   */\n      dup2\n        /* \"#utility.yul\":14403:14427   */\n      tag_296\n      jump\t// in\n    tag_365:\n        /* \"#utility.yul\":14396:14401   */\n      dup2\n        /* \"#utility.yul\":14393:14428   */\n      eq\n        /* \"#utility.yul\":14383:14385   */\n      tag_366\n      jumpi\n        /* \"#utility.yul\":14442:14443   */\n      0x00\n        /* \"#utility.yul\":14439:14440   */\n      dup1\n        /* \"#utility.yul\":14432:14444   */\n      revert\n        /* \"#utility.yul\":14383:14385   */\n    tag_366:\n        /* \"#utility.yul\":14373:14452   */\n      pop\n      jump\t// out\n\n    auxdata: 0xa2646970667358221220c3f294ee66fceafbe06290d9724f3bee041bb3f5af883a076383b02e6c77e8fa64736f6c63430008010033\n}\n",
				"bytecode": {
					"linkReferences": {},
					"object": "60806040523480156200001157600080fd5b5033600260006101000a81548173ffffffffffffffffffffffffffffffffffffffff021916908373ffffffffffffffffffffffffffffffffffffffff1602179055506040518060400160405280600b81526020017f4765656b20546f6b656e7300000000000000000000000000000000000000000081525060009080519060200190620000a0929190620000f5565b506040518060400160405280600581526020017f4745454b5400000000000000000000000000000000000000000000000000000081525060019080519060200190620000ee929190620000f5565b506200020a565b8280546200010390620001a5565b90600052602060002090601f01602090048101928262000127576000855562000173565b82601f106200014257805160ff191683800117855562000173565b8280016001018555821562000173579182015b828111156200017257825182559160200191906001019062000155565b5b50905062000182919062000186565b5090565b5b80821115620001a157600081600090555060010162000187565b5090565b60006002820490506001821680620001be57607f821691505b60208210811415620001d557620001d4620001db565b5b50919050565b7f4e487b7100000000000000000000000000000000000000000000000000000000600052602260045260246000fd5b611e88806200021a6000396000f3fe6080604052600436106100e85760003560e01c806370a082311161008a578063c0f202ef11610059578063c0f202ef1461030d578063c392189514610336578063d48644bd14610373578063ea0ff14a146103b0576100e8565b806370a082311461024e57806391b6be9a1461028b578063a4964c33146102a7578063adae08dd146102d0576100e8565b806329de6246116100c657806329de6246146101925780634c389e65146101bb5780634cad2ffc146101e65780636352211e14610211576100e8565b8063073e74df146100ed5780631a4d96cd146101185780632165e65a14610155575b600080fd5b3480156100f957600080fd5b506101026103db565b60405161010f91906119ca565b60405180910390f35b34801561012457600080fd5b5061013f600480360381019061013a919061174e565b6105ce565b60405161014c91906119af565b60405180910390f35b34801561016157600080fd5b5061017c6004803603810190610177919061174e565b610601565b60405161018991906119ca565b60405180910390f35b34801561019e57600080fd5b506101b960048036038101906101b4919061174e565b6107f5565b005b3480156101c757600080fd5b506101d061088f565b6040516101dd9190611acc565b60405180910390f35b3480156101f257600080fd5b506101fb610895565b60405161020891906119ca565b60405180910390f35b34801561021d57600080fd5b506102386004803603810190610233919061174e565b610ac7565b60405161024591906119af565b60405180910390f35b34801561025a57600080fd5b5061027560048036038101906102709190611725565b610b04565b6040516102829190611acc565b60405180910390f35b6102a560048036038101906102a0919061174e565b610b4d565b005b3480156102b357600080fd5b506102ce60048036038101906102c9919061174e565b610f1f565b005b3480156102dc57600080fd5b506102f760048036038101906102f29190611777565b61117e565b6040516103049190611acc565b60405180910390f35b34801561031957600080fd5b50610334600480360381019061032f919061174e565b6113fb565b005b34801561034257600080fd5b5061035d60048036038101906103589190611725565b611659565b60405161036a9190611acc565b60405180910390f35b34801561037f57600080fd5b5061039a6004803603810190610395919061174e565b611671565b6040516103a79190611acc565b60405180910390f35b3480156103bc57600080fd5b506103c5611689565b6040516103d29190611acc565b60405180910390f35b606060008060045467ffffffffffffffff811115610422577f4e487b7100000000000000000000000000000000000000000000000000000000600052604160045260246000fd5b60405190808252806020026020018201604052801561045b57816020015b6104486116d1565b8152602001906001900390816104405790505b50905060005b6003805490508110156105c55760011515600382815481106104ac577f4e487b7100000000000000000000000000000000000000000000000000000000600052603260045260246000fd5b906000526020600020906004020160030160009054906101000a900460ff16151514156105b2576003818154811061050d577f4e487b7100000000000000000000000000000000000000000000000000000000600052603260045260246000fd5b90600052602060002090600402016040518060800160405290816000820154815260200160018201548152602001600282015481526020016003820160009054906101000a900460ff161515151581525050828481518110610598577f4e487b7100000000000000000000000000000000000000000000000000000000600052603260045260246000fd5b602002602001018190525082806105ae90611c38565b9350505b80806105bd90611c38565b915050610461565b50809250505090565b60066020528060005260406000206000915054906101000a900473ffffffffffffffffffffffffffffffffffffffff1681565b6060600080600860008581526020019081526020016000205467ffffffffffffffff811115610659577f4e487b7100000000000000000000000000000000000000000000000000000000600052604160045260246000fd5b60405190808252806020026020018201604052801561069257816020015b61067f6116d1565b8152602001906001900390816106775790505b50905060005b6003805490508110156107ea5784600382815481106106e0577f4e487b7100000000000000000000000000000000000000000000000000000000600052603260045260246000fd5b90600052602060002090600402016002015414156107d75760038181548110610732577f4e487b7100000000000000000000000000000000000000000000000000000000600052603260045260246000fd5b90600052602060002090600402016040518060800160405290816000820154815260200160018201548152602001600282015481526020016003820160009054906101000a900460ff1615151515815250508284815181106107bd577f4e487b7100000000000000000000000000000000000000000000000000000000600052603260045260246000fd5b602002602001018190525082806107d390611c38565b9350505b80806107e290611c38565b915050610698565b508092505050919050565b600260009054906101000a900473ffffffffffffffffffffffffffffffffffffffff1673ffffffffffffffffffffffffffffffffffffffff163373ffffffffffffffffffffffffffffffffffffffff1614610885576040517f08c379a000000000000000000000000000000000000000000000000000000000815260040161087c90611a8c565b60405180910390fd5b8060058190555050565b60045481565b6060600080600760003373ffffffffffffffffffffffffffffffffffffffff1673ffffffffffffffffffffffffffffffffffffffff1681526020019081526020016000205467ffffffffffffffff811115610919577f4e487b7100000000000000000000000000000000000000000000000000000000600052604160045260246000fd5b60405190808252806020026020018201604052801561095257816020015b61093f6116d1565b8152602001906001900390816109375790505b50905060005b600380549050811015610abe573373ffffffffffffffffffffffffffffffffffffffff166006600083815260200190815260200160002060009054906101000a900473ffffffffffffffffffffffffffffffffffffffff1673ffffffffffffffffffffffffffffffffffffffff161415610aab5760038181548110610a06577f4e487b7100000000000000000000000000000000000000000000000000000000600052603260045260246000fd5b90600052602060002090600402016040518060800160405290816000820154815260200160018201548152602001600282015481526020016003820160009054906101000a900460ff161515151581525050828481518110610a91577f4e487b7100000000000000000000000000000000000000000000000000000000600052603260045260246000fd5b60200260200101819052508280610aa790611c38565b9350505b8080610ab690611c38565b915050610958565b50809250505090565b60006006600083815260200190815260200160002060009054906101000a900473ffffffffffffffffffffffffffffffffffffffff169050919050565b6000600760008373ffffffffffffffffffffffffffffffffffffffff1673ffffffffffffffffffffffffffffffffffffffff168152602001908152602001600020549050919050565b60038181548110610b87577f4e487b7100000000000000000000000000000000000000000000000000000000600052603260045260246000fd5b9060005260206000209060040201600101543414610ba457600080fd5b600073ffffffffffffffffffffffffffffffffffffffff166006600083815260200190815260200160002060009054906101000a900473ffffffffffffffffffffffffffffffffffffffff1673ffffffffffffffffffffffffffffffffffffffff161415610c47576040517f08c379a0000000000000000000000000000000000000000000000000000000008152600401610c3e90611a2c565b60405180910390fd5b60006006600083815260200190815260200160002060009054906101000a900473ffffffffffffffffffffffffffffffffffffffff169050600060038381548110610cbb577f4e487b7100000000000000000000000000000000000000000000000000000000600052603260045260246000fd5b9060005260206000209060040201905060008160030160006101000a81548160ff021916908315150217905550336006600085815260200190815260200160002060006101000a81548173ffffffffffffffffffffffffffffffffffffffff021916908373ffffffffffffffffffffffffffffffffffffffff160217905550600760008373ffffffffffffffffffffffffffffffffffffffff1673ffffffffffffffffffffffffffffffffffffffff1681526020019081526020016000206000815480929190600190039190505550600760003373ffffffffffffffffffffffffffffffffffffffff1673ffffffffffffffffffffffffffffffffffffffff1681526020019081526020016000206000815480929190600101919050555060046000815480929190600190039190505550600080610dfb34600554611693565b8092508193505050600260009054906101000a900473ffffffffffffffffffffffffffffffffffffffff1673ffffffffffffffffffffffffffffffffffffffff166108fc839081150290604051600060405180830381858888f19350505050158015610e6b573d6000803e3d6000fd5b508373ffffffffffffffffffffffffffffffffffffffff166108fc829081150290604051600060405180830381858888f19350505050158015610eb2573d6000803e3d6000fd5b503373ffffffffffffffffffffffffffffffffffffffff168473ffffffffffffffffffffffffffffffffffffffff167fddf252ad1be2c89b69c2b068fc378daa952ba7f163c4a11628f55a4df523b3ef87604051610f109190611acc565b60405180910390a35050505050565b803373ffffffffffffffffffffffffffffffffffffffff166006600083815260200190815260200160002060009054906101000a900473ffffffffffffffffffffffffffffffffffffffff1673ffffffffffffffffffffffffffffffffffffffff1614610fc1576040517f08c379a0000000000000000000000000000000000000000000000000000000008152600401610fb890611a4c565b60405180910390fd5b600073ffffffffffffffffffffffffffffffffffffffff166006600084815260200190815260200160002060009054906101000a900473ffffffffffffffffffffffffffffffffffffffff1673ffffffffffffffffffffffffffffffffffffffff161415611064576040517f08c379a000000000000000000000000000000000000000000000000000000000815260040161105b90611a2c565b60405180910390fd5b60011515600383815481106110a2577f4e487b7100000000000000000000000000000000000000000000000000000000600052603260045260246000fd5b906000526020600020906004020160030160009054906101000a900460ff16151514611103576040517f08c379a00000000000000000000000000000000000000000000000000000000081526004016110fa906119ec565b60405180910390fd5b60006003838154811061113f577f4e487b7100000000000000000000000000000000000000000000000000000000600052603260045260246000fd5b906000526020600020906004020160030160006101000a81548160ff021916908315150217905550600460008154809291906001900391905055505050565b60008083116111c2576040517f08c379a00000000000000000000000000000000000000000000000000000000081526004016111b990611aac565b60405180910390fd5b60006003805490509050600073ffffffffffffffffffffffffffffffffffffffff166006600083815260200190815260200160002060009054906101000a900473ffffffffffffffffffffffffffffffffffffffff1673ffffffffffffffffffffffffffffffffffffffff161461126e576040517f08c379a000000000000000000000000000000000000000000000000000000000815260040161126590611a0c565b60405180910390fd5b604051806080016040528082815260200185815260200184815260200160011515815250600382815481106112cc577f4e487b7100000000000000000000000000000000000000000000000000000000600052603260045260246000fd5b906000526020600020906004020160008201518160000155602082015181600101556040820151816002015560608201518160030160006101000a81548160ff021916908315150217905550905050336006600083815260200190815260200160002060006101000a81548173ffffffffffffffffffffffffffffffffffffffff021916908373ffffffffffffffffffffffffffffffffffffffff160217905550600760003373ffffffffffffffffffffffffffffffffffffffff1673ffffffffffffffffffffffffffffffffffffffff1681526020019081526020016000206000815480929190600101919050555060086000848152602001908152602001600020600081548092919060010191905055506004600081548092919060010191905055508091505092915050565b803373ffffffffffffffffffffffffffffffffffffffff166006600083815260200190815260200160002060009054906101000a900473ffffffffffffffffffffffffffffffffffffffff1673ffffffffffffffffffffffffffffffffffffffff161461149d576040517f08c379a000000000000000000000000000000000000000000000000000000000815260040161149490611a4c565b60405180910390fd5b600073ffffffffffffffffffffffffffffffffffffffff166006600084815260200190815260200160002060009054906101000a900473ffffffffffffffffffffffffffffffffffffffff1673ffffffffffffffffffffffffffffffffffffffff161415611540576040517f08c379a000000000000000000000000000000000000000000000000000000000815260040161153790611a2c565b60405180910390fd5b600015156003838154811061157e577f4e487b7100000000000000000000000000000000000000000000000000000000600052603260045260246000fd5b906000526020600020906004020160030160009054906101000a900460ff161515146115df576040517f08c379a00000000000000000000000000000000000000000000000000000000081526004016115d690611a6c565b60405180910390fd5b60016003838154811061161b577f4e487b7100000000000000000000000000000000000000000000000000000000600052603260045260246000fd5b906000526020600020906004020160030160006101000a81548160ff0219169083151502179055506004600081548092919060010191905055505050565b60076020528060005260406000206000915090505481565b60086020528060005260406000206000915090505481565b6000600554905090565b6000806000606485856116a69190611b62565b6116b09190611b31565b9050600081866116c09190611bbc565b905081819350935050509250929050565b60405180608001604052806000815260200160008152602001600081526020016000151581525090565b60008135905061170a81611e24565b92915050565b60008135905061171f81611e3b565b92915050565b60006020828403121561173757600080fd5b6000611745848285016116fb565b91505092915050565b60006020828403121561176057600080fd5b600061176e84828501611710565b91505092915050565b6000806040838503121561178a57600080fd5b600061179885828601611710565b92505060206117a985828601611710565b9150509250929050565b60006117bf838361193c565b60808301905092915050565b6117d481611bf0565b82525050565b60006117e582611af7565b6117ef8185611b0f565b93506117fa83611ae7565b8060005b8381101561182b57815161181288826117b3565b975061181d83611b02565b9250506001810190506117fe565b5085935050505092915050565b61184181611c02565b82525050565b6000611854601383611b20565b915061185f82611cdf565b602082019050919050565b6000611877601383611b20565b915061188282611d08565b602082019050919050565b600061189a601383611b20565b91506118a582611d31565b602082019050919050565b60006118bd601d83611b20565b91506118c882611d5a565b602082019050919050565b60006118e0601883611b20565b91506118eb82611d83565b602082019050919050565b6000611903602183611b20565b915061190e82611dac565b604082019050919050565b6000611926601a83611b20565b915061193182611dfb565b602082019050919050565b6080820160008201516119526000850182611991565b5060208201516119656020850182611991565b5060408201516119786040850182611991565b50606082015161198b6060850182611838565b50505050565b61199a81611c2e565b82525050565b6119a981611c2e565b82525050565b60006020820190506119c460008301846117cb565b92915050565b600060208201905081810360008301526119e481846117da565b905092915050565b60006020820190508181036000830152611a0581611847565b9050919050565b60006020820190508181036000830152611a258161186a565b9050919050565b60006020820190508181036000830152611a458161188d565b9050919050565b60006020820190508181036000830152611a65816118b0565b9050919050565b60006020820190508181036000830152611a85816118d3565b9050919050565b60006020820190508181036000830152611aa5816118f6565b9050919050565b60006020820190508181036000830152611ac581611919565b9050919050565b6000602082019050611ae160008301846119a0565b92915050565b6000819050602082019050919050565b600081519050919050565b6000602082019050919050565b600082825260208201905092915050565b600082825260208201905092915050565b6000611b3c82611c2e565b9150611b4783611c2e565b925082611b5757611b56611cb0565b5b828204905092915050565b6000611b6d82611c2e565b9150611b7883611c2e565b9250817fffffffffffffffffffffffffffffffffffffffffffffffffffffffffffffffff0483118215151615611bb157611bb0611c81565b5b828202905092915050565b6000611bc782611c2e565b9150611bd283611c2e565b925082821015611be557611be4611c81565b5b828203905092915050565b6000611bfb82611c0e565b9050919050565b60008115159050919050565b600073ffffffffffffffffffffffffffffffffffffffff82169050919050565b6000819050919050565b6000611c4382611c2e565b91507fffffffffffffffffffffffffffffffffffffffffffffffffffffffffffffffff821415611c7657611c75611c81565b5b600182019050919050565b7f4e487b7100000000000000000000000000000000000000000000000000000000600052601160045260246000fd5b7f4e487b7100000000000000000000000000000000000000000000000000000000600052601260045260246000fd5b7f746f6b656e2069736e277420746f2073656c6c00000000000000000000000000600082015250565b7f746f6b656e20616c726561647920657869737400000000000000000000000000600082015250565b7f746f6b656e20646f65736e277420657869737400000000000000000000000000600082015250565b7f4f6e6c79206974656d2773206f776e65722063616e20646f2074686174000000600082015250565b7f746f6b656e20697320616c726561647920746f2073656c6c0000000000000000600082015250565b7f4f6e6c7920636f6e74726163742773206f776e65722063616e20646f2074686160008201527f7400000000000000000000000000000000000000000000000000000000000000602082015250565b7f50726963652063616e6e6f7420626520657175616c20746f2030000000000000600082015250565b611e2d81611bf0565b8114611e3857600080fd5b50565b611e4481611c2e565b8114611e4f57600080fd5b5056fea2646970667358221220c3f294ee66fceafbe06290d9724f3bee041bb3f5af883a076383b02e6c77e8fa64736f6c63430008010033",
					"opcodes": "PUSH1 0x80 PUSH1 0x40 MSTORE CALLVALUE DUP1 ISZERO PUSH3 0x11 JUMPI PUSH1 0x0 DUP1 REVERT JUMPDEST POP CALLER PUSH1 0x2 PUSH1 0x0 PUSH2 0x100 EXP DUP2 SLOAD DUP2 PUSH20 0xFFFFFFFFFFFFFFFFFFFFFFFFFFFFFFFFFFFFFFFF MUL NOT AND SWAP1 DUP4 PUSH20 0xFFFFFFFFFFFFFFFFFFFFFFFFFFFFFFFFFFFFFFFF AND MUL OR SWAP1 SSTORE POP PUSH1 0x40 MLOAD DUP1 PUSH1 0x40 ADD PUSH1 0x40 MSTORE DUP1 PUSH1 0xB DUP2 MSTORE PUSH1 0x20 ADD PUSH32 0x4765656B20546F6B656E73000000000000000000000000000000000000000000 DUP2 MSTORE POP PUSH1 0x0 SWAP1 DUP1 MLOAD SWAP1 PUSH1 0x20 ADD SWAP1 PUSH3 0xA0 SWAP3 SWAP2 SWAP1 PUSH3 0xF5 JUMP JUMPDEST POP PUSH1 0x40 MLOAD DUP1 PUSH1 0x40 ADD PUSH1 0x40 MSTORE DUP1 PUSH1 0x5 DUP2 MSTORE PUSH1 0x20 ADD PUSH32 0x4745454B54000000000000000000000000000000000000000000000000000000 DUP2 MSTORE POP PUSH1 0x1 SWAP1 DUP1 MLOAD SWAP1 PUSH1 0x20 ADD SWAP1 PUSH3 0xEE SWAP3 SWAP2 SWAP1 PUSH3 0xF5 JUMP JUMPDEST POP PUSH3 0x20A JUMP JUMPDEST DUP3 DUP1 SLOAD PUSH3 0x103 SWAP1 PUSH3 0x1A5 JUMP JUMPDEST SWAP1 PUSH1 0x0 MSTORE PUSH1 0x20 PUSH1 0x0 KECCAK256 SWAP1 PUSH1 0x1F ADD PUSH1 0x20 SWAP1 DIV DUP2 ADD SWAP3 DUP3 PUSH3 0x127 JUMPI PUSH1 0x0 DUP6 SSTORE PUSH3 0x173 JUMP JUMPDEST DUP3 PUSH1 0x1F LT PUSH3 0x142 JUMPI DUP1 MLOAD PUSH1 0xFF NOT AND DUP4 DUP1 ADD OR DUP6 SSTORE PUSH3 0x173 JUMP JUMPDEST DUP3 DUP1 ADD PUSH1 0x1 ADD DUP6 SSTORE DUP3 ISZERO PUSH3 0x173 JUMPI SWAP2 DUP3 ADD JUMPDEST DUP3 DUP2 GT ISZERO PUSH3 0x172 JUMPI DUP3 MLOAD DUP3 SSTORE SWAP2 PUSH1 0x20 ADD SWAP2 SWAP1 PUSH1 0x1 ADD SWAP1 PUSH3 0x155 JUMP JUMPDEST JUMPDEST POP SWAP1 POP PUSH3 0x182 SWAP2 SWAP1 PUSH3 0x186 JUMP JUMPDEST POP SWAP1 JUMP JUMPDEST JUMPDEST DUP1 DUP3 GT ISZERO PUSH3 0x1A1 JUMPI PUSH1 0x0 DUP2 PUSH1 0x0 SWAP1 SSTORE POP PUSH1 0x1 ADD PUSH3 0x187 JUMP JUMPDEST POP SWAP1 JUMP JUMPDEST PUSH1 0x0 PUSH1 0x2 DUP3 DIV SWAP1 POP PUSH1 0x1 DUP3 AND DUP1 PUSH3 0x1BE JUMPI PUSH1 0x7F DUP3 AND SWAP2 POP JUMPDEST PUSH1 0x20 DUP3 LT DUP2 EQ ISZERO PUSH3 0x1D5 JUMPI PUSH3 0x1D4 PUSH3 0x1DB JUMP JUMPDEST JUMPDEST POP SWAP2 SWAP1 POP JUMP JUMPDEST PUSH32 0x4E487B7100000000000000000000000000000000000000000000000000000000 PUSH1 0x0 MSTORE PUSH1 0x22 PUSH1 0x4 MSTORE PUSH1 0x24 PUSH1 0x0 REVERT JUMPDEST PUSH2 0x1E88 DUP1 PUSH3 0x21A PUSH1 0x0 CODECOPY PUSH1 0x0 RETURN INVALID PUSH1 0x80 PUSH1 0x40 MSTORE PUSH1 0x4 CALLDATASIZE LT PUSH2 0xE8 JUMPI PUSH1 0x0 CALLDATALOAD PUSH1 0xE0 SHR DUP1 PUSH4 0x70A08231 GT PUSH2 0x8A JUMPI DUP1 PUSH4 0xC0F202EF GT PUSH2 0x59 JUMPI DUP1 PUSH4 0xC0F202EF EQ PUSH2 0x30D JUMPI DUP1 PUSH4 0xC3921895 EQ PUSH2 0x336 JUMPI DUP1 PUSH4 0xD48644BD EQ PUSH2 0x373 JUMPI DUP1 PUSH4 0xEA0FF14A EQ PUSH2 0x3B0 JUMPI PUSH2 0xE8 JUMP JUMPDEST DUP1 PUSH4 0x70A08231 EQ PUSH2 0x24E JUMPI DUP1 PUSH4 0x91B6BE9A EQ PUSH2 0x28B JUMPI DUP1 PUSH4 0xA4964C33 EQ PUSH2 0x2A7 JUMPI DUP1 PUSH4 0xADAE08DD EQ PUSH2 0x2D0 JUMPI PUSH2 0xE8 JUMP JUMPDEST DUP1 PUSH4 0x29DE6246 GT PUSH2 0xC6 JUMPI DUP1 PUSH4 0x29DE6246 EQ PUSH2 0x192 JUMPI DUP1 PUSH4 0x4C389E65 EQ PUSH2 0x1BB JUMPI DUP1 PUSH4 0x4CAD2FFC EQ PUSH2 0x1E6 JUMPI DUP1 PUSH4 0x6352211E EQ PUSH2 0x211 JUMPI PUSH2 0xE8 JUMP JUMPDEST DUP1 PUSH4 0x73E74DF EQ PUSH2 0xED JUMPI DUP1 PUSH4 0x1A4D96CD EQ PUSH2 0x118 JUMPI DUP1 PUSH4 0x2165E65A EQ PUSH2 0x155 JUMPI JUMPDEST PUSH1 0x0 DUP1 REVERT JUMPDEST CALLVALUE DUP1 ISZERO PUSH2 0xF9 JUMPI PUSH1 0x0 DUP1 REVERT JUMPDEST POP PUSH2 0x102 PUSH2 0x3DB JUMP JUMPDEST PUSH1 0x40 MLOAD PUSH2 0x10F SWAP2 SWAP1 PUSH2 0x19CA JUMP JUMPDEST PUSH1 0x40 MLOAD DUP1 SWAP2 SUB SWAP1 RETURN JUMPDEST CALLVALUE DUP1 ISZERO PUSH2 0x124 JUMPI PUSH1 0x0 DUP1 REVERT JUMPDEST POP PUSH2 0x13F PUSH1 0x4 DUP1 CALLDATASIZE SUB DUP2 ADD SWAP1 PUSH2 0x13A SWAP2 SWAP1 PUSH2 0x174E JUMP JUMPDEST PUSH2 0x5CE JUMP JUMPDEST PUSH1 0x40 MLOAD PUSH2 0x14C SWAP2 SWAP1 PUSH2 0x19AF JUMP JUMPDEST PUSH1 0x40 MLOAD DUP1 SWAP2 SUB SWAP1 RETURN JUMPDEST CALLVALUE DUP1 ISZERO PUSH2 0x161 JUMPI PUSH1 0x0 DUP1 REVERT JUMPDEST POP PUSH2 0x17C PUSH1 0x4 DUP1 CALLDATASIZE SUB DUP2 ADD SWAP1 PUSH2 0x177 SWAP2 SWAP1 PUSH2 0x174E JUMP JUMPDEST PUSH2 0x601 JUMP JUMPDEST PUSH1 0x40 MLOAD PUSH2 0x189 SWAP2 SWAP1 PUSH2 0x19CA JUMP JUMPDEST PUSH1 0x40 MLOAD DUP1 SWAP2 SUB SWAP1 RETURN JUMPDEST CALLVALUE DUP1 ISZERO PUSH2 0x19E JUMPI PUSH1 0x0 DUP1 REVERT JUMPDEST POP PUSH2 0x1B9 PUSH1 0x4 DUP1 CALLDATASIZE SUB DUP2 ADD SWAP1 PUSH2 0x1B4 SWAP2 SWAP1 PUSH2 0x174E JUMP JUMPDEST PUSH2 0x7F5 JUMP JUMPDEST STOP JUMPDEST CALLVALUE DUP1 ISZERO PUSH2 0x1C7 JUMPI PUSH1 0x0 DUP1 REVERT JUMPDEST POP PUSH2 0x1D0 PUSH2 0x88F JUMP JUMPDEST PUSH1 0x40 MLOAD PUSH2 0x1DD SWAP2 SWAP1 PUSH2 0x1ACC JUMP JUMPDEST PUSH1 0x40 MLOAD DUP1 SWAP2 SUB SWAP1 RETURN JUMPDEST CALLVALUE DUP1 ISZERO PUSH2 0x1F2 JUMPI PUSH1 0x0 DUP1 REVERT JUMPDEST POP PUSH2 0x1FB PUSH2 0x895 JUMP JUMPDEST PUSH1 0x40 MLOAD PUSH2 0x208 SWAP2 SWAP1 PUSH2 0x19CA JUMP JUMPDEST PUSH1 0x40 MLOAD DUP1 SWAP2 SUB SWAP1 RETURN JUMPDEST CALLVALUE DUP1 ISZERO PUSH2 0x21D JUMPI PUSH1 0x0 DUP1 REVERT JUMPDEST POP PUSH2 0x238 PUSH1 0x4 DUP1 CALLDATASIZE SUB DUP2 ADD SWAP1 PUSH2 0x233 SWAP2 SWAP1 PUSH2 0x174E JUMP JUMPDEST PUSH2 0xAC7 JUMP JUMPDEST PUSH1 0x40 MLOAD PUSH2 0x245 SWAP2 SWAP1 PUSH2 0x19AF JUMP JUMPDEST PUSH1 0x40 MLOAD DUP1 SWAP2 SUB SWAP1 RETURN JUMPDEST CALLVALUE DUP1 ISZERO PUSH2 0x25A JUMPI PUSH1 0x0 DUP1 REVERT JUMPDEST POP PUSH2 0x275 PUSH1 0x4 DUP1 CALLDATASIZE SUB DUP2 ADD SWAP1 PUSH2 0x270 SWAP2 SWAP1 PUSH2 0x1725 JUMP JUMPDEST PUSH2 0xB04 JUMP JUMPDEST PUSH1 0x40 MLOAD PUSH2 0x282 SWAP2 SWAP1 PUSH2 0x1ACC JUMP JUMPDEST PUSH1 0x40 MLOAD DUP1 SWAP2 SUB SWAP1 RETURN JUMPDEST PUSH2 0x2A5 PUSH1 0x4 DUP1 CALLDATASIZE SUB DUP2 ADD SWAP1 PUSH2 0x2A0 SWAP2 SWAP1 PUSH2 0x174E JUMP JUMPDEST PUSH2 0xB4D JUMP JUMPDEST STOP JUMPDEST CALLVALUE DUP1 ISZERO PUSH2 0x2B3 JUMPI PUSH1 0x0 DUP1 REVERT JUMPDEST POP PUSH2 0x2CE PUSH1 0x4 DUP1 CALLDATASIZE SUB DUP2 ADD SWAP1 PUSH2 0x2C9 SWAP2 SWAP1 PUSH2 0x174E JUMP JUMPDEST PUSH2 0xF1F JUMP JUMPDEST STOP JUMPDEST CALLVALUE DUP1 ISZERO PUSH2 0x2DC JUMPI PUSH1 0x0 DUP1 REVERT JUMPDEST POP PUSH2 0x2F7 PUSH1 0x4 DUP1 CALLDATASIZE SUB DUP2 ADD SWAP1 PUSH2 0x2F2 SWAP2 SWAP1 PUSH2 0x1777 JUMP JUMPDEST PUSH2 0x117E JUMP JUMPDEST PUSH1 0x40 MLOAD PUSH2 0x304 SWAP2 SWAP1 PUSH2 0x1ACC JUMP JUMPDEST PUSH1 0x40 MLOAD DUP1 SWAP2 SUB SWAP1 RETURN JUMPDEST CALLVALUE DUP1 ISZERO PUSH2 0x319 JUMPI PUSH1 0x0 DUP1 REVERT JUMPDEST POP PUSH2 0x334 PUSH1 0x4 DUP1 CALLDATASIZE SUB DUP2 ADD SWAP1 PUSH2 0x32F SWAP2 SWAP1 PUSH2 0x174E JUMP JUMPDEST PUSH2 0x13FB JUMP JUMPDEST STOP JUMPDEST CALLVALUE DUP1 ISZERO PUSH2 0x342 JUMPI PUSH1 0x0 DUP1 REVERT JUMPDEST POP PUSH2 0x35D PUSH1 0x4 DUP1 CALLDATASIZE SUB DUP2 ADD SWAP1 PUSH2 0x358 SWAP2 SWAP1 PUSH2 0x1725 JUMP JUMPDEST PUSH2 0x1659 JUMP JUMPDEST PUSH1 0x40 MLOAD PUSH2 0x36A SWAP2 SWAP1 PUSH2 0x1ACC JUMP JUMPDEST PUSH1 0x40 MLOAD DUP1 SWAP2 SUB SWAP1 RETURN JUMPDEST CALLVALUE DUP1 ISZERO PUSH2 0x37F JUMPI PUSH1 0x0 DUP1 REVERT JUMPDEST POP PUSH2 0x39A PUSH1 0x4 DUP1 CALLDATASIZE SUB DUP2 ADD SWAP1 PUSH2 0x395 SWAP2 SWAP1 PUSH2 0x174E JUMP JUMPDEST PUSH2 0x1671 JUMP JUMPDEST PUSH1 0x40 MLOAD PUSH2 0x3A7 SWAP2 SWAP1 PUSH2 0x1ACC JUMP JUMPDEST PUSH1 0x40 MLOAD DUP1 SWAP2 SUB SWAP1 RETURN JUMPDEST CALLVALUE DUP1 ISZERO PUSH2 0x3BC JUMPI PUSH1 0x0 DUP1 REVERT JUMPDEST POP PUSH2 0x3C5 PUSH2 0x1689 JUMP JUMPDEST PUSH1 0x40 MLOAD PUSH2 0x3D2 SWAP2 SWAP1 PUSH2 0x1ACC JUMP JUMPDEST PUSH1 0x40 MLOAD DUP1 SWAP2 SUB SWAP1 RETURN JUMPDEST PUSH1 0x60 PUSH1 0x0 DUP1 PUSH1 0x4 SLOAD PUSH8 0xFFFFFFFFFFFFFFFF DUP2 GT ISZERO PUSH2 0x422 JUMPI PUSH32 0x4E487B7100000000000000000000000000000000000000000000000000000000 PUSH1 0x0 MSTORE PUSH1 0x41 PUSH1 0x4 MSTORE PUSH1 0x24 PUSH1 0x0 REVERT JUMPDEST PUSH1 0x40 MLOAD SWAP1 DUP1 DUP3 MSTORE DUP1 PUSH1 0x20 MUL PUSH1 0x20 ADD DUP3 ADD PUSH1 0x40 MSTORE DUP1 ISZERO PUSH2 0x45B JUMPI DUP2 PUSH1 0x20 ADD JUMPDEST PUSH2 0x448 PUSH2 0x16D1 JUMP JUMPDEST DUP2 MSTORE PUSH1 0x20 ADD SWAP1 PUSH1 0x1 SWAP1 SUB SWAP1 DUP2 PUSH2 0x440 JUMPI SWAP1 POP JUMPDEST POP SWAP1 POP PUSH1 0x0 JUMPDEST PUSH1 0x3 DUP1 SLOAD SWAP1 POP DUP2 LT ISZERO PUSH2 0x5C5 JUMPI PUSH1 0x1 ISZERO ISZERO PUSH1 0x3 DUP3 DUP2 SLOAD DUP2 LT PUSH2 0x4AC JUMPI PUSH32 0x4E487B7100000000000000000000000000000000000000000000000000000000 PUSH1 0x0 MSTORE PUSH1 0x32 PUSH1 0x4 MSTORE PUSH1 0x24 PUSH1 0x0 REVERT JUMPDEST SWAP1 PUSH1 0x0 MSTORE PUSH1 0x20 PUSH1 0x0 KECCAK256 SWAP1 PUSH1 0x4 MUL ADD PUSH1 0x3 ADD PUSH1 0x0 SWAP1 SLOAD SWAP1 PUSH2 0x100 EXP SWAP1 DIV PUSH1 0xFF AND ISZERO ISZERO EQ ISZERO PUSH2 0x5B2 JUMPI PUSH1 0x3 DUP2 DUP2 SLOAD DUP2 LT PUSH2 0x50D JUMPI PUSH32 0x4E487B7100000000000000000000000000000000000000000000000000000000 PUSH1 0x0 MSTORE PUSH1 0x32 PUSH1 0x4 MSTORE PUSH1 0x24 PUSH1 0x0 REVERT JUMPDEST SWAP1 PUSH1 0x0 MSTORE PUSH1 0x20 PUSH1 0x0 KECCAK256 SWAP1 PUSH1 0x4 MUL ADD PUSH1 0x40 MLOAD DUP1 PUSH1 0x80 ADD PUSH1 0x40 MSTORE SWAP1 DUP2 PUSH1 0x0 DUP3 ADD SLOAD DUP2 MSTORE PUSH1 0x20 ADD PUSH1 0x1 DUP3 ADD SLOAD DUP2 MSTORE PUSH1 0x20 ADD PUSH1 0x2 DUP3 ADD SLOAD DUP2 MSTORE PUSH1 0x20 ADD PUSH1 0x3 DUP3 ADD PUSH1 0x0 SWAP1 SLOAD SWAP1 PUSH2 0x100 EXP SWAP1 DIV PUSH1 0xFF AND ISZERO ISZERO ISZERO ISZERO DUP2 MSTORE POP POP DUP3 DUP5 DUP2 MLOAD DUP2 LT PUSH2 0x598 JUMPI PUSH32 0x4E487B7100000000000000000000000000000000000000000000000000000000 PUSH1 0x0 MSTORE PUSH1 0x32 PUSH1 0x4 MSTORE PUSH1 0x24 PUSH1 0x0 REVERT JUMPDEST PUSH1 0x20 MUL PUSH1 0x20 ADD ADD DUP2 SWAP1 MSTORE POP DUP3 DUP1 PUSH2 0x5AE SWAP1 PUSH2 0x1C38 JUMP JUMPDEST SWAP4 POP POP JUMPDEST DUP1 DUP1 PUSH2 0x5BD SWAP1 PUSH2 0x1C38 JUMP JUMPDEST SWAP2 POP POP PUSH2 0x461 JUMP JUMPDEST POP DUP1 SWAP3 POP POP POP SWAP1 JUMP JUMPDEST PUSH1 0x6 PUSH1 0x20 MSTORE DUP1 PUSH1 0x0 MSTORE PUSH1 0x40 PUSH1 0x0 KECCAK256 PUSH1 0x0 SWAP2 POP SLOAD SWAP1 PUSH2 0x100 EXP SWAP1 DIV PUSH20 0xFFFFFFFFFFFFFFFFFFFFFFFFFFFFFFFFFFFFFFFF AND DUP2 JUMP JUMPDEST PUSH1 0x60 PUSH1 0x0 DUP1 PUSH1 0x8 PUSH1 0x0 DUP6 DUP2 MSTORE PUSH1 0x20 ADD SWAP1 DUP2 MSTORE PUSH1 0x20 ADD PUSH1 0x0 KECCAK256 SLOAD PUSH8 0xFFFFFFFFFFFFFFFF DUP2 GT ISZERO PUSH2 0x659 JUMPI PUSH32 0x4E487B7100000000000000000000000000000000000000000000000000000000 PUSH1 0x0 MSTORE PUSH1 0x41 PUSH1 0x4 MSTORE PUSH1 0x24 PUSH1 0x0 REVERT JUMPDEST PUSH1 0x40 MLOAD SWAP1 DUP1 DUP3 MSTORE DUP1 PUSH1 0x20 MUL PUSH1 0x20 ADD DUP3 ADD PUSH1 0x40 MSTORE DUP1 ISZERO PUSH2 0x692 JUMPI DUP2 PUSH1 0x20 ADD JUMPDEST PUSH2 0x67F PUSH2 0x16D1 JUMP JUMPDEST DUP2 MSTORE PUSH1 0x20 ADD SWAP1 PUSH1 0x1 SWAP1 SUB SWAP1 DUP2 PUSH2 0x677 JUMPI SWAP1 POP JUMPDEST POP SWAP1 POP PUSH1 0x0 JUMPDEST PUSH1 0x3 DUP1 SLOAD SWAP1 POP DUP2 LT ISZERO PUSH2 0x7EA JUMPI DUP5 PUSH1 0x3 DUP3 DUP2 SLOAD DUP2 LT PUSH2 0x6E0 JUMPI PUSH32 0x4E487B7100000000000000000000000000000000000000000000000000000000 PUSH1 0x0 MSTORE PUSH1 0x32 PUSH1 0x4 MSTORE PUSH1 0x24 PUSH1 0x0 REVERT JUMPDEST SWAP1 PUSH1 0x0 MSTORE PUSH1 0x20 PUSH1 0x0 KECCAK256 SWAP1 PUSH1 0x4 MUL ADD PUSH1 0x2 ADD SLOAD EQ ISZERO PUSH2 0x7D7 JUMPI PUSH1 0x3 DUP2 DUP2 SLOAD DUP2 LT PUSH2 0x732 JUMPI PUSH32 0x4E487B7100000000000000000000000000000000000000000000000000000000 PUSH1 0x0 MSTORE PUSH1 0x32 PUSH1 0x4 MSTORE PUSH1 0x24 PUSH1 0x0 REVERT JUMPDEST SWAP1 PUSH1 0x0 MSTORE PUSH1 0x20 PUSH1 0x0 KECCAK256 SWAP1 PUSH1 0x4 MUL ADD PUSH1 0x40 MLOAD DUP1 PUSH1 0x80 ADD PUSH1 0x40 MSTORE SWAP1 DUP2 PUSH1 0x0 DUP3 ADD SLOAD DUP2 MSTORE PUSH1 0x20 ADD PUSH1 0x1 DUP3 ADD SLOAD DUP2 MSTORE PUSH1 0x20 ADD PUSH1 0x2 DUP3 ADD SLOAD DUP2 MSTORE PUSH1 0x20 ADD PUSH1 0x3 DUP3 ADD PUSH1 0x0 SWAP1 SLOAD SWAP1 PUSH2 0x100 EXP SWAP1 DIV PUSH1 0xFF AND ISZERO ISZERO ISZERO ISZERO DUP2 MSTORE POP POP DUP3 DUP5 DUP2 MLOAD DUP2 LT PUSH2 0x7BD JUMPI PUSH32 0x4E487B7100000000000000000000000000000000000000000000000000000000 PUSH1 0x0 MSTORE PUSH1 0x32 PUSH1 0x4 MSTORE PUSH1 0x24 PUSH1 0x0 REVERT JUMPDEST PUSH1 0x20 MUL PUSH1 0x20 ADD ADD DUP2 SWAP1 MSTORE POP DUP3 DUP1 PUSH2 0x7D3 SWAP1 PUSH2 0x1C38 JUMP JUMPDEST SWAP4 POP POP JUMPDEST DUP1 DUP1 PUSH2 0x7E2 SWAP1 PUSH2 0x1C38 JUMP JUMPDEST SWAP2 POP POP PUSH2 0x698 JUMP JUMPDEST POP DUP1 SWAP3 POP POP POP SWAP2 SWAP1 POP JUMP JUMPDEST PUSH1 0x2 PUSH1 0x0 SWAP1 SLOAD SWAP1 PUSH2 0x100 EXP SWAP1 DIV PUSH20 0xFFFFFFFFFFFFFFFFFFFFFFFFFFFFFFFFFFFFFFFF AND PUSH20 0xFFFFFFFFFFFFFFFFFFFFFFFFFFFFFFFFFFFFFFFF AND CALLER PUSH20 0xFFFFFFFFFFFFFFFFFFFFFFFFFFFFFFFFFFFFFFFF AND EQ PUSH2 0x885 JUMPI PUSH1 0x40 MLOAD PUSH32 0x8C379A000000000000000000000000000000000000000000000000000000000 DUP2 MSTORE PUSH1 0x4 ADD PUSH2 0x87C SWAP1 PUSH2 0x1A8C JUMP JUMPDEST PUSH1 0x40 MLOAD DUP1 SWAP2 SUB SWAP1 REVERT JUMPDEST DUP1 PUSH1 0x5 DUP2 SWAP1 SSTORE POP POP JUMP JUMPDEST PUSH1 0x4 SLOAD DUP2 JUMP JUMPDEST PUSH1 0x60 PUSH1 0x0 DUP1 PUSH1 0x7 PUSH1 0x0 CALLER PUSH20 0xFFFFFFFFFFFFFFFFFFFFFFFFFFFFFFFFFFFFFFFF AND PUSH20 0xFFFFFFFFFFFFFFFFFFFFFFFFFFFFFFFFFFFFFFFF AND DUP2 MSTORE PUSH1 0x20 ADD SWAP1 DUP2 MSTORE PUSH1 0x20 ADD PUSH1 0x0 KECCAK256 SLOAD PUSH8 0xFFFFFFFFFFFFFFFF DUP2 GT ISZERO PUSH2 0x919 JUMPI PUSH32 0x4E487B7100000000000000000000000000000000000000000000000000000000 PUSH1 0x0 MSTORE PUSH1 0x41 PUSH1 0x4 MSTORE PUSH1 0x24 PUSH1 0x0 REVERT JUMPDEST PUSH1 0x40 MLOAD SWAP1 DUP1 DUP3 MSTORE DUP1 PUSH1 0x20 MUL PUSH1 0x20 ADD DUP3 ADD PUSH1 0x40 MSTORE DUP1 ISZERO PUSH2 0x952 JUMPI DUP2 PUSH1 0x20 ADD JUMPDEST PUSH2 0x93F PUSH2 0x16D1 JUMP JUMPDEST DUP2 MSTORE PUSH1 0x20 ADD SWAP1 PUSH1 0x1 SWAP1 SUB SWAP1 DUP2 PUSH2 0x937 JUMPI SWAP1 POP JUMPDEST POP SWAP1 POP PUSH1 0x0 JUMPDEST PUSH1 0x3 DUP1 SLOAD SWAP1 POP DUP2 LT ISZERO PUSH2 0xABE JUMPI CALLER PUSH20 0xFFFFFFFFFFFFFFFFFFFFFFFFFFFFFFFFFFFFFFFF AND PUSH1 0x6 PUSH1 0x0 DUP4 DUP2 MSTORE PUSH1 0x20 ADD SWAP1 DUP2 MSTORE PUSH1 0x20 ADD PUSH1 0x0 KECCAK256 PUSH1 0x0 SWAP1 SLOAD SWAP1 PUSH2 0x100 EXP SWAP1 DIV PUSH20 0xFFFFFFFFFFFFFFFFFFFFFFFFFFFFFFFFFFFFFFFF AND PUSH20 0xFFFFFFFFFFFFFFFFFFFFFFFFFFFFFFFFFFFFFFFF AND EQ ISZERO PUSH2 0xAAB JUMPI PUSH1 0x3 DUP2 DUP2 SLOAD DUP2 LT PUSH2 0xA06 JUMPI PUSH32 0x4E487B7100000000000000000000000000000000000000000000000000000000 PUSH1 0x0 MSTORE PUSH1 0x32 PUSH1 0x4 MSTORE PUSH1 0x24 PUSH1 0x0 REVERT JUMPDEST SWAP1 PUSH1 0x0 MSTORE PUSH1 0x20 PUSH1 0x0 KECCAK256 SWAP1 PUSH1 0x4 MUL ADD PUSH1 0x40 MLOAD DUP1 PUSH1 0x80 ADD PUSH1 0x40 MSTORE SWAP1 DUP2 PUSH1 0x0 DUP3 ADD SLOAD DUP2 MSTORE PUSH1 0x20 ADD PUSH1 0x1 DUP3 ADD SLOAD DUP2 MSTORE PUSH1 0x20 ADD PUSH1 0x2 DUP3 ADD SLOAD DUP2 MSTORE PUSH1 0x20 ADD PUSH1 0x3 DUP3 ADD PUSH1 0x0 SWAP1 SLOAD SWAP1 PUSH2 0x100 EXP SWAP1 DIV PUSH1 0xFF AND ISZERO ISZERO ISZERO ISZERO DUP2 MSTORE POP POP DUP3 DUP5 DUP2 MLOAD DUP2 LT PUSH2 0xA91 JUMPI PUSH32 0x4E487B7100000000000000000000000000000000000000000000000000000000 PUSH1 0x0 MSTORE PUSH1 0x32 PUSH1 0x4 MSTORE PUSH1 0x24 PUSH1 0x0 REVERT JUMPDEST PUSH1 0x20 MUL PUSH1 0x20 ADD ADD DUP2 SWAP1 MSTORE POP DUP3 DUP1 PUSH2 0xAA7 SWAP1 PUSH2 0x1C38 JUMP JUMPDEST SWAP4 POP POP JUMPDEST DUP1 DUP1 PUSH2 0xAB6 SWAP1 PUSH2 0x1C38 JUMP JUMPDEST SWAP2 POP POP PUSH2 0x958 JUMP JUMPDEST POP DUP1 SWAP3 POP POP POP SWAP1 JUMP JUMPDEST PUSH1 0x0 PUSH1 0x6 PUSH1 0x0 DUP4 DUP2 MSTORE PUSH1 0x20 ADD SWAP1 DUP2 MSTORE PUSH1 0x20 ADD PUSH1 0x0 KECCAK256 PUSH1 0x0 SWAP1 SLOAD SWAP1 PUSH2 0x100 EXP SWAP1 DIV PUSH20 0xFFFFFFFFFFFFFFFFFFFFFFFFFFFFFFFFFFFFFFFF AND SWAP1 POP SWAP2 SWAP1 POP JUMP JUMPDEST PUSH1 0x0 PUSH1 0x7 PUSH1 0x0 DUP4 PUSH20 0xFFFFFFFFFFFFFFFFFFFFFFFFFFFFFFFFFFFFFFFF AND PUSH20 0xFFFFFFFFFFFFFFFFFFFFFFFFFFFFFFFFFFFFFFFF AND DUP2 MSTORE PUSH1 0x20 ADD SWAP1 DUP2 MSTORE PUSH1 0x20 ADD PUSH1 0x0 KECCAK256 SLOAD SWAP1 POP SWAP2 SWAP1 POP JUMP JUMPDEST PUSH1 0x3 DUP2 DUP2 SLOAD DUP2 LT PUSH2 0xB87 JUMPI PUSH32 0x4E487B7100000000000000000000000000000000000000000000000000000000 PUSH1 0x0 MSTORE PUSH1 0x32 PUSH1 0x4 MSTORE PUSH1 0x24 PUSH1 0x0 REVERT JUMPDEST SWAP1 PUSH1 0x0 MSTORE PUSH1 0x20 PUSH1 0x0 KECCAK256 SWAP1 PUSH1 0x4 MUL ADD PUSH1 0x1 ADD SLOAD CALLVALUE EQ PUSH2 0xBA4 JUMPI PUSH1 0x0 DUP1 REVERT JUMPDEST PUSH1 0x0 PUSH20 0xFFFFFFFFFFFFFFFFFFFFFFFFFFFFFFFFFFFFFFFF AND PUSH1 0x6 PUSH1 0x0 DUP4 DUP2 MSTORE PUSH1 0x20 ADD SWAP1 DUP2 MSTORE PUSH1 0x20 ADD PUSH1 0x0 KECCAK256 PUSH1 0x0 SWAP1 SLOAD SWAP1 PUSH2 0x100 EXP SWAP1 DIV PUSH20 0xFFFFFFFFFFFFFFFFFFFFFFFFFFFFFFFFFFFFFFFF AND PUSH20 0xFFFFFFFFFFFFFFFFFFFFFFFFFFFFFFFFFFFFFFFF AND EQ ISZERO PUSH2 0xC47 JUMPI PUSH1 0x40 MLOAD PUSH32 0x8C379A000000000000000000000000000000000000000000000000000000000 DUP2 MSTORE PUSH1 0x4 ADD PUSH2 0xC3E SWAP1 PUSH2 0x1A2C JUMP JUMPDEST PUSH1 0x40 MLOAD DUP1 SWAP2 SUB SWAP1 REVERT JUMPDEST PUSH1 0x0 PUSH1 0x6 PUSH1 0x0 DUP4 DUP2 MSTORE PUSH1 0x20 ADD SWAP1 DUP2 MSTORE PUSH1 0x20 ADD PUSH1 0x0 KECCAK256 PUSH1 0x0 SWAP1 SLOAD SWAP1 PUSH2 0x100 EXP SWAP1 DIV PUSH20 0xFFFFFFFFFFFFFFFFFFFFFFFFFFFFFFFFFFFFFFFF AND SWAP1 POP PUSH1 0x0 PUSH1 0x3 DUP4 DUP2 SLOAD DUP2 LT PUSH2 0xCBB JUMPI PUSH32 0x4E487B7100000000000000000000000000000000000000000000000000000000 PUSH1 0x0 MSTORE PUSH1 0x32 PUSH1 0x4 MSTORE PUSH1 0x24 PUSH1 0x0 REVERT JUMPDEST SWAP1 PUSH1 0x0 MSTORE PUSH1 0x20 PUSH1 0x0 KECCAK256 SWAP1 PUSH1 0x4 MUL ADD SWAP1 POP PUSH1 0x0 DUP2 PUSH1 0x3 ADD PUSH1 0x0 PUSH2 0x100 EXP DUP2 SLOAD DUP2 PUSH1 0xFF MUL NOT AND SWAP1 DUP4 ISZERO ISZERO MUL OR SWAP1 SSTORE POP CALLER PUSH1 0x6 PUSH1 0x0 DUP6 DUP2 MSTORE PUSH1 0x20 ADD SWAP1 DUP2 MSTORE PUSH1 0x20 ADD PUSH1 0x0 KECCAK256 PUSH1 0x0 PUSH2 0x100 EXP DUP2 SLOAD DUP2 PUSH20 0xFFFFFFFFFFFFFFFFFFFFFFFFFFFFFFFFFFFFFFFF MUL NOT AND SWAP1 DUP4 PUSH20 0xFFFFFFFFFFFFFFFFFFFFFFFFFFFFFFFFFFFFFFFF AND MUL OR SWAP1 SSTORE POP PUSH1 0x7 PUSH1 0x0 DUP4 PUSH20 0xFFFFFFFFFFFFFFFFFFFFFFFFFFFFFFFFFFFFFFFF AND PUSH20 0xFFFFFFFFFFFFFFFFFFFFFFFFFFFFFFFFFFFFFFFF AND DUP2 MSTORE PUSH1 0x20 ADD SWAP1 DUP2 MSTORE PUSH1 0x20 ADD PUSH1 0x0 KECCAK256 PUSH1 0x0 DUP2 SLOAD DUP1 SWAP3 SWAP2 SWAP1 PUSH1 0x1 SWAP1 SUB SWAP2 SWAP1 POP SSTORE POP PUSH1 0x7 PUSH1 0x0 CALLER PUSH20 0xFFFFFFFFFFFFFFFFFFFFFFFFFFFFFFFFFFFFFFFF AND PUSH20 0xFFFFFFFFFFFFFFFFFFFFFFFFFFFFFFFFFFFFFFFF AND DUP2 MSTORE PUSH1 0x20 ADD SWAP1 DUP2 MSTORE PUSH1 0x20 ADD PUSH1 0x0 KECCAK256 PUSH1 0x0 DUP2 SLOAD DUP1 SWAP3 SWAP2 SWAP1 PUSH1 0x1 ADD SWAP2 SWAP1 POP SSTORE POP PUSH1 0x4 PUSH1 0x0 DUP2 SLOAD DUP1 SWAP3 SWAP2 SWAP1 PUSH1 0x1 SWAP1 SUB SWAP2 SWAP1 POP SSTORE POP PUSH1 0x0 DUP1 PUSH2 0xDFB CALLVALUE PUSH1 0x5 SLOAD PUSH2 0x1693 JUMP JUMPDEST DUP1 SWAP3 POP DUP2 SWAP4 POP POP POP PUSH1 0x2 PUSH1 0x0 SWAP1 SLOAD SWAP1 PUSH2 0x100 EXP SWAP1 DIV PUSH20 0xFFFFFFFFFFFFFFFFFFFFFFFFFFFFFFFFFFFFFFFF AND PUSH20 0xFFFFFFFFFFFFFFFFFFFFFFFFFFFFFFFFFFFFFFFF AND PUSH2 0x8FC DUP4 SWAP1 DUP2 ISZERO MUL SWAP1 PUSH1 0x40 MLOAD PUSH1 0x0 PUSH1 0x40 MLOAD DUP1 DUP4 SUB DUP2 DUP6 DUP9 DUP9 CALL SWAP4 POP POP POP POP ISZERO DUP1 ISZERO PUSH2 0xE6B JUMPI RETURNDATASIZE PUSH1 0x0 DUP1 RETURNDATACOPY RETURNDATASIZE PUSH1 0x0 REVERT JUMPDEST POP DUP4 PUSH20 0xFFFFFFFFFFFFFFFFFFFFFFFFFFFFFFFFFFFFFFFF AND PUSH2 0x8FC DUP3 SWAP1 DUP2 ISZERO MUL SWAP1 PUSH1 0x40 MLOAD PUSH1 0x0 PUSH1 0x40 MLOAD DUP1 DUP4 SUB DUP2 DUP6 DUP9 DUP9 CALL SWAP4 POP POP POP POP ISZERO DUP1 ISZERO PUSH2 0xEB2 JUMPI RETURNDATASIZE PUSH1 0x0 DUP1 RETURNDATACOPY RETURNDATASIZE PUSH1 0x0 REVERT JUMPDEST POP CALLER PUSH20 0xFFFFFFFFFFFFFFFFFFFFFFFFFFFFFFFFFFFFFFFF AND DUP5 PUSH20 0xFFFFFFFFFFFFFFFFFFFFFFFFFFFFFFFFFFFFFFFF AND PUSH32 0xDDF252AD1BE2C89B69C2B068FC378DAA952BA7F163C4A11628F55A4DF523B3EF DUP8 PUSH1 0x40 MLOAD PUSH2 0xF10 SWAP2 SWAP1 PUSH2 0x1ACC JUMP JUMPDEST PUSH1 0x40 MLOAD DUP1 SWAP2 SUB SWAP1 LOG3 POP POP POP POP POP JUMP JUMPDEST DUP1 CALLER PUSH20 0xFFFFFFFFFFFFFFFFFFFFFFFFFFFFFFFFFFFFFFFF AND PUSH1 0x6 PUSH1 0x0 DUP4 DUP2 MSTORE PUSH1 0x20 ADD SWAP1 DUP2 MSTORE PUSH1 0x20 ADD PUSH1 0x0 KECCAK256 PUSH1 0x0 SWAP1 SLOAD SWAP1 PUSH2 0x100 EXP SWAP1 DIV PUSH20 0xFFFFFFFFFFFFFFFFFFFFFFFFFFFFFFFFFFFFFFFF AND PUSH20 0xFFFFFFFFFFFFFFFFFFFFFFFFFFFFFFFFFFFFFFFF AND EQ PUSH2 0xFC1 JUMPI PUSH1 0x40 MLOAD PUSH32 0x8C379A000000000000000000000000000000000000000000000000000000000 DUP2 MSTORE PUSH1 0x4 ADD PUSH2 0xFB8 SWAP1 PUSH2 0x1A4C JUMP JUMPDEST PUSH1 0x40 MLOAD DUP1 SWAP2 SUB SWAP1 REVERT JUMPDEST PUSH1 0x0 PUSH20 0xFFFFFFFFFFFFFFFFFFFFFFFFFFFFFFFFFFFFFFFF AND PUSH1 0x6 PUSH1 0x0 DUP5 DUP2 MSTORE PUSH1 0x20 ADD SWAP1 DUP2 MSTORE PUSH1 0x20 ADD PUSH1 0x0 KECCAK256 PUSH1 0x0 SWAP1 SLOAD SWAP1 PUSH2 0x100 EXP SWAP1 DIV PUSH20 0xFFFFFFFFFFFFFFFFFFFFFFFFFFFFFFFFFFFFFFFF AND PUSH20 0xFFFFFFFFFFFFFFFFFFFFFFFFFFFFFFFFFFFFFFFF AND EQ ISZERO PUSH2 0x1064 JUMPI PUSH1 0x40 MLOAD PUSH32 0x8C379A000000000000000000000000000000000000000000000000000000000 DUP2 MSTORE PUSH1 0x4 ADD PUSH2 0x105B SWAP1 PUSH2 0x1A2C JUMP JUMPDEST PUSH1 0x40 MLOAD DUP1 SWAP2 SUB SWAP1 REVERT JUMPDEST PUSH1 0x1 ISZERO ISZERO PUSH1 0x3 DUP4 DUP2 SLOAD DUP2 LT PUSH2 0x10A2 JUMPI PUSH32 0x4E487B7100000000000000000000000000000000000000000000000000000000 PUSH1 0x0 MSTORE PUSH1 0x32 PUSH1 0x4 MSTORE PUSH1 0x24 PUSH1 0x0 REVERT JUMPDEST SWAP1 PUSH1 0x0 MSTORE PUSH1 0x20 PUSH1 0x0 KECCAK256 SWAP1 PUSH1 0x4 MUL ADD PUSH1 0x3 ADD PUSH1 0x0 SWAP1 SLOAD SWAP1 PUSH2 0x100 EXP SWAP1 DIV PUSH1 0xFF AND ISZERO ISZERO EQ PUSH2 0x1103 JUMPI PUSH1 0x40 MLOAD PUSH32 0x8C379A000000000000000000000000000000000000000000000000000000000 DUP2 MSTORE PUSH1 0x4 ADD PUSH2 0x10FA SWAP1 PUSH2 0x19EC JUMP JUMPDEST PUSH1 0x40 MLOAD DUP1 SWAP2 SUB SWAP1 REVERT JUMPDEST PUSH1 0x0 PUSH1 0x3 DUP4 DUP2 SLOAD DUP2 LT PUSH2 0x113F JUMPI PUSH32 0x4E487B7100000000000000000000000000000000000000000000000000000000 PUSH1 0x0 MSTORE PUSH1 0x32 PUSH1 0x4 MSTORE PUSH1 0x24 PUSH1 0x0 REVERT JUMPDEST SWAP1 PUSH1 0x0 MSTORE PUSH1 0x20 PUSH1 0x0 KECCAK256 SWAP1 PUSH1 0x4 MUL ADD PUSH1 0x3 ADD PUSH1 0x0 PUSH2 0x100 EXP DUP2 SLOAD DUP2 PUSH1 0xFF MUL NOT AND SWAP1 DUP4 ISZERO ISZERO MUL OR SWAP1 SSTORE POP PUSH1 0x4 PUSH1 0x0 DUP2 SLOAD DUP1 SWAP3 SWAP2 SWAP1 PUSH1 0x1 SWAP1 SUB SWAP2 SWAP1 POP SSTORE POP POP POP JUMP JUMPDEST PUSH1 0x0 DUP1 DUP4 GT PUSH2 0x11C2 JUMPI PUSH1 0x40 MLOAD PUSH32 0x8C379A000000000000000000000000000000000000000000000000000000000 DUP2 MSTORE PUSH1 0x4 ADD PUSH2 0x11B9 SWAP1 PUSH2 0x1AAC JUMP JUMPDEST PUSH1 0x40 MLOAD DUP1 SWAP2 SUB SWAP1 REVERT JUMPDEST PUSH1 0x0 PUSH1 0x3 DUP1 SLOAD SWAP1 POP SWAP1 POP PUSH1 0x0 PUSH20 0xFFFFFFFFFFFFFFFFFFFFFFFFFFFFFFFFFFFFFFFF AND PUSH1 0x6 PUSH1 0x0 DUP4 DUP2 MSTORE PUSH1 0x20 ADD SWAP1 DUP2 MSTORE PUSH1 0x20 ADD PUSH1 0x0 KECCAK256 PUSH1 0x0 SWAP1 SLOAD SWAP1 PUSH2 0x100 EXP SWAP1 DIV PUSH20 0xFFFFFFFFFFFFFFFFFFFFFFFFFFFFFFFFFFFFFFFF AND PUSH20 0xFFFFFFFFFFFFFFFFFFFFFFFFFFFFFFFFFFFFFFFF AND EQ PUSH2 0x126E JUMPI PUSH1 0x40 MLOAD PUSH32 0x8C379A000000000000000000000000000000000000000000000000000000000 DUP2 MSTORE PUSH1 0x4 ADD PUSH2 0x1265 SWAP1 PUSH2 0x1A0C JUMP JUMPDEST PUSH1 0x40 MLOAD DUP1 SWAP2 SUB SWAP1 REVERT JUMPDEST PUSH1 0x40 MLOAD DUP1 PUSH1 0x80 ADD PUSH1 0x40 MSTORE DUP1 DUP3 DUP2 MSTORE PUSH1 0x20 ADD DUP6 DUP2 MSTORE PUSH1 0x20 ADD DUP5 DUP2 MSTORE PUSH1 0x20 ADD PUSH1 0x1 ISZERO ISZERO DUP2 MSTORE POP PUSH1 0x3 DUP3 DUP2 SLOAD DUP2 LT PUSH2 0x12CC JUMPI PUSH32 0x4E487B7100000000000000000000000000000000000000000000000000000000 PUSH1 0x0 MSTORE PUSH1 0x32 PUSH1 0x4 MSTORE PUSH1 0x24 PUSH1 0x0 REVERT JUMPDEST SWAP1 PUSH1 0x0 MSTORE PUSH1 0x20 PUSH1 0x0 KECCAK256 SWAP1 PUSH1 0x4 MUL ADD PUSH1 0x0 DUP3 ADD MLOAD DUP2 PUSH1 0x0 ADD SSTORE PUSH1 0x20 DUP3 ADD MLOAD DUP2 PUSH1 0x1 ADD SSTORE PUSH1 0x40 DUP3 ADD MLOAD DUP2 PUSH1 0x2 ADD SSTORE PUSH1 0x60 DUP3 ADD MLOAD DUP2 PUSH1 0x3 ADD PUSH1 0x0 PUSH2 0x100 EXP DUP2 SLOAD DUP2 PUSH1 0xFF MUL NOT AND SWAP1 DUP4 ISZERO ISZERO MUL OR SWAP1 SSTORE POP SWAP1 POP POP CALLER PUSH1 0x6 PUSH1 0x0 DUP4 DUP2 MSTORE PUSH1 0x20 ADD SWAP1 DUP2 MSTORE PUSH1 0x20 ADD PUSH1 0x0 KECCAK256 PUSH1 0x0 PUSH2 0x100 EXP DUP2 SLOAD DUP2 PUSH20 0xFFFFFFFFFFFFFFFFFFFFFFFFFFFFFFFFFFFFFFFF MUL NOT AND SWAP1 DUP4 PUSH20 0xFFFFFFFFFFFFFFFFFFFFFFFFFFFFFFFFFFFFFFFF AND MUL OR SWAP1 SSTORE POP PUSH1 0x7 PUSH1 0x0 CALLER PUSH20 0xFFFFFFFFFFFFFFFFFFFFFFFFFFFFFFFFFFFFFFFF AND PUSH20 0xFFFFFFFFFFFFFFFFFFFFFFFFFFFFFFFFFFFFFFFF AND DUP2 MSTORE PUSH1 0x20 ADD SWAP1 DUP2 MSTORE PUSH1 0x20 ADD PUSH1 0x0 KECCAK256 PUSH1 0x0 DUP2 SLOAD DUP1 SWAP3 SWAP2 SWAP1 PUSH1 0x1 ADD SWAP2 SWAP1 POP SSTORE POP PUSH1 0x8 PUSH1 0x0 DUP5 DUP2 MSTORE PUSH1 0x20 ADD SWAP1 DUP2 MSTORE PUSH1 0x20 ADD PUSH1 0x0 KECCAK256 PUSH1 0x0 DUP2 SLOAD DUP1 SWAP3 SWAP2 SWAP1 PUSH1 0x1 ADD SWAP2 SWAP1 POP SSTORE POP PUSH1 0x4 PUSH1 0x0 DUP2 SLOAD DUP1 SWAP3 SWAP2 SWAP1 PUSH1 0x1 ADD SWAP2 SWAP1 POP SSTORE POP DUP1 SWAP2 POP POP SWAP3 SWAP2 POP POP JUMP JUMPDEST DUP1 CALLER PUSH20 0xFFFFFFFFFFFFFFFFFFFFFFFFFFFFFFFFFFFFFFFF AND PUSH1 0x6 PUSH1 0x0 DUP4 DUP2 MSTORE PUSH1 0x20 ADD SWAP1 DUP2 MSTORE PUSH1 0x20 ADD PUSH1 0x0 KECCAK256 PUSH1 0x0 SWAP1 SLOAD SWAP1 PUSH2 0x100 EXP SWAP1 DIV PUSH20 0xFFFFFFFFFFFFFFFFFFFFFFFFFFFFFFFFFFFFFFFF AND PUSH20 0xFFFFFFFFFFFFFFFFFFFFFFFFFFFFFFFFFFFFFFFF AND EQ PUSH2 0x149D JUMPI PUSH1 0x40 MLOAD PUSH32 0x8C379A000000000000000000000000000000000000000000000000000000000 DUP2 MSTORE PUSH1 0x4 ADD PUSH2 0x1494 SWAP1 PUSH2 0x1A4C JUMP JUMPDEST PUSH1 0x40 MLOAD DUP1 SWAP2 SUB SWAP1 REVERT JUMPDEST PUSH1 0x0 PUSH20 0xFFFFFFFFFFFFFFFFFFFFFFFFFFFFFFFFFFFFFFFF AND PUSH1 0x6 PUSH1 0x0 DUP5 DUP2 MSTORE PUSH1 0x20 ADD SWAP1 DUP2 MSTORE PUSH1 0x20 ADD PUSH1 0x0 KECCAK256 PUSH1 0x0 SWAP1 SLOAD SWAP1 PUSH2 0x100 EXP SWAP1 DIV PUSH20 0xFFFFFFFFFFFFFFFFFFFFFFFFFFFFFFFFFFFFFFFF AND PUSH20 0xFFFFFFFFFFFFFFFFFFFFFFFFFFFFFFFFFFFFFFFF AND EQ ISZERO PUSH2 0x1540 JUMPI PUSH1 0x40 MLOAD PUSH32 0x8C379A000000000000000000000000000000000000000000000000000000000 DUP2 MSTORE PUSH1 0x4 ADD PUSH2 0x1537 SWAP1 PUSH2 0x1A2C JUMP JUMPDEST PUSH1 0x40 MLOAD DUP1 SWAP2 SUB SWAP1 REVERT JUMPDEST PUSH1 0x0 ISZERO ISZERO PUSH1 0x3 DUP4 DUP2 SLOAD DUP2 LT PUSH2 0x157E JUMPI PUSH32 0x4E487B7100000000000000000000000000000000000000000000000000000000 PUSH1 0x0 MSTORE PUSH1 0x32 PUSH1 0x4 MSTORE PUSH1 0x24 PUSH1 0x0 REVERT JUMPDEST SWAP1 PUSH1 0x0 MSTORE PUSH1 0x20 PUSH1 0x0 KECCAK256 SWAP1 PUSH1 0x4 MUL ADD PUSH1 0x3 ADD PUSH1 0x0 SWAP1 SLOAD SWAP1 PUSH2 0x100 EXP SWAP1 DIV PUSH1 0xFF AND ISZERO ISZERO EQ PUSH2 0x15DF JUMPI PUSH1 0x40 MLOAD PUSH32 0x8C379A000000000000000000000000000000000000000000000000000000000 DUP2 MSTORE PUSH1 0x4 ADD PUSH2 0x15D6 SWAP1 PUSH2 0x1A6C JUMP JUMPDEST PUSH1 0x40 MLOAD DUP1 SWAP2 SUB SWAP1 REVERT JUMPDEST PUSH1 0x1 PUSH1 0x3 DUP4 DUP2 SLOAD DUP2 LT PUSH2 0x161B JUMPI PUSH32 0x4E487B7100000000000000000000000000000000000000000000000000000000 PUSH1 0x0 MSTORE PUSH1 0x32 PUSH1 0x4 MSTORE PUSH1 0x24 PUSH1 0x0 REVERT JUMPDEST SWAP1 PUSH1 0x0 MSTORE PUSH1 0x20 PUSH1 0x0 KECCAK256 SWAP1 PUSH1 0x4 MUL ADD PUSH1 0x3 ADD PUSH1 0x0 PUSH2 0x100 EXP DUP2 SLOAD DUP2 PUSH1 0xFF MUL NOT AND SWAP1 DUP4 ISZERO ISZERO MUL OR SWAP1 SSTORE POP PUSH1 0x4 PUSH1 0x0 DUP2 SLOAD DUP1 SWAP3 SWAP2 SWAP1 PUSH1 0x1 ADD SWAP2 SWAP1 POP SSTORE POP POP POP JUMP JUMPDEST PUSH1 0x7 PUSH1 0x20 MSTORE DUP1 PUSH1 0x0 MSTORE PUSH1 0x40 PUSH1 0x0 KECCAK256 PUSH1 0x0 SWAP2 POP SWAP1 POP SLOAD DUP2 JUMP JUMPDEST PUSH1 0x8 PUSH1 0x20 MSTORE DUP1 PUSH1 0x0 MSTORE PUSH1 0x40 PUSH1 0x0 KECCAK256 PUSH1 0x0 SWAP2 POP SWAP1 POP SLOAD DUP2 JUMP JUMPDEST PUSH1 0x0 PUSH1 0x5 SLOAD SWAP1 POP SWAP1 JUMP JUMPDEST PUSH1 0x0 DUP1 PUSH1 0x0 PUSH1 0x64 DUP6 DUP6 PUSH2 0x16A6 SWAP2 SWAP1 PUSH2 0x1B62 JUMP JUMPDEST PUSH2 0x16B0 SWAP2 SWAP1 PUSH2 0x1B31 JUMP JUMPDEST SWAP1 POP PUSH1 0x0 DUP2 DUP7 PUSH2 0x16C0 SWAP2 SWAP1 PUSH2 0x1BBC JUMP JUMPDEST SWAP1 POP DUP2 DUP2 SWAP4 POP SWAP4 POP POP POP SWAP3 POP SWAP3 SWAP1 POP JUMP JUMPDEST PUSH1 0x40 MLOAD DUP1 PUSH1 0x80 ADD PUSH1 0x40 MSTORE DUP1 PUSH1 0x0 DUP2 MSTORE PUSH1 0x20 ADD PUSH1 0x0 DUP2 MSTORE PUSH1 0x20 ADD PUSH1 0x0 DUP2 MSTORE PUSH1 0x20 ADD PUSH1 0x0 ISZERO ISZERO DUP2 MSTORE POP SWAP1 JUMP JUMPDEST PUSH1 0x0 DUP2 CALLDATALOAD SWAP1 POP PUSH2 0x170A DUP2 PUSH2 0x1E24 JUMP JUMPDEST SWAP3 SWAP2 POP POP JUMP JUMPDEST PUSH1 0x0 DUP2 CALLDATALOAD SWAP1 POP PUSH2 0x171F DUP2 PUSH2 0x1E3B JUMP JUMPDEST SWAP3 SWAP2 POP POP JUMP JUMPDEST PUSH1 0x0 PUSH1 0x20 DUP3 DUP5 SUB SLT ISZERO PUSH2 0x1737 JUMPI PUSH1 0x0 DUP1 REVERT JUMPDEST PUSH1 0x0 PUSH2 0x1745 DUP5 DUP3 DUP6 ADD PUSH2 0x16FB JUMP JUMPDEST SWAP2 POP POP SWAP3 SWAP2 POP POP JUMP JUMPDEST PUSH1 0x0 PUSH1 0x20 DUP3 DUP5 SUB SLT ISZERO PUSH2 0x1760 JUMPI PUSH1 0x0 DUP1 REVERT JUMPDEST PUSH1 0x0 PUSH2 0x176E DUP5 DUP3 DUP6 ADD PUSH2 0x1710 JUMP JUMPDEST SWAP2 POP POP SWAP3 SWAP2 POP POP JUMP JUMPDEST PUSH1 0x0 DUP1 PUSH1 0x40 DUP4 DUP6 SUB SLT ISZERO PUSH2 0x178A JUMPI PUSH1 0x0 DUP1 REVERT JUMPDEST PUSH1 0x0 PUSH2 0x1798 DUP6 DUP3 DUP7 ADD PUSH2 0x1710 JUMP JUMPDEST SWAP3 POP POP PUSH1 0x20 PUSH2 0x17A9 DUP6 DUP3 DUP7 ADD PUSH2 0x1710 JUMP JUMPDEST SWAP2 POP POP SWAP3 POP SWAP3 SWAP1 POP JUMP JUMPDEST PUSH1 0x0 PUSH2 0x17BF DUP4 DUP4 PUSH2 0x193C JUMP JUMPDEST PUSH1 0x80 DUP4 ADD SWAP1 POP SWAP3 SWAP2 POP POP JUMP JUMPDEST PUSH2 0x17D4 DUP2 PUSH2 0x1BF0 JUMP JUMPDEST DUP3 MSTORE POP POP JUMP JUMPDEST PUSH1 0x0 PUSH2 0x17E5 DUP3 PUSH2 0x1AF7 JUMP JUMPDEST PUSH2 0x17EF DUP2 DUP6 PUSH2 0x1B0F JUMP JUMPDEST SWAP4 POP PUSH2 0x17FA DUP4 PUSH2 0x1AE7 JUMP JUMPDEST DUP1 PUSH1 0x0 JUMPDEST DUP4 DUP2 LT ISZERO PUSH2 0x182B JUMPI DUP2 MLOAD PUSH2 0x1812 DUP9 DUP3 PUSH2 0x17B3 JUMP JUMPDEST SWAP8 POP PUSH2 0x181D DUP4 PUSH2 0x1B02 JUMP JUMPDEST SWAP3 POP POP PUSH1 0x1 DUP2 ADD SWAP1 POP PUSH2 0x17FE JUMP JUMPDEST POP DUP6 SWAP4 POP POP POP POP SWAP3 SWAP2 POP POP JUMP JUMPDEST PUSH2 0x1841 DUP2 PUSH2 0x1C02 JUMP JUMPDEST DUP3 MSTORE POP POP JUMP JUMPDEST PUSH1 0x0 PUSH2 0x1854 PUSH1 0x13 DUP4 PUSH2 0x1B20 JUMP JUMPDEST SWAP2 POP PUSH2 0x185F DUP3 PUSH2 0x1CDF JUMP JUMPDEST PUSH1 0x20 DUP3 ADD SWAP1 POP SWAP2 SWAP1 POP JUMP JUMPDEST PUSH1 0x0 PUSH2 0x1877 PUSH1 0x13 DUP4 PUSH2 0x1B20 JUMP JUMPDEST SWAP2 POP PUSH2 0x1882 DUP3 PUSH2 0x1D08 JUMP JUMPDEST PUSH1 0x20 DUP3 ADD SWAP1 POP SWAP2 SWAP1 POP JUMP JUMPDEST PUSH1 0x0 PUSH2 0x189A PUSH1 0x13 DUP4 PUSH2 0x1B20 JUMP JUMPDEST SWAP2 POP PUSH2 0x18A5 DUP3 PUSH2 0x1D31 JUMP JUMPDEST PUSH1 0x20 DUP3 ADD SWAP1 POP SWAP2 SWAP1 POP JUMP JUMPDEST PUSH1 0x0 PUSH2 0x18BD PUSH1 0x1D DUP4 PUSH2 0x1B20 JUMP JUMPDEST SWAP2 POP PUSH2 0x18C8 DUP3 PUSH2 0x1D5A JUMP JUMPDEST PUSH1 0x20 DUP3 ADD SWAP1 POP SWAP2 SWAP1 POP JUMP JUMPDEST PUSH1 0x0 PUSH2 0x18E0 PUSH1 0x18 DUP4 PUSH2 0x1B20 JUMP JUMPDEST SWAP2 POP PUSH2 0x18EB DUP3 PUSH2 0x1D83 JUMP JUMPDEST PUSH1 0x20 DUP3 ADD SWAP1 POP SWAP2 SWAP1 POP JUMP JUMPDEST PUSH1 0x0 PUSH2 0x1903 PUSH1 0x21 DUP4 PUSH2 0x1B20 JUMP JUMPDEST SWAP2 POP PUSH2 0x190E DUP3 PUSH2 0x1DAC JUMP JUMPDEST PUSH1 0x40 DUP3 ADD SWAP1 POP SWAP2 SWAP1 POP JUMP JUMPDEST PUSH1 0x0 PUSH2 0x1926 PUSH1 0x1A DUP4 PUSH2 0x1B20 JUMP JUMPDEST SWAP2 POP PUSH2 0x1931 DUP3 PUSH2 0x1DFB JUMP JUMPDEST PUSH1 0x20 DUP3 ADD SWAP1 POP SWAP2 SWAP1 POP JUMP JUMPDEST PUSH1 0x80 DUP3 ADD PUSH1 0x0 DUP3 ADD MLOAD PUSH2 0x1952 PUSH1 0x0 DUP6 ADD DUP3 PUSH2 0x1991 JUMP JUMPDEST POP PUSH1 0x20 DUP3 ADD MLOAD PUSH2 0x1965 PUSH1 0x20 DUP6 ADD DUP3 PUSH2 0x1991 JUMP JUMPDEST POP PUSH1 0x40 DUP3 ADD MLOAD PUSH2 0x1978 PUSH1 0x40 DUP6 ADD DUP3 PUSH2 0x1991 JUMP JUMPDEST POP PUSH1 0x60 DUP3 ADD MLOAD PUSH2 0x198B PUSH1 0x60 DUP6 ADD DUP3 PUSH2 0x1838 JUMP JUMPDEST POP POP POP POP JUMP JUMPDEST PUSH2 0x199A DUP2 PUSH2 0x1C2E JUMP JUMPDEST DUP3 MSTORE POP POP JUMP JUMPDEST PUSH2 0x19A9 DUP2 PUSH2 0x1C2E JUMP JUMPDEST DUP3 MSTORE POP POP JUMP JUMPDEST PUSH1 0x0 PUSH1 0x20 DUP3 ADD SWAP1 POP PUSH2 0x19C4 PUSH1 0x0 DUP4 ADD DUP5 PUSH2 0x17CB JUMP JUMPDEST SWAP3 SWAP2 POP POP JUMP JUMPDEST PUSH1 0x0 PUSH1 0x20 DUP3 ADD SWAP1 POP DUP2 DUP2 SUB PUSH1 0x0 DUP4 ADD MSTORE PUSH2 0x19E4 DUP2 DUP5 PUSH2 0x17DA JUMP JUMPDEST SWAP1 POP SWAP3 SWAP2 POP POP JUMP JUMPDEST PUSH1 0x0 PUSH1 0x20 DUP3 ADD SWAP1 POP DUP2 DUP2 SUB PUSH1 0x0 DUP4 ADD MSTORE PUSH2 0x1A05 DUP2 PUSH2 0x1847 JUMP JUMPDEST SWAP1 POP SWAP2 SWAP1 POP JUMP JUMPDEST PUSH1 0x0 PUSH1 0x20 DUP3 ADD SWAP1 POP DUP2 DUP2 SUB PUSH1 0x0 DUP4 ADD MSTORE PUSH2 0x1A25 DUP2 PUSH2 0x186A JUMP JUMPDEST SWAP1 POP SWAP2 SWAP1 POP JUMP JUMPDEST PUSH1 0x0 PUSH1 0x20 DUP3 ADD SWAP1 POP DUP2 DUP2 SUB PUSH1 0x0 DUP4 ADD MSTORE PUSH2 0x1A45 DUP2 PUSH2 0x188D JUMP JUMPDEST SWAP1 POP SWAP2 SWAP1 POP JUMP JUMPDEST PUSH1 0x0 PUSH1 0x20 DUP3 ADD SWAP1 POP DUP2 DUP2 SUB PUSH1 0x0 DUP4 ADD MSTORE PUSH2 0x1A65 DUP2 PUSH2 0x18B0 JUMP JUMPDEST SWAP1 POP SWAP2 SWAP1 POP JUMP JUMPDEST PUSH1 0x0 PUSH1 0x20 DUP3 ADD SWAP1 POP DUP2 DUP2 SUB PUSH1 0x0 DUP4 ADD MSTORE PUSH2 0x1A85 DUP2 PUSH2 0x18D3 JUMP JUMPDEST SWAP1 POP SWAP2 SWAP1 POP JUMP JUMPDEST PUSH1 0x0 PUSH1 0x20 DUP3 ADD SWAP1 POP DUP2 DUP2 SUB PUSH1 0x0 DUP4 ADD MSTORE PUSH2 0x1AA5 DUP2 PUSH2 0x18F6 JUMP JUMPDEST SWAP1 POP SWAP2 SWAP1 POP JUMP JUMPDEST PUSH1 0x0 PUSH1 0x20 DUP3 ADD SWAP1 POP DUP2 DUP2 SUB PUSH1 0x0 DUP4 ADD MSTORE PUSH2 0x1AC5 DUP2 PUSH2 0x1919 JUMP JUMPDEST SWAP1 POP SWAP2 SWAP1 POP JUMP JUMPDEST PUSH1 0x0 PUSH1 0x20 DUP3 ADD SWAP1 POP PUSH2 0x1AE1 PUSH1 0x0 DUP4 ADD DUP5 PUSH2 0x19A0 JUMP JUMPDEST SWAP3 SWAP2 POP POP JUMP JUMPDEST PUSH1 0x0 DUP2 SWAP1 POP PUSH1 0x20 DUP3 ADD SWAP1 POP SWAP2 SWAP1 POP JUMP JUMPDEST PUSH1 0x0 DUP2 MLOAD SWAP1 POP SWAP2 SWAP1 POP JUMP JUMPDEST PUSH1 0x0 PUSH1 0x20 DUP3 ADD SWAP1 POP SWAP2 SWAP1 POP JUMP JUMPDEST PUSH1 0x0 DUP3 DUP3 MSTORE PUSH1 0x20 DUP3 ADD SWAP1 POP SWAP3 SWAP2 POP POP JUMP JUMPDEST PUSH1 0x0 DUP3 DUP3 MSTORE PUSH1 0x20 DUP3 ADD SWAP1 POP SWAP3 SWAP2 POP POP JUMP JUMPDEST PUSH1 0x0 PUSH2 0x1B3C DUP3 PUSH2 0x1C2E JUMP JUMPDEST SWAP2 POP PUSH2 0x1B47 DUP4 PUSH2 0x1C2E JUMP JUMPDEST SWAP3 POP DUP3 PUSH2 0x1B57 JUMPI PUSH2 0x1B56 PUSH2 0x1CB0 JUMP JUMPDEST JUMPDEST DUP3 DUP3 DIV SWAP1 POP SWAP3 SWAP2 POP POP JUMP JUMPDEST PUSH1 0x0 PUSH2 0x1B6D DUP3 PUSH2 0x1C2E JUMP JUMPDEST SWAP2 POP PUSH2 0x1B78 DUP4 PUSH2 0x1C2E JUMP JUMPDEST SWAP3 POP DUP2 PUSH32 0xFFFFFFFFFFFFFFFFFFFFFFFFFFFFFFFFFFFFFFFFFFFFFFFFFFFFFFFFFFFFFFFF DIV DUP4 GT DUP3 ISZERO ISZERO AND ISZERO PUSH2 0x1BB1 JUMPI PUSH2 0x1BB0 PUSH2 0x1C81 JUMP JUMPDEST JUMPDEST DUP3 DUP3 MUL SWAP1 POP SWAP3 SWAP2 POP POP JUMP JUMPDEST PUSH1 0x0 PUSH2 0x1BC7 DUP3 PUSH2 0x1C2E JUMP JUMPDEST SWAP2 POP PUSH2 0x1BD2 DUP4 PUSH2 0x1C2E JUMP JUMPDEST SWAP3 POP DUP3 DUP3 LT ISZERO PUSH2 0x1BE5 JUMPI PUSH2 0x1BE4 PUSH2 0x1C81 JUMP JUMPDEST JUMPDEST DUP3 DUP3 SUB SWAP1 POP SWAP3 SWAP2 POP POP JUMP JUMPDEST PUSH1 0x0 PUSH2 0x1BFB DUP3 PUSH2 0x1C0E JUMP JUMPDEST SWAP1 POP SWAP2 SWAP1 POP JUMP JUMPDEST PUSH1 0x0 DUP2 ISZERO ISZERO SWAP1 POP SWAP2 SWAP1 POP JUMP JUMPDEST PUSH1 0x0 PUSH20 0xFFFFFFFFFFFFFFFFFFFFFFFFFFFFFFFFFFFFFFFF DUP3 AND SWAP1 POP SWAP2 SWAP1 POP JUMP JUMPDEST PUSH1 0x0 DUP2 SWAP1 POP SWAP2 SWAP1 POP JUMP JUMPDEST PUSH1 0x0 PUSH2 0x1C43 DUP3 PUSH2 0x1C2E JUMP JUMPDEST SWAP2 POP PUSH32 0xFFFFFFFFFFFFFFFFFFFFFFFFFFFFFFFFFFFFFFFFFFFFFFFFFFFFFFFFFFFFFFFF DUP3 EQ ISZERO PUSH2 0x1C76 JUMPI PUSH2 0x1C75 PUSH2 0x1C81 JUMP JUMPDEST JUMPDEST PUSH1 0x1 DUP3 ADD SWAP1 POP SWAP2 SWAP1 POP JUMP JUMPDEST PUSH32 0x4E487B7100000000000000000000000000000000000000000000000000000000 PUSH1 0x0 MSTORE PUSH1 0x11 PUSH1 0x4 MSTORE PUSH1 0x24 PUSH1 0x0 REVERT JUMPDEST PUSH32 0x4E487B7100000000000000000000000000000000000000000000000000000000 PUSH1 0x0 MSTORE PUSH1 0x12 PUSH1 0x4 MSTORE PUSH1 0x24 PUSH1 0x0 REVERT JUMPDEST PUSH32 0x746F6B656E2069736E277420746F2073656C6C00000000000000000000000000 PUSH1 0x0 DUP3 ADD MSTORE POP JUMP JUMPDEST PUSH32 0x746F6B656E20616C726561647920657869737400000000000000000000000000 PUSH1 0x0 DUP3 ADD MSTORE POP JUMP JUMPDEST PUSH32 0x746F6B656E20646F65736E277420657869737400000000000000000000000000 PUSH1 0x0 DUP3 ADD MSTORE POP JUMP JUMPDEST PUSH32 0x4F6E6C79206974656D2773206F776E65722063616E20646F2074686174000000 PUSH1 0x0 DUP3 ADD MSTORE POP JUMP JUMPDEST PUSH32 0x746F6B656E20697320616C726561647920746F2073656C6C0000000000000000 PUSH1 0x0 DUP3 ADD MSTORE POP JUMP JUMPDEST PUSH32 0x4F6E6C7920636F6E74726163742773206F776E65722063616E20646F20746861 PUSH1 0x0 DUP3 ADD MSTORE PUSH32 0x7400000000000000000000000000000000000000000000000000000000000000 PUSH1 0x20 DUP3 ADD MSTORE POP JUMP JUMPDEST PUSH32 0x50726963652063616E6E6F7420626520657175616C20746F2030000000000000 PUSH1 0x0 DUP3 ADD MSTORE POP JUMP JUMPDEST PUSH2 0x1E2D DUP2 PUSH2 0x1BF0 JUMP JUMPDEST DUP2 EQ PUSH2 0x1E38 JUMPI PUSH1 0x0 DUP1 REVERT JUMPDEST POP JUMP JUMPDEST PUSH2 0x1E44 DUP2 PUSH2 0x1C2E JUMP JUMPDEST DUP2 EQ PUSH2 0x1E4F JUMPI PUSH1 0x0 DUP1 REVERT JUMPDEST POP JUMP INVALID LOG2 PUSH5 0x6970667358 0x22 SLT KECCAK256 0xC3 CALLCODE SWAP5 0xEE PUSH7 0xFCEAFBE06290D9 PUSH19 0x4F3BEE041BB3F5AF883A076383B02E6C77E8FA PUSH5 0x736F6C6343 STOP ADDMOD ADD STOP CALLER "
				},
				"gasEstimates": {
					"creation": {
						"codeDepositCost": "1563200",
						"executionCost": "infinite",
						"totalCost": "infinite"
					},
					"external": {
						"addItemToSell(uint256)": "46702",
						"balanceOf(address)": "1564",
						"createItem(uint256,uint256)": "infinite",
						"fetchItemsByCatId(uint256)": "infinite",
						"fetchItemsByOwner()": "infinite",
						"fetchItemsToSell()": "infinite",
						"getFeesPercentage()": "1225",
						"itemToOwner(uint256)": "1585",
						"itemsCatIdCount(uint256)": "infinite",
						"itemsOwnerCount(address)": "1558",
						"itemsToSellCount()": "1174",
						"modifyFeesPercentage(uint256)": "21313",
						"ownerOf(uint256)": "1654",
						"removeItemToSell(uint256)": "46750",
						"sellItem(uint256)": "infinite"
					},
					"internal": {
						"getFees(uint256,uint256)": "infinite"
					}
				},
				"methodIdentifiers": {
					"addItemToSell(uint256)": "c0f202ef",
					"balanceOf(address)": "70a08231",
					"createItem(uint256,uint256)": "adae08dd",
					"fetchItemsByCatId(uint256)": "2165e65a",
					"fetchItemsByOwner()": "4cad2ffc",
					"fetchItemsToSell()": "073e74df",
					"getFeesPercentage()": "ea0ff14a",
					"itemToOwner(uint256)": "1a4d96cd",
					"itemsCatIdCount(uint256)": "d48644bd",
					"itemsOwnerCount(address)": "c3921895",
					"itemsToSellCount()": "4c389e65",
					"modifyFeesPercentage(uint256)": "29de6246",
					"ownerOf(uint256)": "6352211e",
					"removeItemToSell(uint256)": "a4964c33",
					"sellItem(uint256)": "91b6be9a"
				}
			},
			"storageLayout": {
				"storage": [
					{
						"astId": 11,
						"contract": "contracts/GeekNft.sol:GeekNft",
						"label": "name",
						"offset": 0,
						"slot": "0",
						"type": "t_string_storage"
					},
					{
						"astId": 13,
						"contract": "contracts/GeekNft.sol:GeekNft",
						"label": "symbol",
						"offset": 0,
						"slot": "1",
						"type": "t_string_storage"
					},
					{
						"astId": 15,
						"contract": "contracts/GeekNft.sol:GeekNft",
						"label": "owner",
						"offset": 0,
						"slot": "2",
						"type": "t_address"
					},
					{
						"astId": 28,
						"contract": "contracts/GeekNft.sol:GeekNft",
						"label": "items",
						"offset": 0,
						"slot": "3",
						"type": "t_array(t_struct(Item)24_storage)dyn_storage"
					},
					{
						"astId": 30,
						"contract": "contracts/GeekNft.sol:GeekNft",
						"label": "itemsToSellCount",
						"offset": 0,
						"slot": "4",
						"type": "t_uint256"
					},
					{
						"astId": 32,
						"contract": "contracts/GeekNft.sol:GeekNft",
						"label": "feesPercentage",
						"offset": 0,
						"slot": "5",
						"type": "t_uint256"
					},
					{
						"astId": 36,
						"contract": "contracts/GeekNft.sol:GeekNft",
						"label": "itemToOwner",
						"offset": 0,
						"slot": "6",
						"type": "t_mapping(t_uint256,t_address)"
					},
					{
						"astId": 40,
						"contract": "contracts/GeekNft.sol:GeekNft",
						"label": "itemsOwnerCount",
						"offset": 0,
						"slot": "7",
						"type": "t_mapping(t_address,t_uint256)"
					},
					{
						"astId": 44,
						"contract": "contracts/GeekNft.sol:GeekNft",
						"label": "itemsCatIdCount",
						"offset": 0,
						"slot": "8",
						"type": "t_mapping(t_uint256,t_uint256)"
					}
				],
				"types": {
					"t_address": {
						"encoding": "inplace",
						"label": "address",
						"numberOfBytes": "20"
					},
					"t_array(t_struct(Item)24_storage)dyn_storage": {
						"base": "t_struct(Item)24_storage",
						"encoding": "dynamic_array",
						"label": "struct GeekNft.Item[]",
						"numberOfBytes": "32"
					},
					"t_bool": {
						"encoding": "inplace",
						"label": "bool",
						"numberOfBytes": "1"
					},
					"t_mapping(t_address,t_uint256)": {
						"encoding": "mapping",
						"key": "t_address",
						"label": "mapping(address => uint256)",
						"numberOfBytes": "32",
						"value": "t_uint256"
					},
					"t_mapping(t_uint256,t_address)": {
						"encoding": "mapping",
						"key": "t_uint256",
						"label": "mapping(uint256 => address)",
						"numberOfBytes": "32",
						"value": "t_address"
					},
					"t_mapping(t_uint256,t_uint256)": {
						"encoding": "mapping",
						"key": "t_uint256",
						"label": "mapping(uint256 => uint256)",
						"numberOfBytes": "32",
						"value": "t_uint256"
					},
					"t_string_storage": {
						"encoding": "bytes",
						"label": "string",
						"numberOfBytes": "32"
					},
					"t_struct(Item)24_storage": {
						"encoding": "inplace",
						"label": "struct GeekNft.Item",
						"members": [
							{
								"astId": 17,
								"contract": "contracts/GeekNft.sol:GeekNft",
								"label": "tokenId",
								"offset": 0,
								"slot": "0",
								"type": "t_uint256"
							},
							{
								"astId": 19,
								"contract": "contracts/GeekNft.sol:GeekNft",
								"label": "price",
								"offset": 0,
								"slot": "1",
								"type": "t_uint256"
							},
							{
								"astId": 21,
								"contract": "contracts/GeekNft.sol:GeekNft",
								"label": "catId",
								"offset": 0,
								"slot": "2",
								"type": "t_uint256"
							},
							{
								"astId": 23,
								"contract": "contracts/GeekNft.sol:GeekNft",
								"label": "toSell",
								"offset": 0,
								"slot": "3",
								"type": "t_bool"
							}
						],
						"numberOfBytes": "128"
					},
					"t_uint256": {
						"encoding": "inplace",
						"label": "uint256",
						"numberOfBytes": "32"
					}
				}
			},
			"userdoc": {
				"kind": "user",
				"methods": {},
				"version": 1
			}
		}
	}
}