{
	"contracts/GeekNft.sol": {
		"GeekNft": {
			"abi": [
				{
					"inputs": [
						{
							"internalType": "address",
							"name": "marketplaceAddress_",
							"type": "address"
						},
						{
							"internalType": "string",
							"name": "name_",
							"type": "string"
						},
						{
							"internalType": "string",
							"name": "symbol_",
							"type": "string"
						}
					],
					"stateMutability": "nonpayable",
					"type": "constructor"
				},
				{
					"anonymous": false,
					"inputs": [
						{
							"indexed": false,
							"internalType": "uint256",
							"name": "",
							"type": "uint256"
						}
					],
					"name": "NftMinted",
					"type": "event"
				},
				{
					"anonymous": false,
					"inputs": [
						{
							"indexed": true,
							"internalType": "address",
							"name": "from",
							"type": "address"
						},
						{
							"indexed": true,
							"internalType": "address",
							"name": "to",
							"type": "address"
						},
						{
							"indexed": false,
							"internalType": "uint256",
							"name": "tokenId",
							"type": "uint256"
						}
					],
					"name": "Transfer",
					"type": "event"
				},
				{
					"inputs": [
						{
							"internalType": "string",
							"name": "_tokenUri",
							"type": "string"
						}
					],
					"name": "mint",
					"outputs": [],
					"stateMutability": "nonpayable",
					"type": "function"
				},
				{
					"inputs": [],
					"name": "name",
					"outputs": [
						{
							"internalType": "string",
							"name": "",
							"type": "string"
						}
					],
					"stateMutability": "view",
					"type": "function"
				},
				{
					"inputs": [
						{
							"internalType": "uint256",
							"name": "tokenId",
							"type": "uint256"
						}
					],
					"name": "ownerOf",
					"outputs": [
						{
							"internalType": "address",
							"name": "",
							"type": "address"
						}
					],
					"stateMutability": "nonpayable",
					"type": "function"
				},
				{
					"inputs": [],
					"name": "symbol",
					"outputs": [
						{
							"internalType": "string",
							"name": "",
							"type": "string"
						}
					],
					"stateMutability": "view",
					"type": "function"
				},
				{
					"inputs": [
						{
							"internalType": "uint256",
							"name": "",
							"type": "uint256"
						}
					],
					"name": "tokenToUri",
					"outputs": [
						{
							"internalType": "string",
							"name": "",
							"type": "string"
						}
					],
					"stateMutability": "view",
					"type": "function"
				},
				{
					"inputs": [
						{
							"internalType": "address",
							"name": "_from",
							"type": "address"
						},
						{
							"internalType": "address",
							"name": "_to",
							"type": "address"
						},
						{
							"internalType": "uint256",
							"name": "_tokenId",
							"type": "uint256"
						}
					],
					"name": "transferFrom",
					"outputs": [],
					"stateMutability": "nonpayable",
					"type": "function"
				}
			],
			"devdoc": {
				"kind": "dev",
				"methods": {},
				"version": 1
			},
			"evm": {
				"assembly": "    /* \"contracts/GeekNft.sol\":83:2562  contract GeekNft {... */\n  mstore(0x40, 0x80)\n    /* \"contracts/GeekNft.sol\":613:804  constructor(address marketplaceAddress_, string memory name_, string memory symbol_){... */\n  callvalue\n  dup1\n  iszero\n  tag_1\n  jumpi\n  0x00\n  dup1\n  revert\ntag_1:\n  pop\n  mload(0x40)\n  sub(codesize, bytecodeSize)\n  dup1\n  bytecodeSize\n  dup4\n  codecopy\n  dup2\n  dup2\n  add\n  0x40\n  mstore\n  dup2\n  add\n  swap1\n  tag_2\n  swap2\n  swap1\n  tag_3\n  jump\t// in\ntag_2:\n    /* \"contracts/GeekNft.sol\":728:747  marketplaceAddress_ */\n  dup3\n    /* \"contracts/GeekNft.sol\":707:725  marketplaceAddress */\n  0x03\n  0x00\n    /* \"contracts/GeekNft.sol\":707:747  marketplaceAddress = marketplaceAddress_ */\n  0x0100\n  exp\n  dup2\n  sload\n  dup2\n  0xffffffffffffffffffffffffffffffffffffffff\n  mul\n  not\n  and\n  swap1\n  dup4\n  0xffffffffffffffffffffffffffffffffffffffff\n  and\n  mul\n  or\n  swap1\n  sstore\n  pop\n    /* \"contracts/GeekNft.sol\":765:770  name_ */\n  dup2\n    /* \"contracts/GeekNft.sol\":757:762  _name */\n  0x00\n    /* \"contracts/GeekNft.sol\":757:770  _name = name_ */\n  swap1\n  dup1\n  mload\n  swap1\n  0x20\n  add\n  swap1\n  tag_6\n  swap3\n  swap2\n  swap1\n  tag_7\n  jump\t// in\ntag_6:\n  pop\n    /* \"contracts/GeekNft.sol\":790:797  symbol_ */\n  dup1\n    /* \"contracts/GeekNft.sol\":780:787  _symbol */\n  0x01\n    /* \"contracts/GeekNft.sol\":780:797  _symbol = symbol_ */\n  swap1\n  dup1\n  mload\n  swap1\n  0x20\n  add\n  swap1\n  tag_8\n  swap3\n  swap2\n  swap1\n  tag_7\n  jump\t// in\ntag_8:\n  pop\n    /* \"contracts/GeekNft.sol\":613:804  constructor(address marketplaceAddress_, string memory name_, string memory symbol_){... */\n  pop\n  pop\n  pop\n    /* \"contracts/GeekNft.sol\":83:2562  contract GeekNft {... */\n  jump(tag_9)\ntag_7:\n  dup3\n  dup1\n  sload\n  tag_10\n  swap1\n  tag_11\n  jump\t// in\ntag_10:\n  swap1\n  0x00\n  mstore\n  keccak256(0x00, 0x20)\n  swap1\n  0x1f\n  add\n  0x20\n  swap1\n  div\n  dup2\n  add\n  swap3\n  dup3\n  tag_13\n  jumpi\n  0x00\n  dup6\n  sstore\n  jump(tag_12)\ntag_13:\n  dup3\n  0x1f\n  lt\n  tag_14\n  jumpi\n  dup1\n  mload\n  not(0xff)\n  and\n  dup4\n  dup1\n  add\n  or\n  dup6\n  sstore\n  jump(tag_12)\ntag_14:\n  dup3\n  dup1\n  add\n  0x01\n  add\n  dup6\n  sstore\n  dup3\n  iszero\n  tag_12\n  jumpi\n  swap2\n  dup3\n  add\ntag_15:\n  dup3\n  dup2\n  gt\n  iszero\n  tag_16\n  jumpi\n  dup3\n  mload\n  dup3\n  sstore\n  swap2\n  0x20\n  add\n  swap2\n  swap1\n  0x01\n  add\n  swap1\n  jump(tag_15)\ntag_16:\ntag_12:\n  pop\n  swap1\n  pop\n  tag_17\n  swap2\n  swap1\n  tag_18\n  jump\t// in\ntag_17:\n  pop\n  swap1\n  jump\t// out\ntag_18:\ntag_19:\n  dup1\n  dup3\n  gt\n  iszero\n  tag_20\n  jumpi\n  0x00\n  dup2\n  0x00\n  swap1\n  sstore\n  pop\n  0x01\n  add\n  jump(tag_19)\ntag_20:\n  pop\n  swap1\n  jump\t// out\n    /* \"#utility.yul\":7:428   */\ntag_22:\n    /* \"#utility.yul\":96:101   */\n  0x00\n    /* \"#utility.yul\":121:187   */\n  tag_24\n    /* \"#utility.yul\":137:186   */\n  tag_25\n    /* \"#utility.yul\":179:185   */\n  dup5\n    /* \"#utility.yul\":137:186   */\n  tag_26\n  jump\t// in\ntag_25:\n    /* \"#utility.yul\":121:187   */\n  tag_27\n  jump\t// in\ntag_24:\n    /* \"#utility.yul\":112:187   */\n  swap1\n  pop\n    /* \"#utility.yul\":210:216   */\n  dup3\n    /* \"#utility.yul\":203:208   */\n  dup2\n    /* \"#utility.yul\":196:217   */\n  mstore\n    /* \"#utility.yul\":248:252   */\n  0x20\n    /* \"#utility.yul\":241:246   */\n  dup2\n    /* \"#utility.yul\":237:253   */\n  add\n    /* \"#utility.yul\":286:289   */\n  dup5\n    /* \"#utility.yul\":277:283   */\n  dup5\n    /* \"#utility.yul\":272:275   */\n  dup5\n    /* \"#utility.yul\":268:284   */\n  add\n    /* \"#utility.yul\":265:290   */\n  gt\n    /* \"#utility.yul\":262:374   */\n  iszero\n  tag_28\n  jumpi\n    /* \"#utility.yul\":293:372   */\n  tag_29\n  tag_30\n  jump\t// in\ntag_29:\n    /* \"#utility.yul\":262:374   */\ntag_28:\n    /* \"#utility.yul\":383:422   */\n  tag_31\n    /* \"#utility.yul\":415:421   */\n  dup5\n    /* \"#utility.yul\":410:413   */\n  dup3\n    /* \"#utility.yul\":405:408   */\n  dup6\n    /* \"#utility.yul\":383:422   */\n  tag_32\n  jump\t// in\ntag_31:\n    /* \"#utility.yul\":102:428   */\n  pop\n    /* \"#utility.yul\":7:428   */\n  swap4\n  swap3\n  pop\n  pop\n  pop\n  jump\t// out\n    /* \"#utility.yul\":434:577   */\ntag_33:\n    /* \"#utility.yul\":491:496   */\n  0x00\n    /* \"#utility.yul\":522:528   */\n  dup2\n    /* \"#utility.yul\":516:529   */\n  mload\n    /* \"#utility.yul\":507:529   */\n  swap1\n  pop\n    /* \"#utility.yul\":538:571   */\n  tag_35\n    /* \"#utility.yul\":565:570   */\n  dup2\n    /* \"#utility.yul\":538:571   */\n  tag_36\n  jump\t// in\ntag_35:\n    /* \"#utility.yul\":434:577   */\n  swap3\n  swap2\n  pop\n  pop\n  jump\t// out\n    /* \"#utility.yul\":597:952   */\ntag_37:\n    /* \"#utility.yul\":664:669   */\n  0x00\n    /* \"#utility.yul\":713:716   */\n  dup3\n    /* \"#utility.yul\":706:710   */\n  0x1f\n    /* \"#utility.yul\":698:704   */\n  dup4\n    /* \"#utility.yul\":694:711   */\n  add\n    /* \"#utility.yul\":690:717   */\n  slt\n    /* \"#utility.yul\":680:802   */\n  tag_39\n  jumpi\n    /* \"#utility.yul\":721:800   */\n  tag_40\n  tag_41\n  jump\t// in\ntag_40:\n    /* \"#utility.yul\":680:802   */\ntag_39:\n    /* \"#utility.yul\":831:837   */\n  dup2\n    /* \"#utility.yul\":825:838   */\n  mload\n    /* \"#utility.yul\":856:946   */\n  tag_42\n    /* \"#utility.yul\":942:945   */\n  dup5\n    /* \"#utility.yul\":934:940   */\n  dup3\n    /* \"#utility.yul\":927:931   */\n  0x20\n    /* \"#utility.yul\":919:925   */\n  dup7\n    /* \"#utility.yul\":915:932   */\n  add\n    /* \"#utility.yul\":856:946   */\n  tag_22\n  jump\t// in\ntag_42:\n    /* \"#utility.yul\":847:946   */\n  swap2\n  pop\n    /* \"#utility.yul\":670:952   */\n  pop\n    /* \"#utility.yul\":597:952   */\n  swap3\n  swap2\n  pop\n  pop\n  jump\t// out\n    /* \"#utility.yul\":958:1967   */\ntag_3:\n    /* \"#utility.yul\":1066:1072   */\n  0x00\n    /* \"#utility.yul\":1074:1080   */\n  dup1\n    /* \"#utility.yul\":1082:1088   */\n  0x00\n    /* \"#utility.yul\":1131:1133   */\n  0x60\n    /* \"#utility.yul\":1119:1128   */\n  dup5\n    /* \"#utility.yul\":1110:1117   */\n  dup7\n    /* \"#utility.yul\":1106:1129   */\n  sub\n    /* \"#utility.yul\":1102:1134   */\n  slt\n    /* \"#utility.yul\":1099:1218   */\n  iszero\n  tag_44\n  jumpi\n    /* \"#utility.yul\":1137:1216   */\n  tag_45\n  tag_46\n  jump\t// in\ntag_45:\n    /* \"#utility.yul\":1099:1218   */\ntag_44:\n    /* \"#utility.yul\":1257:1258   */\n  0x00\n    /* \"#utility.yul\":1282:1346   */\n  tag_47\n    /* \"#utility.yul\":1338:1345   */\n  dup7\n    /* \"#utility.yul\":1329:1335   */\n  dup3\n    /* \"#utility.yul\":1318:1327   */\n  dup8\n    /* \"#utility.yul\":1314:1336   */\n  add\n    /* \"#utility.yul\":1282:1346   */\n  tag_33\n  jump\t// in\ntag_47:\n    /* \"#utility.yul\":1272:1346   */\n  swap4\n  pop\n    /* \"#utility.yul\":1228:1356   */\n  pop\n    /* \"#utility.yul\":1416:1418   */\n  0x20\n    /* \"#utility.yul\":1405:1414   */\n  dup5\n    /* \"#utility.yul\":1401:1419   */\n  add\n    /* \"#utility.yul\":1395:1420   */\n  mload\n    /* \"#utility.yul\":1447:1465   */\n  0xffffffffffffffff\n    /* \"#utility.yul\":1439:1445   */\n  dup2\n    /* \"#utility.yul\":1436:1466   */\n  gt\n    /* \"#utility.yul\":1433:1550   */\n  iszero\n  tag_48\n  jumpi\n    /* \"#utility.yul\":1469:1548   */\n  tag_49\n  tag_50\n  jump\t// in\ntag_49:\n    /* \"#utility.yul\":1433:1550   */\ntag_48:\n    /* \"#utility.yul\":1574:1648   */\n  tag_51\n    /* \"#utility.yul\":1640:1647   */\n  dup7\n    /* \"#utility.yul\":1631:1637   */\n  dup3\n    /* \"#utility.yul\":1620:1629   */\n  dup8\n    /* \"#utility.yul\":1616:1638   */\n  add\n    /* \"#utility.yul\":1574:1648   */\n  tag_37\n  jump\t// in\ntag_51:\n    /* \"#utility.yul\":1564:1648   */\n  swap3\n  pop\n    /* \"#utility.yul\":1366:1658   */\n  pop\n    /* \"#utility.yul\":1718:1720   */\n  0x40\n    /* \"#utility.yul\":1707:1716   */\n  dup5\n    /* \"#utility.yul\":1703:1721   */\n  add\n    /* \"#utility.yul\":1697:1722   */\n  mload\n    /* \"#utility.yul\":1749:1767   */\n  0xffffffffffffffff\n    /* \"#utility.yul\":1741:1747   */\n  dup2\n    /* \"#utility.yul\":1738:1768   */\n  gt\n    /* \"#utility.yul\":1735:1852   */\n  iszero\n  tag_52\n  jumpi\n    /* \"#utility.yul\":1771:1850   */\n  tag_53\n  tag_50\n  jump\t// in\ntag_53:\n    /* \"#utility.yul\":1735:1852   */\ntag_52:\n    /* \"#utility.yul\":1876:1950   */\n  tag_54\n    /* \"#utility.yul\":1942:1949   */\n  dup7\n    /* \"#utility.yul\":1933:1939   */\n  dup3\n    /* \"#utility.yul\":1922:1931   */\n  dup8\n    /* \"#utility.yul\":1918:1940   */\n  add\n    /* \"#utility.yul\":1876:1950   */\n  tag_37\n  jump\t// in\ntag_54:\n    /* \"#utility.yul\":1866:1950   */\n  swap2\n  pop\n    /* \"#utility.yul\":1668:1960   */\n  pop\n    /* \"#utility.yul\":958:1967   */\n  swap3\n  pop\n  swap3\n  pop\n  swap3\n  jump\t// out\n    /* \"#utility.yul\":1973:2102   */\ntag_27:\n    /* \"#utility.yul\":2007:2013   */\n  0x00\n    /* \"#utility.yul\":2034:2054   */\n  tag_56\n  tag_57\n  jump\t// in\ntag_56:\n    /* \"#utility.yul\":2024:2054   */\n  swap1\n  pop\n    /* \"#utility.yul\":2063:2096   */\n  tag_58\n    /* \"#utility.yul\":2091:2095   */\n  dup3\n    /* \"#utility.yul\":2083:2089   */\n  dup3\n    /* \"#utility.yul\":2063:2096   */\n  tag_59\n  jump\t// in\ntag_58:\n    /* \"#utility.yul\":1973:2102   */\n  swap2\n  swap1\n  pop\n  jump\t// out\n    /* \"#utility.yul\":2108:2183   */\ntag_57:\n    /* \"#utility.yul\":2141:2147   */\n  0x00\n    /* \"#utility.yul\":2174:2176   */\n  0x40\n    /* \"#utility.yul\":2168:2177   */\n  mload\n    /* \"#utility.yul\":2158:2177   */\n  swap1\n  pop\n    /* \"#utility.yul\":2108:2183   */\n  swap1\n  jump\t// out\n    /* \"#utility.yul\":2189:2497   */\ntag_26:\n    /* \"#utility.yul\":2251:2255   */\n  0x00\n    /* \"#utility.yul\":2341:2359   */\n  0xffffffffffffffff\n    /* \"#utility.yul\":2333:2339   */\n  dup3\n    /* \"#utility.yul\":2330:2360   */\n  gt\n    /* \"#utility.yul\":2327:2383   */\n  iszero\n  tag_62\n  jumpi\n    /* \"#utility.yul\":2363:2381   */\n  tag_63\n  tag_64\n  jump\t// in\ntag_63:\n    /* \"#utility.yul\":2327:2383   */\ntag_62:\n    /* \"#utility.yul\":2401:2430   */\n  tag_65\n    /* \"#utility.yul\":2423:2429   */\n  dup3\n    /* \"#utility.yul\":2401:2430   */\n  tag_66\n  jump\t// in\ntag_65:\n    /* \"#utility.yul\":2393:2430   */\n  swap1\n  pop\n    /* \"#utility.yul\":2485:2489   */\n  0x20\n    /* \"#utility.yul\":2479:2483   */\n  dup2\n    /* \"#utility.yul\":2475:2490   */\n  add\n    /* \"#utility.yul\":2467:2490   */\n  swap1\n  pop\n    /* \"#utility.yul\":2189:2497   */\n  swap2\n  swap1\n  pop\n  jump\t// out\n    /* \"#utility.yul\":2503:2599   */\ntag_67:\n    /* \"#utility.yul\":2540:2547   */\n  0x00\n    /* \"#utility.yul\":2569:2593   */\n  tag_69\n    /* \"#utility.yul\":2587:2592   */\n  dup3\n    /* \"#utility.yul\":2569:2593   */\n  tag_70\n  jump\t// in\ntag_69:\n    /* \"#utility.yul\":2558:2593   */\n  swap1\n  pop\n    /* \"#utility.yul\":2503:2599   */\n  swap2\n  swap1\n  pop\n  jump\t// out\n    /* \"#utility.yul\":2605:2731   */\ntag_70:\n    /* \"#utility.yul\":2642:2649   */\n  0x00\n    /* \"#utility.yul\":2682:2724   */\n  0xffffffffffffffffffffffffffffffffffffffff\n    /* \"#utility.yul\":2675:2680   */\n  dup3\n    /* \"#utility.yul\":2671:2725   */\n  and\n    /* \"#utility.yul\":2660:2725   */\n  swap1\n  pop\n    /* \"#utility.yul\":2605:2731   */\n  swap2\n  swap1\n  pop\n  jump\t// out\n    /* \"#utility.yul\":2737:3044   */\ntag_32:\n    /* \"#utility.yul\":2805:2806   */\n  0x00\n    /* \"#utility.yul\":2815:2928   */\ntag_73:\n    /* \"#utility.yul\":2829:2835   */\n  dup4\n    /* \"#utility.yul\":2826:2827   */\n  dup2\n    /* \"#utility.yul\":2823:2836   */\n  lt\n    /* \"#utility.yul\":2815:2928   */\n  iszero\n  tag_75\n  jumpi\n    /* \"#utility.yul\":2914:2915   */\n  dup1\n    /* \"#utility.yul\":2909:2912   */\n  dup3\n    /* \"#utility.yul\":2905:2916   */\n  add\n    /* \"#utility.yul\":2899:2917   */\n  mload\n    /* \"#utility.yul\":2895:2896   */\n  dup2\n    /* \"#utility.yul\":2890:2893   */\n  dup5\n    /* \"#utility.yul\":2886:2897   */\n  add\n    /* \"#utility.yul\":2879:2918   */\n  mstore\n    /* \"#utility.yul\":2851:2853   */\n  0x20\n    /* \"#utility.yul\":2848:2849   */\n  dup2\n    /* \"#utility.yul\":2844:2854   */\n  add\n    /* \"#utility.yul\":2839:2854   */\n  swap1\n  pop\n    /* \"#utility.yul\":2815:2928   */\n  jump(tag_73)\ntag_75:\n    /* \"#utility.yul\":2946:2952   */\n  dup4\n    /* \"#utility.yul\":2943:2944   */\n  dup2\n    /* \"#utility.yul\":2940:2953   */\n  gt\n    /* \"#utility.yul\":2937:3038   */\n  iszero\n  tag_76\n  jumpi\n    /* \"#utility.yul\":3026:3027   */\n  0x00\n    /* \"#utility.yul\":3017:3023   */\n  dup5\n    /* \"#utility.yul\":3012:3015   */\n  dup5\n    /* \"#utility.yul\":3008:3024   */\n  add\n    /* \"#utility.yul\":3001:3028   */\n  mstore\n    /* \"#utility.yul\":2937:3038   */\ntag_76:\n    /* \"#utility.yul\":2786:3044   */\n  pop\n    /* \"#utility.yul\":2737:3044   */\n  pop\n  pop\n  pop\n  jump\t// out\n    /* \"#utility.yul\":3050:3370   */\ntag_11:\n    /* \"#utility.yul\":3094:3100   */\n  0x00\n    /* \"#utility.yul\":3131:3132   */\n  0x02\n    /* \"#utility.yul\":3125:3129   */\n  dup3\n    /* \"#utility.yul\":3121:3133   */\n  div\n    /* \"#utility.yul\":3111:3133   */\n  swap1\n  pop\n    /* \"#utility.yul\":3178:3179   */\n  0x01\n    /* \"#utility.yul\":3172:3176   */\n  dup3\n    /* \"#utility.yul\":3168:3180   */\n  and\n    /* \"#utility.yul\":3199:3217   */\n  dup1\n    /* \"#utility.yul\":3189:3270   */\n  tag_78\n  jumpi\n    /* \"#utility.yul\":3255:3259   */\n  0x7f\n    /* \"#utility.yul\":3247:3253   */\n  dup3\n    /* \"#utility.yul\":3243:3260   */\n  and\n    /* \"#utility.yul\":3233:3260   */\n  swap2\n  pop\n    /* \"#utility.yul\":3189:3270   */\ntag_78:\n    /* \"#utility.yul\":3317:3319   */\n  0x20\n    /* \"#utility.yul\":3309:3315   */\n  dup3\n    /* \"#utility.yul\":3306:3320   */\n  lt\n    /* \"#utility.yul\":3286:3304   */\n  dup2\n    /* \"#utility.yul\":3283:3321   */\n  eq\n    /* \"#utility.yul\":3280:3364   */\n  iszero\n  tag_79\n  jumpi\n    /* \"#utility.yul\":3336:3354   */\n  tag_80\n  tag_81\n  jump\t// in\ntag_80:\n    /* \"#utility.yul\":3280:3364   */\ntag_79:\n    /* \"#utility.yul\":3101:3370   */\n  pop\n    /* \"#utility.yul\":3050:3370   */\n  swap2\n  swap1\n  pop\n  jump\t// out\n    /* \"#utility.yul\":3376:3657   */\ntag_59:\n    /* \"#utility.yul\":3459:3486   */\n  tag_83\n    /* \"#utility.yul\":3481:3485   */\n  dup3\n    /* \"#utility.yul\":3459:3486   */\n  tag_66\n  jump\t// in\ntag_83:\n    /* \"#utility.yul\":3451:3457   */\n  dup2\n    /* \"#utility.yul\":3447:3487   */\n  add\n    /* \"#utility.yul\":3589:3595   */\n  dup2\n    /* \"#utility.yul\":3577:3587   */\n  dup2\n    /* \"#utility.yul\":3574:3596   */\n  lt\n    /* \"#utility.yul\":3553:3571   */\n  0xffffffffffffffff\n    /* \"#utility.yul\":3541:3551   */\n  dup3\n    /* \"#utility.yul\":3538:3572   */\n  gt\n    /* \"#utility.yul\":3535:3597   */\n  or\n    /* \"#utility.yul\":3532:3620   */\n  iszero\n  tag_84\n  jumpi\n    /* \"#utility.yul\":3600:3618   */\n  tag_85\n  tag_64\n  jump\t// in\ntag_85:\n    /* \"#utility.yul\":3532:3620   */\ntag_84:\n    /* \"#utility.yul\":3640:3650   */\n  dup1\n    /* \"#utility.yul\":3636:3638   */\n  0x40\n    /* \"#utility.yul\":3629:3651   */\n  mstore\n    /* \"#utility.yul\":3419:3657   */\n  pop\n    /* \"#utility.yul\":3376:3657   */\n  pop\n  pop\n  jump\t// out\n    /* \"#utility.yul\":3663:3843   */\ntag_81:\n    /* \"#utility.yul\":3711:3788   */\n  0x4e487b7100000000000000000000000000000000000000000000000000000000\n    /* \"#utility.yul\":3708:3709   */\n  0x00\n    /* \"#utility.yul\":3701:3789   */\n  mstore\n    /* \"#utility.yul\":3808:3812   */\n  0x22\n    /* \"#utility.yul\":3805:3806   */\n  0x04\n    /* \"#utility.yul\":3798:3813   */\n  mstore\n    /* \"#utility.yul\":3832:3836   */\n  0x24\n    /* \"#utility.yul\":3829:3830   */\n  0x00\n    /* \"#utility.yul\":3822:3837   */\n  revert\n    /* \"#utility.yul\":3849:4029   */\ntag_64:\n    /* \"#utility.yul\":3897:3974   */\n  0x4e487b7100000000000000000000000000000000000000000000000000000000\n    /* \"#utility.yul\":3894:3895   */\n  0x00\n    /* \"#utility.yul\":3887:3975   */\n  mstore\n    /* \"#utility.yul\":3994:3998   */\n  0x41\n    /* \"#utility.yul\":3991:3992   */\n  0x04\n    /* \"#utility.yul\":3984:3999   */\n  mstore\n    /* \"#utility.yul\":4018:4022   */\n  0x24\n    /* \"#utility.yul\":4015:4016   */\n  0x00\n    /* \"#utility.yul\":4008:4023   */\n  revert\n    /* \"#utility.yul\":4035:4152   */\ntag_41:\n    /* \"#utility.yul\":4144:4145   */\n  0x00\n    /* \"#utility.yul\":4141:4142   */\n  dup1\n    /* \"#utility.yul\":4134:4146   */\n  revert\n    /* \"#utility.yul\":4158:4275   */\ntag_30:\n    /* \"#utility.yul\":4267:4268   */\n  0x00\n    /* \"#utility.yul\":4264:4265   */\n  dup1\n    /* \"#utility.yul\":4257:4269   */\n  revert\n    /* \"#utility.yul\":4281:4398   */\ntag_50:\n    /* \"#utility.yul\":4390:4391   */\n  0x00\n    /* \"#utility.yul\":4387:4388   */\n  dup1\n    /* \"#utility.yul\":4380:4392   */\n  revert\n    /* \"#utility.yul\":4404:4521   */\ntag_46:\n    /* \"#utility.yul\":4513:4514   */\n  0x00\n    /* \"#utility.yul\":4510:4511   */\n  dup1\n    /* \"#utility.yul\":4503:4515   */\n  revert\n    /* \"#utility.yul\":4527:4629   */\ntag_66:\n    /* \"#utility.yul\":4568:4574   */\n  0x00\n    /* \"#utility.yul\":4619:4621   */\n  0x1f\n    /* \"#utility.yul\":4615:4622   */\n  not\n    /* \"#utility.yul\":4610:4612   */\n  0x1f\n    /* \"#utility.yul\":4603:4608   */\n  dup4\n    /* \"#utility.yul\":4599:4613   */\n  add\n    /* \"#utility.yul\":4595:4623   */\n  and\n    /* \"#utility.yul\":4585:4623   */\n  swap1\n  pop\n    /* \"#utility.yul\":4527:4629   */\n  swap2\n  swap1\n  pop\n  jump\t// out\n    /* \"#utility.yul\":4635:4757   */\ntag_36:\n    /* \"#utility.yul\":4708:4732   */\n  tag_94\n    /* \"#utility.yul\":4726:4731   */\n  dup2\n    /* \"#utility.yul\":4708:4732   */\n  tag_67\n  jump\t// in\ntag_94:\n    /* \"#utility.yul\":4701:4706   */\n  dup2\n    /* \"#utility.yul\":4698:4733   */\n  eq\n    /* \"#utility.yul\":4688:4751   */\n  tag_95\n  jumpi\n    /* \"#utility.yul\":4747:4748   */\n  0x00\n    /* \"#utility.yul\":4744:4745   */\n  dup1\n    /* \"#utility.yul\":4737:4749   */\n  revert\n    /* \"#utility.yul\":4688:4751   */\ntag_95:\n    /* \"#utility.yul\":4635:4757   */\n  pop\n  jump\t// out\n    /* \"contracts/GeekNft.sol\":83:2562  contract GeekNft {... */\ntag_9:\n  dataSize(sub_0)\n  dup1\n  dataOffset(sub_0)\n  0x00\n  codecopy\n  0x00\n  return\nstop\n\nsub_0: assembly {\n        /* \"contracts/GeekNft.sol\":83:2562  contract GeekNft {... */\n      mstore(0x40, 0x80)\n      callvalue\n      dup1\n      iszero\n      tag_1\n      jumpi\n      0x00\n      dup1\n      revert\n    tag_1:\n      pop\n      jumpi(tag_2, lt(calldatasize, 0x04))\n      shr(0xe0, calldataload(0x00))\n      dup1\n      0x06fdde03\n      eq\n      tag_3\n      jumpi\n      dup1\n      0x23b872dd\n      eq\n      tag_4\n      jumpi\n      dup1\n      0x6352211e\n      eq\n      tag_5\n      jumpi\n      dup1\n      0x95d89b41\n      eq\n      tag_6\n      jumpi\n      dup1\n      0xbf59b347\n      eq\n      tag_7\n      jumpi\n      dup1\n      0xd85d3d27\n      eq\n      tag_8\n      jumpi\n    tag_2:\n      0x00\n      dup1\n      revert\n        /* \"contracts/GeekNft.sol\":1070:1151  function name() public view returns (string memory) {... */\n    tag_3:\n      tag_9\n      tag_10\n      jump\t// in\n    tag_9:\n      mload(0x40)\n      tag_11\n      swap2\n      swap1\n      tag_12\n      jump\t// in\n    tag_11:\n      mload(0x40)\n      dup1\n      swap2\n      sub\n      swap1\n      return\n        /* \"contracts/GeekNft.sol\":1252:1677  function transferFrom(address _from, address _to, uint _tokenId) external {... */\n    tag_4:\n      tag_13\n      0x04\n      dup1\n      calldatasize\n      sub\n      dup2\n      add\n      swap1\n      tag_14\n      swap2\n      swap1\n      tag_15\n      jump\t// in\n    tag_14:\n      tag_16\n      jump\t// in\n    tag_13:\n      stop\n        /* \"contracts/GeekNft.sol\":1683:1887  function ownerOf(uint256 tokenId) external  returns (address) {... */\n    tag_5:\n      tag_17\n      0x04\n      dup1\n      calldatasize\n      sub\n      dup2\n      add\n      swap1\n      tag_18\n      swap2\n      swap1\n      tag_19\n      jump\t// in\n    tag_18:\n      tag_20\n      jump\t// in\n    tag_17:\n      mload(0x40)\n      tag_21\n      swap2\n      swap1\n      tag_22\n      jump\t// in\n    tag_21:\n      mload(0x40)\n      dup1\n      swap2\n      sub\n      swap1\n      return\n        /* \"contracts/GeekNft.sol\":1161:1246  function symbol() public view returns (string memory) {... */\n    tag_6:\n      tag_23\n      tag_24\n      jump\t// in\n    tag_23:\n      mload(0x40)\n      tag_25\n      swap2\n      swap1\n      tag_12\n      jump\t// in\n    tag_25:\n      mload(0x40)\n      dup1\n      swap2\n      sub\n      swap1\n      return\n        /* \"contracts/GeekNft.sol\":461:502  mapping(uint => string) public tokenToUri */\n    tag_7:\n      tag_26\n      0x04\n      dup1\n      calldatasize\n      sub\n      dup2\n      add\n      swap1\n      tag_27\n      swap2\n      swap1\n      tag_19\n      jump\t// in\n    tag_27:\n      tag_28\n      jump\t// in\n    tag_26:\n      mload(0x40)\n      tag_29\n      swap2\n      swap1\n      tag_12\n      jump\t// in\n    tag_29:\n      mload(0x40)\n      dup1\n      swap2\n      sub\n      swap1\n      return\n        /* \"contracts/GeekNft.sol\":810:1063  function mint(string memory _tokenUri) public {... */\n    tag_8:\n      tag_30\n      0x04\n      dup1\n      calldatasize\n      sub\n      dup2\n      add\n      swap1\n      tag_31\n      swap2\n      swap1\n      tag_32\n      jump\t// in\n    tag_31:\n      tag_33\n      jump\t// in\n    tag_30:\n      stop\n        /* \"contracts/GeekNft.sol\":1070:1151  function name() public view returns (string memory) {... */\n    tag_10:\n        /* \"contracts/GeekNft.sol\":1107:1120  string memory */\n      0x60\n        /* \"contracts/GeekNft.sol\":1139:1144  _name */\n      0x00\n        /* \"contracts/GeekNft.sol\":1132:1144  return _name */\n      dup1\n      sload\n      tag_35\n      swap1\n      tag_36\n      jump\t// in\n    tag_35:\n      dup1\n      0x1f\n      add\n      0x20\n      dup1\n      swap2\n      div\n      mul\n      0x20\n      add\n      mload(0x40)\n      swap1\n      dup2\n      add\n      0x40\n      mstore\n      dup1\n      swap3\n      swap2\n      swap1\n      dup2\n      dup2\n      mstore\n      0x20\n      add\n      dup3\n      dup1\n      sload\n      tag_37\n      swap1\n      tag_36\n      jump\t// in\n    tag_37:\n      dup1\n      iszero\n      tag_38\n      jumpi\n      dup1\n      0x1f\n      lt\n      tag_39\n      jumpi\n      0x0100\n      dup1\n      dup4\n      sload\n      div\n      mul\n      dup4\n      mstore\n      swap2\n      0x20\n      add\n      swap2\n      jump(tag_38)\n    tag_39:\n      dup3\n      add\n      swap2\n      swap1\n      0x00\n      mstore\n      keccak256(0x00, 0x20)\n      swap1\n    tag_40:\n      dup2\n      sload\n      dup2\n      mstore\n      swap1\n      0x01\n      add\n      swap1\n      0x20\n      add\n      dup1\n      dup4\n      gt\n      tag_40\n      jumpi\n      dup3\n      swap1\n      sub\n      0x1f\n      and\n      dup3\n      add\n      swap2\n    tag_38:\n      pop\n      pop\n      pop\n      pop\n      pop\n      swap1\n      pop\n        /* \"contracts/GeekNft.sol\":1070:1151  function name() public view returns (string memory) {... */\n      swap1\n      jump\t// out\n        /* \"contracts/GeekNft.sol\":1252:1677  function transferFrom(address _from, address _to, uint _tokenId) external {... */\n    tag_16:\n        /* \"contracts/GeekNft.sol\":1370:1375  _from */\n      dup3\n        /* \"contracts/GeekNft.sol\":1344:1375  tokenToOwner[_tokenId] == _from */\n      0xffffffffffffffffffffffffffffffffffffffff\n      and\n        /* \"contracts/GeekNft.sol\":1344:1356  tokenToOwner */\n      0x05\n        /* \"contracts/GeekNft.sol\":1344:1366  tokenToOwner[_tokenId] */\n      0x00\n        /* \"contracts/GeekNft.sol\":1357:1365  _tokenId */\n      dup4\n        /* \"contracts/GeekNft.sol\":1344:1366  tokenToOwner[_tokenId] */\n      dup2\n      mstore\n      0x20\n      add\n      swap1\n      dup2\n      mstore\n      0x20\n      add\n      0x00\n      keccak256\n      0x00\n      swap1\n      sload\n      swap1\n      0x0100\n      exp\n      swap1\n      div\n      0xffffffffffffffffffffffffffffffffffffffff\n      and\n        /* \"contracts/GeekNft.sol\":1344:1375  tokenToOwner[_tokenId] == _from */\n      0xffffffffffffffffffffffffffffffffffffffff\n      and\n      eq\n        /* \"contracts/GeekNft.sol\":1336:1403  require(tokenToOwner[_tokenId] == _from, \"Not called by the owner\") */\n      tag_42\n      jumpi\n      mload(0x40)\n      0x08c379a000000000000000000000000000000000000000000000000000000000\n      dup2\n      mstore\n      0x04\n      add\n      tag_43\n      swap1\n      tag_44\n      jump\t// in\n    tag_43:\n      mload(0x40)\n      dup1\n      swap2\n      sub\n      swap1\n      revert\n    tag_42:\n        /* \"contracts/GeekNft.sol\":1436:1437  0 */\n      0x00\n        /* \"contracts/GeekNft.sol\":1421:1438  _to != address(0) */\n      0xffffffffffffffffffffffffffffffffffffffff\n      and\n        /* \"contracts/GeekNft.sol\":1421:1424  _to */\n      dup3\n        /* \"contracts/GeekNft.sol\":1421:1438  _to != address(0) */\n      0xffffffffffffffffffffffffffffffffffffffff\n      and\n      eq\n      iszero\n        /* \"contracts/GeekNft.sol\":1413:1479  require(_to != address(0), \"ERC721: transfer to the zero address\") */\n      tag_45\n      jumpi\n      mload(0x40)\n      0x08c379a000000000000000000000000000000000000000000000000000000000\n      dup2\n      mstore\n      0x04\n      add\n      tag_46\n      swap1\n      tag_47\n      jump\t// in\n    tag_46:\n      mload(0x40)\n      dup1\n      swap2\n      sub\n      swap1\n      revert\n    tag_45:\n        /* \"contracts/GeekNft.sol\":1513:1529  tokensOwnerCount */\n      0x04\n        /* \"contracts/GeekNft.sol\":1513:1536  tokensOwnerCount[_from] */\n      0x00\n        /* \"contracts/GeekNft.sol\":1530:1535  _from */\n      dup5\n        /* \"contracts/GeekNft.sol\":1513:1536  tokensOwnerCount[_from] */\n      0xffffffffffffffffffffffffffffffffffffffff\n      and\n      0xffffffffffffffffffffffffffffffffffffffff\n      and\n      dup2\n      mstore\n      0x20\n      add\n      swap1\n      dup2\n      mstore\n      0x20\n      add\n      0x00\n      keccak256\n      0x00\n        /* \"contracts/GeekNft.sol\":1513:1538  tokensOwnerCount[_from]-- */\n      dup2\n      sload\n      dup1\n      swap3\n      swap2\n      swap1\n      0x01\n      swap1\n      sub\n      swap2\n      swap1\n      pop\n      sstore\n      pop\n        /* \"contracts/GeekNft.sol\":1552:1568  tokensOwnerCount */\n      0x04\n        /* \"contracts/GeekNft.sol\":1552:1573  tokensOwnerCount[_to] */\n      0x00\n        /* \"contracts/GeekNft.sol\":1569:1572  _to */\n      dup4\n        /* \"contracts/GeekNft.sol\":1552:1573  tokensOwnerCount[_to] */\n      0xffffffffffffffffffffffffffffffffffffffff\n      and\n      0xffffffffffffffffffffffffffffffffffffffff\n      and\n      dup2\n      mstore\n      0x20\n      add\n      swap1\n      dup2\n      mstore\n      0x20\n      add\n      0x00\n      keccak256\n      0x00\n        /* \"contracts/GeekNft.sol\":1552:1575  tokensOwnerCount[_to]++ */\n      dup2\n      sload\n      dup1\n      swap3\n      swap2\n      swap1\n      0x01\n      add\n      swap2\n      swap1\n      pop\n      sstore\n      pop\n        /* \"contracts/GeekNft.sol\":1621:1624  _to */\n      dup2\n        /* \"contracts/GeekNft.sol\":1596:1608  tokenToOwner */\n      0x05\n        /* \"contracts/GeekNft.sol\":1596:1618  tokenToOwner[_tokenId] */\n      0x00\n        /* \"contracts/GeekNft.sol\":1609:1617  _tokenId */\n      dup4\n        /* \"contracts/GeekNft.sol\":1596:1618  tokenToOwner[_tokenId] */\n      dup2\n      mstore\n      0x20\n      add\n      swap1\n      dup2\n      mstore\n      0x20\n      add\n      0x00\n      keccak256\n      0x00\n        /* \"contracts/GeekNft.sol\":1596:1624  tokenToOwner[_tokenId] = _to */\n      0x0100\n      exp\n      dup2\n      sload\n      dup2\n      0xffffffffffffffffffffffffffffffffffffffff\n      mul\n      not\n      and\n      swap1\n      dup4\n      0xffffffffffffffffffffffffffffffffffffffff\n      and\n      mul\n      or\n      swap1\n      sstore\n      pop\n        /* \"contracts/GeekNft.sol\":1656:1659  _to */\n      dup2\n        /* \"contracts/GeekNft.sol\":1640:1670  Transfer(_from, _to, _tokenId) */\n      0xffffffffffffffffffffffffffffffffffffffff\n      and\n        /* \"contracts/GeekNft.sol\":1649:1654  _from */\n      dup4\n        /* \"contracts/GeekNft.sol\":1640:1670  Transfer(_from, _to, _tokenId) */\n      0xffffffffffffffffffffffffffffffffffffffff\n      and\n      0xddf252ad1be2c89b69c2b068fc378daa952ba7f163c4a11628f55a4df523b3ef\n        /* \"contracts/GeekNft.sol\":1661:1669  _tokenId */\n      dup4\n        /* \"contracts/GeekNft.sol\":1640:1670  Transfer(_from, _to, _tokenId) */\n      mload(0x40)\n      tag_48\n      swap2\n      swap1\n      tag_49\n      jump\t// in\n    tag_48:\n      mload(0x40)\n      dup1\n      swap2\n      sub\n      swap1\n      log3\n        /* \"contracts/GeekNft.sol\":1252:1677  function transferFrom(address _from, address _to, uint _tokenId) external {... */\n      pop\n      pop\n      pop\n      jump\t// out\n        /* \"contracts/GeekNft.sol\":1683:1887  function ownerOf(uint256 tokenId) external  returns (address) {... */\n    tag_20:\n        /* \"contracts/GeekNft.sol\":1736:1743  address */\n      0x00\n        /* \"contracts/GeekNft.sol\":1755:1768  address owner */\n      dup1\n        /* \"contracts/GeekNft.sol\":1771:1783  tokenToOwner */\n      0x05\n        /* \"contracts/GeekNft.sol\":1771:1792  tokenToOwner[tokenId] */\n      0x00\n        /* \"contracts/GeekNft.sol\":1784:1791  tokenId */\n      dup5\n        /* \"contracts/GeekNft.sol\":1771:1792  tokenToOwner[tokenId] */\n      dup2\n      mstore\n      0x20\n      add\n      swap1\n      dup2\n      mstore\n      0x20\n      add\n      0x00\n      keccak256\n      0x00\n      swap1\n      sload\n      swap1\n      0x0100\n      exp\n      swap1\n      div\n      0xffffffffffffffffffffffffffffffffffffffff\n      and\n        /* \"contracts/GeekNft.sol\":1755:1792  address owner = tokenToOwner[tokenId] */\n      swap1\n      pop\n        /* \"contracts/GeekNft.sol\":1827:1828  0 */\n      0x00\n        /* \"contracts/GeekNft.sol\":1810:1829  owner != address(0) */\n      0xffffffffffffffffffffffffffffffffffffffff\n      and\n        /* \"contracts/GeekNft.sol\":1810:1815  owner */\n      dup2\n        /* \"contracts/GeekNft.sol\":1810:1829  owner != address(0) */\n      0xffffffffffffffffffffffffffffffffffffffff\n      and\n      eq\n      iszero\n        /* \"contracts/GeekNft.sol\":1802:1858  require(owner != address(0), \"ERC721: invalid token ID\") */\n      tag_51\n      jumpi\n      mload(0x40)\n      0x08c379a000000000000000000000000000000000000000000000000000000000\n      dup2\n      mstore\n      0x04\n      add\n      tag_52\n      swap1\n      tag_53\n      jump\t// in\n    tag_52:\n      mload(0x40)\n      dup1\n      swap2\n      sub\n      swap1\n      revert\n    tag_51:\n        /* \"contracts/GeekNft.sol\":1875:1880  owner */\n      dup1\n        /* \"contracts/GeekNft.sol\":1868:1880  return owner */\n      swap2\n      pop\n      pop\n        /* \"contracts/GeekNft.sol\":1683:1887  function ownerOf(uint256 tokenId) external  returns (address) {... */\n      swap2\n      swap1\n      pop\n      jump\t// out\n        /* \"contracts/GeekNft.sol\":1161:1246  function symbol() public view returns (string memory) {... */\n    tag_24:\n        /* \"contracts/GeekNft.sol\":1200:1213  string memory */\n      0x60\n        /* \"contracts/GeekNft.sol\":1232:1239  _symbol */\n      0x01\n        /* \"contracts/GeekNft.sol\":1225:1239  return _symbol */\n      dup1\n      sload\n      tag_55\n      swap1\n      tag_36\n      jump\t// in\n    tag_55:\n      dup1\n      0x1f\n      add\n      0x20\n      dup1\n      swap2\n      div\n      mul\n      0x20\n      add\n      mload(0x40)\n      swap1\n      dup2\n      add\n      0x40\n      mstore\n      dup1\n      swap3\n      swap2\n      swap1\n      dup2\n      dup2\n      mstore\n      0x20\n      add\n      dup3\n      dup1\n      sload\n      tag_56\n      swap1\n      tag_36\n      jump\t// in\n    tag_56:\n      dup1\n      iszero\n      tag_57\n      jumpi\n      dup1\n      0x1f\n      lt\n      tag_58\n      jumpi\n      0x0100\n      dup1\n      dup4\n      sload\n      div\n      mul\n      dup4\n      mstore\n      swap2\n      0x20\n      add\n      swap2\n      jump(tag_57)\n    tag_58:\n      dup3\n      add\n      swap2\n      swap1\n      0x00\n      mstore\n      keccak256(0x00, 0x20)\n      swap1\n    tag_59:\n      dup2\n      sload\n      dup2\n      mstore\n      swap1\n      0x01\n      add\n      swap1\n      0x20\n      add\n      dup1\n      dup4\n      gt\n      tag_59\n      jumpi\n      dup3\n      swap1\n      sub\n      0x1f\n      and\n      dup3\n      add\n      swap2\n    tag_57:\n      pop\n      pop\n      pop\n      pop\n      pop\n      swap1\n      pop\n        /* \"contracts/GeekNft.sol\":1161:1246  function symbol() public view returns (string memory) {... */\n      swap1\n      jump\t// out\n        /* \"contracts/GeekNft.sol\":461:502  mapping(uint => string) public tokenToUri */\n    tag_28:\n      mstore(0x20, 0x08)\n      dup1\n      0x00\n      mstore\n      keccak256(0x00, 0x40)\n      0x00\n      swap2\n      pop\n      swap1\n      pop\n      dup1\n      sload\n      tag_60\n      swap1\n      tag_36\n      jump\t// in\n    tag_60:\n      dup1\n      0x1f\n      add\n      0x20\n      dup1\n      swap2\n      div\n      mul\n      0x20\n      add\n      mload(0x40)\n      swap1\n      dup2\n      add\n      0x40\n      mstore\n      dup1\n      swap3\n      swap2\n      swap1\n      dup2\n      dup2\n      mstore\n      0x20\n      add\n      dup3\n      dup1\n      sload\n      tag_61\n      swap1\n      tag_36\n      jump\t// in\n    tag_61:\n      dup1\n      iszero\n      tag_62\n      jumpi\n      dup1\n      0x1f\n      lt\n      tag_63\n      jumpi\n      0x0100\n      dup1\n      dup4\n      sload\n      div\n      mul\n      dup4\n      mstore\n      swap2\n      0x20\n      add\n      swap2\n      jump(tag_62)\n    tag_63:\n      dup3\n      add\n      swap2\n      swap1\n      0x00\n      mstore\n      keccak256(0x00, 0x20)\n      swap1\n    tag_64:\n      dup2\n      sload\n      dup2\n      mstore\n      swap1\n      0x01\n      add\n      swap1\n      0x20\n      add\n      dup1\n      dup4\n      gt\n      tag_64\n      jumpi\n      dup3\n      swap1\n      sub\n      0x1f\n      and\n      dup3\n      add\n      swap2\n    tag_62:\n      pop\n      pop\n      pop\n      pop\n      pop\n      dup2\n      jump\t// out\n        /* \"contracts/GeekNft.sol\":810:1063  function mint(string memory _tokenUri) public {... */\n    tag_33:\n        /* \"contracts/GeekNft.sol\":866:886  tokenIds.increment() */\n      tag_66\n        /* \"contracts/GeekNft.sol\":866:874  tokenIds */\n      0x02\n        /* \"contracts/GeekNft.sol\":866:884  tokenIds.increment */\n      tag_67\n        /* \"contracts/GeekNft.sol\":866:886  tokenIds.increment() */\n      jump\t// in\n    tag_66:\n        /* \"contracts/GeekNft.sol\":896:911  uint newTokenId */\n      0x00\n        /* \"contracts/GeekNft.sol\":914:932  tokenIds.current() */\n      tag_68\n        /* \"contracts/GeekNft.sol\":914:922  tokenIds */\n      0x02\n        /* \"contracts/GeekNft.sol\":914:930  tokenIds.current */\n      tag_69\n        /* \"contracts/GeekNft.sol\":914:932  tokenIds.current() */\n      jump\t// in\n    tag_68:\n        /* \"contracts/GeekNft.sol\":896:932  uint newTokenId = tokenIds.current() */\n      swap1\n      pop\n        /* \"contracts/GeekNft.sol\":942:975  _safeMint(msg.sender, newTokenId) */\n      tag_70\n        /* \"contracts/GeekNft.sol\":952:962  msg.sender */\n      caller\n        /* \"contracts/GeekNft.sol\":964:974  newTokenId */\n      dup3\n        /* \"contracts/GeekNft.sol\":942:951  _safeMint */\n      tag_71\n        /* \"contracts/GeekNft.sol\":942:975  _safeMint(msg.sender, newTokenId) */\n      jump\t// in\n    tag_70:\n        /* \"contracts/GeekNft.sol\":985:1020  _setTokenUri(newTokenId, _tokenUri) */\n      tag_72\n        /* \"contracts/GeekNft.sol\":998:1008  newTokenId */\n      dup2\n        /* \"contracts/GeekNft.sol\":1010:1019  _tokenUri */\n      dup4\n        /* \"contracts/GeekNft.sol\":985:997  _setTokenUri */\n      tag_73\n        /* \"contracts/GeekNft.sol\":985:1020  _setTokenUri(newTokenId, _tokenUri) */\n      jump\t// in\n    tag_72:\n        /* \"contracts/GeekNft.sol\":1035:1056  NftMinted(newTokenId) */\n      0x7f8949b6eca2b14d0feb1af0844a112998e467a4f88b8683301f3a6e409f32ae\n        /* \"contracts/GeekNft.sol\":1045:1055  newTokenId */\n      dup2\n        /* \"contracts/GeekNft.sol\":1035:1056  NftMinted(newTokenId) */\n      mload(0x40)\n      tag_74\n      swap2\n      swap1\n      tag_49\n      jump\t// in\n    tag_74:\n      mload(0x40)\n      dup1\n      swap2\n      sub\n      swap1\n      log1\n        /* \"contracts/GeekNft.sol\":856:1063  {... */\n      pop\n        /* \"contracts/GeekNft.sol\":810:1063  function mint(string memory _tokenUri) public {... */\n      pop\n      jump\t// out\n        /* \"contracts/Counters.sol\":945:1068  function increment(Counter storage counter) internal {... */\n    tag_67:\n        /* \"contracts/Counters.sol\":1050:1051  1 */\n      0x01\n        /* \"contracts/Counters.sol\":1032:1039  counter */\n      dup2\n        /* \"contracts/Counters.sol\":1032:1046  counter._value */\n      0x00\n      add\n      0x00\n        /* \"contracts/Counters.sol\":1032:1051  counter._value += 1 */\n      dup3\n      dup3\n      sload\n      add\n      swap3\n      pop\n      pop\n      dup2\n      swap1\n      sstore\n      pop\n        /* \"contracts/Counters.sol\":945:1068  function increment(Counter storage counter) internal {... */\n      pop\n      jump\t// out\n        /* \"contracts/Counters.sol\":827:939  function current(Counter storage counter) internal view returns (uint256) {... */\n    tag_69:\n        /* \"contracts/Counters.sol\":892:899  uint256 */\n      0x00\n        /* \"contracts/Counters.sol\":918:925  counter */\n      dup2\n        /* \"contracts/Counters.sol\":918:932  counter._value */\n      0x00\n      add\n      sload\n        /* \"contracts/Counters.sol\":911:932  return counter._value */\n      swap1\n      pop\n        /* \"contracts/Counters.sol\":827:939  function current(Counter storage counter) internal view returns (uint256) {... */\n      swap2\n      swap1\n      pop\n      jump\t// out\n        /* \"contracts/GeekNft.sol\":1913:2354  function _safeMint(address _to, uint _tokenId) private{... */\n    tag_71:\n        /* \"contracts/GeekNft.sol\":2021:2022  0 */\n      0x00\n        /* \"contracts/GeekNft.sol\":1985:2023  tokenToCreator[_tokenId] == address(0) */\n      0xffffffffffffffffffffffffffffffffffffffff\n      and\n        /* \"contracts/GeekNft.sol\":1985:1999  tokenToCreator */\n      0x07\n        /* \"contracts/GeekNft.sol\":1985:2009  tokenToCreator[_tokenId] */\n      0x00\n        /* \"contracts/GeekNft.sol\":2000:2008  _tokenId */\n      dup4\n        /* \"contracts/GeekNft.sol\":1985:2009  tokenToCreator[_tokenId] */\n      dup2\n      mstore\n      0x20\n      add\n      swap1\n      dup2\n      mstore\n      0x20\n      add\n      0x00\n      keccak256\n      0x00\n      swap1\n      sload\n      swap1\n      0x0100\n      exp\n      swap1\n      div\n      0xffffffffffffffffffffffffffffffffffffffff\n      and\n        /* \"contracts/GeekNft.sol\":1985:2023  tokenToCreator[_tokenId] == address(0) */\n      0xffffffffffffffffffffffffffffffffffffffff\n      and\n      eq\n        /* \"contracts/GeekNft.sol\":1977:2047  require(tokenToCreator[_tokenId] == address(0), \"token already exist\") */\n      tag_78\n      jumpi\n      mload(0x40)\n      0x08c379a000000000000000000000000000000000000000000000000000000000\n      dup2\n      mstore\n      0x04\n      add\n      tag_79\n      swap1\n      tag_80\n      jump\t// in\n    tag_79:\n      mload(0x40)\n      dup1\n      swap2\n      sub\n      swap1\n      revert\n    tag_78:\n        /* \"contracts/GeekNft.sol\":2080:2081  0 */\n      0x00\n        /* \"contracts/GeekNft.sol\":2065:2082  _to != address(0) */\n      0xffffffffffffffffffffffffffffffffffffffff\n      and\n        /* \"contracts/GeekNft.sol\":2065:2068  _to */\n      dup3\n        /* \"contracts/GeekNft.sol\":2065:2082  _to != address(0) */\n      0xffffffffffffffffffffffffffffffffffffffff\n      and\n      eq\n      iszero\n        /* \"contracts/GeekNft.sol\":2057:2111  require(_to != address(0), \"mint to the zero address\") */\n      tag_81\n      jumpi\n      mload(0x40)\n      0x08c379a000000000000000000000000000000000000000000000000000000000\n      dup2\n      mstore\n      0x04\n      add\n      tag_82\n      swap1\n      tag_83\n      jump\t// in\n    tag_82:\n      mload(0x40)\n      dup1\n      swap2\n      sub\n      swap1\n      revert\n    tag_81:\n        /* \"contracts/GeekNft.sol\":2145:2161  tokensOwnerCount */\n      0x04\n        /* \"contracts/GeekNft.sol\":2145:2166  tokensOwnerCount[_to] */\n      0x00\n        /* \"contracts/GeekNft.sol\":2162:2165  _to */\n      dup4\n        /* \"contracts/GeekNft.sol\":2145:2166  tokensOwnerCount[_to] */\n      0xffffffffffffffffffffffffffffffffffffffff\n      and\n      0xffffffffffffffffffffffffffffffffffffffff\n      and\n      dup2\n      mstore\n      0x20\n      add\n      swap1\n      dup2\n      mstore\n      0x20\n      add\n      0x00\n      keccak256\n      0x00\n        /* \"contracts/GeekNft.sol\":2145:2168  tokensOwnerCount[_to]++ */\n      dup2\n      sload\n      dup1\n      swap3\n      swap2\n      swap1\n      0x01\n      add\n      swap2\n      swap1\n      pop\n      sstore\n      pop\n        /* \"contracts/GeekNft.sol\":2182:2200  tokensCreatorCount */\n      0x06\n        /* \"contracts/GeekNft.sol\":2182:2205  tokensCreatorCount[_to] */\n      0x00\n        /* \"contracts/GeekNft.sol\":2201:2204  _to */\n      dup4\n        /* \"contracts/GeekNft.sol\":2182:2205  tokensCreatorCount[_to] */\n      0xffffffffffffffffffffffffffffffffffffffff\n      and\n      0xffffffffffffffffffffffffffffffffffffffff\n      and\n      dup2\n      mstore\n      0x20\n      add\n      swap1\n      dup2\n      mstore\n      0x20\n      add\n      0x00\n      keccak256\n      0x00\n        /* \"contracts/GeekNft.sol\":2182:2207  tokensCreatorCount[_to]++ */\n      dup2\n      sload\n      dup1\n      swap3\n      swap2\n      swap1\n      0x01\n      add\n      swap2\n      swap1\n      pop\n      sstore\n      pop\n        /* \"contracts/GeekNft.sol\":2253:2256  _to */\n      dup2\n        /* \"contracts/GeekNft.sol\":2228:2240  tokenToOwner */\n      0x05\n        /* \"contracts/GeekNft.sol\":2228:2250  tokenToOwner[_tokenId] */\n      0x00\n        /* \"contracts/GeekNft.sol\":2241:2249  _tokenId */\n      dup4\n        /* \"contracts/GeekNft.sol\":2228:2250  tokenToOwner[_tokenId] */\n      dup2\n      mstore\n      0x20\n      add\n      swap1\n      dup2\n      mstore\n      0x20\n      add\n      0x00\n      keccak256\n      0x00\n        /* \"contracts/GeekNft.sol\":2228:2256  tokenToOwner[_tokenId] = _to */\n      0x0100\n      exp\n      dup2\n      sload\n      dup2\n      0xffffffffffffffffffffffffffffffffffffffff\n      mul\n      not\n      and\n      swap1\n      dup4\n      0xffffffffffffffffffffffffffffffffffffffff\n      and\n      mul\n      or\n      swap1\n      sstore\n      pop\n        /* \"contracts/GeekNft.sol\":2293:2296  _to */\n      dup2\n        /* \"contracts/GeekNft.sol\":2266:2280  tokenToCreator */\n      0x07\n        /* \"contracts/GeekNft.sol\":2266:2290  tokenToCreator[_tokenId] */\n      0x00\n        /* \"contracts/GeekNft.sol\":2281:2289  _tokenId */\n      dup4\n        /* \"contracts/GeekNft.sol\":2266:2290  tokenToCreator[_tokenId] */\n      dup2\n      mstore\n      0x20\n      add\n      swap1\n      dup2\n      mstore\n      0x20\n      add\n      0x00\n      keccak256\n      0x00\n        /* \"contracts/GeekNft.sol\":2266:2296  tokenToCreator[_tokenId] = _to */\n      0x0100\n      exp\n      dup2\n      sload\n      dup2\n      0xffffffffffffffffffffffffffffffffffffffff\n      mul\n      not\n      and\n      swap1\n      dup4\n      0xffffffffffffffffffffffffffffffffffffffff\n      and\n      mul\n      or\n      swap1\n      sstore\n      pop\n        /* \"contracts/GeekNft.sol\":2333:2336  _to */\n      dup2\n        /* \"contracts/GeekNft.sol\":2312:2347  Transfer(address(0), _to, _tokenId) */\n      0xffffffffffffffffffffffffffffffffffffffff\n      and\n        /* \"contracts/GeekNft.sol\":2329:2330  0 */\n      0x00\n        /* \"contracts/GeekNft.sol\":2312:2347  Transfer(address(0), _to, _tokenId) */\n      0xffffffffffffffffffffffffffffffffffffffff\n      and\n      0xddf252ad1be2c89b69c2b068fc378daa952ba7f163c4a11628f55a4df523b3ef\n        /* \"contracts/GeekNft.sol\":2338:2346  _tokenId */\n      dup4\n        /* \"contracts/GeekNft.sol\":2312:2347  Transfer(address(0), _to, _tokenId) */\n      mload(0x40)\n      tag_84\n      swap2\n      swap1\n      tag_49\n      jump\t// in\n    tag_84:\n      mload(0x40)\n      dup1\n      swap2\n      sub\n      swap1\n      log3\n        /* \"contracts/GeekNft.sol\":1913:2354  function _safeMint(address _to, uint _tokenId) private{... */\n      pop\n      pop\n      jump\t// out\n        /* \"contracts/GeekNft.sol\":2360:2559  function _setTokenUri(uint _tokenId, string memory _tokenUri) private {... */\n    tag_73:\n        /* \"contracts/GeekNft.sol\":2484:2485  0 */\n      0x00\n        /* \"contracts/GeekNft.sol\":2448:2486  tokenToCreator[_tokenId] != address(0) */\n      0xffffffffffffffffffffffffffffffffffffffff\n      and\n        /* \"contracts/GeekNft.sol\":2448:2462  tokenToCreator */\n      0x07\n        /* \"contracts/GeekNft.sol\":2448:2472  tokenToCreator[_tokenId] */\n      0x00\n        /* \"contracts/GeekNft.sol\":2463:2471  _tokenId */\n      dup5\n        /* \"contracts/GeekNft.sol\":2448:2472  tokenToCreator[_tokenId] */\n      dup2\n      mstore\n      0x20\n      add\n      swap1\n      dup2\n      mstore\n      0x20\n      add\n      0x00\n      keccak256\n      0x00\n      swap1\n      sload\n      swap1\n      0x0100\n      exp\n      swap1\n      div\n      0xffffffffffffffffffffffffffffffffffffffff\n      and\n        /* \"contracts/GeekNft.sol\":2448:2486  tokenToCreator[_tokenId] != address(0) */\n      0xffffffffffffffffffffffffffffffffffffffff\n      and\n      eq\n      iszero\n        /* \"contracts/GeekNft.sol\":2440:2510  require(tokenToCreator[_tokenId] != address(0), \"token doesn't exist\") */\n      tag_86\n      jumpi\n      mload(0x40)\n      0x08c379a000000000000000000000000000000000000000000000000000000000\n      dup2\n      mstore\n      0x04\n      add\n      tag_87\n      swap1\n      tag_88\n      jump\t// in\n    tag_87:\n      mload(0x40)\n      dup1\n      swap2\n      sub\n      swap1\n      revert\n    tag_86:\n        /* \"contracts/GeekNft.sol\":2543:2552  _tokenUri */\n      dup1\n        /* \"contracts/GeekNft.sol\":2520:2530  tokenToUri */\n      0x08\n        /* \"contracts/GeekNft.sol\":2520:2540  tokenToUri[_tokenId] */\n      0x00\n        /* \"contracts/GeekNft.sol\":2531:2539  _tokenId */\n      dup5\n        /* \"contracts/GeekNft.sol\":2520:2540  tokenToUri[_tokenId] */\n      dup2\n      mstore\n      0x20\n      add\n      swap1\n      dup2\n      mstore\n      0x20\n      add\n      0x00\n      keccak256\n        /* \"contracts/GeekNft.sol\":2520:2552  tokenToUri[_tokenId] = _tokenUri */\n      swap1\n      dup1\n      mload\n      swap1\n      0x20\n      add\n      swap1\n      tag_89\n      swap3\n      swap2\n      swap1\n      tag_90\n      jump\t// in\n    tag_89:\n      pop\n        /* \"contracts/GeekNft.sol\":2360:2559  function _setTokenUri(uint _tokenId, string memory _tokenUri) private {... */\n      pop\n      pop\n      jump\t// out\n    tag_90:\n      dup3\n      dup1\n      sload\n      tag_91\n      swap1\n      tag_36\n      jump\t// in\n    tag_91:\n      swap1\n      0x00\n      mstore\n      keccak256(0x00, 0x20)\n      swap1\n      0x1f\n      add\n      0x20\n      swap1\n      div\n      dup2\n      add\n      swap3\n      dup3\n      tag_93\n      jumpi\n      0x00\n      dup6\n      sstore\n      jump(tag_92)\n    tag_93:\n      dup3\n      0x1f\n      lt\n      tag_94\n      jumpi\n      dup1\n      mload\n      not(0xff)\n      and\n      dup4\n      dup1\n      add\n      or\n      dup6\n      sstore\n      jump(tag_92)\n    tag_94:\n      dup3\n      dup1\n      add\n      0x01\n      add\n      dup6\n      sstore\n      dup3\n      iszero\n      tag_92\n      jumpi\n      swap2\n      dup3\n      add\n    tag_95:\n      dup3\n      dup2\n      gt\n      iszero\n      tag_96\n      jumpi\n      dup3\n      mload\n      dup3\n      sstore\n      swap2\n      0x20\n      add\n      swap2\n      swap1\n      0x01\n      add\n      swap1\n      jump(tag_95)\n    tag_96:\n    tag_92:\n      pop\n      swap1\n      pop\n      tag_97\n      swap2\n      swap1\n      tag_98\n      jump\t// in\n    tag_97:\n      pop\n      swap1\n      jump\t// out\n    tag_98:\n    tag_99:\n      dup1\n      dup3\n      gt\n      iszero\n      tag_100\n      jumpi\n      0x00\n      dup2\n      0x00\n      swap1\n      sstore\n      pop\n      0x01\n      add\n      jump(tag_99)\n    tag_100:\n      pop\n      swap1\n      jump\t// out\n        /* \"#utility.yul\":7:419   */\n    tag_102:\n        /* \"#utility.yul\":85:90   */\n      0x00\n        /* \"#utility.yul\":110:176   */\n      tag_104\n        /* \"#utility.yul\":126:175   */\n      tag_105\n        /* \"#utility.yul\":168:174   */\n      dup5\n        /* \"#utility.yul\":126:175   */\n      tag_106\n      jump\t// in\n    tag_105:\n        /* \"#utility.yul\":110:176   */\n      tag_107\n      jump\t// in\n    tag_104:\n        /* \"#utility.yul\":101:176   */\n      swap1\n      pop\n        /* \"#utility.yul\":199:205   */\n      dup3\n        /* \"#utility.yul\":192:197   */\n      dup2\n        /* \"#utility.yul\":185:206   */\n      mstore\n        /* \"#utility.yul\":237:241   */\n      0x20\n        /* \"#utility.yul\":230:235   */\n      dup2\n        /* \"#utility.yul\":226:242   */\n      add\n        /* \"#utility.yul\":275:278   */\n      dup5\n        /* \"#utility.yul\":266:272   */\n      dup5\n        /* \"#utility.yul\":261:264   */\n      dup5\n        /* \"#utility.yul\":257:273   */\n      add\n        /* \"#utility.yul\":254:279   */\n      gt\n        /* \"#utility.yul\":251:363   */\n      iszero\n      tag_108\n      jumpi\n        /* \"#utility.yul\":282:361   */\n      tag_109\n      tag_110\n      jump\t// in\n    tag_109:\n        /* \"#utility.yul\":251:363   */\n    tag_108:\n        /* \"#utility.yul\":372:413   */\n      tag_111\n        /* \"#utility.yul\":406:412   */\n      dup5\n        /* \"#utility.yul\":401:404   */\n      dup3\n        /* \"#utility.yul\":396:399   */\n      dup6\n        /* \"#utility.yul\":372:413   */\n      tag_112\n      jump\t// in\n    tag_111:\n        /* \"#utility.yul\":91:419   */\n      pop\n        /* \"#utility.yul\":7:419   */\n      swap4\n      swap3\n      pop\n      pop\n      pop\n      jump\t// out\n        /* \"#utility.yul\":425:564   */\n    tag_113:\n        /* \"#utility.yul\":471:476   */\n      0x00\n        /* \"#utility.yul\":509:515   */\n      dup2\n        /* \"#utility.yul\":496:516   */\n      calldataload\n        /* \"#utility.yul\":487:516   */\n      swap1\n      pop\n        /* \"#utility.yul\":525:558   */\n      tag_115\n        /* \"#utility.yul\":552:557   */\n      dup2\n        /* \"#utility.yul\":525:558   */\n      tag_116\n      jump\t// in\n    tag_115:\n        /* \"#utility.yul\":425:564   */\n      swap3\n      swap2\n      pop\n      pop\n      jump\t// out\n        /* \"#utility.yul\":584:924   */\n    tag_117:\n        /* \"#utility.yul\":640:645   */\n      0x00\n        /* \"#utility.yul\":689:692   */\n      dup3\n        /* \"#utility.yul\":682:686   */\n      0x1f\n        /* \"#utility.yul\":674:680   */\n      dup4\n        /* \"#utility.yul\":670:687   */\n      add\n        /* \"#utility.yul\":666:693   */\n      slt\n        /* \"#utility.yul\":656:778   */\n      tag_119\n      jumpi\n        /* \"#utility.yul\":697:776   */\n      tag_120\n      tag_121\n      jump\t// in\n    tag_120:\n        /* \"#utility.yul\":656:778   */\n    tag_119:\n        /* \"#utility.yul\":814:820   */\n      dup2\n        /* \"#utility.yul\":801:821   */\n      calldataload\n        /* \"#utility.yul\":839:918   */\n      tag_122\n        /* \"#utility.yul\":914:917   */\n      dup5\n        /* \"#utility.yul\":906:912   */\n      dup3\n        /* \"#utility.yul\":899:903   */\n      0x20\n        /* \"#utility.yul\":891:897   */\n      dup7\n        /* \"#utility.yul\":887:904   */\n      add\n        /* \"#utility.yul\":839:918   */\n      tag_102\n      jump\t// in\n    tag_122:\n        /* \"#utility.yul\":830:918   */\n      swap2\n      pop\n        /* \"#utility.yul\":646:924   */\n      pop\n        /* \"#utility.yul\":584:924   */\n      swap3\n      swap2\n      pop\n      pop\n      jump\t// out\n        /* \"#utility.yul\":930:1069   */\n    tag_123:\n        /* \"#utility.yul\":976:981   */\n      0x00\n        /* \"#utility.yul\":1014:1020   */\n      dup2\n        /* \"#utility.yul\":1001:1021   */\n      calldataload\n        /* \"#utility.yul\":992:1021   */\n      swap1\n      pop\n        /* \"#utility.yul\":1030:1063   */\n      tag_125\n        /* \"#utility.yul\":1057:1062   */\n      dup2\n        /* \"#utility.yul\":1030:1063   */\n      tag_126\n      jump\t// in\n    tag_125:\n        /* \"#utility.yul\":930:1069   */\n      swap3\n      swap2\n      pop\n      pop\n      jump\t// out\n        /* \"#utility.yul\":1075:1694   */\n    tag_15:\n        /* \"#utility.yul\":1152:1158   */\n      0x00\n        /* \"#utility.yul\":1160:1166   */\n      dup1\n        /* \"#utility.yul\":1168:1174   */\n      0x00\n        /* \"#utility.yul\":1217:1219   */\n      0x60\n        /* \"#utility.yul\":1205:1214   */\n      dup5\n        /* \"#utility.yul\":1196:1203   */\n      dup7\n        /* \"#utility.yul\":1192:1215   */\n      sub\n        /* \"#utility.yul\":1188:1220   */\n      slt\n        /* \"#utility.yul\":1185:1304   */\n      iszero\n      tag_128\n      jumpi\n        /* \"#utility.yul\":1223:1302   */\n      tag_129\n      tag_130\n      jump\t// in\n    tag_129:\n        /* \"#utility.yul\":1185:1304   */\n    tag_128:\n        /* \"#utility.yul\":1343:1344   */\n      0x00\n        /* \"#utility.yul\":1368:1421   */\n      tag_131\n        /* \"#utility.yul\":1413:1420   */\n      dup7\n        /* \"#utility.yul\":1404:1410   */\n      dup3\n        /* \"#utility.yul\":1393:1402   */\n      dup8\n        /* \"#utility.yul\":1389:1411   */\n      add\n        /* \"#utility.yul\":1368:1421   */\n      tag_113\n      jump\t// in\n    tag_131:\n        /* \"#utility.yul\":1358:1421   */\n      swap4\n      pop\n        /* \"#utility.yul\":1314:1431   */\n      pop\n        /* \"#utility.yul\":1470:1472   */\n      0x20\n        /* \"#utility.yul\":1496:1549   */\n      tag_132\n        /* \"#utility.yul\":1541:1548   */\n      dup7\n        /* \"#utility.yul\":1532:1538   */\n      dup3\n        /* \"#utility.yul\":1521:1530   */\n      dup8\n        /* \"#utility.yul\":1517:1539   */\n      add\n        /* \"#utility.yul\":1496:1549   */\n      tag_113\n      jump\t// in\n    tag_132:\n        /* \"#utility.yul\":1486:1549   */\n      swap3\n      pop\n        /* \"#utility.yul\":1441:1559   */\n      pop\n        /* \"#utility.yul\":1598:1600   */\n      0x40\n        /* \"#utility.yul\":1624:1677   */\n      tag_133\n        /* \"#utility.yul\":1669:1676   */\n      dup7\n        /* \"#utility.yul\":1660:1666   */\n      dup3\n        /* \"#utility.yul\":1649:1658   */\n      dup8\n        /* \"#utility.yul\":1645:1667   */\n      add\n        /* \"#utility.yul\":1624:1677   */\n      tag_123\n      jump\t// in\n    tag_133:\n        /* \"#utility.yul\":1614:1677   */\n      swap2\n      pop\n        /* \"#utility.yul\":1569:1687   */\n      pop\n        /* \"#utility.yul\":1075:1694   */\n      swap3\n      pop\n      swap3\n      pop\n      swap3\n      jump\t// out\n        /* \"#utility.yul\":1700:2209   */\n    tag_32:\n        /* \"#utility.yul\":1769:1775   */\n      0x00\n        /* \"#utility.yul\":1818:1820   */\n      0x20\n        /* \"#utility.yul\":1806:1815   */\n      dup3\n        /* \"#utility.yul\":1797:1804   */\n      dup5\n        /* \"#utility.yul\":1793:1816   */\n      sub\n        /* \"#utility.yul\":1789:1821   */\n      slt\n        /* \"#utility.yul\":1786:1905   */\n      iszero\n      tag_135\n      jumpi\n        /* \"#utility.yul\":1824:1903   */\n      tag_136\n      tag_130\n      jump\t// in\n    tag_136:\n        /* \"#utility.yul\":1786:1905   */\n    tag_135:\n        /* \"#utility.yul\":1972:1973   */\n      0x00\n        /* \"#utility.yul\":1961:1970   */\n      dup3\n        /* \"#utility.yul\":1957:1974   */\n      add\n        /* \"#utility.yul\":1944:1975   */\n      calldataload\n        /* \"#utility.yul\":2002:2020   */\n      0xffffffffffffffff\n        /* \"#utility.yul\":1994:2000   */\n      dup2\n        /* \"#utility.yul\":1991:2021   */\n      gt\n        /* \"#utility.yul\":1988:2105   */\n      iszero\n      tag_137\n      jumpi\n        /* \"#utility.yul\":2024:2103   */\n      tag_138\n      tag_139\n      jump\t// in\n    tag_138:\n        /* \"#utility.yul\":1988:2105   */\n    tag_137:\n        /* \"#utility.yul\":2129:2192   */\n      tag_140\n        /* \"#utility.yul\":2184:2191   */\n      dup5\n        /* \"#utility.yul\":2175:2181   */\n      dup3\n        /* \"#utility.yul\":2164:2173   */\n      dup6\n        /* \"#utility.yul\":2160:2182   */\n      add\n        /* \"#utility.yul\":2129:2192   */\n      tag_117\n      jump\t// in\n    tag_140:\n        /* \"#utility.yul\":2119:2192   */\n      swap2\n      pop\n        /* \"#utility.yul\":1915:2202   */\n      pop\n        /* \"#utility.yul\":1700:2209   */\n      swap3\n      swap2\n      pop\n      pop\n      jump\t// out\n        /* \"#utility.yul\":2215:2544   */\n    tag_19:\n        /* \"#utility.yul\":2274:2280   */\n      0x00\n        /* \"#utility.yul\":2323:2325   */\n      0x20\n        /* \"#utility.yul\":2311:2320   */\n      dup3\n        /* \"#utility.yul\":2302:2309   */\n      dup5\n        /* \"#utility.yul\":2298:2321   */\n      sub\n        /* \"#utility.yul\":2294:2326   */\n      slt\n        /* \"#utility.yul\":2291:2410   */\n      iszero\n      tag_142\n      jumpi\n        /* \"#utility.yul\":2329:2408   */\n      tag_143\n      tag_130\n      jump\t// in\n    tag_143:\n        /* \"#utility.yul\":2291:2410   */\n    tag_142:\n        /* \"#utility.yul\":2449:2450   */\n      0x00\n        /* \"#utility.yul\":2474:2527   */\n      tag_144\n        /* \"#utility.yul\":2519:2526   */\n      dup5\n        /* \"#utility.yul\":2510:2516   */\n      dup3\n        /* \"#utility.yul\":2499:2508   */\n      dup6\n        /* \"#utility.yul\":2495:2517   */\n      add\n        /* \"#utility.yul\":2474:2527   */\n      tag_123\n      jump\t// in\n    tag_144:\n        /* \"#utility.yul\":2464:2527   */\n      swap2\n      pop\n        /* \"#utility.yul\":2420:2537   */\n      pop\n        /* \"#utility.yul\":2215:2544   */\n      swap3\n      swap2\n      pop\n      pop\n      jump\t// out\n        /* \"#utility.yul\":2550:2668   */\n    tag_145:\n        /* \"#utility.yul\":2637:2661   */\n      tag_147\n        /* \"#utility.yul\":2655:2660   */\n      dup2\n        /* \"#utility.yul\":2637:2661   */\n      tag_148\n      jump\t// in\n    tag_147:\n        /* \"#utility.yul\":2632:2635   */\n      dup3\n        /* \"#utility.yul\":2625:2662   */\n      mstore\n        /* \"#utility.yul\":2550:2668   */\n      pop\n      pop\n      jump\t// out\n        /* \"#utility.yul\":2674:3038   */\n    tag_149:\n        /* \"#utility.yul\":2762:2765   */\n      0x00\n        /* \"#utility.yul\":2790:2829   */\n      tag_151\n        /* \"#utility.yul\":2823:2828   */\n      dup3\n        /* \"#utility.yul\":2790:2829   */\n      tag_152\n      jump\t// in\n    tag_151:\n        /* \"#utility.yul\":2845:2916   */\n      tag_153\n        /* \"#utility.yul\":2909:2915   */\n      dup2\n        /* \"#utility.yul\":2904:2907   */\n      dup6\n        /* \"#utility.yul\":2845:2916   */\n      tag_154\n      jump\t// in\n    tag_153:\n        /* \"#utility.yul\":2838:2916   */\n      swap4\n      pop\n        /* \"#utility.yul\":2925:2977   */\n      tag_155\n        /* \"#utility.yul\":2970:2976   */\n      dup2\n        /* \"#utility.yul\":2965:2968   */\n      dup6\n        /* \"#utility.yul\":2958:2962   */\n      0x20\n        /* \"#utility.yul\":2951:2956   */\n      dup7\n        /* \"#utility.yul\":2947:2963   */\n      add\n        /* \"#utility.yul\":2925:2977   */\n      tag_156\n      jump\t// in\n    tag_155:\n        /* \"#utility.yul\":3002:3031   */\n      tag_157\n        /* \"#utility.yul\":3024:3030   */\n      dup2\n        /* \"#utility.yul\":3002:3031   */\n      tag_158\n      jump\t// in\n    tag_157:\n        /* \"#utility.yul\":2997:3000   */\n      dup5\n        /* \"#utility.yul\":2993:3032   */\n      add\n        /* \"#utility.yul\":2986:3032   */\n      swap2\n      pop\n        /* \"#utility.yul\":2766:3038   */\n      pop\n        /* \"#utility.yul\":2674:3038   */\n      swap3\n      swap2\n      pop\n      pop\n      jump\t// out\n        /* \"#utility.yul\":3044:3410   */\n    tag_159:\n        /* \"#utility.yul\":3186:3189   */\n      0x00\n        /* \"#utility.yul\":3207:3274   */\n      tag_161\n        /* \"#utility.yul\":3271:3273   */\n      0x24\n        /* \"#utility.yul\":3266:3269   */\n      dup4\n        /* \"#utility.yul\":3207:3274   */\n      tag_154\n      jump\t// in\n    tag_161:\n        /* \"#utility.yul\":3200:3274   */\n      swap2\n      pop\n        /* \"#utility.yul\":3283:3376   */\n      tag_162\n        /* \"#utility.yul\":3372:3375   */\n      dup3\n        /* \"#utility.yul\":3283:3376   */\n      tag_163\n      jump\t// in\n    tag_162:\n        /* \"#utility.yul\":3401:3403   */\n      0x40\n        /* \"#utility.yul\":3396:3399   */\n      dup3\n        /* \"#utility.yul\":3392:3404   */\n      add\n        /* \"#utility.yul\":3385:3404   */\n      swap1\n      pop\n        /* \"#utility.yul\":3044:3410   */\n      swap2\n      swap1\n      pop\n      jump\t// out\n        /* \"#utility.yul\":3416:3782   */\n    tag_164:\n        /* \"#utility.yul\":3558:3561   */\n      0x00\n        /* \"#utility.yul\":3579:3646   */\n      tag_166\n        /* \"#utility.yul\":3643:3645   */\n      0x13\n        /* \"#utility.yul\":3638:3641   */\n      dup4\n        /* \"#utility.yul\":3579:3646   */\n      tag_154\n      jump\t// in\n    tag_166:\n        /* \"#utility.yul\":3572:3646   */\n      swap2\n      pop\n        /* \"#utility.yul\":3655:3748   */\n      tag_167\n        /* \"#utility.yul\":3744:3747   */\n      dup3\n        /* \"#utility.yul\":3655:3748   */\n      tag_168\n      jump\t// in\n    tag_167:\n        /* \"#utility.yul\":3773:3775   */\n      0x20\n        /* \"#utility.yul\":3768:3771   */\n      dup3\n        /* \"#utility.yul\":3764:3776   */\n      add\n        /* \"#utility.yul\":3757:3776   */\n      swap1\n      pop\n        /* \"#utility.yul\":3416:3782   */\n      swap2\n      swap1\n      pop\n      jump\t// out\n        /* \"#utility.yul\":3788:4154   */\n    tag_169:\n        /* \"#utility.yul\":3930:3933   */\n      0x00\n        /* \"#utility.yul\":3951:4018   */\n      tag_171\n        /* \"#utility.yul\":4015:4017   */\n      0x13\n        /* \"#utility.yul\":4010:4013   */\n      dup4\n        /* \"#utility.yul\":3951:4018   */\n      tag_154\n      jump\t// in\n    tag_171:\n        /* \"#utility.yul\":3944:4018   */\n      swap2\n      pop\n        /* \"#utility.yul\":4027:4120   */\n      tag_172\n        /* \"#utility.yul\":4116:4119   */\n      dup3\n        /* \"#utility.yul\":4027:4120   */\n      tag_173\n      jump\t// in\n    tag_172:\n        /* \"#utility.yul\":4145:4147   */\n      0x20\n        /* \"#utility.yul\":4140:4143   */\n      dup3\n        /* \"#utility.yul\":4136:4148   */\n      add\n        /* \"#utility.yul\":4129:4148   */\n      swap1\n      pop\n        /* \"#utility.yul\":3788:4154   */\n      swap2\n      swap1\n      pop\n      jump\t// out\n        /* \"#utility.yul\":4160:4526   */\n    tag_174:\n        /* \"#utility.yul\":4302:4305   */\n      0x00\n        /* \"#utility.yul\":4323:4390   */\n      tag_176\n        /* \"#utility.yul\":4387:4389   */\n      0x17\n        /* \"#utility.yul\":4382:4385   */\n      dup4\n        /* \"#utility.yul\":4323:4390   */\n      tag_154\n      jump\t// in\n    tag_176:\n        /* \"#utility.yul\":4316:4390   */\n      swap2\n      pop\n        /* \"#utility.yul\":4399:4492   */\n      tag_177\n        /* \"#utility.yul\":4488:4491   */\n      dup3\n        /* \"#utility.yul\":4399:4492   */\n      tag_178\n      jump\t// in\n    tag_177:\n        /* \"#utility.yul\":4517:4519   */\n      0x20\n        /* \"#utility.yul\":4512:4515   */\n      dup3\n        /* \"#utility.yul\":4508:4520   */\n      add\n        /* \"#utility.yul\":4501:4520   */\n      swap1\n      pop\n        /* \"#utility.yul\":4160:4526   */\n      swap2\n      swap1\n      pop\n      jump\t// out\n        /* \"#utility.yul\":4532:4898   */\n    tag_179:\n        /* \"#utility.yul\":4674:4677   */\n      0x00\n        /* \"#utility.yul\":4695:4762   */\n      tag_181\n        /* \"#utility.yul\":4759:4761   */\n      0x18\n        /* \"#utility.yul\":4754:4757   */\n      dup4\n        /* \"#utility.yul\":4695:4762   */\n      tag_154\n      jump\t// in\n    tag_181:\n        /* \"#utility.yul\":4688:4762   */\n      swap2\n      pop\n        /* \"#utility.yul\":4771:4864   */\n      tag_182\n        /* \"#utility.yul\":4860:4863   */\n      dup3\n        /* \"#utility.yul\":4771:4864   */\n      tag_183\n      jump\t// in\n    tag_182:\n        /* \"#utility.yul\":4889:4891   */\n      0x20\n        /* \"#utility.yul\":4884:4887   */\n      dup3\n        /* \"#utility.yul\":4880:4892   */\n      add\n        /* \"#utility.yul\":4873:4892   */\n      swap1\n      pop\n        /* \"#utility.yul\":4532:4898   */\n      swap2\n      swap1\n      pop\n      jump\t// out\n        /* \"#utility.yul\":4904:5270   */\n    tag_184:\n        /* \"#utility.yul\":5046:5049   */\n      0x00\n        /* \"#utility.yul\":5067:5134   */\n      tag_186\n        /* \"#utility.yul\":5131:5133   */\n      0x18\n        /* \"#utility.yul\":5126:5129   */\n      dup4\n        /* \"#utility.yul\":5067:5134   */\n      tag_154\n      jump\t// in\n    tag_186:\n        /* \"#utility.yul\":5060:5134   */\n      swap2\n      pop\n        /* \"#utility.yul\":5143:5236   */\n      tag_187\n        /* \"#utility.yul\":5232:5235   */\n      dup3\n        /* \"#utility.yul\":5143:5236   */\n      tag_188\n      jump\t// in\n    tag_187:\n        /* \"#utility.yul\":5261:5263   */\n      0x20\n        /* \"#utility.yul\":5256:5259   */\n      dup3\n        /* \"#utility.yul\":5252:5264   */\n      add\n        /* \"#utility.yul\":5245:5264   */\n      swap1\n      pop\n        /* \"#utility.yul\":4904:5270   */\n      swap2\n      swap1\n      pop\n      jump\t// out\n        /* \"#utility.yul\":5276:5394   */\n    tag_189:\n        /* \"#utility.yul\":5363:5387   */\n      tag_191\n        /* \"#utility.yul\":5381:5386   */\n      dup2\n        /* \"#utility.yul\":5363:5387   */\n      tag_192\n      jump\t// in\n    tag_191:\n        /* \"#utility.yul\":5358:5361   */\n      dup3\n        /* \"#utility.yul\":5351:5388   */\n      mstore\n        /* \"#utility.yul\":5276:5394   */\n      pop\n      pop\n      jump\t// out\n        /* \"#utility.yul\":5400:5622   */\n    tag_22:\n        /* \"#utility.yul\":5493:5497   */\n      0x00\n        /* \"#utility.yul\":5531:5533   */\n      0x20\n        /* \"#utility.yul\":5520:5529   */\n      dup3\n        /* \"#utility.yul\":5516:5534   */\n      add\n        /* \"#utility.yul\":5508:5534   */\n      swap1\n      pop\n        /* \"#utility.yul\":5544:5615   */\n      tag_194\n        /* \"#utility.yul\":5612:5613   */\n      0x00\n        /* \"#utility.yul\":5601:5610   */\n      dup4\n        /* \"#utility.yul\":5597:5614   */\n      add\n        /* \"#utility.yul\":5588:5594   */\n      dup5\n        /* \"#utility.yul\":5544:5615   */\n      tag_145\n      jump\t// in\n    tag_194:\n        /* \"#utility.yul\":5400:5622   */\n      swap3\n      swap2\n      pop\n      pop\n      jump\t// out\n        /* \"#utility.yul\":5628:5941   */\n    tag_12:\n        /* \"#utility.yul\":5741:5745   */\n      0x00\n        /* \"#utility.yul\":5779:5781   */\n      0x20\n        /* \"#utility.yul\":5768:5777   */\n      dup3\n        /* \"#utility.yul\":5764:5782   */\n      add\n        /* \"#utility.yul\":5756:5782   */\n      swap1\n      pop\n        /* \"#utility.yul\":5828:5837   */\n      dup2\n        /* \"#utility.yul\":5822:5826   */\n      dup2\n        /* \"#utility.yul\":5818:5838   */\n      sub\n        /* \"#utility.yul\":5814:5815   */\n      0x00\n        /* \"#utility.yul\":5803:5812   */\n      dup4\n        /* \"#utility.yul\":5799:5816   */\n      add\n        /* \"#utility.yul\":5792:5839   */\n      mstore\n        /* \"#utility.yul\":5856:5934   */\n      tag_196\n        /* \"#utility.yul\":5929:5933   */\n      dup2\n        /* \"#utility.yul\":5920:5926   */\n      dup5\n        /* \"#utility.yul\":5856:5934   */\n      tag_149\n      jump\t// in\n    tag_196:\n        /* \"#utility.yul\":5848:5934   */\n      swap1\n      pop\n        /* \"#utility.yul\":5628:5941   */\n      swap3\n      swap2\n      pop\n      pop\n      jump\t// out\n        /* \"#utility.yul\":5947:6366   */\n    tag_47:\n        /* \"#utility.yul\":6113:6117   */\n      0x00\n        /* \"#utility.yul\":6151:6153   */\n      0x20\n        /* \"#utility.yul\":6140:6149   */\n      dup3\n        /* \"#utility.yul\":6136:6154   */\n      add\n        /* \"#utility.yul\":6128:6154   */\n      swap1\n      pop\n        /* \"#utility.yul\":6200:6209   */\n      dup2\n        /* \"#utility.yul\":6194:6198   */\n      dup2\n        /* \"#utility.yul\":6190:6210   */\n      sub\n        /* \"#utility.yul\":6186:6187   */\n      0x00\n        /* \"#utility.yul\":6175:6184   */\n      dup4\n        /* \"#utility.yul\":6171:6188   */\n      add\n        /* \"#utility.yul\":6164:6211   */\n      mstore\n        /* \"#utility.yul\":6228:6359   */\n      tag_198\n        /* \"#utility.yul\":6354:6358   */\n      dup2\n        /* \"#utility.yul\":6228:6359   */\n      tag_159\n      jump\t// in\n    tag_198:\n        /* \"#utility.yul\":6220:6359   */\n      swap1\n      pop\n        /* \"#utility.yul\":5947:6366   */\n      swap2\n      swap1\n      pop\n      jump\t// out\n        /* \"#utility.yul\":6372:6791   */\n    tag_80:\n        /* \"#utility.yul\":6538:6542   */\n      0x00\n        /* \"#utility.yul\":6576:6578   */\n      0x20\n        /* \"#utility.yul\":6565:6574   */\n      dup3\n        /* \"#utility.yul\":6561:6579   */\n      add\n        /* \"#utility.yul\":6553:6579   */\n      swap1\n      pop\n        /* \"#utility.yul\":6625:6634   */\n      dup2\n        /* \"#utility.yul\":6619:6623   */\n      dup2\n        /* \"#utility.yul\":6615:6635   */\n      sub\n        /* \"#utility.yul\":6611:6612   */\n      0x00\n        /* \"#utility.yul\":6600:6609   */\n      dup4\n        /* \"#utility.yul\":6596:6613   */\n      add\n        /* \"#utility.yul\":6589:6636   */\n      mstore\n        /* \"#utility.yul\":6653:6784   */\n      tag_200\n        /* \"#utility.yul\":6779:6783   */\n      dup2\n        /* \"#utility.yul\":6653:6784   */\n      tag_164\n      jump\t// in\n    tag_200:\n        /* \"#utility.yul\":6645:6784   */\n      swap1\n      pop\n        /* \"#utility.yul\":6372:6791   */\n      swap2\n      swap1\n      pop\n      jump\t// out\n        /* \"#utility.yul\":6797:7216   */\n    tag_88:\n        /* \"#utility.yul\":6963:6967   */\n      0x00\n        /* \"#utility.yul\":7001:7003   */\n      0x20\n        /* \"#utility.yul\":6990:6999   */\n      dup3\n        /* \"#utility.yul\":6986:7004   */\n      add\n        /* \"#utility.yul\":6978:7004   */\n      swap1\n      pop\n        /* \"#utility.yul\":7050:7059   */\n      dup2\n        /* \"#utility.yul\":7044:7048   */\n      dup2\n        /* \"#utility.yul\":7040:7060   */\n      sub\n        /* \"#utility.yul\":7036:7037   */\n      0x00\n        /* \"#utility.yul\":7025:7034   */\n      dup4\n        /* \"#utility.yul\":7021:7038   */\n      add\n        /* \"#utility.yul\":7014:7061   */\n      mstore\n        /* \"#utility.yul\":7078:7209   */\n      tag_202\n        /* \"#utility.yul\":7204:7208   */\n      dup2\n        /* \"#utility.yul\":7078:7209   */\n      tag_169\n      jump\t// in\n    tag_202:\n        /* \"#utility.yul\":7070:7209   */\n      swap1\n      pop\n        /* \"#utility.yul\":6797:7216   */\n      swap2\n      swap1\n      pop\n      jump\t// out\n        /* \"#utility.yul\":7222:7641   */\n    tag_44:\n        /* \"#utility.yul\":7388:7392   */\n      0x00\n        /* \"#utility.yul\":7426:7428   */\n      0x20\n        /* \"#utility.yul\":7415:7424   */\n      dup3\n        /* \"#utility.yul\":7411:7429   */\n      add\n        /* \"#utility.yul\":7403:7429   */\n      swap1\n      pop\n        /* \"#utility.yul\":7475:7484   */\n      dup2\n        /* \"#utility.yul\":7469:7473   */\n      dup2\n        /* \"#utility.yul\":7465:7485   */\n      sub\n        /* \"#utility.yul\":7461:7462   */\n      0x00\n        /* \"#utility.yul\":7450:7459   */\n      dup4\n        /* \"#utility.yul\":7446:7463   */\n      add\n        /* \"#utility.yul\":7439:7486   */\n      mstore\n        /* \"#utility.yul\":7503:7634   */\n      tag_204\n        /* \"#utility.yul\":7629:7633   */\n      dup2\n        /* \"#utility.yul\":7503:7634   */\n      tag_174\n      jump\t// in\n    tag_204:\n        /* \"#utility.yul\":7495:7634   */\n      swap1\n      pop\n        /* \"#utility.yul\":7222:7641   */\n      swap2\n      swap1\n      pop\n      jump\t// out\n        /* \"#utility.yul\":7647:8066   */\n    tag_53:\n        /* \"#utility.yul\":7813:7817   */\n      0x00\n        /* \"#utility.yul\":7851:7853   */\n      0x20\n        /* \"#utility.yul\":7840:7849   */\n      dup3\n        /* \"#utility.yul\":7836:7854   */\n      add\n        /* \"#utility.yul\":7828:7854   */\n      swap1\n      pop\n        /* \"#utility.yul\":7900:7909   */\n      dup2\n        /* \"#utility.yul\":7894:7898   */\n      dup2\n        /* \"#utility.yul\":7890:7910   */\n      sub\n        /* \"#utility.yul\":7886:7887   */\n      0x00\n        /* \"#utility.yul\":7875:7884   */\n      dup4\n        /* \"#utility.yul\":7871:7888   */\n      add\n        /* \"#utility.yul\":7864:7911   */\n      mstore\n        /* \"#utility.yul\":7928:8059   */\n      tag_206\n        /* \"#utility.yul\":8054:8058   */\n      dup2\n        /* \"#utility.yul\":7928:8059   */\n      tag_179\n      jump\t// in\n    tag_206:\n        /* \"#utility.yul\":7920:8059   */\n      swap1\n      pop\n        /* \"#utility.yul\":7647:8066   */\n      swap2\n      swap1\n      pop\n      jump\t// out\n        /* \"#utility.yul\":8072:8491   */\n    tag_83:\n        /* \"#utility.yul\":8238:8242   */\n      0x00\n        /* \"#utility.yul\":8276:8278   */\n      0x20\n        /* \"#utility.yul\":8265:8274   */\n      dup3\n        /* \"#utility.yul\":8261:8279   */\n      add\n        /* \"#utility.yul\":8253:8279   */\n      swap1\n      pop\n        /* \"#utility.yul\":8325:8334   */\n      dup2\n        /* \"#utility.yul\":8319:8323   */\n      dup2\n        /* \"#utility.yul\":8315:8335   */\n      sub\n        /* \"#utility.yul\":8311:8312   */\n      0x00\n        /* \"#utility.yul\":8300:8309   */\n      dup4\n        /* \"#utility.yul\":8296:8313   */\n      add\n        /* \"#utility.yul\":8289:8336   */\n      mstore\n        /* \"#utility.yul\":8353:8484   */\n      tag_208\n        /* \"#utility.yul\":8479:8483   */\n      dup2\n        /* \"#utility.yul\":8353:8484   */\n      tag_184\n      jump\t// in\n    tag_208:\n        /* \"#utility.yul\":8345:8484   */\n      swap1\n      pop\n        /* \"#utility.yul\":8072:8491   */\n      swap2\n      swap1\n      pop\n      jump\t// out\n        /* \"#utility.yul\":8497:8719   */\n    tag_49:\n        /* \"#utility.yul\":8590:8594   */\n      0x00\n        /* \"#utility.yul\":8628:8630   */\n      0x20\n        /* \"#utility.yul\":8617:8626   */\n      dup3\n        /* \"#utility.yul\":8613:8631   */\n      add\n        /* \"#utility.yul\":8605:8631   */\n      swap1\n      pop\n        /* \"#utility.yul\":8641:8712   */\n      tag_210\n        /* \"#utility.yul\":8709:8710   */\n      0x00\n        /* \"#utility.yul\":8698:8707   */\n      dup4\n        /* \"#utility.yul\":8694:8711   */\n      add\n        /* \"#utility.yul\":8685:8691   */\n      dup5\n        /* \"#utility.yul\":8641:8712   */\n      tag_189\n      jump\t// in\n    tag_210:\n        /* \"#utility.yul\":8497:8719   */\n      swap3\n      swap2\n      pop\n      pop\n      jump\t// out\n        /* \"#utility.yul\":8725:8854   */\n    tag_107:\n        /* \"#utility.yul\":8759:8765   */\n      0x00\n        /* \"#utility.yul\":8786:8806   */\n      tag_212\n      tag_213\n      jump\t// in\n    tag_212:\n        /* \"#utility.yul\":8776:8806   */\n      swap1\n      pop\n        /* \"#utility.yul\":8815:8848   */\n      tag_214\n        /* \"#utility.yul\":8843:8847   */\n      dup3\n        /* \"#utility.yul\":8835:8841   */\n      dup3\n        /* \"#utility.yul\":8815:8848   */\n      tag_215\n      jump\t// in\n    tag_214:\n        /* \"#utility.yul\":8725:8854   */\n      swap2\n      swap1\n      pop\n      jump\t// out\n        /* \"#utility.yul\":8860:8935   */\n    tag_213:\n        /* \"#utility.yul\":8893:8899   */\n      0x00\n        /* \"#utility.yul\":8926:8928   */\n      0x40\n        /* \"#utility.yul\":8920:8929   */\n      mload\n        /* \"#utility.yul\":8910:8929   */\n      swap1\n      pop\n        /* \"#utility.yul\":8860:8935   */\n      swap1\n      jump\t// out\n        /* \"#utility.yul\":8941:9249   */\n    tag_106:\n        /* \"#utility.yul\":9003:9007   */\n      0x00\n        /* \"#utility.yul\":9093:9111   */\n      0xffffffffffffffff\n        /* \"#utility.yul\":9085:9091   */\n      dup3\n        /* \"#utility.yul\":9082:9112   */\n      gt\n        /* \"#utility.yul\":9079:9135   */\n      iszero\n      tag_218\n      jumpi\n        /* \"#utility.yul\":9115:9133   */\n      tag_219\n      tag_220\n      jump\t// in\n    tag_219:\n        /* \"#utility.yul\":9079:9135   */\n    tag_218:\n        /* \"#utility.yul\":9153:9182   */\n      tag_221\n        /* \"#utility.yul\":9175:9181   */\n      dup3\n        /* \"#utility.yul\":9153:9182   */\n      tag_158\n      jump\t// in\n    tag_221:\n        /* \"#utility.yul\":9145:9182   */\n      swap1\n      pop\n        /* \"#utility.yul\":9237:9241   */\n      0x20\n        /* \"#utility.yul\":9231:9235   */\n      dup2\n        /* \"#utility.yul\":9227:9242   */\n      add\n        /* \"#utility.yul\":9219:9242   */\n      swap1\n      pop\n        /* \"#utility.yul\":8941:9249   */\n      swap2\n      swap1\n      pop\n      jump\t// out\n        /* \"#utility.yul\":9255:9354   */\n    tag_152:\n        /* \"#utility.yul\":9307:9313   */\n      0x00\n        /* \"#utility.yul\":9341:9346   */\n      dup2\n        /* \"#utility.yul\":9335:9347   */\n      mload\n        /* \"#utility.yul\":9325:9347   */\n      swap1\n      pop\n        /* \"#utility.yul\":9255:9354   */\n      swap2\n      swap1\n      pop\n      jump\t// out\n        /* \"#utility.yul\":9360:9529   */\n    tag_154:\n        /* \"#utility.yul\":9444:9455   */\n      0x00\n        /* \"#utility.yul\":9478:9484   */\n      dup3\n        /* \"#utility.yul\":9473:9476   */\n      dup3\n        /* \"#utility.yul\":9466:9485   */\n      mstore\n        /* \"#utility.yul\":9518:9522   */\n      0x20\n        /* \"#utility.yul\":9513:9516   */\n      dup3\n        /* \"#utility.yul\":9509:9523   */\n      add\n        /* \"#utility.yul\":9494:9523   */\n      swap1\n      pop\n        /* \"#utility.yul\":9360:9529   */\n      swap3\n      swap2\n      pop\n      pop\n      jump\t// out\n        /* \"#utility.yul\":9535:9631   */\n    tag_148:\n        /* \"#utility.yul\":9572:9579   */\n      0x00\n        /* \"#utility.yul\":9601:9625   */\n      tag_225\n        /* \"#utility.yul\":9619:9624   */\n      dup3\n        /* \"#utility.yul\":9601:9625   */\n      tag_226\n      jump\t// in\n    tag_225:\n        /* \"#utility.yul\":9590:9625   */\n      swap1\n      pop\n        /* \"#utility.yul\":9535:9631   */\n      swap2\n      swap1\n      pop\n      jump\t// out\n        /* \"#utility.yul\":9637:9763   */\n    tag_226:\n        /* \"#utility.yul\":9674:9681   */\n      0x00\n        /* \"#utility.yul\":9714:9756   */\n      0xffffffffffffffffffffffffffffffffffffffff\n        /* \"#utility.yul\":9707:9712   */\n      dup3\n        /* \"#utility.yul\":9703:9757   */\n      and\n        /* \"#utility.yul\":9692:9757   */\n      swap1\n      pop\n        /* \"#utility.yul\":9637:9763   */\n      swap2\n      swap1\n      pop\n      jump\t// out\n        /* \"#utility.yul\":9769:9846   */\n    tag_192:\n        /* \"#utility.yul\":9806:9813   */\n      0x00\n        /* \"#utility.yul\":9835:9840   */\n      dup2\n        /* \"#utility.yul\":9824:9840   */\n      swap1\n      pop\n        /* \"#utility.yul\":9769:9846   */\n      swap2\n      swap1\n      pop\n      jump\t// out\n        /* \"#utility.yul\":9852:10006   */\n    tag_112:\n        /* \"#utility.yul\":9936:9942   */\n      dup3\n        /* \"#utility.yul\":9931:9934   */\n      dup2\n        /* \"#utility.yul\":9926:9929   */\n      dup4\n        /* \"#utility.yul\":9913:9943   */\n      calldatacopy\n        /* \"#utility.yul\":9998:9999   */\n      0x00\n        /* \"#utility.yul\":9989:9995   */\n      dup4\n        /* \"#utility.yul\":9984:9987   */\n      dup4\n        /* \"#utility.yul\":9980:9996   */\n      add\n        /* \"#utility.yul\":9973:10000   */\n      mstore\n        /* \"#utility.yul\":9852:10006   */\n      pop\n      pop\n      pop\n      jump\t// out\n        /* \"#utility.yul\":10012:10319   */\n    tag_156:\n        /* \"#utility.yul\":10080:10081   */\n      0x00\n        /* \"#utility.yul\":10090:10203   */\n    tag_231:\n        /* \"#utility.yul\":10104:10110   */\n      dup4\n        /* \"#utility.yul\":10101:10102   */\n      dup2\n        /* \"#utility.yul\":10098:10111   */\n      lt\n        /* \"#utility.yul\":10090:10203   */\n      iszero\n      tag_233\n      jumpi\n        /* \"#utility.yul\":10189:10190   */\n      dup1\n        /* \"#utility.yul\":10184:10187   */\n      dup3\n        /* \"#utility.yul\":10180:10191   */\n      add\n        /* \"#utility.yul\":10174:10192   */\n      mload\n        /* \"#utility.yul\":10170:10171   */\n      dup2\n        /* \"#utility.yul\":10165:10168   */\n      dup5\n        /* \"#utility.yul\":10161:10172   */\n      add\n        /* \"#utility.yul\":10154:10193   */\n      mstore\n        /* \"#utility.yul\":10126:10128   */\n      0x20\n        /* \"#utility.yul\":10123:10124   */\n      dup2\n        /* \"#utility.yul\":10119:10129   */\n      add\n        /* \"#utility.yul\":10114:10129   */\n      swap1\n      pop\n        /* \"#utility.yul\":10090:10203   */\n      jump(tag_231)\n    tag_233:\n        /* \"#utility.yul\":10221:10227   */\n      dup4\n        /* \"#utility.yul\":10218:10219   */\n      dup2\n        /* \"#utility.yul\":10215:10228   */\n      gt\n        /* \"#utility.yul\":10212:10313   */\n      iszero\n      tag_234\n      jumpi\n        /* \"#utility.yul\":10301:10302   */\n      0x00\n        /* \"#utility.yul\":10292:10298   */\n      dup5\n        /* \"#utility.yul\":10287:10290   */\n      dup5\n        /* \"#utility.yul\":10283:10299   */\n      add\n        /* \"#utility.yul\":10276:10303   */\n      mstore\n        /* \"#utility.yul\":10212:10313   */\n    tag_234:\n        /* \"#utility.yul\":10061:10319   */\n      pop\n        /* \"#utility.yul\":10012:10319   */\n      pop\n      pop\n      pop\n      jump\t// out\n        /* \"#utility.yul\":10325:10645   */\n    tag_36:\n        /* \"#utility.yul\":10369:10375   */\n      0x00\n        /* \"#utility.yul\":10406:10407   */\n      0x02\n        /* \"#utility.yul\":10400:10404   */\n      dup3\n        /* \"#utility.yul\":10396:10408   */\n      div\n        /* \"#utility.yul\":10386:10408   */\n      swap1\n      pop\n        /* \"#utility.yul\":10453:10454   */\n      0x01\n        /* \"#utility.yul\":10447:10451   */\n      dup3\n        /* \"#utility.yul\":10443:10455   */\n      and\n        /* \"#utility.yul\":10474:10492   */\n      dup1\n        /* \"#utility.yul\":10464:10545   */\n      tag_236\n      jumpi\n        /* \"#utility.yul\":10530:10534   */\n      0x7f\n        /* \"#utility.yul\":10522:10528   */\n      dup3\n        /* \"#utility.yul\":10518:10535   */\n      and\n        /* \"#utility.yul\":10508:10535   */\n      swap2\n      pop\n        /* \"#utility.yul\":10464:10545   */\n    tag_236:\n        /* \"#utility.yul\":10592:10594   */\n      0x20\n        /* \"#utility.yul\":10584:10590   */\n      dup3\n        /* \"#utility.yul\":10581:10595   */\n      lt\n        /* \"#utility.yul\":10561:10579   */\n      dup2\n        /* \"#utility.yul\":10558:10596   */\n      eq\n        /* \"#utility.yul\":10555:10639   */\n      iszero\n      tag_237\n      jumpi\n        /* \"#utility.yul\":10611:10629   */\n      tag_238\n      tag_239\n      jump\t// in\n    tag_238:\n        /* \"#utility.yul\":10555:10639   */\n    tag_237:\n        /* \"#utility.yul\":10376:10645   */\n      pop\n        /* \"#utility.yul\":10325:10645   */\n      swap2\n      swap1\n      pop\n      jump\t// out\n        /* \"#utility.yul\":10651:10932   */\n    tag_215:\n        /* \"#utility.yul\":10734:10761   */\n      tag_241\n        /* \"#utility.yul\":10756:10760   */\n      dup3\n        /* \"#utility.yul\":10734:10761   */\n      tag_158\n      jump\t// in\n    tag_241:\n        /* \"#utility.yul\":10726:10732   */\n      dup2\n        /* \"#utility.yul\":10722:10762   */\n      add\n        /* \"#utility.yul\":10864:10870   */\n      dup2\n        /* \"#utility.yul\":10852:10862   */\n      dup2\n        /* \"#utility.yul\":10849:10871   */\n      lt\n        /* \"#utility.yul\":10828:10846   */\n      0xffffffffffffffff\n        /* \"#utility.yul\":10816:10826   */\n      dup3\n        /* \"#utility.yul\":10813:10847   */\n      gt\n        /* \"#utility.yul\":10810:10872   */\n      or\n        /* \"#utility.yul\":10807:10895   */\n      iszero\n      tag_242\n      jumpi\n        /* \"#utility.yul\":10875:10893   */\n      tag_243\n      tag_220\n      jump\t// in\n    tag_243:\n        /* \"#utility.yul\":10807:10895   */\n    tag_242:\n        /* \"#utility.yul\":10915:10925   */\n      dup1\n        /* \"#utility.yul\":10911:10913   */\n      0x40\n        /* \"#utility.yul\":10904:10926   */\n      mstore\n        /* \"#utility.yul\":10694:10932   */\n      pop\n        /* \"#utility.yul\":10651:10932   */\n      pop\n      pop\n      jump\t// out\n        /* \"#utility.yul\":10938:11118   */\n    tag_239:\n        /* \"#utility.yul\":10986:11063   */\n      0x4e487b7100000000000000000000000000000000000000000000000000000000\n        /* \"#utility.yul\":10983:10984   */\n      0x00\n        /* \"#utility.yul\":10976:11064   */\n      mstore\n        /* \"#utility.yul\":11083:11087   */\n      0x22\n        /* \"#utility.yul\":11080:11081   */\n      0x04\n        /* \"#utility.yul\":11073:11088   */\n      mstore\n        /* \"#utility.yul\":11107:11111   */\n      0x24\n        /* \"#utility.yul\":11104:11105   */\n      0x00\n        /* \"#utility.yul\":11097:11112   */\n      revert\n        /* \"#utility.yul\":11124:11304   */\n    tag_220:\n        /* \"#utility.yul\":11172:11249   */\n      0x4e487b7100000000000000000000000000000000000000000000000000000000\n        /* \"#utility.yul\":11169:11170   */\n      0x00\n        /* \"#utility.yul\":11162:11250   */\n      mstore\n        /* \"#utility.yul\":11269:11273   */\n      0x41\n        /* \"#utility.yul\":11266:11267   */\n      0x04\n        /* \"#utility.yul\":11259:11274   */\n      mstore\n        /* \"#utility.yul\":11293:11297   */\n      0x24\n        /* \"#utility.yul\":11290:11291   */\n      0x00\n        /* \"#utility.yul\":11283:11298   */\n      revert\n        /* \"#utility.yul\":11310:11427   */\n    tag_121:\n        /* \"#utility.yul\":11419:11420   */\n      0x00\n        /* \"#utility.yul\":11416:11417   */\n      dup1\n        /* \"#utility.yul\":11409:11421   */\n      revert\n        /* \"#utility.yul\":11433:11550   */\n    tag_110:\n        /* \"#utility.yul\":11542:11543   */\n      0x00\n        /* \"#utility.yul\":11539:11540   */\n      dup1\n        /* \"#utility.yul\":11532:11544   */\n      revert\n        /* \"#utility.yul\":11556:11673   */\n    tag_139:\n        /* \"#utility.yul\":11665:11666   */\n      0x00\n        /* \"#utility.yul\":11662:11663   */\n      dup1\n        /* \"#utility.yul\":11655:11667   */\n      revert\n        /* \"#utility.yul\":11679:11796   */\n    tag_130:\n        /* \"#utility.yul\":11788:11789   */\n      0x00\n        /* \"#utility.yul\":11785:11786   */\n      dup1\n        /* \"#utility.yul\":11778:11790   */\n      revert\n        /* \"#utility.yul\":11802:11904   */\n    tag_158:\n        /* \"#utility.yul\":11843:11849   */\n      0x00\n        /* \"#utility.yul\":11894:11896   */\n      0x1f\n        /* \"#utility.yul\":11890:11897   */\n      not\n        /* \"#utility.yul\":11885:11887   */\n      0x1f\n        /* \"#utility.yul\":11878:11883   */\n      dup4\n        /* \"#utility.yul\":11874:11888   */\n      add\n        /* \"#utility.yul\":11870:11898   */\n      and\n        /* \"#utility.yul\":11860:11898   */\n      swap1\n      pop\n        /* \"#utility.yul\":11802:11904   */\n      swap2\n      swap1\n      pop\n      jump\t// out\n        /* \"#utility.yul\":11910:12133   */\n    tag_163:\n        /* \"#utility.yul\":12050:12084   */\n      0x4552433732313a207472616e7366657220746f20746865207a65726f20616464\n        /* \"#utility.yul\":12046:12047   */\n      0x00\n        /* \"#utility.yul\":12038:12044   */\n      dup3\n        /* \"#utility.yul\":12034:12048   */\n      add\n        /* \"#utility.yul\":12027:12085   */\n      mstore\n        /* \"#utility.yul\":12119:12125   */\n      0x7265737300000000000000000000000000000000000000000000000000000000\n        /* \"#utility.yul\":12114:12116   */\n      0x20\n        /* \"#utility.yul\":12106:12112   */\n      dup3\n        /* \"#utility.yul\":12102:12117   */\n      add\n        /* \"#utility.yul\":12095:12126   */\n      mstore\n        /* \"#utility.yul\":11910:12133   */\n      pop\n      jump\t// out\n        /* \"#utility.yul\":12139:12308   */\n    tag_168:\n        /* \"#utility.yul\":12279:12300   */\n      0x746f6b656e20616c726561647920657869737400000000000000000000000000\n        /* \"#utility.yul\":12275:12276   */\n      0x00\n        /* \"#utility.yul\":12267:12273   */\n      dup3\n        /* \"#utility.yul\":12263:12277   */\n      add\n        /* \"#utility.yul\":12256:12301   */\n      mstore\n        /* \"#utility.yul\":12139:12308   */\n      pop\n      jump\t// out\n        /* \"#utility.yul\":12314:12483   */\n    tag_173:\n        /* \"#utility.yul\":12454:12475   */\n      0x746f6b656e20646f65736e277420657869737400000000000000000000000000\n        /* \"#utility.yul\":12450:12451   */\n      0x00\n        /* \"#utility.yul\":12442:12448   */\n      dup3\n        /* \"#utility.yul\":12438:12452   */\n      add\n        /* \"#utility.yul\":12431:12476   */\n      mstore\n        /* \"#utility.yul\":12314:12483   */\n      pop\n      jump\t// out\n        /* \"#utility.yul\":12489:12662   */\n    tag_178:\n        /* \"#utility.yul\":12629:12654   */\n      0x4e6f742063616c6c656420627920746865206f776e6572000000000000000000\n        /* \"#utility.yul\":12625:12626   */\n      0x00\n        /* \"#utility.yul\":12617:12623   */\n      dup3\n        /* \"#utility.yul\":12613:12627   */\n      add\n        /* \"#utility.yul\":12606:12655   */\n      mstore\n        /* \"#utility.yul\":12489:12662   */\n      pop\n      jump\t// out\n        /* \"#utility.yul\":12668:12842   */\n    tag_183:\n        /* \"#utility.yul\":12808:12834   */\n      0x4552433732313a20696e76616c696420746f6b656e2049440000000000000000\n        /* \"#utility.yul\":12804:12805   */\n      0x00\n        /* \"#utility.yul\":12796:12802   */\n      dup3\n        /* \"#utility.yul\":12792:12806   */\n      add\n        /* \"#utility.yul\":12785:12835   */\n      mstore\n        /* \"#utility.yul\":12668:12842   */\n      pop\n      jump\t// out\n        /* \"#utility.yul\":12848:13022   */\n    tag_188:\n        /* \"#utility.yul\":12988:13014   */\n      0x6d696e7420746f20746865207a65726f20616464726573730000000000000000\n        /* \"#utility.yul\":12984:12985   */\n      0x00\n        /* \"#utility.yul\":12976:12982   */\n      dup3\n        /* \"#utility.yul\":12972:12986   */\n      add\n        /* \"#utility.yul\":12965:13015   */\n      mstore\n        /* \"#utility.yul\":12848:13022   */\n      pop\n      jump\t// out\n        /* \"#utility.yul\":13028:13150   */\n    tag_116:\n        /* \"#utility.yul\":13101:13125   */\n      tag_258\n        /* \"#utility.yul\":13119:13124   */\n      dup2\n        /* \"#utility.yul\":13101:13125   */\n      tag_148\n      jump\t// in\n    tag_258:\n        /* \"#utility.yul\":13094:13099   */\n      dup2\n        /* \"#utility.yul\":13091:13126   */\n      eq\n        /* \"#utility.yul\":13081:13144   */\n      tag_259\n      jumpi\n        /* \"#utility.yul\":13140:13141   */\n      0x00\n        /* \"#utility.yul\":13137:13138   */\n      dup1\n        /* \"#utility.yul\":13130:13142   */\n      revert\n        /* \"#utility.yul\":13081:13144   */\n    tag_259:\n        /* \"#utility.yul\":13028:13150   */\n      pop\n      jump\t// out\n        /* \"#utility.yul\":13156:13278   */\n    tag_126:\n        /* \"#utility.yul\":13229:13253   */\n      tag_261\n        /* \"#utility.yul\":13247:13252   */\n      dup2\n        /* \"#utility.yul\":13229:13253   */\n      tag_192\n      jump\t// in\n    tag_261:\n        /* \"#utility.yul\":13222:13227   */\n      dup2\n        /* \"#utility.yul\":13219:13254   */\n      eq\n        /* \"#utility.yul\":13209:13272   */\n      tag_262\n      jumpi\n        /* \"#utility.yul\":13268:13269   */\n      0x00\n        /* \"#utility.yul\":13265:13266   */\n      dup1\n        /* \"#utility.yul\":13258:13270   */\n      revert\n        /* \"#utility.yul\":13209:13272   */\n    tag_262:\n        /* \"#utility.yul\":13156:13278   */\n      pop\n      jump\t// out\n\n    auxdata: 0xa26469706673582212208e49b27b7fe2c5d63cb5ad39dda1104b72159428c542539371ac00811295fad764736f6c63430008070033\n}\n",
				"bytecode": {
					"linkReferences": {},
					"object": "60806040523480156200001157600080fd5b5060405162001646380380620016468339818101604052810190620000379190620001f8565b82600360006101000a81548173ffffffffffffffffffffffffffffffffffffffff021916908373ffffffffffffffffffffffffffffffffffffffff160217905550816000908051906020019062000090929190620000b3565b508060019080519060200190620000a9929190620000b3565b5050505062000464565b828054620000c1906200035b565b90600052602060002090601f016020900481019282620000e5576000855562000131565b82601f106200010057805160ff191683800117855562000131565b8280016001018555821562000131579182015b828111156200013057825182559160200191906001019062000113565b5b50905062000140919062000144565b5090565b5b808211156200015f57600081600090555060010162000145565b5090565b60006200017a6200017484620002bb565b62000292565b9050828152602081018484840111156200019957620001986200042a565b5b620001a684828562000325565b509392505050565b600081519050620001bf816200044a565b92915050565b600082601f830112620001dd57620001dc62000425565b5b8151620001ef84826020860162000163565b91505092915050565b60008060006060848603121562000214576200021362000434565b5b60006200022486828701620001ae565b935050602084015167ffffffffffffffff8111156200024857620002476200042f565b5b6200025686828701620001c5565b925050604084015167ffffffffffffffff8111156200027a57620002796200042f565b5b6200028886828701620001c5565b9150509250925092565b60006200029e620002b1565b9050620002ac828262000391565b919050565b6000604051905090565b600067ffffffffffffffff821115620002d957620002d8620003f6565b5b620002e48262000439565b9050602081019050919050565b6000620002fe8262000305565b9050919050565b600073ffffffffffffffffffffffffffffffffffffffff82169050919050565b60005b838110156200034557808201518184015260208101905062000328565b8381111562000355576000848401525b50505050565b600060028204905060018216806200037457607f821691505b602082108114156200038b576200038a620003c7565b5b50919050565b6200039c8262000439565b810181811067ffffffffffffffff82111715620003be57620003bd620003f6565b5b80604052505050565b7f4e487b7100000000000000000000000000000000000000000000000000000000600052602260045260246000fd5b7f4e487b7100000000000000000000000000000000000000000000000000000000600052604160045260246000fd5b600080fd5b600080fd5b600080fd5b600080fd5b6000601f19601f8301169050919050565b6200045581620002f1565b81146200046157600080fd5b50565b6111d280620004746000396000f3fe608060405234801561001057600080fd5b50600436106100625760003560e01c806306fdde031461006757806323b872dd146100855780636352211e146100a157806395d89b41146100d1578063bf59b347146100ef578063d85d3d271461011f575b600080fd5b61006f61013b565b60405161007c9190610d7f565b60405180910390f35b61009f600480360381019061009a9190610b72565b6101cd565b005b6100bb60048036038101906100b69190610c0e565b610439565b6040516100c89190610d64565b60405180910390f35b6100d96104eb565b6040516100e69190610d7f565b60405180910390f35b61010960048036038101906101049190610c0e565b61057d565b6040516101169190610d7f565b60405180910390f35b61013960048036038101906101349190610bc5565b61061d565b005b60606000805461014a90610f6c565b80601f016020809104026020016040519081016040528092919081815260200182805461017690610f6c565b80156101c35780601f10610198576101008083540402835291602001916101c3565b820191906000526020600020905b8154815290600101906020018083116101a657829003601f168201915b5050505050905090565b8273ffffffffffffffffffffffffffffffffffffffff166005600083815260200190815260200160002060009054906101000a900473ffffffffffffffffffffffffffffffffffffffff1673ffffffffffffffffffffffffffffffffffffffff161461026e576040517f08c379a000000000000000000000000000000000000000000000000000000000815260040161026590610e01565b60405180910390fd5b600073ffffffffffffffffffffffffffffffffffffffff168273ffffffffffffffffffffffffffffffffffffffff1614156102de576040517f08c379a00000000000000000000000000000000000000000000000000000000081526004016102d590610da1565b60405180910390fd5b600460008473ffffffffffffffffffffffffffffffffffffffff1673ffffffffffffffffffffffffffffffffffffffff1681526020019081526020016000206000815480929190600190039190505550600460008373ffffffffffffffffffffffffffffffffffffffff1673ffffffffffffffffffffffffffffffffffffffff16815260200190815260200160002060008154809291906001019190505550816005600083815260200190815260200160002060006101000a81548173ffffffffffffffffffffffffffffffffffffffff021916908373ffffffffffffffffffffffffffffffffffffffff1602179055508173ffffffffffffffffffffffffffffffffffffffff168373ffffffffffffffffffffffffffffffffffffffff167fddf252ad1be2c89b69c2b068fc378daa952ba7f163c4a11628f55a4df523b3ef8360405161042c9190610e61565b60405180910390a3505050565b6000806005600084815260200190815260200160002060009054906101000a900473ffffffffffffffffffffffffffffffffffffffff169050600073ffffffffffffffffffffffffffffffffffffffff168173ffffffffffffffffffffffffffffffffffffffff1614156104e2576040517f08c379a00000000000000000000000000000000000000000000000000000000081526004016104d990610e21565b60405180910390fd5b80915050919050565b6060600180546104fa90610f6c565b80601f016020809104026020016040519081016040528092919081815260200182805461052690610f6c565b80156105735780601f1061054857610100808354040283529160200191610573565b820191906000526020600020905b81548152906001019060200180831161055657829003601f168201915b5050505050905090565b6008602052806000526040600020600091509050805461059c90610f6c565b80601f01602080910402602001604051908101604052809291908181526020018280546105c890610f6c565b80156106155780601f106105ea57610100808354040283529160200191610615565b820191906000526020600020905b8154815290600101906020018083116105f857829003601f168201915b505050505081565b6106276002610684565b6000610633600261069a565b905061063f33826106a8565b6106498183610966565b7f7f8949b6eca2b14d0feb1af0844a112998e467a4f88b8683301f3a6e409f32ae816040516106789190610e61565b60405180910390a15050565b6001816000016000828254019250508190555050565b600081600001549050919050565b600073ffffffffffffffffffffffffffffffffffffffff166007600083815260200190815260200160002060009054906101000a900473ffffffffffffffffffffffffffffffffffffffff1673ffffffffffffffffffffffffffffffffffffffff161461074a576040517f08c379a000000000000000000000000000000000000000000000000000000000815260040161074190610dc1565b60405180910390fd5b600073ffffffffffffffffffffffffffffffffffffffff168273ffffffffffffffffffffffffffffffffffffffff1614156107ba576040517f08c379a00000000000000000000000000000000000000000000000000000000081526004016107b190610e41565b60405180910390fd5b600460008373ffffffffffffffffffffffffffffffffffffffff1673ffffffffffffffffffffffffffffffffffffffff16815260200190815260200160002060008154809291906001019190505550600660008373ffffffffffffffffffffffffffffffffffffffff1673ffffffffffffffffffffffffffffffffffffffff16815260200190815260200160002060008154809291906001019190505550816005600083815260200190815260200160002060006101000a81548173ffffffffffffffffffffffffffffffffffffffff021916908373ffffffffffffffffffffffffffffffffffffffff160217905550816007600083815260200190815260200160002060006101000a81548173ffffffffffffffffffffffffffffffffffffffff021916908373ffffffffffffffffffffffffffffffffffffffff1602179055508173ffffffffffffffffffffffffffffffffffffffff16600073ffffffffffffffffffffffffffffffffffffffff167fddf252ad1be2c89b69c2b068fc378daa952ba7f163c4a11628f55a4df523b3ef8360405161095a9190610e61565b60405180910390a35050565b600073ffffffffffffffffffffffffffffffffffffffff166007600084815260200190815260200160002060009054906101000a900473ffffffffffffffffffffffffffffffffffffffff1673ffffffffffffffffffffffffffffffffffffffff161415610a09576040517f08c379a0000000000000000000000000000000000000000000000000000000008152600401610a0090610de1565b60405180910390fd5b80600860008481526020019081526020016000209080519060200190610a30929190610a35565b505050565b828054610a4190610f6c565b90600052602060002090601f016020900481019282610a635760008555610aaa565b82601f10610a7c57805160ff1916838001178555610aaa565b82800160010185558215610aaa579182015b82811115610aa9578251825591602001919060010190610a8e565b5b509050610ab79190610abb565b5090565b5b80821115610ad4576000816000905550600101610abc565b5090565b6000610aeb610ae684610ea1565b610e7c565b905082815260208101848484011115610b0757610b06611032565b5b610b12848285610f2a565b509392505050565b600081359050610b298161116e565b92915050565b600082601f830112610b4457610b4361102d565b5b8135610b54848260208601610ad8565b91505092915050565b600081359050610b6c81611185565b92915050565b600080600060608486031215610b8b57610b8a61103c565b5b6000610b9986828701610b1a565b9350506020610baa86828701610b1a565b9250506040610bbb86828701610b5d565b9150509250925092565b600060208284031215610bdb57610bda61103c565b5b600082013567ffffffffffffffff811115610bf957610bf8611037565b5b610c0584828501610b2f565b91505092915050565b600060208284031215610c2457610c2361103c565b5b6000610c3284828501610b5d565b91505092915050565b610c4481610eee565b82525050565b6000610c5582610ed2565b610c5f8185610edd565b9350610c6f818560208601610f39565b610c7881611041565b840191505092915050565b6000610c90602483610edd565b9150610c9b82611052565b604082019050919050565b6000610cb3601383610edd565b9150610cbe826110a1565b602082019050919050565b6000610cd6601383610edd565b9150610ce1826110ca565b602082019050919050565b6000610cf9601783610edd565b9150610d04826110f3565b602082019050919050565b6000610d1c601883610edd565b9150610d278261111c565b602082019050919050565b6000610d3f601883610edd565b9150610d4a82611145565b602082019050919050565b610d5e81610f20565b82525050565b6000602082019050610d796000830184610c3b565b92915050565b60006020820190508181036000830152610d998184610c4a565b905092915050565b60006020820190508181036000830152610dba81610c83565b9050919050565b60006020820190508181036000830152610dda81610ca6565b9050919050565b60006020820190508181036000830152610dfa81610cc9565b9050919050565b60006020820190508181036000830152610e1a81610cec565b9050919050565b60006020820190508181036000830152610e3a81610d0f565b9050919050565b60006020820190508181036000830152610e5a81610d32565b9050919050565b6000602082019050610e766000830184610d55565b92915050565b6000610e86610e97565b9050610e928282610f9e565b919050565b6000604051905090565b600067ffffffffffffffff821115610ebc57610ebb610ffe565b5b610ec582611041565b9050602081019050919050565b600081519050919050565b600082825260208201905092915050565b6000610ef982610f00565b9050919050565b600073ffffffffffffffffffffffffffffffffffffffff82169050919050565b6000819050919050565b82818337600083830152505050565b60005b83811015610f57578082015181840152602081019050610f3c565b83811115610f66576000848401525b50505050565b60006002820490506001821680610f8457607f821691505b60208210811415610f9857610f97610fcf565b5b50919050565b610fa782611041565b810181811067ffffffffffffffff82111715610fc657610fc5610ffe565b5b80604052505050565b7f4e487b7100000000000000000000000000000000000000000000000000000000600052602260045260246000fd5b7f4e487b7100000000000000000000000000000000000000000000000000000000600052604160045260246000fd5b600080fd5b600080fd5b600080fd5b600080fd5b6000601f19601f8301169050919050565b7f4552433732313a207472616e7366657220746f20746865207a65726f2061646460008201527f7265737300000000000000000000000000000000000000000000000000000000602082015250565b7f746f6b656e20616c726561647920657869737400000000000000000000000000600082015250565b7f746f6b656e20646f65736e277420657869737400000000000000000000000000600082015250565b7f4e6f742063616c6c656420627920746865206f776e6572000000000000000000600082015250565b7f4552433732313a20696e76616c696420746f6b656e2049440000000000000000600082015250565b7f6d696e7420746f20746865207a65726f20616464726573730000000000000000600082015250565b61117781610eee565b811461118257600080fd5b50565b61118e81610f20565b811461119957600080fd5b5056fea26469706673582212208e49b27b7fe2c5d63cb5ad39dda1104b72159428c542539371ac00811295fad764736f6c63430008070033",
					"opcodes": "PUSH1 0x80 PUSH1 0x40 MSTORE CALLVALUE DUP1 ISZERO PUSH3 0x11 JUMPI PUSH1 0x0 DUP1 REVERT JUMPDEST POP PUSH1 0x40 MLOAD PUSH3 0x1646 CODESIZE SUB DUP1 PUSH3 0x1646 DUP4 CODECOPY DUP2 DUP2 ADD PUSH1 0x40 MSTORE DUP2 ADD SWAP1 PUSH3 0x37 SWAP2 SWAP1 PUSH3 0x1F8 JUMP JUMPDEST DUP3 PUSH1 0x3 PUSH1 0x0 PUSH2 0x100 EXP DUP2 SLOAD DUP2 PUSH20 0xFFFFFFFFFFFFFFFFFFFFFFFFFFFFFFFFFFFFFFFF MUL NOT AND SWAP1 DUP4 PUSH20 0xFFFFFFFFFFFFFFFFFFFFFFFFFFFFFFFFFFFFFFFF AND MUL OR SWAP1 SSTORE POP DUP2 PUSH1 0x0 SWAP1 DUP1 MLOAD SWAP1 PUSH1 0x20 ADD SWAP1 PUSH3 0x90 SWAP3 SWAP2 SWAP1 PUSH3 0xB3 JUMP JUMPDEST POP DUP1 PUSH1 0x1 SWAP1 DUP1 MLOAD SWAP1 PUSH1 0x20 ADD SWAP1 PUSH3 0xA9 SWAP3 SWAP2 SWAP1 PUSH3 0xB3 JUMP JUMPDEST POP POP POP POP PUSH3 0x464 JUMP JUMPDEST DUP3 DUP1 SLOAD PUSH3 0xC1 SWAP1 PUSH3 0x35B JUMP JUMPDEST SWAP1 PUSH1 0x0 MSTORE PUSH1 0x20 PUSH1 0x0 KECCAK256 SWAP1 PUSH1 0x1F ADD PUSH1 0x20 SWAP1 DIV DUP2 ADD SWAP3 DUP3 PUSH3 0xE5 JUMPI PUSH1 0x0 DUP6 SSTORE PUSH3 0x131 JUMP JUMPDEST DUP3 PUSH1 0x1F LT PUSH3 0x100 JUMPI DUP1 MLOAD PUSH1 0xFF NOT AND DUP4 DUP1 ADD OR DUP6 SSTORE PUSH3 0x131 JUMP JUMPDEST DUP3 DUP1 ADD PUSH1 0x1 ADD DUP6 SSTORE DUP3 ISZERO PUSH3 0x131 JUMPI SWAP2 DUP3 ADD JUMPDEST DUP3 DUP2 GT ISZERO PUSH3 0x130 JUMPI DUP3 MLOAD DUP3 SSTORE SWAP2 PUSH1 0x20 ADD SWAP2 SWAP1 PUSH1 0x1 ADD SWAP1 PUSH3 0x113 JUMP JUMPDEST JUMPDEST POP SWAP1 POP PUSH3 0x140 SWAP2 SWAP1 PUSH3 0x144 JUMP JUMPDEST POP SWAP1 JUMP JUMPDEST JUMPDEST DUP1 DUP3 GT ISZERO PUSH3 0x15F JUMPI PUSH1 0x0 DUP2 PUSH1 0x0 SWAP1 SSTORE POP PUSH1 0x1 ADD PUSH3 0x145 JUMP JUMPDEST POP SWAP1 JUMP JUMPDEST PUSH1 0x0 PUSH3 0x17A PUSH3 0x174 DUP5 PUSH3 0x2BB JUMP JUMPDEST PUSH3 0x292 JUMP JUMPDEST SWAP1 POP DUP3 DUP2 MSTORE PUSH1 0x20 DUP2 ADD DUP5 DUP5 DUP5 ADD GT ISZERO PUSH3 0x199 JUMPI PUSH3 0x198 PUSH3 0x42A JUMP JUMPDEST JUMPDEST PUSH3 0x1A6 DUP5 DUP3 DUP6 PUSH3 0x325 JUMP JUMPDEST POP SWAP4 SWAP3 POP POP POP JUMP JUMPDEST PUSH1 0x0 DUP2 MLOAD SWAP1 POP PUSH3 0x1BF DUP2 PUSH3 0x44A JUMP JUMPDEST SWAP3 SWAP2 POP POP JUMP JUMPDEST PUSH1 0x0 DUP3 PUSH1 0x1F DUP4 ADD SLT PUSH3 0x1DD JUMPI PUSH3 0x1DC PUSH3 0x425 JUMP JUMPDEST JUMPDEST DUP2 MLOAD PUSH3 0x1EF DUP5 DUP3 PUSH1 0x20 DUP7 ADD PUSH3 0x163 JUMP JUMPDEST SWAP2 POP POP SWAP3 SWAP2 POP POP JUMP JUMPDEST PUSH1 0x0 DUP1 PUSH1 0x0 PUSH1 0x60 DUP5 DUP7 SUB SLT ISZERO PUSH3 0x214 JUMPI PUSH3 0x213 PUSH3 0x434 JUMP JUMPDEST JUMPDEST PUSH1 0x0 PUSH3 0x224 DUP7 DUP3 DUP8 ADD PUSH3 0x1AE JUMP JUMPDEST SWAP4 POP POP PUSH1 0x20 DUP5 ADD MLOAD PUSH8 0xFFFFFFFFFFFFFFFF DUP2 GT ISZERO PUSH3 0x248 JUMPI PUSH3 0x247 PUSH3 0x42F JUMP JUMPDEST JUMPDEST PUSH3 0x256 DUP7 DUP3 DUP8 ADD PUSH3 0x1C5 JUMP JUMPDEST SWAP3 POP POP PUSH1 0x40 DUP5 ADD MLOAD PUSH8 0xFFFFFFFFFFFFFFFF DUP2 GT ISZERO PUSH3 0x27A JUMPI PUSH3 0x279 PUSH3 0x42F JUMP JUMPDEST JUMPDEST PUSH3 0x288 DUP7 DUP3 DUP8 ADD PUSH3 0x1C5 JUMP JUMPDEST SWAP2 POP POP SWAP3 POP SWAP3 POP SWAP3 JUMP JUMPDEST PUSH1 0x0 PUSH3 0x29E PUSH3 0x2B1 JUMP JUMPDEST SWAP1 POP PUSH3 0x2AC DUP3 DUP3 PUSH3 0x391 JUMP JUMPDEST SWAP2 SWAP1 POP JUMP JUMPDEST PUSH1 0x0 PUSH1 0x40 MLOAD SWAP1 POP SWAP1 JUMP JUMPDEST PUSH1 0x0 PUSH8 0xFFFFFFFFFFFFFFFF DUP3 GT ISZERO PUSH3 0x2D9 JUMPI PUSH3 0x2D8 PUSH3 0x3F6 JUMP JUMPDEST JUMPDEST PUSH3 0x2E4 DUP3 PUSH3 0x439 JUMP JUMPDEST SWAP1 POP PUSH1 0x20 DUP2 ADD SWAP1 POP SWAP2 SWAP1 POP JUMP JUMPDEST PUSH1 0x0 PUSH3 0x2FE DUP3 PUSH3 0x305 JUMP JUMPDEST SWAP1 POP SWAP2 SWAP1 POP JUMP JUMPDEST PUSH1 0x0 PUSH20 0xFFFFFFFFFFFFFFFFFFFFFFFFFFFFFFFFFFFFFFFF DUP3 AND SWAP1 POP SWAP2 SWAP1 POP JUMP JUMPDEST PUSH1 0x0 JUMPDEST DUP4 DUP2 LT ISZERO PUSH3 0x345 JUMPI DUP1 DUP3 ADD MLOAD DUP2 DUP5 ADD MSTORE PUSH1 0x20 DUP2 ADD SWAP1 POP PUSH3 0x328 JUMP JUMPDEST DUP4 DUP2 GT ISZERO PUSH3 0x355 JUMPI PUSH1 0x0 DUP5 DUP5 ADD MSTORE JUMPDEST POP POP POP POP JUMP JUMPDEST PUSH1 0x0 PUSH1 0x2 DUP3 DIV SWAP1 POP PUSH1 0x1 DUP3 AND DUP1 PUSH3 0x374 JUMPI PUSH1 0x7F DUP3 AND SWAP2 POP JUMPDEST PUSH1 0x20 DUP3 LT DUP2 EQ ISZERO PUSH3 0x38B JUMPI PUSH3 0x38A PUSH3 0x3C7 JUMP JUMPDEST JUMPDEST POP SWAP2 SWAP1 POP JUMP JUMPDEST PUSH3 0x39C DUP3 PUSH3 0x439 JUMP JUMPDEST DUP2 ADD DUP2 DUP2 LT PUSH8 0xFFFFFFFFFFFFFFFF DUP3 GT OR ISZERO PUSH3 0x3BE JUMPI PUSH3 0x3BD PUSH3 0x3F6 JUMP JUMPDEST JUMPDEST DUP1 PUSH1 0x40 MSTORE POP POP POP JUMP JUMPDEST PUSH32 0x4E487B7100000000000000000000000000000000000000000000000000000000 PUSH1 0x0 MSTORE PUSH1 0x22 PUSH1 0x4 MSTORE PUSH1 0x24 PUSH1 0x0 REVERT JUMPDEST PUSH32 0x4E487B7100000000000000000000000000000000000000000000000000000000 PUSH1 0x0 MSTORE PUSH1 0x41 PUSH1 0x4 MSTORE PUSH1 0x24 PUSH1 0x0 REVERT JUMPDEST PUSH1 0x0 DUP1 REVERT JUMPDEST PUSH1 0x0 DUP1 REVERT JUMPDEST PUSH1 0x0 DUP1 REVERT JUMPDEST PUSH1 0x0 DUP1 REVERT JUMPDEST PUSH1 0x0 PUSH1 0x1F NOT PUSH1 0x1F DUP4 ADD AND SWAP1 POP SWAP2 SWAP1 POP JUMP JUMPDEST PUSH3 0x455 DUP2 PUSH3 0x2F1 JUMP JUMPDEST DUP2 EQ PUSH3 0x461 JUMPI PUSH1 0x0 DUP1 REVERT JUMPDEST POP JUMP JUMPDEST PUSH2 0x11D2 DUP1 PUSH3 0x474 PUSH1 0x0 CODECOPY PUSH1 0x0 RETURN INVALID PUSH1 0x80 PUSH1 0x40 MSTORE CALLVALUE DUP1 ISZERO PUSH2 0x10 JUMPI PUSH1 0x0 DUP1 REVERT JUMPDEST POP PUSH1 0x4 CALLDATASIZE LT PUSH2 0x62 JUMPI PUSH1 0x0 CALLDATALOAD PUSH1 0xE0 SHR DUP1 PUSH4 0x6FDDE03 EQ PUSH2 0x67 JUMPI DUP1 PUSH4 0x23B872DD EQ PUSH2 0x85 JUMPI DUP1 PUSH4 0x6352211E EQ PUSH2 0xA1 JUMPI DUP1 PUSH4 0x95D89B41 EQ PUSH2 0xD1 JUMPI DUP1 PUSH4 0xBF59B347 EQ PUSH2 0xEF JUMPI DUP1 PUSH4 0xD85D3D27 EQ PUSH2 0x11F JUMPI JUMPDEST PUSH1 0x0 DUP1 REVERT JUMPDEST PUSH2 0x6F PUSH2 0x13B JUMP JUMPDEST PUSH1 0x40 MLOAD PUSH2 0x7C SWAP2 SWAP1 PUSH2 0xD7F JUMP JUMPDEST PUSH1 0x40 MLOAD DUP1 SWAP2 SUB SWAP1 RETURN JUMPDEST PUSH2 0x9F PUSH1 0x4 DUP1 CALLDATASIZE SUB DUP2 ADD SWAP1 PUSH2 0x9A SWAP2 SWAP1 PUSH2 0xB72 JUMP JUMPDEST PUSH2 0x1CD JUMP JUMPDEST STOP JUMPDEST PUSH2 0xBB PUSH1 0x4 DUP1 CALLDATASIZE SUB DUP2 ADD SWAP1 PUSH2 0xB6 SWAP2 SWAP1 PUSH2 0xC0E JUMP JUMPDEST PUSH2 0x439 JUMP JUMPDEST PUSH1 0x40 MLOAD PUSH2 0xC8 SWAP2 SWAP1 PUSH2 0xD64 JUMP JUMPDEST PUSH1 0x40 MLOAD DUP1 SWAP2 SUB SWAP1 RETURN JUMPDEST PUSH2 0xD9 PUSH2 0x4EB JUMP JUMPDEST PUSH1 0x40 MLOAD PUSH2 0xE6 SWAP2 SWAP1 PUSH2 0xD7F JUMP JUMPDEST PUSH1 0x40 MLOAD DUP1 SWAP2 SUB SWAP1 RETURN JUMPDEST PUSH2 0x109 PUSH1 0x4 DUP1 CALLDATASIZE SUB DUP2 ADD SWAP1 PUSH2 0x104 SWAP2 SWAP1 PUSH2 0xC0E JUMP JUMPDEST PUSH2 0x57D JUMP JUMPDEST PUSH1 0x40 MLOAD PUSH2 0x116 SWAP2 SWAP1 PUSH2 0xD7F JUMP JUMPDEST PUSH1 0x40 MLOAD DUP1 SWAP2 SUB SWAP1 RETURN JUMPDEST PUSH2 0x139 PUSH1 0x4 DUP1 CALLDATASIZE SUB DUP2 ADD SWAP1 PUSH2 0x134 SWAP2 SWAP1 PUSH2 0xBC5 JUMP JUMPDEST PUSH2 0x61D JUMP JUMPDEST STOP JUMPDEST PUSH1 0x60 PUSH1 0x0 DUP1 SLOAD PUSH2 0x14A SWAP1 PUSH2 0xF6C JUMP JUMPDEST DUP1 PUSH1 0x1F ADD PUSH1 0x20 DUP1 SWAP2 DIV MUL PUSH1 0x20 ADD PUSH1 0x40 MLOAD SWAP1 DUP2 ADD PUSH1 0x40 MSTORE DUP1 SWAP3 SWAP2 SWAP1 DUP2 DUP2 MSTORE PUSH1 0x20 ADD DUP3 DUP1 SLOAD PUSH2 0x176 SWAP1 PUSH2 0xF6C JUMP JUMPDEST DUP1 ISZERO PUSH2 0x1C3 JUMPI DUP1 PUSH1 0x1F LT PUSH2 0x198 JUMPI PUSH2 0x100 DUP1 DUP4 SLOAD DIV MUL DUP4 MSTORE SWAP2 PUSH1 0x20 ADD SWAP2 PUSH2 0x1C3 JUMP JUMPDEST DUP3 ADD SWAP2 SWAP1 PUSH1 0x0 MSTORE PUSH1 0x20 PUSH1 0x0 KECCAK256 SWAP1 JUMPDEST DUP2 SLOAD DUP2 MSTORE SWAP1 PUSH1 0x1 ADD SWAP1 PUSH1 0x20 ADD DUP1 DUP4 GT PUSH2 0x1A6 JUMPI DUP3 SWAP1 SUB PUSH1 0x1F AND DUP3 ADD SWAP2 JUMPDEST POP POP POP POP POP SWAP1 POP SWAP1 JUMP JUMPDEST DUP3 PUSH20 0xFFFFFFFFFFFFFFFFFFFFFFFFFFFFFFFFFFFFFFFF AND PUSH1 0x5 PUSH1 0x0 DUP4 DUP2 MSTORE PUSH1 0x20 ADD SWAP1 DUP2 MSTORE PUSH1 0x20 ADD PUSH1 0x0 KECCAK256 PUSH1 0x0 SWAP1 SLOAD SWAP1 PUSH2 0x100 EXP SWAP1 DIV PUSH20 0xFFFFFFFFFFFFFFFFFFFFFFFFFFFFFFFFFFFFFFFF AND PUSH20 0xFFFFFFFFFFFFFFFFFFFFFFFFFFFFFFFFFFFFFFFF AND EQ PUSH2 0x26E JUMPI PUSH1 0x40 MLOAD PUSH32 0x8C379A000000000000000000000000000000000000000000000000000000000 DUP2 MSTORE PUSH1 0x4 ADD PUSH2 0x265 SWAP1 PUSH2 0xE01 JUMP JUMPDEST PUSH1 0x40 MLOAD DUP1 SWAP2 SUB SWAP1 REVERT JUMPDEST PUSH1 0x0 PUSH20 0xFFFFFFFFFFFFFFFFFFFFFFFFFFFFFFFFFFFFFFFF AND DUP3 PUSH20 0xFFFFFFFFFFFFFFFFFFFFFFFFFFFFFFFFFFFFFFFF AND EQ ISZERO PUSH2 0x2DE JUMPI PUSH1 0x40 MLOAD PUSH32 0x8C379A000000000000000000000000000000000000000000000000000000000 DUP2 MSTORE PUSH1 0x4 ADD PUSH2 0x2D5 SWAP1 PUSH2 0xDA1 JUMP JUMPDEST PUSH1 0x40 MLOAD DUP1 SWAP2 SUB SWAP1 REVERT JUMPDEST PUSH1 0x4 PUSH1 0x0 DUP5 PUSH20 0xFFFFFFFFFFFFFFFFFFFFFFFFFFFFFFFFFFFFFFFF AND PUSH20 0xFFFFFFFFFFFFFFFFFFFFFFFFFFFFFFFFFFFFFFFF AND DUP2 MSTORE PUSH1 0x20 ADD SWAP1 DUP2 MSTORE PUSH1 0x20 ADD PUSH1 0x0 KECCAK256 PUSH1 0x0 DUP2 SLOAD DUP1 SWAP3 SWAP2 SWAP1 PUSH1 0x1 SWAP1 SUB SWAP2 SWAP1 POP SSTORE POP PUSH1 0x4 PUSH1 0x0 DUP4 PUSH20 0xFFFFFFFFFFFFFFFFFFFFFFFFFFFFFFFFFFFFFFFF AND PUSH20 0xFFFFFFFFFFFFFFFFFFFFFFFFFFFFFFFFFFFFFFFF AND DUP2 MSTORE PUSH1 0x20 ADD SWAP1 DUP2 MSTORE PUSH1 0x20 ADD PUSH1 0x0 KECCAK256 PUSH1 0x0 DUP2 SLOAD DUP1 SWAP3 SWAP2 SWAP1 PUSH1 0x1 ADD SWAP2 SWAP1 POP SSTORE POP DUP2 PUSH1 0x5 PUSH1 0x0 DUP4 DUP2 MSTORE PUSH1 0x20 ADD SWAP1 DUP2 MSTORE PUSH1 0x20 ADD PUSH1 0x0 KECCAK256 PUSH1 0x0 PUSH2 0x100 EXP DUP2 SLOAD DUP2 PUSH20 0xFFFFFFFFFFFFFFFFFFFFFFFFFFFFFFFFFFFFFFFF MUL NOT AND SWAP1 DUP4 PUSH20 0xFFFFFFFFFFFFFFFFFFFFFFFFFFFFFFFFFFFFFFFF AND MUL OR SWAP1 SSTORE POP DUP2 PUSH20 0xFFFFFFFFFFFFFFFFFFFFFFFFFFFFFFFFFFFFFFFF AND DUP4 PUSH20 0xFFFFFFFFFFFFFFFFFFFFFFFFFFFFFFFFFFFFFFFF AND PUSH32 0xDDF252AD1BE2C89B69C2B068FC378DAA952BA7F163C4A11628F55A4DF523B3EF DUP4 PUSH1 0x40 MLOAD PUSH2 0x42C SWAP2 SWAP1 PUSH2 0xE61 JUMP JUMPDEST PUSH1 0x40 MLOAD DUP1 SWAP2 SUB SWAP1 LOG3 POP POP POP JUMP JUMPDEST PUSH1 0x0 DUP1 PUSH1 0x5 PUSH1 0x0 DUP5 DUP2 MSTORE PUSH1 0x20 ADD SWAP1 DUP2 MSTORE PUSH1 0x20 ADD PUSH1 0x0 KECCAK256 PUSH1 0x0 SWAP1 SLOAD SWAP1 PUSH2 0x100 EXP SWAP1 DIV PUSH20 0xFFFFFFFFFFFFFFFFFFFFFFFFFFFFFFFFFFFFFFFF AND SWAP1 POP PUSH1 0x0 PUSH20 0xFFFFFFFFFFFFFFFFFFFFFFFFFFFFFFFFFFFFFFFF AND DUP2 PUSH20 0xFFFFFFFFFFFFFFFFFFFFFFFFFFFFFFFFFFFFFFFF AND EQ ISZERO PUSH2 0x4E2 JUMPI PUSH1 0x40 MLOAD PUSH32 0x8C379A000000000000000000000000000000000000000000000000000000000 DUP2 MSTORE PUSH1 0x4 ADD PUSH2 0x4D9 SWAP1 PUSH2 0xE21 JUMP JUMPDEST PUSH1 0x40 MLOAD DUP1 SWAP2 SUB SWAP1 REVERT JUMPDEST DUP1 SWAP2 POP POP SWAP2 SWAP1 POP JUMP JUMPDEST PUSH1 0x60 PUSH1 0x1 DUP1 SLOAD PUSH2 0x4FA SWAP1 PUSH2 0xF6C JUMP JUMPDEST DUP1 PUSH1 0x1F ADD PUSH1 0x20 DUP1 SWAP2 DIV MUL PUSH1 0x20 ADD PUSH1 0x40 MLOAD SWAP1 DUP2 ADD PUSH1 0x40 MSTORE DUP1 SWAP3 SWAP2 SWAP1 DUP2 DUP2 MSTORE PUSH1 0x20 ADD DUP3 DUP1 SLOAD PUSH2 0x526 SWAP1 PUSH2 0xF6C JUMP JUMPDEST DUP1 ISZERO PUSH2 0x573 JUMPI DUP1 PUSH1 0x1F LT PUSH2 0x548 JUMPI PUSH2 0x100 DUP1 DUP4 SLOAD DIV MUL DUP4 MSTORE SWAP2 PUSH1 0x20 ADD SWAP2 PUSH2 0x573 JUMP JUMPDEST DUP3 ADD SWAP2 SWAP1 PUSH1 0x0 MSTORE PUSH1 0x20 PUSH1 0x0 KECCAK256 SWAP1 JUMPDEST DUP2 SLOAD DUP2 MSTORE SWAP1 PUSH1 0x1 ADD SWAP1 PUSH1 0x20 ADD DUP1 DUP4 GT PUSH2 0x556 JUMPI DUP3 SWAP1 SUB PUSH1 0x1F AND DUP3 ADD SWAP2 JUMPDEST POP POP POP POP POP SWAP1 POP SWAP1 JUMP JUMPDEST PUSH1 0x8 PUSH1 0x20 MSTORE DUP1 PUSH1 0x0 MSTORE PUSH1 0x40 PUSH1 0x0 KECCAK256 PUSH1 0x0 SWAP2 POP SWAP1 POP DUP1 SLOAD PUSH2 0x59C SWAP1 PUSH2 0xF6C JUMP JUMPDEST DUP1 PUSH1 0x1F ADD PUSH1 0x20 DUP1 SWAP2 DIV MUL PUSH1 0x20 ADD PUSH1 0x40 MLOAD SWAP1 DUP2 ADD PUSH1 0x40 MSTORE DUP1 SWAP3 SWAP2 SWAP1 DUP2 DUP2 MSTORE PUSH1 0x20 ADD DUP3 DUP1 SLOAD PUSH2 0x5C8 SWAP1 PUSH2 0xF6C JUMP JUMPDEST DUP1 ISZERO PUSH2 0x615 JUMPI DUP1 PUSH1 0x1F LT PUSH2 0x5EA JUMPI PUSH2 0x100 DUP1 DUP4 SLOAD DIV MUL DUP4 MSTORE SWAP2 PUSH1 0x20 ADD SWAP2 PUSH2 0x615 JUMP JUMPDEST DUP3 ADD SWAP2 SWAP1 PUSH1 0x0 MSTORE PUSH1 0x20 PUSH1 0x0 KECCAK256 SWAP1 JUMPDEST DUP2 SLOAD DUP2 MSTORE SWAP1 PUSH1 0x1 ADD SWAP1 PUSH1 0x20 ADD DUP1 DUP4 GT PUSH2 0x5F8 JUMPI DUP3 SWAP1 SUB PUSH1 0x1F AND DUP3 ADD SWAP2 JUMPDEST POP POP POP POP POP DUP2 JUMP JUMPDEST PUSH2 0x627 PUSH1 0x2 PUSH2 0x684 JUMP JUMPDEST PUSH1 0x0 PUSH2 0x633 PUSH1 0x2 PUSH2 0x69A JUMP JUMPDEST SWAP1 POP PUSH2 0x63F CALLER DUP3 PUSH2 0x6A8 JUMP JUMPDEST PUSH2 0x649 DUP2 DUP4 PUSH2 0x966 JUMP JUMPDEST PUSH32 0x7F8949B6ECA2B14D0FEB1AF0844A112998E467A4F88B8683301F3A6E409F32AE DUP2 PUSH1 0x40 MLOAD PUSH2 0x678 SWAP2 SWAP1 PUSH2 0xE61 JUMP JUMPDEST PUSH1 0x40 MLOAD DUP1 SWAP2 SUB SWAP1 LOG1 POP POP JUMP JUMPDEST PUSH1 0x1 DUP2 PUSH1 0x0 ADD PUSH1 0x0 DUP3 DUP3 SLOAD ADD SWAP3 POP POP DUP2 SWAP1 SSTORE POP POP JUMP JUMPDEST PUSH1 0x0 DUP2 PUSH1 0x0 ADD SLOAD SWAP1 POP SWAP2 SWAP1 POP JUMP JUMPDEST PUSH1 0x0 PUSH20 0xFFFFFFFFFFFFFFFFFFFFFFFFFFFFFFFFFFFFFFFF AND PUSH1 0x7 PUSH1 0x0 DUP4 DUP2 MSTORE PUSH1 0x20 ADD SWAP1 DUP2 MSTORE PUSH1 0x20 ADD PUSH1 0x0 KECCAK256 PUSH1 0x0 SWAP1 SLOAD SWAP1 PUSH2 0x100 EXP SWAP1 DIV PUSH20 0xFFFFFFFFFFFFFFFFFFFFFFFFFFFFFFFFFFFFFFFF AND PUSH20 0xFFFFFFFFFFFFFFFFFFFFFFFFFFFFFFFFFFFFFFFF AND EQ PUSH2 0x74A JUMPI PUSH1 0x40 MLOAD PUSH32 0x8C379A000000000000000000000000000000000000000000000000000000000 DUP2 MSTORE PUSH1 0x4 ADD PUSH2 0x741 SWAP1 PUSH2 0xDC1 JUMP JUMPDEST PUSH1 0x40 MLOAD DUP1 SWAP2 SUB SWAP1 REVERT JUMPDEST PUSH1 0x0 PUSH20 0xFFFFFFFFFFFFFFFFFFFFFFFFFFFFFFFFFFFFFFFF AND DUP3 PUSH20 0xFFFFFFFFFFFFFFFFFFFFFFFFFFFFFFFFFFFFFFFF AND EQ ISZERO PUSH2 0x7BA JUMPI PUSH1 0x40 MLOAD PUSH32 0x8C379A000000000000000000000000000000000000000000000000000000000 DUP2 MSTORE PUSH1 0x4 ADD PUSH2 0x7B1 SWAP1 PUSH2 0xE41 JUMP JUMPDEST PUSH1 0x40 MLOAD DUP1 SWAP2 SUB SWAP1 REVERT JUMPDEST PUSH1 0x4 PUSH1 0x0 DUP4 PUSH20 0xFFFFFFFFFFFFFFFFFFFFFFFFFFFFFFFFFFFFFFFF AND PUSH20 0xFFFFFFFFFFFFFFFFFFFFFFFFFFFFFFFFFFFFFFFF AND DUP2 MSTORE PUSH1 0x20 ADD SWAP1 DUP2 MSTORE PUSH1 0x20 ADD PUSH1 0x0 KECCAK256 PUSH1 0x0 DUP2 SLOAD DUP1 SWAP3 SWAP2 SWAP1 PUSH1 0x1 ADD SWAP2 SWAP1 POP SSTORE POP PUSH1 0x6 PUSH1 0x0 DUP4 PUSH20 0xFFFFFFFFFFFFFFFFFFFFFFFFFFFFFFFFFFFFFFFF AND PUSH20 0xFFFFFFFFFFFFFFFFFFFFFFFFFFFFFFFFFFFFFFFF AND DUP2 MSTORE PUSH1 0x20 ADD SWAP1 DUP2 MSTORE PUSH1 0x20 ADD PUSH1 0x0 KECCAK256 PUSH1 0x0 DUP2 SLOAD DUP1 SWAP3 SWAP2 SWAP1 PUSH1 0x1 ADD SWAP2 SWAP1 POP SSTORE POP DUP2 PUSH1 0x5 PUSH1 0x0 DUP4 DUP2 MSTORE PUSH1 0x20 ADD SWAP1 DUP2 MSTORE PUSH1 0x20 ADD PUSH1 0x0 KECCAK256 PUSH1 0x0 PUSH2 0x100 EXP DUP2 SLOAD DUP2 PUSH20 0xFFFFFFFFFFFFFFFFFFFFFFFFFFFFFFFFFFFFFFFF MUL NOT AND SWAP1 DUP4 PUSH20 0xFFFFFFFFFFFFFFFFFFFFFFFFFFFFFFFFFFFFFFFF AND MUL OR SWAP1 SSTORE POP DUP2 PUSH1 0x7 PUSH1 0x0 DUP4 DUP2 MSTORE PUSH1 0x20 ADD SWAP1 DUP2 MSTORE PUSH1 0x20 ADD PUSH1 0x0 KECCAK256 PUSH1 0x0 PUSH2 0x100 EXP DUP2 SLOAD DUP2 PUSH20 0xFFFFFFFFFFFFFFFFFFFFFFFFFFFFFFFFFFFFFFFF MUL NOT AND SWAP1 DUP4 PUSH20 0xFFFFFFFFFFFFFFFFFFFFFFFFFFFFFFFFFFFFFFFF AND MUL OR SWAP1 SSTORE POP DUP2 PUSH20 0xFFFFFFFFFFFFFFFFFFFFFFFFFFFFFFFFFFFFFFFF AND PUSH1 0x0 PUSH20 0xFFFFFFFFFFFFFFFFFFFFFFFFFFFFFFFFFFFFFFFF AND PUSH32 0xDDF252AD1BE2C89B69C2B068FC378DAA952BA7F163C4A11628F55A4DF523B3EF DUP4 PUSH1 0x40 MLOAD PUSH2 0x95A SWAP2 SWAP1 PUSH2 0xE61 JUMP JUMPDEST PUSH1 0x40 MLOAD DUP1 SWAP2 SUB SWAP1 LOG3 POP POP JUMP JUMPDEST PUSH1 0x0 PUSH20 0xFFFFFFFFFFFFFFFFFFFFFFFFFFFFFFFFFFFFFFFF AND PUSH1 0x7 PUSH1 0x0 DUP5 DUP2 MSTORE PUSH1 0x20 ADD SWAP1 DUP2 MSTORE PUSH1 0x20 ADD PUSH1 0x0 KECCAK256 PUSH1 0x0 SWAP1 SLOAD SWAP1 PUSH2 0x100 EXP SWAP1 DIV PUSH20 0xFFFFFFFFFFFFFFFFFFFFFFFFFFFFFFFFFFFFFFFF AND PUSH20 0xFFFFFFFFFFFFFFFFFFFFFFFFFFFFFFFFFFFFFFFF AND EQ ISZERO PUSH2 0xA09 JUMPI PUSH1 0x40 MLOAD PUSH32 0x8C379A000000000000000000000000000000000000000000000000000000000 DUP2 MSTORE PUSH1 0x4 ADD PUSH2 0xA00 SWAP1 PUSH2 0xDE1 JUMP JUMPDEST PUSH1 0x40 MLOAD DUP1 SWAP2 SUB SWAP1 REVERT JUMPDEST DUP1 PUSH1 0x8 PUSH1 0x0 DUP5 DUP2 MSTORE PUSH1 0x20 ADD SWAP1 DUP2 MSTORE PUSH1 0x20 ADD PUSH1 0x0 KECCAK256 SWAP1 DUP1 MLOAD SWAP1 PUSH1 0x20 ADD SWAP1 PUSH2 0xA30 SWAP3 SWAP2 SWAP1 PUSH2 0xA35 JUMP JUMPDEST POP POP POP JUMP JUMPDEST DUP3 DUP1 SLOAD PUSH2 0xA41 SWAP1 PUSH2 0xF6C JUMP JUMPDEST SWAP1 PUSH1 0x0 MSTORE PUSH1 0x20 PUSH1 0x0 KECCAK256 SWAP1 PUSH1 0x1F ADD PUSH1 0x20 SWAP1 DIV DUP2 ADD SWAP3 DUP3 PUSH2 0xA63 JUMPI PUSH1 0x0 DUP6 SSTORE PUSH2 0xAAA JUMP JUMPDEST DUP3 PUSH1 0x1F LT PUSH2 0xA7C JUMPI DUP1 MLOAD PUSH1 0xFF NOT AND DUP4 DUP1 ADD OR DUP6 SSTORE PUSH2 0xAAA JUMP JUMPDEST DUP3 DUP1 ADD PUSH1 0x1 ADD DUP6 SSTORE DUP3 ISZERO PUSH2 0xAAA JUMPI SWAP2 DUP3 ADD JUMPDEST DUP3 DUP2 GT ISZERO PUSH2 0xAA9 JUMPI DUP3 MLOAD DUP3 SSTORE SWAP2 PUSH1 0x20 ADD SWAP2 SWAP1 PUSH1 0x1 ADD SWAP1 PUSH2 0xA8E JUMP JUMPDEST JUMPDEST POP SWAP1 POP PUSH2 0xAB7 SWAP2 SWAP1 PUSH2 0xABB JUMP JUMPDEST POP SWAP1 JUMP JUMPDEST JUMPDEST DUP1 DUP3 GT ISZERO PUSH2 0xAD4 JUMPI PUSH1 0x0 DUP2 PUSH1 0x0 SWAP1 SSTORE POP PUSH1 0x1 ADD PUSH2 0xABC JUMP JUMPDEST POP SWAP1 JUMP JUMPDEST PUSH1 0x0 PUSH2 0xAEB PUSH2 0xAE6 DUP5 PUSH2 0xEA1 JUMP JUMPDEST PUSH2 0xE7C JUMP JUMPDEST SWAP1 POP DUP3 DUP2 MSTORE PUSH1 0x20 DUP2 ADD DUP5 DUP5 DUP5 ADD GT ISZERO PUSH2 0xB07 JUMPI PUSH2 0xB06 PUSH2 0x1032 JUMP JUMPDEST JUMPDEST PUSH2 0xB12 DUP5 DUP3 DUP6 PUSH2 0xF2A JUMP JUMPDEST POP SWAP4 SWAP3 POP POP POP JUMP JUMPDEST PUSH1 0x0 DUP2 CALLDATALOAD SWAP1 POP PUSH2 0xB29 DUP2 PUSH2 0x116E JUMP JUMPDEST SWAP3 SWAP2 POP POP JUMP JUMPDEST PUSH1 0x0 DUP3 PUSH1 0x1F DUP4 ADD SLT PUSH2 0xB44 JUMPI PUSH2 0xB43 PUSH2 0x102D JUMP JUMPDEST JUMPDEST DUP2 CALLDATALOAD PUSH2 0xB54 DUP5 DUP3 PUSH1 0x20 DUP7 ADD PUSH2 0xAD8 JUMP JUMPDEST SWAP2 POP POP SWAP3 SWAP2 POP POP JUMP JUMPDEST PUSH1 0x0 DUP2 CALLDATALOAD SWAP1 POP PUSH2 0xB6C DUP2 PUSH2 0x1185 JUMP JUMPDEST SWAP3 SWAP2 POP POP JUMP JUMPDEST PUSH1 0x0 DUP1 PUSH1 0x0 PUSH1 0x60 DUP5 DUP7 SUB SLT ISZERO PUSH2 0xB8B JUMPI PUSH2 0xB8A PUSH2 0x103C JUMP JUMPDEST JUMPDEST PUSH1 0x0 PUSH2 0xB99 DUP7 DUP3 DUP8 ADD PUSH2 0xB1A JUMP JUMPDEST SWAP4 POP POP PUSH1 0x20 PUSH2 0xBAA DUP7 DUP3 DUP8 ADD PUSH2 0xB1A JUMP JUMPDEST SWAP3 POP POP PUSH1 0x40 PUSH2 0xBBB DUP7 DUP3 DUP8 ADD PUSH2 0xB5D JUMP JUMPDEST SWAP2 POP POP SWAP3 POP SWAP3 POP SWAP3 JUMP JUMPDEST PUSH1 0x0 PUSH1 0x20 DUP3 DUP5 SUB SLT ISZERO PUSH2 0xBDB JUMPI PUSH2 0xBDA PUSH2 0x103C JUMP JUMPDEST JUMPDEST PUSH1 0x0 DUP3 ADD CALLDATALOAD PUSH8 0xFFFFFFFFFFFFFFFF DUP2 GT ISZERO PUSH2 0xBF9 JUMPI PUSH2 0xBF8 PUSH2 0x1037 JUMP JUMPDEST JUMPDEST PUSH2 0xC05 DUP5 DUP3 DUP6 ADD PUSH2 0xB2F JUMP JUMPDEST SWAP2 POP POP SWAP3 SWAP2 POP POP JUMP JUMPDEST PUSH1 0x0 PUSH1 0x20 DUP3 DUP5 SUB SLT ISZERO PUSH2 0xC24 JUMPI PUSH2 0xC23 PUSH2 0x103C JUMP JUMPDEST JUMPDEST PUSH1 0x0 PUSH2 0xC32 DUP5 DUP3 DUP6 ADD PUSH2 0xB5D JUMP JUMPDEST SWAP2 POP POP SWAP3 SWAP2 POP POP JUMP JUMPDEST PUSH2 0xC44 DUP2 PUSH2 0xEEE JUMP JUMPDEST DUP3 MSTORE POP POP JUMP JUMPDEST PUSH1 0x0 PUSH2 0xC55 DUP3 PUSH2 0xED2 JUMP JUMPDEST PUSH2 0xC5F DUP2 DUP6 PUSH2 0xEDD JUMP JUMPDEST SWAP4 POP PUSH2 0xC6F DUP2 DUP6 PUSH1 0x20 DUP7 ADD PUSH2 0xF39 JUMP JUMPDEST PUSH2 0xC78 DUP2 PUSH2 0x1041 JUMP JUMPDEST DUP5 ADD SWAP2 POP POP SWAP3 SWAP2 POP POP JUMP JUMPDEST PUSH1 0x0 PUSH2 0xC90 PUSH1 0x24 DUP4 PUSH2 0xEDD JUMP JUMPDEST SWAP2 POP PUSH2 0xC9B DUP3 PUSH2 0x1052 JUMP JUMPDEST PUSH1 0x40 DUP3 ADD SWAP1 POP SWAP2 SWAP1 POP JUMP JUMPDEST PUSH1 0x0 PUSH2 0xCB3 PUSH1 0x13 DUP4 PUSH2 0xEDD JUMP JUMPDEST SWAP2 POP PUSH2 0xCBE DUP3 PUSH2 0x10A1 JUMP JUMPDEST PUSH1 0x20 DUP3 ADD SWAP1 POP SWAP2 SWAP1 POP JUMP JUMPDEST PUSH1 0x0 PUSH2 0xCD6 PUSH1 0x13 DUP4 PUSH2 0xEDD JUMP JUMPDEST SWAP2 POP PUSH2 0xCE1 DUP3 PUSH2 0x10CA JUMP JUMPDEST PUSH1 0x20 DUP3 ADD SWAP1 POP SWAP2 SWAP1 POP JUMP JUMPDEST PUSH1 0x0 PUSH2 0xCF9 PUSH1 0x17 DUP4 PUSH2 0xEDD JUMP JUMPDEST SWAP2 POP PUSH2 0xD04 DUP3 PUSH2 0x10F3 JUMP JUMPDEST PUSH1 0x20 DUP3 ADD SWAP1 POP SWAP2 SWAP1 POP JUMP JUMPDEST PUSH1 0x0 PUSH2 0xD1C PUSH1 0x18 DUP4 PUSH2 0xEDD JUMP JUMPDEST SWAP2 POP PUSH2 0xD27 DUP3 PUSH2 0x111C JUMP JUMPDEST PUSH1 0x20 DUP3 ADD SWAP1 POP SWAP2 SWAP1 POP JUMP JUMPDEST PUSH1 0x0 PUSH2 0xD3F PUSH1 0x18 DUP4 PUSH2 0xEDD JUMP JUMPDEST SWAP2 POP PUSH2 0xD4A DUP3 PUSH2 0x1145 JUMP JUMPDEST PUSH1 0x20 DUP3 ADD SWAP1 POP SWAP2 SWAP1 POP JUMP JUMPDEST PUSH2 0xD5E DUP2 PUSH2 0xF20 JUMP JUMPDEST DUP3 MSTORE POP POP JUMP JUMPDEST PUSH1 0x0 PUSH1 0x20 DUP3 ADD SWAP1 POP PUSH2 0xD79 PUSH1 0x0 DUP4 ADD DUP5 PUSH2 0xC3B JUMP JUMPDEST SWAP3 SWAP2 POP POP JUMP JUMPDEST PUSH1 0x0 PUSH1 0x20 DUP3 ADD SWAP1 POP DUP2 DUP2 SUB PUSH1 0x0 DUP4 ADD MSTORE PUSH2 0xD99 DUP2 DUP5 PUSH2 0xC4A JUMP JUMPDEST SWAP1 POP SWAP3 SWAP2 POP POP JUMP JUMPDEST PUSH1 0x0 PUSH1 0x20 DUP3 ADD SWAP1 POP DUP2 DUP2 SUB PUSH1 0x0 DUP4 ADD MSTORE PUSH2 0xDBA DUP2 PUSH2 0xC83 JUMP JUMPDEST SWAP1 POP SWAP2 SWAP1 POP JUMP JUMPDEST PUSH1 0x0 PUSH1 0x20 DUP3 ADD SWAP1 POP DUP2 DUP2 SUB PUSH1 0x0 DUP4 ADD MSTORE PUSH2 0xDDA DUP2 PUSH2 0xCA6 JUMP JUMPDEST SWAP1 POP SWAP2 SWAP1 POP JUMP JUMPDEST PUSH1 0x0 PUSH1 0x20 DUP3 ADD SWAP1 POP DUP2 DUP2 SUB PUSH1 0x0 DUP4 ADD MSTORE PUSH2 0xDFA DUP2 PUSH2 0xCC9 JUMP JUMPDEST SWAP1 POP SWAP2 SWAP1 POP JUMP JUMPDEST PUSH1 0x0 PUSH1 0x20 DUP3 ADD SWAP1 POP DUP2 DUP2 SUB PUSH1 0x0 DUP4 ADD MSTORE PUSH2 0xE1A DUP2 PUSH2 0xCEC JUMP JUMPDEST SWAP1 POP SWAP2 SWAP1 POP JUMP JUMPDEST PUSH1 0x0 PUSH1 0x20 DUP3 ADD SWAP1 POP DUP2 DUP2 SUB PUSH1 0x0 DUP4 ADD MSTORE PUSH2 0xE3A DUP2 PUSH2 0xD0F JUMP JUMPDEST SWAP1 POP SWAP2 SWAP1 POP JUMP JUMPDEST PUSH1 0x0 PUSH1 0x20 DUP3 ADD SWAP1 POP DUP2 DUP2 SUB PUSH1 0x0 DUP4 ADD MSTORE PUSH2 0xE5A DUP2 PUSH2 0xD32 JUMP JUMPDEST SWAP1 POP SWAP2 SWAP1 POP JUMP JUMPDEST PUSH1 0x0 PUSH1 0x20 DUP3 ADD SWAP1 POP PUSH2 0xE76 PUSH1 0x0 DUP4 ADD DUP5 PUSH2 0xD55 JUMP JUMPDEST SWAP3 SWAP2 POP POP JUMP JUMPDEST PUSH1 0x0 PUSH2 0xE86 PUSH2 0xE97 JUMP JUMPDEST SWAP1 POP PUSH2 0xE92 DUP3 DUP3 PUSH2 0xF9E JUMP JUMPDEST SWAP2 SWAP1 POP JUMP JUMPDEST PUSH1 0x0 PUSH1 0x40 MLOAD SWAP1 POP SWAP1 JUMP JUMPDEST PUSH1 0x0 PUSH8 0xFFFFFFFFFFFFFFFF DUP3 GT ISZERO PUSH2 0xEBC JUMPI PUSH2 0xEBB PUSH2 0xFFE JUMP JUMPDEST JUMPDEST PUSH2 0xEC5 DUP3 PUSH2 0x1041 JUMP JUMPDEST SWAP1 POP PUSH1 0x20 DUP2 ADD SWAP1 POP SWAP2 SWAP1 POP JUMP JUMPDEST PUSH1 0x0 DUP2 MLOAD SWAP1 POP SWAP2 SWAP1 POP JUMP JUMPDEST PUSH1 0x0 DUP3 DUP3 MSTORE PUSH1 0x20 DUP3 ADD SWAP1 POP SWAP3 SWAP2 POP POP JUMP JUMPDEST PUSH1 0x0 PUSH2 0xEF9 DUP3 PUSH2 0xF00 JUMP JUMPDEST SWAP1 POP SWAP2 SWAP1 POP JUMP JUMPDEST PUSH1 0x0 PUSH20 0xFFFFFFFFFFFFFFFFFFFFFFFFFFFFFFFFFFFFFFFF DUP3 AND SWAP1 POP SWAP2 SWAP1 POP JUMP JUMPDEST PUSH1 0x0 DUP2 SWAP1 POP SWAP2 SWAP1 POP JUMP JUMPDEST DUP3 DUP2 DUP4 CALLDATACOPY PUSH1 0x0 DUP4 DUP4 ADD MSTORE POP POP POP JUMP JUMPDEST PUSH1 0x0 JUMPDEST DUP4 DUP2 LT ISZERO PUSH2 0xF57 JUMPI DUP1 DUP3 ADD MLOAD DUP2 DUP5 ADD MSTORE PUSH1 0x20 DUP2 ADD SWAP1 POP PUSH2 0xF3C JUMP JUMPDEST DUP4 DUP2 GT ISZERO PUSH2 0xF66 JUMPI PUSH1 0x0 DUP5 DUP5 ADD MSTORE JUMPDEST POP POP POP POP JUMP JUMPDEST PUSH1 0x0 PUSH1 0x2 DUP3 DIV SWAP1 POP PUSH1 0x1 DUP3 AND DUP1 PUSH2 0xF84 JUMPI PUSH1 0x7F DUP3 AND SWAP2 POP JUMPDEST PUSH1 0x20 DUP3 LT DUP2 EQ ISZERO PUSH2 0xF98 JUMPI PUSH2 0xF97 PUSH2 0xFCF JUMP JUMPDEST JUMPDEST POP SWAP2 SWAP1 POP JUMP JUMPDEST PUSH2 0xFA7 DUP3 PUSH2 0x1041 JUMP JUMPDEST DUP2 ADD DUP2 DUP2 LT PUSH8 0xFFFFFFFFFFFFFFFF DUP3 GT OR ISZERO PUSH2 0xFC6 JUMPI PUSH2 0xFC5 PUSH2 0xFFE JUMP JUMPDEST JUMPDEST DUP1 PUSH1 0x40 MSTORE POP POP POP JUMP JUMPDEST PUSH32 0x4E487B7100000000000000000000000000000000000000000000000000000000 PUSH1 0x0 MSTORE PUSH1 0x22 PUSH1 0x4 MSTORE PUSH1 0x24 PUSH1 0x0 REVERT JUMPDEST PUSH32 0x4E487B7100000000000000000000000000000000000000000000000000000000 PUSH1 0x0 MSTORE PUSH1 0x41 PUSH1 0x4 MSTORE PUSH1 0x24 PUSH1 0x0 REVERT JUMPDEST PUSH1 0x0 DUP1 REVERT JUMPDEST PUSH1 0x0 DUP1 REVERT JUMPDEST PUSH1 0x0 DUP1 REVERT JUMPDEST PUSH1 0x0 DUP1 REVERT JUMPDEST PUSH1 0x0 PUSH1 0x1F NOT PUSH1 0x1F DUP4 ADD AND SWAP1 POP SWAP2 SWAP1 POP JUMP JUMPDEST PUSH32 0x4552433732313A207472616E7366657220746F20746865207A65726F20616464 PUSH1 0x0 DUP3 ADD MSTORE PUSH32 0x7265737300000000000000000000000000000000000000000000000000000000 PUSH1 0x20 DUP3 ADD MSTORE POP JUMP JUMPDEST PUSH32 0x746F6B656E20616C726561647920657869737400000000000000000000000000 PUSH1 0x0 DUP3 ADD MSTORE POP JUMP JUMPDEST PUSH32 0x746F6B656E20646F65736E277420657869737400000000000000000000000000 PUSH1 0x0 DUP3 ADD MSTORE POP JUMP JUMPDEST PUSH32 0x4E6F742063616C6C656420627920746865206F776E6572000000000000000000 PUSH1 0x0 DUP3 ADD MSTORE POP JUMP JUMPDEST PUSH32 0x4552433732313A20696E76616C696420746F6B656E2049440000000000000000 PUSH1 0x0 DUP3 ADD MSTORE POP JUMP JUMPDEST PUSH32 0x6D696E7420746F20746865207A65726F20616464726573730000000000000000 PUSH1 0x0 DUP3 ADD MSTORE POP JUMP JUMPDEST PUSH2 0x1177 DUP2 PUSH2 0xEEE JUMP JUMPDEST DUP2 EQ PUSH2 0x1182 JUMPI PUSH1 0x0 DUP1 REVERT JUMPDEST POP JUMP JUMPDEST PUSH2 0x118E DUP2 PUSH2 0xF20 JUMP JUMPDEST DUP2 EQ PUSH2 0x1199 JUMPI PUSH1 0x0 DUP1 REVERT JUMPDEST POP JUMP INVALID LOG2 PUSH5 0x6970667358 0x22 SLT KECCAK256 DUP15 0x49 0xB2 PUSH28 0x7FE2C5D63CB5AD39DDA1104B72159428C542539371AC00811295FAD7 PUSH5 0x736F6C6343 STOP ADDMOD SMOD STOP CALLER "
				},
				"gasEstimates": {
					"creation": {
						"codeDepositCost": "912400",
						"executionCost": "infinite",
						"totalCost": "infinite"
					},
					"external": {
						"mint(string)": "infinite",
						"name()": "infinite",
						"ownerOf(uint256)": "2981",
						"symbol()": "infinite",
						"tokenToUri(uint256)": "infinite",
						"transferFrom(address,address,uint256)": "infinite"
					},
					"internal": {
						"_safeMint(address,uint256)": "infinite",
						"_setTokenUri(uint256,string memory)": "infinite"
					}
				},
				"methodIdentifiers": {
					"mint(string)": "d85d3d27",
					"name()": "06fdde03",
					"ownerOf(uint256)": "6352211e",
					"symbol()": "95d89b41",
					"tokenToUri(uint256)": "bf59b347",
					"transferFrom(address,address,uint256)": "23b872dd"
				}
			},
			"storageLayout": {
				"storage": [
					{
						"astId": 82,
						"contract": "contracts/GeekNft.sol:GeekNft",
						"label": "_name",
						"offset": 0,
						"slot": "0",
						"type": "t_string_storage"
					},
					{
						"astId": 84,
						"contract": "contracts/GeekNft.sol:GeekNft",
						"label": "_symbol",
						"offset": 0,
						"slot": "1",
						"type": "t_string_storage"
					},
					{
						"astId": 87,
						"contract": "contracts/GeekNft.sol:GeekNft",
						"label": "tokenIds",
						"offset": 0,
						"slot": "2",
						"type": "t_struct(Counter)5_storage"
					},
					{
						"astId": 89,
						"contract": "contracts/GeekNft.sol:GeekNft",
						"label": "marketplaceAddress",
						"offset": 0,
						"slot": "3",
						"type": "t_address"
					},
					{
						"astId": 93,
						"contract": "contracts/GeekNft.sol:GeekNft",
						"label": "tokensOwnerCount",
						"offset": 0,
						"slot": "4",
						"type": "t_mapping(t_address,t_uint256)"
					},
					{
						"astId": 97,
						"contract": "contracts/GeekNft.sol:GeekNft",
						"label": "tokenToOwner",
						"offset": 0,
						"slot": "5",
						"type": "t_mapping(t_uint256,t_address)"
					},
					{
						"astId": 101,
						"contract": "contracts/GeekNft.sol:GeekNft",
						"label": "tokensCreatorCount",
						"offset": 0,
						"slot": "6",
						"type": "t_mapping(t_address,t_uint256)"
					},
					{
						"astId": 105,
						"contract": "contracts/GeekNft.sol:GeekNft",
						"label": "tokenToCreator",
						"offset": 0,
						"slot": "7",
						"type": "t_mapping(t_uint256,t_address)"
					},
					{
						"astId": 109,
						"contract": "contracts/GeekNft.sol:GeekNft",
						"label": "tokenToUri",
						"offset": 0,
						"slot": "8",
						"type": "t_mapping(t_uint256,t_string_storage)"
					}
				],
				"types": {
					"t_address": {
						"encoding": "inplace",
						"label": "address",
						"numberOfBytes": "20"
					},
					"t_mapping(t_address,t_uint256)": {
						"encoding": "mapping",
						"key": "t_address",
						"label": "mapping(address => uint256)",
						"numberOfBytes": "32",
						"value": "t_uint256"
					},
					"t_mapping(t_uint256,t_address)": {
						"encoding": "mapping",
						"key": "t_uint256",
						"label": "mapping(uint256 => address)",
						"numberOfBytes": "32",
						"value": "t_address"
					},
					"t_mapping(t_uint256,t_string_storage)": {
						"encoding": "mapping",
						"key": "t_uint256",
						"label": "mapping(uint256 => string)",
						"numberOfBytes": "32",
						"value": "t_string_storage"
					},
					"t_string_storage": {
						"encoding": "bytes",
						"label": "string",
						"numberOfBytes": "32"
					},
					"t_struct(Counter)5_storage": {
						"encoding": "inplace",
						"label": "struct Counters.Counter",
						"members": [
							{
								"astId": 4,
								"contract": "contracts/GeekNft.sol:GeekNft",
								"label": "_value",
								"offset": 0,
								"slot": "0",
								"type": "t_uint256"
							}
						],
						"numberOfBytes": "32"
					},
					"t_uint256": {
						"encoding": "inplace",
						"label": "uint256",
						"numberOfBytes": "32"
					}
				}
			},
			"userdoc": {
				"kind": "user",
				"methods": {},
				"version": 1
			}
		}
	}
}