{
	"contracts/GeekNftMarketPlace.sol": {
		"GeekNftMarketPlace": {
			"abi": [
				{
					"inputs": [],
					"stateMutability": "nonpayable",
					"type": "constructor"
				},
				{
					"anonymous": false,
					"inputs": [
						{
							"indexed": false,
							"internalType": "address",
							"name": "nftContract",
							"type": "address"
						},
						{
							"indexed": false,
							"internalType": "uint256",
							"name": "tokenId",
							"type": "uint256"
						},
						{
							"indexed": true,
							"internalType": "address",
							"name": "seller",
							"type": "address"
						},
						{
							"indexed": true,
							"internalType": "address",
							"name": "owner",
							"type": "address"
						},
						{
							"indexed": false,
							"internalType": "uint256",
							"name": "price",
							"type": "uint256"
						}
					],
					"name": "NFTListed",
					"type": "event"
				},
				{
					"anonymous": false,
					"inputs": [
						{
							"indexed": false,
							"internalType": "address",
							"name": "nftContract",
							"type": "address"
						},
						{
							"indexed": false,
							"internalType": "uint256",
							"name": "tokenId",
							"type": "uint256"
						},
						{
							"indexed": true,
							"internalType": "address",
							"name": "seller",
							"type": "address"
						},
						{
							"indexed": true,
							"internalType": "address",
							"name": "owner",
							"type": "address"
						},
						{
							"indexed": false,
							"internalType": "uint256",
							"name": "price",
							"type": "uint256"
						}
					],
					"name": "NFTSold",
					"type": "event"
				},
				{
					"inputs": [],
					"name": "LISTING_FEE",
					"outputs": [
						{
							"internalType": "uint256",
							"name": "",
							"type": "uint256"
						}
					],
					"stateMutability": "view",
					"type": "function"
				},
				{
					"inputs": [
						{
							"internalType": "address",
							"name": "_nftContract",
							"type": "address"
						},
						{
							"internalType": "uint256",
							"name": "_tokenId",
							"type": "uint256"
						}
					],
					"name": "buyNft",
					"outputs": [],
					"stateMutability": "payable",
					"type": "function"
				},
				{
					"inputs": [],
					"name": "getListedNfts",
					"outputs": [
						{
							"components": [
								{
									"internalType": "address",
									"name": "nftContract",
									"type": "address"
								},
								{
									"internalType": "uint256",
									"name": "tokenId",
									"type": "uint256"
								},
								{
									"internalType": "uint256",
									"name": "price",
									"type": "uint256"
								},
								{
									"internalType": "address payable",
									"name": "seller",
									"type": "address"
								},
								{
									"internalType": "address payable",
									"name": "owner",
									"type": "address"
								},
								{
									"internalType": "address payable",
									"name": "creator",
									"type": "address"
								},
								{
									"internalType": "bool",
									"name": "listed",
									"type": "bool"
								}
							],
							"internalType": "struct GeekNftMarketPlace.NFT[]",
							"name": "",
							"type": "tuple[]"
						}
					],
					"stateMutability": "view",
					"type": "function"
				},
				{
					"inputs": [],
					"name": "getListingFee",
					"outputs": [
						{
							"internalType": "uint256",
							"name": "",
							"type": "uint256"
						}
					],
					"stateMutability": "view",
					"type": "function"
				},
				{
					"inputs": [],
					"name": "getMyCreatedNfts",
					"outputs": [
						{
							"components": [
								{
									"internalType": "address",
									"name": "nftContract",
									"type": "address"
								},
								{
									"internalType": "uint256",
									"name": "tokenId",
									"type": "uint256"
								},
								{
									"internalType": "uint256",
									"name": "price",
									"type": "uint256"
								},
								{
									"internalType": "address payable",
									"name": "seller",
									"type": "address"
								},
								{
									"internalType": "address payable",
									"name": "owner",
									"type": "address"
								},
								{
									"internalType": "address payable",
									"name": "creator",
									"type": "address"
								},
								{
									"internalType": "bool",
									"name": "listed",
									"type": "bool"
								}
							],
							"internalType": "struct GeekNftMarketPlace.NFT[]",
							"name": "",
							"type": "tuple[]"
						}
					],
					"stateMutability": "view",
					"type": "function"
				},
				{
					"inputs": [],
					"name": "getMyListedNfts",
					"outputs": [
						{
							"components": [
								{
									"internalType": "address",
									"name": "nftContract",
									"type": "address"
								},
								{
									"internalType": "uint256",
									"name": "tokenId",
									"type": "uint256"
								},
								{
									"internalType": "uint256",
									"name": "price",
									"type": "uint256"
								},
								{
									"internalType": "address payable",
									"name": "seller",
									"type": "address"
								},
								{
									"internalType": "address payable",
									"name": "owner",
									"type": "address"
								},
								{
									"internalType": "address payable",
									"name": "creator",
									"type": "address"
								},
								{
									"internalType": "bool",
									"name": "listed",
									"type": "bool"
								}
							],
							"internalType": "struct GeekNftMarketPlace.NFT[]",
							"name": "",
							"type": "tuple[]"
						}
					],
					"stateMutability": "view",
					"type": "function"
				},
				{
					"inputs": [],
					"name": "getMyOwnedNfts",
					"outputs": [
						{
							"components": [
								{
									"internalType": "address",
									"name": "nftContract",
									"type": "address"
								},
								{
									"internalType": "uint256",
									"name": "tokenId",
									"type": "uint256"
								},
								{
									"internalType": "uint256",
									"name": "price",
									"type": "uint256"
								},
								{
									"internalType": "address payable",
									"name": "seller",
									"type": "address"
								},
								{
									"internalType": "address payable",
									"name": "owner",
									"type": "address"
								},
								{
									"internalType": "address payable",
									"name": "creator",
									"type": "address"
								},
								{
									"internalType": "bool",
									"name": "listed",
									"type": "bool"
								}
							],
							"internalType": "struct GeekNftMarketPlace.NFT[]",
							"name": "",
							"type": "tuple[]"
						}
					],
					"stateMutability": "view",
					"type": "function"
				},
				{
					"inputs": [
						{
							"internalType": "address",
							"name": "_nftContract",
							"type": "address"
						},
						{
							"internalType": "uint256",
							"name": "_tokenId",
							"type": "uint256"
						},
						{
							"internalType": "uint256",
							"name": "_price",
							"type": "uint256"
						}
					],
					"name": "listNFT",
					"outputs": [],
					"stateMutability": "payable",
					"type": "function"
				},
				{
					"inputs": [
						{
							"internalType": "address",
							"name": "_nftContract",
							"type": "address"
						},
						{
							"internalType": "uint256",
							"name": "_tokenId",
							"type": "uint256"
						},
						{
							"internalType": "uint256",
							"name": "_price",
							"type": "uint256"
						}
					],
					"name": "resellNFT",
					"outputs": [],
					"stateMutability": "payable",
					"type": "function"
				}
			],
			"devdoc": {
				"kind": "dev",
				"methods": {},
				"version": 1
			},
			"evm": {
				"assembly": "    /* \"contracts/GeekNftMarketPlace.sol\":225:6253  contract GeekNftMarketPlace is ReentrancyGuard {... */\n  mstore(0x40, 0x80)\n    /* \"contracts/GeekNftMarketPlace.sol\":428:439  0.002 ether */\n  0x071afd498d0000\n    /* \"contracts/GeekNftMarketPlace.sol\":402:439  uint public LISTING_FEE = 0.002 ether */\n  0x03\n  sstore\n    /* \"contracts/GeekNftMarketPlace.sol\":947:1013  constructor() {... */\n  callvalue\n  dup1\n  iszero\n  tag_1\n  jumpi\n  0x00\n  dup1\n  revert\ntag_1:\n  pop\n    /* \"contracts/RenntrancyGuard.sol\":128:129  1 */\n  0x01\n    /* \"contracts/RenntrancyGuard.sol\":233:240  _status */\n  0x00\n    /* \"contracts/RenntrancyGuard.sol\":233:255  _status = _NOT_ENTERED */\n  dup2\n  swap1\n  sstore\n  pop\n    /* \"contracts/GeekNftMarketPlace.sol\":995:1005  msg.sender */\n  caller\n    /* \"contracts/GeekNftMarketPlace.sol\":971:984  _marketOwwner */\n  0x04\n  0x00\n    /* \"contracts/GeekNftMarketPlace.sol\":971:1006  _marketOwwner = payable(msg.sender) */\n  0x0100\n  exp\n  dup2\n  sload\n  dup2\n  0xffffffffffffffffffffffffffffffffffffffff\n  mul\n  not\n  and\n  swap1\n  dup4\n  0xffffffffffffffffffffffffffffffffffffffff\n  and\n  mul\n  or\n  swap1\n  sstore\n  pop\n    /* \"contracts/GeekNftMarketPlace.sol\":225:6253  contract GeekNftMarketPlace is ReentrancyGuard {... */\n  dataSize(sub_0)\n  dup1\n  dataOffset(sub_0)\n  0x00\n  codecopy\n  0x00\n  return\nstop\n\nsub_0: assembly {\n        /* \"contracts/GeekNftMarketPlace.sol\":225:6253  contract GeekNftMarketPlace is ReentrancyGuard {... */\n      mstore(0x40, 0x80)\n      jumpi(tag_1, lt(calldatasize, 0x04))\n      shr(0xe0, calldataload(0x00))\n      dup1\n      0x8492095a\n      gt\n      tag_11\n      jumpi\n      dup1\n      0x8492095a\n      eq\n      tag_6\n      jumpi\n      dup1\n      0x8d6cb3fb\n      eq\n      tag_7\n      jumpi\n      dup1\n      0xa46b5c5a\n      eq\n      tag_8\n      jumpi\n      dup1\n      0xad05f1b4\n      eq\n      tag_9\n      jumpi\n      dup1\n      0xb8fe6abe\n      eq\n      tag_10\n      jumpi\n      jump(tag_1)\n    tag_11:\n      dup1\n      0x04935694\n      eq\n      tag_2\n      jumpi\n      dup1\n      0x1f4cc4db\n      eq\n      tag_3\n      jumpi\n      dup1\n      0x2b86ae38\n      eq\n      tag_4\n      jumpi\n      dup1\n      0x4ddf4f8f\n      eq\n      tag_5\n      jumpi\n    tag_1:\n      0x00\n      dup1\n      revert\n        /* \"contracts/GeekNftMarketPlace.sol\":2632:3407  function resellNFT(address _nftContract, uint _tokenId, uint _price) public payable nonReentrant{... */\n    tag_2:\n      tag_12\n      0x04\n      dup1\n      calldatasize\n      sub\n      dup2\n      add\n      swap1\n      tag_13\n      swap2\n      swap1\n      tag_14\n      jump\t// in\n    tag_13:\n      tag_15\n      jump\t// in\n    tag_12:\n      stop\n        /* \"contracts/GeekNftMarketPlace.sol\":4714:5308  function getMyListedNfts() public view returns (NFT[] memory) {... */\n    tag_3:\n      callvalue\n      dup1\n      iszero\n      tag_16\n      jumpi\n      0x00\n      dup1\n      revert\n    tag_16:\n      pop\n      tag_17\n      tag_18\n      jump\t// in\n    tag_17:\n      mload(0x40)\n      tag_19\n      swap2\n      swap1\n      tag_20\n      jump\t// in\n    tag_19:\n      mload(0x40)\n      dup1\n      swap2\n      sub\n      swap1\n      return\n        /* \"contracts/GeekNftMarketPlace.sol\":402:439  uint public LISTING_FEE = 0.002 ether */\n    tag_4:\n      callvalue\n      dup1\n      iszero\n      tag_21\n      jumpi\n      0x00\n      dup1\n      revert\n    tag_21:\n      pop\n      tag_22\n      tag_23\n      jump\t// in\n    tag_22:\n      mload(0x40)\n      tag_24\n      swap2\n      swap1\n      tag_25\n      jump\t// in\n    tag_24:\n      mload(0x40)\n      dup1\n      swap2\n      sub\n      swap1\n      return\n        /* \"contracts/GeekNftMarketPlace.sol\":1890:2577  function buyNft(address _nftContract, uint _tokenId) public payable nonReentrant{... */\n    tag_5:\n      tag_26\n      0x04\n      dup1\n      calldatasize\n      sub\n      dup2\n      add\n      swap1\n      tag_27\n      swap2\n      swap1\n      tag_28\n      jump\t// in\n    tag_27:\n      tag_29\n      jump\t// in\n    tag_26:\n      stop\n        /* \"contracts/GeekNftMarketPlace.sol\":4077:4673  function getMyCreatedNfts() public view returns (NFT[] memory) {... */\n    tag_6:\n      callvalue\n      dup1\n      iszero\n      tag_30\n      jumpi\n      0x00\n      dup1\n      revert\n    tag_30:\n      pop\n      tag_31\n      tag_32\n      jump\t// in\n    tag_31:\n      mload(0x40)\n      tag_33\n      swap2\n      swap1\n      tag_20\n      jump\t// in\n    tag_33:\n      mload(0x40)\n      dup1\n      swap2\n      sub\n      swap1\n      return\n        /* \"contracts/GeekNftMarketPlace.sol\":5314:5780  function getListedNfts() public view returns (NFT[] memory) {... */\n    tag_7:\n      callvalue\n      dup1\n      iszero\n      tag_34\n      jumpi\n      0x00\n      dup1\n      revert\n    tag_34:\n      pop\n      tag_35\n      tag_36\n      jump\t// in\n    tag_35:\n      mload(0x40)\n      tag_37\n      swap2\n      swap1\n      tag_20\n      jump\t// in\n    tag_37:\n      mload(0x40)\n      dup1\n      swap2\n      sub\n      swap1\n      return\n        /* \"contracts/GeekNftMarketPlace.sol\":3446:4036  function getMyOwnedNfts() public view returns (NFT[] memory) {... */\n    tag_8:\n      callvalue\n      dup1\n      iszero\n      tag_38\n      jumpi\n      0x00\n      dup1\n      revert\n    tag_38:\n      pop\n      tag_39\n      tag_40\n      jump\t// in\n    tag_39:\n      mload(0x40)\n      tag_41\n      swap2\n      swap1\n      tag_20\n      jump\t// in\n    tag_41:\n      mload(0x40)\n      dup1\n      swap2\n      sub\n      swap1\n      return\n        /* \"contracts/GeekNftMarketPlace.sol\":1150:1866  function listNFT(address _nftContract, uint _tokenId, uint _price) public payable nonReentrant{... */\n    tag_9:\n      tag_42\n      0x04\n      dup1\n      calldatasize\n      sub\n      dup2\n      add\n      swap1\n      tag_43\n      swap2\n      swap1\n      tag_14\n      jump\t// in\n    tag_43:\n      tag_44\n      jump\t// in\n    tag_42:\n      stop\n        /* \"contracts/GeekNftMarketPlace.sol\":1019:1105  function getListingFee() public view returns (uint){... */\n    tag_10:\n      callvalue\n      dup1\n      iszero\n      tag_45\n      jumpi\n      0x00\n      dup1\n      revert\n    tag_45:\n      pop\n      tag_46\n      tag_47\n      jump\t// in\n    tag_46:\n      mload(0x40)\n      tag_48\n      swap2\n      swap1\n      tag_25\n      jump\t// in\n    tag_48:\n      mload(0x40)\n      dup1\n      swap2\n      sub\n      swap1\n      return\n        /* \"contracts/GeekNftMarketPlace.sol\":2632:3407  function resellNFT(address _nftContract, uint _tokenId, uint _price) public payable nonReentrant{... */\n    tag_15:\n        /* \"contracts/RenntrancyGuard.sol\":171:172  2 */\n      0x02\n        /* \"contracts/RenntrancyGuard.sol\":310:317  _status */\n      sload(0x00)\n        /* \"contracts/RenntrancyGuard.sol\":310:329  _status != _ENTERED */\n      eq\n      iszero\n        /* \"contracts/RenntrancyGuard.sol\":302:365  require(_status != _ENTERED, \"ReentrancyGuard: reentrant call\") */\n      tag_50\n      jumpi\n      mload(0x40)\n      0x08c379a000000000000000000000000000000000000000000000000000000000\n      dup2\n      mstore\n      0x04\n      add\n      tag_51\n      swap1\n      tag_52\n      jump\t// in\n    tag_51:\n      mload(0x40)\n      dup1\n      swap2\n      sub\n      swap1\n      revert\n    tag_50:\n        /* \"contracts/RenntrancyGuard.sol\":171:172  2 */\n      0x02\n        /* \"contracts/RenntrancyGuard.sol\":375:382  _status */\n      0x00\n        /* \"contracts/RenntrancyGuard.sol\":375:393  _status = _ENTERED */\n      dup2\n      swap1\n      sstore\n      pop\n        /* \"contracts/GeekNftMarketPlace.sol\":2755:2756  0 */\n      0x00\n        /* \"contracts/GeekNftMarketPlace.sol\":2746:2752  _price */\n      dup2\n        /* \"contracts/GeekNftMarketPlace.sol\":2746:2756  _price > 0 */\n      gt\n        /* \"contracts/GeekNftMarketPlace.sol\":2738:2789  require(_price > 0, \"Price must be at least 1 wei\") */\n      tag_54\n      jumpi\n      mload(0x40)\n      0x08c379a000000000000000000000000000000000000000000000000000000000\n      dup2\n      mstore\n      0x04\n      add\n      tag_55\n      swap1\n      tag_56\n      jump\t// in\n    tag_55:\n      mload(0x40)\n      dup1\n      swap2\n      sub\n      swap1\n      revert\n    tag_54:\n        /* \"contracts/GeekNftMarketPlace.sol\":2820:2831  LISTING_FEE */\n      sload(0x03)\n        /* \"contracts/GeekNftMarketPlace.sol\":2807:2816  msg.value */\n      callvalue\n        /* \"contracts/GeekNftMarketPlace.sol\":2807:2831  msg.value == LISTING_FEE */\n      eq\n        /* \"contracts/GeekNftMarketPlace.sol\":2799:2868  require(msg.value == LISTING_FEE, \"Not enough ether for listing fee\") */\n      tag_57\n      jumpi\n      mload(0x40)\n      0x08c379a000000000000000000000000000000000000000000000000000000000\n      dup2\n      mstore\n      0x04\n      add\n      tag_58\n      swap1\n      tag_59\n      jump\t// in\n    tag_58:\n      mload(0x40)\n      dup1\n      swap2\n      sub\n      swap1\n      revert\n    tag_57:\n        /* \"contracts/GeekNftMarketPlace.sol\":2879:2888  int index */\n      0x00\n        /* \"contracts/GeekNftMarketPlace.sol\":2910:2940  getNFT(_nftContract, _tokenId) */\n      tag_60\n        /* \"contracts/GeekNftMarketPlace.sol\":2917:2929  _nftContract */\n      dup5\n        /* \"contracts/GeekNftMarketPlace.sol\":2931:2939  _tokenId */\n      dup5\n        /* \"contracts/GeekNftMarketPlace.sol\":2910:2916  getNFT */\n      tag_61\n        /* \"contracts/GeekNftMarketPlace.sol\":2910:2940  getNFT(_nftContract, _tokenId) */\n      jump\t// in\n    tag_60:\n        /* \"contracts/GeekNftMarketPlace.sol\":2898:2940  (, index) = getNFT(_nftContract, _tokenId) */\n      swap1\n      pop\n      dup1\n      swap2\n      pop\n      pop\n        /* \"contracts/GeekNftMarketPlace.sol\":2967:2969  -1 */\n      0xffffffffffffffffffffffffffffffffffffffffffffffffffffffffffffffff\n        /* \"contracts/GeekNftMarketPlace.sol\":2958:2963  index */\n      dup2\n        /* \"contracts/GeekNftMarketPlace.sol\":2958:2969  index != -1 */\n      eq\n      iszero\n        /* \"contracts/GeekNftMarketPlace.sol\":2950:2987  require(index != -1, \"Nft not found\") */\n      tag_62\n      jumpi\n      mload(0x40)\n      0x08c379a000000000000000000000000000000000000000000000000000000000\n      dup2\n      mstore\n      0x04\n      add\n      tag_63\n      swap1\n      tag_64\n      jump\t// in\n    tag_63:\n      mload(0x40)\n      dup1\n      swap2\n      sub\n      swap1\n      revert\n    tag_62:\n        /* \"contracts/GeekNftMarketPlace.sol\":3015:3027  _nftContract */\n      dup4\n        /* \"contracts/GeekNftMarketPlace.sol\":2998:3041  GeekNftInterface(_nftContract).transferFrom */\n      0xffffffffffffffffffffffffffffffffffffffff\n      and\n      0x23b872dd\n        /* \"contracts/GeekNftMarketPlace.sol\":3042:3052  msg.sender */\n      caller\n        /* \"contracts/GeekNftMarketPlace.sol\":3062:3066  this */\n      address\n        /* \"contracts/GeekNftMarketPlace.sol\":3069:3077  _tokenId */\n      dup7\n        /* \"contracts/GeekNftMarketPlace.sol\":2998:3078  GeekNftInterface(_nftContract).transferFrom(msg.sender, address(this), _tokenId) */\n      mload(0x40)\n      dup5\n      0xffffffff\n      and\n      0xe0\n      shl\n      dup2\n      mstore\n      0x04\n      add\n      tag_65\n      swap4\n      swap3\n      swap2\n      swap1\n      tag_66\n      jump\t// in\n    tag_65:\n      0x00\n      mload(0x40)\n      dup1\n      dup4\n      sub\n      dup2\n      0x00\n      dup8\n      dup1\n      extcodesize\n      iszero\n      dup1\n      iszero\n      tag_67\n      jumpi\n      0x00\n      dup1\n      revert\n    tag_67:\n      pop\n      gas\n      call\n      iszero\n      dup1\n      iszero\n      tag_69\n      jumpi\n      returndatasize\n      0x00\n      dup1\n      returndatacopy\n      revert(0x00, returndatasize)\n    tag_69:\n      pop\n      pop\n      pop\n      pop\n        /* \"contracts/GeekNftMarketPlace.sol\":3124:3134  msg.sender */\n      caller\n        /* \"contracts/GeekNftMarketPlace.sol\":3089:3093  nfts */\n      0x05\n        /* \"contracts/GeekNftMarketPlace.sol\":3099:3104  index */\n      dup3\n        /* \"contracts/GeekNftMarketPlace.sol\":3089:3106  nfts[uint(index)] */\n      dup2\n      sload\n      dup2\n      lt\n      tag_70\n      jumpi\n      tag_71\n      tag_72\n      jump\t// in\n    tag_71:\n    tag_70:\n      swap1\n      0x00\n      mstore\n      keccak256(0x00, 0x20)\n      swap1\n      0x06\n      mul\n      add\n        /* \"contracts/GeekNftMarketPlace.sol\":3089:3113  nfts[uint(index)].seller */\n      0x03\n      add\n      0x00\n        /* \"contracts/GeekNftMarketPlace.sol\":3089:3135  nfts[uint(index)].seller = payable(msg.sender) */\n      0x0100\n      exp\n      dup2\n      sload\n      dup2\n      0xffffffffffffffffffffffffffffffffffffffff\n      mul\n      not\n      and\n      swap1\n      dup4\n      0xffffffffffffffffffffffffffffffffffffffff\n      and\n      mul\n      or\n      swap1\n      sstore\n      pop\n        /* \"contracts/GeekNftMarketPlace.sol\":3187:3191  this */\n      address\n        /* \"contracts/GeekNftMarketPlace.sol\":3145:3149  nfts */\n      0x05\n        /* \"contracts/GeekNftMarketPlace.sol\":3155:3160  index */\n      dup3\n        /* \"contracts/GeekNftMarketPlace.sol\":3145:3162  nfts[uint(index)] */\n      dup2\n      sload\n      dup2\n      lt\n      tag_74\n      jumpi\n      tag_75\n      tag_72\n      jump\t// in\n    tag_75:\n    tag_74:\n      swap1\n      0x00\n      mstore\n      keccak256(0x00, 0x20)\n      swap1\n      0x06\n      mul\n      add\n        /* \"contracts/GeekNftMarketPlace.sol\":3145:3168  nfts[uint(index)].owner */\n      0x04\n      add\n      0x00\n        /* \"contracts/GeekNftMarketPlace.sol\":3145:3193  nfts[uint(index)].owner = payable(address(this)) */\n      0x0100\n      exp\n      dup2\n      sload\n      dup2\n      0xffffffffffffffffffffffffffffffffffffffff\n      mul\n      not\n      and\n      swap1\n      dup4\n      0xffffffffffffffffffffffffffffffffffffffff\n      and\n      mul\n      or\n      swap1\n      sstore\n      pop\n        /* \"contracts/GeekNftMarketPlace.sol\":3230:3234  true */\n      0x01\n        /* \"contracts/GeekNftMarketPlace.sol\":3203:3207  nfts */\n      0x05\n        /* \"contracts/GeekNftMarketPlace.sol\":3213:3218  index */\n      dup3\n        /* \"contracts/GeekNftMarketPlace.sol\":3203:3220  nfts[uint(index)] */\n      dup2\n      sload\n      dup2\n      lt\n      tag_77\n      jumpi\n      tag_78\n      tag_72\n      jump\t// in\n    tag_78:\n    tag_77:\n      swap1\n      0x00\n      mstore\n      keccak256(0x00, 0x20)\n      swap1\n      0x06\n      mul\n      add\n        /* \"contracts/GeekNftMarketPlace.sol\":3203:3227  nfts[uint(index)].listed */\n      0x05\n      add\n      0x14\n        /* \"contracts/GeekNftMarketPlace.sol\":3203:3234  nfts[uint(index)].listed = true */\n      0x0100\n      exp\n      dup2\n      sload\n      dup2\n      0xff\n      mul\n      not\n      and\n      swap1\n      dup4\n      iszero\n      iszero\n      mul\n      or\n      swap1\n      sstore\n      pop\n        /* \"contracts/GeekNftMarketPlace.sol\":3270:3276  _price */\n      dup2\n        /* \"contracts/GeekNftMarketPlace.sol\":3244:3248  nfts */\n      0x05\n        /* \"contracts/GeekNftMarketPlace.sol\":3254:3259  index */\n      dup3\n        /* \"contracts/GeekNftMarketPlace.sol\":3244:3261  nfts[uint(index)] */\n      dup2\n      sload\n      dup2\n      lt\n      tag_80\n      jumpi\n      tag_81\n      tag_72\n      jump\t// in\n    tag_81:\n    tag_80:\n      swap1\n      0x00\n      mstore\n      keccak256(0x00, 0x20)\n      swap1\n      0x06\n      mul\n      add\n        /* \"contracts/GeekNftMarketPlace.sol\":3244:3267  nfts[uint(index)].price */\n      0x02\n      add\n        /* \"contracts/GeekNftMarketPlace.sol\":3244:3276  nfts[uint(index)].price = _price */\n      dup2\n      swap1\n      sstore\n      pop\n        /* \"contracts/GeekNftMarketPlace.sol\":3287:3308  _nftsSold.decrement() */\n      tag_83\n        /* \"contracts/GeekNftMarketPlace.sol\":3287:3296  _nftsSold */\n      0x01\n        /* \"contracts/GeekNftMarketPlace.sol\":3287:3306  _nftsSold.decrement */\n      tag_84\n        /* \"contracts/GeekNftMarketPlace.sol\":3287:3308  _nftsSold.decrement() */\n      jump\t// in\n    tag_83:\n        /* \"contracts/GeekNftMarketPlace.sol\":3386:3390  this */\n      address\n        /* \"contracts/GeekNftMarketPlace.sol\":3332:3400  NFTListed(_nftContract, _tokenId, msg.sender, address(this), _price) */\n      0xffffffffffffffffffffffffffffffffffffffff\n      and\n        /* \"contracts/GeekNftMarketPlace.sol\":3366:3376  msg.sender */\n      caller\n        /* \"contracts/GeekNftMarketPlace.sol\":3332:3400  NFTListed(_nftContract, _tokenId, msg.sender, address(this), _price) */\n      0xffffffffffffffffffffffffffffffffffffffff\n      and\n      0xa0c6c0d02d86fdacecbaa5fdf5894bab204e31a778250474108540733a9b8d19\n        /* \"contracts/GeekNftMarketPlace.sol\":3342:3354  _nftContract */\n      dup7\n        /* \"contracts/GeekNftMarketPlace.sol\":3356:3364  _tokenId */\n      dup7\n        /* \"contracts/GeekNftMarketPlace.sol\":3393:3399  _price */\n      dup7\n        /* \"contracts/GeekNftMarketPlace.sol\":3332:3400  NFTListed(_nftContract, _tokenId, msg.sender, address(this), _price) */\n      mload(0x40)\n      tag_85\n      swap4\n      swap3\n      swap2\n      swap1\n      tag_86\n      jump\t// in\n    tag_85:\n      mload(0x40)\n      dup1\n      swap2\n      sub\n      swap1\n      log3\n        /* \"contracts/GeekNftMarketPlace.sol\":2728:3407  {... */\n      pop\n        /* \"contracts/RenntrancyGuard.sol\":128:129  1 */\n      0x01\n        /* \"contracts/RenntrancyGuard.sol\":414:421  _status */\n      0x00\n        /* \"contracts/RenntrancyGuard.sol\":414:436  _status = _NOT_ENTERED */\n      dup2\n      swap1\n      sstore\n      pop\n        /* \"contracts/GeekNftMarketPlace.sol\":2632:3407  function resellNFT(address _nftContract, uint _tokenId, uint _price) public payable nonReentrant{... */\n      pop\n      pop\n      pop\n      jump\t// out\n        /* \"contracts/GeekNftMarketPlace.sol\":4714:5308  function getMyListedNfts() public view returns (NFT[] memory) {... */\n    tag_18:\n        /* \"contracts/GeekNftMarketPlace.sol\":4762:4774  NFT[] memory */\n      0x60\n        /* \"contracts/GeekNftMarketPlace.sol\":4786:4800  uint nftsCount */\n      0x00\n        /* \"contracts/GeekNftMarketPlace.sol\":4803:4823  _nftsCount.current() */\n      tag_88\n        /* \"contracts/GeekNftMarketPlace.sol\":4803:4813  _nftsCount */\n      0x02\n        /* \"contracts/GeekNftMarketPlace.sol\":4803:4821  _nftsCount.current */\n      tag_89\n        /* \"contracts/GeekNftMarketPlace.sol\":4803:4823  _nftsCount.current() */\n      jump\t// in\n    tag_88:\n        /* \"contracts/GeekNftMarketPlace.sol\":4786:4823  uint nftsCount = _nftsCount.current() */\n      swap1\n      pop\n        /* \"contracts/GeekNftMarketPlace.sol\":4833:4849  uint myNftsCount */\n      0x00\n        /* \"contracts/GeekNftMarketPlace.sol\":4868:4874  uint i */\n      dup1\n        /* \"contracts/GeekNftMarketPlace.sol\":4863:5005  for (uint i = 0; i < nftsCount; i++) {... */\n    tag_90:\n        /* \"contracts/GeekNftMarketPlace.sol\":4884:4893  nftsCount */\n      dup3\n        /* \"contracts/GeekNftMarketPlace.sol\":4880:4881  i */\n      dup2\n        /* \"contracts/GeekNftMarketPlace.sol\":4880:4893  i < nftsCount */\n      lt\n        /* \"contracts/GeekNftMarketPlace.sol\":4863:5005  for (uint i = 0; i < nftsCount; i++) {... */\n      iszero\n      tag_91\n      jumpi\n        /* \"contracts/GeekNftMarketPlace.sol\":4935:4945  msg.sender */\n      caller\n        /* \"contracts/GeekNftMarketPlace.sol\":4917:4945  nfts[i].seller == msg.sender */\n      0xffffffffffffffffffffffffffffffffffffffff\n      and\n        /* \"contracts/GeekNftMarketPlace.sol\":4917:4921  nfts */\n      0x05\n        /* \"contracts/GeekNftMarketPlace.sol\":4922:4923  i */\n      dup3\n        /* \"contracts/GeekNftMarketPlace.sol\":4917:4924  nfts[i] */\n      dup2\n      sload\n      dup2\n      lt\n      tag_93\n      jumpi\n      tag_94\n      tag_72\n      jump\t// in\n    tag_94:\n    tag_93:\n      swap1\n      0x00\n      mstore\n      keccak256(0x00, 0x20)\n      swap1\n      0x06\n      mul\n      add\n        /* \"contracts/GeekNftMarketPlace.sol\":4917:4931  nfts[i].seller */\n      0x03\n      add\n      0x00\n      swap1\n      sload\n      swap1\n      0x0100\n      exp\n      swap1\n      div\n      0xffffffffffffffffffffffffffffffffffffffff\n      and\n        /* \"contracts/GeekNftMarketPlace.sol\":4917:4945  nfts[i].seller == msg.sender */\n      0xffffffffffffffffffffffffffffffffffffffff\n      and\n      eq\n        /* \"contracts/GeekNftMarketPlace.sol\":4914:4995  if(nfts[i].seller == msg.sender ) {... */\n      iszero\n      tag_96\n      jumpi\n        /* \"contracts/GeekNftMarketPlace.sol\":4966:4980  myNftsCount ++ */\n      dup2\n      dup1\n      tag_97\n      swap1\n      tag_98\n      jump\t// in\n    tag_97:\n      swap3\n      pop\n      pop\n        /* \"contracts/GeekNftMarketPlace.sol\":4914:4995  if(nfts[i].seller == msg.sender ) {... */\n    tag_96:\n        /* \"contracts/GeekNftMarketPlace.sol\":4895:4898  i++ */\n      dup1\n      dup1\n      tag_99\n      swap1\n      tag_98\n      jump\t// in\n    tag_99:\n      swap2\n      pop\n      pop\n        /* \"contracts/GeekNftMarketPlace.sol\":4863:5005  for (uint i = 0; i < nftsCount; i++) {... */\n      jump(tag_90)\n    tag_91:\n      pop\n        /* \"contracts/GeekNftMarketPlace.sol\":5015:5034  NFT[] memory myNfts */\n      0x00\n        /* \"contracts/GeekNftMarketPlace.sol\":5047:5058  myNftsCount */\n      dup2\n        /* \"contracts/GeekNftMarketPlace.sol\":5037:5059  new NFT[](myNftsCount) */\n      0xffffffffffffffff\n      dup2\n      gt\n      iszero\n      tag_100\n      jumpi\n      tag_101\n      tag_102\n      jump\t// in\n    tag_101:\n    tag_100:\n      mload(0x40)\n      swap1\n      dup1\n      dup3\n      mstore\n      dup1\n      0x20\n      mul\n      0x20\n      add\n      dup3\n      add\n      0x40\n      mstore\n      dup1\n      iszero\n      tag_103\n      jumpi\n      dup2\n      0x20\n      add\n    tag_104:\n      tag_105\n      tag_106\n      jump\t// in\n    tag_105:\n      dup2\n      mstore\n      0x20\n      add\n      swap1\n      0x01\n      swap1\n      sub\n      swap1\n      dup2\n      tag_104\n      jumpi\n      swap1\n      pop\n    tag_103:\n      pop\n        /* \"contracts/GeekNftMarketPlace.sol\":5015:5059  NFT[] memory myNfts = new NFT[](myNftsCount) */\n      swap1\n      pop\n        /* \"contracts/GeekNftMarketPlace.sol\":5069:5082  uint nftIndex */\n      0x00\n        /* \"contracts/GeekNftMarketPlace.sol\":5101:5107  uint i */\n      dup1\n        /* \"contracts/GeekNftMarketPlace.sol\":5096:5278  for (uint i = 0; i < nftsCount; i++) {... */\n    tag_107:\n        /* \"contracts/GeekNftMarketPlace.sol\":5117:5126  nftsCount */\n      dup5\n        /* \"contracts/GeekNftMarketPlace.sol\":5113:5114  i */\n      dup2\n        /* \"contracts/GeekNftMarketPlace.sol\":5113:5126  i < nftsCount */\n      lt\n        /* \"contracts/GeekNftMarketPlace.sol\":5096:5278  for (uint i = 0; i < nftsCount; i++) {... */\n      iszero\n      tag_108\n      jumpi\n        /* \"contracts/GeekNftMarketPlace.sol\":5168:5178  msg.sender */\n      caller\n        /* \"contracts/GeekNftMarketPlace.sol\":5150:5178  nfts[i].seller == msg.sender */\n      0xffffffffffffffffffffffffffffffffffffffff\n      and\n        /* \"contracts/GeekNftMarketPlace.sol\":5150:5154  nfts */\n      0x05\n        /* \"contracts/GeekNftMarketPlace.sol\":5155:5156  i */\n      dup3\n        /* \"contracts/GeekNftMarketPlace.sol\":5150:5157  nfts[i] */\n      dup2\n      sload\n      dup2\n      lt\n      tag_110\n      jumpi\n      tag_111\n      tag_72\n      jump\t// in\n    tag_111:\n    tag_110:\n      swap1\n      0x00\n      mstore\n      keccak256(0x00, 0x20)\n      swap1\n      0x06\n      mul\n      add\n        /* \"contracts/GeekNftMarketPlace.sol\":5150:5164  nfts[i].seller */\n      0x03\n      add\n      0x00\n      swap1\n      sload\n      swap1\n      0x0100\n      exp\n      swap1\n      div\n      0xffffffffffffffffffffffffffffffffffffffff\n      and\n        /* \"contracts/GeekNftMarketPlace.sol\":5150:5178  nfts[i].seller == msg.sender */\n      0xffffffffffffffffffffffffffffffffffffffff\n      and\n      eq\n        /* \"contracts/GeekNftMarketPlace.sol\":5147:5268  if(nfts[i].seller == msg.sender) {... */\n      iszero\n      tag_113\n      jumpi\n        /* \"contracts/GeekNftMarketPlace.sol\":5217:5221  nfts */\n      0x05\n        /* \"contracts/GeekNftMarketPlace.sol\":5222:5223  i */\n      dup2\n        /* \"contracts/GeekNftMarketPlace.sol\":5217:5224  nfts[i] */\n      dup2\n      sload\n      dup2\n      lt\n      tag_114\n      jumpi\n      tag_115\n      tag_72\n      jump\t// in\n    tag_115:\n    tag_114:\n      swap1\n      0x00\n      mstore\n      keccak256(0x00, 0x20)\n      swap1\n      0x06\n      mul\n      add\n        /* \"contracts/GeekNftMarketPlace.sol\":5198:5224  myNfts[nftIndex] = nfts[i] */\n      mload(0x40)\n      dup1\n      0xe0\n      add\n      0x40\n      mstore\n      swap1\n      dup2\n      0x00\n      dup3\n      add\n      0x00\n      swap1\n      sload\n      swap1\n      0x0100\n      exp\n      swap1\n      div\n      0xffffffffffffffffffffffffffffffffffffffff\n      and\n      0xffffffffffffffffffffffffffffffffffffffff\n      and\n      0xffffffffffffffffffffffffffffffffffffffff\n      and\n      dup2\n      mstore\n      0x20\n      add\n      0x01\n      dup3\n      add\n      sload\n      dup2\n      mstore\n      0x20\n      add\n      0x02\n      dup3\n      add\n      sload\n      dup2\n      mstore\n      0x20\n      add\n      0x03\n      dup3\n      add\n      0x00\n      swap1\n      sload\n      swap1\n      0x0100\n      exp\n      swap1\n      div\n      0xffffffffffffffffffffffffffffffffffffffff\n      and\n      0xffffffffffffffffffffffffffffffffffffffff\n      and\n      0xffffffffffffffffffffffffffffffffffffffff\n      and\n      dup2\n      mstore\n      0x20\n      add\n      0x04\n      dup3\n      add\n      0x00\n      swap1\n      sload\n      swap1\n      0x0100\n      exp\n      swap1\n      div\n      0xffffffffffffffffffffffffffffffffffffffff\n      and\n      0xffffffffffffffffffffffffffffffffffffffff\n      and\n      0xffffffffffffffffffffffffffffffffffffffff\n      and\n      dup2\n      mstore\n      0x20\n      add\n      0x05\n      dup3\n      add\n      0x00\n      swap1\n      sload\n      swap1\n      0x0100\n      exp\n      swap1\n      div\n      0xffffffffffffffffffffffffffffffffffffffff\n      and\n      0xffffffffffffffffffffffffffffffffffffffff\n      and\n      0xffffffffffffffffffffffffffffffffffffffff\n      and\n      dup2\n      mstore\n      0x20\n      add\n      0x05\n      dup3\n      add\n      0x14\n      swap1\n      sload\n      swap1\n      0x0100\n      exp\n      swap1\n      div\n      0xff\n      and\n      iszero\n      iszero\n      iszero\n      iszero\n      dup2\n      mstore\n      pop\n      pop\n        /* \"contracts/GeekNftMarketPlace.sol\":5198:5204  myNfts */\n      dup4\n        /* \"contracts/GeekNftMarketPlace.sol\":5205:5213  nftIndex */\n      dup4\n        /* \"contracts/GeekNftMarketPlace.sol\":5198:5214  myNfts[nftIndex] */\n      dup2\n      mload\n      dup2\n      lt\n      tag_117\n      jumpi\n      tag_118\n      tag_72\n      jump\t// in\n    tag_118:\n    tag_117:\n      0x20\n      mul\n      0x20\n      add\n      add\n        /* \"contracts/GeekNftMarketPlace.sol\":5198:5224  myNfts[nftIndex] = nfts[i] */\n      dup2\n      swap1\n      mstore\n      pop\n        /* \"contracts/GeekNftMarketPlace.sol\":5242:5253  nftIndex ++ */\n      dup2\n      dup1\n      tag_119\n      swap1\n      tag_98\n      jump\t// in\n    tag_119:\n      swap3\n      pop\n      pop\n        /* \"contracts/GeekNftMarketPlace.sol\":5147:5268  if(nfts[i].seller == msg.sender) {... */\n    tag_113:\n        /* \"contracts/GeekNftMarketPlace.sol\":5128:5131  i++ */\n      dup1\n      dup1\n      tag_120\n      swap1\n      tag_98\n      jump\t// in\n    tag_120:\n      swap2\n      pop\n      pop\n        /* \"contracts/GeekNftMarketPlace.sol\":5096:5278  for (uint i = 0; i < nftsCount; i++) {... */\n      jump(tag_107)\n    tag_108:\n      pop\n        /* \"contracts/GeekNftMarketPlace.sol\":5295:5301  myNfts */\n      dup2\n        /* \"contracts/GeekNftMarketPlace.sol\":5288:5301  return myNfts */\n      swap5\n      pop\n      pop\n      pop\n      pop\n      pop\n        /* \"contracts/GeekNftMarketPlace.sol\":4714:5308  function getMyListedNfts() public view returns (NFT[] memory) {... */\n      swap1\n      jump\t// out\n        /* \"contracts/GeekNftMarketPlace.sol\":402:439  uint public LISTING_FEE = 0.002 ether */\n    tag_23:\n      sload(0x03)\n      dup2\n      jump\t// out\n        /* \"contracts/GeekNftMarketPlace.sol\":1890:2577  function buyNft(address _nftContract, uint _tokenId) public payable nonReentrant{... */\n    tag_29:\n        /* \"contracts/RenntrancyGuard.sol\":171:172  2 */\n      0x02\n        /* \"contracts/RenntrancyGuard.sol\":310:317  _status */\n      sload(0x00)\n        /* \"contracts/RenntrancyGuard.sol\":310:329  _status != _ENTERED */\n      eq\n      iszero\n        /* \"contracts/RenntrancyGuard.sol\":302:365  require(_status != _ENTERED, \"ReentrancyGuard: reentrant call\") */\n      tag_122\n      jumpi\n      mload(0x40)\n      0x08c379a000000000000000000000000000000000000000000000000000000000\n      dup2\n      mstore\n      0x04\n      add\n      tag_123\n      swap1\n      tag_52\n      jump\t// in\n    tag_123:\n      mload(0x40)\n      dup1\n      swap2\n      sub\n      swap1\n      revert\n    tag_122:\n        /* \"contracts/RenntrancyGuard.sol\":171:172  2 */\n      0x02\n        /* \"contracts/RenntrancyGuard.sol\":375:382  _status */\n      0x00\n        /* \"contracts/RenntrancyGuard.sol\":375:393  _status = _ENTERED */\n      dup2\n      swap1\n      sstore\n      pop\n        /* \"contracts/GeekNftMarketPlace.sol\":1980:1994  NFT memory nft */\n      tag_125\n      tag_106\n      jump\t// in\n    tag_125:\n        /* \"contracts/GeekNftMarketPlace.sol\":2004:2013  int index */\n      0x00\n        /* \"contracts/GeekNftMarketPlace.sol\":2038:2068  getNFT(_nftContract, _tokenId) */\n      tag_126\n        /* \"contracts/GeekNftMarketPlace.sol\":2045:2057  _nftContract */\n      dup5\n        /* \"contracts/GeekNftMarketPlace.sol\":2059:2067  _tokenId */\n      dup5\n        /* \"contracts/GeekNftMarketPlace.sol\":2038:2044  getNFT */\n      tag_61\n        /* \"contracts/GeekNftMarketPlace.sol\":2038:2068  getNFT(_nftContract, _tokenId) */\n      jump\t// in\n    tag_126:\n        /* \"contracts/GeekNftMarketPlace.sol\":2023:2068  (nft, index) = getNFT(_nftContract, _tokenId) */\n      dup1\n      swap3\n      pop\n      dup2\n      swap4\n      pop\n      pop\n      pop\n        /* \"contracts/GeekNftMarketPlace.sol\":2095:2097  -1 */\n      0xffffffffffffffffffffffffffffffffffffffffffffffffffffffffffffffff\n        /* \"contracts/GeekNftMarketPlace.sol\":2086:2091  index */\n      dup2\n        /* \"contracts/GeekNftMarketPlace.sol\":2086:2097  index != -1 */\n      eq\n      iszero\n        /* \"contracts/GeekNftMarketPlace.sol\":2078:2115  require(index != -1, \"Nft not found\") */\n      tag_127\n      jumpi\n      mload(0x40)\n      0x08c379a000000000000000000000000000000000000000000000000000000000\n      dup2\n      mstore\n      0x04\n      add\n      tag_128\n      swap1\n      tag_64\n      jump\t// in\n    tag_128:\n      mload(0x40)\n      dup1\n      swap2\n      sub\n      swap1\n      revert\n    tag_127:\n        /* \"contracts/GeekNftMarketPlace.sol\":2146:2149  nft */\n      dup2\n        /* \"contracts/GeekNftMarketPlace.sol\":2146:2155  nft.price */\n      0x40\n      add\n      mload\n        /* \"contracts/GeekNftMarketPlace.sol\":2133:2142  msg.value */\n      callvalue\n        /* \"contracts/GeekNftMarketPlace.sol\":2133:2155  msg.value >= nft.price */\n      lt\n      iszero\n        /* \"contracts/GeekNftMarketPlace.sol\":2125:2198  require(msg.value >= nft.price, \"Not enough ether to cover asking price\") */\n      tag_129\n      jumpi\n      mload(0x40)\n      0x08c379a000000000000000000000000000000000000000000000000000000000\n      dup2\n      mstore\n      0x04\n      add\n      tag_130\n      swap1\n      tag_131\n      jump\t// in\n    tag_130:\n      mload(0x40)\n      dup1\n      swap2\n      sub\n      swap1\n      revert\n    tag_129:\n        /* \"contracts/GeekNftMarketPlace.sol\":2209:2230  address payable buyer */\n      0x00\n        /* \"contracts/GeekNftMarketPlace.sol\":2241:2251  msg.sender */\n      caller\n        /* \"contracts/GeekNftMarketPlace.sol\":2209:2252  address payable buyer = payable(msg.sender) */\n      swap1\n      pop\n        /* \"contracts/GeekNftMarketPlace.sol\":2262:2265  nft */\n      dup3\n        /* \"contracts/GeekNftMarketPlace.sol\":2262:2272  nft.seller */\n      0x60\n      add\n      mload\n        /* \"contracts/GeekNftMarketPlace.sol\":2262:2281  nft.seller.transfer */\n      0xffffffffffffffffffffffffffffffffffffffff\n      and\n        /* \"contracts/GeekNftMarketPlace.sol\":2262:2292  nft.seller.transfer(msg.value) */\n      0x08fc\n        /* \"contracts/GeekNftMarketPlace.sol\":2282:2291  msg.value */\n      callvalue\n        /* \"contracts/GeekNftMarketPlace.sol\":2262:2292  nft.seller.transfer(msg.value) */\n      swap1\n      dup2\n      iszero\n      mul\n      swap1\n      mload(0x40)\n      0x00\n      mload(0x40)\n      dup1\n      dup4\n      sub\n      dup2\n      dup6\n      dup9\n      dup9\n      call\n      swap4\n      pop\n      pop\n      pop\n      pop\n      iszero\n      dup1\n      iszero\n      tag_133\n      jumpi\n      returndatasize\n      0x00\n      dup1\n      returndatacopy\n      revert(0x00, returndatasize)\n    tag_133:\n      pop\n        /* \"contracts/GeekNftMarketPlace.sol\":2320:2332  _nftContract */\n      dup5\n        /* \"contracts/GeekNftMarketPlace.sol\":2303:2346  GeekNftInterface(_nftContract).transferFrom */\n      0xffffffffffffffffffffffffffffffffffffffff\n      and\n      0x23b872dd\n        /* \"contracts/GeekNftMarketPlace.sol\":2355:2359  this */\n      address\n        /* \"contracts/GeekNftMarketPlace.sol\":2362:2367  buyer */\n      dup4\n        /* \"contracts/GeekNftMarketPlace.sol\":2369:2377  _tokenId */\n      dup8\n        /* \"contracts/GeekNftMarketPlace.sol\":2303:2378  GeekNftInterface(_nftContract).transferFrom(address(this), buyer, _tokenId) */\n      mload(0x40)\n      dup5\n      0xffffffff\n      and\n      0xe0\n      shl\n      dup2\n      mstore\n      0x04\n      add\n      tag_134\n      swap4\n      swap3\n      swap2\n      swap1\n      tag_135\n      jump\t// in\n    tag_134:\n      0x00\n      mload(0x40)\n      dup1\n      dup4\n      sub\n      dup2\n      0x00\n      dup8\n      dup1\n      extcodesize\n      iszero\n      dup1\n      iszero\n      tag_136\n      jumpi\n      0x00\n      dup1\n      revert\n    tag_136:\n      pop\n      gas\n      call\n      iszero\n      dup1\n      iszero\n      tag_138\n      jumpi\n      returndatasize\n      0x00\n      dup1\n      returndatacopy\n      revert(0x00, returndatasize)\n    tag_138:\n      pop\n      pop\n      pop\n      pop\n        /* \"contracts/GeekNftMarketPlace.sol\":2414:2419  buyer */\n      dup1\n        /* \"contracts/GeekNftMarketPlace.sol\":2388:2392  nfts */\n      0x05\n        /* \"contracts/GeekNftMarketPlace.sol\":2398:2403  index */\n      dup4\n        /* \"contracts/GeekNftMarketPlace.sol\":2388:2405  nfts[uint(index)] */\n      dup2\n      sload\n      dup2\n      lt\n      tag_139\n      jumpi\n      tag_140\n      tag_72\n      jump\t// in\n    tag_140:\n    tag_139:\n      swap1\n      0x00\n      mstore\n      keccak256(0x00, 0x20)\n      swap1\n      0x06\n      mul\n      add\n        /* \"contracts/GeekNftMarketPlace.sol\":2388:2411  nfts[uint(index)].owner */\n      0x04\n      add\n      0x00\n        /* \"contracts/GeekNftMarketPlace.sol\":2388:2419  nfts[uint(index)].owner = buyer */\n      0x0100\n      exp\n      dup2\n      sload\n      dup2\n      0xffffffffffffffffffffffffffffffffffffffff\n      mul\n      not\n      and\n      swap1\n      dup4\n      0xffffffffffffffffffffffffffffffffffffffff\n      and\n      mul\n      or\n      swap1\n      sstore\n      pop\n        /* \"contracts/GeekNftMarketPlace.sol\":2456:2461  false */\n      0x00\n        /* \"contracts/GeekNftMarketPlace.sol\":2429:2433  nfts */\n      0x05\n        /* \"contracts/GeekNftMarketPlace.sol\":2439:2444  index */\n      dup4\n        /* \"contracts/GeekNftMarketPlace.sol\":2429:2446  nfts[uint(index)] */\n      dup2\n      sload\n      dup2\n      lt\n      tag_142\n      jumpi\n      tag_143\n      tag_72\n      jump\t// in\n    tag_143:\n    tag_142:\n      swap1\n      0x00\n      mstore\n      keccak256(0x00, 0x20)\n      swap1\n      0x06\n      mul\n      add\n        /* \"contracts/GeekNftMarketPlace.sol\":2429:2453  nfts[uint(index)].listed */\n      0x05\n      add\n      0x14\n        /* \"contracts/GeekNftMarketPlace.sol\":2429:2461  nfts[uint(index)].listed = false */\n      0x0100\n      exp\n      dup2\n      sload\n      dup2\n      0xff\n      mul\n      not\n      and\n      swap1\n      dup4\n      iszero\n      iszero\n      mul\n      or\n      swap1\n      sstore\n      pop\n        /* \"contracts/GeekNftMarketPlace.sol\":2472:2493  _nftsSold.increment() */\n      tag_145\n        /* \"contracts/GeekNftMarketPlace.sol\":2472:2481  _nftsSold */\n      0x01\n        /* \"contracts/GeekNftMarketPlace.sol\":2472:2491  _nftsSold.increment */\n      tag_146\n        /* \"contracts/GeekNftMarketPlace.sol\":2472:2493  _nftsSold.increment() */\n      jump\t// in\n    tag_145:\n        /* \"contracts/GeekNftMarketPlace.sol\":2553:2558  buyer */\n      dup1\n        /* \"contracts/GeekNftMarketPlace.sol\":2509:2570  NFTSold(_nftContract, _tokenId, nft.seller, buyer, msg.value) */\n      0xffffffffffffffffffffffffffffffffffffffff\n      and\n        /* \"contracts/GeekNftMarketPlace.sol\":2541:2544  nft */\n      dup4\n        /* \"contracts/GeekNftMarketPlace.sol\":2541:2551  nft.seller */\n      0x60\n      add\n      mload\n        /* \"contracts/GeekNftMarketPlace.sol\":2509:2570  NFTSold(_nftContract, _tokenId, nft.seller, buyer, msg.value) */\n      0xffffffffffffffffffffffffffffffffffffffff\n      and\n      0x16f1dbd97e6bf646d429ed186cce832f1f7fd9907814293b83181e9970ab7bd2\n        /* \"contracts/GeekNftMarketPlace.sol\":2517:2529  _nftContract */\n      dup8\n        /* \"contracts/GeekNftMarketPlace.sol\":2531:2539  _tokenId */\n      dup8\n        /* \"contracts/GeekNftMarketPlace.sol\":2560:2569  msg.value */\n      callvalue\n        /* \"contracts/GeekNftMarketPlace.sol\":2509:2570  NFTSold(_nftContract, _tokenId, nft.seller, buyer, msg.value) */\n      mload(0x40)\n      tag_147\n      swap4\n      swap3\n      swap2\n      swap1\n      tag_86\n      jump\t// in\n    tag_147:\n      mload(0x40)\n      dup1\n      swap2\n      sub\n      swap1\n      log3\n        /* \"contracts/GeekNftMarketPlace.sol\":1970:2577  {... */\n      pop\n      pop\n      pop\n        /* \"contracts/RenntrancyGuard.sol\":128:129  1 */\n      0x01\n        /* \"contracts/RenntrancyGuard.sol\":414:421  _status */\n      0x00\n        /* \"contracts/RenntrancyGuard.sol\":414:436  _status = _NOT_ENTERED */\n      dup2\n      swap1\n      sstore\n      pop\n        /* \"contracts/GeekNftMarketPlace.sol\":1890:2577  function buyNft(address _nftContract, uint _tokenId) public payable nonReentrant{... */\n      pop\n      pop\n      jump\t// out\n        /* \"contracts/GeekNftMarketPlace.sol\":4077:4673  function getMyCreatedNfts() public view returns (NFT[] memory) {... */\n    tag_32:\n        /* \"contracts/GeekNftMarketPlace.sol\":4126:4138  NFT[] memory */\n      0x60\n        /* \"contracts/GeekNftMarketPlace.sol\":4150:4164  uint nftsCount */\n      0x00\n        /* \"contracts/GeekNftMarketPlace.sol\":4167:4187  _nftsCount.current() */\n      tag_149\n        /* \"contracts/GeekNftMarketPlace.sol\":4167:4177  _nftsCount */\n      0x02\n        /* \"contracts/GeekNftMarketPlace.sol\":4167:4185  _nftsCount.current */\n      tag_89\n        /* \"contracts/GeekNftMarketPlace.sol\":4167:4187  _nftsCount.current() */\n      jump\t// in\n    tag_149:\n        /* \"contracts/GeekNftMarketPlace.sol\":4150:4187  uint nftsCount = _nftsCount.current() */\n      swap1\n      pop\n        /* \"contracts/GeekNftMarketPlace.sol\":4197:4213  uint myNftsCount */\n      0x00\n        /* \"contracts/GeekNftMarketPlace.sol\":4232:4238  uint i */\n      dup1\n        /* \"contracts/GeekNftMarketPlace.sol\":4227:4369  for (uint i = 0; i < nftsCount; i++) {... */\n    tag_150:\n        /* \"contracts/GeekNftMarketPlace.sol\":4248:4257  nftsCount */\n      dup3\n        /* \"contracts/GeekNftMarketPlace.sol\":4244:4245  i */\n      dup2\n        /* \"contracts/GeekNftMarketPlace.sol\":4244:4257  i < nftsCount */\n      lt\n        /* \"contracts/GeekNftMarketPlace.sol\":4227:4369  for (uint i = 0; i < nftsCount; i++) {... */\n      iszero\n      tag_151\n      jumpi\n        /* \"contracts/GeekNftMarketPlace.sol\":4300:4310  msg.sender */\n      caller\n        /* \"contracts/GeekNftMarketPlace.sol\":4281:4310  nfts[i].creator == msg.sender */\n      0xffffffffffffffffffffffffffffffffffffffff\n      and\n        /* \"contracts/GeekNftMarketPlace.sol\":4281:4285  nfts */\n      0x05\n        /* \"contracts/GeekNftMarketPlace.sol\":4286:4287  i */\n      dup3\n        /* \"contracts/GeekNftMarketPlace.sol\":4281:4288  nfts[i] */\n      dup2\n      sload\n      dup2\n      lt\n      tag_153\n      jumpi\n      tag_154\n      tag_72\n      jump\t// in\n    tag_154:\n    tag_153:\n      swap1\n      0x00\n      mstore\n      keccak256(0x00, 0x20)\n      swap1\n      0x06\n      mul\n      add\n        /* \"contracts/GeekNftMarketPlace.sol\":4281:4296  nfts[i].creator */\n      0x05\n      add\n      0x00\n      swap1\n      sload\n      swap1\n      0x0100\n      exp\n      swap1\n      div\n      0xffffffffffffffffffffffffffffffffffffffff\n      and\n        /* \"contracts/GeekNftMarketPlace.sol\":4281:4310  nfts[i].creator == msg.sender */\n      0xffffffffffffffffffffffffffffffffffffffff\n      and\n      eq\n        /* \"contracts/GeekNftMarketPlace.sol\":4278:4359  if(nfts[i].creator == msg.sender) {... */\n      iszero\n      tag_156\n      jumpi\n        /* \"contracts/GeekNftMarketPlace.sol\":4330:4344  myNftsCount ++ */\n      dup2\n      dup1\n      tag_157\n      swap1\n      tag_98\n      jump\t// in\n    tag_157:\n      swap3\n      pop\n      pop\n        /* \"contracts/GeekNftMarketPlace.sol\":4278:4359  if(nfts[i].creator == msg.sender) {... */\n    tag_156:\n        /* \"contracts/GeekNftMarketPlace.sol\":4259:4262  i++ */\n      dup1\n      dup1\n      tag_158\n      swap1\n      tag_98\n      jump\t// in\n    tag_158:\n      swap2\n      pop\n      pop\n        /* \"contracts/GeekNftMarketPlace.sol\":4227:4369  for (uint i = 0; i < nftsCount; i++) {... */\n      jump(tag_150)\n    tag_151:\n      pop\n        /* \"contracts/GeekNftMarketPlace.sol\":4379:4398  NFT[] memory myNfts */\n      0x00\n        /* \"contracts/GeekNftMarketPlace.sol\":4411:4422  myNftsCount */\n      dup2\n        /* \"contracts/GeekNftMarketPlace.sol\":4401:4423  new NFT[](myNftsCount) */\n      0xffffffffffffffff\n      dup2\n      gt\n      iszero\n      tag_159\n      jumpi\n      tag_160\n      tag_102\n      jump\t// in\n    tag_160:\n    tag_159:\n      mload(0x40)\n      swap1\n      dup1\n      dup3\n      mstore\n      dup1\n      0x20\n      mul\n      0x20\n      add\n      dup3\n      add\n      0x40\n      mstore\n      dup1\n      iszero\n      tag_161\n      jumpi\n      dup2\n      0x20\n      add\n    tag_162:\n      tag_163\n      tag_106\n      jump\t// in\n    tag_163:\n      dup2\n      mstore\n      0x20\n      add\n      swap1\n      0x01\n      swap1\n      sub\n      swap1\n      dup2\n      tag_162\n      jumpi\n      swap1\n      pop\n    tag_161:\n      pop\n        /* \"contracts/GeekNftMarketPlace.sol\":4379:4423  NFT[] memory myNfts = new NFT[](myNftsCount) */\n      swap1\n      pop\n        /* \"contracts/GeekNftMarketPlace.sol\":4433:4446  uint nftIndex */\n      0x00\n        /* \"contracts/GeekNftMarketPlace.sol\":4465:4471  uint i */\n      dup1\n        /* \"contracts/GeekNftMarketPlace.sol\":4460:4643  for (uint i = 0; i < nftsCount; i++) {... */\n    tag_164:\n        /* \"contracts/GeekNftMarketPlace.sol\":4481:4490  nftsCount */\n      dup5\n        /* \"contracts/GeekNftMarketPlace.sol\":4477:4478  i */\n      dup2\n        /* \"contracts/GeekNftMarketPlace.sol\":4477:4490  i < nftsCount */\n      lt\n        /* \"contracts/GeekNftMarketPlace.sol\":4460:4643  for (uint i = 0; i < nftsCount; i++) {... */\n      iszero\n      tag_165\n      jumpi\n        /* \"contracts/GeekNftMarketPlace.sol\":4533:4543  msg.sender */\n      caller\n        /* \"contracts/GeekNftMarketPlace.sol\":4514:4543  nfts[i].creator == msg.sender */\n      0xffffffffffffffffffffffffffffffffffffffff\n      and\n        /* \"contracts/GeekNftMarketPlace.sol\":4514:4518  nfts */\n      0x05\n        /* \"contracts/GeekNftMarketPlace.sol\":4519:4520  i */\n      dup3\n        /* \"contracts/GeekNftMarketPlace.sol\":4514:4521  nfts[i] */\n      dup2\n      sload\n      dup2\n      lt\n      tag_167\n      jumpi\n      tag_168\n      tag_72\n      jump\t// in\n    tag_168:\n    tag_167:\n      swap1\n      0x00\n      mstore\n      keccak256(0x00, 0x20)\n      swap1\n      0x06\n      mul\n      add\n        /* \"contracts/GeekNftMarketPlace.sol\":4514:4529  nfts[i].creator */\n      0x05\n      add\n      0x00\n      swap1\n      sload\n      swap1\n      0x0100\n      exp\n      swap1\n      div\n      0xffffffffffffffffffffffffffffffffffffffff\n      and\n        /* \"contracts/GeekNftMarketPlace.sol\":4514:4543  nfts[i].creator == msg.sender */\n      0xffffffffffffffffffffffffffffffffffffffff\n      and\n      eq\n        /* \"contracts/GeekNftMarketPlace.sol\":4511:4633  if(nfts[i].creator == msg.sender) {... */\n      iszero\n      tag_170\n      jumpi\n        /* \"contracts/GeekNftMarketPlace.sol\":4582:4586  nfts */\n      0x05\n        /* \"contracts/GeekNftMarketPlace.sol\":4587:4588  i */\n      dup2\n        /* \"contracts/GeekNftMarketPlace.sol\":4582:4589  nfts[i] */\n      dup2\n      sload\n      dup2\n      lt\n      tag_171\n      jumpi\n      tag_172\n      tag_72\n      jump\t// in\n    tag_172:\n    tag_171:\n      swap1\n      0x00\n      mstore\n      keccak256(0x00, 0x20)\n      swap1\n      0x06\n      mul\n      add\n        /* \"contracts/GeekNftMarketPlace.sol\":4563:4589  myNfts[nftIndex] = nfts[i] */\n      mload(0x40)\n      dup1\n      0xe0\n      add\n      0x40\n      mstore\n      swap1\n      dup2\n      0x00\n      dup3\n      add\n      0x00\n      swap1\n      sload\n      swap1\n      0x0100\n      exp\n      swap1\n      div\n      0xffffffffffffffffffffffffffffffffffffffff\n      and\n      0xffffffffffffffffffffffffffffffffffffffff\n      and\n      0xffffffffffffffffffffffffffffffffffffffff\n      and\n      dup2\n      mstore\n      0x20\n      add\n      0x01\n      dup3\n      add\n      sload\n      dup2\n      mstore\n      0x20\n      add\n      0x02\n      dup3\n      add\n      sload\n      dup2\n      mstore\n      0x20\n      add\n      0x03\n      dup3\n      add\n      0x00\n      swap1\n      sload\n      swap1\n      0x0100\n      exp\n      swap1\n      div\n      0xffffffffffffffffffffffffffffffffffffffff\n      and\n      0xffffffffffffffffffffffffffffffffffffffff\n      and\n      0xffffffffffffffffffffffffffffffffffffffff\n      and\n      dup2\n      mstore\n      0x20\n      add\n      0x04\n      dup3\n      add\n      0x00\n      swap1\n      sload\n      swap1\n      0x0100\n      exp\n      swap1\n      div\n      0xffffffffffffffffffffffffffffffffffffffff\n      and\n      0xffffffffffffffffffffffffffffffffffffffff\n      and\n      0xffffffffffffffffffffffffffffffffffffffff\n      and\n      dup2\n      mstore\n      0x20\n      add\n      0x05\n      dup3\n      add\n      0x00\n      swap1\n      sload\n      swap1\n      0x0100\n      exp\n      swap1\n      div\n      0xffffffffffffffffffffffffffffffffffffffff\n      and\n      0xffffffffffffffffffffffffffffffffffffffff\n      and\n      0xffffffffffffffffffffffffffffffffffffffff\n      and\n      dup2\n      mstore\n      0x20\n      add\n      0x05\n      dup3\n      add\n      0x14\n      swap1\n      sload\n      swap1\n      0x0100\n      exp\n      swap1\n      div\n      0xff\n      and\n      iszero\n      iszero\n      iszero\n      iszero\n      dup2\n      mstore\n      pop\n      pop\n        /* \"contracts/GeekNftMarketPlace.sol\":4563:4569  myNfts */\n      dup4\n        /* \"contracts/GeekNftMarketPlace.sol\":4570:4578  nftIndex */\n      dup4\n        /* \"contracts/GeekNftMarketPlace.sol\":4563:4579  myNfts[nftIndex] */\n      dup2\n      mload\n      dup2\n      lt\n      tag_174\n      jumpi\n      tag_175\n      tag_72\n      jump\t// in\n    tag_175:\n    tag_174:\n      0x20\n      mul\n      0x20\n      add\n      add\n        /* \"contracts/GeekNftMarketPlace.sol\":4563:4589  myNfts[nftIndex] = nfts[i] */\n      dup2\n      swap1\n      mstore\n      pop\n        /* \"contracts/GeekNftMarketPlace.sol\":4607:4618  nftIndex ++ */\n      dup2\n      dup1\n      tag_176\n      swap1\n      tag_98\n      jump\t// in\n    tag_176:\n      swap3\n      pop\n      pop\n        /* \"contracts/GeekNftMarketPlace.sol\":4511:4633  if(nfts[i].creator == msg.sender) {... */\n    tag_170:\n        /* \"contracts/GeekNftMarketPlace.sol\":4492:4495  i++ */\n      dup1\n      dup1\n      tag_177\n      swap1\n      tag_98\n      jump\t// in\n    tag_177:\n      swap2\n      pop\n      pop\n        /* \"contracts/GeekNftMarketPlace.sol\":4460:4643  for (uint i = 0; i < nftsCount; i++) {... */\n      jump(tag_164)\n    tag_165:\n      pop\n        /* \"contracts/GeekNftMarketPlace.sol\":4660:4666  myNfts */\n      dup2\n        /* \"contracts/GeekNftMarketPlace.sol\":4653:4666  return myNfts */\n      swap5\n      pop\n      pop\n      pop\n      pop\n      pop\n        /* \"contracts/GeekNftMarketPlace.sol\":4077:4673  function getMyCreatedNfts() public view returns (NFT[] memory) {... */\n      swap1\n      jump\t// out\n        /* \"contracts/GeekNftMarketPlace.sol\":5314:5780  function getListedNfts() public view returns (NFT[] memory) {... */\n    tag_36:\n        /* \"contracts/GeekNftMarketPlace.sol\":5360:5372  NFT[] memory */\n      0x60\n        /* \"contracts/GeekNftMarketPlace.sol\":5384:5400  uint256 nftCount */\n      0x00\n        /* \"contracts/GeekNftMarketPlace.sol\":5403:5423  _nftsCount.current() */\n      tag_179\n        /* \"contracts/GeekNftMarketPlace.sol\":5403:5413  _nftsCount */\n      0x02\n        /* \"contracts/GeekNftMarketPlace.sol\":5403:5421  _nftsCount.current */\n      tag_89\n        /* \"contracts/GeekNftMarketPlace.sol\":5403:5423  _nftsCount.current() */\n      jump\t// in\n    tag_179:\n        /* \"contracts/GeekNftMarketPlace.sol\":5384:5423  uint256 nftCount = _nftsCount.current() */\n      swap1\n      pop\n        /* \"contracts/GeekNftMarketPlace.sol\":5433:5456  uint256 unsoldNftsCount */\n      0x00\n        /* \"contracts/GeekNftMarketPlace.sol\":5470:5489  _nftsSold.current() */\n      tag_180\n        /* \"contracts/GeekNftMarketPlace.sol\":5470:5479  _nftsSold */\n      0x01\n        /* \"contracts/GeekNftMarketPlace.sol\":5470:5487  _nftsSold.current */\n      tag_89\n        /* \"contracts/GeekNftMarketPlace.sol\":5470:5489  _nftsSold.current() */\n      jump\t// in\n    tag_180:\n        /* \"contracts/GeekNftMarketPlace.sol\":5459:5467  nftCount */\n      dup3\n        /* \"contracts/GeekNftMarketPlace.sol\":5459:5489  nftCount - _nftsSold.current() */\n      tag_181\n      swap2\n      swap1\n      tag_182\n      jump\t// in\n    tag_181:\n        /* \"contracts/GeekNftMarketPlace.sol\":5433:5489  uint256 unsoldNftsCount = nftCount - _nftsSold.current() */\n      swap1\n      pop\n        /* \"contracts/GeekNftMarketPlace.sol\":5500:5523  NFT[] memory listedNfts */\n      0x00\n        /* \"contracts/GeekNftMarketPlace.sol\":5536:5551  unsoldNftsCount */\n      dup2\n        /* \"contracts/GeekNftMarketPlace.sol\":5526:5552  new NFT[](unsoldNftsCount) */\n      0xffffffffffffffff\n      dup2\n      gt\n      iszero\n      tag_183\n      jumpi\n      tag_184\n      tag_102\n      jump\t// in\n    tag_184:\n    tag_183:\n      mload(0x40)\n      swap1\n      dup1\n      dup3\n      mstore\n      dup1\n      0x20\n      mul\n      0x20\n      add\n      dup3\n      add\n      0x40\n      mstore\n      dup1\n      iszero\n      tag_185\n      jumpi\n      dup2\n      0x20\n      add\n    tag_186:\n      tag_187\n      tag_106\n      jump\t// in\n    tag_187:\n      dup2\n      mstore\n      0x20\n      add\n      swap1\n      0x01\n      swap1\n      sub\n      swap1\n      dup2\n      tag_186\n      jumpi\n      swap1\n      pop\n    tag_185:\n      pop\n        /* \"contracts/GeekNftMarketPlace.sol\":5500:5552  NFT[] memory listedNfts = new NFT[](unsoldNftsCount) */\n      swap1\n      pop\n        /* \"contracts/GeekNftMarketPlace.sol\":5562:5576  uint nftsIndex */\n      0x00\n        /* \"contracts/GeekNftMarketPlace.sol\":5595:5601  uint i */\n      dup1\n        /* \"contracts/GeekNftMarketPlace.sol\":5590:5747  for (uint i = 0; i < nftCount; i++) {... */\n    tag_188:\n        /* \"contracts/GeekNftMarketPlace.sol\":5611:5619  nftCount */\n      dup5\n        /* \"contracts/GeekNftMarketPlace.sol\":5607:5608  i */\n      dup2\n        /* \"contracts/GeekNftMarketPlace.sol\":5607:5619  i < nftCount */\n      lt\n        /* \"contracts/GeekNftMarketPlace.sol\":5590:5747  for (uint i = 0; i < nftCount; i++) {... */\n      iszero\n      tag_189\n      jumpi\n        /* \"contracts/GeekNftMarketPlace.sol\":5640:5644  nfts */\n      0x05\n        /* \"contracts/GeekNftMarketPlace.sol\":5645:5646  i */\n      dup2\n        /* \"contracts/GeekNftMarketPlace.sol\":5640:5647  nfts[i] */\n      dup2\n      sload\n      dup2\n      lt\n      tag_191\n      jumpi\n      tag_192\n      tag_72\n      jump\t// in\n    tag_192:\n    tag_191:\n      swap1\n      0x00\n      mstore\n      keccak256(0x00, 0x20)\n      swap1\n      0x06\n      mul\n      add\n        /* \"contracts/GeekNftMarketPlace.sol\":5640:5654  nfts[i].listed */\n      0x05\n      add\n      0x14\n      swap1\n      sload\n      swap1\n      0x0100\n      exp\n      swap1\n      div\n      0xff\n      and\n        /* \"contracts/GeekNftMarketPlace.sol\":5636:5737  if (nfts[i].listed) {... */\n      iszero\n      tag_194\n      jumpi\n        /* \"contracts/GeekNftMarketPlace.sol\":5694:5698  nfts */\n      0x05\n        /* \"contracts/GeekNftMarketPlace.sol\":5699:5700  i */\n      dup2\n        /* \"contracts/GeekNftMarketPlace.sol\":5694:5701  nfts[i] */\n      dup2\n      sload\n      dup2\n      lt\n      tag_195\n      jumpi\n      tag_196\n      tag_72\n      jump\t// in\n    tag_196:\n    tag_195:\n      swap1\n      0x00\n      mstore\n      keccak256(0x00, 0x20)\n      swap1\n      0x06\n      mul\n      add\n        /* \"contracts/GeekNftMarketPlace.sol\":5670:5701  listedNfts[nftsIndex] = nfts[i] */\n      mload(0x40)\n      dup1\n      0xe0\n      add\n      0x40\n      mstore\n      swap1\n      dup2\n      0x00\n      dup3\n      add\n      0x00\n      swap1\n      sload\n      swap1\n      0x0100\n      exp\n      swap1\n      div\n      0xffffffffffffffffffffffffffffffffffffffff\n      and\n      0xffffffffffffffffffffffffffffffffffffffff\n      and\n      0xffffffffffffffffffffffffffffffffffffffff\n      and\n      dup2\n      mstore\n      0x20\n      add\n      0x01\n      dup3\n      add\n      sload\n      dup2\n      mstore\n      0x20\n      add\n      0x02\n      dup3\n      add\n      sload\n      dup2\n      mstore\n      0x20\n      add\n      0x03\n      dup3\n      add\n      0x00\n      swap1\n      sload\n      swap1\n      0x0100\n      exp\n      swap1\n      div\n      0xffffffffffffffffffffffffffffffffffffffff\n      and\n      0xffffffffffffffffffffffffffffffffffffffff\n      and\n      0xffffffffffffffffffffffffffffffffffffffff\n      and\n      dup2\n      mstore\n      0x20\n      add\n      0x04\n      dup3\n      add\n      0x00\n      swap1\n      sload\n      swap1\n      0x0100\n      exp\n      swap1\n      div\n      0xffffffffffffffffffffffffffffffffffffffff\n      and\n      0xffffffffffffffffffffffffffffffffffffffff\n      and\n      0xffffffffffffffffffffffffffffffffffffffff\n      and\n      dup2\n      mstore\n      0x20\n      add\n      0x05\n      dup3\n      add\n      0x00\n      swap1\n      sload\n      swap1\n      0x0100\n      exp\n      swap1\n      div\n      0xffffffffffffffffffffffffffffffffffffffff\n      and\n      0xffffffffffffffffffffffffffffffffffffffff\n      and\n      0xffffffffffffffffffffffffffffffffffffffff\n      and\n      dup2\n      mstore\n      0x20\n      add\n      0x05\n      dup3\n      add\n      0x14\n      swap1\n      sload\n      swap1\n      0x0100\n      exp\n      swap1\n      div\n      0xff\n      and\n      iszero\n      iszero\n      iszero\n      iszero\n      dup2\n      mstore\n      pop\n      pop\n        /* \"contracts/GeekNftMarketPlace.sol\":5670:5680  listedNfts */\n      dup4\n        /* \"contracts/GeekNftMarketPlace.sol\":5681:5690  nftsIndex */\n      dup4\n        /* \"contracts/GeekNftMarketPlace.sol\":5670:5691  listedNfts[nftsIndex] */\n      dup2\n      mload\n      dup2\n      lt\n      tag_198\n      jumpi\n      tag_199\n      tag_72\n      jump\t// in\n    tag_199:\n    tag_198:\n      0x20\n      mul\n      0x20\n      add\n      add\n        /* \"contracts/GeekNftMarketPlace.sol\":5670:5701  listedNfts[nftsIndex] = nfts[i] */\n      dup2\n      swap1\n      mstore\n      pop\n        /* \"contracts/GeekNftMarketPlace.sol\":5715:5726  nftsIndex++ */\n      dup2\n      dup1\n      tag_200\n      swap1\n      tag_98\n      jump\t// in\n    tag_200:\n      swap3\n      pop\n      pop\n        /* \"contracts/GeekNftMarketPlace.sol\":5636:5737  if (nfts[i].listed) {... */\n    tag_194:\n        /* \"contracts/GeekNftMarketPlace.sol\":5621:5624  i++ */\n      dup1\n      dup1\n      tag_201\n      swap1\n      tag_98\n      jump\t// in\n    tag_201:\n      swap2\n      pop\n      pop\n        /* \"contracts/GeekNftMarketPlace.sol\":5590:5747  for (uint i = 0; i < nftCount; i++) {... */\n      jump(tag_188)\n    tag_189:\n      pop\n        /* \"contracts/GeekNftMarketPlace.sol\":5763:5773  listedNfts */\n      dup2\n        /* \"contracts/GeekNftMarketPlace.sol\":5756:5773  return listedNfts */\n      swap5\n      pop\n      pop\n      pop\n      pop\n      pop\n        /* \"contracts/GeekNftMarketPlace.sol\":5314:5780  function getListedNfts() public view returns (NFT[] memory) {... */\n      swap1\n      jump\t// out\n        /* \"contracts/GeekNftMarketPlace.sol\":3446:4036  function getMyOwnedNfts() public view returns (NFT[] memory) {... */\n    tag_40:\n        /* \"contracts/GeekNftMarketPlace.sol\":3493:3505  NFT[] memory */\n      0x60\n        /* \"contracts/GeekNftMarketPlace.sol\":3517:3531  uint nftsCount */\n      0x00\n        /* \"contracts/GeekNftMarketPlace.sol\":3534:3554  _nftsCount.current() */\n      tag_203\n        /* \"contracts/GeekNftMarketPlace.sol\":3534:3544  _nftsCount */\n      0x02\n        /* \"contracts/GeekNftMarketPlace.sol\":3534:3552  _nftsCount.current */\n      tag_89\n        /* \"contracts/GeekNftMarketPlace.sol\":3534:3554  _nftsCount.current() */\n      jump\t// in\n    tag_203:\n        /* \"contracts/GeekNftMarketPlace.sol\":3517:3554  uint nftsCount = _nftsCount.current() */\n      swap1\n      pop\n        /* \"contracts/GeekNftMarketPlace.sol\":3564:3580  uint myNftsCount */\n      0x00\n        /* \"contracts/GeekNftMarketPlace.sol\":3599:3605  uint i */\n      dup1\n        /* \"contracts/GeekNftMarketPlace.sol\":3594:3734  for (uint i = 0; i < nftsCount; i++) {... */\n    tag_204:\n        /* \"contracts/GeekNftMarketPlace.sol\":3615:3624  nftsCount */\n      dup3\n        /* \"contracts/GeekNftMarketPlace.sol\":3611:3612  i */\n      dup2\n        /* \"contracts/GeekNftMarketPlace.sol\":3611:3624  i < nftsCount */\n      lt\n        /* \"contracts/GeekNftMarketPlace.sol\":3594:3734  for (uint i = 0; i < nftsCount; i++) {... */\n      iszero\n      tag_205\n      jumpi\n        /* \"contracts/GeekNftMarketPlace.sol\":3665:3675  msg.sender */\n      caller\n        /* \"contracts/GeekNftMarketPlace.sol\":3648:3675  nfts[i].owner == msg.sender */\n      0xffffffffffffffffffffffffffffffffffffffff\n      and\n        /* \"contracts/GeekNftMarketPlace.sol\":3648:3652  nfts */\n      0x05\n        /* \"contracts/GeekNftMarketPlace.sol\":3653:3654  i */\n      dup3\n        /* \"contracts/GeekNftMarketPlace.sol\":3648:3655  nfts[i] */\n      dup2\n      sload\n      dup2\n      lt\n      tag_207\n      jumpi\n      tag_208\n      tag_72\n      jump\t// in\n    tag_208:\n    tag_207:\n      swap1\n      0x00\n      mstore\n      keccak256(0x00, 0x20)\n      swap1\n      0x06\n      mul\n      add\n        /* \"contracts/GeekNftMarketPlace.sol\":3648:3661  nfts[i].owner */\n      0x04\n      add\n      0x00\n      swap1\n      sload\n      swap1\n      0x0100\n      exp\n      swap1\n      div\n      0xffffffffffffffffffffffffffffffffffffffff\n      and\n        /* \"contracts/GeekNftMarketPlace.sol\":3648:3675  nfts[i].owner == msg.sender */\n      0xffffffffffffffffffffffffffffffffffffffff\n      and\n      eq\n        /* \"contracts/GeekNftMarketPlace.sol\":3645:3724  if(nfts[i].owner == msg.sender) {... */\n      iszero\n      tag_210\n      jumpi\n        /* \"contracts/GeekNftMarketPlace.sol\":3695:3709  myNftsCount ++ */\n      dup2\n      dup1\n      tag_211\n      swap1\n      tag_98\n      jump\t// in\n    tag_211:\n      swap3\n      pop\n      pop\n        /* \"contracts/GeekNftMarketPlace.sol\":3645:3724  if(nfts[i].owner == msg.sender) {... */\n    tag_210:\n        /* \"contracts/GeekNftMarketPlace.sol\":3626:3629  i++ */\n      dup1\n      dup1\n      tag_212\n      swap1\n      tag_98\n      jump\t// in\n    tag_212:\n      swap2\n      pop\n      pop\n        /* \"contracts/GeekNftMarketPlace.sol\":3594:3734  for (uint i = 0; i < nftsCount; i++) {... */\n      jump(tag_204)\n    tag_205:\n      pop\n        /* \"contracts/GeekNftMarketPlace.sol\":3744:3763  NFT[] memory myNfts */\n      0x00\n        /* \"contracts/GeekNftMarketPlace.sol\":3776:3787  myNftsCount */\n      dup2\n        /* \"contracts/GeekNftMarketPlace.sol\":3766:3788  new NFT[](myNftsCount) */\n      0xffffffffffffffff\n      dup2\n      gt\n      iszero\n      tag_213\n      jumpi\n      tag_214\n      tag_102\n      jump\t// in\n    tag_214:\n    tag_213:\n      mload(0x40)\n      swap1\n      dup1\n      dup3\n      mstore\n      dup1\n      0x20\n      mul\n      0x20\n      add\n      dup3\n      add\n      0x40\n      mstore\n      dup1\n      iszero\n      tag_215\n      jumpi\n      dup2\n      0x20\n      add\n    tag_216:\n      tag_217\n      tag_106\n      jump\t// in\n    tag_217:\n      dup2\n      mstore\n      0x20\n      add\n      swap1\n      0x01\n      swap1\n      sub\n      swap1\n      dup2\n      tag_216\n      jumpi\n      swap1\n      pop\n    tag_215:\n      pop\n        /* \"contracts/GeekNftMarketPlace.sol\":3744:3788  NFT[] memory myNfts = new NFT[](myNftsCount) */\n      swap1\n      pop\n        /* \"contracts/GeekNftMarketPlace.sol\":3798:3811  uint nftIndex */\n      0x00\n        /* \"contracts/GeekNftMarketPlace.sol\":3830:3836  uint i */\n      dup1\n        /* \"contracts/GeekNftMarketPlace.sol\":3825:4006  for (uint i = 0; i < nftsCount; i++) {... */\n    tag_218:\n        /* \"contracts/GeekNftMarketPlace.sol\":3846:3855  nftsCount */\n      dup5\n        /* \"contracts/GeekNftMarketPlace.sol\":3842:3843  i */\n      dup2\n        /* \"contracts/GeekNftMarketPlace.sol\":3842:3855  i < nftsCount */\n      lt\n        /* \"contracts/GeekNftMarketPlace.sol\":3825:4006  for (uint i = 0; i < nftsCount; i++) {... */\n      iszero\n      tag_219\n      jumpi\n        /* \"contracts/GeekNftMarketPlace.sol\":3896:3906  msg.sender */\n      caller\n        /* \"contracts/GeekNftMarketPlace.sol\":3879:3906  nfts[i].owner == msg.sender */\n      0xffffffffffffffffffffffffffffffffffffffff\n      and\n        /* \"contracts/GeekNftMarketPlace.sol\":3879:3883  nfts */\n      0x05\n        /* \"contracts/GeekNftMarketPlace.sol\":3884:3885  i */\n      dup3\n        /* \"contracts/GeekNftMarketPlace.sol\":3879:3886  nfts[i] */\n      dup2\n      sload\n      dup2\n      lt\n      tag_221\n      jumpi\n      tag_222\n      tag_72\n      jump\t// in\n    tag_222:\n    tag_221:\n      swap1\n      0x00\n      mstore\n      keccak256(0x00, 0x20)\n      swap1\n      0x06\n      mul\n      add\n        /* \"contracts/GeekNftMarketPlace.sol\":3879:3892  nfts[i].owner */\n      0x04\n      add\n      0x00\n      swap1\n      sload\n      swap1\n      0x0100\n      exp\n      swap1\n      div\n      0xffffffffffffffffffffffffffffffffffffffff\n      and\n        /* \"contracts/GeekNftMarketPlace.sol\":3879:3906  nfts[i].owner == msg.sender */\n      0xffffffffffffffffffffffffffffffffffffffff\n      and\n      eq\n        /* \"contracts/GeekNftMarketPlace.sol\":3876:3996  if(nfts[i].owner == msg.sender) {... */\n      iszero\n      tag_224\n      jumpi\n        /* \"contracts/GeekNftMarketPlace.sol\":3945:3949  nfts */\n      0x05\n        /* \"contracts/GeekNftMarketPlace.sol\":3950:3951  i */\n      dup2\n        /* \"contracts/GeekNftMarketPlace.sol\":3945:3952  nfts[i] */\n      dup2\n      sload\n      dup2\n      lt\n      tag_225\n      jumpi\n      tag_226\n      tag_72\n      jump\t// in\n    tag_226:\n    tag_225:\n      swap1\n      0x00\n      mstore\n      keccak256(0x00, 0x20)\n      swap1\n      0x06\n      mul\n      add\n        /* \"contracts/GeekNftMarketPlace.sol\":3926:3952  myNfts[nftIndex] = nfts[i] */\n      mload(0x40)\n      dup1\n      0xe0\n      add\n      0x40\n      mstore\n      swap1\n      dup2\n      0x00\n      dup3\n      add\n      0x00\n      swap1\n      sload\n      swap1\n      0x0100\n      exp\n      swap1\n      div\n      0xffffffffffffffffffffffffffffffffffffffff\n      and\n      0xffffffffffffffffffffffffffffffffffffffff\n      and\n      0xffffffffffffffffffffffffffffffffffffffff\n      and\n      dup2\n      mstore\n      0x20\n      add\n      0x01\n      dup3\n      add\n      sload\n      dup2\n      mstore\n      0x20\n      add\n      0x02\n      dup3\n      add\n      sload\n      dup2\n      mstore\n      0x20\n      add\n      0x03\n      dup3\n      add\n      0x00\n      swap1\n      sload\n      swap1\n      0x0100\n      exp\n      swap1\n      div\n      0xffffffffffffffffffffffffffffffffffffffff\n      and\n      0xffffffffffffffffffffffffffffffffffffffff\n      and\n      0xffffffffffffffffffffffffffffffffffffffff\n      and\n      dup2\n      mstore\n      0x20\n      add\n      0x04\n      dup3\n      add\n      0x00\n      swap1\n      sload\n      swap1\n      0x0100\n      exp\n      swap1\n      div\n      0xffffffffffffffffffffffffffffffffffffffff\n      and\n      0xffffffffffffffffffffffffffffffffffffffff\n      and\n      0xffffffffffffffffffffffffffffffffffffffff\n      and\n      dup2\n      mstore\n      0x20\n      add\n      0x05\n      dup3\n      add\n      0x00\n      swap1\n      sload\n      swap1\n      0x0100\n      exp\n      swap1\n      div\n      0xffffffffffffffffffffffffffffffffffffffff\n      and\n      0xffffffffffffffffffffffffffffffffffffffff\n      and\n      0xffffffffffffffffffffffffffffffffffffffff\n      and\n      dup2\n      mstore\n      0x20\n      add\n      0x05\n      dup3\n      add\n      0x14\n      swap1\n      sload\n      swap1\n      0x0100\n      exp\n      swap1\n      div\n      0xff\n      and\n      iszero\n      iszero\n      iszero\n      iszero\n      dup2\n      mstore\n      pop\n      pop\n        /* \"contracts/GeekNftMarketPlace.sol\":3926:3932  myNfts */\n      dup4\n        /* \"contracts/GeekNftMarketPlace.sol\":3933:3941  nftIndex */\n      dup4\n        /* \"contracts/GeekNftMarketPlace.sol\":3926:3942  myNfts[nftIndex] */\n      dup2\n      mload\n      dup2\n      lt\n      tag_228\n      jumpi\n      tag_229\n      tag_72\n      jump\t// in\n    tag_229:\n    tag_228:\n      0x20\n      mul\n      0x20\n      add\n      add\n        /* \"contracts/GeekNftMarketPlace.sol\":3926:3952  myNfts[nftIndex] = nfts[i] */\n      dup2\n      swap1\n      mstore\n      pop\n        /* \"contracts/GeekNftMarketPlace.sol\":3970:3981  nftIndex ++ */\n      dup2\n      dup1\n      tag_230\n      swap1\n      tag_98\n      jump\t// in\n    tag_230:\n      swap3\n      pop\n      pop\n        /* \"contracts/GeekNftMarketPlace.sol\":3876:3996  if(nfts[i].owner == msg.sender) {... */\n    tag_224:\n        /* \"contracts/GeekNftMarketPlace.sol\":3857:3860  i++ */\n      dup1\n      dup1\n      tag_231\n      swap1\n      tag_98\n      jump\t// in\n    tag_231:\n      swap2\n      pop\n      pop\n        /* \"contracts/GeekNftMarketPlace.sol\":3825:4006  for (uint i = 0; i < nftsCount; i++) {... */\n      jump(tag_218)\n    tag_219:\n      pop\n        /* \"contracts/GeekNftMarketPlace.sol\":4023:4029  myNfts */\n      dup2\n        /* \"contracts/GeekNftMarketPlace.sol\":4016:4029  return myNfts */\n      swap5\n      pop\n      pop\n      pop\n      pop\n      pop\n        /* \"contracts/GeekNftMarketPlace.sol\":3446:4036  function getMyOwnedNfts() public view returns (NFT[] memory) {... */\n      swap1\n      jump\t// out\n        /* \"contracts/GeekNftMarketPlace.sol\":1150:1866  function listNFT(address _nftContract, uint _tokenId, uint _price) public payable nonReentrant{... */\n    tag_44:\n        /* \"contracts/RenntrancyGuard.sol\":171:172  2 */\n      0x02\n        /* \"contracts/RenntrancyGuard.sol\":310:317  _status */\n      sload(0x00)\n        /* \"contracts/RenntrancyGuard.sol\":310:329  _status != _ENTERED */\n      eq\n      iszero\n        /* \"contracts/RenntrancyGuard.sol\":302:365  require(_status != _ENTERED, \"ReentrancyGuard: reentrant call\") */\n      tag_233\n      jumpi\n      mload(0x40)\n      0x08c379a000000000000000000000000000000000000000000000000000000000\n      dup2\n      mstore\n      0x04\n      add\n      tag_234\n      swap1\n      tag_52\n      jump\t// in\n    tag_234:\n      mload(0x40)\n      dup1\n      swap2\n      sub\n      swap1\n      revert\n    tag_233:\n        /* \"contracts/RenntrancyGuard.sol\":171:172  2 */\n      0x02\n        /* \"contracts/RenntrancyGuard.sol\":375:382  _status */\n      0x00\n        /* \"contracts/RenntrancyGuard.sol\":375:393  _status = _ENTERED */\n      dup2\n      swap1\n      sstore\n      pop\n        /* \"contracts/GeekNftMarketPlace.sol\":1271:1272  0 */\n      0x00\n        /* \"contracts/GeekNftMarketPlace.sol\":1262:1268  _price */\n      dup2\n        /* \"contracts/GeekNftMarketPlace.sol\":1262:1272  _price > 0 */\n      gt\n        /* \"contracts/GeekNftMarketPlace.sol\":1254:1305  require(_price > 0, \"Price must be at least 1 wei\") */\n      tag_236\n      jumpi\n      mload(0x40)\n      0x08c379a000000000000000000000000000000000000000000000000000000000\n      dup2\n      mstore\n      0x04\n      add\n      tag_237\n      swap1\n      tag_56\n      jump\t// in\n    tag_237:\n      mload(0x40)\n      dup1\n      swap2\n      sub\n      swap1\n      revert\n    tag_236:\n        /* \"contracts/GeekNftMarketPlace.sol\":1336:1347  LISTING_FEE */\n      sload(0x03)\n        /* \"contracts/GeekNftMarketPlace.sol\":1323:1332  msg.value */\n      callvalue\n        /* \"contracts/GeekNftMarketPlace.sol\":1323:1347  msg.value == LISTING_FEE */\n      eq\n        /* \"contracts/GeekNftMarketPlace.sol\":1315:1384  require(msg.value == LISTING_FEE, \"Not enough ether for listing fee\") */\n      tag_238\n      jumpi\n      mload(0x40)\n      0x08c379a000000000000000000000000000000000000000000000000000000000\n      dup2\n      mstore\n      0x04\n      add\n      tag_239\n      swap1\n      tag_59\n      jump\t// in\n    tag_239:\n      mload(0x40)\n      dup1\n      swap2\n      sub\n      swap1\n      revert\n    tag_238:\n        /* \"contracts/GeekNftMarketPlace.sol\":1412:1424  _nftContract */\n      dup3\n        /* \"contracts/GeekNftMarketPlace.sol\":1395:1438  GeekNftInterface(_nftContract).transferFrom */\n      0xffffffffffffffffffffffffffffffffffffffff\n      and\n      0x23b872dd\n        /* \"contracts/GeekNftMarketPlace.sol\":1439:1449  msg.sender */\n      caller\n        /* \"contracts/GeekNftMarketPlace.sol\":1459:1463  this */\n      address\n        /* \"contracts/GeekNftMarketPlace.sol\":1466:1474  _tokenId */\n      dup6\n        /* \"contracts/GeekNftMarketPlace.sol\":1395:1475  GeekNftInterface(_nftContract).transferFrom(msg.sender, address(this), _tokenId) */\n      mload(0x40)\n      dup5\n      0xffffffff\n      and\n      0xe0\n      shl\n      dup2\n      mstore\n      0x04\n      add\n      tag_240\n      swap4\n      swap3\n      swap2\n      swap1\n      tag_66\n      jump\t// in\n    tag_240:\n      0x00\n      mload(0x40)\n      dup1\n      dup4\n      sub\n      dup2\n      0x00\n      dup8\n      dup1\n      extcodesize\n      iszero\n      dup1\n      iszero\n      tag_241\n      jumpi\n      0x00\n      dup1\n      revert\n    tag_241:\n      pop\n      gas\n      call\n      iszero\n      dup1\n      iszero\n      tag_243\n      jumpi\n      returndatasize\n      0x00\n      dup1\n      returndatacopy\n      revert(0x00, returndatasize)\n    tag_243:\n      pop\n      pop\n      pop\n      pop\n        /* \"contracts/GeekNftMarketPlace.sol\":1486:1490  nfts */\n      0x05\n        /* \"contracts/GeekNftMarketPlace.sol\":1496:1697  NFT(... */\n      mload(0x40)\n      dup1\n      0xe0\n      add\n      0x40\n      mstore\n      dup1\n        /* \"contracts/GeekNftMarketPlace.sol\":1513:1525  _nftContract */\n      dup6\n        /* \"contracts/GeekNftMarketPlace.sol\":1496:1697  NFT(... */\n      0xffffffffffffffffffffffffffffffffffffffff\n      and\n      dup2\n      mstore\n      0x20\n      add\n        /* \"contracts/GeekNftMarketPlace.sol\":1539:1547  _tokenId */\n      dup5\n        /* \"contracts/GeekNftMarketPlace.sol\":1496:1697  NFT(... */\n      dup2\n      mstore\n      0x20\n      add\n        /* \"contracts/GeekNftMarketPlace.sol\":1561:1567  _price */\n      dup4\n        /* \"contracts/GeekNftMarketPlace.sol\":1496:1697  NFT(... */\n      dup2\n      mstore\n      0x20\n      add\n        /* \"contracts/GeekNftMarketPlace.sol\":1589:1599  msg.sender */\n      caller\n        /* \"contracts/GeekNftMarketPlace.sol\":1496:1697  NFT(... */\n      0xffffffffffffffffffffffffffffffffffffffff\n      and\n      dup2\n      mstore\n      0x20\n      add\n        /* \"contracts/GeekNftMarketPlace.sol\":1630:1634  this */\n      address\n        /* \"contracts/GeekNftMarketPlace.sol\":1496:1697  NFT(... */\n      0xffffffffffffffffffffffffffffffffffffffff\n      and\n      dup2\n      mstore\n      0x20\n      add\n        /* \"contracts/GeekNftMarketPlace.sol\":1658:1668  msg.sender */\n      caller\n        /* \"contracts/GeekNftMarketPlace.sol\":1496:1697  NFT(... */\n      0xffffffffffffffffffffffffffffffffffffffff\n      and\n      dup2\n      mstore\n      0x20\n      add\n        /* \"contracts/GeekNftMarketPlace.sol\":1683:1687  true */\n      0x01\n        /* \"contracts/GeekNftMarketPlace.sol\":1496:1697  NFT(... */\n      iszero\n      iszero\n      dup2\n      mstore\n      pop\n        /* \"contracts/GeekNftMarketPlace.sol\":1486:1698  nfts.push(NFT(... */\n      swap1\n      dup1\n      0x01\n      dup2\n      sload\n      add\n      dup1\n      dup3\n      sstore\n      dup1\n      swap2\n      pop\n      pop\n      0x01\n      swap1\n      sub\n      swap1\n      0x00\n      mstore\n      keccak256(0x00, 0x20)\n      swap1\n      0x06\n      mul\n      add\n      0x00\n      swap1\n      swap2\n      swap1\n      swap2\n      swap1\n      swap2\n      pop\n      0x00\n      dup3\n      add\n      mload\n      dup2\n      0x00\n      add\n      exp(0x0100, 0x00)\n      dup2\n      sload\n      dup2\n      0xffffffffffffffffffffffffffffffffffffffff\n      mul\n      not\n      and\n      swap1\n      dup4\n      0xffffffffffffffffffffffffffffffffffffffff\n      and\n      mul\n      or\n      swap1\n      sstore\n      pop\n      0x20\n      dup3\n      add\n      mload\n      dup2\n      0x01\n      add\n      sstore\n      0x40\n      dup3\n      add\n      mload\n      dup2\n      0x02\n      add\n      sstore\n      0x60\n      dup3\n      add\n      mload\n      dup2\n      0x03\n      add\n      exp(0x0100, 0x00)\n      dup2\n      sload\n      dup2\n      0xffffffffffffffffffffffffffffffffffffffff\n      mul\n      not\n      and\n      swap1\n      dup4\n      0xffffffffffffffffffffffffffffffffffffffff\n      and\n      mul\n      or\n      swap1\n      sstore\n      pop\n      0x80\n      dup3\n      add\n      mload\n      dup2\n      0x04\n      add\n      exp(0x0100, 0x00)\n      dup2\n      sload\n      dup2\n      0xffffffffffffffffffffffffffffffffffffffff\n      mul\n      not\n      and\n      swap1\n      dup4\n      0xffffffffffffffffffffffffffffffffffffffff\n      and\n      mul\n      or\n      swap1\n      sstore\n      pop\n      0xa0\n      dup3\n      add\n      mload\n      dup2\n      0x05\n      add\n      exp(0x0100, 0x00)\n      dup2\n      sload\n      dup2\n      0xffffffffffffffffffffffffffffffffffffffff\n      mul\n      not\n      and\n      swap1\n      dup4\n      0xffffffffffffffffffffffffffffffffffffffff\n      and\n      mul\n      or\n      swap1\n      sstore\n      pop\n      0xc0\n      dup3\n      add\n      mload\n      dup2\n      0x05\n      add\n      exp(0x0100, 0x14)\n      dup2\n      sload\n      dup2\n      0xff\n      mul\n      not\n      and\n      swap1\n      dup4\n      iszero\n      iszero\n      mul\n      or\n      swap1\n      sstore\n      pop\n      pop\n      pop\n        /* \"contracts/GeekNftMarketPlace.sol\":1709:1731  _nftsCount.increment() */\n      tag_245\n        /* \"contracts/GeekNftMarketPlace.sol\":1709:1719  _nftsCount */\n      0x02\n        /* \"contracts/GeekNftMarketPlace.sol\":1709:1729  _nftsCount.increment */\n      tag_146\n        /* \"contracts/GeekNftMarketPlace.sol\":1709:1731  _nftsCount.increment() */\n      jump\t// in\n    tag_245:\n        /* \"contracts/GeekNftMarketPlace.sol\":1742:1755  _marketOwwner */\n      0x04\n      0x00\n      swap1\n      sload\n      swap1\n      0x0100\n      exp\n      swap1\n      div\n      0xffffffffffffffffffffffffffffffffffffffff\n      and\n        /* \"contracts/GeekNftMarketPlace.sol\":1742:1764  _marketOwwner.transfer */\n      0xffffffffffffffffffffffffffffffffffffffff\n      and\n        /* \"contracts/GeekNftMarketPlace.sol\":1742:1775  _marketOwwner.transfer(msg.value) */\n      0x08fc\n        /* \"contracts/GeekNftMarketPlace.sol\":1765:1774  msg.value */\n      callvalue\n        /* \"contracts/GeekNftMarketPlace.sol\":1742:1775  _marketOwwner.transfer(msg.value) */\n      swap1\n      dup2\n      iszero\n      mul\n      swap1\n      mload(0x40)\n      0x00\n      mload(0x40)\n      dup1\n      dup4\n      sub\n      dup2\n      dup6\n      dup9\n      dup9\n      call\n      swap4\n      pop\n      pop\n      pop\n      pop\n      iszero\n      dup1\n      iszero\n      tag_247\n      jumpi\n      returndatasize\n      0x00\n      dup1\n      returndatacopy\n      revert(0x00, returndatasize)\n    tag_247:\n      pop\n        /* \"contracts/GeekNftMarketPlace.sol\":1845:1849  this */\n      address\n        /* \"contracts/GeekNftMarketPlace.sol\":1791:1859  NFTListed(_nftContract, _tokenId, msg.sender, address(this), _price) */\n      0xffffffffffffffffffffffffffffffffffffffff\n      and\n        /* \"contracts/GeekNftMarketPlace.sol\":1825:1835  msg.sender */\n      caller\n        /* \"contracts/GeekNftMarketPlace.sol\":1791:1859  NFTListed(_nftContract, _tokenId, msg.sender, address(this), _price) */\n      0xffffffffffffffffffffffffffffffffffffffff\n      and\n      0xa0c6c0d02d86fdacecbaa5fdf5894bab204e31a778250474108540733a9b8d19\n        /* \"contracts/GeekNftMarketPlace.sol\":1801:1813  _nftContract */\n      dup6\n        /* \"contracts/GeekNftMarketPlace.sol\":1815:1823  _tokenId */\n      dup6\n        /* \"contracts/GeekNftMarketPlace.sol\":1852:1858  _price */\n      dup6\n        /* \"contracts/GeekNftMarketPlace.sol\":1791:1859  NFTListed(_nftContract, _tokenId, msg.sender, address(this), _price) */\n      mload(0x40)\n      tag_248\n      swap4\n      swap3\n      swap2\n      swap1\n      tag_86\n      jump\t// in\n    tag_248:\n      mload(0x40)\n      dup1\n      swap2\n      sub\n      swap1\n      log3\n        /* \"contracts/RenntrancyGuard.sol\":128:129  1 */\n      0x01\n        /* \"contracts/RenntrancyGuard.sol\":414:421  _status */\n      0x00\n        /* \"contracts/RenntrancyGuard.sol\":414:436  _status = _NOT_ENTERED */\n      dup2\n      swap1\n      sstore\n      pop\n        /* \"contracts/GeekNftMarketPlace.sol\":1150:1866  function listNFT(address _nftContract, uint _tokenId, uint _price) public payable nonReentrant{... */\n      pop\n      pop\n      pop\n      jump\t// out\n        /* \"contracts/GeekNftMarketPlace.sol\":1019:1105  function getListingFee() public view returns (uint){... */\n    tag_47:\n        /* \"contracts/GeekNftMarketPlace.sol\":1065:1069  uint */\n      0x00\n        /* \"contracts/GeekNftMarketPlace.sol\":1087:1098  LISTING_FEE */\n      sload(0x03)\n        /* \"contracts/GeekNftMarketPlace.sol\":1080:1098  return LISTING_FEE */\n      swap1\n      pop\n        /* \"contracts/GeekNftMarketPlace.sol\":1019:1105  function getListingFee() public view returns (uint){... */\n      swap1\n      jump\t// out\n        /* \"contracts/GeekNftMarketPlace.sol\":5786:6251  function getNFT(address _nftContract, uint _tokenId) private view returns (NFT memory, int) {... */\n    tag_61:\n        /* \"contracts/GeekNftMarketPlace.sol\":5861:5871  NFT memory */\n      tag_250\n      tag_106\n      jump\t// in\n    tag_250:\n        /* \"contracts/GeekNftMarketPlace.sol\":5873:5876  int */\n      0x00\n        /* \"contracts/GeekNftMarketPlace.sol\":5888:5902  NFT memory nft */\n      tag_252\n      tag_106\n      jump\t// in\n    tag_252:\n        /* \"contracts/GeekNftMarketPlace.sol\":5912:5921  int index */\n      0x00\n        /* \"contracts/GeekNftMarketPlace.sol\":5924:5926  -1 */\n      0xffffffffffffffffffffffffffffffffffffffffffffffffffffffffffffffff\n        /* \"contracts/GeekNftMarketPlace.sol\":5912:5926  int index = -1 */\n      swap1\n      pop\n        /* \"contracts/GeekNftMarketPlace.sol\":5936:5952  uint256 nftCount */\n      0x00\n        /* \"contracts/GeekNftMarketPlace.sol\":5955:5975  _nftsCount.current() */\n      tag_253\n        /* \"contracts/GeekNftMarketPlace.sol\":5955:5965  _nftsCount */\n      0x02\n        /* \"contracts/GeekNftMarketPlace.sol\":5955:5973  _nftsCount.current */\n      tag_89\n        /* \"contracts/GeekNftMarketPlace.sol\":5955:5975  _nftsCount.current() */\n      jump\t// in\n    tag_253:\n        /* \"contracts/GeekNftMarketPlace.sol\":5936:5975  uint256 nftCount = _nftsCount.current() */\n      swap1\n      pop\n        /* \"contracts/GeekNftMarketPlace.sol\":5989:5995  uint i */\n      0x00\n        /* \"contracts/GeekNftMarketPlace.sol\":5985:6216  for(uint i = 0; i < nftCount; i++) {... */\n    tag_254:\n        /* \"contracts/GeekNftMarketPlace.sol\":6005:6013  nftCount */\n      dup2\n        /* \"contracts/GeekNftMarketPlace.sol\":6001:6002  i */\n      dup2\n        /* \"contracts/GeekNftMarketPlace.sol\":6001:6013  i < nftCount */\n      lt\n        /* \"contracts/GeekNftMarketPlace.sol\":5985:6216  for(uint i = 0; i < nftCount; i++) {... */\n      iszero\n      tag_255\n      jumpi\n        /* \"contracts/GeekNftMarketPlace.sol\":6060:6072  _nftContract */\n      dup8\n        /* \"contracts/GeekNftMarketPlace.sol\":6037:6072  nfts[i].nftContract == _nftContract */\n      0xffffffffffffffffffffffffffffffffffffffff\n      and\n        /* \"contracts/GeekNftMarketPlace.sol\":6037:6041  nfts */\n      0x05\n        /* \"contracts/GeekNftMarketPlace.sol\":6042:6043  i */\n      dup3\n        /* \"contracts/GeekNftMarketPlace.sol\":6037:6044  nfts[i] */\n      dup2\n      sload\n      dup2\n      lt\n      tag_257\n      jumpi\n      tag_258\n      tag_72\n      jump\t// in\n    tag_258:\n    tag_257:\n      swap1\n      0x00\n      mstore\n      keccak256(0x00, 0x20)\n      swap1\n      0x06\n      mul\n      add\n        /* \"contracts/GeekNftMarketPlace.sol\":6037:6056  nfts[i].nftContract */\n      0x00\n      add\n      0x00\n      swap1\n      sload\n      swap1\n      0x0100\n      exp\n      swap1\n      div\n      0xffffffffffffffffffffffffffffffffffffffff\n      and\n        /* \"contracts/GeekNftMarketPlace.sol\":6037:6072  nfts[i].nftContract == _nftContract */\n      0xffffffffffffffffffffffffffffffffffffffff\n      and\n      eq\n        /* \"contracts/GeekNftMarketPlace.sol\":6037:6103  nfts[i].nftContract == _nftContract && nfts[i].tokenId == _tokenId */\n      dup1\n      iszero\n      tag_260\n      jumpi\n      pop\n        /* \"contracts/GeekNftMarketPlace.sol\":6095:6103  _tokenId */\n      dup7\n        /* \"contracts/GeekNftMarketPlace.sol\":6076:6080  nfts */\n      0x05\n        /* \"contracts/GeekNftMarketPlace.sol\":6081:6082  i */\n      dup3\n        /* \"contracts/GeekNftMarketPlace.sol\":6076:6083  nfts[i] */\n      dup2\n      sload\n      dup2\n      lt\n      tag_261\n      jumpi\n      tag_262\n      tag_72\n      jump\t// in\n    tag_262:\n    tag_261:\n      swap1\n      0x00\n      mstore\n      keccak256(0x00, 0x20)\n      swap1\n      0x06\n      mul\n      add\n        /* \"contracts/GeekNftMarketPlace.sol\":6076:6091  nfts[i].tokenId */\n      0x01\n      add\n      sload\n        /* \"contracts/GeekNftMarketPlace.sol\":6076:6103  nfts[i].tokenId == _tokenId */\n      eq\n        /* \"contracts/GeekNftMarketPlace.sol\":6037:6103  nfts[i].nftContract == _nftContract && nfts[i].tokenId == _tokenId */\n    tag_260:\n        /* \"contracts/GeekNftMarketPlace.sol\":6034:6206  if(nfts[i].nftContract == _nftContract && nfts[i].tokenId == _tokenId) {... */\n      iszero\n      tag_264\n      jumpi\n        /* \"contracts/GeekNftMarketPlace.sol\":6129:6133  nfts */\n      0x05\n        /* \"contracts/GeekNftMarketPlace.sol\":6134:6135  i */\n      dup2\n        /* \"contracts/GeekNftMarketPlace.sol\":6129:6136  nfts[i] */\n      dup2\n      sload\n      dup2\n      lt\n      tag_265\n      jumpi\n      tag_266\n      tag_72\n      jump\t// in\n    tag_266:\n    tag_265:\n      swap1\n      0x00\n      mstore\n      keccak256(0x00, 0x20)\n      swap1\n      0x06\n      mul\n      add\n        /* \"contracts/GeekNftMarketPlace.sol\":6123:6136  nft = nfts[i] */\n      mload(0x40)\n      dup1\n      0xe0\n      add\n      0x40\n      mstore\n      swap1\n      dup2\n      0x00\n      dup3\n      add\n      0x00\n      swap1\n      sload\n      swap1\n      0x0100\n      exp\n      swap1\n      div\n      0xffffffffffffffffffffffffffffffffffffffff\n      and\n      0xffffffffffffffffffffffffffffffffffffffff\n      and\n      0xffffffffffffffffffffffffffffffffffffffff\n      and\n      dup2\n      mstore\n      0x20\n      add\n      0x01\n      dup3\n      add\n      sload\n      dup2\n      mstore\n      0x20\n      add\n      0x02\n      dup3\n      add\n      sload\n      dup2\n      mstore\n      0x20\n      add\n      0x03\n      dup3\n      add\n      0x00\n      swap1\n      sload\n      swap1\n      0x0100\n      exp\n      swap1\n      div\n      0xffffffffffffffffffffffffffffffffffffffff\n      and\n      0xffffffffffffffffffffffffffffffffffffffff\n      and\n      0xffffffffffffffffffffffffffffffffffffffff\n      and\n      dup2\n      mstore\n      0x20\n      add\n      0x04\n      dup3\n      add\n      0x00\n      swap1\n      sload\n      swap1\n      0x0100\n      exp\n      swap1\n      div\n      0xffffffffffffffffffffffffffffffffffffffff\n      and\n      0xffffffffffffffffffffffffffffffffffffffff\n      and\n      0xffffffffffffffffffffffffffffffffffffffff\n      and\n      dup2\n      mstore\n      0x20\n      add\n      0x05\n      dup3\n      add\n      0x00\n      swap1\n      sload\n      swap1\n      0x0100\n      exp\n      swap1\n      div\n      0xffffffffffffffffffffffffffffffffffffffff\n      and\n      0xffffffffffffffffffffffffffffffffffffffff\n      and\n      0xffffffffffffffffffffffffffffffffffffffff\n      and\n      dup2\n      mstore\n      0x20\n      add\n      0x05\n      dup3\n      add\n      0x14\n      swap1\n      sload\n      swap1\n      0x0100\n      exp\n      swap1\n      div\n      0xff\n      and\n      iszero\n      iszero\n      iszero\n      iszero\n      dup2\n      mstore\n      pop\n      pop\n      swap4\n      pop\n        /* \"contracts/GeekNftMarketPlace.sol\":6166:6167  i */\n      dup1\n        /* \"contracts/GeekNftMarketPlace.sol\":6154:6168  index = int(i) */\n      swap3\n      pop\n        /* \"contracts/GeekNftMarketPlace.sol\":6186:6191  break */\n      jump(tag_255)\n        /* \"contracts/GeekNftMarketPlace.sol\":6034:6206  if(nfts[i].nftContract == _nftContract && nfts[i].tokenId == _tokenId) {... */\n    tag_264:\n        /* \"contracts/GeekNftMarketPlace.sol\":6015:6018  i++ */\n      dup1\n      dup1\n      tag_268\n      swap1\n      tag_98\n      jump\t// in\n    tag_268:\n      swap2\n      pop\n      pop\n        /* \"contracts/GeekNftMarketPlace.sol\":5985:6216  for(uint i = 0; i < nftCount; i++) {... */\n      jump(tag_254)\n    tag_255:\n      pop\n        /* \"contracts/GeekNftMarketPlace.sol\":6233:6236  nft */\n      dup3\n        /* \"contracts/GeekNftMarketPlace.sol\":6238:6243  index */\n      dup3\n        /* \"contracts/GeekNftMarketPlace.sol\":6225:6244  return (nft, index) */\n      swap5\n      pop\n      swap5\n      pop\n      pop\n      pop\n      pop\n        /* \"contracts/GeekNftMarketPlace.sol\":5786:6251  function getNFT(address _nftContract, uint _tokenId) private view returns (NFT memory, int) {... */\n      swap3\n      pop\n      swap3\n      swap1\n      pop\n      jump\t// out\n        /* \"contracts/Counters.sol\":1074:1303  function decrement(Counter storage counter) internal {... */\n    tag_84:\n        /* \"contracts/Counters.sol\":1137:1150  uint256 value */\n      0x00\n        /* \"contracts/Counters.sol\":1153:1160  counter */\n      dup2\n        /* \"contracts/Counters.sol\":1153:1167  counter._value */\n      0x00\n      add\n      sload\n        /* \"contracts/Counters.sol\":1137:1167  uint256 value = counter._value */\n      swap1\n      pop\n        /* \"contracts/Counters.sol\":1193:1194  0 */\n      0x00\n        /* \"contracts/Counters.sol\":1185:1190  value */\n      dup2\n        /* \"contracts/Counters.sol\":1185:1194  value > 0 */\n      gt\n        /* \"contracts/Counters.sol\":1177:1226  require(value > 0, \"Counter: decrement overflow\") */\n      tag_270\n      jumpi\n      mload(0x40)\n      0x08c379a000000000000000000000000000000000000000000000000000000000\n      dup2\n      mstore\n      0x04\n      add\n      tag_271\n      swap1\n      tag_272\n      jump\t// in\n    tag_271:\n      mload(0x40)\n      dup1\n      swap2\n      sub\n      swap1\n      revert\n    tag_270:\n        /* \"contracts/Counters.sol\":1285:1286  1 */\n      0x01\n        /* \"contracts/Counters.sol\":1277:1282  value */\n      dup2\n        /* \"contracts/Counters.sol\":1277:1286  value - 1 */\n      sub\n        /* \"contracts/Counters.sol\":1260:1267  counter */\n      dup3\n        /* \"contracts/Counters.sol\":1260:1274  counter._value */\n      0x00\n      add\n        /* \"contracts/Counters.sol\":1260:1286  counter._value = value - 1 */\n      dup2\n      swap1\n      sstore\n      pop\n        /* \"contracts/Counters.sol\":1127:1303  {... */\n      pop\n        /* \"contracts/Counters.sol\":1074:1303  function decrement(Counter storage counter) internal {... */\n      pop\n      jump\t// out\n        /* \"contracts/Counters.sol\":827:939  function current(Counter storage counter) internal view returns (uint256) {... */\n    tag_89:\n        /* \"contracts/Counters.sol\":892:899  uint256 */\n      0x00\n        /* \"contracts/Counters.sol\":918:925  counter */\n      dup2\n        /* \"contracts/Counters.sol\":918:932  counter._value */\n      0x00\n      add\n      sload\n        /* \"contracts/Counters.sol\":911:932  return counter._value */\n      swap1\n      pop\n        /* \"contracts/Counters.sol\":827:939  function current(Counter storage counter) internal view returns (uint256) {... */\n      swap2\n      swap1\n      pop\n      jump\t// out\n        /* \"contracts/Counters.sol\":945:1068  function increment(Counter storage counter) internal {... */\n    tag_146:\n        /* \"contracts/Counters.sol\":1050:1051  1 */\n      0x01\n        /* \"contracts/Counters.sol\":1032:1039  counter */\n      dup2\n        /* \"contracts/Counters.sol\":1032:1046  counter._value */\n      0x00\n      add\n      0x00\n        /* \"contracts/Counters.sol\":1032:1051  counter._value += 1 */\n      dup3\n      dup3\n      sload\n      add\n      swap3\n      pop\n      pop\n      dup2\n      swap1\n      sstore\n      pop\n        /* \"contracts/Counters.sol\":945:1068  function increment(Counter storage counter) internal {... */\n      pop\n      jump\t// out\n    tag_106:\n      mload(0x40)\n      dup1\n      0xe0\n      add\n      0x40\n      mstore\n      dup1\n      and(0xffffffffffffffffffffffffffffffffffffffff, 0x00)\n      dup2\n      mstore\n      0x20\n      add\n      0x00\n      dup2\n      mstore\n      0x20\n      add\n      0x00\n      dup2\n      mstore\n      0x20\n      add\n      and(0xffffffffffffffffffffffffffffffffffffffff, 0x00)\n      dup2\n      mstore\n      0x20\n      add\n      and(0xffffffffffffffffffffffffffffffffffffffff, 0x00)\n      dup2\n      mstore\n      0x20\n      add\n      and(0xffffffffffffffffffffffffffffffffffffffff, 0x00)\n      dup2\n      mstore\n      0x20\n      add\n      iszero(iszero(0x00))\n      dup2\n      mstore\n      pop\n      swap1\n      jump\t// out\n        /* \"#utility.yul\":7:146   */\n    tag_276:\n        /* \"#utility.yul\":53:58   */\n      0x00\n        /* \"#utility.yul\":91:97   */\n      dup2\n        /* \"#utility.yul\":78:98   */\n      calldataload\n        /* \"#utility.yul\":69:98   */\n      swap1\n      pop\n        /* \"#utility.yul\":107:140   */\n      tag_278\n        /* \"#utility.yul\":134:139   */\n      dup2\n        /* \"#utility.yul\":107:140   */\n      tag_279\n      jump\t// in\n    tag_278:\n        /* \"#utility.yul\":7:146   */\n      swap3\n      swap2\n      pop\n      pop\n      jump\t// out\n        /* \"#utility.yul\":152:291   */\n    tag_280:\n        /* \"#utility.yul\":198:203   */\n      0x00\n        /* \"#utility.yul\":236:242   */\n      dup2\n        /* \"#utility.yul\":223:243   */\n      calldataload\n        /* \"#utility.yul\":214:243   */\n      swap1\n      pop\n        /* \"#utility.yul\":252:285   */\n      tag_282\n        /* \"#utility.yul\":279:284   */\n      dup2\n        /* \"#utility.yul\":252:285   */\n      tag_283\n      jump\t// in\n    tag_282:\n        /* \"#utility.yul\":152:291   */\n      swap3\n      swap2\n      pop\n      pop\n      jump\t// out\n        /* \"#utility.yul\":297:771   */\n    tag_28:\n        /* \"#utility.yul\":365:371   */\n      0x00\n        /* \"#utility.yul\":373:379   */\n      dup1\n        /* \"#utility.yul\":422:424   */\n      0x40\n        /* \"#utility.yul\":410:419   */\n      dup4\n        /* \"#utility.yul\":401:408   */\n      dup6\n        /* \"#utility.yul\":397:420   */\n      sub\n        /* \"#utility.yul\":393:425   */\n      slt\n        /* \"#utility.yul\":390:509   */\n      iszero\n      tag_285\n      jumpi\n        /* \"#utility.yul\":428:507   */\n      tag_286\n      tag_287\n      jump\t// in\n    tag_286:\n        /* \"#utility.yul\":390:509   */\n    tag_285:\n        /* \"#utility.yul\":548:549   */\n      0x00\n        /* \"#utility.yul\":573:626   */\n      tag_288\n        /* \"#utility.yul\":618:625   */\n      dup6\n        /* \"#utility.yul\":609:615   */\n      dup3\n        /* \"#utility.yul\":598:607   */\n      dup7\n        /* \"#utility.yul\":594:616   */\n      add\n        /* \"#utility.yul\":573:626   */\n      tag_276\n      jump\t// in\n    tag_288:\n        /* \"#utility.yul\":563:626   */\n      swap3\n      pop\n        /* \"#utility.yul\":519:636   */\n      pop\n        /* \"#utility.yul\":675:677   */\n      0x20\n        /* \"#utility.yul\":701:754   */\n      tag_289\n        /* \"#utility.yul\":746:753   */\n      dup6\n        /* \"#utility.yul\":737:743   */\n      dup3\n        /* \"#utility.yul\":726:735   */\n      dup7\n        /* \"#utility.yul\":722:744   */\n      add\n        /* \"#utility.yul\":701:754   */\n      tag_280\n      jump\t// in\n    tag_289:\n        /* \"#utility.yul\":691:754   */\n      swap2\n      pop\n        /* \"#utility.yul\":646:764   */\n      pop\n        /* \"#utility.yul\":297:771   */\n      swap3\n      pop\n      swap3\n      swap1\n      pop\n      jump\t// out\n        /* \"#utility.yul\":777:1396   */\n    tag_14:\n        /* \"#utility.yul\":854:860   */\n      0x00\n        /* \"#utility.yul\":862:868   */\n      dup1\n        /* \"#utility.yul\":870:876   */\n      0x00\n        /* \"#utility.yul\":919:921   */\n      0x60\n        /* \"#utility.yul\":907:916   */\n      dup5\n        /* \"#utility.yul\":898:905   */\n      dup7\n        /* \"#utility.yul\":894:917   */\n      sub\n        /* \"#utility.yul\":890:922   */\n      slt\n        /* \"#utility.yul\":887:1006   */\n      iszero\n      tag_291\n      jumpi\n        /* \"#utility.yul\":925:1004   */\n      tag_292\n      tag_287\n      jump\t// in\n    tag_292:\n        /* \"#utility.yul\":887:1006   */\n    tag_291:\n        /* \"#utility.yul\":1045:1046   */\n      0x00\n        /* \"#utility.yul\":1070:1123   */\n      tag_293\n        /* \"#utility.yul\":1115:1122   */\n      dup7\n        /* \"#utility.yul\":1106:1112   */\n      dup3\n        /* \"#utility.yul\":1095:1104   */\n      dup8\n        /* \"#utility.yul\":1091:1113   */\n      add\n        /* \"#utility.yul\":1070:1123   */\n      tag_276\n      jump\t// in\n    tag_293:\n        /* \"#utility.yul\":1060:1123   */\n      swap4\n      pop\n        /* \"#utility.yul\":1016:1133   */\n      pop\n        /* \"#utility.yul\":1172:1174   */\n      0x20\n        /* \"#utility.yul\":1198:1251   */\n      tag_294\n        /* \"#utility.yul\":1243:1250   */\n      dup7\n        /* \"#utility.yul\":1234:1240   */\n      dup3\n        /* \"#utility.yul\":1223:1232   */\n      dup8\n        /* \"#utility.yul\":1219:1241   */\n      add\n        /* \"#utility.yul\":1198:1251   */\n      tag_280\n      jump\t// in\n    tag_294:\n        /* \"#utility.yul\":1188:1251   */\n      swap3\n      pop\n        /* \"#utility.yul\":1143:1261   */\n      pop\n        /* \"#utility.yul\":1300:1302   */\n      0x40\n        /* \"#utility.yul\":1326:1379   */\n      tag_295\n        /* \"#utility.yul\":1371:1378   */\n      dup7\n        /* \"#utility.yul\":1362:1368   */\n      dup3\n        /* \"#utility.yul\":1351:1360   */\n      dup8\n        /* \"#utility.yul\":1347:1369   */\n      add\n        /* \"#utility.yul\":1326:1379   */\n      tag_280\n      jump\t// in\n    tag_295:\n        /* \"#utility.yul\":1316:1379   */\n      swap2\n      pop\n        /* \"#utility.yul\":1271:1389   */\n      pop\n        /* \"#utility.yul\":777:1396   */\n      swap3\n      pop\n      swap3\n      pop\n      swap3\n      jump\t// out\n        /* \"#utility.yul\":1402:1661   */\n    tag_296:\n        /* \"#utility.yul\":1511:1521   */\n      0x00\n        /* \"#utility.yul\":1532:1618   */\n      tag_298\n        /* \"#utility.yul\":1614:1617   */\n      dup4\n        /* \"#utility.yul\":1606:1612   */\n      dup4\n        /* \"#utility.yul\":1532:1618   */\n      tag_299\n      jump\t// in\n    tag_298:\n        /* \"#utility.yul\":1650:1654   */\n      0xe0\n        /* \"#utility.yul\":1645:1648   */\n      dup4\n        /* \"#utility.yul\":1641:1655   */\n      add\n        /* \"#utility.yul\":1627:1655   */\n      swap1\n      pop\n        /* \"#utility.yul\":1402:1661   */\n      swap3\n      swap2\n      pop\n      pop\n      jump\t// out\n        /* \"#utility.yul\":1667:1814   */\n    tag_300:\n        /* \"#utility.yul\":1762:1807   */\n      tag_302\n        /* \"#utility.yul\":1801:1806   */\n      dup2\n        /* \"#utility.yul\":1762:1807   */\n      tag_303\n      jump\t// in\n    tag_302:\n        /* \"#utility.yul\":1757:1760   */\n      dup3\n        /* \"#utility.yul\":1750:1808   */\n      mstore\n        /* \"#utility.yul\":1667:1814   */\n      pop\n      pop\n      jump\t// out\n        /* \"#utility.yul\":1820:1952   */\n    tag_304:\n        /* \"#utility.yul\":1913:1945   */\n      tag_306\n        /* \"#utility.yul\":1939:1944   */\n      dup2\n        /* \"#utility.yul\":1913:1945   */\n      tag_307\n      jump\t// in\n    tag_306:\n        /* \"#utility.yul\":1908:1911   */\n      dup3\n        /* \"#utility.yul\":1901:1946   */\n      mstore\n        /* \"#utility.yul\":1820:1952   */\n      pop\n      pop\n      jump\t// out\n        /* \"#utility.yul\":1958:2066   */\n    tag_308:\n        /* \"#utility.yul\":2035:2059   */\n      tag_310\n        /* \"#utility.yul\":2053:2058   */\n      dup2\n        /* \"#utility.yul\":2035:2059   */\n      tag_311\n      jump\t// in\n    tag_310:\n        /* \"#utility.yul\":2030:2033   */\n      dup3\n        /* \"#utility.yul\":2023:2060   */\n      mstore\n        /* \"#utility.yul\":1958:2066   */\n      pop\n      pop\n      jump\t// out\n        /* \"#utility.yul\":2072:2190   */\n    tag_312:\n        /* \"#utility.yul\":2159:2183   */\n      tag_314\n        /* \"#utility.yul\":2177:2182   */\n      dup2\n        /* \"#utility.yul\":2159:2183   */\n      tag_311\n      jump\t// in\n    tag_314:\n        /* \"#utility.yul\":2154:2157   */\n      dup3\n        /* \"#utility.yul\":2147:2184   */\n      mstore\n        /* \"#utility.yul\":2072:2190   */\n      pop\n      pop\n      jump\t// out\n        /* \"#utility.yul\":2270:3162   */\n    tag_315:\n        /* \"#utility.yul\":2429:2432   */\n      0x00\n        /* \"#utility.yul\":2458:2532   */\n      tag_317\n        /* \"#utility.yul\":2526:2531   */\n      dup3\n        /* \"#utility.yul\":2458:2532   */\n      tag_318\n      jump\t// in\n    tag_317:\n        /* \"#utility.yul\":2548:2654   */\n      tag_319\n        /* \"#utility.yul\":2647:2653   */\n      dup2\n        /* \"#utility.yul\":2642:2645   */\n      dup6\n        /* \"#utility.yul\":2548:2654   */\n      tag_320\n      jump\t// in\n    tag_319:\n        /* \"#utility.yul\":2541:2654   */\n      swap4\n      pop\n        /* \"#utility.yul\":2678:2754   */\n      tag_321\n        /* \"#utility.yul\":2748:2753   */\n      dup4\n        /* \"#utility.yul\":2678:2754   */\n      tag_322\n      jump\t// in\n    tag_321:\n        /* \"#utility.yul\":2777:2784   */\n      dup1\n        /* \"#utility.yul\":2808:2809   */\n      0x00\n        /* \"#utility.yul\":2793:3137   */\n    tag_323:\n        /* \"#utility.yul\":2818:2824   */\n      dup4\n        /* \"#utility.yul\":2815:2816   */\n      dup2\n        /* \"#utility.yul\":2812:2825   */\n      lt\n        /* \"#utility.yul\":2793:3137   */\n      iszero\n      tag_325\n      jumpi\n        /* \"#utility.yul\":2894:2900   */\n      dup2\n        /* \"#utility.yul\":2888:2901   */\n      mload\n        /* \"#utility.yul\":2921:3024   */\n      tag_326\n        /* \"#utility.yul\":3020:3023   */\n      dup9\n        /* \"#utility.yul\":3005:3018   */\n      dup3\n        /* \"#utility.yul\":2921:3024   */\n      tag_296\n      jump\t// in\n    tag_326:\n        /* \"#utility.yul\":2914:3024   */\n      swap8\n      pop\n        /* \"#utility.yul\":3047:3127   */\n      tag_327\n        /* \"#utility.yul\":3120:3126   */\n      dup4\n        /* \"#utility.yul\":3047:3127   */\n      tag_328\n      jump\t// in\n    tag_327:\n        /* \"#utility.yul\":3037:3127   */\n      swap3\n      pop\n        /* \"#utility.yul\":2853:3137   */\n      pop\n        /* \"#utility.yul\":2840:2841   */\n      0x01\n        /* \"#utility.yul\":2837:2838   */\n      dup2\n        /* \"#utility.yul\":2833:2842   */\n      add\n        /* \"#utility.yul\":2828:2842   */\n      swap1\n      pop\n        /* \"#utility.yul\":2793:3137   */\n      jump(tag_323)\n    tag_325:\n        /* \"#utility.yul\":2797:2811   */\n      pop\n        /* \"#utility.yul\":3153:3156   */\n      dup6\n        /* \"#utility.yul\":3146:3156   */\n      swap4\n      pop\n        /* \"#utility.yul\":2434:3162   */\n      pop\n      pop\n      pop\n        /* \"#utility.yul\":2270:3162   */\n      swap3\n      swap2\n      pop\n      pop\n      jump\t// out\n        /* \"#utility.yul\":3168:3267   */\n    tag_329:\n        /* \"#utility.yul\":3239:3260   */\n      tag_331\n        /* \"#utility.yul\":3254:3259   */\n      dup2\n        /* \"#utility.yul\":3239:3260   */\n      tag_332\n      jump\t// in\n    tag_331:\n        /* \"#utility.yul\":3234:3237   */\n      dup3\n        /* \"#utility.yul\":3227:3261   */\n      mstore\n        /* \"#utility.yul\":3168:3267   */\n      pop\n      pop\n      jump\t// out\n        /* \"#utility.yul\":3273:3639   */\n    tag_333:\n        /* \"#utility.yul\":3415:3418   */\n      0x00\n        /* \"#utility.yul\":3436:3503   */\n      tag_335\n        /* \"#utility.yul\":3500:3502   */\n      0x1b\n        /* \"#utility.yul\":3495:3498   */\n      dup4\n        /* \"#utility.yul\":3436:3503   */\n      tag_336\n      jump\t// in\n    tag_335:\n        /* \"#utility.yul\":3429:3503   */\n      swap2\n      pop\n        /* \"#utility.yul\":3512:3605   */\n      tag_337\n        /* \"#utility.yul\":3601:3604   */\n      dup3\n        /* \"#utility.yul\":3512:3605   */\n      tag_338\n      jump\t// in\n    tag_337:\n        /* \"#utility.yul\":3630:3632   */\n      0x20\n        /* \"#utility.yul\":3625:3628   */\n      dup3\n        /* \"#utility.yul\":3621:3633   */\n      add\n        /* \"#utility.yul\":3614:3633   */\n      swap1\n      pop\n        /* \"#utility.yul\":3273:3639   */\n      swap2\n      swap1\n      pop\n      jump\t// out\n        /* \"#utility.yul\":3645:4011   */\n    tag_339:\n        /* \"#utility.yul\":3787:3790   */\n      0x00\n        /* \"#utility.yul\":3808:3875   */\n      tag_341\n        /* \"#utility.yul\":3872:3874   */\n      0x26\n        /* \"#utility.yul\":3867:3870   */\n      dup4\n        /* \"#utility.yul\":3808:3875   */\n      tag_336\n      jump\t// in\n    tag_341:\n        /* \"#utility.yul\":3801:3875   */\n      swap2\n      pop\n        /* \"#utility.yul\":3884:3977   */\n      tag_342\n        /* \"#utility.yul\":3973:3976   */\n      dup3\n        /* \"#utility.yul\":3884:3977   */\n      tag_343\n      jump\t// in\n    tag_342:\n        /* \"#utility.yul\":4002:4004   */\n      0x40\n        /* \"#utility.yul\":3997:4000   */\n      dup3\n        /* \"#utility.yul\":3993:4005   */\n      add\n        /* \"#utility.yul\":3986:4005   */\n      swap1\n      pop\n        /* \"#utility.yul\":3645:4011   */\n      swap2\n      swap1\n      pop\n      jump\t// out\n        /* \"#utility.yul\":4017:4383   */\n    tag_344:\n        /* \"#utility.yul\":4159:4162   */\n      0x00\n        /* \"#utility.yul\":4180:4247   */\n      tag_346\n        /* \"#utility.yul\":4244:4246   */\n      0x0d\n        /* \"#utility.yul\":4239:4242   */\n      dup4\n        /* \"#utility.yul\":4180:4247   */\n      tag_336\n      jump\t// in\n    tag_346:\n        /* \"#utility.yul\":4173:4247   */\n      swap2\n      pop\n        /* \"#utility.yul\":4256:4349   */\n      tag_347\n        /* \"#utility.yul\":4345:4348   */\n      dup3\n        /* \"#utility.yul\":4256:4349   */\n      tag_348\n      jump\t// in\n    tag_347:\n        /* \"#utility.yul\":4374:4376   */\n      0x20\n        /* \"#utility.yul\":4369:4372   */\n      dup3\n        /* \"#utility.yul\":4365:4377   */\n      add\n        /* \"#utility.yul\":4358:4377   */\n      swap1\n      pop\n        /* \"#utility.yul\":4017:4383   */\n      swap2\n      swap1\n      pop\n      jump\t// out\n        /* \"#utility.yul\":4389:4755   */\n    tag_349:\n        /* \"#utility.yul\":4531:4534   */\n      0x00\n        /* \"#utility.yul\":4552:4619   */\n      tag_351\n        /* \"#utility.yul\":4616:4618   */\n      0x20\n        /* \"#utility.yul\":4611:4614   */\n      dup4\n        /* \"#utility.yul\":4552:4619   */\n      tag_336\n      jump\t// in\n    tag_351:\n        /* \"#utility.yul\":4545:4619   */\n      swap2\n      pop\n        /* \"#utility.yul\":4628:4721   */\n      tag_352\n        /* \"#utility.yul\":4717:4720   */\n      dup3\n        /* \"#utility.yul\":4628:4721   */\n      tag_353\n      jump\t// in\n    tag_352:\n        /* \"#utility.yul\":4746:4748   */\n      0x20\n        /* \"#utility.yul\":4741:4744   */\n      dup3\n        /* \"#utility.yul\":4737:4749   */\n      add\n        /* \"#utility.yul\":4730:4749   */\n      swap1\n      pop\n        /* \"#utility.yul\":4389:4755   */\n      swap2\n      swap1\n      pop\n      jump\t// out\n        /* \"#utility.yul\":4761:5127   */\n    tag_354:\n        /* \"#utility.yul\":4903:4906   */\n      0x00\n        /* \"#utility.yul\":4924:4991   */\n      tag_356\n        /* \"#utility.yul\":4988:4990   */\n      0x1f\n        /* \"#utility.yul\":4983:4986   */\n      dup4\n        /* \"#utility.yul\":4924:4991   */\n      tag_336\n      jump\t// in\n    tag_356:\n        /* \"#utility.yul\":4917:4991   */\n      swap2\n      pop\n        /* \"#utility.yul\":5000:5093   */\n      tag_357\n        /* \"#utility.yul\":5089:5092   */\n      dup3\n        /* \"#utility.yul\":5000:5093   */\n      tag_358\n      jump\t// in\n    tag_357:\n        /* \"#utility.yul\":5118:5120   */\n      0x20\n        /* \"#utility.yul\":5113:5116   */\n      dup3\n        /* \"#utility.yul\":5109:5121   */\n      add\n        /* \"#utility.yul\":5102:5121   */\n      swap1\n      pop\n        /* \"#utility.yul\":4761:5127   */\n      swap2\n      swap1\n      pop\n      jump\t// out\n        /* \"#utility.yul\":5133:5499   */\n    tag_359:\n        /* \"#utility.yul\":5275:5278   */\n      0x00\n        /* \"#utility.yul\":5296:5363   */\n      tag_361\n        /* \"#utility.yul\":5360:5362   */\n      0x1c\n        /* \"#utility.yul\":5355:5358   */\n      dup4\n        /* \"#utility.yul\":5296:5363   */\n      tag_336\n      jump\t// in\n    tag_361:\n        /* \"#utility.yul\":5289:5363   */\n      swap2\n      pop\n        /* \"#utility.yul\":5372:5465   */\n      tag_362\n        /* \"#utility.yul\":5461:5464   */\n      dup3\n        /* \"#utility.yul\":5372:5465   */\n      tag_363\n      jump\t// in\n    tag_362:\n        /* \"#utility.yul\":5490:5492   */\n      0x20\n        /* \"#utility.yul\":5485:5488   */\n      dup3\n        /* \"#utility.yul\":5481:5493   */\n      add\n        /* \"#utility.yul\":5474:5493   */\n      swap1\n      pop\n        /* \"#utility.yul\":5133:5499   */\n      swap2\n      swap1\n      pop\n      jump\t// out\n        /* \"#utility.yul\":5575:6993   */\n    tag_299:\n        /* \"#utility.yul\":5702:5706   */\n      0xe0\n        /* \"#utility.yul\":5697:5700   */\n      dup3\n        /* \"#utility.yul\":5693:5707   */\n      add\n        /* \"#utility.yul\":5796:5800   */\n      0x00\n        /* \"#utility.yul\":5789:5794   */\n      dup3\n        /* \"#utility.yul\":5785:5801   */\n      add\n        /* \"#utility.yul\":5779:5802   */\n      mload\n        /* \"#utility.yul\":5815:5878   */\n      tag_365\n        /* \"#utility.yul\":5872:5876   */\n      0x00\n        /* \"#utility.yul\":5867:5870   */\n      dup6\n        /* \"#utility.yul\":5863:5877   */\n      add\n        /* \"#utility.yul\":5849:5861   */\n      dup3\n        /* \"#utility.yul\":5815:5878   */\n      tag_308\n      jump\t// in\n    tag_365:\n        /* \"#utility.yul\":5717:5888   */\n      pop\n        /* \"#utility.yul\":5973:5977   */\n      0x20\n        /* \"#utility.yul\":5966:5971   */\n      dup3\n        /* \"#utility.yul\":5962:5978   */\n      add\n        /* \"#utility.yul\":5956:5979   */\n      mload\n        /* \"#utility.yul\":5992:6055   */\n      tag_366\n        /* \"#utility.yul\":6049:6053   */\n      0x20\n        /* \"#utility.yul\":6044:6047   */\n      dup6\n        /* \"#utility.yul\":6040:6054   */\n      add\n        /* \"#utility.yul\":6026:6038   */\n      dup3\n        /* \"#utility.yul\":5992:6055   */\n      tag_367\n      jump\t// in\n    tag_366:\n        /* \"#utility.yul\":5898:6065   */\n      pop\n        /* \"#utility.yul\":6148:6152   */\n      0x40\n        /* \"#utility.yul\":6141:6146   */\n      dup3\n        /* \"#utility.yul\":6137:6153   */\n      add\n        /* \"#utility.yul\":6131:6154   */\n      mload\n        /* \"#utility.yul\":6167:6230   */\n      tag_368\n        /* \"#utility.yul\":6224:6228   */\n      0x40\n        /* \"#utility.yul\":6219:6222   */\n      dup6\n        /* \"#utility.yul\":6215:6229   */\n      add\n        /* \"#utility.yul\":6201:6213   */\n      dup3\n        /* \"#utility.yul\":6167:6230   */\n      tag_367\n      jump\t// in\n    tag_368:\n        /* \"#utility.yul\":6075:6240   */\n      pop\n        /* \"#utility.yul\":6324:6328   */\n      0x60\n        /* \"#utility.yul\":6317:6322   */\n      dup3\n        /* \"#utility.yul\":6313:6329   */\n      add\n        /* \"#utility.yul\":6307:6330   */\n      mload\n        /* \"#utility.yul\":6343:6422   */\n      tag_369\n        /* \"#utility.yul\":6416:6420   */\n      0x60\n        /* \"#utility.yul\":6411:6414   */\n      dup6\n        /* \"#utility.yul\":6407:6421   */\n      add\n        /* \"#utility.yul\":6393:6405   */\n      dup3\n        /* \"#utility.yul\":6343:6422   */\n      tag_304\n      jump\t// in\n    tag_369:\n        /* \"#utility.yul\":6250:6432   */\n      pop\n        /* \"#utility.yul\":6515:6519   */\n      0x80\n        /* \"#utility.yul\":6508:6513   */\n      dup3\n        /* \"#utility.yul\":6504:6520   */\n      add\n        /* \"#utility.yul\":6498:6521   */\n      mload\n        /* \"#utility.yul\":6534:6613   */\n      tag_370\n        /* \"#utility.yul\":6607:6611   */\n      0x80\n        /* \"#utility.yul\":6602:6605   */\n      dup6\n        /* \"#utility.yul\":6598:6612   */\n      add\n        /* \"#utility.yul\":6584:6596   */\n      dup3\n        /* \"#utility.yul\":6534:6613   */\n      tag_304\n      jump\t// in\n    tag_370:\n        /* \"#utility.yul\":6442:6623   */\n      pop\n        /* \"#utility.yul\":6708:6712   */\n      0xa0\n        /* \"#utility.yul\":6701:6706   */\n      dup3\n        /* \"#utility.yul\":6697:6713   */\n      add\n        /* \"#utility.yul\":6691:6714   */\n      mload\n        /* \"#utility.yul\":6727:6806   */\n      tag_371\n        /* \"#utility.yul\":6800:6804   */\n      0xa0\n        /* \"#utility.yul\":6795:6798   */\n      dup6\n        /* \"#utility.yul\":6791:6805   */\n      add\n        /* \"#utility.yul\":6777:6789   */\n      dup3\n        /* \"#utility.yul\":6727:6806   */\n      tag_304\n      jump\t// in\n    tag_371:\n        /* \"#utility.yul\":6633:6816   */\n      pop\n        /* \"#utility.yul\":6900:6904   */\n      0xc0\n        /* \"#utility.yul\":6893:6898   */\n      dup3\n        /* \"#utility.yul\":6889:6905   */\n      add\n        /* \"#utility.yul\":6883:6906   */\n      mload\n        /* \"#utility.yul\":6919:6976   */\n      tag_372\n        /* \"#utility.yul\":6970:6974   */\n      0xc0\n        /* \"#utility.yul\":6965:6968   */\n      dup6\n        /* \"#utility.yul\":6961:6975   */\n      add\n        /* \"#utility.yul\":6947:6959   */\n      dup3\n        /* \"#utility.yul\":6919:6976   */\n      tag_329\n      jump\t// in\n    tag_372:\n        /* \"#utility.yul\":6826:6986   */\n      pop\n        /* \"#utility.yul\":5671:6993   */\n      pop\n        /* \"#utility.yul\":5575:6993   */\n      pop\n      pop\n      jump\t// out\n        /* \"#utility.yul\":6999:7107   */\n    tag_367:\n        /* \"#utility.yul\":7076:7100   */\n      tag_374\n        /* \"#utility.yul\":7094:7099   */\n      dup2\n        /* \"#utility.yul\":7076:7100   */\n      tag_375\n      jump\t// in\n    tag_374:\n        /* \"#utility.yul\":7071:7074   */\n      dup3\n        /* \"#utility.yul\":7064:7101   */\n      mstore\n        /* \"#utility.yul\":6999:7107   */\n      pop\n      pop\n      jump\t// out\n        /* \"#utility.yul\":7113:7231   */\n    tag_376:\n        /* \"#utility.yul\":7200:7224   */\n      tag_378\n        /* \"#utility.yul\":7218:7223   */\n      dup2\n        /* \"#utility.yul\":7200:7224   */\n      tag_375\n      jump\t// in\n    tag_378:\n        /* \"#utility.yul\":7195:7198   */\n      dup3\n        /* \"#utility.yul\":7188:7225   */\n      mstore\n        /* \"#utility.yul\":7113:7231   */\n      pop\n      pop\n      jump\t// out\n        /* \"#utility.yul\":7237:7695   */\n    tag_135:\n        /* \"#utility.yul\":7394:7398   */\n      0x00\n        /* \"#utility.yul\":7432:7434   */\n      0x60\n        /* \"#utility.yul\":7421:7430   */\n      dup3\n        /* \"#utility.yul\":7417:7435   */\n      add\n        /* \"#utility.yul\":7409:7435   */\n      swap1\n      pop\n        /* \"#utility.yul\":7445:7516   */\n      tag_380\n        /* \"#utility.yul\":7513:7514   */\n      0x00\n        /* \"#utility.yul\":7502:7511   */\n      dup4\n        /* \"#utility.yul\":7498:7515   */\n      add\n        /* \"#utility.yul\":7489:7495   */\n      dup7\n        /* \"#utility.yul\":7445:7516   */\n      tag_312\n      jump\t// in\n    tag_380:\n        /* \"#utility.yul\":7526:7606   */\n      tag_381\n        /* \"#utility.yul\":7602:7604   */\n      0x20\n        /* \"#utility.yul\":7591:7600   */\n      dup4\n        /* \"#utility.yul\":7587:7605   */\n      add\n        /* \"#utility.yul\":7578:7584   */\n      dup6\n        /* \"#utility.yul\":7526:7606   */\n      tag_300\n      jump\t// in\n    tag_381:\n        /* \"#utility.yul\":7616:7688   */\n      tag_382\n        /* \"#utility.yul\":7684:7686   */\n      0x40\n        /* \"#utility.yul\":7673:7682   */\n      dup4\n        /* \"#utility.yul\":7669:7687   */\n      add\n        /* \"#utility.yul\":7660:7666   */\n      dup5\n        /* \"#utility.yul\":7616:7688   */\n      tag_376\n      jump\t// in\n    tag_382:\n        /* \"#utility.yul\":7237:7695   */\n      swap5\n      swap4\n      pop\n      pop\n      pop\n      pop\n      jump\t// out\n        /* \"#utility.yul\":7701:8143   */\n    tag_66:\n        /* \"#utility.yul\":7850:7854   */\n      0x00\n        /* \"#utility.yul\":7888:7890   */\n      0x60\n        /* \"#utility.yul\":7877:7886   */\n      dup3\n        /* \"#utility.yul\":7873:7891   */\n      add\n        /* \"#utility.yul\":7865:7891   */\n      swap1\n      pop\n        /* \"#utility.yul\":7901:7972   */\n      tag_384\n        /* \"#utility.yul\":7969:7970   */\n      0x00\n        /* \"#utility.yul\":7958:7967   */\n      dup4\n        /* \"#utility.yul\":7954:7971   */\n      add\n        /* \"#utility.yul\":7945:7951   */\n      dup7\n        /* \"#utility.yul\":7901:7972   */\n      tag_312\n      jump\t// in\n    tag_384:\n        /* \"#utility.yul\":7982:8054   */\n      tag_385\n        /* \"#utility.yul\":8050:8052   */\n      0x20\n        /* \"#utility.yul\":8039:8048   */\n      dup4\n        /* \"#utility.yul\":8035:8053   */\n      add\n        /* \"#utility.yul\":8026:8032   */\n      dup6\n        /* \"#utility.yul\":7982:8054   */\n      tag_312\n      jump\t// in\n    tag_385:\n        /* \"#utility.yul\":8064:8136   */\n      tag_386\n        /* \"#utility.yul\":8132:8134   */\n      0x40\n        /* \"#utility.yul\":8121:8130   */\n      dup4\n        /* \"#utility.yul\":8117:8135   */\n      add\n        /* \"#utility.yul\":8108:8114   */\n      dup5\n        /* \"#utility.yul\":8064:8136   */\n      tag_376\n      jump\t// in\n    tag_386:\n        /* \"#utility.yul\":7701:8143   */\n      swap5\n      swap4\n      pop\n      pop\n      pop\n      pop\n      jump\t// out\n        /* \"#utility.yul\":8149:8591   */\n    tag_86:\n        /* \"#utility.yul\":8298:8302   */\n      0x00\n        /* \"#utility.yul\":8336:8338   */\n      0x60\n        /* \"#utility.yul\":8325:8334   */\n      dup3\n        /* \"#utility.yul\":8321:8339   */\n      add\n        /* \"#utility.yul\":8313:8339   */\n      swap1\n      pop\n        /* \"#utility.yul\":8349:8420   */\n      tag_388\n        /* \"#utility.yul\":8417:8418   */\n      0x00\n        /* \"#utility.yul\":8406:8415   */\n      dup4\n        /* \"#utility.yul\":8402:8419   */\n      add\n        /* \"#utility.yul\":8393:8399   */\n      dup7\n        /* \"#utility.yul\":8349:8420   */\n      tag_312\n      jump\t// in\n    tag_388:\n        /* \"#utility.yul\":8430:8502   */\n      tag_389\n        /* \"#utility.yul\":8498:8500   */\n      0x20\n        /* \"#utility.yul\":8487:8496   */\n      dup4\n        /* \"#utility.yul\":8483:8501   */\n      add\n        /* \"#utility.yul\":8474:8480   */\n      dup6\n        /* \"#utility.yul\":8430:8502   */\n      tag_376\n      jump\t// in\n    tag_389:\n        /* \"#utility.yul\":8512:8584   */\n      tag_390\n        /* \"#utility.yul\":8580:8582   */\n      0x40\n        /* \"#utility.yul\":8569:8578   */\n      dup4\n        /* \"#utility.yul\":8565:8583   */\n      add\n        /* \"#utility.yul\":8556:8562   */\n      dup5\n        /* \"#utility.yul\":8512:8584   */\n      tag_376\n      jump\t// in\n    tag_390:\n        /* \"#utility.yul\":8149:8591   */\n      swap5\n      swap4\n      pop\n      pop\n      pop\n      pop\n      jump\t// out\n        /* \"#utility.yul\":8597:9050   */\n    tag_20:\n        /* \"#utility.yul\":8780:8784   */\n      0x00\n        /* \"#utility.yul\":8818:8820   */\n      0x20\n        /* \"#utility.yul\":8807:8816   */\n      dup3\n        /* \"#utility.yul\":8803:8821   */\n      add\n        /* \"#utility.yul\":8795:8821   */\n      swap1\n      pop\n        /* \"#utility.yul\":8867:8876   */\n      dup2\n        /* \"#utility.yul\":8861:8865   */\n      dup2\n        /* \"#utility.yul\":8857:8877   */\n      sub\n        /* \"#utility.yul\":8853:8854   */\n      0x00\n        /* \"#utility.yul\":8842:8851   */\n      dup4\n        /* \"#utility.yul\":8838:8855   */\n      add\n        /* \"#utility.yul\":8831:8878   */\n      mstore\n        /* \"#utility.yul\":8895:9043   */\n      tag_392\n        /* \"#utility.yul\":9038:9042   */\n      dup2\n        /* \"#utility.yul\":9029:9035   */\n      dup5\n        /* \"#utility.yul\":8895:9043   */\n      tag_315\n      jump\t// in\n    tag_392:\n        /* \"#utility.yul\":8887:9043   */\n      swap1\n      pop\n        /* \"#utility.yul\":8597:9050   */\n      swap3\n      swap2\n      pop\n      pop\n      jump\t// out\n        /* \"#utility.yul\":9056:9475   */\n    tag_272:\n        /* \"#utility.yul\":9222:9226   */\n      0x00\n        /* \"#utility.yul\":9260:9262   */\n      0x20\n        /* \"#utility.yul\":9249:9258   */\n      dup3\n        /* \"#utility.yul\":9245:9263   */\n      add\n        /* \"#utility.yul\":9237:9263   */\n      swap1\n      pop\n        /* \"#utility.yul\":9309:9318   */\n      dup2\n        /* \"#utility.yul\":9303:9307   */\n      dup2\n        /* \"#utility.yul\":9299:9319   */\n      sub\n        /* \"#utility.yul\":9295:9296   */\n      0x00\n        /* \"#utility.yul\":9284:9293   */\n      dup4\n        /* \"#utility.yul\":9280:9297   */\n      add\n        /* \"#utility.yul\":9273:9320   */\n      mstore\n        /* \"#utility.yul\":9337:9468   */\n      tag_394\n        /* \"#utility.yul\":9463:9467   */\n      dup2\n        /* \"#utility.yul\":9337:9468   */\n      tag_333\n      jump\t// in\n    tag_394:\n        /* \"#utility.yul\":9329:9468   */\n      swap1\n      pop\n        /* \"#utility.yul\":9056:9475   */\n      swap2\n      swap1\n      pop\n      jump\t// out\n        /* \"#utility.yul\":9481:9900   */\n    tag_131:\n        /* \"#utility.yul\":9647:9651   */\n      0x00\n        /* \"#utility.yul\":9685:9687   */\n      0x20\n        /* \"#utility.yul\":9674:9683   */\n      dup3\n        /* \"#utility.yul\":9670:9688   */\n      add\n        /* \"#utility.yul\":9662:9688   */\n      swap1\n      pop\n        /* \"#utility.yul\":9734:9743   */\n      dup2\n        /* \"#utility.yul\":9728:9732   */\n      dup2\n        /* \"#utility.yul\":9724:9744   */\n      sub\n        /* \"#utility.yul\":9720:9721   */\n      0x00\n        /* \"#utility.yul\":9709:9718   */\n      dup4\n        /* \"#utility.yul\":9705:9722   */\n      add\n        /* \"#utility.yul\":9698:9745   */\n      mstore\n        /* \"#utility.yul\":9762:9893   */\n      tag_396\n        /* \"#utility.yul\":9888:9892   */\n      dup2\n        /* \"#utility.yul\":9762:9893   */\n      tag_339\n      jump\t// in\n    tag_396:\n        /* \"#utility.yul\":9754:9893   */\n      swap1\n      pop\n        /* \"#utility.yul\":9481:9900   */\n      swap2\n      swap1\n      pop\n      jump\t// out\n        /* \"#utility.yul\":9906:10325   */\n    tag_64:\n        /* \"#utility.yul\":10072:10076   */\n      0x00\n        /* \"#utility.yul\":10110:10112   */\n      0x20\n        /* \"#utility.yul\":10099:10108   */\n      dup3\n        /* \"#utility.yul\":10095:10113   */\n      add\n        /* \"#utility.yul\":10087:10113   */\n      swap1\n      pop\n        /* \"#utility.yul\":10159:10168   */\n      dup2\n        /* \"#utility.yul\":10153:10157   */\n      dup2\n        /* \"#utility.yul\":10149:10169   */\n      sub\n        /* \"#utility.yul\":10145:10146   */\n      0x00\n        /* \"#utility.yul\":10134:10143   */\n      dup4\n        /* \"#utility.yul\":10130:10147   */\n      add\n        /* \"#utility.yul\":10123:10170   */\n      mstore\n        /* \"#utility.yul\":10187:10318   */\n      tag_398\n        /* \"#utility.yul\":10313:10317   */\n      dup2\n        /* \"#utility.yul\":10187:10318   */\n      tag_344\n      jump\t// in\n    tag_398:\n        /* \"#utility.yul\":10179:10318   */\n      swap1\n      pop\n        /* \"#utility.yul\":9906:10325   */\n      swap2\n      swap1\n      pop\n      jump\t// out\n        /* \"#utility.yul\":10331:10750   */\n    tag_59:\n        /* \"#utility.yul\":10497:10501   */\n      0x00\n        /* \"#utility.yul\":10535:10537   */\n      0x20\n        /* \"#utility.yul\":10524:10533   */\n      dup3\n        /* \"#utility.yul\":10520:10538   */\n      add\n        /* \"#utility.yul\":10512:10538   */\n      swap1\n      pop\n        /* \"#utility.yul\":10584:10593   */\n      dup2\n        /* \"#utility.yul\":10578:10582   */\n      dup2\n        /* \"#utility.yul\":10574:10594   */\n      sub\n        /* \"#utility.yul\":10570:10571   */\n      0x00\n        /* \"#utility.yul\":10559:10568   */\n      dup4\n        /* \"#utility.yul\":10555:10572   */\n      add\n        /* \"#utility.yul\":10548:10595   */\n      mstore\n        /* \"#utility.yul\":10612:10743   */\n      tag_400\n        /* \"#utility.yul\":10738:10742   */\n      dup2\n        /* \"#utility.yul\":10612:10743   */\n      tag_349\n      jump\t// in\n    tag_400:\n        /* \"#utility.yul\":10604:10743   */\n      swap1\n      pop\n        /* \"#utility.yul\":10331:10750   */\n      swap2\n      swap1\n      pop\n      jump\t// out\n        /* \"#utility.yul\":10756:11175   */\n    tag_52:\n        /* \"#utility.yul\":10922:10926   */\n      0x00\n        /* \"#utility.yul\":10960:10962   */\n      0x20\n        /* \"#utility.yul\":10949:10958   */\n      dup3\n        /* \"#utility.yul\":10945:10963   */\n      add\n        /* \"#utility.yul\":10937:10963   */\n      swap1\n      pop\n        /* \"#utility.yul\":11009:11018   */\n      dup2\n        /* \"#utility.yul\":11003:11007   */\n      dup2\n        /* \"#utility.yul\":10999:11019   */\n      sub\n        /* \"#utility.yul\":10995:10996   */\n      0x00\n        /* \"#utility.yul\":10984:10993   */\n      dup4\n        /* \"#utility.yul\":10980:10997   */\n      add\n        /* \"#utility.yul\":10973:11020   */\n      mstore\n        /* \"#utility.yul\":11037:11168   */\n      tag_402\n        /* \"#utility.yul\":11163:11167   */\n      dup2\n        /* \"#utility.yul\":11037:11168   */\n      tag_354\n      jump\t// in\n    tag_402:\n        /* \"#utility.yul\":11029:11168   */\n      swap1\n      pop\n        /* \"#utility.yul\":10756:11175   */\n      swap2\n      swap1\n      pop\n      jump\t// out\n        /* \"#utility.yul\":11181:11600   */\n    tag_56:\n        /* \"#utility.yul\":11347:11351   */\n      0x00\n        /* \"#utility.yul\":11385:11387   */\n      0x20\n        /* \"#utility.yul\":11374:11383   */\n      dup3\n        /* \"#utility.yul\":11370:11388   */\n      add\n        /* \"#utility.yul\":11362:11388   */\n      swap1\n      pop\n        /* \"#utility.yul\":11434:11443   */\n      dup2\n        /* \"#utility.yul\":11428:11432   */\n      dup2\n        /* \"#utility.yul\":11424:11444   */\n      sub\n        /* \"#utility.yul\":11420:11421   */\n      0x00\n        /* \"#utility.yul\":11409:11418   */\n      dup4\n        /* \"#utility.yul\":11405:11422   */\n      add\n        /* \"#utility.yul\":11398:11445   */\n      mstore\n        /* \"#utility.yul\":11462:11593   */\n      tag_404\n        /* \"#utility.yul\":11588:11592   */\n      dup2\n        /* \"#utility.yul\":11462:11593   */\n      tag_359\n      jump\t// in\n    tag_404:\n        /* \"#utility.yul\":11454:11593   */\n      swap1\n      pop\n        /* \"#utility.yul\":11181:11600   */\n      swap2\n      swap1\n      pop\n      jump\t// out\n        /* \"#utility.yul\":11606:11828   */\n    tag_25:\n        /* \"#utility.yul\":11699:11703   */\n      0x00\n        /* \"#utility.yul\":11737:11739   */\n      0x20\n        /* \"#utility.yul\":11726:11735   */\n      dup3\n        /* \"#utility.yul\":11722:11740   */\n      add\n        /* \"#utility.yul\":11714:11740   */\n      swap1\n      pop\n        /* \"#utility.yul\":11750:11821   */\n      tag_406\n        /* \"#utility.yul\":11818:11819   */\n      0x00\n        /* \"#utility.yul\":11807:11816   */\n      dup4\n        /* \"#utility.yul\":11803:11820   */\n      add\n        /* \"#utility.yul\":11794:11800   */\n      dup5\n        /* \"#utility.yul\":11750:11821   */\n      tag_376\n      jump\t// in\n    tag_406:\n        /* \"#utility.yul\":11606:11828   */\n      swap3\n      swap2\n      pop\n      pop\n      jump\t// out\n        /* \"#utility.yul\":11915:12067   */\n    tag_322:\n        /* \"#utility.yul\":12002:12006   */\n      0x00\n        /* \"#utility.yul\":12025:12028   */\n      dup2\n        /* \"#utility.yul\":12017:12028   */\n      swap1\n      pop\n        /* \"#utility.yul\":12055:12059   */\n      0x20\n        /* \"#utility.yul\":12050:12053   */\n      dup3\n        /* \"#utility.yul\":12046:12060   */\n      add\n        /* \"#utility.yul\":12038:12060   */\n      swap1\n      pop\n        /* \"#utility.yul\":11915:12067   */\n      swap2\n      swap1\n      pop\n      jump\t// out\n        /* \"#utility.yul\":12073:12207   */\n    tag_318:\n        /* \"#utility.yul\":12160:12166   */\n      0x00\n        /* \"#utility.yul\":12194:12199   */\n      dup2\n        /* \"#utility.yul\":12188:12200   */\n      mload\n        /* \"#utility.yul\":12178:12200   */\n      swap1\n      pop\n        /* \"#utility.yul\":12073:12207   */\n      swap2\n      swap1\n      pop\n      jump\t// out\n        /* \"#utility.yul\":12213:12346   */\n    tag_328:\n        /* \"#utility.yul\":12303:12307   */\n      0x00\n        /* \"#utility.yul\":12335:12339   */\n      0x20\n        /* \"#utility.yul\":12330:12333   */\n      dup3\n        /* \"#utility.yul\":12326:12340   */\n      add\n        /* \"#utility.yul\":12318:12340   */\n      swap1\n      pop\n        /* \"#utility.yul\":12213:12346   */\n      swap2\n      swap1\n      pop\n      jump\t// out\n        /* \"#utility.yul\":12352:12556   */\n    tag_320:\n        /* \"#utility.yul\":12471:12482   */\n      0x00\n        /* \"#utility.yul\":12505:12511   */\n      dup3\n        /* \"#utility.yul\":12500:12503   */\n      dup3\n        /* \"#utility.yul\":12493:12512   */\n      mstore\n        /* \"#utility.yul\":12545:12549   */\n      0x20\n        /* \"#utility.yul\":12540:12543   */\n      dup3\n        /* \"#utility.yul\":12536:12550   */\n      add\n        /* \"#utility.yul\":12521:12550   */\n      swap1\n      pop\n        /* \"#utility.yul\":12352:12556   */\n      swap3\n      swap2\n      pop\n      pop\n      jump\t// out\n        /* \"#utility.yul\":12562:12731   */\n    tag_336:\n        /* \"#utility.yul\":12646:12657   */\n      0x00\n        /* \"#utility.yul\":12680:12686   */\n      dup3\n        /* \"#utility.yul\":12675:12678   */\n      dup3\n        /* \"#utility.yul\":12668:12687   */\n      mstore\n        /* \"#utility.yul\":12720:12724   */\n      0x20\n        /* \"#utility.yul\":12715:12718   */\n      dup3\n        /* \"#utility.yul\":12711:12725   */\n      add\n        /* \"#utility.yul\":12696:12725   */\n      swap1\n      pop\n        /* \"#utility.yul\":12562:12731   */\n      swap3\n      swap2\n      pop\n      pop\n      jump\t// out\n        /* \"#utility.yul\":12737:12928   */\n    tag_182:\n        /* \"#utility.yul\":12777:12781   */\n      0x00\n        /* \"#utility.yul\":12797:12817   */\n      tag_415\n        /* \"#utility.yul\":12815:12816   */\n      dup3\n        /* \"#utility.yul\":12797:12817   */\n      tag_375\n      jump\t// in\n    tag_415:\n        /* \"#utility.yul\":12792:12817   */\n      swap2\n      pop\n        /* \"#utility.yul\":12831:12851   */\n      tag_416\n        /* \"#utility.yul\":12849:12850   */\n      dup4\n        /* \"#utility.yul\":12831:12851   */\n      tag_375\n      jump\t// in\n    tag_416:\n        /* \"#utility.yul\":12826:12851   */\n      swap3\n      pop\n        /* \"#utility.yul\":12870:12871   */\n      dup3\n        /* \"#utility.yul\":12867:12868   */\n      dup3\n        /* \"#utility.yul\":12864:12872   */\n      lt\n        /* \"#utility.yul\":12861:12895   */\n      iszero\n      tag_417\n      jumpi\n        /* \"#utility.yul\":12875:12893   */\n      tag_418\n      tag_419\n      jump\t// in\n    tag_418:\n        /* \"#utility.yul\":12861:12895   */\n    tag_417:\n        /* \"#utility.yul\":12920:12921   */\n      dup3\n        /* \"#utility.yul\":12917:12918   */\n      dup3\n        /* \"#utility.yul\":12913:12922   */\n      sub\n        /* \"#utility.yul\":12905:12922   */\n      swap1\n      pop\n        /* \"#utility.yul\":12737:12928   */\n      swap3\n      swap2\n      pop\n      pop\n      jump\t// out\n        /* \"#utility.yul\":12934:13030   */\n    tag_311:\n        /* \"#utility.yul\":12971:12978   */\n      0x00\n        /* \"#utility.yul\":13000:13024   */\n      tag_421\n        /* \"#utility.yul\":13018:13023   */\n      dup3\n        /* \"#utility.yul\":13000:13024   */\n      tag_422\n      jump\t// in\n    tag_421:\n        /* \"#utility.yul\":12989:13024   */\n      swap1\n      pop\n        /* \"#utility.yul\":12934:13030   */\n      swap2\n      swap1\n      pop\n      jump\t// out\n        /* \"#utility.yul\":13036:13140   */\n    tag_307:\n        /* \"#utility.yul\":13081:13088   */\n      0x00\n        /* \"#utility.yul\":13110:13134   */\n      tag_424\n        /* \"#utility.yul\":13128:13133   */\n      dup3\n        /* \"#utility.yul\":13110:13134   */\n      tag_422\n      jump\t// in\n    tag_424:\n        /* \"#utility.yul\":13099:13134   */\n      swap1\n      pop\n        /* \"#utility.yul\":13036:13140   */\n      swap2\n      swap1\n      pop\n      jump\t// out\n        /* \"#utility.yul\":13146:13236   */\n    tag_332:\n        /* \"#utility.yul\":13180:13187   */\n      0x00\n        /* \"#utility.yul\":13223:13228   */\n      dup2\n        /* \"#utility.yul\":13216:13229   */\n      iszero\n        /* \"#utility.yul\":13209:13230   */\n      iszero\n        /* \"#utility.yul\":13198:13230   */\n      swap1\n      pop\n        /* \"#utility.yul\":13146:13236   */\n      swap2\n      swap1\n      pop\n      jump\t// out\n        /* \"#utility.yul\":13242:13368   */\n    tag_422:\n        /* \"#utility.yul\":13279:13286   */\n      0x00\n        /* \"#utility.yul\":13319:13361   */\n      0xffffffffffffffffffffffffffffffffffffffff\n        /* \"#utility.yul\":13312:13317   */\n      dup3\n        /* \"#utility.yul\":13308:13362   */\n      and\n        /* \"#utility.yul\":13297:13362   */\n      swap1\n      pop\n        /* \"#utility.yul\":13242:13368   */\n      swap2\n      swap1\n      pop\n      jump\t// out\n        /* \"#utility.yul\":13374:13451   */\n    tag_375:\n        /* \"#utility.yul\":13411:13418   */\n      0x00\n        /* \"#utility.yul\":13440:13445   */\n      dup2\n        /* \"#utility.yul\":13429:13445   */\n      swap1\n      pop\n        /* \"#utility.yul\":13374:13451   */\n      swap2\n      swap1\n      pop\n      jump\t// out\n        /* \"#utility.yul\":13457:13591   */\n    tag_303:\n        /* \"#utility.yul\":13515:13524   */\n      0x00\n        /* \"#utility.yul\":13548:13585   */\n      tag_429\n        /* \"#utility.yul\":13579:13584   */\n      dup3\n        /* \"#utility.yul\":13548:13585   */\n      tag_430\n      jump\t// in\n    tag_429:\n        /* \"#utility.yul\":13535:13585   */\n      swap1\n      pop\n        /* \"#utility.yul\":13457:13591   */\n      swap2\n      swap1\n      pop\n      jump\t// out\n        /* \"#utility.yul\":13597:13723   */\n    tag_430:\n        /* \"#utility.yul\":13647:13656   */\n      0x00\n        /* \"#utility.yul\":13680:13717   */\n      tag_432\n        /* \"#utility.yul\":13711:13716   */\n      dup3\n        /* \"#utility.yul\":13680:13717   */\n      tag_433\n      jump\t// in\n    tag_432:\n        /* \"#utility.yul\":13667:13717   */\n      swap1\n      pop\n        /* \"#utility.yul\":13597:13723   */\n      swap2\n      swap1\n      pop\n      jump\t// out\n        /* \"#utility.yul\":13729:13842   */\n    tag_433:\n        /* \"#utility.yul\":13779:13788   */\n      0x00\n        /* \"#utility.yul\":13812:13836   */\n      tag_435\n        /* \"#utility.yul\":13830:13835   */\n      dup3\n        /* \"#utility.yul\":13812:13836   */\n      tag_422\n      jump\t// in\n    tag_435:\n        /* \"#utility.yul\":13799:13836   */\n      swap1\n      pop\n        /* \"#utility.yul\":13729:13842   */\n      swap2\n      swap1\n      pop\n      jump\t// out\n        /* \"#utility.yul\":13848:14081   */\n    tag_98:\n        /* \"#utility.yul\":13887:13890   */\n      0x00\n        /* \"#utility.yul\":13910:13934   */\n      tag_437\n        /* \"#utility.yul\":13928:13933   */\n      dup3\n        /* \"#utility.yul\":13910:13934   */\n      tag_375\n      jump\t// in\n    tag_437:\n        /* \"#utility.yul\":13901:13934   */\n      swap2\n      pop\n        /* \"#utility.yul\":13956:14022   */\n      0xffffffffffffffffffffffffffffffffffffffffffffffffffffffffffffffff\n        /* \"#utility.yul\":13949:13954   */\n      dup3\n        /* \"#utility.yul\":13946:14023   */\n      eq\n        /* \"#utility.yul\":13943:14046   */\n      iszero\n      tag_438\n      jumpi\n        /* \"#utility.yul\":14026:14044   */\n      tag_439\n      tag_419\n      jump\t// in\n    tag_439:\n        /* \"#utility.yul\":13943:14046   */\n    tag_438:\n        /* \"#utility.yul\":14073:14074   */\n      0x01\n        /* \"#utility.yul\":14066:14071   */\n      dup3\n        /* \"#utility.yul\":14062:14075   */\n      add\n        /* \"#utility.yul\":14055:14075   */\n      swap1\n      pop\n        /* \"#utility.yul\":13848:14081   */\n      swap2\n      swap1\n      pop\n      jump\t// out\n        /* \"#utility.yul\":14087:14267   */\n    tag_419:\n        /* \"#utility.yul\":14135:14212   */\n      0x4e487b7100000000000000000000000000000000000000000000000000000000\n        /* \"#utility.yul\":14132:14133   */\n      0x00\n        /* \"#utility.yul\":14125:14213   */\n      mstore\n        /* \"#utility.yul\":14232:14236   */\n      0x11\n        /* \"#utility.yul\":14229:14230   */\n      0x04\n        /* \"#utility.yul\":14222:14237   */\n      mstore\n        /* \"#utility.yul\":14256:14260   */\n      0x24\n        /* \"#utility.yul\":14253:14254   */\n      0x00\n        /* \"#utility.yul\":14246:14261   */\n      revert\n        /* \"#utility.yul\":14273:14453   */\n    tag_72:\n        /* \"#utility.yul\":14321:14398   */\n      0x4e487b7100000000000000000000000000000000000000000000000000000000\n        /* \"#utility.yul\":14318:14319   */\n      0x00\n        /* \"#utility.yul\":14311:14399   */\n      mstore\n        /* \"#utility.yul\":14418:14422   */\n      0x32\n        /* \"#utility.yul\":14415:14416   */\n      0x04\n        /* \"#utility.yul\":14408:14423   */\n      mstore\n        /* \"#utility.yul\":14442:14446   */\n      0x24\n        /* \"#utility.yul\":14439:14440   */\n      0x00\n        /* \"#utility.yul\":14432:14447   */\n      revert\n        /* \"#utility.yul\":14459:14639   */\n    tag_102:\n        /* \"#utility.yul\":14507:14584   */\n      0x4e487b7100000000000000000000000000000000000000000000000000000000\n        /* \"#utility.yul\":14504:14505   */\n      0x00\n        /* \"#utility.yul\":14497:14585   */\n      mstore\n        /* \"#utility.yul\":14604:14608   */\n      0x41\n        /* \"#utility.yul\":14601:14602   */\n      0x04\n        /* \"#utility.yul\":14594:14609   */\n      mstore\n        /* \"#utility.yul\":14628:14632   */\n      0x24\n        /* \"#utility.yul\":14625:14626   */\n      0x00\n        /* \"#utility.yul\":14618:14633   */\n      revert\n        /* \"#utility.yul\":14768:14885   */\n    tag_287:\n        /* \"#utility.yul\":14877:14878   */\n      0x00\n        /* \"#utility.yul\":14874:14875   */\n      dup1\n        /* \"#utility.yul\":14867:14879   */\n      revert\n        /* \"#utility.yul\":14891:15068   */\n    tag_338:\n        /* \"#utility.yul\":15031:15060   */\n      0x436f756e7465723a2064656372656d656e74206f766572666c6f770000000000\n        /* \"#utility.yul\":15027:15028   */\n      0x00\n        /* \"#utility.yul\":15019:15025   */\n      dup3\n        /* \"#utility.yul\":15015:15029   */\n      add\n        /* \"#utility.yul\":15008:15061   */\n      mstore\n        /* \"#utility.yul\":14891:15068   */\n      pop\n      jump\t// out\n        /* \"#utility.yul\":15074:15299   */\n    tag_343:\n        /* \"#utility.yul\":15214:15248   */\n      0x4e6f7420656e6f75676820657468657220746f20636f7665722061736b696e67\n        /* \"#utility.yul\":15210:15211   */\n      0x00\n        /* \"#utility.yul\":15202:15208   */\n      dup3\n        /* \"#utility.yul\":15198:15212   */\n      add\n        /* \"#utility.yul\":15191:15249   */\n      mstore\n        /* \"#utility.yul\":15283:15291   */\n      0x2070726963650000000000000000000000000000000000000000000000000000\n        /* \"#utility.yul\":15278:15280   */\n      0x20\n        /* \"#utility.yul\":15270:15276   */\n      dup3\n        /* \"#utility.yul\":15266:15281   */\n      add\n        /* \"#utility.yul\":15259:15292   */\n      mstore\n        /* \"#utility.yul\":15074:15299   */\n      pop\n      jump\t// out\n        /* \"#utility.yul\":15305:15468   */\n    tag_348:\n        /* \"#utility.yul\":15445:15460   */\n      0x4e6674206e6f7420666f756e6400000000000000000000000000000000000000\n        /* \"#utility.yul\":15441:15442   */\n      0x00\n        /* \"#utility.yul\":15433:15439   */\n      dup3\n        /* \"#utility.yul\":15429:15443   */\n      add\n        /* \"#utility.yul\":15422:15461   */\n      mstore\n        /* \"#utility.yul\":15305:15468   */\n      pop\n      jump\t// out\n        /* \"#utility.yul\":15474:15656   */\n    tag_353:\n        /* \"#utility.yul\":15614:15648   */\n      0x4e6f7420656e6f75676820657468657220666f72206c697374696e6720666565\n        /* \"#utility.yul\":15610:15611   */\n      0x00\n        /* \"#utility.yul\":15602:15608   */\n      dup3\n        /* \"#utility.yul\":15598:15612   */\n      add\n        /* \"#utility.yul\":15591:15649   */\n      mstore\n        /* \"#utility.yul\":15474:15656   */\n      pop\n      jump\t// out\n        /* \"#utility.yul\":15662:15843   */\n    tag_358:\n        /* \"#utility.yul\":15802:15835   */\n      0x5265656e7472616e637947756172643a207265656e7472616e742063616c6c00\n        /* \"#utility.yul\":15798:15799   */\n      0x00\n        /* \"#utility.yul\":15790:15796   */\n      dup3\n        /* \"#utility.yul\":15786:15800   */\n      add\n        /* \"#utility.yul\":15779:15836   */\n      mstore\n        /* \"#utility.yul\":15662:15843   */\n      pop\n      jump\t// out\n        /* \"#utility.yul\":15849:16027   */\n    tag_363:\n        /* \"#utility.yul\":15989:16019   */\n      0x5072696365206d757374206265206174206c6561737420312077656900000000\n        /* \"#utility.yul\":15985:15986   */\n      0x00\n        /* \"#utility.yul\":15977:15983   */\n      dup3\n        /* \"#utility.yul\":15973:15987   */\n      add\n        /* \"#utility.yul\":15966:16020   */\n      mstore\n        /* \"#utility.yul\":15849:16027   */\n      pop\n      jump\t// out\n        /* \"#utility.yul\":16033:16155   */\n    tag_279:\n        /* \"#utility.yul\":16106:16130   */\n      tag_453\n        /* \"#utility.yul\":16124:16129   */\n      dup2\n        /* \"#utility.yul\":16106:16130   */\n      tag_311\n      jump\t// in\n    tag_453:\n        /* \"#utility.yul\":16099:16104   */\n      dup2\n        /* \"#utility.yul\":16096:16131   */\n      eq\n        /* \"#utility.yul\":16086:16149   */\n      tag_454\n      jumpi\n        /* \"#utility.yul\":16145:16146   */\n      0x00\n        /* \"#utility.yul\":16142:16143   */\n      dup1\n        /* \"#utility.yul\":16135:16147   */\n      revert\n        /* \"#utility.yul\":16086:16149   */\n    tag_454:\n        /* \"#utility.yul\":16033:16155   */\n      pop\n      jump\t// out\n        /* \"#utility.yul\":16161:16283   */\n    tag_283:\n        /* \"#utility.yul\":16234:16258   */\n      tag_456\n        /* \"#utility.yul\":16252:16257   */\n      dup2\n        /* \"#utility.yul\":16234:16258   */\n      tag_375\n      jump\t// in\n    tag_456:\n        /* \"#utility.yul\":16227:16232   */\n      dup2\n        /* \"#utility.yul\":16224:16259   */\n      eq\n        /* \"#utility.yul\":16214:16277   */\n      tag_457\n      jumpi\n        /* \"#utility.yul\":16273:16274   */\n      0x00\n        /* \"#utility.yul\":16270:16271   */\n      dup1\n        /* \"#utility.yul\":16263:16275   */\n      revert\n        /* \"#utility.yul\":16214:16277   */\n    tag_457:\n        /* \"#utility.yul\":16161:16283   */\n      pop\n      jump\t// out\n\n    auxdata: 0xa2646970667358221220612bcc5f38fa62921d298095602aa8f87cdd6e7b1357f71b8f939702f901491864736f6c63430008070033\n}\n",
				"bytecode": {
					"linkReferences": {},
					"object": "608060405266071afd498d000060035534801561001b57600080fd5b50600160008190555033600460006101000a81548173ffffffffffffffffffffffffffffffffffffffff021916908373ffffffffffffffffffffffffffffffffffffffff160217905550612607806100746000396000f3fe6080604052600436106100865760003560e01c80638492095a116100595780638492095a146101195780638d6cb3fb14610144578063a46b5c5a1461016f578063ad05f1b41461019a578063b8fe6abe146101b657610086565b8063049356941461008b5780631f4cc4db146100a75780632b86ae38146100d25780634ddf4f8f146100fd575b600080fd5b6100a560048036038101906100a09190611e6a565b6101e1565b005b3480156100b357600080fd5b506100bc61054b565b6040516100c991906121a1565b60405180910390f35b3480156100de57600080fd5b506100e76108df565b6040516100f49190612283565b60405180910390f35b61011760048036038101906101129190611e2a565b6108e5565b005b34801561012557600080fd5b5061012e610be0565b60405161013b91906121a1565b60405180910390f35b34801561015057600080fd5b50610159610f74565b60405161016691906121a1565b60405180910390f35b34801561017b57600080fd5b50610184611238565b60405161019191906121a1565b60405180910390f35b6101b460048036038101906101af9190611e6a565b6115cc565b005b3480156101c257600080fd5b506101cb611a04565b6040516101d89190612283565b60405180910390f35b60026000541415610227576040517f08c379a000000000000000000000000000000000000000000000000000000000815260040161021e90612243565b60405180910390fd5b600260008190555060008111610272576040517f08c379a000000000000000000000000000000000000000000000000000000000815260040161026990612263565b60405180910390fd5b60035434146102b6576040517f08c379a00000000000000000000000000000000000000000000000000000000081526004016102ad90612223565b60405180910390fd5b60006102c28484611a0e565b9050809150507fffffffffffffffffffffffffffffffffffffffffffffffffffffffffffffffff81141561032b576040517f08c379a000000000000000000000000000000000000000000000000000000000815260040161032290612203565b60405180910390fd5b8373ffffffffffffffffffffffffffffffffffffffff166323b872dd3330866040518463ffffffff1660e01b815260040161036893929190612133565b600060405180830381600087803b15801561038257600080fd5b505af1158015610396573d6000803e3d6000fd5b5050505033600582815481106103af576103ae612424565b5b906000526020600020906006020160030160006101000a81548173ffffffffffffffffffffffffffffffffffffffff021916908373ffffffffffffffffffffffffffffffffffffffff160217905550306005828154811061041357610412612424565b5b906000526020600020906006020160040160006101000a81548173ffffffffffffffffffffffffffffffffffffffff021916908373ffffffffffffffffffffffffffffffffffffffff16021790555060016005828154811061047857610477612424565b5b906000526020600020906006020160050160146101000a81548160ff02191690831515021790555081600582815481106104b5576104b4612424565b5b9060005260206000209060060201600201819055506104d46001611ce9565b3073ffffffffffffffffffffffffffffffffffffffff163373ffffffffffffffffffffffffffffffffffffffff167fa0c6c0d02d86fdacecbaa5fdf5894bab204e31a778250474108540733a9b8d198686866040516105359392919061216a565b60405180910390a3506001600081905550505050565b606060006105596002611d45565b90506000805b82811015610602573373ffffffffffffffffffffffffffffffffffffffff166005828154811061059257610591612424565b5b906000526020600020906006020160030160009054906101000a900473ffffffffffffffffffffffffffffffffffffffff1673ffffffffffffffffffffffffffffffffffffffff1614156105ef5781806105eb906123ac565b9250505b80806105fa906123ac565b91505061055f565b5060008167ffffffffffffffff81111561061f5761061e612453565b5b60405190808252806020026020018201604052801561065857816020015b610645611d69565b81526020019060019003908161063d5790505b5090506000805b848110156108d4573373ffffffffffffffffffffffffffffffffffffffff166005828154811061069257610691612424565b5b906000526020600020906006020160030160009054906101000a900473ffffffffffffffffffffffffffffffffffffffff1673ffffffffffffffffffffffffffffffffffffffff1614156108c157600581815481106106f4576106f3612424565b5b90600052602060002090600602016040518060e00160405290816000820160009054906101000a900473ffffffffffffffffffffffffffffffffffffffff1673ffffffffffffffffffffffffffffffffffffffff1673ffffffffffffffffffffffffffffffffffffffff16815260200160018201548152602001600282015481526020016003820160009054906101000a900473ffffffffffffffffffffffffffffffffffffffff1673ffffffffffffffffffffffffffffffffffffffff1673ffffffffffffffffffffffffffffffffffffffff1681526020016004820160009054906101000a900473ffffffffffffffffffffffffffffffffffffffff1673ffffffffffffffffffffffffffffffffffffffff1673ffffffffffffffffffffffffffffffffffffffff1681526020016005820160009054906101000a900473ffffffffffffffffffffffffffffffffffffffff1673ffffffffffffffffffffffffffffffffffffffff1673ffffffffffffffffffffffffffffffffffffffff1681526020016005820160149054906101000a900460ff1615151515815250508383815181106108a7576108a6612424565b5b602002602001018190525081806108bd906123ac565b9250505b80806108cc906123ac565b91505061065f565b508194505050505090565b60035481565b6002600054141561092b576040517f08c379a000000000000000000000000000000000000000000000000000000000815260040161092290612243565b60405180910390fd5b600260008190555061093b611d69565b60006109478484611a0e565b80925081935050507fffffffffffffffffffffffffffffffffffffffffffffffffffffffffffffffff8114156109b2576040517f08c379a00000000000000000000000000000000000000000000000000000000081526004016109a990612203565b60405180910390fd5b81604001513410156109f9576040517f08c379a00000000000000000000000000000000000000000000000000000000081526004016109f0906121e3565b60405180910390fd5b6000339050826060015173ffffffffffffffffffffffffffffffffffffffff166108fc349081150290604051600060405180830381858888f19350505050158015610a48573d6000803e3d6000fd5b508473ffffffffffffffffffffffffffffffffffffffff166323b872dd3083876040518463ffffffff1660e01b8152600401610a86939291906120fc565b600060405180830381600087803b158015610aa057600080fd5b505af1158015610ab4573d6000803e3d6000fd5b505050508060058381548110610acd57610acc612424565b5b906000526020600020906006020160040160006101000a81548173ffffffffffffffffffffffffffffffffffffffff021916908373ffffffffffffffffffffffffffffffffffffffff160217905550600060058381548110610b3257610b31612424565b5b906000526020600020906006020160050160146101000a81548160ff021916908315150217905550610b646001611d53565b8073ffffffffffffffffffffffffffffffffffffffff16836060015173ffffffffffffffffffffffffffffffffffffffff167f16f1dbd97e6bf646d429ed186cce832f1f7fd9907814293b83181e9970ab7bd2878734604051610bc99392919061216a565b60405180910390a350505060016000819055505050565b60606000610bee6002611d45565b90506000805b82811015610c97573373ffffffffffffffffffffffffffffffffffffffff1660058281548110610c2757610c26612424565b5b906000526020600020906006020160050160009054906101000a900473ffffffffffffffffffffffffffffffffffffffff1673ffffffffffffffffffffffffffffffffffffffff161415610c84578180610c80906123ac565b9250505b8080610c8f906123ac565b915050610bf4565b5060008167ffffffffffffffff811115610cb457610cb3612453565b5b604051908082528060200260200182016040528015610ced57816020015b610cda611d69565b815260200190600190039081610cd25790505b5090506000805b84811015610f69573373ffffffffffffffffffffffffffffffffffffffff1660058281548110610d2757610d26612424565b5b906000526020600020906006020160050160009054906101000a900473ffffffffffffffffffffffffffffffffffffffff1673ffffffffffffffffffffffffffffffffffffffff161415610f565760058181548110610d8957610d88612424565b5b90600052602060002090600602016040518060e00160405290816000820160009054906101000a900473ffffffffffffffffffffffffffffffffffffffff1673ffffffffffffffffffffffffffffffffffffffff1673ffffffffffffffffffffffffffffffffffffffff16815260200160018201548152602001600282015481526020016003820160009054906101000a900473ffffffffffffffffffffffffffffffffffffffff1673ffffffffffffffffffffffffffffffffffffffff1673ffffffffffffffffffffffffffffffffffffffff1681526020016004820160009054906101000a900473ffffffffffffffffffffffffffffffffffffffff1673ffffffffffffffffffffffffffffffffffffffff1673ffffffffffffffffffffffffffffffffffffffff1681526020016005820160009054906101000a900473ffffffffffffffffffffffffffffffffffffffff1673ffffffffffffffffffffffffffffffffffffffff1673ffffffffffffffffffffffffffffffffffffffff1681526020016005820160149054906101000a900460ff161515151581525050838381518110610f3c57610f3b612424565b5b60200260200101819052508180610f52906123ac565b9250505b8080610f61906123ac565b915050610cf4565b508194505050505090565b60606000610f826002611d45565b90506000610f906001611d45565b82610f9b91906122e8565b905060008167ffffffffffffffff811115610fb957610fb8612453565b5b604051908082528060200260200182016040528015610ff257816020015b610fdf611d69565b815260200190600190039081610fd75790505b5090506000805b8481101561122d576005818154811061101557611014612424565b5b906000526020600020906006020160050160149054906101000a900460ff161561121a576005818154811061104d5761104c612424565b5b90600052602060002090600602016040518060e00160405290816000820160009054906101000a900473ffffffffffffffffffffffffffffffffffffffff1673ffffffffffffffffffffffffffffffffffffffff1673ffffffffffffffffffffffffffffffffffffffff16815260200160018201548152602001600282015481526020016003820160009054906101000a900473ffffffffffffffffffffffffffffffffffffffff1673ffffffffffffffffffffffffffffffffffffffff1673ffffffffffffffffffffffffffffffffffffffff1681526020016004820160009054906101000a900473ffffffffffffffffffffffffffffffffffffffff1673ffffffffffffffffffffffffffffffffffffffff1673ffffffffffffffffffffffffffffffffffffffff1681526020016005820160009054906101000a900473ffffffffffffffffffffffffffffffffffffffff1673ffffffffffffffffffffffffffffffffffffffff1673ffffffffffffffffffffffffffffffffffffffff1681526020016005820160149054906101000a900460ff161515151581525050838381518110611200576111ff612424565b5b60200260200101819052508180611216906123ac565b9250505b8080611225906123ac565b915050610ff9565b508194505050505090565b606060006112466002611d45565b90506000805b828110156112ef573373ffffffffffffffffffffffffffffffffffffffff166005828154811061127f5761127e612424565b5b906000526020600020906006020160040160009054906101000a900473ffffffffffffffffffffffffffffffffffffffff1673ffffffffffffffffffffffffffffffffffffffff1614156112dc5781806112d8906123ac565b9250505b80806112e7906123ac565b91505061124c565b5060008167ffffffffffffffff81111561130c5761130b612453565b5b60405190808252806020026020018201604052801561134557816020015b611332611d69565b81526020019060019003908161132a5790505b5090506000805b848110156115c1573373ffffffffffffffffffffffffffffffffffffffff166005828154811061137f5761137e612424565b5b906000526020600020906006020160040160009054906101000a900473ffffffffffffffffffffffffffffffffffffffff1673ffffffffffffffffffffffffffffffffffffffff1614156115ae57600581815481106113e1576113e0612424565b5b90600052602060002090600602016040518060e00160405290816000820160009054906101000a900473ffffffffffffffffffffffffffffffffffffffff1673ffffffffffffffffffffffffffffffffffffffff1673ffffffffffffffffffffffffffffffffffffffff16815260200160018201548152602001600282015481526020016003820160009054906101000a900473ffffffffffffffffffffffffffffffffffffffff1673ffffffffffffffffffffffffffffffffffffffff1673ffffffffffffffffffffffffffffffffffffffff1681526020016004820160009054906101000a900473ffffffffffffffffffffffffffffffffffffffff1673ffffffffffffffffffffffffffffffffffffffff1673ffffffffffffffffffffffffffffffffffffffff1681526020016005820160009054906101000a900473ffffffffffffffffffffffffffffffffffffffff1673ffffffffffffffffffffffffffffffffffffffff1673ffffffffffffffffffffffffffffffffffffffff1681526020016005820160149054906101000a900460ff16151515158152505083838151811061159457611593612424565b5b602002602001018190525081806115aa906123ac565b9250505b80806115b9906123ac565b91505061134c565b508194505050505090565b60026000541415611612576040517f08c379a000000000000000000000000000000000000000000000000000000000815260040161160990612243565b60405180910390fd5b60026000819055506000811161165d576040517f08c379a000000000000000000000000000000000000000000000000000000000815260040161165490612263565b60405180910390fd5b60035434146116a1576040517f08c379a000000000000000000000000000000000000000000000000000000000815260040161169890612223565b60405180910390fd5b8273ffffffffffffffffffffffffffffffffffffffff166323b872dd3330856040518463ffffffff1660e01b81526004016116de93929190612133565b600060405180830381600087803b1580156116f857600080fd5b505af115801561170c573d6000803e3d6000fd5b5050505060056040518060e001604052808573ffffffffffffffffffffffffffffffffffffffff1681526020018481526020018381526020013373ffffffffffffffffffffffffffffffffffffffff1681526020013073ffffffffffffffffffffffffffffffffffffffff1681526020013373ffffffffffffffffffffffffffffffffffffffff16815260200160011515815250908060018154018082558091505060019003906000526020600020906006020160009091909190915060008201518160000160006101000a81548173ffffffffffffffffffffffffffffffffffffffff021916908373ffffffffffffffffffffffffffffffffffffffff160217905550602082015181600101556040820151816002015560608201518160030160006101000a81548173ffffffffffffffffffffffffffffffffffffffff021916908373ffffffffffffffffffffffffffffffffffffffff16021790555060808201518160040160006101000a81548173ffffffffffffffffffffffffffffffffffffffff021916908373ffffffffffffffffffffffffffffffffffffffff16021790555060a08201518160050160006101000a81548173ffffffffffffffffffffffffffffffffffffffff021916908373ffffffffffffffffffffffffffffffffffffffff16021790555060c08201518160050160146101000a81548160ff02191690831515021790555050506119256002611d53565b600460009054906101000a900473ffffffffffffffffffffffffffffffffffffffff1673ffffffffffffffffffffffffffffffffffffffff166108fc349081150290604051600060405180830381858888f1935050505015801561198d573d6000803e3d6000fd5b503073ffffffffffffffffffffffffffffffffffffffff163373ffffffffffffffffffffffffffffffffffffffff167fa0c6c0d02d86fdacecbaa5fdf5894bab204e31a778250474108540733a9b8d198585856040516119ef9392919061216a565b60405180910390a36001600081905550505050565b6000600354905090565b611a16611d69565b6000611a20611d69565b60007fffffffffffffffffffffffffffffffffffffffffffffffffffffffffffffffff90506000611a516002611d45565b905060005b81811015611cd8578773ffffffffffffffffffffffffffffffffffffffff1660058281548110611a8957611a88612424565b5b906000526020600020906006020160000160009054906101000a900473ffffffffffffffffffffffffffffffffffffffff1673ffffffffffffffffffffffffffffffffffffffff16148015611b0257508660058281548110611aee57611aed612424565b5b906000526020600020906006020160010154145b15611cc55760058181548110611b1b57611b1a612424565b5b90600052602060002090600602016040518060e00160405290816000820160009054906101000a900473ffffffffffffffffffffffffffffffffffffffff1673ffffffffffffffffffffffffffffffffffffffff1673ffffffffffffffffffffffffffffffffffffffff16815260200160018201548152602001600282015481526020016003820160009054906101000a900473ffffffffffffffffffffffffffffffffffffffff1673ffffffffffffffffffffffffffffffffffffffff1673ffffffffffffffffffffffffffffffffffffffff1681526020016004820160009054906101000a900473ffffffffffffffffffffffffffffffffffffffff1673ffffffffffffffffffffffffffffffffffffffff1673ffffffffffffffffffffffffffffffffffffffff1681526020016005820160009054906101000a900473ffffffffffffffffffffffffffffffffffffffff1673ffffffffffffffffffffffffffffffffffffffff1673ffffffffffffffffffffffffffffffffffffffff1681526020016005820160149054906101000a900460ff1615151515815250509350809250611cd8565b8080611cd0906123ac565b915050611a56565b508282945094505050509250929050565b60008160000154905060008111611d35576040517f08c379a0000000000000000000000000000000000000000000000000000000008152600401611d2c906121c3565b60405180910390fd5b6001810382600001819055505050565b600081600001549050919050565b6001816000016000828254019250508190555050565b6040518060e00160405280600073ffffffffffffffffffffffffffffffffffffffff1681526020016000815260200160008152602001600073ffffffffffffffffffffffffffffffffffffffff168152602001600073ffffffffffffffffffffffffffffffffffffffff168152602001600073ffffffffffffffffffffffffffffffffffffffff1681526020016000151581525090565b600081359050611e0f816125a3565b92915050565b600081359050611e24816125ba565b92915050565b60008060408385031215611e4157611e40612482565b5b6000611e4f85828601611e00565b9250506020611e6085828601611e15565b9150509250929050565b600080600060608486031215611e8357611e82612482565b5b6000611e9186828701611e00565b9350506020611ea286828701611e15565b9250506040611eb386828701611e15565b9150509250925092565b6000611ec98383612050565b60e08301905092915050565b611ede81612376565b82525050565b611eed8161232e565b82525050565b611efc8161231c565b82525050565b611f0b8161231c565b82525050565b6000611f1c826122ae565b611f2681856122c6565b9350611f318361229e565b8060005b83811015611f62578151611f498882611ebd565b9750611f54836122b9565b925050600181019050611f35565b5085935050505092915050565b611f7881612340565b82525050565b6000611f8b601b836122d7565b9150611f9682612487565b602082019050919050565b6000611fae6026836122d7565b9150611fb9826124b0565b604082019050919050565b6000611fd1600d836122d7565b9150611fdc826124ff565b602082019050919050565b6000611ff46020836122d7565b9150611fff82612528565b602082019050919050565b6000612017601f836122d7565b915061202282612551565b602082019050919050565b600061203a601c836122d7565b91506120458261257a565b602082019050919050565b60e0820160008201516120666000850182611ef3565b50602082015161207960208501826120de565b50604082015161208c60408501826120de565b50606082015161209f6060850182611ee4565b5060808201516120b26080850182611ee4565b5060a08201516120c560a0850182611ee4565b5060c08201516120d860c0850182611f6f565b50505050565b6120e78161236c565b82525050565b6120f68161236c565b82525050565b60006060820190506121116000830186611f02565b61211e6020830185611ed5565b61212b60408301846120ed565b949350505050565b60006060820190506121486000830186611f02565b6121556020830185611f02565b61216260408301846120ed565b949350505050565b600060608201905061217f6000830186611f02565b61218c60208301856120ed565b61219960408301846120ed565b949350505050565b600060208201905081810360008301526121bb8184611f11565b905092915050565b600060208201905081810360008301526121dc81611f7e565b9050919050565b600060208201905081810360008301526121fc81611fa1565b9050919050565b6000602082019050818103600083015261221c81611fc4565b9050919050565b6000602082019050818103600083015261223c81611fe7565b9050919050565b6000602082019050818103600083015261225c8161200a565b9050919050565b6000602082019050818103600083015261227c8161202d565b9050919050565b600060208201905061229860008301846120ed565b92915050565b6000819050602082019050919050565b600081519050919050565b6000602082019050919050565b600082825260208201905092915050565b600082825260208201905092915050565b60006122f38261236c565b91506122fe8361236c565b925082821015612311576123106123f5565b5b828203905092915050565b60006123278261234c565b9050919050565b60006123398261234c565b9050919050565b60008115159050919050565b600073ffffffffffffffffffffffffffffffffffffffff82169050919050565b6000819050919050565b600061238182612388565b9050919050565b60006123938261239a565b9050919050565b60006123a58261234c565b9050919050565b60006123b78261236c565b91507fffffffffffffffffffffffffffffffffffffffffffffffffffffffffffffffff8214156123ea576123e96123f5565b5b600182019050919050565b7f4e487b7100000000000000000000000000000000000000000000000000000000600052601160045260246000fd5b7f4e487b7100000000000000000000000000000000000000000000000000000000600052603260045260246000fd5b7f4e487b7100000000000000000000000000000000000000000000000000000000600052604160045260246000fd5b600080fd5b7f436f756e7465723a2064656372656d656e74206f766572666c6f770000000000600082015250565b7f4e6f7420656e6f75676820657468657220746f20636f7665722061736b696e6760008201527f2070726963650000000000000000000000000000000000000000000000000000602082015250565b7f4e6674206e6f7420666f756e6400000000000000000000000000000000000000600082015250565b7f4e6f7420656e6f75676820657468657220666f72206c697374696e6720666565600082015250565b7f5265656e7472616e637947756172643a207265656e7472616e742063616c6c00600082015250565b7f5072696365206d757374206265206174206c6561737420312077656900000000600082015250565b6125ac8161231c565b81146125b757600080fd5b50565b6125c38161236c565b81146125ce57600080fd5b5056fea2646970667358221220612bcc5f38fa62921d298095602aa8f87cdd6e7b1357f71b8f939702f901491864736f6c63430008070033",
					"opcodes": "PUSH1 0x80 PUSH1 0x40 MSTORE PUSH7 0x71AFD498D0000 PUSH1 0x3 SSTORE CALLVALUE DUP1 ISZERO PUSH2 0x1B JUMPI PUSH1 0x0 DUP1 REVERT JUMPDEST POP PUSH1 0x1 PUSH1 0x0 DUP2 SWAP1 SSTORE POP CALLER PUSH1 0x4 PUSH1 0x0 PUSH2 0x100 EXP DUP2 SLOAD DUP2 PUSH20 0xFFFFFFFFFFFFFFFFFFFFFFFFFFFFFFFFFFFFFFFF MUL NOT AND SWAP1 DUP4 PUSH20 0xFFFFFFFFFFFFFFFFFFFFFFFFFFFFFFFFFFFFFFFF AND MUL OR SWAP1 SSTORE POP PUSH2 0x2607 DUP1 PUSH2 0x74 PUSH1 0x0 CODECOPY PUSH1 0x0 RETURN INVALID PUSH1 0x80 PUSH1 0x40 MSTORE PUSH1 0x4 CALLDATASIZE LT PUSH2 0x86 JUMPI PUSH1 0x0 CALLDATALOAD PUSH1 0xE0 SHR DUP1 PUSH4 0x8492095A GT PUSH2 0x59 JUMPI DUP1 PUSH4 0x8492095A EQ PUSH2 0x119 JUMPI DUP1 PUSH4 0x8D6CB3FB EQ PUSH2 0x144 JUMPI DUP1 PUSH4 0xA46B5C5A EQ PUSH2 0x16F JUMPI DUP1 PUSH4 0xAD05F1B4 EQ PUSH2 0x19A JUMPI DUP1 PUSH4 0xB8FE6ABE EQ PUSH2 0x1B6 JUMPI PUSH2 0x86 JUMP JUMPDEST DUP1 PUSH4 0x4935694 EQ PUSH2 0x8B JUMPI DUP1 PUSH4 0x1F4CC4DB EQ PUSH2 0xA7 JUMPI DUP1 PUSH4 0x2B86AE38 EQ PUSH2 0xD2 JUMPI DUP1 PUSH4 0x4DDF4F8F EQ PUSH2 0xFD JUMPI JUMPDEST PUSH1 0x0 DUP1 REVERT JUMPDEST PUSH2 0xA5 PUSH1 0x4 DUP1 CALLDATASIZE SUB DUP2 ADD SWAP1 PUSH2 0xA0 SWAP2 SWAP1 PUSH2 0x1E6A JUMP JUMPDEST PUSH2 0x1E1 JUMP JUMPDEST STOP JUMPDEST CALLVALUE DUP1 ISZERO PUSH2 0xB3 JUMPI PUSH1 0x0 DUP1 REVERT JUMPDEST POP PUSH2 0xBC PUSH2 0x54B JUMP JUMPDEST PUSH1 0x40 MLOAD PUSH2 0xC9 SWAP2 SWAP1 PUSH2 0x21A1 JUMP JUMPDEST PUSH1 0x40 MLOAD DUP1 SWAP2 SUB SWAP1 RETURN JUMPDEST CALLVALUE DUP1 ISZERO PUSH2 0xDE JUMPI PUSH1 0x0 DUP1 REVERT JUMPDEST POP PUSH2 0xE7 PUSH2 0x8DF JUMP JUMPDEST PUSH1 0x40 MLOAD PUSH2 0xF4 SWAP2 SWAP1 PUSH2 0x2283 JUMP JUMPDEST PUSH1 0x40 MLOAD DUP1 SWAP2 SUB SWAP1 RETURN JUMPDEST PUSH2 0x117 PUSH1 0x4 DUP1 CALLDATASIZE SUB DUP2 ADD SWAP1 PUSH2 0x112 SWAP2 SWAP1 PUSH2 0x1E2A JUMP JUMPDEST PUSH2 0x8E5 JUMP JUMPDEST STOP JUMPDEST CALLVALUE DUP1 ISZERO PUSH2 0x125 JUMPI PUSH1 0x0 DUP1 REVERT JUMPDEST POP PUSH2 0x12E PUSH2 0xBE0 JUMP JUMPDEST PUSH1 0x40 MLOAD PUSH2 0x13B SWAP2 SWAP1 PUSH2 0x21A1 JUMP JUMPDEST PUSH1 0x40 MLOAD DUP1 SWAP2 SUB SWAP1 RETURN JUMPDEST CALLVALUE DUP1 ISZERO PUSH2 0x150 JUMPI PUSH1 0x0 DUP1 REVERT JUMPDEST POP PUSH2 0x159 PUSH2 0xF74 JUMP JUMPDEST PUSH1 0x40 MLOAD PUSH2 0x166 SWAP2 SWAP1 PUSH2 0x21A1 JUMP JUMPDEST PUSH1 0x40 MLOAD DUP1 SWAP2 SUB SWAP1 RETURN JUMPDEST CALLVALUE DUP1 ISZERO PUSH2 0x17B JUMPI PUSH1 0x0 DUP1 REVERT JUMPDEST POP PUSH2 0x184 PUSH2 0x1238 JUMP JUMPDEST PUSH1 0x40 MLOAD PUSH2 0x191 SWAP2 SWAP1 PUSH2 0x21A1 JUMP JUMPDEST PUSH1 0x40 MLOAD DUP1 SWAP2 SUB SWAP1 RETURN JUMPDEST PUSH2 0x1B4 PUSH1 0x4 DUP1 CALLDATASIZE SUB DUP2 ADD SWAP1 PUSH2 0x1AF SWAP2 SWAP1 PUSH2 0x1E6A JUMP JUMPDEST PUSH2 0x15CC JUMP JUMPDEST STOP JUMPDEST CALLVALUE DUP1 ISZERO PUSH2 0x1C2 JUMPI PUSH1 0x0 DUP1 REVERT JUMPDEST POP PUSH2 0x1CB PUSH2 0x1A04 JUMP JUMPDEST PUSH1 0x40 MLOAD PUSH2 0x1D8 SWAP2 SWAP1 PUSH2 0x2283 JUMP JUMPDEST PUSH1 0x40 MLOAD DUP1 SWAP2 SUB SWAP1 RETURN JUMPDEST PUSH1 0x2 PUSH1 0x0 SLOAD EQ ISZERO PUSH2 0x227 JUMPI PUSH1 0x40 MLOAD PUSH32 0x8C379A000000000000000000000000000000000000000000000000000000000 DUP2 MSTORE PUSH1 0x4 ADD PUSH2 0x21E SWAP1 PUSH2 0x2243 JUMP JUMPDEST PUSH1 0x40 MLOAD DUP1 SWAP2 SUB SWAP1 REVERT JUMPDEST PUSH1 0x2 PUSH1 0x0 DUP2 SWAP1 SSTORE POP PUSH1 0x0 DUP2 GT PUSH2 0x272 JUMPI PUSH1 0x40 MLOAD PUSH32 0x8C379A000000000000000000000000000000000000000000000000000000000 DUP2 MSTORE PUSH1 0x4 ADD PUSH2 0x269 SWAP1 PUSH2 0x2263 JUMP JUMPDEST PUSH1 0x40 MLOAD DUP1 SWAP2 SUB SWAP1 REVERT JUMPDEST PUSH1 0x3 SLOAD CALLVALUE EQ PUSH2 0x2B6 JUMPI PUSH1 0x40 MLOAD PUSH32 0x8C379A000000000000000000000000000000000000000000000000000000000 DUP2 MSTORE PUSH1 0x4 ADD PUSH2 0x2AD SWAP1 PUSH2 0x2223 JUMP JUMPDEST PUSH1 0x40 MLOAD DUP1 SWAP2 SUB SWAP1 REVERT JUMPDEST PUSH1 0x0 PUSH2 0x2C2 DUP5 DUP5 PUSH2 0x1A0E JUMP JUMPDEST SWAP1 POP DUP1 SWAP2 POP POP PUSH32 0xFFFFFFFFFFFFFFFFFFFFFFFFFFFFFFFFFFFFFFFFFFFFFFFFFFFFFFFFFFFFFFFF DUP2 EQ ISZERO PUSH2 0x32B JUMPI PUSH1 0x40 MLOAD PUSH32 0x8C379A000000000000000000000000000000000000000000000000000000000 DUP2 MSTORE PUSH1 0x4 ADD PUSH2 0x322 SWAP1 PUSH2 0x2203 JUMP JUMPDEST PUSH1 0x40 MLOAD DUP1 SWAP2 SUB SWAP1 REVERT JUMPDEST DUP4 PUSH20 0xFFFFFFFFFFFFFFFFFFFFFFFFFFFFFFFFFFFFFFFF AND PUSH4 0x23B872DD CALLER ADDRESS DUP7 PUSH1 0x40 MLOAD DUP5 PUSH4 0xFFFFFFFF AND PUSH1 0xE0 SHL DUP2 MSTORE PUSH1 0x4 ADD PUSH2 0x368 SWAP4 SWAP3 SWAP2 SWAP1 PUSH2 0x2133 JUMP JUMPDEST PUSH1 0x0 PUSH1 0x40 MLOAD DUP1 DUP4 SUB DUP2 PUSH1 0x0 DUP8 DUP1 EXTCODESIZE ISZERO DUP1 ISZERO PUSH2 0x382 JUMPI PUSH1 0x0 DUP1 REVERT JUMPDEST POP GAS CALL ISZERO DUP1 ISZERO PUSH2 0x396 JUMPI RETURNDATASIZE PUSH1 0x0 DUP1 RETURNDATACOPY RETURNDATASIZE PUSH1 0x0 REVERT JUMPDEST POP POP POP POP CALLER PUSH1 0x5 DUP3 DUP2 SLOAD DUP2 LT PUSH2 0x3AF JUMPI PUSH2 0x3AE PUSH2 0x2424 JUMP JUMPDEST JUMPDEST SWAP1 PUSH1 0x0 MSTORE PUSH1 0x20 PUSH1 0x0 KECCAK256 SWAP1 PUSH1 0x6 MUL ADD PUSH1 0x3 ADD PUSH1 0x0 PUSH2 0x100 EXP DUP2 SLOAD DUP2 PUSH20 0xFFFFFFFFFFFFFFFFFFFFFFFFFFFFFFFFFFFFFFFF MUL NOT AND SWAP1 DUP4 PUSH20 0xFFFFFFFFFFFFFFFFFFFFFFFFFFFFFFFFFFFFFFFF AND MUL OR SWAP1 SSTORE POP ADDRESS PUSH1 0x5 DUP3 DUP2 SLOAD DUP2 LT PUSH2 0x413 JUMPI PUSH2 0x412 PUSH2 0x2424 JUMP JUMPDEST JUMPDEST SWAP1 PUSH1 0x0 MSTORE PUSH1 0x20 PUSH1 0x0 KECCAK256 SWAP1 PUSH1 0x6 MUL ADD PUSH1 0x4 ADD PUSH1 0x0 PUSH2 0x100 EXP DUP2 SLOAD DUP2 PUSH20 0xFFFFFFFFFFFFFFFFFFFFFFFFFFFFFFFFFFFFFFFF MUL NOT AND SWAP1 DUP4 PUSH20 0xFFFFFFFFFFFFFFFFFFFFFFFFFFFFFFFFFFFFFFFF AND MUL OR SWAP1 SSTORE POP PUSH1 0x1 PUSH1 0x5 DUP3 DUP2 SLOAD DUP2 LT PUSH2 0x478 JUMPI PUSH2 0x477 PUSH2 0x2424 JUMP JUMPDEST JUMPDEST SWAP1 PUSH1 0x0 MSTORE PUSH1 0x20 PUSH1 0x0 KECCAK256 SWAP1 PUSH1 0x6 MUL ADD PUSH1 0x5 ADD PUSH1 0x14 PUSH2 0x100 EXP DUP2 SLOAD DUP2 PUSH1 0xFF MUL NOT AND SWAP1 DUP4 ISZERO ISZERO MUL OR SWAP1 SSTORE POP DUP2 PUSH1 0x5 DUP3 DUP2 SLOAD DUP2 LT PUSH2 0x4B5 JUMPI PUSH2 0x4B4 PUSH2 0x2424 JUMP JUMPDEST JUMPDEST SWAP1 PUSH1 0x0 MSTORE PUSH1 0x20 PUSH1 0x0 KECCAK256 SWAP1 PUSH1 0x6 MUL ADD PUSH1 0x2 ADD DUP2 SWAP1 SSTORE POP PUSH2 0x4D4 PUSH1 0x1 PUSH2 0x1CE9 JUMP JUMPDEST ADDRESS PUSH20 0xFFFFFFFFFFFFFFFFFFFFFFFFFFFFFFFFFFFFFFFF AND CALLER PUSH20 0xFFFFFFFFFFFFFFFFFFFFFFFFFFFFFFFFFFFFFFFF AND PUSH32 0xA0C6C0D02D86FDACECBAA5FDF5894BAB204E31A778250474108540733A9B8D19 DUP7 DUP7 DUP7 PUSH1 0x40 MLOAD PUSH2 0x535 SWAP4 SWAP3 SWAP2 SWAP1 PUSH2 0x216A JUMP JUMPDEST PUSH1 0x40 MLOAD DUP1 SWAP2 SUB SWAP1 LOG3 POP PUSH1 0x1 PUSH1 0x0 DUP2 SWAP1 SSTORE POP POP POP POP JUMP JUMPDEST PUSH1 0x60 PUSH1 0x0 PUSH2 0x559 PUSH1 0x2 PUSH2 0x1D45 JUMP JUMPDEST SWAP1 POP PUSH1 0x0 DUP1 JUMPDEST DUP3 DUP2 LT ISZERO PUSH2 0x602 JUMPI CALLER PUSH20 0xFFFFFFFFFFFFFFFFFFFFFFFFFFFFFFFFFFFFFFFF AND PUSH1 0x5 DUP3 DUP2 SLOAD DUP2 LT PUSH2 0x592 JUMPI PUSH2 0x591 PUSH2 0x2424 JUMP JUMPDEST JUMPDEST SWAP1 PUSH1 0x0 MSTORE PUSH1 0x20 PUSH1 0x0 KECCAK256 SWAP1 PUSH1 0x6 MUL ADD PUSH1 0x3 ADD PUSH1 0x0 SWAP1 SLOAD SWAP1 PUSH2 0x100 EXP SWAP1 DIV PUSH20 0xFFFFFFFFFFFFFFFFFFFFFFFFFFFFFFFFFFFFFFFF AND PUSH20 0xFFFFFFFFFFFFFFFFFFFFFFFFFFFFFFFFFFFFFFFF AND EQ ISZERO PUSH2 0x5EF JUMPI DUP2 DUP1 PUSH2 0x5EB SWAP1 PUSH2 0x23AC JUMP JUMPDEST SWAP3 POP POP JUMPDEST DUP1 DUP1 PUSH2 0x5FA SWAP1 PUSH2 0x23AC JUMP JUMPDEST SWAP2 POP POP PUSH2 0x55F JUMP JUMPDEST POP PUSH1 0x0 DUP2 PUSH8 0xFFFFFFFFFFFFFFFF DUP2 GT ISZERO PUSH2 0x61F JUMPI PUSH2 0x61E PUSH2 0x2453 JUMP JUMPDEST JUMPDEST PUSH1 0x40 MLOAD SWAP1 DUP1 DUP3 MSTORE DUP1 PUSH1 0x20 MUL PUSH1 0x20 ADD DUP3 ADD PUSH1 0x40 MSTORE DUP1 ISZERO PUSH2 0x658 JUMPI DUP2 PUSH1 0x20 ADD JUMPDEST PUSH2 0x645 PUSH2 0x1D69 JUMP JUMPDEST DUP2 MSTORE PUSH1 0x20 ADD SWAP1 PUSH1 0x1 SWAP1 SUB SWAP1 DUP2 PUSH2 0x63D JUMPI SWAP1 POP JUMPDEST POP SWAP1 POP PUSH1 0x0 DUP1 JUMPDEST DUP5 DUP2 LT ISZERO PUSH2 0x8D4 JUMPI CALLER PUSH20 0xFFFFFFFFFFFFFFFFFFFFFFFFFFFFFFFFFFFFFFFF AND PUSH1 0x5 DUP3 DUP2 SLOAD DUP2 LT PUSH2 0x692 JUMPI PUSH2 0x691 PUSH2 0x2424 JUMP JUMPDEST JUMPDEST SWAP1 PUSH1 0x0 MSTORE PUSH1 0x20 PUSH1 0x0 KECCAK256 SWAP1 PUSH1 0x6 MUL ADD PUSH1 0x3 ADD PUSH1 0x0 SWAP1 SLOAD SWAP1 PUSH2 0x100 EXP SWAP1 DIV PUSH20 0xFFFFFFFFFFFFFFFFFFFFFFFFFFFFFFFFFFFFFFFF AND PUSH20 0xFFFFFFFFFFFFFFFFFFFFFFFFFFFFFFFFFFFFFFFF AND EQ ISZERO PUSH2 0x8C1 JUMPI PUSH1 0x5 DUP2 DUP2 SLOAD DUP2 LT PUSH2 0x6F4 JUMPI PUSH2 0x6F3 PUSH2 0x2424 JUMP JUMPDEST JUMPDEST SWAP1 PUSH1 0x0 MSTORE PUSH1 0x20 PUSH1 0x0 KECCAK256 SWAP1 PUSH1 0x6 MUL ADD PUSH1 0x40 MLOAD DUP1 PUSH1 0xE0 ADD PUSH1 0x40 MSTORE SWAP1 DUP2 PUSH1 0x0 DUP3 ADD PUSH1 0x0 SWAP1 SLOAD SWAP1 PUSH2 0x100 EXP SWAP1 DIV PUSH20 0xFFFFFFFFFFFFFFFFFFFFFFFFFFFFFFFFFFFFFFFF AND PUSH20 0xFFFFFFFFFFFFFFFFFFFFFFFFFFFFFFFFFFFFFFFF AND PUSH20 0xFFFFFFFFFFFFFFFFFFFFFFFFFFFFFFFFFFFFFFFF AND DUP2 MSTORE PUSH1 0x20 ADD PUSH1 0x1 DUP3 ADD SLOAD DUP2 MSTORE PUSH1 0x20 ADD PUSH1 0x2 DUP3 ADD SLOAD DUP2 MSTORE PUSH1 0x20 ADD PUSH1 0x3 DUP3 ADD PUSH1 0x0 SWAP1 SLOAD SWAP1 PUSH2 0x100 EXP SWAP1 DIV PUSH20 0xFFFFFFFFFFFFFFFFFFFFFFFFFFFFFFFFFFFFFFFF AND PUSH20 0xFFFFFFFFFFFFFFFFFFFFFFFFFFFFFFFFFFFFFFFF AND PUSH20 0xFFFFFFFFFFFFFFFFFFFFFFFFFFFFFFFFFFFFFFFF AND DUP2 MSTORE PUSH1 0x20 ADD PUSH1 0x4 DUP3 ADD PUSH1 0x0 SWAP1 SLOAD SWAP1 PUSH2 0x100 EXP SWAP1 DIV PUSH20 0xFFFFFFFFFFFFFFFFFFFFFFFFFFFFFFFFFFFFFFFF AND PUSH20 0xFFFFFFFFFFFFFFFFFFFFFFFFFFFFFFFFFFFFFFFF AND PUSH20 0xFFFFFFFFFFFFFFFFFFFFFFFFFFFFFFFFFFFFFFFF AND DUP2 MSTORE PUSH1 0x20 ADD PUSH1 0x5 DUP3 ADD PUSH1 0x0 SWAP1 SLOAD SWAP1 PUSH2 0x100 EXP SWAP1 DIV PUSH20 0xFFFFFFFFFFFFFFFFFFFFFFFFFFFFFFFFFFFFFFFF AND PUSH20 0xFFFFFFFFFFFFFFFFFFFFFFFFFFFFFFFFFFFFFFFF AND PUSH20 0xFFFFFFFFFFFFFFFFFFFFFFFFFFFFFFFFFFFFFFFF AND DUP2 MSTORE PUSH1 0x20 ADD PUSH1 0x5 DUP3 ADD PUSH1 0x14 SWAP1 SLOAD SWAP1 PUSH2 0x100 EXP SWAP1 DIV PUSH1 0xFF AND ISZERO ISZERO ISZERO ISZERO DUP2 MSTORE POP POP DUP4 DUP4 DUP2 MLOAD DUP2 LT PUSH2 0x8A7 JUMPI PUSH2 0x8A6 PUSH2 0x2424 JUMP JUMPDEST JUMPDEST PUSH1 0x20 MUL PUSH1 0x20 ADD ADD DUP2 SWAP1 MSTORE POP DUP2 DUP1 PUSH2 0x8BD SWAP1 PUSH2 0x23AC JUMP JUMPDEST SWAP3 POP POP JUMPDEST DUP1 DUP1 PUSH2 0x8CC SWAP1 PUSH2 0x23AC JUMP JUMPDEST SWAP2 POP POP PUSH2 0x65F JUMP JUMPDEST POP DUP2 SWAP5 POP POP POP POP POP SWAP1 JUMP JUMPDEST PUSH1 0x3 SLOAD DUP2 JUMP JUMPDEST PUSH1 0x2 PUSH1 0x0 SLOAD EQ ISZERO PUSH2 0x92B JUMPI PUSH1 0x40 MLOAD PUSH32 0x8C379A000000000000000000000000000000000000000000000000000000000 DUP2 MSTORE PUSH1 0x4 ADD PUSH2 0x922 SWAP1 PUSH2 0x2243 JUMP JUMPDEST PUSH1 0x40 MLOAD DUP1 SWAP2 SUB SWAP1 REVERT JUMPDEST PUSH1 0x2 PUSH1 0x0 DUP2 SWAP1 SSTORE POP PUSH2 0x93B PUSH2 0x1D69 JUMP JUMPDEST PUSH1 0x0 PUSH2 0x947 DUP5 DUP5 PUSH2 0x1A0E JUMP JUMPDEST DUP1 SWAP3 POP DUP2 SWAP4 POP POP POP PUSH32 0xFFFFFFFFFFFFFFFFFFFFFFFFFFFFFFFFFFFFFFFFFFFFFFFFFFFFFFFFFFFFFFFF DUP2 EQ ISZERO PUSH2 0x9B2 JUMPI PUSH1 0x40 MLOAD PUSH32 0x8C379A000000000000000000000000000000000000000000000000000000000 DUP2 MSTORE PUSH1 0x4 ADD PUSH2 0x9A9 SWAP1 PUSH2 0x2203 JUMP JUMPDEST PUSH1 0x40 MLOAD DUP1 SWAP2 SUB SWAP1 REVERT JUMPDEST DUP2 PUSH1 0x40 ADD MLOAD CALLVALUE LT ISZERO PUSH2 0x9F9 JUMPI PUSH1 0x40 MLOAD PUSH32 0x8C379A000000000000000000000000000000000000000000000000000000000 DUP2 MSTORE PUSH1 0x4 ADD PUSH2 0x9F0 SWAP1 PUSH2 0x21E3 JUMP JUMPDEST PUSH1 0x40 MLOAD DUP1 SWAP2 SUB SWAP1 REVERT JUMPDEST PUSH1 0x0 CALLER SWAP1 POP DUP3 PUSH1 0x60 ADD MLOAD PUSH20 0xFFFFFFFFFFFFFFFFFFFFFFFFFFFFFFFFFFFFFFFF AND PUSH2 0x8FC CALLVALUE SWAP1 DUP2 ISZERO MUL SWAP1 PUSH1 0x40 MLOAD PUSH1 0x0 PUSH1 0x40 MLOAD DUP1 DUP4 SUB DUP2 DUP6 DUP9 DUP9 CALL SWAP4 POP POP POP POP ISZERO DUP1 ISZERO PUSH2 0xA48 JUMPI RETURNDATASIZE PUSH1 0x0 DUP1 RETURNDATACOPY RETURNDATASIZE PUSH1 0x0 REVERT JUMPDEST POP DUP5 PUSH20 0xFFFFFFFFFFFFFFFFFFFFFFFFFFFFFFFFFFFFFFFF AND PUSH4 0x23B872DD ADDRESS DUP4 DUP8 PUSH1 0x40 MLOAD DUP5 PUSH4 0xFFFFFFFF AND PUSH1 0xE0 SHL DUP2 MSTORE PUSH1 0x4 ADD PUSH2 0xA86 SWAP4 SWAP3 SWAP2 SWAP1 PUSH2 0x20FC JUMP JUMPDEST PUSH1 0x0 PUSH1 0x40 MLOAD DUP1 DUP4 SUB DUP2 PUSH1 0x0 DUP8 DUP1 EXTCODESIZE ISZERO DUP1 ISZERO PUSH2 0xAA0 JUMPI PUSH1 0x0 DUP1 REVERT JUMPDEST POP GAS CALL ISZERO DUP1 ISZERO PUSH2 0xAB4 JUMPI RETURNDATASIZE PUSH1 0x0 DUP1 RETURNDATACOPY RETURNDATASIZE PUSH1 0x0 REVERT JUMPDEST POP POP POP POP DUP1 PUSH1 0x5 DUP4 DUP2 SLOAD DUP2 LT PUSH2 0xACD JUMPI PUSH2 0xACC PUSH2 0x2424 JUMP JUMPDEST JUMPDEST SWAP1 PUSH1 0x0 MSTORE PUSH1 0x20 PUSH1 0x0 KECCAK256 SWAP1 PUSH1 0x6 MUL ADD PUSH1 0x4 ADD PUSH1 0x0 PUSH2 0x100 EXP DUP2 SLOAD DUP2 PUSH20 0xFFFFFFFFFFFFFFFFFFFFFFFFFFFFFFFFFFFFFFFF MUL NOT AND SWAP1 DUP4 PUSH20 0xFFFFFFFFFFFFFFFFFFFFFFFFFFFFFFFFFFFFFFFF AND MUL OR SWAP1 SSTORE POP PUSH1 0x0 PUSH1 0x5 DUP4 DUP2 SLOAD DUP2 LT PUSH2 0xB32 JUMPI PUSH2 0xB31 PUSH2 0x2424 JUMP JUMPDEST JUMPDEST SWAP1 PUSH1 0x0 MSTORE PUSH1 0x20 PUSH1 0x0 KECCAK256 SWAP1 PUSH1 0x6 MUL ADD PUSH1 0x5 ADD PUSH1 0x14 PUSH2 0x100 EXP DUP2 SLOAD DUP2 PUSH1 0xFF MUL NOT AND SWAP1 DUP4 ISZERO ISZERO MUL OR SWAP1 SSTORE POP PUSH2 0xB64 PUSH1 0x1 PUSH2 0x1D53 JUMP JUMPDEST DUP1 PUSH20 0xFFFFFFFFFFFFFFFFFFFFFFFFFFFFFFFFFFFFFFFF AND DUP4 PUSH1 0x60 ADD MLOAD PUSH20 0xFFFFFFFFFFFFFFFFFFFFFFFFFFFFFFFFFFFFFFFF AND PUSH32 0x16F1DBD97E6BF646D429ED186CCE832F1F7FD9907814293B83181E9970AB7BD2 DUP8 DUP8 CALLVALUE PUSH1 0x40 MLOAD PUSH2 0xBC9 SWAP4 SWAP3 SWAP2 SWAP1 PUSH2 0x216A JUMP JUMPDEST PUSH1 0x40 MLOAD DUP1 SWAP2 SUB SWAP1 LOG3 POP POP POP PUSH1 0x1 PUSH1 0x0 DUP2 SWAP1 SSTORE POP POP POP JUMP JUMPDEST PUSH1 0x60 PUSH1 0x0 PUSH2 0xBEE PUSH1 0x2 PUSH2 0x1D45 JUMP JUMPDEST SWAP1 POP PUSH1 0x0 DUP1 JUMPDEST DUP3 DUP2 LT ISZERO PUSH2 0xC97 JUMPI CALLER PUSH20 0xFFFFFFFFFFFFFFFFFFFFFFFFFFFFFFFFFFFFFFFF AND PUSH1 0x5 DUP3 DUP2 SLOAD DUP2 LT PUSH2 0xC27 JUMPI PUSH2 0xC26 PUSH2 0x2424 JUMP JUMPDEST JUMPDEST SWAP1 PUSH1 0x0 MSTORE PUSH1 0x20 PUSH1 0x0 KECCAK256 SWAP1 PUSH1 0x6 MUL ADD PUSH1 0x5 ADD PUSH1 0x0 SWAP1 SLOAD SWAP1 PUSH2 0x100 EXP SWAP1 DIV PUSH20 0xFFFFFFFFFFFFFFFFFFFFFFFFFFFFFFFFFFFFFFFF AND PUSH20 0xFFFFFFFFFFFFFFFFFFFFFFFFFFFFFFFFFFFFFFFF AND EQ ISZERO PUSH2 0xC84 JUMPI DUP2 DUP1 PUSH2 0xC80 SWAP1 PUSH2 0x23AC JUMP JUMPDEST SWAP3 POP POP JUMPDEST DUP1 DUP1 PUSH2 0xC8F SWAP1 PUSH2 0x23AC JUMP JUMPDEST SWAP2 POP POP PUSH2 0xBF4 JUMP JUMPDEST POP PUSH1 0x0 DUP2 PUSH8 0xFFFFFFFFFFFFFFFF DUP2 GT ISZERO PUSH2 0xCB4 JUMPI PUSH2 0xCB3 PUSH2 0x2453 JUMP JUMPDEST JUMPDEST PUSH1 0x40 MLOAD SWAP1 DUP1 DUP3 MSTORE DUP1 PUSH1 0x20 MUL PUSH1 0x20 ADD DUP3 ADD PUSH1 0x40 MSTORE DUP1 ISZERO PUSH2 0xCED JUMPI DUP2 PUSH1 0x20 ADD JUMPDEST PUSH2 0xCDA PUSH2 0x1D69 JUMP JUMPDEST DUP2 MSTORE PUSH1 0x20 ADD SWAP1 PUSH1 0x1 SWAP1 SUB SWAP1 DUP2 PUSH2 0xCD2 JUMPI SWAP1 POP JUMPDEST POP SWAP1 POP PUSH1 0x0 DUP1 JUMPDEST DUP5 DUP2 LT ISZERO PUSH2 0xF69 JUMPI CALLER PUSH20 0xFFFFFFFFFFFFFFFFFFFFFFFFFFFFFFFFFFFFFFFF AND PUSH1 0x5 DUP3 DUP2 SLOAD DUP2 LT PUSH2 0xD27 JUMPI PUSH2 0xD26 PUSH2 0x2424 JUMP JUMPDEST JUMPDEST SWAP1 PUSH1 0x0 MSTORE PUSH1 0x20 PUSH1 0x0 KECCAK256 SWAP1 PUSH1 0x6 MUL ADD PUSH1 0x5 ADD PUSH1 0x0 SWAP1 SLOAD SWAP1 PUSH2 0x100 EXP SWAP1 DIV PUSH20 0xFFFFFFFFFFFFFFFFFFFFFFFFFFFFFFFFFFFFFFFF AND PUSH20 0xFFFFFFFFFFFFFFFFFFFFFFFFFFFFFFFFFFFFFFFF AND EQ ISZERO PUSH2 0xF56 JUMPI PUSH1 0x5 DUP2 DUP2 SLOAD DUP2 LT PUSH2 0xD89 JUMPI PUSH2 0xD88 PUSH2 0x2424 JUMP JUMPDEST JUMPDEST SWAP1 PUSH1 0x0 MSTORE PUSH1 0x20 PUSH1 0x0 KECCAK256 SWAP1 PUSH1 0x6 MUL ADD PUSH1 0x40 MLOAD DUP1 PUSH1 0xE0 ADD PUSH1 0x40 MSTORE SWAP1 DUP2 PUSH1 0x0 DUP3 ADD PUSH1 0x0 SWAP1 SLOAD SWAP1 PUSH2 0x100 EXP SWAP1 DIV PUSH20 0xFFFFFFFFFFFFFFFFFFFFFFFFFFFFFFFFFFFFFFFF AND PUSH20 0xFFFFFFFFFFFFFFFFFFFFFFFFFFFFFFFFFFFFFFFF AND PUSH20 0xFFFFFFFFFFFFFFFFFFFFFFFFFFFFFFFFFFFFFFFF AND DUP2 MSTORE PUSH1 0x20 ADD PUSH1 0x1 DUP3 ADD SLOAD DUP2 MSTORE PUSH1 0x20 ADD PUSH1 0x2 DUP3 ADD SLOAD DUP2 MSTORE PUSH1 0x20 ADD PUSH1 0x3 DUP3 ADD PUSH1 0x0 SWAP1 SLOAD SWAP1 PUSH2 0x100 EXP SWAP1 DIV PUSH20 0xFFFFFFFFFFFFFFFFFFFFFFFFFFFFFFFFFFFFFFFF AND PUSH20 0xFFFFFFFFFFFFFFFFFFFFFFFFFFFFFFFFFFFFFFFF AND PUSH20 0xFFFFFFFFFFFFFFFFFFFFFFFFFFFFFFFFFFFFFFFF AND DUP2 MSTORE PUSH1 0x20 ADD PUSH1 0x4 DUP3 ADD PUSH1 0x0 SWAP1 SLOAD SWAP1 PUSH2 0x100 EXP SWAP1 DIV PUSH20 0xFFFFFFFFFFFFFFFFFFFFFFFFFFFFFFFFFFFFFFFF AND PUSH20 0xFFFFFFFFFFFFFFFFFFFFFFFFFFFFFFFFFFFFFFFF AND PUSH20 0xFFFFFFFFFFFFFFFFFFFFFFFFFFFFFFFFFFFFFFFF AND DUP2 MSTORE PUSH1 0x20 ADD PUSH1 0x5 DUP3 ADD PUSH1 0x0 SWAP1 SLOAD SWAP1 PUSH2 0x100 EXP SWAP1 DIV PUSH20 0xFFFFFFFFFFFFFFFFFFFFFFFFFFFFFFFFFFFFFFFF AND PUSH20 0xFFFFFFFFFFFFFFFFFFFFFFFFFFFFFFFFFFFFFFFF AND PUSH20 0xFFFFFFFFFFFFFFFFFFFFFFFFFFFFFFFFFFFFFFFF AND DUP2 MSTORE PUSH1 0x20 ADD PUSH1 0x5 DUP3 ADD PUSH1 0x14 SWAP1 SLOAD SWAP1 PUSH2 0x100 EXP SWAP1 DIV PUSH1 0xFF AND ISZERO ISZERO ISZERO ISZERO DUP2 MSTORE POP POP DUP4 DUP4 DUP2 MLOAD DUP2 LT PUSH2 0xF3C JUMPI PUSH2 0xF3B PUSH2 0x2424 JUMP JUMPDEST JUMPDEST PUSH1 0x20 MUL PUSH1 0x20 ADD ADD DUP2 SWAP1 MSTORE POP DUP2 DUP1 PUSH2 0xF52 SWAP1 PUSH2 0x23AC JUMP JUMPDEST SWAP3 POP POP JUMPDEST DUP1 DUP1 PUSH2 0xF61 SWAP1 PUSH2 0x23AC JUMP JUMPDEST SWAP2 POP POP PUSH2 0xCF4 JUMP JUMPDEST POP DUP2 SWAP5 POP POP POP POP POP SWAP1 JUMP JUMPDEST PUSH1 0x60 PUSH1 0x0 PUSH2 0xF82 PUSH1 0x2 PUSH2 0x1D45 JUMP JUMPDEST SWAP1 POP PUSH1 0x0 PUSH2 0xF90 PUSH1 0x1 PUSH2 0x1D45 JUMP JUMPDEST DUP3 PUSH2 0xF9B SWAP2 SWAP1 PUSH2 0x22E8 JUMP JUMPDEST SWAP1 POP PUSH1 0x0 DUP2 PUSH8 0xFFFFFFFFFFFFFFFF DUP2 GT ISZERO PUSH2 0xFB9 JUMPI PUSH2 0xFB8 PUSH2 0x2453 JUMP JUMPDEST JUMPDEST PUSH1 0x40 MLOAD SWAP1 DUP1 DUP3 MSTORE DUP1 PUSH1 0x20 MUL PUSH1 0x20 ADD DUP3 ADD PUSH1 0x40 MSTORE DUP1 ISZERO PUSH2 0xFF2 JUMPI DUP2 PUSH1 0x20 ADD JUMPDEST PUSH2 0xFDF PUSH2 0x1D69 JUMP JUMPDEST DUP2 MSTORE PUSH1 0x20 ADD SWAP1 PUSH1 0x1 SWAP1 SUB SWAP1 DUP2 PUSH2 0xFD7 JUMPI SWAP1 POP JUMPDEST POP SWAP1 POP PUSH1 0x0 DUP1 JUMPDEST DUP5 DUP2 LT ISZERO PUSH2 0x122D JUMPI PUSH1 0x5 DUP2 DUP2 SLOAD DUP2 LT PUSH2 0x1015 JUMPI PUSH2 0x1014 PUSH2 0x2424 JUMP JUMPDEST JUMPDEST SWAP1 PUSH1 0x0 MSTORE PUSH1 0x20 PUSH1 0x0 KECCAK256 SWAP1 PUSH1 0x6 MUL ADD PUSH1 0x5 ADD PUSH1 0x14 SWAP1 SLOAD SWAP1 PUSH2 0x100 EXP SWAP1 DIV PUSH1 0xFF AND ISZERO PUSH2 0x121A JUMPI PUSH1 0x5 DUP2 DUP2 SLOAD DUP2 LT PUSH2 0x104D JUMPI PUSH2 0x104C PUSH2 0x2424 JUMP JUMPDEST JUMPDEST SWAP1 PUSH1 0x0 MSTORE PUSH1 0x20 PUSH1 0x0 KECCAK256 SWAP1 PUSH1 0x6 MUL ADD PUSH1 0x40 MLOAD DUP1 PUSH1 0xE0 ADD PUSH1 0x40 MSTORE SWAP1 DUP2 PUSH1 0x0 DUP3 ADD PUSH1 0x0 SWAP1 SLOAD SWAP1 PUSH2 0x100 EXP SWAP1 DIV PUSH20 0xFFFFFFFFFFFFFFFFFFFFFFFFFFFFFFFFFFFFFFFF AND PUSH20 0xFFFFFFFFFFFFFFFFFFFFFFFFFFFFFFFFFFFFFFFF AND PUSH20 0xFFFFFFFFFFFFFFFFFFFFFFFFFFFFFFFFFFFFFFFF AND DUP2 MSTORE PUSH1 0x20 ADD PUSH1 0x1 DUP3 ADD SLOAD DUP2 MSTORE PUSH1 0x20 ADD PUSH1 0x2 DUP3 ADD SLOAD DUP2 MSTORE PUSH1 0x20 ADD PUSH1 0x3 DUP3 ADD PUSH1 0x0 SWAP1 SLOAD SWAP1 PUSH2 0x100 EXP SWAP1 DIV PUSH20 0xFFFFFFFFFFFFFFFFFFFFFFFFFFFFFFFFFFFFFFFF AND PUSH20 0xFFFFFFFFFFFFFFFFFFFFFFFFFFFFFFFFFFFFFFFF AND PUSH20 0xFFFFFFFFFFFFFFFFFFFFFFFFFFFFFFFFFFFFFFFF AND DUP2 MSTORE PUSH1 0x20 ADD PUSH1 0x4 DUP3 ADD PUSH1 0x0 SWAP1 SLOAD SWAP1 PUSH2 0x100 EXP SWAP1 DIV PUSH20 0xFFFFFFFFFFFFFFFFFFFFFFFFFFFFFFFFFFFFFFFF AND PUSH20 0xFFFFFFFFFFFFFFFFFFFFFFFFFFFFFFFFFFFFFFFF AND PUSH20 0xFFFFFFFFFFFFFFFFFFFFFFFFFFFFFFFFFFFFFFFF AND DUP2 MSTORE PUSH1 0x20 ADD PUSH1 0x5 DUP3 ADD PUSH1 0x0 SWAP1 SLOAD SWAP1 PUSH2 0x100 EXP SWAP1 DIV PUSH20 0xFFFFFFFFFFFFFFFFFFFFFFFFFFFFFFFFFFFFFFFF AND PUSH20 0xFFFFFFFFFFFFFFFFFFFFFFFFFFFFFFFFFFFFFFFF AND PUSH20 0xFFFFFFFFFFFFFFFFFFFFFFFFFFFFFFFFFFFFFFFF AND DUP2 MSTORE PUSH1 0x20 ADD PUSH1 0x5 DUP3 ADD PUSH1 0x14 SWAP1 SLOAD SWAP1 PUSH2 0x100 EXP SWAP1 DIV PUSH1 0xFF AND ISZERO ISZERO ISZERO ISZERO DUP2 MSTORE POP POP DUP4 DUP4 DUP2 MLOAD DUP2 LT PUSH2 0x1200 JUMPI PUSH2 0x11FF PUSH2 0x2424 JUMP JUMPDEST JUMPDEST PUSH1 0x20 MUL PUSH1 0x20 ADD ADD DUP2 SWAP1 MSTORE POP DUP2 DUP1 PUSH2 0x1216 SWAP1 PUSH2 0x23AC JUMP JUMPDEST SWAP3 POP POP JUMPDEST DUP1 DUP1 PUSH2 0x1225 SWAP1 PUSH2 0x23AC JUMP JUMPDEST SWAP2 POP POP PUSH2 0xFF9 JUMP JUMPDEST POP DUP2 SWAP5 POP POP POP POP POP SWAP1 JUMP JUMPDEST PUSH1 0x60 PUSH1 0x0 PUSH2 0x1246 PUSH1 0x2 PUSH2 0x1D45 JUMP JUMPDEST SWAP1 POP PUSH1 0x0 DUP1 JUMPDEST DUP3 DUP2 LT ISZERO PUSH2 0x12EF JUMPI CALLER PUSH20 0xFFFFFFFFFFFFFFFFFFFFFFFFFFFFFFFFFFFFFFFF AND PUSH1 0x5 DUP3 DUP2 SLOAD DUP2 LT PUSH2 0x127F JUMPI PUSH2 0x127E PUSH2 0x2424 JUMP JUMPDEST JUMPDEST SWAP1 PUSH1 0x0 MSTORE PUSH1 0x20 PUSH1 0x0 KECCAK256 SWAP1 PUSH1 0x6 MUL ADD PUSH1 0x4 ADD PUSH1 0x0 SWAP1 SLOAD SWAP1 PUSH2 0x100 EXP SWAP1 DIV PUSH20 0xFFFFFFFFFFFFFFFFFFFFFFFFFFFFFFFFFFFFFFFF AND PUSH20 0xFFFFFFFFFFFFFFFFFFFFFFFFFFFFFFFFFFFFFFFF AND EQ ISZERO PUSH2 0x12DC JUMPI DUP2 DUP1 PUSH2 0x12D8 SWAP1 PUSH2 0x23AC JUMP JUMPDEST SWAP3 POP POP JUMPDEST DUP1 DUP1 PUSH2 0x12E7 SWAP1 PUSH2 0x23AC JUMP JUMPDEST SWAP2 POP POP PUSH2 0x124C JUMP JUMPDEST POP PUSH1 0x0 DUP2 PUSH8 0xFFFFFFFFFFFFFFFF DUP2 GT ISZERO PUSH2 0x130C JUMPI PUSH2 0x130B PUSH2 0x2453 JUMP JUMPDEST JUMPDEST PUSH1 0x40 MLOAD SWAP1 DUP1 DUP3 MSTORE DUP1 PUSH1 0x20 MUL PUSH1 0x20 ADD DUP3 ADD PUSH1 0x40 MSTORE DUP1 ISZERO PUSH2 0x1345 JUMPI DUP2 PUSH1 0x20 ADD JUMPDEST PUSH2 0x1332 PUSH2 0x1D69 JUMP JUMPDEST DUP2 MSTORE PUSH1 0x20 ADD SWAP1 PUSH1 0x1 SWAP1 SUB SWAP1 DUP2 PUSH2 0x132A JUMPI SWAP1 POP JUMPDEST POP SWAP1 POP PUSH1 0x0 DUP1 JUMPDEST DUP5 DUP2 LT ISZERO PUSH2 0x15C1 JUMPI CALLER PUSH20 0xFFFFFFFFFFFFFFFFFFFFFFFFFFFFFFFFFFFFFFFF AND PUSH1 0x5 DUP3 DUP2 SLOAD DUP2 LT PUSH2 0x137F JUMPI PUSH2 0x137E PUSH2 0x2424 JUMP JUMPDEST JUMPDEST SWAP1 PUSH1 0x0 MSTORE PUSH1 0x20 PUSH1 0x0 KECCAK256 SWAP1 PUSH1 0x6 MUL ADD PUSH1 0x4 ADD PUSH1 0x0 SWAP1 SLOAD SWAP1 PUSH2 0x100 EXP SWAP1 DIV PUSH20 0xFFFFFFFFFFFFFFFFFFFFFFFFFFFFFFFFFFFFFFFF AND PUSH20 0xFFFFFFFFFFFFFFFFFFFFFFFFFFFFFFFFFFFFFFFF AND EQ ISZERO PUSH2 0x15AE JUMPI PUSH1 0x5 DUP2 DUP2 SLOAD DUP2 LT PUSH2 0x13E1 JUMPI PUSH2 0x13E0 PUSH2 0x2424 JUMP JUMPDEST JUMPDEST SWAP1 PUSH1 0x0 MSTORE PUSH1 0x20 PUSH1 0x0 KECCAK256 SWAP1 PUSH1 0x6 MUL ADD PUSH1 0x40 MLOAD DUP1 PUSH1 0xE0 ADD PUSH1 0x40 MSTORE SWAP1 DUP2 PUSH1 0x0 DUP3 ADD PUSH1 0x0 SWAP1 SLOAD SWAP1 PUSH2 0x100 EXP SWAP1 DIV PUSH20 0xFFFFFFFFFFFFFFFFFFFFFFFFFFFFFFFFFFFFFFFF AND PUSH20 0xFFFFFFFFFFFFFFFFFFFFFFFFFFFFFFFFFFFFFFFF AND PUSH20 0xFFFFFFFFFFFFFFFFFFFFFFFFFFFFFFFFFFFFFFFF AND DUP2 MSTORE PUSH1 0x20 ADD PUSH1 0x1 DUP3 ADD SLOAD DUP2 MSTORE PUSH1 0x20 ADD PUSH1 0x2 DUP3 ADD SLOAD DUP2 MSTORE PUSH1 0x20 ADD PUSH1 0x3 DUP3 ADD PUSH1 0x0 SWAP1 SLOAD SWAP1 PUSH2 0x100 EXP SWAP1 DIV PUSH20 0xFFFFFFFFFFFFFFFFFFFFFFFFFFFFFFFFFFFFFFFF AND PUSH20 0xFFFFFFFFFFFFFFFFFFFFFFFFFFFFFFFFFFFFFFFF AND PUSH20 0xFFFFFFFFFFFFFFFFFFFFFFFFFFFFFFFFFFFFFFFF AND DUP2 MSTORE PUSH1 0x20 ADD PUSH1 0x4 DUP3 ADD PUSH1 0x0 SWAP1 SLOAD SWAP1 PUSH2 0x100 EXP SWAP1 DIV PUSH20 0xFFFFFFFFFFFFFFFFFFFFFFFFFFFFFFFFFFFFFFFF AND PUSH20 0xFFFFFFFFFFFFFFFFFFFFFFFFFFFFFFFFFFFFFFFF AND PUSH20 0xFFFFFFFFFFFFFFFFFFFFFFFFFFFFFFFFFFFFFFFF AND DUP2 MSTORE PUSH1 0x20 ADD PUSH1 0x5 DUP3 ADD PUSH1 0x0 SWAP1 SLOAD SWAP1 PUSH2 0x100 EXP SWAP1 DIV PUSH20 0xFFFFFFFFFFFFFFFFFFFFFFFFFFFFFFFFFFFFFFFF AND PUSH20 0xFFFFFFFFFFFFFFFFFFFFFFFFFFFFFFFFFFFFFFFF AND PUSH20 0xFFFFFFFFFFFFFFFFFFFFFFFFFFFFFFFFFFFFFFFF AND DUP2 MSTORE PUSH1 0x20 ADD PUSH1 0x5 DUP3 ADD PUSH1 0x14 SWAP1 SLOAD SWAP1 PUSH2 0x100 EXP SWAP1 DIV PUSH1 0xFF AND ISZERO ISZERO ISZERO ISZERO DUP2 MSTORE POP POP DUP4 DUP4 DUP2 MLOAD DUP2 LT PUSH2 0x1594 JUMPI PUSH2 0x1593 PUSH2 0x2424 JUMP JUMPDEST JUMPDEST PUSH1 0x20 MUL PUSH1 0x20 ADD ADD DUP2 SWAP1 MSTORE POP DUP2 DUP1 PUSH2 0x15AA SWAP1 PUSH2 0x23AC JUMP JUMPDEST SWAP3 POP POP JUMPDEST DUP1 DUP1 PUSH2 0x15B9 SWAP1 PUSH2 0x23AC JUMP JUMPDEST SWAP2 POP POP PUSH2 0x134C JUMP JUMPDEST POP DUP2 SWAP5 POP POP POP POP POP SWAP1 JUMP JUMPDEST PUSH1 0x2 PUSH1 0x0 SLOAD EQ ISZERO PUSH2 0x1612 JUMPI PUSH1 0x40 MLOAD PUSH32 0x8C379A000000000000000000000000000000000000000000000000000000000 DUP2 MSTORE PUSH1 0x4 ADD PUSH2 0x1609 SWAP1 PUSH2 0x2243 JUMP JUMPDEST PUSH1 0x40 MLOAD DUP1 SWAP2 SUB SWAP1 REVERT JUMPDEST PUSH1 0x2 PUSH1 0x0 DUP2 SWAP1 SSTORE POP PUSH1 0x0 DUP2 GT PUSH2 0x165D JUMPI PUSH1 0x40 MLOAD PUSH32 0x8C379A000000000000000000000000000000000000000000000000000000000 DUP2 MSTORE PUSH1 0x4 ADD PUSH2 0x1654 SWAP1 PUSH2 0x2263 JUMP JUMPDEST PUSH1 0x40 MLOAD DUP1 SWAP2 SUB SWAP1 REVERT JUMPDEST PUSH1 0x3 SLOAD CALLVALUE EQ PUSH2 0x16A1 JUMPI PUSH1 0x40 MLOAD PUSH32 0x8C379A000000000000000000000000000000000000000000000000000000000 DUP2 MSTORE PUSH1 0x4 ADD PUSH2 0x1698 SWAP1 PUSH2 0x2223 JUMP JUMPDEST PUSH1 0x40 MLOAD DUP1 SWAP2 SUB SWAP1 REVERT JUMPDEST DUP3 PUSH20 0xFFFFFFFFFFFFFFFFFFFFFFFFFFFFFFFFFFFFFFFF AND PUSH4 0x23B872DD CALLER ADDRESS DUP6 PUSH1 0x40 MLOAD DUP5 PUSH4 0xFFFFFFFF AND PUSH1 0xE0 SHL DUP2 MSTORE PUSH1 0x4 ADD PUSH2 0x16DE SWAP4 SWAP3 SWAP2 SWAP1 PUSH2 0x2133 JUMP JUMPDEST PUSH1 0x0 PUSH1 0x40 MLOAD DUP1 DUP4 SUB DUP2 PUSH1 0x0 DUP8 DUP1 EXTCODESIZE ISZERO DUP1 ISZERO PUSH2 0x16F8 JUMPI PUSH1 0x0 DUP1 REVERT JUMPDEST POP GAS CALL ISZERO DUP1 ISZERO PUSH2 0x170C JUMPI RETURNDATASIZE PUSH1 0x0 DUP1 RETURNDATACOPY RETURNDATASIZE PUSH1 0x0 REVERT JUMPDEST POP POP POP POP PUSH1 0x5 PUSH1 0x40 MLOAD DUP1 PUSH1 0xE0 ADD PUSH1 0x40 MSTORE DUP1 DUP6 PUSH20 0xFFFFFFFFFFFFFFFFFFFFFFFFFFFFFFFFFFFFFFFF AND DUP2 MSTORE PUSH1 0x20 ADD DUP5 DUP2 MSTORE PUSH1 0x20 ADD DUP4 DUP2 MSTORE PUSH1 0x20 ADD CALLER PUSH20 0xFFFFFFFFFFFFFFFFFFFFFFFFFFFFFFFFFFFFFFFF AND DUP2 MSTORE PUSH1 0x20 ADD ADDRESS PUSH20 0xFFFFFFFFFFFFFFFFFFFFFFFFFFFFFFFFFFFFFFFF AND DUP2 MSTORE PUSH1 0x20 ADD CALLER PUSH20 0xFFFFFFFFFFFFFFFFFFFFFFFFFFFFFFFFFFFFFFFF AND DUP2 MSTORE PUSH1 0x20 ADD PUSH1 0x1 ISZERO ISZERO DUP2 MSTORE POP SWAP1 DUP1 PUSH1 0x1 DUP2 SLOAD ADD DUP1 DUP3 SSTORE DUP1 SWAP2 POP POP PUSH1 0x1 SWAP1 SUB SWAP1 PUSH1 0x0 MSTORE PUSH1 0x20 PUSH1 0x0 KECCAK256 SWAP1 PUSH1 0x6 MUL ADD PUSH1 0x0 SWAP1 SWAP2 SWAP1 SWAP2 SWAP1 SWAP2 POP PUSH1 0x0 DUP3 ADD MLOAD DUP2 PUSH1 0x0 ADD PUSH1 0x0 PUSH2 0x100 EXP DUP2 SLOAD DUP2 PUSH20 0xFFFFFFFFFFFFFFFFFFFFFFFFFFFFFFFFFFFFFFFF MUL NOT AND SWAP1 DUP4 PUSH20 0xFFFFFFFFFFFFFFFFFFFFFFFFFFFFFFFFFFFFFFFF AND MUL OR SWAP1 SSTORE POP PUSH1 0x20 DUP3 ADD MLOAD DUP2 PUSH1 0x1 ADD SSTORE PUSH1 0x40 DUP3 ADD MLOAD DUP2 PUSH1 0x2 ADD SSTORE PUSH1 0x60 DUP3 ADD MLOAD DUP2 PUSH1 0x3 ADD PUSH1 0x0 PUSH2 0x100 EXP DUP2 SLOAD DUP2 PUSH20 0xFFFFFFFFFFFFFFFFFFFFFFFFFFFFFFFFFFFFFFFF MUL NOT AND SWAP1 DUP4 PUSH20 0xFFFFFFFFFFFFFFFFFFFFFFFFFFFFFFFFFFFFFFFF AND MUL OR SWAP1 SSTORE POP PUSH1 0x80 DUP3 ADD MLOAD DUP2 PUSH1 0x4 ADD PUSH1 0x0 PUSH2 0x100 EXP DUP2 SLOAD DUP2 PUSH20 0xFFFFFFFFFFFFFFFFFFFFFFFFFFFFFFFFFFFFFFFF MUL NOT AND SWAP1 DUP4 PUSH20 0xFFFFFFFFFFFFFFFFFFFFFFFFFFFFFFFFFFFFFFFF AND MUL OR SWAP1 SSTORE POP PUSH1 0xA0 DUP3 ADD MLOAD DUP2 PUSH1 0x5 ADD PUSH1 0x0 PUSH2 0x100 EXP DUP2 SLOAD DUP2 PUSH20 0xFFFFFFFFFFFFFFFFFFFFFFFFFFFFFFFFFFFFFFFF MUL NOT AND SWAP1 DUP4 PUSH20 0xFFFFFFFFFFFFFFFFFFFFFFFFFFFFFFFFFFFFFFFF AND MUL OR SWAP1 SSTORE POP PUSH1 0xC0 DUP3 ADD MLOAD DUP2 PUSH1 0x5 ADD PUSH1 0x14 PUSH2 0x100 EXP DUP2 SLOAD DUP2 PUSH1 0xFF MUL NOT AND SWAP1 DUP4 ISZERO ISZERO MUL OR SWAP1 SSTORE POP POP POP PUSH2 0x1925 PUSH1 0x2 PUSH2 0x1D53 JUMP JUMPDEST PUSH1 0x4 PUSH1 0x0 SWAP1 SLOAD SWAP1 PUSH2 0x100 EXP SWAP1 DIV PUSH20 0xFFFFFFFFFFFFFFFFFFFFFFFFFFFFFFFFFFFFFFFF AND PUSH20 0xFFFFFFFFFFFFFFFFFFFFFFFFFFFFFFFFFFFFFFFF AND PUSH2 0x8FC CALLVALUE SWAP1 DUP2 ISZERO MUL SWAP1 PUSH1 0x40 MLOAD PUSH1 0x0 PUSH1 0x40 MLOAD DUP1 DUP4 SUB DUP2 DUP6 DUP9 DUP9 CALL SWAP4 POP POP POP POP ISZERO DUP1 ISZERO PUSH2 0x198D JUMPI RETURNDATASIZE PUSH1 0x0 DUP1 RETURNDATACOPY RETURNDATASIZE PUSH1 0x0 REVERT JUMPDEST POP ADDRESS PUSH20 0xFFFFFFFFFFFFFFFFFFFFFFFFFFFFFFFFFFFFFFFF AND CALLER PUSH20 0xFFFFFFFFFFFFFFFFFFFFFFFFFFFFFFFFFFFFFFFF AND PUSH32 0xA0C6C0D02D86FDACECBAA5FDF5894BAB204E31A778250474108540733A9B8D19 DUP6 DUP6 DUP6 PUSH1 0x40 MLOAD PUSH2 0x19EF SWAP4 SWAP3 SWAP2 SWAP1 PUSH2 0x216A JUMP JUMPDEST PUSH1 0x40 MLOAD DUP1 SWAP2 SUB SWAP1 LOG3 PUSH1 0x1 PUSH1 0x0 DUP2 SWAP1 SSTORE POP POP POP POP JUMP JUMPDEST PUSH1 0x0 PUSH1 0x3 SLOAD SWAP1 POP SWAP1 JUMP JUMPDEST PUSH2 0x1A16 PUSH2 0x1D69 JUMP JUMPDEST PUSH1 0x0 PUSH2 0x1A20 PUSH2 0x1D69 JUMP JUMPDEST PUSH1 0x0 PUSH32 0xFFFFFFFFFFFFFFFFFFFFFFFFFFFFFFFFFFFFFFFFFFFFFFFFFFFFFFFFFFFFFFFF SWAP1 POP PUSH1 0x0 PUSH2 0x1A51 PUSH1 0x2 PUSH2 0x1D45 JUMP JUMPDEST SWAP1 POP PUSH1 0x0 JUMPDEST DUP2 DUP2 LT ISZERO PUSH2 0x1CD8 JUMPI DUP8 PUSH20 0xFFFFFFFFFFFFFFFFFFFFFFFFFFFFFFFFFFFFFFFF AND PUSH1 0x5 DUP3 DUP2 SLOAD DUP2 LT PUSH2 0x1A89 JUMPI PUSH2 0x1A88 PUSH2 0x2424 JUMP JUMPDEST JUMPDEST SWAP1 PUSH1 0x0 MSTORE PUSH1 0x20 PUSH1 0x0 KECCAK256 SWAP1 PUSH1 0x6 MUL ADD PUSH1 0x0 ADD PUSH1 0x0 SWAP1 SLOAD SWAP1 PUSH2 0x100 EXP SWAP1 DIV PUSH20 0xFFFFFFFFFFFFFFFFFFFFFFFFFFFFFFFFFFFFFFFF AND PUSH20 0xFFFFFFFFFFFFFFFFFFFFFFFFFFFFFFFFFFFFFFFF AND EQ DUP1 ISZERO PUSH2 0x1B02 JUMPI POP DUP7 PUSH1 0x5 DUP3 DUP2 SLOAD DUP2 LT PUSH2 0x1AEE JUMPI PUSH2 0x1AED PUSH2 0x2424 JUMP JUMPDEST JUMPDEST SWAP1 PUSH1 0x0 MSTORE PUSH1 0x20 PUSH1 0x0 KECCAK256 SWAP1 PUSH1 0x6 MUL ADD PUSH1 0x1 ADD SLOAD EQ JUMPDEST ISZERO PUSH2 0x1CC5 JUMPI PUSH1 0x5 DUP2 DUP2 SLOAD DUP2 LT PUSH2 0x1B1B JUMPI PUSH2 0x1B1A PUSH2 0x2424 JUMP JUMPDEST JUMPDEST SWAP1 PUSH1 0x0 MSTORE PUSH1 0x20 PUSH1 0x0 KECCAK256 SWAP1 PUSH1 0x6 MUL ADD PUSH1 0x40 MLOAD DUP1 PUSH1 0xE0 ADD PUSH1 0x40 MSTORE SWAP1 DUP2 PUSH1 0x0 DUP3 ADD PUSH1 0x0 SWAP1 SLOAD SWAP1 PUSH2 0x100 EXP SWAP1 DIV PUSH20 0xFFFFFFFFFFFFFFFFFFFFFFFFFFFFFFFFFFFFFFFF AND PUSH20 0xFFFFFFFFFFFFFFFFFFFFFFFFFFFFFFFFFFFFFFFF AND PUSH20 0xFFFFFFFFFFFFFFFFFFFFFFFFFFFFFFFFFFFFFFFF AND DUP2 MSTORE PUSH1 0x20 ADD PUSH1 0x1 DUP3 ADD SLOAD DUP2 MSTORE PUSH1 0x20 ADD PUSH1 0x2 DUP3 ADD SLOAD DUP2 MSTORE PUSH1 0x20 ADD PUSH1 0x3 DUP3 ADD PUSH1 0x0 SWAP1 SLOAD SWAP1 PUSH2 0x100 EXP SWAP1 DIV PUSH20 0xFFFFFFFFFFFFFFFFFFFFFFFFFFFFFFFFFFFFFFFF AND PUSH20 0xFFFFFFFFFFFFFFFFFFFFFFFFFFFFFFFFFFFFFFFF AND PUSH20 0xFFFFFFFFFFFFFFFFFFFFFFFFFFFFFFFFFFFFFFFF AND DUP2 MSTORE PUSH1 0x20 ADD PUSH1 0x4 DUP3 ADD PUSH1 0x0 SWAP1 SLOAD SWAP1 PUSH2 0x100 EXP SWAP1 DIV PUSH20 0xFFFFFFFFFFFFFFFFFFFFFFFFFFFFFFFFFFFFFFFF AND PUSH20 0xFFFFFFFFFFFFFFFFFFFFFFFFFFFFFFFFFFFFFFFF AND PUSH20 0xFFFFFFFFFFFFFFFFFFFFFFFFFFFFFFFFFFFFFFFF AND DUP2 MSTORE PUSH1 0x20 ADD PUSH1 0x5 DUP3 ADD PUSH1 0x0 SWAP1 SLOAD SWAP1 PUSH2 0x100 EXP SWAP1 DIV PUSH20 0xFFFFFFFFFFFFFFFFFFFFFFFFFFFFFFFFFFFFFFFF AND PUSH20 0xFFFFFFFFFFFFFFFFFFFFFFFFFFFFFFFFFFFFFFFF AND PUSH20 0xFFFFFFFFFFFFFFFFFFFFFFFFFFFFFFFFFFFFFFFF AND DUP2 MSTORE PUSH1 0x20 ADD PUSH1 0x5 DUP3 ADD PUSH1 0x14 SWAP1 SLOAD SWAP1 PUSH2 0x100 EXP SWAP1 DIV PUSH1 0xFF AND ISZERO ISZERO ISZERO ISZERO DUP2 MSTORE POP POP SWAP4 POP DUP1 SWAP3 POP PUSH2 0x1CD8 JUMP JUMPDEST DUP1 DUP1 PUSH2 0x1CD0 SWAP1 PUSH2 0x23AC JUMP JUMPDEST SWAP2 POP POP PUSH2 0x1A56 JUMP JUMPDEST POP DUP3 DUP3 SWAP5 POP SWAP5 POP POP POP POP SWAP3 POP SWAP3 SWAP1 POP JUMP JUMPDEST PUSH1 0x0 DUP2 PUSH1 0x0 ADD SLOAD SWAP1 POP PUSH1 0x0 DUP2 GT PUSH2 0x1D35 JUMPI PUSH1 0x40 MLOAD PUSH32 0x8C379A000000000000000000000000000000000000000000000000000000000 DUP2 MSTORE PUSH1 0x4 ADD PUSH2 0x1D2C SWAP1 PUSH2 0x21C3 JUMP JUMPDEST PUSH1 0x40 MLOAD DUP1 SWAP2 SUB SWAP1 REVERT JUMPDEST PUSH1 0x1 DUP2 SUB DUP3 PUSH1 0x0 ADD DUP2 SWAP1 SSTORE POP POP POP JUMP JUMPDEST PUSH1 0x0 DUP2 PUSH1 0x0 ADD SLOAD SWAP1 POP SWAP2 SWAP1 POP JUMP JUMPDEST PUSH1 0x1 DUP2 PUSH1 0x0 ADD PUSH1 0x0 DUP3 DUP3 SLOAD ADD SWAP3 POP POP DUP2 SWAP1 SSTORE POP POP JUMP JUMPDEST PUSH1 0x40 MLOAD DUP1 PUSH1 0xE0 ADD PUSH1 0x40 MSTORE DUP1 PUSH1 0x0 PUSH20 0xFFFFFFFFFFFFFFFFFFFFFFFFFFFFFFFFFFFFFFFF AND DUP2 MSTORE PUSH1 0x20 ADD PUSH1 0x0 DUP2 MSTORE PUSH1 0x20 ADD PUSH1 0x0 DUP2 MSTORE PUSH1 0x20 ADD PUSH1 0x0 PUSH20 0xFFFFFFFFFFFFFFFFFFFFFFFFFFFFFFFFFFFFFFFF AND DUP2 MSTORE PUSH1 0x20 ADD PUSH1 0x0 PUSH20 0xFFFFFFFFFFFFFFFFFFFFFFFFFFFFFFFFFFFFFFFF AND DUP2 MSTORE PUSH1 0x20 ADD PUSH1 0x0 PUSH20 0xFFFFFFFFFFFFFFFFFFFFFFFFFFFFFFFFFFFFFFFF AND DUP2 MSTORE PUSH1 0x20 ADD PUSH1 0x0 ISZERO ISZERO DUP2 MSTORE POP SWAP1 JUMP JUMPDEST PUSH1 0x0 DUP2 CALLDATALOAD SWAP1 POP PUSH2 0x1E0F DUP2 PUSH2 0x25A3 JUMP JUMPDEST SWAP3 SWAP2 POP POP JUMP JUMPDEST PUSH1 0x0 DUP2 CALLDATALOAD SWAP1 POP PUSH2 0x1E24 DUP2 PUSH2 0x25BA JUMP JUMPDEST SWAP3 SWAP2 POP POP JUMP JUMPDEST PUSH1 0x0 DUP1 PUSH1 0x40 DUP4 DUP6 SUB SLT ISZERO PUSH2 0x1E41 JUMPI PUSH2 0x1E40 PUSH2 0x2482 JUMP JUMPDEST JUMPDEST PUSH1 0x0 PUSH2 0x1E4F DUP6 DUP3 DUP7 ADD PUSH2 0x1E00 JUMP JUMPDEST SWAP3 POP POP PUSH1 0x20 PUSH2 0x1E60 DUP6 DUP3 DUP7 ADD PUSH2 0x1E15 JUMP JUMPDEST SWAP2 POP POP SWAP3 POP SWAP3 SWAP1 POP JUMP JUMPDEST PUSH1 0x0 DUP1 PUSH1 0x0 PUSH1 0x60 DUP5 DUP7 SUB SLT ISZERO PUSH2 0x1E83 JUMPI PUSH2 0x1E82 PUSH2 0x2482 JUMP JUMPDEST JUMPDEST PUSH1 0x0 PUSH2 0x1E91 DUP7 DUP3 DUP8 ADD PUSH2 0x1E00 JUMP JUMPDEST SWAP4 POP POP PUSH1 0x20 PUSH2 0x1EA2 DUP7 DUP3 DUP8 ADD PUSH2 0x1E15 JUMP JUMPDEST SWAP3 POP POP PUSH1 0x40 PUSH2 0x1EB3 DUP7 DUP3 DUP8 ADD PUSH2 0x1E15 JUMP JUMPDEST SWAP2 POP POP SWAP3 POP SWAP3 POP SWAP3 JUMP JUMPDEST PUSH1 0x0 PUSH2 0x1EC9 DUP4 DUP4 PUSH2 0x2050 JUMP JUMPDEST PUSH1 0xE0 DUP4 ADD SWAP1 POP SWAP3 SWAP2 POP POP JUMP JUMPDEST PUSH2 0x1EDE DUP2 PUSH2 0x2376 JUMP JUMPDEST DUP3 MSTORE POP POP JUMP JUMPDEST PUSH2 0x1EED DUP2 PUSH2 0x232E JUMP JUMPDEST DUP3 MSTORE POP POP JUMP JUMPDEST PUSH2 0x1EFC DUP2 PUSH2 0x231C JUMP JUMPDEST DUP3 MSTORE POP POP JUMP JUMPDEST PUSH2 0x1F0B DUP2 PUSH2 0x231C JUMP JUMPDEST DUP3 MSTORE POP POP JUMP JUMPDEST PUSH1 0x0 PUSH2 0x1F1C DUP3 PUSH2 0x22AE JUMP JUMPDEST PUSH2 0x1F26 DUP2 DUP6 PUSH2 0x22C6 JUMP JUMPDEST SWAP4 POP PUSH2 0x1F31 DUP4 PUSH2 0x229E JUMP JUMPDEST DUP1 PUSH1 0x0 JUMPDEST DUP4 DUP2 LT ISZERO PUSH2 0x1F62 JUMPI DUP2 MLOAD PUSH2 0x1F49 DUP9 DUP3 PUSH2 0x1EBD JUMP JUMPDEST SWAP8 POP PUSH2 0x1F54 DUP4 PUSH2 0x22B9 JUMP JUMPDEST SWAP3 POP POP PUSH1 0x1 DUP2 ADD SWAP1 POP PUSH2 0x1F35 JUMP JUMPDEST POP DUP6 SWAP4 POP POP POP POP SWAP3 SWAP2 POP POP JUMP JUMPDEST PUSH2 0x1F78 DUP2 PUSH2 0x2340 JUMP JUMPDEST DUP3 MSTORE POP POP JUMP JUMPDEST PUSH1 0x0 PUSH2 0x1F8B PUSH1 0x1B DUP4 PUSH2 0x22D7 JUMP JUMPDEST SWAP2 POP PUSH2 0x1F96 DUP3 PUSH2 0x2487 JUMP JUMPDEST PUSH1 0x20 DUP3 ADD SWAP1 POP SWAP2 SWAP1 POP JUMP JUMPDEST PUSH1 0x0 PUSH2 0x1FAE PUSH1 0x26 DUP4 PUSH2 0x22D7 JUMP JUMPDEST SWAP2 POP PUSH2 0x1FB9 DUP3 PUSH2 0x24B0 JUMP JUMPDEST PUSH1 0x40 DUP3 ADD SWAP1 POP SWAP2 SWAP1 POP JUMP JUMPDEST PUSH1 0x0 PUSH2 0x1FD1 PUSH1 0xD DUP4 PUSH2 0x22D7 JUMP JUMPDEST SWAP2 POP PUSH2 0x1FDC DUP3 PUSH2 0x24FF JUMP JUMPDEST PUSH1 0x20 DUP3 ADD SWAP1 POP SWAP2 SWAP1 POP JUMP JUMPDEST PUSH1 0x0 PUSH2 0x1FF4 PUSH1 0x20 DUP4 PUSH2 0x22D7 JUMP JUMPDEST SWAP2 POP PUSH2 0x1FFF DUP3 PUSH2 0x2528 JUMP JUMPDEST PUSH1 0x20 DUP3 ADD SWAP1 POP SWAP2 SWAP1 POP JUMP JUMPDEST PUSH1 0x0 PUSH2 0x2017 PUSH1 0x1F DUP4 PUSH2 0x22D7 JUMP JUMPDEST SWAP2 POP PUSH2 0x2022 DUP3 PUSH2 0x2551 JUMP JUMPDEST PUSH1 0x20 DUP3 ADD SWAP1 POP SWAP2 SWAP1 POP JUMP JUMPDEST PUSH1 0x0 PUSH2 0x203A PUSH1 0x1C DUP4 PUSH2 0x22D7 JUMP JUMPDEST SWAP2 POP PUSH2 0x2045 DUP3 PUSH2 0x257A JUMP JUMPDEST PUSH1 0x20 DUP3 ADD SWAP1 POP SWAP2 SWAP1 POP JUMP JUMPDEST PUSH1 0xE0 DUP3 ADD PUSH1 0x0 DUP3 ADD MLOAD PUSH2 0x2066 PUSH1 0x0 DUP6 ADD DUP3 PUSH2 0x1EF3 JUMP JUMPDEST POP PUSH1 0x20 DUP3 ADD MLOAD PUSH2 0x2079 PUSH1 0x20 DUP6 ADD DUP3 PUSH2 0x20DE JUMP JUMPDEST POP PUSH1 0x40 DUP3 ADD MLOAD PUSH2 0x208C PUSH1 0x40 DUP6 ADD DUP3 PUSH2 0x20DE JUMP JUMPDEST POP PUSH1 0x60 DUP3 ADD MLOAD PUSH2 0x209F PUSH1 0x60 DUP6 ADD DUP3 PUSH2 0x1EE4 JUMP JUMPDEST POP PUSH1 0x80 DUP3 ADD MLOAD PUSH2 0x20B2 PUSH1 0x80 DUP6 ADD DUP3 PUSH2 0x1EE4 JUMP JUMPDEST POP PUSH1 0xA0 DUP3 ADD MLOAD PUSH2 0x20C5 PUSH1 0xA0 DUP6 ADD DUP3 PUSH2 0x1EE4 JUMP JUMPDEST POP PUSH1 0xC0 DUP3 ADD MLOAD PUSH2 0x20D8 PUSH1 0xC0 DUP6 ADD DUP3 PUSH2 0x1F6F JUMP JUMPDEST POP POP POP POP JUMP JUMPDEST PUSH2 0x20E7 DUP2 PUSH2 0x236C JUMP JUMPDEST DUP3 MSTORE POP POP JUMP JUMPDEST PUSH2 0x20F6 DUP2 PUSH2 0x236C JUMP JUMPDEST DUP3 MSTORE POP POP JUMP JUMPDEST PUSH1 0x0 PUSH1 0x60 DUP3 ADD SWAP1 POP PUSH2 0x2111 PUSH1 0x0 DUP4 ADD DUP7 PUSH2 0x1F02 JUMP JUMPDEST PUSH2 0x211E PUSH1 0x20 DUP4 ADD DUP6 PUSH2 0x1ED5 JUMP JUMPDEST PUSH2 0x212B PUSH1 0x40 DUP4 ADD DUP5 PUSH2 0x20ED JUMP JUMPDEST SWAP5 SWAP4 POP POP POP POP JUMP JUMPDEST PUSH1 0x0 PUSH1 0x60 DUP3 ADD SWAP1 POP PUSH2 0x2148 PUSH1 0x0 DUP4 ADD DUP7 PUSH2 0x1F02 JUMP JUMPDEST PUSH2 0x2155 PUSH1 0x20 DUP4 ADD DUP6 PUSH2 0x1F02 JUMP JUMPDEST PUSH2 0x2162 PUSH1 0x40 DUP4 ADD DUP5 PUSH2 0x20ED JUMP JUMPDEST SWAP5 SWAP4 POP POP POP POP JUMP JUMPDEST PUSH1 0x0 PUSH1 0x60 DUP3 ADD SWAP1 POP PUSH2 0x217F PUSH1 0x0 DUP4 ADD DUP7 PUSH2 0x1F02 JUMP JUMPDEST PUSH2 0x218C PUSH1 0x20 DUP4 ADD DUP6 PUSH2 0x20ED JUMP JUMPDEST PUSH2 0x2199 PUSH1 0x40 DUP4 ADD DUP5 PUSH2 0x20ED JUMP JUMPDEST SWAP5 SWAP4 POP POP POP POP JUMP JUMPDEST PUSH1 0x0 PUSH1 0x20 DUP3 ADD SWAP1 POP DUP2 DUP2 SUB PUSH1 0x0 DUP4 ADD MSTORE PUSH2 0x21BB DUP2 DUP5 PUSH2 0x1F11 JUMP JUMPDEST SWAP1 POP SWAP3 SWAP2 POP POP JUMP JUMPDEST PUSH1 0x0 PUSH1 0x20 DUP3 ADD SWAP1 POP DUP2 DUP2 SUB PUSH1 0x0 DUP4 ADD MSTORE PUSH2 0x21DC DUP2 PUSH2 0x1F7E JUMP JUMPDEST SWAP1 POP SWAP2 SWAP1 POP JUMP JUMPDEST PUSH1 0x0 PUSH1 0x20 DUP3 ADD SWAP1 POP DUP2 DUP2 SUB PUSH1 0x0 DUP4 ADD MSTORE PUSH2 0x21FC DUP2 PUSH2 0x1FA1 JUMP JUMPDEST SWAP1 POP SWAP2 SWAP1 POP JUMP JUMPDEST PUSH1 0x0 PUSH1 0x20 DUP3 ADD SWAP1 POP DUP2 DUP2 SUB PUSH1 0x0 DUP4 ADD MSTORE PUSH2 0x221C DUP2 PUSH2 0x1FC4 JUMP JUMPDEST SWAP1 POP SWAP2 SWAP1 POP JUMP JUMPDEST PUSH1 0x0 PUSH1 0x20 DUP3 ADD SWAP1 POP DUP2 DUP2 SUB PUSH1 0x0 DUP4 ADD MSTORE PUSH2 0x223C DUP2 PUSH2 0x1FE7 JUMP JUMPDEST SWAP1 POP SWAP2 SWAP1 POP JUMP JUMPDEST PUSH1 0x0 PUSH1 0x20 DUP3 ADD SWAP1 POP DUP2 DUP2 SUB PUSH1 0x0 DUP4 ADD MSTORE PUSH2 0x225C DUP2 PUSH2 0x200A JUMP JUMPDEST SWAP1 POP SWAP2 SWAP1 POP JUMP JUMPDEST PUSH1 0x0 PUSH1 0x20 DUP3 ADD SWAP1 POP DUP2 DUP2 SUB PUSH1 0x0 DUP4 ADD MSTORE PUSH2 0x227C DUP2 PUSH2 0x202D JUMP JUMPDEST SWAP1 POP SWAP2 SWAP1 POP JUMP JUMPDEST PUSH1 0x0 PUSH1 0x20 DUP3 ADD SWAP1 POP PUSH2 0x2298 PUSH1 0x0 DUP4 ADD DUP5 PUSH2 0x20ED JUMP JUMPDEST SWAP3 SWAP2 POP POP JUMP JUMPDEST PUSH1 0x0 DUP2 SWAP1 POP PUSH1 0x20 DUP3 ADD SWAP1 POP SWAP2 SWAP1 POP JUMP JUMPDEST PUSH1 0x0 DUP2 MLOAD SWAP1 POP SWAP2 SWAP1 POP JUMP JUMPDEST PUSH1 0x0 PUSH1 0x20 DUP3 ADD SWAP1 POP SWAP2 SWAP1 POP JUMP JUMPDEST PUSH1 0x0 DUP3 DUP3 MSTORE PUSH1 0x20 DUP3 ADD SWAP1 POP SWAP3 SWAP2 POP POP JUMP JUMPDEST PUSH1 0x0 DUP3 DUP3 MSTORE PUSH1 0x20 DUP3 ADD SWAP1 POP SWAP3 SWAP2 POP POP JUMP JUMPDEST PUSH1 0x0 PUSH2 0x22F3 DUP3 PUSH2 0x236C JUMP JUMPDEST SWAP2 POP PUSH2 0x22FE DUP4 PUSH2 0x236C JUMP JUMPDEST SWAP3 POP DUP3 DUP3 LT ISZERO PUSH2 0x2311 JUMPI PUSH2 0x2310 PUSH2 0x23F5 JUMP JUMPDEST JUMPDEST DUP3 DUP3 SUB SWAP1 POP SWAP3 SWAP2 POP POP JUMP JUMPDEST PUSH1 0x0 PUSH2 0x2327 DUP3 PUSH2 0x234C JUMP JUMPDEST SWAP1 POP SWAP2 SWAP1 POP JUMP JUMPDEST PUSH1 0x0 PUSH2 0x2339 DUP3 PUSH2 0x234C JUMP JUMPDEST SWAP1 POP SWAP2 SWAP1 POP JUMP JUMPDEST PUSH1 0x0 DUP2 ISZERO ISZERO SWAP1 POP SWAP2 SWAP1 POP JUMP JUMPDEST PUSH1 0x0 PUSH20 0xFFFFFFFFFFFFFFFFFFFFFFFFFFFFFFFFFFFFFFFF DUP3 AND SWAP1 POP SWAP2 SWAP1 POP JUMP JUMPDEST PUSH1 0x0 DUP2 SWAP1 POP SWAP2 SWAP1 POP JUMP JUMPDEST PUSH1 0x0 PUSH2 0x2381 DUP3 PUSH2 0x2388 JUMP JUMPDEST SWAP1 POP SWAP2 SWAP1 POP JUMP JUMPDEST PUSH1 0x0 PUSH2 0x2393 DUP3 PUSH2 0x239A JUMP JUMPDEST SWAP1 POP SWAP2 SWAP1 POP JUMP JUMPDEST PUSH1 0x0 PUSH2 0x23A5 DUP3 PUSH2 0x234C JUMP JUMPDEST SWAP1 POP SWAP2 SWAP1 POP JUMP JUMPDEST PUSH1 0x0 PUSH2 0x23B7 DUP3 PUSH2 0x236C JUMP JUMPDEST SWAP2 POP PUSH32 0xFFFFFFFFFFFFFFFFFFFFFFFFFFFFFFFFFFFFFFFFFFFFFFFFFFFFFFFFFFFFFFFF DUP3 EQ ISZERO PUSH2 0x23EA JUMPI PUSH2 0x23E9 PUSH2 0x23F5 JUMP JUMPDEST JUMPDEST PUSH1 0x1 DUP3 ADD SWAP1 POP SWAP2 SWAP1 POP JUMP JUMPDEST PUSH32 0x4E487B7100000000000000000000000000000000000000000000000000000000 PUSH1 0x0 MSTORE PUSH1 0x11 PUSH1 0x4 MSTORE PUSH1 0x24 PUSH1 0x0 REVERT JUMPDEST PUSH32 0x4E487B7100000000000000000000000000000000000000000000000000000000 PUSH1 0x0 MSTORE PUSH1 0x32 PUSH1 0x4 MSTORE PUSH1 0x24 PUSH1 0x0 REVERT JUMPDEST PUSH32 0x4E487B7100000000000000000000000000000000000000000000000000000000 PUSH1 0x0 MSTORE PUSH1 0x41 PUSH1 0x4 MSTORE PUSH1 0x24 PUSH1 0x0 REVERT JUMPDEST PUSH1 0x0 DUP1 REVERT JUMPDEST PUSH32 0x436F756E7465723A2064656372656D656E74206F766572666C6F770000000000 PUSH1 0x0 DUP3 ADD MSTORE POP JUMP JUMPDEST PUSH32 0x4E6F7420656E6F75676820657468657220746F20636F7665722061736B696E67 PUSH1 0x0 DUP3 ADD MSTORE PUSH32 0x2070726963650000000000000000000000000000000000000000000000000000 PUSH1 0x20 DUP3 ADD MSTORE POP JUMP JUMPDEST PUSH32 0x4E6674206E6F7420666F756E6400000000000000000000000000000000000000 PUSH1 0x0 DUP3 ADD MSTORE POP JUMP JUMPDEST PUSH32 0x4E6F7420656E6F75676820657468657220666F72206C697374696E6720666565 PUSH1 0x0 DUP3 ADD MSTORE POP JUMP JUMPDEST PUSH32 0x5265656E7472616E637947756172643A207265656E7472616E742063616C6C00 PUSH1 0x0 DUP3 ADD MSTORE POP JUMP JUMPDEST PUSH32 0x5072696365206D757374206265206174206C6561737420312077656900000000 PUSH1 0x0 DUP3 ADD MSTORE POP JUMP JUMPDEST PUSH2 0x25AC DUP2 PUSH2 0x231C JUMP JUMPDEST DUP2 EQ PUSH2 0x25B7 JUMPI PUSH1 0x0 DUP1 REVERT JUMPDEST POP JUMP JUMPDEST PUSH2 0x25C3 DUP2 PUSH2 0x236C JUMP JUMPDEST DUP2 EQ PUSH2 0x25CE JUMPI PUSH1 0x0 DUP1 REVERT JUMPDEST POP JUMP INVALID LOG2 PUSH5 0x6970667358 0x22 SLT KECCAK256 PUSH2 0x2BCC 0x5F CODESIZE STATICCALL PUSH3 0x921D29 DUP1 SWAP6 PUSH1 0x2A 0xA8 0xF8 PUSH29 0xDD6E7B1357F71B8F939702F901491864736F6C63430008070033000000 "
				},
				"gasEstimates": {
					"creation": {
						"codeDepositCost": "1947000",
						"executionCost": "70548",
						"totalCost": "2017548"
					},
					"external": {
						"LISTING_FEE()": "2474",
						"buyNft(address,uint256)": "infinite",
						"getListedNfts()": "infinite",
						"getListingFee()": "2525",
						"getMyCreatedNfts()": "infinite",
						"getMyListedNfts()": "infinite",
						"getMyOwnedNfts()": "infinite",
						"listNFT(address,uint256,uint256)": "infinite",
						"resellNFT(address,uint256,uint256)": "infinite"
					},
					"internal": {
						"getNFT(address,uint256)": "infinite"
					}
				},
				"methodIdentifiers": {
					"LISTING_FEE()": "2b86ae38",
					"buyNft(address,uint256)": "4ddf4f8f",
					"getListedNfts()": "8d6cb3fb",
					"getListingFee()": "b8fe6abe",
					"getMyCreatedNfts()": "8492095a",
					"getMyListedNfts()": "1f4cc4db",
					"getMyOwnedNfts()": "a46b5c5a",
					"listNFT(address,uint256,uint256)": "ad05f1b4",
					"resellNFT(address,uint256,uint256)": "04935694"
				}
			},
			"storageLayout": {
				"storage": [
					{
						"astId": 921,
						"contract": "contracts/GeekNftMarketPlace.sol:GeekNftMarketPlace",
						"label": "_status",
						"offset": 0,
						"slot": "0",
						"type": "t_uint256"
					},
					{
						"astId": 96,
						"contract": "contracts/GeekNftMarketPlace.sol:GeekNftMarketPlace",
						"label": "_nftsSold",
						"offset": 0,
						"slot": "1",
						"type": "t_struct(Counter)5_storage"
					},
					{
						"astId": 99,
						"contract": "contracts/GeekNftMarketPlace.sol:GeekNftMarketPlace",
						"label": "_nftsCount",
						"offset": 0,
						"slot": "2",
						"type": "t_struct(Counter)5_storage"
					},
					{
						"astId": 102,
						"contract": "contracts/GeekNftMarketPlace.sol:GeekNftMarketPlace",
						"label": "LISTING_FEE",
						"offset": 0,
						"slot": "3",
						"type": "t_uint256"
					},
					{
						"astId": 104,
						"contract": "contracts/GeekNftMarketPlace.sol:GeekNftMarketPlace",
						"label": "_marketOwwner",
						"offset": 0,
						"slot": "4",
						"type": "t_address_payable"
					},
					{
						"astId": 108,
						"contract": "contracts/GeekNftMarketPlace.sol:GeekNftMarketPlace",
						"label": "nfts",
						"offset": 0,
						"slot": "5",
						"type": "t_array(t_struct(NFT)123_storage)dyn_storage"
					}
				],
				"types": {
					"t_address": {
						"encoding": "inplace",
						"label": "address",
						"numberOfBytes": "20"
					},
					"t_address_payable": {
						"encoding": "inplace",
						"label": "address payable",
						"numberOfBytes": "20"
					},
					"t_array(t_struct(NFT)123_storage)dyn_storage": {
						"base": "t_struct(NFT)123_storage",
						"encoding": "dynamic_array",
						"label": "struct GeekNftMarketPlace.NFT[]",
						"numberOfBytes": "32"
					},
					"t_bool": {
						"encoding": "inplace",
						"label": "bool",
						"numberOfBytes": "1"
					},
					"t_struct(Counter)5_storage": {
						"encoding": "inplace",
						"label": "struct Counters.Counter",
						"members": [
							{
								"astId": 4,
								"contract": "contracts/GeekNftMarketPlace.sol:GeekNftMarketPlace",
								"label": "_value",
								"offset": 0,
								"slot": "0",
								"type": "t_uint256"
							}
						],
						"numberOfBytes": "32"
					},
					"t_struct(NFT)123_storage": {
						"encoding": "inplace",
						"label": "struct GeekNftMarketPlace.NFT",
						"members": [
							{
								"astId": 110,
								"contract": "contracts/GeekNftMarketPlace.sol:GeekNftMarketPlace",
								"label": "nftContract",
								"offset": 0,
								"slot": "0",
								"type": "t_address"
							},
							{
								"astId": 112,
								"contract": "contracts/GeekNftMarketPlace.sol:GeekNftMarketPlace",
								"label": "tokenId",
								"offset": 0,
								"slot": "1",
								"type": "t_uint256"
							},
							{
								"astId": 114,
								"contract": "contracts/GeekNftMarketPlace.sol:GeekNftMarketPlace",
								"label": "price",
								"offset": 0,
								"slot": "2",
								"type": "t_uint256"
							},
							{
								"astId": 116,
								"contract": "contracts/GeekNftMarketPlace.sol:GeekNftMarketPlace",
								"label": "seller",
								"offset": 0,
								"slot": "3",
								"type": "t_address_payable"
							},
							{
								"astId": 118,
								"contract": "contracts/GeekNftMarketPlace.sol:GeekNftMarketPlace",
								"label": "owner",
								"offset": 0,
								"slot": "4",
								"type": "t_address_payable"
							},
							{
								"astId": 120,
								"contract": "contracts/GeekNftMarketPlace.sol:GeekNftMarketPlace",
								"label": "creator",
								"offset": 0,
								"slot": "5",
								"type": "t_address_payable"
							},
							{
								"astId": 122,
								"contract": "contracts/GeekNftMarketPlace.sol:GeekNftMarketPlace",
								"label": "listed",
								"offset": 20,
								"slot": "5",
								"type": "t_bool"
							}
						],
						"numberOfBytes": "192"
					},
					"t_uint256": {
						"encoding": "inplace",
						"label": "uint256",
						"numberOfBytes": "32"
					}
				}
			},
			"userdoc": {
				"kind": "user",
				"methods": {},
				"version": 1
			}
		}
	}
}