{
	"contracts/GeekNft.sol": {
		"GeekNft": {
			"abi": [
				{
					"inputs": [],
					"stateMutability": "nonpayable",
					"type": "constructor"
				},
				{
					"anonymous": false,
					"inputs": [
						{
							"indexed": true,
							"internalType": "address",
							"name": "_from",
							"type": "address"
						},
						{
							"indexed": true,
							"internalType": "address",
							"name": "_to",
							"type": "address"
						},
						{
							"indexed": false,
							"internalType": "uint256",
							"name": "_tokenId",
							"type": "uint256"
						}
					],
					"name": "Transfer",
					"type": "event"
				},
				{
					"inputs": [
						{
							"internalType": "uint256",
							"name": "_tokenId",
							"type": "uint256"
						}
					],
					"name": "addItemToSell",
					"outputs": [],
					"stateMutability": "payable",
					"type": "function"
				},
				{
					"inputs": [
						{
							"internalType": "address",
							"name": "_owner",
							"type": "address"
						}
					],
					"name": "balanceOf",
					"outputs": [
						{
							"internalType": "uint256",
							"name": "",
							"type": "uint256"
						}
					],
					"stateMutability": "view",
					"type": "function"
				},
				{
					"inputs": [
						{
							"internalType": "uint256",
							"name": "_price",
							"type": "uint256"
						},
						{
							"internalType": "uint256",
							"name": "_catId",
							"type": "uint256"
						}
					],
					"name": "createItem",
					"outputs": [
						{
							"internalType": "uint256",
							"name": "",
							"type": "uint256"
						}
					],
					"stateMutability": "payable",
					"type": "function"
				},
				{
					"inputs": [],
					"name": "fetchItemsByOwner",
					"outputs": [
						{
							"components": [
								{
									"internalType": "uint256",
									"name": "tokenId",
									"type": "uint256"
								},
								{
									"internalType": "uint256",
									"name": "price",
									"type": "uint256"
								},
								{
									"internalType": "uint256",
									"name": "catId",
									"type": "uint256"
								},
								{
									"internalType": "bool",
									"name": "toSell",
									"type": "bool"
								},
								{
									"internalType": "address",
									"name": "creator",
									"type": "address"
								}
							],
							"internalType": "struct GeekNft.Item[]",
							"name": "",
							"type": "tuple[]"
						}
					],
					"stateMutability": "view",
					"type": "function"
				},
				{
					"inputs": [],
					"name": "fetchItemsToSell",
					"outputs": [
						{
							"components": [
								{
									"internalType": "uint256",
									"name": "tokenId",
									"type": "uint256"
								},
								{
									"internalType": "uint256",
									"name": "price",
									"type": "uint256"
								},
								{
									"internalType": "uint256",
									"name": "catId",
									"type": "uint256"
								},
								{
									"internalType": "bool",
									"name": "toSell",
									"type": "bool"
								},
								{
									"internalType": "address",
									"name": "creator",
									"type": "address"
								}
							],
							"internalType": "struct GeekNft.Item[]",
							"name": "",
							"type": "tuple[]"
						}
					],
					"stateMutability": "view",
					"type": "function"
				},
				{
					"inputs": [
						{
							"internalType": "uint256",
							"name": "_catId",
							"type": "uint256"
						}
					],
					"name": "fetchItemsToSellByCatId",
					"outputs": [
						{
							"components": [
								{
									"internalType": "uint256",
									"name": "tokenId",
									"type": "uint256"
								},
								{
									"internalType": "uint256",
									"name": "price",
									"type": "uint256"
								},
								{
									"internalType": "uint256",
									"name": "catId",
									"type": "uint256"
								},
								{
									"internalType": "bool",
									"name": "toSell",
									"type": "bool"
								},
								{
									"internalType": "address",
									"name": "creator",
									"type": "address"
								}
							],
							"internalType": "struct GeekNft.Item[]",
							"name": "",
							"type": "tuple[]"
						}
					],
					"stateMutability": "view",
					"type": "function"
				},
				{
					"inputs": [],
					"name": "getCreateItemFees",
					"outputs": [
						{
							"internalType": "uint256",
							"name": "",
							"type": "uint256"
						}
					],
					"stateMutability": "view",
					"type": "function"
				},
				{
					"inputs": [],
					"name": "getCreatorPercentage",
					"outputs": [
						{
							"internalType": "uint256",
							"name": "",
							"type": "uint256"
						}
					],
					"stateMutability": "view",
					"type": "function"
				},
				{
					"inputs": [
						{
							"internalType": "uint256",
							"name": "_tokenId",
							"type": "uint256"
						}
					],
					"name": "ownerOf",
					"outputs": [
						{
							"internalType": "address",
							"name": "",
							"type": "address"
						}
					],
					"stateMutability": "view",
					"type": "function"
				},
				{
					"inputs": [
						{
							"internalType": "uint256",
							"name": "_tokenId",
							"type": "uint256"
						}
					],
					"name": "removeItemToSell",
					"outputs": [],
					"stateMutability": "nonpayable",
					"type": "function"
				},
				{
					"inputs": [
						{
							"internalType": "uint256",
							"name": "_tokenId",
							"type": "uint256"
						}
					],
					"name": "sellItem",
					"outputs": [],
					"stateMutability": "payable",
					"type": "function"
				},
				{
					"inputs": [
						{
							"internalType": "uint256",
							"name": "_newFees",
							"type": "uint256"
						}
					],
					"name": "updateCreateItemFees",
					"outputs": [],
					"stateMutability": "nonpayable",
					"type": "function"
				},
				{
					"inputs": [
						{
							"internalType": "uint256",
							"name": "_newPercentage",
							"type": "uint256"
						}
					],
					"name": "updateCreatorPercentage",
					"outputs": [],
					"stateMutability": "nonpayable",
					"type": "function"
				}
			],
			"devdoc": {
				"kind": "dev",
				"methods": {},
				"version": 1
			},
			"evm": {
				"assembly": "    /* \"contracts/GeekNft.sol\":56:5711  contract GeekNft {... */\n  mstore(0x40, 0x80)\n    /* \"contracts/GeekNft.sol\":413:426  0.00025 ether */\n  0xe35fa931a000\n    /* \"contracts/GeekNft.sol\":391:426  uint createItemFees = 0.00025 ether */\n  0x05\n  sstore\n    /* \"contracts/GeekNft.sol\":457:458  5 */\n  0x05\n    /* \"contracts/GeekNft.sol\":432:458  uint creatorPercentage = 5 */\n  0x06\n  sstore\n    /* \"contracts/GeekNft.sol\":596:701  constructor() {... */\n  callvalue\n  dup1\n  iszero\n  tag_1\n  jumpi\n  0x00\n  dup1\n  revert\ntag_1:\n  pop\n    /* \"contracts/GeekNft.sol\":628:638  msg.sender */\n  caller\n    /* \"contracts/GeekNft.sol\":620:625  owner */\n  0x02\n  0x00\n    /* \"contracts/GeekNft.sol\":620:638  owner = msg.sender */\n  0x0100\n  exp\n  dup2\n  sload\n  dup2\n  0xffffffffffffffffffffffffffffffffffffffff\n  mul\n  not\n  and\n  swap1\n  dup4\n  0xffffffffffffffffffffffffffffffffffffffff\n  and\n  mul\n  or\n  swap1\n  sstore\n  pop\n    /* \"contracts/GeekNft.sol\":648:668  name = \"Geek Tokens\" */\n  mload(0x40)\n  dup1\n  0x40\n  add\n  0x40\n  mstore\n  dup1\n  0x0b\n  dup2\n  mstore\n  0x20\n  add\n  0x4765656b20546f6b656e73000000000000000000000000000000000000000000\n  dup2\n  mstore\n  pop\n    /* \"contracts/GeekNft.sol\":648:652  name */\n  0x00\n    /* \"contracts/GeekNft.sol\":648:668  name = \"Geek Tokens\" */\n  swap1\n  dup1\n  mload\n  swap1\n  0x20\n  add\n  swap1\n  tag_4\n  swap3\n  swap2\n  swap1\n  tag_5\n  jump\t// in\ntag_4:\n  pop\n    /* \"contracts/GeekNft.sol\":678:694  symbol = \"GEEKT\" */\n  mload(0x40)\n  dup1\n  0x40\n  add\n  0x40\n  mstore\n  dup1\n  0x05\n  dup2\n  mstore\n  0x20\n  add\n  0x4745454b54000000000000000000000000000000000000000000000000000000\n  dup2\n  mstore\n  pop\n    /* \"contracts/GeekNft.sol\":678:684  symbol */\n  0x01\n    /* \"contracts/GeekNft.sol\":678:694  symbol = \"GEEKT\" */\n  swap1\n  dup1\n  mload\n  swap1\n  0x20\n  add\n  swap1\n  tag_6\n  swap3\n  swap2\n  swap1\n  tag_5\n  jump\t// in\ntag_6:\n  pop\n    /* \"contracts/GeekNft.sol\":56:5711  contract GeekNft {... */\n  jump(tag_7)\ntag_5:\n  dup3\n  dup1\n  sload\n  tag_8\n  swap1\n  tag_9\n  jump\t// in\ntag_8:\n  swap1\n  0x00\n  mstore\n  keccak256(0x00, 0x20)\n  swap1\n  0x1f\n  add\n  0x20\n  swap1\n  div\n  dup2\n  add\n  swap3\n  dup3\n  tag_11\n  jumpi\n  0x00\n  dup6\n  sstore\n  jump(tag_10)\ntag_11:\n  dup3\n  0x1f\n  lt\n  tag_12\n  jumpi\n  dup1\n  mload\n  not(0xff)\n  and\n  dup4\n  dup1\n  add\n  or\n  dup6\n  sstore\n  jump(tag_10)\ntag_12:\n  dup3\n  dup1\n  add\n  0x01\n  add\n  dup6\n  sstore\n  dup3\n  iszero\n  tag_10\n  jumpi\n  swap2\n  dup3\n  add\ntag_13:\n  dup3\n  dup2\n  gt\n  iszero\n  tag_14\n  jumpi\n  dup3\n  mload\n  dup3\n  sstore\n  swap2\n  0x20\n  add\n  swap2\n  swap1\n  0x01\n  add\n  swap1\n  jump(tag_13)\ntag_14:\ntag_10:\n  pop\n  swap1\n  pop\n  tag_15\n  swap2\n  swap1\n  tag_16\n  jump\t// in\ntag_15:\n  pop\n  swap1\n  jump\t// out\ntag_16:\ntag_17:\n  dup1\n  dup3\n  gt\n  iszero\n  tag_18\n  jumpi\n  0x00\n  dup2\n  0x00\n  swap1\n  sstore\n  pop\n  0x01\n  add\n  jump(tag_17)\ntag_18:\n  pop\n  swap1\n  jump\t// out\n    /* \"#utility.yul\":7:327   */\ntag_9:\n  0x00\n    /* \"#utility.yul\":88:89   */\n  0x02\n    /* \"#utility.yul\":82:86   */\n  dup3\n    /* \"#utility.yul\":78:90   */\n  div\n    /* \"#utility.yul\":68:90   */\n  swap1\n  pop\n    /* \"#utility.yul\":135:136   */\n  0x01\n    /* \"#utility.yul\":129:133   */\n  dup3\n    /* \"#utility.yul\":125:137   */\n  and\n    /* \"#utility.yul\":156:174   */\n  dup1\n    /* \"#utility.yul\":146:148   */\n  tag_21\n  jumpi\n    /* \"#utility.yul\":212:216   */\n  0x7f\n    /* \"#utility.yul\":204:210   */\n  dup3\n    /* \"#utility.yul\":200:217   */\n  and\n    /* \"#utility.yul\":190:217   */\n  swap2\n  pop\n    /* \"#utility.yul\":146:148   */\ntag_21:\n    /* \"#utility.yul\":274:276   */\n  0x20\n    /* \"#utility.yul\":266:272   */\n  dup3\n    /* \"#utility.yul\":263:277   */\n  lt\n    /* \"#utility.yul\":243:261   */\n  dup2\n    /* \"#utility.yul\":240:278   */\n  eq\n    /* \"#utility.yul\":237:239   */\n  iszero\n  tag_22\n  jumpi\n    /* \"#utility.yul\":293:311   */\n  tag_23\n  tag_24\n  jump\t// in\ntag_23:\n    /* \"#utility.yul\":237:239   */\ntag_22:\n    /* \"#utility.yul\":58:327   */\n  pop\n  swap2\n  swap1\n  pop\n  jump\t// out\n    /* \"#utility.yul\":333:513   */\ntag_24:\n    /* \"#utility.yul\":381:458   */\n  0x4e487b7100000000000000000000000000000000000000000000000000000000\n    /* \"#utility.yul\":378:379   */\n  0x00\n    /* \"#utility.yul\":371:459   */\n  mstore\n    /* \"#utility.yul\":478:482   */\n  0x22\n    /* \"#utility.yul\":475:476   */\n  0x04\n    /* \"#utility.yul\":468:483   */\n  mstore\n    /* \"#utility.yul\":502:506   */\n  0x24\n    /* \"#utility.yul\":499:500   */\n  0x00\n    /* \"#utility.yul\":492:507   */\n  revert\n    /* \"contracts/GeekNft.sol\":56:5711  contract GeekNft {... */\ntag_7:\n  dataSize(sub_0)\n  dup1\n  dataOffset(sub_0)\n  0x00\n  codecopy\n  0x00\n  return\nstop\n\nsub_0: assembly {\n        /* \"contracts/GeekNft.sol\":56:5711  contract GeekNft {... */\n      mstore(0x40, 0x80)\n      jumpi(tag_1, lt(calldatasize, 0x04))\n      shr(0xe0, calldataload(0x00))\n      dup1\n      0x70a08231\n      gt\n      tag_15\n      jumpi\n      dup1\n      0xa4964c33\n      gt\n      tag_16\n      jumpi\n      dup1\n      0xa4964c33\n      eq\n      tag_11\n      jumpi\n      dup1\n      0xadae08dd\n      eq\n      tag_12\n      jumpi\n      dup1\n      0xc0f202ef\n      eq\n      tag_13\n      jumpi\n      dup1\n      0xe6e95ea7\n      eq\n      tag_14\n      jumpi\n      jump(tag_1)\n    tag_16:\n      dup1\n      0x70a08231\n      eq\n      tag_8\n      jumpi\n      dup1\n      0x91b6be9a\n      eq\n      tag_9\n      jumpi\n      dup1\n      0xa411d68d\n      eq\n      tag_10\n      jumpi\n      jump(tag_1)\n    tag_15:\n      dup1\n      0x073e74df\n      eq\n      tag_2\n      jumpi\n      dup1\n      0x160035b1\n      eq\n      tag_3\n      jumpi\n      dup1\n      0x1b03427c\n      eq\n      tag_4\n      jumpi\n      dup1\n      0x406693b2\n      eq\n      tag_5\n      jumpi\n      dup1\n      0x4cad2ffc\n      eq\n      tag_6\n      jumpi\n      dup1\n      0x6352211e\n      eq\n      tag_7\n      jumpi\n    tag_1:\n      0x00\n      dup1\n      revert\n        /* \"contracts/GeekNft.sol\":4232:4599  function fetchItemsToSell() public view returns (Item[] memory){... */\n    tag_2:\n      callvalue\n      dup1\n      iszero\n      tag_17\n      jumpi\n      0x00\n      dup1\n      revert\n    tag_17:\n      pop\n      tag_18\n      tag_19\n      jump\t// in\n    tag_18:\n      mload(0x40)\n      tag_20\n      swap2\n      swap1\n      tag_21\n      jump\t// in\n    tag_20:\n      mload(0x40)\n      dup1\n      swap2\n      sub\n      swap1\n      return\n        /* \"contracts/GeekNft.sol\":1481:1581  function getCreatorPercentage() public view returns (uint) {... */\n    tag_3:\n      callvalue\n      dup1\n      iszero\n      tag_22\n      jumpi\n      0x00\n      dup1\n      revert\n    tag_22:\n      pop\n      tag_23\n      tag_24\n      jump\t// in\n    tag_23:\n      mload(0x40)\n      tag_25\n      swap2\n      swap1\n      tag_26\n      jump\t// in\n    tag_25:\n      mload(0x40)\n      dup1\n      swap2\n      sub\n      swap1\n      return\n        /* \"contracts/GeekNft.sol\":1346:1475  function updateCreatorPercentage(uint _newPercentage) public onlyContractOwner{... */\n    tag_4:\n      callvalue\n      dup1\n      iszero\n      tag_27\n      jumpi\n      0x00\n      dup1\n      revert\n    tag_27:\n      pop\n      tag_28\n      0x04\n      dup1\n      calldatasize\n      sub\n      dup2\n      add\n      swap1\n      tag_29\n      swap2\n      swap1\n      tag_30\n      jump\t// in\n    tag_29:\n      tag_31\n      jump\t// in\n    tag_28:\n      stop\n        /* \"contracts/GeekNft.sol\":4995:5415  function fetchItemsToSellByCatId(uint _catId) public view returns (Item[] memory){... */\n    tag_5:\n      callvalue\n      dup1\n      iszero\n      tag_32\n      jumpi\n      0x00\n      dup1\n      revert\n    tag_32:\n      pop\n      tag_33\n      0x04\n      dup1\n      calldatasize\n      sub\n      dup2\n      add\n      swap1\n      tag_34\n      swap2\n      swap1\n      tag_30\n      jump\t// in\n    tag_34:\n      tag_35\n      jump\t// in\n    tag_33:\n      mload(0x40)\n      tag_36\n      swap2\n      swap1\n      tag_21\n      jump\t// in\n    tag_36:\n      mload(0x40)\n      dup1\n      swap2\n      sub\n      swap1\n      return\n        /* \"contracts/GeekNft.sol\":4605:4989  function fetchItemsByOwner() public view returns (Item[] memory){... */\n    tag_6:\n      callvalue\n      dup1\n      iszero\n      tag_37\n      jumpi\n      0x00\n      dup1\n      revert\n    tag_37:\n      pop\n      tag_38\n      tag_39\n      jump\t// in\n    tag_38:\n      mload(0x40)\n      tag_40\n      swap2\n      swap1\n      tag_21\n      jump\t// in\n    tag_40:\n      mload(0x40)\n      dup1\n      swap2\n      sub\n      swap1\n      return\n        /* \"contracts/GeekNft.sol\":3326:3432  function ownerOf(uint _tokenId) public view returns (address){... */\n    tag_7:\n      callvalue\n      dup1\n      iszero\n      tag_41\n      jumpi\n      0x00\n      dup1\n      revert\n    tag_41:\n      pop\n      tag_42\n      0x04\n      dup1\n      calldatasize\n      sub\n      dup2\n      add\n      swap1\n      tag_43\n      swap2\n      swap1\n      tag_30\n      jump\t// in\n    tag_43:\n      tag_44\n      jump\t// in\n    tag_42:\n      mload(0x40)\n      tag_45\n      swap2\n      swap1\n      tag_46\n      jump\t// in\n    tag_45:\n      mload(0x40)\n      dup1\n      swap2\n      sub\n      swap1\n      return\n        /* \"contracts/GeekNft.sol\":3438:3546  function balanceOf(address _owner) public view returns (uint){... */\n    tag_8:\n      callvalue\n      dup1\n      iszero\n      tag_47\n      jumpi\n      0x00\n      dup1\n      revert\n    tag_47:\n      pop\n      tag_48\n      0x04\n      dup1\n      calldatasize\n      sub\n      dup2\n      add\n      swap1\n      tag_49\n      swap2\n      swap1\n      tag_50\n      jump\t// in\n    tag_49:\n      tag_51\n      jump\t// in\n    tag_48:\n      mload(0x40)\n      tag_52\n      swap2\n      swap1\n      tag_26\n      jump\t// in\n    tag_52:\n      mload(0x40)\n      dup1\n      swap2\n      sub\n      swap1\n      return\n        /* \"contracts/GeekNft.sol\":2220:3320  function sellItem(uint _tokenId) public payable{... */\n    tag_9:\n      tag_53\n      0x04\n      dup1\n      calldatasize\n      sub\n      dup2\n      add\n      swap1\n      tag_54\n      swap2\n      swap1\n      tag_30\n      jump\t// in\n    tag_54:\n      tag_55\n      jump\t// in\n    tag_53:\n      stop\n        /* \"contracts/GeekNft.sol\":1246:1340  function getCreateItemFees() public view returns (uint) {... */\n    tag_10:\n      callvalue\n      dup1\n      iszero\n      tag_56\n      jumpi\n      0x00\n      dup1\n      revert\n    tag_56:\n      pop\n      tag_57\n      tag_58\n      jump\t// in\n    tag_57:\n      mload(0x40)\n      tag_59\n      swap2\n      swap1\n      tag_26\n      jump\t// in\n    tag_59:\n      mload(0x40)\n      dup1\n      swap2\n      sub\n      swap1\n      return\n        /* \"contracts/GeekNft.sol\":3552:3881  function removeItemToSell(uint _tokenId) public onlyItemOwner(_tokenId) {... */\n    tag_11:\n      callvalue\n      dup1\n      iszero\n      tag_60\n      jumpi\n      0x00\n      dup1\n      revert\n    tag_60:\n      pop\n      tag_61\n      0x04\n      dup1\n      calldatasize\n      sub\n      dup2\n      add\n      swap1\n      tag_62\n      swap2\n      swap1\n      tag_30\n      jump\t// in\n    tag_62:\n      tag_63\n      jump\t// in\n    tag_61:\n      stop\n        /* \"contracts/GeekNft.sol\":1587:2214  function createItem(uint _price, uint _catId) public payable sendCorrectFeesValue(msg.value) returns (uint){... */\n    tag_12:\n      tag_64\n      0x04\n      dup1\n      calldatasize\n      sub\n      dup2\n      add\n      swap1\n      tag_65\n      swap2\n      swap1\n      tag_66\n      jump\t// in\n    tag_65:\n      tag_67\n      jump\t// in\n    tag_64:\n      mload(0x40)\n      tag_68\n      swap2\n      swap1\n      tag_26\n      jump\t// in\n    tag_68:\n      mload(0x40)\n      dup1\n      swap2\n      sub\n      swap1\n      return\n        /* \"contracts/GeekNft.sol\":3887:4226  function addItemToSell(uint _tokenId) public payable onlyItemOwner(_tokenId) {... */\n    tag_13:\n      tag_69\n      0x04\n      dup1\n      calldatasize\n      sub\n      dup2\n      add\n      swap1\n      tag_70\n      swap2\n      swap1\n      tag_30\n      jump\t// in\n    tag_70:\n      tag_71\n      jump\t// in\n    tag_69:\n      stop\n        /* \"contracts/GeekNft.sol\":1129:1240  function updateCreateItemFees(uint _newFees) public onlyContractOwner{... */\n    tag_14:\n      callvalue\n      dup1\n      iszero\n      tag_72\n      jumpi\n      0x00\n      dup1\n      revert\n    tag_72:\n      pop\n      tag_73\n      0x04\n      dup1\n      calldatasize\n      sub\n      dup2\n      add\n      swap1\n      tag_74\n      swap2\n      swap1\n      tag_30\n      jump\t// in\n    tag_74:\n      tag_75\n      jump\t// in\n    tag_73:\n      stop\n        /* \"contracts/GeekNft.sol\":4232:4599  function fetchItemsToSell() public view returns (Item[] memory){... */\n    tag_19:\n        /* \"contracts/GeekNft.sol\":4281:4294  Item[] memory */\n      0x60\n        /* \"contracts/GeekNft.sol\":4305:4317  uint counter */\n      0x00\n        /* \"contracts/GeekNft.sol\":4331:4351  Item[] memory result */\n      dup1\n        /* \"contracts/GeekNft.sol\":4365:4381  itemsToSellCount */\n      sload(0x04)\n        /* \"contracts/GeekNft.sol\":4354:4382  new Item[](itemsToSellCount) */\n      0xffffffffffffffff\n      dup2\n      gt\n      iszero\n      tag_77\n      jumpi\n      mstore(0x00, 0x4e487b7100000000000000000000000000000000000000000000000000000000)\n      mstore(0x04, 0x41)\n      revert(0x00, 0x24)\n    tag_77:\n      mload(0x40)\n      swap1\n      dup1\n      dup3\n      mstore\n      dup1\n      0x20\n      mul\n      0x20\n      add\n      dup3\n      add\n      0x40\n      mstore\n      dup1\n      iszero\n      tag_78\n      jumpi\n      dup2\n      0x20\n      add\n    tag_79:\n      tag_80\n      tag_81\n      jump\t// in\n    tag_80:\n      dup2\n      mstore\n      0x20\n      add\n      swap1\n      0x01\n      swap1\n      sub\n      swap1\n      dup2\n      tag_79\n      jumpi\n      swap1\n      pop\n    tag_78:\n      pop\n        /* \"contracts/GeekNft.sol\":4331:4382  Item[] memory result = new Item[](itemsToSellCount) */\n      swap1\n      pop\n        /* \"contracts/GeekNft.sol\":4397:4403  uint i */\n      0x00\n        /* \"contracts/GeekNft.sol\":4393:4569  for(uint i = 0; i < items.length; i++) {... */\n    tag_82:\n        /* \"contracts/GeekNft.sol\":4413:4418  items */\n      0x03\n        /* \"contracts/GeekNft.sol\":4413:4425  items.length */\n      dup1\n      sload\n      swap1\n      pop\n        /* \"contracts/GeekNft.sol\":4409:4410  i */\n      dup2\n        /* \"contracts/GeekNft.sol\":4409:4425  i < items.length */\n      lt\n        /* \"contracts/GeekNft.sol\":4393:4569  for(uint i = 0; i < items.length; i++) {... */\n      iszero\n      tag_83\n      jumpi\n        /* \"contracts/GeekNft.sol\":4468:4472  true */\n      0x01\n        /* \"contracts/GeekNft.sol\":4449:4472  items[i].toSell == true */\n      iszero\n      iszero\n        /* \"contracts/GeekNft.sol\":4449:4454  items */\n      0x03\n        /* \"contracts/GeekNft.sol\":4455:4456  i */\n      dup3\n        /* \"contracts/GeekNft.sol\":4449:4457  items[i] */\n      dup2\n      sload\n      dup2\n      lt\n      tag_85\n      jumpi\n      mstore(0x00, 0x4e487b7100000000000000000000000000000000000000000000000000000000)\n      mstore(0x04, 0x32)\n      revert(0x00, 0x24)\n    tag_85:\n      swap1\n      0x00\n      mstore\n      keccak256(0x00, 0x20)\n      swap1\n      0x04\n      mul\n      add\n        /* \"contracts/GeekNft.sol\":4449:4464  items[i].toSell */\n      0x03\n      add\n      0x00\n      swap1\n      sload\n      swap1\n      0x0100\n      exp\n      swap1\n      div\n      0xff\n      and\n        /* \"contracts/GeekNft.sol\":4449:4472  items[i].toSell == true */\n      iszero\n      iszero\n      eq\n        /* \"contracts/GeekNft.sol\":4446:4559  if(items[i].toSell == true){... */\n      iszero\n      tag_87\n      jumpi\n        /* \"contracts/GeekNft.sol\":4509:4514  items */\n      0x03\n        /* \"contracts/GeekNft.sol\":4515:4516  i */\n      dup2\n        /* \"contracts/GeekNft.sol\":4509:4517  items[i] */\n      dup2\n      sload\n      dup2\n      lt\n      tag_88\n      jumpi\n      mstore(0x00, 0x4e487b7100000000000000000000000000000000000000000000000000000000)\n      mstore(0x04, 0x32)\n      revert(0x00, 0x24)\n    tag_88:\n      swap1\n      0x00\n      mstore\n      keccak256(0x00, 0x20)\n      swap1\n      0x04\n      mul\n      add\n        /* \"contracts/GeekNft.sol\":4491:4517  result[counter] = items[i] */\n      mload(0x40)\n      dup1\n      0xa0\n      add\n      0x40\n      mstore\n      swap1\n      dup2\n      0x00\n      dup3\n      add\n      sload\n      dup2\n      mstore\n      0x20\n      add\n      0x01\n      dup3\n      add\n      sload\n      dup2\n      mstore\n      0x20\n      add\n      0x02\n      dup3\n      add\n      sload\n      dup2\n      mstore\n      0x20\n      add\n      0x03\n      dup3\n      add\n      0x00\n      swap1\n      sload\n      swap1\n      0x0100\n      exp\n      swap1\n      div\n      0xff\n      and\n      iszero\n      iszero\n      iszero\n      iszero\n      dup2\n      mstore\n      0x20\n      add\n      0x03\n      dup3\n      add\n      0x01\n      swap1\n      sload\n      swap1\n      0x0100\n      exp\n      swap1\n      div\n      0xffffffffffffffffffffffffffffffffffffffff\n      and\n      0xffffffffffffffffffffffffffffffffffffffff\n      and\n      0xffffffffffffffffffffffffffffffffffffffff\n      and\n      dup2\n      mstore\n      pop\n      pop\n        /* \"contracts/GeekNft.sol\":4491:4497  result */\n      dup3\n        /* \"contracts/GeekNft.sol\":4498:4505  counter */\n      dup5\n        /* \"contracts/GeekNft.sol\":4491:4506  result[counter] */\n      dup2\n      mload\n      dup2\n      lt\n      tag_90\n      jumpi\n      mstore(0x00, 0x4e487b7100000000000000000000000000000000000000000000000000000000)\n      mstore(0x04, 0x32)\n      revert(0x00, 0x24)\n    tag_90:\n      0x20\n      mul\n      0x20\n      add\n      add\n        /* \"contracts/GeekNft.sol\":4491:4517  result[counter] = items[i] */\n      dup2\n      swap1\n      mstore\n      pop\n        /* \"contracts/GeekNft.sol\":4535:4544  counter++ */\n      dup3\n      dup1\n      tag_91\n      swap1\n      tag_92\n      jump\t// in\n    tag_91:\n      swap4\n      pop\n      pop\n        /* \"contracts/GeekNft.sol\":4446:4559  if(items[i].toSell == true){... */\n    tag_87:\n        /* \"contracts/GeekNft.sol\":4427:4430  i++ */\n      dup1\n      dup1\n      tag_93\n      swap1\n      tag_92\n      jump\t// in\n    tag_93:\n      swap2\n      pop\n      pop\n        /* \"contracts/GeekNft.sol\":4393:4569  for(uint i = 0; i < items.length; i++) {... */\n      jump(tag_82)\n    tag_83:\n      pop\n        /* \"contracts/GeekNft.sol\":4586:4592  result */\n      dup1\n        /* \"contracts/GeekNft.sol\":4579:4592  return result */\n      swap3\n      pop\n      pop\n      pop\n        /* \"contracts/GeekNft.sol\":4232:4599  function fetchItemsToSell() public view returns (Item[] memory){... */\n      swap1\n      jump\t// out\n        /* \"contracts/GeekNft.sol\":1481:1581  function getCreatorPercentage() public view returns (uint) {... */\n    tag_24:\n        /* \"contracts/GeekNft.sol\":1534:1538  uint */\n      0x00\n        /* \"contracts/GeekNft.sol\":1557:1574  creatorPercentage */\n      sload(0x06)\n        /* \"contracts/GeekNft.sol\":1550:1574  return creatorPercentage */\n      swap1\n      pop\n        /* \"contracts/GeekNft.sol\":1481:1581  function getCreatorPercentage() public view returns (uint) {... */\n      swap1\n      jump\t// out\n        /* \"contracts/GeekNft.sol\":1346:1475  function updateCreatorPercentage(uint _newPercentage) public onlyContractOwner{... */\n    tag_31:\n        /* \"contracts/GeekNft.sol\":768:773  owner */\n      0x02\n      0x00\n      swap1\n      sload\n      swap1\n      0x0100\n      exp\n      swap1\n      div\n      0xffffffffffffffffffffffffffffffffffffffff\n      and\n        /* \"contracts/GeekNft.sol\":754:773  msg.sender == owner */\n      0xffffffffffffffffffffffffffffffffffffffff\n      and\n        /* \"contracts/GeekNft.sol\":754:764  msg.sender */\n      caller\n        /* \"contracts/GeekNft.sol\":754:773  msg.sender == owner */\n      0xffffffffffffffffffffffffffffffffffffffff\n      and\n      eq\n        /* \"contracts/GeekNft.sol\":746:811  require(msg.sender == owner, \"Only contract's owner can do that\") */\n      tag_96\n      jumpi\n      mload(0x40)\n      0x08c379a000000000000000000000000000000000000000000000000000000000\n      dup2\n      mstore\n      0x04\n      add\n      tag_97\n      swap1\n      tag_98\n      jump\t// in\n    tag_97:\n      mload(0x40)\n      dup1\n      swap2\n      sub\n      swap1\n      revert\n    tag_96:\n        /* \"contracts/GeekNft.sol\":1454:1468  _newPercentage */\n      dup1\n        /* \"contracts/GeekNft.sol\":1434:1451  creatorPercentage */\n      0x06\n        /* \"contracts/GeekNft.sol\":1434:1468  creatorPercentage = _newPercentage */\n      dup2\n      swap1\n      sstore\n      pop\n        /* \"contracts/GeekNft.sol\":1346:1475  function updateCreatorPercentage(uint _newPercentage) public onlyContractOwner{... */\n      pop\n      jump\t// out\n        /* \"contracts/GeekNft.sol\":4995:5415  function fetchItemsToSellByCatId(uint _catId) public view returns (Item[] memory){... */\n    tag_35:\n        /* \"contracts/GeekNft.sol\":5062:5075  Item[] memory */\n      0x60\n        /* \"contracts/GeekNft.sol\":5086:5098  uint counter */\n      0x00\n        /* \"contracts/GeekNft.sol\":5112:5132  Item[] memory result */\n      dup1\n        /* \"contracts/GeekNft.sol\":5146:5161  itemsCatIdCount */\n      0x09\n        /* \"contracts/GeekNft.sol\":5146:5169  itemsCatIdCount[_catId] */\n      0x00\n        /* \"contracts/GeekNft.sol\":5162:5168  _catId */\n      dup6\n        /* \"contracts/GeekNft.sol\":5146:5169  itemsCatIdCount[_catId] */\n      dup2\n      mstore\n      0x20\n      add\n      swap1\n      dup2\n      mstore\n      0x20\n      add\n      0x00\n      keccak256\n      sload\n        /* \"contracts/GeekNft.sol\":5135:5170  new Item[](itemsCatIdCount[_catId]) */\n      0xffffffffffffffff\n      dup2\n      gt\n      iszero\n      tag_101\n      jumpi\n      mstore(0x00, 0x4e487b7100000000000000000000000000000000000000000000000000000000)\n      mstore(0x04, 0x41)\n      revert(0x00, 0x24)\n    tag_101:\n      mload(0x40)\n      swap1\n      dup1\n      dup3\n      mstore\n      dup1\n      0x20\n      mul\n      0x20\n      add\n      dup3\n      add\n      0x40\n      mstore\n      dup1\n      iszero\n      tag_102\n      jumpi\n      dup2\n      0x20\n      add\n    tag_103:\n      tag_104\n      tag_81\n      jump\t// in\n    tag_104:\n      dup2\n      mstore\n      0x20\n      add\n      swap1\n      0x01\n      swap1\n      sub\n      swap1\n      dup2\n      tag_103\n      jumpi\n      swap1\n      pop\n    tag_102:\n      pop\n        /* \"contracts/GeekNft.sol\":5112:5170  Item[] memory result = new Item[](itemsCatIdCount[_catId]) */\n      swap1\n      pop\n        /* \"contracts/GeekNft.sol\":5185:5191  uint i */\n      0x00\n        /* \"contracts/GeekNft.sol\":5181:5385  for(uint i = 0; i < items.length; i++) {... */\n    tag_105:\n        /* \"contracts/GeekNft.sol\":5201:5206  items */\n      0x03\n        /* \"contracts/GeekNft.sol\":5201:5213  items.length */\n      dup1\n      sload\n      swap1\n      pop\n        /* \"contracts/GeekNft.sol\":5197:5198  i */\n      dup2\n        /* \"contracts/GeekNft.sol\":5197:5213  i < items.length */\n      lt\n        /* \"contracts/GeekNft.sol\":5181:5385  for(uint i = 0; i < items.length; i++) {... */\n      iszero\n      tag_106\n      jumpi\n        /* \"contracts/GeekNft.sol\":5255:5261  _catId */\n      dup5\n        /* \"contracts/GeekNft.sol\":5237:5242  items */\n      0x03\n        /* \"contracts/GeekNft.sol\":5243:5244  i */\n      dup3\n        /* \"contracts/GeekNft.sol\":5237:5245  items[i] */\n      dup2\n      sload\n      dup2\n      lt\n      tag_108\n      jumpi\n      mstore(0x00, 0x4e487b7100000000000000000000000000000000000000000000000000000000)\n      mstore(0x04, 0x32)\n      revert(0x00, 0x24)\n    tag_108:\n      swap1\n      0x00\n      mstore\n      keccak256(0x00, 0x20)\n      swap1\n      0x04\n      mul\n      add\n        /* \"contracts/GeekNft.sol\":5237:5251  items[i].catId */\n      0x02\n      add\n      sload\n        /* \"contracts/GeekNft.sol\":5237:5261  items[i].catId == _catId */\n      eq\n        /* \"contracts/GeekNft.sol\":5237:5288  items[i].catId == _catId && items[i].toSell == true */\n      dup1\n      iszero\n      tag_110\n      jumpi\n      pop\n        /* \"contracts/GeekNft.sol\":5284:5288  true */\n      0x01\n        /* \"contracts/GeekNft.sol\":5265:5288  items[i].toSell == true */\n      iszero\n      iszero\n        /* \"contracts/GeekNft.sol\":5265:5270  items */\n      0x03\n        /* \"contracts/GeekNft.sol\":5271:5272  i */\n      dup3\n        /* \"contracts/GeekNft.sol\":5265:5273  items[i] */\n      dup2\n      sload\n      dup2\n      lt\n      tag_111\n      jumpi\n      mstore(0x00, 0x4e487b7100000000000000000000000000000000000000000000000000000000)\n      mstore(0x04, 0x32)\n      revert(0x00, 0x24)\n    tag_111:\n      swap1\n      0x00\n      mstore\n      keccak256(0x00, 0x20)\n      swap1\n      0x04\n      mul\n      add\n        /* \"contracts/GeekNft.sol\":5265:5280  items[i].toSell */\n      0x03\n      add\n      0x00\n      swap1\n      sload\n      swap1\n      0x0100\n      exp\n      swap1\n      div\n      0xff\n      and\n        /* \"contracts/GeekNft.sol\":5265:5288  items[i].toSell == true */\n      iszero\n      iszero\n      eq\n        /* \"contracts/GeekNft.sol\":5237:5288  items[i].catId == _catId && items[i].toSell == true */\n    tag_110:\n        /* \"contracts/GeekNft.sol\":5234:5375  if(items[i].catId == _catId && items[i].toSell == true){... */\n      iszero\n      tag_113\n      jumpi\n        /* \"contracts/GeekNft.sol\":5325:5330  items */\n      0x03\n        /* \"contracts/GeekNft.sol\":5331:5332  i */\n      dup2\n        /* \"contracts/GeekNft.sol\":5325:5333  items[i] */\n      dup2\n      sload\n      dup2\n      lt\n      tag_114\n      jumpi\n      mstore(0x00, 0x4e487b7100000000000000000000000000000000000000000000000000000000)\n      mstore(0x04, 0x32)\n      revert(0x00, 0x24)\n    tag_114:\n      swap1\n      0x00\n      mstore\n      keccak256(0x00, 0x20)\n      swap1\n      0x04\n      mul\n      add\n        /* \"contracts/GeekNft.sol\":5307:5333  result[counter] = items[i] */\n      mload(0x40)\n      dup1\n      0xa0\n      add\n      0x40\n      mstore\n      swap1\n      dup2\n      0x00\n      dup3\n      add\n      sload\n      dup2\n      mstore\n      0x20\n      add\n      0x01\n      dup3\n      add\n      sload\n      dup2\n      mstore\n      0x20\n      add\n      0x02\n      dup3\n      add\n      sload\n      dup2\n      mstore\n      0x20\n      add\n      0x03\n      dup3\n      add\n      0x00\n      swap1\n      sload\n      swap1\n      0x0100\n      exp\n      swap1\n      div\n      0xff\n      and\n      iszero\n      iszero\n      iszero\n      iszero\n      dup2\n      mstore\n      0x20\n      add\n      0x03\n      dup3\n      add\n      0x01\n      swap1\n      sload\n      swap1\n      0x0100\n      exp\n      swap1\n      div\n      0xffffffffffffffffffffffffffffffffffffffff\n      and\n      0xffffffffffffffffffffffffffffffffffffffff\n      and\n      0xffffffffffffffffffffffffffffffffffffffff\n      and\n      dup2\n      mstore\n      pop\n      pop\n        /* \"contracts/GeekNft.sol\":5307:5313  result */\n      dup3\n        /* \"contracts/GeekNft.sol\":5314:5321  counter */\n      dup5\n        /* \"contracts/GeekNft.sol\":5307:5322  result[counter] */\n      dup2\n      mload\n      dup2\n      lt\n      tag_116\n      jumpi\n      mstore(0x00, 0x4e487b7100000000000000000000000000000000000000000000000000000000)\n      mstore(0x04, 0x32)\n      revert(0x00, 0x24)\n    tag_116:\n      0x20\n      mul\n      0x20\n      add\n      add\n        /* \"contracts/GeekNft.sol\":5307:5333  result[counter] = items[i] */\n      dup2\n      swap1\n      mstore\n      pop\n        /* \"contracts/GeekNft.sol\":5351:5360  counter++ */\n      dup3\n      dup1\n      tag_117\n      swap1\n      tag_92\n      jump\t// in\n    tag_117:\n      swap4\n      pop\n      pop\n        /* \"contracts/GeekNft.sol\":5234:5375  if(items[i].catId == _catId && items[i].toSell == true){... */\n    tag_113:\n        /* \"contracts/GeekNft.sol\":5215:5218  i++ */\n      dup1\n      dup1\n      tag_118\n      swap1\n      tag_92\n      jump\t// in\n    tag_118:\n      swap2\n      pop\n      pop\n        /* \"contracts/GeekNft.sol\":5181:5385  for(uint i = 0; i < items.length; i++) {... */\n      jump(tag_105)\n    tag_106:\n      pop\n        /* \"contracts/GeekNft.sol\":5402:5408  result */\n      dup1\n        /* \"contracts/GeekNft.sol\":5395:5408  return result */\n      swap3\n      pop\n      pop\n      pop\n        /* \"contracts/GeekNft.sol\":4995:5415  function fetchItemsToSellByCatId(uint _catId) public view returns (Item[] memory){... */\n      swap2\n      swap1\n      pop\n      jump\t// out\n        /* \"contracts/GeekNft.sol\":4605:4989  function fetchItemsByOwner() public view returns (Item[] memory){... */\n    tag_39:\n        /* \"contracts/GeekNft.sol\":4655:4668  Item[] memory */\n      0x60\n        /* \"contracts/GeekNft.sol\":4679:4691  uint counter */\n      0x00\n        /* \"contracts/GeekNft.sol\":4705:4725  Item[] memory result */\n      dup1\n        /* \"contracts/GeekNft.sol\":4739:4754  itemsOwnerCount */\n      0x08\n        /* \"contracts/GeekNft.sol\":4739:4766  itemsOwnerCount[msg.sender] */\n      0x00\n        /* \"contracts/GeekNft.sol\":4755:4765  msg.sender */\n      caller\n        /* \"contracts/GeekNft.sol\":4739:4766  itemsOwnerCount[msg.sender] */\n      0xffffffffffffffffffffffffffffffffffffffff\n      and\n      0xffffffffffffffffffffffffffffffffffffffff\n      and\n      dup2\n      mstore\n      0x20\n      add\n      swap1\n      dup2\n      mstore\n      0x20\n      add\n      0x00\n      keccak256\n      sload\n        /* \"contracts/GeekNft.sol\":4728:4767  new Item[](itemsOwnerCount[msg.sender]) */\n      0xffffffffffffffff\n      dup2\n      gt\n      iszero\n      tag_120\n      jumpi\n      mstore(0x00, 0x4e487b7100000000000000000000000000000000000000000000000000000000)\n      mstore(0x04, 0x41)\n      revert(0x00, 0x24)\n    tag_120:\n      mload(0x40)\n      swap1\n      dup1\n      dup3\n      mstore\n      dup1\n      0x20\n      mul\n      0x20\n      add\n      dup3\n      add\n      0x40\n      mstore\n      dup1\n      iszero\n      tag_121\n      jumpi\n      dup2\n      0x20\n      add\n    tag_122:\n      tag_123\n      tag_81\n      jump\t// in\n    tag_123:\n      dup2\n      mstore\n      0x20\n      add\n      swap1\n      0x01\n      swap1\n      sub\n      swap1\n      dup2\n      tag_122\n      jumpi\n      swap1\n      pop\n    tag_121:\n      pop\n        /* \"contracts/GeekNft.sol\":4705:4767  Item[] memory result = new Item[](itemsOwnerCount[msg.sender]) */\n      swap1\n      pop\n        /* \"contracts/GeekNft.sol\":4782:4788  uint i */\n      0x00\n        /* \"contracts/GeekNft.sol\":4778:4959  for(uint i = 0; i < items.length; i++) {... */\n    tag_124:\n        /* \"contracts/GeekNft.sol\":4798:4803  items */\n      0x03\n        /* \"contracts/GeekNft.sol\":4798:4810  items.length */\n      dup1\n      sload\n      swap1\n      pop\n        /* \"contracts/GeekNft.sol\":4794:4795  i */\n      dup2\n        /* \"contracts/GeekNft.sol\":4794:4810  i < items.length */\n      lt\n        /* \"contracts/GeekNft.sol\":4778:4959  for(uint i = 0; i < items.length; i++) {... */\n      iszero\n      tag_125\n      jumpi\n        /* \"contracts/GeekNft.sol\":4852:4862  msg.sender */\n      caller\n        /* \"contracts/GeekNft.sol\":4834:4862  itemToOwner[i] == msg.sender */\n      0xffffffffffffffffffffffffffffffffffffffff\n      and\n        /* \"contracts/GeekNft.sol\":4834:4845  itemToOwner */\n      0x07\n        /* \"contracts/GeekNft.sol\":4834:4848  itemToOwner[i] */\n      0x00\n        /* \"contracts/GeekNft.sol\":4846:4847  i */\n      dup4\n        /* \"contracts/GeekNft.sol\":4834:4848  itemToOwner[i] */\n      dup2\n      mstore\n      0x20\n      add\n      swap1\n      dup2\n      mstore\n      0x20\n      add\n      0x00\n      keccak256\n      0x00\n      swap1\n      sload\n      swap1\n      0x0100\n      exp\n      swap1\n      div\n      0xffffffffffffffffffffffffffffffffffffffff\n      and\n        /* \"contracts/GeekNft.sol\":4834:4862  itemToOwner[i] == msg.sender */\n      0xffffffffffffffffffffffffffffffffffffffff\n      and\n      eq\n        /* \"contracts/GeekNft.sol\":4831:4949  if(itemToOwner[i] == msg.sender){... */\n      iszero\n      tag_127\n      jumpi\n        /* \"contracts/GeekNft.sol\":4899:4904  items */\n      0x03\n        /* \"contracts/GeekNft.sol\":4905:4906  i */\n      dup2\n        /* \"contracts/GeekNft.sol\":4899:4907  items[i] */\n      dup2\n      sload\n      dup2\n      lt\n      tag_128\n      jumpi\n      mstore(0x00, 0x4e487b7100000000000000000000000000000000000000000000000000000000)\n      mstore(0x04, 0x32)\n      revert(0x00, 0x24)\n    tag_128:\n      swap1\n      0x00\n      mstore\n      keccak256(0x00, 0x20)\n      swap1\n      0x04\n      mul\n      add\n        /* \"contracts/GeekNft.sol\":4881:4907  result[counter] = items[i] */\n      mload(0x40)\n      dup1\n      0xa0\n      add\n      0x40\n      mstore\n      swap1\n      dup2\n      0x00\n      dup3\n      add\n      sload\n      dup2\n      mstore\n      0x20\n      add\n      0x01\n      dup3\n      add\n      sload\n      dup2\n      mstore\n      0x20\n      add\n      0x02\n      dup3\n      add\n      sload\n      dup2\n      mstore\n      0x20\n      add\n      0x03\n      dup3\n      add\n      0x00\n      swap1\n      sload\n      swap1\n      0x0100\n      exp\n      swap1\n      div\n      0xff\n      and\n      iszero\n      iszero\n      iszero\n      iszero\n      dup2\n      mstore\n      0x20\n      add\n      0x03\n      dup3\n      add\n      0x01\n      swap1\n      sload\n      swap1\n      0x0100\n      exp\n      swap1\n      div\n      0xffffffffffffffffffffffffffffffffffffffff\n      and\n      0xffffffffffffffffffffffffffffffffffffffff\n      and\n      0xffffffffffffffffffffffffffffffffffffffff\n      and\n      dup2\n      mstore\n      pop\n      pop\n        /* \"contracts/GeekNft.sol\":4881:4887  result */\n      dup3\n        /* \"contracts/GeekNft.sol\":4888:4895  counter */\n      dup5\n        /* \"contracts/GeekNft.sol\":4881:4896  result[counter] */\n      dup2\n      mload\n      dup2\n      lt\n      tag_130\n      jumpi\n      mstore(0x00, 0x4e487b7100000000000000000000000000000000000000000000000000000000)\n      mstore(0x04, 0x32)\n      revert(0x00, 0x24)\n    tag_130:\n      0x20\n      mul\n      0x20\n      add\n      add\n        /* \"contracts/GeekNft.sol\":4881:4907  result[counter] = items[i] */\n      dup2\n      swap1\n      mstore\n      pop\n        /* \"contracts/GeekNft.sol\":4925:4934  counter++ */\n      dup3\n      dup1\n      tag_131\n      swap1\n      tag_92\n      jump\t// in\n    tag_131:\n      swap4\n      pop\n      pop\n        /* \"contracts/GeekNft.sol\":4831:4949  if(itemToOwner[i] == msg.sender){... */\n    tag_127:\n        /* \"contracts/GeekNft.sol\":4812:4815  i++ */\n      dup1\n      dup1\n      tag_132\n      swap1\n      tag_92\n      jump\t// in\n    tag_132:\n      swap2\n      pop\n      pop\n        /* \"contracts/GeekNft.sol\":4778:4959  for(uint i = 0; i < items.length; i++) {... */\n      jump(tag_124)\n    tag_125:\n      pop\n        /* \"contracts/GeekNft.sol\":4976:4982  result */\n      dup1\n        /* \"contracts/GeekNft.sol\":4969:4982  return result */\n      swap3\n      pop\n      pop\n      pop\n        /* \"contracts/GeekNft.sol\":4605:4989  function fetchItemsByOwner() public view returns (Item[] memory){... */\n      swap1\n      jump\t// out\n        /* \"contracts/GeekNft.sol\":3326:3432  function ownerOf(uint _tokenId) public view returns (address){... */\n    tag_44:\n        /* \"contracts/GeekNft.sol\":3379:3386  address */\n      0x00\n        /* \"contracts/GeekNft.sol\":3404:3415  itemToOwner */\n      0x07\n        /* \"contracts/GeekNft.sol\":3404:3425  itemToOwner[_tokenId] */\n      0x00\n        /* \"contracts/GeekNft.sol\":3416:3424  _tokenId */\n      dup4\n        /* \"contracts/GeekNft.sol\":3404:3425  itemToOwner[_tokenId] */\n      dup2\n      mstore\n      0x20\n      add\n      swap1\n      dup2\n      mstore\n      0x20\n      add\n      0x00\n      keccak256\n      0x00\n      swap1\n      sload\n      swap1\n      0x0100\n      exp\n      swap1\n      div\n      0xffffffffffffffffffffffffffffffffffffffff\n      and\n        /* \"contracts/GeekNft.sol\":3397:3425  return itemToOwner[_tokenId] */\n      swap1\n      pop\n        /* \"contracts/GeekNft.sol\":3326:3432  function ownerOf(uint _tokenId) public view returns (address){... */\n      swap2\n      swap1\n      pop\n      jump\t// out\n        /* \"contracts/GeekNft.sol\":3438:3546  function balanceOf(address _owner) public view returns (uint){... */\n    tag_51:\n        /* \"contracts/GeekNft.sol\":3494:3498  uint */\n      0x00\n        /* \"contracts/GeekNft.sol\":3516:3531  itemsOwnerCount */\n      0x08\n        /* \"contracts/GeekNft.sol\":3516:3539  itemsOwnerCount[_owner] */\n      0x00\n        /* \"contracts/GeekNft.sol\":3532:3538  _owner */\n      dup4\n        /* \"contracts/GeekNft.sol\":3516:3539  itemsOwnerCount[_owner] */\n      0xffffffffffffffffffffffffffffffffffffffff\n      and\n      0xffffffffffffffffffffffffffffffffffffffff\n      and\n      dup2\n      mstore\n      0x20\n      add\n      swap1\n      dup2\n      mstore\n      0x20\n      add\n      0x00\n      keccak256\n      sload\n        /* \"contracts/GeekNft.sol\":3509:3539  return itemsOwnerCount[_owner] */\n      swap1\n      pop\n        /* \"contracts/GeekNft.sol\":3438:3546  function balanceOf(address _owner) public view returns (uint){... */\n      swap2\n      swap1\n      pop\n      jump\t// out\n        /* \"contracts/GeekNft.sol\":2220:3320  function sellItem(uint _tokenId) public payable{... */\n    tag_55:\n        /* \"contracts/GeekNft.sol\":2298:2303  items */\n      0x03\n        /* \"contracts/GeekNft.sol\":2304:2312  _tokenId */\n      dup2\n        /* \"contracts/GeekNft.sol\":2298:2313  items[_tokenId] */\n      dup2\n      sload\n      dup2\n      lt\n      tag_136\n      jumpi\n      mstore(0x00, 0x4e487b7100000000000000000000000000000000000000000000000000000000)\n      mstore(0x04, 0x32)\n      revert(0x00, 0x24)\n    tag_136:\n      swap1\n      0x00\n      mstore\n      keccak256(0x00, 0x20)\n      swap1\n      0x04\n      mul\n      add\n        /* \"contracts/GeekNft.sol\":2298:2319  items[_tokenId].price */\n      0x01\n      add\n      sload\n        /* \"contracts/GeekNft.sol\":2285:2294  msg.value */\n      callvalue\n        /* \"contracts/GeekNft.sol\":2285:2319  msg.value == items[_tokenId].price */\n      eq\n        /* \"contracts/GeekNft.sol\":2277:2377  require(msg.value == items[_tokenId].price, \"transaction's value cannot be different of item price\") */\n      tag_138\n      jumpi\n      mload(0x40)\n      0x08c379a000000000000000000000000000000000000000000000000000000000\n      dup2\n      mstore\n      0x04\n      add\n      tag_139\n      swap1\n      tag_140\n      jump\t// in\n    tag_139:\n      mload(0x40)\n      dup1\n      swap2\n      sub\n      swap1\n      revert\n    tag_138:\n        /* \"contracts/GeekNft.sol\":2428:2429  0 */\n      0x00\n        /* \"contracts/GeekNft.sol\":2395:2430  itemToOwner[_tokenId] != address(0) */\n      0xffffffffffffffffffffffffffffffffffffffff\n      and\n        /* \"contracts/GeekNft.sol\":2395:2406  itemToOwner */\n      0x07\n        /* \"contracts/GeekNft.sol\":2395:2416  itemToOwner[_tokenId] */\n      0x00\n        /* \"contracts/GeekNft.sol\":2407:2415  _tokenId */\n      dup4\n        /* \"contracts/GeekNft.sol\":2395:2416  itemToOwner[_tokenId] */\n      dup2\n      mstore\n      0x20\n      add\n      swap1\n      dup2\n      mstore\n      0x20\n      add\n      0x00\n      keccak256\n      0x00\n      swap1\n      sload\n      swap1\n      0x0100\n      exp\n      swap1\n      div\n      0xffffffffffffffffffffffffffffffffffffffff\n      and\n        /* \"contracts/GeekNft.sol\":2395:2430  itemToOwner[_tokenId] != address(0) */\n      0xffffffffffffffffffffffffffffffffffffffff\n      and\n      eq\n      iszero\n        /* \"contracts/GeekNft.sol\":2387:2454  require(itemToOwner[_tokenId] != address(0), \"token doesn't exist\") */\n      tag_141\n      jumpi\n      mload(0x40)\n      0x08c379a000000000000000000000000000000000000000000000000000000000\n      dup2\n      mstore\n      0x04\n      add\n      tag_142\n      swap1\n      tag_143\n      jump\t// in\n    tag_142:\n      mload(0x40)\n      dup1\n      swap2\n      sub\n      swap1\n      revert\n    tag_141:\n        /* \"contracts/GeekNft.sol\":2497:2507  msg.sender */\n      caller\n        /* \"contracts/GeekNft.sol\":2472:2507  itemToOwner[_tokenId] != msg.sender */\n      0xffffffffffffffffffffffffffffffffffffffff\n      and\n        /* \"contracts/GeekNft.sol\":2472:2483  itemToOwner */\n      0x07\n        /* \"contracts/GeekNft.sol\":2472:2493  itemToOwner[_tokenId] */\n      0x00\n        /* \"contracts/GeekNft.sol\":2484:2492  _tokenId */\n      dup4\n        /* \"contracts/GeekNft.sol\":2472:2493  itemToOwner[_tokenId] */\n      dup2\n      mstore\n      0x20\n      add\n      swap1\n      dup2\n      mstore\n      0x20\n      add\n      0x00\n      keccak256\n      0x00\n      swap1\n      sload\n      swap1\n      0x0100\n      exp\n      swap1\n      div\n      0xffffffffffffffffffffffffffffffffffffffff\n      and\n        /* \"contracts/GeekNft.sol\":2472:2507  itemToOwner[_tokenId] != msg.sender */\n      0xffffffffffffffffffffffffffffffffffffffff\n      and\n      eq\n      iszero\n        /* \"contracts/GeekNft.sol\":2464:2553  require(itemToOwner[_tokenId] != msg.sender, \"you can't buy an item that belongs to you\") */\n      tag_144\n      jumpi\n      mload(0x40)\n      0x08c379a000000000000000000000000000000000000000000000000000000000\n      dup2\n      mstore\n      0x04\n      add\n      tag_145\n      swap1\n      tag_146\n      jump\t// in\n    tag_145:\n      mload(0x40)\n      dup1\n      swap2\n      sub\n      swap1\n      revert\n    tag_144:\n        /* \"contracts/GeekNft.sol\":2564:2580  address oldOwner */\n      0x00\n        /* \"contracts/GeekNft.sol\":2583:2594  itemToOwner */\n      0x07\n        /* \"contracts/GeekNft.sol\":2583:2604  itemToOwner[_tokenId] */\n      0x00\n        /* \"contracts/GeekNft.sol\":2595:2603  _tokenId */\n      dup4\n        /* \"contracts/GeekNft.sol\":2583:2604  itemToOwner[_tokenId] */\n      dup2\n      mstore\n      0x20\n      add\n      swap1\n      dup2\n      mstore\n      0x20\n      add\n      0x00\n      keccak256\n      0x00\n      swap1\n      sload\n      swap1\n      0x0100\n      exp\n      swap1\n      div\n      0xffffffffffffffffffffffffffffffffffffffff\n      and\n        /* \"contracts/GeekNft.sol\":2564:2604  address oldOwner = itemToOwner[_tokenId] */\n      swap1\n      pop\n        /* \"contracts/GeekNft.sol\":2623:2646  Item storage itemToSell */\n      0x00\n        /* \"contracts/GeekNft.sol\":2649:2654  items */\n      0x03\n        /* \"contracts/GeekNft.sol\":2655:2663  _tokenId */\n      dup4\n        /* \"contracts/GeekNft.sol\":2649:2664  items[_tokenId] */\n      dup2\n      sload\n      dup2\n      lt\n      tag_147\n      jumpi\n      mstore(0x00, 0x4e487b7100000000000000000000000000000000000000000000000000000000)\n      mstore(0x04, 0x32)\n      revert(0x00, 0x24)\n    tag_147:\n      swap1\n      0x00\n      mstore\n      keccak256(0x00, 0x20)\n      swap1\n      0x04\n      mul\n      add\n        /* \"contracts/GeekNft.sol\":2623:2664  Item storage itemToSell = items[_tokenId] */\n      swap1\n      pop\n        /* \"contracts/GeekNft.sol\":2694:2699  false */\n      0x00\n        /* \"contracts/GeekNft.sol\":2674:2684  itemToSell */\n      dup2\n        /* \"contracts/GeekNft.sol\":2674:2691  itemToSell.toSell */\n      0x03\n      add\n      0x00\n        /* \"contracts/GeekNft.sol\":2674:2699  itemToSell.toSell = false */\n      0x0100\n      exp\n      dup2\n      sload\n      dup2\n      0xff\n      mul\n      not\n      and\n      swap1\n      dup4\n      iszero\n      iszero\n      mul\n      or\n      swap1\n      sstore\n      pop\n        /* \"contracts/GeekNft.sol\":2734:2744  msg.sender */\n      caller\n        /* \"contracts/GeekNft.sol\":2710:2721  itemToOwner */\n      0x07\n        /* \"contracts/GeekNft.sol\":2710:2731  itemToOwner[_tokenId] */\n      0x00\n        /* \"contracts/GeekNft.sol\":2722:2730  _tokenId */\n      dup6\n        /* \"contracts/GeekNft.sol\":2710:2731  itemToOwner[_tokenId] */\n      dup2\n      mstore\n      0x20\n      add\n      swap1\n      dup2\n      mstore\n      0x20\n      add\n      0x00\n      keccak256\n      0x00\n        /* \"contracts/GeekNft.sol\":2710:2744  itemToOwner[_tokenId] = msg.sender */\n      0x0100\n      exp\n      dup2\n      sload\n      dup2\n      0xffffffffffffffffffffffffffffffffffffffff\n      mul\n      not\n      and\n      swap1\n      dup4\n      0xffffffffffffffffffffffffffffffffffffffff\n      and\n      mul\n      or\n      swap1\n      sstore\n      pop\n        /* \"contracts/GeekNft.sol\":2778:2793  itemsOwnerCount */\n      0x08\n        /* \"contracts/GeekNft.sol\":2778:2803  itemsOwnerCount[oldOwner] */\n      0x00\n        /* \"contracts/GeekNft.sol\":2794:2802  oldOwner */\n      dup4\n        /* \"contracts/GeekNft.sol\":2778:2803  itemsOwnerCount[oldOwner] */\n      0xffffffffffffffffffffffffffffffffffffffff\n      and\n      0xffffffffffffffffffffffffffffffffffffffff\n      and\n      dup2\n      mstore\n      0x20\n      add\n      swap1\n      dup2\n      mstore\n      0x20\n      add\n      0x00\n      keccak256\n      0x00\n        /* \"contracts/GeekNft.sol\":2778:2805  itemsOwnerCount[oldOwner]-- */\n      dup2\n      sload\n      dup1\n      swap3\n      swap2\n      swap1\n      0x01\n      swap1\n      sub\n      swap2\n      swap1\n      pop\n      sstore\n      pop\n        /* \"contracts/GeekNft.sol\":2819:2834  itemsOwnerCount */\n      0x08\n        /* \"contracts/GeekNft.sol\":2819:2846  itemsOwnerCount[msg.sender] */\n      0x00\n        /* \"contracts/GeekNft.sol\":2835:2845  msg.sender */\n      caller\n        /* \"contracts/GeekNft.sol\":2819:2846  itemsOwnerCount[msg.sender] */\n      0xffffffffffffffffffffffffffffffffffffffff\n      and\n      0xffffffffffffffffffffffffffffffffffffffff\n      and\n      dup2\n      mstore\n      0x20\n      add\n      swap1\n      dup2\n      mstore\n      0x20\n      add\n      0x00\n      keccak256\n      0x00\n        /* \"contracts/GeekNft.sol\":2819:2848  itemsOwnerCount[msg.sender]++ */\n      dup2\n      sload\n      dup1\n      swap3\n      swap2\n      swap1\n      0x01\n      add\n      swap2\n      swap1\n      pop\n      sstore\n      pop\n        /* \"contracts/GeekNft.sol\":2862:2878  itemsToSellCount */\n      0x04\n      0x00\n        /* \"contracts/GeekNft.sol\":2862:2880  itemsToSellCount-- */\n      dup2\n      sload\n      dup1\n      swap3\n      swap2\n      swap1\n      0x01\n      swap1\n      sub\n      swap2\n      swap1\n      pop\n      sstore\n      pop\n        /* \"contracts/GeekNft.sol\":2926:2934  oldOwner */\n      dup2\n        /* \"contracts/GeekNft.sol\":2904:2934  itemToSell.creator == oldOwner */\n      0xffffffffffffffffffffffffffffffffffffffff\n      and\n        /* \"contracts/GeekNft.sol\":2904:2914  itemToSell */\n      dup2\n        /* \"contracts/GeekNft.sol\":2904:2922  itemToSell.creator */\n      0x03\n      add\n      0x01\n      swap1\n      sload\n      swap1\n      0x0100\n      exp\n      swap1\n      div\n      0xffffffffffffffffffffffffffffffffffffffff\n      and\n        /* \"contracts/GeekNft.sol\":2904:2934  itemToSell.creator == oldOwner */\n      0xffffffffffffffffffffffffffffffffffffffff\n      and\n      eq\n        /* \"contracts/GeekNft.sol\":2901:3258  if(itemToSell.creator == oldOwner){... */\n      iszero\n      tag_149\n      jumpi\n        /* \"contracts/GeekNft.sol\":2957:2965  oldOwner */\n      dup2\n        /* \"contracts/GeekNft.sol\":2949:2975  payable(oldOwner).transfer */\n      0xffffffffffffffffffffffffffffffffffffffff\n      and\n        /* \"contracts/GeekNft.sol\":2949:2986  payable(oldOwner).transfer(msg.value) */\n      0x08fc\n        /* \"contracts/GeekNft.sol\":2976:2985  msg.value */\n      callvalue\n        /* \"contracts/GeekNft.sol\":2949:2986  payable(oldOwner).transfer(msg.value) */\n      swap1\n      dup2\n      iszero\n      mul\n      swap1\n      mload(0x40)\n      0x00\n      mload(0x40)\n      dup1\n      dup4\n      sub\n      dup2\n      dup6\n      dup9\n      dup9\n      call\n      swap4\n      pop\n      pop\n      pop\n      pop\n      iszero\n      dup1\n      iszero\n      tag_151\n      jumpi\n      returndatasize\n      0x00\n      dup1\n      returndatacopy\n      revert(0x00, returndatasize)\n    tag_151:\n      pop\n        /* \"contracts/GeekNft.sol\":2901:3258  if(itemToSell.creator == oldOwner){... */\n      jump(tag_152)\n    tag_149:\n        /* \"contracts/GeekNft.sol\":3017:3026  uint fees */\n      0x00\n        /* \"contracts/GeekNft.sol\":3040:3059  uint totalMinusFees */\n      dup1\n        /* \"contracts/GeekNft.sol\":3098:3135  getFees(msg.value, creatorPercentage) */\n      tag_153\n        /* \"contracts/GeekNft.sol\":3106:3115  msg.value */\n      callvalue\n        /* \"contracts/GeekNft.sol\":3117:3134  creatorPercentage */\n      sload(0x06)\n        /* \"contracts/GeekNft.sol\":3098:3105  getFees */\n      tag_154\n        /* \"contracts/GeekNft.sol\":3098:3135  getFees(msg.value, creatorPercentage) */\n      jump\t// in\n    tag_153:\n        /* \"contracts/GeekNft.sol\":3073:3135  (fees, totalMinusFees) = getFees(msg.value, creatorPercentage) */\n      dup1\n      swap3\n      pop\n      dup2\n      swap4\n      pop\n      pop\n      pop\n        /* \"contracts/GeekNft.sol\":3157:3167  itemToSell */\n      dup3\n        /* \"contracts/GeekNft.sol\":3157:3175  itemToSell.creator */\n      0x03\n      add\n      0x01\n      swap1\n      sload\n      swap1\n      0x0100\n      exp\n      swap1\n      div\n      0xffffffffffffffffffffffffffffffffffffffff\n      and\n        /* \"contracts/GeekNft.sol\":3149:3185  payable(itemToSell.creator).transfer */\n      0xffffffffffffffffffffffffffffffffffffffff\n      and\n        /* \"contracts/GeekNft.sol\":3149:3191  payable(itemToSell.creator).transfer(fees) */\n      0x08fc\n        /* \"contracts/GeekNft.sol\":3186:3190  fees */\n      dup4\n        /* \"contracts/GeekNft.sol\":3149:3191  payable(itemToSell.creator).transfer(fees) */\n      swap1\n      dup2\n      iszero\n      mul\n      swap1\n      mload(0x40)\n      0x00\n      mload(0x40)\n      dup1\n      dup4\n      sub\n      dup2\n      dup6\n      dup9\n      dup9\n      call\n      swap4\n      pop\n      pop\n      pop\n      pop\n      iszero\n      dup1\n      iszero\n      tag_156\n      jumpi\n      returndatasize\n      0x00\n      dup1\n      returndatacopy\n      revert(0x00, returndatasize)\n    tag_156:\n      pop\n        /* \"contracts/GeekNft.sol\":3213:3221  oldOwner */\n      dup4\n        /* \"contracts/GeekNft.sol\":3205:3231  payable(oldOwner).transfer */\n      0xffffffffffffffffffffffffffffffffffffffff\n      and\n        /* \"contracts/GeekNft.sol\":3205:3247  payable(oldOwner).transfer(totalMinusFees) */\n      0x08fc\n        /* \"contracts/GeekNft.sol\":3232:3246  totalMinusFees */\n      dup3\n        /* \"contracts/GeekNft.sol\":3205:3247  payable(oldOwner).transfer(totalMinusFees) */\n      swap1\n      dup2\n      iszero\n      mul\n      swap1\n      mload(0x40)\n      0x00\n      mload(0x40)\n      dup1\n      dup4\n      sub\n      dup2\n      dup6\n      dup9\n      dup9\n      call\n      swap4\n      pop\n      pop\n      pop\n      pop\n      iszero\n      dup1\n      iszero\n      tag_158\n      jumpi\n      returndatasize\n      0x00\n      dup1\n      returndatacopy\n      revert(0x00, returndatasize)\n    tag_158:\n      pop\n        /* \"contracts/GeekNft.sol\":2901:3258  if(itemToSell.creator == oldOwner){... */\n      pop\n      pop\n    tag_152:\n        /* \"contracts/GeekNft.sol\":3292:3302  msg.sender */\n      caller\n        /* \"contracts/GeekNft.sol\":3273:3313  Transfer(oldOwner, msg.sender, _tokenId) */\n      0xffffffffffffffffffffffffffffffffffffffff\n      and\n        /* \"contracts/GeekNft.sol\":3282:3290  oldOwner */\n      dup3\n        /* \"contracts/GeekNft.sol\":3273:3313  Transfer(oldOwner, msg.sender, _tokenId) */\n      0xffffffffffffffffffffffffffffffffffffffff\n      and\n      0xddf252ad1be2c89b69c2b068fc378daa952ba7f163c4a11628f55a4df523b3ef\n        /* \"contracts/GeekNft.sol\":3304:3312  _tokenId */\n      dup6\n        /* \"contracts/GeekNft.sol\":3273:3313  Transfer(oldOwner, msg.sender, _tokenId) */\n      mload(0x40)\n      tag_159\n      swap2\n      swap1\n      tag_26\n      jump\t// in\n    tag_159:\n      mload(0x40)\n      dup1\n      swap2\n      sub\n      swap1\n      log3\n        /* \"contracts/GeekNft.sol\":2220:3320  function sellItem(uint _tokenId) public payable{... */\n      pop\n      pop\n      pop\n      jump\t// out\n        /* \"contracts/GeekNft.sol\":1246:1340  function getCreateItemFees() public view returns (uint) {... */\n    tag_58:\n        /* \"contracts/GeekNft.sol\":1296:1300  uint */\n      0x00\n        /* \"contracts/GeekNft.sol\":1319:1333  createItemFees */\n      sload(0x05)\n        /* \"contracts/GeekNft.sol\":1312:1333  return createItemFees */\n      swap1\n      pop\n        /* \"contracts/GeekNft.sol\":1246:1340  function getCreateItemFees() public view returns (uint) {... */\n      swap1\n      jump\t// out\n        /* \"contracts/GeekNft.sol\":3552:3881  function removeItemToSell(uint _tokenId) public onlyItemOwner(_tokenId) {... */\n    tag_63:\n        /* \"contracts/GeekNft.sol\":3614:3622  _tokenId */\n      dup1\n        /* \"contracts/GeekNft.sol\":916:926  msg.sender */\n      caller\n        /* \"contracts/GeekNft.sol\":891:926  itemToOwner[_tokenId] == msg.sender */\n      0xffffffffffffffffffffffffffffffffffffffff\n      and\n        /* \"contracts/GeekNft.sol\":891:902  itemToOwner */\n      0x07\n        /* \"contracts/GeekNft.sol\":891:912  itemToOwner[_tokenId] */\n      0x00\n        /* \"contracts/GeekNft.sol\":903:911  _tokenId */\n      dup4\n        /* \"contracts/GeekNft.sol\":891:912  itemToOwner[_tokenId] */\n      dup2\n      mstore\n      0x20\n      add\n      swap1\n      dup2\n      mstore\n      0x20\n      add\n      0x00\n      keccak256\n      0x00\n      swap1\n      sload\n      swap1\n      0x0100\n      exp\n      swap1\n      div\n      0xffffffffffffffffffffffffffffffffffffffff\n      and\n        /* \"contracts/GeekNft.sol\":891:926  itemToOwner[_tokenId] == msg.sender */\n      0xffffffffffffffffffffffffffffffffffffffff\n      and\n      eq\n        /* \"contracts/GeekNft.sol\":883:960  require(itemToOwner[_tokenId] == msg.sender, \"Only item's owner can do that\") */\n      tag_162\n      jumpi\n      mload(0x40)\n      0x08c379a000000000000000000000000000000000000000000000000000000000\n      dup2\n      mstore\n      0x04\n      add\n      tag_163\n      swap1\n      tag_164\n      jump\t// in\n    tag_163:\n      mload(0x40)\n      dup1\n      swap2\n      sub\n      swap1\n      revert\n    tag_162:\n        /* \"contracts/GeekNft.sol\":3675:3676  0 */\n      0x00\n        /* \"contracts/GeekNft.sol\":3642:3677  itemToOwner[_tokenId] != address(0) */\n      0xffffffffffffffffffffffffffffffffffffffff\n      and\n        /* \"contracts/GeekNft.sol\":3642:3653  itemToOwner */\n      0x07\n        /* \"contracts/GeekNft.sol\":3642:3663  itemToOwner[_tokenId] */\n      0x00\n        /* \"contracts/GeekNft.sol\":3654:3662  _tokenId */\n      dup5\n        /* \"contracts/GeekNft.sol\":3642:3663  itemToOwner[_tokenId] */\n      dup2\n      mstore\n      0x20\n      add\n      swap1\n      dup2\n      mstore\n      0x20\n      add\n      0x00\n      keccak256\n      0x00\n      swap1\n      sload\n      swap1\n      0x0100\n      exp\n      swap1\n      div\n      0xffffffffffffffffffffffffffffffffffffffff\n      and\n        /* \"contracts/GeekNft.sol\":3642:3677  itemToOwner[_tokenId] != address(0) */\n      0xffffffffffffffffffffffffffffffffffffffff\n      and\n      eq\n      iszero\n        /* \"contracts/GeekNft.sol\":3634:3701  require(itemToOwner[_tokenId] != address(0), \"token doesn't exist\") */\n      tag_166\n      jumpi\n      mload(0x40)\n      0x08c379a000000000000000000000000000000000000000000000000000000000\n      dup2\n      mstore\n      0x04\n      add\n      tag_167\n      swap1\n      tag_143\n      jump\t// in\n    tag_167:\n      mload(0x40)\n      dup1\n      swap2\n      sub\n      swap1\n      revert\n    tag_166:\n        /* \"contracts/GeekNft.sol\":3745:3749  true */\n      0x01\n        /* \"contracts/GeekNft.sol\":3719:3749  items[_tokenId].toSell == true */\n      iszero\n      iszero\n        /* \"contracts/GeekNft.sol\":3719:3724  items */\n      0x03\n        /* \"contracts/GeekNft.sol\":3725:3733  _tokenId */\n      dup4\n        /* \"contracts/GeekNft.sol\":3719:3734  items[_tokenId] */\n      dup2\n      sload\n      dup2\n      lt\n      tag_168\n      jumpi\n      mstore(0x00, 0x4e487b7100000000000000000000000000000000000000000000000000000000)\n      mstore(0x04, 0x32)\n      revert(0x00, 0x24)\n    tag_168:\n      swap1\n      0x00\n      mstore\n      keccak256(0x00, 0x20)\n      swap1\n      0x04\n      mul\n      add\n        /* \"contracts/GeekNft.sol\":3719:3741  items[_tokenId].toSell */\n      0x03\n      add\n      0x00\n      swap1\n      sload\n      swap1\n      0x0100\n      exp\n      swap1\n      div\n      0xff\n      and\n        /* \"contracts/GeekNft.sol\":3719:3749  items[_tokenId].toSell == true */\n      iszero\n      iszero\n      eq\n        /* \"contracts/GeekNft.sol\":3711:3773  require(items[_tokenId].toSell == true, \"token isn't to sell\") */\n      tag_170\n      jumpi\n      mload(0x40)\n      0x08c379a000000000000000000000000000000000000000000000000000000000\n      dup2\n      mstore\n      0x04\n      add\n      tag_171\n      swap1\n      tag_172\n      jump\t// in\n    tag_171:\n      mload(0x40)\n      dup1\n      swap2\n      sub\n      swap1\n      revert\n    tag_170:\n        /* \"contracts/GeekNft.sol\":3808:3813  false */\n      0x00\n        /* \"contracts/GeekNft.sol\":3783:3788  items */\n      0x03\n        /* \"contracts/GeekNft.sol\":3789:3797  _tokenId */\n      dup4\n        /* \"contracts/GeekNft.sol\":3783:3798  items[_tokenId] */\n      dup2\n      sload\n      dup2\n      lt\n      tag_173\n      jumpi\n      mstore(0x00, 0x4e487b7100000000000000000000000000000000000000000000000000000000)\n      mstore(0x04, 0x32)\n      revert(0x00, 0x24)\n    tag_173:\n      swap1\n      0x00\n      mstore\n      keccak256(0x00, 0x20)\n      swap1\n      0x04\n      mul\n      add\n        /* \"contracts/GeekNft.sol\":3783:3805  items[_tokenId].toSell */\n      0x03\n      add\n      0x00\n        /* \"contracts/GeekNft.sol\":3783:3813  items[_tokenId].toSell = false */\n      0x0100\n      exp\n      dup2\n      sload\n      dup2\n      0xff\n      mul\n      not\n      and\n      swap1\n      dup4\n      iszero\n      iszero\n      mul\n      or\n      swap1\n      sstore\n      pop\n        /* \"contracts/GeekNft.sol\":3846:3862  itemsToSellCount */\n      0x04\n      0x00\n        /* \"contracts/GeekNft.sol\":3846:3864  itemsToSellCount-- */\n      dup2\n      sload\n      dup1\n      swap3\n      swap2\n      swap1\n      0x01\n      swap1\n      sub\n      swap2\n      swap1\n      pop\n      sstore\n      pop\n        /* \"contracts/GeekNft.sol\":3552:3881  function removeItemToSell(uint _tokenId) public onlyItemOwner(_tokenId) {... */\n      pop\n      pop\n      jump\t// out\n        /* \"contracts/GeekNft.sol\":1587:2214  function createItem(uint _price, uint _catId) public payable sendCorrectFeesValue(msg.value) returns (uint){... */\n    tag_67:\n        /* \"contracts/GeekNft.sol\":1689:1693  uint */\n      0x00\n        /* \"contracts/GeekNft.sol\":1669:1678  msg.value */\n      callvalue\n        /* \"contracts/GeekNft.sol\":1053:1067  createItemFees */\n      sload(0x05)\n        /* \"contracts/GeekNft.sol\":1044:1049  value */\n      dup2\n        /* \"contracts/GeekNft.sol\":1044:1067  value == createItemFees */\n      eq\n        /* \"contracts/GeekNft.sol\":1036:1105  require(value == createItemFees, \"Thanks to send correct fees value\") */\n      tag_176\n      jumpi\n      mload(0x40)\n      0x08c379a000000000000000000000000000000000000000000000000000000000\n      dup2\n      mstore\n      0x04\n      add\n      tag_177\n      swap1\n      tag_178\n      jump\t// in\n    tag_177:\n      mload(0x40)\n      dup1\n      swap2\n      sub\n      swap1\n      revert\n    tag_176:\n        /* \"contracts/GeekNft.sol\":1721:1722  0 */\n      0x00\n        /* \"contracts/GeekNft.sol\":1712:1718  _price */\n      dup5\n        /* \"contracts/GeekNft.sol\":1712:1722  _price > 0 */\n      gt\n        /* \"contracts/GeekNft.sol\":1704:1753  require(_price > 0, \"Price cannot be equal to 0\") */\n      tag_180\n      jumpi\n      mload(0x40)\n      0x08c379a000000000000000000000000000000000000000000000000000000000\n      dup2\n      mstore\n      0x04\n      add\n      tag_181\n      swap1\n      tag_182\n      jump\t// in\n    tag_181:\n      mload(0x40)\n      dup1\n      swap2\n      sub\n      swap1\n      revert\n    tag_180:\n        /* \"contracts/GeekNft.sol\":1763:1778  uint newTokenId */\n      0x00\n        /* \"contracts/GeekNft.sol\":1781:1786  items */\n      0x03\n        /* \"contracts/GeekNft.sol\":1781:1793  items.length */\n      dup1\n      sload\n      swap1\n      pop\n        /* \"contracts/GeekNft.sol\":1763:1793  uint newTokenId = items.length */\n      swap1\n      pop\n        /* \"contracts/GeekNft.sol\":1847:1848  0 */\n      0x00\n        /* \"contracts/GeekNft.sol\":1812:1849  itemToOwner[newTokenId] == address(0) */\n      0xffffffffffffffffffffffffffffffffffffffff\n      and\n        /* \"contracts/GeekNft.sol\":1812:1823  itemToOwner */\n      0x07\n        /* \"contracts/GeekNft.sol\":1812:1835  itemToOwner[newTokenId] */\n      0x00\n        /* \"contracts/GeekNft.sol\":1824:1834  newTokenId */\n      dup4\n        /* \"contracts/GeekNft.sol\":1812:1835  itemToOwner[newTokenId] */\n      dup2\n      mstore\n      0x20\n      add\n      swap1\n      dup2\n      mstore\n      0x20\n      add\n      0x00\n      keccak256\n      0x00\n      swap1\n      sload\n      swap1\n      0x0100\n      exp\n      swap1\n      div\n      0xffffffffffffffffffffffffffffffffffffffff\n      and\n        /* \"contracts/GeekNft.sol\":1812:1849  itemToOwner[newTokenId] == address(0) */\n      0xffffffffffffffffffffffffffffffffffffffff\n      and\n      eq\n        /* \"contracts/GeekNft.sol\":1804:1873  require(itemToOwner[newTokenId] == address(0), \"token already exist\") */\n      tag_183\n      jumpi\n      mload(0x40)\n      0x08c379a000000000000000000000000000000000000000000000000000000000\n      dup2\n      mstore\n      0x04\n      add\n      tag_184\n      swap1\n      tag_185\n      jump\t// in\n    tag_184:\n      mload(0x40)\n      dup1\n      swap2\n      sub\n      swap1\n      revert\n    tag_183:\n        /* \"contracts/GeekNft.sol\":1884:1889  items */\n      0x03\n        /* \"contracts/GeekNft.sol\":1895:1945  Item(newTokenId, _price, _catId, true, msg.sender) */\n      mload(0x40)\n      dup1\n      0xa0\n      add\n      0x40\n      mstore\n      dup1\n        /* \"contracts/GeekNft.sol\":1900:1910  newTokenId */\n      dup4\n        /* \"contracts/GeekNft.sol\":1895:1945  Item(newTokenId, _price, _catId, true, msg.sender) */\n      dup2\n      mstore\n      0x20\n      add\n        /* \"contracts/GeekNft.sol\":1912:1918  _price */\n      dup8\n        /* \"contracts/GeekNft.sol\":1895:1945  Item(newTokenId, _price, _catId, true, msg.sender) */\n      dup2\n      mstore\n      0x20\n      add\n        /* \"contracts/GeekNft.sol\":1920:1926  _catId */\n      dup7\n        /* \"contracts/GeekNft.sol\":1895:1945  Item(newTokenId, _price, _catId, true, msg.sender) */\n      dup2\n      mstore\n      0x20\n      add\n        /* \"contracts/GeekNft.sol\":1928:1932  true */\n      0x01\n        /* \"contracts/GeekNft.sol\":1895:1945  Item(newTokenId, _price, _catId, true, msg.sender) */\n      iszero\n      iszero\n      dup2\n      mstore\n      0x20\n      add\n        /* \"contracts/GeekNft.sol\":1934:1944  msg.sender */\n      caller\n        /* \"contracts/GeekNft.sol\":1895:1945  Item(newTokenId, _price, _catId, true, msg.sender) */\n      0xffffffffffffffffffffffffffffffffffffffff\n      and\n      dup2\n      mstore\n      pop\n        /* \"contracts/GeekNft.sol\":1884:1946  items.push(Item(newTokenId, _price, _catId, true, msg.sender)) */\n      swap1\n      dup1\n      0x01\n      dup2\n      sload\n      add\n      dup1\n      dup3\n      sstore\n      dup1\n      swap2\n      pop\n      pop\n      0x01\n      swap1\n      sub\n      swap1\n      0x00\n      mstore\n      keccak256(0x00, 0x20)\n      swap1\n      0x04\n      mul\n      add\n      0x00\n      swap1\n      swap2\n      swap1\n      swap2\n      swap1\n      swap2\n      pop\n      0x00\n      dup3\n      add\n      mload\n      dup2\n      0x00\n      add\n      sstore\n      0x20\n      dup3\n      add\n      mload\n      dup2\n      0x01\n      add\n      sstore\n      0x40\n      dup3\n      add\n      mload\n      dup2\n      0x02\n      add\n      sstore\n      0x60\n      dup3\n      add\n      mload\n      dup2\n      0x03\n      add\n      exp(0x0100, 0x00)\n      dup2\n      sload\n      dup2\n      0xff\n      mul\n      not\n      and\n      swap1\n      dup4\n      iszero\n      iszero\n      mul\n      or\n      swap1\n      sstore\n      pop\n      0x80\n      dup3\n      add\n      mload\n      dup2\n      0x03\n      add\n      exp(0x0100, 0x01)\n      dup2\n      sload\n      dup2\n      0xffffffffffffffffffffffffffffffffffffffff\n      mul\n      not\n      and\n      swap1\n      dup4\n      0xffffffffffffffffffffffffffffffffffffffff\n      and\n      mul\n      or\n      swap1\n      sstore\n      pop\n      pop\n      pop\n        /* \"contracts/GeekNft.sol\":1982:1992  msg.sender */\n      caller\n        /* \"contracts/GeekNft.sol\":1956:1967  itemToOwner */\n      0x07\n        /* \"contracts/GeekNft.sol\":1956:1979  itemToOwner[newTokenId] */\n      0x00\n        /* \"contracts/GeekNft.sol\":1968:1978  newTokenId */\n      dup4\n        /* \"contracts/GeekNft.sol\":1956:1979  itemToOwner[newTokenId] */\n      dup2\n      mstore\n      0x20\n      add\n      swap1\n      dup2\n      mstore\n      0x20\n      add\n      0x00\n      keccak256\n      0x00\n        /* \"contracts/GeekNft.sol\":1956:1992  itemToOwner[newTokenId] = msg.sender */\n      0x0100\n      exp\n      dup2\n      sload\n      dup2\n      0xffffffffffffffffffffffffffffffffffffffff\n      mul\n      not\n      and\n      swap1\n      dup4\n      0xffffffffffffffffffffffffffffffffffffffff\n      and\n      mul\n      or\n      swap1\n      sstore\n      pop\n        /* \"contracts/GeekNft.sol\":2026:2041  itemsOwnerCount */\n      0x08\n        /* \"contracts/GeekNft.sol\":2026:2053  itemsOwnerCount[msg.sender] */\n      0x00\n        /* \"contracts/GeekNft.sol\":2042:2052  msg.sender */\n      caller\n        /* \"contracts/GeekNft.sol\":2026:2053  itemsOwnerCount[msg.sender] */\n      0xffffffffffffffffffffffffffffffffffffffff\n      and\n      0xffffffffffffffffffffffffffffffffffffffff\n      and\n      dup2\n      mstore\n      0x20\n      add\n      swap1\n      dup2\n      mstore\n      0x20\n      add\n      0x00\n      keccak256\n      0x00\n        /* \"contracts/GeekNft.sol\":2026:2055  itemsOwnerCount[msg.sender]++ */\n      dup2\n      sload\n      dup1\n      swap3\n      swap2\n      swap1\n      0x01\n      add\n      swap2\n      swap1\n      pop\n      sstore\n      pop\n        /* \"contracts/GeekNft.sol\":2069:2084  itemsCatIdCount */\n      0x09\n        /* \"contracts/GeekNft.sol\":2069:2092  itemsCatIdCount[_catId] */\n      0x00\n        /* \"contracts/GeekNft.sol\":2085:2091  _catId */\n      dup6\n        /* \"contracts/GeekNft.sol\":2069:2092  itemsCatIdCount[_catId] */\n      dup2\n      mstore\n      0x20\n      add\n      swap1\n      dup2\n      mstore\n      0x20\n      add\n      0x00\n      keccak256\n      0x00\n        /* \"contracts/GeekNft.sol\":2069:2094  itemsCatIdCount[_catId]++ */\n      dup2\n      sload\n      dup1\n      swap3\n      swap2\n      swap1\n      0x01\n      add\n      swap2\n      swap1\n      pop\n      sstore\n      pop\n        /* \"contracts/GeekNft.sol\":2108:2124  itemsToSellCount */\n      0x04\n      0x00\n        /* \"contracts/GeekNft.sol\":2108:2126  itemsToSellCount++ */\n      dup2\n      sload\n      dup1\n      swap3\n      swap2\n      swap1\n      0x01\n      add\n      swap2\n      swap1\n      pop\n      sstore\n      pop\n        /* \"contracts/GeekNft.sol\":2154:2159  owner */\n      0x02\n      0x00\n      swap1\n      sload\n      swap1\n      0x0100\n      exp\n      swap1\n      div\n      0xffffffffffffffffffffffffffffffffffffffff\n      and\n        /* \"contracts/GeekNft.sol\":2146:2169  payable(owner).transfer */\n      0xffffffffffffffffffffffffffffffffffffffff\n      and\n        /* \"contracts/GeekNft.sol\":2146:2180  payable(owner).transfer(msg.value) */\n      0x08fc\n        /* \"contracts/GeekNft.sol\":2170:2179  msg.value */\n      callvalue\n        /* \"contracts/GeekNft.sol\":2146:2180  payable(owner).transfer(msg.value) */\n      swap1\n      dup2\n      iszero\n      mul\n      swap1\n      mload(0x40)\n      0x00\n      mload(0x40)\n      dup1\n      dup4\n      sub\n      dup2\n      dup6\n      dup9\n      dup9\n      call\n      swap4\n      pop\n      pop\n      pop\n      pop\n      iszero\n      dup1\n      iszero\n      tag_188\n      jumpi\n      returndatasize\n      0x00\n      dup1\n      returndatacopy\n      revert(0x00, returndatasize)\n    tag_188:\n      pop\n        /* \"contracts/GeekNft.sol\":2197:2207  newTokenId */\n      dup1\n        /* \"contracts/GeekNft.sol\":2190:2207  return newTokenId */\n      swap3\n      pop\n      pop\n        /* \"contracts/GeekNft.sol\":1587:2214  function createItem(uint _price, uint _catId) public payable sendCorrectFeesValue(msg.value) returns (uint){... */\n      pop\n      swap3\n      swap2\n      pop\n      pop\n      jump\t// out\n        /* \"contracts/GeekNft.sol\":3887:4226  function addItemToSell(uint _tokenId) public payable onlyItemOwner(_tokenId) {... */\n    tag_71:\n        /* \"contracts/GeekNft.sol\":3954:3962  _tokenId */\n      dup1\n        /* \"contracts/GeekNft.sol\":916:926  msg.sender */\n      caller\n        /* \"contracts/GeekNft.sol\":891:926  itemToOwner[_tokenId] == msg.sender */\n      0xffffffffffffffffffffffffffffffffffffffff\n      and\n        /* \"contracts/GeekNft.sol\":891:902  itemToOwner */\n      0x07\n        /* \"contracts/GeekNft.sol\":891:912  itemToOwner[_tokenId] */\n      0x00\n        /* \"contracts/GeekNft.sol\":903:911  _tokenId */\n      dup4\n        /* \"contracts/GeekNft.sol\":891:912  itemToOwner[_tokenId] */\n      dup2\n      mstore\n      0x20\n      add\n      swap1\n      dup2\n      mstore\n      0x20\n      add\n      0x00\n      keccak256\n      0x00\n      swap1\n      sload\n      swap1\n      0x0100\n      exp\n      swap1\n      div\n      0xffffffffffffffffffffffffffffffffffffffff\n      and\n        /* \"contracts/GeekNft.sol\":891:926  itemToOwner[_tokenId] == msg.sender */\n      0xffffffffffffffffffffffffffffffffffffffff\n      and\n      eq\n        /* \"contracts/GeekNft.sol\":883:960  require(itemToOwner[_tokenId] == msg.sender, \"Only item's owner can do that\") */\n      tag_190\n      jumpi\n      mload(0x40)\n      0x08c379a000000000000000000000000000000000000000000000000000000000\n      dup2\n      mstore\n      0x04\n      add\n      tag_191\n      swap1\n      tag_164\n      jump\t// in\n    tag_191:\n      mload(0x40)\n      dup1\n      swap2\n      sub\n      swap1\n      revert\n    tag_190:\n        /* \"contracts/GeekNft.sol\":4015:4016  0 */\n      0x00\n        /* \"contracts/GeekNft.sol\":3982:4017  itemToOwner[_tokenId] != address(0) */\n      0xffffffffffffffffffffffffffffffffffffffff\n      and\n        /* \"contracts/GeekNft.sol\":3982:3993  itemToOwner */\n      0x07\n        /* \"contracts/GeekNft.sol\":3982:4003  itemToOwner[_tokenId] */\n      0x00\n        /* \"contracts/GeekNft.sol\":3994:4002  _tokenId */\n      dup5\n        /* \"contracts/GeekNft.sol\":3982:4003  itemToOwner[_tokenId] */\n      dup2\n      mstore\n      0x20\n      add\n      swap1\n      dup2\n      mstore\n      0x20\n      add\n      0x00\n      keccak256\n      0x00\n      swap1\n      sload\n      swap1\n      0x0100\n      exp\n      swap1\n      div\n      0xffffffffffffffffffffffffffffffffffffffff\n      and\n        /* \"contracts/GeekNft.sol\":3982:4017  itemToOwner[_tokenId] != address(0) */\n      0xffffffffffffffffffffffffffffffffffffffff\n      and\n      eq\n      iszero\n        /* \"contracts/GeekNft.sol\":3974:4041  require(itemToOwner[_tokenId] != address(0), \"token doesn't exist\") */\n      tag_193\n      jumpi\n      mload(0x40)\n      0x08c379a000000000000000000000000000000000000000000000000000000000\n      dup2\n      mstore\n      0x04\n      add\n      tag_194\n      swap1\n      tag_143\n      jump\t// in\n    tag_194:\n      mload(0x40)\n      dup1\n      swap2\n      sub\n      swap1\n      revert\n    tag_193:\n        /* \"contracts/GeekNft.sol\":4085:4090  false */\n      0x00\n        /* \"contracts/GeekNft.sol\":4059:4090  items[_tokenId].toSell == false */\n      iszero\n      iszero\n        /* \"contracts/GeekNft.sol\":4059:4064  items */\n      0x03\n        /* \"contracts/GeekNft.sol\":4065:4073  _tokenId */\n      dup4\n        /* \"contracts/GeekNft.sol\":4059:4074  items[_tokenId] */\n      dup2\n      sload\n      dup2\n      lt\n      tag_195\n      jumpi\n      mstore(0x00, 0x4e487b7100000000000000000000000000000000000000000000000000000000)\n      mstore(0x04, 0x32)\n      revert(0x00, 0x24)\n    tag_195:\n      swap1\n      0x00\n      mstore\n      keccak256(0x00, 0x20)\n      swap1\n      0x04\n      mul\n      add\n        /* \"contracts/GeekNft.sol\":4059:4081  items[_tokenId].toSell */\n      0x03\n      add\n      0x00\n      swap1\n      sload\n      swap1\n      0x0100\n      exp\n      swap1\n      div\n      0xff\n      and\n        /* \"contracts/GeekNft.sol\":4059:4090  items[_tokenId].toSell == false */\n      iszero\n      iszero\n      eq\n        /* \"contracts/GeekNft.sol\":4051:4119  require(items[_tokenId].toSell == false, \"token is already to sell\") */\n      tag_197\n      jumpi\n      mload(0x40)\n      0x08c379a000000000000000000000000000000000000000000000000000000000\n      dup2\n      mstore\n      0x04\n      add\n      tag_198\n      swap1\n      tag_199\n      jump\t// in\n    tag_198:\n      mload(0x40)\n      dup1\n      swap2\n      sub\n      swap1\n      revert\n    tag_197:\n        /* \"contracts/GeekNft.sol\":4154:4158  true */\n      0x01\n        /* \"contracts/GeekNft.sol\":4129:4134  items */\n      0x03\n        /* \"contracts/GeekNft.sol\":4135:4143  _tokenId */\n      dup4\n        /* \"contracts/GeekNft.sol\":4129:4144  items[_tokenId] */\n      dup2\n      sload\n      dup2\n      lt\n      tag_200\n      jumpi\n      mstore(0x00, 0x4e487b7100000000000000000000000000000000000000000000000000000000)\n      mstore(0x04, 0x32)\n      revert(0x00, 0x24)\n    tag_200:\n      swap1\n      0x00\n      mstore\n      keccak256(0x00, 0x20)\n      swap1\n      0x04\n      mul\n      add\n        /* \"contracts/GeekNft.sol\":4129:4151  items[_tokenId].toSell */\n      0x03\n      add\n      0x00\n        /* \"contracts/GeekNft.sol\":4129:4158  items[_tokenId].toSell = true */\n      0x0100\n      exp\n      dup2\n      sload\n      dup2\n      0xff\n      mul\n      not\n      and\n      swap1\n      dup4\n      iszero\n      iszero\n      mul\n      or\n      swap1\n      sstore\n      pop\n        /* \"contracts/GeekNft.sol\":4191:4207  itemsToSellCount */\n      0x04\n      0x00\n        /* \"contracts/GeekNft.sol\":4191:4209  itemsToSellCount++ */\n      dup2\n      sload\n      dup1\n      swap3\n      swap2\n      swap1\n      0x01\n      add\n      swap2\n      swap1\n      pop\n      sstore\n      pop\n        /* \"contracts/GeekNft.sol\":3887:4226  function addItemToSell(uint _tokenId) public payable onlyItemOwner(_tokenId) {... */\n      pop\n      pop\n      jump\t// out\n        /* \"contracts/GeekNft.sol\":1129:1240  function updateCreateItemFees(uint _newFees) public onlyContractOwner{... */\n    tag_75:\n        /* \"contracts/GeekNft.sol\":768:773  owner */\n      0x02\n      0x00\n      swap1\n      sload\n      swap1\n      0x0100\n      exp\n      swap1\n      div\n      0xffffffffffffffffffffffffffffffffffffffff\n      and\n        /* \"contracts/GeekNft.sol\":754:773  msg.sender == owner */\n      0xffffffffffffffffffffffffffffffffffffffff\n      and\n        /* \"contracts/GeekNft.sol\":754:764  msg.sender */\n      caller\n        /* \"contracts/GeekNft.sol\":754:773  msg.sender == owner */\n      0xffffffffffffffffffffffffffffffffffffffff\n      and\n      eq\n        /* \"contracts/GeekNft.sol\":746:811  require(msg.sender == owner, \"Only contract's owner can do that\") */\n      tag_203\n      jumpi\n      mload(0x40)\n      0x08c379a000000000000000000000000000000000000000000000000000000000\n      dup2\n      mstore\n      0x04\n      add\n      tag_204\n      swap1\n      tag_98\n      jump\t// in\n    tag_204:\n      mload(0x40)\n      dup1\n      swap2\n      sub\n      swap1\n      revert\n    tag_203:\n        /* \"contracts/GeekNft.sol\":1225:1233  _newFees */\n      dup1\n        /* \"contracts/GeekNft.sol\":1208:1222  createItemFees */\n      0x05\n        /* \"contracts/GeekNft.sol\":1208:1233  createItemFees = _newFees */\n      dup2\n      swap1\n      sstore\n      pop\n        /* \"contracts/GeekNft.sol\":1129:1240  function updateCreateItemFees(uint _newFees) public onlyContractOwner{... */\n      pop\n      jump\t// out\n        /* \"contracts/GeekNft.sol\":5486:5708  function getFees(uint _price, uint _percentage) private pure returns (uint, uint){... */\n    tag_154:\n        /* \"contracts/GeekNft.sol\":5556:5560  uint */\n      0x00\n        /* \"contracts/GeekNft.sol\":5562:5566  uint */\n      dup1\n        /* \"contracts/GeekNft.sol\":5577:5586  uint fees */\n      0x00\n        /* \"contracts/GeekNft.sol\":5614:5617  100 */\n      0x64\n        /* \"contracts/GeekNft.sol\":5604:5610  _price */\n      dup6\n        /* \"contracts/GeekNft.sol\":5590:5601  _percentage */\n      dup6\n        /* \"contracts/GeekNft.sol\":5590:5610  _percentage * _price */\n      tag_207\n      swap2\n      swap1\n      tag_208\n      jump\t// in\n    tag_207:\n        /* \"contracts/GeekNft.sol\":5589:5617  (_percentage * _price) / 100 */\n      tag_209\n      swap2\n      swap1\n      tag_210\n      jump\t// in\n    tag_209:\n        /* \"contracts/GeekNft.sol\":5577:5617  uint fees = (_percentage * _price) / 100 */\n      swap1\n      pop\n        /* \"contracts/GeekNft.sol\":5627:5646  uint totalMinusFees */\n      0x00\n        /* \"contracts/GeekNft.sol\":5658:5662  fees */\n      dup2\n        /* \"contracts/GeekNft.sol\":5649:5655  _price */\n      dup7\n        /* \"contracts/GeekNft.sol\":5649:5662  _price - fees */\n      tag_211\n      swap2\n      swap1\n      tag_212\n      jump\t// in\n    tag_211:\n        /* \"contracts/GeekNft.sol\":5627:5662  uint totalMinusFees = _price - fees */\n      swap1\n      pop\n        /* \"contracts/GeekNft.sol\":5680:5684  fees */\n      dup2\n        /* \"contracts/GeekNft.sol\":5686:5700  totalMinusFees */\n      dup2\n        /* \"contracts/GeekNft.sol\":5672:5701  return (fees, totalMinusFees) */\n      swap4\n      pop\n      swap4\n      pop\n      pop\n      pop\n        /* \"contracts/GeekNft.sol\":5486:5708  function getFees(uint _price, uint _percentage) private pure returns (uint, uint){... */\n      swap3\n      pop\n      swap3\n      swap1\n      pop\n      jump\t// out\n    tag_81:\n      mload(0x40)\n      dup1\n      0xa0\n      add\n      0x40\n      mstore\n      dup1\n      0x00\n      dup2\n      mstore\n      0x20\n      add\n      0x00\n      dup2\n      mstore\n      0x20\n      add\n      0x00\n      dup2\n      mstore\n      0x20\n      add\n      iszero(iszero(0x00))\n      dup2\n      mstore\n      0x20\n      add\n      and(0xffffffffffffffffffffffffffffffffffffffff, 0x00)\n      dup2\n      mstore\n      pop\n      swap1\n      jump\t// out\n        /* \"#utility.yul\":7:146   */\n    tag_214:\n      0x00\n        /* \"#utility.yul\":91:97   */\n      dup2\n        /* \"#utility.yul\":78:98   */\n      calldataload\n        /* \"#utility.yul\":69:98   */\n      swap1\n      pop\n        /* \"#utility.yul\":107:140   */\n      tag_216\n        /* \"#utility.yul\":134:139   */\n      dup2\n        /* \"#utility.yul\":107:140   */\n      tag_217\n      jump\t// in\n    tag_216:\n        /* \"#utility.yul\":59:146   */\n      swap3\n      swap2\n      pop\n      pop\n      jump\t// out\n        /* \"#utility.yul\":152:291   */\n    tag_218:\n      0x00\n        /* \"#utility.yul\":236:242   */\n      dup2\n        /* \"#utility.yul\":223:243   */\n      calldataload\n        /* \"#utility.yul\":214:243   */\n      swap1\n      pop\n        /* \"#utility.yul\":252:285   */\n      tag_220\n        /* \"#utility.yul\":279:284   */\n      dup2\n        /* \"#utility.yul\":252:285   */\n      tag_221\n      jump\t// in\n    tag_220:\n        /* \"#utility.yul\":204:291   */\n      swap3\n      swap2\n      pop\n      pop\n      jump\t// out\n        /* \"#utility.yul\":297:559   */\n    tag_50:\n      0x00\n        /* \"#utility.yul\":405:407   */\n      0x20\n        /* \"#utility.yul\":393:402   */\n      dup3\n        /* \"#utility.yul\":384:391   */\n      dup5\n        /* \"#utility.yul\":380:403   */\n      sub\n        /* \"#utility.yul\":376:408   */\n      slt\n        /* \"#utility.yul\":373:375   */\n      iszero\n      tag_223\n      jumpi\n        /* \"#utility.yul\":421:422   */\n      0x00\n        /* \"#utility.yul\":418:419   */\n      dup1\n        /* \"#utility.yul\":411:423   */\n      revert\n        /* \"#utility.yul\":373:375   */\n    tag_223:\n        /* \"#utility.yul\":464:465   */\n      0x00\n        /* \"#utility.yul\":489:542   */\n      tag_224\n        /* \"#utility.yul\":534:541   */\n      dup5\n        /* \"#utility.yul\":525:531   */\n      dup3\n        /* \"#utility.yul\":514:523   */\n      dup6\n        /* \"#utility.yul\":510:532   */\n      add\n        /* \"#utility.yul\":489:542   */\n      tag_214\n      jump\t// in\n    tag_224:\n        /* \"#utility.yul\":479:542   */\n      swap2\n      pop\n        /* \"#utility.yul\":435:552   */\n      pop\n        /* \"#utility.yul\":363:559   */\n      swap3\n      swap2\n      pop\n      pop\n      jump\t// out\n        /* \"#utility.yul\":565:827   */\n    tag_30:\n      0x00\n        /* \"#utility.yul\":673:675   */\n      0x20\n        /* \"#utility.yul\":661:670   */\n      dup3\n        /* \"#utility.yul\":652:659   */\n      dup5\n        /* \"#utility.yul\":648:671   */\n      sub\n        /* \"#utility.yul\":644:676   */\n      slt\n        /* \"#utility.yul\":641:643   */\n      iszero\n      tag_226\n      jumpi\n        /* \"#utility.yul\":689:690   */\n      0x00\n        /* \"#utility.yul\":686:687   */\n      dup1\n        /* \"#utility.yul\":679:691   */\n      revert\n        /* \"#utility.yul\":641:643   */\n    tag_226:\n        /* \"#utility.yul\":732:733   */\n      0x00\n        /* \"#utility.yul\":757:810   */\n      tag_227\n        /* \"#utility.yul\":802:809   */\n      dup5\n        /* \"#utility.yul\":793:799   */\n      dup3\n        /* \"#utility.yul\":782:791   */\n      dup6\n        /* \"#utility.yul\":778:800   */\n      add\n        /* \"#utility.yul\":757:810   */\n      tag_218\n      jump\t// in\n    tag_227:\n        /* \"#utility.yul\":747:810   */\n      swap2\n      pop\n        /* \"#utility.yul\":703:820   */\n      pop\n        /* \"#utility.yul\":631:827   */\n      swap3\n      swap2\n      pop\n      pop\n      jump\t// out\n        /* \"#utility.yul\":833:1240   */\n    tag_66:\n      0x00\n      dup1\n        /* \"#utility.yul\":958:960   */\n      0x40\n        /* \"#utility.yul\":946:955   */\n      dup4\n        /* \"#utility.yul\":937:944   */\n      dup6\n        /* \"#utility.yul\":933:956   */\n      sub\n        /* \"#utility.yul\":929:961   */\n      slt\n        /* \"#utility.yul\":926:928   */\n      iszero\n      tag_229\n      jumpi\n        /* \"#utility.yul\":974:975   */\n      0x00\n        /* \"#utility.yul\":971:972   */\n      dup1\n        /* \"#utility.yul\":964:976   */\n      revert\n        /* \"#utility.yul\":926:928   */\n    tag_229:\n        /* \"#utility.yul\":1017:1018   */\n      0x00\n        /* \"#utility.yul\":1042:1095   */\n      tag_230\n        /* \"#utility.yul\":1087:1094   */\n      dup6\n        /* \"#utility.yul\":1078:1084   */\n      dup3\n        /* \"#utility.yul\":1067:1076   */\n      dup7\n        /* \"#utility.yul\":1063:1085   */\n      add\n        /* \"#utility.yul\":1042:1095   */\n      tag_218\n      jump\t// in\n    tag_230:\n        /* \"#utility.yul\":1032:1095   */\n      swap3\n      pop\n        /* \"#utility.yul\":988:1105   */\n      pop\n        /* \"#utility.yul\":1144:1146   */\n      0x20\n        /* \"#utility.yul\":1170:1223   */\n      tag_231\n        /* \"#utility.yul\":1215:1222   */\n      dup6\n        /* \"#utility.yul\":1206:1212   */\n      dup3\n        /* \"#utility.yul\":1195:1204   */\n      dup7\n        /* \"#utility.yul\":1191:1213   */\n      add\n        /* \"#utility.yul\":1170:1223   */\n      tag_218\n      jump\t// in\n    tag_231:\n        /* \"#utility.yul\":1160:1223   */\n      swap2\n      pop\n        /* \"#utility.yul\":1115:1233   */\n      pop\n        /* \"#utility.yul\":916:1240   */\n      swap3\n      pop\n      swap3\n      swap1\n      pop\n      jump\t// out\n        /* \"#utility.yul\":1246:1505   */\n    tag_232:\n      0x00\n        /* \"#utility.yul\":1376:1462   */\n      tag_234\n        /* \"#utility.yul\":1458:1461   */\n      dup4\n        /* \"#utility.yul\":1450:1456   */\n      dup4\n        /* \"#utility.yul\":1376:1462   */\n      tag_235\n      jump\t// in\n    tag_234:\n        /* \"#utility.yul\":1494:1498   */\n      0xa0\n        /* \"#utility.yul\":1489:1492   */\n      dup4\n        /* \"#utility.yul\":1485:1499   */\n      add\n        /* \"#utility.yul\":1471:1499   */\n      swap1\n      pop\n        /* \"#utility.yul\":1366:1505   */\n      swap3\n      swap2\n      pop\n      pop\n      jump\t// out\n        /* \"#utility.yul\":1511:1619   */\n    tag_236:\n        /* \"#utility.yul\":1588:1612   */\n      tag_238\n        /* \"#utility.yul\":1606:1611   */\n      dup2\n        /* \"#utility.yul\":1588:1612   */\n      tag_239\n      jump\t// in\n    tag_238:\n        /* \"#utility.yul\":1583:1586   */\n      dup3\n        /* \"#utility.yul\":1576:1613   */\n      mstore\n        /* \"#utility.yul\":1566:1619   */\n      pop\n      pop\n      jump\t// out\n        /* \"#utility.yul\":1625:1743   */\n    tag_240:\n        /* \"#utility.yul\":1712:1736   */\n      tag_242\n        /* \"#utility.yul\":1730:1735   */\n      dup2\n        /* \"#utility.yul\":1712:1736   */\n      tag_239\n      jump\t// in\n    tag_242:\n        /* \"#utility.yul\":1707:1710   */\n      dup3\n        /* \"#utility.yul\":1700:1737   */\n      mstore\n        /* \"#utility.yul\":1690:1743   */\n      pop\n      pop\n      jump\t// out\n        /* \"#utility.yul\":1803:2695   */\n    tag_243:\n      0x00\n        /* \"#utility.yul\":1991:2065   */\n      tag_245\n        /* \"#utility.yul\":2059:2064   */\n      dup3\n        /* \"#utility.yul\":1991:2065   */\n      tag_246\n      jump\t// in\n    tag_245:\n        /* \"#utility.yul\":2081:2187   */\n      tag_247\n        /* \"#utility.yul\":2180:2186   */\n      dup2\n        /* \"#utility.yul\":2175:2178   */\n      dup6\n        /* \"#utility.yul\":2081:2187   */\n      tag_248\n      jump\t// in\n    tag_247:\n        /* \"#utility.yul\":2074:2187   */\n      swap4\n      pop\n        /* \"#utility.yul\":2211:2287   */\n      tag_249\n        /* \"#utility.yul\":2281:2286   */\n      dup4\n        /* \"#utility.yul\":2211:2287   */\n      tag_250\n      jump\t// in\n    tag_249:\n        /* \"#utility.yul\":2310:2317   */\n      dup1\n        /* \"#utility.yul\":2341:2342   */\n      0x00\n        /* \"#utility.yul\":2326:2670   */\n    tag_251:\n        /* \"#utility.yul\":2351:2357   */\n      dup4\n        /* \"#utility.yul\":2348:2349   */\n      dup2\n        /* \"#utility.yul\":2345:2358   */\n      lt\n        /* \"#utility.yul\":2326:2670   */\n      iszero\n      tag_253\n      jumpi\n        /* \"#utility.yul\":2427:2433   */\n      dup2\n        /* \"#utility.yul\":2421:2434   */\n      mload\n        /* \"#utility.yul\":2454:2557   */\n      tag_254\n        /* \"#utility.yul\":2553:2556   */\n      dup9\n        /* \"#utility.yul\":2538:2551   */\n      dup3\n        /* \"#utility.yul\":2454:2557   */\n      tag_232\n      jump\t// in\n    tag_254:\n        /* \"#utility.yul\":2447:2557   */\n      swap8\n      pop\n        /* \"#utility.yul\":2580:2660   */\n      tag_255\n        /* \"#utility.yul\":2653:2659   */\n      dup4\n        /* \"#utility.yul\":2580:2660   */\n      tag_256\n      jump\t// in\n    tag_255:\n        /* \"#utility.yul\":2570:2660   */\n      swap3\n      pop\n        /* \"#utility.yul\":2386:2670   */\n      pop\n        /* \"#utility.yul\":2373:2374   */\n      0x01\n        /* \"#utility.yul\":2370:2371   */\n      dup2\n        /* \"#utility.yul\":2366:2375   */\n      add\n        /* \"#utility.yul\":2361:2375   */\n      swap1\n      pop\n        /* \"#utility.yul\":2326:2670   */\n      jump(tag_251)\n    tag_253:\n        /* \"#utility.yul\":2330:2344   */\n      pop\n        /* \"#utility.yul\":2686:2689   */\n      dup6\n        /* \"#utility.yul\":2679:2689   */\n      swap4\n      pop\n        /* \"#utility.yul\":1967:2695   */\n      pop\n      pop\n      pop\n      swap3\n      swap2\n      pop\n      pop\n      jump\t// out\n        /* \"#utility.yul\":2701:2800   */\n    tag_257:\n        /* \"#utility.yul\":2772:2793   */\n      tag_259\n        /* \"#utility.yul\":2787:2792   */\n      dup2\n        /* \"#utility.yul\":2772:2793   */\n      tag_260\n      jump\t// in\n    tag_259:\n        /* \"#utility.yul\":2767:2770   */\n      dup3\n        /* \"#utility.yul\":2760:2794   */\n      mstore\n        /* \"#utility.yul\":2750:2800   */\n      pop\n      pop\n      jump\t// out\n        /* \"#utility.yul\":2806:3172   */\n    tag_261:\n      0x00\n        /* \"#utility.yul\":2969:3036   */\n      tag_263\n        /* \"#utility.yul\":3033:3035   */\n      0x29\n        /* \"#utility.yul\":3028:3031   */\n      dup4\n        /* \"#utility.yul\":2969:3036   */\n      tag_264\n      jump\t// in\n    tag_263:\n        /* \"#utility.yul\":2962:3036   */\n      swap2\n      pop\n        /* \"#utility.yul\":3045:3138   */\n      tag_265\n        /* \"#utility.yul\":3134:3137   */\n      dup3\n        /* \"#utility.yul\":3045:3138   */\n      tag_266\n      jump\t// in\n    tag_265:\n        /* \"#utility.yul\":3163:3165   */\n      0x40\n        /* \"#utility.yul\":3158:3161   */\n      dup3\n        /* \"#utility.yul\":3154:3166   */\n      add\n        /* \"#utility.yul\":3147:3166   */\n      swap1\n      pop\n        /* \"#utility.yul\":2952:3172   */\n      swap2\n      swap1\n      pop\n      jump\t// out\n        /* \"#utility.yul\":3178:3544   */\n    tag_267:\n      0x00\n        /* \"#utility.yul\":3341:3408   */\n      tag_269\n        /* \"#utility.yul\":3405:3407   */\n      0x13\n        /* \"#utility.yul\":3400:3403   */\n      dup4\n        /* \"#utility.yul\":3341:3408   */\n      tag_264\n      jump\t// in\n    tag_269:\n        /* \"#utility.yul\":3334:3408   */\n      swap2\n      pop\n        /* \"#utility.yul\":3417:3510   */\n      tag_270\n        /* \"#utility.yul\":3506:3509   */\n      dup3\n        /* \"#utility.yul\":3417:3510   */\n      tag_271\n      jump\t// in\n    tag_270:\n        /* \"#utility.yul\":3535:3537   */\n      0x20\n        /* \"#utility.yul\":3530:3533   */\n      dup3\n        /* \"#utility.yul\":3526:3538   */\n      add\n        /* \"#utility.yul\":3519:3538   */\n      swap1\n      pop\n        /* \"#utility.yul\":3324:3544   */\n      swap2\n      swap1\n      pop\n      jump\t// out\n        /* \"#utility.yul\":3550:3916   */\n    tag_272:\n      0x00\n        /* \"#utility.yul\":3713:3780   */\n      tag_274\n        /* \"#utility.yul\":3777:3779   */\n      0x13\n        /* \"#utility.yul\":3772:3775   */\n      dup4\n        /* \"#utility.yul\":3713:3780   */\n      tag_264\n      jump\t// in\n    tag_274:\n        /* \"#utility.yul\":3706:3780   */\n      swap2\n      pop\n        /* \"#utility.yul\":3789:3882   */\n      tag_275\n        /* \"#utility.yul\":3878:3881   */\n      dup3\n        /* \"#utility.yul\":3789:3882   */\n      tag_276\n      jump\t// in\n    tag_275:\n        /* \"#utility.yul\":3907:3909   */\n      0x20\n        /* \"#utility.yul\":3902:3905   */\n      dup3\n        /* \"#utility.yul\":3898:3910   */\n      add\n        /* \"#utility.yul\":3891:3910   */\n      swap1\n      pop\n        /* \"#utility.yul\":3696:3916   */\n      swap2\n      swap1\n      pop\n      jump\t// out\n        /* \"#utility.yul\":3922:4288   */\n    tag_277:\n      0x00\n        /* \"#utility.yul\":4085:4152   */\n      tag_279\n        /* \"#utility.yul\":4149:4151   */\n      0x35\n        /* \"#utility.yul\":4144:4147   */\n      dup4\n        /* \"#utility.yul\":4085:4152   */\n      tag_264\n      jump\t// in\n    tag_279:\n        /* \"#utility.yul\":4078:4152   */\n      swap2\n      pop\n        /* \"#utility.yul\":4161:4254   */\n      tag_280\n        /* \"#utility.yul\":4250:4253   */\n      dup3\n        /* \"#utility.yul\":4161:4254   */\n      tag_281\n      jump\t// in\n    tag_280:\n        /* \"#utility.yul\":4279:4281   */\n      0x40\n        /* \"#utility.yul\":4274:4277   */\n      dup3\n        /* \"#utility.yul\":4270:4282   */\n      add\n        /* \"#utility.yul\":4263:4282   */\n      swap1\n      pop\n        /* \"#utility.yul\":4068:4288   */\n      swap2\n      swap1\n      pop\n      jump\t// out\n        /* \"#utility.yul\":4294:4660   */\n    tag_282:\n      0x00\n        /* \"#utility.yul\":4457:4524   */\n      tag_284\n        /* \"#utility.yul\":4521:4523   */\n      0x13\n        /* \"#utility.yul\":4516:4519   */\n      dup4\n        /* \"#utility.yul\":4457:4524   */\n      tag_264\n      jump\t// in\n    tag_284:\n        /* \"#utility.yul\":4450:4524   */\n      swap2\n      pop\n        /* \"#utility.yul\":4533:4626   */\n      tag_285\n        /* \"#utility.yul\":4622:4625   */\n      dup3\n        /* \"#utility.yul\":4533:4626   */\n      tag_286\n      jump\t// in\n    tag_285:\n        /* \"#utility.yul\":4651:4653   */\n      0x20\n        /* \"#utility.yul\":4646:4649   */\n      dup3\n        /* \"#utility.yul\":4642:4654   */\n      add\n        /* \"#utility.yul\":4635:4654   */\n      swap1\n      pop\n        /* \"#utility.yul\":4440:4660   */\n      swap2\n      swap1\n      pop\n      jump\t// out\n        /* \"#utility.yul\":4666:5032   */\n    tag_287:\n      0x00\n        /* \"#utility.yul\":4829:4896   */\n      tag_289\n        /* \"#utility.yul\":4893:4895   */\n      0x1d\n        /* \"#utility.yul\":4888:4891   */\n      dup4\n        /* \"#utility.yul\":4829:4896   */\n      tag_264\n      jump\t// in\n    tag_289:\n        /* \"#utility.yul\":4822:4896   */\n      swap2\n      pop\n        /* \"#utility.yul\":4905:4998   */\n      tag_290\n        /* \"#utility.yul\":4994:4997   */\n      dup3\n        /* \"#utility.yul\":4905:4998   */\n      tag_291\n      jump\t// in\n    tag_290:\n        /* \"#utility.yul\":5023:5025   */\n      0x20\n        /* \"#utility.yul\":5018:5021   */\n      dup3\n        /* \"#utility.yul\":5014:5026   */\n      add\n        /* \"#utility.yul\":5007:5026   */\n      swap1\n      pop\n        /* \"#utility.yul\":4812:5032   */\n      swap2\n      swap1\n      pop\n      jump\t// out\n        /* \"#utility.yul\":5038:5404   */\n    tag_292:\n      0x00\n        /* \"#utility.yul\":5201:5268   */\n      tag_294\n        /* \"#utility.yul\":5265:5267   */\n      0x18\n        /* \"#utility.yul\":5260:5263   */\n      dup4\n        /* \"#utility.yul\":5201:5268   */\n      tag_264\n      jump\t// in\n    tag_294:\n        /* \"#utility.yul\":5194:5268   */\n      swap2\n      pop\n        /* \"#utility.yul\":5277:5370   */\n      tag_295\n        /* \"#utility.yul\":5366:5369   */\n      dup3\n        /* \"#utility.yul\":5277:5370   */\n      tag_296\n      jump\t// in\n    tag_295:\n        /* \"#utility.yul\":5395:5397   */\n      0x20\n        /* \"#utility.yul\":5390:5393   */\n      dup3\n        /* \"#utility.yul\":5386:5398   */\n      add\n        /* \"#utility.yul\":5379:5398   */\n      swap1\n      pop\n        /* \"#utility.yul\":5184:5404   */\n      swap2\n      swap1\n      pop\n      jump\t// out\n        /* \"#utility.yul\":5410:5776   */\n    tag_297:\n      0x00\n        /* \"#utility.yul\":5573:5640   */\n      tag_299\n        /* \"#utility.yul\":5637:5639   */\n      0x21\n        /* \"#utility.yul\":5632:5635   */\n      dup4\n        /* \"#utility.yul\":5573:5640   */\n      tag_264\n      jump\t// in\n    tag_299:\n        /* \"#utility.yul\":5566:5640   */\n      swap2\n      pop\n        /* \"#utility.yul\":5649:5742   */\n      tag_300\n        /* \"#utility.yul\":5738:5741   */\n      dup3\n        /* \"#utility.yul\":5649:5742   */\n      tag_301\n      jump\t// in\n    tag_300:\n        /* \"#utility.yul\":5767:5769   */\n      0x40\n        /* \"#utility.yul\":5762:5765   */\n      dup3\n        /* \"#utility.yul\":5758:5770   */\n      add\n        /* \"#utility.yul\":5751:5770   */\n      swap1\n      pop\n        /* \"#utility.yul\":5556:5776   */\n      swap2\n      swap1\n      pop\n      jump\t// out\n        /* \"#utility.yul\":5782:6148   */\n    tag_302:\n      0x00\n        /* \"#utility.yul\":5945:6012   */\n      tag_304\n        /* \"#utility.yul\":6009:6011   */\n      0x21\n        /* \"#utility.yul\":6004:6007   */\n      dup4\n        /* \"#utility.yul\":5945:6012   */\n      tag_264\n      jump\t// in\n    tag_304:\n        /* \"#utility.yul\":5938:6012   */\n      swap2\n      pop\n        /* \"#utility.yul\":6021:6114   */\n      tag_305\n        /* \"#utility.yul\":6110:6113   */\n      dup3\n        /* \"#utility.yul\":6021:6114   */\n      tag_306\n      jump\t// in\n    tag_305:\n        /* \"#utility.yul\":6139:6141   */\n      0x40\n        /* \"#utility.yul\":6134:6137   */\n      dup3\n        /* \"#utility.yul\":6130:6142   */\n      add\n        /* \"#utility.yul\":6123:6142   */\n      swap1\n      pop\n        /* \"#utility.yul\":5928:6148   */\n      swap2\n      swap1\n      pop\n      jump\t// out\n        /* \"#utility.yul\":6154:6520   */\n    tag_307:\n      0x00\n        /* \"#utility.yul\":6317:6384   */\n      tag_309\n        /* \"#utility.yul\":6381:6383   */\n      0x1a\n        /* \"#utility.yul\":6376:6379   */\n      dup4\n        /* \"#utility.yul\":6317:6384   */\n      tag_264\n      jump\t// in\n    tag_309:\n        /* \"#utility.yul\":6310:6384   */\n      swap2\n      pop\n        /* \"#utility.yul\":6393:6486   */\n      tag_310\n        /* \"#utility.yul\":6482:6485   */\n      dup3\n        /* \"#utility.yul\":6393:6486   */\n      tag_311\n      jump\t// in\n    tag_310:\n        /* \"#utility.yul\":6511:6513   */\n      0x20\n        /* \"#utility.yul\":6506:6509   */\n      dup3\n        /* \"#utility.yul\":6502:6514   */\n      add\n        /* \"#utility.yul\":6495:6514   */\n      swap1\n      pop\n        /* \"#utility.yul\":6300:6520   */\n      swap2\n      swap1\n      pop\n      jump\t// out\n        /* \"#utility.yul\":6576:7589   */\n    tag_235:\n        /* \"#utility.yul\":6703:6707   */\n      0xa0\n        /* \"#utility.yul\":6698:6701   */\n      dup3\n        /* \"#utility.yul\":6694:6708   */\n      add\n        /* \"#utility.yul\":6793:6797   */\n      0x00\n        /* \"#utility.yul\":6786:6791   */\n      dup3\n        /* \"#utility.yul\":6782:6798   */\n      add\n        /* \"#utility.yul\":6776:6799   */\n      mload\n        /* \"#utility.yul\":6812:6875   */\n      tag_313\n        /* \"#utility.yul\":6869:6873   */\n      0x00\n        /* \"#utility.yul\":6864:6867   */\n      dup6\n        /* \"#utility.yul\":6860:6874   */\n      add\n        /* \"#utility.yul\":6846:6858   */\n      dup3\n        /* \"#utility.yul\":6812:6875   */\n      tag_314\n      jump\t// in\n    tag_313:\n        /* \"#utility.yul\":6718:6885   */\n      pop\n        /* \"#utility.yul\":6968:6972   */\n      0x20\n        /* \"#utility.yul\":6961:6966   */\n      dup3\n        /* \"#utility.yul\":6957:6973   */\n      add\n        /* \"#utility.yul\":6951:6974   */\n      mload\n        /* \"#utility.yul\":6987:7050   */\n      tag_315\n        /* \"#utility.yul\":7044:7048   */\n      0x20\n        /* \"#utility.yul\":7039:7042   */\n      dup6\n        /* \"#utility.yul\":7035:7049   */\n      add\n        /* \"#utility.yul\":7021:7033   */\n      dup3\n        /* \"#utility.yul\":6987:7050   */\n      tag_314\n      jump\t// in\n    tag_315:\n        /* \"#utility.yul\":6895:7060   */\n      pop\n        /* \"#utility.yul\":7143:7147   */\n      0x40\n        /* \"#utility.yul\":7136:7141   */\n      dup3\n        /* \"#utility.yul\":7132:7148   */\n      add\n        /* \"#utility.yul\":7126:7149   */\n      mload\n        /* \"#utility.yul\":7162:7225   */\n      tag_316\n        /* \"#utility.yul\":7219:7223   */\n      0x40\n        /* \"#utility.yul\":7214:7217   */\n      dup6\n        /* \"#utility.yul\":7210:7224   */\n      add\n        /* \"#utility.yul\":7196:7208   */\n      dup3\n        /* \"#utility.yul\":7162:7225   */\n      tag_314\n      jump\t// in\n    tag_316:\n        /* \"#utility.yul\":7070:7235   */\n      pop\n        /* \"#utility.yul\":7319:7323   */\n      0x60\n        /* \"#utility.yul\":7312:7317   */\n      dup3\n        /* \"#utility.yul\":7308:7324   */\n      add\n        /* \"#utility.yul\":7302:7325   */\n      mload\n        /* \"#utility.yul\":7338:7395   */\n      tag_317\n        /* \"#utility.yul\":7389:7393   */\n      0x60\n        /* \"#utility.yul\":7384:7387   */\n      dup6\n        /* \"#utility.yul\":7380:7394   */\n      add\n        /* \"#utility.yul\":7366:7378   */\n      dup3\n        /* \"#utility.yul\":7338:7395   */\n      tag_257\n      jump\t// in\n    tag_317:\n        /* \"#utility.yul\":7245:7405   */\n      pop\n        /* \"#utility.yul\":7490:7494   */\n      0x80\n        /* \"#utility.yul\":7483:7488   */\n      dup3\n        /* \"#utility.yul\":7479:7495   */\n      add\n        /* \"#utility.yul\":7473:7496   */\n      mload\n        /* \"#utility.yul\":7509:7572   */\n      tag_318\n        /* \"#utility.yul\":7566:7570   */\n      0x80\n        /* \"#utility.yul\":7561:7564   */\n      dup6\n        /* \"#utility.yul\":7557:7571   */\n      add\n        /* \"#utility.yul\":7543:7555   */\n      dup3\n        /* \"#utility.yul\":7509:7572   */\n      tag_236\n      jump\t// in\n    tag_318:\n        /* \"#utility.yul\":7415:7582   */\n      pop\n        /* \"#utility.yul\":6672:7589   */\n      pop\n      pop\n      pop\n      jump\t// out\n        /* \"#utility.yul\":7595:7703   */\n    tag_314:\n        /* \"#utility.yul\":7672:7696   */\n      tag_320\n        /* \"#utility.yul\":7690:7695   */\n      dup2\n        /* \"#utility.yul\":7672:7696   */\n      tag_321\n      jump\t// in\n    tag_320:\n        /* \"#utility.yul\":7667:7670   */\n      dup3\n        /* \"#utility.yul\":7660:7697   */\n      mstore\n        /* \"#utility.yul\":7650:7703   */\n      pop\n      pop\n      jump\t// out\n        /* \"#utility.yul\":7709:7827   */\n    tag_322:\n        /* \"#utility.yul\":7796:7820   */\n      tag_324\n        /* \"#utility.yul\":7814:7819   */\n      dup2\n        /* \"#utility.yul\":7796:7820   */\n      tag_321\n      jump\t// in\n    tag_324:\n        /* \"#utility.yul\":7791:7794   */\n      dup3\n        /* \"#utility.yul\":7784:7821   */\n      mstore\n        /* \"#utility.yul\":7774:7827   */\n      pop\n      pop\n      jump\t// out\n        /* \"#utility.yul\":7833:8055   */\n    tag_46:\n      0x00\n        /* \"#utility.yul\":7964:7966   */\n      0x20\n        /* \"#utility.yul\":7953:7962   */\n      dup3\n        /* \"#utility.yul\":7949:7967   */\n      add\n        /* \"#utility.yul\":7941:7967   */\n      swap1\n      pop\n        /* \"#utility.yul\":7977:8048   */\n      tag_326\n        /* \"#utility.yul\":8045:8046   */\n      0x00\n        /* \"#utility.yul\":8034:8043   */\n      dup4\n        /* \"#utility.yul\":8030:8047   */\n      add\n        /* \"#utility.yul\":8021:8027   */\n      dup5\n        /* \"#utility.yul\":7977:8048   */\n      tag_240\n      jump\t// in\n    tag_326:\n        /* \"#utility.yul\":7931:8055   */\n      swap3\n      swap2\n      pop\n      pop\n      jump\t// out\n        /* \"#utility.yul\":8061:8514   */\n    tag_21:\n      0x00\n        /* \"#utility.yul\":8282:8284   */\n      0x20\n        /* \"#utility.yul\":8271:8280   */\n      dup3\n        /* \"#utility.yul\":8267:8285   */\n      add\n        /* \"#utility.yul\":8259:8285   */\n      swap1\n      pop\n        /* \"#utility.yul\":8331:8340   */\n      dup2\n        /* \"#utility.yul\":8325:8329   */\n      dup2\n        /* \"#utility.yul\":8321:8341   */\n      sub\n        /* \"#utility.yul\":8317:8318   */\n      0x00\n        /* \"#utility.yul\":8306:8315   */\n      dup4\n        /* \"#utility.yul\":8302:8319   */\n      add\n        /* \"#utility.yul\":8295:8342   */\n      mstore\n        /* \"#utility.yul\":8359:8507   */\n      tag_328\n        /* \"#utility.yul\":8502:8506   */\n      dup2\n        /* \"#utility.yul\":8493:8499   */\n      dup5\n        /* \"#utility.yul\":8359:8507   */\n      tag_243\n      jump\t// in\n    tag_328:\n        /* \"#utility.yul\":8351:8507   */\n      swap1\n      pop\n        /* \"#utility.yul\":8249:8514   */\n      swap3\n      swap2\n      pop\n      pop\n      jump\t// out\n        /* \"#utility.yul\":8520:8939   */\n    tag_146:\n      0x00\n        /* \"#utility.yul\":8724:8726   */\n      0x20\n        /* \"#utility.yul\":8713:8722   */\n      dup3\n        /* \"#utility.yul\":8709:8727   */\n      add\n        /* \"#utility.yul\":8701:8727   */\n      swap1\n      pop\n        /* \"#utility.yul\":8773:8782   */\n      dup2\n        /* \"#utility.yul\":8767:8771   */\n      dup2\n        /* \"#utility.yul\":8763:8783   */\n      sub\n        /* \"#utility.yul\":8759:8760   */\n      0x00\n        /* \"#utility.yul\":8748:8757   */\n      dup4\n        /* \"#utility.yul\":8744:8761   */\n      add\n        /* \"#utility.yul\":8737:8784   */\n      mstore\n        /* \"#utility.yul\":8801:8932   */\n      tag_330\n        /* \"#utility.yul\":8927:8931   */\n      dup2\n        /* \"#utility.yul\":8801:8932   */\n      tag_261\n      jump\t// in\n    tag_330:\n        /* \"#utility.yul\":8793:8932   */\n      swap1\n      pop\n        /* \"#utility.yul\":8691:8939   */\n      swap2\n      swap1\n      pop\n      jump\t// out\n        /* \"#utility.yul\":8945:9364   */\n    tag_172:\n      0x00\n        /* \"#utility.yul\":9149:9151   */\n      0x20\n        /* \"#utility.yul\":9138:9147   */\n      dup3\n        /* \"#utility.yul\":9134:9152   */\n      add\n        /* \"#utility.yul\":9126:9152   */\n      swap1\n      pop\n        /* \"#utility.yul\":9198:9207   */\n      dup2\n        /* \"#utility.yul\":9192:9196   */\n      dup2\n        /* \"#utility.yul\":9188:9208   */\n      sub\n        /* \"#utility.yul\":9184:9185   */\n      0x00\n        /* \"#utility.yul\":9173:9182   */\n      dup4\n        /* \"#utility.yul\":9169:9186   */\n      add\n        /* \"#utility.yul\":9162:9209   */\n      mstore\n        /* \"#utility.yul\":9226:9357   */\n      tag_332\n        /* \"#utility.yul\":9352:9356   */\n      dup2\n        /* \"#utility.yul\":9226:9357   */\n      tag_267\n      jump\t// in\n    tag_332:\n        /* \"#utility.yul\":9218:9357   */\n      swap1\n      pop\n        /* \"#utility.yul\":9116:9364   */\n      swap2\n      swap1\n      pop\n      jump\t// out\n        /* \"#utility.yul\":9370:9789   */\n    tag_185:\n      0x00\n        /* \"#utility.yul\":9574:9576   */\n      0x20\n        /* \"#utility.yul\":9563:9572   */\n      dup3\n        /* \"#utility.yul\":9559:9577   */\n      add\n        /* \"#utility.yul\":9551:9577   */\n      swap1\n      pop\n        /* \"#utility.yul\":9623:9632   */\n      dup2\n        /* \"#utility.yul\":9617:9621   */\n      dup2\n        /* \"#utility.yul\":9613:9633   */\n      sub\n        /* \"#utility.yul\":9609:9610   */\n      0x00\n        /* \"#utility.yul\":9598:9607   */\n      dup4\n        /* \"#utility.yul\":9594:9611   */\n      add\n        /* \"#utility.yul\":9587:9634   */\n      mstore\n        /* \"#utility.yul\":9651:9782   */\n      tag_334\n        /* \"#utility.yul\":9777:9781   */\n      dup2\n        /* \"#utility.yul\":9651:9782   */\n      tag_272\n      jump\t// in\n    tag_334:\n        /* \"#utility.yul\":9643:9782   */\n      swap1\n      pop\n        /* \"#utility.yul\":9541:9789   */\n      swap2\n      swap1\n      pop\n      jump\t// out\n        /* \"#utility.yul\":9795:10214   */\n    tag_140:\n      0x00\n        /* \"#utility.yul\":9999:10001   */\n      0x20\n        /* \"#utility.yul\":9988:9997   */\n      dup3\n        /* \"#utility.yul\":9984:10002   */\n      add\n        /* \"#utility.yul\":9976:10002   */\n      swap1\n      pop\n        /* \"#utility.yul\":10048:10057   */\n      dup2\n        /* \"#utility.yul\":10042:10046   */\n      dup2\n        /* \"#utility.yul\":10038:10058   */\n      sub\n        /* \"#utility.yul\":10034:10035   */\n      0x00\n        /* \"#utility.yul\":10023:10032   */\n      dup4\n        /* \"#utility.yul\":10019:10036   */\n      add\n        /* \"#utility.yul\":10012:10059   */\n      mstore\n        /* \"#utility.yul\":10076:10207   */\n      tag_336\n        /* \"#utility.yul\":10202:10206   */\n      dup2\n        /* \"#utility.yul\":10076:10207   */\n      tag_277\n      jump\t// in\n    tag_336:\n        /* \"#utility.yul\":10068:10207   */\n      swap1\n      pop\n        /* \"#utility.yul\":9966:10214   */\n      swap2\n      swap1\n      pop\n      jump\t// out\n        /* \"#utility.yul\":10220:10639   */\n    tag_143:\n      0x00\n        /* \"#utility.yul\":10424:10426   */\n      0x20\n        /* \"#utility.yul\":10413:10422   */\n      dup3\n        /* \"#utility.yul\":10409:10427   */\n      add\n        /* \"#utility.yul\":10401:10427   */\n      swap1\n      pop\n        /* \"#utility.yul\":10473:10482   */\n      dup2\n        /* \"#utility.yul\":10467:10471   */\n      dup2\n        /* \"#utility.yul\":10463:10483   */\n      sub\n        /* \"#utility.yul\":10459:10460   */\n      0x00\n        /* \"#utility.yul\":10448:10457   */\n      dup4\n        /* \"#utility.yul\":10444:10461   */\n      add\n        /* \"#utility.yul\":10437:10484   */\n      mstore\n        /* \"#utility.yul\":10501:10632   */\n      tag_338\n        /* \"#utility.yul\":10627:10631   */\n      dup2\n        /* \"#utility.yul\":10501:10632   */\n      tag_282\n      jump\t// in\n    tag_338:\n        /* \"#utility.yul\":10493:10632   */\n      swap1\n      pop\n        /* \"#utility.yul\":10391:10639   */\n      swap2\n      swap1\n      pop\n      jump\t// out\n        /* \"#utility.yul\":10645:11064   */\n    tag_164:\n      0x00\n        /* \"#utility.yul\":10849:10851   */\n      0x20\n        /* \"#utility.yul\":10838:10847   */\n      dup3\n        /* \"#utility.yul\":10834:10852   */\n      add\n        /* \"#utility.yul\":10826:10852   */\n      swap1\n      pop\n        /* \"#utility.yul\":10898:10907   */\n      dup2\n        /* \"#utility.yul\":10892:10896   */\n      dup2\n        /* \"#utility.yul\":10888:10908   */\n      sub\n        /* \"#utility.yul\":10884:10885   */\n      0x00\n        /* \"#utility.yul\":10873:10882   */\n      dup4\n        /* \"#utility.yul\":10869:10886   */\n      add\n        /* \"#utility.yul\":10862:10909   */\n      mstore\n        /* \"#utility.yul\":10926:11057   */\n      tag_340\n        /* \"#utility.yul\":11052:11056   */\n      dup2\n        /* \"#utility.yul\":10926:11057   */\n      tag_287\n      jump\t// in\n    tag_340:\n        /* \"#utility.yul\":10918:11057   */\n      swap1\n      pop\n        /* \"#utility.yul\":10816:11064   */\n      swap2\n      swap1\n      pop\n      jump\t// out\n        /* \"#utility.yul\":11070:11489   */\n    tag_199:\n      0x00\n        /* \"#utility.yul\":11274:11276   */\n      0x20\n        /* \"#utility.yul\":11263:11272   */\n      dup3\n        /* \"#utility.yul\":11259:11277   */\n      add\n        /* \"#utility.yul\":11251:11277   */\n      swap1\n      pop\n        /* \"#utility.yul\":11323:11332   */\n      dup2\n        /* \"#utility.yul\":11317:11321   */\n      dup2\n        /* \"#utility.yul\":11313:11333   */\n      sub\n        /* \"#utility.yul\":11309:11310   */\n      0x00\n        /* \"#utility.yul\":11298:11307   */\n      dup4\n        /* \"#utility.yul\":11294:11311   */\n      add\n        /* \"#utility.yul\":11287:11334   */\n      mstore\n        /* \"#utility.yul\":11351:11482   */\n      tag_342\n        /* \"#utility.yul\":11477:11481   */\n      dup2\n        /* \"#utility.yul\":11351:11482   */\n      tag_292\n      jump\t// in\n    tag_342:\n        /* \"#utility.yul\":11343:11482   */\n      swap1\n      pop\n        /* \"#utility.yul\":11241:11489   */\n      swap2\n      swap1\n      pop\n      jump\t// out\n        /* \"#utility.yul\":11495:11914   */\n    tag_178:\n      0x00\n        /* \"#utility.yul\":11699:11701   */\n      0x20\n        /* \"#utility.yul\":11688:11697   */\n      dup3\n        /* \"#utility.yul\":11684:11702   */\n      add\n        /* \"#utility.yul\":11676:11702   */\n      swap1\n      pop\n        /* \"#utility.yul\":11748:11757   */\n      dup2\n        /* \"#utility.yul\":11742:11746   */\n      dup2\n        /* \"#utility.yul\":11738:11758   */\n      sub\n        /* \"#utility.yul\":11734:11735   */\n      0x00\n        /* \"#utility.yul\":11723:11732   */\n      dup4\n        /* \"#utility.yul\":11719:11736   */\n      add\n        /* \"#utility.yul\":11712:11759   */\n      mstore\n        /* \"#utility.yul\":11776:11907   */\n      tag_344\n        /* \"#utility.yul\":11902:11906   */\n      dup2\n        /* \"#utility.yul\":11776:11907   */\n      tag_297\n      jump\t// in\n    tag_344:\n        /* \"#utility.yul\":11768:11907   */\n      swap1\n      pop\n        /* \"#utility.yul\":11666:11914   */\n      swap2\n      swap1\n      pop\n      jump\t// out\n        /* \"#utility.yul\":11920:12339   */\n    tag_98:\n      0x00\n        /* \"#utility.yul\":12124:12126   */\n      0x20\n        /* \"#utility.yul\":12113:12122   */\n      dup3\n        /* \"#utility.yul\":12109:12127   */\n      add\n        /* \"#utility.yul\":12101:12127   */\n      swap1\n      pop\n        /* \"#utility.yul\":12173:12182   */\n      dup2\n        /* \"#utility.yul\":12167:12171   */\n      dup2\n        /* \"#utility.yul\":12163:12183   */\n      sub\n        /* \"#utility.yul\":12159:12160   */\n      0x00\n        /* \"#utility.yul\":12148:12157   */\n      dup4\n        /* \"#utility.yul\":12144:12161   */\n      add\n        /* \"#utility.yul\":12137:12184   */\n      mstore\n        /* \"#utility.yul\":12201:12332   */\n      tag_346\n        /* \"#utility.yul\":12327:12331   */\n      dup2\n        /* \"#utility.yul\":12201:12332   */\n      tag_302\n      jump\t// in\n    tag_346:\n        /* \"#utility.yul\":12193:12332   */\n      swap1\n      pop\n        /* \"#utility.yul\":12091:12339   */\n      swap2\n      swap1\n      pop\n      jump\t// out\n        /* \"#utility.yul\":12345:12764   */\n    tag_182:\n      0x00\n        /* \"#utility.yul\":12549:12551   */\n      0x20\n        /* \"#utility.yul\":12538:12547   */\n      dup3\n        /* \"#utility.yul\":12534:12552   */\n      add\n        /* \"#utility.yul\":12526:12552   */\n      swap1\n      pop\n        /* \"#utility.yul\":12598:12607   */\n      dup2\n        /* \"#utility.yul\":12592:12596   */\n      dup2\n        /* \"#utility.yul\":12588:12608   */\n      sub\n        /* \"#utility.yul\":12584:12585   */\n      0x00\n        /* \"#utility.yul\":12573:12582   */\n      dup4\n        /* \"#utility.yul\":12569:12586   */\n      add\n        /* \"#utility.yul\":12562:12609   */\n      mstore\n        /* \"#utility.yul\":12626:12757   */\n      tag_348\n        /* \"#utility.yul\":12752:12756   */\n      dup2\n        /* \"#utility.yul\":12626:12757   */\n      tag_307\n      jump\t// in\n    tag_348:\n        /* \"#utility.yul\":12618:12757   */\n      swap1\n      pop\n        /* \"#utility.yul\":12516:12764   */\n      swap2\n      swap1\n      pop\n      jump\t// out\n        /* \"#utility.yul\":12770:12992   */\n    tag_26:\n      0x00\n        /* \"#utility.yul\":12901:12903   */\n      0x20\n        /* \"#utility.yul\":12890:12899   */\n      dup3\n        /* \"#utility.yul\":12886:12904   */\n      add\n        /* \"#utility.yul\":12878:12904   */\n      swap1\n      pop\n        /* \"#utility.yul\":12914:12985   */\n      tag_350\n        /* \"#utility.yul\":12982:12983   */\n      0x00\n        /* \"#utility.yul\":12971:12980   */\n      dup4\n        /* \"#utility.yul\":12967:12984   */\n      add\n        /* \"#utility.yul\":12958:12964   */\n      dup5\n        /* \"#utility.yul\":12914:12985   */\n      tag_322\n      jump\t// in\n    tag_350:\n        /* \"#utility.yul\":12868:12992   */\n      swap3\n      swap2\n      pop\n      pop\n      jump\t// out\n        /* \"#utility.yul\":12998:13150   */\n    tag_250:\n      0x00\n        /* \"#utility.yul\":13108:13111   */\n      dup2\n        /* \"#utility.yul\":13100:13111   */\n      swap1\n      pop\n        /* \"#utility.yul\":13138:13142   */\n      0x20\n        /* \"#utility.yul\":13133:13136   */\n      dup3\n        /* \"#utility.yul\":13129:13143   */\n      add\n        /* \"#utility.yul\":13121:13143   */\n      swap1\n      pop\n        /* \"#utility.yul\":13090:13150   */\n      swap2\n      swap1\n      pop\n      jump\t// out\n        /* \"#utility.yul\":13156:13290   */\n    tag_246:\n      0x00\n        /* \"#utility.yul\":13277:13282   */\n      dup2\n        /* \"#utility.yul\":13271:13283   */\n      mload\n        /* \"#utility.yul\":13261:13283   */\n      swap1\n      pop\n        /* \"#utility.yul\":13250:13290   */\n      swap2\n      swap1\n      pop\n      jump\t// out\n        /* \"#utility.yul\":13296:13429   */\n    tag_256:\n      0x00\n        /* \"#utility.yul\":13418:13422   */\n      0x20\n        /* \"#utility.yul\":13413:13416   */\n      dup3\n        /* \"#utility.yul\":13409:13423   */\n      add\n        /* \"#utility.yul\":13401:13423   */\n      swap1\n      pop\n        /* \"#utility.yul\":13391:13429   */\n      swap2\n      swap1\n      pop\n      jump\t// out\n        /* \"#utility.yul\":13435:13639   */\n    tag_248:\n      0x00\n        /* \"#utility.yul\":13588:13594   */\n      dup3\n        /* \"#utility.yul\":13583:13586   */\n      dup3\n        /* \"#utility.yul\":13576:13595   */\n      mstore\n        /* \"#utility.yul\":13628:13632   */\n      0x20\n        /* \"#utility.yul\":13623:13626   */\n      dup3\n        /* \"#utility.yul\":13619:13633   */\n      add\n        /* \"#utility.yul\":13604:13633   */\n      swap1\n      pop\n        /* \"#utility.yul\":13566:13639   */\n      swap3\n      swap2\n      pop\n      pop\n      jump\t// out\n        /* \"#utility.yul\":13645:13814   */\n    tag_264:\n      0x00\n        /* \"#utility.yul\":13763:13769   */\n      dup3\n        /* \"#utility.yul\":13758:13761   */\n      dup3\n        /* \"#utility.yul\":13751:13770   */\n      mstore\n        /* \"#utility.yul\":13803:13807   */\n      0x20\n        /* \"#utility.yul\":13798:13801   */\n      dup3\n        /* \"#utility.yul\":13794:13808   */\n      add\n        /* \"#utility.yul\":13779:13808   */\n      swap1\n      pop\n        /* \"#utility.yul\":13741:13814   */\n      swap3\n      swap2\n      pop\n      pop\n      jump\t// out\n        /* \"#utility.yul\":13820:14005   */\n    tag_210:\n      0x00\n        /* \"#utility.yul\":13877:13897   */\n      tag_357\n        /* \"#utility.yul\":13895:13896   */\n      dup3\n        /* \"#utility.yul\":13877:13897   */\n      tag_321\n      jump\t// in\n    tag_357:\n        /* \"#utility.yul\":13872:13897   */\n      swap2\n      pop\n        /* \"#utility.yul\":13911:13931   */\n      tag_358\n        /* \"#utility.yul\":13929:13930   */\n      dup4\n        /* \"#utility.yul\":13911:13931   */\n      tag_321\n      jump\t// in\n    tag_358:\n        /* \"#utility.yul\":13906:13931   */\n      swap3\n      pop\n        /* \"#utility.yul\":13950:13951   */\n      dup3\n        /* \"#utility.yul\":13940:13942   */\n      tag_359\n      jumpi\n        /* \"#utility.yul\":13955:13973   */\n      tag_360\n      tag_361\n      jump\t// in\n    tag_360:\n        /* \"#utility.yul\":13940:13942   */\n    tag_359:\n        /* \"#utility.yul\":13997:13998   */\n      dup3\n        /* \"#utility.yul\":13994:13995   */\n      dup3\n        /* \"#utility.yul\":13990:13999   */\n      div\n        /* \"#utility.yul\":13985:13999   */\n      swap1\n      pop\n        /* \"#utility.yul\":13862:14005   */\n      swap3\n      swap2\n      pop\n      pop\n      jump\t// out\n        /* \"#utility.yul\":14011:14359   */\n    tag_208:\n      0x00\n        /* \"#utility.yul\":14074:14094   */\n      tag_363\n        /* \"#utility.yul\":14092:14093   */\n      dup3\n        /* \"#utility.yul\":14074:14094   */\n      tag_321\n      jump\t// in\n    tag_363:\n        /* \"#utility.yul\":14069:14094   */\n      swap2\n      pop\n        /* \"#utility.yul\":14108:14128   */\n      tag_364\n        /* \"#utility.yul\":14126:14127   */\n      dup4\n        /* \"#utility.yul\":14108:14128   */\n      tag_321\n      jump\t// in\n    tag_364:\n        /* \"#utility.yul\":14103:14128   */\n      swap3\n      pop\n        /* \"#utility.yul\":14296:14297   */\n      dup2\n        /* \"#utility.yul\":14228:14294   */\n      0xffffffffffffffffffffffffffffffffffffffffffffffffffffffffffffffff\n        /* \"#utility.yul\":14224:14298   */\n      div\n        /* \"#utility.yul\":14221:14222   */\n      dup4\n        /* \"#utility.yul\":14218:14299   */\n      gt\n        /* \"#utility.yul\":14213:14214   */\n      dup3\n        /* \"#utility.yul\":14206:14215   */\n      iszero\n        /* \"#utility.yul\":14199:14216   */\n      iszero\n        /* \"#utility.yul\":14195:14300   */\n      and\n        /* \"#utility.yul\":14192:14194   */\n      iszero\n      tag_365\n      jumpi\n        /* \"#utility.yul\":14303:14321   */\n      tag_366\n      tag_367\n      jump\t// in\n    tag_366:\n        /* \"#utility.yul\":14192:14194   */\n    tag_365:\n        /* \"#utility.yul\":14351:14352   */\n      dup3\n        /* \"#utility.yul\":14348:14349   */\n      dup3\n        /* \"#utility.yul\":14344:14353   */\n      mul\n        /* \"#utility.yul\":14333:14353   */\n      swap1\n      pop\n        /* \"#utility.yul\":14059:14359   */\n      swap3\n      swap2\n      pop\n      pop\n      jump\t// out\n        /* \"#utility.yul\":14365:14556   */\n    tag_212:\n      0x00\n        /* \"#utility.yul\":14425:14445   */\n      tag_369\n        /* \"#utility.yul\":14443:14444   */\n      dup3\n        /* \"#utility.yul\":14425:14445   */\n      tag_321\n      jump\t// in\n    tag_369:\n        /* \"#utility.yul\":14420:14445   */\n      swap2\n      pop\n        /* \"#utility.yul\":14459:14479   */\n      tag_370\n        /* \"#utility.yul\":14477:14478   */\n      dup4\n        /* \"#utility.yul\":14459:14479   */\n      tag_321\n      jump\t// in\n    tag_370:\n        /* \"#utility.yul\":14454:14479   */\n      swap3\n      pop\n        /* \"#utility.yul\":14498:14499   */\n      dup3\n        /* \"#utility.yul\":14495:14496   */\n      dup3\n        /* \"#utility.yul\":14492:14500   */\n      lt\n        /* \"#utility.yul\":14489:14491   */\n      iszero\n      tag_371\n      jumpi\n        /* \"#utility.yul\":14503:14521   */\n      tag_372\n      tag_367\n      jump\t// in\n    tag_372:\n        /* \"#utility.yul\":14489:14491   */\n    tag_371:\n        /* \"#utility.yul\":14548:14549   */\n      dup3\n        /* \"#utility.yul\":14545:14546   */\n      dup3\n        /* \"#utility.yul\":14541:14550   */\n      sub\n        /* \"#utility.yul\":14533:14550   */\n      swap1\n      pop\n        /* \"#utility.yul\":14410:14556   */\n      swap3\n      swap2\n      pop\n      pop\n      jump\t// out\n        /* \"#utility.yul\":14562:14658   */\n    tag_239:\n      0x00\n        /* \"#utility.yul\":14628:14652   */\n      tag_374\n        /* \"#utility.yul\":14646:14651   */\n      dup3\n        /* \"#utility.yul\":14628:14652   */\n      tag_375\n      jump\t// in\n    tag_374:\n        /* \"#utility.yul\":14617:14652   */\n      swap1\n      pop\n        /* \"#utility.yul\":14607:14658   */\n      swap2\n      swap1\n      pop\n      jump\t// out\n        /* \"#utility.yul\":14664:14754   */\n    tag_260:\n      0x00\n        /* \"#utility.yul\":14741:14746   */\n      dup2\n        /* \"#utility.yul\":14734:14747   */\n      iszero\n        /* \"#utility.yul\":14727:14748   */\n      iszero\n        /* \"#utility.yul\":14716:14748   */\n      swap1\n      pop\n        /* \"#utility.yul\":14706:14754   */\n      swap2\n      swap1\n      pop\n      jump\t// out\n        /* \"#utility.yul\":14760:14886   */\n    tag_375:\n      0x00\n        /* \"#utility.yul\":14837:14879   */\n      0xffffffffffffffffffffffffffffffffffffffff\n        /* \"#utility.yul\":14830:14835   */\n      dup3\n        /* \"#utility.yul\":14826:14880   */\n      and\n        /* \"#utility.yul\":14815:14880   */\n      swap1\n      pop\n        /* \"#utility.yul\":14805:14886   */\n      swap2\n      swap1\n      pop\n      jump\t// out\n        /* \"#utility.yul\":14892:14969   */\n    tag_321:\n      0x00\n        /* \"#utility.yul\":14958:14963   */\n      dup2\n        /* \"#utility.yul\":14947:14963   */\n      swap1\n      pop\n        /* \"#utility.yul\":14937:14969   */\n      swap2\n      swap1\n      pop\n      jump\t// out\n        /* \"#utility.yul\":14975:15208   */\n    tag_92:\n      0x00\n        /* \"#utility.yul\":15037:15061   */\n      tag_380\n        /* \"#utility.yul\":15055:15060   */\n      dup3\n        /* \"#utility.yul\":15037:15061   */\n      tag_321\n      jump\t// in\n    tag_380:\n        /* \"#utility.yul\":15028:15061   */\n      swap2\n      pop\n        /* \"#utility.yul\":15083:15149   */\n      0xffffffffffffffffffffffffffffffffffffffffffffffffffffffffffffffff\n        /* \"#utility.yul\":15076:15081   */\n      dup3\n        /* \"#utility.yul\":15073:15150   */\n      eq\n        /* \"#utility.yul\":15070:15072   */\n      iszero\n      tag_381\n      jumpi\n        /* \"#utility.yul\":15153:15171   */\n      tag_382\n      tag_367\n      jump\t// in\n    tag_382:\n        /* \"#utility.yul\":15070:15072   */\n    tag_381:\n        /* \"#utility.yul\":15200:15201   */\n      0x01\n        /* \"#utility.yul\":15193:15198   */\n      dup3\n        /* \"#utility.yul\":15189:15202   */\n      add\n        /* \"#utility.yul\":15182:15202   */\n      swap1\n      pop\n        /* \"#utility.yul\":15018:15208   */\n      swap2\n      swap1\n      pop\n      jump\t// out\n        /* \"#utility.yul\":15214:15394   */\n    tag_367:\n        /* \"#utility.yul\":15262:15339   */\n      0x4e487b7100000000000000000000000000000000000000000000000000000000\n        /* \"#utility.yul\":15259:15260   */\n      0x00\n        /* \"#utility.yul\":15252:15340   */\n      mstore\n        /* \"#utility.yul\":15359:15363   */\n      0x11\n        /* \"#utility.yul\":15356:15357   */\n      0x04\n        /* \"#utility.yul\":15349:15364   */\n      mstore\n        /* \"#utility.yul\":15383:15387   */\n      0x24\n        /* \"#utility.yul\":15380:15381   */\n      0x00\n        /* \"#utility.yul\":15373:15388   */\n      revert\n        /* \"#utility.yul\":15400:15580   */\n    tag_361:\n        /* \"#utility.yul\":15448:15525   */\n      0x4e487b7100000000000000000000000000000000000000000000000000000000\n        /* \"#utility.yul\":15445:15446   */\n      0x00\n        /* \"#utility.yul\":15438:15526   */\n      mstore\n        /* \"#utility.yul\":15545:15549   */\n      0x12\n        /* \"#utility.yul\":15542:15543   */\n      0x04\n        /* \"#utility.yul\":15535:15550   */\n      mstore\n        /* \"#utility.yul\":15569:15573   */\n      0x24\n        /* \"#utility.yul\":15566:15567   */\n      0x00\n        /* \"#utility.yul\":15559:15574   */\n      revert\n        /* \"#utility.yul\":15586:15814   */\n    tag_266:\n        /* \"#utility.yul\":15726:15760   */\n      0x796f752063616e27742062757920616e206974656d20746861742062656c6f6e\n        /* \"#utility.yul\":15722:15723   */\n      0x00\n        /* \"#utility.yul\":15714:15720   */\n      dup3\n        /* \"#utility.yul\":15710:15724   */\n      add\n        /* \"#utility.yul\":15703:15761   */\n      mstore\n        /* \"#utility.yul\":15795:15806   */\n      0x677320746f20796f750000000000000000000000000000000000000000000000\n        /* \"#utility.yul\":15790:15792   */\n      0x20\n        /* \"#utility.yul\":15782:15788   */\n      dup3\n        /* \"#utility.yul\":15778:15793   */\n      add\n        /* \"#utility.yul\":15771:15807   */\n      mstore\n        /* \"#utility.yul\":15692:15814   */\n      pop\n      jump\t// out\n        /* \"#utility.yul\":15820:15989   */\n    tag_271:\n        /* \"#utility.yul\":15960:15981   */\n      0x746f6b656e2069736e277420746f2073656c6c00000000000000000000000000\n        /* \"#utility.yul\":15956:15957   */\n      0x00\n        /* \"#utility.yul\":15948:15954   */\n      dup3\n        /* \"#utility.yul\":15944:15958   */\n      add\n        /* \"#utility.yul\":15937:15982   */\n      mstore\n        /* \"#utility.yul\":15926:15989   */\n      pop\n      jump\t// out\n        /* \"#utility.yul\":15995:16164   */\n    tag_276:\n        /* \"#utility.yul\":16135:16156   */\n      0x746f6b656e20616c726561647920657869737400000000000000000000000000\n        /* \"#utility.yul\":16131:16132   */\n      0x00\n        /* \"#utility.yul\":16123:16129   */\n      dup3\n        /* \"#utility.yul\":16119:16133   */\n      add\n        /* \"#utility.yul\":16112:16157   */\n      mstore\n        /* \"#utility.yul\":16101:16164   */\n      pop\n      jump\t// out\n        /* \"#utility.yul\":16170:16410   */\n    tag_281:\n        /* \"#utility.yul\":16310:16344   */\n      0x7472616e73616374696f6e27732076616c75652063616e6e6f74206265206469\n        /* \"#utility.yul\":16306:16307   */\n      0x00\n        /* \"#utility.yul\":16298:16304   */\n      dup3\n        /* \"#utility.yul\":16294:16308   */\n      add\n        /* \"#utility.yul\":16287:16345   */\n      mstore\n        /* \"#utility.yul\":16379:16402   */\n      0x66666572656e74206f66206974656d2070726963650000000000000000000000\n        /* \"#utility.yul\":16374:16376   */\n      0x20\n        /* \"#utility.yul\":16366:16372   */\n      dup3\n        /* \"#utility.yul\":16362:16377   */\n      add\n        /* \"#utility.yul\":16355:16403   */\n      mstore\n        /* \"#utility.yul\":16276:16410   */\n      pop\n      jump\t// out\n        /* \"#utility.yul\":16416:16585   */\n    tag_286:\n        /* \"#utility.yul\":16556:16577   */\n      0x746f6b656e20646f65736e277420657869737400000000000000000000000000\n        /* \"#utility.yul\":16552:16553   */\n      0x00\n        /* \"#utility.yul\":16544:16550   */\n      dup3\n        /* \"#utility.yul\":16540:16554   */\n      add\n        /* \"#utility.yul\":16533:16578   */\n      mstore\n        /* \"#utility.yul\":16522:16585   */\n      pop\n      jump\t// out\n        /* \"#utility.yul\":16591:16770   */\n    tag_291:\n        /* \"#utility.yul\":16731:16762   */\n      0x4f6e6c79206974656d2773206f776e65722063616e20646f2074686174000000\n        /* \"#utility.yul\":16727:16728   */\n      0x00\n        /* \"#utility.yul\":16719:16725   */\n      dup3\n        /* \"#utility.yul\":16715:16729   */\n      add\n        /* \"#utility.yul\":16708:16763   */\n      mstore\n        /* \"#utility.yul\":16697:16770   */\n      pop\n      jump\t// out\n        /* \"#utility.yul\":16776:16950   */\n    tag_296:\n        /* \"#utility.yul\":16916:16942   */\n      0x746f6b656e20697320616c726561647920746f2073656c6c0000000000000000\n        /* \"#utility.yul\":16912:16913   */\n      0x00\n        /* \"#utility.yul\":16904:16910   */\n      dup3\n        /* \"#utility.yul\":16900:16914   */\n      add\n        /* \"#utility.yul\":16893:16943   */\n      mstore\n        /* \"#utility.yul\":16882:16950   */\n      pop\n      jump\t// out\n        /* \"#utility.yul\":16956:17176   */\n    tag_301:\n        /* \"#utility.yul\":17096:17130   */\n      0x5468616e6b7320746f2073656e6420636f727265637420666565732076616c75\n        /* \"#utility.yul\":17092:17093   */\n      0x00\n        /* \"#utility.yul\":17084:17090   */\n      dup3\n        /* \"#utility.yul\":17080:17094   */\n      add\n        /* \"#utility.yul\":17073:17131   */\n      mstore\n        /* \"#utility.yul\":17165:17168   */\n      0x6500000000000000000000000000000000000000000000000000000000000000\n        /* \"#utility.yul\":17160:17162   */\n      0x20\n        /* \"#utility.yul\":17152:17158   */\n      dup3\n        /* \"#utility.yul\":17148:17163   */\n      add\n        /* \"#utility.yul\":17141:17169   */\n      mstore\n        /* \"#utility.yul\":17062:17176   */\n      pop\n      jump\t// out\n        /* \"#utility.yul\":17182:17402   */\n    tag_306:\n        /* \"#utility.yul\":17322:17356   */\n      0x4f6e6c7920636f6e74726163742773206f776e65722063616e20646f20746861\n        /* \"#utility.yul\":17318:17319   */\n      0x00\n        /* \"#utility.yul\":17310:17316   */\n      dup3\n        /* \"#utility.yul\":17306:17320   */\n      add\n        /* \"#utility.yul\":17299:17357   */\n      mstore\n        /* \"#utility.yul\":17391:17394   */\n      0x7400000000000000000000000000000000000000000000000000000000000000\n        /* \"#utility.yul\":17386:17388   */\n      0x20\n        /* \"#utility.yul\":17378:17384   */\n      dup3\n        /* \"#utility.yul\":17374:17389   */\n      add\n        /* \"#utility.yul\":17367:17395   */\n      mstore\n        /* \"#utility.yul\":17288:17402   */\n      pop\n      jump\t// out\n        /* \"#utility.yul\":17408:17584   */\n    tag_311:\n        /* \"#utility.yul\":17548:17576   */\n      0x50726963652063616e6e6f7420626520657175616c20746f2030000000000000\n        /* \"#utility.yul\":17544:17545   */\n      0x00\n        /* \"#utility.yul\":17536:17542   */\n      dup3\n        /* \"#utility.yul\":17532:17546   */\n      add\n        /* \"#utility.yul\":17525:17577   */\n      mstore\n        /* \"#utility.yul\":17514:17584   */\n      pop\n      jump\t// out\n        /* \"#utility.yul\":17590:17712   */\n    tag_217:\n        /* \"#utility.yul\":17663:17687   */\n      tag_396\n        /* \"#utility.yul\":17681:17686   */\n      dup2\n        /* \"#utility.yul\":17663:17687   */\n      tag_239\n      jump\t// in\n    tag_396:\n        /* \"#utility.yul\":17656:17661   */\n      dup2\n        /* \"#utility.yul\":17653:17688   */\n      eq\n        /* \"#utility.yul\":17643:17645   */\n      tag_397\n      jumpi\n        /* \"#utility.yul\":17702:17703   */\n      0x00\n        /* \"#utility.yul\":17699:17700   */\n      dup1\n        /* \"#utility.yul\":17692:17704   */\n      revert\n        /* \"#utility.yul\":17643:17645   */\n    tag_397:\n        /* \"#utility.yul\":17633:17712   */\n      pop\n      jump\t// out\n        /* \"#utility.yul\":17718:17840   */\n    tag_221:\n        /* \"#utility.yul\":17791:17815   */\n      tag_399\n        /* \"#utility.yul\":17809:17814   */\n      dup2\n        /* \"#utility.yul\":17791:17815   */\n      tag_321\n      jump\t// in\n    tag_399:\n        /* \"#utility.yul\":17784:17789   */\n      dup2\n        /* \"#utility.yul\":17781:17816   */\n      eq\n        /* \"#utility.yul\":17771:17773   */\n      tag_400\n      jumpi\n        /* \"#utility.yul\":17830:17831   */\n      0x00\n        /* \"#utility.yul\":17827:17828   */\n      dup1\n        /* \"#utility.yul\":17820:17832   */\n      revert\n        /* \"#utility.yul\":17771:17773   */\n    tag_400:\n        /* \"#utility.yul\":17761:17840   */\n      pop\n      jump\t// out\n\n    auxdata: 0xa26469706673582212204e52fb6536370ce4569fd97e0f9befbc72b7e3acd741c47dffe7b994331ff9f164736f6c63430008010033\n}\n",
				"bytecode": {
					"linkReferences": {},
					"object": "608060405265e35fa931a00060055560056006553480156200002057600080fd5b5033600260006101000a81548173ffffffffffffffffffffffffffffffffffffffff021916908373ffffffffffffffffffffffffffffffffffffffff1602179055506040518060400160405280600b81526020017f4765656b20546f6b656e7300000000000000000000000000000000000000000081525060009080519060200190620000af92919062000104565b506040518060400160405280600581526020017f4745454b5400000000000000000000000000000000000000000000000000000081525060019080519060200190620000fd92919062000104565b5062000219565b8280546200011290620001b4565b90600052602060002090601f01602090048101928262000136576000855562000182565b82601f106200015157805160ff191683800117855562000182565b8280016001018555821562000182579182015b828111156200018157825182559160200191906001019062000164565b5b50905062000191919062000195565b5090565b5b80821115620001b057600081600090555060010162000196565b5090565b60006002820490506001821680620001cd57607f821691505b60208210811415620001e457620001e3620001ea565b5b50919050565b7f4e487b7100000000000000000000000000000000000000000000000000000000600052602260045260246000fd5b6123c880620002296000396000f3fe6080604052600436106100c25760003560e01c806370a082311161007f578063a4964c3311610059578063a4964c331461026f578063adae08dd14610298578063c0f202ef146102c8578063e6e95ea7146102e4576100c2565b806370a08231146101eb57806391b6be9a14610228578063a411d68d14610244576100c2565b8063073e74df146100c7578063160035b1146100f25780631b03427c1461011d578063406693b2146101465780634cad2ffc146101835780636352211e146101ae575b600080fd5b3480156100d357600080fd5b506100dc61030d565b6040516100e99190611dbd565b60405180910390f35b3480156100fe57600080fd5b50610107610556565b6040516101149190611f1f565b60405180910390f35b34801561012957600080fd5b50610144600480360381019061013f9190611ab6565b610560565b005b34801561015257600080fd5b5061016d60048036038101906101689190611ab6565b6105fa565b60405161017a9190611dbd565b60405180910390f35b34801561018f57600080fd5b506101986108ac565b6040516101a59190611dbd565b60405180910390f35b3480156101ba57600080fd5b506101d560048036038101906101d09190611ab6565b610b34565b6040516101e29190611da2565b60405180910390f35b3480156101f757600080fd5b50610212600480360381019061020d9190611a8d565b610b71565b60405161021f9190611f1f565b60405180910390f35b610242600480360381019061023d9190611ab6565b610bba565b005b34801561025057600080fd5b5061025961110b565b6040516102669190611f1f565b60405180910390f35b34801561027b57600080fd5b5061029660048036038101906102919190611ab6565b611115565b005b6102b260048036038101906102ad9190611adf565b611374565b6040516102bf9190611f1f565b60405180910390f35b6102e260048036038101906102dd9190611ab6565b6116e6565b005b3480156102f057600080fd5b5061030b60048036038101906103069190611ab6565b611944565b005b606060008060045467ffffffffffffffff811115610354577f4e487b7100000000000000000000000000000000000000000000000000000000600052604160045260246000fd5b60405190808252806020026020018201604052801561038d57816020015b61037a611a1c565b8152602001906001900390816103725790505b50905060005b60038054905081101561054d5760011515600382815481106103de577f4e487b7100000000000000000000000000000000000000000000000000000000600052603260045260246000fd5b906000526020600020906004020160030160009054906101000a900460ff161515141561053a576003818154811061043f577f4e487b7100000000000000000000000000000000000000000000000000000000600052603260045260246000fd5b90600052602060002090600402016040518060a00160405290816000820154815260200160018201548152602001600282015481526020016003820160009054906101000a900460ff161515151581526020016003820160019054906101000a900473ffffffffffffffffffffffffffffffffffffffff1673ffffffffffffffffffffffffffffffffffffffff1673ffffffffffffffffffffffffffffffffffffffff1681525050828481518110610520577f4e487b7100000000000000000000000000000000000000000000000000000000600052603260045260246000fd5b602002602001018190525082806105369061208b565b9350505b80806105459061208b565b915050610393565b50809250505090565b6000600654905090565b600260009054906101000a900473ffffffffffffffffffffffffffffffffffffffff1673ffffffffffffffffffffffffffffffffffffffff163373ffffffffffffffffffffffffffffffffffffffff16146105f0576040517f08c379a00000000000000000000000000000000000000000000000000000000081526004016105e790611edf565b60405180910390fd5b8060068190555050565b6060600080600960008581526020019081526020016000205467ffffffffffffffff811115610652577f4e487b7100000000000000000000000000000000000000000000000000000000600052604160045260246000fd5b60405190808252806020026020018201604052801561068b57816020015b610678611a1c565b8152602001906001900390816106705790505b50905060005b6003805490508110156108a15784600382815481106106d9577f4e487b7100000000000000000000000000000000000000000000000000000000600052603260045260246000fd5b90600052602060002090600402016002015414801561075457506001151560038281548110610731577f4e487b7100000000000000000000000000000000000000000000000000000000600052603260045260246000fd5b906000526020600020906004020160030160009054906101000a900460ff161515145b1561088e5760038181548110610793577f4e487b7100000000000000000000000000000000000000000000000000000000600052603260045260246000fd5b90600052602060002090600402016040518060a00160405290816000820154815260200160018201548152602001600282015481526020016003820160009054906101000a900460ff161515151581526020016003820160019054906101000a900473ffffffffffffffffffffffffffffffffffffffff1673ffffffffffffffffffffffffffffffffffffffff1673ffffffffffffffffffffffffffffffffffffffff1681525050828481518110610874577f4e487b7100000000000000000000000000000000000000000000000000000000600052603260045260246000fd5b6020026020010181905250828061088a9061208b565b9350505b80806108999061208b565b915050610691565b508092505050919050565b6060600080600860003373ffffffffffffffffffffffffffffffffffffffff1673ffffffffffffffffffffffffffffffffffffffff1681526020019081526020016000205467ffffffffffffffff811115610930577f4e487b7100000000000000000000000000000000000000000000000000000000600052604160045260246000fd5b60405190808252806020026020018201604052801561096957816020015b610956611a1c565b81526020019060019003908161094e5790505b50905060005b600380549050811015610b2b573373ffffffffffffffffffffffffffffffffffffffff166007600083815260200190815260200160002060009054906101000a900473ffffffffffffffffffffffffffffffffffffffff1673ffffffffffffffffffffffffffffffffffffffff161415610b185760038181548110610a1d577f4e487b7100000000000000000000000000000000000000000000000000000000600052603260045260246000fd5b90600052602060002090600402016040518060a00160405290816000820154815260200160018201548152602001600282015481526020016003820160009054906101000a900460ff161515151581526020016003820160019054906101000a900473ffffffffffffffffffffffffffffffffffffffff1673ffffffffffffffffffffffffffffffffffffffff1673ffffffffffffffffffffffffffffffffffffffff1681525050828481518110610afe577f4e487b7100000000000000000000000000000000000000000000000000000000600052603260045260246000fd5b60200260200101819052508280610b149061208b565b9350505b8080610b239061208b565b91505061096f565b50809250505090565b60006007600083815260200190815260200160002060009054906101000a900473ffffffffffffffffffffffffffffffffffffffff169050919050565b6000600860008373ffffffffffffffffffffffffffffffffffffffff1673ffffffffffffffffffffffffffffffffffffffff168152602001908152602001600020549050919050565b60038181548110610bf4577f4e487b7100000000000000000000000000000000000000000000000000000000600052603260045260246000fd5b9060005260206000209060040201600101543414610c47576040517f08c379a0000000000000000000000000000000000000000000000000000000008152600401610c3e90611e3f565b60405180910390fd5b600073ffffffffffffffffffffffffffffffffffffffff166007600083815260200190815260200160002060009054906101000a900473ffffffffffffffffffffffffffffffffffffffff1673ffffffffffffffffffffffffffffffffffffffff161415610cea576040517f08c379a0000000000000000000000000000000000000000000000000000000008152600401610ce190611e5f565b60405180910390fd5b3373ffffffffffffffffffffffffffffffffffffffff166007600083815260200190815260200160002060009054906101000a900473ffffffffffffffffffffffffffffffffffffffff1673ffffffffffffffffffffffffffffffffffffffff161415610d8c576040517f08c379a0000000000000000000000000000000000000000000000000000000008152600401610d8390611ddf565b60405180910390fd5b60006007600083815260200190815260200160002060009054906101000a900473ffffffffffffffffffffffffffffffffffffffff169050600060038381548110610e00577f4e487b7100000000000000000000000000000000000000000000000000000000600052603260045260246000fd5b9060005260206000209060040201905060008160030160006101000a81548160ff021916908315150217905550336007600085815260200190815260200160002060006101000a81548173ffffffffffffffffffffffffffffffffffffffff021916908373ffffffffffffffffffffffffffffffffffffffff160217905550600860008373ffffffffffffffffffffffffffffffffffffffff1673ffffffffffffffffffffffffffffffffffffffff1681526020019081526020016000206000815480929190600190039190505550600860003373ffffffffffffffffffffffffffffffffffffffff1673ffffffffffffffffffffffffffffffffffffffff16815260200190815260200160002060008154809291906001019190505550600460008154809291906001900391905055508173ffffffffffffffffffffffffffffffffffffffff168160030160019054906101000a900473ffffffffffffffffffffffffffffffffffffffff1673ffffffffffffffffffffffffffffffffffffffff161415610fd5578173ffffffffffffffffffffffffffffffffffffffff166108fc349081150290604051600060405180830381858888f19350505050158015610fcf573d6000803e3d6000fd5b506110a1565b600080610fe4346006546119de565b80925081935050508260030160019054906101000a900473ffffffffffffffffffffffffffffffffffffffff1673ffffffffffffffffffffffffffffffffffffffff166108fc839081150290604051600060405180830381858888f19350505050158015611056573d6000803e3d6000fd5b508373ffffffffffffffffffffffffffffffffffffffff166108fc829081150290604051600060405180830381858888f1935050505015801561109d573d6000803e3d6000fd5b5050505b3373ffffffffffffffffffffffffffffffffffffffff168273ffffffffffffffffffffffffffffffffffffffff167fddf252ad1be2c89b69c2b068fc378daa952ba7f163c4a11628f55a4df523b3ef856040516110fe9190611f1f565b60405180910390a3505050565b6000600554905090565b803373ffffffffffffffffffffffffffffffffffffffff166007600083815260200190815260200160002060009054906101000a900473ffffffffffffffffffffffffffffffffffffffff1673ffffffffffffffffffffffffffffffffffffffff16146111b7576040517f08c379a00000000000000000000000000000000000000000000000000000000081526004016111ae90611e7f565b60405180910390fd5b600073ffffffffffffffffffffffffffffffffffffffff166007600084815260200190815260200160002060009054906101000a900473ffffffffffffffffffffffffffffffffffffffff1673ffffffffffffffffffffffffffffffffffffffff16141561125a576040517f08c379a000000000000000000000000000000000000000000000000000000000815260040161125190611e5f565b60405180910390fd5b6001151560038381548110611298577f4e487b7100000000000000000000000000000000000000000000000000000000600052603260045260246000fd5b906000526020600020906004020160030160009054906101000a900460ff161515146112f9576040517f08c379a00000000000000000000000000000000000000000000000000000000081526004016112f090611dff565b60405180910390fd5b600060038381548110611335577f4e487b7100000000000000000000000000000000000000000000000000000000600052603260045260246000fd5b906000526020600020906004020160030160006101000a81548160ff021916908315150217905550600460008154809291906001900391905055505050565b60003460055481146113bb576040517f08c379a00000000000000000000000000000000000000000000000000000000081526004016113b290611ebf565b60405180910390fd5b600084116113fe576040517f08c379a00000000000000000000000000000000000000000000000000000000081526004016113f590611eff565b60405180910390fd5b60006003805490509050600073ffffffffffffffffffffffffffffffffffffffff166007600083815260200190815260200160002060009054906101000a900473ffffffffffffffffffffffffffffffffffffffff1673ffffffffffffffffffffffffffffffffffffffff16146114aa576040517f08c379a00000000000000000000000000000000000000000000000000000000081526004016114a190611e1f565b60405180910390fd5b60036040518060a001604052808381526020018781526020018681526020016001151581526020013373ffffffffffffffffffffffffffffffffffffffff16815250908060018154018082558091505060019003906000526020600020906004020160009091909190915060008201518160000155602082015181600101556040820151816002015560608201518160030160006101000a81548160ff02191690831515021790555060808201518160030160016101000a81548173ffffffffffffffffffffffffffffffffffffffff021916908373ffffffffffffffffffffffffffffffffffffffff1602179055505050336007600083815260200190815260200160002060006101000a81548173ffffffffffffffffffffffffffffffffffffffff021916908373ffffffffffffffffffffffffffffffffffffffff160217905550600860003373ffffffffffffffffffffffffffffffffffffffff1673ffffffffffffffffffffffffffffffffffffffff168152602001908152602001600020600081548092919060010191905055506009600085815260200190815260200160002060008154809291906001019190505550600460008154809291906001019190505550600260009054906101000a900473ffffffffffffffffffffffffffffffffffffffff1673ffffffffffffffffffffffffffffffffffffffff166108fc349081150290604051600060405180830381858888f193505050501580156116da573d6000803e3d6000fd5b50809250505092915050565b803373ffffffffffffffffffffffffffffffffffffffff166007600083815260200190815260200160002060009054906101000a900473ffffffffffffffffffffffffffffffffffffffff1673ffffffffffffffffffffffffffffffffffffffff1614611788576040517f08c379a000000000000000000000000000000000000000000000000000000000815260040161177f90611e7f565b60405180910390fd5b600073ffffffffffffffffffffffffffffffffffffffff166007600084815260200190815260200160002060009054906101000a900473ffffffffffffffffffffffffffffffffffffffff1673ffffffffffffffffffffffffffffffffffffffff16141561182b576040517f08c379a000000000000000000000000000000000000000000000000000000000815260040161182290611e5f565b60405180910390fd5b6000151560038381548110611869577f4e487b7100000000000000000000000000000000000000000000000000000000600052603260045260246000fd5b906000526020600020906004020160030160009054906101000a900460ff161515146118ca576040517f08c379a00000000000000000000000000000000000000000000000000000000081526004016118c190611e9f565b60405180910390fd5b600160038381548110611906577f4e487b7100000000000000000000000000000000000000000000000000000000600052603260045260246000fd5b906000526020600020906004020160030160006101000a81548160ff0219169083151502179055506004600081548092919060010191905055505050565b600260009054906101000a900473ffffffffffffffffffffffffffffffffffffffff1673ffffffffffffffffffffffffffffffffffffffff163373ffffffffffffffffffffffffffffffffffffffff16146119d4576040517f08c379a00000000000000000000000000000000000000000000000000000000081526004016119cb90611edf565b60405180910390fd5b8060058190555050565b6000806000606485856119f19190611fb5565b6119fb9190611f84565b905060008186611a0b919061200f565b905081819350935050509250929050565b6040518060a00160405280600081526020016000815260200160008152602001600015158152602001600073ffffffffffffffffffffffffffffffffffffffff1681525090565b600081359050611a7281612364565b92915050565b600081359050611a878161237b565b92915050565b600060208284031215611a9f57600080fd5b6000611aad84828501611a63565b91505092915050565b600060208284031215611ac857600080fd5b6000611ad684828501611a78565b91505092915050565b60008060408385031215611af257600080fd5b6000611b0085828601611a78565b9250506020611b1185828601611a78565b9150509250929050565b6000611b278383611d1c565b60a08301905092915050565b611b3c81612043565b82525050565b611b4b81612043565b82525050565b6000611b5c82611f4a565b611b668185611f62565b9350611b7183611f3a565b8060005b83811015611ba2578151611b898882611b1b565b9750611b9483611f55565b925050600181019050611b75565b5085935050505092915050565b611bb881612055565b82525050565b6000611bcb602983611f73565b9150611bd682612132565b604082019050919050565b6000611bee601383611f73565b9150611bf982612181565b602082019050919050565b6000611c11601383611f73565b9150611c1c826121aa565b602082019050919050565b6000611c34603583611f73565b9150611c3f826121d3565b604082019050919050565b6000611c57601383611f73565b9150611c6282612222565b602082019050919050565b6000611c7a601d83611f73565b9150611c858261224b565b602082019050919050565b6000611c9d601883611f73565b9150611ca882612274565b602082019050919050565b6000611cc0602183611f73565b9150611ccb8261229d565b604082019050919050565b6000611ce3602183611f73565b9150611cee826122ec565b604082019050919050565b6000611d06601a83611f73565b9150611d118261233b565b602082019050919050565b60a082016000820151611d326000850182611d84565b506020820151611d456020850182611d84565b506040820151611d586040850182611d84565b506060820151611d6b6060850182611baf565b506080820151611d7e6080850182611b33565b50505050565b611d8d81612081565b82525050565b611d9c81612081565b82525050565b6000602082019050611db76000830184611b42565b92915050565b60006020820190508181036000830152611dd78184611b51565b905092915050565b60006020820190508181036000830152611df881611bbe565b9050919050565b60006020820190508181036000830152611e1881611be1565b9050919050565b60006020820190508181036000830152611e3881611c04565b9050919050565b60006020820190508181036000830152611e5881611c27565b9050919050565b60006020820190508181036000830152611e7881611c4a565b9050919050565b60006020820190508181036000830152611e9881611c6d565b9050919050565b60006020820190508181036000830152611eb881611c90565b9050919050565b60006020820190508181036000830152611ed881611cb3565b9050919050565b60006020820190508181036000830152611ef881611cd6565b9050919050565b60006020820190508181036000830152611f1881611cf9565b9050919050565b6000602082019050611f346000830184611d93565b92915050565b6000819050602082019050919050565b600081519050919050565b6000602082019050919050565b600082825260208201905092915050565b600082825260208201905092915050565b6000611f8f82612081565b9150611f9a83612081565b925082611faa57611fa9612103565b5b828204905092915050565b6000611fc082612081565b9150611fcb83612081565b9250817fffffffffffffffffffffffffffffffffffffffffffffffffffffffffffffffff0483118215151615612004576120036120d4565b5b828202905092915050565b600061201a82612081565b915061202583612081565b925082821015612038576120376120d4565b5b828203905092915050565b600061204e82612061565b9050919050565b60008115159050919050565b600073ffffffffffffffffffffffffffffffffffffffff82169050919050565b6000819050919050565b600061209682612081565b91507fffffffffffffffffffffffffffffffffffffffffffffffffffffffffffffffff8214156120c9576120c86120d4565b5b600182019050919050565b7f4e487b7100000000000000000000000000000000000000000000000000000000600052601160045260246000fd5b7f4e487b7100000000000000000000000000000000000000000000000000000000600052601260045260246000fd5b7f796f752063616e27742062757920616e206974656d20746861742062656c6f6e60008201527f677320746f20796f750000000000000000000000000000000000000000000000602082015250565b7f746f6b656e2069736e277420746f2073656c6c00000000000000000000000000600082015250565b7f746f6b656e20616c726561647920657869737400000000000000000000000000600082015250565b7f7472616e73616374696f6e27732076616c75652063616e6e6f7420626520646960008201527f66666572656e74206f66206974656d2070726963650000000000000000000000602082015250565b7f746f6b656e20646f65736e277420657869737400000000000000000000000000600082015250565b7f4f6e6c79206974656d2773206f776e65722063616e20646f2074686174000000600082015250565b7f746f6b656e20697320616c726561647920746f2073656c6c0000000000000000600082015250565b7f5468616e6b7320746f2073656e6420636f727265637420666565732076616c7560008201527f6500000000000000000000000000000000000000000000000000000000000000602082015250565b7f4f6e6c7920636f6e74726163742773206f776e65722063616e20646f2074686160008201527f7400000000000000000000000000000000000000000000000000000000000000602082015250565b7f50726963652063616e6e6f7420626520657175616c20746f2030000000000000600082015250565b61236d81612043565b811461237857600080fd5b50565b61238481612081565b811461238f57600080fd5b5056fea26469706673582212204e52fb6536370ce4569fd97e0f9befbc72b7e3acd741c47dffe7b994331ff9f164736f6c63430008010033",
					"opcodes": "PUSH1 0x80 PUSH1 0x40 MSTORE PUSH6 0xE35FA931A000 PUSH1 0x5 SSTORE PUSH1 0x5 PUSH1 0x6 SSTORE CALLVALUE DUP1 ISZERO PUSH3 0x20 JUMPI PUSH1 0x0 DUP1 REVERT JUMPDEST POP CALLER PUSH1 0x2 PUSH1 0x0 PUSH2 0x100 EXP DUP2 SLOAD DUP2 PUSH20 0xFFFFFFFFFFFFFFFFFFFFFFFFFFFFFFFFFFFFFFFF MUL NOT AND SWAP1 DUP4 PUSH20 0xFFFFFFFFFFFFFFFFFFFFFFFFFFFFFFFFFFFFFFFF AND MUL OR SWAP1 SSTORE POP PUSH1 0x40 MLOAD DUP1 PUSH1 0x40 ADD PUSH1 0x40 MSTORE DUP1 PUSH1 0xB DUP2 MSTORE PUSH1 0x20 ADD PUSH32 0x4765656B20546F6B656E73000000000000000000000000000000000000000000 DUP2 MSTORE POP PUSH1 0x0 SWAP1 DUP1 MLOAD SWAP1 PUSH1 0x20 ADD SWAP1 PUSH3 0xAF SWAP3 SWAP2 SWAP1 PUSH3 0x104 JUMP JUMPDEST POP PUSH1 0x40 MLOAD DUP1 PUSH1 0x40 ADD PUSH1 0x40 MSTORE DUP1 PUSH1 0x5 DUP2 MSTORE PUSH1 0x20 ADD PUSH32 0x4745454B54000000000000000000000000000000000000000000000000000000 DUP2 MSTORE POP PUSH1 0x1 SWAP1 DUP1 MLOAD SWAP1 PUSH1 0x20 ADD SWAP1 PUSH3 0xFD SWAP3 SWAP2 SWAP1 PUSH3 0x104 JUMP JUMPDEST POP PUSH3 0x219 JUMP JUMPDEST DUP3 DUP1 SLOAD PUSH3 0x112 SWAP1 PUSH3 0x1B4 JUMP JUMPDEST SWAP1 PUSH1 0x0 MSTORE PUSH1 0x20 PUSH1 0x0 KECCAK256 SWAP1 PUSH1 0x1F ADD PUSH1 0x20 SWAP1 DIV DUP2 ADD SWAP3 DUP3 PUSH3 0x136 JUMPI PUSH1 0x0 DUP6 SSTORE PUSH3 0x182 JUMP JUMPDEST DUP3 PUSH1 0x1F LT PUSH3 0x151 JUMPI DUP1 MLOAD PUSH1 0xFF NOT AND DUP4 DUP1 ADD OR DUP6 SSTORE PUSH3 0x182 JUMP JUMPDEST DUP3 DUP1 ADD PUSH1 0x1 ADD DUP6 SSTORE DUP3 ISZERO PUSH3 0x182 JUMPI SWAP2 DUP3 ADD JUMPDEST DUP3 DUP2 GT ISZERO PUSH3 0x181 JUMPI DUP3 MLOAD DUP3 SSTORE SWAP2 PUSH1 0x20 ADD SWAP2 SWAP1 PUSH1 0x1 ADD SWAP1 PUSH3 0x164 JUMP JUMPDEST JUMPDEST POP SWAP1 POP PUSH3 0x191 SWAP2 SWAP1 PUSH3 0x195 JUMP JUMPDEST POP SWAP1 JUMP JUMPDEST JUMPDEST DUP1 DUP3 GT ISZERO PUSH3 0x1B0 JUMPI PUSH1 0x0 DUP2 PUSH1 0x0 SWAP1 SSTORE POP PUSH1 0x1 ADD PUSH3 0x196 JUMP JUMPDEST POP SWAP1 JUMP JUMPDEST PUSH1 0x0 PUSH1 0x2 DUP3 DIV SWAP1 POP PUSH1 0x1 DUP3 AND DUP1 PUSH3 0x1CD JUMPI PUSH1 0x7F DUP3 AND SWAP2 POP JUMPDEST PUSH1 0x20 DUP3 LT DUP2 EQ ISZERO PUSH3 0x1E4 JUMPI PUSH3 0x1E3 PUSH3 0x1EA JUMP JUMPDEST JUMPDEST POP SWAP2 SWAP1 POP JUMP JUMPDEST PUSH32 0x4E487B7100000000000000000000000000000000000000000000000000000000 PUSH1 0x0 MSTORE PUSH1 0x22 PUSH1 0x4 MSTORE PUSH1 0x24 PUSH1 0x0 REVERT JUMPDEST PUSH2 0x23C8 DUP1 PUSH3 0x229 PUSH1 0x0 CODECOPY PUSH1 0x0 RETURN INVALID PUSH1 0x80 PUSH1 0x40 MSTORE PUSH1 0x4 CALLDATASIZE LT PUSH2 0xC2 JUMPI PUSH1 0x0 CALLDATALOAD PUSH1 0xE0 SHR DUP1 PUSH4 0x70A08231 GT PUSH2 0x7F JUMPI DUP1 PUSH4 0xA4964C33 GT PUSH2 0x59 JUMPI DUP1 PUSH4 0xA4964C33 EQ PUSH2 0x26F JUMPI DUP1 PUSH4 0xADAE08DD EQ PUSH2 0x298 JUMPI DUP1 PUSH4 0xC0F202EF EQ PUSH2 0x2C8 JUMPI DUP1 PUSH4 0xE6E95EA7 EQ PUSH2 0x2E4 JUMPI PUSH2 0xC2 JUMP JUMPDEST DUP1 PUSH4 0x70A08231 EQ PUSH2 0x1EB JUMPI DUP1 PUSH4 0x91B6BE9A EQ PUSH2 0x228 JUMPI DUP1 PUSH4 0xA411D68D EQ PUSH2 0x244 JUMPI PUSH2 0xC2 JUMP JUMPDEST DUP1 PUSH4 0x73E74DF EQ PUSH2 0xC7 JUMPI DUP1 PUSH4 0x160035B1 EQ PUSH2 0xF2 JUMPI DUP1 PUSH4 0x1B03427C EQ PUSH2 0x11D JUMPI DUP1 PUSH4 0x406693B2 EQ PUSH2 0x146 JUMPI DUP1 PUSH4 0x4CAD2FFC EQ PUSH2 0x183 JUMPI DUP1 PUSH4 0x6352211E EQ PUSH2 0x1AE JUMPI JUMPDEST PUSH1 0x0 DUP1 REVERT JUMPDEST CALLVALUE DUP1 ISZERO PUSH2 0xD3 JUMPI PUSH1 0x0 DUP1 REVERT JUMPDEST POP PUSH2 0xDC PUSH2 0x30D JUMP JUMPDEST PUSH1 0x40 MLOAD PUSH2 0xE9 SWAP2 SWAP1 PUSH2 0x1DBD JUMP JUMPDEST PUSH1 0x40 MLOAD DUP1 SWAP2 SUB SWAP1 RETURN JUMPDEST CALLVALUE DUP1 ISZERO PUSH2 0xFE JUMPI PUSH1 0x0 DUP1 REVERT JUMPDEST POP PUSH2 0x107 PUSH2 0x556 JUMP JUMPDEST PUSH1 0x40 MLOAD PUSH2 0x114 SWAP2 SWAP1 PUSH2 0x1F1F JUMP JUMPDEST PUSH1 0x40 MLOAD DUP1 SWAP2 SUB SWAP1 RETURN JUMPDEST CALLVALUE DUP1 ISZERO PUSH2 0x129 JUMPI PUSH1 0x0 DUP1 REVERT JUMPDEST POP PUSH2 0x144 PUSH1 0x4 DUP1 CALLDATASIZE SUB DUP2 ADD SWAP1 PUSH2 0x13F SWAP2 SWAP1 PUSH2 0x1AB6 JUMP JUMPDEST PUSH2 0x560 JUMP JUMPDEST STOP JUMPDEST CALLVALUE DUP1 ISZERO PUSH2 0x152 JUMPI PUSH1 0x0 DUP1 REVERT JUMPDEST POP PUSH2 0x16D PUSH1 0x4 DUP1 CALLDATASIZE SUB DUP2 ADD SWAP1 PUSH2 0x168 SWAP2 SWAP1 PUSH2 0x1AB6 JUMP JUMPDEST PUSH2 0x5FA JUMP JUMPDEST PUSH1 0x40 MLOAD PUSH2 0x17A SWAP2 SWAP1 PUSH2 0x1DBD JUMP JUMPDEST PUSH1 0x40 MLOAD DUP1 SWAP2 SUB SWAP1 RETURN JUMPDEST CALLVALUE DUP1 ISZERO PUSH2 0x18F JUMPI PUSH1 0x0 DUP1 REVERT JUMPDEST POP PUSH2 0x198 PUSH2 0x8AC JUMP JUMPDEST PUSH1 0x40 MLOAD PUSH2 0x1A5 SWAP2 SWAP1 PUSH2 0x1DBD JUMP JUMPDEST PUSH1 0x40 MLOAD DUP1 SWAP2 SUB SWAP1 RETURN JUMPDEST CALLVALUE DUP1 ISZERO PUSH2 0x1BA JUMPI PUSH1 0x0 DUP1 REVERT JUMPDEST POP PUSH2 0x1D5 PUSH1 0x4 DUP1 CALLDATASIZE SUB DUP2 ADD SWAP1 PUSH2 0x1D0 SWAP2 SWAP1 PUSH2 0x1AB6 JUMP JUMPDEST PUSH2 0xB34 JUMP JUMPDEST PUSH1 0x40 MLOAD PUSH2 0x1E2 SWAP2 SWAP1 PUSH2 0x1DA2 JUMP JUMPDEST PUSH1 0x40 MLOAD DUP1 SWAP2 SUB SWAP1 RETURN JUMPDEST CALLVALUE DUP1 ISZERO PUSH2 0x1F7 JUMPI PUSH1 0x0 DUP1 REVERT JUMPDEST POP PUSH2 0x212 PUSH1 0x4 DUP1 CALLDATASIZE SUB DUP2 ADD SWAP1 PUSH2 0x20D SWAP2 SWAP1 PUSH2 0x1A8D JUMP JUMPDEST PUSH2 0xB71 JUMP JUMPDEST PUSH1 0x40 MLOAD PUSH2 0x21F SWAP2 SWAP1 PUSH2 0x1F1F JUMP JUMPDEST PUSH1 0x40 MLOAD DUP1 SWAP2 SUB SWAP1 RETURN JUMPDEST PUSH2 0x242 PUSH1 0x4 DUP1 CALLDATASIZE SUB DUP2 ADD SWAP1 PUSH2 0x23D SWAP2 SWAP1 PUSH2 0x1AB6 JUMP JUMPDEST PUSH2 0xBBA JUMP JUMPDEST STOP JUMPDEST CALLVALUE DUP1 ISZERO PUSH2 0x250 JUMPI PUSH1 0x0 DUP1 REVERT JUMPDEST POP PUSH2 0x259 PUSH2 0x110B JUMP JUMPDEST PUSH1 0x40 MLOAD PUSH2 0x266 SWAP2 SWAP1 PUSH2 0x1F1F JUMP JUMPDEST PUSH1 0x40 MLOAD DUP1 SWAP2 SUB SWAP1 RETURN JUMPDEST CALLVALUE DUP1 ISZERO PUSH2 0x27B JUMPI PUSH1 0x0 DUP1 REVERT JUMPDEST POP PUSH2 0x296 PUSH1 0x4 DUP1 CALLDATASIZE SUB DUP2 ADD SWAP1 PUSH2 0x291 SWAP2 SWAP1 PUSH2 0x1AB6 JUMP JUMPDEST PUSH2 0x1115 JUMP JUMPDEST STOP JUMPDEST PUSH2 0x2B2 PUSH1 0x4 DUP1 CALLDATASIZE SUB DUP2 ADD SWAP1 PUSH2 0x2AD SWAP2 SWAP1 PUSH2 0x1ADF JUMP JUMPDEST PUSH2 0x1374 JUMP JUMPDEST PUSH1 0x40 MLOAD PUSH2 0x2BF SWAP2 SWAP1 PUSH2 0x1F1F JUMP JUMPDEST PUSH1 0x40 MLOAD DUP1 SWAP2 SUB SWAP1 RETURN JUMPDEST PUSH2 0x2E2 PUSH1 0x4 DUP1 CALLDATASIZE SUB DUP2 ADD SWAP1 PUSH2 0x2DD SWAP2 SWAP1 PUSH2 0x1AB6 JUMP JUMPDEST PUSH2 0x16E6 JUMP JUMPDEST STOP JUMPDEST CALLVALUE DUP1 ISZERO PUSH2 0x2F0 JUMPI PUSH1 0x0 DUP1 REVERT JUMPDEST POP PUSH2 0x30B PUSH1 0x4 DUP1 CALLDATASIZE SUB DUP2 ADD SWAP1 PUSH2 0x306 SWAP2 SWAP1 PUSH2 0x1AB6 JUMP JUMPDEST PUSH2 0x1944 JUMP JUMPDEST STOP JUMPDEST PUSH1 0x60 PUSH1 0x0 DUP1 PUSH1 0x4 SLOAD PUSH8 0xFFFFFFFFFFFFFFFF DUP2 GT ISZERO PUSH2 0x354 JUMPI PUSH32 0x4E487B7100000000000000000000000000000000000000000000000000000000 PUSH1 0x0 MSTORE PUSH1 0x41 PUSH1 0x4 MSTORE PUSH1 0x24 PUSH1 0x0 REVERT JUMPDEST PUSH1 0x40 MLOAD SWAP1 DUP1 DUP3 MSTORE DUP1 PUSH1 0x20 MUL PUSH1 0x20 ADD DUP3 ADD PUSH1 0x40 MSTORE DUP1 ISZERO PUSH2 0x38D JUMPI DUP2 PUSH1 0x20 ADD JUMPDEST PUSH2 0x37A PUSH2 0x1A1C JUMP JUMPDEST DUP2 MSTORE PUSH1 0x20 ADD SWAP1 PUSH1 0x1 SWAP1 SUB SWAP1 DUP2 PUSH2 0x372 JUMPI SWAP1 POP JUMPDEST POP SWAP1 POP PUSH1 0x0 JUMPDEST PUSH1 0x3 DUP1 SLOAD SWAP1 POP DUP2 LT ISZERO PUSH2 0x54D JUMPI PUSH1 0x1 ISZERO ISZERO PUSH1 0x3 DUP3 DUP2 SLOAD DUP2 LT PUSH2 0x3DE JUMPI PUSH32 0x4E487B7100000000000000000000000000000000000000000000000000000000 PUSH1 0x0 MSTORE PUSH1 0x32 PUSH1 0x4 MSTORE PUSH1 0x24 PUSH1 0x0 REVERT JUMPDEST SWAP1 PUSH1 0x0 MSTORE PUSH1 0x20 PUSH1 0x0 KECCAK256 SWAP1 PUSH1 0x4 MUL ADD PUSH1 0x3 ADD PUSH1 0x0 SWAP1 SLOAD SWAP1 PUSH2 0x100 EXP SWAP1 DIV PUSH1 0xFF AND ISZERO ISZERO EQ ISZERO PUSH2 0x53A JUMPI PUSH1 0x3 DUP2 DUP2 SLOAD DUP2 LT PUSH2 0x43F JUMPI PUSH32 0x4E487B7100000000000000000000000000000000000000000000000000000000 PUSH1 0x0 MSTORE PUSH1 0x32 PUSH1 0x4 MSTORE PUSH1 0x24 PUSH1 0x0 REVERT JUMPDEST SWAP1 PUSH1 0x0 MSTORE PUSH1 0x20 PUSH1 0x0 KECCAK256 SWAP1 PUSH1 0x4 MUL ADD PUSH1 0x40 MLOAD DUP1 PUSH1 0xA0 ADD PUSH1 0x40 MSTORE SWAP1 DUP2 PUSH1 0x0 DUP3 ADD SLOAD DUP2 MSTORE PUSH1 0x20 ADD PUSH1 0x1 DUP3 ADD SLOAD DUP2 MSTORE PUSH1 0x20 ADD PUSH1 0x2 DUP3 ADD SLOAD DUP2 MSTORE PUSH1 0x20 ADD PUSH1 0x3 DUP3 ADD PUSH1 0x0 SWAP1 SLOAD SWAP1 PUSH2 0x100 EXP SWAP1 DIV PUSH1 0xFF AND ISZERO ISZERO ISZERO ISZERO DUP2 MSTORE PUSH1 0x20 ADD PUSH1 0x3 DUP3 ADD PUSH1 0x1 SWAP1 SLOAD SWAP1 PUSH2 0x100 EXP SWAP1 DIV PUSH20 0xFFFFFFFFFFFFFFFFFFFFFFFFFFFFFFFFFFFFFFFF AND PUSH20 0xFFFFFFFFFFFFFFFFFFFFFFFFFFFFFFFFFFFFFFFF AND PUSH20 0xFFFFFFFFFFFFFFFFFFFFFFFFFFFFFFFFFFFFFFFF AND DUP2 MSTORE POP POP DUP3 DUP5 DUP2 MLOAD DUP2 LT PUSH2 0x520 JUMPI PUSH32 0x4E487B7100000000000000000000000000000000000000000000000000000000 PUSH1 0x0 MSTORE PUSH1 0x32 PUSH1 0x4 MSTORE PUSH1 0x24 PUSH1 0x0 REVERT JUMPDEST PUSH1 0x20 MUL PUSH1 0x20 ADD ADD DUP2 SWAP1 MSTORE POP DUP3 DUP1 PUSH2 0x536 SWAP1 PUSH2 0x208B JUMP JUMPDEST SWAP4 POP POP JUMPDEST DUP1 DUP1 PUSH2 0x545 SWAP1 PUSH2 0x208B JUMP JUMPDEST SWAP2 POP POP PUSH2 0x393 JUMP JUMPDEST POP DUP1 SWAP3 POP POP POP SWAP1 JUMP JUMPDEST PUSH1 0x0 PUSH1 0x6 SLOAD SWAP1 POP SWAP1 JUMP JUMPDEST PUSH1 0x2 PUSH1 0x0 SWAP1 SLOAD SWAP1 PUSH2 0x100 EXP SWAP1 DIV PUSH20 0xFFFFFFFFFFFFFFFFFFFFFFFFFFFFFFFFFFFFFFFF AND PUSH20 0xFFFFFFFFFFFFFFFFFFFFFFFFFFFFFFFFFFFFFFFF AND CALLER PUSH20 0xFFFFFFFFFFFFFFFFFFFFFFFFFFFFFFFFFFFFFFFF AND EQ PUSH2 0x5F0 JUMPI PUSH1 0x40 MLOAD PUSH32 0x8C379A000000000000000000000000000000000000000000000000000000000 DUP2 MSTORE PUSH1 0x4 ADD PUSH2 0x5E7 SWAP1 PUSH2 0x1EDF JUMP JUMPDEST PUSH1 0x40 MLOAD DUP1 SWAP2 SUB SWAP1 REVERT JUMPDEST DUP1 PUSH1 0x6 DUP2 SWAP1 SSTORE POP POP JUMP JUMPDEST PUSH1 0x60 PUSH1 0x0 DUP1 PUSH1 0x9 PUSH1 0x0 DUP6 DUP2 MSTORE PUSH1 0x20 ADD SWAP1 DUP2 MSTORE PUSH1 0x20 ADD PUSH1 0x0 KECCAK256 SLOAD PUSH8 0xFFFFFFFFFFFFFFFF DUP2 GT ISZERO PUSH2 0x652 JUMPI PUSH32 0x4E487B7100000000000000000000000000000000000000000000000000000000 PUSH1 0x0 MSTORE PUSH1 0x41 PUSH1 0x4 MSTORE PUSH1 0x24 PUSH1 0x0 REVERT JUMPDEST PUSH1 0x40 MLOAD SWAP1 DUP1 DUP3 MSTORE DUP1 PUSH1 0x20 MUL PUSH1 0x20 ADD DUP3 ADD PUSH1 0x40 MSTORE DUP1 ISZERO PUSH2 0x68B JUMPI DUP2 PUSH1 0x20 ADD JUMPDEST PUSH2 0x678 PUSH2 0x1A1C JUMP JUMPDEST DUP2 MSTORE PUSH1 0x20 ADD SWAP1 PUSH1 0x1 SWAP1 SUB SWAP1 DUP2 PUSH2 0x670 JUMPI SWAP1 POP JUMPDEST POP SWAP1 POP PUSH1 0x0 JUMPDEST PUSH1 0x3 DUP1 SLOAD SWAP1 POP DUP2 LT ISZERO PUSH2 0x8A1 JUMPI DUP5 PUSH1 0x3 DUP3 DUP2 SLOAD DUP2 LT PUSH2 0x6D9 JUMPI PUSH32 0x4E487B7100000000000000000000000000000000000000000000000000000000 PUSH1 0x0 MSTORE PUSH1 0x32 PUSH1 0x4 MSTORE PUSH1 0x24 PUSH1 0x0 REVERT JUMPDEST SWAP1 PUSH1 0x0 MSTORE PUSH1 0x20 PUSH1 0x0 KECCAK256 SWAP1 PUSH1 0x4 MUL ADD PUSH1 0x2 ADD SLOAD EQ DUP1 ISZERO PUSH2 0x754 JUMPI POP PUSH1 0x1 ISZERO ISZERO PUSH1 0x3 DUP3 DUP2 SLOAD DUP2 LT PUSH2 0x731 JUMPI PUSH32 0x4E487B7100000000000000000000000000000000000000000000000000000000 PUSH1 0x0 MSTORE PUSH1 0x32 PUSH1 0x4 MSTORE PUSH1 0x24 PUSH1 0x0 REVERT JUMPDEST SWAP1 PUSH1 0x0 MSTORE PUSH1 0x20 PUSH1 0x0 KECCAK256 SWAP1 PUSH1 0x4 MUL ADD PUSH1 0x3 ADD PUSH1 0x0 SWAP1 SLOAD SWAP1 PUSH2 0x100 EXP SWAP1 DIV PUSH1 0xFF AND ISZERO ISZERO EQ JUMPDEST ISZERO PUSH2 0x88E JUMPI PUSH1 0x3 DUP2 DUP2 SLOAD DUP2 LT PUSH2 0x793 JUMPI PUSH32 0x4E487B7100000000000000000000000000000000000000000000000000000000 PUSH1 0x0 MSTORE PUSH1 0x32 PUSH1 0x4 MSTORE PUSH1 0x24 PUSH1 0x0 REVERT JUMPDEST SWAP1 PUSH1 0x0 MSTORE PUSH1 0x20 PUSH1 0x0 KECCAK256 SWAP1 PUSH1 0x4 MUL ADD PUSH1 0x40 MLOAD DUP1 PUSH1 0xA0 ADD PUSH1 0x40 MSTORE SWAP1 DUP2 PUSH1 0x0 DUP3 ADD SLOAD DUP2 MSTORE PUSH1 0x20 ADD PUSH1 0x1 DUP3 ADD SLOAD DUP2 MSTORE PUSH1 0x20 ADD PUSH1 0x2 DUP3 ADD SLOAD DUP2 MSTORE PUSH1 0x20 ADD PUSH1 0x3 DUP3 ADD PUSH1 0x0 SWAP1 SLOAD SWAP1 PUSH2 0x100 EXP SWAP1 DIV PUSH1 0xFF AND ISZERO ISZERO ISZERO ISZERO DUP2 MSTORE PUSH1 0x20 ADD PUSH1 0x3 DUP3 ADD PUSH1 0x1 SWAP1 SLOAD SWAP1 PUSH2 0x100 EXP SWAP1 DIV PUSH20 0xFFFFFFFFFFFFFFFFFFFFFFFFFFFFFFFFFFFFFFFF AND PUSH20 0xFFFFFFFFFFFFFFFFFFFFFFFFFFFFFFFFFFFFFFFF AND PUSH20 0xFFFFFFFFFFFFFFFFFFFFFFFFFFFFFFFFFFFFFFFF AND DUP2 MSTORE POP POP DUP3 DUP5 DUP2 MLOAD DUP2 LT PUSH2 0x874 JUMPI PUSH32 0x4E487B7100000000000000000000000000000000000000000000000000000000 PUSH1 0x0 MSTORE PUSH1 0x32 PUSH1 0x4 MSTORE PUSH1 0x24 PUSH1 0x0 REVERT JUMPDEST PUSH1 0x20 MUL PUSH1 0x20 ADD ADD DUP2 SWAP1 MSTORE POP DUP3 DUP1 PUSH2 0x88A SWAP1 PUSH2 0x208B JUMP JUMPDEST SWAP4 POP POP JUMPDEST DUP1 DUP1 PUSH2 0x899 SWAP1 PUSH2 0x208B JUMP JUMPDEST SWAP2 POP POP PUSH2 0x691 JUMP JUMPDEST POP DUP1 SWAP3 POP POP POP SWAP2 SWAP1 POP JUMP JUMPDEST PUSH1 0x60 PUSH1 0x0 DUP1 PUSH1 0x8 PUSH1 0x0 CALLER PUSH20 0xFFFFFFFFFFFFFFFFFFFFFFFFFFFFFFFFFFFFFFFF AND PUSH20 0xFFFFFFFFFFFFFFFFFFFFFFFFFFFFFFFFFFFFFFFF AND DUP2 MSTORE PUSH1 0x20 ADD SWAP1 DUP2 MSTORE PUSH1 0x20 ADD PUSH1 0x0 KECCAK256 SLOAD PUSH8 0xFFFFFFFFFFFFFFFF DUP2 GT ISZERO PUSH2 0x930 JUMPI PUSH32 0x4E487B7100000000000000000000000000000000000000000000000000000000 PUSH1 0x0 MSTORE PUSH1 0x41 PUSH1 0x4 MSTORE PUSH1 0x24 PUSH1 0x0 REVERT JUMPDEST PUSH1 0x40 MLOAD SWAP1 DUP1 DUP3 MSTORE DUP1 PUSH1 0x20 MUL PUSH1 0x20 ADD DUP3 ADD PUSH1 0x40 MSTORE DUP1 ISZERO PUSH2 0x969 JUMPI DUP2 PUSH1 0x20 ADD JUMPDEST PUSH2 0x956 PUSH2 0x1A1C JUMP JUMPDEST DUP2 MSTORE PUSH1 0x20 ADD SWAP1 PUSH1 0x1 SWAP1 SUB SWAP1 DUP2 PUSH2 0x94E JUMPI SWAP1 POP JUMPDEST POP SWAP1 POP PUSH1 0x0 JUMPDEST PUSH1 0x3 DUP1 SLOAD SWAP1 POP DUP2 LT ISZERO PUSH2 0xB2B JUMPI CALLER PUSH20 0xFFFFFFFFFFFFFFFFFFFFFFFFFFFFFFFFFFFFFFFF AND PUSH1 0x7 PUSH1 0x0 DUP4 DUP2 MSTORE PUSH1 0x20 ADD SWAP1 DUP2 MSTORE PUSH1 0x20 ADD PUSH1 0x0 KECCAK256 PUSH1 0x0 SWAP1 SLOAD SWAP1 PUSH2 0x100 EXP SWAP1 DIV PUSH20 0xFFFFFFFFFFFFFFFFFFFFFFFFFFFFFFFFFFFFFFFF AND PUSH20 0xFFFFFFFFFFFFFFFFFFFFFFFFFFFFFFFFFFFFFFFF AND EQ ISZERO PUSH2 0xB18 JUMPI PUSH1 0x3 DUP2 DUP2 SLOAD DUP2 LT PUSH2 0xA1D JUMPI PUSH32 0x4E487B7100000000000000000000000000000000000000000000000000000000 PUSH1 0x0 MSTORE PUSH1 0x32 PUSH1 0x4 MSTORE PUSH1 0x24 PUSH1 0x0 REVERT JUMPDEST SWAP1 PUSH1 0x0 MSTORE PUSH1 0x20 PUSH1 0x0 KECCAK256 SWAP1 PUSH1 0x4 MUL ADD PUSH1 0x40 MLOAD DUP1 PUSH1 0xA0 ADD PUSH1 0x40 MSTORE SWAP1 DUP2 PUSH1 0x0 DUP3 ADD SLOAD DUP2 MSTORE PUSH1 0x20 ADD PUSH1 0x1 DUP3 ADD SLOAD DUP2 MSTORE PUSH1 0x20 ADD PUSH1 0x2 DUP3 ADD SLOAD DUP2 MSTORE PUSH1 0x20 ADD PUSH1 0x3 DUP3 ADD PUSH1 0x0 SWAP1 SLOAD SWAP1 PUSH2 0x100 EXP SWAP1 DIV PUSH1 0xFF AND ISZERO ISZERO ISZERO ISZERO DUP2 MSTORE PUSH1 0x20 ADD PUSH1 0x3 DUP3 ADD PUSH1 0x1 SWAP1 SLOAD SWAP1 PUSH2 0x100 EXP SWAP1 DIV PUSH20 0xFFFFFFFFFFFFFFFFFFFFFFFFFFFFFFFFFFFFFFFF AND PUSH20 0xFFFFFFFFFFFFFFFFFFFFFFFFFFFFFFFFFFFFFFFF AND PUSH20 0xFFFFFFFFFFFFFFFFFFFFFFFFFFFFFFFFFFFFFFFF AND DUP2 MSTORE POP POP DUP3 DUP5 DUP2 MLOAD DUP2 LT PUSH2 0xAFE JUMPI PUSH32 0x4E487B7100000000000000000000000000000000000000000000000000000000 PUSH1 0x0 MSTORE PUSH1 0x32 PUSH1 0x4 MSTORE PUSH1 0x24 PUSH1 0x0 REVERT JUMPDEST PUSH1 0x20 MUL PUSH1 0x20 ADD ADD DUP2 SWAP1 MSTORE POP DUP3 DUP1 PUSH2 0xB14 SWAP1 PUSH2 0x208B JUMP JUMPDEST SWAP4 POP POP JUMPDEST DUP1 DUP1 PUSH2 0xB23 SWAP1 PUSH2 0x208B JUMP JUMPDEST SWAP2 POP POP PUSH2 0x96F JUMP JUMPDEST POP DUP1 SWAP3 POP POP POP SWAP1 JUMP JUMPDEST PUSH1 0x0 PUSH1 0x7 PUSH1 0x0 DUP4 DUP2 MSTORE PUSH1 0x20 ADD SWAP1 DUP2 MSTORE PUSH1 0x20 ADD PUSH1 0x0 KECCAK256 PUSH1 0x0 SWAP1 SLOAD SWAP1 PUSH2 0x100 EXP SWAP1 DIV PUSH20 0xFFFFFFFFFFFFFFFFFFFFFFFFFFFFFFFFFFFFFFFF AND SWAP1 POP SWAP2 SWAP1 POP JUMP JUMPDEST PUSH1 0x0 PUSH1 0x8 PUSH1 0x0 DUP4 PUSH20 0xFFFFFFFFFFFFFFFFFFFFFFFFFFFFFFFFFFFFFFFF AND PUSH20 0xFFFFFFFFFFFFFFFFFFFFFFFFFFFFFFFFFFFFFFFF AND DUP2 MSTORE PUSH1 0x20 ADD SWAP1 DUP2 MSTORE PUSH1 0x20 ADD PUSH1 0x0 KECCAK256 SLOAD SWAP1 POP SWAP2 SWAP1 POP JUMP JUMPDEST PUSH1 0x3 DUP2 DUP2 SLOAD DUP2 LT PUSH2 0xBF4 JUMPI PUSH32 0x4E487B7100000000000000000000000000000000000000000000000000000000 PUSH1 0x0 MSTORE PUSH1 0x32 PUSH1 0x4 MSTORE PUSH1 0x24 PUSH1 0x0 REVERT JUMPDEST SWAP1 PUSH1 0x0 MSTORE PUSH1 0x20 PUSH1 0x0 KECCAK256 SWAP1 PUSH1 0x4 MUL ADD PUSH1 0x1 ADD SLOAD CALLVALUE EQ PUSH2 0xC47 JUMPI PUSH1 0x40 MLOAD PUSH32 0x8C379A000000000000000000000000000000000000000000000000000000000 DUP2 MSTORE PUSH1 0x4 ADD PUSH2 0xC3E SWAP1 PUSH2 0x1E3F JUMP JUMPDEST PUSH1 0x40 MLOAD DUP1 SWAP2 SUB SWAP1 REVERT JUMPDEST PUSH1 0x0 PUSH20 0xFFFFFFFFFFFFFFFFFFFFFFFFFFFFFFFFFFFFFFFF AND PUSH1 0x7 PUSH1 0x0 DUP4 DUP2 MSTORE PUSH1 0x20 ADD SWAP1 DUP2 MSTORE PUSH1 0x20 ADD PUSH1 0x0 KECCAK256 PUSH1 0x0 SWAP1 SLOAD SWAP1 PUSH2 0x100 EXP SWAP1 DIV PUSH20 0xFFFFFFFFFFFFFFFFFFFFFFFFFFFFFFFFFFFFFFFF AND PUSH20 0xFFFFFFFFFFFFFFFFFFFFFFFFFFFFFFFFFFFFFFFF AND EQ ISZERO PUSH2 0xCEA JUMPI PUSH1 0x40 MLOAD PUSH32 0x8C379A000000000000000000000000000000000000000000000000000000000 DUP2 MSTORE PUSH1 0x4 ADD PUSH2 0xCE1 SWAP1 PUSH2 0x1E5F JUMP JUMPDEST PUSH1 0x40 MLOAD DUP1 SWAP2 SUB SWAP1 REVERT JUMPDEST CALLER PUSH20 0xFFFFFFFFFFFFFFFFFFFFFFFFFFFFFFFFFFFFFFFF AND PUSH1 0x7 PUSH1 0x0 DUP4 DUP2 MSTORE PUSH1 0x20 ADD SWAP1 DUP2 MSTORE PUSH1 0x20 ADD PUSH1 0x0 KECCAK256 PUSH1 0x0 SWAP1 SLOAD SWAP1 PUSH2 0x100 EXP SWAP1 DIV PUSH20 0xFFFFFFFFFFFFFFFFFFFFFFFFFFFFFFFFFFFFFFFF AND PUSH20 0xFFFFFFFFFFFFFFFFFFFFFFFFFFFFFFFFFFFFFFFF AND EQ ISZERO PUSH2 0xD8C JUMPI PUSH1 0x40 MLOAD PUSH32 0x8C379A000000000000000000000000000000000000000000000000000000000 DUP2 MSTORE PUSH1 0x4 ADD PUSH2 0xD83 SWAP1 PUSH2 0x1DDF JUMP JUMPDEST PUSH1 0x40 MLOAD DUP1 SWAP2 SUB SWAP1 REVERT JUMPDEST PUSH1 0x0 PUSH1 0x7 PUSH1 0x0 DUP4 DUP2 MSTORE PUSH1 0x20 ADD SWAP1 DUP2 MSTORE PUSH1 0x20 ADD PUSH1 0x0 KECCAK256 PUSH1 0x0 SWAP1 SLOAD SWAP1 PUSH2 0x100 EXP SWAP1 DIV PUSH20 0xFFFFFFFFFFFFFFFFFFFFFFFFFFFFFFFFFFFFFFFF AND SWAP1 POP PUSH1 0x0 PUSH1 0x3 DUP4 DUP2 SLOAD DUP2 LT PUSH2 0xE00 JUMPI PUSH32 0x4E487B7100000000000000000000000000000000000000000000000000000000 PUSH1 0x0 MSTORE PUSH1 0x32 PUSH1 0x4 MSTORE PUSH1 0x24 PUSH1 0x0 REVERT JUMPDEST SWAP1 PUSH1 0x0 MSTORE PUSH1 0x20 PUSH1 0x0 KECCAK256 SWAP1 PUSH1 0x4 MUL ADD SWAP1 POP PUSH1 0x0 DUP2 PUSH1 0x3 ADD PUSH1 0x0 PUSH2 0x100 EXP DUP2 SLOAD DUP2 PUSH1 0xFF MUL NOT AND SWAP1 DUP4 ISZERO ISZERO MUL OR SWAP1 SSTORE POP CALLER PUSH1 0x7 PUSH1 0x0 DUP6 DUP2 MSTORE PUSH1 0x20 ADD SWAP1 DUP2 MSTORE PUSH1 0x20 ADD PUSH1 0x0 KECCAK256 PUSH1 0x0 PUSH2 0x100 EXP DUP2 SLOAD DUP2 PUSH20 0xFFFFFFFFFFFFFFFFFFFFFFFFFFFFFFFFFFFFFFFF MUL NOT AND SWAP1 DUP4 PUSH20 0xFFFFFFFFFFFFFFFFFFFFFFFFFFFFFFFFFFFFFFFF AND MUL OR SWAP1 SSTORE POP PUSH1 0x8 PUSH1 0x0 DUP4 PUSH20 0xFFFFFFFFFFFFFFFFFFFFFFFFFFFFFFFFFFFFFFFF AND PUSH20 0xFFFFFFFFFFFFFFFFFFFFFFFFFFFFFFFFFFFFFFFF AND DUP2 MSTORE PUSH1 0x20 ADD SWAP1 DUP2 MSTORE PUSH1 0x20 ADD PUSH1 0x0 KECCAK256 PUSH1 0x0 DUP2 SLOAD DUP1 SWAP3 SWAP2 SWAP1 PUSH1 0x1 SWAP1 SUB SWAP2 SWAP1 POP SSTORE POP PUSH1 0x8 PUSH1 0x0 CALLER PUSH20 0xFFFFFFFFFFFFFFFFFFFFFFFFFFFFFFFFFFFFFFFF AND PUSH20 0xFFFFFFFFFFFFFFFFFFFFFFFFFFFFFFFFFFFFFFFF AND DUP2 MSTORE PUSH1 0x20 ADD SWAP1 DUP2 MSTORE PUSH1 0x20 ADD PUSH1 0x0 KECCAK256 PUSH1 0x0 DUP2 SLOAD DUP1 SWAP3 SWAP2 SWAP1 PUSH1 0x1 ADD SWAP2 SWAP1 POP SSTORE POP PUSH1 0x4 PUSH1 0x0 DUP2 SLOAD DUP1 SWAP3 SWAP2 SWAP1 PUSH1 0x1 SWAP1 SUB SWAP2 SWAP1 POP SSTORE POP DUP2 PUSH20 0xFFFFFFFFFFFFFFFFFFFFFFFFFFFFFFFFFFFFFFFF AND DUP2 PUSH1 0x3 ADD PUSH1 0x1 SWAP1 SLOAD SWAP1 PUSH2 0x100 EXP SWAP1 DIV PUSH20 0xFFFFFFFFFFFFFFFFFFFFFFFFFFFFFFFFFFFFFFFF AND PUSH20 0xFFFFFFFFFFFFFFFFFFFFFFFFFFFFFFFFFFFFFFFF AND EQ ISZERO PUSH2 0xFD5 JUMPI DUP2 PUSH20 0xFFFFFFFFFFFFFFFFFFFFFFFFFFFFFFFFFFFFFFFF AND PUSH2 0x8FC CALLVALUE SWAP1 DUP2 ISZERO MUL SWAP1 PUSH1 0x40 MLOAD PUSH1 0x0 PUSH1 0x40 MLOAD DUP1 DUP4 SUB DUP2 DUP6 DUP9 DUP9 CALL SWAP4 POP POP POP POP ISZERO DUP1 ISZERO PUSH2 0xFCF JUMPI RETURNDATASIZE PUSH1 0x0 DUP1 RETURNDATACOPY RETURNDATASIZE PUSH1 0x0 REVERT JUMPDEST POP PUSH2 0x10A1 JUMP JUMPDEST PUSH1 0x0 DUP1 PUSH2 0xFE4 CALLVALUE PUSH1 0x6 SLOAD PUSH2 0x19DE JUMP JUMPDEST DUP1 SWAP3 POP DUP2 SWAP4 POP POP POP DUP3 PUSH1 0x3 ADD PUSH1 0x1 SWAP1 SLOAD SWAP1 PUSH2 0x100 EXP SWAP1 DIV PUSH20 0xFFFFFFFFFFFFFFFFFFFFFFFFFFFFFFFFFFFFFFFF AND PUSH20 0xFFFFFFFFFFFFFFFFFFFFFFFFFFFFFFFFFFFFFFFF AND PUSH2 0x8FC DUP4 SWAP1 DUP2 ISZERO MUL SWAP1 PUSH1 0x40 MLOAD PUSH1 0x0 PUSH1 0x40 MLOAD DUP1 DUP4 SUB DUP2 DUP6 DUP9 DUP9 CALL SWAP4 POP POP POP POP ISZERO DUP1 ISZERO PUSH2 0x1056 JUMPI RETURNDATASIZE PUSH1 0x0 DUP1 RETURNDATACOPY RETURNDATASIZE PUSH1 0x0 REVERT JUMPDEST POP DUP4 PUSH20 0xFFFFFFFFFFFFFFFFFFFFFFFFFFFFFFFFFFFFFFFF AND PUSH2 0x8FC DUP3 SWAP1 DUP2 ISZERO MUL SWAP1 PUSH1 0x40 MLOAD PUSH1 0x0 PUSH1 0x40 MLOAD DUP1 DUP4 SUB DUP2 DUP6 DUP9 DUP9 CALL SWAP4 POP POP POP POP ISZERO DUP1 ISZERO PUSH2 0x109D JUMPI RETURNDATASIZE PUSH1 0x0 DUP1 RETURNDATACOPY RETURNDATASIZE PUSH1 0x0 REVERT JUMPDEST POP POP POP JUMPDEST CALLER PUSH20 0xFFFFFFFFFFFFFFFFFFFFFFFFFFFFFFFFFFFFFFFF AND DUP3 PUSH20 0xFFFFFFFFFFFFFFFFFFFFFFFFFFFFFFFFFFFFFFFF AND PUSH32 0xDDF252AD1BE2C89B69C2B068FC378DAA952BA7F163C4A11628F55A4DF523B3EF DUP6 PUSH1 0x40 MLOAD PUSH2 0x10FE SWAP2 SWAP1 PUSH2 0x1F1F JUMP JUMPDEST PUSH1 0x40 MLOAD DUP1 SWAP2 SUB SWAP1 LOG3 POP POP POP JUMP JUMPDEST PUSH1 0x0 PUSH1 0x5 SLOAD SWAP1 POP SWAP1 JUMP JUMPDEST DUP1 CALLER PUSH20 0xFFFFFFFFFFFFFFFFFFFFFFFFFFFFFFFFFFFFFFFF AND PUSH1 0x7 PUSH1 0x0 DUP4 DUP2 MSTORE PUSH1 0x20 ADD SWAP1 DUP2 MSTORE PUSH1 0x20 ADD PUSH1 0x0 KECCAK256 PUSH1 0x0 SWAP1 SLOAD SWAP1 PUSH2 0x100 EXP SWAP1 DIV PUSH20 0xFFFFFFFFFFFFFFFFFFFFFFFFFFFFFFFFFFFFFFFF AND PUSH20 0xFFFFFFFFFFFFFFFFFFFFFFFFFFFFFFFFFFFFFFFF AND EQ PUSH2 0x11B7 JUMPI PUSH1 0x40 MLOAD PUSH32 0x8C379A000000000000000000000000000000000000000000000000000000000 DUP2 MSTORE PUSH1 0x4 ADD PUSH2 0x11AE SWAP1 PUSH2 0x1E7F JUMP JUMPDEST PUSH1 0x40 MLOAD DUP1 SWAP2 SUB SWAP1 REVERT JUMPDEST PUSH1 0x0 PUSH20 0xFFFFFFFFFFFFFFFFFFFFFFFFFFFFFFFFFFFFFFFF AND PUSH1 0x7 PUSH1 0x0 DUP5 DUP2 MSTORE PUSH1 0x20 ADD SWAP1 DUP2 MSTORE PUSH1 0x20 ADD PUSH1 0x0 KECCAK256 PUSH1 0x0 SWAP1 SLOAD SWAP1 PUSH2 0x100 EXP SWAP1 DIV PUSH20 0xFFFFFFFFFFFFFFFFFFFFFFFFFFFFFFFFFFFFFFFF AND PUSH20 0xFFFFFFFFFFFFFFFFFFFFFFFFFFFFFFFFFFFFFFFF AND EQ ISZERO PUSH2 0x125A JUMPI PUSH1 0x40 MLOAD PUSH32 0x8C379A000000000000000000000000000000000000000000000000000000000 DUP2 MSTORE PUSH1 0x4 ADD PUSH2 0x1251 SWAP1 PUSH2 0x1E5F JUMP JUMPDEST PUSH1 0x40 MLOAD DUP1 SWAP2 SUB SWAP1 REVERT JUMPDEST PUSH1 0x1 ISZERO ISZERO PUSH1 0x3 DUP4 DUP2 SLOAD DUP2 LT PUSH2 0x1298 JUMPI PUSH32 0x4E487B7100000000000000000000000000000000000000000000000000000000 PUSH1 0x0 MSTORE PUSH1 0x32 PUSH1 0x4 MSTORE PUSH1 0x24 PUSH1 0x0 REVERT JUMPDEST SWAP1 PUSH1 0x0 MSTORE PUSH1 0x20 PUSH1 0x0 KECCAK256 SWAP1 PUSH1 0x4 MUL ADD PUSH1 0x3 ADD PUSH1 0x0 SWAP1 SLOAD SWAP1 PUSH2 0x100 EXP SWAP1 DIV PUSH1 0xFF AND ISZERO ISZERO EQ PUSH2 0x12F9 JUMPI PUSH1 0x40 MLOAD PUSH32 0x8C379A000000000000000000000000000000000000000000000000000000000 DUP2 MSTORE PUSH1 0x4 ADD PUSH2 0x12F0 SWAP1 PUSH2 0x1DFF JUMP JUMPDEST PUSH1 0x40 MLOAD DUP1 SWAP2 SUB SWAP1 REVERT JUMPDEST PUSH1 0x0 PUSH1 0x3 DUP4 DUP2 SLOAD DUP2 LT PUSH2 0x1335 JUMPI PUSH32 0x4E487B7100000000000000000000000000000000000000000000000000000000 PUSH1 0x0 MSTORE PUSH1 0x32 PUSH1 0x4 MSTORE PUSH1 0x24 PUSH1 0x0 REVERT JUMPDEST SWAP1 PUSH1 0x0 MSTORE PUSH1 0x20 PUSH1 0x0 KECCAK256 SWAP1 PUSH1 0x4 MUL ADD PUSH1 0x3 ADD PUSH1 0x0 PUSH2 0x100 EXP DUP2 SLOAD DUP2 PUSH1 0xFF MUL NOT AND SWAP1 DUP4 ISZERO ISZERO MUL OR SWAP1 SSTORE POP PUSH1 0x4 PUSH1 0x0 DUP2 SLOAD DUP1 SWAP3 SWAP2 SWAP1 PUSH1 0x1 SWAP1 SUB SWAP2 SWAP1 POP SSTORE POP POP POP JUMP JUMPDEST PUSH1 0x0 CALLVALUE PUSH1 0x5 SLOAD DUP2 EQ PUSH2 0x13BB JUMPI PUSH1 0x40 MLOAD PUSH32 0x8C379A000000000000000000000000000000000000000000000000000000000 DUP2 MSTORE PUSH1 0x4 ADD PUSH2 0x13B2 SWAP1 PUSH2 0x1EBF JUMP JUMPDEST PUSH1 0x40 MLOAD DUP1 SWAP2 SUB SWAP1 REVERT JUMPDEST PUSH1 0x0 DUP5 GT PUSH2 0x13FE JUMPI PUSH1 0x40 MLOAD PUSH32 0x8C379A000000000000000000000000000000000000000000000000000000000 DUP2 MSTORE PUSH1 0x4 ADD PUSH2 0x13F5 SWAP1 PUSH2 0x1EFF JUMP JUMPDEST PUSH1 0x40 MLOAD DUP1 SWAP2 SUB SWAP1 REVERT JUMPDEST PUSH1 0x0 PUSH1 0x3 DUP1 SLOAD SWAP1 POP SWAP1 POP PUSH1 0x0 PUSH20 0xFFFFFFFFFFFFFFFFFFFFFFFFFFFFFFFFFFFFFFFF AND PUSH1 0x7 PUSH1 0x0 DUP4 DUP2 MSTORE PUSH1 0x20 ADD SWAP1 DUP2 MSTORE PUSH1 0x20 ADD PUSH1 0x0 KECCAK256 PUSH1 0x0 SWAP1 SLOAD SWAP1 PUSH2 0x100 EXP SWAP1 DIV PUSH20 0xFFFFFFFFFFFFFFFFFFFFFFFFFFFFFFFFFFFFFFFF AND PUSH20 0xFFFFFFFFFFFFFFFFFFFFFFFFFFFFFFFFFFFFFFFF AND EQ PUSH2 0x14AA JUMPI PUSH1 0x40 MLOAD PUSH32 0x8C379A000000000000000000000000000000000000000000000000000000000 DUP2 MSTORE PUSH1 0x4 ADD PUSH2 0x14A1 SWAP1 PUSH2 0x1E1F JUMP JUMPDEST PUSH1 0x40 MLOAD DUP1 SWAP2 SUB SWAP1 REVERT JUMPDEST PUSH1 0x3 PUSH1 0x40 MLOAD DUP1 PUSH1 0xA0 ADD PUSH1 0x40 MSTORE DUP1 DUP4 DUP2 MSTORE PUSH1 0x20 ADD DUP8 DUP2 MSTORE PUSH1 0x20 ADD DUP7 DUP2 MSTORE PUSH1 0x20 ADD PUSH1 0x1 ISZERO ISZERO DUP2 MSTORE PUSH1 0x20 ADD CALLER PUSH20 0xFFFFFFFFFFFFFFFFFFFFFFFFFFFFFFFFFFFFFFFF AND DUP2 MSTORE POP SWAP1 DUP1 PUSH1 0x1 DUP2 SLOAD ADD DUP1 DUP3 SSTORE DUP1 SWAP2 POP POP PUSH1 0x1 SWAP1 SUB SWAP1 PUSH1 0x0 MSTORE PUSH1 0x20 PUSH1 0x0 KECCAK256 SWAP1 PUSH1 0x4 MUL ADD PUSH1 0x0 SWAP1 SWAP2 SWAP1 SWAP2 SWAP1 SWAP2 POP PUSH1 0x0 DUP3 ADD MLOAD DUP2 PUSH1 0x0 ADD SSTORE PUSH1 0x20 DUP3 ADD MLOAD DUP2 PUSH1 0x1 ADD SSTORE PUSH1 0x40 DUP3 ADD MLOAD DUP2 PUSH1 0x2 ADD SSTORE PUSH1 0x60 DUP3 ADD MLOAD DUP2 PUSH1 0x3 ADD PUSH1 0x0 PUSH2 0x100 EXP DUP2 SLOAD DUP2 PUSH1 0xFF MUL NOT AND SWAP1 DUP4 ISZERO ISZERO MUL OR SWAP1 SSTORE POP PUSH1 0x80 DUP3 ADD MLOAD DUP2 PUSH1 0x3 ADD PUSH1 0x1 PUSH2 0x100 EXP DUP2 SLOAD DUP2 PUSH20 0xFFFFFFFFFFFFFFFFFFFFFFFFFFFFFFFFFFFFFFFF MUL NOT AND SWAP1 DUP4 PUSH20 0xFFFFFFFFFFFFFFFFFFFFFFFFFFFFFFFFFFFFFFFF AND MUL OR SWAP1 SSTORE POP POP POP CALLER PUSH1 0x7 PUSH1 0x0 DUP4 DUP2 MSTORE PUSH1 0x20 ADD SWAP1 DUP2 MSTORE PUSH1 0x20 ADD PUSH1 0x0 KECCAK256 PUSH1 0x0 PUSH2 0x100 EXP DUP2 SLOAD DUP2 PUSH20 0xFFFFFFFFFFFFFFFFFFFFFFFFFFFFFFFFFFFFFFFF MUL NOT AND SWAP1 DUP4 PUSH20 0xFFFFFFFFFFFFFFFFFFFFFFFFFFFFFFFFFFFFFFFF AND MUL OR SWAP1 SSTORE POP PUSH1 0x8 PUSH1 0x0 CALLER PUSH20 0xFFFFFFFFFFFFFFFFFFFFFFFFFFFFFFFFFFFFFFFF AND PUSH20 0xFFFFFFFFFFFFFFFFFFFFFFFFFFFFFFFFFFFFFFFF AND DUP2 MSTORE PUSH1 0x20 ADD SWAP1 DUP2 MSTORE PUSH1 0x20 ADD PUSH1 0x0 KECCAK256 PUSH1 0x0 DUP2 SLOAD DUP1 SWAP3 SWAP2 SWAP1 PUSH1 0x1 ADD SWAP2 SWAP1 POP SSTORE POP PUSH1 0x9 PUSH1 0x0 DUP6 DUP2 MSTORE PUSH1 0x20 ADD SWAP1 DUP2 MSTORE PUSH1 0x20 ADD PUSH1 0x0 KECCAK256 PUSH1 0x0 DUP2 SLOAD DUP1 SWAP3 SWAP2 SWAP1 PUSH1 0x1 ADD SWAP2 SWAP1 POP SSTORE POP PUSH1 0x4 PUSH1 0x0 DUP2 SLOAD DUP1 SWAP3 SWAP2 SWAP1 PUSH1 0x1 ADD SWAP2 SWAP1 POP SSTORE POP PUSH1 0x2 PUSH1 0x0 SWAP1 SLOAD SWAP1 PUSH2 0x100 EXP SWAP1 DIV PUSH20 0xFFFFFFFFFFFFFFFFFFFFFFFFFFFFFFFFFFFFFFFF AND PUSH20 0xFFFFFFFFFFFFFFFFFFFFFFFFFFFFFFFFFFFFFFFF AND PUSH2 0x8FC CALLVALUE SWAP1 DUP2 ISZERO MUL SWAP1 PUSH1 0x40 MLOAD PUSH1 0x0 PUSH1 0x40 MLOAD DUP1 DUP4 SUB DUP2 DUP6 DUP9 DUP9 CALL SWAP4 POP POP POP POP ISZERO DUP1 ISZERO PUSH2 0x16DA JUMPI RETURNDATASIZE PUSH1 0x0 DUP1 RETURNDATACOPY RETURNDATASIZE PUSH1 0x0 REVERT JUMPDEST POP DUP1 SWAP3 POP POP POP SWAP3 SWAP2 POP POP JUMP JUMPDEST DUP1 CALLER PUSH20 0xFFFFFFFFFFFFFFFFFFFFFFFFFFFFFFFFFFFFFFFF AND PUSH1 0x7 PUSH1 0x0 DUP4 DUP2 MSTORE PUSH1 0x20 ADD SWAP1 DUP2 MSTORE PUSH1 0x20 ADD PUSH1 0x0 KECCAK256 PUSH1 0x0 SWAP1 SLOAD SWAP1 PUSH2 0x100 EXP SWAP1 DIV PUSH20 0xFFFFFFFFFFFFFFFFFFFFFFFFFFFFFFFFFFFFFFFF AND PUSH20 0xFFFFFFFFFFFFFFFFFFFFFFFFFFFFFFFFFFFFFFFF AND EQ PUSH2 0x1788 JUMPI PUSH1 0x40 MLOAD PUSH32 0x8C379A000000000000000000000000000000000000000000000000000000000 DUP2 MSTORE PUSH1 0x4 ADD PUSH2 0x177F SWAP1 PUSH2 0x1E7F JUMP JUMPDEST PUSH1 0x40 MLOAD DUP1 SWAP2 SUB SWAP1 REVERT JUMPDEST PUSH1 0x0 PUSH20 0xFFFFFFFFFFFFFFFFFFFFFFFFFFFFFFFFFFFFFFFF AND PUSH1 0x7 PUSH1 0x0 DUP5 DUP2 MSTORE PUSH1 0x20 ADD SWAP1 DUP2 MSTORE PUSH1 0x20 ADD PUSH1 0x0 KECCAK256 PUSH1 0x0 SWAP1 SLOAD SWAP1 PUSH2 0x100 EXP SWAP1 DIV PUSH20 0xFFFFFFFFFFFFFFFFFFFFFFFFFFFFFFFFFFFFFFFF AND PUSH20 0xFFFFFFFFFFFFFFFFFFFFFFFFFFFFFFFFFFFFFFFF AND EQ ISZERO PUSH2 0x182B JUMPI PUSH1 0x40 MLOAD PUSH32 0x8C379A000000000000000000000000000000000000000000000000000000000 DUP2 MSTORE PUSH1 0x4 ADD PUSH2 0x1822 SWAP1 PUSH2 0x1E5F JUMP JUMPDEST PUSH1 0x40 MLOAD DUP1 SWAP2 SUB SWAP1 REVERT JUMPDEST PUSH1 0x0 ISZERO ISZERO PUSH1 0x3 DUP4 DUP2 SLOAD DUP2 LT PUSH2 0x1869 JUMPI PUSH32 0x4E487B7100000000000000000000000000000000000000000000000000000000 PUSH1 0x0 MSTORE PUSH1 0x32 PUSH1 0x4 MSTORE PUSH1 0x24 PUSH1 0x0 REVERT JUMPDEST SWAP1 PUSH1 0x0 MSTORE PUSH1 0x20 PUSH1 0x0 KECCAK256 SWAP1 PUSH1 0x4 MUL ADD PUSH1 0x3 ADD PUSH1 0x0 SWAP1 SLOAD SWAP1 PUSH2 0x100 EXP SWAP1 DIV PUSH1 0xFF AND ISZERO ISZERO EQ PUSH2 0x18CA JUMPI PUSH1 0x40 MLOAD PUSH32 0x8C379A000000000000000000000000000000000000000000000000000000000 DUP2 MSTORE PUSH1 0x4 ADD PUSH2 0x18C1 SWAP1 PUSH2 0x1E9F JUMP JUMPDEST PUSH1 0x40 MLOAD DUP1 SWAP2 SUB SWAP1 REVERT JUMPDEST PUSH1 0x1 PUSH1 0x3 DUP4 DUP2 SLOAD DUP2 LT PUSH2 0x1906 JUMPI PUSH32 0x4E487B7100000000000000000000000000000000000000000000000000000000 PUSH1 0x0 MSTORE PUSH1 0x32 PUSH1 0x4 MSTORE PUSH1 0x24 PUSH1 0x0 REVERT JUMPDEST SWAP1 PUSH1 0x0 MSTORE PUSH1 0x20 PUSH1 0x0 KECCAK256 SWAP1 PUSH1 0x4 MUL ADD PUSH1 0x3 ADD PUSH1 0x0 PUSH2 0x100 EXP DUP2 SLOAD DUP2 PUSH1 0xFF MUL NOT AND SWAP1 DUP4 ISZERO ISZERO MUL OR SWAP1 SSTORE POP PUSH1 0x4 PUSH1 0x0 DUP2 SLOAD DUP1 SWAP3 SWAP2 SWAP1 PUSH1 0x1 ADD SWAP2 SWAP1 POP SSTORE POP POP POP JUMP JUMPDEST PUSH1 0x2 PUSH1 0x0 SWAP1 SLOAD SWAP1 PUSH2 0x100 EXP SWAP1 DIV PUSH20 0xFFFFFFFFFFFFFFFFFFFFFFFFFFFFFFFFFFFFFFFF AND PUSH20 0xFFFFFFFFFFFFFFFFFFFFFFFFFFFFFFFFFFFFFFFF AND CALLER PUSH20 0xFFFFFFFFFFFFFFFFFFFFFFFFFFFFFFFFFFFFFFFF AND EQ PUSH2 0x19D4 JUMPI PUSH1 0x40 MLOAD PUSH32 0x8C379A000000000000000000000000000000000000000000000000000000000 DUP2 MSTORE PUSH1 0x4 ADD PUSH2 0x19CB SWAP1 PUSH2 0x1EDF JUMP JUMPDEST PUSH1 0x40 MLOAD DUP1 SWAP2 SUB SWAP1 REVERT JUMPDEST DUP1 PUSH1 0x5 DUP2 SWAP1 SSTORE POP POP JUMP JUMPDEST PUSH1 0x0 DUP1 PUSH1 0x0 PUSH1 0x64 DUP6 DUP6 PUSH2 0x19F1 SWAP2 SWAP1 PUSH2 0x1FB5 JUMP JUMPDEST PUSH2 0x19FB SWAP2 SWAP1 PUSH2 0x1F84 JUMP JUMPDEST SWAP1 POP PUSH1 0x0 DUP2 DUP7 PUSH2 0x1A0B SWAP2 SWAP1 PUSH2 0x200F JUMP JUMPDEST SWAP1 POP DUP2 DUP2 SWAP4 POP SWAP4 POP POP POP SWAP3 POP SWAP3 SWAP1 POP JUMP JUMPDEST PUSH1 0x40 MLOAD DUP1 PUSH1 0xA0 ADD PUSH1 0x40 MSTORE DUP1 PUSH1 0x0 DUP2 MSTORE PUSH1 0x20 ADD PUSH1 0x0 DUP2 MSTORE PUSH1 0x20 ADD PUSH1 0x0 DUP2 MSTORE PUSH1 0x20 ADD PUSH1 0x0 ISZERO ISZERO DUP2 MSTORE PUSH1 0x20 ADD PUSH1 0x0 PUSH20 0xFFFFFFFFFFFFFFFFFFFFFFFFFFFFFFFFFFFFFFFF AND DUP2 MSTORE POP SWAP1 JUMP JUMPDEST PUSH1 0x0 DUP2 CALLDATALOAD SWAP1 POP PUSH2 0x1A72 DUP2 PUSH2 0x2364 JUMP JUMPDEST SWAP3 SWAP2 POP POP JUMP JUMPDEST PUSH1 0x0 DUP2 CALLDATALOAD SWAP1 POP PUSH2 0x1A87 DUP2 PUSH2 0x237B JUMP JUMPDEST SWAP3 SWAP2 POP POP JUMP JUMPDEST PUSH1 0x0 PUSH1 0x20 DUP3 DUP5 SUB SLT ISZERO PUSH2 0x1A9F JUMPI PUSH1 0x0 DUP1 REVERT JUMPDEST PUSH1 0x0 PUSH2 0x1AAD DUP5 DUP3 DUP6 ADD PUSH2 0x1A63 JUMP JUMPDEST SWAP2 POP POP SWAP3 SWAP2 POP POP JUMP JUMPDEST PUSH1 0x0 PUSH1 0x20 DUP3 DUP5 SUB SLT ISZERO PUSH2 0x1AC8 JUMPI PUSH1 0x0 DUP1 REVERT JUMPDEST PUSH1 0x0 PUSH2 0x1AD6 DUP5 DUP3 DUP6 ADD PUSH2 0x1A78 JUMP JUMPDEST SWAP2 POP POP SWAP3 SWAP2 POP POP JUMP JUMPDEST PUSH1 0x0 DUP1 PUSH1 0x40 DUP4 DUP6 SUB SLT ISZERO PUSH2 0x1AF2 JUMPI PUSH1 0x0 DUP1 REVERT JUMPDEST PUSH1 0x0 PUSH2 0x1B00 DUP6 DUP3 DUP7 ADD PUSH2 0x1A78 JUMP JUMPDEST SWAP3 POP POP PUSH1 0x20 PUSH2 0x1B11 DUP6 DUP3 DUP7 ADD PUSH2 0x1A78 JUMP JUMPDEST SWAP2 POP POP SWAP3 POP SWAP3 SWAP1 POP JUMP JUMPDEST PUSH1 0x0 PUSH2 0x1B27 DUP4 DUP4 PUSH2 0x1D1C JUMP JUMPDEST PUSH1 0xA0 DUP4 ADD SWAP1 POP SWAP3 SWAP2 POP POP JUMP JUMPDEST PUSH2 0x1B3C DUP2 PUSH2 0x2043 JUMP JUMPDEST DUP3 MSTORE POP POP JUMP JUMPDEST PUSH2 0x1B4B DUP2 PUSH2 0x2043 JUMP JUMPDEST DUP3 MSTORE POP POP JUMP JUMPDEST PUSH1 0x0 PUSH2 0x1B5C DUP3 PUSH2 0x1F4A JUMP JUMPDEST PUSH2 0x1B66 DUP2 DUP6 PUSH2 0x1F62 JUMP JUMPDEST SWAP4 POP PUSH2 0x1B71 DUP4 PUSH2 0x1F3A JUMP JUMPDEST DUP1 PUSH1 0x0 JUMPDEST DUP4 DUP2 LT ISZERO PUSH2 0x1BA2 JUMPI DUP2 MLOAD PUSH2 0x1B89 DUP9 DUP3 PUSH2 0x1B1B JUMP JUMPDEST SWAP8 POP PUSH2 0x1B94 DUP4 PUSH2 0x1F55 JUMP JUMPDEST SWAP3 POP POP PUSH1 0x1 DUP2 ADD SWAP1 POP PUSH2 0x1B75 JUMP JUMPDEST POP DUP6 SWAP4 POP POP POP POP SWAP3 SWAP2 POP POP JUMP JUMPDEST PUSH2 0x1BB8 DUP2 PUSH2 0x2055 JUMP JUMPDEST DUP3 MSTORE POP POP JUMP JUMPDEST PUSH1 0x0 PUSH2 0x1BCB PUSH1 0x29 DUP4 PUSH2 0x1F73 JUMP JUMPDEST SWAP2 POP PUSH2 0x1BD6 DUP3 PUSH2 0x2132 JUMP JUMPDEST PUSH1 0x40 DUP3 ADD SWAP1 POP SWAP2 SWAP1 POP JUMP JUMPDEST PUSH1 0x0 PUSH2 0x1BEE PUSH1 0x13 DUP4 PUSH2 0x1F73 JUMP JUMPDEST SWAP2 POP PUSH2 0x1BF9 DUP3 PUSH2 0x2181 JUMP JUMPDEST PUSH1 0x20 DUP3 ADD SWAP1 POP SWAP2 SWAP1 POP JUMP JUMPDEST PUSH1 0x0 PUSH2 0x1C11 PUSH1 0x13 DUP4 PUSH2 0x1F73 JUMP JUMPDEST SWAP2 POP PUSH2 0x1C1C DUP3 PUSH2 0x21AA JUMP JUMPDEST PUSH1 0x20 DUP3 ADD SWAP1 POP SWAP2 SWAP1 POP JUMP JUMPDEST PUSH1 0x0 PUSH2 0x1C34 PUSH1 0x35 DUP4 PUSH2 0x1F73 JUMP JUMPDEST SWAP2 POP PUSH2 0x1C3F DUP3 PUSH2 0x21D3 JUMP JUMPDEST PUSH1 0x40 DUP3 ADD SWAP1 POP SWAP2 SWAP1 POP JUMP JUMPDEST PUSH1 0x0 PUSH2 0x1C57 PUSH1 0x13 DUP4 PUSH2 0x1F73 JUMP JUMPDEST SWAP2 POP PUSH2 0x1C62 DUP3 PUSH2 0x2222 JUMP JUMPDEST PUSH1 0x20 DUP3 ADD SWAP1 POP SWAP2 SWAP1 POP JUMP JUMPDEST PUSH1 0x0 PUSH2 0x1C7A PUSH1 0x1D DUP4 PUSH2 0x1F73 JUMP JUMPDEST SWAP2 POP PUSH2 0x1C85 DUP3 PUSH2 0x224B JUMP JUMPDEST PUSH1 0x20 DUP3 ADD SWAP1 POP SWAP2 SWAP1 POP JUMP JUMPDEST PUSH1 0x0 PUSH2 0x1C9D PUSH1 0x18 DUP4 PUSH2 0x1F73 JUMP JUMPDEST SWAP2 POP PUSH2 0x1CA8 DUP3 PUSH2 0x2274 JUMP JUMPDEST PUSH1 0x20 DUP3 ADD SWAP1 POP SWAP2 SWAP1 POP JUMP JUMPDEST PUSH1 0x0 PUSH2 0x1CC0 PUSH1 0x21 DUP4 PUSH2 0x1F73 JUMP JUMPDEST SWAP2 POP PUSH2 0x1CCB DUP3 PUSH2 0x229D JUMP JUMPDEST PUSH1 0x40 DUP3 ADD SWAP1 POP SWAP2 SWAP1 POP JUMP JUMPDEST PUSH1 0x0 PUSH2 0x1CE3 PUSH1 0x21 DUP4 PUSH2 0x1F73 JUMP JUMPDEST SWAP2 POP PUSH2 0x1CEE DUP3 PUSH2 0x22EC JUMP JUMPDEST PUSH1 0x40 DUP3 ADD SWAP1 POP SWAP2 SWAP1 POP JUMP JUMPDEST PUSH1 0x0 PUSH2 0x1D06 PUSH1 0x1A DUP4 PUSH2 0x1F73 JUMP JUMPDEST SWAP2 POP PUSH2 0x1D11 DUP3 PUSH2 0x233B JUMP JUMPDEST PUSH1 0x20 DUP3 ADD SWAP1 POP SWAP2 SWAP1 POP JUMP JUMPDEST PUSH1 0xA0 DUP3 ADD PUSH1 0x0 DUP3 ADD MLOAD PUSH2 0x1D32 PUSH1 0x0 DUP6 ADD DUP3 PUSH2 0x1D84 JUMP JUMPDEST POP PUSH1 0x20 DUP3 ADD MLOAD PUSH2 0x1D45 PUSH1 0x20 DUP6 ADD DUP3 PUSH2 0x1D84 JUMP JUMPDEST POP PUSH1 0x40 DUP3 ADD MLOAD PUSH2 0x1D58 PUSH1 0x40 DUP6 ADD DUP3 PUSH2 0x1D84 JUMP JUMPDEST POP PUSH1 0x60 DUP3 ADD MLOAD PUSH2 0x1D6B PUSH1 0x60 DUP6 ADD DUP3 PUSH2 0x1BAF JUMP JUMPDEST POP PUSH1 0x80 DUP3 ADD MLOAD PUSH2 0x1D7E PUSH1 0x80 DUP6 ADD DUP3 PUSH2 0x1B33 JUMP JUMPDEST POP POP POP POP JUMP JUMPDEST PUSH2 0x1D8D DUP2 PUSH2 0x2081 JUMP JUMPDEST DUP3 MSTORE POP POP JUMP JUMPDEST PUSH2 0x1D9C DUP2 PUSH2 0x2081 JUMP JUMPDEST DUP3 MSTORE POP POP JUMP JUMPDEST PUSH1 0x0 PUSH1 0x20 DUP3 ADD SWAP1 POP PUSH2 0x1DB7 PUSH1 0x0 DUP4 ADD DUP5 PUSH2 0x1B42 JUMP JUMPDEST SWAP3 SWAP2 POP POP JUMP JUMPDEST PUSH1 0x0 PUSH1 0x20 DUP3 ADD SWAP1 POP DUP2 DUP2 SUB PUSH1 0x0 DUP4 ADD MSTORE PUSH2 0x1DD7 DUP2 DUP5 PUSH2 0x1B51 JUMP JUMPDEST SWAP1 POP SWAP3 SWAP2 POP POP JUMP JUMPDEST PUSH1 0x0 PUSH1 0x20 DUP3 ADD SWAP1 POP DUP2 DUP2 SUB PUSH1 0x0 DUP4 ADD MSTORE PUSH2 0x1DF8 DUP2 PUSH2 0x1BBE JUMP JUMPDEST SWAP1 POP SWAP2 SWAP1 POP JUMP JUMPDEST PUSH1 0x0 PUSH1 0x20 DUP3 ADD SWAP1 POP DUP2 DUP2 SUB PUSH1 0x0 DUP4 ADD MSTORE PUSH2 0x1E18 DUP2 PUSH2 0x1BE1 JUMP JUMPDEST SWAP1 POP SWAP2 SWAP1 POP JUMP JUMPDEST PUSH1 0x0 PUSH1 0x20 DUP3 ADD SWAP1 POP DUP2 DUP2 SUB PUSH1 0x0 DUP4 ADD MSTORE PUSH2 0x1E38 DUP2 PUSH2 0x1C04 JUMP JUMPDEST SWAP1 POP SWAP2 SWAP1 POP JUMP JUMPDEST PUSH1 0x0 PUSH1 0x20 DUP3 ADD SWAP1 POP DUP2 DUP2 SUB PUSH1 0x0 DUP4 ADD MSTORE PUSH2 0x1E58 DUP2 PUSH2 0x1C27 JUMP JUMPDEST SWAP1 POP SWAP2 SWAP1 POP JUMP JUMPDEST PUSH1 0x0 PUSH1 0x20 DUP3 ADD SWAP1 POP DUP2 DUP2 SUB PUSH1 0x0 DUP4 ADD MSTORE PUSH2 0x1E78 DUP2 PUSH2 0x1C4A JUMP JUMPDEST SWAP1 POP SWAP2 SWAP1 POP JUMP JUMPDEST PUSH1 0x0 PUSH1 0x20 DUP3 ADD SWAP1 POP DUP2 DUP2 SUB PUSH1 0x0 DUP4 ADD MSTORE PUSH2 0x1E98 DUP2 PUSH2 0x1C6D JUMP JUMPDEST SWAP1 POP SWAP2 SWAP1 POP JUMP JUMPDEST PUSH1 0x0 PUSH1 0x20 DUP3 ADD SWAP1 POP DUP2 DUP2 SUB PUSH1 0x0 DUP4 ADD MSTORE PUSH2 0x1EB8 DUP2 PUSH2 0x1C90 JUMP JUMPDEST SWAP1 POP SWAP2 SWAP1 POP JUMP JUMPDEST PUSH1 0x0 PUSH1 0x20 DUP3 ADD SWAP1 POP DUP2 DUP2 SUB PUSH1 0x0 DUP4 ADD MSTORE PUSH2 0x1ED8 DUP2 PUSH2 0x1CB3 JUMP JUMPDEST SWAP1 POP SWAP2 SWAP1 POP JUMP JUMPDEST PUSH1 0x0 PUSH1 0x20 DUP3 ADD SWAP1 POP DUP2 DUP2 SUB PUSH1 0x0 DUP4 ADD MSTORE PUSH2 0x1EF8 DUP2 PUSH2 0x1CD6 JUMP JUMPDEST SWAP1 POP SWAP2 SWAP1 POP JUMP JUMPDEST PUSH1 0x0 PUSH1 0x20 DUP3 ADD SWAP1 POP DUP2 DUP2 SUB PUSH1 0x0 DUP4 ADD MSTORE PUSH2 0x1F18 DUP2 PUSH2 0x1CF9 JUMP JUMPDEST SWAP1 POP SWAP2 SWAP1 POP JUMP JUMPDEST PUSH1 0x0 PUSH1 0x20 DUP3 ADD SWAP1 POP PUSH2 0x1F34 PUSH1 0x0 DUP4 ADD DUP5 PUSH2 0x1D93 JUMP JUMPDEST SWAP3 SWAP2 POP POP JUMP JUMPDEST PUSH1 0x0 DUP2 SWAP1 POP PUSH1 0x20 DUP3 ADD SWAP1 POP SWAP2 SWAP1 POP JUMP JUMPDEST PUSH1 0x0 DUP2 MLOAD SWAP1 POP SWAP2 SWAP1 POP JUMP JUMPDEST PUSH1 0x0 PUSH1 0x20 DUP3 ADD SWAP1 POP SWAP2 SWAP1 POP JUMP JUMPDEST PUSH1 0x0 DUP3 DUP3 MSTORE PUSH1 0x20 DUP3 ADD SWAP1 POP SWAP3 SWAP2 POP POP JUMP JUMPDEST PUSH1 0x0 DUP3 DUP3 MSTORE PUSH1 0x20 DUP3 ADD SWAP1 POP SWAP3 SWAP2 POP POP JUMP JUMPDEST PUSH1 0x0 PUSH2 0x1F8F DUP3 PUSH2 0x2081 JUMP JUMPDEST SWAP2 POP PUSH2 0x1F9A DUP4 PUSH2 0x2081 JUMP JUMPDEST SWAP3 POP DUP3 PUSH2 0x1FAA JUMPI PUSH2 0x1FA9 PUSH2 0x2103 JUMP JUMPDEST JUMPDEST DUP3 DUP3 DIV SWAP1 POP SWAP3 SWAP2 POP POP JUMP JUMPDEST PUSH1 0x0 PUSH2 0x1FC0 DUP3 PUSH2 0x2081 JUMP JUMPDEST SWAP2 POP PUSH2 0x1FCB DUP4 PUSH2 0x2081 JUMP JUMPDEST SWAP3 POP DUP2 PUSH32 0xFFFFFFFFFFFFFFFFFFFFFFFFFFFFFFFFFFFFFFFFFFFFFFFFFFFFFFFFFFFFFFFF DIV DUP4 GT DUP3 ISZERO ISZERO AND ISZERO PUSH2 0x2004 JUMPI PUSH2 0x2003 PUSH2 0x20D4 JUMP JUMPDEST JUMPDEST DUP3 DUP3 MUL SWAP1 POP SWAP3 SWAP2 POP POP JUMP JUMPDEST PUSH1 0x0 PUSH2 0x201A DUP3 PUSH2 0x2081 JUMP JUMPDEST SWAP2 POP PUSH2 0x2025 DUP4 PUSH2 0x2081 JUMP JUMPDEST SWAP3 POP DUP3 DUP3 LT ISZERO PUSH2 0x2038 JUMPI PUSH2 0x2037 PUSH2 0x20D4 JUMP JUMPDEST JUMPDEST DUP3 DUP3 SUB SWAP1 POP SWAP3 SWAP2 POP POP JUMP JUMPDEST PUSH1 0x0 PUSH2 0x204E DUP3 PUSH2 0x2061 JUMP JUMPDEST SWAP1 POP SWAP2 SWAP1 POP JUMP JUMPDEST PUSH1 0x0 DUP2 ISZERO ISZERO SWAP1 POP SWAP2 SWAP1 POP JUMP JUMPDEST PUSH1 0x0 PUSH20 0xFFFFFFFFFFFFFFFFFFFFFFFFFFFFFFFFFFFFFFFF DUP3 AND SWAP1 POP SWAP2 SWAP1 POP JUMP JUMPDEST PUSH1 0x0 DUP2 SWAP1 POP SWAP2 SWAP1 POP JUMP JUMPDEST PUSH1 0x0 PUSH2 0x2096 DUP3 PUSH2 0x2081 JUMP JUMPDEST SWAP2 POP PUSH32 0xFFFFFFFFFFFFFFFFFFFFFFFFFFFFFFFFFFFFFFFFFFFFFFFFFFFFFFFFFFFFFFFF DUP3 EQ ISZERO PUSH2 0x20C9 JUMPI PUSH2 0x20C8 PUSH2 0x20D4 JUMP JUMPDEST JUMPDEST PUSH1 0x1 DUP3 ADD SWAP1 POP SWAP2 SWAP1 POP JUMP JUMPDEST PUSH32 0x4E487B7100000000000000000000000000000000000000000000000000000000 PUSH1 0x0 MSTORE PUSH1 0x11 PUSH1 0x4 MSTORE PUSH1 0x24 PUSH1 0x0 REVERT JUMPDEST PUSH32 0x4E487B7100000000000000000000000000000000000000000000000000000000 PUSH1 0x0 MSTORE PUSH1 0x12 PUSH1 0x4 MSTORE PUSH1 0x24 PUSH1 0x0 REVERT JUMPDEST PUSH32 0x796F752063616E27742062757920616E206974656D20746861742062656C6F6E PUSH1 0x0 DUP3 ADD MSTORE PUSH32 0x677320746F20796F750000000000000000000000000000000000000000000000 PUSH1 0x20 DUP3 ADD MSTORE POP JUMP JUMPDEST PUSH32 0x746F6B656E2069736E277420746F2073656C6C00000000000000000000000000 PUSH1 0x0 DUP3 ADD MSTORE POP JUMP JUMPDEST PUSH32 0x746F6B656E20616C726561647920657869737400000000000000000000000000 PUSH1 0x0 DUP3 ADD MSTORE POP JUMP JUMPDEST PUSH32 0x7472616E73616374696F6E27732076616C75652063616E6E6F74206265206469 PUSH1 0x0 DUP3 ADD MSTORE PUSH32 0x66666572656E74206F66206974656D2070726963650000000000000000000000 PUSH1 0x20 DUP3 ADD MSTORE POP JUMP JUMPDEST PUSH32 0x746F6B656E20646F65736E277420657869737400000000000000000000000000 PUSH1 0x0 DUP3 ADD MSTORE POP JUMP JUMPDEST PUSH32 0x4F6E6C79206974656D2773206F776E65722063616E20646F2074686174000000 PUSH1 0x0 DUP3 ADD MSTORE POP JUMP JUMPDEST PUSH32 0x746F6B656E20697320616C726561647920746F2073656C6C0000000000000000 PUSH1 0x0 DUP3 ADD MSTORE POP JUMP JUMPDEST PUSH32 0x5468616E6B7320746F2073656E6420636F727265637420666565732076616C75 PUSH1 0x0 DUP3 ADD MSTORE PUSH32 0x6500000000000000000000000000000000000000000000000000000000000000 PUSH1 0x20 DUP3 ADD MSTORE POP JUMP JUMPDEST PUSH32 0x4F6E6C7920636F6E74726163742773206F776E65722063616E20646F20746861 PUSH1 0x0 DUP3 ADD MSTORE PUSH32 0x7400000000000000000000000000000000000000000000000000000000000000 PUSH1 0x20 DUP3 ADD MSTORE POP JUMP JUMPDEST PUSH32 0x50726963652063616E6E6F7420626520657175616C20746F2030000000000000 PUSH1 0x0 DUP3 ADD MSTORE POP JUMP JUMPDEST PUSH2 0x236D DUP2 PUSH2 0x2043 JUMP JUMPDEST DUP2 EQ PUSH2 0x2378 JUMPI PUSH1 0x0 DUP1 REVERT JUMPDEST POP JUMP JUMPDEST PUSH2 0x2384 DUP2 PUSH2 0x2081 JUMP JUMPDEST DUP2 EQ PUSH2 0x238F JUMPI PUSH1 0x0 DUP1 REVERT JUMPDEST POP JUMP INVALID LOG2 PUSH5 0x6970667358 0x22 SLT KECCAK256 0x4E MSTORE 0xFB PUSH6 0x36370CE4569F 0xD9 PUSH31 0xF9BEFBC72B7E3ACD741C47DFFE7B994331FF9F164736F6C63430008010033 "
				},
				"gasEstimates": {
					"creation": {
						"codeDepositCost": "1832000",
						"executionCost": "infinite",
						"totalCost": "infinite"
					},
					"external": {
						"addItemToSell(uint256)": "46722",
						"balanceOf(address)": "1564",
						"createItem(uint256,uint256)": "infinite",
						"fetchItemsByOwner()": "infinite",
						"fetchItemsToSell()": "infinite",
						"fetchItemsToSellByCatId(uint256)": "infinite",
						"getCreateItemFees()": "1204",
						"getCreatorPercentage()": "1160",
						"ownerOf(uint256)": "1676",
						"removeItemToSell(uint256)": "46705",
						"sellItem(uint256)": "infinite",
						"updateCreateItemFees(uint256)": "21378",
						"updateCreatorPercentage(uint256)": "21335"
					},
					"internal": {
						"getFees(uint256,uint256)": "infinite"
					}
				},
				"methodIdentifiers": {
					"addItemToSell(uint256)": "c0f202ef",
					"balanceOf(address)": "70a08231",
					"createItem(uint256,uint256)": "adae08dd",
					"fetchItemsByOwner()": "4cad2ffc",
					"fetchItemsToSell()": "073e74df",
					"fetchItemsToSellByCatId(uint256)": "406693b2",
					"getCreateItemFees()": "a411d68d",
					"getCreatorPercentage()": "160035b1",
					"ownerOf(uint256)": "6352211e",
					"removeItemToSell(uint256)": "a4964c33",
					"sellItem(uint256)": "91b6be9a",
					"updateCreateItemFees(uint256)": "e6e95ea7",
					"updateCreatorPercentage(uint256)": "1b03427c"
				}
			},
			"storageLayout": {
				"storage": [
					{
						"astId": 11,
						"contract": "contracts/GeekNft.sol:GeekNft",
						"label": "name",
						"offset": 0,
						"slot": "0",
						"type": "t_string_storage"
					},
					{
						"astId": 13,
						"contract": "contracts/GeekNft.sol:GeekNft",
						"label": "symbol",
						"offset": 0,
						"slot": "1",
						"type": "t_string_storage"
					},
					{
						"astId": 15,
						"contract": "contracts/GeekNft.sol:GeekNft",
						"label": "owner",
						"offset": 0,
						"slot": "2",
						"type": "t_address"
					},
					{
						"astId": 30,
						"contract": "contracts/GeekNft.sol:GeekNft",
						"label": "items",
						"offset": 0,
						"slot": "3",
						"type": "t_array(t_struct(Item)26_storage)dyn_storage"
					},
					{
						"astId": 32,
						"contract": "contracts/GeekNft.sol:GeekNft",
						"label": "itemsToSellCount",
						"offset": 0,
						"slot": "4",
						"type": "t_uint256"
					},
					{
						"astId": 35,
						"contract": "contracts/GeekNft.sol:GeekNft",
						"label": "createItemFees",
						"offset": 0,
						"slot": "5",
						"type": "t_uint256"
					},
					{
						"astId": 38,
						"contract": "contracts/GeekNft.sol:GeekNft",
						"label": "creatorPercentage",
						"offset": 0,
						"slot": "6",
						"type": "t_uint256"
					},
					{
						"astId": 42,
						"contract": "contracts/GeekNft.sol:GeekNft",
						"label": "itemToOwner",
						"offset": 0,
						"slot": "7",
						"type": "t_mapping(t_uint256,t_address)"
					},
					{
						"astId": 46,
						"contract": "contracts/GeekNft.sol:GeekNft",
						"label": "itemsOwnerCount",
						"offset": 0,
						"slot": "8",
						"type": "t_mapping(t_address,t_uint256)"
					},
					{
						"astId": 50,
						"contract": "contracts/GeekNft.sol:GeekNft",
						"label": "itemsCatIdCount",
						"offset": 0,
						"slot": "9",
						"type": "t_mapping(t_uint256,t_uint256)"
					}
				],
				"types": {
					"t_address": {
						"encoding": "inplace",
						"label": "address",
						"numberOfBytes": "20"
					},
					"t_array(t_struct(Item)26_storage)dyn_storage": {
						"base": "t_struct(Item)26_storage",
						"encoding": "dynamic_array",
						"label": "struct GeekNft.Item[]",
						"numberOfBytes": "32"
					},
					"t_bool": {
						"encoding": "inplace",
						"label": "bool",
						"numberOfBytes": "1"
					},
					"t_mapping(t_address,t_uint256)": {
						"encoding": "mapping",
						"key": "t_address",
						"label": "mapping(address => uint256)",
						"numberOfBytes": "32",
						"value": "t_uint256"
					},
					"t_mapping(t_uint256,t_address)": {
						"encoding": "mapping",
						"key": "t_uint256",
						"label": "mapping(uint256 => address)",
						"numberOfBytes": "32",
						"value": "t_address"
					},
					"t_mapping(t_uint256,t_uint256)": {
						"encoding": "mapping",
						"key": "t_uint256",
						"label": "mapping(uint256 => uint256)",
						"numberOfBytes": "32",
						"value": "t_uint256"
					},
					"t_string_storage": {
						"encoding": "bytes",
						"label": "string",
						"numberOfBytes": "32"
					},
					"t_struct(Item)26_storage": {
						"encoding": "inplace",
						"label": "struct GeekNft.Item",
						"members": [
							{
								"astId": 17,
								"contract": "contracts/GeekNft.sol:GeekNft",
								"label": "tokenId",
								"offset": 0,
								"slot": "0",
								"type": "t_uint256"
							},
							{
								"astId": 19,
								"contract": "contracts/GeekNft.sol:GeekNft",
								"label": "price",
								"offset": 0,
								"slot": "1",
								"type": "t_uint256"
							},
							{
								"astId": 21,
								"contract": "contracts/GeekNft.sol:GeekNft",
								"label": "catId",
								"offset": 0,
								"slot": "2",
								"type": "t_uint256"
							},
							{
								"astId": 23,
								"contract": "contracts/GeekNft.sol:GeekNft",
								"label": "toSell",
								"offset": 0,
								"slot": "3",
								"type": "t_bool"
							},
							{
								"astId": 25,
								"contract": "contracts/GeekNft.sol:GeekNft",
								"label": "creator",
								"offset": 1,
								"slot": "3",
								"type": "t_address"
							}
						],
						"numberOfBytes": "128"
					},
					"t_uint256": {
						"encoding": "inplace",
						"label": "uint256",
						"numberOfBytes": "32"
					}
				}
			},
			"userdoc": {
				"kind": "user",
				"methods": {},
				"version": 1
			}
		}
	}
}