{
	"contracts/GeekNft.sol": {
		"GeekNft": {
			"abi": [
				{
					"inputs": [],
					"stateMutability": "nonpayable",
					"type": "constructor"
				},
				{
					"anonymous": false,
					"inputs": [
						{
							"indexed": true,
							"internalType": "address",
							"name": "_from",
							"type": "address"
						},
						{
							"indexed": true,
							"internalType": "address",
							"name": "_to",
							"type": "address"
						},
						{
							"indexed": false,
							"internalType": "uint256",
							"name": "_tokenId",
							"type": "uint256"
						}
					],
					"name": "Transfer",
					"type": "event"
				},
				{
					"inputs": [
						{
							"internalType": "uint256",
							"name": "_tokenId",
							"type": "uint256"
						}
					],
					"name": "addItemToSell",
					"outputs": [],
					"stateMutability": "nonpayable",
					"type": "function"
				},
				{
					"inputs": [
						{
							"internalType": "address",
							"name": "_owner",
							"type": "address"
						}
					],
					"name": "balanceOf",
					"outputs": [
						{
							"internalType": "uint256",
							"name": "",
							"type": "uint256"
						}
					],
					"stateMutability": "view",
					"type": "function"
				},
				{
					"inputs": [
						{
							"internalType": "uint256",
							"name": "_price",
							"type": "uint256"
						},
						{
							"internalType": "uint256",
							"name": "_catId",
							"type": "uint256"
						}
					],
					"name": "createItem",
					"outputs": [
						{
							"internalType": "uint256",
							"name": "",
							"type": "uint256"
						}
					],
					"stateMutability": "nonpayable",
					"type": "function"
				},
				{
					"inputs": [
						{
							"internalType": "uint256",
							"name": "_catId",
							"type": "uint256"
						}
					],
					"name": "fetchItemsByCatId",
					"outputs": [
						{
							"components": [
								{
									"internalType": "uint256",
									"name": "tokenId",
									"type": "uint256"
								},
								{
									"internalType": "uint256",
									"name": "price",
									"type": "uint256"
								},
								{
									"internalType": "uint256",
									"name": "catId",
									"type": "uint256"
								},
								{
									"internalType": "bool",
									"name": "toSell",
									"type": "bool"
								}
							],
							"internalType": "struct GeekNft.Item[]",
							"name": "",
							"type": "tuple[]"
						}
					],
					"stateMutability": "view",
					"type": "function"
				},
				{
					"inputs": [],
					"name": "fetchItemsByOwner",
					"outputs": [
						{
							"components": [
								{
									"internalType": "uint256",
									"name": "tokenId",
									"type": "uint256"
								},
								{
									"internalType": "uint256",
									"name": "price",
									"type": "uint256"
								},
								{
									"internalType": "uint256",
									"name": "catId",
									"type": "uint256"
								},
								{
									"internalType": "bool",
									"name": "toSell",
									"type": "bool"
								}
							],
							"internalType": "struct GeekNft.Item[]",
							"name": "",
							"type": "tuple[]"
						}
					],
					"stateMutability": "view",
					"type": "function"
				},
				{
					"inputs": [],
					"name": "fetchItemsToSell",
					"outputs": [
						{
							"components": [
								{
									"internalType": "uint256",
									"name": "tokenId",
									"type": "uint256"
								},
								{
									"internalType": "uint256",
									"name": "price",
									"type": "uint256"
								},
								{
									"internalType": "uint256",
									"name": "catId",
									"type": "uint256"
								},
								{
									"internalType": "bool",
									"name": "toSell",
									"type": "bool"
								}
							],
							"internalType": "struct GeekNft.Item[]",
							"name": "",
							"type": "tuple[]"
						}
					],
					"stateMutability": "view",
					"type": "function"
				},
				{
					"inputs": [],
					"name": "getFeesPercentage",
					"outputs": [
						{
							"internalType": "uint256",
							"name": "",
							"type": "uint256"
						}
					],
					"stateMutability": "view",
					"type": "function"
				},
				{
					"inputs": [
						{
							"internalType": "uint256",
							"name": "_newPercentage",
							"type": "uint256"
						}
					],
					"name": "modifyFeesPercentage",
					"outputs": [],
					"stateMutability": "nonpayable",
					"type": "function"
				},
				{
					"inputs": [
						{
							"internalType": "uint256",
							"name": "_tokenId",
							"type": "uint256"
						}
					],
					"name": "ownerOf",
					"outputs": [
						{
							"internalType": "address",
							"name": "",
							"type": "address"
						}
					],
					"stateMutability": "view",
					"type": "function"
				},
				{
					"inputs": [
						{
							"internalType": "uint256",
							"name": "_tokenId",
							"type": "uint256"
						}
					],
					"name": "removeItemToSell",
					"outputs": [],
					"stateMutability": "nonpayable",
					"type": "function"
				},
				{
					"inputs": [
						{
							"internalType": "uint256",
							"name": "_tokenId",
							"type": "uint256"
						}
					],
					"name": "sellItem",
					"outputs": [],
					"stateMutability": "payable",
					"type": "function"
				}
			],
			"devdoc": {
				"kind": "dev",
				"methods": {},
				"version": 1
			},
			"evm": {
				"assembly": "    /* \"contracts/GeekNft.sol\":56:4822  contract GeekNft {... */\n  mstore(0x40, 0x80)\n    /* \"contracts/GeekNft.sol\":523:628  constructor() {... */\n  callvalue\n  dup1\n  iszero\n  tag_1\n  jumpi\n  0x00\n  dup1\n  revert\ntag_1:\n  pop\n    /* \"contracts/GeekNft.sol\":555:565  msg.sender */\n  caller\n    /* \"contracts/GeekNft.sol\":547:552  owner */\n  0x02\n  0x00\n    /* \"contracts/GeekNft.sol\":547:565  owner = msg.sender */\n  0x0100\n  exp\n  dup2\n  sload\n  dup2\n  0xffffffffffffffffffffffffffffffffffffffff\n  mul\n  not\n  and\n  swap1\n  dup4\n  0xffffffffffffffffffffffffffffffffffffffff\n  and\n  mul\n  or\n  swap1\n  sstore\n  pop\n    /* \"contracts/GeekNft.sol\":575:595  name = \"Geek Tokens\" */\n  mload(0x40)\n  dup1\n  0x40\n  add\n  0x40\n  mstore\n  dup1\n  0x0b\n  dup2\n  mstore\n  0x20\n  add\n  0x4765656b20546f6b656e73000000000000000000000000000000000000000000\n  dup2\n  mstore\n  pop\n    /* \"contracts/GeekNft.sol\":575:579  name */\n  0x00\n    /* \"contracts/GeekNft.sol\":575:595  name = \"Geek Tokens\" */\n  swap1\n  dup1\n  mload\n  swap1\n  0x20\n  add\n  swap1\n  tag_4\n  swap3\n  swap2\n  swap1\n  tag_5\n  jump\t// in\ntag_4:\n  pop\n    /* \"contracts/GeekNft.sol\":605:621  symbol = \"GEEKT\" */\n  mload(0x40)\n  dup1\n  0x40\n  add\n  0x40\n  mstore\n  dup1\n  0x05\n  dup2\n  mstore\n  0x20\n  add\n  0x4745454b54000000000000000000000000000000000000000000000000000000\n  dup2\n  mstore\n  pop\n    /* \"contracts/GeekNft.sol\":605:611  symbol */\n  0x01\n    /* \"contracts/GeekNft.sol\":605:621  symbol = \"GEEKT\" */\n  swap1\n  dup1\n  mload\n  swap1\n  0x20\n  add\n  swap1\n  tag_6\n  swap3\n  swap2\n  swap1\n  tag_5\n  jump\t// in\ntag_6:\n  pop\n    /* \"contracts/GeekNft.sol\":56:4822  contract GeekNft {... */\n  jump(tag_7)\ntag_5:\n  dup3\n  dup1\n  sload\n  tag_8\n  swap1\n  tag_9\n  jump\t// in\ntag_8:\n  swap1\n  0x00\n  mstore\n  keccak256(0x00, 0x20)\n  swap1\n  0x1f\n  add\n  0x20\n  swap1\n  div\n  dup2\n  add\n  swap3\n  dup3\n  tag_11\n  jumpi\n  0x00\n  dup6\n  sstore\n  jump(tag_10)\ntag_11:\n  dup3\n  0x1f\n  lt\n  tag_12\n  jumpi\n  dup1\n  mload\n  not(0xff)\n  and\n  dup4\n  dup1\n  add\n  or\n  dup6\n  sstore\n  jump(tag_10)\ntag_12:\n  dup3\n  dup1\n  add\n  0x01\n  add\n  dup6\n  sstore\n  dup3\n  iszero\n  tag_10\n  jumpi\n  swap2\n  dup3\n  add\ntag_13:\n  dup3\n  dup2\n  gt\n  iszero\n  tag_14\n  jumpi\n  dup3\n  mload\n  dup3\n  sstore\n  swap2\n  0x20\n  add\n  swap2\n  swap1\n  0x01\n  add\n  swap1\n  jump(tag_13)\ntag_14:\ntag_10:\n  pop\n  swap1\n  pop\n  tag_15\n  swap2\n  swap1\n  tag_16\n  jump\t// in\ntag_15:\n  pop\n  swap1\n  jump\t// out\ntag_16:\ntag_17:\n  dup1\n  dup3\n  gt\n  iszero\n  tag_18\n  jumpi\n  0x00\n  dup2\n  0x00\n  swap1\n  sstore\n  pop\n  0x01\n  add\n  jump(tag_17)\ntag_18:\n  pop\n  swap1\n  jump\t// out\n    /* \"#utility.yul\":7:327   */\ntag_9:\n  0x00\n    /* \"#utility.yul\":88:89   */\n  0x02\n    /* \"#utility.yul\":82:86   */\n  dup3\n    /* \"#utility.yul\":78:90   */\n  div\n    /* \"#utility.yul\":68:90   */\n  swap1\n  pop\n    /* \"#utility.yul\":135:136   */\n  0x01\n    /* \"#utility.yul\":129:133   */\n  dup3\n    /* \"#utility.yul\":125:137   */\n  and\n    /* \"#utility.yul\":156:174   */\n  dup1\n    /* \"#utility.yul\":146:148   */\n  tag_21\n  jumpi\n    /* \"#utility.yul\":212:216   */\n  0x7f\n    /* \"#utility.yul\":204:210   */\n  dup3\n    /* \"#utility.yul\":200:217   */\n  and\n    /* \"#utility.yul\":190:217   */\n  swap2\n  pop\n    /* \"#utility.yul\":146:148   */\ntag_21:\n    /* \"#utility.yul\":274:276   */\n  0x20\n    /* \"#utility.yul\":266:272   */\n  dup3\n    /* \"#utility.yul\":263:277   */\n  lt\n    /* \"#utility.yul\":243:261   */\n  dup2\n    /* \"#utility.yul\":240:278   */\n  eq\n    /* \"#utility.yul\":237:239   */\n  iszero\n  tag_22\n  jumpi\n    /* \"#utility.yul\":293:311   */\n  tag_23\n  tag_24\n  jump\t// in\ntag_23:\n    /* \"#utility.yul\":237:239   */\ntag_22:\n    /* \"#utility.yul\":58:327   */\n  pop\n  swap2\n  swap1\n  pop\n  jump\t// out\n    /* \"#utility.yul\":333:513   */\ntag_24:\n    /* \"#utility.yul\":381:458   */\n  0x4e487b7100000000000000000000000000000000000000000000000000000000\n    /* \"#utility.yul\":378:379   */\n  0x00\n    /* \"#utility.yul\":371:459   */\n  mstore\n    /* \"#utility.yul\":478:482   */\n  0x22\n    /* \"#utility.yul\":475:476   */\n  0x04\n    /* \"#utility.yul\":468:483   */\n  mstore\n    /* \"#utility.yul\":502:506   */\n  0x24\n    /* \"#utility.yul\":499:500   */\n  0x00\n    /* \"#utility.yul\":492:507   */\n  revert\n    /* \"contracts/GeekNft.sol\":56:4822  contract GeekNft {... */\ntag_7:\n  dataSize(sub_0)\n  dup1\n  dataOffset(sub_0)\n  0x00\n  codecopy\n  0x00\n  return\nstop\n\nsub_0: assembly {\n        /* \"contracts/GeekNft.sol\":56:4822  contract GeekNft {... */\n      mstore(0x40, 0x80)\n      jumpi(tag_1, lt(calldatasize, 0x04))\n      shr(0xe0, calldataload(0x00))\n      dup1\n      0x70a08231\n      gt\n      tag_13\n      jumpi\n      dup1\n      0x70a08231\n      eq\n      tag_7\n      jumpi\n      dup1\n      0x91b6be9a\n      eq\n      tag_8\n      jumpi\n      dup1\n      0xa4964c33\n      eq\n      tag_9\n      jumpi\n      dup1\n      0xadae08dd\n      eq\n      tag_10\n      jumpi\n      dup1\n      0xc0f202ef\n      eq\n      tag_11\n      jumpi\n      dup1\n      0xea0ff14a\n      eq\n      tag_12\n      jumpi\n      jump(tag_1)\n    tag_13:\n      dup1\n      0x073e74df\n      eq\n      tag_2\n      jumpi\n      dup1\n      0x2165e65a\n      eq\n      tag_3\n      jumpi\n      dup1\n      0x29de6246\n      eq\n      tag_4\n      jumpi\n      dup1\n      0x4cad2ffc\n      eq\n      tag_5\n      jumpi\n      dup1\n      0x6352211e\n      eq\n      tag_6\n      jumpi\n    tag_1:\n      0x00\n      dup1\n      revert\n        /* \"contracts/GeekNft.sol\":3376:3743  function fetchItemsToSell() public view returns (Item[] memory){... */\n    tag_2:\n      callvalue\n      dup1\n      iszero\n      tag_14\n      jumpi\n      0x00\n      dup1\n      revert\n    tag_14:\n      pop\n      tag_15\n      tag_16\n      jump\t// in\n    tag_15:\n      mload(0x40)\n      tag_17\n      swap2\n      swap1\n      tag_18\n      jump\t// in\n    tag_17:\n      mload(0x40)\n      dup1\n      swap2\n      sub\n      swap1\n      return\n        /* \"contracts/GeekNft.sol\":4139:4526  function fetchItemsByCatId(uint _catId) public view returns (Item[] memory){... */\n    tag_3:\n      callvalue\n      dup1\n      iszero\n      tag_19\n      jumpi\n      0x00\n      dup1\n      revert\n    tag_19:\n      pop\n      tag_20\n      0x04\n      dup1\n      calldatasize\n      sub\n      dup2\n      add\n      swap1\n      tag_21\n      swap2\n      swap1\n      tag_22\n      jump\t// in\n    tag_21:\n      tag_23\n      jump\t// in\n    tag_20:\n      mload(0x40)\n      tag_24\n      swap2\n      swap1\n      tag_18\n      jump\t// in\n    tag_24:\n      mload(0x40)\n      dup1\n      swap2\n      sub\n      swap1\n      return\n        /* \"contracts/GeekNft.sol\":911:1034  function modifyFeesPercentage(uint _newPercentage) public onlyContractOwner{... */\n    tag_4:\n      callvalue\n      dup1\n      iszero\n      tag_25\n      jumpi\n      0x00\n      dup1\n      revert\n    tag_25:\n      pop\n      tag_26\n      0x04\n      dup1\n      calldatasize\n      sub\n      dup2\n      add\n      swap1\n      tag_27\n      swap2\n      swap1\n      tag_22\n      jump\t// in\n    tag_27:\n      tag_28\n      jump\t// in\n    tag_26:\n      stop\n        /* \"contracts/GeekNft.sol\":3749:4133  function fetchItemsByOwner() public view returns (Item[] memory){... */\n    tag_5:\n      callvalue\n      dup1\n      iszero\n      tag_29\n      jumpi\n      0x00\n      dup1\n      revert\n    tag_29:\n      pop\n      tag_30\n      tag_31\n      jump\t// in\n    tag_30:\n      mload(0x40)\n      tag_32\n      swap2\n      swap1\n      tag_18\n      jump\t// in\n    tag_32:\n      mload(0x40)\n      dup1\n      swap2\n      sub\n      swap1\n      return\n        /* \"contracts/GeekNft.sol\":2478:2584  function ownerOf(uint _tokenId) public view returns (address){... */\n    tag_6:\n      callvalue\n      dup1\n      iszero\n      tag_33\n      jumpi\n      0x00\n      dup1\n      revert\n    tag_33:\n      pop\n      tag_34\n      0x04\n      dup1\n      calldatasize\n      sub\n      dup2\n      add\n      swap1\n      tag_35\n      swap2\n      swap1\n      tag_22\n      jump\t// in\n    tag_35:\n      tag_36\n      jump\t// in\n    tag_34:\n      mload(0x40)\n      tag_37\n      swap2\n      swap1\n      tag_38\n      jump\t// in\n    tag_37:\n      mload(0x40)\n      dup1\n      swap2\n      sub\n      swap1\n      return\n        /* \"contracts/GeekNft.sol\":2590:2698  function balanceOf(address _owner) public view returns (uint){... */\n    tag_7:\n      callvalue\n      dup1\n      iszero\n      tag_39\n      jumpi\n      0x00\n      dup1\n      revert\n    tag_39:\n      pop\n      tag_40\n      0x04\n      dup1\n      calldatasize\n      sub\n      dup2\n      add\n      swap1\n      tag_41\n      swap2\n      swap1\n      tag_42\n      jump\t// in\n    tag_41:\n      tag_43\n      jump\t// in\n    tag_40:\n      mload(0x40)\n      tag_44\n      swap2\n      swap1\n      tag_45\n      jump\t// in\n    tag_44:\n      mload(0x40)\n      dup1\n      swap2\n      sub\n      swap1\n      return\n        /* \"contracts/GeekNft.sol\":1686:2472  function sellItem(uint _tokenId) public payable{... */\n    tag_8:\n      tag_46\n      0x04\n      dup1\n      calldatasize\n      sub\n      dup2\n      add\n      swap1\n      tag_47\n      swap2\n      swap1\n      tag_22\n      jump\t// in\n    tag_47:\n      tag_48\n      jump\t// in\n    tag_46:\n      stop\n        /* \"contracts/GeekNft.sol\":2704:3033  function removeItemToSell(uint _tokenId) public onlyItemOwner(_tokenId) {... */\n    tag_9:\n      callvalue\n      dup1\n      iszero\n      tag_49\n      jumpi\n      0x00\n      dup1\n      revert\n    tag_49:\n      pop\n      tag_50\n      0x04\n      dup1\n      calldatasize\n      sub\n      dup2\n      add\n      swap1\n      tag_51\n      swap2\n      swap1\n      tag_22\n      jump\t// in\n    tag_51:\n      tag_52\n      jump\t// in\n    tag_50:\n      stop\n        /* \"contracts/GeekNft.sol\":1140:1680  function createItem(uint _price, uint _catId) public returns (uint){... */\n    tag_10:\n      callvalue\n      dup1\n      iszero\n      tag_53\n      jumpi\n      0x00\n      dup1\n      revert\n    tag_53:\n      pop\n      tag_54\n      0x04\n      dup1\n      calldatasize\n      sub\n      dup2\n      add\n      swap1\n      tag_55\n      swap2\n      swap1\n      tag_56\n      jump\t// in\n    tag_55:\n      tag_57\n      jump\t// in\n    tag_54:\n      mload(0x40)\n      tag_58\n      swap2\n      swap1\n      tag_45\n      jump\t// in\n    tag_58:\n      mload(0x40)\n      dup1\n      swap2\n      sub\n      swap1\n      return\n        /* \"contracts/GeekNft.sol\":3039:3370  function addItemToSell(uint _tokenId) public onlyItemOwner(_tokenId) {... */\n    tag_11:\n      callvalue\n      dup1\n      iszero\n      tag_59\n      jumpi\n      0x00\n      dup1\n      revert\n    tag_59:\n      pop\n      tag_60\n      0x04\n      dup1\n      calldatasize\n      sub\n      dup2\n      add\n      swap1\n      tag_61\n      swap2\n      swap1\n      tag_22\n      jump\t// in\n    tag_61:\n      tag_62\n      jump\t// in\n    tag_60:\n      stop\n        /* \"contracts/GeekNft.sol\":1040:1134  function getFeesPercentage() public view returns (uint) {... */\n    tag_12:\n      callvalue\n      dup1\n      iszero\n      tag_63\n      jumpi\n      0x00\n      dup1\n      revert\n    tag_63:\n      pop\n      tag_64\n      tag_65\n      jump\t// in\n    tag_64:\n      mload(0x40)\n      tag_66\n      swap2\n      swap1\n      tag_45\n      jump\t// in\n    tag_66:\n      mload(0x40)\n      dup1\n      swap2\n      sub\n      swap1\n      return\n        /* \"contracts/GeekNft.sol\":3376:3743  function fetchItemsToSell() public view returns (Item[] memory){... */\n    tag_16:\n        /* \"contracts/GeekNft.sol\":3425:3438  Item[] memory */\n      0x60\n        /* \"contracts/GeekNft.sol\":3449:3461  uint counter */\n      0x00\n        /* \"contracts/GeekNft.sol\":3475:3495  Item[] memory result */\n      dup1\n        /* \"contracts/GeekNft.sol\":3509:3525  itemsToSellCount */\n      sload(0x04)\n        /* \"contracts/GeekNft.sol\":3498:3526  new Item[](itemsToSellCount) */\n      0xffffffffffffffff\n      dup2\n      gt\n      iszero\n      tag_68\n      jumpi\n      mstore(0x00, 0x4e487b7100000000000000000000000000000000000000000000000000000000)\n      mstore(0x04, 0x41)\n      revert(0x00, 0x24)\n    tag_68:\n      mload(0x40)\n      swap1\n      dup1\n      dup3\n      mstore\n      dup1\n      0x20\n      mul\n      0x20\n      add\n      dup3\n      add\n      0x40\n      mstore\n      dup1\n      iszero\n      tag_69\n      jumpi\n      dup2\n      0x20\n      add\n    tag_70:\n      tag_71\n      tag_72\n      jump\t// in\n    tag_71:\n      dup2\n      mstore\n      0x20\n      add\n      swap1\n      0x01\n      swap1\n      sub\n      swap1\n      dup2\n      tag_70\n      jumpi\n      swap1\n      pop\n    tag_69:\n      pop\n        /* \"contracts/GeekNft.sol\":3475:3526  Item[] memory result = new Item[](itemsToSellCount) */\n      swap1\n      pop\n        /* \"contracts/GeekNft.sol\":3541:3547  uint i */\n      0x00\n        /* \"contracts/GeekNft.sol\":3537:3713  for(uint i = 0; i < items.length; i++) {... */\n    tag_73:\n        /* \"contracts/GeekNft.sol\":3557:3562  items */\n      0x03\n        /* \"contracts/GeekNft.sol\":3557:3569  items.length */\n      dup1\n      sload\n      swap1\n      pop\n        /* \"contracts/GeekNft.sol\":3553:3554  i */\n      dup2\n        /* \"contracts/GeekNft.sol\":3553:3569  i < items.length */\n      lt\n        /* \"contracts/GeekNft.sol\":3537:3713  for(uint i = 0; i < items.length; i++) {... */\n      iszero\n      tag_74\n      jumpi\n        /* \"contracts/GeekNft.sol\":3612:3616  true */\n      0x01\n        /* \"contracts/GeekNft.sol\":3593:3616  items[i].toSell == true */\n      iszero\n      iszero\n        /* \"contracts/GeekNft.sol\":3593:3598  items */\n      0x03\n        /* \"contracts/GeekNft.sol\":3599:3600  i */\n      dup3\n        /* \"contracts/GeekNft.sol\":3593:3601  items[i] */\n      dup2\n      sload\n      dup2\n      lt\n      tag_76\n      jumpi\n      mstore(0x00, 0x4e487b7100000000000000000000000000000000000000000000000000000000)\n      mstore(0x04, 0x32)\n      revert(0x00, 0x24)\n    tag_76:\n      swap1\n      0x00\n      mstore\n      keccak256(0x00, 0x20)\n      swap1\n      0x04\n      mul\n      add\n        /* \"contracts/GeekNft.sol\":3593:3608  items[i].toSell */\n      0x03\n      add\n      0x00\n      swap1\n      sload\n      swap1\n      0x0100\n      exp\n      swap1\n      div\n      0xff\n      and\n        /* \"contracts/GeekNft.sol\":3593:3616  items[i].toSell == true */\n      iszero\n      iszero\n      eq\n        /* \"contracts/GeekNft.sol\":3590:3703  if(items[i].toSell == true){... */\n      iszero\n      tag_78\n      jumpi\n        /* \"contracts/GeekNft.sol\":3653:3658  items */\n      0x03\n        /* \"contracts/GeekNft.sol\":3659:3660  i */\n      dup2\n        /* \"contracts/GeekNft.sol\":3653:3661  items[i] */\n      dup2\n      sload\n      dup2\n      lt\n      tag_79\n      jumpi\n      mstore(0x00, 0x4e487b7100000000000000000000000000000000000000000000000000000000)\n      mstore(0x04, 0x32)\n      revert(0x00, 0x24)\n    tag_79:\n      swap1\n      0x00\n      mstore\n      keccak256(0x00, 0x20)\n      swap1\n      0x04\n      mul\n      add\n        /* \"contracts/GeekNft.sol\":3635:3661  result[counter] = items[i] */\n      mload(0x40)\n      dup1\n      0x80\n      add\n      0x40\n      mstore\n      swap1\n      dup2\n      0x00\n      dup3\n      add\n      sload\n      dup2\n      mstore\n      0x20\n      add\n      0x01\n      dup3\n      add\n      sload\n      dup2\n      mstore\n      0x20\n      add\n      0x02\n      dup3\n      add\n      sload\n      dup2\n      mstore\n      0x20\n      add\n      0x03\n      dup3\n      add\n      0x00\n      swap1\n      sload\n      swap1\n      0x0100\n      exp\n      swap1\n      div\n      0xff\n      and\n      iszero\n      iszero\n      iszero\n      iszero\n      dup2\n      mstore\n      pop\n      pop\n        /* \"contracts/GeekNft.sol\":3635:3641  result */\n      dup3\n        /* \"contracts/GeekNft.sol\":3642:3649  counter */\n      dup5\n        /* \"contracts/GeekNft.sol\":3635:3650  result[counter] */\n      dup2\n      mload\n      dup2\n      lt\n      tag_81\n      jumpi\n      mstore(0x00, 0x4e487b7100000000000000000000000000000000000000000000000000000000)\n      mstore(0x04, 0x32)\n      revert(0x00, 0x24)\n    tag_81:\n      0x20\n      mul\n      0x20\n      add\n      add\n        /* \"contracts/GeekNft.sol\":3635:3661  result[counter] = items[i] */\n      dup2\n      swap1\n      mstore\n      pop\n        /* \"contracts/GeekNft.sol\":3679:3688  counter++ */\n      dup3\n      dup1\n      tag_82\n      swap1\n      tag_83\n      jump\t// in\n    tag_82:\n      swap4\n      pop\n      pop\n        /* \"contracts/GeekNft.sol\":3590:3703  if(items[i].toSell == true){... */\n    tag_78:\n        /* \"contracts/GeekNft.sol\":3571:3574  i++ */\n      dup1\n      dup1\n      tag_84\n      swap1\n      tag_83\n      jump\t// in\n    tag_84:\n      swap2\n      pop\n      pop\n        /* \"contracts/GeekNft.sol\":3537:3713  for(uint i = 0; i < items.length; i++) {... */\n      jump(tag_73)\n    tag_74:\n      pop\n        /* \"contracts/GeekNft.sol\":3730:3736  result */\n      dup1\n        /* \"contracts/GeekNft.sol\":3723:3736  return result */\n      swap3\n      pop\n      pop\n      pop\n        /* \"contracts/GeekNft.sol\":3376:3743  function fetchItemsToSell() public view returns (Item[] memory){... */\n      swap1\n      jump\t// out\n        /* \"contracts/GeekNft.sol\":4139:4526  function fetchItemsByCatId(uint _catId) public view returns (Item[] memory){... */\n    tag_23:\n        /* \"contracts/GeekNft.sol\":4200:4213  Item[] memory */\n      0x60\n        /* \"contracts/GeekNft.sol\":4224:4236  uint counter */\n      0x00\n        /* \"contracts/GeekNft.sol\":4250:4270  Item[] memory result */\n      dup1\n        /* \"contracts/GeekNft.sol\":4284:4299  itemsCatIdCount */\n      0x08\n        /* \"contracts/GeekNft.sol\":4284:4307  itemsCatIdCount[_catId] */\n      0x00\n        /* \"contracts/GeekNft.sol\":4300:4306  _catId */\n      dup6\n        /* \"contracts/GeekNft.sol\":4284:4307  itemsCatIdCount[_catId] */\n      dup2\n      mstore\n      0x20\n      add\n      swap1\n      dup2\n      mstore\n      0x20\n      add\n      0x00\n      keccak256\n      sload\n        /* \"contracts/GeekNft.sol\":4273:4308  new Item[](itemsCatIdCount[_catId]) */\n      0xffffffffffffffff\n      dup2\n      gt\n      iszero\n      tag_86\n      jumpi\n      mstore(0x00, 0x4e487b7100000000000000000000000000000000000000000000000000000000)\n      mstore(0x04, 0x41)\n      revert(0x00, 0x24)\n    tag_86:\n      mload(0x40)\n      swap1\n      dup1\n      dup3\n      mstore\n      dup1\n      0x20\n      mul\n      0x20\n      add\n      dup3\n      add\n      0x40\n      mstore\n      dup1\n      iszero\n      tag_87\n      jumpi\n      dup2\n      0x20\n      add\n    tag_88:\n      tag_89\n      tag_72\n      jump\t// in\n    tag_89:\n      dup2\n      mstore\n      0x20\n      add\n      swap1\n      0x01\n      swap1\n      sub\n      swap1\n      dup2\n      tag_88\n      jumpi\n      swap1\n      pop\n    tag_87:\n      pop\n        /* \"contracts/GeekNft.sol\":4250:4308  Item[] memory result = new Item[](itemsCatIdCount[_catId]) */\n      swap1\n      pop\n        /* \"contracts/GeekNft.sol\":4323:4329  uint i */\n      0x00\n        /* \"contracts/GeekNft.sol\":4319:4496  for(uint i = 0; i < items.length; i++) {... */\n    tag_90:\n        /* \"contracts/GeekNft.sol\":4339:4344  items */\n      0x03\n        /* \"contracts/GeekNft.sol\":4339:4351  items.length */\n      dup1\n      sload\n      swap1\n      pop\n        /* \"contracts/GeekNft.sol\":4335:4336  i */\n      dup2\n        /* \"contracts/GeekNft.sol\":4335:4351  i < items.length */\n      lt\n        /* \"contracts/GeekNft.sol\":4319:4496  for(uint i = 0; i < items.length; i++) {... */\n      iszero\n      tag_91\n      jumpi\n        /* \"contracts/GeekNft.sol\":4393:4399  _catId */\n      dup5\n        /* \"contracts/GeekNft.sol\":4375:4380  items */\n      0x03\n        /* \"contracts/GeekNft.sol\":4381:4382  i */\n      dup3\n        /* \"contracts/GeekNft.sol\":4375:4383  items[i] */\n      dup2\n      sload\n      dup2\n      lt\n      tag_93\n      jumpi\n      mstore(0x00, 0x4e487b7100000000000000000000000000000000000000000000000000000000)\n      mstore(0x04, 0x32)\n      revert(0x00, 0x24)\n    tag_93:\n      swap1\n      0x00\n      mstore\n      keccak256(0x00, 0x20)\n      swap1\n      0x04\n      mul\n      add\n        /* \"contracts/GeekNft.sol\":4375:4389  items[i].catId */\n      0x02\n      add\n      sload\n        /* \"contracts/GeekNft.sol\":4375:4399  items[i].catId == _catId */\n      eq\n        /* \"contracts/GeekNft.sol\":4372:4486  if(items[i].catId == _catId){... */\n      iszero\n      tag_95\n      jumpi\n        /* \"contracts/GeekNft.sol\":4436:4441  items */\n      0x03\n        /* \"contracts/GeekNft.sol\":4442:4443  i */\n      dup2\n        /* \"contracts/GeekNft.sol\":4436:4444  items[i] */\n      dup2\n      sload\n      dup2\n      lt\n      tag_96\n      jumpi\n      mstore(0x00, 0x4e487b7100000000000000000000000000000000000000000000000000000000)\n      mstore(0x04, 0x32)\n      revert(0x00, 0x24)\n    tag_96:\n      swap1\n      0x00\n      mstore\n      keccak256(0x00, 0x20)\n      swap1\n      0x04\n      mul\n      add\n        /* \"contracts/GeekNft.sol\":4418:4444  result[counter] = items[i] */\n      mload(0x40)\n      dup1\n      0x80\n      add\n      0x40\n      mstore\n      swap1\n      dup2\n      0x00\n      dup3\n      add\n      sload\n      dup2\n      mstore\n      0x20\n      add\n      0x01\n      dup3\n      add\n      sload\n      dup2\n      mstore\n      0x20\n      add\n      0x02\n      dup3\n      add\n      sload\n      dup2\n      mstore\n      0x20\n      add\n      0x03\n      dup3\n      add\n      0x00\n      swap1\n      sload\n      swap1\n      0x0100\n      exp\n      swap1\n      div\n      0xff\n      and\n      iszero\n      iszero\n      iszero\n      iszero\n      dup2\n      mstore\n      pop\n      pop\n        /* \"contracts/GeekNft.sol\":4418:4424  result */\n      dup3\n        /* \"contracts/GeekNft.sol\":4425:4432  counter */\n      dup5\n        /* \"contracts/GeekNft.sol\":4418:4433  result[counter] */\n      dup2\n      mload\n      dup2\n      lt\n      tag_98\n      jumpi\n      mstore(0x00, 0x4e487b7100000000000000000000000000000000000000000000000000000000)\n      mstore(0x04, 0x32)\n      revert(0x00, 0x24)\n    tag_98:\n      0x20\n      mul\n      0x20\n      add\n      add\n        /* \"contracts/GeekNft.sol\":4418:4444  result[counter] = items[i] */\n      dup2\n      swap1\n      mstore\n      pop\n        /* \"contracts/GeekNft.sol\":4462:4471  counter++ */\n      dup3\n      dup1\n      tag_99\n      swap1\n      tag_83\n      jump\t// in\n    tag_99:\n      swap4\n      pop\n      pop\n        /* \"contracts/GeekNft.sol\":4372:4486  if(items[i].catId == _catId){... */\n    tag_95:\n        /* \"contracts/GeekNft.sol\":4353:4356  i++ */\n      dup1\n      dup1\n      tag_100\n      swap1\n      tag_83\n      jump\t// in\n    tag_100:\n      swap2\n      pop\n      pop\n        /* \"contracts/GeekNft.sol\":4319:4496  for(uint i = 0; i < items.length; i++) {... */\n      jump(tag_90)\n    tag_91:\n      pop\n        /* \"contracts/GeekNft.sol\":4513:4519  result */\n      dup1\n        /* \"contracts/GeekNft.sol\":4506:4519  return result */\n      swap3\n      pop\n      pop\n      pop\n        /* \"contracts/GeekNft.sol\":4139:4526  function fetchItemsByCatId(uint _catId) public view returns (Item[] memory){... */\n      swap2\n      swap1\n      pop\n      jump\t// out\n        /* \"contracts/GeekNft.sol\":911:1034  function modifyFeesPercentage(uint _newPercentage) public onlyContractOwner{... */\n    tag_28:\n        /* \"contracts/GeekNft.sol\":695:700  owner */\n      0x02\n      0x00\n      swap1\n      sload\n      swap1\n      0x0100\n      exp\n      swap1\n      div\n      0xffffffffffffffffffffffffffffffffffffffff\n      and\n        /* \"contracts/GeekNft.sol\":681:700  msg.sender == owner */\n      0xffffffffffffffffffffffffffffffffffffffff\n      and\n        /* \"contracts/GeekNft.sol\":681:691  msg.sender */\n      caller\n        /* \"contracts/GeekNft.sol\":681:700  msg.sender == owner */\n      0xffffffffffffffffffffffffffffffffffffffff\n      and\n      eq\n        /* \"contracts/GeekNft.sol\":673:738  require(msg.sender == owner, \"Only contract's owner can do that\") */\n      tag_102\n      jumpi\n      mload(0x40)\n      0x08c379a000000000000000000000000000000000000000000000000000000000\n      dup2\n      mstore\n      0x04\n      add\n      tag_103\n      swap1\n      tag_104\n      jump\t// in\n    tag_103:\n      mload(0x40)\n      dup1\n      swap2\n      sub\n      swap1\n      revert\n    tag_102:\n        /* \"contracts/GeekNft.sol\":1013:1027  _newPercentage */\n      dup1\n        /* \"contracts/GeekNft.sol\":996:1010  feesPercentage */\n      0x05\n        /* \"contracts/GeekNft.sol\":996:1027  feesPercentage = _newPercentage */\n      dup2\n      swap1\n      sstore\n      pop\n        /* \"contracts/GeekNft.sol\":911:1034  function modifyFeesPercentage(uint _newPercentage) public onlyContractOwner{... */\n      pop\n      jump\t// out\n        /* \"contracts/GeekNft.sol\":3749:4133  function fetchItemsByOwner() public view returns (Item[] memory){... */\n    tag_31:\n        /* \"contracts/GeekNft.sol\":3799:3812  Item[] memory */\n      0x60\n        /* \"contracts/GeekNft.sol\":3823:3835  uint counter */\n      0x00\n        /* \"contracts/GeekNft.sol\":3849:3869  Item[] memory result */\n      dup1\n        /* \"contracts/GeekNft.sol\":3883:3898  itemsOwnerCount */\n      0x07\n        /* \"contracts/GeekNft.sol\":3883:3910  itemsOwnerCount[msg.sender] */\n      0x00\n        /* \"contracts/GeekNft.sol\":3899:3909  msg.sender */\n      caller\n        /* \"contracts/GeekNft.sol\":3883:3910  itemsOwnerCount[msg.sender] */\n      0xffffffffffffffffffffffffffffffffffffffff\n      and\n      0xffffffffffffffffffffffffffffffffffffffff\n      and\n      dup2\n      mstore\n      0x20\n      add\n      swap1\n      dup2\n      mstore\n      0x20\n      add\n      0x00\n      keccak256\n      sload\n        /* \"contracts/GeekNft.sol\":3872:3911  new Item[](itemsOwnerCount[msg.sender]) */\n      0xffffffffffffffff\n      dup2\n      gt\n      iszero\n      tag_107\n      jumpi\n      mstore(0x00, 0x4e487b7100000000000000000000000000000000000000000000000000000000)\n      mstore(0x04, 0x41)\n      revert(0x00, 0x24)\n    tag_107:\n      mload(0x40)\n      swap1\n      dup1\n      dup3\n      mstore\n      dup1\n      0x20\n      mul\n      0x20\n      add\n      dup3\n      add\n      0x40\n      mstore\n      dup1\n      iszero\n      tag_108\n      jumpi\n      dup2\n      0x20\n      add\n    tag_109:\n      tag_110\n      tag_72\n      jump\t// in\n    tag_110:\n      dup2\n      mstore\n      0x20\n      add\n      swap1\n      0x01\n      swap1\n      sub\n      swap1\n      dup2\n      tag_109\n      jumpi\n      swap1\n      pop\n    tag_108:\n      pop\n        /* \"contracts/GeekNft.sol\":3849:3911  Item[] memory result = new Item[](itemsOwnerCount[msg.sender]) */\n      swap1\n      pop\n        /* \"contracts/GeekNft.sol\":3926:3932  uint i */\n      0x00\n        /* \"contracts/GeekNft.sol\":3922:4103  for(uint i = 0; i < items.length; i++) {... */\n    tag_111:\n        /* \"contracts/GeekNft.sol\":3942:3947  items */\n      0x03\n        /* \"contracts/GeekNft.sol\":3942:3954  items.length */\n      dup1\n      sload\n      swap1\n      pop\n        /* \"contracts/GeekNft.sol\":3938:3939  i */\n      dup2\n        /* \"contracts/GeekNft.sol\":3938:3954  i < items.length */\n      lt\n        /* \"contracts/GeekNft.sol\":3922:4103  for(uint i = 0; i < items.length; i++) {... */\n      iszero\n      tag_112\n      jumpi\n        /* \"contracts/GeekNft.sol\":3996:4006  msg.sender */\n      caller\n        /* \"contracts/GeekNft.sol\":3978:4006  itemToOwner[i] == msg.sender */\n      0xffffffffffffffffffffffffffffffffffffffff\n      and\n        /* \"contracts/GeekNft.sol\":3978:3989  itemToOwner */\n      0x06\n        /* \"contracts/GeekNft.sol\":3978:3992  itemToOwner[i] */\n      0x00\n        /* \"contracts/GeekNft.sol\":3990:3991  i */\n      dup4\n        /* \"contracts/GeekNft.sol\":3978:3992  itemToOwner[i] */\n      dup2\n      mstore\n      0x20\n      add\n      swap1\n      dup2\n      mstore\n      0x20\n      add\n      0x00\n      keccak256\n      0x00\n      swap1\n      sload\n      swap1\n      0x0100\n      exp\n      swap1\n      div\n      0xffffffffffffffffffffffffffffffffffffffff\n      and\n        /* \"contracts/GeekNft.sol\":3978:4006  itemToOwner[i] == msg.sender */\n      0xffffffffffffffffffffffffffffffffffffffff\n      and\n      eq\n        /* \"contracts/GeekNft.sol\":3975:4093  if(itemToOwner[i] == msg.sender){... */\n      iszero\n      tag_114\n      jumpi\n        /* \"contracts/GeekNft.sol\":4043:4048  items */\n      0x03\n        /* \"contracts/GeekNft.sol\":4049:4050  i */\n      dup2\n        /* \"contracts/GeekNft.sol\":4043:4051  items[i] */\n      dup2\n      sload\n      dup2\n      lt\n      tag_115\n      jumpi\n      mstore(0x00, 0x4e487b7100000000000000000000000000000000000000000000000000000000)\n      mstore(0x04, 0x32)\n      revert(0x00, 0x24)\n    tag_115:\n      swap1\n      0x00\n      mstore\n      keccak256(0x00, 0x20)\n      swap1\n      0x04\n      mul\n      add\n        /* \"contracts/GeekNft.sol\":4025:4051  result[counter] = items[i] */\n      mload(0x40)\n      dup1\n      0x80\n      add\n      0x40\n      mstore\n      swap1\n      dup2\n      0x00\n      dup3\n      add\n      sload\n      dup2\n      mstore\n      0x20\n      add\n      0x01\n      dup3\n      add\n      sload\n      dup2\n      mstore\n      0x20\n      add\n      0x02\n      dup3\n      add\n      sload\n      dup2\n      mstore\n      0x20\n      add\n      0x03\n      dup3\n      add\n      0x00\n      swap1\n      sload\n      swap1\n      0x0100\n      exp\n      swap1\n      div\n      0xff\n      and\n      iszero\n      iszero\n      iszero\n      iszero\n      dup2\n      mstore\n      pop\n      pop\n        /* \"contracts/GeekNft.sol\":4025:4031  result */\n      dup3\n        /* \"contracts/GeekNft.sol\":4032:4039  counter */\n      dup5\n        /* \"contracts/GeekNft.sol\":4025:4040  result[counter] */\n      dup2\n      mload\n      dup2\n      lt\n      tag_117\n      jumpi\n      mstore(0x00, 0x4e487b7100000000000000000000000000000000000000000000000000000000)\n      mstore(0x04, 0x32)\n      revert(0x00, 0x24)\n    tag_117:\n      0x20\n      mul\n      0x20\n      add\n      add\n        /* \"contracts/GeekNft.sol\":4025:4051  result[counter] = items[i] */\n      dup2\n      swap1\n      mstore\n      pop\n        /* \"contracts/GeekNft.sol\":4069:4078  counter++ */\n      dup3\n      dup1\n      tag_118\n      swap1\n      tag_83\n      jump\t// in\n    tag_118:\n      swap4\n      pop\n      pop\n        /* \"contracts/GeekNft.sol\":3975:4093  if(itemToOwner[i] == msg.sender){... */\n    tag_114:\n        /* \"contracts/GeekNft.sol\":3956:3959  i++ */\n      dup1\n      dup1\n      tag_119\n      swap1\n      tag_83\n      jump\t// in\n    tag_119:\n      swap2\n      pop\n      pop\n        /* \"contracts/GeekNft.sol\":3922:4103  for(uint i = 0; i < items.length; i++) {... */\n      jump(tag_111)\n    tag_112:\n      pop\n        /* \"contracts/GeekNft.sol\":4120:4126  result */\n      dup1\n        /* \"contracts/GeekNft.sol\":4113:4126  return result */\n      swap3\n      pop\n      pop\n      pop\n        /* \"contracts/GeekNft.sol\":3749:4133  function fetchItemsByOwner() public view returns (Item[] memory){... */\n      swap1\n      jump\t// out\n        /* \"contracts/GeekNft.sol\":2478:2584  function ownerOf(uint _tokenId) public view returns (address){... */\n    tag_36:\n        /* \"contracts/GeekNft.sol\":2531:2538  address */\n      0x00\n        /* \"contracts/GeekNft.sol\":2556:2567  itemToOwner */\n      0x06\n        /* \"contracts/GeekNft.sol\":2556:2577  itemToOwner[_tokenId] */\n      0x00\n        /* \"contracts/GeekNft.sol\":2568:2576  _tokenId */\n      dup4\n        /* \"contracts/GeekNft.sol\":2556:2577  itemToOwner[_tokenId] */\n      dup2\n      mstore\n      0x20\n      add\n      swap1\n      dup2\n      mstore\n      0x20\n      add\n      0x00\n      keccak256\n      0x00\n      swap1\n      sload\n      swap1\n      0x0100\n      exp\n      swap1\n      div\n      0xffffffffffffffffffffffffffffffffffffffff\n      and\n        /* \"contracts/GeekNft.sol\":2549:2577  return itemToOwner[_tokenId] */\n      swap1\n      pop\n        /* \"contracts/GeekNft.sol\":2478:2584  function ownerOf(uint _tokenId) public view returns (address){... */\n      swap2\n      swap1\n      pop\n      jump\t// out\n        /* \"contracts/GeekNft.sol\":2590:2698  function balanceOf(address _owner) public view returns (uint){... */\n    tag_43:\n        /* \"contracts/GeekNft.sol\":2646:2650  uint */\n      0x00\n        /* \"contracts/GeekNft.sol\":2668:2683  itemsOwnerCount */\n      0x07\n        /* \"contracts/GeekNft.sol\":2668:2691  itemsOwnerCount[_owner] */\n      0x00\n        /* \"contracts/GeekNft.sol\":2684:2690  _owner */\n      dup4\n        /* \"contracts/GeekNft.sol\":2668:2691  itemsOwnerCount[_owner] */\n      0xffffffffffffffffffffffffffffffffffffffff\n      and\n      0xffffffffffffffffffffffffffffffffffffffff\n      and\n      dup2\n      mstore\n      0x20\n      add\n      swap1\n      dup2\n      mstore\n      0x20\n      add\n      0x00\n      keccak256\n      sload\n        /* \"contracts/GeekNft.sol\":2661:2691  return itemsOwnerCount[_owner] */\n      swap1\n      pop\n        /* \"contracts/GeekNft.sol\":2590:2698  function balanceOf(address _owner) public view returns (uint){... */\n      swap2\n      swap1\n      pop\n      jump\t// out\n        /* \"contracts/GeekNft.sol\":1686:2472  function sellItem(uint _tokenId) public payable{... */\n    tag_48:\n        /* \"contracts/GeekNft.sol\":1764:1769  items */\n      0x03\n        /* \"contracts/GeekNft.sol\":1770:1778  _tokenId */\n      dup2\n        /* \"contracts/GeekNft.sol\":1764:1779  items[_tokenId] */\n      dup2\n      sload\n      dup2\n      lt\n      tag_123\n      jumpi\n      mstore(0x00, 0x4e487b7100000000000000000000000000000000000000000000000000000000)\n      mstore(0x04, 0x32)\n      revert(0x00, 0x24)\n    tag_123:\n      swap1\n      0x00\n      mstore\n      keccak256(0x00, 0x20)\n      swap1\n      0x04\n      mul\n      add\n        /* \"contracts/GeekNft.sol\":1764:1785  items[_tokenId].price */\n      0x01\n      add\n      sload\n        /* \"contracts/GeekNft.sol\":1751:1760  msg.value */\n      callvalue\n        /* \"contracts/GeekNft.sol\":1751:1785  msg.value == items[_tokenId].price */\n      eq\n        /* \"contracts/GeekNft.sol\":1743:1786  require(msg.value == items[_tokenId].price) */\n      tag_125\n      jumpi\n      0x00\n      dup1\n      revert\n    tag_125:\n        /* \"contracts/GeekNft.sol\":1837:1838  0 */\n      0x00\n        /* \"contracts/GeekNft.sol\":1804:1839  itemToOwner[_tokenId] != address(0) */\n      0xffffffffffffffffffffffffffffffffffffffff\n      and\n        /* \"contracts/GeekNft.sol\":1804:1815  itemToOwner */\n      0x06\n        /* \"contracts/GeekNft.sol\":1804:1825  itemToOwner[_tokenId] */\n      0x00\n        /* \"contracts/GeekNft.sol\":1816:1824  _tokenId */\n      dup4\n        /* \"contracts/GeekNft.sol\":1804:1825  itemToOwner[_tokenId] */\n      dup2\n      mstore\n      0x20\n      add\n      swap1\n      dup2\n      mstore\n      0x20\n      add\n      0x00\n      keccak256\n      0x00\n      swap1\n      sload\n      swap1\n      0x0100\n      exp\n      swap1\n      div\n      0xffffffffffffffffffffffffffffffffffffffff\n      and\n        /* \"contracts/GeekNft.sol\":1804:1839  itemToOwner[_tokenId] != address(0) */\n      0xffffffffffffffffffffffffffffffffffffffff\n      and\n      eq\n      iszero\n        /* \"contracts/GeekNft.sol\":1796:1863  require(itemToOwner[_tokenId] != address(0), \"token doesn't exist\") */\n      tag_126\n      jumpi\n      mload(0x40)\n      0x08c379a000000000000000000000000000000000000000000000000000000000\n      dup2\n      mstore\n      0x04\n      add\n      tag_127\n      swap1\n      tag_128\n      jump\t// in\n    tag_127:\n      mload(0x40)\n      dup1\n      swap2\n      sub\n      swap1\n      revert\n    tag_126:\n        /* \"contracts/GeekNft.sol\":1874:1890  address oldOwner */\n      0x00\n        /* \"contracts/GeekNft.sol\":1893:1904  itemToOwner */\n      0x06\n        /* \"contracts/GeekNft.sol\":1893:1914  itemToOwner[_tokenId] */\n      0x00\n        /* \"contracts/GeekNft.sol\":1905:1913  _tokenId */\n      dup4\n        /* \"contracts/GeekNft.sol\":1893:1914  itemToOwner[_tokenId] */\n      dup2\n      mstore\n      0x20\n      add\n      swap1\n      dup2\n      mstore\n      0x20\n      add\n      0x00\n      keccak256\n      0x00\n      swap1\n      sload\n      swap1\n      0x0100\n      exp\n      swap1\n      div\n      0xffffffffffffffffffffffffffffffffffffffff\n      and\n        /* \"contracts/GeekNft.sol\":1874:1914  address oldOwner = itemToOwner[_tokenId] */\n      swap1\n      pop\n        /* \"contracts/GeekNft.sol\":1933:1956  Item storage itemToSell */\n      0x00\n        /* \"contracts/GeekNft.sol\":1959:1964  items */\n      0x03\n        /* \"contracts/GeekNft.sol\":1965:1973  _tokenId */\n      dup4\n        /* \"contracts/GeekNft.sol\":1959:1974  items[_tokenId] */\n      dup2\n      sload\n      dup2\n      lt\n      tag_129\n      jumpi\n      mstore(0x00, 0x4e487b7100000000000000000000000000000000000000000000000000000000)\n      mstore(0x04, 0x32)\n      revert(0x00, 0x24)\n    tag_129:\n      swap1\n      0x00\n      mstore\n      keccak256(0x00, 0x20)\n      swap1\n      0x04\n      mul\n      add\n        /* \"contracts/GeekNft.sol\":1933:1974  Item storage itemToSell = items[_tokenId] */\n      swap1\n      pop\n        /* \"contracts/GeekNft.sol\":2004:2009  false */\n      0x00\n        /* \"contracts/GeekNft.sol\":1984:1994  itemToSell */\n      dup2\n        /* \"contracts/GeekNft.sol\":1984:2001  itemToSell.toSell */\n      0x03\n      add\n      0x00\n        /* \"contracts/GeekNft.sol\":1984:2009  itemToSell.toSell = false */\n      0x0100\n      exp\n      dup2\n      sload\n      dup2\n      0xff\n      mul\n      not\n      and\n      swap1\n      dup4\n      iszero\n      iszero\n      mul\n      or\n      swap1\n      sstore\n      pop\n        /* \"contracts/GeekNft.sol\":2044:2054  msg.sender */\n      caller\n        /* \"contracts/GeekNft.sol\":2020:2031  itemToOwner */\n      0x06\n        /* \"contracts/GeekNft.sol\":2020:2041  itemToOwner[_tokenId] */\n      0x00\n        /* \"contracts/GeekNft.sol\":2032:2040  _tokenId */\n      dup6\n        /* \"contracts/GeekNft.sol\":2020:2041  itemToOwner[_tokenId] */\n      dup2\n      mstore\n      0x20\n      add\n      swap1\n      dup2\n      mstore\n      0x20\n      add\n      0x00\n      keccak256\n      0x00\n        /* \"contracts/GeekNft.sol\":2020:2054  itemToOwner[_tokenId] = msg.sender */\n      0x0100\n      exp\n      dup2\n      sload\n      dup2\n      0xffffffffffffffffffffffffffffffffffffffff\n      mul\n      not\n      and\n      swap1\n      dup4\n      0xffffffffffffffffffffffffffffffffffffffff\n      and\n      mul\n      or\n      swap1\n      sstore\n      pop\n        /* \"contracts/GeekNft.sol\":2088:2103  itemsOwnerCount */\n      0x07\n        /* \"contracts/GeekNft.sol\":2088:2113  itemsOwnerCount[oldOwner] */\n      0x00\n        /* \"contracts/GeekNft.sol\":2104:2112  oldOwner */\n      dup4\n        /* \"contracts/GeekNft.sol\":2088:2113  itemsOwnerCount[oldOwner] */\n      0xffffffffffffffffffffffffffffffffffffffff\n      and\n      0xffffffffffffffffffffffffffffffffffffffff\n      and\n      dup2\n      mstore\n      0x20\n      add\n      swap1\n      dup2\n      mstore\n      0x20\n      add\n      0x00\n      keccak256\n      0x00\n        /* \"contracts/GeekNft.sol\":2088:2115  itemsOwnerCount[oldOwner]-- */\n      dup2\n      sload\n      dup1\n      swap3\n      swap2\n      swap1\n      0x01\n      swap1\n      sub\n      swap2\n      swap1\n      pop\n      sstore\n      pop\n        /* \"contracts/GeekNft.sol\":2129:2144  itemsOwnerCount */\n      0x07\n        /* \"contracts/GeekNft.sol\":2129:2156  itemsOwnerCount[msg.sender] */\n      0x00\n        /* \"contracts/GeekNft.sol\":2145:2155  msg.sender */\n      caller\n        /* \"contracts/GeekNft.sol\":2129:2156  itemsOwnerCount[msg.sender] */\n      0xffffffffffffffffffffffffffffffffffffffff\n      and\n      0xffffffffffffffffffffffffffffffffffffffff\n      and\n      dup2\n      mstore\n      0x20\n      add\n      swap1\n      dup2\n      mstore\n      0x20\n      add\n      0x00\n      keccak256\n      0x00\n        /* \"contracts/GeekNft.sol\":2129:2158  itemsOwnerCount[msg.sender]++ */\n      dup2\n      sload\n      dup1\n      swap3\n      swap2\n      swap1\n      0x01\n      add\n      swap2\n      swap1\n      pop\n      sstore\n      pop\n        /* \"contracts/GeekNft.sol\":2172:2188  itemsToSellCount */\n      0x04\n      0x00\n        /* \"contracts/GeekNft.sol\":2172:2190  itemsToSellCount-- */\n      dup2\n      sload\n      dup1\n      swap3\n      swap2\n      swap1\n      0x01\n      swap1\n      sub\n      swap2\n      swap1\n      pop\n      sstore\n      pop\n        /* \"contracts/GeekNft.sol\":2211:2220  uint fees */\n      0x00\n        /* \"contracts/GeekNft.sol\":2230:2249  uint totalMinusFees */\n      dup1\n        /* \"contracts/GeekNft.sol\":2284:2318  getFees(msg.value, feesPercentage) */\n      tag_131\n        /* \"contracts/GeekNft.sol\":2292:2301  msg.value */\n      callvalue\n        /* \"contracts/GeekNft.sol\":2303:2317  feesPercentage */\n      sload(0x05)\n        /* \"contracts/GeekNft.sol\":2284:2291  getFees */\n      tag_132\n        /* \"contracts/GeekNft.sol\":2284:2318  getFees(msg.value, feesPercentage) */\n      jump\t// in\n    tag_131:\n        /* \"contracts/GeekNft.sol\":2259:2318  (fees, totalMinusFees) = getFees(msg.value, feesPercentage) */\n      dup1\n      swap3\n      pop\n      dup2\n      swap4\n      pop\n      pop\n      pop\n        /* \"contracts/GeekNft.sol\":2336:2341  owner */\n      0x02\n      0x00\n      swap1\n      sload\n      swap1\n      0x0100\n      exp\n      swap1\n      div\n      0xffffffffffffffffffffffffffffffffffffffff\n      and\n        /* \"contracts/GeekNft.sol\":2328:2351  payable(owner).transfer */\n      0xffffffffffffffffffffffffffffffffffffffff\n      and\n        /* \"contracts/GeekNft.sol\":2328:2357  payable(owner).transfer(fees) */\n      0x08fc\n        /* \"contracts/GeekNft.sol\":2352:2356  fees */\n      dup4\n        /* \"contracts/GeekNft.sol\":2328:2357  payable(owner).transfer(fees) */\n      swap1\n      dup2\n      iszero\n      mul\n      swap1\n      mload(0x40)\n      0x00\n      mload(0x40)\n      dup1\n      dup4\n      sub\n      dup2\n      dup6\n      dup9\n      dup9\n      call\n      swap4\n      pop\n      pop\n      pop\n      pop\n      iszero\n      dup1\n      iszero\n      tag_134\n      jumpi\n      returndatasize\n      0x00\n      dup1\n      returndatacopy\n      revert(0x00, returndatasize)\n    tag_134:\n      pop\n        /* \"contracts/GeekNft.sol\":2375:2383  oldOwner */\n      dup4\n        /* \"contracts/GeekNft.sol\":2367:2393  payable(oldOwner).transfer */\n      0xffffffffffffffffffffffffffffffffffffffff\n      and\n        /* \"contracts/GeekNft.sol\":2367:2409  payable(oldOwner).transfer(totalMinusFees) */\n      0x08fc\n        /* \"contracts/GeekNft.sol\":2394:2408  totalMinusFees */\n      dup3\n        /* \"contracts/GeekNft.sol\":2367:2409  payable(oldOwner).transfer(totalMinusFees) */\n      swap1\n      dup2\n      iszero\n      mul\n      swap1\n      mload(0x40)\n      0x00\n      mload(0x40)\n      dup1\n      dup4\n      sub\n      dup2\n      dup6\n      dup9\n      dup9\n      call\n      swap4\n      pop\n      pop\n      pop\n      pop\n      iszero\n      dup1\n      iszero\n      tag_136\n      jumpi\n      returndatasize\n      0x00\n      dup1\n      returndatacopy\n      revert(0x00, returndatasize)\n    tag_136:\n      pop\n        /* \"contracts/GeekNft.sol\":2444:2454  msg.sender */\n      caller\n        /* \"contracts/GeekNft.sol\":2425:2465  Transfer(oldOwner, msg.sender, _tokenId) */\n      0xffffffffffffffffffffffffffffffffffffffff\n      and\n        /* \"contracts/GeekNft.sol\":2434:2442  oldOwner */\n      dup5\n        /* \"contracts/GeekNft.sol\":2425:2465  Transfer(oldOwner, msg.sender, _tokenId) */\n      0xffffffffffffffffffffffffffffffffffffffff\n      and\n      0xddf252ad1be2c89b69c2b068fc378daa952ba7f163c4a11628f55a4df523b3ef\n        /* \"contracts/GeekNft.sol\":2456:2464  _tokenId */\n      dup8\n        /* \"contracts/GeekNft.sol\":2425:2465  Transfer(oldOwner, msg.sender, _tokenId) */\n      mload(0x40)\n      tag_137\n      swap2\n      swap1\n      tag_45\n      jump\t// in\n    tag_137:\n      mload(0x40)\n      dup1\n      swap2\n      sub\n      swap1\n      log3\n        /* \"contracts/GeekNft.sol\":1686:2472  function sellItem(uint _tokenId) public payable{... */\n      pop\n      pop\n      pop\n      pop\n      pop\n      jump\t// out\n        /* \"contracts/GeekNft.sol\":2704:3033  function removeItemToSell(uint _tokenId) public onlyItemOwner(_tokenId) {... */\n    tag_52:\n        /* \"contracts/GeekNft.sol\":2766:2774  _tokenId */\n      dup1\n        /* \"contracts/GeekNft.sol\":843:853  msg.sender */\n      caller\n        /* \"contracts/GeekNft.sol\":818:853  itemToOwner[_tokenId] == msg.sender */\n      0xffffffffffffffffffffffffffffffffffffffff\n      and\n        /* \"contracts/GeekNft.sol\":818:829  itemToOwner */\n      0x06\n        /* \"contracts/GeekNft.sol\":818:839  itemToOwner[_tokenId] */\n      0x00\n        /* \"contracts/GeekNft.sol\":830:838  _tokenId */\n      dup4\n        /* \"contracts/GeekNft.sol\":818:839  itemToOwner[_tokenId] */\n      dup2\n      mstore\n      0x20\n      add\n      swap1\n      dup2\n      mstore\n      0x20\n      add\n      0x00\n      keccak256\n      0x00\n      swap1\n      sload\n      swap1\n      0x0100\n      exp\n      swap1\n      div\n      0xffffffffffffffffffffffffffffffffffffffff\n      and\n        /* \"contracts/GeekNft.sol\":818:853  itemToOwner[_tokenId] == msg.sender */\n      0xffffffffffffffffffffffffffffffffffffffff\n      and\n      eq\n        /* \"contracts/GeekNft.sol\":810:887  require(itemToOwner[_tokenId] == msg.sender, \"Only item's owner can do that\") */\n      tag_139\n      jumpi\n      mload(0x40)\n      0x08c379a000000000000000000000000000000000000000000000000000000000\n      dup2\n      mstore\n      0x04\n      add\n      tag_140\n      swap1\n      tag_141\n      jump\t// in\n    tag_140:\n      mload(0x40)\n      dup1\n      swap2\n      sub\n      swap1\n      revert\n    tag_139:\n        /* \"contracts/GeekNft.sol\":2827:2828  0 */\n      0x00\n        /* \"contracts/GeekNft.sol\":2794:2829  itemToOwner[_tokenId] != address(0) */\n      0xffffffffffffffffffffffffffffffffffffffff\n      and\n        /* \"contracts/GeekNft.sol\":2794:2805  itemToOwner */\n      0x06\n        /* \"contracts/GeekNft.sol\":2794:2815  itemToOwner[_tokenId] */\n      0x00\n        /* \"contracts/GeekNft.sol\":2806:2814  _tokenId */\n      dup5\n        /* \"contracts/GeekNft.sol\":2794:2815  itemToOwner[_tokenId] */\n      dup2\n      mstore\n      0x20\n      add\n      swap1\n      dup2\n      mstore\n      0x20\n      add\n      0x00\n      keccak256\n      0x00\n      swap1\n      sload\n      swap1\n      0x0100\n      exp\n      swap1\n      div\n      0xffffffffffffffffffffffffffffffffffffffff\n      and\n        /* \"contracts/GeekNft.sol\":2794:2829  itemToOwner[_tokenId] != address(0) */\n      0xffffffffffffffffffffffffffffffffffffffff\n      and\n      eq\n      iszero\n        /* \"contracts/GeekNft.sol\":2786:2853  require(itemToOwner[_tokenId] != address(0), \"token doesn't exist\") */\n      tag_143\n      jumpi\n      mload(0x40)\n      0x08c379a000000000000000000000000000000000000000000000000000000000\n      dup2\n      mstore\n      0x04\n      add\n      tag_144\n      swap1\n      tag_128\n      jump\t// in\n    tag_144:\n      mload(0x40)\n      dup1\n      swap2\n      sub\n      swap1\n      revert\n    tag_143:\n        /* \"contracts/GeekNft.sol\":2897:2901  true */\n      0x01\n        /* \"contracts/GeekNft.sol\":2871:2901  items[_tokenId].toSell == true */\n      iszero\n      iszero\n        /* \"contracts/GeekNft.sol\":2871:2876  items */\n      0x03\n        /* \"contracts/GeekNft.sol\":2877:2885  _tokenId */\n      dup4\n        /* \"contracts/GeekNft.sol\":2871:2886  items[_tokenId] */\n      dup2\n      sload\n      dup2\n      lt\n      tag_145\n      jumpi\n      mstore(0x00, 0x4e487b7100000000000000000000000000000000000000000000000000000000)\n      mstore(0x04, 0x32)\n      revert(0x00, 0x24)\n    tag_145:\n      swap1\n      0x00\n      mstore\n      keccak256(0x00, 0x20)\n      swap1\n      0x04\n      mul\n      add\n        /* \"contracts/GeekNft.sol\":2871:2893  items[_tokenId].toSell */\n      0x03\n      add\n      0x00\n      swap1\n      sload\n      swap1\n      0x0100\n      exp\n      swap1\n      div\n      0xff\n      and\n        /* \"contracts/GeekNft.sol\":2871:2901  items[_tokenId].toSell == true */\n      iszero\n      iszero\n      eq\n        /* \"contracts/GeekNft.sol\":2863:2925  require(items[_tokenId].toSell == true, \"token isn't to sell\") */\n      tag_147\n      jumpi\n      mload(0x40)\n      0x08c379a000000000000000000000000000000000000000000000000000000000\n      dup2\n      mstore\n      0x04\n      add\n      tag_148\n      swap1\n      tag_149\n      jump\t// in\n    tag_148:\n      mload(0x40)\n      dup1\n      swap2\n      sub\n      swap1\n      revert\n    tag_147:\n        /* \"contracts/GeekNft.sol\":2960:2965  false */\n      0x00\n        /* \"contracts/GeekNft.sol\":2935:2940  items */\n      0x03\n        /* \"contracts/GeekNft.sol\":2941:2949  _tokenId */\n      dup4\n        /* \"contracts/GeekNft.sol\":2935:2950  items[_tokenId] */\n      dup2\n      sload\n      dup2\n      lt\n      tag_150\n      jumpi\n      mstore(0x00, 0x4e487b7100000000000000000000000000000000000000000000000000000000)\n      mstore(0x04, 0x32)\n      revert(0x00, 0x24)\n    tag_150:\n      swap1\n      0x00\n      mstore\n      keccak256(0x00, 0x20)\n      swap1\n      0x04\n      mul\n      add\n        /* \"contracts/GeekNft.sol\":2935:2957  items[_tokenId].toSell */\n      0x03\n      add\n      0x00\n        /* \"contracts/GeekNft.sol\":2935:2965  items[_tokenId].toSell = false */\n      0x0100\n      exp\n      dup2\n      sload\n      dup2\n      0xff\n      mul\n      not\n      and\n      swap1\n      dup4\n      iszero\n      iszero\n      mul\n      or\n      swap1\n      sstore\n      pop\n        /* \"contracts/GeekNft.sol\":2998:3014  itemsToSellCount */\n      0x04\n      0x00\n        /* \"contracts/GeekNft.sol\":2998:3016  itemsToSellCount-- */\n      dup2\n      sload\n      dup1\n      swap3\n      swap2\n      swap1\n      0x01\n      swap1\n      sub\n      swap2\n      swap1\n      pop\n      sstore\n      pop\n        /* \"contracts/GeekNft.sol\":2704:3033  function removeItemToSell(uint _tokenId) public onlyItemOwner(_tokenId) {... */\n      pop\n      pop\n      jump\t// out\n        /* \"contracts/GeekNft.sol\":1140:1680  function createItem(uint _price, uint _catId) public returns (uint){... */\n    tag_57:\n        /* \"contracts/GeekNft.sol\":1202:1206  uint */\n      0x00\n        /* \"contracts/GeekNft.sol\":1234:1235  0 */\n      dup1\n        /* \"contracts/GeekNft.sol\":1225:1231  _price */\n      dup4\n        /* \"contracts/GeekNft.sol\":1225:1235  _price > 0 */\n      gt\n        /* \"contracts/GeekNft.sol\":1217:1266  require(_price > 0, \"Price cannot be equal to 0\") */\n      tag_153\n      jumpi\n      mload(0x40)\n      0x08c379a000000000000000000000000000000000000000000000000000000000\n      dup2\n      mstore\n      0x04\n      add\n      tag_154\n      swap1\n      tag_155\n      jump\t// in\n    tag_154:\n      mload(0x40)\n      dup1\n      swap2\n      sub\n      swap1\n      revert\n    tag_153:\n        /* \"contracts/GeekNft.sol\":1276:1291  uint newTokenId */\n      0x00\n        /* \"contracts/GeekNft.sol\":1294:1299  items */\n      0x03\n        /* \"contracts/GeekNft.sol\":1294:1306  items.length */\n      dup1\n      sload\n      swap1\n      pop\n        /* \"contracts/GeekNft.sol\":1276:1306  uint newTokenId = items.length */\n      swap1\n      pop\n        /* \"contracts/GeekNft.sol\":1360:1361  0 */\n      0x00\n        /* \"contracts/GeekNft.sol\":1325:1362  itemToOwner[newTokenId] == address(0) */\n      0xffffffffffffffffffffffffffffffffffffffff\n      and\n        /* \"contracts/GeekNft.sol\":1325:1336  itemToOwner */\n      0x06\n        /* \"contracts/GeekNft.sol\":1325:1348  itemToOwner[newTokenId] */\n      0x00\n        /* \"contracts/GeekNft.sol\":1337:1347  newTokenId */\n      dup4\n        /* \"contracts/GeekNft.sol\":1325:1348  itemToOwner[newTokenId] */\n      dup2\n      mstore\n      0x20\n      add\n      swap1\n      dup2\n      mstore\n      0x20\n      add\n      0x00\n      keccak256\n      0x00\n      swap1\n      sload\n      swap1\n      0x0100\n      exp\n      swap1\n      div\n      0xffffffffffffffffffffffffffffffffffffffff\n      and\n        /* \"contracts/GeekNft.sol\":1325:1362  itemToOwner[newTokenId] == address(0) */\n      0xffffffffffffffffffffffffffffffffffffffff\n      and\n      eq\n        /* \"contracts/GeekNft.sol\":1317:1386  require(itemToOwner[newTokenId] == address(0), \"token already exist\") */\n      tag_156\n      jumpi\n      mload(0x40)\n      0x08c379a000000000000000000000000000000000000000000000000000000000\n      dup2\n      mstore\n      0x04\n      add\n      tag_157\n      swap1\n      tag_158\n      jump\t// in\n    tag_157:\n      mload(0x40)\n      dup1\n      swap2\n      sub\n      swap1\n      revert\n    tag_156:\n        /* \"contracts/GeekNft.sol\":1417:1455  Item(newTokenId, _price, _catId, true) */\n      mload(0x40)\n      dup1\n      0x80\n      add\n      0x40\n      mstore\n      dup1\n        /* \"contracts/GeekNft.sol\":1422:1432  newTokenId */\n      dup3\n        /* \"contracts/GeekNft.sol\":1417:1455  Item(newTokenId, _price, _catId, true) */\n      dup2\n      mstore\n      0x20\n      add\n        /* \"contracts/GeekNft.sol\":1434:1440  _price */\n      dup6\n        /* \"contracts/GeekNft.sol\":1417:1455  Item(newTokenId, _price, _catId, true) */\n      dup2\n      mstore\n      0x20\n      add\n        /* \"contracts/GeekNft.sol\":1442:1448  _catId */\n      dup5\n        /* \"contracts/GeekNft.sol\":1417:1455  Item(newTokenId, _price, _catId, true) */\n      dup2\n      mstore\n      0x20\n      add\n        /* \"contracts/GeekNft.sol\":1450:1454  true */\n      0x01\n        /* \"contracts/GeekNft.sol\":1417:1455  Item(newTokenId, _price, _catId, true) */\n      iszero\n      iszero\n      dup2\n      mstore\n      pop\n        /* \"contracts/GeekNft.sol\":1397:1402  items */\n      0x03\n        /* \"contracts/GeekNft.sol\":1403:1413  newTokenId */\n      dup3\n        /* \"contracts/GeekNft.sol\":1397:1414  items[newTokenId] */\n      dup2\n      sload\n      dup2\n      lt\n      tag_159\n      jumpi\n      mstore(0x00, 0x4e487b7100000000000000000000000000000000000000000000000000000000)\n      mstore(0x04, 0x32)\n      revert(0x00, 0x24)\n    tag_159:\n      swap1\n      0x00\n      mstore\n      keccak256(0x00, 0x20)\n      swap1\n      0x04\n      mul\n      add\n        /* \"contracts/GeekNft.sol\":1397:1455  items[newTokenId] = Item(newTokenId, _price, _catId, true) */\n      0x00\n      dup3\n      add\n      mload\n      dup2\n      0x00\n      add\n      sstore\n      0x20\n      dup3\n      add\n      mload\n      dup2\n      0x01\n      add\n      sstore\n      0x40\n      dup3\n      add\n      mload\n      dup2\n      0x02\n      add\n      sstore\n      0x60\n      dup3\n      add\n      mload\n      dup2\n      0x03\n      add\n      exp(0x0100, 0x00)\n      dup2\n      sload\n      dup2\n      0xff\n      mul\n      not\n      and\n      swap1\n      dup4\n      iszero\n      iszero\n      mul\n      or\n      swap1\n      sstore\n      pop\n      swap1\n      pop\n      pop\n        /* \"contracts/GeekNft.sol\":1491:1501  msg.sender */\n      caller\n        /* \"contracts/GeekNft.sol\":1465:1476  itemToOwner */\n      0x06\n        /* \"contracts/GeekNft.sol\":1465:1488  itemToOwner[newTokenId] */\n      0x00\n        /* \"contracts/GeekNft.sol\":1477:1487  newTokenId */\n      dup4\n        /* \"contracts/GeekNft.sol\":1465:1488  itemToOwner[newTokenId] */\n      dup2\n      mstore\n      0x20\n      add\n      swap1\n      dup2\n      mstore\n      0x20\n      add\n      0x00\n      keccak256\n      0x00\n        /* \"contracts/GeekNft.sol\":1465:1501  itemToOwner[newTokenId] = msg.sender */\n      0x0100\n      exp\n      dup2\n      sload\n      dup2\n      0xffffffffffffffffffffffffffffffffffffffff\n      mul\n      not\n      and\n      swap1\n      dup4\n      0xffffffffffffffffffffffffffffffffffffffff\n      and\n      mul\n      or\n      swap1\n      sstore\n      pop\n        /* \"contracts/GeekNft.sol\":1535:1550  itemsOwnerCount */\n      0x07\n        /* \"contracts/GeekNft.sol\":1535:1562  itemsOwnerCount[msg.sender] */\n      0x00\n        /* \"contracts/GeekNft.sol\":1551:1561  msg.sender */\n      caller\n        /* \"contracts/GeekNft.sol\":1535:1562  itemsOwnerCount[msg.sender] */\n      0xffffffffffffffffffffffffffffffffffffffff\n      and\n      0xffffffffffffffffffffffffffffffffffffffff\n      and\n      dup2\n      mstore\n      0x20\n      add\n      swap1\n      dup2\n      mstore\n      0x20\n      add\n      0x00\n      keccak256\n      0x00\n        /* \"contracts/GeekNft.sol\":1535:1564  itemsOwnerCount[msg.sender]++ */\n      dup2\n      sload\n      dup1\n      swap3\n      swap2\n      swap1\n      0x01\n      add\n      swap2\n      swap1\n      pop\n      sstore\n      pop\n        /* \"contracts/GeekNft.sol\":1578:1593  itemsCatIdCount */\n      0x08\n        /* \"contracts/GeekNft.sol\":1578:1601  itemsCatIdCount[_catId] */\n      0x00\n        /* \"contracts/GeekNft.sol\":1594:1600  _catId */\n      dup5\n        /* \"contracts/GeekNft.sol\":1578:1601  itemsCatIdCount[_catId] */\n      dup2\n      mstore\n      0x20\n      add\n      swap1\n      dup2\n      mstore\n      0x20\n      add\n      0x00\n      keccak256\n      0x00\n        /* \"contracts/GeekNft.sol\":1578:1603  itemsCatIdCount[_catId]++ */\n      dup2\n      sload\n      dup1\n      swap3\n      swap2\n      swap1\n      0x01\n      add\n      swap2\n      swap1\n      pop\n      sstore\n      pop\n        /* \"contracts/GeekNft.sol\":1617:1633  itemsToSellCount */\n      0x04\n      0x00\n        /* \"contracts/GeekNft.sol\":1617:1635  itemsToSellCount++ */\n      dup2\n      sload\n      dup1\n      swap3\n      swap2\n      swap1\n      0x01\n      add\n      swap2\n      swap1\n      pop\n      sstore\n      pop\n        /* \"contracts/GeekNft.sol\":1663:1673  newTokenId */\n      dup1\n        /* \"contracts/GeekNft.sol\":1656:1673  return newTokenId */\n      swap2\n      pop\n      pop\n        /* \"contracts/GeekNft.sol\":1140:1680  function createItem(uint _price, uint _catId) public returns (uint){... */\n      swap3\n      swap2\n      pop\n      pop\n      jump\t// out\n        /* \"contracts/GeekNft.sol\":3039:3370  function addItemToSell(uint _tokenId) public onlyItemOwner(_tokenId) {... */\n    tag_62:\n        /* \"contracts/GeekNft.sol\":3098:3106  _tokenId */\n      dup1\n        /* \"contracts/GeekNft.sol\":843:853  msg.sender */\n      caller\n        /* \"contracts/GeekNft.sol\":818:853  itemToOwner[_tokenId] == msg.sender */\n      0xffffffffffffffffffffffffffffffffffffffff\n      and\n        /* \"contracts/GeekNft.sol\":818:829  itemToOwner */\n      0x06\n        /* \"contracts/GeekNft.sol\":818:839  itemToOwner[_tokenId] */\n      0x00\n        /* \"contracts/GeekNft.sol\":830:838  _tokenId */\n      dup4\n        /* \"contracts/GeekNft.sol\":818:839  itemToOwner[_tokenId] */\n      dup2\n      mstore\n      0x20\n      add\n      swap1\n      dup2\n      mstore\n      0x20\n      add\n      0x00\n      keccak256\n      0x00\n      swap1\n      sload\n      swap1\n      0x0100\n      exp\n      swap1\n      div\n      0xffffffffffffffffffffffffffffffffffffffff\n      and\n        /* \"contracts/GeekNft.sol\":818:853  itemToOwner[_tokenId] == msg.sender */\n      0xffffffffffffffffffffffffffffffffffffffff\n      and\n      eq\n        /* \"contracts/GeekNft.sol\":810:887  require(itemToOwner[_tokenId] == msg.sender, \"Only item's owner can do that\") */\n      tag_162\n      jumpi\n      mload(0x40)\n      0x08c379a000000000000000000000000000000000000000000000000000000000\n      dup2\n      mstore\n      0x04\n      add\n      tag_163\n      swap1\n      tag_141\n      jump\t// in\n    tag_163:\n      mload(0x40)\n      dup1\n      swap2\n      sub\n      swap1\n      revert\n    tag_162:\n        /* \"contracts/GeekNft.sol\":3159:3160  0 */\n      0x00\n        /* \"contracts/GeekNft.sol\":3126:3161  itemToOwner[_tokenId] != address(0) */\n      0xffffffffffffffffffffffffffffffffffffffff\n      and\n        /* \"contracts/GeekNft.sol\":3126:3137  itemToOwner */\n      0x06\n        /* \"contracts/GeekNft.sol\":3126:3147  itemToOwner[_tokenId] */\n      0x00\n        /* \"contracts/GeekNft.sol\":3138:3146  _tokenId */\n      dup5\n        /* \"contracts/GeekNft.sol\":3126:3147  itemToOwner[_tokenId] */\n      dup2\n      mstore\n      0x20\n      add\n      swap1\n      dup2\n      mstore\n      0x20\n      add\n      0x00\n      keccak256\n      0x00\n      swap1\n      sload\n      swap1\n      0x0100\n      exp\n      swap1\n      div\n      0xffffffffffffffffffffffffffffffffffffffff\n      and\n        /* \"contracts/GeekNft.sol\":3126:3161  itemToOwner[_tokenId] != address(0) */\n      0xffffffffffffffffffffffffffffffffffffffff\n      and\n      eq\n      iszero\n        /* \"contracts/GeekNft.sol\":3118:3185  require(itemToOwner[_tokenId] != address(0), \"token doesn't exist\") */\n      tag_165\n      jumpi\n      mload(0x40)\n      0x08c379a000000000000000000000000000000000000000000000000000000000\n      dup2\n      mstore\n      0x04\n      add\n      tag_166\n      swap1\n      tag_128\n      jump\t// in\n    tag_166:\n      mload(0x40)\n      dup1\n      swap2\n      sub\n      swap1\n      revert\n    tag_165:\n        /* \"contracts/GeekNft.sol\":3229:3234  false */\n      0x00\n        /* \"contracts/GeekNft.sol\":3203:3234  items[_tokenId].toSell == false */\n      iszero\n      iszero\n        /* \"contracts/GeekNft.sol\":3203:3208  items */\n      0x03\n        /* \"contracts/GeekNft.sol\":3209:3217  _tokenId */\n      dup4\n        /* \"contracts/GeekNft.sol\":3203:3218  items[_tokenId] */\n      dup2\n      sload\n      dup2\n      lt\n      tag_167\n      jumpi\n      mstore(0x00, 0x4e487b7100000000000000000000000000000000000000000000000000000000)\n      mstore(0x04, 0x32)\n      revert(0x00, 0x24)\n    tag_167:\n      swap1\n      0x00\n      mstore\n      keccak256(0x00, 0x20)\n      swap1\n      0x04\n      mul\n      add\n        /* \"contracts/GeekNft.sol\":3203:3225  items[_tokenId].toSell */\n      0x03\n      add\n      0x00\n      swap1\n      sload\n      swap1\n      0x0100\n      exp\n      swap1\n      div\n      0xff\n      and\n        /* \"contracts/GeekNft.sol\":3203:3234  items[_tokenId].toSell == false */\n      iszero\n      iszero\n      eq\n        /* \"contracts/GeekNft.sol\":3195:3263  require(items[_tokenId].toSell == false, \"token is already to sell\") */\n      tag_169\n      jumpi\n      mload(0x40)\n      0x08c379a000000000000000000000000000000000000000000000000000000000\n      dup2\n      mstore\n      0x04\n      add\n      tag_170\n      swap1\n      tag_171\n      jump\t// in\n    tag_170:\n      mload(0x40)\n      dup1\n      swap2\n      sub\n      swap1\n      revert\n    tag_169:\n        /* \"contracts/GeekNft.sol\":3298:3302  true */\n      0x01\n        /* \"contracts/GeekNft.sol\":3273:3278  items */\n      0x03\n        /* \"contracts/GeekNft.sol\":3279:3287  _tokenId */\n      dup4\n        /* \"contracts/GeekNft.sol\":3273:3288  items[_tokenId] */\n      dup2\n      sload\n      dup2\n      lt\n      tag_172\n      jumpi\n      mstore(0x00, 0x4e487b7100000000000000000000000000000000000000000000000000000000)\n      mstore(0x04, 0x32)\n      revert(0x00, 0x24)\n    tag_172:\n      swap1\n      0x00\n      mstore\n      keccak256(0x00, 0x20)\n      swap1\n      0x04\n      mul\n      add\n        /* \"contracts/GeekNft.sol\":3273:3295  items[_tokenId].toSell */\n      0x03\n      add\n      0x00\n        /* \"contracts/GeekNft.sol\":3273:3302  items[_tokenId].toSell = true */\n      0x0100\n      exp\n      dup2\n      sload\n      dup2\n      0xff\n      mul\n      not\n      and\n      swap1\n      dup4\n      iszero\n      iszero\n      mul\n      or\n      swap1\n      sstore\n      pop\n        /* \"contracts/GeekNft.sol\":3335:3351  itemsToSellCount */\n      0x04\n      0x00\n        /* \"contracts/GeekNft.sol\":3335:3353  itemsToSellCount++ */\n      dup2\n      sload\n      dup1\n      swap3\n      swap2\n      swap1\n      0x01\n      add\n      swap2\n      swap1\n      pop\n      sstore\n      pop\n        /* \"contracts/GeekNft.sol\":3039:3370  function addItemToSell(uint _tokenId) public onlyItemOwner(_tokenId) {... */\n      pop\n      pop\n      jump\t// out\n        /* \"contracts/GeekNft.sol\":1040:1134  function getFeesPercentage() public view returns (uint) {... */\n    tag_65:\n        /* \"contracts/GeekNft.sol\":1090:1094  uint */\n      0x00\n        /* \"contracts/GeekNft.sol\":1113:1127  feesPercentage */\n      sload(0x05)\n        /* \"contracts/GeekNft.sol\":1106:1127  return feesPercentage */\n      swap1\n      pop\n        /* \"contracts/GeekNft.sol\":1040:1134  function getFeesPercentage() public view returns (uint) {... */\n      swap1\n      jump\t// out\n        /* \"contracts/GeekNft.sol\":4597:4819  function getFees(uint _price, uint _percentage) private pure returns (uint, uint){... */\n    tag_132:\n        /* \"contracts/GeekNft.sol\":4667:4671  uint */\n      0x00\n        /* \"contracts/GeekNft.sol\":4673:4677  uint */\n      dup1\n        /* \"contracts/GeekNft.sol\":4688:4697  uint fees */\n      0x00\n        /* \"contracts/GeekNft.sol\":4725:4728  100 */\n      0x64\n        /* \"contracts/GeekNft.sol\":4715:4721  _price */\n      dup6\n        /* \"contracts/GeekNft.sol\":4701:4712  _percentage */\n      dup6\n        /* \"contracts/GeekNft.sol\":4701:4721  _percentage * _price */\n      tag_176\n      swap2\n      swap1\n      tag_177\n      jump\t// in\n    tag_176:\n        /* \"contracts/GeekNft.sol\":4700:4728  (_percentage * _price) / 100 */\n      tag_178\n      swap2\n      swap1\n      tag_179\n      jump\t// in\n    tag_178:\n        /* \"contracts/GeekNft.sol\":4688:4728  uint fees = (_percentage * _price) / 100 */\n      swap1\n      pop\n        /* \"contracts/GeekNft.sol\":4738:4757  uint totalMinusFees */\n      0x00\n        /* \"contracts/GeekNft.sol\":4769:4773  fees */\n      dup2\n        /* \"contracts/GeekNft.sol\":4760:4766  _price */\n      dup7\n        /* \"contracts/GeekNft.sol\":4760:4773  _price - fees */\n      tag_180\n      swap2\n      swap1\n      tag_181\n      jump\t// in\n    tag_180:\n        /* \"contracts/GeekNft.sol\":4738:4773  uint totalMinusFees = _price - fees */\n      swap1\n      pop\n        /* \"contracts/GeekNft.sol\":4791:4795  fees */\n      dup2\n        /* \"contracts/GeekNft.sol\":4797:4811  totalMinusFees */\n      dup2\n        /* \"contracts/GeekNft.sol\":4783:4812  return (fees, totalMinusFees) */\n      swap4\n      pop\n      swap4\n      pop\n      pop\n      pop\n        /* \"contracts/GeekNft.sol\":4597:4819  function getFees(uint _price, uint _percentage) private pure returns (uint, uint){... */\n      swap3\n      pop\n      swap3\n      swap1\n      pop\n      jump\t// out\n    tag_72:\n      mload(0x40)\n      dup1\n      0x80\n      add\n      0x40\n      mstore\n      dup1\n      0x00\n      dup2\n      mstore\n      0x20\n      add\n      0x00\n      dup2\n      mstore\n      0x20\n      add\n      0x00\n      dup2\n      mstore\n      0x20\n      add\n      iszero(iszero(0x00))\n      dup2\n      mstore\n      pop\n      swap1\n      jump\t// out\n        /* \"#utility.yul\":7:146   */\n    tag_183:\n      0x00\n        /* \"#utility.yul\":91:97   */\n      dup2\n        /* \"#utility.yul\":78:98   */\n      calldataload\n        /* \"#utility.yul\":69:98   */\n      swap1\n      pop\n        /* \"#utility.yul\":107:140   */\n      tag_185\n        /* \"#utility.yul\":134:139   */\n      dup2\n        /* \"#utility.yul\":107:140   */\n      tag_186\n      jump\t// in\n    tag_185:\n        /* \"#utility.yul\":59:146   */\n      swap3\n      swap2\n      pop\n      pop\n      jump\t// out\n        /* \"#utility.yul\":152:291   */\n    tag_187:\n      0x00\n        /* \"#utility.yul\":236:242   */\n      dup2\n        /* \"#utility.yul\":223:243   */\n      calldataload\n        /* \"#utility.yul\":214:243   */\n      swap1\n      pop\n        /* \"#utility.yul\":252:285   */\n      tag_189\n        /* \"#utility.yul\":279:284   */\n      dup2\n        /* \"#utility.yul\":252:285   */\n      tag_190\n      jump\t// in\n    tag_189:\n        /* \"#utility.yul\":204:291   */\n      swap3\n      swap2\n      pop\n      pop\n      jump\t// out\n        /* \"#utility.yul\":297:559   */\n    tag_42:\n      0x00\n        /* \"#utility.yul\":405:407   */\n      0x20\n        /* \"#utility.yul\":393:402   */\n      dup3\n        /* \"#utility.yul\":384:391   */\n      dup5\n        /* \"#utility.yul\":380:403   */\n      sub\n        /* \"#utility.yul\":376:408   */\n      slt\n        /* \"#utility.yul\":373:375   */\n      iszero\n      tag_192\n      jumpi\n        /* \"#utility.yul\":421:422   */\n      0x00\n        /* \"#utility.yul\":418:419   */\n      dup1\n        /* \"#utility.yul\":411:423   */\n      revert\n        /* \"#utility.yul\":373:375   */\n    tag_192:\n        /* \"#utility.yul\":464:465   */\n      0x00\n        /* \"#utility.yul\":489:542   */\n      tag_193\n        /* \"#utility.yul\":534:541   */\n      dup5\n        /* \"#utility.yul\":525:531   */\n      dup3\n        /* \"#utility.yul\":514:523   */\n      dup6\n        /* \"#utility.yul\":510:532   */\n      add\n        /* \"#utility.yul\":489:542   */\n      tag_183\n      jump\t// in\n    tag_193:\n        /* \"#utility.yul\":479:542   */\n      swap2\n      pop\n        /* \"#utility.yul\":435:552   */\n      pop\n        /* \"#utility.yul\":363:559   */\n      swap3\n      swap2\n      pop\n      pop\n      jump\t// out\n        /* \"#utility.yul\":565:827   */\n    tag_22:\n      0x00\n        /* \"#utility.yul\":673:675   */\n      0x20\n        /* \"#utility.yul\":661:670   */\n      dup3\n        /* \"#utility.yul\":652:659   */\n      dup5\n        /* \"#utility.yul\":648:671   */\n      sub\n        /* \"#utility.yul\":644:676   */\n      slt\n        /* \"#utility.yul\":641:643   */\n      iszero\n      tag_195\n      jumpi\n        /* \"#utility.yul\":689:690   */\n      0x00\n        /* \"#utility.yul\":686:687   */\n      dup1\n        /* \"#utility.yul\":679:691   */\n      revert\n        /* \"#utility.yul\":641:643   */\n    tag_195:\n        /* \"#utility.yul\":732:733   */\n      0x00\n        /* \"#utility.yul\":757:810   */\n      tag_196\n        /* \"#utility.yul\":802:809   */\n      dup5\n        /* \"#utility.yul\":793:799   */\n      dup3\n        /* \"#utility.yul\":782:791   */\n      dup6\n        /* \"#utility.yul\":778:800   */\n      add\n        /* \"#utility.yul\":757:810   */\n      tag_187\n      jump\t// in\n    tag_196:\n        /* \"#utility.yul\":747:810   */\n      swap2\n      pop\n        /* \"#utility.yul\":703:820   */\n      pop\n        /* \"#utility.yul\":631:827   */\n      swap3\n      swap2\n      pop\n      pop\n      jump\t// out\n        /* \"#utility.yul\":833:1240   */\n    tag_56:\n      0x00\n      dup1\n        /* \"#utility.yul\":958:960   */\n      0x40\n        /* \"#utility.yul\":946:955   */\n      dup4\n        /* \"#utility.yul\":937:944   */\n      dup6\n        /* \"#utility.yul\":933:956   */\n      sub\n        /* \"#utility.yul\":929:961   */\n      slt\n        /* \"#utility.yul\":926:928   */\n      iszero\n      tag_198\n      jumpi\n        /* \"#utility.yul\":974:975   */\n      0x00\n        /* \"#utility.yul\":971:972   */\n      dup1\n        /* \"#utility.yul\":964:976   */\n      revert\n        /* \"#utility.yul\":926:928   */\n    tag_198:\n        /* \"#utility.yul\":1017:1018   */\n      0x00\n        /* \"#utility.yul\":1042:1095   */\n      tag_199\n        /* \"#utility.yul\":1087:1094   */\n      dup6\n        /* \"#utility.yul\":1078:1084   */\n      dup3\n        /* \"#utility.yul\":1067:1076   */\n      dup7\n        /* \"#utility.yul\":1063:1085   */\n      add\n        /* \"#utility.yul\":1042:1095   */\n      tag_187\n      jump\t// in\n    tag_199:\n        /* \"#utility.yul\":1032:1095   */\n      swap3\n      pop\n        /* \"#utility.yul\":988:1105   */\n      pop\n        /* \"#utility.yul\":1144:1146   */\n      0x20\n        /* \"#utility.yul\":1170:1223   */\n      tag_200\n        /* \"#utility.yul\":1215:1222   */\n      dup6\n        /* \"#utility.yul\":1206:1212   */\n      dup3\n        /* \"#utility.yul\":1195:1204   */\n      dup7\n        /* \"#utility.yul\":1191:1213   */\n      add\n        /* \"#utility.yul\":1170:1223   */\n      tag_187\n      jump\t// in\n    tag_200:\n        /* \"#utility.yul\":1160:1223   */\n      swap2\n      pop\n        /* \"#utility.yul\":1115:1233   */\n      pop\n        /* \"#utility.yul\":916:1240   */\n      swap3\n      pop\n      swap3\n      swap1\n      pop\n      jump\t// out\n        /* \"#utility.yul\":1246:1505   */\n    tag_201:\n      0x00\n        /* \"#utility.yul\":1376:1462   */\n      tag_203\n        /* \"#utility.yul\":1458:1461   */\n      dup4\n        /* \"#utility.yul\":1450:1456   */\n      dup4\n        /* \"#utility.yul\":1376:1462   */\n      tag_204\n      jump\t// in\n    tag_203:\n        /* \"#utility.yul\":1494:1498   */\n      0x80\n        /* \"#utility.yul\":1489:1492   */\n      dup4\n        /* \"#utility.yul\":1485:1499   */\n      add\n        /* \"#utility.yul\":1471:1499   */\n      swap1\n      pop\n        /* \"#utility.yul\":1366:1505   */\n      swap3\n      swap2\n      pop\n      pop\n      jump\t// out\n        /* \"#utility.yul\":1511:1629   */\n    tag_205:\n        /* \"#utility.yul\":1598:1622   */\n      tag_207\n        /* \"#utility.yul\":1616:1621   */\n      dup2\n        /* \"#utility.yul\":1598:1622   */\n      tag_208\n      jump\t// in\n    tag_207:\n        /* \"#utility.yul\":1593:1596   */\n      dup3\n        /* \"#utility.yul\":1586:1623   */\n      mstore\n        /* \"#utility.yul\":1576:1629   */\n      pop\n      pop\n      jump\t// out\n        /* \"#utility.yul\":1689:2581   */\n    tag_209:\n      0x00\n        /* \"#utility.yul\":1877:1951   */\n      tag_211\n        /* \"#utility.yul\":1945:1950   */\n      dup3\n        /* \"#utility.yul\":1877:1951   */\n      tag_212\n      jump\t// in\n    tag_211:\n        /* \"#utility.yul\":1967:2073   */\n      tag_213\n        /* \"#utility.yul\":2066:2072   */\n      dup2\n        /* \"#utility.yul\":2061:2064   */\n      dup6\n        /* \"#utility.yul\":1967:2073   */\n      tag_214\n      jump\t// in\n    tag_213:\n        /* \"#utility.yul\":1960:2073   */\n      swap4\n      pop\n        /* \"#utility.yul\":2097:2173   */\n      tag_215\n        /* \"#utility.yul\":2167:2172   */\n      dup4\n        /* \"#utility.yul\":2097:2173   */\n      tag_216\n      jump\t// in\n    tag_215:\n        /* \"#utility.yul\":2196:2203   */\n      dup1\n        /* \"#utility.yul\":2227:2228   */\n      0x00\n        /* \"#utility.yul\":2212:2556   */\n    tag_217:\n        /* \"#utility.yul\":2237:2243   */\n      dup4\n        /* \"#utility.yul\":2234:2235   */\n      dup2\n        /* \"#utility.yul\":2231:2244   */\n      lt\n        /* \"#utility.yul\":2212:2556   */\n      iszero\n      tag_219\n      jumpi\n        /* \"#utility.yul\":2313:2319   */\n      dup2\n        /* \"#utility.yul\":2307:2320   */\n      mload\n        /* \"#utility.yul\":2340:2443   */\n      tag_220\n        /* \"#utility.yul\":2439:2442   */\n      dup9\n        /* \"#utility.yul\":2424:2437   */\n      dup3\n        /* \"#utility.yul\":2340:2443   */\n      tag_201\n      jump\t// in\n    tag_220:\n        /* \"#utility.yul\":2333:2443   */\n      swap8\n      pop\n        /* \"#utility.yul\":2466:2546   */\n      tag_221\n        /* \"#utility.yul\":2539:2545   */\n      dup4\n        /* \"#utility.yul\":2466:2546   */\n      tag_222\n      jump\t// in\n    tag_221:\n        /* \"#utility.yul\":2456:2546   */\n      swap3\n      pop\n        /* \"#utility.yul\":2272:2556   */\n      pop\n        /* \"#utility.yul\":2259:2260   */\n      0x01\n        /* \"#utility.yul\":2256:2257   */\n      dup2\n        /* \"#utility.yul\":2252:2261   */\n      add\n        /* \"#utility.yul\":2247:2261   */\n      swap1\n      pop\n        /* \"#utility.yul\":2212:2556   */\n      jump(tag_217)\n    tag_219:\n        /* \"#utility.yul\":2216:2230   */\n      pop\n        /* \"#utility.yul\":2572:2575   */\n      dup6\n        /* \"#utility.yul\":2565:2575   */\n      swap4\n      pop\n        /* \"#utility.yul\":1853:2581   */\n      pop\n      pop\n      pop\n      swap3\n      swap2\n      pop\n      pop\n      jump\t// out\n        /* \"#utility.yul\":2587:2686   */\n    tag_223:\n        /* \"#utility.yul\":2658:2679   */\n      tag_225\n        /* \"#utility.yul\":2673:2678   */\n      dup2\n        /* \"#utility.yul\":2658:2679   */\n      tag_226\n      jump\t// in\n    tag_225:\n        /* \"#utility.yul\":2653:2656   */\n      dup3\n        /* \"#utility.yul\":2646:2680   */\n      mstore\n        /* \"#utility.yul\":2636:2686   */\n      pop\n      pop\n      jump\t// out\n        /* \"#utility.yul\":2692:3058   */\n    tag_227:\n      0x00\n        /* \"#utility.yul\":2855:2922   */\n      tag_229\n        /* \"#utility.yul\":2919:2921   */\n      0x13\n        /* \"#utility.yul\":2914:2917   */\n      dup4\n        /* \"#utility.yul\":2855:2922   */\n      tag_230\n      jump\t// in\n    tag_229:\n        /* \"#utility.yul\":2848:2922   */\n      swap2\n      pop\n        /* \"#utility.yul\":2931:3024   */\n      tag_231\n        /* \"#utility.yul\":3020:3023   */\n      dup3\n        /* \"#utility.yul\":2931:3024   */\n      tag_232\n      jump\t// in\n    tag_231:\n        /* \"#utility.yul\":3049:3051   */\n      0x20\n        /* \"#utility.yul\":3044:3047   */\n      dup3\n        /* \"#utility.yul\":3040:3052   */\n      add\n        /* \"#utility.yul\":3033:3052   */\n      swap1\n      pop\n        /* \"#utility.yul\":2838:3058   */\n      swap2\n      swap1\n      pop\n      jump\t// out\n        /* \"#utility.yul\":3064:3430   */\n    tag_233:\n      0x00\n        /* \"#utility.yul\":3227:3294   */\n      tag_235\n        /* \"#utility.yul\":3291:3293   */\n      0x13\n        /* \"#utility.yul\":3286:3289   */\n      dup4\n        /* \"#utility.yul\":3227:3294   */\n      tag_230\n      jump\t// in\n    tag_235:\n        /* \"#utility.yul\":3220:3294   */\n      swap2\n      pop\n        /* \"#utility.yul\":3303:3396   */\n      tag_236\n        /* \"#utility.yul\":3392:3395   */\n      dup3\n        /* \"#utility.yul\":3303:3396   */\n      tag_237\n      jump\t// in\n    tag_236:\n        /* \"#utility.yul\":3421:3423   */\n      0x20\n        /* \"#utility.yul\":3416:3419   */\n      dup3\n        /* \"#utility.yul\":3412:3424   */\n      add\n        /* \"#utility.yul\":3405:3424   */\n      swap1\n      pop\n        /* \"#utility.yul\":3210:3430   */\n      swap2\n      swap1\n      pop\n      jump\t// out\n        /* \"#utility.yul\":3436:3802   */\n    tag_238:\n      0x00\n        /* \"#utility.yul\":3599:3666   */\n      tag_240\n        /* \"#utility.yul\":3663:3665   */\n      0x13\n        /* \"#utility.yul\":3658:3661   */\n      dup4\n        /* \"#utility.yul\":3599:3666   */\n      tag_230\n      jump\t// in\n    tag_240:\n        /* \"#utility.yul\":3592:3666   */\n      swap2\n      pop\n        /* \"#utility.yul\":3675:3768   */\n      tag_241\n        /* \"#utility.yul\":3764:3767   */\n      dup3\n        /* \"#utility.yul\":3675:3768   */\n      tag_242\n      jump\t// in\n    tag_241:\n        /* \"#utility.yul\":3793:3795   */\n      0x20\n        /* \"#utility.yul\":3788:3791   */\n      dup3\n        /* \"#utility.yul\":3784:3796   */\n      add\n        /* \"#utility.yul\":3777:3796   */\n      swap1\n      pop\n        /* \"#utility.yul\":3582:3802   */\n      swap2\n      swap1\n      pop\n      jump\t// out\n        /* \"#utility.yul\":3808:4174   */\n    tag_243:\n      0x00\n        /* \"#utility.yul\":3971:4038   */\n      tag_245\n        /* \"#utility.yul\":4035:4037   */\n      0x1d\n        /* \"#utility.yul\":4030:4033   */\n      dup4\n        /* \"#utility.yul\":3971:4038   */\n      tag_230\n      jump\t// in\n    tag_245:\n        /* \"#utility.yul\":3964:4038   */\n      swap2\n      pop\n        /* \"#utility.yul\":4047:4140   */\n      tag_246\n        /* \"#utility.yul\":4136:4139   */\n      dup3\n        /* \"#utility.yul\":4047:4140   */\n      tag_247\n      jump\t// in\n    tag_246:\n        /* \"#utility.yul\":4165:4167   */\n      0x20\n        /* \"#utility.yul\":4160:4163   */\n      dup3\n        /* \"#utility.yul\":4156:4168   */\n      add\n        /* \"#utility.yul\":4149:4168   */\n      swap1\n      pop\n        /* \"#utility.yul\":3954:4174   */\n      swap2\n      swap1\n      pop\n      jump\t// out\n        /* \"#utility.yul\":4180:4546   */\n    tag_248:\n      0x00\n        /* \"#utility.yul\":4343:4410   */\n      tag_250\n        /* \"#utility.yul\":4407:4409   */\n      0x18\n        /* \"#utility.yul\":4402:4405   */\n      dup4\n        /* \"#utility.yul\":4343:4410   */\n      tag_230\n      jump\t// in\n    tag_250:\n        /* \"#utility.yul\":4336:4410   */\n      swap2\n      pop\n        /* \"#utility.yul\":4419:4512   */\n      tag_251\n        /* \"#utility.yul\":4508:4511   */\n      dup3\n        /* \"#utility.yul\":4419:4512   */\n      tag_252\n      jump\t// in\n    tag_251:\n        /* \"#utility.yul\":4537:4539   */\n      0x20\n        /* \"#utility.yul\":4532:4535   */\n      dup3\n        /* \"#utility.yul\":4528:4540   */\n      add\n        /* \"#utility.yul\":4521:4540   */\n      swap1\n      pop\n        /* \"#utility.yul\":4326:4546   */\n      swap2\n      swap1\n      pop\n      jump\t// out\n        /* \"#utility.yul\":4552:4918   */\n    tag_253:\n      0x00\n        /* \"#utility.yul\":4715:4782   */\n      tag_255\n        /* \"#utility.yul\":4779:4781   */\n      0x21\n        /* \"#utility.yul\":4774:4777   */\n      dup4\n        /* \"#utility.yul\":4715:4782   */\n      tag_230\n      jump\t// in\n    tag_255:\n        /* \"#utility.yul\":4708:4782   */\n      swap2\n      pop\n        /* \"#utility.yul\":4791:4884   */\n      tag_256\n        /* \"#utility.yul\":4880:4883   */\n      dup3\n        /* \"#utility.yul\":4791:4884   */\n      tag_257\n      jump\t// in\n    tag_256:\n        /* \"#utility.yul\":4909:4911   */\n      0x40\n        /* \"#utility.yul\":4904:4907   */\n      dup3\n        /* \"#utility.yul\":4900:4912   */\n      add\n        /* \"#utility.yul\":4893:4912   */\n      swap1\n      pop\n        /* \"#utility.yul\":4698:4918   */\n      swap2\n      swap1\n      pop\n      jump\t// out\n        /* \"#utility.yul\":4924:5290   */\n    tag_258:\n      0x00\n        /* \"#utility.yul\":5087:5154   */\n      tag_260\n        /* \"#utility.yul\":5151:5153   */\n      0x1a\n        /* \"#utility.yul\":5146:5149   */\n      dup4\n        /* \"#utility.yul\":5087:5154   */\n      tag_230\n      jump\t// in\n    tag_260:\n        /* \"#utility.yul\":5080:5154   */\n      swap2\n      pop\n        /* \"#utility.yul\":5163:5256   */\n      tag_261\n        /* \"#utility.yul\":5252:5255   */\n      dup3\n        /* \"#utility.yul\":5163:5256   */\n      tag_262\n      jump\t// in\n    tag_261:\n        /* \"#utility.yul\":5281:5283   */\n      0x20\n        /* \"#utility.yul\":5276:5279   */\n      dup3\n        /* \"#utility.yul\":5272:5284   */\n      add\n        /* \"#utility.yul\":5265:5284   */\n      swap1\n      pop\n        /* \"#utility.yul\":5070:5290   */\n      swap2\n      swap1\n      pop\n      jump\t// out\n        /* \"#utility.yul\":5346:6182   */\n    tag_204:\n        /* \"#utility.yul\":5473:5477   */\n      0x80\n        /* \"#utility.yul\":5468:5471   */\n      dup3\n        /* \"#utility.yul\":5464:5478   */\n      add\n        /* \"#utility.yul\":5563:5567   */\n      0x00\n        /* \"#utility.yul\":5556:5561   */\n      dup3\n        /* \"#utility.yul\":5552:5568   */\n      add\n        /* \"#utility.yul\":5546:5569   */\n      mload\n        /* \"#utility.yul\":5582:5645   */\n      tag_264\n        /* \"#utility.yul\":5639:5643   */\n      0x00\n        /* \"#utility.yul\":5634:5637   */\n      dup6\n        /* \"#utility.yul\":5630:5644   */\n      add\n        /* \"#utility.yul\":5616:5628   */\n      dup3\n        /* \"#utility.yul\":5582:5645   */\n      tag_265\n      jump\t// in\n    tag_264:\n        /* \"#utility.yul\":5488:5655   */\n      pop\n        /* \"#utility.yul\":5738:5742   */\n      0x20\n        /* \"#utility.yul\":5731:5736   */\n      dup3\n        /* \"#utility.yul\":5727:5743   */\n      add\n        /* \"#utility.yul\":5721:5744   */\n      mload\n        /* \"#utility.yul\":5757:5820   */\n      tag_266\n        /* \"#utility.yul\":5814:5818   */\n      0x20\n        /* \"#utility.yul\":5809:5812   */\n      dup6\n        /* \"#utility.yul\":5805:5819   */\n      add\n        /* \"#utility.yul\":5791:5803   */\n      dup3\n        /* \"#utility.yul\":5757:5820   */\n      tag_265\n      jump\t// in\n    tag_266:\n        /* \"#utility.yul\":5665:5830   */\n      pop\n        /* \"#utility.yul\":5913:5917   */\n      0x40\n        /* \"#utility.yul\":5906:5911   */\n      dup3\n        /* \"#utility.yul\":5902:5918   */\n      add\n        /* \"#utility.yul\":5896:5919   */\n      mload\n        /* \"#utility.yul\":5932:5995   */\n      tag_267\n        /* \"#utility.yul\":5989:5993   */\n      0x40\n        /* \"#utility.yul\":5984:5987   */\n      dup6\n        /* \"#utility.yul\":5980:5994   */\n      add\n        /* \"#utility.yul\":5966:5978   */\n      dup3\n        /* \"#utility.yul\":5932:5995   */\n      tag_265\n      jump\t// in\n    tag_267:\n        /* \"#utility.yul\":5840:6005   */\n      pop\n        /* \"#utility.yul\":6089:6093   */\n      0x60\n        /* \"#utility.yul\":6082:6087   */\n      dup3\n        /* \"#utility.yul\":6078:6094   */\n      add\n        /* \"#utility.yul\":6072:6095   */\n      mload\n        /* \"#utility.yul\":6108:6165   */\n      tag_268\n        /* \"#utility.yul\":6159:6163   */\n      0x60\n        /* \"#utility.yul\":6154:6157   */\n      dup6\n        /* \"#utility.yul\":6150:6164   */\n      add\n        /* \"#utility.yul\":6136:6148   */\n      dup3\n        /* \"#utility.yul\":6108:6165   */\n      tag_223\n      jump\t// in\n    tag_268:\n        /* \"#utility.yul\":6015:6175   */\n      pop\n        /* \"#utility.yul\":5442:6182   */\n      pop\n      pop\n      pop\n      jump\t// out\n        /* \"#utility.yul\":6188:6296   */\n    tag_265:\n        /* \"#utility.yul\":6265:6289   */\n      tag_270\n        /* \"#utility.yul\":6283:6288   */\n      dup2\n        /* \"#utility.yul\":6265:6289   */\n      tag_271\n      jump\t// in\n    tag_270:\n        /* \"#utility.yul\":6260:6263   */\n      dup3\n        /* \"#utility.yul\":6253:6290   */\n      mstore\n        /* \"#utility.yul\":6243:6296   */\n      pop\n      pop\n      jump\t// out\n        /* \"#utility.yul\":6302:6420   */\n    tag_272:\n        /* \"#utility.yul\":6389:6413   */\n      tag_274\n        /* \"#utility.yul\":6407:6412   */\n      dup2\n        /* \"#utility.yul\":6389:6413   */\n      tag_271\n      jump\t// in\n    tag_274:\n        /* \"#utility.yul\":6384:6387   */\n      dup3\n        /* \"#utility.yul\":6377:6414   */\n      mstore\n        /* \"#utility.yul\":6367:6420   */\n      pop\n      pop\n      jump\t// out\n        /* \"#utility.yul\":6426:6648   */\n    tag_38:\n      0x00\n        /* \"#utility.yul\":6557:6559   */\n      0x20\n        /* \"#utility.yul\":6546:6555   */\n      dup3\n        /* \"#utility.yul\":6542:6560   */\n      add\n        /* \"#utility.yul\":6534:6560   */\n      swap1\n      pop\n        /* \"#utility.yul\":6570:6641   */\n      tag_276\n        /* \"#utility.yul\":6638:6639   */\n      0x00\n        /* \"#utility.yul\":6627:6636   */\n      dup4\n        /* \"#utility.yul\":6623:6640   */\n      add\n        /* \"#utility.yul\":6614:6620   */\n      dup5\n        /* \"#utility.yul\":6570:6641   */\n      tag_205\n      jump\t// in\n    tag_276:\n        /* \"#utility.yul\":6524:6648   */\n      swap3\n      swap2\n      pop\n      pop\n      jump\t// out\n        /* \"#utility.yul\":6654:7107   */\n    tag_18:\n      0x00\n        /* \"#utility.yul\":6875:6877   */\n      0x20\n        /* \"#utility.yul\":6864:6873   */\n      dup3\n        /* \"#utility.yul\":6860:6878   */\n      add\n        /* \"#utility.yul\":6852:6878   */\n      swap1\n      pop\n        /* \"#utility.yul\":6924:6933   */\n      dup2\n        /* \"#utility.yul\":6918:6922   */\n      dup2\n        /* \"#utility.yul\":6914:6934   */\n      sub\n        /* \"#utility.yul\":6910:6911   */\n      0x00\n        /* \"#utility.yul\":6899:6908   */\n      dup4\n        /* \"#utility.yul\":6895:6912   */\n      add\n        /* \"#utility.yul\":6888:6935   */\n      mstore\n        /* \"#utility.yul\":6952:7100   */\n      tag_278\n        /* \"#utility.yul\":7095:7099   */\n      dup2\n        /* \"#utility.yul\":7086:7092   */\n      dup5\n        /* \"#utility.yul\":6952:7100   */\n      tag_209\n      jump\t// in\n    tag_278:\n        /* \"#utility.yul\":6944:7100   */\n      swap1\n      pop\n        /* \"#utility.yul\":6842:7107   */\n      swap3\n      swap2\n      pop\n      pop\n      jump\t// out\n        /* \"#utility.yul\":7113:7532   */\n    tag_149:\n      0x00\n        /* \"#utility.yul\":7317:7319   */\n      0x20\n        /* \"#utility.yul\":7306:7315   */\n      dup3\n        /* \"#utility.yul\":7302:7320   */\n      add\n        /* \"#utility.yul\":7294:7320   */\n      swap1\n      pop\n        /* \"#utility.yul\":7366:7375   */\n      dup2\n        /* \"#utility.yul\":7360:7364   */\n      dup2\n        /* \"#utility.yul\":7356:7376   */\n      sub\n        /* \"#utility.yul\":7352:7353   */\n      0x00\n        /* \"#utility.yul\":7341:7350   */\n      dup4\n        /* \"#utility.yul\":7337:7354   */\n      add\n        /* \"#utility.yul\":7330:7377   */\n      mstore\n        /* \"#utility.yul\":7394:7525   */\n      tag_280\n        /* \"#utility.yul\":7520:7524   */\n      dup2\n        /* \"#utility.yul\":7394:7525   */\n      tag_227\n      jump\t// in\n    tag_280:\n        /* \"#utility.yul\":7386:7525   */\n      swap1\n      pop\n        /* \"#utility.yul\":7284:7532   */\n      swap2\n      swap1\n      pop\n      jump\t// out\n        /* \"#utility.yul\":7538:7957   */\n    tag_158:\n      0x00\n        /* \"#utility.yul\":7742:7744   */\n      0x20\n        /* \"#utility.yul\":7731:7740   */\n      dup3\n        /* \"#utility.yul\":7727:7745   */\n      add\n        /* \"#utility.yul\":7719:7745   */\n      swap1\n      pop\n        /* \"#utility.yul\":7791:7800   */\n      dup2\n        /* \"#utility.yul\":7785:7789   */\n      dup2\n        /* \"#utility.yul\":7781:7801   */\n      sub\n        /* \"#utility.yul\":7777:7778   */\n      0x00\n        /* \"#utility.yul\":7766:7775   */\n      dup4\n        /* \"#utility.yul\":7762:7779   */\n      add\n        /* \"#utility.yul\":7755:7802   */\n      mstore\n        /* \"#utility.yul\":7819:7950   */\n      tag_282\n        /* \"#utility.yul\":7945:7949   */\n      dup2\n        /* \"#utility.yul\":7819:7950   */\n      tag_233\n      jump\t// in\n    tag_282:\n        /* \"#utility.yul\":7811:7950   */\n      swap1\n      pop\n        /* \"#utility.yul\":7709:7957   */\n      swap2\n      swap1\n      pop\n      jump\t// out\n        /* \"#utility.yul\":7963:8382   */\n    tag_128:\n      0x00\n        /* \"#utility.yul\":8167:8169   */\n      0x20\n        /* \"#utility.yul\":8156:8165   */\n      dup3\n        /* \"#utility.yul\":8152:8170   */\n      add\n        /* \"#utility.yul\":8144:8170   */\n      swap1\n      pop\n        /* \"#utility.yul\":8216:8225   */\n      dup2\n        /* \"#utility.yul\":8210:8214   */\n      dup2\n        /* \"#utility.yul\":8206:8226   */\n      sub\n        /* \"#utility.yul\":8202:8203   */\n      0x00\n        /* \"#utility.yul\":8191:8200   */\n      dup4\n        /* \"#utility.yul\":8187:8204   */\n      add\n        /* \"#utility.yul\":8180:8227   */\n      mstore\n        /* \"#utility.yul\":8244:8375   */\n      tag_284\n        /* \"#utility.yul\":8370:8374   */\n      dup2\n        /* \"#utility.yul\":8244:8375   */\n      tag_238\n      jump\t// in\n    tag_284:\n        /* \"#utility.yul\":8236:8375   */\n      swap1\n      pop\n        /* \"#utility.yul\":8134:8382   */\n      swap2\n      swap1\n      pop\n      jump\t// out\n        /* \"#utility.yul\":8388:8807   */\n    tag_141:\n      0x00\n        /* \"#utility.yul\":8592:8594   */\n      0x20\n        /* \"#utility.yul\":8581:8590   */\n      dup3\n        /* \"#utility.yul\":8577:8595   */\n      add\n        /* \"#utility.yul\":8569:8595   */\n      swap1\n      pop\n        /* \"#utility.yul\":8641:8650   */\n      dup2\n        /* \"#utility.yul\":8635:8639   */\n      dup2\n        /* \"#utility.yul\":8631:8651   */\n      sub\n        /* \"#utility.yul\":8627:8628   */\n      0x00\n        /* \"#utility.yul\":8616:8625   */\n      dup4\n        /* \"#utility.yul\":8612:8629   */\n      add\n        /* \"#utility.yul\":8605:8652   */\n      mstore\n        /* \"#utility.yul\":8669:8800   */\n      tag_286\n        /* \"#utility.yul\":8795:8799   */\n      dup2\n        /* \"#utility.yul\":8669:8800   */\n      tag_243\n      jump\t// in\n    tag_286:\n        /* \"#utility.yul\":8661:8800   */\n      swap1\n      pop\n        /* \"#utility.yul\":8559:8807   */\n      swap2\n      swap1\n      pop\n      jump\t// out\n        /* \"#utility.yul\":8813:9232   */\n    tag_171:\n      0x00\n        /* \"#utility.yul\":9017:9019   */\n      0x20\n        /* \"#utility.yul\":9006:9015   */\n      dup3\n        /* \"#utility.yul\":9002:9020   */\n      add\n        /* \"#utility.yul\":8994:9020   */\n      swap1\n      pop\n        /* \"#utility.yul\":9066:9075   */\n      dup2\n        /* \"#utility.yul\":9060:9064   */\n      dup2\n        /* \"#utility.yul\":9056:9076   */\n      sub\n        /* \"#utility.yul\":9052:9053   */\n      0x00\n        /* \"#utility.yul\":9041:9050   */\n      dup4\n        /* \"#utility.yul\":9037:9054   */\n      add\n        /* \"#utility.yul\":9030:9077   */\n      mstore\n        /* \"#utility.yul\":9094:9225   */\n      tag_288\n        /* \"#utility.yul\":9220:9224   */\n      dup2\n        /* \"#utility.yul\":9094:9225   */\n      tag_248\n      jump\t// in\n    tag_288:\n        /* \"#utility.yul\":9086:9225   */\n      swap1\n      pop\n        /* \"#utility.yul\":8984:9232   */\n      swap2\n      swap1\n      pop\n      jump\t// out\n        /* \"#utility.yul\":9238:9657   */\n    tag_104:\n      0x00\n        /* \"#utility.yul\":9442:9444   */\n      0x20\n        /* \"#utility.yul\":9431:9440   */\n      dup3\n        /* \"#utility.yul\":9427:9445   */\n      add\n        /* \"#utility.yul\":9419:9445   */\n      swap1\n      pop\n        /* \"#utility.yul\":9491:9500   */\n      dup2\n        /* \"#utility.yul\":9485:9489   */\n      dup2\n        /* \"#utility.yul\":9481:9501   */\n      sub\n        /* \"#utility.yul\":9477:9478   */\n      0x00\n        /* \"#utility.yul\":9466:9475   */\n      dup4\n        /* \"#utility.yul\":9462:9479   */\n      add\n        /* \"#utility.yul\":9455:9502   */\n      mstore\n        /* \"#utility.yul\":9519:9650   */\n      tag_290\n        /* \"#utility.yul\":9645:9649   */\n      dup2\n        /* \"#utility.yul\":9519:9650   */\n      tag_253\n      jump\t// in\n    tag_290:\n        /* \"#utility.yul\":9511:9650   */\n      swap1\n      pop\n        /* \"#utility.yul\":9409:9657   */\n      swap2\n      swap1\n      pop\n      jump\t// out\n        /* \"#utility.yul\":9663:10082   */\n    tag_155:\n      0x00\n        /* \"#utility.yul\":9867:9869   */\n      0x20\n        /* \"#utility.yul\":9856:9865   */\n      dup3\n        /* \"#utility.yul\":9852:9870   */\n      add\n        /* \"#utility.yul\":9844:9870   */\n      swap1\n      pop\n        /* \"#utility.yul\":9916:9925   */\n      dup2\n        /* \"#utility.yul\":9910:9914   */\n      dup2\n        /* \"#utility.yul\":9906:9926   */\n      sub\n        /* \"#utility.yul\":9902:9903   */\n      0x00\n        /* \"#utility.yul\":9891:9900   */\n      dup4\n        /* \"#utility.yul\":9887:9904   */\n      add\n        /* \"#utility.yul\":9880:9927   */\n      mstore\n        /* \"#utility.yul\":9944:10075   */\n      tag_292\n        /* \"#utility.yul\":10070:10074   */\n      dup2\n        /* \"#utility.yul\":9944:10075   */\n      tag_258\n      jump\t// in\n    tag_292:\n        /* \"#utility.yul\":9936:10075   */\n      swap1\n      pop\n        /* \"#utility.yul\":9834:10082   */\n      swap2\n      swap1\n      pop\n      jump\t// out\n        /* \"#utility.yul\":10088:10310   */\n    tag_45:\n      0x00\n        /* \"#utility.yul\":10219:10221   */\n      0x20\n        /* \"#utility.yul\":10208:10217   */\n      dup3\n        /* \"#utility.yul\":10204:10222   */\n      add\n        /* \"#utility.yul\":10196:10222   */\n      swap1\n      pop\n        /* \"#utility.yul\":10232:10303   */\n      tag_294\n        /* \"#utility.yul\":10300:10301   */\n      0x00\n        /* \"#utility.yul\":10289:10298   */\n      dup4\n        /* \"#utility.yul\":10285:10302   */\n      add\n        /* \"#utility.yul\":10276:10282   */\n      dup5\n        /* \"#utility.yul\":10232:10303   */\n      tag_272\n      jump\t// in\n    tag_294:\n        /* \"#utility.yul\":10186:10310   */\n      swap3\n      swap2\n      pop\n      pop\n      jump\t// out\n        /* \"#utility.yul\":10316:10468   */\n    tag_216:\n      0x00\n        /* \"#utility.yul\":10426:10429   */\n      dup2\n        /* \"#utility.yul\":10418:10429   */\n      swap1\n      pop\n        /* \"#utility.yul\":10456:10460   */\n      0x20\n        /* \"#utility.yul\":10451:10454   */\n      dup3\n        /* \"#utility.yul\":10447:10461   */\n      add\n        /* \"#utility.yul\":10439:10461   */\n      swap1\n      pop\n        /* \"#utility.yul\":10408:10468   */\n      swap2\n      swap1\n      pop\n      jump\t// out\n        /* \"#utility.yul\":10474:10608   */\n    tag_212:\n      0x00\n        /* \"#utility.yul\":10595:10600   */\n      dup2\n        /* \"#utility.yul\":10589:10601   */\n      mload\n        /* \"#utility.yul\":10579:10601   */\n      swap1\n      pop\n        /* \"#utility.yul\":10568:10608   */\n      swap2\n      swap1\n      pop\n      jump\t// out\n        /* \"#utility.yul\":10614:10747   */\n    tag_222:\n      0x00\n        /* \"#utility.yul\":10736:10740   */\n      0x20\n        /* \"#utility.yul\":10731:10734   */\n      dup3\n        /* \"#utility.yul\":10727:10741   */\n      add\n        /* \"#utility.yul\":10719:10741   */\n      swap1\n      pop\n        /* \"#utility.yul\":10709:10747   */\n      swap2\n      swap1\n      pop\n      jump\t// out\n        /* \"#utility.yul\":10753:10957   */\n    tag_214:\n      0x00\n        /* \"#utility.yul\":10906:10912   */\n      dup3\n        /* \"#utility.yul\":10901:10904   */\n      dup3\n        /* \"#utility.yul\":10894:10913   */\n      mstore\n        /* \"#utility.yul\":10946:10950   */\n      0x20\n        /* \"#utility.yul\":10941:10944   */\n      dup3\n        /* \"#utility.yul\":10937:10951   */\n      add\n        /* \"#utility.yul\":10922:10951   */\n      swap1\n      pop\n        /* \"#utility.yul\":10884:10957   */\n      swap3\n      swap2\n      pop\n      pop\n      jump\t// out\n        /* \"#utility.yul\":10963:11132   */\n    tag_230:\n      0x00\n        /* \"#utility.yul\":11081:11087   */\n      dup3\n        /* \"#utility.yul\":11076:11079   */\n      dup3\n        /* \"#utility.yul\":11069:11088   */\n      mstore\n        /* \"#utility.yul\":11121:11125   */\n      0x20\n        /* \"#utility.yul\":11116:11119   */\n      dup3\n        /* \"#utility.yul\":11112:11126   */\n      add\n        /* \"#utility.yul\":11097:11126   */\n      swap1\n      pop\n        /* \"#utility.yul\":11059:11132   */\n      swap3\n      swap2\n      pop\n      pop\n      jump\t// out\n        /* \"#utility.yul\":11138:11323   */\n    tag_179:\n      0x00\n        /* \"#utility.yul\":11195:11215   */\n      tag_301\n        /* \"#utility.yul\":11213:11214   */\n      dup3\n        /* \"#utility.yul\":11195:11215   */\n      tag_271\n      jump\t// in\n    tag_301:\n        /* \"#utility.yul\":11190:11215   */\n      swap2\n      pop\n        /* \"#utility.yul\":11229:11249   */\n      tag_302\n        /* \"#utility.yul\":11247:11248   */\n      dup4\n        /* \"#utility.yul\":11229:11249   */\n      tag_271\n      jump\t// in\n    tag_302:\n        /* \"#utility.yul\":11224:11249   */\n      swap3\n      pop\n        /* \"#utility.yul\":11268:11269   */\n      dup3\n        /* \"#utility.yul\":11258:11260   */\n      tag_303\n      jumpi\n        /* \"#utility.yul\":11273:11291   */\n      tag_304\n      tag_305\n      jump\t// in\n    tag_304:\n        /* \"#utility.yul\":11258:11260   */\n    tag_303:\n        /* \"#utility.yul\":11315:11316   */\n      dup3\n        /* \"#utility.yul\":11312:11313   */\n      dup3\n        /* \"#utility.yul\":11308:11317   */\n      div\n        /* \"#utility.yul\":11303:11317   */\n      swap1\n      pop\n        /* \"#utility.yul\":11180:11323   */\n      swap3\n      swap2\n      pop\n      pop\n      jump\t// out\n        /* \"#utility.yul\":11329:11677   */\n    tag_177:\n      0x00\n        /* \"#utility.yul\":11392:11412   */\n      tag_307\n        /* \"#utility.yul\":11410:11411   */\n      dup3\n        /* \"#utility.yul\":11392:11412   */\n      tag_271\n      jump\t// in\n    tag_307:\n        /* \"#utility.yul\":11387:11412   */\n      swap2\n      pop\n        /* \"#utility.yul\":11426:11446   */\n      tag_308\n        /* \"#utility.yul\":11444:11445   */\n      dup4\n        /* \"#utility.yul\":11426:11446   */\n      tag_271\n      jump\t// in\n    tag_308:\n        /* \"#utility.yul\":11421:11446   */\n      swap3\n      pop\n        /* \"#utility.yul\":11614:11615   */\n      dup2\n        /* \"#utility.yul\":11546:11612   */\n      0xffffffffffffffffffffffffffffffffffffffffffffffffffffffffffffffff\n        /* \"#utility.yul\":11542:11616   */\n      div\n        /* \"#utility.yul\":11539:11540   */\n      dup4\n        /* \"#utility.yul\":11536:11617   */\n      gt\n        /* \"#utility.yul\":11531:11532   */\n      dup3\n        /* \"#utility.yul\":11524:11533   */\n      iszero\n        /* \"#utility.yul\":11517:11534   */\n      iszero\n        /* \"#utility.yul\":11513:11618   */\n      and\n        /* \"#utility.yul\":11510:11512   */\n      iszero\n      tag_309\n      jumpi\n        /* \"#utility.yul\":11621:11639   */\n      tag_310\n      tag_311\n      jump\t// in\n    tag_310:\n        /* \"#utility.yul\":11510:11512   */\n    tag_309:\n        /* \"#utility.yul\":11669:11670   */\n      dup3\n        /* \"#utility.yul\":11666:11667   */\n      dup3\n        /* \"#utility.yul\":11662:11671   */\n      mul\n        /* \"#utility.yul\":11651:11671   */\n      swap1\n      pop\n        /* \"#utility.yul\":11377:11677   */\n      swap3\n      swap2\n      pop\n      pop\n      jump\t// out\n        /* \"#utility.yul\":11683:11874   */\n    tag_181:\n      0x00\n        /* \"#utility.yul\":11743:11763   */\n      tag_313\n        /* \"#utility.yul\":11761:11762   */\n      dup3\n        /* \"#utility.yul\":11743:11763   */\n      tag_271\n      jump\t// in\n    tag_313:\n        /* \"#utility.yul\":11738:11763   */\n      swap2\n      pop\n        /* \"#utility.yul\":11777:11797   */\n      tag_314\n        /* \"#utility.yul\":11795:11796   */\n      dup4\n        /* \"#utility.yul\":11777:11797   */\n      tag_271\n      jump\t// in\n    tag_314:\n        /* \"#utility.yul\":11772:11797   */\n      swap3\n      pop\n        /* \"#utility.yul\":11816:11817   */\n      dup3\n        /* \"#utility.yul\":11813:11814   */\n      dup3\n        /* \"#utility.yul\":11810:11818   */\n      lt\n        /* \"#utility.yul\":11807:11809   */\n      iszero\n      tag_315\n      jumpi\n        /* \"#utility.yul\":11821:11839   */\n      tag_316\n      tag_311\n      jump\t// in\n    tag_316:\n        /* \"#utility.yul\":11807:11809   */\n    tag_315:\n        /* \"#utility.yul\":11866:11867   */\n      dup3\n        /* \"#utility.yul\":11863:11864   */\n      dup3\n        /* \"#utility.yul\":11859:11868   */\n      sub\n        /* \"#utility.yul\":11851:11868   */\n      swap1\n      pop\n        /* \"#utility.yul\":11728:11874   */\n      swap3\n      swap2\n      pop\n      pop\n      jump\t// out\n        /* \"#utility.yul\":11880:11976   */\n    tag_208:\n      0x00\n        /* \"#utility.yul\":11946:11970   */\n      tag_318\n        /* \"#utility.yul\":11964:11969   */\n      dup3\n        /* \"#utility.yul\":11946:11970   */\n      tag_319\n      jump\t// in\n    tag_318:\n        /* \"#utility.yul\":11935:11970   */\n      swap1\n      pop\n        /* \"#utility.yul\":11925:11976   */\n      swap2\n      swap1\n      pop\n      jump\t// out\n        /* \"#utility.yul\":11982:12072   */\n    tag_226:\n      0x00\n        /* \"#utility.yul\":12059:12064   */\n      dup2\n        /* \"#utility.yul\":12052:12065   */\n      iszero\n        /* \"#utility.yul\":12045:12066   */\n      iszero\n        /* \"#utility.yul\":12034:12066   */\n      swap1\n      pop\n        /* \"#utility.yul\":12024:12072   */\n      swap2\n      swap1\n      pop\n      jump\t// out\n        /* \"#utility.yul\":12078:12204   */\n    tag_319:\n      0x00\n        /* \"#utility.yul\":12155:12197   */\n      0xffffffffffffffffffffffffffffffffffffffff\n        /* \"#utility.yul\":12148:12153   */\n      dup3\n        /* \"#utility.yul\":12144:12198   */\n      and\n        /* \"#utility.yul\":12133:12198   */\n      swap1\n      pop\n        /* \"#utility.yul\":12123:12204   */\n      swap2\n      swap1\n      pop\n      jump\t// out\n        /* \"#utility.yul\":12210:12287   */\n    tag_271:\n      0x00\n        /* \"#utility.yul\":12276:12281   */\n      dup2\n        /* \"#utility.yul\":12265:12281   */\n      swap1\n      pop\n        /* \"#utility.yul\":12255:12287   */\n      swap2\n      swap1\n      pop\n      jump\t// out\n        /* \"#utility.yul\":12293:12526   */\n    tag_83:\n      0x00\n        /* \"#utility.yul\":12355:12379   */\n      tag_324\n        /* \"#utility.yul\":12373:12378   */\n      dup3\n        /* \"#utility.yul\":12355:12379   */\n      tag_271\n      jump\t// in\n    tag_324:\n        /* \"#utility.yul\":12346:12379   */\n      swap2\n      pop\n        /* \"#utility.yul\":12401:12467   */\n      0xffffffffffffffffffffffffffffffffffffffffffffffffffffffffffffffff\n        /* \"#utility.yul\":12394:12399   */\n      dup3\n        /* \"#utility.yul\":12391:12468   */\n      eq\n        /* \"#utility.yul\":12388:12390   */\n      iszero\n      tag_325\n      jumpi\n        /* \"#utility.yul\":12471:12489   */\n      tag_326\n      tag_311\n      jump\t// in\n    tag_326:\n        /* \"#utility.yul\":12388:12390   */\n    tag_325:\n        /* \"#utility.yul\":12518:12519   */\n      0x01\n        /* \"#utility.yul\":12511:12516   */\n      dup3\n        /* \"#utility.yul\":12507:12520   */\n      add\n        /* \"#utility.yul\":12500:12520   */\n      swap1\n      pop\n        /* \"#utility.yul\":12336:12526   */\n      swap2\n      swap1\n      pop\n      jump\t// out\n        /* \"#utility.yul\":12532:12712   */\n    tag_311:\n        /* \"#utility.yul\":12580:12657   */\n      0x4e487b7100000000000000000000000000000000000000000000000000000000\n        /* \"#utility.yul\":12577:12578   */\n      0x00\n        /* \"#utility.yul\":12570:12658   */\n      mstore\n        /* \"#utility.yul\":12677:12681   */\n      0x11\n        /* \"#utility.yul\":12674:12675   */\n      0x04\n        /* \"#utility.yul\":12667:12682   */\n      mstore\n        /* \"#utility.yul\":12701:12705   */\n      0x24\n        /* \"#utility.yul\":12698:12699   */\n      0x00\n        /* \"#utility.yul\":12691:12706   */\n      revert\n        /* \"#utility.yul\":12718:12898   */\n    tag_305:\n        /* \"#utility.yul\":12766:12843   */\n      0x4e487b7100000000000000000000000000000000000000000000000000000000\n        /* \"#utility.yul\":12763:12764   */\n      0x00\n        /* \"#utility.yul\":12756:12844   */\n      mstore\n        /* \"#utility.yul\":12863:12867   */\n      0x12\n        /* \"#utility.yul\":12860:12861   */\n      0x04\n        /* \"#utility.yul\":12853:12868   */\n      mstore\n        /* \"#utility.yul\":12887:12891   */\n      0x24\n        /* \"#utility.yul\":12884:12885   */\n      0x00\n        /* \"#utility.yul\":12877:12892   */\n      revert\n        /* \"#utility.yul\":12904:13073   */\n    tag_232:\n        /* \"#utility.yul\":13044:13065   */\n      0x746f6b656e2069736e277420746f2073656c6c00000000000000000000000000\n        /* \"#utility.yul\":13040:13041   */\n      0x00\n        /* \"#utility.yul\":13032:13038   */\n      dup3\n        /* \"#utility.yul\":13028:13042   */\n      add\n        /* \"#utility.yul\":13021:13066   */\n      mstore\n        /* \"#utility.yul\":13010:13073   */\n      pop\n      jump\t// out\n        /* \"#utility.yul\":13079:13248   */\n    tag_237:\n        /* \"#utility.yul\":13219:13240   */\n      0x746f6b656e20616c726561647920657869737400000000000000000000000000\n        /* \"#utility.yul\":13215:13216   */\n      0x00\n        /* \"#utility.yul\":13207:13213   */\n      dup3\n        /* \"#utility.yul\":13203:13217   */\n      add\n        /* \"#utility.yul\":13196:13241   */\n      mstore\n        /* \"#utility.yul\":13185:13248   */\n      pop\n      jump\t// out\n        /* \"#utility.yul\":13254:13423   */\n    tag_242:\n        /* \"#utility.yul\":13394:13415   */\n      0x746f6b656e20646f65736e277420657869737400000000000000000000000000\n        /* \"#utility.yul\":13390:13391   */\n      0x00\n        /* \"#utility.yul\":13382:13388   */\n      dup3\n        /* \"#utility.yul\":13378:13392   */\n      add\n        /* \"#utility.yul\":13371:13416   */\n      mstore\n        /* \"#utility.yul\":13360:13423   */\n      pop\n      jump\t// out\n        /* \"#utility.yul\":13429:13608   */\n    tag_247:\n        /* \"#utility.yul\":13569:13600   */\n      0x4f6e6c79206974656d2773206f776e65722063616e20646f2074686174000000\n        /* \"#utility.yul\":13565:13566   */\n      0x00\n        /* \"#utility.yul\":13557:13563   */\n      dup3\n        /* \"#utility.yul\":13553:13567   */\n      add\n        /* \"#utility.yul\":13546:13601   */\n      mstore\n        /* \"#utility.yul\":13535:13608   */\n      pop\n      jump\t// out\n        /* \"#utility.yul\":13614:13788   */\n    tag_252:\n        /* \"#utility.yul\":13754:13780   */\n      0x746f6b656e20697320616c726561647920746f2073656c6c0000000000000000\n        /* \"#utility.yul\":13750:13751   */\n      0x00\n        /* \"#utility.yul\":13742:13748   */\n      dup3\n        /* \"#utility.yul\":13738:13752   */\n      add\n        /* \"#utility.yul\":13731:13781   */\n      mstore\n        /* \"#utility.yul\":13720:13788   */\n      pop\n      jump\t// out\n        /* \"#utility.yul\":13794:14014   */\n    tag_257:\n        /* \"#utility.yul\":13934:13968   */\n      0x4f6e6c7920636f6e74726163742773206f776e65722063616e20646f20746861\n        /* \"#utility.yul\":13930:13931   */\n      0x00\n        /* \"#utility.yul\":13922:13928   */\n      dup3\n        /* \"#utility.yul\":13918:13932   */\n      add\n        /* \"#utility.yul\":13911:13969   */\n      mstore\n        /* \"#utility.yul\":14003:14006   */\n      0x7400000000000000000000000000000000000000000000000000000000000000\n        /* \"#utility.yul\":13998:14000   */\n      0x20\n        /* \"#utility.yul\":13990:13996   */\n      dup3\n        /* \"#utility.yul\":13986:14001   */\n      add\n        /* \"#utility.yul\":13979:14007   */\n      mstore\n        /* \"#utility.yul\":13900:14014   */\n      pop\n      jump\t// out\n        /* \"#utility.yul\":14020:14196   */\n    tag_262:\n        /* \"#utility.yul\":14160:14188   */\n      0x50726963652063616e6e6f7420626520657175616c20746f2030000000000000\n        /* \"#utility.yul\":14156:14157   */\n      0x00\n        /* \"#utility.yul\":14148:14154   */\n      dup3\n        /* \"#utility.yul\":14144:14158   */\n      add\n        /* \"#utility.yul\":14137:14189   */\n      mstore\n        /* \"#utility.yul\":14126:14196   */\n      pop\n      jump\t// out\n        /* \"#utility.yul\":14202:14324   */\n    tag_186:\n        /* \"#utility.yul\":14275:14299   */\n      tag_337\n        /* \"#utility.yul\":14293:14298   */\n      dup2\n        /* \"#utility.yul\":14275:14299   */\n      tag_208\n      jump\t// in\n    tag_337:\n        /* \"#utility.yul\":14268:14273   */\n      dup2\n        /* \"#utility.yul\":14265:14300   */\n      eq\n        /* \"#utility.yul\":14255:14257   */\n      tag_338\n      jumpi\n        /* \"#utility.yul\":14314:14315   */\n      0x00\n        /* \"#utility.yul\":14311:14312   */\n      dup1\n        /* \"#utility.yul\":14304:14316   */\n      revert\n        /* \"#utility.yul\":14255:14257   */\n    tag_338:\n        /* \"#utility.yul\":14245:14324   */\n      pop\n      jump\t// out\n        /* \"#utility.yul\":14330:14452   */\n    tag_190:\n        /* \"#utility.yul\":14403:14427   */\n      tag_340\n        /* \"#utility.yul\":14421:14426   */\n      dup2\n        /* \"#utility.yul\":14403:14427   */\n      tag_271\n      jump\t// in\n    tag_340:\n        /* \"#utility.yul\":14396:14401   */\n      dup2\n        /* \"#utility.yul\":14393:14428   */\n      eq\n        /* \"#utility.yul\":14383:14385   */\n      tag_341\n      jumpi\n        /* \"#utility.yul\":14442:14443   */\n      0x00\n        /* \"#utility.yul\":14439:14440   */\n      dup1\n        /* \"#utility.yul\":14432:14444   */\n      revert\n        /* \"#utility.yul\":14383:14385   */\n    tag_341:\n        /* \"#utility.yul\":14373:14452   */\n      pop\n      jump\t// out\n\n    auxdata: 0xa2646970667358221220ad0631584770a92d612a200f9c242a92e245b7f0e6d122a5939a8d8c3e00657c64736f6c63430008010033\n}\n",
				"bytecode": {
					"linkReferences": {},
					"object": "60806040523480156200001157600080fd5b5033600260006101000a81548173ffffffffffffffffffffffffffffffffffffffff021916908373ffffffffffffffffffffffffffffffffffffffff1602179055506040518060400160405280600b81526020017f4765656b20546f6b656e7300000000000000000000000000000000000000000081525060009080519060200190620000a0929190620000f5565b506040518060400160405280600581526020017f4745454b5400000000000000000000000000000000000000000000000000000081525060019080519060200190620000ee929190620000f5565b506200020a565b8280546200010390620001a5565b90600052602060002090601f01602090048101928262000127576000855562000173565b82601f106200014257805160ff191683800117855562000173565b8280016001018555821562000173579182015b828111156200017257825182559160200191906001019062000155565b5b50905062000182919062000186565b5090565b5b80821115620001a157600081600090555060010162000187565b5090565b60006002820490506001821680620001be57607f821691505b60208210811415620001d557620001d4620001db565b5b50919050565b7f4e487b7100000000000000000000000000000000000000000000000000000000600052602260045260246000fd5b611cf1806200021a6000396000f3fe60806040526004361061009c5760003560e01c806370a082311161006457806370a082311461019a57806391b6be9a146101d7578063a4964c33146101f3578063adae08dd1461021c578063c0f202ef14610259578063ea0ff14a146102825761009c565b8063073e74df146100a15780632165e65a146100cc57806329de6246146101095780634cad2ffc146101325780636352211e1461015d575b600080fd5b3480156100ad57600080fd5b506100b66102ad565b6040516100c39190611833565b60405180910390f35b3480156100d857600080fd5b506100f360048036038101906100ee91906115b7565b6104a0565b6040516101009190611833565b60405180910390f35b34801561011557600080fd5b50610130600480360381019061012b91906115b7565b610694565b005b34801561013e57600080fd5b5061014761072e565b6040516101549190611833565b60405180910390f35b34801561016957600080fd5b50610184600480360381019061017f91906115b7565b610960565b6040516101919190611818565b60405180910390f35b3480156101a657600080fd5b506101c160048036038101906101bc919061158e565b61099d565b6040516101ce9190611935565b60405180910390f35b6101f160048036038101906101ec91906115b7565b6109e6565b005b3480156101ff57600080fd5b5061021a600480360381019061021591906115b7565b610db8565b005b34801561022857600080fd5b50610243600480360381019061023e91906115e0565b611017565b6040516102509190611935565b60405180910390f35b34801561026557600080fd5b50610280600480360381019061027b91906115b7565b611294565b005b34801561028e57600080fd5b506102976114f2565b6040516102a49190611935565b60405180910390f35b606060008060045467ffffffffffffffff8111156102f4577f4e487b7100000000000000000000000000000000000000000000000000000000600052604160045260246000fd5b60405190808252806020026020018201604052801561032d57816020015b61031a61153a565b8152602001906001900390816103125790505b50905060005b60038054905081101561049757600115156003828154811061037e577f4e487b7100000000000000000000000000000000000000000000000000000000600052603260045260246000fd5b906000526020600020906004020160030160009054906101000a900460ff161515141561048457600381815481106103df577f4e487b7100000000000000000000000000000000000000000000000000000000600052603260045260246000fd5b90600052602060002090600402016040518060800160405290816000820154815260200160018201548152602001600282015481526020016003820160009054906101000a900460ff16151515158152505082848151811061046a577f4e487b7100000000000000000000000000000000000000000000000000000000600052603260045260246000fd5b6020026020010181905250828061048090611aa1565b9350505b808061048f90611aa1565b915050610333565b50809250505090565b6060600080600860008581526020019081526020016000205467ffffffffffffffff8111156104f8577f4e487b7100000000000000000000000000000000000000000000000000000000600052604160045260246000fd5b60405190808252806020026020018201604052801561053157816020015b61051e61153a565b8152602001906001900390816105165790505b50905060005b60038054905081101561068957846003828154811061057f577f4e487b7100000000000000000000000000000000000000000000000000000000600052603260045260246000fd5b906000526020600020906004020160020154141561067657600381815481106105d1577f4e487b7100000000000000000000000000000000000000000000000000000000600052603260045260246000fd5b90600052602060002090600402016040518060800160405290816000820154815260200160018201548152602001600282015481526020016003820160009054906101000a900460ff16151515158152505082848151811061065c577f4e487b7100000000000000000000000000000000000000000000000000000000600052603260045260246000fd5b6020026020010181905250828061067290611aa1565b9350505b808061068190611aa1565b915050610537565b508092505050919050565b600260009054906101000a900473ffffffffffffffffffffffffffffffffffffffff1673ffffffffffffffffffffffffffffffffffffffff163373ffffffffffffffffffffffffffffffffffffffff1614610724576040517f08c379a000000000000000000000000000000000000000000000000000000000815260040161071b906118f5565b60405180910390fd5b8060058190555050565b6060600080600760003373ffffffffffffffffffffffffffffffffffffffff1673ffffffffffffffffffffffffffffffffffffffff1681526020019081526020016000205467ffffffffffffffff8111156107b2577f4e487b7100000000000000000000000000000000000000000000000000000000600052604160045260246000fd5b6040519080825280602002602001820160405280156107eb57816020015b6107d861153a565b8152602001906001900390816107d05790505b50905060005b600380549050811015610957573373ffffffffffffffffffffffffffffffffffffffff166006600083815260200190815260200160002060009054906101000a900473ffffffffffffffffffffffffffffffffffffffff1673ffffffffffffffffffffffffffffffffffffffff161415610944576003818154811061089f577f4e487b7100000000000000000000000000000000000000000000000000000000600052603260045260246000fd5b90600052602060002090600402016040518060800160405290816000820154815260200160018201548152602001600282015481526020016003820160009054906101000a900460ff16151515158152505082848151811061092a577f4e487b7100000000000000000000000000000000000000000000000000000000600052603260045260246000fd5b6020026020010181905250828061094090611aa1565b9350505b808061094f90611aa1565b9150506107f1565b50809250505090565b60006006600083815260200190815260200160002060009054906101000a900473ffffffffffffffffffffffffffffffffffffffff169050919050565b6000600760008373ffffffffffffffffffffffffffffffffffffffff1673ffffffffffffffffffffffffffffffffffffffff168152602001908152602001600020549050919050565b60038181548110610a20577f4e487b7100000000000000000000000000000000000000000000000000000000600052603260045260246000fd5b9060005260206000209060040201600101543414610a3d57600080fd5b600073ffffffffffffffffffffffffffffffffffffffff166006600083815260200190815260200160002060009054906101000a900473ffffffffffffffffffffffffffffffffffffffff1673ffffffffffffffffffffffffffffffffffffffff161415610ae0576040517f08c379a0000000000000000000000000000000000000000000000000000000008152600401610ad790611895565b60405180910390fd5b60006006600083815260200190815260200160002060009054906101000a900473ffffffffffffffffffffffffffffffffffffffff169050600060038381548110610b54577f4e487b7100000000000000000000000000000000000000000000000000000000600052603260045260246000fd5b9060005260206000209060040201905060008160030160006101000a81548160ff021916908315150217905550336006600085815260200190815260200160002060006101000a81548173ffffffffffffffffffffffffffffffffffffffff021916908373ffffffffffffffffffffffffffffffffffffffff160217905550600760008373ffffffffffffffffffffffffffffffffffffffff1673ffffffffffffffffffffffffffffffffffffffff1681526020019081526020016000206000815480929190600190039190505550600760003373ffffffffffffffffffffffffffffffffffffffff1673ffffffffffffffffffffffffffffffffffffffff1681526020019081526020016000206000815480929190600101919050555060046000815480929190600190039190505550600080610c94346005546114fc565b8092508193505050600260009054906101000a900473ffffffffffffffffffffffffffffffffffffffff1673ffffffffffffffffffffffffffffffffffffffff166108fc839081150290604051600060405180830381858888f19350505050158015610d04573d6000803e3d6000fd5b508373ffffffffffffffffffffffffffffffffffffffff166108fc829081150290604051600060405180830381858888f19350505050158015610d4b573d6000803e3d6000fd5b503373ffffffffffffffffffffffffffffffffffffffff168473ffffffffffffffffffffffffffffffffffffffff167fddf252ad1be2c89b69c2b068fc378daa952ba7f163c4a11628f55a4df523b3ef87604051610da99190611935565b60405180910390a35050505050565b803373ffffffffffffffffffffffffffffffffffffffff166006600083815260200190815260200160002060009054906101000a900473ffffffffffffffffffffffffffffffffffffffff1673ffffffffffffffffffffffffffffffffffffffff1614610e5a576040517f08c379a0000000000000000000000000000000000000000000000000000000008152600401610e51906118b5565b60405180910390fd5b600073ffffffffffffffffffffffffffffffffffffffff166006600084815260200190815260200160002060009054906101000a900473ffffffffffffffffffffffffffffffffffffffff1673ffffffffffffffffffffffffffffffffffffffff161415610efd576040517f08c379a0000000000000000000000000000000000000000000000000000000008152600401610ef490611895565b60405180910390fd5b6001151560038381548110610f3b577f4e487b7100000000000000000000000000000000000000000000000000000000600052603260045260246000fd5b906000526020600020906004020160030160009054906101000a900460ff16151514610f9c576040517f08c379a0000000000000000000000000000000000000000000000000000000008152600401610f9390611855565b60405180910390fd5b600060038381548110610fd8577f4e487b7100000000000000000000000000000000000000000000000000000000600052603260045260246000fd5b906000526020600020906004020160030160006101000a81548160ff021916908315150217905550600460008154809291906001900391905055505050565b600080831161105b576040517f08c379a000000000000000000000000000000000000000000000000000000000815260040161105290611915565b60405180910390fd5b60006003805490509050600073ffffffffffffffffffffffffffffffffffffffff166006600083815260200190815260200160002060009054906101000a900473ffffffffffffffffffffffffffffffffffffffff1673ffffffffffffffffffffffffffffffffffffffff1614611107576040517f08c379a00000000000000000000000000000000000000000000000000000000081526004016110fe90611875565b60405180910390fd5b60405180608001604052808281526020018581526020018481526020016001151581525060038281548110611165577f4e487b7100000000000000000000000000000000000000000000000000000000600052603260045260246000fd5b906000526020600020906004020160008201518160000155602082015181600101556040820151816002015560608201518160030160006101000a81548160ff021916908315150217905550905050336006600083815260200190815260200160002060006101000a81548173ffffffffffffffffffffffffffffffffffffffff021916908373ffffffffffffffffffffffffffffffffffffffff160217905550600760003373ffffffffffffffffffffffffffffffffffffffff1673ffffffffffffffffffffffffffffffffffffffff1681526020019081526020016000206000815480929190600101919050555060086000848152602001908152602001600020600081548092919060010191905055506004600081548092919060010191905055508091505092915050565b803373ffffffffffffffffffffffffffffffffffffffff166006600083815260200190815260200160002060009054906101000a900473ffffffffffffffffffffffffffffffffffffffff1673ffffffffffffffffffffffffffffffffffffffff1614611336576040517f08c379a000000000000000000000000000000000000000000000000000000000815260040161132d906118b5565b60405180910390fd5b600073ffffffffffffffffffffffffffffffffffffffff166006600084815260200190815260200160002060009054906101000a900473ffffffffffffffffffffffffffffffffffffffff1673ffffffffffffffffffffffffffffffffffffffff1614156113d9576040517f08c379a00000000000000000000000000000000000000000000000000000000081526004016113d090611895565b60405180910390fd5b6000151560038381548110611417577f4e487b7100000000000000000000000000000000000000000000000000000000600052603260045260246000fd5b906000526020600020906004020160030160009054906101000a900460ff16151514611478576040517f08c379a000000000000000000000000000000000000000000000000000000000815260040161146f906118d5565b60405180910390fd5b6001600383815481106114b4577f4e487b7100000000000000000000000000000000000000000000000000000000600052603260045260246000fd5b906000526020600020906004020160030160006101000a81548160ff0219169083151502179055506004600081548092919060010191905055505050565b6000600554905090565b60008060006064858561150f91906119cb565b611519919061199a565b9050600081866115299190611a25565b905081819350935050509250929050565b60405180608001604052806000815260200160008152602001600081526020016000151581525090565b60008135905061157381611c8d565b92915050565b60008135905061158881611ca4565b92915050565b6000602082840312156115a057600080fd5b60006115ae84828501611564565b91505092915050565b6000602082840312156115c957600080fd5b60006115d784828501611579565b91505092915050565b600080604083850312156115f357600080fd5b600061160185828601611579565b925050602061161285828601611579565b9150509250929050565b600061162883836117a5565b60808301905092915050565b61163d81611a59565b82525050565b600061164e82611960565b6116588185611978565b935061166383611950565b8060005b8381101561169457815161167b888261161c565b97506116868361196b565b925050600181019050611667565b5085935050505092915050565b6116aa81611a6b565b82525050565b60006116bd601383611989565b91506116c882611b48565b602082019050919050565b60006116e0601383611989565b91506116eb82611b71565b602082019050919050565b6000611703601383611989565b915061170e82611b9a565b602082019050919050565b6000611726601d83611989565b915061173182611bc3565b602082019050919050565b6000611749601883611989565b915061175482611bec565b602082019050919050565b600061176c602183611989565b915061177782611c15565b604082019050919050565b600061178f601a83611989565b915061179a82611c64565b602082019050919050565b6080820160008201516117bb60008501826117fa565b5060208201516117ce60208501826117fa565b5060408201516117e160408501826117fa565b5060608201516117f460608501826116a1565b50505050565b61180381611a97565b82525050565b61181281611a97565b82525050565b600060208201905061182d6000830184611634565b92915050565b6000602082019050818103600083015261184d8184611643565b905092915050565b6000602082019050818103600083015261186e816116b0565b9050919050565b6000602082019050818103600083015261188e816116d3565b9050919050565b600060208201905081810360008301526118ae816116f6565b9050919050565b600060208201905081810360008301526118ce81611719565b9050919050565b600060208201905081810360008301526118ee8161173c565b9050919050565b6000602082019050818103600083015261190e8161175f565b9050919050565b6000602082019050818103600083015261192e81611782565b9050919050565b600060208201905061194a6000830184611809565b92915050565b6000819050602082019050919050565b600081519050919050565b6000602082019050919050565b600082825260208201905092915050565b600082825260208201905092915050565b60006119a582611a97565b91506119b083611a97565b9250826119c0576119bf611b19565b5b828204905092915050565b60006119d682611a97565b91506119e183611a97565b9250817fffffffffffffffffffffffffffffffffffffffffffffffffffffffffffffffff0483118215151615611a1a57611a19611aea565b5b828202905092915050565b6000611a3082611a97565b9150611a3b83611a97565b925082821015611a4e57611a4d611aea565b5b828203905092915050565b6000611a6482611a77565b9050919050565b60008115159050919050565b600073ffffffffffffffffffffffffffffffffffffffff82169050919050565b6000819050919050565b6000611aac82611a97565b91507fffffffffffffffffffffffffffffffffffffffffffffffffffffffffffffffff821415611adf57611ade611aea565b5b600182019050919050565b7f4e487b7100000000000000000000000000000000000000000000000000000000600052601160045260246000fd5b7f4e487b7100000000000000000000000000000000000000000000000000000000600052601260045260246000fd5b7f746f6b656e2069736e277420746f2073656c6c00000000000000000000000000600082015250565b7f746f6b656e20616c726561647920657869737400000000000000000000000000600082015250565b7f746f6b656e20646f65736e277420657869737400000000000000000000000000600082015250565b7f4f6e6c79206974656d2773206f776e65722063616e20646f2074686174000000600082015250565b7f746f6b656e20697320616c726561647920746f2073656c6c0000000000000000600082015250565b7f4f6e6c7920636f6e74726163742773206f776e65722063616e20646f2074686160008201527f7400000000000000000000000000000000000000000000000000000000000000602082015250565b7f50726963652063616e6e6f7420626520657175616c20746f2030000000000000600082015250565b611c9681611a59565b8114611ca157600080fd5b50565b611cad81611a97565b8114611cb857600080fd5b5056fea2646970667358221220ad0631584770a92d612a200f9c242a92e245b7f0e6d122a5939a8d8c3e00657c64736f6c63430008010033",
					"opcodes": "PUSH1 0x80 PUSH1 0x40 MSTORE CALLVALUE DUP1 ISZERO PUSH3 0x11 JUMPI PUSH1 0x0 DUP1 REVERT JUMPDEST POP CALLER PUSH1 0x2 PUSH1 0x0 PUSH2 0x100 EXP DUP2 SLOAD DUP2 PUSH20 0xFFFFFFFFFFFFFFFFFFFFFFFFFFFFFFFFFFFFFFFF MUL NOT AND SWAP1 DUP4 PUSH20 0xFFFFFFFFFFFFFFFFFFFFFFFFFFFFFFFFFFFFFFFF AND MUL OR SWAP1 SSTORE POP PUSH1 0x40 MLOAD DUP1 PUSH1 0x40 ADD PUSH1 0x40 MSTORE DUP1 PUSH1 0xB DUP2 MSTORE PUSH1 0x20 ADD PUSH32 0x4765656B20546F6B656E73000000000000000000000000000000000000000000 DUP2 MSTORE POP PUSH1 0x0 SWAP1 DUP1 MLOAD SWAP1 PUSH1 0x20 ADD SWAP1 PUSH3 0xA0 SWAP3 SWAP2 SWAP1 PUSH3 0xF5 JUMP JUMPDEST POP PUSH1 0x40 MLOAD DUP1 PUSH1 0x40 ADD PUSH1 0x40 MSTORE DUP1 PUSH1 0x5 DUP2 MSTORE PUSH1 0x20 ADD PUSH32 0x4745454B54000000000000000000000000000000000000000000000000000000 DUP2 MSTORE POP PUSH1 0x1 SWAP1 DUP1 MLOAD SWAP1 PUSH1 0x20 ADD SWAP1 PUSH3 0xEE SWAP3 SWAP2 SWAP1 PUSH3 0xF5 JUMP JUMPDEST POP PUSH3 0x20A JUMP JUMPDEST DUP3 DUP1 SLOAD PUSH3 0x103 SWAP1 PUSH3 0x1A5 JUMP JUMPDEST SWAP1 PUSH1 0x0 MSTORE PUSH1 0x20 PUSH1 0x0 KECCAK256 SWAP1 PUSH1 0x1F ADD PUSH1 0x20 SWAP1 DIV DUP2 ADD SWAP3 DUP3 PUSH3 0x127 JUMPI PUSH1 0x0 DUP6 SSTORE PUSH3 0x173 JUMP JUMPDEST DUP3 PUSH1 0x1F LT PUSH3 0x142 JUMPI DUP1 MLOAD PUSH1 0xFF NOT AND DUP4 DUP1 ADD OR DUP6 SSTORE PUSH3 0x173 JUMP JUMPDEST DUP3 DUP1 ADD PUSH1 0x1 ADD DUP6 SSTORE DUP3 ISZERO PUSH3 0x173 JUMPI SWAP2 DUP3 ADD JUMPDEST DUP3 DUP2 GT ISZERO PUSH3 0x172 JUMPI DUP3 MLOAD DUP3 SSTORE SWAP2 PUSH1 0x20 ADD SWAP2 SWAP1 PUSH1 0x1 ADD SWAP1 PUSH3 0x155 JUMP JUMPDEST JUMPDEST POP SWAP1 POP PUSH3 0x182 SWAP2 SWAP1 PUSH3 0x186 JUMP JUMPDEST POP SWAP1 JUMP JUMPDEST JUMPDEST DUP1 DUP3 GT ISZERO PUSH3 0x1A1 JUMPI PUSH1 0x0 DUP2 PUSH1 0x0 SWAP1 SSTORE POP PUSH1 0x1 ADD PUSH3 0x187 JUMP JUMPDEST POP SWAP1 JUMP JUMPDEST PUSH1 0x0 PUSH1 0x2 DUP3 DIV SWAP1 POP PUSH1 0x1 DUP3 AND DUP1 PUSH3 0x1BE JUMPI PUSH1 0x7F DUP3 AND SWAP2 POP JUMPDEST PUSH1 0x20 DUP3 LT DUP2 EQ ISZERO PUSH3 0x1D5 JUMPI PUSH3 0x1D4 PUSH3 0x1DB JUMP JUMPDEST JUMPDEST POP SWAP2 SWAP1 POP JUMP JUMPDEST PUSH32 0x4E487B7100000000000000000000000000000000000000000000000000000000 PUSH1 0x0 MSTORE PUSH1 0x22 PUSH1 0x4 MSTORE PUSH1 0x24 PUSH1 0x0 REVERT JUMPDEST PUSH2 0x1CF1 DUP1 PUSH3 0x21A PUSH1 0x0 CODECOPY PUSH1 0x0 RETURN INVALID PUSH1 0x80 PUSH1 0x40 MSTORE PUSH1 0x4 CALLDATASIZE LT PUSH2 0x9C JUMPI PUSH1 0x0 CALLDATALOAD PUSH1 0xE0 SHR DUP1 PUSH4 0x70A08231 GT PUSH2 0x64 JUMPI DUP1 PUSH4 0x70A08231 EQ PUSH2 0x19A JUMPI DUP1 PUSH4 0x91B6BE9A EQ PUSH2 0x1D7 JUMPI DUP1 PUSH4 0xA4964C33 EQ PUSH2 0x1F3 JUMPI DUP1 PUSH4 0xADAE08DD EQ PUSH2 0x21C JUMPI DUP1 PUSH4 0xC0F202EF EQ PUSH2 0x259 JUMPI DUP1 PUSH4 0xEA0FF14A EQ PUSH2 0x282 JUMPI PUSH2 0x9C JUMP JUMPDEST DUP1 PUSH4 0x73E74DF EQ PUSH2 0xA1 JUMPI DUP1 PUSH4 0x2165E65A EQ PUSH2 0xCC JUMPI DUP1 PUSH4 0x29DE6246 EQ PUSH2 0x109 JUMPI DUP1 PUSH4 0x4CAD2FFC EQ PUSH2 0x132 JUMPI DUP1 PUSH4 0x6352211E EQ PUSH2 0x15D JUMPI JUMPDEST PUSH1 0x0 DUP1 REVERT JUMPDEST CALLVALUE DUP1 ISZERO PUSH2 0xAD JUMPI PUSH1 0x0 DUP1 REVERT JUMPDEST POP PUSH2 0xB6 PUSH2 0x2AD JUMP JUMPDEST PUSH1 0x40 MLOAD PUSH2 0xC3 SWAP2 SWAP1 PUSH2 0x1833 JUMP JUMPDEST PUSH1 0x40 MLOAD DUP1 SWAP2 SUB SWAP1 RETURN JUMPDEST CALLVALUE DUP1 ISZERO PUSH2 0xD8 JUMPI PUSH1 0x0 DUP1 REVERT JUMPDEST POP PUSH2 0xF3 PUSH1 0x4 DUP1 CALLDATASIZE SUB DUP2 ADD SWAP1 PUSH2 0xEE SWAP2 SWAP1 PUSH2 0x15B7 JUMP JUMPDEST PUSH2 0x4A0 JUMP JUMPDEST PUSH1 0x40 MLOAD PUSH2 0x100 SWAP2 SWAP1 PUSH2 0x1833 JUMP JUMPDEST PUSH1 0x40 MLOAD DUP1 SWAP2 SUB SWAP1 RETURN JUMPDEST CALLVALUE DUP1 ISZERO PUSH2 0x115 JUMPI PUSH1 0x0 DUP1 REVERT JUMPDEST POP PUSH2 0x130 PUSH1 0x4 DUP1 CALLDATASIZE SUB DUP2 ADD SWAP1 PUSH2 0x12B SWAP2 SWAP1 PUSH2 0x15B7 JUMP JUMPDEST PUSH2 0x694 JUMP JUMPDEST STOP JUMPDEST CALLVALUE DUP1 ISZERO PUSH2 0x13E JUMPI PUSH1 0x0 DUP1 REVERT JUMPDEST POP PUSH2 0x147 PUSH2 0x72E JUMP JUMPDEST PUSH1 0x40 MLOAD PUSH2 0x154 SWAP2 SWAP1 PUSH2 0x1833 JUMP JUMPDEST PUSH1 0x40 MLOAD DUP1 SWAP2 SUB SWAP1 RETURN JUMPDEST CALLVALUE DUP1 ISZERO PUSH2 0x169 JUMPI PUSH1 0x0 DUP1 REVERT JUMPDEST POP PUSH2 0x184 PUSH1 0x4 DUP1 CALLDATASIZE SUB DUP2 ADD SWAP1 PUSH2 0x17F SWAP2 SWAP1 PUSH2 0x15B7 JUMP JUMPDEST PUSH2 0x960 JUMP JUMPDEST PUSH1 0x40 MLOAD PUSH2 0x191 SWAP2 SWAP1 PUSH2 0x1818 JUMP JUMPDEST PUSH1 0x40 MLOAD DUP1 SWAP2 SUB SWAP1 RETURN JUMPDEST CALLVALUE DUP1 ISZERO PUSH2 0x1A6 JUMPI PUSH1 0x0 DUP1 REVERT JUMPDEST POP PUSH2 0x1C1 PUSH1 0x4 DUP1 CALLDATASIZE SUB DUP2 ADD SWAP1 PUSH2 0x1BC SWAP2 SWAP1 PUSH2 0x158E JUMP JUMPDEST PUSH2 0x99D JUMP JUMPDEST PUSH1 0x40 MLOAD PUSH2 0x1CE SWAP2 SWAP1 PUSH2 0x1935 JUMP JUMPDEST PUSH1 0x40 MLOAD DUP1 SWAP2 SUB SWAP1 RETURN JUMPDEST PUSH2 0x1F1 PUSH1 0x4 DUP1 CALLDATASIZE SUB DUP2 ADD SWAP1 PUSH2 0x1EC SWAP2 SWAP1 PUSH2 0x15B7 JUMP JUMPDEST PUSH2 0x9E6 JUMP JUMPDEST STOP JUMPDEST CALLVALUE DUP1 ISZERO PUSH2 0x1FF JUMPI PUSH1 0x0 DUP1 REVERT JUMPDEST POP PUSH2 0x21A PUSH1 0x4 DUP1 CALLDATASIZE SUB DUP2 ADD SWAP1 PUSH2 0x215 SWAP2 SWAP1 PUSH2 0x15B7 JUMP JUMPDEST PUSH2 0xDB8 JUMP JUMPDEST STOP JUMPDEST CALLVALUE DUP1 ISZERO PUSH2 0x228 JUMPI PUSH1 0x0 DUP1 REVERT JUMPDEST POP PUSH2 0x243 PUSH1 0x4 DUP1 CALLDATASIZE SUB DUP2 ADD SWAP1 PUSH2 0x23E SWAP2 SWAP1 PUSH2 0x15E0 JUMP JUMPDEST PUSH2 0x1017 JUMP JUMPDEST PUSH1 0x40 MLOAD PUSH2 0x250 SWAP2 SWAP1 PUSH2 0x1935 JUMP JUMPDEST PUSH1 0x40 MLOAD DUP1 SWAP2 SUB SWAP1 RETURN JUMPDEST CALLVALUE DUP1 ISZERO PUSH2 0x265 JUMPI PUSH1 0x0 DUP1 REVERT JUMPDEST POP PUSH2 0x280 PUSH1 0x4 DUP1 CALLDATASIZE SUB DUP2 ADD SWAP1 PUSH2 0x27B SWAP2 SWAP1 PUSH2 0x15B7 JUMP JUMPDEST PUSH2 0x1294 JUMP JUMPDEST STOP JUMPDEST CALLVALUE DUP1 ISZERO PUSH2 0x28E JUMPI PUSH1 0x0 DUP1 REVERT JUMPDEST POP PUSH2 0x297 PUSH2 0x14F2 JUMP JUMPDEST PUSH1 0x40 MLOAD PUSH2 0x2A4 SWAP2 SWAP1 PUSH2 0x1935 JUMP JUMPDEST PUSH1 0x40 MLOAD DUP1 SWAP2 SUB SWAP1 RETURN JUMPDEST PUSH1 0x60 PUSH1 0x0 DUP1 PUSH1 0x4 SLOAD PUSH8 0xFFFFFFFFFFFFFFFF DUP2 GT ISZERO PUSH2 0x2F4 JUMPI PUSH32 0x4E487B7100000000000000000000000000000000000000000000000000000000 PUSH1 0x0 MSTORE PUSH1 0x41 PUSH1 0x4 MSTORE PUSH1 0x24 PUSH1 0x0 REVERT JUMPDEST PUSH1 0x40 MLOAD SWAP1 DUP1 DUP3 MSTORE DUP1 PUSH1 0x20 MUL PUSH1 0x20 ADD DUP3 ADD PUSH1 0x40 MSTORE DUP1 ISZERO PUSH2 0x32D JUMPI DUP2 PUSH1 0x20 ADD JUMPDEST PUSH2 0x31A PUSH2 0x153A JUMP JUMPDEST DUP2 MSTORE PUSH1 0x20 ADD SWAP1 PUSH1 0x1 SWAP1 SUB SWAP1 DUP2 PUSH2 0x312 JUMPI SWAP1 POP JUMPDEST POP SWAP1 POP PUSH1 0x0 JUMPDEST PUSH1 0x3 DUP1 SLOAD SWAP1 POP DUP2 LT ISZERO PUSH2 0x497 JUMPI PUSH1 0x1 ISZERO ISZERO PUSH1 0x3 DUP3 DUP2 SLOAD DUP2 LT PUSH2 0x37E JUMPI PUSH32 0x4E487B7100000000000000000000000000000000000000000000000000000000 PUSH1 0x0 MSTORE PUSH1 0x32 PUSH1 0x4 MSTORE PUSH1 0x24 PUSH1 0x0 REVERT JUMPDEST SWAP1 PUSH1 0x0 MSTORE PUSH1 0x20 PUSH1 0x0 KECCAK256 SWAP1 PUSH1 0x4 MUL ADD PUSH1 0x3 ADD PUSH1 0x0 SWAP1 SLOAD SWAP1 PUSH2 0x100 EXP SWAP1 DIV PUSH1 0xFF AND ISZERO ISZERO EQ ISZERO PUSH2 0x484 JUMPI PUSH1 0x3 DUP2 DUP2 SLOAD DUP2 LT PUSH2 0x3DF JUMPI PUSH32 0x4E487B7100000000000000000000000000000000000000000000000000000000 PUSH1 0x0 MSTORE PUSH1 0x32 PUSH1 0x4 MSTORE PUSH1 0x24 PUSH1 0x0 REVERT JUMPDEST SWAP1 PUSH1 0x0 MSTORE PUSH1 0x20 PUSH1 0x0 KECCAK256 SWAP1 PUSH1 0x4 MUL ADD PUSH1 0x40 MLOAD DUP1 PUSH1 0x80 ADD PUSH1 0x40 MSTORE SWAP1 DUP2 PUSH1 0x0 DUP3 ADD SLOAD DUP2 MSTORE PUSH1 0x20 ADD PUSH1 0x1 DUP3 ADD SLOAD DUP2 MSTORE PUSH1 0x20 ADD PUSH1 0x2 DUP3 ADD SLOAD DUP2 MSTORE PUSH1 0x20 ADD PUSH1 0x3 DUP3 ADD PUSH1 0x0 SWAP1 SLOAD SWAP1 PUSH2 0x100 EXP SWAP1 DIV PUSH1 0xFF AND ISZERO ISZERO ISZERO ISZERO DUP2 MSTORE POP POP DUP3 DUP5 DUP2 MLOAD DUP2 LT PUSH2 0x46A JUMPI PUSH32 0x4E487B7100000000000000000000000000000000000000000000000000000000 PUSH1 0x0 MSTORE PUSH1 0x32 PUSH1 0x4 MSTORE PUSH1 0x24 PUSH1 0x0 REVERT JUMPDEST PUSH1 0x20 MUL PUSH1 0x20 ADD ADD DUP2 SWAP1 MSTORE POP DUP3 DUP1 PUSH2 0x480 SWAP1 PUSH2 0x1AA1 JUMP JUMPDEST SWAP4 POP POP JUMPDEST DUP1 DUP1 PUSH2 0x48F SWAP1 PUSH2 0x1AA1 JUMP JUMPDEST SWAP2 POP POP PUSH2 0x333 JUMP JUMPDEST POP DUP1 SWAP3 POP POP POP SWAP1 JUMP JUMPDEST PUSH1 0x60 PUSH1 0x0 DUP1 PUSH1 0x8 PUSH1 0x0 DUP6 DUP2 MSTORE PUSH1 0x20 ADD SWAP1 DUP2 MSTORE PUSH1 0x20 ADD PUSH1 0x0 KECCAK256 SLOAD PUSH8 0xFFFFFFFFFFFFFFFF DUP2 GT ISZERO PUSH2 0x4F8 JUMPI PUSH32 0x4E487B7100000000000000000000000000000000000000000000000000000000 PUSH1 0x0 MSTORE PUSH1 0x41 PUSH1 0x4 MSTORE PUSH1 0x24 PUSH1 0x0 REVERT JUMPDEST PUSH1 0x40 MLOAD SWAP1 DUP1 DUP3 MSTORE DUP1 PUSH1 0x20 MUL PUSH1 0x20 ADD DUP3 ADD PUSH1 0x40 MSTORE DUP1 ISZERO PUSH2 0x531 JUMPI DUP2 PUSH1 0x20 ADD JUMPDEST PUSH2 0x51E PUSH2 0x153A JUMP JUMPDEST DUP2 MSTORE PUSH1 0x20 ADD SWAP1 PUSH1 0x1 SWAP1 SUB SWAP1 DUP2 PUSH2 0x516 JUMPI SWAP1 POP JUMPDEST POP SWAP1 POP PUSH1 0x0 JUMPDEST PUSH1 0x3 DUP1 SLOAD SWAP1 POP DUP2 LT ISZERO PUSH2 0x689 JUMPI DUP5 PUSH1 0x3 DUP3 DUP2 SLOAD DUP2 LT PUSH2 0x57F JUMPI PUSH32 0x4E487B7100000000000000000000000000000000000000000000000000000000 PUSH1 0x0 MSTORE PUSH1 0x32 PUSH1 0x4 MSTORE PUSH1 0x24 PUSH1 0x0 REVERT JUMPDEST SWAP1 PUSH1 0x0 MSTORE PUSH1 0x20 PUSH1 0x0 KECCAK256 SWAP1 PUSH1 0x4 MUL ADD PUSH1 0x2 ADD SLOAD EQ ISZERO PUSH2 0x676 JUMPI PUSH1 0x3 DUP2 DUP2 SLOAD DUP2 LT PUSH2 0x5D1 JUMPI PUSH32 0x4E487B7100000000000000000000000000000000000000000000000000000000 PUSH1 0x0 MSTORE PUSH1 0x32 PUSH1 0x4 MSTORE PUSH1 0x24 PUSH1 0x0 REVERT JUMPDEST SWAP1 PUSH1 0x0 MSTORE PUSH1 0x20 PUSH1 0x0 KECCAK256 SWAP1 PUSH1 0x4 MUL ADD PUSH1 0x40 MLOAD DUP1 PUSH1 0x80 ADD PUSH1 0x40 MSTORE SWAP1 DUP2 PUSH1 0x0 DUP3 ADD SLOAD DUP2 MSTORE PUSH1 0x20 ADD PUSH1 0x1 DUP3 ADD SLOAD DUP2 MSTORE PUSH1 0x20 ADD PUSH1 0x2 DUP3 ADD SLOAD DUP2 MSTORE PUSH1 0x20 ADD PUSH1 0x3 DUP3 ADD PUSH1 0x0 SWAP1 SLOAD SWAP1 PUSH2 0x100 EXP SWAP1 DIV PUSH1 0xFF AND ISZERO ISZERO ISZERO ISZERO DUP2 MSTORE POP POP DUP3 DUP5 DUP2 MLOAD DUP2 LT PUSH2 0x65C JUMPI PUSH32 0x4E487B7100000000000000000000000000000000000000000000000000000000 PUSH1 0x0 MSTORE PUSH1 0x32 PUSH1 0x4 MSTORE PUSH1 0x24 PUSH1 0x0 REVERT JUMPDEST PUSH1 0x20 MUL PUSH1 0x20 ADD ADD DUP2 SWAP1 MSTORE POP DUP3 DUP1 PUSH2 0x672 SWAP1 PUSH2 0x1AA1 JUMP JUMPDEST SWAP4 POP POP JUMPDEST DUP1 DUP1 PUSH2 0x681 SWAP1 PUSH2 0x1AA1 JUMP JUMPDEST SWAP2 POP POP PUSH2 0x537 JUMP JUMPDEST POP DUP1 SWAP3 POP POP POP SWAP2 SWAP1 POP JUMP JUMPDEST PUSH1 0x2 PUSH1 0x0 SWAP1 SLOAD SWAP1 PUSH2 0x100 EXP SWAP1 DIV PUSH20 0xFFFFFFFFFFFFFFFFFFFFFFFFFFFFFFFFFFFFFFFF AND PUSH20 0xFFFFFFFFFFFFFFFFFFFFFFFFFFFFFFFFFFFFFFFF AND CALLER PUSH20 0xFFFFFFFFFFFFFFFFFFFFFFFFFFFFFFFFFFFFFFFF AND EQ PUSH2 0x724 JUMPI PUSH1 0x40 MLOAD PUSH32 0x8C379A000000000000000000000000000000000000000000000000000000000 DUP2 MSTORE PUSH1 0x4 ADD PUSH2 0x71B SWAP1 PUSH2 0x18F5 JUMP JUMPDEST PUSH1 0x40 MLOAD DUP1 SWAP2 SUB SWAP1 REVERT JUMPDEST DUP1 PUSH1 0x5 DUP2 SWAP1 SSTORE POP POP JUMP JUMPDEST PUSH1 0x60 PUSH1 0x0 DUP1 PUSH1 0x7 PUSH1 0x0 CALLER PUSH20 0xFFFFFFFFFFFFFFFFFFFFFFFFFFFFFFFFFFFFFFFF AND PUSH20 0xFFFFFFFFFFFFFFFFFFFFFFFFFFFFFFFFFFFFFFFF AND DUP2 MSTORE PUSH1 0x20 ADD SWAP1 DUP2 MSTORE PUSH1 0x20 ADD PUSH1 0x0 KECCAK256 SLOAD PUSH8 0xFFFFFFFFFFFFFFFF DUP2 GT ISZERO PUSH2 0x7B2 JUMPI PUSH32 0x4E487B7100000000000000000000000000000000000000000000000000000000 PUSH1 0x0 MSTORE PUSH1 0x41 PUSH1 0x4 MSTORE PUSH1 0x24 PUSH1 0x0 REVERT JUMPDEST PUSH1 0x40 MLOAD SWAP1 DUP1 DUP3 MSTORE DUP1 PUSH1 0x20 MUL PUSH1 0x20 ADD DUP3 ADD PUSH1 0x40 MSTORE DUP1 ISZERO PUSH2 0x7EB JUMPI DUP2 PUSH1 0x20 ADD JUMPDEST PUSH2 0x7D8 PUSH2 0x153A JUMP JUMPDEST DUP2 MSTORE PUSH1 0x20 ADD SWAP1 PUSH1 0x1 SWAP1 SUB SWAP1 DUP2 PUSH2 0x7D0 JUMPI SWAP1 POP JUMPDEST POP SWAP1 POP PUSH1 0x0 JUMPDEST PUSH1 0x3 DUP1 SLOAD SWAP1 POP DUP2 LT ISZERO PUSH2 0x957 JUMPI CALLER PUSH20 0xFFFFFFFFFFFFFFFFFFFFFFFFFFFFFFFFFFFFFFFF AND PUSH1 0x6 PUSH1 0x0 DUP4 DUP2 MSTORE PUSH1 0x20 ADD SWAP1 DUP2 MSTORE PUSH1 0x20 ADD PUSH1 0x0 KECCAK256 PUSH1 0x0 SWAP1 SLOAD SWAP1 PUSH2 0x100 EXP SWAP1 DIV PUSH20 0xFFFFFFFFFFFFFFFFFFFFFFFFFFFFFFFFFFFFFFFF AND PUSH20 0xFFFFFFFFFFFFFFFFFFFFFFFFFFFFFFFFFFFFFFFF AND EQ ISZERO PUSH2 0x944 JUMPI PUSH1 0x3 DUP2 DUP2 SLOAD DUP2 LT PUSH2 0x89F JUMPI PUSH32 0x4E487B7100000000000000000000000000000000000000000000000000000000 PUSH1 0x0 MSTORE PUSH1 0x32 PUSH1 0x4 MSTORE PUSH1 0x24 PUSH1 0x0 REVERT JUMPDEST SWAP1 PUSH1 0x0 MSTORE PUSH1 0x20 PUSH1 0x0 KECCAK256 SWAP1 PUSH1 0x4 MUL ADD PUSH1 0x40 MLOAD DUP1 PUSH1 0x80 ADD PUSH1 0x40 MSTORE SWAP1 DUP2 PUSH1 0x0 DUP3 ADD SLOAD DUP2 MSTORE PUSH1 0x20 ADD PUSH1 0x1 DUP3 ADD SLOAD DUP2 MSTORE PUSH1 0x20 ADD PUSH1 0x2 DUP3 ADD SLOAD DUP2 MSTORE PUSH1 0x20 ADD PUSH1 0x3 DUP3 ADD PUSH1 0x0 SWAP1 SLOAD SWAP1 PUSH2 0x100 EXP SWAP1 DIV PUSH1 0xFF AND ISZERO ISZERO ISZERO ISZERO DUP2 MSTORE POP POP DUP3 DUP5 DUP2 MLOAD DUP2 LT PUSH2 0x92A JUMPI PUSH32 0x4E487B7100000000000000000000000000000000000000000000000000000000 PUSH1 0x0 MSTORE PUSH1 0x32 PUSH1 0x4 MSTORE PUSH1 0x24 PUSH1 0x0 REVERT JUMPDEST PUSH1 0x20 MUL PUSH1 0x20 ADD ADD DUP2 SWAP1 MSTORE POP DUP3 DUP1 PUSH2 0x940 SWAP1 PUSH2 0x1AA1 JUMP JUMPDEST SWAP4 POP POP JUMPDEST DUP1 DUP1 PUSH2 0x94F SWAP1 PUSH2 0x1AA1 JUMP JUMPDEST SWAP2 POP POP PUSH2 0x7F1 JUMP JUMPDEST POP DUP1 SWAP3 POP POP POP SWAP1 JUMP JUMPDEST PUSH1 0x0 PUSH1 0x6 PUSH1 0x0 DUP4 DUP2 MSTORE PUSH1 0x20 ADD SWAP1 DUP2 MSTORE PUSH1 0x20 ADD PUSH1 0x0 KECCAK256 PUSH1 0x0 SWAP1 SLOAD SWAP1 PUSH2 0x100 EXP SWAP1 DIV PUSH20 0xFFFFFFFFFFFFFFFFFFFFFFFFFFFFFFFFFFFFFFFF AND SWAP1 POP SWAP2 SWAP1 POP JUMP JUMPDEST PUSH1 0x0 PUSH1 0x7 PUSH1 0x0 DUP4 PUSH20 0xFFFFFFFFFFFFFFFFFFFFFFFFFFFFFFFFFFFFFFFF AND PUSH20 0xFFFFFFFFFFFFFFFFFFFFFFFFFFFFFFFFFFFFFFFF AND DUP2 MSTORE PUSH1 0x20 ADD SWAP1 DUP2 MSTORE PUSH1 0x20 ADD PUSH1 0x0 KECCAK256 SLOAD SWAP1 POP SWAP2 SWAP1 POP JUMP JUMPDEST PUSH1 0x3 DUP2 DUP2 SLOAD DUP2 LT PUSH2 0xA20 JUMPI PUSH32 0x4E487B7100000000000000000000000000000000000000000000000000000000 PUSH1 0x0 MSTORE PUSH1 0x32 PUSH1 0x4 MSTORE PUSH1 0x24 PUSH1 0x0 REVERT JUMPDEST SWAP1 PUSH1 0x0 MSTORE PUSH1 0x20 PUSH1 0x0 KECCAK256 SWAP1 PUSH1 0x4 MUL ADD PUSH1 0x1 ADD SLOAD CALLVALUE EQ PUSH2 0xA3D JUMPI PUSH1 0x0 DUP1 REVERT JUMPDEST PUSH1 0x0 PUSH20 0xFFFFFFFFFFFFFFFFFFFFFFFFFFFFFFFFFFFFFFFF AND PUSH1 0x6 PUSH1 0x0 DUP4 DUP2 MSTORE PUSH1 0x20 ADD SWAP1 DUP2 MSTORE PUSH1 0x20 ADD PUSH1 0x0 KECCAK256 PUSH1 0x0 SWAP1 SLOAD SWAP1 PUSH2 0x100 EXP SWAP1 DIV PUSH20 0xFFFFFFFFFFFFFFFFFFFFFFFFFFFFFFFFFFFFFFFF AND PUSH20 0xFFFFFFFFFFFFFFFFFFFFFFFFFFFFFFFFFFFFFFFF AND EQ ISZERO PUSH2 0xAE0 JUMPI PUSH1 0x40 MLOAD PUSH32 0x8C379A000000000000000000000000000000000000000000000000000000000 DUP2 MSTORE PUSH1 0x4 ADD PUSH2 0xAD7 SWAP1 PUSH2 0x1895 JUMP JUMPDEST PUSH1 0x40 MLOAD DUP1 SWAP2 SUB SWAP1 REVERT JUMPDEST PUSH1 0x0 PUSH1 0x6 PUSH1 0x0 DUP4 DUP2 MSTORE PUSH1 0x20 ADD SWAP1 DUP2 MSTORE PUSH1 0x20 ADD PUSH1 0x0 KECCAK256 PUSH1 0x0 SWAP1 SLOAD SWAP1 PUSH2 0x100 EXP SWAP1 DIV PUSH20 0xFFFFFFFFFFFFFFFFFFFFFFFFFFFFFFFFFFFFFFFF AND SWAP1 POP PUSH1 0x0 PUSH1 0x3 DUP4 DUP2 SLOAD DUP2 LT PUSH2 0xB54 JUMPI PUSH32 0x4E487B7100000000000000000000000000000000000000000000000000000000 PUSH1 0x0 MSTORE PUSH1 0x32 PUSH1 0x4 MSTORE PUSH1 0x24 PUSH1 0x0 REVERT JUMPDEST SWAP1 PUSH1 0x0 MSTORE PUSH1 0x20 PUSH1 0x0 KECCAK256 SWAP1 PUSH1 0x4 MUL ADD SWAP1 POP PUSH1 0x0 DUP2 PUSH1 0x3 ADD PUSH1 0x0 PUSH2 0x100 EXP DUP2 SLOAD DUP2 PUSH1 0xFF MUL NOT AND SWAP1 DUP4 ISZERO ISZERO MUL OR SWAP1 SSTORE POP CALLER PUSH1 0x6 PUSH1 0x0 DUP6 DUP2 MSTORE PUSH1 0x20 ADD SWAP1 DUP2 MSTORE PUSH1 0x20 ADD PUSH1 0x0 KECCAK256 PUSH1 0x0 PUSH2 0x100 EXP DUP2 SLOAD DUP2 PUSH20 0xFFFFFFFFFFFFFFFFFFFFFFFFFFFFFFFFFFFFFFFF MUL NOT AND SWAP1 DUP4 PUSH20 0xFFFFFFFFFFFFFFFFFFFFFFFFFFFFFFFFFFFFFFFF AND MUL OR SWAP1 SSTORE POP PUSH1 0x7 PUSH1 0x0 DUP4 PUSH20 0xFFFFFFFFFFFFFFFFFFFFFFFFFFFFFFFFFFFFFFFF AND PUSH20 0xFFFFFFFFFFFFFFFFFFFFFFFFFFFFFFFFFFFFFFFF AND DUP2 MSTORE PUSH1 0x20 ADD SWAP1 DUP2 MSTORE PUSH1 0x20 ADD PUSH1 0x0 KECCAK256 PUSH1 0x0 DUP2 SLOAD DUP1 SWAP3 SWAP2 SWAP1 PUSH1 0x1 SWAP1 SUB SWAP2 SWAP1 POP SSTORE POP PUSH1 0x7 PUSH1 0x0 CALLER PUSH20 0xFFFFFFFFFFFFFFFFFFFFFFFFFFFFFFFFFFFFFFFF AND PUSH20 0xFFFFFFFFFFFFFFFFFFFFFFFFFFFFFFFFFFFFFFFF AND DUP2 MSTORE PUSH1 0x20 ADD SWAP1 DUP2 MSTORE PUSH1 0x20 ADD PUSH1 0x0 KECCAK256 PUSH1 0x0 DUP2 SLOAD DUP1 SWAP3 SWAP2 SWAP1 PUSH1 0x1 ADD SWAP2 SWAP1 POP SSTORE POP PUSH1 0x4 PUSH1 0x0 DUP2 SLOAD DUP1 SWAP3 SWAP2 SWAP1 PUSH1 0x1 SWAP1 SUB SWAP2 SWAP1 POP SSTORE POP PUSH1 0x0 DUP1 PUSH2 0xC94 CALLVALUE PUSH1 0x5 SLOAD PUSH2 0x14FC JUMP JUMPDEST DUP1 SWAP3 POP DUP2 SWAP4 POP POP POP PUSH1 0x2 PUSH1 0x0 SWAP1 SLOAD SWAP1 PUSH2 0x100 EXP SWAP1 DIV PUSH20 0xFFFFFFFFFFFFFFFFFFFFFFFFFFFFFFFFFFFFFFFF AND PUSH20 0xFFFFFFFFFFFFFFFFFFFFFFFFFFFFFFFFFFFFFFFF AND PUSH2 0x8FC DUP4 SWAP1 DUP2 ISZERO MUL SWAP1 PUSH1 0x40 MLOAD PUSH1 0x0 PUSH1 0x40 MLOAD DUP1 DUP4 SUB DUP2 DUP6 DUP9 DUP9 CALL SWAP4 POP POP POP POP ISZERO DUP1 ISZERO PUSH2 0xD04 JUMPI RETURNDATASIZE PUSH1 0x0 DUP1 RETURNDATACOPY RETURNDATASIZE PUSH1 0x0 REVERT JUMPDEST POP DUP4 PUSH20 0xFFFFFFFFFFFFFFFFFFFFFFFFFFFFFFFFFFFFFFFF AND PUSH2 0x8FC DUP3 SWAP1 DUP2 ISZERO MUL SWAP1 PUSH1 0x40 MLOAD PUSH1 0x0 PUSH1 0x40 MLOAD DUP1 DUP4 SUB DUP2 DUP6 DUP9 DUP9 CALL SWAP4 POP POP POP POP ISZERO DUP1 ISZERO PUSH2 0xD4B JUMPI RETURNDATASIZE PUSH1 0x0 DUP1 RETURNDATACOPY RETURNDATASIZE PUSH1 0x0 REVERT JUMPDEST POP CALLER PUSH20 0xFFFFFFFFFFFFFFFFFFFFFFFFFFFFFFFFFFFFFFFF AND DUP5 PUSH20 0xFFFFFFFFFFFFFFFFFFFFFFFFFFFFFFFFFFFFFFFF AND PUSH32 0xDDF252AD1BE2C89B69C2B068FC378DAA952BA7F163C4A11628F55A4DF523B3EF DUP8 PUSH1 0x40 MLOAD PUSH2 0xDA9 SWAP2 SWAP1 PUSH2 0x1935 JUMP JUMPDEST PUSH1 0x40 MLOAD DUP1 SWAP2 SUB SWAP1 LOG3 POP POP POP POP POP JUMP JUMPDEST DUP1 CALLER PUSH20 0xFFFFFFFFFFFFFFFFFFFFFFFFFFFFFFFFFFFFFFFF AND PUSH1 0x6 PUSH1 0x0 DUP4 DUP2 MSTORE PUSH1 0x20 ADD SWAP1 DUP2 MSTORE PUSH1 0x20 ADD PUSH1 0x0 KECCAK256 PUSH1 0x0 SWAP1 SLOAD SWAP1 PUSH2 0x100 EXP SWAP1 DIV PUSH20 0xFFFFFFFFFFFFFFFFFFFFFFFFFFFFFFFFFFFFFFFF AND PUSH20 0xFFFFFFFFFFFFFFFFFFFFFFFFFFFFFFFFFFFFFFFF AND EQ PUSH2 0xE5A JUMPI PUSH1 0x40 MLOAD PUSH32 0x8C379A000000000000000000000000000000000000000000000000000000000 DUP2 MSTORE PUSH1 0x4 ADD PUSH2 0xE51 SWAP1 PUSH2 0x18B5 JUMP JUMPDEST PUSH1 0x40 MLOAD DUP1 SWAP2 SUB SWAP1 REVERT JUMPDEST PUSH1 0x0 PUSH20 0xFFFFFFFFFFFFFFFFFFFFFFFFFFFFFFFFFFFFFFFF AND PUSH1 0x6 PUSH1 0x0 DUP5 DUP2 MSTORE PUSH1 0x20 ADD SWAP1 DUP2 MSTORE PUSH1 0x20 ADD PUSH1 0x0 KECCAK256 PUSH1 0x0 SWAP1 SLOAD SWAP1 PUSH2 0x100 EXP SWAP1 DIV PUSH20 0xFFFFFFFFFFFFFFFFFFFFFFFFFFFFFFFFFFFFFFFF AND PUSH20 0xFFFFFFFFFFFFFFFFFFFFFFFFFFFFFFFFFFFFFFFF AND EQ ISZERO PUSH2 0xEFD JUMPI PUSH1 0x40 MLOAD PUSH32 0x8C379A000000000000000000000000000000000000000000000000000000000 DUP2 MSTORE PUSH1 0x4 ADD PUSH2 0xEF4 SWAP1 PUSH2 0x1895 JUMP JUMPDEST PUSH1 0x40 MLOAD DUP1 SWAP2 SUB SWAP1 REVERT JUMPDEST PUSH1 0x1 ISZERO ISZERO PUSH1 0x3 DUP4 DUP2 SLOAD DUP2 LT PUSH2 0xF3B JUMPI PUSH32 0x4E487B7100000000000000000000000000000000000000000000000000000000 PUSH1 0x0 MSTORE PUSH1 0x32 PUSH1 0x4 MSTORE PUSH1 0x24 PUSH1 0x0 REVERT JUMPDEST SWAP1 PUSH1 0x0 MSTORE PUSH1 0x20 PUSH1 0x0 KECCAK256 SWAP1 PUSH1 0x4 MUL ADD PUSH1 0x3 ADD PUSH1 0x0 SWAP1 SLOAD SWAP1 PUSH2 0x100 EXP SWAP1 DIV PUSH1 0xFF AND ISZERO ISZERO EQ PUSH2 0xF9C JUMPI PUSH1 0x40 MLOAD PUSH32 0x8C379A000000000000000000000000000000000000000000000000000000000 DUP2 MSTORE PUSH1 0x4 ADD PUSH2 0xF93 SWAP1 PUSH2 0x1855 JUMP JUMPDEST PUSH1 0x40 MLOAD DUP1 SWAP2 SUB SWAP1 REVERT JUMPDEST PUSH1 0x0 PUSH1 0x3 DUP4 DUP2 SLOAD DUP2 LT PUSH2 0xFD8 JUMPI PUSH32 0x4E487B7100000000000000000000000000000000000000000000000000000000 PUSH1 0x0 MSTORE PUSH1 0x32 PUSH1 0x4 MSTORE PUSH1 0x24 PUSH1 0x0 REVERT JUMPDEST SWAP1 PUSH1 0x0 MSTORE PUSH1 0x20 PUSH1 0x0 KECCAK256 SWAP1 PUSH1 0x4 MUL ADD PUSH1 0x3 ADD PUSH1 0x0 PUSH2 0x100 EXP DUP2 SLOAD DUP2 PUSH1 0xFF MUL NOT AND SWAP1 DUP4 ISZERO ISZERO MUL OR SWAP1 SSTORE POP PUSH1 0x4 PUSH1 0x0 DUP2 SLOAD DUP1 SWAP3 SWAP2 SWAP1 PUSH1 0x1 SWAP1 SUB SWAP2 SWAP1 POP SSTORE POP POP POP JUMP JUMPDEST PUSH1 0x0 DUP1 DUP4 GT PUSH2 0x105B JUMPI PUSH1 0x40 MLOAD PUSH32 0x8C379A000000000000000000000000000000000000000000000000000000000 DUP2 MSTORE PUSH1 0x4 ADD PUSH2 0x1052 SWAP1 PUSH2 0x1915 JUMP JUMPDEST PUSH1 0x40 MLOAD DUP1 SWAP2 SUB SWAP1 REVERT JUMPDEST PUSH1 0x0 PUSH1 0x3 DUP1 SLOAD SWAP1 POP SWAP1 POP PUSH1 0x0 PUSH20 0xFFFFFFFFFFFFFFFFFFFFFFFFFFFFFFFFFFFFFFFF AND PUSH1 0x6 PUSH1 0x0 DUP4 DUP2 MSTORE PUSH1 0x20 ADD SWAP1 DUP2 MSTORE PUSH1 0x20 ADD PUSH1 0x0 KECCAK256 PUSH1 0x0 SWAP1 SLOAD SWAP1 PUSH2 0x100 EXP SWAP1 DIV PUSH20 0xFFFFFFFFFFFFFFFFFFFFFFFFFFFFFFFFFFFFFFFF AND PUSH20 0xFFFFFFFFFFFFFFFFFFFFFFFFFFFFFFFFFFFFFFFF AND EQ PUSH2 0x1107 JUMPI PUSH1 0x40 MLOAD PUSH32 0x8C379A000000000000000000000000000000000000000000000000000000000 DUP2 MSTORE PUSH1 0x4 ADD PUSH2 0x10FE SWAP1 PUSH2 0x1875 JUMP JUMPDEST PUSH1 0x40 MLOAD DUP1 SWAP2 SUB SWAP1 REVERT JUMPDEST PUSH1 0x40 MLOAD DUP1 PUSH1 0x80 ADD PUSH1 0x40 MSTORE DUP1 DUP3 DUP2 MSTORE PUSH1 0x20 ADD DUP6 DUP2 MSTORE PUSH1 0x20 ADD DUP5 DUP2 MSTORE PUSH1 0x20 ADD PUSH1 0x1 ISZERO ISZERO DUP2 MSTORE POP PUSH1 0x3 DUP3 DUP2 SLOAD DUP2 LT PUSH2 0x1165 JUMPI PUSH32 0x4E487B7100000000000000000000000000000000000000000000000000000000 PUSH1 0x0 MSTORE PUSH1 0x32 PUSH1 0x4 MSTORE PUSH1 0x24 PUSH1 0x0 REVERT JUMPDEST SWAP1 PUSH1 0x0 MSTORE PUSH1 0x20 PUSH1 0x0 KECCAK256 SWAP1 PUSH1 0x4 MUL ADD PUSH1 0x0 DUP3 ADD MLOAD DUP2 PUSH1 0x0 ADD SSTORE PUSH1 0x20 DUP3 ADD MLOAD DUP2 PUSH1 0x1 ADD SSTORE PUSH1 0x40 DUP3 ADD MLOAD DUP2 PUSH1 0x2 ADD SSTORE PUSH1 0x60 DUP3 ADD MLOAD DUP2 PUSH1 0x3 ADD PUSH1 0x0 PUSH2 0x100 EXP DUP2 SLOAD DUP2 PUSH1 0xFF MUL NOT AND SWAP1 DUP4 ISZERO ISZERO MUL OR SWAP1 SSTORE POP SWAP1 POP POP CALLER PUSH1 0x6 PUSH1 0x0 DUP4 DUP2 MSTORE PUSH1 0x20 ADD SWAP1 DUP2 MSTORE PUSH1 0x20 ADD PUSH1 0x0 KECCAK256 PUSH1 0x0 PUSH2 0x100 EXP DUP2 SLOAD DUP2 PUSH20 0xFFFFFFFFFFFFFFFFFFFFFFFFFFFFFFFFFFFFFFFF MUL NOT AND SWAP1 DUP4 PUSH20 0xFFFFFFFFFFFFFFFFFFFFFFFFFFFFFFFFFFFFFFFF AND MUL OR SWAP1 SSTORE POP PUSH1 0x7 PUSH1 0x0 CALLER PUSH20 0xFFFFFFFFFFFFFFFFFFFFFFFFFFFFFFFFFFFFFFFF AND PUSH20 0xFFFFFFFFFFFFFFFFFFFFFFFFFFFFFFFFFFFFFFFF AND DUP2 MSTORE PUSH1 0x20 ADD SWAP1 DUP2 MSTORE PUSH1 0x20 ADD PUSH1 0x0 KECCAK256 PUSH1 0x0 DUP2 SLOAD DUP1 SWAP3 SWAP2 SWAP1 PUSH1 0x1 ADD SWAP2 SWAP1 POP SSTORE POP PUSH1 0x8 PUSH1 0x0 DUP5 DUP2 MSTORE PUSH1 0x20 ADD SWAP1 DUP2 MSTORE PUSH1 0x20 ADD PUSH1 0x0 KECCAK256 PUSH1 0x0 DUP2 SLOAD DUP1 SWAP3 SWAP2 SWAP1 PUSH1 0x1 ADD SWAP2 SWAP1 POP SSTORE POP PUSH1 0x4 PUSH1 0x0 DUP2 SLOAD DUP1 SWAP3 SWAP2 SWAP1 PUSH1 0x1 ADD SWAP2 SWAP1 POP SSTORE POP DUP1 SWAP2 POP POP SWAP3 SWAP2 POP POP JUMP JUMPDEST DUP1 CALLER PUSH20 0xFFFFFFFFFFFFFFFFFFFFFFFFFFFFFFFFFFFFFFFF AND PUSH1 0x6 PUSH1 0x0 DUP4 DUP2 MSTORE PUSH1 0x20 ADD SWAP1 DUP2 MSTORE PUSH1 0x20 ADD PUSH1 0x0 KECCAK256 PUSH1 0x0 SWAP1 SLOAD SWAP1 PUSH2 0x100 EXP SWAP1 DIV PUSH20 0xFFFFFFFFFFFFFFFFFFFFFFFFFFFFFFFFFFFFFFFF AND PUSH20 0xFFFFFFFFFFFFFFFFFFFFFFFFFFFFFFFFFFFFFFFF AND EQ PUSH2 0x1336 JUMPI PUSH1 0x40 MLOAD PUSH32 0x8C379A000000000000000000000000000000000000000000000000000000000 DUP2 MSTORE PUSH1 0x4 ADD PUSH2 0x132D SWAP1 PUSH2 0x18B5 JUMP JUMPDEST PUSH1 0x40 MLOAD DUP1 SWAP2 SUB SWAP1 REVERT JUMPDEST PUSH1 0x0 PUSH20 0xFFFFFFFFFFFFFFFFFFFFFFFFFFFFFFFFFFFFFFFF AND PUSH1 0x6 PUSH1 0x0 DUP5 DUP2 MSTORE PUSH1 0x20 ADD SWAP1 DUP2 MSTORE PUSH1 0x20 ADD PUSH1 0x0 KECCAK256 PUSH1 0x0 SWAP1 SLOAD SWAP1 PUSH2 0x100 EXP SWAP1 DIV PUSH20 0xFFFFFFFFFFFFFFFFFFFFFFFFFFFFFFFFFFFFFFFF AND PUSH20 0xFFFFFFFFFFFFFFFFFFFFFFFFFFFFFFFFFFFFFFFF AND EQ ISZERO PUSH2 0x13D9 JUMPI PUSH1 0x40 MLOAD PUSH32 0x8C379A000000000000000000000000000000000000000000000000000000000 DUP2 MSTORE PUSH1 0x4 ADD PUSH2 0x13D0 SWAP1 PUSH2 0x1895 JUMP JUMPDEST PUSH1 0x40 MLOAD DUP1 SWAP2 SUB SWAP1 REVERT JUMPDEST PUSH1 0x0 ISZERO ISZERO PUSH1 0x3 DUP4 DUP2 SLOAD DUP2 LT PUSH2 0x1417 JUMPI PUSH32 0x4E487B7100000000000000000000000000000000000000000000000000000000 PUSH1 0x0 MSTORE PUSH1 0x32 PUSH1 0x4 MSTORE PUSH1 0x24 PUSH1 0x0 REVERT JUMPDEST SWAP1 PUSH1 0x0 MSTORE PUSH1 0x20 PUSH1 0x0 KECCAK256 SWAP1 PUSH1 0x4 MUL ADD PUSH1 0x3 ADD PUSH1 0x0 SWAP1 SLOAD SWAP1 PUSH2 0x100 EXP SWAP1 DIV PUSH1 0xFF AND ISZERO ISZERO EQ PUSH2 0x1478 JUMPI PUSH1 0x40 MLOAD PUSH32 0x8C379A000000000000000000000000000000000000000000000000000000000 DUP2 MSTORE PUSH1 0x4 ADD PUSH2 0x146F SWAP1 PUSH2 0x18D5 JUMP JUMPDEST PUSH1 0x40 MLOAD DUP1 SWAP2 SUB SWAP1 REVERT JUMPDEST PUSH1 0x1 PUSH1 0x3 DUP4 DUP2 SLOAD DUP2 LT PUSH2 0x14B4 JUMPI PUSH32 0x4E487B7100000000000000000000000000000000000000000000000000000000 PUSH1 0x0 MSTORE PUSH1 0x32 PUSH1 0x4 MSTORE PUSH1 0x24 PUSH1 0x0 REVERT JUMPDEST SWAP1 PUSH1 0x0 MSTORE PUSH1 0x20 PUSH1 0x0 KECCAK256 SWAP1 PUSH1 0x4 MUL ADD PUSH1 0x3 ADD PUSH1 0x0 PUSH2 0x100 EXP DUP2 SLOAD DUP2 PUSH1 0xFF MUL NOT AND SWAP1 DUP4 ISZERO ISZERO MUL OR SWAP1 SSTORE POP PUSH1 0x4 PUSH1 0x0 DUP2 SLOAD DUP1 SWAP3 SWAP2 SWAP1 PUSH1 0x1 ADD SWAP2 SWAP1 POP SSTORE POP POP POP JUMP JUMPDEST PUSH1 0x0 PUSH1 0x5 SLOAD SWAP1 POP SWAP1 JUMP JUMPDEST PUSH1 0x0 DUP1 PUSH1 0x0 PUSH1 0x64 DUP6 DUP6 PUSH2 0x150F SWAP2 SWAP1 PUSH2 0x19CB JUMP JUMPDEST PUSH2 0x1519 SWAP2 SWAP1 PUSH2 0x199A JUMP JUMPDEST SWAP1 POP PUSH1 0x0 DUP2 DUP7 PUSH2 0x1529 SWAP2 SWAP1 PUSH2 0x1A25 JUMP JUMPDEST SWAP1 POP DUP2 DUP2 SWAP4 POP SWAP4 POP POP POP SWAP3 POP SWAP3 SWAP1 POP JUMP JUMPDEST PUSH1 0x40 MLOAD DUP1 PUSH1 0x80 ADD PUSH1 0x40 MSTORE DUP1 PUSH1 0x0 DUP2 MSTORE PUSH1 0x20 ADD PUSH1 0x0 DUP2 MSTORE PUSH1 0x20 ADD PUSH1 0x0 DUP2 MSTORE PUSH1 0x20 ADD PUSH1 0x0 ISZERO ISZERO DUP2 MSTORE POP SWAP1 JUMP JUMPDEST PUSH1 0x0 DUP2 CALLDATALOAD SWAP1 POP PUSH2 0x1573 DUP2 PUSH2 0x1C8D JUMP JUMPDEST SWAP3 SWAP2 POP POP JUMP JUMPDEST PUSH1 0x0 DUP2 CALLDATALOAD SWAP1 POP PUSH2 0x1588 DUP2 PUSH2 0x1CA4 JUMP JUMPDEST SWAP3 SWAP2 POP POP JUMP JUMPDEST PUSH1 0x0 PUSH1 0x20 DUP3 DUP5 SUB SLT ISZERO PUSH2 0x15A0 JUMPI PUSH1 0x0 DUP1 REVERT JUMPDEST PUSH1 0x0 PUSH2 0x15AE DUP5 DUP3 DUP6 ADD PUSH2 0x1564 JUMP JUMPDEST SWAP2 POP POP SWAP3 SWAP2 POP POP JUMP JUMPDEST PUSH1 0x0 PUSH1 0x20 DUP3 DUP5 SUB SLT ISZERO PUSH2 0x15C9 JUMPI PUSH1 0x0 DUP1 REVERT JUMPDEST PUSH1 0x0 PUSH2 0x15D7 DUP5 DUP3 DUP6 ADD PUSH2 0x1579 JUMP JUMPDEST SWAP2 POP POP SWAP3 SWAP2 POP POP JUMP JUMPDEST PUSH1 0x0 DUP1 PUSH1 0x40 DUP4 DUP6 SUB SLT ISZERO PUSH2 0x15F3 JUMPI PUSH1 0x0 DUP1 REVERT JUMPDEST PUSH1 0x0 PUSH2 0x1601 DUP6 DUP3 DUP7 ADD PUSH2 0x1579 JUMP JUMPDEST SWAP3 POP POP PUSH1 0x20 PUSH2 0x1612 DUP6 DUP3 DUP7 ADD PUSH2 0x1579 JUMP JUMPDEST SWAP2 POP POP SWAP3 POP SWAP3 SWAP1 POP JUMP JUMPDEST PUSH1 0x0 PUSH2 0x1628 DUP4 DUP4 PUSH2 0x17A5 JUMP JUMPDEST PUSH1 0x80 DUP4 ADD SWAP1 POP SWAP3 SWAP2 POP POP JUMP JUMPDEST PUSH2 0x163D DUP2 PUSH2 0x1A59 JUMP JUMPDEST DUP3 MSTORE POP POP JUMP JUMPDEST PUSH1 0x0 PUSH2 0x164E DUP3 PUSH2 0x1960 JUMP JUMPDEST PUSH2 0x1658 DUP2 DUP6 PUSH2 0x1978 JUMP JUMPDEST SWAP4 POP PUSH2 0x1663 DUP4 PUSH2 0x1950 JUMP JUMPDEST DUP1 PUSH1 0x0 JUMPDEST DUP4 DUP2 LT ISZERO PUSH2 0x1694 JUMPI DUP2 MLOAD PUSH2 0x167B DUP9 DUP3 PUSH2 0x161C JUMP JUMPDEST SWAP8 POP PUSH2 0x1686 DUP4 PUSH2 0x196B JUMP JUMPDEST SWAP3 POP POP PUSH1 0x1 DUP2 ADD SWAP1 POP PUSH2 0x1667 JUMP JUMPDEST POP DUP6 SWAP4 POP POP POP POP SWAP3 SWAP2 POP POP JUMP JUMPDEST PUSH2 0x16AA DUP2 PUSH2 0x1A6B JUMP JUMPDEST DUP3 MSTORE POP POP JUMP JUMPDEST PUSH1 0x0 PUSH2 0x16BD PUSH1 0x13 DUP4 PUSH2 0x1989 JUMP JUMPDEST SWAP2 POP PUSH2 0x16C8 DUP3 PUSH2 0x1B48 JUMP JUMPDEST PUSH1 0x20 DUP3 ADD SWAP1 POP SWAP2 SWAP1 POP JUMP JUMPDEST PUSH1 0x0 PUSH2 0x16E0 PUSH1 0x13 DUP4 PUSH2 0x1989 JUMP JUMPDEST SWAP2 POP PUSH2 0x16EB DUP3 PUSH2 0x1B71 JUMP JUMPDEST PUSH1 0x20 DUP3 ADD SWAP1 POP SWAP2 SWAP1 POP JUMP JUMPDEST PUSH1 0x0 PUSH2 0x1703 PUSH1 0x13 DUP4 PUSH2 0x1989 JUMP JUMPDEST SWAP2 POP PUSH2 0x170E DUP3 PUSH2 0x1B9A JUMP JUMPDEST PUSH1 0x20 DUP3 ADD SWAP1 POP SWAP2 SWAP1 POP JUMP JUMPDEST PUSH1 0x0 PUSH2 0x1726 PUSH1 0x1D DUP4 PUSH2 0x1989 JUMP JUMPDEST SWAP2 POP PUSH2 0x1731 DUP3 PUSH2 0x1BC3 JUMP JUMPDEST PUSH1 0x20 DUP3 ADD SWAP1 POP SWAP2 SWAP1 POP JUMP JUMPDEST PUSH1 0x0 PUSH2 0x1749 PUSH1 0x18 DUP4 PUSH2 0x1989 JUMP JUMPDEST SWAP2 POP PUSH2 0x1754 DUP3 PUSH2 0x1BEC JUMP JUMPDEST PUSH1 0x20 DUP3 ADD SWAP1 POP SWAP2 SWAP1 POP JUMP JUMPDEST PUSH1 0x0 PUSH2 0x176C PUSH1 0x21 DUP4 PUSH2 0x1989 JUMP JUMPDEST SWAP2 POP PUSH2 0x1777 DUP3 PUSH2 0x1C15 JUMP JUMPDEST PUSH1 0x40 DUP3 ADD SWAP1 POP SWAP2 SWAP1 POP JUMP JUMPDEST PUSH1 0x0 PUSH2 0x178F PUSH1 0x1A DUP4 PUSH2 0x1989 JUMP JUMPDEST SWAP2 POP PUSH2 0x179A DUP3 PUSH2 0x1C64 JUMP JUMPDEST PUSH1 0x20 DUP3 ADD SWAP1 POP SWAP2 SWAP1 POP JUMP JUMPDEST PUSH1 0x80 DUP3 ADD PUSH1 0x0 DUP3 ADD MLOAD PUSH2 0x17BB PUSH1 0x0 DUP6 ADD DUP3 PUSH2 0x17FA JUMP JUMPDEST POP PUSH1 0x20 DUP3 ADD MLOAD PUSH2 0x17CE PUSH1 0x20 DUP6 ADD DUP3 PUSH2 0x17FA JUMP JUMPDEST POP PUSH1 0x40 DUP3 ADD MLOAD PUSH2 0x17E1 PUSH1 0x40 DUP6 ADD DUP3 PUSH2 0x17FA JUMP JUMPDEST POP PUSH1 0x60 DUP3 ADD MLOAD PUSH2 0x17F4 PUSH1 0x60 DUP6 ADD DUP3 PUSH2 0x16A1 JUMP JUMPDEST POP POP POP POP JUMP JUMPDEST PUSH2 0x1803 DUP2 PUSH2 0x1A97 JUMP JUMPDEST DUP3 MSTORE POP POP JUMP JUMPDEST PUSH2 0x1812 DUP2 PUSH2 0x1A97 JUMP JUMPDEST DUP3 MSTORE POP POP JUMP JUMPDEST PUSH1 0x0 PUSH1 0x20 DUP3 ADD SWAP1 POP PUSH2 0x182D PUSH1 0x0 DUP4 ADD DUP5 PUSH2 0x1634 JUMP JUMPDEST SWAP3 SWAP2 POP POP JUMP JUMPDEST PUSH1 0x0 PUSH1 0x20 DUP3 ADD SWAP1 POP DUP2 DUP2 SUB PUSH1 0x0 DUP4 ADD MSTORE PUSH2 0x184D DUP2 DUP5 PUSH2 0x1643 JUMP JUMPDEST SWAP1 POP SWAP3 SWAP2 POP POP JUMP JUMPDEST PUSH1 0x0 PUSH1 0x20 DUP3 ADD SWAP1 POP DUP2 DUP2 SUB PUSH1 0x0 DUP4 ADD MSTORE PUSH2 0x186E DUP2 PUSH2 0x16B0 JUMP JUMPDEST SWAP1 POP SWAP2 SWAP1 POP JUMP JUMPDEST PUSH1 0x0 PUSH1 0x20 DUP3 ADD SWAP1 POP DUP2 DUP2 SUB PUSH1 0x0 DUP4 ADD MSTORE PUSH2 0x188E DUP2 PUSH2 0x16D3 JUMP JUMPDEST SWAP1 POP SWAP2 SWAP1 POP JUMP JUMPDEST PUSH1 0x0 PUSH1 0x20 DUP3 ADD SWAP1 POP DUP2 DUP2 SUB PUSH1 0x0 DUP4 ADD MSTORE PUSH2 0x18AE DUP2 PUSH2 0x16F6 JUMP JUMPDEST SWAP1 POP SWAP2 SWAP1 POP JUMP JUMPDEST PUSH1 0x0 PUSH1 0x20 DUP3 ADD SWAP1 POP DUP2 DUP2 SUB PUSH1 0x0 DUP4 ADD MSTORE PUSH2 0x18CE DUP2 PUSH2 0x1719 JUMP JUMPDEST SWAP1 POP SWAP2 SWAP1 POP JUMP JUMPDEST PUSH1 0x0 PUSH1 0x20 DUP3 ADD SWAP1 POP DUP2 DUP2 SUB PUSH1 0x0 DUP4 ADD MSTORE PUSH2 0x18EE DUP2 PUSH2 0x173C JUMP JUMPDEST SWAP1 POP SWAP2 SWAP1 POP JUMP JUMPDEST PUSH1 0x0 PUSH1 0x20 DUP3 ADD SWAP1 POP DUP2 DUP2 SUB PUSH1 0x0 DUP4 ADD MSTORE PUSH2 0x190E DUP2 PUSH2 0x175F JUMP JUMPDEST SWAP1 POP SWAP2 SWAP1 POP JUMP JUMPDEST PUSH1 0x0 PUSH1 0x20 DUP3 ADD SWAP1 POP DUP2 DUP2 SUB PUSH1 0x0 DUP4 ADD MSTORE PUSH2 0x192E DUP2 PUSH2 0x1782 JUMP JUMPDEST SWAP1 POP SWAP2 SWAP1 POP JUMP JUMPDEST PUSH1 0x0 PUSH1 0x20 DUP3 ADD SWAP1 POP PUSH2 0x194A PUSH1 0x0 DUP4 ADD DUP5 PUSH2 0x1809 JUMP JUMPDEST SWAP3 SWAP2 POP POP JUMP JUMPDEST PUSH1 0x0 DUP2 SWAP1 POP PUSH1 0x20 DUP3 ADD SWAP1 POP SWAP2 SWAP1 POP JUMP JUMPDEST PUSH1 0x0 DUP2 MLOAD SWAP1 POP SWAP2 SWAP1 POP JUMP JUMPDEST PUSH1 0x0 PUSH1 0x20 DUP3 ADD SWAP1 POP SWAP2 SWAP1 POP JUMP JUMPDEST PUSH1 0x0 DUP3 DUP3 MSTORE PUSH1 0x20 DUP3 ADD SWAP1 POP SWAP3 SWAP2 POP POP JUMP JUMPDEST PUSH1 0x0 DUP3 DUP3 MSTORE PUSH1 0x20 DUP3 ADD SWAP1 POP SWAP3 SWAP2 POP POP JUMP JUMPDEST PUSH1 0x0 PUSH2 0x19A5 DUP3 PUSH2 0x1A97 JUMP JUMPDEST SWAP2 POP PUSH2 0x19B0 DUP4 PUSH2 0x1A97 JUMP JUMPDEST SWAP3 POP DUP3 PUSH2 0x19C0 JUMPI PUSH2 0x19BF PUSH2 0x1B19 JUMP JUMPDEST JUMPDEST DUP3 DUP3 DIV SWAP1 POP SWAP3 SWAP2 POP POP JUMP JUMPDEST PUSH1 0x0 PUSH2 0x19D6 DUP3 PUSH2 0x1A97 JUMP JUMPDEST SWAP2 POP PUSH2 0x19E1 DUP4 PUSH2 0x1A97 JUMP JUMPDEST SWAP3 POP DUP2 PUSH32 0xFFFFFFFFFFFFFFFFFFFFFFFFFFFFFFFFFFFFFFFFFFFFFFFFFFFFFFFFFFFFFFFF DIV DUP4 GT DUP3 ISZERO ISZERO AND ISZERO PUSH2 0x1A1A JUMPI PUSH2 0x1A19 PUSH2 0x1AEA JUMP JUMPDEST JUMPDEST DUP3 DUP3 MUL SWAP1 POP SWAP3 SWAP2 POP POP JUMP JUMPDEST PUSH1 0x0 PUSH2 0x1A30 DUP3 PUSH2 0x1A97 JUMP JUMPDEST SWAP2 POP PUSH2 0x1A3B DUP4 PUSH2 0x1A97 JUMP JUMPDEST SWAP3 POP DUP3 DUP3 LT ISZERO PUSH2 0x1A4E JUMPI PUSH2 0x1A4D PUSH2 0x1AEA JUMP JUMPDEST JUMPDEST DUP3 DUP3 SUB SWAP1 POP SWAP3 SWAP2 POP POP JUMP JUMPDEST PUSH1 0x0 PUSH2 0x1A64 DUP3 PUSH2 0x1A77 JUMP JUMPDEST SWAP1 POP SWAP2 SWAP1 POP JUMP JUMPDEST PUSH1 0x0 DUP2 ISZERO ISZERO SWAP1 POP SWAP2 SWAP1 POP JUMP JUMPDEST PUSH1 0x0 PUSH20 0xFFFFFFFFFFFFFFFFFFFFFFFFFFFFFFFFFFFFFFFF DUP3 AND SWAP1 POP SWAP2 SWAP1 POP JUMP JUMPDEST PUSH1 0x0 DUP2 SWAP1 POP SWAP2 SWAP1 POP JUMP JUMPDEST PUSH1 0x0 PUSH2 0x1AAC DUP3 PUSH2 0x1A97 JUMP JUMPDEST SWAP2 POP PUSH32 0xFFFFFFFFFFFFFFFFFFFFFFFFFFFFFFFFFFFFFFFFFFFFFFFFFFFFFFFFFFFFFFFF DUP3 EQ ISZERO PUSH2 0x1ADF JUMPI PUSH2 0x1ADE PUSH2 0x1AEA JUMP JUMPDEST JUMPDEST PUSH1 0x1 DUP3 ADD SWAP1 POP SWAP2 SWAP1 POP JUMP JUMPDEST PUSH32 0x4E487B7100000000000000000000000000000000000000000000000000000000 PUSH1 0x0 MSTORE PUSH1 0x11 PUSH1 0x4 MSTORE PUSH1 0x24 PUSH1 0x0 REVERT JUMPDEST PUSH32 0x4E487B7100000000000000000000000000000000000000000000000000000000 PUSH1 0x0 MSTORE PUSH1 0x12 PUSH1 0x4 MSTORE PUSH1 0x24 PUSH1 0x0 REVERT JUMPDEST PUSH32 0x746F6B656E2069736E277420746F2073656C6C00000000000000000000000000 PUSH1 0x0 DUP3 ADD MSTORE POP JUMP JUMPDEST PUSH32 0x746F6B656E20616C726561647920657869737400000000000000000000000000 PUSH1 0x0 DUP3 ADD MSTORE POP JUMP JUMPDEST PUSH32 0x746F6B656E20646F65736E277420657869737400000000000000000000000000 PUSH1 0x0 DUP3 ADD MSTORE POP JUMP JUMPDEST PUSH32 0x4F6E6C79206974656D2773206F776E65722063616E20646F2074686174000000 PUSH1 0x0 DUP3 ADD MSTORE POP JUMP JUMPDEST PUSH32 0x746F6B656E20697320616C726561647920746F2073656C6C0000000000000000 PUSH1 0x0 DUP3 ADD MSTORE POP JUMP JUMPDEST PUSH32 0x4F6E6C7920636F6E74726163742773206F776E65722063616E20646F20746861 PUSH1 0x0 DUP3 ADD MSTORE PUSH32 0x7400000000000000000000000000000000000000000000000000000000000000 PUSH1 0x20 DUP3 ADD MSTORE POP JUMP JUMPDEST PUSH32 0x50726963652063616E6E6F7420626520657175616C20746F2030000000000000 PUSH1 0x0 DUP3 ADD MSTORE POP JUMP JUMPDEST PUSH2 0x1C96 DUP2 PUSH2 0x1A59 JUMP JUMPDEST DUP2 EQ PUSH2 0x1CA1 JUMPI PUSH1 0x0 DUP1 REVERT JUMPDEST POP JUMP JUMPDEST PUSH2 0x1CAD DUP2 PUSH2 0x1A97 JUMP JUMPDEST DUP2 EQ PUSH2 0x1CB8 JUMPI PUSH1 0x0 DUP1 REVERT JUMPDEST POP JUMP INVALID LOG2 PUSH5 0x6970667358 0x22 SLT KECCAK256 0xAD MOD BALANCE PC SELFBALANCE PUSH17 0xA92D612A200F9C242A92E245B7F0E6D122 0xA5 SWAP4 SWAP11 DUP14 DUP13 RETURNDATACOPY STOP PUSH6 0x7C64736F6C63 NUMBER STOP ADDMOD ADD STOP CALLER "
				},
				"gasEstimates": {
					"creation": {
						"codeDepositCost": "1481800",
						"executionCost": "infinite",
						"totalCost": "infinite"
					},
					"external": {
						"addItemToSell(uint256)": "46768",
						"balanceOf(address)": "1541",
						"createItem(uint256,uint256)": "infinite",
						"fetchItemsByCatId(uint256)": "infinite",
						"fetchItemsByOwner()": "infinite",
						"fetchItemsToSell()": "infinite",
						"getFeesPercentage()": "1247",
						"modifyFeesPercentage(uint256)": "21335",
						"ownerOf(uint256)": "1654",
						"removeItemToSell(uint256)": "46727",
						"sellItem(uint256)": "infinite"
					},
					"internal": {
						"getFees(uint256,uint256)": "infinite"
					}
				},
				"methodIdentifiers": {
					"addItemToSell(uint256)": "c0f202ef",
					"balanceOf(address)": "70a08231",
					"createItem(uint256,uint256)": "adae08dd",
					"fetchItemsByCatId(uint256)": "2165e65a",
					"fetchItemsByOwner()": "4cad2ffc",
					"fetchItemsToSell()": "073e74df",
					"getFeesPercentage()": "ea0ff14a",
					"modifyFeesPercentage(uint256)": "29de6246",
					"ownerOf(uint256)": "6352211e",
					"removeItemToSell(uint256)": "a4964c33",
					"sellItem(uint256)": "91b6be9a"
				}
			},
			"storageLayout": {
				"storage": [
					{
						"astId": 11,
						"contract": "contracts/GeekNft.sol:GeekNft",
						"label": "name",
						"offset": 0,
						"slot": "0",
						"type": "t_string_storage"
					},
					{
						"astId": 13,
						"contract": "contracts/GeekNft.sol:GeekNft",
						"label": "symbol",
						"offset": 0,
						"slot": "1",
						"type": "t_string_storage"
					},
					{
						"astId": 15,
						"contract": "contracts/GeekNft.sol:GeekNft",
						"label": "owner",
						"offset": 0,
						"slot": "2",
						"type": "t_address"
					},
					{
						"astId": 28,
						"contract": "contracts/GeekNft.sol:GeekNft",
						"label": "items",
						"offset": 0,
						"slot": "3",
						"type": "t_array(t_struct(Item)24_storage)dyn_storage"
					},
					{
						"astId": 30,
						"contract": "contracts/GeekNft.sol:GeekNft",
						"label": "itemsToSellCount",
						"offset": 0,
						"slot": "4",
						"type": "t_uint256"
					},
					{
						"astId": 32,
						"contract": "contracts/GeekNft.sol:GeekNft",
						"label": "feesPercentage",
						"offset": 0,
						"slot": "5",
						"type": "t_uint256"
					},
					{
						"astId": 36,
						"contract": "contracts/GeekNft.sol:GeekNft",
						"label": "itemToOwner",
						"offset": 0,
						"slot": "6",
						"type": "t_mapping(t_uint256,t_address)"
					},
					{
						"astId": 40,
						"contract": "contracts/GeekNft.sol:GeekNft",
						"label": "itemsOwnerCount",
						"offset": 0,
						"slot": "7",
						"type": "t_mapping(t_address,t_uint256)"
					},
					{
						"astId": 44,
						"contract": "contracts/GeekNft.sol:GeekNft",
						"label": "itemsCatIdCount",
						"offset": 0,
						"slot": "8",
						"type": "t_mapping(t_uint256,t_uint256)"
					}
				],
				"types": {
					"t_address": {
						"encoding": "inplace",
						"label": "address",
						"numberOfBytes": "20"
					},
					"t_array(t_struct(Item)24_storage)dyn_storage": {
						"base": "t_struct(Item)24_storage",
						"encoding": "dynamic_array",
						"label": "struct GeekNft.Item[]",
						"numberOfBytes": "32"
					},
					"t_bool": {
						"encoding": "inplace",
						"label": "bool",
						"numberOfBytes": "1"
					},
					"t_mapping(t_address,t_uint256)": {
						"encoding": "mapping",
						"key": "t_address",
						"label": "mapping(address => uint256)",
						"numberOfBytes": "32",
						"value": "t_uint256"
					},
					"t_mapping(t_uint256,t_address)": {
						"encoding": "mapping",
						"key": "t_uint256",
						"label": "mapping(uint256 => address)",
						"numberOfBytes": "32",
						"value": "t_address"
					},
					"t_mapping(t_uint256,t_uint256)": {
						"encoding": "mapping",
						"key": "t_uint256",
						"label": "mapping(uint256 => uint256)",
						"numberOfBytes": "32",
						"value": "t_uint256"
					},
					"t_string_storage": {
						"encoding": "bytes",
						"label": "string",
						"numberOfBytes": "32"
					},
					"t_struct(Item)24_storage": {
						"encoding": "inplace",
						"label": "struct GeekNft.Item",
						"members": [
							{
								"astId": 17,
								"contract": "contracts/GeekNft.sol:GeekNft",
								"label": "tokenId",
								"offset": 0,
								"slot": "0",
								"type": "t_uint256"
							},
							{
								"astId": 19,
								"contract": "contracts/GeekNft.sol:GeekNft",
								"label": "price",
								"offset": 0,
								"slot": "1",
								"type": "t_uint256"
							},
							{
								"astId": 21,
								"contract": "contracts/GeekNft.sol:GeekNft",
								"label": "catId",
								"offset": 0,
								"slot": "2",
								"type": "t_uint256"
							},
							{
								"astId": 23,
								"contract": "contracts/GeekNft.sol:GeekNft",
								"label": "toSell",
								"offset": 0,
								"slot": "3",
								"type": "t_bool"
							}
						],
						"numberOfBytes": "128"
					},
					"t_uint256": {
						"encoding": "inplace",
						"label": "uint256",
						"numberOfBytes": "32"
					}
				}
			},
			"userdoc": {
				"kind": "user",
				"methods": {},
				"version": 1
			}
		}
	}
}