{
	"contracts/GeekNft.sol": {
		"GeekNft": {
			"abi": [
				{
					"inputs": [
						{
							"internalType": "address",
							"name": "",
							"type": "address"
						}
					],
					"name": "itemToOwner",
					"outputs": [
						{
							"internalType": "uint256",
							"name": "tokenId",
							"type": "uint256"
						},
						{
							"internalType": "uint256",
							"name": "price",
							"type": "uint256"
						},
						{
							"internalType": "string",
							"name": "catId",
							"type": "string"
						},
						{
							"internalType": "bool",
							"name": "toSell",
							"type": "bool"
						},
						{
							"internalType": "address",
							"name": "owner",
							"type": "address"
						}
					],
					"stateMutability": "view",
					"type": "function"
				},
				{
					"inputs": [
						{
							"internalType": "uint256",
							"name": "",
							"type": "uint256"
						}
					],
					"name": "items",
					"outputs": [
						{
							"internalType": "uint256",
							"name": "tokenId",
							"type": "uint256"
						},
						{
							"internalType": "uint256",
							"name": "price",
							"type": "uint256"
						},
						{
							"internalType": "string",
							"name": "catId",
							"type": "string"
						},
						{
							"internalType": "bool",
							"name": "toSell",
							"type": "bool"
						},
						{
							"internalType": "address",
							"name": "owner",
							"type": "address"
						}
					],
					"stateMutability": "view",
					"type": "function"
				},
				{
					"inputs": [
						{
							"internalType": "uint256",
							"name": "",
							"type": "uint256"
						}
					],
					"name": "itemsCatIdCount",
					"outputs": [
						{
							"internalType": "uint256",
							"name": "",
							"type": "uint256"
						}
					],
					"stateMutability": "view",
					"type": "function"
				},
				{
					"inputs": [
						{
							"internalType": "address",
							"name": "",
							"type": "address"
						}
					],
					"name": "itemsOwnerCount",
					"outputs": [
						{
							"internalType": "uint256",
							"name": "",
							"type": "uint256"
						}
					],
					"stateMutability": "view",
					"type": "function"
				},
				{
					"inputs": [],
					"name": "itemsToSellCount",
					"outputs": [
						{
							"internalType": "uint256",
							"name": "",
							"type": "uint256"
						}
					],
					"stateMutability": "view",
					"type": "function"
				}
			],
			"devdoc": {
				"kind": "dev",
				"methods": {},
				"version": 1
			},
			"evm": {
				"assembly": "    /* \"contracts/GeekNft.sol\":56:438  contract GeekNft {... */\n  mstore(0x40, 0x80)\n  callvalue\n  dup1\n  iszero\n  tag_1\n  jumpi\n  0x00\n  dup1\n  revert\ntag_1:\n  pop\n  dataSize(sub_0)\n  dup1\n  dataOffset(sub_0)\n  0x00\n  codecopy\n  0x00\n  return\nstop\n\nsub_0: assembly {\n        /* \"contracts/GeekNft.sol\":56:438  contract GeekNft {... */\n      mstore(0x40, 0x80)\n      callvalue\n      dup1\n      iszero\n      tag_1\n      jumpi\n      0x00\n      dup1\n      revert\n    tag_1:\n      pop\n      jumpi(tag_2, lt(calldatasize, 0x04))\n      shr(0xe0, calldataload(0x00))\n      dup1\n      0x4c389e65\n      eq\n      tag_3\n      jumpi\n      dup1\n      0x98468acc\n      eq\n      tag_4\n      jumpi\n      dup1\n      0xbfb231d2\n      eq\n      tag_5\n      jumpi\n      dup1\n      0xc3921895\n      eq\n      tag_6\n      jumpi\n      dup1\n      0xd48644bd\n      eq\n      tag_7\n      jumpi\n    tag_2:\n      0x00\n      dup1\n      revert\n        /* \"contracts/GeekNft.sol\":254:282  uint public itemsToSellCount */\n    tag_3:\n      tag_8\n      tag_9\n      jump\t// in\n    tag_8:\n      mload(0x40)\n      tag_10\n      swap2\n      swap1\n      tag_11\n      jump\t// in\n    tag_10:\n      mload(0x40)\n      dup1\n      swap2\n      sub\n      swap1\n      return\n        /* \"contracts/GeekNft.sol\":288:331  mapping(address => Item) public itemToOwner */\n    tag_4:\n      tag_12\n      0x04\n      dup1\n      calldatasize\n      sub\n      dup2\n      add\n      swap1\n      tag_13\n      swap2\n      swap1\n      tag_14\n      jump\t// in\n    tag_13:\n      tag_15\n      jump\t// in\n    tag_12:\n      mload(0x40)\n      tag_16\n      swap6\n      swap5\n      swap4\n      swap3\n      swap2\n      swap1\n      tag_17\n      jump\t// in\n    tag_16:\n      mload(0x40)\n      dup1\n      swap2\n      sub\n      swap1\n      return\n        /* \"contracts/GeekNft.sol\":229:248  Item[] public items */\n    tag_5:\n      tag_18\n      0x04\n      dup1\n      calldatasize\n      sub\n      dup2\n      add\n      swap1\n      tag_19\n      swap2\n      swap1\n      tag_20\n      jump\t// in\n    tag_19:\n      tag_21\n      jump\t// in\n    tag_18:\n      mload(0x40)\n      tag_22\n      swap6\n      swap5\n      swap4\n      swap3\n      swap2\n      swap1\n      tag_17\n      jump\t// in\n    tag_22:\n      mload(0x40)\n      dup1\n      swap2\n      sub\n      swap1\n      return\n        /* \"contracts/GeekNft.sol\":337:384  mapping(address => uint) public itemsOwnerCount */\n    tag_6:\n      tag_23\n      0x04\n      dup1\n      calldatasize\n      sub\n      dup2\n      add\n      swap1\n      tag_24\n      swap2\n      swap1\n      tag_14\n      jump\t// in\n    tag_24:\n      tag_25\n      jump\t// in\n    tag_23:\n      mload(0x40)\n      tag_26\n      swap2\n      swap1\n      tag_11\n      jump\t// in\n    tag_26:\n      mload(0x40)\n      dup1\n      swap2\n      sub\n      swap1\n      return\n        /* \"contracts/GeekNft.sol\":390:434  mapping(uint => uint) public itemsCatIdCount */\n    tag_7:\n      tag_27\n      0x04\n      dup1\n      calldatasize\n      sub\n      dup2\n      add\n      swap1\n      tag_28\n      swap2\n      swap1\n      tag_20\n      jump\t// in\n    tag_28:\n      tag_29\n      jump\t// in\n    tag_27:\n      mload(0x40)\n      tag_30\n      swap2\n      swap1\n      tag_11\n      jump\t// in\n    tag_30:\n      mload(0x40)\n      dup1\n      swap2\n      sub\n      swap1\n      return\n        /* \"contracts/GeekNft.sol\":254:282  uint public itemsToSellCount */\n    tag_9:\n      sload(0x02)\n      dup2\n      jump\t// out\n        /* \"contracts/GeekNft.sol\":288:331  mapping(address => Item) public itemToOwner */\n    tag_15:\n      mstore(0x20, 0x03)\n      dup1\n      0x00\n      mstore\n      keccak256(0x00, 0x40)\n      0x00\n      swap2\n      pop\n      swap1\n      pop\n      dup1\n      0x00\n      add\n      sload\n      swap1\n      dup1\n      0x01\n      add\n      sload\n      swap1\n      dup1\n      0x02\n      add\n      dup1\n      sload\n      tag_31\n      swap1\n      tag_32\n      jump\t// in\n    tag_31:\n      dup1\n      0x1f\n      add\n      0x20\n      dup1\n      swap2\n      div\n      mul\n      0x20\n      add\n      mload(0x40)\n      swap1\n      dup2\n      add\n      0x40\n      mstore\n      dup1\n      swap3\n      swap2\n      swap1\n      dup2\n      dup2\n      mstore\n      0x20\n      add\n      dup3\n      dup1\n      sload\n      tag_33\n      swap1\n      tag_32\n      jump\t// in\n    tag_33:\n      dup1\n      iszero\n      tag_34\n      jumpi\n      dup1\n      0x1f\n      lt\n      tag_35\n      jumpi\n      0x0100\n      dup1\n      dup4\n      sload\n      div\n      mul\n      dup4\n      mstore\n      swap2\n      0x20\n      add\n      swap2\n      jump(tag_34)\n    tag_35:\n      dup3\n      add\n      swap2\n      swap1\n      0x00\n      mstore\n      keccak256(0x00, 0x20)\n      swap1\n    tag_36:\n      dup2\n      sload\n      dup2\n      mstore\n      swap1\n      0x01\n      add\n      swap1\n      0x20\n      add\n      dup1\n      dup4\n      gt\n      tag_36\n      jumpi\n      dup3\n      swap1\n      sub\n      0x1f\n      and\n      dup3\n      add\n      swap2\n    tag_34:\n      pop\n      pop\n      pop\n      pop\n      pop\n      swap1\n      dup1\n      0x03\n      add\n      0x00\n      swap1\n      sload\n      swap1\n      0x0100\n      exp\n      swap1\n      div\n      0xff\n      and\n      swap1\n      dup1\n      0x03\n      add\n      0x01\n      swap1\n      sload\n      swap1\n      0x0100\n      exp\n      swap1\n      div\n      0xffffffffffffffffffffffffffffffffffffffff\n      and\n      swap1\n      pop\n      dup6\n      jump\t// out\n        /* \"contracts/GeekNft.sol\":229:248  Item[] public items */\n    tag_21:\n      0x01\n      dup2\n      dup2\n      sload\n      dup2\n      lt\n      tag_37\n      jumpi\n      0x00\n      dup1\n      revert\n    tag_37:\n      swap1\n      0x00\n      mstore\n      keccak256(0x00, 0x20)\n      swap1\n      0x04\n      mul\n      add\n      0x00\n      swap2\n      pop\n      swap1\n      pop\n      dup1\n      0x00\n      add\n      sload\n      swap1\n      dup1\n      0x01\n      add\n      sload\n      swap1\n      dup1\n      0x02\n      add\n      dup1\n      sload\n      tag_39\n      swap1\n      tag_32\n      jump\t// in\n    tag_39:\n      dup1\n      0x1f\n      add\n      0x20\n      dup1\n      swap2\n      div\n      mul\n      0x20\n      add\n      mload(0x40)\n      swap1\n      dup2\n      add\n      0x40\n      mstore\n      dup1\n      swap3\n      swap2\n      swap1\n      dup2\n      dup2\n      mstore\n      0x20\n      add\n      dup3\n      dup1\n      sload\n      tag_40\n      swap1\n      tag_32\n      jump\t// in\n    tag_40:\n      dup1\n      iszero\n      tag_41\n      jumpi\n      dup1\n      0x1f\n      lt\n      tag_42\n      jumpi\n      0x0100\n      dup1\n      dup4\n      sload\n      div\n      mul\n      dup4\n      mstore\n      swap2\n      0x20\n      add\n      swap2\n      jump(tag_41)\n    tag_42:\n      dup3\n      add\n      swap2\n      swap1\n      0x00\n      mstore\n      keccak256(0x00, 0x20)\n      swap1\n    tag_43:\n      dup2\n      sload\n      dup2\n      mstore\n      swap1\n      0x01\n      add\n      swap1\n      0x20\n      add\n      dup1\n      dup4\n      gt\n      tag_43\n      jumpi\n      dup3\n      swap1\n      sub\n      0x1f\n      and\n      dup3\n      add\n      swap2\n    tag_41:\n      pop\n      pop\n      pop\n      pop\n      pop\n      swap1\n      dup1\n      0x03\n      add\n      0x00\n      swap1\n      sload\n      swap1\n      0x0100\n      exp\n      swap1\n      div\n      0xff\n      and\n      swap1\n      dup1\n      0x03\n      add\n      0x01\n      swap1\n      sload\n      swap1\n      0x0100\n      exp\n      swap1\n      div\n      0xffffffffffffffffffffffffffffffffffffffff\n      and\n      swap1\n      pop\n      dup6\n      jump\t// out\n        /* \"contracts/GeekNft.sol\":337:384  mapping(address => uint) public itemsOwnerCount */\n    tag_25:\n      mstore(0x20, 0x04)\n      dup1\n      0x00\n      mstore\n      keccak256(0x00, 0x40)\n      0x00\n      swap2\n      pop\n      swap1\n      pop\n      sload\n      dup2\n      jump\t// out\n        /* \"contracts/GeekNft.sol\":390:434  mapping(uint => uint) public itemsCatIdCount */\n    tag_29:\n      mstore(0x20, 0x05)\n      dup1\n      0x00\n      mstore\n      keccak256(0x00, 0x40)\n      0x00\n      swap2\n      pop\n      swap1\n      pop\n      sload\n      dup2\n      jump\t// out\n        /* \"#utility.yul\":7:146   */\n    tag_45:\n      0x00\n        /* \"#utility.yul\":91:97   */\n      dup2\n        /* \"#utility.yul\":78:98   */\n      calldataload\n        /* \"#utility.yul\":69:98   */\n      swap1\n      pop\n        /* \"#utility.yul\":107:140   */\n      tag_47\n        /* \"#utility.yul\":134:139   */\n      dup2\n        /* \"#utility.yul\":107:140   */\n      tag_48\n      jump\t// in\n    tag_47:\n        /* \"#utility.yul\":59:146   */\n      swap3\n      swap2\n      pop\n      pop\n      jump\t// out\n        /* \"#utility.yul\":152:291   */\n    tag_49:\n      0x00\n        /* \"#utility.yul\":236:242   */\n      dup2\n        /* \"#utility.yul\":223:243   */\n      calldataload\n        /* \"#utility.yul\":214:243   */\n      swap1\n      pop\n        /* \"#utility.yul\":252:285   */\n      tag_51\n        /* \"#utility.yul\":279:284   */\n      dup2\n        /* \"#utility.yul\":252:285   */\n      tag_52\n      jump\t// in\n    tag_51:\n        /* \"#utility.yul\":204:291   */\n      swap3\n      swap2\n      pop\n      pop\n      jump\t// out\n        /* \"#utility.yul\":297:559   */\n    tag_14:\n      0x00\n        /* \"#utility.yul\":405:407   */\n      0x20\n        /* \"#utility.yul\":393:402   */\n      dup3\n        /* \"#utility.yul\":384:391   */\n      dup5\n        /* \"#utility.yul\":380:403   */\n      sub\n        /* \"#utility.yul\":376:408   */\n      slt\n        /* \"#utility.yul\":373:375   */\n      iszero\n      tag_54\n      jumpi\n        /* \"#utility.yul\":421:422   */\n      0x00\n        /* \"#utility.yul\":418:419   */\n      dup1\n        /* \"#utility.yul\":411:423   */\n      revert\n        /* \"#utility.yul\":373:375   */\n    tag_54:\n        /* \"#utility.yul\":464:465   */\n      0x00\n        /* \"#utility.yul\":489:542   */\n      tag_55\n        /* \"#utility.yul\":534:541   */\n      dup5\n        /* \"#utility.yul\":525:531   */\n      dup3\n        /* \"#utility.yul\":514:523   */\n      dup6\n        /* \"#utility.yul\":510:532   */\n      add\n        /* \"#utility.yul\":489:542   */\n      tag_45\n      jump\t// in\n    tag_55:\n        /* \"#utility.yul\":479:542   */\n      swap2\n      pop\n        /* \"#utility.yul\":435:552   */\n      pop\n        /* \"#utility.yul\":363:559   */\n      swap3\n      swap2\n      pop\n      pop\n      jump\t// out\n        /* \"#utility.yul\":565:827   */\n    tag_20:\n      0x00\n        /* \"#utility.yul\":673:675   */\n      0x20\n        /* \"#utility.yul\":661:670   */\n      dup3\n        /* \"#utility.yul\":652:659   */\n      dup5\n        /* \"#utility.yul\":648:671   */\n      sub\n        /* \"#utility.yul\":644:676   */\n      slt\n        /* \"#utility.yul\":641:643   */\n      iszero\n      tag_57\n      jumpi\n        /* \"#utility.yul\":689:690   */\n      0x00\n        /* \"#utility.yul\":686:687   */\n      dup1\n        /* \"#utility.yul\":679:691   */\n      revert\n        /* \"#utility.yul\":641:643   */\n    tag_57:\n        /* \"#utility.yul\":732:733   */\n      0x00\n        /* \"#utility.yul\":757:810   */\n      tag_58\n        /* \"#utility.yul\":802:809   */\n      dup5\n        /* \"#utility.yul\":793:799   */\n      dup3\n        /* \"#utility.yul\":782:791   */\n      dup6\n        /* \"#utility.yul\":778:800   */\n      add\n        /* \"#utility.yul\":757:810   */\n      tag_49\n      jump\t// in\n    tag_58:\n        /* \"#utility.yul\":747:810   */\n      swap2\n      pop\n        /* \"#utility.yul\":703:820   */\n      pop\n        /* \"#utility.yul\":631:827   */\n      swap3\n      swap2\n      pop\n      pop\n      jump\t// out\n        /* \"#utility.yul\":833:951   */\n    tag_59:\n        /* \"#utility.yul\":920:944   */\n      tag_61\n        /* \"#utility.yul\":938:943   */\n      dup2\n        /* \"#utility.yul\":920:944   */\n      tag_62\n      jump\t// in\n    tag_61:\n        /* \"#utility.yul\":915:918   */\n      dup3\n        /* \"#utility.yul\":908:945   */\n      mstore\n        /* \"#utility.yul\":898:951   */\n      pop\n      pop\n      jump\t// out\n        /* \"#utility.yul\":957:1066   */\n    tag_63:\n        /* \"#utility.yul\":1038:1059   */\n      tag_65\n        /* \"#utility.yul\":1053:1058   */\n      dup2\n        /* \"#utility.yul\":1038:1059   */\n      tag_66\n      jump\t// in\n    tag_65:\n        /* \"#utility.yul\":1033:1036   */\n      dup3\n        /* \"#utility.yul\":1026:1060   */\n      mstore\n        /* \"#utility.yul\":1016:1066   */\n      pop\n      pop\n      jump\t// out\n        /* \"#utility.yul\":1072:1436   */\n    tag_67:\n      0x00\n        /* \"#utility.yul\":1188:1227   */\n      tag_69\n        /* \"#utility.yul\":1221:1226   */\n      dup3\n        /* \"#utility.yul\":1188:1227   */\n      tag_70\n      jump\t// in\n    tag_69:\n        /* \"#utility.yul\":1243:1314   */\n      tag_71\n        /* \"#utility.yul\":1307:1313   */\n      dup2\n        /* \"#utility.yul\":1302:1305   */\n      dup6\n        /* \"#utility.yul\":1243:1314   */\n      tag_72\n      jump\t// in\n    tag_71:\n        /* \"#utility.yul\":1236:1314   */\n      swap4\n      pop\n        /* \"#utility.yul\":1323:1375   */\n      tag_73\n        /* \"#utility.yul\":1368:1374   */\n      dup2\n        /* \"#utility.yul\":1363:1366   */\n      dup6\n        /* \"#utility.yul\":1356:1360   */\n      0x20\n        /* \"#utility.yul\":1349:1354   */\n      dup7\n        /* \"#utility.yul\":1345:1361   */\n      add\n        /* \"#utility.yul\":1323:1375   */\n      tag_74\n      jump\t// in\n    tag_73:\n        /* \"#utility.yul\":1400:1429   */\n      tag_75\n        /* \"#utility.yul\":1422:1428   */\n      dup2\n        /* \"#utility.yul\":1400:1429   */\n      tag_76\n      jump\t// in\n    tag_75:\n        /* \"#utility.yul\":1395:1398   */\n      dup5\n        /* \"#utility.yul\":1391:1430   */\n      add\n        /* \"#utility.yul\":1384:1430   */\n      swap2\n      pop\n        /* \"#utility.yul\":1164:1436   */\n      pop\n      swap3\n      swap2\n      pop\n      pop\n      jump\t// out\n        /* \"#utility.yul\":1442:1560   */\n    tag_77:\n        /* \"#utility.yul\":1529:1553   */\n      tag_79\n        /* \"#utility.yul\":1547:1552   */\n      dup2\n        /* \"#utility.yul\":1529:1553   */\n      tag_80\n      jump\t// in\n    tag_79:\n        /* \"#utility.yul\":1524:1527   */\n      dup3\n        /* \"#utility.yul\":1517:1554   */\n      mstore\n        /* \"#utility.yul\":1507:1560   */\n      pop\n      pop\n      jump\t// out\n        /* \"#utility.yul\":1566:1788   */\n    tag_11:\n      0x00\n        /* \"#utility.yul\":1697:1699   */\n      0x20\n        /* \"#utility.yul\":1686:1695   */\n      dup3\n        /* \"#utility.yul\":1682:1700   */\n      add\n        /* \"#utility.yul\":1674:1700   */\n      swap1\n      pop\n        /* \"#utility.yul\":1710:1781   */\n      tag_82\n        /* \"#utility.yul\":1778:1779   */\n      0x00\n        /* \"#utility.yul\":1767:1776   */\n      dup4\n        /* \"#utility.yul\":1763:1780   */\n      add\n        /* \"#utility.yul\":1754:1760   */\n      dup5\n        /* \"#utility.yul\":1710:1781   */\n      tag_77\n      jump\t// in\n    tag_82:\n        /* \"#utility.yul\":1664:1788   */\n      swap3\n      swap2\n      pop\n      pop\n      jump\t// out\n        /* \"#utility.yul\":1794:2537   */\n    tag_17:\n      0x00\n        /* \"#utility.yul\":2051:2054   */\n      0xa0\n        /* \"#utility.yul\":2040:2049   */\n      dup3\n        /* \"#utility.yul\":2036:2055   */\n      add\n        /* \"#utility.yul\":2028:2055   */\n      swap1\n      pop\n        /* \"#utility.yul\":2065:2136   */\n      tag_84\n        /* \"#utility.yul\":2133:2134   */\n      0x00\n        /* \"#utility.yul\":2122:2131   */\n      dup4\n        /* \"#utility.yul\":2118:2135   */\n      add\n        /* \"#utility.yul\":2109:2115   */\n      dup9\n        /* \"#utility.yul\":2065:2136   */\n      tag_77\n      jump\t// in\n    tag_84:\n        /* \"#utility.yul\":2146:2218   */\n      tag_85\n        /* \"#utility.yul\":2214:2216   */\n      0x20\n        /* \"#utility.yul\":2203:2212   */\n      dup4\n        /* \"#utility.yul\":2199:2217   */\n      add\n        /* \"#utility.yul\":2190:2196   */\n      dup8\n        /* \"#utility.yul\":2146:2218   */\n      tag_77\n      jump\t// in\n    tag_85:\n        /* \"#utility.yul\":2265:2274   */\n      dup2\n        /* \"#utility.yul\":2259:2263   */\n      dup2\n        /* \"#utility.yul\":2255:2275   */\n      sub\n        /* \"#utility.yul\":2250:2252   */\n      0x40\n        /* \"#utility.yul\":2239:2248   */\n      dup4\n        /* \"#utility.yul\":2235:2253   */\n      add\n        /* \"#utility.yul\":2228:2276   */\n      mstore\n        /* \"#utility.yul\":2293:2371   */\n      tag_86\n        /* \"#utility.yul\":2366:2370   */\n      dup2\n        /* \"#utility.yul\":2357:2363   */\n      dup7\n        /* \"#utility.yul\":2293:2371   */\n      tag_67\n      jump\t// in\n    tag_86:\n        /* \"#utility.yul\":2285:2371   */\n      swap1\n      pop\n        /* \"#utility.yul\":2381:2447   */\n      tag_87\n        /* \"#utility.yul\":2443:2445   */\n      0x60\n        /* \"#utility.yul\":2432:2441   */\n      dup4\n        /* \"#utility.yul\":2428:2446   */\n      add\n        /* \"#utility.yul\":2419:2425   */\n      dup6\n        /* \"#utility.yul\":2381:2447   */\n      tag_63\n      jump\t// in\n    tag_87:\n        /* \"#utility.yul\":2457:2530   */\n      tag_88\n        /* \"#utility.yul\":2525:2528   */\n      0x80\n        /* \"#utility.yul\":2514:2523   */\n      dup4\n        /* \"#utility.yul\":2510:2529   */\n      add\n        /* \"#utility.yul\":2501:2507   */\n      dup5\n        /* \"#utility.yul\":2457:2530   */\n      tag_59\n      jump\t// in\n    tag_88:\n        /* \"#utility.yul\":2018:2537   */\n      swap7\n      swap6\n      pop\n      pop\n      pop\n      pop\n      pop\n      pop\n      jump\t// out\n        /* \"#utility.yul\":2543:2642   */\n    tag_70:\n      0x00\n        /* \"#utility.yul\":2629:2634   */\n      dup2\n        /* \"#utility.yul\":2623:2635   */\n      mload\n        /* \"#utility.yul\":2613:2635   */\n      swap1\n      pop\n        /* \"#utility.yul\":2602:2642   */\n      swap2\n      swap1\n      pop\n      jump\t// out\n        /* \"#utility.yul\":2648:2817   */\n    tag_72:\n      0x00\n        /* \"#utility.yul\":2766:2772   */\n      dup3\n        /* \"#utility.yul\":2761:2764   */\n      dup3\n        /* \"#utility.yul\":2754:2773   */\n      mstore\n        /* \"#utility.yul\":2806:2810   */\n      0x20\n        /* \"#utility.yul\":2801:2804   */\n      dup3\n        /* \"#utility.yul\":2797:2811   */\n      add\n        /* \"#utility.yul\":2782:2811   */\n      swap1\n      pop\n        /* \"#utility.yul\":2744:2817   */\n      swap3\n      swap2\n      pop\n      pop\n      jump\t// out\n        /* \"#utility.yul\":2823:2919   */\n    tag_62:\n      0x00\n        /* \"#utility.yul\":2889:2913   */\n      tag_92\n        /* \"#utility.yul\":2907:2912   */\n      dup3\n        /* \"#utility.yul\":2889:2913   */\n      tag_93\n      jump\t// in\n    tag_92:\n        /* \"#utility.yul\":2878:2913   */\n      swap1\n      pop\n        /* \"#utility.yul\":2868:2919   */\n      swap2\n      swap1\n      pop\n      jump\t// out\n        /* \"#utility.yul\":2925:3015   */\n    tag_66:\n      0x00\n        /* \"#utility.yul\":3002:3007   */\n      dup2\n        /* \"#utility.yul\":2995:3008   */\n      iszero\n        /* \"#utility.yul\":2988:3009   */\n      iszero\n        /* \"#utility.yul\":2977:3009   */\n      swap1\n      pop\n        /* \"#utility.yul\":2967:3015   */\n      swap2\n      swap1\n      pop\n      jump\t// out\n        /* \"#utility.yul\":3021:3147   */\n    tag_93:\n      0x00\n        /* \"#utility.yul\":3098:3140   */\n      0xffffffffffffffffffffffffffffffffffffffff\n        /* \"#utility.yul\":3091:3096   */\n      dup3\n        /* \"#utility.yul\":3087:3141   */\n      and\n        /* \"#utility.yul\":3076:3141   */\n      swap1\n      pop\n        /* \"#utility.yul\":3066:3147   */\n      swap2\n      swap1\n      pop\n      jump\t// out\n        /* \"#utility.yul\":3153:3230   */\n    tag_80:\n      0x00\n        /* \"#utility.yul\":3219:3224   */\n      dup2\n        /* \"#utility.yul\":3208:3224   */\n      swap1\n      pop\n        /* \"#utility.yul\":3198:3230   */\n      swap2\n      swap1\n      pop\n      jump\t// out\n        /* \"#utility.yul\":3236:3543   */\n    tag_74:\n        /* \"#utility.yul\":3304:3305   */\n      0x00\n        /* \"#utility.yul\":3314:3427   */\n    tag_98:\n        /* \"#utility.yul\":3328:3334   */\n      dup4\n        /* \"#utility.yul\":3325:3326   */\n      dup2\n        /* \"#utility.yul\":3322:3335   */\n      lt\n        /* \"#utility.yul\":3314:3427   */\n      iszero\n      tag_100\n      jumpi\n        /* \"#utility.yul\":3413:3414   */\n      dup1\n        /* \"#utility.yul\":3408:3411   */\n      dup3\n        /* \"#utility.yul\":3404:3415   */\n      add\n        /* \"#utility.yul\":3398:3416   */\n      mload\n        /* \"#utility.yul\":3394:3395   */\n      dup2\n        /* \"#utility.yul\":3389:3392   */\n      dup5\n        /* \"#utility.yul\":3385:3396   */\n      add\n        /* \"#utility.yul\":3378:3417   */\n      mstore\n        /* \"#utility.yul\":3350:3352   */\n      0x20\n        /* \"#utility.yul\":3347:3348   */\n      dup2\n        /* \"#utility.yul\":3343:3353   */\n      add\n        /* \"#utility.yul\":3338:3353   */\n      swap1\n      pop\n        /* \"#utility.yul\":3314:3427   */\n      jump(tag_98)\n    tag_100:\n        /* \"#utility.yul\":3445:3451   */\n      dup4\n        /* \"#utility.yul\":3442:3443   */\n      dup2\n        /* \"#utility.yul\":3439:3452   */\n      gt\n        /* \"#utility.yul\":3436:3438   */\n      iszero\n      tag_101\n      jumpi\n        /* \"#utility.yul\":3525:3526   */\n      0x00\n        /* \"#utility.yul\":3516:3522   */\n      dup5\n        /* \"#utility.yul\":3511:3514   */\n      dup5\n        /* \"#utility.yul\":3507:3523   */\n      add\n        /* \"#utility.yul\":3500:3527   */\n      mstore\n        /* \"#utility.yul\":3436:3438   */\n    tag_101:\n        /* \"#utility.yul\":3285:3543   */\n      pop\n      pop\n      pop\n      pop\n      jump\t// out\n        /* \"#utility.yul\":3549:3869   */\n    tag_32:\n      0x00\n        /* \"#utility.yul\":3630:3631   */\n      0x02\n        /* \"#utility.yul\":3624:3628   */\n      dup3\n        /* \"#utility.yul\":3620:3632   */\n      div\n        /* \"#utility.yul\":3610:3632   */\n      swap1\n      pop\n        /* \"#utility.yul\":3677:3678   */\n      0x01\n        /* \"#utility.yul\":3671:3675   */\n      dup3\n        /* \"#utility.yul\":3667:3679   */\n      and\n        /* \"#utility.yul\":3698:3716   */\n      dup1\n        /* \"#utility.yul\":3688:3690   */\n      tag_103\n      jumpi\n        /* \"#utility.yul\":3754:3758   */\n      0x7f\n        /* \"#utility.yul\":3746:3752   */\n      dup3\n        /* \"#utility.yul\":3742:3759   */\n      and\n        /* \"#utility.yul\":3732:3759   */\n      swap2\n      pop\n        /* \"#utility.yul\":3688:3690   */\n    tag_103:\n        /* \"#utility.yul\":3816:3818   */\n      0x20\n        /* \"#utility.yul\":3808:3814   */\n      dup3\n        /* \"#utility.yul\":3805:3819   */\n      lt\n        /* \"#utility.yul\":3785:3803   */\n      dup2\n        /* \"#utility.yul\":3782:3820   */\n      eq\n        /* \"#utility.yul\":3779:3781   */\n      iszero\n      tag_104\n      jumpi\n        /* \"#utility.yul\":3835:3853   */\n      tag_105\n      tag_106\n      jump\t// in\n    tag_105:\n        /* \"#utility.yul\":3779:3781   */\n    tag_104:\n        /* \"#utility.yul\":3600:3869   */\n      pop\n      swap2\n      swap1\n      pop\n      jump\t// out\n        /* \"#utility.yul\":3875:4055   */\n    tag_106:\n        /* \"#utility.yul\":3923:4000   */\n      0x4e487b7100000000000000000000000000000000000000000000000000000000\n        /* \"#utility.yul\":3920:3921   */\n      0x00\n        /* \"#utility.yul\":3913:4001   */\n      mstore\n        /* \"#utility.yul\":4020:4024   */\n      0x22\n        /* \"#utility.yul\":4017:4018   */\n      0x04\n        /* \"#utility.yul\":4010:4025   */\n      mstore\n        /* \"#utility.yul\":4044:4048   */\n      0x24\n        /* \"#utility.yul\":4041:4042   */\n      0x00\n        /* \"#utility.yul\":4034:4049   */\n      revert\n        /* \"#utility.yul\":4061:4163   */\n    tag_76:\n      0x00\n        /* \"#utility.yul\":4153:4155   */\n      0x1f\n        /* \"#utility.yul\":4149:4156   */\n      not\n        /* \"#utility.yul\":4144:4146   */\n      0x1f\n        /* \"#utility.yul\":4137:4142   */\n      dup4\n        /* \"#utility.yul\":4133:4147   */\n      add\n        /* \"#utility.yul\":4129:4157   */\n      and\n        /* \"#utility.yul\":4119:4157   */\n      swap1\n      pop\n        /* \"#utility.yul\":4109:4163   */\n      swap2\n      swap1\n      pop\n      jump\t// out\n        /* \"#utility.yul\":4169:4291   */\n    tag_48:\n        /* \"#utility.yul\":4242:4266   */\n      tag_110\n        /* \"#utility.yul\":4260:4265   */\n      dup2\n        /* \"#utility.yul\":4242:4266   */\n      tag_62\n      jump\t// in\n    tag_110:\n        /* \"#utility.yul\":4235:4240   */\n      dup2\n        /* \"#utility.yul\":4232:4267   */\n      eq\n        /* \"#utility.yul\":4222:4224   */\n      tag_111\n      jumpi\n        /* \"#utility.yul\":4281:4282   */\n      0x00\n        /* \"#utility.yul\":4278:4279   */\n      dup1\n        /* \"#utility.yul\":4271:4283   */\n      revert\n        /* \"#utility.yul\":4222:4224   */\n    tag_111:\n        /* \"#utility.yul\":4212:4291   */\n      pop\n      jump\t// out\n        /* \"#utility.yul\":4297:4419   */\n    tag_52:\n        /* \"#utility.yul\":4370:4394   */\n      tag_113\n        /* \"#utility.yul\":4388:4393   */\n      dup2\n        /* \"#utility.yul\":4370:4394   */\n      tag_80\n      jump\t// in\n    tag_113:\n        /* \"#utility.yul\":4363:4368   */\n      dup2\n        /* \"#utility.yul\":4360:4395   */\n      eq\n        /* \"#utility.yul\":4350:4352   */\n      tag_114\n      jumpi\n        /* \"#utility.yul\":4409:4410   */\n      0x00\n        /* \"#utility.yul\":4406:4407   */\n      dup1\n        /* \"#utility.yul\":4399:4411   */\n      revert\n        /* \"#utility.yul\":4350:4352   */\n    tag_114:\n        /* \"#utility.yul\":4340:4419   */\n      pop\n      jump\t// out\n\n    auxdata: 0xa2646970667358221220c9412eab334e08b43f6e203cc0b79a9424690fe008193378cc5cfb3e53631a8f64736f6c63430008000033\n}\n",
				"bytecode": {
					"linkReferences": {},
					"object": "608060405234801561001057600080fd5b50610622806100206000396000f3fe608060405234801561001057600080fd5b50600436106100575760003560e01c80634c389e651461005c57806398468acc1461007a578063bfb231d2146100ae578063c3921895146100e2578063d48644bd14610112575b600080fd5b610064610142565b6040516100719190610440565b60405180910390f35b610094600480360381019061008f9190610388565b610148565b6040516100a595949392919061045b565b60405180910390f35b6100c860048036038101906100c391906103b1565b610233565b6040516100d995949392919061045b565b60405180910390f35b6100fc60048036038101906100f79190610388565b61032e565b6040516101099190610440565b60405180910390f35b61012c600480360381019061012791906103b1565b610346565b6040516101399190610440565b60405180910390f35b60025481565b60036020528060005260406000206000915090508060000154908060010154908060020180546101779061054c565b80601f01602080910402602001604051908101604052809291908181526020018280546101a39061054c565b80156101f05780601f106101c5576101008083540402835291602001916101f0565b820191906000526020600020905b8154815290600101906020018083116101d357829003601f168201915b5050505050908060030160009054906101000a900460ff16908060030160019054906101000a900473ffffffffffffffffffffffffffffffffffffffff16905085565b6001818154811061024357600080fd5b90600052602060002090600402016000915090508060000154908060010154908060020180546102729061054c565b80601f016020809104026020016040519081016040528092919081815260200182805461029e9061054c565b80156102eb5780601f106102c0576101008083540402835291602001916102eb565b820191906000526020600020905b8154815290600101906020018083116102ce57829003601f168201915b5050505050908060030160009054906101000a900460ff16908060030160019054906101000a900473ffffffffffffffffffffffffffffffffffffffff16905085565b60046020528060005260406000206000915090505481565b60056020528060005260406000206000915090505481565b60008135905061036d816105be565b92915050565b600081359050610382816105d5565b92915050565b60006020828403121561039a57600080fd5b60006103a88482850161035e565b91505092915050565b6000602082840312156103c357600080fd5b60006103d184828501610373565b91505092915050565b6103e3816104d1565b82525050565b6103f2816104e3565b82525050565b6000610403826104b5565b61040d81856104c0565b935061041d818560208601610519565b610426816105ad565b840191505092915050565b61043a8161050f565b82525050565b60006020820190506104556000830184610431565b92915050565b600060a0820190506104706000830188610431565b61047d6020830187610431565b818103604083015261048f81866103f8565b905061049e60608301856103e9565b6104ab60808301846103da565b9695505050505050565b600081519050919050565b600082825260208201905092915050565b60006104dc826104ef565b9050919050565b60008115159050919050565b600073ffffffffffffffffffffffffffffffffffffffff82169050919050565b6000819050919050565b60005b8381101561053757808201518184015260208101905061051c565b83811115610546576000848401525b50505050565b6000600282049050600182168061056457607f821691505b602082108114156105785761057761057e565b5b50919050565b7f4e487b7100000000000000000000000000000000000000000000000000000000600052602260045260246000fd5b6000601f19601f8301169050919050565b6105c7816104d1565b81146105d257600080fd5b50565b6105de8161050f565b81146105e957600080fd5b5056fea2646970667358221220c9412eab334e08b43f6e203cc0b79a9424690fe008193378cc5cfb3e53631a8f64736f6c63430008000033",
					"opcodes": "PUSH1 0x80 PUSH1 0x40 MSTORE CALLVALUE DUP1 ISZERO PUSH2 0x10 JUMPI PUSH1 0x0 DUP1 REVERT JUMPDEST POP PUSH2 0x622 DUP1 PUSH2 0x20 PUSH1 0x0 CODECOPY PUSH1 0x0 RETURN INVALID PUSH1 0x80 PUSH1 0x40 MSTORE CALLVALUE DUP1 ISZERO PUSH2 0x10 JUMPI PUSH1 0x0 DUP1 REVERT JUMPDEST POP PUSH1 0x4 CALLDATASIZE LT PUSH2 0x57 JUMPI PUSH1 0x0 CALLDATALOAD PUSH1 0xE0 SHR DUP1 PUSH4 0x4C389E65 EQ PUSH2 0x5C JUMPI DUP1 PUSH4 0x98468ACC EQ PUSH2 0x7A JUMPI DUP1 PUSH4 0xBFB231D2 EQ PUSH2 0xAE JUMPI DUP1 PUSH4 0xC3921895 EQ PUSH2 0xE2 JUMPI DUP1 PUSH4 0xD48644BD EQ PUSH2 0x112 JUMPI JUMPDEST PUSH1 0x0 DUP1 REVERT JUMPDEST PUSH2 0x64 PUSH2 0x142 JUMP JUMPDEST PUSH1 0x40 MLOAD PUSH2 0x71 SWAP2 SWAP1 PUSH2 0x440 JUMP JUMPDEST PUSH1 0x40 MLOAD DUP1 SWAP2 SUB SWAP1 RETURN JUMPDEST PUSH2 0x94 PUSH1 0x4 DUP1 CALLDATASIZE SUB DUP2 ADD SWAP1 PUSH2 0x8F SWAP2 SWAP1 PUSH2 0x388 JUMP JUMPDEST PUSH2 0x148 JUMP JUMPDEST PUSH1 0x40 MLOAD PUSH2 0xA5 SWAP6 SWAP5 SWAP4 SWAP3 SWAP2 SWAP1 PUSH2 0x45B JUMP JUMPDEST PUSH1 0x40 MLOAD DUP1 SWAP2 SUB SWAP1 RETURN JUMPDEST PUSH2 0xC8 PUSH1 0x4 DUP1 CALLDATASIZE SUB DUP2 ADD SWAP1 PUSH2 0xC3 SWAP2 SWAP1 PUSH2 0x3B1 JUMP JUMPDEST PUSH2 0x233 JUMP JUMPDEST PUSH1 0x40 MLOAD PUSH2 0xD9 SWAP6 SWAP5 SWAP4 SWAP3 SWAP2 SWAP1 PUSH2 0x45B JUMP JUMPDEST PUSH1 0x40 MLOAD DUP1 SWAP2 SUB SWAP1 RETURN JUMPDEST PUSH2 0xFC PUSH1 0x4 DUP1 CALLDATASIZE SUB DUP2 ADD SWAP1 PUSH2 0xF7 SWAP2 SWAP1 PUSH2 0x388 JUMP JUMPDEST PUSH2 0x32E JUMP JUMPDEST PUSH1 0x40 MLOAD PUSH2 0x109 SWAP2 SWAP1 PUSH2 0x440 JUMP JUMPDEST PUSH1 0x40 MLOAD DUP1 SWAP2 SUB SWAP1 RETURN JUMPDEST PUSH2 0x12C PUSH1 0x4 DUP1 CALLDATASIZE SUB DUP2 ADD SWAP1 PUSH2 0x127 SWAP2 SWAP1 PUSH2 0x3B1 JUMP JUMPDEST PUSH2 0x346 JUMP JUMPDEST PUSH1 0x40 MLOAD PUSH2 0x139 SWAP2 SWAP1 PUSH2 0x440 JUMP JUMPDEST PUSH1 0x40 MLOAD DUP1 SWAP2 SUB SWAP1 RETURN JUMPDEST PUSH1 0x2 SLOAD DUP2 JUMP JUMPDEST PUSH1 0x3 PUSH1 0x20 MSTORE DUP1 PUSH1 0x0 MSTORE PUSH1 0x40 PUSH1 0x0 KECCAK256 PUSH1 0x0 SWAP2 POP SWAP1 POP DUP1 PUSH1 0x0 ADD SLOAD SWAP1 DUP1 PUSH1 0x1 ADD SLOAD SWAP1 DUP1 PUSH1 0x2 ADD DUP1 SLOAD PUSH2 0x177 SWAP1 PUSH2 0x54C JUMP JUMPDEST DUP1 PUSH1 0x1F ADD PUSH1 0x20 DUP1 SWAP2 DIV MUL PUSH1 0x20 ADD PUSH1 0x40 MLOAD SWAP1 DUP2 ADD PUSH1 0x40 MSTORE DUP1 SWAP3 SWAP2 SWAP1 DUP2 DUP2 MSTORE PUSH1 0x20 ADD DUP3 DUP1 SLOAD PUSH2 0x1A3 SWAP1 PUSH2 0x54C JUMP JUMPDEST DUP1 ISZERO PUSH2 0x1F0 JUMPI DUP1 PUSH1 0x1F LT PUSH2 0x1C5 JUMPI PUSH2 0x100 DUP1 DUP4 SLOAD DIV MUL DUP4 MSTORE SWAP2 PUSH1 0x20 ADD SWAP2 PUSH2 0x1F0 JUMP JUMPDEST DUP3 ADD SWAP2 SWAP1 PUSH1 0x0 MSTORE PUSH1 0x20 PUSH1 0x0 KECCAK256 SWAP1 JUMPDEST DUP2 SLOAD DUP2 MSTORE SWAP1 PUSH1 0x1 ADD SWAP1 PUSH1 0x20 ADD DUP1 DUP4 GT PUSH2 0x1D3 JUMPI DUP3 SWAP1 SUB PUSH1 0x1F AND DUP3 ADD SWAP2 JUMPDEST POP POP POP POP POP SWAP1 DUP1 PUSH1 0x3 ADD PUSH1 0x0 SWAP1 SLOAD SWAP1 PUSH2 0x100 EXP SWAP1 DIV PUSH1 0xFF AND SWAP1 DUP1 PUSH1 0x3 ADD PUSH1 0x1 SWAP1 SLOAD SWAP1 PUSH2 0x100 EXP SWAP1 DIV PUSH20 0xFFFFFFFFFFFFFFFFFFFFFFFFFFFFFFFFFFFFFFFF AND SWAP1 POP DUP6 JUMP JUMPDEST PUSH1 0x1 DUP2 DUP2 SLOAD DUP2 LT PUSH2 0x243 JUMPI PUSH1 0x0 DUP1 REVERT JUMPDEST SWAP1 PUSH1 0x0 MSTORE PUSH1 0x20 PUSH1 0x0 KECCAK256 SWAP1 PUSH1 0x4 MUL ADD PUSH1 0x0 SWAP2 POP SWAP1 POP DUP1 PUSH1 0x0 ADD SLOAD SWAP1 DUP1 PUSH1 0x1 ADD SLOAD SWAP1 DUP1 PUSH1 0x2 ADD DUP1 SLOAD PUSH2 0x272 SWAP1 PUSH2 0x54C JUMP JUMPDEST DUP1 PUSH1 0x1F ADD PUSH1 0x20 DUP1 SWAP2 DIV MUL PUSH1 0x20 ADD PUSH1 0x40 MLOAD SWAP1 DUP2 ADD PUSH1 0x40 MSTORE DUP1 SWAP3 SWAP2 SWAP1 DUP2 DUP2 MSTORE PUSH1 0x20 ADD DUP3 DUP1 SLOAD PUSH2 0x29E SWAP1 PUSH2 0x54C JUMP JUMPDEST DUP1 ISZERO PUSH2 0x2EB JUMPI DUP1 PUSH1 0x1F LT PUSH2 0x2C0 JUMPI PUSH2 0x100 DUP1 DUP4 SLOAD DIV MUL DUP4 MSTORE SWAP2 PUSH1 0x20 ADD SWAP2 PUSH2 0x2EB JUMP JUMPDEST DUP3 ADD SWAP2 SWAP1 PUSH1 0x0 MSTORE PUSH1 0x20 PUSH1 0x0 KECCAK256 SWAP1 JUMPDEST DUP2 SLOAD DUP2 MSTORE SWAP1 PUSH1 0x1 ADD SWAP1 PUSH1 0x20 ADD DUP1 DUP4 GT PUSH2 0x2CE JUMPI DUP3 SWAP1 SUB PUSH1 0x1F AND DUP3 ADD SWAP2 JUMPDEST POP POP POP POP POP SWAP1 DUP1 PUSH1 0x3 ADD PUSH1 0x0 SWAP1 SLOAD SWAP1 PUSH2 0x100 EXP SWAP1 DIV PUSH1 0xFF AND SWAP1 DUP1 PUSH1 0x3 ADD PUSH1 0x1 SWAP1 SLOAD SWAP1 PUSH2 0x100 EXP SWAP1 DIV PUSH20 0xFFFFFFFFFFFFFFFFFFFFFFFFFFFFFFFFFFFFFFFF AND SWAP1 POP DUP6 JUMP JUMPDEST PUSH1 0x4 PUSH1 0x20 MSTORE DUP1 PUSH1 0x0 MSTORE PUSH1 0x40 PUSH1 0x0 KECCAK256 PUSH1 0x0 SWAP2 POP SWAP1 POP SLOAD DUP2 JUMP JUMPDEST PUSH1 0x5 PUSH1 0x20 MSTORE DUP1 PUSH1 0x0 MSTORE PUSH1 0x40 PUSH1 0x0 KECCAK256 PUSH1 0x0 SWAP2 POP SWAP1 POP SLOAD DUP2 JUMP JUMPDEST PUSH1 0x0 DUP2 CALLDATALOAD SWAP1 POP PUSH2 0x36D DUP2 PUSH2 0x5BE JUMP JUMPDEST SWAP3 SWAP2 POP POP JUMP JUMPDEST PUSH1 0x0 DUP2 CALLDATALOAD SWAP1 POP PUSH2 0x382 DUP2 PUSH2 0x5D5 JUMP JUMPDEST SWAP3 SWAP2 POP POP JUMP JUMPDEST PUSH1 0x0 PUSH1 0x20 DUP3 DUP5 SUB SLT ISZERO PUSH2 0x39A JUMPI PUSH1 0x0 DUP1 REVERT JUMPDEST PUSH1 0x0 PUSH2 0x3A8 DUP5 DUP3 DUP6 ADD PUSH2 0x35E JUMP JUMPDEST SWAP2 POP POP SWAP3 SWAP2 POP POP JUMP JUMPDEST PUSH1 0x0 PUSH1 0x20 DUP3 DUP5 SUB SLT ISZERO PUSH2 0x3C3 JUMPI PUSH1 0x0 DUP1 REVERT JUMPDEST PUSH1 0x0 PUSH2 0x3D1 DUP5 DUP3 DUP6 ADD PUSH2 0x373 JUMP JUMPDEST SWAP2 POP POP SWAP3 SWAP2 POP POP JUMP JUMPDEST PUSH2 0x3E3 DUP2 PUSH2 0x4D1 JUMP JUMPDEST DUP3 MSTORE POP POP JUMP JUMPDEST PUSH2 0x3F2 DUP2 PUSH2 0x4E3 JUMP JUMPDEST DUP3 MSTORE POP POP JUMP JUMPDEST PUSH1 0x0 PUSH2 0x403 DUP3 PUSH2 0x4B5 JUMP JUMPDEST PUSH2 0x40D DUP2 DUP6 PUSH2 0x4C0 JUMP JUMPDEST SWAP4 POP PUSH2 0x41D DUP2 DUP6 PUSH1 0x20 DUP7 ADD PUSH2 0x519 JUMP JUMPDEST PUSH2 0x426 DUP2 PUSH2 0x5AD JUMP JUMPDEST DUP5 ADD SWAP2 POP POP SWAP3 SWAP2 POP POP JUMP JUMPDEST PUSH2 0x43A DUP2 PUSH2 0x50F JUMP JUMPDEST DUP3 MSTORE POP POP JUMP JUMPDEST PUSH1 0x0 PUSH1 0x20 DUP3 ADD SWAP1 POP PUSH2 0x455 PUSH1 0x0 DUP4 ADD DUP5 PUSH2 0x431 JUMP JUMPDEST SWAP3 SWAP2 POP POP JUMP JUMPDEST PUSH1 0x0 PUSH1 0xA0 DUP3 ADD SWAP1 POP PUSH2 0x470 PUSH1 0x0 DUP4 ADD DUP9 PUSH2 0x431 JUMP JUMPDEST PUSH2 0x47D PUSH1 0x20 DUP4 ADD DUP8 PUSH2 0x431 JUMP JUMPDEST DUP2 DUP2 SUB PUSH1 0x40 DUP4 ADD MSTORE PUSH2 0x48F DUP2 DUP7 PUSH2 0x3F8 JUMP JUMPDEST SWAP1 POP PUSH2 0x49E PUSH1 0x60 DUP4 ADD DUP6 PUSH2 0x3E9 JUMP JUMPDEST PUSH2 0x4AB PUSH1 0x80 DUP4 ADD DUP5 PUSH2 0x3DA JUMP JUMPDEST SWAP7 SWAP6 POP POP POP POP POP POP JUMP JUMPDEST PUSH1 0x0 DUP2 MLOAD SWAP1 POP SWAP2 SWAP1 POP JUMP JUMPDEST PUSH1 0x0 DUP3 DUP3 MSTORE PUSH1 0x20 DUP3 ADD SWAP1 POP SWAP3 SWAP2 POP POP JUMP JUMPDEST PUSH1 0x0 PUSH2 0x4DC DUP3 PUSH2 0x4EF JUMP JUMPDEST SWAP1 POP SWAP2 SWAP1 POP JUMP JUMPDEST PUSH1 0x0 DUP2 ISZERO ISZERO SWAP1 POP SWAP2 SWAP1 POP JUMP JUMPDEST PUSH1 0x0 PUSH20 0xFFFFFFFFFFFFFFFFFFFFFFFFFFFFFFFFFFFFFFFF DUP3 AND SWAP1 POP SWAP2 SWAP1 POP JUMP JUMPDEST PUSH1 0x0 DUP2 SWAP1 POP SWAP2 SWAP1 POP JUMP JUMPDEST PUSH1 0x0 JUMPDEST DUP4 DUP2 LT ISZERO PUSH2 0x537 JUMPI DUP1 DUP3 ADD MLOAD DUP2 DUP5 ADD MSTORE PUSH1 0x20 DUP2 ADD SWAP1 POP PUSH2 0x51C JUMP JUMPDEST DUP4 DUP2 GT ISZERO PUSH2 0x546 JUMPI PUSH1 0x0 DUP5 DUP5 ADD MSTORE JUMPDEST POP POP POP POP JUMP JUMPDEST PUSH1 0x0 PUSH1 0x2 DUP3 DIV SWAP1 POP PUSH1 0x1 DUP3 AND DUP1 PUSH2 0x564 JUMPI PUSH1 0x7F DUP3 AND SWAP2 POP JUMPDEST PUSH1 0x20 DUP3 LT DUP2 EQ ISZERO PUSH2 0x578 JUMPI PUSH2 0x577 PUSH2 0x57E JUMP JUMPDEST JUMPDEST POP SWAP2 SWAP1 POP JUMP JUMPDEST PUSH32 0x4E487B7100000000000000000000000000000000000000000000000000000000 PUSH1 0x0 MSTORE PUSH1 0x22 PUSH1 0x4 MSTORE PUSH1 0x24 PUSH1 0x0 REVERT JUMPDEST PUSH1 0x0 PUSH1 0x1F NOT PUSH1 0x1F DUP4 ADD AND SWAP1 POP SWAP2 SWAP1 POP JUMP JUMPDEST PUSH2 0x5C7 DUP2 PUSH2 0x4D1 JUMP JUMPDEST DUP2 EQ PUSH2 0x5D2 JUMPI PUSH1 0x0 DUP1 REVERT JUMPDEST POP JUMP JUMPDEST PUSH2 0x5DE DUP2 PUSH2 0x50F JUMP JUMPDEST DUP2 EQ PUSH2 0x5E9 JUMPI PUSH1 0x0 DUP1 REVERT JUMPDEST POP JUMP INVALID LOG2 PUSH5 0x6970667358 0x22 SLT KECCAK256 0xC9 COINBASE 0x2E 0xAB CALLER 0x4E ADDMOD 0xB4 EXTCODEHASH PUSH15 0x203CC0B79A9424690FE008193378CC 0x5C 0xFB RETURNDATACOPY MSTORE8 PUSH4 0x1A8F6473 PUSH16 0x6C634300080000330000000000000000 "
				},
				"gasEstimates": {
					"creation": {
						"codeDepositCost": "314000",
						"executionCost": "355",
						"totalCost": "314355"
					},
					"external": {
						"itemToOwner(address)": "infinite",
						"items(uint256)": "infinite",
						"itemsCatIdCount(uint256)": "infinite",
						"itemsOwnerCount(address)": "1558",
						"itemsToSellCount()": "1107"
					}
				},
				"methodIdentifiers": {
					"itemToOwner(address)": "98468acc",
					"items(uint256)": "bfb231d2",
					"itemsCatIdCount(uint256)": "d48644bd",
					"itemsOwnerCount(address)": "c3921895",
					"itemsToSellCount()": "4c389e65"
				}
			},
			"storageLayout": {
				"storage": [
					{
						"astId": 3,
						"contract": "contracts/GeekNft.sol:GeekNft",
						"label": "owner",
						"offset": 0,
						"slot": "0",
						"type": "t_address"
					},
					{
						"astId": 18,
						"contract": "contracts/GeekNft.sol:GeekNft",
						"label": "items",
						"offset": 0,
						"slot": "1",
						"type": "t_array(t_struct(Item)14_storage)dyn_storage"
					},
					{
						"astId": 20,
						"contract": "contracts/GeekNft.sol:GeekNft",
						"label": "itemsToSellCount",
						"offset": 0,
						"slot": "2",
						"type": "t_uint256"
					},
					{
						"astId": 25,
						"contract": "contracts/GeekNft.sol:GeekNft",
						"label": "itemToOwner",
						"offset": 0,
						"slot": "3",
						"type": "t_mapping(t_address,t_struct(Item)14_storage)"
					},
					{
						"astId": 29,
						"contract": "contracts/GeekNft.sol:GeekNft",
						"label": "itemsOwnerCount",
						"offset": 0,
						"slot": "4",
						"type": "t_mapping(t_address,t_uint256)"
					},
					{
						"astId": 33,
						"contract": "contracts/GeekNft.sol:GeekNft",
						"label": "itemsCatIdCount",
						"offset": 0,
						"slot": "5",
						"type": "t_mapping(t_uint256,t_uint256)"
					}
				],
				"types": {
					"t_address": {
						"encoding": "inplace",
						"label": "address",
						"numberOfBytes": "20"
					},
					"t_array(t_struct(Item)14_storage)dyn_storage": {
						"base": "t_struct(Item)14_storage",
						"encoding": "dynamic_array",
						"label": "struct GeekNft.Item[]",
						"numberOfBytes": "32"
					},
					"t_bool": {
						"encoding": "inplace",
						"label": "bool",
						"numberOfBytes": "1"
					},
					"t_mapping(t_address,t_struct(Item)14_storage)": {
						"encoding": "mapping",
						"key": "t_address",
						"label": "mapping(address => struct GeekNft.Item)",
						"numberOfBytes": "32",
						"value": "t_struct(Item)14_storage"
					},
					"t_mapping(t_address,t_uint256)": {
						"encoding": "mapping",
						"key": "t_address",
						"label": "mapping(address => uint256)",
						"numberOfBytes": "32",
						"value": "t_uint256"
					},
					"t_mapping(t_uint256,t_uint256)": {
						"encoding": "mapping",
						"key": "t_uint256",
						"label": "mapping(uint256 => uint256)",
						"numberOfBytes": "32",
						"value": "t_uint256"
					},
					"t_string_storage": {
						"encoding": "bytes",
						"label": "string",
						"numberOfBytes": "32"
					},
					"t_struct(Item)14_storage": {
						"encoding": "inplace",
						"label": "struct GeekNft.Item",
						"members": [
							{
								"astId": 5,
								"contract": "contracts/GeekNft.sol:GeekNft",
								"label": "tokenId",
								"offset": 0,
								"slot": "0",
								"type": "t_uint256"
							},
							{
								"astId": 7,
								"contract": "contracts/GeekNft.sol:GeekNft",
								"label": "price",
								"offset": 0,
								"slot": "1",
								"type": "t_uint256"
							},
							{
								"astId": 9,
								"contract": "contracts/GeekNft.sol:GeekNft",
								"label": "catId",
								"offset": 0,
								"slot": "2",
								"type": "t_string_storage"
							},
							{
								"astId": 11,
								"contract": "contracts/GeekNft.sol:GeekNft",
								"label": "toSell",
								"offset": 0,
								"slot": "3",
								"type": "t_bool"
							},
							{
								"astId": 13,
								"contract": "contracts/GeekNft.sol:GeekNft",
								"label": "owner",
								"offset": 1,
								"slot": "3",
								"type": "t_address"
							}
						],
						"numberOfBytes": "128"
					},
					"t_uint256": {
						"encoding": "inplace",
						"label": "uint256",
						"numberOfBytes": "32"
					}
				}
			},
			"userdoc": {
				"kind": "user",
				"methods": {},
				"version": 1
			}
		}
	}
}