{
	"contracts/GeekNftMarketPlace.sol": {
		"GeekNftMarketPlace": {
			"abi": [
				{
					"inputs": [],
					"stateMutability": "nonpayable",
					"type": "constructor"
				},
				{
					"anonymous": false,
					"inputs": [
						{
							"indexed": false,
							"internalType": "address",
							"name": "nftContract",
							"type": "address"
						},
						{
							"indexed": true,
							"internalType": "uint256",
							"name": "tokenId",
							"type": "uint256"
						},
						{
							"indexed": true,
							"internalType": "address",
							"name": "seller",
							"type": "address"
						},
						{
							"indexed": true,
							"internalType": "address",
							"name": "owner",
							"type": "address"
						},
						{
							"indexed": false,
							"internalType": "uint256",
							"name": "price",
							"type": "uint256"
						}
					],
					"name": "NFTListed",
					"type": "event"
				},
				{
					"anonymous": false,
					"inputs": [
						{
							"indexed": false,
							"internalType": "address",
							"name": "nftContract",
							"type": "address"
						},
						{
							"indexed": true,
							"internalType": "uint256",
							"name": "tokenId",
							"type": "uint256"
						},
						{
							"indexed": true,
							"internalType": "address",
							"name": "seller",
							"type": "address"
						},
						{
							"indexed": true,
							"internalType": "address",
							"name": "owner",
							"type": "address"
						},
						{
							"indexed": false,
							"internalType": "uint256",
							"name": "price",
							"type": "uint256"
						}
					],
					"name": "NFTSold",
					"type": "event"
				},
				{
					"inputs": [],
					"name": "LISTING_FEE",
					"outputs": [
						{
							"internalType": "uint256",
							"name": "",
							"type": "uint256"
						}
					],
					"stateMutability": "view",
					"type": "function"
				},
				{
					"inputs": [
						{
							"internalType": "address",
							"name": "_nftContract",
							"type": "address"
						},
						{
							"internalType": "uint256",
							"name": "_tokenId",
							"type": "uint256"
						}
					],
					"name": "buyNft",
					"outputs": [],
					"stateMutability": "payable",
					"type": "function"
				},
				{
					"inputs": [],
					"name": "getListedNfts",
					"outputs": [
						{
							"components": [
								{
									"internalType": "uint256",
									"name": "tokenId",
									"type": "uint256"
								},
								{
									"internalType": "uint256",
									"name": "price",
									"type": "uint256"
								},
								{
									"internalType": "address payable",
									"name": "seller",
									"type": "address"
								},
								{
									"internalType": "address payable",
									"name": "owner",
									"type": "address"
								},
								{
									"internalType": "address payable",
									"name": "creator",
									"type": "address"
								},
								{
									"internalType": "bool",
									"name": "listed",
									"type": "bool"
								}
							],
							"internalType": "struct GeekNftMarketPlace.NFT[]",
							"name": "",
							"type": "tuple[]"
						}
					],
					"stateMutability": "view",
					"type": "function"
				},
				{
					"inputs": [],
					"name": "getListingFee",
					"outputs": [
						{
							"internalType": "uint256",
							"name": "",
							"type": "uint256"
						}
					],
					"stateMutability": "view",
					"type": "function"
				},
				{
					"inputs": [],
					"name": "getMyCreatedNfts",
					"outputs": [
						{
							"components": [
								{
									"internalType": "uint256",
									"name": "tokenId",
									"type": "uint256"
								},
								{
									"internalType": "uint256",
									"name": "price",
									"type": "uint256"
								},
								{
									"internalType": "address payable",
									"name": "seller",
									"type": "address"
								},
								{
									"internalType": "address payable",
									"name": "owner",
									"type": "address"
								},
								{
									"internalType": "address payable",
									"name": "creator",
									"type": "address"
								},
								{
									"internalType": "bool",
									"name": "listed",
									"type": "bool"
								}
							],
							"internalType": "struct GeekNftMarketPlace.NFT[]",
							"name": "",
							"type": "tuple[]"
						}
					],
					"stateMutability": "view",
					"type": "function"
				},
				{
					"inputs": [],
					"name": "getMyListedNfts",
					"outputs": [
						{
							"components": [
								{
									"internalType": "uint256",
									"name": "tokenId",
									"type": "uint256"
								},
								{
									"internalType": "uint256",
									"name": "price",
									"type": "uint256"
								},
								{
									"internalType": "address payable",
									"name": "seller",
									"type": "address"
								},
								{
									"internalType": "address payable",
									"name": "owner",
									"type": "address"
								},
								{
									"internalType": "address payable",
									"name": "creator",
									"type": "address"
								},
								{
									"internalType": "bool",
									"name": "listed",
									"type": "bool"
								}
							],
							"internalType": "struct GeekNftMarketPlace.NFT[]",
							"name": "",
							"type": "tuple[]"
						}
					],
					"stateMutability": "view",
					"type": "function"
				},
				{
					"inputs": [],
					"name": "getMyOwnedNfts",
					"outputs": [
						{
							"components": [
								{
									"internalType": "uint256",
									"name": "tokenId",
									"type": "uint256"
								},
								{
									"internalType": "uint256",
									"name": "price",
									"type": "uint256"
								},
								{
									"internalType": "address payable",
									"name": "seller",
									"type": "address"
								},
								{
									"internalType": "address payable",
									"name": "owner",
									"type": "address"
								},
								{
									"internalType": "address payable",
									"name": "creator",
									"type": "address"
								},
								{
									"internalType": "bool",
									"name": "listed",
									"type": "bool"
								}
							],
							"internalType": "struct GeekNftMarketPlace.NFT[]",
							"name": "",
							"type": "tuple[]"
						}
					],
					"stateMutability": "view",
					"type": "function"
				},
				{
					"inputs": [
						{
							"internalType": "address",
							"name": "_nftContract",
							"type": "address"
						},
						{
							"internalType": "uint256",
							"name": "_tokenId",
							"type": "uint256"
						}
					],
					"name": "getOwner",
					"outputs": [
						{
							"internalType": "address",
							"name": "",
							"type": "address"
						}
					],
					"stateMutability": "view",
					"type": "function"
				},
				{
					"inputs": [
						{
							"internalType": "address",
							"name": "_nftContract",
							"type": "address"
						},
						{
							"internalType": "uint256",
							"name": "_tokenId",
							"type": "uint256"
						},
						{
							"internalType": "uint256",
							"name": "_price",
							"type": "uint256"
						}
					],
					"name": "listNFT",
					"outputs": [],
					"stateMutability": "payable",
					"type": "function"
				},
				{
					"inputs": [
						{
							"internalType": "address",
							"name": "_nftContract",
							"type": "address"
						},
						{
							"internalType": "uint256",
							"name": "_tokenId",
							"type": "uint256"
						},
						{
							"internalType": "uint256",
							"name": "_price",
							"type": "uint256"
						}
					],
					"name": "resellNFT",
					"outputs": [],
					"stateMutability": "payable",
					"type": "function"
				}
			],
			"devdoc": {
				"kind": "dev",
				"methods": {},
				"version": 1
			},
			"evm": {
				"assembly": "    /* \"contracts/GeekNftMarketPlace.sol\":297:6071  contract GeekNftMarketPlace is ReentrancyGuard {... */\n  mstore(0x40, 0x80)\n    /* \"contracts/GeekNftMarketPlace.sol\":500:511  0.002 ether */\n  0x071afd498d0000\n    /* \"contracts/GeekNftMarketPlace.sol\":474:511  uint public LISTING_FEE = 0.002 ether */\n  0x03\n  sstore\n    /* \"contracts/GeekNftMarketPlace.sol\":1033:1099  constructor() {... */\n  callvalue\n  dup1\n  iszero\n  tag_1\n  jumpi\n  0x00\n  dup1\n  revert\ntag_1:\n  pop\n    /* \"contracts/RenntrancyGuard.sol\":128:129  1 */\n  0x01\n    /* \"contracts/RenntrancyGuard.sol\":233:240  _status */\n  0x00\n    /* \"contracts/RenntrancyGuard.sol\":233:255  _status = _NOT_ENTERED */\n  dup2\n  swap1\n  sstore\n  pop\n    /* \"contracts/GeekNftMarketPlace.sol\":1081:1091  msg.sender */\n  caller\n    /* \"contracts/GeekNftMarketPlace.sol\":1057:1070  _marketOwwner */\n  0x04\n  0x00\n    /* \"contracts/GeekNftMarketPlace.sol\":1057:1092  _marketOwwner = payable(msg.sender) */\n  0x0100\n  exp\n  dup2\n  sload\n  dup2\n  0xffffffffffffffffffffffffffffffffffffffff\n  mul\n  not\n  and\n  swap1\n  dup4\n  0xffffffffffffffffffffffffffffffffffffffff\n  and\n  mul\n  or\n  swap1\n  sstore\n  pop\n    /* \"contracts/GeekNftMarketPlace.sol\":297:6071  contract GeekNftMarketPlace is ReentrancyGuard {... */\n  dataSize(sub_0)\n  dup1\n  dataOffset(sub_0)\n  0x00\n  codecopy\n  0x00\n  return\nstop\n\nsub_0: assembly {\n        /* \"contracts/GeekNftMarketPlace.sol\":297:6071  contract GeekNftMarketPlace is ReentrancyGuard {... */\n      mstore(0x40, 0x80)\n      jumpi(tag_1, lt(calldatasize, 0x04))\n      shr(0xe0, calldataload(0x00))\n      dup1\n      0x8492095a\n      gt\n      tag_12\n      jumpi\n      dup1\n      0x8492095a\n      eq\n      tag_7\n      jumpi\n      dup1\n      0x8d6cb3fb\n      eq\n      tag_8\n      jumpi\n      dup1\n      0xa46b5c5a\n      eq\n      tag_9\n      jumpi\n      dup1\n      0xad05f1b4\n      eq\n      tag_10\n      jumpi\n      dup1\n      0xb8fe6abe\n      eq\n      tag_11\n      jumpi\n      jump(tag_1)\n    tag_12:\n      dup1\n      0x04935694\n      eq\n      tag_2\n      jumpi\n      dup1\n      0x1f4cc4db\n      eq\n      tag_3\n      jumpi\n      dup1\n      0x2b86ae38\n      eq\n      tag_4\n      jumpi\n      dup1\n      0x2f634a90\n      eq\n      tag_5\n      jumpi\n      dup1\n      0x4ddf4f8f\n      eq\n      tag_6\n      jumpi\n    tag_1:\n      0x00\n      dup1\n      revert\n        /* \"contracts/GeekNftMarketPlace.sol\":2969:3586  function resellNFT(address _nftContract, uint _tokenId, uint _price) public payable nonReentrant priceIsGreaterThanZero(_price) valueIsEqualToFees{... */\n    tag_2:\n      tag_13\n      0x04\n      dup1\n      calldatasize\n      sub\n      dup2\n      add\n      swap1\n      tag_14\n      swap2\n      swap1\n      tag_15\n      jump\t// in\n    tag_14:\n      tag_16\n      jump\t// in\n    tag_13:\n      stop\n        /* \"contracts/GeekNftMarketPlace.sol\":4921:5572  function getMyListedNfts() public view returns (NFT[] memory) {... */\n    tag_3:\n      callvalue\n      dup1\n      iszero\n      tag_17\n      jumpi\n      0x00\n      dup1\n      revert\n    tag_17:\n      pop\n      tag_18\n      tag_19\n      jump\t// in\n    tag_18:\n      mload(0x40)\n      tag_20\n      swap2\n      swap1\n      tag_21\n      jump\t// in\n    tag_20:\n      mload(0x40)\n      dup1\n      swap2\n      sub\n      swap1\n      return\n        /* \"contracts/GeekNftMarketPlace.sol\":474:511  uint public LISTING_FEE = 0.002 ether */\n    tag_4:\n      callvalue\n      dup1\n      iszero\n      tag_22\n      jumpi\n      0x00\n      dup1\n      revert\n    tag_22:\n      pop\n      tag_23\n      tag_24\n      jump\t// in\n    tag_23:\n      mload(0x40)\n      tag_25\n      swap2\n      swap1\n      tag_26\n      jump\t// in\n    tag_25:\n      mload(0x40)\n      dup1\n      swap2\n      sub\n      swap1\n      return\n        /* \"contracts/GeekNftMarketPlace.sol\":1460:1616  function getOwner(address _nftContract, uint _tokenId) public view returns (address){... */\n    tag_5:\n      callvalue\n      dup1\n      iszero\n      tag_27\n      jumpi\n      0x00\n      dup1\n      revert\n    tag_27:\n      pop\n      tag_28\n      0x04\n      dup1\n      calldatasize\n      sub\n      dup2\n      add\n      swap1\n      tag_29\n      swap2\n      swap1\n      tag_30\n      jump\t// in\n    tag_29:\n      tag_31\n      jump\t// in\n    tag_28:\n      mload(0x40)\n      tag_32\n      swap2\n      swap1\n      tag_33\n      jump\t// in\n    tag_32:\n      mload(0x40)\n      dup1\n      swap2\n      sub\n      swap1\n      return\n        /* \"contracts/GeekNftMarketPlace.sol\":2294:2914  function buyNft(address _nftContract, uint _tokenId) public payable nonReentrant{... */\n    tag_6:\n      tag_34\n      0x04\n      dup1\n      calldatasize\n      sub\n      dup2\n      add\n      swap1\n      tag_35\n      swap2\n      swap1\n      tag_30\n      jump\t// in\n    tag_35:\n      tag_36\n      jump\t// in\n    tag_34:\n      stop\n        /* \"contracts/GeekNftMarketPlace.sol\":4270:4880  function getMyCreatedNfts() public view returns (NFT[] memory) {... */\n    tag_7:\n      callvalue\n      dup1\n      iszero\n      tag_37\n      jumpi\n      0x00\n      dup1\n      revert\n    tag_37:\n      pop\n      tag_38\n      tag_39\n      jump\t// in\n    tag_38:\n      mload(0x40)\n      tag_40\n      swap2\n      swap1\n      tag_21\n      jump\t// in\n    tag_40:\n      mload(0x40)\n      dup1\n      swap2\n      sub\n      swap1\n      return\n        /* \"contracts/GeekNftMarketPlace.sol\":5578:6069  function getListedNfts() public view returns (NFT[] memory) {... */\n    tag_8:\n      callvalue\n      dup1\n      iszero\n      tag_41\n      jumpi\n      0x00\n      dup1\n      revert\n    tag_41:\n      pop\n      tag_42\n      tag_43\n      jump\t// in\n    tag_42:\n      mload(0x40)\n      tag_44\n      swap2\n      swap1\n      tag_21\n      jump\t// in\n    tag_44:\n      mload(0x40)\n      dup1\n      swap2\n      sub\n      swap1\n      return\n        /* \"contracts/GeekNftMarketPlace.sol\":3625:4229  function getMyOwnedNfts() public view returns (NFT[] memory) {... */\n    tag_9:\n      callvalue\n      dup1\n      iszero\n      tag_45\n      jumpi\n      0x00\n      dup1\n      revert\n    tag_45:\n      pop\n      tag_46\n      tag_47\n      jump\t// in\n    tag_46:\n      mload(0x40)\n      tag_48\n      swap2\n      swap1\n      tag_21\n      jump\t// in\n    tag_48:\n      mload(0x40)\n      dup1\n      swap2\n      sub\n      swap1\n      return\n        /* \"contracts/GeekNftMarketPlace.sol\":1661:2270  function listNFT(address _nftContract, uint _tokenId, uint _price) public payable nonReentrant priceIsGreaterThanZero(_price) valueIsEqualToFees{... */\n    tag_10:\n      tag_49\n      0x04\n      dup1\n      calldatasize\n      sub\n      dup2\n      add\n      swap1\n      tag_50\n      swap2\n      swap1\n      tag_15\n      jump\t// in\n    tag_50:\n      tag_51\n      jump\t// in\n    tag_49:\n      stop\n        /* \"contracts/GeekNftMarketPlace.sol\":1368:1454  function getListingFee() public view returns (uint){... */\n    tag_11:\n      callvalue\n      dup1\n      iszero\n      tag_52\n      jumpi\n      0x00\n      dup1\n      revert\n    tag_52:\n      pop\n      tag_53\n      tag_54\n      jump\t// in\n    tag_53:\n      mload(0x40)\n      tag_55\n      swap2\n      swap1\n      tag_26\n      jump\t// in\n    tag_55:\n      mload(0x40)\n      dup1\n      swap2\n      sub\n      swap1\n      return\n        /* \"contracts/GeekNftMarketPlace.sol\":2969:3586  function resellNFT(address _nftContract, uint _tokenId, uint _price) public payable nonReentrant priceIsGreaterThanZero(_price) valueIsEqualToFees{... */\n    tag_16:\n        /* \"contracts/RenntrancyGuard.sol\":171:172  2 */\n      0x02\n        /* \"contracts/RenntrancyGuard.sol\":310:317  _status */\n      sload(0x00)\n        /* \"contracts/RenntrancyGuard.sol\":310:329  _status != _ENTERED */\n      eq\n      iszero\n        /* \"contracts/RenntrancyGuard.sol\":302:365  require(_status != _ENTERED, \"ReentrancyGuard: reentrant call\") */\n      tag_57\n      jumpi\n      mload(0x40)\n      0x08c379a000000000000000000000000000000000000000000000000000000000\n      dup2\n      mstore\n      0x04\n      add\n      tag_58\n      swap1\n      tag_59\n      jump\t// in\n    tag_58:\n      mload(0x40)\n      dup1\n      swap2\n      sub\n      swap1\n      revert\n    tag_57:\n        /* \"contracts/RenntrancyGuard.sol\":171:172  2 */\n      0x02\n        /* \"contracts/RenntrancyGuard.sol\":375:382  _status */\n      0x00\n        /* \"contracts/RenntrancyGuard.sol\":375:393  _status = _ENTERED */\n      dup2\n      swap1\n      sstore\n      pop\n        /* \"contracts/GeekNftMarketPlace.sol\":3089:3095  _price */\n      dup1\n        /* \"contracts/GeekNftMarketPlace.sol\":1177:1178  0 */\n      0x00\n        /* \"contracts/GeekNftMarketPlace.sol\":1168:1174  _price */\n      dup2\n        /* \"contracts/GeekNftMarketPlace.sol\":1168:1178  _price > 0 */\n      gt\n        /* \"contracts/GeekNftMarketPlace.sol\":1160:1211  require(_price > 0, \"Price must be at least 1 wei\") */\n      tag_61\n      jumpi\n      mload(0x40)\n      0x08c379a000000000000000000000000000000000000000000000000000000000\n      dup2\n      mstore\n      0x04\n      add\n      tag_62\n      swap1\n      tag_63\n      jump\t// in\n    tag_62:\n      mload(0x40)\n      dup1\n      swap2\n      sub\n      swap1\n      revert\n    tag_61:\n        /* \"contracts/GeekNftMarketPlace.sol\":1296:1307  LISTING_FEE */\n      sload(0x03)\n        /* \"contracts/GeekNftMarketPlace.sol\":1283:1292  msg.value */\n      callvalue\n        /* \"contracts/GeekNftMarketPlace.sol\":1283:1307  msg.value == LISTING_FEE */\n      eq\n        /* \"contracts/GeekNftMarketPlace.sol\":1275:1344  require(msg.value == LISTING_FEE, \"Not enough ether for listing fee\") */\n      tag_65\n      jumpi\n      mload(0x40)\n      0x08c379a000000000000000000000000000000000000000000000000000000000\n      dup2\n      mstore\n      0x04\n      add\n      tag_66\n      swap1\n      tag_67\n      jump\t// in\n    tag_66:\n      mload(0x40)\n      dup1\n      swap2\n      sub\n      swap1\n      revert\n    tag_65:\n        /* \"contracts/GeekNftMarketPlace.sol\":3125:3140  NFT storage nft */\n      0x00\n        /* \"contracts/GeekNftMarketPlace.sol\":3143:3151  _idToNFT */\n      0x05\n        /* \"contracts/GeekNftMarketPlace.sol\":3143:3161  _idToNFT[_tokenId] */\n      0x00\n        /* \"contracts/GeekNftMarketPlace.sol\":3152:3160  _tokenId */\n      dup6\n        /* \"contracts/GeekNftMarketPlace.sol\":3143:3161  _idToNFT[_tokenId] */\n      dup2\n      mstore\n      0x20\n      add\n      swap1\n      dup2\n      mstore\n      0x20\n      add\n      0x00\n      keccak256\n        /* \"contracts/GeekNftMarketPlace.sol\":3125:3161  NFT storage nft = _idToNFT[_tokenId] */\n      swap1\n      pop\n        /* \"contracts/GeekNftMarketPlace.sol\":3202:3203  0 */\n      0x00\n        /* \"contracts/GeekNftMarketPlace.sol\":3180:3204  nft.owner  != address(0) */\n      0xffffffffffffffffffffffffffffffffffffffff\n      and\n        /* \"contracts/GeekNftMarketPlace.sol\":3180:3183  nft */\n      dup2\n        /* \"contracts/GeekNftMarketPlace.sol\":3180:3189  nft.owner */\n      0x03\n      add\n      0x00\n      swap1\n      sload\n      swap1\n      0x0100\n      exp\n      swap1\n      div\n      0xffffffffffffffffffffffffffffffffffffffff\n      and\n        /* \"contracts/GeekNftMarketPlace.sol\":3180:3204  nft.owner  != address(0) */\n      0xffffffffffffffffffffffffffffffffffffffff\n      and\n      eq\n      iszero\n        /* \"contracts/GeekNftMarketPlace.sol\":3172:3222  require(nft.owner  != address(0), \"NFT not found\") */\n      tag_69\n      jumpi\n      mload(0x40)\n      0x08c379a000000000000000000000000000000000000000000000000000000000\n      dup2\n      mstore\n      0x04\n      add\n      tag_70\n      swap1\n      tag_71\n      jump\t// in\n    tag_70:\n      mload(0x40)\n      dup1\n      swap2\n      sub\n      swap1\n      revert\n    tag_69:\n        /* \"contracts/GeekNftMarketPlace.sol\":3250:3262  _nftContract */\n      dup5\n        /* \"contracts/GeekNftMarketPlace.sol\":3233:3276  GeekNftInterface(_nftContract).transferFrom */\n      0xffffffffffffffffffffffffffffffffffffffff\n      and\n      0x23b872dd\n        /* \"contracts/GeekNftMarketPlace.sol\":3277:3287  msg.sender */\n      caller\n        /* \"contracts/GeekNftMarketPlace.sol\":3297:3301  this */\n      address\n        /* \"contracts/GeekNftMarketPlace.sol\":3304:3312  _tokenId */\n      dup8\n        /* \"contracts/GeekNftMarketPlace.sol\":3233:3313  GeekNftInterface(_nftContract).transferFrom(msg.sender, address(this), _tokenId) */\n      mload(0x40)\n      dup5\n      0xffffffff\n      and\n      0xe0\n      shl\n      dup2\n      mstore\n      0x04\n      add\n      tag_72\n      swap4\n      swap3\n      swap2\n      swap1\n      tag_73\n      jump\t// in\n    tag_72:\n      0x00\n      mload(0x40)\n      dup1\n      dup4\n      sub\n      dup2\n      0x00\n      dup8\n      dup1\n      extcodesize\n      iszero\n      dup1\n      iszero\n      tag_74\n      jumpi\n      0x00\n      dup1\n      revert\n    tag_74:\n      pop\n      gas\n      call\n      iszero\n      dup1\n      iszero\n      tag_76\n      jumpi\n      returndatasize\n      0x00\n      dup1\n      returndatacopy\n      revert(0x00, returndatasize)\n    tag_76:\n      pop\n      pop\n      pop\n      pop\n        /* \"contracts/GeekNftMarketPlace.sol\":3345:3355  msg.sender */\n      caller\n        /* \"contracts/GeekNftMarketPlace.sol\":3324:3327  nft */\n      dup2\n        /* \"contracts/GeekNftMarketPlace.sol\":3324:3334  nft.seller */\n      0x02\n      add\n      0x00\n        /* \"contracts/GeekNftMarketPlace.sol\":3324:3356  nft.seller = payable(msg.sender) */\n      0x0100\n      exp\n      dup2\n      sload\n      dup2\n      0xffffffffffffffffffffffffffffffffffffffff\n      mul\n      not\n      and\n      swap1\n      dup4\n      0xffffffffffffffffffffffffffffffffffffffff\n      and\n      mul\n      or\n      swap1\n      sstore\n      pop\n        /* \"contracts/GeekNftMarketPlace.sol\":3394:3398  this */\n      address\n        /* \"contracts/GeekNftMarketPlace.sol\":3366:3369  nft */\n      dup2\n        /* \"contracts/GeekNftMarketPlace.sol\":3366:3375  nft.owner */\n      0x03\n      add\n      0x00\n        /* \"contracts/GeekNftMarketPlace.sol\":3366:3400  nft.owner = payable(address(this)) */\n      0x0100\n      exp\n      dup2\n      sload\n      dup2\n      0xffffffffffffffffffffffffffffffffffffffff\n      mul\n      not\n      and\n      swap1\n      dup4\n      0xffffffffffffffffffffffffffffffffffffffff\n      and\n      mul\n      or\n      swap1\n      sstore\n      pop\n        /* \"contracts/GeekNftMarketPlace.sol\":3423:3427  true */\n      0x01\n        /* \"contracts/GeekNftMarketPlace.sol\":3410:3413  nft */\n      dup2\n        /* \"contracts/GeekNftMarketPlace.sol\":3410:3420  nft.listed */\n      0x04\n      add\n      0x14\n        /* \"contracts/GeekNftMarketPlace.sol\":3410:3427  nft.listed = true */\n      0x0100\n      exp\n      dup2\n      sload\n      dup2\n      0xff\n      mul\n      not\n      and\n      swap1\n      dup4\n      iszero\n      iszero\n      mul\n      or\n      swap1\n      sstore\n      pop\n        /* \"contracts/GeekNftMarketPlace.sol\":3449:3455  _price */\n      dup3\n        /* \"contracts/GeekNftMarketPlace.sol\":3437:3440  nft */\n      dup2\n        /* \"contracts/GeekNftMarketPlace.sol\":3437:3446  nft.price */\n      0x01\n      add\n        /* \"contracts/GeekNftMarketPlace.sol\":3437:3455  nft.price = _price */\n      dup2\n      swap1\n      sstore\n      pop\n        /* \"contracts/GeekNftMarketPlace.sol\":3466:3487  _nftsSold.decrement() */\n      tag_77\n        /* \"contracts/GeekNftMarketPlace.sol\":3466:3475  _nftsSold */\n      0x01\n        /* \"contracts/GeekNftMarketPlace.sol\":3466:3485  _nftsSold.decrement */\n      tag_78\n        /* \"contracts/GeekNftMarketPlace.sol\":3466:3487  _nftsSold.decrement() */\n      jump\t// in\n    tag_77:\n        /* \"contracts/GeekNftMarketPlace.sol\":3565:3569  this */\n      address\n        /* \"contracts/GeekNftMarketPlace.sol\":3511:3579  NFTListed(_nftContract, _tokenId, msg.sender, address(this), _price) */\n      0xffffffffffffffffffffffffffffffffffffffff\n      and\n        /* \"contracts/GeekNftMarketPlace.sol\":3545:3555  msg.sender */\n      caller\n        /* \"contracts/GeekNftMarketPlace.sol\":3511:3579  NFTListed(_nftContract, _tokenId, msg.sender, address(this), _price) */\n      0xffffffffffffffffffffffffffffffffffffffff\n      and\n        /* \"contracts/GeekNftMarketPlace.sol\":3535:3543  _tokenId */\n      dup6\n        /* \"contracts/GeekNftMarketPlace.sol\":3511:3579  NFTListed(_nftContract, _tokenId, msg.sender, address(this), _price) */\n      0xa0c6c0d02d86fdacecbaa5fdf5894bab204e31a778250474108540733a9b8d19\n        /* \"contracts/GeekNftMarketPlace.sol\":3521:3533  _nftContract */\n      dup9\n        /* \"contracts/GeekNftMarketPlace.sol\":3572:3578  _price */\n      dup8\n        /* \"contracts/GeekNftMarketPlace.sol\":3511:3579  NFTListed(_nftContract, _tokenId, msg.sender, address(this), _price) */\n      mload(0x40)\n      tag_79\n      swap3\n      swap2\n      swap1\n      tag_80\n      jump\t// in\n    tag_79:\n      mload(0x40)\n      dup1\n      swap2\n      sub\n      swap1\n      log4\n        /* \"contracts/GeekNftMarketPlace.sol\":3115:3586  {... */\n      pop\n        /* \"contracts/RenntrancyGuard.sol\":403:404  _ */\n      pop\n        /* \"contracts/RenntrancyGuard.sol\":128:129  1 */\n      0x01\n        /* \"contracts/RenntrancyGuard.sol\":414:421  _status */\n      0x00\n        /* \"contracts/RenntrancyGuard.sol\":414:436  _status = _NOT_ENTERED */\n      dup2\n      swap1\n      sstore\n      pop\n        /* \"contracts/GeekNftMarketPlace.sol\":2969:3586  function resellNFT(address _nftContract, uint _tokenId, uint _price) public payable nonReentrant priceIsGreaterThanZero(_price) valueIsEqualToFees{... */\n      pop\n      pop\n      pop\n      jump\t// out\n        /* \"contracts/GeekNftMarketPlace.sol\":4921:5572  function getMyListedNfts() public view returns (NFT[] memory) {... */\n    tag_19:\n        /* \"contracts/GeekNftMarketPlace.sol\":4969:4981  NFT[] memory */\n      0x60\n        /* \"contracts/GeekNftMarketPlace.sol\":4993:5007  uint nftsCount */\n      0x00\n        /* \"contracts/GeekNftMarketPlace.sol\":5010:5030  _nftsCount.current() */\n      tag_82\n        /* \"contracts/GeekNftMarketPlace.sol\":5010:5020  _nftsCount */\n      0x02\n        /* \"contracts/GeekNftMarketPlace.sol\":5010:5028  _nftsCount.current */\n      tag_83\n        /* \"contracts/GeekNftMarketPlace.sol\":5010:5030  _nftsCount.current() */\n      jump\t// in\n    tag_82:\n        /* \"contracts/GeekNftMarketPlace.sol\":4993:5030  uint nftsCount = _nftsCount.current() */\n      swap1\n      pop\n        /* \"contracts/GeekNftMarketPlace.sol\":5040:5056  uint myNftsCount */\n      0x00\n        /* \"contracts/GeekNftMarketPlace.sol\":5075:5081  uint i */\n      dup1\n        /* \"contracts/GeekNftMarketPlace.sol\":5084:5085  1 */\n      0x01\n        /* \"contracts/GeekNftMarketPlace.sol\":5075:5085  uint i = 1 */\n      swap1\n      pop\n        /* \"contracts/GeekNftMarketPlace.sol\":5070:5238  for (uint i = 1; i <= nftsCount; i++) {... */\n    tag_84:\n        /* \"contracts/GeekNftMarketPlace.sol\":5092:5101  nftsCount */\n      dup3\n        /* \"contracts/GeekNftMarketPlace.sol\":5087:5088  i */\n      dup2\n        /* \"contracts/GeekNftMarketPlace.sol\":5087:5101  i <= nftsCount */\n      gt\n        /* \"contracts/GeekNftMarketPlace.sol\":5070:5238  for (uint i = 1; i <= nftsCount; i++) {... */\n      tag_85\n      jumpi\n        /* \"contracts/GeekNftMarketPlace.sol\":5147:5157  msg.sender */\n      caller\n        /* \"contracts/GeekNftMarketPlace.sol\":5125:5157  _idToNFT[i].seller == msg.sender */\n      0xffffffffffffffffffffffffffffffffffffffff\n      and\n        /* \"contracts/GeekNftMarketPlace.sol\":5125:5133  _idToNFT */\n      0x05\n        /* \"contracts/GeekNftMarketPlace.sol\":5125:5136  _idToNFT[i] */\n      0x00\n        /* \"contracts/GeekNftMarketPlace.sol\":5134:5135  i */\n      dup4\n        /* \"contracts/GeekNftMarketPlace.sol\":5125:5136  _idToNFT[i] */\n      dup2\n      mstore\n      0x20\n      add\n      swap1\n      dup2\n      mstore\n      0x20\n      add\n      0x00\n      keccak256\n        /* \"contracts/GeekNftMarketPlace.sol\":5125:5143  _idToNFT[i].seller */\n      0x02\n      add\n      0x00\n      swap1\n      sload\n      swap1\n      0x0100\n      exp\n      swap1\n      div\n      0xffffffffffffffffffffffffffffffffffffffff\n      and\n        /* \"contracts/GeekNftMarketPlace.sol\":5125:5157  _idToNFT[i].seller == msg.sender */\n      0xffffffffffffffffffffffffffffffffffffffff\n      and\n      eq\n        /* \"contracts/GeekNftMarketPlace.sol\":5125:5179  _idToNFT[i].seller == msg.sender && _idToNFT[i].listed */\n      dup1\n      iszero\n      tag_87\n      jumpi\n      pop\n        /* \"contracts/GeekNftMarketPlace.sol\":5161:5169  _idToNFT */\n      0x05\n        /* \"contracts/GeekNftMarketPlace.sol\":5161:5172  _idToNFT[i] */\n      0x00\n        /* \"contracts/GeekNftMarketPlace.sol\":5170:5171  i */\n      dup3\n        /* \"contracts/GeekNftMarketPlace.sol\":5161:5172  _idToNFT[i] */\n      dup2\n      mstore\n      0x20\n      add\n      swap1\n      dup2\n      mstore\n      0x20\n      add\n      0x00\n      keccak256\n        /* \"contracts/GeekNftMarketPlace.sol\":5161:5179  _idToNFT[i].listed */\n      0x04\n      add\n      0x14\n      swap1\n      sload\n      swap1\n      0x0100\n      exp\n      swap1\n      div\n      0xff\n      and\n        /* \"contracts/GeekNftMarketPlace.sol\":5125:5179  _idToNFT[i].seller == msg.sender && _idToNFT[i].listed */\n    tag_87:\n        /* \"contracts/GeekNftMarketPlace.sol\":5122:5228  if(_idToNFT[i].seller == msg.sender && _idToNFT[i].listed) {... */\n      iszero\n      tag_88\n      jumpi\n        /* \"contracts/GeekNftMarketPlace.sol\":5199:5213  myNftsCount ++ */\n      dup2\n      dup1\n      tag_89\n      swap1\n      tag_90\n      jump\t// in\n    tag_89:\n      swap3\n      pop\n      pop\n        /* \"contracts/GeekNftMarketPlace.sol\":5122:5228  if(_idToNFT[i].seller == msg.sender && _idToNFT[i].listed) {... */\n    tag_88:\n        /* \"contracts/GeekNftMarketPlace.sol\":5103:5106  i++ */\n      dup1\n      dup1\n      tag_91\n      swap1\n      tag_90\n      jump\t// in\n    tag_91:\n      swap2\n      pop\n      pop\n        /* \"contracts/GeekNftMarketPlace.sol\":5070:5238  for (uint i = 1; i <= nftsCount; i++) {... */\n      jump(tag_84)\n    tag_85:\n      pop\n        /* \"contracts/GeekNftMarketPlace.sol\":5248:5267  NFT[] memory myNfts */\n      0x00\n        /* \"contracts/GeekNftMarketPlace.sol\":5280:5291  myNftsCount */\n      dup2\n        /* \"contracts/GeekNftMarketPlace.sol\":5270:5292  new NFT[](myNftsCount) */\n      0xffffffffffffffff\n      dup2\n      gt\n      iszero\n      tag_92\n      jumpi\n      tag_93\n      tag_94\n      jump\t// in\n    tag_93:\n    tag_92:\n      mload(0x40)\n      swap1\n      dup1\n      dup3\n      mstore\n      dup1\n      0x20\n      mul\n      0x20\n      add\n      dup3\n      add\n      0x40\n      mstore\n      dup1\n      iszero\n      tag_95\n      jumpi\n      dup2\n      0x20\n      add\n    tag_96:\n      tag_97\n      tag_98\n      jump\t// in\n    tag_97:\n      dup2\n      mstore\n      0x20\n      add\n      swap1\n      0x01\n      swap1\n      sub\n      swap1\n      dup2\n      tag_96\n      jumpi\n      swap1\n      pop\n    tag_95:\n      pop\n        /* \"contracts/GeekNftMarketPlace.sol\":5248:5292  NFT[] memory myNfts = new NFT[](myNftsCount) */\n      swap1\n      pop\n        /* \"contracts/GeekNftMarketPlace.sol\":5302:5315  uint nftIndex */\n      0x00\n        /* \"contracts/GeekNftMarketPlace.sol\":5334:5340  uint i */\n      dup1\n        /* \"contracts/GeekNftMarketPlace.sol\":5343:5344  1 */\n      0x01\n        /* \"contracts/GeekNftMarketPlace.sol\":5334:5344  uint i = 1 */\n      swap1\n      pop\n        /* \"contracts/GeekNftMarketPlace.sol\":5329:5542  for (uint i = 1; i <= nftsCount; i++) {... */\n    tag_99:\n        /* \"contracts/GeekNftMarketPlace.sol\":5351:5360  nftsCount */\n      dup5\n        /* \"contracts/GeekNftMarketPlace.sol\":5346:5347  i */\n      dup2\n        /* \"contracts/GeekNftMarketPlace.sol\":5346:5360  i <= nftsCount */\n      gt\n        /* \"contracts/GeekNftMarketPlace.sol\":5329:5542  for (uint i = 1; i <= nftsCount; i++) {... */\n      tag_100\n      jumpi\n        /* \"contracts/GeekNftMarketPlace.sol\":5406:5416  msg.sender */\n      caller\n        /* \"contracts/GeekNftMarketPlace.sol\":5384:5416  _idToNFT[i].seller == msg.sender */\n      0xffffffffffffffffffffffffffffffffffffffff\n      and\n        /* \"contracts/GeekNftMarketPlace.sol\":5384:5392  _idToNFT */\n      0x05\n        /* \"contracts/GeekNftMarketPlace.sol\":5384:5395  _idToNFT[i] */\n      0x00\n        /* \"contracts/GeekNftMarketPlace.sol\":5393:5394  i */\n      dup4\n        /* \"contracts/GeekNftMarketPlace.sol\":5384:5395  _idToNFT[i] */\n      dup2\n      mstore\n      0x20\n      add\n      swap1\n      dup2\n      mstore\n      0x20\n      add\n      0x00\n      keccak256\n        /* \"contracts/GeekNftMarketPlace.sol\":5384:5402  _idToNFT[i].seller */\n      0x02\n      add\n      0x00\n      swap1\n      sload\n      swap1\n      0x0100\n      exp\n      swap1\n      div\n      0xffffffffffffffffffffffffffffffffffffffff\n      and\n        /* \"contracts/GeekNftMarketPlace.sol\":5384:5416  _idToNFT[i].seller == msg.sender */\n      0xffffffffffffffffffffffffffffffffffffffff\n      and\n      eq\n        /* \"contracts/GeekNftMarketPlace.sol\":5384:5438  _idToNFT[i].seller == msg.sender && _idToNFT[i].listed */\n      dup1\n      iszero\n      tag_102\n      jumpi\n      pop\n        /* \"contracts/GeekNftMarketPlace.sol\":5420:5428  _idToNFT */\n      0x05\n        /* \"contracts/GeekNftMarketPlace.sol\":5420:5431  _idToNFT[i] */\n      0x00\n        /* \"contracts/GeekNftMarketPlace.sol\":5429:5430  i */\n      dup3\n        /* \"contracts/GeekNftMarketPlace.sol\":5420:5431  _idToNFT[i] */\n      dup2\n      mstore\n      0x20\n      add\n      swap1\n      dup2\n      mstore\n      0x20\n      add\n      0x00\n      keccak256\n        /* \"contracts/GeekNftMarketPlace.sol\":5420:5438  _idToNFT[i].listed */\n      0x04\n      add\n      0x14\n      swap1\n      sload\n      swap1\n      0x0100\n      exp\n      swap1\n      div\n      0xff\n      and\n        /* \"contracts/GeekNftMarketPlace.sol\":5384:5438  _idToNFT[i].seller == msg.sender && _idToNFT[i].listed */\n    tag_102:\n        /* \"contracts/GeekNftMarketPlace.sol\":5381:5532  if(_idToNFT[i].seller == msg.sender && _idToNFT[i].listed) {... */\n      iszero\n      tag_103\n      jumpi\n        /* \"contracts/GeekNftMarketPlace.sol\":5477:5485  _idToNFT */\n      0x05\n        /* \"contracts/GeekNftMarketPlace.sol\":5477:5488  _idToNFT[i] */\n      0x00\n        /* \"contracts/GeekNftMarketPlace.sol\":5486:5487  i */\n      dup3\n        /* \"contracts/GeekNftMarketPlace.sol\":5477:5488  _idToNFT[i] */\n      dup2\n      mstore\n      0x20\n      add\n      swap1\n      dup2\n      mstore\n      0x20\n      add\n      0x00\n      keccak256\n        /* \"contracts/GeekNftMarketPlace.sol\":5458:5488  myNfts[nftIndex] = _idToNFT[i] */\n      mload(0x40)\n      dup1\n      0xc0\n      add\n      0x40\n      mstore\n      swap1\n      dup2\n      0x00\n      dup3\n      add\n      sload\n      dup2\n      mstore\n      0x20\n      add\n      0x01\n      dup3\n      add\n      sload\n      dup2\n      mstore\n      0x20\n      add\n      0x02\n      dup3\n      add\n      0x00\n      swap1\n      sload\n      swap1\n      0x0100\n      exp\n      swap1\n      div\n      0xffffffffffffffffffffffffffffffffffffffff\n      and\n      0xffffffffffffffffffffffffffffffffffffffff\n      and\n      0xffffffffffffffffffffffffffffffffffffffff\n      and\n      dup2\n      mstore\n      0x20\n      add\n      0x03\n      dup3\n      add\n      0x00\n      swap1\n      sload\n      swap1\n      0x0100\n      exp\n      swap1\n      div\n      0xffffffffffffffffffffffffffffffffffffffff\n      and\n      0xffffffffffffffffffffffffffffffffffffffff\n      and\n      0xffffffffffffffffffffffffffffffffffffffff\n      and\n      dup2\n      mstore\n      0x20\n      add\n      0x04\n      dup3\n      add\n      0x00\n      swap1\n      sload\n      swap1\n      0x0100\n      exp\n      swap1\n      div\n      0xffffffffffffffffffffffffffffffffffffffff\n      and\n      0xffffffffffffffffffffffffffffffffffffffff\n      and\n      0xffffffffffffffffffffffffffffffffffffffff\n      and\n      dup2\n      mstore\n      0x20\n      add\n      0x04\n      dup3\n      add\n      0x14\n      swap1\n      sload\n      swap1\n      0x0100\n      exp\n      swap1\n      div\n      0xff\n      and\n      iszero\n      iszero\n      iszero\n      iszero\n      dup2\n      mstore\n      pop\n      pop\n        /* \"contracts/GeekNftMarketPlace.sol\":5458:5464  myNfts */\n      dup4\n        /* \"contracts/GeekNftMarketPlace.sol\":5465:5473  nftIndex */\n      dup4\n        /* \"contracts/GeekNftMarketPlace.sol\":5458:5474  myNfts[nftIndex] */\n      dup2\n      mload\n      dup2\n      lt\n      tag_104\n      jumpi\n      tag_105\n      tag_106\n      jump\t// in\n    tag_105:\n    tag_104:\n      0x20\n      mul\n      0x20\n      add\n      add\n        /* \"contracts/GeekNftMarketPlace.sol\":5458:5488  myNfts[nftIndex] = _idToNFT[i] */\n      dup2\n      swap1\n      mstore\n      pop\n        /* \"contracts/GeekNftMarketPlace.sol\":5506:5517  nftIndex ++ */\n      dup2\n      dup1\n      tag_107\n      swap1\n      tag_90\n      jump\t// in\n    tag_107:\n      swap3\n      pop\n      pop\n        /* \"contracts/GeekNftMarketPlace.sol\":5381:5532  if(_idToNFT[i].seller == msg.sender && _idToNFT[i].listed) {... */\n    tag_103:\n        /* \"contracts/GeekNftMarketPlace.sol\":5362:5365  i++ */\n      dup1\n      dup1\n      tag_108\n      swap1\n      tag_90\n      jump\t// in\n    tag_108:\n      swap2\n      pop\n      pop\n        /* \"contracts/GeekNftMarketPlace.sol\":5329:5542  for (uint i = 1; i <= nftsCount; i++) {... */\n      jump(tag_99)\n    tag_100:\n      pop\n        /* \"contracts/GeekNftMarketPlace.sol\":5559:5565  myNfts */\n      dup2\n        /* \"contracts/GeekNftMarketPlace.sol\":5552:5565  return myNfts */\n      swap5\n      pop\n      pop\n      pop\n      pop\n      pop\n        /* \"contracts/GeekNftMarketPlace.sol\":4921:5572  function getMyListedNfts() public view returns (NFT[] memory) {... */\n      swap1\n      jump\t// out\n        /* \"contracts/GeekNftMarketPlace.sol\":474:511  uint public LISTING_FEE = 0.002 ether */\n    tag_24:\n      sload(0x03)\n      dup2\n      jump\t// out\n        /* \"contracts/GeekNftMarketPlace.sol\":1460:1616  function getOwner(address _nftContract, uint _tokenId) public view returns (address){... */\n    tag_31:\n        /* \"contracts/GeekNftMarketPlace.sol\":1536:1543  address */\n      0x00\n        /* \"contracts/GeekNftMarketPlace.sol\":1578:1590  _nftContract */\n      dup3\n        /* \"contracts/GeekNftMarketPlace.sol\":1561:1599  GeekNftInterface(_nftContract).ownerOf */\n      0xffffffffffffffffffffffffffffffffffffffff\n      and\n      0x6352211e\n        /* \"contracts/GeekNftMarketPlace.sol\":1600:1608  _tokenId */\n      dup4\n        /* \"contracts/GeekNftMarketPlace.sol\":1561:1609  GeekNftInterface(_nftContract).ownerOf(_tokenId) */\n      mload(0x40)\n      dup3\n      0xffffffff\n      and\n      0xe0\n      shl\n      dup2\n      mstore\n      0x04\n      add\n      tag_110\n      swap2\n      swap1\n      tag_26\n      jump\t// in\n    tag_110:\n      0x20\n      mload(0x40)\n      dup1\n      dup4\n      sub\n      dup2\n      dup7\n      dup1\n      extcodesize\n      iszero\n      dup1\n      iszero\n      tag_111\n      jumpi\n      0x00\n      dup1\n      revert\n    tag_111:\n      pop\n      gas\n      staticcall\n      iszero\n      dup1\n      iszero\n      tag_113\n      jumpi\n      returndatasize\n      0x00\n      dup1\n      returndatacopy\n      revert(0x00, returndatasize)\n    tag_113:\n      pop\n      pop\n      pop\n      pop\n      mload(0x40)\n      returndatasize\n      not(0x1f)\n      0x1f\n      dup3\n      add\n      and\n      dup3\n      add\n      dup1\n      0x40\n      mstore\n      pop\n      dup2\n      add\n      swap1\n      tag_114\n      swap2\n      swap1\n      tag_115\n      jump\t// in\n    tag_114:\n        /* \"contracts/GeekNftMarketPlace.sol\":1554:1609  return GeekNftInterface(_nftContract).ownerOf(_tokenId) */\n      swap1\n      pop\n        /* \"contracts/GeekNftMarketPlace.sol\":1460:1616  function getOwner(address _nftContract, uint _tokenId) public view returns (address){... */\n      swap3\n      swap2\n      pop\n      pop\n      jump\t// out\n        /* \"contracts/GeekNftMarketPlace.sol\":2294:2914  function buyNft(address _nftContract, uint _tokenId) public payable nonReentrant{... */\n    tag_36:\n        /* \"contracts/RenntrancyGuard.sol\":171:172  2 */\n      0x02\n        /* \"contracts/RenntrancyGuard.sol\":310:317  _status */\n      sload(0x00)\n        /* \"contracts/RenntrancyGuard.sol\":310:329  _status != _ENTERED */\n      eq\n      iszero\n        /* \"contracts/RenntrancyGuard.sol\":302:365  require(_status != _ENTERED, \"ReentrancyGuard: reentrant call\") */\n      tag_117\n      jumpi\n      mload(0x40)\n      0x08c379a000000000000000000000000000000000000000000000000000000000\n      dup2\n      mstore\n      0x04\n      add\n      tag_118\n      swap1\n      tag_59\n      jump\t// in\n    tag_118:\n      mload(0x40)\n      dup1\n      swap2\n      sub\n      swap1\n      revert\n    tag_117:\n        /* \"contracts/RenntrancyGuard.sol\":171:172  2 */\n      0x02\n        /* \"contracts/RenntrancyGuard.sol\":375:382  _status */\n      0x00\n        /* \"contracts/RenntrancyGuard.sol\":375:393  _status = _ENTERED */\n      dup2\n      swap1\n      sstore\n      pop\n        /* \"contracts/GeekNftMarketPlace.sol\":2384:2399  NFT storage nft */\n      0x00\n        /* \"contracts/GeekNftMarketPlace.sol\":2402:2410  _idToNFT */\n      0x05\n        /* \"contracts/GeekNftMarketPlace.sol\":2402:2420  _idToNFT[_tokenId] */\n      0x00\n        /* \"contracts/GeekNftMarketPlace.sol\":2411:2419  _tokenId */\n      dup4\n        /* \"contracts/GeekNftMarketPlace.sol\":2402:2420  _idToNFT[_tokenId] */\n      dup2\n      mstore\n      0x20\n      add\n      swap1\n      dup2\n      mstore\n      0x20\n      add\n      0x00\n      keccak256\n        /* \"contracts/GeekNftMarketPlace.sol\":2384:2420  NFT storage nft = _idToNFT[_tokenId] */\n      swap1\n      pop\n        /* \"contracts/GeekNftMarketPlace.sol\":2460:2461  0 */\n      0x00\n        /* \"contracts/GeekNftMarketPlace.sol\":2439:2462  nft.owner != address(0) */\n      0xffffffffffffffffffffffffffffffffffffffff\n      and\n        /* \"contracts/GeekNftMarketPlace.sol\":2439:2442  nft */\n      dup2\n        /* \"contracts/GeekNftMarketPlace.sol\":2439:2448  nft.owner */\n      0x03\n      add\n      0x00\n      swap1\n      sload\n      swap1\n      0x0100\n      exp\n      swap1\n      div\n      0xffffffffffffffffffffffffffffffffffffffff\n      and\n        /* \"contracts/GeekNftMarketPlace.sol\":2439:2462  nft.owner != address(0) */\n      0xffffffffffffffffffffffffffffffffffffffff\n      and\n      eq\n      iszero\n        /* \"contracts/GeekNftMarketPlace.sol\":2431:2480  require(nft.owner != address(0), \"NFT not found\") */\n      tag_120\n      jumpi\n      mload(0x40)\n      0x08c379a000000000000000000000000000000000000000000000000000000000\n      dup2\n      mstore\n      0x04\n      add\n      tag_121\n      swap1\n      tag_71\n      jump\t// in\n    tag_121:\n      mload(0x40)\n      dup1\n      swap2\n      sub\n      swap1\n      revert\n    tag_120:\n        /* \"contracts/GeekNftMarketPlace.sol\":2511:2514  nft */\n      dup1\n        /* \"contracts/GeekNftMarketPlace.sol\":2511:2520  nft.price */\n      0x01\n      add\n      sload\n        /* \"contracts/GeekNftMarketPlace.sol\":2498:2507  msg.value */\n      callvalue\n        /* \"contracts/GeekNftMarketPlace.sol\":2498:2520  msg.value >= nft.price */\n      lt\n      iszero\n        /* \"contracts/GeekNftMarketPlace.sol\":2490:2563  require(msg.value >= nft.price, \"Not enough ether to cover asking price\") */\n      tag_122\n      jumpi\n      mload(0x40)\n      0x08c379a000000000000000000000000000000000000000000000000000000000\n      dup2\n      mstore\n      0x04\n      add\n      tag_123\n      swap1\n      tag_124\n      jump\t// in\n    tag_123:\n      mload(0x40)\n      dup1\n      swap2\n      sub\n      swap1\n      revert\n    tag_122:\n        /* \"contracts/GeekNftMarketPlace.sol\":2574:2595  address payable buyer */\n      0x00\n        /* \"contracts/GeekNftMarketPlace.sol\":2606:2616  msg.sender */\n      caller\n        /* \"contracts/GeekNftMarketPlace.sol\":2574:2617  address payable buyer = payable(msg.sender) */\n      swap1\n      pop\n        /* \"contracts/GeekNftMarketPlace.sol\":2627:2630  nft */\n      dup2\n        /* \"contracts/GeekNftMarketPlace.sol\":2627:2637  nft.seller */\n      0x02\n      add\n      0x00\n      swap1\n      sload\n      swap1\n      0x0100\n      exp\n      swap1\n      div\n      0xffffffffffffffffffffffffffffffffffffffff\n      and\n        /* \"contracts/GeekNftMarketPlace.sol\":2627:2646  nft.seller.transfer */\n      0xffffffffffffffffffffffffffffffffffffffff\n      and\n        /* \"contracts/GeekNftMarketPlace.sol\":2627:2657  nft.seller.transfer(msg.value) */\n      0x08fc\n        /* \"contracts/GeekNftMarketPlace.sol\":2647:2656  msg.value */\n      callvalue\n        /* \"contracts/GeekNftMarketPlace.sol\":2627:2657  nft.seller.transfer(msg.value) */\n      swap1\n      dup2\n      iszero\n      mul\n      swap1\n      mload(0x40)\n      0x00\n      mload(0x40)\n      dup1\n      dup4\n      sub\n      dup2\n      dup6\n      dup9\n      dup9\n      call\n      swap4\n      pop\n      pop\n      pop\n      pop\n      iszero\n      dup1\n      iszero\n      tag_126\n      jumpi\n      returndatasize\n      0x00\n      dup1\n      returndatacopy\n      revert(0x00, returndatasize)\n    tag_126:\n      pop\n        /* \"contracts/GeekNftMarketPlace.sol\":2685:2697  _nftContract */\n      dup4\n        /* \"contracts/GeekNftMarketPlace.sol\":2668:2711  GeekNftInterface(_nftContract).transferFrom */\n      0xffffffffffffffffffffffffffffffffffffffff\n      and\n      0x23b872dd\n        /* \"contracts/GeekNftMarketPlace.sol\":2720:2724  this */\n      address\n        /* \"contracts/GeekNftMarketPlace.sol\":2727:2732  buyer */\n      dup4\n        /* \"contracts/GeekNftMarketPlace.sol\":2734:2742  _tokenId */\n      dup7\n        /* \"contracts/GeekNftMarketPlace.sol\":2668:2743  GeekNftInterface(_nftContract).transferFrom(address(this), buyer, _tokenId) */\n      mload(0x40)\n      dup5\n      0xffffffff\n      and\n      0xe0\n      shl\n      dup2\n      mstore\n      0x04\n      add\n      tag_127\n      swap4\n      swap3\n      swap2\n      swap1\n      tag_128\n      jump\t// in\n    tag_127:\n      0x00\n      mload(0x40)\n      dup1\n      dup4\n      sub\n      dup2\n      0x00\n      dup8\n      dup1\n      extcodesize\n      iszero\n      dup1\n      iszero\n      tag_129\n      jumpi\n      0x00\n      dup1\n      revert\n    tag_129:\n      pop\n      gas\n      call\n      iszero\n      dup1\n      iszero\n      tag_131\n      jumpi\n      returndatasize\n      0x00\n      dup1\n      returndatacopy\n      revert(0x00, returndatasize)\n    tag_131:\n      pop\n      pop\n      pop\n      pop\n        /* \"contracts/GeekNftMarketPlace.sol\":2765:2770  buyer */\n      dup1\n        /* \"contracts/GeekNftMarketPlace.sol\":2753:2756  nft */\n      dup3\n        /* \"contracts/GeekNftMarketPlace.sol\":2753:2762  nft.owner */\n      0x03\n      add\n      0x00\n        /* \"contracts/GeekNftMarketPlace.sol\":2753:2770  nft.owner = buyer */\n      0x0100\n      exp\n      dup2\n      sload\n      dup2\n      0xffffffffffffffffffffffffffffffffffffffff\n      mul\n      not\n      and\n      swap1\n      dup4\n      0xffffffffffffffffffffffffffffffffffffffff\n      and\n      mul\n      or\n      swap1\n      sstore\n      pop\n        /* \"contracts/GeekNftMarketPlace.sol\":2793:2798  false */\n      0x00\n        /* \"contracts/GeekNftMarketPlace.sol\":2780:2783  nft */\n      dup3\n        /* \"contracts/GeekNftMarketPlace.sol\":2780:2790  nft.listed */\n      0x04\n      add\n      0x14\n        /* \"contracts/GeekNftMarketPlace.sol\":2780:2798  nft.listed = false */\n      0x0100\n      exp\n      dup2\n      sload\n      dup2\n      0xff\n      mul\n      not\n      and\n      swap1\n      dup4\n      iszero\n      iszero\n      mul\n      or\n      swap1\n      sstore\n      pop\n        /* \"contracts/GeekNftMarketPlace.sol\":2809:2830  _nftsSold.increment() */\n      tag_132\n        /* \"contracts/GeekNftMarketPlace.sol\":2809:2818  _nftsSold */\n      0x01\n        /* \"contracts/GeekNftMarketPlace.sol\":2809:2828  _nftsSold.increment */\n      tag_133\n        /* \"contracts/GeekNftMarketPlace.sol\":2809:2830  _nftsSold.increment() */\n      jump\t// in\n    tag_132:\n        /* \"contracts/GeekNftMarketPlace.sol\":2890:2895  buyer */\n      dup1\n        /* \"contracts/GeekNftMarketPlace.sol\":2846:2907  NFTSold(_nftContract, _tokenId, nft.seller, buyer, msg.value) */\n      0xffffffffffffffffffffffffffffffffffffffff\n      and\n        /* \"contracts/GeekNftMarketPlace.sol\":2878:2881  nft */\n      dup3\n        /* \"contracts/GeekNftMarketPlace.sol\":2878:2888  nft.seller */\n      0x02\n      add\n      0x00\n      swap1\n      sload\n      swap1\n      0x0100\n      exp\n      swap1\n      div\n      0xffffffffffffffffffffffffffffffffffffffff\n      and\n        /* \"contracts/GeekNftMarketPlace.sol\":2846:2907  NFTSold(_nftContract, _tokenId, nft.seller, buyer, msg.value) */\n      0xffffffffffffffffffffffffffffffffffffffff\n      and\n        /* \"contracts/GeekNftMarketPlace.sol\":2868:2876  _tokenId */\n      dup5\n        /* \"contracts/GeekNftMarketPlace.sol\":2846:2907  NFTSold(_nftContract, _tokenId, nft.seller, buyer, msg.value) */\n      0x16f1dbd97e6bf646d429ed186cce832f1f7fd9907814293b83181e9970ab7bd2\n        /* \"contracts/GeekNftMarketPlace.sol\":2854:2866  _nftContract */\n      dup8\n        /* \"contracts/GeekNftMarketPlace.sol\":2897:2906  msg.value */\n      callvalue\n        /* \"contracts/GeekNftMarketPlace.sol\":2846:2907  NFTSold(_nftContract, _tokenId, nft.seller, buyer, msg.value) */\n      mload(0x40)\n      tag_134\n      swap3\n      swap2\n      swap1\n      tag_80\n      jump\t// in\n    tag_134:\n      mload(0x40)\n      dup1\n      swap2\n      sub\n      swap1\n      log4\n        /* \"contracts/GeekNftMarketPlace.sol\":2374:2914  {... */\n      pop\n      pop\n        /* \"contracts/RenntrancyGuard.sol\":128:129  1 */\n      0x01\n        /* \"contracts/RenntrancyGuard.sol\":414:421  _status */\n      0x00\n        /* \"contracts/RenntrancyGuard.sol\":414:436  _status = _NOT_ENTERED */\n      dup2\n      swap1\n      sstore\n      pop\n        /* \"contracts/GeekNftMarketPlace.sol\":2294:2914  function buyNft(address _nftContract, uint _tokenId) public payable nonReentrant{... */\n      pop\n      pop\n      jump\t// out\n        /* \"contracts/GeekNftMarketPlace.sol\":4270:4880  function getMyCreatedNfts() public view returns (NFT[] memory) {... */\n    tag_39:\n        /* \"contracts/GeekNftMarketPlace.sol\":4319:4331  NFT[] memory */\n      0x60\n        /* \"contracts/GeekNftMarketPlace.sol\":4343:4357  uint nftsCount */\n      0x00\n        /* \"contracts/GeekNftMarketPlace.sol\":4360:4380  _nftsCount.current() */\n      tag_136\n        /* \"contracts/GeekNftMarketPlace.sol\":4360:4370  _nftsCount */\n      0x02\n        /* \"contracts/GeekNftMarketPlace.sol\":4360:4378  _nftsCount.current */\n      tag_83\n        /* \"contracts/GeekNftMarketPlace.sol\":4360:4380  _nftsCount.current() */\n      jump\t// in\n    tag_136:\n        /* \"contracts/GeekNftMarketPlace.sol\":4343:4380  uint nftsCount = _nftsCount.current() */\n      swap1\n      pop\n        /* \"contracts/GeekNftMarketPlace.sol\":4390:4406  uint myNftsCount */\n      0x00\n        /* \"contracts/GeekNftMarketPlace.sol\":4425:4431  uint i */\n      dup1\n        /* \"contracts/GeekNftMarketPlace.sol\":4434:4435  1 */\n      0x01\n        /* \"contracts/GeekNftMarketPlace.sol\":4425:4435  uint i = 1 */\n      swap1\n      pop\n        /* \"contracts/GeekNftMarketPlace.sol\":4420:4567  for (uint i = 1; i <= nftsCount; i++) {... */\n    tag_137:\n        /* \"contracts/GeekNftMarketPlace.sol\":4442:4451  nftsCount */\n      dup3\n        /* \"contracts/GeekNftMarketPlace.sol\":4437:4438  i */\n      dup2\n        /* \"contracts/GeekNftMarketPlace.sol\":4437:4451  i <= nftsCount */\n      gt\n        /* \"contracts/GeekNftMarketPlace.sol\":4420:4567  for (uint i = 1; i <= nftsCount; i++) {... */\n      tag_138\n      jumpi\n        /* \"contracts/GeekNftMarketPlace.sol\":4498:4508  msg.sender */\n      caller\n        /* \"contracts/GeekNftMarketPlace.sol\":4475:4508  _idToNFT[i].creator == msg.sender */\n      0xffffffffffffffffffffffffffffffffffffffff\n      and\n        /* \"contracts/GeekNftMarketPlace.sol\":4475:4483  _idToNFT */\n      0x05\n        /* \"contracts/GeekNftMarketPlace.sol\":4475:4486  _idToNFT[i] */\n      0x00\n        /* \"contracts/GeekNftMarketPlace.sol\":4484:4485  i */\n      dup4\n        /* \"contracts/GeekNftMarketPlace.sol\":4475:4486  _idToNFT[i] */\n      dup2\n      mstore\n      0x20\n      add\n      swap1\n      dup2\n      mstore\n      0x20\n      add\n      0x00\n      keccak256\n        /* \"contracts/GeekNftMarketPlace.sol\":4475:4494  _idToNFT[i].creator */\n      0x04\n      add\n      0x00\n      swap1\n      sload\n      swap1\n      0x0100\n      exp\n      swap1\n      div\n      0xffffffffffffffffffffffffffffffffffffffff\n      and\n        /* \"contracts/GeekNftMarketPlace.sol\":4475:4508  _idToNFT[i].creator == msg.sender */\n      0xffffffffffffffffffffffffffffffffffffffff\n      and\n      eq\n        /* \"contracts/GeekNftMarketPlace.sol\":4472:4557  if(_idToNFT[i].creator == msg.sender) {... */\n      iszero\n      tag_140\n      jumpi\n        /* \"contracts/GeekNftMarketPlace.sol\":4528:4542  myNftsCount ++ */\n      dup2\n      dup1\n      tag_141\n      swap1\n      tag_90\n      jump\t// in\n    tag_141:\n      swap3\n      pop\n      pop\n        /* \"contracts/GeekNftMarketPlace.sol\":4472:4557  if(_idToNFT[i].creator == msg.sender) {... */\n    tag_140:\n        /* \"contracts/GeekNftMarketPlace.sol\":4453:4456  i++ */\n      dup1\n      dup1\n      tag_142\n      swap1\n      tag_90\n      jump\t// in\n    tag_142:\n      swap2\n      pop\n      pop\n        /* \"contracts/GeekNftMarketPlace.sol\":4420:4567  for (uint i = 1; i <= nftsCount; i++) {... */\n      jump(tag_137)\n    tag_138:\n      pop\n        /* \"contracts/GeekNftMarketPlace.sol\":4577:4596  NFT[] memory myNfts */\n      0x00\n        /* \"contracts/GeekNftMarketPlace.sol\":4609:4620  myNftsCount */\n      dup2\n        /* \"contracts/GeekNftMarketPlace.sol\":4599:4621  new NFT[](myNftsCount) */\n      0xffffffffffffffff\n      dup2\n      gt\n      iszero\n      tag_143\n      jumpi\n      tag_144\n      tag_94\n      jump\t// in\n    tag_144:\n    tag_143:\n      mload(0x40)\n      swap1\n      dup1\n      dup3\n      mstore\n      dup1\n      0x20\n      mul\n      0x20\n      add\n      dup3\n      add\n      0x40\n      mstore\n      dup1\n      iszero\n      tag_145\n      jumpi\n      dup2\n      0x20\n      add\n    tag_146:\n      tag_147\n      tag_98\n      jump\t// in\n    tag_147:\n      dup2\n      mstore\n      0x20\n      add\n      swap1\n      0x01\n      swap1\n      sub\n      swap1\n      dup2\n      tag_146\n      jumpi\n      swap1\n      pop\n    tag_145:\n      pop\n        /* \"contracts/GeekNftMarketPlace.sol\":4577:4621  NFT[] memory myNfts = new NFT[](myNftsCount) */\n      swap1\n      pop\n        /* \"contracts/GeekNftMarketPlace.sol\":4631:4644  uint nftIndex */\n      0x00\n        /* \"contracts/GeekNftMarketPlace.sol\":4663:4669  uint i */\n      dup1\n        /* \"contracts/GeekNftMarketPlace.sol\":4672:4673  1 */\n      0x01\n        /* \"contracts/GeekNftMarketPlace.sol\":4663:4673  uint i = 1 */\n      swap1\n      pop\n        /* \"contracts/GeekNftMarketPlace.sol\":4658:4850  for (uint i = 1; i <= nftsCount; i++) {... */\n    tag_148:\n        /* \"contracts/GeekNftMarketPlace.sol\":4680:4689  nftsCount */\n      dup5\n        /* \"contracts/GeekNftMarketPlace.sol\":4675:4676  i */\n      dup2\n        /* \"contracts/GeekNftMarketPlace.sol\":4675:4689  i <= nftsCount */\n      gt\n        /* \"contracts/GeekNftMarketPlace.sol\":4658:4850  for (uint i = 1; i <= nftsCount; i++) {... */\n      tag_149\n      jumpi\n        /* \"contracts/GeekNftMarketPlace.sol\":4736:4746  msg.sender */\n      caller\n        /* \"contracts/GeekNftMarketPlace.sol\":4713:4746  _idToNFT[i].creator == msg.sender */\n      0xffffffffffffffffffffffffffffffffffffffff\n      and\n        /* \"contracts/GeekNftMarketPlace.sol\":4713:4721  _idToNFT */\n      0x05\n        /* \"contracts/GeekNftMarketPlace.sol\":4713:4724  _idToNFT[i] */\n      0x00\n        /* \"contracts/GeekNftMarketPlace.sol\":4722:4723  i */\n      dup4\n        /* \"contracts/GeekNftMarketPlace.sol\":4713:4724  _idToNFT[i] */\n      dup2\n      mstore\n      0x20\n      add\n      swap1\n      dup2\n      mstore\n      0x20\n      add\n      0x00\n      keccak256\n        /* \"contracts/GeekNftMarketPlace.sol\":4713:4732  _idToNFT[i].creator */\n      0x04\n      add\n      0x00\n      swap1\n      sload\n      swap1\n      0x0100\n      exp\n      swap1\n      div\n      0xffffffffffffffffffffffffffffffffffffffff\n      and\n        /* \"contracts/GeekNftMarketPlace.sol\":4713:4746  _idToNFT[i].creator == msg.sender */\n      0xffffffffffffffffffffffffffffffffffffffff\n      and\n      eq\n        /* \"contracts/GeekNftMarketPlace.sol\":4710:4840  if(_idToNFT[i].creator == msg.sender) {... */\n      iszero\n      tag_151\n      jumpi\n        /* \"contracts/GeekNftMarketPlace.sol\":4785:4793  _idToNFT */\n      0x05\n        /* \"contracts/GeekNftMarketPlace.sol\":4785:4796  _idToNFT[i] */\n      0x00\n        /* \"contracts/GeekNftMarketPlace.sol\":4794:4795  i */\n      dup3\n        /* \"contracts/GeekNftMarketPlace.sol\":4785:4796  _idToNFT[i] */\n      dup2\n      mstore\n      0x20\n      add\n      swap1\n      dup2\n      mstore\n      0x20\n      add\n      0x00\n      keccak256\n        /* \"contracts/GeekNftMarketPlace.sol\":4766:4796  myNfts[nftIndex] = _idToNFT[i] */\n      mload(0x40)\n      dup1\n      0xc0\n      add\n      0x40\n      mstore\n      swap1\n      dup2\n      0x00\n      dup3\n      add\n      sload\n      dup2\n      mstore\n      0x20\n      add\n      0x01\n      dup3\n      add\n      sload\n      dup2\n      mstore\n      0x20\n      add\n      0x02\n      dup3\n      add\n      0x00\n      swap1\n      sload\n      swap1\n      0x0100\n      exp\n      swap1\n      div\n      0xffffffffffffffffffffffffffffffffffffffff\n      and\n      0xffffffffffffffffffffffffffffffffffffffff\n      and\n      0xffffffffffffffffffffffffffffffffffffffff\n      and\n      dup2\n      mstore\n      0x20\n      add\n      0x03\n      dup3\n      add\n      0x00\n      swap1\n      sload\n      swap1\n      0x0100\n      exp\n      swap1\n      div\n      0xffffffffffffffffffffffffffffffffffffffff\n      and\n      0xffffffffffffffffffffffffffffffffffffffff\n      and\n      0xffffffffffffffffffffffffffffffffffffffff\n      and\n      dup2\n      mstore\n      0x20\n      add\n      0x04\n      dup3\n      add\n      0x00\n      swap1\n      sload\n      swap1\n      0x0100\n      exp\n      swap1\n      div\n      0xffffffffffffffffffffffffffffffffffffffff\n      and\n      0xffffffffffffffffffffffffffffffffffffffff\n      and\n      0xffffffffffffffffffffffffffffffffffffffff\n      and\n      dup2\n      mstore\n      0x20\n      add\n      0x04\n      dup3\n      add\n      0x14\n      swap1\n      sload\n      swap1\n      0x0100\n      exp\n      swap1\n      div\n      0xff\n      and\n      iszero\n      iszero\n      iszero\n      iszero\n      dup2\n      mstore\n      pop\n      pop\n        /* \"contracts/GeekNftMarketPlace.sol\":4766:4772  myNfts */\n      dup4\n        /* \"contracts/GeekNftMarketPlace.sol\":4773:4781  nftIndex */\n      dup4\n        /* \"contracts/GeekNftMarketPlace.sol\":4766:4782  myNfts[nftIndex] */\n      dup2\n      mload\n      dup2\n      lt\n      tag_152\n      jumpi\n      tag_153\n      tag_106\n      jump\t// in\n    tag_153:\n    tag_152:\n      0x20\n      mul\n      0x20\n      add\n      add\n        /* \"contracts/GeekNftMarketPlace.sol\":4766:4796  myNfts[nftIndex] = _idToNFT[i] */\n      dup2\n      swap1\n      mstore\n      pop\n        /* \"contracts/GeekNftMarketPlace.sol\":4814:4825  nftIndex ++ */\n      dup2\n      dup1\n      tag_154\n      swap1\n      tag_90\n      jump\t// in\n    tag_154:\n      swap3\n      pop\n      pop\n        /* \"contracts/GeekNftMarketPlace.sol\":4710:4840  if(_idToNFT[i].creator == msg.sender) {... */\n    tag_151:\n        /* \"contracts/GeekNftMarketPlace.sol\":4691:4694  i++ */\n      dup1\n      dup1\n      tag_155\n      swap1\n      tag_90\n      jump\t// in\n    tag_155:\n      swap2\n      pop\n      pop\n        /* \"contracts/GeekNftMarketPlace.sol\":4658:4850  for (uint i = 1; i <= nftsCount; i++) {... */\n      jump(tag_148)\n    tag_149:\n      pop\n        /* \"contracts/GeekNftMarketPlace.sol\":4867:4873  myNfts */\n      dup2\n        /* \"contracts/GeekNftMarketPlace.sol\":4860:4873  return myNfts */\n      swap5\n      pop\n      pop\n      pop\n      pop\n      pop\n        /* \"contracts/GeekNftMarketPlace.sol\":4270:4880  function getMyCreatedNfts() public view returns (NFT[] memory) {... */\n      swap1\n      jump\t// out\n        /* \"contracts/GeekNftMarketPlace.sol\":5578:6069  function getListedNfts() public view returns (NFT[] memory) {... */\n    tag_43:\n        /* \"contracts/GeekNftMarketPlace.sol\":5624:5636  NFT[] memory */\n      0x60\n        /* \"contracts/GeekNftMarketPlace.sol\":5648:5664  uint256 nftCount */\n      0x00\n        /* \"contracts/GeekNftMarketPlace.sol\":5667:5687  _nftsCount.current() */\n      tag_157\n        /* \"contracts/GeekNftMarketPlace.sol\":5667:5677  _nftsCount */\n      0x02\n        /* \"contracts/GeekNftMarketPlace.sol\":5667:5685  _nftsCount.current */\n      tag_83\n        /* \"contracts/GeekNftMarketPlace.sol\":5667:5687  _nftsCount.current() */\n      jump\t// in\n    tag_157:\n        /* \"contracts/GeekNftMarketPlace.sol\":5648:5687  uint256 nftCount = _nftsCount.current() */\n      swap1\n      pop\n        /* \"contracts/GeekNftMarketPlace.sol\":5697:5720  uint256 unsoldNftsCount */\n      0x00\n        /* \"contracts/GeekNftMarketPlace.sol\":5734:5753  _nftsSold.current() */\n      tag_158\n        /* \"contracts/GeekNftMarketPlace.sol\":5734:5743  _nftsSold */\n      0x01\n        /* \"contracts/GeekNftMarketPlace.sol\":5734:5751  _nftsSold.current */\n      tag_83\n        /* \"contracts/GeekNftMarketPlace.sol\":5734:5753  _nftsSold.current() */\n      jump\t// in\n    tag_158:\n        /* \"contracts/GeekNftMarketPlace.sol\":5723:5731  nftCount */\n      dup3\n        /* \"contracts/GeekNftMarketPlace.sol\":5723:5753  nftCount - _nftsSold.current() */\n      tag_159\n      swap2\n      swap1\n      tag_160\n      jump\t// in\n    tag_159:\n        /* \"contracts/GeekNftMarketPlace.sol\":5697:5753  uint256 unsoldNftsCount = nftCount - _nftsSold.current() */\n      swap1\n      pop\n        /* \"contracts/GeekNftMarketPlace.sol\":5764:5787  NFT[] memory listedNfts */\n      0x00\n        /* \"contracts/GeekNftMarketPlace.sol\":5800:5815  unsoldNftsCount */\n      dup2\n        /* \"contracts/GeekNftMarketPlace.sol\":5790:5816  new NFT[](unsoldNftsCount) */\n      0xffffffffffffffff\n      dup2\n      gt\n      iszero\n      tag_161\n      jumpi\n      tag_162\n      tag_94\n      jump\t// in\n    tag_162:\n    tag_161:\n      mload(0x40)\n      swap1\n      dup1\n      dup3\n      mstore\n      dup1\n      0x20\n      mul\n      0x20\n      add\n      dup3\n      add\n      0x40\n      mstore\n      dup1\n      iszero\n      tag_163\n      jumpi\n      dup2\n      0x20\n      add\n    tag_164:\n      tag_165\n      tag_98\n      jump\t// in\n    tag_165:\n      dup2\n      mstore\n      0x20\n      add\n      swap1\n      0x01\n      swap1\n      sub\n      swap1\n      dup2\n      tag_164\n      jumpi\n      swap1\n      pop\n    tag_163:\n      pop\n        /* \"contracts/GeekNftMarketPlace.sol\":5764:5816  NFT[] memory listedNfts = new NFT[](unsoldNftsCount) */\n      swap1\n      pop\n        /* \"contracts/GeekNftMarketPlace.sol\":5826:5840  uint nftsIndex */\n      0x00\n        /* \"contracts/GeekNftMarketPlace.sol\":5859:5865  uint i */\n      dup1\n        /* \"contracts/GeekNftMarketPlace.sol\":5868:5869  1 */\n      0x01\n        /* \"contracts/GeekNftMarketPlace.sol\":5859:5869  uint i = 1 */\n      swap1\n      pop\n        /* \"contracts/GeekNftMarketPlace.sol\":5854:6036  for (uint i = 1; i <= nftCount; i++) {... */\n    tag_166:\n        /* \"contracts/GeekNftMarketPlace.sol\":5876:5884  nftCount */\n      dup5\n        /* \"contracts/GeekNftMarketPlace.sol\":5871:5872  i */\n      dup2\n        /* \"contracts/GeekNftMarketPlace.sol\":5871:5884  i <= nftCount */\n      gt\n        /* \"contracts/GeekNftMarketPlace.sol\":5854:6036  for (uint i = 1; i <= nftCount; i++) {... */\n      tag_167\n      jumpi\n        /* \"contracts/GeekNftMarketPlace.sol\":5909:5917  _idToNFT */\n      0x05\n        /* \"contracts/GeekNftMarketPlace.sol\":5909:5920  _idToNFT[i] */\n      0x00\n        /* \"contracts/GeekNftMarketPlace.sol\":5918:5919  i */\n      dup3\n        /* \"contracts/GeekNftMarketPlace.sol\":5909:5920  _idToNFT[i] */\n      dup2\n      mstore\n      0x20\n      add\n      swap1\n      dup2\n      mstore\n      0x20\n      add\n      0x00\n      keccak256\n        /* \"contracts/GeekNftMarketPlace.sol\":5909:5927  _idToNFT[i].listed */\n      0x04\n      add\n      0x14\n      swap1\n      sload\n      swap1\n      0x0100\n      exp\n      swap1\n      div\n      0xff\n      and\n        /* \"contracts/GeekNftMarketPlace.sol\":5905:6026  if (_idToNFT[i].listed) {... */\n      iszero\n      tag_169\n      jumpi\n        /* \"contracts/GeekNftMarketPlace.sol\":5971:5979  _idToNFT */\n      0x05\n        /* \"contracts/GeekNftMarketPlace.sol\":5971:5982  _idToNFT[i] */\n      0x00\n        /* \"contracts/GeekNftMarketPlace.sol\":5980:5981  i */\n      dup3\n        /* \"contracts/GeekNftMarketPlace.sol\":5971:5982  _idToNFT[i] */\n      dup2\n      mstore\n      0x20\n      add\n      swap1\n      dup2\n      mstore\n      0x20\n      add\n      0x00\n      keccak256\n        /* \"contracts/GeekNftMarketPlace.sol\":5947:5982  listedNfts[nftsIndex] = _idToNFT[i] */\n      mload(0x40)\n      dup1\n      0xc0\n      add\n      0x40\n      mstore\n      swap1\n      dup2\n      0x00\n      dup3\n      add\n      sload\n      dup2\n      mstore\n      0x20\n      add\n      0x01\n      dup3\n      add\n      sload\n      dup2\n      mstore\n      0x20\n      add\n      0x02\n      dup3\n      add\n      0x00\n      swap1\n      sload\n      swap1\n      0x0100\n      exp\n      swap1\n      div\n      0xffffffffffffffffffffffffffffffffffffffff\n      and\n      0xffffffffffffffffffffffffffffffffffffffff\n      and\n      0xffffffffffffffffffffffffffffffffffffffff\n      and\n      dup2\n      mstore\n      0x20\n      add\n      0x03\n      dup3\n      add\n      0x00\n      swap1\n      sload\n      swap1\n      0x0100\n      exp\n      swap1\n      div\n      0xffffffffffffffffffffffffffffffffffffffff\n      and\n      0xffffffffffffffffffffffffffffffffffffffff\n      and\n      0xffffffffffffffffffffffffffffffffffffffff\n      and\n      dup2\n      mstore\n      0x20\n      add\n      0x04\n      dup3\n      add\n      0x00\n      swap1\n      sload\n      swap1\n      0x0100\n      exp\n      swap1\n      div\n      0xffffffffffffffffffffffffffffffffffffffff\n      and\n      0xffffffffffffffffffffffffffffffffffffffff\n      and\n      0xffffffffffffffffffffffffffffffffffffffff\n      and\n      dup2\n      mstore\n      0x20\n      add\n      0x04\n      dup3\n      add\n      0x14\n      swap1\n      sload\n      swap1\n      0x0100\n      exp\n      swap1\n      div\n      0xff\n      and\n      iszero\n      iszero\n      iszero\n      iszero\n      dup2\n      mstore\n      pop\n      pop\n        /* \"contracts/GeekNftMarketPlace.sol\":5947:5957  listedNfts */\n      dup4\n        /* \"contracts/GeekNftMarketPlace.sol\":5958:5967  nftsIndex */\n      dup4\n        /* \"contracts/GeekNftMarketPlace.sol\":5947:5968  listedNfts[nftsIndex] */\n      dup2\n      mload\n      dup2\n      lt\n      tag_170\n      jumpi\n      tag_171\n      tag_106\n      jump\t// in\n    tag_171:\n    tag_170:\n      0x20\n      mul\n      0x20\n      add\n      add\n        /* \"contracts/GeekNftMarketPlace.sol\":5947:5982  listedNfts[nftsIndex] = _idToNFT[i] */\n      dup2\n      swap1\n      mstore\n      pop\n        /* \"contracts/GeekNftMarketPlace.sol\":6000:6011  nftsIndex++ */\n      dup2\n      dup1\n      tag_172\n      swap1\n      tag_90\n      jump\t// in\n    tag_172:\n      swap3\n      pop\n      pop\n        /* \"contracts/GeekNftMarketPlace.sol\":5905:6026  if (_idToNFT[i].listed) {... */\n    tag_169:\n        /* \"contracts/GeekNftMarketPlace.sol\":5886:5889  i++ */\n      dup1\n      dup1\n      tag_173\n      swap1\n      tag_90\n      jump\t// in\n    tag_173:\n      swap2\n      pop\n      pop\n        /* \"contracts/GeekNftMarketPlace.sol\":5854:6036  for (uint i = 1; i <= nftCount; i++) {... */\n      jump(tag_166)\n    tag_167:\n      pop\n        /* \"contracts/GeekNftMarketPlace.sol\":6052:6062  listedNfts */\n      dup2\n        /* \"contracts/GeekNftMarketPlace.sol\":6045:6062  return listedNfts */\n      swap5\n      pop\n      pop\n      pop\n      pop\n      pop\n        /* \"contracts/GeekNftMarketPlace.sol\":5578:6069  function getListedNfts() public view returns (NFT[] memory) {... */\n      swap1\n      jump\t// out\n        /* \"contracts/GeekNftMarketPlace.sol\":3625:4229  function getMyOwnedNfts() public view returns (NFT[] memory) {... */\n    tag_47:\n        /* \"contracts/GeekNftMarketPlace.sol\":3672:3684  NFT[] memory */\n      0x60\n        /* \"contracts/GeekNftMarketPlace.sol\":3696:3710  uint nftsCount */\n      0x00\n        /* \"contracts/GeekNftMarketPlace.sol\":3713:3733  _nftsCount.current() */\n      tag_175\n        /* \"contracts/GeekNftMarketPlace.sol\":3713:3723  _nftsCount */\n      0x02\n        /* \"contracts/GeekNftMarketPlace.sol\":3713:3731  _nftsCount.current */\n      tag_83\n        /* \"contracts/GeekNftMarketPlace.sol\":3713:3733  _nftsCount.current() */\n      jump\t// in\n    tag_175:\n        /* \"contracts/GeekNftMarketPlace.sol\":3696:3733  uint nftsCount = _nftsCount.current() */\n      swap1\n      pop\n        /* \"contracts/GeekNftMarketPlace.sol\":3743:3759  uint myNftsCount */\n      0x00\n        /* \"contracts/GeekNftMarketPlace.sol\":3778:3784  uint i */\n      dup1\n        /* \"contracts/GeekNftMarketPlace.sol\":3787:3788  1 */\n      0x01\n        /* \"contracts/GeekNftMarketPlace.sol\":3778:3788  uint i = 1 */\n      swap1\n      pop\n        /* \"contracts/GeekNftMarketPlace.sol\":3773:3918  for (uint i = 1; i <= nftsCount; i++) {... */\n    tag_176:\n        /* \"contracts/GeekNftMarketPlace.sol\":3795:3804  nftsCount */\n      dup3\n        /* \"contracts/GeekNftMarketPlace.sol\":3790:3791  i */\n      dup2\n        /* \"contracts/GeekNftMarketPlace.sol\":3790:3804  i <= nftsCount */\n      gt\n        /* \"contracts/GeekNftMarketPlace.sol\":3773:3918  for (uint i = 1; i <= nftsCount; i++) {... */\n      tag_177\n      jumpi\n        /* \"contracts/GeekNftMarketPlace.sol\":3849:3859  msg.sender */\n      caller\n        /* \"contracts/GeekNftMarketPlace.sol\":3828:3859  _idToNFT[i].owner == msg.sender */\n      0xffffffffffffffffffffffffffffffffffffffff\n      and\n        /* \"contracts/GeekNftMarketPlace.sol\":3828:3836  _idToNFT */\n      0x05\n        /* \"contracts/GeekNftMarketPlace.sol\":3828:3839  _idToNFT[i] */\n      0x00\n        /* \"contracts/GeekNftMarketPlace.sol\":3837:3838  i */\n      dup4\n        /* \"contracts/GeekNftMarketPlace.sol\":3828:3839  _idToNFT[i] */\n      dup2\n      mstore\n      0x20\n      add\n      swap1\n      dup2\n      mstore\n      0x20\n      add\n      0x00\n      keccak256\n        /* \"contracts/GeekNftMarketPlace.sol\":3828:3845  _idToNFT[i].owner */\n      0x03\n      add\n      0x00\n      swap1\n      sload\n      swap1\n      0x0100\n      exp\n      swap1\n      div\n      0xffffffffffffffffffffffffffffffffffffffff\n      and\n        /* \"contracts/GeekNftMarketPlace.sol\":3828:3859  _idToNFT[i].owner == msg.sender */\n      0xffffffffffffffffffffffffffffffffffffffff\n      and\n      eq\n        /* \"contracts/GeekNftMarketPlace.sol\":3825:3908  if(_idToNFT[i].owner == msg.sender) {... */\n      iszero\n      tag_179\n      jumpi\n        /* \"contracts/GeekNftMarketPlace.sol\":3879:3893  myNftsCount ++ */\n      dup2\n      dup1\n      tag_180\n      swap1\n      tag_90\n      jump\t// in\n    tag_180:\n      swap3\n      pop\n      pop\n        /* \"contracts/GeekNftMarketPlace.sol\":3825:3908  if(_idToNFT[i].owner == msg.sender) {... */\n    tag_179:\n        /* \"contracts/GeekNftMarketPlace.sol\":3806:3809  i++ */\n      dup1\n      dup1\n      tag_181\n      swap1\n      tag_90\n      jump\t// in\n    tag_181:\n      swap2\n      pop\n      pop\n        /* \"contracts/GeekNftMarketPlace.sol\":3773:3918  for (uint i = 1; i <= nftsCount; i++) {... */\n      jump(tag_176)\n    tag_177:\n      pop\n        /* \"contracts/GeekNftMarketPlace.sol\":3928:3947  NFT[] memory myNfts */\n      0x00\n        /* \"contracts/GeekNftMarketPlace.sol\":3960:3971  myNftsCount */\n      dup2\n        /* \"contracts/GeekNftMarketPlace.sol\":3950:3972  new NFT[](myNftsCount) */\n      0xffffffffffffffff\n      dup2\n      gt\n      iszero\n      tag_182\n      jumpi\n      tag_183\n      tag_94\n      jump\t// in\n    tag_183:\n    tag_182:\n      mload(0x40)\n      swap1\n      dup1\n      dup3\n      mstore\n      dup1\n      0x20\n      mul\n      0x20\n      add\n      dup3\n      add\n      0x40\n      mstore\n      dup1\n      iszero\n      tag_184\n      jumpi\n      dup2\n      0x20\n      add\n    tag_185:\n      tag_186\n      tag_98\n      jump\t// in\n    tag_186:\n      dup2\n      mstore\n      0x20\n      add\n      swap1\n      0x01\n      swap1\n      sub\n      swap1\n      dup2\n      tag_185\n      jumpi\n      swap1\n      pop\n    tag_184:\n      pop\n        /* \"contracts/GeekNftMarketPlace.sol\":3928:3972  NFT[] memory myNfts = new NFT[](myNftsCount) */\n      swap1\n      pop\n        /* \"contracts/GeekNftMarketPlace.sol\":3982:3995  uint nftIndex */\n      0x00\n        /* \"contracts/GeekNftMarketPlace.sol\":4014:4020  uint i */\n      dup1\n        /* \"contracts/GeekNftMarketPlace.sol\":4023:4024  1 */\n      0x01\n        /* \"contracts/GeekNftMarketPlace.sol\":4014:4024  uint i = 1 */\n      swap1\n      pop\n        /* \"contracts/GeekNftMarketPlace.sol\":4009:4199  for (uint i = 1; i <= nftsCount; i++) {... */\n    tag_187:\n        /* \"contracts/GeekNftMarketPlace.sol\":4031:4040  nftsCount */\n      dup5\n        /* \"contracts/GeekNftMarketPlace.sol\":4026:4027  i */\n      dup2\n        /* \"contracts/GeekNftMarketPlace.sol\":4026:4040  i <= nftsCount */\n      gt\n        /* \"contracts/GeekNftMarketPlace.sol\":4009:4199  for (uint i = 1; i <= nftsCount; i++) {... */\n      tag_188\n      jumpi\n        /* \"contracts/GeekNftMarketPlace.sol\":4085:4095  msg.sender */\n      caller\n        /* \"contracts/GeekNftMarketPlace.sol\":4064:4095  _idToNFT[i].owner == msg.sender */\n      0xffffffffffffffffffffffffffffffffffffffff\n      and\n        /* \"contracts/GeekNftMarketPlace.sol\":4064:4072  _idToNFT */\n      0x05\n        /* \"contracts/GeekNftMarketPlace.sol\":4064:4075  _idToNFT[i] */\n      0x00\n        /* \"contracts/GeekNftMarketPlace.sol\":4073:4074  i */\n      dup4\n        /* \"contracts/GeekNftMarketPlace.sol\":4064:4075  _idToNFT[i] */\n      dup2\n      mstore\n      0x20\n      add\n      swap1\n      dup2\n      mstore\n      0x20\n      add\n      0x00\n      keccak256\n        /* \"contracts/GeekNftMarketPlace.sol\":4064:4081  _idToNFT[i].owner */\n      0x03\n      add\n      0x00\n      swap1\n      sload\n      swap1\n      0x0100\n      exp\n      swap1\n      div\n      0xffffffffffffffffffffffffffffffffffffffff\n      and\n        /* \"contracts/GeekNftMarketPlace.sol\":4064:4095  _idToNFT[i].owner == msg.sender */\n      0xffffffffffffffffffffffffffffffffffffffff\n      and\n      eq\n        /* \"contracts/GeekNftMarketPlace.sol\":4061:4189  if(_idToNFT[i].owner == msg.sender) {... */\n      iszero\n      tag_190\n      jumpi\n        /* \"contracts/GeekNftMarketPlace.sol\":4134:4142  _idToNFT */\n      0x05\n        /* \"contracts/GeekNftMarketPlace.sol\":4134:4145  _idToNFT[i] */\n      0x00\n        /* \"contracts/GeekNftMarketPlace.sol\":4143:4144  i */\n      dup3\n        /* \"contracts/GeekNftMarketPlace.sol\":4134:4145  _idToNFT[i] */\n      dup2\n      mstore\n      0x20\n      add\n      swap1\n      dup2\n      mstore\n      0x20\n      add\n      0x00\n      keccak256\n        /* \"contracts/GeekNftMarketPlace.sol\":4115:4145  myNfts[nftIndex] = _idToNFT[i] */\n      mload(0x40)\n      dup1\n      0xc0\n      add\n      0x40\n      mstore\n      swap1\n      dup2\n      0x00\n      dup3\n      add\n      sload\n      dup2\n      mstore\n      0x20\n      add\n      0x01\n      dup3\n      add\n      sload\n      dup2\n      mstore\n      0x20\n      add\n      0x02\n      dup3\n      add\n      0x00\n      swap1\n      sload\n      swap1\n      0x0100\n      exp\n      swap1\n      div\n      0xffffffffffffffffffffffffffffffffffffffff\n      and\n      0xffffffffffffffffffffffffffffffffffffffff\n      and\n      0xffffffffffffffffffffffffffffffffffffffff\n      and\n      dup2\n      mstore\n      0x20\n      add\n      0x03\n      dup3\n      add\n      0x00\n      swap1\n      sload\n      swap1\n      0x0100\n      exp\n      swap1\n      div\n      0xffffffffffffffffffffffffffffffffffffffff\n      and\n      0xffffffffffffffffffffffffffffffffffffffff\n      and\n      0xffffffffffffffffffffffffffffffffffffffff\n      and\n      dup2\n      mstore\n      0x20\n      add\n      0x04\n      dup3\n      add\n      0x00\n      swap1\n      sload\n      swap1\n      0x0100\n      exp\n      swap1\n      div\n      0xffffffffffffffffffffffffffffffffffffffff\n      and\n      0xffffffffffffffffffffffffffffffffffffffff\n      and\n      0xffffffffffffffffffffffffffffffffffffffff\n      and\n      dup2\n      mstore\n      0x20\n      add\n      0x04\n      dup3\n      add\n      0x14\n      swap1\n      sload\n      swap1\n      0x0100\n      exp\n      swap1\n      div\n      0xff\n      and\n      iszero\n      iszero\n      iszero\n      iszero\n      dup2\n      mstore\n      pop\n      pop\n        /* \"contracts/GeekNftMarketPlace.sol\":4115:4121  myNfts */\n      dup4\n        /* \"contracts/GeekNftMarketPlace.sol\":4122:4130  nftIndex */\n      dup4\n        /* \"contracts/GeekNftMarketPlace.sol\":4115:4131  myNfts[nftIndex] */\n      dup2\n      mload\n      dup2\n      lt\n      tag_191\n      jumpi\n      tag_192\n      tag_106\n      jump\t// in\n    tag_192:\n    tag_191:\n      0x20\n      mul\n      0x20\n      add\n      add\n        /* \"contracts/GeekNftMarketPlace.sol\":4115:4145  myNfts[nftIndex] = _idToNFT[i] */\n      dup2\n      swap1\n      mstore\n      pop\n        /* \"contracts/GeekNftMarketPlace.sol\":4163:4174  nftIndex ++ */\n      dup2\n      dup1\n      tag_193\n      swap1\n      tag_90\n      jump\t// in\n    tag_193:\n      swap3\n      pop\n      pop\n        /* \"contracts/GeekNftMarketPlace.sol\":4061:4189  if(_idToNFT[i].owner == msg.sender) {... */\n    tag_190:\n        /* \"contracts/GeekNftMarketPlace.sol\":4042:4045  i++ */\n      dup1\n      dup1\n      tag_194\n      swap1\n      tag_90\n      jump\t// in\n    tag_194:\n      swap2\n      pop\n      pop\n        /* \"contracts/GeekNftMarketPlace.sol\":4009:4199  for (uint i = 1; i <= nftsCount; i++) {... */\n      jump(tag_187)\n    tag_188:\n      pop\n        /* \"contracts/GeekNftMarketPlace.sol\":4216:4222  myNfts */\n      dup2\n        /* \"contracts/GeekNftMarketPlace.sol\":4209:4222  return myNfts */\n      swap5\n      pop\n      pop\n      pop\n      pop\n      pop\n        /* \"contracts/GeekNftMarketPlace.sol\":3625:4229  function getMyOwnedNfts() public view returns (NFT[] memory) {... */\n      swap1\n      jump\t// out\n        /* \"contracts/GeekNftMarketPlace.sol\":1661:2270  function listNFT(address _nftContract, uint _tokenId, uint _price) public payable nonReentrant priceIsGreaterThanZero(_price) valueIsEqualToFees{... */\n    tag_51:\n        /* \"contracts/RenntrancyGuard.sol\":171:172  2 */\n      0x02\n        /* \"contracts/RenntrancyGuard.sol\":310:317  _status */\n      sload(0x00)\n        /* \"contracts/RenntrancyGuard.sol\":310:329  _status != _ENTERED */\n      eq\n      iszero\n        /* \"contracts/RenntrancyGuard.sol\":302:365  require(_status != _ENTERED, \"ReentrancyGuard: reentrant call\") */\n      tag_196\n      jumpi\n      mload(0x40)\n      0x08c379a000000000000000000000000000000000000000000000000000000000\n      dup2\n      mstore\n      0x04\n      add\n      tag_197\n      swap1\n      tag_59\n      jump\t// in\n    tag_197:\n      mload(0x40)\n      dup1\n      swap2\n      sub\n      swap1\n      revert\n    tag_196:\n        /* \"contracts/RenntrancyGuard.sol\":171:172  2 */\n      0x02\n        /* \"contracts/RenntrancyGuard.sol\":375:382  _status */\n      0x00\n        /* \"contracts/RenntrancyGuard.sol\":375:393  _status = _ENTERED */\n      dup2\n      swap1\n      sstore\n      pop\n        /* \"contracts/GeekNftMarketPlace.sol\":1779:1785  _price */\n      dup1\n        /* \"contracts/GeekNftMarketPlace.sol\":1177:1178  0 */\n      0x00\n        /* \"contracts/GeekNftMarketPlace.sol\":1168:1174  _price */\n      dup2\n        /* \"contracts/GeekNftMarketPlace.sol\":1168:1178  _price > 0 */\n      gt\n        /* \"contracts/GeekNftMarketPlace.sol\":1160:1211  require(_price > 0, \"Price must be at least 1 wei\") */\n      tag_199\n      jumpi\n      mload(0x40)\n      0x08c379a000000000000000000000000000000000000000000000000000000000\n      dup2\n      mstore\n      0x04\n      add\n      tag_200\n      swap1\n      tag_63\n      jump\t// in\n    tag_200:\n      mload(0x40)\n      dup1\n      swap2\n      sub\n      swap1\n      revert\n    tag_199:\n        /* \"contracts/GeekNftMarketPlace.sol\":1296:1307  LISTING_FEE */\n      sload(0x03)\n        /* \"contracts/GeekNftMarketPlace.sol\":1283:1292  msg.value */\n      callvalue\n        /* \"contracts/GeekNftMarketPlace.sol\":1283:1307  msg.value == LISTING_FEE */\n      eq\n        /* \"contracts/GeekNftMarketPlace.sol\":1275:1344  require(msg.value == LISTING_FEE, \"Not enough ether for listing fee\") */\n      tag_202\n      jumpi\n      mload(0x40)\n      0x08c379a000000000000000000000000000000000000000000000000000000000\n      dup2\n      mstore\n      0x04\n      add\n      tag_203\n      swap1\n      tag_67\n      jump\t// in\n    tag_203:\n      mload(0x40)\n      dup1\n      swap2\n      sub\n      swap1\n      revert\n    tag_202:\n        /* \"contracts/GeekNftMarketPlace.sol\":1832:1844  _nftContract */\n      dup4\n        /* \"contracts/GeekNftMarketPlace.sol\":1815:1858  GeekNftInterface(_nftContract).transferFrom */\n      0xffffffffffffffffffffffffffffffffffffffff\n      and\n      0x23b872dd\n        /* \"contracts/GeekNftMarketPlace.sol\":1859:1869  msg.sender */\n      caller\n        /* \"contracts/GeekNftMarketPlace.sol\":1879:1883  this */\n      address\n        /* \"contracts/GeekNftMarketPlace.sol\":1886:1894  _tokenId */\n      dup7\n        /* \"contracts/GeekNftMarketPlace.sol\":1815:1895  GeekNftInterface(_nftContract).transferFrom(msg.sender, address(this), _tokenId) */\n      mload(0x40)\n      dup5\n      0xffffffff\n      and\n      0xe0\n      shl\n      dup2\n      mstore\n      0x04\n      add\n      tag_205\n      swap4\n      swap3\n      swap2\n      swap1\n      tag_73\n      jump\t// in\n    tag_205:\n      0x00\n      mload(0x40)\n      dup1\n      dup4\n      sub\n      dup2\n      0x00\n      dup8\n      dup1\n      extcodesize\n      iszero\n      dup1\n      iszero\n      tag_206\n      jumpi\n      0x00\n      dup1\n      revert\n    tag_206:\n      pop\n      gas\n      call\n      iszero\n      dup1\n      iszero\n      tag_208\n      jumpi\n      returndatasize\n      0x00\n      dup1\n      returndatacopy\n      revert(0x00, returndatasize)\n    tag_208:\n      pop\n      pop\n      pop\n      pop\n        /* \"contracts/GeekNftMarketPlace.sol\":1927:2102  NFT(... */\n      mload(0x40)\n      dup1\n      0xc0\n      add\n      0x40\n      mstore\n      dup1\n        /* \"contracts/GeekNftMarketPlace.sol\":1944:1952  _tokenId */\n      dup5\n        /* \"contracts/GeekNftMarketPlace.sol\":1927:2102  NFT(... */\n      dup2\n      mstore\n      0x20\n      add\n        /* \"contracts/GeekNftMarketPlace.sol\":1966:1972  _price */\n      dup4\n        /* \"contracts/GeekNftMarketPlace.sol\":1927:2102  NFT(... */\n      dup2\n      mstore\n      0x20\n      add\n        /* \"contracts/GeekNftMarketPlace.sol\":1994:2004  msg.sender */\n      caller\n        /* \"contracts/GeekNftMarketPlace.sol\":1927:2102  NFT(... */\n      0xffffffffffffffffffffffffffffffffffffffff\n      and\n      dup2\n      mstore\n      0x20\n      add\n        /* \"contracts/GeekNftMarketPlace.sol\":2035:2039  this */\n      address\n        /* \"contracts/GeekNftMarketPlace.sol\":1927:2102  NFT(... */\n      0xffffffffffffffffffffffffffffffffffffffff\n      and\n      dup2\n      mstore\n      0x20\n      add\n        /* \"contracts/GeekNftMarketPlace.sol\":2063:2073  msg.sender */\n      caller\n        /* \"contracts/GeekNftMarketPlace.sol\":1927:2102  NFT(... */\n      0xffffffffffffffffffffffffffffffffffffffff\n      and\n      dup2\n      mstore\n      0x20\n      add\n        /* \"contracts/GeekNftMarketPlace.sol\":2088:2092  true */\n      0x01\n        /* \"contracts/GeekNftMarketPlace.sol\":1927:2102  NFT(... */\n      iszero\n      iszero\n      dup2\n      mstore\n      pop\n        /* \"contracts/GeekNftMarketPlace.sol\":1906:1914  _idToNFT */\n      0x05\n        /* \"contracts/GeekNftMarketPlace.sol\":1906:1924  _idToNFT[_tokenId] */\n      0x00\n        /* \"contracts/GeekNftMarketPlace.sol\":1915:1923  _tokenId */\n      dup6\n        /* \"contracts/GeekNftMarketPlace.sol\":1906:1924  _idToNFT[_tokenId] */\n      dup2\n      mstore\n      0x20\n      add\n      swap1\n      dup2\n      mstore\n      0x20\n      add\n      0x00\n      keccak256\n        /* \"contracts/GeekNftMarketPlace.sol\":1906:2102  _idToNFT[_tokenId] = NFT(... */\n      0x00\n      dup3\n      add\n      mload\n      dup2\n      0x00\n      add\n      sstore\n      0x20\n      dup3\n      add\n      mload\n      dup2\n      0x01\n      add\n      sstore\n      0x40\n      dup3\n      add\n      mload\n      dup2\n      0x02\n      add\n      exp(0x0100, 0x00)\n      dup2\n      sload\n      dup2\n      0xffffffffffffffffffffffffffffffffffffffff\n      mul\n      not\n      and\n      swap1\n      dup4\n      0xffffffffffffffffffffffffffffffffffffffff\n      and\n      mul\n      or\n      swap1\n      sstore\n      pop\n      0x60\n      dup3\n      add\n      mload\n      dup2\n      0x03\n      add\n      exp(0x0100, 0x00)\n      dup2\n      sload\n      dup2\n      0xffffffffffffffffffffffffffffffffffffffff\n      mul\n      not\n      and\n      swap1\n      dup4\n      0xffffffffffffffffffffffffffffffffffffffff\n      and\n      mul\n      or\n      swap1\n      sstore\n      pop\n      0x80\n      dup3\n      add\n      mload\n      dup2\n      0x04\n      add\n      exp(0x0100, 0x00)\n      dup2\n      sload\n      dup2\n      0xffffffffffffffffffffffffffffffffffffffff\n      mul\n      not\n      and\n      swap1\n      dup4\n      0xffffffffffffffffffffffffffffffffffffffff\n      and\n      mul\n      or\n      swap1\n      sstore\n      pop\n      0xa0\n      dup3\n      add\n      mload\n      dup2\n      0x04\n      add\n      exp(0x0100, 0x14)\n      dup2\n      sload\n      dup2\n      0xff\n      mul\n      not\n      and\n      swap1\n      dup4\n      iszero\n      iszero\n      mul\n      or\n      swap1\n      sstore\n      pop\n      swap1\n      pop\n      pop\n        /* \"contracts/GeekNftMarketPlace.sol\":2113:2135  _nftsCount.increment() */\n      tag_209\n        /* \"contracts/GeekNftMarketPlace.sol\":2113:2123  _nftsCount */\n      0x02\n        /* \"contracts/GeekNftMarketPlace.sol\":2113:2133  _nftsCount.increment */\n      tag_133\n        /* \"contracts/GeekNftMarketPlace.sol\":2113:2135  _nftsCount.increment() */\n      jump\t// in\n    tag_209:\n        /* \"contracts/GeekNftMarketPlace.sol\":2146:2159  _marketOwwner */\n      0x04\n      0x00\n      swap1\n      sload\n      swap1\n      0x0100\n      exp\n      swap1\n      div\n      0xffffffffffffffffffffffffffffffffffffffff\n      and\n        /* \"contracts/GeekNftMarketPlace.sol\":2146:2168  _marketOwwner.transfer */\n      0xffffffffffffffffffffffffffffffffffffffff\n      and\n        /* \"contracts/GeekNftMarketPlace.sol\":2146:2179  _marketOwwner.transfer(msg.value) */\n      0x08fc\n        /* \"contracts/GeekNftMarketPlace.sol\":2169:2178  msg.value */\n      callvalue\n        /* \"contracts/GeekNftMarketPlace.sol\":2146:2179  _marketOwwner.transfer(msg.value) */\n      swap1\n      dup2\n      iszero\n      mul\n      swap1\n      mload(0x40)\n      0x00\n      mload(0x40)\n      dup1\n      dup4\n      sub\n      dup2\n      dup6\n      dup9\n      dup9\n      call\n      swap4\n      pop\n      pop\n      pop\n      pop\n      iszero\n      dup1\n      iszero\n      tag_211\n      jumpi\n      returndatasize\n      0x00\n      dup1\n      returndatacopy\n      revert(0x00, returndatasize)\n    tag_211:\n      pop\n        /* \"contracts/GeekNftMarketPlace.sol\":2249:2253  this */\n      address\n        /* \"contracts/GeekNftMarketPlace.sol\":2195:2263  NFTListed(_nftContract, _tokenId, msg.sender, address(this), _price) */\n      0xffffffffffffffffffffffffffffffffffffffff\n      and\n        /* \"contracts/GeekNftMarketPlace.sol\":2229:2239  msg.sender */\n      caller\n        /* \"contracts/GeekNftMarketPlace.sol\":2195:2263  NFTListed(_nftContract, _tokenId, msg.sender, address(this), _price) */\n      0xffffffffffffffffffffffffffffffffffffffff\n      and\n        /* \"contracts/GeekNftMarketPlace.sol\":2219:2227  _tokenId */\n      dup5\n        /* \"contracts/GeekNftMarketPlace.sol\":2195:2263  NFTListed(_nftContract, _tokenId, msg.sender, address(this), _price) */\n      0xa0c6c0d02d86fdacecbaa5fdf5894bab204e31a778250474108540733a9b8d19\n        /* \"contracts/GeekNftMarketPlace.sol\":2205:2217  _nftContract */\n      dup8\n        /* \"contracts/GeekNftMarketPlace.sol\":2256:2262  _price */\n      dup7\n        /* \"contracts/GeekNftMarketPlace.sol\":2195:2263  NFTListed(_nftContract, _tokenId, msg.sender, address(this), _price) */\n      mload(0x40)\n      tag_212\n      swap3\n      swap2\n      swap1\n      tag_80\n      jump\t// in\n    tag_212:\n      mload(0x40)\n      dup1\n      swap2\n      sub\n      swap1\n      log4\n        /* \"contracts/RenntrancyGuard.sol\":403:404  _ */\n      pop\n        /* \"contracts/RenntrancyGuard.sol\":128:129  1 */\n      0x01\n        /* \"contracts/RenntrancyGuard.sol\":414:421  _status */\n      0x00\n        /* \"contracts/RenntrancyGuard.sol\":414:436  _status = _NOT_ENTERED */\n      dup2\n      swap1\n      sstore\n      pop\n        /* \"contracts/GeekNftMarketPlace.sol\":1661:2270  function listNFT(address _nftContract, uint _tokenId, uint _price) public payable nonReentrant priceIsGreaterThanZero(_price) valueIsEqualToFees{... */\n      pop\n      pop\n      pop\n      jump\t// out\n        /* \"contracts/GeekNftMarketPlace.sol\":1368:1454  function getListingFee() public view returns (uint){... */\n    tag_54:\n        /* \"contracts/GeekNftMarketPlace.sol\":1414:1418  uint */\n      0x00\n        /* \"contracts/GeekNftMarketPlace.sol\":1436:1447  LISTING_FEE */\n      sload(0x03)\n        /* \"contracts/GeekNftMarketPlace.sol\":1429:1447  return LISTING_FEE */\n      swap1\n      pop\n        /* \"contracts/GeekNftMarketPlace.sol\":1368:1454  function getListingFee() public view returns (uint){... */\n      swap1\n      jump\t// out\n        /* \"contracts/Counters.sol\":1074:1303  function decrement(Counter storage counter) internal {... */\n    tag_78:\n        /* \"contracts/Counters.sol\":1137:1150  uint256 value */\n      0x00\n        /* \"contracts/Counters.sol\":1153:1160  counter */\n      dup2\n        /* \"contracts/Counters.sol\":1153:1167  counter._value */\n      0x00\n      add\n      sload\n        /* \"contracts/Counters.sol\":1137:1167  uint256 value = counter._value */\n      swap1\n      pop\n        /* \"contracts/Counters.sol\":1193:1194  0 */\n      0x00\n        /* \"contracts/Counters.sol\":1185:1190  value */\n      dup2\n        /* \"contracts/Counters.sol\":1185:1194  value > 0 */\n      gt\n        /* \"contracts/Counters.sol\":1177:1226  require(value > 0, \"Counter: decrement overflow\") */\n      tag_215\n      jumpi\n      mload(0x40)\n      0x08c379a000000000000000000000000000000000000000000000000000000000\n      dup2\n      mstore\n      0x04\n      add\n      tag_216\n      swap1\n      tag_217\n      jump\t// in\n    tag_216:\n      mload(0x40)\n      dup1\n      swap2\n      sub\n      swap1\n      revert\n    tag_215:\n        /* \"contracts/Counters.sol\":1285:1286  1 */\n      0x01\n        /* \"contracts/Counters.sol\":1277:1282  value */\n      dup2\n        /* \"contracts/Counters.sol\":1277:1286  value - 1 */\n      sub\n        /* \"contracts/Counters.sol\":1260:1267  counter */\n      dup3\n        /* \"contracts/Counters.sol\":1260:1274  counter._value */\n      0x00\n      add\n        /* \"contracts/Counters.sol\":1260:1286  counter._value = value - 1 */\n      dup2\n      swap1\n      sstore\n      pop\n        /* \"contracts/Counters.sol\":1127:1303  {... */\n      pop\n        /* \"contracts/Counters.sol\":1074:1303  function decrement(Counter storage counter) internal {... */\n      pop\n      jump\t// out\n        /* \"contracts/Counters.sol\":827:939  function current(Counter storage counter) internal view returns (uint256) {... */\n    tag_83:\n        /* \"contracts/Counters.sol\":892:899  uint256 */\n      0x00\n        /* \"contracts/Counters.sol\":918:925  counter */\n      dup2\n        /* \"contracts/Counters.sol\":918:932  counter._value */\n      0x00\n      add\n      sload\n        /* \"contracts/Counters.sol\":911:932  return counter._value */\n      swap1\n      pop\n        /* \"contracts/Counters.sol\":827:939  function current(Counter storage counter) internal view returns (uint256) {... */\n      swap2\n      swap1\n      pop\n      jump\t// out\n        /* \"contracts/Counters.sol\":945:1068  function increment(Counter storage counter) internal {... */\n    tag_133:\n        /* \"contracts/Counters.sol\":1050:1051  1 */\n      0x01\n        /* \"contracts/Counters.sol\":1032:1039  counter */\n      dup2\n        /* \"contracts/Counters.sol\":1032:1046  counter._value */\n      0x00\n      add\n      0x00\n        /* \"contracts/Counters.sol\":1032:1051  counter._value += 1 */\n      dup3\n      dup3\n      sload\n      add\n      swap3\n      pop\n      pop\n      dup2\n      swap1\n      sstore\n      pop\n        /* \"contracts/Counters.sol\":945:1068  function increment(Counter storage counter) internal {... */\n      pop\n      jump\t// out\n    tag_98:\n      mload(0x40)\n      dup1\n      0xc0\n      add\n      0x40\n      mstore\n      dup1\n      0x00\n      dup2\n      mstore\n      0x20\n      add\n      0x00\n      dup2\n      mstore\n      0x20\n      add\n      and(0xffffffffffffffffffffffffffffffffffffffff, 0x00)\n      dup2\n      mstore\n      0x20\n      add\n      and(0xffffffffffffffffffffffffffffffffffffffff, 0x00)\n      dup2\n      mstore\n      0x20\n      add\n      and(0xffffffffffffffffffffffffffffffffffffffff, 0x00)\n      dup2\n      mstore\n      0x20\n      add\n      iszero(iszero(0x00))\n      dup2\n      mstore\n      pop\n      swap1\n      jump\t// out\n        /* \"#utility.yul\":7:146   */\n    tag_221:\n        /* \"#utility.yul\":53:58   */\n      0x00\n        /* \"#utility.yul\":91:97   */\n      dup2\n        /* \"#utility.yul\":78:98   */\n      calldataload\n        /* \"#utility.yul\":69:98   */\n      swap1\n      pop\n        /* \"#utility.yul\":107:140   */\n      tag_223\n        /* \"#utility.yul\":134:139   */\n      dup2\n        /* \"#utility.yul\":107:140   */\n      tag_224\n      jump\t// in\n    tag_223:\n        /* \"#utility.yul\":7:146   */\n      swap3\n      swap2\n      pop\n      pop\n      jump\t// out\n        /* \"#utility.yul\":152:295   */\n    tag_225:\n        /* \"#utility.yul\":209:214   */\n      0x00\n        /* \"#utility.yul\":240:246   */\n      dup2\n        /* \"#utility.yul\":234:247   */\n      mload\n        /* \"#utility.yul\":225:247   */\n      swap1\n      pop\n        /* \"#utility.yul\":256:289   */\n      tag_227\n        /* \"#utility.yul\":283:288   */\n      dup2\n        /* \"#utility.yul\":256:289   */\n      tag_224\n      jump\t// in\n    tag_227:\n        /* \"#utility.yul\":152:295   */\n      swap3\n      swap2\n      pop\n      pop\n      jump\t// out\n        /* \"#utility.yul\":301:440   */\n    tag_228:\n        /* \"#utility.yul\":347:352   */\n      0x00\n        /* \"#utility.yul\":385:391   */\n      dup2\n        /* \"#utility.yul\":372:392   */\n      calldataload\n        /* \"#utility.yul\":363:392   */\n      swap1\n      pop\n        /* \"#utility.yul\":401:434   */\n      tag_230\n        /* \"#utility.yul\":428:433   */\n      dup2\n        /* \"#utility.yul\":401:434   */\n      tag_231\n      jump\t// in\n    tag_230:\n        /* \"#utility.yul\":301:440   */\n      swap3\n      swap2\n      pop\n      pop\n      jump\t// out\n        /* \"#utility.yul\":446:797   */\n    tag_115:\n        /* \"#utility.yul\":516:522   */\n      0x00\n        /* \"#utility.yul\":565:567   */\n      0x20\n        /* \"#utility.yul\":553:562   */\n      dup3\n        /* \"#utility.yul\":544:551   */\n      dup5\n        /* \"#utility.yul\":540:563   */\n      sub\n        /* \"#utility.yul\":536:568   */\n      slt\n        /* \"#utility.yul\":533:652   */\n      iszero\n      tag_233\n      jumpi\n        /* \"#utility.yul\":571:650   */\n      tag_234\n      tag_235\n      jump\t// in\n    tag_234:\n        /* \"#utility.yul\":533:652   */\n    tag_233:\n        /* \"#utility.yul\":691:692   */\n      0x00\n        /* \"#utility.yul\":716:780   */\n      tag_236\n        /* \"#utility.yul\":772:779   */\n      dup5\n        /* \"#utility.yul\":763:769   */\n      dup3\n        /* \"#utility.yul\":752:761   */\n      dup6\n        /* \"#utility.yul\":748:770   */\n      add\n        /* \"#utility.yul\":716:780   */\n      tag_225\n      jump\t// in\n    tag_236:\n        /* \"#utility.yul\":706:780   */\n      swap2\n      pop\n        /* \"#utility.yul\":662:790   */\n      pop\n        /* \"#utility.yul\":446:797   */\n      swap3\n      swap2\n      pop\n      pop\n      jump\t// out\n        /* \"#utility.yul\":803:1277   */\n    tag_30:\n        /* \"#utility.yul\":871:877   */\n      0x00\n        /* \"#utility.yul\":879:885   */\n      dup1\n        /* \"#utility.yul\":928:930   */\n      0x40\n        /* \"#utility.yul\":916:925   */\n      dup4\n        /* \"#utility.yul\":907:914   */\n      dup6\n        /* \"#utility.yul\":903:926   */\n      sub\n        /* \"#utility.yul\":899:931   */\n      slt\n        /* \"#utility.yul\":896:1015   */\n      iszero\n      tag_238\n      jumpi\n        /* \"#utility.yul\":934:1013   */\n      tag_239\n      tag_235\n      jump\t// in\n    tag_239:\n        /* \"#utility.yul\":896:1015   */\n    tag_238:\n        /* \"#utility.yul\":1054:1055   */\n      0x00\n        /* \"#utility.yul\":1079:1132   */\n      tag_240\n        /* \"#utility.yul\":1124:1131   */\n      dup6\n        /* \"#utility.yul\":1115:1121   */\n      dup3\n        /* \"#utility.yul\":1104:1113   */\n      dup7\n        /* \"#utility.yul\":1100:1122   */\n      add\n        /* \"#utility.yul\":1079:1132   */\n      tag_221\n      jump\t// in\n    tag_240:\n        /* \"#utility.yul\":1069:1132   */\n      swap3\n      pop\n        /* \"#utility.yul\":1025:1142   */\n      pop\n        /* \"#utility.yul\":1181:1183   */\n      0x20\n        /* \"#utility.yul\":1207:1260   */\n      tag_241\n        /* \"#utility.yul\":1252:1259   */\n      dup6\n        /* \"#utility.yul\":1243:1249   */\n      dup3\n        /* \"#utility.yul\":1232:1241   */\n      dup7\n        /* \"#utility.yul\":1228:1250   */\n      add\n        /* \"#utility.yul\":1207:1260   */\n      tag_228\n      jump\t// in\n    tag_241:\n        /* \"#utility.yul\":1197:1260   */\n      swap2\n      pop\n        /* \"#utility.yul\":1152:1270   */\n      pop\n        /* \"#utility.yul\":803:1277   */\n      swap3\n      pop\n      swap3\n      swap1\n      pop\n      jump\t// out\n        /* \"#utility.yul\":1283:1902   */\n    tag_15:\n        /* \"#utility.yul\":1360:1366   */\n      0x00\n        /* \"#utility.yul\":1368:1374   */\n      dup1\n        /* \"#utility.yul\":1376:1382   */\n      0x00\n        /* \"#utility.yul\":1425:1427   */\n      0x60\n        /* \"#utility.yul\":1413:1422   */\n      dup5\n        /* \"#utility.yul\":1404:1411   */\n      dup7\n        /* \"#utility.yul\":1400:1423   */\n      sub\n        /* \"#utility.yul\":1396:1428   */\n      slt\n        /* \"#utility.yul\":1393:1512   */\n      iszero\n      tag_243\n      jumpi\n        /* \"#utility.yul\":1431:1510   */\n      tag_244\n      tag_235\n      jump\t// in\n    tag_244:\n        /* \"#utility.yul\":1393:1512   */\n    tag_243:\n        /* \"#utility.yul\":1551:1552   */\n      0x00\n        /* \"#utility.yul\":1576:1629   */\n      tag_245\n        /* \"#utility.yul\":1621:1628   */\n      dup7\n        /* \"#utility.yul\":1612:1618   */\n      dup3\n        /* \"#utility.yul\":1601:1610   */\n      dup8\n        /* \"#utility.yul\":1597:1619   */\n      add\n        /* \"#utility.yul\":1576:1629   */\n      tag_221\n      jump\t// in\n    tag_245:\n        /* \"#utility.yul\":1566:1629   */\n      swap4\n      pop\n        /* \"#utility.yul\":1522:1639   */\n      pop\n        /* \"#utility.yul\":1678:1680   */\n      0x20\n        /* \"#utility.yul\":1704:1757   */\n      tag_246\n        /* \"#utility.yul\":1749:1756   */\n      dup7\n        /* \"#utility.yul\":1740:1746   */\n      dup3\n        /* \"#utility.yul\":1729:1738   */\n      dup8\n        /* \"#utility.yul\":1725:1747   */\n      add\n        /* \"#utility.yul\":1704:1757   */\n      tag_228\n      jump\t// in\n    tag_246:\n        /* \"#utility.yul\":1694:1757   */\n      swap3\n      pop\n        /* \"#utility.yul\":1649:1767   */\n      pop\n        /* \"#utility.yul\":1806:1808   */\n      0x40\n        /* \"#utility.yul\":1832:1885   */\n      tag_247\n        /* \"#utility.yul\":1877:1884   */\n      dup7\n        /* \"#utility.yul\":1868:1874   */\n      dup3\n        /* \"#utility.yul\":1857:1866   */\n      dup8\n        /* \"#utility.yul\":1853:1875   */\n      add\n        /* \"#utility.yul\":1832:1885   */\n      tag_228\n      jump\t// in\n    tag_247:\n        /* \"#utility.yul\":1822:1885   */\n      swap2\n      pop\n        /* \"#utility.yul\":1777:1895   */\n      pop\n        /* \"#utility.yul\":1283:1902   */\n      swap3\n      pop\n      swap3\n      pop\n      swap3\n      jump\t// out\n        /* \"#utility.yul\":1908:2167   */\n    tag_248:\n        /* \"#utility.yul\":2017:2027   */\n      0x00\n        /* \"#utility.yul\":2038:2124   */\n      tag_250\n        /* \"#utility.yul\":2120:2123   */\n      dup4\n        /* \"#utility.yul\":2112:2118   */\n      dup4\n        /* \"#utility.yul\":2038:2124   */\n      tag_251\n      jump\t// in\n    tag_250:\n        /* \"#utility.yul\":2156:2160   */\n      0xc0\n        /* \"#utility.yul\":2151:2154   */\n      dup4\n        /* \"#utility.yul\":2147:2161   */\n      add\n        /* \"#utility.yul\":2133:2161   */\n      swap1\n      pop\n        /* \"#utility.yul\":1908:2167   */\n      swap3\n      swap2\n      pop\n      pop\n      jump\t// out\n        /* \"#utility.yul\":2173:2320   */\n    tag_252:\n        /* \"#utility.yul\":2268:2313   */\n      tag_254\n        /* \"#utility.yul\":2307:2312   */\n      dup2\n        /* \"#utility.yul\":2268:2313   */\n      tag_255\n      jump\t// in\n    tag_254:\n        /* \"#utility.yul\":2263:2266   */\n      dup3\n        /* \"#utility.yul\":2256:2314   */\n      mstore\n        /* \"#utility.yul\":2173:2320   */\n      pop\n      pop\n      jump\t// out\n        /* \"#utility.yul\":2326:2458   */\n    tag_256:\n        /* \"#utility.yul\":2419:2451   */\n      tag_258\n        /* \"#utility.yul\":2445:2450   */\n      dup2\n        /* \"#utility.yul\":2419:2451   */\n      tag_259\n      jump\t// in\n    tag_258:\n        /* \"#utility.yul\":2414:2417   */\n      dup3\n        /* \"#utility.yul\":2407:2452   */\n      mstore\n        /* \"#utility.yul\":2326:2458   */\n      pop\n      pop\n      jump\t// out\n        /* \"#utility.yul\":2464:2582   */\n    tag_260:\n        /* \"#utility.yul\":2551:2575   */\n      tag_262\n        /* \"#utility.yul\":2569:2574   */\n      dup2\n        /* \"#utility.yul\":2551:2575   */\n      tag_263\n      jump\t// in\n    tag_262:\n        /* \"#utility.yul\":2546:2549   */\n      dup3\n        /* \"#utility.yul\":2539:2576   */\n      mstore\n        /* \"#utility.yul\":2464:2582   */\n      pop\n      pop\n      jump\t// out\n        /* \"#utility.yul\":2662:3554   */\n    tag_264:\n        /* \"#utility.yul\":2821:2824   */\n      0x00\n        /* \"#utility.yul\":2850:2924   */\n      tag_266\n        /* \"#utility.yul\":2918:2923   */\n      dup3\n        /* \"#utility.yul\":2850:2924   */\n      tag_267\n      jump\t// in\n    tag_266:\n        /* \"#utility.yul\":2940:3046   */\n      tag_268\n        /* \"#utility.yul\":3039:3045   */\n      dup2\n        /* \"#utility.yul\":3034:3037   */\n      dup6\n        /* \"#utility.yul\":2940:3046   */\n      tag_269\n      jump\t// in\n    tag_268:\n        /* \"#utility.yul\":2933:3046   */\n      swap4\n      pop\n        /* \"#utility.yul\":3070:3146   */\n      tag_270\n        /* \"#utility.yul\":3140:3145   */\n      dup4\n        /* \"#utility.yul\":3070:3146   */\n      tag_271\n      jump\t// in\n    tag_270:\n        /* \"#utility.yul\":3169:3176   */\n      dup1\n        /* \"#utility.yul\":3200:3201   */\n      0x00\n        /* \"#utility.yul\":3185:3529   */\n    tag_272:\n        /* \"#utility.yul\":3210:3216   */\n      dup4\n        /* \"#utility.yul\":3207:3208   */\n      dup2\n        /* \"#utility.yul\":3204:3217   */\n      lt\n        /* \"#utility.yul\":3185:3529   */\n      iszero\n      tag_274\n      jumpi\n        /* \"#utility.yul\":3286:3292   */\n      dup2\n        /* \"#utility.yul\":3280:3293   */\n      mload\n        /* \"#utility.yul\":3313:3416   */\n      tag_275\n        /* \"#utility.yul\":3412:3415   */\n      dup9\n        /* \"#utility.yul\":3397:3410   */\n      dup3\n        /* \"#utility.yul\":3313:3416   */\n      tag_248\n      jump\t// in\n    tag_275:\n        /* \"#utility.yul\":3306:3416   */\n      swap8\n      pop\n        /* \"#utility.yul\":3439:3519   */\n      tag_276\n        /* \"#utility.yul\":3512:3518   */\n      dup4\n        /* \"#utility.yul\":3439:3519   */\n      tag_277\n      jump\t// in\n    tag_276:\n        /* \"#utility.yul\":3429:3519   */\n      swap3\n      pop\n        /* \"#utility.yul\":3245:3529   */\n      pop\n        /* \"#utility.yul\":3232:3233   */\n      0x01\n        /* \"#utility.yul\":3229:3230   */\n      dup2\n        /* \"#utility.yul\":3225:3234   */\n      add\n        /* \"#utility.yul\":3220:3234   */\n      swap1\n      pop\n        /* \"#utility.yul\":3185:3529   */\n      jump(tag_272)\n    tag_274:\n        /* \"#utility.yul\":3189:3203   */\n      pop\n        /* \"#utility.yul\":3545:3548   */\n      dup6\n        /* \"#utility.yul\":3538:3548   */\n      swap4\n      pop\n        /* \"#utility.yul\":2826:3554   */\n      pop\n      pop\n      pop\n        /* \"#utility.yul\":2662:3554   */\n      swap3\n      swap2\n      pop\n      pop\n      jump\t// out\n        /* \"#utility.yul\":3560:3659   */\n    tag_278:\n        /* \"#utility.yul\":3631:3652   */\n      tag_280\n        /* \"#utility.yul\":3646:3651   */\n      dup2\n        /* \"#utility.yul\":3631:3652   */\n      tag_281\n      jump\t// in\n    tag_280:\n        /* \"#utility.yul\":3626:3629   */\n      dup3\n        /* \"#utility.yul\":3619:3653   */\n      mstore\n        /* \"#utility.yul\":3560:3659   */\n      pop\n      pop\n      jump\t// out\n        /* \"#utility.yul\":3665:4031   */\n    tag_282:\n        /* \"#utility.yul\":3807:3810   */\n      0x00\n        /* \"#utility.yul\":3828:3895   */\n      tag_284\n        /* \"#utility.yul\":3892:3894   */\n      0x0d\n        /* \"#utility.yul\":3887:3890   */\n      dup4\n        /* \"#utility.yul\":3828:3895   */\n      tag_285\n      jump\t// in\n    tag_284:\n        /* \"#utility.yul\":3821:3895   */\n      swap2\n      pop\n        /* \"#utility.yul\":3904:3997   */\n      tag_286\n        /* \"#utility.yul\":3993:3996   */\n      dup3\n        /* \"#utility.yul\":3904:3997   */\n      tag_287\n      jump\t// in\n    tag_286:\n        /* \"#utility.yul\":4022:4024   */\n      0x20\n        /* \"#utility.yul\":4017:4020   */\n      dup3\n        /* \"#utility.yul\":4013:4025   */\n      add\n        /* \"#utility.yul\":4006:4025   */\n      swap1\n      pop\n        /* \"#utility.yul\":3665:4031   */\n      swap2\n      swap1\n      pop\n      jump\t// out\n        /* \"#utility.yul\":4037:4403   */\n    tag_288:\n        /* \"#utility.yul\":4179:4182   */\n      0x00\n        /* \"#utility.yul\":4200:4267   */\n      tag_290\n        /* \"#utility.yul\":4264:4266   */\n      0x1b\n        /* \"#utility.yul\":4259:4262   */\n      dup4\n        /* \"#utility.yul\":4200:4267   */\n      tag_285\n      jump\t// in\n    tag_290:\n        /* \"#utility.yul\":4193:4267   */\n      swap2\n      pop\n        /* \"#utility.yul\":4276:4369   */\n      tag_291\n        /* \"#utility.yul\":4365:4368   */\n      dup3\n        /* \"#utility.yul\":4276:4369   */\n      tag_292\n      jump\t// in\n    tag_291:\n        /* \"#utility.yul\":4394:4396   */\n      0x20\n        /* \"#utility.yul\":4389:4392   */\n      dup3\n        /* \"#utility.yul\":4385:4397   */\n      add\n        /* \"#utility.yul\":4378:4397   */\n      swap1\n      pop\n        /* \"#utility.yul\":4037:4403   */\n      swap2\n      swap1\n      pop\n      jump\t// out\n        /* \"#utility.yul\":4409:4775   */\n    tag_293:\n        /* \"#utility.yul\":4551:4554   */\n      0x00\n        /* \"#utility.yul\":4572:4639   */\n      tag_295\n        /* \"#utility.yul\":4636:4638   */\n      0x26\n        /* \"#utility.yul\":4631:4634   */\n      dup4\n        /* \"#utility.yul\":4572:4639   */\n      tag_285\n      jump\t// in\n    tag_295:\n        /* \"#utility.yul\":4565:4639   */\n      swap2\n      pop\n        /* \"#utility.yul\":4648:4741   */\n      tag_296\n        /* \"#utility.yul\":4737:4740   */\n      dup3\n        /* \"#utility.yul\":4648:4741   */\n      tag_297\n      jump\t// in\n    tag_296:\n        /* \"#utility.yul\":4766:4768   */\n      0x40\n        /* \"#utility.yul\":4761:4764   */\n      dup3\n        /* \"#utility.yul\":4757:4769   */\n      add\n        /* \"#utility.yul\":4750:4769   */\n      swap1\n      pop\n        /* \"#utility.yul\":4409:4775   */\n      swap2\n      swap1\n      pop\n      jump\t// out\n        /* \"#utility.yul\":4781:5147   */\n    tag_298:\n        /* \"#utility.yul\":4923:4926   */\n      0x00\n        /* \"#utility.yul\":4944:5011   */\n      tag_300\n        /* \"#utility.yul\":5008:5010   */\n      0x20\n        /* \"#utility.yul\":5003:5006   */\n      dup4\n        /* \"#utility.yul\":4944:5011   */\n      tag_285\n      jump\t// in\n    tag_300:\n        /* \"#utility.yul\":4937:5011   */\n      swap2\n      pop\n        /* \"#utility.yul\":5020:5113   */\n      tag_301\n        /* \"#utility.yul\":5109:5112   */\n      dup3\n        /* \"#utility.yul\":5020:5113   */\n      tag_302\n      jump\t// in\n    tag_301:\n        /* \"#utility.yul\":5138:5140   */\n      0x20\n        /* \"#utility.yul\":5133:5136   */\n      dup3\n        /* \"#utility.yul\":5129:5141   */\n      add\n        /* \"#utility.yul\":5122:5141   */\n      swap1\n      pop\n        /* \"#utility.yul\":4781:5147   */\n      swap2\n      swap1\n      pop\n      jump\t// out\n        /* \"#utility.yul\":5153:5519   */\n    tag_303:\n        /* \"#utility.yul\":5295:5298   */\n      0x00\n        /* \"#utility.yul\":5316:5383   */\n      tag_305\n        /* \"#utility.yul\":5380:5382   */\n      0x1f\n        /* \"#utility.yul\":5375:5378   */\n      dup4\n        /* \"#utility.yul\":5316:5383   */\n      tag_285\n      jump\t// in\n    tag_305:\n        /* \"#utility.yul\":5309:5383   */\n      swap2\n      pop\n        /* \"#utility.yul\":5392:5485   */\n      tag_306\n        /* \"#utility.yul\":5481:5484   */\n      dup3\n        /* \"#utility.yul\":5392:5485   */\n      tag_307\n      jump\t// in\n    tag_306:\n        /* \"#utility.yul\":5510:5512   */\n      0x20\n        /* \"#utility.yul\":5505:5508   */\n      dup3\n        /* \"#utility.yul\":5501:5513   */\n      add\n        /* \"#utility.yul\":5494:5513   */\n      swap1\n      pop\n        /* \"#utility.yul\":5153:5519   */\n      swap2\n      swap1\n      pop\n      jump\t// out\n        /* \"#utility.yul\":5525:5891   */\n    tag_308:\n        /* \"#utility.yul\":5667:5670   */\n      0x00\n        /* \"#utility.yul\":5688:5755   */\n      tag_310\n        /* \"#utility.yul\":5752:5754   */\n      0x1c\n        /* \"#utility.yul\":5747:5750   */\n      dup4\n        /* \"#utility.yul\":5688:5755   */\n      tag_285\n      jump\t// in\n    tag_310:\n        /* \"#utility.yul\":5681:5755   */\n      swap2\n      pop\n        /* \"#utility.yul\":5764:5857   */\n      tag_311\n        /* \"#utility.yul\":5853:5856   */\n      dup3\n        /* \"#utility.yul\":5764:5857   */\n      tag_312\n      jump\t// in\n    tag_311:\n        /* \"#utility.yul\":5882:5884   */\n      0x20\n        /* \"#utility.yul\":5877:5880   */\n      dup3\n        /* \"#utility.yul\":5873:5885   */\n      add\n        /* \"#utility.yul\":5866:5885   */\n      swap1\n      pop\n        /* \"#utility.yul\":5525:5891   */\n      swap2\n      swap1\n      pop\n      jump\t// out\n        /* \"#utility.yul\":5967:7204   */\n    tag_251:\n        /* \"#utility.yul\":6094:6098   */\n      0xc0\n        /* \"#utility.yul\":6089:6092   */\n      dup3\n        /* \"#utility.yul\":6085:6099   */\n      add\n        /* \"#utility.yul\":6184:6188   */\n      0x00\n        /* \"#utility.yul\":6177:6182   */\n      dup3\n        /* \"#utility.yul\":6173:6189   */\n      add\n        /* \"#utility.yul\":6167:6190   */\n      mload\n        /* \"#utility.yul\":6203:6266   */\n      tag_314\n        /* \"#utility.yul\":6260:6264   */\n      0x00\n        /* \"#utility.yul\":6255:6258   */\n      dup6\n        /* \"#utility.yul\":6251:6265   */\n      add\n        /* \"#utility.yul\":6237:6249   */\n      dup3\n        /* \"#utility.yul\":6203:6266   */\n      tag_315\n      jump\t// in\n    tag_314:\n        /* \"#utility.yul\":6109:6276   */\n      pop\n        /* \"#utility.yul\":6359:6363   */\n      0x20\n        /* \"#utility.yul\":6352:6357   */\n      dup3\n        /* \"#utility.yul\":6348:6364   */\n      add\n        /* \"#utility.yul\":6342:6365   */\n      mload\n        /* \"#utility.yul\":6378:6441   */\n      tag_316\n        /* \"#utility.yul\":6435:6439   */\n      0x20\n        /* \"#utility.yul\":6430:6433   */\n      dup6\n        /* \"#utility.yul\":6426:6440   */\n      add\n        /* \"#utility.yul\":6412:6424   */\n      dup3\n        /* \"#utility.yul\":6378:6441   */\n      tag_315\n      jump\t// in\n    tag_316:\n        /* \"#utility.yul\":6286:6451   */\n      pop\n        /* \"#utility.yul\":6535:6539   */\n      0x40\n        /* \"#utility.yul\":6528:6533   */\n      dup3\n        /* \"#utility.yul\":6524:6540   */\n      add\n        /* \"#utility.yul\":6518:6541   */\n      mload\n        /* \"#utility.yul\":6554:6633   */\n      tag_317\n        /* \"#utility.yul\":6627:6631   */\n      0x40\n        /* \"#utility.yul\":6622:6625   */\n      dup6\n        /* \"#utility.yul\":6618:6632   */\n      add\n        /* \"#utility.yul\":6604:6616   */\n      dup3\n        /* \"#utility.yul\":6554:6633   */\n      tag_256\n      jump\t// in\n    tag_317:\n        /* \"#utility.yul\":6461:6643   */\n      pop\n        /* \"#utility.yul\":6726:6730   */\n      0x60\n        /* \"#utility.yul\":6719:6724   */\n      dup3\n        /* \"#utility.yul\":6715:6731   */\n      add\n        /* \"#utility.yul\":6709:6732   */\n      mload\n        /* \"#utility.yul\":6745:6824   */\n      tag_318\n        /* \"#utility.yul\":6818:6822   */\n      0x60\n        /* \"#utility.yul\":6813:6816   */\n      dup6\n        /* \"#utility.yul\":6809:6823   */\n      add\n        /* \"#utility.yul\":6795:6807   */\n      dup3\n        /* \"#utility.yul\":6745:6824   */\n      tag_256\n      jump\t// in\n    tag_318:\n        /* \"#utility.yul\":6653:6834   */\n      pop\n        /* \"#utility.yul\":6919:6923   */\n      0x80\n        /* \"#utility.yul\":6912:6917   */\n      dup3\n        /* \"#utility.yul\":6908:6924   */\n      add\n        /* \"#utility.yul\":6902:6925   */\n      mload\n        /* \"#utility.yul\":6938:7017   */\n      tag_319\n        /* \"#utility.yul\":7011:7015   */\n      0x80\n        /* \"#utility.yul\":7006:7009   */\n      dup6\n        /* \"#utility.yul\":7002:7016   */\n      add\n        /* \"#utility.yul\":6988:7000   */\n      dup3\n        /* \"#utility.yul\":6938:7017   */\n      tag_256\n      jump\t// in\n    tag_319:\n        /* \"#utility.yul\":6844:7027   */\n      pop\n        /* \"#utility.yul\":7111:7115   */\n      0xa0\n        /* \"#utility.yul\":7104:7109   */\n      dup3\n        /* \"#utility.yul\":7100:7116   */\n      add\n        /* \"#utility.yul\":7094:7117   */\n      mload\n        /* \"#utility.yul\":7130:7187   */\n      tag_320\n        /* \"#utility.yul\":7181:7185   */\n      0xa0\n        /* \"#utility.yul\":7176:7179   */\n      dup6\n        /* \"#utility.yul\":7172:7186   */\n      add\n        /* \"#utility.yul\":7158:7170   */\n      dup3\n        /* \"#utility.yul\":7130:7187   */\n      tag_278\n      jump\t// in\n    tag_320:\n        /* \"#utility.yul\":7037:7197   */\n      pop\n        /* \"#utility.yul\":6063:7204   */\n      pop\n        /* \"#utility.yul\":5967:7204   */\n      pop\n      pop\n      jump\t// out\n        /* \"#utility.yul\":7210:7318   */\n    tag_315:\n        /* \"#utility.yul\":7287:7311   */\n      tag_322\n        /* \"#utility.yul\":7305:7310   */\n      dup2\n        /* \"#utility.yul\":7287:7311   */\n      tag_323\n      jump\t// in\n    tag_322:\n        /* \"#utility.yul\":7282:7285   */\n      dup3\n        /* \"#utility.yul\":7275:7312   */\n      mstore\n        /* \"#utility.yul\":7210:7318   */\n      pop\n      pop\n      jump\t// out\n        /* \"#utility.yul\":7324:7442   */\n    tag_324:\n        /* \"#utility.yul\":7411:7435   */\n      tag_326\n        /* \"#utility.yul\":7429:7434   */\n      dup2\n        /* \"#utility.yul\":7411:7435   */\n      tag_323\n      jump\t// in\n    tag_326:\n        /* \"#utility.yul\":7406:7409   */\n      dup3\n        /* \"#utility.yul\":7399:7436   */\n      mstore\n        /* \"#utility.yul\":7324:7442   */\n      pop\n      pop\n      jump\t// out\n        /* \"#utility.yul\":7448:7670   */\n    tag_33:\n        /* \"#utility.yul\":7541:7545   */\n      0x00\n        /* \"#utility.yul\":7579:7581   */\n      0x20\n        /* \"#utility.yul\":7568:7577   */\n      dup3\n        /* \"#utility.yul\":7564:7582   */\n      add\n        /* \"#utility.yul\":7556:7582   */\n      swap1\n      pop\n        /* \"#utility.yul\":7592:7663   */\n      tag_328\n        /* \"#utility.yul\":7660:7661   */\n      0x00\n        /* \"#utility.yul\":7649:7658   */\n      dup4\n        /* \"#utility.yul\":7645:7662   */\n      add\n        /* \"#utility.yul\":7636:7642   */\n      dup5\n        /* \"#utility.yul\":7592:7663   */\n      tag_260\n      jump\t// in\n    tag_328:\n        /* \"#utility.yul\":7448:7670   */\n      swap3\n      swap2\n      pop\n      pop\n      jump\t// out\n        /* \"#utility.yul\":7676:8134   */\n    tag_128:\n        /* \"#utility.yul\":7833:7837   */\n      0x00\n        /* \"#utility.yul\":7871:7873   */\n      0x60\n        /* \"#utility.yul\":7860:7869   */\n      dup3\n        /* \"#utility.yul\":7856:7874   */\n      add\n        /* \"#utility.yul\":7848:7874   */\n      swap1\n      pop\n        /* \"#utility.yul\":7884:7955   */\n      tag_330\n        /* \"#utility.yul\":7952:7953   */\n      0x00\n        /* \"#utility.yul\":7941:7950   */\n      dup4\n        /* \"#utility.yul\":7937:7954   */\n      add\n        /* \"#utility.yul\":7928:7934   */\n      dup7\n        /* \"#utility.yul\":7884:7955   */\n      tag_260\n      jump\t// in\n    tag_330:\n        /* \"#utility.yul\":7965:8045   */\n      tag_331\n        /* \"#utility.yul\":8041:8043   */\n      0x20\n        /* \"#utility.yul\":8030:8039   */\n      dup4\n        /* \"#utility.yul\":8026:8044   */\n      add\n        /* \"#utility.yul\":8017:8023   */\n      dup6\n        /* \"#utility.yul\":7965:8045   */\n      tag_252\n      jump\t// in\n    tag_331:\n        /* \"#utility.yul\":8055:8127   */\n      tag_332\n        /* \"#utility.yul\":8123:8125   */\n      0x40\n        /* \"#utility.yul\":8112:8121   */\n      dup4\n        /* \"#utility.yul\":8108:8126   */\n      add\n        /* \"#utility.yul\":8099:8105   */\n      dup5\n        /* \"#utility.yul\":8055:8127   */\n      tag_324\n      jump\t// in\n    tag_332:\n        /* \"#utility.yul\":7676:8134   */\n      swap5\n      swap4\n      pop\n      pop\n      pop\n      pop\n      jump\t// out\n        /* \"#utility.yul\":8140:8582   */\n    tag_73:\n        /* \"#utility.yul\":8289:8293   */\n      0x00\n        /* \"#utility.yul\":8327:8329   */\n      0x60\n        /* \"#utility.yul\":8316:8325   */\n      dup3\n        /* \"#utility.yul\":8312:8330   */\n      add\n        /* \"#utility.yul\":8304:8330   */\n      swap1\n      pop\n        /* \"#utility.yul\":8340:8411   */\n      tag_334\n        /* \"#utility.yul\":8408:8409   */\n      0x00\n        /* \"#utility.yul\":8397:8406   */\n      dup4\n        /* \"#utility.yul\":8393:8410   */\n      add\n        /* \"#utility.yul\":8384:8390   */\n      dup7\n        /* \"#utility.yul\":8340:8411   */\n      tag_260\n      jump\t// in\n    tag_334:\n        /* \"#utility.yul\":8421:8493   */\n      tag_335\n        /* \"#utility.yul\":8489:8491   */\n      0x20\n        /* \"#utility.yul\":8478:8487   */\n      dup4\n        /* \"#utility.yul\":8474:8492   */\n      add\n        /* \"#utility.yul\":8465:8471   */\n      dup6\n        /* \"#utility.yul\":8421:8493   */\n      tag_260\n      jump\t// in\n    tag_335:\n        /* \"#utility.yul\":8503:8575   */\n      tag_336\n        /* \"#utility.yul\":8571:8573   */\n      0x40\n        /* \"#utility.yul\":8560:8569   */\n      dup4\n        /* \"#utility.yul\":8556:8574   */\n      add\n        /* \"#utility.yul\":8547:8553   */\n      dup5\n        /* \"#utility.yul\":8503:8575   */\n      tag_324\n      jump\t// in\n    tag_336:\n        /* \"#utility.yul\":8140:8582   */\n      swap5\n      swap4\n      pop\n      pop\n      pop\n      pop\n      jump\t// out\n        /* \"#utility.yul\":8588:8920   */\n    tag_80:\n        /* \"#utility.yul\":8709:8713   */\n      0x00\n        /* \"#utility.yul\":8747:8749   */\n      0x40\n        /* \"#utility.yul\":8736:8745   */\n      dup3\n        /* \"#utility.yul\":8732:8750   */\n      add\n        /* \"#utility.yul\":8724:8750   */\n      swap1\n      pop\n        /* \"#utility.yul\":8760:8831   */\n      tag_338\n        /* \"#utility.yul\":8828:8829   */\n      0x00\n        /* \"#utility.yul\":8817:8826   */\n      dup4\n        /* \"#utility.yul\":8813:8830   */\n      add\n        /* \"#utility.yul\":8804:8810   */\n      dup6\n        /* \"#utility.yul\":8760:8831   */\n      tag_260\n      jump\t// in\n    tag_338:\n        /* \"#utility.yul\":8841:8913   */\n      tag_339\n        /* \"#utility.yul\":8909:8911   */\n      0x20\n        /* \"#utility.yul\":8898:8907   */\n      dup4\n        /* \"#utility.yul\":8894:8912   */\n      add\n        /* \"#utility.yul\":8885:8891   */\n      dup5\n        /* \"#utility.yul\":8841:8913   */\n      tag_324\n      jump\t// in\n    tag_339:\n        /* \"#utility.yul\":8588:8920   */\n      swap4\n      swap3\n      pop\n      pop\n      pop\n      jump\t// out\n        /* \"#utility.yul\":8926:9379   */\n    tag_21:\n        /* \"#utility.yul\":9109:9113   */\n      0x00\n        /* \"#utility.yul\":9147:9149   */\n      0x20\n        /* \"#utility.yul\":9136:9145   */\n      dup3\n        /* \"#utility.yul\":9132:9150   */\n      add\n        /* \"#utility.yul\":9124:9150   */\n      swap1\n      pop\n        /* \"#utility.yul\":9196:9205   */\n      dup2\n        /* \"#utility.yul\":9190:9194   */\n      dup2\n        /* \"#utility.yul\":9186:9206   */\n      sub\n        /* \"#utility.yul\":9182:9183   */\n      0x00\n        /* \"#utility.yul\":9171:9180   */\n      dup4\n        /* \"#utility.yul\":9167:9184   */\n      add\n        /* \"#utility.yul\":9160:9207   */\n      mstore\n        /* \"#utility.yul\":9224:9372   */\n      tag_341\n        /* \"#utility.yul\":9367:9371   */\n      dup2\n        /* \"#utility.yul\":9358:9364   */\n      dup5\n        /* \"#utility.yul\":9224:9372   */\n      tag_264\n      jump\t// in\n    tag_341:\n        /* \"#utility.yul\":9216:9372   */\n      swap1\n      pop\n        /* \"#utility.yul\":8926:9379   */\n      swap3\n      swap2\n      pop\n      pop\n      jump\t// out\n        /* \"#utility.yul\":9385:9804   */\n    tag_71:\n        /* \"#utility.yul\":9551:9555   */\n      0x00\n        /* \"#utility.yul\":9589:9591   */\n      0x20\n        /* \"#utility.yul\":9578:9587   */\n      dup3\n        /* \"#utility.yul\":9574:9592   */\n      add\n        /* \"#utility.yul\":9566:9592   */\n      swap1\n      pop\n        /* \"#utility.yul\":9638:9647   */\n      dup2\n        /* \"#utility.yul\":9632:9636   */\n      dup2\n        /* \"#utility.yul\":9628:9648   */\n      sub\n        /* \"#utility.yul\":9624:9625   */\n      0x00\n        /* \"#utility.yul\":9613:9622   */\n      dup4\n        /* \"#utility.yul\":9609:9626   */\n      add\n        /* \"#utility.yul\":9602:9649   */\n      mstore\n        /* \"#utility.yul\":9666:9797   */\n      tag_343\n        /* \"#utility.yul\":9792:9796   */\n      dup2\n        /* \"#utility.yul\":9666:9797   */\n      tag_282\n      jump\t// in\n    tag_343:\n        /* \"#utility.yul\":9658:9797   */\n      swap1\n      pop\n        /* \"#utility.yul\":9385:9804   */\n      swap2\n      swap1\n      pop\n      jump\t// out\n        /* \"#utility.yul\":9810:10229   */\n    tag_217:\n        /* \"#utility.yul\":9976:9980   */\n      0x00\n        /* \"#utility.yul\":10014:10016   */\n      0x20\n        /* \"#utility.yul\":10003:10012   */\n      dup3\n        /* \"#utility.yul\":9999:10017   */\n      add\n        /* \"#utility.yul\":9991:10017   */\n      swap1\n      pop\n        /* \"#utility.yul\":10063:10072   */\n      dup2\n        /* \"#utility.yul\":10057:10061   */\n      dup2\n        /* \"#utility.yul\":10053:10073   */\n      sub\n        /* \"#utility.yul\":10049:10050   */\n      0x00\n        /* \"#utility.yul\":10038:10047   */\n      dup4\n        /* \"#utility.yul\":10034:10051   */\n      add\n        /* \"#utility.yul\":10027:10074   */\n      mstore\n        /* \"#utility.yul\":10091:10222   */\n      tag_345\n        /* \"#utility.yul\":10217:10221   */\n      dup2\n        /* \"#utility.yul\":10091:10222   */\n      tag_288\n      jump\t// in\n    tag_345:\n        /* \"#utility.yul\":10083:10222   */\n      swap1\n      pop\n        /* \"#utility.yul\":9810:10229   */\n      swap2\n      swap1\n      pop\n      jump\t// out\n        /* \"#utility.yul\":10235:10654   */\n    tag_124:\n        /* \"#utility.yul\":10401:10405   */\n      0x00\n        /* \"#utility.yul\":10439:10441   */\n      0x20\n        /* \"#utility.yul\":10428:10437   */\n      dup3\n        /* \"#utility.yul\":10424:10442   */\n      add\n        /* \"#utility.yul\":10416:10442   */\n      swap1\n      pop\n        /* \"#utility.yul\":10488:10497   */\n      dup2\n        /* \"#utility.yul\":10482:10486   */\n      dup2\n        /* \"#utility.yul\":10478:10498   */\n      sub\n        /* \"#utility.yul\":10474:10475   */\n      0x00\n        /* \"#utility.yul\":10463:10472   */\n      dup4\n        /* \"#utility.yul\":10459:10476   */\n      add\n        /* \"#utility.yul\":10452:10499   */\n      mstore\n        /* \"#utility.yul\":10516:10647   */\n      tag_347\n        /* \"#utility.yul\":10642:10646   */\n      dup2\n        /* \"#utility.yul\":10516:10647   */\n      tag_293\n      jump\t// in\n    tag_347:\n        /* \"#utility.yul\":10508:10647   */\n      swap1\n      pop\n        /* \"#utility.yul\":10235:10654   */\n      swap2\n      swap1\n      pop\n      jump\t// out\n        /* \"#utility.yul\":10660:11079   */\n    tag_67:\n        /* \"#utility.yul\":10826:10830   */\n      0x00\n        /* \"#utility.yul\":10864:10866   */\n      0x20\n        /* \"#utility.yul\":10853:10862   */\n      dup3\n        /* \"#utility.yul\":10849:10867   */\n      add\n        /* \"#utility.yul\":10841:10867   */\n      swap1\n      pop\n        /* \"#utility.yul\":10913:10922   */\n      dup2\n        /* \"#utility.yul\":10907:10911   */\n      dup2\n        /* \"#utility.yul\":10903:10923   */\n      sub\n        /* \"#utility.yul\":10899:10900   */\n      0x00\n        /* \"#utility.yul\":10888:10897   */\n      dup4\n        /* \"#utility.yul\":10884:10901   */\n      add\n        /* \"#utility.yul\":10877:10924   */\n      mstore\n        /* \"#utility.yul\":10941:11072   */\n      tag_349\n        /* \"#utility.yul\":11067:11071   */\n      dup2\n        /* \"#utility.yul\":10941:11072   */\n      tag_298\n      jump\t// in\n    tag_349:\n        /* \"#utility.yul\":10933:11072   */\n      swap1\n      pop\n        /* \"#utility.yul\":10660:11079   */\n      swap2\n      swap1\n      pop\n      jump\t// out\n        /* \"#utility.yul\":11085:11504   */\n    tag_59:\n        /* \"#utility.yul\":11251:11255   */\n      0x00\n        /* \"#utility.yul\":11289:11291   */\n      0x20\n        /* \"#utility.yul\":11278:11287   */\n      dup3\n        /* \"#utility.yul\":11274:11292   */\n      add\n        /* \"#utility.yul\":11266:11292   */\n      swap1\n      pop\n        /* \"#utility.yul\":11338:11347   */\n      dup2\n        /* \"#utility.yul\":11332:11336   */\n      dup2\n        /* \"#utility.yul\":11328:11348   */\n      sub\n        /* \"#utility.yul\":11324:11325   */\n      0x00\n        /* \"#utility.yul\":11313:11322   */\n      dup4\n        /* \"#utility.yul\":11309:11326   */\n      add\n        /* \"#utility.yul\":11302:11349   */\n      mstore\n        /* \"#utility.yul\":11366:11497   */\n      tag_351\n        /* \"#utility.yul\":11492:11496   */\n      dup2\n        /* \"#utility.yul\":11366:11497   */\n      tag_303\n      jump\t// in\n    tag_351:\n        /* \"#utility.yul\":11358:11497   */\n      swap1\n      pop\n        /* \"#utility.yul\":11085:11504   */\n      swap2\n      swap1\n      pop\n      jump\t// out\n        /* \"#utility.yul\":11510:11929   */\n    tag_63:\n        /* \"#utility.yul\":11676:11680   */\n      0x00\n        /* \"#utility.yul\":11714:11716   */\n      0x20\n        /* \"#utility.yul\":11703:11712   */\n      dup3\n        /* \"#utility.yul\":11699:11717   */\n      add\n        /* \"#utility.yul\":11691:11717   */\n      swap1\n      pop\n        /* \"#utility.yul\":11763:11772   */\n      dup2\n        /* \"#utility.yul\":11757:11761   */\n      dup2\n        /* \"#utility.yul\":11753:11773   */\n      sub\n        /* \"#utility.yul\":11749:11750   */\n      0x00\n        /* \"#utility.yul\":11738:11747   */\n      dup4\n        /* \"#utility.yul\":11734:11751   */\n      add\n        /* \"#utility.yul\":11727:11774   */\n      mstore\n        /* \"#utility.yul\":11791:11922   */\n      tag_353\n        /* \"#utility.yul\":11917:11921   */\n      dup2\n        /* \"#utility.yul\":11791:11922   */\n      tag_308\n      jump\t// in\n    tag_353:\n        /* \"#utility.yul\":11783:11922   */\n      swap1\n      pop\n        /* \"#utility.yul\":11510:11929   */\n      swap2\n      swap1\n      pop\n      jump\t// out\n        /* \"#utility.yul\":11935:12157   */\n    tag_26:\n        /* \"#utility.yul\":12028:12032   */\n      0x00\n        /* \"#utility.yul\":12066:12068   */\n      0x20\n        /* \"#utility.yul\":12055:12064   */\n      dup3\n        /* \"#utility.yul\":12051:12069   */\n      add\n        /* \"#utility.yul\":12043:12069   */\n      swap1\n      pop\n        /* \"#utility.yul\":12079:12150   */\n      tag_355\n        /* \"#utility.yul\":12147:12148   */\n      0x00\n        /* \"#utility.yul\":12136:12145   */\n      dup4\n        /* \"#utility.yul\":12132:12149   */\n      add\n        /* \"#utility.yul\":12123:12129   */\n      dup5\n        /* \"#utility.yul\":12079:12150   */\n      tag_324\n      jump\t// in\n    tag_355:\n        /* \"#utility.yul\":11935:12157   */\n      swap3\n      swap2\n      pop\n      pop\n      jump\t// out\n        /* \"#utility.yul\":12244:12396   */\n    tag_271:\n        /* \"#utility.yul\":12331:12335   */\n      0x00\n        /* \"#utility.yul\":12354:12357   */\n      dup2\n        /* \"#utility.yul\":12346:12357   */\n      swap1\n      pop\n        /* \"#utility.yul\":12384:12388   */\n      0x20\n        /* \"#utility.yul\":12379:12382   */\n      dup3\n        /* \"#utility.yul\":12375:12389   */\n      add\n        /* \"#utility.yul\":12367:12389   */\n      swap1\n      pop\n        /* \"#utility.yul\":12244:12396   */\n      swap2\n      swap1\n      pop\n      jump\t// out\n        /* \"#utility.yul\":12402:12536   */\n    tag_267:\n        /* \"#utility.yul\":12489:12495   */\n      0x00\n        /* \"#utility.yul\":12523:12528   */\n      dup2\n        /* \"#utility.yul\":12517:12529   */\n      mload\n        /* \"#utility.yul\":12507:12529   */\n      swap1\n      pop\n        /* \"#utility.yul\":12402:12536   */\n      swap2\n      swap1\n      pop\n      jump\t// out\n        /* \"#utility.yul\":12542:12675   */\n    tag_277:\n        /* \"#utility.yul\":12632:12636   */\n      0x00\n        /* \"#utility.yul\":12664:12668   */\n      0x20\n        /* \"#utility.yul\":12659:12662   */\n      dup3\n        /* \"#utility.yul\":12655:12669   */\n      add\n        /* \"#utility.yul\":12647:12669   */\n      swap1\n      pop\n        /* \"#utility.yul\":12542:12675   */\n      swap2\n      swap1\n      pop\n      jump\t// out\n        /* \"#utility.yul\":12681:12885   */\n    tag_269:\n        /* \"#utility.yul\":12800:12811   */\n      0x00\n        /* \"#utility.yul\":12834:12840   */\n      dup3\n        /* \"#utility.yul\":12829:12832   */\n      dup3\n        /* \"#utility.yul\":12822:12841   */\n      mstore\n        /* \"#utility.yul\":12874:12878   */\n      0x20\n        /* \"#utility.yul\":12869:12872   */\n      dup3\n        /* \"#utility.yul\":12865:12879   */\n      add\n        /* \"#utility.yul\":12850:12879   */\n      swap1\n      pop\n        /* \"#utility.yul\":12681:12885   */\n      swap3\n      swap2\n      pop\n      pop\n      jump\t// out\n        /* \"#utility.yul\":12891:13060   */\n    tag_285:\n        /* \"#utility.yul\":12975:12986   */\n      0x00\n        /* \"#utility.yul\":13009:13015   */\n      dup3\n        /* \"#utility.yul\":13004:13007   */\n      dup3\n        /* \"#utility.yul\":12997:13016   */\n      mstore\n        /* \"#utility.yul\":13049:13053   */\n      0x20\n        /* \"#utility.yul\":13044:13047   */\n      dup3\n        /* \"#utility.yul\":13040:13054   */\n      add\n        /* \"#utility.yul\":13025:13054   */\n      swap1\n      pop\n        /* \"#utility.yul\":12891:13060   */\n      swap3\n      swap2\n      pop\n      pop\n      jump\t// out\n        /* \"#utility.yul\":13066:13257   */\n    tag_160:\n        /* \"#utility.yul\":13106:13110   */\n      0x00\n        /* \"#utility.yul\":13126:13146   */\n      tag_364\n        /* \"#utility.yul\":13144:13145   */\n      dup3\n        /* \"#utility.yul\":13126:13146   */\n      tag_323\n      jump\t// in\n    tag_364:\n        /* \"#utility.yul\":13121:13146   */\n      swap2\n      pop\n        /* \"#utility.yul\":13160:13180   */\n      tag_365\n        /* \"#utility.yul\":13178:13179   */\n      dup4\n        /* \"#utility.yul\":13160:13180   */\n      tag_323\n      jump\t// in\n    tag_365:\n        /* \"#utility.yul\":13155:13180   */\n      swap3\n      pop\n        /* \"#utility.yul\":13199:13200   */\n      dup3\n        /* \"#utility.yul\":13196:13197   */\n      dup3\n        /* \"#utility.yul\":13193:13201   */\n      lt\n        /* \"#utility.yul\":13190:13224   */\n      iszero\n      tag_366\n      jumpi\n        /* \"#utility.yul\":13204:13222   */\n      tag_367\n      tag_368\n      jump\t// in\n    tag_367:\n        /* \"#utility.yul\":13190:13224   */\n    tag_366:\n        /* \"#utility.yul\":13249:13250   */\n      dup3\n        /* \"#utility.yul\":13246:13247   */\n      dup3\n        /* \"#utility.yul\":13242:13251   */\n      sub\n        /* \"#utility.yul\":13234:13251   */\n      swap1\n      pop\n        /* \"#utility.yul\":13066:13257   */\n      swap3\n      swap2\n      pop\n      pop\n      jump\t// out\n        /* \"#utility.yul\":13263:13359   */\n    tag_263:\n        /* \"#utility.yul\":13300:13307   */\n      0x00\n        /* \"#utility.yul\":13329:13353   */\n      tag_370\n        /* \"#utility.yul\":13347:13352   */\n      dup3\n        /* \"#utility.yul\":13329:13353   */\n      tag_371\n      jump\t// in\n    tag_370:\n        /* \"#utility.yul\":13318:13353   */\n      swap1\n      pop\n        /* \"#utility.yul\":13263:13359   */\n      swap2\n      swap1\n      pop\n      jump\t// out\n        /* \"#utility.yul\":13365:13469   */\n    tag_259:\n        /* \"#utility.yul\":13410:13417   */\n      0x00\n        /* \"#utility.yul\":13439:13463   */\n      tag_373\n        /* \"#utility.yul\":13457:13462   */\n      dup3\n        /* \"#utility.yul\":13439:13463   */\n      tag_371\n      jump\t// in\n    tag_373:\n        /* \"#utility.yul\":13428:13463   */\n      swap1\n      pop\n        /* \"#utility.yul\":13365:13469   */\n      swap2\n      swap1\n      pop\n      jump\t// out\n        /* \"#utility.yul\":13475:13565   */\n    tag_281:\n        /* \"#utility.yul\":13509:13516   */\n      0x00\n        /* \"#utility.yul\":13552:13557   */\n      dup2\n        /* \"#utility.yul\":13545:13558   */\n      iszero\n        /* \"#utility.yul\":13538:13559   */\n      iszero\n        /* \"#utility.yul\":13527:13559   */\n      swap1\n      pop\n        /* \"#utility.yul\":13475:13565   */\n      swap2\n      swap1\n      pop\n      jump\t// out\n        /* \"#utility.yul\":13571:13697   */\n    tag_371:\n        /* \"#utility.yul\":13608:13615   */\n      0x00\n        /* \"#utility.yul\":13648:13690   */\n      0xffffffffffffffffffffffffffffffffffffffff\n        /* \"#utility.yul\":13641:13646   */\n      dup3\n        /* \"#utility.yul\":13637:13691   */\n      and\n        /* \"#utility.yul\":13626:13691   */\n      swap1\n      pop\n        /* \"#utility.yul\":13571:13697   */\n      swap2\n      swap1\n      pop\n      jump\t// out\n        /* \"#utility.yul\":13703:13780   */\n    tag_323:\n        /* \"#utility.yul\":13740:13747   */\n      0x00\n        /* \"#utility.yul\":13769:13774   */\n      dup2\n        /* \"#utility.yul\":13758:13774   */\n      swap1\n      pop\n        /* \"#utility.yul\":13703:13780   */\n      swap2\n      swap1\n      pop\n      jump\t// out\n        /* \"#utility.yul\":13786:13920   */\n    tag_255:\n        /* \"#utility.yul\":13844:13853   */\n      0x00\n        /* \"#utility.yul\":13877:13914   */\n      tag_378\n        /* \"#utility.yul\":13908:13913   */\n      dup3\n        /* \"#utility.yul\":13877:13914   */\n      tag_379\n      jump\t// in\n    tag_378:\n        /* \"#utility.yul\":13864:13914   */\n      swap1\n      pop\n        /* \"#utility.yul\":13786:13920   */\n      swap2\n      swap1\n      pop\n      jump\t// out\n        /* \"#utility.yul\":13926:14052   */\n    tag_379:\n        /* \"#utility.yul\":13976:13985   */\n      0x00\n        /* \"#utility.yul\":14009:14046   */\n      tag_381\n        /* \"#utility.yul\":14040:14045   */\n      dup3\n        /* \"#utility.yul\":14009:14046   */\n      tag_382\n      jump\t// in\n    tag_381:\n        /* \"#utility.yul\":13996:14046   */\n      swap1\n      pop\n        /* \"#utility.yul\":13926:14052   */\n      swap2\n      swap1\n      pop\n      jump\t// out\n        /* \"#utility.yul\":14058:14171   */\n    tag_382:\n        /* \"#utility.yul\":14108:14117   */\n      0x00\n        /* \"#utility.yul\":14141:14165   */\n      tag_384\n        /* \"#utility.yul\":14159:14164   */\n      dup3\n        /* \"#utility.yul\":14141:14165   */\n      tag_371\n      jump\t// in\n    tag_384:\n        /* \"#utility.yul\":14128:14165   */\n      swap1\n      pop\n        /* \"#utility.yul\":14058:14171   */\n      swap2\n      swap1\n      pop\n      jump\t// out\n        /* \"#utility.yul\":14177:14410   */\n    tag_90:\n        /* \"#utility.yul\":14216:14219   */\n      0x00\n        /* \"#utility.yul\":14239:14263   */\n      tag_386\n        /* \"#utility.yul\":14257:14262   */\n      dup3\n        /* \"#utility.yul\":14239:14263   */\n      tag_323\n      jump\t// in\n    tag_386:\n        /* \"#utility.yul\":14230:14263   */\n      swap2\n      pop\n        /* \"#utility.yul\":14285:14351   */\n      0xffffffffffffffffffffffffffffffffffffffffffffffffffffffffffffffff\n        /* \"#utility.yul\":14278:14283   */\n      dup3\n        /* \"#utility.yul\":14275:14352   */\n      eq\n        /* \"#utility.yul\":14272:14375   */\n      iszero\n      tag_387\n      jumpi\n        /* \"#utility.yul\":14355:14373   */\n      tag_388\n      tag_368\n      jump\t// in\n    tag_388:\n        /* \"#utility.yul\":14272:14375   */\n    tag_387:\n        /* \"#utility.yul\":14402:14403   */\n      0x01\n        /* \"#utility.yul\":14395:14400   */\n      dup3\n        /* \"#utility.yul\":14391:14404   */\n      add\n        /* \"#utility.yul\":14384:14404   */\n      swap1\n      pop\n        /* \"#utility.yul\":14177:14410   */\n      swap2\n      swap1\n      pop\n      jump\t// out\n        /* \"#utility.yul\":14416:14596   */\n    tag_368:\n        /* \"#utility.yul\":14464:14541   */\n      0x4e487b7100000000000000000000000000000000000000000000000000000000\n        /* \"#utility.yul\":14461:14462   */\n      0x00\n        /* \"#utility.yul\":14454:14542   */\n      mstore\n        /* \"#utility.yul\":14561:14565   */\n      0x11\n        /* \"#utility.yul\":14558:14559   */\n      0x04\n        /* \"#utility.yul\":14551:14566   */\n      mstore\n        /* \"#utility.yul\":14585:14589   */\n      0x24\n        /* \"#utility.yul\":14582:14583   */\n      0x00\n        /* \"#utility.yul\":14575:14590   */\n      revert\n        /* \"#utility.yul\":14602:14782   */\n    tag_106:\n        /* \"#utility.yul\":14650:14727   */\n      0x4e487b7100000000000000000000000000000000000000000000000000000000\n        /* \"#utility.yul\":14647:14648   */\n      0x00\n        /* \"#utility.yul\":14640:14728   */\n      mstore\n        /* \"#utility.yul\":14747:14751   */\n      0x32\n        /* \"#utility.yul\":14744:14745   */\n      0x04\n        /* \"#utility.yul\":14737:14752   */\n      mstore\n        /* \"#utility.yul\":14771:14775   */\n      0x24\n        /* \"#utility.yul\":14768:14769   */\n      0x00\n        /* \"#utility.yul\":14761:14776   */\n      revert\n        /* \"#utility.yul\":14788:14968   */\n    tag_94:\n        /* \"#utility.yul\":14836:14913   */\n      0x4e487b7100000000000000000000000000000000000000000000000000000000\n        /* \"#utility.yul\":14833:14834   */\n      0x00\n        /* \"#utility.yul\":14826:14914   */\n      mstore\n        /* \"#utility.yul\":14933:14937   */\n      0x41\n        /* \"#utility.yul\":14930:14931   */\n      0x04\n        /* \"#utility.yul\":14923:14938   */\n      mstore\n        /* \"#utility.yul\":14957:14961   */\n      0x24\n        /* \"#utility.yul\":14954:14955   */\n      0x00\n        /* \"#utility.yul\":14947:14962   */\n      revert\n        /* \"#utility.yul\":15097:15214   */\n    tag_235:\n        /* \"#utility.yul\":15206:15207   */\n      0x00\n        /* \"#utility.yul\":15203:15204   */\n      dup1\n        /* \"#utility.yul\":15196:15208   */\n      revert\n        /* \"#utility.yul\":15220:15383   */\n    tag_287:\n        /* \"#utility.yul\":15360:15375   */\n      0x4e4654206e6f7420666f756e6400000000000000000000000000000000000000\n        /* \"#utility.yul\":15356:15357   */\n      0x00\n        /* \"#utility.yul\":15348:15354   */\n      dup3\n        /* \"#utility.yul\":15344:15358   */\n      add\n        /* \"#utility.yul\":15337:15376   */\n      mstore\n        /* \"#utility.yul\":15220:15383   */\n      pop\n      jump\t// out\n        /* \"#utility.yul\":15389:15566   */\n    tag_292:\n        /* \"#utility.yul\":15529:15558   */\n      0x436f756e7465723a2064656372656d656e74206f766572666c6f770000000000\n        /* \"#utility.yul\":15525:15526   */\n      0x00\n        /* \"#utility.yul\":15517:15523   */\n      dup3\n        /* \"#utility.yul\":15513:15527   */\n      add\n        /* \"#utility.yul\":15506:15559   */\n      mstore\n        /* \"#utility.yul\":15389:15566   */\n      pop\n      jump\t// out\n        /* \"#utility.yul\":15572:15797   */\n    tag_297:\n        /* \"#utility.yul\":15712:15746   */\n      0x4e6f7420656e6f75676820657468657220746f20636f7665722061736b696e67\n        /* \"#utility.yul\":15708:15709   */\n      0x00\n        /* \"#utility.yul\":15700:15706   */\n      dup3\n        /* \"#utility.yul\":15696:15710   */\n      add\n        /* \"#utility.yul\":15689:15747   */\n      mstore\n        /* \"#utility.yul\":15781:15789   */\n      0x2070726963650000000000000000000000000000000000000000000000000000\n        /* \"#utility.yul\":15776:15778   */\n      0x20\n        /* \"#utility.yul\":15768:15774   */\n      dup3\n        /* \"#utility.yul\":15764:15779   */\n      add\n        /* \"#utility.yul\":15757:15790   */\n      mstore\n        /* \"#utility.yul\":15572:15797   */\n      pop\n      jump\t// out\n        /* \"#utility.yul\":15803:15985   */\n    tag_302:\n        /* \"#utility.yul\":15943:15977   */\n      0x4e6f7420656e6f75676820657468657220666f72206c697374696e6720666565\n        /* \"#utility.yul\":15939:15940   */\n      0x00\n        /* \"#utility.yul\":15931:15937   */\n      dup3\n        /* \"#utility.yul\":15927:15941   */\n      add\n        /* \"#utility.yul\":15920:15978   */\n      mstore\n        /* \"#utility.yul\":15803:15985   */\n      pop\n      jump\t// out\n        /* \"#utility.yul\":15991:16172   */\n    tag_307:\n        /* \"#utility.yul\":16131:16164   */\n      0x5265656e7472616e637947756172643a207265656e7472616e742063616c6c00\n        /* \"#utility.yul\":16127:16128   */\n      0x00\n        /* \"#utility.yul\":16119:16125   */\n      dup3\n        /* \"#utility.yul\":16115:16129   */\n      add\n        /* \"#utility.yul\":16108:16165   */\n      mstore\n        /* \"#utility.yul\":15991:16172   */\n      pop\n      jump\t// out\n        /* \"#utility.yul\":16178:16356   */\n    tag_312:\n        /* \"#utility.yul\":16318:16348   */\n      0x5072696365206d757374206265206174206c6561737420312077656900000000\n        /* \"#utility.yul\":16314:16315   */\n      0x00\n        /* \"#utility.yul\":16306:16312   */\n      dup3\n        /* \"#utility.yul\":16302:16316   */\n      add\n        /* \"#utility.yul\":16295:16349   */\n      mstore\n        /* \"#utility.yul\":16178:16356   */\n      pop\n      jump\t// out\n        /* \"#utility.yul\":16362:16484   */\n    tag_224:\n        /* \"#utility.yul\":16435:16459   */\n      tag_402\n        /* \"#utility.yul\":16453:16458   */\n      dup2\n        /* \"#utility.yul\":16435:16459   */\n      tag_263\n      jump\t// in\n    tag_402:\n        /* \"#utility.yul\":16428:16433   */\n      dup2\n        /* \"#utility.yul\":16425:16460   */\n      eq\n        /* \"#utility.yul\":16415:16478   */\n      tag_403\n      jumpi\n        /* \"#utility.yul\":16474:16475   */\n      0x00\n        /* \"#utility.yul\":16471:16472   */\n      dup1\n        /* \"#utility.yul\":16464:16476   */\n      revert\n        /* \"#utility.yul\":16415:16478   */\n    tag_403:\n        /* \"#utility.yul\":16362:16484   */\n      pop\n      jump\t// out\n        /* \"#utility.yul\":16490:16612   */\n    tag_231:\n        /* \"#utility.yul\":16563:16587   */\n      tag_405\n        /* \"#utility.yul\":16581:16586   */\n      dup2\n        /* \"#utility.yul\":16563:16587   */\n      tag_323\n      jump\t// in\n    tag_405:\n        /* \"#utility.yul\":16556:16561   */\n      dup2\n        /* \"#utility.yul\":16553:16588   */\n      eq\n        /* \"#utility.yul\":16543:16606   */\n      tag_406\n      jumpi\n        /* \"#utility.yul\":16602:16603   */\n      0x00\n        /* \"#utility.yul\":16599:16600   */\n      dup1\n        /* \"#utility.yul\":16592:16604   */\n      revert\n        /* \"#utility.yul\":16543:16606   */\n    tag_406:\n        /* \"#utility.yul\":16490:16612   */\n      pop\n      jump\t// out\n\n    auxdata: 0xa2646970667358221220d8ada64abb15beaf3a886e6156c1cfb33179d07d6a86efbe2f77655dfebbd7e764736f6c63430008070033\n}\n",
				"bytecode": {
					"linkReferences": {},
					"object": "608060405266071afd498d000060035534801561001b57600080fd5b50600160008190555033600460006101000a81548173ffffffffffffffffffffffffffffffffffffffff021916908373ffffffffffffffffffffffffffffffffffffffff1602179055506121e9806100746000396000f3fe6080604052600436106100915760003560e01c80638492095a116100595780638492095a146101615780638d6cb3fb1461018c578063a46b5c5a146101b7578063ad05f1b4146101e2578063b8fe6abe146101fe57610091565b806304935694146100965780631f4cc4db146100b25780632b86ae38146100dd5780632f634a90146101085780634ddf4f8f14610145575b600080fd5b6100b060048036038101906100ab9190611a61565b610229565b005b3480156100be57600080fd5b506100c7610546565b6040516100d49190611d83565b60405180910390f35b3480156100e957600080fd5b506100f26108b5565b6040516100ff9190611e65565b60405180910390f35b34801561011457600080fd5b5061012f600480360381019061012a9190611a21565b6108bb565b60405161013c9190611cd1565b60405180910390f35b61015f600480360381019061015a9190611a21565b61094e565b005b34801561016d57600080fd5b50610176610c71565b6040516101839190611d83565b60405180910390f35b34801561019857600080fd5b506101a1610f88565b6040516101ae9190611d83565b60405180910390f35b3480156101c357600080fd5b506101cc6111db565b6040516101d99190611d83565b60405180910390f35b6101fc60048036038101906101f79190611a61565b6114f2565b005b34801561020a57600080fd5b506102136118b1565b6040516102209190611e65565b60405180910390f35b6002600054141561026f576040517f08c379a000000000000000000000000000000000000000000000000000000000815260040161026690611e25565b60405180910390fd5b600260008190555080600081116102bb576040517f08c379a00000000000000000000000000000000000000000000000000000000081526004016102b290611e45565b60405180910390fd5b60035434146102ff576040517f08c379a00000000000000000000000000000000000000000000000000000000081526004016102f690611e05565b60405180910390fd5b6000600560008581526020019081526020016000209050600073ffffffffffffffffffffffffffffffffffffffff168160030160009054906101000a900473ffffffffffffffffffffffffffffffffffffffff1673ffffffffffffffffffffffffffffffffffffffff1614156103aa576040517f08c379a00000000000000000000000000000000000000000000000000000000081526004016103a190611da5565b60405180910390fd5b8473ffffffffffffffffffffffffffffffffffffffff166323b872dd3330876040518463ffffffff1660e01b81526004016103e793929190611d23565b600060405180830381600087803b15801561040157600080fd5b505af1158015610415573d6000803e3d6000fd5b50505050338160020160006101000a81548173ffffffffffffffffffffffffffffffffffffffff021916908373ffffffffffffffffffffffffffffffffffffffff160217905550308160030160006101000a81548173ffffffffffffffffffffffffffffffffffffffff021916908373ffffffffffffffffffffffffffffffffffffffff16021790555060018160040160146101000a81548160ff0219169083151502179055508281600101819055506104cf60016118bb565b3073ffffffffffffffffffffffffffffffffffffffff163373ffffffffffffffffffffffffffffffffffffffff16857fa0c6c0d02d86fdacecbaa5fdf5894bab204e31a778250474108540733a9b8d19888760405161052f929190611d5a565b60405180910390a450506001600081905550505050565b606060006105546002611917565b9050600080600190505b82811161061d573373ffffffffffffffffffffffffffffffffffffffff166005600083815260200190815260200160002060020160009054906101000a900473ffffffffffffffffffffffffffffffffffffffff1673ffffffffffffffffffffffffffffffffffffffff161480156105f657506005600082815260200190815260200160002060040160149054906101000a900460ff165b1561060a57818061060690611f8e565b9250505b808061061590611f8e565b91505061055e565b5060008167ffffffffffffffff81111561063a57610639612035565b5b60405190808252806020026020018201604052801561067357816020015b61066061193b565b8152602001906001900390816106585790505b509050600080600190505b8481116108aa573373ffffffffffffffffffffffffffffffffffffffff166005600083815260200190815260200160002060020160009054906101000a900473ffffffffffffffffffffffffffffffffffffffff1673ffffffffffffffffffffffffffffffffffffffff1614801561071657506005600082815260200190815260200160002060040160149054906101000a900460ff165b1561089757600560008281526020019081526020016000206040518060c001604052908160008201548152602001600182015481526020016002820160009054906101000a900473ffffffffffffffffffffffffffffffffffffffff1673ffffffffffffffffffffffffffffffffffffffff1673ffffffffffffffffffffffffffffffffffffffff1681526020016003820160009054906101000a900473ffffffffffffffffffffffffffffffffffffffff1673ffffffffffffffffffffffffffffffffffffffff1673ffffffffffffffffffffffffffffffffffffffff1681526020016004820160009054906101000a900473ffffffffffffffffffffffffffffffffffffffff1673ffffffffffffffffffffffffffffffffffffffff1673ffffffffffffffffffffffffffffffffffffffff1681526020016004820160149054906101000a900460ff16151515158152505083838151811061087d5761087c612006565b5b6020026020010181905250818061089390611f8e565b9250505b80806108a290611f8e565b91505061067e565b508194505050505090565b60035481565b60008273ffffffffffffffffffffffffffffffffffffffff16636352211e836040518263ffffffff1660e01b81526004016108f69190611e65565b60206040518083038186803b15801561090e57600080fd5b505afa158015610922573d6000803e3d6000fd5b505050506040513d601f19601f8201168201806040525081019061094691906119f4565b905092915050565b60026000541415610994576040517f08c379a000000000000000000000000000000000000000000000000000000000815260040161098b90611e25565b60405180910390fd5b60026000819055506000600560008381526020019081526020016000209050600073ffffffffffffffffffffffffffffffffffffffff168160030160009054906101000a900473ffffffffffffffffffffffffffffffffffffffff1673ffffffffffffffffffffffffffffffffffffffff161415610a47576040517f08c379a0000000000000000000000000000000000000000000000000000000008152600401610a3e90611da5565b60405180910390fd5b8060010154341015610a8e576040517f08c379a0000000000000000000000000000000000000000000000000000000008152600401610a8590611de5565b60405180910390fd5b60003390508160020160009054906101000a900473ffffffffffffffffffffffffffffffffffffffff1673ffffffffffffffffffffffffffffffffffffffff166108fc349081150290604051600060405180830381858888f19350505050158015610afd573d6000803e3d6000fd5b508373ffffffffffffffffffffffffffffffffffffffff166323b872dd3083866040518463ffffffff1660e01b8152600401610b3b93929190611cec565b600060405180830381600087803b158015610b5557600080fd5b505af1158015610b69573d6000803e3d6000fd5b50505050808260030160006101000a81548173ffffffffffffffffffffffffffffffffffffffff021916908373ffffffffffffffffffffffffffffffffffffffff16021790555060008260040160146101000a81548160ff021916908315150217905550610bd76001611925565b8073ffffffffffffffffffffffffffffffffffffffff168260020160009054906101000a900473ffffffffffffffffffffffffffffffffffffffff1673ffffffffffffffffffffffffffffffffffffffff16847f16f1dbd97e6bf646d429ed186cce832f1f7fd9907814293b83181e9970ab7bd28734604051610c5b929190611d5a565b60405180910390a4505060016000819055505050565b60606000610c7f6002611917565b9050600080600190505b828111610d1c573373ffffffffffffffffffffffffffffffffffffffff166005600083815260200190815260200160002060040160009054906101000a900473ffffffffffffffffffffffffffffffffffffffff1673ffffffffffffffffffffffffffffffffffffffff161415610d09578180610d0590611f8e565b9250505b8080610d1490611f8e565b915050610c89565b5060008167ffffffffffffffff811115610d3957610d38612035565b5b604051908082528060200260200182016040528015610d7257816020015b610d5f61193b565b815260200190600190039081610d575790505b509050600080600190505b848111610f7d573373ffffffffffffffffffffffffffffffffffffffff166005600083815260200190815260200160002060040160009054906101000a900473ffffffffffffffffffffffffffffffffffffffff1673ffffffffffffffffffffffffffffffffffffffff161415610f6a57600560008281526020019081526020016000206040518060c001604052908160008201548152602001600182015481526020016002820160009054906101000a900473ffffffffffffffffffffffffffffffffffffffff1673ffffffffffffffffffffffffffffffffffffffff1673ffffffffffffffffffffffffffffffffffffffff1681526020016003820160009054906101000a900473ffffffffffffffffffffffffffffffffffffffff1673ffffffffffffffffffffffffffffffffffffffff1673ffffffffffffffffffffffffffffffffffffffff1681526020016004820160009054906101000a900473ffffffffffffffffffffffffffffffffffffffff1673ffffffffffffffffffffffffffffffffffffffff1673ffffffffffffffffffffffffffffffffffffffff1681526020016004820160149054906101000a900460ff161515151581525050838381518110610f5057610f4f612006565b5b60200260200101819052508180610f6690611f8e565b9250505b8080610f7590611f8e565b915050610d7d565b508194505050505090565b60606000610f966002611917565b90506000610fa46001611917565b82610faf9190611eca565b905060008167ffffffffffffffff811115610fcd57610fcc612035565b5b60405190808252806020026020018201604052801561100657816020015b610ff361193b565b815260200190600190039081610feb5790505b509050600080600190505b8481116111d0576005600082815260200190815260200160002060040160149054906101000a900460ff16156111bd57600560008281526020019081526020016000206040518060c001604052908160008201548152602001600182015481526020016002820160009054906101000a900473ffffffffffffffffffffffffffffffffffffffff1673ffffffffffffffffffffffffffffffffffffffff1673ffffffffffffffffffffffffffffffffffffffff1681526020016003820160009054906101000a900473ffffffffffffffffffffffffffffffffffffffff1673ffffffffffffffffffffffffffffffffffffffff1673ffffffffffffffffffffffffffffffffffffffff1681526020016004820160009054906101000a900473ffffffffffffffffffffffffffffffffffffffff1673ffffffffffffffffffffffffffffffffffffffff1673ffffffffffffffffffffffffffffffffffffffff1681526020016004820160149054906101000a900460ff1615151515815250508383815181106111a3576111a2612006565b5b602002602001018190525081806111b990611f8e565b9250505b80806111c890611f8e565b915050611011565b508194505050505090565b606060006111e96002611917565b9050600080600190505b828111611286573373ffffffffffffffffffffffffffffffffffffffff166005600083815260200190815260200160002060030160009054906101000a900473ffffffffffffffffffffffffffffffffffffffff1673ffffffffffffffffffffffffffffffffffffffff16141561127357818061126f90611f8e565b9250505b808061127e90611f8e565b9150506111f3565b5060008167ffffffffffffffff8111156112a3576112a2612035565b5b6040519080825280602002602001820160405280156112dc57816020015b6112c961193b565b8152602001906001900390816112c15790505b509050600080600190505b8481116114e7573373ffffffffffffffffffffffffffffffffffffffff166005600083815260200190815260200160002060030160009054906101000a900473ffffffffffffffffffffffffffffffffffffffff1673ffffffffffffffffffffffffffffffffffffffff1614156114d457600560008281526020019081526020016000206040518060c001604052908160008201548152602001600182015481526020016002820160009054906101000a900473ffffffffffffffffffffffffffffffffffffffff1673ffffffffffffffffffffffffffffffffffffffff1673ffffffffffffffffffffffffffffffffffffffff1681526020016003820160009054906101000a900473ffffffffffffffffffffffffffffffffffffffff1673ffffffffffffffffffffffffffffffffffffffff1673ffffffffffffffffffffffffffffffffffffffff1681526020016004820160009054906101000a900473ffffffffffffffffffffffffffffffffffffffff1673ffffffffffffffffffffffffffffffffffffffff1673ffffffffffffffffffffffffffffffffffffffff1681526020016004820160149054906101000a900460ff1615151515815250508383815181106114ba576114b9612006565b5b602002602001018190525081806114d090611f8e565b9250505b80806114df90611f8e565b9150506112e7565b508194505050505090565b60026000541415611538576040517f08c379a000000000000000000000000000000000000000000000000000000000815260040161152f90611e25565b60405180910390fd5b60026000819055508060008111611584576040517f08c379a000000000000000000000000000000000000000000000000000000000815260040161157b90611e45565b60405180910390fd5b60035434146115c8576040517f08c379a00000000000000000000000000000000000000000000000000000000081526004016115bf90611e05565b60405180910390fd5b8373ffffffffffffffffffffffffffffffffffffffff166323b872dd3330866040518463ffffffff1660e01b815260040161160593929190611d23565b600060405180830381600087803b15801561161f57600080fd5b505af1158015611633573d6000803e3d6000fd5b505050506040518060c001604052808481526020018381526020013373ffffffffffffffffffffffffffffffffffffffff1681526020013073ffffffffffffffffffffffffffffffffffffffff1681526020013373ffffffffffffffffffffffffffffffffffffffff1681526020016001151581525060056000858152602001908152602001600020600082015181600001556020820151816001015560408201518160020160006101000a81548173ffffffffffffffffffffffffffffffffffffffff021916908373ffffffffffffffffffffffffffffffffffffffff16021790555060608201518160030160006101000a81548173ffffffffffffffffffffffffffffffffffffffff021916908373ffffffffffffffffffffffffffffffffffffffff16021790555060808201518160040160006101000a81548173ffffffffffffffffffffffffffffffffffffffff021916908373ffffffffffffffffffffffffffffffffffffffff16021790555060a08201518160040160146101000a81548160ff0219169083151502179055509050506117d26002611925565b600460009054906101000a900473ffffffffffffffffffffffffffffffffffffffff1673ffffffffffffffffffffffffffffffffffffffff166108fc349081150290604051600060405180830381858888f1935050505015801561183a573d6000803e3d6000fd5b503073ffffffffffffffffffffffffffffffffffffffff163373ffffffffffffffffffffffffffffffffffffffff16847fa0c6c0d02d86fdacecbaa5fdf5894bab204e31a778250474108540733a9b8d19878660405161189b929190611d5a565b60405180910390a4506001600081905550505050565b6000600354905090565b60008160000154905060008111611907576040517f08c379a00000000000000000000000000000000000000000000000000000000081526004016118fe90611dc5565b60405180910390fd5b6001810382600001819055505050565b600081600001549050919050565b6001816000016000828254019250508190555050565b6040518060c001604052806000815260200160008152602001600073ffffffffffffffffffffffffffffffffffffffff168152602001600073ffffffffffffffffffffffffffffffffffffffff168152602001600073ffffffffffffffffffffffffffffffffffffffff1681526020016000151581525090565b6000813590506119c481612185565b92915050565b6000815190506119d981612185565b92915050565b6000813590506119ee8161219c565b92915050565b600060208284031215611a0a57611a09612064565b5b6000611a18848285016119ca565b91505092915050565b60008060408385031215611a3857611a37612064565b5b6000611a46858286016119b5565b9250506020611a57858286016119df565b9150509250929050565b600080600060608486031215611a7a57611a79612064565b5b6000611a88868287016119b5565b9350506020611a99868287016119df565b9250506040611aaa868287016119df565b9150509250925092565b6000611ac08383611c38565b60c08301905092915050565b611ad581611f58565b82525050565b611ae481611f10565b82525050565b611af381611efe565b82525050565b6000611b0482611e90565b611b0e8185611ea8565b9350611b1983611e80565b8060005b83811015611b4a578151611b318882611ab4565b9750611b3c83611e9b565b925050600181019050611b1d565b5085935050505092915050565b611b6081611f22565b82525050565b6000611b73600d83611eb9565b9150611b7e82612069565b602082019050919050565b6000611b96601b83611eb9565b9150611ba182612092565b602082019050919050565b6000611bb9602683611eb9565b9150611bc4826120bb565b604082019050919050565b6000611bdc602083611eb9565b9150611be78261210a565b602082019050919050565b6000611bff601f83611eb9565b9150611c0a82612133565b602082019050919050565b6000611c22601c83611eb9565b9150611c2d8261215c565b602082019050919050565b60c082016000820151611c4e6000850182611cb3565b506020820151611c616020850182611cb3565b506040820151611c746040850182611adb565b506060820151611c876060850182611adb565b506080820151611c9a6080850182611adb565b5060a0820151611cad60a0850182611b57565b50505050565b611cbc81611f4e565b82525050565b611ccb81611f4e565b82525050565b6000602082019050611ce66000830184611aea565b92915050565b6000606082019050611d016000830186611aea565b611d0e6020830185611acc565b611d1b6040830184611cc2565b949350505050565b6000606082019050611d386000830186611aea565b611d456020830185611aea565b611d526040830184611cc2565b949350505050565b6000604082019050611d6f6000830185611aea565b611d7c6020830184611cc2565b9392505050565b60006020820190508181036000830152611d9d8184611af9565b905092915050565b60006020820190508181036000830152611dbe81611b66565b9050919050565b60006020820190508181036000830152611dde81611b89565b9050919050565b60006020820190508181036000830152611dfe81611bac565b9050919050565b60006020820190508181036000830152611e1e81611bcf565b9050919050565b60006020820190508181036000830152611e3e81611bf2565b9050919050565b60006020820190508181036000830152611e5e81611c15565b9050919050565b6000602082019050611e7a6000830184611cc2565b92915050565b6000819050602082019050919050565b600081519050919050565b6000602082019050919050565b600082825260208201905092915050565b600082825260208201905092915050565b6000611ed582611f4e565b9150611ee083611f4e565b925082821015611ef357611ef2611fd7565b5b828203905092915050565b6000611f0982611f2e565b9050919050565b6000611f1b82611f2e565b9050919050565b60008115159050919050565b600073ffffffffffffffffffffffffffffffffffffffff82169050919050565b6000819050919050565b6000611f6382611f6a565b9050919050565b6000611f7582611f7c565b9050919050565b6000611f8782611f2e565b9050919050565b6000611f9982611f4e565b91507fffffffffffffffffffffffffffffffffffffffffffffffffffffffffffffffff821415611fcc57611fcb611fd7565b5b600182019050919050565b7f4e487b7100000000000000000000000000000000000000000000000000000000600052601160045260246000fd5b7f4e487b7100000000000000000000000000000000000000000000000000000000600052603260045260246000fd5b7f4e487b7100000000000000000000000000000000000000000000000000000000600052604160045260246000fd5b600080fd5b7f4e4654206e6f7420666f756e6400000000000000000000000000000000000000600082015250565b7f436f756e7465723a2064656372656d656e74206f766572666c6f770000000000600082015250565b7f4e6f7420656e6f75676820657468657220746f20636f7665722061736b696e6760008201527f2070726963650000000000000000000000000000000000000000000000000000602082015250565b7f4e6f7420656e6f75676820657468657220666f72206c697374696e6720666565600082015250565b7f5265656e7472616e637947756172643a207265656e7472616e742063616c6c00600082015250565b7f5072696365206d757374206265206174206c6561737420312077656900000000600082015250565b61218e81611efe565b811461219957600080fd5b50565b6121a581611f4e565b81146121b057600080fd5b5056fea2646970667358221220d8ada64abb15beaf3a886e6156c1cfb33179d07d6a86efbe2f77655dfebbd7e764736f6c63430008070033",
					"opcodes": "PUSH1 0x80 PUSH1 0x40 MSTORE PUSH7 0x71AFD498D0000 PUSH1 0x3 SSTORE CALLVALUE DUP1 ISZERO PUSH2 0x1B JUMPI PUSH1 0x0 DUP1 REVERT JUMPDEST POP PUSH1 0x1 PUSH1 0x0 DUP2 SWAP1 SSTORE POP CALLER PUSH1 0x4 PUSH1 0x0 PUSH2 0x100 EXP DUP2 SLOAD DUP2 PUSH20 0xFFFFFFFFFFFFFFFFFFFFFFFFFFFFFFFFFFFFFFFF MUL NOT AND SWAP1 DUP4 PUSH20 0xFFFFFFFFFFFFFFFFFFFFFFFFFFFFFFFFFFFFFFFF AND MUL OR SWAP1 SSTORE POP PUSH2 0x21E9 DUP1 PUSH2 0x74 PUSH1 0x0 CODECOPY PUSH1 0x0 RETURN INVALID PUSH1 0x80 PUSH1 0x40 MSTORE PUSH1 0x4 CALLDATASIZE LT PUSH2 0x91 JUMPI PUSH1 0x0 CALLDATALOAD PUSH1 0xE0 SHR DUP1 PUSH4 0x8492095A GT PUSH2 0x59 JUMPI DUP1 PUSH4 0x8492095A EQ PUSH2 0x161 JUMPI DUP1 PUSH4 0x8D6CB3FB EQ PUSH2 0x18C JUMPI DUP1 PUSH4 0xA46B5C5A EQ PUSH2 0x1B7 JUMPI DUP1 PUSH4 0xAD05F1B4 EQ PUSH2 0x1E2 JUMPI DUP1 PUSH4 0xB8FE6ABE EQ PUSH2 0x1FE JUMPI PUSH2 0x91 JUMP JUMPDEST DUP1 PUSH4 0x4935694 EQ PUSH2 0x96 JUMPI DUP1 PUSH4 0x1F4CC4DB EQ PUSH2 0xB2 JUMPI DUP1 PUSH4 0x2B86AE38 EQ PUSH2 0xDD JUMPI DUP1 PUSH4 0x2F634A90 EQ PUSH2 0x108 JUMPI DUP1 PUSH4 0x4DDF4F8F EQ PUSH2 0x145 JUMPI JUMPDEST PUSH1 0x0 DUP1 REVERT JUMPDEST PUSH2 0xB0 PUSH1 0x4 DUP1 CALLDATASIZE SUB DUP2 ADD SWAP1 PUSH2 0xAB SWAP2 SWAP1 PUSH2 0x1A61 JUMP JUMPDEST PUSH2 0x229 JUMP JUMPDEST STOP JUMPDEST CALLVALUE DUP1 ISZERO PUSH2 0xBE JUMPI PUSH1 0x0 DUP1 REVERT JUMPDEST POP PUSH2 0xC7 PUSH2 0x546 JUMP JUMPDEST PUSH1 0x40 MLOAD PUSH2 0xD4 SWAP2 SWAP1 PUSH2 0x1D83 JUMP JUMPDEST PUSH1 0x40 MLOAD DUP1 SWAP2 SUB SWAP1 RETURN JUMPDEST CALLVALUE DUP1 ISZERO PUSH2 0xE9 JUMPI PUSH1 0x0 DUP1 REVERT JUMPDEST POP PUSH2 0xF2 PUSH2 0x8B5 JUMP JUMPDEST PUSH1 0x40 MLOAD PUSH2 0xFF SWAP2 SWAP1 PUSH2 0x1E65 JUMP JUMPDEST PUSH1 0x40 MLOAD DUP1 SWAP2 SUB SWAP1 RETURN JUMPDEST CALLVALUE DUP1 ISZERO PUSH2 0x114 JUMPI PUSH1 0x0 DUP1 REVERT JUMPDEST POP PUSH2 0x12F PUSH1 0x4 DUP1 CALLDATASIZE SUB DUP2 ADD SWAP1 PUSH2 0x12A SWAP2 SWAP1 PUSH2 0x1A21 JUMP JUMPDEST PUSH2 0x8BB JUMP JUMPDEST PUSH1 0x40 MLOAD PUSH2 0x13C SWAP2 SWAP1 PUSH2 0x1CD1 JUMP JUMPDEST PUSH1 0x40 MLOAD DUP1 SWAP2 SUB SWAP1 RETURN JUMPDEST PUSH2 0x15F PUSH1 0x4 DUP1 CALLDATASIZE SUB DUP2 ADD SWAP1 PUSH2 0x15A SWAP2 SWAP1 PUSH2 0x1A21 JUMP JUMPDEST PUSH2 0x94E JUMP JUMPDEST STOP JUMPDEST CALLVALUE DUP1 ISZERO PUSH2 0x16D JUMPI PUSH1 0x0 DUP1 REVERT JUMPDEST POP PUSH2 0x176 PUSH2 0xC71 JUMP JUMPDEST PUSH1 0x40 MLOAD PUSH2 0x183 SWAP2 SWAP1 PUSH2 0x1D83 JUMP JUMPDEST PUSH1 0x40 MLOAD DUP1 SWAP2 SUB SWAP1 RETURN JUMPDEST CALLVALUE DUP1 ISZERO PUSH2 0x198 JUMPI PUSH1 0x0 DUP1 REVERT JUMPDEST POP PUSH2 0x1A1 PUSH2 0xF88 JUMP JUMPDEST PUSH1 0x40 MLOAD PUSH2 0x1AE SWAP2 SWAP1 PUSH2 0x1D83 JUMP JUMPDEST PUSH1 0x40 MLOAD DUP1 SWAP2 SUB SWAP1 RETURN JUMPDEST CALLVALUE DUP1 ISZERO PUSH2 0x1C3 JUMPI PUSH1 0x0 DUP1 REVERT JUMPDEST POP PUSH2 0x1CC PUSH2 0x11DB JUMP JUMPDEST PUSH1 0x40 MLOAD PUSH2 0x1D9 SWAP2 SWAP1 PUSH2 0x1D83 JUMP JUMPDEST PUSH1 0x40 MLOAD DUP1 SWAP2 SUB SWAP1 RETURN JUMPDEST PUSH2 0x1FC PUSH1 0x4 DUP1 CALLDATASIZE SUB DUP2 ADD SWAP1 PUSH2 0x1F7 SWAP2 SWAP1 PUSH2 0x1A61 JUMP JUMPDEST PUSH2 0x14F2 JUMP JUMPDEST STOP JUMPDEST CALLVALUE DUP1 ISZERO PUSH2 0x20A JUMPI PUSH1 0x0 DUP1 REVERT JUMPDEST POP PUSH2 0x213 PUSH2 0x18B1 JUMP JUMPDEST PUSH1 0x40 MLOAD PUSH2 0x220 SWAP2 SWAP1 PUSH2 0x1E65 JUMP JUMPDEST PUSH1 0x40 MLOAD DUP1 SWAP2 SUB SWAP1 RETURN JUMPDEST PUSH1 0x2 PUSH1 0x0 SLOAD EQ ISZERO PUSH2 0x26F JUMPI PUSH1 0x40 MLOAD PUSH32 0x8C379A000000000000000000000000000000000000000000000000000000000 DUP2 MSTORE PUSH1 0x4 ADD PUSH2 0x266 SWAP1 PUSH2 0x1E25 JUMP JUMPDEST PUSH1 0x40 MLOAD DUP1 SWAP2 SUB SWAP1 REVERT JUMPDEST PUSH1 0x2 PUSH1 0x0 DUP2 SWAP1 SSTORE POP DUP1 PUSH1 0x0 DUP2 GT PUSH2 0x2BB JUMPI PUSH1 0x40 MLOAD PUSH32 0x8C379A000000000000000000000000000000000000000000000000000000000 DUP2 MSTORE PUSH1 0x4 ADD PUSH2 0x2B2 SWAP1 PUSH2 0x1E45 JUMP JUMPDEST PUSH1 0x40 MLOAD DUP1 SWAP2 SUB SWAP1 REVERT JUMPDEST PUSH1 0x3 SLOAD CALLVALUE EQ PUSH2 0x2FF JUMPI PUSH1 0x40 MLOAD PUSH32 0x8C379A000000000000000000000000000000000000000000000000000000000 DUP2 MSTORE PUSH1 0x4 ADD PUSH2 0x2F6 SWAP1 PUSH2 0x1E05 JUMP JUMPDEST PUSH1 0x40 MLOAD DUP1 SWAP2 SUB SWAP1 REVERT JUMPDEST PUSH1 0x0 PUSH1 0x5 PUSH1 0x0 DUP6 DUP2 MSTORE PUSH1 0x20 ADD SWAP1 DUP2 MSTORE PUSH1 0x20 ADD PUSH1 0x0 KECCAK256 SWAP1 POP PUSH1 0x0 PUSH20 0xFFFFFFFFFFFFFFFFFFFFFFFFFFFFFFFFFFFFFFFF AND DUP2 PUSH1 0x3 ADD PUSH1 0x0 SWAP1 SLOAD SWAP1 PUSH2 0x100 EXP SWAP1 DIV PUSH20 0xFFFFFFFFFFFFFFFFFFFFFFFFFFFFFFFFFFFFFFFF AND PUSH20 0xFFFFFFFFFFFFFFFFFFFFFFFFFFFFFFFFFFFFFFFF AND EQ ISZERO PUSH2 0x3AA JUMPI PUSH1 0x40 MLOAD PUSH32 0x8C379A000000000000000000000000000000000000000000000000000000000 DUP2 MSTORE PUSH1 0x4 ADD PUSH2 0x3A1 SWAP1 PUSH2 0x1DA5 JUMP JUMPDEST PUSH1 0x40 MLOAD DUP1 SWAP2 SUB SWAP1 REVERT JUMPDEST DUP5 PUSH20 0xFFFFFFFFFFFFFFFFFFFFFFFFFFFFFFFFFFFFFFFF AND PUSH4 0x23B872DD CALLER ADDRESS DUP8 PUSH1 0x40 MLOAD DUP5 PUSH4 0xFFFFFFFF AND PUSH1 0xE0 SHL DUP2 MSTORE PUSH1 0x4 ADD PUSH2 0x3E7 SWAP4 SWAP3 SWAP2 SWAP1 PUSH2 0x1D23 JUMP JUMPDEST PUSH1 0x0 PUSH1 0x40 MLOAD DUP1 DUP4 SUB DUP2 PUSH1 0x0 DUP8 DUP1 EXTCODESIZE ISZERO DUP1 ISZERO PUSH2 0x401 JUMPI PUSH1 0x0 DUP1 REVERT JUMPDEST POP GAS CALL ISZERO DUP1 ISZERO PUSH2 0x415 JUMPI RETURNDATASIZE PUSH1 0x0 DUP1 RETURNDATACOPY RETURNDATASIZE PUSH1 0x0 REVERT JUMPDEST POP POP POP POP CALLER DUP2 PUSH1 0x2 ADD PUSH1 0x0 PUSH2 0x100 EXP DUP2 SLOAD DUP2 PUSH20 0xFFFFFFFFFFFFFFFFFFFFFFFFFFFFFFFFFFFFFFFF MUL NOT AND SWAP1 DUP4 PUSH20 0xFFFFFFFFFFFFFFFFFFFFFFFFFFFFFFFFFFFFFFFF AND MUL OR SWAP1 SSTORE POP ADDRESS DUP2 PUSH1 0x3 ADD PUSH1 0x0 PUSH2 0x100 EXP DUP2 SLOAD DUP2 PUSH20 0xFFFFFFFFFFFFFFFFFFFFFFFFFFFFFFFFFFFFFFFF MUL NOT AND SWAP1 DUP4 PUSH20 0xFFFFFFFFFFFFFFFFFFFFFFFFFFFFFFFFFFFFFFFF AND MUL OR SWAP1 SSTORE POP PUSH1 0x1 DUP2 PUSH1 0x4 ADD PUSH1 0x14 PUSH2 0x100 EXP DUP2 SLOAD DUP2 PUSH1 0xFF MUL NOT AND SWAP1 DUP4 ISZERO ISZERO MUL OR SWAP1 SSTORE POP DUP3 DUP2 PUSH1 0x1 ADD DUP2 SWAP1 SSTORE POP PUSH2 0x4CF PUSH1 0x1 PUSH2 0x18BB JUMP JUMPDEST ADDRESS PUSH20 0xFFFFFFFFFFFFFFFFFFFFFFFFFFFFFFFFFFFFFFFF AND CALLER PUSH20 0xFFFFFFFFFFFFFFFFFFFFFFFFFFFFFFFFFFFFFFFF AND DUP6 PUSH32 0xA0C6C0D02D86FDACECBAA5FDF5894BAB204E31A778250474108540733A9B8D19 DUP9 DUP8 PUSH1 0x40 MLOAD PUSH2 0x52F SWAP3 SWAP2 SWAP1 PUSH2 0x1D5A JUMP JUMPDEST PUSH1 0x40 MLOAD DUP1 SWAP2 SUB SWAP1 LOG4 POP POP PUSH1 0x1 PUSH1 0x0 DUP2 SWAP1 SSTORE POP POP POP POP JUMP JUMPDEST PUSH1 0x60 PUSH1 0x0 PUSH2 0x554 PUSH1 0x2 PUSH2 0x1917 JUMP JUMPDEST SWAP1 POP PUSH1 0x0 DUP1 PUSH1 0x1 SWAP1 POP JUMPDEST DUP3 DUP2 GT PUSH2 0x61D JUMPI CALLER PUSH20 0xFFFFFFFFFFFFFFFFFFFFFFFFFFFFFFFFFFFFFFFF AND PUSH1 0x5 PUSH1 0x0 DUP4 DUP2 MSTORE PUSH1 0x20 ADD SWAP1 DUP2 MSTORE PUSH1 0x20 ADD PUSH1 0x0 KECCAK256 PUSH1 0x2 ADD PUSH1 0x0 SWAP1 SLOAD SWAP1 PUSH2 0x100 EXP SWAP1 DIV PUSH20 0xFFFFFFFFFFFFFFFFFFFFFFFFFFFFFFFFFFFFFFFF AND PUSH20 0xFFFFFFFFFFFFFFFFFFFFFFFFFFFFFFFFFFFFFFFF AND EQ DUP1 ISZERO PUSH2 0x5F6 JUMPI POP PUSH1 0x5 PUSH1 0x0 DUP3 DUP2 MSTORE PUSH1 0x20 ADD SWAP1 DUP2 MSTORE PUSH1 0x20 ADD PUSH1 0x0 KECCAK256 PUSH1 0x4 ADD PUSH1 0x14 SWAP1 SLOAD SWAP1 PUSH2 0x100 EXP SWAP1 DIV PUSH1 0xFF AND JUMPDEST ISZERO PUSH2 0x60A JUMPI DUP2 DUP1 PUSH2 0x606 SWAP1 PUSH2 0x1F8E JUMP JUMPDEST SWAP3 POP POP JUMPDEST DUP1 DUP1 PUSH2 0x615 SWAP1 PUSH2 0x1F8E JUMP JUMPDEST SWAP2 POP POP PUSH2 0x55E JUMP JUMPDEST POP PUSH1 0x0 DUP2 PUSH8 0xFFFFFFFFFFFFFFFF DUP2 GT ISZERO PUSH2 0x63A JUMPI PUSH2 0x639 PUSH2 0x2035 JUMP JUMPDEST JUMPDEST PUSH1 0x40 MLOAD SWAP1 DUP1 DUP3 MSTORE DUP1 PUSH1 0x20 MUL PUSH1 0x20 ADD DUP3 ADD PUSH1 0x40 MSTORE DUP1 ISZERO PUSH2 0x673 JUMPI DUP2 PUSH1 0x20 ADD JUMPDEST PUSH2 0x660 PUSH2 0x193B JUMP JUMPDEST DUP2 MSTORE PUSH1 0x20 ADD SWAP1 PUSH1 0x1 SWAP1 SUB SWAP1 DUP2 PUSH2 0x658 JUMPI SWAP1 POP JUMPDEST POP SWAP1 POP PUSH1 0x0 DUP1 PUSH1 0x1 SWAP1 POP JUMPDEST DUP5 DUP2 GT PUSH2 0x8AA JUMPI CALLER PUSH20 0xFFFFFFFFFFFFFFFFFFFFFFFFFFFFFFFFFFFFFFFF AND PUSH1 0x5 PUSH1 0x0 DUP4 DUP2 MSTORE PUSH1 0x20 ADD SWAP1 DUP2 MSTORE PUSH1 0x20 ADD PUSH1 0x0 KECCAK256 PUSH1 0x2 ADD PUSH1 0x0 SWAP1 SLOAD SWAP1 PUSH2 0x100 EXP SWAP1 DIV PUSH20 0xFFFFFFFFFFFFFFFFFFFFFFFFFFFFFFFFFFFFFFFF AND PUSH20 0xFFFFFFFFFFFFFFFFFFFFFFFFFFFFFFFFFFFFFFFF AND EQ DUP1 ISZERO PUSH2 0x716 JUMPI POP PUSH1 0x5 PUSH1 0x0 DUP3 DUP2 MSTORE PUSH1 0x20 ADD SWAP1 DUP2 MSTORE PUSH1 0x20 ADD PUSH1 0x0 KECCAK256 PUSH1 0x4 ADD PUSH1 0x14 SWAP1 SLOAD SWAP1 PUSH2 0x100 EXP SWAP1 DIV PUSH1 0xFF AND JUMPDEST ISZERO PUSH2 0x897 JUMPI PUSH1 0x5 PUSH1 0x0 DUP3 DUP2 MSTORE PUSH1 0x20 ADD SWAP1 DUP2 MSTORE PUSH1 0x20 ADD PUSH1 0x0 KECCAK256 PUSH1 0x40 MLOAD DUP1 PUSH1 0xC0 ADD PUSH1 0x40 MSTORE SWAP1 DUP2 PUSH1 0x0 DUP3 ADD SLOAD DUP2 MSTORE PUSH1 0x20 ADD PUSH1 0x1 DUP3 ADD SLOAD DUP2 MSTORE PUSH1 0x20 ADD PUSH1 0x2 DUP3 ADD PUSH1 0x0 SWAP1 SLOAD SWAP1 PUSH2 0x100 EXP SWAP1 DIV PUSH20 0xFFFFFFFFFFFFFFFFFFFFFFFFFFFFFFFFFFFFFFFF AND PUSH20 0xFFFFFFFFFFFFFFFFFFFFFFFFFFFFFFFFFFFFFFFF AND PUSH20 0xFFFFFFFFFFFFFFFFFFFFFFFFFFFFFFFFFFFFFFFF AND DUP2 MSTORE PUSH1 0x20 ADD PUSH1 0x3 DUP3 ADD PUSH1 0x0 SWAP1 SLOAD SWAP1 PUSH2 0x100 EXP SWAP1 DIV PUSH20 0xFFFFFFFFFFFFFFFFFFFFFFFFFFFFFFFFFFFFFFFF AND PUSH20 0xFFFFFFFFFFFFFFFFFFFFFFFFFFFFFFFFFFFFFFFF AND PUSH20 0xFFFFFFFFFFFFFFFFFFFFFFFFFFFFFFFFFFFFFFFF AND DUP2 MSTORE PUSH1 0x20 ADD PUSH1 0x4 DUP3 ADD PUSH1 0x0 SWAP1 SLOAD SWAP1 PUSH2 0x100 EXP SWAP1 DIV PUSH20 0xFFFFFFFFFFFFFFFFFFFFFFFFFFFFFFFFFFFFFFFF AND PUSH20 0xFFFFFFFFFFFFFFFFFFFFFFFFFFFFFFFFFFFFFFFF AND PUSH20 0xFFFFFFFFFFFFFFFFFFFFFFFFFFFFFFFFFFFFFFFF AND DUP2 MSTORE PUSH1 0x20 ADD PUSH1 0x4 DUP3 ADD PUSH1 0x14 SWAP1 SLOAD SWAP1 PUSH2 0x100 EXP SWAP1 DIV PUSH1 0xFF AND ISZERO ISZERO ISZERO ISZERO DUP2 MSTORE POP POP DUP4 DUP4 DUP2 MLOAD DUP2 LT PUSH2 0x87D JUMPI PUSH2 0x87C PUSH2 0x2006 JUMP JUMPDEST JUMPDEST PUSH1 0x20 MUL PUSH1 0x20 ADD ADD DUP2 SWAP1 MSTORE POP DUP2 DUP1 PUSH2 0x893 SWAP1 PUSH2 0x1F8E JUMP JUMPDEST SWAP3 POP POP JUMPDEST DUP1 DUP1 PUSH2 0x8A2 SWAP1 PUSH2 0x1F8E JUMP JUMPDEST SWAP2 POP POP PUSH2 0x67E JUMP JUMPDEST POP DUP2 SWAP5 POP POP POP POP POP SWAP1 JUMP JUMPDEST PUSH1 0x3 SLOAD DUP2 JUMP JUMPDEST PUSH1 0x0 DUP3 PUSH20 0xFFFFFFFFFFFFFFFFFFFFFFFFFFFFFFFFFFFFFFFF AND PUSH4 0x6352211E DUP4 PUSH1 0x40 MLOAD DUP3 PUSH4 0xFFFFFFFF AND PUSH1 0xE0 SHL DUP2 MSTORE PUSH1 0x4 ADD PUSH2 0x8F6 SWAP2 SWAP1 PUSH2 0x1E65 JUMP JUMPDEST PUSH1 0x20 PUSH1 0x40 MLOAD DUP1 DUP4 SUB DUP2 DUP7 DUP1 EXTCODESIZE ISZERO DUP1 ISZERO PUSH2 0x90E JUMPI PUSH1 0x0 DUP1 REVERT JUMPDEST POP GAS STATICCALL ISZERO DUP1 ISZERO PUSH2 0x922 JUMPI RETURNDATASIZE PUSH1 0x0 DUP1 RETURNDATACOPY RETURNDATASIZE PUSH1 0x0 REVERT JUMPDEST POP POP POP POP PUSH1 0x40 MLOAD RETURNDATASIZE PUSH1 0x1F NOT PUSH1 0x1F DUP3 ADD AND DUP3 ADD DUP1 PUSH1 0x40 MSTORE POP DUP2 ADD SWAP1 PUSH2 0x946 SWAP2 SWAP1 PUSH2 0x19F4 JUMP JUMPDEST SWAP1 POP SWAP3 SWAP2 POP POP JUMP JUMPDEST PUSH1 0x2 PUSH1 0x0 SLOAD EQ ISZERO PUSH2 0x994 JUMPI PUSH1 0x40 MLOAD PUSH32 0x8C379A000000000000000000000000000000000000000000000000000000000 DUP2 MSTORE PUSH1 0x4 ADD PUSH2 0x98B SWAP1 PUSH2 0x1E25 JUMP JUMPDEST PUSH1 0x40 MLOAD DUP1 SWAP2 SUB SWAP1 REVERT JUMPDEST PUSH1 0x2 PUSH1 0x0 DUP2 SWAP1 SSTORE POP PUSH1 0x0 PUSH1 0x5 PUSH1 0x0 DUP4 DUP2 MSTORE PUSH1 0x20 ADD SWAP1 DUP2 MSTORE PUSH1 0x20 ADD PUSH1 0x0 KECCAK256 SWAP1 POP PUSH1 0x0 PUSH20 0xFFFFFFFFFFFFFFFFFFFFFFFFFFFFFFFFFFFFFFFF AND DUP2 PUSH1 0x3 ADD PUSH1 0x0 SWAP1 SLOAD SWAP1 PUSH2 0x100 EXP SWAP1 DIV PUSH20 0xFFFFFFFFFFFFFFFFFFFFFFFFFFFFFFFFFFFFFFFF AND PUSH20 0xFFFFFFFFFFFFFFFFFFFFFFFFFFFFFFFFFFFFFFFF AND EQ ISZERO PUSH2 0xA47 JUMPI PUSH1 0x40 MLOAD PUSH32 0x8C379A000000000000000000000000000000000000000000000000000000000 DUP2 MSTORE PUSH1 0x4 ADD PUSH2 0xA3E SWAP1 PUSH2 0x1DA5 JUMP JUMPDEST PUSH1 0x40 MLOAD DUP1 SWAP2 SUB SWAP1 REVERT JUMPDEST DUP1 PUSH1 0x1 ADD SLOAD CALLVALUE LT ISZERO PUSH2 0xA8E JUMPI PUSH1 0x40 MLOAD PUSH32 0x8C379A000000000000000000000000000000000000000000000000000000000 DUP2 MSTORE PUSH1 0x4 ADD PUSH2 0xA85 SWAP1 PUSH2 0x1DE5 JUMP JUMPDEST PUSH1 0x40 MLOAD DUP1 SWAP2 SUB SWAP1 REVERT JUMPDEST PUSH1 0x0 CALLER SWAP1 POP DUP2 PUSH1 0x2 ADD PUSH1 0x0 SWAP1 SLOAD SWAP1 PUSH2 0x100 EXP SWAP1 DIV PUSH20 0xFFFFFFFFFFFFFFFFFFFFFFFFFFFFFFFFFFFFFFFF AND PUSH20 0xFFFFFFFFFFFFFFFFFFFFFFFFFFFFFFFFFFFFFFFF AND PUSH2 0x8FC CALLVALUE SWAP1 DUP2 ISZERO MUL SWAP1 PUSH1 0x40 MLOAD PUSH1 0x0 PUSH1 0x40 MLOAD DUP1 DUP4 SUB DUP2 DUP6 DUP9 DUP9 CALL SWAP4 POP POP POP POP ISZERO DUP1 ISZERO PUSH2 0xAFD JUMPI RETURNDATASIZE PUSH1 0x0 DUP1 RETURNDATACOPY RETURNDATASIZE PUSH1 0x0 REVERT JUMPDEST POP DUP4 PUSH20 0xFFFFFFFFFFFFFFFFFFFFFFFFFFFFFFFFFFFFFFFF AND PUSH4 0x23B872DD ADDRESS DUP4 DUP7 PUSH1 0x40 MLOAD DUP5 PUSH4 0xFFFFFFFF AND PUSH1 0xE0 SHL DUP2 MSTORE PUSH1 0x4 ADD PUSH2 0xB3B SWAP4 SWAP3 SWAP2 SWAP1 PUSH2 0x1CEC JUMP JUMPDEST PUSH1 0x0 PUSH1 0x40 MLOAD DUP1 DUP4 SUB DUP2 PUSH1 0x0 DUP8 DUP1 EXTCODESIZE ISZERO DUP1 ISZERO PUSH2 0xB55 JUMPI PUSH1 0x0 DUP1 REVERT JUMPDEST POP GAS CALL ISZERO DUP1 ISZERO PUSH2 0xB69 JUMPI RETURNDATASIZE PUSH1 0x0 DUP1 RETURNDATACOPY RETURNDATASIZE PUSH1 0x0 REVERT JUMPDEST POP POP POP POP DUP1 DUP3 PUSH1 0x3 ADD PUSH1 0x0 PUSH2 0x100 EXP DUP2 SLOAD DUP2 PUSH20 0xFFFFFFFFFFFFFFFFFFFFFFFFFFFFFFFFFFFFFFFF MUL NOT AND SWAP1 DUP4 PUSH20 0xFFFFFFFFFFFFFFFFFFFFFFFFFFFFFFFFFFFFFFFF AND MUL OR SWAP1 SSTORE POP PUSH1 0x0 DUP3 PUSH1 0x4 ADD PUSH1 0x14 PUSH2 0x100 EXP DUP2 SLOAD DUP2 PUSH1 0xFF MUL NOT AND SWAP1 DUP4 ISZERO ISZERO MUL OR SWAP1 SSTORE POP PUSH2 0xBD7 PUSH1 0x1 PUSH2 0x1925 JUMP JUMPDEST DUP1 PUSH20 0xFFFFFFFFFFFFFFFFFFFFFFFFFFFFFFFFFFFFFFFF AND DUP3 PUSH1 0x2 ADD PUSH1 0x0 SWAP1 SLOAD SWAP1 PUSH2 0x100 EXP SWAP1 DIV PUSH20 0xFFFFFFFFFFFFFFFFFFFFFFFFFFFFFFFFFFFFFFFF AND PUSH20 0xFFFFFFFFFFFFFFFFFFFFFFFFFFFFFFFFFFFFFFFF AND DUP5 PUSH32 0x16F1DBD97E6BF646D429ED186CCE832F1F7FD9907814293B83181E9970AB7BD2 DUP8 CALLVALUE PUSH1 0x40 MLOAD PUSH2 0xC5B SWAP3 SWAP2 SWAP1 PUSH2 0x1D5A JUMP JUMPDEST PUSH1 0x40 MLOAD DUP1 SWAP2 SUB SWAP1 LOG4 POP POP PUSH1 0x1 PUSH1 0x0 DUP2 SWAP1 SSTORE POP POP POP JUMP JUMPDEST PUSH1 0x60 PUSH1 0x0 PUSH2 0xC7F PUSH1 0x2 PUSH2 0x1917 JUMP JUMPDEST SWAP1 POP PUSH1 0x0 DUP1 PUSH1 0x1 SWAP1 POP JUMPDEST DUP3 DUP2 GT PUSH2 0xD1C JUMPI CALLER PUSH20 0xFFFFFFFFFFFFFFFFFFFFFFFFFFFFFFFFFFFFFFFF AND PUSH1 0x5 PUSH1 0x0 DUP4 DUP2 MSTORE PUSH1 0x20 ADD SWAP1 DUP2 MSTORE PUSH1 0x20 ADD PUSH1 0x0 KECCAK256 PUSH1 0x4 ADD PUSH1 0x0 SWAP1 SLOAD SWAP1 PUSH2 0x100 EXP SWAP1 DIV PUSH20 0xFFFFFFFFFFFFFFFFFFFFFFFFFFFFFFFFFFFFFFFF AND PUSH20 0xFFFFFFFFFFFFFFFFFFFFFFFFFFFFFFFFFFFFFFFF AND EQ ISZERO PUSH2 0xD09 JUMPI DUP2 DUP1 PUSH2 0xD05 SWAP1 PUSH2 0x1F8E JUMP JUMPDEST SWAP3 POP POP JUMPDEST DUP1 DUP1 PUSH2 0xD14 SWAP1 PUSH2 0x1F8E JUMP JUMPDEST SWAP2 POP POP PUSH2 0xC89 JUMP JUMPDEST POP PUSH1 0x0 DUP2 PUSH8 0xFFFFFFFFFFFFFFFF DUP2 GT ISZERO PUSH2 0xD39 JUMPI PUSH2 0xD38 PUSH2 0x2035 JUMP JUMPDEST JUMPDEST PUSH1 0x40 MLOAD SWAP1 DUP1 DUP3 MSTORE DUP1 PUSH1 0x20 MUL PUSH1 0x20 ADD DUP3 ADD PUSH1 0x40 MSTORE DUP1 ISZERO PUSH2 0xD72 JUMPI DUP2 PUSH1 0x20 ADD JUMPDEST PUSH2 0xD5F PUSH2 0x193B JUMP JUMPDEST DUP2 MSTORE PUSH1 0x20 ADD SWAP1 PUSH1 0x1 SWAP1 SUB SWAP1 DUP2 PUSH2 0xD57 JUMPI SWAP1 POP JUMPDEST POP SWAP1 POP PUSH1 0x0 DUP1 PUSH1 0x1 SWAP1 POP JUMPDEST DUP5 DUP2 GT PUSH2 0xF7D JUMPI CALLER PUSH20 0xFFFFFFFFFFFFFFFFFFFFFFFFFFFFFFFFFFFFFFFF AND PUSH1 0x5 PUSH1 0x0 DUP4 DUP2 MSTORE PUSH1 0x20 ADD SWAP1 DUP2 MSTORE PUSH1 0x20 ADD PUSH1 0x0 KECCAK256 PUSH1 0x4 ADD PUSH1 0x0 SWAP1 SLOAD SWAP1 PUSH2 0x100 EXP SWAP1 DIV PUSH20 0xFFFFFFFFFFFFFFFFFFFFFFFFFFFFFFFFFFFFFFFF AND PUSH20 0xFFFFFFFFFFFFFFFFFFFFFFFFFFFFFFFFFFFFFFFF AND EQ ISZERO PUSH2 0xF6A JUMPI PUSH1 0x5 PUSH1 0x0 DUP3 DUP2 MSTORE PUSH1 0x20 ADD SWAP1 DUP2 MSTORE PUSH1 0x20 ADD PUSH1 0x0 KECCAK256 PUSH1 0x40 MLOAD DUP1 PUSH1 0xC0 ADD PUSH1 0x40 MSTORE SWAP1 DUP2 PUSH1 0x0 DUP3 ADD SLOAD DUP2 MSTORE PUSH1 0x20 ADD PUSH1 0x1 DUP3 ADD SLOAD DUP2 MSTORE PUSH1 0x20 ADD PUSH1 0x2 DUP3 ADD PUSH1 0x0 SWAP1 SLOAD SWAP1 PUSH2 0x100 EXP SWAP1 DIV PUSH20 0xFFFFFFFFFFFFFFFFFFFFFFFFFFFFFFFFFFFFFFFF AND PUSH20 0xFFFFFFFFFFFFFFFFFFFFFFFFFFFFFFFFFFFFFFFF AND PUSH20 0xFFFFFFFFFFFFFFFFFFFFFFFFFFFFFFFFFFFFFFFF AND DUP2 MSTORE PUSH1 0x20 ADD PUSH1 0x3 DUP3 ADD PUSH1 0x0 SWAP1 SLOAD SWAP1 PUSH2 0x100 EXP SWAP1 DIV PUSH20 0xFFFFFFFFFFFFFFFFFFFFFFFFFFFFFFFFFFFFFFFF AND PUSH20 0xFFFFFFFFFFFFFFFFFFFFFFFFFFFFFFFFFFFFFFFF AND PUSH20 0xFFFFFFFFFFFFFFFFFFFFFFFFFFFFFFFFFFFFFFFF AND DUP2 MSTORE PUSH1 0x20 ADD PUSH1 0x4 DUP3 ADD PUSH1 0x0 SWAP1 SLOAD SWAP1 PUSH2 0x100 EXP SWAP1 DIV PUSH20 0xFFFFFFFFFFFFFFFFFFFFFFFFFFFFFFFFFFFFFFFF AND PUSH20 0xFFFFFFFFFFFFFFFFFFFFFFFFFFFFFFFFFFFFFFFF AND PUSH20 0xFFFFFFFFFFFFFFFFFFFFFFFFFFFFFFFFFFFFFFFF AND DUP2 MSTORE PUSH1 0x20 ADD PUSH1 0x4 DUP3 ADD PUSH1 0x14 SWAP1 SLOAD SWAP1 PUSH2 0x100 EXP SWAP1 DIV PUSH1 0xFF AND ISZERO ISZERO ISZERO ISZERO DUP2 MSTORE POP POP DUP4 DUP4 DUP2 MLOAD DUP2 LT PUSH2 0xF50 JUMPI PUSH2 0xF4F PUSH2 0x2006 JUMP JUMPDEST JUMPDEST PUSH1 0x20 MUL PUSH1 0x20 ADD ADD DUP2 SWAP1 MSTORE POP DUP2 DUP1 PUSH2 0xF66 SWAP1 PUSH2 0x1F8E JUMP JUMPDEST SWAP3 POP POP JUMPDEST DUP1 DUP1 PUSH2 0xF75 SWAP1 PUSH2 0x1F8E JUMP JUMPDEST SWAP2 POP POP PUSH2 0xD7D JUMP JUMPDEST POP DUP2 SWAP5 POP POP POP POP POP SWAP1 JUMP JUMPDEST PUSH1 0x60 PUSH1 0x0 PUSH2 0xF96 PUSH1 0x2 PUSH2 0x1917 JUMP JUMPDEST SWAP1 POP PUSH1 0x0 PUSH2 0xFA4 PUSH1 0x1 PUSH2 0x1917 JUMP JUMPDEST DUP3 PUSH2 0xFAF SWAP2 SWAP1 PUSH2 0x1ECA JUMP JUMPDEST SWAP1 POP PUSH1 0x0 DUP2 PUSH8 0xFFFFFFFFFFFFFFFF DUP2 GT ISZERO PUSH2 0xFCD JUMPI PUSH2 0xFCC PUSH2 0x2035 JUMP JUMPDEST JUMPDEST PUSH1 0x40 MLOAD SWAP1 DUP1 DUP3 MSTORE DUP1 PUSH1 0x20 MUL PUSH1 0x20 ADD DUP3 ADD PUSH1 0x40 MSTORE DUP1 ISZERO PUSH2 0x1006 JUMPI DUP2 PUSH1 0x20 ADD JUMPDEST PUSH2 0xFF3 PUSH2 0x193B JUMP JUMPDEST DUP2 MSTORE PUSH1 0x20 ADD SWAP1 PUSH1 0x1 SWAP1 SUB SWAP1 DUP2 PUSH2 0xFEB JUMPI SWAP1 POP JUMPDEST POP SWAP1 POP PUSH1 0x0 DUP1 PUSH1 0x1 SWAP1 POP JUMPDEST DUP5 DUP2 GT PUSH2 0x11D0 JUMPI PUSH1 0x5 PUSH1 0x0 DUP3 DUP2 MSTORE PUSH1 0x20 ADD SWAP1 DUP2 MSTORE PUSH1 0x20 ADD PUSH1 0x0 KECCAK256 PUSH1 0x4 ADD PUSH1 0x14 SWAP1 SLOAD SWAP1 PUSH2 0x100 EXP SWAP1 DIV PUSH1 0xFF AND ISZERO PUSH2 0x11BD JUMPI PUSH1 0x5 PUSH1 0x0 DUP3 DUP2 MSTORE PUSH1 0x20 ADD SWAP1 DUP2 MSTORE PUSH1 0x20 ADD PUSH1 0x0 KECCAK256 PUSH1 0x40 MLOAD DUP1 PUSH1 0xC0 ADD PUSH1 0x40 MSTORE SWAP1 DUP2 PUSH1 0x0 DUP3 ADD SLOAD DUP2 MSTORE PUSH1 0x20 ADD PUSH1 0x1 DUP3 ADD SLOAD DUP2 MSTORE PUSH1 0x20 ADD PUSH1 0x2 DUP3 ADD PUSH1 0x0 SWAP1 SLOAD SWAP1 PUSH2 0x100 EXP SWAP1 DIV PUSH20 0xFFFFFFFFFFFFFFFFFFFFFFFFFFFFFFFFFFFFFFFF AND PUSH20 0xFFFFFFFFFFFFFFFFFFFFFFFFFFFFFFFFFFFFFFFF AND PUSH20 0xFFFFFFFFFFFFFFFFFFFFFFFFFFFFFFFFFFFFFFFF AND DUP2 MSTORE PUSH1 0x20 ADD PUSH1 0x3 DUP3 ADD PUSH1 0x0 SWAP1 SLOAD SWAP1 PUSH2 0x100 EXP SWAP1 DIV PUSH20 0xFFFFFFFFFFFFFFFFFFFFFFFFFFFFFFFFFFFFFFFF AND PUSH20 0xFFFFFFFFFFFFFFFFFFFFFFFFFFFFFFFFFFFFFFFF AND PUSH20 0xFFFFFFFFFFFFFFFFFFFFFFFFFFFFFFFFFFFFFFFF AND DUP2 MSTORE PUSH1 0x20 ADD PUSH1 0x4 DUP3 ADD PUSH1 0x0 SWAP1 SLOAD SWAP1 PUSH2 0x100 EXP SWAP1 DIV PUSH20 0xFFFFFFFFFFFFFFFFFFFFFFFFFFFFFFFFFFFFFFFF AND PUSH20 0xFFFFFFFFFFFFFFFFFFFFFFFFFFFFFFFFFFFFFFFF AND PUSH20 0xFFFFFFFFFFFFFFFFFFFFFFFFFFFFFFFFFFFFFFFF AND DUP2 MSTORE PUSH1 0x20 ADD PUSH1 0x4 DUP3 ADD PUSH1 0x14 SWAP1 SLOAD SWAP1 PUSH2 0x100 EXP SWAP1 DIV PUSH1 0xFF AND ISZERO ISZERO ISZERO ISZERO DUP2 MSTORE POP POP DUP4 DUP4 DUP2 MLOAD DUP2 LT PUSH2 0x11A3 JUMPI PUSH2 0x11A2 PUSH2 0x2006 JUMP JUMPDEST JUMPDEST PUSH1 0x20 MUL PUSH1 0x20 ADD ADD DUP2 SWAP1 MSTORE POP DUP2 DUP1 PUSH2 0x11B9 SWAP1 PUSH2 0x1F8E JUMP JUMPDEST SWAP3 POP POP JUMPDEST DUP1 DUP1 PUSH2 0x11C8 SWAP1 PUSH2 0x1F8E JUMP JUMPDEST SWAP2 POP POP PUSH2 0x1011 JUMP JUMPDEST POP DUP2 SWAP5 POP POP POP POP POP SWAP1 JUMP JUMPDEST PUSH1 0x60 PUSH1 0x0 PUSH2 0x11E9 PUSH1 0x2 PUSH2 0x1917 JUMP JUMPDEST SWAP1 POP PUSH1 0x0 DUP1 PUSH1 0x1 SWAP1 POP JUMPDEST DUP3 DUP2 GT PUSH2 0x1286 JUMPI CALLER PUSH20 0xFFFFFFFFFFFFFFFFFFFFFFFFFFFFFFFFFFFFFFFF AND PUSH1 0x5 PUSH1 0x0 DUP4 DUP2 MSTORE PUSH1 0x20 ADD SWAP1 DUP2 MSTORE PUSH1 0x20 ADD PUSH1 0x0 KECCAK256 PUSH1 0x3 ADD PUSH1 0x0 SWAP1 SLOAD SWAP1 PUSH2 0x100 EXP SWAP1 DIV PUSH20 0xFFFFFFFFFFFFFFFFFFFFFFFFFFFFFFFFFFFFFFFF AND PUSH20 0xFFFFFFFFFFFFFFFFFFFFFFFFFFFFFFFFFFFFFFFF AND EQ ISZERO PUSH2 0x1273 JUMPI DUP2 DUP1 PUSH2 0x126F SWAP1 PUSH2 0x1F8E JUMP JUMPDEST SWAP3 POP POP JUMPDEST DUP1 DUP1 PUSH2 0x127E SWAP1 PUSH2 0x1F8E JUMP JUMPDEST SWAP2 POP POP PUSH2 0x11F3 JUMP JUMPDEST POP PUSH1 0x0 DUP2 PUSH8 0xFFFFFFFFFFFFFFFF DUP2 GT ISZERO PUSH2 0x12A3 JUMPI PUSH2 0x12A2 PUSH2 0x2035 JUMP JUMPDEST JUMPDEST PUSH1 0x40 MLOAD SWAP1 DUP1 DUP3 MSTORE DUP1 PUSH1 0x20 MUL PUSH1 0x20 ADD DUP3 ADD PUSH1 0x40 MSTORE DUP1 ISZERO PUSH2 0x12DC JUMPI DUP2 PUSH1 0x20 ADD JUMPDEST PUSH2 0x12C9 PUSH2 0x193B JUMP JUMPDEST DUP2 MSTORE PUSH1 0x20 ADD SWAP1 PUSH1 0x1 SWAP1 SUB SWAP1 DUP2 PUSH2 0x12C1 JUMPI SWAP1 POP JUMPDEST POP SWAP1 POP PUSH1 0x0 DUP1 PUSH1 0x1 SWAP1 POP JUMPDEST DUP5 DUP2 GT PUSH2 0x14E7 JUMPI CALLER PUSH20 0xFFFFFFFFFFFFFFFFFFFFFFFFFFFFFFFFFFFFFFFF AND PUSH1 0x5 PUSH1 0x0 DUP4 DUP2 MSTORE PUSH1 0x20 ADD SWAP1 DUP2 MSTORE PUSH1 0x20 ADD PUSH1 0x0 KECCAK256 PUSH1 0x3 ADD PUSH1 0x0 SWAP1 SLOAD SWAP1 PUSH2 0x100 EXP SWAP1 DIV PUSH20 0xFFFFFFFFFFFFFFFFFFFFFFFFFFFFFFFFFFFFFFFF AND PUSH20 0xFFFFFFFFFFFFFFFFFFFFFFFFFFFFFFFFFFFFFFFF AND EQ ISZERO PUSH2 0x14D4 JUMPI PUSH1 0x5 PUSH1 0x0 DUP3 DUP2 MSTORE PUSH1 0x20 ADD SWAP1 DUP2 MSTORE PUSH1 0x20 ADD PUSH1 0x0 KECCAK256 PUSH1 0x40 MLOAD DUP1 PUSH1 0xC0 ADD PUSH1 0x40 MSTORE SWAP1 DUP2 PUSH1 0x0 DUP3 ADD SLOAD DUP2 MSTORE PUSH1 0x20 ADD PUSH1 0x1 DUP3 ADD SLOAD DUP2 MSTORE PUSH1 0x20 ADD PUSH1 0x2 DUP3 ADD PUSH1 0x0 SWAP1 SLOAD SWAP1 PUSH2 0x100 EXP SWAP1 DIV PUSH20 0xFFFFFFFFFFFFFFFFFFFFFFFFFFFFFFFFFFFFFFFF AND PUSH20 0xFFFFFFFFFFFFFFFFFFFFFFFFFFFFFFFFFFFFFFFF AND PUSH20 0xFFFFFFFFFFFFFFFFFFFFFFFFFFFFFFFFFFFFFFFF AND DUP2 MSTORE PUSH1 0x20 ADD PUSH1 0x3 DUP3 ADD PUSH1 0x0 SWAP1 SLOAD SWAP1 PUSH2 0x100 EXP SWAP1 DIV PUSH20 0xFFFFFFFFFFFFFFFFFFFFFFFFFFFFFFFFFFFFFFFF AND PUSH20 0xFFFFFFFFFFFFFFFFFFFFFFFFFFFFFFFFFFFFFFFF AND PUSH20 0xFFFFFFFFFFFFFFFFFFFFFFFFFFFFFFFFFFFFFFFF AND DUP2 MSTORE PUSH1 0x20 ADD PUSH1 0x4 DUP3 ADD PUSH1 0x0 SWAP1 SLOAD SWAP1 PUSH2 0x100 EXP SWAP1 DIV PUSH20 0xFFFFFFFFFFFFFFFFFFFFFFFFFFFFFFFFFFFFFFFF AND PUSH20 0xFFFFFFFFFFFFFFFFFFFFFFFFFFFFFFFFFFFFFFFF AND PUSH20 0xFFFFFFFFFFFFFFFFFFFFFFFFFFFFFFFFFFFFFFFF AND DUP2 MSTORE PUSH1 0x20 ADD PUSH1 0x4 DUP3 ADD PUSH1 0x14 SWAP1 SLOAD SWAP1 PUSH2 0x100 EXP SWAP1 DIV PUSH1 0xFF AND ISZERO ISZERO ISZERO ISZERO DUP2 MSTORE POP POP DUP4 DUP4 DUP2 MLOAD DUP2 LT PUSH2 0x14BA JUMPI PUSH2 0x14B9 PUSH2 0x2006 JUMP JUMPDEST JUMPDEST PUSH1 0x20 MUL PUSH1 0x20 ADD ADD DUP2 SWAP1 MSTORE POP DUP2 DUP1 PUSH2 0x14D0 SWAP1 PUSH2 0x1F8E JUMP JUMPDEST SWAP3 POP POP JUMPDEST DUP1 DUP1 PUSH2 0x14DF SWAP1 PUSH2 0x1F8E JUMP JUMPDEST SWAP2 POP POP PUSH2 0x12E7 JUMP JUMPDEST POP DUP2 SWAP5 POP POP POP POP POP SWAP1 JUMP JUMPDEST PUSH1 0x2 PUSH1 0x0 SLOAD EQ ISZERO PUSH2 0x1538 JUMPI PUSH1 0x40 MLOAD PUSH32 0x8C379A000000000000000000000000000000000000000000000000000000000 DUP2 MSTORE PUSH1 0x4 ADD PUSH2 0x152F SWAP1 PUSH2 0x1E25 JUMP JUMPDEST PUSH1 0x40 MLOAD DUP1 SWAP2 SUB SWAP1 REVERT JUMPDEST PUSH1 0x2 PUSH1 0x0 DUP2 SWAP1 SSTORE POP DUP1 PUSH1 0x0 DUP2 GT PUSH2 0x1584 JUMPI PUSH1 0x40 MLOAD PUSH32 0x8C379A000000000000000000000000000000000000000000000000000000000 DUP2 MSTORE PUSH1 0x4 ADD PUSH2 0x157B SWAP1 PUSH2 0x1E45 JUMP JUMPDEST PUSH1 0x40 MLOAD DUP1 SWAP2 SUB SWAP1 REVERT JUMPDEST PUSH1 0x3 SLOAD CALLVALUE EQ PUSH2 0x15C8 JUMPI PUSH1 0x40 MLOAD PUSH32 0x8C379A000000000000000000000000000000000000000000000000000000000 DUP2 MSTORE PUSH1 0x4 ADD PUSH2 0x15BF SWAP1 PUSH2 0x1E05 JUMP JUMPDEST PUSH1 0x40 MLOAD DUP1 SWAP2 SUB SWAP1 REVERT JUMPDEST DUP4 PUSH20 0xFFFFFFFFFFFFFFFFFFFFFFFFFFFFFFFFFFFFFFFF AND PUSH4 0x23B872DD CALLER ADDRESS DUP7 PUSH1 0x40 MLOAD DUP5 PUSH4 0xFFFFFFFF AND PUSH1 0xE0 SHL DUP2 MSTORE PUSH1 0x4 ADD PUSH2 0x1605 SWAP4 SWAP3 SWAP2 SWAP1 PUSH2 0x1D23 JUMP JUMPDEST PUSH1 0x0 PUSH1 0x40 MLOAD DUP1 DUP4 SUB DUP2 PUSH1 0x0 DUP8 DUP1 EXTCODESIZE ISZERO DUP1 ISZERO PUSH2 0x161F JUMPI PUSH1 0x0 DUP1 REVERT JUMPDEST POP GAS CALL ISZERO DUP1 ISZERO PUSH2 0x1633 JUMPI RETURNDATASIZE PUSH1 0x0 DUP1 RETURNDATACOPY RETURNDATASIZE PUSH1 0x0 REVERT JUMPDEST POP POP POP POP PUSH1 0x40 MLOAD DUP1 PUSH1 0xC0 ADD PUSH1 0x40 MSTORE DUP1 DUP5 DUP2 MSTORE PUSH1 0x20 ADD DUP4 DUP2 MSTORE PUSH1 0x20 ADD CALLER PUSH20 0xFFFFFFFFFFFFFFFFFFFFFFFFFFFFFFFFFFFFFFFF AND DUP2 MSTORE PUSH1 0x20 ADD ADDRESS PUSH20 0xFFFFFFFFFFFFFFFFFFFFFFFFFFFFFFFFFFFFFFFF AND DUP2 MSTORE PUSH1 0x20 ADD CALLER PUSH20 0xFFFFFFFFFFFFFFFFFFFFFFFFFFFFFFFFFFFFFFFF AND DUP2 MSTORE PUSH1 0x20 ADD PUSH1 0x1 ISZERO ISZERO DUP2 MSTORE POP PUSH1 0x5 PUSH1 0x0 DUP6 DUP2 MSTORE PUSH1 0x20 ADD SWAP1 DUP2 MSTORE PUSH1 0x20 ADD PUSH1 0x0 KECCAK256 PUSH1 0x0 DUP3 ADD MLOAD DUP2 PUSH1 0x0 ADD SSTORE PUSH1 0x20 DUP3 ADD MLOAD DUP2 PUSH1 0x1 ADD SSTORE PUSH1 0x40 DUP3 ADD MLOAD DUP2 PUSH1 0x2 ADD PUSH1 0x0 PUSH2 0x100 EXP DUP2 SLOAD DUP2 PUSH20 0xFFFFFFFFFFFFFFFFFFFFFFFFFFFFFFFFFFFFFFFF MUL NOT AND SWAP1 DUP4 PUSH20 0xFFFFFFFFFFFFFFFFFFFFFFFFFFFFFFFFFFFFFFFF AND MUL OR SWAP1 SSTORE POP PUSH1 0x60 DUP3 ADD MLOAD DUP2 PUSH1 0x3 ADD PUSH1 0x0 PUSH2 0x100 EXP DUP2 SLOAD DUP2 PUSH20 0xFFFFFFFFFFFFFFFFFFFFFFFFFFFFFFFFFFFFFFFF MUL NOT AND SWAP1 DUP4 PUSH20 0xFFFFFFFFFFFFFFFFFFFFFFFFFFFFFFFFFFFFFFFF AND MUL OR SWAP1 SSTORE POP PUSH1 0x80 DUP3 ADD MLOAD DUP2 PUSH1 0x4 ADD PUSH1 0x0 PUSH2 0x100 EXP DUP2 SLOAD DUP2 PUSH20 0xFFFFFFFFFFFFFFFFFFFFFFFFFFFFFFFFFFFFFFFF MUL NOT AND SWAP1 DUP4 PUSH20 0xFFFFFFFFFFFFFFFFFFFFFFFFFFFFFFFFFFFFFFFF AND MUL OR SWAP1 SSTORE POP PUSH1 0xA0 DUP3 ADD MLOAD DUP2 PUSH1 0x4 ADD PUSH1 0x14 PUSH2 0x100 EXP DUP2 SLOAD DUP2 PUSH1 0xFF MUL NOT AND SWAP1 DUP4 ISZERO ISZERO MUL OR SWAP1 SSTORE POP SWAP1 POP POP PUSH2 0x17D2 PUSH1 0x2 PUSH2 0x1925 JUMP JUMPDEST PUSH1 0x4 PUSH1 0x0 SWAP1 SLOAD SWAP1 PUSH2 0x100 EXP SWAP1 DIV PUSH20 0xFFFFFFFFFFFFFFFFFFFFFFFFFFFFFFFFFFFFFFFF AND PUSH20 0xFFFFFFFFFFFFFFFFFFFFFFFFFFFFFFFFFFFFFFFF AND PUSH2 0x8FC CALLVALUE SWAP1 DUP2 ISZERO MUL SWAP1 PUSH1 0x40 MLOAD PUSH1 0x0 PUSH1 0x40 MLOAD DUP1 DUP4 SUB DUP2 DUP6 DUP9 DUP9 CALL SWAP4 POP POP POP POP ISZERO DUP1 ISZERO PUSH2 0x183A JUMPI RETURNDATASIZE PUSH1 0x0 DUP1 RETURNDATACOPY RETURNDATASIZE PUSH1 0x0 REVERT JUMPDEST POP ADDRESS PUSH20 0xFFFFFFFFFFFFFFFFFFFFFFFFFFFFFFFFFFFFFFFF AND CALLER PUSH20 0xFFFFFFFFFFFFFFFFFFFFFFFFFFFFFFFFFFFFFFFF AND DUP5 PUSH32 0xA0C6C0D02D86FDACECBAA5FDF5894BAB204E31A778250474108540733A9B8D19 DUP8 DUP7 PUSH1 0x40 MLOAD PUSH2 0x189B SWAP3 SWAP2 SWAP1 PUSH2 0x1D5A JUMP JUMPDEST PUSH1 0x40 MLOAD DUP1 SWAP2 SUB SWAP1 LOG4 POP PUSH1 0x1 PUSH1 0x0 DUP2 SWAP1 SSTORE POP POP POP POP JUMP JUMPDEST PUSH1 0x0 PUSH1 0x3 SLOAD SWAP1 POP SWAP1 JUMP JUMPDEST PUSH1 0x0 DUP2 PUSH1 0x0 ADD SLOAD SWAP1 POP PUSH1 0x0 DUP2 GT PUSH2 0x1907 JUMPI PUSH1 0x40 MLOAD PUSH32 0x8C379A000000000000000000000000000000000000000000000000000000000 DUP2 MSTORE PUSH1 0x4 ADD PUSH2 0x18FE SWAP1 PUSH2 0x1DC5 JUMP JUMPDEST PUSH1 0x40 MLOAD DUP1 SWAP2 SUB SWAP1 REVERT JUMPDEST PUSH1 0x1 DUP2 SUB DUP3 PUSH1 0x0 ADD DUP2 SWAP1 SSTORE POP POP POP JUMP JUMPDEST PUSH1 0x0 DUP2 PUSH1 0x0 ADD SLOAD SWAP1 POP SWAP2 SWAP1 POP JUMP JUMPDEST PUSH1 0x1 DUP2 PUSH1 0x0 ADD PUSH1 0x0 DUP3 DUP3 SLOAD ADD SWAP3 POP POP DUP2 SWAP1 SSTORE POP POP JUMP JUMPDEST PUSH1 0x40 MLOAD DUP1 PUSH1 0xC0 ADD PUSH1 0x40 MSTORE DUP1 PUSH1 0x0 DUP2 MSTORE PUSH1 0x20 ADD PUSH1 0x0 DUP2 MSTORE PUSH1 0x20 ADD PUSH1 0x0 PUSH20 0xFFFFFFFFFFFFFFFFFFFFFFFFFFFFFFFFFFFFFFFF AND DUP2 MSTORE PUSH1 0x20 ADD PUSH1 0x0 PUSH20 0xFFFFFFFFFFFFFFFFFFFFFFFFFFFFFFFFFFFFFFFF AND DUP2 MSTORE PUSH1 0x20 ADD PUSH1 0x0 PUSH20 0xFFFFFFFFFFFFFFFFFFFFFFFFFFFFFFFFFFFFFFFF AND DUP2 MSTORE PUSH1 0x20 ADD PUSH1 0x0 ISZERO ISZERO DUP2 MSTORE POP SWAP1 JUMP JUMPDEST PUSH1 0x0 DUP2 CALLDATALOAD SWAP1 POP PUSH2 0x19C4 DUP2 PUSH2 0x2185 JUMP JUMPDEST SWAP3 SWAP2 POP POP JUMP JUMPDEST PUSH1 0x0 DUP2 MLOAD SWAP1 POP PUSH2 0x19D9 DUP2 PUSH2 0x2185 JUMP JUMPDEST SWAP3 SWAP2 POP POP JUMP JUMPDEST PUSH1 0x0 DUP2 CALLDATALOAD SWAP1 POP PUSH2 0x19EE DUP2 PUSH2 0x219C JUMP JUMPDEST SWAP3 SWAP2 POP POP JUMP JUMPDEST PUSH1 0x0 PUSH1 0x20 DUP3 DUP5 SUB SLT ISZERO PUSH2 0x1A0A JUMPI PUSH2 0x1A09 PUSH2 0x2064 JUMP JUMPDEST JUMPDEST PUSH1 0x0 PUSH2 0x1A18 DUP5 DUP3 DUP6 ADD PUSH2 0x19CA JUMP JUMPDEST SWAP2 POP POP SWAP3 SWAP2 POP POP JUMP JUMPDEST PUSH1 0x0 DUP1 PUSH1 0x40 DUP4 DUP6 SUB SLT ISZERO PUSH2 0x1A38 JUMPI PUSH2 0x1A37 PUSH2 0x2064 JUMP JUMPDEST JUMPDEST PUSH1 0x0 PUSH2 0x1A46 DUP6 DUP3 DUP7 ADD PUSH2 0x19B5 JUMP JUMPDEST SWAP3 POP POP PUSH1 0x20 PUSH2 0x1A57 DUP6 DUP3 DUP7 ADD PUSH2 0x19DF JUMP JUMPDEST SWAP2 POP POP SWAP3 POP SWAP3 SWAP1 POP JUMP JUMPDEST PUSH1 0x0 DUP1 PUSH1 0x0 PUSH1 0x60 DUP5 DUP7 SUB SLT ISZERO PUSH2 0x1A7A JUMPI PUSH2 0x1A79 PUSH2 0x2064 JUMP JUMPDEST JUMPDEST PUSH1 0x0 PUSH2 0x1A88 DUP7 DUP3 DUP8 ADD PUSH2 0x19B5 JUMP JUMPDEST SWAP4 POP POP PUSH1 0x20 PUSH2 0x1A99 DUP7 DUP3 DUP8 ADD PUSH2 0x19DF JUMP JUMPDEST SWAP3 POP POP PUSH1 0x40 PUSH2 0x1AAA DUP7 DUP3 DUP8 ADD PUSH2 0x19DF JUMP JUMPDEST SWAP2 POP POP SWAP3 POP SWAP3 POP SWAP3 JUMP JUMPDEST PUSH1 0x0 PUSH2 0x1AC0 DUP4 DUP4 PUSH2 0x1C38 JUMP JUMPDEST PUSH1 0xC0 DUP4 ADD SWAP1 POP SWAP3 SWAP2 POP POP JUMP JUMPDEST PUSH2 0x1AD5 DUP2 PUSH2 0x1F58 JUMP JUMPDEST DUP3 MSTORE POP POP JUMP JUMPDEST PUSH2 0x1AE4 DUP2 PUSH2 0x1F10 JUMP JUMPDEST DUP3 MSTORE POP POP JUMP JUMPDEST PUSH2 0x1AF3 DUP2 PUSH2 0x1EFE JUMP JUMPDEST DUP3 MSTORE POP POP JUMP JUMPDEST PUSH1 0x0 PUSH2 0x1B04 DUP3 PUSH2 0x1E90 JUMP JUMPDEST PUSH2 0x1B0E DUP2 DUP6 PUSH2 0x1EA8 JUMP JUMPDEST SWAP4 POP PUSH2 0x1B19 DUP4 PUSH2 0x1E80 JUMP JUMPDEST DUP1 PUSH1 0x0 JUMPDEST DUP4 DUP2 LT ISZERO PUSH2 0x1B4A JUMPI DUP2 MLOAD PUSH2 0x1B31 DUP9 DUP3 PUSH2 0x1AB4 JUMP JUMPDEST SWAP8 POP PUSH2 0x1B3C DUP4 PUSH2 0x1E9B JUMP JUMPDEST SWAP3 POP POP PUSH1 0x1 DUP2 ADD SWAP1 POP PUSH2 0x1B1D JUMP JUMPDEST POP DUP6 SWAP4 POP POP POP POP SWAP3 SWAP2 POP POP JUMP JUMPDEST PUSH2 0x1B60 DUP2 PUSH2 0x1F22 JUMP JUMPDEST DUP3 MSTORE POP POP JUMP JUMPDEST PUSH1 0x0 PUSH2 0x1B73 PUSH1 0xD DUP4 PUSH2 0x1EB9 JUMP JUMPDEST SWAP2 POP PUSH2 0x1B7E DUP3 PUSH2 0x2069 JUMP JUMPDEST PUSH1 0x20 DUP3 ADD SWAP1 POP SWAP2 SWAP1 POP JUMP JUMPDEST PUSH1 0x0 PUSH2 0x1B96 PUSH1 0x1B DUP4 PUSH2 0x1EB9 JUMP JUMPDEST SWAP2 POP PUSH2 0x1BA1 DUP3 PUSH2 0x2092 JUMP JUMPDEST PUSH1 0x20 DUP3 ADD SWAP1 POP SWAP2 SWAP1 POP JUMP JUMPDEST PUSH1 0x0 PUSH2 0x1BB9 PUSH1 0x26 DUP4 PUSH2 0x1EB9 JUMP JUMPDEST SWAP2 POP PUSH2 0x1BC4 DUP3 PUSH2 0x20BB JUMP JUMPDEST PUSH1 0x40 DUP3 ADD SWAP1 POP SWAP2 SWAP1 POP JUMP JUMPDEST PUSH1 0x0 PUSH2 0x1BDC PUSH1 0x20 DUP4 PUSH2 0x1EB9 JUMP JUMPDEST SWAP2 POP PUSH2 0x1BE7 DUP3 PUSH2 0x210A JUMP JUMPDEST PUSH1 0x20 DUP3 ADD SWAP1 POP SWAP2 SWAP1 POP JUMP JUMPDEST PUSH1 0x0 PUSH2 0x1BFF PUSH1 0x1F DUP4 PUSH2 0x1EB9 JUMP JUMPDEST SWAP2 POP PUSH2 0x1C0A DUP3 PUSH2 0x2133 JUMP JUMPDEST PUSH1 0x20 DUP3 ADD SWAP1 POP SWAP2 SWAP1 POP JUMP JUMPDEST PUSH1 0x0 PUSH2 0x1C22 PUSH1 0x1C DUP4 PUSH2 0x1EB9 JUMP JUMPDEST SWAP2 POP PUSH2 0x1C2D DUP3 PUSH2 0x215C JUMP JUMPDEST PUSH1 0x20 DUP3 ADD SWAP1 POP SWAP2 SWAP1 POP JUMP JUMPDEST PUSH1 0xC0 DUP3 ADD PUSH1 0x0 DUP3 ADD MLOAD PUSH2 0x1C4E PUSH1 0x0 DUP6 ADD DUP3 PUSH2 0x1CB3 JUMP JUMPDEST POP PUSH1 0x20 DUP3 ADD MLOAD PUSH2 0x1C61 PUSH1 0x20 DUP6 ADD DUP3 PUSH2 0x1CB3 JUMP JUMPDEST POP PUSH1 0x40 DUP3 ADD MLOAD PUSH2 0x1C74 PUSH1 0x40 DUP6 ADD DUP3 PUSH2 0x1ADB JUMP JUMPDEST POP PUSH1 0x60 DUP3 ADD MLOAD PUSH2 0x1C87 PUSH1 0x60 DUP6 ADD DUP3 PUSH2 0x1ADB JUMP JUMPDEST POP PUSH1 0x80 DUP3 ADD MLOAD PUSH2 0x1C9A PUSH1 0x80 DUP6 ADD DUP3 PUSH2 0x1ADB JUMP JUMPDEST POP PUSH1 0xA0 DUP3 ADD MLOAD PUSH2 0x1CAD PUSH1 0xA0 DUP6 ADD DUP3 PUSH2 0x1B57 JUMP JUMPDEST POP POP POP POP JUMP JUMPDEST PUSH2 0x1CBC DUP2 PUSH2 0x1F4E JUMP JUMPDEST DUP3 MSTORE POP POP JUMP JUMPDEST PUSH2 0x1CCB DUP2 PUSH2 0x1F4E JUMP JUMPDEST DUP3 MSTORE POP POP JUMP JUMPDEST PUSH1 0x0 PUSH1 0x20 DUP3 ADD SWAP1 POP PUSH2 0x1CE6 PUSH1 0x0 DUP4 ADD DUP5 PUSH2 0x1AEA JUMP JUMPDEST SWAP3 SWAP2 POP POP JUMP JUMPDEST PUSH1 0x0 PUSH1 0x60 DUP3 ADD SWAP1 POP PUSH2 0x1D01 PUSH1 0x0 DUP4 ADD DUP7 PUSH2 0x1AEA JUMP JUMPDEST PUSH2 0x1D0E PUSH1 0x20 DUP4 ADD DUP6 PUSH2 0x1ACC JUMP JUMPDEST PUSH2 0x1D1B PUSH1 0x40 DUP4 ADD DUP5 PUSH2 0x1CC2 JUMP JUMPDEST SWAP5 SWAP4 POP POP POP POP JUMP JUMPDEST PUSH1 0x0 PUSH1 0x60 DUP3 ADD SWAP1 POP PUSH2 0x1D38 PUSH1 0x0 DUP4 ADD DUP7 PUSH2 0x1AEA JUMP JUMPDEST PUSH2 0x1D45 PUSH1 0x20 DUP4 ADD DUP6 PUSH2 0x1AEA JUMP JUMPDEST PUSH2 0x1D52 PUSH1 0x40 DUP4 ADD DUP5 PUSH2 0x1CC2 JUMP JUMPDEST SWAP5 SWAP4 POP POP POP POP JUMP JUMPDEST PUSH1 0x0 PUSH1 0x40 DUP3 ADD SWAP1 POP PUSH2 0x1D6F PUSH1 0x0 DUP4 ADD DUP6 PUSH2 0x1AEA JUMP JUMPDEST PUSH2 0x1D7C PUSH1 0x20 DUP4 ADD DUP5 PUSH2 0x1CC2 JUMP JUMPDEST SWAP4 SWAP3 POP POP POP JUMP JUMPDEST PUSH1 0x0 PUSH1 0x20 DUP3 ADD SWAP1 POP DUP2 DUP2 SUB PUSH1 0x0 DUP4 ADD MSTORE PUSH2 0x1D9D DUP2 DUP5 PUSH2 0x1AF9 JUMP JUMPDEST SWAP1 POP SWAP3 SWAP2 POP POP JUMP JUMPDEST PUSH1 0x0 PUSH1 0x20 DUP3 ADD SWAP1 POP DUP2 DUP2 SUB PUSH1 0x0 DUP4 ADD MSTORE PUSH2 0x1DBE DUP2 PUSH2 0x1B66 JUMP JUMPDEST SWAP1 POP SWAP2 SWAP1 POP JUMP JUMPDEST PUSH1 0x0 PUSH1 0x20 DUP3 ADD SWAP1 POP DUP2 DUP2 SUB PUSH1 0x0 DUP4 ADD MSTORE PUSH2 0x1DDE DUP2 PUSH2 0x1B89 JUMP JUMPDEST SWAP1 POP SWAP2 SWAP1 POP JUMP JUMPDEST PUSH1 0x0 PUSH1 0x20 DUP3 ADD SWAP1 POP DUP2 DUP2 SUB PUSH1 0x0 DUP4 ADD MSTORE PUSH2 0x1DFE DUP2 PUSH2 0x1BAC JUMP JUMPDEST SWAP1 POP SWAP2 SWAP1 POP JUMP JUMPDEST PUSH1 0x0 PUSH1 0x20 DUP3 ADD SWAP1 POP DUP2 DUP2 SUB PUSH1 0x0 DUP4 ADD MSTORE PUSH2 0x1E1E DUP2 PUSH2 0x1BCF JUMP JUMPDEST SWAP1 POP SWAP2 SWAP1 POP JUMP JUMPDEST PUSH1 0x0 PUSH1 0x20 DUP3 ADD SWAP1 POP DUP2 DUP2 SUB PUSH1 0x0 DUP4 ADD MSTORE PUSH2 0x1E3E DUP2 PUSH2 0x1BF2 JUMP JUMPDEST SWAP1 POP SWAP2 SWAP1 POP JUMP JUMPDEST PUSH1 0x0 PUSH1 0x20 DUP3 ADD SWAP1 POP DUP2 DUP2 SUB PUSH1 0x0 DUP4 ADD MSTORE PUSH2 0x1E5E DUP2 PUSH2 0x1C15 JUMP JUMPDEST SWAP1 POP SWAP2 SWAP1 POP JUMP JUMPDEST PUSH1 0x0 PUSH1 0x20 DUP3 ADD SWAP1 POP PUSH2 0x1E7A PUSH1 0x0 DUP4 ADD DUP5 PUSH2 0x1CC2 JUMP JUMPDEST SWAP3 SWAP2 POP POP JUMP JUMPDEST PUSH1 0x0 DUP2 SWAP1 POP PUSH1 0x20 DUP3 ADD SWAP1 POP SWAP2 SWAP1 POP JUMP JUMPDEST PUSH1 0x0 DUP2 MLOAD SWAP1 POP SWAP2 SWAP1 POP JUMP JUMPDEST PUSH1 0x0 PUSH1 0x20 DUP3 ADD SWAP1 POP SWAP2 SWAP1 POP JUMP JUMPDEST PUSH1 0x0 DUP3 DUP3 MSTORE PUSH1 0x20 DUP3 ADD SWAP1 POP SWAP3 SWAP2 POP POP JUMP JUMPDEST PUSH1 0x0 DUP3 DUP3 MSTORE PUSH1 0x20 DUP3 ADD SWAP1 POP SWAP3 SWAP2 POP POP JUMP JUMPDEST PUSH1 0x0 PUSH2 0x1ED5 DUP3 PUSH2 0x1F4E JUMP JUMPDEST SWAP2 POP PUSH2 0x1EE0 DUP4 PUSH2 0x1F4E JUMP JUMPDEST SWAP3 POP DUP3 DUP3 LT ISZERO PUSH2 0x1EF3 JUMPI PUSH2 0x1EF2 PUSH2 0x1FD7 JUMP JUMPDEST JUMPDEST DUP3 DUP3 SUB SWAP1 POP SWAP3 SWAP2 POP POP JUMP JUMPDEST PUSH1 0x0 PUSH2 0x1F09 DUP3 PUSH2 0x1F2E JUMP JUMPDEST SWAP1 POP SWAP2 SWAP1 POP JUMP JUMPDEST PUSH1 0x0 PUSH2 0x1F1B DUP3 PUSH2 0x1F2E JUMP JUMPDEST SWAP1 POP SWAP2 SWAP1 POP JUMP JUMPDEST PUSH1 0x0 DUP2 ISZERO ISZERO SWAP1 POP SWAP2 SWAP1 POP JUMP JUMPDEST PUSH1 0x0 PUSH20 0xFFFFFFFFFFFFFFFFFFFFFFFFFFFFFFFFFFFFFFFF DUP3 AND SWAP1 POP SWAP2 SWAP1 POP JUMP JUMPDEST PUSH1 0x0 DUP2 SWAP1 POP SWAP2 SWAP1 POP JUMP JUMPDEST PUSH1 0x0 PUSH2 0x1F63 DUP3 PUSH2 0x1F6A JUMP JUMPDEST SWAP1 POP SWAP2 SWAP1 POP JUMP JUMPDEST PUSH1 0x0 PUSH2 0x1F75 DUP3 PUSH2 0x1F7C JUMP JUMPDEST SWAP1 POP SWAP2 SWAP1 POP JUMP JUMPDEST PUSH1 0x0 PUSH2 0x1F87 DUP3 PUSH2 0x1F2E JUMP JUMPDEST SWAP1 POP SWAP2 SWAP1 POP JUMP JUMPDEST PUSH1 0x0 PUSH2 0x1F99 DUP3 PUSH2 0x1F4E JUMP JUMPDEST SWAP2 POP PUSH32 0xFFFFFFFFFFFFFFFFFFFFFFFFFFFFFFFFFFFFFFFFFFFFFFFFFFFFFFFFFFFFFFFF DUP3 EQ ISZERO PUSH2 0x1FCC JUMPI PUSH2 0x1FCB PUSH2 0x1FD7 JUMP JUMPDEST JUMPDEST PUSH1 0x1 DUP3 ADD SWAP1 POP SWAP2 SWAP1 POP JUMP JUMPDEST PUSH32 0x4E487B7100000000000000000000000000000000000000000000000000000000 PUSH1 0x0 MSTORE PUSH1 0x11 PUSH1 0x4 MSTORE PUSH1 0x24 PUSH1 0x0 REVERT JUMPDEST PUSH32 0x4E487B7100000000000000000000000000000000000000000000000000000000 PUSH1 0x0 MSTORE PUSH1 0x32 PUSH1 0x4 MSTORE PUSH1 0x24 PUSH1 0x0 REVERT JUMPDEST PUSH32 0x4E487B7100000000000000000000000000000000000000000000000000000000 PUSH1 0x0 MSTORE PUSH1 0x41 PUSH1 0x4 MSTORE PUSH1 0x24 PUSH1 0x0 REVERT JUMPDEST PUSH1 0x0 DUP1 REVERT JUMPDEST PUSH32 0x4E4654206E6F7420666F756E6400000000000000000000000000000000000000 PUSH1 0x0 DUP3 ADD MSTORE POP JUMP JUMPDEST PUSH32 0x436F756E7465723A2064656372656D656E74206F766572666C6F770000000000 PUSH1 0x0 DUP3 ADD MSTORE POP JUMP JUMPDEST PUSH32 0x4E6F7420656E6F75676820657468657220746F20636F7665722061736B696E67 PUSH1 0x0 DUP3 ADD MSTORE PUSH32 0x2070726963650000000000000000000000000000000000000000000000000000 PUSH1 0x20 DUP3 ADD MSTORE POP JUMP JUMPDEST PUSH32 0x4E6F7420656E6F75676820657468657220666F72206C697374696E6720666565 PUSH1 0x0 DUP3 ADD MSTORE POP JUMP JUMPDEST PUSH32 0x5265656E7472616E637947756172643A207265656E7472616E742063616C6C00 PUSH1 0x0 DUP3 ADD MSTORE POP JUMP JUMPDEST PUSH32 0x5072696365206D757374206265206174206C6561737420312077656900000000 PUSH1 0x0 DUP3 ADD MSTORE POP JUMP JUMPDEST PUSH2 0x218E DUP2 PUSH2 0x1EFE JUMP JUMPDEST DUP2 EQ PUSH2 0x2199 JUMPI PUSH1 0x0 DUP1 REVERT JUMPDEST POP JUMP JUMPDEST PUSH2 0x21A5 DUP2 PUSH2 0x1F4E JUMP JUMPDEST DUP2 EQ PUSH2 0x21B0 JUMPI PUSH1 0x0 DUP1 REVERT JUMPDEST POP JUMP INVALID LOG2 PUSH5 0x6970667358 0x22 SLT KECCAK256 0xD8 0xAD 0xA6 0x4A 0xBB ISZERO 0xBE 0xAF GASPRICE DUP9 PUSH15 0x6156C1CFB33179D07D6A86EFBE2F77 PUSH6 0x5DFEBBD7E764 PUSH20 0x6F6C634300080700330000000000000000000000 "
				},
				"gasEstimates": {
					"creation": {
						"codeDepositCost": "1736200",
						"executionCost": "70313",
						"totalCost": "1806513"
					},
					"external": {
						"LISTING_FEE()": "2474",
						"buyNft(address,uint256)": "infinite",
						"getListedNfts()": "infinite",
						"getListingFee()": "2525",
						"getMyCreatedNfts()": "infinite",
						"getMyListedNfts()": "infinite",
						"getMyOwnedNfts()": "infinite",
						"getOwner(address,uint256)": "infinite",
						"listNFT(address,uint256,uint256)": "infinite",
						"resellNFT(address,uint256,uint256)": "infinite"
					}
				},
				"methodIdentifiers": {
					"LISTING_FEE()": "2b86ae38",
					"buyNft(address,uint256)": "4ddf4f8f",
					"getListedNfts()": "8d6cb3fb",
					"getListingFee()": "b8fe6abe",
					"getMyCreatedNfts()": "8492095a",
					"getMyListedNfts()": "1f4cc4db",
					"getMyOwnedNfts()": "a46b5c5a",
					"getOwner(address,uint256)": "2f634a90",
					"listNFT(address,uint256,uint256)": "ad05f1b4",
					"resellNFT(address,uint256,uint256)": "04935694"
				}
			},
			"storageLayout": {
				"storage": [
					{
						"astId": 854,
						"contract": "contracts/GeekNftMarketPlace.sol:GeekNftMarketPlace",
						"label": "_status",
						"offset": 0,
						"slot": "0",
						"type": "t_uint256"
					},
					{
						"astId": 103,
						"contract": "contracts/GeekNftMarketPlace.sol:GeekNftMarketPlace",
						"label": "_nftsSold",
						"offset": 0,
						"slot": "1",
						"type": "t_struct(Counter)5_storage"
					},
					{
						"astId": 106,
						"contract": "contracts/GeekNftMarketPlace.sol:GeekNftMarketPlace",
						"label": "_nftsCount",
						"offset": 0,
						"slot": "2",
						"type": "t_struct(Counter)5_storage"
					},
					{
						"astId": 109,
						"contract": "contracts/GeekNftMarketPlace.sol:GeekNftMarketPlace",
						"label": "LISTING_FEE",
						"offset": 0,
						"slot": "3",
						"type": "t_uint256"
					},
					{
						"astId": 111,
						"contract": "contracts/GeekNftMarketPlace.sol:GeekNftMarketPlace",
						"label": "_marketOwwner",
						"offset": 0,
						"slot": "4",
						"type": "t_address_payable"
					},
					{
						"astId": 116,
						"contract": "contracts/GeekNftMarketPlace.sol:GeekNftMarketPlace",
						"label": "_idToNFT",
						"offset": 0,
						"slot": "5",
						"type": "t_mapping(t_uint256,t_struct(NFT)129_storage)"
					}
				],
				"types": {
					"t_address_payable": {
						"encoding": "inplace",
						"label": "address payable",
						"numberOfBytes": "20"
					},
					"t_bool": {
						"encoding": "inplace",
						"label": "bool",
						"numberOfBytes": "1"
					},
					"t_mapping(t_uint256,t_struct(NFT)129_storage)": {
						"encoding": "mapping",
						"key": "t_uint256",
						"label": "mapping(uint256 => struct GeekNftMarketPlace.NFT)",
						"numberOfBytes": "32",
						"value": "t_struct(NFT)129_storage"
					},
					"t_struct(Counter)5_storage": {
						"encoding": "inplace",
						"label": "struct Counters.Counter",
						"members": [
							{
								"astId": 4,
								"contract": "contracts/GeekNftMarketPlace.sol:GeekNftMarketPlace",
								"label": "_value",
								"offset": 0,
								"slot": "0",
								"type": "t_uint256"
							}
						],
						"numberOfBytes": "32"
					},
					"t_struct(NFT)129_storage": {
						"encoding": "inplace",
						"label": "struct GeekNftMarketPlace.NFT",
						"members": [
							{
								"astId": 118,
								"contract": "contracts/GeekNftMarketPlace.sol:GeekNftMarketPlace",
								"label": "tokenId",
								"offset": 0,
								"slot": "0",
								"type": "t_uint256"
							},
							{
								"astId": 120,
								"contract": "contracts/GeekNftMarketPlace.sol:GeekNftMarketPlace",
								"label": "price",
								"offset": 0,
								"slot": "1",
								"type": "t_uint256"
							},
							{
								"astId": 122,
								"contract": "contracts/GeekNftMarketPlace.sol:GeekNftMarketPlace",
								"label": "seller",
								"offset": 0,
								"slot": "2",
								"type": "t_address_payable"
							},
							{
								"astId": 124,
								"contract": "contracts/GeekNftMarketPlace.sol:GeekNftMarketPlace",
								"label": "owner",
								"offset": 0,
								"slot": "3",
								"type": "t_address_payable"
							},
							{
								"astId": 126,
								"contract": "contracts/GeekNftMarketPlace.sol:GeekNftMarketPlace",
								"label": "creator",
								"offset": 0,
								"slot": "4",
								"type": "t_address_payable"
							},
							{
								"astId": 128,
								"contract": "contracts/GeekNftMarketPlace.sol:GeekNftMarketPlace",
								"label": "listed",
								"offset": 20,
								"slot": "4",
								"type": "t_bool"
							}
						],
						"numberOfBytes": "160"
					},
					"t_uint256": {
						"encoding": "inplace",
						"label": "uint256",
						"numberOfBytes": "32"
					}
				}
			},
			"userdoc": {
				"kind": "user",
				"methods": {},
				"version": 1
			}
		}
	}
}