{
	"contracts/GeekNft.sol": {
		"GeekNft": {
			"abi": [
				{
					"inputs": [],
					"stateMutability": "nonpayable",
					"type": "constructor"
				},
				{
					"anonymous": false,
					"inputs": [
						{
							"indexed": true,
							"internalType": "address",
							"name": "_from",
							"type": "address"
						},
						{
							"indexed": true,
							"internalType": "address",
							"name": "_to",
							"type": "address"
						},
						{
							"indexed": false,
							"internalType": "uint256",
							"name": "_tokenId",
							"type": "uint256"
						}
					],
					"name": "Transfer",
					"type": "event"
				},
				{
					"inputs": [
						{
							"internalType": "uint256",
							"name": "_tokenId",
							"type": "uint256"
						}
					],
					"name": "addItemToSell",
					"outputs": [],
					"stateMutability": "nonpayable",
					"type": "function"
				},
				{
					"inputs": [
						{
							"internalType": "address",
							"name": "_owner",
							"type": "address"
						}
					],
					"name": "balanceOf",
					"outputs": [
						{
							"internalType": "uint256",
							"name": "",
							"type": "uint256"
						}
					],
					"stateMutability": "view",
					"type": "function"
				},
				{
					"inputs": [
						{
							"internalType": "uint256",
							"name": "_price",
							"type": "uint256"
						},
						{
							"internalType": "uint256",
							"name": "_catId",
							"type": "uint256"
						}
					],
					"name": "createItem",
					"outputs": [
						{
							"internalType": "uint256",
							"name": "",
							"type": "uint256"
						}
					],
					"stateMutability": "nonpayable",
					"type": "function"
				},
				{
					"inputs": [],
					"name": "fetchItemsToSell",
					"outputs": [
						{
							"components": [
								{
									"internalType": "uint256",
									"name": "tokenId",
									"type": "uint256"
								},
								{
									"internalType": "uint256",
									"name": "price",
									"type": "uint256"
								},
								{
									"internalType": "uint256",
									"name": "catId",
									"type": "uint256"
								},
								{
									"internalType": "bool",
									"name": "toSell",
									"type": "bool"
								}
							],
							"internalType": "struct GeekNft.Item[]",
							"name": "",
							"type": "tuple[]"
						}
					],
					"stateMutability": "view",
					"type": "function"
				},
				{
					"inputs": [],
					"name": "getFeesPercentage",
					"outputs": [
						{
							"internalType": "uint256",
							"name": "",
							"type": "uint256"
						}
					],
					"stateMutability": "view",
					"type": "function"
				},
				{
					"inputs": [
						{
							"internalType": "uint256",
							"name": "",
							"type": "uint256"
						}
					],
					"name": "itemToOwner",
					"outputs": [
						{
							"internalType": "address",
							"name": "",
							"type": "address"
						}
					],
					"stateMutability": "view",
					"type": "function"
				},
				{
					"inputs": [
						{
							"internalType": "uint256",
							"name": "",
							"type": "uint256"
						}
					],
					"name": "items",
					"outputs": [
						{
							"internalType": "uint256",
							"name": "tokenId",
							"type": "uint256"
						},
						{
							"internalType": "uint256",
							"name": "price",
							"type": "uint256"
						},
						{
							"internalType": "uint256",
							"name": "catId",
							"type": "uint256"
						},
						{
							"internalType": "bool",
							"name": "toSell",
							"type": "bool"
						}
					],
					"stateMutability": "view",
					"type": "function"
				},
				{
					"inputs": [
						{
							"internalType": "uint256",
							"name": "",
							"type": "uint256"
						}
					],
					"name": "itemsCatIdCount",
					"outputs": [
						{
							"internalType": "uint256",
							"name": "",
							"type": "uint256"
						}
					],
					"stateMutability": "view",
					"type": "function"
				},
				{
					"inputs": [
						{
							"internalType": "address",
							"name": "",
							"type": "address"
						}
					],
					"name": "itemsOwnerCount",
					"outputs": [
						{
							"internalType": "uint256",
							"name": "",
							"type": "uint256"
						}
					],
					"stateMutability": "view",
					"type": "function"
				},
				{
					"inputs": [],
					"name": "itemsToSellCount",
					"outputs": [
						{
							"internalType": "uint256",
							"name": "",
							"type": "uint256"
						}
					],
					"stateMutability": "view",
					"type": "function"
				},
				{
					"inputs": [
						{
							"internalType": "uint256",
							"name": "_newPercentage",
							"type": "uint256"
						}
					],
					"name": "modifyFeesPercentage",
					"outputs": [],
					"stateMutability": "nonpayable",
					"type": "function"
				},
				{
					"inputs": [
						{
							"internalType": "uint256",
							"name": "_tokenId",
							"type": "uint256"
						}
					],
					"name": "ownerOf",
					"outputs": [
						{
							"internalType": "address",
							"name": "",
							"type": "address"
						}
					],
					"stateMutability": "view",
					"type": "function"
				},
				{
					"inputs": [
						{
							"internalType": "uint256",
							"name": "_tokenId",
							"type": "uint256"
						}
					],
					"name": "removeItemToSell",
					"outputs": [],
					"stateMutability": "nonpayable",
					"type": "function"
				},
				{
					"inputs": [
						{
							"internalType": "uint256",
							"name": "_tokenId",
							"type": "uint256"
						}
					],
					"name": "sellItem",
					"outputs": [],
					"stateMutability": "payable",
					"type": "function"
				}
			],
			"devdoc": {
				"kind": "dev",
				"methods": {},
				"version": 1
			},
			"evm": {
				"assembly": "    /* \"contracts/GeekNft.sol\":56:3996  contract GeekNft {... */\n  mstore(0x40, 0x80)\n    /* \"contracts/GeekNft.sol\":558:663  constructor() {... */\n  callvalue\n  dup1\n  iszero\n  tag_1\n  jumpi\n  0x00\n  dup1\n  revert\ntag_1:\n  pop\n    /* \"contracts/GeekNft.sol\":590:600  msg.sender */\n  caller\n    /* \"contracts/GeekNft.sol\":582:587  owner */\n  0x02\n  0x00\n    /* \"contracts/GeekNft.sol\":582:600  owner = msg.sender */\n  0x0100\n  exp\n  dup2\n  sload\n  dup2\n  0xffffffffffffffffffffffffffffffffffffffff\n  mul\n  not\n  and\n  swap1\n  dup4\n  0xffffffffffffffffffffffffffffffffffffffff\n  and\n  mul\n  or\n  swap1\n  sstore\n  pop\n    /* \"contracts/GeekNft.sol\":610:630  name = \"Geek Tokens\" */\n  mload(0x40)\n  dup1\n  0x40\n  add\n  0x40\n  mstore\n  dup1\n  0x0b\n  dup2\n  mstore\n  0x20\n  add\n  0x4765656b20546f6b656e73000000000000000000000000000000000000000000\n  dup2\n  mstore\n  pop\n    /* \"contracts/GeekNft.sol\":610:614  name */\n  0x00\n    /* \"contracts/GeekNft.sol\":610:630  name = \"Geek Tokens\" */\n  swap1\n  dup1\n  mload\n  swap1\n  0x20\n  add\n  swap1\n  tag_4\n  swap3\n  swap2\n  swap1\n  tag_5\n  jump\t// in\ntag_4:\n  pop\n    /* \"contracts/GeekNft.sol\":640:656  symbol = \"GEEKT\" */\n  mload(0x40)\n  dup1\n  0x40\n  add\n  0x40\n  mstore\n  dup1\n  0x05\n  dup2\n  mstore\n  0x20\n  add\n  0x4745454b54000000000000000000000000000000000000000000000000000000\n  dup2\n  mstore\n  pop\n    /* \"contracts/GeekNft.sol\":640:646  symbol */\n  0x01\n    /* \"contracts/GeekNft.sol\":640:656  symbol = \"GEEKT\" */\n  swap1\n  dup1\n  mload\n  swap1\n  0x20\n  add\n  swap1\n  tag_6\n  swap3\n  swap2\n  swap1\n  tag_5\n  jump\t// in\ntag_6:\n  pop\n    /* \"contracts/GeekNft.sol\":56:3996  contract GeekNft {... */\n  jump(tag_7)\ntag_5:\n  dup3\n  dup1\n  sload\n  tag_8\n  swap1\n  tag_9\n  jump\t// in\ntag_8:\n  swap1\n  0x00\n  mstore\n  keccak256(0x00, 0x20)\n  swap1\n  0x1f\n  add\n  0x20\n  swap1\n  div\n  dup2\n  add\n  swap3\n  dup3\n  tag_11\n  jumpi\n  0x00\n  dup6\n  sstore\n  jump(tag_10)\ntag_11:\n  dup3\n  0x1f\n  lt\n  tag_12\n  jumpi\n  dup1\n  mload\n  not(0xff)\n  and\n  dup4\n  dup1\n  add\n  or\n  dup6\n  sstore\n  jump(tag_10)\ntag_12:\n  dup3\n  dup1\n  add\n  0x01\n  add\n  dup6\n  sstore\n  dup3\n  iszero\n  tag_10\n  jumpi\n  swap2\n  dup3\n  add\ntag_13:\n  dup3\n  dup2\n  gt\n  iszero\n  tag_14\n  jumpi\n  dup3\n  mload\n  dup3\n  sstore\n  swap2\n  0x20\n  add\n  swap2\n  swap1\n  0x01\n  add\n  swap1\n  jump(tag_13)\ntag_14:\ntag_10:\n  pop\n  swap1\n  pop\n  tag_15\n  swap2\n  swap1\n  tag_16\n  jump\t// in\ntag_15:\n  pop\n  swap1\n  jump\t// out\ntag_16:\ntag_17:\n  dup1\n  dup3\n  gt\n  iszero\n  tag_18\n  jumpi\n  0x00\n  dup2\n  0x00\n  swap1\n  sstore\n  pop\n  0x01\n  add\n  jump(tag_17)\ntag_18:\n  pop\n  swap1\n  jump\t// out\n    /* \"#utility.yul\":7:327   */\ntag_9:\n  0x00\n    /* \"#utility.yul\":88:89   */\n  0x02\n    /* \"#utility.yul\":82:86   */\n  dup3\n    /* \"#utility.yul\":78:90   */\n  div\n    /* \"#utility.yul\":68:90   */\n  swap1\n  pop\n    /* \"#utility.yul\":135:136   */\n  0x01\n    /* \"#utility.yul\":129:133   */\n  dup3\n    /* \"#utility.yul\":125:137   */\n  and\n    /* \"#utility.yul\":156:174   */\n  dup1\n    /* \"#utility.yul\":146:148   */\n  tag_21\n  jumpi\n    /* \"#utility.yul\":212:216   */\n  0x7f\n    /* \"#utility.yul\":204:210   */\n  dup3\n    /* \"#utility.yul\":200:217   */\n  and\n    /* \"#utility.yul\":190:217   */\n  swap2\n  pop\n    /* \"#utility.yul\":146:148   */\ntag_21:\n    /* \"#utility.yul\":274:276   */\n  0x20\n    /* \"#utility.yul\":266:272   */\n  dup3\n    /* \"#utility.yul\":263:277   */\n  lt\n    /* \"#utility.yul\":243:261   */\n  dup2\n    /* \"#utility.yul\":240:278   */\n  eq\n    /* \"#utility.yul\":237:239   */\n  iszero\n  tag_22\n  jumpi\n    /* \"#utility.yul\":293:311   */\n  tag_23\n  tag_24\n  jump\t// in\ntag_23:\n    /* \"#utility.yul\":237:239   */\ntag_22:\n    /* \"#utility.yul\":58:327   */\n  pop\n  swap2\n  swap1\n  pop\n  jump\t// out\n    /* \"#utility.yul\":333:513   */\ntag_24:\n    /* \"#utility.yul\":381:458   */\n  0x4e487b7100000000000000000000000000000000000000000000000000000000\n    /* \"#utility.yul\":378:379   */\n  0x00\n    /* \"#utility.yul\":371:459   */\n  mstore\n    /* \"#utility.yul\":478:482   */\n  0x22\n    /* \"#utility.yul\":475:476   */\n  0x04\n    /* \"#utility.yul\":468:483   */\n  mstore\n    /* \"#utility.yul\":502:506   */\n  0x24\n    /* \"#utility.yul\":499:500   */\n  0x00\n    /* \"#utility.yul\":492:507   */\n  revert\n    /* \"contracts/GeekNft.sol\":56:3996  contract GeekNft {... */\ntag_7:\n  dataSize(sub_0)\n  dup1\n  dataOffset(sub_0)\n  0x00\n  codecopy\n  0x00\n  return\nstop\n\nsub_0: assembly {\n        /* \"contracts/GeekNft.sol\":56:3996  contract GeekNft {... */\n      mstore(0x40, 0x80)\n      jumpi(tag_1, lt(calldatasize, 0x04))\n      shr(0xe0, calldataload(0x00))\n      dup1\n      0xa4964c33\n      gt\n      tag_16\n      jumpi\n      dup1\n      0xc0f202ef\n      gt\n      tag_17\n      jumpi\n      dup1\n      0xc0f202ef\n      eq\n      tag_12\n      jumpi\n      dup1\n      0xc3921895\n      eq\n      tag_13\n      jumpi\n      dup1\n      0xd48644bd\n      eq\n      tag_14\n      jumpi\n      dup1\n      0xea0ff14a\n      eq\n      tag_15\n      jumpi\n      jump(tag_1)\n    tag_17:\n      dup1\n      0xa4964c33\n      eq\n      tag_9\n      jumpi\n      dup1\n      0xadae08dd\n      eq\n      tag_10\n      jumpi\n      dup1\n      0xbfb231d2\n      eq\n      tag_11\n      jumpi\n      jump(tag_1)\n    tag_16:\n      dup1\n      0x4c389e65\n      gt\n      tag_18\n      jumpi\n      dup1\n      0x4c389e65\n      eq\n      tag_5\n      jumpi\n      dup1\n      0x6352211e\n      eq\n      tag_6\n      jumpi\n      dup1\n      0x70a08231\n      eq\n      tag_7\n      jumpi\n      dup1\n      0x91b6be9a\n      eq\n      tag_8\n      jumpi\n      jump(tag_1)\n    tag_18:\n      dup1\n      0x073e74df\n      eq\n      tag_2\n      jumpi\n      dup1\n      0x1a4d96cd\n      eq\n      tag_3\n      jumpi\n      dup1\n      0x29de6246\n      eq\n      tag_4\n      jumpi\n    tag_1:\n      0x00\n      dup1\n      revert\n        /* \"contracts/GeekNft.sol\":3333:3700  function fetchItemsToSell() public view returns (Item[] memory){... */\n    tag_2:\n      callvalue\n      dup1\n      iszero\n      tag_19\n      jumpi\n      0x00\n      dup1\n      revert\n    tag_19:\n      pop\n      tag_20\n      tag_21\n      jump\t// in\n    tag_20:\n      mload(0x40)\n      tag_22\n      swap2\n      swap1\n      tag_23\n      jump\t// in\n    tag_22:\n      mload(0x40)\n      dup1\n      swap2\n      sub\n      swap1\n      return\n        /* \"contracts/GeekNft.sol\":405:448  mapping(uint => address) public itemToOwner */\n    tag_3:\n      callvalue\n      dup1\n      iszero\n      tag_24\n      jumpi\n      0x00\n      dup1\n      revert\n    tag_24:\n      pop\n      tag_25\n      0x04\n      dup1\n      calldatasize\n      sub\n      dup2\n      add\n      swap1\n      tag_26\n      swap2\n      swap1\n      tag_27\n      jump\t// in\n    tag_26:\n      tag_28\n      jump\t// in\n    tag_25:\n      mload(0x40)\n      tag_29\n      swap2\n      swap1\n      tag_30\n      jump\t// in\n    tag_29:\n      mload(0x40)\n      dup1\n      swap2\n      sub\n      swap1\n      return\n        /* \"contracts/GeekNft.sol\":946:1069  function modifyFeesPercentage(uint _newPercentage) public onlyContractOwner{... */\n    tag_4:\n      callvalue\n      dup1\n      iszero\n      tag_31\n      jumpi\n      0x00\n      dup1\n      revert\n    tag_31:\n      pop\n      tag_32\n      0x04\n      dup1\n      calldatasize\n      sub\n      dup2\n      add\n      swap1\n      tag_33\n      swap2\n      swap1\n      tag_27\n      jump\t// in\n    tag_33:\n      tag_34\n      jump\t// in\n    tag_32:\n      stop\n        /* \"contracts/GeekNft.sol\":346:374  uint public itemsToSellCount */\n    tag_5:\n      callvalue\n      dup1\n      iszero\n      tag_35\n      jumpi\n      0x00\n      dup1\n      revert\n    tag_35:\n      pop\n      tag_36\n      tag_37\n      jump\t// in\n    tag_36:\n      mload(0x40)\n      tag_38\n      swap2\n      swap1\n      tag_39\n      jump\t// in\n    tag_38:\n      mload(0x40)\n      dup1\n      swap2\n      sub\n      swap1\n      return\n        /* \"contracts/GeekNft.sol\":2513:2619  function ownerOf(uint _tokenId) public view returns (address){... */\n    tag_6:\n      callvalue\n      dup1\n      iszero\n      tag_40\n      jumpi\n      0x00\n      dup1\n      revert\n    tag_40:\n      pop\n      tag_41\n      0x04\n      dup1\n      calldatasize\n      sub\n      dup2\n      add\n      swap1\n      tag_42\n      swap2\n      swap1\n      tag_27\n      jump\t// in\n    tag_42:\n      tag_43\n      jump\t// in\n    tag_41:\n      mload(0x40)\n      tag_44\n      swap2\n      swap1\n      tag_30\n      jump\t// in\n    tag_44:\n      mload(0x40)\n      dup1\n      swap2\n      sub\n      swap1\n      return\n        /* \"contracts/GeekNft.sol\":2625:2733  function balanceOf(address _owner) public view returns (uint){... */\n    tag_7:\n      callvalue\n      dup1\n      iszero\n      tag_45\n      jumpi\n      0x00\n      dup1\n      revert\n    tag_45:\n      pop\n      tag_46\n      0x04\n      dup1\n      calldatasize\n      sub\n      dup2\n      add\n      swap1\n      tag_47\n      swap2\n      swap1\n      tag_48\n      jump\t// in\n    tag_47:\n      tag_49\n      jump\t// in\n    tag_46:\n      mload(0x40)\n      tag_50\n      swap2\n      swap1\n      tag_39\n      jump\t// in\n    tag_50:\n      mload(0x40)\n      dup1\n      swap2\n      sub\n      swap1\n      return\n        /* \"contracts/GeekNft.sol\":1721:2507  function sellItem(uint _tokenId) public payable{... */\n    tag_8:\n      tag_51\n      0x04\n      dup1\n      calldatasize\n      sub\n      dup2\n      add\n      swap1\n      tag_52\n      swap2\n      swap1\n      tag_27\n      jump\t// in\n    tag_52:\n      tag_53\n      jump\t// in\n    tag_51:\n      stop\n        /* \"contracts/GeekNft.sol\":2739:3068  function removeItemToSell(uint _tokenId) public onlyItemOwner(_tokenId) {... */\n    tag_9:\n      callvalue\n      dup1\n      iszero\n      tag_54\n      jumpi\n      0x00\n      dup1\n      revert\n    tag_54:\n      pop\n      tag_55\n      0x04\n      dup1\n      calldatasize\n      sub\n      dup2\n      add\n      swap1\n      tag_56\n      swap2\n      swap1\n      tag_27\n      jump\t// in\n    tag_56:\n      tag_57\n      jump\t// in\n    tag_55:\n      stop\n        /* \"contracts/GeekNft.sol\":1175:1715  function createItem(uint _price, uint _catId) public returns (uint){... */\n    tag_10:\n      callvalue\n      dup1\n      iszero\n      tag_58\n      jumpi\n      0x00\n      dup1\n      revert\n    tag_58:\n      pop\n      tag_59\n      0x04\n      dup1\n      calldatasize\n      sub\n      dup2\n      add\n      swap1\n      tag_60\n      swap2\n      swap1\n      tag_61\n      jump\t// in\n    tag_60:\n      tag_62\n      jump\t// in\n    tag_59:\n      mload(0x40)\n      tag_63\n      swap2\n      swap1\n      tag_39\n      jump\t// in\n    tag_63:\n      mload(0x40)\n      dup1\n      swap2\n      sub\n      swap1\n      return\n        /* \"contracts/GeekNft.sol\":321:340  Item[] public items */\n    tag_11:\n      callvalue\n      dup1\n      iszero\n      tag_64\n      jumpi\n      0x00\n      dup1\n      revert\n    tag_64:\n      pop\n      tag_65\n      0x04\n      dup1\n      calldatasize\n      sub\n      dup2\n      add\n      swap1\n      tag_66\n      swap2\n      swap1\n      tag_27\n      jump\t// in\n    tag_66:\n      tag_67\n      jump\t// in\n    tag_65:\n      mload(0x40)\n      tag_68\n      swap5\n      swap4\n      swap3\n      swap2\n      swap1\n      tag_69\n      jump\t// in\n    tag_68:\n      mload(0x40)\n      dup1\n      swap2\n      sub\n      swap1\n      return\n        /* \"contracts/GeekNft.sol\":3074:3327  function addItemToSell(uint _tokenId) public onlyItemOwner(_tokenId) {... */\n    tag_12:\n      callvalue\n      dup1\n      iszero\n      tag_70\n      jumpi\n      0x00\n      dup1\n      revert\n    tag_70:\n      pop\n      tag_71\n      0x04\n      dup1\n      calldatasize\n      sub\n      dup2\n      add\n      swap1\n      tag_72\n      swap2\n      swap1\n      tag_27\n      jump\t// in\n    tag_72:\n      tag_73\n      jump\t// in\n    tag_71:\n      stop\n        /* \"contracts/GeekNft.sol\":454:501  mapping(address => uint) public itemsOwnerCount */\n    tag_13:\n      callvalue\n      dup1\n      iszero\n      tag_74\n      jumpi\n      0x00\n      dup1\n      revert\n    tag_74:\n      pop\n      tag_75\n      0x04\n      dup1\n      calldatasize\n      sub\n      dup2\n      add\n      swap1\n      tag_76\n      swap2\n      swap1\n      tag_48\n      jump\t// in\n    tag_76:\n      tag_77\n      jump\t// in\n    tag_75:\n      mload(0x40)\n      tag_78\n      swap2\n      swap1\n      tag_39\n      jump\t// in\n    tag_78:\n      mload(0x40)\n      dup1\n      swap2\n      sub\n      swap1\n      return\n        /* \"contracts/GeekNft.sol\":507:551  mapping(uint => uint) public itemsCatIdCount */\n    tag_14:\n      callvalue\n      dup1\n      iszero\n      tag_79\n      jumpi\n      0x00\n      dup1\n      revert\n    tag_79:\n      pop\n      tag_80\n      0x04\n      dup1\n      calldatasize\n      sub\n      dup2\n      add\n      swap1\n      tag_81\n      swap2\n      swap1\n      tag_27\n      jump\t// in\n    tag_81:\n      tag_82\n      jump\t// in\n    tag_80:\n      mload(0x40)\n      tag_83\n      swap2\n      swap1\n      tag_39\n      jump\t// in\n    tag_83:\n      mload(0x40)\n      dup1\n      swap2\n      sub\n      swap1\n      return\n        /* \"contracts/GeekNft.sol\":1075:1169  function getFeesPercentage() public view returns (uint) {... */\n    tag_15:\n      callvalue\n      dup1\n      iszero\n      tag_84\n      jumpi\n      0x00\n      dup1\n      revert\n    tag_84:\n      pop\n      tag_85\n      tag_86\n      jump\t// in\n    tag_85:\n      mload(0x40)\n      tag_87\n      swap2\n      swap1\n      tag_39\n      jump\t// in\n    tag_87:\n      mload(0x40)\n      dup1\n      swap2\n      sub\n      swap1\n      return\n        /* \"contracts/GeekNft.sol\":3333:3700  function fetchItemsToSell() public view returns (Item[] memory){... */\n    tag_21:\n        /* \"contracts/GeekNft.sol\":3382:3395  Item[] memory */\n      0x60\n        /* \"contracts/GeekNft.sol\":3406:3418  uint counter */\n      0x00\n        /* \"contracts/GeekNft.sol\":3432:3452  Item[] memory result */\n      dup1\n        /* \"contracts/GeekNft.sol\":3466:3482  itemsToSellCount */\n      sload(0x04)\n        /* \"contracts/GeekNft.sol\":3455:3483  new Item[](itemsToSellCount) */\n      0xffffffffffffffff\n      dup2\n      gt\n      iszero\n      tag_89\n      jumpi\n      mstore(0x00, 0x4e487b7100000000000000000000000000000000000000000000000000000000)\n      mstore(0x04, 0x41)\n      revert(0x00, 0x24)\n    tag_89:\n      mload(0x40)\n      swap1\n      dup1\n      dup3\n      mstore\n      dup1\n      0x20\n      mul\n      0x20\n      add\n      dup3\n      add\n      0x40\n      mstore\n      dup1\n      iszero\n      tag_90\n      jumpi\n      dup2\n      0x20\n      add\n    tag_91:\n      tag_92\n      tag_93\n      jump\t// in\n    tag_92:\n      dup2\n      mstore\n      0x20\n      add\n      swap1\n      0x01\n      swap1\n      sub\n      swap1\n      dup2\n      tag_91\n      jumpi\n      swap1\n      pop\n    tag_90:\n      pop\n        /* \"contracts/GeekNft.sol\":3432:3483  Item[] memory result = new Item[](itemsToSellCount) */\n      swap1\n      pop\n        /* \"contracts/GeekNft.sol\":3498:3504  uint i */\n      0x00\n        /* \"contracts/GeekNft.sol\":3494:3670  for(uint i = 0; i < items.length; i++) {... */\n    tag_94:\n        /* \"contracts/GeekNft.sol\":3514:3519  items */\n      0x03\n        /* \"contracts/GeekNft.sol\":3514:3526  items.length */\n      dup1\n      sload\n      swap1\n      pop\n        /* \"contracts/GeekNft.sol\":3510:3511  i */\n      dup2\n        /* \"contracts/GeekNft.sol\":3510:3526  i < items.length */\n      lt\n        /* \"contracts/GeekNft.sol\":3494:3670  for(uint i = 0; i < items.length; i++) {... */\n      iszero\n      tag_95\n      jumpi\n        /* \"contracts/GeekNft.sol\":3569:3573  true */\n      0x01\n        /* \"contracts/GeekNft.sol\":3550:3573  items[i].toSell == true */\n      iszero\n      iszero\n        /* \"contracts/GeekNft.sol\":3550:3555  items */\n      0x03\n        /* \"contracts/GeekNft.sol\":3556:3557  i */\n      dup3\n        /* \"contracts/GeekNft.sol\":3550:3558  items[i] */\n      dup2\n      sload\n      dup2\n      lt\n      tag_97\n      jumpi\n      mstore(0x00, 0x4e487b7100000000000000000000000000000000000000000000000000000000)\n      mstore(0x04, 0x32)\n      revert(0x00, 0x24)\n    tag_97:\n      swap1\n      0x00\n      mstore\n      keccak256(0x00, 0x20)\n      swap1\n      0x04\n      mul\n      add\n        /* \"contracts/GeekNft.sol\":3550:3565  items[i].toSell */\n      0x03\n      add\n      0x00\n      swap1\n      sload\n      swap1\n      0x0100\n      exp\n      swap1\n      div\n      0xff\n      and\n        /* \"contracts/GeekNft.sol\":3550:3573  items[i].toSell == true */\n      iszero\n      iszero\n      eq\n        /* \"contracts/GeekNft.sol\":3547:3660  if(items[i].toSell == true){... */\n      iszero\n      tag_99\n      jumpi\n        /* \"contracts/GeekNft.sol\":3610:3615  items */\n      0x03\n        /* \"contracts/GeekNft.sol\":3616:3617  i */\n      dup2\n        /* \"contracts/GeekNft.sol\":3610:3618  items[i] */\n      dup2\n      sload\n      dup2\n      lt\n      tag_100\n      jumpi\n      mstore(0x00, 0x4e487b7100000000000000000000000000000000000000000000000000000000)\n      mstore(0x04, 0x32)\n      revert(0x00, 0x24)\n    tag_100:\n      swap1\n      0x00\n      mstore\n      keccak256(0x00, 0x20)\n      swap1\n      0x04\n      mul\n      add\n        /* \"contracts/GeekNft.sol\":3592:3618  result[counter] = items[i] */\n      mload(0x40)\n      dup1\n      0x80\n      add\n      0x40\n      mstore\n      swap1\n      dup2\n      0x00\n      dup3\n      add\n      sload\n      dup2\n      mstore\n      0x20\n      add\n      0x01\n      dup3\n      add\n      sload\n      dup2\n      mstore\n      0x20\n      add\n      0x02\n      dup3\n      add\n      sload\n      dup2\n      mstore\n      0x20\n      add\n      0x03\n      dup3\n      add\n      0x00\n      swap1\n      sload\n      swap1\n      0x0100\n      exp\n      swap1\n      div\n      0xff\n      and\n      iszero\n      iszero\n      iszero\n      iszero\n      dup2\n      mstore\n      pop\n      pop\n        /* \"contracts/GeekNft.sol\":3592:3598  result */\n      dup3\n        /* \"contracts/GeekNft.sol\":3599:3606  counter */\n      dup5\n        /* \"contracts/GeekNft.sol\":3592:3607  result[counter] */\n      dup2\n      mload\n      dup2\n      lt\n      tag_102\n      jumpi\n      mstore(0x00, 0x4e487b7100000000000000000000000000000000000000000000000000000000)\n      mstore(0x04, 0x32)\n      revert(0x00, 0x24)\n    tag_102:\n      0x20\n      mul\n      0x20\n      add\n      add\n        /* \"contracts/GeekNft.sol\":3592:3618  result[counter] = items[i] */\n      dup2\n      swap1\n      mstore\n      pop\n        /* \"contracts/GeekNft.sol\":3636:3645  counter++ */\n      dup3\n      dup1\n      tag_103\n      swap1\n      tag_104\n      jump\t// in\n    tag_103:\n      swap4\n      pop\n      pop\n        /* \"contracts/GeekNft.sol\":3547:3660  if(items[i].toSell == true){... */\n    tag_99:\n        /* \"contracts/GeekNft.sol\":3528:3531  i++ */\n      dup1\n      dup1\n      tag_105\n      swap1\n      tag_104\n      jump\t// in\n    tag_105:\n      swap2\n      pop\n      pop\n        /* \"contracts/GeekNft.sol\":3494:3670  for(uint i = 0; i < items.length; i++) {... */\n      jump(tag_94)\n    tag_95:\n      pop\n        /* \"contracts/GeekNft.sol\":3687:3693  result */\n      dup1\n        /* \"contracts/GeekNft.sol\":3680:3693  return result */\n      swap3\n      pop\n      pop\n      pop\n        /* \"contracts/GeekNft.sol\":3333:3700  function fetchItemsToSell() public view returns (Item[] memory){... */\n      swap1\n      jump\t// out\n        /* \"contracts/GeekNft.sol\":405:448  mapping(uint => address) public itemToOwner */\n    tag_28:\n      mstore(0x20, 0x06)\n      dup1\n      0x00\n      mstore\n      keccak256(0x00, 0x40)\n      0x00\n      swap2\n      pop\n      sload\n      swap1\n      0x0100\n      exp\n      swap1\n      div\n      0xffffffffffffffffffffffffffffffffffffffff\n      and\n      dup2\n      jump\t// out\n        /* \"contracts/GeekNft.sol\":946:1069  function modifyFeesPercentage(uint _newPercentage) public onlyContractOwner{... */\n    tag_34:\n        /* \"contracts/GeekNft.sol\":730:735  owner */\n      0x02\n      0x00\n      swap1\n      sload\n      swap1\n      0x0100\n      exp\n      swap1\n      div\n      0xffffffffffffffffffffffffffffffffffffffff\n      and\n        /* \"contracts/GeekNft.sol\":716:735  msg.sender == owner */\n      0xffffffffffffffffffffffffffffffffffffffff\n      and\n        /* \"contracts/GeekNft.sol\":716:726  msg.sender */\n      caller\n        /* \"contracts/GeekNft.sol\":716:735  msg.sender == owner */\n      0xffffffffffffffffffffffffffffffffffffffff\n      and\n      eq\n        /* \"contracts/GeekNft.sol\":708:773  require(msg.sender == owner, \"Only contract's owner can do that\") */\n      tag_107\n      jumpi\n      mload(0x40)\n      0x08c379a000000000000000000000000000000000000000000000000000000000\n      dup2\n      mstore\n      0x04\n      add\n      tag_108\n      swap1\n      tag_109\n      jump\t// in\n    tag_108:\n      mload(0x40)\n      dup1\n      swap2\n      sub\n      swap1\n      revert\n    tag_107:\n        /* \"contracts/GeekNft.sol\":1048:1062  _newPercentage */\n      dup1\n        /* \"contracts/GeekNft.sol\":1031:1045  feesPercentage */\n      0x05\n        /* \"contracts/GeekNft.sol\":1031:1062  feesPercentage = _newPercentage */\n      dup2\n      swap1\n      sstore\n      pop\n        /* \"contracts/GeekNft.sol\":946:1069  function modifyFeesPercentage(uint _newPercentage) public onlyContractOwner{... */\n      pop\n      jump\t// out\n        /* \"contracts/GeekNft.sol\":346:374  uint public itemsToSellCount */\n    tag_37:\n      sload(0x04)\n      dup2\n      jump\t// out\n        /* \"contracts/GeekNft.sol\":2513:2619  function ownerOf(uint _tokenId) public view returns (address){... */\n    tag_43:\n        /* \"contracts/GeekNft.sol\":2566:2573  address */\n      0x00\n        /* \"contracts/GeekNft.sol\":2591:2602  itemToOwner */\n      0x06\n        /* \"contracts/GeekNft.sol\":2591:2612  itemToOwner[_tokenId] */\n      0x00\n        /* \"contracts/GeekNft.sol\":2603:2611  _tokenId */\n      dup4\n        /* \"contracts/GeekNft.sol\":2591:2612  itemToOwner[_tokenId] */\n      dup2\n      mstore\n      0x20\n      add\n      swap1\n      dup2\n      mstore\n      0x20\n      add\n      0x00\n      keccak256\n      0x00\n      swap1\n      sload\n      swap1\n      0x0100\n      exp\n      swap1\n      div\n      0xffffffffffffffffffffffffffffffffffffffff\n      and\n        /* \"contracts/GeekNft.sol\":2584:2612  return itemToOwner[_tokenId] */\n      swap1\n      pop\n        /* \"contracts/GeekNft.sol\":2513:2619  function ownerOf(uint _tokenId) public view returns (address){... */\n      swap2\n      swap1\n      pop\n      jump\t// out\n        /* \"contracts/GeekNft.sol\":2625:2733  function balanceOf(address _owner) public view returns (uint){... */\n    tag_49:\n        /* \"contracts/GeekNft.sol\":2681:2685  uint */\n      0x00\n        /* \"contracts/GeekNft.sol\":2703:2718  itemsOwnerCount */\n      0x07\n        /* \"contracts/GeekNft.sol\":2703:2726  itemsOwnerCount[_owner] */\n      0x00\n        /* \"contracts/GeekNft.sol\":2719:2725  _owner */\n      dup4\n        /* \"contracts/GeekNft.sol\":2703:2726  itemsOwnerCount[_owner] */\n      0xffffffffffffffffffffffffffffffffffffffff\n      and\n      0xffffffffffffffffffffffffffffffffffffffff\n      and\n      dup2\n      mstore\n      0x20\n      add\n      swap1\n      dup2\n      mstore\n      0x20\n      add\n      0x00\n      keccak256\n      sload\n        /* \"contracts/GeekNft.sol\":2696:2726  return itemsOwnerCount[_owner] */\n      swap1\n      pop\n        /* \"contracts/GeekNft.sol\":2625:2733  function balanceOf(address _owner) public view returns (uint){... */\n      swap2\n      swap1\n      pop\n      jump\t// out\n        /* \"contracts/GeekNft.sol\":1721:2507  function sellItem(uint _tokenId) public payable{... */\n    tag_53:\n        /* \"contracts/GeekNft.sol\":1799:1804  items */\n      0x03\n        /* \"contracts/GeekNft.sol\":1805:1813  _tokenId */\n      dup2\n        /* \"contracts/GeekNft.sol\":1799:1814  items[_tokenId] */\n      dup2\n      sload\n      dup2\n      lt\n      tag_114\n      jumpi\n      mstore(0x00, 0x4e487b7100000000000000000000000000000000000000000000000000000000)\n      mstore(0x04, 0x32)\n      revert(0x00, 0x24)\n    tag_114:\n      swap1\n      0x00\n      mstore\n      keccak256(0x00, 0x20)\n      swap1\n      0x04\n      mul\n      add\n        /* \"contracts/GeekNft.sol\":1799:1820  items[_tokenId].price */\n      0x01\n      add\n      sload\n        /* \"contracts/GeekNft.sol\":1786:1795  msg.value */\n      callvalue\n        /* \"contracts/GeekNft.sol\":1786:1820  msg.value == items[_tokenId].price */\n      eq\n        /* \"contracts/GeekNft.sol\":1778:1821  require(msg.value == items[_tokenId].price) */\n      tag_116\n      jumpi\n      0x00\n      dup1\n      revert\n    tag_116:\n        /* \"contracts/GeekNft.sol\":1872:1873  0 */\n      0x00\n        /* \"contracts/GeekNft.sol\":1839:1874  itemToOwner[_tokenId] != address(0) */\n      0xffffffffffffffffffffffffffffffffffffffff\n      and\n        /* \"contracts/GeekNft.sol\":1839:1850  itemToOwner */\n      0x06\n        /* \"contracts/GeekNft.sol\":1839:1860  itemToOwner[_tokenId] */\n      0x00\n        /* \"contracts/GeekNft.sol\":1851:1859  _tokenId */\n      dup4\n        /* \"contracts/GeekNft.sol\":1839:1860  itemToOwner[_tokenId] */\n      dup2\n      mstore\n      0x20\n      add\n      swap1\n      dup2\n      mstore\n      0x20\n      add\n      0x00\n      keccak256\n      0x00\n      swap1\n      sload\n      swap1\n      0x0100\n      exp\n      swap1\n      div\n      0xffffffffffffffffffffffffffffffffffffffff\n      and\n        /* \"contracts/GeekNft.sol\":1839:1874  itemToOwner[_tokenId] != address(0) */\n      0xffffffffffffffffffffffffffffffffffffffff\n      and\n      eq\n      iszero\n        /* \"contracts/GeekNft.sol\":1831:1898  require(itemToOwner[_tokenId] != address(0), \"token doesn't exist\") */\n      tag_117\n      jumpi\n      mload(0x40)\n      0x08c379a000000000000000000000000000000000000000000000000000000000\n      dup2\n      mstore\n      0x04\n      add\n      tag_118\n      swap1\n      tag_119\n      jump\t// in\n    tag_118:\n      mload(0x40)\n      dup1\n      swap2\n      sub\n      swap1\n      revert\n    tag_117:\n        /* \"contracts/GeekNft.sol\":1909:1925  address oldOwner */\n      0x00\n        /* \"contracts/GeekNft.sol\":1928:1939  itemToOwner */\n      0x06\n        /* \"contracts/GeekNft.sol\":1928:1949  itemToOwner[_tokenId] */\n      0x00\n        /* \"contracts/GeekNft.sol\":1940:1948  _tokenId */\n      dup4\n        /* \"contracts/GeekNft.sol\":1928:1949  itemToOwner[_tokenId] */\n      dup2\n      mstore\n      0x20\n      add\n      swap1\n      dup2\n      mstore\n      0x20\n      add\n      0x00\n      keccak256\n      0x00\n      swap1\n      sload\n      swap1\n      0x0100\n      exp\n      swap1\n      div\n      0xffffffffffffffffffffffffffffffffffffffff\n      and\n        /* \"contracts/GeekNft.sol\":1909:1949  address oldOwner = itemToOwner[_tokenId] */\n      swap1\n      pop\n        /* \"contracts/GeekNft.sol\":1968:1991  Item storage itemToSell */\n      0x00\n        /* \"contracts/GeekNft.sol\":1994:1999  items */\n      0x03\n        /* \"contracts/GeekNft.sol\":2000:2008  _tokenId */\n      dup4\n        /* \"contracts/GeekNft.sol\":1994:2009  items[_tokenId] */\n      dup2\n      sload\n      dup2\n      lt\n      tag_120\n      jumpi\n      mstore(0x00, 0x4e487b7100000000000000000000000000000000000000000000000000000000)\n      mstore(0x04, 0x32)\n      revert(0x00, 0x24)\n    tag_120:\n      swap1\n      0x00\n      mstore\n      keccak256(0x00, 0x20)\n      swap1\n      0x04\n      mul\n      add\n        /* \"contracts/GeekNft.sol\":1968:2009  Item storage itemToSell = items[_tokenId] */\n      swap1\n      pop\n        /* \"contracts/GeekNft.sol\":2039:2044  false */\n      0x00\n        /* \"contracts/GeekNft.sol\":2019:2029  itemToSell */\n      dup2\n        /* \"contracts/GeekNft.sol\":2019:2036  itemToSell.toSell */\n      0x03\n      add\n      0x00\n        /* \"contracts/GeekNft.sol\":2019:2044  itemToSell.toSell = false */\n      0x0100\n      exp\n      dup2\n      sload\n      dup2\n      0xff\n      mul\n      not\n      and\n      swap1\n      dup4\n      iszero\n      iszero\n      mul\n      or\n      swap1\n      sstore\n      pop\n        /* \"contracts/GeekNft.sol\":2079:2089  msg.sender */\n      caller\n        /* \"contracts/GeekNft.sol\":2055:2066  itemToOwner */\n      0x06\n        /* \"contracts/GeekNft.sol\":2055:2076  itemToOwner[_tokenId] */\n      0x00\n        /* \"contracts/GeekNft.sol\":2067:2075  _tokenId */\n      dup6\n        /* \"contracts/GeekNft.sol\":2055:2076  itemToOwner[_tokenId] */\n      dup2\n      mstore\n      0x20\n      add\n      swap1\n      dup2\n      mstore\n      0x20\n      add\n      0x00\n      keccak256\n      0x00\n        /* \"contracts/GeekNft.sol\":2055:2089  itemToOwner[_tokenId] = msg.sender */\n      0x0100\n      exp\n      dup2\n      sload\n      dup2\n      0xffffffffffffffffffffffffffffffffffffffff\n      mul\n      not\n      and\n      swap1\n      dup4\n      0xffffffffffffffffffffffffffffffffffffffff\n      and\n      mul\n      or\n      swap1\n      sstore\n      pop\n        /* \"contracts/GeekNft.sol\":2123:2138  itemsOwnerCount */\n      0x07\n        /* \"contracts/GeekNft.sol\":2123:2148  itemsOwnerCount[oldOwner] */\n      0x00\n        /* \"contracts/GeekNft.sol\":2139:2147  oldOwner */\n      dup4\n        /* \"contracts/GeekNft.sol\":2123:2148  itemsOwnerCount[oldOwner] */\n      0xffffffffffffffffffffffffffffffffffffffff\n      and\n      0xffffffffffffffffffffffffffffffffffffffff\n      and\n      dup2\n      mstore\n      0x20\n      add\n      swap1\n      dup2\n      mstore\n      0x20\n      add\n      0x00\n      keccak256\n      0x00\n        /* \"contracts/GeekNft.sol\":2123:2150  itemsOwnerCount[oldOwner]-- */\n      dup2\n      sload\n      dup1\n      swap3\n      swap2\n      swap1\n      0x01\n      swap1\n      sub\n      swap2\n      swap1\n      pop\n      sstore\n      pop\n        /* \"contracts/GeekNft.sol\":2164:2179  itemsOwnerCount */\n      0x07\n        /* \"contracts/GeekNft.sol\":2164:2191  itemsOwnerCount[msg.sender] */\n      0x00\n        /* \"contracts/GeekNft.sol\":2180:2190  msg.sender */\n      caller\n        /* \"contracts/GeekNft.sol\":2164:2191  itemsOwnerCount[msg.sender] */\n      0xffffffffffffffffffffffffffffffffffffffff\n      and\n      0xffffffffffffffffffffffffffffffffffffffff\n      and\n      dup2\n      mstore\n      0x20\n      add\n      swap1\n      dup2\n      mstore\n      0x20\n      add\n      0x00\n      keccak256\n      0x00\n        /* \"contracts/GeekNft.sol\":2164:2193  itemsOwnerCount[msg.sender]++ */\n      dup2\n      sload\n      dup1\n      swap3\n      swap2\n      swap1\n      0x01\n      add\n      swap2\n      swap1\n      pop\n      sstore\n      pop\n        /* \"contracts/GeekNft.sol\":2207:2223  itemsToSellCount */\n      0x04\n      0x00\n        /* \"contracts/GeekNft.sol\":2207:2225  itemsToSellCount-- */\n      dup2\n      sload\n      dup1\n      swap3\n      swap2\n      swap1\n      0x01\n      swap1\n      sub\n      swap2\n      swap1\n      pop\n      sstore\n      pop\n        /* \"contracts/GeekNft.sol\":2246:2255  uint fees */\n      0x00\n        /* \"contracts/GeekNft.sol\":2265:2284  uint totalMinusFees */\n      dup1\n        /* \"contracts/GeekNft.sol\":2319:2353  getFees(msg.value, feesPercentage) */\n      tag_122\n        /* \"contracts/GeekNft.sol\":2327:2336  msg.value */\n      callvalue\n        /* \"contracts/GeekNft.sol\":2338:2352  feesPercentage */\n      sload(0x05)\n        /* \"contracts/GeekNft.sol\":2319:2326  getFees */\n      tag_123\n        /* \"contracts/GeekNft.sol\":2319:2353  getFees(msg.value, feesPercentage) */\n      jump\t// in\n    tag_122:\n        /* \"contracts/GeekNft.sol\":2294:2353  (fees, totalMinusFees) = getFees(msg.value, feesPercentage) */\n      dup1\n      swap3\n      pop\n      dup2\n      swap4\n      pop\n      pop\n      pop\n        /* \"contracts/GeekNft.sol\":2371:2376  owner */\n      0x02\n      0x00\n      swap1\n      sload\n      swap1\n      0x0100\n      exp\n      swap1\n      div\n      0xffffffffffffffffffffffffffffffffffffffff\n      and\n        /* \"contracts/GeekNft.sol\":2363:2386  payable(owner).transfer */\n      0xffffffffffffffffffffffffffffffffffffffff\n      and\n        /* \"contracts/GeekNft.sol\":2363:2392  payable(owner).transfer(fees) */\n      0x08fc\n        /* \"contracts/GeekNft.sol\":2387:2391  fees */\n      dup4\n        /* \"contracts/GeekNft.sol\":2363:2392  payable(owner).transfer(fees) */\n      swap1\n      dup2\n      iszero\n      mul\n      swap1\n      mload(0x40)\n      0x00\n      mload(0x40)\n      dup1\n      dup4\n      sub\n      dup2\n      dup6\n      dup9\n      dup9\n      call\n      swap4\n      pop\n      pop\n      pop\n      pop\n      iszero\n      dup1\n      iszero\n      tag_125\n      jumpi\n      returndatasize\n      0x00\n      dup1\n      returndatacopy\n      revert(0x00, returndatasize)\n    tag_125:\n      pop\n        /* \"contracts/GeekNft.sol\":2410:2418  oldOwner */\n      dup4\n        /* \"contracts/GeekNft.sol\":2402:2428  payable(oldOwner).transfer */\n      0xffffffffffffffffffffffffffffffffffffffff\n      and\n        /* \"contracts/GeekNft.sol\":2402:2444  payable(oldOwner).transfer(totalMinusFees) */\n      0x08fc\n        /* \"contracts/GeekNft.sol\":2429:2443  totalMinusFees */\n      dup3\n        /* \"contracts/GeekNft.sol\":2402:2444  payable(oldOwner).transfer(totalMinusFees) */\n      swap1\n      dup2\n      iszero\n      mul\n      swap1\n      mload(0x40)\n      0x00\n      mload(0x40)\n      dup1\n      dup4\n      sub\n      dup2\n      dup6\n      dup9\n      dup9\n      call\n      swap4\n      pop\n      pop\n      pop\n      pop\n      iszero\n      dup1\n      iszero\n      tag_127\n      jumpi\n      returndatasize\n      0x00\n      dup1\n      returndatacopy\n      revert(0x00, returndatasize)\n    tag_127:\n      pop\n        /* \"contracts/GeekNft.sol\":2479:2489  msg.sender */\n      caller\n        /* \"contracts/GeekNft.sol\":2460:2500  Transfer(oldOwner, msg.sender, _tokenId) */\n      0xffffffffffffffffffffffffffffffffffffffff\n      and\n        /* \"contracts/GeekNft.sol\":2469:2477  oldOwner */\n      dup5\n        /* \"contracts/GeekNft.sol\":2460:2500  Transfer(oldOwner, msg.sender, _tokenId) */\n      0xffffffffffffffffffffffffffffffffffffffff\n      and\n      0xddf252ad1be2c89b69c2b068fc378daa952ba7f163c4a11628f55a4df523b3ef\n        /* \"contracts/GeekNft.sol\":2491:2499  _tokenId */\n      dup8\n        /* \"contracts/GeekNft.sol\":2460:2500  Transfer(oldOwner, msg.sender, _tokenId) */\n      mload(0x40)\n      tag_128\n      swap2\n      swap1\n      tag_39\n      jump\t// in\n    tag_128:\n      mload(0x40)\n      dup1\n      swap2\n      sub\n      swap1\n      log3\n        /* \"contracts/GeekNft.sol\":1721:2507  function sellItem(uint _tokenId) public payable{... */\n      pop\n      pop\n      pop\n      pop\n      pop\n      jump\t// out\n        /* \"contracts/GeekNft.sol\":2739:3068  function removeItemToSell(uint _tokenId) public onlyItemOwner(_tokenId) {... */\n    tag_57:\n        /* \"contracts/GeekNft.sol\":2801:2809  _tokenId */\n      dup1\n        /* \"contracts/GeekNft.sol\":878:888  msg.sender */\n      caller\n        /* \"contracts/GeekNft.sol\":853:888  itemToOwner[_tokenId] == msg.sender */\n      0xffffffffffffffffffffffffffffffffffffffff\n      and\n        /* \"contracts/GeekNft.sol\":853:864  itemToOwner */\n      0x06\n        /* \"contracts/GeekNft.sol\":853:874  itemToOwner[_tokenId] */\n      0x00\n        /* \"contracts/GeekNft.sol\":865:873  _tokenId */\n      dup4\n        /* \"contracts/GeekNft.sol\":853:874  itemToOwner[_tokenId] */\n      dup2\n      mstore\n      0x20\n      add\n      swap1\n      dup2\n      mstore\n      0x20\n      add\n      0x00\n      keccak256\n      0x00\n      swap1\n      sload\n      swap1\n      0x0100\n      exp\n      swap1\n      div\n      0xffffffffffffffffffffffffffffffffffffffff\n      and\n        /* \"contracts/GeekNft.sol\":853:888  itemToOwner[_tokenId] == msg.sender */\n      0xffffffffffffffffffffffffffffffffffffffff\n      and\n      eq\n        /* \"contracts/GeekNft.sol\":845:922  require(itemToOwner[_tokenId] == msg.sender, \"Only item's owner can do that\") */\n      tag_130\n      jumpi\n      mload(0x40)\n      0x08c379a000000000000000000000000000000000000000000000000000000000\n      dup2\n      mstore\n      0x04\n      add\n      tag_131\n      swap1\n      tag_132\n      jump\t// in\n    tag_131:\n      mload(0x40)\n      dup1\n      swap2\n      sub\n      swap1\n      revert\n    tag_130:\n        /* \"contracts/GeekNft.sol\":2862:2863  0 */\n      0x00\n        /* \"contracts/GeekNft.sol\":2829:2864  itemToOwner[_tokenId] != address(0) */\n      0xffffffffffffffffffffffffffffffffffffffff\n      and\n        /* \"contracts/GeekNft.sol\":2829:2840  itemToOwner */\n      0x06\n        /* \"contracts/GeekNft.sol\":2829:2850  itemToOwner[_tokenId] */\n      0x00\n        /* \"contracts/GeekNft.sol\":2841:2849  _tokenId */\n      dup5\n        /* \"contracts/GeekNft.sol\":2829:2850  itemToOwner[_tokenId] */\n      dup2\n      mstore\n      0x20\n      add\n      swap1\n      dup2\n      mstore\n      0x20\n      add\n      0x00\n      keccak256\n      0x00\n      swap1\n      sload\n      swap1\n      0x0100\n      exp\n      swap1\n      div\n      0xffffffffffffffffffffffffffffffffffffffff\n      and\n        /* \"contracts/GeekNft.sol\":2829:2864  itemToOwner[_tokenId] != address(0) */\n      0xffffffffffffffffffffffffffffffffffffffff\n      and\n      eq\n      iszero\n        /* \"contracts/GeekNft.sol\":2821:2888  require(itemToOwner[_tokenId] != address(0), \"token doesn't exist\") */\n      tag_134\n      jumpi\n      mload(0x40)\n      0x08c379a000000000000000000000000000000000000000000000000000000000\n      dup2\n      mstore\n      0x04\n      add\n      tag_135\n      swap1\n      tag_119\n      jump\t// in\n    tag_135:\n      mload(0x40)\n      dup1\n      swap2\n      sub\n      swap1\n      revert\n    tag_134:\n        /* \"contracts/GeekNft.sol\":2932:2936  true */\n      0x01\n        /* \"contracts/GeekNft.sol\":2906:2936  items[_tokenId].toSell == true */\n      iszero\n      iszero\n        /* \"contracts/GeekNft.sol\":2906:2911  items */\n      0x03\n        /* \"contracts/GeekNft.sol\":2912:2920  _tokenId */\n      dup4\n        /* \"contracts/GeekNft.sol\":2906:2921  items[_tokenId] */\n      dup2\n      sload\n      dup2\n      lt\n      tag_136\n      jumpi\n      mstore(0x00, 0x4e487b7100000000000000000000000000000000000000000000000000000000)\n      mstore(0x04, 0x32)\n      revert(0x00, 0x24)\n    tag_136:\n      swap1\n      0x00\n      mstore\n      keccak256(0x00, 0x20)\n      swap1\n      0x04\n      mul\n      add\n        /* \"contracts/GeekNft.sol\":2906:2928  items[_tokenId].toSell */\n      0x03\n      add\n      0x00\n      swap1\n      sload\n      swap1\n      0x0100\n      exp\n      swap1\n      div\n      0xff\n      and\n        /* \"contracts/GeekNft.sol\":2906:2936  items[_tokenId].toSell == true */\n      iszero\n      iszero\n      eq\n        /* \"contracts/GeekNft.sol\":2898:2960  require(items[_tokenId].toSell == true, \"token isn't to sell\") */\n      tag_138\n      jumpi\n      mload(0x40)\n      0x08c379a000000000000000000000000000000000000000000000000000000000\n      dup2\n      mstore\n      0x04\n      add\n      tag_139\n      swap1\n      tag_140\n      jump\t// in\n    tag_139:\n      mload(0x40)\n      dup1\n      swap2\n      sub\n      swap1\n      revert\n    tag_138:\n        /* \"contracts/GeekNft.sol\":2995:3000  false */\n      0x00\n        /* \"contracts/GeekNft.sol\":2970:2975  items */\n      0x03\n        /* \"contracts/GeekNft.sol\":2976:2984  _tokenId */\n      dup4\n        /* \"contracts/GeekNft.sol\":2970:2985  items[_tokenId] */\n      dup2\n      sload\n      dup2\n      lt\n      tag_141\n      jumpi\n      mstore(0x00, 0x4e487b7100000000000000000000000000000000000000000000000000000000)\n      mstore(0x04, 0x32)\n      revert(0x00, 0x24)\n    tag_141:\n      swap1\n      0x00\n      mstore\n      keccak256(0x00, 0x20)\n      swap1\n      0x04\n      mul\n      add\n        /* \"contracts/GeekNft.sol\":2970:2992  items[_tokenId].toSell */\n      0x03\n      add\n      0x00\n        /* \"contracts/GeekNft.sol\":2970:3000  items[_tokenId].toSell = false */\n      0x0100\n      exp\n      dup2\n      sload\n      dup2\n      0xff\n      mul\n      not\n      and\n      swap1\n      dup4\n      iszero\n      iszero\n      mul\n      or\n      swap1\n      sstore\n      pop\n        /* \"contracts/GeekNft.sol\":3033:3049  itemsToSellCount */\n      0x04\n      0x00\n        /* \"contracts/GeekNft.sol\":3033:3051  itemsToSellCount-- */\n      dup2\n      sload\n      dup1\n      swap3\n      swap2\n      swap1\n      0x01\n      swap1\n      sub\n      swap2\n      swap1\n      pop\n      sstore\n      pop\n        /* \"contracts/GeekNft.sol\":2739:3068  function removeItemToSell(uint _tokenId) public onlyItemOwner(_tokenId) {... */\n      pop\n      pop\n      jump\t// out\n        /* \"contracts/GeekNft.sol\":1175:1715  function createItem(uint _price, uint _catId) public returns (uint){... */\n    tag_62:\n        /* \"contracts/GeekNft.sol\":1237:1241  uint */\n      0x00\n        /* \"contracts/GeekNft.sol\":1269:1270  0 */\n      dup1\n        /* \"contracts/GeekNft.sol\":1260:1266  _price */\n      dup4\n        /* \"contracts/GeekNft.sol\":1260:1270  _price > 0 */\n      gt\n        /* \"contracts/GeekNft.sol\":1252:1301  require(_price > 0, \"Price cannot be equal to 0\") */\n      tag_144\n      jumpi\n      mload(0x40)\n      0x08c379a000000000000000000000000000000000000000000000000000000000\n      dup2\n      mstore\n      0x04\n      add\n      tag_145\n      swap1\n      tag_146\n      jump\t// in\n    tag_145:\n      mload(0x40)\n      dup1\n      swap2\n      sub\n      swap1\n      revert\n    tag_144:\n        /* \"contracts/GeekNft.sol\":1311:1326  uint newTokenId */\n      0x00\n        /* \"contracts/GeekNft.sol\":1329:1334  items */\n      0x03\n        /* \"contracts/GeekNft.sol\":1329:1341  items.length */\n      dup1\n      sload\n      swap1\n      pop\n        /* \"contracts/GeekNft.sol\":1311:1341  uint newTokenId = items.length */\n      swap1\n      pop\n        /* \"contracts/GeekNft.sol\":1395:1396  0 */\n      0x00\n        /* \"contracts/GeekNft.sol\":1360:1397  itemToOwner[newTokenId] == address(0) */\n      0xffffffffffffffffffffffffffffffffffffffff\n      and\n        /* \"contracts/GeekNft.sol\":1360:1371  itemToOwner */\n      0x06\n        /* \"contracts/GeekNft.sol\":1360:1383  itemToOwner[newTokenId] */\n      0x00\n        /* \"contracts/GeekNft.sol\":1372:1382  newTokenId */\n      dup4\n        /* \"contracts/GeekNft.sol\":1360:1383  itemToOwner[newTokenId] */\n      dup2\n      mstore\n      0x20\n      add\n      swap1\n      dup2\n      mstore\n      0x20\n      add\n      0x00\n      keccak256\n      0x00\n      swap1\n      sload\n      swap1\n      0x0100\n      exp\n      swap1\n      div\n      0xffffffffffffffffffffffffffffffffffffffff\n      and\n        /* \"contracts/GeekNft.sol\":1360:1397  itemToOwner[newTokenId] == address(0) */\n      0xffffffffffffffffffffffffffffffffffffffff\n      and\n      eq\n        /* \"contracts/GeekNft.sol\":1352:1421  require(itemToOwner[newTokenId] == address(0), \"token already exist\") */\n      tag_147\n      jumpi\n      mload(0x40)\n      0x08c379a000000000000000000000000000000000000000000000000000000000\n      dup2\n      mstore\n      0x04\n      add\n      tag_148\n      swap1\n      tag_149\n      jump\t// in\n    tag_148:\n      mload(0x40)\n      dup1\n      swap2\n      sub\n      swap1\n      revert\n    tag_147:\n        /* \"contracts/GeekNft.sol\":1452:1490  Item(newTokenId, _price, _catId, true) */\n      mload(0x40)\n      dup1\n      0x80\n      add\n      0x40\n      mstore\n      dup1\n        /* \"contracts/GeekNft.sol\":1457:1467  newTokenId */\n      dup3\n        /* \"contracts/GeekNft.sol\":1452:1490  Item(newTokenId, _price, _catId, true) */\n      dup2\n      mstore\n      0x20\n      add\n        /* \"contracts/GeekNft.sol\":1469:1475  _price */\n      dup6\n        /* \"contracts/GeekNft.sol\":1452:1490  Item(newTokenId, _price, _catId, true) */\n      dup2\n      mstore\n      0x20\n      add\n        /* \"contracts/GeekNft.sol\":1477:1483  _catId */\n      dup5\n        /* \"contracts/GeekNft.sol\":1452:1490  Item(newTokenId, _price, _catId, true) */\n      dup2\n      mstore\n      0x20\n      add\n        /* \"contracts/GeekNft.sol\":1485:1489  true */\n      0x01\n        /* \"contracts/GeekNft.sol\":1452:1490  Item(newTokenId, _price, _catId, true) */\n      iszero\n      iszero\n      dup2\n      mstore\n      pop\n        /* \"contracts/GeekNft.sol\":1432:1437  items */\n      0x03\n        /* \"contracts/GeekNft.sol\":1438:1448  newTokenId */\n      dup3\n        /* \"contracts/GeekNft.sol\":1432:1449  items[newTokenId] */\n      dup2\n      sload\n      dup2\n      lt\n      tag_150\n      jumpi\n      mstore(0x00, 0x4e487b7100000000000000000000000000000000000000000000000000000000)\n      mstore(0x04, 0x32)\n      revert(0x00, 0x24)\n    tag_150:\n      swap1\n      0x00\n      mstore\n      keccak256(0x00, 0x20)\n      swap1\n      0x04\n      mul\n      add\n        /* \"contracts/GeekNft.sol\":1432:1490  items[newTokenId] = Item(newTokenId, _price, _catId, true) */\n      0x00\n      dup3\n      add\n      mload\n      dup2\n      0x00\n      add\n      sstore\n      0x20\n      dup3\n      add\n      mload\n      dup2\n      0x01\n      add\n      sstore\n      0x40\n      dup3\n      add\n      mload\n      dup2\n      0x02\n      add\n      sstore\n      0x60\n      dup3\n      add\n      mload\n      dup2\n      0x03\n      add\n      exp(0x0100, 0x00)\n      dup2\n      sload\n      dup2\n      0xff\n      mul\n      not\n      and\n      swap1\n      dup4\n      iszero\n      iszero\n      mul\n      or\n      swap1\n      sstore\n      pop\n      swap1\n      pop\n      pop\n        /* \"contracts/GeekNft.sol\":1526:1536  msg.sender */\n      caller\n        /* \"contracts/GeekNft.sol\":1500:1511  itemToOwner */\n      0x06\n        /* \"contracts/GeekNft.sol\":1500:1523  itemToOwner[newTokenId] */\n      0x00\n        /* \"contracts/GeekNft.sol\":1512:1522  newTokenId */\n      dup4\n        /* \"contracts/GeekNft.sol\":1500:1523  itemToOwner[newTokenId] */\n      dup2\n      mstore\n      0x20\n      add\n      swap1\n      dup2\n      mstore\n      0x20\n      add\n      0x00\n      keccak256\n      0x00\n        /* \"contracts/GeekNft.sol\":1500:1536  itemToOwner[newTokenId] = msg.sender */\n      0x0100\n      exp\n      dup2\n      sload\n      dup2\n      0xffffffffffffffffffffffffffffffffffffffff\n      mul\n      not\n      and\n      swap1\n      dup4\n      0xffffffffffffffffffffffffffffffffffffffff\n      and\n      mul\n      or\n      swap1\n      sstore\n      pop\n        /* \"contracts/GeekNft.sol\":1570:1585  itemsOwnerCount */\n      0x07\n        /* \"contracts/GeekNft.sol\":1570:1597  itemsOwnerCount[msg.sender] */\n      0x00\n        /* \"contracts/GeekNft.sol\":1586:1596  msg.sender */\n      caller\n        /* \"contracts/GeekNft.sol\":1570:1597  itemsOwnerCount[msg.sender] */\n      0xffffffffffffffffffffffffffffffffffffffff\n      and\n      0xffffffffffffffffffffffffffffffffffffffff\n      and\n      dup2\n      mstore\n      0x20\n      add\n      swap1\n      dup2\n      mstore\n      0x20\n      add\n      0x00\n      keccak256\n      0x00\n        /* \"contracts/GeekNft.sol\":1570:1599  itemsOwnerCount[msg.sender]++ */\n      dup2\n      sload\n      dup1\n      swap3\n      swap2\n      swap1\n      0x01\n      add\n      swap2\n      swap1\n      pop\n      sstore\n      pop\n        /* \"contracts/GeekNft.sol\":1613:1628  itemsCatIdCount */\n      0x08\n        /* \"contracts/GeekNft.sol\":1613:1636  itemsCatIdCount[_catId] */\n      0x00\n        /* \"contracts/GeekNft.sol\":1629:1635  _catId */\n      dup5\n        /* \"contracts/GeekNft.sol\":1613:1636  itemsCatIdCount[_catId] */\n      dup2\n      mstore\n      0x20\n      add\n      swap1\n      dup2\n      mstore\n      0x20\n      add\n      0x00\n      keccak256\n      0x00\n        /* \"contracts/GeekNft.sol\":1613:1638  itemsCatIdCount[_catId]++ */\n      dup2\n      sload\n      dup1\n      swap3\n      swap2\n      swap1\n      0x01\n      add\n      swap2\n      swap1\n      pop\n      sstore\n      pop\n        /* \"contracts/GeekNft.sol\":1652:1668  itemsToSellCount */\n      0x04\n      0x00\n        /* \"contracts/GeekNft.sol\":1652:1670  itemsToSellCount++ */\n      dup2\n      sload\n      dup1\n      swap3\n      swap2\n      swap1\n      0x01\n      add\n      swap2\n      swap1\n      pop\n      sstore\n      pop\n        /* \"contracts/GeekNft.sol\":1698:1708  newTokenId */\n      dup1\n        /* \"contracts/GeekNft.sol\":1691:1708  return newTokenId */\n      swap2\n      pop\n      pop\n        /* \"contracts/GeekNft.sol\":1175:1715  function createItem(uint _price, uint _catId) public returns (uint){... */\n      swap3\n      swap2\n      pop\n      pop\n      jump\t// out\n        /* \"contracts/GeekNft.sol\":321:340  Item[] public items */\n    tag_67:\n      0x03\n      dup2\n      dup2\n      sload\n      dup2\n      lt\n      tag_152\n      jumpi\n      0x00\n      dup1\n      revert\n    tag_152:\n      swap1\n      0x00\n      mstore\n      keccak256(0x00, 0x20)\n      swap1\n      0x04\n      mul\n      add\n      0x00\n      swap2\n      pop\n      swap1\n      pop\n      dup1\n      0x00\n      add\n      sload\n      swap1\n      dup1\n      0x01\n      add\n      sload\n      swap1\n      dup1\n      0x02\n      add\n      sload\n      swap1\n      dup1\n      0x03\n      add\n      0x00\n      swap1\n      sload\n      swap1\n      0x0100\n      exp\n      swap1\n      div\n      0xff\n      and\n      swap1\n      pop\n      dup5\n      jump\t// out\n        /* \"contracts/GeekNft.sol\":3074:3327  function addItemToSell(uint _tokenId) public onlyItemOwner(_tokenId) {... */\n    tag_73:\n        /* \"contracts/GeekNft.sol\":3133:3141  _tokenId */\n      dup1\n        /* \"contracts/GeekNft.sol\":878:888  msg.sender */\n      caller\n        /* \"contracts/GeekNft.sol\":853:888  itemToOwner[_tokenId] == msg.sender */\n      0xffffffffffffffffffffffffffffffffffffffff\n      and\n        /* \"contracts/GeekNft.sol\":853:864  itemToOwner */\n      0x06\n        /* \"contracts/GeekNft.sol\":853:874  itemToOwner[_tokenId] */\n      0x00\n        /* \"contracts/GeekNft.sol\":865:873  _tokenId */\n      dup4\n        /* \"contracts/GeekNft.sol\":853:874  itemToOwner[_tokenId] */\n      dup2\n      mstore\n      0x20\n      add\n      swap1\n      dup2\n      mstore\n      0x20\n      add\n      0x00\n      keccak256\n      0x00\n      swap1\n      sload\n      swap1\n      0x0100\n      exp\n      swap1\n      div\n      0xffffffffffffffffffffffffffffffffffffffff\n      and\n        /* \"contracts/GeekNft.sol\":853:888  itemToOwner[_tokenId] == msg.sender */\n      0xffffffffffffffffffffffffffffffffffffffff\n      and\n      eq\n        /* \"contracts/GeekNft.sol\":845:922  require(itemToOwner[_tokenId] == msg.sender, \"Only item's owner can do that\") */\n      tag_155\n      jumpi\n      mload(0x40)\n      0x08c379a000000000000000000000000000000000000000000000000000000000\n      dup2\n      mstore\n      0x04\n      add\n      tag_156\n      swap1\n      tag_132\n      jump\t// in\n    tag_156:\n      mload(0x40)\n      dup1\n      swap2\n      sub\n      swap1\n      revert\n    tag_155:\n        /* \"contracts/GeekNft.sol\":3194:3195  0 */\n      0x00\n        /* \"contracts/GeekNft.sol\":3161:3196  itemToOwner[_tokenId] != address(0) */\n      0xffffffffffffffffffffffffffffffffffffffff\n      and\n        /* \"contracts/GeekNft.sol\":3161:3172  itemToOwner */\n      0x06\n        /* \"contracts/GeekNft.sol\":3161:3182  itemToOwner[_tokenId] */\n      0x00\n        /* \"contracts/GeekNft.sol\":3173:3181  _tokenId */\n      dup5\n        /* \"contracts/GeekNft.sol\":3161:3182  itemToOwner[_tokenId] */\n      dup2\n      mstore\n      0x20\n      add\n      swap1\n      dup2\n      mstore\n      0x20\n      add\n      0x00\n      keccak256\n      0x00\n      swap1\n      sload\n      swap1\n      0x0100\n      exp\n      swap1\n      div\n      0xffffffffffffffffffffffffffffffffffffffff\n      and\n        /* \"contracts/GeekNft.sol\":3161:3196  itemToOwner[_tokenId] != address(0) */\n      0xffffffffffffffffffffffffffffffffffffffff\n      and\n      eq\n      iszero\n        /* \"contracts/GeekNft.sol\":3153:3220  require(itemToOwner[_tokenId] != address(0), \"token doesn't exist\") */\n      tag_158\n      jumpi\n      mload(0x40)\n      0x08c379a000000000000000000000000000000000000000000000000000000000\n      dup2\n      mstore\n      0x04\n      add\n      tag_159\n      swap1\n      tag_119\n      jump\t// in\n    tag_159:\n      mload(0x40)\n      dup1\n      swap2\n      sub\n      swap1\n      revert\n    tag_158:\n        /* \"contracts/GeekNft.sol\":3255:3259  true */\n      0x01\n        /* \"contracts/GeekNft.sol\":3230:3235  items */\n      0x03\n        /* \"contracts/GeekNft.sol\":3236:3244  _tokenId */\n      dup4\n        /* \"contracts/GeekNft.sol\":3230:3245  items[_tokenId] */\n      dup2\n      sload\n      dup2\n      lt\n      tag_160\n      jumpi\n      mstore(0x00, 0x4e487b7100000000000000000000000000000000000000000000000000000000)\n      mstore(0x04, 0x32)\n      revert(0x00, 0x24)\n    tag_160:\n      swap1\n      0x00\n      mstore\n      keccak256(0x00, 0x20)\n      swap1\n      0x04\n      mul\n      add\n        /* \"contracts/GeekNft.sol\":3230:3252  items[_tokenId].toSell */\n      0x03\n      add\n      0x00\n        /* \"contracts/GeekNft.sol\":3230:3259  items[_tokenId].toSell = true */\n      0x0100\n      exp\n      dup2\n      sload\n      dup2\n      0xff\n      mul\n      not\n      and\n      swap1\n      dup4\n      iszero\n      iszero\n      mul\n      or\n      swap1\n      sstore\n      pop\n        /* \"contracts/GeekNft.sol\":3292:3308  itemsToSellCount */\n      0x04\n      0x00\n        /* \"contracts/GeekNft.sol\":3292:3310  itemsToSellCount++ */\n      dup2\n      sload\n      dup1\n      swap3\n      swap2\n      swap1\n      0x01\n      add\n      swap2\n      swap1\n      pop\n      sstore\n      pop\n        /* \"contracts/GeekNft.sol\":3074:3327  function addItemToSell(uint _tokenId) public onlyItemOwner(_tokenId) {... */\n      pop\n      pop\n      jump\t// out\n        /* \"contracts/GeekNft.sol\":454:501  mapping(address => uint) public itemsOwnerCount */\n    tag_77:\n      mstore(0x20, 0x07)\n      dup1\n      0x00\n      mstore\n      keccak256(0x00, 0x40)\n      0x00\n      swap2\n      pop\n      swap1\n      pop\n      sload\n      dup2\n      jump\t// out\n        /* \"contracts/GeekNft.sol\":507:551  mapping(uint => uint) public itemsCatIdCount */\n    tag_82:\n      mstore(0x20, 0x08)\n      dup1\n      0x00\n      mstore\n      keccak256(0x00, 0x40)\n      0x00\n      swap2\n      pop\n      swap1\n      pop\n      sload\n      dup2\n      jump\t// out\n        /* \"contracts/GeekNft.sol\":1075:1169  function getFeesPercentage() public view returns (uint) {... */\n    tag_86:\n        /* \"contracts/GeekNft.sol\":1125:1129  uint */\n      0x00\n        /* \"contracts/GeekNft.sol\":1148:1162  feesPercentage */\n      sload(0x05)\n        /* \"contracts/GeekNft.sol\":1141:1162  return feesPercentage */\n      swap1\n      pop\n        /* \"contracts/GeekNft.sol\":1075:1169  function getFeesPercentage() public view returns (uint) {... */\n      swap1\n      jump\t// out\n        /* \"contracts/GeekNft.sol\":3771:3993  function getFees(uint _price, uint _percentage) private pure returns (uint, uint){... */\n    tag_123:\n        /* \"contracts/GeekNft.sol\":3841:3845  uint */\n      0x00\n        /* \"contracts/GeekNft.sol\":3847:3851  uint */\n      dup1\n        /* \"contracts/GeekNft.sol\":3862:3871  uint fees */\n      0x00\n        /* \"contracts/GeekNft.sol\":3899:3902  100 */\n      0x64\n        /* \"contracts/GeekNft.sol\":3889:3895  _price */\n      dup6\n        /* \"contracts/GeekNft.sol\":3875:3886  _percentage */\n      dup6\n        /* \"contracts/GeekNft.sol\":3875:3895  _percentage * _price */\n      tag_164\n      swap2\n      swap1\n      tag_165\n      jump\t// in\n    tag_164:\n        /* \"contracts/GeekNft.sol\":3874:3902  (_percentage * _price) / 100 */\n      tag_166\n      swap2\n      swap1\n      tag_167\n      jump\t// in\n    tag_166:\n        /* \"contracts/GeekNft.sol\":3862:3902  uint fees = (_percentage * _price) / 100 */\n      swap1\n      pop\n        /* \"contracts/GeekNft.sol\":3912:3931  uint totalMinusFees */\n      0x00\n        /* \"contracts/GeekNft.sol\":3943:3947  fees */\n      dup2\n        /* \"contracts/GeekNft.sol\":3934:3940  _price */\n      dup7\n        /* \"contracts/GeekNft.sol\":3934:3947  _price - fees */\n      tag_168\n      swap2\n      swap1\n      tag_169\n      jump\t// in\n    tag_168:\n        /* \"contracts/GeekNft.sol\":3912:3947  uint totalMinusFees = _price - fees */\n      swap1\n      pop\n        /* \"contracts/GeekNft.sol\":3965:3969  fees */\n      dup2\n        /* \"contracts/GeekNft.sol\":3971:3985  totalMinusFees */\n      dup2\n        /* \"contracts/GeekNft.sol\":3957:3986  return (fees, totalMinusFees) */\n      swap4\n      pop\n      swap4\n      pop\n      pop\n      pop\n        /* \"contracts/GeekNft.sol\":3771:3993  function getFees(uint _price, uint _percentage) private pure returns (uint, uint){... */\n      swap3\n      pop\n      swap3\n      swap1\n      pop\n      jump\t// out\n    tag_93:\n      mload(0x40)\n      dup1\n      0x80\n      add\n      0x40\n      mstore\n      dup1\n      0x00\n      dup2\n      mstore\n      0x20\n      add\n      0x00\n      dup2\n      mstore\n      0x20\n      add\n      0x00\n      dup2\n      mstore\n      0x20\n      add\n      iszero(iszero(0x00))\n      dup2\n      mstore\n      pop\n      swap1\n      jump\t// out\n        /* \"#utility.yul\":7:146   */\n    tag_171:\n      0x00\n        /* \"#utility.yul\":91:97   */\n      dup2\n        /* \"#utility.yul\":78:98   */\n      calldataload\n        /* \"#utility.yul\":69:98   */\n      swap1\n      pop\n        /* \"#utility.yul\":107:140   */\n      tag_173\n        /* \"#utility.yul\":134:139   */\n      dup2\n        /* \"#utility.yul\":107:140   */\n      tag_174\n      jump\t// in\n    tag_173:\n        /* \"#utility.yul\":59:146   */\n      swap3\n      swap2\n      pop\n      pop\n      jump\t// out\n        /* \"#utility.yul\":152:291   */\n    tag_175:\n      0x00\n        /* \"#utility.yul\":236:242   */\n      dup2\n        /* \"#utility.yul\":223:243   */\n      calldataload\n        /* \"#utility.yul\":214:243   */\n      swap1\n      pop\n        /* \"#utility.yul\":252:285   */\n      tag_177\n        /* \"#utility.yul\":279:284   */\n      dup2\n        /* \"#utility.yul\":252:285   */\n      tag_178\n      jump\t// in\n    tag_177:\n        /* \"#utility.yul\":204:291   */\n      swap3\n      swap2\n      pop\n      pop\n      jump\t// out\n        /* \"#utility.yul\":297:559   */\n    tag_48:\n      0x00\n        /* \"#utility.yul\":405:407   */\n      0x20\n        /* \"#utility.yul\":393:402   */\n      dup3\n        /* \"#utility.yul\":384:391   */\n      dup5\n        /* \"#utility.yul\":380:403   */\n      sub\n        /* \"#utility.yul\":376:408   */\n      slt\n        /* \"#utility.yul\":373:375   */\n      iszero\n      tag_180\n      jumpi\n        /* \"#utility.yul\":421:422   */\n      0x00\n        /* \"#utility.yul\":418:419   */\n      dup1\n        /* \"#utility.yul\":411:423   */\n      revert\n        /* \"#utility.yul\":373:375   */\n    tag_180:\n        /* \"#utility.yul\":464:465   */\n      0x00\n        /* \"#utility.yul\":489:542   */\n      tag_181\n        /* \"#utility.yul\":534:541   */\n      dup5\n        /* \"#utility.yul\":525:531   */\n      dup3\n        /* \"#utility.yul\":514:523   */\n      dup6\n        /* \"#utility.yul\":510:532   */\n      add\n        /* \"#utility.yul\":489:542   */\n      tag_171\n      jump\t// in\n    tag_181:\n        /* \"#utility.yul\":479:542   */\n      swap2\n      pop\n        /* \"#utility.yul\":435:552   */\n      pop\n        /* \"#utility.yul\":363:559   */\n      swap3\n      swap2\n      pop\n      pop\n      jump\t// out\n        /* \"#utility.yul\":565:827   */\n    tag_27:\n      0x00\n        /* \"#utility.yul\":673:675   */\n      0x20\n        /* \"#utility.yul\":661:670   */\n      dup3\n        /* \"#utility.yul\":652:659   */\n      dup5\n        /* \"#utility.yul\":648:671   */\n      sub\n        /* \"#utility.yul\":644:676   */\n      slt\n        /* \"#utility.yul\":641:643   */\n      iszero\n      tag_183\n      jumpi\n        /* \"#utility.yul\":689:690   */\n      0x00\n        /* \"#utility.yul\":686:687   */\n      dup1\n        /* \"#utility.yul\":679:691   */\n      revert\n        /* \"#utility.yul\":641:643   */\n    tag_183:\n        /* \"#utility.yul\":732:733   */\n      0x00\n        /* \"#utility.yul\":757:810   */\n      tag_184\n        /* \"#utility.yul\":802:809   */\n      dup5\n        /* \"#utility.yul\":793:799   */\n      dup3\n        /* \"#utility.yul\":782:791   */\n      dup6\n        /* \"#utility.yul\":778:800   */\n      add\n        /* \"#utility.yul\":757:810   */\n      tag_175\n      jump\t// in\n    tag_184:\n        /* \"#utility.yul\":747:810   */\n      swap2\n      pop\n        /* \"#utility.yul\":703:820   */\n      pop\n        /* \"#utility.yul\":631:827   */\n      swap3\n      swap2\n      pop\n      pop\n      jump\t// out\n        /* \"#utility.yul\":833:1240   */\n    tag_61:\n      0x00\n      dup1\n        /* \"#utility.yul\":958:960   */\n      0x40\n        /* \"#utility.yul\":946:955   */\n      dup4\n        /* \"#utility.yul\":937:944   */\n      dup6\n        /* \"#utility.yul\":933:956   */\n      sub\n        /* \"#utility.yul\":929:961   */\n      slt\n        /* \"#utility.yul\":926:928   */\n      iszero\n      tag_186\n      jumpi\n        /* \"#utility.yul\":974:975   */\n      0x00\n        /* \"#utility.yul\":971:972   */\n      dup1\n        /* \"#utility.yul\":964:976   */\n      revert\n        /* \"#utility.yul\":926:928   */\n    tag_186:\n        /* \"#utility.yul\":1017:1018   */\n      0x00\n        /* \"#utility.yul\":1042:1095   */\n      tag_187\n        /* \"#utility.yul\":1087:1094   */\n      dup6\n        /* \"#utility.yul\":1078:1084   */\n      dup3\n        /* \"#utility.yul\":1067:1076   */\n      dup7\n        /* \"#utility.yul\":1063:1085   */\n      add\n        /* \"#utility.yul\":1042:1095   */\n      tag_175\n      jump\t// in\n    tag_187:\n        /* \"#utility.yul\":1032:1095   */\n      swap3\n      pop\n        /* \"#utility.yul\":988:1105   */\n      pop\n        /* \"#utility.yul\":1144:1146   */\n      0x20\n        /* \"#utility.yul\":1170:1223   */\n      tag_188\n        /* \"#utility.yul\":1215:1222   */\n      dup6\n        /* \"#utility.yul\":1206:1212   */\n      dup3\n        /* \"#utility.yul\":1195:1204   */\n      dup7\n        /* \"#utility.yul\":1191:1213   */\n      add\n        /* \"#utility.yul\":1170:1223   */\n      tag_175\n      jump\t// in\n    tag_188:\n        /* \"#utility.yul\":1160:1223   */\n      swap2\n      pop\n        /* \"#utility.yul\":1115:1233   */\n      pop\n        /* \"#utility.yul\":916:1240   */\n      swap3\n      pop\n      swap3\n      swap1\n      pop\n      jump\t// out\n        /* \"#utility.yul\":1246:1505   */\n    tag_189:\n      0x00\n        /* \"#utility.yul\":1376:1462   */\n      tag_191\n        /* \"#utility.yul\":1458:1461   */\n      dup4\n        /* \"#utility.yul\":1450:1456   */\n      dup4\n        /* \"#utility.yul\":1376:1462   */\n      tag_192\n      jump\t// in\n    tag_191:\n        /* \"#utility.yul\":1494:1498   */\n      0x80\n        /* \"#utility.yul\":1489:1492   */\n      dup4\n        /* \"#utility.yul\":1485:1499   */\n      add\n        /* \"#utility.yul\":1471:1499   */\n      swap1\n      pop\n        /* \"#utility.yul\":1366:1505   */\n      swap3\n      swap2\n      pop\n      pop\n      jump\t// out\n        /* \"#utility.yul\":1511:1629   */\n    tag_193:\n        /* \"#utility.yul\":1598:1622   */\n      tag_195\n        /* \"#utility.yul\":1616:1621   */\n      dup2\n        /* \"#utility.yul\":1598:1622   */\n      tag_196\n      jump\t// in\n    tag_195:\n        /* \"#utility.yul\":1593:1596   */\n      dup3\n        /* \"#utility.yul\":1586:1623   */\n      mstore\n        /* \"#utility.yul\":1576:1629   */\n      pop\n      pop\n      jump\t// out\n        /* \"#utility.yul\":1689:2581   */\n    tag_197:\n      0x00\n        /* \"#utility.yul\":1877:1951   */\n      tag_199\n        /* \"#utility.yul\":1945:1950   */\n      dup3\n        /* \"#utility.yul\":1877:1951   */\n      tag_200\n      jump\t// in\n    tag_199:\n        /* \"#utility.yul\":1967:2073   */\n      tag_201\n        /* \"#utility.yul\":2066:2072   */\n      dup2\n        /* \"#utility.yul\":2061:2064   */\n      dup6\n        /* \"#utility.yul\":1967:2073   */\n      tag_202\n      jump\t// in\n    tag_201:\n        /* \"#utility.yul\":1960:2073   */\n      swap4\n      pop\n        /* \"#utility.yul\":2097:2173   */\n      tag_203\n        /* \"#utility.yul\":2167:2172   */\n      dup4\n        /* \"#utility.yul\":2097:2173   */\n      tag_204\n      jump\t// in\n    tag_203:\n        /* \"#utility.yul\":2196:2203   */\n      dup1\n        /* \"#utility.yul\":2227:2228   */\n      0x00\n        /* \"#utility.yul\":2212:2556   */\n    tag_205:\n        /* \"#utility.yul\":2237:2243   */\n      dup4\n        /* \"#utility.yul\":2234:2235   */\n      dup2\n        /* \"#utility.yul\":2231:2244   */\n      lt\n        /* \"#utility.yul\":2212:2556   */\n      iszero\n      tag_207\n      jumpi\n        /* \"#utility.yul\":2313:2319   */\n      dup2\n        /* \"#utility.yul\":2307:2320   */\n      mload\n        /* \"#utility.yul\":2340:2443   */\n      tag_208\n        /* \"#utility.yul\":2439:2442   */\n      dup9\n        /* \"#utility.yul\":2424:2437   */\n      dup3\n        /* \"#utility.yul\":2340:2443   */\n      tag_189\n      jump\t// in\n    tag_208:\n        /* \"#utility.yul\":2333:2443   */\n      swap8\n      pop\n        /* \"#utility.yul\":2466:2546   */\n      tag_209\n        /* \"#utility.yul\":2539:2545   */\n      dup4\n        /* \"#utility.yul\":2466:2546   */\n      tag_210\n      jump\t// in\n    tag_209:\n        /* \"#utility.yul\":2456:2546   */\n      swap3\n      pop\n        /* \"#utility.yul\":2272:2556   */\n      pop\n        /* \"#utility.yul\":2259:2260   */\n      0x01\n        /* \"#utility.yul\":2256:2257   */\n      dup2\n        /* \"#utility.yul\":2252:2261   */\n      add\n        /* \"#utility.yul\":2247:2261   */\n      swap1\n      pop\n        /* \"#utility.yul\":2212:2556   */\n      jump(tag_205)\n    tag_207:\n        /* \"#utility.yul\":2216:2230   */\n      pop\n        /* \"#utility.yul\":2572:2575   */\n      dup6\n        /* \"#utility.yul\":2565:2575   */\n      swap4\n      pop\n        /* \"#utility.yul\":1853:2581   */\n      pop\n      pop\n      pop\n      swap3\n      swap2\n      pop\n      pop\n      jump\t// out\n        /* \"#utility.yul\":2587:2686   */\n    tag_211:\n        /* \"#utility.yul\":2658:2679   */\n      tag_213\n        /* \"#utility.yul\":2673:2678   */\n      dup2\n        /* \"#utility.yul\":2658:2679   */\n      tag_214\n      jump\t// in\n    tag_213:\n        /* \"#utility.yul\":2653:2656   */\n      dup3\n        /* \"#utility.yul\":2646:2680   */\n      mstore\n        /* \"#utility.yul\":2636:2686   */\n      pop\n      pop\n      jump\t// out\n        /* \"#utility.yul\":2692:2801   */\n    tag_215:\n        /* \"#utility.yul\":2773:2794   */\n      tag_217\n        /* \"#utility.yul\":2788:2793   */\n      dup2\n        /* \"#utility.yul\":2773:2794   */\n      tag_214\n      jump\t// in\n    tag_217:\n        /* \"#utility.yul\":2768:2771   */\n      dup3\n        /* \"#utility.yul\":2761:2795   */\n      mstore\n        /* \"#utility.yul\":2751:2801   */\n      pop\n      pop\n      jump\t// out\n        /* \"#utility.yul\":2807:3173   */\n    tag_218:\n      0x00\n        /* \"#utility.yul\":2970:3037   */\n      tag_220\n        /* \"#utility.yul\":3034:3036   */\n      0x13\n        /* \"#utility.yul\":3029:3032   */\n      dup4\n        /* \"#utility.yul\":2970:3037   */\n      tag_221\n      jump\t// in\n    tag_220:\n        /* \"#utility.yul\":2963:3037   */\n      swap2\n      pop\n        /* \"#utility.yul\":3046:3139   */\n      tag_222\n        /* \"#utility.yul\":3135:3138   */\n      dup3\n        /* \"#utility.yul\":3046:3139   */\n      tag_223\n      jump\t// in\n    tag_222:\n        /* \"#utility.yul\":3164:3166   */\n      0x20\n        /* \"#utility.yul\":3159:3162   */\n      dup3\n        /* \"#utility.yul\":3155:3167   */\n      add\n        /* \"#utility.yul\":3148:3167   */\n      swap1\n      pop\n        /* \"#utility.yul\":2953:3173   */\n      swap2\n      swap1\n      pop\n      jump\t// out\n        /* \"#utility.yul\":3179:3545   */\n    tag_224:\n      0x00\n        /* \"#utility.yul\":3342:3409   */\n      tag_226\n        /* \"#utility.yul\":3406:3408   */\n      0x13\n        /* \"#utility.yul\":3401:3404   */\n      dup4\n        /* \"#utility.yul\":3342:3409   */\n      tag_221\n      jump\t// in\n    tag_226:\n        /* \"#utility.yul\":3335:3409   */\n      swap2\n      pop\n        /* \"#utility.yul\":3418:3511   */\n      tag_227\n        /* \"#utility.yul\":3507:3510   */\n      dup3\n        /* \"#utility.yul\":3418:3511   */\n      tag_228\n      jump\t// in\n    tag_227:\n        /* \"#utility.yul\":3536:3538   */\n      0x20\n        /* \"#utility.yul\":3531:3534   */\n      dup3\n        /* \"#utility.yul\":3527:3539   */\n      add\n        /* \"#utility.yul\":3520:3539   */\n      swap1\n      pop\n        /* \"#utility.yul\":3325:3545   */\n      swap2\n      swap1\n      pop\n      jump\t// out\n        /* \"#utility.yul\":3551:3917   */\n    tag_229:\n      0x00\n        /* \"#utility.yul\":3714:3781   */\n      tag_231\n        /* \"#utility.yul\":3778:3780   */\n      0x13\n        /* \"#utility.yul\":3773:3776   */\n      dup4\n        /* \"#utility.yul\":3714:3781   */\n      tag_221\n      jump\t// in\n    tag_231:\n        /* \"#utility.yul\":3707:3781   */\n      swap2\n      pop\n        /* \"#utility.yul\":3790:3883   */\n      tag_232\n        /* \"#utility.yul\":3879:3882   */\n      dup3\n        /* \"#utility.yul\":3790:3883   */\n      tag_233\n      jump\t// in\n    tag_232:\n        /* \"#utility.yul\":3908:3910   */\n      0x20\n        /* \"#utility.yul\":3903:3906   */\n      dup3\n        /* \"#utility.yul\":3899:3911   */\n      add\n        /* \"#utility.yul\":3892:3911   */\n      swap1\n      pop\n        /* \"#utility.yul\":3697:3917   */\n      swap2\n      swap1\n      pop\n      jump\t// out\n        /* \"#utility.yul\":3923:4289   */\n    tag_234:\n      0x00\n        /* \"#utility.yul\":4086:4153   */\n      tag_236\n        /* \"#utility.yul\":4150:4152   */\n      0x1d\n        /* \"#utility.yul\":4145:4148   */\n      dup4\n        /* \"#utility.yul\":4086:4153   */\n      tag_221\n      jump\t// in\n    tag_236:\n        /* \"#utility.yul\":4079:4153   */\n      swap2\n      pop\n        /* \"#utility.yul\":4162:4255   */\n      tag_237\n        /* \"#utility.yul\":4251:4254   */\n      dup3\n        /* \"#utility.yul\":4162:4255   */\n      tag_238\n      jump\t// in\n    tag_237:\n        /* \"#utility.yul\":4280:4282   */\n      0x20\n        /* \"#utility.yul\":4275:4278   */\n      dup3\n        /* \"#utility.yul\":4271:4283   */\n      add\n        /* \"#utility.yul\":4264:4283   */\n      swap1\n      pop\n        /* \"#utility.yul\":4069:4289   */\n      swap2\n      swap1\n      pop\n      jump\t// out\n        /* \"#utility.yul\":4295:4661   */\n    tag_239:\n      0x00\n        /* \"#utility.yul\":4458:4525   */\n      tag_241\n        /* \"#utility.yul\":4522:4524   */\n      0x21\n        /* \"#utility.yul\":4517:4520   */\n      dup4\n        /* \"#utility.yul\":4458:4525   */\n      tag_221\n      jump\t// in\n    tag_241:\n        /* \"#utility.yul\":4451:4525   */\n      swap2\n      pop\n        /* \"#utility.yul\":4534:4627   */\n      tag_242\n        /* \"#utility.yul\":4623:4626   */\n      dup3\n        /* \"#utility.yul\":4534:4627   */\n      tag_243\n      jump\t// in\n    tag_242:\n        /* \"#utility.yul\":4652:4654   */\n      0x40\n        /* \"#utility.yul\":4647:4650   */\n      dup3\n        /* \"#utility.yul\":4643:4655   */\n      add\n        /* \"#utility.yul\":4636:4655   */\n      swap1\n      pop\n        /* \"#utility.yul\":4441:4661   */\n      swap2\n      swap1\n      pop\n      jump\t// out\n        /* \"#utility.yul\":4667:5033   */\n    tag_244:\n      0x00\n        /* \"#utility.yul\":4830:4897   */\n      tag_246\n        /* \"#utility.yul\":4894:4896   */\n      0x1a\n        /* \"#utility.yul\":4889:4892   */\n      dup4\n        /* \"#utility.yul\":4830:4897   */\n      tag_221\n      jump\t// in\n    tag_246:\n        /* \"#utility.yul\":4823:4897   */\n      swap2\n      pop\n        /* \"#utility.yul\":4906:4999   */\n      tag_247\n        /* \"#utility.yul\":4995:4998   */\n      dup3\n        /* \"#utility.yul\":4906:4999   */\n      tag_248\n      jump\t// in\n    tag_247:\n        /* \"#utility.yul\":5024:5026   */\n      0x20\n        /* \"#utility.yul\":5019:5022   */\n      dup3\n        /* \"#utility.yul\":5015:5027   */\n      add\n        /* \"#utility.yul\":5008:5027   */\n      swap1\n      pop\n        /* \"#utility.yul\":4813:5033   */\n      swap2\n      swap1\n      pop\n      jump\t// out\n        /* \"#utility.yul\":5089:5925   */\n    tag_192:\n        /* \"#utility.yul\":5216:5220   */\n      0x80\n        /* \"#utility.yul\":5211:5214   */\n      dup3\n        /* \"#utility.yul\":5207:5221   */\n      add\n        /* \"#utility.yul\":5306:5310   */\n      0x00\n        /* \"#utility.yul\":5299:5304   */\n      dup3\n        /* \"#utility.yul\":5295:5311   */\n      add\n        /* \"#utility.yul\":5289:5312   */\n      mload\n        /* \"#utility.yul\":5325:5388   */\n      tag_250\n        /* \"#utility.yul\":5382:5386   */\n      0x00\n        /* \"#utility.yul\":5377:5380   */\n      dup6\n        /* \"#utility.yul\":5373:5387   */\n      add\n        /* \"#utility.yul\":5359:5371   */\n      dup3\n        /* \"#utility.yul\":5325:5388   */\n      tag_251\n      jump\t// in\n    tag_250:\n        /* \"#utility.yul\":5231:5398   */\n      pop\n        /* \"#utility.yul\":5481:5485   */\n      0x20\n        /* \"#utility.yul\":5474:5479   */\n      dup3\n        /* \"#utility.yul\":5470:5486   */\n      add\n        /* \"#utility.yul\":5464:5487   */\n      mload\n        /* \"#utility.yul\":5500:5563   */\n      tag_252\n        /* \"#utility.yul\":5557:5561   */\n      0x20\n        /* \"#utility.yul\":5552:5555   */\n      dup6\n        /* \"#utility.yul\":5548:5562   */\n      add\n        /* \"#utility.yul\":5534:5546   */\n      dup3\n        /* \"#utility.yul\":5500:5563   */\n      tag_251\n      jump\t// in\n    tag_252:\n        /* \"#utility.yul\":5408:5573   */\n      pop\n        /* \"#utility.yul\":5656:5660   */\n      0x40\n        /* \"#utility.yul\":5649:5654   */\n      dup3\n        /* \"#utility.yul\":5645:5661   */\n      add\n        /* \"#utility.yul\":5639:5662   */\n      mload\n        /* \"#utility.yul\":5675:5738   */\n      tag_253\n        /* \"#utility.yul\":5732:5736   */\n      0x40\n        /* \"#utility.yul\":5727:5730   */\n      dup6\n        /* \"#utility.yul\":5723:5737   */\n      add\n        /* \"#utility.yul\":5709:5721   */\n      dup3\n        /* \"#utility.yul\":5675:5738   */\n      tag_251\n      jump\t// in\n    tag_253:\n        /* \"#utility.yul\":5583:5748   */\n      pop\n        /* \"#utility.yul\":5832:5836   */\n      0x60\n        /* \"#utility.yul\":5825:5830   */\n      dup3\n        /* \"#utility.yul\":5821:5837   */\n      add\n        /* \"#utility.yul\":5815:5838   */\n      mload\n        /* \"#utility.yul\":5851:5908   */\n      tag_254\n        /* \"#utility.yul\":5902:5906   */\n      0x60\n        /* \"#utility.yul\":5897:5900   */\n      dup6\n        /* \"#utility.yul\":5893:5907   */\n      add\n        /* \"#utility.yul\":5879:5891   */\n      dup3\n        /* \"#utility.yul\":5851:5908   */\n      tag_211\n      jump\t// in\n    tag_254:\n        /* \"#utility.yul\":5758:5918   */\n      pop\n        /* \"#utility.yul\":5185:5925   */\n      pop\n      pop\n      pop\n      jump\t// out\n        /* \"#utility.yul\":5931:6039   */\n    tag_251:\n        /* \"#utility.yul\":6008:6032   */\n      tag_256\n        /* \"#utility.yul\":6026:6031   */\n      dup2\n        /* \"#utility.yul\":6008:6032   */\n      tag_257\n      jump\t// in\n    tag_256:\n        /* \"#utility.yul\":6003:6006   */\n      dup3\n        /* \"#utility.yul\":5996:6033   */\n      mstore\n        /* \"#utility.yul\":5986:6039   */\n      pop\n      pop\n      jump\t// out\n        /* \"#utility.yul\":6045:6163   */\n    tag_258:\n        /* \"#utility.yul\":6132:6156   */\n      tag_260\n        /* \"#utility.yul\":6150:6155   */\n      dup2\n        /* \"#utility.yul\":6132:6156   */\n      tag_257\n      jump\t// in\n    tag_260:\n        /* \"#utility.yul\":6127:6130   */\n      dup3\n        /* \"#utility.yul\":6120:6157   */\n      mstore\n        /* \"#utility.yul\":6110:6163   */\n      pop\n      pop\n      jump\t// out\n        /* \"#utility.yul\":6169:6391   */\n    tag_30:\n      0x00\n        /* \"#utility.yul\":6300:6302   */\n      0x20\n        /* \"#utility.yul\":6289:6298   */\n      dup3\n        /* \"#utility.yul\":6285:6303   */\n      add\n        /* \"#utility.yul\":6277:6303   */\n      swap1\n      pop\n        /* \"#utility.yul\":6313:6384   */\n      tag_262\n        /* \"#utility.yul\":6381:6382   */\n      0x00\n        /* \"#utility.yul\":6370:6379   */\n      dup4\n        /* \"#utility.yul\":6366:6383   */\n      add\n        /* \"#utility.yul\":6357:6363   */\n      dup5\n        /* \"#utility.yul\":6313:6384   */\n      tag_193\n      jump\t// in\n    tag_262:\n        /* \"#utility.yul\":6267:6391   */\n      swap3\n      swap2\n      pop\n      pop\n      jump\t// out\n        /* \"#utility.yul\":6397:6850   */\n    tag_23:\n      0x00\n        /* \"#utility.yul\":6618:6620   */\n      0x20\n        /* \"#utility.yul\":6607:6616   */\n      dup3\n        /* \"#utility.yul\":6603:6621   */\n      add\n        /* \"#utility.yul\":6595:6621   */\n      swap1\n      pop\n        /* \"#utility.yul\":6667:6676   */\n      dup2\n        /* \"#utility.yul\":6661:6665   */\n      dup2\n        /* \"#utility.yul\":6657:6677   */\n      sub\n        /* \"#utility.yul\":6653:6654   */\n      0x00\n        /* \"#utility.yul\":6642:6651   */\n      dup4\n        /* \"#utility.yul\":6638:6655   */\n      add\n        /* \"#utility.yul\":6631:6678   */\n      mstore\n        /* \"#utility.yul\":6695:6843   */\n      tag_264\n        /* \"#utility.yul\":6838:6842   */\n      dup2\n        /* \"#utility.yul\":6829:6835   */\n      dup5\n        /* \"#utility.yul\":6695:6843   */\n      tag_197\n      jump\t// in\n    tag_264:\n        /* \"#utility.yul\":6687:6843   */\n      swap1\n      pop\n        /* \"#utility.yul\":6585:6850   */\n      swap3\n      swap2\n      pop\n      pop\n      jump\t// out\n        /* \"#utility.yul\":6856:7275   */\n    tag_140:\n      0x00\n        /* \"#utility.yul\":7060:7062   */\n      0x20\n        /* \"#utility.yul\":7049:7058   */\n      dup3\n        /* \"#utility.yul\":7045:7063   */\n      add\n        /* \"#utility.yul\":7037:7063   */\n      swap1\n      pop\n        /* \"#utility.yul\":7109:7118   */\n      dup2\n        /* \"#utility.yul\":7103:7107   */\n      dup2\n        /* \"#utility.yul\":7099:7119   */\n      sub\n        /* \"#utility.yul\":7095:7096   */\n      0x00\n        /* \"#utility.yul\":7084:7093   */\n      dup4\n        /* \"#utility.yul\":7080:7097   */\n      add\n        /* \"#utility.yul\":7073:7120   */\n      mstore\n        /* \"#utility.yul\":7137:7268   */\n      tag_266\n        /* \"#utility.yul\":7263:7267   */\n      dup2\n        /* \"#utility.yul\":7137:7268   */\n      tag_218\n      jump\t// in\n    tag_266:\n        /* \"#utility.yul\":7129:7268   */\n      swap1\n      pop\n        /* \"#utility.yul\":7027:7275   */\n      swap2\n      swap1\n      pop\n      jump\t// out\n        /* \"#utility.yul\":7281:7700   */\n    tag_149:\n      0x00\n        /* \"#utility.yul\":7485:7487   */\n      0x20\n        /* \"#utility.yul\":7474:7483   */\n      dup3\n        /* \"#utility.yul\":7470:7488   */\n      add\n        /* \"#utility.yul\":7462:7488   */\n      swap1\n      pop\n        /* \"#utility.yul\":7534:7543   */\n      dup2\n        /* \"#utility.yul\":7528:7532   */\n      dup2\n        /* \"#utility.yul\":7524:7544   */\n      sub\n        /* \"#utility.yul\":7520:7521   */\n      0x00\n        /* \"#utility.yul\":7509:7518   */\n      dup4\n        /* \"#utility.yul\":7505:7522   */\n      add\n        /* \"#utility.yul\":7498:7545   */\n      mstore\n        /* \"#utility.yul\":7562:7693   */\n      tag_268\n        /* \"#utility.yul\":7688:7692   */\n      dup2\n        /* \"#utility.yul\":7562:7693   */\n      tag_224\n      jump\t// in\n    tag_268:\n        /* \"#utility.yul\":7554:7693   */\n      swap1\n      pop\n        /* \"#utility.yul\":7452:7700   */\n      swap2\n      swap1\n      pop\n      jump\t// out\n        /* \"#utility.yul\":7706:8125   */\n    tag_119:\n      0x00\n        /* \"#utility.yul\":7910:7912   */\n      0x20\n        /* \"#utility.yul\":7899:7908   */\n      dup3\n        /* \"#utility.yul\":7895:7913   */\n      add\n        /* \"#utility.yul\":7887:7913   */\n      swap1\n      pop\n        /* \"#utility.yul\":7959:7968   */\n      dup2\n        /* \"#utility.yul\":7953:7957   */\n      dup2\n        /* \"#utility.yul\":7949:7969   */\n      sub\n        /* \"#utility.yul\":7945:7946   */\n      0x00\n        /* \"#utility.yul\":7934:7943   */\n      dup4\n        /* \"#utility.yul\":7930:7947   */\n      add\n        /* \"#utility.yul\":7923:7970   */\n      mstore\n        /* \"#utility.yul\":7987:8118   */\n      tag_270\n        /* \"#utility.yul\":8113:8117   */\n      dup2\n        /* \"#utility.yul\":7987:8118   */\n      tag_229\n      jump\t// in\n    tag_270:\n        /* \"#utility.yul\":7979:8118   */\n      swap1\n      pop\n        /* \"#utility.yul\":7877:8125   */\n      swap2\n      swap1\n      pop\n      jump\t// out\n        /* \"#utility.yul\":8131:8550   */\n    tag_132:\n      0x00\n        /* \"#utility.yul\":8335:8337   */\n      0x20\n        /* \"#utility.yul\":8324:8333   */\n      dup3\n        /* \"#utility.yul\":8320:8338   */\n      add\n        /* \"#utility.yul\":8312:8338   */\n      swap1\n      pop\n        /* \"#utility.yul\":8384:8393   */\n      dup2\n        /* \"#utility.yul\":8378:8382   */\n      dup2\n        /* \"#utility.yul\":8374:8394   */\n      sub\n        /* \"#utility.yul\":8370:8371   */\n      0x00\n        /* \"#utility.yul\":8359:8368   */\n      dup4\n        /* \"#utility.yul\":8355:8372   */\n      add\n        /* \"#utility.yul\":8348:8395   */\n      mstore\n        /* \"#utility.yul\":8412:8543   */\n      tag_272\n        /* \"#utility.yul\":8538:8542   */\n      dup2\n        /* \"#utility.yul\":8412:8543   */\n      tag_234\n      jump\t// in\n    tag_272:\n        /* \"#utility.yul\":8404:8543   */\n      swap1\n      pop\n        /* \"#utility.yul\":8302:8550   */\n      swap2\n      swap1\n      pop\n      jump\t// out\n        /* \"#utility.yul\":8556:8975   */\n    tag_109:\n      0x00\n        /* \"#utility.yul\":8760:8762   */\n      0x20\n        /* \"#utility.yul\":8749:8758   */\n      dup3\n        /* \"#utility.yul\":8745:8763   */\n      add\n        /* \"#utility.yul\":8737:8763   */\n      swap1\n      pop\n        /* \"#utility.yul\":8809:8818   */\n      dup2\n        /* \"#utility.yul\":8803:8807   */\n      dup2\n        /* \"#utility.yul\":8799:8819   */\n      sub\n        /* \"#utility.yul\":8795:8796   */\n      0x00\n        /* \"#utility.yul\":8784:8793   */\n      dup4\n        /* \"#utility.yul\":8780:8797   */\n      add\n        /* \"#utility.yul\":8773:8820   */\n      mstore\n        /* \"#utility.yul\":8837:8968   */\n      tag_274\n        /* \"#utility.yul\":8963:8967   */\n      dup2\n        /* \"#utility.yul\":8837:8968   */\n      tag_239\n      jump\t// in\n    tag_274:\n        /* \"#utility.yul\":8829:8968   */\n      swap1\n      pop\n        /* \"#utility.yul\":8727:8975   */\n      swap2\n      swap1\n      pop\n      jump\t// out\n        /* \"#utility.yul\":8981:9400   */\n    tag_146:\n      0x00\n        /* \"#utility.yul\":9185:9187   */\n      0x20\n        /* \"#utility.yul\":9174:9183   */\n      dup3\n        /* \"#utility.yul\":9170:9188   */\n      add\n        /* \"#utility.yul\":9162:9188   */\n      swap1\n      pop\n        /* \"#utility.yul\":9234:9243   */\n      dup2\n        /* \"#utility.yul\":9228:9232   */\n      dup2\n        /* \"#utility.yul\":9224:9244   */\n      sub\n        /* \"#utility.yul\":9220:9221   */\n      0x00\n        /* \"#utility.yul\":9209:9218   */\n      dup4\n        /* \"#utility.yul\":9205:9222   */\n      add\n        /* \"#utility.yul\":9198:9245   */\n      mstore\n        /* \"#utility.yul\":9262:9393   */\n      tag_276\n        /* \"#utility.yul\":9388:9392   */\n      dup2\n        /* \"#utility.yul\":9262:9393   */\n      tag_244\n      jump\t// in\n    tag_276:\n        /* \"#utility.yul\":9254:9393   */\n      swap1\n      pop\n        /* \"#utility.yul\":9152:9400   */\n      swap2\n      swap1\n      pop\n      jump\t// out\n        /* \"#utility.yul\":9406:9628   */\n    tag_39:\n      0x00\n        /* \"#utility.yul\":9537:9539   */\n      0x20\n        /* \"#utility.yul\":9526:9535   */\n      dup3\n        /* \"#utility.yul\":9522:9540   */\n      add\n        /* \"#utility.yul\":9514:9540   */\n      swap1\n      pop\n        /* \"#utility.yul\":9550:9621   */\n      tag_278\n        /* \"#utility.yul\":9618:9619   */\n      0x00\n        /* \"#utility.yul\":9607:9616   */\n      dup4\n        /* \"#utility.yul\":9603:9620   */\n      add\n        /* \"#utility.yul\":9594:9600   */\n      dup5\n        /* \"#utility.yul\":9550:9621   */\n      tag_258\n      jump\t// in\n    tag_278:\n        /* \"#utility.yul\":9504:9628   */\n      swap3\n      swap2\n      pop\n      pop\n      jump\t// out\n        /* \"#utility.yul\":9634:10175   */\n    tag_69:\n      0x00\n        /* \"#utility.yul\":9843:9846   */\n      0x80\n        /* \"#utility.yul\":9832:9841   */\n      dup3\n        /* \"#utility.yul\":9828:9847   */\n      add\n        /* \"#utility.yul\":9820:9847   */\n      swap1\n      pop\n        /* \"#utility.yul\":9857:9928   */\n      tag_280\n        /* \"#utility.yul\":9925:9926   */\n      0x00\n        /* \"#utility.yul\":9914:9923   */\n      dup4\n        /* \"#utility.yul\":9910:9927   */\n      add\n        /* \"#utility.yul\":9901:9907   */\n      dup8\n        /* \"#utility.yul\":9857:9928   */\n      tag_258\n      jump\t// in\n    tag_280:\n        /* \"#utility.yul\":9938:10010   */\n      tag_281\n        /* \"#utility.yul\":10006:10008   */\n      0x20\n        /* \"#utility.yul\":9995:10004   */\n      dup4\n        /* \"#utility.yul\":9991:10009   */\n      add\n        /* \"#utility.yul\":9982:9988   */\n      dup7\n        /* \"#utility.yul\":9938:10010   */\n      tag_258\n      jump\t// in\n    tag_281:\n        /* \"#utility.yul\":10020:10092   */\n      tag_282\n        /* \"#utility.yul\":10088:10090   */\n      0x40\n        /* \"#utility.yul\":10077:10086   */\n      dup4\n        /* \"#utility.yul\":10073:10091   */\n      add\n        /* \"#utility.yul\":10064:10070   */\n      dup6\n        /* \"#utility.yul\":10020:10092   */\n      tag_258\n      jump\t// in\n    tag_282:\n        /* \"#utility.yul\":10102:10168   */\n      tag_283\n        /* \"#utility.yul\":10164:10166   */\n      0x60\n        /* \"#utility.yul\":10153:10162   */\n      dup4\n        /* \"#utility.yul\":10149:10167   */\n      add\n        /* \"#utility.yul\":10140:10146   */\n      dup5\n        /* \"#utility.yul\":10102:10168   */\n      tag_215\n      jump\t// in\n    tag_283:\n        /* \"#utility.yul\":9810:10175   */\n      swap6\n      swap5\n      pop\n      pop\n      pop\n      pop\n      pop\n      jump\t// out\n        /* \"#utility.yul\":10181:10333   */\n    tag_204:\n      0x00\n        /* \"#utility.yul\":10291:10294   */\n      dup2\n        /* \"#utility.yul\":10283:10294   */\n      swap1\n      pop\n        /* \"#utility.yul\":10321:10325   */\n      0x20\n        /* \"#utility.yul\":10316:10319   */\n      dup3\n        /* \"#utility.yul\":10312:10326   */\n      add\n        /* \"#utility.yul\":10304:10326   */\n      swap1\n      pop\n        /* \"#utility.yul\":10273:10333   */\n      swap2\n      swap1\n      pop\n      jump\t// out\n        /* \"#utility.yul\":10339:10473   */\n    tag_200:\n      0x00\n        /* \"#utility.yul\":10460:10465   */\n      dup2\n        /* \"#utility.yul\":10454:10466   */\n      mload\n        /* \"#utility.yul\":10444:10466   */\n      swap1\n      pop\n        /* \"#utility.yul\":10433:10473   */\n      swap2\n      swap1\n      pop\n      jump\t// out\n        /* \"#utility.yul\":10479:10612   */\n    tag_210:\n      0x00\n        /* \"#utility.yul\":10601:10605   */\n      0x20\n        /* \"#utility.yul\":10596:10599   */\n      dup3\n        /* \"#utility.yul\":10592:10606   */\n      add\n        /* \"#utility.yul\":10584:10606   */\n      swap1\n      pop\n        /* \"#utility.yul\":10574:10612   */\n      swap2\n      swap1\n      pop\n      jump\t// out\n        /* \"#utility.yul\":10618:10822   */\n    tag_202:\n      0x00\n        /* \"#utility.yul\":10771:10777   */\n      dup3\n        /* \"#utility.yul\":10766:10769   */\n      dup3\n        /* \"#utility.yul\":10759:10778   */\n      mstore\n        /* \"#utility.yul\":10811:10815   */\n      0x20\n        /* \"#utility.yul\":10806:10809   */\n      dup3\n        /* \"#utility.yul\":10802:10816   */\n      add\n        /* \"#utility.yul\":10787:10816   */\n      swap1\n      pop\n        /* \"#utility.yul\":10749:10822   */\n      swap3\n      swap2\n      pop\n      pop\n      jump\t// out\n        /* \"#utility.yul\":10828:10997   */\n    tag_221:\n      0x00\n        /* \"#utility.yul\":10946:10952   */\n      dup3\n        /* \"#utility.yul\":10941:10944   */\n      dup3\n        /* \"#utility.yul\":10934:10953   */\n      mstore\n        /* \"#utility.yul\":10986:10990   */\n      0x20\n        /* \"#utility.yul\":10981:10984   */\n      dup3\n        /* \"#utility.yul\":10977:10991   */\n      add\n        /* \"#utility.yul\":10962:10991   */\n      swap1\n      pop\n        /* \"#utility.yul\":10924:10997   */\n      swap3\n      swap2\n      pop\n      pop\n      jump\t// out\n        /* \"#utility.yul\":11003:11188   */\n    tag_167:\n      0x00\n        /* \"#utility.yul\":11060:11080   */\n      tag_290\n        /* \"#utility.yul\":11078:11079   */\n      dup3\n        /* \"#utility.yul\":11060:11080   */\n      tag_257\n      jump\t// in\n    tag_290:\n        /* \"#utility.yul\":11055:11080   */\n      swap2\n      pop\n        /* \"#utility.yul\":11094:11114   */\n      tag_291\n        /* \"#utility.yul\":11112:11113   */\n      dup4\n        /* \"#utility.yul\":11094:11114   */\n      tag_257\n      jump\t// in\n    tag_291:\n        /* \"#utility.yul\":11089:11114   */\n      swap3\n      pop\n        /* \"#utility.yul\":11133:11134   */\n      dup3\n        /* \"#utility.yul\":11123:11125   */\n      tag_292\n      jumpi\n        /* \"#utility.yul\":11138:11156   */\n      tag_293\n      tag_294\n      jump\t// in\n    tag_293:\n        /* \"#utility.yul\":11123:11125   */\n    tag_292:\n        /* \"#utility.yul\":11180:11181   */\n      dup3\n        /* \"#utility.yul\":11177:11178   */\n      dup3\n        /* \"#utility.yul\":11173:11182   */\n      div\n        /* \"#utility.yul\":11168:11182   */\n      swap1\n      pop\n        /* \"#utility.yul\":11045:11188   */\n      swap3\n      swap2\n      pop\n      pop\n      jump\t// out\n        /* \"#utility.yul\":11194:11542   */\n    tag_165:\n      0x00\n        /* \"#utility.yul\":11257:11277   */\n      tag_296\n        /* \"#utility.yul\":11275:11276   */\n      dup3\n        /* \"#utility.yul\":11257:11277   */\n      tag_257\n      jump\t// in\n    tag_296:\n        /* \"#utility.yul\":11252:11277   */\n      swap2\n      pop\n        /* \"#utility.yul\":11291:11311   */\n      tag_297\n        /* \"#utility.yul\":11309:11310   */\n      dup4\n        /* \"#utility.yul\":11291:11311   */\n      tag_257\n      jump\t// in\n    tag_297:\n        /* \"#utility.yul\":11286:11311   */\n      swap3\n      pop\n        /* \"#utility.yul\":11479:11480   */\n      dup2\n        /* \"#utility.yul\":11411:11477   */\n      0xffffffffffffffffffffffffffffffffffffffffffffffffffffffffffffffff\n        /* \"#utility.yul\":11407:11481   */\n      div\n        /* \"#utility.yul\":11404:11405   */\n      dup4\n        /* \"#utility.yul\":11401:11482   */\n      gt\n        /* \"#utility.yul\":11396:11397   */\n      dup3\n        /* \"#utility.yul\":11389:11398   */\n      iszero\n        /* \"#utility.yul\":11382:11399   */\n      iszero\n        /* \"#utility.yul\":11378:11483   */\n      and\n        /* \"#utility.yul\":11375:11377   */\n      iszero\n      tag_298\n      jumpi\n        /* \"#utility.yul\":11486:11504   */\n      tag_299\n      tag_300\n      jump\t// in\n    tag_299:\n        /* \"#utility.yul\":11375:11377   */\n    tag_298:\n        /* \"#utility.yul\":11534:11535   */\n      dup3\n        /* \"#utility.yul\":11531:11532   */\n      dup3\n        /* \"#utility.yul\":11527:11536   */\n      mul\n        /* \"#utility.yul\":11516:11536   */\n      swap1\n      pop\n        /* \"#utility.yul\":11242:11542   */\n      swap3\n      swap2\n      pop\n      pop\n      jump\t// out\n        /* \"#utility.yul\":11548:11739   */\n    tag_169:\n      0x00\n        /* \"#utility.yul\":11608:11628   */\n      tag_302\n        /* \"#utility.yul\":11626:11627   */\n      dup3\n        /* \"#utility.yul\":11608:11628   */\n      tag_257\n      jump\t// in\n    tag_302:\n        /* \"#utility.yul\":11603:11628   */\n      swap2\n      pop\n        /* \"#utility.yul\":11642:11662   */\n      tag_303\n        /* \"#utility.yul\":11660:11661   */\n      dup4\n        /* \"#utility.yul\":11642:11662   */\n      tag_257\n      jump\t// in\n    tag_303:\n        /* \"#utility.yul\":11637:11662   */\n      swap3\n      pop\n        /* \"#utility.yul\":11681:11682   */\n      dup3\n        /* \"#utility.yul\":11678:11679   */\n      dup3\n        /* \"#utility.yul\":11675:11683   */\n      lt\n        /* \"#utility.yul\":11672:11674   */\n      iszero\n      tag_304\n      jumpi\n        /* \"#utility.yul\":11686:11704   */\n      tag_305\n      tag_300\n      jump\t// in\n    tag_305:\n        /* \"#utility.yul\":11672:11674   */\n    tag_304:\n        /* \"#utility.yul\":11731:11732   */\n      dup3\n        /* \"#utility.yul\":11728:11729   */\n      dup3\n        /* \"#utility.yul\":11724:11733   */\n      sub\n        /* \"#utility.yul\":11716:11733   */\n      swap1\n      pop\n        /* \"#utility.yul\":11593:11739   */\n      swap3\n      swap2\n      pop\n      pop\n      jump\t// out\n        /* \"#utility.yul\":11745:11841   */\n    tag_196:\n      0x00\n        /* \"#utility.yul\":11811:11835   */\n      tag_307\n        /* \"#utility.yul\":11829:11834   */\n      dup3\n        /* \"#utility.yul\":11811:11835   */\n      tag_308\n      jump\t// in\n    tag_307:\n        /* \"#utility.yul\":11800:11835   */\n      swap1\n      pop\n        /* \"#utility.yul\":11790:11841   */\n      swap2\n      swap1\n      pop\n      jump\t// out\n        /* \"#utility.yul\":11847:11937   */\n    tag_214:\n      0x00\n        /* \"#utility.yul\":11924:11929   */\n      dup2\n        /* \"#utility.yul\":11917:11930   */\n      iszero\n        /* \"#utility.yul\":11910:11931   */\n      iszero\n        /* \"#utility.yul\":11899:11931   */\n      swap1\n      pop\n        /* \"#utility.yul\":11889:11937   */\n      swap2\n      swap1\n      pop\n      jump\t// out\n        /* \"#utility.yul\":11943:12069   */\n    tag_308:\n      0x00\n        /* \"#utility.yul\":12020:12062   */\n      0xffffffffffffffffffffffffffffffffffffffff\n        /* \"#utility.yul\":12013:12018   */\n      dup3\n        /* \"#utility.yul\":12009:12063   */\n      and\n        /* \"#utility.yul\":11998:12063   */\n      swap1\n      pop\n        /* \"#utility.yul\":11988:12069   */\n      swap2\n      swap1\n      pop\n      jump\t// out\n        /* \"#utility.yul\":12075:12152   */\n    tag_257:\n      0x00\n        /* \"#utility.yul\":12141:12146   */\n      dup2\n        /* \"#utility.yul\":12130:12146   */\n      swap1\n      pop\n        /* \"#utility.yul\":12120:12152   */\n      swap2\n      swap1\n      pop\n      jump\t// out\n        /* \"#utility.yul\":12158:12391   */\n    tag_104:\n      0x00\n        /* \"#utility.yul\":12220:12244   */\n      tag_313\n        /* \"#utility.yul\":12238:12243   */\n      dup3\n        /* \"#utility.yul\":12220:12244   */\n      tag_257\n      jump\t// in\n    tag_313:\n        /* \"#utility.yul\":12211:12244   */\n      swap2\n      pop\n        /* \"#utility.yul\":12266:12332   */\n      0xffffffffffffffffffffffffffffffffffffffffffffffffffffffffffffffff\n        /* \"#utility.yul\":12259:12264   */\n      dup3\n        /* \"#utility.yul\":12256:12333   */\n      eq\n        /* \"#utility.yul\":12253:12255   */\n      iszero\n      tag_314\n      jumpi\n        /* \"#utility.yul\":12336:12354   */\n      tag_315\n      tag_300\n      jump\t// in\n    tag_315:\n        /* \"#utility.yul\":12253:12255   */\n    tag_314:\n        /* \"#utility.yul\":12383:12384   */\n      0x01\n        /* \"#utility.yul\":12376:12381   */\n      dup3\n        /* \"#utility.yul\":12372:12385   */\n      add\n        /* \"#utility.yul\":12365:12385   */\n      swap1\n      pop\n        /* \"#utility.yul\":12201:12391   */\n      swap2\n      swap1\n      pop\n      jump\t// out\n        /* \"#utility.yul\":12397:12577   */\n    tag_300:\n        /* \"#utility.yul\":12445:12522   */\n      0x4e487b7100000000000000000000000000000000000000000000000000000000\n        /* \"#utility.yul\":12442:12443   */\n      0x00\n        /* \"#utility.yul\":12435:12523   */\n      mstore\n        /* \"#utility.yul\":12542:12546   */\n      0x11\n        /* \"#utility.yul\":12539:12540   */\n      0x04\n        /* \"#utility.yul\":12532:12547   */\n      mstore\n        /* \"#utility.yul\":12566:12570   */\n      0x24\n        /* \"#utility.yul\":12563:12564   */\n      0x00\n        /* \"#utility.yul\":12556:12571   */\n      revert\n        /* \"#utility.yul\":12583:12763   */\n    tag_294:\n        /* \"#utility.yul\":12631:12708   */\n      0x4e487b7100000000000000000000000000000000000000000000000000000000\n        /* \"#utility.yul\":12628:12629   */\n      0x00\n        /* \"#utility.yul\":12621:12709   */\n      mstore\n        /* \"#utility.yul\":12728:12732   */\n      0x12\n        /* \"#utility.yul\":12725:12726   */\n      0x04\n        /* \"#utility.yul\":12718:12733   */\n      mstore\n        /* \"#utility.yul\":12752:12756   */\n      0x24\n        /* \"#utility.yul\":12749:12750   */\n      0x00\n        /* \"#utility.yul\":12742:12757   */\n      revert\n        /* \"#utility.yul\":12769:12938   */\n    tag_223:\n        /* \"#utility.yul\":12909:12930   */\n      0x746f6b656e2069736e277420746f2073656c6c00000000000000000000000000\n        /* \"#utility.yul\":12905:12906   */\n      0x00\n        /* \"#utility.yul\":12897:12903   */\n      dup3\n        /* \"#utility.yul\":12893:12907   */\n      add\n        /* \"#utility.yul\":12886:12931   */\n      mstore\n        /* \"#utility.yul\":12875:12938   */\n      pop\n      jump\t// out\n        /* \"#utility.yul\":12944:13113   */\n    tag_228:\n        /* \"#utility.yul\":13084:13105   */\n      0x746f6b656e20616c726561647920657869737400000000000000000000000000\n        /* \"#utility.yul\":13080:13081   */\n      0x00\n        /* \"#utility.yul\":13072:13078   */\n      dup3\n        /* \"#utility.yul\":13068:13082   */\n      add\n        /* \"#utility.yul\":13061:13106   */\n      mstore\n        /* \"#utility.yul\":13050:13113   */\n      pop\n      jump\t// out\n        /* \"#utility.yul\":13119:13288   */\n    tag_233:\n        /* \"#utility.yul\":13259:13280   */\n      0x746f6b656e20646f65736e277420657869737400000000000000000000000000\n        /* \"#utility.yul\":13255:13256   */\n      0x00\n        /* \"#utility.yul\":13247:13253   */\n      dup3\n        /* \"#utility.yul\":13243:13257   */\n      add\n        /* \"#utility.yul\":13236:13281   */\n      mstore\n        /* \"#utility.yul\":13225:13288   */\n      pop\n      jump\t// out\n        /* \"#utility.yul\":13294:13473   */\n    tag_238:\n        /* \"#utility.yul\":13434:13465   */\n      0x4f6e6c79206974656d2773206f776e65722063616e20646f2074686174000000\n        /* \"#utility.yul\":13430:13431   */\n      0x00\n        /* \"#utility.yul\":13422:13428   */\n      dup3\n        /* \"#utility.yul\":13418:13432   */\n      add\n        /* \"#utility.yul\":13411:13466   */\n      mstore\n        /* \"#utility.yul\":13400:13473   */\n      pop\n      jump\t// out\n        /* \"#utility.yul\":13479:13699   */\n    tag_243:\n        /* \"#utility.yul\":13619:13653   */\n      0x4f6e6c7920636f6e74726163742773206f776e65722063616e20646f20746861\n        /* \"#utility.yul\":13615:13616   */\n      0x00\n        /* \"#utility.yul\":13607:13613   */\n      dup3\n        /* \"#utility.yul\":13603:13617   */\n      add\n        /* \"#utility.yul\":13596:13654   */\n      mstore\n        /* \"#utility.yul\":13688:13691   */\n      0x7400000000000000000000000000000000000000000000000000000000000000\n        /* \"#utility.yul\":13683:13685   */\n      0x20\n        /* \"#utility.yul\":13675:13681   */\n      dup3\n        /* \"#utility.yul\":13671:13686   */\n      add\n        /* \"#utility.yul\":13664:13692   */\n      mstore\n        /* \"#utility.yul\":13585:13699   */\n      pop\n      jump\t// out\n        /* \"#utility.yul\":13705:13881   */\n    tag_248:\n        /* \"#utility.yul\":13845:13873   */\n      0x50726963652063616e6e6f7420626520657175616c20746f2030000000000000\n        /* \"#utility.yul\":13841:13842   */\n      0x00\n        /* \"#utility.yul\":13833:13839   */\n      dup3\n        /* \"#utility.yul\":13829:13843   */\n      add\n        /* \"#utility.yul\":13822:13874   */\n      mstore\n        /* \"#utility.yul\":13811:13881   */\n      pop\n      jump\t// out\n        /* \"#utility.yul\":13887:14009   */\n    tag_174:\n        /* \"#utility.yul\":13960:13984   */\n      tag_325\n        /* \"#utility.yul\":13978:13983   */\n      dup2\n        /* \"#utility.yul\":13960:13984   */\n      tag_196\n      jump\t// in\n    tag_325:\n        /* \"#utility.yul\":13953:13958   */\n      dup2\n        /* \"#utility.yul\":13950:13985   */\n      eq\n        /* \"#utility.yul\":13940:13942   */\n      tag_326\n      jumpi\n        /* \"#utility.yul\":13999:14000   */\n      0x00\n        /* \"#utility.yul\":13996:13997   */\n      dup1\n        /* \"#utility.yul\":13989:14001   */\n      revert\n        /* \"#utility.yul\":13940:13942   */\n    tag_326:\n        /* \"#utility.yul\":13930:14009   */\n      pop\n      jump\t// out\n        /* \"#utility.yul\":14015:14137   */\n    tag_178:\n        /* \"#utility.yul\":14088:14112   */\n      tag_328\n        /* \"#utility.yul\":14106:14111   */\n      dup2\n        /* \"#utility.yul\":14088:14112   */\n      tag_257\n      jump\t// in\n    tag_328:\n        /* \"#utility.yul\":14081:14086   */\n      dup2\n        /* \"#utility.yul\":14078:14113   */\n      eq\n        /* \"#utility.yul\":14068:14070   */\n      tag_329\n      jumpi\n        /* \"#utility.yul\":14127:14128   */\n      0x00\n        /* \"#utility.yul\":14124:14125   */\n      dup1\n        /* \"#utility.yul\":14117:14129   */\n      revert\n        /* \"#utility.yul\":14068:14070   */\n    tag_329:\n        /* \"#utility.yul\":14058:14137   */\n      pop\n      jump\t// out\n\n    auxdata: 0xa26469706673582212206ea22a005e6231674cdff96917fd785fedde411e3077816f58ab9b0e06f949db64736f6c63430008010033\n}\n",
				"bytecode": {
					"linkReferences": {},
					"object": "60806040523480156200001157600080fd5b5033600260006101000a81548173ffffffffffffffffffffffffffffffffffffffff021916908373ffffffffffffffffffffffffffffffffffffffff1602179055506040518060400160405280600b81526020017f4765656b20546f6b656e7300000000000000000000000000000000000000000081525060009080519060200190620000a0929190620000f5565b506040518060400160405280600581526020017f4745454b5400000000000000000000000000000000000000000000000000000081525060019080519060200190620000ee929190620000f5565b506200020a565b8280546200010390620001a5565b90600052602060002090601f01602090048101928262000127576000855562000173565b82601f106200014257805160ff191683800117855562000173565b8280016001018555821562000173579182015b828111156200017257825182559160200191906001019062000155565b5b50905062000182919062000186565b5090565b5b80821115620001a157600081600090555060010162000187565b5090565b60006002820490506001821680620001be57607f821691505b60208210811415620001d557620001d4620001db565b5b50919050565b7f4e487b7100000000000000000000000000000000000000000000000000000000600052602260045260246000fd5b6119c5806200021a6000396000f3fe6080604052600436106100dd5760003560e01c8063a4964c331161007f578063c0f202ef11610059578063c0f202ef146102da578063c392189514610303578063d48644bd14610340578063ea0ff14a1461037d576100dd565b8063a4964c3314610234578063adae08dd1461025d578063bfb231d21461029a576100dd565b80634c389e65116100bb5780634c389e65146101735780636352211e1461019e57806370a08231146101db57806391b6be9a14610218576100dd565b8063073e74df146100e25780631a4d96cd1461010d57806329de62461461014a575b600080fd5b3480156100ee57600080fd5b506100f76103a8565b604051610104919061150b565b60405180910390f35b34801561011957600080fd5b50610134600480360381019061012f91906112a3565b61059b565b60405161014191906114f0565b60405180910390f35b34801561015657600080fd5b50610171600480360381019061016c91906112a3565b6105ce565b005b34801561017f57600080fd5b50610188610668565b60405161019591906115ed565b60405180910390f35b3480156101aa57600080fd5b506101c560048036038101906101c091906112a3565b61066e565b6040516101d291906114f0565b60405180910390f35b3480156101e757600080fd5b5061020260048036038101906101fd919061127a565b6106ab565b60405161020f91906115ed565b60405180910390f35b610232600480360381019061022d91906112a3565b6106f4565b005b34801561024057600080fd5b5061025b600480360381019061025691906112a3565b610ac6565b005b34801561026957600080fd5b50610284600480360381019061027f91906112cc565b610d25565b60405161029191906115ed565b60405180910390f35b3480156102a657600080fd5b506102c160048036038101906102bc91906112a3565b610fa2565b6040516102d19493929190611608565b60405180910390f35b3480156102e657600080fd5b5061030160048036038101906102fc91906112a3565b610fef565b005b34801561030f57600080fd5b5061032a6004803603810190610325919061127a565b6111ae565b60405161033791906115ed565b60405180910390f35b34801561034c57600080fd5b50610367600480360381019061036291906112a3565b6111c6565b60405161037491906115ed565b60405180910390f35b34801561038957600080fd5b506103926111de565b60405161039f91906115ed565b60405180910390f35b606060008060045467ffffffffffffffff8111156103ef577f4e487b7100000000000000000000000000000000000000000000000000000000600052604160045260246000fd5b60405190808252806020026020018201604052801561042857816020015b610415611226565b81526020019060019003908161040d5790505b50905060005b600380549050811015610592576001151560038281548110610479577f4e487b7100000000000000000000000000000000000000000000000000000000600052603260045260246000fd5b906000526020600020906004020160030160009054906101000a900460ff161515141561057f57600381815481106104da577f4e487b7100000000000000000000000000000000000000000000000000000000600052603260045260246000fd5b90600052602060002090600402016040518060800160405290816000820154815260200160018201548152602001600282015481526020016003820160009054906101000a900460ff161515151581525050828481518110610565577f4e487b7100000000000000000000000000000000000000000000000000000000600052603260045260246000fd5b6020026020010181905250828061057b9061179e565b9350505b808061058a9061179e565b91505061042e565b50809250505090565b60066020528060005260406000206000915054906101000a900473ffffffffffffffffffffffffffffffffffffffff1681565b600260009054906101000a900473ffffffffffffffffffffffffffffffffffffffff1673ffffffffffffffffffffffffffffffffffffffff163373ffffffffffffffffffffffffffffffffffffffff161461065e576040517f08c379a0000000000000000000000000000000000000000000000000000000008152600401610655906115ad565b60405180910390fd5b8060058190555050565b60045481565b60006006600083815260200190815260200160002060009054906101000a900473ffffffffffffffffffffffffffffffffffffffff169050919050565b6000600760008373ffffffffffffffffffffffffffffffffffffffff1673ffffffffffffffffffffffffffffffffffffffff168152602001908152602001600020549050919050565b6003818154811061072e577f4e487b7100000000000000000000000000000000000000000000000000000000600052603260045260246000fd5b906000526020600020906004020160010154341461074b57600080fd5b600073ffffffffffffffffffffffffffffffffffffffff166006600083815260200190815260200160002060009054906101000a900473ffffffffffffffffffffffffffffffffffffffff1673ffffffffffffffffffffffffffffffffffffffff1614156107ee576040517f08c379a00000000000000000000000000000000000000000000000000000000081526004016107e59061156d565b60405180910390fd5b60006006600083815260200190815260200160002060009054906101000a900473ffffffffffffffffffffffffffffffffffffffff169050600060038381548110610862577f4e487b7100000000000000000000000000000000000000000000000000000000600052603260045260246000fd5b9060005260206000209060040201905060008160030160006101000a81548160ff021916908315150217905550336006600085815260200190815260200160002060006101000a81548173ffffffffffffffffffffffffffffffffffffffff021916908373ffffffffffffffffffffffffffffffffffffffff160217905550600760008373ffffffffffffffffffffffffffffffffffffffff1673ffffffffffffffffffffffffffffffffffffffff1681526020019081526020016000206000815480929190600190039190505550600760003373ffffffffffffffffffffffffffffffffffffffff1673ffffffffffffffffffffffffffffffffffffffff16815260200190815260200160002060008154809291906001019190505550600460008154809291906001900391905055506000806109a2346005546111e8565b8092508193505050600260009054906101000a900473ffffffffffffffffffffffffffffffffffffffff1673ffffffffffffffffffffffffffffffffffffffff166108fc839081150290604051600060405180830381858888f19350505050158015610a12573d6000803e3d6000fd5b508373ffffffffffffffffffffffffffffffffffffffff166108fc829081150290604051600060405180830381858888f19350505050158015610a59573d6000803e3d6000fd5b503373ffffffffffffffffffffffffffffffffffffffff168473ffffffffffffffffffffffffffffffffffffffff167fddf252ad1be2c89b69c2b068fc378daa952ba7f163c4a11628f55a4df523b3ef87604051610ab791906115ed565b60405180910390a35050505050565b803373ffffffffffffffffffffffffffffffffffffffff166006600083815260200190815260200160002060009054906101000a900473ffffffffffffffffffffffffffffffffffffffff1673ffffffffffffffffffffffffffffffffffffffff1614610b68576040517f08c379a0000000000000000000000000000000000000000000000000000000008152600401610b5f9061158d565b60405180910390fd5b600073ffffffffffffffffffffffffffffffffffffffff166006600084815260200190815260200160002060009054906101000a900473ffffffffffffffffffffffffffffffffffffffff1673ffffffffffffffffffffffffffffffffffffffff161415610c0b576040517f08c379a0000000000000000000000000000000000000000000000000000000008152600401610c029061156d565b60405180910390fd5b6001151560038381548110610c49577f4e487b7100000000000000000000000000000000000000000000000000000000600052603260045260246000fd5b906000526020600020906004020160030160009054906101000a900460ff16151514610caa576040517f08c379a0000000000000000000000000000000000000000000000000000000008152600401610ca19061152d565b60405180910390fd5b600060038381548110610ce6577f4e487b7100000000000000000000000000000000000000000000000000000000600052603260045260246000fd5b906000526020600020906004020160030160006101000a81548160ff021916908315150217905550600460008154809291906001900391905055505050565b6000808311610d69576040517f08c379a0000000000000000000000000000000000000000000000000000000008152600401610d60906115cd565b60405180910390fd5b60006003805490509050600073ffffffffffffffffffffffffffffffffffffffff166006600083815260200190815260200160002060009054906101000a900473ffffffffffffffffffffffffffffffffffffffff1673ffffffffffffffffffffffffffffffffffffffff1614610e15576040517f08c379a0000000000000000000000000000000000000000000000000000000008152600401610e0c9061154d565b60405180910390fd5b60405180608001604052808281526020018581526020018481526020016001151581525060038281548110610e73577f4e487b7100000000000000000000000000000000000000000000000000000000600052603260045260246000fd5b906000526020600020906004020160008201518160000155602082015181600101556040820151816002015560608201518160030160006101000a81548160ff021916908315150217905550905050336006600083815260200190815260200160002060006101000a81548173ffffffffffffffffffffffffffffffffffffffff021916908373ffffffffffffffffffffffffffffffffffffffff160217905550600760003373ffffffffffffffffffffffffffffffffffffffff1673ffffffffffffffffffffffffffffffffffffffff1681526020019081526020016000206000815480929190600101919050555060086000848152602001908152602001600020600081548092919060010191905055506004600081548092919060010191905055508091505092915050565b60038181548110610fb257600080fd5b90600052602060002090600402016000915090508060000154908060010154908060020154908060030160009054906101000a900460ff16905084565b803373ffffffffffffffffffffffffffffffffffffffff166006600083815260200190815260200160002060009054906101000a900473ffffffffffffffffffffffffffffffffffffffff1673ffffffffffffffffffffffffffffffffffffffff1614611091576040517f08c379a00000000000000000000000000000000000000000000000000000000081526004016110889061158d565b60405180910390fd5b600073ffffffffffffffffffffffffffffffffffffffff166006600084815260200190815260200160002060009054906101000a900473ffffffffffffffffffffffffffffffffffffffff1673ffffffffffffffffffffffffffffffffffffffff161415611134576040517f08c379a000000000000000000000000000000000000000000000000000000000815260040161112b9061156d565b60405180910390fd5b600160038381548110611170577f4e487b7100000000000000000000000000000000000000000000000000000000600052603260045260246000fd5b906000526020600020906004020160030160006101000a81548160ff0219169083151502179055506004600081548092919060010191905055505050565b60076020528060005260406000206000915090505481565b60086020528060005260406000206000915090505481565b6000600554905090565b6000806000606485856111fb91906116c8565b6112059190611697565b9050600081866112159190611722565b905081819350935050509250929050565b60405180608001604052806000815260200160008152602001600081526020016000151581525090565b60008135905061125f81611961565b92915050565b60008135905061127481611978565b92915050565b60006020828403121561128c57600080fd5b600061129a84828501611250565b91505092915050565b6000602082840312156112b557600080fd5b60006112c384828501611265565b91505092915050565b600080604083850312156112df57600080fd5b60006112ed85828601611265565b92505060206112fe85828601611265565b9150509250929050565b6000611314838361147d565b60808301905092915050565b61132981611756565b82525050565b600061133a8261165d565b6113448185611675565b935061134f8361164d565b8060005b838110156113805781516113678882611308565b975061137283611668565b925050600181019050611353565b5085935050505092915050565b61139681611768565b82525050565b6113a581611768565b82525050565b60006113b8601383611686565b91506113c382611845565b602082019050919050565b60006113db601383611686565b91506113e68261186e565b602082019050919050565b60006113fe601383611686565b915061140982611897565b602082019050919050565b6000611421601d83611686565b915061142c826118c0565b602082019050919050565b6000611444602183611686565b915061144f826118e9565b604082019050919050565b6000611467601a83611686565b915061147282611938565b602082019050919050565b60808201600082015161149360008501826114d2565b5060208201516114a660208501826114d2565b5060408201516114b960408501826114d2565b5060608201516114cc606085018261138d565b50505050565b6114db81611794565b82525050565b6114ea81611794565b82525050565b60006020820190506115056000830184611320565b92915050565b60006020820190508181036000830152611525818461132f565b905092915050565b60006020820190508181036000830152611546816113ab565b9050919050565b60006020820190508181036000830152611566816113ce565b9050919050565b60006020820190508181036000830152611586816113f1565b9050919050565b600060208201905081810360008301526115a681611414565b9050919050565b600060208201905081810360008301526115c681611437565b9050919050565b600060208201905081810360008301526115e68161145a565b9050919050565b600060208201905061160260008301846114e1565b92915050565b600060808201905061161d60008301876114e1565b61162a60208301866114e1565b61163760408301856114e1565b611644606083018461139c565b95945050505050565b6000819050602082019050919050565b600081519050919050565b6000602082019050919050565b600082825260208201905092915050565b600082825260208201905092915050565b60006116a282611794565b91506116ad83611794565b9250826116bd576116bc611816565b5b828204905092915050565b60006116d382611794565b91506116de83611794565b9250817fffffffffffffffffffffffffffffffffffffffffffffffffffffffffffffffff0483118215151615611717576117166117e7565b5b828202905092915050565b600061172d82611794565b915061173883611794565b92508282101561174b5761174a6117e7565b5b828203905092915050565b600061176182611774565b9050919050565b60008115159050919050565b600073ffffffffffffffffffffffffffffffffffffffff82169050919050565b6000819050919050565b60006117a982611794565b91507fffffffffffffffffffffffffffffffffffffffffffffffffffffffffffffffff8214156117dc576117db6117e7565b5b600182019050919050565b7f4e487b7100000000000000000000000000000000000000000000000000000000600052601160045260246000fd5b7f4e487b7100000000000000000000000000000000000000000000000000000000600052601260045260246000fd5b7f746f6b656e2069736e277420746f2073656c6c00000000000000000000000000600082015250565b7f746f6b656e20616c726561647920657869737400000000000000000000000000600082015250565b7f746f6b656e20646f65736e277420657869737400000000000000000000000000600082015250565b7f4f6e6c79206974656d2773206f776e65722063616e20646f2074686174000000600082015250565b7f4f6e6c7920636f6e74726163742773206f776e65722063616e20646f2074686160008201527f7400000000000000000000000000000000000000000000000000000000000000602082015250565b7f50726963652063616e6e6f7420626520657175616c20746f2030000000000000600082015250565b61196a81611756565b811461197557600080fd5b50565b61198181611794565b811461198c57600080fd5b5056fea26469706673582212206ea22a005e6231674cdff96917fd785fedde411e3077816f58ab9b0e06f949db64736f6c63430008010033",
					"opcodes": "PUSH1 0x80 PUSH1 0x40 MSTORE CALLVALUE DUP1 ISZERO PUSH3 0x11 JUMPI PUSH1 0x0 DUP1 REVERT JUMPDEST POP CALLER PUSH1 0x2 PUSH1 0x0 PUSH2 0x100 EXP DUP2 SLOAD DUP2 PUSH20 0xFFFFFFFFFFFFFFFFFFFFFFFFFFFFFFFFFFFFFFFF MUL NOT AND SWAP1 DUP4 PUSH20 0xFFFFFFFFFFFFFFFFFFFFFFFFFFFFFFFFFFFFFFFF AND MUL OR SWAP1 SSTORE POP PUSH1 0x40 MLOAD DUP1 PUSH1 0x40 ADD PUSH1 0x40 MSTORE DUP1 PUSH1 0xB DUP2 MSTORE PUSH1 0x20 ADD PUSH32 0x4765656B20546F6B656E73000000000000000000000000000000000000000000 DUP2 MSTORE POP PUSH1 0x0 SWAP1 DUP1 MLOAD SWAP1 PUSH1 0x20 ADD SWAP1 PUSH3 0xA0 SWAP3 SWAP2 SWAP1 PUSH3 0xF5 JUMP JUMPDEST POP PUSH1 0x40 MLOAD DUP1 PUSH1 0x40 ADD PUSH1 0x40 MSTORE DUP1 PUSH1 0x5 DUP2 MSTORE PUSH1 0x20 ADD PUSH32 0x4745454B54000000000000000000000000000000000000000000000000000000 DUP2 MSTORE POP PUSH1 0x1 SWAP1 DUP1 MLOAD SWAP1 PUSH1 0x20 ADD SWAP1 PUSH3 0xEE SWAP3 SWAP2 SWAP1 PUSH3 0xF5 JUMP JUMPDEST POP PUSH3 0x20A JUMP JUMPDEST DUP3 DUP1 SLOAD PUSH3 0x103 SWAP1 PUSH3 0x1A5 JUMP JUMPDEST SWAP1 PUSH1 0x0 MSTORE PUSH1 0x20 PUSH1 0x0 KECCAK256 SWAP1 PUSH1 0x1F ADD PUSH1 0x20 SWAP1 DIV DUP2 ADD SWAP3 DUP3 PUSH3 0x127 JUMPI PUSH1 0x0 DUP6 SSTORE PUSH3 0x173 JUMP JUMPDEST DUP3 PUSH1 0x1F LT PUSH3 0x142 JUMPI DUP1 MLOAD PUSH1 0xFF NOT AND DUP4 DUP1 ADD OR DUP6 SSTORE PUSH3 0x173 JUMP JUMPDEST DUP3 DUP1 ADD PUSH1 0x1 ADD DUP6 SSTORE DUP3 ISZERO PUSH3 0x173 JUMPI SWAP2 DUP3 ADD JUMPDEST DUP3 DUP2 GT ISZERO PUSH3 0x172 JUMPI DUP3 MLOAD DUP3 SSTORE SWAP2 PUSH1 0x20 ADD SWAP2 SWAP1 PUSH1 0x1 ADD SWAP1 PUSH3 0x155 JUMP JUMPDEST JUMPDEST POP SWAP1 POP PUSH3 0x182 SWAP2 SWAP1 PUSH3 0x186 JUMP JUMPDEST POP SWAP1 JUMP JUMPDEST JUMPDEST DUP1 DUP3 GT ISZERO PUSH3 0x1A1 JUMPI PUSH1 0x0 DUP2 PUSH1 0x0 SWAP1 SSTORE POP PUSH1 0x1 ADD PUSH3 0x187 JUMP JUMPDEST POP SWAP1 JUMP JUMPDEST PUSH1 0x0 PUSH1 0x2 DUP3 DIV SWAP1 POP PUSH1 0x1 DUP3 AND DUP1 PUSH3 0x1BE JUMPI PUSH1 0x7F DUP3 AND SWAP2 POP JUMPDEST PUSH1 0x20 DUP3 LT DUP2 EQ ISZERO PUSH3 0x1D5 JUMPI PUSH3 0x1D4 PUSH3 0x1DB JUMP JUMPDEST JUMPDEST POP SWAP2 SWAP1 POP JUMP JUMPDEST PUSH32 0x4E487B7100000000000000000000000000000000000000000000000000000000 PUSH1 0x0 MSTORE PUSH1 0x22 PUSH1 0x4 MSTORE PUSH1 0x24 PUSH1 0x0 REVERT JUMPDEST PUSH2 0x19C5 DUP1 PUSH3 0x21A PUSH1 0x0 CODECOPY PUSH1 0x0 RETURN INVALID PUSH1 0x80 PUSH1 0x40 MSTORE PUSH1 0x4 CALLDATASIZE LT PUSH2 0xDD JUMPI PUSH1 0x0 CALLDATALOAD PUSH1 0xE0 SHR DUP1 PUSH4 0xA4964C33 GT PUSH2 0x7F JUMPI DUP1 PUSH4 0xC0F202EF GT PUSH2 0x59 JUMPI DUP1 PUSH4 0xC0F202EF EQ PUSH2 0x2DA JUMPI DUP1 PUSH4 0xC3921895 EQ PUSH2 0x303 JUMPI DUP1 PUSH4 0xD48644BD EQ PUSH2 0x340 JUMPI DUP1 PUSH4 0xEA0FF14A EQ PUSH2 0x37D JUMPI PUSH2 0xDD JUMP JUMPDEST DUP1 PUSH4 0xA4964C33 EQ PUSH2 0x234 JUMPI DUP1 PUSH4 0xADAE08DD EQ PUSH2 0x25D JUMPI DUP1 PUSH4 0xBFB231D2 EQ PUSH2 0x29A JUMPI PUSH2 0xDD JUMP JUMPDEST DUP1 PUSH4 0x4C389E65 GT PUSH2 0xBB JUMPI DUP1 PUSH4 0x4C389E65 EQ PUSH2 0x173 JUMPI DUP1 PUSH4 0x6352211E EQ PUSH2 0x19E JUMPI DUP1 PUSH4 0x70A08231 EQ PUSH2 0x1DB JUMPI DUP1 PUSH4 0x91B6BE9A EQ PUSH2 0x218 JUMPI PUSH2 0xDD JUMP JUMPDEST DUP1 PUSH4 0x73E74DF EQ PUSH2 0xE2 JUMPI DUP1 PUSH4 0x1A4D96CD EQ PUSH2 0x10D JUMPI DUP1 PUSH4 0x29DE6246 EQ PUSH2 0x14A JUMPI JUMPDEST PUSH1 0x0 DUP1 REVERT JUMPDEST CALLVALUE DUP1 ISZERO PUSH2 0xEE JUMPI PUSH1 0x0 DUP1 REVERT JUMPDEST POP PUSH2 0xF7 PUSH2 0x3A8 JUMP JUMPDEST PUSH1 0x40 MLOAD PUSH2 0x104 SWAP2 SWAP1 PUSH2 0x150B JUMP JUMPDEST PUSH1 0x40 MLOAD DUP1 SWAP2 SUB SWAP1 RETURN JUMPDEST CALLVALUE DUP1 ISZERO PUSH2 0x119 JUMPI PUSH1 0x0 DUP1 REVERT JUMPDEST POP PUSH2 0x134 PUSH1 0x4 DUP1 CALLDATASIZE SUB DUP2 ADD SWAP1 PUSH2 0x12F SWAP2 SWAP1 PUSH2 0x12A3 JUMP JUMPDEST PUSH2 0x59B JUMP JUMPDEST PUSH1 0x40 MLOAD PUSH2 0x141 SWAP2 SWAP1 PUSH2 0x14F0 JUMP JUMPDEST PUSH1 0x40 MLOAD DUP1 SWAP2 SUB SWAP1 RETURN JUMPDEST CALLVALUE DUP1 ISZERO PUSH2 0x156 JUMPI PUSH1 0x0 DUP1 REVERT JUMPDEST POP PUSH2 0x171 PUSH1 0x4 DUP1 CALLDATASIZE SUB DUP2 ADD SWAP1 PUSH2 0x16C SWAP2 SWAP1 PUSH2 0x12A3 JUMP JUMPDEST PUSH2 0x5CE JUMP JUMPDEST STOP JUMPDEST CALLVALUE DUP1 ISZERO PUSH2 0x17F JUMPI PUSH1 0x0 DUP1 REVERT JUMPDEST POP PUSH2 0x188 PUSH2 0x668 JUMP JUMPDEST PUSH1 0x40 MLOAD PUSH2 0x195 SWAP2 SWAP1 PUSH2 0x15ED JUMP JUMPDEST PUSH1 0x40 MLOAD DUP1 SWAP2 SUB SWAP1 RETURN JUMPDEST CALLVALUE DUP1 ISZERO PUSH2 0x1AA JUMPI PUSH1 0x0 DUP1 REVERT JUMPDEST POP PUSH2 0x1C5 PUSH1 0x4 DUP1 CALLDATASIZE SUB DUP2 ADD SWAP1 PUSH2 0x1C0 SWAP2 SWAP1 PUSH2 0x12A3 JUMP JUMPDEST PUSH2 0x66E JUMP JUMPDEST PUSH1 0x40 MLOAD PUSH2 0x1D2 SWAP2 SWAP1 PUSH2 0x14F0 JUMP JUMPDEST PUSH1 0x40 MLOAD DUP1 SWAP2 SUB SWAP1 RETURN JUMPDEST CALLVALUE DUP1 ISZERO PUSH2 0x1E7 JUMPI PUSH1 0x0 DUP1 REVERT JUMPDEST POP PUSH2 0x202 PUSH1 0x4 DUP1 CALLDATASIZE SUB DUP2 ADD SWAP1 PUSH2 0x1FD SWAP2 SWAP1 PUSH2 0x127A JUMP JUMPDEST PUSH2 0x6AB JUMP JUMPDEST PUSH1 0x40 MLOAD PUSH2 0x20F SWAP2 SWAP1 PUSH2 0x15ED JUMP JUMPDEST PUSH1 0x40 MLOAD DUP1 SWAP2 SUB SWAP1 RETURN JUMPDEST PUSH2 0x232 PUSH1 0x4 DUP1 CALLDATASIZE SUB DUP2 ADD SWAP1 PUSH2 0x22D SWAP2 SWAP1 PUSH2 0x12A3 JUMP JUMPDEST PUSH2 0x6F4 JUMP JUMPDEST STOP JUMPDEST CALLVALUE DUP1 ISZERO PUSH2 0x240 JUMPI PUSH1 0x0 DUP1 REVERT JUMPDEST POP PUSH2 0x25B PUSH1 0x4 DUP1 CALLDATASIZE SUB DUP2 ADD SWAP1 PUSH2 0x256 SWAP2 SWAP1 PUSH2 0x12A3 JUMP JUMPDEST PUSH2 0xAC6 JUMP JUMPDEST STOP JUMPDEST CALLVALUE DUP1 ISZERO PUSH2 0x269 JUMPI PUSH1 0x0 DUP1 REVERT JUMPDEST POP PUSH2 0x284 PUSH1 0x4 DUP1 CALLDATASIZE SUB DUP2 ADD SWAP1 PUSH2 0x27F SWAP2 SWAP1 PUSH2 0x12CC JUMP JUMPDEST PUSH2 0xD25 JUMP JUMPDEST PUSH1 0x40 MLOAD PUSH2 0x291 SWAP2 SWAP1 PUSH2 0x15ED JUMP JUMPDEST PUSH1 0x40 MLOAD DUP1 SWAP2 SUB SWAP1 RETURN JUMPDEST CALLVALUE DUP1 ISZERO PUSH2 0x2A6 JUMPI PUSH1 0x0 DUP1 REVERT JUMPDEST POP PUSH2 0x2C1 PUSH1 0x4 DUP1 CALLDATASIZE SUB DUP2 ADD SWAP1 PUSH2 0x2BC SWAP2 SWAP1 PUSH2 0x12A3 JUMP JUMPDEST PUSH2 0xFA2 JUMP JUMPDEST PUSH1 0x40 MLOAD PUSH2 0x2D1 SWAP5 SWAP4 SWAP3 SWAP2 SWAP1 PUSH2 0x1608 JUMP JUMPDEST PUSH1 0x40 MLOAD DUP1 SWAP2 SUB SWAP1 RETURN JUMPDEST CALLVALUE DUP1 ISZERO PUSH2 0x2E6 JUMPI PUSH1 0x0 DUP1 REVERT JUMPDEST POP PUSH2 0x301 PUSH1 0x4 DUP1 CALLDATASIZE SUB DUP2 ADD SWAP1 PUSH2 0x2FC SWAP2 SWAP1 PUSH2 0x12A3 JUMP JUMPDEST PUSH2 0xFEF JUMP JUMPDEST STOP JUMPDEST CALLVALUE DUP1 ISZERO PUSH2 0x30F JUMPI PUSH1 0x0 DUP1 REVERT JUMPDEST POP PUSH2 0x32A PUSH1 0x4 DUP1 CALLDATASIZE SUB DUP2 ADD SWAP1 PUSH2 0x325 SWAP2 SWAP1 PUSH2 0x127A JUMP JUMPDEST PUSH2 0x11AE JUMP JUMPDEST PUSH1 0x40 MLOAD PUSH2 0x337 SWAP2 SWAP1 PUSH2 0x15ED JUMP JUMPDEST PUSH1 0x40 MLOAD DUP1 SWAP2 SUB SWAP1 RETURN JUMPDEST CALLVALUE DUP1 ISZERO PUSH2 0x34C JUMPI PUSH1 0x0 DUP1 REVERT JUMPDEST POP PUSH2 0x367 PUSH1 0x4 DUP1 CALLDATASIZE SUB DUP2 ADD SWAP1 PUSH2 0x362 SWAP2 SWAP1 PUSH2 0x12A3 JUMP JUMPDEST PUSH2 0x11C6 JUMP JUMPDEST PUSH1 0x40 MLOAD PUSH2 0x374 SWAP2 SWAP1 PUSH2 0x15ED JUMP JUMPDEST PUSH1 0x40 MLOAD DUP1 SWAP2 SUB SWAP1 RETURN JUMPDEST CALLVALUE DUP1 ISZERO PUSH2 0x389 JUMPI PUSH1 0x0 DUP1 REVERT JUMPDEST POP PUSH2 0x392 PUSH2 0x11DE JUMP JUMPDEST PUSH1 0x40 MLOAD PUSH2 0x39F SWAP2 SWAP1 PUSH2 0x15ED JUMP JUMPDEST PUSH1 0x40 MLOAD DUP1 SWAP2 SUB SWAP1 RETURN JUMPDEST PUSH1 0x60 PUSH1 0x0 DUP1 PUSH1 0x4 SLOAD PUSH8 0xFFFFFFFFFFFFFFFF DUP2 GT ISZERO PUSH2 0x3EF JUMPI PUSH32 0x4E487B7100000000000000000000000000000000000000000000000000000000 PUSH1 0x0 MSTORE PUSH1 0x41 PUSH1 0x4 MSTORE PUSH1 0x24 PUSH1 0x0 REVERT JUMPDEST PUSH1 0x40 MLOAD SWAP1 DUP1 DUP3 MSTORE DUP1 PUSH1 0x20 MUL PUSH1 0x20 ADD DUP3 ADD PUSH1 0x40 MSTORE DUP1 ISZERO PUSH2 0x428 JUMPI DUP2 PUSH1 0x20 ADD JUMPDEST PUSH2 0x415 PUSH2 0x1226 JUMP JUMPDEST DUP2 MSTORE PUSH1 0x20 ADD SWAP1 PUSH1 0x1 SWAP1 SUB SWAP1 DUP2 PUSH2 0x40D JUMPI SWAP1 POP JUMPDEST POP SWAP1 POP PUSH1 0x0 JUMPDEST PUSH1 0x3 DUP1 SLOAD SWAP1 POP DUP2 LT ISZERO PUSH2 0x592 JUMPI PUSH1 0x1 ISZERO ISZERO PUSH1 0x3 DUP3 DUP2 SLOAD DUP2 LT PUSH2 0x479 JUMPI PUSH32 0x4E487B7100000000000000000000000000000000000000000000000000000000 PUSH1 0x0 MSTORE PUSH1 0x32 PUSH1 0x4 MSTORE PUSH1 0x24 PUSH1 0x0 REVERT JUMPDEST SWAP1 PUSH1 0x0 MSTORE PUSH1 0x20 PUSH1 0x0 KECCAK256 SWAP1 PUSH1 0x4 MUL ADD PUSH1 0x3 ADD PUSH1 0x0 SWAP1 SLOAD SWAP1 PUSH2 0x100 EXP SWAP1 DIV PUSH1 0xFF AND ISZERO ISZERO EQ ISZERO PUSH2 0x57F JUMPI PUSH1 0x3 DUP2 DUP2 SLOAD DUP2 LT PUSH2 0x4DA JUMPI PUSH32 0x4E487B7100000000000000000000000000000000000000000000000000000000 PUSH1 0x0 MSTORE PUSH1 0x32 PUSH1 0x4 MSTORE PUSH1 0x24 PUSH1 0x0 REVERT JUMPDEST SWAP1 PUSH1 0x0 MSTORE PUSH1 0x20 PUSH1 0x0 KECCAK256 SWAP1 PUSH1 0x4 MUL ADD PUSH1 0x40 MLOAD DUP1 PUSH1 0x80 ADD PUSH1 0x40 MSTORE SWAP1 DUP2 PUSH1 0x0 DUP3 ADD SLOAD DUP2 MSTORE PUSH1 0x20 ADD PUSH1 0x1 DUP3 ADD SLOAD DUP2 MSTORE PUSH1 0x20 ADD PUSH1 0x2 DUP3 ADD SLOAD DUP2 MSTORE PUSH1 0x20 ADD PUSH1 0x3 DUP3 ADD PUSH1 0x0 SWAP1 SLOAD SWAP1 PUSH2 0x100 EXP SWAP1 DIV PUSH1 0xFF AND ISZERO ISZERO ISZERO ISZERO DUP2 MSTORE POP POP DUP3 DUP5 DUP2 MLOAD DUP2 LT PUSH2 0x565 JUMPI PUSH32 0x4E487B7100000000000000000000000000000000000000000000000000000000 PUSH1 0x0 MSTORE PUSH1 0x32 PUSH1 0x4 MSTORE PUSH1 0x24 PUSH1 0x0 REVERT JUMPDEST PUSH1 0x20 MUL PUSH1 0x20 ADD ADD DUP2 SWAP1 MSTORE POP DUP3 DUP1 PUSH2 0x57B SWAP1 PUSH2 0x179E JUMP JUMPDEST SWAP4 POP POP JUMPDEST DUP1 DUP1 PUSH2 0x58A SWAP1 PUSH2 0x179E JUMP JUMPDEST SWAP2 POP POP PUSH2 0x42E JUMP JUMPDEST POP DUP1 SWAP3 POP POP POP SWAP1 JUMP JUMPDEST PUSH1 0x6 PUSH1 0x20 MSTORE DUP1 PUSH1 0x0 MSTORE PUSH1 0x40 PUSH1 0x0 KECCAK256 PUSH1 0x0 SWAP2 POP SLOAD SWAP1 PUSH2 0x100 EXP SWAP1 DIV PUSH20 0xFFFFFFFFFFFFFFFFFFFFFFFFFFFFFFFFFFFFFFFF AND DUP2 JUMP JUMPDEST PUSH1 0x2 PUSH1 0x0 SWAP1 SLOAD SWAP1 PUSH2 0x100 EXP SWAP1 DIV PUSH20 0xFFFFFFFFFFFFFFFFFFFFFFFFFFFFFFFFFFFFFFFF AND PUSH20 0xFFFFFFFFFFFFFFFFFFFFFFFFFFFFFFFFFFFFFFFF AND CALLER PUSH20 0xFFFFFFFFFFFFFFFFFFFFFFFFFFFFFFFFFFFFFFFF AND EQ PUSH2 0x65E JUMPI PUSH1 0x40 MLOAD PUSH32 0x8C379A000000000000000000000000000000000000000000000000000000000 DUP2 MSTORE PUSH1 0x4 ADD PUSH2 0x655 SWAP1 PUSH2 0x15AD JUMP JUMPDEST PUSH1 0x40 MLOAD DUP1 SWAP2 SUB SWAP1 REVERT JUMPDEST DUP1 PUSH1 0x5 DUP2 SWAP1 SSTORE POP POP JUMP JUMPDEST PUSH1 0x4 SLOAD DUP2 JUMP JUMPDEST PUSH1 0x0 PUSH1 0x6 PUSH1 0x0 DUP4 DUP2 MSTORE PUSH1 0x20 ADD SWAP1 DUP2 MSTORE PUSH1 0x20 ADD PUSH1 0x0 KECCAK256 PUSH1 0x0 SWAP1 SLOAD SWAP1 PUSH2 0x100 EXP SWAP1 DIV PUSH20 0xFFFFFFFFFFFFFFFFFFFFFFFFFFFFFFFFFFFFFFFF AND SWAP1 POP SWAP2 SWAP1 POP JUMP JUMPDEST PUSH1 0x0 PUSH1 0x7 PUSH1 0x0 DUP4 PUSH20 0xFFFFFFFFFFFFFFFFFFFFFFFFFFFFFFFFFFFFFFFF AND PUSH20 0xFFFFFFFFFFFFFFFFFFFFFFFFFFFFFFFFFFFFFFFF AND DUP2 MSTORE PUSH1 0x20 ADD SWAP1 DUP2 MSTORE PUSH1 0x20 ADD PUSH1 0x0 KECCAK256 SLOAD SWAP1 POP SWAP2 SWAP1 POP JUMP JUMPDEST PUSH1 0x3 DUP2 DUP2 SLOAD DUP2 LT PUSH2 0x72E JUMPI PUSH32 0x4E487B7100000000000000000000000000000000000000000000000000000000 PUSH1 0x0 MSTORE PUSH1 0x32 PUSH1 0x4 MSTORE PUSH1 0x24 PUSH1 0x0 REVERT JUMPDEST SWAP1 PUSH1 0x0 MSTORE PUSH1 0x20 PUSH1 0x0 KECCAK256 SWAP1 PUSH1 0x4 MUL ADD PUSH1 0x1 ADD SLOAD CALLVALUE EQ PUSH2 0x74B JUMPI PUSH1 0x0 DUP1 REVERT JUMPDEST PUSH1 0x0 PUSH20 0xFFFFFFFFFFFFFFFFFFFFFFFFFFFFFFFFFFFFFFFF AND PUSH1 0x6 PUSH1 0x0 DUP4 DUP2 MSTORE PUSH1 0x20 ADD SWAP1 DUP2 MSTORE PUSH1 0x20 ADD PUSH1 0x0 KECCAK256 PUSH1 0x0 SWAP1 SLOAD SWAP1 PUSH2 0x100 EXP SWAP1 DIV PUSH20 0xFFFFFFFFFFFFFFFFFFFFFFFFFFFFFFFFFFFFFFFF AND PUSH20 0xFFFFFFFFFFFFFFFFFFFFFFFFFFFFFFFFFFFFFFFF AND EQ ISZERO PUSH2 0x7EE JUMPI PUSH1 0x40 MLOAD PUSH32 0x8C379A000000000000000000000000000000000000000000000000000000000 DUP2 MSTORE PUSH1 0x4 ADD PUSH2 0x7E5 SWAP1 PUSH2 0x156D JUMP JUMPDEST PUSH1 0x40 MLOAD DUP1 SWAP2 SUB SWAP1 REVERT JUMPDEST PUSH1 0x0 PUSH1 0x6 PUSH1 0x0 DUP4 DUP2 MSTORE PUSH1 0x20 ADD SWAP1 DUP2 MSTORE PUSH1 0x20 ADD PUSH1 0x0 KECCAK256 PUSH1 0x0 SWAP1 SLOAD SWAP1 PUSH2 0x100 EXP SWAP1 DIV PUSH20 0xFFFFFFFFFFFFFFFFFFFFFFFFFFFFFFFFFFFFFFFF AND SWAP1 POP PUSH1 0x0 PUSH1 0x3 DUP4 DUP2 SLOAD DUP2 LT PUSH2 0x862 JUMPI PUSH32 0x4E487B7100000000000000000000000000000000000000000000000000000000 PUSH1 0x0 MSTORE PUSH1 0x32 PUSH1 0x4 MSTORE PUSH1 0x24 PUSH1 0x0 REVERT JUMPDEST SWAP1 PUSH1 0x0 MSTORE PUSH1 0x20 PUSH1 0x0 KECCAK256 SWAP1 PUSH1 0x4 MUL ADD SWAP1 POP PUSH1 0x0 DUP2 PUSH1 0x3 ADD PUSH1 0x0 PUSH2 0x100 EXP DUP2 SLOAD DUP2 PUSH1 0xFF MUL NOT AND SWAP1 DUP4 ISZERO ISZERO MUL OR SWAP1 SSTORE POP CALLER PUSH1 0x6 PUSH1 0x0 DUP6 DUP2 MSTORE PUSH1 0x20 ADD SWAP1 DUP2 MSTORE PUSH1 0x20 ADD PUSH1 0x0 KECCAK256 PUSH1 0x0 PUSH2 0x100 EXP DUP2 SLOAD DUP2 PUSH20 0xFFFFFFFFFFFFFFFFFFFFFFFFFFFFFFFFFFFFFFFF MUL NOT AND SWAP1 DUP4 PUSH20 0xFFFFFFFFFFFFFFFFFFFFFFFFFFFFFFFFFFFFFFFF AND MUL OR SWAP1 SSTORE POP PUSH1 0x7 PUSH1 0x0 DUP4 PUSH20 0xFFFFFFFFFFFFFFFFFFFFFFFFFFFFFFFFFFFFFFFF AND PUSH20 0xFFFFFFFFFFFFFFFFFFFFFFFFFFFFFFFFFFFFFFFF AND DUP2 MSTORE PUSH1 0x20 ADD SWAP1 DUP2 MSTORE PUSH1 0x20 ADD PUSH1 0x0 KECCAK256 PUSH1 0x0 DUP2 SLOAD DUP1 SWAP3 SWAP2 SWAP1 PUSH1 0x1 SWAP1 SUB SWAP2 SWAP1 POP SSTORE POP PUSH1 0x7 PUSH1 0x0 CALLER PUSH20 0xFFFFFFFFFFFFFFFFFFFFFFFFFFFFFFFFFFFFFFFF AND PUSH20 0xFFFFFFFFFFFFFFFFFFFFFFFFFFFFFFFFFFFFFFFF AND DUP2 MSTORE PUSH1 0x20 ADD SWAP1 DUP2 MSTORE PUSH1 0x20 ADD PUSH1 0x0 KECCAK256 PUSH1 0x0 DUP2 SLOAD DUP1 SWAP3 SWAP2 SWAP1 PUSH1 0x1 ADD SWAP2 SWAP1 POP SSTORE POP PUSH1 0x4 PUSH1 0x0 DUP2 SLOAD DUP1 SWAP3 SWAP2 SWAP1 PUSH1 0x1 SWAP1 SUB SWAP2 SWAP1 POP SSTORE POP PUSH1 0x0 DUP1 PUSH2 0x9A2 CALLVALUE PUSH1 0x5 SLOAD PUSH2 0x11E8 JUMP JUMPDEST DUP1 SWAP3 POP DUP2 SWAP4 POP POP POP PUSH1 0x2 PUSH1 0x0 SWAP1 SLOAD SWAP1 PUSH2 0x100 EXP SWAP1 DIV PUSH20 0xFFFFFFFFFFFFFFFFFFFFFFFFFFFFFFFFFFFFFFFF AND PUSH20 0xFFFFFFFFFFFFFFFFFFFFFFFFFFFFFFFFFFFFFFFF AND PUSH2 0x8FC DUP4 SWAP1 DUP2 ISZERO MUL SWAP1 PUSH1 0x40 MLOAD PUSH1 0x0 PUSH1 0x40 MLOAD DUP1 DUP4 SUB DUP2 DUP6 DUP9 DUP9 CALL SWAP4 POP POP POP POP ISZERO DUP1 ISZERO PUSH2 0xA12 JUMPI RETURNDATASIZE PUSH1 0x0 DUP1 RETURNDATACOPY RETURNDATASIZE PUSH1 0x0 REVERT JUMPDEST POP DUP4 PUSH20 0xFFFFFFFFFFFFFFFFFFFFFFFFFFFFFFFFFFFFFFFF AND PUSH2 0x8FC DUP3 SWAP1 DUP2 ISZERO MUL SWAP1 PUSH1 0x40 MLOAD PUSH1 0x0 PUSH1 0x40 MLOAD DUP1 DUP4 SUB DUP2 DUP6 DUP9 DUP9 CALL SWAP4 POP POP POP POP ISZERO DUP1 ISZERO PUSH2 0xA59 JUMPI RETURNDATASIZE PUSH1 0x0 DUP1 RETURNDATACOPY RETURNDATASIZE PUSH1 0x0 REVERT JUMPDEST POP CALLER PUSH20 0xFFFFFFFFFFFFFFFFFFFFFFFFFFFFFFFFFFFFFFFF AND DUP5 PUSH20 0xFFFFFFFFFFFFFFFFFFFFFFFFFFFFFFFFFFFFFFFF AND PUSH32 0xDDF252AD1BE2C89B69C2B068FC378DAA952BA7F163C4A11628F55A4DF523B3EF DUP8 PUSH1 0x40 MLOAD PUSH2 0xAB7 SWAP2 SWAP1 PUSH2 0x15ED JUMP JUMPDEST PUSH1 0x40 MLOAD DUP1 SWAP2 SUB SWAP1 LOG3 POP POP POP POP POP JUMP JUMPDEST DUP1 CALLER PUSH20 0xFFFFFFFFFFFFFFFFFFFFFFFFFFFFFFFFFFFFFFFF AND PUSH1 0x6 PUSH1 0x0 DUP4 DUP2 MSTORE PUSH1 0x20 ADD SWAP1 DUP2 MSTORE PUSH1 0x20 ADD PUSH1 0x0 KECCAK256 PUSH1 0x0 SWAP1 SLOAD SWAP1 PUSH2 0x100 EXP SWAP1 DIV PUSH20 0xFFFFFFFFFFFFFFFFFFFFFFFFFFFFFFFFFFFFFFFF AND PUSH20 0xFFFFFFFFFFFFFFFFFFFFFFFFFFFFFFFFFFFFFFFF AND EQ PUSH2 0xB68 JUMPI PUSH1 0x40 MLOAD PUSH32 0x8C379A000000000000000000000000000000000000000000000000000000000 DUP2 MSTORE PUSH1 0x4 ADD PUSH2 0xB5F SWAP1 PUSH2 0x158D JUMP JUMPDEST PUSH1 0x40 MLOAD DUP1 SWAP2 SUB SWAP1 REVERT JUMPDEST PUSH1 0x0 PUSH20 0xFFFFFFFFFFFFFFFFFFFFFFFFFFFFFFFFFFFFFFFF AND PUSH1 0x6 PUSH1 0x0 DUP5 DUP2 MSTORE PUSH1 0x20 ADD SWAP1 DUP2 MSTORE PUSH1 0x20 ADD PUSH1 0x0 KECCAK256 PUSH1 0x0 SWAP1 SLOAD SWAP1 PUSH2 0x100 EXP SWAP1 DIV PUSH20 0xFFFFFFFFFFFFFFFFFFFFFFFFFFFFFFFFFFFFFFFF AND PUSH20 0xFFFFFFFFFFFFFFFFFFFFFFFFFFFFFFFFFFFFFFFF AND EQ ISZERO PUSH2 0xC0B JUMPI PUSH1 0x40 MLOAD PUSH32 0x8C379A000000000000000000000000000000000000000000000000000000000 DUP2 MSTORE PUSH1 0x4 ADD PUSH2 0xC02 SWAP1 PUSH2 0x156D JUMP JUMPDEST PUSH1 0x40 MLOAD DUP1 SWAP2 SUB SWAP1 REVERT JUMPDEST PUSH1 0x1 ISZERO ISZERO PUSH1 0x3 DUP4 DUP2 SLOAD DUP2 LT PUSH2 0xC49 JUMPI PUSH32 0x4E487B7100000000000000000000000000000000000000000000000000000000 PUSH1 0x0 MSTORE PUSH1 0x32 PUSH1 0x4 MSTORE PUSH1 0x24 PUSH1 0x0 REVERT JUMPDEST SWAP1 PUSH1 0x0 MSTORE PUSH1 0x20 PUSH1 0x0 KECCAK256 SWAP1 PUSH1 0x4 MUL ADD PUSH1 0x3 ADD PUSH1 0x0 SWAP1 SLOAD SWAP1 PUSH2 0x100 EXP SWAP1 DIV PUSH1 0xFF AND ISZERO ISZERO EQ PUSH2 0xCAA JUMPI PUSH1 0x40 MLOAD PUSH32 0x8C379A000000000000000000000000000000000000000000000000000000000 DUP2 MSTORE PUSH1 0x4 ADD PUSH2 0xCA1 SWAP1 PUSH2 0x152D JUMP JUMPDEST PUSH1 0x40 MLOAD DUP1 SWAP2 SUB SWAP1 REVERT JUMPDEST PUSH1 0x0 PUSH1 0x3 DUP4 DUP2 SLOAD DUP2 LT PUSH2 0xCE6 JUMPI PUSH32 0x4E487B7100000000000000000000000000000000000000000000000000000000 PUSH1 0x0 MSTORE PUSH1 0x32 PUSH1 0x4 MSTORE PUSH1 0x24 PUSH1 0x0 REVERT JUMPDEST SWAP1 PUSH1 0x0 MSTORE PUSH1 0x20 PUSH1 0x0 KECCAK256 SWAP1 PUSH1 0x4 MUL ADD PUSH1 0x3 ADD PUSH1 0x0 PUSH2 0x100 EXP DUP2 SLOAD DUP2 PUSH1 0xFF MUL NOT AND SWAP1 DUP4 ISZERO ISZERO MUL OR SWAP1 SSTORE POP PUSH1 0x4 PUSH1 0x0 DUP2 SLOAD DUP1 SWAP3 SWAP2 SWAP1 PUSH1 0x1 SWAP1 SUB SWAP2 SWAP1 POP SSTORE POP POP POP JUMP JUMPDEST PUSH1 0x0 DUP1 DUP4 GT PUSH2 0xD69 JUMPI PUSH1 0x40 MLOAD PUSH32 0x8C379A000000000000000000000000000000000000000000000000000000000 DUP2 MSTORE PUSH1 0x4 ADD PUSH2 0xD60 SWAP1 PUSH2 0x15CD JUMP JUMPDEST PUSH1 0x40 MLOAD DUP1 SWAP2 SUB SWAP1 REVERT JUMPDEST PUSH1 0x0 PUSH1 0x3 DUP1 SLOAD SWAP1 POP SWAP1 POP PUSH1 0x0 PUSH20 0xFFFFFFFFFFFFFFFFFFFFFFFFFFFFFFFFFFFFFFFF AND PUSH1 0x6 PUSH1 0x0 DUP4 DUP2 MSTORE PUSH1 0x20 ADD SWAP1 DUP2 MSTORE PUSH1 0x20 ADD PUSH1 0x0 KECCAK256 PUSH1 0x0 SWAP1 SLOAD SWAP1 PUSH2 0x100 EXP SWAP1 DIV PUSH20 0xFFFFFFFFFFFFFFFFFFFFFFFFFFFFFFFFFFFFFFFF AND PUSH20 0xFFFFFFFFFFFFFFFFFFFFFFFFFFFFFFFFFFFFFFFF AND EQ PUSH2 0xE15 JUMPI PUSH1 0x40 MLOAD PUSH32 0x8C379A000000000000000000000000000000000000000000000000000000000 DUP2 MSTORE PUSH1 0x4 ADD PUSH2 0xE0C SWAP1 PUSH2 0x154D JUMP JUMPDEST PUSH1 0x40 MLOAD DUP1 SWAP2 SUB SWAP1 REVERT JUMPDEST PUSH1 0x40 MLOAD DUP1 PUSH1 0x80 ADD PUSH1 0x40 MSTORE DUP1 DUP3 DUP2 MSTORE PUSH1 0x20 ADD DUP6 DUP2 MSTORE PUSH1 0x20 ADD DUP5 DUP2 MSTORE PUSH1 0x20 ADD PUSH1 0x1 ISZERO ISZERO DUP2 MSTORE POP PUSH1 0x3 DUP3 DUP2 SLOAD DUP2 LT PUSH2 0xE73 JUMPI PUSH32 0x4E487B7100000000000000000000000000000000000000000000000000000000 PUSH1 0x0 MSTORE PUSH1 0x32 PUSH1 0x4 MSTORE PUSH1 0x24 PUSH1 0x0 REVERT JUMPDEST SWAP1 PUSH1 0x0 MSTORE PUSH1 0x20 PUSH1 0x0 KECCAK256 SWAP1 PUSH1 0x4 MUL ADD PUSH1 0x0 DUP3 ADD MLOAD DUP2 PUSH1 0x0 ADD SSTORE PUSH1 0x20 DUP3 ADD MLOAD DUP2 PUSH1 0x1 ADD SSTORE PUSH1 0x40 DUP3 ADD MLOAD DUP2 PUSH1 0x2 ADD SSTORE PUSH1 0x60 DUP3 ADD MLOAD DUP2 PUSH1 0x3 ADD PUSH1 0x0 PUSH2 0x100 EXP DUP2 SLOAD DUP2 PUSH1 0xFF MUL NOT AND SWAP1 DUP4 ISZERO ISZERO MUL OR SWAP1 SSTORE POP SWAP1 POP POP CALLER PUSH1 0x6 PUSH1 0x0 DUP4 DUP2 MSTORE PUSH1 0x20 ADD SWAP1 DUP2 MSTORE PUSH1 0x20 ADD PUSH1 0x0 KECCAK256 PUSH1 0x0 PUSH2 0x100 EXP DUP2 SLOAD DUP2 PUSH20 0xFFFFFFFFFFFFFFFFFFFFFFFFFFFFFFFFFFFFFFFF MUL NOT AND SWAP1 DUP4 PUSH20 0xFFFFFFFFFFFFFFFFFFFFFFFFFFFFFFFFFFFFFFFF AND MUL OR SWAP1 SSTORE POP PUSH1 0x7 PUSH1 0x0 CALLER PUSH20 0xFFFFFFFFFFFFFFFFFFFFFFFFFFFFFFFFFFFFFFFF AND PUSH20 0xFFFFFFFFFFFFFFFFFFFFFFFFFFFFFFFFFFFFFFFF AND DUP2 MSTORE PUSH1 0x20 ADD SWAP1 DUP2 MSTORE PUSH1 0x20 ADD PUSH1 0x0 KECCAK256 PUSH1 0x0 DUP2 SLOAD DUP1 SWAP3 SWAP2 SWAP1 PUSH1 0x1 ADD SWAP2 SWAP1 POP SSTORE POP PUSH1 0x8 PUSH1 0x0 DUP5 DUP2 MSTORE PUSH1 0x20 ADD SWAP1 DUP2 MSTORE PUSH1 0x20 ADD PUSH1 0x0 KECCAK256 PUSH1 0x0 DUP2 SLOAD DUP1 SWAP3 SWAP2 SWAP1 PUSH1 0x1 ADD SWAP2 SWAP1 POP SSTORE POP PUSH1 0x4 PUSH1 0x0 DUP2 SLOAD DUP1 SWAP3 SWAP2 SWAP1 PUSH1 0x1 ADD SWAP2 SWAP1 POP SSTORE POP DUP1 SWAP2 POP POP SWAP3 SWAP2 POP POP JUMP JUMPDEST PUSH1 0x3 DUP2 DUP2 SLOAD DUP2 LT PUSH2 0xFB2 JUMPI PUSH1 0x0 DUP1 REVERT JUMPDEST SWAP1 PUSH1 0x0 MSTORE PUSH1 0x20 PUSH1 0x0 KECCAK256 SWAP1 PUSH1 0x4 MUL ADD PUSH1 0x0 SWAP2 POP SWAP1 POP DUP1 PUSH1 0x0 ADD SLOAD SWAP1 DUP1 PUSH1 0x1 ADD SLOAD SWAP1 DUP1 PUSH1 0x2 ADD SLOAD SWAP1 DUP1 PUSH1 0x3 ADD PUSH1 0x0 SWAP1 SLOAD SWAP1 PUSH2 0x100 EXP SWAP1 DIV PUSH1 0xFF AND SWAP1 POP DUP5 JUMP JUMPDEST DUP1 CALLER PUSH20 0xFFFFFFFFFFFFFFFFFFFFFFFFFFFFFFFFFFFFFFFF AND PUSH1 0x6 PUSH1 0x0 DUP4 DUP2 MSTORE PUSH1 0x20 ADD SWAP1 DUP2 MSTORE PUSH1 0x20 ADD PUSH1 0x0 KECCAK256 PUSH1 0x0 SWAP1 SLOAD SWAP1 PUSH2 0x100 EXP SWAP1 DIV PUSH20 0xFFFFFFFFFFFFFFFFFFFFFFFFFFFFFFFFFFFFFFFF AND PUSH20 0xFFFFFFFFFFFFFFFFFFFFFFFFFFFFFFFFFFFFFFFF AND EQ PUSH2 0x1091 JUMPI PUSH1 0x40 MLOAD PUSH32 0x8C379A000000000000000000000000000000000000000000000000000000000 DUP2 MSTORE PUSH1 0x4 ADD PUSH2 0x1088 SWAP1 PUSH2 0x158D JUMP JUMPDEST PUSH1 0x40 MLOAD DUP1 SWAP2 SUB SWAP1 REVERT JUMPDEST PUSH1 0x0 PUSH20 0xFFFFFFFFFFFFFFFFFFFFFFFFFFFFFFFFFFFFFFFF AND PUSH1 0x6 PUSH1 0x0 DUP5 DUP2 MSTORE PUSH1 0x20 ADD SWAP1 DUP2 MSTORE PUSH1 0x20 ADD PUSH1 0x0 KECCAK256 PUSH1 0x0 SWAP1 SLOAD SWAP1 PUSH2 0x100 EXP SWAP1 DIV PUSH20 0xFFFFFFFFFFFFFFFFFFFFFFFFFFFFFFFFFFFFFFFF AND PUSH20 0xFFFFFFFFFFFFFFFFFFFFFFFFFFFFFFFFFFFFFFFF AND EQ ISZERO PUSH2 0x1134 JUMPI PUSH1 0x40 MLOAD PUSH32 0x8C379A000000000000000000000000000000000000000000000000000000000 DUP2 MSTORE PUSH1 0x4 ADD PUSH2 0x112B SWAP1 PUSH2 0x156D JUMP JUMPDEST PUSH1 0x40 MLOAD DUP1 SWAP2 SUB SWAP1 REVERT JUMPDEST PUSH1 0x1 PUSH1 0x3 DUP4 DUP2 SLOAD DUP2 LT PUSH2 0x1170 JUMPI PUSH32 0x4E487B7100000000000000000000000000000000000000000000000000000000 PUSH1 0x0 MSTORE PUSH1 0x32 PUSH1 0x4 MSTORE PUSH1 0x24 PUSH1 0x0 REVERT JUMPDEST SWAP1 PUSH1 0x0 MSTORE PUSH1 0x20 PUSH1 0x0 KECCAK256 SWAP1 PUSH1 0x4 MUL ADD PUSH1 0x3 ADD PUSH1 0x0 PUSH2 0x100 EXP DUP2 SLOAD DUP2 PUSH1 0xFF MUL NOT AND SWAP1 DUP4 ISZERO ISZERO MUL OR SWAP1 SSTORE POP PUSH1 0x4 PUSH1 0x0 DUP2 SLOAD DUP1 SWAP3 SWAP2 SWAP1 PUSH1 0x1 ADD SWAP2 SWAP1 POP SSTORE POP POP POP JUMP JUMPDEST PUSH1 0x7 PUSH1 0x20 MSTORE DUP1 PUSH1 0x0 MSTORE PUSH1 0x40 PUSH1 0x0 KECCAK256 PUSH1 0x0 SWAP2 POP SWAP1 POP SLOAD DUP2 JUMP JUMPDEST PUSH1 0x8 PUSH1 0x20 MSTORE DUP1 PUSH1 0x0 MSTORE PUSH1 0x40 PUSH1 0x0 KECCAK256 PUSH1 0x0 SWAP2 POP SWAP1 POP SLOAD DUP2 JUMP JUMPDEST PUSH1 0x0 PUSH1 0x5 SLOAD SWAP1 POP SWAP1 JUMP JUMPDEST PUSH1 0x0 DUP1 PUSH1 0x0 PUSH1 0x64 DUP6 DUP6 PUSH2 0x11FB SWAP2 SWAP1 PUSH2 0x16C8 JUMP JUMPDEST PUSH2 0x1205 SWAP2 SWAP1 PUSH2 0x1697 JUMP JUMPDEST SWAP1 POP PUSH1 0x0 DUP2 DUP7 PUSH2 0x1215 SWAP2 SWAP1 PUSH2 0x1722 JUMP JUMPDEST SWAP1 POP DUP2 DUP2 SWAP4 POP SWAP4 POP POP POP SWAP3 POP SWAP3 SWAP1 POP JUMP JUMPDEST PUSH1 0x40 MLOAD DUP1 PUSH1 0x80 ADD PUSH1 0x40 MSTORE DUP1 PUSH1 0x0 DUP2 MSTORE PUSH1 0x20 ADD PUSH1 0x0 DUP2 MSTORE PUSH1 0x20 ADD PUSH1 0x0 DUP2 MSTORE PUSH1 0x20 ADD PUSH1 0x0 ISZERO ISZERO DUP2 MSTORE POP SWAP1 JUMP JUMPDEST PUSH1 0x0 DUP2 CALLDATALOAD SWAP1 POP PUSH2 0x125F DUP2 PUSH2 0x1961 JUMP JUMPDEST SWAP3 SWAP2 POP POP JUMP JUMPDEST PUSH1 0x0 DUP2 CALLDATALOAD SWAP1 POP PUSH2 0x1274 DUP2 PUSH2 0x1978 JUMP JUMPDEST SWAP3 SWAP2 POP POP JUMP JUMPDEST PUSH1 0x0 PUSH1 0x20 DUP3 DUP5 SUB SLT ISZERO PUSH2 0x128C JUMPI PUSH1 0x0 DUP1 REVERT JUMPDEST PUSH1 0x0 PUSH2 0x129A DUP5 DUP3 DUP6 ADD PUSH2 0x1250 JUMP JUMPDEST SWAP2 POP POP SWAP3 SWAP2 POP POP JUMP JUMPDEST PUSH1 0x0 PUSH1 0x20 DUP3 DUP5 SUB SLT ISZERO PUSH2 0x12B5 JUMPI PUSH1 0x0 DUP1 REVERT JUMPDEST PUSH1 0x0 PUSH2 0x12C3 DUP5 DUP3 DUP6 ADD PUSH2 0x1265 JUMP JUMPDEST SWAP2 POP POP SWAP3 SWAP2 POP POP JUMP JUMPDEST PUSH1 0x0 DUP1 PUSH1 0x40 DUP4 DUP6 SUB SLT ISZERO PUSH2 0x12DF JUMPI PUSH1 0x0 DUP1 REVERT JUMPDEST PUSH1 0x0 PUSH2 0x12ED DUP6 DUP3 DUP7 ADD PUSH2 0x1265 JUMP JUMPDEST SWAP3 POP POP PUSH1 0x20 PUSH2 0x12FE DUP6 DUP3 DUP7 ADD PUSH2 0x1265 JUMP JUMPDEST SWAP2 POP POP SWAP3 POP SWAP3 SWAP1 POP JUMP JUMPDEST PUSH1 0x0 PUSH2 0x1314 DUP4 DUP4 PUSH2 0x147D JUMP JUMPDEST PUSH1 0x80 DUP4 ADD SWAP1 POP SWAP3 SWAP2 POP POP JUMP JUMPDEST PUSH2 0x1329 DUP2 PUSH2 0x1756 JUMP JUMPDEST DUP3 MSTORE POP POP JUMP JUMPDEST PUSH1 0x0 PUSH2 0x133A DUP3 PUSH2 0x165D JUMP JUMPDEST PUSH2 0x1344 DUP2 DUP6 PUSH2 0x1675 JUMP JUMPDEST SWAP4 POP PUSH2 0x134F DUP4 PUSH2 0x164D JUMP JUMPDEST DUP1 PUSH1 0x0 JUMPDEST DUP4 DUP2 LT ISZERO PUSH2 0x1380 JUMPI DUP2 MLOAD PUSH2 0x1367 DUP9 DUP3 PUSH2 0x1308 JUMP JUMPDEST SWAP8 POP PUSH2 0x1372 DUP4 PUSH2 0x1668 JUMP JUMPDEST SWAP3 POP POP PUSH1 0x1 DUP2 ADD SWAP1 POP PUSH2 0x1353 JUMP JUMPDEST POP DUP6 SWAP4 POP POP POP POP SWAP3 SWAP2 POP POP JUMP JUMPDEST PUSH2 0x1396 DUP2 PUSH2 0x1768 JUMP JUMPDEST DUP3 MSTORE POP POP JUMP JUMPDEST PUSH2 0x13A5 DUP2 PUSH2 0x1768 JUMP JUMPDEST DUP3 MSTORE POP POP JUMP JUMPDEST PUSH1 0x0 PUSH2 0x13B8 PUSH1 0x13 DUP4 PUSH2 0x1686 JUMP JUMPDEST SWAP2 POP PUSH2 0x13C3 DUP3 PUSH2 0x1845 JUMP JUMPDEST PUSH1 0x20 DUP3 ADD SWAP1 POP SWAP2 SWAP1 POP JUMP JUMPDEST PUSH1 0x0 PUSH2 0x13DB PUSH1 0x13 DUP4 PUSH2 0x1686 JUMP JUMPDEST SWAP2 POP PUSH2 0x13E6 DUP3 PUSH2 0x186E JUMP JUMPDEST PUSH1 0x20 DUP3 ADD SWAP1 POP SWAP2 SWAP1 POP JUMP JUMPDEST PUSH1 0x0 PUSH2 0x13FE PUSH1 0x13 DUP4 PUSH2 0x1686 JUMP JUMPDEST SWAP2 POP PUSH2 0x1409 DUP3 PUSH2 0x1897 JUMP JUMPDEST PUSH1 0x20 DUP3 ADD SWAP1 POP SWAP2 SWAP1 POP JUMP JUMPDEST PUSH1 0x0 PUSH2 0x1421 PUSH1 0x1D DUP4 PUSH2 0x1686 JUMP JUMPDEST SWAP2 POP PUSH2 0x142C DUP3 PUSH2 0x18C0 JUMP JUMPDEST PUSH1 0x20 DUP3 ADD SWAP1 POP SWAP2 SWAP1 POP JUMP JUMPDEST PUSH1 0x0 PUSH2 0x1444 PUSH1 0x21 DUP4 PUSH2 0x1686 JUMP JUMPDEST SWAP2 POP PUSH2 0x144F DUP3 PUSH2 0x18E9 JUMP JUMPDEST PUSH1 0x40 DUP3 ADD SWAP1 POP SWAP2 SWAP1 POP JUMP JUMPDEST PUSH1 0x0 PUSH2 0x1467 PUSH1 0x1A DUP4 PUSH2 0x1686 JUMP JUMPDEST SWAP2 POP PUSH2 0x1472 DUP3 PUSH2 0x1938 JUMP JUMPDEST PUSH1 0x20 DUP3 ADD SWAP1 POP SWAP2 SWAP1 POP JUMP JUMPDEST PUSH1 0x80 DUP3 ADD PUSH1 0x0 DUP3 ADD MLOAD PUSH2 0x1493 PUSH1 0x0 DUP6 ADD DUP3 PUSH2 0x14D2 JUMP JUMPDEST POP PUSH1 0x20 DUP3 ADD MLOAD PUSH2 0x14A6 PUSH1 0x20 DUP6 ADD DUP3 PUSH2 0x14D2 JUMP JUMPDEST POP PUSH1 0x40 DUP3 ADD MLOAD PUSH2 0x14B9 PUSH1 0x40 DUP6 ADD DUP3 PUSH2 0x14D2 JUMP JUMPDEST POP PUSH1 0x60 DUP3 ADD MLOAD PUSH2 0x14CC PUSH1 0x60 DUP6 ADD DUP3 PUSH2 0x138D JUMP JUMPDEST POP POP POP POP JUMP JUMPDEST PUSH2 0x14DB DUP2 PUSH2 0x1794 JUMP JUMPDEST DUP3 MSTORE POP POP JUMP JUMPDEST PUSH2 0x14EA DUP2 PUSH2 0x1794 JUMP JUMPDEST DUP3 MSTORE POP POP JUMP JUMPDEST PUSH1 0x0 PUSH1 0x20 DUP3 ADD SWAP1 POP PUSH2 0x1505 PUSH1 0x0 DUP4 ADD DUP5 PUSH2 0x1320 JUMP JUMPDEST SWAP3 SWAP2 POP POP JUMP JUMPDEST PUSH1 0x0 PUSH1 0x20 DUP3 ADD SWAP1 POP DUP2 DUP2 SUB PUSH1 0x0 DUP4 ADD MSTORE PUSH2 0x1525 DUP2 DUP5 PUSH2 0x132F JUMP JUMPDEST SWAP1 POP SWAP3 SWAP2 POP POP JUMP JUMPDEST PUSH1 0x0 PUSH1 0x20 DUP3 ADD SWAP1 POP DUP2 DUP2 SUB PUSH1 0x0 DUP4 ADD MSTORE PUSH2 0x1546 DUP2 PUSH2 0x13AB JUMP JUMPDEST SWAP1 POP SWAP2 SWAP1 POP JUMP JUMPDEST PUSH1 0x0 PUSH1 0x20 DUP3 ADD SWAP1 POP DUP2 DUP2 SUB PUSH1 0x0 DUP4 ADD MSTORE PUSH2 0x1566 DUP2 PUSH2 0x13CE JUMP JUMPDEST SWAP1 POP SWAP2 SWAP1 POP JUMP JUMPDEST PUSH1 0x0 PUSH1 0x20 DUP3 ADD SWAP1 POP DUP2 DUP2 SUB PUSH1 0x0 DUP4 ADD MSTORE PUSH2 0x1586 DUP2 PUSH2 0x13F1 JUMP JUMPDEST SWAP1 POP SWAP2 SWAP1 POP JUMP JUMPDEST PUSH1 0x0 PUSH1 0x20 DUP3 ADD SWAP1 POP DUP2 DUP2 SUB PUSH1 0x0 DUP4 ADD MSTORE PUSH2 0x15A6 DUP2 PUSH2 0x1414 JUMP JUMPDEST SWAP1 POP SWAP2 SWAP1 POP JUMP JUMPDEST PUSH1 0x0 PUSH1 0x20 DUP3 ADD SWAP1 POP DUP2 DUP2 SUB PUSH1 0x0 DUP4 ADD MSTORE PUSH2 0x15C6 DUP2 PUSH2 0x1437 JUMP JUMPDEST SWAP1 POP SWAP2 SWAP1 POP JUMP JUMPDEST PUSH1 0x0 PUSH1 0x20 DUP3 ADD SWAP1 POP DUP2 DUP2 SUB PUSH1 0x0 DUP4 ADD MSTORE PUSH2 0x15E6 DUP2 PUSH2 0x145A JUMP JUMPDEST SWAP1 POP SWAP2 SWAP1 POP JUMP JUMPDEST PUSH1 0x0 PUSH1 0x20 DUP3 ADD SWAP1 POP PUSH2 0x1602 PUSH1 0x0 DUP4 ADD DUP5 PUSH2 0x14E1 JUMP JUMPDEST SWAP3 SWAP2 POP POP JUMP JUMPDEST PUSH1 0x0 PUSH1 0x80 DUP3 ADD SWAP1 POP PUSH2 0x161D PUSH1 0x0 DUP4 ADD DUP8 PUSH2 0x14E1 JUMP JUMPDEST PUSH2 0x162A PUSH1 0x20 DUP4 ADD DUP7 PUSH2 0x14E1 JUMP JUMPDEST PUSH2 0x1637 PUSH1 0x40 DUP4 ADD DUP6 PUSH2 0x14E1 JUMP JUMPDEST PUSH2 0x1644 PUSH1 0x60 DUP4 ADD DUP5 PUSH2 0x139C JUMP JUMPDEST SWAP6 SWAP5 POP POP POP POP POP JUMP JUMPDEST PUSH1 0x0 DUP2 SWAP1 POP PUSH1 0x20 DUP3 ADD SWAP1 POP SWAP2 SWAP1 POP JUMP JUMPDEST PUSH1 0x0 DUP2 MLOAD SWAP1 POP SWAP2 SWAP1 POP JUMP JUMPDEST PUSH1 0x0 PUSH1 0x20 DUP3 ADD SWAP1 POP SWAP2 SWAP1 POP JUMP JUMPDEST PUSH1 0x0 DUP3 DUP3 MSTORE PUSH1 0x20 DUP3 ADD SWAP1 POP SWAP3 SWAP2 POP POP JUMP JUMPDEST PUSH1 0x0 DUP3 DUP3 MSTORE PUSH1 0x20 DUP3 ADD SWAP1 POP SWAP3 SWAP2 POP POP JUMP JUMPDEST PUSH1 0x0 PUSH2 0x16A2 DUP3 PUSH2 0x1794 JUMP JUMPDEST SWAP2 POP PUSH2 0x16AD DUP4 PUSH2 0x1794 JUMP JUMPDEST SWAP3 POP DUP3 PUSH2 0x16BD JUMPI PUSH2 0x16BC PUSH2 0x1816 JUMP JUMPDEST JUMPDEST DUP3 DUP3 DIV SWAP1 POP SWAP3 SWAP2 POP POP JUMP JUMPDEST PUSH1 0x0 PUSH2 0x16D3 DUP3 PUSH2 0x1794 JUMP JUMPDEST SWAP2 POP PUSH2 0x16DE DUP4 PUSH2 0x1794 JUMP JUMPDEST SWAP3 POP DUP2 PUSH32 0xFFFFFFFFFFFFFFFFFFFFFFFFFFFFFFFFFFFFFFFFFFFFFFFFFFFFFFFFFFFFFFFF DIV DUP4 GT DUP3 ISZERO ISZERO AND ISZERO PUSH2 0x1717 JUMPI PUSH2 0x1716 PUSH2 0x17E7 JUMP JUMPDEST JUMPDEST DUP3 DUP3 MUL SWAP1 POP SWAP3 SWAP2 POP POP JUMP JUMPDEST PUSH1 0x0 PUSH2 0x172D DUP3 PUSH2 0x1794 JUMP JUMPDEST SWAP2 POP PUSH2 0x1738 DUP4 PUSH2 0x1794 JUMP JUMPDEST SWAP3 POP DUP3 DUP3 LT ISZERO PUSH2 0x174B JUMPI PUSH2 0x174A PUSH2 0x17E7 JUMP JUMPDEST JUMPDEST DUP3 DUP3 SUB SWAP1 POP SWAP3 SWAP2 POP POP JUMP JUMPDEST PUSH1 0x0 PUSH2 0x1761 DUP3 PUSH2 0x1774 JUMP JUMPDEST SWAP1 POP SWAP2 SWAP1 POP JUMP JUMPDEST PUSH1 0x0 DUP2 ISZERO ISZERO SWAP1 POP SWAP2 SWAP1 POP JUMP JUMPDEST PUSH1 0x0 PUSH20 0xFFFFFFFFFFFFFFFFFFFFFFFFFFFFFFFFFFFFFFFF DUP3 AND SWAP1 POP SWAP2 SWAP1 POP JUMP JUMPDEST PUSH1 0x0 DUP2 SWAP1 POP SWAP2 SWAP1 POP JUMP JUMPDEST PUSH1 0x0 PUSH2 0x17A9 DUP3 PUSH2 0x1794 JUMP JUMPDEST SWAP2 POP PUSH32 0xFFFFFFFFFFFFFFFFFFFFFFFFFFFFFFFFFFFFFFFFFFFFFFFFFFFFFFFFFFFFFFFF DUP3 EQ ISZERO PUSH2 0x17DC JUMPI PUSH2 0x17DB PUSH2 0x17E7 JUMP JUMPDEST JUMPDEST PUSH1 0x1 DUP3 ADD SWAP1 POP SWAP2 SWAP1 POP JUMP JUMPDEST PUSH32 0x4E487B7100000000000000000000000000000000000000000000000000000000 PUSH1 0x0 MSTORE PUSH1 0x11 PUSH1 0x4 MSTORE PUSH1 0x24 PUSH1 0x0 REVERT JUMPDEST PUSH32 0x4E487B7100000000000000000000000000000000000000000000000000000000 PUSH1 0x0 MSTORE PUSH1 0x12 PUSH1 0x4 MSTORE PUSH1 0x24 PUSH1 0x0 REVERT JUMPDEST PUSH32 0x746F6B656E2069736E277420746F2073656C6C00000000000000000000000000 PUSH1 0x0 DUP3 ADD MSTORE POP JUMP JUMPDEST PUSH32 0x746F6B656E20616C726561647920657869737400000000000000000000000000 PUSH1 0x0 DUP3 ADD MSTORE POP JUMP JUMPDEST PUSH32 0x746F6B656E20646F65736E277420657869737400000000000000000000000000 PUSH1 0x0 DUP3 ADD MSTORE POP JUMP JUMPDEST PUSH32 0x4F6E6C79206974656D2773206F776E65722063616E20646F2074686174000000 PUSH1 0x0 DUP3 ADD MSTORE POP JUMP JUMPDEST PUSH32 0x4F6E6C7920636F6E74726163742773206F776E65722063616E20646F20746861 PUSH1 0x0 DUP3 ADD MSTORE PUSH32 0x7400000000000000000000000000000000000000000000000000000000000000 PUSH1 0x20 DUP3 ADD MSTORE POP JUMP JUMPDEST PUSH32 0x50726963652063616E6E6F7420626520657175616C20746F2030000000000000 PUSH1 0x0 DUP3 ADD MSTORE POP JUMP JUMPDEST PUSH2 0x196A DUP2 PUSH2 0x1756 JUMP JUMPDEST DUP2 EQ PUSH2 0x1975 JUMPI PUSH1 0x0 DUP1 REVERT JUMPDEST POP JUMP JUMPDEST PUSH2 0x1981 DUP2 PUSH2 0x1794 JUMP JUMPDEST DUP2 EQ PUSH2 0x198C JUMPI PUSH1 0x0 DUP1 REVERT JUMPDEST POP JUMP INVALID LOG2 PUSH5 0x6970667358 0x22 SLT KECCAK256 PUSH15 0xA22A005E6231674CDFF96917FD785F 0xED 0xDE COINBASE 0x1E ADDRESS PUSH24 0x816F58AB9B0E06F949DB64736F6C63430008010033000000 "
				},
				"gasEstimates": {
					"creation": {
						"codeDepositCost": "1319400",
						"executionCost": "infinite",
						"totalCost": "infinite"
					},
					"external": {
						"addItemToSell(uint256)": "44934",
						"balanceOf(address)": "1608",
						"createItem(uint256,uint256)": "infinite",
						"fetchItemsToSell()": "infinite",
						"getFeesPercentage()": "1225",
						"itemToOwner(uint256)": "1585",
						"items(uint256)": "infinite",
						"itemsCatIdCount(uint256)": "infinite",
						"itemsOwnerCount(address)": "1558",
						"itemsToSellCount()": "1152",
						"modifyFeesPercentage(uint256)": "21358",
						"ownerOf(uint256)": "1610",
						"removeItemToSell(uint256)": "46706",
						"sellItem(uint256)": "infinite"
					},
					"internal": {
						"getFees(uint256,uint256)": "infinite"
					}
				},
				"methodIdentifiers": {
					"addItemToSell(uint256)": "c0f202ef",
					"balanceOf(address)": "70a08231",
					"createItem(uint256,uint256)": "adae08dd",
					"fetchItemsToSell()": "073e74df",
					"getFeesPercentage()": "ea0ff14a",
					"itemToOwner(uint256)": "1a4d96cd",
					"items(uint256)": "bfb231d2",
					"itemsCatIdCount(uint256)": "d48644bd",
					"itemsOwnerCount(address)": "c3921895",
					"itemsToSellCount()": "4c389e65",
					"modifyFeesPercentage(uint256)": "29de6246",
					"ownerOf(uint256)": "6352211e",
					"removeItemToSell(uint256)": "a4964c33",
					"sellItem(uint256)": "91b6be9a"
				}
			},
			"storageLayout": {
				"storage": [
					{
						"astId": 11,
						"contract": "contracts/GeekNft.sol:GeekNft",
						"label": "name",
						"offset": 0,
						"slot": "0",
						"type": "t_string_storage"
					},
					{
						"astId": 13,
						"contract": "contracts/GeekNft.sol:GeekNft",
						"label": "symbol",
						"offset": 0,
						"slot": "1",
						"type": "t_string_storage"
					},
					{
						"astId": 15,
						"contract": "contracts/GeekNft.sol:GeekNft",
						"label": "owner",
						"offset": 0,
						"slot": "2",
						"type": "t_address"
					},
					{
						"astId": 28,
						"contract": "contracts/GeekNft.sol:GeekNft",
						"label": "items",
						"offset": 0,
						"slot": "3",
						"type": "t_array(t_struct(Item)24_storage)dyn_storage"
					},
					{
						"astId": 30,
						"contract": "contracts/GeekNft.sol:GeekNft",
						"label": "itemsToSellCount",
						"offset": 0,
						"slot": "4",
						"type": "t_uint256"
					},
					{
						"astId": 32,
						"contract": "contracts/GeekNft.sol:GeekNft",
						"label": "feesPercentage",
						"offset": 0,
						"slot": "5",
						"type": "t_uint256"
					},
					{
						"astId": 36,
						"contract": "contracts/GeekNft.sol:GeekNft",
						"label": "itemToOwner",
						"offset": 0,
						"slot": "6",
						"type": "t_mapping(t_uint256,t_address)"
					},
					{
						"astId": 40,
						"contract": "contracts/GeekNft.sol:GeekNft",
						"label": "itemsOwnerCount",
						"offset": 0,
						"slot": "7",
						"type": "t_mapping(t_address,t_uint256)"
					},
					{
						"astId": 44,
						"contract": "contracts/GeekNft.sol:GeekNft",
						"label": "itemsCatIdCount",
						"offset": 0,
						"slot": "8",
						"type": "t_mapping(t_uint256,t_uint256)"
					}
				],
				"types": {
					"t_address": {
						"encoding": "inplace",
						"label": "address",
						"numberOfBytes": "20"
					},
					"t_array(t_struct(Item)24_storage)dyn_storage": {
						"base": "t_struct(Item)24_storage",
						"encoding": "dynamic_array",
						"label": "struct GeekNft.Item[]",
						"numberOfBytes": "32"
					},
					"t_bool": {
						"encoding": "inplace",
						"label": "bool",
						"numberOfBytes": "1"
					},
					"t_mapping(t_address,t_uint256)": {
						"encoding": "mapping",
						"key": "t_address",
						"label": "mapping(address => uint256)",
						"numberOfBytes": "32",
						"value": "t_uint256"
					},
					"t_mapping(t_uint256,t_address)": {
						"encoding": "mapping",
						"key": "t_uint256",
						"label": "mapping(uint256 => address)",
						"numberOfBytes": "32",
						"value": "t_address"
					},
					"t_mapping(t_uint256,t_uint256)": {
						"encoding": "mapping",
						"key": "t_uint256",
						"label": "mapping(uint256 => uint256)",
						"numberOfBytes": "32",
						"value": "t_uint256"
					},
					"t_string_storage": {
						"encoding": "bytes",
						"label": "string",
						"numberOfBytes": "32"
					},
					"t_struct(Item)24_storage": {
						"encoding": "inplace",
						"label": "struct GeekNft.Item",
						"members": [
							{
								"astId": 17,
								"contract": "contracts/GeekNft.sol:GeekNft",
								"label": "tokenId",
								"offset": 0,
								"slot": "0",
								"type": "t_uint256"
							},
							{
								"astId": 19,
								"contract": "contracts/GeekNft.sol:GeekNft",
								"label": "price",
								"offset": 0,
								"slot": "1",
								"type": "t_uint256"
							},
							{
								"astId": 21,
								"contract": "contracts/GeekNft.sol:GeekNft",
								"label": "catId",
								"offset": 0,
								"slot": "2",
								"type": "t_uint256"
							},
							{
								"astId": 23,
								"contract": "contracts/GeekNft.sol:GeekNft",
								"label": "toSell",
								"offset": 0,
								"slot": "3",
								"type": "t_bool"
							}
						],
						"numberOfBytes": "128"
					},
					"t_uint256": {
						"encoding": "inplace",
						"label": "uint256",
						"numberOfBytes": "32"
					}
				}
			},
			"userdoc": {
				"kind": "user",
				"methods": {},
				"version": 1
			}
		}
	}
}