{
	"contracts/GeekNft.sol": {
		"GeekNft": {
			"abi": [
				{
					"inputs": [],
					"stateMutability": "nonpayable",
					"type": "constructor"
				},
				{
					"anonymous": false,
					"inputs": [
						{
							"indexed": true,
							"internalType": "address",
							"name": "_from",
							"type": "address"
						},
						{
							"indexed": true,
							"internalType": "address",
							"name": "_to",
							"type": "address"
						},
						{
							"indexed": false,
							"internalType": "uint256",
							"name": "_tokenId",
							"type": "uint256"
						}
					],
					"name": "Transfer",
					"type": "event"
				},
				{
					"inputs": [
						{
							"internalType": "uint256",
							"name": "_tokenId",
							"type": "uint256"
						}
					],
					"name": "addItemToSell",
					"outputs": [],
					"stateMutability": "payable",
					"type": "function"
				},
				{
					"inputs": [
						{
							"internalType": "address",
							"name": "_owner",
							"type": "address"
						}
					],
					"name": "balanceOf",
					"outputs": [
						{
							"internalType": "uint256",
							"name": "",
							"type": "uint256"
						}
					],
					"stateMutability": "view",
					"type": "function"
				},
				{
					"inputs": [
						{
							"internalType": "uint256",
							"name": "_dataId",
							"type": "uint256"
						}
					],
					"name": "fetchItemByDataId",
					"outputs": [
						{
							"components": [
								{
									"internalType": "uint256",
									"name": "dataId",
									"type": "uint256"
								},
								{
									"internalType": "uint256",
									"name": "tokenId",
									"type": "uint256"
								},
								{
									"internalType": "uint256",
									"name": "price",
									"type": "uint256"
								},
								{
									"internalType": "bool",
									"name": "toSell",
									"type": "bool"
								}
							],
							"internalType": "struct GeekNft.Item",
							"name": "",
							"type": "tuple"
						}
					],
					"stateMutability": "view",
					"type": "function"
				},
				{
					"inputs": [],
					"name": "fetchItemsByCreator",
					"outputs": [
						{
							"components": [
								{
									"internalType": "uint256",
									"name": "dataId",
									"type": "uint256"
								},
								{
									"internalType": "uint256",
									"name": "tokenId",
									"type": "uint256"
								},
								{
									"internalType": "uint256",
									"name": "price",
									"type": "uint256"
								},
								{
									"internalType": "bool",
									"name": "toSell",
									"type": "bool"
								}
							],
							"internalType": "struct GeekNft.Item[]",
							"name": "",
							"type": "tuple[]"
						}
					],
					"stateMutability": "view",
					"type": "function"
				},
				{
					"inputs": [],
					"name": "fetchItemsByOwner",
					"outputs": [
						{
							"components": [
								{
									"internalType": "uint256",
									"name": "dataId",
									"type": "uint256"
								},
								{
									"internalType": "uint256",
									"name": "tokenId",
									"type": "uint256"
								},
								{
									"internalType": "uint256",
									"name": "price",
									"type": "uint256"
								},
								{
									"internalType": "bool",
									"name": "toSell",
									"type": "bool"
								}
							],
							"internalType": "struct GeekNft.Item[]",
							"name": "",
							"type": "tuple[]"
						}
					],
					"stateMutability": "view",
					"type": "function"
				},
				{
					"inputs": [],
					"name": "fetchItemsToSell",
					"outputs": [
						{
							"components": [
								{
									"internalType": "uint256",
									"name": "dataId",
									"type": "uint256"
								},
								{
									"internalType": "uint256",
									"name": "tokenId",
									"type": "uint256"
								},
								{
									"internalType": "uint256",
									"name": "price",
									"type": "uint256"
								},
								{
									"internalType": "bool",
									"name": "toSell",
									"type": "bool"
								}
							],
							"internalType": "struct GeekNft.Item[]",
							"name": "",
							"type": "tuple[]"
						}
					],
					"stateMutability": "view",
					"type": "function"
				},
				{
					"inputs": [
						{
							"internalType": "uint256",
							"name": "_catId",
							"type": "uint256"
						}
					],
					"name": "fetchItemsToSellByCatId",
					"outputs": [
						{
							"components": [
								{
									"internalType": "uint256",
									"name": "dataId",
									"type": "uint256"
								},
								{
									"internalType": "uint256",
									"name": "tokenId",
									"type": "uint256"
								},
								{
									"internalType": "uint256",
									"name": "price",
									"type": "uint256"
								},
								{
									"internalType": "bool",
									"name": "toSell",
									"type": "bool"
								}
							],
							"internalType": "struct GeekNft.Item[]",
							"name": "",
							"type": "tuple[]"
						}
					],
					"stateMutability": "view",
					"type": "function"
				},
				{
					"inputs": [],
					"name": "getCreateItemFees",
					"outputs": [
						{
							"internalType": "uint256",
							"name": "",
							"type": "uint256"
						}
					],
					"stateMutability": "view",
					"type": "function"
				},
				{
					"inputs": [],
					"name": "getCreatorPercentage",
					"outputs": [
						{
							"internalType": "uint256",
							"name": "",
							"type": "uint256"
						}
					],
					"stateMutability": "view",
					"type": "function"
				},
				{
					"inputs": [
						{
							"internalType": "uint256",
							"name": "_price",
							"type": "uint256"
						},
						{
							"internalType": "uint256",
							"name": "_catId",
							"type": "uint256"
						},
						{
							"internalType": "uint256",
							"name": "_dataId",
							"type": "uint256"
						}
					],
					"name": "mint",
					"outputs": [
						{
							"internalType": "uint256",
							"name": "",
							"type": "uint256"
						}
					],
					"stateMutability": "payable",
					"type": "function"
				},
				{
					"inputs": [
						{
							"internalType": "uint256",
							"name": "_tokenId",
							"type": "uint256"
						}
					],
					"name": "ownerOf",
					"outputs": [
						{
							"internalType": "address",
							"name": "",
							"type": "address"
						}
					],
					"stateMutability": "view",
					"type": "function"
				},
				{
					"inputs": [
						{
							"internalType": "uint256",
							"name": "_tokenId",
							"type": "uint256"
						}
					],
					"name": "removeItemToSell",
					"outputs": [],
					"stateMutability": "nonpayable",
					"type": "function"
				},
				{
					"inputs": [
						{
							"internalType": "uint256",
							"name": "_tokenId",
							"type": "uint256"
						}
					],
					"name": "sellItem",
					"outputs": [],
					"stateMutability": "payable",
					"type": "function"
				},
				{
					"inputs": [
						{
							"internalType": "uint256",
							"name": "_newFees",
							"type": "uint256"
						}
					],
					"name": "updateCreateItemFees",
					"outputs": [],
					"stateMutability": "nonpayable",
					"type": "function"
				},
				{
					"inputs": [
						{
							"internalType": "uint256",
							"name": "_newPercentage",
							"type": "uint256"
						}
					],
					"name": "updateCreatorPercentage",
					"outputs": [],
					"stateMutability": "nonpayable",
					"type": "function"
				}
			],
			"devdoc": {
				"kind": "dev",
				"methods": {},
				"version": 1
			},
			"evm": {
				"assembly": "    /* \"contracts/GeekNft.sol\":110:6773  contract GeekNft {... */\n  mstore(0x40, 0x80)\n    /* \"contracts/GeekNft.sol\":448:461  0.00025 ether */\n  0xe35fa931a000\n    /* \"contracts/GeekNft.sol\":426:461  uint createItemFees = 0.00025 ether */\n  0x05\n  sstore\n    /* \"contracts/GeekNft.sol\":492:493  5 */\n  0x05\n    /* \"contracts/GeekNft.sol\":467:493  uint creatorPercentage = 5 */\n  0x06\n  sstore\n    /* \"contracts/GeekNft.sol\":765:870  constructor() {... */\n  callvalue\n  dup1\n  iszero\n  tag_1\n  jumpi\n  0x00\n  dup1\n  revert\ntag_1:\n  pop\n    /* \"contracts/GeekNft.sol\":797:807  msg.sender */\n  caller\n    /* \"contracts/GeekNft.sol\":789:794  owner */\n  0x02\n  0x00\n    /* \"contracts/GeekNft.sol\":789:807  owner = msg.sender */\n  0x0100\n  exp\n  dup2\n  sload\n  dup2\n  0xffffffffffffffffffffffffffffffffffffffff\n  mul\n  not\n  and\n  swap1\n  dup4\n  0xffffffffffffffffffffffffffffffffffffffff\n  and\n  mul\n  or\n  swap1\n  sstore\n  pop\n    /* \"contracts/GeekNft.sol\":817:837  name = \"Geek Tokens\" */\n  mload(0x40)\n  dup1\n  0x40\n  add\n  0x40\n  mstore\n  dup1\n  0x0b\n  dup2\n  mstore\n  0x20\n  add\n  0x4765656b20546f6b656e73000000000000000000000000000000000000000000\n  dup2\n  mstore\n  pop\n    /* \"contracts/GeekNft.sol\":817:821  name */\n  0x00\n    /* \"contracts/GeekNft.sol\":817:837  name = \"Geek Tokens\" */\n  swap1\n  dup1\n  mload\n  swap1\n  0x20\n  add\n  swap1\n  tag_4\n  swap3\n  swap2\n  swap1\n  tag_5\n  jump\t// in\ntag_4:\n  pop\n    /* \"contracts/GeekNft.sol\":847:863  symbol = \"GEEKT\" */\n  mload(0x40)\n  dup1\n  0x40\n  add\n  0x40\n  mstore\n  dup1\n  0x05\n  dup2\n  mstore\n  0x20\n  add\n  0x4745454b54000000000000000000000000000000000000000000000000000000\n  dup2\n  mstore\n  pop\n    /* \"contracts/GeekNft.sol\":847:853  symbol */\n  0x01\n    /* \"contracts/GeekNft.sol\":847:863  symbol = \"GEEKT\" */\n  swap1\n  dup1\n  mload\n  swap1\n  0x20\n  add\n  swap1\n  tag_6\n  swap3\n  swap2\n  swap1\n  tag_5\n  jump\t// in\ntag_6:\n  pop\n    /* \"contracts/GeekNft.sol\":110:6773  contract GeekNft {... */\n  jump(tag_7)\ntag_5:\n  dup3\n  dup1\n  sload\n  tag_8\n  swap1\n  tag_9\n  jump\t// in\ntag_8:\n  swap1\n  0x00\n  mstore\n  keccak256(0x00, 0x20)\n  swap1\n  0x1f\n  add\n  0x20\n  swap1\n  div\n  dup2\n  add\n  swap3\n  dup3\n  tag_11\n  jumpi\n  0x00\n  dup6\n  sstore\n  jump(tag_10)\ntag_11:\n  dup3\n  0x1f\n  lt\n  tag_12\n  jumpi\n  dup1\n  mload\n  not(0xff)\n  and\n  dup4\n  dup1\n  add\n  or\n  dup6\n  sstore\n  jump(tag_10)\ntag_12:\n  dup3\n  dup1\n  add\n  0x01\n  add\n  dup6\n  sstore\n  dup3\n  iszero\n  tag_10\n  jumpi\n  swap2\n  dup3\n  add\ntag_13:\n  dup3\n  dup2\n  gt\n  iszero\n  tag_14\n  jumpi\n  dup3\n  mload\n  dup3\n  sstore\n  swap2\n  0x20\n  add\n  swap2\n  swap1\n  0x01\n  add\n  swap1\n  jump(tag_13)\ntag_14:\ntag_10:\n  pop\n  swap1\n  pop\n  tag_15\n  swap2\n  swap1\n  tag_16\n  jump\t// in\ntag_15:\n  pop\n  swap1\n  jump\t// out\ntag_16:\ntag_17:\n  dup1\n  dup3\n  gt\n  iszero\n  tag_18\n  jumpi\n  0x00\n  dup2\n  0x00\n  swap1\n  sstore\n  pop\n  0x01\n  add\n  jump(tag_17)\ntag_18:\n  pop\n  swap1\n  jump\t// out\n    /* \"#utility.yul\":7:327   */\ntag_9:\n  0x00\n    /* \"#utility.yul\":88:89   */\n  0x02\n    /* \"#utility.yul\":82:86   */\n  dup3\n    /* \"#utility.yul\":78:90   */\n  div\n    /* \"#utility.yul\":68:90   */\n  swap1\n  pop\n    /* \"#utility.yul\":135:136   */\n  0x01\n    /* \"#utility.yul\":129:133   */\n  dup3\n    /* \"#utility.yul\":125:137   */\n  and\n    /* \"#utility.yul\":156:174   */\n  dup1\n    /* \"#utility.yul\":146:148   */\n  tag_21\n  jumpi\n    /* \"#utility.yul\":212:216   */\n  0x7f\n    /* \"#utility.yul\":204:210   */\n  dup3\n    /* \"#utility.yul\":200:217   */\n  and\n    /* \"#utility.yul\":190:217   */\n  swap2\n  pop\n    /* \"#utility.yul\":146:148   */\ntag_21:\n    /* \"#utility.yul\":274:276   */\n  0x20\n    /* \"#utility.yul\":266:272   */\n  dup3\n    /* \"#utility.yul\":263:277   */\n  lt\n    /* \"#utility.yul\":243:261   */\n  dup2\n    /* \"#utility.yul\":240:278   */\n  eq\n    /* \"#utility.yul\":237:239   */\n  iszero\n  tag_22\n  jumpi\n    /* \"#utility.yul\":293:311   */\n  tag_23\n  tag_24\n  jump\t// in\ntag_23:\n    /* \"#utility.yul\":237:239   */\ntag_22:\n    /* \"#utility.yul\":58:327   */\n  pop\n  swap2\n  swap1\n  pop\n  jump\t// out\n    /* \"#utility.yul\":333:513   */\ntag_24:\n    /* \"#utility.yul\":381:458   */\n  0x4e487b7100000000000000000000000000000000000000000000000000000000\n    /* \"#utility.yul\":378:379   */\n  0x00\n    /* \"#utility.yul\":371:459   */\n  mstore\n    /* \"#utility.yul\":478:482   */\n  0x22\n    /* \"#utility.yul\":475:476   */\n  0x04\n    /* \"#utility.yul\":468:483   */\n  mstore\n    /* \"#utility.yul\":502:506   */\n  0x24\n    /* \"#utility.yul\":499:500   */\n  0x00\n    /* \"#utility.yul\":492:507   */\n  revert\n    /* \"contracts/GeekNft.sol\":110:6773  contract GeekNft {... */\ntag_7:\n  dataSize(sub_0)\n  dup1\n  dataOffset(sub_0)\n  0x00\n  codecopy\n  0x00\n  return\nstop\n\nsub_0: assembly {\n        /* \"contracts/GeekNft.sol\":110:6773  contract GeekNft {... */\n      mstore(0x40, 0x80)\n      jumpi(tag_1, lt(calldatasize, 0x04))\n      shr(0xe0, calldataload(0x00))\n      dup1\n      0x6352211e\n      gt\n      tag_17\n      jumpi\n      dup1\n      0xa411d68d\n      gt\n      tag_18\n      jumpi\n      dup1\n      0xa411d68d\n      eq\n      tag_13\n      jumpi\n      dup1\n      0xa4964c33\n      eq\n      tag_14\n      jumpi\n      dup1\n      0xc0f202ef\n      eq\n      tag_15\n      jumpi\n      dup1\n      0xe6e95ea7\n      eq\n      tag_16\n      jumpi\n      jump(tag_1)\n    tag_18:\n      dup1\n      0x6352211e\n      eq\n      tag_9\n      jumpi\n      dup1\n      0x67af7d09\n      eq\n      tag_10\n      jumpi\n      dup1\n      0x70a08231\n      eq\n      tag_11\n      jumpi\n      dup1\n      0x91b6be9a\n      eq\n      tag_12\n      jumpi\n      jump(tag_1)\n    tag_17:\n      dup1\n      0x1b03427c\n      gt\n      tag_19\n      jumpi\n      dup1\n      0x1b03427c\n      eq\n      tag_5\n      jumpi\n      dup1\n      0x406693b2\n      eq\n      tag_6\n      jumpi\n      dup1\n      0x4cad2ffc\n      eq\n      tag_7\n      jumpi\n      dup1\n      0x55474257\n      eq\n      tag_8\n      jumpi\n      jump(tag_1)\n    tag_19:\n      dup1\n      0x02acc94b\n      eq\n      tag_2\n      jumpi\n      dup1\n      0x073e74df\n      eq\n      tag_3\n      jumpi\n      dup1\n      0x160035b1\n      eq\n      tag_4\n      jumpi\n    tag_1:\n      0x00\n      dup1\n      revert\n        /* \"contracts/GeekNft.sol\":1750:2498  function mint(uint _price, uint _catId, uint _dataId) public payable sendCorrectFeesValue returns (uint){... */\n    tag_2:\n      tag_20\n      0x04\n      dup1\n      calldatasize\n      sub\n      dup2\n      add\n      swap1\n      tag_21\n      swap2\n      swap1\n      tag_22\n      jump\t// in\n    tag_21:\n      tag_23\n      jump\t// in\n    tag_20:\n      mload(0x40)\n      tag_24\n      swap2\n      swap1\n      tag_25\n      jump\t// in\n    tag_24:\n      mload(0x40)\n      dup1\n      swap2\n      sub\n      swap1\n      return\n        /* \"contracts/GeekNft.sol\":4898:5265  function fetchItemsToSell() public view returns (Item[] memory){... */\n    tag_3:\n      callvalue\n      dup1\n      iszero\n      tag_26\n      jumpi\n      0x00\n      dup1\n      revert\n    tag_26:\n      pop\n      tag_27\n      tag_28\n      jump\t// in\n    tag_27:\n      mload(0x40)\n      tag_29\n      swap2\n      swap1\n      tag_30\n      jump\t// in\n    tag_29:\n      mload(0x40)\n      dup1\n      swap2\n      sub\n      swap1\n      return\n        /* \"contracts/GeekNft.sol\":1644:1744  function getCreatorPercentage() public view returns (uint) {... */\n    tag_4:\n      callvalue\n      dup1\n      iszero\n      tag_31\n      jumpi\n      0x00\n      dup1\n      revert\n    tag_31:\n      pop\n      tag_32\n      tag_33\n      jump\t// in\n    tag_32:\n      mload(0x40)\n      tag_34\n      swap2\n      swap1\n      tag_25\n      jump\t// in\n    tag_34:\n      mload(0x40)\n      dup1\n      swap2\n      sub\n      swap1\n      return\n        /* \"contracts/GeekNft.sol\":1509:1638  function updateCreatorPercentage(uint _newPercentage) public onlyContractOwner{... */\n    tag_5:\n      callvalue\n      dup1\n      iszero\n      tag_35\n      jumpi\n      0x00\n      dup1\n      revert\n    tag_35:\n      pop\n      tag_36\n      0x04\n      dup1\n      calldatasize\n      sub\n      dup2\n      add\n      swap1\n      tag_37\n      swap2\n      swap1\n      tag_38\n      jump\t// in\n    tag_37:\n      tag_39\n      jump\t// in\n    tag_36:\n      stop\n        /* \"contracts/GeekNft.sol\":6057:6477  function fetchItemsToSellByCatId(uint _catId) public view returns (Item[] memory){... */\n    tag_6:\n      callvalue\n      dup1\n      iszero\n      tag_40\n      jumpi\n      0x00\n      dup1\n      revert\n    tag_40:\n      pop\n      tag_41\n      0x04\n      dup1\n      calldatasize\n      sub\n      dup2\n      add\n      swap1\n      tag_42\n      swap2\n      swap1\n      tag_38\n      jump\t// in\n    tag_42:\n      tag_43\n      jump\t// in\n    tag_41:\n      mload(0x40)\n      tag_44\n      swap2\n      swap1\n      tag_30\n      jump\t// in\n    tag_44:\n      mload(0x40)\n      dup1\n      swap2\n      sub\n      swap1\n      return\n        /* \"contracts/GeekNft.sol\":5271:5655  function fetchItemsByOwner() public view returns (Item[] memory){... */\n    tag_7:\n      callvalue\n      dup1\n      iszero\n      tag_45\n      jumpi\n      0x00\n      dup1\n      revert\n    tag_45:\n      pop\n      tag_46\n      tag_47\n      jump\t// in\n    tag_46:\n      mload(0x40)\n      tag_48\n      swap2\n      swap1\n      tag_30\n      jump\t// in\n    tag_48:\n      mload(0x40)\n      dup1\n      swap2\n      sub\n      swap1\n      return\n        /* \"contracts/GeekNft.sol\":4591:4892  function fetchItemByDataId(uint _dataId) public view returns (Item memory){... */\n    tag_8:\n      callvalue\n      dup1\n      iszero\n      tag_49\n      jumpi\n      0x00\n      dup1\n      revert\n    tag_49:\n      pop\n      tag_50\n      0x04\n      dup1\n      calldatasize\n      sub\n      dup2\n      add\n      swap1\n      tag_51\n      swap2\n      swap1\n      tag_38\n      jump\t// in\n    tag_51:\n      tag_52\n      jump\t// in\n    tag_50:\n      mload(0x40)\n      tag_53\n      swap2\n      swap1\n      tag_54\n      jump\t// in\n    tag_53:\n      mload(0x40)\n      dup1\n      swap2\n      sub\n      swap1\n      return\n        /* \"contracts/GeekNft.sol\":3620:3726  function ownerOf(uint _tokenId) public view returns (address){... */\n    tag_9:\n      callvalue\n      dup1\n      iszero\n      tag_55\n      jumpi\n      0x00\n      dup1\n      revert\n    tag_55:\n      pop\n      tag_56\n      0x04\n      dup1\n      calldatasize\n      sub\n      dup2\n      add\n      swap1\n      tag_57\n      swap2\n      swap1\n      tag_38\n      jump\t// in\n    tag_57:\n      tag_58\n      jump\t// in\n    tag_56:\n      mload(0x40)\n      tag_59\n      swap2\n      swap1\n      tag_60\n      jump\t// in\n    tag_59:\n      mload(0x40)\n      dup1\n      swap2\n      sub\n      swap1\n      return\n        /* \"contracts/GeekNft.sol\":5661:6051  function fetchItemsByCreator() public view returns (Item[] memory){... */\n    tag_10:\n      callvalue\n      dup1\n      iszero\n      tag_61\n      jumpi\n      0x00\n      dup1\n      revert\n    tag_61:\n      pop\n      tag_62\n      tag_63\n      jump\t// in\n    tag_62:\n      mload(0x40)\n      tag_64\n      swap2\n      swap1\n      tag_30\n      jump\t// in\n    tag_64:\n      mload(0x40)\n      dup1\n      swap2\n      sub\n      swap1\n      return\n        /* \"contracts/GeekNft.sol\":3732:3840  function balanceOf(address _owner) public view returns (uint){... */\n    tag_11:\n      callvalue\n      dup1\n      iszero\n      tag_65\n      jumpi\n      0x00\n      dup1\n      revert\n    tag_65:\n      pop\n      tag_66\n      0x04\n      dup1\n      calldatasize\n      sub\n      dup2\n      add\n      swap1\n      tag_67\n      swap2\n      swap1\n      tag_68\n      jump\t// in\n    tag_67:\n      tag_69\n      jump\t// in\n    tag_66:\n      mload(0x40)\n      tag_70\n      swap2\n      swap1\n      tag_25\n      jump\t// in\n    tag_70:\n      mload(0x40)\n      dup1\n      swap2\n      sub\n      swap1\n      return\n        /* \"contracts/GeekNft.sol\":2504:3614  function sellItem(uint _tokenId) public payable{... */\n    tag_12:\n      tag_71\n      0x04\n      dup1\n      calldatasize\n      sub\n      dup2\n      add\n      swap1\n      tag_72\n      swap2\n      swap1\n      tag_38\n      jump\t// in\n    tag_72:\n      tag_73\n      jump\t// in\n    tag_71:\n      stop\n        /* \"contracts/GeekNft.sol\":1409:1503  function getCreateItemFees() public view returns (uint) {... */\n    tag_13:\n      callvalue\n      dup1\n      iszero\n      tag_74\n      jumpi\n      0x00\n      dup1\n      revert\n    tag_74:\n      pop\n      tag_75\n      tag_76\n      jump\t// in\n    tag_75:\n      mload(0x40)\n      tag_77\n      swap2\n      swap1\n      tag_25\n      jump\t// in\n    tag_77:\n      mload(0x40)\n      dup1\n      swap2\n      sub\n      swap1\n      return\n        /* \"contracts/GeekNft.sol\":3846:4175  function removeItemToSell(uint _tokenId) public onlyItemOwner(_tokenId) {... */\n    tag_14:\n      callvalue\n      dup1\n      iszero\n      tag_78\n      jumpi\n      0x00\n      dup1\n      revert\n    tag_78:\n      pop\n      tag_79\n      0x04\n      dup1\n      calldatasize\n      sub\n      dup2\n      add\n      swap1\n      tag_80\n      swap2\n      swap1\n      tag_38\n      jump\t// in\n    tag_80:\n      tag_81\n      jump\t// in\n    tag_79:\n      stop\n        /* \"contracts/GeekNft.sol\":4181:4585  function addItemToSell(uint _tokenId) public payable sendCorrectFeesValue onlyItemOwner(_tokenId) {... */\n    tag_15:\n      tag_82\n      0x04\n      dup1\n      calldatasize\n      sub\n      dup2\n      add\n      swap1\n      tag_83\n      swap2\n      swap1\n      tag_38\n      jump\t// in\n    tag_83:\n      tag_84\n      jump\t// in\n    tag_82:\n      stop\n        /* \"contracts/GeekNft.sol\":1292:1403  function updateCreateItemFees(uint _newFees) public onlyContractOwner{... */\n    tag_16:\n      callvalue\n      dup1\n      iszero\n      tag_85\n      jumpi\n      0x00\n      dup1\n      revert\n    tag_85:\n      pop\n      tag_86\n      0x04\n      dup1\n      calldatasize\n      sub\n      dup2\n      add\n      swap1\n      tag_87\n      swap2\n      swap1\n      tag_38\n      jump\t// in\n    tag_87:\n      tag_88\n      jump\t// in\n    tag_86:\n      stop\n        /* \"contracts/GeekNft.sol\":1750:2498  function mint(uint _price, uint _catId, uint _dataId) public payable sendCorrectFeesValue returns (uint){... */\n    tag_23:\n        /* \"contracts/GeekNft.sol\":1849:1853  uint */\n      0x00\n        /* \"contracts/GeekNft.sol\":1216:1230  createItemFees */\n      sload(0x05)\n        /* \"contracts/GeekNft.sol\":1203:1212  msg.value */\n      callvalue\n        /* \"contracts/GeekNft.sol\":1203:1230  msg.value == createItemFees */\n      eq\n        /* \"contracts/GeekNft.sol\":1195:1268  require(msg.value == createItemFees, \"Thanks to send correct fees value\") */\n      tag_90\n      jumpi\n      mload(0x40)\n      0x08c379a000000000000000000000000000000000000000000000000000000000\n      dup2\n      mstore\n      0x04\n      add\n      tag_91\n      swap1\n      tag_92\n      jump\t// in\n    tag_91:\n      mload(0x40)\n      dup1\n      swap2\n      sub\n      swap1\n      revert\n    tag_90:\n        /* \"contracts/GeekNft.sol\":1881:1882  0 */\n      0x00\n        /* \"contracts/GeekNft.sol\":1872:1878  _price */\n      dup5\n        /* \"contracts/GeekNft.sol\":1872:1882  _price > 0 */\n      gt\n        /* \"contracts/GeekNft.sol\":1864:1913  require(_price > 0, \"Price cannot be equal to 0\") */\n      tag_94\n      jumpi\n      mload(0x40)\n      0x08c379a000000000000000000000000000000000000000000000000000000000\n      dup2\n      mstore\n      0x04\n      add\n      tag_95\n      swap1\n      tag_96\n      jump\t// in\n    tag_95:\n      mload(0x40)\n      dup1\n      swap2\n      sub\n      swap1\n      revert\n    tag_94:\n        /* \"contracts/GeekNft.sol\":1923:1938  uint newTokenId */\n      0x00\n        /* \"contracts/GeekNft.sol\":1941:1946  items */\n      0x03\n        /* \"contracts/GeekNft.sol\":1941:1953  items.length */\n      dup1\n      sload\n      swap1\n      pop\n        /* \"contracts/GeekNft.sol\":1923:1953  uint newTokenId = items.length */\n      swap1\n      pop\n        /* \"contracts/GeekNft.sol\":2007:2008  0 */\n      0x00\n        /* \"contracts/GeekNft.sol\":1972:2009  itemToOwner[newTokenId] == address(0) */\n      0xffffffffffffffffffffffffffffffffffffffff\n      and\n        /* \"contracts/GeekNft.sol\":1972:1983  itemToOwner */\n      0x08\n        /* \"contracts/GeekNft.sol\":1972:1995  itemToOwner[newTokenId] */\n      0x00\n        /* \"contracts/GeekNft.sol\":1984:1994  newTokenId */\n      dup4\n        /* \"contracts/GeekNft.sol\":1972:1995  itemToOwner[newTokenId] */\n      dup2\n      mstore\n      0x20\n      add\n      swap1\n      dup2\n      mstore\n      0x20\n      add\n      0x00\n      keccak256\n      0x00\n      swap1\n      sload\n      swap1\n      0x0100\n      exp\n      swap1\n      div\n      0xffffffffffffffffffffffffffffffffffffffff\n      and\n        /* \"contracts/GeekNft.sol\":1972:2009  itemToOwner[newTokenId] == address(0) */\n      0xffffffffffffffffffffffffffffffffffffffff\n      and\n      eq\n        /* \"contracts/GeekNft.sol\":1964:2033  require(itemToOwner[newTokenId] == address(0), \"token already exist\") */\n      tag_97\n      jumpi\n      mload(0x40)\n      0x08c379a000000000000000000000000000000000000000000000000000000000\n      dup2\n      mstore\n      0x04\n      add\n      tag_98\n      swap1\n      tag_99\n      jump\t// in\n    tag_98:\n      mload(0x40)\n      dup1\n      swap2\n      sub\n      swap1\n      revert\n    tag_97:\n        /* \"contracts/GeekNft.sol\":2044:2049  items */\n      0x03\n        /* \"contracts/GeekNft.sol\":2055:2094  Item(_dataId, newTokenId, _price, true) */\n      mload(0x40)\n      dup1\n      0x80\n      add\n      0x40\n      mstore\n      dup1\n        /* \"contracts/GeekNft.sol\":2060:2067  _dataId */\n      dup6\n        /* \"contracts/GeekNft.sol\":2055:2094  Item(_dataId, newTokenId, _price, true) */\n      dup2\n      mstore\n      0x20\n      add\n        /* \"contracts/GeekNft.sol\":2069:2079  newTokenId */\n      dup4\n        /* \"contracts/GeekNft.sol\":2055:2094  Item(_dataId, newTokenId, _price, true) */\n      dup2\n      mstore\n      0x20\n      add\n        /* \"contracts/GeekNft.sol\":2081:2087  _price */\n      dup8\n        /* \"contracts/GeekNft.sol\":2055:2094  Item(_dataId, newTokenId, _price, true) */\n      dup2\n      mstore\n      0x20\n      add\n        /* \"contracts/GeekNft.sol\":2089:2093  true */\n      0x01\n        /* \"contracts/GeekNft.sol\":2055:2094  Item(_dataId, newTokenId, _price, true) */\n      iszero\n      iszero\n      dup2\n      mstore\n      pop\n        /* \"contracts/GeekNft.sol\":2044:2095  items.push(Item(_dataId, newTokenId, _price, true)) */\n      swap1\n      dup1\n      0x01\n      dup2\n      sload\n      add\n      dup1\n      dup3\n      sstore\n      dup1\n      swap2\n      pop\n      pop\n      0x01\n      swap1\n      sub\n      swap1\n      0x00\n      mstore\n      keccak256(0x00, 0x20)\n      swap1\n      0x04\n      mul\n      add\n      0x00\n      swap1\n      swap2\n      swap1\n      swap2\n      swap1\n      swap2\n      pop\n      0x00\n      dup3\n      add\n      mload\n      dup2\n      0x00\n      add\n      sstore\n      0x20\n      dup3\n      add\n      mload\n      dup2\n      0x01\n      add\n      sstore\n      0x40\n      dup3\n      add\n      mload\n      dup2\n      0x02\n      add\n      sstore\n      0x60\n      dup3\n      add\n      mload\n      dup2\n      0x03\n      add\n      exp(0x0100, 0x00)\n      dup2\n      sload\n      dup2\n      0xff\n      mul\n      not\n      and\n      swap1\n      dup4\n      iszero\n      iszero\n      mul\n      or\n      swap1\n      sstore\n      pop\n      pop\n      pop\n        /* \"contracts/GeekNft.sol\":2131:2141  msg.sender */\n      caller\n        /* \"contracts/GeekNft.sol\":2105:2116  itemToOwner */\n      0x08\n        /* \"contracts/GeekNft.sol\":2105:2128  itemToOwner[newTokenId] */\n      0x00\n        /* \"contracts/GeekNft.sol\":2117:2127  newTokenId */\n      dup4\n        /* \"contracts/GeekNft.sol\":2105:2128  itemToOwner[newTokenId] */\n      dup2\n      mstore\n      0x20\n      add\n      swap1\n      dup2\n      mstore\n      0x20\n      add\n      0x00\n      keccak256\n      0x00\n        /* \"contracts/GeekNft.sol\":2105:2141  itemToOwner[newTokenId] = msg.sender */\n      0x0100\n      exp\n      dup2\n      sload\n      dup2\n      0xffffffffffffffffffffffffffffffffffffffff\n      mul\n      not\n      and\n      swap1\n      dup4\n      0xffffffffffffffffffffffffffffffffffffffff\n      and\n      mul\n      or\n      swap1\n      sstore\n      pop\n        /* \"contracts/GeekNft.sol\":2179:2189  msg.sender */\n      caller\n        /* \"contracts/GeekNft.sol\":2151:2164  itemToCreator */\n      0x0a\n        /* \"contracts/GeekNft.sol\":2151:2176  itemToCreator[newTokenId] */\n      0x00\n        /* \"contracts/GeekNft.sol\":2165:2175  newTokenId */\n      dup4\n        /* \"contracts/GeekNft.sol\":2151:2176  itemToCreator[newTokenId] */\n      dup2\n      mstore\n      0x20\n      add\n      swap1\n      dup2\n      mstore\n      0x20\n      add\n      0x00\n      keccak256\n      0x00\n        /* \"contracts/GeekNft.sol\":2151:2189  itemToCreator[newTokenId] = msg.sender */\n      0x0100\n      exp\n      dup2\n      sload\n      dup2\n      0xffffffffffffffffffffffffffffffffffffffff\n      mul\n      not\n      and\n      swap1\n      dup4\n      0xffffffffffffffffffffffffffffffffffffffff\n      and\n      mul\n      or\n      swap1\n      sstore\n      pop\n        /* \"contracts/GeekNft.sol\":2225:2231  _catId */\n      dup4\n        /* \"contracts/GeekNft.sol\":2199:2210  itemToCatId */\n      0x0c\n        /* \"contracts/GeekNft.sol\":2199:2222  itemToCatId[newTokenId] */\n      0x00\n        /* \"contracts/GeekNft.sol\":2211:2221  newTokenId */\n      dup4\n        /* \"contracts/GeekNft.sol\":2199:2222  itemToCatId[newTokenId] */\n      dup2\n      mstore\n      0x20\n      add\n      swap1\n      dup2\n      mstore\n      0x20\n      add\n      0x00\n      keccak256\n        /* \"contracts/GeekNft.sol\":2199:2231  itemToCatId[newTokenId] = _catId */\n      dup2\n      swap1\n      sstore\n      pop\n        /* \"contracts/GeekNft.sol\":2265:2280  itemsOwnerCount */\n      0x07\n        /* \"contracts/GeekNft.sol\":2265:2292  itemsOwnerCount[msg.sender] */\n      0x00\n        /* \"contracts/GeekNft.sol\":2281:2291  msg.sender */\n      caller\n        /* \"contracts/GeekNft.sol\":2265:2292  itemsOwnerCount[msg.sender] */\n      0xffffffffffffffffffffffffffffffffffffffff\n      and\n      0xffffffffffffffffffffffffffffffffffffffff\n      and\n      dup2\n      mstore\n      0x20\n      add\n      swap1\n      dup2\n      mstore\n      0x20\n      add\n      0x00\n      keccak256\n      0x00\n        /* \"contracts/GeekNft.sol\":2265:2294  itemsOwnerCount[msg.sender]++ */\n      dup2\n      sload\n      dup1\n      swap3\n      swap2\n      swap1\n      0x01\n      add\n      swap2\n      swap1\n      pop\n      sstore\n      pop\n        /* \"contracts/GeekNft.sol\":2308:2325  itemsCreatorCount */\n      0x09\n        /* \"contracts/GeekNft.sol\":2308:2337  itemsCreatorCount[msg.sender] */\n      0x00\n        /* \"contracts/GeekNft.sol\":2326:2336  msg.sender */\n      caller\n        /* \"contracts/GeekNft.sol\":2308:2337  itemsCreatorCount[msg.sender] */\n      0xffffffffffffffffffffffffffffffffffffffff\n      and\n      0xffffffffffffffffffffffffffffffffffffffff\n      and\n      dup2\n      mstore\n      0x20\n      add\n      swap1\n      dup2\n      mstore\n      0x20\n      add\n      0x00\n      keccak256\n      0x00\n        /* \"contracts/GeekNft.sol\":2308:2339  itemsCreatorCount[msg.sender]++ */\n      dup2\n      sload\n      dup1\n      swap3\n      swap2\n      swap1\n      0x01\n      add\n      swap2\n      swap1\n      pop\n      sstore\n      pop\n        /* \"contracts/GeekNft.sol\":2353:2368  itemsCatIdCount */\n      0x0b\n        /* \"contracts/GeekNft.sol\":2353:2376  itemsCatIdCount[_catId] */\n      0x00\n        /* \"contracts/GeekNft.sol\":2369:2375  _catId */\n      dup6\n        /* \"contracts/GeekNft.sol\":2353:2376  itemsCatIdCount[_catId] */\n      dup2\n      mstore\n      0x20\n      add\n      swap1\n      dup2\n      mstore\n      0x20\n      add\n      0x00\n      keccak256\n      0x00\n        /* \"contracts/GeekNft.sol\":2353:2378  itemsCatIdCount[_catId]++ */\n      dup2\n      sload\n      dup1\n      swap3\n      swap2\n      swap1\n      0x01\n      add\n      swap2\n      swap1\n      pop\n      sstore\n      pop\n        /* \"contracts/GeekNft.sol\":2392:2408  itemsToSellCount */\n      0x04\n      0x00\n        /* \"contracts/GeekNft.sol\":2392:2410  itemsToSellCount++ */\n      dup2\n      sload\n      dup1\n      swap3\n      swap2\n      swap1\n      0x01\n      add\n      swap2\n      swap1\n      pop\n      sstore\n      pop\n        /* \"contracts/GeekNft.sol\":2438:2443  owner */\n      0x02\n      0x00\n      swap1\n      sload\n      swap1\n      0x0100\n      exp\n      swap1\n      div\n      0xffffffffffffffffffffffffffffffffffffffff\n      and\n        /* \"contracts/GeekNft.sol\":2430:2453  payable(owner).transfer */\n      0xffffffffffffffffffffffffffffffffffffffff\n      and\n        /* \"contracts/GeekNft.sol\":2430:2464  payable(owner).transfer(msg.value) */\n      0x08fc\n        /* \"contracts/GeekNft.sol\":2454:2463  msg.value */\n      callvalue\n        /* \"contracts/GeekNft.sol\":2430:2464  payable(owner).transfer(msg.value) */\n      swap1\n      dup2\n      iszero\n      mul\n      swap1\n      mload(0x40)\n      0x00\n      mload(0x40)\n      dup1\n      dup4\n      sub\n      dup2\n      dup6\n      dup9\n      dup9\n      call\n      swap4\n      pop\n      pop\n      pop\n      pop\n      iszero\n      dup1\n      iszero\n      tag_102\n      jumpi\n      returndatasize\n      0x00\n      dup1\n      returndatacopy\n      revert(0x00, returndatasize)\n    tag_102:\n      pop\n        /* \"contracts/GeekNft.sol\":2481:2491  newTokenId */\n      dup1\n        /* \"contracts/GeekNft.sol\":2474:2491  return newTokenId */\n      swap2\n      pop\n      pop\n        /* \"contracts/GeekNft.sol\":1750:2498  function mint(uint _price, uint _catId, uint _dataId) public payable sendCorrectFeesValue returns (uint){... */\n      swap4\n      swap3\n      pop\n      pop\n      pop\n      jump\t// out\n        /* \"contracts/GeekNft.sol\":4898:5265  function fetchItemsToSell() public view returns (Item[] memory){... */\n    tag_28:\n        /* \"contracts/GeekNft.sol\":4947:4960  Item[] memory */\n      0x60\n        /* \"contracts/GeekNft.sol\":4971:4983  uint counter */\n      0x00\n        /* \"contracts/GeekNft.sol\":4997:5017  Item[] memory result */\n      dup1\n        /* \"contracts/GeekNft.sol\":5031:5047  itemsToSellCount */\n      sload(0x04)\n        /* \"contracts/GeekNft.sol\":5020:5048  new Item[](itemsToSellCount) */\n      0xffffffffffffffff\n      dup2\n      gt\n      iszero\n      tag_104\n      jumpi\n      mstore(0x00, 0x4e487b7100000000000000000000000000000000000000000000000000000000)\n      mstore(0x04, 0x41)\n      revert(0x00, 0x24)\n    tag_104:\n      mload(0x40)\n      swap1\n      dup1\n      dup3\n      mstore\n      dup1\n      0x20\n      mul\n      0x20\n      add\n      dup3\n      add\n      0x40\n      mstore\n      dup1\n      iszero\n      tag_105\n      jumpi\n      dup2\n      0x20\n      add\n    tag_106:\n      tag_107\n      tag_108\n      jump\t// in\n    tag_107:\n      dup2\n      mstore\n      0x20\n      add\n      swap1\n      0x01\n      swap1\n      sub\n      swap1\n      dup2\n      tag_106\n      jumpi\n      swap1\n      pop\n    tag_105:\n      pop\n        /* \"contracts/GeekNft.sol\":4997:5048  Item[] memory result = new Item[](itemsToSellCount) */\n      swap1\n      pop\n        /* \"contracts/GeekNft.sol\":5063:5069  uint i */\n      0x00\n        /* \"contracts/GeekNft.sol\":5059:5235  for(uint i = 0; i < items.length; i++) {... */\n    tag_109:\n        /* \"contracts/GeekNft.sol\":5079:5084  items */\n      0x03\n        /* \"contracts/GeekNft.sol\":5079:5091  items.length */\n      dup1\n      sload\n      swap1\n      pop\n        /* \"contracts/GeekNft.sol\":5075:5076  i */\n      dup2\n        /* \"contracts/GeekNft.sol\":5075:5091  i < items.length */\n      lt\n        /* \"contracts/GeekNft.sol\":5059:5235  for(uint i = 0; i < items.length; i++) {... */\n      iszero\n      tag_110\n      jumpi\n        /* \"contracts/GeekNft.sol\":5134:5138  true */\n      0x01\n        /* \"contracts/GeekNft.sol\":5115:5138  items[i].toSell == true */\n      iszero\n      iszero\n        /* \"contracts/GeekNft.sol\":5115:5120  items */\n      0x03\n        /* \"contracts/GeekNft.sol\":5121:5122  i */\n      dup3\n        /* \"contracts/GeekNft.sol\":5115:5123  items[i] */\n      dup2\n      sload\n      dup2\n      lt\n      tag_112\n      jumpi\n      mstore(0x00, 0x4e487b7100000000000000000000000000000000000000000000000000000000)\n      mstore(0x04, 0x32)\n      revert(0x00, 0x24)\n    tag_112:\n      swap1\n      0x00\n      mstore\n      keccak256(0x00, 0x20)\n      swap1\n      0x04\n      mul\n      add\n        /* \"contracts/GeekNft.sol\":5115:5130  items[i].toSell */\n      0x03\n      add\n      0x00\n      swap1\n      sload\n      swap1\n      0x0100\n      exp\n      swap1\n      div\n      0xff\n      and\n        /* \"contracts/GeekNft.sol\":5115:5138  items[i].toSell == true */\n      iszero\n      iszero\n      eq\n        /* \"contracts/GeekNft.sol\":5112:5225  if(items[i].toSell == true){... */\n      iszero\n      tag_114\n      jumpi\n        /* \"contracts/GeekNft.sol\":5175:5180  items */\n      0x03\n        /* \"contracts/GeekNft.sol\":5181:5182  i */\n      dup2\n        /* \"contracts/GeekNft.sol\":5175:5183  items[i] */\n      dup2\n      sload\n      dup2\n      lt\n      tag_115\n      jumpi\n      mstore(0x00, 0x4e487b7100000000000000000000000000000000000000000000000000000000)\n      mstore(0x04, 0x32)\n      revert(0x00, 0x24)\n    tag_115:\n      swap1\n      0x00\n      mstore\n      keccak256(0x00, 0x20)\n      swap1\n      0x04\n      mul\n      add\n        /* \"contracts/GeekNft.sol\":5157:5183  result[counter] = items[i] */\n      mload(0x40)\n      dup1\n      0x80\n      add\n      0x40\n      mstore\n      swap1\n      dup2\n      0x00\n      dup3\n      add\n      sload\n      dup2\n      mstore\n      0x20\n      add\n      0x01\n      dup3\n      add\n      sload\n      dup2\n      mstore\n      0x20\n      add\n      0x02\n      dup3\n      add\n      sload\n      dup2\n      mstore\n      0x20\n      add\n      0x03\n      dup3\n      add\n      0x00\n      swap1\n      sload\n      swap1\n      0x0100\n      exp\n      swap1\n      div\n      0xff\n      and\n      iszero\n      iszero\n      iszero\n      iszero\n      dup2\n      mstore\n      pop\n      pop\n        /* \"contracts/GeekNft.sol\":5157:5163  result */\n      dup3\n        /* \"contracts/GeekNft.sol\":5164:5171  counter */\n      dup5\n        /* \"contracts/GeekNft.sol\":5157:5172  result[counter] */\n      dup2\n      mload\n      dup2\n      lt\n      tag_117\n      jumpi\n      mstore(0x00, 0x4e487b7100000000000000000000000000000000000000000000000000000000)\n      mstore(0x04, 0x32)\n      revert(0x00, 0x24)\n    tag_117:\n      0x20\n      mul\n      0x20\n      add\n      add\n        /* \"contracts/GeekNft.sol\":5157:5183  result[counter] = items[i] */\n      dup2\n      swap1\n      mstore\n      pop\n        /* \"contracts/GeekNft.sol\":5201:5210  counter++ */\n      dup3\n      dup1\n      tag_118\n      swap1\n      tag_119\n      jump\t// in\n    tag_118:\n      swap4\n      pop\n      pop\n        /* \"contracts/GeekNft.sol\":5112:5225  if(items[i].toSell == true){... */\n    tag_114:\n        /* \"contracts/GeekNft.sol\":5093:5096  i++ */\n      dup1\n      dup1\n      tag_120\n      swap1\n      tag_119\n      jump\t// in\n    tag_120:\n      swap2\n      pop\n      pop\n        /* \"contracts/GeekNft.sol\":5059:5235  for(uint i = 0; i < items.length; i++) {... */\n      jump(tag_109)\n    tag_110:\n      pop\n        /* \"contracts/GeekNft.sol\":5252:5258  result */\n      dup1\n        /* \"contracts/GeekNft.sol\":5245:5258  return result */\n      swap3\n      pop\n      pop\n      pop\n        /* \"contracts/GeekNft.sol\":4898:5265  function fetchItemsToSell() public view returns (Item[] memory){... */\n      swap1\n      jump\t// out\n        /* \"contracts/GeekNft.sol\":1644:1744  function getCreatorPercentage() public view returns (uint) {... */\n    tag_33:\n        /* \"contracts/GeekNft.sol\":1697:1701  uint */\n      0x00\n        /* \"contracts/GeekNft.sol\":1720:1737  creatorPercentage */\n      sload(0x06)\n        /* \"contracts/GeekNft.sol\":1713:1737  return creatorPercentage */\n      swap1\n      pop\n        /* \"contracts/GeekNft.sol\":1644:1744  function getCreatorPercentage() public view returns (uint) {... */\n      swap1\n      jump\t// out\n        /* \"contracts/GeekNft.sol\":1509:1638  function updateCreatorPercentage(uint _newPercentage) public onlyContractOwner{... */\n    tag_39:\n        /* \"contracts/GeekNft.sol\":937:942  owner */\n      0x02\n      0x00\n      swap1\n      sload\n      swap1\n      0x0100\n      exp\n      swap1\n      div\n      0xffffffffffffffffffffffffffffffffffffffff\n      and\n        /* \"contracts/GeekNft.sol\":923:942  msg.sender == owner */\n      0xffffffffffffffffffffffffffffffffffffffff\n      and\n        /* \"contracts/GeekNft.sol\":923:933  msg.sender */\n      caller\n        /* \"contracts/GeekNft.sol\":923:942  msg.sender == owner */\n      0xffffffffffffffffffffffffffffffffffffffff\n      and\n      eq\n        /* \"contracts/GeekNft.sol\":915:980  require(msg.sender == owner, \"Only contract's owner can do that\") */\n      tag_123\n      jumpi\n      mload(0x40)\n      0x08c379a000000000000000000000000000000000000000000000000000000000\n      dup2\n      mstore\n      0x04\n      add\n      tag_124\n      swap1\n      tag_125\n      jump\t// in\n    tag_124:\n      mload(0x40)\n      dup1\n      swap2\n      sub\n      swap1\n      revert\n    tag_123:\n        /* \"contracts/GeekNft.sol\":1617:1631  _newPercentage */\n      dup1\n        /* \"contracts/GeekNft.sol\":1597:1614  creatorPercentage */\n      0x06\n        /* \"contracts/GeekNft.sol\":1597:1631  creatorPercentage = _newPercentage */\n      dup2\n      swap1\n      sstore\n      pop\n        /* \"contracts/GeekNft.sol\":1509:1638  function updateCreatorPercentage(uint _newPercentage) public onlyContractOwner{... */\n      pop\n      jump\t// out\n        /* \"contracts/GeekNft.sol\":6057:6477  function fetchItemsToSellByCatId(uint _catId) public view returns (Item[] memory){... */\n    tag_43:\n        /* \"contracts/GeekNft.sol\":6124:6137  Item[] memory */\n      0x60\n        /* \"contracts/GeekNft.sol\":6148:6160  uint counter */\n      0x00\n        /* \"contracts/GeekNft.sol\":6174:6194  Item[] memory result */\n      dup1\n        /* \"contracts/GeekNft.sol\":6208:6223  itemsCatIdCount */\n      0x0b\n        /* \"contracts/GeekNft.sol\":6208:6231  itemsCatIdCount[_catId] */\n      0x00\n        /* \"contracts/GeekNft.sol\":6224:6230  _catId */\n      dup6\n        /* \"contracts/GeekNft.sol\":6208:6231  itemsCatIdCount[_catId] */\n      dup2\n      mstore\n      0x20\n      add\n      swap1\n      dup2\n      mstore\n      0x20\n      add\n      0x00\n      keccak256\n      sload\n        /* \"contracts/GeekNft.sol\":6197:6232  new Item[](itemsCatIdCount[_catId]) */\n      0xffffffffffffffff\n      dup2\n      gt\n      iszero\n      tag_128\n      jumpi\n      mstore(0x00, 0x4e487b7100000000000000000000000000000000000000000000000000000000)\n      mstore(0x04, 0x41)\n      revert(0x00, 0x24)\n    tag_128:\n      mload(0x40)\n      swap1\n      dup1\n      dup3\n      mstore\n      dup1\n      0x20\n      mul\n      0x20\n      add\n      dup3\n      add\n      0x40\n      mstore\n      dup1\n      iszero\n      tag_129\n      jumpi\n      dup2\n      0x20\n      add\n    tag_130:\n      tag_131\n      tag_108\n      jump\t// in\n    tag_131:\n      dup2\n      mstore\n      0x20\n      add\n      swap1\n      0x01\n      swap1\n      sub\n      swap1\n      dup2\n      tag_130\n      jumpi\n      swap1\n      pop\n    tag_129:\n      pop\n        /* \"contracts/GeekNft.sol\":6174:6232  Item[] memory result = new Item[](itemsCatIdCount[_catId]) */\n      swap1\n      pop\n        /* \"contracts/GeekNft.sol\":6247:6253  uint i */\n      0x00\n        /* \"contracts/GeekNft.sol\":6243:6447  for(uint i = 0; i < items.length; i++) {... */\n    tag_132:\n        /* \"contracts/GeekNft.sol\":6263:6268  items */\n      0x03\n        /* \"contracts/GeekNft.sol\":6263:6275  items.length */\n      dup1\n      sload\n      swap1\n      pop\n        /* \"contracts/GeekNft.sol\":6259:6260  i */\n      dup2\n        /* \"contracts/GeekNft.sol\":6259:6275  i < items.length */\n      lt\n        /* \"contracts/GeekNft.sol\":6243:6447  for(uint i = 0; i < items.length; i++) {... */\n      iszero\n      tag_133\n      jumpi\n        /* \"contracts/GeekNft.sol\":6317:6323  _catId */\n      dup5\n        /* \"contracts/GeekNft.sol\":6299:6310  itemToCatId */\n      0x0c\n        /* \"contracts/GeekNft.sol\":6299:6313  itemToCatId[i] */\n      0x00\n        /* \"contracts/GeekNft.sol\":6311:6312  i */\n      dup4\n        /* \"contracts/GeekNft.sol\":6299:6313  itemToCatId[i] */\n      dup2\n      mstore\n      0x20\n      add\n      swap1\n      dup2\n      mstore\n      0x20\n      add\n      0x00\n      keccak256\n      sload\n        /* \"contracts/GeekNft.sol\":6299:6323  itemToCatId[i] == _catId */\n      eq\n        /* \"contracts/GeekNft.sol\":6299:6350  itemToCatId[i] == _catId && items[i].toSell == true */\n      dup1\n      iszero\n      tag_135\n      jumpi\n      pop\n        /* \"contracts/GeekNft.sol\":6346:6350  true */\n      0x01\n        /* \"contracts/GeekNft.sol\":6327:6350  items[i].toSell == true */\n      iszero\n      iszero\n        /* \"contracts/GeekNft.sol\":6327:6332  items */\n      0x03\n        /* \"contracts/GeekNft.sol\":6333:6334  i */\n      dup3\n        /* \"contracts/GeekNft.sol\":6327:6335  items[i] */\n      dup2\n      sload\n      dup2\n      lt\n      tag_136\n      jumpi\n      mstore(0x00, 0x4e487b7100000000000000000000000000000000000000000000000000000000)\n      mstore(0x04, 0x32)\n      revert(0x00, 0x24)\n    tag_136:\n      swap1\n      0x00\n      mstore\n      keccak256(0x00, 0x20)\n      swap1\n      0x04\n      mul\n      add\n        /* \"contracts/GeekNft.sol\":6327:6342  items[i].toSell */\n      0x03\n      add\n      0x00\n      swap1\n      sload\n      swap1\n      0x0100\n      exp\n      swap1\n      div\n      0xff\n      and\n        /* \"contracts/GeekNft.sol\":6327:6350  items[i].toSell == true */\n      iszero\n      iszero\n      eq\n        /* \"contracts/GeekNft.sol\":6299:6350  itemToCatId[i] == _catId && items[i].toSell == true */\n    tag_135:\n        /* \"contracts/GeekNft.sol\":6296:6437  if(itemToCatId[i] == _catId && items[i].toSell == true){... */\n      iszero\n      tag_138\n      jumpi\n        /* \"contracts/GeekNft.sol\":6387:6392  items */\n      0x03\n        /* \"contracts/GeekNft.sol\":6393:6394  i */\n      dup2\n        /* \"contracts/GeekNft.sol\":6387:6395  items[i] */\n      dup2\n      sload\n      dup2\n      lt\n      tag_139\n      jumpi\n      mstore(0x00, 0x4e487b7100000000000000000000000000000000000000000000000000000000)\n      mstore(0x04, 0x32)\n      revert(0x00, 0x24)\n    tag_139:\n      swap1\n      0x00\n      mstore\n      keccak256(0x00, 0x20)\n      swap1\n      0x04\n      mul\n      add\n        /* \"contracts/GeekNft.sol\":6369:6395  result[counter] = items[i] */\n      mload(0x40)\n      dup1\n      0x80\n      add\n      0x40\n      mstore\n      swap1\n      dup2\n      0x00\n      dup3\n      add\n      sload\n      dup2\n      mstore\n      0x20\n      add\n      0x01\n      dup3\n      add\n      sload\n      dup2\n      mstore\n      0x20\n      add\n      0x02\n      dup3\n      add\n      sload\n      dup2\n      mstore\n      0x20\n      add\n      0x03\n      dup3\n      add\n      0x00\n      swap1\n      sload\n      swap1\n      0x0100\n      exp\n      swap1\n      div\n      0xff\n      and\n      iszero\n      iszero\n      iszero\n      iszero\n      dup2\n      mstore\n      pop\n      pop\n        /* \"contracts/GeekNft.sol\":6369:6375  result */\n      dup3\n        /* \"contracts/GeekNft.sol\":6376:6383  counter */\n      dup5\n        /* \"contracts/GeekNft.sol\":6369:6384  result[counter] */\n      dup2\n      mload\n      dup2\n      lt\n      tag_141\n      jumpi\n      mstore(0x00, 0x4e487b7100000000000000000000000000000000000000000000000000000000)\n      mstore(0x04, 0x32)\n      revert(0x00, 0x24)\n    tag_141:\n      0x20\n      mul\n      0x20\n      add\n      add\n        /* \"contracts/GeekNft.sol\":6369:6395  result[counter] = items[i] */\n      dup2\n      swap1\n      mstore\n      pop\n        /* \"contracts/GeekNft.sol\":6413:6422  counter++ */\n      dup3\n      dup1\n      tag_142\n      swap1\n      tag_119\n      jump\t// in\n    tag_142:\n      swap4\n      pop\n      pop\n        /* \"contracts/GeekNft.sol\":6296:6437  if(itemToCatId[i] == _catId && items[i].toSell == true){... */\n    tag_138:\n        /* \"contracts/GeekNft.sol\":6277:6280  i++ */\n      dup1\n      dup1\n      tag_143\n      swap1\n      tag_119\n      jump\t// in\n    tag_143:\n      swap2\n      pop\n      pop\n        /* \"contracts/GeekNft.sol\":6243:6447  for(uint i = 0; i < items.length; i++) {... */\n      jump(tag_132)\n    tag_133:\n      pop\n        /* \"contracts/GeekNft.sol\":6464:6470  result */\n      dup1\n        /* \"contracts/GeekNft.sol\":6457:6470  return result */\n      swap3\n      pop\n      pop\n      pop\n        /* \"contracts/GeekNft.sol\":6057:6477  function fetchItemsToSellByCatId(uint _catId) public view returns (Item[] memory){... */\n      swap2\n      swap1\n      pop\n      jump\t// out\n        /* \"contracts/GeekNft.sol\":5271:5655  function fetchItemsByOwner() public view returns (Item[] memory){... */\n    tag_47:\n        /* \"contracts/GeekNft.sol\":5321:5334  Item[] memory */\n      0x60\n        /* \"contracts/GeekNft.sol\":5345:5357  uint counter */\n      0x00\n        /* \"contracts/GeekNft.sol\":5371:5391  Item[] memory result */\n      dup1\n        /* \"contracts/GeekNft.sol\":5405:5420  itemsOwnerCount */\n      0x07\n        /* \"contracts/GeekNft.sol\":5405:5432  itemsOwnerCount[msg.sender] */\n      0x00\n        /* \"contracts/GeekNft.sol\":5421:5431  msg.sender */\n      caller\n        /* \"contracts/GeekNft.sol\":5405:5432  itemsOwnerCount[msg.sender] */\n      0xffffffffffffffffffffffffffffffffffffffff\n      and\n      0xffffffffffffffffffffffffffffffffffffffff\n      and\n      dup2\n      mstore\n      0x20\n      add\n      swap1\n      dup2\n      mstore\n      0x20\n      add\n      0x00\n      keccak256\n      sload\n        /* \"contracts/GeekNft.sol\":5394:5433  new Item[](itemsOwnerCount[msg.sender]) */\n      0xffffffffffffffff\n      dup2\n      gt\n      iszero\n      tag_145\n      jumpi\n      mstore(0x00, 0x4e487b7100000000000000000000000000000000000000000000000000000000)\n      mstore(0x04, 0x41)\n      revert(0x00, 0x24)\n    tag_145:\n      mload(0x40)\n      swap1\n      dup1\n      dup3\n      mstore\n      dup1\n      0x20\n      mul\n      0x20\n      add\n      dup3\n      add\n      0x40\n      mstore\n      dup1\n      iszero\n      tag_146\n      jumpi\n      dup2\n      0x20\n      add\n    tag_147:\n      tag_148\n      tag_108\n      jump\t// in\n    tag_148:\n      dup2\n      mstore\n      0x20\n      add\n      swap1\n      0x01\n      swap1\n      sub\n      swap1\n      dup2\n      tag_147\n      jumpi\n      swap1\n      pop\n    tag_146:\n      pop\n        /* \"contracts/GeekNft.sol\":5371:5433  Item[] memory result = new Item[](itemsOwnerCount[msg.sender]) */\n      swap1\n      pop\n        /* \"contracts/GeekNft.sol\":5448:5454  uint i */\n      0x00\n        /* \"contracts/GeekNft.sol\":5444:5625  for(uint i = 0; i < items.length; i++) {... */\n    tag_149:\n        /* \"contracts/GeekNft.sol\":5464:5469  items */\n      0x03\n        /* \"contracts/GeekNft.sol\":5464:5476  items.length */\n      dup1\n      sload\n      swap1\n      pop\n        /* \"contracts/GeekNft.sol\":5460:5461  i */\n      dup2\n        /* \"contracts/GeekNft.sol\":5460:5476  i < items.length */\n      lt\n        /* \"contracts/GeekNft.sol\":5444:5625  for(uint i = 0; i < items.length; i++) {... */\n      iszero\n      tag_150\n      jumpi\n        /* \"contracts/GeekNft.sol\":5518:5528  msg.sender */\n      caller\n        /* \"contracts/GeekNft.sol\":5500:5528  itemToOwner[i] == msg.sender */\n      0xffffffffffffffffffffffffffffffffffffffff\n      and\n        /* \"contracts/GeekNft.sol\":5500:5511  itemToOwner */\n      0x08\n        /* \"contracts/GeekNft.sol\":5500:5514  itemToOwner[i] */\n      0x00\n        /* \"contracts/GeekNft.sol\":5512:5513  i */\n      dup4\n        /* \"contracts/GeekNft.sol\":5500:5514  itemToOwner[i] */\n      dup2\n      mstore\n      0x20\n      add\n      swap1\n      dup2\n      mstore\n      0x20\n      add\n      0x00\n      keccak256\n      0x00\n      swap1\n      sload\n      swap1\n      0x0100\n      exp\n      swap1\n      div\n      0xffffffffffffffffffffffffffffffffffffffff\n      and\n        /* \"contracts/GeekNft.sol\":5500:5528  itemToOwner[i] == msg.sender */\n      0xffffffffffffffffffffffffffffffffffffffff\n      and\n      eq\n        /* \"contracts/GeekNft.sol\":5497:5615  if(itemToOwner[i] == msg.sender){... */\n      iszero\n      tag_152\n      jumpi\n        /* \"contracts/GeekNft.sol\":5565:5570  items */\n      0x03\n        /* \"contracts/GeekNft.sol\":5571:5572  i */\n      dup2\n        /* \"contracts/GeekNft.sol\":5565:5573  items[i] */\n      dup2\n      sload\n      dup2\n      lt\n      tag_153\n      jumpi\n      mstore(0x00, 0x4e487b7100000000000000000000000000000000000000000000000000000000)\n      mstore(0x04, 0x32)\n      revert(0x00, 0x24)\n    tag_153:\n      swap1\n      0x00\n      mstore\n      keccak256(0x00, 0x20)\n      swap1\n      0x04\n      mul\n      add\n        /* \"contracts/GeekNft.sol\":5547:5573  result[counter] = items[i] */\n      mload(0x40)\n      dup1\n      0x80\n      add\n      0x40\n      mstore\n      swap1\n      dup2\n      0x00\n      dup3\n      add\n      sload\n      dup2\n      mstore\n      0x20\n      add\n      0x01\n      dup3\n      add\n      sload\n      dup2\n      mstore\n      0x20\n      add\n      0x02\n      dup3\n      add\n      sload\n      dup2\n      mstore\n      0x20\n      add\n      0x03\n      dup3\n      add\n      0x00\n      swap1\n      sload\n      swap1\n      0x0100\n      exp\n      swap1\n      div\n      0xff\n      and\n      iszero\n      iszero\n      iszero\n      iszero\n      dup2\n      mstore\n      pop\n      pop\n        /* \"contracts/GeekNft.sol\":5547:5553  result */\n      dup3\n        /* \"contracts/GeekNft.sol\":5554:5561  counter */\n      dup5\n        /* \"contracts/GeekNft.sol\":5547:5562  result[counter] */\n      dup2\n      mload\n      dup2\n      lt\n      tag_155\n      jumpi\n      mstore(0x00, 0x4e487b7100000000000000000000000000000000000000000000000000000000)\n      mstore(0x04, 0x32)\n      revert(0x00, 0x24)\n    tag_155:\n      0x20\n      mul\n      0x20\n      add\n      add\n        /* \"contracts/GeekNft.sol\":5547:5573  result[counter] = items[i] */\n      dup2\n      swap1\n      mstore\n      pop\n        /* \"contracts/GeekNft.sol\":5591:5600  counter++ */\n      dup3\n      dup1\n      tag_156\n      swap1\n      tag_119\n      jump\t// in\n    tag_156:\n      swap4\n      pop\n      pop\n        /* \"contracts/GeekNft.sol\":5497:5615  if(itemToOwner[i] == msg.sender){... */\n    tag_152:\n        /* \"contracts/GeekNft.sol\":5478:5481  i++ */\n      dup1\n      dup1\n      tag_157\n      swap1\n      tag_119\n      jump\t// in\n    tag_157:\n      swap2\n      pop\n      pop\n        /* \"contracts/GeekNft.sol\":5444:5625  for(uint i = 0; i < items.length; i++) {... */\n      jump(tag_149)\n    tag_150:\n      pop\n        /* \"contracts/GeekNft.sol\":5642:5648  result */\n      dup1\n        /* \"contracts/GeekNft.sol\":5635:5648  return result */\n      swap3\n      pop\n      pop\n      pop\n        /* \"contracts/GeekNft.sol\":5271:5655  function fetchItemsByOwner() public view returns (Item[] memory){... */\n      swap1\n      jump\t// out\n        /* \"contracts/GeekNft.sol\":4591:4892  function fetchItemByDataId(uint _dataId) public view returns (Item memory){... */\n    tag_52:\n        /* \"contracts/GeekNft.sol\":4653:4664  Item memory */\n      tag_158\n      tag_108\n      jump\t// in\n    tag_158:\n        /* \"contracts/GeekNft.sol\":4675:4691  Item memory item */\n      tag_160\n      tag_108\n      jump\t// in\n    tag_160:\n        /* \"contracts/GeekNft.sol\":4705:4711  uint i */\n      0x00\n        /* \"contracts/GeekNft.sol\":4701:4865  for(uint i = 0; i < items.length; i++) {... */\n    tag_161:\n        /* \"contracts/GeekNft.sol\":4721:4726  items */\n      0x03\n        /* \"contracts/GeekNft.sol\":4721:4733  items.length */\n      dup1\n      sload\n      swap1\n      pop\n        /* \"contracts/GeekNft.sol\":4717:4718  i */\n      dup2\n        /* \"contracts/GeekNft.sol\":4717:4733  i < items.length */\n      lt\n        /* \"contracts/GeekNft.sol\":4701:4865  for(uint i = 0; i < items.length; i++) {... */\n      iszero\n      tag_162\n      jumpi\n        /* \"contracts/GeekNft.sol\":4776:4783  _dataId */\n      dup4\n        /* \"contracts/GeekNft.sol\":4757:4762  items */\n      0x03\n        /* \"contracts/GeekNft.sol\":4763:4764  i */\n      dup3\n        /* \"contracts/GeekNft.sol\":4757:4765  items[i] */\n      dup2\n      sload\n      dup2\n      lt\n      tag_164\n      jumpi\n      mstore(0x00, 0x4e487b7100000000000000000000000000000000000000000000000000000000)\n      mstore(0x04, 0x32)\n      revert(0x00, 0x24)\n    tag_164:\n      swap1\n      0x00\n      mstore\n      keccak256(0x00, 0x20)\n      swap1\n      0x04\n      mul\n      add\n        /* \"contracts/GeekNft.sol\":4757:4772  items[i].dataId */\n      0x00\n      add\n      sload\n        /* \"contracts/GeekNft.sol\":4757:4783  items[i].dataId == _dataId */\n      eq\n        /* \"contracts/GeekNft.sol\":4754:4855  if(items[i].dataId == _dataId){... */\n      iszero\n      tag_166\n      jumpi\n        /* \"contracts/GeekNft.sol\":4809:4814  items */\n      0x03\n        /* \"contracts/GeekNft.sol\":4815:4816  i */\n      dup2\n        /* \"contracts/GeekNft.sol\":4809:4817  items[i] */\n      dup2\n      sload\n      dup2\n      lt\n      tag_167\n      jumpi\n      mstore(0x00, 0x4e487b7100000000000000000000000000000000000000000000000000000000)\n      mstore(0x04, 0x32)\n      revert(0x00, 0x24)\n    tag_167:\n      swap1\n      0x00\n      mstore\n      keccak256(0x00, 0x20)\n      swap1\n      0x04\n      mul\n      add\n        /* \"contracts/GeekNft.sol\":4802:4817  item = items[i] */\n      mload(0x40)\n      dup1\n      0x80\n      add\n      0x40\n      mstore\n      swap1\n      dup2\n      0x00\n      dup3\n      add\n      sload\n      dup2\n      mstore\n      0x20\n      add\n      0x01\n      dup3\n      add\n      sload\n      dup2\n      mstore\n      0x20\n      add\n      0x02\n      dup3\n      add\n      sload\n      dup2\n      mstore\n      0x20\n      add\n      0x03\n      dup3\n      add\n      0x00\n      swap1\n      sload\n      swap1\n      0x0100\n      exp\n      swap1\n      div\n      0xff\n      and\n      iszero\n      iszero\n      iszero\n      iszero\n      dup2\n      mstore\n      pop\n      pop\n      swap2\n      pop\n        /* \"contracts/GeekNft.sol\":4835:4840  break */\n      jump(tag_162)\n        /* \"contracts/GeekNft.sol\":4754:4855  if(items[i].dataId == _dataId){... */\n    tag_166:\n        /* \"contracts/GeekNft.sol\":4735:4738  i++ */\n      dup1\n      dup1\n      tag_169\n      swap1\n      tag_119\n      jump\t// in\n    tag_169:\n      swap2\n      pop\n      pop\n        /* \"contracts/GeekNft.sol\":4701:4865  for(uint i = 0; i < items.length; i++) {... */\n      jump(tag_161)\n    tag_162:\n      pop\n        /* \"contracts/GeekNft.sol\":4881:4885  item */\n      dup1\n        /* \"contracts/GeekNft.sol\":4874:4885  return item */\n      swap2\n      pop\n      pop\n        /* \"contracts/GeekNft.sol\":4591:4892  function fetchItemByDataId(uint _dataId) public view returns (Item memory){... */\n      swap2\n      swap1\n      pop\n      jump\t// out\n        /* \"contracts/GeekNft.sol\":3620:3726  function ownerOf(uint _tokenId) public view returns (address){... */\n    tag_58:\n        /* \"contracts/GeekNft.sol\":3673:3680  address */\n      0x00\n        /* \"contracts/GeekNft.sol\":3698:3709  itemToOwner */\n      0x08\n        /* \"contracts/GeekNft.sol\":3698:3719  itemToOwner[_tokenId] */\n      0x00\n        /* \"contracts/GeekNft.sol\":3710:3718  _tokenId */\n      dup4\n        /* \"contracts/GeekNft.sol\":3698:3719  itemToOwner[_tokenId] */\n      dup2\n      mstore\n      0x20\n      add\n      swap1\n      dup2\n      mstore\n      0x20\n      add\n      0x00\n      keccak256\n      0x00\n      swap1\n      sload\n      swap1\n      0x0100\n      exp\n      swap1\n      div\n      0xffffffffffffffffffffffffffffffffffffffff\n      and\n        /* \"contracts/GeekNft.sol\":3691:3719  return itemToOwner[_tokenId] */\n      swap1\n      pop\n        /* \"contracts/GeekNft.sol\":3620:3726  function ownerOf(uint _tokenId) public view returns (address){... */\n      swap2\n      swap1\n      pop\n      jump\t// out\n        /* \"contracts/GeekNft.sol\":5661:6051  function fetchItemsByCreator() public view returns (Item[] memory){... */\n    tag_63:\n        /* \"contracts/GeekNft.sol\":5713:5726  Item[] memory */\n      0x60\n        /* \"contracts/GeekNft.sol\":5737:5749  uint counter */\n      0x00\n        /* \"contracts/GeekNft.sol\":5763:5783  Item[] memory result */\n      dup1\n        /* \"contracts/GeekNft.sol\":5797:5814  itemsCreatorCount */\n      0x09\n        /* \"contracts/GeekNft.sol\":5797:5826  itemsCreatorCount[msg.sender] */\n      0x00\n        /* \"contracts/GeekNft.sol\":5815:5825  msg.sender */\n      caller\n        /* \"contracts/GeekNft.sol\":5797:5826  itemsCreatorCount[msg.sender] */\n      0xffffffffffffffffffffffffffffffffffffffff\n      and\n      0xffffffffffffffffffffffffffffffffffffffff\n      and\n      dup2\n      mstore\n      0x20\n      add\n      swap1\n      dup2\n      mstore\n      0x20\n      add\n      0x00\n      keccak256\n      sload\n        /* \"contracts/GeekNft.sol\":5786:5827  new Item[](itemsCreatorCount[msg.sender]) */\n      0xffffffffffffffff\n      dup2\n      gt\n      iszero\n      tag_172\n      jumpi\n      mstore(0x00, 0x4e487b7100000000000000000000000000000000000000000000000000000000)\n      mstore(0x04, 0x41)\n      revert(0x00, 0x24)\n    tag_172:\n      mload(0x40)\n      swap1\n      dup1\n      dup3\n      mstore\n      dup1\n      0x20\n      mul\n      0x20\n      add\n      dup3\n      add\n      0x40\n      mstore\n      dup1\n      iszero\n      tag_173\n      jumpi\n      dup2\n      0x20\n      add\n    tag_174:\n      tag_175\n      tag_108\n      jump\t// in\n    tag_175:\n      dup2\n      mstore\n      0x20\n      add\n      swap1\n      0x01\n      swap1\n      sub\n      swap1\n      dup2\n      tag_174\n      jumpi\n      swap1\n      pop\n    tag_173:\n      pop\n        /* \"contracts/GeekNft.sol\":5763:5827  Item[] memory result = new Item[](itemsCreatorCount[msg.sender]) */\n      swap1\n      pop\n        /* \"contracts/GeekNft.sol\":5842:5848  uint i */\n      0x00\n        /* \"contracts/GeekNft.sol\":5838:6021  for(uint i = 0; i < items.length; i++) {... */\n    tag_176:\n        /* \"contracts/GeekNft.sol\":5858:5863  items */\n      0x03\n        /* \"contracts/GeekNft.sol\":5858:5870  items.length */\n      dup1\n      sload\n      swap1\n      pop\n        /* \"contracts/GeekNft.sol\":5854:5855  i */\n      dup2\n        /* \"contracts/GeekNft.sol\":5854:5870  i < items.length */\n      lt\n        /* \"contracts/GeekNft.sol\":5838:6021  for(uint i = 0; i < items.length; i++) {... */\n      iszero\n      tag_177\n      jumpi\n        /* \"contracts/GeekNft.sol\":5914:5924  msg.sender */\n      caller\n        /* \"contracts/GeekNft.sol\":5894:5924  itemToCreator[i] == msg.sender */\n      0xffffffffffffffffffffffffffffffffffffffff\n      and\n        /* \"contracts/GeekNft.sol\":5894:5907  itemToCreator */\n      0x0a\n        /* \"contracts/GeekNft.sol\":5894:5910  itemToCreator[i] */\n      0x00\n        /* \"contracts/GeekNft.sol\":5908:5909  i */\n      dup4\n        /* \"contracts/GeekNft.sol\":5894:5910  itemToCreator[i] */\n      dup2\n      mstore\n      0x20\n      add\n      swap1\n      dup2\n      mstore\n      0x20\n      add\n      0x00\n      keccak256\n      0x00\n      swap1\n      sload\n      swap1\n      0x0100\n      exp\n      swap1\n      div\n      0xffffffffffffffffffffffffffffffffffffffff\n      and\n        /* \"contracts/GeekNft.sol\":5894:5924  itemToCreator[i] == msg.sender */\n      0xffffffffffffffffffffffffffffffffffffffff\n      and\n      eq\n        /* \"contracts/GeekNft.sol\":5891:6011  if(itemToCreator[i] == msg.sender){... */\n      iszero\n      tag_179\n      jumpi\n        /* \"contracts/GeekNft.sol\":5961:5966  items */\n      0x03\n        /* \"contracts/GeekNft.sol\":5967:5968  i */\n      dup2\n        /* \"contracts/GeekNft.sol\":5961:5969  items[i] */\n      dup2\n      sload\n      dup2\n      lt\n      tag_180\n      jumpi\n      mstore(0x00, 0x4e487b7100000000000000000000000000000000000000000000000000000000)\n      mstore(0x04, 0x32)\n      revert(0x00, 0x24)\n    tag_180:\n      swap1\n      0x00\n      mstore\n      keccak256(0x00, 0x20)\n      swap1\n      0x04\n      mul\n      add\n        /* \"contracts/GeekNft.sol\":5943:5969  result[counter] = items[i] */\n      mload(0x40)\n      dup1\n      0x80\n      add\n      0x40\n      mstore\n      swap1\n      dup2\n      0x00\n      dup3\n      add\n      sload\n      dup2\n      mstore\n      0x20\n      add\n      0x01\n      dup3\n      add\n      sload\n      dup2\n      mstore\n      0x20\n      add\n      0x02\n      dup3\n      add\n      sload\n      dup2\n      mstore\n      0x20\n      add\n      0x03\n      dup3\n      add\n      0x00\n      swap1\n      sload\n      swap1\n      0x0100\n      exp\n      swap1\n      div\n      0xff\n      and\n      iszero\n      iszero\n      iszero\n      iszero\n      dup2\n      mstore\n      pop\n      pop\n        /* \"contracts/GeekNft.sol\":5943:5949  result */\n      dup3\n        /* \"contracts/GeekNft.sol\":5950:5957  counter */\n      dup5\n        /* \"contracts/GeekNft.sol\":5943:5958  result[counter] */\n      dup2\n      mload\n      dup2\n      lt\n      tag_182\n      jumpi\n      mstore(0x00, 0x4e487b7100000000000000000000000000000000000000000000000000000000)\n      mstore(0x04, 0x32)\n      revert(0x00, 0x24)\n    tag_182:\n      0x20\n      mul\n      0x20\n      add\n      add\n        /* \"contracts/GeekNft.sol\":5943:5969  result[counter] = items[i] */\n      dup2\n      swap1\n      mstore\n      pop\n        /* \"contracts/GeekNft.sol\":5987:5996  counter++ */\n      dup3\n      dup1\n      tag_183\n      swap1\n      tag_119\n      jump\t// in\n    tag_183:\n      swap4\n      pop\n      pop\n        /* \"contracts/GeekNft.sol\":5891:6011  if(itemToCreator[i] == msg.sender){... */\n    tag_179:\n        /* \"contracts/GeekNft.sol\":5872:5875  i++ */\n      dup1\n      dup1\n      tag_184\n      swap1\n      tag_119\n      jump\t// in\n    tag_184:\n      swap2\n      pop\n      pop\n        /* \"contracts/GeekNft.sol\":5838:6021  for(uint i = 0; i < items.length; i++) {... */\n      jump(tag_176)\n    tag_177:\n      pop\n        /* \"contracts/GeekNft.sol\":6038:6044  result */\n      dup1\n        /* \"contracts/GeekNft.sol\":6031:6044  return result */\n      swap3\n      pop\n      pop\n      pop\n        /* \"contracts/GeekNft.sol\":5661:6051  function fetchItemsByCreator() public view returns (Item[] memory){... */\n      swap1\n      jump\t// out\n        /* \"contracts/GeekNft.sol\":3732:3840  function balanceOf(address _owner) public view returns (uint){... */\n    tag_69:\n        /* \"contracts/GeekNft.sol\":3788:3792  uint */\n      0x00\n        /* \"contracts/GeekNft.sol\":3810:3825  itemsOwnerCount */\n      0x07\n        /* \"contracts/GeekNft.sol\":3810:3833  itemsOwnerCount[_owner] */\n      0x00\n        /* \"contracts/GeekNft.sol\":3826:3832  _owner */\n      dup4\n        /* \"contracts/GeekNft.sol\":3810:3833  itemsOwnerCount[_owner] */\n      0xffffffffffffffffffffffffffffffffffffffff\n      and\n      0xffffffffffffffffffffffffffffffffffffffff\n      and\n      dup2\n      mstore\n      0x20\n      add\n      swap1\n      dup2\n      mstore\n      0x20\n      add\n      0x00\n      keccak256\n      sload\n        /* \"contracts/GeekNft.sol\":3803:3833  return itemsOwnerCount[_owner] */\n      swap1\n      pop\n        /* \"contracts/GeekNft.sol\":3732:3840  function balanceOf(address _owner) public view returns (uint){... */\n      swap2\n      swap1\n      pop\n      jump\t// out\n        /* \"contracts/GeekNft.sol\":2504:3614  function sellItem(uint _tokenId) public payable{... */\n    tag_73:\n        /* \"contracts/GeekNft.sol\":2582:2587  items */\n      0x03\n        /* \"contracts/GeekNft.sol\":2588:2596  _tokenId */\n      dup2\n        /* \"contracts/GeekNft.sol\":2582:2597  items[_tokenId] */\n      dup2\n      sload\n      dup2\n      lt\n      tag_187\n      jumpi\n      mstore(0x00, 0x4e487b7100000000000000000000000000000000000000000000000000000000)\n      mstore(0x04, 0x32)\n      revert(0x00, 0x24)\n    tag_187:\n      swap1\n      0x00\n      mstore\n      keccak256(0x00, 0x20)\n      swap1\n      0x04\n      mul\n      add\n        /* \"contracts/GeekNft.sol\":2582:2603  items[_tokenId].price */\n      0x02\n      add\n      sload\n        /* \"contracts/GeekNft.sol\":2569:2578  msg.value */\n      callvalue\n        /* \"contracts/GeekNft.sol\":2569:2603  msg.value == items[_tokenId].price */\n      eq\n        /* \"contracts/GeekNft.sol\":2561:2661  require(msg.value == items[_tokenId].price, \"transaction's value cannot be different of item price\") */\n      tag_189\n      jumpi\n      mload(0x40)\n      0x08c379a000000000000000000000000000000000000000000000000000000000\n      dup2\n      mstore\n      0x04\n      add\n      tag_190\n      swap1\n      tag_191\n      jump\t// in\n    tag_190:\n      mload(0x40)\n      dup1\n      swap2\n      sub\n      swap1\n      revert\n    tag_189:\n        /* \"contracts/GeekNft.sol\":2712:2713  0 */\n      0x00\n        /* \"contracts/GeekNft.sol\":2679:2714  itemToOwner[_tokenId] != address(0) */\n      0xffffffffffffffffffffffffffffffffffffffff\n      and\n        /* \"contracts/GeekNft.sol\":2679:2690  itemToOwner */\n      0x08\n        /* \"contracts/GeekNft.sol\":2679:2700  itemToOwner[_tokenId] */\n      0x00\n        /* \"contracts/GeekNft.sol\":2691:2699  _tokenId */\n      dup4\n        /* \"contracts/GeekNft.sol\":2679:2700  itemToOwner[_tokenId] */\n      dup2\n      mstore\n      0x20\n      add\n      swap1\n      dup2\n      mstore\n      0x20\n      add\n      0x00\n      keccak256\n      0x00\n      swap1\n      sload\n      swap1\n      0x0100\n      exp\n      swap1\n      div\n      0xffffffffffffffffffffffffffffffffffffffff\n      and\n        /* \"contracts/GeekNft.sol\":2679:2714  itemToOwner[_tokenId] != address(0) */\n      0xffffffffffffffffffffffffffffffffffffffff\n      and\n      eq\n      iszero\n        /* \"contracts/GeekNft.sol\":2671:2738  require(itemToOwner[_tokenId] != address(0), \"token doesn't exist\") */\n      tag_192\n      jumpi\n      mload(0x40)\n      0x08c379a000000000000000000000000000000000000000000000000000000000\n      dup2\n      mstore\n      0x04\n      add\n      tag_193\n      swap1\n      tag_194\n      jump\t// in\n    tag_193:\n      mload(0x40)\n      dup1\n      swap2\n      sub\n      swap1\n      revert\n    tag_192:\n        /* \"contracts/GeekNft.sol\":2781:2791  msg.sender */\n      caller\n        /* \"contracts/GeekNft.sol\":2756:2791  itemToOwner[_tokenId] != msg.sender */\n      0xffffffffffffffffffffffffffffffffffffffff\n      and\n        /* \"contracts/GeekNft.sol\":2756:2767  itemToOwner */\n      0x08\n        /* \"contracts/GeekNft.sol\":2756:2777  itemToOwner[_tokenId] */\n      0x00\n        /* \"contracts/GeekNft.sol\":2768:2776  _tokenId */\n      dup4\n        /* \"contracts/GeekNft.sol\":2756:2777  itemToOwner[_tokenId] */\n      dup2\n      mstore\n      0x20\n      add\n      swap1\n      dup2\n      mstore\n      0x20\n      add\n      0x00\n      keccak256\n      0x00\n      swap1\n      sload\n      swap1\n      0x0100\n      exp\n      swap1\n      div\n      0xffffffffffffffffffffffffffffffffffffffff\n      and\n        /* \"contracts/GeekNft.sol\":2756:2791  itemToOwner[_tokenId] != msg.sender */\n      0xffffffffffffffffffffffffffffffffffffffff\n      and\n      eq\n      iszero\n        /* \"contracts/GeekNft.sol\":2748:2837  require(itemToOwner[_tokenId] != msg.sender, \"you can't buy an item that belongs to you\") */\n      tag_195\n      jumpi\n      mload(0x40)\n      0x08c379a000000000000000000000000000000000000000000000000000000000\n      dup2\n      mstore\n      0x04\n      add\n      tag_196\n      swap1\n      tag_197\n      jump\t// in\n    tag_196:\n      mload(0x40)\n      dup1\n      swap2\n      sub\n      swap1\n      revert\n    tag_195:\n        /* \"contracts/GeekNft.sol\":2848:2864  address oldOwner */\n      0x00\n        /* \"contracts/GeekNft.sol\":2867:2878  itemToOwner */\n      0x08\n        /* \"contracts/GeekNft.sol\":2867:2888  itemToOwner[_tokenId] */\n      0x00\n        /* \"contracts/GeekNft.sol\":2879:2887  _tokenId */\n      dup4\n        /* \"contracts/GeekNft.sol\":2867:2888  itemToOwner[_tokenId] */\n      dup2\n      mstore\n      0x20\n      add\n      swap1\n      dup2\n      mstore\n      0x20\n      add\n      0x00\n      keccak256\n      0x00\n      swap1\n      sload\n      swap1\n      0x0100\n      exp\n      swap1\n      div\n      0xffffffffffffffffffffffffffffffffffffffff\n      and\n        /* \"contracts/GeekNft.sol\":2848:2888  address oldOwner = itemToOwner[_tokenId] */\n      swap1\n      pop\n        /* \"contracts/GeekNft.sol\":2907:2930  Item storage itemToSell */\n      0x00\n        /* \"contracts/GeekNft.sol\":2933:2938  items */\n      0x03\n        /* \"contracts/GeekNft.sol\":2939:2947  _tokenId */\n      dup4\n        /* \"contracts/GeekNft.sol\":2933:2948  items[_tokenId] */\n      dup2\n      sload\n      dup2\n      lt\n      tag_198\n      jumpi\n      mstore(0x00, 0x4e487b7100000000000000000000000000000000000000000000000000000000)\n      mstore(0x04, 0x32)\n      revert(0x00, 0x24)\n    tag_198:\n      swap1\n      0x00\n      mstore\n      keccak256(0x00, 0x20)\n      swap1\n      0x04\n      mul\n      add\n        /* \"contracts/GeekNft.sol\":2907:2948  Item storage itemToSell = items[_tokenId] */\n      swap1\n      pop\n        /* \"contracts/GeekNft.sol\":2978:2983  false */\n      0x00\n        /* \"contracts/GeekNft.sol\":2958:2968  itemToSell */\n      dup2\n        /* \"contracts/GeekNft.sol\":2958:2975  itemToSell.toSell */\n      0x03\n      add\n      0x00\n        /* \"contracts/GeekNft.sol\":2958:2983  itemToSell.toSell = false */\n      0x0100\n      exp\n      dup2\n      sload\n      dup2\n      0xff\n      mul\n      not\n      and\n      swap1\n      dup4\n      iszero\n      iszero\n      mul\n      or\n      swap1\n      sstore\n      pop\n        /* \"contracts/GeekNft.sol\":3018:3028  msg.sender */\n      caller\n        /* \"contracts/GeekNft.sol\":2994:3005  itemToOwner */\n      0x08\n        /* \"contracts/GeekNft.sol\":2994:3015  itemToOwner[_tokenId] */\n      0x00\n        /* \"contracts/GeekNft.sol\":3006:3014  _tokenId */\n      dup6\n        /* \"contracts/GeekNft.sol\":2994:3015  itemToOwner[_tokenId] */\n      dup2\n      mstore\n      0x20\n      add\n      swap1\n      dup2\n      mstore\n      0x20\n      add\n      0x00\n      keccak256\n      0x00\n        /* \"contracts/GeekNft.sol\":2994:3028  itemToOwner[_tokenId] = msg.sender */\n      0x0100\n      exp\n      dup2\n      sload\n      dup2\n      0xffffffffffffffffffffffffffffffffffffffff\n      mul\n      not\n      and\n      swap1\n      dup4\n      0xffffffffffffffffffffffffffffffffffffffff\n      and\n      mul\n      or\n      swap1\n      sstore\n      pop\n        /* \"contracts/GeekNft.sol\":3062:3077  itemsOwnerCount */\n      0x07\n        /* \"contracts/GeekNft.sol\":3062:3087  itemsOwnerCount[oldOwner] */\n      0x00\n        /* \"contracts/GeekNft.sol\":3078:3086  oldOwner */\n      dup4\n        /* \"contracts/GeekNft.sol\":3062:3087  itemsOwnerCount[oldOwner] */\n      0xffffffffffffffffffffffffffffffffffffffff\n      and\n      0xffffffffffffffffffffffffffffffffffffffff\n      and\n      dup2\n      mstore\n      0x20\n      add\n      swap1\n      dup2\n      mstore\n      0x20\n      add\n      0x00\n      keccak256\n      0x00\n        /* \"contracts/GeekNft.sol\":3062:3089  itemsOwnerCount[oldOwner]-- */\n      dup2\n      sload\n      dup1\n      swap3\n      swap2\n      swap1\n      0x01\n      swap1\n      sub\n      swap2\n      swap1\n      pop\n      sstore\n      pop\n        /* \"contracts/GeekNft.sol\":3103:3118  itemsOwnerCount */\n      0x07\n        /* \"contracts/GeekNft.sol\":3103:3130  itemsOwnerCount[msg.sender] */\n      0x00\n        /* \"contracts/GeekNft.sol\":3119:3129  msg.sender */\n      caller\n        /* \"contracts/GeekNft.sol\":3103:3130  itemsOwnerCount[msg.sender] */\n      0xffffffffffffffffffffffffffffffffffffffff\n      and\n      0xffffffffffffffffffffffffffffffffffffffff\n      and\n      dup2\n      mstore\n      0x20\n      add\n      swap1\n      dup2\n      mstore\n      0x20\n      add\n      0x00\n      keccak256\n      0x00\n        /* \"contracts/GeekNft.sol\":3103:3132  itemsOwnerCount[msg.sender]++ */\n      dup2\n      sload\n      dup1\n      swap3\n      swap2\n      swap1\n      0x01\n      add\n      swap2\n      swap1\n      pop\n      sstore\n      pop\n        /* \"contracts/GeekNft.sol\":3146:3162  itemsToSellCount */\n      0x04\n      0x00\n        /* \"contracts/GeekNft.sol\":3146:3164  itemsToSellCount-- */\n      dup2\n      sload\n      dup1\n      swap3\n      swap2\n      swap1\n      0x01\n      swap1\n      sub\n      swap2\n      swap1\n      pop\n      sstore\n      pop\n        /* \"contracts/GeekNft.sol\":3215:3223  oldOwner */\n      dup2\n        /* \"contracts/GeekNft.sol\":3188:3223  itemToCreator[_tokenId] == oldOwner */\n      0xffffffffffffffffffffffffffffffffffffffff\n      and\n        /* \"contracts/GeekNft.sol\":3188:3201  itemToCreator */\n      0x0a\n        /* \"contracts/GeekNft.sol\":3188:3211  itemToCreator[_tokenId] */\n      0x00\n        /* \"contracts/GeekNft.sol\":3202:3210  _tokenId */\n      dup6\n        /* \"contracts/GeekNft.sol\":3188:3211  itemToCreator[_tokenId] */\n      dup2\n      mstore\n      0x20\n      add\n      swap1\n      dup2\n      mstore\n      0x20\n      add\n      0x00\n      keccak256\n      0x00\n      swap1\n      sload\n      swap1\n      0x0100\n      exp\n      swap1\n      div\n      0xffffffffffffffffffffffffffffffffffffffff\n      and\n        /* \"contracts/GeekNft.sol\":3188:3223  itemToCreator[_tokenId] == oldOwner */\n      0xffffffffffffffffffffffffffffffffffffffff\n      and\n      eq\n        /* \"contracts/GeekNft.sol\":3185:3552  if(itemToCreator[_tokenId] == oldOwner){... */\n      iszero\n      tag_200\n      jumpi\n        /* \"contracts/GeekNft.sol\":3246:3254  oldOwner */\n      dup2\n        /* \"contracts/GeekNft.sol\":3238:3264  payable(oldOwner).transfer */\n      0xffffffffffffffffffffffffffffffffffffffff\n      and\n        /* \"contracts/GeekNft.sol\":3238:3275  payable(oldOwner).transfer(msg.value) */\n      0x08fc\n        /* \"contracts/GeekNft.sol\":3265:3274  msg.value */\n      callvalue\n        /* \"contracts/GeekNft.sol\":3238:3275  payable(oldOwner).transfer(msg.value) */\n      swap1\n      dup2\n      iszero\n      mul\n      swap1\n      mload(0x40)\n      0x00\n      mload(0x40)\n      dup1\n      dup4\n      sub\n      dup2\n      dup6\n      dup9\n      dup9\n      call\n      swap4\n      pop\n      pop\n      pop\n      pop\n      iszero\n      dup1\n      iszero\n      tag_202\n      jumpi\n      returndatasize\n      0x00\n      dup1\n      returndatacopy\n      revert(0x00, returndatasize)\n    tag_202:\n      pop\n        /* \"contracts/GeekNft.sol\":3185:3552  if(itemToCreator[_tokenId] == oldOwner){... */\n      jump(tag_203)\n    tag_200:\n        /* \"contracts/GeekNft.sol\":3306:3315  uint fees */\n      0x00\n        /* \"contracts/GeekNft.sol\":3329:3348  uint totalMinusFees */\n      dup1\n        /* \"contracts/GeekNft.sol\":3387:3424  getFees(msg.value, creatorPercentage) */\n      tag_204\n        /* \"contracts/GeekNft.sol\":3395:3404  msg.value */\n      callvalue\n        /* \"contracts/GeekNft.sol\":3406:3423  creatorPercentage */\n      sload(0x06)\n        /* \"contracts/GeekNft.sol\":3387:3394  getFees */\n      tag_205\n        /* \"contracts/GeekNft.sol\":3387:3424  getFees(msg.value, creatorPercentage) */\n      jump\t// in\n    tag_204:\n        /* \"contracts/GeekNft.sol\":3362:3424  (fees, totalMinusFees) = getFees(msg.value, creatorPercentage) */\n      dup1\n      swap3\n      pop\n      dup2\n      swap4\n      pop\n      pop\n      pop\n        /* \"contracts/GeekNft.sol\":3446:3459  itemToCreator */\n      0x0a\n        /* \"contracts/GeekNft.sol\":3446:3469  itemToCreator[_tokenId] */\n      0x00\n        /* \"contracts/GeekNft.sol\":3460:3468  _tokenId */\n      dup7\n        /* \"contracts/GeekNft.sol\":3446:3469  itemToCreator[_tokenId] */\n      dup2\n      mstore\n      0x20\n      add\n      swap1\n      dup2\n      mstore\n      0x20\n      add\n      0x00\n      keccak256\n      0x00\n      swap1\n      sload\n      swap1\n      0x0100\n      exp\n      swap1\n      div\n      0xffffffffffffffffffffffffffffffffffffffff\n      and\n        /* \"contracts/GeekNft.sol\":3438:3479  payable(itemToCreator[_tokenId]).transfer */\n      0xffffffffffffffffffffffffffffffffffffffff\n      and\n        /* \"contracts/GeekNft.sol\":3438:3485  payable(itemToCreator[_tokenId]).transfer(fees) */\n      0x08fc\n        /* \"contracts/GeekNft.sol\":3480:3484  fees */\n      dup4\n        /* \"contracts/GeekNft.sol\":3438:3485  payable(itemToCreator[_tokenId]).transfer(fees) */\n      swap1\n      dup2\n      iszero\n      mul\n      swap1\n      mload(0x40)\n      0x00\n      mload(0x40)\n      dup1\n      dup4\n      sub\n      dup2\n      dup6\n      dup9\n      dup9\n      call\n      swap4\n      pop\n      pop\n      pop\n      pop\n      iszero\n      dup1\n      iszero\n      tag_207\n      jumpi\n      returndatasize\n      0x00\n      dup1\n      returndatacopy\n      revert(0x00, returndatasize)\n    tag_207:\n      pop\n        /* \"contracts/GeekNft.sol\":3507:3515  oldOwner */\n      dup4\n        /* \"contracts/GeekNft.sol\":3499:3525  payable(oldOwner).transfer */\n      0xffffffffffffffffffffffffffffffffffffffff\n      and\n        /* \"contracts/GeekNft.sol\":3499:3541  payable(oldOwner).transfer(totalMinusFees) */\n      0x08fc\n        /* \"contracts/GeekNft.sol\":3526:3540  totalMinusFees */\n      dup3\n        /* \"contracts/GeekNft.sol\":3499:3541  payable(oldOwner).transfer(totalMinusFees) */\n      swap1\n      dup2\n      iszero\n      mul\n      swap1\n      mload(0x40)\n      0x00\n      mload(0x40)\n      dup1\n      dup4\n      sub\n      dup2\n      dup6\n      dup9\n      dup9\n      call\n      swap4\n      pop\n      pop\n      pop\n      pop\n      iszero\n      dup1\n      iszero\n      tag_209\n      jumpi\n      returndatasize\n      0x00\n      dup1\n      returndatacopy\n      revert(0x00, returndatasize)\n    tag_209:\n      pop\n        /* \"contracts/GeekNft.sol\":3185:3552  if(itemToCreator[_tokenId] == oldOwner){... */\n      pop\n      pop\n    tag_203:\n        /* \"contracts/GeekNft.sol\":3586:3596  msg.sender */\n      caller\n        /* \"contracts/GeekNft.sol\":3567:3607  Transfer(oldOwner, msg.sender, _tokenId) */\n      0xffffffffffffffffffffffffffffffffffffffff\n      and\n        /* \"contracts/GeekNft.sol\":3576:3584  oldOwner */\n      dup3\n        /* \"contracts/GeekNft.sol\":3567:3607  Transfer(oldOwner, msg.sender, _tokenId) */\n      0xffffffffffffffffffffffffffffffffffffffff\n      and\n      0xddf252ad1be2c89b69c2b068fc378daa952ba7f163c4a11628f55a4df523b3ef\n        /* \"contracts/GeekNft.sol\":3598:3606  _tokenId */\n      dup6\n        /* \"contracts/GeekNft.sol\":3567:3607  Transfer(oldOwner, msg.sender, _tokenId) */\n      mload(0x40)\n      tag_210\n      swap2\n      swap1\n      tag_25\n      jump\t// in\n    tag_210:\n      mload(0x40)\n      dup1\n      swap2\n      sub\n      swap1\n      log3\n        /* \"contracts/GeekNft.sol\":2504:3614  function sellItem(uint _tokenId) public payable{... */\n      pop\n      pop\n      pop\n      jump\t// out\n        /* \"contracts/GeekNft.sol\":1409:1503  function getCreateItemFees() public view returns (uint) {... */\n    tag_76:\n        /* \"contracts/GeekNft.sol\":1459:1463  uint */\n      0x00\n        /* \"contracts/GeekNft.sol\":1482:1496  createItemFees */\n      sload(0x05)\n        /* \"contracts/GeekNft.sol\":1475:1496  return createItemFees */\n      swap1\n      pop\n        /* \"contracts/GeekNft.sol\":1409:1503  function getCreateItemFees() public view returns (uint) {... */\n      swap1\n      jump\t// out\n        /* \"contracts/GeekNft.sol\":3846:4175  function removeItemToSell(uint _tokenId) public onlyItemOwner(_tokenId) {... */\n    tag_81:\n        /* \"contracts/GeekNft.sol\":3908:3916  _tokenId */\n      dup1\n        /* \"contracts/GeekNft.sol\":1085:1095  msg.sender */\n      caller\n        /* \"contracts/GeekNft.sol\":1060:1095  itemToOwner[_tokenId] == msg.sender */\n      0xffffffffffffffffffffffffffffffffffffffff\n      and\n        /* \"contracts/GeekNft.sol\":1060:1071  itemToOwner */\n      0x08\n        /* \"contracts/GeekNft.sol\":1060:1081  itemToOwner[_tokenId] */\n      0x00\n        /* \"contracts/GeekNft.sol\":1072:1080  _tokenId */\n      dup4\n        /* \"contracts/GeekNft.sol\":1060:1081  itemToOwner[_tokenId] */\n      dup2\n      mstore\n      0x20\n      add\n      swap1\n      dup2\n      mstore\n      0x20\n      add\n      0x00\n      keccak256\n      0x00\n      swap1\n      sload\n      swap1\n      0x0100\n      exp\n      swap1\n      div\n      0xffffffffffffffffffffffffffffffffffffffff\n      and\n        /* \"contracts/GeekNft.sol\":1060:1095  itemToOwner[_tokenId] == msg.sender */\n      0xffffffffffffffffffffffffffffffffffffffff\n      and\n      eq\n        /* \"contracts/GeekNft.sol\":1052:1129  require(itemToOwner[_tokenId] == msg.sender, \"Only item's owner can do that\") */\n      tag_213\n      jumpi\n      mload(0x40)\n      0x08c379a000000000000000000000000000000000000000000000000000000000\n      dup2\n      mstore\n      0x04\n      add\n      tag_214\n      swap1\n      tag_215\n      jump\t// in\n    tag_214:\n      mload(0x40)\n      dup1\n      swap2\n      sub\n      swap1\n      revert\n    tag_213:\n        /* \"contracts/GeekNft.sol\":3969:3970  0 */\n      0x00\n        /* \"contracts/GeekNft.sol\":3936:3971  itemToOwner[_tokenId] != address(0) */\n      0xffffffffffffffffffffffffffffffffffffffff\n      and\n        /* \"contracts/GeekNft.sol\":3936:3947  itemToOwner */\n      0x08\n        /* \"contracts/GeekNft.sol\":3936:3957  itemToOwner[_tokenId] */\n      0x00\n        /* \"contracts/GeekNft.sol\":3948:3956  _tokenId */\n      dup5\n        /* \"contracts/GeekNft.sol\":3936:3957  itemToOwner[_tokenId] */\n      dup2\n      mstore\n      0x20\n      add\n      swap1\n      dup2\n      mstore\n      0x20\n      add\n      0x00\n      keccak256\n      0x00\n      swap1\n      sload\n      swap1\n      0x0100\n      exp\n      swap1\n      div\n      0xffffffffffffffffffffffffffffffffffffffff\n      and\n        /* \"contracts/GeekNft.sol\":3936:3971  itemToOwner[_tokenId] != address(0) */\n      0xffffffffffffffffffffffffffffffffffffffff\n      and\n      eq\n      iszero\n        /* \"contracts/GeekNft.sol\":3928:3995  require(itemToOwner[_tokenId] != address(0), \"token doesn't exist\") */\n      tag_217\n      jumpi\n      mload(0x40)\n      0x08c379a000000000000000000000000000000000000000000000000000000000\n      dup2\n      mstore\n      0x04\n      add\n      tag_218\n      swap1\n      tag_194\n      jump\t// in\n    tag_218:\n      mload(0x40)\n      dup1\n      swap2\n      sub\n      swap1\n      revert\n    tag_217:\n        /* \"contracts/GeekNft.sol\":4039:4043  true */\n      0x01\n        /* \"contracts/GeekNft.sol\":4013:4043  items[_tokenId].toSell == true */\n      iszero\n      iszero\n        /* \"contracts/GeekNft.sol\":4013:4018  items */\n      0x03\n        /* \"contracts/GeekNft.sol\":4019:4027  _tokenId */\n      dup4\n        /* \"contracts/GeekNft.sol\":4013:4028  items[_tokenId] */\n      dup2\n      sload\n      dup2\n      lt\n      tag_219\n      jumpi\n      mstore(0x00, 0x4e487b7100000000000000000000000000000000000000000000000000000000)\n      mstore(0x04, 0x32)\n      revert(0x00, 0x24)\n    tag_219:\n      swap1\n      0x00\n      mstore\n      keccak256(0x00, 0x20)\n      swap1\n      0x04\n      mul\n      add\n        /* \"contracts/GeekNft.sol\":4013:4035  items[_tokenId].toSell */\n      0x03\n      add\n      0x00\n      swap1\n      sload\n      swap1\n      0x0100\n      exp\n      swap1\n      div\n      0xff\n      and\n        /* \"contracts/GeekNft.sol\":4013:4043  items[_tokenId].toSell == true */\n      iszero\n      iszero\n      eq\n        /* \"contracts/GeekNft.sol\":4005:4067  require(items[_tokenId].toSell == true, \"token isn't to sell\") */\n      tag_221\n      jumpi\n      mload(0x40)\n      0x08c379a000000000000000000000000000000000000000000000000000000000\n      dup2\n      mstore\n      0x04\n      add\n      tag_222\n      swap1\n      tag_223\n      jump\t// in\n    tag_222:\n      mload(0x40)\n      dup1\n      swap2\n      sub\n      swap1\n      revert\n    tag_221:\n        /* \"contracts/GeekNft.sol\":4102:4107  false */\n      0x00\n        /* \"contracts/GeekNft.sol\":4077:4082  items */\n      0x03\n        /* \"contracts/GeekNft.sol\":4083:4091  _tokenId */\n      dup4\n        /* \"contracts/GeekNft.sol\":4077:4092  items[_tokenId] */\n      dup2\n      sload\n      dup2\n      lt\n      tag_224\n      jumpi\n      mstore(0x00, 0x4e487b7100000000000000000000000000000000000000000000000000000000)\n      mstore(0x04, 0x32)\n      revert(0x00, 0x24)\n    tag_224:\n      swap1\n      0x00\n      mstore\n      keccak256(0x00, 0x20)\n      swap1\n      0x04\n      mul\n      add\n        /* \"contracts/GeekNft.sol\":4077:4099  items[_tokenId].toSell */\n      0x03\n      add\n      0x00\n        /* \"contracts/GeekNft.sol\":4077:4107  items[_tokenId].toSell = false */\n      0x0100\n      exp\n      dup2\n      sload\n      dup2\n      0xff\n      mul\n      not\n      and\n      swap1\n      dup4\n      iszero\n      iszero\n      mul\n      or\n      swap1\n      sstore\n      pop\n        /* \"contracts/GeekNft.sol\":4140:4156  itemsToSellCount */\n      0x04\n      0x00\n        /* \"contracts/GeekNft.sol\":4140:4158  itemsToSellCount-- */\n      dup2\n      sload\n      dup1\n      swap3\n      swap2\n      swap1\n      0x01\n      swap1\n      sub\n      swap2\n      swap1\n      pop\n      sstore\n      pop\n        /* \"contracts/GeekNft.sol\":3846:4175  function removeItemToSell(uint _tokenId) public onlyItemOwner(_tokenId) {... */\n      pop\n      pop\n      jump\t// out\n        /* \"contracts/GeekNft.sol\":4181:4585  function addItemToSell(uint _tokenId) public payable sendCorrectFeesValue onlyItemOwner(_tokenId) {... */\n    tag_84:\n        /* \"contracts/GeekNft.sol\":1216:1230  createItemFees */\n      sload(0x05)\n        /* \"contracts/GeekNft.sol\":1203:1212  msg.value */\n      callvalue\n        /* \"contracts/GeekNft.sol\":1203:1230  msg.value == createItemFees */\n      eq\n        /* \"contracts/GeekNft.sol\":1195:1268  require(msg.value == createItemFees, \"Thanks to send correct fees value\") */\n      tag_227\n      jumpi\n      mload(0x40)\n      0x08c379a000000000000000000000000000000000000000000000000000000000\n      dup2\n      mstore\n      0x04\n      add\n      tag_228\n      swap1\n      tag_92\n      jump\t// in\n    tag_228:\n      mload(0x40)\n      dup1\n      swap2\n      sub\n      swap1\n      revert\n    tag_227:\n        /* \"contracts/GeekNft.sol\":4269:4277  _tokenId */\n      dup1\n        /* \"contracts/GeekNft.sol\":1085:1095  msg.sender */\n      caller\n        /* \"contracts/GeekNft.sol\":1060:1095  itemToOwner[_tokenId] == msg.sender */\n      0xffffffffffffffffffffffffffffffffffffffff\n      and\n        /* \"contracts/GeekNft.sol\":1060:1071  itemToOwner */\n      0x08\n        /* \"contracts/GeekNft.sol\":1060:1081  itemToOwner[_tokenId] */\n      0x00\n        /* \"contracts/GeekNft.sol\":1072:1080  _tokenId */\n      dup4\n        /* \"contracts/GeekNft.sol\":1060:1081  itemToOwner[_tokenId] */\n      dup2\n      mstore\n      0x20\n      add\n      swap1\n      dup2\n      mstore\n      0x20\n      add\n      0x00\n      keccak256\n      0x00\n      swap1\n      sload\n      swap1\n      0x0100\n      exp\n      swap1\n      div\n      0xffffffffffffffffffffffffffffffffffffffff\n      and\n        /* \"contracts/GeekNft.sol\":1060:1095  itemToOwner[_tokenId] == msg.sender */\n      0xffffffffffffffffffffffffffffffffffffffff\n      and\n      eq\n        /* \"contracts/GeekNft.sol\":1052:1129  require(itemToOwner[_tokenId] == msg.sender, \"Only item's owner can do that\") */\n      tag_230\n      jumpi\n      mload(0x40)\n      0x08c379a000000000000000000000000000000000000000000000000000000000\n      dup2\n      mstore\n      0x04\n      add\n      tag_231\n      swap1\n      tag_215\n      jump\t// in\n    tag_231:\n      mload(0x40)\n      dup1\n      swap2\n      sub\n      swap1\n      revert\n    tag_230:\n        /* \"contracts/GeekNft.sol\":4330:4331  0 */\n      0x00\n        /* \"contracts/GeekNft.sol\":4297:4332  itemToOwner[_tokenId] != address(0) */\n      0xffffffffffffffffffffffffffffffffffffffff\n      and\n        /* \"contracts/GeekNft.sol\":4297:4308  itemToOwner */\n      0x08\n        /* \"contracts/GeekNft.sol\":4297:4318  itemToOwner[_tokenId] */\n      0x00\n        /* \"contracts/GeekNft.sol\":4309:4317  _tokenId */\n      dup5\n        /* \"contracts/GeekNft.sol\":4297:4318  itemToOwner[_tokenId] */\n      dup2\n      mstore\n      0x20\n      add\n      swap1\n      dup2\n      mstore\n      0x20\n      add\n      0x00\n      keccak256\n      0x00\n      swap1\n      sload\n      swap1\n      0x0100\n      exp\n      swap1\n      div\n      0xffffffffffffffffffffffffffffffffffffffff\n      and\n        /* \"contracts/GeekNft.sol\":4297:4332  itemToOwner[_tokenId] != address(0) */\n      0xffffffffffffffffffffffffffffffffffffffff\n      and\n      eq\n      iszero\n        /* \"contracts/GeekNft.sol\":4289:4356  require(itemToOwner[_tokenId] != address(0), \"token doesn't exist\") */\n      tag_233\n      jumpi\n      mload(0x40)\n      0x08c379a000000000000000000000000000000000000000000000000000000000\n      dup2\n      mstore\n      0x04\n      add\n      tag_234\n      swap1\n      tag_194\n      jump\t// in\n    tag_234:\n      mload(0x40)\n      dup1\n      swap2\n      sub\n      swap1\n      revert\n    tag_233:\n        /* \"contracts/GeekNft.sol\":4400:4405  false */\n      0x00\n        /* \"contracts/GeekNft.sol\":4374:4405  items[_tokenId].toSell == false */\n      iszero\n      iszero\n        /* \"contracts/GeekNft.sol\":4374:4379  items */\n      0x03\n        /* \"contracts/GeekNft.sol\":4380:4388  _tokenId */\n      dup4\n        /* \"contracts/GeekNft.sol\":4374:4389  items[_tokenId] */\n      dup2\n      sload\n      dup2\n      lt\n      tag_235\n      jumpi\n      mstore(0x00, 0x4e487b7100000000000000000000000000000000000000000000000000000000)\n      mstore(0x04, 0x32)\n      revert(0x00, 0x24)\n    tag_235:\n      swap1\n      0x00\n      mstore\n      keccak256(0x00, 0x20)\n      swap1\n      0x04\n      mul\n      add\n        /* \"contracts/GeekNft.sol\":4374:4396  items[_tokenId].toSell */\n      0x03\n      add\n      0x00\n      swap1\n      sload\n      swap1\n      0x0100\n      exp\n      swap1\n      div\n      0xff\n      and\n        /* \"contracts/GeekNft.sol\":4374:4405  items[_tokenId].toSell == false */\n      iszero\n      iszero\n      eq\n        /* \"contracts/GeekNft.sol\":4366:4434  require(items[_tokenId].toSell == false, \"token is already to sell\") */\n      tag_237\n      jumpi\n      mload(0x40)\n      0x08c379a000000000000000000000000000000000000000000000000000000000\n      dup2\n      mstore\n      0x04\n      add\n      tag_238\n      swap1\n      tag_239\n      jump\t// in\n    tag_238:\n      mload(0x40)\n      dup1\n      swap2\n      sub\n      swap1\n      revert\n    tag_237:\n        /* \"contracts/GeekNft.sol\":4469:4473  true */\n      0x01\n        /* \"contracts/GeekNft.sol\":4444:4449  items */\n      0x03\n        /* \"contracts/GeekNft.sol\":4450:4458  _tokenId */\n      dup4\n        /* \"contracts/GeekNft.sol\":4444:4459  items[_tokenId] */\n      dup2\n      sload\n      dup2\n      lt\n      tag_240\n      jumpi\n      mstore(0x00, 0x4e487b7100000000000000000000000000000000000000000000000000000000)\n      mstore(0x04, 0x32)\n      revert(0x00, 0x24)\n    tag_240:\n      swap1\n      0x00\n      mstore\n      keccak256(0x00, 0x20)\n      swap1\n      0x04\n      mul\n      add\n        /* \"contracts/GeekNft.sol\":4444:4466  items[_tokenId].toSell */\n      0x03\n      add\n      0x00\n        /* \"contracts/GeekNft.sol\":4444:4473  items[_tokenId].toSell = true */\n      0x0100\n      exp\n      dup2\n      sload\n      dup2\n      0xff\n      mul\n      not\n      and\n      swap1\n      dup4\n      iszero\n      iszero\n      mul\n      or\n      swap1\n      sstore\n      pop\n        /* \"contracts/GeekNft.sol\":4506:4522  itemsToSellCount */\n      0x04\n      0x00\n        /* \"contracts/GeekNft.sol\":4506:4524  itemsToSellCount++ */\n      dup2\n      sload\n      dup1\n      swap3\n      swap2\n      swap1\n      0x01\n      add\n      swap2\n      swap1\n      pop\n      sstore\n      pop\n        /* \"contracts/GeekNft.sol\":4552:4557  owner */\n      0x02\n      0x00\n      swap1\n      sload\n      swap1\n      0x0100\n      exp\n      swap1\n      div\n      0xffffffffffffffffffffffffffffffffffffffff\n      and\n        /* \"contracts/GeekNft.sol\":4544:4567  payable(owner).transfer */\n      0xffffffffffffffffffffffffffffffffffffffff\n      and\n        /* \"contracts/GeekNft.sol\":4544:4578  payable(owner).transfer(msg.value) */\n      0x08fc\n        /* \"contracts/GeekNft.sol\":4568:4577  msg.value */\n      callvalue\n        /* \"contracts/GeekNft.sol\":4544:4578  payable(owner).transfer(msg.value) */\n      swap1\n      dup2\n      iszero\n      mul\n      swap1\n      mload(0x40)\n      0x00\n      mload(0x40)\n      dup1\n      dup4\n      sub\n      dup2\n      dup6\n      dup9\n      dup9\n      call\n      swap4\n      pop\n      pop\n      pop\n      pop\n      iszero\n      dup1\n      iszero\n      tag_243\n      jumpi\n      returndatasize\n      0x00\n      dup1\n      returndatacopy\n      revert(0x00, returndatasize)\n    tag_243:\n      pop\n        /* \"contracts/GeekNft.sol\":1278:1279  _ */\n      pop\n        /* \"contracts/GeekNft.sol\":4181:4585  function addItemToSell(uint _tokenId) public payable sendCorrectFeesValue onlyItemOwner(_tokenId) {... */\n      pop\n      jump\t// out\n        /* \"contracts/GeekNft.sol\":1292:1403  function updateCreateItemFees(uint _newFees) public onlyContractOwner{... */\n    tag_88:\n        /* \"contracts/GeekNft.sol\":937:942  owner */\n      0x02\n      0x00\n      swap1\n      sload\n      swap1\n      0x0100\n      exp\n      swap1\n      div\n      0xffffffffffffffffffffffffffffffffffffffff\n      and\n        /* \"contracts/GeekNft.sol\":923:942  msg.sender == owner */\n      0xffffffffffffffffffffffffffffffffffffffff\n      and\n        /* \"contracts/GeekNft.sol\":923:933  msg.sender */\n      caller\n        /* \"contracts/GeekNft.sol\":923:942  msg.sender == owner */\n      0xffffffffffffffffffffffffffffffffffffffff\n      and\n      eq\n        /* \"contracts/GeekNft.sol\":915:980  require(msg.sender == owner, \"Only contract's owner can do that\") */\n      tag_245\n      jumpi\n      mload(0x40)\n      0x08c379a000000000000000000000000000000000000000000000000000000000\n      dup2\n      mstore\n      0x04\n      add\n      tag_246\n      swap1\n      tag_125\n      jump\t// in\n    tag_246:\n      mload(0x40)\n      dup1\n      swap2\n      sub\n      swap1\n      revert\n    tag_245:\n        /* \"contracts/GeekNft.sol\":1388:1396  _newFees */\n      dup1\n        /* \"contracts/GeekNft.sol\":1371:1385  createItemFees */\n      0x05\n        /* \"contracts/GeekNft.sol\":1371:1396  createItemFees = _newFees */\n      dup2\n      swap1\n      sstore\n      pop\n        /* \"contracts/GeekNft.sol\":1292:1403  function updateCreateItemFees(uint _newFees) public onlyContractOwner{... */\n      pop\n      jump\t// out\n        /* \"contracts/GeekNft.sol\":6548:6770  function getFees(uint _price, uint _percentage) private pure returns (uint, uint){... */\n    tag_205:\n        /* \"contracts/GeekNft.sol\":6618:6622  uint */\n      0x00\n        /* \"contracts/GeekNft.sol\":6624:6628  uint */\n      dup1\n        /* \"contracts/GeekNft.sol\":6639:6648  uint fees */\n      0x00\n        /* \"contracts/GeekNft.sol\":6676:6679  100 */\n      0x64\n        /* \"contracts/GeekNft.sol\":6666:6672  _price */\n      dup6\n        /* \"contracts/GeekNft.sol\":6652:6663  _percentage */\n      dup6\n        /* \"contracts/GeekNft.sol\":6652:6672  _percentage * _price */\n      tag_249\n      swap2\n      swap1\n      tag_250\n      jump\t// in\n    tag_249:\n        /* \"contracts/GeekNft.sol\":6651:6679  (_percentage * _price) / 100 */\n      tag_251\n      swap2\n      swap1\n      tag_252\n      jump\t// in\n    tag_251:\n        /* \"contracts/GeekNft.sol\":6639:6679  uint fees = (_percentage * _price) / 100 */\n      swap1\n      pop\n        /* \"contracts/GeekNft.sol\":6689:6708  uint totalMinusFees */\n      0x00\n        /* \"contracts/GeekNft.sol\":6720:6724  fees */\n      dup2\n        /* \"contracts/GeekNft.sol\":6711:6717  _price */\n      dup7\n        /* \"contracts/GeekNft.sol\":6711:6724  _price - fees */\n      tag_253\n      swap2\n      swap1\n      tag_254\n      jump\t// in\n    tag_253:\n        /* \"contracts/GeekNft.sol\":6689:6724  uint totalMinusFees = _price - fees */\n      swap1\n      pop\n        /* \"contracts/GeekNft.sol\":6742:6746  fees */\n      dup2\n        /* \"contracts/GeekNft.sol\":6748:6762  totalMinusFees */\n      dup2\n        /* \"contracts/GeekNft.sol\":6734:6763  return (fees, totalMinusFees) */\n      swap4\n      pop\n      swap4\n      pop\n      pop\n      pop\n        /* \"contracts/GeekNft.sol\":6548:6770  function getFees(uint _price, uint _percentage) private pure returns (uint, uint){... */\n      swap3\n      pop\n      swap3\n      swap1\n      pop\n      jump\t// out\n    tag_108:\n      mload(0x40)\n      dup1\n      0x80\n      add\n      0x40\n      mstore\n      dup1\n      0x00\n      dup2\n      mstore\n      0x20\n      add\n      0x00\n      dup2\n      mstore\n      0x20\n      add\n      0x00\n      dup2\n      mstore\n      0x20\n      add\n      iszero(iszero(0x00))\n      dup2\n      mstore\n      pop\n      swap1\n      jump\t// out\n        /* \"#utility.yul\":7:146   */\n    tag_256:\n      0x00\n        /* \"#utility.yul\":91:97   */\n      dup2\n        /* \"#utility.yul\":78:98   */\n      calldataload\n        /* \"#utility.yul\":69:98   */\n      swap1\n      pop\n        /* \"#utility.yul\":107:140   */\n      tag_258\n        /* \"#utility.yul\":134:139   */\n      dup2\n        /* \"#utility.yul\":107:140   */\n      tag_259\n      jump\t// in\n    tag_258:\n        /* \"#utility.yul\":59:146   */\n      swap3\n      swap2\n      pop\n      pop\n      jump\t// out\n        /* \"#utility.yul\":152:291   */\n    tag_260:\n      0x00\n        /* \"#utility.yul\":236:242   */\n      dup2\n        /* \"#utility.yul\":223:243   */\n      calldataload\n        /* \"#utility.yul\":214:243   */\n      swap1\n      pop\n        /* \"#utility.yul\":252:285   */\n      tag_262\n        /* \"#utility.yul\":279:284   */\n      dup2\n        /* \"#utility.yul\":252:285   */\n      tag_263\n      jump\t// in\n    tag_262:\n        /* \"#utility.yul\":204:291   */\n      swap3\n      swap2\n      pop\n      pop\n      jump\t// out\n        /* \"#utility.yul\":297:559   */\n    tag_68:\n      0x00\n        /* \"#utility.yul\":405:407   */\n      0x20\n        /* \"#utility.yul\":393:402   */\n      dup3\n        /* \"#utility.yul\":384:391   */\n      dup5\n        /* \"#utility.yul\":380:403   */\n      sub\n        /* \"#utility.yul\":376:408   */\n      slt\n        /* \"#utility.yul\":373:375   */\n      iszero\n      tag_265\n      jumpi\n        /* \"#utility.yul\":421:422   */\n      0x00\n        /* \"#utility.yul\":418:419   */\n      dup1\n        /* \"#utility.yul\":411:423   */\n      revert\n        /* \"#utility.yul\":373:375   */\n    tag_265:\n        /* \"#utility.yul\":464:465   */\n      0x00\n        /* \"#utility.yul\":489:542   */\n      tag_266\n        /* \"#utility.yul\":534:541   */\n      dup5\n        /* \"#utility.yul\":525:531   */\n      dup3\n        /* \"#utility.yul\":514:523   */\n      dup6\n        /* \"#utility.yul\":510:532   */\n      add\n        /* \"#utility.yul\":489:542   */\n      tag_256\n      jump\t// in\n    tag_266:\n        /* \"#utility.yul\":479:542   */\n      swap2\n      pop\n        /* \"#utility.yul\":435:552   */\n      pop\n        /* \"#utility.yul\":363:559   */\n      swap3\n      swap2\n      pop\n      pop\n      jump\t// out\n        /* \"#utility.yul\":565:827   */\n    tag_38:\n      0x00\n        /* \"#utility.yul\":673:675   */\n      0x20\n        /* \"#utility.yul\":661:670   */\n      dup3\n        /* \"#utility.yul\":652:659   */\n      dup5\n        /* \"#utility.yul\":648:671   */\n      sub\n        /* \"#utility.yul\":644:676   */\n      slt\n        /* \"#utility.yul\":641:643   */\n      iszero\n      tag_268\n      jumpi\n        /* \"#utility.yul\":689:690   */\n      0x00\n        /* \"#utility.yul\":686:687   */\n      dup1\n        /* \"#utility.yul\":679:691   */\n      revert\n        /* \"#utility.yul\":641:643   */\n    tag_268:\n        /* \"#utility.yul\":732:733   */\n      0x00\n        /* \"#utility.yul\":757:810   */\n      tag_269\n        /* \"#utility.yul\":802:809   */\n      dup5\n        /* \"#utility.yul\":793:799   */\n      dup3\n        /* \"#utility.yul\":782:791   */\n      dup6\n        /* \"#utility.yul\":778:800   */\n      add\n        /* \"#utility.yul\":757:810   */\n      tag_260\n      jump\t// in\n    tag_269:\n        /* \"#utility.yul\":747:810   */\n      swap2\n      pop\n        /* \"#utility.yul\":703:820   */\n      pop\n        /* \"#utility.yul\":631:827   */\n      swap3\n      swap2\n      pop\n      pop\n      jump\t// out\n        /* \"#utility.yul\":833:1385   */\n    tag_22:\n      0x00\n      dup1\n      0x00\n        /* \"#utility.yul\":975:977   */\n      0x60\n        /* \"#utility.yul\":963:972   */\n      dup5\n        /* \"#utility.yul\":954:961   */\n      dup7\n        /* \"#utility.yul\":950:973   */\n      sub\n        /* \"#utility.yul\":946:978   */\n      slt\n        /* \"#utility.yul\":943:945   */\n      iszero\n      tag_271\n      jumpi\n        /* \"#utility.yul\":991:992   */\n      0x00\n        /* \"#utility.yul\":988:989   */\n      dup1\n        /* \"#utility.yul\":981:993   */\n      revert\n        /* \"#utility.yul\":943:945   */\n    tag_271:\n        /* \"#utility.yul\":1034:1035   */\n      0x00\n        /* \"#utility.yul\":1059:1112   */\n      tag_272\n        /* \"#utility.yul\":1104:1111   */\n      dup7\n        /* \"#utility.yul\":1095:1101   */\n      dup3\n        /* \"#utility.yul\":1084:1093   */\n      dup8\n        /* \"#utility.yul\":1080:1102   */\n      add\n        /* \"#utility.yul\":1059:1112   */\n      tag_260\n      jump\t// in\n    tag_272:\n        /* \"#utility.yul\":1049:1112   */\n      swap4\n      pop\n        /* \"#utility.yul\":1005:1122   */\n      pop\n        /* \"#utility.yul\":1161:1163   */\n      0x20\n        /* \"#utility.yul\":1187:1240   */\n      tag_273\n        /* \"#utility.yul\":1232:1239   */\n      dup7\n        /* \"#utility.yul\":1223:1229   */\n      dup3\n        /* \"#utility.yul\":1212:1221   */\n      dup8\n        /* \"#utility.yul\":1208:1230   */\n      add\n        /* \"#utility.yul\":1187:1240   */\n      tag_260\n      jump\t// in\n    tag_273:\n        /* \"#utility.yul\":1177:1240   */\n      swap3\n      pop\n        /* \"#utility.yul\":1132:1250   */\n      pop\n        /* \"#utility.yul\":1289:1291   */\n      0x40\n        /* \"#utility.yul\":1315:1368   */\n      tag_274\n        /* \"#utility.yul\":1360:1367   */\n      dup7\n        /* \"#utility.yul\":1351:1357   */\n      dup3\n        /* \"#utility.yul\":1340:1349   */\n      dup8\n        /* \"#utility.yul\":1336:1358   */\n      add\n        /* \"#utility.yul\":1315:1368   */\n      tag_260\n      jump\t// in\n    tag_274:\n        /* \"#utility.yul\":1305:1368   */\n      swap2\n      pop\n        /* \"#utility.yul\":1260:1378   */\n      pop\n        /* \"#utility.yul\":933:1385   */\n      swap3\n      pop\n      swap3\n      pop\n      swap3\n      jump\t// out\n        /* \"#utility.yul\":1391:1650   */\n    tag_275:\n      0x00\n        /* \"#utility.yul\":1521:1607   */\n      tag_277\n        /* \"#utility.yul\":1603:1606   */\n      dup4\n        /* \"#utility.yul\":1595:1601   */\n      dup4\n        /* \"#utility.yul\":1521:1607   */\n      tag_278\n      jump\t// in\n    tag_277:\n        /* \"#utility.yul\":1639:1643   */\n      0x80\n        /* \"#utility.yul\":1634:1637   */\n      dup4\n        /* \"#utility.yul\":1630:1644   */\n      add\n        /* \"#utility.yul\":1616:1644   */\n      swap1\n      pop\n        /* \"#utility.yul\":1511:1650   */\n      swap3\n      swap2\n      pop\n      pop\n      jump\t// out\n        /* \"#utility.yul\":1656:1774   */\n    tag_279:\n        /* \"#utility.yul\":1743:1767   */\n      tag_281\n        /* \"#utility.yul\":1761:1766   */\n      dup2\n        /* \"#utility.yul\":1743:1767   */\n      tag_282\n      jump\t// in\n    tag_281:\n        /* \"#utility.yul\":1738:1741   */\n      dup3\n        /* \"#utility.yul\":1731:1768   */\n      mstore\n        /* \"#utility.yul\":1721:1774   */\n      pop\n      pop\n      jump\t// out\n        /* \"#utility.yul\":1834:2726   */\n    tag_283:\n      0x00\n        /* \"#utility.yul\":2022:2096   */\n      tag_285\n        /* \"#utility.yul\":2090:2095   */\n      dup3\n        /* \"#utility.yul\":2022:2096   */\n      tag_286\n      jump\t// in\n    tag_285:\n        /* \"#utility.yul\":2112:2218   */\n      tag_287\n        /* \"#utility.yul\":2211:2217   */\n      dup2\n        /* \"#utility.yul\":2206:2209   */\n      dup6\n        /* \"#utility.yul\":2112:2218   */\n      tag_288\n      jump\t// in\n    tag_287:\n        /* \"#utility.yul\":2105:2218   */\n      swap4\n      pop\n        /* \"#utility.yul\":2242:2318   */\n      tag_289\n        /* \"#utility.yul\":2312:2317   */\n      dup4\n        /* \"#utility.yul\":2242:2318   */\n      tag_290\n      jump\t// in\n    tag_289:\n        /* \"#utility.yul\":2341:2348   */\n      dup1\n        /* \"#utility.yul\":2372:2373   */\n      0x00\n        /* \"#utility.yul\":2357:2701   */\n    tag_291:\n        /* \"#utility.yul\":2382:2388   */\n      dup4\n        /* \"#utility.yul\":2379:2380   */\n      dup2\n        /* \"#utility.yul\":2376:2389   */\n      lt\n        /* \"#utility.yul\":2357:2701   */\n      iszero\n      tag_293\n      jumpi\n        /* \"#utility.yul\":2458:2464   */\n      dup2\n        /* \"#utility.yul\":2452:2465   */\n      mload\n        /* \"#utility.yul\":2485:2588   */\n      tag_294\n        /* \"#utility.yul\":2584:2587   */\n      dup9\n        /* \"#utility.yul\":2569:2582   */\n      dup3\n        /* \"#utility.yul\":2485:2588   */\n      tag_275\n      jump\t// in\n    tag_294:\n        /* \"#utility.yul\":2478:2588   */\n      swap8\n      pop\n        /* \"#utility.yul\":2611:2691   */\n      tag_295\n        /* \"#utility.yul\":2684:2690   */\n      dup4\n        /* \"#utility.yul\":2611:2691   */\n      tag_296\n      jump\t// in\n    tag_295:\n        /* \"#utility.yul\":2601:2691   */\n      swap3\n      pop\n        /* \"#utility.yul\":2417:2701   */\n      pop\n        /* \"#utility.yul\":2404:2405   */\n      0x01\n        /* \"#utility.yul\":2401:2402   */\n      dup2\n        /* \"#utility.yul\":2397:2406   */\n      add\n        /* \"#utility.yul\":2392:2406   */\n      swap1\n      pop\n        /* \"#utility.yul\":2357:2701   */\n      jump(tag_291)\n    tag_293:\n        /* \"#utility.yul\":2361:2375   */\n      pop\n        /* \"#utility.yul\":2717:2720   */\n      dup6\n        /* \"#utility.yul\":2710:2720   */\n      swap4\n      pop\n        /* \"#utility.yul\":1998:2726   */\n      pop\n      pop\n      pop\n      swap3\n      swap2\n      pop\n      pop\n      jump\t// out\n        /* \"#utility.yul\":2732:2831   */\n    tag_297:\n        /* \"#utility.yul\":2803:2824   */\n      tag_299\n        /* \"#utility.yul\":2818:2823   */\n      dup2\n        /* \"#utility.yul\":2803:2824   */\n      tag_300\n      jump\t// in\n    tag_299:\n        /* \"#utility.yul\":2798:2801   */\n      dup3\n        /* \"#utility.yul\":2791:2825   */\n      mstore\n        /* \"#utility.yul\":2781:2831   */\n      pop\n      pop\n      jump\t// out\n        /* \"#utility.yul\":2837:3203   */\n    tag_301:\n      0x00\n        /* \"#utility.yul\":3000:3067   */\n      tag_303\n        /* \"#utility.yul\":3064:3066   */\n      0x29\n        /* \"#utility.yul\":3059:3062   */\n      dup4\n        /* \"#utility.yul\":3000:3067   */\n      tag_304\n      jump\t// in\n    tag_303:\n        /* \"#utility.yul\":2993:3067   */\n      swap2\n      pop\n        /* \"#utility.yul\":3076:3169   */\n      tag_305\n        /* \"#utility.yul\":3165:3168   */\n      dup3\n        /* \"#utility.yul\":3076:3169   */\n      tag_306\n      jump\t// in\n    tag_305:\n        /* \"#utility.yul\":3194:3196   */\n      0x40\n        /* \"#utility.yul\":3189:3192   */\n      dup3\n        /* \"#utility.yul\":3185:3197   */\n      add\n        /* \"#utility.yul\":3178:3197   */\n      swap1\n      pop\n        /* \"#utility.yul\":2983:3203   */\n      swap2\n      swap1\n      pop\n      jump\t// out\n        /* \"#utility.yul\":3209:3575   */\n    tag_307:\n      0x00\n        /* \"#utility.yul\":3372:3439   */\n      tag_309\n        /* \"#utility.yul\":3436:3438   */\n      0x13\n        /* \"#utility.yul\":3431:3434   */\n      dup4\n        /* \"#utility.yul\":3372:3439   */\n      tag_304\n      jump\t// in\n    tag_309:\n        /* \"#utility.yul\":3365:3439   */\n      swap2\n      pop\n        /* \"#utility.yul\":3448:3541   */\n      tag_310\n        /* \"#utility.yul\":3537:3540   */\n      dup3\n        /* \"#utility.yul\":3448:3541   */\n      tag_311\n      jump\t// in\n    tag_310:\n        /* \"#utility.yul\":3566:3568   */\n      0x20\n        /* \"#utility.yul\":3561:3564   */\n      dup3\n        /* \"#utility.yul\":3557:3569   */\n      add\n        /* \"#utility.yul\":3550:3569   */\n      swap1\n      pop\n        /* \"#utility.yul\":3355:3575   */\n      swap2\n      swap1\n      pop\n      jump\t// out\n        /* \"#utility.yul\":3581:3947   */\n    tag_312:\n      0x00\n        /* \"#utility.yul\":3744:3811   */\n      tag_314\n        /* \"#utility.yul\":3808:3810   */\n      0x13\n        /* \"#utility.yul\":3803:3806   */\n      dup4\n        /* \"#utility.yul\":3744:3811   */\n      tag_304\n      jump\t// in\n    tag_314:\n        /* \"#utility.yul\":3737:3811   */\n      swap2\n      pop\n        /* \"#utility.yul\":3820:3913   */\n      tag_315\n        /* \"#utility.yul\":3909:3912   */\n      dup3\n        /* \"#utility.yul\":3820:3913   */\n      tag_316\n      jump\t// in\n    tag_315:\n        /* \"#utility.yul\":3938:3940   */\n      0x20\n        /* \"#utility.yul\":3933:3936   */\n      dup3\n        /* \"#utility.yul\":3929:3941   */\n      add\n        /* \"#utility.yul\":3922:3941   */\n      swap1\n      pop\n        /* \"#utility.yul\":3727:3947   */\n      swap2\n      swap1\n      pop\n      jump\t// out\n        /* \"#utility.yul\":3953:4319   */\n    tag_317:\n      0x00\n        /* \"#utility.yul\":4116:4183   */\n      tag_319\n        /* \"#utility.yul\":4180:4182   */\n      0x35\n        /* \"#utility.yul\":4175:4178   */\n      dup4\n        /* \"#utility.yul\":4116:4183   */\n      tag_304\n      jump\t// in\n    tag_319:\n        /* \"#utility.yul\":4109:4183   */\n      swap2\n      pop\n        /* \"#utility.yul\":4192:4285   */\n      tag_320\n        /* \"#utility.yul\":4281:4284   */\n      dup3\n        /* \"#utility.yul\":4192:4285   */\n      tag_321\n      jump\t// in\n    tag_320:\n        /* \"#utility.yul\":4310:4312   */\n      0x40\n        /* \"#utility.yul\":4305:4308   */\n      dup3\n        /* \"#utility.yul\":4301:4313   */\n      add\n        /* \"#utility.yul\":4294:4313   */\n      swap1\n      pop\n        /* \"#utility.yul\":4099:4319   */\n      swap2\n      swap1\n      pop\n      jump\t// out\n        /* \"#utility.yul\":4325:4691   */\n    tag_322:\n      0x00\n        /* \"#utility.yul\":4488:4555   */\n      tag_324\n        /* \"#utility.yul\":4552:4554   */\n      0x13\n        /* \"#utility.yul\":4547:4550   */\n      dup4\n        /* \"#utility.yul\":4488:4555   */\n      tag_304\n      jump\t// in\n    tag_324:\n        /* \"#utility.yul\":4481:4555   */\n      swap2\n      pop\n        /* \"#utility.yul\":4564:4657   */\n      tag_325\n        /* \"#utility.yul\":4653:4656   */\n      dup3\n        /* \"#utility.yul\":4564:4657   */\n      tag_326\n      jump\t// in\n    tag_325:\n        /* \"#utility.yul\":4682:4684   */\n      0x20\n        /* \"#utility.yul\":4677:4680   */\n      dup3\n        /* \"#utility.yul\":4673:4685   */\n      add\n        /* \"#utility.yul\":4666:4685   */\n      swap1\n      pop\n        /* \"#utility.yul\":4471:4691   */\n      swap2\n      swap1\n      pop\n      jump\t// out\n        /* \"#utility.yul\":4697:5063   */\n    tag_327:\n      0x00\n        /* \"#utility.yul\":4860:4927   */\n      tag_329\n        /* \"#utility.yul\":4924:4926   */\n      0x1d\n        /* \"#utility.yul\":4919:4922   */\n      dup4\n        /* \"#utility.yul\":4860:4927   */\n      tag_304\n      jump\t// in\n    tag_329:\n        /* \"#utility.yul\":4853:4927   */\n      swap2\n      pop\n        /* \"#utility.yul\":4936:5029   */\n      tag_330\n        /* \"#utility.yul\":5025:5028   */\n      dup3\n        /* \"#utility.yul\":4936:5029   */\n      tag_331\n      jump\t// in\n    tag_330:\n        /* \"#utility.yul\":5054:5056   */\n      0x20\n        /* \"#utility.yul\":5049:5052   */\n      dup3\n        /* \"#utility.yul\":5045:5057   */\n      add\n        /* \"#utility.yul\":5038:5057   */\n      swap1\n      pop\n        /* \"#utility.yul\":4843:5063   */\n      swap2\n      swap1\n      pop\n      jump\t// out\n        /* \"#utility.yul\":5069:5435   */\n    tag_332:\n      0x00\n        /* \"#utility.yul\":5232:5299   */\n      tag_334\n        /* \"#utility.yul\":5296:5298   */\n      0x18\n        /* \"#utility.yul\":5291:5294   */\n      dup4\n        /* \"#utility.yul\":5232:5299   */\n      tag_304\n      jump\t// in\n    tag_334:\n        /* \"#utility.yul\":5225:5299   */\n      swap2\n      pop\n        /* \"#utility.yul\":5308:5401   */\n      tag_335\n        /* \"#utility.yul\":5397:5400   */\n      dup3\n        /* \"#utility.yul\":5308:5401   */\n      tag_336\n      jump\t// in\n    tag_335:\n        /* \"#utility.yul\":5426:5428   */\n      0x20\n        /* \"#utility.yul\":5421:5424   */\n      dup3\n        /* \"#utility.yul\":5417:5429   */\n      add\n        /* \"#utility.yul\":5410:5429   */\n      swap1\n      pop\n        /* \"#utility.yul\":5215:5435   */\n      swap2\n      swap1\n      pop\n      jump\t// out\n        /* \"#utility.yul\":5441:5807   */\n    tag_337:\n      0x00\n        /* \"#utility.yul\":5604:5671   */\n      tag_339\n        /* \"#utility.yul\":5668:5670   */\n      0x21\n        /* \"#utility.yul\":5663:5666   */\n      dup4\n        /* \"#utility.yul\":5604:5671   */\n      tag_304\n      jump\t// in\n    tag_339:\n        /* \"#utility.yul\":5597:5671   */\n      swap2\n      pop\n        /* \"#utility.yul\":5680:5773   */\n      tag_340\n        /* \"#utility.yul\":5769:5772   */\n      dup3\n        /* \"#utility.yul\":5680:5773   */\n      tag_341\n      jump\t// in\n    tag_340:\n        /* \"#utility.yul\":5798:5800   */\n      0x40\n        /* \"#utility.yul\":5793:5796   */\n      dup3\n        /* \"#utility.yul\":5789:5801   */\n      add\n        /* \"#utility.yul\":5782:5801   */\n      swap1\n      pop\n        /* \"#utility.yul\":5587:5807   */\n      swap2\n      swap1\n      pop\n      jump\t// out\n        /* \"#utility.yul\":5813:6179   */\n    tag_342:\n      0x00\n        /* \"#utility.yul\":5976:6043   */\n      tag_344\n        /* \"#utility.yul\":6040:6042   */\n      0x21\n        /* \"#utility.yul\":6035:6038   */\n      dup4\n        /* \"#utility.yul\":5976:6043   */\n      tag_304\n      jump\t// in\n    tag_344:\n        /* \"#utility.yul\":5969:6043   */\n      swap2\n      pop\n        /* \"#utility.yul\":6052:6145   */\n      tag_345\n        /* \"#utility.yul\":6141:6144   */\n      dup3\n        /* \"#utility.yul\":6052:6145   */\n      tag_346\n      jump\t// in\n    tag_345:\n        /* \"#utility.yul\":6170:6172   */\n      0x40\n        /* \"#utility.yul\":6165:6168   */\n      dup3\n        /* \"#utility.yul\":6161:6173   */\n      add\n        /* \"#utility.yul\":6154:6173   */\n      swap1\n      pop\n        /* \"#utility.yul\":5959:6179   */\n      swap2\n      swap1\n      pop\n      jump\t// out\n        /* \"#utility.yul\":6185:6551   */\n    tag_347:\n      0x00\n        /* \"#utility.yul\":6348:6415   */\n      tag_349\n        /* \"#utility.yul\":6412:6414   */\n      0x1a\n        /* \"#utility.yul\":6407:6410   */\n      dup4\n        /* \"#utility.yul\":6348:6415   */\n      tag_304\n      jump\t// in\n    tag_349:\n        /* \"#utility.yul\":6341:6415   */\n      swap2\n      pop\n        /* \"#utility.yul\":6424:6517   */\n      tag_350\n        /* \"#utility.yul\":6513:6516   */\n      dup3\n        /* \"#utility.yul\":6424:6517   */\n      tag_351\n      jump\t// in\n    tag_350:\n        /* \"#utility.yul\":6542:6544   */\n      0x20\n        /* \"#utility.yul\":6537:6540   */\n      dup3\n        /* \"#utility.yul\":6533:6545   */\n      add\n        /* \"#utility.yul\":6526:6545   */\n      swap1\n      pop\n        /* \"#utility.yul\":6331:6551   */\n      swap2\n      swap1\n      pop\n      jump\t// out\n        /* \"#utility.yul\":6607:7444   */\n    tag_278:\n        /* \"#utility.yul\":6734:6738   */\n      0x80\n        /* \"#utility.yul\":6729:6732   */\n      dup3\n        /* \"#utility.yul\":6725:6739   */\n      add\n        /* \"#utility.yul\":6823:6827   */\n      0x00\n        /* \"#utility.yul\":6816:6821   */\n      dup3\n        /* \"#utility.yul\":6812:6828   */\n      add\n        /* \"#utility.yul\":6806:6829   */\n      mload\n        /* \"#utility.yul\":6842:6905   */\n      tag_353\n        /* \"#utility.yul\":6899:6903   */\n      0x00\n        /* \"#utility.yul\":6894:6897   */\n      dup6\n        /* \"#utility.yul\":6890:6904   */\n      add\n        /* \"#utility.yul\":6876:6888   */\n      dup3\n        /* \"#utility.yul\":6842:6905   */\n      tag_354\n      jump\t// in\n    tag_353:\n        /* \"#utility.yul\":6749:6915   */\n      pop\n        /* \"#utility.yul\":7000:7004   */\n      0x20\n        /* \"#utility.yul\":6993:6998   */\n      dup3\n        /* \"#utility.yul\":6989:7005   */\n      add\n        /* \"#utility.yul\":6983:7006   */\n      mload\n        /* \"#utility.yul\":7019:7082   */\n      tag_355\n        /* \"#utility.yul\":7076:7080   */\n      0x20\n        /* \"#utility.yul\":7071:7074   */\n      dup6\n        /* \"#utility.yul\":7067:7081   */\n      add\n        /* \"#utility.yul\":7053:7065   */\n      dup3\n        /* \"#utility.yul\":7019:7082   */\n      tag_354\n      jump\t// in\n    tag_355:\n        /* \"#utility.yul\":6925:7092   */\n      pop\n        /* \"#utility.yul\":7175:7179   */\n      0x40\n        /* \"#utility.yul\":7168:7173   */\n      dup3\n        /* \"#utility.yul\":7164:7180   */\n      add\n        /* \"#utility.yul\":7158:7181   */\n      mload\n        /* \"#utility.yul\":7194:7257   */\n      tag_356\n        /* \"#utility.yul\":7251:7255   */\n      0x40\n        /* \"#utility.yul\":7246:7249   */\n      dup6\n        /* \"#utility.yul\":7242:7256   */\n      add\n        /* \"#utility.yul\":7228:7240   */\n      dup3\n        /* \"#utility.yul\":7194:7257   */\n      tag_354\n      jump\t// in\n    tag_356:\n        /* \"#utility.yul\":7102:7267   */\n      pop\n        /* \"#utility.yul\":7351:7355   */\n      0x60\n        /* \"#utility.yul\":7344:7349   */\n      dup3\n        /* \"#utility.yul\":7340:7356   */\n      add\n        /* \"#utility.yul\":7334:7357   */\n      mload\n        /* \"#utility.yul\":7370:7427   */\n      tag_357\n        /* \"#utility.yul\":7421:7425   */\n      0x60\n        /* \"#utility.yul\":7416:7419   */\n      dup6\n        /* \"#utility.yul\":7412:7426   */\n      add\n        /* \"#utility.yul\":7398:7410   */\n      dup3\n        /* \"#utility.yul\":7370:7427   */\n      tag_297\n      jump\t// in\n    tag_357:\n        /* \"#utility.yul\":7277:7437   */\n      pop\n        /* \"#utility.yul\":6703:7444   */\n      pop\n      pop\n      pop\n      jump\t// out\n        /* \"#utility.yul\":7500:8347   */\n    tag_358:\n        /* \"#utility.yul\":7637:7641   */\n      0x80\n        /* \"#utility.yul\":7632:7635   */\n      dup3\n        /* \"#utility.yul\":7628:7642   */\n      add\n        /* \"#utility.yul\":7726:7730   */\n      0x00\n        /* \"#utility.yul\":7719:7724   */\n      dup3\n        /* \"#utility.yul\":7715:7731   */\n      add\n        /* \"#utility.yul\":7709:7732   */\n      mload\n        /* \"#utility.yul\":7745:7808   */\n      tag_360\n        /* \"#utility.yul\":7802:7806   */\n      0x00\n        /* \"#utility.yul\":7797:7800   */\n      dup6\n        /* \"#utility.yul\":7793:7807   */\n      add\n        /* \"#utility.yul\":7779:7791   */\n      dup3\n        /* \"#utility.yul\":7745:7808   */\n      tag_354\n      jump\t// in\n    tag_360:\n        /* \"#utility.yul\":7652:7818   */\n      pop\n        /* \"#utility.yul\":7903:7907   */\n      0x20\n        /* \"#utility.yul\":7896:7901   */\n      dup3\n        /* \"#utility.yul\":7892:7908   */\n      add\n        /* \"#utility.yul\":7886:7909   */\n      mload\n        /* \"#utility.yul\":7922:7985   */\n      tag_361\n        /* \"#utility.yul\":7979:7983   */\n      0x20\n        /* \"#utility.yul\":7974:7977   */\n      dup6\n        /* \"#utility.yul\":7970:7984   */\n      add\n        /* \"#utility.yul\":7956:7968   */\n      dup3\n        /* \"#utility.yul\":7922:7985   */\n      tag_354\n      jump\t// in\n    tag_361:\n        /* \"#utility.yul\":7828:7995   */\n      pop\n        /* \"#utility.yul\":8078:8082   */\n      0x40\n        /* \"#utility.yul\":8071:8076   */\n      dup3\n        /* \"#utility.yul\":8067:8083   */\n      add\n        /* \"#utility.yul\":8061:8084   */\n      mload\n        /* \"#utility.yul\":8097:8160   */\n      tag_362\n        /* \"#utility.yul\":8154:8158   */\n      0x40\n        /* \"#utility.yul\":8149:8152   */\n      dup6\n        /* \"#utility.yul\":8145:8159   */\n      add\n        /* \"#utility.yul\":8131:8143   */\n      dup3\n        /* \"#utility.yul\":8097:8160   */\n      tag_354\n      jump\t// in\n    tag_362:\n        /* \"#utility.yul\":8005:8170   */\n      pop\n        /* \"#utility.yul\":8254:8258   */\n      0x60\n        /* \"#utility.yul\":8247:8252   */\n      dup3\n        /* \"#utility.yul\":8243:8259   */\n      add\n        /* \"#utility.yul\":8237:8260   */\n      mload\n        /* \"#utility.yul\":8273:8330   */\n      tag_363\n        /* \"#utility.yul\":8324:8328   */\n      0x60\n        /* \"#utility.yul\":8319:8322   */\n      dup6\n        /* \"#utility.yul\":8315:8329   */\n      add\n        /* \"#utility.yul\":8301:8313   */\n      dup3\n        /* \"#utility.yul\":8273:8330   */\n      tag_297\n      jump\t// in\n    tag_363:\n        /* \"#utility.yul\":8180:8340   */\n      pop\n        /* \"#utility.yul\":7606:8347   */\n      pop\n      pop\n      pop\n      jump\t// out\n        /* \"#utility.yul\":8353:8461   */\n    tag_354:\n        /* \"#utility.yul\":8430:8454   */\n      tag_365\n        /* \"#utility.yul\":8448:8453   */\n      dup2\n        /* \"#utility.yul\":8430:8454   */\n      tag_366\n      jump\t// in\n    tag_365:\n        /* \"#utility.yul\":8425:8428   */\n      dup3\n        /* \"#utility.yul\":8418:8455   */\n      mstore\n        /* \"#utility.yul\":8408:8461   */\n      pop\n      pop\n      jump\t// out\n        /* \"#utility.yul\":8467:8585   */\n    tag_367:\n        /* \"#utility.yul\":8554:8578   */\n      tag_369\n        /* \"#utility.yul\":8572:8577   */\n      dup2\n        /* \"#utility.yul\":8554:8578   */\n      tag_366\n      jump\t// in\n    tag_369:\n        /* \"#utility.yul\":8549:8552   */\n      dup3\n        /* \"#utility.yul\":8542:8579   */\n      mstore\n        /* \"#utility.yul\":8532:8585   */\n      pop\n      pop\n      jump\t// out\n        /* \"#utility.yul\":8591:8813   */\n    tag_60:\n      0x00\n        /* \"#utility.yul\":8722:8724   */\n      0x20\n        /* \"#utility.yul\":8711:8720   */\n      dup3\n        /* \"#utility.yul\":8707:8725   */\n      add\n        /* \"#utility.yul\":8699:8725   */\n      swap1\n      pop\n        /* \"#utility.yul\":8735:8806   */\n      tag_371\n        /* \"#utility.yul\":8803:8804   */\n      0x00\n        /* \"#utility.yul\":8792:8801   */\n      dup4\n        /* \"#utility.yul\":8788:8805   */\n      add\n        /* \"#utility.yul\":8779:8785   */\n      dup5\n        /* \"#utility.yul\":8735:8806   */\n      tag_279\n      jump\t// in\n    tag_371:\n        /* \"#utility.yul\":8689:8813   */\n      swap3\n      swap2\n      pop\n      pop\n      jump\t// out\n        /* \"#utility.yul\":8819:9272   */\n    tag_30:\n      0x00\n        /* \"#utility.yul\":9040:9042   */\n      0x20\n        /* \"#utility.yul\":9029:9038   */\n      dup3\n        /* \"#utility.yul\":9025:9043   */\n      add\n        /* \"#utility.yul\":9017:9043   */\n      swap1\n      pop\n        /* \"#utility.yul\":9089:9098   */\n      dup2\n        /* \"#utility.yul\":9083:9087   */\n      dup2\n        /* \"#utility.yul\":9079:9099   */\n      sub\n        /* \"#utility.yul\":9075:9076   */\n      0x00\n        /* \"#utility.yul\":9064:9073   */\n      dup4\n        /* \"#utility.yul\":9060:9077   */\n      add\n        /* \"#utility.yul\":9053:9100   */\n      mstore\n        /* \"#utility.yul\":9117:9265   */\n      tag_373\n        /* \"#utility.yul\":9260:9264   */\n      dup2\n        /* \"#utility.yul\":9251:9257   */\n      dup5\n        /* \"#utility.yul\":9117:9265   */\n      tag_283\n      jump\t// in\n    tag_373:\n        /* \"#utility.yul\":9109:9265   */\n      swap1\n      pop\n        /* \"#utility.yul\":9007:9272   */\n      swap3\n      swap2\n      pop\n      pop\n      jump\t// out\n        /* \"#utility.yul\":9278:9697   */\n    tag_197:\n      0x00\n        /* \"#utility.yul\":9482:9484   */\n      0x20\n        /* \"#utility.yul\":9471:9480   */\n      dup3\n        /* \"#utility.yul\":9467:9485   */\n      add\n        /* \"#utility.yul\":9459:9485   */\n      swap1\n      pop\n        /* \"#utility.yul\":9531:9540   */\n      dup2\n        /* \"#utility.yul\":9525:9529   */\n      dup2\n        /* \"#utility.yul\":9521:9541   */\n      sub\n        /* \"#utility.yul\":9517:9518   */\n      0x00\n        /* \"#utility.yul\":9506:9515   */\n      dup4\n        /* \"#utility.yul\":9502:9519   */\n      add\n        /* \"#utility.yul\":9495:9542   */\n      mstore\n        /* \"#utility.yul\":9559:9690   */\n      tag_375\n        /* \"#utility.yul\":9685:9689   */\n      dup2\n        /* \"#utility.yul\":9559:9690   */\n      tag_301\n      jump\t// in\n    tag_375:\n        /* \"#utility.yul\":9551:9690   */\n      swap1\n      pop\n        /* \"#utility.yul\":9449:9697   */\n      swap2\n      swap1\n      pop\n      jump\t// out\n        /* \"#utility.yul\":9703:10122   */\n    tag_223:\n      0x00\n        /* \"#utility.yul\":9907:9909   */\n      0x20\n        /* \"#utility.yul\":9896:9905   */\n      dup3\n        /* \"#utility.yul\":9892:9910   */\n      add\n        /* \"#utility.yul\":9884:9910   */\n      swap1\n      pop\n        /* \"#utility.yul\":9956:9965   */\n      dup2\n        /* \"#utility.yul\":9950:9954   */\n      dup2\n        /* \"#utility.yul\":9946:9966   */\n      sub\n        /* \"#utility.yul\":9942:9943   */\n      0x00\n        /* \"#utility.yul\":9931:9940   */\n      dup4\n        /* \"#utility.yul\":9927:9944   */\n      add\n        /* \"#utility.yul\":9920:9967   */\n      mstore\n        /* \"#utility.yul\":9984:10115   */\n      tag_377\n        /* \"#utility.yul\":10110:10114   */\n      dup2\n        /* \"#utility.yul\":9984:10115   */\n      tag_307\n      jump\t// in\n    tag_377:\n        /* \"#utility.yul\":9976:10115   */\n      swap1\n      pop\n        /* \"#utility.yul\":9874:10122   */\n      swap2\n      swap1\n      pop\n      jump\t// out\n        /* \"#utility.yul\":10128:10547   */\n    tag_99:\n      0x00\n        /* \"#utility.yul\":10332:10334   */\n      0x20\n        /* \"#utility.yul\":10321:10330   */\n      dup3\n        /* \"#utility.yul\":10317:10335   */\n      add\n        /* \"#utility.yul\":10309:10335   */\n      swap1\n      pop\n        /* \"#utility.yul\":10381:10390   */\n      dup2\n        /* \"#utility.yul\":10375:10379   */\n      dup2\n        /* \"#utility.yul\":10371:10391   */\n      sub\n        /* \"#utility.yul\":10367:10368   */\n      0x00\n        /* \"#utility.yul\":10356:10365   */\n      dup4\n        /* \"#utility.yul\":10352:10369   */\n      add\n        /* \"#utility.yul\":10345:10392   */\n      mstore\n        /* \"#utility.yul\":10409:10540   */\n      tag_379\n        /* \"#utility.yul\":10535:10539   */\n      dup2\n        /* \"#utility.yul\":10409:10540   */\n      tag_312\n      jump\t// in\n    tag_379:\n        /* \"#utility.yul\":10401:10540   */\n      swap1\n      pop\n        /* \"#utility.yul\":10299:10547   */\n      swap2\n      swap1\n      pop\n      jump\t// out\n        /* \"#utility.yul\":10553:10972   */\n    tag_191:\n      0x00\n        /* \"#utility.yul\":10757:10759   */\n      0x20\n        /* \"#utility.yul\":10746:10755   */\n      dup3\n        /* \"#utility.yul\":10742:10760   */\n      add\n        /* \"#utility.yul\":10734:10760   */\n      swap1\n      pop\n        /* \"#utility.yul\":10806:10815   */\n      dup2\n        /* \"#utility.yul\":10800:10804   */\n      dup2\n        /* \"#utility.yul\":10796:10816   */\n      sub\n        /* \"#utility.yul\":10792:10793   */\n      0x00\n        /* \"#utility.yul\":10781:10790   */\n      dup4\n        /* \"#utility.yul\":10777:10794   */\n      add\n        /* \"#utility.yul\":10770:10817   */\n      mstore\n        /* \"#utility.yul\":10834:10965   */\n      tag_381\n        /* \"#utility.yul\":10960:10964   */\n      dup2\n        /* \"#utility.yul\":10834:10965   */\n      tag_317\n      jump\t// in\n    tag_381:\n        /* \"#utility.yul\":10826:10965   */\n      swap1\n      pop\n        /* \"#utility.yul\":10724:10972   */\n      swap2\n      swap1\n      pop\n      jump\t// out\n        /* \"#utility.yul\":10978:11397   */\n    tag_194:\n      0x00\n        /* \"#utility.yul\":11182:11184   */\n      0x20\n        /* \"#utility.yul\":11171:11180   */\n      dup3\n        /* \"#utility.yul\":11167:11185   */\n      add\n        /* \"#utility.yul\":11159:11185   */\n      swap1\n      pop\n        /* \"#utility.yul\":11231:11240   */\n      dup2\n        /* \"#utility.yul\":11225:11229   */\n      dup2\n        /* \"#utility.yul\":11221:11241   */\n      sub\n        /* \"#utility.yul\":11217:11218   */\n      0x00\n        /* \"#utility.yul\":11206:11215   */\n      dup4\n        /* \"#utility.yul\":11202:11219   */\n      add\n        /* \"#utility.yul\":11195:11242   */\n      mstore\n        /* \"#utility.yul\":11259:11390   */\n      tag_383\n        /* \"#utility.yul\":11385:11389   */\n      dup2\n        /* \"#utility.yul\":11259:11390   */\n      tag_322\n      jump\t// in\n    tag_383:\n        /* \"#utility.yul\":11251:11390   */\n      swap1\n      pop\n        /* \"#utility.yul\":11149:11397   */\n      swap2\n      swap1\n      pop\n      jump\t// out\n        /* \"#utility.yul\":11403:11822   */\n    tag_215:\n      0x00\n        /* \"#utility.yul\":11607:11609   */\n      0x20\n        /* \"#utility.yul\":11596:11605   */\n      dup3\n        /* \"#utility.yul\":11592:11610   */\n      add\n        /* \"#utility.yul\":11584:11610   */\n      swap1\n      pop\n        /* \"#utility.yul\":11656:11665   */\n      dup2\n        /* \"#utility.yul\":11650:11654   */\n      dup2\n        /* \"#utility.yul\":11646:11666   */\n      sub\n        /* \"#utility.yul\":11642:11643   */\n      0x00\n        /* \"#utility.yul\":11631:11640   */\n      dup4\n        /* \"#utility.yul\":11627:11644   */\n      add\n        /* \"#utility.yul\":11620:11667   */\n      mstore\n        /* \"#utility.yul\":11684:11815   */\n      tag_385\n        /* \"#utility.yul\":11810:11814   */\n      dup2\n        /* \"#utility.yul\":11684:11815   */\n      tag_327\n      jump\t// in\n    tag_385:\n        /* \"#utility.yul\":11676:11815   */\n      swap1\n      pop\n        /* \"#utility.yul\":11574:11822   */\n      swap2\n      swap1\n      pop\n      jump\t// out\n        /* \"#utility.yul\":11828:12247   */\n    tag_239:\n      0x00\n        /* \"#utility.yul\":12032:12034   */\n      0x20\n        /* \"#utility.yul\":12021:12030   */\n      dup3\n        /* \"#utility.yul\":12017:12035   */\n      add\n        /* \"#utility.yul\":12009:12035   */\n      swap1\n      pop\n        /* \"#utility.yul\":12081:12090   */\n      dup2\n        /* \"#utility.yul\":12075:12079   */\n      dup2\n        /* \"#utility.yul\":12071:12091   */\n      sub\n        /* \"#utility.yul\":12067:12068   */\n      0x00\n        /* \"#utility.yul\":12056:12065   */\n      dup4\n        /* \"#utility.yul\":12052:12069   */\n      add\n        /* \"#utility.yul\":12045:12092   */\n      mstore\n        /* \"#utility.yul\":12109:12240   */\n      tag_387\n        /* \"#utility.yul\":12235:12239   */\n      dup2\n        /* \"#utility.yul\":12109:12240   */\n      tag_332\n      jump\t// in\n    tag_387:\n        /* \"#utility.yul\":12101:12240   */\n      swap1\n      pop\n        /* \"#utility.yul\":11999:12247   */\n      swap2\n      swap1\n      pop\n      jump\t// out\n        /* \"#utility.yul\":12253:12672   */\n    tag_92:\n      0x00\n        /* \"#utility.yul\":12457:12459   */\n      0x20\n        /* \"#utility.yul\":12446:12455   */\n      dup3\n        /* \"#utility.yul\":12442:12460   */\n      add\n        /* \"#utility.yul\":12434:12460   */\n      swap1\n      pop\n        /* \"#utility.yul\":12506:12515   */\n      dup2\n        /* \"#utility.yul\":12500:12504   */\n      dup2\n        /* \"#utility.yul\":12496:12516   */\n      sub\n        /* \"#utility.yul\":12492:12493   */\n      0x00\n        /* \"#utility.yul\":12481:12490   */\n      dup4\n        /* \"#utility.yul\":12477:12494   */\n      add\n        /* \"#utility.yul\":12470:12517   */\n      mstore\n        /* \"#utility.yul\":12534:12665   */\n      tag_389\n        /* \"#utility.yul\":12660:12664   */\n      dup2\n        /* \"#utility.yul\":12534:12665   */\n      tag_337\n      jump\t// in\n    tag_389:\n        /* \"#utility.yul\":12526:12665   */\n      swap1\n      pop\n        /* \"#utility.yul\":12424:12672   */\n      swap2\n      swap1\n      pop\n      jump\t// out\n        /* \"#utility.yul\":12678:13097   */\n    tag_125:\n      0x00\n        /* \"#utility.yul\":12882:12884   */\n      0x20\n        /* \"#utility.yul\":12871:12880   */\n      dup3\n        /* \"#utility.yul\":12867:12885   */\n      add\n        /* \"#utility.yul\":12859:12885   */\n      swap1\n      pop\n        /* \"#utility.yul\":12931:12940   */\n      dup2\n        /* \"#utility.yul\":12925:12929   */\n      dup2\n        /* \"#utility.yul\":12921:12941   */\n      sub\n        /* \"#utility.yul\":12917:12918   */\n      0x00\n        /* \"#utility.yul\":12906:12915   */\n      dup4\n        /* \"#utility.yul\":12902:12919   */\n      add\n        /* \"#utility.yul\":12895:12942   */\n      mstore\n        /* \"#utility.yul\":12959:13090   */\n      tag_391\n        /* \"#utility.yul\":13085:13089   */\n      dup2\n        /* \"#utility.yul\":12959:13090   */\n      tag_342\n      jump\t// in\n    tag_391:\n        /* \"#utility.yul\":12951:13090   */\n      swap1\n      pop\n        /* \"#utility.yul\":12849:13097   */\n      swap2\n      swap1\n      pop\n      jump\t// out\n        /* \"#utility.yul\":13103:13522   */\n    tag_96:\n      0x00\n        /* \"#utility.yul\":13307:13309   */\n      0x20\n        /* \"#utility.yul\":13296:13305   */\n      dup3\n        /* \"#utility.yul\":13292:13310   */\n      add\n        /* \"#utility.yul\":13284:13310   */\n      swap1\n      pop\n        /* \"#utility.yul\":13356:13365   */\n      dup2\n        /* \"#utility.yul\":13350:13354   */\n      dup2\n        /* \"#utility.yul\":13346:13366   */\n      sub\n        /* \"#utility.yul\":13342:13343   */\n      0x00\n        /* \"#utility.yul\":13331:13340   */\n      dup4\n        /* \"#utility.yul\":13327:13344   */\n      add\n        /* \"#utility.yul\":13320:13367   */\n      mstore\n        /* \"#utility.yul\":13384:13515   */\n      tag_393\n        /* \"#utility.yul\":13510:13514   */\n      dup2\n        /* \"#utility.yul\":13384:13515   */\n      tag_347\n      jump\t// in\n    tag_393:\n        /* \"#utility.yul\":13376:13515   */\n      swap1\n      pop\n        /* \"#utility.yul\":13274:13522   */\n      swap2\n      swap1\n      pop\n      jump\t// out\n        /* \"#utility.yul\":13528:13831   */\n    tag_54:\n      0x00\n        /* \"#utility.yul\":13699:13702   */\n      0x80\n        /* \"#utility.yul\":13688:13697   */\n      dup3\n        /* \"#utility.yul\":13684:13703   */\n      add\n        /* \"#utility.yul\":13676:13703   */\n      swap1\n      pop\n        /* \"#utility.yul\":13713:13824   */\n      tag_395\n        /* \"#utility.yul\":13821:13822   */\n      0x00\n        /* \"#utility.yul\":13810:13819   */\n      dup4\n        /* \"#utility.yul\":13806:13823   */\n      add\n        /* \"#utility.yul\":13797:13803   */\n      dup5\n        /* \"#utility.yul\":13713:13824   */\n      tag_358\n      jump\t// in\n    tag_395:\n        /* \"#utility.yul\":13666:13831   */\n      swap3\n      swap2\n      pop\n      pop\n      jump\t// out\n        /* \"#utility.yul\":13837:14059   */\n    tag_25:\n      0x00\n        /* \"#utility.yul\":13968:13970   */\n      0x20\n        /* \"#utility.yul\":13957:13966   */\n      dup3\n        /* \"#utility.yul\":13953:13971   */\n      add\n        /* \"#utility.yul\":13945:13971   */\n      swap1\n      pop\n        /* \"#utility.yul\":13981:14052   */\n      tag_397\n        /* \"#utility.yul\":14049:14050   */\n      0x00\n        /* \"#utility.yul\":14038:14047   */\n      dup4\n        /* \"#utility.yul\":14034:14051   */\n      add\n        /* \"#utility.yul\":14025:14031   */\n      dup5\n        /* \"#utility.yul\":13981:14052   */\n      tag_367\n      jump\t// in\n    tag_397:\n        /* \"#utility.yul\":13935:14059   */\n      swap3\n      swap2\n      pop\n      pop\n      jump\t// out\n        /* \"#utility.yul\":14065:14217   */\n    tag_290:\n      0x00\n        /* \"#utility.yul\":14175:14178   */\n      dup2\n        /* \"#utility.yul\":14167:14178   */\n      swap1\n      pop\n        /* \"#utility.yul\":14205:14209   */\n      0x20\n        /* \"#utility.yul\":14200:14203   */\n      dup3\n        /* \"#utility.yul\":14196:14210   */\n      add\n        /* \"#utility.yul\":14188:14210   */\n      swap1\n      pop\n        /* \"#utility.yul\":14157:14217   */\n      swap2\n      swap1\n      pop\n      jump\t// out\n        /* \"#utility.yul\":14223:14357   */\n    tag_286:\n      0x00\n        /* \"#utility.yul\":14344:14349   */\n      dup2\n        /* \"#utility.yul\":14338:14350   */\n      mload\n        /* \"#utility.yul\":14328:14350   */\n      swap1\n      pop\n        /* \"#utility.yul\":14317:14357   */\n      swap2\n      swap1\n      pop\n      jump\t// out\n        /* \"#utility.yul\":14363:14496   */\n    tag_296:\n      0x00\n        /* \"#utility.yul\":14485:14489   */\n      0x20\n        /* \"#utility.yul\":14480:14483   */\n      dup3\n        /* \"#utility.yul\":14476:14490   */\n      add\n        /* \"#utility.yul\":14468:14490   */\n      swap1\n      pop\n        /* \"#utility.yul\":14458:14496   */\n      swap2\n      swap1\n      pop\n      jump\t// out\n        /* \"#utility.yul\":14502:14706   */\n    tag_288:\n      0x00\n        /* \"#utility.yul\":14655:14661   */\n      dup3\n        /* \"#utility.yul\":14650:14653   */\n      dup3\n        /* \"#utility.yul\":14643:14662   */\n      mstore\n        /* \"#utility.yul\":14695:14699   */\n      0x20\n        /* \"#utility.yul\":14690:14693   */\n      dup3\n        /* \"#utility.yul\":14686:14700   */\n      add\n        /* \"#utility.yul\":14671:14700   */\n      swap1\n      pop\n        /* \"#utility.yul\":14633:14706   */\n      swap3\n      swap2\n      pop\n      pop\n      jump\t// out\n        /* \"#utility.yul\":14712:14881   */\n    tag_304:\n      0x00\n        /* \"#utility.yul\":14830:14836   */\n      dup3\n        /* \"#utility.yul\":14825:14828   */\n      dup3\n        /* \"#utility.yul\":14818:14837   */\n      mstore\n        /* \"#utility.yul\":14870:14874   */\n      0x20\n        /* \"#utility.yul\":14865:14868   */\n      dup3\n        /* \"#utility.yul\":14861:14875   */\n      add\n        /* \"#utility.yul\":14846:14875   */\n      swap1\n      pop\n        /* \"#utility.yul\":14808:14881   */\n      swap3\n      swap2\n      pop\n      pop\n      jump\t// out\n        /* \"#utility.yul\":14887:15072   */\n    tag_252:\n      0x00\n        /* \"#utility.yul\":14944:14964   */\n      tag_404\n        /* \"#utility.yul\":14962:14963   */\n      dup3\n        /* \"#utility.yul\":14944:14964   */\n      tag_366\n      jump\t// in\n    tag_404:\n        /* \"#utility.yul\":14939:14964   */\n      swap2\n      pop\n        /* \"#utility.yul\":14978:14998   */\n      tag_405\n        /* \"#utility.yul\":14996:14997   */\n      dup4\n        /* \"#utility.yul\":14978:14998   */\n      tag_366\n      jump\t// in\n    tag_405:\n        /* \"#utility.yul\":14973:14998   */\n      swap3\n      pop\n        /* \"#utility.yul\":15017:15018   */\n      dup3\n        /* \"#utility.yul\":15007:15009   */\n      tag_406\n      jumpi\n        /* \"#utility.yul\":15022:15040   */\n      tag_407\n      tag_408\n      jump\t// in\n    tag_407:\n        /* \"#utility.yul\":15007:15009   */\n    tag_406:\n        /* \"#utility.yul\":15064:15065   */\n      dup3\n        /* \"#utility.yul\":15061:15062   */\n      dup3\n        /* \"#utility.yul\":15057:15066   */\n      div\n        /* \"#utility.yul\":15052:15066   */\n      swap1\n      pop\n        /* \"#utility.yul\":14929:15072   */\n      swap3\n      swap2\n      pop\n      pop\n      jump\t// out\n        /* \"#utility.yul\":15078:15426   */\n    tag_250:\n      0x00\n        /* \"#utility.yul\":15141:15161   */\n      tag_410\n        /* \"#utility.yul\":15159:15160   */\n      dup3\n        /* \"#utility.yul\":15141:15161   */\n      tag_366\n      jump\t// in\n    tag_410:\n        /* \"#utility.yul\":15136:15161   */\n      swap2\n      pop\n        /* \"#utility.yul\":15175:15195   */\n      tag_411\n        /* \"#utility.yul\":15193:15194   */\n      dup4\n        /* \"#utility.yul\":15175:15195   */\n      tag_366\n      jump\t// in\n    tag_411:\n        /* \"#utility.yul\":15170:15195   */\n      swap3\n      pop\n        /* \"#utility.yul\":15363:15364   */\n      dup2\n        /* \"#utility.yul\":15295:15361   */\n      0xffffffffffffffffffffffffffffffffffffffffffffffffffffffffffffffff\n        /* \"#utility.yul\":15291:15365   */\n      div\n        /* \"#utility.yul\":15288:15289   */\n      dup4\n        /* \"#utility.yul\":15285:15366   */\n      gt\n        /* \"#utility.yul\":15280:15281   */\n      dup3\n        /* \"#utility.yul\":15273:15282   */\n      iszero\n        /* \"#utility.yul\":15266:15283   */\n      iszero\n        /* \"#utility.yul\":15262:15367   */\n      and\n        /* \"#utility.yul\":15259:15261   */\n      iszero\n      tag_412\n      jumpi\n        /* \"#utility.yul\":15370:15388   */\n      tag_413\n      tag_414\n      jump\t// in\n    tag_413:\n        /* \"#utility.yul\":15259:15261   */\n    tag_412:\n        /* \"#utility.yul\":15418:15419   */\n      dup3\n        /* \"#utility.yul\":15415:15416   */\n      dup3\n        /* \"#utility.yul\":15411:15420   */\n      mul\n        /* \"#utility.yul\":15400:15420   */\n      swap1\n      pop\n        /* \"#utility.yul\":15126:15426   */\n      swap3\n      swap2\n      pop\n      pop\n      jump\t// out\n        /* \"#utility.yul\":15432:15623   */\n    tag_254:\n      0x00\n        /* \"#utility.yul\":15492:15512   */\n      tag_416\n        /* \"#utility.yul\":15510:15511   */\n      dup3\n        /* \"#utility.yul\":15492:15512   */\n      tag_366\n      jump\t// in\n    tag_416:\n        /* \"#utility.yul\":15487:15512   */\n      swap2\n      pop\n        /* \"#utility.yul\":15526:15546   */\n      tag_417\n        /* \"#utility.yul\":15544:15545   */\n      dup4\n        /* \"#utility.yul\":15526:15546   */\n      tag_366\n      jump\t// in\n    tag_417:\n        /* \"#utility.yul\":15521:15546   */\n      swap3\n      pop\n        /* \"#utility.yul\":15565:15566   */\n      dup3\n        /* \"#utility.yul\":15562:15563   */\n      dup3\n        /* \"#utility.yul\":15559:15567   */\n      lt\n        /* \"#utility.yul\":15556:15558   */\n      iszero\n      tag_418\n      jumpi\n        /* \"#utility.yul\":15570:15588   */\n      tag_419\n      tag_414\n      jump\t// in\n    tag_419:\n        /* \"#utility.yul\":15556:15558   */\n    tag_418:\n        /* \"#utility.yul\":15615:15616   */\n      dup3\n        /* \"#utility.yul\":15612:15613   */\n      dup3\n        /* \"#utility.yul\":15608:15617   */\n      sub\n        /* \"#utility.yul\":15600:15617   */\n      swap1\n      pop\n        /* \"#utility.yul\":15477:15623   */\n      swap3\n      swap2\n      pop\n      pop\n      jump\t// out\n        /* \"#utility.yul\":15629:15725   */\n    tag_282:\n      0x00\n        /* \"#utility.yul\":15695:15719   */\n      tag_421\n        /* \"#utility.yul\":15713:15718   */\n      dup3\n        /* \"#utility.yul\":15695:15719   */\n      tag_422\n      jump\t// in\n    tag_421:\n        /* \"#utility.yul\":15684:15719   */\n      swap1\n      pop\n        /* \"#utility.yul\":15674:15725   */\n      swap2\n      swap1\n      pop\n      jump\t// out\n        /* \"#utility.yul\":15731:15821   */\n    tag_300:\n      0x00\n        /* \"#utility.yul\":15808:15813   */\n      dup2\n        /* \"#utility.yul\":15801:15814   */\n      iszero\n        /* \"#utility.yul\":15794:15815   */\n      iszero\n        /* \"#utility.yul\":15783:15815   */\n      swap1\n      pop\n        /* \"#utility.yul\":15773:15821   */\n      swap2\n      swap1\n      pop\n      jump\t// out\n        /* \"#utility.yul\":15827:15953   */\n    tag_422:\n      0x00\n        /* \"#utility.yul\":15904:15946   */\n      0xffffffffffffffffffffffffffffffffffffffff\n        /* \"#utility.yul\":15897:15902   */\n      dup3\n        /* \"#utility.yul\":15893:15947   */\n      and\n        /* \"#utility.yul\":15882:15947   */\n      swap1\n      pop\n        /* \"#utility.yul\":15872:15953   */\n      swap2\n      swap1\n      pop\n      jump\t// out\n        /* \"#utility.yul\":15959:16036   */\n    tag_366:\n      0x00\n        /* \"#utility.yul\":16025:16030   */\n      dup2\n        /* \"#utility.yul\":16014:16030   */\n      swap1\n      pop\n        /* \"#utility.yul\":16004:16036   */\n      swap2\n      swap1\n      pop\n      jump\t// out\n        /* \"#utility.yul\":16042:16275   */\n    tag_119:\n      0x00\n        /* \"#utility.yul\":16104:16128   */\n      tag_427\n        /* \"#utility.yul\":16122:16127   */\n      dup3\n        /* \"#utility.yul\":16104:16128   */\n      tag_366\n      jump\t// in\n    tag_427:\n        /* \"#utility.yul\":16095:16128   */\n      swap2\n      pop\n        /* \"#utility.yul\":16150:16216   */\n      0xffffffffffffffffffffffffffffffffffffffffffffffffffffffffffffffff\n        /* \"#utility.yul\":16143:16148   */\n      dup3\n        /* \"#utility.yul\":16140:16217   */\n      eq\n        /* \"#utility.yul\":16137:16139   */\n      iszero\n      tag_428\n      jumpi\n        /* \"#utility.yul\":16220:16238   */\n      tag_429\n      tag_414\n      jump\t// in\n    tag_429:\n        /* \"#utility.yul\":16137:16139   */\n    tag_428:\n        /* \"#utility.yul\":16267:16268   */\n      0x01\n        /* \"#utility.yul\":16260:16265   */\n      dup3\n        /* \"#utility.yul\":16256:16269   */\n      add\n        /* \"#utility.yul\":16249:16269   */\n      swap1\n      pop\n        /* \"#utility.yul\":16085:16275   */\n      swap2\n      swap1\n      pop\n      jump\t// out\n        /* \"#utility.yul\":16281:16461   */\n    tag_414:\n        /* \"#utility.yul\":16329:16406   */\n      0x4e487b7100000000000000000000000000000000000000000000000000000000\n        /* \"#utility.yul\":16326:16327   */\n      0x00\n        /* \"#utility.yul\":16319:16407   */\n      mstore\n        /* \"#utility.yul\":16426:16430   */\n      0x11\n        /* \"#utility.yul\":16423:16424   */\n      0x04\n        /* \"#utility.yul\":16416:16431   */\n      mstore\n        /* \"#utility.yul\":16450:16454   */\n      0x24\n        /* \"#utility.yul\":16447:16448   */\n      0x00\n        /* \"#utility.yul\":16440:16455   */\n      revert\n        /* \"#utility.yul\":16467:16647   */\n    tag_408:\n        /* \"#utility.yul\":16515:16592   */\n      0x4e487b7100000000000000000000000000000000000000000000000000000000\n        /* \"#utility.yul\":16512:16513   */\n      0x00\n        /* \"#utility.yul\":16505:16593   */\n      mstore\n        /* \"#utility.yul\":16612:16616   */\n      0x12\n        /* \"#utility.yul\":16609:16610   */\n      0x04\n        /* \"#utility.yul\":16602:16617   */\n      mstore\n        /* \"#utility.yul\":16636:16640   */\n      0x24\n        /* \"#utility.yul\":16633:16634   */\n      0x00\n        /* \"#utility.yul\":16626:16641   */\n      revert\n        /* \"#utility.yul\":16653:16881   */\n    tag_306:\n        /* \"#utility.yul\":16793:16827   */\n      0x796f752063616e27742062757920616e206974656d20746861742062656c6f6e\n        /* \"#utility.yul\":16789:16790   */\n      0x00\n        /* \"#utility.yul\":16781:16787   */\n      dup3\n        /* \"#utility.yul\":16777:16791   */\n      add\n        /* \"#utility.yul\":16770:16828   */\n      mstore\n        /* \"#utility.yul\":16862:16873   */\n      0x677320746f20796f750000000000000000000000000000000000000000000000\n        /* \"#utility.yul\":16857:16859   */\n      0x20\n        /* \"#utility.yul\":16849:16855   */\n      dup3\n        /* \"#utility.yul\":16845:16860   */\n      add\n        /* \"#utility.yul\":16838:16874   */\n      mstore\n        /* \"#utility.yul\":16759:16881   */\n      pop\n      jump\t// out\n        /* \"#utility.yul\":16887:17056   */\n    tag_311:\n        /* \"#utility.yul\":17027:17048   */\n      0x746f6b656e2069736e277420746f2073656c6c00000000000000000000000000\n        /* \"#utility.yul\":17023:17024   */\n      0x00\n        /* \"#utility.yul\":17015:17021   */\n      dup3\n        /* \"#utility.yul\":17011:17025   */\n      add\n        /* \"#utility.yul\":17004:17049   */\n      mstore\n        /* \"#utility.yul\":16993:17056   */\n      pop\n      jump\t// out\n        /* \"#utility.yul\":17062:17231   */\n    tag_316:\n        /* \"#utility.yul\":17202:17223   */\n      0x746f6b656e20616c726561647920657869737400000000000000000000000000\n        /* \"#utility.yul\":17198:17199   */\n      0x00\n        /* \"#utility.yul\":17190:17196   */\n      dup3\n        /* \"#utility.yul\":17186:17200   */\n      add\n        /* \"#utility.yul\":17179:17224   */\n      mstore\n        /* \"#utility.yul\":17168:17231   */\n      pop\n      jump\t// out\n        /* \"#utility.yul\":17237:17477   */\n    tag_321:\n        /* \"#utility.yul\":17377:17411   */\n      0x7472616e73616374696f6e27732076616c75652063616e6e6f74206265206469\n        /* \"#utility.yul\":17373:17374   */\n      0x00\n        /* \"#utility.yul\":17365:17371   */\n      dup3\n        /* \"#utility.yul\":17361:17375   */\n      add\n        /* \"#utility.yul\":17354:17412   */\n      mstore\n        /* \"#utility.yul\":17446:17469   */\n      0x66666572656e74206f66206974656d2070726963650000000000000000000000\n        /* \"#utility.yul\":17441:17443   */\n      0x20\n        /* \"#utility.yul\":17433:17439   */\n      dup3\n        /* \"#utility.yul\":17429:17444   */\n      add\n        /* \"#utility.yul\":17422:17470   */\n      mstore\n        /* \"#utility.yul\":17343:17477   */\n      pop\n      jump\t// out\n        /* \"#utility.yul\":17483:17652   */\n    tag_326:\n        /* \"#utility.yul\":17623:17644   */\n      0x746f6b656e20646f65736e277420657869737400000000000000000000000000\n        /* \"#utility.yul\":17619:17620   */\n      0x00\n        /* \"#utility.yul\":17611:17617   */\n      dup3\n        /* \"#utility.yul\":17607:17621   */\n      add\n        /* \"#utility.yul\":17600:17645   */\n      mstore\n        /* \"#utility.yul\":17589:17652   */\n      pop\n      jump\t// out\n        /* \"#utility.yul\":17658:17837   */\n    tag_331:\n        /* \"#utility.yul\":17798:17829   */\n      0x4f6e6c79206974656d2773206f776e65722063616e20646f2074686174000000\n        /* \"#utility.yul\":17794:17795   */\n      0x00\n        /* \"#utility.yul\":17786:17792   */\n      dup3\n        /* \"#utility.yul\":17782:17796   */\n      add\n        /* \"#utility.yul\":17775:17830   */\n      mstore\n        /* \"#utility.yul\":17764:17837   */\n      pop\n      jump\t// out\n        /* \"#utility.yul\":17843:18017   */\n    tag_336:\n        /* \"#utility.yul\":17983:18009   */\n      0x746f6b656e20697320616c726561647920746f2073656c6c0000000000000000\n        /* \"#utility.yul\":17979:17980   */\n      0x00\n        /* \"#utility.yul\":17971:17977   */\n      dup3\n        /* \"#utility.yul\":17967:17981   */\n      add\n        /* \"#utility.yul\":17960:18010   */\n      mstore\n        /* \"#utility.yul\":17949:18017   */\n      pop\n      jump\t// out\n        /* \"#utility.yul\":18023:18243   */\n    tag_341:\n        /* \"#utility.yul\":18163:18197   */\n      0x5468616e6b7320746f2073656e6420636f727265637420666565732076616c75\n        /* \"#utility.yul\":18159:18160   */\n      0x00\n        /* \"#utility.yul\":18151:18157   */\n      dup3\n        /* \"#utility.yul\":18147:18161   */\n      add\n        /* \"#utility.yul\":18140:18198   */\n      mstore\n        /* \"#utility.yul\":18232:18235   */\n      0x6500000000000000000000000000000000000000000000000000000000000000\n        /* \"#utility.yul\":18227:18229   */\n      0x20\n        /* \"#utility.yul\":18219:18225   */\n      dup3\n        /* \"#utility.yul\":18215:18230   */\n      add\n        /* \"#utility.yul\":18208:18236   */\n      mstore\n        /* \"#utility.yul\":18129:18243   */\n      pop\n      jump\t// out\n        /* \"#utility.yul\":18249:18469   */\n    tag_346:\n        /* \"#utility.yul\":18389:18423   */\n      0x4f6e6c7920636f6e74726163742773206f776e65722063616e20646f20746861\n        /* \"#utility.yul\":18385:18386   */\n      0x00\n        /* \"#utility.yul\":18377:18383   */\n      dup3\n        /* \"#utility.yul\":18373:18387   */\n      add\n        /* \"#utility.yul\":18366:18424   */\n      mstore\n        /* \"#utility.yul\":18458:18461   */\n      0x7400000000000000000000000000000000000000000000000000000000000000\n        /* \"#utility.yul\":18453:18455   */\n      0x20\n        /* \"#utility.yul\":18445:18451   */\n      dup3\n        /* \"#utility.yul\":18441:18456   */\n      add\n        /* \"#utility.yul\":18434:18462   */\n      mstore\n        /* \"#utility.yul\":18355:18469   */\n      pop\n      jump\t// out\n        /* \"#utility.yul\":18475:18651   */\n    tag_351:\n        /* \"#utility.yul\":18615:18643   */\n      0x50726963652063616e6e6f7420626520657175616c20746f2030000000000000\n        /* \"#utility.yul\":18611:18612   */\n      0x00\n        /* \"#utility.yul\":18603:18609   */\n      dup3\n        /* \"#utility.yul\":18599:18613   */\n      add\n        /* \"#utility.yul\":18592:18644   */\n      mstore\n        /* \"#utility.yul\":18581:18651   */\n      pop\n      jump\t// out\n        /* \"#utility.yul\":18657:18779   */\n    tag_259:\n        /* \"#utility.yul\":18730:18754   */\n      tag_443\n        /* \"#utility.yul\":18748:18753   */\n      dup2\n        /* \"#utility.yul\":18730:18754   */\n      tag_282\n      jump\t// in\n    tag_443:\n        /* \"#utility.yul\":18723:18728   */\n      dup2\n        /* \"#utility.yul\":18720:18755   */\n      eq\n        /* \"#utility.yul\":18710:18712   */\n      tag_444\n      jumpi\n        /* \"#utility.yul\":18769:18770   */\n      0x00\n        /* \"#utility.yul\":18766:18767   */\n      dup1\n        /* \"#utility.yul\":18759:18771   */\n      revert\n        /* \"#utility.yul\":18710:18712   */\n    tag_444:\n        /* \"#utility.yul\":18700:18779   */\n      pop\n      jump\t// out\n        /* \"#utility.yul\":18785:18907   */\n    tag_263:\n        /* \"#utility.yul\":18858:18882   */\n      tag_446\n        /* \"#utility.yul\":18876:18881   */\n      dup2\n        /* \"#utility.yul\":18858:18882   */\n      tag_366\n      jump\t// in\n    tag_446:\n        /* \"#utility.yul\":18851:18856   */\n      dup2\n        /* \"#utility.yul\":18848:18883   */\n      eq\n        /* \"#utility.yul\":18838:18840   */\n      tag_447\n      jumpi\n        /* \"#utility.yul\":18897:18898   */\n      0x00\n        /* \"#utility.yul\":18894:18895   */\n      dup1\n        /* \"#utility.yul\":18887:18899   */\n      revert\n        /* \"#utility.yul\":18838:18840   */\n    tag_447:\n        /* \"#utility.yul\":18828:18907   */\n      pop\n      jump\t// out\n\n    auxdata: 0xa264697066735822122040b3de67d5fc70aad358569453d197122f9480b92a7be199fd046530a8e7719264736f6c63430008010033\n}\n",
				"bytecode": {
					"linkReferences": {},
					"object": "608060405265e35fa931a00060055560056006553480156200002057600080fd5b5033600260006101000a81548173ffffffffffffffffffffffffffffffffffffffff021916908373ffffffffffffffffffffffffffffffffffffffff1602179055506040518060400160405280600b81526020017f4765656b20546f6b656e7300000000000000000000000000000000000000000081525060009080519060200190620000af92919062000104565b506040518060400160405280600581526020017f4745454b5400000000000000000000000000000000000000000000000000000081525060019080519060200190620000fd92919062000104565b5062000219565b8280546200011290620001b4565b90600052602060002090601f01602090048101928262000136576000855562000182565b82601f106200015157805160ff191683800117855562000182565b8280016001018555821562000182579182015b828111156200018157825182559160200191906001019062000164565b5b50905062000191919062000195565b5090565b5b80821115620001b057600081600090555060010162000196565b5090565b60006002820490506001821680620001cd57607f821691505b60208210811415620001e457620001e3620001ea565b5b50919050565b7f4e487b7100000000000000000000000000000000000000000000000000000000600052602260045260246000fd5b6127d580620002296000396000f3fe6080604052600436106100e85760003560e01c80636352211e1161008a578063a411d68d11610059578063a411d68d14610302578063a4964c331461032d578063c0f202ef14610356578063e6e95ea714610372576100e8565b80636352211e1461024157806367af7d091461027e57806370a08231146102a957806391b6be9a146102e6576100e8565b80631b03427c116100c65780631b03427c14610173578063406693b21461019c5780634cad2ffc146101d95780635547425714610204576100e8565b806302acc94b146100ed578063073e74df1461011d578063160035b114610148575b600080fd5b61010760048036038101906101029190611e8b565b61039b565b604051610114919061232c565b60405180910390f35b34801561012957600080fd5b50610132610762565b60405161013f91906121af565b60405180910390f35b34801561015457600080fd5b5061015d610955565b60405161016a919061232c565b60405180910390f35b34801561017f57600080fd5b5061019a60048036038101906101959190611e62565b61095f565b005b3480156101a857600080fd5b506101c360048036038101906101be9190611e62565b6109f9565b6040516101d091906121af565b60405180910390f35b3480156101e557600080fd5b506101ee610c1d565b6040516101fb91906121af565b60405180910390f35b34801561021057600080fd5b5061022b60048036038101906102269190611e62565b610e4f565b6040516102389190612311565b60405180910390f35b34801561024d57600080fd5b5061026860048036038101906102639190611e62565b610f72565b6040516102759190612194565b60405180910390f35b34801561028a57600080fd5b50610293610faf565b6040516102a091906121af565b60405180910390f35b3480156102b557600080fd5b506102d060048036038101906102cb9190611e39565b6111e1565b6040516102dd919061232c565b60405180910390f35b61030060048036038101906102fb9190611e62565b61122a565b005b34801561030e57600080fd5b50610317611799565b604051610324919061232c565b60405180910390f35b34801561033957600080fd5b50610354600480360381019061034f9190611e62565b6117a3565b005b610370600480360381019061036b9190611e62565b611a02565b005b34801561037e57600080fd5b5061039960048036038101906103949190611e62565b611d0d565b005b600060055434146103e1576040517f08c379a00000000000000000000000000000000000000000000000000000000081526004016103d8906122b1565b60405180910390fd5b60008411610424576040517f08c379a000000000000000000000000000000000000000000000000000000000815260040161041b906122f1565b60405180910390fd5b60006003805490509050600073ffffffffffffffffffffffffffffffffffffffff166008600083815260200190815260200160002060009054906101000a900473ffffffffffffffffffffffffffffffffffffffff1673ffffffffffffffffffffffffffffffffffffffff16146104d0576040517f08c379a00000000000000000000000000000000000000000000000000000000081526004016104c790612211565b60405180910390fd5b6003604051806080016040528085815260200183815260200187815260200160011515815250908060018154018082558091505060019003906000526020600020906004020160009091909190915060008201518160000155602082015181600101556040820151816002015560608201518160030160006101000a81548160ff0219169083151502179055505050336008600083815260200190815260200160002060006101000a81548173ffffffffffffffffffffffffffffffffffffffff021916908373ffffffffffffffffffffffffffffffffffffffff16021790555033600a600083815260200190815260200160002060006101000a81548173ffffffffffffffffffffffffffffffffffffffff021916908373ffffffffffffffffffffffffffffffffffffffff16021790555083600c600083815260200190815260200160002081905550600760003373ffffffffffffffffffffffffffffffffffffffff1673ffffffffffffffffffffffffffffffffffffffff16815260200190815260200160002060008154809291906001019190505550600960003373ffffffffffffffffffffffffffffffffffffffff1673ffffffffffffffffffffffffffffffffffffffff16815260200190815260200160002060008154809291906001019190505550600b600085815260200190815260200160002060008154809291906001019190505550600460008154809291906001019190505550600260009054906101000a900473ffffffffffffffffffffffffffffffffffffffff1673ffffffffffffffffffffffffffffffffffffffff166108fc349081150290604051600060405180830381858888f19350505050158015610756573d6000803e3d6000fd5b50809150509392505050565b606060008060045467ffffffffffffffff8111156107a9577f4e487b7100000000000000000000000000000000000000000000000000000000600052604160045260246000fd5b6040519080825280602002602001820160405280156107e257816020015b6107cf611de5565b8152602001906001900390816107c75790505b50905060005b60038054905081101561094c576001151560038281548110610833577f4e487b7100000000000000000000000000000000000000000000000000000000600052603260045260246000fd5b906000526020600020906004020160030160009054906101000a900460ff16151514156109395760038181548110610894577f4e487b7100000000000000000000000000000000000000000000000000000000600052603260045260246000fd5b90600052602060002090600402016040518060800160405290816000820154815260200160018201548152602001600282015481526020016003820160009054906101000a900460ff16151515158152505082848151811061091f577f4e487b7100000000000000000000000000000000000000000000000000000000600052603260045260246000fd5b6020026020010181905250828061093590612498565b9350505b808061094490612498565b9150506107e8565b50809250505090565b6000600654905090565b600260009054906101000a900473ffffffffffffffffffffffffffffffffffffffff1673ffffffffffffffffffffffffffffffffffffffff163373ffffffffffffffffffffffffffffffffffffffff16146109ef576040517f08c379a00000000000000000000000000000000000000000000000000000000081526004016109e6906122d1565b60405180910390fd5b8060068190555050565b6060600080600b60008581526020019081526020016000205467ffffffffffffffff811115610a51577f4e487b7100000000000000000000000000000000000000000000000000000000600052604160045260246000fd5b604051908082528060200260200182016040528015610a8a57816020015b610a77611de5565b815260200190600190039081610a6f5790505b50905060005b600380549050811015610c125784600c600083815260200190815260200160002054148015610b1b57506001151560038281548110610af8577f4e487b7100000000000000000000000000000000000000000000000000000000600052603260045260246000fd5b906000526020600020906004020160030160009054906101000a900460ff161515145b15610bff5760038181548110610b5a577f4e487b7100000000000000000000000000000000000000000000000000000000600052603260045260246000fd5b90600052602060002090600402016040518060800160405290816000820154815260200160018201548152602001600282015481526020016003820160009054906101000a900460ff161515151581525050828481518110610be5577f4e487b7100000000000000000000000000000000000000000000000000000000600052603260045260246000fd5b60200260200101819052508280610bfb90612498565b9350505b8080610c0a90612498565b915050610a90565b508092505050919050565b6060600080600760003373ffffffffffffffffffffffffffffffffffffffff1673ffffffffffffffffffffffffffffffffffffffff1681526020019081526020016000205467ffffffffffffffff811115610ca1577f4e487b7100000000000000000000000000000000000000000000000000000000600052604160045260246000fd5b604051908082528060200260200182016040528015610cda57816020015b610cc7611de5565b815260200190600190039081610cbf5790505b50905060005b600380549050811015610e46573373ffffffffffffffffffffffffffffffffffffffff166008600083815260200190815260200160002060009054906101000a900473ffffffffffffffffffffffffffffffffffffffff1673ffffffffffffffffffffffffffffffffffffffff161415610e335760038181548110610d8e577f4e487b7100000000000000000000000000000000000000000000000000000000600052603260045260246000fd5b90600052602060002090600402016040518060800160405290816000820154815260200160018201548152602001600282015481526020016003820160009054906101000a900460ff161515151581525050828481518110610e19577f4e487b7100000000000000000000000000000000000000000000000000000000600052603260045260246000fd5b60200260200101819052508280610e2f90612498565b9350505b8080610e3e90612498565b915050610ce0565b50809250505090565b610e57611de5565b610e5f611de5565b60005b600380549050811015610f68578360038281548110610eaa577f4e487b7100000000000000000000000000000000000000000000000000000000600052603260045260246000fd5b9060005260206000209060040201600001541415610f555760038181548110610efc577f4e487b7100000000000000000000000000000000000000000000000000000000600052603260045260246000fd5b90600052602060002090600402016040518060800160405290816000820154815260200160018201548152602001600282015481526020016003820160009054906101000a900460ff1615151515815250509150610f68565b8080610f6090612498565b915050610e62565b5080915050919050565b60006008600083815260200190815260200160002060009054906101000a900473ffffffffffffffffffffffffffffffffffffffff169050919050565b6060600080600960003373ffffffffffffffffffffffffffffffffffffffff1673ffffffffffffffffffffffffffffffffffffffff1681526020019081526020016000205467ffffffffffffffff811115611033577f4e487b7100000000000000000000000000000000000000000000000000000000600052604160045260246000fd5b60405190808252806020026020018201604052801561106c57816020015b611059611de5565b8152602001906001900390816110515790505b50905060005b6003805490508110156111d8573373ffffffffffffffffffffffffffffffffffffffff16600a600083815260200190815260200160002060009054906101000a900473ffffffffffffffffffffffffffffffffffffffff1673ffffffffffffffffffffffffffffffffffffffff1614156111c55760038181548110611120577f4e487b7100000000000000000000000000000000000000000000000000000000600052603260045260246000fd5b90600052602060002090600402016040518060800160405290816000820154815260200160018201548152602001600282015481526020016003820160009054906101000a900460ff1615151515815250508284815181106111ab577f4e487b7100000000000000000000000000000000000000000000000000000000600052603260045260246000fd5b602002602001018190525082806111c190612498565b9350505b80806111d090612498565b915050611072565b50809250505090565b6000600760008373ffffffffffffffffffffffffffffffffffffffff1673ffffffffffffffffffffffffffffffffffffffff168152602001908152602001600020549050919050565b60038181548110611264577f4e487b7100000000000000000000000000000000000000000000000000000000600052603260045260246000fd5b90600052602060002090600402016002015434146112b7576040517f08c379a00000000000000000000000000000000000000000000000000000000081526004016112ae90612231565b60405180910390fd5b600073ffffffffffffffffffffffffffffffffffffffff166008600083815260200190815260200160002060009054906101000a900473ffffffffffffffffffffffffffffffffffffffff1673ffffffffffffffffffffffffffffffffffffffff16141561135a576040517f08c379a000000000000000000000000000000000000000000000000000000000815260040161135190612251565b60405180910390fd5b3373ffffffffffffffffffffffffffffffffffffffff166008600083815260200190815260200160002060009054906101000a900473ffffffffffffffffffffffffffffffffffffffff1673ffffffffffffffffffffffffffffffffffffffff1614156113fc576040517f08c379a00000000000000000000000000000000000000000000000000000000081526004016113f3906121d1565b60405180910390fd5b60006008600083815260200190815260200160002060009054906101000a900473ffffffffffffffffffffffffffffffffffffffff169050600060038381548110611470577f4e487b7100000000000000000000000000000000000000000000000000000000600052603260045260246000fd5b9060005260206000209060040201905060008160030160006101000a81548160ff021916908315150217905550336008600085815260200190815260200160002060006101000a81548173ffffffffffffffffffffffffffffffffffffffff021916908373ffffffffffffffffffffffffffffffffffffffff160217905550600760008373ffffffffffffffffffffffffffffffffffffffff1673ffffffffffffffffffffffffffffffffffffffff1681526020019081526020016000206000815480929190600190039190505550600760003373ffffffffffffffffffffffffffffffffffffffff1673ffffffffffffffffffffffffffffffffffffffff16815260200190815260200160002060008154809291906001019190505550600460008154809291906001900391905055508173ffffffffffffffffffffffffffffffffffffffff16600a600085815260200190815260200160002060009054906101000a900473ffffffffffffffffffffffffffffffffffffffff1673ffffffffffffffffffffffffffffffffffffffff161415611654578173ffffffffffffffffffffffffffffffffffffffff166108fc349081150290604051600060405180830381858888f1935050505015801561164e573d6000803e3d6000fd5b5061172f565b60008061166334600654611da7565b8092508193505050600a600086815260200190815260200160002060009054906101000a900473ffffffffffffffffffffffffffffffffffffffff1673ffffffffffffffffffffffffffffffffffffffff166108fc839081150290604051600060405180830381858888f193505050501580156116e4573d6000803e3d6000fd5b508373ffffffffffffffffffffffffffffffffffffffff166108fc829081150290604051600060405180830381858888f1935050505015801561172b573d6000803e3d6000fd5b5050505b3373ffffffffffffffffffffffffffffffffffffffff168273ffffffffffffffffffffffffffffffffffffffff167fddf252ad1be2c89b69c2b068fc378daa952ba7f163c4a11628f55a4df523b3ef8560405161178c919061232c565b60405180910390a3505050565b6000600554905090565b803373ffffffffffffffffffffffffffffffffffffffff166008600083815260200190815260200160002060009054906101000a900473ffffffffffffffffffffffffffffffffffffffff1673ffffffffffffffffffffffffffffffffffffffff1614611845576040517f08c379a000000000000000000000000000000000000000000000000000000000815260040161183c90612271565b60405180910390fd5b600073ffffffffffffffffffffffffffffffffffffffff166008600084815260200190815260200160002060009054906101000a900473ffffffffffffffffffffffffffffffffffffffff1673ffffffffffffffffffffffffffffffffffffffff1614156118e8576040517f08c379a00000000000000000000000000000000000000000000000000000000081526004016118df90612251565b60405180910390fd5b6001151560038381548110611926577f4e487b7100000000000000000000000000000000000000000000000000000000600052603260045260246000fd5b906000526020600020906004020160030160009054906101000a900460ff16151514611987576040517f08c379a000000000000000000000000000000000000000000000000000000000815260040161197e906121f1565b60405180910390fd5b6000600383815481106119c3577f4e487b7100000000000000000000000000000000000000000000000000000000600052603260045260246000fd5b906000526020600020906004020160030160006101000a81548160ff021916908315150217905550600460008154809291906001900391905055505050565b6005543414611a46576040517f08c379a0000000000000000000000000000000000000000000000000000000008152600401611a3d906122b1565b60405180910390fd5b803373ffffffffffffffffffffffffffffffffffffffff166008600083815260200190815260200160002060009054906101000a900473ffffffffffffffffffffffffffffffffffffffff1673ffffffffffffffffffffffffffffffffffffffff1614611ae8576040517f08c379a0000000000000000000000000000000000000000000000000000000008152600401611adf90612271565b60405180910390fd5b600073ffffffffffffffffffffffffffffffffffffffff166008600084815260200190815260200160002060009054906101000a900473ffffffffffffffffffffffffffffffffffffffff1673ffffffffffffffffffffffffffffffffffffffff161415611b8b576040517f08c379a0000000000000000000000000000000000000000000000000000000008152600401611b8290612251565b60405180910390fd5b6000151560038381548110611bc9577f4e487b7100000000000000000000000000000000000000000000000000000000600052603260045260246000fd5b906000526020600020906004020160030160009054906101000a900460ff16151514611c2a576040517f08c379a0000000000000000000000000000000000000000000000000000000008152600401611c2190612291565b60405180910390fd5b600160038381548110611c66577f4e487b7100000000000000000000000000000000000000000000000000000000600052603260045260246000fd5b906000526020600020906004020160030160006101000a81548160ff021916908315150217905550600460008154809291906001019190505550600260009054906101000a900473ffffffffffffffffffffffffffffffffffffffff1673ffffffffffffffffffffffffffffffffffffffff166108fc349081150290604051600060405180830381858888f19350505050158015611d08573d6000803e3d6000fd5b505050565b600260009054906101000a900473ffffffffffffffffffffffffffffffffffffffff1673ffffffffffffffffffffffffffffffffffffffff163373ffffffffffffffffffffffffffffffffffffffff1614611d9d576040517f08c379a0000000000000000000000000000000000000000000000000000000008152600401611d94906122d1565b60405180910390fd5b8060058190555050565b600080600060648585611dba91906123c2565b611dc49190612391565b905060008186611dd4919061241c565b905081819350935050509250929050565b60405180608001604052806000815260200160008152602001600081526020016000151581525090565b600081359050611e1e81612771565b92915050565b600081359050611e3381612788565b92915050565b600060208284031215611e4b57600080fd5b6000611e5984828501611e0f565b91505092915050565b600060208284031215611e7457600080fd5b6000611e8284828501611e24565b91505092915050565b600080600060608486031215611ea057600080fd5b6000611eae86828701611e24565b9350506020611ebf86828701611e24565b9250506040611ed086828701611e24565b9150509250925092565b6000611ee683836120cc565b60808301905092915050565b611efb81612450565b82525050565b6000611f0c82612357565b611f16818561236f565b9350611f2183612347565b8060005b83811015611f52578151611f398882611eda565b9750611f4483612362565b925050600181019050611f25565b5085935050505092915050565b611f6881612462565b82525050565b6000611f7b602983612380565b9150611f868261253f565b604082019050919050565b6000611f9e601383612380565b9150611fa98261258e565b602082019050919050565b6000611fc1601383612380565b9150611fcc826125b7565b602082019050919050565b6000611fe4603583612380565b9150611fef826125e0565b604082019050919050565b6000612007601383612380565b91506120128261262f565b602082019050919050565b600061202a601d83612380565b915061203582612658565b602082019050919050565b600061204d601883612380565b915061205882612681565b602082019050919050565b6000612070602183612380565b915061207b826126aa565b604082019050919050565b6000612093602183612380565b915061209e826126f9565b604082019050919050565b60006120b6601a83612380565b91506120c182612748565b602082019050919050565b6080820160008201516120e26000850182612176565b5060208201516120f56020850182612176565b5060408201516121086040850182612176565b50606082015161211b6060850182611f5f565b50505050565b6080820160008201516121376000850182612176565b50602082015161214a6020850182612176565b50604082015161215d6040850182612176565b5060608201516121706060850182611f5f565b50505050565b61217f8161248e565b82525050565b61218e8161248e565b82525050565b60006020820190506121a96000830184611ef2565b92915050565b600060208201905081810360008301526121c98184611f01565b905092915050565b600060208201905081810360008301526121ea81611f6e565b9050919050565b6000602082019050818103600083015261220a81611f91565b9050919050565b6000602082019050818103600083015261222a81611fb4565b9050919050565b6000602082019050818103600083015261224a81611fd7565b9050919050565b6000602082019050818103600083015261226a81611ffa565b9050919050565b6000602082019050818103600083015261228a8161201d565b9050919050565b600060208201905081810360008301526122aa81612040565b9050919050565b600060208201905081810360008301526122ca81612063565b9050919050565b600060208201905081810360008301526122ea81612086565b9050919050565b6000602082019050818103600083015261230a816120a9565b9050919050565b60006080820190506123266000830184612121565b92915050565b60006020820190506123416000830184612185565b92915050565b6000819050602082019050919050565b600081519050919050565b6000602082019050919050565b600082825260208201905092915050565b600082825260208201905092915050565b600061239c8261248e565b91506123a78361248e565b9250826123b7576123b6612510565b5b828204905092915050565b60006123cd8261248e565b91506123d88361248e565b9250817fffffffffffffffffffffffffffffffffffffffffffffffffffffffffffffffff0483118215151615612411576124106124e1565b5b828202905092915050565b60006124278261248e565b91506124328361248e565b925082821015612445576124446124e1565b5b828203905092915050565b600061245b8261246e565b9050919050565b60008115159050919050565b600073ffffffffffffffffffffffffffffffffffffffff82169050919050565b6000819050919050565b60006124a38261248e565b91507fffffffffffffffffffffffffffffffffffffffffffffffffffffffffffffffff8214156124d6576124d56124e1565b5b600182019050919050565b7f4e487b7100000000000000000000000000000000000000000000000000000000600052601160045260246000fd5b7f4e487b7100000000000000000000000000000000000000000000000000000000600052601260045260246000fd5b7f796f752063616e27742062757920616e206974656d20746861742062656c6f6e60008201527f677320746f20796f750000000000000000000000000000000000000000000000602082015250565b7f746f6b656e2069736e277420746f2073656c6c00000000000000000000000000600082015250565b7f746f6b656e20616c726561647920657869737400000000000000000000000000600082015250565b7f7472616e73616374696f6e27732076616c75652063616e6e6f7420626520646960008201527f66666572656e74206f66206974656d2070726963650000000000000000000000602082015250565b7f746f6b656e20646f65736e277420657869737400000000000000000000000000600082015250565b7f4f6e6c79206974656d2773206f776e65722063616e20646f2074686174000000600082015250565b7f746f6b656e20697320616c726561647920746f2073656c6c0000000000000000600082015250565b7f5468616e6b7320746f2073656e6420636f727265637420666565732076616c7560008201527f6500000000000000000000000000000000000000000000000000000000000000602082015250565b7f4f6e6c7920636f6e74726163742773206f776e65722063616e20646f2074686160008201527f7400000000000000000000000000000000000000000000000000000000000000602082015250565b7f50726963652063616e6e6f7420626520657175616c20746f2030000000000000600082015250565b61277a81612450565b811461278557600080fd5b50565b6127918161248e565b811461279c57600080fd5b5056fea264697066735822122040b3de67d5fc70aad358569453d197122f9480b92a7be199fd046530a8e7719264736f6c63430008010033",
					"opcodes": "PUSH1 0x80 PUSH1 0x40 MSTORE PUSH6 0xE35FA931A000 PUSH1 0x5 SSTORE PUSH1 0x5 PUSH1 0x6 SSTORE CALLVALUE DUP1 ISZERO PUSH3 0x20 JUMPI PUSH1 0x0 DUP1 REVERT JUMPDEST POP CALLER PUSH1 0x2 PUSH1 0x0 PUSH2 0x100 EXP DUP2 SLOAD DUP2 PUSH20 0xFFFFFFFFFFFFFFFFFFFFFFFFFFFFFFFFFFFFFFFF MUL NOT AND SWAP1 DUP4 PUSH20 0xFFFFFFFFFFFFFFFFFFFFFFFFFFFFFFFFFFFFFFFF AND MUL OR SWAP1 SSTORE POP PUSH1 0x40 MLOAD DUP1 PUSH1 0x40 ADD PUSH1 0x40 MSTORE DUP1 PUSH1 0xB DUP2 MSTORE PUSH1 0x20 ADD PUSH32 0x4765656B20546F6B656E73000000000000000000000000000000000000000000 DUP2 MSTORE POP PUSH1 0x0 SWAP1 DUP1 MLOAD SWAP1 PUSH1 0x20 ADD SWAP1 PUSH3 0xAF SWAP3 SWAP2 SWAP1 PUSH3 0x104 JUMP JUMPDEST POP PUSH1 0x40 MLOAD DUP1 PUSH1 0x40 ADD PUSH1 0x40 MSTORE DUP1 PUSH1 0x5 DUP2 MSTORE PUSH1 0x20 ADD PUSH32 0x4745454B54000000000000000000000000000000000000000000000000000000 DUP2 MSTORE POP PUSH1 0x1 SWAP1 DUP1 MLOAD SWAP1 PUSH1 0x20 ADD SWAP1 PUSH3 0xFD SWAP3 SWAP2 SWAP1 PUSH3 0x104 JUMP JUMPDEST POP PUSH3 0x219 JUMP JUMPDEST DUP3 DUP1 SLOAD PUSH3 0x112 SWAP1 PUSH3 0x1B4 JUMP JUMPDEST SWAP1 PUSH1 0x0 MSTORE PUSH1 0x20 PUSH1 0x0 KECCAK256 SWAP1 PUSH1 0x1F ADD PUSH1 0x20 SWAP1 DIV DUP2 ADD SWAP3 DUP3 PUSH3 0x136 JUMPI PUSH1 0x0 DUP6 SSTORE PUSH3 0x182 JUMP JUMPDEST DUP3 PUSH1 0x1F LT PUSH3 0x151 JUMPI DUP1 MLOAD PUSH1 0xFF NOT AND DUP4 DUP1 ADD OR DUP6 SSTORE PUSH3 0x182 JUMP JUMPDEST DUP3 DUP1 ADD PUSH1 0x1 ADD DUP6 SSTORE DUP3 ISZERO PUSH3 0x182 JUMPI SWAP2 DUP3 ADD JUMPDEST DUP3 DUP2 GT ISZERO PUSH3 0x181 JUMPI DUP3 MLOAD DUP3 SSTORE SWAP2 PUSH1 0x20 ADD SWAP2 SWAP1 PUSH1 0x1 ADD SWAP1 PUSH3 0x164 JUMP JUMPDEST JUMPDEST POP SWAP1 POP PUSH3 0x191 SWAP2 SWAP1 PUSH3 0x195 JUMP JUMPDEST POP SWAP1 JUMP JUMPDEST JUMPDEST DUP1 DUP3 GT ISZERO PUSH3 0x1B0 JUMPI PUSH1 0x0 DUP2 PUSH1 0x0 SWAP1 SSTORE POP PUSH1 0x1 ADD PUSH3 0x196 JUMP JUMPDEST POP SWAP1 JUMP JUMPDEST PUSH1 0x0 PUSH1 0x2 DUP3 DIV SWAP1 POP PUSH1 0x1 DUP3 AND DUP1 PUSH3 0x1CD JUMPI PUSH1 0x7F DUP3 AND SWAP2 POP JUMPDEST PUSH1 0x20 DUP3 LT DUP2 EQ ISZERO PUSH3 0x1E4 JUMPI PUSH3 0x1E3 PUSH3 0x1EA JUMP JUMPDEST JUMPDEST POP SWAP2 SWAP1 POP JUMP JUMPDEST PUSH32 0x4E487B7100000000000000000000000000000000000000000000000000000000 PUSH1 0x0 MSTORE PUSH1 0x22 PUSH1 0x4 MSTORE PUSH1 0x24 PUSH1 0x0 REVERT JUMPDEST PUSH2 0x27D5 DUP1 PUSH3 0x229 PUSH1 0x0 CODECOPY PUSH1 0x0 RETURN INVALID PUSH1 0x80 PUSH1 0x40 MSTORE PUSH1 0x4 CALLDATASIZE LT PUSH2 0xE8 JUMPI PUSH1 0x0 CALLDATALOAD PUSH1 0xE0 SHR DUP1 PUSH4 0x6352211E GT PUSH2 0x8A JUMPI DUP1 PUSH4 0xA411D68D GT PUSH2 0x59 JUMPI DUP1 PUSH4 0xA411D68D EQ PUSH2 0x302 JUMPI DUP1 PUSH4 0xA4964C33 EQ PUSH2 0x32D JUMPI DUP1 PUSH4 0xC0F202EF EQ PUSH2 0x356 JUMPI DUP1 PUSH4 0xE6E95EA7 EQ PUSH2 0x372 JUMPI PUSH2 0xE8 JUMP JUMPDEST DUP1 PUSH4 0x6352211E EQ PUSH2 0x241 JUMPI DUP1 PUSH4 0x67AF7D09 EQ PUSH2 0x27E JUMPI DUP1 PUSH4 0x70A08231 EQ PUSH2 0x2A9 JUMPI DUP1 PUSH4 0x91B6BE9A EQ PUSH2 0x2E6 JUMPI PUSH2 0xE8 JUMP JUMPDEST DUP1 PUSH4 0x1B03427C GT PUSH2 0xC6 JUMPI DUP1 PUSH4 0x1B03427C EQ PUSH2 0x173 JUMPI DUP1 PUSH4 0x406693B2 EQ PUSH2 0x19C JUMPI DUP1 PUSH4 0x4CAD2FFC EQ PUSH2 0x1D9 JUMPI DUP1 PUSH4 0x55474257 EQ PUSH2 0x204 JUMPI PUSH2 0xE8 JUMP JUMPDEST DUP1 PUSH4 0x2ACC94B EQ PUSH2 0xED JUMPI DUP1 PUSH4 0x73E74DF EQ PUSH2 0x11D JUMPI DUP1 PUSH4 0x160035B1 EQ PUSH2 0x148 JUMPI JUMPDEST PUSH1 0x0 DUP1 REVERT JUMPDEST PUSH2 0x107 PUSH1 0x4 DUP1 CALLDATASIZE SUB DUP2 ADD SWAP1 PUSH2 0x102 SWAP2 SWAP1 PUSH2 0x1E8B JUMP JUMPDEST PUSH2 0x39B JUMP JUMPDEST PUSH1 0x40 MLOAD PUSH2 0x114 SWAP2 SWAP1 PUSH2 0x232C JUMP JUMPDEST PUSH1 0x40 MLOAD DUP1 SWAP2 SUB SWAP1 RETURN JUMPDEST CALLVALUE DUP1 ISZERO PUSH2 0x129 JUMPI PUSH1 0x0 DUP1 REVERT JUMPDEST POP PUSH2 0x132 PUSH2 0x762 JUMP JUMPDEST PUSH1 0x40 MLOAD PUSH2 0x13F SWAP2 SWAP1 PUSH2 0x21AF JUMP JUMPDEST PUSH1 0x40 MLOAD DUP1 SWAP2 SUB SWAP1 RETURN JUMPDEST CALLVALUE DUP1 ISZERO PUSH2 0x154 JUMPI PUSH1 0x0 DUP1 REVERT JUMPDEST POP PUSH2 0x15D PUSH2 0x955 JUMP JUMPDEST PUSH1 0x40 MLOAD PUSH2 0x16A SWAP2 SWAP1 PUSH2 0x232C JUMP JUMPDEST PUSH1 0x40 MLOAD DUP1 SWAP2 SUB SWAP1 RETURN JUMPDEST CALLVALUE DUP1 ISZERO PUSH2 0x17F JUMPI PUSH1 0x0 DUP1 REVERT JUMPDEST POP PUSH2 0x19A PUSH1 0x4 DUP1 CALLDATASIZE SUB DUP2 ADD SWAP1 PUSH2 0x195 SWAP2 SWAP1 PUSH2 0x1E62 JUMP JUMPDEST PUSH2 0x95F JUMP JUMPDEST STOP JUMPDEST CALLVALUE DUP1 ISZERO PUSH2 0x1A8 JUMPI PUSH1 0x0 DUP1 REVERT JUMPDEST POP PUSH2 0x1C3 PUSH1 0x4 DUP1 CALLDATASIZE SUB DUP2 ADD SWAP1 PUSH2 0x1BE SWAP2 SWAP1 PUSH2 0x1E62 JUMP JUMPDEST PUSH2 0x9F9 JUMP JUMPDEST PUSH1 0x40 MLOAD PUSH2 0x1D0 SWAP2 SWAP1 PUSH2 0x21AF JUMP JUMPDEST PUSH1 0x40 MLOAD DUP1 SWAP2 SUB SWAP1 RETURN JUMPDEST CALLVALUE DUP1 ISZERO PUSH2 0x1E5 JUMPI PUSH1 0x0 DUP1 REVERT JUMPDEST POP PUSH2 0x1EE PUSH2 0xC1D JUMP JUMPDEST PUSH1 0x40 MLOAD PUSH2 0x1FB SWAP2 SWAP1 PUSH2 0x21AF JUMP JUMPDEST PUSH1 0x40 MLOAD DUP1 SWAP2 SUB SWAP1 RETURN JUMPDEST CALLVALUE DUP1 ISZERO PUSH2 0x210 JUMPI PUSH1 0x0 DUP1 REVERT JUMPDEST POP PUSH2 0x22B PUSH1 0x4 DUP1 CALLDATASIZE SUB DUP2 ADD SWAP1 PUSH2 0x226 SWAP2 SWAP1 PUSH2 0x1E62 JUMP JUMPDEST PUSH2 0xE4F JUMP JUMPDEST PUSH1 0x40 MLOAD PUSH2 0x238 SWAP2 SWAP1 PUSH2 0x2311 JUMP JUMPDEST PUSH1 0x40 MLOAD DUP1 SWAP2 SUB SWAP1 RETURN JUMPDEST CALLVALUE DUP1 ISZERO PUSH2 0x24D JUMPI PUSH1 0x0 DUP1 REVERT JUMPDEST POP PUSH2 0x268 PUSH1 0x4 DUP1 CALLDATASIZE SUB DUP2 ADD SWAP1 PUSH2 0x263 SWAP2 SWAP1 PUSH2 0x1E62 JUMP JUMPDEST PUSH2 0xF72 JUMP JUMPDEST PUSH1 0x40 MLOAD PUSH2 0x275 SWAP2 SWAP1 PUSH2 0x2194 JUMP JUMPDEST PUSH1 0x40 MLOAD DUP1 SWAP2 SUB SWAP1 RETURN JUMPDEST CALLVALUE DUP1 ISZERO PUSH2 0x28A JUMPI PUSH1 0x0 DUP1 REVERT JUMPDEST POP PUSH2 0x293 PUSH2 0xFAF JUMP JUMPDEST PUSH1 0x40 MLOAD PUSH2 0x2A0 SWAP2 SWAP1 PUSH2 0x21AF JUMP JUMPDEST PUSH1 0x40 MLOAD DUP1 SWAP2 SUB SWAP1 RETURN JUMPDEST CALLVALUE DUP1 ISZERO PUSH2 0x2B5 JUMPI PUSH1 0x0 DUP1 REVERT JUMPDEST POP PUSH2 0x2D0 PUSH1 0x4 DUP1 CALLDATASIZE SUB DUP2 ADD SWAP1 PUSH2 0x2CB SWAP2 SWAP1 PUSH2 0x1E39 JUMP JUMPDEST PUSH2 0x11E1 JUMP JUMPDEST PUSH1 0x40 MLOAD PUSH2 0x2DD SWAP2 SWAP1 PUSH2 0x232C JUMP JUMPDEST PUSH1 0x40 MLOAD DUP1 SWAP2 SUB SWAP1 RETURN JUMPDEST PUSH2 0x300 PUSH1 0x4 DUP1 CALLDATASIZE SUB DUP2 ADD SWAP1 PUSH2 0x2FB SWAP2 SWAP1 PUSH2 0x1E62 JUMP JUMPDEST PUSH2 0x122A JUMP JUMPDEST STOP JUMPDEST CALLVALUE DUP1 ISZERO PUSH2 0x30E JUMPI PUSH1 0x0 DUP1 REVERT JUMPDEST POP PUSH2 0x317 PUSH2 0x1799 JUMP JUMPDEST PUSH1 0x40 MLOAD PUSH2 0x324 SWAP2 SWAP1 PUSH2 0x232C JUMP JUMPDEST PUSH1 0x40 MLOAD DUP1 SWAP2 SUB SWAP1 RETURN JUMPDEST CALLVALUE DUP1 ISZERO PUSH2 0x339 JUMPI PUSH1 0x0 DUP1 REVERT JUMPDEST POP PUSH2 0x354 PUSH1 0x4 DUP1 CALLDATASIZE SUB DUP2 ADD SWAP1 PUSH2 0x34F SWAP2 SWAP1 PUSH2 0x1E62 JUMP JUMPDEST PUSH2 0x17A3 JUMP JUMPDEST STOP JUMPDEST PUSH2 0x370 PUSH1 0x4 DUP1 CALLDATASIZE SUB DUP2 ADD SWAP1 PUSH2 0x36B SWAP2 SWAP1 PUSH2 0x1E62 JUMP JUMPDEST PUSH2 0x1A02 JUMP JUMPDEST STOP JUMPDEST CALLVALUE DUP1 ISZERO PUSH2 0x37E JUMPI PUSH1 0x0 DUP1 REVERT JUMPDEST POP PUSH2 0x399 PUSH1 0x4 DUP1 CALLDATASIZE SUB DUP2 ADD SWAP1 PUSH2 0x394 SWAP2 SWAP1 PUSH2 0x1E62 JUMP JUMPDEST PUSH2 0x1D0D JUMP JUMPDEST STOP JUMPDEST PUSH1 0x0 PUSH1 0x5 SLOAD CALLVALUE EQ PUSH2 0x3E1 JUMPI PUSH1 0x40 MLOAD PUSH32 0x8C379A000000000000000000000000000000000000000000000000000000000 DUP2 MSTORE PUSH1 0x4 ADD PUSH2 0x3D8 SWAP1 PUSH2 0x22B1 JUMP JUMPDEST PUSH1 0x40 MLOAD DUP1 SWAP2 SUB SWAP1 REVERT JUMPDEST PUSH1 0x0 DUP5 GT PUSH2 0x424 JUMPI PUSH1 0x40 MLOAD PUSH32 0x8C379A000000000000000000000000000000000000000000000000000000000 DUP2 MSTORE PUSH1 0x4 ADD PUSH2 0x41B SWAP1 PUSH2 0x22F1 JUMP JUMPDEST PUSH1 0x40 MLOAD DUP1 SWAP2 SUB SWAP1 REVERT JUMPDEST PUSH1 0x0 PUSH1 0x3 DUP1 SLOAD SWAP1 POP SWAP1 POP PUSH1 0x0 PUSH20 0xFFFFFFFFFFFFFFFFFFFFFFFFFFFFFFFFFFFFFFFF AND PUSH1 0x8 PUSH1 0x0 DUP4 DUP2 MSTORE PUSH1 0x20 ADD SWAP1 DUP2 MSTORE PUSH1 0x20 ADD PUSH1 0x0 KECCAK256 PUSH1 0x0 SWAP1 SLOAD SWAP1 PUSH2 0x100 EXP SWAP1 DIV PUSH20 0xFFFFFFFFFFFFFFFFFFFFFFFFFFFFFFFFFFFFFFFF AND PUSH20 0xFFFFFFFFFFFFFFFFFFFFFFFFFFFFFFFFFFFFFFFF AND EQ PUSH2 0x4D0 JUMPI PUSH1 0x40 MLOAD PUSH32 0x8C379A000000000000000000000000000000000000000000000000000000000 DUP2 MSTORE PUSH1 0x4 ADD PUSH2 0x4C7 SWAP1 PUSH2 0x2211 JUMP JUMPDEST PUSH1 0x40 MLOAD DUP1 SWAP2 SUB SWAP1 REVERT JUMPDEST PUSH1 0x3 PUSH1 0x40 MLOAD DUP1 PUSH1 0x80 ADD PUSH1 0x40 MSTORE DUP1 DUP6 DUP2 MSTORE PUSH1 0x20 ADD DUP4 DUP2 MSTORE PUSH1 0x20 ADD DUP8 DUP2 MSTORE PUSH1 0x20 ADD PUSH1 0x1 ISZERO ISZERO DUP2 MSTORE POP SWAP1 DUP1 PUSH1 0x1 DUP2 SLOAD ADD DUP1 DUP3 SSTORE DUP1 SWAP2 POP POP PUSH1 0x1 SWAP1 SUB SWAP1 PUSH1 0x0 MSTORE PUSH1 0x20 PUSH1 0x0 KECCAK256 SWAP1 PUSH1 0x4 MUL ADD PUSH1 0x0 SWAP1 SWAP2 SWAP1 SWAP2 SWAP1 SWAP2 POP PUSH1 0x0 DUP3 ADD MLOAD DUP2 PUSH1 0x0 ADD SSTORE PUSH1 0x20 DUP3 ADD MLOAD DUP2 PUSH1 0x1 ADD SSTORE PUSH1 0x40 DUP3 ADD MLOAD DUP2 PUSH1 0x2 ADD SSTORE PUSH1 0x60 DUP3 ADD MLOAD DUP2 PUSH1 0x3 ADD PUSH1 0x0 PUSH2 0x100 EXP DUP2 SLOAD DUP2 PUSH1 0xFF MUL NOT AND SWAP1 DUP4 ISZERO ISZERO MUL OR SWAP1 SSTORE POP POP POP CALLER PUSH1 0x8 PUSH1 0x0 DUP4 DUP2 MSTORE PUSH1 0x20 ADD SWAP1 DUP2 MSTORE PUSH1 0x20 ADD PUSH1 0x0 KECCAK256 PUSH1 0x0 PUSH2 0x100 EXP DUP2 SLOAD DUP2 PUSH20 0xFFFFFFFFFFFFFFFFFFFFFFFFFFFFFFFFFFFFFFFF MUL NOT AND SWAP1 DUP4 PUSH20 0xFFFFFFFFFFFFFFFFFFFFFFFFFFFFFFFFFFFFFFFF AND MUL OR SWAP1 SSTORE POP CALLER PUSH1 0xA PUSH1 0x0 DUP4 DUP2 MSTORE PUSH1 0x20 ADD SWAP1 DUP2 MSTORE PUSH1 0x20 ADD PUSH1 0x0 KECCAK256 PUSH1 0x0 PUSH2 0x100 EXP DUP2 SLOAD DUP2 PUSH20 0xFFFFFFFFFFFFFFFFFFFFFFFFFFFFFFFFFFFFFFFF MUL NOT AND SWAP1 DUP4 PUSH20 0xFFFFFFFFFFFFFFFFFFFFFFFFFFFFFFFFFFFFFFFF AND MUL OR SWAP1 SSTORE POP DUP4 PUSH1 0xC PUSH1 0x0 DUP4 DUP2 MSTORE PUSH1 0x20 ADD SWAP1 DUP2 MSTORE PUSH1 0x20 ADD PUSH1 0x0 KECCAK256 DUP2 SWAP1 SSTORE POP PUSH1 0x7 PUSH1 0x0 CALLER PUSH20 0xFFFFFFFFFFFFFFFFFFFFFFFFFFFFFFFFFFFFFFFF AND PUSH20 0xFFFFFFFFFFFFFFFFFFFFFFFFFFFFFFFFFFFFFFFF AND DUP2 MSTORE PUSH1 0x20 ADD SWAP1 DUP2 MSTORE PUSH1 0x20 ADD PUSH1 0x0 KECCAK256 PUSH1 0x0 DUP2 SLOAD DUP1 SWAP3 SWAP2 SWAP1 PUSH1 0x1 ADD SWAP2 SWAP1 POP SSTORE POP PUSH1 0x9 PUSH1 0x0 CALLER PUSH20 0xFFFFFFFFFFFFFFFFFFFFFFFFFFFFFFFFFFFFFFFF AND PUSH20 0xFFFFFFFFFFFFFFFFFFFFFFFFFFFFFFFFFFFFFFFF AND DUP2 MSTORE PUSH1 0x20 ADD SWAP1 DUP2 MSTORE PUSH1 0x20 ADD PUSH1 0x0 KECCAK256 PUSH1 0x0 DUP2 SLOAD DUP1 SWAP3 SWAP2 SWAP1 PUSH1 0x1 ADD SWAP2 SWAP1 POP SSTORE POP PUSH1 0xB PUSH1 0x0 DUP6 DUP2 MSTORE PUSH1 0x20 ADD SWAP1 DUP2 MSTORE PUSH1 0x20 ADD PUSH1 0x0 KECCAK256 PUSH1 0x0 DUP2 SLOAD DUP1 SWAP3 SWAP2 SWAP1 PUSH1 0x1 ADD SWAP2 SWAP1 POP SSTORE POP PUSH1 0x4 PUSH1 0x0 DUP2 SLOAD DUP1 SWAP3 SWAP2 SWAP1 PUSH1 0x1 ADD SWAP2 SWAP1 POP SSTORE POP PUSH1 0x2 PUSH1 0x0 SWAP1 SLOAD SWAP1 PUSH2 0x100 EXP SWAP1 DIV PUSH20 0xFFFFFFFFFFFFFFFFFFFFFFFFFFFFFFFFFFFFFFFF AND PUSH20 0xFFFFFFFFFFFFFFFFFFFFFFFFFFFFFFFFFFFFFFFF AND PUSH2 0x8FC CALLVALUE SWAP1 DUP2 ISZERO MUL SWAP1 PUSH1 0x40 MLOAD PUSH1 0x0 PUSH1 0x40 MLOAD DUP1 DUP4 SUB DUP2 DUP6 DUP9 DUP9 CALL SWAP4 POP POP POP POP ISZERO DUP1 ISZERO PUSH2 0x756 JUMPI RETURNDATASIZE PUSH1 0x0 DUP1 RETURNDATACOPY RETURNDATASIZE PUSH1 0x0 REVERT JUMPDEST POP DUP1 SWAP2 POP POP SWAP4 SWAP3 POP POP POP JUMP JUMPDEST PUSH1 0x60 PUSH1 0x0 DUP1 PUSH1 0x4 SLOAD PUSH8 0xFFFFFFFFFFFFFFFF DUP2 GT ISZERO PUSH2 0x7A9 JUMPI PUSH32 0x4E487B7100000000000000000000000000000000000000000000000000000000 PUSH1 0x0 MSTORE PUSH1 0x41 PUSH1 0x4 MSTORE PUSH1 0x24 PUSH1 0x0 REVERT JUMPDEST PUSH1 0x40 MLOAD SWAP1 DUP1 DUP3 MSTORE DUP1 PUSH1 0x20 MUL PUSH1 0x20 ADD DUP3 ADD PUSH1 0x40 MSTORE DUP1 ISZERO PUSH2 0x7E2 JUMPI DUP2 PUSH1 0x20 ADD JUMPDEST PUSH2 0x7CF PUSH2 0x1DE5 JUMP JUMPDEST DUP2 MSTORE PUSH1 0x20 ADD SWAP1 PUSH1 0x1 SWAP1 SUB SWAP1 DUP2 PUSH2 0x7C7 JUMPI SWAP1 POP JUMPDEST POP SWAP1 POP PUSH1 0x0 JUMPDEST PUSH1 0x3 DUP1 SLOAD SWAP1 POP DUP2 LT ISZERO PUSH2 0x94C JUMPI PUSH1 0x1 ISZERO ISZERO PUSH1 0x3 DUP3 DUP2 SLOAD DUP2 LT PUSH2 0x833 JUMPI PUSH32 0x4E487B7100000000000000000000000000000000000000000000000000000000 PUSH1 0x0 MSTORE PUSH1 0x32 PUSH1 0x4 MSTORE PUSH1 0x24 PUSH1 0x0 REVERT JUMPDEST SWAP1 PUSH1 0x0 MSTORE PUSH1 0x20 PUSH1 0x0 KECCAK256 SWAP1 PUSH1 0x4 MUL ADD PUSH1 0x3 ADD PUSH1 0x0 SWAP1 SLOAD SWAP1 PUSH2 0x100 EXP SWAP1 DIV PUSH1 0xFF AND ISZERO ISZERO EQ ISZERO PUSH2 0x939 JUMPI PUSH1 0x3 DUP2 DUP2 SLOAD DUP2 LT PUSH2 0x894 JUMPI PUSH32 0x4E487B7100000000000000000000000000000000000000000000000000000000 PUSH1 0x0 MSTORE PUSH1 0x32 PUSH1 0x4 MSTORE PUSH1 0x24 PUSH1 0x0 REVERT JUMPDEST SWAP1 PUSH1 0x0 MSTORE PUSH1 0x20 PUSH1 0x0 KECCAK256 SWAP1 PUSH1 0x4 MUL ADD PUSH1 0x40 MLOAD DUP1 PUSH1 0x80 ADD PUSH1 0x40 MSTORE SWAP1 DUP2 PUSH1 0x0 DUP3 ADD SLOAD DUP2 MSTORE PUSH1 0x20 ADD PUSH1 0x1 DUP3 ADD SLOAD DUP2 MSTORE PUSH1 0x20 ADD PUSH1 0x2 DUP3 ADD SLOAD DUP2 MSTORE PUSH1 0x20 ADD PUSH1 0x3 DUP3 ADD PUSH1 0x0 SWAP1 SLOAD SWAP1 PUSH2 0x100 EXP SWAP1 DIV PUSH1 0xFF AND ISZERO ISZERO ISZERO ISZERO DUP2 MSTORE POP POP DUP3 DUP5 DUP2 MLOAD DUP2 LT PUSH2 0x91F JUMPI PUSH32 0x4E487B7100000000000000000000000000000000000000000000000000000000 PUSH1 0x0 MSTORE PUSH1 0x32 PUSH1 0x4 MSTORE PUSH1 0x24 PUSH1 0x0 REVERT JUMPDEST PUSH1 0x20 MUL PUSH1 0x20 ADD ADD DUP2 SWAP1 MSTORE POP DUP3 DUP1 PUSH2 0x935 SWAP1 PUSH2 0x2498 JUMP JUMPDEST SWAP4 POP POP JUMPDEST DUP1 DUP1 PUSH2 0x944 SWAP1 PUSH2 0x2498 JUMP JUMPDEST SWAP2 POP POP PUSH2 0x7E8 JUMP JUMPDEST POP DUP1 SWAP3 POP POP POP SWAP1 JUMP JUMPDEST PUSH1 0x0 PUSH1 0x6 SLOAD SWAP1 POP SWAP1 JUMP JUMPDEST PUSH1 0x2 PUSH1 0x0 SWAP1 SLOAD SWAP1 PUSH2 0x100 EXP SWAP1 DIV PUSH20 0xFFFFFFFFFFFFFFFFFFFFFFFFFFFFFFFFFFFFFFFF AND PUSH20 0xFFFFFFFFFFFFFFFFFFFFFFFFFFFFFFFFFFFFFFFF AND CALLER PUSH20 0xFFFFFFFFFFFFFFFFFFFFFFFFFFFFFFFFFFFFFFFF AND EQ PUSH2 0x9EF JUMPI PUSH1 0x40 MLOAD PUSH32 0x8C379A000000000000000000000000000000000000000000000000000000000 DUP2 MSTORE PUSH1 0x4 ADD PUSH2 0x9E6 SWAP1 PUSH2 0x22D1 JUMP JUMPDEST PUSH1 0x40 MLOAD DUP1 SWAP2 SUB SWAP1 REVERT JUMPDEST DUP1 PUSH1 0x6 DUP2 SWAP1 SSTORE POP POP JUMP JUMPDEST PUSH1 0x60 PUSH1 0x0 DUP1 PUSH1 0xB PUSH1 0x0 DUP6 DUP2 MSTORE PUSH1 0x20 ADD SWAP1 DUP2 MSTORE PUSH1 0x20 ADD PUSH1 0x0 KECCAK256 SLOAD PUSH8 0xFFFFFFFFFFFFFFFF DUP2 GT ISZERO PUSH2 0xA51 JUMPI PUSH32 0x4E487B7100000000000000000000000000000000000000000000000000000000 PUSH1 0x0 MSTORE PUSH1 0x41 PUSH1 0x4 MSTORE PUSH1 0x24 PUSH1 0x0 REVERT JUMPDEST PUSH1 0x40 MLOAD SWAP1 DUP1 DUP3 MSTORE DUP1 PUSH1 0x20 MUL PUSH1 0x20 ADD DUP3 ADD PUSH1 0x40 MSTORE DUP1 ISZERO PUSH2 0xA8A JUMPI DUP2 PUSH1 0x20 ADD JUMPDEST PUSH2 0xA77 PUSH2 0x1DE5 JUMP JUMPDEST DUP2 MSTORE PUSH1 0x20 ADD SWAP1 PUSH1 0x1 SWAP1 SUB SWAP1 DUP2 PUSH2 0xA6F JUMPI SWAP1 POP JUMPDEST POP SWAP1 POP PUSH1 0x0 JUMPDEST PUSH1 0x3 DUP1 SLOAD SWAP1 POP DUP2 LT ISZERO PUSH2 0xC12 JUMPI DUP5 PUSH1 0xC PUSH1 0x0 DUP4 DUP2 MSTORE PUSH1 0x20 ADD SWAP1 DUP2 MSTORE PUSH1 0x20 ADD PUSH1 0x0 KECCAK256 SLOAD EQ DUP1 ISZERO PUSH2 0xB1B JUMPI POP PUSH1 0x1 ISZERO ISZERO PUSH1 0x3 DUP3 DUP2 SLOAD DUP2 LT PUSH2 0xAF8 JUMPI PUSH32 0x4E487B7100000000000000000000000000000000000000000000000000000000 PUSH1 0x0 MSTORE PUSH1 0x32 PUSH1 0x4 MSTORE PUSH1 0x24 PUSH1 0x0 REVERT JUMPDEST SWAP1 PUSH1 0x0 MSTORE PUSH1 0x20 PUSH1 0x0 KECCAK256 SWAP1 PUSH1 0x4 MUL ADD PUSH1 0x3 ADD PUSH1 0x0 SWAP1 SLOAD SWAP1 PUSH2 0x100 EXP SWAP1 DIV PUSH1 0xFF AND ISZERO ISZERO EQ JUMPDEST ISZERO PUSH2 0xBFF JUMPI PUSH1 0x3 DUP2 DUP2 SLOAD DUP2 LT PUSH2 0xB5A JUMPI PUSH32 0x4E487B7100000000000000000000000000000000000000000000000000000000 PUSH1 0x0 MSTORE PUSH1 0x32 PUSH1 0x4 MSTORE PUSH1 0x24 PUSH1 0x0 REVERT JUMPDEST SWAP1 PUSH1 0x0 MSTORE PUSH1 0x20 PUSH1 0x0 KECCAK256 SWAP1 PUSH1 0x4 MUL ADD PUSH1 0x40 MLOAD DUP1 PUSH1 0x80 ADD PUSH1 0x40 MSTORE SWAP1 DUP2 PUSH1 0x0 DUP3 ADD SLOAD DUP2 MSTORE PUSH1 0x20 ADD PUSH1 0x1 DUP3 ADD SLOAD DUP2 MSTORE PUSH1 0x20 ADD PUSH1 0x2 DUP3 ADD SLOAD DUP2 MSTORE PUSH1 0x20 ADD PUSH1 0x3 DUP3 ADD PUSH1 0x0 SWAP1 SLOAD SWAP1 PUSH2 0x100 EXP SWAP1 DIV PUSH1 0xFF AND ISZERO ISZERO ISZERO ISZERO DUP2 MSTORE POP POP DUP3 DUP5 DUP2 MLOAD DUP2 LT PUSH2 0xBE5 JUMPI PUSH32 0x4E487B7100000000000000000000000000000000000000000000000000000000 PUSH1 0x0 MSTORE PUSH1 0x32 PUSH1 0x4 MSTORE PUSH1 0x24 PUSH1 0x0 REVERT JUMPDEST PUSH1 0x20 MUL PUSH1 0x20 ADD ADD DUP2 SWAP1 MSTORE POP DUP3 DUP1 PUSH2 0xBFB SWAP1 PUSH2 0x2498 JUMP JUMPDEST SWAP4 POP POP JUMPDEST DUP1 DUP1 PUSH2 0xC0A SWAP1 PUSH2 0x2498 JUMP JUMPDEST SWAP2 POP POP PUSH2 0xA90 JUMP JUMPDEST POP DUP1 SWAP3 POP POP POP SWAP2 SWAP1 POP JUMP JUMPDEST PUSH1 0x60 PUSH1 0x0 DUP1 PUSH1 0x7 PUSH1 0x0 CALLER PUSH20 0xFFFFFFFFFFFFFFFFFFFFFFFFFFFFFFFFFFFFFFFF AND PUSH20 0xFFFFFFFFFFFFFFFFFFFFFFFFFFFFFFFFFFFFFFFF AND DUP2 MSTORE PUSH1 0x20 ADD SWAP1 DUP2 MSTORE PUSH1 0x20 ADD PUSH1 0x0 KECCAK256 SLOAD PUSH8 0xFFFFFFFFFFFFFFFF DUP2 GT ISZERO PUSH2 0xCA1 JUMPI PUSH32 0x4E487B7100000000000000000000000000000000000000000000000000000000 PUSH1 0x0 MSTORE PUSH1 0x41 PUSH1 0x4 MSTORE PUSH1 0x24 PUSH1 0x0 REVERT JUMPDEST PUSH1 0x40 MLOAD SWAP1 DUP1 DUP3 MSTORE DUP1 PUSH1 0x20 MUL PUSH1 0x20 ADD DUP3 ADD PUSH1 0x40 MSTORE DUP1 ISZERO PUSH2 0xCDA JUMPI DUP2 PUSH1 0x20 ADD JUMPDEST PUSH2 0xCC7 PUSH2 0x1DE5 JUMP JUMPDEST DUP2 MSTORE PUSH1 0x20 ADD SWAP1 PUSH1 0x1 SWAP1 SUB SWAP1 DUP2 PUSH2 0xCBF JUMPI SWAP1 POP JUMPDEST POP SWAP1 POP PUSH1 0x0 JUMPDEST PUSH1 0x3 DUP1 SLOAD SWAP1 POP DUP2 LT ISZERO PUSH2 0xE46 JUMPI CALLER PUSH20 0xFFFFFFFFFFFFFFFFFFFFFFFFFFFFFFFFFFFFFFFF AND PUSH1 0x8 PUSH1 0x0 DUP4 DUP2 MSTORE PUSH1 0x20 ADD SWAP1 DUP2 MSTORE PUSH1 0x20 ADD PUSH1 0x0 KECCAK256 PUSH1 0x0 SWAP1 SLOAD SWAP1 PUSH2 0x100 EXP SWAP1 DIV PUSH20 0xFFFFFFFFFFFFFFFFFFFFFFFFFFFFFFFFFFFFFFFF AND PUSH20 0xFFFFFFFFFFFFFFFFFFFFFFFFFFFFFFFFFFFFFFFF AND EQ ISZERO PUSH2 0xE33 JUMPI PUSH1 0x3 DUP2 DUP2 SLOAD DUP2 LT PUSH2 0xD8E JUMPI PUSH32 0x4E487B7100000000000000000000000000000000000000000000000000000000 PUSH1 0x0 MSTORE PUSH1 0x32 PUSH1 0x4 MSTORE PUSH1 0x24 PUSH1 0x0 REVERT JUMPDEST SWAP1 PUSH1 0x0 MSTORE PUSH1 0x20 PUSH1 0x0 KECCAK256 SWAP1 PUSH1 0x4 MUL ADD PUSH1 0x40 MLOAD DUP1 PUSH1 0x80 ADD PUSH1 0x40 MSTORE SWAP1 DUP2 PUSH1 0x0 DUP3 ADD SLOAD DUP2 MSTORE PUSH1 0x20 ADD PUSH1 0x1 DUP3 ADD SLOAD DUP2 MSTORE PUSH1 0x20 ADD PUSH1 0x2 DUP3 ADD SLOAD DUP2 MSTORE PUSH1 0x20 ADD PUSH1 0x3 DUP3 ADD PUSH1 0x0 SWAP1 SLOAD SWAP1 PUSH2 0x100 EXP SWAP1 DIV PUSH1 0xFF AND ISZERO ISZERO ISZERO ISZERO DUP2 MSTORE POP POP DUP3 DUP5 DUP2 MLOAD DUP2 LT PUSH2 0xE19 JUMPI PUSH32 0x4E487B7100000000000000000000000000000000000000000000000000000000 PUSH1 0x0 MSTORE PUSH1 0x32 PUSH1 0x4 MSTORE PUSH1 0x24 PUSH1 0x0 REVERT JUMPDEST PUSH1 0x20 MUL PUSH1 0x20 ADD ADD DUP2 SWAP1 MSTORE POP DUP3 DUP1 PUSH2 0xE2F SWAP1 PUSH2 0x2498 JUMP JUMPDEST SWAP4 POP POP JUMPDEST DUP1 DUP1 PUSH2 0xE3E SWAP1 PUSH2 0x2498 JUMP JUMPDEST SWAP2 POP POP PUSH2 0xCE0 JUMP JUMPDEST POP DUP1 SWAP3 POP POP POP SWAP1 JUMP JUMPDEST PUSH2 0xE57 PUSH2 0x1DE5 JUMP JUMPDEST PUSH2 0xE5F PUSH2 0x1DE5 JUMP JUMPDEST PUSH1 0x0 JUMPDEST PUSH1 0x3 DUP1 SLOAD SWAP1 POP DUP2 LT ISZERO PUSH2 0xF68 JUMPI DUP4 PUSH1 0x3 DUP3 DUP2 SLOAD DUP2 LT PUSH2 0xEAA JUMPI PUSH32 0x4E487B7100000000000000000000000000000000000000000000000000000000 PUSH1 0x0 MSTORE PUSH1 0x32 PUSH1 0x4 MSTORE PUSH1 0x24 PUSH1 0x0 REVERT JUMPDEST SWAP1 PUSH1 0x0 MSTORE PUSH1 0x20 PUSH1 0x0 KECCAK256 SWAP1 PUSH1 0x4 MUL ADD PUSH1 0x0 ADD SLOAD EQ ISZERO PUSH2 0xF55 JUMPI PUSH1 0x3 DUP2 DUP2 SLOAD DUP2 LT PUSH2 0xEFC JUMPI PUSH32 0x4E487B7100000000000000000000000000000000000000000000000000000000 PUSH1 0x0 MSTORE PUSH1 0x32 PUSH1 0x4 MSTORE PUSH1 0x24 PUSH1 0x0 REVERT JUMPDEST SWAP1 PUSH1 0x0 MSTORE PUSH1 0x20 PUSH1 0x0 KECCAK256 SWAP1 PUSH1 0x4 MUL ADD PUSH1 0x40 MLOAD DUP1 PUSH1 0x80 ADD PUSH1 0x40 MSTORE SWAP1 DUP2 PUSH1 0x0 DUP3 ADD SLOAD DUP2 MSTORE PUSH1 0x20 ADD PUSH1 0x1 DUP3 ADD SLOAD DUP2 MSTORE PUSH1 0x20 ADD PUSH1 0x2 DUP3 ADD SLOAD DUP2 MSTORE PUSH1 0x20 ADD PUSH1 0x3 DUP3 ADD PUSH1 0x0 SWAP1 SLOAD SWAP1 PUSH2 0x100 EXP SWAP1 DIV PUSH1 0xFF AND ISZERO ISZERO ISZERO ISZERO DUP2 MSTORE POP POP SWAP2 POP PUSH2 0xF68 JUMP JUMPDEST DUP1 DUP1 PUSH2 0xF60 SWAP1 PUSH2 0x2498 JUMP JUMPDEST SWAP2 POP POP PUSH2 0xE62 JUMP JUMPDEST POP DUP1 SWAP2 POP POP SWAP2 SWAP1 POP JUMP JUMPDEST PUSH1 0x0 PUSH1 0x8 PUSH1 0x0 DUP4 DUP2 MSTORE PUSH1 0x20 ADD SWAP1 DUP2 MSTORE PUSH1 0x20 ADD PUSH1 0x0 KECCAK256 PUSH1 0x0 SWAP1 SLOAD SWAP1 PUSH2 0x100 EXP SWAP1 DIV PUSH20 0xFFFFFFFFFFFFFFFFFFFFFFFFFFFFFFFFFFFFFFFF AND SWAP1 POP SWAP2 SWAP1 POP JUMP JUMPDEST PUSH1 0x60 PUSH1 0x0 DUP1 PUSH1 0x9 PUSH1 0x0 CALLER PUSH20 0xFFFFFFFFFFFFFFFFFFFFFFFFFFFFFFFFFFFFFFFF AND PUSH20 0xFFFFFFFFFFFFFFFFFFFFFFFFFFFFFFFFFFFFFFFF AND DUP2 MSTORE PUSH1 0x20 ADD SWAP1 DUP2 MSTORE PUSH1 0x20 ADD PUSH1 0x0 KECCAK256 SLOAD PUSH8 0xFFFFFFFFFFFFFFFF DUP2 GT ISZERO PUSH2 0x1033 JUMPI PUSH32 0x4E487B7100000000000000000000000000000000000000000000000000000000 PUSH1 0x0 MSTORE PUSH1 0x41 PUSH1 0x4 MSTORE PUSH1 0x24 PUSH1 0x0 REVERT JUMPDEST PUSH1 0x40 MLOAD SWAP1 DUP1 DUP3 MSTORE DUP1 PUSH1 0x20 MUL PUSH1 0x20 ADD DUP3 ADD PUSH1 0x40 MSTORE DUP1 ISZERO PUSH2 0x106C JUMPI DUP2 PUSH1 0x20 ADD JUMPDEST PUSH2 0x1059 PUSH2 0x1DE5 JUMP JUMPDEST DUP2 MSTORE PUSH1 0x20 ADD SWAP1 PUSH1 0x1 SWAP1 SUB SWAP1 DUP2 PUSH2 0x1051 JUMPI SWAP1 POP JUMPDEST POP SWAP1 POP PUSH1 0x0 JUMPDEST PUSH1 0x3 DUP1 SLOAD SWAP1 POP DUP2 LT ISZERO PUSH2 0x11D8 JUMPI CALLER PUSH20 0xFFFFFFFFFFFFFFFFFFFFFFFFFFFFFFFFFFFFFFFF AND PUSH1 0xA PUSH1 0x0 DUP4 DUP2 MSTORE PUSH1 0x20 ADD SWAP1 DUP2 MSTORE PUSH1 0x20 ADD PUSH1 0x0 KECCAK256 PUSH1 0x0 SWAP1 SLOAD SWAP1 PUSH2 0x100 EXP SWAP1 DIV PUSH20 0xFFFFFFFFFFFFFFFFFFFFFFFFFFFFFFFFFFFFFFFF AND PUSH20 0xFFFFFFFFFFFFFFFFFFFFFFFFFFFFFFFFFFFFFFFF AND EQ ISZERO PUSH2 0x11C5 JUMPI PUSH1 0x3 DUP2 DUP2 SLOAD DUP2 LT PUSH2 0x1120 JUMPI PUSH32 0x4E487B7100000000000000000000000000000000000000000000000000000000 PUSH1 0x0 MSTORE PUSH1 0x32 PUSH1 0x4 MSTORE PUSH1 0x24 PUSH1 0x0 REVERT JUMPDEST SWAP1 PUSH1 0x0 MSTORE PUSH1 0x20 PUSH1 0x0 KECCAK256 SWAP1 PUSH1 0x4 MUL ADD PUSH1 0x40 MLOAD DUP1 PUSH1 0x80 ADD PUSH1 0x40 MSTORE SWAP1 DUP2 PUSH1 0x0 DUP3 ADD SLOAD DUP2 MSTORE PUSH1 0x20 ADD PUSH1 0x1 DUP3 ADD SLOAD DUP2 MSTORE PUSH1 0x20 ADD PUSH1 0x2 DUP3 ADD SLOAD DUP2 MSTORE PUSH1 0x20 ADD PUSH1 0x3 DUP3 ADD PUSH1 0x0 SWAP1 SLOAD SWAP1 PUSH2 0x100 EXP SWAP1 DIV PUSH1 0xFF AND ISZERO ISZERO ISZERO ISZERO DUP2 MSTORE POP POP DUP3 DUP5 DUP2 MLOAD DUP2 LT PUSH2 0x11AB JUMPI PUSH32 0x4E487B7100000000000000000000000000000000000000000000000000000000 PUSH1 0x0 MSTORE PUSH1 0x32 PUSH1 0x4 MSTORE PUSH1 0x24 PUSH1 0x0 REVERT JUMPDEST PUSH1 0x20 MUL PUSH1 0x20 ADD ADD DUP2 SWAP1 MSTORE POP DUP3 DUP1 PUSH2 0x11C1 SWAP1 PUSH2 0x2498 JUMP JUMPDEST SWAP4 POP POP JUMPDEST DUP1 DUP1 PUSH2 0x11D0 SWAP1 PUSH2 0x2498 JUMP JUMPDEST SWAP2 POP POP PUSH2 0x1072 JUMP JUMPDEST POP DUP1 SWAP3 POP POP POP SWAP1 JUMP JUMPDEST PUSH1 0x0 PUSH1 0x7 PUSH1 0x0 DUP4 PUSH20 0xFFFFFFFFFFFFFFFFFFFFFFFFFFFFFFFFFFFFFFFF AND PUSH20 0xFFFFFFFFFFFFFFFFFFFFFFFFFFFFFFFFFFFFFFFF AND DUP2 MSTORE PUSH1 0x20 ADD SWAP1 DUP2 MSTORE PUSH1 0x20 ADD PUSH1 0x0 KECCAK256 SLOAD SWAP1 POP SWAP2 SWAP1 POP JUMP JUMPDEST PUSH1 0x3 DUP2 DUP2 SLOAD DUP2 LT PUSH2 0x1264 JUMPI PUSH32 0x4E487B7100000000000000000000000000000000000000000000000000000000 PUSH1 0x0 MSTORE PUSH1 0x32 PUSH1 0x4 MSTORE PUSH1 0x24 PUSH1 0x0 REVERT JUMPDEST SWAP1 PUSH1 0x0 MSTORE PUSH1 0x20 PUSH1 0x0 KECCAK256 SWAP1 PUSH1 0x4 MUL ADD PUSH1 0x2 ADD SLOAD CALLVALUE EQ PUSH2 0x12B7 JUMPI PUSH1 0x40 MLOAD PUSH32 0x8C379A000000000000000000000000000000000000000000000000000000000 DUP2 MSTORE PUSH1 0x4 ADD PUSH2 0x12AE SWAP1 PUSH2 0x2231 JUMP JUMPDEST PUSH1 0x40 MLOAD DUP1 SWAP2 SUB SWAP1 REVERT JUMPDEST PUSH1 0x0 PUSH20 0xFFFFFFFFFFFFFFFFFFFFFFFFFFFFFFFFFFFFFFFF AND PUSH1 0x8 PUSH1 0x0 DUP4 DUP2 MSTORE PUSH1 0x20 ADD SWAP1 DUP2 MSTORE PUSH1 0x20 ADD PUSH1 0x0 KECCAK256 PUSH1 0x0 SWAP1 SLOAD SWAP1 PUSH2 0x100 EXP SWAP1 DIV PUSH20 0xFFFFFFFFFFFFFFFFFFFFFFFFFFFFFFFFFFFFFFFF AND PUSH20 0xFFFFFFFFFFFFFFFFFFFFFFFFFFFFFFFFFFFFFFFF AND EQ ISZERO PUSH2 0x135A JUMPI PUSH1 0x40 MLOAD PUSH32 0x8C379A000000000000000000000000000000000000000000000000000000000 DUP2 MSTORE PUSH1 0x4 ADD PUSH2 0x1351 SWAP1 PUSH2 0x2251 JUMP JUMPDEST PUSH1 0x40 MLOAD DUP1 SWAP2 SUB SWAP1 REVERT JUMPDEST CALLER PUSH20 0xFFFFFFFFFFFFFFFFFFFFFFFFFFFFFFFFFFFFFFFF AND PUSH1 0x8 PUSH1 0x0 DUP4 DUP2 MSTORE PUSH1 0x20 ADD SWAP1 DUP2 MSTORE PUSH1 0x20 ADD PUSH1 0x0 KECCAK256 PUSH1 0x0 SWAP1 SLOAD SWAP1 PUSH2 0x100 EXP SWAP1 DIV PUSH20 0xFFFFFFFFFFFFFFFFFFFFFFFFFFFFFFFFFFFFFFFF AND PUSH20 0xFFFFFFFFFFFFFFFFFFFFFFFFFFFFFFFFFFFFFFFF AND EQ ISZERO PUSH2 0x13FC JUMPI PUSH1 0x40 MLOAD PUSH32 0x8C379A000000000000000000000000000000000000000000000000000000000 DUP2 MSTORE PUSH1 0x4 ADD PUSH2 0x13F3 SWAP1 PUSH2 0x21D1 JUMP JUMPDEST PUSH1 0x40 MLOAD DUP1 SWAP2 SUB SWAP1 REVERT JUMPDEST PUSH1 0x0 PUSH1 0x8 PUSH1 0x0 DUP4 DUP2 MSTORE PUSH1 0x20 ADD SWAP1 DUP2 MSTORE PUSH1 0x20 ADD PUSH1 0x0 KECCAK256 PUSH1 0x0 SWAP1 SLOAD SWAP1 PUSH2 0x100 EXP SWAP1 DIV PUSH20 0xFFFFFFFFFFFFFFFFFFFFFFFFFFFFFFFFFFFFFFFF AND SWAP1 POP PUSH1 0x0 PUSH1 0x3 DUP4 DUP2 SLOAD DUP2 LT PUSH2 0x1470 JUMPI PUSH32 0x4E487B7100000000000000000000000000000000000000000000000000000000 PUSH1 0x0 MSTORE PUSH1 0x32 PUSH1 0x4 MSTORE PUSH1 0x24 PUSH1 0x0 REVERT JUMPDEST SWAP1 PUSH1 0x0 MSTORE PUSH1 0x20 PUSH1 0x0 KECCAK256 SWAP1 PUSH1 0x4 MUL ADD SWAP1 POP PUSH1 0x0 DUP2 PUSH1 0x3 ADD PUSH1 0x0 PUSH2 0x100 EXP DUP2 SLOAD DUP2 PUSH1 0xFF MUL NOT AND SWAP1 DUP4 ISZERO ISZERO MUL OR SWAP1 SSTORE POP CALLER PUSH1 0x8 PUSH1 0x0 DUP6 DUP2 MSTORE PUSH1 0x20 ADD SWAP1 DUP2 MSTORE PUSH1 0x20 ADD PUSH1 0x0 KECCAK256 PUSH1 0x0 PUSH2 0x100 EXP DUP2 SLOAD DUP2 PUSH20 0xFFFFFFFFFFFFFFFFFFFFFFFFFFFFFFFFFFFFFFFF MUL NOT AND SWAP1 DUP4 PUSH20 0xFFFFFFFFFFFFFFFFFFFFFFFFFFFFFFFFFFFFFFFF AND MUL OR SWAP1 SSTORE POP PUSH1 0x7 PUSH1 0x0 DUP4 PUSH20 0xFFFFFFFFFFFFFFFFFFFFFFFFFFFFFFFFFFFFFFFF AND PUSH20 0xFFFFFFFFFFFFFFFFFFFFFFFFFFFFFFFFFFFFFFFF AND DUP2 MSTORE PUSH1 0x20 ADD SWAP1 DUP2 MSTORE PUSH1 0x20 ADD PUSH1 0x0 KECCAK256 PUSH1 0x0 DUP2 SLOAD DUP1 SWAP3 SWAP2 SWAP1 PUSH1 0x1 SWAP1 SUB SWAP2 SWAP1 POP SSTORE POP PUSH1 0x7 PUSH1 0x0 CALLER PUSH20 0xFFFFFFFFFFFFFFFFFFFFFFFFFFFFFFFFFFFFFFFF AND PUSH20 0xFFFFFFFFFFFFFFFFFFFFFFFFFFFFFFFFFFFFFFFF AND DUP2 MSTORE PUSH1 0x20 ADD SWAP1 DUP2 MSTORE PUSH1 0x20 ADD PUSH1 0x0 KECCAK256 PUSH1 0x0 DUP2 SLOAD DUP1 SWAP3 SWAP2 SWAP1 PUSH1 0x1 ADD SWAP2 SWAP1 POP SSTORE POP PUSH1 0x4 PUSH1 0x0 DUP2 SLOAD DUP1 SWAP3 SWAP2 SWAP1 PUSH1 0x1 SWAP1 SUB SWAP2 SWAP1 POP SSTORE POP DUP2 PUSH20 0xFFFFFFFFFFFFFFFFFFFFFFFFFFFFFFFFFFFFFFFF AND PUSH1 0xA PUSH1 0x0 DUP6 DUP2 MSTORE PUSH1 0x20 ADD SWAP1 DUP2 MSTORE PUSH1 0x20 ADD PUSH1 0x0 KECCAK256 PUSH1 0x0 SWAP1 SLOAD SWAP1 PUSH2 0x100 EXP SWAP1 DIV PUSH20 0xFFFFFFFFFFFFFFFFFFFFFFFFFFFFFFFFFFFFFFFF AND PUSH20 0xFFFFFFFFFFFFFFFFFFFFFFFFFFFFFFFFFFFFFFFF AND EQ ISZERO PUSH2 0x1654 JUMPI DUP2 PUSH20 0xFFFFFFFFFFFFFFFFFFFFFFFFFFFFFFFFFFFFFFFF AND PUSH2 0x8FC CALLVALUE SWAP1 DUP2 ISZERO MUL SWAP1 PUSH1 0x40 MLOAD PUSH1 0x0 PUSH1 0x40 MLOAD DUP1 DUP4 SUB DUP2 DUP6 DUP9 DUP9 CALL SWAP4 POP POP POP POP ISZERO DUP1 ISZERO PUSH2 0x164E JUMPI RETURNDATASIZE PUSH1 0x0 DUP1 RETURNDATACOPY RETURNDATASIZE PUSH1 0x0 REVERT JUMPDEST POP PUSH2 0x172F JUMP JUMPDEST PUSH1 0x0 DUP1 PUSH2 0x1663 CALLVALUE PUSH1 0x6 SLOAD PUSH2 0x1DA7 JUMP JUMPDEST DUP1 SWAP3 POP DUP2 SWAP4 POP POP POP PUSH1 0xA PUSH1 0x0 DUP7 DUP2 MSTORE PUSH1 0x20 ADD SWAP1 DUP2 MSTORE PUSH1 0x20 ADD PUSH1 0x0 KECCAK256 PUSH1 0x0 SWAP1 SLOAD SWAP1 PUSH2 0x100 EXP SWAP1 DIV PUSH20 0xFFFFFFFFFFFFFFFFFFFFFFFFFFFFFFFFFFFFFFFF AND PUSH20 0xFFFFFFFFFFFFFFFFFFFFFFFFFFFFFFFFFFFFFFFF AND PUSH2 0x8FC DUP4 SWAP1 DUP2 ISZERO MUL SWAP1 PUSH1 0x40 MLOAD PUSH1 0x0 PUSH1 0x40 MLOAD DUP1 DUP4 SUB DUP2 DUP6 DUP9 DUP9 CALL SWAP4 POP POP POP POP ISZERO DUP1 ISZERO PUSH2 0x16E4 JUMPI RETURNDATASIZE PUSH1 0x0 DUP1 RETURNDATACOPY RETURNDATASIZE PUSH1 0x0 REVERT JUMPDEST POP DUP4 PUSH20 0xFFFFFFFFFFFFFFFFFFFFFFFFFFFFFFFFFFFFFFFF AND PUSH2 0x8FC DUP3 SWAP1 DUP2 ISZERO MUL SWAP1 PUSH1 0x40 MLOAD PUSH1 0x0 PUSH1 0x40 MLOAD DUP1 DUP4 SUB DUP2 DUP6 DUP9 DUP9 CALL SWAP4 POP POP POP POP ISZERO DUP1 ISZERO PUSH2 0x172B JUMPI RETURNDATASIZE PUSH1 0x0 DUP1 RETURNDATACOPY RETURNDATASIZE PUSH1 0x0 REVERT JUMPDEST POP POP POP JUMPDEST CALLER PUSH20 0xFFFFFFFFFFFFFFFFFFFFFFFFFFFFFFFFFFFFFFFF AND DUP3 PUSH20 0xFFFFFFFFFFFFFFFFFFFFFFFFFFFFFFFFFFFFFFFF AND PUSH32 0xDDF252AD1BE2C89B69C2B068FC378DAA952BA7F163C4A11628F55A4DF523B3EF DUP6 PUSH1 0x40 MLOAD PUSH2 0x178C SWAP2 SWAP1 PUSH2 0x232C JUMP JUMPDEST PUSH1 0x40 MLOAD DUP1 SWAP2 SUB SWAP1 LOG3 POP POP POP JUMP JUMPDEST PUSH1 0x0 PUSH1 0x5 SLOAD SWAP1 POP SWAP1 JUMP JUMPDEST DUP1 CALLER PUSH20 0xFFFFFFFFFFFFFFFFFFFFFFFFFFFFFFFFFFFFFFFF AND PUSH1 0x8 PUSH1 0x0 DUP4 DUP2 MSTORE PUSH1 0x20 ADD SWAP1 DUP2 MSTORE PUSH1 0x20 ADD PUSH1 0x0 KECCAK256 PUSH1 0x0 SWAP1 SLOAD SWAP1 PUSH2 0x100 EXP SWAP1 DIV PUSH20 0xFFFFFFFFFFFFFFFFFFFFFFFFFFFFFFFFFFFFFFFF AND PUSH20 0xFFFFFFFFFFFFFFFFFFFFFFFFFFFFFFFFFFFFFFFF AND EQ PUSH2 0x1845 JUMPI PUSH1 0x40 MLOAD PUSH32 0x8C379A000000000000000000000000000000000000000000000000000000000 DUP2 MSTORE PUSH1 0x4 ADD PUSH2 0x183C SWAP1 PUSH2 0x2271 JUMP JUMPDEST PUSH1 0x40 MLOAD DUP1 SWAP2 SUB SWAP1 REVERT JUMPDEST PUSH1 0x0 PUSH20 0xFFFFFFFFFFFFFFFFFFFFFFFFFFFFFFFFFFFFFFFF AND PUSH1 0x8 PUSH1 0x0 DUP5 DUP2 MSTORE PUSH1 0x20 ADD SWAP1 DUP2 MSTORE PUSH1 0x20 ADD PUSH1 0x0 KECCAK256 PUSH1 0x0 SWAP1 SLOAD SWAP1 PUSH2 0x100 EXP SWAP1 DIV PUSH20 0xFFFFFFFFFFFFFFFFFFFFFFFFFFFFFFFFFFFFFFFF AND PUSH20 0xFFFFFFFFFFFFFFFFFFFFFFFFFFFFFFFFFFFFFFFF AND EQ ISZERO PUSH2 0x18E8 JUMPI PUSH1 0x40 MLOAD PUSH32 0x8C379A000000000000000000000000000000000000000000000000000000000 DUP2 MSTORE PUSH1 0x4 ADD PUSH2 0x18DF SWAP1 PUSH2 0x2251 JUMP JUMPDEST PUSH1 0x40 MLOAD DUP1 SWAP2 SUB SWAP1 REVERT JUMPDEST PUSH1 0x1 ISZERO ISZERO PUSH1 0x3 DUP4 DUP2 SLOAD DUP2 LT PUSH2 0x1926 JUMPI PUSH32 0x4E487B7100000000000000000000000000000000000000000000000000000000 PUSH1 0x0 MSTORE PUSH1 0x32 PUSH1 0x4 MSTORE PUSH1 0x24 PUSH1 0x0 REVERT JUMPDEST SWAP1 PUSH1 0x0 MSTORE PUSH1 0x20 PUSH1 0x0 KECCAK256 SWAP1 PUSH1 0x4 MUL ADD PUSH1 0x3 ADD PUSH1 0x0 SWAP1 SLOAD SWAP1 PUSH2 0x100 EXP SWAP1 DIV PUSH1 0xFF AND ISZERO ISZERO EQ PUSH2 0x1987 JUMPI PUSH1 0x40 MLOAD PUSH32 0x8C379A000000000000000000000000000000000000000000000000000000000 DUP2 MSTORE PUSH1 0x4 ADD PUSH2 0x197E SWAP1 PUSH2 0x21F1 JUMP JUMPDEST PUSH1 0x40 MLOAD DUP1 SWAP2 SUB SWAP1 REVERT JUMPDEST PUSH1 0x0 PUSH1 0x3 DUP4 DUP2 SLOAD DUP2 LT PUSH2 0x19C3 JUMPI PUSH32 0x4E487B7100000000000000000000000000000000000000000000000000000000 PUSH1 0x0 MSTORE PUSH1 0x32 PUSH1 0x4 MSTORE PUSH1 0x24 PUSH1 0x0 REVERT JUMPDEST SWAP1 PUSH1 0x0 MSTORE PUSH1 0x20 PUSH1 0x0 KECCAK256 SWAP1 PUSH1 0x4 MUL ADD PUSH1 0x3 ADD PUSH1 0x0 PUSH2 0x100 EXP DUP2 SLOAD DUP2 PUSH1 0xFF MUL NOT AND SWAP1 DUP4 ISZERO ISZERO MUL OR SWAP1 SSTORE POP PUSH1 0x4 PUSH1 0x0 DUP2 SLOAD DUP1 SWAP3 SWAP2 SWAP1 PUSH1 0x1 SWAP1 SUB SWAP2 SWAP1 POP SSTORE POP POP POP JUMP JUMPDEST PUSH1 0x5 SLOAD CALLVALUE EQ PUSH2 0x1A46 JUMPI PUSH1 0x40 MLOAD PUSH32 0x8C379A000000000000000000000000000000000000000000000000000000000 DUP2 MSTORE PUSH1 0x4 ADD PUSH2 0x1A3D SWAP1 PUSH2 0x22B1 JUMP JUMPDEST PUSH1 0x40 MLOAD DUP1 SWAP2 SUB SWAP1 REVERT JUMPDEST DUP1 CALLER PUSH20 0xFFFFFFFFFFFFFFFFFFFFFFFFFFFFFFFFFFFFFFFF AND PUSH1 0x8 PUSH1 0x0 DUP4 DUP2 MSTORE PUSH1 0x20 ADD SWAP1 DUP2 MSTORE PUSH1 0x20 ADD PUSH1 0x0 KECCAK256 PUSH1 0x0 SWAP1 SLOAD SWAP1 PUSH2 0x100 EXP SWAP1 DIV PUSH20 0xFFFFFFFFFFFFFFFFFFFFFFFFFFFFFFFFFFFFFFFF AND PUSH20 0xFFFFFFFFFFFFFFFFFFFFFFFFFFFFFFFFFFFFFFFF AND EQ PUSH2 0x1AE8 JUMPI PUSH1 0x40 MLOAD PUSH32 0x8C379A000000000000000000000000000000000000000000000000000000000 DUP2 MSTORE PUSH1 0x4 ADD PUSH2 0x1ADF SWAP1 PUSH2 0x2271 JUMP JUMPDEST PUSH1 0x40 MLOAD DUP1 SWAP2 SUB SWAP1 REVERT JUMPDEST PUSH1 0x0 PUSH20 0xFFFFFFFFFFFFFFFFFFFFFFFFFFFFFFFFFFFFFFFF AND PUSH1 0x8 PUSH1 0x0 DUP5 DUP2 MSTORE PUSH1 0x20 ADD SWAP1 DUP2 MSTORE PUSH1 0x20 ADD PUSH1 0x0 KECCAK256 PUSH1 0x0 SWAP1 SLOAD SWAP1 PUSH2 0x100 EXP SWAP1 DIV PUSH20 0xFFFFFFFFFFFFFFFFFFFFFFFFFFFFFFFFFFFFFFFF AND PUSH20 0xFFFFFFFFFFFFFFFFFFFFFFFFFFFFFFFFFFFFFFFF AND EQ ISZERO PUSH2 0x1B8B JUMPI PUSH1 0x40 MLOAD PUSH32 0x8C379A000000000000000000000000000000000000000000000000000000000 DUP2 MSTORE PUSH1 0x4 ADD PUSH2 0x1B82 SWAP1 PUSH2 0x2251 JUMP JUMPDEST PUSH1 0x40 MLOAD DUP1 SWAP2 SUB SWAP1 REVERT JUMPDEST PUSH1 0x0 ISZERO ISZERO PUSH1 0x3 DUP4 DUP2 SLOAD DUP2 LT PUSH2 0x1BC9 JUMPI PUSH32 0x4E487B7100000000000000000000000000000000000000000000000000000000 PUSH1 0x0 MSTORE PUSH1 0x32 PUSH1 0x4 MSTORE PUSH1 0x24 PUSH1 0x0 REVERT JUMPDEST SWAP1 PUSH1 0x0 MSTORE PUSH1 0x20 PUSH1 0x0 KECCAK256 SWAP1 PUSH1 0x4 MUL ADD PUSH1 0x3 ADD PUSH1 0x0 SWAP1 SLOAD SWAP1 PUSH2 0x100 EXP SWAP1 DIV PUSH1 0xFF AND ISZERO ISZERO EQ PUSH2 0x1C2A JUMPI PUSH1 0x40 MLOAD PUSH32 0x8C379A000000000000000000000000000000000000000000000000000000000 DUP2 MSTORE PUSH1 0x4 ADD PUSH2 0x1C21 SWAP1 PUSH2 0x2291 JUMP JUMPDEST PUSH1 0x40 MLOAD DUP1 SWAP2 SUB SWAP1 REVERT JUMPDEST PUSH1 0x1 PUSH1 0x3 DUP4 DUP2 SLOAD DUP2 LT PUSH2 0x1C66 JUMPI PUSH32 0x4E487B7100000000000000000000000000000000000000000000000000000000 PUSH1 0x0 MSTORE PUSH1 0x32 PUSH1 0x4 MSTORE PUSH1 0x24 PUSH1 0x0 REVERT JUMPDEST SWAP1 PUSH1 0x0 MSTORE PUSH1 0x20 PUSH1 0x0 KECCAK256 SWAP1 PUSH1 0x4 MUL ADD PUSH1 0x3 ADD PUSH1 0x0 PUSH2 0x100 EXP DUP2 SLOAD DUP2 PUSH1 0xFF MUL NOT AND SWAP1 DUP4 ISZERO ISZERO MUL OR SWAP1 SSTORE POP PUSH1 0x4 PUSH1 0x0 DUP2 SLOAD DUP1 SWAP3 SWAP2 SWAP1 PUSH1 0x1 ADD SWAP2 SWAP1 POP SSTORE POP PUSH1 0x2 PUSH1 0x0 SWAP1 SLOAD SWAP1 PUSH2 0x100 EXP SWAP1 DIV PUSH20 0xFFFFFFFFFFFFFFFFFFFFFFFFFFFFFFFFFFFFFFFF AND PUSH20 0xFFFFFFFFFFFFFFFFFFFFFFFFFFFFFFFFFFFFFFFF AND PUSH2 0x8FC CALLVALUE SWAP1 DUP2 ISZERO MUL SWAP1 PUSH1 0x40 MLOAD PUSH1 0x0 PUSH1 0x40 MLOAD DUP1 DUP4 SUB DUP2 DUP6 DUP9 DUP9 CALL SWAP4 POP POP POP POP ISZERO DUP1 ISZERO PUSH2 0x1D08 JUMPI RETURNDATASIZE PUSH1 0x0 DUP1 RETURNDATACOPY RETURNDATASIZE PUSH1 0x0 REVERT JUMPDEST POP POP POP JUMP JUMPDEST PUSH1 0x2 PUSH1 0x0 SWAP1 SLOAD SWAP1 PUSH2 0x100 EXP SWAP1 DIV PUSH20 0xFFFFFFFFFFFFFFFFFFFFFFFFFFFFFFFFFFFFFFFF AND PUSH20 0xFFFFFFFFFFFFFFFFFFFFFFFFFFFFFFFFFFFFFFFF AND CALLER PUSH20 0xFFFFFFFFFFFFFFFFFFFFFFFFFFFFFFFFFFFFFFFF AND EQ PUSH2 0x1D9D JUMPI PUSH1 0x40 MLOAD PUSH32 0x8C379A000000000000000000000000000000000000000000000000000000000 DUP2 MSTORE PUSH1 0x4 ADD PUSH2 0x1D94 SWAP1 PUSH2 0x22D1 JUMP JUMPDEST PUSH1 0x40 MLOAD DUP1 SWAP2 SUB SWAP1 REVERT JUMPDEST DUP1 PUSH1 0x5 DUP2 SWAP1 SSTORE POP POP JUMP JUMPDEST PUSH1 0x0 DUP1 PUSH1 0x0 PUSH1 0x64 DUP6 DUP6 PUSH2 0x1DBA SWAP2 SWAP1 PUSH2 0x23C2 JUMP JUMPDEST PUSH2 0x1DC4 SWAP2 SWAP1 PUSH2 0x2391 JUMP JUMPDEST SWAP1 POP PUSH1 0x0 DUP2 DUP7 PUSH2 0x1DD4 SWAP2 SWAP1 PUSH2 0x241C JUMP JUMPDEST SWAP1 POP DUP2 DUP2 SWAP4 POP SWAP4 POP POP POP SWAP3 POP SWAP3 SWAP1 POP JUMP JUMPDEST PUSH1 0x40 MLOAD DUP1 PUSH1 0x80 ADD PUSH1 0x40 MSTORE DUP1 PUSH1 0x0 DUP2 MSTORE PUSH1 0x20 ADD PUSH1 0x0 DUP2 MSTORE PUSH1 0x20 ADD PUSH1 0x0 DUP2 MSTORE PUSH1 0x20 ADD PUSH1 0x0 ISZERO ISZERO DUP2 MSTORE POP SWAP1 JUMP JUMPDEST PUSH1 0x0 DUP2 CALLDATALOAD SWAP1 POP PUSH2 0x1E1E DUP2 PUSH2 0x2771 JUMP JUMPDEST SWAP3 SWAP2 POP POP JUMP JUMPDEST PUSH1 0x0 DUP2 CALLDATALOAD SWAP1 POP PUSH2 0x1E33 DUP2 PUSH2 0x2788 JUMP JUMPDEST SWAP3 SWAP2 POP POP JUMP JUMPDEST PUSH1 0x0 PUSH1 0x20 DUP3 DUP5 SUB SLT ISZERO PUSH2 0x1E4B JUMPI PUSH1 0x0 DUP1 REVERT JUMPDEST PUSH1 0x0 PUSH2 0x1E59 DUP5 DUP3 DUP6 ADD PUSH2 0x1E0F JUMP JUMPDEST SWAP2 POP POP SWAP3 SWAP2 POP POP JUMP JUMPDEST PUSH1 0x0 PUSH1 0x20 DUP3 DUP5 SUB SLT ISZERO PUSH2 0x1E74 JUMPI PUSH1 0x0 DUP1 REVERT JUMPDEST PUSH1 0x0 PUSH2 0x1E82 DUP5 DUP3 DUP6 ADD PUSH2 0x1E24 JUMP JUMPDEST SWAP2 POP POP SWAP3 SWAP2 POP POP JUMP JUMPDEST PUSH1 0x0 DUP1 PUSH1 0x0 PUSH1 0x60 DUP5 DUP7 SUB SLT ISZERO PUSH2 0x1EA0 JUMPI PUSH1 0x0 DUP1 REVERT JUMPDEST PUSH1 0x0 PUSH2 0x1EAE DUP7 DUP3 DUP8 ADD PUSH2 0x1E24 JUMP JUMPDEST SWAP4 POP POP PUSH1 0x20 PUSH2 0x1EBF DUP7 DUP3 DUP8 ADD PUSH2 0x1E24 JUMP JUMPDEST SWAP3 POP POP PUSH1 0x40 PUSH2 0x1ED0 DUP7 DUP3 DUP8 ADD PUSH2 0x1E24 JUMP JUMPDEST SWAP2 POP POP SWAP3 POP SWAP3 POP SWAP3 JUMP JUMPDEST PUSH1 0x0 PUSH2 0x1EE6 DUP4 DUP4 PUSH2 0x20CC JUMP JUMPDEST PUSH1 0x80 DUP4 ADD SWAP1 POP SWAP3 SWAP2 POP POP JUMP JUMPDEST PUSH2 0x1EFB DUP2 PUSH2 0x2450 JUMP JUMPDEST DUP3 MSTORE POP POP JUMP JUMPDEST PUSH1 0x0 PUSH2 0x1F0C DUP3 PUSH2 0x2357 JUMP JUMPDEST PUSH2 0x1F16 DUP2 DUP6 PUSH2 0x236F JUMP JUMPDEST SWAP4 POP PUSH2 0x1F21 DUP4 PUSH2 0x2347 JUMP JUMPDEST DUP1 PUSH1 0x0 JUMPDEST DUP4 DUP2 LT ISZERO PUSH2 0x1F52 JUMPI DUP2 MLOAD PUSH2 0x1F39 DUP9 DUP3 PUSH2 0x1EDA JUMP JUMPDEST SWAP8 POP PUSH2 0x1F44 DUP4 PUSH2 0x2362 JUMP JUMPDEST SWAP3 POP POP PUSH1 0x1 DUP2 ADD SWAP1 POP PUSH2 0x1F25 JUMP JUMPDEST POP DUP6 SWAP4 POP POP POP POP SWAP3 SWAP2 POP POP JUMP JUMPDEST PUSH2 0x1F68 DUP2 PUSH2 0x2462 JUMP JUMPDEST DUP3 MSTORE POP POP JUMP JUMPDEST PUSH1 0x0 PUSH2 0x1F7B PUSH1 0x29 DUP4 PUSH2 0x2380 JUMP JUMPDEST SWAP2 POP PUSH2 0x1F86 DUP3 PUSH2 0x253F JUMP JUMPDEST PUSH1 0x40 DUP3 ADD SWAP1 POP SWAP2 SWAP1 POP JUMP JUMPDEST PUSH1 0x0 PUSH2 0x1F9E PUSH1 0x13 DUP4 PUSH2 0x2380 JUMP JUMPDEST SWAP2 POP PUSH2 0x1FA9 DUP3 PUSH2 0x258E JUMP JUMPDEST PUSH1 0x20 DUP3 ADD SWAP1 POP SWAP2 SWAP1 POP JUMP JUMPDEST PUSH1 0x0 PUSH2 0x1FC1 PUSH1 0x13 DUP4 PUSH2 0x2380 JUMP JUMPDEST SWAP2 POP PUSH2 0x1FCC DUP3 PUSH2 0x25B7 JUMP JUMPDEST PUSH1 0x20 DUP3 ADD SWAP1 POP SWAP2 SWAP1 POP JUMP JUMPDEST PUSH1 0x0 PUSH2 0x1FE4 PUSH1 0x35 DUP4 PUSH2 0x2380 JUMP JUMPDEST SWAP2 POP PUSH2 0x1FEF DUP3 PUSH2 0x25E0 JUMP JUMPDEST PUSH1 0x40 DUP3 ADD SWAP1 POP SWAP2 SWAP1 POP JUMP JUMPDEST PUSH1 0x0 PUSH2 0x2007 PUSH1 0x13 DUP4 PUSH2 0x2380 JUMP JUMPDEST SWAP2 POP PUSH2 0x2012 DUP3 PUSH2 0x262F JUMP JUMPDEST PUSH1 0x20 DUP3 ADD SWAP1 POP SWAP2 SWAP1 POP JUMP JUMPDEST PUSH1 0x0 PUSH2 0x202A PUSH1 0x1D DUP4 PUSH2 0x2380 JUMP JUMPDEST SWAP2 POP PUSH2 0x2035 DUP3 PUSH2 0x2658 JUMP JUMPDEST PUSH1 0x20 DUP3 ADD SWAP1 POP SWAP2 SWAP1 POP JUMP JUMPDEST PUSH1 0x0 PUSH2 0x204D PUSH1 0x18 DUP4 PUSH2 0x2380 JUMP JUMPDEST SWAP2 POP PUSH2 0x2058 DUP3 PUSH2 0x2681 JUMP JUMPDEST PUSH1 0x20 DUP3 ADD SWAP1 POP SWAP2 SWAP1 POP JUMP JUMPDEST PUSH1 0x0 PUSH2 0x2070 PUSH1 0x21 DUP4 PUSH2 0x2380 JUMP JUMPDEST SWAP2 POP PUSH2 0x207B DUP3 PUSH2 0x26AA JUMP JUMPDEST PUSH1 0x40 DUP3 ADD SWAP1 POP SWAP2 SWAP1 POP JUMP JUMPDEST PUSH1 0x0 PUSH2 0x2093 PUSH1 0x21 DUP4 PUSH2 0x2380 JUMP JUMPDEST SWAP2 POP PUSH2 0x209E DUP3 PUSH2 0x26F9 JUMP JUMPDEST PUSH1 0x40 DUP3 ADD SWAP1 POP SWAP2 SWAP1 POP JUMP JUMPDEST PUSH1 0x0 PUSH2 0x20B6 PUSH1 0x1A DUP4 PUSH2 0x2380 JUMP JUMPDEST SWAP2 POP PUSH2 0x20C1 DUP3 PUSH2 0x2748 JUMP JUMPDEST PUSH1 0x20 DUP3 ADD SWAP1 POP SWAP2 SWAP1 POP JUMP JUMPDEST PUSH1 0x80 DUP3 ADD PUSH1 0x0 DUP3 ADD MLOAD PUSH2 0x20E2 PUSH1 0x0 DUP6 ADD DUP3 PUSH2 0x2176 JUMP JUMPDEST POP PUSH1 0x20 DUP3 ADD MLOAD PUSH2 0x20F5 PUSH1 0x20 DUP6 ADD DUP3 PUSH2 0x2176 JUMP JUMPDEST POP PUSH1 0x40 DUP3 ADD MLOAD PUSH2 0x2108 PUSH1 0x40 DUP6 ADD DUP3 PUSH2 0x2176 JUMP JUMPDEST POP PUSH1 0x60 DUP3 ADD MLOAD PUSH2 0x211B PUSH1 0x60 DUP6 ADD DUP3 PUSH2 0x1F5F JUMP JUMPDEST POP POP POP POP JUMP JUMPDEST PUSH1 0x80 DUP3 ADD PUSH1 0x0 DUP3 ADD MLOAD PUSH2 0x2137 PUSH1 0x0 DUP6 ADD DUP3 PUSH2 0x2176 JUMP JUMPDEST POP PUSH1 0x20 DUP3 ADD MLOAD PUSH2 0x214A PUSH1 0x20 DUP6 ADD DUP3 PUSH2 0x2176 JUMP JUMPDEST POP PUSH1 0x40 DUP3 ADD MLOAD PUSH2 0x215D PUSH1 0x40 DUP6 ADD DUP3 PUSH2 0x2176 JUMP JUMPDEST POP PUSH1 0x60 DUP3 ADD MLOAD PUSH2 0x2170 PUSH1 0x60 DUP6 ADD DUP3 PUSH2 0x1F5F JUMP JUMPDEST POP POP POP POP JUMP JUMPDEST PUSH2 0x217F DUP2 PUSH2 0x248E JUMP JUMPDEST DUP3 MSTORE POP POP JUMP JUMPDEST PUSH2 0x218E DUP2 PUSH2 0x248E JUMP JUMPDEST DUP3 MSTORE POP POP JUMP JUMPDEST PUSH1 0x0 PUSH1 0x20 DUP3 ADD SWAP1 POP PUSH2 0x21A9 PUSH1 0x0 DUP4 ADD DUP5 PUSH2 0x1EF2 JUMP JUMPDEST SWAP3 SWAP2 POP POP JUMP JUMPDEST PUSH1 0x0 PUSH1 0x20 DUP3 ADD SWAP1 POP DUP2 DUP2 SUB PUSH1 0x0 DUP4 ADD MSTORE PUSH2 0x21C9 DUP2 DUP5 PUSH2 0x1F01 JUMP JUMPDEST SWAP1 POP SWAP3 SWAP2 POP POP JUMP JUMPDEST PUSH1 0x0 PUSH1 0x20 DUP3 ADD SWAP1 POP DUP2 DUP2 SUB PUSH1 0x0 DUP4 ADD MSTORE PUSH2 0x21EA DUP2 PUSH2 0x1F6E JUMP JUMPDEST SWAP1 POP SWAP2 SWAP1 POP JUMP JUMPDEST PUSH1 0x0 PUSH1 0x20 DUP3 ADD SWAP1 POP DUP2 DUP2 SUB PUSH1 0x0 DUP4 ADD MSTORE PUSH2 0x220A DUP2 PUSH2 0x1F91 JUMP JUMPDEST SWAP1 POP SWAP2 SWAP1 POP JUMP JUMPDEST PUSH1 0x0 PUSH1 0x20 DUP3 ADD SWAP1 POP DUP2 DUP2 SUB PUSH1 0x0 DUP4 ADD MSTORE PUSH2 0x222A DUP2 PUSH2 0x1FB4 JUMP JUMPDEST SWAP1 POP SWAP2 SWAP1 POP JUMP JUMPDEST PUSH1 0x0 PUSH1 0x20 DUP3 ADD SWAP1 POP DUP2 DUP2 SUB PUSH1 0x0 DUP4 ADD MSTORE PUSH2 0x224A DUP2 PUSH2 0x1FD7 JUMP JUMPDEST SWAP1 POP SWAP2 SWAP1 POP JUMP JUMPDEST PUSH1 0x0 PUSH1 0x20 DUP3 ADD SWAP1 POP DUP2 DUP2 SUB PUSH1 0x0 DUP4 ADD MSTORE PUSH2 0x226A DUP2 PUSH2 0x1FFA JUMP JUMPDEST SWAP1 POP SWAP2 SWAP1 POP JUMP JUMPDEST PUSH1 0x0 PUSH1 0x20 DUP3 ADD SWAP1 POP DUP2 DUP2 SUB PUSH1 0x0 DUP4 ADD MSTORE PUSH2 0x228A DUP2 PUSH2 0x201D JUMP JUMPDEST SWAP1 POP SWAP2 SWAP1 POP JUMP JUMPDEST PUSH1 0x0 PUSH1 0x20 DUP3 ADD SWAP1 POP DUP2 DUP2 SUB PUSH1 0x0 DUP4 ADD MSTORE PUSH2 0x22AA DUP2 PUSH2 0x2040 JUMP JUMPDEST SWAP1 POP SWAP2 SWAP1 POP JUMP JUMPDEST PUSH1 0x0 PUSH1 0x20 DUP3 ADD SWAP1 POP DUP2 DUP2 SUB PUSH1 0x0 DUP4 ADD MSTORE PUSH2 0x22CA DUP2 PUSH2 0x2063 JUMP JUMPDEST SWAP1 POP SWAP2 SWAP1 POP JUMP JUMPDEST PUSH1 0x0 PUSH1 0x20 DUP3 ADD SWAP1 POP DUP2 DUP2 SUB PUSH1 0x0 DUP4 ADD MSTORE PUSH2 0x22EA DUP2 PUSH2 0x2086 JUMP JUMPDEST SWAP1 POP SWAP2 SWAP1 POP JUMP JUMPDEST PUSH1 0x0 PUSH1 0x20 DUP3 ADD SWAP1 POP DUP2 DUP2 SUB PUSH1 0x0 DUP4 ADD MSTORE PUSH2 0x230A DUP2 PUSH2 0x20A9 JUMP JUMPDEST SWAP1 POP SWAP2 SWAP1 POP JUMP JUMPDEST PUSH1 0x0 PUSH1 0x80 DUP3 ADD SWAP1 POP PUSH2 0x2326 PUSH1 0x0 DUP4 ADD DUP5 PUSH2 0x2121 JUMP JUMPDEST SWAP3 SWAP2 POP POP JUMP JUMPDEST PUSH1 0x0 PUSH1 0x20 DUP3 ADD SWAP1 POP PUSH2 0x2341 PUSH1 0x0 DUP4 ADD DUP5 PUSH2 0x2185 JUMP JUMPDEST SWAP3 SWAP2 POP POP JUMP JUMPDEST PUSH1 0x0 DUP2 SWAP1 POP PUSH1 0x20 DUP3 ADD SWAP1 POP SWAP2 SWAP1 POP JUMP JUMPDEST PUSH1 0x0 DUP2 MLOAD SWAP1 POP SWAP2 SWAP1 POP JUMP JUMPDEST PUSH1 0x0 PUSH1 0x20 DUP3 ADD SWAP1 POP SWAP2 SWAP1 POP JUMP JUMPDEST PUSH1 0x0 DUP3 DUP3 MSTORE PUSH1 0x20 DUP3 ADD SWAP1 POP SWAP3 SWAP2 POP POP JUMP JUMPDEST PUSH1 0x0 DUP3 DUP3 MSTORE PUSH1 0x20 DUP3 ADD SWAP1 POP SWAP3 SWAP2 POP POP JUMP JUMPDEST PUSH1 0x0 PUSH2 0x239C DUP3 PUSH2 0x248E JUMP JUMPDEST SWAP2 POP PUSH2 0x23A7 DUP4 PUSH2 0x248E JUMP JUMPDEST SWAP3 POP DUP3 PUSH2 0x23B7 JUMPI PUSH2 0x23B6 PUSH2 0x2510 JUMP JUMPDEST JUMPDEST DUP3 DUP3 DIV SWAP1 POP SWAP3 SWAP2 POP POP JUMP JUMPDEST PUSH1 0x0 PUSH2 0x23CD DUP3 PUSH2 0x248E JUMP JUMPDEST SWAP2 POP PUSH2 0x23D8 DUP4 PUSH2 0x248E JUMP JUMPDEST SWAP3 POP DUP2 PUSH32 0xFFFFFFFFFFFFFFFFFFFFFFFFFFFFFFFFFFFFFFFFFFFFFFFFFFFFFFFFFFFFFFFF DIV DUP4 GT DUP3 ISZERO ISZERO AND ISZERO PUSH2 0x2411 JUMPI PUSH2 0x2410 PUSH2 0x24E1 JUMP JUMPDEST JUMPDEST DUP3 DUP3 MUL SWAP1 POP SWAP3 SWAP2 POP POP JUMP JUMPDEST PUSH1 0x0 PUSH2 0x2427 DUP3 PUSH2 0x248E JUMP JUMPDEST SWAP2 POP PUSH2 0x2432 DUP4 PUSH2 0x248E JUMP JUMPDEST SWAP3 POP DUP3 DUP3 LT ISZERO PUSH2 0x2445 JUMPI PUSH2 0x2444 PUSH2 0x24E1 JUMP JUMPDEST JUMPDEST DUP3 DUP3 SUB SWAP1 POP SWAP3 SWAP2 POP POP JUMP JUMPDEST PUSH1 0x0 PUSH2 0x245B DUP3 PUSH2 0x246E JUMP JUMPDEST SWAP1 POP SWAP2 SWAP1 POP JUMP JUMPDEST PUSH1 0x0 DUP2 ISZERO ISZERO SWAP1 POP SWAP2 SWAP1 POP JUMP JUMPDEST PUSH1 0x0 PUSH20 0xFFFFFFFFFFFFFFFFFFFFFFFFFFFFFFFFFFFFFFFF DUP3 AND SWAP1 POP SWAP2 SWAP1 POP JUMP JUMPDEST PUSH1 0x0 DUP2 SWAP1 POP SWAP2 SWAP1 POP JUMP JUMPDEST PUSH1 0x0 PUSH2 0x24A3 DUP3 PUSH2 0x248E JUMP JUMPDEST SWAP2 POP PUSH32 0xFFFFFFFFFFFFFFFFFFFFFFFFFFFFFFFFFFFFFFFFFFFFFFFFFFFFFFFFFFFFFFFF DUP3 EQ ISZERO PUSH2 0x24D6 JUMPI PUSH2 0x24D5 PUSH2 0x24E1 JUMP JUMPDEST JUMPDEST PUSH1 0x1 DUP3 ADD SWAP1 POP SWAP2 SWAP1 POP JUMP JUMPDEST PUSH32 0x4E487B7100000000000000000000000000000000000000000000000000000000 PUSH1 0x0 MSTORE PUSH1 0x11 PUSH1 0x4 MSTORE PUSH1 0x24 PUSH1 0x0 REVERT JUMPDEST PUSH32 0x4E487B7100000000000000000000000000000000000000000000000000000000 PUSH1 0x0 MSTORE PUSH1 0x12 PUSH1 0x4 MSTORE PUSH1 0x24 PUSH1 0x0 REVERT JUMPDEST PUSH32 0x796F752063616E27742062757920616E206974656D20746861742062656C6F6E PUSH1 0x0 DUP3 ADD MSTORE PUSH32 0x677320746F20796F750000000000000000000000000000000000000000000000 PUSH1 0x20 DUP3 ADD MSTORE POP JUMP JUMPDEST PUSH32 0x746F6B656E2069736E277420746F2073656C6C00000000000000000000000000 PUSH1 0x0 DUP3 ADD MSTORE POP JUMP JUMPDEST PUSH32 0x746F6B656E20616C726561647920657869737400000000000000000000000000 PUSH1 0x0 DUP3 ADD MSTORE POP JUMP JUMPDEST PUSH32 0x7472616E73616374696F6E27732076616C75652063616E6E6F74206265206469 PUSH1 0x0 DUP3 ADD MSTORE PUSH32 0x66666572656E74206F66206974656D2070726963650000000000000000000000 PUSH1 0x20 DUP3 ADD MSTORE POP JUMP JUMPDEST PUSH32 0x746F6B656E20646F65736E277420657869737400000000000000000000000000 PUSH1 0x0 DUP3 ADD MSTORE POP JUMP JUMPDEST PUSH32 0x4F6E6C79206974656D2773206F776E65722063616E20646F2074686174000000 PUSH1 0x0 DUP3 ADD MSTORE POP JUMP JUMPDEST PUSH32 0x746F6B656E20697320616C726561647920746F2073656C6C0000000000000000 PUSH1 0x0 DUP3 ADD MSTORE POP JUMP JUMPDEST PUSH32 0x5468616E6B7320746F2073656E6420636F727265637420666565732076616C75 PUSH1 0x0 DUP3 ADD MSTORE PUSH32 0x6500000000000000000000000000000000000000000000000000000000000000 PUSH1 0x20 DUP3 ADD MSTORE POP JUMP JUMPDEST PUSH32 0x4F6E6C7920636F6E74726163742773206F776E65722063616E20646F20746861 PUSH1 0x0 DUP3 ADD MSTORE PUSH32 0x7400000000000000000000000000000000000000000000000000000000000000 PUSH1 0x20 DUP3 ADD MSTORE POP JUMP JUMPDEST PUSH32 0x50726963652063616E6E6F7420626520657175616C20746F2030000000000000 PUSH1 0x0 DUP3 ADD MSTORE POP JUMP JUMPDEST PUSH2 0x277A DUP2 PUSH2 0x2450 JUMP JUMPDEST DUP2 EQ PUSH2 0x2785 JUMPI PUSH1 0x0 DUP1 REVERT JUMPDEST POP JUMP JUMPDEST PUSH2 0x2791 DUP2 PUSH2 0x248E JUMP JUMPDEST DUP2 EQ PUSH2 0x279C JUMPI PUSH1 0x0 DUP1 REVERT JUMPDEST POP JUMP INVALID LOG2 PUSH5 0x6970667358 0x22 SLT KECCAK256 BLOCKHASH 0xB3 0xDE PUSH8 0xD5FC70AAD3585694 MSTORE8 0xD1 SWAP8 SLT 0x2F SWAP5 DUP1 0xB9 0x2A PUSH28 0xE199FD046530A8E7719264736F6C6343000801003300000000000000 "
				},
				"gasEstimates": {
					"creation": {
						"codeDepositCost": "2039400",
						"executionCost": "infinite",
						"totalCost": "infinite"
					},
					"external": {
						"addItemToSell(uint256)": "infinite",
						"balanceOf(address)": "1608",
						"fetchItemByDataId(uint256)": "infinite",
						"fetchItemsByCreator()": "infinite",
						"fetchItemsByOwner()": "infinite",
						"fetchItemsToSell()": "infinite",
						"fetchItemsToSellByCatId(uint256)": "infinite",
						"getCreateItemFees()": "1159",
						"getCreatorPercentage()": "1205",
						"mint(uint256,uint256,uint256)": "infinite",
						"ownerOf(uint256)": "1588",
						"removeItemToSell(uint256)": "46727",
						"sellItem(uint256)": "infinite",
						"updateCreateItemFees(uint256)": "21378",
						"updateCreatorPercentage(uint256)": "21313"
					},
					"internal": {
						"getFees(uint256,uint256)": "infinite"
					}
				},
				"methodIdentifiers": {
					"addItemToSell(uint256)": "c0f202ef",
					"balanceOf(address)": "70a08231",
					"fetchItemByDataId(uint256)": "55474257",
					"fetchItemsByCreator()": "67af7d09",
					"fetchItemsByOwner()": "4cad2ffc",
					"fetchItemsToSell()": "073e74df",
					"fetchItemsToSellByCatId(uint256)": "406693b2",
					"getCreateItemFees()": "a411d68d",
					"getCreatorPercentage()": "160035b1",
					"mint(uint256,uint256,uint256)": "02acc94b",
					"ownerOf(uint256)": "6352211e",
					"removeItemToSell(uint256)": "a4964c33",
					"sellItem(uint256)": "91b6be9a",
					"updateCreateItemFees(uint256)": "e6e95ea7",
					"updateCreatorPercentage(uint256)": "1b03427c"
				}
			},
			"storageLayout": {
				"storage": [
					{
						"astId": 86,
						"contract": "contracts/GeekNft.sol:GeekNft",
						"label": "name",
						"offset": 0,
						"slot": "0",
						"type": "t_string_storage"
					},
					{
						"astId": 88,
						"contract": "contracts/GeekNft.sol:GeekNft",
						"label": "symbol",
						"offset": 0,
						"slot": "1",
						"type": "t_string_storage"
					},
					{
						"astId": 90,
						"contract": "contracts/GeekNft.sol:GeekNft",
						"label": "owner",
						"offset": 0,
						"slot": "2",
						"type": "t_address"
					},
					{
						"astId": 103,
						"contract": "contracts/GeekNft.sol:GeekNft",
						"label": "items",
						"offset": 0,
						"slot": "3",
						"type": "t_array(t_struct(Item)99_storage)dyn_storage"
					},
					{
						"astId": 105,
						"contract": "contracts/GeekNft.sol:GeekNft",
						"label": "itemsToSellCount",
						"offset": 0,
						"slot": "4",
						"type": "t_uint256"
					},
					{
						"astId": 108,
						"contract": "contracts/GeekNft.sol:GeekNft",
						"label": "createItemFees",
						"offset": 0,
						"slot": "5",
						"type": "t_uint256"
					},
					{
						"astId": 111,
						"contract": "contracts/GeekNft.sol:GeekNft",
						"label": "creatorPercentage",
						"offset": 0,
						"slot": "6",
						"type": "t_uint256"
					},
					{
						"astId": 115,
						"contract": "contracts/GeekNft.sol:GeekNft",
						"label": "itemsOwnerCount",
						"offset": 0,
						"slot": "7",
						"type": "t_mapping(t_address,t_uint256)"
					},
					{
						"astId": 119,
						"contract": "contracts/GeekNft.sol:GeekNft",
						"label": "itemToOwner",
						"offset": 0,
						"slot": "8",
						"type": "t_mapping(t_uint256,t_address)"
					},
					{
						"astId": 123,
						"contract": "contracts/GeekNft.sol:GeekNft",
						"label": "itemsCreatorCount",
						"offset": 0,
						"slot": "9",
						"type": "t_mapping(t_address,t_uint256)"
					},
					{
						"astId": 127,
						"contract": "contracts/GeekNft.sol:GeekNft",
						"label": "itemToCreator",
						"offset": 0,
						"slot": "10",
						"type": "t_mapping(t_uint256,t_address)"
					},
					{
						"astId": 131,
						"contract": "contracts/GeekNft.sol:GeekNft",
						"label": "itemsCatIdCount",
						"offset": 0,
						"slot": "11",
						"type": "t_mapping(t_uint256,t_uint256)"
					},
					{
						"astId": 135,
						"contract": "contracts/GeekNft.sol:GeekNft",
						"label": "itemToCatId",
						"offset": 0,
						"slot": "12",
						"type": "t_mapping(t_uint256,t_uint256)"
					}
				],
				"types": {
					"t_address": {
						"encoding": "inplace",
						"label": "address",
						"numberOfBytes": "20"
					},
					"t_array(t_struct(Item)99_storage)dyn_storage": {
						"base": "t_struct(Item)99_storage",
						"encoding": "dynamic_array",
						"label": "struct GeekNft.Item[]",
						"numberOfBytes": "32"
					},
					"t_bool": {
						"encoding": "inplace",
						"label": "bool",
						"numberOfBytes": "1"
					},
					"t_mapping(t_address,t_uint256)": {
						"encoding": "mapping",
						"key": "t_address",
						"label": "mapping(address => uint256)",
						"numberOfBytes": "32",
						"value": "t_uint256"
					},
					"t_mapping(t_uint256,t_address)": {
						"encoding": "mapping",
						"key": "t_uint256",
						"label": "mapping(uint256 => address)",
						"numberOfBytes": "32",
						"value": "t_address"
					},
					"t_mapping(t_uint256,t_uint256)": {
						"encoding": "mapping",
						"key": "t_uint256",
						"label": "mapping(uint256 => uint256)",
						"numberOfBytes": "32",
						"value": "t_uint256"
					},
					"t_string_storage": {
						"encoding": "bytes",
						"label": "string",
						"numberOfBytes": "32"
					},
					"t_struct(Item)99_storage": {
						"encoding": "inplace",
						"label": "struct GeekNft.Item",
						"members": [
							{
								"astId": 92,
								"contract": "contracts/GeekNft.sol:GeekNft",
								"label": "dataId",
								"offset": 0,
								"slot": "0",
								"type": "t_uint256"
							},
							{
								"astId": 94,
								"contract": "contracts/GeekNft.sol:GeekNft",
								"label": "tokenId",
								"offset": 0,
								"slot": "1",
								"type": "t_uint256"
							},
							{
								"astId": 96,
								"contract": "contracts/GeekNft.sol:GeekNft",
								"label": "price",
								"offset": 0,
								"slot": "2",
								"type": "t_uint256"
							},
							{
								"astId": 98,
								"contract": "contracts/GeekNft.sol:GeekNft",
								"label": "toSell",
								"offset": 0,
								"slot": "3",
								"type": "t_bool"
							}
						],
						"numberOfBytes": "128"
					},
					"t_uint256": {
						"encoding": "inplace",
						"label": "uint256",
						"numberOfBytes": "32"
					}
				}
			},
			"userdoc": {
				"kind": "user",
				"methods": {},
				"version": 1
			}
		}
	}
}