{
	"contracts/GeekNftMarketPlace.sol": {
		"GeekNftMarketPlace": {
			"abi": [
				{
					"inputs": [],
					"stateMutability": "nonpayable",
					"type": "constructor"
				},
				{
					"anonymous": false,
					"inputs": [
						{
							"indexed": false,
							"internalType": "address",
							"name": "nftContract",
							"type": "address"
						},
						{
							"indexed": false,
							"internalType": "uint256",
							"name": "tokenId",
							"type": "uint256"
						},
						{
							"indexed": true,
							"internalType": "address",
							"name": "seller",
							"type": "address"
						},
						{
							"indexed": true,
							"internalType": "address",
							"name": "owner",
							"type": "address"
						},
						{
							"indexed": false,
							"internalType": "uint256",
							"name": "price",
							"type": "uint256"
						}
					],
					"name": "NFTListed",
					"type": "event"
				},
				{
					"anonymous": false,
					"inputs": [
						{
							"indexed": false,
							"internalType": "address",
							"name": "nftContract",
							"type": "address"
						},
						{
							"indexed": false,
							"internalType": "uint256",
							"name": "tokenId",
							"type": "uint256"
						},
						{
							"indexed": true,
							"internalType": "address",
							"name": "seller",
							"type": "address"
						},
						{
							"indexed": true,
							"internalType": "address",
							"name": "owner",
							"type": "address"
						},
						{
							"indexed": false,
							"internalType": "uint256",
							"name": "price",
							"type": "uint256"
						}
					],
					"name": "NFTSold",
					"type": "event"
				},
				{
					"inputs": [],
					"name": "LISTING_FEE",
					"outputs": [
						{
							"internalType": "uint256",
							"name": "",
							"type": "uint256"
						}
					],
					"stateMutability": "view",
					"type": "function"
				},
				{
					"inputs": [
						{
							"internalType": "address",
							"name": "_nftContract",
							"type": "address"
						},
						{
							"internalType": "uint256",
							"name": "_tokenId",
							"type": "uint256"
						}
					],
					"name": "buyNft",
					"outputs": [],
					"stateMutability": "payable",
					"type": "function"
				},
				{
					"inputs": [
						{
							"internalType": "address",
							"name": "_nftContract",
							"type": "address"
						},
						{
							"internalType": "uint256",
							"name": "_tokenId",
							"type": "uint256"
						},
						{
							"internalType": "uint256",
							"name": "_price",
							"type": "uint256"
						}
					],
					"name": "listNFT",
					"outputs": [],
					"stateMutability": "payable",
					"type": "function"
				}
			],
			"devdoc": {
				"kind": "dev",
				"methods": {},
				"version": 1
			},
			"evm": {
				"assembly": "    /* \"contracts/GeekNftMarketPlace.sol\":252:2265  contract GeekNftMarketPlace is ReentrancyGuard {... */\n  mstore(0x40, 0x80)\n    /* \"contracts/GeekNftMarketPlace.sol\":455:466  0.002 ether */\n  0x071afd498d0000\n    /* \"contracts/GeekNftMarketPlace.sol\":429:466  uint public LISTING_FEE = 0.002 ether */\n  0x03\n  sstore\n    /* \"contracts/GeekNftMarketPlace.sol\":1001:1067  constructor() {... */\n  callvalue\n  dup1\n  iszero\n  tag_1\n  jumpi\n  0x00\n  dup1\n  revert\ntag_1:\n  pop\n    /* \"contracts/RenntrancyGuard.sol\":127:128  1 */\n  0x01\n    /* \"contracts/RenntrancyGuard.sol\":232:239  _status */\n  0x00\n    /* \"contracts/RenntrancyGuard.sol\":232:254  _status = _NOT_ENTERED */\n  dup2\n  swap1\n  sstore\n  pop\n    /* \"contracts/GeekNftMarketPlace.sol\":1049:1059  msg.sender */\n  caller\n    /* \"contracts/GeekNftMarketPlace.sol\":1025:1038  _marketOwwner */\n  0x04\n  0x00\n    /* \"contracts/GeekNftMarketPlace.sol\":1025:1060  _marketOwwner = payable(msg.sender) */\n  0x0100\n  exp\n  dup2\n  sload\n  dup2\n  0xffffffffffffffffffffffffffffffffffffffff\n  mul\n  not\n  and\n  swap1\n  dup4\n  0xffffffffffffffffffffffffffffffffffffffff\n  and\n  mul\n  or\n  swap1\n  sstore\n  pop\n    /* \"contracts/GeekNftMarketPlace.sol\":252:2265  contract GeekNftMarketPlace is ReentrancyGuard {... */\n  dataSize(sub_0)\n  dup1\n  dataOffset(sub_0)\n  0x00\n  codecopy\n  0x00\n  return\nstop\n\nsub_0: assembly {\n        /* \"contracts/GeekNftMarketPlace.sol\":252:2265  contract GeekNftMarketPlace is ReentrancyGuard {... */\n      mstore(0x40, 0x80)\n      jumpi(tag_1, lt(calldatasize, 0x04))\n      shr(0xe0, calldataload(0x00))\n      dup1\n      0x2b86ae38\n      eq\n      tag_2\n      jumpi\n      dup1\n      0x4ddf4f8f\n      eq\n      tag_3\n      jumpi\n      dup1\n      0xad05f1b4\n      eq\n      tag_4\n      jumpi\n    tag_1:\n      0x00\n      dup1\n      revert\n        /* \"contracts/GeekNftMarketPlace.sol\":429:466  uint public LISTING_FEE = 0.002 ether */\n    tag_2:\n      callvalue\n      dup1\n      iszero\n      tag_5\n      jumpi\n      0x00\n      dup1\n      revert\n    tag_5:\n      pop\n      tag_6\n      tag_7\n      jump\t// in\n    tag_6:\n      mload(0x40)\n      tag_8\n      swap2\n      swap1\n      tag_9\n      jump\t// in\n    tag_8:\n      mload(0x40)\n      dup1\n      swap2\n      sub\n      swap1\n      return\n        /* \"contracts/GeekNftMarketPlace.sol\":1861:2263  function buyNft(address _nftContract, uint _tokenId) public payable nonReentrant{... */\n    tag_3:\n      tag_10\n      0x04\n      dup1\n      calldatasize\n      sub\n      dup2\n      add\n      swap1\n      tag_11\n      swap2\n      swap1\n      tag_12\n      jump\t// in\n    tag_11:\n      tag_13\n      jump\t// in\n    tag_10:\n      stop\n        /* \"contracts/GeekNftMarketPlace.sol\":1112:1837  function listNFT(address _nftContract, uint _tokenId, uint _price) public payable nonReentrant{... */\n    tag_4:\n      tag_14\n      0x04\n      dup1\n      calldatasize\n      sub\n      dup2\n      add\n      swap1\n      tag_15\n      swap2\n      swap1\n      tag_16\n      jump\t// in\n    tag_15:\n      tag_17\n      jump\t// in\n    tag_14:\n      stop\n        /* \"contracts/GeekNftMarketPlace.sol\":429:466  uint public LISTING_FEE = 0.002 ether */\n    tag_7:\n      sload(0x03)\n      dup2\n      jump\t// out\n        /* \"contracts/GeekNftMarketPlace.sol\":1861:2263  function buyNft(address _nftContract, uint _tokenId) public payable nonReentrant{... */\n    tag_13:\n        /* \"contracts/RenntrancyGuard.sol\":170:171  2 */\n      0x02\n        /* \"contracts/RenntrancyGuard.sol\":309:316  _status */\n      sload(0x00)\n        /* \"contracts/RenntrancyGuard.sol\":309:328  _status != _ENTERED */\n      eq\n      iszero\n        /* \"contracts/RenntrancyGuard.sol\":301:364  require(_status != _ENTERED, \"ReentrancyGuard: reentrant call\") */\n      tag_19\n      jumpi\n      mload(0x40)\n      0x08c379a000000000000000000000000000000000000000000000000000000000\n      dup2\n      mstore\n      0x04\n      add\n      tag_20\n      swap1\n      tag_21\n      jump\t// in\n    tag_20:\n      mload(0x40)\n      dup1\n      swap2\n      sub\n      swap1\n      revert\n    tag_19:\n        /* \"contracts/RenntrancyGuard.sol\":170:171  2 */\n      0x02\n        /* \"contracts/RenntrancyGuard.sol\":374:381  _status */\n      0x00\n        /* \"contracts/RenntrancyGuard.sol\":374:392  _status = _ENTERED */\n      dup2\n      swap1\n      sstore\n      pop\n        /* \"contracts/GeekNftMarketPlace.sol\":1951:1966  NFT storage nft */\n      0x00\n        /* \"contracts/GeekNftMarketPlace.sol\":1969:1977  _idToNft */\n      0x05\n        /* \"contracts/GeekNftMarketPlace.sol\":1969:1987  _idToNft[_tokenId] */\n      0x00\n        /* \"contracts/GeekNftMarketPlace.sol\":1978:1986  _tokenId */\n      dup4\n        /* \"contracts/GeekNftMarketPlace.sol\":1969:1987  _idToNft[_tokenId] */\n      dup2\n      mstore\n      0x20\n      add\n      swap1\n      dup2\n      mstore\n      0x20\n      add\n      0x00\n      keccak256\n        /* \"contracts/GeekNftMarketPlace.sol\":1951:1987  NFT storage nft = _idToNft[_tokenId] */\n      swap1\n      pop\n        /* \"contracts/GeekNftMarketPlace.sol\":2018:2021  nft */\n      dup1\n        /* \"contracts/GeekNftMarketPlace.sol\":2018:2027  nft.price */\n      0x02\n      add\n      sload\n        /* \"contracts/GeekNftMarketPlace.sol\":2005:2014  msg.value */\n      callvalue\n        /* \"contracts/GeekNftMarketPlace.sol\":2005:2027  msg.value >= nft.price */\n      lt\n      iszero\n        /* \"contracts/GeekNftMarketPlace.sol\":1997:2070  require(msg.value >= nft.price, \"Not enough ether to cover asking price\") */\n      tag_23\n      jumpi\n      mload(0x40)\n      0x08c379a000000000000000000000000000000000000000000000000000000000\n      dup2\n      mstore\n      0x04\n      add\n      tag_24\n      swap1\n      tag_25\n      jump\t// in\n    tag_24:\n      mload(0x40)\n      dup1\n      swap2\n      sub\n      swap1\n      revert\n    tag_23:\n        /* \"contracts/GeekNftMarketPlace.sol\":2081:2102  address payable buyer */\n      0x00\n        /* \"contracts/GeekNftMarketPlace.sol\":2113:2123  msg.sender */\n      caller\n        /* \"contracts/GeekNftMarketPlace.sol\":2081:2124  address payable buyer = payable(msg.sender) */\n      swap1\n      pop\n        /* \"contracts/GeekNftMarketPlace.sol\":2134:2137  nft */\n      dup2\n        /* \"contracts/GeekNftMarketPlace.sol\":2134:2144  nft.seller */\n      0x03\n      add\n      0x00\n      swap1\n      sload\n      swap1\n      0x0100\n      exp\n      swap1\n      div\n      0xffffffffffffffffffffffffffffffffffffffff\n      and\n        /* \"contracts/GeekNftMarketPlace.sol\":2134:2153  nft.seller.transfer */\n      0xffffffffffffffffffffffffffffffffffffffff\n      and\n        /* \"contracts/GeekNftMarketPlace.sol\":2134:2164  nft.seller.transfer(msg.value) */\n      0x08fc\n        /* \"contracts/GeekNftMarketPlace.sol\":2154:2163  msg.value */\n      callvalue\n        /* \"contracts/GeekNftMarketPlace.sol\":2134:2164  nft.seller.transfer(msg.value) */\n      swap1\n      dup2\n      iszero\n      mul\n      swap1\n      mload(0x40)\n      0x00\n      mload(0x40)\n      dup1\n      dup4\n      sub\n      dup2\n      dup6\n      dup9\n      dup9\n      call\n      swap4\n      pop\n      pop\n      pop\n      pop\n      iszero\n      dup1\n      iszero\n      tag_27\n      jumpi\n      returndatasize\n      0x00\n      dup1\n      returndatacopy\n      revert(0x00, returndatasize)\n    tag_27:\n      pop\n        /* \"contracts/GeekNftMarketPlace.sol\":2192:2204  _nftContract */\n      dup4\n        /* \"contracts/GeekNftMarketPlace.sol\":2175:2218  GeekNftInterface(_nftContract).transferFrom */\n      0xffffffffffffffffffffffffffffffffffffffff\n      and\n      0x23b872dd\n        /* \"contracts/GeekNftMarketPlace.sol\":2219:2229  msg.sender */\n      caller\n        /* \"contracts/GeekNftMarketPlace.sol\":2239:2243  this */\n      address\n        /* \"contracts/GeekNftMarketPlace.sol\":2246:2254  _tokenId */\n      dup7\n        /* \"contracts/GeekNftMarketPlace.sol\":2175:2255  GeekNftInterface(_nftContract).transferFrom(msg.sender, address(this), _tokenId) */\n      mload(0x40)\n      dup5\n      0xffffffff\n      and\n      0xe0\n      shl\n      dup2\n      mstore\n      0x04\n      add\n      tag_28\n      swap4\n      swap3\n      swap2\n      swap1\n      tag_29\n      jump\t// in\n    tag_28:\n      0x00\n      mload(0x40)\n      dup1\n      dup4\n      sub\n      dup2\n      0x00\n      dup8\n      dup1\n      extcodesize\n      iszero\n      dup1\n      iszero\n      tag_30\n      jumpi\n      0x00\n      dup1\n      revert\n    tag_30:\n      pop\n      gas\n      call\n      iszero\n      dup1\n      iszero\n      tag_32\n      jumpi\n      returndatasize\n      0x00\n      dup1\n      returndatacopy\n      revert(0x00, returndatasize)\n    tag_32:\n      pop\n      pop\n      pop\n      pop\n        /* \"contracts/RenntrancyGuard.sol\":402:403  _ */\n      pop\n      pop\n        /* \"contracts/RenntrancyGuard.sol\":127:128  1 */\n      0x01\n        /* \"contracts/RenntrancyGuard.sol\":413:420  _status */\n      0x00\n        /* \"contracts/RenntrancyGuard.sol\":413:435  _status = _NOT_ENTERED */\n      dup2\n      swap1\n      sstore\n      pop\n        /* \"contracts/GeekNftMarketPlace.sol\":1861:2263  function buyNft(address _nftContract, uint _tokenId) public payable nonReentrant{... */\n      pop\n      pop\n      jump\t// out\n        /* \"contracts/GeekNftMarketPlace.sol\":1112:1837  function listNFT(address _nftContract, uint _tokenId, uint _price) public payable nonReentrant{... */\n    tag_17:\n        /* \"contracts/RenntrancyGuard.sol\":170:171  2 */\n      0x02\n        /* \"contracts/RenntrancyGuard.sol\":309:316  _status */\n      sload(0x00)\n        /* \"contracts/RenntrancyGuard.sol\":309:328  _status != _ENTERED */\n      eq\n      iszero\n        /* \"contracts/RenntrancyGuard.sol\":301:364  require(_status != _ENTERED, \"ReentrancyGuard: reentrant call\") */\n      tag_34\n      jumpi\n      mload(0x40)\n      0x08c379a000000000000000000000000000000000000000000000000000000000\n      dup2\n      mstore\n      0x04\n      add\n      tag_35\n      swap1\n      tag_21\n      jump\t// in\n    tag_35:\n      mload(0x40)\n      dup1\n      swap2\n      sub\n      swap1\n      revert\n    tag_34:\n        /* \"contracts/RenntrancyGuard.sol\":170:171  2 */\n      0x02\n        /* \"contracts/RenntrancyGuard.sol\":374:381  _status */\n      0x00\n        /* \"contracts/RenntrancyGuard.sol\":374:392  _status = _ENTERED */\n      dup2\n      swap1\n      sstore\n      pop\n        /* \"contracts/GeekNftMarketPlace.sol\":1233:1234  0 */\n      0x00\n        /* \"contracts/GeekNftMarketPlace.sol\":1224:1230  _price */\n      dup2\n        /* \"contracts/GeekNftMarketPlace.sol\":1224:1234  _price > 0 */\n      gt\n        /* \"contracts/GeekNftMarketPlace.sol\":1216:1267  require(_price > 0, \"Price must be at least 1 wei\") */\n      tag_37\n      jumpi\n      mload(0x40)\n      0x08c379a000000000000000000000000000000000000000000000000000000000\n      dup2\n      mstore\n      0x04\n      add\n      tag_38\n      swap1\n      tag_39\n      jump\t// in\n    tag_38:\n      mload(0x40)\n      dup1\n      swap2\n      sub\n      swap1\n      revert\n    tag_37:\n        /* \"contracts/GeekNftMarketPlace.sol\":1298:1309  LISTING_FEE */\n      sload(0x03)\n        /* \"contracts/GeekNftMarketPlace.sol\":1285:1294  msg.value */\n      callvalue\n        /* \"contracts/GeekNftMarketPlace.sol\":1285:1309  msg.value == LISTING_FEE */\n      eq\n        /* \"contracts/GeekNftMarketPlace.sol\":1277:1346  require(msg.value == LISTING_FEE, \"Not enough ether for listing fee\") */\n      tag_40\n      jumpi\n      mload(0x40)\n      0x08c379a000000000000000000000000000000000000000000000000000000000\n      dup2\n      mstore\n      0x04\n      add\n      tag_41\n      swap1\n      tag_42\n      jump\t// in\n    tag_41:\n      mload(0x40)\n      dup1\n      swap2\n      sub\n      swap1\n      revert\n    tag_40:\n        /* \"contracts/GeekNftMarketPlace.sol\":1374:1386  _nftContract */\n      dup3\n        /* \"contracts/GeekNftMarketPlace.sol\":1357:1400  GeekNftInterface(_nftContract).transferFrom */\n      0xffffffffffffffffffffffffffffffffffffffff\n      and\n      0x23b872dd\n        /* \"contracts/GeekNftMarketPlace.sol\":1401:1411  msg.sender */\n      caller\n        /* \"contracts/GeekNftMarketPlace.sol\":1421:1425  this */\n      address\n        /* \"contracts/GeekNftMarketPlace.sol\":1428:1436  _tokenId */\n      dup6\n        /* \"contracts/GeekNftMarketPlace.sol\":1357:1437  GeekNftInterface(_nftContract).transferFrom(msg.sender, address(this), _tokenId) */\n      mload(0x40)\n      dup5\n      0xffffffff\n      and\n      0xe0\n      shl\n      dup2\n      mstore\n      0x04\n      add\n      tag_43\n      swap4\n      swap3\n      swap2\n      swap1\n      tag_29\n      jump\t// in\n    tag_43:\n      0x00\n      mload(0x40)\n      dup1\n      dup4\n      sub\n      dup2\n      0x00\n      dup8\n      dup1\n      extcodesize\n      iszero\n      dup1\n      iszero\n      tag_44\n      jumpi\n      0x00\n      dup1\n      revert\n    tag_44:\n      pop\n      gas\n      call\n      iszero\n      dup1\n      iszero\n      tag_46\n      jumpi\n      returndatasize\n      0x00\n      dup1\n      returndatacopy\n      revert(0x00, returndatasize)\n    tag_46:\n      pop\n      pop\n      pop\n      pop\n        /* \"contracts/GeekNftMarketPlace.sol\":1447:1469  _nftsCount.increment() */\n      tag_47\n        /* \"contracts/GeekNftMarketPlace.sol\":1447:1457  _nftsCount */\n      0x02\n        /* \"contracts/GeekNftMarketPlace.sol\":1447:1467  _nftsCount.increment */\n      tag_48\n        /* \"contracts/GeekNftMarketPlace.sol\":1447:1469  _nftsCount.increment() */\n      jump\t// in\n    tag_47:\n        /* \"contracts/GeekNftMarketPlace.sol\":1501:1702  NFT(... */\n      mload(0x40)\n      dup1\n      0xe0\n      add\n      0x40\n      mstore\n      dup1\n        /* \"contracts/GeekNftMarketPlace.sol\":1518:1530  _nftContract */\n      dup5\n        /* \"contracts/GeekNftMarketPlace.sol\":1501:1702  NFT(... */\n      0xffffffffffffffffffffffffffffffffffffffff\n      and\n      dup2\n      mstore\n      0x20\n      add\n        /* \"contracts/GeekNftMarketPlace.sol\":1544:1552  _tokenId */\n      dup4\n        /* \"contracts/GeekNftMarketPlace.sol\":1501:1702  NFT(... */\n      dup2\n      mstore\n      0x20\n      add\n        /* \"contracts/GeekNftMarketPlace.sol\":1566:1572  _price */\n      dup3\n        /* \"contracts/GeekNftMarketPlace.sol\":1501:1702  NFT(... */\n      dup2\n      mstore\n      0x20\n      add\n        /* \"contracts/GeekNftMarketPlace.sol\":1594:1604  msg.sender */\n      caller\n        /* \"contracts/GeekNftMarketPlace.sol\":1501:1702  NFT(... */\n      0xffffffffffffffffffffffffffffffffffffffff\n      and\n      dup2\n      mstore\n      0x20\n      add\n        /* \"contracts/GeekNftMarketPlace.sol\":1635:1639  this */\n      address\n        /* \"contracts/GeekNftMarketPlace.sol\":1501:1702  NFT(... */\n      0xffffffffffffffffffffffffffffffffffffffff\n      and\n      dup2\n      mstore\n      0x20\n      add\n        /* \"contracts/GeekNftMarketPlace.sol\":1663:1673  msg.sender */\n      caller\n        /* \"contracts/GeekNftMarketPlace.sol\":1501:1702  NFT(... */\n      0xffffffffffffffffffffffffffffffffffffffff\n      and\n      dup2\n      mstore\n      0x20\n      add\n        /* \"contracts/GeekNftMarketPlace.sol\":1688:1692  true */\n      0x01\n        /* \"contracts/GeekNftMarketPlace.sol\":1501:1702  NFT(... */\n      iszero\n      iszero\n      dup2\n      mstore\n      pop\n        /* \"contracts/GeekNftMarketPlace.sol\":1480:1488  _idToNft */\n      0x05\n        /* \"contracts/GeekNftMarketPlace.sol\":1480:1498  _idToNft[_tokenId] */\n      0x00\n        /* \"contracts/GeekNftMarketPlace.sol\":1489:1497  _tokenId */\n      dup5\n        /* \"contracts/GeekNftMarketPlace.sol\":1480:1498  _idToNft[_tokenId] */\n      dup2\n      mstore\n      0x20\n      add\n      swap1\n      dup2\n      mstore\n      0x20\n      add\n      0x00\n      keccak256\n        /* \"contracts/GeekNftMarketPlace.sol\":1480:1702  _idToNft[_tokenId] = NFT(... */\n      0x00\n      dup3\n      add\n      mload\n      dup2\n      0x00\n      add\n      exp(0x0100, 0x00)\n      dup2\n      sload\n      dup2\n      0xffffffffffffffffffffffffffffffffffffffff\n      mul\n      not\n      and\n      swap1\n      dup4\n      0xffffffffffffffffffffffffffffffffffffffff\n      and\n      mul\n      or\n      swap1\n      sstore\n      pop\n      0x20\n      dup3\n      add\n      mload\n      dup2\n      0x01\n      add\n      sstore\n      0x40\n      dup3\n      add\n      mload\n      dup2\n      0x02\n      add\n      sstore\n      0x60\n      dup3\n      add\n      mload\n      dup2\n      0x03\n      add\n      exp(0x0100, 0x00)\n      dup2\n      sload\n      dup2\n      0xffffffffffffffffffffffffffffffffffffffff\n      mul\n      not\n      and\n      swap1\n      dup4\n      0xffffffffffffffffffffffffffffffffffffffff\n      and\n      mul\n      or\n      swap1\n      sstore\n      pop\n      0x80\n      dup3\n      add\n      mload\n      dup2\n      0x04\n      add\n      exp(0x0100, 0x00)\n      dup2\n      sload\n      dup2\n      0xffffffffffffffffffffffffffffffffffffffff\n      mul\n      not\n      and\n      swap1\n      dup4\n      0xffffffffffffffffffffffffffffffffffffffff\n      and\n      mul\n      or\n      swap1\n      sstore\n      pop\n      0xa0\n      dup3\n      add\n      mload\n      dup2\n      0x05\n      add\n      exp(0x0100, 0x00)\n      dup2\n      sload\n      dup2\n      0xffffffffffffffffffffffffffffffffffffffff\n      mul\n      not\n      and\n      swap1\n      dup4\n      0xffffffffffffffffffffffffffffffffffffffff\n      and\n      mul\n      or\n      swap1\n      sstore\n      pop\n      0xc0\n      dup3\n      add\n      mload\n      dup2\n      0x05\n      add\n      exp(0x0100, 0x14)\n      dup2\n      sload\n      dup2\n      0xff\n      mul\n      not\n      and\n      swap1\n      dup4\n      iszero\n      iszero\n      mul\n      or\n      swap1\n      sstore\n      pop\n      swap1\n      pop\n      pop\n        /* \"contracts/GeekNftMarketPlace.sol\":1713:1726  _marketOwwner */\n      0x04\n      0x00\n      swap1\n      sload\n      swap1\n      0x0100\n      exp\n      swap1\n      div\n      0xffffffffffffffffffffffffffffffffffffffff\n      and\n        /* \"contracts/GeekNftMarketPlace.sol\":1713:1735  _marketOwwner.transfer */\n      0xffffffffffffffffffffffffffffffffffffffff\n      and\n        /* \"contracts/GeekNftMarketPlace.sol\":1713:1746  _marketOwwner.transfer(msg.value) */\n      0x08fc\n        /* \"contracts/GeekNftMarketPlace.sol\":1736:1745  msg.value */\n      callvalue\n        /* \"contracts/GeekNftMarketPlace.sol\":1713:1746  _marketOwwner.transfer(msg.value) */\n      swap1\n      dup2\n      iszero\n      mul\n      swap1\n      mload(0x40)\n      0x00\n      mload(0x40)\n      dup1\n      dup4\n      sub\n      dup2\n      dup6\n      dup9\n      dup9\n      call\n      swap4\n      pop\n      pop\n      pop\n      pop\n      iszero\n      dup1\n      iszero\n      tag_50\n      jumpi\n      returndatasize\n      0x00\n      dup1\n      returndatacopy\n      revert(0x00, returndatasize)\n    tag_50:\n      pop\n        /* \"contracts/GeekNftMarketPlace.sol\":1816:1820  this */\n      address\n        /* \"contracts/GeekNftMarketPlace.sol\":1762:1830  NFTListed(_nftContract, _tokenId, msg.sender, address(this), _price) */\n      0xffffffffffffffffffffffffffffffffffffffff\n      and\n        /* \"contracts/GeekNftMarketPlace.sol\":1796:1806  msg.sender */\n      caller\n        /* \"contracts/GeekNftMarketPlace.sol\":1762:1830  NFTListed(_nftContract, _tokenId, msg.sender, address(this), _price) */\n      0xffffffffffffffffffffffffffffffffffffffff\n      and\n      0xa0c6c0d02d86fdacecbaa5fdf5894bab204e31a778250474108540733a9b8d19\n        /* \"contracts/GeekNftMarketPlace.sol\":1772:1784  _nftContract */\n      dup6\n        /* \"contracts/GeekNftMarketPlace.sol\":1786:1794  _tokenId */\n      dup6\n        /* \"contracts/GeekNftMarketPlace.sol\":1823:1829  _price */\n      dup6\n        /* \"contracts/GeekNftMarketPlace.sol\":1762:1830  NFTListed(_nftContract, _tokenId, msg.sender, address(this), _price) */\n      mload(0x40)\n      tag_51\n      swap4\n      swap3\n      swap2\n      swap1\n      tag_52\n      jump\t// in\n    tag_51:\n      mload(0x40)\n      dup1\n      swap2\n      sub\n      swap1\n      log3\n        /* \"contracts/RenntrancyGuard.sol\":127:128  1 */\n      0x01\n        /* \"contracts/RenntrancyGuard.sol\":413:420  _status */\n      0x00\n        /* \"contracts/RenntrancyGuard.sol\":413:435  _status = _NOT_ENTERED */\n      dup2\n      swap1\n      sstore\n      pop\n        /* \"contracts/GeekNftMarketPlace.sol\":1112:1837  function listNFT(address _nftContract, uint _tokenId, uint _price) public payable nonReentrant{... */\n      pop\n      pop\n      pop\n      jump\t// out\n        /* \"@openzeppelin/contracts/utils/Counters.sol\":945:1068  function increment(Counter storage counter) internal {... */\n    tag_48:\n        /* \"@openzeppelin/contracts/utils/Counters.sol\":1050:1051  1 */\n      0x01\n        /* \"@openzeppelin/contracts/utils/Counters.sol\":1032:1039  counter */\n      dup2\n        /* \"@openzeppelin/contracts/utils/Counters.sol\":1032:1046  counter._value */\n      0x00\n      add\n      0x00\n        /* \"@openzeppelin/contracts/utils/Counters.sol\":1032:1051  counter._value += 1 */\n      dup3\n      dup3\n      sload\n      add\n      swap3\n      pop\n      pop\n      dup2\n      swap1\n      sstore\n      pop\n        /* \"@openzeppelin/contracts/utils/Counters.sol\":945:1068  function increment(Counter storage counter) internal {... */\n      pop\n      jump\t// out\n        /* \"#utility.yul\":7:146   */\n    tag_55:\n      0x00\n        /* \"#utility.yul\":91:97   */\n      dup2\n        /* \"#utility.yul\":78:98   */\n      calldataload\n        /* \"#utility.yul\":69:98   */\n      swap1\n      pop\n        /* \"#utility.yul\":107:140   */\n      tag_57\n        /* \"#utility.yul\":134:139   */\n      dup2\n        /* \"#utility.yul\":107:140   */\n      tag_58\n      jump\t// in\n    tag_57:\n        /* \"#utility.yul\":59:146   */\n      swap3\n      swap2\n      pop\n      pop\n      jump\t// out\n        /* \"#utility.yul\":152:291   */\n    tag_59:\n      0x00\n        /* \"#utility.yul\":236:242   */\n      dup2\n        /* \"#utility.yul\":223:243   */\n      calldataload\n        /* \"#utility.yul\":214:243   */\n      swap1\n      pop\n        /* \"#utility.yul\":252:285   */\n      tag_61\n        /* \"#utility.yul\":279:284   */\n      dup2\n        /* \"#utility.yul\":252:285   */\n      tag_62\n      jump\t// in\n    tag_61:\n        /* \"#utility.yul\":204:291   */\n      swap3\n      swap2\n      pop\n      pop\n      jump\t// out\n        /* \"#utility.yul\":297:704   */\n    tag_12:\n      0x00\n      dup1\n        /* \"#utility.yul\":422:424   */\n      0x40\n        /* \"#utility.yul\":410:419   */\n      dup4\n        /* \"#utility.yul\":401:408   */\n      dup6\n        /* \"#utility.yul\":397:420   */\n      sub\n        /* \"#utility.yul\":393:425   */\n      slt\n        /* \"#utility.yul\":390:392   */\n      iszero\n      tag_64\n      jumpi\n        /* \"#utility.yul\":438:439   */\n      0x00\n        /* \"#utility.yul\":435:436   */\n      dup1\n        /* \"#utility.yul\":428:440   */\n      revert\n        /* \"#utility.yul\":390:392   */\n    tag_64:\n        /* \"#utility.yul\":481:482   */\n      0x00\n        /* \"#utility.yul\":506:559   */\n      tag_65\n        /* \"#utility.yul\":551:558   */\n      dup6\n        /* \"#utility.yul\":542:548   */\n      dup3\n        /* \"#utility.yul\":531:540   */\n      dup7\n        /* \"#utility.yul\":527:549   */\n      add\n        /* \"#utility.yul\":506:559   */\n      tag_55\n      jump\t// in\n    tag_65:\n        /* \"#utility.yul\":496:559   */\n      swap3\n      pop\n        /* \"#utility.yul\":452:569   */\n      pop\n        /* \"#utility.yul\":608:610   */\n      0x20\n        /* \"#utility.yul\":634:687   */\n      tag_66\n        /* \"#utility.yul\":679:686   */\n      dup6\n        /* \"#utility.yul\":670:676   */\n      dup3\n        /* \"#utility.yul\":659:668   */\n      dup7\n        /* \"#utility.yul\":655:677   */\n      add\n        /* \"#utility.yul\":634:687   */\n      tag_59\n      jump\t// in\n    tag_66:\n        /* \"#utility.yul\":624:687   */\n      swap2\n      pop\n        /* \"#utility.yul\":579:697   */\n      pop\n        /* \"#utility.yul\":380:704   */\n      swap3\n      pop\n      swap3\n      swap1\n      pop\n      jump\t// out\n        /* \"#utility.yul\":710:1262   */\n    tag_16:\n      0x00\n      dup1\n      0x00\n        /* \"#utility.yul\":852:854   */\n      0x60\n        /* \"#utility.yul\":840:849   */\n      dup5\n        /* \"#utility.yul\":831:838   */\n      dup7\n        /* \"#utility.yul\":827:850   */\n      sub\n        /* \"#utility.yul\":823:855   */\n      slt\n        /* \"#utility.yul\":820:822   */\n      iszero\n      tag_68\n      jumpi\n        /* \"#utility.yul\":868:869   */\n      0x00\n        /* \"#utility.yul\":865:866   */\n      dup1\n        /* \"#utility.yul\":858:870   */\n      revert\n        /* \"#utility.yul\":820:822   */\n    tag_68:\n        /* \"#utility.yul\":911:912   */\n      0x00\n        /* \"#utility.yul\":936:989   */\n      tag_69\n        /* \"#utility.yul\":981:988   */\n      dup7\n        /* \"#utility.yul\":972:978   */\n      dup3\n        /* \"#utility.yul\":961:970   */\n      dup8\n        /* \"#utility.yul\":957:979   */\n      add\n        /* \"#utility.yul\":936:989   */\n      tag_55\n      jump\t// in\n    tag_69:\n        /* \"#utility.yul\":926:989   */\n      swap4\n      pop\n        /* \"#utility.yul\":882:999   */\n      pop\n        /* \"#utility.yul\":1038:1040   */\n      0x20\n        /* \"#utility.yul\":1064:1117   */\n      tag_70\n        /* \"#utility.yul\":1109:1116   */\n      dup7\n        /* \"#utility.yul\":1100:1106   */\n      dup3\n        /* \"#utility.yul\":1089:1098   */\n      dup8\n        /* \"#utility.yul\":1085:1107   */\n      add\n        /* \"#utility.yul\":1064:1117   */\n      tag_59\n      jump\t// in\n    tag_70:\n        /* \"#utility.yul\":1054:1117   */\n      swap3\n      pop\n        /* \"#utility.yul\":1009:1127   */\n      pop\n        /* \"#utility.yul\":1166:1168   */\n      0x40\n        /* \"#utility.yul\":1192:1245   */\n      tag_71\n        /* \"#utility.yul\":1237:1244   */\n      dup7\n        /* \"#utility.yul\":1228:1234   */\n      dup3\n        /* \"#utility.yul\":1217:1226   */\n      dup8\n        /* \"#utility.yul\":1213:1235   */\n      add\n        /* \"#utility.yul\":1192:1245   */\n      tag_59\n      jump\t// in\n    tag_71:\n        /* \"#utility.yul\":1182:1245   */\n      swap2\n      pop\n        /* \"#utility.yul\":1137:1255   */\n      pop\n        /* \"#utility.yul\":810:1262   */\n      swap3\n      pop\n      swap3\n      pop\n      swap3\n      jump\t// out\n        /* \"#utility.yul\":1268:1386   */\n    tag_72:\n        /* \"#utility.yul\":1355:1379   */\n      tag_74\n        /* \"#utility.yul\":1373:1378   */\n      dup2\n        /* \"#utility.yul\":1355:1379   */\n      tag_75\n      jump\t// in\n    tag_74:\n        /* \"#utility.yul\":1350:1353   */\n      dup3\n        /* \"#utility.yul\":1343:1380   */\n      mstore\n        /* \"#utility.yul\":1333:1386   */\n      pop\n      pop\n      jump\t// out\n        /* \"#utility.yul\":1392:1758   */\n    tag_76:\n      0x00\n        /* \"#utility.yul\":1555:1622   */\n      tag_78\n        /* \"#utility.yul\":1619:1621   */\n      0x26\n        /* \"#utility.yul\":1614:1617   */\n      dup4\n        /* \"#utility.yul\":1555:1622   */\n      tag_79\n      jump\t// in\n    tag_78:\n        /* \"#utility.yul\":1548:1622   */\n      swap2\n      pop\n        /* \"#utility.yul\":1631:1724   */\n      tag_80\n        /* \"#utility.yul\":1720:1723   */\n      dup3\n        /* \"#utility.yul\":1631:1724   */\n      tag_81\n      jump\t// in\n    tag_80:\n        /* \"#utility.yul\":1749:1751   */\n      0x40\n        /* \"#utility.yul\":1744:1747   */\n      dup3\n        /* \"#utility.yul\":1740:1752   */\n      add\n        /* \"#utility.yul\":1733:1752   */\n      swap1\n      pop\n        /* \"#utility.yul\":1538:1758   */\n      swap2\n      swap1\n      pop\n      jump\t// out\n        /* \"#utility.yul\":1764:2130   */\n    tag_82:\n      0x00\n        /* \"#utility.yul\":1927:1994   */\n      tag_84\n        /* \"#utility.yul\":1991:1993   */\n      0x20\n        /* \"#utility.yul\":1986:1989   */\n      dup4\n        /* \"#utility.yul\":1927:1994   */\n      tag_79\n      jump\t// in\n    tag_84:\n        /* \"#utility.yul\":1920:1994   */\n      swap2\n      pop\n        /* \"#utility.yul\":2003:2096   */\n      tag_85\n        /* \"#utility.yul\":2092:2095   */\n      dup3\n        /* \"#utility.yul\":2003:2096   */\n      tag_86\n      jump\t// in\n    tag_85:\n        /* \"#utility.yul\":2121:2123   */\n      0x20\n        /* \"#utility.yul\":2116:2119   */\n      dup3\n        /* \"#utility.yul\":2112:2124   */\n      add\n        /* \"#utility.yul\":2105:2124   */\n      swap1\n      pop\n        /* \"#utility.yul\":1910:2130   */\n      swap2\n      swap1\n      pop\n      jump\t// out\n        /* \"#utility.yul\":2136:2502   */\n    tag_87:\n      0x00\n        /* \"#utility.yul\":2299:2366   */\n      tag_89\n        /* \"#utility.yul\":2363:2365   */\n      0x1f\n        /* \"#utility.yul\":2358:2361   */\n      dup4\n        /* \"#utility.yul\":2299:2366   */\n      tag_79\n      jump\t// in\n    tag_89:\n        /* \"#utility.yul\":2292:2366   */\n      swap2\n      pop\n        /* \"#utility.yul\":2375:2468   */\n      tag_90\n        /* \"#utility.yul\":2464:2467   */\n      dup3\n        /* \"#utility.yul\":2375:2468   */\n      tag_91\n      jump\t// in\n    tag_90:\n        /* \"#utility.yul\":2493:2495   */\n      0x20\n        /* \"#utility.yul\":2488:2491   */\n      dup3\n        /* \"#utility.yul\":2484:2496   */\n      add\n        /* \"#utility.yul\":2477:2496   */\n      swap1\n      pop\n        /* \"#utility.yul\":2282:2502   */\n      swap2\n      swap1\n      pop\n      jump\t// out\n        /* \"#utility.yul\":2508:2874   */\n    tag_92:\n      0x00\n        /* \"#utility.yul\":2671:2738   */\n      tag_94\n        /* \"#utility.yul\":2735:2737   */\n      0x1c\n        /* \"#utility.yul\":2730:2733   */\n      dup4\n        /* \"#utility.yul\":2671:2738   */\n      tag_79\n      jump\t// in\n    tag_94:\n        /* \"#utility.yul\":2664:2738   */\n      swap2\n      pop\n        /* \"#utility.yul\":2747:2840   */\n      tag_95\n        /* \"#utility.yul\":2836:2839   */\n      dup3\n        /* \"#utility.yul\":2747:2840   */\n      tag_96\n      jump\t// in\n    tag_95:\n        /* \"#utility.yul\":2865:2867   */\n      0x20\n        /* \"#utility.yul\":2860:2863   */\n      dup3\n        /* \"#utility.yul\":2856:2868   */\n      add\n        /* \"#utility.yul\":2849:2868   */\n      swap1\n      pop\n        /* \"#utility.yul\":2654:2874   */\n      swap2\n      swap1\n      pop\n      jump\t// out\n        /* \"#utility.yul\":2880:2998   */\n    tag_97:\n        /* \"#utility.yul\":2967:2991   */\n      tag_99\n        /* \"#utility.yul\":2985:2990   */\n      dup2\n        /* \"#utility.yul\":2967:2991   */\n      tag_100\n      jump\t// in\n    tag_99:\n        /* \"#utility.yul\":2962:2965   */\n      dup3\n        /* \"#utility.yul\":2955:2992   */\n      mstore\n        /* \"#utility.yul\":2945:2998   */\n      pop\n      pop\n      jump\t// out\n        /* \"#utility.yul\":3004:3446   */\n    tag_29:\n      0x00\n        /* \"#utility.yul\":3191:3193   */\n      0x60\n        /* \"#utility.yul\":3180:3189   */\n      dup3\n        /* \"#utility.yul\":3176:3194   */\n      add\n        /* \"#utility.yul\":3168:3194   */\n      swap1\n      pop\n        /* \"#utility.yul\":3204:3275   */\n      tag_102\n        /* \"#utility.yul\":3272:3273   */\n      0x00\n        /* \"#utility.yul\":3261:3270   */\n      dup4\n        /* \"#utility.yul\":3257:3274   */\n      add\n        /* \"#utility.yul\":3248:3254   */\n      dup7\n        /* \"#utility.yul\":3204:3275   */\n      tag_72\n      jump\t// in\n    tag_102:\n        /* \"#utility.yul\":3285:3357   */\n      tag_103\n        /* \"#utility.yul\":3353:3355   */\n      0x20\n        /* \"#utility.yul\":3342:3351   */\n      dup4\n        /* \"#utility.yul\":3338:3356   */\n      add\n        /* \"#utility.yul\":3329:3335   */\n      dup6\n        /* \"#utility.yul\":3285:3357   */\n      tag_72\n      jump\t// in\n    tag_103:\n        /* \"#utility.yul\":3367:3439   */\n      tag_104\n        /* \"#utility.yul\":3435:3437   */\n      0x40\n        /* \"#utility.yul\":3424:3433   */\n      dup4\n        /* \"#utility.yul\":3420:3438   */\n      add\n        /* \"#utility.yul\":3411:3417   */\n      dup5\n        /* \"#utility.yul\":3367:3439   */\n      tag_97\n      jump\t// in\n    tag_104:\n        /* \"#utility.yul\":3158:3446   */\n      swap5\n      swap4\n      pop\n      pop\n      pop\n      pop\n      jump\t// out\n        /* \"#utility.yul\":3452:3894   */\n    tag_52:\n      0x00\n        /* \"#utility.yul\":3639:3641   */\n      0x60\n        /* \"#utility.yul\":3628:3637   */\n      dup3\n        /* \"#utility.yul\":3624:3642   */\n      add\n        /* \"#utility.yul\":3616:3642   */\n      swap1\n      pop\n        /* \"#utility.yul\":3652:3723   */\n      tag_106\n        /* \"#utility.yul\":3720:3721   */\n      0x00\n        /* \"#utility.yul\":3709:3718   */\n      dup4\n        /* \"#utility.yul\":3705:3722   */\n      add\n        /* \"#utility.yul\":3696:3702   */\n      dup7\n        /* \"#utility.yul\":3652:3723   */\n      tag_72\n      jump\t// in\n    tag_106:\n        /* \"#utility.yul\":3733:3805   */\n      tag_107\n        /* \"#utility.yul\":3801:3803   */\n      0x20\n        /* \"#utility.yul\":3790:3799   */\n      dup4\n        /* \"#utility.yul\":3786:3804   */\n      add\n        /* \"#utility.yul\":3777:3783   */\n      dup6\n        /* \"#utility.yul\":3733:3805   */\n      tag_97\n      jump\t// in\n    tag_107:\n        /* \"#utility.yul\":3815:3887   */\n      tag_108\n        /* \"#utility.yul\":3883:3885   */\n      0x40\n        /* \"#utility.yul\":3872:3881   */\n      dup4\n        /* \"#utility.yul\":3868:3886   */\n      add\n        /* \"#utility.yul\":3859:3865   */\n      dup5\n        /* \"#utility.yul\":3815:3887   */\n      tag_97\n      jump\t// in\n    tag_108:\n        /* \"#utility.yul\":3606:3894   */\n      swap5\n      swap4\n      pop\n      pop\n      pop\n      pop\n      jump\t// out\n        /* \"#utility.yul\":3900:4319   */\n    tag_25:\n      0x00\n        /* \"#utility.yul\":4104:4106   */\n      0x20\n        /* \"#utility.yul\":4093:4102   */\n      dup3\n        /* \"#utility.yul\":4089:4107   */\n      add\n        /* \"#utility.yul\":4081:4107   */\n      swap1\n      pop\n        /* \"#utility.yul\":4153:4162   */\n      dup2\n        /* \"#utility.yul\":4147:4151   */\n      dup2\n        /* \"#utility.yul\":4143:4163   */\n      sub\n        /* \"#utility.yul\":4139:4140   */\n      0x00\n        /* \"#utility.yul\":4128:4137   */\n      dup4\n        /* \"#utility.yul\":4124:4141   */\n      add\n        /* \"#utility.yul\":4117:4164   */\n      mstore\n        /* \"#utility.yul\":4181:4312   */\n      tag_110\n        /* \"#utility.yul\":4307:4311   */\n      dup2\n        /* \"#utility.yul\":4181:4312   */\n      tag_76\n      jump\t// in\n    tag_110:\n        /* \"#utility.yul\":4173:4312   */\n      swap1\n      pop\n        /* \"#utility.yul\":4071:4319   */\n      swap2\n      swap1\n      pop\n      jump\t// out\n        /* \"#utility.yul\":4325:4744   */\n    tag_42:\n      0x00\n        /* \"#utility.yul\":4529:4531   */\n      0x20\n        /* \"#utility.yul\":4518:4527   */\n      dup3\n        /* \"#utility.yul\":4514:4532   */\n      add\n        /* \"#utility.yul\":4506:4532   */\n      swap1\n      pop\n        /* \"#utility.yul\":4578:4587   */\n      dup2\n        /* \"#utility.yul\":4572:4576   */\n      dup2\n        /* \"#utility.yul\":4568:4588   */\n      sub\n        /* \"#utility.yul\":4564:4565   */\n      0x00\n        /* \"#utility.yul\":4553:4562   */\n      dup4\n        /* \"#utility.yul\":4549:4566   */\n      add\n        /* \"#utility.yul\":4542:4589   */\n      mstore\n        /* \"#utility.yul\":4606:4737   */\n      tag_112\n        /* \"#utility.yul\":4732:4736   */\n      dup2\n        /* \"#utility.yul\":4606:4737   */\n      tag_82\n      jump\t// in\n    tag_112:\n        /* \"#utility.yul\":4598:4737   */\n      swap1\n      pop\n        /* \"#utility.yul\":4496:4744   */\n      swap2\n      swap1\n      pop\n      jump\t// out\n        /* \"#utility.yul\":4750:5169   */\n    tag_21:\n      0x00\n        /* \"#utility.yul\":4954:4956   */\n      0x20\n        /* \"#utility.yul\":4943:4952   */\n      dup3\n        /* \"#utility.yul\":4939:4957   */\n      add\n        /* \"#utility.yul\":4931:4957   */\n      swap1\n      pop\n        /* \"#utility.yul\":5003:5012   */\n      dup2\n        /* \"#utility.yul\":4997:5001   */\n      dup2\n        /* \"#utility.yul\":4993:5013   */\n      sub\n        /* \"#utility.yul\":4989:4990   */\n      0x00\n        /* \"#utility.yul\":4978:4987   */\n      dup4\n        /* \"#utility.yul\":4974:4991   */\n      add\n        /* \"#utility.yul\":4967:5014   */\n      mstore\n        /* \"#utility.yul\":5031:5162   */\n      tag_114\n        /* \"#utility.yul\":5157:5161   */\n      dup2\n        /* \"#utility.yul\":5031:5162   */\n      tag_87\n      jump\t// in\n    tag_114:\n        /* \"#utility.yul\":5023:5162   */\n      swap1\n      pop\n        /* \"#utility.yul\":4921:5169   */\n      swap2\n      swap1\n      pop\n      jump\t// out\n        /* \"#utility.yul\":5175:5594   */\n    tag_39:\n      0x00\n        /* \"#utility.yul\":5379:5381   */\n      0x20\n        /* \"#utility.yul\":5368:5377   */\n      dup3\n        /* \"#utility.yul\":5364:5382   */\n      add\n        /* \"#utility.yul\":5356:5382   */\n      swap1\n      pop\n        /* \"#utility.yul\":5428:5437   */\n      dup2\n        /* \"#utility.yul\":5422:5426   */\n      dup2\n        /* \"#utility.yul\":5418:5438   */\n      sub\n        /* \"#utility.yul\":5414:5415   */\n      0x00\n        /* \"#utility.yul\":5403:5412   */\n      dup4\n        /* \"#utility.yul\":5399:5416   */\n      add\n        /* \"#utility.yul\":5392:5439   */\n      mstore\n        /* \"#utility.yul\":5456:5587   */\n      tag_116\n        /* \"#utility.yul\":5582:5586   */\n      dup2\n        /* \"#utility.yul\":5456:5587   */\n      tag_92\n      jump\t// in\n    tag_116:\n        /* \"#utility.yul\":5448:5587   */\n      swap1\n      pop\n        /* \"#utility.yul\":5346:5594   */\n      swap2\n      swap1\n      pop\n      jump\t// out\n        /* \"#utility.yul\":5600:5822   */\n    tag_9:\n      0x00\n        /* \"#utility.yul\":5731:5733   */\n      0x20\n        /* \"#utility.yul\":5720:5729   */\n      dup3\n        /* \"#utility.yul\":5716:5734   */\n      add\n        /* \"#utility.yul\":5708:5734   */\n      swap1\n      pop\n        /* \"#utility.yul\":5744:5815   */\n      tag_118\n        /* \"#utility.yul\":5812:5813   */\n      0x00\n        /* \"#utility.yul\":5801:5810   */\n      dup4\n        /* \"#utility.yul\":5797:5814   */\n      add\n        /* \"#utility.yul\":5788:5794   */\n      dup5\n        /* \"#utility.yul\":5744:5815   */\n      tag_97\n      jump\t// in\n    tag_118:\n        /* \"#utility.yul\":5698:5822   */\n      swap3\n      swap2\n      pop\n      pop\n      jump\t// out\n        /* \"#utility.yul\":5828:5997   */\n    tag_79:\n      0x00\n        /* \"#utility.yul\":5946:5952   */\n      dup3\n        /* \"#utility.yul\":5941:5944   */\n      dup3\n        /* \"#utility.yul\":5934:5953   */\n      mstore\n        /* \"#utility.yul\":5986:5990   */\n      0x20\n        /* \"#utility.yul\":5981:5984   */\n      dup3\n        /* \"#utility.yul\":5977:5991   */\n      add\n        /* \"#utility.yul\":5962:5991   */\n      swap1\n      pop\n        /* \"#utility.yul\":5924:5997   */\n      swap3\n      swap2\n      pop\n      pop\n      jump\t// out\n        /* \"#utility.yul\":6003:6099   */\n    tag_75:\n      0x00\n        /* \"#utility.yul\":6069:6093   */\n      tag_121\n        /* \"#utility.yul\":6087:6092   */\n      dup3\n        /* \"#utility.yul\":6069:6093   */\n      tag_122\n      jump\t// in\n    tag_121:\n        /* \"#utility.yul\":6058:6093   */\n      swap1\n      pop\n        /* \"#utility.yul\":6048:6099   */\n      swap2\n      swap1\n      pop\n      jump\t// out\n        /* \"#utility.yul\":6105:6231   */\n    tag_122:\n      0x00\n        /* \"#utility.yul\":6182:6224   */\n      0xffffffffffffffffffffffffffffffffffffffff\n        /* \"#utility.yul\":6175:6180   */\n      dup3\n        /* \"#utility.yul\":6171:6225   */\n      and\n        /* \"#utility.yul\":6160:6225   */\n      swap1\n      pop\n        /* \"#utility.yul\":6150:6231   */\n      swap2\n      swap1\n      pop\n      jump\t// out\n        /* \"#utility.yul\":6237:6314   */\n    tag_100:\n      0x00\n        /* \"#utility.yul\":6303:6308   */\n      dup2\n        /* \"#utility.yul\":6292:6308   */\n      swap1\n      pop\n        /* \"#utility.yul\":6282:6314   */\n      swap2\n      swap1\n      pop\n      jump\t// out\n        /* \"#utility.yul\":6320:6545   */\n    tag_81:\n        /* \"#utility.yul\":6460:6494   */\n      0x4e6f7420656e6f75676820657468657220746f20636f7665722061736b696e67\n        /* \"#utility.yul\":6456:6457   */\n      0x00\n        /* \"#utility.yul\":6448:6454   */\n      dup3\n        /* \"#utility.yul\":6444:6458   */\n      add\n        /* \"#utility.yul\":6437:6495   */\n      mstore\n        /* \"#utility.yul\":6529:6537   */\n      0x2070726963650000000000000000000000000000000000000000000000000000\n        /* \"#utility.yul\":6524:6526   */\n      0x20\n        /* \"#utility.yul\":6516:6522   */\n      dup3\n        /* \"#utility.yul\":6512:6527   */\n      add\n        /* \"#utility.yul\":6505:6538   */\n      mstore\n        /* \"#utility.yul\":6426:6545   */\n      pop\n      jump\t// out\n        /* \"#utility.yul\":6551:6733   */\n    tag_86:\n        /* \"#utility.yul\":6691:6725   */\n      0x4e6f7420656e6f75676820657468657220666f72206c697374696e6720666565\n        /* \"#utility.yul\":6687:6688   */\n      0x00\n        /* \"#utility.yul\":6679:6685   */\n      dup3\n        /* \"#utility.yul\":6675:6689   */\n      add\n        /* \"#utility.yul\":6668:6726   */\n      mstore\n        /* \"#utility.yul\":6657:6733   */\n      pop\n      jump\t// out\n        /* \"#utility.yul\":6739:6920   */\n    tag_91:\n        /* \"#utility.yul\":6879:6912   */\n      0x5265656e7472616e637947756172643a207265656e7472616e742063616c6c00\n        /* \"#utility.yul\":6875:6876   */\n      0x00\n        /* \"#utility.yul\":6867:6873   */\n      dup3\n        /* \"#utility.yul\":6863:6877   */\n      add\n        /* \"#utility.yul\":6856:6913   */\n      mstore\n        /* \"#utility.yul\":6845:6920   */\n      pop\n      jump\t// out\n        /* \"#utility.yul\":6926:7104   */\n    tag_96:\n        /* \"#utility.yul\":7066:7096   */\n      0x5072696365206d757374206265206174206c6561737420312077656900000000\n        /* \"#utility.yul\":7062:7063   */\n      0x00\n        /* \"#utility.yul\":7054:7060   */\n      dup3\n        /* \"#utility.yul\":7050:7064   */\n      add\n        /* \"#utility.yul\":7043:7097   */\n      mstore\n        /* \"#utility.yul\":7032:7104   */\n      pop\n      jump\t// out\n        /* \"#utility.yul\":7110:7232   */\n    tag_58:\n        /* \"#utility.yul\":7183:7207   */\n      tag_130\n        /* \"#utility.yul\":7201:7206   */\n      dup2\n        /* \"#utility.yul\":7183:7207   */\n      tag_75\n      jump\t// in\n    tag_130:\n        /* \"#utility.yul\":7176:7181   */\n      dup2\n        /* \"#utility.yul\":7173:7208   */\n      eq\n        /* \"#utility.yul\":7163:7165   */\n      tag_131\n      jumpi\n        /* \"#utility.yul\":7222:7223   */\n      0x00\n        /* \"#utility.yul\":7219:7220   */\n      dup1\n        /* \"#utility.yul\":7212:7224   */\n      revert\n        /* \"#utility.yul\":7163:7165   */\n    tag_131:\n        /* \"#utility.yul\":7153:7232   */\n      pop\n      jump\t// out\n        /* \"#utility.yul\":7238:7360   */\n    tag_62:\n        /* \"#utility.yul\":7311:7335   */\n      tag_133\n        /* \"#utility.yul\":7329:7334   */\n      dup2\n        /* \"#utility.yul\":7311:7335   */\n      tag_100\n      jump\t// in\n    tag_133:\n        /* \"#utility.yul\":7304:7309   */\n      dup2\n        /* \"#utility.yul\":7301:7336   */\n      eq\n        /* \"#utility.yul\":7291:7293   */\n      tag_134\n      jumpi\n        /* \"#utility.yul\":7350:7351   */\n      0x00\n        /* \"#utility.yul\":7347:7348   */\n      dup1\n        /* \"#utility.yul\":7340:7352   */\n      revert\n        /* \"#utility.yul\":7291:7293   */\n    tag_134:\n        /* \"#utility.yul\":7281:7360   */\n      pop\n      jump\t// out\n\n    auxdata: 0xa2646970667358221220c7c22e517413d4f147d903e27bfeb4aed8aa86f38fdb6e29d50a63ab6894e59b64736f6c63430008010033\n}\n",
				"bytecode": {
					"linkReferences": {},
					"object": "608060405266071afd498d000060035534801561001b57600080fd5b50600160008190555033600460006101000a81548173ffffffffffffffffffffffffffffffffffffffff021916908373ffffffffffffffffffffffffffffffffffffffff160217905550610a55806100746000396000f3fe6080604052600436106100345760003560e01c80632b86ae38146100395780634ddf4f8f14610064578063ad05f1b414610080575b600080fd5b34801561004557600080fd5b5061004e61009c565b60405161005b91906108bf565b60405180910390f35b61007e6004803603810190610079919061069c565b6100a2565b005b61009a600480360381019061009591906106d8565b61023b565b005b60035481565b600260005414156100e8576040517f08c379a00000000000000000000000000000000000000000000000000000000081526004016100df9061087f565b60405180910390fd5b60026000819055506000600560008381526020019081526020016000209050806002015434101561014e576040517f08c379a00000000000000000000000000000000000000000000000000000000081526004016101459061083f565b60405180910390fd5b60003390508160030160009054906101000a900473ffffffffffffffffffffffffffffffffffffffff1673ffffffffffffffffffffffffffffffffffffffff166108fc349081150290604051600060405180830381858888f193505050501580156101bd573d6000803e3d6000fd5b508373ffffffffffffffffffffffffffffffffffffffff166323b872dd3330866040518463ffffffff1660e01b81526004016101fb939291906107d1565b600060405180830381600087803b15801561021557600080fd5b505af1158015610229573d6000803e3d6000fd5b50505050505060016000819055505050565b60026000541415610281576040517f08c379a00000000000000000000000000000000000000000000000000000000081526004016102789061087f565b60405180910390fd5b6002600081905550600081116102cc576040517f08c379a00000000000000000000000000000000000000000000000000000000081526004016102c39061089f565b60405180910390fd5b6003543414610310576040517f08c379a00000000000000000000000000000000000000000000000000000000081526004016103079061085f565b60405180910390fd5b8273ffffffffffffffffffffffffffffffffffffffff166323b872dd3330856040518463ffffffff1660e01b815260040161034d939291906107d1565b600060405180830381600087803b15801561036757600080fd5b505af115801561037b573d6000803e3d6000fd5b50505050610389600261065c565b6040518060e001604052808473ffffffffffffffffffffffffffffffffffffffff1681526020018381526020018281526020013373ffffffffffffffffffffffffffffffffffffffff1681526020013073ffffffffffffffffffffffffffffffffffffffff1681526020013373ffffffffffffffffffffffffffffffffffffffff168152602001600115158152506005600084815260200190815260200160002060008201518160000160006101000a81548173ffffffffffffffffffffffffffffffffffffffff021916908373ffffffffffffffffffffffffffffffffffffffff160217905550602082015181600101556040820151816002015560608201518160030160006101000a81548173ffffffffffffffffffffffffffffffffffffffff021916908373ffffffffffffffffffffffffffffffffffffffff16021790555060808201518160040160006101000a81548173ffffffffffffffffffffffffffffffffffffffff021916908373ffffffffffffffffffffffffffffffffffffffff16021790555060a08201518160050160006101000a81548173ffffffffffffffffffffffffffffffffffffffff021916908373ffffffffffffffffffffffffffffffffffffffff16021790555060c08201518160050160146101000a81548160ff021916908315150217905550905050600460009054906101000a900473ffffffffffffffffffffffffffffffffffffffff1673ffffffffffffffffffffffffffffffffffffffff166108fc349081150290604051600060405180830381858888f193505050501580156105e5573d6000803e3d6000fd5b503073ffffffffffffffffffffffffffffffffffffffff163373ffffffffffffffffffffffffffffffffffffffff167fa0c6c0d02d86fdacecbaa5fdf5894bab204e31a778250474108540733a9b8d1985858560405161064793929190610808565b60405180910390a36001600081905550505050565b6001816000016000828254019250508190555050565b600081359050610681816109f1565b92915050565b60008135905061069681610a08565b92915050565b600080604083850312156106af57600080fd5b60006106bd85828601610672565b92505060206106ce85828601610687565b9150509250929050565b6000806000606084860312156106ed57600080fd5b60006106fb86828701610672565b935050602061070c86828701610687565b925050604061071d86828701610687565b9150509250925092565b610730816108eb565b82525050565b60006107436026836108da565b915061074e82610927565b604082019050919050565b60006107666020836108da565b915061077182610976565b602082019050919050565b6000610789601f836108da565b91506107948261099f565b602082019050919050565b60006107ac601c836108da565b91506107b7826109c8565b602082019050919050565b6107cb8161091d565b82525050565b60006060820190506107e66000830186610727565b6107f36020830185610727565b61080060408301846107c2565b949350505050565b600060608201905061081d6000830186610727565b61082a60208301856107c2565b61083760408301846107c2565b949350505050565b6000602082019050818103600083015261085881610736565b9050919050565b6000602082019050818103600083015261087881610759565b9050919050565b600060208201905081810360008301526108988161077c565b9050919050565b600060208201905081810360008301526108b88161079f565b9050919050565b60006020820190506108d460008301846107c2565b92915050565b600082825260208201905092915050565b60006108f6826108fd565b9050919050565b600073ffffffffffffffffffffffffffffffffffffffff82169050919050565b6000819050919050565b7f4e6f7420656e6f75676820657468657220746f20636f7665722061736b696e6760008201527f2070726963650000000000000000000000000000000000000000000000000000602082015250565b7f4e6f7420656e6f75676820657468657220666f72206c697374696e6720666565600082015250565b7f5265656e7472616e637947756172643a207265656e7472616e742063616c6c00600082015250565b7f5072696365206d757374206265206174206c6561737420312077656900000000600082015250565b6109fa816108eb565b8114610a0557600080fd5b50565b610a118161091d565b8114610a1c57600080fd5b5056fea2646970667358221220c7c22e517413d4f147d903e27bfeb4aed8aa86f38fdb6e29d50a63ab6894e59b64736f6c63430008010033",
					"opcodes": "PUSH1 0x80 PUSH1 0x40 MSTORE PUSH7 0x71AFD498D0000 PUSH1 0x3 SSTORE CALLVALUE DUP1 ISZERO PUSH2 0x1B JUMPI PUSH1 0x0 DUP1 REVERT JUMPDEST POP PUSH1 0x1 PUSH1 0x0 DUP2 SWAP1 SSTORE POP CALLER PUSH1 0x4 PUSH1 0x0 PUSH2 0x100 EXP DUP2 SLOAD DUP2 PUSH20 0xFFFFFFFFFFFFFFFFFFFFFFFFFFFFFFFFFFFFFFFF MUL NOT AND SWAP1 DUP4 PUSH20 0xFFFFFFFFFFFFFFFFFFFFFFFFFFFFFFFFFFFFFFFF AND MUL OR SWAP1 SSTORE POP PUSH2 0xA55 DUP1 PUSH2 0x74 PUSH1 0x0 CODECOPY PUSH1 0x0 RETURN INVALID PUSH1 0x80 PUSH1 0x40 MSTORE PUSH1 0x4 CALLDATASIZE LT PUSH2 0x34 JUMPI PUSH1 0x0 CALLDATALOAD PUSH1 0xE0 SHR DUP1 PUSH4 0x2B86AE38 EQ PUSH2 0x39 JUMPI DUP1 PUSH4 0x4DDF4F8F EQ PUSH2 0x64 JUMPI DUP1 PUSH4 0xAD05F1B4 EQ PUSH2 0x80 JUMPI JUMPDEST PUSH1 0x0 DUP1 REVERT JUMPDEST CALLVALUE DUP1 ISZERO PUSH2 0x45 JUMPI PUSH1 0x0 DUP1 REVERT JUMPDEST POP PUSH2 0x4E PUSH2 0x9C JUMP JUMPDEST PUSH1 0x40 MLOAD PUSH2 0x5B SWAP2 SWAP1 PUSH2 0x8BF JUMP JUMPDEST PUSH1 0x40 MLOAD DUP1 SWAP2 SUB SWAP1 RETURN JUMPDEST PUSH2 0x7E PUSH1 0x4 DUP1 CALLDATASIZE SUB DUP2 ADD SWAP1 PUSH2 0x79 SWAP2 SWAP1 PUSH2 0x69C JUMP JUMPDEST PUSH2 0xA2 JUMP JUMPDEST STOP JUMPDEST PUSH2 0x9A PUSH1 0x4 DUP1 CALLDATASIZE SUB DUP2 ADD SWAP1 PUSH2 0x95 SWAP2 SWAP1 PUSH2 0x6D8 JUMP JUMPDEST PUSH2 0x23B JUMP JUMPDEST STOP JUMPDEST PUSH1 0x3 SLOAD DUP2 JUMP JUMPDEST PUSH1 0x2 PUSH1 0x0 SLOAD EQ ISZERO PUSH2 0xE8 JUMPI PUSH1 0x40 MLOAD PUSH32 0x8C379A000000000000000000000000000000000000000000000000000000000 DUP2 MSTORE PUSH1 0x4 ADD PUSH2 0xDF SWAP1 PUSH2 0x87F JUMP JUMPDEST PUSH1 0x40 MLOAD DUP1 SWAP2 SUB SWAP1 REVERT JUMPDEST PUSH1 0x2 PUSH1 0x0 DUP2 SWAP1 SSTORE POP PUSH1 0x0 PUSH1 0x5 PUSH1 0x0 DUP4 DUP2 MSTORE PUSH1 0x20 ADD SWAP1 DUP2 MSTORE PUSH1 0x20 ADD PUSH1 0x0 KECCAK256 SWAP1 POP DUP1 PUSH1 0x2 ADD SLOAD CALLVALUE LT ISZERO PUSH2 0x14E JUMPI PUSH1 0x40 MLOAD PUSH32 0x8C379A000000000000000000000000000000000000000000000000000000000 DUP2 MSTORE PUSH1 0x4 ADD PUSH2 0x145 SWAP1 PUSH2 0x83F JUMP JUMPDEST PUSH1 0x40 MLOAD DUP1 SWAP2 SUB SWAP1 REVERT JUMPDEST PUSH1 0x0 CALLER SWAP1 POP DUP2 PUSH1 0x3 ADD PUSH1 0x0 SWAP1 SLOAD SWAP1 PUSH2 0x100 EXP SWAP1 DIV PUSH20 0xFFFFFFFFFFFFFFFFFFFFFFFFFFFFFFFFFFFFFFFF AND PUSH20 0xFFFFFFFFFFFFFFFFFFFFFFFFFFFFFFFFFFFFFFFF AND PUSH2 0x8FC CALLVALUE SWAP1 DUP2 ISZERO MUL SWAP1 PUSH1 0x40 MLOAD PUSH1 0x0 PUSH1 0x40 MLOAD DUP1 DUP4 SUB DUP2 DUP6 DUP9 DUP9 CALL SWAP4 POP POP POP POP ISZERO DUP1 ISZERO PUSH2 0x1BD JUMPI RETURNDATASIZE PUSH1 0x0 DUP1 RETURNDATACOPY RETURNDATASIZE PUSH1 0x0 REVERT JUMPDEST POP DUP4 PUSH20 0xFFFFFFFFFFFFFFFFFFFFFFFFFFFFFFFFFFFFFFFF AND PUSH4 0x23B872DD CALLER ADDRESS DUP7 PUSH1 0x40 MLOAD DUP5 PUSH4 0xFFFFFFFF AND PUSH1 0xE0 SHL DUP2 MSTORE PUSH1 0x4 ADD PUSH2 0x1FB SWAP4 SWAP3 SWAP2 SWAP1 PUSH2 0x7D1 JUMP JUMPDEST PUSH1 0x0 PUSH1 0x40 MLOAD DUP1 DUP4 SUB DUP2 PUSH1 0x0 DUP8 DUP1 EXTCODESIZE ISZERO DUP1 ISZERO PUSH2 0x215 JUMPI PUSH1 0x0 DUP1 REVERT JUMPDEST POP GAS CALL ISZERO DUP1 ISZERO PUSH2 0x229 JUMPI RETURNDATASIZE PUSH1 0x0 DUP1 RETURNDATACOPY RETURNDATASIZE PUSH1 0x0 REVERT JUMPDEST POP POP POP POP POP POP PUSH1 0x1 PUSH1 0x0 DUP2 SWAP1 SSTORE POP POP POP JUMP JUMPDEST PUSH1 0x2 PUSH1 0x0 SLOAD EQ ISZERO PUSH2 0x281 JUMPI PUSH1 0x40 MLOAD PUSH32 0x8C379A000000000000000000000000000000000000000000000000000000000 DUP2 MSTORE PUSH1 0x4 ADD PUSH2 0x278 SWAP1 PUSH2 0x87F JUMP JUMPDEST PUSH1 0x40 MLOAD DUP1 SWAP2 SUB SWAP1 REVERT JUMPDEST PUSH1 0x2 PUSH1 0x0 DUP2 SWAP1 SSTORE POP PUSH1 0x0 DUP2 GT PUSH2 0x2CC JUMPI PUSH1 0x40 MLOAD PUSH32 0x8C379A000000000000000000000000000000000000000000000000000000000 DUP2 MSTORE PUSH1 0x4 ADD PUSH2 0x2C3 SWAP1 PUSH2 0x89F JUMP JUMPDEST PUSH1 0x40 MLOAD DUP1 SWAP2 SUB SWAP1 REVERT JUMPDEST PUSH1 0x3 SLOAD CALLVALUE EQ PUSH2 0x310 JUMPI PUSH1 0x40 MLOAD PUSH32 0x8C379A000000000000000000000000000000000000000000000000000000000 DUP2 MSTORE PUSH1 0x4 ADD PUSH2 0x307 SWAP1 PUSH2 0x85F JUMP JUMPDEST PUSH1 0x40 MLOAD DUP1 SWAP2 SUB SWAP1 REVERT JUMPDEST DUP3 PUSH20 0xFFFFFFFFFFFFFFFFFFFFFFFFFFFFFFFFFFFFFFFF AND PUSH4 0x23B872DD CALLER ADDRESS DUP6 PUSH1 0x40 MLOAD DUP5 PUSH4 0xFFFFFFFF AND PUSH1 0xE0 SHL DUP2 MSTORE PUSH1 0x4 ADD PUSH2 0x34D SWAP4 SWAP3 SWAP2 SWAP1 PUSH2 0x7D1 JUMP JUMPDEST PUSH1 0x0 PUSH1 0x40 MLOAD DUP1 DUP4 SUB DUP2 PUSH1 0x0 DUP8 DUP1 EXTCODESIZE ISZERO DUP1 ISZERO PUSH2 0x367 JUMPI PUSH1 0x0 DUP1 REVERT JUMPDEST POP GAS CALL ISZERO DUP1 ISZERO PUSH2 0x37B JUMPI RETURNDATASIZE PUSH1 0x0 DUP1 RETURNDATACOPY RETURNDATASIZE PUSH1 0x0 REVERT JUMPDEST POP POP POP POP PUSH2 0x389 PUSH1 0x2 PUSH2 0x65C JUMP JUMPDEST PUSH1 0x40 MLOAD DUP1 PUSH1 0xE0 ADD PUSH1 0x40 MSTORE DUP1 DUP5 PUSH20 0xFFFFFFFFFFFFFFFFFFFFFFFFFFFFFFFFFFFFFFFF AND DUP2 MSTORE PUSH1 0x20 ADD DUP4 DUP2 MSTORE PUSH1 0x20 ADD DUP3 DUP2 MSTORE PUSH1 0x20 ADD CALLER PUSH20 0xFFFFFFFFFFFFFFFFFFFFFFFFFFFFFFFFFFFFFFFF AND DUP2 MSTORE PUSH1 0x20 ADD ADDRESS PUSH20 0xFFFFFFFFFFFFFFFFFFFFFFFFFFFFFFFFFFFFFFFF AND DUP2 MSTORE PUSH1 0x20 ADD CALLER PUSH20 0xFFFFFFFFFFFFFFFFFFFFFFFFFFFFFFFFFFFFFFFF AND DUP2 MSTORE PUSH1 0x20 ADD PUSH1 0x1 ISZERO ISZERO DUP2 MSTORE POP PUSH1 0x5 PUSH1 0x0 DUP5 DUP2 MSTORE PUSH1 0x20 ADD SWAP1 DUP2 MSTORE PUSH1 0x20 ADD PUSH1 0x0 KECCAK256 PUSH1 0x0 DUP3 ADD MLOAD DUP2 PUSH1 0x0 ADD PUSH1 0x0 PUSH2 0x100 EXP DUP2 SLOAD DUP2 PUSH20 0xFFFFFFFFFFFFFFFFFFFFFFFFFFFFFFFFFFFFFFFF MUL NOT AND SWAP1 DUP4 PUSH20 0xFFFFFFFFFFFFFFFFFFFFFFFFFFFFFFFFFFFFFFFF AND MUL OR SWAP1 SSTORE POP PUSH1 0x20 DUP3 ADD MLOAD DUP2 PUSH1 0x1 ADD SSTORE PUSH1 0x40 DUP3 ADD MLOAD DUP2 PUSH1 0x2 ADD SSTORE PUSH1 0x60 DUP3 ADD MLOAD DUP2 PUSH1 0x3 ADD PUSH1 0x0 PUSH2 0x100 EXP DUP2 SLOAD DUP2 PUSH20 0xFFFFFFFFFFFFFFFFFFFFFFFFFFFFFFFFFFFFFFFF MUL NOT AND SWAP1 DUP4 PUSH20 0xFFFFFFFFFFFFFFFFFFFFFFFFFFFFFFFFFFFFFFFF AND MUL OR SWAP1 SSTORE POP PUSH1 0x80 DUP3 ADD MLOAD DUP2 PUSH1 0x4 ADD PUSH1 0x0 PUSH2 0x100 EXP DUP2 SLOAD DUP2 PUSH20 0xFFFFFFFFFFFFFFFFFFFFFFFFFFFFFFFFFFFFFFFF MUL NOT AND SWAP1 DUP4 PUSH20 0xFFFFFFFFFFFFFFFFFFFFFFFFFFFFFFFFFFFFFFFF AND MUL OR SWAP1 SSTORE POP PUSH1 0xA0 DUP3 ADD MLOAD DUP2 PUSH1 0x5 ADD PUSH1 0x0 PUSH2 0x100 EXP DUP2 SLOAD DUP2 PUSH20 0xFFFFFFFFFFFFFFFFFFFFFFFFFFFFFFFFFFFFFFFF MUL NOT AND SWAP1 DUP4 PUSH20 0xFFFFFFFFFFFFFFFFFFFFFFFFFFFFFFFFFFFFFFFF AND MUL OR SWAP1 SSTORE POP PUSH1 0xC0 DUP3 ADD MLOAD DUP2 PUSH1 0x5 ADD PUSH1 0x14 PUSH2 0x100 EXP DUP2 SLOAD DUP2 PUSH1 0xFF MUL NOT AND SWAP1 DUP4 ISZERO ISZERO MUL OR SWAP1 SSTORE POP SWAP1 POP POP PUSH1 0x4 PUSH1 0x0 SWAP1 SLOAD SWAP1 PUSH2 0x100 EXP SWAP1 DIV PUSH20 0xFFFFFFFFFFFFFFFFFFFFFFFFFFFFFFFFFFFFFFFF AND PUSH20 0xFFFFFFFFFFFFFFFFFFFFFFFFFFFFFFFFFFFFFFFF AND PUSH2 0x8FC CALLVALUE SWAP1 DUP2 ISZERO MUL SWAP1 PUSH1 0x40 MLOAD PUSH1 0x0 PUSH1 0x40 MLOAD DUP1 DUP4 SUB DUP2 DUP6 DUP9 DUP9 CALL SWAP4 POP POP POP POP ISZERO DUP1 ISZERO PUSH2 0x5E5 JUMPI RETURNDATASIZE PUSH1 0x0 DUP1 RETURNDATACOPY RETURNDATASIZE PUSH1 0x0 REVERT JUMPDEST POP ADDRESS PUSH20 0xFFFFFFFFFFFFFFFFFFFFFFFFFFFFFFFFFFFFFFFF AND CALLER PUSH20 0xFFFFFFFFFFFFFFFFFFFFFFFFFFFFFFFFFFFFFFFF AND PUSH32 0xA0C6C0D02D86FDACECBAA5FDF5894BAB204E31A778250474108540733A9B8D19 DUP6 DUP6 DUP6 PUSH1 0x40 MLOAD PUSH2 0x647 SWAP4 SWAP3 SWAP2 SWAP1 PUSH2 0x808 JUMP JUMPDEST PUSH1 0x40 MLOAD DUP1 SWAP2 SUB SWAP1 LOG3 PUSH1 0x1 PUSH1 0x0 DUP2 SWAP1 SSTORE POP POP POP POP JUMP JUMPDEST PUSH1 0x1 DUP2 PUSH1 0x0 ADD PUSH1 0x0 DUP3 DUP3 SLOAD ADD SWAP3 POP POP DUP2 SWAP1 SSTORE POP POP JUMP JUMPDEST PUSH1 0x0 DUP2 CALLDATALOAD SWAP1 POP PUSH2 0x681 DUP2 PUSH2 0x9F1 JUMP JUMPDEST SWAP3 SWAP2 POP POP JUMP JUMPDEST PUSH1 0x0 DUP2 CALLDATALOAD SWAP1 POP PUSH2 0x696 DUP2 PUSH2 0xA08 JUMP JUMPDEST SWAP3 SWAP2 POP POP JUMP JUMPDEST PUSH1 0x0 DUP1 PUSH1 0x40 DUP4 DUP6 SUB SLT ISZERO PUSH2 0x6AF JUMPI PUSH1 0x0 DUP1 REVERT JUMPDEST PUSH1 0x0 PUSH2 0x6BD DUP6 DUP3 DUP7 ADD PUSH2 0x672 JUMP JUMPDEST SWAP3 POP POP PUSH1 0x20 PUSH2 0x6CE DUP6 DUP3 DUP7 ADD PUSH2 0x687 JUMP JUMPDEST SWAP2 POP POP SWAP3 POP SWAP3 SWAP1 POP JUMP JUMPDEST PUSH1 0x0 DUP1 PUSH1 0x0 PUSH1 0x60 DUP5 DUP7 SUB SLT ISZERO PUSH2 0x6ED JUMPI PUSH1 0x0 DUP1 REVERT JUMPDEST PUSH1 0x0 PUSH2 0x6FB DUP7 DUP3 DUP8 ADD PUSH2 0x672 JUMP JUMPDEST SWAP4 POP POP PUSH1 0x20 PUSH2 0x70C DUP7 DUP3 DUP8 ADD PUSH2 0x687 JUMP JUMPDEST SWAP3 POP POP PUSH1 0x40 PUSH2 0x71D DUP7 DUP3 DUP8 ADD PUSH2 0x687 JUMP JUMPDEST SWAP2 POP POP SWAP3 POP SWAP3 POP SWAP3 JUMP JUMPDEST PUSH2 0x730 DUP2 PUSH2 0x8EB JUMP JUMPDEST DUP3 MSTORE POP POP JUMP JUMPDEST PUSH1 0x0 PUSH2 0x743 PUSH1 0x26 DUP4 PUSH2 0x8DA JUMP JUMPDEST SWAP2 POP PUSH2 0x74E DUP3 PUSH2 0x927 JUMP JUMPDEST PUSH1 0x40 DUP3 ADD SWAP1 POP SWAP2 SWAP1 POP JUMP JUMPDEST PUSH1 0x0 PUSH2 0x766 PUSH1 0x20 DUP4 PUSH2 0x8DA JUMP JUMPDEST SWAP2 POP PUSH2 0x771 DUP3 PUSH2 0x976 JUMP JUMPDEST PUSH1 0x20 DUP3 ADD SWAP1 POP SWAP2 SWAP1 POP JUMP JUMPDEST PUSH1 0x0 PUSH2 0x789 PUSH1 0x1F DUP4 PUSH2 0x8DA JUMP JUMPDEST SWAP2 POP PUSH2 0x794 DUP3 PUSH2 0x99F JUMP JUMPDEST PUSH1 0x20 DUP3 ADD SWAP1 POP SWAP2 SWAP1 POP JUMP JUMPDEST PUSH1 0x0 PUSH2 0x7AC PUSH1 0x1C DUP4 PUSH2 0x8DA JUMP JUMPDEST SWAP2 POP PUSH2 0x7B7 DUP3 PUSH2 0x9C8 JUMP JUMPDEST PUSH1 0x20 DUP3 ADD SWAP1 POP SWAP2 SWAP1 POP JUMP JUMPDEST PUSH2 0x7CB DUP2 PUSH2 0x91D JUMP JUMPDEST DUP3 MSTORE POP POP JUMP JUMPDEST PUSH1 0x0 PUSH1 0x60 DUP3 ADD SWAP1 POP PUSH2 0x7E6 PUSH1 0x0 DUP4 ADD DUP7 PUSH2 0x727 JUMP JUMPDEST PUSH2 0x7F3 PUSH1 0x20 DUP4 ADD DUP6 PUSH2 0x727 JUMP JUMPDEST PUSH2 0x800 PUSH1 0x40 DUP4 ADD DUP5 PUSH2 0x7C2 JUMP JUMPDEST SWAP5 SWAP4 POP POP POP POP JUMP JUMPDEST PUSH1 0x0 PUSH1 0x60 DUP3 ADD SWAP1 POP PUSH2 0x81D PUSH1 0x0 DUP4 ADD DUP7 PUSH2 0x727 JUMP JUMPDEST PUSH2 0x82A PUSH1 0x20 DUP4 ADD DUP6 PUSH2 0x7C2 JUMP JUMPDEST PUSH2 0x837 PUSH1 0x40 DUP4 ADD DUP5 PUSH2 0x7C2 JUMP JUMPDEST SWAP5 SWAP4 POP POP POP POP JUMP JUMPDEST PUSH1 0x0 PUSH1 0x20 DUP3 ADD SWAP1 POP DUP2 DUP2 SUB PUSH1 0x0 DUP4 ADD MSTORE PUSH2 0x858 DUP2 PUSH2 0x736 JUMP JUMPDEST SWAP1 POP SWAP2 SWAP1 POP JUMP JUMPDEST PUSH1 0x0 PUSH1 0x20 DUP3 ADD SWAP1 POP DUP2 DUP2 SUB PUSH1 0x0 DUP4 ADD MSTORE PUSH2 0x878 DUP2 PUSH2 0x759 JUMP JUMPDEST SWAP1 POP SWAP2 SWAP1 POP JUMP JUMPDEST PUSH1 0x0 PUSH1 0x20 DUP3 ADD SWAP1 POP DUP2 DUP2 SUB PUSH1 0x0 DUP4 ADD MSTORE PUSH2 0x898 DUP2 PUSH2 0x77C JUMP JUMPDEST SWAP1 POP SWAP2 SWAP1 POP JUMP JUMPDEST PUSH1 0x0 PUSH1 0x20 DUP3 ADD SWAP1 POP DUP2 DUP2 SUB PUSH1 0x0 DUP4 ADD MSTORE PUSH2 0x8B8 DUP2 PUSH2 0x79F JUMP JUMPDEST SWAP1 POP SWAP2 SWAP1 POP JUMP JUMPDEST PUSH1 0x0 PUSH1 0x20 DUP3 ADD SWAP1 POP PUSH2 0x8D4 PUSH1 0x0 DUP4 ADD DUP5 PUSH2 0x7C2 JUMP JUMPDEST SWAP3 SWAP2 POP POP JUMP JUMPDEST PUSH1 0x0 DUP3 DUP3 MSTORE PUSH1 0x20 DUP3 ADD SWAP1 POP SWAP3 SWAP2 POP POP JUMP JUMPDEST PUSH1 0x0 PUSH2 0x8F6 DUP3 PUSH2 0x8FD JUMP JUMPDEST SWAP1 POP SWAP2 SWAP1 POP JUMP JUMPDEST PUSH1 0x0 PUSH20 0xFFFFFFFFFFFFFFFFFFFFFFFFFFFFFFFFFFFFFFFF DUP3 AND SWAP1 POP SWAP2 SWAP1 POP JUMP JUMPDEST PUSH1 0x0 DUP2 SWAP1 POP SWAP2 SWAP1 POP JUMP JUMPDEST PUSH32 0x4E6F7420656E6F75676820657468657220746F20636F7665722061736B696E67 PUSH1 0x0 DUP3 ADD MSTORE PUSH32 0x2070726963650000000000000000000000000000000000000000000000000000 PUSH1 0x20 DUP3 ADD MSTORE POP JUMP JUMPDEST PUSH32 0x4E6F7420656E6F75676820657468657220666F72206C697374696E6720666565 PUSH1 0x0 DUP3 ADD MSTORE POP JUMP JUMPDEST PUSH32 0x5265656E7472616E637947756172643A207265656E7472616E742063616C6C00 PUSH1 0x0 DUP3 ADD MSTORE POP JUMP JUMPDEST PUSH32 0x5072696365206D757374206265206174206C6561737420312077656900000000 PUSH1 0x0 DUP3 ADD MSTORE POP JUMP JUMPDEST PUSH2 0x9FA DUP2 PUSH2 0x8EB JUMP JUMPDEST DUP2 EQ PUSH2 0xA05 JUMPI PUSH1 0x0 DUP1 REVERT JUMPDEST POP JUMP JUMPDEST PUSH2 0xA11 DUP2 PUSH2 0x91D JUMP JUMPDEST DUP2 EQ PUSH2 0xA1C JUMPI PUSH1 0x0 DUP1 REVERT JUMPDEST POP JUMP INVALID LOG2 PUSH5 0x6970667358 0x22 SLT KECCAK256 0xC7 0xC2 0x2E MLOAD PUSH21 0x13D4F147D903E27BFEB4AED8AA86F38FDB6E29D50A PUSH4 0xAB6894E5 SWAP12 PUSH5 0x736F6C6343 STOP ADDMOD ADD STOP CALLER "
				},
				"gasEstimates": {
					"creation": {
						"codeDepositCost": "529000",
						"executionCost": "61448",
						"totalCost": "590448"
					},
					"external": {
						"LISTING_FEE()": "1107",
						"buyNft(address,uint256)": "infinite",
						"listNFT(address,uint256,uint256)": "infinite"
					}
				},
				"methodIdentifiers": {
					"LISTING_FEE()": "2b86ae38",
					"buyNft(address,uint256)": "4ddf4f8f",
					"listNFT(address,uint256,uint256)": "ad05f1b4"
				}
			},
			"storageLayout": {
				"storage": [
					{
						"astId": 319,
						"contract": "contracts/GeekNftMarketPlace.sol:GeekNftMarketPlace",
						"label": "_status",
						"offset": 0,
						"slot": "0",
						"type": "t_uint256"
					},
					{
						"astId": 96,
						"contract": "contracts/GeekNftMarketPlace.sol:GeekNftMarketPlace",
						"label": "_nftsSold",
						"offset": 0,
						"slot": "1",
						"type": "t_struct(Counter)5_storage"
					},
					{
						"astId": 99,
						"contract": "contracts/GeekNftMarketPlace.sol:GeekNftMarketPlace",
						"label": "_nftsCount",
						"offset": 0,
						"slot": "2",
						"type": "t_struct(Counter)5_storage"
					},
					{
						"astId": 102,
						"contract": "contracts/GeekNftMarketPlace.sol:GeekNftMarketPlace",
						"label": "LISTING_FEE",
						"offset": 0,
						"slot": "3",
						"type": "t_uint256"
					},
					{
						"astId": 104,
						"contract": "contracts/GeekNftMarketPlace.sol:GeekNftMarketPlace",
						"label": "_marketOwwner",
						"offset": 0,
						"slot": "4",
						"type": "t_address_payable"
					},
					{
						"astId": 109,
						"contract": "contracts/GeekNftMarketPlace.sol:GeekNftMarketPlace",
						"label": "_idToNft",
						"offset": 0,
						"slot": "5",
						"type": "t_mapping(t_uint256,t_struct(NFT)124_storage)"
					}
				],
				"types": {
					"t_address": {
						"encoding": "inplace",
						"label": "address",
						"numberOfBytes": "20"
					},
					"t_address_payable": {
						"encoding": "inplace",
						"label": "address payable",
						"numberOfBytes": "20"
					},
					"t_bool": {
						"encoding": "inplace",
						"label": "bool",
						"numberOfBytes": "1"
					},
					"t_mapping(t_uint256,t_struct(NFT)124_storage)": {
						"encoding": "mapping",
						"key": "t_uint256",
						"label": "mapping(uint256 => struct GeekNftMarketPlace.NFT)",
						"numberOfBytes": "32",
						"value": "t_struct(NFT)124_storage"
					},
					"t_struct(Counter)5_storage": {
						"encoding": "inplace",
						"label": "struct Counters.Counter",
						"members": [
							{
								"astId": 4,
								"contract": "contracts/GeekNftMarketPlace.sol:GeekNftMarketPlace",
								"label": "_value",
								"offset": 0,
								"slot": "0",
								"type": "t_uint256"
							}
						],
						"numberOfBytes": "32"
					},
					"t_struct(NFT)124_storage": {
						"encoding": "inplace",
						"label": "struct GeekNftMarketPlace.NFT",
						"members": [
							{
								"astId": 111,
								"contract": "contracts/GeekNftMarketPlace.sol:GeekNftMarketPlace",
								"label": "nftContract",
								"offset": 0,
								"slot": "0",
								"type": "t_address"
							},
							{
								"astId": 113,
								"contract": "contracts/GeekNftMarketPlace.sol:GeekNftMarketPlace",
								"label": "tokenId",
								"offset": 0,
								"slot": "1",
								"type": "t_uint256"
							},
							{
								"astId": 115,
								"contract": "contracts/GeekNftMarketPlace.sol:GeekNftMarketPlace",
								"label": "price",
								"offset": 0,
								"slot": "2",
								"type": "t_uint256"
							},
							{
								"astId": 117,
								"contract": "contracts/GeekNftMarketPlace.sol:GeekNftMarketPlace",
								"label": "seller",
								"offset": 0,
								"slot": "3",
								"type": "t_address_payable"
							},
							{
								"astId": 119,
								"contract": "contracts/GeekNftMarketPlace.sol:GeekNftMarketPlace",
								"label": "owner",
								"offset": 0,
								"slot": "4",
								"type": "t_address_payable"
							},
							{
								"astId": 121,
								"contract": "contracts/GeekNftMarketPlace.sol:GeekNftMarketPlace",
								"label": "creator",
								"offset": 0,
								"slot": "5",
								"type": "t_address_payable"
							},
							{
								"astId": 123,
								"contract": "contracts/GeekNftMarketPlace.sol:GeekNftMarketPlace",
								"label": "listed",
								"offset": 20,
								"slot": "5",
								"type": "t_bool"
							}
						],
						"numberOfBytes": "192"
					},
					"t_uint256": {
						"encoding": "inplace",
						"label": "uint256",
						"numberOfBytes": "32"
					}
				}
			},
			"userdoc": {
				"kind": "user",
				"methods": {},
				"version": 1
			}
		}
	}
}