{
	"contracts/GeekNftMarketPlace.sol": {
		"GeekNftMarketPlace": {
			"abi": [
				{
					"inputs": [],
					"stateMutability": "nonpayable",
					"type": "constructor"
				},
				{
					"anonymous": false,
					"inputs": [
						{
							"indexed": false,
							"internalType": "address",
							"name": "nftContract",
							"type": "address"
						},
						{
							"indexed": true,
							"internalType": "uint256",
							"name": "tokenId",
							"type": "uint256"
						},
						{
							"indexed": true,
							"internalType": "address",
							"name": "seller",
							"type": "address"
						},
						{
							"indexed": true,
							"internalType": "address",
							"name": "owner",
							"type": "address"
						},
						{
							"indexed": false,
							"internalType": "uint256",
							"name": "price",
							"type": "uint256"
						}
					],
					"name": "NFTListed",
					"type": "event"
				},
				{
					"anonymous": false,
					"inputs": [
						{
							"indexed": false,
							"internalType": "address",
							"name": "nftContract",
							"type": "address"
						},
						{
							"indexed": true,
							"internalType": "uint256",
							"name": "tokenId",
							"type": "uint256"
						},
						{
							"indexed": true,
							"internalType": "address",
							"name": "seller",
							"type": "address"
						},
						{
							"indexed": true,
							"internalType": "address",
							"name": "owner",
							"type": "address"
						},
						{
							"indexed": false,
							"internalType": "uint256",
							"name": "price",
							"type": "uint256"
						}
					],
					"name": "NFTSold",
					"type": "event"
				},
				{
					"inputs": [],
					"name": "LISTING_FEE",
					"outputs": [
						{
							"internalType": "uint256",
							"name": "",
							"type": "uint256"
						}
					],
					"stateMutability": "view",
					"type": "function"
				},
				{
					"inputs": [
						{
							"internalType": "address",
							"name": "_nftContract",
							"type": "address"
						},
						{
							"internalType": "uint256",
							"name": "_tokenId",
							"type": "uint256"
						}
					],
					"name": "buyNft",
					"outputs": [],
					"stateMutability": "payable",
					"type": "function"
				},
				{
					"inputs": [],
					"name": "getListedNfts",
					"outputs": [
						{
							"components": [
								{
									"internalType": "uint256",
									"name": "tokenId",
									"type": "uint256"
								},
								{
									"internalType": "uint256",
									"name": "price",
									"type": "uint256"
								},
								{
									"internalType": "address payable",
									"name": "seller",
									"type": "address"
								},
								{
									"internalType": "address payable",
									"name": "owner",
									"type": "address"
								},
								{
									"internalType": "address payable",
									"name": "creator",
									"type": "address"
								},
								{
									"internalType": "bool",
									"name": "listed",
									"type": "bool"
								}
							],
							"internalType": "struct GeekNftMarketPlace.NFT[]",
							"name": "",
							"type": "tuple[]"
						}
					],
					"stateMutability": "view",
					"type": "function"
				},
				{
					"inputs": [],
					"name": "getListingFee",
					"outputs": [
						{
							"internalType": "uint256",
							"name": "",
							"type": "uint256"
						}
					],
					"stateMutability": "view",
					"type": "function"
				},
				{
					"inputs": [],
					"name": "getMyCreatedNfts",
					"outputs": [
						{
							"components": [
								{
									"internalType": "uint256",
									"name": "tokenId",
									"type": "uint256"
								},
								{
									"internalType": "uint256",
									"name": "price",
									"type": "uint256"
								},
								{
									"internalType": "address payable",
									"name": "seller",
									"type": "address"
								},
								{
									"internalType": "address payable",
									"name": "owner",
									"type": "address"
								},
								{
									"internalType": "address payable",
									"name": "creator",
									"type": "address"
								},
								{
									"internalType": "bool",
									"name": "listed",
									"type": "bool"
								}
							],
							"internalType": "struct GeekNftMarketPlace.NFT[]",
							"name": "",
							"type": "tuple[]"
						}
					],
					"stateMutability": "view",
					"type": "function"
				},
				{
					"inputs": [],
					"name": "getMyListedNfts",
					"outputs": [
						{
							"components": [
								{
									"internalType": "uint256",
									"name": "tokenId",
									"type": "uint256"
								},
								{
									"internalType": "uint256",
									"name": "price",
									"type": "uint256"
								},
								{
									"internalType": "address payable",
									"name": "seller",
									"type": "address"
								},
								{
									"internalType": "address payable",
									"name": "owner",
									"type": "address"
								},
								{
									"internalType": "address payable",
									"name": "creator",
									"type": "address"
								},
								{
									"internalType": "bool",
									"name": "listed",
									"type": "bool"
								}
							],
							"internalType": "struct GeekNftMarketPlace.NFT[]",
							"name": "",
							"type": "tuple[]"
						}
					],
					"stateMutability": "view",
					"type": "function"
				},
				{
					"inputs": [],
					"name": "getMyOwnedNfts",
					"outputs": [
						{
							"components": [
								{
									"internalType": "uint256",
									"name": "tokenId",
									"type": "uint256"
								},
								{
									"internalType": "uint256",
									"name": "price",
									"type": "uint256"
								},
								{
									"internalType": "address payable",
									"name": "seller",
									"type": "address"
								},
								{
									"internalType": "address payable",
									"name": "owner",
									"type": "address"
								},
								{
									"internalType": "address payable",
									"name": "creator",
									"type": "address"
								},
								{
									"internalType": "bool",
									"name": "listed",
									"type": "bool"
								}
							],
							"internalType": "struct GeekNftMarketPlace.NFT[]",
							"name": "",
							"type": "tuple[]"
						}
					],
					"stateMutability": "view",
					"type": "function"
				},
				{
					"inputs": [
						{
							"internalType": "address",
							"name": "_nftContract",
							"type": "address"
						},
						{
							"internalType": "uint256",
							"name": "_tokenId",
							"type": "uint256"
						}
					],
					"name": "getOwner",
					"outputs": [
						{
							"internalType": "address",
							"name": "",
							"type": "address"
						}
					],
					"stateMutability": "view",
					"type": "function"
				},
				{
					"inputs": [
						{
							"internalType": "address",
							"name": "_nftContract",
							"type": "address"
						},
						{
							"internalType": "uint256",
							"name": "_tokenId",
							"type": "uint256"
						},
						{
							"internalType": "uint256",
							"name": "_price",
							"type": "uint256"
						}
					],
					"name": "listNFT",
					"outputs": [],
					"stateMutability": "payable",
					"type": "function"
				},
				{
					"inputs": [
						{
							"internalType": "address",
							"name": "_nftContract",
							"type": "address"
						},
						{
							"internalType": "uint256",
							"name": "_tokenId",
							"type": "uint256"
						},
						{
							"internalType": "uint256",
							"name": "_price",
							"type": "uint256"
						}
					],
					"name": "resellNFT",
					"outputs": [],
					"stateMutability": "payable",
					"type": "function"
				}
			],
			"devdoc": {
				"kind": "dev",
				"methods": {},
				"version": 1
			},
			"evm": {
				"assembly": "    /* \"contracts/GeekNftMarketPlace.sol\":159:5897  contract GeekNftMarketPlace is ReentrancyGuard {... */\n  mstore(0x40, 0x80)\n    /* \"contracts/GeekNftMarketPlace.sol\":362:373  0.002 ether */\n  0x071afd498d0000\n    /* \"contracts/GeekNftMarketPlace.sol\":336:373  uint public LISTING_FEE = 0.002 ether */\n  0x03\n  sstore\n    /* \"contracts/GeekNftMarketPlace.sol\":895:961  constructor() {... */\n  callvalue\n  dup1\n  iszero\n  tag_1\n  jumpi\n  0x00\n  dup1\n  revert\ntag_1:\n  pop\n    /* \"contracts/utils/RenntrancyGuard.sol\":128:129  1 */\n  0x01\n    /* \"contracts/utils/RenntrancyGuard.sol\":233:240  _status */\n  0x00\n    /* \"contracts/utils/RenntrancyGuard.sol\":233:255  _status = _NOT_ENTERED */\n  dup2\n  swap1\n  sstore\n  pop\n    /* \"contracts/GeekNftMarketPlace.sol\":943:953  msg.sender */\n  caller\n    /* \"contracts/GeekNftMarketPlace.sol\":919:932  _marketOwwner */\n  0x04\n  0x00\n    /* \"contracts/GeekNftMarketPlace.sol\":919:954  _marketOwwner = payable(msg.sender) */\n  0x0100\n  exp\n  dup2\n  sload\n  dup2\n  0xffffffffffffffffffffffffffffffffffffffff\n  mul\n  not\n  and\n  swap1\n  dup4\n  0xffffffffffffffffffffffffffffffffffffffff\n  and\n  mul\n  or\n  swap1\n  sstore\n  pop\n    /* \"contracts/GeekNftMarketPlace.sol\":159:5897  contract GeekNftMarketPlace is ReentrancyGuard {... */\n  dataSize(sub_0)\n  dup1\n  dataOffset(sub_0)\n  0x00\n  codecopy\n  0x00\n  return\nstop\n\nsub_0: assembly {\n        /* \"contracts/GeekNftMarketPlace.sol\":159:5897  contract GeekNftMarketPlace is ReentrancyGuard {... */\n      mstore(0x40, 0x80)\n      jumpi(tag_1, lt(calldatasize, 0x04))\n      shr(0xe0, calldataload(0x00))\n      dup1\n      0x8492095a\n      gt\n      tag_12\n      jumpi\n      dup1\n      0x8492095a\n      eq\n      tag_7\n      jumpi\n      dup1\n      0x8d6cb3fb\n      eq\n      tag_8\n      jumpi\n      dup1\n      0xa46b5c5a\n      eq\n      tag_9\n      jumpi\n      dup1\n      0xad05f1b4\n      eq\n      tag_10\n      jumpi\n      dup1\n      0xb8fe6abe\n      eq\n      tag_11\n      jumpi\n      jump(tag_1)\n    tag_12:\n      dup1\n      0x04935694\n      eq\n      tag_2\n      jumpi\n      dup1\n      0x1f4cc4db\n      eq\n      tag_3\n      jumpi\n      dup1\n      0x2b86ae38\n      eq\n      tag_4\n      jumpi\n      dup1\n      0x2f634a90\n      eq\n      tag_5\n      jumpi\n      dup1\n      0x4ddf4f8f\n      eq\n      tag_6\n      jumpi\n    tag_1:\n      0x00\n      dup1\n      revert\n        /* \"contracts/GeekNftMarketPlace.sol\":2804:3412  function resellNFT(address _nftContract, uint _tokenId, uint _price) public payable nonReentrant priceIsGreaterThanZero(_price) valueIsEqualToFees{... */\n    tag_2:\n      tag_13\n      0x04\n      dup1\n      calldatasize\n      sub\n      dup2\n      add\n      swap1\n      tag_14\n      swap2\n      swap1\n      tag_15\n      jump\t// in\n    tag_14:\n      tag_16\n      jump\t// in\n    tag_13:\n      stop\n        /* \"contracts/GeekNftMarketPlace.sol\":4747:5398  function getMyListedNfts() public view returns (NFT[] memory) {... */\n    tag_3:\n      callvalue\n      dup1\n      iszero\n      tag_17\n      jumpi\n      0x00\n      dup1\n      revert\n    tag_17:\n      pop\n      tag_18\n      tag_19\n      jump\t// in\n    tag_18:\n      mload(0x40)\n      tag_20\n      swap2\n      swap1\n      tag_21\n      jump\t// in\n    tag_20:\n      mload(0x40)\n      dup1\n      swap2\n      sub\n      swap1\n      return\n        /* \"contracts/GeekNftMarketPlace.sol\":336:373  uint public LISTING_FEE = 0.002 ether */\n    tag_4:\n      callvalue\n      dup1\n      iszero\n      tag_22\n      jumpi\n      0x00\n      dup1\n      revert\n    tag_22:\n      pop\n      tag_23\n      tag_24\n      jump\t// in\n    tag_23:\n      mload(0x40)\n      tag_25\n      swap2\n      swap1\n      tag_26\n      jump\t// in\n    tag_25:\n      mload(0x40)\n      dup1\n      swap2\n      sub\n      swap1\n      return\n        /* \"contracts/GeekNftMarketPlace.sol\":1322:1469  function getOwner(address _nftContract, uint _tokenId) public view returns (address){... */\n    tag_5:\n      callvalue\n      dup1\n      iszero\n      tag_27\n      jumpi\n      0x00\n      dup1\n      revert\n    tag_27:\n      pop\n      tag_28\n      0x04\n      dup1\n      calldatasize\n      sub\n      dup2\n      add\n      swap1\n      tag_29\n      swap2\n      swap1\n      tag_30\n      jump\t// in\n    tag_29:\n      tag_31\n      jump\t// in\n    tag_28:\n      mload(0x40)\n      tag_32\n      swap2\n      swap1\n      tag_33\n      jump\t// in\n    tag_32:\n      mload(0x40)\n      dup1\n      swap2\n      sub\n      swap1\n      return\n        /* \"contracts/GeekNftMarketPlace.sol\":2138:2749  function buyNft(address _nftContract, uint _tokenId) public payable nonReentrant{... */\n    tag_6:\n      tag_34\n      0x04\n      dup1\n      calldatasize\n      sub\n      dup2\n      add\n      swap1\n      tag_35\n      swap2\n      swap1\n      tag_30\n      jump\t// in\n    tag_35:\n      tag_36\n      jump\t// in\n    tag_34:\n      stop\n        /* \"contracts/GeekNftMarketPlace.sol\":4096:4706  function getMyCreatedNfts() public view returns (NFT[] memory) {... */\n    tag_7:\n      callvalue\n      dup1\n      iszero\n      tag_37\n      jumpi\n      0x00\n      dup1\n      revert\n    tag_37:\n      pop\n      tag_38\n      tag_39\n      jump\t// in\n    tag_38:\n      mload(0x40)\n      tag_40\n      swap2\n      swap1\n      tag_21\n      jump\t// in\n    tag_40:\n      mload(0x40)\n      dup1\n      swap2\n      sub\n      swap1\n      return\n        /* \"contracts/GeekNftMarketPlace.sol\":5404:5895  function getListedNfts() public view returns (NFT[] memory) {... */\n    tag_8:\n      callvalue\n      dup1\n      iszero\n      tag_41\n      jumpi\n      0x00\n      dup1\n      revert\n    tag_41:\n      pop\n      tag_42\n      tag_43\n      jump\t// in\n    tag_42:\n      mload(0x40)\n      tag_44\n      swap2\n      swap1\n      tag_21\n      jump\t// in\n    tag_44:\n      mload(0x40)\n      dup1\n      swap2\n      sub\n      swap1\n      return\n        /* \"contracts/GeekNftMarketPlace.sol\":3451:4055  function getMyOwnedNfts() public view returns (NFT[] memory) {... */\n    tag_9:\n      callvalue\n      dup1\n      iszero\n      tag_45\n      jumpi\n      0x00\n      dup1\n      revert\n    tag_45:\n      pop\n      tag_46\n      tag_47\n      jump\t// in\n    tag_46:\n      mload(0x40)\n      tag_48\n      swap2\n      swap1\n      tag_21\n      jump\t// in\n    tag_48:\n      mload(0x40)\n      dup1\n      swap2\n      sub\n      swap1\n      return\n        /* \"contracts/GeekNftMarketPlace.sol\":1514:2114  function listNFT(address _nftContract, uint _tokenId, uint _price) public payable nonReentrant priceIsGreaterThanZero(_price) valueIsEqualToFees{... */\n    tag_10:\n      tag_49\n      0x04\n      dup1\n      calldatasize\n      sub\n      dup2\n      add\n      swap1\n      tag_50\n      swap2\n      swap1\n      tag_15\n      jump\t// in\n    tag_50:\n      tag_51\n      jump\t// in\n    tag_49:\n      stop\n        /* \"contracts/GeekNftMarketPlace.sol\":1230:1316  function getListingFee() public view returns (uint){... */\n    tag_11:\n      callvalue\n      dup1\n      iszero\n      tag_52\n      jumpi\n      0x00\n      dup1\n      revert\n    tag_52:\n      pop\n      tag_53\n      tag_54\n      jump\t// in\n    tag_53:\n      mload(0x40)\n      tag_55\n      swap2\n      swap1\n      tag_26\n      jump\t// in\n    tag_55:\n      mload(0x40)\n      dup1\n      swap2\n      sub\n      swap1\n      return\n        /* \"contracts/GeekNftMarketPlace.sol\":2804:3412  function resellNFT(address _nftContract, uint _tokenId, uint _price) public payable nonReentrant priceIsGreaterThanZero(_price) valueIsEqualToFees{... */\n    tag_16:\n        /* \"contracts/utils/RenntrancyGuard.sol\":171:172  2 */\n      0x02\n        /* \"contracts/utils/RenntrancyGuard.sol\":310:317  _status */\n      sload(0x00)\n        /* \"contracts/utils/RenntrancyGuard.sol\":310:329  _status != _ENTERED */\n      eq\n      iszero\n        /* \"contracts/utils/RenntrancyGuard.sol\":302:365  require(_status != _ENTERED, \"ReentrancyGuard: reentrant call\") */\n      tag_57\n      jumpi\n      mload(0x40)\n      0x08c379a000000000000000000000000000000000000000000000000000000000\n      dup2\n      mstore\n      0x04\n      add\n      tag_58\n      swap1\n      tag_59\n      jump\t// in\n    tag_58:\n      mload(0x40)\n      dup1\n      swap2\n      sub\n      swap1\n      revert\n    tag_57:\n        /* \"contracts/utils/RenntrancyGuard.sol\":171:172  2 */\n      0x02\n        /* \"contracts/utils/RenntrancyGuard.sol\":375:382  _status */\n      0x00\n        /* \"contracts/utils/RenntrancyGuard.sol\":375:393  _status = _ENTERED */\n      dup2\n      swap1\n      sstore\n      pop\n        /* \"contracts/GeekNftMarketPlace.sol\":2924:2930  _price */\n      dup1\n        /* \"contracts/GeekNftMarketPlace.sol\":1039:1040  0 */\n      0x00\n        /* \"contracts/GeekNftMarketPlace.sol\":1030:1036  _price */\n      dup2\n        /* \"contracts/GeekNftMarketPlace.sol\":1030:1040  _price > 0 */\n      gt\n        /* \"contracts/GeekNftMarketPlace.sol\":1022:1073  require(_price > 0, \"Price must be at least 1 wei\") */\n      tag_61\n      jumpi\n      mload(0x40)\n      0x08c379a000000000000000000000000000000000000000000000000000000000\n      dup2\n      mstore\n      0x04\n      add\n      tag_62\n      swap1\n      tag_63\n      jump\t// in\n    tag_62:\n      mload(0x40)\n      dup1\n      swap2\n      sub\n      swap1\n      revert\n    tag_61:\n        /* \"contracts/GeekNftMarketPlace.sol\":1158:1169  LISTING_FEE */\n      sload(0x03)\n        /* \"contracts/GeekNftMarketPlace.sol\":1145:1154  msg.value */\n      callvalue\n        /* \"contracts/GeekNftMarketPlace.sol\":1145:1169  msg.value == LISTING_FEE */\n      eq\n        /* \"contracts/GeekNftMarketPlace.sol\":1137:1206  require(msg.value == LISTING_FEE, \"Not enough ether for listing fee\") */\n      tag_65\n      jumpi\n      mload(0x40)\n      0x08c379a000000000000000000000000000000000000000000000000000000000\n      dup2\n      mstore\n      0x04\n      add\n      tag_66\n      swap1\n      tag_67\n      jump\t// in\n    tag_66:\n      mload(0x40)\n      dup1\n      swap2\n      sub\n      swap1\n      revert\n    tag_65:\n        /* \"contracts/GeekNftMarketPlace.sol\":2960:2975  NFT storage nft */\n      0x00\n        /* \"contracts/GeekNftMarketPlace.sol\":2978:2986  _idToNFT */\n      0x05\n        /* \"contracts/GeekNftMarketPlace.sol\":2978:2996  _idToNFT[_tokenId] */\n      0x00\n        /* \"contracts/GeekNftMarketPlace.sol\":2987:2995  _tokenId */\n      dup6\n        /* \"contracts/GeekNftMarketPlace.sol\":2978:2996  _idToNFT[_tokenId] */\n      dup2\n      mstore\n      0x20\n      add\n      swap1\n      dup2\n      mstore\n      0x20\n      add\n      0x00\n      keccak256\n        /* \"contracts/GeekNftMarketPlace.sol\":2960:2996  NFT storage nft = _idToNFT[_tokenId] */\n      swap1\n      pop\n        /* \"contracts/GeekNftMarketPlace.sol\":3037:3038  0 */\n      0x00\n        /* \"contracts/GeekNftMarketPlace.sol\":3015:3039  nft.owner  != address(0) */\n      0xffffffffffffffffffffffffffffffffffffffff\n      and\n        /* \"contracts/GeekNftMarketPlace.sol\":3015:3018  nft */\n      dup2\n        /* \"contracts/GeekNftMarketPlace.sol\":3015:3024  nft.owner */\n      0x03\n      add\n      0x00\n      swap1\n      sload\n      swap1\n      0x0100\n      exp\n      swap1\n      div\n      0xffffffffffffffffffffffffffffffffffffffff\n      and\n        /* \"contracts/GeekNftMarketPlace.sol\":3015:3039  nft.owner  != address(0) */\n      0xffffffffffffffffffffffffffffffffffffffff\n      and\n      eq\n      iszero\n        /* \"contracts/GeekNftMarketPlace.sol\":3007:3057  require(nft.owner  != address(0), \"NFT not found\") */\n      tag_69\n      jumpi\n      mload(0x40)\n      0x08c379a000000000000000000000000000000000000000000000000000000000\n      dup2\n      mstore\n      0x04\n      add\n      tag_70\n      swap1\n      tag_71\n      jump\t// in\n    tag_70:\n      mload(0x40)\n      dup1\n      swap2\n      sub\n      swap1\n      revert\n    tag_69:\n        /* \"contracts/GeekNftMarketPlace.sol\":3076:3088  _nftContract */\n      dup5\n        /* \"contracts/GeekNftMarketPlace.sol\":3068:3102  IERC721(_nftContract).transferFrom */\n      0xffffffffffffffffffffffffffffffffffffffff\n      and\n      0x23b872dd\n        /* \"contracts/GeekNftMarketPlace.sol\":3103:3113  msg.sender */\n      caller\n        /* \"contracts/GeekNftMarketPlace.sol\":3123:3127  this */\n      address\n        /* \"contracts/GeekNftMarketPlace.sol\":3130:3138  _tokenId */\n      dup8\n        /* \"contracts/GeekNftMarketPlace.sol\":3068:3139  IERC721(_nftContract).transferFrom(msg.sender, address(this), _tokenId) */\n      mload(0x40)\n      dup5\n      0xffffffff\n      and\n      0xe0\n      shl\n      dup2\n      mstore\n      0x04\n      add\n      tag_72\n      swap4\n      swap3\n      swap2\n      swap1\n      tag_73\n      jump\t// in\n    tag_72:\n      0x00\n      mload(0x40)\n      dup1\n      dup4\n      sub\n      dup2\n      0x00\n      dup8\n      dup1\n      extcodesize\n      iszero\n      dup1\n      iszero\n      tag_74\n      jumpi\n      0x00\n      dup1\n      revert\n    tag_74:\n      pop\n      gas\n      call\n      iszero\n      dup1\n      iszero\n      tag_76\n      jumpi\n      returndatasize\n      0x00\n      dup1\n      returndatacopy\n      revert(0x00, returndatasize)\n    tag_76:\n      pop\n      pop\n      pop\n      pop\n        /* \"contracts/GeekNftMarketPlace.sol\":3171:3181  msg.sender */\n      caller\n        /* \"contracts/GeekNftMarketPlace.sol\":3150:3153  nft */\n      dup2\n        /* \"contracts/GeekNftMarketPlace.sol\":3150:3160  nft.seller */\n      0x02\n      add\n      0x00\n        /* \"contracts/GeekNftMarketPlace.sol\":3150:3182  nft.seller = payable(msg.sender) */\n      0x0100\n      exp\n      dup2\n      sload\n      dup2\n      0xffffffffffffffffffffffffffffffffffffffff\n      mul\n      not\n      and\n      swap1\n      dup4\n      0xffffffffffffffffffffffffffffffffffffffff\n      and\n      mul\n      or\n      swap1\n      sstore\n      pop\n        /* \"contracts/GeekNftMarketPlace.sol\":3220:3224  this */\n      address\n        /* \"contracts/GeekNftMarketPlace.sol\":3192:3195  nft */\n      dup2\n        /* \"contracts/GeekNftMarketPlace.sol\":3192:3201  nft.owner */\n      0x03\n      add\n      0x00\n        /* \"contracts/GeekNftMarketPlace.sol\":3192:3226  nft.owner = payable(address(this)) */\n      0x0100\n      exp\n      dup2\n      sload\n      dup2\n      0xffffffffffffffffffffffffffffffffffffffff\n      mul\n      not\n      and\n      swap1\n      dup4\n      0xffffffffffffffffffffffffffffffffffffffff\n      and\n      mul\n      or\n      swap1\n      sstore\n      pop\n        /* \"contracts/GeekNftMarketPlace.sol\":3249:3253  true */\n      0x01\n        /* \"contracts/GeekNftMarketPlace.sol\":3236:3239  nft */\n      dup2\n        /* \"contracts/GeekNftMarketPlace.sol\":3236:3246  nft.listed */\n      0x04\n      add\n      0x14\n        /* \"contracts/GeekNftMarketPlace.sol\":3236:3253  nft.listed = true */\n      0x0100\n      exp\n      dup2\n      sload\n      dup2\n      0xff\n      mul\n      not\n      and\n      swap1\n      dup4\n      iszero\n      iszero\n      mul\n      or\n      swap1\n      sstore\n      pop\n        /* \"contracts/GeekNftMarketPlace.sol\":3275:3281  _price */\n      dup3\n        /* \"contracts/GeekNftMarketPlace.sol\":3263:3266  nft */\n      dup2\n        /* \"contracts/GeekNftMarketPlace.sol\":3263:3272  nft.price */\n      0x01\n      add\n        /* \"contracts/GeekNftMarketPlace.sol\":3263:3281  nft.price = _price */\n      dup2\n      swap1\n      sstore\n      pop\n        /* \"contracts/GeekNftMarketPlace.sol\":3292:3313  _nftsSold.decrement() */\n      tag_77\n        /* \"contracts/GeekNftMarketPlace.sol\":3292:3301  _nftsSold */\n      0x01\n        /* \"contracts/GeekNftMarketPlace.sol\":3292:3311  _nftsSold.decrement */\n      tag_78\n        /* \"contracts/GeekNftMarketPlace.sol\":3292:3313  _nftsSold.decrement() */\n      jump\t// in\n    tag_77:\n        /* \"contracts/GeekNftMarketPlace.sol\":3391:3395  this */\n      address\n        /* \"contracts/GeekNftMarketPlace.sol\":3337:3405  NFTListed(_nftContract, _tokenId, msg.sender, address(this), _price) */\n      0xffffffffffffffffffffffffffffffffffffffff\n      and\n        /* \"contracts/GeekNftMarketPlace.sol\":3371:3381  msg.sender */\n      caller\n        /* \"contracts/GeekNftMarketPlace.sol\":3337:3405  NFTListed(_nftContract, _tokenId, msg.sender, address(this), _price) */\n      0xffffffffffffffffffffffffffffffffffffffff\n      and\n        /* \"contracts/GeekNftMarketPlace.sol\":3361:3369  _tokenId */\n      dup6\n        /* \"contracts/GeekNftMarketPlace.sol\":3337:3405  NFTListed(_nftContract, _tokenId, msg.sender, address(this), _price) */\n      0xa0c6c0d02d86fdacecbaa5fdf5894bab204e31a778250474108540733a9b8d19\n        /* \"contracts/GeekNftMarketPlace.sol\":3347:3359  _nftContract */\n      dup9\n        /* \"contracts/GeekNftMarketPlace.sol\":3398:3404  _price */\n      dup8\n        /* \"contracts/GeekNftMarketPlace.sol\":3337:3405  NFTListed(_nftContract, _tokenId, msg.sender, address(this), _price) */\n      mload(0x40)\n      tag_79\n      swap3\n      swap2\n      swap1\n      tag_80\n      jump\t// in\n    tag_79:\n      mload(0x40)\n      dup1\n      swap2\n      sub\n      swap1\n      log4\n        /* \"contracts/GeekNftMarketPlace.sol\":2950:3412  {... */\n      pop\n        /* \"contracts/utils/RenntrancyGuard.sol\":403:404  _ */\n      pop\n        /* \"contracts/utils/RenntrancyGuard.sol\":128:129  1 */\n      0x01\n        /* \"contracts/utils/RenntrancyGuard.sol\":414:421  _status */\n      0x00\n        /* \"contracts/utils/RenntrancyGuard.sol\":414:436  _status = _NOT_ENTERED */\n      dup2\n      swap1\n      sstore\n      pop\n        /* \"contracts/GeekNftMarketPlace.sol\":2804:3412  function resellNFT(address _nftContract, uint _tokenId, uint _price) public payable nonReentrant priceIsGreaterThanZero(_price) valueIsEqualToFees{... */\n      pop\n      pop\n      pop\n      jump\t// out\n        /* \"contracts/GeekNftMarketPlace.sol\":4747:5398  function getMyListedNfts() public view returns (NFT[] memory) {... */\n    tag_19:\n        /* \"contracts/GeekNftMarketPlace.sol\":4795:4807  NFT[] memory */\n      0x60\n        /* \"contracts/GeekNftMarketPlace.sol\":4819:4833  uint nftsCount */\n      0x00\n        /* \"contracts/GeekNftMarketPlace.sol\":4836:4856  _nftsCount.current() */\n      tag_82\n        /* \"contracts/GeekNftMarketPlace.sol\":4836:4846  _nftsCount */\n      0x02\n        /* \"contracts/GeekNftMarketPlace.sol\":4836:4854  _nftsCount.current */\n      tag_83\n        /* \"contracts/GeekNftMarketPlace.sol\":4836:4856  _nftsCount.current() */\n      jump\t// in\n    tag_82:\n        /* \"contracts/GeekNftMarketPlace.sol\":4819:4856  uint nftsCount = _nftsCount.current() */\n      swap1\n      pop\n        /* \"contracts/GeekNftMarketPlace.sol\":4866:4882  uint myNftsCount */\n      0x00\n        /* \"contracts/GeekNftMarketPlace.sol\":4901:4907  uint i */\n      dup1\n        /* \"contracts/GeekNftMarketPlace.sol\":4910:4911  1 */\n      0x01\n        /* \"contracts/GeekNftMarketPlace.sol\":4901:4911  uint i = 1 */\n      swap1\n      pop\n        /* \"contracts/GeekNftMarketPlace.sol\":4896:5064  for (uint i = 1; i <= nftsCount; i++) {... */\n    tag_84:\n        /* \"contracts/GeekNftMarketPlace.sol\":4918:4927  nftsCount */\n      dup3\n        /* \"contracts/GeekNftMarketPlace.sol\":4913:4914  i */\n      dup2\n        /* \"contracts/GeekNftMarketPlace.sol\":4913:4927  i <= nftsCount */\n      gt\n        /* \"contracts/GeekNftMarketPlace.sol\":4896:5064  for (uint i = 1; i <= nftsCount; i++) {... */\n      tag_85\n      jumpi\n        /* \"contracts/GeekNftMarketPlace.sol\":4973:4983  msg.sender */\n      caller\n        /* \"contracts/GeekNftMarketPlace.sol\":4951:4983  _idToNFT[i].seller == msg.sender */\n      0xffffffffffffffffffffffffffffffffffffffff\n      and\n        /* \"contracts/GeekNftMarketPlace.sol\":4951:4959  _idToNFT */\n      0x05\n        /* \"contracts/GeekNftMarketPlace.sol\":4951:4962  _idToNFT[i] */\n      0x00\n        /* \"contracts/GeekNftMarketPlace.sol\":4960:4961  i */\n      dup4\n        /* \"contracts/GeekNftMarketPlace.sol\":4951:4962  _idToNFT[i] */\n      dup2\n      mstore\n      0x20\n      add\n      swap1\n      dup2\n      mstore\n      0x20\n      add\n      0x00\n      keccak256\n        /* \"contracts/GeekNftMarketPlace.sol\":4951:4969  _idToNFT[i].seller */\n      0x02\n      add\n      0x00\n      swap1\n      sload\n      swap1\n      0x0100\n      exp\n      swap1\n      div\n      0xffffffffffffffffffffffffffffffffffffffff\n      and\n        /* \"contracts/GeekNftMarketPlace.sol\":4951:4983  _idToNFT[i].seller == msg.sender */\n      0xffffffffffffffffffffffffffffffffffffffff\n      and\n      eq\n        /* \"contracts/GeekNftMarketPlace.sol\":4951:5005  _idToNFT[i].seller == msg.sender && _idToNFT[i].listed */\n      dup1\n      iszero\n      tag_87\n      jumpi\n      pop\n        /* \"contracts/GeekNftMarketPlace.sol\":4987:4995  _idToNFT */\n      0x05\n        /* \"contracts/GeekNftMarketPlace.sol\":4987:4998  _idToNFT[i] */\n      0x00\n        /* \"contracts/GeekNftMarketPlace.sol\":4996:4997  i */\n      dup3\n        /* \"contracts/GeekNftMarketPlace.sol\":4987:4998  _idToNFT[i] */\n      dup2\n      mstore\n      0x20\n      add\n      swap1\n      dup2\n      mstore\n      0x20\n      add\n      0x00\n      keccak256\n        /* \"contracts/GeekNftMarketPlace.sol\":4987:5005  _idToNFT[i].listed */\n      0x04\n      add\n      0x14\n      swap1\n      sload\n      swap1\n      0x0100\n      exp\n      swap1\n      div\n      0xff\n      and\n        /* \"contracts/GeekNftMarketPlace.sol\":4951:5005  _idToNFT[i].seller == msg.sender && _idToNFT[i].listed */\n    tag_87:\n        /* \"contracts/GeekNftMarketPlace.sol\":4948:5054  if(_idToNFT[i].seller == msg.sender && _idToNFT[i].listed) {... */\n      iszero\n      tag_88\n      jumpi\n        /* \"contracts/GeekNftMarketPlace.sol\":5025:5039  myNftsCount ++ */\n      dup2\n      dup1\n      tag_89\n      swap1\n      tag_90\n      jump\t// in\n    tag_89:\n      swap3\n      pop\n      pop\n        /* \"contracts/GeekNftMarketPlace.sol\":4948:5054  if(_idToNFT[i].seller == msg.sender && _idToNFT[i].listed) {... */\n    tag_88:\n        /* \"contracts/GeekNftMarketPlace.sol\":4929:4932  i++ */\n      dup1\n      dup1\n      tag_91\n      swap1\n      tag_90\n      jump\t// in\n    tag_91:\n      swap2\n      pop\n      pop\n        /* \"contracts/GeekNftMarketPlace.sol\":4896:5064  for (uint i = 1; i <= nftsCount; i++) {... */\n      jump(tag_84)\n    tag_85:\n      pop\n        /* \"contracts/GeekNftMarketPlace.sol\":5074:5093  NFT[] memory myNfts */\n      0x00\n        /* \"contracts/GeekNftMarketPlace.sol\":5106:5117  myNftsCount */\n      dup2\n        /* \"contracts/GeekNftMarketPlace.sol\":5096:5118  new NFT[](myNftsCount) */\n      0xffffffffffffffff\n      dup2\n      gt\n      iszero\n      tag_92\n      jumpi\n      tag_93\n      tag_94\n      jump\t// in\n    tag_93:\n    tag_92:\n      mload(0x40)\n      swap1\n      dup1\n      dup3\n      mstore\n      dup1\n      0x20\n      mul\n      0x20\n      add\n      dup3\n      add\n      0x40\n      mstore\n      dup1\n      iszero\n      tag_95\n      jumpi\n      dup2\n      0x20\n      add\n    tag_96:\n      tag_97\n      tag_98\n      jump\t// in\n    tag_97:\n      dup2\n      mstore\n      0x20\n      add\n      swap1\n      0x01\n      swap1\n      sub\n      swap1\n      dup2\n      tag_96\n      jumpi\n      swap1\n      pop\n    tag_95:\n      pop\n        /* \"contracts/GeekNftMarketPlace.sol\":5074:5118  NFT[] memory myNfts = new NFT[](myNftsCount) */\n      swap1\n      pop\n        /* \"contracts/GeekNftMarketPlace.sol\":5128:5141  uint nftIndex */\n      0x00\n        /* \"contracts/GeekNftMarketPlace.sol\":5160:5166  uint i */\n      dup1\n        /* \"contracts/GeekNftMarketPlace.sol\":5169:5170  1 */\n      0x01\n        /* \"contracts/GeekNftMarketPlace.sol\":5160:5170  uint i = 1 */\n      swap1\n      pop\n        /* \"contracts/GeekNftMarketPlace.sol\":5155:5368  for (uint i = 1; i <= nftsCount; i++) {... */\n    tag_99:\n        /* \"contracts/GeekNftMarketPlace.sol\":5177:5186  nftsCount */\n      dup5\n        /* \"contracts/GeekNftMarketPlace.sol\":5172:5173  i */\n      dup2\n        /* \"contracts/GeekNftMarketPlace.sol\":5172:5186  i <= nftsCount */\n      gt\n        /* \"contracts/GeekNftMarketPlace.sol\":5155:5368  for (uint i = 1; i <= nftsCount; i++) {... */\n      tag_100\n      jumpi\n        /* \"contracts/GeekNftMarketPlace.sol\":5232:5242  msg.sender */\n      caller\n        /* \"contracts/GeekNftMarketPlace.sol\":5210:5242  _idToNFT[i].seller == msg.sender */\n      0xffffffffffffffffffffffffffffffffffffffff\n      and\n        /* \"contracts/GeekNftMarketPlace.sol\":5210:5218  _idToNFT */\n      0x05\n        /* \"contracts/GeekNftMarketPlace.sol\":5210:5221  _idToNFT[i] */\n      0x00\n        /* \"contracts/GeekNftMarketPlace.sol\":5219:5220  i */\n      dup4\n        /* \"contracts/GeekNftMarketPlace.sol\":5210:5221  _idToNFT[i] */\n      dup2\n      mstore\n      0x20\n      add\n      swap1\n      dup2\n      mstore\n      0x20\n      add\n      0x00\n      keccak256\n        /* \"contracts/GeekNftMarketPlace.sol\":5210:5228  _idToNFT[i].seller */\n      0x02\n      add\n      0x00\n      swap1\n      sload\n      swap1\n      0x0100\n      exp\n      swap1\n      div\n      0xffffffffffffffffffffffffffffffffffffffff\n      and\n        /* \"contracts/GeekNftMarketPlace.sol\":5210:5242  _idToNFT[i].seller == msg.sender */\n      0xffffffffffffffffffffffffffffffffffffffff\n      and\n      eq\n        /* \"contracts/GeekNftMarketPlace.sol\":5210:5264  _idToNFT[i].seller == msg.sender && _idToNFT[i].listed */\n      dup1\n      iszero\n      tag_102\n      jumpi\n      pop\n        /* \"contracts/GeekNftMarketPlace.sol\":5246:5254  _idToNFT */\n      0x05\n        /* \"contracts/GeekNftMarketPlace.sol\":5246:5257  _idToNFT[i] */\n      0x00\n        /* \"contracts/GeekNftMarketPlace.sol\":5255:5256  i */\n      dup3\n        /* \"contracts/GeekNftMarketPlace.sol\":5246:5257  _idToNFT[i] */\n      dup2\n      mstore\n      0x20\n      add\n      swap1\n      dup2\n      mstore\n      0x20\n      add\n      0x00\n      keccak256\n        /* \"contracts/GeekNftMarketPlace.sol\":5246:5264  _idToNFT[i].listed */\n      0x04\n      add\n      0x14\n      swap1\n      sload\n      swap1\n      0x0100\n      exp\n      swap1\n      div\n      0xff\n      and\n        /* \"contracts/GeekNftMarketPlace.sol\":5210:5264  _idToNFT[i].seller == msg.sender && _idToNFT[i].listed */\n    tag_102:\n        /* \"contracts/GeekNftMarketPlace.sol\":5207:5358  if(_idToNFT[i].seller == msg.sender && _idToNFT[i].listed) {... */\n      iszero\n      tag_103\n      jumpi\n        /* \"contracts/GeekNftMarketPlace.sol\":5303:5311  _idToNFT */\n      0x05\n        /* \"contracts/GeekNftMarketPlace.sol\":5303:5314  _idToNFT[i] */\n      0x00\n        /* \"contracts/GeekNftMarketPlace.sol\":5312:5313  i */\n      dup3\n        /* \"contracts/GeekNftMarketPlace.sol\":5303:5314  _idToNFT[i] */\n      dup2\n      mstore\n      0x20\n      add\n      swap1\n      dup2\n      mstore\n      0x20\n      add\n      0x00\n      keccak256\n        /* \"contracts/GeekNftMarketPlace.sol\":5284:5314  myNfts[nftIndex] = _idToNFT[i] */\n      mload(0x40)\n      dup1\n      0xc0\n      add\n      0x40\n      mstore\n      swap1\n      dup2\n      0x00\n      dup3\n      add\n      sload\n      dup2\n      mstore\n      0x20\n      add\n      0x01\n      dup3\n      add\n      sload\n      dup2\n      mstore\n      0x20\n      add\n      0x02\n      dup3\n      add\n      0x00\n      swap1\n      sload\n      swap1\n      0x0100\n      exp\n      swap1\n      div\n      0xffffffffffffffffffffffffffffffffffffffff\n      and\n      0xffffffffffffffffffffffffffffffffffffffff\n      and\n      0xffffffffffffffffffffffffffffffffffffffff\n      and\n      dup2\n      mstore\n      0x20\n      add\n      0x03\n      dup3\n      add\n      0x00\n      swap1\n      sload\n      swap1\n      0x0100\n      exp\n      swap1\n      div\n      0xffffffffffffffffffffffffffffffffffffffff\n      and\n      0xffffffffffffffffffffffffffffffffffffffff\n      and\n      0xffffffffffffffffffffffffffffffffffffffff\n      and\n      dup2\n      mstore\n      0x20\n      add\n      0x04\n      dup3\n      add\n      0x00\n      swap1\n      sload\n      swap1\n      0x0100\n      exp\n      swap1\n      div\n      0xffffffffffffffffffffffffffffffffffffffff\n      and\n      0xffffffffffffffffffffffffffffffffffffffff\n      and\n      0xffffffffffffffffffffffffffffffffffffffff\n      and\n      dup2\n      mstore\n      0x20\n      add\n      0x04\n      dup3\n      add\n      0x14\n      swap1\n      sload\n      swap1\n      0x0100\n      exp\n      swap1\n      div\n      0xff\n      and\n      iszero\n      iszero\n      iszero\n      iszero\n      dup2\n      mstore\n      pop\n      pop\n        /* \"contracts/GeekNftMarketPlace.sol\":5284:5290  myNfts */\n      dup4\n        /* \"contracts/GeekNftMarketPlace.sol\":5291:5299  nftIndex */\n      dup4\n        /* \"contracts/GeekNftMarketPlace.sol\":5284:5300  myNfts[nftIndex] */\n      dup2\n      mload\n      dup2\n      lt\n      tag_104\n      jumpi\n      tag_105\n      tag_106\n      jump\t// in\n    tag_105:\n    tag_104:\n      0x20\n      mul\n      0x20\n      add\n      add\n        /* \"contracts/GeekNftMarketPlace.sol\":5284:5314  myNfts[nftIndex] = _idToNFT[i] */\n      dup2\n      swap1\n      mstore\n      pop\n        /* \"contracts/GeekNftMarketPlace.sol\":5332:5343  nftIndex ++ */\n      dup2\n      dup1\n      tag_107\n      swap1\n      tag_90\n      jump\t// in\n    tag_107:\n      swap3\n      pop\n      pop\n        /* \"contracts/GeekNftMarketPlace.sol\":5207:5358  if(_idToNFT[i].seller == msg.sender && _idToNFT[i].listed) {... */\n    tag_103:\n        /* \"contracts/GeekNftMarketPlace.sol\":5188:5191  i++ */\n      dup1\n      dup1\n      tag_108\n      swap1\n      tag_90\n      jump\t// in\n    tag_108:\n      swap2\n      pop\n      pop\n        /* \"contracts/GeekNftMarketPlace.sol\":5155:5368  for (uint i = 1; i <= nftsCount; i++) {... */\n      jump(tag_99)\n    tag_100:\n      pop\n        /* \"contracts/GeekNftMarketPlace.sol\":5385:5391  myNfts */\n      dup2\n        /* \"contracts/GeekNftMarketPlace.sol\":5378:5391  return myNfts */\n      swap5\n      pop\n      pop\n      pop\n      pop\n      pop\n        /* \"contracts/GeekNftMarketPlace.sol\":4747:5398  function getMyListedNfts() public view returns (NFT[] memory) {... */\n      swap1\n      jump\t// out\n        /* \"contracts/GeekNftMarketPlace.sol\":336:373  uint public LISTING_FEE = 0.002 ether */\n    tag_24:\n      sload(0x03)\n      dup2\n      jump\t// out\n        /* \"contracts/GeekNftMarketPlace.sol\":1322:1469  function getOwner(address _nftContract, uint _tokenId) public view returns (address){... */\n    tag_31:\n        /* \"contracts/GeekNftMarketPlace.sol\":1398:1405  address */\n      0x00\n        /* \"contracts/GeekNftMarketPlace.sol\":1431:1443  _nftContract */\n      dup3\n        /* \"contracts/GeekNftMarketPlace.sol\":1423:1452  IERC721(_nftContract).ownerOf */\n      0xffffffffffffffffffffffffffffffffffffffff\n      and\n      0x6352211e\n        /* \"contracts/GeekNftMarketPlace.sol\":1453:1461  _tokenId */\n      dup4\n        /* \"contracts/GeekNftMarketPlace.sol\":1423:1462  IERC721(_nftContract).ownerOf(_tokenId) */\n      mload(0x40)\n      dup3\n      0xffffffff\n      and\n      0xe0\n      shl\n      dup2\n      mstore\n      0x04\n      add\n      tag_110\n      swap2\n      swap1\n      tag_26\n      jump\t// in\n    tag_110:\n      0x20\n      mload(0x40)\n      dup1\n      dup4\n      sub\n      dup2\n      dup7\n      dup1\n      extcodesize\n      iszero\n      dup1\n      iszero\n      tag_111\n      jumpi\n      0x00\n      dup1\n      revert\n    tag_111:\n      pop\n      gas\n      staticcall\n      iszero\n      dup1\n      iszero\n      tag_113\n      jumpi\n      returndatasize\n      0x00\n      dup1\n      returndatacopy\n      revert(0x00, returndatasize)\n    tag_113:\n      pop\n      pop\n      pop\n      pop\n      mload(0x40)\n      returndatasize\n      not(0x1f)\n      0x1f\n      dup3\n      add\n      and\n      dup3\n      add\n      dup1\n      0x40\n      mstore\n      pop\n      dup2\n      add\n      swap1\n      tag_114\n      swap2\n      swap1\n      tag_115\n      jump\t// in\n    tag_114:\n        /* \"contracts/GeekNftMarketPlace.sol\":1416:1462  return IERC721(_nftContract).ownerOf(_tokenId) */\n      swap1\n      pop\n        /* \"contracts/GeekNftMarketPlace.sol\":1322:1469  function getOwner(address _nftContract, uint _tokenId) public view returns (address){... */\n      swap3\n      swap2\n      pop\n      pop\n      jump\t// out\n        /* \"contracts/GeekNftMarketPlace.sol\":2138:2749  function buyNft(address _nftContract, uint _tokenId) public payable nonReentrant{... */\n    tag_36:\n        /* \"contracts/utils/RenntrancyGuard.sol\":171:172  2 */\n      0x02\n        /* \"contracts/utils/RenntrancyGuard.sol\":310:317  _status */\n      sload(0x00)\n        /* \"contracts/utils/RenntrancyGuard.sol\":310:329  _status != _ENTERED */\n      eq\n      iszero\n        /* \"contracts/utils/RenntrancyGuard.sol\":302:365  require(_status != _ENTERED, \"ReentrancyGuard: reentrant call\") */\n      tag_117\n      jumpi\n      mload(0x40)\n      0x08c379a000000000000000000000000000000000000000000000000000000000\n      dup2\n      mstore\n      0x04\n      add\n      tag_118\n      swap1\n      tag_59\n      jump\t// in\n    tag_118:\n      mload(0x40)\n      dup1\n      swap2\n      sub\n      swap1\n      revert\n    tag_117:\n        /* \"contracts/utils/RenntrancyGuard.sol\":171:172  2 */\n      0x02\n        /* \"contracts/utils/RenntrancyGuard.sol\":375:382  _status */\n      0x00\n        /* \"contracts/utils/RenntrancyGuard.sol\":375:393  _status = _ENTERED */\n      dup2\n      swap1\n      sstore\n      pop\n        /* \"contracts/GeekNftMarketPlace.sol\":2228:2243  NFT storage nft */\n      0x00\n        /* \"contracts/GeekNftMarketPlace.sol\":2246:2254  _idToNFT */\n      0x05\n        /* \"contracts/GeekNftMarketPlace.sol\":2246:2264  _idToNFT[_tokenId] */\n      0x00\n        /* \"contracts/GeekNftMarketPlace.sol\":2255:2263  _tokenId */\n      dup4\n        /* \"contracts/GeekNftMarketPlace.sol\":2246:2264  _idToNFT[_tokenId] */\n      dup2\n      mstore\n      0x20\n      add\n      swap1\n      dup2\n      mstore\n      0x20\n      add\n      0x00\n      keccak256\n        /* \"contracts/GeekNftMarketPlace.sol\":2228:2264  NFT storage nft = _idToNFT[_tokenId] */\n      swap1\n      pop\n        /* \"contracts/GeekNftMarketPlace.sol\":2304:2305  0 */\n      0x00\n        /* \"contracts/GeekNftMarketPlace.sol\":2283:2306  nft.owner != address(0) */\n      0xffffffffffffffffffffffffffffffffffffffff\n      and\n        /* \"contracts/GeekNftMarketPlace.sol\":2283:2286  nft */\n      dup2\n        /* \"contracts/GeekNftMarketPlace.sol\":2283:2292  nft.owner */\n      0x03\n      add\n      0x00\n      swap1\n      sload\n      swap1\n      0x0100\n      exp\n      swap1\n      div\n      0xffffffffffffffffffffffffffffffffffffffff\n      and\n        /* \"contracts/GeekNftMarketPlace.sol\":2283:2306  nft.owner != address(0) */\n      0xffffffffffffffffffffffffffffffffffffffff\n      and\n      eq\n      iszero\n        /* \"contracts/GeekNftMarketPlace.sol\":2275:2324  require(nft.owner != address(0), \"NFT not found\") */\n      tag_120\n      jumpi\n      mload(0x40)\n      0x08c379a000000000000000000000000000000000000000000000000000000000\n      dup2\n      mstore\n      0x04\n      add\n      tag_121\n      swap1\n      tag_71\n      jump\t// in\n    tag_121:\n      mload(0x40)\n      dup1\n      swap2\n      sub\n      swap1\n      revert\n    tag_120:\n        /* \"contracts/GeekNftMarketPlace.sol\":2355:2358  nft */\n      dup1\n        /* \"contracts/GeekNftMarketPlace.sol\":2355:2364  nft.price */\n      0x01\n      add\n      sload\n        /* \"contracts/GeekNftMarketPlace.sol\":2342:2351  msg.value */\n      callvalue\n        /* \"contracts/GeekNftMarketPlace.sol\":2342:2364  msg.value >= nft.price */\n      lt\n      iszero\n        /* \"contracts/GeekNftMarketPlace.sol\":2334:2407  require(msg.value >= nft.price, \"Not enough ether to cover asking price\") */\n      tag_122\n      jumpi\n      mload(0x40)\n      0x08c379a000000000000000000000000000000000000000000000000000000000\n      dup2\n      mstore\n      0x04\n      add\n      tag_123\n      swap1\n      tag_124\n      jump\t// in\n    tag_123:\n      mload(0x40)\n      dup1\n      swap2\n      sub\n      swap1\n      revert\n    tag_122:\n        /* \"contracts/GeekNftMarketPlace.sol\":2418:2439  address payable buyer */\n      0x00\n        /* \"contracts/GeekNftMarketPlace.sol\":2450:2460  msg.sender */\n      caller\n        /* \"contracts/GeekNftMarketPlace.sol\":2418:2461  address payable buyer = payable(msg.sender) */\n      swap1\n      pop\n        /* \"contracts/GeekNftMarketPlace.sol\":2471:2474  nft */\n      dup2\n        /* \"contracts/GeekNftMarketPlace.sol\":2471:2481  nft.seller */\n      0x02\n      add\n      0x00\n      swap1\n      sload\n      swap1\n      0x0100\n      exp\n      swap1\n      div\n      0xffffffffffffffffffffffffffffffffffffffff\n      and\n        /* \"contracts/GeekNftMarketPlace.sol\":2471:2490  nft.seller.transfer */\n      0xffffffffffffffffffffffffffffffffffffffff\n      and\n        /* \"contracts/GeekNftMarketPlace.sol\":2471:2501  nft.seller.transfer(msg.value) */\n      0x08fc\n        /* \"contracts/GeekNftMarketPlace.sol\":2491:2500  msg.value */\n      callvalue\n        /* \"contracts/GeekNftMarketPlace.sol\":2471:2501  nft.seller.transfer(msg.value) */\n      swap1\n      dup2\n      iszero\n      mul\n      swap1\n      mload(0x40)\n      0x00\n      mload(0x40)\n      dup1\n      dup4\n      sub\n      dup2\n      dup6\n      dup9\n      dup9\n      call\n      swap4\n      pop\n      pop\n      pop\n      pop\n      iszero\n      dup1\n      iszero\n      tag_126\n      jumpi\n      returndatasize\n      0x00\n      dup1\n      returndatacopy\n      revert(0x00, returndatasize)\n    tag_126:\n      pop\n        /* \"contracts/GeekNftMarketPlace.sol\":2520:2532  _nftContract */\n      dup4\n        /* \"contracts/GeekNftMarketPlace.sol\":2512:2546  IERC721(_nftContract).transferFrom */\n      0xffffffffffffffffffffffffffffffffffffffff\n      and\n      0x23b872dd\n        /* \"contracts/GeekNftMarketPlace.sol\":2555:2559  this */\n      address\n        /* \"contracts/GeekNftMarketPlace.sol\":2562:2567  buyer */\n      dup4\n        /* \"contracts/GeekNftMarketPlace.sol\":2569:2577  _tokenId */\n      dup7\n        /* \"contracts/GeekNftMarketPlace.sol\":2512:2578  IERC721(_nftContract).transferFrom(address(this), buyer, _tokenId) */\n      mload(0x40)\n      dup5\n      0xffffffff\n      and\n      0xe0\n      shl\n      dup2\n      mstore\n      0x04\n      add\n      tag_127\n      swap4\n      swap3\n      swap2\n      swap1\n      tag_128\n      jump\t// in\n    tag_127:\n      0x00\n      mload(0x40)\n      dup1\n      dup4\n      sub\n      dup2\n      0x00\n      dup8\n      dup1\n      extcodesize\n      iszero\n      dup1\n      iszero\n      tag_129\n      jumpi\n      0x00\n      dup1\n      revert\n    tag_129:\n      pop\n      gas\n      call\n      iszero\n      dup1\n      iszero\n      tag_131\n      jumpi\n      returndatasize\n      0x00\n      dup1\n      returndatacopy\n      revert(0x00, returndatasize)\n    tag_131:\n      pop\n      pop\n      pop\n      pop\n        /* \"contracts/GeekNftMarketPlace.sol\":2600:2605  buyer */\n      dup1\n        /* \"contracts/GeekNftMarketPlace.sol\":2588:2591  nft */\n      dup3\n        /* \"contracts/GeekNftMarketPlace.sol\":2588:2597  nft.owner */\n      0x03\n      add\n      0x00\n        /* \"contracts/GeekNftMarketPlace.sol\":2588:2605  nft.owner = buyer */\n      0x0100\n      exp\n      dup2\n      sload\n      dup2\n      0xffffffffffffffffffffffffffffffffffffffff\n      mul\n      not\n      and\n      swap1\n      dup4\n      0xffffffffffffffffffffffffffffffffffffffff\n      and\n      mul\n      or\n      swap1\n      sstore\n      pop\n        /* \"contracts/GeekNftMarketPlace.sol\":2628:2633  false */\n      0x00\n        /* \"contracts/GeekNftMarketPlace.sol\":2615:2618  nft */\n      dup3\n        /* \"contracts/GeekNftMarketPlace.sol\":2615:2625  nft.listed */\n      0x04\n      add\n      0x14\n        /* \"contracts/GeekNftMarketPlace.sol\":2615:2633  nft.listed = false */\n      0x0100\n      exp\n      dup2\n      sload\n      dup2\n      0xff\n      mul\n      not\n      and\n      swap1\n      dup4\n      iszero\n      iszero\n      mul\n      or\n      swap1\n      sstore\n      pop\n        /* \"contracts/GeekNftMarketPlace.sol\":2644:2665  _nftsSold.increment() */\n      tag_132\n        /* \"contracts/GeekNftMarketPlace.sol\":2644:2653  _nftsSold */\n      0x01\n        /* \"contracts/GeekNftMarketPlace.sol\":2644:2663  _nftsSold.increment */\n      tag_133\n        /* \"contracts/GeekNftMarketPlace.sol\":2644:2665  _nftsSold.increment() */\n      jump\t// in\n    tag_132:\n        /* \"contracts/GeekNftMarketPlace.sol\":2725:2730  buyer */\n      dup1\n        /* \"contracts/GeekNftMarketPlace.sol\":2681:2742  NFTSold(_nftContract, _tokenId, nft.seller, buyer, msg.value) */\n      0xffffffffffffffffffffffffffffffffffffffff\n      and\n        /* \"contracts/GeekNftMarketPlace.sol\":2713:2716  nft */\n      dup3\n        /* \"contracts/GeekNftMarketPlace.sol\":2713:2723  nft.seller */\n      0x02\n      add\n      0x00\n      swap1\n      sload\n      swap1\n      0x0100\n      exp\n      swap1\n      div\n      0xffffffffffffffffffffffffffffffffffffffff\n      and\n        /* \"contracts/GeekNftMarketPlace.sol\":2681:2742  NFTSold(_nftContract, _tokenId, nft.seller, buyer, msg.value) */\n      0xffffffffffffffffffffffffffffffffffffffff\n      and\n        /* \"contracts/GeekNftMarketPlace.sol\":2703:2711  _tokenId */\n      dup5\n        /* \"contracts/GeekNftMarketPlace.sol\":2681:2742  NFTSold(_nftContract, _tokenId, nft.seller, buyer, msg.value) */\n      0x16f1dbd97e6bf646d429ed186cce832f1f7fd9907814293b83181e9970ab7bd2\n        /* \"contracts/GeekNftMarketPlace.sol\":2689:2701  _nftContract */\n      dup8\n        /* \"contracts/GeekNftMarketPlace.sol\":2732:2741  msg.value */\n      callvalue\n        /* \"contracts/GeekNftMarketPlace.sol\":2681:2742  NFTSold(_nftContract, _tokenId, nft.seller, buyer, msg.value) */\n      mload(0x40)\n      tag_134\n      swap3\n      swap2\n      swap1\n      tag_80\n      jump\t// in\n    tag_134:\n      mload(0x40)\n      dup1\n      swap2\n      sub\n      swap1\n      log4\n        /* \"contracts/GeekNftMarketPlace.sol\":2218:2749  {... */\n      pop\n      pop\n        /* \"contracts/utils/RenntrancyGuard.sol\":128:129  1 */\n      0x01\n        /* \"contracts/utils/RenntrancyGuard.sol\":414:421  _status */\n      0x00\n        /* \"contracts/utils/RenntrancyGuard.sol\":414:436  _status = _NOT_ENTERED */\n      dup2\n      swap1\n      sstore\n      pop\n        /* \"contracts/GeekNftMarketPlace.sol\":2138:2749  function buyNft(address _nftContract, uint _tokenId) public payable nonReentrant{... */\n      pop\n      pop\n      jump\t// out\n        /* \"contracts/GeekNftMarketPlace.sol\":4096:4706  function getMyCreatedNfts() public view returns (NFT[] memory) {... */\n    tag_39:\n        /* \"contracts/GeekNftMarketPlace.sol\":4145:4157  NFT[] memory */\n      0x60\n        /* \"contracts/GeekNftMarketPlace.sol\":4169:4183  uint nftsCount */\n      0x00\n        /* \"contracts/GeekNftMarketPlace.sol\":4186:4206  _nftsCount.current() */\n      tag_136\n        /* \"contracts/GeekNftMarketPlace.sol\":4186:4196  _nftsCount */\n      0x02\n        /* \"contracts/GeekNftMarketPlace.sol\":4186:4204  _nftsCount.current */\n      tag_83\n        /* \"contracts/GeekNftMarketPlace.sol\":4186:4206  _nftsCount.current() */\n      jump\t// in\n    tag_136:\n        /* \"contracts/GeekNftMarketPlace.sol\":4169:4206  uint nftsCount = _nftsCount.current() */\n      swap1\n      pop\n        /* \"contracts/GeekNftMarketPlace.sol\":4216:4232  uint myNftsCount */\n      0x00\n        /* \"contracts/GeekNftMarketPlace.sol\":4251:4257  uint i */\n      dup1\n        /* \"contracts/GeekNftMarketPlace.sol\":4260:4261  1 */\n      0x01\n        /* \"contracts/GeekNftMarketPlace.sol\":4251:4261  uint i = 1 */\n      swap1\n      pop\n        /* \"contracts/GeekNftMarketPlace.sol\":4246:4393  for (uint i = 1; i <= nftsCount; i++) {... */\n    tag_137:\n        /* \"contracts/GeekNftMarketPlace.sol\":4268:4277  nftsCount */\n      dup3\n        /* \"contracts/GeekNftMarketPlace.sol\":4263:4264  i */\n      dup2\n        /* \"contracts/GeekNftMarketPlace.sol\":4263:4277  i <= nftsCount */\n      gt\n        /* \"contracts/GeekNftMarketPlace.sol\":4246:4393  for (uint i = 1; i <= nftsCount; i++) {... */\n      tag_138\n      jumpi\n        /* \"contracts/GeekNftMarketPlace.sol\":4324:4334  msg.sender */\n      caller\n        /* \"contracts/GeekNftMarketPlace.sol\":4301:4334  _idToNFT[i].creator == msg.sender */\n      0xffffffffffffffffffffffffffffffffffffffff\n      and\n        /* \"contracts/GeekNftMarketPlace.sol\":4301:4309  _idToNFT */\n      0x05\n        /* \"contracts/GeekNftMarketPlace.sol\":4301:4312  _idToNFT[i] */\n      0x00\n        /* \"contracts/GeekNftMarketPlace.sol\":4310:4311  i */\n      dup4\n        /* \"contracts/GeekNftMarketPlace.sol\":4301:4312  _idToNFT[i] */\n      dup2\n      mstore\n      0x20\n      add\n      swap1\n      dup2\n      mstore\n      0x20\n      add\n      0x00\n      keccak256\n        /* \"contracts/GeekNftMarketPlace.sol\":4301:4320  _idToNFT[i].creator */\n      0x04\n      add\n      0x00\n      swap1\n      sload\n      swap1\n      0x0100\n      exp\n      swap1\n      div\n      0xffffffffffffffffffffffffffffffffffffffff\n      and\n        /* \"contracts/GeekNftMarketPlace.sol\":4301:4334  _idToNFT[i].creator == msg.sender */\n      0xffffffffffffffffffffffffffffffffffffffff\n      and\n      eq\n        /* \"contracts/GeekNftMarketPlace.sol\":4298:4383  if(_idToNFT[i].creator == msg.sender) {... */\n      iszero\n      tag_140\n      jumpi\n        /* \"contracts/GeekNftMarketPlace.sol\":4354:4368  myNftsCount ++ */\n      dup2\n      dup1\n      tag_141\n      swap1\n      tag_90\n      jump\t// in\n    tag_141:\n      swap3\n      pop\n      pop\n        /* \"contracts/GeekNftMarketPlace.sol\":4298:4383  if(_idToNFT[i].creator == msg.sender) {... */\n    tag_140:\n        /* \"contracts/GeekNftMarketPlace.sol\":4279:4282  i++ */\n      dup1\n      dup1\n      tag_142\n      swap1\n      tag_90\n      jump\t// in\n    tag_142:\n      swap2\n      pop\n      pop\n        /* \"contracts/GeekNftMarketPlace.sol\":4246:4393  for (uint i = 1; i <= nftsCount; i++) {... */\n      jump(tag_137)\n    tag_138:\n      pop\n        /* \"contracts/GeekNftMarketPlace.sol\":4403:4422  NFT[] memory myNfts */\n      0x00\n        /* \"contracts/GeekNftMarketPlace.sol\":4435:4446  myNftsCount */\n      dup2\n        /* \"contracts/GeekNftMarketPlace.sol\":4425:4447  new NFT[](myNftsCount) */\n      0xffffffffffffffff\n      dup2\n      gt\n      iszero\n      tag_143\n      jumpi\n      tag_144\n      tag_94\n      jump\t// in\n    tag_144:\n    tag_143:\n      mload(0x40)\n      swap1\n      dup1\n      dup3\n      mstore\n      dup1\n      0x20\n      mul\n      0x20\n      add\n      dup3\n      add\n      0x40\n      mstore\n      dup1\n      iszero\n      tag_145\n      jumpi\n      dup2\n      0x20\n      add\n    tag_146:\n      tag_147\n      tag_98\n      jump\t// in\n    tag_147:\n      dup2\n      mstore\n      0x20\n      add\n      swap1\n      0x01\n      swap1\n      sub\n      swap1\n      dup2\n      tag_146\n      jumpi\n      swap1\n      pop\n    tag_145:\n      pop\n        /* \"contracts/GeekNftMarketPlace.sol\":4403:4447  NFT[] memory myNfts = new NFT[](myNftsCount) */\n      swap1\n      pop\n        /* \"contracts/GeekNftMarketPlace.sol\":4457:4470  uint nftIndex */\n      0x00\n        /* \"contracts/GeekNftMarketPlace.sol\":4489:4495  uint i */\n      dup1\n        /* \"contracts/GeekNftMarketPlace.sol\":4498:4499  1 */\n      0x01\n        /* \"contracts/GeekNftMarketPlace.sol\":4489:4499  uint i = 1 */\n      swap1\n      pop\n        /* \"contracts/GeekNftMarketPlace.sol\":4484:4676  for (uint i = 1; i <= nftsCount; i++) {... */\n    tag_148:\n        /* \"contracts/GeekNftMarketPlace.sol\":4506:4515  nftsCount */\n      dup5\n        /* \"contracts/GeekNftMarketPlace.sol\":4501:4502  i */\n      dup2\n        /* \"contracts/GeekNftMarketPlace.sol\":4501:4515  i <= nftsCount */\n      gt\n        /* \"contracts/GeekNftMarketPlace.sol\":4484:4676  for (uint i = 1; i <= nftsCount; i++) {... */\n      tag_149\n      jumpi\n        /* \"contracts/GeekNftMarketPlace.sol\":4562:4572  msg.sender */\n      caller\n        /* \"contracts/GeekNftMarketPlace.sol\":4539:4572  _idToNFT[i].creator == msg.sender */\n      0xffffffffffffffffffffffffffffffffffffffff\n      and\n        /* \"contracts/GeekNftMarketPlace.sol\":4539:4547  _idToNFT */\n      0x05\n        /* \"contracts/GeekNftMarketPlace.sol\":4539:4550  _idToNFT[i] */\n      0x00\n        /* \"contracts/GeekNftMarketPlace.sol\":4548:4549  i */\n      dup4\n        /* \"contracts/GeekNftMarketPlace.sol\":4539:4550  _idToNFT[i] */\n      dup2\n      mstore\n      0x20\n      add\n      swap1\n      dup2\n      mstore\n      0x20\n      add\n      0x00\n      keccak256\n        /* \"contracts/GeekNftMarketPlace.sol\":4539:4558  _idToNFT[i].creator */\n      0x04\n      add\n      0x00\n      swap1\n      sload\n      swap1\n      0x0100\n      exp\n      swap1\n      div\n      0xffffffffffffffffffffffffffffffffffffffff\n      and\n        /* \"contracts/GeekNftMarketPlace.sol\":4539:4572  _idToNFT[i].creator == msg.sender */\n      0xffffffffffffffffffffffffffffffffffffffff\n      and\n      eq\n        /* \"contracts/GeekNftMarketPlace.sol\":4536:4666  if(_idToNFT[i].creator == msg.sender) {... */\n      iszero\n      tag_151\n      jumpi\n        /* \"contracts/GeekNftMarketPlace.sol\":4611:4619  _idToNFT */\n      0x05\n        /* \"contracts/GeekNftMarketPlace.sol\":4611:4622  _idToNFT[i] */\n      0x00\n        /* \"contracts/GeekNftMarketPlace.sol\":4620:4621  i */\n      dup3\n        /* \"contracts/GeekNftMarketPlace.sol\":4611:4622  _idToNFT[i] */\n      dup2\n      mstore\n      0x20\n      add\n      swap1\n      dup2\n      mstore\n      0x20\n      add\n      0x00\n      keccak256\n        /* \"contracts/GeekNftMarketPlace.sol\":4592:4622  myNfts[nftIndex] = _idToNFT[i] */\n      mload(0x40)\n      dup1\n      0xc0\n      add\n      0x40\n      mstore\n      swap1\n      dup2\n      0x00\n      dup3\n      add\n      sload\n      dup2\n      mstore\n      0x20\n      add\n      0x01\n      dup3\n      add\n      sload\n      dup2\n      mstore\n      0x20\n      add\n      0x02\n      dup3\n      add\n      0x00\n      swap1\n      sload\n      swap1\n      0x0100\n      exp\n      swap1\n      div\n      0xffffffffffffffffffffffffffffffffffffffff\n      and\n      0xffffffffffffffffffffffffffffffffffffffff\n      and\n      0xffffffffffffffffffffffffffffffffffffffff\n      and\n      dup2\n      mstore\n      0x20\n      add\n      0x03\n      dup3\n      add\n      0x00\n      swap1\n      sload\n      swap1\n      0x0100\n      exp\n      swap1\n      div\n      0xffffffffffffffffffffffffffffffffffffffff\n      and\n      0xffffffffffffffffffffffffffffffffffffffff\n      and\n      0xffffffffffffffffffffffffffffffffffffffff\n      and\n      dup2\n      mstore\n      0x20\n      add\n      0x04\n      dup3\n      add\n      0x00\n      swap1\n      sload\n      swap1\n      0x0100\n      exp\n      swap1\n      div\n      0xffffffffffffffffffffffffffffffffffffffff\n      and\n      0xffffffffffffffffffffffffffffffffffffffff\n      and\n      0xffffffffffffffffffffffffffffffffffffffff\n      and\n      dup2\n      mstore\n      0x20\n      add\n      0x04\n      dup3\n      add\n      0x14\n      swap1\n      sload\n      swap1\n      0x0100\n      exp\n      swap1\n      div\n      0xff\n      and\n      iszero\n      iszero\n      iszero\n      iszero\n      dup2\n      mstore\n      pop\n      pop\n        /* \"contracts/GeekNftMarketPlace.sol\":4592:4598  myNfts */\n      dup4\n        /* \"contracts/GeekNftMarketPlace.sol\":4599:4607  nftIndex */\n      dup4\n        /* \"contracts/GeekNftMarketPlace.sol\":4592:4608  myNfts[nftIndex] */\n      dup2\n      mload\n      dup2\n      lt\n      tag_152\n      jumpi\n      tag_153\n      tag_106\n      jump\t// in\n    tag_153:\n    tag_152:\n      0x20\n      mul\n      0x20\n      add\n      add\n        /* \"contracts/GeekNftMarketPlace.sol\":4592:4622  myNfts[nftIndex] = _idToNFT[i] */\n      dup2\n      swap1\n      mstore\n      pop\n        /* \"contracts/GeekNftMarketPlace.sol\":4640:4651  nftIndex ++ */\n      dup2\n      dup1\n      tag_154\n      swap1\n      tag_90\n      jump\t// in\n    tag_154:\n      swap3\n      pop\n      pop\n        /* \"contracts/GeekNftMarketPlace.sol\":4536:4666  if(_idToNFT[i].creator == msg.sender) {... */\n    tag_151:\n        /* \"contracts/GeekNftMarketPlace.sol\":4517:4520  i++ */\n      dup1\n      dup1\n      tag_155\n      swap1\n      tag_90\n      jump\t// in\n    tag_155:\n      swap2\n      pop\n      pop\n        /* \"contracts/GeekNftMarketPlace.sol\":4484:4676  for (uint i = 1; i <= nftsCount; i++) {... */\n      jump(tag_148)\n    tag_149:\n      pop\n        /* \"contracts/GeekNftMarketPlace.sol\":4693:4699  myNfts */\n      dup2\n        /* \"contracts/GeekNftMarketPlace.sol\":4686:4699  return myNfts */\n      swap5\n      pop\n      pop\n      pop\n      pop\n      pop\n        /* \"contracts/GeekNftMarketPlace.sol\":4096:4706  function getMyCreatedNfts() public view returns (NFT[] memory) {... */\n      swap1\n      jump\t// out\n        /* \"contracts/GeekNftMarketPlace.sol\":5404:5895  function getListedNfts() public view returns (NFT[] memory) {... */\n    tag_43:\n        /* \"contracts/GeekNftMarketPlace.sol\":5450:5462  NFT[] memory */\n      0x60\n        /* \"contracts/GeekNftMarketPlace.sol\":5474:5490  uint256 nftCount */\n      0x00\n        /* \"contracts/GeekNftMarketPlace.sol\":5493:5513  _nftsCount.current() */\n      tag_157\n        /* \"contracts/GeekNftMarketPlace.sol\":5493:5503  _nftsCount */\n      0x02\n        /* \"contracts/GeekNftMarketPlace.sol\":5493:5511  _nftsCount.current */\n      tag_83\n        /* \"contracts/GeekNftMarketPlace.sol\":5493:5513  _nftsCount.current() */\n      jump\t// in\n    tag_157:\n        /* \"contracts/GeekNftMarketPlace.sol\":5474:5513  uint256 nftCount = _nftsCount.current() */\n      swap1\n      pop\n        /* \"contracts/GeekNftMarketPlace.sol\":5523:5546  uint256 unsoldNftsCount */\n      0x00\n        /* \"contracts/GeekNftMarketPlace.sol\":5560:5579  _nftsSold.current() */\n      tag_158\n        /* \"contracts/GeekNftMarketPlace.sol\":5560:5569  _nftsSold */\n      0x01\n        /* \"contracts/GeekNftMarketPlace.sol\":5560:5577  _nftsSold.current */\n      tag_83\n        /* \"contracts/GeekNftMarketPlace.sol\":5560:5579  _nftsSold.current() */\n      jump\t// in\n    tag_158:\n        /* \"contracts/GeekNftMarketPlace.sol\":5549:5557  nftCount */\n      dup3\n        /* \"contracts/GeekNftMarketPlace.sol\":5549:5579  nftCount - _nftsSold.current() */\n      tag_159\n      swap2\n      swap1\n      tag_160\n      jump\t// in\n    tag_159:\n        /* \"contracts/GeekNftMarketPlace.sol\":5523:5579  uint256 unsoldNftsCount = nftCount - _nftsSold.current() */\n      swap1\n      pop\n        /* \"contracts/GeekNftMarketPlace.sol\":5590:5613  NFT[] memory listedNfts */\n      0x00\n        /* \"contracts/GeekNftMarketPlace.sol\":5626:5641  unsoldNftsCount */\n      dup2\n        /* \"contracts/GeekNftMarketPlace.sol\":5616:5642  new NFT[](unsoldNftsCount) */\n      0xffffffffffffffff\n      dup2\n      gt\n      iszero\n      tag_161\n      jumpi\n      tag_162\n      tag_94\n      jump\t// in\n    tag_162:\n    tag_161:\n      mload(0x40)\n      swap1\n      dup1\n      dup3\n      mstore\n      dup1\n      0x20\n      mul\n      0x20\n      add\n      dup3\n      add\n      0x40\n      mstore\n      dup1\n      iszero\n      tag_163\n      jumpi\n      dup2\n      0x20\n      add\n    tag_164:\n      tag_165\n      tag_98\n      jump\t// in\n    tag_165:\n      dup2\n      mstore\n      0x20\n      add\n      swap1\n      0x01\n      swap1\n      sub\n      swap1\n      dup2\n      tag_164\n      jumpi\n      swap1\n      pop\n    tag_163:\n      pop\n        /* \"contracts/GeekNftMarketPlace.sol\":5590:5642  NFT[] memory listedNfts = new NFT[](unsoldNftsCount) */\n      swap1\n      pop\n        /* \"contracts/GeekNftMarketPlace.sol\":5652:5666  uint nftsIndex */\n      0x00\n        /* \"contracts/GeekNftMarketPlace.sol\":5685:5691  uint i */\n      dup1\n        /* \"contracts/GeekNftMarketPlace.sol\":5694:5695  1 */\n      0x01\n        /* \"contracts/GeekNftMarketPlace.sol\":5685:5695  uint i = 1 */\n      swap1\n      pop\n        /* \"contracts/GeekNftMarketPlace.sol\":5680:5862  for (uint i = 1; i <= nftCount; i++) {... */\n    tag_166:\n        /* \"contracts/GeekNftMarketPlace.sol\":5702:5710  nftCount */\n      dup5\n        /* \"contracts/GeekNftMarketPlace.sol\":5697:5698  i */\n      dup2\n        /* \"contracts/GeekNftMarketPlace.sol\":5697:5710  i <= nftCount */\n      gt\n        /* \"contracts/GeekNftMarketPlace.sol\":5680:5862  for (uint i = 1; i <= nftCount; i++) {... */\n      tag_167\n      jumpi\n        /* \"contracts/GeekNftMarketPlace.sol\":5735:5743  _idToNFT */\n      0x05\n        /* \"contracts/GeekNftMarketPlace.sol\":5735:5746  _idToNFT[i] */\n      0x00\n        /* \"contracts/GeekNftMarketPlace.sol\":5744:5745  i */\n      dup3\n        /* \"contracts/GeekNftMarketPlace.sol\":5735:5746  _idToNFT[i] */\n      dup2\n      mstore\n      0x20\n      add\n      swap1\n      dup2\n      mstore\n      0x20\n      add\n      0x00\n      keccak256\n        /* \"contracts/GeekNftMarketPlace.sol\":5735:5753  _idToNFT[i].listed */\n      0x04\n      add\n      0x14\n      swap1\n      sload\n      swap1\n      0x0100\n      exp\n      swap1\n      div\n      0xff\n      and\n        /* \"contracts/GeekNftMarketPlace.sol\":5731:5852  if (_idToNFT[i].listed) {... */\n      iszero\n      tag_169\n      jumpi\n        /* \"contracts/GeekNftMarketPlace.sol\":5797:5805  _idToNFT */\n      0x05\n        /* \"contracts/GeekNftMarketPlace.sol\":5797:5808  _idToNFT[i] */\n      0x00\n        /* \"contracts/GeekNftMarketPlace.sol\":5806:5807  i */\n      dup3\n        /* \"contracts/GeekNftMarketPlace.sol\":5797:5808  _idToNFT[i] */\n      dup2\n      mstore\n      0x20\n      add\n      swap1\n      dup2\n      mstore\n      0x20\n      add\n      0x00\n      keccak256\n        /* \"contracts/GeekNftMarketPlace.sol\":5773:5808  listedNfts[nftsIndex] = _idToNFT[i] */\n      mload(0x40)\n      dup1\n      0xc0\n      add\n      0x40\n      mstore\n      swap1\n      dup2\n      0x00\n      dup3\n      add\n      sload\n      dup2\n      mstore\n      0x20\n      add\n      0x01\n      dup3\n      add\n      sload\n      dup2\n      mstore\n      0x20\n      add\n      0x02\n      dup3\n      add\n      0x00\n      swap1\n      sload\n      swap1\n      0x0100\n      exp\n      swap1\n      div\n      0xffffffffffffffffffffffffffffffffffffffff\n      and\n      0xffffffffffffffffffffffffffffffffffffffff\n      and\n      0xffffffffffffffffffffffffffffffffffffffff\n      and\n      dup2\n      mstore\n      0x20\n      add\n      0x03\n      dup3\n      add\n      0x00\n      swap1\n      sload\n      swap1\n      0x0100\n      exp\n      swap1\n      div\n      0xffffffffffffffffffffffffffffffffffffffff\n      and\n      0xffffffffffffffffffffffffffffffffffffffff\n      and\n      0xffffffffffffffffffffffffffffffffffffffff\n      and\n      dup2\n      mstore\n      0x20\n      add\n      0x04\n      dup3\n      add\n      0x00\n      swap1\n      sload\n      swap1\n      0x0100\n      exp\n      swap1\n      div\n      0xffffffffffffffffffffffffffffffffffffffff\n      and\n      0xffffffffffffffffffffffffffffffffffffffff\n      and\n      0xffffffffffffffffffffffffffffffffffffffff\n      and\n      dup2\n      mstore\n      0x20\n      add\n      0x04\n      dup3\n      add\n      0x14\n      swap1\n      sload\n      swap1\n      0x0100\n      exp\n      swap1\n      div\n      0xff\n      and\n      iszero\n      iszero\n      iszero\n      iszero\n      dup2\n      mstore\n      pop\n      pop\n        /* \"contracts/GeekNftMarketPlace.sol\":5773:5783  listedNfts */\n      dup4\n        /* \"contracts/GeekNftMarketPlace.sol\":5784:5793  nftsIndex */\n      dup4\n        /* \"contracts/GeekNftMarketPlace.sol\":5773:5794  listedNfts[nftsIndex] */\n      dup2\n      mload\n      dup2\n      lt\n      tag_170\n      jumpi\n      tag_171\n      tag_106\n      jump\t// in\n    tag_171:\n    tag_170:\n      0x20\n      mul\n      0x20\n      add\n      add\n        /* \"contracts/GeekNftMarketPlace.sol\":5773:5808  listedNfts[nftsIndex] = _idToNFT[i] */\n      dup2\n      swap1\n      mstore\n      pop\n        /* \"contracts/GeekNftMarketPlace.sol\":5826:5837  nftsIndex++ */\n      dup2\n      dup1\n      tag_172\n      swap1\n      tag_90\n      jump\t// in\n    tag_172:\n      swap3\n      pop\n      pop\n        /* \"contracts/GeekNftMarketPlace.sol\":5731:5852  if (_idToNFT[i].listed) {... */\n    tag_169:\n        /* \"contracts/GeekNftMarketPlace.sol\":5712:5715  i++ */\n      dup1\n      dup1\n      tag_173\n      swap1\n      tag_90\n      jump\t// in\n    tag_173:\n      swap2\n      pop\n      pop\n        /* \"contracts/GeekNftMarketPlace.sol\":5680:5862  for (uint i = 1; i <= nftCount; i++) {... */\n      jump(tag_166)\n    tag_167:\n      pop\n        /* \"contracts/GeekNftMarketPlace.sol\":5878:5888  listedNfts */\n      dup2\n        /* \"contracts/GeekNftMarketPlace.sol\":5871:5888  return listedNfts */\n      swap5\n      pop\n      pop\n      pop\n      pop\n      pop\n        /* \"contracts/GeekNftMarketPlace.sol\":5404:5895  function getListedNfts() public view returns (NFT[] memory) {... */\n      swap1\n      jump\t// out\n        /* \"contracts/GeekNftMarketPlace.sol\":3451:4055  function getMyOwnedNfts() public view returns (NFT[] memory) {... */\n    tag_47:\n        /* \"contracts/GeekNftMarketPlace.sol\":3498:3510  NFT[] memory */\n      0x60\n        /* \"contracts/GeekNftMarketPlace.sol\":3522:3536  uint nftsCount */\n      0x00\n        /* \"contracts/GeekNftMarketPlace.sol\":3539:3559  _nftsCount.current() */\n      tag_175\n        /* \"contracts/GeekNftMarketPlace.sol\":3539:3549  _nftsCount */\n      0x02\n        /* \"contracts/GeekNftMarketPlace.sol\":3539:3557  _nftsCount.current */\n      tag_83\n        /* \"contracts/GeekNftMarketPlace.sol\":3539:3559  _nftsCount.current() */\n      jump\t// in\n    tag_175:\n        /* \"contracts/GeekNftMarketPlace.sol\":3522:3559  uint nftsCount = _nftsCount.current() */\n      swap1\n      pop\n        /* \"contracts/GeekNftMarketPlace.sol\":3569:3585  uint myNftsCount */\n      0x00\n        /* \"contracts/GeekNftMarketPlace.sol\":3604:3610  uint i */\n      dup1\n        /* \"contracts/GeekNftMarketPlace.sol\":3613:3614  1 */\n      0x01\n        /* \"contracts/GeekNftMarketPlace.sol\":3604:3614  uint i = 1 */\n      swap1\n      pop\n        /* \"contracts/GeekNftMarketPlace.sol\":3599:3744  for (uint i = 1; i <= nftsCount; i++) {... */\n    tag_176:\n        /* \"contracts/GeekNftMarketPlace.sol\":3621:3630  nftsCount */\n      dup3\n        /* \"contracts/GeekNftMarketPlace.sol\":3616:3617  i */\n      dup2\n        /* \"contracts/GeekNftMarketPlace.sol\":3616:3630  i <= nftsCount */\n      gt\n        /* \"contracts/GeekNftMarketPlace.sol\":3599:3744  for (uint i = 1; i <= nftsCount; i++) {... */\n      tag_177\n      jumpi\n        /* \"contracts/GeekNftMarketPlace.sol\":3675:3685  msg.sender */\n      caller\n        /* \"contracts/GeekNftMarketPlace.sol\":3654:3685  _idToNFT[i].owner == msg.sender */\n      0xffffffffffffffffffffffffffffffffffffffff\n      and\n        /* \"contracts/GeekNftMarketPlace.sol\":3654:3662  _idToNFT */\n      0x05\n        /* \"contracts/GeekNftMarketPlace.sol\":3654:3665  _idToNFT[i] */\n      0x00\n        /* \"contracts/GeekNftMarketPlace.sol\":3663:3664  i */\n      dup4\n        /* \"contracts/GeekNftMarketPlace.sol\":3654:3665  _idToNFT[i] */\n      dup2\n      mstore\n      0x20\n      add\n      swap1\n      dup2\n      mstore\n      0x20\n      add\n      0x00\n      keccak256\n        /* \"contracts/GeekNftMarketPlace.sol\":3654:3671  _idToNFT[i].owner */\n      0x03\n      add\n      0x00\n      swap1\n      sload\n      swap1\n      0x0100\n      exp\n      swap1\n      div\n      0xffffffffffffffffffffffffffffffffffffffff\n      and\n        /* \"contracts/GeekNftMarketPlace.sol\":3654:3685  _idToNFT[i].owner == msg.sender */\n      0xffffffffffffffffffffffffffffffffffffffff\n      and\n      eq\n        /* \"contracts/GeekNftMarketPlace.sol\":3651:3734  if(_idToNFT[i].owner == msg.sender) {... */\n      iszero\n      tag_179\n      jumpi\n        /* \"contracts/GeekNftMarketPlace.sol\":3705:3719  myNftsCount ++ */\n      dup2\n      dup1\n      tag_180\n      swap1\n      tag_90\n      jump\t// in\n    tag_180:\n      swap3\n      pop\n      pop\n        /* \"contracts/GeekNftMarketPlace.sol\":3651:3734  if(_idToNFT[i].owner == msg.sender) {... */\n    tag_179:\n        /* \"contracts/GeekNftMarketPlace.sol\":3632:3635  i++ */\n      dup1\n      dup1\n      tag_181\n      swap1\n      tag_90\n      jump\t// in\n    tag_181:\n      swap2\n      pop\n      pop\n        /* \"contracts/GeekNftMarketPlace.sol\":3599:3744  for (uint i = 1; i <= nftsCount; i++) {... */\n      jump(tag_176)\n    tag_177:\n      pop\n        /* \"contracts/GeekNftMarketPlace.sol\":3754:3773  NFT[] memory myNfts */\n      0x00\n        /* \"contracts/GeekNftMarketPlace.sol\":3786:3797  myNftsCount */\n      dup2\n        /* \"contracts/GeekNftMarketPlace.sol\":3776:3798  new NFT[](myNftsCount) */\n      0xffffffffffffffff\n      dup2\n      gt\n      iszero\n      tag_182\n      jumpi\n      tag_183\n      tag_94\n      jump\t// in\n    tag_183:\n    tag_182:\n      mload(0x40)\n      swap1\n      dup1\n      dup3\n      mstore\n      dup1\n      0x20\n      mul\n      0x20\n      add\n      dup3\n      add\n      0x40\n      mstore\n      dup1\n      iszero\n      tag_184\n      jumpi\n      dup2\n      0x20\n      add\n    tag_185:\n      tag_186\n      tag_98\n      jump\t// in\n    tag_186:\n      dup2\n      mstore\n      0x20\n      add\n      swap1\n      0x01\n      swap1\n      sub\n      swap1\n      dup2\n      tag_185\n      jumpi\n      swap1\n      pop\n    tag_184:\n      pop\n        /* \"contracts/GeekNftMarketPlace.sol\":3754:3798  NFT[] memory myNfts = new NFT[](myNftsCount) */\n      swap1\n      pop\n        /* \"contracts/GeekNftMarketPlace.sol\":3808:3821  uint nftIndex */\n      0x00\n        /* \"contracts/GeekNftMarketPlace.sol\":3840:3846  uint i */\n      dup1\n        /* \"contracts/GeekNftMarketPlace.sol\":3849:3850  1 */\n      0x01\n        /* \"contracts/GeekNftMarketPlace.sol\":3840:3850  uint i = 1 */\n      swap1\n      pop\n        /* \"contracts/GeekNftMarketPlace.sol\":3835:4025  for (uint i = 1; i <= nftsCount; i++) {... */\n    tag_187:\n        /* \"contracts/GeekNftMarketPlace.sol\":3857:3866  nftsCount */\n      dup5\n        /* \"contracts/GeekNftMarketPlace.sol\":3852:3853  i */\n      dup2\n        /* \"contracts/GeekNftMarketPlace.sol\":3852:3866  i <= nftsCount */\n      gt\n        /* \"contracts/GeekNftMarketPlace.sol\":3835:4025  for (uint i = 1; i <= nftsCount; i++) {... */\n      tag_188\n      jumpi\n        /* \"contracts/GeekNftMarketPlace.sol\":3911:3921  msg.sender */\n      caller\n        /* \"contracts/GeekNftMarketPlace.sol\":3890:3921  _idToNFT[i].owner == msg.sender */\n      0xffffffffffffffffffffffffffffffffffffffff\n      and\n        /* \"contracts/GeekNftMarketPlace.sol\":3890:3898  _idToNFT */\n      0x05\n        /* \"contracts/GeekNftMarketPlace.sol\":3890:3901  _idToNFT[i] */\n      0x00\n        /* \"contracts/GeekNftMarketPlace.sol\":3899:3900  i */\n      dup4\n        /* \"contracts/GeekNftMarketPlace.sol\":3890:3901  _idToNFT[i] */\n      dup2\n      mstore\n      0x20\n      add\n      swap1\n      dup2\n      mstore\n      0x20\n      add\n      0x00\n      keccak256\n        /* \"contracts/GeekNftMarketPlace.sol\":3890:3907  _idToNFT[i].owner */\n      0x03\n      add\n      0x00\n      swap1\n      sload\n      swap1\n      0x0100\n      exp\n      swap1\n      div\n      0xffffffffffffffffffffffffffffffffffffffff\n      and\n        /* \"contracts/GeekNftMarketPlace.sol\":3890:3921  _idToNFT[i].owner == msg.sender */\n      0xffffffffffffffffffffffffffffffffffffffff\n      and\n      eq\n        /* \"contracts/GeekNftMarketPlace.sol\":3887:4015  if(_idToNFT[i].owner == msg.sender) {... */\n      iszero\n      tag_190\n      jumpi\n        /* \"contracts/GeekNftMarketPlace.sol\":3960:3968  _idToNFT */\n      0x05\n        /* \"contracts/GeekNftMarketPlace.sol\":3960:3971  _idToNFT[i] */\n      0x00\n        /* \"contracts/GeekNftMarketPlace.sol\":3969:3970  i */\n      dup3\n        /* \"contracts/GeekNftMarketPlace.sol\":3960:3971  _idToNFT[i] */\n      dup2\n      mstore\n      0x20\n      add\n      swap1\n      dup2\n      mstore\n      0x20\n      add\n      0x00\n      keccak256\n        /* \"contracts/GeekNftMarketPlace.sol\":3941:3971  myNfts[nftIndex] = _idToNFT[i] */\n      mload(0x40)\n      dup1\n      0xc0\n      add\n      0x40\n      mstore\n      swap1\n      dup2\n      0x00\n      dup3\n      add\n      sload\n      dup2\n      mstore\n      0x20\n      add\n      0x01\n      dup3\n      add\n      sload\n      dup2\n      mstore\n      0x20\n      add\n      0x02\n      dup3\n      add\n      0x00\n      swap1\n      sload\n      swap1\n      0x0100\n      exp\n      swap1\n      div\n      0xffffffffffffffffffffffffffffffffffffffff\n      and\n      0xffffffffffffffffffffffffffffffffffffffff\n      and\n      0xffffffffffffffffffffffffffffffffffffffff\n      and\n      dup2\n      mstore\n      0x20\n      add\n      0x03\n      dup3\n      add\n      0x00\n      swap1\n      sload\n      swap1\n      0x0100\n      exp\n      swap1\n      div\n      0xffffffffffffffffffffffffffffffffffffffff\n      and\n      0xffffffffffffffffffffffffffffffffffffffff\n      and\n      0xffffffffffffffffffffffffffffffffffffffff\n      and\n      dup2\n      mstore\n      0x20\n      add\n      0x04\n      dup3\n      add\n      0x00\n      swap1\n      sload\n      swap1\n      0x0100\n      exp\n      swap1\n      div\n      0xffffffffffffffffffffffffffffffffffffffff\n      and\n      0xffffffffffffffffffffffffffffffffffffffff\n      and\n      0xffffffffffffffffffffffffffffffffffffffff\n      and\n      dup2\n      mstore\n      0x20\n      add\n      0x04\n      dup3\n      add\n      0x14\n      swap1\n      sload\n      swap1\n      0x0100\n      exp\n      swap1\n      div\n      0xff\n      and\n      iszero\n      iszero\n      iszero\n      iszero\n      dup2\n      mstore\n      pop\n      pop\n        /* \"contracts/GeekNftMarketPlace.sol\":3941:3947  myNfts */\n      dup4\n        /* \"contracts/GeekNftMarketPlace.sol\":3948:3956  nftIndex */\n      dup4\n        /* \"contracts/GeekNftMarketPlace.sol\":3941:3957  myNfts[nftIndex] */\n      dup2\n      mload\n      dup2\n      lt\n      tag_191\n      jumpi\n      tag_192\n      tag_106\n      jump\t// in\n    tag_192:\n    tag_191:\n      0x20\n      mul\n      0x20\n      add\n      add\n        /* \"contracts/GeekNftMarketPlace.sol\":3941:3971  myNfts[nftIndex] = _idToNFT[i] */\n      dup2\n      swap1\n      mstore\n      pop\n        /* \"contracts/GeekNftMarketPlace.sol\":3989:4000  nftIndex ++ */\n      dup2\n      dup1\n      tag_193\n      swap1\n      tag_90\n      jump\t// in\n    tag_193:\n      swap3\n      pop\n      pop\n        /* \"contracts/GeekNftMarketPlace.sol\":3887:4015  if(_idToNFT[i].owner == msg.sender) {... */\n    tag_190:\n        /* \"contracts/GeekNftMarketPlace.sol\":3868:3871  i++ */\n      dup1\n      dup1\n      tag_194\n      swap1\n      tag_90\n      jump\t// in\n    tag_194:\n      swap2\n      pop\n      pop\n        /* \"contracts/GeekNftMarketPlace.sol\":3835:4025  for (uint i = 1; i <= nftsCount; i++) {... */\n      jump(tag_187)\n    tag_188:\n      pop\n        /* \"contracts/GeekNftMarketPlace.sol\":4042:4048  myNfts */\n      dup2\n        /* \"contracts/GeekNftMarketPlace.sol\":4035:4048  return myNfts */\n      swap5\n      pop\n      pop\n      pop\n      pop\n      pop\n        /* \"contracts/GeekNftMarketPlace.sol\":3451:4055  function getMyOwnedNfts() public view returns (NFT[] memory) {... */\n      swap1\n      jump\t// out\n        /* \"contracts/GeekNftMarketPlace.sol\":1514:2114  function listNFT(address _nftContract, uint _tokenId, uint _price) public payable nonReentrant priceIsGreaterThanZero(_price) valueIsEqualToFees{... */\n    tag_51:\n        /* \"contracts/utils/RenntrancyGuard.sol\":171:172  2 */\n      0x02\n        /* \"contracts/utils/RenntrancyGuard.sol\":310:317  _status */\n      sload(0x00)\n        /* \"contracts/utils/RenntrancyGuard.sol\":310:329  _status != _ENTERED */\n      eq\n      iszero\n        /* \"contracts/utils/RenntrancyGuard.sol\":302:365  require(_status != _ENTERED, \"ReentrancyGuard: reentrant call\") */\n      tag_196\n      jumpi\n      mload(0x40)\n      0x08c379a000000000000000000000000000000000000000000000000000000000\n      dup2\n      mstore\n      0x04\n      add\n      tag_197\n      swap1\n      tag_59\n      jump\t// in\n    tag_197:\n      mload(0x40)\n      dup1\n      swap2\n      sub\n      swap1\n      revert\n    tag_196:\n        /* \"contracts/utils/RenntrancyGuard.sol\":171:172  2 */\n      0x02\n        /* \"contracts/utils/RenntrancyGuard.sol\":375:382  _status */\n      0x00\n        /* \"contracts/utils/RenntrancyGuard.sol\":375:393  _status = _ENTERED */\n      dup2\n      swap1\n      sstore\n      pop\n        /* \"contracts/GeekNftMarketPlace.sol\":1632:1638  _price */\n      dup1\n        /* \"contracts/GeekNftMarketPlace.sol\":1039:1040  0 */\n      0x00\n        /* \"contracts/GeekNftMarketPlace.sol\":1030:1036  _price */\n      dup2\n        /* \"contracts/GeekNftMarketPlace.sol\":1030:1040  _price > 0 */\n      gt\n        /* \"contracts/GeekNftMarketPlace.sol\":1022:1073  require(_price > 0, \"Price must be at least 1 wei\") */\n      tag_199\n      jumpi\n      mload(0x40)\n      0x08c379a000000000000000000000000000000000000000000000000000000000\n      dup2\n      mstore\n      0x04\n      add\n      tag_200\n      swap1\n      tag_63\n      jump\t// in\n    tag_200:\n      mload(0x40)\n      dup1\n      swap2\n      sub\n      swap1\n      revert\n    tag_199:\n        /* \"contracts/GeekNftMarketPlace.sol\":1158:1169  LISTING_FEE */\n      sload(0x03)\n        /* \"contracts/GeekNftMarketPlace.sol\":1145:1154  msg.value */\n      callvalue\n        /* \"contracts/GeekNftMarketPlace.sol\":1145:1169  msg.value == LISTING_FEE */\n      eq\n        /* \"contracts/GeekNftMarketPlace.sol\":1137:1206  require(msg.value == LISTING_FEE, \"Not enough ether for listing fee\") */\n      tag_202\n      jumpi\n      mload(0x40)\n      0x08c379a000000000000000000000000000000000000000000000000000000000\n      dup2\n      mstore\n      0x04\n      add\n      tag_203\n      swap1\n      tag_67\n      jump\t// in\n    tag_203:\n      mload(0x40)\n      dup1\n      swap2\n      sub\n      swap1\n      revert\n    tag_202:\n        /* \"contracts/GeekNftMarketPlace.sol\":1676:1688  _nftContract */\n      dup4\n        /* \"contracts/GeekNftMarketPlace.sol\":1668:1702  IERC721(_nftContract).transferFrom */\n      0xffffffffffffffffffffffffffffffffffffffff\n      and\n      0x23b872dd\n        /* \"contracts/GeekNftMarketPlace.sol\":1703:1713  msg.sender */\n      caller\n        /* \"contracts/GeekNftMarketPlace.sol\":1723:1727  this */\n      address\n        /* \"contracts/GeekNftMarketPlace.sol\":1730:1738  _tokenId */\n      dup7\n        /* \"contracts/GeekNftMarketPlace.sol\":1668:1739  IERC721(_nftContract).transferFrom(msg.sender, address(this), _tokenId) */\n      mload(0x40)\n      dup5\n      0xffffffff\n      and\n      0xe0\n      shl\n      dup2\n      mstore\n      0x04\n      add\n      tag_205\n      swap4\n      swap3\n      swap2\n      swap1\n      tag_73\n      jump\t// in\n    tag_205:\n      0x00\n      mload(0x40)\n      dup1\n      dup4\n      sub\n      dup2\n      0x00\n      dup8\n      dup1\n      extcodesize\n      iszero\n      dup1\n      iszero\n      tag_206\n      jumpi\n      0x00\n      dup1\n      revert\n    tag_206:\n      pop\n      gas\n      call\n      iszero\n      dup1\n      iszero\n      tag_208\n      jumpi\n      returndatasize\n      0x00\n      dup1\n      returndatacopy\n      revert(0x00, returndatasize)\n    tag_208:\n      pop\n      pop\n      pop\n      pop\n        /* \"contracts/GeekNftMarketPlace.sol\":1771:1946  NFT(... */\n      mload(0x40)\n      dup1\n      0xc0\n      add\n      0x40\n      mstore\n      dup1\n        /* \"contracts/GeekNftMarketPlace.sol\":1788:1796  _tokenId */\n      dup5\n        /* \"contracts/GeekNftMarketPlace.sol\":1771:1946  NFT(... */\n      dup2\n      mstore\n      0x20\n      add\n        /* \"contracts/GeekNftMarketPlace.sol\":1810:1816  _price */\n      dup4\n        /* \"contracts/GeekNftMarketPlace.sol\":1771:1946  NFT(... */\n      dup2\n      mstore\n      0x20\n      add\n        /* \"contracts/GeekNftMarketPlace.sol\":1838:1848  msg.sender */\n      caller\n        /* \"contracts/GeekNftMarketPlace.sol\":1771:1946  NFT(... */\n      0xffffffffffffffffffffffffffffffffffffffff\n      and\n      dup2\n      mstore\n      0x20\n      add\n        /* \"contracts/GeekNftMarketPlace.sol\":1879:1883  this */\n      address\n        /* \"contracts/GeekNftMarketPlace.sol\":1771:1946  NFT(... */\n      0xffffffffffffffffffffffffffffffffffffffff\n      and\n      dup2\n      mstore\n      0x20\n      add\n        /* \"contracts/GeekNftMarketPlace.sol\":1907:1917  msg.sender */\n      caller\n        /* \"contracts/GeekNftMarketPlace.sol\":1771:1946  NFT(... */\n      0xffffffffffffffffffffffffffffffffffffffff\n      and\n      dup2\n      mstore\n      0x20\n      add\n        /* \"contracts/GeekNftMarketPlace.sol\":1932:1936  true */\n      0x01\n        /* \"contracts/GeekNftMarketPlace.sol\":1771:1946  NFT(... */\n      iszero\n      iszero\n      dup2\n      mstore\n      pop\n        /* \"contracts/GeekNftMarketPlace.sol\":1750:1758  _idToNFT */\n      0x05\n        /* \"contracts/GeekNftMarketPlace.sol\":1750:1768  _idToNFT[_tokenId] */\n      0x00\n        /* \"contracts/GeekNftMarketPlace.sol\":1759:1767  _tokenId */\n      dup6\n        /* \"contracts/GeekNftMarketPlace.sol\":1750:1768  _idToNFT[_tokenId] */\n      dup2\n      mstore\n      0x20\n      add\n      swap1\n      dup2\n      mstore\n      0x20\n      add\n      0x00\n      keccak256\n        /* \"contracts/GeekNftMarketPlace.sol\":1750:1946  _idToNFT[_tokenId] = NFT(... */\n      0x00\n      dup3\n      add\n      mload\n      dup2\n      0x00\n      add\n      sstore\n      0x20\n      dup3\n      add\n      mload\n      dup2\n      0x01\n      add\n      sstore\n      0x40\n      dup3\n      add\n      mload\n      dup2\n      0x02\n      add\n      exp(0x0100, 0x00)\n      dup2\n      sload\n      dup2\n      0xffffffffffffffffffffffffffffffffffffffff\n      mul\n      not\n      and\n      swap1\n      dup4\n      0xffffffffffffffffffffffffffffffffffffffff\n      and\n      mul\n      or\n      swap1\n      sstore\n      pop\n      0x60\n      dup3\n      add\n      mload\n      dup2\n      0x03\n      add\n      exp(0x0100, 0x00)\n      dup2\n      sload\n      dup2\n      0xffffffffffffffffffffffffffffffffffffffff\n      mul\n      not\n      and\n      swap1\n      dup4\n      0xffffffffffffffffffffffffffffffffffffffff\n      and\n      mul\n      or\n      swap1\n      sstore\n      pop\n      0x80\n      dup3\n      add\n      mload\n      dup2\n      0x04\n      add\n      exp(0x0100, 0x00)\n      dup2\n      sload\n      dup2\n      0xffffffffffffffffffffffffffffffffffffffff\n      mul\n      not\n      and\n      swap1\n      dup4\n      0xffffffffffffffffffffffffffffffffffffffff\n      and\n      mul\n      or\n      swap1\n      sstore\n      pop\n      0xa0\n      dup3\n      add\n      mload\n      dup2\n      0x04\n      add\n      exp(0x0100, 0x14)\n      dup2\n      sload\n      dup2\n      0xff\n      mul\n      not\n      and\n      swap1\n      dup4\n      iszero\n      iszero\n      mul\n      or\n      swap1\n      sstore\n      pop\n      swap1\n      pop\n      pop\n        /* \"contracts/GeekNftMarketPlace.sol\":1957:1979  _nftsCount.increment() */\n      tag_209\n        /* \"contracts/GeekNftMarketPlace.sol\":1957:1967  _nftsCount */\n      0x02\n        /* \"contracts/GeekNftMarketPlace.sol\":1957:1977  _nftsCount.increment */\n      tag_133\n        /* \"contracts/GeekNftMarketPlace.sol\":1957:1979  _nftsCount.increment() */\n      jump\t// in\n    tag_209:\n        /* \"contracts/GeekNftMarketPlace.sol\":1990:2003  _marketOwwner */\n      0x04\n      0x00\n      swap1\n      sload\n      swap1\n      0x0100\n      exp\n      swap1\n      div\n      0xffffffffffffffffffffffffffffffffffffffff\n      and\n        /* \"contracts/GeekNftMarketPlace.sol\":1990:2012  _marketOwwner.transfer */\n      0xffffffffffffffffffffffffffffffffffffffff\n      and\n        /* \"contracts/GeekNftMarketPlace.sol\":1990:2023  _marketOwwner.transfer(msg.value) */\n      0x08fc\n        /* \"contracts/GeekNftMarketPlace.sol\":2013:2022  msg.value */\n      callvalue\n        /* \"contracts/GeekNftMarketPlace.sol\":1990:2023  _marketOwwner.transfer(msg.value) */\n      swap1\n      dup2\n      iszero\n      mul\n      swap1\n      mload(0x40)\n      0x00\n      mload(0x40)\n      dup1\n      dup4\n      sub\n      dup2\n      dup6\n      dup9\n      dup9\n      call\n      swap4\n      pop\n      pop\n      pop\n      pop\n      iszero\n      dup1\n      iszero\n      tag_211\n      jumpi\n      returndatasize\n      0x00\n      dup1\n      returndatacopy\n      revert(0x00, returndatasize)\n    tag_211:\n      pop\n        /* \"contracts/GeekNftMarketPlace.sol\":2093:2097  this */\n      address\n        /* \"contracts/GeekNftMarketPlace.sol\":2039:2107  NFTListed(_nftContract, _tokenId, msg.sender, address(this), _price) */\n      0xffffffffffffffffffffffffffffffffffffffff\n      and\n        /* \"contracts/GeekNftMarketPlace.sol\":2073:2083  msg.sender */\n      caller\n        /* \"contracts/GeekNftMarketPlace.sol\":2039:2107  NFTListed(_nftContract, _tokenId, msg.sender, address(this), _price) */\n      0xffffffffffffffffffffffffffffffffffffffff\n      and\n        /* \"contracts/GeekNftMarketPlace.sol\":2063:2071  _tokenId */\n      dup5\n        /* \"contracts/GeekNftMarketPlace.sol\":2039:2107  NFTListed(_nftContract, _tokenId, msg.sender, address(this), _price) */\n      0xa0c6c0d02d86fdacecbaa5fdf5894bab204e31a778250474108540733a9b8d19\n        /* \"contracts/GeekNftMarketPlace.sol\":2049:2061  _nftContract */\n      dup8\n        /* \"contracts/GeekNftMarketPlace.sol\":2100:2106  _price */\n      dup7\n        /* \"contracts/GeekNftMarketPlace.sol\":2039:2107  NFTListed(_nftContract, _tokenId, msg.sender, address(this), _price) */\n      mload(0x40)\n      tag_212\n      swap3\n      swap2\n      swap1\n      tag_80\n      jump\t// in\n    tag_212:\n      mload(0x40)\n      dup1\n      swap2\n      sub\n      swap1\n      log4\n        /* \"contracts/utils/RenntrancyGuard.sol\":403:404  _ */\n      pop\n        /* \"contracts/utils/RenntrancyGuard.sol\":128:129  1 */\n      0x01\n        /* \"contracts/utils/RenntrancyGuard.sol\":414:421  _status */\n      0x00\n        /* \"contracts/utils/RenntrancyGuard.sol\":414:436  _status = _NOT_ENTERED */\n      dup2\n      swap1\n      sstore\n      pop\n        /* \"contracts/GeekNftMarketPlace.sol\":1514:2114  function listNFT(address _nftContract, uint _tokenId, uint _price) public payable nonReentrant priceIsGreaterThanZero(_price) valueIsEqualToFees{... */\n      pop\n      pop\n      pop\n      jump\t// out\n        /* \"contracts/GeekNftMarketPlace.sol\":1230:1316  function getListingFee() public view returns (uint){... */\n    tag_54:\n        /* \"contracts/GeekNftMarketPlace.sol\":1276:1280  uint */\n      0x00\n        /* \"contracts/GeekNftMarketPlace.sol\":1298:1309  LISTING_FEE */\n      sload(0x03)\n        /* \"contracts/GeekNftMarketPlace.sol\":1291:1309  return LISTING_FEE */\n      swap1\n      pop\n        /* \"contracts/GeekNftMarketPlace.sol\":1230:1316  function getListingFee() public view returns (uint){... */\n      swap1\n      jump\t// out\n        /* \"contracts/utils/Counters.sol\":1074:1303  function decrement(Counter storage counter) internal {... */\n    tag_78:\n        /* \"contracts/utils/Counters.sol\":1137:1150  uint256 value */\n      0x00\n        /* \"contracts/utils/Counters.sol\":1153:1160  counter */\n      dup2\n        /* \"contracts/utils/Counters.sol\":1153:1167  counter._value */\n      0x00\n      add\n      sload\n        /* \"contracts/utils/Counters.sol\":1137:1167  uint256 value = counter._value */\n      swap1\n      pop\n        /* \"contracts/utils/Counters.sol\":1193:1194  0 */\n      0x00\n        /* \"contracts/utils/Counters.sol\":1185:1190  value */\n      dup2\n        /* \"contracts/utils/Counters.sol\":1185:1194  value > 0 */\n      gt\n        /* \"contracts/utils/Counters.sol\":1177:1226  require(value > 0, \"Counter: decrement overflow\") */\n      tag_215\n      jumpi\n      mload(0x40)\n      0x08c379a000000000000000000000000000000000000000000000000000000000\n      dup2\n      mstore\n      0x04\n      add\n      tag_216\n      swap1\n      tag_217\n      jump\t// in\n    tag_216:\n      mload(0x40)\n      dup1\n      swap2\n      sub\n      swap1\n      revert\n    tag_215:\n        /* \"contracts/utils/Counters.sol\":1285:1286  1 */\n      0x01\n        /* \"contracts/utils/Counters.sol\":1277:1282  value */\n      dup2\n        /* \"contracts/utils/Counters.sol\":1277:1286  value - 1 */\n      sub\n        /* \"contracts/utils/Counters.sol\":1260:1267  counter */\n      dup3\n        /* \"contracts/utils/Counters.sol\":1260:1274  counter._value */\n      0x00\n      add\n        /* \"contracts/utils/Counters.sol\":1260:1286  counter._value = value - 1 */\n      dup2\n      swap1\n      sstore\n      pop\n        /* \"contracts/utils/Counters.sol\":1127:1303  {... */\n      pop\n        /* \"contracts/utils/Counters.sol\":1074:1303  function decrement(Counter storage counter) internal {... */\n      pop\n      jump\t// out\n        /* \"contracts/utils/Counters.sol\":827:939  function current(Counter storage counter) internal view returns (uint256) {... */\n    tag_83:\n        /* \"contracts/utils/Counters.sol\":892:899  uint256 */\n      0x00\n        /* \"contracts/utils/Counters.sol\":918:925  counter */\n      dup2\n        /* \"contracts/utils/Counters.sol\":918:932  counter._value */\n      0x00\n      add\n      sload\n        /* \"contracts/utils/Counters.sol\":911:932  return counter._value */\n      swap1\n      pop\n        /* \"contracts/utils/Counters.sol\":827:939  function current(Counter storage counter) internal view returns (uint256) {... */\n      swap2\n      swap1\n      pop\n      jump\t// out\n        /* \"contracts/utils/Counters.sol\":945:1068  function increment(Counter storage counter) internal {... */\n    tag_133:\n        /* \"contracts/utils/Counters.sol\":1050:1051  1 */\n      0x01\n        /* \"contracts/utils/Counters.sol\":1032:1039  counter */\n      dup2\n        /* \"contracts/utils/Counters.sol\":1032:1046  counter._value */\n      0x00\n      add\n      0x00\n        /* \"contracts/utils/Counters.sol\":1032:1051  counter._value += 1 */\n      dup3\n      dup3\n      sload\n      add\n      swap3\n      pop\n      pop\n      dup2\n      swap1\n      sstore\n      pop\n        /* \"contracts/utils/Counters.sol\":945:1068  function increment(Counter storage counter) internal {... */\n      pop\n      jump\t// out\n    tag_98:\n      mload(0x40)\n      dup1\n      0xc0\n      add\n      0x40\n      mstore\n      dup1\n      0x00\n      dup2\n      mstore\n      0x20\n      add\n      0x00\n      dup2\n      mstore\n      0x20\n      add\n      and(0xffffffffffffffffffffffffffffffffffffffff, 0x00)\n      dup2\n      mstore\n      0x20\n      add\n      and(0xffffffffffffffffffffffffffffffffffffffff, 0x00)\n      dup2\n      mstore\n      0x20\n      add\n      and(0xffffffffffffffffffffffffffffffffffffffff, 0x00)\n      dup2\n      mstore\n      0x20\n      add\n      iszero(iszero(0x00))\n      dup2\n      mstore\n      pop\n      swap1\n      jump\t// out\n        /* \"#utility.yul\":7:146   */\n    tag_221:\n        /* \"#utility.yul\":53:58   */\n      0x00\n        /* \"#utility.yul\":91:97   */\n      dup2\n        /* \"#utility.yul\":78:98   */\n      calldataload\n        /* \"#utility.yul\":69:98   */\n      swap1\n      pop\n        /* \"#utility.yul\":107:140   */\n      tag_223\n        /* \"#utility.yul\":134:139   */\n      dup2\n        /* \"#utility.yul\":107:140   */\n      tag_224\n      jump\t// in\n    tag_223:\n        /* \"#utility.yul\":7:146   */\n      swap3\n      swap2\n      pop\n      pop\n      jump\t// out\n        /* \"#utility.yul\":152:295   */\n    tag_225:\n        /* \"#utility.yul\":209:214   */\n      0x00\n        /* \"#utility.yul\":240:246   */\n      dup2\n        /* \"#utility.yul\":234:247   */\n      mload\n        /* \"#utility.yul\":225:247   */\n      swap1\n      pop\n        /* \"#utility.yul\":256:289   */\n      tag_227\n        /* \"#utility.yul\":283:288   */\n      dup2\n        /* \"#utility.yul\":256:289   */\n      tag_224\n      jump\t// in\n    tag_227:\n        /* \"#utility.yul\":152:295   */\n      swap3\n      swap2\n      pop\n      pop\n      jump\t// out\n        /* \"#utility.yul\":301:440   */\n    tag_228:\n        /* \"#utility.yul\":347:352   */\n      0x00\n        /* \"#utility.yul\":385:391   */\n      dup2\n        /* \"#utility.yul\":372:392   */\n      calldataload\n        /* \"#utility.yul\":363:392   */\n      swap1\n      pop\n        /* \"#utility.yul\":401:434   */\n      tag_230\n        /* \"#utility.yul\":428:433   */\n      dup2\n        /* \"#utility.yul\":401:434   */\n      tag_231\n      jump\t// in\n    tag_230:\n        /* \"#utility.yul\":301:440   */\n      swap3\n      swap2\n      pop\n      pop\n      jump\t// out\n        /* \"#utility.yul\":446:797   */\n    tag_115:\n        /* \"#utility.yul\":516:522   */\n      0x00\n        /* \"#utility.yul\":565:567   */\n      0x20\n        /* \"#utility.yul\":553:562   */\n      dup3\n        /* \"#utility.yul\":544:551   */\n      dup5\n        /* \"#utility.yul\":540:563   */\n      sub\n        /* \"#utility.yul\":536:568   */\n      slt\n        /* \"#utility.yul\":533:652   */\n      iszero\n      tag_233\n      jumpi\n        /* \"#utility.yul\":571:650   */\n      tag_234\n      tag_235\n      jump\t// in\n    tag_234:\n        /* \"#utility.yul\":533:652   */\n    tag_233:\n        /* \"#utility.yul\":691:692   */\n      0x00\n        /* \"#utility.yul\":716:780   */\n      tag_236\n        /* \"#utility.yul\":772:779   */\n      dup5\n        /* \"#utility.yul\":763:769   */\n      dup3\n        /* \"#utility.yul\":752:761   */\n      dup6\n        /* \"#utility.yul\":748:770   */\n      add\n        /* \"#utility.yul\":716:780   */\n      tag_225\n      jump\t// in\n    tag_236:\n        /* \"#utility.yul\":706:780   */\n      swap2\n      pop\n        /* \"#utility.yul\":662:790   */\n      pop\n        /* \"#utility.yul\":446:797   */\n      swap3\n      swap2\n      pop\n      pop\n      jump\t// out\n        /* \"#utility.yul\":803:1277   */\n    tag_30:\n        /* \"#utility.yul\":871:877   */\n      0x00\n        /* \"#utility.yul\":879:885   */\n      dup1\n        /* \"#utility.yul\":928:930   */\n      0x40\n        /* \"#utility.yul\":916:925   */\n      dup4\n        /* \"#utility.yul\":907:914   */\n      dup6\n        /* \"#utility.yul\":903:926   */\n      sub\n        /* \"#utility.yul\":899:931   */\n      slt\n        /* \"#utility.yul\":896:1015   */\n      iszero\n      tag_238\n      jumpi\n        /* \"#utility.yul\":934:1013   */\n      tag_239\n      tag_235\n      jump\t// in\n    tag_239:\n        /* \"#utility.yul\":896:1015   */\n    tag_238:\n        /* \"#utility.yul\":1054:1055   */\n      0x00\n        /* \"#utility.yul\":1079:1132   */\n      tag_240\n        /* \"#utility.yul\":1124:1131   */\n      dup6\n        /* \"#utility.yul\":1115:1121   */\n      dup3\n        /* \"#utility.yul\":1104:1113   */\n      dup7\n        /* \"#utility.yul\":1100:1122   */\n      add\n        /* \"#utility.yul\":1079:1132   */\n      tag_221\n      jump\t// in\n    tag_240:\n        /* \"#utility.yul\":1069:1132   */\n      swap3\n      pop\n        /* \"#utility.yul\":1025:1142   */\n      pop\n        /* \"#utility.yul\":1181:1183   */\n      0x20\n        /* \"#utility.yul\":1207:1260   */\n      tag_241\n        /* \"#utility.yul\":1252:1259   */\n      dup6\n        /* \"#utility.yul\":1243:1249   */\n      dup3\n        /* \"#utility.yul\":1232:1241   */\n      dup7\n        /* \"#utility.yul\":1228:1250   */\n      add\n        /* \"#utility.yul\":1207:1260   */\n      tag_228\n      jump\t// in\n    tag_241:\n        /* \"#utility.yul\":1197:1260   */\n      swap2\n      pop\n        /* \"#utility.yul\":1152:1270   */\n      pop\n        /* \"#utility.yul\":803:1277   */\n      swap3\n      pop\n      swap3\n      swap1\n      pop\n      jump\t// out\n        /* \"#utility.yul\":1283:1902   */\n    tag_15:\n        /* \"#utility.yul\":1360:1366   */\n      0x00\n        /* \"#utility.yul\":1368:1374   */\n      dup1\n        /* \"#utility.yul\":1376:1382   */\n      0x00\n        /* \"#utility.yul\":1425:1427   */\n      0x60\n        /* \"#utility.yul\":1413:1422   */\n      dup5\n        /* \"#utility.yul\":1404:1411   */\n      dup7\n        /* \"#utility.yul\":1400:1423   */\n      sub\n        /* \"#utility.yul\":1396:1428   */\n      slt\n        /* \"#utility.yul\":1393:1512   */\n      iszero\n      tag_243\n      jumpi\n        /* \"#utility.yul\":1431:1510   */\n      tag_244\n      tag_235\n      jump\t// in\n    tag_244:\n        /* \"#utility.yul\":1393:1512   */\n    tag_243:\n        /* \"#utility.yul\":1551:1552   */\n      0x00\n        /* \"#utility.yul\":1576:1629   */\n      tag_245\n        /* \"#utility.yul\":1621:1628   */\n      dup7\n        /* \"#utility.yul\":1612:1618   */\n      dup3\n        /* \"#utility.yul\":1601:1610   */\n      dup8\n        /* \"#utility.yul\":1597:1619   */\n      add\n        /* \"#utility.yul\":1576:1629   */\n      tag_221\n      jump\t// in\n    tag_245:\n        /* \"#utility.yul\":1566:1629   */\n      swap4\n      pop\n        /* \"#utility.yul\":1522:1639   */\n      pop\n        /* \"#utility.yul\":1678:1680   */\n      0x20\n        /* \"#utility.yul\":1704:1757   */\n      tag_246\n        /* \"#utility.yul\":1749:1756   */\n      dup7\n        /* \"#utility.yul\":1740:1746   */\n      dup3\n        /* \"#utility.yul\":1729:1738   */\n      dup8\n        /* \"#utility.yul\":1725:1747   */\n      add\n        /* \"#utility.yul\":1704:1757   */\n      tag_228\n      jump\t// in\n    tag_246:\n        /* \"#utility.yul\":1694:1757   */\n      swap3\n      pop\n        /* \"#utility.yul\":1649:1767   */\n      pop\n        /* \"#utility.yul\":1806:1808   */\n      0x40\n        /* \"#utility.yul\":1832:1885   */\n      tag_247\n        /* \"#utility.yul\":1877:1884   */\n      dup7\n        /* \"#utility.yul\":1868:1874   */\n      dup3\n        /* \"#utility.yul\":1857:1866   */\n      dup8\n        /* \"#utility.yul\":1853:1875   */\n      add\n        /* \"#utility.yul\":1832:1885   */\n      tag_228\n      jump\t// in\n    tag_247:\n        /* \"#utility.yul\":1822:1885   */\n      swap2\n      pop\n        /* \"#utility.yul\":1777:1895   */\n      pop\n        /* \"#utility.yul\":1283:1902   */\n      swap3\n      pop\n      swap3\n      pop\n      swap3\n      jump\t// out\n        /* \"#utility.yul\":1908:2163   */\n    tag_248:\n        /* \"#utility.yul\":2015:2025   */\n      0x00\n        /* \"#utility.yul\":2036:2120   */\n      tag_250\n        /* \"#utility.yul\":2116:2119   */\n      dup4\n        /* \"#utility.yul\":2108:2114   */\n      dup4\n        /* \"#utility.yul\":2036:2120   */\n      tag_251\n      jump\t// in\n    tag_250:\n        /* \"#utility.yul\":2152:2156   */\n      0xc0\n        /* \"#utility.yul\":2147:2150   */\n      dup4\n        /* \"#utility.yul\":2143:2157   */\n      add\n        /* \"#utility.yul\":2129:2157   */\n      swap1\n      pop\n        /* \"#utility.yul\":1908:2163   */\n      swap3\n      swap2\n      pop\n      pop\n      jump\t// out\n        /* \"#utility.yul\":2169:2316   */\n    tag_252:\n        /* \"#utility.yul\":2264:2309   */\n      tag_254\n        /* \"#utility.yul\":2303:2308   */\n      dup2\n        /* \"#utility.yul\":2264:2309   */\n      tag_255\n      jump\t// in\n    tag_254:\n        /* \"#utility.yul\":2259:2262   */\n      dup3\n        /* \"#utility.yul\":2252:2310   */\n      mstore\n        /* \"#utility.yul\":2169:2316   */\n      pop\n      pop\n      jump\t// out\n        /* \"#utility.yul\":2322:2454   */\n    tag_256:\n        /* \"#utility.yul\":2415:2447   */\n      tag_258\n        /* \"#utility.yul\":2441:2446   */\n      dup2\n        /* \"#utility.yul\":2415:2447   */\n      tag_259\n      jump\t// in\n    tag_258:\n        /* \"#utility.yul\":2410:2413   */\n      dup3\n        /* \"#utility.yul\":2403:2448   */\n      mstore\n        /* \"#utility.yul\":2322:2454   */\n      pop\n      pop\n      jump\t// out\n        /* \"#utility.yul\":2460:2578   */\n    tag_260:\n        /* \"#utility.yul\":2547:2571   */\n      tag_262\n        /* \"#utility.yul\":2565:2570   */\n      dup2\n        /* \"#utility.yul\":2547:2571   */\n      tag_263\n      jump\t// in\n    tag_262:\n        /* \"#utility.yul\":2542:2545   */\n      dup3\n        /* \"#utility.yul\":2535:2572   */\n      mstore\n        /* \"#utility.yul\":2460:2578   */\n      pop\n      pop\n      jump\t// out\n        /* \"#utility.yul\":2658:3542   */\n    tag_264:\n        /* \"#utility.yul\":2815:2818   */\n      0x00\n        /* \"#utility.yul\":2844:2917   */\n      tag_266\n        /* \"#utility.yul\":2911:2916   */\n      dup3\n        /* \"#utility.yul\":2844:2917   */\n      tag_267\n      jump\t// in\n    tag_266:\n        /* \"#utility.yul\":2933:3038   */\n      tag_268\n        /* \"#utility.yul\":3031:3037   */\n      dup2\n        /* \"#utility.yul\":3026:3029   */\n      dup6\n        /* \"#utility.yul\":2933:3038   */\n      tag_269\n      jump\t// in\n    tag_268:\n        /* \"#utility.yul\":2926:3038   */\n      swap4\n      pop\n        /* \"#utility.yul\":3062:3137   */\n      tag_270\n        /* \"#utility.yul\":3131:3136   */\n      dup4\n        /* \"#utility.yul\":3062:3137   */\n      tag_271\n      jump\t// in\n    tag_270:\n        /* \"#utility.yul\":3160:3167   */\n      dup1\n        /* \"#utility.yul\":3191:3192   */\n      0x00\n        /* \"#utility.yul\":3176:3517   */\n    tag_272:\n        /* \"#utility.yul\":3201:3207   */\n      dup4\n        /* \"#utility.yul\":3198:3199   */\n      dup2\n        /* \"#utility.yul\":3195:3208   */\n      lt\n        /* \"#utility.yul\":3176:3517   */\n      iszero\n      tag_274\n      jumpi\n        /* \"#utility.yul\":3277:3283   */\n      dup2\n        /* \"#utility.yul\":3271:3284   */\n      mload\n        /* \"#utility.yul\":3304:3405   */\n      tag_275\n        /* \"#utility.yul\":3401:3404   */\n      dup9\n        /* \"#utility.yul\":3386:3399   */\n      dup3\n        /* \"#utility.yul\":3304:3405   */\n      tag_248\n      jump\t// in\n    tag_275:\n        /* \"#utility.yul\":3297:3405   */\n      swap8\n      pop\n        /* \"#utility.yul\":3428:3507   */\n      tag_276\n        /* \"#utility.yul\":3500:3506   */\n      dup4\n        /* \"#utility.yul\":3428:3507   */\n      tag_277\n      jump\t// in\n    tag_276:\n        /* \"#utility.yul\":3418:3507   */\n      swap3\n      pop\n        /* \"#utility.yul\":3236:3517   */\n      pop\n        /* \"#utility.yul\":3223:3224   */\n      0x01\n        /* \"#utility.yul\":3220:3221   */\n      dup2\n        /* \"#utility.yul\":3216:3225   */\n      add\n        /* \"#utility.yul\":3211:3225   */\n      swap1\n      pop\n        /* \"#utility.yul\":3176:3517   */\n      jump(tag_272)\n    tag_274:\n        /* \"#utility.yul\":3180:3194   */\n      pop\n        /* \"#utility.yul\":3533:3536   */\n      dup6\n        /* \"#utility.yul\":3526:3536   */\n      swap4\n      pop\n        /* \"#utility.yul\":2820:3542   */\n      pop\n      pop\n      pop\n        /* \"#utility.yul\":2658:3542   */\n      swap3\n      swap2\n      pop\n      pop\n      jump\t// out\n        /* \"#utility.yul\":3548:3647   */\n    tag_278:\n        /* \"#utility.yul\":3619:3640   */\n      tag_280\n        /* \"#utility.yul\":3634:3639   */\n      dup2\n        /* \"#utility.yul\":3619:3640   */\n      tag_281\n      jump\t// in\n    tag_280:\n        /* \"#utility.yul\":3614:3617   */\n      dup3\n        /* \"#utility.yul\":3607:3641   */\n      mstore\n        /* \"#utility.yul\":3548:3647   */\n      pop\n      pop\n      jump\t// out\n        /* \"#utility.yul\":3653:4019   */\n    tag_282:\n        /* \"#utility.yul\":3795:3798   */\n      0x00\n        /* \"#utility.yul\":3816:3883   */\n      tag_284\n        /* \"#utility.yul\":3880:3882   */\n      0x0d\n        /* \"#utility.yul\":3875:3878   */\n      dup4\n        /* \"#utility.yul\":3816:3883   */\n      tag_285\n      jump\t// in\n    tag_284:\n        /* \"#utility.yul\":3809:3883   */\n      swap2\n      pop\n        /* \"#utility.yul\":3892:3985   */\n      tag_286\n        /* \"#utility.yul\":3981:3984   */\n      dup3\n        /* \"#utility.yul\":3892:3985   */\n      tag_287\n      jump\t// in\n    tag_286:\n        /* \"#utility.yul\":4010:4012   */\n      0x20\n        /* \"#utility.yul\":4005:4008   */\n      dup3\n        /* \"#utility.yul\":4001:4013   */\n      add\n        /* \"#utility.yul\":3994:4013   */\n      swap1\n      pop\n        /* \"#utility.yul\":3653:4019   */\n      swap2\n      swap1\n      pop\n      jump\t// out\n        /* \"#utility.yul\":4025:4391   */\n    tag_288:\n        /* \"#utility.yul\":4167:4170   */\n      0x00\n        /* \"#utility.yul\":4188:4255   */\n      tag_290\n        /* \"#utility.yul\":4252:4254   */\n      0x1b\n        /* \"#utility.yul\":4247:4250   */\n      dup4\n        /* \"#utility.yul\":4188:4255   */\n      tag_285\n      jump\t// in\n    tag_290:\n        /* \"#utility.yul\":4181:4255   */\n      swap2\n      pop\n        /* \"#utility.yul\":4264:4357   */\n      tag_291\n        /* \"#utility.yul\":4353:4356   */\n      dup3\n        /* \"#utility.yul\":4264:4357   */\n      tag_292\n      jump\t// in\n    tag_291:\n        /* \"#utility.yul\":4382:4384   */\n      0x20\n        /* \"#utility.yul\":4377:4380   */\n      dup3\n        /* \"#utility.yul\":4373:4385   */\n      add\n        /* \"#utility.yul\":4366:4385   */\n      swap1\n      pop\n        /* \"#utility.yul\":4025:4391   */\n      swap2\n      swap1\n      pop\n      jump\t// out\n        /* \"#utility.yul\":4397:4763   */\n    tag_293:\n        /* \"#utility.yul\":4539:4542   */\n      0x00\n        /* \"#utility.yul\":4560:4627   */\n      tag_295\n        /* \"#utility.yul\":4624:4626   */\n      0x26\n        /* \"#utility.yul\":4619:4622   */\n      dup4\n        /* \"#utility.yul\":4560:4627   */\n      tag_285\n      jump\t// in\n    tag_295:\n        /* \"#utility.yul\":4553:4627   */\n      swap2\n      pop\n        /* \"#utility.yul\":4636:4729   */\n      tag_296\n        /* \"#utility.yul\":4725:4728   */\n      dup3\n        /* \"#utility.yul\":4636:4729   */\n      tag_297\n      jump\t// in\n    tag_296:\n        /* \"#utility.yul\":4754:4756   */\n      0x40\n        /* \"#utility.yul\":4749:4752   */\n      dup3\n        /* \"#utility.yul\":4745:4757   */\n      add\n        /* \"#utility.yul\":4738:4757   */\n      swap1\n      pop\n        /* \"#utility.yul\":4397:4763   */\n      swap2\n      swap1\n      pop\n      jump\t// out\n        /* \"#utility.yul\":4769:5135   */\n    tag_298:\n        /* \"#utility.yul\":4911:4914   */\n      0x00\n        /* \"#utility.yul\":4932:4999   */\n      tag_300\n        /* \"#utility.yul\":4996:4998   */\n      0x20\n        /* \"#utility.yul\":4991:4994   */\n      dup4\n        /* \"#utility.yul\":4932:4999   */\n      tag_285\n      jump\t// in\n    tag_300:\n        /* \"#utility.yul\":4925:4999   */\n      swap2\n      pop\n        /* \"#utility.yul\":5008:5101   */\n      tag_301\n        /* \"#utility.yul\":5097:5100   */\n      dup3\n        /* \"#utility.yul\":5008:5101   */\n      tag_302\n      jump\t// in\n    tag_301:\n        /* \"#utility.yul\":5126:5128   */\n      0x20\n        /* \"#utility.yul\":5121:5124   */\n      dup3\n        /* \"#utility.yul\":5117:5129   */\n      add\n        /* \"#utility.yul\":5110:5129   */\n      swap1\n      pop\n        /* \"#utility.yul\":4769:5135   */\n      swap2\n      swap1\n      pop\n      jump\t// out\n        /* \"#utility.yul\":5141:5507   */\n    tag_303:\n        /* \"#utility.yul\":5283:5286   */\n      0x00\n        /* \"#utility.yul\":5304:5371   */\n      tag_305\n        /* \"#utility.yul\":5368:5370   */\n      0x1f\n        /* \"#utility.yul\":5363:5366   */\n      dup4\n        /* \"#utility.yul\":5304:5371   */\n      tag_285\n      jump\t// in\n    tag_305:\n        /* \"#utility.yul\":5297:5371   */\n      swap2\n      pop\n        /* \"#utility.yul\":5380:5473   */\n      tag_306\n        /* \"#utility.yul\":5469:5472   */\n      dup3\n        /* \"#utility.yul\":5380:5473   */\n      tag_307\n      jump\t// in\n    tag_306:\n        /* \"#utility.yul\":5498:5500   */\n      0x20\n        /* \"#utility.yul\":5493:5496   */\n      dup3\n        /* \"#utility.yul\":5489:5501   */\n      add\n        /* \"#utility.yul\":5482:5501   */\n      swap1\n      pop\n        /* \"#utility.yul\":5141:5507   */\n      swap2\n      swap1\n      pop\n      jump\t// out\n        /* \"#utility.yul\":5513:5879   */\n    tag_308:\n        /* \"#utility.yul\":5655:5658   */\n      0x00\n        /* \"#utility.yul\":5676:5743   */\n      tag_310\n        /* \"#utility.yul\":5740:5742   */\n      0x1c\n        /* \"#utility.yul\":5735:5738   */\n      dup4\n        /* \"#utility.yul\":5676:5743   */\n      tag_285\n      jump\t// in\n    tag_310:\n        /* \"#utility.yul\":5669:5743   */\n      swap2\n      pop\n        /* \"#utility.yul\":5752:5845   */\n      tag_311\n        /* \"#utility.yul\":5841:5844   */\n      dup3\n        /* \"#utility.yul\":5752:5845   */\n      tag_312\n      jump\t// in\n    tag_311:\n        /* \"#utility.yul\":5870:5872   */\n      0x20\n        /* \"#utility.yul\":5865:5868   */\n      dup3\n        /* \"#utility.yul\":5861:5873   */\n      add\n        /* \"#utility.yul\":5854:5873   */\n      swap1\n      pop\n        /* \"#utility.yul\":5513:5879   */\n      swap2\n      swap1\n      pop\n      jump\t// out\n        /* \"#utility.yul\":5955:7190   */\n    tag_251:\n        /* \"#utility.yul\":6080:6084   */\n      0xc0\n        /* \"#utility.yul\":6075:6078   */\n      dup3\n        /* \"#utility.yul\":6071:6085   */\n      add\n        /* \"#utility.yul\":6170:6174   */\n      0x00\n        /* \"#utility.yul\":6163:6168   */\n      dup3\n        /* \"#utility.yul\":6159:6175   */\n      add\n        /* \"#utility.yul\":6153:6176   */\n      mload\n        /* \"#utility.yul\":6189:6252   */\n      tag_314\n        /* \"#utility.yul\":6246:6250   */\n      0x00\n        /* \"#utility.yul\":6241:6244   */\n      dup6\n        /* \"#utility.yul\":6237:6251   */\n      add\n        /* \"#utility.yul\":6223:6235   */\n      dup3\n        /* \"#utility.yul\":6189:6252   */\n      tag_315\n      jump\t// in\n    tag_314:\n        /* \"#utility.yul\":6095:6262   */\n      pop\n        /* \"#utility.yul\":6345:6349   */\n      0x20\n        /* \"#utility.yul\":6338:6343   */\n      dup3\n        /* \"#utility.yul\":6334:6350   */\n      add\n        /* \"#utility.yul\":6328:6351   */\n      mload\n        /* \"#utility.yul\":6364:6427   */\n      tag_316\n        /* \"#utility.yul\":6421:6425   */\n      0x20\n        /* \"#utility.yul\":6416:6419   */\n      dup6\n        /* \"#utility.yul\":6412:6426   */\n      add\n        /* \"#utility.yul\":6398:6410   */\n      dup3\n        /* \"#utility.yul\":6364:6427   */\n      tag_315\n      jump\t// in\n    tag_316:\n        /* \"#utility.yul\":6272:6437   */\n      pop\n        /* \"#utility.yul\":6521:6525   */\n      0x40\n        /* \"#utility.yul\":6514:6519   */\n      dup3\n        /* \"#utility.yul\":6510:6526   */\n      add\n        /* \"#utility.yul\":6504:6527   */\n      mload\n        /* \"#utility.yul\":6540:6619   */\n      tag_317\n        /* \"#utility.yul\":6613:6617   */\n      0x40\n        /* \"#utility.yul\":6608:6611   */\n      dup6\n        /* \"#utility.yul\":6604:6618   */\n      add\n        /* \"#utility.yul\":6590:6602   */\n      dup3\n        /* \"#utility.yul\":6540:6619   */\n      tag_256\n      jump\t// in\n    tag_317:\n        /* \"#utility.yul\":6447:6629   */\n      pop\n        /* \"#utility.yul\":6712:6716   */\n      0x60\n        /* \"#utility.yul\":6705:6710   */\n      dup3\n        /* \"#utility.yul\":6701:6717   */\n      add\n        /* \"#utility.yul\":6695:6718   */\n      mload\n        /* \"#utility.yul\":6731:6810   */\n      tag_318\n        /* \"#utility.yul\":6804:6808   */\n      0x60\n        /* \"#utility.yul\":6799:6802   */\n      dup6\n        /* \"#utility.yul\":6795:6809   */\n      add\n        /* \"#utility.yul\":6781:6793   */\n      dup3\n        /* \"#utility.yul\":6731:6810   */\n      tag_256\n      jump\t// in\n    tag_318:\n        /* \"#utility.yul\":6639:6820   */\n      pop\n        /* \"#utility.yul\":6905:6909   */\n      0x80\n        /* \"#utility.yul\":6898:6903   */\n      dup3\n        /* \"#utility.yul\":6894:6910   */\n      add\n        /* \"#utility.yul\":6888:6911   */\n      mload\n        /* \"#utility.yul\":6924:7003   */\n      tag_319\n        /* \"#utility.yul\":6997:7001   */\n      0x80\n        /* \"#utility.yul\":6992:6995   */\n      dup6\n        /* \"#utility.yul\":6988:7002   */\n      add\n        /* \"#utility.yul\":6974:6986   */\n      dup3\n        /* \"#utility.yul\":6924:7003   */\n      tag_256\n      jump\t// in\n    tag_319:\n        /* \"#utility.yul\":6830:7013   */\n      pop\n        /* \"#utility.yul\":7097:7101   */\n      0xa0\n        /* \"#utility.yul\":7090:7095   */\n      dup3\n        /* \"#utility.yul\":7086:7102   */\n      add\n        /* \"#utility.yul\":7080:7103   */\n      mload\n        /* \"#utility.yul\":7116:7173   */\n      tag_320\n        /* \"#utility.yul\":7167:7171   */\n      0xa0\n        /* \"#utility.yul\":7162:7165   */\n      dup6\n        /* \"#utility.yul\":7158:7172   */\n      add\n        /* \"#utility.yul\":7144:7156   */\n      dup3\n        /* \"#utility.yul\":7116:7173   */\n      tag_278\n      jump\t// in\n    tag_320:\n        /* \"#utility.yul\":7023:7183   */\n      pop\n        /* \"#utility.yul\":6049:7190   */\n      pop\n        /* \"#utility.yul\":5955:7190   */\n      pop\n      pop\n      jump\t// out\n        /* \"#utility.yul\":7196:7304   */\n    tag_315:\n        /* \"#utility.yul\":7273:7297   */\n      tag_322\n        /* \"#utility.yul\":7291:7296   */\n      dup2\n        /* \"#utility.yul\":7273:7297   */\n      tag_323\n      jump\t// in\n    tag_322:\n        /* \"#utility.yul\":7268:7271   */\n      dup3\n        /* \"#utility.yul\":7261:7298   */\n      mstore\n        /* \"#utility.yul\":7196:7304   */\n      pop\n      pop\n      jump\t// out\n        /* \"#utility.yul\":7310:7428   */\n    tag_324:\n        /* \"#utility.yul\":7397:7421   */\n      tag_326\n        /* \"#utility.yul\":7415:7420   */\n      dup2\n        /* \"#utility.yul\":7397:7421   */\n      tag_323\n      jump\t// in\n    tag_326:\n        /* \"#utility.yul\":7392:7395   */\n      dup3\n        /* \"#utility.yul\":7385:7422   */\n      mstore\n        /* \"#utility.yul\":7310:7428   */\n      pop\n      pop\n      jump\t// out\n        /* \"#utility.yul\":7434:7656   */\n    tag_33:\n        /* \"#utility.yul\":7527:7531   */\n      0x00\n        /* \"#utility.yul\":7565:7567   */\n      0x20\n        /* \"#utility.yul\":7554:7563   */\n      dup3\n        /* \"#utility.yul\":7550:7568   */\n      add\n        /* \"#utility.yul\":7542:7568   */\n      swap1\n      pop\n        /* \"#utility.yul\":7578:7649   */\n      tag_328\n        /* \"#utility.yul\":7646:7647   */\n      0x00\n        /* \"#utility.yul\":7635:7644   */\n      dup4\n        /* \"#utility.yul\":7631:7648   */\n      add\n        /* \"#utility.yul\":7622:7628   */\n      dup5\n        /* \"#utility.yul\":7578:7649   */\n      tag_260\n      jump\t// in\n    tag_328:\n        /* \"#utility.yul\":7434:7656   */\n      swap3\n      swap2\n      pop\n      pop\n      jump\t// out\n        /* \"#utility.yul\":7662:8120   */\n    tag_128:\n        /* \"#utility.yul\":7819:7823   */\n      0x00\n        /* \"#utility.yul\":7857:7859   */\n      0x60\n        /* \"#utility.yul\":7846:7855   */\n      dup3\n        /* \"#utility.yul\":7842:7860   */\n      add\n        /* \"#utility.yul\":7834:7860   */\n      swap1\n      pop\n        /* \"#utility.yul\":7870:7941   */\n      tag_330\n        /* \"#utility.yul\":7938:7939   */\n      0x00\n        /* \"#utility.yul\":7927:7936   */\n      dup4\n        /* \"#utility.yul\":7923:7940   */\n      add\n        /* \"#utility.yul\":7914:7920   */\n      dup7\n        /* \"#utility.yul\":7870:7941   */\n      tag_260\n      jump\t// in\n    tag_330:\n        /* \"#utility.yul\":7951:8031   */\n      tag_331\n        /* \"#utility.yul\":8027:8029   */\n      0x20\n        /* \"#utility.yul\":8016:8025   */\n      dup4\n        /* \"#utility.yul\":8012:8030   */\n      add\n        /* \"#utility.yul\":8003:8009   */\n      dup6\n        /* \"#utility.yul\":7951:8031   */\n      tag_252\n      jump\t// in\n    tag_331:\n        /* \"#utility.yul\":8041:8113   */\n      tag_332\n        /* \"#utility.yul\":8109:8111   */\n      0x40\n        /* \"#utility.yul\":8098:8107   */\n      dup4\n        /* \"#utility.yul\":8094:8112   */\n      add\n        /* \"#utility.yul\":8085:8091   */\n      dup5\n        /* \"#utility.yul\":8041:8113   */\n      tag_324\n      jump\t// in\n    tag_332:\n        /* \"#utility.yul\":7662:8120   */\n      swap5\n      swap4\n      pop\n      pop\n      pop\n      pop\n      jump\t// out\n        /* \"#utility.yul\":8126:8568   */\n    tag_73:\n        /* \"#utility.yul\":8275:8279   */\n      0x00\n        /* \"#utility.yul\":8313:8315   */\n      0x60\n        /* \"#utility.yul\":8302:8311   */\n      dup3\n        /* \"#utility.yul\":8298:8316   */\n      add\n        /* \"#utility.yul\":8290:8316   */\n      swap1\n      pop\n        /* \"#utility.yul\":8326:8397   */\n      tag_334\n        /* \"#utility.yul\":8394:8395   */\n      0x00\n        /* \"#utility.yul\":8383:8392   */\n      dup4\n        /* \"#utility.yul\":8379:8396   */\n      add\n        /* \"#utility.yul\":8370:8376   */\n      dup7\n        /* \"#utility.yul\":8326:8397   */\n      tag_260\n      jump\t// in\n    tag_334:\n        /* \"#utility.yul\":8407:8479   */\n      tag_335\n        /* \"#utility.yul\":8475:8477   */\n      0x20\n        /* \"#utility.yul\":8464:8473   */\n      dup4\n        /* \"#utility.yul\":8460:8478   */\n      add\n        /* \"#utility.yul\":8451:8457   */\n      dup6\n        /* \"#utility.yul\":8407:8479   */\n      tag_260\n      jump\t// in\n    tag_335:\n        /* \"#utility.yul\":8489:8561   */\n      tag_336\n        /* \"#utility.yul\":8557:8559   */\n      0x40\n        /* \"#utility.yul\":8546:8555   */\n      dup4\n        /* \"#utility.yul\":8542:8560   */\n      add\n        /* \"#utility.yul\":8533:8539   */\n      dup5\n        /* \"#utility.yul\":8489:8561   */\n      tag_324\n      jump\t// in\n    tag_336:\n        /* \"#utility.yul\":8126:8568   */\n      swap5\n      swap4\n      pop\n      pop\n      pop\n      pop\n      jump\t// out\n        /* \"#utility.yul\":8574:8906   */\n    tag_80:\n        /* \"#utility.yul\":8695:8699   */\n      0x00\n        /* \"#utility.yul\":8733:8735   */\n      0x40\n        /* \"#utility.yul\":8722:8731   */\n      dup3\n        /* \"#utility.yul\":8718:8736   */\n      add\n        /* \"#utility.yul\":8710:8736   */\n      swap1\n      pop\n        /* \"#utility.yul\":8746:8817   */\n      tag_338\n        /* \"#utility.yul\":8814:8815   */\n      0x00\n        /* \"#utility.yul\":8803:8812   */\n      dup4\n        /* \"#utility.yul\":8799:8816   */\n      add\n        /* \"#utility.yul\":8790:8796   */\n      dup6\n        /* \"#utility.yul\":8746:8817   */\n      tag_260\n      jump\t// in\n    tag_338:\n        /* \"#utility.yul\":8827:8899   */\n      tag_339\n        /* \"#utility.yul\":8895:8897   */\n      0x20\n        /* \"#utility.yul\":8884:8893   */\n      dup4\n        /* \"#utility.yul\":8880:8898   */\n      add\n        /* \"#utility.yul\":8871:8877   */\n      dup5\n        /* \"#utility.yul\":8827:8899   */\n      tag_324\n      jump\t// in\n    tag_339:\n        /* \"#utility.yul\":8574:8906   */\n      swap4\n      swap3\n      pop\n      pop\n      pop\n      jump\t// out\n        /* \"#utility.yul\":8912:9361   */\n    tag_21:\n        /* \"#utility.yul\":9093:9097   */\n      0x00\n        /* \"#utility.yul\":9131:9133   */\n      0x20\n        /* \"#utility.yul\":9120:9129   */\n      dup3\n        /* \"#utility.yul\":9116:9134   */\n      add\n        /* \"#utility.yul\":9108:9134   */\n      swap1\n      pop\n        /* \"#utility.yul\":9180:9189   */\n      dup2\n        /* \"#utility.yul\":9174:9178   */\n      dup2\n        /* \"#utility.yul\":9170:9190   */\n      sub\n        /* \"#utility.yul\":9166:9167   */\n      0x00\n        /* \"#utility.yul\":9155:9164   */\n      dup4\n        /* \"#utility.yul\":9151:9168   */\n      add\n        /* \"#utility.yul\":9144:9191   */\n      mstore\n        /* \"#utility.yul\":9208:9354   */\n      tag_341\n        /* \"#utility.yul\":9349:9353   */\n      dup2\n        /* \"#utility.yul\":9340:9346   */\n      dup5\n        /* \"#utility.yul\":9208:9354   */\n      tag_264\n      jump\t// in\n    tag_341:\n        /* \"#utility.yul\":9200:9354   */\n      swap1\n      pop\n        /* \"#utility.yul\":8912:9361   */\n      swap3\n      swap2\n      pop\n      pop\n      jump\t// out\n        /* \"#utility.yul\":9367:9786   */\n    tag_71:\n        /* \"#utility.yul\":9533:9537   */\n      0x00\n        /* \"#utility.yul\":9571:9573   */\n      0x20\n        /* \"#utility.yul\":9560:9569   */\n      dup3\n        /* \"#utility.yul\":9556:9574   */\n      add\n        /* \"#utility.yul\":9548:9574   */\n      swap1\n      pop\n        /* \"#utility.yul\":9620:9629   */\n      dup2\n        /* \"#utility.yul\":9614:9618   */\n      dup2\n        /* \"#utility.yul\":9610:9630   */\n      sub\n        /* \"#utility.yul\":9606:9607   */\n      0x00\n        /* \"#utility.yul\":9595:9604   */\n      dup4\n        /* \"#utility.yul\":9591:9608   */\n      add\n        /* \"#utility.yul\":9584:9631   */\n      mstore\n        /* \"#utility.yul\":9648:9779   */\n      tag_343\n        /* \"#utility.yul\":9774:9778   */\n      dup2\n        /* \"#utility.yul\":9648:9779   */\n      tag_282\n      jump\t// in\n    tag_343:\n        /* \"#utility.yul\":9640:9779   */\n      swap1\n      pop\n        /* \"#utility.yul\":9367:9786   */\n      swap2\n      swap1\n      pop\n      jump\t// out\n        /* \"#utility.yul\":9792:10211   */\n    tag_217:\n        /* \"#utility.yul\":9958:9962   */\n      0x00\n        /* \"#utility.yul\":9996:9998   */\n      0x20\n        /* \"#utility.yul\":9985:9994   */\n      dup3\n        /* \"#utility.yul\":9981:9999   */\n      add\n        /* \"#utility.yul\":9973:9999   */\n      swap1\n      pop\n        /* \"#utility.yul\":10045:10054   */\n      dup2\n        /* \"#utility.yul\":10039:10043   */\n      dup2\n        /* \"#utility.yul\":10035:10055   */\n      sub\n        /* \"#utility.yul\":10031:10032   */\n      0x00\n        /* \"#utility.yul\":10020:10029   */\n      dup4\n        /* \"#utility.yul\":10016:10033   */\n      add\n        /* \"#utility.yul\":10009:10056   */\n      mstore\n        /* \"#utility.yul\":10073:10204   */\n      tag_345\n        /* \"#utility.yul\":10199:10203   */\n      dup2\n        /* \"#utility.yul\":10073:10204   */\n      tag_288\n      jump\t// in\n    tag_345:\n        /* \"#utility.yul\":10065:10204   */\n      swap1\n      pop\n        /* \"#utility.yul\":9792:10211   */\n      swap2\n      swap1\n      pop\n      jump\t// out\n        /* \"#utility.yul\":10217:10636   */\n    tag_124:\n        /* \"#utility.yul\":10383:10387   */\n      0x00\n        /* \"#utility.yul\":10421:10423   */\n      0x20\n        /* \"#utility.yul\":10410:10419   */\n      dup3\n        /* \"#utility.yul\":10406:10424   */\n      add\n        /* \"#utility.yul\":10398:10424   */\n      swap1\n      pop\n        /* \"#utility.yul\":10470:10479   */\n      dup2\n        /* \"#utility.yul\":10464:10468   */\n      dup2\n        /* \"#utility.yul\":10460:10480   */\n      sub\n        /* \"#utility.yul\":10456:10457   */\n      0x00\n        /* \"#utility.yul\":10445:10454   */\n      dup4\n        /* \"#utility.yul\":10441:10458   */\n      add\n        /* \"#utility.yul\":10434:10481   */\n      mstore\n        /* \"#utility.yul\":10498:10629   */\n      tag_347\n        /* \"#utility.yul\":10624:10628   */\n      dup2\n        /* \"#utility.yul\":10498:10629   */\n      tag_293\n      jump\t// in\n    tag_347:\n        /* \"#utility.yul\":10490:10629   */\n      swap1\n      pop\n        /* \"#utility.yul\":10217:10636   */\n      swap2\n      swap1\n      pop\n      jump\t// out\n        /* \"#utility.yul\":10642:11061   */\n    tag_67:\n        /* \"#utility.yul\":10808:10812   */\n      0x00\n        /* \"#utility.yul\":10846:10848   */\n      0x20\n        /* \"#utility.yul\":10835:10844   */\n      dup3\n        /* \"#utility.yul\":10831:10849   */\n      add\n        /* \"#utility.yul\":10823:10849   */\n      swap1\n      pop\n        /* \"#utility.yul\":10895:10904   */\n      dup2\n        /* \"#utility.yul\":10889:10893   */\n      dup2\n        /* \"#utility.yul\":10885:10905   */\n      sub\n        /* \"#utility.yul\":10881:10882   */\n      0x00\n        /* \"#utility.yul\":10870:10879   */\n      dup4\n        /* \"#utility.yul\":10866:10883   */\n      add\n        /* \"#utility.yul\":10859:10906   */\n      mstore\n        /* \"#utility.yul\":10923:11054   */\n      tag_349\n        /* \"#utility.yul\":11049:11053   */\n      dup2\n        /* \"#utility.yul\":10923:11054   */\n      tag_298\n      jump\t// in\n    tag_349:\n        /* \"#utility.yul\":10915:11054   */\n      swap1\n      pop\n        /* \"#utility.yul\":10642:11061   */\n      swap2\n      swap1\n      pop\n      jump\t// out\n        /* \"#utility.yul\":11067:11486   */\n    tag_59:\n        /* \"#utility.yul\":11233:11237   */\n      0x00\n        /* \"#utility.yul\":11271:11273   */\n      0x20\n        /* \"#utility.yul\":11260:11269   */\n      dup3\n        /* \"#utility.yul\":11256:11274   */\n      add\n        /* \"#utility.yul\":11248:11274   */\n      swap1\n      pop\n        /* \"#utility.yul\":11320:11329   */\n      dup2\n        /* \"#utility.yul\":11314:11318   */\n      dup2\n        /* \"#utility.yul\":11310:11330   */\n      sub\n        /* \"#utility.yul\":11306:11307   */\n      0x00\n        /* \"#utility.yul\":11295:11304   */\n      dup4\n        /* \"#utility.yul\":11291:11308   */\n      add\n        /* \"#utility.yul\":11284:11331   */\n      mstore\n        /* \"#utility.yul\":11348:11479   */\n      tag_351\n        /* \"#utility.yul\":11474:11478   */\n      dup2\n        /* \"#utility.yul\":11348:11479   */\n      tag_303\n      jump\t// in\n    tag_351:\n        /* \"#utility.yul\":11340:11479   */\n      swap1\n      pop\n        /* \"#utility.yul\":11067:11486   */\n      swap2\n      swap1\n      pop\n      jump\t// out\n        /* \"#utility.yul\":11492:11911   */\n    tag_63:\n        /* \"#utility.yul\":11658:11662   */\n      0x00\n        /* \"#utility.yul\":11696:11698   */\n      0x20\n        /* \"#utility.yul\":11685:11694   */\n      dup3\n        /* \"#utility.yul\":11681:11699   */\n      add\n        /* \"#utility.yul\":11673:11699   */\n      swap1\n      pop\n        /* \"#utility.yul\":11745:11754   */\n      dup2\n        /* \"#utility.yul\":11739:11743   */\n      dup2\n        /* \"#utility.yul\":11735:11755   */\n      sub\n        /* \"#utility.yul\":11731:11732   */\n      0x00\n        /* \"#utility.yul\":11720:11729   */\n      dup4\n        /* \"#utility.yul\":11716:11733   */\n      add\n        /* \"#utility.yul\":11709:11756   */\n      mstore\n        /* \"#utility.yul\":11773:11904   */\n      tag_353\n        /* \"#utility.yul\":11899:11903   */\n      dup2\n        /* \"#utility.yul\":11773:11904   */\n      tag_308\n      jump\t// in\n    tag_353:\n        /* \"#utility.yul\":11765:11904   */\n      swap1\n      pop\n        /* \"#utility.yul\":11492:11911   */\n      swap2\n      swap1\n      pop\n      jump\t// out\n        /* \"#utility.yul\":11917:12139   */\n    tag_26:\n        /* \"#utility.yul\":12010:12014   */\n      0x00\n        /* \"#utility.yul\":12048:12050   */\n      0x20\n        /* \"#utility.yul\":12037:12046   */\n      dup3\n        /* \"#utility.yul\":12033:12051   */\n      add\n        /* \"#utility.yul\":12025:12051   */\n      swap1\n      pop\n        /* \"#utility.yul\":12061:12132   */\n      tag_355\n        /* \"#utility.yul\":12129:12130   */\n      0x00\n        /* \"#utility.yul\":12118:12127   */\n      dup4\n        /* \"#utility.yul\":12114:12131   */\n      add\n        /* \"#utility.yul\":12105:12111   */\n      dup5\n        /* \"#utility.yul\":12061:12132   */\n      tag_324\n      jump\t// in\n    tag_355:\n        /* \"#utility.yul\":11917:12139   */\n      swap3\n      swap2\n      pop\n      pop\n      jump\t// out\n        /* \"#utility.yul\":12226:12377   */\n    tag_271:\n        /* \"#utility.yul\":12312:12316   */\n      0x00\n        /* \"#utility.yul\":12335:12338   */\n      dup2\n        /* \"#utility.yul\":12327:12338   */\n      swap1\n      pop\n        /* \"#utility.yul\":12365:12369   */\n      0x20\n        /* \"#utility.yul\":12360:12363   */\n      dup3\n        /* \"#utility.yul\":12356:12370   */\n      add\n        /* \"#utility.yul\":12348:12370   */\n      swap1\n      pop\n        /* \"#utility.yul\":12226:12377   */\n      swap2\n      swap1\n      pop\n      jump\t// out\n        /* \"#utility.yul\":12383:12516   */\n    tag_267:\n        /* \"#utility.yul\":12469:12475   */\n      0x00\n        /* \"#utility.yul\":12503:12508   */\n      dup2\n        /* \"#utility.yul\":12497:12509   */\n      mload\n        /* \"#utility.yul\":12487:12509   */\n      swap1\n      pop\n        /* \"#utility.yul\":12383:12516   */\n      swap2\n      swap1\n      pop\n      jump\t// out\n        /* \"#utility.yul\":12522:12654   */\n    tag_277:\n        /* \"#utility.yul\":12611:12615   */\n      0x00\n        /* \"#utility.yul\":12643:12647   */\n      0x20\n        /* \"#utility.yul\":12638:12641   */\n      dup3\n        /* \"#utility.yul\":12634:12648   */\n      add\n        /* \"#utility.yul\":12626:12648   */\n      swap1\n      pop\n        /* \"#utility.yul\":12522:12654   */\n      swap2\n      swap1\n      pop\n      jump\t// out\n        /* \"#utility.yul\":12660:12863   */\n    tag_269:\n        /* \"#utility.yul\":12778:12789   */\n      0x00\n        /* \"#utility.yul\":12812:12818   */\n      dup3\n        /* \"#utility.yul\":12807:12810   */\n      dup3\n        /* \"#utility.yul\":12800:12819   */\n      mstore\n        /* \"#utility.yul\":12852:12856   */\n      0x20\n        /* \"#utility.yul\":12847:12850   */\n      dup3\n        /* \"#utility.yul\":12843:12857   */\n      add\n        /* \"#utility.yul\":12828:12857   */\n      swap1\n      pop\n        /* \"#utility.yul\":12660:12863   */\n      swap3\n      swap2\n      pop\n      pop\n      jump\t// out\n        /* \"#utility.yul\":12869:13038   */\n    tag_285:\n        /* \"#utility.yul\":12953:12964   */\n      0x00\n        /* \"#utility.yul\":12987:12993   */\n      dup3\n        /* \"#utility.yul\":12982:12985   */\n      dup3\n        /* \"#utility.yul\":12975:12994   */\n      mstore\n        /* \"#utility.yul\":13027:13031   */\n      0x20\n        /* \"#utility.yul\":13022:13025   */\n      dup3\n        /* \"#utility.yul\":13018:13032   */\n      add\n        /* \"#utility.yul\":13003:13032   */\n      swap1\n      pop\n        /* \"#utility.yul\":12869:13038   */\n      swap3\n      swap2\n      pop\n      pop\n      jump\t// out\n        /* \"#utility.yul\":13044:13235   */\n    tag_160:\n        /* \"#utility.yul\":13084:13088   */\n      0x00\n        /* \"#utility.yul\":13104:13124   */\n      tag_364\n        /* \"#utility.yul\":13122:13123   */\n      dup3\n        /* \"#utility.yul\":13104:13124   */\n      tag_323\n      jump\t// in\n    tag_364:\n        /* \"#utility.yul\":13099:13124   */\n      swap2\n      pop\n        /* \"#utility.yul\":13138:13158   */\n      tag_365\n        /* \"#utility.yul\":13156:13157   */\n      dup4\n        /* \"#utility.yul\":13138:13158   */\n      tag_323\n      jump\t// in\n    tag_365:\n        /* \"#utility.yul\":13133:13158   */\n      swap3\n      pop\n        /* \"#utility.yul\":13177:13178   */\n      dup3\n        /* \"#utility.yul\":13174:13175   */\n      dup3\n        /* \"#utility.yul\":13171:13179   */\n      lt\n        /* \"#utility.yul\":13168:13202   */\n      iszero\n      tag_366\n      jumpi\n        /* \"#utility.yul\":13182:13200   */\n      tag_367\n      tag_368\n      jump\t// in\n    tag_367:\n        /* \"#utility.yul\":13168:13202   */\n    tag_366:\n        /* \"#utility.yul\":13227:13228   */\n      dup3\n        /* \"#utility.yul\":13224:13225   */\n      dup3\n        /* \"#utility.yul\":13220:13229   */\n      sub\n        /* \"#utility.yul\":13212:13229   */\n      swap1\n      pop\n        /* \"#utility.yul\":13044:13235   */\n      swap3\n      swap2\n      pop\n      pop\n      jump\t// out\n        /* \"#utility.yul\":13241:13337   */\n    tag_263:\n        /* \"#utility.yul\":13278:13285   */\n      0x00\n        /* \"#utility.yul\":13307:13331   */\n      tag_370\n        /* \"#utility.yul\":13325:13330   */\n      dup3\n        /* \"#utility.yul\":13307:13331   */\n      tag_371\n      jump\t// in\n    tag_370:\n        /* \"#utility.yul\":13296:13331   */\n      swap1\n      pop\n        /* \"#utility.yul\":13241:13337   */\n      swap2\n      swap1\n      pop\n      jump\t// out\n        /* \"#utility.yul\":13343:13447   */\n    tag_259:\n        /* \"#utility.yul\":13388:13395   */\n      0x00\n        /* \"#utility.yul\":13417:13441   */\n      tag_373\n        /* \"#utility.yul\":13435:13440   */\n      dup3\n        /* \"#utility.yul\":13417:13441   */\n      tag_371\n      jump\t// in\n    tag_373:\n        /* \"#utility.yul\":13406:13441   */\n      swap1\n      pop\n        /* \"#utility.yul\":13343:13447   */\n      swap2\n      swap1\n      pop\n      jump\t// out\n        /* \"#utility.yul\":13453:13543   */\n    tag_281:\n        /* \"#utility.yul\":13487:13494   */\n      0x00\n        /* \"#utility.yul\":13530:13535   */\n      dup2\n        /* \"#utility.yul\":13523:13536   */\n      iszero\n        /* \"#utility.yul\":13516:13537   */\n      iszero\n        /* \"#utility.yul\":13505:13537   */\n      swap1\n      pop\n        /* \"#utility.yul\":13453:13543   */\n      swap2\n      swap1\n      pop\n      jump\t// out\n        /* \"#utility.yul\":13549:13675   */\n    tag_371:\n        /* \"#utility.yul\":13586:13593   */\n      0x00\n        /* \"#utility.yul\":13626:13668   */\n      0xffffffffffffffffffffffffffffffffffffffff\n        /* \"#utility.yul\":13619:13624   */\n      dup3\n        /* \"#utility.yul\":13615:13669   */\n      and\n        /* \"#utility.yul\":13604:13669   */\n      swap1\n      pop\n        /* \"#utility.yul\":13549:13675   */\n      swap2\n      swap1\n      pop\n      jump\t// out\n        /* \"#utility.yul\":13681:13758   */\n    tag_323:\n        /* \"#utility.yul\":13718:13725   */\n      0x00\n        /* \"#utility.yul\":13747:13752   */\n      dup2\n        /* \"#utility.yul\":13736:13752   */\n      swap1\n      pop\n        /* \"#utility.yul\":13681:13758   */\n      swap2\n      swap1\n      pop\n      jump\t// out\n        /* \"#utility.yul\":13764:13898   */\n    tag_255:\n        /* \"#utility.yul\":13822:13831   */\n      0x00\n        /* \"#utility.yul\":13855:13892   */\n      tag_378\n        /* \"#utility.yul\":13886:13891   */\n      dup3\n        /* \"#utility.yul\":13855:13892   */\n      tag_379\n      jump\t// in\n    tag_378:\n        /* \"#utility.yul\":13842:13892   */\n      swap1\n      pop\n        /* \"#utility.yul\":13764:13898   */\n      swap2\n      swap1\n      pop\n      jump\t// out\n        /* \"#utility.yul\":13904:14030   */\n    tag_379:\n        /* \"#utility.yul\":13954:13963   */\n      0x00\n        /* \"#utility.yul\":13987:14024   */\n      tag_381\n        /* \"#utility.yul\":14018:14023   */\n      dup3\n        /* \"#utility.yul\":13987:14024   */\n      tag_382\n      jump\t// in\n    tag_381:\n        /* \"#utility.yul\":13974:14024   */\n      swap1\n      pop\n        /* \"#utility.yul\":13904:14030   */\n      swap2\n      swap1\n      pop\n      jump\t// out\n        /* \"#utility.yul\":14036:14149   */\n    tag_382:\n        /* \"#utility.yul\":14086:14095   */\n      0x00\n        /* \"#utility.yul\":14119:14143   */\n      tag_384\n        /* \"#utility.yul\":14137:14142   */\n      dup3\n        /* \"#utility.yul\":14119:14143   */\n      tag_371\n      jump\t// in\n    tag_384:\n        /* \"#utility.yul\":14106:14143   */\n      swap1\n      pop\n        /* \"#utility.yul\":14036:14149   */\n      swap2\n      swap1\n      pop\n      jump\t// out\n        /* \"#utility.yul\":14155:14388   */\n    tag_90:\n        /* \"#utility.yul\":14194:14197   */\n      0x00\n        /* \"#utility.yul\":14217:14241   */\n      tag_386\n        /* \"#utility.yul\":14235:14240   */\n      dup3\n        /* \"#utility.yul\":14217:14241   */\n      tag_323\n      jump\t// in\n    tag_386:\n        /* \"#utility.yul\":14208:14241   */\n      swap2\n      pop\n        /* \"#utility.yul\":14263:14329   */\n      0xffffffffffffffffffffffffffffffffffffffffffffffffffffffffffffffff\n        /* \"#utility.yul\":14256:14261   */\n      dup3\n        /* \"#utility.yul\":14253:14330   */\n      eq\n        /* \"#utility.yul\":14250:14353   */\n      iszero\n      tag_387\n      jumpi\n        /* \"#utility.yul\":14333:14351   */\n      tag_388\n      tag_368\n      jump\t// in\n    tag_388:\n        /* \"#utility.yul\":14250:14353   */\n    tag_387:\n        /* \"#utility.yul\":14380:14381   */\n      0x01\n        /* \"#utility.yul\":14373:14378   */\n      dup3\n        /* \"#utility.yul\":14369:14382   */\n      add\n        /* \"#utility.yul\":14362:14382   */\n      swap1\n      pop\n        /* \"#utility.yul\":14155:14388   */\n      swap2\n      swap1\n      pop\n      jump\t// out\n        /* \"#utility.yul\":14394:14574   */\n    tag_368:\n        /* \"#utility.yul\":14442:14519   */\n      0x4e487b7100000000000000000000000000000000000000000000000000000000\n        /* \"#utility.yul\":14439:14440   */\n      0x00\n        /* \"#utility.yul\":14432:14520   */\n      mstore\n        /* \"#utility.yul\":14539:14543   */\n      0x11\n        /* \"#utility.yul\":14536:14537   */\n      0x04\n        /* \"#utility.yul\":14529:14544   */\n      mstore\n        /* \"#utility.yul\":14563:14567   */\n      0x24\n        /* \"#utility.yul\":14560:14561   */\n      0x00\n        /* \"#utility.yul\":14553:14568   */\n      revert\n        /* \"#utility.yul\":14580:14760   */\n    tag_106:\n        /* \"#utility.yul\":14628:14705   */\n      0x4e487b7100000000000000000000000000000000000000000000000000000000\n        /* \"#utility.yul\":14625:14626   */\n      0x00\n        /* \"#utility.yul\":14618:14706   */\n      mstore\n        /* \"#utility.yul\":14725:14729   */\n      0x32\n        /* \"#utility.yul\":14722:14723   */\n      0x04\n        /* \"#utility.yul\":14715:14730   */\n      mstore\n        /* \"#utility.yul\":14749:14753   */\n      0x24\n        /* \"#utility.yul\":14746:14747   */\n      0x00\n        /* \"#utility.yul\":14739:14754   */\n      revert\n        /* \"#utility.yul\":14766:14946   */\n    tag_94:\n        /* \"#utility.yul\":14814:14891   */\n      0x4e487b7100000000000000000000000000000000000000000000000000000000\n        /* \"#utility.yul\":14811:14812   */\n      0x00\n        /* \"#utility.yul\":14804:14892   */\n      mstore\n        /* \"#utility.yul\":14911:14915   */\n      0x41\n        /* \"#utility.yul\":14908:14909   */\n      0x04\n        /* \"#utility.yul\":14901:14916   */\n      mstore\n        /* \"#utility.yul\":14935:14939   */\n      0x24\n        /* \"#utility.yul\":14932:14933   */\n      0x00\n        /* \"#utility.yul\":14925:14940   */\n      revert\n        /* \"#utility.yul\":15075:15192   */\n    tag_235:\n        /* \"#utility.yul\":15184:15185   */\n      0x00\n        /* \"#utility.yul\":15181:15182   */\n      dup1\n        /* \"#utility.yul\":15174:15186   */\n      revert\n        /* \"#utility.yul\":15198:15361   */\n    tag_287:\n        /* \"#utility.yul\":15338:15353   */\n      0x4e4654206e6f7420666f756e6400000000000000000000000000000000000000\n        /* \"#utility.yul\":15334:15335   */\n      0x00\n        /* \"#utility.yul\":15326:15332   */\n      dup3\n        /* \"#utility.yul\":15322:15336   */\n      add\n        /* \"#utility.yul\":15315:15354   */\n      mstore\n        /* \"#utility.yul\":15198:15361   */\n      pop\n      jump\t// out\n        /* \"#utility.yul\":15367:15544   */\n    tag_292:\n        /* \"#utility.yul\":15507:15536   */\n      0x436f756e7465723a2064656372656d656e74206f766572666c6f770000000000\n        /* \"#utility.yul\":15503:15504   */\n      0x00\n        /* \"#utility.yul\":15495:15501   */\n      dup3\n        /* \"#utility.yul\":15491:15505   */\n      add\n        /* \"#utility.yul\":15484:15537   */\n      mstore\n        /* \"#utility.yul\":15367:15544   */\n      pop\n      jump\t// out\n        /* \"#utility.yul\":15550:15775   */\n    tag_297:\n        /* \"#utility.yul\":15690:15724   */\n      0x4e6f7420656e6f75676820657468657220746f20636f7665722061736b696e67\n        /* \"#utility.yul\":15686:15687   */\n      0x00\n        /* \"#utility.yul\":15678:15684   */\n      dup3\n        /* \"#utility.yul\":15674:15688   */\n      add\n        /* \"#utility.yul\":15667:15725   */\n      mstore\n        /* \"#utility.yul\":15759:15767   */\n      0x2070726963650000000000000000000000000000000000000000000000000000\n        /* \"#utility.yul\":15754:15756   */\n      0x20\n        /* \"#utility.yul\":15746:15752   */\n      dup3\n        /* \"#utility.yul\":15742:15757   */\n      add\n        /* \"#utility.yul\":15735:15768   */\n      mstore\n        /* \"#utility.yul\":15550:15775   */\n      pop\n      jump\t// out\n        /* \"#utility.yul\":15781:15963   */\n    tag_302:\n        /* \"#utility.yul\":15921:15955   */\n      0x4e6f7420656e6f75676820657468657220666f72206c697374696e6720666565\n        /* \"#utility.yul\":15917:15918   */\n      0x00\n        /* \"#utility.yul\":15909:15915   */\n      dup3\n        /* \"#utility.yul\":15905:15919   */\n      add\n        /* \"#utility.yul\":15898:15956   */\n      mstore\n        /* \"#utility.yul\":15781:15963   */\n      pop\n      jump\t// out\n        /* \"#utility.yul\":15969:16150   */\n    tag_307:\n        /* \"#utility.yul\":16109:16142   */\n      0x5265656e7472616e637947756172643a207265656e7472616e742063616c6c00\n        /* \"#utility.yul\":16105:16106   */\n      0x00\n        /* \"#utility.yul\":16097:16103   */\n      dup3\n        /* \"#utility.yul\":16093:16107   */\n      add\n        /* \"#utility.yul\":16086:16143   */\n      mstore\n        /* \"#utility.yul\":15969:16150   */\n      pop\n      jump\t// out\n        /* \"#utility.yul\":16156:16334   */\n    tag_312:\n        /* \"#utility.yul\":16296:16326   */\n      0x5072696365206d757374206265206174206c6561737420312077656900000000\n        /* \"#utility.yul\":16292:16293   */\n      0x00\n        /* \"#utility.yul\":16284:16290   */\n      dup3\n        /* \"#utility.yul\":16280:16294   */\n      add\n        /* \"#utility.yul\":16273:16327   */\n      mstore\n        /* \"#utility.yul\":16156:16334   */\n      pop\n      jump\t// out\n        /* \"#utility.yul\":16340:16462   */\n    tag_224:\n        /* \"#utility.yul\":16413:16437   */\n      tag_402\n        /* \"#utility.yul\":16431:16436   */\n      dup2\n        /* \"#utility.yul\":16413:16437   */\n      tag_263\n      jump\t// in\n    tag_402:\n        /* \"#utility.yul\":16406:16411   */\n      dup2\n        /* \"#utility.yul\":16403:16438   */\n      eq\n        /* \"#utility.yul\":16393:16456   */\n      tag_403\n      jumpi\n        /* \"#utility.yul\":16452:16453   */\n      0x00\n        /* \"#utility.yul\":16449:16450   */\n      dup1\n        /* \"#utility.yul\":16442:16454   */\n      revert\n        /* \"#utility.yul\":16393:16456   */\n    tag_403:\n        /* \"#utility.yul\":16340:16462   */\n      pop\n      jump\t// out\n        /* \"#utility.yul\":16468:16590   */\n    tag_231:\n        /* \"#utility.yul\":16541:16565   */\n      tag_405\n        /* \"#utility.yul\":16559:16564   */\n      dup2\n        /* \"#utility.yul\":16541:16565   */\n      tag_323\n      jump\t// in\n    tag_405:\n        /* \"#utility.yul\":16534:16539   */\n      dup2\n        /* \"#utility.yul\":16531:16566   */\n      eq\n        /* \"#utility.yul\":16521:16584   */\n      tag_406\n      jumpi\n        /* \"#utility.yul\":16580:16581   */\n      0x00\n        /* \"#utility.yul\":16577:16578   */\n      dup1\n        /* \"#utility.yul\":16570:16582   */\n      revert\n        /* \"#utility.yul\":16521:16584   */\n    tag_406:\n        /* \"#utility.yul\":16468:16590   */\n      pop\n      jump\t// out\n\n    auxdata: 0xa26469706673582212204b197d6678cb9bece77653c5e462ca2958ad9e42f4ad138aff158b80170e7f2964736f6c63430008070033\n}\n",
				"bytecode": {
					"linkReferences": {},
					"object": "608060405266071afd498d000060035534801561001b57600080fd5b50600160008190555033600460006101000a81548173ffffffffffffffffffffffffffffffffffffffff021916908373ffffffffffffffffffffffffffffffffffffffff1602179055506121e9806100746000396000f3fe6080604052600436106100915760003560e01c80638492095a116100595780638492095a146101615780638d6cb3fb1461018c578063a46b5c5a146101b7578063ad05f1b4146101e2578063b8fe6abe146101fe57610091565b806304935694146100965780631f4cc4db146100b25780632b86ae38146100dd5780632f634a90146101085780634ddf4f8f14610145575b600080fd5b6100b060048036038101906100ab9190611a61565b610229565b005b3480156100be57600080fd5b506100c7610546565b6040516100d49190611d83565b60405180910390f35b3480156100e957600080fd5b506100f26108b5565b6040516100ff9190611e65565b60405180910390f35b34801561011457600080fd5b5061012f600480360381019061012a9190611a21565b6108bb565b60405161013c9190611cd1565b60405180910390f35b61015f600480360381019061015a9190611a21565b61094e565b005b34801561016d57600080fd5b50610176610c71565b6040516101839190611d83565b60405180910390f35b34801561019857600080fd5b506101a1610f88565b6040516101ae9190611d83565b60405180910390f35b3480156101c357600080fd5b506101cc6111db565b6040516101d99190611d83565b60405180910390f35b6101fc60048036038101906101f79190611a61565b6114f2565b005b34801561020a57600080fd5b506102136118b1565b6040516102209190611e65565b60405180910390f35b6002600054141561026f576040517f08c379a000000000000000000000000000000000000000000000000000000000815260040161026690611e25565b60405180910390fd5b600260008190555080600081116102bb576040517f08c379a00000000000000000000000000000000000000000000000000000000081526004016102b290611e45565b60405180910390fd5b60035434146102ff576040517f08c379a00000000000000000000000000000000000000000000000000000000081526004016102f690611e05565b60405180910390fd5b6000600560008581526020019081526020016000209050600073ffffffffffffffffffffffffffffffffffffffff168160030160009054906101000a900473ffffffffffffffffffffffffffffffffffffffff1673ffffffffffffffffffffffffffffffffffffffff1614156103aa576040517f08c379a00000000000000000000000000000000000000000000000000000000081526004016103a190611da5565b60405180910390fd5b8473ffffffffffffffffffffffffffffffffffffffff166323b872dd3330876040518463ffffffff1660e01b81526004016103e793929190611d23565b600060405180830381600087803b15801561040157600080fd5b505af1158015610415573d6000803e3d6000fd5b50505050338160020160006101000a81548173ffffffffffffffffffffffffffffffffffffffff021916908373ffffffffffffffffffffffffffffffffffffffff160217905550308160030160006101000a81548173ffffffffffffffffffffffffffffffffffffffff021916908373ffffffffffffffffffffffffffffffffffffffff16021790555060018160040160146101000a81548160ff0219169083151502179055508281600101819055506104cf60016118bb565b3073ffffffffffffffffffffffffffffffffffffffff163373ffffffffffffffffffffffffffffffffffffffff16857fa0c6c0d02d86fdacecbaa5fdf5894bab204e31a778250474108540733a9b8d19888760405161052f929190611d5a565b60405180910390a450506001600081905550505050565b606060006105546002611917565b9050600080600190505b82811161061d573373ffffffffffffffffffffffffffffffffffffffff166005600083815260200190815260200160002060020160009054906101000a900473ffffffffffffffffffffffffffffffffffffffff1673ffffffffffffffffffffffffffffffffffffffff161480156105f657506005600082815260200190815260200160002060040160149054906101000a900460ff165b1561060a57818061060690611f8e565b9250505b808061061590611f8e565b91505061055e565b5060008167ffffffffffffffff81111561063a57610639612035565b5b60405190808252806020026020018201604052801561067357816020015b61066061193b565b8152602001906001900390816106585790505b509050600080600190505b8481116108aa573373ffffffffffffffffffffffffffffffffffffffff166005600083815260200190815260200160002060020160009054906101000a900473ffffffffffffffffffffffffffffffffffffffff1673ffffffffffffffffffffffffffffffffffffffff1614801561071657506005600082815260200190815260200160002060040160149054906101000a900460ff165b1561089757600560008281526020019081526020016000206040518060c001604052908160008201548152602001600182015481526020016002820160009054906101000a900473ffffffffffffffffffffffffffffffffffffffff1673ffffffffffffffffffffffffffffffffffffffff1673ffffffffffffffffffffffffffffffffffffffff1681526020016003820160009054906101000a900473ffffffffffffffffffffffffffffffffffffffff1673ffffffffffffffffffffffffffffffffffffffff1673ffffffffffffffffffffffffffffffffffffffff1681526020016004820160009054906101000a900473ffffffffffffffffffffffffffffffffffffffff1673ffffffffffffffffffffffffffffffffffffffff1673ffffffffffffffffffffffffffffffffffffffff1681526020016004820160149054906101000a900460ff16151515158152505083838151811061087d5761087c612006565b5b6020026020010181905250818061089390611f8e565b9250505b80806108a290611f8e565b91505061067e565b508194505050505090565b60035481565b60008273ffffffffffffffffffffffffffffffffffffffff16636352211e836040518263ffffffff1660e01b81526004016108f69190611e65565b60206040518083038186803b15801561090e57600080fd5b505afa158015610922573d6000803e3d6000fd5b505050506040513d601f19601f8201168201806040525081019061094691906119f4565b905092915050565b60026000541415610994576040517f08c379a000000000000000000000000000000000000000000000000000000000815260040161098b90611e25565b60405180910390fd5b60026000819055506000600560008381526020019081526020016000209050600073ffffffffffffffffffffffffffffffffffffffff168160030160009054906101000a900473ffffffffffffffffffffffffffffffffffffffff1673ffffffffffffffffffffffffffffffffffffffff161415610a47576040517f08c379a0000000000000000000000000000000000000000000000000000000008152600401610a3e90611da5565b60405180910390fd5b8060010154341015610a8e576040517f08c379a0000000000000000000000000000000000000000000000000000000008152600401610a8590611de5565b60405180910390fd5b60003390508160020160009054906101000a900473ffffffffffffffffffffffffffffffffffffffff1673ffffffffffffffffffffffffffffffffffffffff166108fc349081150290604051600060405180830381858888f19350505050158015610afd573d6000803e3d6000fd5b508373ffffffffffffffffffffffffffffffffffffffff166323b872dd3083866040518463ffffffff1660e01b8152600401610b3b93929190611cec565b600060405180830381600087803b158015610b5557600080fd5b505af1158015610b69573d6000803e3d6000fd5b50505050808260030160006101000a81548173ffffffffffffffffffffffffffffffffffffffff021916908373ffffffffffffffffffffffffffffffffffffffff16021790555060008260040160146101000a81548160ff021916908315150217905550610bd76001611925565b8073ffffffffffffffffffffffffffffffffffffffff168260020160009054906101000a900473ffffffffffffffffffffffffffffffffffffffff1673ffffffffffffffffffffffffffffffffffffffff16847f16f1dbd97e6bf646d429ed186cce832f1f7fd9907814293b83181e9970ab7bd28734604051610c5b929190611d5a565b60405180910390a4505060016000819055505050565b60606000610c7f6002611917565b9050600080600190505b828111610d1c573373ffffffffffffffffffffffffffffffffffffffff166005600083815260200190815260200160002060040160009054906101000a900473ffffffffffffffffffffffffffffffffffffffff1673ffffffffffffffffffffffffffffffffffffffff161415610d09578180610d0590611f8e565b9250505b8080610d1490611f8e565b915050610c89565b5060008167ffffffffffffffff811115610d3957610d38612035565b5b604051908082528060200260200182016040528015610d7257816020015b610d5f61193b565b815260200190600190039081610d575790505b509050600080600190505b848111610f7d573373ffffffffffffffffffffffffffffffffffffffff166005600083815260200190815260200160002060040160009054906101000a900473ffffffffffffffffffffffffffffffffffffffff1673ffffffffffffffffffffffffffffffffffffffff161415610f6a57600560008281526020019081526020016000206040518060c001604052908160008201548152602001600182015481526020016002820160009054906101000a900473ffffffffffffffffffffffffffffffffffffffff1673ffffffffffffffffffffffffffffffffffffffff1673ffffffffffffffffffffffffffffffffffffffff1681526020016003820160009054906101000a900473ffffffffffffffffffffffffffffffffffffffff1673ffffffffffffffffffffffffffffffffffffffff1673ffffffffffffffffffffffffffffffffffffffff1681526020016004820160009054906101000a900473ffffffffffffffffffffffffffffffffffffffff1673ffffffffffffffffffffffffffffffffffffffff1673ffffffffffffffffffffffffffffffffffffffff1681526020016004820160149054906101000a900460ff161515151581525050838381518110610f5057610f4f612006565b5b60200260200101819052508180610f6690611f8e565b9250505b8080610f7590611f8e565b915050610d7d565b508194505050505090565b60606000610f966002611917565b90506000610fa46001611917565b82610faf9190611eca565b905060008167ffffffffffffffff811115610fcd57610fcc612035565b5b60405190808252806020026020018201604052801561100657816020015b610ff361193b565b815260200190600190039081610feb5790505b509050600080600190505b8481116111d0576005600082815260200190815260200160002060040160149054906101000a900460ff16156111bd57600560008281526020019081526020016000206040518060c001604052908160008201548152602001600182015481526020016002820160009054906101000a900473ffffffffffffffffffffffffffffffffffffffff1673ffffffffffffffffffffffffffffffffffffffff1673ffffffffffffffffffffffffffffffffffffffff1681526020016003820160009054906101000a900473ffffffffffffffffffffffffffffffffffffffff1673ffffffffffffffffffffffffffffffffffffffff1673ffffffffffffffffffffffffffffffffffffffff1681526020016004820160009054906101000a900473ffffffffffffffffffffffffffffffffffffffff1673ffffffffffffffffffffffffffffffffffffffff1673ffffffffffffffffffffffffffffffffffffffff1681526020016004820160149054906101000a900460ff1615151515815250508383815181106111a3576111a2612006565b5b602002602001018190525081806111b990611f8e565b9250505b80806111c890611f8e565b915050611011565b508194505050505090565b606060006111e96002611917565b9050600080600190505b828111611286573373ffffffffffffffffffffffffffffffffffffffff166005600083815260200190815260200160002060030160009054906101000a900473ffffffffffffffffffffffffffffffffffffffff1673ffffffffffffffffffffffffffffffffffffffff16141561127357818061126f90611f8e565b9250505b808061127e90611f8e565b9150506111f3565b5060008167ffffffffffffffff8111156112a3576112a2612035565b5b6040519080825280602002602001820160405280156112dc57816020015b6112c961193b565b8152602001906001900390816112c15790505b509050600080600190505b8481116114e7573373ffffffffffffffffffffffffffffffffffffffff166005600083815260200190815260200160002060030160009054906101000a900473ffffffffffffffffffffffffffffffffffffffff1673ffffffffffffffffffffffffffffffffffffffff1614156114d457600560008281526020019081526020016000206040518060c001604052908160008201548152602001600182015481526020016002820160009054906101000a900473ffffffffffffffffffffffffffffffffffffffff1673ffffffffffffffffffffffffffffffffffffffff1673ffffffffffffffffffffffffffffffffffffffff1681526020016003820160009054906101000a900473ffffffffffffffffffffffffffffffffffffffff1673ffffffffffffffffffffffffffffffffffffffff1673ffffffffffffffffffffffffffffffffffffffff1681526020016004820160009054906101000a900473ffffffffffffffffffffffffffffffffffffffff1673ffffffffffffffffffffffffffffffffffffffff1673ffffffffffffffffffffffffffffffffffffffff1681526020016004820160149054906101000a900460ff1615151515815250508383815181106114ba576114b9612006565b5b602002602001018190525081806114d090611f8e565b9250505b80806114df90611f8e565b9150506112e7565b508194505050505090565b60026000541415611538576040517f08c379a000000000000000000000000000000000000000000000000000000000815260040161152f90611e25565b60405180910390fd5b60026000819055508060008111611584576040517f08c379a000000000000000000000000000000000000000000000000000000000815260040161157b90611e45565b60405180910390fd5b60035434146115c8576040517f08c379a00000000000000000000000000000000000000000000000000000000081526004016115bf90611e05565b60405180910390fd5b8373ffffffffffffffffffffffffffffffffffffffff166323b872dd3330866040518463ffffffff1660e01b815260040161160593929190611d23565b600060405180830381600087803b15801561161f57600080fd5b505af1158015611633573d6000803e3d6000fd5b505050506040518060c001604052808481526020018381526020013373ffffffffffffffffffffffffffffffffffffffff1681526020013073ffffffffffffffffffffffffffffffffffffffff1681526020013373ffffffffffffffffffffffffffffffffffffffff1681526020016001151581525060056000858152602001908152602001600020600082015181600001556020820151816001015560408201518160020160006101000a81548173ffffffffffffffffffffffffffffffffffffffff021916908373ffffffffffffffffffffffffffffffffffffffff16021790555060608201518160030160006101000a81548173ffffffffffffffffffffffffffffffffffffffff021916908373ffffffffffffffffffffffffffffffffffffffff16021790555060808201518160040160006101000a81548173ffffffffffffffffffffffffffffffffffffffff021916908373ffffffffffffffffffffffffffffffffffffffff16021790555060a08201518160040160146101000a81548160ff0219169083151502179055509050506117d26002611925565b600460009054906101000a900473ffffffffffffffffffffffffffffffffffffffff1673ffffffffffffffffffffffffffffffffffffffff166108fc349081150290604051600060405180830381858888f1935050505015801561183a573d6000803e3d6000fd5b503073ffffffffffffffffffffffffffffffffffffffff163373ffffffffffffffffffffffffffffffffffffffff16847fa0c6c0d02d86fdacecbaa5fdf5894bab204e31a778250474108540733a9b8d19878660405161189b929190611d5a565b60405180910390a4506001600081905550505050565b6000600354905090565b60008160000154905060008111611907576040517f08c379a00000000000000000000000000000000000000000000000000000000081526004016118fe90611dc5565b60405180910390fd5b6001810382600001819055505050565b600081600001549050919050565b6001816000016000828254019250508190555050565b6040518060c001604052806000815260200160008152602001600073ffffffffffffffffffffffffffffffffffffffff168152602001600073ffffffffffffffffffffffffffffffffffffffff168152602001600073ffffffffffffffffffffffffffffffffffffffff1681526020016000151581525090565b6000813590506119c481612185565b92915050565b6000815190506119d981612185565b92915050565b6000813590506119ee8161219c565b92915050565b600060208284031215611a0a57611a09612064565b5b6000611a18848285016119ca565b91505092915050565b60008060408385031215611a3857611a37612064565b5b6000611a46858286016119b5565b9250506020611a57858286016119df565b9150509250929050565b600080600060608486031215611a7a57611a79612064565b5b6000611a88868287016119b5565b9350506020611a99868287016119df565b9250506040611aaa868287016119df565b9150509250925092565b6000611ac08383611c38565b60c08301905092915050565b611ad581611f58565b82525050565b611ae481611f10565b82525050565b611af381611efe565b82525050565b6000611b0482611e90565b611b0e8185611ea8565b9350611b1983611e80565b8060005b83811015611b4a578151611b318882611ab4565b9750611b3c83611e9b565b925050600181019050611b1d565b5085935050505092915050565b611b6081611f22565b82525050565b6000611b73600d83611eb9565b9150611b7e82612069565b602082019050919050565b6000611b96601b83611eb9565b9150611ba182612092565b602082019050919050565b6000611bb9602683611eb9565b9150611bc4826120bb565b604082019050919050565b6000611bdc602083611eb9565b9150611be78261210a565b602082019050919050565b6000611bff601f83611eb9565b9150611c0a82612133565b602082019050919050565b6000611c22601c83611eb9565b9150611c2d8261215c565b602082019050919050565b60c082016000820151611c4e6000850182611cb3565b506020820151611c616020850182611cb3565b506040820151611c746040850182611adb565b506060820151611c876060850182611adb565b506080820151611c9a6080850182611adb565b5060a0820151611cad60a0850182611b57565b50505050565b611cbc81611f4e565b82525050565b611ccb81611f4e565b82525050565b6000602082019050611ce66000830184611aea565b92915050565b6000606082019050611d016000830186611aea565b611d0e6020830185611acc565b611d1b6040830184611cc2565b949350505050565b6000606082019050611d386000830186611aea565b611d456020830185611aea565b611d526040830184611cc2565b949350505050565b6000604082019050611d6f6000830185611aea565b611d7c6020830184611cc2565b9392505050565b60006020820190508181036000830152611d9d8184611af9565b905092915050565b60006020820190508181036000830152611dbe81611b66565b9050919050565b60006020820190508181036000830152611dde81611b89565b9050919050565b60006020820190508181036000830152611dfe81611bac565b9050919050565b60006020820190508181036000830152611e1e81611bcf565b9050919050565b60006020820190508181036000830152611e3e81611bf2565b9050919050565b60006020820190508181036000830152611e5e81611c15565b9050919050565b6000602082019050611e7a6000830184611cc2565b92915050565b6000819050602082019050919050565b600081519050919050565b6000602082019050919050565b600082825260208201905092915050565b600082825260208201905092915050565b6000611ed582611f4e565b9150611ee083611f4e565b925082821015611ef357611ef2611fd7565b5b828203905092915050565b6000611f0982611f2e565b9050919050565b6000611f1b82611f2e565b9050919050565b60008115159050919050565b600073ffffffffffffffffffffffffffffffffffffffff82169050919050565b6000819050919050565b6000611f6382611f6a565b9050919050565b6000611f7582611f7c565b9050919050565b6000611f8782611f2e565b9050919050565b6000611f9982611f4e565b91507fffffffffffffffffffffffffffffffffffffffffffffffffffffffffffffffff821415611fcc57611fcb611fd7565b5b600182019050919050565b7f4e487b7100000000000000000000000000000000000000000000000000000000600052601160045260246000fd5b7f4e487b7100000000000000000000000000000000000000000000000000000000600052603260045260246000fd5b7f4e487b7100000000000000000000000000000000000000000000000000000000600052604160045260246000fd5b600080fd5b7f4e4654206e6f7420666f756e6400000000000000000000000000000000000000600082015250565b7f436f756e7465723a2064656372656d656e74206f766572666c6f770000000000600082015250565b7f4e6f7420656e6f75676820657468657220746f20636f7665722061736b696e6760008201527f2070726963650000000000000000000000000000000000000000000000000000602082015250565b7f4e6f7420656e6f75676820657468657220666f72206c697374696e6720666565600082015250565b7f5265656e7472616e637947756172643a207265656e7472616e742063616c6c00600082015250565b7f5072696365206d757374206265206174206c6561737420312077656900000000600082015250565b61218e81611efe565b811461219957600080fd5b50565b6121a581611f4e565b81146121b057600080fd5b5056fea26469706673582212204b197d6678cb9bece77653c5e462ca2958ad9e42f4ad138aff158b80170e7f2964736f6c63430008070033",
					"opcodes": "PUSH1 0x80 PUSH1 0x40 MSTORE PUSH7 0x71AFD498D0000 PUSH1 0x3 SSTORE CALLVALUE DUP1 ISZERO PUSH2 0x1B JUMPI PUSH1 0x0 DUP1 REVERT JUMPDEST POP PUSH1 0x1 PUSH1 0x0 DUP2 SWAP1 SSTORE POP CALLER PUSH1 0x4 PUSH1 0x0 PUSH2 0x100 EXP DUP2 SLOAD DUP2 PUSH20 0xFFFFFFFFFFFFFFFFFFFFFFFFFFFFFFFFFFFFFFFF MUL NOT AND SWAP1 DUP4 PUSH20 0xFFFFFFFFFFFFFFFFFFFFFFFFFFFFFFFFFFFFFFFF AND MUL OR SWAP1 SSTORE POP PUSH2 0x21E9 DUP1 PUSH2 0x74 PUSH1 0x0 CODECOPY PUSH1 0x0 RETURN INVALID PUSH1 0x80 PUSH1 0x40 MSTORE PUSH1 0x4 CALLDATASIZE LT PUSH2 0x91 JUMPI PUSH1 0x0 CALLDATALOAD PUSH1 0xE0 SHR DUP1 PUSH4 0x8492095A GT PUSH2 0x59 JUMPI DUP1 PUSH4 0x8492095A EQ PUSH2 0x161 JUMPI DUP1 PUSH4 0x8D6CB3FB EQ PUSH2 0x18C JUMPI DUP1 PUSH4 0xA46B5C5A EQ PUSH2 0x1B7 JUMPI DUP1 PUSH4 0xAD05F1B4 EQ PUSH2 0x1E2 JUMPI DUP1 PUSH4 0xB8FE6ABE EQ PUSH2 0x1FE JUMPI PUSH2 0x91 JUMP JUMPDEST DUP1 PUSH4 0x4935694 EQ PUSH2 0x96 JUMPI DUP1 PUSH4 0x1F4CC4DB EQ PUSH2 0xB2 JUMPI DUP1 PUSH4 0x2B86AE38 EQ PUSH2 0xDD JUMPI DUP1 PUSH4 0x2F634A90 EQ PUSH2 0x108 JUMPI DUP1 PUSH4 0x4DDF4F8F EQ PUSH2 0x145 JUMPI JUMPDEST PUSH1 0x0 DUP1 REVERT JUMPDEST PUSH2 0xB0 PUSH1 0x4 DUP1 CALLDATASIZE SUB DUP2 ADD SWAP1 PUSH2 0xAB SWAP2 SWAP1 PUSH2 0x1A61 JUMP JUMPDEST PUSH2 0x229 JUMP JUMPDEST STOP JUMPDEST CALLVALUE DUP1 ISZERO PUSH2 0xBE JUMPI PUSH1 0x0 DUP1 REVERT JUMPDEST POP PUSH2 0xC7 PUSH2 0x546 JUMP JUMPDEST PUSH1 0x40 MLOAD PUSH2 0xD4 SWAP2 SWAP1 PUSH2 0x1D83 JUMP JUMPDEST PUSH1 0x40 MLOAD DUP1 SWAP2 SUB SWAP1 RETURN JUMPDEST CALLVALUE DUP1 ISZERO PUSH2 0xE9 JUMPI PUSH1 0x0 DUP1 REVERT JUMPDEST POP PUSH2 0xF2 PUSH2 0x8B5 JUMP JUMPDEST PUSH1 0x40 MLOAD PUSH2 0xFF SWAP2 SWAP1 PUSH2 0x1E65 JUMP JUMPDEST PUSH1 0x40 MLOAD DUP1 SWAP2 SUB SWAP1 RETURN JUMPDEST CALLVALUE DUP1 ISZERO PUSH2 0x114 JUMPI PUSH1 0x0 DUP1 REVERT JUMPDEST POP PUSH2 0x12F PUSH1 0x4 DUP1 CALLDATASIZE SUB DUP2 ADD SWAP1 PUSH2 0x12A SWAP2 SWAP1 PUSH2 0x1A21 JUMP JUMPDEST PUSH2 0x8BB JUMP JUMPDEST PUSH1 0x40 MLOAD PUSH2 0x13C SWAP2 SWAP1 PUSH2 0x1CD1 JUMP JUMPDEST PUSH1 0x40 MLOAD DUP1 SWAP2 SUB SWAP1 RETURN JUMPDEST PUSH2 0x15F PUSH1 0x4 DUP1 CALLDATASIZE SUB DUP2 ADD SWAP1 PUSH2 0x15A SWAP2 SWAP1 PUSH2 0x1A21 JUMP JUMPDEST PUSH2 0x94E JUMP JUMPDEST STOP JUMPDEST CALLVALUE DUP1 ISZERO PUSH2 0x16D JUMPI PUSH1 0x0 DUP1 REVERT JUMPDEST POP PUSH2 0x176 PUSH2 0xC71 JUMP JUMPDEST PUSH1 0x40 MLOAD PUSH2 0x183 SWAP2 SWAP1 PUSH2 0x1D83 JUMP JUMPDEST PUSH1 0x40 MLOAD DUP1 SWAP2 SUB SWAP1 RETURN JUMPDEST CALLVALUE DUP1 ISZERO PUSH2 0x198 JUMPI PUSH1 0x0 DUP1 REVERT JUMPDEST POP PUSH2 0x1A1 PUSH2 0xF88 JUMP JUMPDEST PUSH1 0x40 MLOAD PUSH2 0x1AE SWAP2 SWAP1 PUSH2 0x1D83 JUMP JUMPDEST PUSH1 0x40 MLOAD DUP1 SWAP2 SUB SWAP1 RETURN JUMPDEST CALLVALUE DUP1 ISZERO PUSH2 0x1C3 JUMPI PUSH1 0x0 DUP1 REVERT JUMPDEST POP PUSH2 0x1CC PUSH2 0x11DB JUMP JUMPDEST PUSH1 0x40 MLOAD PUSH2 0x1D9 SWAP2 SWAP1 PUSH2 0x1D83 JUMP JUMPDEST PUSH1 0x40 MLOAD DUP1 SWAP2 SUB SWAP1 RETURN JUMPDEST PUSH2 0x1FC PUSH1 0x4 DUP1 CALLDATASIZE SUB DUP2 ADD SWAP1 PUSH2 0x1F7 SWAP2 SWAP1 PUSH2 0x1A61 JUMP JUMPDEST PUSH2 0x14F2 JUMP JUMPDEST STOP JUMPDEST CALLVALUE DUP1 ISZERO PUSH2 0x20A JUMPI PUSH1 0x0 DUP1 REVERT JUMPDEST POP PUSH2 0x213 PUSH2 0x18B1 JUMP JUMPDEST PUSH1 0x40 MLOAD PUSH2 0x220 SWAP2 SWAP1 PUSH2 0x1E65 JUMP JUMPDEST PUSH1 0x40 MLOAD DUP1 SWAP2 SUB SWAP1 RETURN JUMPDEST PUSH1 0x2 PUSH1 0x0 SLOAD EQ ISZERO PUSH2 0x26F JUMPI PUSH1 0x40 MLOAD PUSH32 0x8C379A000000000000000000000000000000000000000000000000000000000 DUP2 MSTORE PUSH1 0x4 ADD PUSH2 0x266 SWAP1 PUSH2 0x1E25 JUMP JUMPDEST PUSH1 0x40 MLOAD DUP1 SWAP2 SUB SWAP1 REVERT JUMPDEST PUSH1 0x2 PUSH1 0x0 DUP2 SWAP1 SSTORE POP DUP1 PUSH1 0x0 DUP2 GT PUSH2 0x2BB JUMPI PUSH1 0x40 MLOAD PUSH32 0x8C379A000000000000000000000000000000000000000000000000000000000 DUP2 MSTORE PUSH1 0x4 ADD PUSH2 0x2B2 SWAP1 PUSH2 0x1E45 JUMP JUMPDEST PUSH1 0x40 MLOAD DUP1 SWAP2 SUB SWAP1 REVERT JUMPDEST PUSH1 0x3 SLOAD CALLVALUE EQ PUSH2 0x2FF JUMPI PUSH1 0x40 MLOAD PUSH32 0x8C379A000000000000000000000000000000000000000000000000000000000 DUP2 MSTORE PUSH1 0x4 ADD PUSH2 0x2F6 SWAP1 PUSH2 0x1E05 JUMP JUMPDEST PUSH1 0x40 MLOAD DUP1 SWAP2 SUB SWAP1 REVERT JUMPDEST PUSH1 0x0 PUSH1 0x5 PUSH1 0x0 DUP6 DUP2 MSTORE PUSH1 0x20 ADD SWAP1 DUP2 MSTORE PUSH1 0x20 ADD PUSH1 0x0 KECCAK256 SWAP1 POP PUSH1 0x0 PUSH20 0xFFFFFFFFFFFFFFFFFFFFFFFFFFFFFFFFFFFFFFFF AND DUP2 PUSH1 0x3 ADD PUSH1 0x0 SWAP1 SLOAD SWAP1 PUSH2 0x100 EXP SWAP1 DIV PUSH20 0xFFFFFFFFFFFFFFFFFFFFFFFFFFFFFFFFFFFFFFFF AND PUSH20 0xFFFFFFFFFFFFFFFFFFFFFFFFFFFFFFFFFFFFFFFF AND EQ ISZERO PUSH2 0x3AA JUMPI PUSH1 0x40 MLOAD PUSH32 0x8C379A000000000000000000000000000000000000000000000000000000000 DUP2 MSTORE PUSH1 0x4 ADD PUSH2 0x3A1 SWAP1 PUSH2 0x1DA5 JUMP JUMPDEST PUSH1 0x40 MLOAD DUP1 SWAP2 SUB SWAP1 REVERT JUMPDEST DUP5 PUSH20 0xFFFFFFFFFFFFFFFFFFFFFFFFFFFFFFFFFFFFFFFF AND PUSH4 0x23B872DD CALLER ADDRESS DUP8 PUSH1 0x40 MLOAD DUP5 PUSH4 0xFFFFFFFF AND PUSH1 0xE0 SHL DUP2 MSTORE PUSH1 0x4 ADD PUSH2 0x3E7 SWAP4 SWAP3 SWAP2 SWAP1 PUSH2 0x1D23 JUMP JUMPDEST PUSH1 0x0 PUSH1 0x40 MLOAD DUP1 DUP4 SUB DUP2 PUSH1 0x0 DUP8 DUP1 EXTCODESIZE ISZERO DUP1 ISZERO PUSH2 0x401 JUMPI PUSH1 0x0 DUP1 REVERT JUMPDEST POP GAS CALL ISZERO DUP1 ISZERO PUSH2 0x415 JUMPI RETURNDATASIZE PUSH1 0x0 DUP1 RETURNDATACOPY RETURNDATASIZE PUSH1 0x0 REVERT JUMPDEST POP POP POP POP CALLER DUP2 PUSH1 0x2 ADD PUSH1 0x0 PUSH2 0x100 EXP DUP2 SLOAD DUP2 PUSH20 0xFFFFFFFFFFFFFFFFFFFFFFFFFFFFFFFFFFFFFFFF MUL NOT AND SWAP1 DUP4 PUSH20 0xFFFFFFFFFFFFFFFFFFFFFFFFFFFFFFFFFFFFFFFF AND MUL OR SWAP1 SSTORE POP ADDRESS DUP2 PUSH1 0x3 ADD PUSH1 0x0 PUSH2 0x100 EXP DUP2 SLOAD DUP2 PUSH20 0xFFFFFFFFFFFFFFFFFFFFFFFFFFFFFFFFFFFFFFFF MUL NOT AND SWAP1 DUP4 PUSH20 0xFFFFFFFFFFFFFFFFFFFFFFFFFFFFFFFFFFFFFFFF AND MUL OR SWAP1 SSTORE POP PUSH1 0x1 DUP2 PUSH1 0x4 ADD PUSH1 0x14 PUSH2 0x100 EXP DUP2 SLOAD DUP2 PUSH1 0xFF MUL NOT AND SWAP1 DUP4 ISZERO ISZERO MUL OR SWAP1 SSTORE POP DUP3 DUP2 PUSH1 0x1 ADD DUP2 SWAP1 SSTORE POP PUSH2 0x4CF PUSH1 0x1 PUSH2 0x18BB JUMP JUMPDEST ADDRESS PUSH20 0xFFFFFFFFFFFFFFFFFFFFFFFFFFFFFFFFFFFFFFFF AND CALLER PUSH20 0xFFFFFFFFFFFFFFFFFFFFFFFFFFFFFFFFFFFFFFFF AND DUP6 PUSH32 0xA0C6C0D02D86FDACECBAA5FDF5894BAB204E31A778250474108540733A9B8D19 DUP9 DUP8 PUSH1 0x40 MLOAD PUSH2 0x52F SWAP3 SWAP2 SWAP1 PUSH2 0x1D5A JUMP JUMPDEST PUSH1 0x40 MLOAD DUP1 SWAP2 SUB SWAP1 LOG4 POP POP PUSH1 0x1 PUSH1 0x0 DUP2 SWAP1 SSTORE POP POP POP POP JUMP JUMPDEST PUSH1 0x60 PUSH1 0x0 PUSH2 0x554 PUSH1 0x2 PUSH2 0x1917 JUMP JUMPDEST SWAP1 POP PUSH1 0x0 DUP1 PUSH1 0x1 SWAP1 POP JUMPDEST DUP3 DUP2 GT PUSH2 0x61D JUMPI CALLER PUSH20 0xFFFFFFFFFFFFFFFFFFFFFFFFFFFFFFFFFFFFFFFF AND PUSH1 0x5 PUSH1 0x0 DUP4 DUP2 MSTORE PUSH1 0x20 ADD SWAP1 DUP2 MSTORE PUSH1 0x20 ADD PUSH1 0x0 KECCAK256 PUSH1 0x2 ADD PUSH1 0x0 SWAP1 SLOAD SWAP1 PUSH2 0x100 EXP SWAP1 DIV PUSH20 0xFFFFFFFFFFFFFFFFFFFFFFFFFFFFFFFFFFFFFFFF AND PUSH20 0xFFFFFFFFFFFFFFFFFFFFFFFFFFFFFFFFFFFFFFFF AND EQ DUP1 ISZERO PUSH2 0x5F6 JUMPI POP PUSH1 0x5 PUSH1 0x0 DUP3 DUP2 MSTORE PUSH1 0x20 ADD SWAP1 DUP2 MSTORE PUSH1 0x20 ADD PUSH1 0x0 KECCAK256 PUSH1 0x4 ADD PUSH1 0x14 SWAP1 SLOAD SWAP1 PUSH2 0x100 EXP SWAP1 DIV PUSH1 0xFF AND JUMPDEST ISZERO PUSH2 0x60A JUMPI DUP2 DUP1 PUSH2 0x606 SWAP1 PUSH2 0x1F8E JUMP JUMPDEST SWAP3 POP POP JUMPDEST DUP1 DUP1 PUSH2 0x615 SWAP1 PUSH2 0x1F8E JUMP JUMPDEST SWAP2 POP POP PUSH2 0x55E JUMP JUMPDEST POP PUSH1 0x0 DUP2 PUSH8 0xFFFFFFFFFFFFFFFF DUP2 GT ISZERO PUSH2 0x63A JUMPI PUSH2 0x639 PUSH2 0x2035 JUMP JUMPDEST JUMPDEST PUSH1 0x40 MLOAD SWAP1 DUP1 DUP3 MSTORE DUP1 PUSH1 0x20 MUL PUSH1 0x20 ADD DUP3 ADD PUSH1 0x40 MSTORE DUP1 ISZERO PUSH2 0x673 JUMPI DUP2 PUSH1 0x20 ADD JUMPDEST PUSH2 0x660 PUSH2 0x193B JUMP JUMPDEST DUP2 MSTORE PUSH1 0x20 ADD SWAP1 PUSH1 0x1 SWAP1 SUB SWAP1 DUP2 PUSH2 0x658 JUMPI SWAP1 POP JUMPDEST POP SWAP1 POP PUSH1 0x0 DUP1 PUSH1 0x1 SWAP1 POP JUMPDEST DUP5 DUP2 GT PUSH2 0x8AA JUMPI CALLER PUSH20 0xFFFFFFFFFFFFFFFFFFFFFFFFFFFFFFFFFFFFFFFF AND PUSH1 0x5 PUSH1 0x0 DUP4 DUP2 MSTORE PUSH1 0x20 ADD SWAP1 DUP2 MSTORE PUSH1 0x20 ADD PUSH1 0x0 KECCAK256 PUSH1 0x2 ADD PUSH1 0x0 SWAP1 SLOAD SWAP1 PUSH2 0x100 EXP SWAP1 DIV PUSH20 0xFFFFFFFFFFFFFFFFFFFFFFFFFFFFFFFFFFFFFFFF AND PUSH20 0xFFFFFFFFFFFFFFFFFFFFFFFFFFFFFFFFFFFFFFFF AND EQ DUP1 ISZERO PUSH2 0x716 JUMPI POP PUSH1 0x5 PUSH1 0x0 DUP3 DUP2 MSTORE PUSH1 0x20 ADD SWAP1 DUP2 MSTORE PUSH1 0x20 ADD PUSH1 0x0 KECCAK256 PUSH1 0x4 ADD PUSH1 0x14 SWAP1 SLOAD SWAP1 PUSH2 0x100 EXP SWAP1 DIV PUSH1 0xFF AND JUMPDEST ISZERO PUSH2 0x897 JUMPI PUSH1 0x5 PUSH1 0x0 DUP3 DUP2 MSTORE PUSH1 0x20 ADD SWAP1 DUP2 MSTORE PUSH1 0x20 ADD PUSH1 0x0 KECCAK256 PUSH1 0x40 MLOAD DUP1 PUSH1 0xC0 ADD PUSH1 0x40 MSTORE SWAP1 DUP2 PUSH1 0x0 DUP3 ADD SLOAD DUP2 MSTORE PUSH1 0x20 ADD PUSH1 0x1 DUP3 ADD SLOAD DUP2 MSTORE PUSH1 0x20 ADD PUSH1 0x2 DUP3 ADD PUSH1 0x0 SWAP1 SLOAD SWAP1 PUSH2 0x100 EXP SWAP1 DIV PUSH20 0xFFFFFFFFFFFFFFFFFFFFFFFFFFFFFFFFFFFFFFFF AND PUSH20 0xFFFFFFFFFFFFFFFFFFFFFFFFFFFFFFFFFFFFFFFF AND PUSH20 0xFFFFFFFFFFFFFFFFFFFFFFFFFFFFFFFFFFFFFFFF AND DUP2 MSTORE PUSH1 0x20 ADD PUSH1 0x3 DUP3 ADD PUSH1 0x0 SWAP1 SLOAD SWAP1 PUSH2 0x100 EXP SWAP1 DIV PUSH20 0xFFFFFFFFFFFFFFFFFFFFFFFFFFFFFFFFFFFFFFFF AND PUSH20 0xFFFFFFFFFFFFFFFFFFFFFFFFFFFFFFFFFFFFFFFF AND PUSH20 0xFFFFFFFFFFFFFFFFFFFFFFFFFFFFFFFFFFFFFFFF AND DUP2 MSTORE PUSH1 0x20 ADD PUSH1 0x4 DUP3 ADD PUSH1 0x0 SWAP1 SLOAD SWAP1 PUSH2 0x100 EXP SWAP1 DIV PUSH20 0xFFFFFFFFFFFFFFFFFFFFFFFFFFFFFFFFFFFFFFFF AND PUSH20 0xFFFFFFFFFFFFFFFFFFFFFFFFFFFFFFFFFFFFFFFF AND PUSH20 0xFFFFFFFFFFFFFFFFFFFFFFFFFFFFFFFFFFFFFFFF AND DUP2 MSTORE PUSH1 0x20 ADD PUSH1 0x4 DUP3 ADD PUSH1 0x14 SWAP1 SLOAD SWAP1 PUSH2 0x100 EXP SWAP1 DIV PUSH1 0xFF AND ISZERO ISZERO ISZERO ISZERO DUP2 MSTORE POP POP DUP4 DUP4 DUP2 MLOAD DUP2 LT PUSH2 0x87D JUMPI PUSH2 0x87C PUSH2 0x2006 JUMP JUMPDEST JUMPDEST PUSH1 0x20 MUL PUSH1 0x20 ADD ADD DUP2 SWAP1 MSTORE POP DUP2 DUP1 PUSH2 0x893 SWAP1 PUSH2 0x1F8E JUMP JUMPDEST SWAP3 POP POP JUMPDEST DUP1 DUP1 PUSH2 0x8A2 SWAP1 PUSH2 0x1F8E JUMP JUMPDEST SWAP2 POP POP PUSH2 0x67E JUMP JUMPDEST POP DUP2 SWAP5 POP POP POP POP POP SWAP1 JUMP JUMPDEST PUSH1 0x3 SLOAD DUP2 JUMP JUMPDEST PUSH1 0x0 DUP3 PUSH20 0xFFFFFFFFFFFFFFFFFFFFFFFFFFFFFFFFFFFFFFFF AND PUSH4 0x6352211E DUP4 PUSH1 0x40 MLOAD DUP3 PUSH4 0xFFFFFFFF AND PUSH1 0xE0 SHL DUP2 MSTORE PUSH1 0x4 ADD PUSH2 0x8F6 SWAP2 SWAP1 PUSH2 0x1E65 JUMP JUMPDEST PUSH1 0x20 PUSH1 0x40 MLOAD DUP1 DUP4 SUB DUP2 DUP7 DUP1 EXTCODESIZE ISZERO DUP1 ISZERO PUSH2 0x90E JUMPI PUSH1 0x0 DUP1 REVERT JUMPDEST POP GAS STATICCALL ISZERO DUP1 ISZERO PUSH2 0x922 JUMPI RETURNDATASIZE PUSH1 0x0 DUP1 RETURNDATACOPY RETURNDATASIZE PUSH1 0x0 REVERT JUMPDEST POP POP POP POP PUSH1 0x40 MLOAD RETURNDATASIZE PUSH1 0x1F NOT PUSH1 0x1F DUP3 ADD AND DUP3 ADD DUP1 PUSH1 0x40 MSTORE POP DUP2 ADD SWAP1 PUSH2 0x946 SWAP2 SWAP1 PUSH2 0x19F4 JUMP JUMPDEST SWAP1 POP SWAP3 SWAP2 POP POP JUMP JUMPDEST PUSH1 0x2 PUSH1 0x0 SLOAD EQ ISZERO PUSH2 0x994 JUMPI PUSH1 0x40 MLOAD PUSH32 0x8C379A000000000000000000000000000000000000000000000000000000000 DUP2 MSTORE PUSH1 0x4 ADD PUSH2 0x98B SWAP1 PUSH2 0x1E25 JUMP JUMPDEST PUSH1 0x40 MLOAD DUP1 SWAP2 SUB SWAP1 REVERT JUMPDEST PUSH1 0x2 PUSH1 0x0 DUP2 SWAP1 SSTORE POP PUSH1 0x0 PUSH1 0x5 PUSH1 0x0 DUP4 DUP2 MSTORE PUSH1 0x20 ADD SWAP1 DUP2 MSTORE PUSH1 0x20 ADD PUSH1 0x0 KECCAK256 SWAP1 POP PUSH1 0x0 PUSH20 0xFFFFFFFFFFFFFFFFFFFFFFFFFFFFFFFFFFFFFFFF AND DUP2 PUSH1 0x3 ADD PUSH1 0x0 SWAP1 SLOAD SWAP1 PUSH2 0x100 EXP SWAP1 DIV PUSH20 0xFFFFFFFFFFFFFFFFFFFFFFFFFFFFFFFFFFFFFFFF AND PUSH20 0xFFFFFFFFFFFFFFFFFFFFFFFFFFFFFFFFFFFFFFFF AND EQ ISZERO PUSH2 0xA47 JUMPI PUSH1 0x40 MLOAD PUSH32 0x8C379A000000000000000000000000000000000000000000000000000000000 DUP2 MSTORE PUSH1 0x4 ADD PUSH2 0xA3E SWAP1 PUSH2 0x1DA5 JUMP JUMPDEST PUSH1 0x40 MLOAD DUP1 SWAP2 SUB SWAP1 REVERT JUMPDEST DUP1 PUSH1 0x1 ADD SLOAD CALLVALUE LT ISZERO PUSH2 0xA8E JUMPI PUSH1 0x40 MLOAD PUSH32 0x8C379A000000000000000000000000000000000000000000000000000000000 DUP2 MSTORE PUSH1 0x4 ADD PUSH2 0xA85 SWAP1 PUSH2 0x1DE5 JUMP JUMPDEST PUSH1 0x40 MLOAD DUP1 SWAP2 SUB SWAP1 REVERT JUMPDEST PUSH1 0x0 CALLER SWAP1 POP DUP2 PUSH1 0x2 ADD PUSH1 0x0 SWAP1 SLOAD SWAP1 PUSH2 0x100 EXP SWAP1 DIV PUSH20 0xFFFFFFFFFFFFFFFFFFFFFFFFFFFFFFFFFFFFFFFF AND PUSH20 0xFFFFFFFFFFFFFFFFFFFFFFFFFFFFFFFFFFFFFFFF AND PUSH2 0x8FC CALLVALUE SWAP1 DUP2 ISZERO MUL SWAP1 PUSH1 0x40 MLOAD PUSH1 0x0 PUSH1 0x40 MLOAD DUP1 DUP4 SUB DUP2 DUP6 DUP9 DUP9 CALL SWAP4 POP POP POP POP ISZERO DUP1 ISZERO PUSH2 0xAFD JUMPI RETURNDATASIZE PUSH1 0x0 DUP1 RETURNDATACOPY RETURNDATASIZE PUSH1 0x0 REVERT JUMPDEST POP DUP4 PUSH20 0xFFFFFFFFFFFFFFFFFFFFFFFFFFFFFFFFFFFFFFFF AND PUSH4 0x23B872DD ADDRESS DUP4 DUP7 PUSH1 0x40 MLOAD DUP5 PUSH4 0xFFFFFFFF AND PUSH1 0xE0 SHL DUP2 MSTORE PUSH1 0x4 ADD PUSH2 0xB3B SWAP4 SWAP3 SWAP2 SWAP1 PUSH2 0x1CEC JUMP JUMPDEST PUSH1 0x0 PUSH1 0x40 MLOAD DUP1 DUP4 SUB DUP2 PUSH1 0x0 DUP8 DUP1 EXTCODESIZE ISZERO DUP1 ISZERO PUSH2 0xB55 JUMPI PUSH1 0x0 DUP1 REVERT JUMPDEST POP GAS CALL ISZERO DUP1 ISZERO PUSH2 0xB69 JUMPI RETURNDATASIZE PUSH1 0x0 DUP1 RETURNDATACOPY RETURNDATASIZE PUSH1 0x0 REVERT JUMPDEST POP POP POP POP DUP1 DUP3 PUSH1 0x3 ADD PUSH1 0x0 PUSH2 0x100 EXP DUP2 SLOAD DUP2 PUSH20 0xFFFFFFFFFFFFFFFFFFFFFFFFFFFFFFFFFFFFFFFF MUL NOT AND SWAP1 DUP4 PUSH20 0xFFFFFFFFFFFFFFFFFFFFFFFFFFFFFFFFFFFFFFFF AND MUL OR SWAP1 SSTORE POP PUSH1 0x0 DUP3 PUSH1 0x4 ADD PUSH1 0x14 PUSH2 0x100 EXP DUP2 SLOAD DUP2 PUSH1 0xFF MUL NOT AND SWAP1 DUP4 ISZERO ISZERO MUL OR SWAP1 SSTORE POP PUSH2 0xBD7 PUSH1 0x1 PUSH2 0x1925 JUMP JUMPDEST DUP1 PUSH20 0xFFFFFFFFFFFFFFFFFFFFFFFFFFFFFFFFFFFFFFFF AND DUP3 PUSH1 0x2 ADD PUSH1 0x0 SWAP1 SLOAD SWAP1 PUSH2 0x100 EXP SWAP1 DIV PUSH20 0xFFFFFFFFFFFFFFFFFFFFFFFFFFFFFFFFFFFFFFFF AND PUSH20 0xFFFFFFFFFFFFFFFFFFFFFFFFFFFFFFFFFFFFFFFF AND DUP5 PUSH32 0x16F1DBD97E6BF646D429ED186CCE832F1F7FD9907814293B83181E9970AB7BD2 DUP8 CALLVALUE PUSH1 0x40 MLOAD PUSH2 0xC5B SWAP3 SWAP2 SWAP1 PUSH2 0x1D5A JUMP JUMPDEST PUSH1 0x40 MLOAD DUP1 SWAP2 SUB SWAP1 LOG4 POP POP PUSH1 0x1 PUSH1 0x0 DUP2 SWAP1 SSTORE POP POP POP JUMP JUMPDEST PUSH1 0x60 PUSH1 0x0 PUSH2 0xC7F PUSH1 0x2 PUSH2 0x1917 JUMP JUMPDEST SWAP1 POP PUSH1 0x0 DUP1 PUSH1 0x1 SWAP1 POP JUMPDEST DUP3 DUP2 GT PUSH2 0xD1C JUMPI CALLER PUSH20 0xFFFFFFFFFFFFFFFFFFFFFFFFFFFFFFFFFFFFFFFF AND PUSH1 0x5 PUSH1 0x0 DUP4 DUP2 MSTORE PUSH1 0x20 ADD SWAP1 DUP2 MSTORE PUSH1 0x20 ADD PUSH1 0x0 KECCAK256 PUSH1 0x4 ADD PUSH1 0x0 SWAP1 SLOAD SWAP1 PUSH2 0x100 EXP SWAP1 DIV PUSH20 0xFFFFFFFFFFFFFFFFFFFFFFFFFFFFFFFFFFFFFFFF AND PUSH20 0xFFFFFFFFFFFFFFFFFFFFFFFFFFFFFFFFFFFFFFFF AND EQ ISZERO PUSH2 0xD09 JUMPI DUP2 DUP1 PUSH2 0xD05 SWAP1 PUSH2 0x1F8E JUMP JUMPDEST SWAP3 POP POP JUMPDEST DUP1 DUP1 PUSH2 0xD14 SWAP1 PUSH2 0x1F8E JUMP JUMPDEST SWAP2 POP POP PUSH2 0xC89 JUMP JUMPDEST POP PUSH1 0x0 DUP2 PUSH8 0xFFFFFFFFFFFFFFFF DUP2 GT ISZERO PUSH2 0xD39 JUMPI PUSH2 0xD38 PUSH2 0x2035 JUMP JUMPDEST JUMPDEST PUSH1 0x40 MLOAD SWAP1 DUP1 DUP3 MSTORE DUP1 PUSH1 0x20 MUL PUSH1 0x20 ADD DUP3 ADD PUSH1 0x40 MSTORE DUP1 ISZERO PUSH2 0xD72 JUMPI DUP2 PUSH1 0x20 ADD JUMPDEST PUSH2 0xD5F PUSH2 0x193B JUMP JUMPDEST DUP2 MSTORE PUSH1 0x20 ADD SWAP1 PUSH1 0x1 SWAP1 SUB SWAP1 DUP2 PUSH2 0xD57 JUMPI SWAP1 POP JUMPDEST POP SWAP1 POP PUSH1 0x0 DUP1 PUSH1 0x1 SWAP1 POP JUMPDEST DUP5 DUP2 GT PUSH2 0xF7D JUMPI CALLER PUSH20 0xFFFFFFFFFFFFFFFFFFFFFFFFFFFFFFFFFFFFFFFF AND PUSH1 0x5 PUSH1 0x0 DUP4 DUP2 MSTORE PUSH1 0x20 ADD SWAP1 DUP2 MSTORE PUSH1 0x20 ADD PUSH1 0x0 KECCAK256 PUSH1 0x4 ADD PUSH1 0x0 SWAP1 SLOAD SWAP1 PUSH2 0x100 EXP SWAP1 DIV PUSH20 0xFFFFFFFFFFFFFFFFFFFFFFFFFFFFFFFFFFFFFFFF AND PUSH20 0xFFFFFFFFFFFFFFFFFFFFFFFFFFFFFFFFFFFFFFFF AND EQ ISZERO PUSH2 0xF6A JUMPI PUSH1 0x5 PUSH1 0x0 DUP3 DUP2 MSTORE PUSH1 0x20 ADD SWAP1 DUP2 MSTORE PUSH1 0x20 ADD PUSH1 0x0 KECCAK256 PUSH1 0x40 MLOAD DUP1 PUSH1 0xC0 ADD PUSH1 0x40 MSTORE SWAP1 DUP2 PUSH1 0x0 DUP3 ADD SLOAD DUP2 MSTORE PUSH1 0x20 ADD PUSH1 0x1 DUP3 ADD SLOAD DUP2 MSTORE PUSH1 0x20 ADD PUSH1 0x2 DUP3 ADD PUSH1 0x0 SWAP1 SLOAD SWAP1 PUSH2 0x100 EXP SWAP1 DIV PUSH20 0xFFFFFFFFFFFFFFFFFFFFFFFFFFFFFFFFFFFFFFFF AND PUSH20 0xFFFFFFFFFFFFFFFFFFFFFFFFFFFFFFFFFFFFFFFF AND PUSH20 0xFFFFFFFFFFFFFFFFFFFFFFFFFFFFFFFFFFFFFFFF AND DUP2 MSTORE PUSH1 0x20 ADD PUSH1 0x3 DUP3 ADD PUSH1 0x0 SWAP1 SLOAD SWAP1 PUSH2 0x100 EXP SWAP1 DIV PUSH20 0xFFFFFFFFFFFFFFFFFFFFFFFFFFFFFFFFFFFFFFFF AND PUSH20 0xFFFFFFFFFFFFFFFFFFFFFFFFFFFFFFFFFFFFFFFF AND PUSH20 0xFFFFFFFFFFFFFFFFFFFFFFFFFFFFFFFFFFFFFFFF AND DUP2 MSTORE PUSH1 0x20 ADD PUSH1 0x4 DUP3 ADD PUSH1 0x0 SWAP1 SLOAD SWAP1 PUSH2 0x100 EXP SWAP1 DIV PUSH20 0xFFFFFFFFFFFFFFFFFFFFFFFFFFFFFFFFFFFFFFFF AND PUSH20 0xFFFFFFFFFFFFFFFFFFFFFFFFFFFFFFFFFFFFFFFF AND PUSH20 0xFFFFFFFFFFFFFFFFFFFFFFFFFFFFFFFFFFFFFFFF AND DUP2 MSTORE PUSH1 0x20 ADD PUSH1 0x4 DUP3 ADD PUSH1 0x14 SWAP1 SLOAD SWAP1 PUSH2 0x100 EXP SWAP1 DIV PUSH1 0xFF AND ISZERO ISZERO ISZERO ISZERO DUP2 MSTORE POP POP DUP4 DUP4 DUP2 MLOAD DUP2 LT PUSH2 0xF50 JUMPI PUSH2 0xF4F PUSH2 0x2006 JUMP JUMPDEST JUMPDEST PUSH1 0x20 MUL PUSH1 0x20 ADD ADD DUP2 SWAP1 MSTORE POP DUP2 DUP1 PUSH2 0xF66 SWAP1 PUSH2 0x1F8E JUMP JUMPDEST SWAP3 POP POP JUMPDEST DUP1 DUP1 PUSH2 0xF75 SWAP1 PUSH2 0x1F8E JUMP JUMPDEST SWAP2 POP POP PUSH2 0xD7D JUMP JUMPDEST POP DUP2 SWAP5 POP POP POP POP POP SWAP1 JUMP JUMPDEST PUSH1 0x60 PUSH1 0x0 PUSH2 0xF96 PUSH1 0x2 PUSH2 0x1917 JUMP JUMPDEST SWAP1 POP PUSH1 0x0 PUSH2 0xFA4 PUSH1 0x1 PUSH2 0x1917 JUMP JUMPDEST DUP3 PUSH2 0xFAF SWAP2 SWAP1 PUSH2 0x1ECA JUMP JUMPDEST SWAP1 POP PUSH1 0x0 DUP2 PUSH8 0xFFFFFFFFFFFFFFFF DUP2 GT ISZERO PUSH2 0xFCD JUMPI PUSH2 0xFCC PUSH2 0x2035 JUMP JUMPDEST JUMPDEST PUSH1 0x40 MLOAD SWAP1 DUP1 DUP3 MSTORE DUP1 PUSH1 0x20 MUL PUSH1 0x20 ADD DUP3 ADD PUSH1 0x40 MSTORE DUP1 ISZERO PUSH2 0x1006 JUMPI DUP2 PUSH1 0x20 ADD JUMPDEST PUSH2 0xFF3 PUSH2 0x193B JUMP JUMPDEST DUP2 MSTORE PUSH1 0x20 ADD SWAP1 PUSH1 0x1 SWAP1 SUB SWAP1 DUP2 PUSH2 0xFEB JUMPI SWAP1 POP JUMPDEST POP SWAP1 POP PUSH1 0x0 DUP1 PUSH1 0x1 SWAP1 POP JUMPDEST DUP5 DUP2 GT PUSH2 0x11D0 JUMPI PUSH1 0x5 PUSH1 0x0 DUP3 DUP2 MSTORE PUSH1 0x20 ADD SWAP1 DUP2 MSTORE PUSH1 0x20 ADD PUSH1 0x0 KECCAK256 PUSH1 0x4 ADD PUSH1 0x14 SWAP1 SLOAD SWAP1 PUSH2 0x100 EXP SWAP1 DIV PUSH1 0xFF AND ISZERO PUSH2 0x11BD JUMPI PUSH1 0x5 PUSH1 0x0 DUP3 DUP2 MSTORE PUSH1 0x20 ADD SWAP1 DUP2 MSTORE PUSH1 0x20 ADD PUSH1 0x0 KECCAK256 PUSH1 0x40 MLOAD DUP1 PUSH1 0xC0 ADD PUSH1 0x40 MSTORE SWAP1 DUP2 PUSH1 0x0 DUP3 ADD SLOAD DUP2 MSTORE PUSH1 0x20 ADD PUSH1 0x1 DUP3 ADD SLOAD DUP2 MSTORE PUSH1 0x20 ADD PUSH1 0x2 DUP3 ADD PUSH1 0x0 SWAP1 SLOAD SWAP1 PUSH2 0x100 EXP SWAP1 DIV PUSH20 0xFFFFFFFFFFFFFFFFFFFFFFFFFFFFFFFFFFFFFFFF AND PUSH20 0xFFFFFFFFFFFFFFFFFFFFFFFFFFFFFFFFFFFFFFFF AND PUSH20 0xFFFFFFFFFFFFFFFFFFFFFFFFFFFFFFFFFFFFFFFF AND DUP2 MSTORE PUSH1 0x20 ADD PUSH1 0x3 DUP3 ADD PUSH1 0x0 SWAP1 SLOAD SWAP1 PUSH2 0x100 EXP SWAP1 DIV PUSH20 0xFFFFFFFFFFFFFFFFFFFFFFFFFFFFFFFFFFFFFFFF AND PUSH20 0xFFFFFFFFFFFFFFFFFFFFFFFFFFFFFFFFFFFFFFFF AND PUSH20 0xFFFFFFFFFFFFFFFFFFFFFFFFFFFFFFFFFFFFFFFF AND DUP2 MSTORE PUSH1 0x20 ADD PUSH1 0x4 DUP3 ADD PUSH1 0x0 SWAP1 SLOAD SWAP1 PUSH2 0x100 EXP SWAP1 DIV PUSH20 0xFFFFFFFFFFFFFFFFFFFFFFFFFFFFFFFFFFFFFFFF AND PUSH20 0xFFFFFFFFFFFFFFFFFFFFFFFFFFFFFFFFFFFFFFFF AND PUSH20 0xFFFFFFFFFFFFFFFFFFFFFFFFFFFFFFFFFFFFFFFF AND DUP2 MSTORE PUSH1 0x20 ADD PUSH1 0x4 DUP3 ADD PUSH1 0x14 SWAP1 SLOAD SWAP1 PUSH2 0x100 EXP SWAP1 DIV PUSH1 0xFF AND ISZERO ISZERO ISZERO ISZERO DUP2 MSTORE POP POP DUP4 DUP4 DUP2 MLOAD DUP2 LT PUSH2 0x11A3 JUMPI PUSH2 0x11A2 PUSH2 0x2006 JUMP JUMPDEST JUMPDEST PUSH1 0x20 MUL PUSH1 0x20 ADD ADD DUP2 SWAP1 MSTORE POP DUP2 DUP1 PUSH2 0x11B9 SWAP1 PUSH2 0x1F8E JUMP JUMPDEST SWAP3 POP POP JUMPDEST DUP1 DUP1 PUSH2 0x11C8 SWAP1 PUSH2 0x1F8E JUMP JUMPDEST SWAP2 POP POP PUSH2 0x1011 JUMP JUMPDEST POP DUP2 SWAP5 POP POP POP POP POP SWAP1 JUMP JUMPDEST PUSH1 0x60 PUSH1 0x0 PUSH2 0x11E9 PUSH1 0x2 PUSH2 0x1917 JUMP JUMPDEST SWAP1 POP PUSH1 0x0 DUP1 PUSH1 0x1 SWAP1 POP JUMPDEST DUP3 DUP2 GT PUSH2 0x1286 JUMPI CALLER PUSH20 0xFFFFFFFFFFFFFFFFFFFFFFFFFFFFFFFFFFFFFFFF AND PUSH1 0x5 PUSH1 0x0 DUP4 DUP2 MSTORE PUSH1 0x20 ADD SWAP1 DUP2 MSTORE PUSH1 0x20 ADD PUSH1 0x0 KECCAK256 PUSH1 0x3 ADD PUSH1 0x0 SWAP1 SLOAD SWAP1 PUSH2 0x100 EXP SWAP1 DIV PUSH20 0xFFFFFFFFFFFFFFFFFFFFFFFFFFFFFFFFFFFFFFFF AND PUSH20 0xFFFFFFFFFFFFFFFFFFFFFFFFFFFFFFFFFFFFFFFF AND EQ ISZERO PUSH2 0x1273 JUMPI DUP2 DUP1 PUSH2 0x126F SWAP1 PUSH2 0x1F8E JUMP JUMPDEST SWAP3 POP POP JUMPDEST DUP1 DUP1 PUSH2 0x127E SWAP1 PUSH2 0x1F8E JUMP JUMPDEST SWAP2 POP POP PUSH2 0x11F3 JUMP JUMPDEST POP PUSH1 0x0 DUP2 PUSH8 0xFFFFFFFFFFFFFFFF DUP2 GT ISZERO PUSH2 0x12A3 JUMPI PUSH2 0x12A2 PUSH2 0x2035 JUMP JUMPDEST JUMPDEST PUSH1 0x40 MLOAD SWAP1 DUP1 DUP3 MSTORE DUP1 PUSH1 0x20 MUL PUSH1 0x20 ADD DUP3 ADD PUSH1 0x40 MSTORE DUP1 ISZERO PUSH2 0x12DC JUMPI DUP2 PUSH1 0x20 ADD JUMPDEST PUSH2 0x12C9 PUSH2 0x193B JUMP JUMPDEST DUP2 MSTORE PUSH1 0x20 ADD SWAP1 PUSH1 0x1 SWAP1 SUB SWAP1 DUP2 PUSH2 0x12C1 JUMPI SWAP1 POP JUMPDEST POP SWAP1 POP PUSH1 0x0 DUP1 PUSH1 0x1 SWAP1 POP JUMPDEST DUP5 DUP2 GT PUSH2 0x14E7 JUMPI CALLER PUSH20 0xFFFFFFFFFFFFFFFFFFFFFFFFFFFFFFFFFFFFFFFF AND PUSH1 0x5 PUSH1 0x0 DUP4 DUP2 MSTORE PUSH1 0x20 ADD SWAP1 DUP2 MSTORE PUSH1 0x20 ADD PUSH1 0x0 KECCAK256 PUSH1 0x3 ADD PUSH1 0x0 SWAP1 SLOAD SWAP1 PUSH2 0x100 EXP SWAP1 DIV PUSH20 0xFFFFFFFFFFFFFFFFFFFFFFFFFFFFFFFFFFFFFFFF AND PUSH20 0xFFFFFFFFFFFFFFFFFFFFFFFFFFFFFFFFFFFFFFFF AND EQ ISZERO PUSH2 0x14D4 JUMPI PUSH1 0x5 PUSH1 0x0 DUP3 DUP2 MSTORE PUSH1 0x20 ADD SWAP1 DUP2 MSTORE PUSH1 0x20 ADD PUSH1 0x0 KECCAK256 PUSH1 0x40 MLOAD DUP1 PUSH1 0xC0 ADD PUSH1 0x40 MSTORE SWAP1 DUP2 PUSH1 0x0 DUP3 ADD SLOAD DUP2 MSTORE PUSH1 0x20 ADD PUSH1 0x1 DUP3 ADD SLOAD DUP2 MSTORE PUSH1 0x20 ADD PUSH1 0x2 DUP3 ADD PUSH1 0x0 SWAP1 SLOAD SWAP1 PUSH2 0x100 EXP SWAP1 DIV PUSH20 0xFFFFFFFFFFFFFFFFFFFFFFFFFFFFFFFFFFFFFFFF AND PUSH20 0xFFFFFFFFFFFFFFFFFFFFFFFFFFFFFFFFFFFFFFFF AND PUSH20 0xFFFFFFFFFFFFFFFFFFFFFFFFFFFFFFFFFFFFFFFF AND DUP2 MSTORE PUSH1 0x20 ADD PUSH1 0x3 DUP3 ADD PUSH1 0x0 SWAP1 SLOAD SWAP1 PUSH2 0x100 EXP SWAP1 DIV PUSH20 0xFFFFFFFFFFFFFFFFFFFFFFFFFFFFFFFFFFFFFFFF AND PUSH20 0xFFFFFFFFFFFFFFFFFFFFFFFFFFFFFFFFFFFFFFFF AND PUSH20 0xFFFFFFFFFFFFFFFFFFFFFFFFFFFFFFFFFFFFFFFF AND DUP2 MSTORE PUSH1 0x20 ADD PUSH1 0x4 DUP3 ADD PUSH1 0x0 SWAP1 SLOAD SWAP1 PUSH2 0x100 EXP SWAP1 DIV PUSH20 0xFFFFFFFFFFFFFFFFFFFFFFFFFFFFFFFFFFFFFFFF AND PUSH20 0xFFFFFFFFFFFFFFFFFFFFFFFFFFFFFFFFFFFFFFFF AND PUSH20 0xFFFFFFFFFFFFFFFFFFFFFFFFFFFFFFFFFFFFFFFF AND DUP2 MSTORE PUSH1 0x20 ADD PUSH1 0x4 DUP3 ADD PUSH1 0x14 SWAP1 SLOAD SWAP1 PUSH2 0x100 EXP SWAP1 DIV PUSH1 0xFF AND ISZERO ISZERO ISZERO ISZERO DUP2 MSTORE POP POP DUP4 DUP4 DUP2 MLOAD DUP2 LT PUSH2 0x14BA JUMPI PUSH2 0x14B9 PUSH2 0x2006 JUMP JUMPDEST JUMPDEST PUSH1 0x20 MUL PUSH1 0x20 ADD ADD DUP2 SWAP1 MSTORE POP DUP2 DUP1 PUSH2 0x14D0 SWAP1 PUSH2 0x1F8E JUMP JUMPDEST SWAP3 POP POP JUMPDEST DUP1 DUP1 PUSH2 0x14DF SWAP1 PUSH2 0x1F8E JUMP JUMPDEST SWAP2 POP POP PUSH2 0x12E7 JUMP JUMPDEST POP DUP2 SWAP5 POP POP POP POP POP SWAP1 JUMP JUMPDEST PUSH1 0x2 PUSH1 0x0 SLOAD EQ ISZERO PUSH2 0x1538 JUMPI PUSH1 0x40 MLOAD PUSH32 0x8C379A000000000000000000000000000000000000000000000000000000000 DUP2 MSTORE PUSH1 0x4 ADD PUSH2 0x152F SWAP1 PUSH2 0x1E25 JUMP JUMPDEST PUSH1 0x40 MLOAD DUP1 SWAP2 SUB SWAP1 REVERT JUMPDEST PUSH1 0x2 PUSH1 0x0 DUP2 SWAP1 SSTORE POP DUP1 PUSH1 0x0 DUP2 GT PUSH2 0x1584 JUMPI PUSH1 0x40 MLOAD PUSH32 0x8C379A000000000000000000000000000000000000000000000000000000000 DUP2 MSTORE PUSH1 0x4 ADD PUSH2 0x157B SWAP1 PUSH2 0x1E45 JUMP JUMPDEST PUSH1 0x40 MLOAD DUP1 SWAP2 SUB SWAP1 REVERT JUMPDEST PUSH1 0x3 SLOAD CALLVALUE EQ PUSH2 0x15C8 JUMPI PUSH1 0x40 MLOAD PUSH32 0x8C379A000000000000000000000000000000000000000000000000000000000 DUP2 MSTORE PUSH1 0x4 ADD PUSH2 0x15BF SWAP1 PUSH2 0x1E05 JUMP JUMPDEST PUSH1 0x40 MLOAD DUP1 SWAP2 SUB SWAP1 REVERT JUMPDEST DUP4 PUSH20 0xFFFFFFFFFFFFFFFFFFFFFFFFFFFFFFFFFFFFFFFF AND PUSH4 0x23B872DD CALLER ADDRESS DUP7 PUSH1 0x40 MLOAD DUP5 PUSH4 0xFFFFFFFF AND PUSH1 0xE0 SHL DUP2 MSTORE PUSH1 0x4 ADD PUSH2 0x1605 SWAP4 SWAP3 SWAP2 SWAP1 PUSH2 0x1D23 JUMP JUMPDEST PUSH1 0x0 PUSH1 0x40 MLOAD DUP1 DUP4 SUB DUP2 PUSH1 0x0 DUP8 DUP1 EXTCODESIZE ISZERO DUP1 ISZERO PUSH2 0x161F JUMPI PUSH1 0x0 DUP1 REVERT JUMPDEST POP GAS CALL ISZERO DUP1 ISZERO PUSH2 0x1633 JUMPI RETURNDATASIZE PUSH1 0x0 DUP1 RETURNDATACOPY RETURNDATASIZE PUSH1 0x0 REVERT JUMPDEST POP POP POP POP PUSH1 0x40 MLOAD DUP1 PUSH1 0xC0 ADD PUSH1 0x40 MSTORE DUP1 DUP5 DUP2 MSTORE PUSH1 0x20 ADD DUP4 DUP2 MSTORE PUSH1 0x20 ADD CALLER PUSH20 0xFFFFFFFFFFFFFFFFFFFFFFFFFFFFFFFFFFFFFFFF AND DUP2 MSTORE PUSH1 0x20 ADD ADDRESS PUSH20 0xFFFFFFFFFFFFFFFFFFFFFFFFFFFFFFFFFFFFFFFF AND DUP2 MSTORE PUSH1 0x20 ADD CALLER PUSH20 0xFFFFFFFFFFFFFFFFFFFFFFFFFFFFFFFFFFFFFFFF AND DUP2 MSTORE PUSH1 0x20 ADD PUSH1 0x1 ISZERO ISZERO DUP2 MSTORE POP PUSH1 0x5 PUSH1 0x0 DUP6 DUP2 MSTORE PUSH1 0x20 ADD SWAP1 DUP2 MSTORE PUSH1 0x20 ADD PUSH1 0x0 KECCAK256 PUSH1 0x0 DUP3 ADD MLOAD DUP2 PUSH1 0x0 ADD SSTORE PUSH1 0x20 DUP3 ADD MLOAD DUP2 PUSH1 0x1 ADD SSTORE PUSH1 0x40 DUP3 ADD MLOAD DUP2 PUSH1 0x2 ADD PUSH1 0x0 PUSH2 0x100 EXP DUP2 SLOAD DUP2 PUSH20 0xFFFFFFFFFFFFFFFFFFFFFFFFFFFFFFFFFFFFFFFF MUL NOT AND SWAP1 DUP4 PUSH20 0xFFFFFFFFFFFFFFFFFFFFFFFFFFFFFFFFFFFFFFFF AND MUL OR SWAP1 SSTORE POP PUSH1 0x60 DUP3 ADD MLOAD DUP2 PUSH1 0x3 ADD PUSH1 0x0 PUSH2 0x100 EXP DUP2 SLOAD DUP2 PUSH20 0xFFFFFFFFFFFFFFFFFFFFFFFFFFFFFFFFFFFFFFFF MUL NOT AND SWAP1 DUP4 PUSH20 0xFFFFFFFFFFFFFFFFFFFFFFFFFFFFFFFFFFFFFFFF AND MUL OR SWAP1 SSTORE POP PUSH1 0x80 DUP3 ADD MLOAD DUP2 PUSH1 0x4 ADD PUSH1 0x0 PUSH2 0x100 EXP DUP2 SLOAD DUP2 PUSH20 0xFFFFFFFFFFFFFFFFFFFFFFFFFFFFFFFFFFFFFFFF MUL NOT AND SWAP1 DUP4 PUSH20 0xFFFFFFFFFFFFFFFFFFFFFFFFFFFFFFFFFFFFFFFF AND MUL OR SWAP1 SSTORE POP PUSH1 0xA0 DUP3 ADD MLOAD DUP2 PUSH1 0x4 ADD PUSH1 0x14 PUSH2 0x100 EXP DUP2 SLOAD DUP2 PUSH1 0xFF MUL NOT AND SWAP1 DUP4 ISZERO ISZERO MUL OR SWAP1 SSTORE POP SWAP1 POP POP PUSH2 0x17D2 PUSH1 0x2 PUSH2 0x1925 JUMP JUMPDEST PUSH1 0x4 PUSH1 0x0 SWAP1 SLOAD SWAP1 PUSH2 0x100 EXP SWAP1 DIV PUSH20 0xFFFFFFFFFFFFFFFFFFFFFFFFFFFFFFFFFFFFFFFF AND PUSH20 0xFFFFFFFFFFFFFFFFFFFFFFFFFFFFFFFFFFFFFFFF AND PUSH2 0x8FC CALLVALUE SWAP1 DUP2 ISZERO MUL SWAP1 PUSH1 0x40 MLOAD PUSH1 0x0 PUSH1 0x40 MLOAD DUP1 DUP4 SUB DUP2 DUP6 DUP9 DUP9 CALL SWAP4 POP POP POP POP ISZERO DUP1 ISZERO PUSH2 0x183A JUMPI RETURNDATASIZE PUSH1 0x0 DUP1 RETURNDATACOPY RETURNDATASIZE PUSH1 0x0 REVERT JUMPDEST POP ADDRESS PUSH20 0xFFFFFFFFFFFFFFFFFFFFFFFFFFFFFFFFFFFFFFFF AND CALLER PUSH20 0xFFFFFFFFFFFFFFFFFFFFFFFFFFFFFFFFFFFFFFFF AND DUP5 PUSH32 0xA0C6C0D02D86FDACECBAA5FDF5894BAB204E31A778250474108540733A9B8D19 DUP8 DUP7 PUSH1 0x40 MLOAD PUSH2 0x189B SWAP3 SWAP2 SWAP1 PUSH2 0x1D5A JUMP JUMPDEST PUSH1 0x40 MLOAD DUP1 SWAP2 SUB SWAP1 LOG4 POP PUSH1 0x1 PUSH1 0x0 DUP2 SWAP1 SSTORE POP POP POP POP JUMP JUMPDEST PUSH1 0x0 PUSH1 0x3 SLOAD SWAP1 POP SWAP1 JUMP JUMPDEST PUSH1 0x0 DUP2 PUSH1 0x0 ADD SLOAD SWAP1 POP PUSH1 0x0 DUP2 GT PUSH2 0x1907 JUMPI PUSH1 0x40 MLOAD PUSH32 0x8C379A000000000000000000000000000000000000000000000000000000000 DUP2 MSTORE PUSH1 0x4 ADD PUSH2 0x18FE SWAP1 PUSH2 0x1DC5 JUMP JUMPDEST PUSH1 0x40 MLOAD DUP1 SWAP2 SUB SWAP1 REVERT JUMPDEST PUSH1 0x1 DUP2 SUB DUP3 PUSH1 0x0 ADD DUP2 SWAP1 SSTORE POP POP POP JUMP JUMPDEST PUSH1 0x0 DUP2 PUSH1 0x0 ADD SLOAD SWAP1 POP SWAP2 SWAP1 POP JUMP JUMPDEST PUSH1 0x1 DUP2 PUSH1 0x0 ADD PUSH1 0x0 DUP3 DUP3 SLOAD ADD SWAP3 POP POP DUP2 SWAP1 SSTORE POP POP JUMP JUMPDEST PUSH1 0x40 MLOAD DUP1 PUSH1 0xC0 ADD PUSH1 0x40 MSTORE DUP1 PUSH1 0x0 DUP2 MSTORE PUSH1 0x20 ADD PUSH1 0x0 DUP2 MSTORE PUSH1 0x20 ADD PUSH1 0x0 PUSH20 0xFFFFFFFFFFFFFFFFFFFFFFFFFFFFFFFFFFFFFFFF AND DUP2 MSTORE PUSH1 0x20 ADD PUSH1 0x0 PUSH20 0xFFFFFFFFFFFFFFFFFFFFFFFFFFFFFFFFFFFFFFFF AND DUP2 MSTORE PUSH1 0x20 ADD PUSH1 0x0 PUSH20 0xFFFFFFFFFFFFFFFFFFFFFFFFFFFFFFFFFFFFFFFF AND DUP2 MSTORE PUSH1 0x20 ADD PUSH1 0x0 ISZERO ISZERO DUP2 MSTORE POP SWAP1 JUMP JUMPDEST PUSH1 0x0 DUP2 CALLDATALOAD SWAP1 POP PUSH2 0x19C4 DUP2 PUSH2 0x2185 JUMP JUMPDEST SWAP3 SWAP2 POP POP JUMP JUMPDEST PUSH1 0x0 DUP2 MLOAD SWAP1 POP PUSH2 0x19D9 DUP2 PUSH2 0x2185 JUMP JUMPDEST SWAP3 SWAP2 POP POP JUMP JUMPDEST PUSH1 0x0 DUP2 CALLDATALOAD SWAP1 POP PUSH2 0x19EE DUP2 PUSH2 0x219C JUMP JUMPDEST SWAP3 SWAP2 POP POP JUMP JUMPDEST PUSH1 0x0 PUSH1 0x20 DUP3 DUP5 SUB SLT ISZERO PUSH2 0x1A0A JUMPI PUSH2 0x1A09 PUSH2 0x2064 JUMP JUMPDEST JUMPDEST PUSH1 0x0 PUSH2 0x1A18 DUP5 DUP3 DUP6 ADD PUSH2 0x19CA JUMP JUMPDEST SWAP2 POP POP SWAP3 SWAP2 POP POP JUMP JUMPDEST PUSH1 0x0 DUP1 PUSH1 0x40 DUP4 DUP6 SUB SLT ISZERO PUSH2 0x1A38 JUMPI PUSH2 0x1A37 PUSH2 0x2064 JUMP JUMPDEST JUMPDEST PUSH1 0x0 PUSH2 0x1A46 DUP6 DUP3 DUP7 ADD PUSH2 0x19B5 JUMP JUMPDEST SWAP3 POP POP PUSH1 0x20 PUSH2 0x1A57 DUP6 DUP3 DUP7 ADD PUSH2 0x19DF JUMP JUMPDEST SWAP2 POP POP SWAP3 POP SWAP3 SWAP1 POP JUMP JUMPDEST PUSH1 0x0 DUP1 PUSH1 0x0 PUSH1 0x60 DUP5 DUP7 SUB SLT ISZERO PUSH2 0x1A7A JUMPI PUSH2 0x1A79 PUSH2 0x2064 JUMP JUMPDEST JUMPDEST PUSH1 0x0 PUSH2 0x1A88 DUP7 DUP3 DUP8 ADD PUSH2 0x19B5 JUMP JUMPDEST SWAP4 POP POP PUSH1 0x20 PUSH2 0x1A99 DUP7 DUP3 DUP8 ADD PUSH2 0x19DF JUMP JUMPDEST SWAP3 POP POP PUSH1 0x40 PUSH2 0x1AAA DUP7 DUP3 DUP8 ADD PUSH2 0x19DF JUMP JUMPDEST SWAP2 POP POP SWAP3 POP SWAP3 POP SWAP3 JUMP JUMPDEST PUSH1 0x0 PUSH2 0x1AC0 DUP4 DUP4 PUSH2 0x1C38 JUMP JUMPDEST PUSH1 0xC0 DUP4 ADD SWAP1 POP SWAP3 SWAP2 POP POP JUMP JUMPDEST PUSH2 0x1AD5 DUP2 PUSH2 0x1F58 JUMP JUMPDEST DUP3 MSTORE POP POP JUMP JUMPDEST PUSH2 0x1AE4 DUP2 PUSH2 0x1F10 JUMP JUMPDEST DUP3 MSTORE POP POP JUMP JUMPDEST PUSH2 0x1AF3 DUP2 PUSH2 0x1EFE JUMP JUMPDEST DUP3 MSTORE POP POP JUMP JUMPDEST PUSH1 0x0 PUSH2 0x1B04 DUP3 PUSH2 0x1E90 JUMP JUMPDEST PUSH2 0x1B0E DUP2 DUP6 PUSH2 0x1EA8 JUMP JUMPDEST SWAP4 POP PUSH2 0x1B19 DUP4 PUSH2 0x1E80 JUMP JUMPDEST DUP1 PUSH1 0x0 JUMPDEST DUP4 DUP2 LT ISZERO PUSH2 0x1B4A JUMPI DUP2 MLOAD PUSH2 0x1B31 DUP9 DUP3 PUSH2 0x1AB4 JUMP JUMPDEST SWAP8 POP PUSH2 0x1B3C DUP4 PUSH2 0x1E9B JUMP JUMPDEST SWAP3 POP POP PUSH1 0x1 DUP2 ADD SWAP1 POP PUSH2 0x1B1D JUMP JUMPDEST POP DUP6 SWAP4 POP POP POP POP SWAP3 SWAP2 POP POP JUMP JUMPDEST PUSH2 0x1B60 DUP2 PUSH2 0x1F22 JUMP JUMPDEST DUP3 MSTORE POP POP JUMP JUMPDEST PUSH1 0x0 PUSH2 0x1B73 PUSH1 0xD DUP4 PUSH2 0x1EB9 JUMP JUMPDEST SWAP2 POP PUSH2 0x1B7E DUP3 PUSH2 0x2069 JUMP JUMPDEST PUSH1 0x20 DUP3 ADD SWAP1 POP SWAP2 SWAP1 POP JUMP JUMPDEST PUSH1 0x0 PUSH2 0x1B96 PUSH1 0x1B DUP4 PUSH2 0x1EB9 JUMP JUMPDEST SWAP2 POP PUSH2 0x1BA1 DUP3 PUSH2 0x2092 JUMP JUMPDEST PUSH1 0x20 DUP3 ADD SWAP1 POP SWAP2 SWAP1 POP JUMP JUMPDEST PUSH1 0x0 PUSH2 0x1BB9 PUSH1 0x26 DUP4 PUSH2 0x1EB9 JUMP JUMPDEST SWAP2 POP PUSH2 0x1BC4 DUP3 PUSH2 0x20BB JUMP JUMPDEST PUSH1 0x40 DUP3 ADD SWAP1 POP SWAP2 SWAP1 POP JUMP JUMPDEST PUSH1 0x0 PUSH2 0x1BDC PUSH1 0x20 DUP4 PUSH2 0x1EB9 JUMP JUMPDEST SWAP2 POP PUSH2 0x1BE7 DUP3 PUSH2 0x210A JUMP JUMPDEST PUSH1 0x20 DUP3 ADD SWAP1 POP SWAP2 SWAP1 POP JUMP JUMPDEST PUSH1 0x0 PUSH2 0x1BFF PUSH1 0x1F DUP4 PUSH2 0x1EB9 JUMP JUMPDEST SWAP2 POP PUSH2 0x1C0A DUP3 PUSH2 0x2133 JUMP JUMPDEST PUSH1 0x20 DUP3 ADD SWAP1 POP SWAP2 SWAP1 POP JUMP JUMPDEST PUSH1 0x0 PUSH2 0x1C22 PUSH1 0x1C DUP4 PUSH2 0x1EB9 JUMP JUMPDEST SWAP2 POP PUSH2 0x1C2D DUP3 PUSH2 0x215C JUMP JUMPDEST PUSH1 0x20 DUP3 ADD SWAP1 POP SWAP2 SWAP1 POP JUMP JUMPDEST PUSH1 0xC0 DUP3 ADD PUSH1 0x0 DUP3 ADD MLOAD PUSH2 0x1C4E PUSH1 0x0 DUP6 ADD DUP3 PUSH2 0x1CB3 JUMP JUMPDEST POP PUSH1 0x20 DUP3 ADD MLOAD PUSH2 0x1C61 PUSH1 0x20 DUP6 ADD DUP3 PUSH2 0x1CB3 JUMP JUMPDEST POP PUSH1 0x40 DUP3 ADD MLOAD PUSH2 0x1C74 PUSH1 0x40 DUP6 ADD DUP3 PUSH2 0x1ADB JUMP JUMPDEST POP PUSH1 0x60 DUP3 ADD MLOAD PUSH2 0x1C87 PUSH1 0x60 DUP6 ADD DUP3 PUSH2 0x1ADB JUMP JUMPDEST POP PUSH1 0x80 DUP3 ADD MLOAD PUSH2 0x1C9A PUSH1 0x80 DUP6 ADD DUP3 PUSH2 0x1ADB JUMP JUMPDEST POP PUSH1 0xA0 DUP3 ADD MLOAD PUSH2 0x1CAD PUSH1 0xA0 DUP6 ADD DUP3 PUSH2 0x1B57 JUMP JUMPDEST POP POP POP POP JUMP JUMPDEST PUSH2 0x1CBC DUP2 PUSH2 0x1F4E JUMP JUMPDEST DUP3 MSTORE POP POP JUMP JUMPDEST PUSH2 0x1CCB DUP2 PUSH2 0x1F4E JUMP JUMPDEST DUP3 MSTORE POP POP JUMP JUMPDEST PUSH1 0x0 PUSH1 0x20 DUP3 ADD SWAP1 POP PUSH2 0x1CE6 PUSH1 0x0 DUP4 ADD DUP5 PUSH2 0x1AEA JUMP JUMPDEST SWAP3 SWAP2 POP POP JUMP JUMPDEST PUSH1 0x0 PUSH1 0x60 DUP3 ADD SWAP1 POP PUSH2 0x1D01 PUSH1 0x0 DUP4 ADD DUP7 PUSH2 0x1AEA JUMP JUMPDEST PUSH2 0x1D0E PUSH1 0x20 DUP4 ADD DUP6 PUSH2 0x1ACC JUMP JUMPDEST PUSH2 0x1D1B PUSH1 0x40 DUP4 ADD DUP5 PUSH2 0x1CC2 JUMP JUMPDEST SWAP5 SWAP4 POP POP POP POP JUMP JUMPDEST PUSH1 0x0 PUSH1 0x60 DUP3 ADD SWAP1 POP PUSH2 0x1D38 PUSH1 0x0 DUP4 ADD DUP7 PUSH2 0x1AEA JUMP JUMPDEST PUSH2 0x1D45 PUSH1 0x20 DUP4 ADD DUP6 PUSH2 0x1AEA JUMP JUMPDEST PUSH2 0x1D52 PUSH1 0x40 DUP4 ADD DUP5 PUSH2 0x1CC2 JUMP JUMPDEST SWAP5 SWAP4 POP POP POP POP JUMP JUMPDEST PUSH1 0x0 PUSH1 0x40 DUP3 ADD SWAP1 POP PUSH2 0x1D6F PUSH1 0x0 DUP4 ADD DUP6 PUSH2 0x1AEA JUMP JUMPDEST PUSH2 0x1D7C PUSH1 0x20 DUP4 ADD DUP5 PUSH2 0x1CC2 JUMP JUMPDEST SWAP4 SWAP3 POP POP POP JUMP JUMPDEST PUSH1 0x0 PUSH1 0x20 DUP3 ADD SWAP1 POP DUP2 DUP2 SUB PUSH1 0x0 DUP4 ADD MSTORE PUSH2 0x1D9D DUP2 DUP5 PUSH2 0x1AF9 JUMP JUMPDEST SWAP1 POP SWAP3 SWAP2 POP POP JUMP JUMPDEST PUSH1 0x0 PUSH1 0x20 DUP3 ADD SWAP1 POP DUP2 DUP2 SUB PUSH1 0x0 DUP4 ADD MSTORE PUSH2 0x1DBE DUP2 PUSH2 0x1B66 JUMP JUMPDEST SWAP1 POP SWAP2 SWAP1 POP JUMP JUMPDEST PUSH1 0x0 PUSH1 0x20 DUP3 ADD SWAP1 POP DUP2 DUP2 SUB PUSH1 0x0 DUP4 ADD MSTORE PUSH2 0x1DDE DUP2 PUSH2 0x1B89 JUMP JUMPDEST SWAP1 POP SWAP2 SWAP1 POP JUMP JUMPDEST PUSH1 0x0 PUSH1 0x20 DUP3 ADD SWAP1 POP DUP2 DUP2 SUB PUSH1 0x0 DUP4 ADD MSTORE PUSH2 0x1DFE DUP2 PUSH2 0x1BAC JUMP JUMPDEST SWAP1 POP SWAP2 SWAP1 POP JUMP JUMPDEST PUSH1 0x0 PUSH1 0x20 DUP3 ADD SWAP1 POP DUP2 DUP2 SUB PUSH1 0x0 DUP4 ADD MSTORE PUSH2 0x1E1E DUP2 PUSH2 0x1BCF JUMP JUMPDEST SWAP1 POP SWAP2 SWAP1 POP JUMP JUMPDEST PUSH1 0x0 PUSH1 0x20 DUP3 ADD SWAP1 POP DUP2 DUP2 SUB PUSH1 0x0 DUP4 ADD MSTORE PUSH2 0x1E3E DUP2 PUSH2 0x1BF2 JUMP JUMPDEST SWAP1 POP SWAP2 SWAP1 POP JUMP JUMPDEST PUSH1 0x0 PUSH1 0x20 DUP3 ADD SWAP1 POP DUP2 DUP2 SUB PUSH1 0x0 DUP4 ADD MSTORE PUSH2 0x1E5E DUP2 PUSH2 0x1C15 JUMP JUMPDEST SWAP1 POP SWAP2 SWAP1 POP JUMP JUMPDEST PUSH1 0x0 PUSH1 0x20 DUP3 ADD SWAP1 POP PUSH2 0x1E7A PUSH1 0x0 DUP4 ADD DUP5 PUSH2 0x1CC2 JUMP JUMPDEST SWAP3 SWAP2 POP POP JUMP JUMPDEST PUSH1 0x0 DUP2 SWAP1 POP PUSH1 0x20 DUP3 ADD SWAP1 POP SWAP2 SWAP1 POP JUMP JUMPDEST PUSH1 0x0 DUP2 MLOAD SWAP1 POP SWAP2 SWAP1 POP JUMP JUMPDEST PUSH1 0x0 PUSH1 0x20 DUP3 ADD SWAP1 POP SWAP2 SWAP1 POP JUMP JUMPDEST PUSH1 0x0 DUP3 DUP3 MSTORE PUSH1 0x20 DUP3 ADD SWAP1 POP SWAP3 SWAP2 POP POP JUMP JUMPDEST PUSH1 0x0 DUP3 DUP3 MSTORE PUSH1 0x20 DUP3 ADD SWAP1 POP SWAP3 SWAP2 POP POP JUMP JUMPDEST PUSH1 0x0 PUSH2 0x1ED5 DUP3 PUSH2 0x1F4E JUMP JUMPDEST SWAP2 POP PUSH2 0x1EE0 DUP4 PUSH2 0x1F4E JUMP JUMPDEST SWAP3 POP DUP3 DUP3 LT ISZERO PUSH2 0x1EF3 JUMPI PUSH2 0x1EF2 PUSH2 0x1FD7 JUMP JUMPDEST JUMPDEST DUP3 DUP3 SUB SWAP1 POP SWAP3 SWAP2 POP POP JUMP JUMPDEST PUSH1 0x0 PUSH2 0x1F09 DUP3 PUSH2 0x1F2E JUMP JUMPDEST SWAP1 POP SWAP2 SWAP1 POP JUMP JUMPDEST PUSH1 0x0 PUSH2 0x1F1B DUP3 PUSH2 0x1F2E JUMP JUMPDEST SWAP1 POP SWAP2 SWAP1 POP JUMP JUMPDEST PUSH1 0x0 DUP2 ISZERO ISZERO SWAP1 POP SWAP2 SWAP1 POP JUMP JUMPDEST PUSH1 0x0 PUSH20 0xFFFFFFFFFFFFFFFFFFFFFFFFFFFFFFFFFFFFFFFF DUP3 AND SWAP1 POP SWAP2 SWAP1 POP JUMP JUMPDEST PUSH1 0x0 DUP2 SWAP1 POP SWAP2 SWAP1 POP JUMP JUMPDEST PUSH1 0x0 PUSH2 0x1F63 DUP3 PUSH2 0x1F6A JUMP JUMPDEST SWAP1 POP SWAP2 SWAP1 POP JUMP JUMPDEST PUSH1 0x0 PUSH2 0x1F75 DUP3 PUSH2 0x1F7C JUMP JUMPDEST SWAP1 POP SWAP2 SWAP1 POP JUMP JUMPDEST PUSH1 0x0 PUSH2 0x1F87 DUP3 PUSH2 0x1F2E JUMP JUMPDEST SWAP1 POP SWAP2 SWAP1 POP JUMP JUMPDEST PUSH1 0x0 PUSH2 0x1F99 DUP3 PUSH2 0x1F4E JUMP JUMPDEST SWAP2 POP PUSH32 0xFFFFFFFFFFFFFFFFFFFFFFFFFFFFFFFFFFFFFFFFFFFFFFFFFFFFFFFFFFFFFFFF DUP3 EQ ISZERO PUSH2 0x1FCC JUMPI PUSH2 0x1FCB PUSH2 0x1FD7 JUMP JUMPDEST JUMPDEST PUSH1 0x1 DUP3 ADD SWAP1 POP SWAP2 SWAP1 POP JUMP JUMPDEST PUSH32 0x4E487B7100000000000000000000000000000000000000000000000000000000 PUSH1 0x0 MSTORE PUSH1 0x11 PUSH1 0x4 MSTORE PUSH1 0x24 PUSH1 0x0 REVERT JUMPDEST PUSH32 0x4E487B7100000000000000000000000000000000000000000000000000000000 PUSH1 0x0 MSTORE PUSH1 0x32 PUSH1 0x4 MSTORE PUSH1 0x24 PUSH1 0x0 REVERT JUMPDEST PUSH32 0x4E487B7100000000000000000000000000000000000000000000000000000000 PUSH1 0x0 MSTORE PUSH1 0x41 PUSH1 0x4 MSTORE PUSH1 0x24 PUSH1 0x0 REVERT JUMPDEST PUSH1 0x0 DUP1 REVERT JUMPDEST PUSH32 0x4E4654206E6F7420666F756E6400000000000000000000000000000000000000 PUSH1 0x0 DUP3 ADD MSTORE POP JUMP JUMPDEST PUSH32 0x436F756E7465723A2064656372656D656E74206F766572666C6F770000000000 PUSH1 0x0 DUP3 ADD MSTORE POP JUMP JUMPDEST PUSH32 0x4E6F7420656E6F75676820657468657220746F20636F7665722061736B696E67 PUSH1 0x0 DUP3 ADD MSTORE PUSH32 0x2070726963650000000000000000000000000000000000000000000000000000 PUSH1 0x20 DUP3 ADD MSTORE POP JUMP JUMPDEST PUSH32 0x4E6F7420656E6F75676820657468657220666F72206C697374696E6720666565 PUSH1 0x0 DUP3 ADD MSTORE POP JUMP JUMPDEST PUSH32 0x5265656E7472616E637947756172643A207265656E7472616E742063616C6C00 PUSH1 0x0 DUP3 ADD MSTORE POP JUMP JUMPDEST PUSH32 0x5072696365206D757374206265206174206C6561737420312077656900000000 PUSH1 0x0 DUP3 ADD MSTORE POP JUMP JUMPDEST PUSH2 0x218E DUP2 PUSH2 0x1EFE JUMP JUMPDEST DUP2 EQ PUSH2 0x2199 JUMPI PUSH1 0x0 DUP1 REVERT JUMPDEST POP JUMP JUMPDEST PUSH2 0x21A5 DUP2 PUSH2 0x1F4E JUMP JUMPDEST DUP2 EQ PUSH2 0x21B0 JUMPI PUSH1 0x0 DUP1 REVERT JUMPDEST POP JUMP INVALID LOG2 PUSH5 0x6970667358 0x22 SLT KECCAK256 0x4B NOT PUSH30 0x6678CB9BECE77653C5E462CA2958AD9E42F4AD138AFF158B80170E7F2964 PUSH20 0x6F6C634300080700330000000000000000000000 "
				},
				"gasEstimates": {
					"creation": {
						"codeDepositCost": "1736200",
						"executionCost": "70313",
						"totalCost": "1806513"
					},
					"external": {
						"LISTING_FEE()": "2474",
						"buyNft(address,uint256)": "infinite",
						"getListedNfts()": "infinite",
						"getListingFee()": "2525",
						"getMyCreatedNfts()": "infinite",
						"getMyListedNfts()": "infinite",
						"getMyOwnedNfts()": "infinite",
						"getOwner(address,uint256)": "infinite",
						"listNFT(address,uint256,uint256)": "infinite",
						"resellNFT(address,uint256,uint256)": "infinite"
					}
				},
				"methodIdentifiers": {
					"LISTING_FEE()": "2b86ae38",
					"buyNft(address,uint256)": "4ddf4f8f",
					"getListedNfts()": "8d6cb3fb",
					"getListingFee()": "b8fe6abe",
					"getMyCreatedNfts()": "8492095a",
					"getMyListedNfts()": "1f4cc4db",
					"getMyOwnedNfts()": "a46b5c5a",
					"getOwner(address,uint256)": "2f634a90",
					"listNFT(address,uint256,uint256)": "ad05f1b4",
					"resellNFT(address,uint256,uint256)": "04935694"
				}
			},
			"storageLayout": {
				"storage": [
					{
						"astId": 857,
						"contract": "contracts/GeekNftMarketPlace.sol:GeekNftMarketPlace",
						"label": "_status",
						"offset": 0,
						"slot": "0",
						"type": "t_uint256"
					},
					{
						"astId": 32,
						"contract": "contracts/GeekNftMarketPlace.sol:GeekNftMarketPlace",
						"label": "_nftsSold",
						"offset": 0,
						"slot": "1",
						"type": "t_struct(Counter)779_storage"
					},
					{
						"astId": 35,
						"contract": "contracts/GeekNftMarketPlace.sol:GeekNftMarketPlace",
						"label": "_nftsCount",
						"offset": 0,
						"slot": "2",
						"type": "t_struct(Counter)779_storage"
					},
					{
						"astId": 38,
						"contract": "contracts/GeekNftMarketPlace.sol:GeekNftMarketPlace",
						"label": "LISTING_FEE",
						"offset": 0,
						"slot": "3",
						"type": "t_uint256"
					},
					{
						"astId": 40,
						"contract": "contracts/GeekNftMarketPlace.sol:GeekNftMarketPlace",
						"label": "_marketOwwner",
						"offset": 0,
						"slot": "4",
						"type": "t_address_payable"
					},
					{
						"astId": 45,
						"contract": "contracts/GeekNftMarketPlace.sol:GeekNftMarketPlace",
						"label": "_idToNFT",
						"offset": 0,
						"slot": "5",
						"type": "t_mapping(t_uint256,t_struct(NFT)58_storage)"
					}
				],
				"types": {
					"t_address_payable": {
						"encoding": "inplace",
						"label": "address payable",
						"numberOfBytes": "20"
					},
					"t_bool": {
						"encoding": "inplace",
						"label": "bool",
						"numberOfBytes": "1"
					},
					"t_mapping(t_uint256,t_struct(NFT)58_storage)": {
						"encoding": "mapping",
						"key": "t_uint256",
						"label": "mapping(uint256 => struct GeekNftMarketPlace.NFT)",
						"numberOfBytes": "32",
						"value": "t_struct(NFT)58_storage"
					},
					"t_struct(Counter)779_storage": {
						"encoding": "inplace",
						"label": "struct Counters.Counter",
						"members": [
							{
								"astId": 778,
								"contract": "contracts/GeekNftMarketPlace.sol:GeekNftMarketPlace",
								"label": "_value",
								"offset": 0,
								"slot": "0",
								"type": "t_uint256"
							}
						],
						"numberOfBytes": "32"
					},
					"t_struct(NFT)58_storage": {
						"encoding": "inplace",
						"label": "struct GeekNftMarketPlace.NFT",
						"members": [
							{
								"astId": 47,
								"contract": "contracts/GeekNftMarketPlace.sol:GeekNftMarketPlace",
								"label": "tokenId",
								"offset": 0,
								"slot": "0",
								"type": "t_uint256"
							},
							{
								"astId": 49,
								"contract": "contracts/GeekNftMarketPlace.sol:GeekNftMarketPlace",
								"label": "price",
								"offset": 0,
								"slot": "1",
								"type": "t_uint256"
							},
							{
								"astId": 51,
								"contract": "contracts/GeekNftMarketPlace.sol:GeekNftMarketPlace",
								"label": "seller",
								"offset": 0,
								"slot": "2",
								"type": "t_address_payable"
							},
							{
								"astId": 53,
								"contract": "contracts/GeekNftMarketPlace.sol:GeekNftMarketPlace",
								"label": "owner",
								"offset": 0,
								"slot": "3",
								"type": "t_address_payable"
							},
							{
								"astId": 55,
								"contract": "contracts/GeekNftMarketPlace.sol:GeekNftMarketPlace",
								"label": "creator",
								"offset": 0,
								"slot": "4",
								"type": "t_address_payable"
							},
							{
								"astId": 57,
								"contract": "contracts/GeekNftMarketPlace.sol:GeekNftMarketPlace",
								"label": "listed",
								"offset": 20,
								"slot": "4",
								"type": "t_bool"
							}
						],
						"numberOfBytes": "160"
					},
					"t_uint256": {
						"encoding": "inplace",
						"label": "uint256",
						"numberOfBytes": "32"
					}
				}
			},
			"userdoc": {
				"kind": "user",
				"methods": {},
				"version": 1
			}
		}
	}
}