{
	"contracts/GeekNftMarketPlace.sol": {
		"GeekNftMarketPlace": {
			"abi": [
				{
					"inputs": [],
					"stateMutability": "nonpayable",
					"type": "constructor"
				},
				{
					"anonymous": false,
					"inputs": [
						{
							"indexed": false,
							"internalType": "address",
							"name": "nftContract",
							"type": "address"
						},
						{
							"indexed": false,
							"internalType": "uint256",
							"name": "tokenId",
							"type": "uint256"
						},
						{
							"indexed": true,
							"internalType": "address",
							"name": "seller",
							"type": "address"
						},
						{
							"indexed": true,
							"internalType": "address",
							"name": "owner",
							"type": "address"
						},
						{
							"indexed": false,
							"internalType": "uint256",
							"name": "price",
							"type": "uint256"
						}
					],
					"name": "NFTListed",
					"type": "event"
				},
				{
					"anonymous": false,
					"inputs": [
						{
							"indexed": false,
							"internalType": "address",
							"name": "nftContract",
							"type": "address"
						},
						{
							"indexed": false,
							"internalType": "uint256",
							"name": "tokenId",
							"type": "uint256"
						},
						{
							"indexed": true,
							"internalType": "address",
							"name": "seller",
							"type": "address"
						},
						{
							"indexed": true,
							"internalType": "address",
							"name": "owner",
							"type": "address"
						},
						{
							"indexed": false,
							"internalType": "uint256",
							"name": "price",
							"type": "uint256"
						}
					],
					"name": "NFTSold",
					"type": "event"
				},
				{
					"inputs": [],
					"name": "LISTING_FEE",
					"outputs": [
						{
							"internalType": "uint256",
							"name": "",
							"type": "uint256"
						}
					],
					"stateMutability": "view",
					"type": "function"
				},
				{
					"inputs": [
						{
							"internalType": "address",
							"name": "_nftContract",
							"type": "address"
						},
						{
							"internalType": "uint256",
							"name": "_tokenId",
							"type": "uint256"
						},
						{
							"internalType": "uint256",
							"name": "_price",
							"type": "uint256"
						}
					],
					"name": "listNFT",
					"outputs": [],
					"stateMutability": "payable",
					"type": "function"
				}
			],
			"devdoc": {
				"kind": "dev",
				"methods": {},
				"version": 1
			},
			"evm": {
				"assembly": "    /* \"contracts/GeekNftMarketPlace.sol\":252:1246  contract GeekNftMarketPlace is ReentrancyGuard {... */\n  mstore(0x40, 0x80)\n    /* \"contracts/GeekNftMarketPlace.sol\":455:466  0.002 ether */\n  0x071afd498d0000\n    /* \"contracts/GeekNftMarketPlace.sol\":429:466  uint public LISTING_FEE = 0.002 ether */\n  0x03\n  sstore\n    /* \"contracts/GeekNftMarketPlace.sol\":1001:1067  constructor() {... */\n  callvalue\n  dup1\n  iszero\n  tag_1\n  jumpi\n  0x00\n  dup1\n  revert\ntag_1:\n  pop\n    /* \"contracts/RenntrancyGuard.sol\":127:128  1 */\n  0x01\n    /* \"contracts/RenntrancyGuard.sol\":232:239  _status */\n  0x00\n    /* \"contracts/RenntrancyGuard.sol\":232:254  _status = _NOT_ENTERED */\n  dup2\n  swap1\n  sstore\n  pop\n    /* \"contracts/GeekNftMarketPlace.sol\":1049:1059  msg.sender */\n  caller\n    /* \"contracts/GeekNftMarketPlace.sol\":1025:1038  _marketOwwner */\n  0x04\n  0x00\n    /* \"contracts/GeekNftMarketPlace.sol\":1025:1060  _marketOwwner = payable(msg.sender) */\n  0x0100\n  exp\n  dup2\n  sload\n  dup2\n  0xffffffffffffffffffffffffffffffffffffffff\n  mul\n  not\n  and\n  swap1\n  dup4\n  0xffffffffffffffffffffffffffffffffffffffff\n  and\n  mul\n  or\n  swap1\n  sstore\n  pop\n    /* \"contracts/GeekNftMarketPlace.sol\":252:1246  contract GeekNftMarketPlace is ReentrancyGuard {... */\n  dataSize(sub_0)\n  dup1\n  dataOffset(sub_0)\n  0x00\n  codecopy\n  0x00\n  return\nstop\n\nsub_0: assembly {\n        /* \"contracts/GeekNftMarketPlace.sol\":252:1246  contract GeekNftMarketPlace is ReentrancyGuard {... */\n      mstore(0x40, 0x80)\n      jumpi(tag_1, lt(calldatasize, 0x04))\n      shr(0xe0, calldataload(0x00))\n      dup1\n      0x2b86ae38\n      eq\n      tag_2\n      jumpi\n      dup1\n      0xad05f1b4\n      eq\n      tag_3\n      jumpi\n    tag_1:\n      0x00\n      dup1\n      revert\n        /* \"contracts/GeekNftMarketPlace.sol\":429:466  uint public LISTING_FEE = 0.002 ether */\n    tag_2:\n      callvalue\n      dup1\n      iszero\n      tag_4\n      jumpi\n      0x00\n      dup1\n      revert\n    tag_4:\n      pop\n      tag_5\n      tag_6\n      jump\t// in\n    tag_5:\n      mload(0x40)\n      tag_7\n      swap2\n      swap1\n      tag_8\n      jump\t// in\n    tag_7:\n      mload(0x40)\n      dup1\n      swap2\n      sub\n      swap1\n      return\n        /* \"contracts/GeekNftMarketPlace.sol\":1073:1244  function listNFT(address _nftContract, uint _tokenId, uint _price) public payable nonReentrant{... */\n    tag_3:\n      tag_9\n      0x04\n      dup1\n      calldatasize\n      sub\n      dup2\n      add\n      swap1\n      tag_10\n      swap2\n      swap1\n      tag_11\n      jump\t// in\n    tag_10:\n      tag_12\n      jump\t// in\n    tag_9:\n      stop\n        /* \"contracts/GeekNftMarketPlace.sol\":429:466  uint public LISTING_FEE = 0.002 ether */\n    tag_6:\n      sload(0x03)\n      dup2\n      jump\t// out\n        /* \"contracts/GeekNftMarketPlace.sol\":1073:1244  function listNFT(address _nftContract, uint _tokenId, uint _price) public payable nonReentrant{... */\n    tag_12:\n        /* \"contracts/RenntrancyGuard.sol\":170:171  2 */\n      0x02\n        /* \"contracts/RenntrancyGuard.sol\":309:316  _status */\n      sload(0x00)\n        /* \"contracts/RenntrancyGuard.sol\":309:328  _status != _ENTERED */\n      eq\n      iszero\n        /* \"contracts/RenntrancyGuard.sol\":301:364  require(_status != _ENTERED, \"ReentrancyGuard: reentrant call\") */\n      tag_14\n      jumpi\n      mload(0x40)\n      0x08c379a000000000000000000000000000000000000000000000000000000000\n      dup2\n      mstore\n      0x04\n      add\n      tag_15\n      swap1\n      tag_16\n      jump\t// in\n    tag_15:\n      mload(0x40)\n      dup1\n      swap2\n      sub\n      swap1\n      revert\n    tag_14:\n        /* \"contracts/RenntrancyGuard.sol\":170:171  2 */\n      0x02\n        /* \"contracts/RenntrancyGuard.sol\":374:381  _status */\n      0x00\n        /* \"contracts/RenntrancyGuard.sol\":374:392  _status = _ENTERED */\n      dup2\n      swap1\n      sstore\n      pop\n        /* \"contracts/GeekNftMarketPlace.sol\":1194:1195  0 */\n      0x00\n        /* \"contracts/GeekNftMarketPlace.sol\":1185:1191  _price */\n      dup2\n        /* \"contracts/GeekNftMarketPlace.sol\":1185:1195  _price > 0 */\n      gt\n        /* \"contracts/GeekNftMarketPlace.sol\":1177:1228  require(_price > 0, \"Price must be at least 1 wei\") */\n      tag_18\n      jumpi\n      mload(0x40)\n      0x08c379a000000000000000000000000000000000000000000000000000000000\n      dup2\n      mstore\n      0x04\n      add\n      tag_19\n      swap1\n      tag_20\n      jump\t// in\n    tag_19:\n      mload(0x40)\n      dup1\n      swap2\n      sub\n      swap1\n      revert\n    tag_18:\n        /* \"contracts/RenntrancyGuard.sol\":127:128  1 */\n      0x01\n        /* \"contracts/RenntrancyGuard.sol\":413:420  _status */\n      0x00\n        /* \"contracts/RenntrancyGuard.sol\":413:435  _status = _NOT_ENTERED */\n      dup2\n      swap1\n      sstore\n      pop\n        /* \"contracts/GeekNftMarketPlace.sol\":1073:1244  function listNFT(address _nftContract, uint _tokenId, uint _price) public payable nonReentrant{... */\n      pop\n      pop\n      pop\n      jump\t// out\n        /* \"#utility.yul\":7:146   */\n    tag_22:\n      0x00\n        /* \"#utility.yul\":91:97   */\n      dup2\n        /* \"#utility.yul\":78:98   */\n      calldataload\n        /* \"#utility.yul\":69:98   */\n      swap1\n      pop\n        /* \"#utility.yul\":107:140   */\n      tag_24\n        /* \"#utility.yul\":134:139   */\n      dup2\n        /* \"#utility.yul\":107:140   */\n      tag_25\n      jump\t// in\n    tag_24:\n        /* \"#utility.yul\":59:146   */\n      swap3\n      swap2\n      pop\n      pop\n      jump\t// out\n        /* \"#utility.yul\":152:291   */\n    tag_26:\n      0x00\n        /* \"#utility.yul\":236:242   */\n      dup2\n        /* \"#utility.yul\":223:243   */\n      calldataload\n        /* \"#utility.yul\":214:243   */\n      swap1\n      pop\n        /* \"#utility.yul\":252:285   */\n      tag_28\n        /* \"#utility.yul\":279:284   */\n      dup2\n        /* \"#utility.yul\":252:285   */\n      tag_29\n      jump\t// in\n    tag_28:\n        /* \"#utility.yul\":204:291   */\n      swap3\n      swap2\n      pop\n      pop\n      jump\t// out\n        /* \"#utility.yul\":297:849   */\n    tag_11:\n      0x00\n      dup1\n      0x00\n        /* \"#utility.yul\":439:441   */\n      0x60\n        /* \"#utility.yul\":427:436   */\n      dup5\n        /* \"#utility.yul\":418:425   */\n      dup7\n        /* \"#utility.yul\":414:437   */\n      sub\n        /* \"#utility.yul\":410:442   */\n      slt\n        /* \"#utility.yul\":407:409   */\n      iszero\n      tag_31\n      jumpi\n        /* \"#utility.yul\":455:456   */\n      0x00\n        /* \"#utility.yul\":452:453   */\n      dup1\n        /* \"#utility.yul\":445:457   */\n      revert\n        /* \"#utility.yul\":407:409   */\n    tag_31:\n        /* \"#utility.yul\":498:499   */\n      0x00\n        /* \"#utility.yul\":523:576   */\n      tag_32\n        /* \"#utility.yul\":568:575   */\n      dup7\n        /* \"#utility.yul\":559:565   */\n      dup3\n        /* \"#utility.yul\":548:557   */\n      dup8\n        /* \"#utility.yul\":544:566   */\n      add\n        /* \"#utility.yul\":523:576   */\n      tag_22\n      jump\t// in\n    tag_32:\n        /* \"#utility.yul\":513:576   */\n      swap4\n      pop\n        /* \"#utility.yul\":469:586   */\n      pop\n        /* \"#utility.yul\":625:627   */\n      0x20\n        /* \"#utility.yul\":651:704   */\n      tag_33\n        /* \"#utility.yul\":696:703   */\n      dup7\n        /* \"#utility.yul\":687:693   */\n      dup3\n        /* \"#utility.yul\":676:685   */\n      dup8\n        /* \"#utility.yul\":672:694   */\n      add\n        /* \"#utility.yul\":651:704   */\n      tag_26\n      jump\t// in\n    tag_33:\n        /* \"#utility.yul\":641:704   */\n      swap3\n      pop\n        /* \"#utility.yul\":596:714   */\n      pop\n        /* \"#utility.yul\":753:755   */\n      0x40\n        /* \"#utility.yul\":779:832   */\n      tag_34\n        /* \"#utility.yul\":824:831   */\n      dup7\n        /* \"#utility.yul\":815:821   */\n      dup3\n        /* \"#utility.yul\":804:813   */\n      dup8\n        /* \"#utility.yul\":800:822   */\n      add\n        /* \"#utility.yul\":779:832   */\n      tag_26\n      jump\t// in\n    tag_34:\n        /* \"#utility.yul\":769:832   */\n      swap2\n      pop\n        /* \"#utility.yul\":724:842   */\n      pop\n        /* \"#utility.yul\":397:849   */\n      swap3\n      pop\n      swap3\n      pop\n      swap3\n      jump\t// out\n        /* \"#utility.yul\":855:1221   */\n    tag_35:\n      0x00\n        /* \"#utility.yul\":1018:1085   */\n      tag_37\n        /* \"#utility.yul\":1082:1084   */\n      0x1f\n        /* \"#utility.yul\":1077:1080   */\n      dup4\n        /* \"#utility.yul\":1018:1085   */\n      tag_38\n      jump\t// in\n    tag_37:\n        /* \"#utility.yul\":1011:1085   */\n      swap2\n      pop\n        /* \"#utility.yul\":1094:1187   */\n      tag_39\n        /* \"#utility.yul\":1183:1186   */\n      dup3\n        /* \"#utility.yul\":1094:1187   */\n      tag_40\n      jump\t// in\n    tag_39:\n        /* \"#utility.yul\":1212:1214   */\n      0x20\n        /* \"#utility.yul\":1207:1210   */\n      dup3\n        /* \"#utility.yul\":1203:1215   */\n      add\n        /* \"#utility.yul\":1196:1215   */\n      swap1\n      pop\n        /* \"#utility.yul\":1001:1221   */\n      swap2\n      swap1\n      pop\n      jump\t// out\n        /* \"#utility.yul\":1227:1593   */\n    tag_41:\n      0x00\n        /* \"#utility.yul\":1390:1457   */\n      tag_43\n        /* \"#utility.yul\":1454:1456   */\n      0x1c\n        /* \"#utility.yul\":1449:1452   */\n      dup4\n        /* \"#utility.yul\":1390:1457   */\n      tag_38\n      jump\t// in\n    tag_43:\n        /* \"#utility.yul\":1383:1457   */\n      swap2\n      pop\n        /* \"#utility.yul\":1466:1559   */\n      tag_44\n        /* \"#utility.yul\":1555:1558   */\n      dup3\n        /* \"#utility.yul\":1466:1559   */\n      tag_45\n      jump\t// in\n    tag_44:\n        /* \"#utility.yul\":1584:1586   */\n      0x20\n        /* \"#utility.yul\":1579:1582   */\n      dup3\n        /* \"#utility.yul\":1575:1587   */\n      add\n        /* \"#utility.yul\":1568:1587   */\n      swap1\n      pop\n        /* \"#utility.yul\":1373:1593   */\n      swap2\n      swap1\n      pop\n      jump\t// out\n        /* \"#utility.yul\":1599:1717   */\n    tag_46:\n        /* \"#utility.yul\":1686:1710   */\n      tag_48\n        /* \"#utility.yul\":1704:1709   */\n      dup2\n        /* \"#utility.yul\":1686:1710   */\n      tag_49\n      jump\t// in\n    tag_48:\n        /* \"#utility.yul\":1681:1684   */\n      dup3\n        /* \"#utility.yul\":1674:1711   */\n      mstore\n        /* \"#utility.yul\":1664:1717   */\n      pop\n      pop\n      jump\t// out\n        /* \"#utility.yul\":1723:2142   */\n    tag_16:\n      0x00\n        /* \"#utility.yul\":1927:1929   */\n      0x20\n        /* \"#utility.yul\":1916:1925   */\n      dup3\n        /* \"#utility.yul\":1912:1930   */\n      add\n        /* \"#utility.yul\":1904:1930   */\n      swap1\n      pop\n        /* \"#utility.yul\":1976:1985   */\n      dup2\n        /* \"#utility.yul\":1970:1974   */\n      dup2\n        /* \"#utility.yul\":1966:1986   */\n      sub\n        /* \"#utility.yul\":1962:1963   */\n      0x00\n        /* \"#utility.yul\":1951:1960   */\n      dup4\n        /* \"#utility.yul\":1947:1964   */\n      add\n        /* \"#utility.yul\":1940:1987   */\n      mstore\n        /* \"#utility.yul\":2004:2135   */\n      tag_51\n        /* \"#utility.yul\":2130:2134   */\n      dup2\n        /* \"#utility.yul\":2004:2135   */\n      tag_35\n      jump\t// in\n    tag_51:\n        /* \"#utility.yul\":1996:2135   */\n      swap1\n      pop\n        /* \"#utility.yul\":1894:2142   */\n      swap2\n      swap1\n      pop\n      jump\t// out\n        /* \"#utility.yul\":2148:2567   */\n    tag_20:\n      0x00\n        /* \"#utility.yul\":2352:2354   */\n      0x20\n        /* \"#utility.yul\":2341:2350   */\n      dup3\n        /* \"#utility.yul\":2337:2355   */\n      add\n        /* \"#utility.yul\":2329:2355   */\n      swap1\n      pop\n        /* \"#utility.yul\":2401:2410   */\n      dup2\n        /* \"#utility.yul\":2395:2399   */\n      dup2\n        /* \"#utility.yul\":2391:2411   */\n      sub\n        /* \"#utility.yul\":2387:2388   */\n      0x00\n        /* \"#utility.yul\":2376:2385   */\n      dup4\n        /* \"#utility.yul\":2372:2389   */\n      add\n        /* \"#utility.yul\":2365:2412   */\n      mstore\n        /* \"#utility.yul\":2429:2560   */\n      tag_53\n        /* \"#utility.yul\":2555:2559   */\n      dup2\n        /* \"#utility.yul\":2429:2560   */\n      tag_41\n      jump\t// in\n    tag_53:\n        /* \"#utility.yul\":2421:2560   */\n      swap1\n      pop\n        /* \"#utility.yul\":2319:2567   */\n      swap2\n      swap1\n      pop\n      jump\t// out\n        /* \"#utility.yul\":2573:2795   */\n    tag_8:\n      0x00\n        /* \"#utility.yul\":2704:2706   */\n      0x20\n        /* \"#utility.yul\":2693:2702   */\n      dup3\n        /* \"#utility.yul\":2689:2707   */\n      add\n        /* \"#utility.yul\":2681:2707   */\n      swap1\n      pop\n        /* \"#utility.yul\":2717:2788   */\n      tag_55\n        /* \"#utility.yul\":2785:2786   */\n      0x00\n        /* \"#utility.yul\":2774:2783   */\n      dup4\n        /* \"#utility.yul\":2770:2787   */\n      add\n        /* \"#utility.yul\":2761:2767   */\n      dup5\n        /* \"#utility.yul\":2717:2788   */\n      tag_46\n      jump\t// in\n    tag_55:\n        /* \"#utility.yul\":2671:2795   */\n      swap3\n      swap2\n      pop\n      pop\n      jump\t// out\n        /* \"#utility.yul\":2801:2970   */\n    tag_38:\n      0x00\n        /* \"#utility.yul\":2919:2925   */\n      dup3\n        /* \"#utility.yul\":2914:2917   */\n      dup3\n        /* \"#utility.yul\":2907:2926   */\n      mstore\n        /* \"#utility.yul\":2959:2963   */\n      0x20\n        /* \"#utility.yul\":2954:2957   */\n      dup3\n        /* \"#utility.yul\":2950:2964   */\n      add\n        /* \"#utility.yul\":2935:2964   */\n      swap1\n      pop\n        /* \"#utility.yul\":2897:2970   */\n      swap3\n      swap2\n      pop\n      pop\n      jump\t// out\n        /* \"#utility.yul\":2976:3072   */\n    tag_57:\n      0x00\n        /* \"#utility.yul\":3042:3066   */\n      tag_59\n        /* \"#utility.yul\":3060:3065   */\n      dup3\n        /* \"#utility.yul\":3042:3066   */\n      tag_60\n      jump\t// in\n    tag_59:\n        /* \"#utility.yul\":3031:3066   */\n      swap1\n      pop\n        /* \"#utility.yul\":3021:3072   */\n      swap2\n      swap1\n      pop\n      jump\t// out\n        /* \"#utility.yul\":3078:3204   */\n    tag_60:\n      0x00\n        /* \"#utility.yul\":3155:3197   */\n      0xffffffffffffffffffffffffffffffffffffffff\n        /* \"#utility.yul\":3148:3153   */\n      dup3\n        /* \"#utility.yul\":3144:3198   */\n      and\n        /* \"#utility.yul\":3133:3198   */\n      swap1\n      pop\n        /* \"#utility.yul\":3123:3204   */\n      swap2\n      swap1\n      pop\n      jump\t// out\n        /* \"#utility.yul\":3210:3287   */\n    tag_49:\n      0x00\n        /* \"#utility.yul\":3276:3281   */\n      dup2\n        /* \"#utility.yul\":3265:3281   */\n      swap1\n      pop\n        /* \"#utility.yul\":3255:3287   */\n      swap2\n      swap1\n      pop\n      jump\t// out\n        /* \"#utility.yul\":3293:3474   */\n    tag_40:\n        /* \"#utility.yul\":3433:3466   */\n      0x5265656e7472616e637947756172643a207265656e7472616e742063616c6c00\n        /* \"#utility.yul\":3429:3430   */\n      0x00\n        /* \"#utility.yul\":3421:3427   */\n      dup3\n        /* \"#utility.yul\":3417:3431   */\n      add\n        /* \"#utility.yul\":3410:3467   */\n      mstore\n        /* \"#utility.yul\":3399:3474   */\n      pop\n      jump\t// out\n        /* \"#utility.yul\":3480:3658   */\n    tag_45:\n        /* \"#utility.yul\":3620:3650   */\n      0x5072696365206d757374206265206174206c6561737420312077656900000000\n        /* \"#utility.yul\":3616:3617   */\n      0x00\n        /* \"#utility.yul\":3608:3614   */\n      dup3\n        /* \"#utility.yul\":3604:3618   */\n      add\n        /* \"#utility.yul\":3597:3651   */\n      mstore\n        /* \"#utility.yul\":3586:3658   */\n      pop\n      jump\t// out\n        /* \"#utility.yul\":3664:3786   */\n    tag_25:\n        /* \"#utility.yul\":3737:3761   */\n      tag_66\n        /* \"#utility.yul\":3755:3760   */\n      dup2\n        /* \"#utility.yul\":3737:3761   */\n      tag_57\n      jump\t// in\n    tag_66:\n        /* \"#utility.yul\":3730:3735   */\n      dup2\n        /* \"#utility.yul\":3727:3762   */\n      eq\n        /* \"#utility.yul\":3717:3719   */\n      tag_67\n      jumpi\n        /* \"#utility.yul\":3776:3777   */\n      0x00\n        /* \"#utility.yul\":3773:3774   */\n      dup1\n        /* \"#utility.yul\":3766:3778   */\n      revert\n        /* \"#utility.yul\":3717:3719   */\n    tag_67:\n        /* \"#utility.yul\":3707:3786   */\n      pop\n      jump\t// out\n        /* \"#utility.yul\":3792:3914   */\n    tag_29:\n        /* \"#utility.yul\":3865:3889   */\n      tag_69\n        /* \"#utility.yul\":3883:3888   */\n      dup2\n        /* \"#utility.yul\":3865:3889   */\n      tag_49\n      jump\t// in\n    tag_69:\n        /* \"#utility.yul\":3858:3863   */\n      dup2\n        /* \"#utility.yul\":3855:3890   */\n      eq\n        /* \"#utility.yul\":3845:3847   */\n      tag_70\n      jumpi\n        /* \"#utility.yul\":3904:3905   */\n      0x00\n        /* \"#utility.yul\":3901:3902   */\n      dup1\n        /* \"#utility.yul\":3894:3906   */\n      revert\n        /* \"#utility.yul\":3845:3847   */\n    tag_70:\n        /* \"#utility.yul\":3835:3914   */\n      pop\n      jump\t// out\n\n    auxdata: 0xa2646970667358221220ca77c6683b1cf14483c53c45af25cad3b6bfa374bbbb790fa0ce230dee8103cc64736f6c63430008010033\n}\n",
				"bytecode": {
					"linkReferences": {},
					"object": "608060405266071afd498d000060035534801561001b57600080fd5b50600160008190555033600460006101000a81548173ffffffffffffffffffffffffffffffffffffffff021916908373ffffffffffffffffffffffffffffffffffffffff160217905550610345806100746000396000f3fe6080604052600436106100295760003560e01c80632b86ae381461002e578063ad05f1b414610059575b600080fd5b34801561003a57600080fd5b50610043610075565b6040516100509190610227565b60405180910390f35b610073600480360381019061006e9190610143565b61007b565b005b60035481565b600260005414156100c1576040517f08c379a00000000000000000000000000000000000000000000000000000000081526004016100b8906101e7565b60405180910390fd5b60026000819055506000811161010c576040517f08c379a000000000000000000000000000000000000000000000000000000000815260040161010390610207565b60405180910390fd5b6001600081905550505050565b600081359050610128816102e1565b92915050565b60008135905061013d816102f8565b92915050565b60008060006060848603121561015857600080fd5b600061016686828701610119565b93505060206101778682870161012e565b92505060406101888682870161012e565b9150509250925092565b600061019f601f83610242565b91506101aa8261028f565b602082019050919050565b60006101c2601c83610242565b91506101cd826102b8565b602082019050919050565b6101e181610285565b82525050565b6000602082019050818103600083015261020081610192565b9050919050565b60006020820190508181036000830152610220816101b5565b9050919050565b600060208201905061023c60008301846101d8565b92915050565b600082825260208201905092915050565b600061025e82610265565b9050919050565b600073ffffffffffffffffffffffffffffffffffffffff82169050919050565b6000819050919050565b7f5265656e7472616e637947756172643a207265656e7472616e742063616c6c00600082015250565b7f5072696365206d757374206265206174206c6561737420312077656900000000600082015250565b6102ea81610253565b81146102f557600080fd5b50565b61030181610285565b811461030c57600080fd5b5056fea2646970667358221220ca77c6683b1cf14483c53c45af25cad3b6bfa374bbbb790fa0ce230dee8103cc64736f6c63430008010033",
					"opcodes": "PUSH1 0x80 PUSH1 0x40 MSTORE PUSH7 0x71AFD498D0000 PUSH1 0x3 SSTORE CALLVALUE DUP1 ISZERO PUSH2 0x1B JUMPI PUSH1 0x0 DUP1 REVERT JUMPDEST POP PUSH1 0x1 PUSH1 0x0 DUP2 SWAP1 SSTORE POP CALLER PUSH1 0x4 PUSH1 0x0 PUSH2 0x100 EXP DUP2 SLOAD DUP2 PUSH20 0xFFFFFFFFFFFFFFFFFFFFFFFFFFFFFFFFFFFFFFFF MUL NOT AND SWAP1 DUP4 PUSH20 0xFFFFFFFFFFFFFFFFFFFFFFFFFFFFFFFFFFFFFFFF AND MUL OR SWAP1 SSTORE POP PUSH2 0x345 DUP1 PUSH2 0x74 PUSH1 0x0 CODECOPY PUSH1 0x0 RETURN INVALID PUSH1 0x80 PUSH1 0x40 MSTORE PUSH1 0x4 CALLDATASIZE LT PUSH2 0x29 JUMPI PUSH1 0x0 CALLDATALOAD PUSH1 0xE0 SHR DUP1 PUSH4 0x2B86AE38 EQ PUSH2 0x2E JUMPI DUP1 PUSH4 0xAD05F1B4 EQ PUSH2 0x59 JUMPI JUMPDEST PUSH1 0x0 DUP1 REVERT JUMPDEST CALLVALUE DUP1 ISZERO PUSH2 0x3A JUMPI PUSH1 0x0 DUP1 REVERT JUMPDEST POP PUSH2 0x43 PUSH2 0x75 JUMP JUMPDEST PUSH1 0x40 MLOAD PUSH2 0x50 SWAP2 SWAP1 PUSH2 0x227 JUMP JUMPDEST PUSH1 0x40 MLOAD DUP1 SWAP2 SUB SWAP1 RETURN JUMPDEST PUSH2 0x73 PUSH1 0x4 DUP1 CALLDATASIZE SUB DUP2 ADD SWAP1 PUSH2 0x6E SWAP2 SWAP1 PUSH2 0x143 JUMP JUMPDEST PUSH2 0x7B JUMP JUMPDEST STOP JUMPDEST PUSH1 0x3 SLOAD DUP2 JUMP JUMPDEST PUSH1 0x2 PUSH1 0x0 SLOAD EQ ISZERO PUSH2 0xC1 JUMPI PUSH1 0x40 MLOAD PUSH32 0x8C379A000000000000000000000000000000000000000000000000000000000 DUP2 MSTORE PUSH1 0x4 ADD PUSH2 0xB8 SWAP1 PUSH2 0x1E7 JUMP JUMPDEST PUSH1 0x40 MLOAD DUP1 SWAP2 SUB SWAP1 REVERT JUMPDEST PUSH1 0x2 PUSH1 0x0 DUP2 SWAP1 SSTORE POP PUSH1 0x0 DUP2 GT PUSH2 0x10C JUMPI PUSH1 0x40 MLOAD PUSH32 0x8C379A000000000000000000000000000000000000000000000000000000000 DUP2 MSTORE PUSH1 0x4 ADD PUSH2 0x103 SWAP1 PUSH2 0x207 JUMP JUMPDEST PUSH1 0x40 MLOAD DUP1 SWAP2 SUB SWAP1 REVERT JUMPDEST PUSH1 0x1 PUSH1 0x0 DUP2 SWAP1 SSTORE POP POP POP POP JUMP JUMPDEST PUSH1 0x0 DUP2 CALLDATALOAD SWAP1 POP PUSH2 0x128 DUP2 PUSH2 0x2E1 JUMP JUMPDEST SWAP3 SWAP2 POP POP JUMP JUMPDEST PUSH1 0x0 DUP2 CALLDATALOAD SWAP1 POP PUSH2 0x13D DUP2 PUSH2 0x2F8 JUMP JUMPDEST SWAP3 SWAP2 POP POP JUMP JUMPDEST PUSH1 0x0 DUP1 PUSH1 0x0 PUSH1 0x60 DUP5 DUP7 SUB SLT ISZERO PUSH2 0x158 JUMPI PUSH1 0x0 DUP1 REVERT JUMPDEST PUSH1 0x0 PUSH2 0x166 DUP7 DUP3 DUP8 ADD PUSH2 0x119 JUMP JUMPDEST SWAP4 POP POP PUSH1 0x20 PUSH2 0x177 DUP7 DUP3 DUP8 ADD PUSH2 0x12E JUMP JUMPDEST SWAP3 POP POP PUSH1 0x40 PUSH2 0x188 DUP7 DUP3 DUP8 ADD PUSH2 0x12E JUMP JUMPDEST SWAP2 POP POP SWAP3 POP SWAP3 POP SWAP3 JUMP JUMPDEST PUSH1 0x0 PUSH2 0x19F PUSH1 0x1F DUP4 PUSH2 0x242 JUMP JUMPDEST SWAP2 POP PUSH2 0x1AA DUP3 PUSH2 0x28F JUMP JUMPDEST PUSH1 0x20 DUP3 ADD SWAP1 POP SWAP2 SWAP1 POP JUMP JUMPDEST PUSH1 0x0 PUSH2 0x1C2 PUSH1 0x1C DUP4 PUSH2 0x242 JUMP JUMPDEST SWAP2 POP PUSH2 0x1CD DUP3 PUSH2 0x2B8 JUMP JUMPDEST PUSH1 0x20 DUP3 ADD SWAP1 POP SWAP2 SWAP1 POP JUMP JUMPDEST PUSH2 0x1E1 DUP2 PUSH2 0x285 JUMP JUMPDEST DUP3 MSTORE POP POP JUMP JUMPDEST PUSH1 0x0 PUSH1 0x20 DUP3 ADD SWAP1 POP DUP2 DUP2 SUB PUSH1 0x0 DUP4 ADD MSTORE PUSH2 0x200 DUP2 PUSH2 0x192 JUMP JUMPDEST SWAP1 POP SWAP2 SWAP1 POP JUMP JUMPDEST PUSH1 0x0 PUSH1 0x20 DUP3 ADD SWAP1 POP DUP2 DUP2 SUB PUSH1 0x0 DUP4 ADD MSTORE PUSH2 0x220 DUP2 PUSH2 0x1B5 JUMP JUMPDEST SWAP1 POP SWAP2 SWAP1 POP JUMP JUMPDEST PUSH1 0x0 PUSH1 0x20 DUP3 ADD SWAP1 POP PUSH2 0x23C PUSH1 0x0 DUP4 ADD DUP5 PUSH2 0x1D8 JUMP JUMPDEST SWAP3 SWAP2 POP POP JUMP JUMPDEST PUSH1 0x0 DUP3 DUP3 MSTORE PUSH1 0x20 DUP3 ADD SWAP1 POP SWAP3 SWAP2 POP POP JUMP JUMPDEST PUSH1 0x0 PUSH2 0x25E DUP3 PUSH2 0x265 JUMP JUMPDEST SWAP1 POP SWAP2 SWAP1 POP JUMP JUMPDEST PUSH1 0x0 PUSH20 0xFFFFFFFFFFFFFFFFFFFFFFFFFFFFFFFFFFFFFFFF DUP3 AND SWAP1 POP SWAP2 SWAP1 POP JUMP JUMPDEST PUSH1 0x0 DUP2 SWAP1 POP SWAP2 SWAP1 POP JUMP JUMPDEST PUSH32 0x5265656E7472616E637947756172643A207265656E7472616E742063616C6C00 PUSH1 0x0 DUP3 ADD MSTORE POP JUMP JUMPDEST PUSH32 0x5072696365206D757374206265206174206C6561737420312077656900000000 PUSH1 0x0 DUP3 ADD MSTORE POP JUMP JUMPDEST PUSH2 0x2EA DUP2 PUSH2 0x253 JUMP JUMPDEST DUP2 EQ PUSH2 0x2F5 JUMPI PUSH1 0x0 DUP1 REVERT JUMPDEST POP JUMP JUMPDEST PUSH2 0x301 DUP2 PUSH2 0x285 JUMP JUMPDEST DUP2 EQ PUSH2 0x30C JUMPI PUSH1 0x0 DUP1 REVERT JUMPDEST POP JUMP INVALID LOG2 PUSH5 0x6970667358 0x22 SLT KECCAK256 0xCA PUSH24 0xC6683B1CF14483C53C45AF25CAD3B6BFA374BBBB790FA0CE 0x23 0xD 0xEE DUP2 SUB 0xCC PUSH5 0x736F6C6343 STOP ADDMOD ADD STOP CALLER "
				},
				"gasEstimates": {
					"creation": {
						"codeDepositCost": "167400",
						"executionCost": "61100",
						"totalCost": "228500"
					},
					"external": {
						"LISTING_FEE()": "1107",
						"listNFT(address,uint256,uint256)": "infinite"
					}
				},
				"methodIdentifiers": {
					"LISTING_FEE()": "2b86ae38",
					"listNFT(address,uint256,uint256)": "ad05f1b4"
				}
			},
			"storageLayout": {
				"storage": [
					{
						"astId": 190,
						"contract": "contracts/GeekNftMarketPlace.sol:GeekNftMarketPlace",
						"label": "_status",
						"offset": 0,
						"slot": "0",
						"type": "t_uint256"
					},
					{
						"astId": 96,
						"contract": "contracts/GeekNftMarketPlace.sol:GeekNftMarketPlace",
						"label": "_nftsSold",
						"offset": 0,
						"slot": "1",
						"type": "t_struct(Counter)5_storage"
					},
					{
						"astId": 99,
						"contract": "contracts/GeekNftMarketPlace.sol:GeekNftMarketPlace",
						"label": "_nftsCount",
						"offset": 0,
						"slot": "2",
						"type": "t_struct(Counter)5_storage"
					},
					{
						"astId": 102,
						"contract": "contracts/GeekNftMarketPlace.sol:GeekNftMarketPlace",
						"label": "LISTING_FEE",
						"offset": 0,
						"slot": "3",
						"type": "t_uint256"
					},
					{
						"astId": 104,
						"contract": "contracts/GeekNftMarketPlace.sol:GeekNftMarketPlace",
						"label": "_marketOwwner",
						"offset": 0,
						"slot": "4",
						"type": "t_address_payable"
					},
					{
						"astId": 109,
						"contract": "contracts/GeekNftMarketPlace.sol:GeekNftMarketPlace",
						"label": "_idToNft",
						"offset": 0,
						"slot": "5",
						"type": "t_mapping(t_uint256,t_struct(NFT)124_storage)"
					}
				],
				"types": {
					"t_address": {
						"encoding": "inplace",
						"label": "address",
						"numberOfBytes": "20"
					},
					"t_address_payable": {
						"encoding": "inplace",
						"label": "address payable",
						"numberOfBytes": "20"
					},
					"t_bool": {
						"encoding": "inplace",
						"label": "bool",
						"numberOfBytes": "1"
					},
					"t_mapping(t_uint256,t_struct(NFT)124_storage)": {
						"encoding": "mapping",
						"key": "t_uint256",
						"label": "mapping(uint256 => struct GeekNftMarketPlace.NFT)",
						"numberOfBytes": "32",
						"value": "t_struct(NFT)124_storage"
					},
					"t_struct(Counter)5_storage": {
						"encoding": "inplace",
						"label": "struct Counters.Counter",
						"members": [
							{
								"astId": 4,
								"contract": "contracts/GeekNftMarketPlace.sol:GeekNftMarketPlace",
								"label": "_value",
								"offset": 0,
								"slot": "0",
								"type": "t_uint256"
							}
						],
						"numberOfBytes": "32"
					},
					"t_struct(NFT)124_storage": {
						"encoding": "inplace",
						"label": "struct GeekNftMarketPlace.NFT",
						"members": [
							{
								"astId": 111,
								"contract": "contracts/GeekNftMarketPlace.sol:GeekNftMarketPlace",
								"label": "nftContract",
								"offset": 0,
								"slot": "0",
								"type": "t_address"
							},
							{
								"astId": 113,
								"contract": "contracts/GeekNftMarketPlace.sol:GeekNftMarketPlace",
								"label": "tokenId",
								"offset": 0,
								"slot": "1",
								"type": "t_uint256"
							},
							{
								"astId": 115,
								"contract": "contracts/GeekNftMarketPlace.sol:GeekNftMarketPlace",
								"label": "price",
								"offset": 0,
								"slot": "2",
								"type": "t_uint256"
							},
							{
								"astId": 117,
								"contract": "contracts/GeekNftMarketPlace.sol:GeekNftMarketPlace",
								"label": "seller",
								"offset": 0,
								"slot": "3",
								"type": "t_address_payable"
							},
							{
								"astId": 119,
								"contract": "contracts/GeekNftMarketPlace.sol:GeekNftMarketPlace",
								"label": "owner",
								"offset": 0,
								"slot": "4",
								"type": "t_address_payable"
							},
							{
								"astId": 121,
								"contract": "contracts/GeekNftMarketPlace.sol:GeekNftMarketPlace",
								"label": "creator",
								"offset": 0,
								"slot": "5",
								"type": "t_address_payable"
							},
							{
								"astId": 123,
								"contract": "contracts/GeekNftMarketPlace.sol:GeekNftMarketPlace",
								"label": "listed",
								"offset": 20,
								"slot": "5",
								"type": "t_bool"
							}
						],
						"numberOfBytes": "192"
					},
					"t_uint256": {
						"encoding": "inplace",
						"label": "uint256",
						"numberOfBytes": "32"
					}
				}
			},
			"userdoc": {
				"kind": "user",
				"methods": {},
				"version": 1
			}
		}
	}
}