{
	"contracts/GeekNft.sol": {
		"GeekNft": {
			"abi": [
				{
					"inputs": [],
					"stateMutability": "nonpayable",
					"type": "constructor"
				},
				{
					"anonymous": false,
					"inputs": [
						{
							"indexed": true,
							"internalType": "address",
							"name": "_from",
							"type": "address"
						},
						{
							"indexed": true,
							"internalType": "address",
							"name": "_to",
							"type": "address"
						},
						{
							"indexed": false,
							"internalType": "uint256",
							"name": "_tokenId",
							"type": "uint256"
						}
					],
					"name": "Transfer",
					"type": "event"
				},
				{
					"inputs": [
						{
							"internalType": "uint256",
							"name": "_tokenId",
							"type": "uint256"
						}
					],
					"name": "addItemToSell",
					"outputs": [],
					"stateMutability": "nonpayable",
					"type": "function"
				},
				{
					"inputs": [
						{
							"internalType": "address",
							"name": "_owner",
							"type": "address"
						}
					],
					"name": "balanceOf",
					"outputs": [
						{
							"internalType": "uint256",
							"name": "",
							"type": "uint256"
						}
					],
					"stateMutability": "view",
					"type": "function"
				},
				{
					"inputs": [
						{
							"internalType": "uint256",
							"name": "_price",
							"type": "uint256"
						}
					],
					"name": "createItem",
					"outputs": [
						{
							"internalType": "uint256",
							"name": "",
							"type": "uint256"
						}
					],
					"stateMutability": "view",
					"type": "function"
				},
				{
					"inputs": [
						{
							"internalType": "uint256",
							"name": "_catId",
							"type": "uint256"
						}
					],
					"name": "fetchItemsByCatId",
					"outputs": [
						{
							"components": [
								{
									"internalType": "uint256",
									"name": "tokenId",
									"type": "uint256"
								},
								{
									"internalType": "uint256",
									"name": "price",
									"type": "uint256"
								},
								{
									"internalType": "uint256",
									"name": "catId",
									"type": "uint256"
								},
								{
									"internalType": "bool",
									"name": "toSell",
									"type": "bool"
								}
							],
							"internalType": "struct GeekNft.Item[]",
							"name": "",
							"type": "tuple[]"
						}
					],
					"stateMutability": "view",
					"type": "function"
				},
				{
					"inputs": [],
					"name": "fetchItemsByOwner",
					"outputs": [
						{
							"components": [
								{
									"internalType": "uint256",
									"name": "tokenId",
									"type": "uint256"
								},
								{
									"internalType": "uint256",
									"name": "price",
									"type": "uint256"
								},
								{
									"internalType": "uint256",
									"name": "catId",
									"type": "uint256"
								},
								{
									"internalType": "bool",
									"name": "toSell",
									"type": "bool"
								}
							],
							"internalType": "struct GeekNft.Item[]",
							"name": "",
							"type": "tuple[]"
						}
					],
					"stateMutability": "view",
					"type": "function"
				},
				{
					"inputs": [],
					"name": "fetchItemsToSell",
					"outputs": [
						{
							"components": [
								{
									"internalType": "uint256",
									"name": "tokenId",
									"type": "uint256"
								},
								{
									"internalType": "uint256",
									"name": "price",
									"type": "uint256"
								},
								{
									"internalType": "uint256",
									"name": "catId",
									"type": "uint256"
								},
								{
									"internalType": "bool",
									"name": "toSell",
									"type": "bool"
								}
							],
							"internalType": "struct GeekNft.Item[]",
							"name": "",
							"type": "tuple[]"
						}
					],
					"stateMutability": "view",
					"type": "function"
				},
				{
					"inputs": [],
					"name": "getFeesPercentage",
					"outputs": [
						{
							"internalType": "uint256",
							"name": "",
							"type": "uint256"
						}
					],
					"stateMutability": "view",
					"type": "function"
				},
				{
					"inputs": [
						{
							"internalType": "uint256",
							"name": "_newPercentage",
							"type": "uint256"
						}
					],
					"name": "modifyFeesPercentage",
					"outputs": [],
					"stateMutability": "nonpayable",
					"type": "function"
				},
				{
					"inputs": [
						{
							"internalType": "uint256",
							"name": "_tokenId",
							"type": "uint256"
						}
					],
					"name": "ownerOf",
					"outputs": [
						{
							"internalType": "address",
							"name": "",
							"type": "address"
						}
					],
					"stateMutability": "view",
					"type": "function"
				},
				{
					"inputs": [
						{
							"internalType": "uint256",
							"name": "_tokenId",
							"type": "uint256"
						}
					],
					"name": "removeItemToSell",
					"outputs": [],
					"stateMutability": "nonpayable",
					"type": "function"
				},
				{
					"inputs": [
						{
							"internalType": "uint256",
							"name": "_tokenId",
							"type": "uint256"
						}
					],
					"name": "sellItem",
					"outputs": [],
					"stateMutability": "payable",
					"type": "function"
				}
			],
			"devdoc": {
				"kind": "dev",
				"methods": {},
				"version": 1
			},
			"evm": {
				"assembly": "    /* \"contracts/GeekNft.sol\":56:4555  contract GeekNft {... */\n  mstore(0x40, 0x80)\n    /* \"contracts/GeekNft.sol\":523:628  constructor() {... */\n  callvalue\n  dup1\n  iszero\n  tag_1\n  jumpi\n  0x00\n  dup1\n  revert\ntag_1:\n  pop\n    /* \"contracts/GeekNft.sol\":555:565  msg.sender */\n  caller\n    /* \"contracts/GeekNft.sol\":547:552  owner */\n  0x02\n  0x00\n    /* \"contracts/GeekNft.sol\":547:565  owner = msg.sender */\n  0x0100\n  exp\n  dup2\n  sload\n  dup2\n  0xffffffffffffffffffffffffffffffffffffffff\n  mul\n  not\n  and\n  swap1\n  dup4\n  0xffffffffffffffffffffffffffffffffffffffff\n  and\n  mul\n  or\n  swap1\n  sstore\n  pop\n    /* \"contracts/GeekNft.sol\":575:595  name = \"Geek Tokens\" */\n  mload(0x40)\n  dup1\n  0x40\n  add\n  0x40\n  mstore\n  dup1\n  0x0b\n  dup2\n  mstore\n  0x20\n  add\n  0x4765656b20546f6b656e73000000000000000000000000000000000000000000\n  dup2\n  mstore\n  pop\n    /* \"contracts/GeekNft.sol\":575:579  name */\n  0x00\n    /* \"contracts/GeekNft.sol\":575:595  name = \"Geek Tokens\" */\n  swap1\n  dup1\n  mload\n  swap1\n  0x20\n  add\n  swap1\n  tag_4\n  swap3\n  swap2\n  swap1\n  tag_5\n  jump\t// in\ntag_4:\n  pop\n    /* \"contracts/GeekNft.sol\":605:621  symbol = \"GEEKT\" */\n  mload(0x40)\n  dup1\n  0x40\n  add\n  0x40\n  mstore\n  dup1\n  0x05\n  dup2\n  mstore\n  0x20\n  add\n  0x4745454b54000000000000000000000000000000000000000000000000000000\n  dup2\n  mstore\n  pop\n    /* \"contracts/GeekNft.sol\":605:611  symbol */\n  0x01\n    /* \"contracts/GeekNft.sol\":605:621  symbol = \"GEEKT\" */\n  swap1\n  dup1\n  mload\n  swap1\n  0x20\n  add\n  swap1\n  tag_6\n  swap3\n  swap2\n  swap1\n  tag_5\n  jump\t// in\ntag_6:\n  pop\n    /* \"contracts/GeekNft.sol\":56:4555  contract GeekNft {... */\n  jump(tag_7)\ntag_5:\n  dup3\n  dup1\n  sload\n  tag_8\n  swap1\n  tag_9\n  jump\t// in\ntag_8:\n  swap1\n  0x00\n  mstore\n  keccak256(0x00, 0x20)\n  swap1\n  0x1f\n  add\n  0x20\n  swap1\n  div\n  dup2\n  add\n  swap3\n  dup3\n  tag_11\n  jumpi\n  0x00\n  dup6\n  sstore\n  jump(tag_10)\ntag_11:\n  dup3\n  0x1f\n  lt\n  tag_12\n  jumpi\n  dup1\n  mload\n  not(0xff)\n  and\n  dup4\n  dup1\n  add\n  or\n  dup6\n  sstore\n  jump(tag_10)\ntag_12:\n  dup3\n  dup1\n  add\n  0x01\n  add\n  dup6\n  sstore\n  dup3\n  iszero\n  tag_10\n  jumpi\n  swap2\n  dup3\n  add\ntag_13:\n  dup3\n  dup2\n  gt\n  iszero\n  tag_14\n  jumpi\n  dup3\n  mload\n  dup3\n  sstore\n  swap2\n  0x20\n  add\n  swap2\n  swap1\n  0x01\n  add\n  swap1\n  jump(tag_13)\ntag_14:\ntag_10:\n  pop\n  swap1\n  pop\n  tag_15\n  swap2\n  swap1\n  tag_16\n  jump\t// in\ntag_15:\n  pop\n  swap1\n  jump\t// out\ntag_16:\ntag_17:\n  dup1\n  dup3\n  gt\n  iszero\n  tag_18\n  jumpi\n  0x00\n  dup2\n  0x00\n  swap1\n  sstore\n  pop\n  0x01\n  add\n  jump(tag_17)\ntag_18:\n  pop\n  swap1\n  jump\t// out\n    /* \"#utility.yul\":7:327   */\ntag_9:\n  0x00\n    /* \"#utility.yul\":88:89   */\n  0x02\n    /* \"#utility.yul\":82:86   */\n  dup3\n    /* \"#utility.yul\":78:90   */\n  div\n    /* \"#utility.yul\":68:90   */\n  swap1\n  pop\n    /* \"#utility.yul\":135:136   */\n  0x01\n    /* \"#utility.yul\":129:133   */\n  dup3\n    /* \"#utility.yul\":125:137   */\n  and\n    /* \"#utility.yul\":156:174   */\n  dup1\n    /* \"#utility.yul\":146:148   */\n  tag_21\n  jumpi\n    /* \"#utility.yul\":212:216   */\n  0x7f\n    /* \"#utility.yul\":204:210   */\n  dup3\n    /* \"#utility.yul\":200:217   */\n  and\n    /* \"#utility.yul\":190:217   */\n  swap2\n  pop\n    /* \"#utility.yul\":146:148   */\ntag_21:\n    /* \"#utility.yul\":274:276   */\n  0x20\n    /* \"#utility.yul\":266:272   */\n  dup3\n    /* \"#utility.yul\":263:277   */\n  lt\n    /* \"#utility.yul\":243:261   */\n  dup2\n    /* \"#utility.yul\":240:278   */\n  eq\n    /* \"#utility.yul\":237:239   */\n  iszero\n  tag_22\n  jumpi\n    /* \"#utility.yul\":293:311   */\n  tag_23\n  tag_24\n  jump\t// in\ntag_23:\n    /* \"#utility.yul\":237:239   */\ntag_22:\n    /* \"#utility.yul\":58:327   */\n  pop\n  swap2\n  swap1\n  pop\n  jump\t// out\n    /* \"#utility.yul\":333:513   */\ntag_24:\n    /* \"#utility.yul\":381:458   */\n  0x4e487b7100000000000000000000000000000000000000000000000000000000\n    /* \"#utility.yul\":378:379   */\n  0x00\n    /* \"#utility.yul\":371:459   */\n  mstore\n    /* \"#utility.yul\":478:482   */\n  0x22\n    /* \"#utility.yul\":475:476   */\n  0x04\n    /* \"#utility.yul\":468:483   */\n  mstore\n    /* \"#utility.yul\":502:506   */\n  0x24\n    /* \"#utility.yul\":499:500   */\n  0x00\n    /* \"#utility.yul\":492:507   */\n  revert\n    /* \"contracts/GeekNft.sol\":56:4555  contract GeekNft {... */\ntag_7:\n  dataSize(sub_0)\n  dup1\n  dataOffset(sub_0)\n  0x00\n  codecopy\n  0x00\n  return\nstop\n\nsub_0: assembly {\n        /* \"contracts/GeekNft.sol\":56:4555  contract GeekNft {... */\n      mstore(0x40, 0x80)\n      jumpi(tag_1, lt(calldatasize, 0x04))\n      shr(0xe0, calldataload(0x00))\n      dup1\n      0x70a08231\n      gt\n      tag_13\n      jumpi\n      dup1\n      0x70a08231\n      eq\n      tag_7\n      jumpi\n      dup1\n      0x91b6be9a\n      eq\n      tag_8\n      jumpi\n      dup1\n      0xa4964c33\n      eq\n      tag_9\n      jumpi\n      dup1\n      0xc0f202ef\n      eq\n      tag_10\n      jumpi\n      dup1\n      0xd7a5d5d3\n      eq\n      tag_11\n      jumpi\n      dup1\n      0xea0ff14a\n      eq\n      tag_12\n      jumpi\n      jump(tag_1)\n    tag_13:\n      dup1\n      0x073e74df\n      eq\n      tag_2\n      jumpi\n      dup1\n      0x2165e65a\n      eq\n      tag_3\n      jumpi\n      dup1\n      0x29de6246\n      eq\n      tag_4\n      jumpi\n      dup1\n      0x4cad2ffc\n      eq\n      tag_5\n      jumpi\n      dup1\n      0x6352211e\n      eq\n      tag_6\n      jumpi\n    tag_1:\n      0x00\n      dup1\n      revert\n        /* \"contracts/GeekNft.sol\":3109:3476  function fetchItemsToSell() public view returns (Item[] memory){... */\n    tag_2:\n      callvalue\n      dup1\n      iszero\n      tag_14\n      jumpi\n      0x00\n      dup1\n      revert\n    tag_14:\n      pop\n      tag_15\n      tag_16\n      jump\t// in\n    tag_15:\n      mload(0x40)\n      tag_17\n      swap2\n      swap1\n      tag_18\n      jump\t// in\n    tag_17:\n      mload(0x40)\n      dup1\n      swap2\n      sub\n      swap1\n      return\n        /* \"contracts/GeekNft.sol\":3872:4259  function fetchItemsByCatId(uint _catId) public view returns (Item[] memory){... */\n    tag_3:\n      callvalue\n      dup1\n      iszero\n      tag_19\n      jumpi\n      0x00\n      dup1\n      revert\n    tag_19:\n      pop\n      tag_20\n      0x04\n      dup1\n      calldatasize\n      sub\n      dup2\n      add\n      swap1\n      tag_21\n      swap2\n      swap1\n      tag_22\n      jump\t// in\n    tag_21:\n      tag_23\n      jump\t// in\n    tag_20:\n      mload(0x40)\n      tag_24\n      swap2\n      swap1\n      tag_18\n      jump\t// in\n    tag_24:\n      mload(0x40)\n      dup1\n      swap2\n      sub\n      swap1\n      return\n        /* \"contracts/GeekNft.sol\":911:1034  function modifyFeesPercentage(uint _newPercentage) public onlyContractOwner{... */\n    tag_4:\n      callvalue\n      dup1\n      iszero\n      tag_25\n      jumpi\n      0x00\n      dup1\n      revert\n    tag_25:\n      pop\n      tag_26\n      0x04\n      dup1\n      calldatasize\n      sub\n      dup2\n      add\n      swap1\n      tag_27\n      swap2\n      swap1\n      tag_22\n      jump\t// in\n    tag_27:\n      tag_28\n      jump\t// in\n    tag_26:\n      stop\n        /* \"contracts/GeekNft.sol\":3482:3866  function fetchItemsByOwner() public view returns (Item[] memory){... */\n    tag_5:\n      callvalue\n      dup1\n      iszero\n      tag_29\n      jumpi\n      0x00\n      dup1\n      revert\n    tag_29:\n      pop\n      tag_30\n      tag_31\n      jump\t// in\n    tag_30:\n      mload(0x40)\n      tag_32\n      swap2\n      swap1\n      tag_18\n      jump\t// in\n    tag_32:\n      mload(0x40)\n      dup1\n      swap2\n      sub\n      swap1\n      return\n        /* \"contracts/GeekNft.sol\":2211:2317  function ownerOf(uint _tokenId) public view returns (address){... */\n    tag_6:\n      callvalue\n      dup1\n      iszero\n      tag_33\n      jumpi\n      0x00\n      dup1\n      revert\n    tag_33:\n      pop\n      tag_34\n      0x04\n      dup1\n      calldatasize\n      sub\n      dup2\n      add\n      swap1\n      tag_35\n      swap2\n      swap1\n      tag_22\n      jump\t// in\n    tag_35:\n      tag_36\n      jump\t// in\n    tag_34:\n      mload(0x40)\n      tag_37\n      swap2\n      swap1\n      tag_38\n      jump\t// in\n    tag_37:\n      mload(0x40)\n      dup1\n      swap2\n      sub\n      swap1\n      return\n        /* \"contracts/GeekNft.sol\":2323:2431  function balanceOf(address _owner) public view returns (uint){... */\n    tag_7:\n      callvalue\n      dup1\n      iszero\n      tag_39\n      jumpi\n      0x00\n      dup1\n      revert\n    tag_39:\n      pop\n      tag_40\n      0x04\n      dup1\n      calldatasize\n      sub\n      dup2\n      add\n      swap1\n      tag_41\n      swap2\n      swap1\n      tag_42\n      jump\t// in\n    tag_41:\n      tag_43\n      jump\t// in\n    tag_40:\n      mload(0x40)\n      tag_44\n      swap2\n      swap1\n      tag_45\n      jump\t// in\n    tag_44:\n      mload(0x40)\n      dup1\n      swap2\n      sub\n      swap1\n      return\n        /* \"contracts/GeekNft.sol\":1419:2205  function sellItem(uint _tokenId) public payable{... */\n    tag_8:\n      tag_46\n      0x04\n      dup1\n      calldatasize\n      sub\n      dup2\n      add\n      swap1\n      tag_47\n      swap2\n      swap1\n      tag_22\n      jump\t// in\n    tag_47:\n      tag_48\n      jump\t// in\n    tag_46:\n      stop\n        /* \"contracts/GeekNft.sol\":2437:2766  function removeItemToSell(uint _tokenId) public onlyItemOwner(_tokenId) {... */\n    tag_9:\n      callvalue\n      dup1\n      iszero\n      tag_49\n      jumpi\n      0x00\n      dup1\n      revert\n    tag_49:\n      pop\n      tag_50\n      0x04\n      dup1\n      calldatasize\n      sub\n      dup2\n      add\n      swap1\n      tag_51\n      swap2\n      swap1\n      tag_22\n      jump\t// in\n    tag_51:\n      tag_52\n      jump\t// in\n    tag_50:\n      stop\n        /* \"contracts/GeekNft.sol\":2772:3103  function addItemToSell(uint _tokenId) public onlyItemOwner(_tokenId) {... */\n    tag_10:\n      callvalue\n      dup1\n      iszero\n      tag_53\n      jumpi\n      0x00\n      dup1\n      revert\n    tag_53:\n      pop\n      tag_54\n      0x04\n      dup1\n      calldatasize\n      sub\n      dup2\n      add\n      swap1\n      tag_55\n      swap2\n      swap1\n      tag_22\n      jump\t// in\n    tag_55:\n      tag_56\n      jump\t// in\n    tag_54:\n      stop\n        /* \"contracts/GeekNft.sol\":1140:1413  function createItem(uint _price) public view returns (uint){... */\n    tag_11:\n      callvalue\n      dup1\n      iszero\n      tag_57\n      jumpi\n      0x00\n      dup1\n      revert\n    tag_57:\n      pop\n      tag_58\n      0x04\n      dup1\n      calldatasize\n      sub\n      dup2\n      add\n      swap1\n      tag_59\n      swap2\n      swap1\n      tag_22\n      jump\t// in\n    tag_59:\n      tag_60\n      jump\t// in\n    tag_58:\n      mload(0x40)\n      tag_61\n      swap2\n      swap1\n      tag_45\n      jump\t// in\n    tag_61:\n      mload(0x40)\n      dup1\n      swap2\n      sub\n      swap1\n      return\n        /* \"contracts/GeekNft.sol\":1040:1134  function getFeesPercentage() public view returns (uint) {... */\n    tag_12:\n      callvalue\n      dup1\n      iszero\n      tag_62\n      jumpi\n      0x00\n      dup1\n      revert\n    tag_62:\n      pop\n      tag_63\n      tag_64\n      jump\t// in\n    tag_63:\n      mload(0x40)\n      tag_65\n      swap2\n      swap1\n      tag_45\n      jump\t// in\n    tag_65:\n      mload(0x40)\n      dup1\n      swap2\n      sub\n      swap1\n      return\n        /* \"contracts/GeekNft.sol\":3109:3476  function fetchItemsToSell() public view returns (Item[] memory){... */\n    tag_16:\n        /* \"contracts/GeekNft.sol\":3158:3171  Item[] memory */\n      0x60\n        /* \"contracts/GeekNft.sol\":3182:3194  uint counter */\n      0x00\n        /* \"contracts/GeekNft.sol\":3208:3228  Item[] memory result */\n      dup1\n        /* \"contracts/GeekNft.sol\":3242:3258  itemsToSellCount */\n      sload(0x04)\n        /* \"contracts/GeekNft.sol\":3231:3259  new Item[](itemsToSellCount) */\n      0xffffffffffffffff\n      dup2\n      gt\n      iszero\n      tag_67\n      jumpi\n      mstore(0x00, 0x4e487b7100000000000000000000000000000000000000000000000000000000)\n      mstore(0x04, 0x41)\n      revert(0x00, 0x24)\n    tag_67:\n      mload(0x40)\n      swap1\n      dup1\n      dup3\n      mstore\n      dup1\n      0x20\n      mul\n      0x20\n      add\n      dup3\n      add\n      0x40\n      mstore\n      dup1\n      iszero\n      tag_68\n      jumpi\n      dup2\n      0x20\n      add\n    tag_69:\n      tag_70\n      tag_71\n      jump\t// in\n    tag_70:\n      dup2\n      mstore\n      0x20\n      add\n      swap1\n      0x01\n      swap1\n      sub\n      swap1\n      dup2\n      tag_69\n      jumpi\n      swap1\n      pop\n    tag_68:\n      pop\n        /* \"contracts/GeekNft.sol\":3208:3259  Item[] memory result = new Item[](itemsToSellCount) */\n      swap1\n      pop\n        /* \"contracts/GeekNft.sol\":3274:3280  uint i */\n      0x00\n        /* \"contracts/GeekNft.sol\":3270:3446  for(uint i = 0; i < items.length; i++) {... */\n    tag_72:\n        /* \"contracts/GeekNft.sol\":3290:3295  items */\n      0x03\n        /* \"contracts/GeekNft.sol\":3290:3302  items.length */\n      dup1\n      sload\n      swap1\n      pop\n        /* \"contracts/GeekNft.sol\":3286:3287  i */\n      dup2\n        /* \"contracts/GeekNft.sol\":3286:3302  i < items.length */\n      lt\n        /* \"contracts/GeekNft.sol\":3270:3446  for(uint i = 0; i < items.length; i++) {... */\n      iszero\n      tag_73\n      jumpi\n        /* \"contracts/GeekNft.sol\":3345:3349  true */\n      0x01\n        /* \"contracts/GeekNft.sol\":3326:3349  items[i].toSell == true */\n      iszero\n      iszero\n        /* \"contracts/GeekNft.sol\":3326:3331  items */\n      0x03\n        /* \"contracts/GeekNft.sol\":3332:3333  i */\n      dup3\n        /* \"contracts/GeekNft.sol\":3326:3334  items[i] */\n      dup2\n      sload\n      dup2\n      lt\n      tag_75\n      jumpi\n      mstore(0x00, 0x4e487b7100000000000000000000000000000000000000000000000000000000)\n      mstore(0x04, 0x32)\n      revert(0x00, 0x24)\n    tag_75:\n      swap1\n      0x00\n      mstore\n      keccak256(0x00, 0x20)\n      swap1\n      0x04\n      mul\n      add\n        /* \"contracts/GeekNft.sol\":3326:3341  items[i].toSell */\n      0x03\n      add\n      0x00\n      swap1\n      sload\n      swap1\n      0x0100\n      exp\n      swap1\n      div\n      0xff\n      and\n        /* \"contracts/GeekNft.sol\":3326:3349  items[i].toSell == true */\n      iszero\n      iszero\n      eq\n        /* \"contracts/GeekNft.sol\":3323:3436  if(items[i].toSell == true){... */\n      iszero\n      tag_77\n      jumpi\n        /* \"contracts/GeekNft.sol\":3386:3391  items */\n      0x03\n        /* \"contracts/GeekNft.sol\":3392:3393  i */\n      dup2\n        /* \"contracts/GeekNft.sol\":3386:3394  items[i] */\n      dup2\n      sload\n      dup2\n      lt\n      tag_78\n      jumpi\n      mstore(0x00, 0x4e487b7100000000000000000000000000000000000000000000000000000000)\n      mstore(0x04, 0x32)\n      revert(0x00, 0x24)\n    tag_78:\n      swap1\n      0x00\n      mstore\n      keccak256(0x00, 0x20)\n      swap1\n      0x04\n      mul\n      add\n        /* \"contracts/GeekNft.sol\":3368:3394  result[counter] = items[i] */\n      mload(0x40)\n      dup1\n      0x80\n      add\n      0x40\n      mstore\n      swap1\n      dup2\n      0x00\n      dup3\n      add\n      sload\n      dup2\n      mstore\n      0x20\n      add\n      0x01\n      dup3\n      add\n      sload\n      dup2\n      mstore\n      0x20\n      add\n      0x02\n      dup3\n      add\n      sload\n      dup2\n      mstore\n      0x20\n      add\n      0x03\n      dup3\n      add\n      0x00\n      swap1\n      sload\n      swap1\n      0x0100\n      exp\n      swap1\n      div\n      0xff\n      and\n      iszero\n      iszero\n      iszero\n      iszero\n      dup2\n      mstore\n      pop\n      pop\n        /* \"contracts/GeekNft.sol\":3368:3374  result */\n      dup3\n        /* \"contracts/GeekNft.sol\":3375:3382  counter */\n      dup5\n        /* \"contracts/GeekNft.sol\":3368:3383  result[counter] */\n      dup2\n      mload\n      dup2\n      lt\n      tag_80\n      jumpi\n      mstore(0x00, 0x4e487b7100000000000000000000000000000000000000000000000000000000)\n      mstore(0x04, 0x32)\n      revert(0x00, 0x24)\n    tag_80:\n      0x20\n      mul\n      0x20\n      add\n      add\n        /* \"contracts/GeekNft.sol\":3368:3394  result[counter] = items[i] */\n      dup2\n      swap1\n      mstore\n      pop\n        /* \"contracts/GeekNft.sol\":3412:3421  counter++ */\n      dup3\n      dup1\n      tag_81\n      swap1\n      tag_82\n      jump\t// in\n    tag_81:\n      swap4\n      pop\n      pop\n        /* \"contracts/GeekNft.sol\":3323:3436  if(items[i].toSell == true){... */\n    tag_77:\n        /* \"contracts/GeekNft.sol\":3304:3307  i++ */\n      dup1\n      dup1\n      tag_83\n      swap1\n      tag_82\n      jump\t// in\n    tag_83:\n      swap2\n      pop\n      pop\n        /* \"contracts/GeekNft.sol\":3270:3446  for(uint i = 0; i < items.length; i++) {... */\n      jump(tag_72)\n    tag_73:\n      pop\n        /* \"contracts/GeekNft.sol\":3463:3469  result */\n      dup1\n        /* \"contracts/GeekNft.sol\":3456:3469  return result */\n      swap3\n      pop\n      pop\n      pop\n        /* \"contracts/GeekNft.sol\":3109:3476  function fetchItemsToSell() public view returns (Item[] memory){... */\n      swap1\n      jump\t// out\n        /* \"contracts/GeekNft.sol\":3872:4259  function fetchItemsByCatId(uint _catId) public view returns (Item[] memory){... */\n    tag_23:\n        /* \"contracts/GeekNft.sol\":3933:3946  Item[] memory */\n      0x60\n        /* \"contracts/GeekNft.sol\":3957:3969  uint counter */\n      0x00\n        /* \"contracts/GeekNft.sol\":3983:4003  Item[] memory result */\n      dup1\n        /* \"contracts/GeekNft.sol\":4017:4032  itemsCatIdCount */\n      0x08\n        /* \"contracts/GeekNft.sol\":4017:4040  itemsCatIdCount[_catId] */\n      0x00\n        /* \"contracts/GeekNft.sol\":4033:4039  _catId */\n      dup6\n        /* \"contracts/GeekNft.sol\":4017:4040  itemsCatIdCount[_catId] */\n      dup2\n      mstore\n      0x20\n      add\n      swap1\n      dup2\n      mstore\n      0x20\n      add\n      0x00\n      keccak256\n      sload\n        /* \"contracts/GeekNft.sol\":4006:4041  new Item[](itemsCatIdCount[_catId]) */\n      0xffffffffffffffff\n      dup2\n      gt\n      iszero\n      tag_85\n      jumpi\n      mstore(0x00, 0x4e487b7100000000000000000000000000000000000000000000000000000000)\n      mstore(0x04, 0x41)\n      revert(0x00, 0x24)\n    tag_85:\n      mload(0x40)\n      swap1\n      dup1\n      dup3\n      mstore\n      dup1\n      0x20\n      mul\n      0x20\n      add\n      dup3\n      add\n      0x40\n      mstore\n      dup1\n      iszero\n      tag_86\n      jumpi\n      dup2\n      0x20\n      add\n    tag_87:\n      tag_88\n      tag_71\n      jump\t// in\n    tag_88:\n      dup2\n      mstore\n      0x20\n      add\n      swap1\n      0x01\n      swap1\n      sub\n      swap1\n      dup2\n      tag_87\n      jumpi\n      swap1\n      pop\n    tag_86:\n      pop\n        /* \"contracts/GeekNft.sol\":3983:4041  Item[] memory result = new Item[](itemsCatIdCount[_catId]) */\n      swap1\n      pop\n        /* \"contracts/GeekNft.sol\":4056:4062  uint i */\n      0x00\n        /* \"contracts/GeekNft.sol\":4052:4229  for(uint i = 0; i < items.length; i++) {... */\n    tag_89:\n        /* \"contracts/GeekNft.sol\":4072:4077  items */\n      0x03\n        /* \"contracts/GeekNft.sol\":4072:4084  items.length */\n      dup1\n      sload\n      swap1\n      pop\n        /* \"contracts/GeekNft.sol\":4068:4069  i */\n      dup2\n        /* \"contracts/GeekNft.sol\":4068:4084  i < items.length */\n      lt\n        /* \"contracts/GeekNft.sol\":4052:4229  for(uint i = 0; i < items.length; i++) {... */\n      iszero\n      tag_90\n      jumpi\n        /* \"contracts/GeekNft.sol\":4126:4132  _catId */\n      dup5\n        /* \"contracts/GeekNft.sol\":4108:4113  items */\n      0x03\n        /* \"contracts/GeekNft.sol\":4114:4115  i */\n      dup3\n        /* \"contracts/GeekNft.sol\":4108:4116  items[i] */\n      dup2\n      sload\n      dup2\n      lt\n      tag_92\n      jumpi\n      mstore(0x00, 0x4e487b7100000000000000000000000000000000000000000000000000000000)\n      mstore(0x04, 0x32)\n      revert(0x00, 0x24)\n    tag_92:\n      swap1\n      0x00\n      mstore\n      keccak256(0x00, 0x20)\n      swap1\n      0x04\n      mul\n      add\n        /* \"contracts/GeekNft.sol\":4108:4122  items[i].catId */\n      0x02\n      add\n      sload\n        /* \"contracts/GeekNft.sol\":4108:4132  items[i].catId == _catId */\n      eq\n        /* \"contracts/GeekNft.sol\":4105:4219  if(items[i].catId == _catId){... */\n      iszero\n      tag_94\n      jumpi\n        /* \"contracts/GeekNft.sol\":4169:4174  items */\n      0x03\n        /* \"contracts/GeekNft.sol\":4175:4176  i */\n      dup2\n        /* \"contracts/GeekNft.sol\":4169:4177  items[i] */\n      dup2\n      sload\n      dup2\n      lt\n      tag_95\n      jumpi\n      mstore(0x00, 0x4e487b7100000000000000000000000000000000000000000000000000000000)\n      mstore(0x04, 0x32)\n      revert(0x00, 0x24)\n    tag_95:\n      swap1\n      0x00\n      mstore\n      keccak256(0x00, 0x20)\n      swap1\n      0x04\n      mul\n      add\n        /* \"contracts/GeekNft.sol\":4151:4177  result[counter] = items[i] */\n      mload(0x40)\n      dup1\n      0x80\n      add\n      0x40\n      mstore\n      swap1\n      dup2\n      0x00\n      dup3\n      add\n      sload\n      dup2\n      mstore\n      0x20\n      add\n      0x01\n      dup3\n      add\n      sload\n      dup2\n      mstore\n      0x20\n      add\n      0x02\n      dup3\n      add\n      sload\n      dup2\n      mstore\n      0x20\n      add\n      0x03\n      dup3\n      add\n      0x00\n      swap1\n      sload\n      swap1\n      0x0100\n      exp\n      swap1\n      div\n      0xff\n      and\n      iszero\n      iszero\n      iszero\n      iszero\n      dup2\n      mstore\n      pop\n      pop\n        /* \"contracts/GeekNft.sol\":4151:4157  result */\n      dup3\n        /* \"contracts/GeekNft.sol\":4158:4165  counter */\n      dup5\n        /* \"contracts/GeekNft.sol\":4151:4166  result[counter] */\n      dup2\n      mload\n      dup2\n      lt\n      tag_97\n      jumpi\n      mstore(0x00, 0x4e487b7100000000000000000000000000000000000000000000000000000000)\n      mstore(0x04, 0x32)\n      revert(0x00, 0x24)\n    tag_97:\n      0x20\n      mul\n      0x20\n      add\n      add\n        /* \"contracts/GeekNft.sol\":4151:4177  result[counter] = items[i] */\n      dup2\n      swap1\n      mstore\n      pop\n        /* \"contracts/GeekNft.sol\":4195:4204  counter++ */\n      dup3\n      dup1\n      tag_98\n      swap1\n      tag_82\n      jump\t// in\n    tag_98:\n      swap4\n      pop\n      pop\n        /* \"contracts/GeekNft.sol\":4105:4219  if(items[i].catId == _catId){... */\n    tag_94:\n        /* \"contracts/GeekNft.sol\":4086:4089  i++ */\n      dup1\n      dup1\n      tag_99\n      swap1\n      tag_82\n      jump\t// in\n    tag_99:\n      swap2\n      pop\n      pop\n        /* \"contracts/GeekNft.sol\":4052:4229  for(uint i = 0; i < items.length; i++) {... */\n      jump(tag_89)\n    tag_90:\n      pop\n        /* \"contracts/GeekNft.sol\":4246:4252  result */\n      dup1\n        /* \"contracts/GeekNft.sol\":4239:4252  return result */\n      swap3\n      pop\n      pop\n      pop\n        /* \"contracts/GeekNft.sol\":3872:4259  function fetchItemsByCatId(uint _catId) public view returns (Item[] memory){... */\n      swap2\n      swap1\n      pop\n      jump\t// out\n        /* \"contracts/GeekNft.sol\":911:1034  function modifyFeesPercentage(uint _newPercentage) public onlyContractOwner{... */\n    tag_28:\n        /* \"contracts/GeekNft.sol\":695:700  owner */\n      0x02\n      0x00\n      swap1\n      sload\n      swap1\n      0x0100\n      exp\n      swap1\n      div\n      0xffffffffffffffffffffffffffffffffffffffff\n      and\n        /* \"contracts/GeekNft.sol\":681:700  msg.sender == owner */\n      0xffffffffffffffffffffffffffffffffffffffff\n      and\n        /* \"contracts/GeekNft.sol\":681:691  msg.sender */\n      caller\n        /* \"contracts/GeekNft.sol\":681:700  msg.sender == owner */\n      0xffffffffffffffffffffffffffffffffffffffff\n      and\n      eq\n        /* \"contracts/GeekNft.sol\":673:738  require(msg.sender == owner, \"Only contract's owner can do that\") */\n      tag_101\n      jumpi\n      mload(0x40)\n      0x08c379a000000000000000000000000000000000000000000000000000000000\n      dup2\n      mstore\n      0x04\n      add\n      tag_102\n      swap1\n      tag_103\n      jump\t// in\n    tag_102:\n      mload(0x40)\n      dup1\n      swap2\n      sub\n      swap1\n      revert\n    tag_101:\n        /* \"contracts/GeekNft.sol\":1013:1027  _newPercentage */\n      dup1\n        /* \"contracts/GeekNft.sol\":996:1010  feesPercentage */\n      0x05\n        /* \"contracts/GeekNft.sol\":996:1027  feesPercentage = _newPercentage */\n      dup2\n      swap1\n      sstore\n      pop\n        /* \"contracts/GeekNft.sol\":911:1034  function modifyFeesPercentage(uint _newPercentage) public onlyContractOwner{... */\n      pop\n      jump\t// out\n        /* \"contracts/GeekNft.sol\":3482:3866  function fetchItemsByOwner() public view returns (Item[] memory){... */\n    tag_31:\n        /* \"contracts/GeekNft.sol\":3532:3545  Item[] memory */\n      0x60\n        /* \"contracts/GeekNft.sol\":3556:3568  uint counter */\n      0x00\n        /* \"contracts/GeekNft.sol\":3582:3602  Item[] memory result */\n      dup1\n        /* \"contracts/GeekNft.sol\":3616:3631  itemsOwnerCount */\n      0x07\n        /* \"contracts/GeekNft.sol\":3616:3643  itemsOwnerCount[msg.sender] */\n      0x00\n        /* \"contracts/GeekNft.sol\":3632:3642  msg.sender */\n      caller\n        /* \"contracts/GeekNft.sol\":3616:3643  itemsOwnerCount[msg.sender] */\n      0xffffffffffffffffffffffffffffffffffffffff\n      and\n      0xffffffffffffffffffffffffffffffffffffffff\n      and\n      dup2\n      mstore\n      0x20\n      add\n      swap1\n      dup2\n      mstore\n      0x20\n      add\n      0x00\n      keccak256\n      sload\n        /* \"contracts/GeekNft.sol\":3605:3644  new Item[](itemsOwnerCount[msg.sender]) */\n      0xffffffffffffffff\n      dup2\n      gt\n      iszero\n      tag_106\n      jumpi\n      mstore(0x00, 0x4e487b7100000000000000000000000000000000000000000000000000000000)\n      mstore(0x04, 0x41)\n      revert(0x00, 0x24)\n    tag_106:\n      mload(0x40)\n      swap1\n      dup1\n      dup3\n      mstore\n      dup1\n      0x20\n      mul\n      0x20\n      add\n      dup3\n      add\n      0x40\n      mstore\n      dup1\n      iszero\n      tag_107\n      jumpi\n      dup2\n      0x20\n      add\n    tag_108:\n      tag_109\n      tag_71\n      jump\t// in\n    tag_109:\n      dup2\n      mstore\n      0x20\n      add\n      swap1\n      0x01\n      swap1\n      sub\n      swap1\n      dup2\n      tag_108\n      jumpi\n      swap1\n      pop\n    tag_107:\n      pop\n        /* \"contracts/GeekNft.sol\":3582:3644  Item[] memory result = new Item[](itemsOwnerCount[msg.sender]) */\n      swap1\n      pop\n        /* \"contracts/GeekNft.sol\":3659:3665  uint i */\n      0x00\n        /* \"contracts/GeekNft.sol\":3655:3836  for(uint i = 0; i < items.length; i++) {... */\n    tag_110:\n        /* \"contracts/GeekNft.sol\":3675:3680  items */\n      0x03\n        /* \"contracts/GeekNft.sol\":3675:3687  items.length */\n      dup1\n      sload\n      swap1\n      pop\n        /* \"contracts/GeekNft.sol\":3671:3672  i */\n      dup2\n        /* \"contracts/GeekNft.sol\":3671:3687  i < items.length */\n      lt\n        /* \"contracts/GeekNft.sol\":3655:3836  for(uint i = 0; i < items.length; i++) {... */\n      iszero\n      tag_111\n      jumpi\n        /* \"contracts/GeekNft.sol\":3729:3739  msg.sender */\n      caller\n        /* \"contracts/GeekNft.sol\":3711:3739  itemToOwner[i] == msg.sender */\n      0xffffffffffffffffffffffffffffffffffffffff\n      and\n        /* \"contracts/GeekNft.sol\":3711:3722  itemToOwner */\n      0x06\n        /* \"contracts/GeekNft.sol\":3711:3725  itemToOwner[i] */\n      0x00\n        /* \"contracts/GeekNft.sol\":3723:3724  i */\n      dup4\n        /* \"contracts/GeekNft.sol\":3711:3725  itemToOwner[i] */\n      dup2\n      mstore\n      0x20\n      add\n      swap1\n      dup2\n      mstore\n      0x20\n      add\n      0x00\n      keccak256\n      0x00\n      swap1\n      sload\n      swap1\n      0x0100\n      exp\n      swap1\n      div\n      0xffffffffffffffffffffffffffffffffffffffff\n      and\n        /* \"contracts/GeekNft.sol\":3711:3739  itemToOwner[i] == msg.sender */\n      0xffffffffffffffffffffffffffffffffffffffff\n      and\n      eq\n        /* \"contracts/GeekNft.sol\":3708:3826  if(itemToOwner[i] == msg.sender){... */\n      iszero\n      tag_113\n      jumpi\n        /* \"contracts/GeekNft.sol\":3776:3781  items */\n      0x03\n        /* \"contracts/GeekNft.sol\":3782:3783  i */\n      dup2\n        /* \"contracts/GeekNft.sol\":3776:3784  items[i] */\n      dup2\n      sload\n      dup2\n      lt\n      tag_114\n      jumpi\n      mstore(0x00, 0x4e487b7100000000000000000000000000000000000000000000000000000000)\n      mstore(0x04, 0x32)\n      revert(0x00, 0x24)\n    tag_114:\n      swap1\n      0x00\n      mstore\n      keccak256(0x00, 0x20)\n      swap1\n      0x04\n      mul\n      add\n        /* \"contracts/GeekNft.sol\":3758:3784  result[counter] = items[i] */\n      mload(0x40)\n      dup1\n      0x80\n      add\n      0x40\n      mstore\n      swap1\n      dup2\n      0x00\n      dup3\n      add\n      sload\n      dup2\n      mstore\n      0x20\n      add\n      0x01\n      dup3\n      add\n      sload\n      dup2\n      mstore\n      0x20\n      add\n      0x02\n      dup3\n      add\n      sload\n      dup2\n      mstore\n      0x20\n      add\n      0x03\n      dup3\n      add\n      0x00\n      swap1\n      sload\n      swap1\n      0x0100\n      exp\n      swap1\n      div\n      0xff\n      and\n      iszero\n      iszero\n      iszero\n      iszero\n      dup2\n      mstore\n      pop\n      pop\n        /* \"contracts/GeekNft.sol\":3758:3764  result */\n      dup3\n        /* \"contracts/GeekNft.sol\":3765:3772  counter */\n      dup5\n        /* \"contracts/GeekNft.sol\":3758:3773  result[counter] */\n      dup2\n      mload\n      dup2\n      lt\n      tag_116\n      jumpi\n      mstore(0x00, 0x4e487b7100000000000000000000000000000000000000000000000000000000)\n      mstore(0x04, 0x32)\n      revert(0x00, 0x24)\n    tag_116:\n      0x20\n      mul\n      0x20\n      add\n      add\n        /* \"contracts/GeekNft.sol\":3758:3784  result[counter] = items[i] */\n      dup2\n      swap1\n      mstore\n      pop\n        /* \"contracts/GeekNft.sol\":3802:3811  counter++ */\n      dup3\n      dup1\n      tag_117\n      swap1\n      tag_82\n      jump\t// in\n    tag_117:\n      swap4\n      pop\n      pop\n        /* \"contracts/GeekNft.sol\":3708:3826  if(itemToOwner[i] == msg.sender){... */\n    tag_113:\n        /* \"contracts/GeekNft.sol\":3689:3692  i++ */\n      dup1\n      dup1\n      tag_118\n      swap1\n      tag_82\n      jump\t// in\n    tag_118:\n      swap2\n      pop\n      pop\n        /* \"contracts/GeekNft.sol\":3655:3836  for(uint i = 0; i < items.length; i++) {... */\n      jump(tag_110)\n    tag_111:\n      pop\n        /* \"contracts/GeekNft.sol\":3853:3859  result */\n      dup1\n        /* \"contracts/GeekNft.sol\":3846:3859  return result */\n      swap3\n      pop\n      pop\n      pop\n        /* \"contracts/GeekNft.sol\":3482:3866  function fetchItemsByOwner() public view returns (Item[] memory){... */\n      swap1\n      jump\t// out\n        /* \"contracts/GeekNft.sol\":2211:2317  function ownerOf(uint _tokenId) public view returns (address){... */\n    tag_36:\n        /* \"contracts/GeekNft.sol\":2264:2271  address */\n      0x00\n        /* \"contracts/GeekNft.sol\":2289:2300  itemToOwner */\n      0x06\n        /* \"contracts/GeekNft.sol\":2289:2310  itemToOwner[_tokenId] */\n      0x00\n        /* \"contracts/GeekNft.sol\":2301:2309  _tokenId */\n      dup4\n        /* \"contracts/GeekNft.sol\":2289:2310  itemToOwner[_tokenId] */\n      dup2\n      mstore\n      0x20\n      add\n      swap1\n      dup2\n      mstore\n      0x20\n      add\n      0x00\n      keccak256\n      0x00\n      swap1\n      sload\n      swap1\n      0x0100\n      exp\n      swap1\n      div\n      0xffffffffffffffffffffffffffffffffffffffff\n      and\n        /* \"contracts/GeekNft.sol\":2282:2310  return itemToOwner[_tokenId] */\n      swap1\n      pop\n        /* \"contracts/GeekNft.sol\":2211:2317  function ownerOf(uint _tokenId) public view returns (address){... */\n      swap2\n      swap1\n      pop\n      jump\t// out\n        /* \"contracts/GeekNft.sol\":2323:2431  function balanceOf(address _owner) public view returns (uint){... */\n    tag_43:\n        /* \"contracts/GeekNft.sol\":2379:2383  uint */\n      0x00\n        /* \"contracts/GeekNft.sol\":2401:2416  itemsOwnerCount */\n      0x07\n        /* \"contracts/GeekNft.sol\":2401:2424  itemsOwnerCount[_owner] */\n      0x00\n        /* \"contracts/GeekNft.sol\":2417:2423  _owner */\n      dup4\n        /* \"contracts/GeekNft.sol\":2401:2424  itemsOwnerCount[_owner] */\n      0xffffffffffffffffffffffffffffffffffffffff\n      and\n      0xffffffffffffffffffffffffffffffffffffffff\n      and\n      dup2\n      mstore\n      0x20\n      add\n      swap1\n      dup2\n      mstore\n      0x20\n      add\n      0x00\n      keccak256\n      sload\n        /* \"contracts/GeekNft.sol\":2394:2424  return itemsOwnerCount[_owner] */\n      swap1\n      pop\n        /* \"contracts/GeekNft.sol\":2323:2431  function balanceOf(address _owner) public view returns (uint){... */\n      swap2\n      swap1\n      pop\n      jump\t// out\n        /* \"contracts/GeekNft.sol\":1419:2205  function sellItem(uint _tokenId) public payable{... */\n    tag_48:\n        /* \"contracts/GeekNft.sol\":1497:1502  items */\n      0x03\n        /* \"contracts/GeekNft.sol\":1503:1511  _tokenId */\n      dup2\n        /* \"contracts/GeekNft.sol\":1497:1512  items[_tokenId] */\n      dup2\n      sload\n      dup2\n      lt\n      tag_122\n      jumpi\n      mstore(0x00, 0x4e487b7100000000000000000000000000000000000000000000000000000000)\n      mstore(0x04, 0x32)\n      revert(0x00, 0x24)\n    tag_122:\n      swap1\n      0x00\n      mstore\n      keccak256(0x00, 0x20)\n      swap1\n      0x04\n      mul\n      add\n        /* \"contracts/GeekNft.sol\":1497:1518  items[_tokenId].price */\n      0x01\n      add\n      sload\n        /* \"contracts/GeekNft.sol\":1484:1493  msg.value */\n      callvalue\n        /* \"contracts/GeekNft.sol\":1484:1518  msg.value == items[_tokenId].price */\n      eq\n        /* \"contracts/GeekNft.sol\":1476:1519  require(msg.value == items[_tokenId].price) */\n      tag_124\n      jumpi\n      0x00\n      dup1\n      revert\n    tag_124:\n        /* \"contracts/GeekNft.sol\":1570:1571  0 */\n      0x00\n        /* \"contracts/GeekNft.sol\":1537:1572  itemToOwner[_tokenId] != address(0) */\n      0xffffffffffffffffffffffffffffffffffffffff\n      and\n        /* \"contracts/GeekNft.sol\":1537:1548  itemToOwner */\n      0x06\n        /* \"contracts/GeekNft.sol\":1537:1558  itemToOwner[_tokenId] */\n      0x00\n        /* \"contracts/GeekNft.sol\":1549:1557  _tokenId */\n      dup4\n        /* \"contracts/GeekNft.sol\":1537:1558  itemToOwner[_tokenId] */\n      dup2\n      mstore\n      0x20\n      add\n      swap1\n      dup2\n      mstore\n      0x20\n      add\n      0x00\n      keccak256\n      0x00\n      swap1\n      sload\n      swap1\n      0x0100\n      exp\n      swap1\n      div\n      0xffffffffffffffffffffffffffffffffffffffff\n      and\n        /* \"contracts/GeekNft.sol\":1537:1572  itemToOwner[_tokenId] != address(0) */\n      0xffffffffffffffffffffffffffffffffffffffff\n      and\n      eq\n      iszero\n        /* \"contracts/GeekNft.sol\":1529:1596  require(itemToOwner[_tokenId] != address(0), \"token doesn't exist\") */\n      tag_125\n      jumpi\n      mload(0x40)\n      0x08c379a000000000000000000000000000000000000000000000000000000000\n      dup2\n      mstore\n      0x04\n      add\n      tag_126\n      swap1\n      tag_127\n      jump\t// in\n    tag_126:\n      mload(0x40)\n      dup1\n      swap2\n      sub\n      swap1\n      revert\n    tag_125:\n        /* \"contracts/GeekNft.sol\":1607:1623  address oldOwner */\n      0x00\n        /* \"contracts/GeekNft.sol\":1626:1637  itemToOwner */\n      0x06\n        /* \"contracts/GeekNft.sol\":1626:1647  itemToOwner[_tokenId] */\n      0x00\n        /* \"contracts/GeekNft.sol\":1638:1646  _tokenId */\n      dup4\n        /* \"contracts/GeekNft.sol\":1626:1647  itemToOwner[_tokenId] */\n      dup2\n      mstore\n      0x20\n      add\n      swap1\n      dup2\n      mstore\n      0x20\n      add\n      0x00\n      keccak256\n      0x00\n      swap1\n      sload\n      swap1\n      0x0100\n      exp\n      swap1\n      div\n      0xffffffffffffffffffffffffffffffffffffffff\n      and\n        /* \"contracts/GeekNft.sol\":1607:1647  address oldOwner = itemToOwner[_tokenId] */\n      swap1\n      pop\n        /* \"contracts/GeekNft.sol\":1666:1689  Item storage itemToSell */\n      0x00\n        /* \"contracts/GeekNft.sol\":1692:1697  items */\n      0x03\n        /* \"contracts/GeekNft.sol\":1698:1706  _tokenId */\n      dup4\n        /* \"contracts/GeekNft.sol\":1692:1707  items[_tokenId] */\n      dup2\n      sload\n      dup2\n      lt\n      tag_128\n      jumpi\n      mstore(0x00, 0x4e487b7100000000000000000000000000000000000000000000000000000000)\n      mstore(0x04, 0x32)\n      revert(0x00, 0x24)\n    tag_128:\n      swap1\n      0x00\n      mstore\n      keccak256(0x00, 0x20)\n      swap1\n      0x04\n      mul\n      add\n        /* \"contracts/GeekNft.sol\":1666:1707  Item storage itemToSell = items[_tokenId] */\n      swap1\n      pop\n        /* \"contracts/GeekNft.sol\":1737:1742  false */\n      0x00\n        /* \"contracts/GeekNft.sol\":1717:1727  itemToSell */\n      dup2\n        /* \"contracts/GeekNft.sol\":1717:1734  itemToSell.toSell */\n      0x03\n      add\n      0x00\n        /* \"contracts/GeekNft.sol\":1717:1742  itemToSell.toSell = false */\n      0x0100\n      exp\n      dup2\n      sload\n      dup2\n      0xff\n      mul\n      not\n      and\n      swap1\n      dup4\n      iszero\n      iszero\n      mul\n      or\n      swap1\n      sstore\n      pop\n        /* \"contracts/GeekNft.sol\":1777:1787  msg.sender */\n      caller\n        /* \"contracts/GeekNft.sol\":1753:1764  itemToOwner */\n      0x06\n        /* \"contracts/GeekNft.sol\":1753:1774  itemToOwner[_tokenId] */\n      0x00\n        /* \"contracts/GeekNft.sol\":1765:1773  _tokenId */\n      dup6\n        /* \"contracts/GeekNft.sol\":1753:1774  itemToOwner[_tokenId] */\n      dup2\n      mstore\n      0x20\n      add\n      swap1\n      dup2\n      mstore\n      0x20\n      add\n      0x00\n      keccak256\n      0x00\n        /* \"contracts/GeekNft.sol\":1753:1787  itemToOwner[_tokenId] = msg.sender */\n      0x0100\n      exp\n      dup2\n      sload\n      dup2\n      0xffffffffffffffffffffffffffffffffffffffff\n      mul\n      not\n      and\n      swap1\n      dup4\n      0xffffffffffffffffffffffffffffffffffffffff\n      and\n      mul\n      or\n      swap1\n      sstore\n      pop\n        /* \"contracts/GeekNft.sol\":1821:1836  itemsOwnerCount */\n      0x07\n        /* \"contracts/GeekNft.sol\":1821:1846  itemsOwnerCount[oldOwner] */\n      0x00\n        /* \"contracts/GeekNft.sol\":1837:1845  oldOwner */\n      dup4\n        /* \"contracts/GeekNft.sol\":1821:1846  itemsOwnerCount[oldOwner] */\n      0xffffffffffffffffffffffffffffffffffffffff\n      and\n      0xffffffffffffffffffffffffffffffffffffffff\n      and\n      dup2\n      mstore\n      0x20\n      add\n      swap1\n      dup2\n      mstore\n      0x20\n      add\n      0x00\n      keccak256\n      0x00\n        /* \"contracts/GeekNft.sol\":1821:1848  itemsOwnerCount[oldOwner]-- */\n      dup2\n      sload\n      dup1\n      swap3\n      swap2\n      swap1\n      0x01\n      swap1\n      sub\n      swap2\n      swap1\n      pop\n      sstore\n      pop\n        /* \"contracts/GeekNft.sol\":1862:1877  itemsOwnerCount */\n      0x07\n        /* \"contracts/GeekNft.sol\":1862:1889  itemsOwnerCount[msg.sender] */\n      0x00\n        /* \"contracts/GeekNft.sol\":1878:1888  msg.sender */\n      caller\n        /* \"contracts/GeekNft.sol\":1862:1889  itemsOwnerCount[msg.sender] */\n      0xffffffffffffffffffffffffffffffffffffffff\n      and\n      0xffffffffffffffffffffffffffffffffffffffff\n      and\n      dup2\n      mstore\n      0x20\n      add\n      swap1\n      dup2\n      mstore\n      0x20\n      add\n      0x00\n      keccak256\n      0x00\n        /* \"contracts/GeekNft.sol\":1862:1891  itemsOwnerCount[msg.sender]++ */\n      dup2\n      sload\n      dup1\n      swap3\n      swap2\n      swap1\n      0x01\n      add\n      swap2\n      swap1\n      pop\n      sstore\n      pop\n        /* \"contracts/GeekNft.sol\":1905:1921  itemsToSellCount */\n      0x04\n      0x00\n        /* \"contracts/GeekNft.sol\":1905:1923  itemsToSellCount-- */\n      dup2\n      sload\n      dup1\n      swap3\n      swap2\n      swap1\n      0x01\n      swap1\n      sub\n      swap2\n      swap1\n      pop\n      sstore\n      pop\n        /* \"contracts/GeekNft.sol\":1944:1953  uint fees */\n      0x00\n        /* \"contracts/GeekNft.sol\":1963:1982  uint totalMinusFees */\n      dup1\n        /* \"contracts/GeekNft.sol\":2017:2051  getFees(msg.value, feesPercentage) */\n      tag_130\n        /* \"contracts/GeekNft.sol\":2025:2034  msg.value */\n      callvalue\n        /* \"contracts/GeekNft.sol\":2036:2050  feesPercentage */\n      sload(0x05)\n        /* \"contracts/GeekNft.sol\":2017:2024  getFees */\n      tag_131\n        /* \"contracts/GeekNft.sol\":2017:2051  getFees(msg.value, feesPercentage) */\n      jump\t// in\n    tag_130:\n        /* \"contracts/GeekNft.sol\":1992:2051  (fees, totalMinusFees) = getFees(msg.value, feesPercentage) */\n      dup1\n      swap3\n      pop\n      dup2\n      swap4\n      pop\n      pop\n      pop\n        /* \"contracts/GeekNft.sol\":2069:2074  owner */\n      0x02\n      0x00\n      swap1\n      sload\n      swap1\n      0x0100\n      exp\n      swap1\n      div\n      0xffffffffffffffffffffffffffffffffffffffff\n      and\n        /* \"contracts/GeekNft.sol\":2061:2084  payable(owner).transfer */\n      0xffffffffffffffffffffffffffffffffffffffff\n      and\n        /* \"contracts/GeekNft.sol\":2061:2090  payable(owner).transfer(fees) */\n      0x08fc\n        /* \"contracts/GeekNft.sol\":2085:2089  fees */\n      dup4\n        /* \"contracts/GeekNft.sol\":2061:2090  payable(owner).transfer(fees) */\n      swap1\n      dup2\n      iszero\n      mul\n      swap1\n      mload(0x40)\n      0x00\n      mload(0x40)\n      dup1\n      dup4\n      sub\n      dup2\n      dup6\n      dup9\n      dup9\n      call\n      swap4\n      pop\n      pop\n      pop\n      pop\n      iszero\n      dup1\n      iszero\n      tag_133\n      jumpi\n      returndatasize\n      0x00\n      dup1\n      returndatacopy\n      revert(0x00, returndatasize)\n    tag_133:\n      pop\n        /* \"contracts/GeekNft.sol\":2108:2116  oldOwner */\n      dup4\n        /* \"contracts/GeekNft.sol\":2100:2126  payable(oldOwner).transfer */\n      0xffffffffffffffffffffffffffffffffffffffff\n      and\n        /* \"contracts/GeekNft.sol\":2100:2142  payable(oldOwner).transfer(totalMinusFees) */\n      0x08fc\n        /* \"contracts/GeekNft.sol\":2127:2141  totalMinusFees */\n      dup3\n        /* \"contracts/GeekNft.sol\":2100:2142  payable(oldOwner).transfer(totalMinusFees) */\n      swap1\n      dup2\n      iszero\n      mul\n      swap1\n      mload(0x40)\n      0x00\n      mload(0x40)\n      dup1\n      dup4\n      sub\n      dup2\n      dup6\n      dup9\n      dup9\n      call\n      swap4\n      pop\n      pop\n      pop\n      pop\n      iszero\n      dup1\n      iszero\n      tag_135\n      jumpi\n      returndatasize\n      0x00\n      dup1\n      returndatacopy\n      revert(0x00, returndatasize)\n    tag_135:\n      pop\n        /* \"contracts/GeekNft.sol\":2177:2187  msg.sender */\n      caller\n        /* \"contracts/GeekNft.sol\":2158:2198  Transfer(oldOwner, msg.sender, _tokenId) */\n      0xffffffffffffffffffffffffffffffffffffffff\n      and\n        /* \"contracts/GeekNft.sol\":2167:2175  oldOwner */\n      dup5\n        /* \"contracts/GeekNft.sol\":2158:2198  Transfer(oldOwner, msg.sender, _tokenId) */\n      0xffffffffffffffffffffffffffffffffffffffff\n      and\n      0xddf252ad1be2c89b69c2b068fc378daa952ba7f163c4a11628f55a4df523b3ef\n        /* \"contracts/GeekNft.sol\":2189:2197  _tokenId */\n      dup8\n        /* \"contracts/GeekNft.sol\":2158:2198  Transfer(oldOwner, msg.sender, _tokenId) */\n      mload(0x40)\n      tag_136\n      swap2\n      swap1\n      tag_45\n      jump\t// in\n    tag_136:\n      mload(0x40)\n      dup1\n      swap2\n      sub\n      swap1\n      log3\n        /* \"contracts/GeekNft.sol\":1419:2205  function sellItem(uint _tokenId) public payable{... */\n      pop\n      pop\n      pop\n      pop\n      pop\n      jump\t// out\n        /* \"contracts/GeekNft.sol\":2437:2766  function removeItemToSell(uint _tokenId) public onlyItemOwner(_tokenId) {... */\n    tag_52:\n        /* \"contracts/GeekNft.sol\":2499:2507  _tokenId */\n      dup1\n        /* \"contracts/GeekNft.sol\":843:853  msg.sender */\n      caller\n        /* \"contracts/GeekNft.sol\":818:853  itemToOwner[_tokenId] == msg.sender */\n      0xffffffffffffffffffffffffffffffffffffffff\n      and\n        /* \"contracts/GeekNft.sol\":818:829  itemToOwner */\n      0x06\n        /* \"contracts/GeekNft.sol\":818:839  itemToOwner[_tokenId] */\n      0x00\n        /* \"contracts/GeekNft.sol\":830:838  _tokenId */\n      dup4\n        /* \"contracts/GeekNft.sol\":818:839  itemToOwner[_tokenId] */\n      dup2\n      mstore\n      0x20\n      add\n      swap1\n      dup2\n      mstore\n      0x20\n      add\n      0x00\n      keccak256\n      0x00\n      swap1\n      sload\n      swap1\n      0x0100\n      exp\n      swap1\n      div\n      0xffffffffffffffffffffffffffffffffffffffff\n      and\n        /* \"contracts/GeekNft.sol\":818:853  itemToOwner[_tokenId] == msg.sender */\n      0xffffffffffffffffffffffffffffffffffffffff\n      and\n      eq\n        /* \"contracts/GeekNft.sol\":810:887  require(itemToOwner[_tokenId] == msg.sender, \"Only item's owner can do that\") */\n      tag_138\n      jumpi\n      mload(0x40)\n      0x08c379a000000000000000000000000000000000000000000000000000000000\n      dup2\n      mstore\n      0x04\n      add\n      tag_139\n      swap1\n      tag_140\n      jump\t// in\n    tag_139:\n      mload(0x40)\n      dup1\n      swap2\n      sub\n      swap1\n      revert\n    tag_138:\n        /* \"contracts/GeekNft.sol\":2560:2561  0 */\n      0x00\n        /* \"contracts/GeekNft.sol\":2527:2562  itemToOwner[_tokenId] != address(0) */\n      0xffffffffffffffffffffffffffffffffffffffff\n      and\n        /* \"contracts/GeekNft.sol\":2527:2538  itemToOwner */\n      0x06\n        /* \"contracts/GeekNft.sol\":2527:2548  itemToOwner[_tokenId] */\n      0x00\n        /* \"contracts/GeekNft.sol\":2539:2547  _tokenId */\n      dup5\n        /* \"contracts/GeekNft.sol\":2527:2548  itemToOwner[_tokenId] */\n      dup2\n      mstore\n      0x20\n      add\n      swap1\n      dup2\n      mstore\n      0x20\n      add\n      0x00\n      keccak256\n      0x00\n      swap1\n      sload\n      swap1\n      0x0100\n      exp\n      swap1\n      div\n      0xffffffffffffffffffffffffffffffffffffffff\n      and\n        /* \"contracts/GeekNft.sol\":2527:2562  itemToOwner[_tokenId] != address(0) */\n      0xffffffffffffffffffffffffffffffffffffffff\n      and\n      eq\n      iszero\n        /* \"contracts/GeekNft.sol\":2519:2586  require(itemToOwner[_tokenId] != address(0), \"token doesn't exist\") */\n      tag_142\n      jumpi\n      mload(0x40)\n      0x08c379a000000000000000000000000000000000000000000000000000000000\n      dup2\n      mstore\n      0x04\n      add\n      tag_143\n      swap1\n      tag_127\n      jump\t// in\n    tag_143:\n      mload(0x40)\n      dup1\n      swap2\n      sub\n      swap1\n      revert\n    tag_142:\n        /* \"contracts/GeekNft.sol\":2630:2634  true */\n      0x01\n        /* \"contracts/GeekNft.sol\":2604:2634  items[_tokenId].toSell == true */\n      iszero\n      iszero\n        /* \"contracts/GeekNft.sol\":2604:2609  items */\n      0x03\n        /* \"contracts/GeekNft.sol\":2610:2618  _tokenId */\n      dup4\n        /* \"contracts/GeekNft.sol\":2604:2619  items[_tokenId] */\n      dup2\n      sload\n      dup2\n      lt\n      tag_144\n      jumpi\n      mstore(0x00, 0x4e487b7100000000000000000000000000000000000000000000000000000000)\n      mstore(0x04, 0x32)\n      revert(0x00, 0x24)\n    tag_144:\n      swap1\n      0x00\n      mstore\n      keccak256(0x00, 0x20)\n      swap1\n      0x04\n      mul\n      add\n        /* \"contracts/GeekNft.sol\":2604:2626  items[_tokenId].toSell */\n      0x03\n      add\n      0x00\n      swap1\n      sload\n      swap1\n      0x0100\n      exp\n      swap1\n      div\n      0xff\n      and\n        /* \"contracts/GeekNft.sol\":2604:2634  items[_tokenId].toSell == true */\n      iszero\n      iszero\n      eq\n        /* \"contracts/GeekNft.sol\":2596:2658  require(items[_tokenId].toSell == true, \"token isn't to sell\") */\n      tag_146\n      jumpi\n      mload(0x40)\n      0x08c379a000000000000000000000000000000000000000000000000000000000\n      dup2\n      mstore\n      0x04\n      add\n      tag_147\n      swap1\n      tag_148\n      jump\t// in\n    tag_147:\n      mload(0x40)\n      dup1\n      swap2\n      sub\n      swap1\n      revert\n    tag_146:\n        /* \"contracts/GeekNft.sol\":2693:2698  false */\n      0x00\n        /* \"contracts/GeekNft.sol\":2668:2673  items */\n      0x03\n        /* \"contracts/GeekNft.sol\":2674:2682  _tokenId */\n      dup4\n        /* \"contracts/GeekNft.sol\":2668:2683  items[_tokenId] */\n      dup2\n      sload\n      dup2\n      lt\n      tag_149\n      jumpi\n      mstore(0x00, 0x4e487b7100000000000000000000000000000000000000000000000000000000)\n      mstore(0x04, 0x32)\n      revert(0x00, 0x24)\n    tag_149:\n      swap1\n      0x00\n      mstore\n      keccak256(0x00, 0x20)\n      swap1\n      0x04\n      mul\n      add\n        /* \"contracts/GeekNft.sol\":2668:2690  items[_tokenId].toSell */\n      0x03\n      add\n      0x00\n        /* \"contracts/GeekNft.sol\":2668:2698  items[_tokenId].toSell = false */\n      0x0100\n      exp\n      dup2\n      sload\n      dup2\n      0xff\n      mul\n      not\n      and\n      swap1\n      dup4\n      iszero\n      iszero\n      mul\n      or\n      swap1\n      sstore\n      pop\n        /* \"contracts/GeekNft.sol\":2731:2747  itemsToSellCount */\n      0x04\n      0x00\n        /* \"contracts/GeekNft.sol\":2731:2749  itemsToSellCount-- */\n      dup2\n      sload\n      dup1\n      swap3\n      swap2\n      swap1\n      0x01\n      swap1\n      sub\n      swap2\n      swap1\n      pop\n      sstore\n      pop\n        /* \"contracts/GeekNft.sol\":2437:2766  function removeItemToSell(uint _tokenId) public onlyItemOwner(_tokenId) {... */\n      pop\n      pop\n      jump\t// out\n        /* \"contracts/GeekNft.sol\":2772:3103  function addItemToSell(uint _tokenId) public onlyItemOwner(_tokenId) {... */\n    tag_56:\n        /* \"contracts/GeekNft.sol\":2831:2839  _tokenId */\n      dup1\n        /* \"contracts/GeekNft.sol\":843:853  msg.sender */\n      caller\n        /* \"contracts/GeekNft.sol\":818:853  itemToOwner[_tokenId] == msg.sender */\n      0xffffffffffffffffffffffffffffffffffffffff\n      and\n        /* \"contracts/GeekNft.sol\":818:829  itemToOwner */\n      0x06\n        /* \"contracts/GeekNft.sol\":818:839  itemToOwner[_tokenId] */\n      0x00\n        /* \"contracts/GeekNft.sol\":830:838  _tokenId */\n      dup4\n        /* \"contracts/GeekNft.sol\":818:839  itemToOwner[_tokenId] */\n      dup2\n      mstore\n      0x20\n      add\n      swap1\n      dup2\n      mstore\n      0x20\n      add\n      0x00\n      keccak256\n      0x00\n      swap1\n      sload\n      swap1\n      0x0100\n      exp\n      swap1\n      div\n      0xffffffffffffffffffffffffffffffffffffffff\n      and\n        /* \"contracts/GeekNft.sol\":818:853  itemToOwner[_tokenId] == msg.sender */\n      0xffffffffffffffffffffffffffffffffffffffff\n      and\n      eq\n        /* \"contracts/GeekNft.sol\":810:887  require(itemToOwner[_tokenId] == msg.sender, \"Only item's owner can do that\") */\n      tag_152\n      jumpi\n      mload(0x40)\n      0x08c379a000000000000000000000000000000000000000000000000000000000\n      dup2\n      mstore\n      0x04\n      add\n      tag_153\n      swap1\n      tag_140\n      jump\t// in\n    tag_153:\n      mload(0x40)\n      dup1\n      swap2\n      sub\n      swap1\n      revert\n    tag_152:\n        /* \"contracts/GeekNft.sol\":2892:2893  0 */\n      0x00\n        /* \"contracts/GeekNft.sol\":2859:2894  itemToOwner[_tokenId] != address(0) */\n      0xffffffffffffffffffffffffffffffffffffffff\n      and\n        /* \"contracts/GeekNft.sol\":2859:2870  itemToOwner */\n      0x06\n        /* \"contracts/GeekNft.sol\":2859:2880  itemToOwner[_tokenId] */\n      0x00\n        /* \"contracts/GeekNft.sol\":2871:2879  _tokenId */\n      dup5\n        /* \"contracts/GeekNft.sol\":2859:2880  itemToOwner[_tokenId] */\n      dup2\n      mstore\n      0x20\n      add\n      swap1\n      dup2\n      mstore\n      0x20\n      add\n      0x00\n      keccak256\n      0x00\n      swap1\n      sload\n      swap1\n      0x0100\n      exp\n      swap1\n      div\n      0xffffffffffffffffffffffffffffffffffffffff\n      and\n        /* \"contracts/GeekNft.sol\":2859:2894  itemToOwner[_tokenId] != address(0) */\n      0xffffffffffffffffffffffffffffffffffffffff\n      and\n      eq\n      iszero\n        /* \"contracts/GeekNft.sol\":2851:2918  require(itemToOwner[_tokenId] != address(0), \"token doesn't exist\") */\n      tag_155\n      jumpi\n      mload(0x40)\n      0x08c379a000000000000000000000000000000000000000000000000000000000\n      dup2\n      mstore\n      0x04\n      add\n      tag_156\n      swap1\n      tag_127\n      jump\t// in\n    tag_156:\n      mload(0x40)\n      dup1\n      swap2\n      sub\n      swap1\n      revert\n    tag_155:\n        /* \"contracts/GeekNft.sol\":2962:2967  false */\n      0x00\n        /* \"contracts/GeekNft.sol\":2936:2967  items[_tokenId].toSell == false */\n      iszero\n      iszero\n        /* \"contracts/GeekNft.sol\":2936:2941  items */\n      0x03\n        /* \"contracts/GeekNft.sol\":2942:2950  _tokenId */\n      dup4\n        /* \"contracts/GeekNft.sol\":2936:2951  items[_tokenId] */\n      dup2\n      sload\n      dup2\n      lt\n      tag_157\n      jumpi\n      mstore(0x00, 0x4e487b7100000000000000000000000000000000000000000000000000000000)\n      mstore(0x04, 0x32)\n      revert(0x00, 0x24)\n    tag_157:\n      swap1\n      0x00\n      mstore\n      keccak256(0x00, 0x20)\n      swap1\n      0x04\n      mul\n      add\n        /* \"contracts/GeekNft.sol\":2936:2958  items[_tokenId].toSell */\n      0x03\n      add\n      0x00\n      swap1\n      sload\n      swap1\n      0x0100\n      exp\n      swap1\n      div\n      0xff\n      and\n        /* \"contracts/GeekNft.sol\":2936:2967  items[_tokenId].toSell == false */\n      iszero\n      iszero\n      eq\n        /* \"contracts/GeekNft.sol\":2928:2996  require(items[_tokenId].toSell == false, \"token is already to sell\") */\n      tag_159\n      jumpi\n      mload(0x40)\n      0x08c379a000000000000000000000000000000000000000000000000000000000\n      dup2\n      mstore\n      0x04\n      add\n      tag_160\n      swap1\n      tag_161\n      jump\t// in\n    tag_160:\n      mload(0x40)\n      dup1\n      swap2\n      sub\n      swap1\n      revert\n    tag_159:\n        /* \"contracts/GeekNft.sol\":3031:3035  true */\n      0x01\n        /* \"contracts/GeekNft.sol\":3006:3011  items */\n      0x03\n        /* \"contracts/GeekNft.sol\":3012:3020  _tokenId */\n      dup4\n        /* \"contracts/GeekNft.sol\":3006:3021  items[_tokenId] */\n      dup2\n      sload\n      dup2\n      lt\n      tag_162\n      jumpi\n      mstore(0x00, 0x4e487b7100000000000000000000000000000000000000000000000000000000)\n      mstore(0x04, 0x32)\n      revert(0x00, 0x24)\n    tag_162:\n      swap1\n      0x00\n      mstore\n      keccak256(0x00, 0x20)\n      swap1\n      0x04\n      mul\n      add\n        /* \"contracts/GeekNft.sol\":3006:3028  items[_tokenId].toSell */\n      0x03\n      add\n      0x00\n        /* \"contracts/GeekNft.sol\":3006:3035  items[_tokenId].toSell = true */\n      0x0100\n      exp\n      dup2\n      sload\n      dup2\n      0xff\n      mul\n      not\n      and\n      swap1\n      dup4\n      iszero\n      iszero\n      mul\n      or\n      swap1\n      sstore\n      pop\n        /* \"contracts/GeekNft.sol\":3068:3084  itemsToSellCount */\n      0x04\n      0x00\n        /* \"contracts/GeekNft.sol\":3068:3086  itemsToSellCount++ */\n      dup2\n      sload\n      dup1\n      swap3\n      swap2\n      swap1\n      0x01\n      add\n      swap2\n      swap1\n      pop\n      sstore\n      pop\n        /* \"contracts/GeekNft.sol\":2772:3103  function addItemToSell(uint _tokenId) public onlyItemOwner(_tokenId) {... */\n      pop\n      pop\n      jump\t// out\n        /* \"contracts/GeekNft.sol\":1140:1413  function createItem(uint _price) public view returns (uint){... */\n    tag_60:\n        /* \"contracts/GeekNft.sol\":1194:1198  uint */\n      0x00\n        /* \"contracts/GeekNft.sol\":1226:1227  0 */\n      dup1\n        /* \"contracts/GeekNft.sol\":1217:1223  _price */\n      dup3\n        /* \"contracts/GeekNft.sol\":1217:1227  _price > 0 */\n      gt\n        /* \"contracts/GeekNft.sol\":1209:1258  require(_price > 0, \"Price cannot be equal to 0\") */\n      tag_165\n      jumpi\n      mload(0x40)\n      0x08c379a000000000000000000000000000000000000000000000000000000000\n      dup2\n      mstore\n      0x04\n      add\n      tag_166\n      swap1\n      tag_167\n      jump\t// in\n    tag_166:\n      mload(0x40)\n      dup1\n      swap2\n      sub\n      swap1\n      revert\n    tag_165:\n        /* \"contracts/GeekNft.sol\":1268:1283  uint newTokenId */\n      0x00\n        /* \"contracts/GeekNft.sol\":1286:1291  items */\n      0x03\n        /* \"contracts/GeekNft.sol\":1286:1298  items.length */\n      dup1\n      sload\n      swap1\n      pop\n        /* \"contracts/GeekNft.sol\":1268:1298  uint newTokenId = items.length */\n      swap1\n      pop\n        /* \"contracts/GeekNft.sol\":1352:1353  0 */\n      0x00\n        /* \"contracts/GeekNft.sol\":1317:1354  itemToOwner[newTokenId] == address(0) */\n      0xffffffffffffffffffffffffffffffffffffffff\n      and\n        /* \"contracts/GeekNft.sol\":1317:1328  itemToOwner */\n      0x06\n        /* \"contracts/GeekNft.sol\":1317:1340  itemToOwner[newTokenId] */\n      0x00\n        /* \"contracts/GeekNft.sol\":1329:1339  newTokenId */\n      dup4\n        /* \"contracts/GeekNft.sol\":1317:1340  itemToOwner[newTokenId] */\n      dup2\n      mstore\n      0x20\n      add\n      swap1\n      dup2\n      mstore\n      0x20\n      add\n      0x00\n      keccak256\n      0x00\n      swap1\n      sload\n      swap1\n      0x0100\n      exp\n      swap1\n      div\n      0xffffffffffffffffffffffffffffffffffffffff\n      and\n        /* \"contracts/GeekNft.sol\":1317:1354  itemToOwner[newTokenId] == address(0) */\n      0xffffffffffffffffffffffffffffffffffffffff\n      and\n      eq\n        /* \"contracts/GeekNft.sol\":1309:1378  require(itemToOwner[newTokenId] == address(0), \"token already exist\") */\n      tag_168\n      jumpi\n      mload(0x40)\n      0x08c379a000000000000000000000000000000000000000000000000000000000\n      dup2\n      mstore\n      0x04\n      add\n      tag_169\n      swap1\n      tag_170\n      jump\t// in\n    tag_169:\n      mload(0x40)\n      dup1\n      swap2\n      sub\n      swap1\n      revert\n    tag_168:\n        /* \"contracts/GeekNft.sol\":1396:1406  newTokenId */\n      dup1\n        /* \"contracts/GeekNft.sol\":1389:1406  return newTokenId */\n      swap2\n      pop\n      pop\n        /* \"contracts/GeekNft.sol\":1140:1413  function createItem(uint _price) public view returns (uint){... */\n      swap2\n      swap1\n      pop\n      jump\t// out\n        /* \"contracts/GeekNft.sol\":1040:1134  function getFeesPercentage() public view returns (uint) {... */\n    tag_64:\n        /* \"contracts/GeekNft.sol\":1090:1094  uint */\n      0x00\n        /* \"contracts/GeekNft.sol\":1113:1127  feesPercentage */\n      sload(0x05)\n        /* \"contracts/GeekNft.sol\":1106:1127  return feesPercentage */\n      swap1\n      pop\n        /* \"contracts/GeekNft.sol\":1040:1134  function getFeesPercentage() public view returns (uint) {... */\n      swap1\n      jump\t// out\n        /* \"contracts/GeekNft.sol\":4330:4552  function getFees(uint _price, uint _percentage) private pure returns (uint, uint){... */\n    tag_131:\n        /* \"contracts/GeekNft.sol\":4400:4404  uint */\n      0x00\n        /* \"contracts/GeekNft.sol\":4406:4410  uint */\n      dup1\n        /* \"contracts/GeekNft.sol\":4421:4430  uint fees */\n      0x00\n        /* \"contracts/GeekNft.sol\":4458:4461  100 */\n      0x64\n        /* \"contracts/GeekNft.sol\":4448:4454  _price */\n      dup6\n        /* \"contracts/GeekNft.sol\":4434:4445  _percentage */\n      dup6\n        /* \"contracts/GeekNft.sol\":4434:4454  _percentage * _price */\n      tag_173\n      swap2\n      swap1\n      tag_174\n      jump\t// in\n    tag_173:\n        /* \"contracts/GeekNft.sol\":4433:4461  (_percentage * _price) / 100 */\n      tag_175\n      swap2\n      swap1\n      tag_176\n      jump\t// in\n    tag_175:\n        /* \"contracts/GeekNft.sol\":4421:4461  uint fees = (_percentage * _price) / 100 */\n      swap1\n      pop\n        /* \"contracts/GeekNft.sol\":4471:4490  uint totalMinusFees */\n      0x00\n        /* \"contracts/GeekNft.sol\":4502:4506  fees */\n      dup2\n        /* \"contracts/GeekNft.sol\":4493:4499  _price */\n      dup7\n        /* \"contracts/GeekNft.sol\":4493:4506  _price - fees */\n      tag_177\n      swap2\n      swap1\n      tag_178\n      jump\t// in\n    tag_177:\n        /* \"contracts/GeekNft.sol\":4471:4506  uint totalMinusFees = _price - fees */\n      swap1\n      pop\n        /* \"contracts/GeekNft.sol\":4524:4528  fees */\n      dup2\n        /* \"contracts/GeekNft.sol\":4530:4544  totalMinusFees */\n      dup2\n        /* \"contracts/GeekNft.sol\":4516:4545  return (fees, totalMinusFees) */\n      swap4\n      pop\n      swap4\n      pop\n      pop\n      pop\n        /* \"contracts/GeekNft.sol\":4330:4552  function getFees(uint _price, uint _percentage) private pure returns (uint, uint){... */\n      swap3\n      pop\n      swap3\n      swap1\n      pop\n      jump\t// out\n    tag_71:\n      mload(0x40)\n      dup1\n      0x80\n      add\n      0x40\n      mstore\n      dup1\n      0x00\n      dup2\n      mstore\n      0x20\n      add\n      0x00\n      dup2\n      mstore\n      0x20\n      add\n      0x00\n      dup2\n      mstore\n      0x20\n      add\n      iszero(iszero(0x00))\n      dup2\n      mstore\n      pop\n      swap1\n      jump\t// out\n        /* \"#utility.yul\":7:146   */\n    tag_180:\n      0x00\n        /* \"#utility.yul\":91:97   */\n      dup2\n        /* \"#utility.yul\":78:98   */\n      calldataload\n        /* \"#utility.yul\":69:98   */\n      swap1\n      pop\n        /* \"#utility.yul\":107:140   */\n      tag_182\n        /* \"#utility.yul\":134:139   */\n      dup2\n        /* \"#utility.yul\":107:140   */\n      tag_183\n      jump\t// in\n    tag_182:\n        /* \"#utility.yul\":59:146   */\n      swap3\n      swap2\n      pop\n      pop\n      jump\t// out\n        /* \"#utility.yul\":152:291   */\n    tag_184:\n      0x00\n        /* \"#utility.yul\":236:242   */\n      dup2\n        /* \"#utility.yul\":223:243   */\n      calldataload\n        /* \"#utility.yul\":214:243   */\n      swap1\n      pop\n        /* \"#utility.yul\":252:285   */\n      tag_186\n        /* \"#utility.yul\":279:284   */\n      dup2\n        /* \"#utility.yul\":252:285   */\n      tag_187\n      jump\t// in\n    tag_186:\n        /* \"#utility.yul\":204:291   */\n      swap3\n      swap2\n      pop\n      pop\n      jump\t// out\n        /* \"#utility.yul\":297:559   */\n    tag_42:\n      0x00\n        /* \"#utility.yul\":405:407   */\n      0x20\n        /* \"#utility.yul\":393:402   */\n      dup3\n        /* \"#utility.yul\":384:391   */\n      dup5\n        /* \"#utility.yul\":380:403   */\n      sub\n        /* \"#utility.yul\":376:408   */\n      slt\n        /* \"#utility.yul\":373:375   */\n      iszero\n      tag_189\n      jumpi\n        /* \"#utility.yul\":421:422   */\n      0x00\n        /* \"#utility.yul\":418:419   */\n      dup1\n        /* \"#utility.yul\":411:423   */\n      revert\n        /* \"#utility.yul\":373:375   */\n    tag_189:\n        /* \"#utility.yul\":464:465   */\n      0x00\n        /* \"#utility.yul\":489:542   */\n      tag_190\n        /* \"#utility.yul\":534:541   */\n      dup5\n        /* \"#utility.yul\":525:531   */\n      dup3\n        /* \"#utility.yul\":514:523   */\n      dup6\n        /* \"#utility.yul\":510:532   */\n      add\n        /* \"#utility.yul\":489:542   */\n      tag_180\n      jump\t// in\n    tag_190:\n        /* \"#utility.yul\":479:542   */\n      swap2\n      pop\n        /* \"#utility.yul\":435:552   */\n      pop\n        /* \"#utility.yul\":363:559   */\n      swap3\n      swap2\n      pop\n      pop\n      jump\t// out\n        /* \"#utility.yul\":565:827   */\n    tag_22:\n      0x00\n        /* \"#utility.yul\":673:675   */\n      0x20\n        /* \"#utility.yul\":661:670   */\n      dup3\n        /* \"#utility.yul\":652:659   */\n      dup5\n        /* \"#utility.yul\":648:671   */\n      sub\n        /* \"#utility.yul\":644:676   */\n      slt\n        /* \"#utility.yul\":641:643   */\n      iszero\n      tag_192\n      jumpi\n        /* \"#utility.yul\":689:690   */\n      0x00\n        /* \"#utility.yul\":686:687   */\n      dup1\n        /* \"#utility.yul\":679:691   */\n      revert\n        /* \"#utility.yul\":641:643   */\n    tag_192:\n        /* \"#utility.yul\":732:733   */\n      0x00\n        /* \"#utility.yul\":757:810   */\n      tag_193\n        /* \"#utility.yul\":802:809   */\n      dup5\n        /* \"#utility.yul\":793:799   */\n      dup3\n        /* \"#utility.yul\":782:791   */\n      dup6\n        /* \"#utility.yul\":778:800   */\n      add\n        /* \"#utility.yul\":757:810   */\n      tag_184\n      jump\t// in\n    tag_193:\n        /* \"#utility.yul\":747:810   */\n      swap2\n      pop\n        /* \"#utility.yul\":703:820   */\n      pop\n        /* \"#utility.yul\":631:827   */\n      swap3\n      swap2\n      pop\n      pop\n      jump\t// out\n        /* \"#utility.yul\":833:1092   */\n    tag_194:\n      0x00\n        /* \"#utility.yul\":963:1049   */\n      tag_196\n        /* \"#utility.yul\":1045:1048   */\n      dup4\n        /* \"#utility.yul\":1037:1043   */\n      dup4\n        /* \"#utility.yul\":963:1049   */\n      tag_197\n      jump\t// in\n    tag_196:\n        /* \"#utility.yul\":1081:1085   */\n      0x80\n        /* \"#utility.yul\":1076:1079   */\n      dup4\n        /* \"#utility.yul\":1072:1086   */\n      add\n        /* \"#utility.yul\":1058:1086   */\n      swap1\n      pop\n        /* \"#utility.yul\":953:1092   */\n      swap3\n      swap2\n      pop\n      pop\n      jump\t// out\n        /* \"#utility.yul\":1098:1216   */\n    tag_198:\n        /* \"#utility.yul\":1185:1209   */\n      tag_200\n        /* \"#utility.yul\":1203:1208   */\n      dup2\n        /* \"#utility.yul\":1185:1209   */\n      tag_201\n      jump\t// in\n    tag_200:\n        /* \"#utility.yul\":1180:1183   */\n      dup3\n        /* \"#utility.yul\":1173:1210   */\n      mstore\n        /* \"#utility.yul\":1163:1216   */\n      pop\n      pop\n      jump\t// out\n        /* \"#utility.yul\":1276:2168   */\n    tag_202:\n      0x00\n        /* \"#utility.yul\":1464:1538   */\n      tag_204\n        /* \"#utility.yul\":1532:1537   */\n      dup3\n        /* \"#utility.yul\":1464:1538   */\n      tag_205\n      jump\t// in\n    tag_204:\n        /* \"#utility.yul\":1554:1660   */\n      tag_206\n        /* \"#utility.yul\":1653:1659   */\n      dup2\n        /* \"#utility.yul\":1648:1651   */\n      dup6\n        /* \"#utility.yul\":1554:1660   */\n      tag_207\n      jump\t// in\n    tag_206:\n        /* \"#utility.yul\":1547:1660   */\n      swap4\n      pop\n        /* \"#utility.yul\":1684:1760   */\n      tag_208\n        /* \"#utility.yul\":1754:1759   */\n      dup4\n        /* \"#utility.yul\":1684:1760   */\n      tag_209\n      jump\t// in\n    tag_208:\n        /* \"#utility.yul\":1783:1790   */\n      dup1\n        /* \"#utility.yul\":1814:1815   */\n      0x00\n        /* \"#utility.yul\":1799:2143   */\n    tag_210:\n        /* \"#utility.yul\":1824:1830   */\n      dup4\n        /* \"#utility.yul\":1821:1822   */\n      dup2\n        /* \"#utility.yul\":1818:1831   */\n      lt\n        /* \"#utility.yul\":1799:2143   */\n      iszero\n      tag_212\n      jumpi\n        /* \"#utility.yul\":1900:1906   */\n      dup2\n        /* \"#utility.yul\":1894:1907   */\n      mload\n        /* \"#utility.yul\":1927:2030   */\n      tag_213\n        /* \"#utility.yul\":2026:2029   */\n      dup9\n        /* \"#utility.yul\":2011:2024   */\n      dup3\n        /* \"#utility.yul\":1927:2030   */\n      tag_194\n      jump\t// in\n    tag_213:\n        /* \"#utility.yul\":1920:2030   */\n      swap8\n      pop\n        /* \"#utility.yul\":2053:2133   */\n      tag_214\n        /* \"#utility.yul\":2126:2132   */\n      dup4\n        /* \"#utility.yul\":2053:2133   */\n      tag_215\n      jump\t// in\n    tag_214:\n        /* \"#utility.yul\":2043:2133   */\n      swap3\n      pop\n        /* \"#utility.yul\":1859:2143   */\n      pop\n        /* \"#utility.yul\":1846:1847   */\n      0x01\n        /* \"#utility.yul\":1843:1844   */\n      dup2\n        /* \"#utility.yul\":1839:1848   */\n      add\n        /* \"#utility.yul\":1834:1848   */\n      swap1\n      pop\n        /* \"#utility.yul\":1799:2143   */\n      jump(tag_210)\n    tag_212:\n        /* \"#utility.yul\":1803:1817   */\n      pop\n        /* \"#utility.yul\":2159:2162   */\n      dup6\n        /* \"#utility.yul\":2152:2162   */\n      swap4\n      pop\n        /* \"#utility.yul\":1440:2168   */\n      pop\n      pop\n      pop\n      swap3\n      swap2\n      pop\n      pop\n      jump\t// out\n        /* \"#utility.yul\":2174:2273   */\n    tag_216:\n        /* \"#utility.yul\":2245:2266   */\n      tag_218\n        /* \"#utility.yul\":2260:2265   */\n      dup2\n        /* \"#utility.yul\":2245:2266   */\n      tag_219\n      jump\t// in\n    tag_218:\n        /* \"#utility.yul\":2240:2243   */\n      dup3\n        /* \"#utility.yul\":2233:2267   */\n      mstore\n        /* \"#utility.yul\":2223:2273   */\n      pop\n      pop\n      jump\t// out\n        /* \"#utility.yul\":2279:2645   */\n    tag_220:\n      0x00\n        /* \"#utility.yul\":2442:2509   */\n      tag_222\n        /* \"#utility.yul\":2506:2508   */\n      0x13\n        /* \"#utility.yul\":2501:2504   */\n      dup4\n        /* \"#utility.yul\":2442:2509   */\n      tag_223\n      jump\t// in\n    tag_222:\n        /* \"#utility.yul\":2435:2509   */\n      swap2\n      pop\n        /* \"#utility.yul\":2518:2611   */\n      tag_224\n        /* \"#utility.yul\":2607:2610   */\n      dup3\n        /* \"#utility.yul\":2518:2611   */\n      tag_225\n      jump\t// in\n    tag_224:\n        /* \"#utility.yul\":2636:2638   */\n      0x20\n        /* \"#utility.yul\":2631:2634   */\n      dup3\n        /* \"#utility.yul\":2627:2639   */\n      add\n        /* \"#utility.yul\":2620:2639   */\n      swap1\n      pop\n        /* \"#utility.yul\":2425:2645   */\n      swap2\n      swap1\n      pop\n      jump\t// out\n        /* \"#utility.yul\":2651:3017   */\n    tag_226:\n      0x00\n        /* \"#utility.yul\":2814:2881   */\n      tag_228\n        /* \"#utility.yul\":2878:2880   */\n      0x13\n        /* \"#utility.yul\":2873:2876   */\n      dup4\n        /* \"#utility.yul\":2814:2881   */\n      tag_223\n      jump\t// in\n    tag_228:\n        /* \"#utility.yul\":2807:2881   */\n      swap2\n      pop\n        /* \"#utility.yul\":2890:2983   */\n      tag_229\n        /* \"#utility.yul\":2979:2982   */\n      dup3\n        /* \"#utility.yul\":2890:2983   */\n      tag_230\n      jump\t// in\n    tag_229:\n        /* \"#utility.yul\":3008:3010   */\n      0x20\n        /* \"#utility.yul\":3003:3006   */\n      dup3\n        /* \"#utility.yul\":2999:3011   */\n      add\n        /* \"#utility.yul\":2992:3011   */\n      swap1\n      pop\n        /* \"#utility.yul\":2797:3017   */\n      swap2\n      swap1\n      pop\n      jump\t// out\n        /* \"#utility.yul\":3023:3389   */\n    tag_231:\n      0x00\n        /* \"#utility.yul\":3186:3253   */\n      tag_233\n        /* \"#utility.yul\":3250:3252   */\n      0x13\n        /* \"#utility.yul\":3245:3248   */\n      dup4\n        /* \"#utility.yul\":3186:3253   */\n      tag_223\n      jump\t// in\n    tag_233:\n        /* \"#utility.yul\":3179:3253   */\n      swap2\n      pop\n        /* \"#utility.yul\":3262:3355   */\n      tag_234\n        /* \"#utility.yul\":3351:3354   */\n      dup3\n        /* \"#utility.yul\":3262:3355   */\n      tag_235\n      jump\t// in\n    tag_234:\n        /* \"#utility.yul\":3380:3382   */\n      0x20\n        /* \"#utility.yul\":3375:3378   */\n      dup3\n        /* \"#utility.yul\":3371:3383   */\n      add\n        /* \"#utility.yul\":3364:3383   */\n      swap1\n      pop\n        /* \"#utility.yul\":3169:3389   */\n      swap2\n      swap1\n      pop\n      jump\t// out\n        /* \"#utility.yul\":3395:3761   */\n    tag_236:\n      0x00\n        /* \"#utility.yul\":3558:3625   */\n      tag_238\n        /* \"#utility.yul\":3622:3624   */\n      0x1d\n        /* \"#utility.yul\":3617:3620   */\n      dup4\n        /* \"#utility.yul\":3558:3625   */\n      tag_223\n      jump\t// in\n    tag_238:\n        /* \"#utility.yul\":3551:3625   */\n      swap2\n      pop\n        /* \"#utility.yul\":3634:3727   */\n      tag_239\n        /* \"#utility.yul\":3723:3726   */\n      dup3\n        /* \"#utility.yul\":3634:3727   */\n      tag_240\n      jump\t// in\n    tag_239:\n        /* \"#utility.yul\":3752:3754   */\n      0x20\n        /* \"#utility.yul\":3747:3750   */\n      dup3\n        /* \"#utility.yul\":3743:3755   */\n      add\n        /* \"#utility.yul\":3736:3755   */\n      swap1\n      pop\n        /* \"#utility.yul\":3541:3761   */\n      swap2\n      swap1\n      pop\n      jump\t// out\n        /* \"#utility.yul\":3767:4133   */\n    tag_241:\n      0x00\n        /* \"#utility.yul\":3930:3997   */\n      tag_243\n        /* \"#utility.yul\":3994:3996   */\n      0x18\n        /* \"#utility.yul\":3989:3992   */\n      dup4\n        /* \"#utility.yul\":3930:3997   */\n      tag_223\n      jump\t// in\n    tag_243:\n        /* \"#utility.yul\":3923:3997   */\n      swap2\n      pop\n        /* \"#utility.yul\":4006:4099   */\n      tag_244\n        /* \"#utility.yul\":4095:4098   */\n      dup3\n        /* \"#utility.yul\":4006:4099   */\n      tag_245\n      jump\t// in\n    tag_244:\n        /* \"#utility.yul\":4124:4126   */\n      0x20\n        /* \"#utility.yul\":4119:4122   */\n      dup3\n        /* \"#utility.yul\":4115:4127   */\n      add\n        /* \"#utility.yul\":4108:4127   */\n      swap1\n      pop\n        /* \"#utility.yul\":3913:4133   */\n      swap2\n      swap1\n      pop\n      jump\t// out\n        /* \"#utility.yul\":4139:4505   */\n    tag_246:\n      0x00\n        /* \"#utility.yul\":4302:4369   */\n      tag_248\n        /* \"#utility.yul\":4366:4368   */\n      0x21\n        /* \"#utility.yul\":4361:4364   */\n      dup4\n        /* \"#utility.yul\":4302:4369   */\n      tag_223\n      jump\t// in\n    tag_248:\n        /* \"#utility.yul\":4295:4369   */\n      swap2\n      pop\n        /* \"#utility.yul\":4378:4471   */\n      tag_249\n        /* \"#utility.yul\":4467:4470   */\n      dup3\n        /* \"#utility.yul\":4378:4471   */\n      tag_250\n      jump\t// in\n    tag_249:\n        /* \"#utility.yul\":4496:4498   */\n      0x40\n        /* \"#utility.yul\":4491:4494   */\n      dup3\n        /* \"#utility.yul\":4487:4499   */\n      add\n        /* \"#utility.yul\":4480:4499   */\n      swap1\n      pop\n        /* \"#utility.yul\":4285:4505   */\n      swap2\n      swap1\n      pop\n      jump\t// out\n        /* \"#utility.yul\":4511:4877   */\n    tag_251:\n      0x00\n        /* \"#utility.yul\":4674:4741   */\n      tag_253\n        /* \"#utility.yul\":4738:4740   */\n      0x1a\n        /* \"#utility.yul\":4733:4736   */\n      dup4\n        /* \"#utility.yul\":4674:4741   */\n      tag_223\n      jump\t// in\n    tag_253:\n        /* \"#utility.yul\":4667:4741   */\n      swap2\n      pop\n        /* \"#utility.yul\":4750:4843   */\n      tag_254\n        /* \"#utility.yul\":4839:4842   */\n      dup3\n        /* \"#utility.yul\":4750:4843   */\n      tag_255\n      jump\t// in\n    tag_254:\n        /* \"#utility.yul\":4868:4870   */\n      0x20\n        /* \"#utility.yul\":4863:4866   */\n      dup3\n        /* \"#utility.yul\":4859:4871   */\n      add\n        /* \"#utility.yul\":4852:4871   */\n      swap1\n      pop\n        /* \"#utility.yul\":4657:4877   */\n      swap2\n      swap1\n      pop\n      jump\t// out\n        /* \"#utility.yul\":4933:5769   */\n    tag_197:\n        /* \"#utility.yul\":5060:5064   */\n      0x80\n        /* \"#utility.yul\":5055:5058   */\n      dup3\n        /* \"#utility.yul\":5051:5065   */\n      add\n        /* \"#utility.yul\":5150:5154   */\n      0x00\n        /* \"#utility.yul\":5143:5148   */\n      dup3\n        /* \"#utility.yul\":5139:5155   */\n      add\n        /* \"#utility.yul\":5133:5156   */\n      mload\n        /* \"#utility.yul\":5169:5232   */\n      tag_257\n        /* \"#utility.yul\":5226:5230   */\n      0x00\n        /* \"#utility.yul\":5221:5224   */\n      dup6\n        /* \"#utility.yul\":5217:5231   */\n      add\n        /* \"#utility.yul\":5203:5215   */\n      dup3\n        /* \"#utility.yul\":5169:5232   */\n      tag_258\n      jump\t// in\n    tag_257:\n        /* \"#utility.yul\":5075:5242   */\n      pop\n        /* \"#utility.yul\":5325:5329   */\n      0x20\n        /* \"#utility.yul\":5318:5323   */\n      dup3\n        /* \"#utility.yul\":5314:5330   */\n      add\n        /* \"#utility.yul\":5308:5331   */\n      mload\n        /* \"#utility.yul\":5344:5407   */\n      tag_259\n        /* \"#utility.yul\":5401:5405   */\n      0x20\n        /* \"#utility.yul\":5396:5399   */\n      dup6\n        /* \"#utility.yul\":5392:5406   */\n      add\n        /* \"#utility.yul\":5378:5390   */\n      dup3\n        /* \"#utility.yul\":5344:5407   */\n      tag_258\n      jump\t// in\n    tag_259:\n        /* \"#utility.yul\":5252:5417   */\n      pop\n        /* \"#utility.yul\":5500:5504   */\n      0x40\n        /* \"#utility.yul\":5493:5498   */\n      dup3\n        /* \"#utility.yul\":5489:5505   */\n      add\n        /* \"#utility.yul\":5483:5506   */\n      mload\n        /* \"#utility.yul\":5519:5582   */\n      tag_260\n        /* \"#utility.yul\":5576:5580   */\n      0x40\n        /* \"#utility.yul\":5571:5574   */\n      dup6\n        /* \"#utility.yul\":5567:5581   */\n      add\n        /* \"#utility.yul\":5553:5565   */\n      dup3\n        /* \"#utility.yul\":5519:5582   */\n      tag_258\n      jump\t// in\n    tag_260:\n        /* \"#utility.yul\":5427:5592   */\n      pop\n        /* \"#utility.yul\":5676:5680   */\n      0x60\n        /* \"#utility.yul\":5669:5674   */\n      dup3\n        /* \"#utility.yul\":5665:5681   */\n      add\n        /* \"#utility.yul\":5659:5682   */\n      mload\n        /* \"#utility.yul\":5695:5752   */\n      tag_261\n        /* \"#utility.yul\":5746:5750   */\n      0x60\n        /* \"#utility.yul\":5741:5744   */\n      dup6\n        /* \"#utility.yul\":5737:5751   */\n      add\n        /* \"#utility.yul\":5723:5735   */\n      dup3\n        /* \"#utility.yul\":5695:5752   */\n      tag_216\n      jump\t// in\n    tag_261:\n        /* \"#utility.yul\":5602:5762   */\n      pop\n        /* \"#utility.yul\":5029:5769   */\n      pop\n      pop\n      pop\n      jump\t// out\n        /* \"#utility.yul\":5775:5883   */\n    tag_258:\n        /* \"#utility.yul\":5852:5876   */\n      tag_263\n        /* \"#utility.yul\":5870:5875   */\n      dup2\n        /* \"#utility.yul\":5852:5876   */\n      tag_264\n      jump\t// in\n    tag_263:\n        /* \"#utility.yul\":5847:5850   */\n      dup3\n        /* \"#utility.yul\":5840:5877   */\n      mstore\n        /* \"#utility.yul\":5830:5883   */\n      pop\n      pop\n      jump\t// out\n        /* \"#utility.yul\":5889:6007   */\n    tag_265:\n        /* \"#utility.yul\":5976:6000   */\n      tag_267\n        /* \"#utility.yul\":5994:5999   */\n      dup2\n        /* \"#utility.yul\":5976:6000   */\n      tag_264\n      jump\t// in\n    tag_267:\n        /* \"#utility.yul\":5971:5974   */\n      dup3\n        /* \"#utility.yul\":5964:6001   */\n      mstore\n        /* \"#utility.yul\":5954:6007   */\n      pop\n      pop\n      jump\t// out\n        /* \"#utility.yul\":6013:6235   */\n    tag_38:\n      0x00\n        /* \"#utility.yul\":6144:6146   */\n      0x20\n        /* \"#utility.yul\":6133:6142   */\n      dup3\n        /* \"#utility.yul\":6129:6147   */\n      add\n        /* \"#utility.yul\":6121:6147   */\n      swap1\n      pop\n        /* \"#utility.yul\":6157:6228   */\n      tag_269\n        /* \"#utility.yul\":6225:6226   */\n      0x00\n        /* \"#utility.yul\":6214:6223   */\n      dup4\n        /* \"#utility.yul\":6210:6227   */\n      add\n        /* \"#utility.yul\":6201:6207   */\n      dup5\n        /* \"#utility.yul\":6157:6228   */\n      tag_198\n      jump\t// in\n    tag_269:\n        /* \"#utility.yul\":6111:6235   */\n      swap3\n      swap2\n      pop\n      pop\n      jump\t// out\n        /* \"#utility.yul\":6241:6694   */\n    tag_18:\n      0x00\n        /* \"#utility.yul\":6462:6464   */\n      0x20\n        /* \"#utility.yul\":6451:6460   */\n      dup3\n        /* \"#utility.yul\":6447:6465   */\n      add\n        /* \"#utility.yul\":6439:6465   */\n      swap1\n      pop\n        /* \"#utility.yul\":6511:6520   */\n      dup2\n        /* \"#utility.yul\":6505:6509   */\n      dup2\n        /* \"#utility.yul\":6501:6521   */\n      sub\n        /* \"#utility.yul\":6497:6498   */\n      0x00\n        /* \"#utility.yul\":6486:6495   */\n      dup4\n        /* \"#utility.yul\":6482:6499   */\n      add\n        /* \"#utility.yul\":6475:6522   */\n      mstore\n        /* \"#utility.yul\":6539:6687   */\n      tag_271\n        /* \"#utility.yul\":6682:6686   */\n      dup2\n        /* \"#utility.yul\":6673:6679   */\n      dup5\n        /* \"#utility.yul\":6539:6687   */\n      tag_202\n      jump\t// in\n    tag_271:\n        /* \"#utility.yul\":6531:6687   */\n      swap1\n      pop\n        /* \"#utility.yul\":6429:6694   */\n      swap3\n      swap2\n      pop\n      pop\n      jump\t// out\n        /* \"#utility.yul\":6700:7119   */\n    tag_148:\n      0x00\n        /* \"#utility.yul\":6904:6906   */\n      0x20\n        /* \"#utility.yul\":6893:6902   */\n      dup3\n        /* \"#utility.yul\":6889:6907   */\n      add\n        /* \"#utility.yul\":6881:6907   */\n      swap1\n      pop\n        /* \"#utility.yul\":6953:6962   */\n      dup2\n        /* \"#utility.yul\":6947:6951   */\n      dup2\n        /* \"#utility.yul\":6943:6963   */\n      sub\n        /* \"#utility.yul\":6939:6940   */\n      0x00\n        /* \"#utility.yul\":6928:6937   */\n      dup4\n        /* \"#utility.yul\":6924:6941   */\n      add\n        /* \"#utility.yul\":6917:6964   */\n      mstore\n        /* \"#utility.yul\":6981:7112   */\n      tag_273\n        /* \"#utility.yul\":7107:7111   */\n      dup2\n        /* \"#utility.yul\":6981:7112   */\n      tag_220\n      jump\t// in\n    tag_273:\n        /* \"#utility.yul\":6973:7112   */\n      swap1\n      pop\n        /* \"#utility.yul\":6871:7119   */\n      swap2\n      swap1\n      pop\n      jump\t// out\n        /* \"#utility.yul\":7125:7544   */\n    tag_170:\n      0x00\n        /* \"#utility.yul\":7329:7331   */\n      0x20\n        /* \"#utility.yul\":7318:7327   */\n      dup3\n        /* \"#utility.yul\":7314:7332   */\n      add\n        /* \"#utility.yul\":7306:7332   */\n      swap1\n      pop\n        /* \"#utility.yul\":7378:7387   */\n      dup2\n        /* \"#utility.yul\":7372:7376   */\n      dup2\n        /* \"#utility.yul\":7368:7388   */\n      sub\n        /* \"#utility.yul\":7364:7365   */\n      0x00\n        /* \"#utility.yul\":7353:7362   */\n      dup4\n        /* \"#utility.yul\":7349:7366   */\n      add\n        /* \"#utility.yul\":7342:7389   */\n      mstore\n        /* \"#utility.yul\":7406:7537   */\n      tag_275\n        /* \"#utility.yul\":7532:7536   */\n      dup2\n        /* \"#utility.yul\":7406:7537   */\n      tag_226\n      jump\t// in\n    tag_275:\n        /* \"#utility.yul\":7398:7537   */\n      swap1\n      pop\n        /* \"#utility.yul\":7296:7544   */\n      swap2\n      swap1\n      pop\n      jump\t// out\n        /* \"#utility.yul\":7550:7969   */\n    tag_127:\n      0x00\n        /* \"#utility.yul\":7754:7756   */\n      0x20\n        /* \"#utility.yul\":7743:7752   */\n      dup3\n        /* \"#utility.yul\":7739:7757   */\n      add\n        /* \"#utility.yul\":7731:7757   */\n      swap1\n      pop\n        /* \"#utility.yul\":7803:7812   */\n      dup2\n        /* \"#utility.yul\":7797:7801   */\n      dup2\n        /* \"#utility.yul\":7793:7813   */\n      sub\n        /* \"#utility.yul\":7789:7790   */\n      0x00\n        /* \"#utility.yul\":7778:7787   */\n      dup4\n        /* \"#utility.yul\":7774:7791   */\n      add\n        /* \"#utility.yul\":7767:7814   */\n      mstore\n        /* \"#utility.yul\":7831:7962   */\n      tag_277\n        /* \"#utility.yul\":7957:7961   */\n      dup2\n        /* \"#utility.yul\":7831:7962   */\n      tag_231\n      jump\t// in\n    tag_277:\n        /* \"#utility.yul\":7823:7962   */\n      swap1\n      pop\n        /* \"#utility.yul\":7721:7969   */\n      swap2\n      swap1\n      pop\n      jump\t// out\n        /* \"#utility.yul\":7975:8394   */\n    tag_140:\n      0x00\n        /* \"#utility.yul\":8179:8181   */\n      0x20\n        /* \"#utility.yul\":8168:8177   */\n      dup3\n        /* \"#utility.yul\":8164:8182   */\n      add\n        /* \"#utility.yul\":8156:8182   */\n      swap1\n      pop\n        /* \"#utility.yul\":8228:8237   */\n      dup2\n        /* \"#utility.yul\":8222:8226   */\n      dup2\n        /* \"#utility.yul\":8218:8238   */\n      sub\n        /* \"#utility.yul\":8214:8215   */\n      0x00\n        /* \"#utility.yul\":8203:8212   */\n      dup4\n        /* \"#utility.yul\":8199:8216   */\n      add\n        /* \"#utility.yul\":8192:8239   */\n      mstore\n        /* \"#utility.yul\":8256:8387   */\n      tag_279\n        /* \"#utility.yul\":8382:8386   */\n      dup2\n        /* \"#utility.yul\":8256:8387   */\n      tag_236\n      jump\t// in\n    tag_279:\n        /* \"#utility.yul\":8248:8387   */\n      swap1\n      pop\n        /* \"#utility.yul\":8146:8394   */\n      swap2\n      swap1\n      pop\n      jump\t// out\n        /* \"#utility.yul\":8400:8819   */\n    tag_161:\n      0x00\n        /* \"#utility.yul\":8604:8606   */\n      0x20\n        /* \"#utility.yul\":8593:8602   */\n      dup3\n        /* \"#utility.yul\":8589:8607   */\n      add\n        /* \"#utility.yul\":8581:8607   */\n      swap1\n      pop\n        /* \"#utility.yul\":8653:8662   */\n      dup2\n        /* \"#utility.yul\":8647:8651   */\n      dup2\n        /* \"#utility.yul\":8643:8663   */\n      sub\n        /* \"#utility.yul\":8639:8640   */\n      0x00\n        /* \"#utility.yul\":8628:8637   */\n      dup4\n        /* \"#utility.yul\":8624:8641   */\n      add\n        /* \"#utility.yul\":8617:8664   */\n      mstore\n        /* \"#utility.yul\":8681:8812   */\n      tag_281\n        /* \"#utility.yul\":8807:8811   */\n      dup2\n        /* \"#utility.yul\":8681:8812   */\n      tag_241\n      jump\t// in\n    tag_281:\n        /* \"#utility.yul\":8673:8812   */\n      swap1\n      pop\n        /* \"#utility.yul\":8571:8819   */\n      swap2\n      swap1\n      pop\n      jump\t// out\n        /* \"#utility.yul\":8825:9244   */\n    tag_103:\n      0x00\n        /* \"#utility.yul\":9029:9031   */\n      0x20\n        /* \"#utility.yul\":9018:9027   */\n      dup3\n        /* \"#utility.yul\":9014:9032   */\n      add\n        /* \"#utility.yul\":9006:9032   */\n      swap1\n      pop\n        /* \"#utility.yul\":9078:9087   */\n      dup2\n        /* \"#utility.yul\":9072:9076   */\n      dup2\n        /* \"#utility.yul\":9068:9088   */\n      sub\n        /* \"#utility.yul\":9064:9065   */\n      0x00\n        /* \"#utility.yul\":9053:9062   */\n      dup4\n        /* \"#utility.yul\":9049:9066   */\n      add\n        /* \"#utility.yul\":9042:9089   */\n      mstore\n        /* \"#utility.yul\":9106:9237   */\n      tag_283\n        /* \"#utility.yul\":9232:9236   */\n      dup2\n        /* \"#utility.yul\":9106:9237   */\n      tag_246\n      jump\t// in\n    tag_283:\n        /* \"#utility.yul\":9098:9237   */\n      swap1\n      pop\n        /* \"#utility.yul\":8996:9244   */\n      swap2\n      swap1\n      pop\n      jump\t// out\n        /* \"#utility.yul\":9250:9669   */\n    tag_167:\n      0x00\n        /* \"#utility.yul\":9454:9456   */\n      0x20\n        /* \"#utility.yul\":9443:9452   */\n      dup3\n        /* \"#utility.yul\":9439:9457   */\n      add\n        /* \"#utility.yul\":9431:9457   */\n      swap1\n      pop\n        /* \"#utility.yul\":9503:9512   */\n      dup2\n        /* \"#utility.yul\":9497:9501   */\n      dup2\n        /* \"#utility.yul\":9493:9513   */\n      sub\n        /* \"#utility.yul\":9489:9490   */\n      0x00\n        /* \"#utility.yul\":9478:9487   */\n      dup4\n        /* \"#utility.yul\":9474:9491   */\n      add\n        /* \"#utility.yul\":9467:9514   */\n      mstore\n        /* \"#utility.yul\":9531:9662   */\n      tag_285\n        /* \"#utility.yul\":9657:9661   */\n      dup2\n        /* \"#utility.yul\":9531:9662   */\n      tag_251\n      jump\t// in\n    tag_285:\n        /* \"#utility.yul\":9523:9662   */\n      swap1\n      pop\n        /* \"#utility.yul\":9421:9669   */\n      swap2\n      swap1\n      pop\n      jump\t// out\n        /* \"#utility.yul\":9675:9897   */\n    tag_45:\n      0x00\n        /* \"#utility.yul\":9806:9808   */\n      0x20\n        /* \"#utility.yul\":9795:9804   */\n      dup3\n        /* \"#utility.yul\":9791:9809   */\n      add\n        /* \"#utility.yul\":9783:9809   */\n      swap1\n      pop\n        /* \"#utility.yul\":9819:9890   */\n      tag_287\n        /* \"#utility.yul\":9887:9888   */\n      0x00\n        /* \"#utility.yul\":9876:9885   */\n      dup4\n        /* \"#utility.yul\":9872:9889   */\n      add\n        /* \"#utility.yul\":9863:9869   */\n      dup5\n        /* \"#utility.yul\":9819:9890   */\n      tag_265\n      jump\t// in\n    tag_287:\n        /* \"#utility.yul\":9773:9897   */\n      swap3\n      swap2\n      pop\n      pop\n      jump\t// out\n        /* \"#utility.yul\":9903:10055   */\n    tag_209:\n      0x00\n        /* \"#utility.yul\":10013:10016   */\n      dup2\n        /* \"#utility.yul\":10005:10016   */\n      swap1\n      pop\n        /* \"#utility.yul\":10043:10047   */\n      0x20\n        /* \"#utility.yul\":10038:10041   */\n      dup3\n        /* \"#utility.yul\":10034:10048   */\n      add\n        /* \"#utility.yul\":10026:10048   */\n      swap1\n      pop\n        /* \"#utility.yul\":9995:10055   */\n      swap2\n      swap1\n      pop\n      jump\t// out\n        /* \"#utility.yul\":10061:10195   */\n    tag_205:\n      0x00\n        /* \"#utility.yul\":10182:10187   */\n      dup2\n        /* \"#utility.yul\":10176:10188   */\n      mload\n        /* \"#utility.yul\":10166:10188   */\n      swap1\n      pop\n        /* \"#utility.yul\":10155:10195   */\n      swap2\n      swap1\n      pop\n      jump\t// out\n        /* \"#utility.yul\":10201:10334   */\n    tag_215:\n      0x00\n        /* \"#utility.yul\":10323:10327   */\n      0x20\n        /* \"#utility.yul\":10318:10321   */\n      dup3\n        /* \"#utility.yul\":10314:10328   */\n      add\n        /* \"#utility.yul\":10306:10328   */\n      swap1\n      pop\n        /* \"#utility.yul\":10296:10334   */\n      swap2\n      swap1\n      pop\n      jump\t// out\n        /* \"#utility.yul\":10340:10544   */\n    tag_207:\n      0x00\n        /* \"#utility.yul\":10493:10499   */\n      dup3\n        /* \"#utility.yul\":10488:10491   */\n      dup3\n        /* \"#utility.yul\":10481:10500   */\n      mstore\n        /* \"#utility.yul\":10533:10537   */\n      0x20\n        /* \"#utility.yul\":10528:10531   */\n      dup3\n        /* \"#utility.yul\":10524:10538   */\n      add\n        /* \"#utility.yul\":10509:10538   */\n      swap1\n      pop\n        /* \"#utility.yul\":10471:10544   */\n      swap3\n      swap2\n      pop\n      pop\n      jump\t// out\n        /* \"#utility.yul\":10550:10719   */\n    tag_223:\n      0x00\n        /* \"#utility.yul\":10668:10674   */\n      dup3\n        /* \"#utility.yul\":10663:10666   */\n      dup3\n        /* \"#utility.yul\":10656:10675   */\n      mstore\n        /* \"#utility.yul\":10708:10712   */\n      0x20\n        /* \"#utility.yul\":10703:10706   */\n      dup3\n        /* \"#utility.yul\":10699:10713   */\n      add\n        /* \"#utility.yul\":10684:10713   */\n      swap1\n      pop\n        /* \"#utility.yul\":10646:10719   */\n      swap3\n      swap2\n      pop\n      pop\n      jump\t// out\n        /* \"#utility.yul\":10725:10910   */\n    tag_176:\n      0x00\n        /* \"#utility.yul\":10782:10802   */\n      tag_294\n        /* \"#utility.yul\":10800:10801   */\n      dup3\n        /* \"#utility.yul\":10782:10802   */\n      tag_264\n      jump\t// in\n    tag_294:\n        /* \"#utility.yul\":10777:10802   */\n      swap2\n      pop\n        /* \"#utility.yul\":10816:10836   */\n      tag_295\n        /* \"#utility.yul\":10834:10835   */\n      dup4\n        /* \"#utility.yul\":10816:10836   */\n      tag_264\n      jump\t// in\n    tag_295:\n        /* \"#utility.yul\":10811:10836   */\n      swap3\n      pop\n        /* \"#utility.yul\":10855:10856   */\n      dup3\n        /* \"#utility.yul\":10845:10847   */\n      tag_296\n      jumpi\n        /* \"#utility.yul\":10860:10878   */\n      tag_297\n      tag_298\n      jump\t// in\n    tag_297:\n        /* \"#utility.yul\":10845:10847   */\n    tag_296:\n        /* \"#utility.yul\":10902:10903   */\n      dup3\n        /* \"#utility.yul\":10899:10900   */\n      dup3\n        /* \"#utility.yul\":10895:10904   */\n      div\n        /* \"#utility.yul\":10890:10904   */\n      swap1\n      pop\n        /* \"#utility.yul\":10767:10910   */\n      swap3\n      swap2\n      pop\n      pop\n      jump\t// out\n        /* \"#utility.yul\":10916:11264   */\n    tag_174:\n      0x00\n        /* \"#utility.yul\":10979:10999   */\n      tag_300\n        /* \"#utility.yul\":10997:10998   */\n      dup3\n        /* \"#utility.yul\":10979:10999   */\n      tag_264\n      jump\t// in\n    tag_300:\n        /* \"#utility.yul\":10974:10999   */\n      swap2\n      pop\n        /* \"#utility.yul\":11013:11033   */\n      tag_301\n        /* \"#utility.yul\":11031:11032   */\n      dup4\n        /* \"#utility.yul\":11013:11033   */\n      tag_264\n      jump\t// in\n    tag_301:\n        /* \"#utility.yul\":11008:11033   */\n      swap3\n      pop\n        /* \"#utility.yul\":11201:11202   */\n      dup2\n        /* \"#utility.yul\":11133:11199   */\n      0xffffffffffffffffffffffffffffffffffffffffffffffffffffffffffffffff\n        /* \"#utility.yul\":11129:11203   */\n      div\n        /* \"#utility.yul\":11126:11127   */\n      dup4\n        /* \"#utility.yul\":11123:11204   */\n      gt\n        /* \"#utility.yul\":11118:11119   */\n      dup3\n        /* \"#utility.yul\":11111:11120   */\n      iszero\n        /* \"#utility.yul\":11104:11121   */\n      iszero\n        /* \"#utility.yul\":11100:11205   */\n      and\n        /* \"#utility.yul\":11097:11099   */\n      iszero\n      tag_302\n      jumpi\n        /* \"#utility.yul\":11208:11226   */\n      tag_303\n      tag_304\n      jump\t// in\n    tag_303:\n        /* \"#utility.yul\":11097:11099   */\n    tag_302:\n        /* \"#utility.yul\":11256:11257   */\n      dup3\n        /* \"#utility.yul\":11253:11254   */\n      dup3\n        /* \"#utility.yul\":11249:11258   */\n      mul\n        /* \"#utility.yul\":11238:11258   */\n      swap1\n      pop\n        /* \"#utility.yul\":10964:11264   */\n      swap3\n      swap2\n      pop\n      pop\n      jump\t// out\n        /* \"#utility.yul\":11270:11461   */\n    tag_178:\n      0x00\n        /* \"#utility.yul\":11330:11350   */\n      tag_306\n        /* \"#utility.yul\":11348:11349   */\n      dup3\n        /* \"#utility.yul\":11330:11350   */\n      tag_264\n      jump\t// in\n    tag_306:\n        /* \"#utility.yul\":11325:11350   */\n      swap2\n      pop\n        /* \"#utility.yul\":11364:11384   */\n      tag_307\n        /* \"#utility.yul\":11382:11383   */\n      dup4\n        /* \"#utility.yul\":11364:11384   */\n      tag_264\n      jump\t// in\n    tag_307:\n        /* \"#utility.yul\":11359:11384   */\n      swap3\n      pop\n        /* \"#utility.yul\":11403:11404   */\n      dup3\n        /* \"#utility.yul\":11400:11401   */\n      dup3\n        /* \"#utility.yul\":11397:11405   */\n      lt\n        /* \"#utility.yul\":11394:11396   */\n      iszero\n      tag_308\n      jumpi\n        /* \"#utility.yul\":11408:11426   */\n      tag_309\n      tag_304\n      jump\t// in\n    tag_309:\n        /* \"#utility.yul\":11394:11396   */\n    tag_308:\n        /* \"#utility.yul\":11453:11454   */\n      dup3\n        /* \"#utility.yul\":11450:11451   */\n      dup3\n        /* \"#utility.yul\":11446:11455   */\n      sub\n        /* \"#utility.yul\":11438:11455   */\n      swap1\n      pop\n        /* \"#utility.yul\":11315:11461   */\n      swap3\n      swap2\n      pop\n      pop\n      jump\t// out\n        /* \"#utility.yul\":11467:11563   */\n    tag_201:\n      0x00\n        /* \"#utility.yul\":11533:11557   */\n      tag_311\n        /* \"#utility.yul\":11551:11556   */\n      dup3\n        /* \"#utility.yul\":11533:11557   */\n      tag_312\n      jump\t// in\n    tag_311:\n        /* \"#utility.yul\":11522:11557   */\n      swap1\n      pop\n        /* \"#utility.yul\":11512:11563   */\n      swap2\n      swap1\n      pop\n      jump\t// out\n        /* \"#utility.yul\":11569:11659   */\n    tag_219:\n      0x00\n        /* \"#utility.yul\":11646:11651   */\n      dup2\n        /* \"#utility.yul\":11639:11652   */\n      iszero\n        /* \"#utility.yul\":11632:11653   */\n      iszero\n        /* \"#utility.yul\":11621:11653   */\n      swap1\n      pop\n        /* \"#utility.yul\":11611:11659   */\n      swap2\n      swap1\n      pop\n      jump\t// out\n        /* \"#utility.yul\":11665:11791   */\n    tag_312:\n      0x00\n        /* \"#utility.yul\":11742:11784   */\n      0xffffffffffffffffffffffffffffffffffffffff\n        /* \"#utility.yul\":11735:11740   */\n      dup3\n        /* \"#utility.yul\":11731:11785   */\n      and\n        /* \"#utility.yul\":11720:11785   */\n      swap1\n      pop\n        /* \"#utility.yul\":11710:11791   */\n      swap2\n      swap1\n      pop\n      jump\t// out\n        /* \"#utility.yul\":11797:11874   */\n    tag_264:\n      0x00\n        /* \"#utility.yul\":11863:11868   */\n      dup2\n        /* \"#utility.yul\":11852:11868   */\n      swap1\n      pop\n        /* \"#utility.yul\":11842:11874   */\n      swap2\n      swap1\n      pop\n      jump\t// out\n        /* \"#utility.yul\":11880:12113   */\n    tag_82:\n      0x00\n        /* \"#utility.yul\":11942:11966   */\n      tag_317\n        /* \"#utility.yul\":11960:11965   */\n      dup3\n        /* \"#utility.yul\":11942:11966   */\n      tag_264\n      jump\t// in\n    tag_317:\n        /* \"#utility.yul\":11933:11966   */\n      swap2\n      pop\n        /* \"#utility.yul\":11988:12054   */\n      0xffffffffffffffffffffffffffffffffffffffffffffffffffffffffffffffff\n        /* \"#utility.yul\":11981:11986   */\n      dup3\n        /* \"#utility.yul\":11978:12055   */\n      eq\n        /* \"#utility.yul\":11975:11977   */\n      iszero\n      tag_318\n      jumpi\n        /* \"#utility.yul\":12058:12076   */\n      tag_319\n      tag_304\n      jump\t// in\n    tag_319:\n        /* \"#utility.yul\":11975:11977   */\n    tag_318:\n        /* \"#utility.yul\":12105:12106   */\n      0x01\n        /* \"#utility.yul\":12098:12103   */\n      dup3\n        /* \"#utility.yul\":12094:12107   */\n      add\n        /* \"#utility.yul\":12087:12107   */\n      swap1\n      pop\n        /* \"#utility.yul\":11923:12113   */\n      swap2\n      swap1\n      pop\n      jump\t// out\n        /* \"#utility.yul\":12119:12299   */\n    tag_304:\n        /* \"#utility.yul\":12167:12244   */\n      0x4e487b7100000000000000000000000000000000000000000000000000000000\n        /* \"#utility.yul\":12164:12165   */\n      0x00\n        /* \"#utility.yul\":12157:12245   */\n      mstore\n        /* \"#utility.yul\":12264:12268   */\n      0x11\n        /* \"#utility.yul\":12261:12262   */\n      0x04\n        /* \"#utility.yul\":12254:12269   */\n      mstore\n        /* \"#utility.yul\":12288:12292   */\n      0x24\n        /* \"#utility.yul\":12285:12286   */\n      0x00\n        /* \"#utility.yul\":12278:12293   */\n      revert\n        /* \"#utility.yul\":12305:12485   */\n    tag_298:\n        /* \"#utility.yul\":12353:12430   */\n      0x4e487b7100000000000000000000000000000000000000000000000000000000\n        /* \"#utility.yul\":12350:12351   */\n      0x00\n        /* \"#utility.yul\":12343:12431   */\n      mstore\n        /* \"#utility.yul\":12450:12454   */\n      0x12\n        /* \"#utility.yul\":12447:12448   */\n      0x04\n        /* \"#utility.yul\":12440:12455   */\n      mstore\n        /* \"#utility.yul\":12474:12478   */\n      0x24\n        /* \"#utility.yul\":12471:12472   */\n      0x00\n        /* \"#utility.yul\":12464:12479   */\n      revert\n        /* \"#utility.yul\":12491:12660   */\n    tag_225:\n        /* \"#utility.yul\":12631:12652   */\n      0x746f6b656e2069736e277420746f2073656c6c00000000000000000000000000\n        /* \"#utility.yul\":12627:12628   */\n      0x00\n        /* \"#utility.yul\":12619:12625   */\n      dup3\n        /* \"#utility.yul\":12615:12629   */\n      add\n        /* \"#utility.yul\":12608:12653   */\n      mstore\n        /* \"#utility.yul\":12597:12660   */\n      pop\n      jump\t// out\n        /* \"#utility.yul\":12666:12835   */\n    tag_230:\n        /* \"#utility.yul\":12806:12827   */\n      0x746f6b656e20616c726561647920657869737400000000000000000000000000\n        /* \"#utility.yul\":12802:12803   */\n      0x00\n        /* \"#utility.yul\":12794:12800   */\n      dup3\n        /* \"#utility.yul\":12790:12804   */\n      add\n        /* \"#utility.yul\":12783:12828   */\n      mstore\n        /* \"#utility.yul\":12772:12835   */\n      pop\n      jump\t// out\n        /* \"#utility.yul\":12841:13010   */\n    tag_235:\n        /* \"#utility.yul\":12981:13002   */\n      0x746f6b656e20646f65736e277420657869737400000000000000000000000000\n        /* \"#utility.yul\":12977:12978   */\n      0x00\n        /* \"#utility.yul\":12969:12975   */\n      dup3\n        /* \"#utility.yul\":12965:12979   */\n      add\n        /* \"#utility.yul\":12958:13003   */\n      mstore\n        /* \"#utility.yul\":12947:13010   */\n      pop\n      jump\t// out\n        /* \"#utility.yul\":13016:13195   */\n    tag_240:\n        /* \"#utility.yul\":13156:13187   */\n      0x4f6e6c79206974656d2773206f776e65722063616e20646f2074686174000000\n        /* \"#utility.yul\":13152:13153   */\n      0x00\n        /* \"#utility.yul\":13144:13150   */\n      dup3\n        /* \"#utility.yul\":13140:13154   */\n      add\n        /* \"#utility.yul\":13133:13188   */\n      mstore\n        /* \"#utility.yul\":13122:13195   */\n      pop\n      jump\t// out\n        /* \"#utility.yul\":13201:13375   */\n    tag_245:\n        /* \"#utility.yul\":13341:13367   */\n      0x746f6b656e20697320616c726561647920746f2073656c6c0000000000000000\n        /* \"#utility.yul\":13337:13338   */\n      0x00\n        /* \"#utility.yul\":13329:13335   */\n      dup3\n        /* \"#utility.yul\":13325:13339   */\n      add\n        /* \"#utility.yul\":13318:13368   */\n      mstore\n        /* \"#utility.yul\":13307:13375   */\n      pop\n      jump\t// out\n        /* \"#utility.yul\":13381:13601   */\n    tag_250:\n        /* \"#utility.yul\":13521:13555   */\n      0x4f6e6c7920636f6e74726163742773206f776e65722063616e20646f20746861\n        /* \"#utility.yul\":13517:13518   */\n      0x00\n        /* \"#utility.yul\":13509:13515   */\n      dup3\n        /* \"#utility.yul\":13505:13519   */\n      add\n        /* \"#utility.yul\":13498:13556   */\n      mstore\n        /* \"#utility.yul\":13590:13593   */\n      0x7400000000000000000000000000000000000000000000000000000000000000\n        /* \"#utility.yul\":13585:13587   */\n      0x20\n        /* \"#utility.yul\":13577:13583   */\n      dup3\n        /* \"#utility.yul\":13573:13588   */\n      add\n        /* \"#utility.yul\":13566:13594   */\n      mstore\n        /* \"#utility.yul\":13487:13601   */\n      pop\n      jump\t// out\n        /* \"#utility.yul\":13607:13783   */\n    tag_255:\n        /* \"#utility.yul\":13747:13775   */\n      0x50726963652063616e6e6f7420626520657175616c20746f2030000000000000\n        /* \"#utility.yul\":13743:13744   */\n      0x00\n        /* \"#utility.yul\":13735:13741   */\n      dup3\n        /* \"#utility.yul\":13731:13745   */\n      add\n        /* \"#utility.yul\":13724:13776   */\n      mstore\n        /* \"#utility.yul\":13713:13783   */\n      pop\n      jump\t// out\n        /* \"#utility.yul\":13789:13911   */\n    tag_183:\n        /* \"#utility.yul\":13862:13886   */\n      tag_330\n        /* \"#utility.yul\":13880:13885   */\n      dup2\n        /* \"#utility.yul\":13862:13886   */\n      tag_201\n      jump\t// in\n    tag_330:\n        /* \"#utility.yul\":13855:13860   */\n      dup2\n        /* \"#utility.yul\":13852:13887   */\n      eq\n        /* \"#utility.yul\":13842:13844   */\n      tag_331\n      jumpi\n        /* \"#utility.yul\":13901:13902   */\n      0x00\n        /* \"#utility.yul\":13898:13899   */\n      dup1\n        /* \"#utility.yul\":13891:13903   */\n      revert\n        /* \"#utility.yul\":13842:13844   */\n    tag_331:\n        /* \"#utility.yul\":13832:13911   */\n      pop\n      jump\t// out\n        /* \"#utility.yul\":13917:14039   */\n    tag_187:\n        /* \"#utility.yul\":13990:14014   */\n      tag_333\n        /* \"#utility.yul\":14008:14013   */\n      dup2\n        /* \"#utility.yul\":13990:14014   */\n      tag_264\n      jump\t// in\n    tag_333:\n        /* \"#utility.yul\":13983:13988   */\n      dup2\n        /* \"#utility.yul\":13980:14015   */\n      eq\n        /* \"#utility.yul\":13970:13972   */\n      tag_334\n      jumpi\n        /* \"#utility.yul\":14029:14030   */\n      0x00\n        /* \"#utility.yul\":14026:14027   */\n      dup1\n        /* \"#utility.yul\":14019:14031   */\n      revert\n        /* \"#utility.yul\":13970:13972   */\n    tag_334:\n        /* \"#utility.yul\":13960:14039   */\n      pop\n      jump\t// out\n\n    auxdata: 0xa26469706673582212205a275c31c52dfc3acb4a3a0842f59071b93774b42fe96044aac57bd6ae7fc04f64736f6c63430008010033\n}\n",
				"bytecode": {
					"linkReferences": {},
					"object": "60806040523480156200001157600080fd5b5033600260006101000a81548173ffffffffffffffffffffffffffffffffffffffff021916908373ffffffffffffffffffffffffffffffffffffffff1602179055506040518060400160405280600b81526020017f4765656b20546f6b656e7300000000000000000000000000000000000000000081525060009080519060200190620000a0929190620000f5565b506040518060400160405280600581526020017f4745454b5400000000000000000000000000000000000000000000000000000081525060019080519060200190620000ee929190620000f5565b506200020a565b8280546200010390620001a5565b90600052602060002090601f01602090048101928262000127576000855562000173565b82601f106200014257805160ff191683800117855562000173565b8280016001018555821562000173579182015b828111156200017257825182559160200191906001019062000155565b5b50905062000182919062000186565b5090565b5b80821115620001a157600081600090555060010162000187565b5090565b60006002820490506001821680620001be57607f821691505b60208210811415620001d557620001d4620001db565b5b50919050565b7f4e487b7100000000000000000000000000000000000000000000000000000000600052602260045260246000fd5b611b31806200021a6000396000f3fe60806040526004361061009c5760003560e01c806370a082311161006457806370a082311461019a57806391b6be9a146101d7578063a4964c33146101f3578063c0f202ef1461021c578063d7a5d5d314610245578063ea0ff14a146102825761009c565b8063073e74df146100a15780632165e65a146100cc57806329de6246146101095780634cad2ffc146101325780636352211e1461015d575b600080fd5b3480156100ad57600080fd5b506100b66102ad565b6040516100c39190611673565b60405180910390f35b3480156100d857600080fd5b506100f360048036038101906100ee9190611433565b6104a0565b6040516101009190611673565b60405180910390f35b34801561011557600080fd5b50610130600480360381019061012b9190611433565b610694565b005b34801561013e57600080fd5b5061014761072e565b6040516101549190611673565b60405180910390f35b34801561016957600080fd5b50610184600480360381019061017f9190611433565b610960565b6040516101919190611658565b60405180910390f35b3480156101a657600080fd5b506101c160048036038101906101bc919061140a565b61099d565b6040516101ce9190611775565b60405180910390f35b6101f160048036038101906101ec9190611433565b6109e6565b005b3480156101ff57600080fd5b5061021a60048036038101906102159190611433565b610db8565b005b34801561022857600080fd5b50610243600480360381019061023e9190611433565b611017565b005b34801561025157600080fd5b5061026c60048036038101906102679190611433565b611275565b6040516102799190611775565b60405180910390f35b34801561028e57600080fd5b5061029761136e565b6040516102a49190611775565b60405180910390f35b606060008060045467ffffffffffffffff8111156102f4577f4e487b7100000000000000000000000000000000000000000000000000000000600052604160045260246000fd5b60405190808252806020026020018201604052801561032d57816020015b61031a6113b6565b8152602001906001900390816103125790505b50905060005b60038054905081101561049757600115156003828154811061037e577f4e487b7100000000000000000000000000000000000000000000000000000000600052603260045260246000fd5b906000526020600020906004020160030160009054906101000a900460ff161515141561048457600381815481106103df577f4e487b7100000000000000000000000000000000000000000000000000000000600052603260045260246000fd5b90600052602060002090600402016040518060800160405290816000820154815260200160018201548152602001600282015481526020016003820160009054906101000a900460ff16151515158152505082848151811061046a577f4e487b7100000000000000000000000000000000000000000000000000000000600052603260045260246000fd5b60200260200101819052508280610480906118e1565b9350505b808061048f906118e1565b915050610333565b50809250505090565b6060600080600860008581526020019081526020016000205467ffffffffffffffff8111156104f8577f4e487b7100000000000000000000000000000000000000000000000000000000600052604160045260246000fd5b60405190808252806020026020018201604052801561053157816020015b61051e6113b6565b8152602001906001900390816105165790505b50905060005b60038054905081101561068957846003828154811061057f577f4e487b7100000000000000000000000000000000000000000000000000000000600052603260045260246000fd5b906000526020600020906004020160020154141561067657600381815481106105d1577f4e487b7100000000000000000000000000000000000000000000000000000000600052603260045260246000fd5b90600052602060002090600402016040518060800160405290816000820154815260200160018201548152602001600282015481526020016003820160009054906101000a900460ff16151515158152505082848151811061065c577f4e487b7100000000000000000000000000000000000000000000000000000000600052603260045260246000fd5b60200260200101819052508280610672906118e1565b9350505b8080610681906118e1565b915050610537565b508092505050919050565b600260009054906101000a900473ffffffffffffffffffffffffffffffffffffffff1673ffffffffffffffffffffffffffffffffffffffff163373ffffffffffffffffffffffffffffffffffffffff1614610724576040517f08c379a000000000000000000000000000000000000000000000000000000000815260040161071b90611735565b60405180910390fd5b8060058190555050565b6060600080600760003373ffffffffffffffffffffffffffffffffffffffff1673ffffffffffffffffffffffffffffffffffffffff1681526020019081526020016000205467ffffffffffffffff8111156107b2577f4e487b7100000000000000000000000000000000000000000000000000000000600052604160045260246000fd5b6040519080825280602002602001820160405280156107eb57816020015b6107d86113b6565b8152602001906001900390816107d05790505b50905060005b600380549050811015610957573373ffffffffffffffffffffffffffffffffffffffff166006600083815260200190815260200160002060009054906101000a900473ffffffffffffffffffffffffffffffffffffffff1673ffffffffffffffffffffffffffffffffffffffff161415610944576003818154811061089f577f4e487b7100000000000000000000000000000000000000000000000000000000600052603260045260246000fd5b90600052602060002090600402016040518060800160405290816000820154815260200160018201548152602001600282015481526020016003820160009054906101000a900460ff16151515158152505082848151811061092a577f4e487b7100000000000000000000000000000000000000000000000000000000600052603260045260246000fd5b60200260200101819052508280610940906118e1565b9350505b808061094f906118e1565b9150506107f1565b50809250505090565b60006006600083815260200190815260200160002060009054906101000a900473ffffffffffffffffffffffffffffffffffffffff169050919050565b6000600760008373ffffffffffffffffffffffffffffffffffffffff1673ffffffffffffffffffffffffffffffffffffffff168152602001908152602001600020549050919050565b60038181548110610a20577f4e487b7100000000000000000000000000000000000000000000000000000000600052603260045260246000fd5b9060005260206000209060040201600101543414610a3d57600080fd5b600073ffffffffffffffffffffffffffffffffffffffff166006600083815260200190815260200160002060009054906101000a900473ffffffffffffffffffffffffffffffffffffffff1673ffffffffffffffffffffffffffffffffffffffff161415610ae0576040517f08c379a0000000000000000000000000000000000000000000000000000000008152600401610ad7906116d5565b60405180910390fd5b60006006600083815260200190815260200160002060009054906101000a900473ffffffffffffffffffffffffffffffffffffffff169050600060038381548110610b54577f4e487b7100000000000000000000000000000000000000000000000000000000600052603260045260246000fd5b9060005260206000209060040201905060008160030160006101000a81548160ff021916908315150217905550336006600085815260200190815260200160002060006101000a81548173ffffffffffffffffffffffffffffffffffffffff021916908373ffffffffffffffffffffffffffffffffffffffff160217905550600760008373ffffffffffffffffffffffffffffffffffffffff1673ffffffffffffffffffffffffffffffffffffffff1681526020019081526020016000206000815480929190600190039190505550600760003373ffffffffffffffffffffffffffffffffffffffff1673ffffffffffffffffffffffffffffffffffffffff1681526020019081526020016000206000815480929190600101919050555060046000815480929190600190039190505550600080610c9434600554611378565b8092508193505050600260009054906101000a900473ffffffffffffffffffffffffffffffffffffffff1673ffffffffffffffffffffffffffffffffffffffff166108fc839081150290604051600060405180830381858888f19350505050158015610d04573d6000803e3d6000fd5b508373ffffffffffffffffffffffffffffffffffffffff166108fc829081150290604051600060405180830381858888f19350505050158015610d4b573d6000803e3d6000fd5b503373ffffffffffffffffffffffffffffffffffffffff168473ffffffffffffffffffffffffffffffffffffffff167fddf252ad1be2c89b69c2b068fc378daa952ba7f163c4a11628f55a4df523b3ef87604051610da99190611775565b60405180910390a35050505050565b803373ffffffffffffffffffffffffffffffffffffffff166006600083815260200190815260200160002060009054906101000a900473ffffffffffffffffffffffffffffffffffffffff1673ffffffffffffffffffffffffffffffffffffffff1614610e5a576040517f08c379a0000000000000000000000000000000000000000000000000000000008152600401610e51906116f5565b60405180910390fd5b600073ffffffffffffffffffffffffffffffffffffffff166006600084815260200190815260200160002060009054906101000a900473ffffffffffffffffffffffffffffffffffffffff1673ffffffffffffffffffffffffffffffffffffffff161415610efd576040517f08c379a0000000000000000000000000000000000000000000000000000000008152600401610ef4906116d5565b60405180910390fd5b6001151560038381548110610f3b577f4e487b7100000000000000000000000000000000000000000000000000000000600052603260045260246000fd5b906000526020600020906004020160030160009054906101000a900460ff16151514610f9c576040517f08c379a0000000000000000000000000000000000000000000000000000000008152600401610f9390611695565b60405180910390fd5b600060038381548110610fd8577f4e487b7100000000000000000000000000000000000000000000000000000000600052603260045260246000fd5b906000526020600020906004020160030160006101000a81548160ff021916908315150217905550600460008154809291906001900391905055505050565b803373ffffffffffffffffffffffffffffffffffffffff166006600083815260200190815260200160002060009054906101000a900473ffffffffffffffffffffffffffffffffffffffff1673ffffffffffffffffffffffffffffffffffffffff16146110b9576040517f08c379a00000000000000000000000000000000000000000000000000000000081526004016110b0906116f5565b60405180910390fd5b600073ffffffffffffffffffffffffffffffffffffffff166006600084815260200190815260200160002060009054906101000a900473ffffffffffffffffffffffffffffffffffffffff1673ffffffffffffffffffffffffffffffffffffffff16141561115c576040517f08c379a0000000000000000000000000000000000000000000000000000000008152600401611153906116d5565b60405180910390fd5b600015156003838154811061119a577f4e487b7100000000000000000000000000000000000000000000000000000000600052603260045260246000fd5b906000526020600020906004020160030160009054906101000a900460ff161515146111fb576040517f08c379a00000000000000000000000000000000000000000000000000000000081526004016111f290611715565b60405180910390fd5b600160038381548110611237577f4e487b7100000000000000000000000000000000000000000000000000000000600052603260045260246000fd5b906000526020600020906004020160030160006101000a81548160ff0219169083151502179055506004600081548092919060010191905055505050565b60008082116112b9576040517f08c379a00000000000000000000000000000000000000000000000000000000081526004016112b090611755565b60405180910390fd5b60006003805490509050600073ffffffffffffffffffffffffffffffffffffffff166006600083815260200190815260200160002060009054906101000a900473ffffffffffffffffffffffffffffffffffffffff1673ffffffffffffffffffffffffffffffffffffffff1614611365576040517f08c379a000000000000000000000000000000000000000000000000000000000815260040161135c906116b5565b60405180910390fd5b80915050919050565b6000600554905090565b60008060006064858561138b919061180b565b61139591906117da565b9050600081866113a59190611865565b905081819350935050509250929050565b60405180608001604052806000815260200160008152602001600081526020016000151581525090565b6000813590506113ef81611acd565b92915050565b60008135905061140481611ae4565b92915050565b60006020828403121561141c57600080fd5b600061142a848285016113e0565b91505092915050565b60006020828403121561144557600080fd5b6000611453848285016113f5565b91505092915050565b600061146883836115e5565b60808301905092915050565b61147d81611899565b82525050565b600061148e826117a0565b61149881856117b8565b93506114a383611790565b8060005b838110156114d45781516114bb888261145c565b97506114c6836117ab565b9250506001810190506114a7565b5085935050505092915050565b6114ea816118ab565b82525050565b60006114fd6013836117c9565b915061150882611988565b602082019050919050565b60006115206013836117c9565b915061152b826119b1565b602082019050919050565b60006115436013836117c9565b915061154e826119da565b602082019050919050565b6000611566601d836117c9565b915061157182611a03565b602082019050919050565b60006115896018836117c9565b915061159482611a2c565b602082019050919050565b60006115ac6021836117c9565b91506115b782611a55565b604082019050919050565b60006115cf601a836117c9565b91506115da82611aa4565b602082019050919050565b6080820160008201516115fb600085018261163a565b50602082015161160e602085018261163a565b506040820151611621604085018261163a565b50606082015161163460608501826114e1565b50505050565b611643816118d7565b82525050565b611652816118d7565b82525050565b600060208201905061166d6000830184611474565b92915050565b6000602082019050818103600083015261168d8184611483565b905092915050565b600060208201905081810360008301526116ae816114f0565b9050919050565b600060208201905081810360008301526116ce81611513565b9050919050565b600060208201905081810360008301526116ee81611536565b9050919050565b6000602082019050818103600083015261170e81611559565b9050919050565b6000602082019050818103600083015261172e8161157c565b9050919050565b6000602082019050818103600083015261174e8161159f565b9050919050565b6000602082019050818103600083015261176e816115c2565b9050919050565b600060208201905061178a6000830184611649565b92915050565b6000819050602082019050919050565b600081519050919050565b6000602082019050919050565b600082825260208201905092915050565b600082825260208201905092915050565b60006117e5826118d7565b91506117f0836118d7565b925082611800576117ff611959565b5b828204905092915050565b6000611816826118d7565b9150611821836118d7565b9250817fffffffffffffffffffffffffffffffffffffffffffffffffffffffffffffffff048311821515161561185a5761185961192a565b5b828202905092915050565b6000611870826118d7565b915061187b836118d7565b92508282101561188e5761188d61192a565b5b828203905092915050565b60006118a4826118b7565b9050919050565b60008115159050919050565b600073ffffffffffffffffffffffffffffffffffffffff82169050919050565b6000819050919050565b60006118ec826118d7565b91507fffffffffffffffffffffffffffffffffffffffffffffffffffffffffffffffff82141561191f5761191e61192a565b5b600182019050919050565b7f4e487b7100000000000000000000000000000000000000000000000000000000600052601160045260246000fd5b7f4e487b7100000000000000000000000000000000000000000000000000000000600052601260045260246000fd5b7f746f6b656e2069736e277420746f2073656c6c00000000000000000000000000600082015250565b7f746f6b656e20616c726561647920657869737400000000000000000000000000600082015250565b7f746f6b656e20646f65736e277420657869737400000000000000000000000000600082015250565b7f4f6e6c79206974656d2773206f776e65722063616e20646f2074686174000000600082015250565b7f746f6b656e20697320616c726561647920746f2073656c6c0000000000000000600082015250565b7f4f6e6c7920636f6e74726163742773206f776e65722063616e20646f2074686160008201527f7400000000000000000000000000000000000000000000000000000000000000602082015250565b7f50726963652063616e6e6f7420626520657175616c20746f2030000000000000600082015250565b611ad681611899565b8114611ae157600080fd5b50565b611aed816118d7565b8114611af857600080fd5b5056fea26469706673582212205a275c31c52dfc3acb4a3a0842f59071b93774b42fe96044aac57bd6ae7fc04f64736f6c63430008010033",
					"opcodes": "PUSH1 0x80 PUSH1 0x40 MSTORE CALLVALUE DUP1 ISZERO PUSH3 0x11 JUMPI PUSH1 0x0 DUP1 REVERT JUMPDEST POP CALLER PUSH1 0x2 PUSH1 0x0 PUSH2 0x100 EXP DUP2 SLOAD DUP2 PUSH20 0xFFFFFFFFFFFFFFFFFFFFFFFFFFFFFFFFFFFFFFFF MUL NOT AND SWAP1 DUP4 PUSH20 0xFFFFFFFFFFFFFFFFFFFFFFFFFFFFFFFFFFFFFFFF AND MUL OR SWAP1 SSTORE POP PUSH1 0x40 MLOAD DUP1 PUSH1 0x40 ADD PUSH1 0x40 MSTORE DUP1 PUSH1 0xB DUP2 MSTORE PUSH1 0x20 ADD PUSH32 0x4765656B20546F6B656E73000000000000000000000000000000000000000000 DUP2 MSTORE POP PUSH1 0x0 SWAP1 DUP1 MLOAD SWAP1 PUSH1 0x20 ADD SWAP1 PUSH3 0xA0 SWAP3 SWAP2 SWAP1 PUSH3 0xF5 JUMP JUMPDEST POP PUSH1 0x40 MLOAD DUP1 PUSH1 0x40 ADD PUSH1 0x40 MSTORE DUP1 PUSH1 0x5 DUP2 MSTORE PUSH1 0x20 ADD PUSH32 0x4745454B54000000000000000000000000000000000000000000000000000000 DUP2 MSTORE POP PUSH1 0x1 SWAP1 DUP1 MLOAD SWAP1 PUSH1 0x20 ADD SWAP1 PUSH3 0xEE SWAP3 SWAP2 SWAP1 PUSH3 0xF5 JUMP JUMPDEST POP PUSH3 0x20A JUMP JUMPDEST DUP3 DUP1 SLOAD PUSH3 0x103 SWAP1 PUSH3 0x1A5 JUMP JUMPDEST SWAP1 PUSH1 0x0 MSTORE PUSH1 0x20 PUSH1 0x0 KECCAK256 SWAP1 PUSH1 0x1F ADD PUSH1 0x20 SWAP1 DIV DUP2 ADD SWAP3 DUP3 PUSH3 0x127 JUMPI PUSH1 0x0 DUP6 SSTORE PUSH3 0x173 JUMP JUMPDEST DUP3 PUSH1 0x1F LT PUSH3 0x142 JUMPI DUP1 MLOAD PUSH1 0xFF NOT AND DUP4 DUP1 ADD OR DUP6 SSTORE PUSH3 0x173 JUMP JUMPDEST DUP3 DUP1 ADD PUSH1 0x1 ADD DUP6 SSTORE DUP3 ISZERO PUSH3 0x173 JUMPI SWAP2 DUP3 ADD JUMPDEST DUP3 DUP2 GT ISZERO PUSH3 0x172 JUMPI DUP3 MLOAD DUP3 SSTORE SWAP2 PUSH1 0x20 ADD SWAP2 SWAP1 PUSH1 0x1 ADD SWAP1 PUSH3 0x155 JUMP JUMPDEST JUMPDEST POP SWAP1 POP PUSH3 0x182 SWAP2 SWAP1 PUSH3 0x186 JUMP JUMPDEST POP SWAP1 JUMP JUMPDEST JUMPDEST DUP1 DUP3 GT ISZERO PUSH3 0x1A1 JUMPI PUSH1 0x0 DUP2 PUSH1 0x0 SWAP1 SSTORE POP PUSH1 0x1 ADD PUSH3 0x187 JUMP JUMPDEST POP SWAP1 JUMP JUMPDEST PUSH1 0x0 PUSH1 0x2 DUP3 DIV SWAP1 POP PUSH1 0x1 DUP3 AND DUP1 PUSH3 0x1BE JUMPI PUSH1 0x7F DUP3 AND SWAP2 POP JUMPDEST PUSH1 0x20 DUP3 LT DUP2 EQ ISZERO PUSH3 0x1D5 JUMPI PUSH3 0x1D4 PUSH3 0x1DB JUMP JUMPDEST JUMPDEST POP SWAP2 SWAP1 POP JUMP JUMPDEST PUSH32 0x4E487B7100000000000000000000000000000000000000000000000000000000 PUSH1 0x0 MSTORE PUSH1 0x22 PUSH1 0x4 MSTORE PUSH1 0x24 PUSH1 0x0 REVERT JUMPDEST PUSH2 0x1B31 DUP1 PUSH3 0x21A PUSH1 0x0 CODECOPY PUSH1 0x0 RETURN INVALID PUSH1 0x80 PUSH1 0x40 MSTORE PUSH1 0x4 CALLDATASIZE LT PUSH2 0x9C JUMPI PUSH1 0x0 CALLDATALOAD PUSH1 0xE0 SHR DUP1 PUSH4 0x70A08231 GT PUSH2 0x64 JUMPI DUP1 PUSH4 0x70A08231 EQ PUSH2 0x19A JUMPI DUP1 PUSH4 0x91B6BE9A EQ PUSH2 0x1D7 JUMPI DUP1 PUSH4 0xA4964C33 EQ PUSH2 0x1F3 JUMPI DUP1 PUSH4 0xC0F202EF EQ PUSH2 0x21C JUMPI DUP1 PUSH4 0xD7A5D5D3 EQ PUSH2 0x245 JUMPI DUP1 PUSH4 0xEA0FF14A EQ PUSH2 0x282 JUMPI PUSH2 0x9C JUMP JUMPDEST DUP1 PUSH4 0x73E74DF EQ PUSH2 0xA1 JUMPI DUP1 PUSH4 0x2165E65A EQ PUSH2 0xCC JUMPI DUP1 PUSH4 0x29DE6246 EQ PUSH2 0x109 JUMPI DUP1 PUSH4 0x4CAD2FFC EQ PUSH2 0x132 JUMPI DUP1 PUSH4 0x6352211E EQ PUSH2 0x15D JUMPI JUMPDEST PUSH1 0x0 DUP1 REVERT JUMPDEST CALLVALUE DUP1 ISZERO PUSH2 0xAD JUMPI PUSH1 0x0 DUP1 REVERT JUMPDEST POP PUSH2 0xB6 PUSH2 0x2AD JUMP JUMPDEST PUSH1 0x40 MLOAD PUSH2 0xC3 SWAP2 SWAP1 PUSH2 0x1673 JUMP JUMPDEST PUSH1 0x40 MLOAD DUP1 SWAP2 SUB SWAP1 RETURN JUMPDEST CALLVALUE DUP1 ISZERO PUSH2 0xD8 JUMPI PUSH1 0x0 DUP1 REVERT JUMPDEST POP PUSH2 0xF3 PUSH1 0x4 DUP1 CALLDATASIZE SUB DUP2 ADD SWAP1 PUSH2 0xEE SWAP2 SWAP1 PUSH2 0x1433 JUMP JUMPDEST PUSH2 0x4A0 JUMP JUMPDEST PUSH1 0x40 MLOAD PUSH2 0x100 SWAP2 SWAP1 PUSH2 0x1673 JUMP JUMPDEST PUSH1 0x40 MLOAD DUP1 SWAP2 SUB SWAP1 RETURN JUMPDEST CALLVALUE DUP1 ISZERO PUSH2 0x115 JUMPI PUSH1 0x0 DUP1 REVERT JUMPDEST POP PUSH2 0x130 PUSH1 0x4 DUP1 CALLDATASIZE SUB DUP2 ADD SWAP1 PUSH2 0x12B SWAP2 SWAP1 PUSH2 0x1433 JUMP JUMPDEST PUSH2 0x694 JUMP JUMPDEST STOP JUMPDEST CALLVALUE DUP1 ISZERO PUSH2 0x13E JUMPI PUSH1 0x0 DUP1 REVERT JUMPDEST POP PUSH2 0x147 PUSH2 0x72E JUMP JUMPDEST PUSH1 0x40 MLOAD PUSH2 0x154 SWAP2 SWAP1 PUSH2 0x1673 JUMP JUMPDEST PUSH1 0x40 MLOAD DUP1 SWAP2 SUB SWAP1 RETURN JUMPDEST CALLVALUE DUP1 ISZERO PUSH2 0x169 JUMPI PUSH1 0x0 DUP1 REVERT JUMPDEST POP PUSH2 0x184 PUSH1 0x4 DUP1 CALLDATASIZE SUB DUP2 ADD SWAP1 PUSH2 0x17F SWAP2 SWAP1 PUSH2 0x1433 JUMP JUMPDEST PUSH2 0x960 JUMP JUMPDEST PUSH1 0x40 MLOAD PUSH2 0x191 SWAP2 SWAP1 PUSH2 0x1658 JUMP JUMPDEST PUSH1 0x40 MLOAD DUP1 SWAP2 SUB SWAP1 RETURN JUMPDEST CALLVALUE DUP1 ISZERO PUSH2 0x1A6 JUMPI PUSH1 0x0 DUP1 REVERT JUMPDEST POP PUSH2 0x1C1 PUSH1 0x4 DUP1 CALLDATASIZE SUB DUP2 ADD SWAP1 PUSH2 0x1BC SWAP2 SWAP1 PUSH2 0x140A JUMP JUMPDEST PUSH2 0x99D JUMP JUMPDEST PUSH1 0x40 MLOAD PUSH2 0x1CE SWAP2 SWAP1 PUSH2 0x1775 JUMP JUMPDEST PUSH1 0x40 MLOAD DUP1 SWAP2 SUB SWAP1 RETURN JUMPDEST PUSH2 0x1F1 PUSH1 0x4 DUP1 CALLDATASIZE SUB DUP2 ADD SWAP1 PUSH2 0x1EC SWAP2 SWAP1 PUSH2 0x1433 JUMP JUMPDEST PUSH2 0x9E6 JUMP JUMPDEST STOP JUMPDEST CALLVALUE DUP1 ISZERO PUSH2 0x1FF JUMPI PUSH1 0x0 DUP1 REVERT JUMPDEST POP PUSH2 0x21A PUSH1 0x4 DUP1 CALLDATASIZE SUB DUP2 ADD SWAP1 PUSH2 0x215 SWAP2 SWAP1 PUSH2 0x1433 JUMP JUMPDEST PUSH2 0xDB8 JUMP JUMPDEST STOP JUMPDEST CALLVALUE DUP1 ISZERO PUSH2 0x228 JUMPI PUSH1 0x0 DUP1 REVERT JUMPDEST POP PUSH2 0x243 PUSH1 0x4 DUP1 CALLDATASIZE SUB DUP2 ADD SWAP1 PUSH2 0x23E SWAP2 SWAP1 PUSH2 0x1433 JUMP JUMPDEST PUSH2 0x1017 JUMP JUMPDEST STOP JUMPDEST CALLVALUE DUP1 ISZERO PUSH2 0x251 JUMPI PUSH1 0x0 DUP1 REVERT JUMPDEST POP PUSH2 0x26C PUSH1 0x4 DUP1 CALLDATASIZE SUB DUP2 ADD SWAP1 PUSH2 0x267 SWAP2 SWAP1 PUSH2 0x1433 JUMP JUMPDEST PUSH2 0x1275 JUMP JUMPDEST PUSH1 0x40 MLOAD PUSH2 0x279 SWAP2 SWAP1 PUSH2 0x1775 JUMP JUMPDEST PUSH1 0x40 MLOAD DUP1 SWAP2 SUB SWAP1 RETURN JUMPDEST CALLVALUE DUP1 ISZERO PUSH2 0x28E JUMPI PUSH1 0x0 DUP1 REVERT JUMPDEST POP PUSH2 0x297 PUSH2 0x136E JUMP JUMPDEST PUSH1 0x40 MLOAD PUSH2 0x2A4 SWAP2 SWAP1 PUSH2 0x1775 JUMP JUMPDEST PUSH1 0x40 MLOAD DUP1 SWAP2 SUB SWAP1 RETURN JUMPDEST PUSH1 0x60 PUSH1 0x0 DUP1 PUSH1 0x4 SLOAD PUSH8 0xFFFFFFFFFFFFFFFF DUP2 GT ISZERO PUSH2 0x2F4 JUMPI PUSH32 0x4E487B7100000000000000000000000000000000000000000000000000000000 PUSH1 0x0 MSTORE PUSH1 0x41 PUSH1 0x4 MSTORE PUSH1 0x24 PUSH1 0x0 REVERT JUMPDEST PUSH1 0x40 MLOAD SWAP1 DUP1 DUP3 MSTORE DUP1 PUSH1 0x20 MUL PUSH1 0x20 ADD DUP3 ADD PUSH1 0x40 MSTORE DUP1 ISZERO PUSH2 0x32D JUMPI DUP2 PUSH1 0x20 ADD JUMPDEST PUSH2 0x31A PUSH2 0x13B6 JUMP JUMPDEST DUP2 MSTORE PUSH1 0x20 ADD SWAP1 PUSH1 0x1 SWAP1 SUB SWAP1 DUP2 PUSH2 0x312 JUMPI SWAP1 POP JUMPDEST POP SWAP1 POP PUSH1 0x0 JUMPDEST PUSH1 0x3 DUP1 SLOAD SWAP1 POP DUP2 LT ISZERO PUSH2 0x497 JUMPI PUSH1 0x1 ISZERO ISZERO PUSH1 0x3 DUP3 DUP2 SLOAD DUP2 LT PUSH2 0x37E JUMPI PUSH32 0x4E487B7100000000000000000000000000000000000000000000000000000000 PUSH1 0x0 MSTORE PUSH1 0x32 PUSH1 0x4 MSTORE PUSH1 0x24 PUSH1 0x0 REVERT JUMPDEST SWAP1 PUSH1 0x0 MSTORE PUSH1 0x20 PUSH1 0x0 KECCAK256 SWAP1 PUSH1 0x4 MUL ADD PUSH1 0x3 ADD PUSH1 0x0 SWAP1 SLOAD SWAP1 PUSH2 0x100 EXP SWAP1 DIV PUSH1 0xFF AND ISZERO ISZERO EQ ISZERO PUSH2 0x484 JUMPI PUSH1 0x3 DUP2 DUP2 SLOAD DUP2 LT PUSH2 0x3DF JUMPI PUSH32 0x4E487B7100000000000000000000000000000000000000000000000000000000 PUSH1 0x0 MSTORE PUSH1 0x32 PUSH1 0x4 MSTORE PUSH1 0x24 PUSH1 0x0 REVERT JUMPDEST SWAP1 PUSH1 0x0 MSTORE PUSH1 0x20 PUSH1 0x0 KECCAK256 SWAP1 PUSH1 0x4 MUL ADD PUSH1 0x40 MLOAD DUP1 PUSH1 0x80 ADD PUSH1 0x40 MSTORE SWAP1 DUP2 PUSH1 0x0 DUP3 ADD SLOAD DUP2 MSTORE PUSH1 0x20 ADD PUSH1 0x1 DUP3 ADD SLOAD DUP2 MSTORE PUSH1 0x20 ADD PUSH1 0x2 DUP3 ADD SLOAD DUP2 MSTORE PUSH1 0x20 ADD PUSH1 0x3 DUP3 ADD PUSH1 0x0 SWAP1 SLOAD SWAP1 PUSH2 0x100 EXP SWAP1 DIV PUSH1 0xFF AND ISZERO ISZERO ISZERO ISZERO DUP2 MSTORE POP POP DUP3 DUP5 DUP2 MLOAD DUP2 LT PUSH2 0x46A JUMPI PUSH32 0x4E487B7100000000000000000000000000000000000000000000000000000000 PUSH1 0x0 MSTORE PUSH1 0x32 PUSH1 0x4 MSTORE PUSH1 0x24 PUSH1 0x0 REVERT JUMPDEST PUSH1 0x20 MUL PUSH1 0x20 ADD ADD DUP2 SWAP1 MSTORE POP DUP3 DUP1 PUSH2 0x480 SWAP1 PUSH2 0x18E1 JUMP JUMPDEST SWAP4 POP POP JUMPDEST DUP1 DUP1 PUSH2 0x48F SWAP1 PUSH2 0x18E1 JUMP JUMPDEST SWAP2 POP POP PUSH2 0x333 JUMP JUMPDEST POP DUP1 SWAP3 POP POP POP SWAP1 JUMP JUMPDEST PUSH1 0x60 PUSH1 0x0 DUP1 PUSH1 0x8 PUSH1 0x0 DUP6 DUP2 MSTORE PUSH1 0x20 ADD SWAP1 DUP2 MSTORE PUSH1 0x20 ADD PUSH1 0x0 KECCAK256 SLOAD PUSH8 0xFFFFFFFFFFFFFFFF DUP2 GT ISZERO PUSH2 0x4F8 JUMPI PUSH32 0x4E487B7100000000000000000000000000000000000000000000000000000000 PUSH1 0x0 MSTORE PUSH1 0x41 PUSH1 0x4 MSTORE PUSH1 0x24 PUSH1 0x0 REVERT JUMPDEST PUSH1 0x40 MLOAD SWAP1 DUP1 DUP3 MSTORE DUP1 PUSH1 0x20 MUL PUSH1 0x20 ADD DUP3 ADD PUSH1 0x40 MSTORE DUP1 ISZERO PUSH2 0x531 JUMPI DUP2 PUSH1 0x20 ADD JUMPDEST PUSH2 0x51E PUSH2 0x13B6 JUMP JUMPDEST DUP2 MSTORE PUSH1 0x20 ADD SWAP1 PUSH1 0x1 SWAP1 SUB SWAP1 DUP2 PUSH2 0x516 JUMPI SWAP1 POP JUMPDEST POP SWAP1 POP PUSH1 0x0 JUMPDEST PUSH1 0x3 DUP1 SLOAD SWAP1 POP DUP2 LT ISZERO PUSH2 0x689 JUMPI DUP5 PUSH1 0x3 DUP3 DUP2 SLOAD DUP2 LT PUSH2 0x57F JUMPI PUSH32 0x4E487B7100000000000000000000000000000000000000000000000000000000 PUSH1 0x0 MSTORE PUSH1 0x32 PUSH1 0x4 MSTORE PUSH1 0x24 PUSH1 0x0 REVERT JUMPDEST SWAP1 PUSH1 0x0 MSTORE PUSH1 0x20 PUSH1 0x0 KECCAK256 SWAP1 PUSH1 0x4 MUL ADD PUSH1 0x2 ADD SLOAD EQ ISZERO PUSH2 0x676 JUMPI PUSH1 0x3 DUP2 DUP2 SLOAD DUP2 LT PUSH2 0x5D1 JUMPI PUSH32 0x4E487B7100000000000000000000000000000000000000000000000000000000 PUSH1 0x0 MSTORE PUSH1 0x32 PUSH1 0x4 MSTORE PUSH1 0x24 PUSH1 0x0 REVERT JUMPDEST SWAP1 PUSH1 0x0 MSTORE PUSH1 0x20 PUSH1 0x0 KECCAK256 SWAP1 PUSH1 0x4 MUL ADD PUSH1 0x40 MLOAD DUP1 PUSH1 0x80 ADD PUSH1 0x40 MSTORE SWAP1 DUP2 PUSH1 0x0 DUP3 ADD SLOAD DUP2 MSTORE PUSH1 0x20 ADD PUSH1 0x1 DUP3 ADD SLOAD DUP2 MSTORE PUSH1 0x20 ADD PUSH1 0x2 DUP3 ADD SLOAD DUP2 MSTORE PUSH1 0x20 ADD PUSH1 0x3 DUP3 ADD PUSH1 0x0 SWAP1 SLOAD SWAP1 PUSH2 0x100 EXP SWAP1 DIV PUSH1 0xFF AND ISZERO ISZERO ISZERO ISZERO DUP2 MSTORE POP POP DUP3 DUP5 DUP2 MLOAD DUP2 LT PUSH2 0x65C JUMPI PUSH32 0x4E487B7100000000000000000000000000000000000000000000000000000000 PUSH1 0x0 MSTORE PUSH1 0x32 PUSH1 0x4 MSTORE PUSH1 0x24 PUSH1 0x0 REVERT JUMPDEST PUSH1 0x20 MUL PUSH1 0x20 ADD ADD DUP2 SWAP1 MSTORE POP DUP3 DUP1 PUSH2 0x672 SWAP1 PUSH2 0x18E1 JUMP JUMPDEST SWAP4 POP POP JUMPDEST DUP1 DUP1 PUSH2 0x681 SWAP1 PUSH2 0x18E1 JUMP JUMPDEST SWAP2 POP POP PUSH2 0x537 JUMP JUMPDEST POP DUP1 SWAP3 POP POP POP SWAP2 SWAP1 POP JUMP JUMPDEST PUSH1 0x2 PUSH1 0x0 SWAP1 SLOAD SWAP1 PUSH2 0x100 EXP SWAP1 DIV PUSH20 0xFFFFFFFFFFFFFFFFFFFFFFFFFFFFFFFFFFFFFFFF AND PUSH20 0xFFFFFFFFFFFFFFFFFFFFFFFFFFFFFFFFFFFFFFFF AND CALLER PUSH20 0xFFFFFFFFFFFFFFFFFFFFFFFFFFFFFFFFFFFFFFFF AND EQ PUSH2 0x724 JUMPI PUSH1 0x40 MLOAD PUSH32 0x8C379A000000000000000000000000000000000000000000000000000000000 DUP2 MSTORE PUSH1 0x4 ADD PUSH2 0x71B SWAP1 PUSH2 0x1735 JUMP JUMPDEST PUSH1 0x40 MLOAD DUP1 SWAP2 SUB SWAP1 REVERT JUMPDEST DUP1 PUSH1 0x5 DUP2 SWAP1 SSTORE POP POP JUMP JUMPDEST PUSH1 0x60 PUSH1 0x0 DUP1 PUSH1 0x7 PUSH1 0x0 CALLER PUSH20 0xFFFFFFFFFFFFFFFFFFFFFFFFFFFFFFFFFFFFFFFF AND PUSH20 0xFFFFFFFFFFFFFFFFFFFFFFFFFFFFFFFFFFFFFFFF AND DUP2 MSTORE PUSH1 0x20 ADD SWAP1 DUP2 MSTORE PUSH1 0x20 ADD PUSH1 0x0 KECCAK256 SLOAD PUSH8 0xFFFFFFFFFFFFFFFF DUP2 GT ISZERO PUSH2 0x7B2 JUMPI PUSH32 0x4E487B7100000000000000000000000000000000000000000000000000000000 PUSH1 0x0 MSTORE PUSH1 0x41 PUSH1 0x4 MSTORE PUSH1 0x24 PUSH1 0x0 REVERT JUMPDEST PUSH1 0x40 MLOAD SWAP1 DUP1 DUP3 MSTORE DUP1 PUSH1 0x20 MUL PUSH1 0x20 ADD DUP3 ADD PUSH1 0x40 MSTORE DUP1 ISZERO PUSH2 0x7EB JUMPI DUP2 PUSH1 0x20 ADD JUMPDEST PUSH2 0x7D8 PUSH2 0x13B6 JUMP JUMPDEST DUP2 MSTORE PUSH1 0x20 ADD SWAP1 PUSH1 0x1 SWAP1 SUB SWAP1 DUP2 PUSH2 0x7D0 JUMPI SWAP1 POP JUMPDEST POP SWAP1 POP PUSH1 0x0 JUMPDEST PUSH1 0x3 DUP1 SLOAD SWAP1 POP DUP2 LT ISZERO PUSH2 0x957 JUMPI CALLER PUSH20 0xFFFFFFFFFFFFFFFFFFFFFFFFFFFFFFFFFFFFFFFF AND PUSH1 0x6 PUSH1 0x0 DUP4 DUP2 MSTORE PUSH1 0x20 ADD SWAP1 DUP2 MSTORE PUSH1 0x20 ADD PUSH1 0x0 KECCAK256 PUSH1 0x0 SWAP1 SLOAD SWAP1 PUSH2 0x100 EXP SWAP1 DIV PUSH20 0xFFFFFFFFFFFFFFFFFFFFFFFFFFFFFFFFFFFFFFFF AND PUSH20 0xFFFFFFFFFFFFFFFFFFFFFFFFFFFFFFFFFFFFFFFF AND EQ ISZERO PUSH2 0x944 JUMPI PUSH1 0x3 DUP2 DUP2 SLOAD DUP2 LT PUSH2 0x89F JUMPI PUSH32 0x4E487B7100000000000000000000000000000000000000000000000000000000 PUSH1 0x0 MSTORE PUSH1 0x32 PUSH1 0x4 MSTORE PUSH1 0x24 PUSH1 0x0 REVERT JUMPDEST SWAP1 PUSH1 0x0 MSTORE PUSH1 0x20 PUSH1 0x0 KECCAK256 SWAP1 PUSH1 0x4 MUL ADD PUSH1 0x40 MLOAD DUP1 PUSH1 0x80 ADD PUSH1 0x40 MSTORE SWAP1 DUP2 PUSH1 0x0 DUP3 ADD SLOAD DUP2 MSTORE PUSH1 0x20 ADD PUSH1 0x1 DUP3 ADD SLOAD DUP2 MSTORE PUSH1 0x20 ADD PUSH1 0x2 DUP3 ADD SLOAD DUP2 MSTORE PUSH1 0x20 ADD PUSH1 0x3 DUP3 ADD PUSH1 0x0 SWAP1 SLOAD SWAP1 PUSH2 0x100 EXP SWAP1 DIV PUSH1 0xFF AND ISZERO ISZERO ISZERO ISZERO DUP2 MSTORE POP POP DUP3 DUP5 DUP2 MLOAD DUP2 LT PUSH2 0x92A JUMPI PUSH32 0x4E487B7100000000000000000000000000000000000000000000000000000000 PUSH1 0x0 MSTORE PUSH1 0x32 PUSH1 0x4 MSTORE PUSH1 0x24 PUSH1 0x0 REVERT JUMPDEST PUSH1 0x20 MUL PUSH1 0x20 ADD ADD DUP2 SWAP1 MSTORE POP DUP3 DUP1 PUSH2 0x940 SWAP1 PUSH2 0x18E1 JUMP JUMPDEST SWAP4 POP POP JUMPDEST DUP1 DUP1 PUSH2 0x94F SWAP1 PUSH2 0x18E1 JUMP JUMPDEST SWAP2 POP POP PUSH2 0x7F1 JUMP JUMPDEST POP DUP1 SWAP3 POP POP POP SWAP1 JUMP JUMPDEST PUSH1 0x0 PUSH1 0x6 PUSH1 0x0 DUP4 DUP2 MSTORE PUSH1 0x20 ADD SWAP1 DUP2 MSTORE PUSH1 0x20 ADD PUSH1 0x0 KECCAK256 PUSH1 0x0 SWAP1 SLOAD SWAP1 PUSH2 0x100 EXP SWAP1 DIV PUSH20 0xFFFFFFFFFFFFFFFFFFFFFFFFFFFFFFFFFFFFFFFF AND SWAP1 POP SWAP2 SWAP1 POP JUMP JUMPDEST PUSH1 0x0 PUSH1 0x7 PUSH1 0x0 DUP4 PUSH20 0xFFFFFFFFFFFFFFFFFFFFFFFFFFFFFFFFFFFFFFFF AND PUSH20 0xFFFFFFFFFFFFFFFFFFFFFFFFFFFFFFFFFFFFFFFF AND DUP2 MSTORE PUSH1 0x20 ADD SWAP1 DUP2 MSTORE PUSH1 0x20 ADD PUSH1 0x0 KECCAK256 SLOAD SWAP1 POP SWAP2 SWAP1 POP JUMP JUMPDEST PUSH1 0x3 DUP2 DUP2 SLOAD DUP2 LT PUSH2 0xA20 JUMPI PUSH32 0x4E487B7100000000000000000000000000000000000000000000000000000000 PUSH1 0x0 MSTORE PUSH1 0x32 PUSH1 0x4 MSTORE PUSH1 0x24 PUSH1 0x0 REVERT JUMPDEST SWAP1 PUSH1 0x0 MSTORE PUSH1 0x20 PUSH1 0x0 KECCAK256 SWAP1 PUSH1 0x4 MUL ADD PUSH1 0x1 ADD SLOAD CALLVALUE EQ PUSH2 0xA3D JUMPI PUSH1 0x0 DUP1 REVERT JUMPDEST PUSH1 0x0 PUSH20 0xFFFFFFFFFFFFFFFFFFFFFFFFFFFFFFFFFFFFFFFF AND PUSH1 0x6 PUSH1 0x0 DUP4 DUP2 MSTORE PUSH1 0x20 ADD SWAP1 DUP2 MSTORE PUSH1 0x20 ADD PUSH1 0x0 KECCAK256 PUSH1 0x0 SWAP1 SLOAD SWAP1 PUSH2 0x100 EXP SWAP1 DIV PUSH20 0xFFFFFFFFFFFFFFFFFFFFFFFFFFFFFFFFFFFFFFFF AND PUSH20 0xFFFFFFFFFFFFFFFFFFFFFFFFFFFFFFFFFFFFFFFF AND EQ ISZERO PUSH2 0xAE0 JUMPI PUSH1 0x40 MLOAD PUSH32 0x8C379A000000000000000000000000000000000000000000000000000000000 DUP2 MSTORE PUSH1 0x4 ADD PUSH2 0xAD7 SWAP1 PUSH2 0x16D5 JUMP JUMPDEST PUSH1 0x40 MLOAD DUP1 SWAP2 SUB SWAP1 REVERT JUMPDEST PUSH1 0x0 PUSH1 0x6 PUSH1 0x0 DUP4 DUP2 MSTORE PUSH1 0x20 ADD SWAP1 DUP2 MSTORE PUSH1 0x20 ADD PUSH1 0x0 KECCAK256 PUSH1 0x0 SWAP1 SLOAD SWAP1 PUSH2 0x100 EXP SWAP1 DIV PUSH20 0xFFFFFFFFFFFFFFFFFFFFFFFFFFFFFFFFFFFFFFFF AND SWAP1 POP PUSH1 0x0 PUSH1 0x3 DUP4 DUP2 SLOAD DUP2 LT PUSH2 0xB54 JUMPI PUSH32 0x4E487B7100000000000000000000000000000000000000000000000000000000 PUSH1 0x0 MSTORE PUSH1 0x32 PUSH1 0x4 MSTORE PUSH1 0x24 PUSH1 0x0 REVERT JUMPDEST SWAP1 PUSH1 0x0 MSTORE PUSH1 0x20 PUSH1 0x0 KECCAK256 SWAP1 PUSH1 0x4 MUL ADD SWAP1 POP PUSH1 0x0 DUP2 PUSH1 0x3 ADD PUSH1 0x0 PUSH2 0x100 EXP DUP2 SLOAD DUP2 PUSH1 0xFF MUL NOT AND SWAP1 DUP4 ISZERO ISZERO MUL OR SWAP1 SSTORE POP CALLER PUSH1 0x6 PUSH1 0x0 DUP6 DUP2 MSTORE PUSH1 0x20 ADD SWAP1 DUP2 MSTORE PUSH1 0x20 ADD PUSH1 0x0 KECCAK256 PUSH1 0x0 PUSH2 0x100 EXP DUP2 SLOAD DUP2 PUSH20 0xFFFFFFFFFFFFFFFFFFFFFFFFFFFFFFFFFFFFFFFF MUL NOT AND SWAP1 DUP4 PUSH20 0xFFFFFFFFFFFFFFFFFFFFFFFFFFFFFFFFFFFFFFFF AND MUL OR SWAP1 SSTORE POP PUSH1 0x7 PUSH1 0x0 DUP4 PUSH20 0xFFFFFFFFFFFFFFFFFFFFFFFFFFFFFFFFFFFFFFFF AND PUSH20 0xFFFFFFFFFFFFFFFFFFFFFFFFFFFFFFFFFFFFFFFF AND DUP2 MSTORE PUSH1 0x20 ADD SWAP1 DUP2 MSTORE PUSH1 0x20 ADD PUSH1 0x0 KECCAK256 PUSH1 0x0 DUP2 SLOAD DUP1 SWAP3 SWAP2 SWAP1 PUSH1 0x1 SWAP1 SUB SWAP2 SWAP1 POP SSTORE POP PUSH1 0x7 PUSH1 0x0 CALLER PUSH20 0xFFFFFFFFFFFFFFFFFFFFFFFFFFFFFFFFFFFFFFFF AND PUSH20 0xFFFFFFFFFFFFFFFFFFFFFFFFFFFFFFFFFFFFFFFF AND DUP2 MSTORE PUSH1 0x20 ADD SWAP1 DUP2 MSTORE PUSH1 0x20 ADD PUSH1 0x0 KECCAK256 PUSH1 0x0 DUP2 SLOAD DUP1 SWAP3 SWAP2 SWAP1 PUSH1 0x1 ADD SWAP2 SWAP1 POP SSTORE POP PUSH1 0x4 PUSH1 0x0 DUP2 SLOAD DUP1 SWAP3 SWAP2 SWAP1 PUSH1 0x1 SWAP1 SUB SWAP2 SWAP1 POP SSTORE POP PUSH1 0x0 DUP1 PUSH2 0xC94 CALLVALUE PUSH1 0x5 SLOAD PUSH2 0x1378 JUMP JUMPDEST DUP1 SWAP3 POP DUP2 SWAP4 POP POP POP PUSH1 0x2 PUSH1 0x0 SWAP1 SLOAD SWAP1 PUSH2 0x100 EXP SWAP1 DIV PUSH20 0xFFFFFFFFFFFFFFFFFFFFFFFFFFFFFFFFFFFFFFFF AND PUSH20 0xFFFFFFFFFFFFFFFFFFFFFFFFFFFFFFFFFFFFFFFF AND PUSH2 0x8FC DUP4 SWAP1 DUP2 ISZERO MUL SWAP1 PUSH1 0x40 MLOAD PUSH1 0x0 PUSH1 0x40 MLOAD DUP1 DUP4 SUB DUP2 DUP6 DUP9 DUP9 CALL SWAP4 POP POP POP POP ISZERO DUP1 ISZERO PUSH2 0xD04 JUMPI RETURNDATASIZE PUSH1 0x0 DUP1 RETURNDATACOPY RETURNDATASIZE PUSH1 0x0 REVERT JUMPDEST POP DUP4 PUSH20 0xFFFFFFFFFFFFFFFFFFFFFFFFFFFFFFFFFFFFFFFF AND PUSH2 0x8FC DUP3 SWAP1 DUP2 ISZERO MUL SWAP1 PUSH1 0x40 MLOAD PUSH1 0x0 PUSH1 0x40 MLOAD DUP1 DUP4 SUB DUP2 DUP6 DUP9 DUP9 CALL SWAP4 POP POP POP POP ISZERO DUP1 ISZERO PUSH2 0xD4B JUMPI RETURNDATASIZE PUSH1 0x0 DUP1 RETURNDATACOPY RETURNDATASIZE PUSH1 0x0 REVERT JUMPDEST POP CALLER PUSH20 0xFFFFFFFFFFFFFFFFFFFFFFFFFFFFFFFFFFFFFFFF AND DUP5 PUSH20 0xFFFFFFFFFFFFFFFFFFFFFFFFFFFFFFFFFFFFFFFF AND PUSH32 0xDDF252AD1BE2C89B69C2B068FC378DAA952BA7F163C4A11628F55A4DF523B3EF DUP8 PUSH1 0x40 MLOAD PUSH2 0xDA9 SWAP2 SWAP1 PUSH2 0x1775 JUMP JUMPDEST PUSH1 0x40 MLOAD DUP1 SWAP2 SUB SWAP1 LOG3 POP POP POP POP POP JUMP JUMPDEST DUP1 CALLER PUSH20 0xFFFFFFFFFFFFFFFFFFFFFFFFFFFFFFFFFFFFFFFF AND PUSH1 0x6 PUSH1 0x0 DUP4 DUP2 MSTORE PUSH1 0x20 ADD SWAP1 DUP2 MSTORE PUSH1 0x20 ADD PUSH1 0x0 KECCAK256 PUSH1 0x0 SWAP1 SLOAD SWAP1 PUSH2 0x100 EXP SWAP1 DIV PUSH20 0xFFFFFFFFFFFFFFFFFFFFFFFFFFFFFFFFFFFFFFFF AND PUSH20 0xFFFFFFFFFFFFFFFFFFFFFFFFFFFFFFFFFFFFFFFF AND EQ PUSH2 0xE5A JUMPI PUSH1 0x40 MLOAD PUSH32 0x8C379A000000000000000000000000000000000000000000000000000000000 DUP2 MSTORE PUSH1 0x4 ADD PUSH2 0xE51 SWAP1 PUSH2 0x16F5 JUMP JUMPDEST PUSH1 0x40 MLOAD DUP1 SWAP2 SUB SWAP1 REVERT JUMPDEST PUSH1 0x0 PUSH20 0xFFFFFFFFFFFFFFFFFFFFFFFFFFFFFFFFFFFFFFFF AND PUSH1 0x6 PUSH1 0x0 DUP5 DUP2 MSTORE PUSH1 0x20 ADD SWAP1 DUP2 MSTORE PUSH1 0x20 ADD PUSH1 0x0 KECCAK256 PUSH1 0x0 SWAP1 SLOAD SWAP1 PUSH2 0x100 EXP SWAP1 DIV PUSH20 0xFFFFFFFFFFFFFFFFFFFFFFFFFFFFFFFFFFFFFFFF AND PUSH20 0xFFFFFFFFFFFFFFFFFFFFFFFFFFFFFFFFFFFFFFFF AND EQ ISZERO PUSH2 0xEFD JUMPI PUSH1 0x40 MLOAD PUSH32 0x8C379A000000000000000000000000000000000000000000000000000000000 DUP2 MSTORE PUSH1 0x4 ADD PUSH2 0xEF4 SWAP1 PUSH2 0x16D5 JUMP JUMPDEST PUSH1 0x40 MLOAD DUP1 SWAP2 SUB SWAP1 REVERT JUMPDEST PUSH1 0x1 ISZERO ISZERO PUSH1 0x3 DUP4 DUP2 SLOAD DUP2 LT PUSH2 0xF3B JUMPI PUSH32 0x4E487B7100000000000000000000000000000000000000000000000000000000 PUSH1 0x0 MSTORE PUSH1 0x32 PUSH1 0x4 MSTORE PUSH1 0x24 PUSH1 0x0 REVERT JUMPDEST SWAP1 PUSH1 0x0 MSTORE PUSH1 0x20 PUSH1 0x0 KECCAK256 SWAP1 PUSH1 0x4 MUL ADD PUSH1 0x3 ADD PUSH1 0x0 SWAP1 SLOAD SWAP1 PUSH2 0x100 EXP SWAP1 DIV PUSH1 0xFF AND ISZERO ISZERO EQ PUSH2 0xF9C JUMPI PUSH1 0x40 MLOAD PUSH32 0x8C379A000000000000000000000000000000000000000000000000000000000 DUP2 MSTORE PUSH1 0x4 ADD PUSH2 0xF93 SWAP1 PUSH2 0x1695 JUMP JUMPDEST PUSH1 0x40 MLOAD DUP1 SWAP2 SUB SWAP1 REVERT JUMPDEST PUSH1 0x0 PUSH1 0x3 DUP4 DUP2 SLOAD DUP2 LT PUSH2 0xFD8 JUMPI PUSH32 0x4E487B7100000000000000000000000000000000000000000000000000000000 PUSH1 0x0 MSTORE PUSH1 0x32 PUSH1 0x4 MSTORE PUSH1 0x24 PUSH1 0x0 REVERT JUMPDEST SWAP1 PUSH1 0x0 MSTORE PUSH1 0x20 PUSH1 0x0 KECCAK256 SWAP1 PUSH1 0x4 MUL ADD PUSH1 0x3 ADD PUSH1 0x0 PUSH2 0x100 EXP DUP2 SLOAD DUP2 PUSH1 0xFF MUL NOT AND SWAP1 DUP4 ISZERO ISZERO MUL OR SWAP1 SSTORE POP PUSH1 0x4 PUSH1 0x0 DUP2 SLOAD DUP1 SWAP3 SWAP2 SWAP1 PUSH1 0x1 SWAP1 SUB SWAP2 SWAP1 POP SSTORE POP POP POP JUMP JUMPDEST DUP1 CALLER PUSH20 0xFFFFFFFFFFFFFFFFFFFFFFFFFFFFFFFFFFFFFFFF AND PUSH1 0x6 PUSH1 0x0 DUP4 DUP2 MSTORE PUSH1 0x20 ADD SWAP1 DUP2 MSTORE PUSH1 0x20 ADD PUSH1 0x0 KECCAK256 PUSH1 0x0 SWAP1 SLOAD SWAP1 PUSH2 0x100 EXP SWAP1 DIV PUSH20 0xFFFFFFFFFFFFFFFFFFFFFFFFFFFFFFFFFFFFFFFF AND PUSH20 0xFFFFFFFFFFFFFFFFFFFFFFFFFFFFFFFFFFFFFFFF AND EQ PUSH2 0x10B9 JUMPI PUSH1 0x40 MLOAD PUSH32 0x8C379A000000000000000000000000000000000000000000000000000000000 DUP2 MSTORE PUSH1 0x4 ADD PUSH2 0x10B0 SWAP1 PUSH2 0x16F5 JUMP JUMPDEST PUSH1 0x40 MLOAD DUP1 SWAP2 SUB SWAP1 REVERT JUMPDEST PUSH1 0x0 PUSH20 0xFFFFFFFFFFFFFFFFFFFFFFFFFFFFFFFFFFFFFFFF AND PUSH1 0x6 PUSH1 0x0 DUP5 DUP2 MSTORE PUSH1 0x20 ADD SWAP1 DUP2 MSTORE PUSH1 0x20 ADD PUSH1 0x0 KECCAK256 PUSH1 0x0 SWAP1 SLOAD SWAP1 PUSH2 0x100 EXP SWAP1 DIV PUSH20 0xFFFFFFFFFFFFFFFFFFFFFFFFFFFFFFFFFFFFFFFF AND PUSH20 0xFFFFFFFFFFFFFFFFFFFFFFFFFFFFFFFFFFFFFFFF AND EQ ISZERO PUSH2 0x115C JUMPI PUSH1 0x40 MLOAD PUSH32 0x8C379A000000000000000000000000000000000000000000000000000000000 DUP2 MSTORE PUSH1 0x4 ADD PUSH2 0x1153 SWAP1 PUSH2 0x16D5 JUMP JUMPDEST PUSH1 0x40 MLOAD DUP1 SWAP2 SUB SWAP1 REVERT JUMPDEST PUSH1 0x0 ISZERO ISZERO PUSH1 0x3 DUP4 DUP2 SLOAD DUP2 LT PUSH2 0x119A JUMPI PUSH32 0x4E487B7100000000000000000000000000000000000000000000000000000000 PUSH1 0x0 MSTORE PUSH1 0x32 PUSH1 0x4 MSTORE PUSH1 0x24 PUSH1 0x0 REVERT JUMPDEST SWAP1 PUSH1 0x0 MSTORE PUSH1 0x20 PUSH1 0x0 KECCAK256 SWAP1 PUSH1 0x4 MUL ADD PUSH1 0x3 ADD PUSH1 0x0 SWAP1 SLOAD SWAP1 PUSH2 0x100 EXP SWAP1 DIV PUSH1 0xFF AND ISZERO ISZERO EQ PUSH2 0x11FB JUMPI PUSH1 0x40 MLOAD PUSH32 0x8C379A000000000000000000000000000000000000000000000000000000000 DUP2 MSTORE PUSH1 0x4 ADD PUSH2 0x11F2 SWAP1 PUSH2 0x1715 JUMP JUMPDEST PUSH1 0x40 MLOAD DUP1 SWAP2 SUB SWAP1 REVERT JUMPDEST PUSH1 0x1 PUSH1 0x3 DUP4 DUP2 SLOAD DUP2 LT PUSH2 0x1237 JUMPI PUSH32 0x4E487B7100000000000000000000000000000000000000000000000000000000 PUSH1 0x0 MSTORE PUSH1 0x32 PUSH1 0x4 MSTORE PUSH1 0x24 PUSH1 0x0 REVERT JUMPDEST SWAP1 PUSH1 0x0 MSTORE PUSH1 0x20 PUSH1 0x0 KECCAK256 SWAP1 PUSH1 0x4 MUL ADD PUSH1 0x3 ADD PUSH1 0x0 PUSH2 0x100 EXP DUP2 SLOAD DUP2 PUSH1 0xFF MUL NOT AND SWAP1 DUP4 ISZERO ISZERO MUL OR SWAP1 SSTORE POP PUSH1 0x4 PUSH1 0x0 DUP2 SLOAD DUP1 SWAP3 SWAP2 SWAP1 PUSH1 0x1 ADD SWAP2 SWAP1 POP SSTORE POP POP POP JUMP JUMPDEST PUSH1 0x0 DUP1 DUP3 GT PUSH2 0x12B9 JUMPI PUSH1 0x40 MLOAD PUSH32 0x8C379A000000000000000000000000000000000000000000000000000000000 DUP2 MSTORE PUSH1 0x4 ADD PUSH2 0x12B0 SWAP1 PUSH2 0x1755 JUMP JUMPDEST PUSH1 0x40 MLOAD DUP1 SWAP2 SUB SWAP1 REVERT JUMPDEST PUSH1 0x0 PUSH1 0x3 DUP1 SLOAD SWAP1 POP SWAP1 POP PUSH1 0x0 PUSH20 0xFFFFFFFFFFFFFFFFFFFFFFFFFFFFFFFFFFFFFFFF AND PUSH1 0x6 PUSH1 0x0 DUP4 DUP2 MSTORE PUSH1 0x20 ADD SWAP1 DUP2 MSTORE PUSH1 0x20 ADD PUSH1 0x0 KECCAK256 PUSH1 0x0 SWAP1 SLOAD SWAP1 PUSH2 0x100 EXP SWAP1 DIV PUSH20 0xFFFFFFFFFFFFFFFFFFFFFFFFFFFFFFFFFFFFFFFF AND PUSH20 0xFFFFFFFFFFFFFFFFFFFFFFFFFFFFFFFFFFFFFFFF AND EQ PUSH2 0x1365 JUMPI PUSH1 0x40 MLOAD PUSH32 0x8C379A000000000000000000000000000000000000000000000000000000000 DUP2 MSTORE PUSH1 0x4 ADD PUSH2 0x135C SWAP1 PUSH2 0x16B5 JUMP JUMPDEST PUSH1 0x40 MLOAD DUP1 SWAP2 SUB SWAP1 REVERT JUMPDEST DUP1 SWAP2 POP POP SWAP2 SWAP1 POP JUMP JUMPDEST PUSH1 0x0 PUSH1 0x5 SLOAD SWAP1 POP SWAP1 JUMP JUMPDEST PUSH1 0x0 DUP1 PUSH1 0x0 PUSH1 0x64 DUP6 DUP6 PUSH2 0x138B SWAP2 SWAP1 PUSH2 0x180B JUMP JUMPDEST PUSH2 0x1395 SWAP2 SWAP1 PUSH2 0x17DA JUMP JUMPDEST SWAP1 POP PUSH1 0x0 DUP2 DUP7 PUSH2 0x13A5 SWAP2 SWAP1 PUSH2 0x1865 JUMP JUMPDEST SWAP1 POP DUP2 DUP2 SWAP4 POP SWAP4 POP POP POP SWAP3 POP SWAP3 SWAP1 POP JUMP JUMPDEST PUSH1 0x40 MLOAD DUP1 PUSH1 0x80 ADD PUSH1 0x40 MSTORE DUP1 PUSH1 0x0 DUP2 MSTORE PUSH1 0x20 ADD PUSH1 0x0 DUP2 MSTORE PUSH1 0x20 ADD PUSH1 0x0 DUP2 MSTORE PUSH1 0x20 ADD PUSH1 0x0 ISZERO ISZERO DUP2 MSTORE POP SWAP1 JUMP JUMPDEST PUSH1 0x0 DUP2 CALLDATALOAD SWAP1 POP PUSH2 0x13EF DUP2 PUSH2 0x1ACD JUMP JUMPDEST SWAP3 SWAP2 POP POP JUMP JUMPDEST PUSH1 0x0 DUP2 CALLDATALOAD SWAP1 POP PUSH2 0x1404 DUP2 PUSH2 0x1AE4 JUMP JUMPDEST SWAP3 SWAP2 POP POP JUMP JUMPDEST PUSH1 0x0 PUSH1 0x20 DUP3 DUP5 SUB SLT ISZERO PUSH2 0x141C JUMPI PUSH1 0x0 DUP1 REVERT JUMPDEST PUSH1 0x0 PUSH2 0x142A DUP5 DUP3 DUP6 ADD PUSH2 0x13E0 JUMP JUMPDEST SWAP2 POP POP SWAP3 SWAP2 POP POP JUMP JUMPDEST PUSH1 0x0 PUSH1 0x20 DUP3 DUP5 SUB SLT ISZERO PUSH2 0x1445 JUMPI PUSH1 0x0 DUP1 REVERT JUMPDEST PUSH1 0x0 PUSH2 0x1453 DUP5 DUP3 DUP6 ADD PUSH2 0x13F5 JUMP JUMPDEST SWAP2 POP POP SWAP3 SWAP2 POP POP JUMP JUMPDEST PUSH1 0x0 PUSH2 0x1468 DUP4 DUP4 PUSH2 0x15E5 JUMP JUMPDEST PUSH1 0x80 DUP4 ADD SWAP1 POP SWAP3 SWAP2 POP POP JUMP JUMPDEST PUSH2 0x147D DUP2 PUSH2 0x1899 JUMP JUMPDEST DUP3 MSTORE POP POP JUMP JUMPDEST PUSH1 0x0 PUSH2 0x148E DUP3 PUSH2 0x17A0 JUMP JUMPDEST PUSH2 0x1498 DUP2 DUP6 PUSH2 0x17B8 JUMP JUMPDEST SWAP4 POP PUSH2 0x14A3 DUP4 PUSH2 0x1790 JUMP JUMPDEST DUP1 PUSH1 0x0 JUMPDEST DUP4 DUP2 LT ISZERO PUSH2 0x14D4 JUMPI DUP2 MLOAD PUSH2 0x14BB DUP9 DUP3 PUSH2 0x145C JUMP JUMPDEST SWAP8 POP PUSH2 0x14C6 DUP4 PUSH2 0x17AB JUMP JUMPDEST SWAP3 POP POP PUSH1 0x1 DUP2 ADD SWAP1 POP PUSH2 0x14A7 JUMP JUMPDEST POP DUP6 SWAP4 POP POP POP POP SWAP3 SWAP2 POP POP JUMP JUMPDEST PUSH2 0x14EA DUP2 PUSH2 0x18AB JUMP JUMPDEST DUP3 MSTORE POP POP JUMP JUMPDEST PUSH1 0x0 PUSH2 0x14FD PUSH1 0x13 DUP4 PUSH2 0x17C9 JUMP JUMPDEST SWAP2 POP PUSH2 0x1508 DUP3 PUSH2 0x1988 JUMP JUMPDEST PUSH1 0x20 DUP3 ADD SWAP1 POP SWAP2 SWAP1 POP JUMP JUMPDEST PUSH1 0x0 PUSH2 0x1520 PUSH1 0x13 DUP4 PUSH2 0x17C9 JUMP JUMPDEST SWAP2 POP PUSH2 0x152B DUP3 PUSH2 0x19B1 JUMP JUMPDEST PUSH1 0x20 DUP3 ADD SWAP1 POP SWAP2 SWAP1 POP JUMP JUMPDEST PUSH1 0x0 PUSH2 0x1543 PUSH1 0x13 DUP4 PUSH2 0x17C9 JUMP JUMPDEST SWAP2 POP PUSH2 0x154E DUP3 PUSH2 0x19DA JUMP JUMPDEST PUSH1 0x20 DUP3 ADD SWAP1 POP SWAP2 SWAP1 POP JUMP JUMPDEST PUSH1 0x0 PUSH2 0x1566 PUSH1 0x1D DUP4 PUSH2 0x17C9 JUMP JUMPDEST SWAP2 POP PUSH2 0x1571 DUP3 PUSH2 0x1A03 JUMP JUMPDEST PUSH1 0x20 DUP3 ADD SWAP1 POP SWAP2 SWAP1 POP JUMP JUMPDEST PUSH1 0x0 PUSH2 0x1589 PUSH1 0x18 DUP4 PUSH2 0x17C9 JUMP JUMPDEST SWAP2 POP PUSH2 0x1594 DUP3 PUSH2 0x1A2C JUMP JUMPDEST PUSH1 0x20 DUP3 ADD SWAP1 POP SWAP2 SWAP1 POP JUMP JUMPDEST PUSH1 0x0 PUSH2 0x15AC PUSH1 0x21 DUP4 PUSH2 0x17C9 JUMP JUMPDEST SWAP2 POP PUSH2 0x15B7 DUP3 PUSH2 0x1A55 JUMP JUMPDEST PUSH1 0x40 DUP3 ADD SWAP1 POP SWAP2 SWAP1 POP JUMP JUMPDEST PUSH1 0x0 PUSH2 0x15CF PUSH1 0x1A DUP4 PUSH2 0x17C9 JUMP JUMPDEST SWAP2 POP PUSH2 0x15DA DUP3 PUSH2 0x1AA4 JUMP JUMPDEST PUSH1 0x20 DUP3 ADD SWAP1 POP SWAP2 SWAP1 POP JUMP JUMPDEST PUSH1 0x80 DUP3 ADD PUSH1 0x0 DUP3 ADD MLOAD PUSH2 0x15FB PUSH1 0x0 DUP6 ADD DUP3 PUSH2 0x163A JUMP JUMPDEST POP PUSH1 0x20 DUP3 ADD MLOAD PUSH2 0x160E PUSH1 0x20 DUP6 ADD DUP3 PUSH2 0x163A JUMP JUMPDEST POP PUSH1 0x40 DUP3 ADD MLOAD PUSH2 0x1621 PUSH1 0x40 DUP6 ADD DUP3 PUSH2 0x163A JUMP JUMPDEST POP PUSH1 0x60 DUP3 ADD MLOAD PUSH2 0x1634 PUSH1 0x60 DUP6 ADD DUP3 PUSH2 0x14E1 JUMP JUMPDEST POP POP POP POP JUMP JUMPDEST PUSH2 0x1643 DUP2 PUSH2 0x18D7 JUMP JUMPDEST DUP3 MSTORE POP POP JUMP JUMPDEST PUSH2 0x1652 DUP2 PUSH2 0x18D7 JUMP JUMPDEST DUP3 MSTORE POP POP JUMP JUMPDEST PUSH1 0x0 PUSH1 0x20 DUP3 ADD SWAP1 POP PUSH2 0x166D PUSH1 0x0 DUP4 ADD DUP5 PUSH2 0x1474 JUMP JUMPDEST SWAP3 SWAP2 POP POP JUMP JUMPDEST PUSH1 0x0 PUSH1 0x20 DUP3 ADD SWAP1 POP DUP2 DUP2 SUB PUSH1 0x0 DUP4 ADD MSTORE PUSH2 0x168D DUP2 DUP5 PUSH2 0x1483 JUMP JUMPDEST SWAP1 POP SWAP3 SWAP2 POP POP JUMP JUMPDEST PUSH1 0x0 PUSH1 0x20 DUP3 ADD SWAP1 POP DUP2 DUP2 SUB PUSH1 0x0 DUP4 ADD MSTORE PUSH2 0x16AE DUP2 PUSH2 0x14F0 JUMP JUMPDEST SWAP1 POP SWAP2 SWAP1 POP JUMP JUMPDEST PUSH1 0x0 PUSH1 0x20 DUP3 ADD SWAP1 POP DUP2 DUP2 SUB PUSH1 0x0 DUP4 ADD MSTORE PUSH2 0x16CE DUP2 PUSH2 0x1513 JUMP JUMPDEST SWAP1 POP SWAP2 SWAP1 POP JUMP JUMPDEST PUSH1 0x0 PUSH1 0x20 DUP3 ADD SWAP1 POP DUP2 DUP2 SUB PUSH1 0x0 DUP4 ADD MSTORE PUSH2 0x16EE DUP2 PUSH2 0x1536 JUMP JUMPDEST SWAP1 POP SWAP2 SWAP1 POP JUMP JUMPDEST PUSH1 0x0 PUSH1 0x20 DUP3 ADD SWAP1 POP DUP2 DUP2 SUB PUSH1 0x0 DUP4 ADD MSTORE PUSH2 0x170E DUP2 PUSH2 0x1559 JUMP JUMPDEST SWAP1 POP SWAP2 SWAP1 POP JUMP JUMPDEST PUSH1 0x0 PUSH1 0x20 DUP3 ADD SWAP1 POP DUP2 DUP2 SUB PUSH1 0x0 DUP4 ADD MSTORE PUSH2 0x172E DUP2 PUSH2 0x157C JUMP JUMPDEST SWAP1 POP SWAP2 SWAP1 POP JUMP JUMPDEST PUSH1 0x0 PUSH1 0x20 DUP3 ADD SWAP1 POP DUP2 DUP2 SUB PUSH1 0x0 DUP4 ADD MSTORE PUSH2 0x174E DUP2 PUSH2 0x159F JUMP JUMPDEST SWAP1 POP SWAP2 SWAP1 POP JUMP JUMPDEST PUSH1 0x0 PUSH1 0x20 DUP3 ADD SWAP1 POP DUP2 DUP2 SUB PUSH1 0x0 DUP4 ADD MSTORE PUSH2 0x176E DUP2 PUSH2 0x15C2 JUMP JUMPDEST SWAP1 POP SWAP2 SWAP1 POP JUMP JUMPDEST PUSH1 0x0 PUSH1 0x20 DUP3 ADD SWAP1 POP PUSH2 0x178A PUSH1 0x0 DUP4 ADD DUP5 PUSH2 0x1649 JUMP JUMPDEST SWAP3 SWAP2 POP POP JUMP JUMPDEST PUSH1 0x0 DUP2 SWAP1 POP PUSH1 0x20 DUP3 ADD SWAP1 POP SWAP2 SWAP1 POP JUMP JUMPDEST PUSH1 0x0 DUP2 MLOAD SWAP1 POP SWAP2 SWAP1 POP JUMP JUMPDEST PUSH1 0x0 PUSH1 0x20 DUP3 ADD SWAP1 POP SWAP2 SWAP1 POP JUMP JUMPDEST PUSH1 0x0 DUP3 DUP3 MSTORE PUSH1 0x20 DUP3 ADD SWAP1 POP SWAP3 SWAP2 POP POP JUMP JUMPDEST PUSH1 0x0 DUP3 DUP3 MSTORE PUSH1 0x20 DUP3 ADD SWAP1 POP SWAP3 SWAP2 POP POP JUMP JUMPDEST PUSH1 0x0 PUSH2 0x17E5 DUP3 PUSH2 0x18D7 JUMP JUMPDEST SWAP2 POP PUSH2 0x17F0 DUP4 PUSH2 0x18D7 JUMP JUMPDEST SWAP3 POP DUP3 PUSH2 0x1800 JUMPI PUSH2 0x17FF PUSH2 0x1959 JUMP JUMPDEST JUMPDEST DUP3 DUP3 DIV SWAP1 POP SWAP3 SWAP2 POP POP JUMP JUMPDEST PUSH1 0x0 PUSH2 0x1816 DUP3 PUSH2 0x18D7 JUMP JUMPDEST SWAP2 POP PUSH2 0x1821 DUP4 PUSH2 0x18D7 JUMP JUMPDEST SWAP3 POP DUP2 PUSH32 0xFFFFFFFFFFFFFFFFFFFFFFFFFFFFFFFFFFFFFFFFFFFFFFFFFFFFFFFFFFFFFFFF DIV DUP4 GT DUP3 ISZERO ISZERO AND ISZERO PUSH2 0x185A JUMPI PUSH2 0x1859 PUSH2 0x192A JUMP JUMPDEST JUMPDEST DUP3 DUP3 MUL SWAP1 POP SWAP3 SWAP2 POP POP JUMP JUMPDEST PUSH1 0x0 PUSH2 0x1870 DUP3 PUSH2 0x18D7 JUMP JUMPDEST SWAP2 POP PUSH2 0x187B DUP4 PUSH2 0x18D7 JUMP JUMPDEST SWAP3 POP DUP3 DUP3 LT ISZERO PUSH2 0x188E JUMPI PUSH2 0x188D PUSH2 0x192A JUMP JUMPDEST JUMPDEST DUP3 DUP3 SUB SWAP1 POP SWAP3 SWAP2 POP POP JUMP JUMPDEST PUSH1 0x0 PUSH2 0x18A4 DUP3 PUSH2 0x18B7 JUMP JUMPDEST SWAP1 POP SWAP2 SWAP1 POP JUMP JUMPDEST PUSH1 0x0 DUP2 ISZERO ISZERO SWAP1 POP SWAP2 SWAP1 POP JUMP JUMPDEST PUSH1 0x0 PUSH20 0xFFFFFFFFFFFFFFFFFFFFFFFFFFFFFFFFFFFFFFFF DUP3 AND SWAP1 POP SWAP2 SWAP1 POP JUMP JUMPDEST PUSH1 0x0 DUP2 SWAP1 POP SWAP2 SWAP1 POP JUMP JUMPDEST PUSH1 0x0 PUSH2 0x18EC DUP3 PUSH2 0x18D7 JUMP JUMPDEST SWAP2 POP PUSH32 0xFFFFFFFFFFFFFFFFFFFFFFFFFFFFFFFFFFFFFFFFFFFFFFFFFFFFFFFFFFFFFFFF DUP3 EQ ISZERO PUSH2 0x191F JUMPI PUSH2 0x191E PUSH2 0x192A JUMP JUMPDEST JUMPDEST PUSH1 0x1 DUP3 ADD SWAP1 POP SWAP2 SWAP1 POP JUMP JUMPDEST PUSH32 0x4E487B7100000000000000000000000000000000000000000000000000000000 PUSH1 0x0 MSTORE PUSH1 0x11 PUSH1 0x4 MSTORE PUSH1 0x24 PUSH1 0x0 REVERT JUMPDEST PUSH32 0x4E487B7100000000000000000000000000000000000000000000000000000000 PUSH1 0x0 MSTORE PUSH1 0x12 PUSH1 0x4 MSTORE PUSH1 0x24 PUSH1 0x0 REVERT JUMPDEST PUSH32 0x746F6B656E2069736E277420746F2073656C6C00000000000000000000000000 PUSH1 0x0 DUP3 ADD MSTORE POP JUMP JUMPDEST PUSH32 0x746F6B656E20616C726561647920657869737400000000000000000000000000 PUSH1 0x0 DUP3 ADD MSTORE POP JUMP JUMPDEST PUSH32 0x746F6B656E20646F65736E277420657869737400000000000000000000000000 PUSH1 0x0 DUP3 ADD MSTORE POP JUMP JUMPDEST PUSH32 0x4F6E6C79206974656D2773206F776E65722063616E20646F2074686174000000 PUSH1 0x0 DUP3 ADD MSTORE POP JUMP JUMPDEST PUSH32 0x746F6B656E20697320616C726561647920746F2073656C6C0000000000000000 PUSH1 0x0 DUP3 ADD MSTORE POP JUMP JUMPDEST PUSH32 0x4F6E6C7920636F6E74726163742773206F776E65722063616E20646F20746861 PUSH1 0x0 DUP3 ADD MSTORE PUSH32 0x7400000000000000000000000000000000000000000000000000000000000000 PUSH1 0x20 DUP3 ADD MSTORE POP JUMP JUMPDEST PUSH32 0x50726963652063616E6E6F7420626520657175616C20746F2030000000000000 PUSH1 0x0 DUP3 ADD MSTORE POP JUMP JUMPDEST PUSH2 0x1AD6 DUP2 PUSH2 0x1899 JUMP JUMPDEST DUP2 EQ PUSH2 0x1AE1 JUMPI PUSH1 0x0 DUP1 REVERT JUMPDEST POP JUMP JUMPDEST PUSH2 0x1AED DUP2 PUSH2 0x18D7 JUMP JUMPDEST DUP2 EQ PUSH2 0x1AF8 JUMPI PUSH1 0x0 DUP1 REVERT JUMPDEST POP JUMP INVALID LOG2 PUSH5 0x6970667358 0x22 SLT KECCAK256 GAS 0x27 0x5C BALANCE 0xC5 0x2D 0xFC GASPRICE 0xCB 0x4A GASPRICE ADDMOD TIMESTAMP CREATE2 SWAP1 PUSH18 0xB93774B42FE96044AAC57BD6AE7FC04F6473 PUSH16 0x6C634300080100330000000000000000 "
				},
				"gasEstimates": {
					"creation": {
						"codeDepositCost": "1392200",
						"executionCost": "infinite",
						"totalCost": "infinite"
					},
					"external": {
						"addItemToSell(uint256)": "46746",
						"balanceOf(address)": "1541",
						"createItem(uint256)": "infinite",
						"fetchItemsByCatId(uint256)": "infinite",
						"fetchItemsByOwner()": "infinite",
						"fetchItemsToSell()": "infinite",
						"getFeesPercentage()": "1247",
						"modifyFeesPercentage(uint256)": "21335",
						"ownerOf(uint256)": "1654",
						"removeItemToSell(uint256)": "46727",
						"sellItem(uint256)": "infinite"
					},
					"internal": {
						"getFees(uint256,uint256)": "infinite"
					}
				},
				"methodIdentifiers": {
					"addItemToSell(uint256)": "c0f202ef",
					"balanceOf(address)": "70a08231",
					"createItem(uint256)": "d7a5d5d3",
					"fetchItemsByCatId(uint256)": "2165e65a",
					"fetchItemsByOwner()": "4cad2ffc",
					"fetchItemsToSell()": "073e74df",
					"getFeesPercentage()": "ea0ff14a",
					"modifyFeesPercentage(uint256)": "29de6246",
					"ownerOf(uint256)": "6352211e",
					"removeItemToSell(uint256)": "a4964c33",
					"sellItem(uint256)": "91b6be9a"
				}
			},
			"storageLayout": {
				"storage": [
					{
						"astId": 11,
						"contract": "contracts/GeekNft.sol:GeekNft",
						"label": "name",
						"offset": 0,
						"slot": "0",
						"type": "t_string_storage"
					},
					{
						"astId": 13,
						"contract": "contracts/GeekNft.sol:GeekNft",
						"label": "symbol",
						"offset": 0,
						"slot": "1",
						"type": "t_string_storage"
					},
					{
						"astId": 15,
						"contract": "contracts/GeekNft.sol:GeekNft",
						"label": "owner",
						"offset": 0,
						"slot": "2",
						"type": "t_address"
					},
					{
						"astId": 28,
						"contract": "contracts/GeekNft.sol:GeekNft",
						"label": "items",
						"offset": 0,
						"slot": "3",
						"type": "t_array(t_struct(Item)24_storage)dyn_storage"
					},
					{
						"astId": 30,
						"contract": "contracts/GeekNft.sol:GeekNft",
						"label": "itemsToSellCount",
						"offset": 0,
						"slot": "4",
						"type": "t_uint256"
					},
					{
						"astId": 32,
						"contract": "contracts/GeekNft.sol:GeekNft",
						"label": "feesPercentage",
						"offset": 0,
						"slot": "5",
						"type": "t_uint256"
					},
					{
						"astId": 36,
						"contract": "contracts/GeekNft.sol:GeekNft",
						"label": "itemToOwner",
						"offset": 0,
						"slot": "6",
						"type": "t_mapping(t_uint256,t_address)"
					},
					{
						"astId": 40,
						"contract": "contracts/GeekNft.sol:GeekNft",
						"label": "itemsOwnerCount",
						"offset": 0,
						"slot": "7",
						"type": "t_mapping(t_address,t_uint256)"
					},
					{
						"astId": 44,
						"contract": "contracts/GeekNft.sol:GeekNft",
						"label": "itemsCatIdCount",
						"offset": 0,
						"slot": "8",
						"type": "t_mapping(t_uint256,t_uint256)"
					}
				],
				"types": {
					"t_address": {
						"encoding": "inplace",
						"label": "address",
						"numberOfBytes": "20"
					},
					"t_array(t_struct(Item)24_storage)dyn_storage": {
						"base": "t_struct(Item)24_storage",
						"encoding": "dynamic_array",
						"label": "struct GeekNft.Item[]",
						"numberOfBytes": "32"
					},
					"t_bool": {
						"encoding": "inplace",
						"label": "bool",
						"numberOfBytes": "1"
					},
					"t_mapping(t_address,t_uint256)": {
						"encoding": "mapping",
						"key": "t_address",
						"label": "mapping(address => uint256)",
						"numberOfBytes": "32",
						"value": "t_uint256"
					},
					"t_mapping(t_uint256,t_address)": {
						"encoding": "mapping",
						"key": "t_uint256",
						"label": "mapping(uint256 => address)",
						"numberOfBytes": "32",
						"value": "t_address"
					},
					"t_mapping(t_uint256,t_uint256)": {
						"encoding": "mapping",
						"key": "t_uint256",
						"label": "mapping(uint256 => uint256)",
						"numberOfBytes": "32",
						"value": "t_uint256"
					},
					"t_string_storage": {
						"encoding": "bytes",
						"label": "string",
						"numberOfBytes": "32"
					},
					"t_struct(Item)24_storage": {
						"encoding": "inplace",
						"label": "struct GeekNft.Item",
						"members": [
							{
								"astId": 17,
								"contract": "contracts/GeekNft.sol:GeekNft",
								"label": "tokenId",
								"offset": 0,
								"slot": "0",
								"type": "t_uint256"
							},
							{
								"astId": 19,
								"contract": "contracts/GeekNft.sol:GeekNft",
								"label": "price",
								"offset": 0,
								"slot": "1",
								"type": "t_uint256"
							},
							{
								"astId": 21,
								"contract": "contracts/GeekNft.sol:GeekNft",
								"label": "catId",
								"offset": 0,
								"slot": "2",
								"type": "t_uint256"
							},
							{
								"astId": 23,
								"contract": "contracts/GeekNft.sol:GeekNft",
								"label": "toSell",
								"offset": 0,
								"slot": "3",
								"type": "t_bool"
							}
						],
						"numberOfBytes": "128"
					},
					"t_uint256": {
						"encoding": "inplace",
						"label": "uint256",
						"numberOfBytes": "32"
					}
				}
			},
			"userdoc": {
				"kind": "user",
				"methods": {},
				"version": 1
			}
		}
	}
}