{
	"contracts/GeekNft.sol": {
		"GeekNft": {
			"abi": [
				{
					"inputs": [],
					"stateMutability": "nonpayable",
					"type": "constructor"
				},
				{
					"anonymous": false,
					"inputs": [
						{
							"indexed": true,
							"internalType": "address",
							"name": "owner",
							"type": "address"
						},
						{
							"indexed": true,
							"internalType": "address",
							"name": "approved",
							"type": "address"
						},
						{
							"indexed": true,
							"internalType": "uint256",
							"name": "tokenId",
							"type": "uint256"
						}
					],
					"name": "Approval",
					"type": "event"
				},
				{
					"anonymous": false,
					"inputs": [
						{
							"indexed": true,
							"internalType": "address",
							"name": "owner",
							"type": "address"
						},
						{
							"indexed": true,
							"internalType": "address",
							"name": "operator",
							"type": "address"
						},
						{
							"indexed": false,
							"internalType": "bool",
							"name": "approved",
							"type": "bool"
						}
					],
					"name": "ApprovalForAll",
					"type": "event"
				},
				{
					"anonymous": false,
					"inputs": [
						{
							"indexed": true,
							"internalType": "address",
							"name": "from",
							"type": "address"
						},
						{
							"indexed": true,
							"internalType": "address",
							"name": "to",
							"type": "address"
						},
						{
							"indexed": true,
							"internalType": "uint256",
							"name": "tokenId",
							"type": "uint256"
						}
					],
					"name": "Transfer",
					"type": "event"
				},
				{
					"inputs": [
						{
							"internalType": "address",
							"name": "to",
							"type": "address"
						},
						{
							"internalType": "uint256",
							"name": "tokenId",
							"type": "uint256"
						}
					],
					"name": "approve",
					"outputs": [],
					"stateMutability": "nonpayable",
					"type": "function"
				},
				{
					"inputs": [
						{
							"internalType": "address",
							"name": "owner",
							"type": "address"
						}
					],
					"name": "balanceOf",
					"outputs": [
						{
							"internalType": "uint256",
							"name": "",
							"type": "uint256"
						}
					],
					"stateMutability": "view",
					"type": "function"
				},
				{
					"inputs": [
						{
							"internalType": "uint256",
							"name": "_price",
							"type": "uint256"
						},
						{
							"internalType": "uint256",
							"name": "_catId",
							"type": "uint256"
						}
					],
					"name": "createItem",
					"outputs": [
						{
							"internalType": "uint256",
							"name": "",
							"type": "uint256"
						}
					],
					"stateMutability": "nonpayable",
					"type": "function"
				},
				{
					"inputs": [
						{
							"internalType": "uint256",
							"name": "tokenId",
							"type": "uint256"
						}
					],
					"name": "getApproved",
					"outputs": [
						{
							"internalType": "address",
							"name": "",
							"type": "address"
						}
					],
					"stateMutability": "view",
					"type": "function"
				},
				{
					"inputs": [],
					"name": "getFeesPercentage",
					"outputs": [
						{
							"internalType": "uint256",
							"name": "",
							"type": "uint256"
						}
					],
					"stateMutability": "view",
					"type": "function"
				},
				{
					"inputs": [
						{
							"internalType": "address",
							"name": "owner",
							"type": "address"
						},
						{
							"internalType": "address",
							"name": "operator",
							"type": "address"
						}
					],
					"name": "isApprovedForAll",
					"outputs": [
						{
							"internalType": "bool",
							"name": "",
							"type": "bool"
						}
					],
					"stateMutability": "view",
					"type": "function"
				},
				{
					"inputs": [
						{
							"internalType": "uint256",
							"name": "",
							"type": "uint256"
						}
					],
					"name": "itemToOwner",
					"outputs": [
						{
							"internalType": "address",
							"name": "",
							"type": "address"
						}
					],
					"stateMutability": "view",
					"type": "function"
				},
				{
					"inputs": [
						{
							"internalType": "uint256",
							"name": "",
							"type": "uint256"
						}
					],
					"name": "items",
					"outputs": [
						{
							"internalType": "uint256",
							"name": "tokenId",
							"type": "uint256"
						},
						{
							"internalType": "uint256",
							"name": "price",
							"type": "uint256"
						},
						{
							"internalType": "uint256",
							"name": "catId",
							"type": "uint256"
						},
						{
							"internalType": "bool",
							"name": "toSell",
							"type": "bool"
						}
					],
					"stateMutability": "view",
					"type": "function"
				},
				{
					"inputs": [
						{
							"internalType": "uint256",
							"name": "",
							"type": "uint256"
						}
					],
					"name": "itemsCatIdCount",
					"outputs": [
						{
							"internalType": "uint256",
							"name": "",
							"type": "uint256"
						}
					],
					"stateMutability": "view",
					"type": "function"
				},
				{
					"inputs": [
						{
							"internalType": "address",
							"name": "",
							"type": "address"
						}
					],
					"name": "itemsOwnerCount",
					"outputs": [
						{
							"internalType": "uint256",
							"name": "",
							"type": "uint256"
						}
					],
					"stateMutability": "view",
					"type": "function"
				},
				{
					"inputs": [],
					"name": "itemsToSellCount",
					"outputs": [
						{
							"internalType": "uint256",
							"name": "",
							"type": "uint256"
						}
					],
					"stateMutability": "view",
					"type": "function"
				},
				{
					"inputs": [
						{
							"internalType": "uint256",
							"name": "_newPercentage",
							"type": "uint256"
						}
					],
					"name": "modifyFeesPercentage",
					"outputs": [],
					"stateMutability": "nonpayable",
					"type": "function"
				},
				{
					"inputs": [],
					"name": "name",
					"outputs": [
						{
							"internalType": "string",
							"name": "",
							"type": "string"
						}
					],
					"stateMutability": "view",
					"type": "function"
				},
				{
					"inputs": [
						{
							"internalType": "uint256",
							"name": "tokenId",
							"type": "uint256"
						}
					],
					"name": "ownerOf",
					"outputs": [
						{
							"internalType": "address",
							"name": "",
							"type": "address"
						}
					],
					"stateMutability": "view",
					"type": "function"
				},
				{
					"inputs": [
						{
							"internalType": "address",
							"name": "from",
							"type": "address"
						},
						{
							"internalType": "address",
							"name": "to",
							"type": "address"
						},
						{
							"internalType": "uint256",
							"name": "tokenId",
							"type": "uint256"
						}
					],
					"name": "safeTransferFrom",
					"outputs": [],
					"stateMutability": "nonpayable",
					"type": "function"
				},
				{
					"inputs": [
						{
							"internalType": "address",
							"name": "from",
							"type": "address"
						},
						{
							"internalType": "address",
							"name": "to",
							"type": "address"
						},
						{
							"internalType": "uint256",
							"name": "tokenId",
							"type": "uint256"
						},
						{
							"internalType": "bytes",
							"name": "data",
							"type": "bytes"
						}
					],
					"name": "safeTransferFrom",
					"outputs": [],
					"stateMutability": "nonpayable",
					"type": "function"
				},
				{
					"inputs": [
						{
							"internalType": "uint256",
							"name": "_tokenId",
							"type": "uint256"
						}
					],
					"name": "sellItem",
					"outputs": [],
					"stateMutability": "payable",
					"type": "function"
				},
				{
					"inputs": [
						{
							"internalType": "address",
							"name": "operator",
							"type": "address"
						},
						{
							"internalType": "bool",
							"name": "approved",
							"type": "bool"
						}
					],
					"name": "setApprovalForAll",
					"outputs": [],
					"stateMutability": "nonpayable",
					"type": "function"
				},
				{
					"inputs": [
						{
							"internalType": "bytes4",
							"name": "interfaceId",
							"type": "bytes4"
						}
					],
					"name": "supportsInterface",
					"outputs": [
						{
							"internalType": "bool",
							"name": "",
							"type": "bool"
						}
					],
					"stateMutability": "view",
					"type": "function"
				},
				{
					"inputs": [],
					"name": "symbol",
					"outputs": [
						{
							"internalType": "string",
							"name": "",
							"type": "string"
						}
					],
					"stateMutability": "view",
					"type": "function"
				},
				{
					"inputs": [
						{
							"internalType": "uint256",
							"name": "tokenId",
							"type": "uint256"
						}
					],
					"name": "tokenURI",
					"outputs": [
						{
							"internalType": "string",
							"name": "",
							"type": "string"
						}
					],
					"stateMutability": "view",
					"type": "function"
				},
				{
					"inputs": [
						{
							"internalType": "address",
							"name": "from",
							"type": "address"
						},
						{
							"internalType": "address",
							"name": "to",
							"type": "address"
						},
						{
							"internalType": "uint256",
							"name": "tokenId",
							"type": "uint256"
						}
					],
					"name": "transferFrom",
					"outputs": [],
					"stateMutability": "nonpayable",
					"type": "function"
				}
			],
			"devdoc": {
				"kind": "dev",
				"methods": {
					"approve(address,uint256)": {
						"details": "See {IERC721-approve}."
					},
					"balanceOf(address)": {
						"details": "See {IERC721-balanceOf}."
					},
					"getApproved(uint256)": {
						"details": "See {IERC721-getApproved}."
					},
					"isApprovedForAll(address,address)": {
						"details": "See {IERC721-isApprovedForAll}."
					},
					"name()": {
						"details": "See {IERC721Metadata-name}."
					},
					"ownerOf(uint256)": {
						"details": "See {IERC721-ownerOf}."
					},
					"safeTransferFrom(address,address,uint256)": {
						"details": "See {IERC721-safeTransferFrom}."
					},
					"safeTransferFrom(address,address,uint256,bytes)": {
						"details": "See {IERC721-safeTransferFrom}."
					},
					"setApprovalForAll(address,bool)": {
						"details": "See {IERC721-setApprovalForAll}."
					},
					"supportsInterface(bytes4)": {
						"details": "See {IERC165-supportsInterface}."
					},
					"symbol()": {
						"details": "See {IERC721Metadata-symbol}."
					},
					"tokenURI(uint256)": {
						"details": "See {IERC721Metadata-tokenURI}."
					},
					"transferFrom(address,address,uint256)": {
						"details": "See {IERC721-transferFrom}."
					}
				},
				"version": 1
			},
			"evm": {
				"assembly": "    /* \"contracts/GeekNft.sol\":115:2377  contract GeekNft is ERC721 {... */\n  mstore(0x40, 0x80)\n    /* \"contracts/GeekNft.sol\":510:590  constructor() ERC721(\"Geek Tokens\", \"GEEKT\") {... */\n  callvalue\n  dup1\n  iszero\n  tag_1\n  jumpi\n  0x00\n  dup1\n  revert\ntag_1:\n  pop\n    /* \"@openzeppelin/contracts/token/ERC721/ERC721.sol\":1390:1503  constructor(string memory name_, string memory symbol_) {... */\n  mload(0x40)\n  dup1\n  0x40\n  add\n  0x40\n  mstore\n  dup1\n  0x0b\n  dup2\n  mstore\n  0x20\n  add\n  0x4765656b20546f6b656e73000000000000000000000000000000000000000000\n  dup2\n  mstore\n  pop\n  mload(0x40)\n  dup1\n  0x40\n  add\n  0x40\n  mstore\n  dup1\n  0x05\n  dup2\n  mstore\n  0x20\n  add\n  0x4745454b54000000000000000000000000000000000000000000000000000000\n  dup2\n  mstore\n  pop\n    /* \"@openzeppelin/contracts/token/ERC721/ERC721.sol\":1464:1469  name_ */\n  dup2\n    /* \"@openzeppelin/contracts/token/ERC721/ERC721.sol\":1456:1461  _name */\n  0x00\n    /* \"@openzeppelin/contracts/token/ERC721/ERC721.sol\":1456:1469  _name = name_ */\n  swap1\n  dup1\n  mload\n  swap1\n  0x20\n  add\n  swap1\n  tag_5\n  swap3\n  swap2\n  swap1\n  tag_6\n  jump\t// in\ntag_5:\n  pop\n    /* \"@openzeppelin/contracts/token/ERC721/ERC721.sol\":1489:1496  symbol_ */\n  dup1\n    /* \"@openzeppelin/contracts/token/ERC721/ERC721.sol\":1479:1486  _symbol */\n  0x01\n    /* \"@openzeppelin/contracts/token/ERC721/ERC721.sol\":1479:1496  _symbol = symbol_ */\n  swap1\n  dup1\n  mload\n  swap1\n  0x20\n  add\n  swap1\n  tag_7\n  swap3\n  swap2\n  swap1\n  tag_6\n  jump\t// in\ntag_7:\n  pop\n    /* \"@openzeppelin/contracts/token/ERC721/ERC721.sol\":1390:1503  constructor(string memory name_, string memory symbol_) {... */\n  pop\n  pop\n    /* \"contracts/GeekNft.sol\":573:583  msg.sender */\n  caller\n    /* \"contracts/GeekNft.sol\":565:570  owner */\n  0x06\n  0x00\n    /* \"contracts/GeekNft.sol\":565:583  owner = msg.sender */\n  0x0100\n  exp\n  dup2\n  sload\n  dup2\n  0xffffffffffffffffffffffffffffffffffffffff\n  mul\n  not\n  and\n  swap1\n  dup4\n  0xffffffffffffffffffffffffffffffffffffffff\n  and\n  mul\n  or\n  swap1\n  sstore\n  pop\n    /* \"contracts/GeekNft.sol\":115:2377  contract GeekNft is ERC721 {... */\n  jump(tag_9)\ntag_6:\n  dup3\n  dup1\n  sload\n  tag_10\n  swap1\n  tag_11\n  jump\t// in\ntag_10:\n  swap1\n  0x00\n  mstore\n  keccak256(0x00, 0x20)\n  swap1\n  0x1f\n  add\n  0x20\n  swap1\n  div\n  dup2\n  add\n  swap3\n  dup3\n  tag_13\n  jumpi\n  0x00\n  dup6\n  sstore\n  jump(tag_12)\ntag_13:\n  dup3\n  0x1f\n  lt\n  tag_14\n  jumpi\n  dup1\n  mload\n  not(0xff)\n  and\n  dup4\n  dup1\n  add\n  or\n  dup6\n  sstore\n  jump(tag_12)\ntag_14:\n  dup3\n  dup1\n  add\n  0x01\n  add\n  dup6\n  sstore\n  dup3\n  iszero\n  tag_12\n  jumpi\n  swap2\n  dup3\n  add\ntag_15:\n  dup3\n  dup2\n  gt\n  iszero\n  tag_16\n  jumpi\n  dup3\n  mload\n  dup3\n  sstore\n  swap2\n  0x20\n  add\n  swap2\n  swap1\n  0x01\n  add\n  swap1\n  jump(tag_15)\ntag_16:\ntag_12:\n  pop\n  swap1\n  pop\n  tag_17\n  swap2\n  swap1\n  tag_18\n  jump\t// in\ntag_17:\n  pop\n  swap1\n  jump\t// out\ntag_18:\ntag_19:\n  dup1\n  dup3\n  gt\n  iszero\n  tag_20\n  jumpi\n  0x00\n  dup2\n  0x00\n  swap1\n  sstore\n  pop\n  0x01\n  add\n  jump(tag_19)\ntag_20:\n  pop\n  swap1\n  jump\t// out\n    /* \"#utility.yul\":7:327   */\ntag_11:\n  0x00\n    /* \"#utility.yul\":88:89   */\n  0x02\n    /* \"#utility.yul\":82:86   */\n  dup3\n    /* \"#utility.yul\":78:90   */\n  div\n    /* \"#utility.yul\":68:90   */\n  swap1\n  pop\n    /* \"#utility.yul\":135:136   */\n  0x01\n    /* \"#utility.yul\":129:133   */\n  dup3\n    /* \"#utility.yul\":125:137   */\n  and\n    /* \"#utility.yul\":156:174   */\n  dup1\n    /* \"#utility.yul\":146:148   */\n  tag_23\n  jumpi\n    /* \"#utility.yul\":212:216   */\n  0x7f\n    /* \"#utility.yul\":204:210   */\n  dup3\n    /* \"#utility.yul\":200:217   */\n  and\n    /* \"#utility.yul\":190:217   */\n  swap2\n  pop\n    /* \"#utility.yul\":146:148   */\ntag_23:\n    /* \"#utility.yul\":274:276   */\n  0x20\n    /* \"#utility.yul\":266:272   */\n  dup3\n    /* \"#utility.yul\":263:277   */\n  lt\n    /* \"#utility.yul\":243:261   */\n  dup2\n    /* \"#utility.yul\":240:278   */\n  eq\n    /* \"#utility.yul\":237:239   */\n  iszero\n  tag_24\n  jumpi\n    /* \"#utility.yul\":293:311   */\n  tag_25\n  tag_26\n  jump\t// in\ntag_25:\n    /* \"#utility.yul\":237:239   */\ntag_24:\n    /* \"#utility.yul\":58:327   */\n  pop\n  swap2\n  swap1\n  pop\n  jump\t// out\n    /* \"#utility.yul\":333:513   */\ntag_26:\n    /* \"#utility.yul\":381:458   */\n  0x4e487b7100000000000000000000000000000000000000000000000000000000\n    /* \"#utility.yul\":378:379   */\n  0x00\n    /* \"#utility.yul\":371:459   */\n  mstore\n    /* \"#utility.yul\":478:482   */\n  0x22\n    /* \"#utility.yul\":475:476   */\n  0x04\n    /* \"#utility.yul\":468:483   */\n  mstore\n    /* \"#utility.yul\":502:506   */\n  0x24\n    /* \"#utility.yul\":499:500   */\n  0x00\n    /* \"#utility.yul\":492:507   */\n  revert\n    /* \"contracts/GeekNft.sol\":115:2377  contract GeekNft is ERC721 {... */\ntag_9:\n  dataSize(sub_0)\n  dup1\n  dataOffset(sub_0)\n  0x00\n  codecopy\n  0x00\n  return\nstop\n\nsub_0: assembly {\n        /* \"contracts/GeekNft.sol\":115:2377  contract GeekNft is ERC721 {... */\n      mstore(0x40, 0x80)\n      jumpi(tag_1, lt(calldatasize, 0x04))\n      shr(0xe0, calldataload(0x00))\n      dup1\n      0x91b6be9a\n      gt\n      tag_24\n      jumpi\n      dup1\n      0xbfb231d2\n      gt\n      tag_25\n      jumpi\n      dup1\n      0xbfb231d2\n      eq\n      tag_18\n      jumpi\n      dup1\n      0xc3921895\n      eq\n      tag_19\n      jumpi\n      dup1\n      0xc87b56dd\n      eq\n      tag_20\n      jumpi\n      dup1\n      0xd48644bd\n      eq\n      tag_21\n      jumpi\n      dup1\n      0xe985e9c5\n      eq\n      tag_22\n      jumpi\n      dup1\n      0xea0ff14a\n      eq\n      tag_23\n      jumpi\n      jump(tag_1)\n    tag_25:\n      dup1\n      0x91b6be9a\n      eq\n      tag_13\n      jumpi\n      dup1\n      0x95d89b41\n      eq\n      tag_14\n      jumpi\n      dup1\n      0xa22cb465\n      eq\n      tag_15\n      jumpi\n      dup1\n      0xadae08dd\n      eq\n      tag_16\n      jumpi\n      dup1\n      0xb88d4fde\n      eq\n      tag_17\n      jumpi\n      jump(tag_1)\n    tag_24:\n      dup1\n      0x23b872dd\n      gt\n      tag_26\n      jumpi\n      dup1\n      0x23b872dd\n      eq\n      tag_7\n      jumpi\n      dup1\n      0x29de6246\n      eq\n      tag_8\n      jumpi\n      dup1\n      0x42842e0e\n      eq\n      tag_9\n      jumpi\n      dup1\n      0x4c389e65\n      eq\n      tag_10\n      jumpi\n      dup1\n      0x6352211e\n      eq\n      tag_11\n      jumpi\n      dup1\n      0x70a08231\n      eq\n      tag_12\n      jumpi\n      jump(tag_1)\n    tag_26:\n      dup1\n      0x01ffc9a7\n      eq\n      tag_2\n      jumpi\n      dup1\n      0x06fdde03\n      eq\n      tag_3\n      jumpi\n      dup1\n      0x081812fc\n      eq\n      tag_4\n      jumpi\n      dup1\n      0x095ea7b3\n      eq\n      tag_5\n      jumpi\n      dup1\n      0x1a4d96cd\n      eq\n      tag_6\n      jumpi\n    tag_1:\n      0x00\n      dup1\n      revert\n        /* \"@openzeppelin/contracts/token/ERC721/ERC721.sol\":1570:1870  function supportsInterface(bytes4 interfaceId) public view virtual override(ERC165, IERC165) returns (bool) {... */\n    tag_2:\n      callvalue\n      dup1\n      iszero\n      tag_27\n      jumpi\n      0x00\n      dup1\n      revert\n    tag_27:\n      pop\n      tag_28\n      0x04\n      dup1\n      calldatasize\n      sub\n      dup2\n      add\n      swap1\n      tag_29\n      swap2\n      swap1\n      tag_30\n      jump\t// in\n    tag_29:\n      tag_31\n      jump\t// in\n    tag_28:\n      mload(0x40)\n      tag_32\n      swap2\n      swap1\n      tag_33\n      jump\t// in\n    tag_32:\n      mload(0x40)\n      dup1\n      swap2\n      sub\n      swap1\n      return\n        /* \"@openzeppelin/contracts/token/ERC721/ERC721.sol\":2470:2568  function name() public view virtual override returns (string memory) {... */\n    tag_3:\n      callvalue\n      dup1\n      iszero\n      tag_34\n      jumpi\n      0x00\n      dup1\n      revert\n    tag_34:\n      pop\n      tag_35\n      tag_36\n      jump\t// in\n    tag_35:\n      mload(0x40)\n      tag_37\n      swap2\n      swap1\n      tag_38\n      jump\t// in\n    tag_37:\n      mload(0x40)\n      dup1\n      swap2\n      sub\n      swap1\n      return\n        /* \"@openzeppelin/contracts/token/ERC721/ERC721.sol\":3935:4102  function getApproved(uint256 tokenId) public view virtual override returns (address) {... */\n    tag_4:\n      callvalue\n      dup1\n      iszero\n      tag_39\n      jumpi\n      0x00\n      dup1\n      revert\n    tag_39:\n      pop\n      tag_40\n      0x04\n      dup1\n      calldatasize\n      sub\n      dup2\n      add\n      swap1\n      tag_41\n      swap2\n      swap1\n      tag_42\n      jump\t// in\n    tag_41:\n      tag_43\n      jump\t// in\n    tag_40:\n      mload(0x40)\n      tag_44\n      swap2\n      swap1\n      tag_45\n      jump\t// in\n    tag_44:\n      mload(0x40)\n      dup1\n      swap2\n      sub\n      swap1\n      return\n        /* \"@openzeppelin/contracts/token/ERC721/ERC721.sol\":3467:3874  function approve(address to, uint256 tokenId) public virtual override {... */\n    tag_5:\n      callvalue\n      dup1\n      iszero\n      tag_46\n      jumpi\n      0x00\n      dup1\n      revert\n    tag_46:\n      pop\n      tag_47\n      0x04\n      dup1\n      calldatasize\n      sub\n      dup2\n      add\n      swap1\n      tag_48\n      swap2\n      swap1\n      tag_49\n      jump\t// in\n    tag_48:\n      tag_50\n      jump\t// in\n    tag_47:\n      stop\n        /* \"contracts/GeekNft.sol\":357:400  mapping(uint => address) public itemToOwner */\n    tag_6:\n      callvalue\n      dup1\n      iszero\n      tag_51\n      jumpi\n      0x00\n      dup1\n      revert\n    tag_51:\n      pop\n      tag_52\n      0x04\n      dup1\n      calldatasize\n      sub\n      dup2\n      add\n      swap1\n      tag_53\n      swap2\n      swap1\n      tag_42\n      jump\t// in\n    tag_53:\n      tag_54\n      jump\t// in\n    tag_52:\n      mload(0x40)\n      tag_55\n      swap2\n      swap1\n      tag_45\n      jump\t// in\n    tag_55:\n      mload(0x40)\n      dup1\n      swap2\n      sub\n      swap1\n      return\n        /* \"@openzeppelin/contracts/token/ERC721/ERC721.sol\":4612:4939  function transferFrom(... */\n    tag_7:\n      callvalue\n      dup1\n      iszero\n      tag_56\n      jumpi\n      0x00\n      dup1\n      revert\n    tag_56:\n      pop\n      tag_57\n      0x04\n      dup1\n      calldatasize\n      sub\n      dup2\n      add\n      swap1\n      tag_58\n      swap2\n      swap1\n      tag_59\n      jump\t// in\n    tag_58:\n      tag_60\n      jump\t// in\n    tag_57:\n      stop\n        /* \"contracts/GeekNft.sol\":873:996  function modifyFeesPercentage(uint _newPercentage) public onlyContractOwner{... */\n    tag_8:\n      callvalue\n      dup1\n      iszero\n      tag_61\n      jumpi\n      0x00\n      dup1\n      revert\n    tag_61:\n      pop\n      tag_62\n      0x04\n      dup1\n      calldatasize\n      sub\n      dup2\n      add\n      swap1\n      tag_63\n      swap2\n      swap1\n      tag_42\n      jump\t// in\n    tag_63:\n      tag_64\n      jump\t// in\n    tag_62:\n      stop\n        /* \"@openzeppelin/contracts/token/ERC721/ERC721.sol\":5005:5184  function safeTransferFrom(... */\n    tag_9:\n      callvalue\n      dup1\n      iszero\n      tag_65\n      jumpi\n      0x00\n      dup1\n      revert\n    tag_65:\n      pop\n      tag_66\n      0x04\n      dup1\n      calldatasize\n      sub\n      dup2\n      add\n      swap1\n      tag_67\n      swap2\n      swap1\n      tag_59\n      jump\t// in\n    tag_67:\n      tag_68\n      jump\t// in\n    tag_66:\n      stop\n        /* \"contracts/GeekNft.sol\":298:326  uint public itemsToSellCount */\n    tag_10:\n      callvalue\n      dup1\n      iszero\n      tag_69\n      jumpi\n      0x00\n      dup1\n      revert\n    tag_69:\n      pop\n      tag_70\n      tag_71\n      jump\t// in\n    tag_70:\n      mload(0x40)\n      tag_72\n      swap2\n      swap1\n      tag_73\n      jump\t// in\n    tag_72:\n      mload(0x40)\n      dup1\n      swap2\n      sub\n      swap1\n      return\n        /* \"@openzeppelin/contracts/token/ERC721/ERC721.sol\":2190:2408  function ownerOf(uint256 tokenId) public view virtual override returns (address) {... */\n    tag_11:\n      callvalue\n      dup1\n      iszero\n      tag_74\n      jumpi\n      0x00\n      dup1\n      revert\n    tag_74:\n      pop\n      tag_75\n      0x04\n      dup1\n      calldatasize\n      sub\n      dup2\n      add\n      swap1\n      tag_76\n      swap2\n      swap1\n      tag_42\n      jump\t// in\n    tag_76:\n      tag_77\n      jump\t// in\n    tag_75:\n      mload(0x40)\n      tag_78\n      swap2\n      swap1\n      tag_45\n      jump\t// in\n    tag_78:\n      mload(0x40)\n      dup1\n      swap2\n      sub\n      swap1\n      return\n        /* \"@openzeppelin/contracts/token/ERC721/ERC721.sol\":1929:2133  function balanceOf(address owner) public view virtual override returns (uint256) {... */\n    tag_12:\n      callvalue\n      dup1\n      iszero\n      tag_79\n      jumpi\n      0x00\n      dup1\n      revert\n    tag_79:\n      pop\n      tag_80\n      0x04\n      dup1\n      calldatasize\n      sub\n      dup2\n      add\n      swap1\n      tag_81\n      swap2\n      swap1\n      tag_82\n      jump\t// in\n    tag_81:\n      tag_83\n      jump\t// in\n    tag_80:\n      mload(0x40)\n      tag_84\n      swap2\n      swap1\n      tag_73\n      jump\t// in\n    tag_84:\n      mload(0x40)\n      dup1\n      swap2\n      sub\n      swap1\n      return\n        /* \"contracts/GeekNft.sol\":1563:2146  function sellItem(uint _tokenId) public payable{... */\n    tag_13:\n      tag_85\n      0x04\n      dup1\n      calldatasize\n      sub\n      dup2\n      add\n      swap1\n      tag_86\n      swap2\n      swap1\n      tag_42\n      jump\t// in\n    tag_86:\n      tag_87\n      jump\t// in\n    tag_85:\n      stop\n        /* \"@openzeppelin/contracts/token/ERC721/ERC721.sol\":2632:2734  function symbol() public view virtual override returns (string memory) {... */\n    tag_14:\n      callvalue\n      dup1\n      iszero\n      tag_88\n      jumpi\n      0x00\n      dup1\n      revert\n    tag_88:\n      pop\n      tag_89\n      tag_90\n      jump\t// in\n    tag_89:\n      mload(0x40)\n      tag_91\n      swap2\n      swap1\n      tag_38\n      jump\t// in\n    tag_91:\n      mload(0x40)\n      dup1\n      swap2\n      sub\n      swap1\n      return\n        /* \"@openzeppelin/contracts/token/ERC721/ERC721.sol\":4169:4322  function setApprovalForAll(address operator, bool approved) public virtual override {... */\n    tag_15:\n      callvalue\n      dup1\n      iszero\n      tag_92\n      jumpi\n      0x00\n      dup1\n      revert\n    tag_92:\n      pop\n      tag_93\n      0x04\n      dup1\n      calldatasize\n      sub\n      dup2\n      add\n      swap1\n      tag_94\n      swap2\n      swap1\n      tag_95\n      jump\t// in\n    tag_94:\n      tag_96\n      jump\t// in\n    tag_93:\n      stop\n        /* \"contracts/GeekNft.sol\":1102:1557  function createItem(uint _price, uint _catId) public returns (uint){... */\n    tag_16:\n      callvalue\n      dup1\n      iszero\n      tag_97\n      jumpi\n      0x00\n      dup1\n      revert\n    tag_97:\n      pop\n      tag_98\n      0x04\n      dup1\n      calldatasize\n      sub\n      dup2\n      add\n      swap1\n      tag_99\n      swap2\n      swap1\n      tag_100\n      jump\t// in\n    tag_99:\n      tag_101\n      jump\t// in\n    tag_98:\n      mload(0x40)\n      tag_102\n      swap2\n      swap1\n      tag_73\n      jump\t// in\n    tag_102:\n      mload(0x40)\n      dup1\n      swap2\n      sub\n      swap1\n      return\n        /* \"@openzeppelin/contracts/token/ERC721/ERC721.sol\":5250:5565  function safeTransferFrom(... */\n    tag_17:\n      callvalue\n      dup1\n      iszero\n      tag_103\n      jumpi\n      0x00\n      dup1\n      revert\n    tag_103:\n      pop\n      tag_104\n      0x04\n      dup1\n      calldatasize\n      sub\n      dup2\n      add\n      swap1\n      tag_105\n      swap2\n      swap1\n      tag_106\n      jump\t// in\n    tag_105:\n      tag_107\n      jump\t// in\n    tag_104:\n      stop\n        /* \"contracts/GeekNft.sol\":273:292  Item[] public items */\n    tag_18:\n      callvalue\n      dup1\n      iszero\n      tag_108\n      jumpi\n      0x00\n      dup1\n      revert\n    tag_108:\n      pop\n      tag_109\n      0x04\n      dup1\n      calldatasize\n      sub\n      dup2\n      add\n      swap1\n      tag_110\n      swap2\n      swap1\n      tag_42\n      jump\t// in\n    tag_110:\n      tag_111\n      jump\t// in\n    tag_109:\n      mload(0x40)\n      tag_112\n      swap5\n      swap4\n      swap3\n      swap2\n      swap1\n      tag_113\n      jump\t// in\n    tag_112:\n      mload(0x40)\n      dup1\n      swap2\n      sub\n      swap1\n      return\n        /* \"contracts/GeekNft.sol\":406:453  mapping(address => uint) public itemsOwnerCount */\n    tag_19:\n      callvalue\n      dup1\n      iszero\n      tag_114\n      jumpi\n      0x00\n      dup1\n      revert\n    tag_114:\n      pop\n      tag_115\n      0x04\n      dup1\n      calldatasize\n      sub\n      dup2\n      add\n      swap1\n      tag_116\n      swap2\n      swap1\n      tag_82\n      jump\t// in\n    tag_116:\n      tag_117\n      jump\t// in\n    tag_115:\n      mload(0x40)\n      tag_118\n      swap2\n      swap1\n      tag_73\n      jump\t// in\n    tag_118:\n      mload(0x40)\n      dup1\n      swap2\n      sub\n      swap1\n      return\n        /* \"@openzeppelin/contracts/token/ERC721/ERC721.sol\":2800:3076  function tokenURI(uint256 tokenId) public view virtual override returns (string memory) {... */\n    tag_20:\n      callvalue\n      dup1\n      iszero\n      tag_119\n      jumpi\n      0x00\n      dup1\n      revert\n    tag_119:\n      pop\n      tag_120\n      0x04\n      dup1\n      calldatasize\n      sub\n      dup2\n      add\n      swap1\n      tag_121\n      swap2\n      swap1\n      tag_42\n      jump\t// in\n    tag_121:\n      tag_122\n      jump\t// in\n    tag_120:\n      mload(0x40)\n      tag_123\n      swap2\n      swap1\n      tag_38\n      jump\t// in\n    tag_123:\n      mload(0x40)\n      dup1\n      swap2\n      sub\n      swap1\n      return\n        /* \"contracts/GeekNft.sol\":459:503  mapping(uint => uint) public itemsCatIdCount */\n    tag_21:\n      callvalue\n      dup1\n      iszero\n      tag_124\n      jumpi\n      0x00\n      dup1\n      revert\n    tag_124:\n      pop\n      tag_125\n      0x04\n      dup1\n      calldatasize\n      sub\n      dup2\n      add\n      swap1\n      tag_126\n      swap2\n      swap1\n      tag_42\n      jump\t// in\n    tag_126:\n      tag_127\n      jump\t// in\n    tag_125:\n      mload(0x40)\n      tag_128\n      swap2\n      swap1\n      tag_73\n      jump\t// in\n    tag_128:\n      mload(0x40)\n      dup1\n      swap2\n      sub\n      swap1\n      return\n        /* \"@openzeppelin/contracts/token/ERC721/ERC721.sol\":4388:4550  function isApprovedForAll(address owner, address operator) public view virtual override returns (bool) {... */\n    tag_22:\n      callvalue\n      dup1\n      iszero\n      tag_129\n      jumpi\n      0x00\n      dup1\n      revert\n    tag_129:\n      pop\n      tag_130\n      0x04\n      dup1\n      calldatasize\n      sub\n      dup2\n      add\n      swap1\n      tag_131\n      swap2\n      swap1\n      tag_132\n      jump\t// in\n    tag_131:\n      tag_133\n      jump\t// in\n    tag_130:\n      mload(0x40)\n      tag_134\n      swap2\n      swap1\n      tag_33\n      jump\t// in\n    tag_134:\n      mload(0x40)\n      dup1\n      swap2\n      sub\n      swap1\n      return\n        /* \"contracts/GeekNft.sol\":1002:1096  function getFeesPercentage() public view returns (uint) {... */\n    tag_23:\n      callvalue\n      dup1\n      iszero\n      tag_135\n      jumpi\n      0x00\n      dup1\n      revert\n    tag_135:\n      pop\n      tag_136\n      tag_137\n      jump\t// in\n    tag_136:\n      mload(0x40)\n      tag_138\n      swap2\n      swap1\n      tag_73\n      jump\t// in\n    tag_138:\n      mload(0x40)\n      dup1\n      swap2\n      sub\n      swap1\n      return\n        /* \"@openzeppelin/contracts/token/ERC721/ERC721.sol\":1570:1870  function supportsInterface(bytes4 interfaceId) public view virtual override(ERC165, IERC165) returns (bool) {... */\n    tag_31:\n        /* \"@openzeppelin/contracts/token/ERC721/ERC721.sol\":1672:1676  bool */\n      0x00\n        /* \"@openzeppelin/contracts/token/ERC721/ERC721.sol\":1722:1747  type(IERC721).interfaceId */\n      0x80ac58cd00000000000000000000000000000000000000000000000000000000\n        /* \"@openzeppelin/contracts/token/ERC721/ERC721.sol\":1707:1747  interfaceId == type(IERC721).interfaceId */\n      not(0xffffffffffffffffffffffffffffffffffffffffffffffffffffffff)\n      and\n        /* \"@openzeppelin/contracts/token/ERC721/ERC721.sol\":1707:1718  interfaceId */\n      dup3\n        /* \"@openzeppelin/contracts/token/ERC721/ERC721.sol\":1707:1747  interfaceId == type(IERC721).interfaceId */\n      not(0xffffffffffffffffffffffffffffffffffffffffffffffffffffffff)\n      and\n      eq\n        /* \"@openzeppelin/contracts/token/ERC721/ERC721.sol\":1707:1811  interfaceId == type(IERC721).interfaceId ||... */\n      dup1\n      tag_140\n      jumpi\n      pop\n        /* \"@openzeppelin/contracts/token/ERC721/ERC721.sol\":1778:1811  type(IERC721Metadata).interfaceId */\n      0x5b5e139f00000000000000000000000000000000000000000000000000000000\n        /* \"@openzeppelin/contracts/token/ERC721/ERC721.sol\":1763:1811  interfaceId == type(IERC721Metadata).interfaceId */\n      not(0xffffffffffffffffffffffffffffffffffffffffffffffffffffffff)\n      and\n        /* \"@openzeppelin/contracts/token/ERC721/ERC721.sol\":1763:1774  interfaceId */\n      dup3\n        /* \"@openzeppelin/contracts/token/ERC721/ERC721.sol\":1763:1811  interfaceId == type(IERC721Metadata).interfaceId */\n      not(0xffffffffffffffffffffffffffffffffffffffffffffffffffffffff)\n      and\n      eq\n        /* \"@openzeppelin/contracts/token/ERC721/ERC721.sol\":1707:1811  interfaceId == type(IERC721).interfaceId ||... */\n    tag_140:\n        /* \"@openzeppelin/contracts/token/ERC721/ERC721.sol\":1707:1863  interfaceId == type(IERC721).interfaceId ||... */\n      dup1\n      tag_141\n      jumpi\n      pop\n        /* \"@openzeppelin/contracts/token/ERC721/ERC721.sol\":1827:1863  super.supportsInterface(interfaceId) */\n      tag_142\n        /* \"@openzeppelin/contracts/token/ERC721/ERC721.sol\":1851:1862  interfaceId */\n      dup3\n        /* \"@openzeppelin/contracts/token/ERC721/ERC721.sol\":1827:1850  super.supportsInterface */\n      tag_143\n        /* \"@openzeppelin/contracts/token/ERC721/ERC721.sol\":1827:1863  super.supportsInterface(interfaceId) */\n      jump\t// in\n    tag_142:\n        /* \"@openzeppelin/contracts/token/ERC721/ERC721.sol\":1707:1863  interfaceId == type(IERC721).interfaceId ||... */\n    tag_141:\n        /* \"@openzeppelin/contracts/token/ERC721/ERC721.sol\":1688:1863  return... */\n      swap1\n      pop\n        /* \"@openzeppelin/contracts/token/ERC721/ERC721.sol\":1570:1870  function supportsInterface(bytes4 interfaceId) public view virtual override(ERC165, IERC165) returns (bool) {... */\n      swap2\n      swap1\n      pop\n      jump\t// out\n        /* \"@openzeppelin/contracts/token/ERC721/ERC721.sol\":2470:2568  function name() public view virtual override returns (string memory) {... */\n    tag_36:\n        /* \"@openzeppelin/contracts/token/ERC721/ERC721.sol\":2524:2537  string memory */\n      0x60\n        /* \"@openzeppelin/contracts/token/ERC721/ERC721.sol\":2556:2561  _name */\n      0x00\n        /* \"@openzeppelin/contracts/token/ERC721/ERC721.sol\":2549:2561  return _name */\n      dup1\n      sload\n      tag_145\n      swap1\n      tag_146\n      jump\t// in\n    tag_145:\n      dup1\n      0x1f\n      add\n      0x20\n      dup1\n      swap2\n      div\n      mul\n      0x20\n      add\n      mload(0x40)\n      swap1\n      dup2\n      add\n      0x40\n      mstore\n      dup1\n      swap3\n      swap2\n      swap1\n      dup2\n      dup2\n      mstore\n      0x20\n      add\n      dup3\n      dup1\n      sload\n      tag_147\n      swap1\n      tag_146\n      jump\t// in\n    tag_147:\n      dup1\n      iszero\n      tag_148\n      jumpi\n      dup1\n      0x1f\n      lt\n      tag_149\n      jumpi\n      0x0100\n      dup1\n      dup4\n      sload\n      div\n      mul\n      dup4\n      mstore\n      swap2\n      0x20\n      add\n      swap2\n      jump(tag_148)\n    tag_149:\n      dup3\n      add\n      swap2\n      swap1\n      0x00\n      mstore\n      keccak256(0x00, 0x20)\n      swap1\n    tag_150:\n      dup2\n      sload\n      dup2\n      mstore\n      swap1\n      0x01\n      add\n      swap1\n      0x20\n      add\n      dup1\n      dup4\n      gt\n      tag_150\n      jumpi\n      dup3\n      swap1\n      sub\n      0x1f\n      and\n      dup3\n      add\n      swap2\n    tag_148:\n      pop\n      pop\n      pop\n      pop\n      pop\n      swap1\n      pop\n        /* \"@openzeppelin/contracts/token/ERC721/ERC721.sol\":2470:2568  function name() public view virtual override returns (string memory) {... */\n      swap1\n      jump\t// out\n        /* \"@openzeppelin/contracts/token/ERC721/ERC721.sol\":3935:4102  function getApproved(uint256 tokenId) public view virtual override returns (address) {... */\n    tag_43:\n        /* \"@openzeppelin/contracts/token/ERC721/ERC721.sol\":4011:4018  address */\n      0x00\n        /* \"@openzeppelin/contracts/token/ERC721/ERC721.sol\":4030:4053  _requireMinted(tokenId) */\n      tag_152\n        /* \"@openzeppelin/contracts/token/ERC721/ERC721.sol\":4045:4052  tokenId */\n      dup3\n        /* \"@openzeppelin/contracts/token/ERC721/ERC721.sol\":4030:4044  _requireMinted */\n      tag_153\n        /* \"@openzeppelin/contracts/token/ERC721/ERC721.sol\":4030:4053  _requireMinted(tokenId) */\n      jump\t// in\n    tag_152:\n        /* \"@openzeppelin/contracts/token/ERC721/ERC721.sol\":4071:4086  _tokenApprovals */\n      0x04\n        /* \"@openzeppelin/contracts/token/ERC721/ERC721.sol\":4071:4095  _tokenApprovals[tokenId] */\n      0x00\n        /* \"@openzeppelin/contracts/token/ERC721/ERC721.sol\":4087:4094  tokenId */\n      dup4\n        /* \"@openzeppelin/contracts/token/ERC721/ERC721.sol\":4071:4095  _tokenApprovals[tokenId] */\n      dup2\n      mstore\n      0x20\n      add\n      swap1\n      dup2\n      mstore\n      0x20\n      add\n      0x00\n      keccak256\n      0x00\n      swap1\n      sload\n      swap1\n      0x0100\n      exp\n      swap1\n      div\n      0xffffffffffffffffffffffffffffffffffffffff\n      and\n        /* \"@openzeppelin/contracts/token/ERC721/ERC721.sol\":4064:4095  return _tokenApprovals[tokenId] */\n      swap1\n      pop\n        /* \"@openzeppelin/contracts/token/ERC721/ERC721.sol\":3935:4102  function getApproved(uint256 tokenId) public view virtual override returns (address) {... */\n      swap2\n      swap1\n      pop\n      jump\t// out\n        /* \"@openzeppelin/contracts/token/ERC721/ERC721.sol\":3467:3874  function approve(address to, uint256 tokenId) public virtual override {... */\n    tag_50:\n        /* \"@openzeppelin/contracts/token/ERC721/ERC721.sol\":3547:3560  address owner */\n      0x00\n        /* \"@openzeppelin/contracts/token/ERC721/ERC721.sol\":3563:3586  ERC721.ownerOf(tokenId) */\n      tag_155\n        /* \"@openzeppelin/contracts/token/ERC721/ERC721.sol\":3578:3585  tokenId */\n      dup3\n        /* \"@openzeppelin/contracts/token/ERC721/ERC721.sol\":3563:3577  ERC721.ownerOf */\n      tag_77\n        /* \"@openzeppelin/contracts/token/ERC721/ERC721.sol\":3563:3586  ERC721.ownerOf(tokenId) */\n      jump\t// in\n    tag_155:\n        /* \"@openzeppelin/contracts/token/ERC721/ERC721.sol\":3547:3586  address owner = ERC721.ownerOf(tokenId) */\n      swap1\n      pop\n        /* \"@openzeppelin/contracts/token/ERC721/ERC721.sol\":3610:3615  owner */\n      dup1\n        /* \"@openzeppelin/contracts/token/ERC721/ERC721.sol\":3604:3615  to != owner */\n      0xffffffffffffffffffffffffffffffffffffffff\n      and\n        /* \"@openzeppelin/contracts/token/ERC721/ERC721.sol\":3604:3606  to */\n      dup4\n        /* \"@openzeppelin/contracts/token/ERC721/ERC721.sol\":3604:3615  to != owner */\n      0xffffffffffffffffffffffffffffffffffffffff\n      and\n      eq\n      iszero\n        /* \"@openzeppelin/contracts/token/ERC721/ERC721.sol\":3596:3653  require(to != owner, \"ERC721: approval to current owner\") */\n      tag_156\n      jumpi\n      mload(0x40)\n      0x08c379a000000000000000000000000000000000000000000000000000000000\n      dup2\n      mstore\n      0x04\n      add\n      tag_157\n      swap1\n      tag_158\n      jump\t// in\n    tag_157:\n      mload(0x40)\n      dup1\n      swap2\n      sub\n      swap1\n      revert\n    tag_156:\n        /* \"@openzeppelin/contracts/token/ERC721/ERC721.sol\":3701:3706  owner */\n      dup1\n        /* \"@openzeppelin/contracts/token/ERC721/ERC721.sol\":3685:3706  _msgSender() == owner */\n      0xffffffffffffffffffffffffffffffffffffffff\n      and\n        /* \"@openzeppelin/contracts/token/ERC721/ERC721.sol\":3685:3697  _msgSender() */\n      tag_159\n        /* \"@openzeppelin/contracts/token/ERC721/ERC721.sol\":3685:3695  _msgSender */\n      tag_160\n        /* \"@openzeppelin/contracts/token/ERC721/ERC721.sol\":3685:3697  _msgSender() */\n      jump\t// in\n    tag_159:\n        /* \"@openzeppelin/contracts/token/ERC721/ERC721.sol\":3685:3706  _msgSender() == owner */\n      0xffffffffffffffffffffffffffffffffffffffff\n      and\n      eq\n        /* \"@openzeppelin/contracts/token/ERC721/ERC721.sol\":3685:3747  _msgSender() == owner || isApprovedForAll(owner, _msgSender()) */\n      dup1\n      tag_161\n      jumpi\n      pop\n        /* \"@openzeppelin/contracts/token/ERC721/ERC721.sol\":3710:3747  isApprovedForAll(owner, _msgSender()) */\n      tag_162\n        /* \"@openzeppelin/contracts/token/ERC721/ERC721.sol\":3727:3732  owner */\n      dup2\n        /* \"@openzeppelin/contracts/token/ERC721/ERC721.sol\":3734:3746  _msgSender() */\n      tag_163\n        /* \"@openzeppelin/contracts/token/ERC721/ERC721.sol\":3734:3744  _msgSender */\n      tag_160\n        /* \"@openzeppelin/contracts/token/ERC721/ERC721.sol\":3734:3746  _msgSender() */\n      jump\t// in\n    tag_163:\n        /* \"@openzeppelin/contracts/token/ERC721/ERC721.sol\":3710:3726  isApprovedForAll */\n      tag_133\n        /* \"@openzeppelin/contracts/token/ERC721/ERC721.sol\":3710:3747  isApprovedForAll(owner, _msgSender()) */\n      jump\t// in\n    tag_162:\n        /* \"@openzeppelin/contracts/token/ERC721/ERC721.sol\":3685:3747  _msgSender() == owner || isApprovedForAll(owner, _msgSender()) */\n    tag_161:\n        /* \"@openzeppelin/contracts/token/ERC721/ERC721.sol\":3664:3835  require(... */\n      tag_164\n      jumpi\n      mload(0x40)\n      0x08c379a000000000000000000000000000000000000000000000000000000000\n      dup2\n      mstore\n      0x04\n      add\n      tag_165\n      swap1\n      tag_166\n      jump\t// in\n    tag_165:\n      mload(0x40)\n      dup1\n      swap2\n      sub\n      swap1\n      revert\n    tag_164:\n        /* \"@openzeppelin/contracts/token/ERC721/ERC721.sol\":3846:3867  _approve(to, tokenId) */\n      tag_167\n        /* \"@openzeppelin/contracts/token/ERC721/ERC721.sol\":3855:3857  to */\n      dup4\n        /* \"@openzeppelin/contracts/token/ERC721/ERC721.sol\":3859:3866  tokenId */\n      dup4\n        /* \"@openzeppelin/contracts/token/ERC721/ERC721.sol\":3846:3854  _approve */\n      tag_168\n        /* \"@openzeppelin/contracts/token/ERC721/ERC721.sol\":3846:3867  _approve(to, tokenId) */\n      jump\t// in\n    tag_167:\n        /* \"@openzeppelin/contracts/token/ERC721/ERC721.sol\":3467:3874  function approve(address to, uint256 tokenId) public virtual override {... */\n      pop\n      pop\n      pop\n      jump\t// out\n        /* \"contracts/GeekNft.sol\":357:400  mapping(uint => address) public itemToOwner */\n    tag_54:\n      mstore(0x20, 0x0a)\n      dup1\n      0x00\n      mstore\n      keccak256(0x00, 0x40)\n      0x00\n      swap2\n      pop\n      sload\n      swap1\n      0x0100\n      exp\n      swap1\n      div\n      0xffffffffffffffffffffffffffffffffffffffff\n      and\n      dup2\n      jump\t// out\n        /* \"@openzeppelin/contracts/token/ERC721/ERC721.sol\":4612:4939  function transferFrom(... */\n    tag_60:\n        /* \"@openzeppelin/contracts/token/ERC721/ERC721.sol\":4801:4842  _isApprovedOrOwner(_msgSender(), tokenId) */\n      tag_170\n        /* \"@openzeppelin/contracts/token/ERC721/ERC721.sol\":4820:4832  _msgSender() */\n      tag_171\n        /* \"@openzeppelin/contracts/token/ERC721/ERC721.sol\":4820:4830  _msgSender */\n      tag_160\n        /* \"@openzeppelin/contracts/token/ERC721/ERC721.sol\":4820:4832  _msgSender() */\n      jump\t// in\n    tag_171:\n        /* \"@openzeppelin/contracts/token/ERC721/ERC721.sol\":4834:4841  tokenId */\n      dup3\n        /* \"@openzeppelin/contracts/token/ERC721/ERC721.sol\":4801:4819  _isApprovedOrOwner */\n      tag_172\n        /* \"@openzeppelin/contracts/token/ERC721/ERC721.sol\":4801:4842  _isApprovedOrOwner(_msgSender(), tokenId) */\n      jump\t// in\n    tag_170:\n        /* \"@openzeppelin/contracts/token/ERC721/ERC721.sol\":4793:4893  require(_isApprovedOrOwner(_msgSender(), tokenId), \"ERC721: caller is not token owner nor approved\") */\n      tag_173\n      jumpi\n      mload(0x40)\n      0x08c379a000000000000000000000000000000000000000000000000000000000\n      dup2\n      mstore\n      0x04\n      add\n      tag_174\n      swap1\n      tag_175\n      jump\t// in\n    tag_174:\n      mload(0x40)\n      dup1\n      swap2\n      sub\n      swap1\n      revert\n    tag_173:\n        /* \"@openzeppelin/contracts/token/ERC721/ERC721.sol\":4904:4932  _transfer(from, to, tokenId) */\n      tag_176\n        /* \"@openzeppelin/contracts/token/ERC721/ERC721.sol\":4914:4918  from */\n      dup4\n        /* \"@openzeppelin/contracts/token/ERC721/ERC721.sol\":4920:4922  to */\n      dup4\n        /* \"@openzeppelin/contracts/token/ERC721/ERC721.sol\":4924:4931  tokenId */\n      dup4\n        /* \"@openzeppelin/contracts/token/ERC721/ERC721.sol\":4904:4913  _transfer */\n      tag_177\n        /* \"@openzeppelin/contracts/token/ERC721/ERC721.sol\":4904:4932  _transfer(from, to, tokenId) */\n      jump\t// in\n    tag_176:\n        /* \"@openzeppelin/contracts/token/ERC721/ERC721.sol\":4612:4939  function transferFrom(... */\n      pop\n      pop\n      pop\n      jump\t// out\n        /* \"contracts/GeekNft.sol\":873:996  function modifyFeesPercentage(uint _newPercentage) public onlyContractOwner{... */\n    tag_64:\n        /* \"contracts/GeekNft.sol\":657:662  owner */\n      0x06\n      0x00\n      swap1\n      sload\n      swap1\n      0x0100\n      exp\n      swap1\n      div\n      0xffffffffffffffffffffffffffffffffffffffff\n      and\n        /* \"contracts/GeekNft.sol\":643:662  msg.sender == owner */\n      0xffffffffffffffffffffffffffffffffffffffff\n      and\n        /* \"contracts/GeekNft.sol\":643:653  msg.sender */\n      caller\n        /* \"contracts/GeekNft.sol\":643:662  msg.sender == owner */\n      0xffffffffffffffffffffffffffffffffffffffff\n      and\n      eq\n        /* \"contracts/GeekNft.sol\":635:700  require(msg.sender == owner, \"Only contract's owner can do that\") */\n      tag_179\n      jumpi\n      mload(0x40)\n      0x08c379a000000000000000000000000000000000000000000000000000000000\n      dup2\n      mstore\n      0x04\n      add\n      tag_180\n      swap1\n      tag_181\n      jump\t// in\n    tag_180:\n      mload(0x40)\n      dup1\n      swap2\n      sub\n      swap1\n      revert\n    tag_179:\n        /* \"contracts/GeekNft.sol\":975:989  _newPercentage */\n      dup1\n        /* \"contracts/GeekNft.sol\":958:972  feesPercentage */\n      0x09\n        /* \"contracts/GeekNft.sol\":958:989  feesPercentage = _newPercentage */\n      dup2\n      swap1\n      sstore\n      pop\n        /* \"contracts/GeekNft.sol\":873:996  function modifyFeesPercentage(uint _newPercentage) public onlyContractOwner{... */\n      pop\n      jump\t// out\n        /* \"@openzeppelin/contracts/token/ERC721/ERC721.sol\":5005:5184  function safeTransferFrom(... */\n    tag_68:\n        /* \"@openzeppelin/contracts/token/ERC721/ERC721.sol\":5138:5177  safeTransferFrom(from, to, tokenId, \"\") */\n      tag_184\n        /* \"@openzeppelin/contracts/token/ERC721/ERC721.sol\":5155:5159  from */\n      dup4\n        /* \"@openzeppelin/contracts/token/ERC721/ERC721.sol\":5161:5163  to */\n      dup4\n        /* \"@openzeppelin/contracts/token/ERC721/ERC721.sol\":5165:5172  tokenId */\n      dup4\n        /* \"@openzeppelin/contracts/token/ERC721/ERC721.sol\":5138:5177  safeTransferFrom(from, to, tokenId, \"\") */\n      mload(0x40)\n      dup1\n      0x20\n      add\n      0x40\n      mstore\n      dup1\n      0x00\n      dup2\n      mstore\n      pop\n        /* \"@openzeppelin/contracts/token/ERC721/ERC721.sol\":5138:5154  safeTransferFrom */\n      tag_107\n        /* \"@openzeppelin/contracts/token/ERC721/ERC721.sol\":5138:5177  safeTransferFrom(from, to, tokenId, \"\") */\n      jump\t// in\n    tag_184:\n        /* \"@openzeppelin/contracts/token/ERC721/ERC721.sol\":5005:5184  function safeTransferFrom(... */\n      pop\n      pop\n      pop\n      jump\t// out\n        /* \"contracts/GeekNft.sol\":298:326  uint public itemsToSellCount */\n    tag_71:\n      sload(0x08)\n      dup2\n      jump\t// out\n        /* \"@openzeppelin/contracts/token/ERC721/ERC721.sol\":2190:2408  function ownerOf(uint256 tokenId) public view virtual override returns (address) {... */\n    tag_77:\n        /* \"@openzeppelin/contracts/token/ERC721/ERC721.sol\":2262:2269  address */\n      0x00\n        /* \"@openzeppelin/contracts/token/ERC721/ERC721.sol\":2281:2294  address owner */\n      dup1\n        /* \"@openzeppelin/contracts/token/ERC721/ERC721.sol\":2297:2304  _owners */\n      0x02\n        /* \"@openzeppelin/contracts/token/ERC721/ERC721.sol\":2297:2313  _owners[tokenId] */\n      0x00\n        /* \"@openzeppelin/contracts/token/ERC721/ERC721.sol\":2305:2312  tokenId */\n      dup5\n        /* \"@openzeppelin/contracts/token/ERC721/ERC721.sol\":2297:2313  _owners[tokenId] */\n      dup2\n      mstore\n      0x20\n      add\n      swap1\n      dup2\n      mstore\n      0x20\n      add\n      0x00\n      keccak256\n      0x00\n      swap1\n      sload\n      swap1\n      0x0100\n      exp\n      swap1\n      div\n      0xffffffffffffffffffffffffffffffffffffffff\n      and\n        /* \"@openzeppelin/contracts/token/ERC721/ERC721.sol\":2281:2313  address owner = _owners[tokenId] */\n      swap1\n      pop\n        /* \"@openzeppelin/contracts/token/ERC721/ERC721.sol\":2348:2349  0 */\n      0x00\n        /* \"@openzeppelin/contracts/token/ERC721/ERC721.sol\":2331:2350  owner != address(0) */\n      0xffffffffffffffffffffffffffffffffffffffff\n      and\n        /* \"@openzeppelin/contracts/token/ERC721/ERC721.sol\":2331:2336  owner */\n      dup2\n        /* \"@openzeppelin/contracts/token/ERC721/ERC721.sol\":2331:2350  owner != address(0) */\n      0xffffffffffffffffffffffffffffffffffffffff\n      and\n      eq\n      iszero\n        /* \"@openzeppelin/contracts/token/ERC721/ERC721.sol\":2323:2379  require(owner != address(0), \"ERC721: invalid token ID\") */\n      tag_186\n      jumpi\n      mload(0x40)\n      0x08c379a000000000000000000000000000000000000000000000000000000000\n      dup2\n      mstore\n      0x04\n      add\n      tag_187\n      swap1\n      tag_188\n      jump\t// in\n    tag_187:\n      mload(0x40)\n      dup1\n      swap2\n      sub\n      swap1\n      revert\n    tag_186:\n        /* \"@openzeppelin/contracts/token/ERC721/ERC721.sol\":2396:2401  owner */\n      dup1\n        /* \"@openzeppelin/contracts/token/ERC721/ERC721.sol\":2389:2401  return owner */\n      swap2\n      pop\n      pop\n        /* \"@openzeppelin/contracts/token/ERC721/ERC721.sol\":2190:2408  function ownerOf(uint256 tokenId) public view virtual override returns (address) {... */\n      swap2\n      swap1\n      pop\n      jump\t// out\n        /* \"@openzeppelin/contracts/token/ERC721/ERC721.sol\":1929:2133  function balanceOf(address owner) public view virtual override returns (uint256) {... */\n    tag_83:\n        /* \"@openzeppelin/contracts/token/ERC721/ERC721.sol\":2001:2008  uint256 */\n      0x00\n        /* \"@openzeppelin/contracts/token/ERC721/ERC721.sol\":2045:2046  0 */\n      dup1\n        /* \"@openzeppelin/contracts/token/ERC721/ERC721.sol\":2028:2047  owner != address(0) */\n      0xffffffffffffffffffffffffffffffffffffffff\n      and\n        /* \"@openzeppelin/contracts/token/ERC721/ERC721.sol\":2028:2033  owner */\n      dup3\n        /* \"@openzeppelin/contracts/token/ERC721/ERC721.sol\":2028:2047  owner != address(0) */\n      0xffffffffffffffffffffffffffffffffffffffff\n      and\n      eq\n      iszero\n        /* \"@openzeppelin/contracts/token/ERC721/ERC721.sol\":2020:2093  require(owner != address(0), \"ERC721: address zero is not a valid owner\") */\n      tag_190\n      jumpi\n      mload(0x40)\n      0x08c379a000000000000000000000000000000000000000000000000000000000\n      dup2\n      mstore\n      0x04\n      add\n      tag_191\n      swap1\n      tag_192\n      jump\t// in\n    tag_191:\n      mload(0x40)\n      dup1\n      swap2\n      sub\n      swap1\n      revert\n    tag_190:\n        /* \"@openzeppelin/contracts/token/ERC721/ERC721.sol\":2110:2119  _balances */\n      0x03\n        /* \"@openzeppelin/contracts/token/ERC721/ERC721.sol\":2110:2126  _balances[owner] */\n      0x00\n        /* \"@openzeppelin/contracts/token/ERC721/ERC721.sol\":2120:2125  owner */\n      dup4\n        /* \"@openzeppelin/contracts/token/ERC721/ERC721.sol\":2110:2126  _balances[owner] */\n      0xffffffffffffffffffffffffffffffffffffffff\n      and\n      0xffffffffffffffffffffffffffffffffffffffff\n      and\n      dup2\n      mstore\n      0x20\n      add\n      swap1\n      dup2\n      mstore\n      0x20\n      add\n      0x00\n      keccak256\n      sload\n        /* \"@openzeppelin/contracts/token/ERC721/ERC721.sol\":2103:2126  return _balances[owner] */\n      swap1\n      pop\n        /* \"@openzeppelin/contracts/token/ERC721/ERC721.sol\":1929:2133  function balanceOf(address owner) public view virtual override returns (uint256) {... */\n      swap2\n      swap1\n      pop\n      jump\t// out\n        /* \"contracts/GeekNft.sol\":1563:2146  function sellItem(uint _tokenId) public payable{... */\n    tag_87:\n        /* \"contracts/GeekNft.sol\":1641:1646  items */\n      0x07\n        /* \"contracts/GeekNft.sol\":1647:1655  _tokenId */\n      dup2\n        /* \"contracts/GeekNft.sol\":1641:1656  items[_tokenId] */\n      dup2\n      sload\n      dup2\n      lt\n      tag_194\n      jumpi\n      mstore(0x00, 0x4e487b7100000000000000000000000000000000000000000000000000000000)\n      mstore(0x04, 0x32)\n      revert(0x00, 0x24)\n    tag_194:\n      swap1\n      0x00\n      mstore\n      keccak256(0x00, 0x20)\n      swap1\n      0x04\n      mul\n      add\n        /* \"contracts/GeekNft.sol\":1641:1662  items[_tokenId].price */\n      0x01\n      add\n      sload\n        /* \"contracts/GeekNft.sol\":1628:1637  msg.value */\n      callvalue\n        /* \"contracts/GeekNft.sol\":1628:1662  msg.value == items[_tokenId].price */\n      eq\n        /* \"contracts/GeekNft.sol\":1620:1663  require(msg.value == items[_tokenId].price) */\n      tag_196\n      jumpi\n      0x00\n      dup1\n      revert\n    tag_196:\n        /* \"contracts/GeekNft.sol\":1673:1689  address oldOwner */\n      0x00\n        /* \"contracts/GeekNft.sol\":1692:1703  itemToOwner */\n      0x0a\n        /* \"contracts/GeekNft.sol\":1692:1713  itemToOwner[_tokenId] */\n      0x00\n        /* \"contracts/GeekNft.sol\":1704:1712  _tokenId */\n      dup4\n        /* \"contracts/GeekNft.sol\":1692:1713  itemToOwner[_tokenId] */\n      dup2\n      mstore\n      0x20\n      add\n      swap1\n      dup2\n      mstore\n      0x20\n      add\n      0x00\n      keccak256\n      0x00\n      swap1\n      sload\n      swap1\n      0x0100\n      exp\n      swap1\n      div\n      0xffffffffffffffffffffffffffffffffffffffff\n      and\n        /* \"contracts/GeekNft.sol\":1673:1713  address oldOwner = itemToOwner[_tokenId] */\n      swap1\n      pop\n        /* \"contracts/GeekNft.sol\":1732:1755  Item storage itemToSell */\n      0x00\n        /* \"contracts/GeekNft.sol\":1758:1763  items */\n      0x07\n        /* \"contracts/GeekNft.sol\":1764:1772  _tokenId */\n      dup4\n        /* \"contracts/GeekNft.sol\":1758:1773  items[_tokenId] */\n      dup2\n      sload\n      dup2\n      lt\n      tag_197\n      jumpi\n      mstore(0x00, 0x4e487b7100000000000000000000000000000000000000000000000000000000)\n      mstore(0x04, 0x32)\n      revert(0x00, 0x24)\n    tag_197:\n      swap1\n      0x00\n      mstore\n      keccak256(0x00, 0x20)\n      swap1\n      0x04\n      mul\n      add\n        /* \"contracts/GeekNft.sol\":1732:1773  Item storage itemToSell = items[_tokenId] */\n      swap1\n      pop\n        /* \"contracts/GeekNft.sol\":1803:1808  false */\n      0x00\n        /* \"contracts/GeekNft.sol\":1783:1793  itemToSell */\n      dup2\n        /* \"contracts/GeekNft.sol\":1783:1800  itemToSell.toSell */\n      0x03\n      add\n      0x00\n        /* \"contracts/GeekNft.sol\":1783:1808  itemToSell.toSell = false */\n      0x0100\n      exp\n      dup2\n      sload\n      dup2\n      0xff\n      mul\n      not\n      and\n      swap1\n      dup4\n      iszero\n      iszero\n      mul\n      or\n      swap1\n      sstore\n      pop\n        /* \"contracts/GeekNft.sol\":1843:1853  msg.sender */\n      caller\n        /* \"contracts/GeekNft.sol\":1819:1830  itemToOwner */\n      0x0a\n        /* \"contracts/GeekNft.sol\":1819:1840  itemToOwner[_tokenId] */\n      0x00\n        /* \"contracts/GeekNft.sol\":1831:1839  _tokenId */\n      dup6\n        /* \"contracts/GeekNft.sol\":1819:1840  itemToOwner[_tokenId] */\n      dup2\n      mstore\n      0x20\n      add\n      swap1\n      dup2\n      mstore\n      0x20\n      add\n      0x00\n      keccak256\n      0x00\n        /* \"contracts/GeekNft.sol\":1819:1853  itemToOwner[_tokenId] = msg.sender */\n      0x0100\n      exp\n      dup2\n      sload\n      dup2\n      0xffffffffffffffffffffffffffffffffffffffff\n      mul\n      not\n      and\n      swap1\n      dup4\n      0xffffffffffffffffffffffffffffffffffffffff\n      and\n      mul\n      or\n      swap1\n      sstore\n      pop\n        /* \"contracts/GeekNft.sol\":1864:1879  itemsOwnerCount */\n      0x0b\n        /* \"contracts/GeekNft.sol\":1864:1889  itemsOwnerCount[oldOwner] */\n      0x00\n        /* \"contracts/GeekNft.sol\":1880:1888  oldOwner */\n      dup4\n        /* \"contracts/GeekNft.sol\":1864:1889  itemsOwnerCount[oldOwner] */\n      0xffffffffffffffffffffffffffffffffffffffff\n      and\n      0xffffffffffffffffffffffffffffffffffffffff\n      and\n      dup2\n      mstore\n      0x20\n      add\n      swap1\n      dup2\n      mstore\n      0x20\n      add\n      0x00\n      keccak256\n      0x00\n        /* \"contracts/GeekNft.sol\":1864:1891  itemsOwnerCount[oldOwner]-- */\n      dup2\n      sload\n      dup1\n      swap3\n      swap2\n      swap1\n      tag_199\n      swap1\n      tag_200\n      jump\t// in\n    tag_199:\n      swap2\n      swap1\n      pop\n      sstore\n      pop\n        /* \"contracts/GeekNft.sol\":1901:1916  itemsOwnerCount */\n      0x0b\n        /* \"contracts/GeekNft.sol\":1901:1928  itemsOwnerCount[msg.sender] */\n      0x00\n        /* \"contracts/GeekNft.sol\":1917:1927  msg.sender */\n      caller\n        /* \"contracts/GeekNft.sol\":1901:1928  itemsOwnerCount[msg.sender] */\n      0xffffffffffffffffffffffffffffffffffffffff\n      and\n      0xffffffffffffffffffffffffffffffffffffffff\n      and\n      dup2\n      mstore\n      0x20\n      add\n      swap1\n      dup2\n      mstore\n      0x20\n      add\n      0x00\n      keccak256\n      0x00\n        /* \"contracts/GeekNft.sol\":1901:1930  itemsOwnerCount[msg.sender]++ */\n      dup2\n      sload\n      dup1\n      swap3\n      swap2\n      swap1\n      tag_201\n      swap1\n      tag_202\n      jump\t// in\n    tag_201:\n      swap2\n      swap1\n      pop\n      sstore\n      pop\n        /* \"contracts/GeekNft.sol\":1941:1950  uint fees */\n      0x00\n        /* \"contracts/GeekNft.sol\":1960:1979  uint totalMinusFees */\n      dup1\n        /* \"contracts/GeekNft.sol\":2014:2048  getFees(msg.value, feesPercentage) */\n      tag_203\n        /* \"contracts/GeekNft.sol\":2022:2031  msg.value */\n      callvalue\n        /* \"contracts/GeekNft.sol\":2033:2047  feesPercentage */\n      sload(0x09)\n        /* \"contracts/GeekNft.sol\":2014:2021  getFees */\n      tag_204\n        /* \"contracts/GeekNft.sol\":2014:2048  getFees(msg.value, feesPercentage) */\n      jump\t// in\n    tag_203:\n        /* \"contracts/GeekNft.sol\":1989:2048  (fees, totalMinusFees) = getFees(msg.value, feesPercentage) */\n      dup1\n      swap3\n      pop\n      dup2\n      swap4\n      pop\n      pop\n      pop\n        /* \"contracts/GeekNft.sol\":2066:2071  owner */\n      0x06\n      0x00\n      swap1\n      sload\n      swap1\n      0x0100\n      exp\n      swap1\n      div\n      0xffffffffffffffffffffffffffffffffffffffff\n      and\n        /* \"contracts/GeekNft.sol\":2058:2081  payable(owner).transfer */\n      0xffffffffffffffffffffffffffffffffffffffff\n      and\n        /* \"contracts/GeekNft.sol\":2058:2087  payable(owner).transfer(fees) */\n      0x08fc\n        /* \"contracts/GeekNft.sol\":2082:2086  fees */\n      dup4\n        /* \"contracts/GeekNft.sol\":2058:2087  payable(owner).transfer(fees) */\n      swap1\n      dup2\n      iszero\n      mul\n      swap1\n      mload(0x40)\n      0x00\n      mload(0x40)\n      dup1\n      dup4\n      sub\n      dup2\n      dup6\n      dup9\n      dup9\n      call\n      swap4\n      pop\n      pop\n      pop\n      pop\n      iszero\n      dup1\n      iszero\n      tag_206\n      jumpi\n      returndatasize\n      0x00\n      dup1\n      returndatacopy\n      revert(0x00, returndatasize)\n    tag_206:\n      pop\n        /* \"contracts/GeekNft.sol\":2105:2113  oldOwner */\n      dup4\n        /* \"contracts/GeekNft.sol\":2097:2123  payable(oldOwner).transfer */\n      0xffffffffffffffffffffffffffffffffffffffff\n      and\n        /* \"contracts/GeekNft.sol\":2097:2139  payable(oldOwner).transfer(totalMinusFees) */\n      0x08fc\n        /* \"contracts/GeekNft.sol\":2124:2138  totalMinusFees */\n      dup3\n        /* \"contracts/GeekNft.sol\":2097:2139  payable(oldOwner).transfer(totalMinusFees) */\n      swap1\n      dup2\n      iszero\n      mul\n      swap1\n      mload(0x40)\n      0x00\n      mload(0x40)\n      dup1\n      dup4\n      sub\n      dup2\n      dup6\n      dup9\n      dup9\n      call\n      swap4\n      pop\n      pop\n      pop\n      pop\n      iszero\n      dup1\n      iszero\n      tag_208\n      jumpi\n      returndatasize\n      0x00\n      dup1\n      returndatacopy\n      revert(0x00, returndatasize)\n    tag_208:\n      pop\n        /* \"contracts/GeekNft.sol\":1563:2146  function sellItem(uint _tokenId) public payable{... */\n      pop\n      pop\n      pop\n      pop\n      pop\n      jump\t// out\n        /* \"@openzeppelin/contracts/token/ERC721/ERC721.sol\":2632:2734  function symbol() public view virtual override returns (string memory) {... */\n    tag_90:\n        /* \"@openzeppelin/contracts/token/ERC721/ERC721.sol\":2688:2701  string memory */\n      0x60\n        /* \"@openzeppelin/contracts/token/ERC721/ERC721.sol\":2720:2727  _symbol */\n      0x01\n        /* \"@openzeppelin/contracts/token/ERC721/ERC721.sol\":2713:2727  return _symbol */\n      dup1\n      sload\n      tag_210\n      swap1\n      tag_146\n      jump\t// in\n    tag_210:\n      dup1\n      0x1f\n      add\n      0x20\n      dup1\n      swap2\n      div\n      mul\n      0x20\n      add\n      mload(0x40)\n      swap1\n      dup2\n      add\n      0x40\n      mstore\n      dup1\n      swap3\n      swap2\n      swap1\n      dup2\n      dup2\n      mstore\n      0x20\n      add\n      dup3\n      dup1\n      sload\n      tag_211\n      swap1\n      tag_146\n      jump\t// in\n    tag_211:\n      dup1\n      iszero\n      tag_212\n      jumpi\n      dup1\n      0x1f\n      lt\n      tag_213\n      jumpi\n      0x0100\n      dup1\n      dup4\n      sload\n      div\n      mul\n      dup4\n      mstore\n      swap2\n      0x20\n      add\n      swap2\n      jump(tag_212)\n    tag_213:\n      dup3\n      add\n      swap2\n      swap1\n      0x00\n      mstore\n      keccak256(0x00, 0x20)\n      swap1\n    tag_214:\n      dup2\n      sload\n      dup2\n      mstore\n      swap1\n      0x01\n      add\n      swap1\n      0x20\n      add\n      dup1\n      dup4\n      gt\n      tag_214\n      jumpi\n      dup3\n      swap1\n      sub\n      0x1f\n      and\n      dup3\n      add\n      swap2\n    tag_212:\n      pop\n      pop\n      pop\n      pop\n      pop\n      swap1\n      pop\n        /* \"@openzeppelin/contracts/token/ERC721/ERC721.sol\":2632:2734  function symbol() public view virtual override returns (string memory) {... */\n      swap1\n      jump\t// out\n        /* \"@openzeppelin/contracts/token/ERC721/ERC721.sol\":4169:4322  function setApprovalForAll(address operator, bool approved) public virtual override {... */\n    tag_96:\n        /* \"@openzeppelin/contracts/token/ERC721/ERC721.sol\":4263:4315  _setApprovalForAll(_msgSender(), operator, approved) */\n      tag_216\n        /* \"@openzeppelin/contracts/token/ERC721/ERC721.sol\":4282:4294  _msgSender() */\n      tag_217\n        /* \"@openzeppelin/contracts/token/ERC721/ERC721.sol\":4282:4292  _msgSender */\n      tag_160\n        /* \"@openzeppelin/contracts/token/ERC721/ERC721.sol\":4282:4294  _msgSender() */\n      jump\t// in\n    tag_217:\n        /* \"@openzeppelin/contracts/token/ERC721/ERC721.sol\":4296:4304  operator */\n      dup4\n        /* \"@openzeppelin/contracts/token/ERC721/ERC721.sol\":4306:4314  approved */\n      dup4\n        /* \"@openzeppelin/contracts/token/ERC721/ERC721.sol\":4263:4281  _setApprovalForAll */\n      tag_218\n        /* \"@openzeppelin/contracts/token/ERC721/ERC721.sol\":4263:4315  _setApprovalForAll(_msgSender(), operator, approved) */\n      jump\t// in\n    tag_216:\n        /* \"@openzeppelin/contracts/token/ERC721/ERC721.sol\":4169:4322  function setApprovalForAll(address operator, bool approved) public virtual override {... */\n      pop\n      pop\n      jump\t// out\n        /* \"contracts/GeekNft.sol\":1102:1557  function createItem(uint _price, uint _catId) public returns (uint){... */\n    tag_101:\n        /* \"contracts/GeekNft.sol\":1164:1168  uint */\n      0x00\n        /* \"contracts/GeekNft.sol\":1196:1197  0 */\n      dup1\n        /* \"contracts/GeekNft.sol\":1187:1193  _price */\n      dup4\n        /* \"contracts/GeekNft.sol\":1187:1197  _price > 0 */\n      gt\n        /* \"contracts/GeekNft.sol\":1179:1228  require(_price > 0, \"Price cannot be equal to 0\") */\n      tag_220\n      jumpi\n      mload(0x40)\n      0x08c379a000000000000000000000000000000000000000000000000000000000\n      dup2\n      mstore\n      0x04\n      add\n      tag_221\n      swap1\n      tag_222\n      jump\t// in\n    tag_221:\n      mload(0x40)\n      dup1\n      swap2\n      sub\n      swap1\n      revert\n    tag_220:\n        /* \"contracts/GeekNft.sol\":1238:1253  uint newTokenId */\n      0x00\n        /* \"contracts/GeekNft.sol\":1256:1261  items */\n      0x07\n        /* \"contracts/GeekNft.sol\":1256:1268  items.length */\n      dup1\n      sload\n      swap1\n      pop\n        /* \"contracts/GeekNft.sol\":1238:1268  uint newTokenId = items.length */\n      swap1\n      pop\n        /* \"contracts/GeekNft.sol\":1298:1336  Item(newTokenId, _price, _catId, true) */\n      mload(0x40)\n      dup1\n      0x80\n      add\n      0x40\n      mstore\n      dup1\n        /* \"contracts/GeekNft.sol\":1303:1313  newTokenId */\n      dup3\n        /* \"contracts/GeekNft.sol\":1298:1336  Item(newTokenId, _price, _catId, true) */\n      dup2\n      mstore\n      0x20\n      add\n        /* \"contracts/GeekNft.sol\":1315:1321  _price */\n      dup6\n        /* \"contracts/GeekNft.sol\":1298:1336  Item(newTokenId, _price, _catId, true) */\n      dup2\n      mstore\n      0x20\n      add\n        /* \"contracts/GeekNft.sol\":1323:1329  _catId */\n      dup5\n        /* \"contracts/GeekNft.sol\":1298:1336  Item(newTokenId, _price, _catId, true) */\n      dup2\n      mstore\n      0x20\n      add\n        /* \"contracts/GeekNft.sol\":1331:1335  true */\n      0x01\n        /* \"contracts/GeekNft.sol\":1298:1336  Item(newTokenId, _price, _catId, true) */\n      iszero\n      iszero\n      dup2\n      mstore\n      pop\n        /* \"contracts/GeekNft.sol\":1278:1283  items */\n      0x07\n        /* \"contracts/GeekNft.sol\":1284:1294  newTokenId */\n      dup3\n        /* \"contracts/GeekNft.sol\":1278:1295  items[newTokenId] */\n      dup2\n      sload\n      dup2\n      lt\n      tag_223\n      jumpi\n      mstore(0x00, 0x4e487b7100000000000000000000000000000000000000000000000000000000)\n      mstore(0x04, 0x32)\n      revert(0x00, 0x24)\n    tag_223:\n      swap1\n      0x00\n      mstore\n      keccak256(0x00, 0x20)\n      swap1\n      0x04\n      mul\n      add\n        /* \"contracts/GeekNft.sol\":1278:1336  items[newTokenId] = Item(newTokenId, _price, _catId, true) */\n      0x00\n      dup3\n      add\n      mload\n      dup2\n      0x00\n      add\n      sstore\n      0x20\n      dup3\n      add\n      mload\n      dup2\n      0x01\n      add\n      sstore\n      0x40\n      dup3\n      add\n      mload\n      dup2\n      0x02\n      add\n      sstore\n      0x60\n      dup3\n      add\n      mload\n      dup2\n      0x03\n      add\n      exp(0x0100, 0x00)\n      dup2\n      sload\n      dup2\n      0xff\n      mul\n      not\n      and\n      swap1\n      dup4\n      iszero\n      iszero\n      mul\n      or\n      swap1\n      sstore\n      pop\n      swap1\n      pop\n      pop\n        /* \"contracts/GeekNft.sol\":1346:1362  itemsToSellCount */\n      0x08\n      0x00\n        /* \"contracts/GeekNft.sol\":1346:1364  itemsToSellCount++ */\n      dup2\n      sload\n      dup1\n      swap3\n      swap2\n      swap1\n      tag_225\n      swap1\n      tag_202\n      jump\t// in\n    tag_225:\n      swap2\n      swap1\n      pop\n      sstore\n      pop\n        /* \"contracts/GeekNft.sol\":1400:1410  msg.sender */\n      caller\n        /* \"contracts/GeekNft.sol\":1374:1385  itemToOwner */\n      0x0a\n        /* \"contracts/GeekNft.sol\":1374:1397  itemToOwner[newTokenId] */\n      0x00\n        /* \"contracts/GeekNft.sol\":1386:1396  newTokenId */\n      dup4\n        /* \"contracts/GeekNft.sol\":1374:1397  itemToOwner[newTokenId] */\n      dup2\n      mstore\n      0x20\n      add\n      swap1\n      dup2\n      mstore\n      0x20\n      add\n      0x00\n      keccak256\n      0x00\n        /* \"contracts/GeekNft.sol\":1374:1410  itemToOwner[newTokenId] = msg.sender */\n      0x0100\n      exp\n      dup2\n      sload\n      dup2\n      0xffffffffffffffffffffffffffffffffffffffff\n      mul\n      not\n      and\n      swap1\n      dup4\n      0xffffffffffffffffffffffffffffffffffffffff\n      and\n      mul\n      or\n      swap1\n      sstore\n      pop\n        /* \"contracts/GeekNft.sol\":1444:1459  itemsOwnerCount */\n      0x0b\n        /* \"contracts/GeekNft.sol\":1444:1471  itemsOwnerCount[msg.sender] */\n      0x00\n        /* \"contracts/GeekNft.sol\":1460:1470  msg.sender */\n      caller\n        /* \"contracts/GeekNft.sol\":1444:1471  itemsOwnerCount[msg.sender] */\n      0xffffffffffffffffffffffffffffffffffffffff\n      and\n      0xffffffffffffffffffffffffffffffffffffffff\n      and\n      dup2\n      mstore\n      0x20\n      add\n      swap1\n      dup2\n      mstore\n      0x20\n      add\n      0x00\n      keccak256\n      0x00\n        /* \"contracts/GeekNft.sol\":1444:1473  itemsOwnerCount[msg.sender]++ */\n      dup2\n      sload\n      dup1\n      swap3\n      swap2\n      swap1\n      0x01\n      add\n      swap2\n      swap1\n      pop\n      sstore\n      pop\n        /* \"contracts/GeekNft.sol\":1487:1502  itemsCatIdCount */\n      0x0c\n        /* \"contracts/GeekNft.sol\":1487:1510  itemsCatIdCount[_catId] */\n      0x00\n        /* \"contracts/GeekNft.sol\":1503:1509  _catId */\n      dup5\n        /* \"contracts/GeekNft.sol\":1487:1510  itemsCatIdCount[_catId] */\n      dup2\n      mstore\n      0x20\n      add\n      swap1\n      dup2\n      mstore\n      0x20\n      add\n      0x00\n      keccak256\n      0x00\n        /* \"contracts/GeekNft.sol\":1487:1512  itemsCatIdCount[_catId]++ */\n      dup2\n      sload\n      dup1\n      swap3\n      swap2\n      swap1\n      0x01\n      add\n      swap2\n      swap1\n      pop\n      sstore\n      pop\n        /* \"contracts/GeekNft.sol\":1540:1550  newTokenId */\n      dup1\n        /* \"contracts/GeekNft.sol\":1533:1550  return newTokenId */\n      swap2\n      pop\n      pop\n        /* \"contracts/GeekNft.sol\":1102:1557  function createItem(uint _price, uint _catId) public returns (uint){... */\n      swap3\n      swap2\n      pop\n      pop\n      jump\t// out\n        /* \"@openzeppelin/contracts/token/ERC721/ERC721.sol\":5250:5565  function safeTransferFrom(... */\n    tag_107:\n        /* \"@openzeppelin/contracts/token/ERC721/ERC721.sol\":5418:5459  _isApprovedOrOwner(_msgSender(), tokenId) */\n      tag_227\n        /* \"@openzeppelin/contracts/token/ERC721/ERC721.sol\":5437:5449  _msgSender() */\n      tag_228\n        /* \"@openzeppelin/contracts/token/ERC721/ERC721.sol\":5437:5447  _msgSender */\n      tag_160\n        /* \"@openzeppelin/contracts/token/ERC721/ERC721.sol\":5437:5449  _msgSender() */\n      jump\t// in\n    tag_228:\n        /* \"@openzeppelin/contracts/token/ERC721/ERC721.sol\":5451:5458  tokenId */\n      dup4\n        /* \"@openzeppelin/contracts/token/ERC721/ERC721.sol\":5418:5436  _isApprovedOrOwner */\n      tag_172\n        /* \"@openzeppelin/contracts/token/ERC721/ERC721.sol\":5418:5459  _isApprovedOrOwner(_msgSender(), tokenId) */\n      jump\t// in\n    tag_227:\n        /* \"@openzeppelin/contracts/token/ERC721/ERC721.sol\":5410:5510  require(_isApprovedOrOwner(_msgSender(), tokenId), \"ERC721: caller is not token owner nor approved\") */\n      tag_229\n      jumpi\n      mload(0x40)\n      0x08c379a000000000000000000000000000000000000000000000000000000000\n      dup2\n      mstore\n      0x04\n      add\n      tag_230\n      swap1\n      tag_175\n      jump\t// in\n    tag_230:\n      mload(0x40)\n      dup1\n      swap2\n      sub\n      swap1\n      revert\n    tag_229:\n        /* \"@openzeppelin/contracts/token/ERC721/ERC721.sol\":5520:5558  _safeTransfer(from, to, tokenId, data) */\n      tag_231\n        /* \"@openzeppelin/contracts/token/ERC721/ERC721.sol\":5534:5538  from */\n      dup5\n        /* \"@openzeppelin/contracts/token/ERC721/ERC721.sol\":5540:5542  to */\n      dup5\n        /* \"@openzeppelin/contracts/token/ERC721/ERC721.sol\":5544:5551  tokenId */\n      dup5\n        /* \"@openzeppelin/contracts/token/ERC721/ERC721.sol\":5553:5557  data */\n      dup5\n        /* \"@openzeppelin/contracts/token/ERC721/ERC721.sol\":5520:5533  _safeTransfer */\n      tag_232\n        /* \"@openzeppelin/contracts/token/ERC721/ERC721.sol\":5520:5558  _safeTransfer(from, to, tokenId, data) */\n      jump\t// in\n    tag_231:\n        /* \"@openzeppelin/contracts/token/ERC721/ERC721.sol\":5250:5565  function safeTransferFrom(... */\n      pop\n      pop\n      pop\n      pop\n      jump\t// out\n        /* \"contracts/GeekNft.sol\":273:292  Item[] public items */\n    tag_111:\n      0x07\n      dup2\n      dup2\n      sload\n      dup2\n      lt\n      tag_233\n      jumpi\n      0x00\n      dup1\n      revert\n    tag_233:\n      swap1\n      0x00\n      mstore\n      keccak256(0x00, 0x20)\n      swap1\n      0x04\n      mul\n      add\n      0x00\n      swap2\n      pop\n      swap1\n      pop\n      dup1\n      0x00\n      add\n      sload\n      swap1\n      dup1\n      0x01\n      add\n      sload\n      swap1\n      dup1\n      0x02\n      add\n      sload\n      swap1\n      dup1\n      0x03\n      add\n      0x00\n      swap1\n      sload\n      swap1\n      0x0100\n      exp\n      swap1\n      div\n      0xff\n      and\n      swap1\n      pop\n      dup5\n      jump\t// out\n        /* \"contracts/GeekNft.sol\":406:453  mapping(address => uint) public itemsOwnerCount */\n    tag_117:\n      mstore(0x20, 0x0b)\n      dup1\n      0x00\n      mstore\n      keccak256(0x00, 0x40)\n      0x00\n      swap2\n      pop\n      swap1\n      pop\n      sload\n      dup2\n      jump\t// out\n        /* \"@openzeppelin/contracts/token/ERC721/ERC721.sol\":2800:3076  function tokenURI(uint256 tokenId) public view virtual override returns (string memory) {... */\n    tag_122:\n        /* \"@openzeppelin/contracts/token/ERC721/ERC721.sol\":2873:2886  string memory */\n      0x60\n        /* \"@openzeppelin/contracts/token/ERC721/ERC721.sol\":2898:2921  _requireMinted(tokenId) */\n      tag_236\n        /* \"@openzeppelin/contracts/token/ERC721/ERC721.sol\":2913:2920  tokenId */\n      dup3\n        /* \"@openzeppelin/contracts/token/ERC721/ERC721.sol\":2898:2912  _requireMinted */\n      tag_153\n        /* \"@openzeppelin/contracts/token/ERC721/ERC721.sol\":2898:2921  _requireMinted(tokenId) */\n      jump\t// in\n    tag_236:\n        /* \"@openzeppelin/contracts/token/ERC721/ERC721.sol\":2932:2953  string memory baseURI */\n      0x00\n        /* \"@openzeppelin/contracts/token/ERC721/ERC721.sol\":2956:2966  _baseURI() */\n      tag_237\n        /* \"@openzeppelin/contracts/token/ERC721/ERC721.sol\":2956:2964  _baseURI */\n      tag_238\n        /* \"@openzeppelin/contracts/token/ERC721/ERC721.sol\":2956:2966  _baseURI() */\n      jump\t// in\n    tag_237:\n        /* \"@openzeppelin/contracts/token/ERC721/ERC721.sol\":2932:2966  string memory baseURI = _baseURI() */\n      swap1\n      pop\n        /* \"@openzeppelin/contracts/token/ERC721/ERC721.sol\":3007:3008  0 */\n      0x00\n        /* \"@openzeppelin/contracts/token/ERC721/ERC721.sol\":2989:2996  baseURI */\n      dup2\n        /* \"@openzeppelin/contracts/token/ERC721/ERC721.sol\":2983:3004  bytes(baseURI).length */\n      mload\n        /* \"@openzeppelin/contracts/token/ERC721/ERC721.sol\":2983:3008  bytes(baseURI).length > 0 */\n      gt\n        /* \"@openzeppelin/contracts/token/ERC721/ERC721.sol\":2983:3069  bytes(baseURI).length > 0 ? string(abi.encodePacked(baseURI, tokenId.toString())) : \"\" */\n      tag_239\n      jumpi\n      mload(0x40)\n      dup1\n      0x20\n      add\n      0x40\n      mstore\n      dup1\n      0x00\n      dup2\n      mstore\n      pop\n      jump(tag_240)\n    tag_239:\n        /* \"@openzeppelin/contracts/token/ERC721/ERC721.sol\":3035:3042  baseURI */\n      dup1\n        /* \"@openzeppelin/contracts/token/ERC721/ERC721.sol\":3044:3062  tokenId.toString() */\n      tag_241\n        /* \"@openzeppelin/contracts/token/ERC721/ERC721.sol\":3044:3051  tokenId */\n      dup5\n        /* \"@openzeppelin/contracts/token/ERC721/ERC721.sol\":3044:3060  tokenId.toString */\n      tag_242\n        /* \"@openzeppelin/contracts/token/ERC721/ERC721.sol\":3044:3062  tokenId.toString() */\n      jump\t// in\n    tag_241:\n        /* \"@openzeppelin/contracts/token/ERC721/ERC721.sol\":3018:3063  abi.encodePacked(baseURI, tokenId.toString()) */\n      add(0x20, mload(0x40))\n      tag_243\n      swap3\n      swap2\n      swap1\n      tag_244\n      jump\t// in\n    tag_243:\n      mload(0x40)\n      0x20\n      dup2\n      dup4\n      sub\n      sub\n      dup2\n      mstore\n      swap1\n      0x40\n      mstore\n        /* \"@openzeppelin/contracts/token/ERC721/ERC721.sol\":2983:3069  bytes(baseURI).length > 0 ? string(abi.encodePacked(baseURI, tokenId.toString())) : \"\" */\n    tag_240:\n        /* \"@openzeppelin/contracts/token/ERC721/ERC721.sol\":2976:3069  return bytes(baseURI).length > 0 ? string(abi.encodePacked(baseURI, tokenId.toString())) : \"\" */\n      swap2\n      pop\n      pop\n        /* \"@openzeppelin/contracts/token/ERC721/ERC721.sol\":2800:3076  function tokenURI(uint256 tokenId) public view virtual override returns (string memory) {... */\n      swap2\n      swap1\n      pop\n      jump\t// out\n        /* \"contracts/GeekNft.sol\":459:503  mapping(uint => uint) public itemsCatIdCount */\n    tag_127:\n      mstore(0x20, 0x0c)\n      dup1\n      0x00\n      mstore\n      keccak256(0x00, 0x40)\n      0x00\n      swap2\n      pop\n      swap1\n      pop\n      sload\n      dup2\n      jump\t// out\n        /* \"@openzeppelin/contracts/token/ERC721/ERC721.sol\":4388:4550  function isApprovedForAll(address owner, address operator) public view virtual override returns (bool) {... */\n    tag_133:\n        /* \"@openzeppelin/contracts/token/ERC721/ERC721.sol\":4485:4489  bool */\n      0x00\n        /* \"@openzeppelin/contracts/token/ERC721/ERC721.sol\":4508:4526  _operatorApprovals */\n      0x05\n        /* \"@openzeppelin/contracts/token/ERC721/ERC721.sol\":4508:4533  _operatorApprovals[owner] */\n      0x00\n        /* \"@openzeppelin/contracts/token/ERC721/ERC721.sol\":4527:4532  owner */\n      dup5\n        /* \"@openzeppelin/contracts/token/ERC721/ERC721.sol\":4508:4533  _operatorApprovals[owner] */\n      0xffffffffffffffffffffffffffffffffffffffff\n      and\n      0xffffffffffffffffffffffffffffffffffffffff\n      and\n      dup2\n      mstore\n      0x20\n      add\n      swap1\n      dup2\n      mstore\n      0x20\n      add\n      0x00\n      keccak256\n        /* \"@openzeppelin/contracts/token/ERC721/ERC721.sol\":4508:4543  _operatorApprovals[owner][operator] */\n      0x00\n        /* \"@openzeppelin/contracts/token/ERC721/ERC721.sol\":4534:4542  operator */\n      dup4\n        /* \"@openzeppelin/contracts/token/ERC721/ERC721.sol\":4508:4543  _operatorApprovals[owner][operator] */\n      0xffffffffffffffffffffffffffffffffffffffff\n      and\n      0xffffffffffffffffffffffffffffffffffffffff\n      and\n      dup2\n      mstore\n      0x20\n      add\n      swap1\n      dup2\n      mstore\n      0x20\n      add\n      0x00\n      keccak256\n      0x00\n      swap1\n      sload\n      swap1\n      0x0100\n      exp\n      swap1\n      div\n      0xff\n      and\n        /* \"@openzeppelin/contracts/token/ERC721/ERC721.sol\":4501:4543  return _operatorApprovals[owner][operator] */\n      swap1\n      pop\n        /* \"@openzeppelin/contracts/token/ERC721/ERC721.sol\":4388:4550  function isApprovedForAll(address owner, address operator) public view virtual override returns (bool) {... */\n      swap3\n      swap2\n      pop\n      pop\n      jump\t// out\n        /* \"contracts/GeekNft.sol\":1002:1096  function getFeesPercentage() public view returns (uint) {... */\n    tag_137:\n        /* \"contracts/GeekNft.sol\":1052:1056  uint */\n      0x00\n        /* \"contracts/GeekNft.sol\":1075:1089  feesPercentage */\n      sload(0x09)\n        /* \"contracts/GeekNft.sol\":1068:1089  return feesPercentage */\n      swap1\n      pop\n        /* \"contracts/GeekNft.sol\":1002:1096  function getFeesPercentage() public view returns (uint) {... */\n      swap1\n      jump\t// out\n        /* \"@openzeppelin/contracts/utils/introspection/ERC165.sol\":829:984  function supportsInterface(bytes4 interfaceId) public view virtual override returns (bool) {... */\n    tag_143:\n        /* \"@openzeppelin/contracts/utils/introspection/ERC165.sol\":914:918  bool */\n      0x00\n        /* \"@openzeppelin/contracts/utils/introspection/ERC165.sol\":952:977  type(IERC165).interfaceId */\n      0x01ffc9a700000000000000000000000000000000000000000000000000000000\n        /* \"@openzeppelin/contracts/utils/introspection/ERC165.sol\":937:977  interfaceId == type(IERC165).interfaceId */\n      not(0xffffffffffffffffffffffffffffffffffffffffffffffffffffffff)\n      and\n        /* \"@openzeppelin/contracts/utils/introspection/ERC165.sol\":937:948  interfaceId */\n      dup3\n        /* \"@openzeppelin/contracts/utils/introspection/ERC165.sol\":937:977  interfaceId == type(IERC165).interfaceId */\n      not(0xffffffffffffffffffffffffffffffffffffffffffffffffffffffff)\n      and\n      eq\n        /* \"@openzeppelin/contracts/utils/introspection/ERC165.sol\":930:977  return interfaceId == type(IERC165).interfaceId */\n      swap1\n      pop\n        /* \"@openzeppelin/contracts/utils/introspection/ERC165.sol\":829:984  function supportsInterface(bytes4 interfaceId) public view virtual override returns (bool) {... */\n      swap2\n      swap1\n      pop\n      jump\t// out\n        /* \"@openzeppelin/contracts/token/ERC721/ERC721.sol\":11657:11790  function _requireMinted(uint256 tokenId) internal view virtual {... */\n    tag_153:\n        /* \"@openzeppelin/contracts/token/ERC721/ERC721.sol\":11738:11754  _exists(tokenId) */\n      tag_249\n        /* \"@openzeppelin/contracts/token/ERC721/ERC721.sol\":11746:11753  tokenId */\n      dup2\n        /* \"@openzeppelin/contracts/token/ERC721/ERC721.sol\":11738:11745  _exists */\n      tag_250\n        /* \"@openzeppelin/contracts/token/ERC721/ERC721.sol\":11738:11754  _exists(tokenId) */\n      jump\t// in\n    tag_249:\n        /* \"@openzeppelin/contracts/token/ERC721/ERC721.sol\":11730:11783  require(_exists(tokenId), \"ERC721: invalid token ID\") */\n      tag_251\n      jumpi\n      mload(0x40)\n      0x08c379a000000000000000000000000000000000000000000000000000000000\n      dup2\n      mstore\n      0x04\n      add\n      tag_252\n      swap1\n      tag_188\n      jump\t// in\n    tag_252:\n      mload(0x40)\n      dup1\n      swap2\n      sub\n      swap1\n      revert\n    tag_251:\n        /* \"@openzeppelin/contracts/token/ERC721/ERC721.sol\":11657:11790  function _requireMinted(uint256 tokenId) internal view virtual {... */\n      pop\n      jump\t// out\n        /* \"@openzeppelin/contracts/utils/Context.sol\":640:736  function _msgSender() internal view virtual returns (address) {... */\n    tag_160:\n        /* \"@openzeppelin/contracts/utils/Context.sol\":693:700  address */\n      0x00\n        /* \"@openzeppelin/contracts/utils/Context.sol\":719:729  msg.sender */\n      caller\n        /* \"@openzeppelin/contracts/utils/Context.sol\":712:729  return msg.sender */\n      swap1\n      pop\n        /* \"@openzeppelin/contracts/utils/Context.sol\":640:736  function _msgSender() internal view virtual returns (address) {... */\n      swap1\n      jump\t// out\n        /* \"@openzeppelin/contracts/token/ERC721/ERC721.sol\":10959:11130  function _approve(address to, uint256 tokenId) internal virtual {... */\n    tag_168:\n        /* \"@openzeppelin/contracts/token/ERC721/ERC721.sol\":11060:11062  to */\n      dup2\n        /* \"@openzeppelin/contracts/token/ERC721/ERC721.sol\":11033:11048  _tokenApprovals */\n      0x04\n        /* \"@openzeppelin/contracts/token/ERC721/ERC721.sol\":11033:11057  _tokenApprovals[tokenId] */\n      0x00\n        /* \"@openzeppelin/contracts/token/ERC721/ERC721.sol\":11049:11056  tokenId */\n      dup4\n        /* \"@openzeppelin/contracts/token/ERC721/ERC721.sol\":11033:11057  _tokenApprovals[tokenId] */\n      dup2\n      mstore\n      0x20\n      add\n      swap1\n      dup2\n      mstore\n      0x20\n      add\n      0x00\n      keccak256\n      0x00\n        /* \"@openzeppelin/contracts/token/ERC721/ERC721.sol\":11033:11062  _tokenApprovals[tokenId] = to */\n      0x0100\n      exp\n      dup2\n      sload\n      dup2\n      0xffffffffffffffffffffffffffffffffffffffff\n      mul\n      not\n      and\n      swap1\n      dup4\n      0xffffffffffffffffffffffffffffffffffffffff\n      and\n      mul\n      or\n      swap1\n      sstore\n      pop\n        /* \"@openzeppelin/contracts/token/ERC721/ERC721.sol\":11115:11122  tokenId */\n      dup1\n        /* \"@openzeppelin/contracts/token/ERC721/ERC721.sol\":11111:11113  to */\n      dup3\n        /* \"@openzeppelin/contracts/token/ERC721/ERC721.sol\":11077:11123  Approval(ERC721.ownerOf(tokenId), to, tokenId) */\n      0xffffffffffffffffffffffffffffffffffffffff\n      and\n        /* \"@openzeppelin/contracts/token/ERC721/ERC721.sol\":11086:11109  ERC721.ownerOf(tokenId) */\n      tag_255\n        /* \"@openzeppelin/contracts/token/ERC721/ERC721.sol\":11101:11108  tokenId */\n      dup4\n        /* \"@openzeppelin/contracts/token/ERC721/ERC721.sol\":11086:11100  ERC721.ownerOf */\n      tag_77\n        /* \"@openzeppelin/contracts/token/ERC721/ERC721.sol\":11086:11109  ERC721.ownerOf(tokenId) */\n      jump\t// in\n    tag_255:\n        /* \"@openzeppelin/contracts/token/ERC721/ERC721.sol\":11077:11123  Approval(ERC721.ownerOf(tokenId), to, tokenId) */\n      0xffffffffffffffffffffffffffffffffffffffff\n      and\n      0x8c5be1e5ebec7d5bd14f71427d1e84f3dd0314c0f7b2291e5b200ac8c7c3b925\n      mload(0x40)\n      mload(0x40)\n      dup1\n      swap2\n      sub\n      swap1\n      log4\n        /* \"@openzeppelin/contracts/token/ERC721/ERC721.sol\":10959:11130  function _approve(address to, uint256 tokenId) internal virtual {... */\n      pop\n      pop\n      jump\t// out\n        /* \"@openzeppelin/contracts/token/ERC721/ERC721.sol\":7317:7578  function _isApprovedOrOwner(address spender, uint256 tokenId) internal view virtual returns (bool) {... */\n    tag_172:\n        /* \"@openzeppelin/contracts/token/ERC721/ERC721.sol\":7410:7414  bool */\n      0x00\n        /* \"@openzeppelin/contracts/token/ERC721/ERC721.sol\":7426:7439  address owner */\n      dup1\n        /* \"@openzeppelin/contracts/token/ERC721/ERC721.sol\":7442:7465  ERC721.ownerOf(tokenId) */\n      tag_257\n        /* \"@openzeppelin/contracts/token/ERC721/ERC721.sol\":7457:7464  tokenId */\n      dup4\n        /* \"@openzeppelin/contracts/token/ERC721/ERC721.sol\":7442:7456  ERC721.ownerOf */\n      tag_77\n        /* \"@openzeppelin/contracts/token/ERC721/ERC721.sol\":7442:7465  ERC721.ownerOf(tokenId) */\n      jump\t// in\n    tag_257:\n        /* \"@openzeppelin/contracts/token/ERC721/ERC721.sol\":7426:7465  address owner = ERC721.ownerOf(tokenId) */\n      swap1\n      pop\n        /* \"@openzeppelin/contracts/token/ERC721/ERC721.sol\":7494:7499  owner */\n      dup1\n        /* \"@openzeppelin/contracts/token/ERC721/ERC721.sol\":7483:7499  spender == owner */\n      0xffffffffffffffffffffffffffffffffffffffff\n      and\n        /* \"@openzeppelin/contracts/token/ERC721/ERC721.sol\":7483:7490  spender */\n      dup5\n        /* \"@openzeppelin/contracts/token/ERC721/ERC721.sol\":7483:7499  spender == owner */\n      0xffffffffffffffffffffffffffffffffffffffff\n      and\n      eq\n        /* \"@openzeppelin/contracts/token/ERC721/ERC721.sol\":7483:7535  spender == owner || isApprovedForAll(owner, spender) */\n      dup1\n      tag_258\n      jumpi\n      pop\n        /* \"@openzeppelin/contracts/token/ERC721/ERC721.sol\":7503:7535  isApprovedForAll(owner, spender) */\n      tag_259\n        /* \"@openzeppelin/contracts/token/ERC721/ERC721.sol\":7520:7525  owner */\n      dup2\n        /* \"@openzeppelin/contracts/token/ERC721/ERC721.sol\":7527:7534  spender */\n      dup6\n        /* \"@openzeppelin/contracts/token/ERC721/ERC721.sol\":7503:7519  isApprovedForAll */\n      tag_133\n        /* \"@openzeppelin/contracts/token/ERC721/ERC721.sol\":7503:7535  isApprovedForAll(owner, spender) */\n      jump\t// in\n    tag_259:\n        /* \"@openzeppelin/contracts/token/ERC721/ERC721.sol\":7483:7535  spender == owner || isApprovedForAll(owner, spender) */\n    tag_258:\n        /* \"@openzeppelin/contracts/token/ERC721/ERC721.sol\":7483:7570  spender == owner || isApprovedForAll(owner, spender) || getApproved(tokenId) == spender */\n      dup1\n      tag_260\n      jumpi\n      pop\n        /* \"@openzeppelin/contracts/token/ERC721/ERC721.sol\":7563:7570  spender */\n      dup4\n        /* \"@openzeppelin/contracts/token/ERC721/ERC721.sol\":7539:7570  getApproved(tokenId) == spender */\n      0xffffffffffffffffffffffffffffffffffffffff\n      and\n        /* \"@openzeppelin/contracts/token/ERC721/ERC721.sol\":7539:7559  getApproved(tokenId) */\n      tag_261\n        /* \"@openzeppelin/contracts/token/ERC721/ERC721.sol\":7551:7558  tokenId */\n      dup5\n        /* \"@openzeppelin/contracts/token/ERC721/ERC721.sol\":7539:7550  getApproved */\n      tag_43\n        /* \"@openzeppelin/contracts/token/ERC721/ERC721.sol\":7539:7559  getApproved(tokenId) */\n      jump\t// in\n    tag_261:\n        /* \"@openzeppelin/contracts/token/ERC721/ERC721.sol\":7539:7570  getApproved(tokenId) == spender */\n      0xffffffffffffffffffffffffffffffffffffffff\n      and\n      eq\n        /* \"@openzeppelin/contracts/token/ERC721/ERC721.sol\":7483:7570  spender == owner || isApprovedForAll(owner, spender) || getApproved(tokenId) == spender */\n    tag_260:\n        /* \"@openzeppelin/contracts/token/ERC721/ERC721.sol\":7475:7571  return (spender == owner || isApprovedForAll(owner, spender) || getApproved(tokenId) == spender) */\n      swap2\n      pop\n      pop\n        /* \"@openzeppelin/contracts/token/ERC721/ERC721.sol\":7317:7578  function _isApprovedOrOwner(address spender, uint256 tokenId) internal view virtual returns (bool) {... */\n      swap3\n      swap2\n      pop\n      pop\n      jump\t// out\n        /* \"@openzeppelin/contracts/token/ERC721/ERC721.sol\":10242:10847  function _transfer(... */\n    tag_177:\n        /* \"@openzeppelin/contracts/token/ERC721/ERC721.sol\":10396:10400  from */\n      dup3\n        /* \"@openzeppelin/contracts/token/ERC721/ERC721.sol\":10369:10400  ERC721.ownerOf(tokenId) == from */\n      0xffffffffffffffffffffffffffffffffffffffff\n      and\n        /* \"@openzeppelin/contracts/token/ERC721/ERC721.sol\":10369:10392  ERC721.ownerOf(tokenId) */\n      tag_263\n        /* \"@openzeppelin/contracts/token/ERC721/ERC721.sol\":10384:10391  tokenId */\n      dup3\n        /* \"@openzeppelin/contracts/token/ERC721/ERC721.sol\":10369:10383  ERC721.ownerOf */\n      tag_77\n        /* \"@openzeppelin/contracts/token/ERC721/ERC721.sol\":10369:10392  ERC721.ownerOf(tokenId) */\n      jump\t// in\n    tag_263:\n        /* \"@openzeppelin/contracts/token/ERC721/ERC721.sol\":10369:10400  ERC721.ownerOf(tokenId) == from */\n      0xffffffffffffffffffffffffffffffffffffffff\n      and\n      eq\n        /* \"@openzeppelin/contracts/token/ERC721/ERC721.sol\":10361:10442  require(ERC721.ownerOf(tokenId) == from, \"ERC721: transfer from incorrect owner\") */\n      tag_264\n      jumpi\n      mload(0x40)\n      0x08c379a000000000000000000000000000000000000000000000000000000000\n      dup2\n      mstore\n      0x04\n      add\n      tag_265\n      swap1\n      tag_266\n      jump\t// in\n    tag_265:\n      mload(0x40)\n      dup1\n      swap2\n      sub\n      swap1\n      revert\n    tag_264:\n        /* \"@openzeppelin/contracts/token/ERC721/ERC721.sol\":10474:10475  0 */\n      0x00\n        /* \"@openzeppelin/contracts/token/ERC721/ERC721.sol\":10460:10476  to != address(0) */\n      0xffffffffffffffffffffffffffffffffffffffff\n      and\n        /* \"@openzeppelin/contracts/token/ERC721/ERC721.sol\":10460:10462  to */\n      dup3\n        /* \"@openzeppelin/contracts/token/ERC721/ERC721.sol\":10460:10476  to != address(0) */\n      0xffffffffffffffffffffffffffffffffffffffff\n      and\n      eq\n      iszero\n        /* \"@openzeppelin/contracts/token/ERC721/ERC721.sol\":10452:10517  require(to != address(0), \"ERC721: transfer to the zero address\") */\n      tag_267\n      jumpi\n      mload(0x40)\n      0x08c379a000000000000000000000000000000000000000000000000000000000\n      dup2\n      mstore\n      0x04\n      add\n      tag_268\n      swap1\n      tag_269\n      jump\t// in\n    tag_268:\n      mload(0x40)\n      dup1\n      swap2\n      sub\n      swap1\n      revert\n    tag_267:\n        /* \"@openzeppelin/contracts/token/ERC721/ERC721.sol\":10528:10567  _beforeTokenTransfer(from, to, tokenId) */\n      tag_270\n        /* \"@openzeppelin/contracts/token/ERC721/ERC721.sol\":10549:10553  from */\n      dup4\n        /* \"@openzeppelin/contracts/token/ERC721/ERC721.sol\":10555:10557  to */\n      dup4\n        /* \"@openzeppelin/contracts/token/ERC721/ERC721.sol\":10559:10566  tokenId */\n      dup4\n        /* \"@openzeppelin/contracts/token/ERC721/ERC721.sol\":10528:10548  _beforeTokenTransfer */\n      tag_271\n        /* \"@openzeppelin/contracts/token/ERC721/ERC721.sol\":10528:10567  _beforeTokenTransfer(from, to, tokenId) */\n      jump\t// in\n    tag_270:\n        /* \"@openzeppelin/contracts/token/ERC721/ERC721.sol\":10629:10658  _approve(address(0), tokenId) */\n      tag_272\n        /* \"@openzeppelin/contracts/token/ERC721/ERC721.sol\":10646:10647  0 */\n      0x00\n        /* \"@openzeppelin/contracts/token/ERC721/ERC721.sol\":10650:10657  tokenId */\n      dup3\n        /* \"@openzeppelin/contracts/token/ERC721/ERC721.sol\":10629:10637  _approve */\n      tag_168\n        /* \"@openzeppelin/contracts/token/ERC721/ERC721.sol\":10629:10658  _approve(address(0), tokenId) */\n      jump\t// in\n    tag_272:\n        /* \"@openzeppelin/contracts/token/ERC721/ERC721.sol\":10688:10689  1 */\n      0x01\n        /* \"@openzeppelin/contracts/token/ERC721/ERC721.sol\":10669:10678  _balances */\n      0x03\n        /* \"@openzeppelin/contracts/token/ERC721/ERC721.sol\":10669:10684  _balances[from] */\n      0x00\n        /* \"@openzeppelin/contracts/token/ERC721/ERC721.sol\":10679:10683  from */\n      dup6\n        /* \"@openzeppelin/contracts/token/ERC721/ERC721.sol\":10669:10684  _balances[from] */\n      0xffffffffffffffffffffffffffffffffffffffff\n      and\n      0xffffffffffffffffffffffffffffffffffffffff\n      and\n      dup2\n      mstore\n      0x20\n      add\n      swap1\n      dup2\n      mstore\n      0x20\n      add\n      0x00\n      keccak256\n      0x00\n        /* \"@openzeppelin/contracts/token/ERC721/ERC721.sol\":10669:10689  _balances[from] -= 1 */\n      dup3\n      dup3\n      sload\n      tag_273\n      swap2\n      swap1\n      tag_274\n      jump\t// in\n    tag_273:\n      swap3\n      pop\n      pop\n      dup2\n      swap1\n      sstore\n      pop\n        /* \"@openzeppelin/contracts/token/ERC721/ERC721.sol\":10716:10717  1 */\n      0x01\n        /* \"@openzeppelin/contracts/token/ERC721/ERC721.sol\":10699:10708  _balances */\n      0x03\n        /* \"@openzeppelin/contracts/token/ERC721/ERC721.sol\":10699:10712  _balances[to] */\n      0x00\n        /* \"@openzeppelin/contracts/token/ERC721/ERC721.sol\":10709:10711  to */\n      dup5\n        /* \"@openzeppelin/contracts/token/ERC721/ERC721.sol\":10699:10712  _balances[to] */\n      0xffffffffffffffffffffffffffffffffffffffff\n      and\n      0xffffffffffffffffffffffffffffffffffffffff\n      and\n      dup2\n      mstore\n      0x20\n      add\n      swap1\n      dup2\n      mstore\n      0x20\n      add\n      0x00\n      keccak256\n      0x00\n        /* \"@openzeppelin/contracts/token/ERC721/ERC721.sol\":10699:10717  _balances[to] += 1 */\n      dup3\n      dup3\n      sload\n      tag_275\n      swap2\n      swap1\n      tag_276\n      jump\t// in\n    tag_275:\n      swap3\n      pop\n      pop\n      dup2\n      swap1\n      sstore\n      pop\n        /* \"@openzeppelin/contracts/token/ERC721/ERC721.sol\":10746:10748  to */\n      dup2\n        /* \"@openzeppelin/contracts/token/ERC721/ERC721.sol\":10727:10734  _owners */\n      0x02\n        /* \"@openzeppelin/contracts/token/ERC721/ERC721.sol\":10727:10743  _owners[tokenId] */\n      0x00\n        /* \"@openzeppelin/contracts/token/ERC721/ERC721.sol\":10735:10742  tokenId */\n      dup4\n        /* \"@openzeppelin/contracts/token/ERC721/ERC721.sol\":10727:10743  _owners[tokenId] */\n      dup2\n      mstore\n      0x20\n      add\n      swap1\n      dup2\n      mstore\n      0x20\n      add\n      0x00\n      keccak256\n      0x00\n        /* \"@openzeppelin/contracts/token/ERC721/ERC721.sol\":10727:10748  _owners[tokenId] = to */\n      0x0100\n      exp\n      dup2\n      sload\n      dup2\n      0xffffffffffffffffffffffffffffffffffffffff\n      mul\n      not\n      and\n      swap1\n      dup4\n      0xffffffffffffffffffffffffffffffffffffffff\n      and\n      mul\n      or\n      swap1\n      sstore\n      pop\n        /* \"@openzeppelin/contracts/token/ERC721/ERC721.sol\":10783:10790  tokenId */\n      dup1\n        /* \"@openzeppelin/contracts/token/ERC721/ERC721.sol\":10779:10781  to */\n      dup3\n        /* \"@openzeppelin/contracts/token/ERC721/ERC721.sol\":10764:10791  Transfer(from, to, tokenId) */\n      0xffffffffffffffffffffffffffffffffffffffff\n      and\n        /* \"@openzeppelin/contracts/token/ERC721/ERC721.sol\":10773:10777  from */\n      dup5\n        /* \"@openzeppelin/contracts/token/ERC721/ERC721.sol\":10764:10791  Transfer(from, to, tokenId) */\n      0xffffffffffffffffffffffffffffffffffffffff\n      and\n      0xddf252ad1be2c89b69c2b068fc378daa952ba7f163c4a11628f55a4df523b3ef\n      mload(0x40)\n      mload(0x40)\n      dup1\n      swap2\n      sub\n      swap1\n      log4\n        /* \"@openzeppelin/contracts/token/ERC721/ERC721.sol\":10802:10840  _afterTokenTransfer(from, to, tokenId) */\n      tag_277\n        /* \"@openzeppelin/contracts/token/ERC721/ERC721.sol\":10822:10826  from */\n      dup4\n        /* \"@openzeppelin/contracts/token/ERC721/ERC721.sol\":10828:10830  to */\n      dup4\n        /* \"@openzeppelin/contracts/token/ERC721/ERC721.sol\":10832:10839  tokenId */\n      dup4\n        /* \"@openzeppelin/contracts/token/ERC721/ERC721.sol\":10802:10821  _afterTokenTransfer */\n      tag_278\n        /* \"@openzeppelin/contracts/token/ERC721/ERC721.sol\":10802:10840  _afterTokenTransfer(from, to, tokenId) */\n      jump\t// in\n    tag_277:\n        /* \"@openzeppelin/contracts/token/ERC721/ERC721.sol\":10242:10847  function _transfer(... */\n      pop\n      pop\n      pop\n      jump\t// out\n        /* \"contracts/GeekNft.sol\":2152:2374  function getFees(uint _price, uint _percentage) private pure returns (uint, uint){... */\n    tag_204:\n        /* \"contracts/GeekNft.sol\":2222:2226  uint */\n      0x00\n        /* \"contracts/GeekNft.sol\":2228:2232  uint */\n      dup1\n        /* \"contracts/GeekNft.sol\":2243:2252  uint fees */\n      0x00\n        /* \"contracts/GeekNft.sol\":2280:2283  100 */\n      0x64\n        /* \"contracts/GeekNft.sol\":2270:2276  _price */\n      dup6\n        /* \"contracts/GeekNft.sol\":2256:2267  _percentage */\n      dup6\n        /* \"contracts/GeekNft.sol\":2256:2276  _percentage * _price */\n      tag_280\n      swap2\n      swap1\n      tag_281\n      jump\t// in\n    tag_280:\n        /* \"contracts/GeekNft.sol\":2255:2283  (_percentage * _price) / 100 */\n      tag_282\n      swap2\n      swap1\n      tag_283\n      jump\t// in\n    tag_282:\n        /* \"contracts/GeekNft.sol\":2243:2283  uint fees = (_percentage * _price) / 100 */\n      swap1\n      pop\n        /* \"contracts/GeekNft.sol\":2293:2312  uint totalMinusFees */\n      0x00\n        /* \"contracts/GeekNft.sol\":2324:2328  fees */\n      dup2\n        /* \"contracts/GeekNft.sol\":2315:2321  _price */\n      dup7\n        /* \"contracts/GeekNft.sol\":2315:2328  _price - fees */\n      tag_284\n      swap2\n      swap1\n      tag_274\n      jump\t// in\n    tag_284:\n        /* \"contracts/GeekNft.sol\":2293:2328  uint totalMinusFees = _price - fees */\n      swap1\n      pop\n        /* \"contracts/GeekNft.sol\":2346:2350  fees */\n      dup2\n        /* \"contracts/GeekNft.sol\":2352:2366  totalMinusFees */\n      dup2\n        /* \"contracts/GeekNft.sol\":2338:2367  return (fees, totalMinusFees) */\n      swap4\n      pop\n      swap4\n      pop\n      pop\n      pop\n        /* \"contracts/GeekNft.sol\":2152:2374  function getFees(uint _price, uint _percentage) private pure returns (uint, uint){... */\n      swap3\n      pop\n      swap3\n      swap1\n      pop\n      jump\t// out\n        /* \"@openzeppelin/contracts/token/ERC721/ERC721.sol\":11266:11573  function _setApprovalForAll(... */\n    tag_218:\n        /* \"@openzeppelin/contracts/token/ERC721/ERC721.sol\":11416:11424  operator */\n      dup2\n        /* \"@openzeppelin/contracts/token/ERC721/ERC721.sol\":11407:11424  owner != operator */\n      0xffffffffffffffffffffffffffffffffffffffff\n      and\n        /* \"@openzeppelin/contracts/token/ERC721/ERC721.sol\":11407:11412  owner */\n      dup4\n        /* \"@openzeppelin/contracts/token/ERC721/ERC721.sol\":11407:11424  owner != operator */\n      0xffffffffffffffffffffffffffffffffffffffff\n      and\n      eq\n      iszero\n        /* \"@openzeppelin/contracts/token/ERC721/ERC721.sol\":11399:11454  require(owner != operator, \"ERC721: approve to caller\") */\n      tag_286\n      jumpi\n      mload(0x40)\n      0x08c379a000000000000000000000000000000000000000000000000000000000\n      dup2\n      mstore\n      0x04\n      add\n      tag_287\n      swap1\n      tag_288\n      jump\t// in\n    tag_287:\n      mload(0x40)\n      dup1\n      swap2\n      sub\n      swap1\n      revert\n    tag_286:\n        /* \"@openzeppelin/contracts/token/ERC721/ERC721.sol\":11502:11510  approved */\n      dup1\n        /* \"@openzeppelin/contracts/token/ERC721/ERC721.sol\":11464:11482  _operatorApprovals */\n      0x05\n        /* \"@openzeppelin/contracts/token/ERC721/ERC721.sol\":11464:11489  _operatorApprovals[owner] */\n      0x00\n        /* \"@openzeppelin/contracts/token/ERC721/ERC721.sol\":11483:11488  owner */\n      dup6\n        /* \"@openzeppelin/contracts/token/ERC721/ERC721.sol\":11464:11489  _operatorApprovals[owner] */\n      0xffffffffffffffffffffffffffffffffffffffff\n      and\n      0xffffffffffffffffffffffffffffffffffffffff\n      and\n      dup2\n      mstore\n      0x20\n      add\n      swap1\n      dup2\n      mstore\n      0x20\n      add\n      0x00\n      keccak256\n        /* \"@openzeppelin/contracts/token/ERC721/ERC721.sol\":11464:11499  _operatorApprovals[owner][operator] */\n      0x00\n        /* \"@openzeppelin/contracts/token/ERC721/ERC721.sol\":11490:11498  operator */\n      dup5\n        /* \"@openzeppelin/contracts/token/ERC721/ERC721.sol\":11464:11499  _operatorApprovals[owner][operator] */\n      0xffffffffffffffffffffffffffffffffffffffff\n      and\n      0xffffffffffffffffffffffffffffffffffffffff\n      and\n      dup2\n      mstore\n      0x20\n      add\n      swap1\n      dup2\n      mstore\n      0x20\n      add\n      0x00\n      keccak256\n      0x00\n        /* \"@openzeppelin/contracts/token/ERC721/ERC721.sol\":11464:11510  _operatorApprovals[owner][operator] = approved */\n      0x0100\n      exp\n      dup2\n      sload\n      dup2\n      0xff\n      mul\n      not\n      and\n      swap1\n      dup4\n      iszero\n      iszero\n      mul\n      or\n      swap1\n      sstore\n      pop\n        /* \"@openzeppelin/contracts/token/ERC721/ERC721.sol\":11547:11555  operator */\n      dup2\n        /* \"@openzeppelin/contracts/token/ERC721/ERC721.sol\":11525:11566  ApprovalForAll(owner, operator, approved) */\n      0xffffffffffffffffffffffffffffffffffffffff\n      and\n        /* \"@openzeppelin/contracts/token/ERC721/ERC721.sol\":11540:11545  owner */\n      dup4\n        /* \"@openzeppelin/contracts/token/ERC721/ERC721.sol\":11525:11566  ApprovalForAll(owner, operator, approved) */\n      0xffffffffffffffffffffffffffffffffffffffff\n      and\n      0x17307eab39ab6107e8899845ad3d59bd9653f200f220920489ca2b5937696c31\n        /* \"@openzeppelin/contracts/token/ERC721/ERC721.sol\":11557:11565  approved */\n      dup4\n        /* \"@openzeppelin/contracts/token/ERC721/ERC721.sol\":11525:11566  ApprovalForAll(owner, operator, approved) */\n      mload(0x40)\n      tag_289\n      swap2\n      swap1\n      tag_33\n      jump\t// in\n    tag_289:\n      mload(0x40)\n      dup1\n      swap2\n      sub\n      swap1\n      log3\n        /* \"@openzeppelin/contracts/token/ERC721/ERC721.sol\":11266:11573  function _setApprovalForAll(... */\n      pop\n      pop\n      pop\n      jump\t// out\n        /* \"@openzeppelin/contracts/token/ERC721/ERC721.sol\":6426:6731  function _safeTransfer(... */\n    tag_232:\n        /* \"@openzeppelin/contracts/token/ERC721/ERC721.sol\":6576:6604  _transfer(from, to, tokenId) */\n      tag_291\n        /* \"@openzeppelin/contracts/token/ERC721/ERC721.sol\":6586:6590  from */\n      dup5\n        /* \"@openzeppelin/contracts/token/ERC721/ERC721.sol\":6592:6594  to */\n      dup5\n        /* \"@openzeppelin/contracts/token/ERC721/ERC721.sol\":6596:6603  tokenId */\n      dup5\n        /* \"@openzeppelin/contracts/token/ERC721/ERC721.sol\":6576:6585  _transfer */\n      tag_177\n        /* \"@openzeppelin/contracts/token/ERC721/ERC721.sol\":6576:6604  _transfer(from, to, tokenId) */\n      jump\t// in\n    tag_291:\n        /* \"@openzeppelin/contracts/token/ERC721/ERC721.sol\":6622:6669  _checkOnERC721Received(from, to, tokenId, data) */\n      tag_292\n        /* \"@openzeppelin/contracts/token/ERC721/ERC721.sol\":6645:6649  from */\n      dup5\n        /* \"@openzeppelin/contracts/token/ERC721/ERC721.sol\":6651:6653  to */\n      dup5\n        /* \"@openzeppelin/contracts/token/ERC721/ERC721.sol\":6655:6662  tokenId */\n      dup5\n        /* \"@openzeppelin/contracts/token/ERC721/ERC721.sol\":6664:6668  data */\n      dup5\n        /* \"@openzeppelin/contracts/token/ERC721/ERC721.sol\":6622:6644  _checkOnERC721Received */\n      tag_293\n        /* \"@openzeppelin/contracts/token/ERC721/ERC721.sol\":6622:6669  _checkOnERC721Received(from, to, tokenId, data) */\n      jump\t// in\n    tag_292:\n        /* \"@openzeppelin/contracts/token/ERC721/ERC721.sol\":6614:6724  require(_checkOnERC721Received(from, to, tokenId, data), \"ERC721: transfer to non ERC721Receiver implementer\") */\n      tag_294\n      jumpi\n      mload(0x40)\n      0x08c379a000000000000000000000000000000000000000000000000000000000\n      dup2\n      mstore\n      0x04\n      add\n      tag_295\n      swap1\n      tag_296\n      jump\t// in\n    tag_295:\n      mload(0x40)\n      dup1\n      swap2\n      sub\n      swap1\n      revert\n    tag_294:\n        /* \"@openzeppelin/contracts/token/ERC721/ERC721.sol\":6426:6731  function _safeTransfer(... */\n      pop\n      pop\n      pop\n      pop\n      jump\t// out\n        /* \"@openzeppelin/contracts/token/ERC721/ERC721.sol\":3318:3410  function _baseURI() internal view virtual returns (string memory) {... */\n    tag_238:\n        /* \"@openzeppelin/contracts/token/ERC721/ERC721.sol\":3369:3382  string memory */\n      0x60\n        /* \"@openzeppelin/contracts/token/ERC721/ERC721.sol\":3394:3403  return \"\" */\n      mload(0x40)\n      dup1\n      0x20\n      add\n      0x40\n      mstore\n      dup1\n      0x00\n      dup2\n      mstore\n      pop\n      swap1\n      pop\n        /* \"@openzeppelin/contracts/token/ERC721/ERC721.sol\":3318:3410  function _baseURI() internal view virtual returns (string memory) {... */\n      swap1\n      jump\t// out\n        /* \"@openzeppelin/contracts/utils/Strings.sol\":392:1095  function toString(uint256 value) internal pure returns (string memory) {... */\n    tag_242:\n        /* \"@openzeppelin/contracts/utils/Strings.sol\":448:461  string memory */\n      0x60\n        /* \"@openzeppelin/contracts/utils/Strings.sol\":674:675  0 */\n      0x00\n        /* \"@openzeppelin/contracts/utils/Strings.sol\":665:670  value */\n      dup3\n        /* \"@openzeppelin/contracts/utils/Strings.sol\":665:675  value == 0 */\n      eq\n        /* \"@openzeppelin/contracts/utils/Strings.sol\":661:712  if (value == 0) {... */\n      iszero\n      tag_299\n      jumpi\n        /* \"@openzeppelin/contracts/utils/Strings.sol\":691:701  return \"0\" */\n      mload(0x40)\n      dup1\n      0x40\n      add\n      0x40\n      mstore\n      dup1\n      0x01\n      dup2\n      mstore\n      0x20\n      add\n      0x3000000000000000000000000000000000000000000000000000000000000000\n      dup2\n      mstore\n      pop\n      swap1\n      pop\n      jump(tag_298)\n        /* \"@openzeppelin/contracts/utils/Strings.sol\":661:712  if (value == 0) {... */\n    tag_299:\n        /* \"@openzeppelin/contracts/utils/Strings.sol\":721:733  uint256 temp */\n      0x00\n        /* \"@openzeppelin/contracts/utils/Strings.sol\":736:741  value */\n      dup3\n        /* \"@openzeppelin/contracts/utils/Strings.sol\":721:741  uint256 temp = value */\n      swap1\n      pop\n        /* \"@openzeppelin/contracts/utils/Strings.sol\":751:765  uint256 digits */\n      0x00\n        /* \"@openzeppelin/contracts/utils/Strings.sol\":775:850  while (temp != 0) {... */\n    tag_300:\n        /* \"@openzeppelin/contracts/utils/Strings.sol\":790:791  0 */\n      0x00\n        /* \"@openzeppelin/contracts/utils/Strings.sol\":782:786  temp */\n      dup3\n        /* \"@openzeppelin/contracts/utils/Strings.sol\":782:791  temp != 0 */\n      eq\n        /* \"@openzeppelin/contracts/utils/Strings.sol\":775:850  while (temp != 0) {... */\n      tag_301\n      jumpi\n        /* \"@openzeppelin/contracts/utils/Strings.sol\":807:815  digits++ */\n      dup1\n      dup1\n      tag_302\n      swap1\n      tag_202\n      jump\t// in\n    tag_302:\n      swap2\n      pop\n      pop\n        /* \"@openzeppelin/contracts/utils/Strings.sol\":837:839  10 */\n      0x0a\n        /* \"@openzeppelin/contracts/utils/Strings.sol\":829:839  temp /= 10 */\n      dup3\n      tag_303\n      swap2\n      swap1\n      tag_283\n      jump\t// in\n    tag_303:\n      swap2\n      pop\n        /* \"@openzeppelin/contracts/utils/Strings.sol\":775:850  while (temp != 0) {... */\n      jump(tag_300)\n    tag_301:\n        /* \"@openzeppelin/contracts/utils/Strings.sol\":859:878  bytes memory buffer */\n      0x00\n        /* \"@openzeppelin/contracts/utils/Strings.sol\":891:897  digits */\n      dup2\n        /* \"@openzeppelin/contracts/utils/Strings.sol\":881:898  new bytes(digits) */\n      0xffffffffffffffff\n      dup2\n      gt\n      iszero\n      tag_304\n      jumpi\n      mstore(0x00, 0x4e487b7100000000000000000000000000000000000000000000000000000000)\n      mstore(0x04, 0x41)\n      revert(0x00, 0x24)\n    tag_304:\n      mload(0x40)\n      swap1\n      dup1\n      dup3\n      mstore\n      dup1\n      0x1f\n      add\n      not(0x1f)\n      and\n      0x20\n      add\n      dup3\n      add\n      0x40\n      mstore\n      dup1\n      iszero\n      tag_305\n      jumpi\n      dup2\n      0x20\n      add\n      0x01\n      dup3\n      mul\n      dup1\n      calldatasize\n      dup4\n      calldatacopy\n      dup1\n      dup3\n      add\n      swap2\n      pop\n      pop\n      swap1\n      pop\n    tag_305:\n      pop\n        /* \"@openzeppelin/contracts/utils/Strings.sol\":859:898  bytes memory buffer = new bytes(digits) */\n      swap1\n      pop\n        /* \"@openzeppelin/contracts/utils/Strings.sol\":908:1058  while (value != 0) {... */\n    tag_306:\n        /* \"@openzeppelin/contracts/utils/Strings.sol\":924:925  0 */\n      0x00\n        /* \"@openzeppelin/contracts/utils/Strings.sol\":915:920  value */\n      dup6\n        /* \"@openzeppelin/contracts/utils/Strings.sol\":915:925  value != 0 */\n      eq\n        /* \"@openzeppelin/contracts/utils/Strings.sol\":908:1058  while (value != 0) {... */\n      tag_307\n      jumpi\n        /* \"@openzeppelin/contracts/utils/Strings.sol\":951:952  1 */\n      0x01\n        /* \"@openzeppelin/contracts/utils/Strings.sol\":941:952  digits -= 1 */\n      dup3\n      tag_308\n      swap2\n      swap1\n      tag_274\n      jump\t// in\n    tag_308:\n      swap2\n      pop\n        /* \"@openzeppelin/contracts/utils/Strings.sol\":1017:1019  10 */\n      0x0a\n        /* \"@openzeppelin/contracts/utils/Strings.sol\":1009:1014  value */\n      dup6\n        /* \"@openzeppelin/contracts/utils/Strings.sol\":1009:1019  value % 10 */\n      tag_309\n      swap2\n      swap1\n      tag_310\n      jump\t// in\n    tag_309:\n        /* \"@openzeppelin/contracts/utils/Strings.sol\":996:998  48 */\n      0x30\n        /* \"@openzeppelin/contracts/utils/Strings.sol\":996:1020  48 + uint256(value % 10) */\n      tag_311\n      swap2\n      swap1\n      tag_276\n      jump\t// in\n    tag_311:\n        /* \"@openzeppelin/contracts/utils/Strings.sol\":983:1022  bytes1(uint8(48 + uint256(value % 10))) */\n      0xf8\n      shl\n        /* \"@openzeppelin/contracts/utils/Strings.sol\":966:972  buffer */\n      dup2\n        /* \"@openzeppelin/contracts/utils/Strings.sol\":973:979  digits */\n      dup4\n        /* \"@openzeppelin/contracts/utils/Strings.sol\":966:980  buffer[digits] */\n      dup2\n      mload\n      dup2\n      lt\n      tag_312\n      jumpi\n      mstore(0x00, 0x4e487b7100000000000000000000000000000000000000000000000000000000)\n      mstore(0x04, 0x32)\n      revert(0x00, 0x24)\n    tag_312:\n      0x20\n      add\n      add\n        /* \"@openzeppelin/contracts/utils/Strings.sol\":966:1022  buffer[digits] = bytes1(uint8(48 + uint256(value % 10))) */\n      swap1\n      not(0xffffffffffffffffffffffffffffffffffffffffffffffffffffffffffffff)\n      and\n      swap1\n      dup2\n      0x00\n      byte\n      swap1\n      mstore8\n      pop\n        /* \"@openzeppelin/contracts/utils/Strings.sol\":1045:1047  10 */\n      0x0a\n        /* \"@openzeppelin/contracts/utils/Strings.sol\":1036:1047  value /= 10 */\n      dup6\n      tag_313\n      swap2\n      swap1\n      tag_283\n      jump\t// in\n    tag_313:\n      swap5\n      pop\n        /* \"@openzeppelin/contracts/utils/Strings.sol\":908:1058  while (value != 0) {... */\n      jump(tag_306)\n    tag_307:\n        /* \"@openzeppelin/contracts/utils/Strings.sol\":1081:1087  buffer */\n      dup1\n        /* \"@openzeppelin/contracts/utils/Strings.sol\":1067:1088  return string(buffer) */\n      swap4\n      pop\n      pop\n      pop\n      pop\n        /* \"@openzeppelin/contracts/utils/Strings.sol\":392:1095  function toString(uint256 value) internal pure returns (string memory) {... */\n    tag_298:\n      swap2\n      swap1\n      pop\n      jump\t// out\n        /* \"@openzeppelin/contracts/token/ERC721/ERC721.sol\":7034:7159  function _exists(uint256 tokenId) internal view virtual returns (bool) {... */\n    tag_250:\n        /* \"@openzeppelin/contracts/token/ERC721/ERC721.sol\":7099:7103  bool */\n      0x00\n        /* \"@openzeppelin/contracts/token/ERC721/ERC721.sol\":7150:7151  0 */\n      dup1\n        /* \"@openzeppelin/contracts/token/ERC721/ERC721.sol\":7122:7152  _owners[tokenId] != address(0) */\n      0xffffffffffffffffffffffffffffffffffffffff\n      and\n        /* \"@openzeppelin/contracts/token/ERC721/ERC721.sol\":7122:7129  _owners */\n      0x02\n        /* \"@openzeppelin/contracts/token/ERC721/ERC721.sol\":7122:7138  _owners[tokenId] */\n      0x00\n        /* \"@openzeppelin/contracts/token/ERC721/ERC721.sol\":7130:7137  tokenId */\n      dup5\n        /* \"@openzeppelin/contracts/token/ERC721/ERC721.sol\":7122:7138  _owners[tokenId] */\n      dup2\n      mstore\n      0x20\n      add\n      swap1\n      dup2\n      mstore\n      0x20\n      add\n      0x00\n      keccak256\n      0x00\n      swap1\n      sload\n      swap1\n      0x0100\n      exp\n      swap1\n      div\n      0xffffffffffffffffffffffffffffffffffffffff\n      and\n        /* \"@openzeppelin/contracts/token/ERC721/ERC721.sol\":7122:7152  _owners[tokenId] != address(0) */\n      0xffffffffffffffffffffffffffffffffffffffff\n      and\n      eq\n      iszero\n        /* \"@openzeppelin/contracts/token/ERC721/ERC721.sol\":7115:7152  return _owners[tokenId] != address(0) */\n      swap1\n      pop\n        /* \"@openzeppelin/contracts/token/ERC721/ERC721.sol\":7034:7159  function _exists(uint256 tokenId) internal view virtual returns (bool) {... */\n      swap2\n      swap1\n      pop\n      jump\t// out\n        /* \"@openzeppelin/contracts/token/ERC721/ERC721.sol\":13729:13851  function _beforeTokenTransfer(... */\n    tag_271:\n      pop\n      pop\n      pop\n      jump\t// out\n        /* \"@openzeppelin/contracts/token/ERC721/ERC721.sol\":14223:14344  function _afterTokenTransfer(... */\n    tag_278:\n      pop\n      pop\n      pop\n      jump\t// out\n        /* \"@openzeppelin/contracts/token/ERC721/ERC721.sol\":12342:13173  function _checkOnERC721Received(... */\n    tag_293:\n        /* \"@openzeppelin/contracts/token/ERC721/ERC721.sol\":12491:12495  bool */\n      0x00\n        /* \"@openzeppelin/contracts/token/ERC721/ERC721.sol\":12511:12526  to.isContract() */\n      tag_318\n        /* \"@openzeppelin/contracts/token/ERC721/ERC721.sol\":12511:12513  to */\n      dup5\n        /* \"@openzeppelin/contracts/token/ERC721/ERC721.sol\":12511:12524  to.isContract */\n      0xffffffffffffffffffffffffffffffffffffffff\n      and\n      tag_319\n        /* \"@openzeppelin/contracts/token/ERC721/ERC721.sol\":12511:12526  to.isContract() */\n      jump\t// in\n    tag_318:\n        /* \"@openzeppelin/contracts/token/ERC721/ERC721.sol\":12507:13167  if (to.isContract()) {... */\n      iszero\n      tag_320\n      jumpi\n        /* \"@openzeppelin/contracts/token/ERC721/ERC721.sol\":12562:12564  to */\n      dup4\n        /* \"@openzeppelin/contracts/token/ERC721/ERC721.sol\":12546:12582  IERC721Receiver(to).onERC721Received */\n      0xffffffffffffffffffffffffffffffffffffffff\n      and\n      0x150b7a02\n        /* \"@openzeppelin/contracts/token/ERC721/ERC721.sol\":12583:12595  _msgSender() */\n      tag_321\n        /* \"@openzeppelin/contracts/token/ERC721/ERC721.sol\":12583:12593  _msgSender */\n      tag_160\n        /* \"@openzeppelin/contracts/token/ERC721/ERC721.sol\":12583:12595  _msgSender() */\n      jump\t// in\n    tag_321:\n        /* \"@openzeppelin/contracts/token/ERC721/ERC721.sol\":12597:12601  from */\n      dup8\n        /* \"@openzeppelin/contracts/token/ERC721/ERC721.sol\":12603:12610  tokenId */\n      dup7\n        /* \"@openzeppelin/contracts/token/ERC721/ERC721.sol\":12612:12616  data */\n      dup7\n        /* \"@openzeppelin/contracts/token/ERC721/ERC721.sol\":12546:12617  IERC721Receiver(to).onERC721Received(_msgSender(), from, tokenId, data) */\n      mload(0x40)\n      dup6\n      0xffffffff\n      and\n      0xe0\n      shl\n      dup2\n      mstore\n      0x04\n      add\n      tag_322\n      swap5\n      swap4\n      swap3\n      swap2\n      swap1\n      tag_323\n      jump\t// in\n    tag_322:\n      0x20\n      mload(0x40)\n      dup1\n      dup4\n      sub\n      dup2\n      0x00\n      dup8\n      dup1\n      extcodesize\n      iszero\n      dup1\n      iszero\n      tag_324\n      jumpi\n      0x00\n      dup1\n      revert\n    tag_324:\n      pop\n      gas\n      call\n      swap3\n      pop\n      pop\n      pop\n      dup1\n      iszero\n      tag_325\n      jumpi\n      pop\n      mload(0x40)\n      returndatasize\n      not(0x1f)\n      0x1f\n      dup3\n      add\n      and\n      dup3\n      add\n      dup1\n      0x40\n      mstore\n      pop\n      dup2\n      add\n      swap1\n      tag_326\n      swap2\n      swap1\n      tag_327\n      jump\t// in\n    tag_326:\n      0x01\n    tag_325:\n        /* \"@openzeppelin/contracts/token/ERC721/ERC721.sol\":12542:13115  try IERC721Receiver(to).onERC721Received(_msgSender(), from, tokenId, data) returns (bytes4 retval) {... */\n      tag_328\n      jumpi\n      returndatasize\n      dup1\n      0x00\n      dup2\n      eq\n      tag_333\n      jumpi\n      mload(0x40)\n      swap2\n      pop\n      and(add(returndatasize, 0x3f), not(0x1f))\n      dup3\n      add\n      0x40\n      mstore\n      returndatasize\n      dup3\n      mstore\n      returndatasize\n      0x00\n      0x20\n      dup5\n      add\n      returndatacopy\n      jump(tag_332)\n    tag_333:\n      0x60\n      swap2\n      pop\n    tag_332:\n      pop\n        /* \"@openzeppelin/contracts/token/ERC721/ERC721.sol\":12801:12802  0 */\n      0x00\n        /* \"@openzeppelin/contracts/token/ERC721/ERC721.sol\":12784:12790  reason */\n      dup2\n        /* \"@openzeppelin/contracts/token/ERC721/ERC721.sol\":12784:12797  reason.length */\n      mload\n        /* \"@openzeppelin/contracts/token/ERC721/ERC721.sol\":12784:12802  reason.length == 0 */\n      eq\n        /* \"@openzeppelin/contracts/token/ERC721/ERC721.sol\":12780:13101  if (reason.length == 0) {... */\n      iszero\n      tag_334\n      jumpi\n        /* \"@openzeppelin/contracts/token/ERC721/ERC721.sol\":12826:12886  revert(\"ERC721: transfer to non ERC721Receiver implementer\") */\n      mload(0x40)\n      0x08c379a000000000000000000000000000000000000000000000000000000000\n      dup2\n      mstore\n      0x04\n      add\n      tag_335\n      swap1\n      tag_296\n      jump\t// in\n    tag_335:\n      mload(0x40)\n      dup1\n      swap2\n      sub\n      swap1\n      revert\n        /* \"@openzeppelin/contracts/token/ERC721/ERC721.sol\":12780:13101  if (reason.length == 0) {... */\n    tag_334:\n        /* \"@openzeppelin/contracts/token/ERC721/ERC721.sol\":13053:13059  reason */\n      dup1\n        /* \"@openzeppelin/contracts/token/ERC721/ERC721.sol\":13047:13060  mload(reason) */\n      mload\n        /* \"@openzeppelin/contracts/token/ERC721/ERC721.sol\":13038:13044  reason */\n      dup2\n        /* \"@openzeppelin/contracts/token/ERC721/ERC721.sol\":13034:13036  32 */\n      0x20\n        /* \"@openzeppelin/contracts/token/ERC721/ERC721.sol\":13030:13045  add(32, reason) */\n      add\n        /* \"@openzeppelin/contracts/token/ERC721/ERC721.sol\":13023:13061  revert(add(32, reason), mload(reason)) */\n      revert\n        /* \"@openzeppelin/contracts/token/ERC721/ERC721.sol\":12542:13115  try IERC721Receiver(to).onERC721Received(_msgSender(), from, tokenId, data) returns (bytes4 retval) {... */\n    tag_328:\n        /* \"@openzeppelin/contracts/token/ERC721/ERC721.sol\":12677:12718  IERC721Receiver.onERC721Received.selector */\n      shl(0xe0, 0x150b7a02)\n        /* \"@openzeppelin/contracts/token/ERC721/ERC721.sol\":12667:12718  retval == IERC721Receiver.onERC721Received.selector */\n      not(0xffffffffffffffffffffffffffffffffffffffffffffffffffffffff)\n      and\n        /* \"@openzeppelin/contracts/token/ERC721/ERC721.sol\":12667:12673  retval */\n      dup2\n        /* \"@openzeppelin/contracts/token/ERC721/ERC721.sol\":12667:12718  retval == IERC721Receiver.onERC721Received.selector */\n      not(0xffffffffffffffffffffffffffffffffffffffffffffffffffffffff)\n      and\n      eq\n        /* \"@openzeppelin/contracts/token/ERC721/ERC721.sol\":12660:12718  return retval == IERC721Receiver.onERC721Received.selector */\n      swap2\n      pop\n      pop\n      jump(tag_317)\n        /* \"@openzeppelin/contracts/token/ERC721/ERC721.sol\":12507:13167  if (to.isContract()) {... */\n    tag_320:\n        /* \"@openzeppelin/contracts/token/ERC721/ERC721.sol\":13152:13156  true */\n      0x01\n        /* \"@openzeppelin/contracts/token/ERC721/ERC721.sol\":13145:13156  return true */\n      swap1\n      pop\n        /* \"@openzeppelin/contracts/token/ERC721/ERC721.sol\":12342:13173  function _checkOnERC721Received(... */\n    tag_317:\n      swap5\n      swap4\n      pop\n      pop\n      pop\n      pop\n      jump\t// out\n        /* \"@openzeppelin/contracts/utils/Address.sol\":1175:1495  function isContract(address account) internal view returns (bool) {... */\n    tag_319:\n        /* \"@openzeppelin/contracts/utils/Address.sol\":1235:1239  bool */\n      0x00\n        /* \"@openzeppelin/contracts/utils/Address.sol\":1487:1488  0 */\n      dup1\n        /* \"@openzeppelin/contracts/utils/Address.sol\":1465:1472  account */\n      dup3\n        /* \"@openzeppelin/contracts/utils/Address.sol\":1465:1484  account.code.length */\n      0xffffffffffffffffffffffffffffffffffffffff\n      and\n      extcodesize\n        /* \"@openzeppelin/contracts/utils/Address.sol\":1465:1488  account.code.length > 0 */\n      gt\n        /* \"@openzeppelin/contracts/utils/Address.sol\":1458:1488  return account.code.length > 0 */\n      swap1\n      pop\n        /* \"@openzeppelin/contracts/utils/Address.sol\":1175:1495  function isContract(address account) internal view returns (bool) {... */\n      swap2\n      swap1\n      pop\n      jump\t// out\n        /* \"#utility.yul\":7:350   */\n    tag_341:\n      0x00\n        /* \"#utility.yul\":109:174   */\n      tag_343\n        /* \"#utility.yul\":125:173   */\n      tag_344\n        /* \"#utility.yul\":166:172   */\n      dup5\n        /* \"#utility.yul\":125:173   */\n      tag_345\n      jump\t// in\n    tag_344:\n        /* \"#utility.yul\":109:174   */\n      tag_346\n      jump\t// in\n    tag_343:\n        /* \"#utility.yul\":100:174   */\n      swap1\n      pop\n        /* \"#utility.yul\":197:203   */\n      dup3\n        /* \"#utility.yul\":190:195   */\n      dup2\n        /* \"#utility.yul\":183:204   */\n      mstore\n        /* \"#utility.yul\":235:239   */\n      0x20\n        /* \"#utility.yul\":228:233   */\n      dup2\n        /* \"#utility.yul\":224:240   */\n      add\n        /* \"#utility.yul\":273:276   */\n      dup5\n        /* \"#utility.yul\":264:270   */\n      dup5\n        /* \"#utility.yul\":259:262   */\n      dup5\n        /* \"#utility.yul\":255:271   */\n      add\n        /* \"#utility.yul\":252:277   */\n      gt\n        /* \"#utility.yul\":249:251   */\n      iszero\n      tag_347\n      jumpi\n        /* \"#utility.yul\":290:291   */\n      0x00\n        /* \"#utility.yul\":287:288   */\n      dup1\n        /* \"#utility.yul\":280:292   */\n      revert\n        /* \"#utility.yul\":249:251   */\n    tag_347:\n        /* \"#utility.yul\":303:344   */\n      tag_348\n        /* \"#utility.yul\":337:343   */\n      dup5\n        /* \"#utility.yul\":332:335   */\n      dup3\n        /* \"#utility.yul\":327:330   */\n      dup6\n        /* \"#utility.yul\":303:344   */\n      tag_349\n      jump\t// in\n    tag_348:\n        /* \"#utility.yul\":90:350   */\n      pop\n      swap4\n      swap3\n      pop\n      pop\n      pop\n      jump\t// out\n        /* \"#utility.yul\":356:495   */\n    tag_350:\n      0x00\n        /* \"#utility.yul\":440:446   */\n      dup2\n        /* \"#utility.yul\":427:447   */\n      calldataload\n        /* \"#utility.yul\":418:447   */\n      swap1\n      pop\n        /* \"#utility.yul\":456:489   */\n      tag_352\n        /* \"#utility.yul\":483:488   */\n      dup2\n        /* \"#utility.yul\":456:489   */\n      tag_353\n      jump\t// in\n    tag_352:\n        /* \"#utility.yul\":408:495   */\n      swap3\n      swap2\n      pop\n      pop\n      jump\t// out\n        /* \"#utility.yul\":501:634   */\n    tag_354:\n      0x00\n        /* \"#utility.yul\":582:588   */\n      dup2\n        /* \"#utility.yul\":569:589   */\n      calldataload\n        /* \"#utility.yul\":560:589   */\n      swap1\n      pop\n        /* \"#utility.yul\":598:628   */\n      tag_356\n        /* \"#utility.yul\":622:627   */\n      dup2\n        /* \"#utility.yul\":598:628   */\n      tag_357\n      jump\t// in\n    tag_356:\n        /* \"#utility.yul\":550:634   */\n      swap3\n      swap2\n      pop\n      pop\n      jump\t// out\n        /* \"#utility.yul\":640:777   */\n    tag_358:\n      0x00\n        /* \"#utility.yul\":723:729   */\n      dup2\n        /* \"#utility.yul\":710:730   */\n      calldataload\n        /* \"#utility.yul\":701:730   */\n      swap1\n      pop\n        /* \"#utility.yul\":739:771   */\n      tag_360\n        /* \"#utility.yul\":765:770   */\n      dup2\n        /* \"#utility.yul\":739:771   */\n      tag_361\n      jump\t// in\n    tag_360:\n        /* \"#utility.yul\":691:777   */\n      swap3\n      swap2\n      pop\n      pop\n      jump\t// out\n        /* \"#utility.yul\":783:924   */\n    tag_362:\n      0x00\n        /* \"#utility.yul\":870:876   */\n      dup2\n        /* \"#utility.yul\":864:877   */\n      mload\n        /* \"#utility.yul\":855:877   */\n      swap1\n      pop\n        /* \"#utility.yul\":886:918   */\n      tag_364\n        /* \"#utility.yul\":912:917   */\n      dup2\n        /* \"#utility.yul\":886:918   */\n      tag_361\n      jump\t// in\n    tag_364:\n        /* \"#utility.yul\":845:924   */\n      swap3\n      swap2\n      pop\n      pop\n      jump\t// out\n        /* \"#utility.yul\":943:1214   */\n    tag_365:\n      0x00\n        /* \"#utility.yul\":1047:1050   */\n      dup3\n        /* \"#utility.yul\":1040:1044   */\n      0x1f\n        /* \"#utility.yul\":1032:1038   */\n      dup4\n        /* \"#utility.yul\":1028:1045   */\n      add\n        /* \"#utility.yul\":1024:1051   */\n      slt\n        /* \"#utility.yul\":1014:1016   */\n      tag_367\n      jumpi\n        /* \"#utility.yul\":1065:1066   */\n      0x00\n        /* \"#utility.yul\":1062:1063   */\n      dup1\n        /* \"#utility.yul\":1055:1067   */\n      revert\n        /* \"#utility.yul\":1014:1016   */\n    tag_367:\n        /* \"#utility.yul\":1105:1111   */\n      dup2\n        /* \"#utility.yul\":1092:1112   */\n      calldataload\n        /* \"#utility.yul\":1130:1208   */\n      tag_368\n        /* \"#utility.yul\":1204:1207   */\n      dup5\n        /* \"#utility.yul\":1196:1202   */\n      dup3\n        /* \"#utility.yul\":1189:1193   */\n      0x20\n        /* \"#utility.yul\":1181:1187   */\n      dup7\n        /* \"#utility.yul\":1177:1194   */\n      add\n        /* \"#utility.yul\":1130:1208   */\n      tag_341\n      jump\t// in\n    tag_368:\n        /* \"#utility.yul\":1121:1208   */\n      swap2\n      pop\n        /* \"#utility.yul\":1004:1214   */\n      pop\n      swap3\n      swap2\n      pop\n      pop\n      jump\t// out\n        /* \"#utility.yul\":1220:1359   */\n    tag_369:\n      0x00\n        /* \"#utility.yul\":1304:1310   */\n      dup2\n        /* \"#utility.yul\":1291:1311   */\n      calldataload\n        /* \"#utility.yul\":1282:1311   */\n      swap1\n      pop\n        /* \"#utility.yul\":1320:1353   */\n      tag_371\n        /* \"#utility.yul\":1347:1352   */\n      dup2\n        /* \"#utility.yul\":1320:1353   */\n      tag_372\n      jump\t// in\n    tag_371:\n        /* \"#utility.yul\":1272:1359   */\n      swap3\n      swap2\n      pop\n      pop\n      jump\t// out\n        /* \"#utility.yul\":1365:1627   */\n    tag_82:\n      0x00\n        /* \"#utility.yul\":1473:1475   */\n      0x20\n        /* \"#utility.yul\":1461:1470   */\n      dup3\n        /* \"#utility.yul\":1452:1459   */\n      dup5\n        /* \"#utility.yul\":1448:1471   */\n      sub\n        /* \"#utility.yul\":1444:1476   */\n      slt\n        /* \"#utility.yul\":1441:1443   */\n      iszero\n      tag_374\n      jumpi\n        /* \"#utility.yul\":1489:1490   */\n      0x00\n        /* \"#utility.yul\":1486:1487   */\n      dup1\n        /* \"#utility.yul\":1479:1491   */\n      revert\n        /* \"#utility.yul\":1441:1443   */\n    tag_374:\n        /* \"#utility.yul\":1532:1533   */\n      0x00\n        /* \"#utility.yul\":1557:1610   */\n      tag_375\n        /* \"#utility.yul\":1602:1609   */\n      dup5\n        /* \"#utility.yul\":1593:1599   */\n      dup3\n        /* \"#utility.yul\":1582:1591   */\n      dup6\n        /* \"#utility.yul\":1578:1600   */\n      add\n        /* \"#utility.yul\":1557:1610   */\n      tag_350\n      jump\t// in\n    tag_375:\n        /* \"#utility.yul\":1547:1610   */\n      swap2\n      pop\n        /* \"#utility.yul\":1503:1620   */\n      pop\n        /* \"#utility.yul\":1431:1627   */\n      swap3\n      swap2\n      pop\n      pop\n      jump\t// out\n        /* \"#utility.yul\":1633:2040   */\n    tag_132:\n      0x00\n      dup1\n        /* \"#utility.yul\":1758:1760   */\n      0x40\n        /* \"#utility.yul\":1746:1755   */\n      dup4\n        /* \"#utility.yul\":1737:1744   */\n      dup6\n        /* \"#utility.yul\":1733:1756   */\n      sub\n        /* \"#utility.yul\":1729:1761   */\n      slt\n        /* \"#utility.yul\":1726:1728   */\n      iszero\n      tag_377\n      jumpi\n        /* \"#utility.yul\":1774:1775   */\n      0x00\n        /* \"#utility.yul\":1771:1772   */\n      dup1\n        /* \"#utility.yul\":1764:1776   */\n      revert\n        /* \"#utility.yul\":1726:1728   */\n    tag_377:\n        /* \"#utility.yul\":1817:1818   */\n      0x00\n        /* \"#utility.yul\":1842:1895   */\n      tag_378\n        /* \"#utility.yul\":1887:1894   */\n      dup6\n        /* \"#utility.yul\":1878:1884   */\n      dup3\n        /* \"#utility.yul\":1867:1876   */\n      dup7\n        /* \"#utility.yul\":1863:1885   */\n      add\n        /* \"#utility.yul\":1842:1895   */\n      tag_350\n      jump\t// in\n    tag_378:\n        /* \"#utility.yul\":1832:1895   */\n      swap3\n      pop\n        /* \"#utility.yul\":1788:1905   */\n      pop\n        /* \"#utility.yul\":1944:1946   */\n      0x20\n        /* \"#utility.yul\":1970:2023   */\n      tag_379\n        /* \"#utility.yul\":2015:2022   */\n      dup6\n        /* \"#utility.yul\":2006:2012   */\n      dup3\n        /* \"#utility.yul\":1995:2004   */\n      dup7\n        /* \"#utility.yul\":1991:2013   */\n      add\n        /* \"#utility.yul\":1970:2023   */\n      tag_350\n      jump\t// in\n    tag_379:\n        /* \"#utility.yul\":1960:2023   */\n      swap2\n      pop\n        /* \"#utility.yul\":1915:2033   */\n      pop\n        /* \"#utility.yul\":1716:2040   */\n      swap3\n      pop\n      swap3\n      swap1\n      pop\n      jump\t// out\n        /* \"#utility.yul\":2046:2598   */\n    tag_59:\n      0x00\n      dup1\n      0x00\n        /* \"#utility.yul\":2188:2190   */\n      0x60\n        /* \"#utility.yul\":2176:2185   */\n      dup5\n        /* \"#utility.yul\":2167:2174   */\n      dup7\n        /* \"#utility.yul\":2163:2186   */\n      sub\n        /* \"#utility.yul\":2159:2191   */\n      slt\n        /* \"#utility.yul\":2156:2158   */\n      iszero\n      tag_381\n      jumpi\n        /* \"#utility.yul\":2204:2205   */\n      0x00\n        /* \"#utility.yul\":2201:2202   */\n      dup1\n        /* \"#utility.yul\":2194:2206   */\n      revert\n        /* \"#utility.yul\":2156:2158   */\n    tag_381:\n        /* \"#utility.yul\":2247:2248   */\n      0x00\n        /* \"#utility.yul\":2272:2325   */\n      tag_382\n        /* \"#utility.yul\":2317:2324   */\n      dup7\n        /* \"#utility.yul\":2308:2314   */\n      dup3\n        /* \"#utility.yul\":2297:2306   */\n      dup8\n        /* \"#utility.yul\":2293:2315   */\n      add\n        /* \"#utility.yul\":2272:2325   */\n      tag_350\n      jump\t// in\n    tag_382:\n        /* \"#utility.yul\":2262:2325   */\n      swap4\n      pop\n        /* \"#utility.yul\":2218:2335   */\n      pop\n        /* \"#utility.yul\":2374:2376   */\n      0x20\n        /* \"#utility.yul\":2400:2453   */\n      tag_383\n        /* \"#utility.yul\":2445:2452   */\n      dup7\n        /* \"#utility.yul\":2436:2442   */\n      dup3\n        /* \"#utility.yul\":2425:2434   */\n      dup8\n        /* \"#utility.yul\":2421:2443   */\n      add\n        /* \"#utility.yul\":2400:2453   */\n      tag_350\n      jump\t// in\n    tag_383:\n        /* \"#utility.yul\":2390:2453   */\n      swap3\n      pop\n        /* \"#utility.yul\":2345:2463   */\n      pop\n        /* \"#utility.yul\":2502:2504   */\n      0x40\n        /* \"#utility.yul\":2528:2581   */\n      tag_384\n        /* \"#utility.yul\":2573:2580   */\n      dup7\n        /* \"#utility.yul\":2564:2570   */\n      dup3\n        /* \"#utility.yul\":2553:2562   */\n      dup8\n        /* \"#utility.yul\":2549:2571   */\n      add\n        /* \"#utility.yul\":2528:2581   */\n      tag_369\n      jump\t// in\n    tag_384:\n        /* \"#utility.yul\":2518:2581   */\n      swap2\n      pop\n        /* \"#utility.yul\":2473:2591   */\n      pop\n        /* \"#utility.yul\":2146:2598   */\n      swap3\n      pop\n      swap3\n      pop\n      swap3\n      jump\t// out\n        /* \"#utility.yul\":2604:3413   */\n    tag_106:\n      0x00\n      dup1\n      0x00\n      dup1\n        /* \"#utility.yul\":2772:2775   */\n      0x80\n        /* \"#utility.yul\":2760:2769   */\n      dup6\n        /* \"#utility.yul\":2751:2758   */\n      dup8\n        /* \"#utility.yul\":2747:2770   */\n      sub\n        /* \"#utility.yul\":2743:2776   */\n      slt\n        /* \"#utility.yul\":2740:2742   */\n      iszero\n      tag_386\n      jumpi\n        /* \"#utility.yul\":2789:2790   */\n      0x00\n        /* \"#utility.yul\":2786:2787   */\n      dup1\n        /* \"#utility.yul\":2779:2791   */\n      revert\n        /* \"#utility.yul\":2740:2742   */\n    tag_386:\n        /* \"#utility.yul\":2832:2833   */\n      0x00\n        /* \"#utility.yul\":2857:2910   */\n      tag_387\n        /* \"#utility.yul\":2902:2909   */\n      dup8\n        /* \"#utility.yul\":2893:2899   */\n      dup3\n        /* \"#utility.yul\":2882:2891   */\n      dup9\n        /* \"#utility.yul\":2878:2900   */\n      add\n        /* \"#utility.yul\":2857:2910   */\n      tag_350\n      jump\t// in\n    tag_387:\n        /* \"#utility.yul\":2847:2910   */\n      swap5\n      pop\n        /* \"#utility.yul\":2803:2920   */\n      pop\n        /* \"#utility.yul\":2959:2961   */\n      0x20\n        /* \"#utility.yul\":2985:3038   */\n      tag_388\n        /* \"#utility.yul\":3030:3037   */\n      dup8\n        /* \"#utility.yul\":3021:3027   */\n      dup3\n        /* \"#utility.yul\":3010:3019   */\n      dup9\n        /* \"#utility.yul\":3006:3028   */\n      add\n        /* \"#utility.yul\":2985:3038   */\n      tag_350\n      jump\t// in\n    tag_388:\n        /* \"#utility.yul\":2975:3038   */\n      swap4\n      pop\n        /* \"#utility.yul\":2930:3048   */\n      pop\n        /* \"#utility.yul\":3087:3089   */\n      0x40\n        /* \"#utility.yul\":3113:3166   */\n      tag_389\n        /* \"#utility.yul\":3158:3165   */\n      dup8\n        /* \"#utility.yul\":3149:3155   */\n      dup3\n        /* \"#utility.yul\":3138:3147   */\n      dup9\n        /* \"#utility.yul\":3134:3156   */\n      add\n        /* \"#utility.yul\":3113:3166   */\n      tag_369\n      jump\t// in\n    tag_389:\n        /* \"#utility.yul\":3103:3166   */\n      swap3\n      pop\n        /* \"#utility.yul\":3058:3176   */\n      pop\n        /* \"#utility.yul\":3243:3245   */\n      0x60\n        /* \"#utility.yul\":3232:3241   */\n      dup6\n        /* \"#utility.yul\":3228:3246   */\n      add\n        /* \"#utility.yul\":3215:3247   */\n      calldataload\n        /* \"#utility.yul\":3274:3292   */\n      0xffffffffffffffff\n        /* \"#utility.yul\":3266:3272   */\n      dup2\n        /* \"#utility.yul\":3263:3293   */\n      gt\n        /* \"#utility.yul\":3260:3262   */\n      iszero\n      tag_390\n      jumpi\n        /* \"#utility.yul\":3306:3307   */\n      0x00\n        /* \"#utility.yul\":3303:3304   */\n      dup1\n        /* \"#utility.yul\":3296:3308   */\n      revert\n        /* \"#utility.yul\":3260:3262   */\n    tag_390:\n        /* \"#utility.yul\":3334:3396   */\n      tag_391\n        /* \"#utility.yul\":3388:3395   */\n      dup8\n        /* \"#utility.yul\":3379:3385   */\n      dup3\n        /* \"#utility.yul\":3368:3377   */\n      dup9\n        /* \"#utility.yul\":3364:3386   */\n      add\n        /* \"#utility.yul\":3334:3396   */\n      tag_365\n      jump\t// in\n    tag_391:\n        /* \"#utility.yul\":3324:3396   */\n      swap2\n      pop\n        /* \"#utility.yul\":3186:3406   */\n      pop\n        /* \"#utility.yul\":2730:3413   */\n      swap3\n      swap6\n      swap2\n      swap5\n      pop\n      swap3\n      pop\n      jump\t// out\n        /* \"#utility.yul\":3419:3820   */\n    tag_95:\n      0x00\n      dup1\n        /* \"#utility.yul\":3541:3543   */\n      0x40\n        /* \"#utility.yul\":3529:3538   */\n      dup4\n        /* \"#utility.yul\":3520:3527   */\n      dup6\n        /* \"#utility.yul\":3516:3539   */\n      sub\n        /* \"#utility.yul\":3512:3544   */\n      slt\n        /* \"#utility.yul\":3509:3511   */\n      iszero\n      tag_393\n      jumpi\n        /* \"#utility.yul\":3557:3558   */\n      0x00\n        /* \"#utility.yul\":3554:3555   */\n      dup1\n        /* \"#utility.yul\":3547:3559   */\n      revert\n        /* \"#utility.yul\":3509:3511   */\n    tag_393:\n        /* \"#utility.yul\":3600:3601   */\n      0x00\n        /* \"#utility.yul\":3625:3678   */\n      tag_394\n        /* \"#utility.yul\":3670:3677   */\n      dup6\n        /* \"#utility.yul\":3661:3667   */\n      dup3\n        /* \"#utility.yul\":3650:3659   */\n      dup7\n        /* \"#utility.yul\":3646:3668   */\n      add\n        /* \"#utility.yul\":3625:3678   */\n      tag_350\n      jump\t// in\n    tag_394:\n        /* \"#utility.yul\":3615:3678   */\n      swap3\n      pop\n        /* \"#utility.yul\":3571:3688   */\n      pop\n        /* \"#utility.yul\":3727:3729   */\n      0x20\n        /* \"#utility.yul\":3753:3803   */\n      tag_395\n        /* \"#utility.yul\":3795:3802   */\n      dup6\n        /* \"#utility.yul\":3786:3792   */\n      dup3\n        /* \"#utility.yul\":3775:3784   */\n      dup7\n        /* \"#utility.yul\":3771:3793   */\n      add\n        /* \"#utility.yul\":3753:3803   */\n      tag_354\n      jump\t// in\n    tag_395:\n        /* \"#utility.yul\":3743:3803   */\n      swap2\n      pop\n        /* \"#utility.yul\":3698:3813   */\n      pop\n        /* \"#utility.yul\":3499:3820   */\n      swap3\n      pop\n      swap3\n      swap1\n      pop\n      jump\t// out\n        /* \"#utility.yul\":3826:4233   */\n    tag_49:\n      0x00\n      dup1\n        /* \"#utility.yul\":3951:3953   */\n      0x40\n        /* \"#utility.yul\":3939:3948   */\n      dup4\n        /* \"#utility.yul\":3930:3937   */\n      dup6\n        /* \"#utility.yul\":3926:3949   */\n      sub\n        /* \"#utility.yul\":3922:3954   */\n      slt\n        /* \"#utility.yul\":3919:3921   */\n      iszero\n      tag_397\n      jumpi\n        /* \"#utility.yul\":3967:3968   */\n      0x00\n        /* \"#utility.yul\":3964:3965   */\n      dup1\n        /* \"#utility.yul\":3957:3969   */\n      revert\n        /* \"#utility.yul\":3919:3921   */\n    tag_397:\n        /* \"#utility.yul\":4010:4011   */\n      0x00\n        /* \"#utility.yul\":4035:4088   */\n      tag_398\n        /* \"#utility.yul\":4080:4087   */\n      dup6\n        /* \"#utility.yul\":4071:4077   */\n      dup3\n        /* \"#utility.yul\":4060:4069   */\n      dup7\n        /* \"#utility.yul\":4056:4078   */\n      add\n        /* \"#utility.yul\":4035:4088   */\n      tag_350\n      jump\t// in\n    tag_398:\n        /* \"#utility.yul\":4025:4088   */\n      swap3\n      pop\n        /* \"#utility.yul\":3981:4098   */\n      pop\n        /* \"#utility.yul\":4137:4139   */\n      0x20\n        /* \"#utility.yul\":4163:4216   */\n      tag_399\n        /* \"#utility.yul\":4208:4215   */\n      dup6\n        /* \"#utility.yul\":4199:4205   */\n      dup3\n        /* \"#utility.yul\":4188:4197   */\n      dup7\n        /* \"#utility.yul\":4184:4206   */\n      add\n        /* \"#utility.yul\":4163:4216   */\n      tag_369\n      jump\t// in\n    tag_399:\n        /* \"#utility.yul\":4153:4216   */\n      swap2\n      pop\n        /* \"#utility.yul\":4108:4226   */\n      pop\n        /* \"#utility.yul\":3909:4233   */\n      swap3\n      pop\n      swap3\n      swap1\n      pop\n      jump\t// out\n        /* \"#utility.yul\":4239:4499   */\n    tag_30:\n      0x00\n        /* \"#utility.yul\":4346:4348   */\n      0x20\n        /* \"#utility.yul\":4334:4343   */\n      dup3\n        /* \"#utility.yul\":4325:4332   */\n      dup5\n        /* \"#utility.yul\":4321:4344   */\n      sub\n        /* \"#utility.yul\":4317:4349   */\n      slt\n        /* \"#utility.yul\":4314:4316   */\n      iszero\n      tag_401\n      jumpi\n        /* \"#utility.yul\":4362:4363   */\n      0x00\n        /* \"#utility.yul\":4359:4360   */\n      dup1\n        /* \"#utility.yul\":4352:4364   */\n      revert\n        /* \"#utility.yul\":4314:4316   */\n    tag_401:\n        /* \"#utility.yul\":4405:4406   */\n      0x00\n        /* \"#utility.yul\":4430:4482   */\n      tag_402\n        /* \"#utility.yul\":4474:4481   */\n      dup5\n        /* \"#utility.yul\":4465:4471   */\n      dup3\n        /* \"#utility.yul\":4454:4463   */\n      dup6\n        /* \"#utility.yul\":4450:4472   */\n      add\n        /* \"#utility.yul\":4430:4482   */\n      tag_358\n      jump\t// in\n    tag_402:\n        /* \"#utility.yul\":4420:4482   */\n      swap2\n      pop\n        /* \"#utility.yul\":4376:4492   */\n      pop\n        /* \"#utility.yul\":4304:4499   */\n      swap3\n      swap2\n      pop\n      pop\n      jump\t// out\n        /* \"#utility.yul\":4505:4787   */\n    tag_327:\n      0x00\n        /* \"#utility.yul\":4623:4625   */\n      0x20\n        /* \"#utility.yul\":4611:4620   */\n      dup3\n        /* \"#utility.yul\":4602:4609   */\n      dup5\n        /* \"#utility.yul\":4598:4621   */\n      sub\n        /* \"#utility.yul\":4594:4626   */\n      slt\n        /* \"#utility.yul\":4591:4593   */\n      iszero\n      tag_404\n      jumpi\n        /* \"#utility.yul\":4639:4640   */\n      0x00\n        /* \"#utility.yul\":4636:4637   */\n      dup1\n        /* \"#utility.yul\":4629:4641   */\n      revert\n        /* \"#utility.yul\":4591:4593   */\n    tag_404:\n        /* \"#utility.yul\":4682:4683   */\n      0x00\n        /* \"#utility.yul\":4707:4770   */\n      tag_405\n        /* \"#utility.yul\":4762:4769   */\n      dup5\n        /* \"#utility.yul\":4753:4759   */\n      dup3\n        /* \"#utility.yul\":4742:4751   */\n      dup6\n        /* \"#utility.yul\":4738:4760   */\n      add\n        /* \"#utility.yul\":4707:4770   */\n      tag_362\n      jump\t// in\n    tag_405:\n        /* \"#utility.yul\":4697:4770   */\n      swap2\n      pop\n        /* \"#utility.yul\":4653:4780   */\n      pop\n        /* \"#utility.yul\":4581:4787   */\n      swap3\n      swap2\n      pop\n      pop\n      jump\t// out\n        /* \"#utility.yul\":4793:5055   */\n    tag_42:\n      0x00\n        /* \"#utility.yul\":4901:4903   */\n      0x20\n        /* \"#utility.yul\":4889:4898   */\n      dup3\n        /* \"#utility.yul\":4880:4887   */\n      dup5\n        /* \"#utility.yul\":4876:4899   */\n      sub\n        /* \"#utility.yul\":4872:4904   */\n      slt\n        /* \"#utility.yul\":4869:4871   */\n      iszero\n      tag_407\n      jumpi\n        /* \"#utility.yul\":4917:4918   */\n      0x00\n        /* \"#utility.yul\":4914:4915   */\n      dup1\n        /* \"#utility.yul\":4907:4919   */\n      revert\n        /* \"#utility.yul\":4869:4871   */\n    tag_407:\n        /* \"#utility.yul\":4960:4961   */\n      0x00\n        /* \"#utility.yul\":4985:5038   */\n      tag_408\n        /* \"#utility.yul\":5030:5037   */\n      dup5\n        /* \"#utility.yul\":5021:5027   */\n      dup3\n        /* \"#utility.yul\":5010:5019   */\n      dup6\n        /* \"#utility.yul\":5006:5028   */\n      add\n        /* \"#utility.yul\":4985:5038   */\n      tag_369\n      jump\t// in\n    tag_408:\n        /* \"#utility.yul\":4975:5038   */\n      swap2\n      pop\n        /* \"#utility.yul\":4931:5048   */\n      pop\n        /* \"#utility.yul\":4859:5055   */\n      swap3\n      swap2\n      pop\n      pop\n      jump\t// out\n        /* \"#utility.yul\":5061:5468   */\n    tag_100:\n      0x00\n      dup1\n        /* \"#utility.yul\":5186:5188   */\n      0x40\n        /* \"#utility.yul\":5174:5183   */\n      dup4\n        /* \"#utility.yul\":5165:5172   */\n      dup6\n        /* \"#utility.yul\":5161:5184   */\n      sub\n        /* \"#utility.yul\":5157:5189   */\n      slt\n        /* \"#utility.yul\":5154:5156   */\n      iszero\n      tag_410\n      jumpi\n        /* \"#utility.yul\":5202:5203   */\n      0x00\n        /* \"#utility.yul\":5199:5200   */\n      dup1\n        /* \"#utility.yul\":5192:5204   */\n      revert\n        /* \"#utility.yul\":5154:5156   */\n    tag_410:\n        /* \"#utility.yul\":5245:5246   */\n      0x00\n        /* \"#utility.yul\":5270:5323   */\n      tag_411\n        /* \"#utility.yul\":5315:5322   */\n      dup6\n        /* \"#utility.yul\":5306:5312   */\n      dup3\n        /* \"#utility.yul\":5295:5304   */\n      dup7\n        /* \"#utility.yul\":5291:5313   */\n      add\n        /* \"#utility.yul\":5270:5323   */\n      tag_369\n      jump\t// in\n    tag_411:\n        /* \"#utility.yul\":5260:5323   */\n      swap3\n      pop\n        /* \"#utility.yul\":5216:5333   */\n      pop\n        /* \"#utility.yul\":5372:5374   */\n      0x20\n        /* \"#utility.yul\":5398:5451   */\n      tag_412\n        /* \"#utility.yul\":5443:5450   */\n      dup6\n        /* \"#utility.yul\":5434:5440   */\n      dup3\n        /* \"#utility.yul\":5423:5432   */\n      dup7\n        /* \"#utility.yul\":5419:5441   */\n      add\n        /* \"#utility.yul\":5398:5451   */\n      tag_369\n      jump\t// in\n    tag_412:\n        /* \"#utility.yul\":5388:5451   */\n      swap2\n      pop\n        /* \"#utility.yul\":5343:5461   */\n      pop\n        /* \"#utility.yul\":5144:5468   */\n      swap3\n      pop\n      swap3\n      swap1\n      pop\n      jump\t// out\n        /* \"#utility.yul\":5474:5592   */\n    tag_413:\n        /* \"#utility.yul\":5561:5585   */\n      tag_415\n        /* \"#utility.yul\":5579:5584   */\n      dup2\n        /* \"#utility.yul\":5561:5585   */\n      tag_416\n      jump\t// in\n    tag_415:\n        /* \"#utility.yul\":5556:5559   */\n      dup3\n        /* \"#utility.yul\":5549:5586   */\n      mstore\n        /* \"#utility.yul\":5539:5592   */\n      pop\n      pop\n      jump\t// out\n        /* \"#utility.yul\":5598:5707   */\n    tag_417:\n        /* \"#utility.yul\":5679:5700   */\n      tag_419\n        /* \"#utility.yul\":5694:5699   */\n      dup2\n        /* \"#utility.yul\":5679:5700   */\n      tag_420\n      jump\t// in\n    tag_419:\n        /* \"#utility.yul\":5674:5677   */\n      dup3\n        /* \"#utility.yul\":5667:5701   */\n      mstore\n        /* \"#utility.yul\":5657:5707   */\n      pop\n      pop\n      jump\t// out\n        /* \"#utility.yul\":5713:6073   */\n    tag_421:\n      0x00\n        /* \"#utility.yul\":5827:5865   */\n      tag_423\n        /* \"#utility.yul\":5859:5864   */\n      dup3\n        /* \"#utility.yul\":5827:5865   */\n      tag_424\n      jump\t// in\n    tag_423:\n        /* \"#utility.yul\":5881:5951   */\n      tag_425\n        /* \"#utility.yul\":5944:5950   */\n      dup2\n        /* \"#utility.yul\":5939:5942   */\n      dup6\n        /* \"#utility.yul\":5881:5951   */\n      tag_426\n      jump\t// in\n    tag_425:\n        /* \"#utility.yul\":5874:5951   */\n      swap4\n      pop\n        /* \"#utility.yul\":5960:6012   */\n      tag_427\n        /* \"#utility.yul\":6005:6011   */\n      dup2\n        /* \"#utility.yul\":6000:6003   */\n      dup6\n        /* \"#utility.yul\":5993:5997   */\n      0x20\n        /* \"#utility.yul\":5986:5991   */\n      dup7\n        /* \"#utility.yul\":5982:5998   */\n      add\n        /* \"#utility.yul\":5960:6012   */\n      tag_428\n      jump\t// in\n    tag_427:\n        /* \"#utility.yul\":6037:6066   */\n      tag_429\n        /* \"#utility.yul\":6059:6065   */\n      dup2\n        /* \"#utility.yul\":6037:6066   */\n      tag_430\n      jump\t// in\n    tag_429:\n        /* \"#utility.yul\":6032:6035   */\n      dup5\n        /* \"#utility.yul\":6028:6067   */\n      add\n        /* \"#utility.yul\":6021:6067   */\n      swap2\n      pop\n        /* \"#utility.yul\":5803:6073   */\n      pop\n      swap3\n      swap2\n      pop\n      pop\n      jump\t// out\n        /* \"#utility.yul\":6079:6443   */\n    tag_431:\n      0x00\n        /* \"#utility.yul\":6195:6234   */\n      tag_433\n        /* \"#utility.yul\":6228:6233   */\n      dup3\n        /* \"#utility.yul\":6195:6234   */\n      tag_434\n      jump\t// in\n    tag_433:\n        /* \"#utility.yul\":6250:6321   */\n      tag_435\n        /* \"#utility.yul\":6314:6320   */\n      dup2\n        /* \"#utility.yul\":6309:6312   */\n      dup6\n        /* \"#utility.yul\":6250:6321   */\n      tag_436\n      jump\t// in\n    tag_435:\n        /* \"#utility.yul\":6243:6321   */\n      swap4\n      pop\n        /* \"#utility.yul\":6330:6382   */\n      tag_437\n        /* \"#utility.yul\":6375:6381   */\n      dup2\n        /* \"#utility.yul\":6370:6373   */\n      dup6\n        /* \"#utility.yul\":6363:6367   */\n      0x20\n        /* \"#utility.yul\":6356:6361   */\n      dup7\n        /* \"#utility.yul\":6352:6368   */\n      add\n        /* \"#utility.yul\":6330:6382   */\n      tag_428\n      jump\t// in\n    tag_437:\n        /* \"#utility.yul\":6407:6436   */\n      tag_438\n        /* \"#utility.yul\":6429:6435   */\n      dup2\n        /* \"#utility.yul\":6407:6436   */\n      tag_430\n      jump\t// in\n    tag_438:\n        /* \"#utility.yul\":6402:6405   */\n      dup5\n        /* \"#utility.yul\":6398:6437   */\n      add\n        /* \"#utility.yul\":6391:6437   */\n      swap2\n      pop\n        /* \"#utility.yul\":6171:6443   */\n      pop\n      swap3\n      swap2\n      pop\n      pop\n      jump\t// out\n        /* \"#utility.yul\":6449:6826   */\n    tag_439:\n      0x00\n        /* \"#utility.yul\":6583:6622   */\n      tag_441\n        /* \"#utility.yul\":6616:6621   */\n      dup3\n        /* \"#utility.yul\":6583:6622   */\n      tag_434\n      jump\t// in\n    tag_441:\n        /* \"#utility.yul\":6638:6727   */\n      tag_442\n        /* \"#utility.yul\":6720:6726   */\n      dup2\n        /* \"#utility.yul\":6715:6718   */\n      dup6\n        /* \"#utility.yul\":6638:6727   */\n      tag_443\n      jump\t// in\n    tag_442:\n        /* \"#utility.yul\":6631:6727   */\n      swap4\n      pop\n        /* \"#utility.yul\":6736:6788   */\n      tag_444\n        /* \"#utility.yul\":6781:6787   */\n      dup2\n        /* \"#utility.yul\":6776:6779   */\n      dup6\n        /* \"#utility.yul\":6769:6773   */\n      0x20\n        /* \"#utility.yul\":6762:6767   */\n      dup7\n        /* \"#utility.yul\":6758:6774   */\n      add\n        /* \"#utility.yul\":6736:6788   */\n      tag_428\n      jump\t// in\n    tag_444:\n        /* \"#utility.yul\":6813:6819   */\n      dup1\n        /* \"#utility.yul\":6808:6811   */\n      dup5\n        /* \"#utility.yul\":6804:6820   */\n      add\n        /* \"#utility.yul\":6797:6820   */\n      swap2\n      pop\n        /* \"#utility.yul\":6559:6826   */\n      pop\n      swap3\n      swap2\n      pop\n      pop\n      jump\t// out\n        /* \"#utility.yul\":6832:7198   */\n    tag_445:\n      0x00\n        /* \"#utility.yul\":6995:7062   */\n      tag_447\n        /* \"#utility.yul\":7059:7061   */\n      0x32\n        /* \"#utility.yul\":7054:7057   */\n      dup4\n        /* \"#utility.yul\":6995:7062   */\n      tag_436\n      jump\t// in\n    tag_447:\n        /* \"#utility.yul\":6988:7062   */\n      swap2\n      pop\n        /* \"#utility.yul\":7071:7164   */\n      tag_448\n        /* \"#utility.yul\":7160:7163   */\n      dup3\n        /* \"#utility.yul\":7071:7164   */\n      tag_449\n      jump\t// in\n    tag_448:\n        /* \"#utility.yul\":7189:7191   */\n      0x40\n        /* \"#utility.yul\":7184:7187   */\n      dup3\n        /* \"#utility.yul\":7180:7192   */\n      add\n        /* \"#utility.yul\":7173:7192   */\n      swap1\n      pop\n        /* \"#utility.yul\":6978:7198   */\n      swap2\n      swap1\n      pop\n      jump\t// out\n        /* \"#utility.yul\":7204:7570   */\n    tag_450:\n      0x00\n        /* \"#utility.yul\":7367:7434   */\n      tag_452\n        /* \"#utility.yul\":7431:7433   */\n      0x25\n        /* \"#utility.yul\":7426:7429   */\n      dup4\n        /* \"#utility.yul\":7367:7434   */\n      tag_436\n      jump\t// in\n    tag_452:\n        /* \"#utility.yul\":7360:7434   */\n      swap2\n      pop\n        /* \"#utility.yul\":7443:7536   */\n      tag_453\n        /* \"#utility.yul\":7532:7535   */\n      dup3\n        /* \"#utility.yul\":7443:7536   */\n      tag_454\n      jump\t// in\n    tag_453:\n        /* \"#utility.yul\":7561:7563   */\n      0x40\n        /* \"#utility.yul\":7556:7559   */\n      dup3\n        /* \"#utility.yul\":7552:7564   */\n      add\n        /* \"#utility.yul\":7545:7564   */\n      swap1\n      pop\n        /* \"#utility.yul\":7350:7570   */\n      swap2\n      swap1\n      pop\n      jump\t// out\n        /* \"#utility.yul\":7576:7942   */\n    tag_455:\n      0x00\n        /* \"#utility.yul\":7739:7806   */\n      tag_457\n        /* \"#utility.yul\":7803:7805   */\n      0x24\n        /* \"#utility.yul\":7798:7801   */\n      dup4\n        /* \"#utility.yul\":7739:7806   */\n      tag_436\n      jump\t// in\n    tag_457:\n        /* \"#utility.yul\":7732:7806   */\n      swap2\n      pop\n        /* \"#utility.yul\":7815:7908   */\n      tag_458\n        /* \"#utility.yul\":7904:7907   */\n      dup3\n        /* \"#utility.yul\":7815:7908   */\n      tag_459\n      jump\t// in\n    tag_458:\n        /* \"#utility.yul\":7933:7935   */\n      0x40\n        /* \"#utility.yul\":7928:7931   */\n      dup3\n        /* \"#utility.yul\":7924:7936   */\n      add\n        /* \"#utility.yul\":7917:7936   */\n      swap1\n      pop\n        /* \"#utility.yul\":7722:7942   */\n      swap2\n      swap1\n      pop\n      jump\t// out\n        /* \"#utility.yul\":7948:8314   */\n    tag_460:\n      0x00\n        /* \"#utility.yul\":8111:8178   */\n      tag_462\n        /* \"#utility.yul\":8175:8177   */\n      0x19\n        /* \"#utility.yul\":8170:8173   */\n      dup4\n        /* \"#utility.yul\":8111:8178   */\n      tag_436\n      jump\t// in\n    tag_462:\n        /* \"#utility.yul\":8104:8178   */\n      swap2\n      pop\n        /* \"#utility.yul\":8187:8280   */\n      tag_463\n        /* \"#utility.yul\":8276:8279   */\n      dup3\n        /* \"#utility.yul\":8187:8280   */\n      tag_464\n      jump\t// in\n    tag_463:\n        /* \"#utility.yul\":8305:8307   */\n      0x20\n        /* \"#utility.yul\":8300:8303   */\n      dup3\n        /* \"#utility.yul\":8296:8308   */\n      add\n        /* \"#utility.yul\":8289:8308   */\n      swap1\n      pop\n        /* \"#utility.yul\":8094:8314   */\n      swap2\n      swap1\n      pop\n      jump\t// out\n        /* \"#utility.yul\":8320:8686   */\n    tag_465:\n      0x00\n        /* \"#utility.yul\":8483:8550   */\n      tag_467\n        /* \"#utility.yul\":8547:8549   */\n      0x29\n        /* \"#utility.yul\":8542:8545   */\n      dup4\n        /* \"#utility.yul\":8483:8550   */\n      tag_436\n      jump\t// in\n    tag_467:\n        /* \"#utility.yul\":8476:8550   */\n      swap2\n      pop\n        /* \"#utility.yul\":8559:8652   */\n      tag_468\n        /* \"#utility.yul\":8648:8651   */\n      dup3\n        /* \"#utility.yul\":8559:8652   */\n      tag_469\n      jump\t// in\n    tag_468:\n        /* \"#utility.yul\":8677:8679   */\n      0x40\n        /* \"#utility.yul\":8672:8675   */\n      dup3\n        /* \"#utility.yul\":8668:8680   */\n      add\n        /* \"#utility.yul\":8661:8680   */\n      swap1\n      pop\n        /* \"#utility.yul\":8466:8686   */\n      swap2\n      swap1\n      pop\n      jump\t// out\n        /* \"#utility.yul\":8692:9058   */\n    tag_470:\n      0x00\n        /* \"#utility.yul\":8855:8922   */\n      tag_472\n        /* \"#utility.yul\":8919:8921   */\n      0x3e\n        /* \"#utility.yul\":8914:8917   */\n      dup4\n        /* \"#utility.yul\":8855:8922   */\n      tag_436\n      jump\t// in\n    tag_472:\n        /* \"#utility.yul\":8848:8922   */\n      swap2\n      pop\n        /* \"#utility.yul\":8931:9024   */\n      tag_473\n        /* \"#utility.yul\":9020:9023   */\n      dup3\n        /* \"#utility.yul\":8931:9024   */\n      tag_474\n      jump\t// in\n    tag_473:\n        /* \"#utility.yul\":9049:9051   */\n      0x40\n        /* \"#utility.yul\":9044:9047   */\n      dup3\n        /* \"#utility.yul\":9040:9052   */\n      add\n        /* \"#utility.yul\":9033:9052   */\n      swap1\n      pop\n        /* \"#utility.yul\":8838:9058   */\n      swap2\n      swap1\n      pop\n      jump\t// out\n        /* \"#utility.yul\":9064:9430   */\n    tag_475:\n      0x00\n        /* \"#utility.yul\":9227:9294   */\n      tag_477\n        /* \"#utility.yul\":9291:9293   */\n      0x18\n        /* \"#utility.yul\":9286:9289   */\n      dup4\n        /* \"#utility.yul\":9227:9294   */\n      tag_436\n      jump\t// in\n    tag_477:\n        /* \"#utility.yul\":9220:9294   */\n      swap2\n      pop\n        /* \"#utility.yul\":9303:9396   */\n      tag_478\n        /* \"#utility.yul\":9392:9395   */\n      dup3\n        /* \"#utility.yul\":9303:9396   */\n      tag_479\n      jump\t// in\n    tag_478:\n        /* \"#utility.yul\":9421:9423   */\n      0x20\n        /* \"#utility.yul\":9416:9419   */\n      dup3\n        /* \"#utility.yul\":9412:9424   */\n      add\n        /* \"#utility.yul\":9405:9424   */\n      swap1\n      pop\n        /* \"#utility.yul\":9210:9430   */\n      swap2\n      swap1\n      pop\n      jump\t// out\n        /* \"#utility.yul\":9436:9802   */\n    tag_480:\n      0x00\n        /* \"#utility.yul\":9599:9666   */\n      tag_482\n        /* \"#utility.yul\":9663:9665   */\n      0x21\n        /* \"#utility.yul\":9658:9661   */\n      dup4\n        /* \"#utility.yul\":9599:9666   */\n      tag_436\n      jump\t// in\n    tag_482:\n        /* \"#utility.yul\":9592:9666   */\n      swap2\n      pop\n        /* \"#utility.yul\":9675:9768   */\n      tag_483\n        /* \"#utility.yul\":9764:9767   */\n      dup3\n        /* \"#utility.yul\":9675:9768   */\n      tag_484\n      jump\t// in\n    tag_483:\n        /* \"#utility.yul\":9793:9795   */\n      0x40\n        /* \"#utility.yul\":9788:9791   */\n      dup3\n        /* \"#utility.yul\":9784:9796   */\n      add\n        /* \"#utility.yul\":9777:9796   */\n      swap1\n      pop\n        /* \"#utility.yul\":9582:9802   */\n      swap2\n      swap1\n      pop\n      jump\t// out\n        /* \"#utility.yul\":9808:10174   */\n    tag_485:\n      0x00\n        /* \"#utility.yul\":9971:10038   */\n      tag_487\n        /* \"#utility.yul\":10035:10037   */\n      0x2e\n        /* \"#utility.yul\":10030:10033   */\n      dup4\n        /* \"#utility.yul\":9971:10038   */\n      tag_436\n      jump\t// in\n    tag_487:\n        /* \"#utility.yul\":9964:10038   */\n      swap2\n      pop\n        /* \"#utility.yul\":10047:10140   */\n      tag_488\n        /* \"#utility.yul\":10136:10139   */\n      dup3\n        /* \"#utility.yul\":10047:10140   */\n      tag_489\n      jump\t// in\n    tag_488:\n        /* \"#utility.yul\":10165:10167   */\n      0x40\n        /* \"#utility.yul\":10160:10163   */\n      dup3\n        /* \"#utility.yul\":10156:10168   */\n      add\n        /* \"#utility.yul\":10149:10168   */\n      swap1\n      pop\n        /* \"#utility.yul\":9954:10174   */\n      swap2\n      swap1\n      pop\n      jump\t// out\n        /* \"#utility.yul\":10180:10546   */\n    tag_490:\n      0x00\n        /* \"#utility.yul\":10343:10410   */\n      tag_492\n        /* \"#utility.yul\":10407:10409   */\n      0x21\n        /* \"#utility.yul\":10402:10405   */\n      dup4\n        /* \"#utility.yul\":10343:10410   */\n      tag_436\n      jump\t// in\n    tag_492:\n        /* \"#utility.yul\":10336:10410   */\n      swap2\n      pop\n        /* \"#utility.yul\":10419:10512   */\n      tag_493\n        /* \"#utility.yul\":10508:10511   */\n      dup3\n        /* \"#utility.yul\":10419:10512   */\n      tag_494\n      jump\t// in\n    tag_493:\n        /* \"#utility.yul\":10537:10539   */\n      0x40\n        /* \"#utility.yul\":10532:10535   */\n      dup3\n        /* \"#utility.yul\":10528:10540   */\n      add\n        /* \"#utility.yul\":10521:10540   */\n      swap1\n      pop\n        /* \"#utility.yul\":10326:10546   */\n      swap2\n      swap1\n      pop\n      jump\t// out\n        /* \"#utility.yul\":10552:10918   */\n    tag_495:\n      0x00\n        /* \"#utility.yul\":10715:10782   */\n      tag_497\n        /* \"#utility.yul\":10779:10781   */\n      0x1a\n        /* \"#utility.yul\":10774:10777   */\n      dup4\n        /* \"#utility.yul\":10715:10782   */\n      tag_436\n      jump\t// in\n    tag_497:\n        /* \"#utility.yul\":10708:10782   */\n      swap2\n      pop\n        /* \"#utility.yul\":10791:10884   */\n      tag_498\n        /* \"#utility.yul\":10880:10883   */\n      dup3\n        /* \"#utility.yul\":10791:10884   */\n      tag_499\n      jump\t// in\n    tag_498:\n        /* \"#utility.yul\":10909:10911   */\n      0x20\n        /* \"#utility.yul\":10904:10907   */\n      dup3\n        /* \"#utility.yul\":10900:10912   */\n      add\n        /* \"#utility.yul\":10893:10912   */\n      swap1\n      pop\n        /* \"#utility.yul\":10698:10918   */\n      swap2\n      swap1\n      pop\n      jump\t// out\n        /* \"#utility.yul\":10924:11042   */\n    tag_500:\n        /* \"#utility.yul\":11011:11035   */\n      tag_502\n        /* \"#utility.yul\":11029:11034   */\n      dup2\n        /* \"#utility.yul\":11011:11035   */\n      tag_503\n      jump\t// in\n    tag_502:\n        /* \"#utility.yul\":11006:11009   */\n      dup3\n        /* \"#utility.yul\":10999:11036   */\n      mstore\n        /* \"#utility.yul\":10989:11042   */\n      pop\n      pop\n      jump\t// out\n        /* \"#utility.yul\":11048:11483   */\n    tag_244:\n      0x00\n        /* \"#utility.yul\":11250:11345   */\n      tag_505\n        /* \"#utility.yul\":11341:11344   */\n      dup3\n        /* \"#utility.yul\":11332:11338   */\n      dup6\n        /* \"#utility.yul\":11250:11345   */\n      tag_439\n      jump\t// in\n    tag_505:\n        /* \"#utility.yul\":11243:11345   */\n      swap2\n      pop\n        /* \"#utility.yul\":11362:11457   */\n      tag_506\n        /* \"#utility.yul\":11453:11456   */\n      dup3\n        /* \"#utility.yul\":11444:11450   */\n      dup5\n        /* \"#utility.yul\":11362:11457   */\n      tag_439\n      jump\t// in\n    tag_506:\n        /* \"#utility.yul\":11355:11457   */\n      swap2\n      pop\n        /* \"#utility.yul\":11474:11477   */\n      dup2\n        /* \"#utility.yul\":11467:11477   */\n      swap1\n      pop\n        /* \"#utility.yul\":11232:11483   */\n      swap4\n      swap3\n      pop\n      pop\n      pop\n      jump\t// out\n        /* \"#utility.yul\":11489:11711   */\n    tag_45:\n      0x00\n        /* \"#utility.yul\":11620:11622   */\n      0x20\n        /* \"#utility.yul\":11609:11618   */\n      dup3\n        /* \"#utility.yul\":11605:11623   */\n      add\n        /* \"#utility.yul\":11597:11623   */\n      swap1\n      pop\n        /* \"#utility.yul\":11633:11704   */\n      tag_508\n        /* \"#utility.yul\":11701:11702   */\n      0x00\n        /* \"#utility.yul\":11690:11699   */\n      dup4\n        /* \"#utility.yul\":11686:11703   */\n      add\n        /* \"#utility.yul\":11677:11683   */\n      dup5\n        /* \"#utility.yul\":11633:11704   */\n      tag_413\n      jump\t// in\n    tag_508:\n        /* \"#utility.yul\":11587:11711   */\n      swap3\n      swap2\n      pop\n      pop\n      jump\t// out\n        /* \"#utility.yul\":11717:12357   */\n    tag_323:\n      0x00\n        /* \"#utility.yul\":11950:11953   */\n      0x80\n        /* \"#utility.yul\":11939:11948   */\n      dup3\n        /* \"#utility.yul\":11935:11954   */\n      add\n        /* \"#utility.yul\":11927:11954   */\n      swap1\n      pop\n        /* \"#utility.yul\":11964:12035   */\n      tag_510\n        /* \"#utility.yul\":12032:12033   */\n      0x00\n        /* \"#utility.yul\":12021:12030   */\n      dup4\n        /* \"#utility.yul\":12017:12034   */\n      add\n        /* \"#utility.yul\":12008:12014   */\n      dup8\n        /* \"#utility.yul\":11964:12035   */\n      tag_413\n      jump\t// in\n    tag_510:\n        /* \"#utility.yul\":12045:12117   */\n      tag_511\n        /* \"#utility.yul\":12113:12115   */\n      0x20\n        /* \"#utility.yul\":12102:12111   */\n      dup4\n        /* \"#utility.yul\":12098:12116   */\n      add\n        /* \"#utility.yul\":12089:12095   */\n      dup7\n        /* \"#utility.yul\":12045:12117   */\n      tag_413\n      jump\t// in\n    tag_511:\n        /* \"#utility.yul\":12127:12199   */\n      tag_512\n        /* \"#utility.yul\":12195:12197   */\n      0x40\n        /* \"#utility.yul\":12184:12193   */\n      dup4\n        /* \"#utility.yul\":12180:12198   */\n      add\n        /* \"#utility.yul\":12171:12177   */\n      dup6\n        /* \"#utility.yul\":12127:12199   */\n      tag_500\n      jump\t// in\n    tag_512:\n        /* \"#utility.yul\":12246:12255   */\n      dup2\n        /* \"#utility.yul\":12240:12244   */\n      dup2\n        /* \"#utility.yul\":12236:12256   */\n      sub\n        /* \"#utility.yul\":12231:12233   */\n      0x60\n        /* \"#utility.yul\":12220:12229   */\n      dup4\n        /* \"#utility.yul\":12216:12234   */\n      add\n        /* \"#utility.yul\":12209:12257   */\n      mstore\n        /* \"#utility.yul\":12274:12350   */\n      tag_513\n        /* \"#utility.yul\":12345:12349   */\n      dup2\n        /* \"#utility.yul\":12336:12342   */\n      dup5\n        /* \"#utility.yul\":12274:12350   */\n      tag_421\n      jump\t// in\n    tag_513:\n        /* \"#utility.yul\":12266:12350   */\n      swap1\n      pop\n        /* \"#utility.yul\":11917:12357   */\n      swap6\n      swap5\n      pop\n      pop\n      pop\n      pop\n      pop\n      jump\t// out\n        /* \"#utility.yul\":12363:12573   */\n    tag_33:\n      0x00\n        /* \"#utility.yul\":12488:12490   */\n      0x20\n        /* \"#utility.yul\":12477:12486   */\n      dup3\n        /* \"#utility.yul\":12473:12491   */\n      add\n        /* \"#utility.yul\":12465:12491   */\n      swap1\n      pop\n        /* \"#utility.yul\":12501:12566   */\n      tag_515\n        /* \"#utility.yul\":12563:12564   */\n      0x00\n        /* \"#utility.yul\":12552:12561   */\n      dup4\n        /* \"#utility.yul\":12548:12565   */\n      add\n        /* \"#utility.yul\":12539:12545   */\n      dup5\n        /* \"#utility.yul\":12501:12566   */\n      tag_417\n      jump\t// in\n    tag_515:\n        /* \"#utility.yul\":12455:12573   */\n      swap3\n      swap2\n      pop\n      pop\n      jump\t// out\n        /* \"#utility.yul\":12579:12892   */\n    tag_38:\n      0x00\n        /* \"#utility.yul\":12730:12732   */\n      0x20\n        /* \"#utility.yul\":12719:12728   */\n      dup3\n        /* \"#utility.yul\":12715:12733   */\n      add\n        /* \"#utility.yul\":12707:12733   */\n      swap1\n      pop\n        /* \"#utility.yul\":12779:12788   */\n      dup2\n        /* \"#utility.yul\":12773:12777   */\n      dup2\n        /* \"#utility.yul\":12769:12789   */\n      sub\n        /* \"#utility.yul\":12765:12766   */\n      0x00\n        /* \"#utility.yul\":12754:12763   */\n      dup4\n        /* \"#utility.yul\":12750:12767   */\n      add\n        /* \"#utility.yul\":12743:12790   */\n      mstore\n        /* \"#utility.yul\":12807:12885   */\n      tag_517\n        /* \"#utility.yul\":12880:12884   */\n      dup2\n        /* \"#utility.yul\":12871:12877   */\n      dup5\n        /* \"#utility.yul\":12807:12885   */\n      tag_431\n      jump\t// in\n    tag_517:\n        /* \"#utility.yul\":12799:12885   */\n      swap1\n      pop\n        /* \"#utility.yul\":12697:12892   */\n      swap3\n      swap2\n      pop\n      pop\n      jump\t// out\n        /* \"#utility.yul\":12898:13317   */\n    tag_296:\n      0x00\n        /* \"#utility.yul\":13102:13104   */\n      0x20\n        /* \"#utility.yul\":13091:13100   */\n      dup3\n        /* \"#utility.yul\":13087:13105   */\n      add\n        /* \"#utility.yul\":13079:13105   */\n      swap1\n      pop\n        /* \"#utility.yul\":13151:13160   */\n      dup2\n        /* \"#utility.yul\":13145:13149   */\n      dup2\n        /* \"#utility.yul\":13141:13161   */\n      sub\n        /* \"#utility.yul\":13137:13138   */\n      0x00\n        /* \"#utility.yul\":13126:13135   */\n      dup4\n        /* \"#utility.yul\":13122:13139   */\n      add\n        /* \"#utility.yul\":13115:13162   */\n      mstore\n        /* \"#utility.yul\":13179:13310   */\n      tag_519\n        /* \"#utility.yul\":13305:13309   */\n      dup2\n        /* \"#utility.yul\":13179:13310   */\n      tag_445\n      jump\t// in\n    tag_519:\n        /* \"#utility.yul\":13171:13310   */\n      swap1\n      pop\n        /* \"#utility.yul\":13069:13317   */\n      swap2\n      swap1\n      pop\n      jump\t// out\n        /* \"#utility.yul\":13323:13742   */\n    tag_266:\n      0x00\n        /* \"#utility.yul\":13527:13529   */\n      0x20\n        /* \"#utility.yul\":13516:13525   */\n      dup3\n        /* \"#utility.yul\":13512:13530   */\n      add\n        /* \"#utility.yul\":13504:13530   */\n      swap1\n      pop\n        /* \"#utility.yul\":13576:13585   */\n      dup2\n        /* \"#utility.yul\":13570:13574   */\n      dup2\n        /* \"#utility.yul\":13566:13586   */\n      sub\n        /* \"#utility.yul\":13562:13563   */\n      0x00\n        /* \"#utility.yul\":13551:13560   */\n      dup4\n        /* \"#utility.yul\":13547:13564   */\n      add\n        /* \"#utility.yul\":13540:13587   */\n      mstore\n        /* \"#utility.yul\":13604:13735   */\n      tag_521\n        /* \"#utility.yul\":13730:13734   */\n      dup2\n        /* \"#utility.yul\":13604:13735   */\n      tag_450\n      jump\t// in\n    tag_521:\n        /* \"#utility.yul\":13596:13735   */\n      swap1\n      pop\n        /* \"#utility.yul\":13494:13742   */\n      swap2\n      swap1\n      pop\n      jump\t// out\n        /* \"#utility.yul\":13748:14167   */\n    tag_269:\n      0x00\n        /* \"#utility.yul\":13952:13954   */\n      0x20\n        /* \"#utility.yul\":13941:13950   */\n      dup3\n        /* \"#utility.yul\":13937:13955   */\n      add\n        /* \"#utility.yul\":13929:13955   */\n      swap1\n      pop\n        /* \"#utility.yul\":14001:14010   */\n      dup2\n        /* \"#utility.yul\":13995:13999   */\n      dup2\n        /* \"#utility.yul\":13991:14011   */\n      sub\n        /* \"#utility.yul\":13987:13988   */\n      0x00\n        /* \"#utility.yul\":13976:13985   */\n      dup4\n        /* \"#utility.yul\":13972:13989   */\n      add\n        /* \"#utility.yul\":13965:14012   */\n      mstore\n        /* \"#utility.yul\":14029:14160   */\n      tag_523\n        /* \"#utility.yul\":14155:14159   */\n      dup2\n        /* \"#utility.yul\":14029:14160   */\n      tag_455\n      jump\t// in\n    tag_523:\n        /* \"#utility.yul\":14021:14160   */\n      swap1\n      pop\n        /* \"#utility.yul\":13919:14167   */\n      swap2\n      swap1\n      pop\n      jump\t// out\n        /* \"#utility.yul\":14173:14592   */\n    tag_288:\n      0x00\n        /* \"#utility.yul\":14377:14379   */\n      0x20\n        /* \"#utility.yul\":14366:14375   */\n      dup3\n        /* \"#utility.yul\":14362:14380   */\n      add\n        /* \"#utility.yul\":14354:14380   */\n      swap1\n      pop\n        /* \"#utility.yul\":14426:14435   */\n      dup2\n        /* \"#utility.yul\":14420:14424   */\n      dup2\n        /* \"#utility.yul\":14416:14436   */\n      sub\n        /* \"#utility.yul\":14412:14413   */\n      0x00\n        /* \"#utility.yul\":14401:14410   */\n      dup4\n        /* \"#utility.yul\":14397:14414   */\n      add\n        /* \"#utility.yul\":14390:14437   */\n      mstore\n        /* \"#utility.yul\":14454:14585   */\n      tag_525\n        /* \"#utility.yul\":14580:14584   */\n      dup2\n        /* \"#utility.yul\":14454:14585   */\n      tag_460\n      jump\t// in\n    tag_525:\n        /* \"#utility.yul\":14446:14585   */\n      swap1\n      pop\n        /* \"#utility.yul\":14344:14592   */\n      swap2\n      swap1\n      pop\n      jump\t// out\n        /* \"#utility.yul\":14598:15017   */\n    tag_192:\n      0x00\n        /* \"#utility.yul\":14802:14804   */\n      0x20\n        /* \"#utility.yul\":14791:14800   */\n      dup3\n        /* \"#utility.yul\":14787:14805   */\n      add\n        /* \"#utility.yul\":14779:14805   */\n      swap1\n      pop\n        /* \"#utility.yul\":14851:14860   */\n      dup2\n        /* \"#utility.yul\":14845:14849   */\n      dup2\n        /* \"#utility.yul\":14841:14861   */\n      sub\n        /* \"#utility.yul\":14837:14838   */\n      0x00\n        /* \"#utility.yul\":14826:14835   */\n      dup4\n        /* \"#utility.yul\":14822:14839   */\n      add\n        /* \"#utility.yul\":14815:14862   */\n      mstore\n        /* \"#utility.yul\":14879:15010   */\n      tag_527\n        /* \"#utility.yul\":15005:15009   */\n      dup2\n        /* \"#utility.yul\":14879:15010   */\n      tag_465\n      jump\t// in\n    tag_527:\n        /* \"#utility.yul\":14871:15010   */\n      swap1\n      pop\n        /* \"#utility.yul\":14769:15017   */\n      swap2\n      swap1\n      pop\n      jump\t// out\n        /* \"#utility.yul\":15023:15442   */\n    tag_166:\n      0x00\n        /* \"#utility.yul\":15227:15229   */\n      0x20\n        /* \"#utility.yul\":15216:15225   */\n      dup3\n        /* \"#utility.yul\":15212:15230   */\n      add\n        /* \"#utility.yul\":15204:15230   */\n      swap1\n      pop\n        /* \"#utility.yul\":15276:15285   */\n      dup2\n        /* \"#utility.yul\":15270:15274   */\n      dup2\n        /* \"#utility.yul\":15266:15286   */\n      sub\n        /* \"#utility.yul\":15262:15263   */\n      0x00\n        /* \"#utility.yul\":15251:15260   */\n      dup4\n        /* \"#utility.yul\":15247:15264   */\n      add\n        /* \"#utility.yul\":15240:15287   */\n      mstore\n        /* \"#utility.yul\":15304:15435   */\n      tag_529\n        /* \"#utility.yul\":15430:15434   */\n      dup2\n        /* \"#utility.yul\":15304:15435   */\n      tag_470\n      jump\t// in\n    tag_529:\n        /* \"#utility.yul\":15296:15435   */\n      swap1\n      pop\n        /* \"#utility.yul\":15194:15442   */\n      swap2\n      swap1\n      pop\n      jump\t// out\n        /* \"#utility.yul\":15448:15867   */\n    tag_188:\n      0x00\n        /* \"#utility.yul\":15652:15654   */\n      0x20\n        /* \"#utility.yul\":15641:15650   */\n      dup3\n        /* \"#utility.yul\":15637:15655   */\n      add\n        /* \"#utility.yul\":15629:15655   */\n      swap1\n      pop\n        /* \"#utility.yul\":15701:15710   */\n      dup2\n        /* \"#utility.yul\":15695:15699   */\n      dup2\n        /* \"#utility.yul\":15691:15711   */\n      sub\n        /* \"#utility.yul\":15687:15688   */\n      0x00\n        /* \"#utility.yul\":15676:15685   */\n      dup4\n        /* \"#utility.yul\":15672:15689   */\n      add\n        /* \"#utility.yul\":15665:15712   */\n      mstore\n        /* \"#utility.yul\":15729:15860   */\n      tag_531\n        /* \"#utility.yul\":15855:15859   */\n      dup2\n        /* \"#utility.yul\":15729:15860   */\n      tag_475\n      jump\t// in\n    tag_531:\n        /* \"#utility.yul\":15721:15860   */\n      swap1\n      pop\n        /* \"#utility.yul\":15619:15867   */\n      swap2\n      swap1\n      pop\n      jump\t// out\n        /* \"#utility.yul\":15873:16292   */\n    tag_158:\n      0x00\n        /* \"#utility.yul\":16077:16079   */\n      0x20\n        /* \"#utility.yul\":16066:16075   */\n      dup3\n        /* \"#utility.yul\":16062:16080   */\n      add\n        /* \"#utility.yul\":16054:16080   */\n      swap1\n      pop\n        /* \"#utility.yul\":16126:16135   */\n      dup2\n        /* \"#utility.yul\":16120:16124   */\n      dup2\n        /* \"#utility.yul\":16116:16136   */\n      sub\n        /* \"#utility.yul\":16112:16113   */\n      0x00\n        /* \"#utility.yul\":16101:16110   */\n      dup4\n        /* \"#utility.yul\":16097:16114   */\n      add\n        /* \"#utility.yul\":16090:16137   */\n      mstore\n        /* \"#utility.yul\":16154:16285   */\n      tag_533\n        /* \"#utility.yul\":16280:16284   */\n      dup2\n        /* \"#utility.yul\":16154:16285   */\n      tag_480\n      jump\t// in\n    tag_533:\n        /* \"#utility.yul\":16146:16285   */\n      swap1\n      pop\n        /* \"#utility.yul\":16044:16292   */\n      swap2\n      swap1\n      pop\n      jump\t// out\n        /* \"#utility.yul\":16298:16717   */\n    tag_175:\n      0x00\n        /* \"#utility.yul\":16502:16504   */\n      0x20\n        /* \"#utility.yul\":16491:16500   */\n      dup3\n        /* \"#utility.yul\":16487:16505   */\n      add\n        /* \"#utility.yul\":16479:16505   */\n      swap1\n      pop\n        /* \"#utility.yul\":16551:16560   */\n      dup2\n        /* \"#utility.yul\":16545:16549   */\n      dup2\n        /* \"#utility.yul\":16541:16561   */\n      sub\n        /* \"#utility.yul\":16537:16538   */\n      0x00\n        /* \"#utility.yul\":16526:16535   */\n      dup4\n        /* \"#utility.yul\":16522:16539   */\n      add\n        /* \"#utility.yul\":16515:16562   */\n      mstore\n        /* \"#utility.yul\":16579:16710   */\n      tag_535\n        /* \"#utility.yul\":16705:16709   */\n      dup2\n        /* \"#utility.yul\":16579:16710   */\n      tag_485\n      jump\t// in\n    tag_535:\n        /* \"#utility.yul\":16571:16710   */\n      swap1\n      pop\n        /* \"#utility.yul\":16469:16717   */\n      swap2\n      swap1\n      pop\n      jump\t// out\n        /* \"#utility.yul\":16723:17142   */\n    tag_181:\n      0x00\n        /* \"#utility.yul\":16927:16929   */\n      0x20\n        /* \"#utility.yul\":16916:16925   */\n      dup3\n        /* \"#utility.yul\":16912:16930   */\n      add\n        /* \"#utility.yul\":16904:16930   */\n      swap1\n      pop\n        /* \"#utility.yul\":16976:16985   */\n      dup2\n        /* \"#utility.yul\":16970:16974   */\n      dup2\n        /* \"#utility.yul\":16966:16986   */\n      sub\n        /* \"#utility.yul\":16962:16963   */\n      0x00\n        /* \"#utility.yul\":16951:16960   */\n      dup4\n        /* \"#utility.yul\":16947:16964   */\n      add\n        /* \"#utility.yul\":16940:16987   */\n      mstore\n        /* \"#utility.yul\":17004:17135   */\n      tag_537\n        /* \"#utility.yul\":17130:17134   */\n      dup2\n        /* \"#utility.yul\":17004:17135   */\n      tag_490\n      jump\t// in\n    tag_537:\n        /* \"#utility.yul\":16996:17135   */\n      swap1\n      pop\n        /* \"#utility.yul\":16894:17142   */\n      swap2\n      swap1\n      pop\n      jump\t// out\n        /* \"#utility.yul\":17148:17567   */\n    tag_222:\n      0x00\n        /* \"#utility.yul\":17352:17354   */\n      0x20\n        /* \"#utility.yul\":17341:17350   */\n      dup3\n        /* \"#utility.yul\":17337:17355   */\n      add\n        /* \"#utility.yul\":17329:17355   */\n      swap1\n      pop\n        /* \"#utility.yul\":17401:17410   */\n      dup2\n        /* \"#utility.yul\":17395:17399   */\n      dup2\n        /* \"#utility.yul\":17391:17411   */\n      sub\n        /* \"#utility.yul\":17387:17388   */\n      0x00\n        /* \"#utility.yul\":17376:17385   */\n      dup4\n        /* \"#utility.yul\":17372:17389   */\n      add\n        /* \"#utility.yul\":17365:17412   */\n      mstore\n        /* \"#utility.yul\":17429:17560   */\n      tag_539\n        /* \"#utility.yul\":17555:17559   */\n      dup2\n        /* \"#utility.yul\":17429:17560   */\n      tag_495\n      jump\t// in\n    tag_539:\n        /* \"#utility.yul\":17421:17560   */\n      swap1\n      pop\n        /* \"#utility.yul\":17319:17567   */\n      swap2\n      swap1\n      pop\n      jump\t// out\n        /* \"#utility.yul\":17573:17795   */\n    tag_73:\n      0x00\n        /* \"#utility.yul\":17704:17706   */\n      0x20\n        /* \"#utility.yul\":17693:17702   */\n      dup3\n        /* \"#utility.yul\":17689:17707   */\n      add\n        /* \"#utility.yul\":17681:17707   */\n      swap1\n      pop\n        /* \"#utility.yul\":17717:17788   */\n      tag_541\n        /* \"#utility.yul\":17785:17786   */\n      0x00\n        /* \"#utility.yul\":17774:17783   */\n      dup4\n        /* \"#utility.yul\":17770:17787   */\n      add\n        /* \"#utility.yul\":17761:17767   */\n      dup5\n        /* \"#utility.yul\":17717:17788   */\n      tag_500\n      jump\t// in\n    tag_541:\n        /* \"#utility.yul\":17671:17795   */\n      swap3\n      swap2\n      pop\n      pop\n      jump\t// out\n        /* \"#utility.yul\":17801:18342   */\n    tag_113:\n      0x00\n        /* \"#utility.yul\":18010:18013   */\n      0x80\n        /* \"#utility.yul\":17999:18008   */\n      dup3\n        /* \"#utility.yul\":17995:18014   */\n      add\n        /* \"#utility.yul\":17987:18014   */\n      swap1\n      pop\n        /* \"#utility.yul\":18024:18095   */\n      tag_543\n        /* \"#utility.yul\":18092:18093   */\n      0x00\n        /* \"#utility.yul\":18081:18090   */\n      dup4\n        /* \"#utility.yul\":18077:18094   */\n      add\n        /* \"#utility.yul\":18068:18074   */\n      dup8\n        /* \"#utility.yul\":18024:18095   */\n      tag_500\n      jump\t// in\n    tag_543:\n        /* \"#utility.yul\":18105:18177   */\n      tag_544\n        /* \"#utility.yul\":18173:18175   */\n      0x20\n        /* \"#utility.yul\":18162:18171   */\n      dup4\n        /* \"#utility.yul\":18158:18176   */\n      add\n        /* \"#utility.yul\":18149:18155   */\n      dup7\n        /* \"#utility.yul\":18105:18177   */\n      tag_500\n      jump\t// in\n    tag_544:\n        /* \"#utility.yul\":18187:18259   */\n      tag_545\n        /* \"#utility.yul\":18255:18257   */\n      0x40\n        /* \"#utility.yul\":18244:18253   */\n      dup4\n        /* \"#utility.yul\":18240:18258   */\n      add\n        /* \"#utility.yul\":18231:18237   */\n      dup6\n        /* \"#utility.yul\":18187:18259   */\n      tag_500\n      jump\t// in\n    tag_545:\n        /* \"#utility.yul\":18269:18335   */\n      tag_546\n        /* \"#utility.yul\":18331:18333   */\n      0x60\n        /* \"#utility.yul\":18320:18329   */\n      dup4\n        /* \"#utility.yul\":18316:18334   */\n      add\n        /* \"#utility.yul\":18307:18313   */\n      dup5\n        /* \"#utility.yul\":18269:18335   */\n      tag_417\n      jump\t// in\n    tag_546:\n        /* \"#utility.yul\":17977:18342   */\n      swap6\n      swap5\n      pop\n      pop\n      pop\n      pop\n      pop\n      jump\t// out\n        /* \"#utility.yul\":18348:18477   */\n    tag_346:\n      0x00\n        /* \"#utility.yul\":18409:18429   */\n      tag_548\n      tag_549\n      jump\t// in\n    tag_548:\n        /* \"#utility.yul\":18399:18429   */\n      swap1\n      pop\n        /* \"#utility.yul\":18438:18471   */\n      tag_550\n        /* \"#utility.yul\":18466:18470   */\n      dup3\n        /* \"#utility.yul\":18458:18464   */\n      dup3\n        /* \"#utility.yul\":18438:18471   */\n      tag_551\n      jump\t// in\n    tag_550:\n        /* \"#utility.yul\":18389:18477   */\n      swap2\n      swap1\n      pop\n      jump\t// out\n        /* \"#utility.yul\":18483:18558   */\n    tag_549:\n      0x00\n        /* \"#utility.yul\":18549:18551   */\n      0x40\n        /* \"#utility.yul\":18543:18552   */\n      mload\n        /* \"#utility.yul\":18533:18552   */\n      swap1\n      pop\n        /* \"#utility.yul\":18523:18558   */\n      swap1\n      jump\t// out\n        /* \"#utility.yul\":18564:18871   */\n    tag_345:\n      0x00\n        /* \"#utility.yul\":18715:18733   */\n      0xffffffffffffffff\n        /* \"#utility.yul\":18707:18713   */\n      dup3\n        /* \"#utility.yul\":18704:18734   */\n      gt\n        /* \"#utility.yul\":18701:18703   */\n      iszero\n      tag_554\n      jumpi\n        /* \"#utility.yul\":18737:18755   */\n      tag_555\n      tag_556\n      jump\t// in\n    tag_555:\n        /* \"#utility.yul\":18701:18703   */\n    tag_554:\n        /* \"#utility.yul\":18775:18804   */\n      tag_557\n        /* \"#utility.yul\":18797:18803   */\n      dup3\n        /* \"#utility.yul\":18775:18804   */\n      tag_430\n      jump\t// in\n    tag_557:\n        /* \"#utility.yul\":18767:18804   */\n      swap1\n      pop\n        /* \"#utility.yul\":18859:18863   */\n      0x20\n        /* \"#utility.yul\":18853:18857   */\n      dup2\n        /* \"#utility.yul\":18849:18864   */\n      add\n        /* \"#utility.yul\":18841:18864   */\n      swap1\n      pop\n        /* \"#utility.yul\":18630:18871   */\n      swap2\n      swap1\n      pop\n      jump\t// out\n        /* \"#utility.yul\":18877:18975   */\n    tag_424:\n      0x00\n        /* \"#utility.yul\":18962:18967   */\n      dup2\n        /* \"#utility.yul\":18956:18968   */\n      mload\n        /* \"#utility.yul\":18946:18968   */\n      swap1\n      pop\n        /* \"#utility.yul\":18935:18975   */\n      swap2\n      swap1\n      pop\n      jump\t// out\n        /* \"#utility.yul\":18981:19080   */\n    tag_434:\n      0x00\n        /* \"#utility.yul\":19067:19072   */\n      dup2\n        /* \"#utility.yul\":19061:19073   */\n      mload\n        /* \"#utility.yul\":19051:19073   */\n      swap1\n      pop\n        /* \"#utility.yul\":19040:19080   */\n      swap2\n      swap1\n      pop\n      jump\t// out\n        /* \"#utility.yul\":19086:19254   */\n    tag_426:\n      0x00\n        /* \"#utility.yul\":19203:19209   */\n      dup3\n        /* \"#utility.yul\":19198:19201   */\n      dup3\n        /* \"#utility.yul\":19191:19210   */\n      mstore\n        /* \"#utility.yul\":19243:19247   */\n      0x20\n        /* \"#utility.yul\":19238:19241   */\n      dup3\n        /* \"#utility.yul\":19234:19248   */\n      add\n        /* \"#utility.yul\":19219:19248   */\n      swap1\n      pop\n        /* \"#utility.yul\":19181:19254   */\n      swap3\n      swap2\n      pop\n      pop\n      jump\t// out\n        /* \"#utility.yul\":19260:19429   */\n    tag_436:\n      0x00\n        /* \"#utility.yul\":19378:19384   */\n      dup3\n        /* \"#utility.yul\":19373:19376   */\n      dup3\n        /* \"#utility.yul\":19366:19385   */\n      mstore\n        /* \"#utility.yul\":19418:19422   */\n      0x20\n        /* \"#utility.yul\":19413:19416   */\n      dup3\n        /* \"#utility.yul\":19409:19423   */\n      add\n        /* \"#utility.yul\":19394:19423   */\n      swap1\n      pop\n        /* \"#utility.yul\":19356:19429   */\n      swap3\n      swap2\n      pop\n      pop\n      jump\t// out\n        /* \"#utility.yul\":19435:19583   */\n    tag_443:\n      0x00\n        /* \"#utility.yul\":19574:19577   */\n      dup2\n        /* \"#utility.yul\":19559:19577   */\n      swap1\n      pop\n        /* \"#utility.yul\":19549:19583   */\n      swap3\n      swap2\n      pop\n      pop\n      jump\t// out\n        /* \"#utility.yul\":19589:19894   */\n    tag_276:\n      0x00\n        /* \"#utility.yul\":19648:19668   */\n      tag_564\n        /* \"#utility.yul\":19666:19667   */\n      dup3\n        /* \"#utility.yul\":19648:19668   */\n      tag_503\n      jump\t// in\n    tag_564:\n        /* \"#utility.yul\":19643:19668   */\n      swap2\n      pop\n        /* \"#utility.yul\":19682:19702   */\n      tag_565\n        /* \"#utility.yul\":19700:19701   */\n      dup4\n        /* \"#utility.yul\":19682:19702   */\n      tag_503\n      jump\t// in\n    tag_565:\n        /* \"#utility.yul\":19677:19702   */\n      swap3\n      pop\n        /* \"#utility.yul\":19836:19837   */\n      dup3\n        /* \"#utility.yul\":19768:19834   */\n      0xffffffffffffffffffffffffffffffffffffffffffffffffffffffffffffffff\n        /* \"#utility.yul\":19764:19838   */\n      sub\n        /* \"#utility.yul\":19761:19762   */\n      dup3\n        /* \"#utility.yul\":19758:19839   */\n      gt\n        /* \"#utility.yul\":19755:19757   */\n      iszero\n      tag_566\n      jumpi\n        /* \"#utility.yul\":19842:19860   */\n      tag_567\n      tag_568\n      jump\t// in\n    tag_567:\n        /* \"#utility.yul\":19755:19757   */\n    tag_566:\n        /* \"#utility.yul\":19886:19887   */\n      dup3\n        /* \"#utility.yul\":19883:19884   */\n      dup3\n        /* \"#utility.yul\":19879:19888   */\n      add\n        /* \"#utility.yul\":19872:19888   */\n      swap1\n      pop\n        /* \"#utility.yul\":19633:19894   */\n      swap3\n      swap2\n      pop\n      pop\n      jump\t// out\n        /* \"#utility.yul\":19900:20085   */\n    tag_283:\n      0x00\n        /* \"#utility.yul\":19957:19977   */\n      tag_570\n        /* \"#utility.yul\":19975:19976   */\n      dup3\n        /* \"#utility.yul\":19957:19977   */\n      tag_503\n      jump\t// in\n    tag_570:\n        /* \"#utility.yul\":19952:19977   */\n      swap2\n      pop\n        /* \"#utility.yul\":19991:20011   */\n      tag_571\n        /* \"#utility.yul\":20009:20010   */\n      dup4\n        /* \"#utility.yul\":19991:20011   */\n      tag_503\n      jump\t// in\n    tag_571:\n        /* \"#utility.yul\":19986:20011   */\n      swap3\n      pop\n        /* \"#utility.yul\":20030:20031   */\n      dup3\n        /* \"#utility.yul\":20020:20022   */\n      tag_572\n      jumpi\n        /* \"#utility.yul\":20035:20053   */\n      tag_573\n      tag_574\n      jump\t// in\n    tag_573:\n        /* \"#utility.yul\":20020:20022   */\n    tag_572:\n        /* \"#utility.yul\":20077:20078   */\n      dup3\n        /* \"#utility.yul\":20074:20075   */\n      dup3\n        /* \"#utility.yul\":20070:20079   */\n      div\n        /* \"#utility.yul\":20065:20079   */\n      swap1\n      pop\n        /* \"#utility.yul\":19942:20085   */\n      swap3\n      swap2\n      pop\n      pop\n      jump\t// out\n        /* \"#utility.yul\":20091:20439   */\n    tag_281:\n      0x00\n        /* \"#utility.yul\":20154:20174   */\n      tag_576\n        /* \"#utility.yul\":20172:20173   */\n      dup3\n        /* \"#utility.yul\":20154:20174   */\n      tag_503\n      jump\t// in\n    tag_576:\n        /* \"#utility.yul\":20149:20174   */\n      swap2\n      pop\n        /* \"#utility.yul\":20188:20208   */\n      tag_577\n        /* \"#utility.yul\":20206:20207   */\n      dup4\n        /* \"#utility.yul\":20188:20208   */\n      tag_503\n      jump\t// in\n    tag_577:\n        /* \"#utility.yul\":20183:20208   */\n      swap3\n      pop\n        /* \"#utility.yul\":20376:20377   */\n      dup2\n        /* \"#utility.yul\":20308:20374   */\n      0xffffffffffffffffffffffffffffffffffffffffffffffffffffffffffffffff\n        /* \"#utility.yul\":20304:20378   */\n      div\n        /* \"#utility.yul\":20301:20302   */\n      dup4\n        /* \"#utility.yul\":20298:20379   */\n      gt\n        /* \"#utility.yul\":20293:20294   */\n      dup3\n        /* \"#utility.yul\":20286:20295   */\n      iszero\n        /* \"#utility.yul\":20279:20296   */\n      iszero\n        /* \"#utility.yul\":20275:20380   */\n      and\n        /* \"#utility.yul\":20272:20274   */\n      iszero\n      tag_578\n      jumpi\n        /* \"#utility.yul\":20383:20401   */\n      tag_579\n      tag_568\n      jump\t// in\n    tag_579:\n        /* \"#utility.yul\":20272:20274   */\n    tag_578:\n        /* \"#utility.yul\":20431:20432   */\n      dup3\n        /* \"#utility.yul\":20428:20429   */\n      dup3\n        /* \"#utility.yul\":20424:20433   */\n      mul\n        /* \"#utility.yul\":20413:20433   */\n      swap1\n      pop\n        /* \"#utility.yul\":20139:20439   */\n      swap3\n      swap2\n      pop\n      pop\n      jump\t// out\n        /* \"#utility.yul\":20445:20636   */\n    tag_274:\n      0x00\n        /* \"#utility.yul\":20505:20525   */\n      tag_581\n        /* \"#utility.yul\":20523:20524   */\n      dup3\n        /* \"#utility.yul\":20505:20525   */\n      tag_503\n      jump\t// in\n    tag_581:\n        /* \"#utility.yul\":20500:20525   */\n      swap2\n      pop\n        /* \"#utility.yul\":20539:20559   */\n      tag_582\n        /* \"#utility.yul\":20557:20558   */\n      dup4\n        /* \"#utility.yul\":20539:20559   */\n      tag_503\n      jump\t// in\n    tag_582:\n        /* \"#utility.yul\":20534:20559   */\n      swap3\n      pop\n        /* \"#utility.yul\":20578:20579   */\n      dup3\n        /* \"#utility.yul\":20575:20576   */\n      dup3\n        /* \"#utility.yul\":20572:20580   */\n      lt\n        /* \"#utility.yul\":20569:20571   */\n      iszero\n      tag_583\n      jumpi\n        /* \"#utility.yul\":20583:20601   */\n      tag_584\n      tag_568\n      jump\t// in\n    tag_584:\n        /* \"#utility.yul\":20569:20571   */\n    tag_583:\n        /* \"#utility.yul\":20628:20629   */\n      dup3\n        /* \"#utility.yul\":20625:20626   */\n      dup3\n        /* \"#utility.yul\":20621:20630   */\n      sub\n        /* \"#utility.yul\":20613:20630   */\n      swap1\n      pop\n        /* \"#utility.yul\":20490:20636   */\n      swap3\n      swap2\n      pop\n      pop\n      jump\t// out\n        /* \"#utility.yul\":20642:20738   */\n    tag_416:\n      0x00\n        /* \"#utility.yul\":20708:20732   */\n      tag_586\n        /* \"#utility.yul\":20726:20731   */\n      dup3\n        /* \"#utility.yul\":20708:20732   */\n      tag_587\n      jump\t// in\n    tag_586:\n        /* \"#utility.yul\":20697:20732   */\n      swap1\n      pop\n        /* \"#utility.yul\":20687:20738   */\n      swap2\n      swap1\n      pop\n      jump\t// out\n        /* \"#utility.yul\":20744:20834   */\n    tag_420:\n      0x00\n        /* \"#utility.yul\":20821:20826   */\n      dup2\n        /* \"#utility.yul\":20814:20827   */\n      iszero\n        /* \"#utility.yul\":20807:20828   */\n      iszero\n        /* \"#utility.yul\":20796:20828   */\n      swap1\n      pop\n        /* \"#utility.yul\":20786:20834   */\n      swap2\n      swap1\n      pop\n      jump\t// out\n        /* \"#utility.yul\":20840:20989   */\n    tag_589:\n      0x00\n        /* \"#utility.yul\":20916:20982   */\n      0xffffffff00000000000000000000000000000000000000000000000000000000\n        /* \"#utility.yul\":20909:20914   */\n      dup3\n        /* \"#utility.yul\":20905:20983   */\n      and\n        /* \"#utility.yul\":20894:20983   */\n      swap1\n      pop\n        /* \"#utility.yul\":20884:20989   */\n      swap2\n      swap1\n      pop\n      jump\t// out\n        /* \"#utility.yul\":20995:21121   */\n    tag_587:\n      0x00\n        /* \"#utility.yul\":21072:21114   */\n      0xffffffffffffffffffffffffffffffffffffffff\n        /* \"#utility.yul\":21065:21070   */\n      dup3\n        /* \"#utility.yul\":21061:21115   */\n      and\n        /* \"#utility.yul\":21050:21115   */\n      swap1\n      pop\n        /* \"#utility.yul\":21040:21121   */\n      swap2\n      swap1\n      pop\n      jump\t// out\n        /* \"#utility.yul\":21127:21204   */\n    tag_503:\n      0x00\n        /* \"#utility.yul\":21193:21198   */\n      dup2\n        /* \"#utility.yul\":21182:21198   */\n      swap1\n      pop\n        /* \"#utility.yul\":21172:21204   */\n      swap2\n      swap1\n      pop\n      jump\t// out\n        /* \"#utility.yul\":21210:21364   */\n    tag_349:\n        /* \"#utility.yul\":21294:21300   */\n      dup3\n        /* \"#utility.yul\":21289:21292   */\n      dup2\n        /* \"#utility.yul\":21284:21287   */\n      dup4\n        /* \"#utility.yul\":21271:21301   */\n      calldatacopy\n        /* \"#utility.yul\":21356:21357   */\n      0x00\n        /* \"#utility.yul\":21347:21353   */\n      dup4\n        /* \"#utility.yul\":21342:21345   */\n      dup4\n        /* \"#utility.yul\":21338:21354   */\n      add\n        /* \"#utility.yul\":21331:21358   */\n      mstore\n        /* \"#utility.yul\":21261:21364   */\n      pop\n      pop\n      pop\n      jump\t// out\n        /* \"#utility.yul\":21370:21677   */\n    tag_428:\n        /* \"#utility.yul\":21438:21439   */\n      0x00\n        /* \"#utility.yul\":21448:21561   */\n    tag_595:\n        /* \"#utility.yul\":21462:21468   */\n      dup4\n        /* \"#utility.yul\":21459:21460   */\n      dup2\n        /* \"#utility.yul\":21456:21469   */\n      lt\n        /* \"#utility.yul\":21448:21561   */\n      iszero\n      tag_597\n      jumpi\n        /* \"#utility.yul\":21547:21548   */\n      dup1\n        /* \"#utility.yul\":21542:21545   */\n      dup3\n        /* \"#utility.yul\":21538:21549   */\n      add\n        /* \"#utility.yul\":21532:21550   */\n      mload\n        /* \"#utility.yul\":21528:21529   */\n      dup2\n        /* \"#utility.yul\":21523:21526   */\n      dup5\n        /* \"#utility.yul\":21519:21530   */\n      add\n        /* \"#utility.yul\":21512:21551   */\n      mstore\n        /* \"#utility.yul\":21484:21486   */\n      0x20\n        /* \"#utility.yul\":21481:21482   */\n      dup2\n        /* \"#utility.yul\":21477:21487   */\n      add\n        /* \"#utility.yul\":21472:21487   */\n      swap1\n      pop\n        /* \"#utility.yul\":21448:21561   */\n      jump(tag_595)\n    tag_597:\n        /* \"#utility.yul\":21579:21585   */\n      dup4\n        /* \"#utility.yul\":21576:21577   */\n      dup2\n        /* \"#utility.yul\":21573:21586   */\n      gt\n        /* \"#utility.yul\":21570:21572   */\n      iszero\n      tag_598\n      jumpi\n        /* \"#utility.yul\":21659:21660   */\n      0x00\n        /* \"#utility.yul\":21650:21656   */\n      dup5\n        /* \"#utility.yul\":21645:21648   */\n      dup5\n        /* \"#utility.yul\":21641:21657   */\n      add\n        /* \"#utility.yul\":21634:21661   */\n      mstore\n        /* \"#utility.yul\":21570:21572   */\n    tag_598:\n        /* \"#utility.yul\":21419:21677   */\n      pop\n      pop\n      pop\n      pop\n      jump\t// out\n        /* \"#utility.yul\":21683:21854   */\n    tag_200:\n      0x00\n        /* \"#utility.yul\":21745:21769   */\n      tag_600\n        /* \"#utility.yul\":21763:21768   */\n      dup3\n        /* \"#utility.yul\":21745:21769   */\n      tag_503\n      jump\t// in\n    tag_600:\n        /* \"#utility.yul\":21736:21769   */\n      swap2\n      pop\n        /* \"#utility.yul\":21791:21795   */\n      0x00\n        /* \"#utility.yul\":21784:21789   */\n      dup3\n        /* \"#utility.yul\":21781:21796   */\n      eq\n        /* \"#utility.yul\":21778:21780   */\n      iszero\n      tag_601\n      jumpi\n        /* \"#utility.yul\":21799:21817   */\n      tag_602\n      tag_568\n      jump\t// in\n    tag_602:\n        /* \"#utility.yul\":21778:21780   */\n    tag_601:\n        /* \"#utility.yul\":21846:21847   */\n      0x01\n        /* \"#utility.yul\":21839:21844   */\n      dup3\n        /* \"#utility.yul\":21835:21848   */\n      sub\n        /* \"#utility.yul\":21828:21848   */\n      swap1\n      pop\n        /* \"#utility.yul\":21726:21854   */\n      swap2\n      swap1\n      pop\n      jump\t// out\n        /* \"#utility.yul\":21860:22180   */\n    tag_146:\n      0x00\n        /* \"#utility.yul\":21941:21942   */\n      0x02\n        /* \"#utility.yul\":21935:21939   */\n      dup3\n        /* \"#utility.yul\":21931:21943   */\n      div\n        /* \"#utility.yul\":21921:21943   */\n      swap1\n      pop\n        /* \"#utility.yul\":21988:21989   */\n      0x01\n        /* \"#utility.yul\":21982:21986   */\n      dup3\n        /* \"#utility.yul\":21978:21990   */\n      and\n        /* \"#utility.yul\":22009:22027   */\n      dup1\n        /* \"#utility.yul\":21999:22001   */\n      tag_604\n      jumpi\n        /* \"#utility.yul\":22065:22069   */\n      0x7f\n        /* \"#utility.yul\":22057:22063   */\n      dup3\n        /* \"#utility.yul\":22053:22070   */\n      and\n        /* \"#utility.yul\":22043:22070   */\n      swap2\n      pop\n        /* \"#utility.yul\":21999:22001   */\n    tag_604:\n        /* \"#utility.yul\":22127:22129   */\n      0x20\n        /* \"#utility.yul\":22119:22125   */\n      dup3\n        /* \"#utility.yul\":22116:22130   */\n      lt\n        /* \"#utility.yul\":22096:22114   */\n      dup2\n        /* \"#utility.yul\":22093:22131   */\n      eq\n        /* \"#utility.yul\":22090:22092   */\n      iszero\n      tag_605\n      jumpi\n        /* \"#utility.yul\":22146:22164   */\n      tag_606\n      tag_607\n      jump\t// in\n    tag_606:\n        /* \"#utility.yul\":22090:22092   */\n    tag_605:\n        /* \"#utility.yul\":21911:22180   */\n      pop\n      swap2\n      swap1\n      pop\n      jump\t// out\n        /* \"#utility.yul\":22186:22467   */\n    tag_551:\n        /* \"#utility.yul\":22269:22296   */\n      tag_609\n        /* \"#utility.yul\":22291:22295   */\n      dup3\n        /* \"#utility.yul\":22269:22296   */\n      tag_430\n      jump\t// in\n    tag_609:\n        /* \"#utility.yul\":22261:22267   */\n      dup2\n        /* \"#utility.yul\":22257:22297   */\n      add\n        /* \"#utility.yul\":22399:22405   */\n      dup2\n        /* \"#utility.yul\":22387:22397   */\n      dup2\n        /* \"#utility.yul\":22384:22406   */\n      lt\n        /* \"#utility.yul\":22363:22381   */\n      0xffffffffffffffff\n        /* \"#utility.yul\":22351:22361   */\n      dup3\n        /* \"#utility.yul\":22348:22382   */\n      gt\n        /* \"#utility.yul\":22345:22407   */\n      or\n        /* \"#utility.yul\":22342:22344   */\n      iszero\n      tag_610\n      jumpi\n        /* \"#utility.yul\":22410:22428   */\n      tag_611\n      tag_556\n      jump\t// in\n    tag_611:\n        /* \"#utility.yul\":22342:22344   */\n    tag_610:\n        /* \"#utility.yul\":22450:22460   */\n      dup1\n        /* \"#utility.yul\":22446:22448   */\n      0x40\n        /* \"#utility.yul\":22439:22461   */\n      mstore\n        /* \"#utility.yul\":22229:22467   */\n      pop\n      pop\n      pop\n      jump\t// out\n        /* \"#utility.yul\":22473:22706   */\n    tag_202:\n      0x00\n        /* \"#utility.yul\":22535:22559   */\n      tag_613\n        /* \"#utility.yul\":22553:22558   */\n      dup3\n        /* \"#utility.yul\":22535:22559   */\n      tag_503\n      jump\t// in\n    tag_613:\n        /* \"#utility.yul\":22526:22559   */\n      swap2\n      pop\n        /* \"#utility.yul\":22581:22647   */\n      0xffffffffffffffffffffffffffffffffffffffffffffffffffffffffffffffff\n        /* \"#utility.yul\":22574:22579   */\n      dup3\n        /* \"#utility.yul\":22571:22648   */\n      eq\n        /* \"#utility.yul\":22568:22570   */\n      iszero\n      tag_614\n      jumpi\n        /* \"#utility.yul\":22651:22669   */\n      tag_615\n      tag_568\n      jump\t// in\n    tag_615:\n        /* \"#utility.yul\":22568:22570   */\n    tag_614:\n        /* \"#utility.yul\":22698:22699   */\n      0x01\n        /* \"#utility.yul\":22691:22696   */\n      dup3\n        /* \"#utility.yul\":22687:22700   */\n      add\n        /* \"#utility.yul\":22680:22700   */\n      swap1\n      pop\n        /* \"#utility.yul\":22516:22706   */\n      swap2\n      swap1\n      pop\n      jump\t// out\n        /* \"#utility.yul\":22712:22888   */\n    tag_310:\n      0x00\n        /* \"#utility.yul\":22761:22781   */\n      tag_617\n        /* \"#utility.yul\":22779:22780   */\n      dup3\n        /* \"#utility.yul\":22761:22781   */\n      tag_503\n      jump\t// in\n    tag_617:\n        /* \"#utility.yul\":22756:22781   */\n      swap2\n      pop\n        /* \"#utility.yul\":22795:22815   */\n      tag_618\n        /* \"#utility.yul\":22813:22814   */\n      dup4\n        /* \"#utility.yul\":22795:22815   */\n      tag_503\n      jump\t// in\n    tag_618:\n        /* \"#utility.yul\":22790:22815   */\n      swap3\n      pop\n        /* \"#utility.yul\":22834:22835   */\n      dup3\n        /* \"#utility.yul\":22824:22826   */\n      tag_619\n      jumpi\n        /* \"#utility.yul\":22839:22857   */\n      tag_620\n      tag_574\n      jump\t// in\n    tag_620:\n        /* \"#utility.yul\":22824:22826   */\n    tag_619:\n        /* \"#utility.yul\":22880:22881   */\n      dup3\n        /* \"#utility.yul\":22877:22878   */\n      dup3\n        /* \"#utility.yul\":22873:22882   */\n      mod\n        /* \"#utility.yul\":22868:22882   */\n      swap1\n      pop\n        /* \"#utility.yul\":22746:22888   */\n      swap3\n      swap2\n      pop\n      pop\n      jump\t// out\n        /* \"#utility.yul\":22894:23074   */\n    tag_568:\n        /* \"#utility.yul\":22942:23019   */\n      0x4e487b7100000000000000000000000000000000000000000000000000000000\n        /* \"#utility.yul\":22939:22940   */\n      0x00\n        /* \"#utility.yul\":22932:23020   */\n      mstore\n        /* \"#utility.yul\":23039:23043   */\n      0x11\n        /* \"#utility.yul\":23036:23037   */\n      0x04\n        /* \"#utility.yul\":23029:23044   */\n      mstore\n        /* \"#utility.yul\":23063:23067   */\n      0x24\n        /* \"#utility.yul\":23060:23061   */\n      0x00\n        /* \"#utility.yul\":23053:23068   */\n      revert\n        /* \"#utility.yul\":23080:23260   */\n    tag_574:\n        /* \"#utility.yul\":23128:23205   */\n      0x4e487b7100000000000000000000000000000000000000000000000000000000\n        /* \"#utility.yul\":23125:23126   */\n      0x00\n        /* \"#utility.yul\":23118:23206   */\n      mstore\n        /* \"#utility.yul\":23225:23229   */\n      0x12\n        /* \"#utility.yul\":23222:23223   */\n      0x04\n        /* \"#utility.yul\":23215:23230   */\n      mstore\n        /* \"#utility.yul\":23249:23253   */\n      0x24\n        /* \"#utility.yul\":23246:23247   */\n      0x00\n        /* \"#utility.yul\":23239:23254   */\n      revert\n        /* \"#utility.yul\":23266:23446   */\n    tag_607:\n        /* \"#utility.yul\":23314:23391   */\n      0x4e487b7100000000000000000000000000000000000000000000000000000000\n        /* \"#utility.yul\":23311:23312   */\n      0x00\n        /* \"#utility.yul\":23304:23392   */\n      mstore\n        /* \"#utility.yul\":23411:23415   */\n      0x22\n        /* \"#utility.yul\":23408:23409   */\n      0x04\n        /* \"#utility.yul\":23401:23416   */\n      mstore\n        /* \"#utility.yul\":23435:23439   */\n      0x24\n        /* \"#utility.yul\":23432:23433   */\n      0x00\n        /* \"#utility.yul\":23425:23440   */\n      revert\n        /* \"#utility.yul\":23452:23632   */\n    tag_556:\n        /* \"#utility.yul\":23500:23577   */\n      0x4e487b7100000000000000000000000000000000000000000000000000000000\n        /* \"#utility.yul\":23497:23498   */\n      0x00\n        /* \"#utility.yul\":23490:23578   */\n      mstore\n        /* \"#utility.yul\":23597:23601   */\n      0x41\n        /* \"#utility.yul\":23594:23595   */\n      0x04\n        /* \"#utility.yul\":23587:23602   */\n      mstore\n        /* \"#utility.yul\":23621:23625   */\n      0x24\n        /* \"#utility.yul\":23618:23619   */\n      0x00\n        /* \"#utility.yul\":23611:23626   */\n      revert\n        /* \"#utility.yul\":23638:23740   */\n    tag_430:\n      0x00\n        /* \"#utility.yul\":23730:23732   */\n      0x1f\n        /* \"#utility.yul\":23726:23733   */\n      not\n        /* \"#utility.yul\":23721:23723   */\n      0x1f\n        /* \"#utility.yul\":23714:23719   */\n      dup4\n        /* \"#utility.yul\":23710:23724   */\n      add\n        /* \"#utility.yul\":23706:23734   */\n      and\n        /* \"#utility.yul\":23696:23734   */\n      swap1\n      pop\n        /* \"#utility.yul\":23686:23740   */\n      swap2\n      swap1\n      pop\n      jump\t// out\n        /* \"#utility.yul\":23746:23983   */\n    tag_449:\n        /* \"#utility.yul\":23886:23920   */\n      0x4552433732313a207472616e7366657220746f206e6f6e204552433732315265\n        /* \"#utility.yul\":23882:23883   */\n      0x00\n        /* \"#utility.yul\":23874:23880   */\n      dup3\n        /* \"#utility.yul\":23870:23884   */\n      add\n        /* \"#utility.yul\":23863:23921   */\n      mstore\n        /* \"#utility.yul\":23955:23975   */\n      0x63656976657220696d706c656d656e7465720000000000000000000000000000\n        /* \"#utility.yul\":23950:23952   */\n      0x20\n        /* \"#utility.yul\":23942:23948   */\n      dup3\n        /* \"#utility.yul\":23938:23953   */\n      add\n        /* \"#utility.yul\":23931:23976   */\n      mstore\n        /* \"#utility.yul\":23852:23983   */\n      pop\n      jump\t// out\n        /* \"#utility.yul\":23989:24213   */\n    tag_454:\n        /* \"#utility.yul\":24129:24163   */\n      0x4552433732313a207472616e736665722066726f6d20696e636f727265637420\n        /* \"#utility.yul\":24125:24126   */\n      0x00\n        /* \"#utility.yul\":24117:24123   */\n      dup3\n        /* \"#utility.yul\":24113:24127   */\n      add\n        /* \"#utility.yul\":24106:24164   */\n      mstore\n        /* \"#utility.yul\":24198:24205   */\n      0x6f776e6572000000000000000000000000000000000000000000000000000000\n        /* \"#utility.yul\":24193:24195   */\n      0x20\n        /* \"#utility.yul\":24185:24191   */\n      dup3\n        /* \"#utility.yul\":24181:24196   */\n      add\n        /* \"#utility.yul\":24174:24206   */\n      mstore\n        /* \"#utility.yul\":24095:24213   */\n      pop\n      jump\t// out\n        /* \"#utility.yul\":24219:24442   */\n    tag_459:\n        /* \"#utility.yul\":24359:24393   */\n      0x4552433732313a207472616e7366657220746f20746865207a65726f20616464\n        /* \"#utility.yul\":24355:24356   */\n      0x00\n        /* \"#utility.yul\":24347:24353   */\n      dup3\n        /* \"#utility.yul\":24343:24357   */\n      add\n        /* \"#utility.yul\":24336:24394   */\n      mstore\n        /* \"#utility.yul\":24428:24434   */\n      0x7265737300000000000000000000000000000000000000000000000000000000\n        /* \"#utility.yul\":24423:24425   */\n      0x20\n        /* \"#utility.yul\":24415:24421   */\n      dup3\n        /* \"#utility.yul\":24411:24426   */\n      add\n        /* \"#utility.yul\":24404:24435   */\n      mstore\n        /* \"#utility.yul\":24325:24442   */\n      pop\n      jump\t// out\n        /* \"#utility.yul\":24448:24623   */\n    tag_464:\n        /* \"#utility.yul\":24588:24615   */\n      0x4552433732313a20617070726f766520746f2063616c6c657200000000000000\n        /* \"#utility.yul\":24584:24585   */\n      0x00\n        /* \"#utility.yul\":24576:24582   */\n      dup3\n        /* \"#utility.yul\":24572:24586   */\n      add\n        /* \"#utility.yul\":24565:24616   */\n      mstore\n        /* \"#utility.yul\":24554:24623   */\n      pop\n      jump\t// out\n        /* \"#utility.yul\":24629:24857   */\n    tag_469:\n        /* \"#utility.yul\":24769:24803   */\n      0x4552433732313a2061646472657373207a65726f206973206e6f742061207661\n        /* \"#utility.yul\":24765:24766   */\n      0x00\n        /* \"#utility.yul\":24757:24763   */\n      dup3\n        /* \"#utility.yul\":24753:24767   */\n      add\n        /* \"#utility.yul\":24746:24804   */\n      mstore\n        /* \"#utility.yul\":24838:24849   */\n      0x6c6964206f776e65720000000000000000000000000000000000000000000000\n        /* \"#utility.yul\":24833:24835   */\n      0x20\n        /* \"#utility.yul\":24825:24831   */\n      dup3\n        /* \"#utility.yul\":24821:24836   */\n      add\n        /* \"#utility.yul\":24814:24850   */\n      mstore\n        /* \"#utility.yul\":24735:24857   */\n      pop\n      jump\t// out\n        /* \"#utility.yul\":24863:25112   */\n    tag_474:\n        /* \"#utility.yul\":25003:25037   */\n      0x4552433732313a20617070726f76652063616c6c6572206973206e6f7420746f\n        /* \"#utility.yul\":24999:25000   */\n      0x00\n        /* \"#utility.yul\":24991:24997   */\n      dup3\n        /* \"#utility.yul\":24987:25001   */\n      add\n        /* \"#utility.yul\":24980:25038   */\n      mstore\n        /* \"#utility.yul\":25072:25104   */\n      0x6b656e206f776e6572206e6f7220617070726f76656420666f7220616c6c0000\n        /* \"#utility.yul\":25067:25069   */\n      0x20\n        /* \"#utility.yul\":25059:25065   */\n      dup3\n        /* \"#utility.yul\":25055:25070   */\n      add\n        /* \"#utility.yul\":25048:25105   */\n      mstore\n        /* \"#utility.yul\":24969:25112   */\n      pop\n      jump\t// out\n        /* \"#utility.yul\":25118:25292   */\n    tag_479:\n        /* \"#utility.yul\":25258:25284   */\n      0x4552433732313a20696e76616c696420746f6b656e2049440000000000000000\n        /* \"#utility.yul\":25254:25255   */\n      0x00\n        /* \"#utility.yul\":25246:25252   */\n      dup3\n        /* \"#utility.yul\":25242:25256   */\n      add\n        /* \"#utility.yul\":25235:25285   */\n      mstore\n        /* \"#utility.yul\":25224:25292   */\n      pop\n      jump\t// out\n        /* \"#utility.yul\":25298:25518   */\n    tag_484:\n        /* \"#utility.yul\":25438:25472   */\n      0x4552433732313a20617070726f76616c20746f2063757272656e74206f776e65\n        /* \"#utility.yul\":25434:25435   */\n      0x00\n        /* \"#utility.yul\":25426:25432   */\n      dup3\n        /* \"#utility.yul\":25422:25436   */\n      add\n        /* \"#utility.yul\":25415:25473   */\n      mstore\n        /* \"#utility.yul\":25507:25510   */\n      0x7200000000000000000000000000000000000000000000000000000000000000\n        /* \"#utility.yul\":25502:25504   */\n      0x20\n        /* \"#utility.yul\":25494:25500   */\n      dup3\n        /* \"#utility.yul\":25490:25505   */\n      add\n        /* \"#utility.yul\":25483:25511   */\n      mstore\n        /* \"#utility.yul\":25404:25518   */\n      pop\n      jump\t// out\n        /* \"#utility.yul\":25524:25757   */\n    tag_489:\n        /* \"#utility.yul\":25664:25698   */\n      0x4552433732313a2063616c6c6572206973206e6f7420746f6b656e206f776e65\n        /* \"#utility.yul\":25660:25661   */\n      0x00\n        /* \"#utility.yul\":25652:25658   */\n      dup3\n        /* \"#utility.yul\":25648:25662   */\n      add\n        /* \"#utility.yul\":25641:25699   */\n      mstore\n        /* \"#utility.yul\":25733:25749   */\n      0x72206e6f7220617070726f766564000000000000000000000000000000000000\n        /* \"#utility.yul\":25728:25730   */\n      0x20\n        /* \"#utility.yul\":25720:25726   */\n      dup3\n        /* \"#utility.yul\":25716:25731   */\n      add\n        /* \"#utility.yul\":25709:25750   */\n      mstore\n        /* \"#utility.yul\":25630:25757   */\n      pop\n      jump\t// out\n        /* \"#utility.yul\":25763:25983   */\n    tag_494:\n        /* \"#utility.yul\":25903:25937   */\n      0x4f6e6c7920636f6e74726163742773206f776e65722063616e20646f20746861\n        /* \"#utility.yul\":25899:25900   */\n      0x00\n        /* \"#utility.yul\":25891:25897   */\n      dup3\n        /* \"#utility.yul\":25887:25901   */\n      add\n        /* \"#utility.yul\":25880:25938   */\n      mstore\n        /* \"#utility.yul\":25972:25975   */\n      0x7400000000000000000000000000000000000000000000000000000000000000\n        /* \"#utility.yul\":25967:25969   */\n      0x20\n        /* \"#utility.yul\":25959:25965   */\n      dup3\n        /* \"#utility.yul\":25955:25970   */\n      add\n        /* \"#utility.yul\":25948:25976   */\n      mstore\n        /* \"#utility.yul\":25869:25983   */\n      pop\n      jump\t// out\n        /* \"#utility.yul\":25989:26165   */\n    tag_499:\n        /* \"#utility.yul\":26129:26157   */\n      0x50726963652063616e6e6f7420626520657175616c20746f2030000000000000\n        /* \"#utility.yul\":26125:26126   */\n      0x00\n        /* \"#utility.yul\":26117:26123   */\n      dup3\n        /* \"#utility.yul\":26113:26127   */\n      add\n        /* \"#utility.yul\":26106:26158   */\n      mstore\n        /* \"#utility.yul\":26095:26165   */\n      pop\n      jump\t// out\n        /* \"#utility.yul\":26171:26293   */\n    tag_353:\n        /* \"#utility.yul\":26244:26268   */\n      tag_638\n        /* \"#utility.yul\":26262:26267   */\n      dup2\n        /* \"#utility.yul\":26244:26268   */\n      tag_416\n      jump\t// in\n    tag_638:\n        /* \"#utility.yul\":26237:26242   */\n      dup2\n        /* \"#utility.yul\":26234:26269   */\n      eq\n        /* \"#utility.yul\":26224:26226   */\n      tag_639\n      jumpi\n        /* \"#utility.yul\":26283:26284   */\n      0x00\n        /* \"#utility.yul\":26280:26281   */\n      dup1\n        /* \"#utility.yul\":26273:26285   */\n      revert\n        /* \"#utility.yul\":26224:26226   */\n    tag_639:\n        /* \"#utility.yul\":26214:26293   */\n      pop\n      jump\t// out\n        /* \"#utility.yul\":26299:26415   */\n    tag_357:\n        /* \"#utility.yul\":26369:26390   */\n      tag_641\n        /* \"#utility.yul\":26384:26389   */\n      dup2\n        /* \"#utility.yul\":26369:26390   */\n      tag_420\n      jump\t// in\n    tag_641:\n        /* \"#utility.yul\":26362:26367   */\n      dup2\n        /* \"#utility.yul\":26359:26391   */\n      eq\n        /* \"#utility.yul\":26349:26351   */\n      tag_642\n      jumpi\n        /* \"#utility.yul\":26405:26406   */\n      0x00\n        /* \"#utility.yul\":26402:26403   */\n      dup1\n        /* \"#utility.yul\":26395:26407   */\n      revert\n        /* \"#utility.yul\":26349:26351   */\n    tag_642:\n        /* \"#utility.yul\":26339:26415   */\n      pop\n      jump\t// out\n        /* \"#utility.yul\":26421:26541   */\n    tag_361:\n        /* \"#utility.yul\":26493:26516   */\n      tag_644\n        /* \"#utility.yul\":26510:26515   */\n      dup2\n        /* \"#utility.yul\":26493:26516   */\n      tag_589\n      jump\t// in\n    tag_644:\n        /* \"#utility.yul\":26486:26491   */\n      dup2\n        /* \"#utility.yul\":26483:26517   */\n      eq\n        /* \"#utility.yul\":26473:26475   */\n      tag_645\n      jumpi\n        /* \"#utility.yul\":26531:26532   */\n      0x00\n        /* \"#utility.yul\":26528:26529   */\n      dup1\n        /* \"#utility.yul\":26521:26533   */\n      revert\n        /* \"#utility.yul\":26473:26475   */\n    tag_645:\n        /* \"#utility.yul\":26463:26541   */\n      pop\n      jump\t// out\n        /* \"#utility.yul\":26547:26669   */\n    tag_372:\n        /* \"#utility.yul\":26620:26644   */\n      tag_647\n        /* \"#utility.yul\":26638:26643   */\n      dup2\n        /* \"#utility.yul\":26620:26644   */\n      tag_503\n      jump\t// in\n    tag_647:\n        /* \"#utility.yul\":26613:26618   */\n      dup2\n        /* \"#utility.yul\":26610:26645   */\n      eq\n        /* \"#utility.yul\":26600:26602   */\n      tag_648\n      jumpi\n        /* \"#utility.yul\":26659:26660   */\n      0x00\n        /* \"#utility.yul\":26656:26657   */\n      dup1\n        /* \"#utility.yul\":26649:26661   */\n      revert\n        /* \"#utility.yul\":26600:26602   */\n    tag_648:\n        /* \"#utility.yul\":26590:26669   */\n      pop\n      jump\t// out\n\n    auxdata: 0xa26469706673582212206e8d1ba3660ca6622291c62123f4fa66a32af63cf6a0f54d370835627bb4296c64736f6c63430008010033\n}\n",
				"bytecode": {
					"linkReferences": {},
					"object": "60806040523480156200001157600080fd5b506040518060400160405280600b81526020017f4765656b20546f6b656e730000000000000000000000000000000000000000008152506040518060400160405280600581526020017f4745454b54000000000000000000000000000000000000000000000000000000815250816000908051906020019062000096929190620000f9565b508060019080519060200190620000af929190620000f9565b50505033600660006101000a81548173ffffffffffffffffffffffffffffffffffffffff021916908373ffffffffffffffffffffffffffffffffffffffff1602179055506200020e565b8280546200010790620001a9565b90600052602060002090601f0160209004810192826200012b576000855562000177565b82601f106200014657805160ff191683800117855562000177565b8280016001018555821562000177579182015b828111156200017657825182559160200191906001019062000159565b5b5090506200018691906200018a565b5090565b5b80821115620001a55760008160009055506001016200018b565b5090565b60006002820490506001821680620001c257607f821691505b60208210811415620001d957620001d8620001df565b5b50919050565b7f4e487b7100000000000000000000000000000000000000000000000000000000600052602260045260246000fd5b612c8b806200021e6000396000f3fe6080604052600436106101355760003560e01c806391b6be9a116100ab578063bfb231d21161006f578063bfb231d21461043b578063c39218951461047b578063c87b56dd146104b8578063d48644bd146104f5578063e985e9c514610532578063ea0ff14a1461056f57610135565b806391b6be9a1461036557806395d89b4114610381578063a22cb465146103ac578063adae08dd146103d5578063b88d4fde1461041257610135565b806323b872dd116100fd57806323b872dd1461024557806329de62461461026e57806342842e0e146102975780634c389e65146102c05780636352211e146102eb57806370a082311461032857610135565b806301ffc9a71461013a57806306fdde0314610177578063081812fc146101a2578063095ea7b3146101df5780631a4d96cd14610208575b600080fd5b34801561014657600080fd5b50610161600480360381019061015c9190611f3e565b61059a565b60405161016e91906122d1565b60405180910390f35b34801561018357600080fd5b5061018c61067c565b60405161019991906122ec565b60405180910390f35b3480156101ae57600080fd5b506101c960048036038101906101c49190611f90565b61070e565b6040516101d6919061226a565b60405180910390f35b3480156101eb57600080fd5b5061020660048036038101906102019190611f02565b610754565b005b34801561021457600080fd5b5061022f600480360381019061022a9190611f90565b61086c565b60405161023c919061226a565b60405180910390f35b34801561025157600080fd5b5061026c60048036038101906102679190611dfc565b61089f565b005b34801561027a57600080fd5b5061029560048036038101906102909190611f90565b6108ff565b005b3480156102a357600080fd5b506102be60048036038101906102b99190611dfc565b610999565b005b3480156102cc57600080fd5b506102d56109b9565b6040516102e2919061246e565b60405180910390f35b3480156102f757600080fd5b50610312600480360381019061030d9190611f90565b6109bf565b60405161031f919061226a565b60405180910390f35b34801561033457600080fd5b5061034f600480360381019061034a9190611d97565b610a71565b60405161035c919061246e565b60405180910390f35b61037f600480360381019061037a9190611f90565b610b29565b005b34801561038d57600080fd5b50610396610deb565b6040516103a391906122ec565b60405180910390f35b3480156103b857600080fd5b506103d360048036038101906103ce9190611ec6565b610e7d565b005b3480156103e157600080fd5b506103fc60048036038101906103f79190611fb9565b610e93565b604051610409919061246e565b60405180910390f35b34801561041e57600080fd5b5061043960048036038101906104349190611e4b565b611074565b005b34801561044757600080fd5b50610462600480360381019061045d9190611f90565b6110d6565b6040516104729493929190612489565b60405180910390f35b34801561048757600080fd5b506104a2600480360381019061049d9190611d97565b611123565b6040516104af919061246e565b60405180910390f35b3480156104c457600080fd5b506104df60048036038101906104da9190611f90565b61113b565b6040516104ec91906122ec565b60405180910390f35b34801561050157600080fd5b5061051c60048036038101906105179190611f90565b6111a3565b604051610529919061246e565b60405180910390f35b34801561053e57600080fd5b5061055960048036038101906105549190611dc0565b6111bb565b60405161056691906122d1565b60405180910390f35b34801561057b57600080fd5b5061058461124f565b604051610591919061246e565b60405180910390f35b60007f80ac58cd000000000000000000000000000000000000000000000000000000007bffffffffffffffffffffffffffffffffffffffffffffffffffffffff1916827bffffffffffffffffffffffffffffffffffffffffffffffffffffffff1916148061066557507f5b5e139f000000000000000000000000000000000000000000000000000000007bffffffffffffffffffffffffffffffffffffffffffffffffffffffff1916827bffffffffffffffffffffffffffffffffffffffffffffffffffffffff1916145b80610675575061067482611259565b5b9050919050565b60606000805461068b9061275c565b80601f01602080910402602001604051908101604052809291908181526020018280546106b79061275c565b80156107045780601f106106d957610100808354040283529160200191610704565b820191906000526020600020905b8154815290600101906020018083116106e757829003601f168201915b5050505050905090565b6000610719826112c3565b6004600083815260200190815260200160002060009054906101000a900473ffffffffffffffffffffffffffffffffffffffff169050919050565b600061075f826109bf565b90508073ffffffffffffffffffffffffffffffffffffffff168373ffffffffffffffffffffffffffffffffffffffff1614156107d0576040517f08c379a00000000000000000000000000000000000000000000000000000000081526004016107c7906123ee565b60405180910390fd5b8073ffffffffffffffffffffffffffffffffffffffff166107ef61130e565b73ffffffffffffffffffffffffffffffffffffffff16148061081e575061081d8161081861130e565b6111bb565b5b61085d576040517f08c379a0000000000000000000000000000000000000000000000000000000008152600401610854906123ae565b60405180910390fd5b6108678383611316565b505050565b600a6020528060005260406000206000915054906101000a900473ffffffffffffffffffffffffffffffffffffffff1681565b6108b06108aa61130e565b826113cf565b6108ef576040517f08c379a00000000000000000000000000000000000000000000000000000000081526004016108e69061240e565b60405180910390fd5b6108fa838383611464565b505050565b600660009054906101000a900473ffffffffffffffffffffffffffffffffffffffff1673ffffffffffffffffffffffffffffffffffffffff163373ffffffffffffffffffffffffffffffffffffffff161461098f576040517f08c379a00000000000000000000000000000000000000000000000000000000081526004016109869061242e565b60405180910390fd5b8060098190555050565b6109b483838360405180602001604052806000815250611074565b505050565b60085481565b6000806002600084815260200190815260200160002060009054906101000a900473ffffffffffffffffffffffffffffffffffffffff169050600073ffffffffffffffffffffffffffffffffffffffff168173ffffffffffffffffffffffffffffffffffffffff161415610a68576040517f08c379a0000000000000000000000000000000000000000000000000000000008152600401610a5f906123ce565b60405180910390fd5b80915050919050565b60008073ffffffffffffffffffffffffffffffffffffffff168273ffffffffffffffffffffffffffffffffffffffff161415610ae2576040517f08c379a0000000000000000000000000000000000000000000000000000000008152600401610ad99061238e565b60405180910390fd5b600360008373ffffffffffffffffffffffffffffffffffffffff1673ffffffffffffffffffffffffffffffffffffffff168152602001908152602001600020549050919050565b60078181548110610b63577f4e487b7100000000000000000000000000000000000000000000000000000000600052603260045260246000fd5b9060005260206000209060040201600101543414610b8057600080fd5b6000600a600083815260200190815260200160002060009054906101000a900473ffffffffffffffffffffffffffffffffffffffff169050600060078381548110610bf4577f4e487b7100000000000000000000000000000000000000000000000000000000600052603260045260246000fd5b9060005260206000209060040201905060008160030160006101000a81548160ff02191690831515021790555033600a600085815260200190815260200160002060006101000a81548173ffffffffffffffffffffffffffffffffffffffff021916908373ffffffffffffffffffffffffffffffffffffffff160217905550600b60008373ffffffffffffffffffffffffffffffffffffffff1673ffffffffffffffffffffffffffffffffffffffff1681526020019081526020016000206000815480929190610cc390612732565b9190505550600b60003373ffffffffffffffffffffffffffffffffffffffff1673ffffffffffffffffffffffffffffffffffffffff1681526020019081526020016000206000815480929190610d18906127bf565b9190505550600080610d2c346009546116cb565b8092508193505050600660009054906101000a900473ffffffffffffffffffffffffffffffffffffffff1673ffffffffffffffffffffffffffffffffffffffff166108fc839081150290604051600060405180830381858888f19350505050158015610d9c573d6000803e3d6000fd5b508373ffffffffffffffffffffffffffffffffffffffff166108fc829081150290604051600060405180830381858888f19350505050158015610de3573d6000803e3d6000fd5b505050505050565b606060018054610dfa9061275c565b80601f0160208091040260200160405190810160405280929190818152602001828054610e269061275c565b8015610e735780601f10610e4857610100808354040283529160200191610e73565b820191906000526020600020905b815481529060010190602001808311610e5657829003601f168201915b5050505050905090565b610e8f610e8861130e565b8383611709565b5050565b6000808311610ed7576040517f08c379a0000000000000000000000000000000000000000000000000000000008152600401610ece9061244e565b60405180910390fd5b6000600780549050905060405180608001604052808281526020018581526020018481526020016001151581525060078281548110610f3f577f4e487b7100000000000000000000000000000000000000000000000000000000600052603260045260246000fd5b906000526020600020906004020160008201518160000155602082015181600101556040820151816002015560608201518160030160006101000a81548160ff02191690831515021790555090505060086000815480929190610fa1906127bf565b919050555033600a600083815260200190815260200160002060006101000a81548173ffffffffffffffffffffffffffffffffffffffff021916908373ffffffffffffffffffffffffffffffffffffffff160217905550600b60003373ffffffffffffffffffffffffffffffffffffffff1673ffffffffffffffffffffffffffffffffffffffff16815260200190815260200160002060008154809291906001019190505550600c6000848152602001908152602001600020600081548092919060010191905055508091505092915050565b61108561107f61130e565b836113cf565b6110c4576040517f08c379a00000000000000000000000000000000000000000000000000000000081526004016110bb9061240e565b60405180910390fd5b6110d084848484611876565b50505050565b600781815481106110e657600080fd5b90600052602060002090600402016000915090508060000154908060010154908060020154908060030160009054906101000a900460ff16905084565b600b6020528060005260406000206000915090505481565b6060611146826112c3565b60006111506118d2565b90506000815111611170576040518060200160405280600081525061119b565b8061117a846118e9565b60405160200161118b929190612246565b6040516020818303038152906040525b915050919050565b600c6020528060005260406000206000915090505481565b6000600560008473ffffffffffffffffffffffffffffffffffffffff1673ffffffffffffffffffffffffffffffffffffffff16815260200190815260200160002060008373ffffffffffffffffffffffffffffffffffffffff1673ffffffffffffffffffffffffffffffffffffffff16815260200190815260200160002060009054906101000a900460ff16905092915050565b6000600954905090565b60007f01ffc9a7000000000000000000000000000000000000000000000000000000007bffffffffffffffffffffffffffffffffffffffffffffffffffffffff1916827bffffffffffffffffffffffffffffffffffffffffffffffffffffffff1916149050919050565b6112cc81611a96565b61130b576040517f08c379a0000000000000000000000000000000000000000000000000000000008152600401611302906123ce565b60405180910390fd5b50565b600033905090565b816004600083815260200190815260200160002060006101000a81548173ffffffffffffffffffffffffffffffffffffffff021916908373ffffffffffffffffffffffffffffffffffffffff160217905550808273ffffffffffffffffffffffffffffffffffffffff16611389836109bf565b73ffffffffffffffffffffffffffffffffffffffff167f8c5be1e5ebec7d5bd14f71427d1e84f3dd0314c0f7b2291e5b200ac8c7c3b92560405160405180910390a45050565b6000806113db836109bf565b90508073ffffffffffffffffffffffffffffffffffffffff168473ffffffffffffffffffffffffffffffffffffffff16148061141d575061141c81856111bb565b5b8061145b57508373ffffffffffffffffffffffffffffffffffffffff166114438461070e565b73ffffffffffffffffffffffffffffffffffffffff16145b91505092915050565b8273ffffffffffffffffffffffffffffffffffffffff16611484826109bf565b73ffffffffffffffffffffffffffffffffffffffff16146114da576040517f08c379a00000000000000000000000000000000000000000000000000000000081526004016114d19061232e565b60405180910390fd5b600073ffffffffffffffffffffffffffffffffffffffff168273ffffffffffffffffffffffffffffffffffffffff16141561154a576040517f08c379a00000000000000000000000000000000000000000000000000000000081526004016115419061234e565b60405180910390fd5b611555838383611b02565b611560600082611316565b6001600360008573ffffffffffffffffffffffffffffffffffffffff1673ffffffffffffffffffffffffffffffffffffffff16815260200190815260200160002060008282546115b09190612648565b925050819055506001600360008473ffffffffffffffffffffffffffffffffffffffff1673ffffffffffffffffffffffffffffffffffffffff16815260200190815260200160002060008282546116079190612567565b92505081905550816002600083815260200190815260200160002060006101000a81548173ffffffffffffffffffffffffffffffffffffffff021916908373ffffffffffffffffffffffffffffffffffffffff160217905550808273ffffffffffffffffffffffffffffffffffffffff168473ffffffffffffffffffffffffffffffffffffffff167fddf252ad1be2c89b69c2b068fc378daa952ba7f163c4a11628f55a4df523b3ef60405160405180910390a46116c6838383611b07565b505050565b6000806000606485856116de91906125ee565b6116e891906125bd565b9050600081866116f89190612648565b905081819350935050509250929050565b8173ffffffffffffffffffffffffffffffffffffffff168373ffffffffffffffffffffffffffffffffffffffff161415611778576040517f08c379a000000000000000000000000000000000000000000000000000000000815260040161176f9061236e565b60405180910390fd5b80600560008573ffffffffffffffffffffffffffffffffffffffff1673ffffffffffffffffffffffffffffffffffffffff16815260200190815260200160002060008473ffffffffffffffffffffffffffffffffffffffff1673ffffffffffffffffffffffffffffffffffffffff16815260200190815260200160002060006101000a81548160ff0219169083151502179055508173ffffffffffffffffffffffffffffffffffffffff168373ffffffffffffffffffffffffffffffffffffffff167f17307eab39ab6107e8899845ad3d59bd9653f200f220920489ca2b5937696c318360405161186991906122d1565b60405180910390a3505050565b611881848484611464565b61188d84848484611b0c565b6118cc576040517f08c379a00000000000000000000000000000000000000000000000000000000081526004016118c39061230e565b60405180910390fd5b50505050565b606060405180602001604052806000815250905090565b60606000821415611931576040518060400160405280600181526020017f30000000000000000000000000000000000000000000000000000000000000008152509050611a91565b600082905060005b6000821461196357808061194c906127bf565b915050600a8261195c91906125bd565b9150611939565b60008167ffffffffffffffff8111156119a5577f4e487b7100000000000000000000000000000000000000000000000000000000600052604160045260246000fd5b6040519080825280601f01601f1916602001820160405280156119d75781602001600182028036833780820191505090505b5090505b60008514611a8a576001826119f09190612648565b9150600a856119ff9190612808565b6030611a0b9190612567565b60f81b818381518110611a47577f4e487b7100000000000000000000000000000000000000000000000000000000600052603260045260246000fd5b60200101907effffffffffffffffffffffffffffffffffffffffffffffffffffffffffffff1916908160001a905350600a85611a8391906125bd565b94506119db565b8093505050505b919050565b60008073ffffffffffffffffffffffffffffffffffffffff166002600084815260200190815260200160002060009054906101000a900473ffffffffffffffffffffffffffffffffffffffff1673ffffffffffffffffffffffffffffffffffffffff1614159050919050565b505050565b505050565b6000611b2d8473ffffffffffffffffffffffffffffffffffffffff16611ca3565b15611c96578373ffffffffffffffffffffffffffffffffffffffff1663150b7a02611b5661130e565b8786866040518563ffffffff1660e01b8152600401611b789493929190612285565b602060405180830381600087803b158015611b9257600080fd5b505af1925050508015611bc357506040513d601f19601f82011682018060405250810190611bc09190611f67565b60015b611c46573d8060008114611bf3576040519150601f19603f3d011682016040523d82523d6000602084013e611bf8565b606091505b50600081511415611c3e576040517f08c379a0000000000000000000000000000000000000000000000000000000008152600401611c359061230e565b60405180910390fd5b805181602001fd5b63150b7a0260e01b7bffffffffffffffffffffffffffffffffffffffffffffffffffffffff1916817bffffffffffffffffffffffffffffffffffffffffffffffffffffffff191614915050611c9b565b600190505b949350505050565b6000808273ffffffffffffffffffffffffffffffffffffffff163b119050919050565b6000611cd9611cd4846124f3565b6124ce565b905082815260208101848484011115611cf157600080fd5b611cfc8482856126f0565b509392505050565b600081359050611d1381612bf9565b92915050565b600081359050611d2881612c10565b92915050565b600081359050611d3d81612c27565b92915050565b600081519050611d5281612c27565b92915050565b600082601f830112611d6957600080fd5b8135611d79848260208601611cc6565b91505092915050565b600081359050611d9181612c3e565b92915050565b600060208284031215611da957600080fd5b6000611db784828501611d04565b91505092915050565b60008060408385031215611dd357600080fd5b6000611de185828601611d04565b9250506020611df285828601611d04565b9150509250929050565b600080600060608486031215611e1157600080fd5b6000611e1f86828701611d04565b9350506020611e3086828701611d04565b9250506040611e4186828701611d82565b9150509250925092565b60008060008060808587031215611e6157600080fd5b6000611e6f87828801611d04565b9450506020611e8087828801611d04565b9350506040611e9187828801611d82565b925050606085013567ffffffffffffffff811115611eae57600080fd5b611eba87828801611d58565b91505092959194509250565b60008060408385031215611ed957600080fd5b6000611ee785828601611d04565b9250506020611ef885828601611d19565b9150509250929050565b60008060408385031215611f1557600080fd5b6000611f2385828601611d04565b9250506020611f3485828601611d82565b9150509250929050565b600060208284031215611f5057600080fd5b6000611f5e84828501611d2e565b91505092915050565b600060208284031215611f7957600080fd5b6000611f8784828501611d43565b91505092915050565b600060208284031215611fa257600080fd5b6000611fb084828501611d82565b91505092915050565b60008060408385031215611fcc57600080fd5b6000611fda85828601611d82565b9250506020611feb85828601611d82565b9150509250929050565b611ffe8161267c565b82525050565b61200d8161268e565b82525050565b600061201e82612524565b612028818561253a565b93506120388185602086016126ff565b612041816128f5565b840191505092915050565b60006120578261252f565b612061818561254b565b93506120718185602086016126ff565b61207a816128f5565b840191505092915050565b60006120908261252f565b61209a818561255c565b93506120aa8185602086016126ff565b80840191505092915050565b60006120c360328361254b565b91506120ce82612906565b604082019050919050565b60006120e660258361254b565b91506120f182612955565b604082019050919050565b600061210960248361254b565b9150612114826129a4565b604082019050919050565b600061212c60198361254b565b9150612137826129f3565b602082019050919050565b600061214f60298361254b565b915061215a82612a1c565b604082019050919050565b6000612172603e8361254b565b915061217d82612a6b565b604082019050919050565b600061219560188361254b565b91506121a082612aba565b602082019050919050565b60006121b860218361254b565b91506121c382612ae3565b604082019050919050565b60006121db602e8361254b565b91506121e682612b32565b604082019050919050565b60006121fe60218361254b565b915061220982612b81565b604082019050919050565b6000612221601a8361254b565b915061222c82612bd0565b602082019050919050565b612240816126e6565b82525050565b60006122528285612085565b915061225e8284612085565b91508190509392505050565b600060208201905061227f6000830184611ff5565b92915050565b600060808201905061229a6000830187611ff5565b6122a76020830186611ff5565b6122b46040830185612237565b81810360608301526122c68184612013565b905095945050505050565b60006020820190506122e66000830184612004565b92915050565b60006020820190508181036000830152612306818461204c565b905092915050565b60006020820190508181036000830152612327816120b6565b9050919050565b60006020820190508181036000830152612347816120d9565b9050919050565b60006020820190508181036000830152612367816120fc565b9050919050565b600060208201905081810360008301526123878161211f565b9050919050565b600060208201905081810360008301526123a781612142565b9050919050565b600060208201905081810360008301526123c781612165565b9050919050565b600060208201905081810360008301526123e781612188565b9050919050565b60006020820190508181036000830152612407816121ab565b9050919050565b60006020820190508181036000830152612427816121ce565b9050919050565b60006020820190508181036000830152612447816121f1565b9050919050565b6000602082019050818103600083015261246781612214565b9050919050565b60006020820190506124836000830184612237565b92915050565b600060808201905061249e6000830187612237565b6124ab6020830186612237565b6124b86040830185612237565b6124c56060830184612004565b95945050505050565b60006124d86124e9565b90506124e4828261278e565b919050565b6000604051905090565b600067ffffffffffffffff82111561250e5761250d6128c6565b5b612517826128f5565b9050602081019050919050565b600081519050919050565b600081519050919050565b600082825260208201905092915050565b600082825260208201905092915050565b600081905092915050565b6000612572826126e6565b915061257d836126e6565b9250827fffffffffffffffffffffffffffffffffffffffffffffffffffffffffffffffff038211156125b2576125b1612839565b5b828201905092915050565b60006125c8826126e6565b91506125d3836126e6565b9250826125e3576125e2612868565b5b828204905092915050565b60006125f9826126e6565b9150612604836126e6565b9250817fffffffffffffffffffffffffffffffffffffffffffffffffffffffffffffffff048311821515161561263d5761263c612839565b5b828202905092915050565b6000612653826126e6565b915061265e836126e6565b92508282101561267157612670612839565b5b828203905092915050565b6000612687826126c6565b9050919050565b60008115159050919050565b60007fffffffff0000000000000000000000000000000000000000000000000000000082169050919050565b600073ffffffffffffffffffffffffffffffffffffffff82169050919050565b6000819050919050565b82818337600083830152505050565b60005b8381101561271d578082015181840152602081019050612702565b8381111561272c576000848401525b50505050565b600061273d826126e6565b9150600082141561275157612750612839565b5b600182039050919050565b6000600282049050600182168061277457607f821691505b6020821081141561278857612787612897565b5b50919050565b612797826128f5565b810181811067ffffffffffffffff821117156127b6576127b56128c6565b5b80604052505050565b60006127ca826126e6565b91507fffffffffffffffffffffffffffffffffffffffffffffffffffffffffffffffff8214156127fd576127fc612839565b5b600182019050919050565b6000612813826126e6565b915061281e836126e6565b92508261282e5761282d612868565b5b828206905092915050565b7f4e487b7100000000000000000000000000000000000000000000000000000000600052601160045260246000fd5b7f4e487b7100000000000000000000000000000000000000000000000000000000600052601260045260246000fd5b7f4e487b7100000000000000000000000000000000000000000000000000000000600052602260045260246000fd5b7f4e487b7100000000000000000000000000000000000000000000000000000000600052604160045260246000fd5b6000601f19601f8301169050919050565b7f4552433732313a207472616e7366657220746f206e6f6e20455243373231526560008201527f63656976657220696d706c656d656e7465720000000000000000000000000000602082015250565b7f4552433732313a207472616e736665722066726f6d20696e636f72726563742060008201527f6f776e6572000000000000000000000000000000000000000000000000000000602082015250565b7f4552433732313a207472616e7366657220746f20746865207a65726f2061646460008201527f7265737300000000000000000000000000000000000000000000000000000000602082015250565b7f4552433732313a20617070726f766520746f2063616c6c657200000000000000600082015250565b7f4552433732313a2061646472657373207a65726f206973206e6f74206120766160008201527f6c6964206f776e65720000000000000000000000000000000000000000000000602082015250565b7f4552433732313a20617070726f76652063616c6c6572206973206e6f7420746f60008201527f6b656e206f776e6572206e6f7220617070726f76656420666f7220616c6c0000602082015250565b7f4552433732313a20696e76616c696420746f6b656e2049440000000000000000600082015250565b7f4552433732313a20617070726f76616c20746f2063757272656e74206f776e6560008201527f7200000000000000000000000000000000000000000000000000000000000000602082015250565b7f4552433732313a2063616c6c6572206973206e6f7420746f6b656e206f776e6560008201527f72206e6f7220617070726f766564000000000000000000000000000000000000602082015250565b7f4f6e6c7920636f6e74726163742773206f776e65722063616e20646f2074686160008201527f7400000000000000000000000000000000000000000000000000000000000000602082015250565b7f50726963652063616e6e6f7420626520657175616c20746f2030000000000000600082015250565b612c028161267c565b8114612c0d57600080fd5b50565b612c198161268e565b8114612c2457600080fd5b50565b612c308161269a565b8114612c3b57600080fd5b50565b612c47816126e6565b8114612c5257600080fd5b5056fea26469706673582212206e8d1ba3660ca6622291c62123f4fa66a32af63cf6a0f54d370835627bb4296c64736f6c63430008010033",
					"opcodes": "PUSH1 0x80 PUSH1 0x40 MSTORE CALLVALUE DUP1 ISZERO PUSH3 0x11 JUMPI PUSH1 0x0 DUP1 REVERT JUMPDEST POP PUSH1 0x40 MLOAD DUP1 PUSH1 0x40 ADD PUSH1 0x40 MSTORE DUP1 PUSH1 0xB DUP2 MSTORE PUSH1 0x20 ADD PUSH32 0x4765656B20546F6B656E73000000000000000000000000000000000000000000 DUP2 MSTORE POP PUSH1 0x40 MLOAD DUP1 PUSH1 0x40 ADD PUSH1 0x40 MSTORE DUP1 PUSH1 0x5 DUP2 MSTORE PUSH1 0x20 ADD PUSH32 0x4745454B54000000000000000000000000000000000000000000000000000000 DUP2 MSTORE POP DUP2 PUSH1 0x0 SWAP1 DUP1 MLOAD SWAP1 PUSH1 0x20 ADD SWAP1 PUSH3 0x96 SWAP3 SWAP2 SWAP1 PUSH3 0xF9 JUMP JUMPDEST POP DUP1 PUSH1 0x1 SWAP1 DUP1 MLOAD SWAP1 PUSH1 0x20 ADD SWAP1 PUSH3 0xAF SWAP3 SWAP2 SWAP1 PUSH3 0xF9 JUMP JUMPDEST POP POP POP CALLER PUSH1 0x6 PUSH1 0x0 PUSH2 0x100 EXP DUP2 SLOAD DUP2 PUSH20 0xFFFFFFFFFFFFFFFFFFFFFFFFFFFFFFFFFFFFFFFF MUL NOT AND SWAP1 DUP4 PUSH20 0xFFFFFFFFFFFFFFFFFFFFFFFFFFFFFFFFFFFFFFFF AND MUL OR SWAP1 SSTORE POP PUSH3 0x20E JUMP JUMPDEST DUP3 DUP1 SLOAD PUSH3 0x107 SWAP1 PUSH3 0x1A9 JUMP JUMPDEST SWAP1 PUSH1 0x0 MSTORE PUSH1 0x20 PUSH1 0x0 KECCAK256 SWAP1 PUSH1 0x1F ADD PUSH1 0x20 SWAP1 DIV DUP2 ADD SWAP3 DUP3 PUSH3 0x12B JUMPI PUSH1 0x0 DUP6 SSTORE PUSH3 0x177 JUMP JUMPDEST DUP3 PUSH1 0x1F LT PUSH3 0x146 JUMPI DUP1 MLOAD PUSH1 0xFF NOT AND DUP4 DUP1 ADD OR DUP6 SSTORE PUSH3 0x177 JUMP JUMPDEST DUP3 DUP1 ADD PUSH1 0x1 ADD DUP6 SSTORE DUP3 ISZERO PUSH3 0x177 JUMPI SWAP2 DUP3 ADD JUMPDEST DUP3 DUP2 GT ISZERO PUSH3 0x176 JUMPI DUP3 MLOAD DUP3 SSTORE SWAP2 PUSH1 0x20 ADD SWAP2 SWAP1 PUSH1 0x1 ADD SWAP1 PUSH3 0x159 JUMP JUMPDEST JUMPDEST POP SWAP1 POP PUSH3 0x186 SWAP2 SWAP1 PUSH3 0x18A JUMP JUMPDEST POP SWAP1 JUMP JUMPDEST JUMPDEST DUP1 DUP3 GT ISZERO PUSH3 0x1A5 JUMPI PUSH1 0x0 DUP2 PUSH1 0x0 SWAP1 SSTORE POP PUSH1 0x1 ADD PUSH3 0x18B JUMP JUMPDEST POP SWAP1 JUMP JUMPDEST PUSH1 0x0 PUSH1 0x2 DUP3 DIV SWAP1 POP PUSH1 0x1 DUP3 AND DUP1 PUSH3 0x1C2 JUMPI PUSH1 0x7F DUP3 AND SWAP2 POP JUMPDEST PUSH1 0x20 DUP3 LT DUP2 EQ ISZERO PUSH3 0x1D9 JUMPI PUSH3 0x1D8 PUSH3 0x1DF JUMP JUMPDEST JUMPDEST POP SWAP2 SWAP1 POP JUMP JUMPDEST PUSH32 0x4E487B7100000000000000000000000000000000000000000000000000000000 PUSH1 0x0 MSTORE PUSH1 0x22 PUSH1 0x4 MSTORE PUSH1 0x24 PUSH1 0x0 REVERT JUMPDEST PUSH2 0x2C8B DUP1 PUSH3 0x21E PUSH1 0x0 CODECOPY PUSH1 0x0 RETURN INVALID PUSH1 0x80 PUSH1 0x40 MSTORE PUSH1 0x4 CALLDATASIZE LT PUSH2 0x135 JUMPI PUSH1 0x0 CALLDATALOAD PUSH1 0xE0 SHR DUP1 PUSH4 0x91B6BE9A GT PUSH2 0xAB JUMPI DUP1 PUSH4 0xBFB231D2 GT PUSH2 0x6F JUMPI DUP1 PUSH4 0xBFB231D2 EQ PUSH2 0x43B JUMPI DUP1 PUSH4 0xC3921895 EQ PUSH2 0x47B JUMPI DUP1 PUSH4 0xC87B56DD EQ PUSH2 0x4B8 JUMPI DUP1 PUSH4 0xD48644BD EQ PUSH2 0x4F5 JUMPI DUP1 PUSH4 0xE985E9C5 EQ PUSH2 0x532 JUMPI DUP1 PUSH4 0xEA0FF14A EQ PUSH2 0x56F JUMPI PUSH2 0x135 JUMP JUMPDEST DUP1 PUSH4 0x91B6BE9A EQ PUSH2 0x365 JUMPI DUP1 PUSH4 0x95D89B41 EQ PUSH2 0x381 JUMPI DUP1 PUSH4 0xA22CB465 EQ PUSH2 0x3AC JUMPI DUP1 PUSH4 0xADAE08DD EQ PUSH2 0x3D5 JUMPI DUP1 PUSH4 0xB88D4FDE EQ PUSH2 0x412 JUMPI PUSH2 0x135 JUMP JUMPDEST DUP1 PUSH4 0x23B872DD GT PUSH2 0xFD JUMPI DUP1 PUSH4 0x23B872DD EQ PUSH2 0x245 JUMPI DUP1 PUSH4 0x29DE6246 EQ PUSH2 0x26E JUMPI DUP1 PUSH4 0x42842E0E EQ PUSH2 0x297 JUMPI DUP1 PUSH4 0x4C389E65 EQ PUSH2 0x2C0 JUMPI DUP1 PUSH4 0x6352211E EQ PUSH2 0x2EB JUMPI DUP1 PUSH4 0x70A08231 EQ PUSH2 0x328 JUMPI PUSH2 0x135 JUMP JUMPDEST DUP1 PUSH4 0x1FFC9A7 EQ PUSH2 0x13A JUMPI DUP1 PUSH4 0x6FDDE03 EQ PUSH2 0x177 JUMPI DUP1 PUSH4 0x81812FC EQ PUSH2 0x1A2 JUMPI DUP1 PUSH4 0x95EA7B3 EQ PUSH2 0x1DF JUMPI DUP1 PUSH4 0x1A4D96CD EQ PUSH2 0x208 JUMPI JUMPDEST PUSH1 0x0 DUP1 REVERT JUMPDEST CALLVALUE DUP1 ISZERO PUSH2 0x146 JUMPI PUSH1 0x0 DUP1 REVERT JUMPDEST POP PUSH2 0x161 PUSH1 0x4 DUP1 CALLDATASIZE SUB DUP2 ADD SWAP1 PUSH2 0x15C SWAP2 SWAP1 PUSH2 0x1F3E JUMP JUMPDEST PUSH2 0x59A JUMP JUMPDEST PUSH1 0x40 MLOAD PUSH2 0x16E SWAP2 SWAP1 PUSH2 0x22D1 JUMP JUMPDEST PUSH1 0x40 MLOAD DUP1 SWAP2 SUB SWAP1 RETURN JUMPDEST CALLVALUE DUP1 ISZERO PUSH2 0x183 JUMPI PUSH1 0x0 DUP1 REVERT JUMPDEST POP PUSH2 0x18C PUSH2 0x67C JUMP JUMPDEST PUSH1 0x40 MLOAD PUSH2 0x199 SWAP2 SWAP1 PUSH2 0x22EC JUMP JUMPDEST PUSH1 0x40 MLOAD DUP1 SWAP2 SUB SWAP1 RETURN JUMPDEST CALLVALUE DUP1 ISZERO PUSH2 0x1AE JUMPI PUSH1 0x0 DUP1 REVERT JUMPDEST POP PUSH2 0x1C9 PUSH1 0x4 DUP1 CALLDATASIZE SUB DUP2 ADD SWAP1 PUSH2 0x1C4 SWAP2 SWAP1 PUSH2 0x1F90 JUMP JUMPDEST PUSH2 0x70E JUMP JUMPDEST PUSH1 0x40 MLOAD PUSH2 0x1D6 SWAP2 SWAP1 PUSH2 0x226A JUMP JUMPDEST PUSH1 0x40 MLOAD DUP1 SWAP2 SUB SWAP1 RETURN JUMPDEST CALLVALUE DUP1 ISZERO PUSH2 0x1EB JUMPI PUSH1 0x0 DUP1 REVERT JUMPDEST POP PUSH2 0x206 PUSH1 0x4 DUP1 CALLDATASIZE SUB DUP2 ADD SWAP1 PUSH2 0x201 SWAP2 SWAP1 PUSH2 0x1F02 JUMP JUMPDEST PUSH2 0x754 JUMP JUMPDEST STOP JUMPDEST CALLVALUE DUP1 ISZERO PUSH2 0x214 JUMPI PUSH1 0x0 DUP1 REVERT JUMPDEST POP PUSH2 0x22F PUSH1 0x4 DUP1 CALLDATASIZE SUB DUP2 ADD SWAP1 PUSH2 0x22A SWAP2 SWAP1 PUSH2 0x1F90 JUMP JUMPDEST PUSH2 0x86C JUMP JUMPDEST PUSH1 0x40 MLOAD PUSH2 0x23C SWAP2 SWAP1 PUSH2 0x226A JUMP JUMPDEST PUSH1 0x40 MLOAD DUP1 SWAP2 SUB SWAP1 RETURN JUMPDEST CALLVALUE DUP1 ISZERO PUSH2 0x251 JUMPI PUSH1 0x0 DUP1 REVERT JUMPDEST POP PUSH2 0x26C PUSH1 0x4 DUP1 CALLDATASIZE SUB DUP2 ADD SWAP1 PUSH2 0x267 SWAP2 SWAP1 PUSH2 0x1DFC JUMP JUMPDEST PUSH2 0x89F JUMP JUMPDEST STOP JUMPDEST CALLVALUE DUP1 ISZERO PUSH2 0x27A JUMPI PUSH1 0x0 DUP1 REVERT JUMPDEST POP PUSH2 0x295 PUSH1 0x4 DUP1 CALLDATASIZE SUB DUP2 ADD SWAP1 PUSH2 0x290 SWAP2 SWAP1 PUSH2 0x1F90 JUMP JUMPDEST PUSH2 0x8FF JUMP JUMPDEST STOP JUMPDEST CALLVALUE DUP1 ISZERO PUSH2 0x2A3 JUMPI PUSH1 0x0 DUP1 REVERT JUMPDEST POP PUSH2 0x2BE PUSH1 0x4 DUP1 CALLDATASIZE SUB DUP2 ADD SWAP1 PUSH2 0x2B9 SWAP2 SWAP1 PUSH2 0x1DFC JUMP JUMPDEST PUSH2 0x999 JUMP JUMPDEST STOP JUMPDEST CALLVALUE DUP1 ISZERO PUSH2 0x2CC JUMPI PUSH1 0x0 DUP1 REVERT JUMPDEST POP PUSH2 0x2D5 PUSH2 0x9B9 JUMP JUMPDEST PUSH1 0x40 MLOAD PUSH2 0x2E2 SWAP2 SWAP1 PUSH2 0x246E JUMP JUMPDEST PUSH1 0x40 MLOAD DUP1 SWAP2 SUB SWAP1 RETURN JUMPDEST CALLVALUE DUP1 ISZERO PUSH2 0x2F7 JUMPI PUSH1 0x0 DUP1 REVERT JUMPDEST POP PUSH2 0x312 PUSH1 0x4 DUP1 CALLDATASIZE SUB DUP2 ADD SWAP1 PUSH2 0x30D SWAP2 SWAP1 PUSH2 0x1F90 JUMP JUMPDEST PUSH2 0x9BF JUMP JUMPDEST PUSH1 0x40 MLOAD PUSH2 0x31F SWAP2 SWAP1 PUSH2 0x226A JUMP JUMPDEST PUSH1 0x40 MLOAD DUP1 SWAP2 SUB SWAP1 RETURN JUMPDEST CALLVALUE DUP1 ISZERO PUSH2 0x334 JUMPI PUSH1 0x0 DUP1 REVERT JUMPDEST POP PUSH2 0x34F PUSH1 0x4 DUP1 CALLDATASIZE SUB DUP2 ADD SWAP1 PUSH2 0x34A SWAP2 SWAP1 PUSH2 0x1D97 JUMP JUMPDEST PUSH2 0xA71 JUMP JUMPDEST PUSH1 0x40 MLOAD PUSH2 0x35C SWAP2 SWAP1 PUSH2 0x246E JUMP JUMPDEST PUSH1 0x40 MLOAD DUP1 SWAP2 SUB SWAP1 RETURN JUMPDEST PUSH2 0x37F PUSH1 0x4 DUP1 CALLDATASIZE SUB DUP2 ADD SWAP1 PUSH2 0x37A SWAP2 SWAP1 PUSH2 0x1F90 JUMP JUMPDEST PUSH2 0xB29 JUMP JUMPDEST STOP JUMPDEST CALLVALUE DUP1 ISZERO PUSH2 0x38D JUMPI PUSH1 0x0 DUP1 REVERT JUMPDEST POP PUSH2 0x396 PUSH2 0xDEB JUMP JUMPDEST PUSH1 0x40 MLOAD PUSH2 0x3A3 SWAP2 SWAP1 PUSH2 0x22EC JUMP JUMPDEST PUSH1 0x40 MLOAD DUP1 SWAP2 SUB SWAP1 RETURN JUMPDEST CALLVALUE DUP1 ISZERO PUSH2 0x3B8 JUMPI PUSH1 0x0 DUP1 REVERT JUMPDEST POP PUSH2 0x3D3 PUSH1 0x4 DUP1 CALLDATASIZE SUB DUP2 ADD SWAP1 PUSH2 0x3CE SWAP2 SWAP1 PUSH2 0x1EC6 JUMP JUMPDEST PUSH2 0xE7D JUMP JUMPDEST STOP JUMPDEST CALLVALUE DUP1 ISZERO PUSH2 0x3E1 JUMPI PUSH1 0x0 DUP1 REVERT JUMPDEST POP PUSH2 0x3FC PUSH1 0x4 DUP1 CALLDATASIZE SUB DUP2 ADD SWAP1 PUSH2 0x3F7 SWAP2 SWAP1 PUSH2 0x1FB9 JUMP JUMPDEST PUSH2 0xE93 JUMP JUMPDEST PUSH1 0x40 MLOAD PUSH2 0x409 SWAP2 SWAP1 PUSH2 0x246E JUMP JUMPDEST PUSH1 0x40 MLOAD DUP1 SWAP2 SUB SWAP1 RETURN JUMPDEST CALLVALUE DUP1 ISZERO PUSH2 0x41E JUMPI PUSH1 0x0 DUP1 REVERT JUMPDEST POP PUSH2 0x439 PUSH1 0x4 DUP1 CALLDATASIZE SUB DUP2 ADD SWAP1 PUSH2 0x434 SWAP2 SWAP1 PUSH2 0x1E4B JUMP JUMPDEST PUSH2 0x1074 JUMP JUMPDEST STOP JUMPDEST CALLVALUE DUP1 ISZERO PUSH2 0x447 JUMPI PUSH1 0x0 DUP1 REVERT JUMPDEST POP PUSH2 0x462 PUSH1 0x4 DUP1 CALLDATASIZE SUB DUP2 ADD SWAP1 PUSH2 0x45D SWAP2 SWAP1 PUSH2 0x1F90 JUMP JUMPDEST PUSH2 0x10D6 JUMP JUMPDEST PUSH1 0x40 MLOAD PUSH2 0x472 SWAP5 SWAP4 SWAP3 SWAP2 SWAP1 PUSH2 0x2489 JUMP JUMPDEST PUSH1 0x40 MLOAD DUP1 SWAP2 SUB SWAP1 RETURN JUMPDEST CALLVALUE DUP1 ISZERO PUSH2 0x487 JUMPI PUSH1 0x0 DUP1 REVERT JUMPDEST POP PUSH2 0x4A2 PUSH1 0x4 DUP1 CALLDATASIZE SUB DUP2 ADD SWAP1 PUSH2 0x49D SWAP2 SWAP1 PUSH2 0x1D97 JUMP JUMPDEST PUSH2 0x1123 JUMP JUMPDEST PUSH1 0x40 MLOAD PUSH2 0x4AF SWAP2 SWAP1 PUSH2 0x246E JUMP JUMPDEST PUSH1 0x40 MLOAD DUP1 SWAP2 SUB SWAP1 RETURN JUMPDEST CALLVALUE DUP1 ISZERO PUSH2 0x4C4 JUMPI PUSH1 0x0 DUP1 REVERT JUMPDEST POP PUSH2 0x4DF PUSH1 0x4 DUP1 CALLDATASIZE SUB DUP2 ADD SWAP1 PUSH2 0x4DA SWAP2 SWAP1 PUSH2 0x1F90 JUMP JUMPDEST PUSH2 0x113B JUMP JUMPDEST PUSH1 0x40 MLOAD PUSH2 0x4EC SWAP2 SWAP1 PUSH2 0x22EC JUMP JUMPDEST PUSH1 0x40 MLOAD DUP1 SWAP2 SUB SWAP1 RETURN JUMPDEST CALLVALUE DUP1 ISZERO PUSH2 0x501 JUMPI PUSH1 0x0 DUP1 REVERT JUMPDEST POP PUSH2 0x51C PUSH1 0x4 DUP1 CALLDATASIZE SUB DUP2 ADD SWAP1 PUSH2 0x517 SWAP2 SWAP1 PUSH2 0x1F90 JUMP JUMPDEST PUSH2 0x11A3 JUMP JUMPDEST PUSH1 0x40 MLOAD PUSH2 0x529 SWAP2 SWAP1 PUSH2 0x246E JUMP JUMPDEST PUSH1 0x40 MLOAD DUP1 SWAP2 SUB SWAP1 RETURN JUMPDEST CALLVALUE DUP1 ISZERO PUSH2 0x53E JUMPI PUSH1 0x0 DUP1 REVERT JUMPDEST POP PUSH2 0x559 PUSH1 0x4 DUP1 CALLDATASIZE SUB DUP2 ADD SWAP1 PUSH2 0x554 SWAP2 SWAP1 PUSH2 0x1DC0 JUMP JUMPDEST PUSH2 0x11BB JUMP JUMPDEST PUSH1 0x40 MLOAD PUSH2 0x566 SWAP2 SWAP1 PUSH2 0x22D1 JUMP JUMPDEST PUSH1 0x40 MLOAD DUP1 SWAP2 SUB SWAP1 RETURN JUMPDEST CALLVALUE DUP1 ISZERO PUSH2 0x57B JUMPI PUSH1 0x0 DUP1 REVERT JUMPDEST POP PUSH2 0x584 PUSH2 0x124F JUMP JUMPDEST PUSH1 0x40 MLOAD PUSH2 0x591 SWAP2 SWAP1 PUSH2 0x246E JUMP JUMPDEST PUSH1 0x40 MLOAD DUP1 SWAP2 SUB SWAP1 RETURN JUMPDEST PUSH1 0x0 PUSH32 0x80AC58CD00000000000000000000000000000000000000000000000000000000 PUSH28 0xFFFFFFFFFFFFFFFFFFFFFFFFFFFFFFFFFFFFFFFFFFFFFFFFFFFFFFFF NOT AND DUP3 PUSH28 0xFFFFFFFFFFFFFFFFFFFFFFFFFFFFFFFFFFFFFFFFFFFFFFFFFFFFFFFF NOT AND EQ DUP1 PUSH2 0x665 JUMPI POP PUSH32 0x5B5E139F00000000000000000000000000000000000000000000000000000000 PUSH28 0xFFFFFFFFFFFFFFFFFFFFFFFFFFFFFFFFFFFFFFFFFFFFFFFFFFFFFFFF NOT AND DUP3 PUSH28 0xFFFFFFFFFFFFFFFFFFFFFFFFFFFFFFFFFFFFFFFFFFFFFFFFFFFFFFFF NOT AND EQ JUMPDEST DUP1 PUSH2 0x675 JUMPI POP PUSH2 0x674 DUP3 PUSH2 0x1259 JUMP JUMPDEST JUMPDEST SWAP1 POP SWAP2 SWAP1 POP JUMP JUMPDEST PUSH1 0x60 PUSH1 0x0 DUP1 SLOAD PUSH2 0x68B SWAP1 PUSH2 0x275C JUMP JUMPDEST DUP1 PUSH1 0x1F ADD PUSH1 0x20 DUP1 SWAP2 DIV MUL PUSH1 0x20 ADD PUSH1 0x40 MLOAD SWAP1 DUP2 ADD PUSH1 0x40 MSTORE DUP1 SWAP3 SWAP2 SWAP1 DUP2 DUP2 MSTORE PUSH1 0x20 ADD DUP3 DUP1 SLOAD PUSH2 0x6B7 SWAP1 PUSH2 0x275C JUMP JUMPDEST DUP1 ISZERO PUSH2 0x704 JUMPI DUP1 PUSH1 0x1F LT PUSH2 0x6D9 JUMPI PUSH2 0x100 DUP1 DUP4 SLOAD DIV MUL DUP4 MSTORE SWAP2 PUSH1 0x20 ADD SWAP2 PUSH2 0x704 JUMP JUMPDEST DUP3 ADD SWAP2 SWAP1 PUSH1 0x0 MSTORE PUSH1 0x20 PUSH1 0x0 KECCAK256 SWAP1 JUMPDEST DUP2 SLOAD DUP2 MSTORE SWAP1 PUSH1 0x1 ADD SWAP1 PUSH1 0x20 ADD DUP1 DUP4 GT PUSH2 0x6E7 JUMPI DUP3 SWAP1 SUB PUSH1 0x1F AND DUP3 ADD SWAP2 JUMPDEST POP POP POP POP POP SWAP1 POP SWAP1 JUMP JUMPDEST PUSH1 0x0 PUSH2 0x719 DUP3 PUSH2 0x12C3 JUMP JUMPDEST PUSH1 0x4 PUSH1 0x0 DUP4 DUP2 MSTORE PUSH1 0x20 ADD SWAP1 DUP2 MSTORE PUSH1 0x20 ADD PUSH1 0x0 KECCAK256 PUSH1 0x0 SWAP1 SLOAD SWAP1 PUSH2 0x100 EXP SWAP1 DIV PUSH20 0xFFFFFFFFFFFFFFFFFFFFFFFFFFFFFFFFFFFFFFFF AND SWAP1 POP SWAP2 SWAP1 POP JUMP JUMPDEST PUSH1 0x0 PUSH2 0x75F DUP3 PUSH2 0x9BF JUMP JUMPDEST SWAP1 POP DUP1 PUSH20 0xFFFFFFFFFFFFFFFFFFFFFFFFFFFFFFFFFFFFFFFF AND DUP4 PUSH20 0xFFFFFFFFFFFFFFFFFFFFFFFFFFFFFFFFFFFFFFFF AND EQ ISZERO PUSH2 0x7D0 JUMPI PUSH1 0x40 MLOAD PUSH32 0x8C379A000000000000000000000000000000000000000000000000000000000 DUP2 MSTORE PUSH1 0x4 ADD PUSH2 0x7C7 SWAP1 PUSH2 0x23EE JUMP JUMPDEST PUSH1 0x40 MLOAD DUP1 SWAP2 SUB SWAP1 REVERT JUMPDEST DUP1 PUSH20 0xFFFFFFFFFFFFFFFFFFFFFFFFFFFFFFFFFFFFFFFF AND PUSH2 0x7EF PUSH2 0x130E JUMP JUMPDEST PUSH20 0xFFFFFFFFFFFFFFFFFFFFFFFFFFFFFFFFFFFFFFFF AND EQ DUP1 PUSH2 0x81E JUMPI POP PUSH2 0x81D DUP2 PUSH2 0x818 PUSH2 0x130E JUMP JUMPDEST PUSH2 0x11BB JUMP JUMPDEST JUMPDEST PUSH2 0x85D JUMPI PUSH1 0x40 MLOAD PUSH32 0x8C379A000000000000000000000000000000000000000000000000000000000 DUP2 MSTORE PUSH1 0x4 ADD PUSH2 0x854 SWAP1 PUSH2 0x23AE JUMP JUMPDEST PUSH1 0x40 MLOAD DUP1 SWAP2 SUB SWAP1 REVERT JUMPDEST PUSH2 0x867 DUP4 DUP4 PUSH2 0x1316 JUMP JUMPDEST POP POP POP JUMP JUMPDEST PUSH1 0xA PUSH1 0x20 MSTORE DUP1 PUSH1 0x0 MSTORE PUSH1 0x40 PUSH1 0x0 KECCAK256 PUSH1 0x0 SWAP2 POP SLOAD SWAP1 PUSH2 0x100 EXP SWAP1 DIV PUSH20 0xFFFFFFFFFFFFFFFFFFFFFFFFFFFFFFFFFFFFFFFF AND DUP2 JUMP JUMPDEST PUSH2 0x8B0 PUSH2 0x8AA PUSH2 0x130E JUMP JUMPDEST DUP3 PUSH2 0x13CF JUMP JUMPDEST PUSH2 0x8EF JUMPI PUSH1 0x40 MLOAD PUSH32 0x8C379A000000000000000000000000000000000000000000000000000000000 DUP2 MSTORE PUSH1 0x4 ADD PUSH2 0x8E6 SWAP1 PUSH2 0x240E JUMP JUMPDEST PUSH1 0x40 MLOAD DUP1 SWAP2 SUB SWAP1 REVERT JUMPDEST PUSH2 0x8FA DUP4 DUP4 DUP4 PUSH2 0x1464 JUMP JUMPDEST POP POP POP JUMP JUMPDEST PUSH1 0x6 PUSH1 0x0 SWAP1 SLOAD SWAP1 PUSH2 0x100 EXP SWAP1 DIV PUSH20 0xFFFFFFFFFFFFFFFFFFFFFFFFFFFFFFFFFFFFFFFF AND PUSH20 0xFFFFFFFFFFFFFFFFFFFFFFFFFFFFFFFFFFFFFFFF AND CALLER PUSH20 0xFFFFFFFFFFFFFFFFFFFFFFFFFFFFFFFFFFFFFFFF AND EQ PUSH2 0x98F JUMPI PUSH1 0x40 MLOAD PUSH32 0x8C379A000000000000000000000000000000000000000000000000000000000 DUP2 MSTORE PUSH1 0x4 ADD PUSH2 0x986 SWAP1 PUSH2 0x242E JUMP JUMPDEST PUSH1 0x40 MLOAD DUP1 SWAP2 SUB SWAP1 REVERT JUMPDEST DUP1 PUSH1 0x9 DUP2 SWAP1 SSTORE POP POP JUMP JUMPDEST PUSH2 0x9B4 DUP4 DUP4 DUP4 PUSH1 0x40 MLOAD DUP1 PUSH1 0x20 ADD PUSH1 0x40 MSTORE DUP1 PUSH1 0x0 DUP2 MSTORE POP PUSH2 0x1074 JUMP JUMPDEST POP POP POP JUMP JUMPDEST PUSH1 0x8 SLOAD DUP2 JUMP JUMPDEST PUSH1 0x0 DUP1 PUSH1 0x2 PUSH1 0x0 DUP5 DUP2 MSTORE PUSH1 0x20 ADD SWAP1 DUP2 MSTORE PUSH1 0x20 ADD PUSH1 0x0 KECCAK256 PUSH1 0x0 SWAP1 SLOAD SWAP1 PUSH2 0x100 EXP SWAP1 DIV PUSH20 0xFFFFFFFFFFFFFFFFFFFFFFFFFFFFFFFFFFFFFFFF AND SWAP1 POP PUSH1 0x0 PUSH20 0xFFFFFFFFFFFFFFFFFFFFFFFFFFFFFFFFFFFFFFFF AND DUP2 PUSH20 0xFFFFFFFFFFFFFFFFFFFFFFFFFFFFFFFFFFFFFFFF AND EQ ISZERO PUSH2 0xA68 JUMPI PUSH1 0x40 MLOAD PUSH32 0x8C379A000000000000000000000000000000000000000000000000000000000 DUP2 MSTORE PUSH1 0x4 ADD PUSH2 0xA5F SWAP1 PUSH2 0x23CE JUMP JUMPDEST PUSH1 0x40 MLOAD DUP1 SWAP2 SUB SWAP1 REVERT JUMPDEST DUP1 SWAP2 POP POP SWAP2 SWAP1 POP JUMP JUMPDEST PUSH1 0x0 DUP1 PUSH20 0xFFFFFFFFFFFFFFFFFFFFFFFFFFFFFFFFFFFFFFFF AND DUP3 PUSH20 0xFFFFFFFFFFFFFFFFFFFFFFFFFFFFFFFFFFFFFFFF AND EQ ISZERO PUSH2 0xAE2 JUMPI PUSH1 0x40 MLOAD PUSH32 0x8C379A000000000000000000000000000000000000000000000000000000000 DUP2 MSTORE PUSH1 0x4 ADD PUSH2 0xAD9 SWAP1 PUSH2 0x238E JUMP JUMPDEST PUSH1 0x40 MLOAD DUP1 SWAP2 SUB SWAP1 REVERT JUMPDEST PUSH1 0x3 PUSH1 0x0 DUP4 PUSH20 0xFFFFFFFFFFFFFFFFFFFFFFFFFFFFFFFFFFFFFFFF AND PUSH20 0xFFFFFFFFFFFFFFFFFFFFFFFFFFFFFFFFFFFFFFFF AND DUP2 MSTORE PUSH1 0x20 ADD SWAP1 DUP2 MSTORE PUSH1 0x20 ADD PUSH1 0x0 KECCAK256 SLOAD SWAP1 POP SWAP2 SWAP1 POP JUMP JUMPDEST PUSH1 0x7 DUP2 DUP2 SLOAD DUP2 LT PUSH2 0xB63 JUMPI PUSH32 0x4E487B7100000000000000000000000000000000000000000000000000000000 PUSH1 0x0 MSTORE PUSH1 0x32 PUSH1 0x4 MSTORE PUSH1 0x24 PUSH1 0x0 REVERT JUMPDEST SWAP1 PUSH1 0x0 MSTORE PUSH1 0x20 PUSH1 0x0 KECCAK256 SWAP1 PUSH1 0x4 MUL ADD PUSH1 0x1 ADD SLOAD CALLVALUE EQ PUSH2 0xB80 JUMPI PUSH1 0x0 DUP1 REVERT JUMPDEST PUSH1 0x0 PUSH1 0xA PUSH1 0x0 DUP4 DUP2 MSTORE PUSH1 0x20 ADD SWAP1 DUP2 MSTORE PUSH1 0x20 ADD PUSH1 0x0 KECCAK256 PUSH1 0x0 SWAP1 SLOAD SWAP1 PUSH2 0x100 EXP SWAP1 DIV PUSH20 0xFFFFFFFFFFFFFFFFFFFFFFFFFFFFFFFFFFFFFFFF AND SWAP1 POP PUSH1 0x0 PUSH1 0x7 DUP4 DUP2 SLOAD DUP2 LT PUSH2 0xBF4 JUMPI PUSH32 0x4E487B7100000000000000000000000000000000000000000000000000000000 PUSH1 0x0 MSTORE PUSH1 0x32 PUSH1 0x4 MSTORE PUSH1 0x24 PUSH1 0x0 REVERT JUMPDEST SWAP1 PUSH1 0x0 MSTORE PUSH1 0x20 PUSH1 0x0 KECCAK256 SWAP1 PUSH1 0x4 MUL ADD SWAP1 POP PUSH1 0x0 DUP2 PUSH1 0x3 ADD PUSH1 0x0 PUSH2 0x100 EXP DUP2 SLOAD DUP2 PUSH1 0xFF MUL NOT AND SWAP1 DUP4 ISZERO ISZERO MUL OR SWAP1 SSTORE POP CALLER PUSH1 0xA PUSH1 0x0 DUP6 DUP2 MSTORE PUSH1 0x20 ADD SWAP1 DUP2 MSTORE PUSH1 0x20 ADD PUSH1 0x0 KECCAK256 PUSH1 0x0 PUSH2 0x100 EXP DUP2 SLOAD DUP2 PUSH20 0xFFFFFFFFFFFFFFFFFFFFFFFFFFFFFFFFFFFFFFFF MUL NOT AND SWAP1 DUP4 PUSH20 0xFFFFFFFFFFFFFFFFFFFFFFFFFFFFFFFFFFFFFFFF AND MUL OR SWAP1 SSTORE POP PUSH1 0xB PUSH1 0x0 DUP4 PUSH20 0xFFFFFFFFFFFFFFFFFFFFFFFFFFFFFFFFFFFFFFFF AND PUSH20 0xFFFFFFFFFFFFFFFFFFFFFFFFFFFFFFFFFFFFFFFF AND DUP2 MSTORE PUSH1 0x20 ADD SWAP1 DUP2 MSTORE PUSH1 0x20 ADD PUSH1 0x0 KECCAK256 PUSH1 0x0 DUP2 SLOAD DUP1 SWAP3 SWAP2 SWAP1 PUSH2 0xCC3 SWAP1 PUSH2 0x2732 JUMP JUMPDEST SWAP2 SWAP1 POP SSTORE POP PUSH1 0xB PUSH1 0x0 CALLER PUSH20 0xFFFFFFFFFFFFFFFFFFFFFFFFFFFFFFFFFFFFFFFF AND PUSH20 0xFFFFFFFFFFFFFFFFFFFFFFFFFFFFFFFFFFFFFFFF AND DUP2 MSTORE PUSH1 0x20 ADD SWAP1 DUP2 MSTORE PUSH1 0x20 ADD PUSH1 0x0 KECCAK256 PUSH1 0x0 DUP2 SLOAD DUP1 SWAP3 SWAP2 SWAP1 PUSH2 0xD18 SWAP1 PUSH2 0x27BF JUMP JUMPDEST SWAP2 SWAP1 POP SSTORE POP PUSH1 0x0 DUP1 PUSH2 0xD2C CALLVALUE PUSH1 0x9 SLOAD PUSH2 0x16CB JUMP JUMPDEST DUP1 SWAP3 POP DUP2 SWAP4 POP POP POP PUSH1 0x6 PUSH1 0x0 SWAP1 SLOAD SWAP1 PUSH2 0x100 EXP SWAP1 DIV PUSH20 0xFFFFFFFFFFFFFFFFFFFFFFFFFFFFFFFFFFFFFFFF AND PUSH20 0xFFFFFFFFFFFFFFFFFFFFFFFFFFFFFFFFFFFFFFFF AND PUSH2 0x8FC DUP4 SWAP1 DUP2 ISZERO MUL SWAP1 PUSH1 0x40 MLOAD PUSH1 0x0 PUSH1 0x40 MLOAD DUP1 DUP4 SUB DUP2 DUP6 DUP9 DUP9 CALL SWAP4 POP POP POP POP ISZERO DUP1 ISZERO PUSH2 0xD9C JUMPI RETURNDATASIZE PUSH1 0x0 DUP1 RETURNDATACOPY RETURNDATASIZE PUSH1 0x0 REVERT JUMPDEST POP DUP4 PUSH20 0xFFFFFFFFFFFFFFFFFFFFFFFFFFFFFFFFFFFFFFFF AND PUSH2 0x8FC DUP3 SWAP1 DUP2 ISZERO MUL SWAP1 PUSH1 0x40 MLOAD PUSH1 0x0 PUSH1 0x40 MLOAD DUP1 DUP4 SUB DUP2 DUP6 DUP9 DUP9 CALL SWAP4 POP POP POP POP ISZERO DUP1 ISZERO PUSH2 0xDE3 JUMPI RETURNDATASIZE PUSH1 0x0 DUP1 RETURNDATACOPY RETURNDATASIZE PUSH1 0x0 REVERT JUMPDEST POP POP POP POP POP POP JUMP JUMPDEST PUSH1 0x60 PUSH1 0x1 DUP1 SLOAD PUSH2 0xDFA SWAP1 PUSH2 0x275C JUMP JUMPDEST DUP1 PUSH1 0x1F ADD PUSH1 0x20 DUP1 SWAP2 DIV MUL PUSH1 0x20 ADD PUSH1 0x40 MLOAD SWAP1 DUP2 ADD PUSH1 0x40 MSTORE DUP1 SWAP3 SWAP2 SWAP1 DUP2 DUP2 MSTORE PUSH1 0x20 ADD DUP3 DUP1 SLOAD PUSH2 0xE26 SWAP1 PUSH2 0x275C JUMP JUMPDEST DUP1 ISZERO PUSH2 0xE73 JUMPI DUP1 PUSH1 0x1F LT PUSH2 0xE48 JUMPI PUSH2 0x100 DUP1 DUP4 SLOAD DIV MUL DUP4 MSTORE SWAP2 PUSH1 0x20 ADD SWAP2 PUSH2 0xE73 JUMP JUMPDEST DUP3 ADD SWAP2 SWAP1 PUSH1 0x0 MSTORE PUSH1 0x20 PUSH1 0x0 KECCAK256 SWAP1 JUMPDEST DUP2 SLOAD DUP2 MSTORE SWAP1 PUSH1 0x1 ADD SWAP1 PUSH1 0x20 ADD DUP1 DUP4 GT PUSH2 0xE56 JUMPI DUP3 SWAP1 SUB PUSH1 0x1F AND DUP3 ADD SWAP2 JUMPDEST POP POP POP POP POP SWAP1 POP SWAP1 JUMP JUMPDEST PUSH2 0xE8F PUSH2 0xE88 PUSH2 0x130E JUMP JUMPDEST DUP4 DUP4 PUSH2 0x1709 JUMP JUMPDEST POP POP JUMP JUMPDEST PUSH1 0x0 DUP1 DUP4 GT PUSH2 0xED7 JUMPI PUSH1 0x40 MLOAD PUSH32 0x8C379A000000000000000000000000000000000000000000000000000000000 DUP2 MSTORE PUSH1 0x4 ADD PUSH2 0xECE SWAP1 PUSH2 0x244E JUMP JUMPDEST PUSH1 0x40 MLOAD DUP1 SWAP2 SUB SWAP1 REVERT JUMPDEST PUSH1 0x0 PUSH1 0x7 DUP1 SLOAD SWAP1 POP SWAP1 POP PUSH1 0x40 MLOAD DUP1 PUSH1 0x80 ADD PUSH1 0x40 MSTORE DUP1 DUP3 DUP2 MSTORE PUSH1 0x20 ADD DUP6 DUP2 MSTORE PUSH1 0x20 ADD DUP5 DUP2 MSTORE PUSH1 0x20 ADD PUSH1 0x1 ISZERO ISZERO DUP2 MSTORE POP PUSH1 0x7 DUP3 DUP2 SLOAD DUP2 LT PUSH2 0xF3F JUMPI PUSH32 0x4E487B7100000000000000000000000000000000000000000000000000000000 PUSH1 0x0 MSTORE PUSH1 0x32 PUSH1 0x4 MSTORE PUSH1 0x24 PUSH1 0x0 REVERT JUMPDEST SWAP1 PUSH1 0x0 MSTORE PUSH1 0x20 PUSH1 0x0 KECCAK256 SWAP1 PUSH1 0x4 MUL ADD PUSH1 0x0 DUP3 ADD MLOAD DUP2 PUSH1 0x0 ADD SSTORE PUSH1 0x20 DUP3 ADD MLOAD DUP2 PUSH1 0x1 ADD SSTORE PUSH1 0x40 DUP3 ADD MLOAD DUP2 PUSH1 0x2 ADD SSTORE PUSH1 0x60 DUP3 ADD MLOAD DUP2 PUSH1 0x3 ADD PUSH1 0x0 PUSH2 0x100 EXP DUP2 SLOAD DUP2 PUSH1 0xFF MUL NOT AND SWAP1 DUP4 ISZERO ISZERO MUL OR SWAP1 SSTORE POP SWAP1 POP POP PUSH1 0x8 PUSH1 0x0 DUP2 SLOAD DUP1 SWAP3 SWAP2 SWAP1 PUSH2 0xFA1 SWAP1 PUSH2 0x27BF JUMP JUMPDEST SWAP2 SWAP1 POP SSTORE POP CALLER PUSH1 0xA PUSH1 0x0 DUP4 DUP2 MSTORE PUSH1 0x20 ADD SWAP1 DUP2 MSTORE PUSH1 0x20 ADD PUSH1 0x0 KECCAK256 PUSH1 0x0 PUSH2 0x100 EXP DUP2 SLOAD DUP2 PUSH20 0xFFFFFFFFFFFFFFFFFFFFFFFFFFFFFFFFFFFFFFFF MUL NOT AND SWAP1 DUP4 PUSH20 0xFFFFFFFFFFFFFFFFFFFFFFFFFFFFFFFFFFFFFFFF AND MUL OR SWAP1 SSTORE POP PUSH1 0xB PUSH1 0x0 CALLER PUSH20 0xFFFFFFFFFFFFFFFFFFFFFFFFFFFFFFFFFFFFFFFF AND PUSH20 0xFFFFFFFFFFFFFFFFFFFFFFFFFFFFFFFFFFFFFFFF AND DUP2 MSTORE PUSH1 0x20 ADD SWAP1 DUP2 MSTORE PUSH1 0x20 ADD PUSH1 0x0 KECCAK256 PUSH1 0x0 DUP2 SLOAD DUP1 SWAP3 SWAP2 SWAP1 PUSH1 0x1 ADD SWAP2 SWAP1 POP SSTORE POP PUSH1 0xC PUSH1 0x0 DUP5 DUP2 MSTORE PUSH1 0x20 ADD SWAP1 DUP2 MSTORE PUSH1 0x20 ADD PUSH1 0x0 KECCAK256 PUSH1 0x0 DUP2 SLOAD DUP1 SWAP3 SWAP2 SWAP1 PUSH1 0x1 ADD SWAP2 SWAP1 POP SSTORE POP DUP1 SWAP2 POP POP SWAP3 SWAP2 POP POP JUMP JUMPDEST PUSH2 0x1085 PUSH2 0x107F PUSH2 0x130E JUMP JUMPDEST DUP4 PUSH2 0x13CF JUMP JUMPDEST PUSH2 0x10C4 JUMPI PUSH1 0x40 MLOAD PUSH32 0x8C379A000000000000000000000000000000000000000000000000000000000 DUP2 MSTORE PUSH1 0x4 ADD PUSH2 0x10BB SWAP1 PUSH2 0x240E JUMP JUMPDEST PUSH1 0x40 MLOAD DUP1 SWAP2 SUB SWAP1 REVERT JUMPDEST PUSH2 0x10D0 DUP5 DUP5 DUP5 DUP5 PUSH2 0x1876 JUMP JUMPDEST POP POP POP POP JUMP JUMPDEST PUSH1 0x7 DUP2 DUP2 SLOAD DUP2 LT PUSH2 0x10E6 JUMPI PUSH1 0x0 DUP1 REVERT JUMPDEST SWAP1 PUSH1 0x0 MSTORE PUSH1 0x20 PUSH1 0x0 KECCAK256 SWAP1 PUSH1 0x4 MUL ADD PUSH1 0x0 SWAP2 POP SWAP1 POP DUP1 PUSH1 0x0 ADD SLOAD SWAP1 DUP1 PUSH1 0x1 ADD SLOAD SWAP1 DUP1 PUSH1 0x2 ADD SLOAD SWAP1 DUP1 PUSH1 0x3 ADD PUSH1 0x0 SWAP1 SLOAD SWAP1 PUSH2 0x100 EXP SWAP1 DIV PUSH1 0xFF AND SWAP1 POP DUP5 JUMP JUMPDEST PUSH1 0xB PUSH1 0x20 MSTORE DUP1 PUSH1 0x0 MSTORE PUSH1 0x40 PUSH1 0x0 KECCAK256 PUSH1 0x0 SWAP2 POP SWAP1 POP SLOAD DUP2 JUMP JUMPDEST PUSH1 0x60 PUSH2 0x1146 DUP3 PUSH2 0x12C3 JUMP JUMPDEST PUSH1 0x0 PUSH2 0x1150 PUSH2 0x18D2 JUMP JUMPDEST SWAP1 POP PUSH1 0x0 DUP2 MLOAD GT PUSH2 0x1170 JUMPI PUSH1 0x40 MLOAD DUP1 PUSH1 0x20 ADD PUSH1 0x40 MSTORE DUP1 PUSH1 0x0 DUP2 MSTORE POP PUSH2 0x119B JUMP JUMPDEST DUP1 PUSH2 0x117A DUP5 PUSH2 0x18E9 JUMP JUMPDEST PUSH1 0x40 MLOAD PUSH1 0x20 ADD PUSH2 0x118B SWAP3 SWAP2 SWAP1 PUSH2 0x2246 JUMP JUMPDEST PUSH1 0x40 MLOAD PUSH1 0x20 DUP2 DUP4 SUB SUB DUP2 MSTORE SWAP1 PUSH1 0x40 MSTORE JUMPDEST SWAP2 POP POP SWAP2 SWAP1 POP JUMP JUMPDEST PUSH1 0xC PUSH1 0x20 MSTORE DUP1 PUSH1 0x0 MSTORE PUSH1 0x40 PUSH1 0x0 KECCAK256 PUSH1 0x0 SWAP2 POP SWAP1 POP SLOAD DUP2 JUMP JUMPDEST PUSH1 0x0 PUSH1 0x5 PUSH1 0x0 DUP5 PUSH20 0xFFFFFFFFFFFFFFFFFFFFFFFFFFFFFFFFFFFFFFFF AND PUSH20 0xFFFFFFFFFFFFFFFFFFFFFFFFFFFFFFFFFFFFFFFF AND DUP2 MSTORE PUSH1 0x20 ADD SWAP1 DUP2 MSTORE PUSH1 0x20 ADD PUSH1 0x0 KECCAK256 PUSH1 0x0 DUP4 PUSH20 0xFFFFFFFFFFFFFFFFFFFFFFFFFFFFFFFFFFFFFFFF AND PUSH20 0xFFFFFFFFFFFFFFFFFFFFFFFFFFFFFFFFFFFFFFFF AND DUP2 MSTORE PUSH1 0x20 ADD SWAP1 DUP2 MSTORE PUSH1 0x20 ADD PUSH1 0x0 KECCAK256 PUSH1 0x0 SWAP1 SLOAD SWAP1 PUSH2 0x100 EXP SWAP1 DIV PUSH1 0xFF AND SWAP1 POP SWAP3 SWAP2 POP POP JUMP JUMPDEST PUSH1 0x0 PUSH1 0x9 SLOAD SWAP1 POP SWAP1 JUMP JUMPDEST PUSH1 0x0 PUSH32 0x1FFC9A700000000000000000000000000000000000000000000000000000000 PUSH28 0xFFFFFFFFFFFFFFFFFFFFFFFFFFFFFFFFFFFFFFFFFFFFFFFFFFFFFFFF NOT AND DUP3 PUSH28 0xFFFFFFFFFFFFFFFFFFFFFFFFFFFFFFFFFFFFFFFFFFFFFFFFFFFFFFFF NOT AND EQ SWAP1 POP SWAP2 SWAP1 POP JUMP JUMPDEST PUSH2 0x12CC DUP2 PUSH2 0x1A96 JUMP JUMPDEST PUSH2 0x130B JUMPI PUSH1 0x40 MLOAD PUSH32 0x8C379A000000000000000000000000000000000000000000000000000000000 DUP2 MSTORE PUSH1 0x4 ADD PUSH2 0x1302 SWAP1 PUSH2 0x23CE JUMP JUMPDEST PUSH1 0x40 MLOAD DUP1 SWAP2 SUB SWAP1 REVERT JUMPDEST POP JUMP JUMPDEST PUSH1 0x0 CALLER SWAP1 POP SWAP1 JUMP JUMPDEST DUP2 PUSH1 0x4 PUSH1 0x0 DUP4 DUP2 MSTORE PUSH1 0x20 ADD SWAP1 DUP2 MSTORE PUSH1 0x20 ADD PUSH1 0x0 KECCAK256 PUSH1 0x0 PUSH2 0x100 EXP DUP2 SLOAD DUP2 PUSH20 0xFFFFFFFFFFFFFFFFFFFFFFFFFFFFFFFFFFFFFFFF MUL NOT AND SWAP1 DUP4 PUSH20 0xFFFFFFFFFFFFFFFFFFFFFFFFFFFFFFFFFFFFFFFF AND MUL OR SWAP1 SSTORE POP DUP1 DUP3 PUSH20 0xFFFFFFFFFFFFFFFFFFFFFFFFFFFFFFFFFFFFFFFF AND PUSH2 0x1389 DUP4 PUSH2 0x9BF JUMP JUMPDEST PUSH20 0xFFFFFFFFFFFFFFFFFFFFFFFFFFFFFFFFFFFFFFFF AND PUSH32 0x8C5BE1E5EBEC7D5BD14F71427D1E84F3DD0314C0F7B2291E5B200AC8C7C3B925 PUSH1 0x40 MLOAD PUSH1 0x40 MLOAD DUP1 SWAP2 SUB SWAP1 LOG4 POP POP JUMP JUMPDEST PUSH1 0x0 DUP1 PUSH2 0x13DB DUP4 PUSH2 0x9BF JUMP JUMPDEST SWAP1 POP DUP1 PUSH20 0xFFFFFFFFFFFFFFFFFFFFFFFFFFFFFFFFFFFFFFFF AND DUP5 PUSH20 0xFFFFFFFFFFFFFFFFFFFFFFFFFFFFFFFFFFFFFFFF AND EQ DUP1 PUSH2 0x141D JUMPI POP PUSH2 0x141C DUP2 DUP6 PUSH2 0x11BB JUMP JUMPDEST JUMPDEST DUP1 PUSH2 0x145B JUMPI POP DUP4 PUSH20 0xFFFFFFFFFFFFFFFFFFFFFFFFFFFFFFFFFFFFFFFF AND PUSH2 0x1443 DUP5 PUSH2 0x70E JUMP JUMPDEST PUSH20 0xFFFFFFFFFFFFFFFFFFFFFFFFFFFFFFFFFFFFFFFF AND EQ JUMPDEST SWAP2 POP POP SWAP3 SWAP2 POP POP JUMP JUMPDEST DUP3 PUSH20 0xFFFFFFFFFFFFFFFFFFFFFFFFFFFFFFFFFFFFFFFF AND PUSH2 0x1484 DUP3 PUSH2 0x9BF JUMP JUMPDEST PUSH20 0xFFFFFFFFFFFFFFFFFFFFFFFFFFFFFFFFFFFFFFFF AND EQ PUSH2 0x14DA JUMPI PUSH1 0x40 MLOAD PUSH32 0x8C379A000000000000000000000000000000000000000000000000000000000 DUP2 MSTORE PUSH1 0x4 ADD PUSH2 0x14D1 SWAP1 PUSH2 0x232E JUMP JUMPDEST PUSH1 0x40 MLOAD DUP1 SWAP2 SUB SWAP1 REVERT JUMPDEST PUSH1 0x0 PUSH20 0xFFFFFFFFFFFFFFFFFFFFFFFFFFFFFFFFFFFFFFFF AND DUP3 PUSH20 0xFFFFFFFFFFFFFFFFFFFFFFFFFFFFFFFFFFFFFFFF AND EQ ISZERO PUSH2 0x154A JUMPI PUSH1 0x40 MLOAD PUSH32 0x8C379A000000000000000000000000000000000000000000000000000000000 DUP2 MSTORE PUSH1 0x4 ADD PUSH2 0x1541 SWAP1 PUSH2 0x234E JUMP JUMPDEST PUSH1 0x40 MLOAD DUP1 SWAP2 SUB SWAP1 REVERT JUMPDEST PUSH2 0x1555 DUP4 DUP4 DUP4 PUSH2 0x1B02 JUMP JUMPDEST PUSH2 0x1560 PUSH1 0x0 DUP3 PUSH2 0x1316 JUMP JUMPDEST PUSH1 0x1 PUSH1 0x3 PUSH1 0x0 DUP6 PUSH20 0xFFFFFFFFFFFFFFFFFFFFFFFFFFFFFFFFFFFFFFFF AND PUSH20 0xFFFFFFFFFFFFFFFFFFFFFFFFFFFFFFFFFFFFFFFF AND DUP2 MSTORE PUSH1 0x20 ADD SWAP1 DUP2 MSTORE PUSH1 0x20 ADD PUSH1 0x0 KECCAK256 PUSH1 0x0 DUP3 DUP3 SLOAD PUSH2 0x15B0 SWAP2 SWAP1 PUSH2 0x2648 JUMP JUMPDEST SWAP3 POP POP DUP2 SWAP1 SSTORE POP PUSH1 0x1 PUSH1 0x3 PUSH1 0x0 DUP5 PUSH20 0xFFFFFFFFFFFFFFFFFFFFFFFFFFFFFFFFFFFFFFFF AND PUSH20 0xFFFFFFFFFFFFFFFFFFFFFFFFFFFFFFFFFFFFFFFF AND DUP2 MSTORE PUSH1 0x20 ADD SWAP1 DUP2 MSTORE PUSH1 0x20 ADD PUSH1 0x0 KECCAK256 PUSH1 0x0 DUP3 DUP3 SLOAD PUSH2 0x1607 SWAP2 SWAP1 PUSH2 0x2567 JUMP JUMPDEST SWAP3 POP POP DUP2 SWAP1 SSTORE POP DUP2 PUSH1 0x2 PUSH1 0x0 DUP4 DUP2 MSTORE PUSH1 0x20 ADD SWAP1 DUP2 MSTORE PUSH1 0x20 ADD PUSH1 0x0 KECCAK256 PUSH1 0x0 PUSH2 0x100 EXP DUP2 SLOAD DUP2 PUSH20 0xFFFFFFFFFFFFFFFFFFFFFFFFFFFFFFFFFFFFFFFF MUL NOT AND SWAP1 DUP4 PUSH20 0xFFFFFFFFFFFFFFFFFFFFFFFFFFFFFFFFFFFFFFFF AND MUL OR SWAP1 SSTORE POP DUP1 DUP3 PUSH20 0xFFFFFFFFFFFFFFFFFFFFFFFFFFFFFFFFFFFFFFFF AND DUP5 PUSH20 0xFFFFFFFFFFFFFFFFFFFFFFFFFFFFFFFFFFFFFFFF AND PUSH32 0xDDF252AD1BE2C89B69C2B068FC378DAA952BA7F163C4A11628F55A4DF523B3EF PUSH1 0x40 MLOAD PUSH1 0x40 MLOAD DUP1 SWAP2 SUB SWAP1 LOG4 PUSH2 0x16C6 DUP4 DUP4 DUP4 PUSH2 0x1B07 JUMP JUMPDEST POP POP POP JUMP JUMPDEST PUSH1 0x0 DUP1 PUSH1 0x0 PUSH1 0x64 DUP6 DUP6 PUSH2 0x16DE SWAP2 SWAP1 PUSH2 0x25EE JUMP JUMPDEST PUSH2 0x16E8 SWAP2 SWAP1 PUSH2 0x25BD JUMP JUMPDEST SWAP1 POP PUSH1 0x0 DUP2 DUP7 PUSH2 0x16F8 SWAP2 SWAP1 PUSH2 0x2648 JUMP JUMPDEST SWAP1 POP DUP2 DUP2 SWAP4 POP SWAP4 POP POP POP SWAP3 POP SWAP3 SWAP1 POP JUMP JUMPDEST DUP2 PUSH20 0xFFFFFFFFFFFFFFFFFFFFFFFFFFFFFFFFFFFFFFFF AND DUP4 PUSH20 0xFFFFFFFFFFFFFFFFFFFFFFFFFFFFFFFFFFFFFFFF AND EQ ISZERO PUSH2 0x1778 JUMPI PUSH1 0x40 MLOAD PUSH32 0x8C379A000000000000000000000000000000000000000000000000000000000 DUP2 MSTORE PUSH1 0x4 ADD PUSH2 0x176F SWAP1 PUSH2 0x236E JUMP JUMPDEST PUSH1 0x40 MLOAD DUP1 SWAP2 SUB SWAP1 REVERT JUMPDEST DUP1 PUSH1 0x5 PUSH1 0x0 DUP6 PUSH20 0xFFFFFFFFFFFFFFFFFFFFFFFFFFFFFFFFFFFFFFFF AND PUSH20 0xFFFFFFFFFFFFFFFFFFFFFFFFFFFFFFFFFFFFFFFF AND DUP2 MSTORE PUSH1 0x20 ADD SWAP1 DUP2 MSTORE PUSH1 0x20 ADD PUSH1 0x0 KECCAK256 PUSH1 0x0 DUP5 PUSH20 0xFFFFFFFFFFFFFFFFFFFFFFFFFFFFFFFFFFFFFFFF AND PUSH20 0xFFFFFFFFFFFFFFFFFFFFFFFFFFFFFFFFFFFFFFFF AND DUP2 MSTORE PUSH1 0x20 ADD SWAP1 DUP2 MSTORE PUSH1 0x20 ADD PUSH1 0x0 KECCAK256 PUSH1 0x0 PUSH2 0x100 EXP DUP2 SLOAD DUP2 PUSH1 0xFF MUL NOT AND SWAP1 DUP4 ISZERO ISZERO MUL OR SWAP1 SSTORE POP DUP2 PUSH20 0xFFFFFFFFFFFFFFFFFFFFFFFFFFFFFFFFFFFFFFFF AND DUP4 PUSH20 0xFFFFFFFFFFFFFFFFFFFFFFFFFFFFFFFFFFFFFFFF AND PUSH32 0x17307EAB39AB6107E8899845AD3D59BD9653F200F220920489CA2B5937696C31 DUP4 PUSH1 0x40 MLOAD PUSH2 0x1869 SWAP2 SWAP1 PUSH2 0x22D1 JUMP JUMPDEST PUSH1 0x40 MLOAD DUP1 SWAP2 SUB SWAP1 LOG3 POP POP POP JUMP JUMPDEST PUSH2 0x1881 DUP5 DUP5 DUP5 PUSH2 0x1464 JUMP JUMPDEST PUSH2 0x188D DUP5 DUP5 DUP5 DUP5 PUSH2 0x1B0C JUMP JUMPDEST PUSH2 0x18CC JUMPI PUSH1 0x40 MLOAD PUSH32 0x8C379A000000000000000000000000000000000000000000000000000000000 DUP2 MSTORE PUSH1 0x4 ADD PUSH2 0x18C3 SWAP1 PUSH2 0x230E JUMP JUMPDEST PUSH1 0x40 MLOAD DUP1 SWAP2 SUB SWAP1 REVERT JUMPDEST POP POP POP POP JUMP JUMPDEST PUSH1 0x60 PUSH1 0x40 MLOAD DUP1 PUSH1 0x20 ADD PUSH1 0x40 MSTORE DUP1 PUSH1 0x0 DUP2 MSTORE POP SWAP1 POP SWAP1 JUMP JUMPDEST PUSH1 0x60 PUSH1 0x0 DUP3 EQ ISZERO PUSH2 0x1931 JUMPI PUSH1 0x40 MLOAD DUP1 PUSH1 0x40 ADD PUSH1 0x40 MSTORE DUP1 PUSH1 0x1 DUP2 MSTORE PUSH1 0x20 ADD PUSH32 0x3000000000000000000000000000000000000000000000000000000000000000 DUP2 MSTORE POP SWAP1 POP PUSH2 0x1A91 JUMP JUMPDEST PUSH1 0x0 DUP3 SWAP1 POP PUSH1 0x0 JUMPDEST PUSH1 0x0 DUP3 EQ PUSH2 0x1963 JUMPI DUP1 DUP1 PUSH2 0x194C SWAP1 PUSH2 0x27BF JUMP JUMPDEST SWAP2 POP POP PUSH1 0xA DUP3 PUSH2 0x195C SWAP2 SWAP1 PUSH2 0x25BD JUMP JUMPDEST SWAP2 POP PUSH2 0x1939 JUMP JUMPDEST PUSH1 0x0 DUP2 PUSH8 0xFFFFFFFFFFFFFFFF DUP2 GT ISZERO PUSH2 0x19A5 JUMPI PUSH32 0x4E487B7100000000000000000000000000000000000000000000000000000000 PUSH1 0x0 MSTORE PUSH1 0x41 PUSH1 0x4 MSTORE PUSH1 0x24 PUSH1 0x0 REVERT JUMPDEST PUSH1 0x40 MLOAD SWAP1 DUP1 DUP3 MSTORE DUP1 PUSH1 0x1F ADD PUSH1 0x1F NOT AND PUSH1 0x20 ADD DUP3 ADD PUSH1 0x40 MSTORE DUP1 ISZERO PUSH2 0x19D7 JUMPI DUP2 PUSH1 0x20 ADD PUSH1 0x1 DUP3 MUL DUP1 CALLDATASIZE DUP4 CALLDATACOPY DUP1 DUP3 ADD SWAP2 POP POP SWAP1 POP JUMPDEST POP SWAP1 POP JUMPDEST PUSH1 0x0 DUP6 EQ PUSH2 0x1A8A JUMPI PUSH1 0x1 DUP3 PUSH2 0x19F0 SWAP2 SWAP1 PUSH2 0x2648 JUMP JUMPDEST SWAP2 POP PUSH1 0xA DUP6 PUSH2 0x19FF SWAP2 SWAP1 PUSH2 0x2808 JUMP JUMPDEST PUSH1 0x30 PUSH2 0x1A0B SWAP2 SWAP1 PUSH2 0x2567 JUMP JUMPDEST PUSH1 0xF8 SHL DUP2 DUP4 DUP2 MLOAD DUP2 LT PUSH2 0x1A47 JUMPI PUSH32 0x4E487B7100000000000000000000000000000000000000000000000000000000 PUSH1 0x0 MSTORE PUSH1 0x32 PUSH1 0x4 MSTORE PUSH1 0x24 PUSH1 0x0 REVERT JUMPDEST PUSH1 0x20 ADD ADD SWAP1 PUSH31 0xFFFFFFFFFFFFFFFFFFFFFFFFFFFFFFFFFFFFFFFFFFFFFFFFFFFFFFFFFFFFFF NOT AND SWAP1 DUP2 PUSH1 0x0 BYTE SWAP1 MSTORE8 POP PUSH1 0xA DUP6 PUSH2 0x1A83 SWAP2 SWAP1 PUSH2 0x25BD JUMP JUMPDEST SWAP5 POP PUSH2 0x19DB JUMP JUMPDEST DUP1 SWAP4 POP POP POP POP JUMPDEST SWAP2 SWAP1 POP JUMP JUMPDEST PUSH1 0x0 DUP1 PUSH20 0xFFFFFFFFFFFFFFFFFFFFFFFFFFFFFFFFFFFFFFFF AND PUSH1 0x2 PUSH1 0x0 DUP5 DUP2 MSTORE PUSH1 0x20 ADD SWAP1 DUP2 MSTORE PUSH1 0x20 ADD PUSH1 0x0 KECCAK256 PUSH1 0x0 SWAP1 SLOAD SWAP1 PUSH2 0x100 EXP SWAP1 DIV PUSH20 0xFFFFFFFFFFFFFFFFFFFFFFFFFFFFFFFFFFFFFFFF AND PUSH20 0xFFFFFFFFFFFFFFFFFFFFFFFFFFFFFFFFFFFFFFFF AND EQ ISZERO SWAP1 POP SWAP2 SWAP1 POP JUMP JUMPDEST POP POP POP JUMP JUMPDEST POP POP POP JUMP JUMPDEST PUSH1 0x0 PUSH2 0x1B2D DUP5 PUSH20 0xFFFFFFFFFFFFFFFFFFFFFFFFFFFFFFFFFFFFFFFF AND PUSH2 0x1CA3 JUMP JUMPDEST ISZERO PUSH2 0x1C96 JUMPI DUP4 PUSH20 0xFFFFFFFFFFFFFFFFFFFFFFFFFFFFFFFFFFFFFFFF AND PUSH4 0x150B7A02 PUSH2 0x1B56 PUSH2 0x130E JUMP JUMPDEST DUP8 DUP7 DUP7 PUSH1 0x40 MLOAD DUP6 PUSH4 0xFFFFFFFF AND PUSH1 0xE0 SHL DUP2 MSTORE PUSH1 0x4 ADD PUSH2 0x1B78 SWAP5 SWAP4 SWAP3 SWAP2 SWAP1 PUSH2 0x2285 JUMP JUMPDEST PUSH1 0x20 PUSH1 0x40 MLOAD DUP1 DUP4 SUB DUP2 PUSH1 0x0 DUP8 DUP1 EXTCODESIZE ISZERO DUP1 ISZERO PUSH2 0x1B92 JUMPI PUSH1 0x0 DUP1 REVERT JUMPDEST POP GAS CALL SWAP3 POP POP POP DUP1 ISZERO PUSH2 0x1BC3 JUMPI POP PUSH1 0x40 MLOAD RETURNDATASIZE PUSH1 0x1F NOT PUSH1 0x1F DUP3 ADD AND DUP3 ADD DUP1 PUSH1 0x40 MSTORE POP DUP2 ADD SWAP1 PUSH2 0x1BC0 SWAP2 SWAP1 PUSH2 0x1F67 JUMP JUMPDEST PUSH1 0x1 JUMPDEST PUSH2 0x1C46 JUMPI RETURNDATASIZE DUP1 PUSH1 0x0 DUP2 EQ PUSH2 0x1BF3 JUMPI PUSH1 0x40 MLOAD SWAP2 POP PUSH1 0x1F NOT PUSH1 0x3F RETURNDATASIZE ADD AND DUP3 ADD PUSH1 0x40 MSTORE RETURNDATASIZE DUP3 MSTORE RETURNDATASIZE PUSH1 0x0 PUSH1 0x20 DUP5 ADD RETURNDATACOPY PUSH2 0x1BF8 JUMP JUMPDEST PUSH1 0x60 SWAP2 POP JUMPDEST POP PUSH1 0x0 DUP2 MLOAD EQ ISZERO PUSH2 0x1C3E JUMPI PUSH1 0x40 MLOAD PUSH32 0x8C379A000000000000000000000000000000000000000000000000000000000 DUP2 MSTORE PUSH1 0x4 ADD PUSH2 0x1C35 SWAP1 PUSH2 0x230E JUMP JUMPDEST PUSH1 0x40 MLOAD DUP1 SWAP2 SUB SWAP1 REVERT JUMPDEST DUP1 MLOAD DUP2 PUSH1 0x20 ADD REVERT JUMPDEST PUSH4 0x150B7A02 PUSH1 0xE0 SHL PUSH28 0xFFFFFFFFFFFFFFFFFFFFFFFFFFFFFFFFFFFFFFFFFFFFFFFFFFFFFFFF NOT AND DUP2 PUSH28 0xFFFFFFFFFFFFFFFFFFFFFFFFFFFFFFFFFFFFFFFFFFFFFFFFFFFFFFFF NOT AND EQ SWAP2 POP POP PUSH2 0x1C9B JUMP JUMPDEST PUSH1 0x1 SWAP1 POP JUMPDEST SWAP5 SWAP4 POP POP POP POP JUMP JUMPDEST PUSH1 0x0 DUP1 DUP3 PUSH20 0xFFFFFFFFFFFFFFFFFFFFFFFFFFFFFFFFFFFFFFFF AND EXTCODESIZE GT SWAP1 POP SWAP2 SWAP1 POP JUMP JUMPDEST PUSH1 0x0 PUSH2 0x1CD9 PUSH2 0x1CD4 DUP5 PUSH2 0x24F3 JUMP JUMPDEST PUSH2 0x24CE JUMP JUMPDEST SWAP1 POP DUP3 DUP2 MSTORE PUSH1 0x20 DUP2 ADD DUP5 DUP5 DUP5 ADD GT ISZERO PUSH2 0x1CF1 JUMPI PUSH1 0x0 DUP1 REVERT JUMPDEST PUSH2 0x1CFC DUP5 DUP3 DUP6 PUSH2 0x26F0 JUMP JUMPDEST POP SWAP4 SWAP3 POP POP POP JUMP JUMPDEST PUSH1 0x0 DUP2 CALLDATALOAD SWAP1 POP PUSH2 0x1D13 DUP2 PUSH2 0x2BF9 JUMP JUMPDEST SWAP3 SWAP2 POP POP JUMP JUMPDEST PUSH1 0x0 DUP2 CALLDATALOAD SWAP1 POP PUSH2 0x1D28 DUP2 PUSH2 0x2C10 JUMP JUMPDEST SWAP3 SWAP2 POP POP JUMP JUMPDEST PUSH1 0x0 DUP2 CALLDATALOAD SWAP1 POP PUSH2 0x1D3D DUP2 PUSH2 0x2C27 JUMP JUMPDEST SWAP3 SWAP2 POP POP JUMP JUMPDEST PUSH1 0x0 DUP2 MLOAD SWAP1 POP PUSH2 0x1D52 DUP2 PUSH2 0x2C27 JUMP JUMPDEST SWAP3 SWAP2 POP POP JUMP JUMPDEST PUSH1 0x0 DUP3 PUSH1 0x1F DUP4 ADD SLT PUSH2 0x1D69 JUMPI PUSH1 0x0 DUP1 REVERT JUMPDEST DUP2 CALLDATALOAD PUSH2 0x1D79 DUP5 DUP3 PUSH1 0x20 DUP7 ADD PUSH2 0x1CC6 JUMP JUMPDEST SWAP2 POP POP SWAP3 SWAP2 POP POP JUMP JUMPDEST PUSH1 0x0 DUP2 CALLDATALOAD SWAP1 POP PUSH2 0x1D91 DUP2 PUSH2 0x2C3E JUMP JUMPDEST SWAP3 SWAP2 POP POP JUMP JUMPDEST PUSH1 0x0 PUSH1 0x20 DUP3 DUP5 SUB SLT ISZERO PUSH2 0x1DA9 JUMPI PUSH1 0x0 DUP1 REVERT JUMPDEST PUSH1 0x0 PUSH2 0x1DB7 DUP5 DUP3 DUP6 ADD PUSH2 0x1D04 JUMP JUMPDEST SWAP2 POP POP SWAP3 SWAP2 POP POP JUMP JUMPDEST PUSH1 0x0 DUP1 PUSH1 0x40 DUP4 DUP6 SUB SLT ISZERO PUSH2 0x1DD3 JUMPI PUSH1 0x0 DUP1 REVERT JUMPDEST PUSH1 0x0 PUSH2 0x1DE1 DUP6 DUP3 DUP7 ADD PUSH2 0x1D04 JUMP JUMPDEST SWAP3 POP POP PUSH1 0x20 PUSH2 0x1DF2 DUP6 DUP3 DUP7 ADD PUSH2 0x1D04 JUMP JUMPDEST SWAP2 POP POP SWAP3 POP SWAP3 SWAP1 POP JUMP JUMPDEST PUSH1 0x0 DUP1 PUSH1 0x0 PUSH1 0x60 DUP5 DUP7 SUB SLT ISZERO PUSH2 0x1E11 JUMPI PUSH1 0x0 DUP1 REVERT JUMPDEST PUSH1 0x0 PUSH2 0x1E1F DUP7 DUP3 DUP8 ADD PUSH2 0x1D04 JUMP JUMPDEST SWAP4 POP POP PUSH1 0x20 PUSH2 0x1E30 DUP7 DUP3 DUP8 ADD PUSH2 0x1D04 JUMP JUMPDEST SWAP3 POP POP PUSH1 0x40 PUSH2 0x1E41 DUP7 DUP3 DUP8 ADD PUSH2 0x1D82 JUMP JUMPDEST SWAP2 POP POP SWAP3 POP SWAP3 POP SWAP3 JUMP JUMPDEST PUSH1 0x0 DUP1 PUSH1 0x0 DUP1 PUSH1 0x80 DUP6 DUP8 SUB SLT ISZERO PUSH2 0x1E61 JUMPI PUSH1 0x0 DUP1 REVERT JUMPDEST PUSH1 0x0 PUSH2 0x1E6F DUP8 DUP3 DUP9 ADD PUSH2 0x1D04 JUMP JUMPDEST SWAP5 POP POP PUSH1 0x20 PUSH2 0x1E80 DUP8 DUP3 DUP9 ADD PUSH2 0x1D04 JUMP JUMPDEST SWAP4 POP POP PUSH1 0x40 PUSH2 0x1E91 DUP8 DUP3 DUP9 ADD PUSH2 0x1D82 JUMP JUMPDEST SWAP3 POP POP PUSH1 0x60 DUP6 ADD CALLDATALOAD PUSH8 0xFFFFFFFFFFFFFFFF DUP2 GT ISZERO PUSH2 0x1EAE JUMPI PUSH1 0x0 DUP1 REVERT JUMPDEST PUSH2 0x1EBA DUP8 DUP3 DUP9 ADD PUSH2 0x1D58 JUMP JUMPDEST SWAP2 POP POP SWAP3 SWAP6 SWAP2 SWAP5 POP SWAP3 POP JUMP JUMPDEST PUSH1 0x0 DUP1 PUSH1 0x40 DUP4 DUP6 SUB SLT ISZERO PUSH2 0x1ED9 JUMPI PUSH1 0x0 DUP1 REVERT JUMPDEST PUSH1 0x0 PUSH2 0x1EE7 DUP6 DUP3 DUP7 ADD PUSH2 0x1D04 JUMP JUMPDEST SWAP3 POP POP PUSH1 0x20 PUSH2 0x1EF8 DUP6 DUP3 DUP7 ADD PUSH2 0x1D19 JUMP JUMPDEST SWAP2 POP POP SWAP3 POP SWAP3 SWAP1 POP JUMP JUMPDEST PUSH1 0x0 DUP1 PUSH1 0x40 DUP4 DUP6 SUB SLT ISZERO PUSH2 0x1F15 JUMPI PUSH1 0x0 DUP1 REVERT JUMPDEST PUSH1 0x0 PUSH2 0x1F23 DUP6 DUP3 DUP7 ADD PUSH2 0x1D04 JUMP JUMPDEST SWAP3 POP POP PUSH1 0x20 PUSH2 0x1F34 DUP6 DUP3 DUP7 ADD PUSH2 0x1D82 JUMP JUMPDEST SWAP2 POP POP SWAP3 POP SWAP3 SWAP1 POP JUMP JUMPDEST PUSH1 0x0 PUSH1 0x20 DUP3 DUP5 SUB SLT ISZERO PUSH2 0x1F50 JUMPI PUSH1 0x0 DUP1 REVERT JUMPDEST PUSH1 0x0 PUSH2 0x1F5E DUP5 DUP3 DUP6 ADD PUSH2 0x1D2E JUMP JUMPDEST SWAP2 POP POP SWAP3 SWAP2 POP POP JUMP JUMPDEST PUSH1 0x0 PUSH1 0x20 DUP3 DUP5 SUB SLT ISZERO PUSH2 0x1F79 JUMPI PUSH1 0x0 DUP1 REVERT JUMPDEST PUSH1 0x0 PUSH2 0x1F87 DUP5 DUP3 DUP6 ADD PUSH2 0x1D43 JUMP JUMPDEST SWAP2 POP POP SWAP3 SWAP2 POP POP JUMP JUMPDEST PUSH1 0x0 PUSH1 0x20 DUP3 DUP5 SUB SLT ISZERO PUSH2 0x1FA2 JUMPI PUSH1 0x0 DUP1 REVERT JUMPDEST PUSH1 0x0 PUSH2 0x1FB0 DUP5 DUP3 DUP6 ADD PUSH2 0x1D82 JUMP JUMPDEST SWAP2 POP POP SWAP3 SWAP2 POP POP JUMP JUMPDEST PUSH1 0x0 DUP1 PUSH1 0x40 DUP4 DUP6 SUB SLT ISZERO PUSH2 0x1FCC JUMPI PUSH1 0x0 DUP1 REVERT JUMPDEST PUSH1 0x0 PUSH2 0x1FDA DUP6 DUP3 DUP7 ADD PUSH2 0x1D82 JUMP JUMPDEST SWAP3 POP POP PUSH1 0x20 PUSH2 0x1FEB DUP6 DUP3 DUP7 ADD PUSH2 0x1D82 JUMP JUMPDEST SWAP2 POP POP SWAP3 POP SWAP3 SWAP1 POP JUMP JUMPDEST PUSH2 0x1FFE DUP2 PUSH2 0x267C JUMP JUMPDEST DUP3 MSTORE POP POP JUMP JUMPDEST PUSH2 0x200D DUP2 PUSH2 0x268E JUMP JUMPDEST DUP3 MSTORE POP POP JUMP JUMPDEST PUSH1 0x0 PUSH2 0x201E DUP3 PUSH2 0x2524 JUMP JUMPDEST PUSH2 0x2028 DUP2 DUP6 PUSH2 0x253A JUMP JUMPDEST SWAP4 POP PUSH2 0x2038 DUP2 DUP6 PUSH1 0x20 DUP7 ADD PUSH2 0x26FF JUMP JUMPDEST PUSH2 0x2041 DUP2 PUSH2 0x28F5 JUMP JUMPDEST DUP5 ADD SWAP2 POP POP SWAP3 SWAP2 POP POP JUMP JUMPDEST PUSH1 0x0 PUSH2 0x2057 DUP3 PUSH2 0x252F JUMP JUMPDEST PUSH2 0x2061 DUP2 DUP6 PUSH2 0x254B JUMP JUMPDEST SWAP4 POP PUSH2 0x2071 DUP2 DUP6 PUSH1 0x20 DUP7 ADD PUSH2 0x26FF JUMP JUMPDEST PUSH2 0x207A DUP2 PUSH2 0x28F5 JUMP JUMPDEST DUP5 ADD SWAP2 POP POP SWAP3 SWAP2 POP POP JUMP JUMPDEST PUSH1 0x0 PUSH2 0x2090 DUP3 PUSH2 0x252F JUMP JUMPDEST PUSH2 0x209A DUP2 DUP6 PUSH2 0x255C JUMP JUMPDEST SWAP4 POP PUSH2 0x20AA DUP2 DUP6 PUSH1 0x20 DUP7 ADD PUSH2 0x26FF JUMP JUMPDEST DUP1 DUP5 ADD SWAP2 POP POP SWAP3 SWAP2 POP POP JUMP JUMPDEST PUSH1 0x0 PUSH2 0x20C3 PUSH1 0x32 DUP4 PUSH2 0x254B JUMP JUMPDEST SWAP2 POP PUSH2 0x20CE DUP3 PUSH2 0x2906 JUMP JUMPDEST PUSH1 0x40 DUP3 ADD SWAP1 POP SWAP2 SWAP1 POP JUMP JUMPDEST PUSH1 0x0 PUSH2 0x20E6 PUSH1 0x25 DUP4 PUSH2 0x254B JUMP JUMPDEST SWAP2 POP PUSH2 0x20F1 DUP3 PUSH2 0x2955 JUMP JUMPDEST PUSH1 0x40 DUP3 ADD SWAP1 POP SWAP2 SWAP1 POP JUMP JUMPDEST PUSH1 0x0 PUSH2 0x2109 PUSH1 0x24 DUP4 PUSH2 0x254B JUMP JUMPDEST SWAP2 POP PUSH2 0x2114 DUP3 PUSH2 0x29A4 JUMP JUMPDEST PUSH1 0x40 DUP3 ADD SWAP1 POP SWAP2 SWAP1 POP JUMP JUMPDEST PUSH1 0x0 PUSH2 0x212C PUSH1 0x19 DUP4 PUSH2 0x254B JUMP JUMPDEST SWAP2 POP PUSH2 0x2137 DUP3 PUSH2 0x29F3 JUMP JUMPDEST PUSH1 0x20 DUP3 ADD SWAP1 POP SWAP2 SWAP1 POP JUMP JUMPDEST PUSH1 0x0 PUSH2 0x214F PUSH1 0x29 DUP4 PUSH2 0x254B JUMP JUMPDEST SWAP2 POP PUSH2 0x215A DUP3 PUSH2 0x2A1C JUMP JUMPDEST PUSH1 0x40 DUP3 ADD SWAP1 POP SWAP2 SWAP1 POP JUMP JUMPDEST PUSH1 0x0 PUSH2 0x2172 PUSH1 0x3E DUP4 PUSH2 0x254B JUMP JUMPDEST SWAP2 POP PUSH2 0x217D DUP3 PUSH2 0x2A6B JUMP JUMPDEST PUSH1 0x40 DUP3 ADD SWAP1 POP SWAP2 SWAP1 POP JUMP JUMPDEST PUSH1 0x0 PUSH2 0x2195 PUSH1 0x18 DUP4 PUSH2 0x254B JUMP JUMPDEST SWAP2 POP PUSH2 0x21A0 DUP3 PUSH2 0x2ABA JUMP JUMPDEST PUSH1 0x20 DUP3 ADD SWAP1 POP SWAP2 SWAP1 POP JUMP JUMPDEST PUSH1 0x0 PUSH2 0x21B8 PUSH1 0x21 DUP4 PUSH2 0x254B JUMP JUMPDEST SWAP2 POP PUSH2 0x21C3 DUP3 PUSH2 0x2AE3 JUMP JUMPDEST PUSH1 0x40 DUP3 ADD SWAP1 POP SWAP2 SWAP1 POP JUMP JUMPDEST PUSH1 0x0 PUSH2 0x21DB PUSH1 0x2E DUP4 PUSH2 0x254B JUMP JUMPDEST SWAP2 POP PUSH2 0x21E6 DUP3 PUSH2 0x2B32 JUMP JUMPDEST PUSH1 0x40 DUP3 ADD SWAP1 POP SWAP2 SWAP1 POP JUMP JUMPDEST PUSH1 0x0 PUSH2 0x21FE PUSH1 0x21 DUP4 PUSH2 0x254B JUMP JUMPDEST SWAP2 POP PUSH2 0x2209 DUP3 PUSH2 0x2B81 JUMP JUMPDEST PUSH1 0x40 DUP3 ADD SWAP1 POP SWAP2 SWAP1 POP JUMP JUMPDEST PUSH1 0x0 PUSH2 0x2221 PUSH1 0x1A DUP4 PUSH2 0x254B JUMP JUMPDEST SWAP2 POP PUSH2 0x222C DUP3 PUSH2 0x2BD0 JUMP JUMPDEST PUSH1 0x20 DUP3 ADD SWAP1 POP SWAP2 SWAP1 POP JUMP JUMPDEST PUSH2 0x2240 DUP2 PUSH2 0x26E6 JUMP JUMPDEST DUP3 MSTORE POP POP JUMP JUMPDEST PUSH1 0x0 PUSH2 0x2252 DUP3 DUP6 PUSH2 0x2085 JUMP JUMPDEST SWAP2 POP PUSH2 0x225E DUP3 DUP5 PUSH2 0x2085 JUMP JUMPDEST SWAP2 POP DUP2 SWAP1 POP SWAP4 SWAP3 POP POP POP JUMP JUMPDEST PUSH1 0x0 PUSH1 0x20 DUP3 ADD SWAP1 POP PUSH2 0x227F PUSH1 0x0 DUP4 ADD DUP5 PUSH2 0x1FF5 JUMP JUMPDEST SWAP3 SWAP2 POP POP JUMP JUMPDEST PUSH1 0x0 PUSH1 0x80 DUP3 ADD SWAP1 POP PUSH2 0x229A PUSH1 0x0 DUP4 ADD DUP8 PUSH2 0x1FF5 JUMP JUMPDEST PUSH2 0x22A7 PUSH1 0x20 DUP4 ADD DUP7 PUSH2 0x1FF5 JUMP JUMPDEST PUSH2 0x22B4 PUSH1 0x40 DUP4 ADD DUP6 PUSH2 0x2237 JUMP JUMPDEST DUP2 DUP2 SUB PUSH1 0x60 DUP4 ADD MSTORE PUSH2 0x22C6 DUP2 DUP5 PUSH2 0x2013 JUMP JUMPDEST SWAP1 POP SWAP6 SWAP5 POP POP POP POP POP JUMP JUMPDEST PUSH1 0x0 PUSH1 0x20 DUP3 ADD SWAP1 POP PUSH2 0x22E6 PUSH1 0x0 DUP4 ADD DUP5 PUSH2 0x2004 JUMP JUMPDEST SWAP3 SWAP2 POP POP JUMP JUMPDEST PUSH1 0x0 PUSH1 0x20 DUP3 ADD SWAP1 POP DUP2 DUP2 SUB PUSH1 0x0 DUP4 ADD MSTORE PUSH2 0x2306 DUP2 DUP5 PUSH2 0x204C JUMP JUMPDEST SWAP1 POP SWAP3 SWAP2 POP POP JUMP JUMPDEST PUSH1 0x0 PUSH1 0x20 DUP3 ADD SWAP1 POP DUP2 DUP2 SUB PUSH1 0x0 DUP4 ADD MSTORE PUSH2 0x2327 DUP2 PUSH2 0x20B6 JUMP JUMPDEST SWAP1 POP SWAP2 SWAP1 POP JUMP JUMPDEST PUSH1 0x0 PUSH1 0x20 DUP3 ADD SWAP1 POP DUP2 DUP2 SUB PUSH1 0x0 DUP4 ADD MSTORE PUSH2 0x2347 DUP2 PUSH2 0x20D9 JUMP JUMPDEST SWAP1 POP SWAP2 SWAP1 POP JUMP JUMPDEST PUSH1 0x0 PUSH1 0x20 DUP3 ADD SWAP1 POP DUP2 DUP2 SUB PUSH1 0x0 DUP4 ADD MSTORE PUSH2 0x2367 DUP2 PUSH2 0x20FC JUMP JUMPDEST SWAP1 POP SWAP2 SWAP1 POP JUMP JUMPDEST PUSH1 0x0 PUSH1 0x20 DUP3 ADD SWAP1 POP DUP2 DUP2 SUB PUSH1 0x0 DUP4 ADD MSTORE PUSH2 0x2387 DUP2 PUSH2 0x211F JUMP JUMPDEST SWAP1 POP SWAP2 SWAP1 POP JUMP JUMPDEST PUSH1 0x0 PUSH1 0x20 DUP3 ADD SWAP1 POP DUP2 DUP2 SUB PUSH1 0x0 DUP4 ADD MSTORE PUSH2 0x23A7 DUP2 PUSH2 0x2142 JUMP JUMPDEST SWAP1 POP SWAP2 SWAP1 POP JUMP JUMPDEST PUSH1 0x0 PUSH1 0x20 DUP3 ADD SWAP1 POP DUP2 DUP2 SUB PUSH1 0x0 DUP4 ADD MSTORE PUSH2 0x23C7 DUP2 PUSH2 0x2165 JUMP JUMPDEST SWAP1 POP SWAP2 SWAP1 POP JUMP JUMPDEST PUSH1 0x0 PUSH1 0x20 DUP3 ADD SWAP1 POP DUP2 DUP2 SUB PUSH1 0x0 DUP4 ADD MSTORE PUSH2 0x23E7 DUP2 PUSH2 0x2188 JUMP JUMPDEST SWAP1 POP SWAP2 SWAP1 POP JUMP JUMPDEST PUSH1 0x0 PUSH1 0x20 DUP3 ADD SWAP1 POP DUP2 DUP2 SUB PUSH1 0x0 DUP4 ADD MSTORE PUSH2 0x2407 DUP2 PUSH2 0x21AB JUMP JUMPDEST SWAP1 POP SWAP2 SWAP1 POP JUMP JUMPDEST PUSH1 0x0 PUSH1 0x20 DUP3 ADD SWAP1 POP DUP2 DUP2 SUB PUSH1 0x0 DUP4 ADD MSTORE PUSH2 0x2427 DUP2 PUSH2 0x21CE JUMP JUMPDEST SWAP1 POP SWAP2 SWAP1 POP JUMP JUMPDEST PUSH1 0x0 PUSH1 0x20 DUP3 ADD SWAP1 POP DUP2 DUP2 SUB PUSH1 0x0 DUP4 ADD MSTORE PUSH2 0x2447 DUP2 PUSH2 0x21F1 JUMP JUMPDEST SWAP1 POP SWAP2 SWAP1 POP JUMP JUMPDEST PUSH1 0x0 PUSH1 0x20 DUP3 ADD SWAP1 POP DUP2 DUP2 SUB PUSH1 0x0 DUP4 ADD MSTORE PUSH2 0x2467 DUP2 PUSH2 0x2214 JUMP JUMPDEST SWAP1 POP SWAP2 SWAP1 POP JUMP JUMPDEST PUSH1 0x0 PUSH1 0x20 DUP3 ADD SWAP1 POP PUSH2 0x2483 PUSH1 0x0 DUP4 ADD DUP5 PUSH2 0x2237 JUMP JUMPDEST SWAP3 SWAP2 POP POP JUMP JUMPDEST PUSH1 0x0 PUSH1 0x80 DUP3 ADD SWAP1 POP PUSH2 0x249E PUSH1 0x0 DUP4 ADD DUP8 PUSH2 0x2237 JUMP JUMPDEST PUSH2 0x24AB PUSH1 0x20 DUP4 ADD DUP7 PUSH2 0x2237 JUMP JUMPDEST PUSH2 0x24B8 PUSH1 0x40 DUP4 ADD DUP6 PUSH2 0x2237 JUMP JUMPDEST PUSH2 0x24C5 PUSH1 0x60 DUP4 ADD DUP5 PUSH2 0x2004 JUMP JUMPDEST SWAP6 SWAP5 POP POP POP POP POP JUMP JUMPDEST PUSH1 0x0 PUSH2 0x24D8 PUSH2 0x24E9 JUMP JUMPDEST SWAP1 POP PUSH2 0x24E4 DUP3 DUP3 PUSH2 0x278E JUMP JUMPDEST SWAP2 SWAP1 POP JUMP JUMPDEST PUSH1 0x0 PUSH1 0x40 MLOAD SWAP1 POP SWAP1 JUMP JUMPDEST PUSH1 0x0 PUSH8 0xFFFFFFFFFFFFFFFF DUP3 GT ISZERO PUSH2 0x250E JUMPI PUSH2 0x250D PUSH2 0x28C6 JUMP JUMPDEST JUMPDEST PUSH2 0x2517 DUP3 PUSH2 0x28F5 JUMP JUMPDEST SWAP1 POP PUSH1 0x20 DUP2 ADD SWAP1 POP SWAP2 SWAP1 POP JUMP JUMPDEST PUSH1 0x0 DUP2 MLOAD SWAP1 POP SWAP2 SWAP1 POP JUMP JUMPDEST PUSH1 0x0 DUP2 MLOAD SWAP1 POP SWAP2 SWAP1 POP JUMP JUMPDEST PUSH1 0x0 DUP3 DUP3 MSTORE PUSH1 0x20 DUP3 ADD SWAP1 POP SWAP3 SWAP2 POP POP JUMP JUMPDEST PUSH1 0x0 DUP3 DUP3 MSTORE PUSH1 0x20 DUP3 ADD SWAP1 POP SWAP3 SWAP2 POP POP JUMP JUMPDEST PUSH1 0x0 DUP2 SWAP1 POP SWAP3 SWAP2 POP POP JUMP JUMPDEST PUSH1 0x0 PUSH2 0x2572 DUP3 PUSH2 0x26E6 JUMP JUMPDEST SWAP2 POP PUSH2 0x257D DUP4 PUSH2 0x26E6 JUMP JUMPDEST SWAP3 POP DUP3 PUSH32 0xFFFFFFFFFFFFFFFFFFFFFFFFFFFFFFFFFFFFFFFFFFFFFFFFFFFFFFFFFFFFFFFF SUB DUP3 GT ISZERO PUSH2 0x25B2 JUMPI PUSH2 0x25B1 PUSH2 0x2839 JUMP JUMPDEST JUMPDEST DUP3 DUP3 ADD SWAP1 POP SWAP3 SWAP2 POP POP JUMP JUMPDEST PUSH1 0x0 PUSH2 0x25C8 DUP3 PUSH2 0x26E6 JUMP JUMPDEST SWAP2 POP PUSH2 0x25D3 DUP4 PUSH2 0x26E6 JUMP JUMPDEST SWAP3 POP DUP3 PUSH2 0x25E3 JUMPI PUSH2 0x25E2 PUSH2 0x2868 JUMP JUMPDEST JUMPDEST DUP3 DUP3 DIV SWAP1 POP SWAP3 SWAP2 POP POP JUMP JUMPDEST PUSH1 0x0 PUSH2 0x25F9 DUP3 PUSH2 0x26E6 JUMP JUMPDEST SWAP2 POP PUSH2 0x2604 DUP4 PUSH2 0x26E6 JUMP JUMPDEST SWAP3 POP DUP2 PUSH32 0xFFFFFFFFFFFFFFFFFFFFFFFFFFFFFFFFFFFFFFFFFFFFFFFFFFFFFFFFFFFFFFFF DIV DUP4 GT DUP3 ISZERO ISZERO AND ISZERO PUSH2 0x263D JUMPI PUSH2 0x263C PUSH2 0x2839 JUMP JUMPDEST JUMPDEST DUP3 DUP3 MUL SWAP1 POP SWAP3 SWAP2 POP POP JUMP JUMPDEST PUSH1 0x0 PUSH2 0x2653 DUP3 PUSH2 0x26E6 JUMP JUMPDEST SWAP2 POP PUSH2 0x265E DUP4 PUSH2 0x26E6 JUMP JUMPDEST SWAP3 POP DUP3 DUP3 LT ISZERO PUSH2 0x2671 JUMPI PUSH2 0x2670 PUSH2 0x2839 JUMP JUMPDEST JUMPDEST DUP3 DUP3 SUB SWAP1 POP SWAP3 SWAP2 POP POP JUMP JUMPDEST PUSH1 0x0 PUSH2 0x2687 DUP3 PUSH2 0x26C6 JUMP JUMPDEST SWAP1 POP SWAP2 SWAP1 POP JUMP JUMPDEST PUSH1 0x0 DUP2 ISZERO ISZERO SWAP1 POP SWAP2 SWAP1 POP JUMP JUMPDEST PUSH1 0x0 PUSH32 0xFFFFFFFF00000000000000000000000000000000000000000000000000000000 DUP3 AND SWAP1 POP SWAP2 SWAP1 POP JUMP JUMPDEST PUSH1 0x0 PUSH20 0xFFFFFFFFFFFFFFFFFFFFFFFFFFFFFFFFFFFFFFFF DUP3 AND SWAP1 POP SWAP2 SWAP1 POP JUMP JUMPDEST PUSH1 0x0 DUP2 SWAP1 POP SWAP2 SWAP1 POP JUMP JUMPDEST DUP3 DUP2 DUP4 CALLDATACOPY PUSH1 0x0 DUP4 DUP4 ADD MSTORE POP POP POP JUMP JUMPDEST PUSH1 0x0 JUMPDEST DUP4 DUP2 LT ISZERO PUSH2 0x271D JUMPI DUP1 DUP3 ADD MLOAD DUP2 DUP5 ADD MSTORE PUSH1 0x20 DUP2 ADD SWAP1 POP PUSH2 0x2702 JUMP JUMPDEST DUP4 DUP2 GT ISZERO PUSH2 0x272C JUMPI PUSH1 0x0 DUP5 DUP5 ADD MSTORE JUMPDEST POP POP POP POP JUMP JUMPDEST PUSH1 0x0 PUSH2 0x273D DUP3 PUSH2 0x26E6 JUMP JUMPDEST SWAP2 POP PUSH1 0x0 DUP3 EQ ISZERO PUSH2 0x2751 JUMPI PUSH2 0x2750 PUSH2 0x2839 JUMP JUMPDEST JUMPDEST PUSH1 0x1 DUP3 SUB SWAP1 POP SWAP2 SWAP1 POP JUMP JUMPDEST PUSH1 0x0 PUSH1 0x2 DUP3 DIV SWAP1 POP PUSH1 0x1 DUP3 AND DUP1 PUSH2 0x2774 JUMPI PUSH1 0x7F DUP3 AND SWAP2 POP JUMPDEST PUSH1 0x20 DUP3 LT DUP2 EQ ISZERO PUSH2 0x2788 JUMPI PUSH2 0x2787 PUSH2 0x2897 JUMP JUMPDEST JUMPDEST POP SWAP2 SWAP1 POP JUMP JUMPDEST PUSH2 0x2797 DUP3 PUSH2 0x28F5 JUMP JUMPDEST DUP2 ADD DUP2 DUP2 LT PUSH8 0xFFFFFFFFFFFFFFFF DUP3 GT OR ISZERO PUSH2 0x27B6 JUMPI PUSH2 0x27B5 PUSH2 0x28C6 JUMP JUMPDEST JUMPDEST DUP1 PUSH1 0x40 MSTORE POP POP POP JUMP JUMPDEST PUSH1 0x0 PUSH2 0x27CA DUP3 PUSH2 0x26E6 JUMP JUMPDEST SWAP2 POP PUSH32 0xFFFFFFFFFFFFFFFFFFFFFFFFFFFFFFFFFFFFFFFFFFFFFFFFFFFFFFFFFFFFFFFF DUP3 EQ ISZERO PUSH2 0x27FD JUMPI PUSH2 0x27FC PUSH2 0x2839 JUMP JUMPDEST JUMPDEST PUSH1 0x1 DUP3 ADD SWAP1 POP SWAP2 SWAP1 POP JUMP JUMPDEST PUSH1 0x0 PUSH2 0x2813 DUP3 PUSH2 0x26E6 JUMP JUMPDEST SWAP2 POP PUSH2 0x281E DUP4 PUSH2 0x26E6 JUMP JUMPDEST SWAP3 POP DUP3 PUSH2 0x282E JUMPI PUSH2 0x282D PUSH2 0x2868 JUMP JUMPDEST JUMPDEST DUP3 DUP3 MOD SWAP1 POP SWAP3 SWAP2 POP POP JUMP JUMPDEST PUSH32 0x4E487B7100000000000000000000000000000000000000000000000000000000 PUSH1 0x0 MSTORE PUSH1 0x11 PUSH1 0x4 MSTORE PUSH1 0x24 PUSH1 0x0 REVERT JUMPDEST PUSH32 0x4E487B7100000000000000000000000000000000000000000000000000000000 PUSH1 0x0 MSTORE PUSH1 0x12 PUSH1 0x4 MSTORE PUSH1 0x24 PUSH1 0x0 REVERT JUMPDEST PUSH32 0x4E487B7100000000000000000000000000000000000000000000000000000000 PUSH1 0x0 MSTORE PUSH1 0x22 PUSH1 0x4 MSTORE PUSH1 0x24 PUSH1 0x0 REVERT JUMPDEST PUSH32 0x4E487B7100000000000000000000000000000000000000000000000000000000 PUSH1 0x0 MSTORE PUSH1 0x41 PUSH1 0x4 MSTORE PUSH1 0x24 PUSH1 0x0 REVERT JUMPDEST PUSH1 0x0 PUSH1 0x1F NOT PUSH1 0x1F DUP4 ADD AND SWAP1 POP SWAP2 SWAP1 POP JUMP JUMPDEST PUSH32 0x4552433732313A207472616E7366657220746F206E6F6E204552433732315265 PUSH1 0x0 DUP3 ADD MSTORE PUSH32 0x63656976657220696D706C656D656E7465720000000000000000000000000000 PUSH1 0x20 DUP3 ADD MSTORE POP JUMP JUMPDEST PUSH32 0x4552433732313A207472616E736665722066726F6D20696E636F727265637420 PUSH1 0x0 DUP3 ADD MSTORE PUSH32 0x6F776E6572000000000000000000000000000000000000000000000000000000 PUSH1 0x20 DUP3 ADD MSTORE POP JUMP JUMPDEST PUSH32 0x4552433732313A207472616E7366657220746F20746865207A65726F20616464 PUSH1 0x0 DUP3 ADD MSTORE PUSH32 0x7265737300000000000000000000000000000000000000000000000000000000 PUSH1 0x20 DUP3 ADD MSTORE POP JUMP JUMPDEST PUSH32 0x4552433732313A20617070726F766520746F2063616C6C657200000000000000 PUSH1 0x0 DUP3 ADD MSTORE POP JUMP JUMPDEST PUSH32 0x4552433732313A2061646472657373207A65726F206973206E6F742061207661 PUSH1 0x0 DUP3 ADD MSTORE PUSH32 0x6C6964206F776E65720000000000000000000000000000000000000000000000 PUSH1 0x20 DUP3 ADD MSTORE POP JUMP JUMPDEST PUSH32 0x4552433732313A20617070726F76652063616C6C6572206973206E6F7420746F PUSH1 0x0 DUP3 ADD MSTORE PUSH32 0x6B656E206F776E6572206E6F7220617070726F76656420666F7220616C6C0000 PUSH1 0x20 DUP3 ADD MSTORE POP JUMP JUMPDEST PUSH32 0x4552433732313A20696E76616C696420746F6B656E2049440000000000000000 PUSH1 0x0 DUP3 ADD MSTORE POP JUMP JUMPDEST PUSH32 0x4552433732313A20617070726F76616C20746F2063757272656E74206F776E65 PUSH1 0x0 DUP3 ADD MSTORE PUSH32 0x7200000000000000000000000000000000000000000000000000000000000000 PUSH1 0x20 DUP3 ADD MSTORE POP JUMP JUMPDEST PUSH32 0x4552433732313A2063616C6C6572206973206E6F7420746F6B656E206F776E65 PUSH1 0x0 DUP3 ADD MSTORE PUSH32 0x72206E6F7220617070726F766564000000000000000000000000000000000000 PUSH1 0x20 DUP3 ADD MSTORE POP JUMP JUMPDEST PUSH32 0x4F6E6C7920636F6E74726163742773206F776E65722063616E20646F20746861 PUSH1 0x0 DUP3 ADD MSTORE PUSH32 0x7400000000000000000000000000000000000000000000000000000000000000 PUSH1 0x20 DUP3 ADD MSTORE POP JUMP JUMPDEST PUSH32 0x50726963652063616E6E6F7420626520657175616C20746F2030000000000000 PUSH1 0x0 DUP3 ADD MSTORE POP JUMP JUMPDEST PUSH2 0x2C02 DUP2 PUSH2 0x267C JUMP JUMPDEST DUP2 EQ PUSH2 0x2C0D JUMPI PUSH1 0x0 DUP1 REVERT JUMPDEST POP JUMP JUMPDEST PUSH2 0x2C19 DUP2 PUSH2 0x268E JUMP JUMPDEST DUP2 EQ PUSH2 0x2C24 JUMPI PUSH1 0x0 DUP1 REVERT JUMPDEST POP JUMP JUMPDEST PUSH2 0x2C30 DUP2 PUSH2 0x269A JUMP JUMPDEST DUP2 EQ PUSH2 0x2C3B JUMPI PUSH1 0x0 DUP1 REVERT JUMPDEST POP JUMP JUMPDEST PUSH2 0x2C47 DUP2 PUSH2 0x26E6 JUMP JUMPDEST DUP2 EQ PUSH2 0x2C52 JUMPI PUSH1 0x0 DUP1 REVERT JUMPDEST POP JUMP INVALID LOG2 PUSH5 0x6970667358 0x22 SLT KECCAK256 PUSH15 0x8D1BA3660CA6622291C62123F4FA66 LOG3 0x2A 0xF6 EXTCODECOPY 0xF6 LOG0 CREATE2 0x4D CALLDATACOPY ADDMOD CALLDATALOAD PUSH3 0x7BB429 PUSH13 0x64736F6C634300080100330000 "
				},
				"gasEstimates": {
					"creation": {
						"codeDepositCost": "2280600",
						"executionCost": "infinite",
						"totalCost": "infinite"
					},
					"external": {
						"approve(address,uint256)": "infinite",
						"balanceOf(address)": "1712",
						"createItem(uint256,uint256)": "infinite",
						"getApproved(uint256)": "2657",
						"getFeesPercentage()": "1269",
						"isApprovedForAll(address,address)": "infinite",
						"itemToOwner(uint256)": "1651",
						"items(uint256)": "infinite",
						"itemsCatIdCount(uint256)": "infinite",
						"itemsOwnerCount(address)": "1558",
						"itemsToSellCount()": "1218",
						"modifyFeesPercentage(uint256)": "21335",
						"name()": "infinite",
						"ownerOf(uint256)": "1770",
						"safeTransferFrom(address,address,uint256)": "infinite",
						"safeTransferFrom(address,address,uint256,bytes)": "infinite",
						"sellItem(uint256)": "infinite",
						"setApprovalForAll(address,bool)": "infinite",
						"supportsInterface(bytes4)": "797",
						"symbol()": "infinite",
						"tokenURI(uint256)": "2124",
						"transferFrom(address,address,uint256)": "infinite"
					},
					"internal": {
						"getFees(uint256,uint256)": "infinite"
					}
				},
				"methodIdentifiers": {
					"approve(address,uint256)": "095ea7b3",
					"balanceOf(address)": "70a08231",
					"createItem(uint256,uint256)": "adae08dd",
					"getApproved(uint256)": "081812fc",
					"getFeesPercentage()": "ea0ff14a",
					"isApprovedForAll(address,address)": "e985e9c5",
					"itemToOwner(uint256)": "1a4d96cd",
					"items(uint256)": "bfb231d2",
					"itemsCatIdCount(uint256)": "d48644bd",
					"itemsOwnerCount(address)": "c3921895",
					"itemsToSellCount()": "4c389e65",
					"modifyFeesPercentage(uint256)": "29de6246",
					"name()": "06fdde03",
					"ownerOf(uint256)": "6352211e",
					"safeTransferFrom(address,address,uint256)": "42842e0e",
					"safeTransferFrom(address,address,uint256,bytes)": "b88d4fde",
					"sellItem(uint256)": "91b6be9a",
					"setApprovalForAll(address,bool)": "a22cb465",
					"supportsInterface(bytes4)": "01ffc9a7",
					"symbol()": "95d89b41",
					"tokenURI(uint256)": "c87b56dd",
					"transferFrom(address,address,uint256)": "23b872dd"
				}
			},
			"storageLayout": {
				"storage": [
					{
						"astId": 25,
						"contract": "contracts/GeekNft.sol:GeekNft",
						"label": "_name",
						"offset": 0,
						"slot": "0",
						"type": "t_string_storage"
					},
					{
						"astId": 27,
						"contract": "contracts/GeekNft.sol:GeekNft",
						"label": "_symbol",
						"offset": 0,
						"slot": "1",
						"type": "t_string_storage"
					},
					{
						"astId": 31,
						"contract": "contracts/GeekNft.sol:GeekNft",
						"label": "_owners",
						"offset": 0,
						"slot": "2",
						"type": "t_mapping(t_uint256,t_address)"
					},
					{
						"astId": 35,
						"contract": "contracts/GeekNft.sol:GeekNft",
						"label": "_balances",
						"offset": 0,
						"slot": "3",
						"type": "t_mapping(t_address,t_uint256)"
					},
					{
						"astId": 39,
						"contract": "contracts/GeekNft.sol:GeekNft",
						"label": "_tokenApprovals",
						"offset": 0,
						"slot": "4",
						"type": "t_mapping(t_uint256,t_address)"
					},
					{
						"astId": 45,
						"contract": "contracts/GeekNft.sol:GeekNft",
						"label": "_operatorApprovals",
						"offset": 0,
						"slot": "5",
						"type": "t_mapping(t_address,t_mapping(t_address,t_bool))"
					},
					{
						"astId": 1613,
						"contract": "contracts/GeekNft.sol:GeekNft",
						"label": "owner",
						"offset": 0,
						"slot": "6",
						"type": "t_address"
					},
					{
						"astId": 1626,
						"contract": "contracts/GeekNft.sol:GeekNft",
						"label": "items",
						"offset": 0,
						"slot": "7",
						"type": "t_array(t_struct(Item)1622_storage)dyn_storage"
					},
					{
						"astId": 1628,
						"contract": "contracts/GeekNft.sol:GeekNft",
						"label": "itemsToSellCount",
						"offset": 0,
						"slot": "8",
						"type": "t_uint256"
					},
					{
						"astId": 1630,
						"contract": "contracts/GeekNft.sol:GeekNft",
						"label": "feesPercentage",
						"offset": 0,
						"slot": "9",
						"type": "t_uint256"
					},
					{
						"astId": 1634,
						"contract": "contracts/GeekNft.sol:GeekNft",
						"label": "itemToOwner",
						"offset": 0,
						"slot": "10",
						"type": "t_mapping(t_uint256,t_address)"
					},
					{
						"astId": 1638,
						"contract": "contracts/GeekNft.sol:GeekNft",
						"label": "itemsOwnerCount",
						"offset": 0,
						"slot": "11",
						"type": "t_mapping(t_address,t_uint256)"
					},
					{
						"astId": 1642,
						"contract": "contracts/GeekNft.sol:GeekNft",
						"label": "itemsCatIdCount",
						"offset": 0,
						"slot": "12",
						"type": "t_mapping(t_uint256,t_uint256)"
					}
				],
				"types": {
					"t_address": {
						"encoding": "inplace",
						"label": "address",
						"numberOfBytes": "20"
					},
					"t_array(t_struct(Item)1622_storage)dyn_storage": {
						"base": "t_struct(Item)1622_storage",
						"encoding": "dynamic_array",
						"label": "struct GeekNft.Item[]",
						"numberOfBytes": "32"
					},
					"t_bool": {
						"encoding": "inplace",
						"label": "bool",
						"numberOfBytes": "1"
					},
					"t_mapping(t_address,t_bool)": {
						"encoding": "mapping",
						"key": "t_address",
						"label": "mapping(address => bool)",
						"numberOfBytes": "32",
						"value": "t_bool"
					},
					"t_mapping(t_address,t_mapping(t_address,t_bool))": {
						"encoding": "mapping",
						"key": "t_address",
						"label": "mapping(address => mapping(address => bool))",
						"numberOfBytes": "32",
						"value": "t_mapping(t_address,t_bool)"
					},
					"t_mapping(t_address,t_uint256)": {
						"encoding": "mapping",
						"key": "t_address",
						"label": "mapping(address => uint256)",
						"numberOfBytes": "32",
						"value": "t_uint256"
					},
					"t_mapping(t_uint256,t_address)": {
						"encoding": "mapping",
						"key": "t_uint256",
						"label": "mapping(uint256 => address)",
						"numberOfBytes": "32",
						"value": "t_address"
					},
					"t_mapping(t_uint256,t_uint256)": {
						"encoding": "mapping",
						"key": "t_uint256",
						"label": "mapping(uint256 => uint256)",
						"numberOfBytes": "32",
						"value": "t_uint256"
					},
					"t_string_storage": {
						"encoding": "bytes",
						"label": "string",
						"numberOfBytes": "32"
					},
					"t_struct(Item)1622_storage": {
						"encoding": "inplace",
						"label": "struct GeekNft.Item",
						"members": [
							{
								"astId": 1615,
								"contract": "contracts/GeekNft.sol:GeekNft",
								"label": "tokenId",
								"offset": 0,
								"slot": "0",
								"type": "t_uint256"
							},
							{
								"astId": 1617,
								"contract": "contracts/GeekNft.sol:GeekNft",
								"label": "price",
								"offset": 0,
								"slot": "1",
								"type": "t_uint256"
							},
							{
								"astId": 1619,
								"contract": "contracts/GeekNft.sol:GeekNft",
								"label": "catId",
								"offset": 0,
								"slot": "2",
								"type": "t_uint256"
							},
							{
								"astId": 1621,
								"contract": "contracts/GeekNft.sol:GeekNft",
								"label": "toSell",
								"offset": 0,
								"slot": "3",
								"type": "t_bool"
							}
						],
						"numberOfBytes": "128"
					},
					"t_uint256": {
						"encoding": "inplace",
						"label": "uint256",
						"numberOfBytes": "32"
					}
				}
			},
			"userdoc": {
				"kind": "user",
				"methods": {},
				"version": 1
			}
		}
	}
}