{
	"contracts/GeekNftMarketPlace.sol": {
		"GeekNftMarketPlace": {
			"abi": [
				{
					"inputs": [],
					"stateMutability": "nonpayable",
					"type": "constructor"
				},
				{
					"anonymous": false,
					"inputs": [
						{
							"indexed": false,
							"internalType": "address",
							"name": "nftContract",
							"type": "address"
						},
						{
							"indexed": false,
							"internalType": "uint256",
							"name": "tokenId",
							"type": "uint256"
						},
						{
							"indexed": true,
							"internalType": "address",
							"name": "seller",
							"type": "address"
						},
						{
							"indexed": true,
							"internalType": "address",
							"name": "owner",
							"type": "address"
						},
						{
							"indexed": false,
							"internalType": "uint256",
							"name": "price",
							"type": "uint256"
						}
					],
					"name": "NFTListed",
					"type": "event"
				},
				{
					"anonymous": false,
					"inputs": [
						{
							"indexed": false,
							"internalType": "address",
							"name": "nftContract",
							"type": "address"
						},
						{
							"indexed": false,
							"internalType": "uint256",
							"name": "tokenId",
							"type": "uint256"
						},
						{
							"indexed": true,
							"internalType": "address",
							"name": "seller",
							"type": "address"
						},
						{
							"indexed": true,
							"internalType": "address",
							"name": "owner",
							"type": "address"
						},
						{
							"indexed": false,
							"internalType": "uint256",
							"name": "price",
							"type": "uint256"
						}
					],
					"name": "NFTSold",
					"type": "event"
				},
				{
					"inputs": [],
					"name": "LISTING_FEE",
					"outputs": [
						{
							"internalType": "uint256",
							"name": "",
							"type": "uint256"
						}
					],
					"stateMutability": "view",
					"type": "function"
				},
				{
					"inputs": [
						{
							"internalType": "address",
							"name": "_nftContract",
							"type": "address"
						},
						{
							"internalType": "uint256",
							"name": "_tokenId",
							"type": "uint256"
						}
					],
					"name": "buyNft",
					"outputs": [],
					"stateMutability": "payable",
					"type": "function"
				},
				{
					"inputs": [],
					"name": "getListedNfts",
					"outputs": [
						{
							"components": [
								{
									"internalType": "address",
									"name": "nftContract",
									"type": "address"
								},
								{
									"internalType": "uint256",
									"name": "tokenId",
									"type": "uint256"
								},
								{
									"internalType": "uint256",
									"name": "price",
									"type": "uint256"
								},
								{
									"internalType": "address payable",
									"name": "seller",
									"type": "address"
								},
								{
									"internalType": "address payable",
									"name": "owner",
									"type": "address"
								},
								{
									"internalType": "address payable",
									"name": "creator",
									"type": "address"
								},
								{
									"internalType": "bool",
									"name": "listed",
									"type": "bool"
								}
							],
							"internalType": "struct GeekNftMarketPlace.NFT[]",
							"name": "",
							"type": "tuple[]"
						}
					],
					"stateMutability": "view",
					"type": "function"
				},
				{
					"inputs": [],
					"name": "getListingFee",
					"outputs": [
						{
							"internalType": "uint256",
							"name": "",
							"type": "uint256"
						}
					],
					"stateMutability": "view",
					"type": "function"
				},
				{
					"inputs": [],
					"name": "getMyCreatedNfts",
					"outputs": [
						{
							"components": [
								{
									"internalType": "address",
									"name": "nftContract",
									"type": "address"
								},
								{
									"internalType": "uint256",
									"name": "tokenId",
									"type": "uint256"
								},
								{
									"internalType": "uint256",
									"name": "price",
									"type": "uint256"
								},
								{
									"internalType": "address payable",
									"name": "seller",
									"type": "address"
								},
								{
									"internalType": "address payable",
									"name": "owner",
									"type": "address"
								},
								{
									"internalType": "address payable",
									"name": "creator",
									"type": "address"
								},
								{
									"internalType": "bool",
									"name": "listed",
									"type": "bool"
								}
							],
							"internalType": "struct GeekNftMarketPlace.NFT[]",
							"name": "",
							"type": "tuple[]"
						}
					],
					"stateMutability": "view",
					"type": "function"
				},
				{
					"inputs": [],
					"name": "getMyListedNfts",
					"outputs": [
						{
							"components": [
								{
									"internalType": "address",
									"name": "nftContract",
									"type": "address"
								},
								{
									"internalType": "uint256",
									"name": "tokenId",
									"type": "uint256"
								},
								{
									"internalType": "uint256",
									"name": "price",
									"type": "uint256"
								},
								{
									"internalType": "address payable",
									"name": "seller",
									"type": "address"
								},
								{
									"internalType": "address payable",
									"name": "owner",
									"type": "address"
								},
								{
									"internalType": "address payable",
									"name": "creator",
									"type": "address"
								},
								{
									"internalType": "bool",
									"name": "listed",
									"type": "bool"
								}
							],
							"internalType": "struct GeekNftMarketPlace.NFT[]",
							"name": "",
							"type": "tuple[]"
						}
					],
					"stateMutability": "view",
					"type": "function"
				},
				{
					"inputs": [],
					"name": "getMyOwnedNfts",
					"outputs": [
						{
							"components": [
								{
									"internalType": "address",
									"name": "nftContract",
									"type": "address"
								},
								{
									"internalType": "uint256",
									"name": "tokenId",
									"type": "uint256"
								},
								{
									"internalType": "uint256",
									"name": "price",
									"type": "uint256"
								},
								{
									"internalType": "address payable",
									"name": "seller",
									"type": "address"
								},
								{
									"internalType": "address payable",
									"name": "owner",
									"type": "address"
								},
								{
									"internalType": "address payable",
									"name": "creator",
									"type": "address"
								},
								{
									"internalType": "bool",
									"name": "listed",
									"type": "bool"
								}
							],
							"internalType": "struct GeekNftMarketPlace.NFT[]",
							"name": "",
							"type": "tuple[]"
						}
					],
					"stateMutability": "view",
					"type": "function"
				},
				{
					"inputs": [
						{
							"internalType": "address",
							"name": "_nftContract",
							"type": "address"
						},
						{
							"internalType": "uint256",
							"name": "_tokenId",
							"type": "uint256"
						},
						{
							"internalType": "uint256",
							"name": "_price",
							"type": "uint256"
						}
					],
					"name": "listNFT",
					"outputs": [],
					"stateMutability": "payable",
					"type": "function"
				},
				{
					"inputs": [
						{
							"internalType": "address",
							"name": "_nftContract",
							"type": "address"
						},
						{
							"internalType": "uint256",
							"name": "_tokenId",
							"type": "uint256"
						},
						{
							"internalType": "uint256",
							"name": "_price",
							"type": "uint256"
						}
					],
					"name": "resellNFT",
					"outputs": [],
					"stateMutability": "payable",
					"type": "function"
				}
			],
			"devdoc": {
				"kind": "dev",
				"methods": {},
				"version": 1
			},
			"evm": {
				"assembly": "    /* \"contracts/GeekNftMarketPlace.sol\":297:6360  contract GeekNftMarketPlace is ReentrancyGuard {... */\n  mstore(0x40, 0x80)\n    /* \"contracts/GeekNftMarketPlace.sol\":500:511  0.002 ether */\n  0x071afd498d0000\n    /* \"contracts/GeekNftMarketPlace.sol\":474:511  uint public LISTING_FEE = 0.002 ether */\n  0x03\n  sstore\n    /* \"contracts/GeekNftMarketPlace.sol\":1019:1085  constructor() {... */\n  callvalue\n  dup1\n  iszero\n  tag_1\n  jumpi\n  0x00\n  dup1\n  revert\ntag_1:\n  pop\n    /* \"contracts/RenntrancyGuard.sol\":128:129  1 */\n  0x01\n    /* \"contracts/RenntrancyGuard.sol\":233:240  _status */\n  0x00\n    /* \"contracts/RenntrancyGuard.sol\":233:255  _status = _NOT_ENTERED */\n  dup2\n  swap1\n  sstore\n  pop\n    /* \"contracts/GeekNftMarketPlace.sol\":1067:1077  msg.sender */\n  caller\n    /* \"contracts/GeekNftMarketPlace.sol\":1043:1056  _marketOwwner */\n  0x04\n  0x00\n    /* \"contracts/GeekNftMarketPlace.sol\":1043:1078  _marketOwwner = payable(msg.sender) */\n  0x0100\n  exp\n  dup2\n  sload\n  dup2\n  0xffffffffffffffffffffffffffffffffffffffff\n  mul\n  not\n  and\n  swap1\n  dup4\n  0xffffffffffffffffffffffffffffffffffffffff\n  and\n  mul\n  or\n  swap1\n  sstore\n  pop\n    /* \"contracts/GeekNftMarketPlace.sol\":297:6360  contract GeekNftMarketPlace is ReentrancyGuard {... */\n  dataSize(sub_0)\n  dup1\n  dataOffset(sub_0)\n  0x00\n  codecopy\n  0x00\n  return\nstop\n\nsub_0: assembly {\n        /* \"contracts/GeekNftMarketPlace.sol\":297:6360  contract GeekNftMarketPlace is ReentrancyGuard {... */\n      mstore(0x40, 0x80)\n      jumpi(tag_1, lt(calldatasize, 0x04))\n      shr(0xe0, calldataload(0x00))\n      dup1\n      0x8492095a\n      gt\n      tag_11\n      jumpi\n      dup1\n      0x8492095a\n      eq\n      tag_6\n      jumpi\n      dup1\n      0x8d6cb3fb\n      eq\n      tag_7\n      jumpi\n      dup1\n      0xa46b5c5a\n      eq\n      tag_8\n      jumpi\n      dup1\n      0xad05f1b4\n      eq\n      tag_9\n      jumpi\n      dup1\n      0xb8fe6abe\n      eq\n      tag_10\n      jumpi\n      jump(tag_1)\n    tag_11:\n      dup1\n      0x04935694\n      eq\n      tag_2\n      jumpi\n      dup1\n      0x1f4cc4db\n      eq\n      tag_3\n      jumpi\n      dup1\n      0x2b86ae38\n      eq\n      tag_4\n      jumpi\n      dup1\n      0x4ddf4f8f\n      eq\n      tag_5\n      jumpi\n    tag_1:\n      0x00\n      dup1\n      revert\n        /* \"contracts/GeekNftMarketPlace.sol\":2704:3479  function resellNFT(address _nftContract, uint _tokenId, uint _price) public payable nonReentrant{... */\n    tag_2:\n      tag_12\n      0x04\n      dup1\n      calldatasize\n      sub\n      dup2\n      add\n      swap1\n      tag_13\n      swap2\n      swap1\n      tag_14\n      jump\t// in\n    tag_13:\n      tag_15\n      jump\t// in\n    tag_12:\n      stop\n        /* \"contracts/GeekNftMarketPlace.sol\":4786:5415  function getMyListedNfts() public view returns (NFT[] memory) {... */\n    tag_3:\n      callvalue\n      dup1\n      iszero\n      tag_16\n      jumpi\n      0x00\n      dup1\n      revert\n    tag_16:\n      pop\n      tag_17\n      tag_18\n      jump\t// in\n    tag_17:\n      mload(0x40)\n      tag_19\n      swap2\n      swap1\n      tag_20\n      jump\t// in\n    tag_19:\n      mload(0x40)\n      dup1\n      swap2\n      sub\n      swap1\n      return\n        /* \"contracts/GeekNftMarketPlace.sol\":474:511  uint public LISTING_FEE = 0.002 ether */\n    tag_4:\n      callvalue\n      dup1\n      iszero\n      tag_21\n      jumpi\n      0x00\n      dup1\n      revert\n    tag_21:\n      pop\n      tag_22\n      tag_23\n      jump\t// in\n    tag_22:\n      mload(0x40)\n      tag_24\n      swap2\n      swap1\n      tag_25\n      jump\t// in\n    tag_24:\n      mload(0x40)\n      dup1\n      swap2\n      sub\n      swap1\n      return\n        /* \"contracts/GeekNftMarketPlace.sol\":1962:2649  function buyNft(address _nftContract, uint _tokenId) public payable nonReentrant{... */\n    tag_5:\n      tag_26\n      0x04\n      dup1\n      calldatasize\n      sub\n      dup2\n      add\n      swap1\n      tag_27\n      swap2\n      swap1\n      tag_28\n      jump\t// in\n    tag_27:\n      tag_29\n      jump\t// in\n    tag_26:\n      stop\n        /* \"contracts/GeekNftMarketPlace.sol\":4149:4745  function getMyCreatedNfts() public view returns (NFT[] memory) {... */\n    tag_6:\n      callvalue\n      dup1\n      iszero\n      tag_30\n      jumpi\n      0x00\n      dup1\n      revert\n    tag_30:\n      pop\n      tag_31\n      tag_32\n      jump\t// in\n    tag_31:\n      mload(0x40)\n      tag_33\n      swap2\n      swap1\n      tag_20\n      jump\t// in\n    tag_33:\n      mload(0x40)\n      dup1\n      swap2\n      sub\n      swap1\n      return\n        /* \"contracts/GeekNftMarketPlace.sol\":5421:5887  function getListedNfts() public view returns (NFT[] memory) {... */\n    tag_7:\n      callvalue\n      dup1\n      iszero\n      tag_34\n      jumpi\n      0x00\n      dup1\n      revert\n    tag_34:\n      pop\n      tag_35\n      tag_36\n      jump\t// in\n    tag_35:\n      mload(0x40)\n      tag_37\n      swap2\n      swap1\n      tag_20\n      jump\t// in\n    tag_37:\n      mload(0x40)\n      dup1\n      swap2\n      sub\n      swap1\n      return\n        /* \"contracts/GeekNftMarketPlace.sol\":3518:4108  function getMyOwnedNfts() public view returns (NFT[] memory) {... */\n    tag_8:\n      callvalue\n      dup1\n      iszero\n      tag_38\n      jumpi\n      0x00\n      dup1\n      revert\n    tag_38:\n      pop\n      tag_39\n      tag_40\n      jump\t// in\n    tag_39:\n      mload(0x40)\n      tag_41\n      swap2\n      swap1\n      tag_20\n      jump\t// in\n    tag_41:\n      mload(0x40)\n      dup1\n      swap2\n      sub\n      swap1\n      return\n        /* \"contracts/GeekNftMarketPlace.sol\":1222:1938  function listNFT(address _nftContract, uint _tokenId, uint _price) public payable nonReentrant{... */\n    tag_9:\n      tag_42\n      0x04\n      dup1\n      calldatasize\n      sub\n      dup2\n      add\n      swap1\n      tag_43\n      swap2\n      swap1\n      tag_14\n      jump\t// in\n    tag_43:\n      tag_44\n      jump\t// in\n    tag_42:\n      stop\n        /* \"contracts/GeekNftMarketPlace.sol\":1091:1177  function getListingFee() public view returns (uint){... */\n    tag_10:\n      callvalue\n      dup1\n      iszero\n      tag_45\n      jumpi\n      0x00\n      dup1\n      revert\n    tag_45:\n      pop\n      tag_46\n      tag_47\n      jump\t// in\n    tag_46:\n      mload(0x40)\n      tag_48\n      swap2\n      swap1\n      tag_25\n      jump\t// in\n    tag_48:\n      mload(0x40)\n      dup1\n      swap2\n      sub\n      swap1\n      return\n        /* \"contracts/GeekNftMarketPlace.sol\":2704:3479  function resellNFT(address _nftContract, uint _tokenId, uint _price) public payable nonReentrant{... */\n    tag_15:\n        /* \"contracts/RenntrancyGuard.sol\":171:172  2 */\n      0x02\n        /* \"contracts/RenntrancyGuard.sol\":310:317  _status */\n      sload(0x00)\n        /* \"contracts/RenntrancyGuard.sol\":310:329  _status != _ENTERED */\n      eq\n      iszero\n        /* \"contracts/RenntrancyGuard.sol\":302:365  require(_status != _ENTERED, \"ReentrancyGuard: reentrant call\") */\n      tag_50\n      jumpi\n      mload(0x40)\n      0x08c379a000000000000000000000000000000000000000000000000000000000\n      dup2\n      mstore\n      0x04\n      add\n      tag_51\n      swap1\n      tag_52\n      jump\t// in\n    tag_51:\n      mload(0x40)\n      dup1\n      swap2\n      sub\n      swap1\n      revert\n    tag_50:\n        /* \"contracts/RenntrancyGuard.sol\":171:172  2 */\n      0x02\n        /* \"contracts/RenntrancyGuard.sol\":375:382  _status */\n      0x00\n        /* \"contracts/RenntrancyGuard.sol\":375:393  _status = _ENTERED */\n      dup2\n      swap1\n      sstore\n      pop\n        /* \"contracts/GeekNftMarketPlace.sol\":2827:2828  0 */\n      0x00\n        /* \"contracts/GeekNftMarketPlace.sol\":2818:2824  _price */\n      dup2\n        /* \"contracts/GeekNftMarketPlace.sol\":2818:2828  _price > 0 */\n      gt\n        /* \"contracts/GeekNftMarketPlace.sol\":2810:2861  require(_price > 0, \"Price must be at least 1 wei\") */\n      tag_54\n      jumpi\n      mload(0x40)\n      0x08c379a000000000000000000000000000000000000000000000000000000000\n      dup2\n      mstore\n      0x04\n      add\n      tag_55\n      swap1\n      tag_56\n      jump\t// in\n    tag_55:\n      mload(0x40)\n      dup1\n      swap2\n      sub\n      swap1\n      revert\n    tag_54:\n        /* \"contracts/GeekNftMarketPlace.sol\":2892:2903  LISTING_FEE */\n      sload(0x03)\n        /* \"contracts/GeekNftMarketPlace.sol\":2879:2888  msg.value */\n      callvalue\n        /* \"contracts/GeekNftMarketPlace.sol\":2879:2903  msg.value == LISTING_FEE */\n      eq\n        /* \"contracts/GeekNftMarketPlace.sol\":2871:2940  require(msg.value == LISTING_FEE, \"Not enough ether for listing fee\") */\n      tag_57\n      jumpi\n      mload(0x40)\n      0x08c379a000000000000000000000000000000000000000000000000000000000\n      dup2\n      mstore\n      0x04\n      add\n      tag_58\n      swap1\n      tag_59\n      jump\t// in\n    tag_58:\n      mload(0x40)\n      dup1\n      swap2\n      sub\n      swap1\n      revert\n    tag_57:\n        /* \"contracts/GeekNftMarketPlace.sol\":2951:2960  int index */\n      0x00\n        /* \"contracts/GeekNftMarketPlace.sol\":2982:3012  getNFT(_nftContract, _tokenId) */\n      tag_60\n        /* \"contracts/GeekNftMarketPlace.sol\":2989:3001  _nftContract */\n      dup5\n        /* \"contracts/GeekNftMarketPlace.sol\":3003:3011  _tokenId */\n      dup5\n        /* \"contracts/GeekNftMarketPlace.sol\":2982:2988  getNFT */\n      tag_61\n        /* \"contracts/GeekNftMarketPlace.sol\":2982:3012  getNFT(_nftContract, _tokenId) */\n      jump\t// in\n    tag_60:\n        /* \"contracts/GeekNftMarketPlace.sol\":2970:3012  (, index) = getNFT(_nftContract, _tokenId) */\n      swap1\n      pop\n      dup1\n      swap2\n      pop\n      pop\n        /* \"contracts/GeekNftMarketPlace.sol\":3039:3041  -1 */\n      0xffffffffffffffffffffffffffffffffffffffffffffffffffffffffffffffff\n        /* \"contracts/GeekNftMarketPlace.sol\":3030:3035  index */\n      dup2\n        /* \"contracts/GeekNftMarketPlace.sol\":3030:3041  index != -1 */\n      eq\n      iszero\n        /* \"contracts/GeekNftMarketPlace.sol\":3022:3059  require(index != -1, \"Nft not found\") */\n      tag_62\n      jumpi\n      mload(0x40)\n      0x08c379a000000000000000000000000000000000000000000000000000000000\n      dup2\n      mstore\n      0x04\n      add\n      tag_63\n      swap1\n      tag_64\n      jump\t// in\n    tag_63:\n      mload(0x40)\n      dup1\n      swap2\n      sub\n      swap1\n      revert\n    tag_62:\n        /* \"contracts/GeekNftMarketPlace.sol\":3087:3099  _nftContract */\n      dup4\n        /* \"contracts/GeekNftMarketPlace.sol\":3070:3113  GeekNftInterface(_nftContract).transferFrom */\n      0xffffffffffffffffffffffffffffffffffffffff\n      and\n      0x23b872dd\n        /* \"contracts/GeekNftMarketPlace.sol\":3114:3124  msg.sender */\n      caller\n        /* \"contracts/GeekNftMarketPlace.sol\":3134:3138  this */\n      address\n        /* \"contracts/GeekNftMarketPlace.sol\":3141:3149  _tokenId */\n      dup7\n        /* \"contracts/GeekNftMarketPlace.sol\":3070:3150  GeekNftInterface(_nftContract).transferFrom(msg.sender, address(this), _tokenId) */\n      mload(0x40)\n      dup5\n      0xffffffff\n      and\n      0xe0\n      shl\n      dup2\n      mstore\n      0x04\n      add\n      tag_65\n      swap4\n      swap3\n      swap2\n      swap1\n      tag_66\n      jump\t// in\n    tag_65:\n      0x00\n      mload(0x40)\n      dup1\n      dup4\n      sub\n      dup2\n      0x00\n      dup8\n      dup1\n      extcodesize\n      iszero\n      dup1\n      iszero\n      tag_67\n      jumpi\n      0x00\n      dup1\n      revert\n    tag_67:\n      pop\n      gas\n      call\n      iszero\n      dup1\n      iszero\n      tag_69\n      jumpi\n      returndatasize\n      0x00\n      dup1\n      returndatacopy\n      revert(0x00, returndatasize)\n    tag_69:\n      pop\n      pop\n      pop\n      pop\n        /* \"contracts/GeekNftMarketPlace.sol\":3196:3206  msg.sender */\n      caller\n        /* \"contracts/GeekNftMarketPlace.sol\":3161:3165  nfts */\n      0x05\n        /* \"contracts/GeekNftMarketPlace.sol\":3171:3176  index */\n      dup3\n        /* \"contracts/GeekNftMarketPlace.sol\":3161:3178  nfts[uint(index)] */\n      dup2\n      sload\n      dup2\n      lt\n      tag_70\n      jumpi\n      tag_71\n      tag_72\n      jump\t// in\n    tag_71:\n    tag_70:\n      swap1\n      0x00\n      mstore\n      keccak256(0x00, 0x20)\n      swap1\n      0x06\n      mul\n      add\n        /* \"contracts/GeekNftMarketPlace.sol\":3161:3185  nfts[uint(index)].seller */\n      0x03\n      add\n      0x00\n        /* \"contracts/GeekNftMarketPlace.sol\":3161:3207  nfts[uint(index)].seller = payable(msg.sender) */\n      0x0100\n      exp\n      dup2\n      sload\n      dup2\n      0xffffffffffffffffffffffffffffffffffffffff\n      mul\n      not\n      and\n      swap1\n      dup4\n      0xffffffffffffffffffffffffffffffffffffffff\n      and\n      mul\n      or\n      swap1\n      sstore\n      pop\n        /* \"contracts/GeekNftMarketPlace.sol\":3259:3263  this */\n      address\n        /* \"contracts/GeekNftMarketPlace.sol\":3217:3221  nfts */\n      0x05\n        /* \"contracts/GeekNftMarketPlace.sol\":3227:3232  index */\n      dup3\n        /* \"contracts/GeekNftMarketPlace.sol\":3217:3234  nfts[uint(index)] */\n      dup2\n      sload\n      dup2\n      lt\n      tag_74\n      jumpi\n      tag_75\n      tag_72\n      jump\t// in\n    tag_75:\n    tag_74:\n      swap1\n      0x00\n      mstore\n      keccak256(0x00, 0x20)\n      swap1\n      0x06\n      mul\n      add\n        /* \"contracts/GeekNftMarketPlace.sol\":3217:3240  nfts[uint(index)].owner */\n      0x04\n      add\n      0x00\n        /* \"contracts/GeekNftMarketPlace.sol\":3217:3265  nfts[uint(index)].owner = payable(address(this)) */\n      0x0100\n      exp\n      dup2\n      sload\n      dup2\n      0xffffffffffffffffffffffffffffffffffffffff\n      mul\n      not\n      and\n      swap1\n      dup4\n      0xffffffffffffffffffffffffffffffffffffffff\n      and\n      mul\n      or\n      swap1\n      sstore\n      pop\n        /* \"contracts/GeekNftMarketPlace.sol\":3302:3306  true */\n      0x01\n        /* \"contracts/GeekNftMarketPlace.sol\":3275:3279  nfts */\n      0x05\n        /* \"contracts/GeekNftMarketPlace.sol\":3285:3290  index */\n      dup3\n        /* \"contracts/GeekNftMarketPlace.sol\":3275:3292  nfts[uint(index)] */\n      dup2\n      sload\n      dup2\n      lt\n      tag_77\n      jumpi\n      tag_78\n      tag_72\n      jump\t// in\n    tag_78:\n    tag_77:\n      swap1\n      0x00\n      mstore\n      keccak256(0x00, 0x20)\n      swap1\n      0x06\n      mul\n      add\n        /* \"contracts/GeekNftMarketPlace.sol\":3275:3299  nfts[uint(index)].listed */\n      0x05\n      add\n      0x14\n        /* \"contracts/GeekNftMarketPlace.sol\":3275:3306  nfts[uint(index)].listed = true */\n      0x0100\n      exp\n      dup2\n      sload\n      dup2\n      0xff\n      mul\n      not\n      and\n      swap1\n      dup4\n      iszero\n      iszero\n      mul\n      or\n      swap1\n      sstore\n      pop\n        /* \"contracts/GeekNftMarketPlace.sol\":3342:3348  _price */\n      dup2\n        /* \"contracts/GeekNftMarketPlace.sol\":3316:3320  nfts */\n      0x05\n        /* \"contracts/GeekNftMarketPlace.sol\":3326:3331  index */\n      dup3\n        /* \"contracts/GeekNftMarketPlace.sol\":3316:3333  nfts[uint(index)] */\n      dup2\n      sload\n      dup2\n      lt\n      tag_80\n      jumpi\n      tag_81\n      tag_72\n      jump\t// in\n    tag_81:\n    tag_80:\n      swap1\n      0x00\n      mstore\n      keccak256(0x00, 0x20)\n      swap1\n      0x06\n      mul\n      add\n        /* \"contracts/GeekNftMarketPlace.sol\":3316:3339  nfts[uint(index)].price */\n      0x02\n      add\n        /* \"contracts/GeekNftMarketPlace.sol\":3316:3348  nfts[uint(index)].price = _price */\n      dup2\n      swap1\n      sstore\n      pop\n        /* \"contracts/GeekNftMarketPlace.sol\":3359:3380  _nftsSold.decrement() */\n      tag_83\n        /* \"contracts/GeekNftMarketPlace.sol\":3359:3368  _nftsSold */\n      0x01\n        /* \"contracts/GeekNftMarketPlace.sol\":3359:3378  _nftsSold.decrement */\n      tag_84\n        /* \"contracts/GeekNftMarketPlace.sol\":3359:3380  _nftsSold.decrement() */\n      jump\t// in\n    tag_83:\n        /* \"contracts/GeekNftMarketPlace.sol\":3458:3462  this */\n      address\n        /* \"contracts/GeekNftMarketPlace.sol\":3404:3472  NFTListed(_nftContract, _tokenId, msg.sender, address(this), _price) */\n      0xffffffffffffffffffffffffffffffffffffffff\n      and\n        /* \"contracts/GeekNftMarketPlace.sol\":3438:3448  msg.sender */\n      caller\n        /* \"contracts/GeekNftMarketPlace.sol\":3404:3472  NFTListed(_nftContract, _tokenId, msg.sender, address(this), _price) */\n      0xffffffffffffffffffffffffffffffffffffffff\n      and\n      0xa0c6c0d02d86fdacecbaa5fdf5894bab204e31a778250474108540733a9b8d19\n        /* \"contracts/GeekNftMarketPlace.sol\":3414:3426  _nftContract */\n      dup7\n        /* \"contracts/GeekNftMarketPlace.sol\":3428:3436  _tokenId */\n      dup7\n        /* \"contracts/GeekNftMarketPlace.sol\":3465:3471  _price */\n      dup7\n        /* \"contracts/GeekNftMarketPlace.sol\":3404:3472  NFTListed(_nftContract, _tokenId, msg.sender, address(this), _price) */\n      mload(0x40)\n      tag_85\n      swap4\n      swap3\n      swap2\n      swap1\n      tag_86\n      jump\t// in\n    tag_85:\n      mload(0x40)\n      dup1\n      swap2\n      sub\n      swap1\n      log3\n        /* \"contracts/GeekNftMarketPlace.sol\":2800:3479  {... */\n      pop\n        /* \"contracts/RenntrancyGuard.sol\":128:129  1 */\n      0x01\n        /* \"contracts/RenntrancyGuard.sol\":414:421  _status */\n      0x00\n        /* \"contracts/RenntrancyGuard.sol\":414:436  _status = _NOT_ENTERED */\n      dup2\n      swap1\n      sstore\n      pop\n        /* \"contracts/GeekNftMarketPlace.sol\":2704:3479  function resellNFT(address _nftContract, uint _tokenId, uint _price) public payable nonReentrant{... */\n      pop\n      pop\n      pop\n      jump\t// out\n        /* \"contracts/GeekNftMarketPlace.sol\":4786:5415  function getMyListedNfts() public view returns (NFT[] memory) {... */\n    tag_18:\n        /* \"contracts/GeekNftMarketPlace.sol\":4834:4846  NFT[] memory */\n      0x60\n        /* \"contracts/GeekNftMarketPlace.sol\":4858:4872  uint nftsCount */\n      0x00\n        /* \"contracts/GeekNftMarketPlace.sol\":4875:4895  _nftsCount.current() */\n      tag_88\n        /* \"contracts/GeekNftMarketPlace.sol\":4875:4885  _nftsCount */\n      0x02\n        /* \"contracts/GeekNftMarketPlace.sol\":4875:4893  _nftsCount.current */\n      tag_89\n        /* \"contracts/GeekNftMarketPlace.sol\":4875:4895  _nftsCount.current() */\n      jump\t// in\n    tag_88:\n        /* \"contracts/GeekNftMarketPlace.sol\":4858:4895  uint nftsCount = _nftsCount.current() */\n      swap1\n      pop\n        /* \"contracts/GeekNftMarketPlace.sol\":4905:4921  uint myNftsCount */\n      0x00\n        /* \"contracts/GeekNftMarketPlace.sol\":4940:4946  uint i */\n      dup1\n        /* \"contracts/GeekNftMarketPlace.sol\":4935:5094  for (uint i = 0; i < nftsCount; i++) {... */\n    tag_90:\n        /* \"contracts/GeekNftMarketPlace.sol\":4956:4965  nftsCount */\n      dup3\n        /* \"contracts/GeekNftMarketPlace.sol\":4952:4953  i */\n      dup2\n        /* \"contracts/GeekNftMarketPlace.sol\":4952:4965  i < nftsCount */\n      lt\n        /* \"contracts/GeekNftMarketPlace.sol\":4935:5094  for (uint i = 0; i < nftsCount; i++) {... */\n      iszero\n      tag_91\n      jumpi\n        /* \"contracts/GeekNftMarketPlace.sol\":5007:5017  msg.sender */\n      caller\n        /* \"contracts/GeekNftMarketPlace.sol\":4989:5017  nfts[i].seller == msg.sender */\n      0xffffffffffffffffffffffffffffffffffffffff\n      and\n        /* \"contracts/GeekNftMarketPlace.sol\":4989:4993  nfts */\n      0x05\n        /* \"contracts/GeekNftMarketPlace.sol\":4994:4995  i */\n      dup3\n        /* \"contracts/GeekNftMarketPlace.sol\":4989:4996  nfts[i] */\n      dup2\n      sload\n      dup2\n      lt\n      tag_93\n      jumpi\n      tag_94\n      tag_72\n      jump\t// in\n    tag_94:\n    tag_93:\n      swap1\n      0x00\n      mstore\n      keccak256(0x00, 0x20)\n      swap1\n      0x06\n      mul\n      add\n        /* \"contracts/GeekNftMarketPlace.sol\":4989:5003  nfts[i].seller */\n      0x03\n      add\n      0x00\n      swap1\n      sload\n      swap1\n      0x0100\n      exp\n      swap1\n      div\n      0xffffffffffffffffffffffffffffffffffffffff\n      and\n        /* \"contracts/GeekNftMarketPlace.sol\":4989:5017  nfts[i].seller == msg.sender */\n      0xffffffffffffffffffffffffffffffffffffffff\n      and\n      eq\n        /* \"contracts/GeekNftMarketPlace.sol\":4989:5035  nfts[i].seller == msg.sender && nfts[i].listed */\n      dup1\n      iszero\n      tag_96\n      jumpi\n      pop\n        /* \"contracts/GeekNftMarketPlace.sol\":5021:5025  nfts */\n      0x05\n        /* \"contracts/GeekNftMarketPlace.sol\":5026:5027  i */\n      dup2\n        /* \"contracts/GeekNftMarketPlace.sol\":5021:5028  nfts[i] */\n      dup2\n      sload\n      dup2\n      lt\n      tag_97\n      jumpi\n      tag_98\n      tag_72\n      jump\t// in\n    tag_98:\n    tag_97:\n      swap1\n      0x00\n      mstore\n      keccak256(0x00, 0x20)\n      swap1\n      0x06\n      mul\n      add\n        /* \"contracts/GeekNftMarketPlace.sol\":5021:5035  nfts[i].listed */\n      0x05\n      add\n      0x14\n      swap1\n      sload\n      swap1\n      0x0100\n      exp\n      swap1\n      div\n      0xff\n      and\n        /* \"contracts/GeekNftMarketPlace.sol\":4989:5035  nfts[i].seller == msg.sender && nfts[i].listed */\n    tag_96:\n        /* \"contracts/GeekNftMarketPlace.sol\":4986:5084  if(nfts[i].seller == msg.sender && nfts[i].listed) {... */\n      iszero\n      tag_100\n      jumpi\n        /* \"contracts/GeekNftMarketPlace.sol\":5055:5069  myNftsCount ++ */\n      dup2\n      dup1\n      tag_101\n      swap1\n      tag_102\n      jump\t// in\n    tag_101:\n      swap3\n      pop\n      pop\n        /* \"contracts/GeekNftMarketPlace.sol\":4986:5084  if(nfts[i].seller == msg.sender && nfts[i].listed) {... */\n    tag_100:\n        /* \"contracts/GeekNftMarketPlace.sol\":4967:4970  i++ */\n      dup1\n      dup1\n      tag_103\n      swap1\n      tag_102\n      jump\t// in\n    tag_103:\n      swap2\n      pop\n      pop\n        /* \"contracts/GeekNftMarketPlace.sol\":4935:5094  for (uint i = 0; i < nftsCount; i++) {... */\n      jump(tag_90)\n    tag_91:\n      pop\n        /* \"contracts/GeekNftMarketPlace.sol\":5104:5123  NFT[] memory myNfts */\n      0x00\n        /* \"contracts/GeekNftMarketPlace.sol\":5136:5147  myNftsCount */\n      dup2\n        /* \"contracts/GeekNftMarketPlace.sol\":5126:5148  new NFT[](myNftsCount) */\n      0xffffffffffffffff\n      dup2\n      gt\n      iszero\n      tag_104\n      jumpi\n      tag_105\n      tag_106\n      jump\t// in\n    tag_105:\n    tag_104:\n      mload(0x40)\n      swap1\n      dup1\n      dup3\n      mstore\n      dup1\n      0x20\n      mul\n      0x20\n      add\n      dup3\n      add\n      0x40\n      mstore\n      dup1\n      iszero\n      tag_107\n      jumpi\n      dup2\n      0x20\n      add\n    tag_108:\n      tag_109\n      tag_110\n      jump\t// in\n    tag_109:\n      dup2\n      mstore\n      0x20\n      add\n      swap1\n      0x01\n      swap1\n      sub\n      swap1\n      dup2\n      tag_108\n      jumpi\n      swap1\n      pop\n    tag_107:\n      pop\n        /* \"contracts/GeekNftMarketPlace.sol\":5104:5148  NFT[] memory myNfts = new NFT[](myNftsCount) */\n      swap1\n      pop\n        /* \"contracts/GeekNftMarketPlace.sol\":5158:5171  uint nftIndex */\n      0x00\n        /* \"contracts/GeekNftMarketPlace.sol\":5190:5196  uint i */\n      dup1\n        /* \"contracts/GeekNftMarketPlace.sol\":5185:5385  for (uint i = 0; i < nftsCount; i++) {... */\n    tag_111:\n        /* \"contracts/GeekNftMarketPlace.sol\":5206:5215  nftsCount */\n      dup5\n        /* \"contracts/GeekNftMarketPlace.sol\":5202:5203  i */\n      dup2\n        /* \"contracts/GeekNftMarketPlace.sol\":5202:5215  i < nftsCount */\n      lt\n        /* \"contracts/GeekNftMarketPlace.sol\":5185:5385  for (uint i = 0; i < nftsCount; i++) {... */\n      iszero\n      tag_112\n      jumpi\n        /* \"contracts/GeekNftMarketPlace.sol\":5257:5267  msg.sender */\n      caller\n        /* \"contracts/GeekNftMarketPlace.sol\":5239:5267  nfts[i].seller == msg.sender */\n      0xffffffffffffffffffffffffffffffffffffffff\n      and\n        /* \"contracts/GeekNftMarketPlace.sol\":5239:5243  nfts */\n      0x05\n        /* \"contracts/GeekNftMarketPlace.sol\":5244:5245  i */\n      dup3\n        /* \"contracts/GeekNftMarketPlace.sol\":5239:5246  nfts[i] */\n      dup2\n      sload\n      dup2\n      lt\n      tag_114\n      jumpi\n      tag_115\n      tag_72\n      jump\t// in\n    tag_115:\n    tag_114:\n      swap1\n      0x00\n      mstore\n      keccak256(0x00, 0x20)\n      swap1\n      0x06\n      mul\n      add\n        /* \"contracts/GeekNftMarketPlace.sol\":5239:5253  nfts[i].seller */\n      0x03\n      add\n      0x00\n      swap1\n      sload\n      swap1\n      0x0100\n      exp\n      swap1\n      div\n      0xffffffffffffffffffffffffffffffffffffffff\n      and\n        /* \"contracts/GeekNftMarketPlace.sol\":5239:5267  nfts[i].seller == msg.sender */\n      0xffffffffffffffffffffffffffffffffffffffff\n      and\n      eq\n        /* \"contracts/GeekNftMarketPlace.sol\":5239:5285  nfts[i].seller == msg.sender && nfts[i].listed */\n      dup1\n      iszero\n      tag_117\n      jumpi\n      pop\n        /* \"contracts/GeekNftMarketPlace.sol\":5271:5275  nfts */\n      0x05\n        /* \"contracts/GeekNftMarketPlace.sol\":5276:5277  i */\n      dup2\n        /* \"contracts/GeekNftMarketPlace.sol\":5271:5278  nfts[i] */\n      dup2\n      sload\n      dup2\n      lt\n      tag_118\n      jumpi\n      tag_119\n      tag_72\n      jump\t// in\n    tag_119:\n    tag_118:\n      swap1\n      0x00\n      mstore\n      keccak256(0x00, 0x20)\n      swap1\n      0x06\n      mul\n      add\n        /* \"contracts/GeekNftMarketPlace.sol\":5271:5285  nfts[i].listed */\n      0x05\n      add\n      0x14\n      swap1\n      sload\n      swap1\n      0x0100\n      exp\n      swap1\n      div\n      0xff\n      and\n        /* \"contracts/GeekNftMarketPlace.sol\":5239:5285  nfts[i].seller == msg.sender && nfts[i].listed */\n    tag_117:\n        /* \"contracts/GeekNftMarketPlace.sol\":5236:5375  if(nfts[i].seller == msg.sender && nfts[i].listed) {... */\n      iszero\n      tag_121\n      jumpi\n        /* \"contracts/GeekNftMarketPlace.sol\":5324:5328  nfts */\n      0x05\n        /* \"contracts/GeekNftMarketPlace.sol\":5329:5330  i */\n      dup2\n        /* \"contracts/GeekNftMarketPlace.sol\":5324:5331  nfts[i] */\n      dup2\n      sload\n      dup2\n      lt\n      tag_122\n      jumpi\n      tag_123\n      tag_72\n      jump\t// in\n    tag_123:\n    tag_122:\n      swap1\n      0x00\n      mstore\n      keccak256(0x00, 0x20)\n      swap1\n      0x06\n      mul\n      add\n        /* \"contracts/GeekNftMarketPlace.sol\":5305:5331  myNfts[nftIndex] = nfts[i] */\n      mload(0x40)\n      dup1\n      0xe0\n      add\n      0x40\n      mstore\n      swap1\n      dup2\n      0x00\n      dup3\n      add\n      0x00\n      swap1\n      sload\n      swap1\n      0x0100\n      exp\n      swap1\n      div\n      0xffffffffffffffffffffffffffffffffffffffff\n      and\n      0xffffffffffffffffffffffffffffffffffffffff\n      and\n      0xffffffffffffffffffffffffffffffffffffffff\n      and\n      dup2\n      mstore\n      0x20\n      add\n      0x01\n      dup3\n      add\n      sload\n      dup2\n      mstore\n      0x20\n      add\n      0x02\n      dup3\n      add\n      sload\n      dup2\n      mstore\n      0x20\n      add\n      0x03\n      dup3\n      add\n      0x00\n      swap1\n      sload\n      swap1\n      0x0100\n      exp\n      swap1\n      div\n      0xffffffffffffffffffffffffffffffffffffffff\n      and\n      0xffffffffffffffffffffffffffffffffffffffff\n      and\n      0xffffffffffffffffffffffffffffffffffffffff\n      and\n      dup2\n      mstore\n      0x20\n      add\n      0x04\n      dup3\n      add\n      0x00\n      swap1\n      sload\n      swap1\n      0x0100\n      exp\n      swap1\n      div\n      0xffffffffffffffffffffffffffffffffffffffff\n      and\n      0xffffffffffffffffffffffffffffffffffffffff\n      and\n      0xffffffffffffffffffffffffffffffffffffffff\n      and\n      dup2\n      mstore\n      0x20\n      add\n      0x05\n      dup3\n      add\n      0x00\n      swap1\n      sload\n      swap1\n      0x0100\n      exp\n      swap1\n      div\n      0xffffffffffffffffffffffffffffffffffffffff\n      and\n      0xffffffffffffffffffffffffffffffffffffffff\n      and\n      0xffffffffffffffffffffffffffffffffffffffff\n      and\n      dup2\n      mstore\n      0x20\n      add\n      0x05\n      dup3\n      add\n      0x14\n      swap1\n      sload\n      swap1\n      0x0100\n      exp\n      swap1\n      div\n      0xff\n      and\n      iszero\n      iszero\n      iszero\n      iszero\n      dup2\n      mstore\n      pop\n      pop\n        /* \"contracts/GeekNftMarketPlace.sol\":5305:5311  myNfts */\n      dup4\n        /* \"contracts/GeekNftMarketPlace.sol\":5312:5320  nftIndex */\n      dup4\n        /* \"contracts/GeekNftMarketPlace.sol\":5305:5321  myNfts[nftIndex] */\n      dup2\n      mload\n      dup2\n      lt\n      tag_125\n      jumpi\n      tag_126\n      tag_72\n      jump\t// in\n    tag_126:\n    tag_125:\n      0x20\n      mul\n      0x20\n      add\n      add\n        /* \"contracts/GeekNftMarketPlace.sol\":5305:5331  myNfts[nftIndex] = nfts[i] */\n      dup2\n      swap1\n      mstore\n      pop\n        /* \"contracts/GeekNftMarketPlace.sol\":5349:5360  nftIndex ++ */\n      dup2\n      dup1\n      tag_127\n      swap1\n      tag_102\n      jump\t// in\n    tag_127:\n      swap3\n      pop\n      pop\n        /* \"contracts/GeekNftMarketPlace.sol\":5236:5375  if(nfts[i].seller == msg.sender && nfts[i].listed) {... */\n    tag_121:\n        /* \"contracts/GeekNftMarketPlace.sol\":5217:5220  i++ */\n      dup1\n      dup1\n      tag_128\n      swap1\n      tag_102\n      jump\t// in\n    tag_128:\n      swap2\n      pop\n      pop\n        /* \"contracts/GeekNftMarketPlace.sol\":5185:5385  for (uint i = 0; i < nftsCount; i++) {... */\n      jump(tag_111)\n    tag_112:\n      pop\n        /* \"contracts/GeekNftMarketPlace.sol\":5402:5408  myNfts */\n      dup2\n        /* \"contracts/GeekNftMarketPlace.sol\":5395:5408  return myNfts */\n      swap5\n      pop\n      pop\n      pop\n      pop\n      pop\n        /* \"contracts/GeekNftMarketPlace.sol\":4786:5415  function getMyListedNfts() public view returns (NFT[] memory) {... */\n      swap1\n      jump\t// out\n        /* \"contracts/GeekNftMarketPlace.sol\":474:511  uint public LISTING_FEE = 0.002 ether */\n    tag_23:\n      sload(0x03)\n      dup2\n      jump\t// out\n        /* \"contracts/GeekNftMarketPlace.sol\":1962:2649  function buyNft(address _nftContract, uint _tokenId) public payable nonReentrant{... */\n    tag_29:\n        /* \"contracts/RenntrancyGuard.sol\":171:172  2 */\n      0x02\n        /* \"contracts/RenntrancyGuard.sol\":310:317  _status */\n      sload(0x00)\n        /* \"contracts/RenntrancyGuard.sol\":310:329  _status != _ENTERED */\n      eq\n      iszero\n        /* \"contracts/RenntrancyGuard.sol\":302:365  require(_status != _ENTERED, \"ReentrancyGuard: reentrant call\") */\n      tag_130\n      jumpi\n      mload(0x40)\n      0x08c379a000000000000000000000000000000000000000000000000000000000\n      dup2\n      mstore\n      0x04\n      add\n      tag_131\n      swap1\n      tag_52\n      jump\t// in\n    tag_131:\n      mload(0x40)\n      dup1\n      swap2\n      sub\n      swap1\n      revert\n    tag_130:\n        /* \"contracts/RenntrancyGuard.sol\":171:172  2 */\n      0x02\n        /* \"contracts/RenntrancyGuard.sol\":375:382  _status */\n      0x00\n        /* \"contracts/RenntrancyGuard.sol\":375:393  _status = _ENTERED */\n      dup2\n      swap1\n      sstore\n      pop\n        /* \"contracts/GeekNftMarketPlace.sol\":2052:2066  NFT memory nft */\n      tag_133\n      tag_110\n      jump\t// in\n    tag_133:\n        /* \"contracts/GeekNftMarketPlace.sol\":2076:2085  int index */\n      0x00\n        /* \"contracts/GeekNftMarketPlace.sol\":2110:2140  getNFT(_nftContract, _tokenId) */\n      tag_134\n        /* \"contracts/GeekNftMarketPlace.sol\":2117:2129  _nftContract */\n      dup5\n        /* \"contracts/GeekNftMarketPlace.sol\":2131:2139  _tokenId */\n      dup5\n        /* \"contracts/GeekNftMarketPlace.sol\":2110:2116  getNFT */\n      tag_61\n        /* \"contracts/GeekNftMarketPlace.sol\":2110:2140  getNFT(_nftContract, _tokenId) */\n      jump\t// in\n    tag_134:\n        /* \"contracts/GeekNftMarketPlace.sol\":2095:2140  (nft, index) = getNFT(_nftContract, _tokenId) */\n      dup1\n      swap3\n      pop\n      dup2\n      swap4\n      pop\n      pop\n      pop\n        /* \"contracts/GeekNftMarketPlace.sol\":2167:2169  -1 */\n      0xffffffffffffffffffffffffffffffffffffffffffffffffffffffffffffffff\n        /* \"contracts/GeekNftMarketPlace.sol\":2158:2163  index */\n      dup2\n        /* \"contracts/GeekNftMarketPlace.sol\":2158:2169  index != -1 */\n      eq\n      iszero\n        /* \"contracts/GeekNftMarketPlace.sol\":2150:2187  require(index != -1, \"Nft not found\") */\n      tag_135\n      jumpi\n      mload(0x40)\n      0x08c379a000000000000000000000000000000000000000000000000000000000\n      dup2\n      mstore\n      0x04\n      add\n      tag_136\n      swap1\n      tag_64\n      jump\t// in\n    tag_136:\n      mload(0x40)\n      dup1\n      swap2\n      sub\n      swap1\n      revert\n    tag_135:\n        /* \"contracts/GeekNftMarketPlace.sol\":2218:2221  nft */\n      dup2\n        /* \"contracts/GeekNftMarketPlace.sol\":2218:2227  nft.price */\n      0x40\n      add\n      mload\n        /* \"contracts/GeekNftMarketPlace.sol\":2205:2214  msg.value */\n      callvalue\n        /* \"contracts/GeekNftMarketPlace.sol\":2205:2227  msg.value >= nft.price */\n      lt\n      iszero\n        /* \"contracts/GeekNftMarketPlace.sol\":2197:2270  require(msg.value >= nft.price, \"Not enough ether to cover asking price\") */\n      tag_137\n      jumpi\n      mload(0x40)\n      0x08c379a000000000000000000000000000000000000000000000000000000000\n      dup2\n      mstore\n      0x04\n      add\n      tag_138\n      swap1\n      tag_139\n      jump\t// in\n    tag_138:\n      mload(0x40)\n      dup1\n      swap2\n      sub\n      swap1\n      revert\n    tag_137:\n        /* \"contracts/GeekNftMarketPlace.sol\":2281:2302  address payable buyer */\n      0x00\n        /* \"contracts/GeekNftMarketPlace.sol\":2313:2323  msg.sender */\n      caller\n        /* \"contracts/GeekNftMarketPlace.sol\":2281:2324  address payable buyer = payable(msg.sender) */\n      swap1\n      pop\n        /* \"contracts/GeekNftMarketPlace.sol\":2334:2337  nft */\n      dup3\n        /* \"contracts/GeekNftMarketPlace.sol\":2334:2344  nft.seller */\n      0x60\n      add\n      mload\n        /* \"contracts/GeekNftMarketPlace.sol\":2334:2353  nft.seller.transfer */\n      0xffffffffffffffffffffffffffffffffffffffff\n      and\n        /* \"contracts/GeekNftMarketPlace.sol\":2334:2364  nft.seller.transfer(msg.value) */\n      0x08fc\n        /* \"contracts/GeekNftMarketPlace.sol\":2354:2363  msg.value */\n      callvalue\n        /* \"contracts/GeekNftMarketPlace.sol\":2334:2364  nft.seller.transfer(msg.value) */\n      swap1\n      dup2\n      iszero\n      mul\n      swap1\n      mload(0x40)\n      0x00\n      mload(0x40)\n      dup1\n      dup4\n      sub\n      dup2\n      dup6\n      dup9\n      dup9\n      call\n      swap4\n      pop\n      pop\n      pop\n      pop\n      iszero\n      dup1\n      iszero\n      tag_141\n      jumpi\n      returndatasize\n      0x00\n      dup1\n      returndatacopy\n      revert(0x00, returndatasize)\n    tag_141:\n      pop\n        /* \"contracts/GeekNftMarketPlace.sol\":2392:2404  _nftContract */\n      dup5\n        /* \"contracts/GeekNftMarketPlace.sol\":2375:2418  GeekNftInterface(_nftContract).transferFrom */\n      0xffffffffffffffffffffffffffffffffffffffff\n      and\n      0x23b872dd\n        /* \"contracts/GeekNftMarketPlace.sol\":2427:2431  this */\n      address\n        /* \"contracts/GeekNftMarketPlace.sol\":2434:2439  buyer */\n      dup4\n        /* \"contracts/GeekNftMarketPlace.sol\":2441:2449  _tokenId */\n      dup8\n        /* \"contracts/GeekNftMarketPlace.sol\":2375:2450  GeekNftInterface(_nftContract).transferFrom(address(this), buyer, _tokenId) */\n      mload(0x40)\n      dup5\n      0xffffffff\n      and\n      0xe0\n      shl\n      dup2\n      mstore\n      0x04\n      add\n      tag_142\n      swap4\n      swap3\n      swap2\n      swap1\n      tag_143\n      jump\t// in\n    tag_142:\n      0x00\n      mload(0x40)\n      dup1\n      dup4\n      sub\n      dup2\n      0x00\n      dup8\n      dup1\n      extcodesize\n      iszero\n      dup1\n      iszero\n      tag_144\n      jumpi\n      0x00\n      dup1\n      revert\n    tag_144:\n      pop\n      gas\n      call\n      iszero\n      dup1\n      iszero\n      tag_146\n      jumpi\n      returndatasize\n      0x00\n      dup1\n      returndatacopy\n      revert(0x00, returndatasize)\n    tag_146:\n      pop\n      pop\n      pop\n      pop\n        /* \"contracts/GeekNftMarketPlace.sol\":2486:2491  buyer */\n      dup1\n        /* \"contracts/GeekNftMarketPlace.sol\":2460:2464  nfts */\n      0x05\n        /* \"contracts/GeekNftMarketPlace.sol\":2470:2475  index */\n      dup4\n        /* \"contracts/GeekNftMarketPlace.sol\":2460:2477  nfts[uint(index)] */\n      dup2\n      sload\n      dup2\n      lt\n      tag_147\n      jumpi\n      tag_148\n      tag_72\n      jump\t// in\n    tag_148:\n    tag_147:\n      swap1\n      0x00\n      mstore\n      keccak256(0x00, 0x20)\n      swap1\n      0x06\n      mul\n      add\n        /* \"contracts/GeekNftMarketPlace.sol\":2460:2483  nfts[uint(index)].owner */\n      0x04\n      add\n      0x00\n        /* \"contracts/GeekNftMarketPlace.sol\":2460:2491  nfts[uint(index)].owner = buyer */\n      0x0100\n      exp\n      dup2\n      sload\n      dup2\n      0xffffffffffffffffffffffffffffffffffffffff\n      mul\n      not\n      and\n      swap1\n      dup4\n      0xffffffffffffffffffffffffffffffffffffffff\n      and\n      mul\n      or\n      swap1\n      sstore\n      pop\n        /* \"contracts/GeekNftMarketPlace.sol\":2528:2533  false */\n      0x00\n        /* \"contracts/GeekNftMarketPlace.sol\":2501:2505  nfts */\n      0x05\n        /* \"contracts/GeekNftMarketPlace.sol\":2511:2516  index */\n      dup4\n        /* \"contracts/GeekNftMarketPlace.sol\":2501:2518  nfts[uint(index)] */\n      dup2\n      sload\n      dup2\n      lt\n      tag_150\n      jumpi\n      tag_151\n      tag_72\n      jump\t// in\n    tag_151:\n    tag_150:\n      swap1\n      0x00\n      mstore\n      keccak256(0x00, 0x20)\n      swap1\n      0x06\n      mul\n      add\n        /* \"contracts/GeekNftMarketPlace.sol\":2501:2525  nfts[uint(index)].listed */\n      0x05\n      add\n      0x14\n        /* \"contracts/GeekNftMarketPlace.sol\":2501:2533  nfts[uint(index)].listed = false */\n      0x0100\n      exp\n      dup2\n      sload\n      dup2\n      0xff\n      mul\n      not\n      and\n      swap1\n      dup4\n      iszero\n      iszero\n      mul\n      or\n      swap1\n      sstore\n      pop\n        /* \"contracts/GeekNftMarketPlace.sol\":2544:2565  _nftsSold.increment() */\n      tag_153\n        /* \"contracts/GeekNftMarketPlace.sol\":2544:2553  _nftsSold */\n      0x01\n        /* \"contracts/GeekNftMarketPlace.sol\":2544:2563  _nftsSold.increment */\n      tag_154\n        /* \"contracts/GeekNftMarketPlace.sol\":2544:2565  _nftsSold.increment() */\n      jump\t// in\n    tag_153:\n        /* \"contracts/GeekNftMarketPlace.sol\":2625:2630  buyer */\n      dup1\n        /* \"contracts/GeekNftMarketPlace.sol\":2581:2642  NFTSold(_nftContract, _tokenId, nft.seller, buyer, msg.value) */\n      0xffffffffffffffffffffffffffffffffffffffff\n      and\n        /* \"contracts/GeekNftMarketPlace.sol\":2613:2616  nft */\n      dup4\n        /* \"contracts/GeekNftMarketPlace.sol\":2613:2623  nft.seller */\n      0x60\n      add\n      mload\n        /* \"contracts/GeekNftMarketPlace.sol\":2581:2642  NFTSold(_nftContract, _tokenId, nft.seller, buyer, msg.value) */\n      0xffffffffffffffffffffffffffffffffffffffff\n      and\n      0x16f1dbd97e6bf646d429ed186cce832f1f7fd9907814293b83181e9970ab7bd2\n        /* \"contracts/GeekNftMarketPlace.sol\":2589:2601  _nftContract */\n      dup8\n        /* \"contracts/GeekNftMarketPlace.sol\":2603:2611  _tokenId */\n      dup8\n        /* \"contracts/GeekNftMarketPlace.sol\":2632:2641  msg.value */\n      callvalue\n        /* \"contracts/GeekNftMarketPlace.sol\":2581:2642  NFTSold(_nftContract, _tokenId, nft.seller, buyer, msg.value) */\n      mload(0x40)\n      tag_155\n      swap4\n      swap3\n      swap2\n      swap1\n      tag_86\n      jump\t// in\n    tag_155:\n      mload(0x40)\n      dup1\n      swap2\n      sub\n      swap1\n      log3\n        /* \"contracts/GeekNftMarketPlace.sol\":2042:2649  {... */\n      pop\n      pop\n      pop\n        /* \"contracts/RenntrancyGuard.sol\":128:129  1 */\n      0x01\n        /* \"contracts/RenntrancyGuard.sol\":414:421  _status */\n      0x00\n        /* \"contracts/RenntrancyGuard.sol\":414:436  _status = _NOT_ENTERED */\n      dup2\n      swap1\n      sstore\n      pop\n        /* \"contracts/GeekNftMarketPlace.sol\":1962:2649  function buyNft(address _nftContract, uint _tokenId) public payable nonReentrant{... */\n      pop\n      pop\n      jump\t// out\n        /* \"contracts/GeekNftMarketPlace.sol\":4149:4745  function getMyCreatedNfts() public view returns (NFT[] memory) {... */\n    tag_32:\n        /* \"contracts/GeekNftMarketPlace.sol\":4198:4210  NFT[] memory */\n      0x60\n        /* \"contracts/GeekNftMarketPlace.sol\":4222:4236  uint nftsCount */\n      0x00\n        /* \"contracts/GeekNftMarketPlace.sol\":4239:4259  _nftsCount.current() */\n      tag_157\n        /* \"contracts/GeekNftMarketPlace.sol\":4239:4249  _nftsCount */\n      0x02\n        /* \"contracts/GeekNftMarketPlace.sol\":4239:4257  _nftsCount.current */\n      tag_89\n        /* \"contracts/GeekNftMarketPlace.sol\":4239:4259  _nftsCount.current() */\n      jump\t// in\n    tag_157:\n        /* \"contracts/GeekNftMarketPlace.sol\":4222:4259  uint nftsCount = _nftsCount.current() */\n      swap1\n      pop\n        /* \"contracts/GeekNftMarketPlace.sol\":4269:4285  uint myNftsCount */\n      0x00\n        /* \"contracts/GeekNftMarketPlace.sol\":4304:4310  uint i */\n      dup1\n        /* \"contracts/GeekNftMarketPlace.sol\":4299:4441  for (uint i = 0; i < nftsCount; i++) {... */\n    tag_158:\n        /* \"contracts/GeekNftMarketPlace.sol\":4320:4329  nftsCount */\n      dup3\n        /* \"contracts/GeekNftMarketPlace.sol\":4316:4317  i */\n      dup2\n        /* \"contracts/GeekNftMarketPlace.sol\":4316:4329  i < nftsCount */\n      lt\n        /* \"contracts/GeekNftMarketPlace.sol\":4299:4441  for (uint i = 0; i < nftsCount; i++) {... */\n      iszero\n      tag_159\n      jumpi\n        /* \"contracts/GeekNftMarketPlace.sol\":4372:4382  msg.sender */\n      caller\n        /* \"contracts/GeekNftMarketPlace.sol\":4353:4382  nfts[i].creator == msg.sender */\n      0xffffffffffffffffffffffffffffffffffffffff\n      and\n        /* \"contracts/GeekNftMarketPlace.sol\":4353:4357  nfts */\n      0x05\n        /* \"contracts/GeekNftMarketPlace.sol\":4358:4359  i */\n      dup3\n        /* \"contracts/GeekNftMarketPlace.sol\":4353:4360  nfts[i] */\n      dup2\n      sload\n      dup2\n      lt\n      tag_161\n      jumpi\n      tag_162\n      tag_72\n      jump\t// in\n    tag_162:\n    tag_161:\n      swap1\n      0x00\n      mstore\n      keccak256(0x00, 0x20)\n      swap1\n      0x06\n      mul\n      add\n        /* \"contracts/GeekNftMarketPlace.sol\":4353:4368  nfts[i].creator */\n      0x05\n      add\n      0x00\n      swap1\n      sload\n      swap1\n      0x0100\n      exp\n      swap1\n      div\n      0xffffffffffffffffffffffffffffffffffffffff\n      and\n        /* \"contracts/GeekNftMarketPlace.sol\":4353:4382  nfts[i].creator == msg.sender */\n      0xffffffffffffffffffffffffffffffffffffffff\n      and\n      eq\n        /* \"contracts/GeekNftMarketPlace.sol\":4350:4431  if(nfts[i].creator == msg.sender) {... */\n      iszero\n      tag_164\n      jumpi\n        /* \"contracts/GeekNftMarketPlace.sol\":4402:4416  myNftsCount ++ */\n      dup2\n      dup1\n      tag_165\n      swap1\n      tag_102\n      jump\t// in\n    tag_165:\n      swap3\n      pop\n      pop\n        /* \"contracts/GeekNftMarketPlace.sol\":4350:4431  if(nfts[i].creator == msg.sender) {... */\n    tag_164:\n        /* \"contracts/GeekNftMarketPlace.sol\":4331:4334  i++ */\n      dup1\n      dup1\n      tag_166\n      swap1\n      tag_102\n      jump\t// in\n    tag_166:\n      swap2\n      pop\n      pop\n        /* \"contracts/GeekNftMarketPlace.sol\":4299:4441  for (uint i = 0; i < nftsCount; i++) {... */\n      jump(tag_158)\n    tag_159:\n      pop\n        /* \"contracts/GeekNftMarketPlace.sol\":4451:4470  NFT[] memory myNfts */\n      0x00\n        /* \"contracts/GeekNftMarketPlace.sol\":4483:4494  myNftsCount */\n      dup2\n        /* \"contracts/GeekNftMarketPlace.sol\":4473:4495  new NFT[](myNftsCount) */\n      0xffffffffffffffff\n      dup2\n      gt\n      iszero\n      tag_167\n      jumpi\n      tag_168\n      tag_106\n      jump\t// in\n    tag_168:\n    tag_167:\n      mload(0x40)\n      swap1\n      dup1\n      dup3\n      mstore\n      dup1\n      0x20\n      mul\n      0x20\n      add\n      dup3\n      add\n      0x40\n      mstore\n      dup1\n      iszero\n      tag_169\n      jumpi\n      dup2\n      0x20\n      add\n    tag_170:\n      tag_171\n      tag_110\n      jump\t// in\n    tag_171:\n      dup2\n      mstore\n      0x20\n      add\n      swap1\n      0x01\n      swap1\n      sub\n      swap1\n      dup2\n      tag_170\n      jumpi\n      swap1\n      pop\n    tag_169:\n      pop\n        /* \"contracts/GeekNftMarketPlace.sol\":4451:4495  NFT[] memory myNfts = new NFT[](myNftsCount) */\n      swap1\n      pop\n        /* \"contracts/GeekNftMarketPlace.sol\":4505:4518  uint nftIndex */\n      0x00\n        /* \"contracts/GeekNftMarketPlace.sol\":4537:4543  uint i */\n      dup1\n        /* \"contracts/GeekNftMarketPlace.sol\":4532:4715  for (uint i = 0; i < nftsCount; i++) {... */\n    tag_172:\n        /* \"contracts/GeekNftMarketPlace.sol\":4553:4562  nftsCount */\n      dup5\n        /* \"contracts/GeekNftMarketPlace.sol\":4549:4550  i */\n      dup2\n        /* \"contracts/GeekNftMarketPlace.sol\":4549:4562  i < nftsCount */\n      lt\n        /* \"contracts/GeekNftMarketPlace.sol\":4532:4715  for (uint i = 0; i < nftsCount; i++) {... */\n      iszero\n      tag_173\n      jumpi\n        /* \"contracts/GeekNftMarketPlace.sol\":4605:4615  msg.sender */\n      caller\n        /* \"contracts/GeekNftMarketPlace.sol\":4586:4615  nfts[i].creator == msg.sender */\n      0xffffffffffffffffffffffffffffffffffffffff\n      and\n        /* \"contracts/GeekNftMarketPlace.sol\":4586:4590  nfts */\n      0x05\n        /* \"contracts/GeekNftMarketPlace.sol\":4591:4592  i */\n      dup3\n        /* \"contracts/GeekNftMarketPlace.sol\":4586:4593  nfts[i] */\n      dup2\n      sload\n      dup2\n      lt\n      tag_175\n      jumpi\n      tag_176\n      tag_72\n      jump\t// in\n    tag_176:\n    tag_175:\n      swap1\n      0x00\n      mstore\n      keccak256(0x00, 0x20)\n      swap1\n      0x06\n      mul\n      add\n        /* \"contracts/GeekNftMarketPlace.sol\":4586:4601  nfts[i].creator */\n      0x05\n      add\n      0x00\n      swap1\n      sload\n      swap1\n      0x0100\n      exp\n      swap1\n      div\n      0xffffffffffffffffffffffffffffffffffffffff\n      and\n        /* \"contracts/GeekNftMarketPlace.sol\":4586:4615  nfts[i].creator == msg.sender */\n      0xffffffffffffffffffffffffffffffffffffffff\n      and\n      eq\n        /* \"contracts/GeekNftMarketPlace.sol\":4583:4705  if(nfts[i].creator == msg.sender) {... */\n      iszero\n      tag_178\n      jumpi\n        /* \"contracts/GeekNftMarketPlace.sol\":4654:4658  nfts */\n      0x05\n        /* \"contracts/GeekNftMarketPlace.sol\":4659:4660  i */\n      dup2\n        /* \"contracts/GeekNftMarketPlace.sol\":4654:4661  nfts[i] */\n      dup2\n      sload\n      dup2\n      lt\n      tag_179\n      jumpi\n      tag_180\n      tag_72\n      jump\t// in\n    tag_180:\n    tag_179:\n      swap1\n      0x00\n      mstore\n      keccak256(0x00, 0x20)\n      swap1\n      0x06\n      mul\n      add\n        /* \"contracts/GeekNftMarketPlace.sol\":4635:4661  myNfts[nftIndex] = nfts[i] */\n      mload(0x40)\n      dup1\n      0xe0\n      add\n      0x40\n      mstore\n      swap1\n      dup2\n      0x00\n      dup3\n      add\n      0x00\n      swap1\n      sload\n      swap1\n      0x0100\n      exp\n      swap1\n      div\n      0xffffffffffffffffffffffffffffffffffffffff\n      and\n      0xffffffffffffffffffffffffffffffffffffffff\n      and\n      0xffffffffffffffffffffffffffffffffffffffff\n      and\n      dup2\n      mstore\n      0x20\n      add\n      0x01\n      dup3\n      add\n      sload\n      dup2\n      mstore\n      0x20\n      add\n      0x02\n      dup3\n      add\n      sload\n      dup2\n      mstore\n      0x20\n      add\n      0x03\n      dup3\n      add\n      0x00\n      swap1\n      sload\n      swap1\n      0x0100\n      exp\n      swap1\n      div\n      0xffffffffffffffffffffffffffffffffffffffff\n      and\n      0xffffffffffffffffffffffffffffffffffffffff\n      and\n      0xffffffffffffffffffffffffffffffffffffffff\n      and\n      dup2\n      mstore\n      0x20\n      add\n      0x04\n      dup3\n      add\n      0x00\n      swap1\n      sload\n      swap1\n      0x0100\n      exp\n      swap1\n      div\n      0xffffffffffffffffffffffffffffffffffffffff\n      and\n      0xffffffffffffffffffffffffffffffffffffffff\n      and\n      0xffffffffffffffffffffffffffffffffffffffff\n      and\n      dup2\n      mstore\n      0x20\n      add\n      0x05\n      dup3\n      add\n      0x00\n      swap1\n      sload\n      swap1\n      0x0100\n      exp\n      swap1\n      div\n      0xffffffffffffffffffffffffffffffffffffffff\n      and\n      0xffffffffffffffffffffffffffffffffffffffff\n      and\n      0xffffffffffffffffffffffffffffffffffffffff\n      and\n      dup2\n      mstore\n      0x20\n      add\n      0x05\n      dup3\n      add\n      0x14\n      swap1\n      sload\n      swap1\n      0x0100\n      exp\n      swap1\n      div\n      0xff\n      and\n      iszero\n      iszero\n      iszero\n      iszero\n      dup2\n      mstore\n      pop\n      pop\n        /* \"contracts/GeekNftMarketPlace.sol\":4635:4641  myNfts */\n      dup4\n        /* \"contracts/GeekNftMarketPlace.sol\":4642:4650  nftIndex */\n      dup4\n        /* \"contracts/GeekNftMarketPlace.sol\":4635:4651  myNfts[nftIndex] */\n      dup2\n      mload\n      dup2\n      lt\n      tag_182\n      jumpi\n      tag_183\n      tag_72\n      jump\t// in\n    tag_183:\n    tag_182:\n      0x20\n      mul\n      0x20\n      add\n      add\n        /* \"contracts/GeekNftMarketPlace.sol\":4635:4661  myNfts[nftIndex] = nfts[i] */\n      dup2\n      swap1\n      mstore\n      pop\n        /* \"contracts/GeekNftMarketPlace.sol\":4679:4690  nftIndex ++ */\n      dup2\n      dup1\n      tag_184\n      swap1\n      tag_102\n      jump\t// in\n    tag_184:\n      swap3\n      pop\n      pop\n        /* \"contracts/GeekNftMarketPlace.sol\":4583:4705  if(nfts[i].creator == msg.sender) {... */\n    tag_178:\n        /* \"contracts/GeekNftMarketPlace.sol\":4564:4567  i++ */\n      dup1\n      dup1\n      tag_185\n      swap1\n      tag_102\n      jump\t// in\n    tag_185:\n      swap2\n      pop\n      pop\n        /* \"contracts/GeekNftMarketPlace.sol\":4532:4715  for (uint i = 0; i < nftsCount; i++) {... */\n      jump(tag_172)\n    tag_173:\n      pop\n        /* \"contracts/GeekNftMarketPlace.sol\":4732:4738  myNfts */\n      dup2\n        /* \"contracts/GeekNftMarketPlace.sol\":4725:4738  return myNfts */\n      swap5\n      pop\n      pop\n      pop\n      pop\n      pop\n        /* \"contracts/GeekNftMarketPlace.sol\":4149:4745  function getMyCreatedNfts() public view returns (NFT[] memory) {... */\n      swap1\n      jump\t// out\n        /* \"contracts/GeekNftMarketPlace.sol\":5421:5887  function getListedNfts() public view returns (NFT[] memory) {... */\n    tag_36:\n        /* \"contracts/GeekNftMarketPlace.sol\":5467:5479  NFT[] memory */\n      0x60\n        /* \"contracts/GeekNftMarketPlace.sol\":5491:5507  uint256 nftCount */\n      0x00\n        /* \"contracts/GeekNftMarketPlace.sol\":5510:5530  _nftsCount.current() */\n      tag_187\n        /* \"contracts/GeekNftMarketPlace.sol\":5510:5520  _nftsCount */\n      0x02\n        /* \"contracts/GeekNftMarketPlace.sol\":5510:5528  _nftsCount.current */\n      tag_89\n        /* \"contracts/GeekNftMarketPlace.sol\":5510:5530  _nftsCount.current() */\n      jump\t// in\n    tag_187:\n        /* \"contracts/GeekNftMarketPlace.sol\":5491:5530  uint256 nftCount = _nftsCount.current() */\n      swap1\n      pop\n        /* \"contracts/GeekNftMarketPlace.sol\":5540:5563  uint256 unsoldNftsCount */\n      0x00\n        /* \"contracts/GeekNftMarketPlace.sol\":5577:5596  _nftsSold.current() */\n      tag_188\n        /* \"contracts/GeekNftMarketPlace.sol\":5577:5586  _nftsSold */\n      0x01\n        /* \"contracts/GeekNftMarketPlace.sol\":5577:5594  _nftsSold.current */\n      tag_89\n        /* \"contracts/GeekNftMarketPlace.sol\":5577:5596  _nftsSold.current() */\n      jump\t// in\n    tag_188:\n        /* \"contracts/GeekNftMarketPlace.sol\":5566:5574  nftCount */\n      dup3\n        /* \"contracts/GeekNftMarketPlace.sol\":5566:5596  nftCount - _nftsSold.current() */\n      tag_189\n      swap2\n      swap1\n      tag_190\n      jump\t// in\n    tag_189:\n        /* \"contracts/GeekNftMarketPlace.sol\":5540:5596  uint256 unsoldNftsCount = nftCount - _nftsSold.current() */\n      swap1\n      pop\n        /* \"contracts/GeekNftMarketPlace.sol\":5607:5630  NFT[] memory listedNfts */\n      0x00\n        /* \"contracts/GeekNftMarketPlace.sol\":5643:5658  unsoldNftsCount */\n      dup2\n        /* \"contracts/GeekNftMarketPlace.sol\":5633:5659  new NFT[](unsoldNftsCount) */\n      0xffffffffffffffff\n      dup2\n      gt\n      iszero\n      tag_191\n      jumpi\n      tag_192\n      tag_106\n      jump\t// in\n    tag_192:\n    tag_191:\n      mload(0x40)\n      swap1\n      dup1\n      dup3\n      mstore\n      dup1\n      0x20\n      mul\n      0x20\n      add\n      dup3\n      add\n      0x40\n      mstore\n      dup1\n      iszero\n      tag_193\n      jumpi\n      dup2\n      0x20\n      add\n    tag_194:\n      tag_195\n      tag_110\n      jump\t// in\n    tag_195:\n      dup2\n      mstore\n      0x20\n      add\n      swap1\n      0x01\n      swap1\n      sub\n      swap1\n      dup2\n      tag_194\n      jumpi\n      swap1\n      pop\n    tag_193:\n      pop\n        /* \"contracts/GeekNftMarketPlace.sol\":5607:5659  NFT[] memory listedNfts = new NFT[](unsoldNftsCount) */\n      swap1\n      pop\n        /* \"contracts/GeekNftMarketPlace.sol\":5669:5683  uint nftsIndex */\n      0x00\n        /* \"contracts/GeekNftMarketPlace.sol\":5702:5708  uint i */\n      dup1\n        /* \"contracts/GeekNftMarketPlace.sol\":5697:5854  for (uint i = 0; i < nftCount; i++) {... */\n    tag_196:\n        /* \"contracts/GeekNftMarketPlace.sol\":5718:5726  nftCount */\n      dup5\n        /* \"contracts/GeekNftMarketPlace.sol\":5714:5715  i */\n      dup2\n        /* \"contracts/GeekNftMarketPlace.sol\":5714:5726  i < nftCount */\n      lt\n        /* \"contracts/GeekNftMarketPlace.sol\":5697:5854  for (uint i = 0; i < nftCount; i++) {... */\n      iszero\n      tag_197\n      jumpi\n        /* \"contracts/GeekNftMarketPlace.sol\":5747:5751  nfts */\n      0x05\n        /* \"contracts/GeekNftMarketPlace.sol\":5752:5753  i */\n      dup2\n        /* \"contracts/GeekNftMarketPlace.sol\":5747:5754  nfts[i] */\n      dup2\n      sload\n      dup2\n      lt\n      tag_199\n      jumpi\n      tag_200\n      tag_72\n      jump\t// in\n    tag_200:\n    tag_199:\n      swap1\n      0x00\n      mstore\n      keccak256(0x00, 0x20)\n      swap1\n      0x06\n      mul\n      add\n        /* \"contracts/GeekNftMarketPlace.sol\":5747:5761  nfts[i].listed */\n      0x05\n      add\n      0x14\n      swap1\n      sload\n      swap1\n      0x0100\n      exp\n      swap1\n      div\n      0xff\n      and\n        /* \"contracts/GeekNftMarketPlace.sol\":5743:5844  if (nfts[i].listed) {... */\n      iszero\n      tag_202\n      jumpi\n        /* \"contracts/GeekNftMarketPlace.sol\":5801:5805  nfts */\n      0x05\n        /* \"contracts/GeekNftMarketPlace.sol\":5806:5807  i */\n      dup2\n        /* \"contracts/GeekNftMarketPlace.sol\":5801:5808  nfts[i] */\n      dup2\n      sload\n      dup2\n      lt\n      tag_203\n      jumpi\n      tag_204\n      tag_72\n      jump\t// in\n    tag_204:\n    tag_203:\n      swap1\n      0x00\n      mstore\n      keccak256(0x00, 0x20)\n      swap1\n      0x06\n      mul\n      add\n        /* \"contracts/GeekNftMarketPlace.sol\":5777:5808  listedNfts[nftsIndex] = nfts[i] */\n      mload(0x40)\n      dup1\n      0xe0\n      add\n      0x40\n      mstore\n      swap1\n      dup2\n      0x00\n      dup3\n      add\n      0x00\n      swap1\n      sload\n      swap1\n      0x0100\n      exp\n      swap1\n      div\n      0xffffffffffffffffffffffffffffffffffffffff\n      and\n      0xffffffffffffffffffffffffffffffffffffffff\n      and\n      0xffffffffffffffffffffffffffffffffffffffff\n      and\n      dup2\n      mstore\n      0x20\n      add\n      0x01\n      dup3\n      add\n      sload\n      dup2\n      mstore\n      0x20\n      add\n      0x02\n      dup3\n      add\n      sload\n      dup2\n      mstore\n      0x20\n      add\n      0x03\n      dup3\n      add\n      0x00\n      swap1\n      sload\n      swap1\n      0x0100\n      exp\n      swap1\n      div\n      0xffffffffffffffffffffffffffffffffffffffff\n      and\n      0xffffffffffffffffffffffffffffffffffffffff\n      and\n      0xffffffffffffffffffffffffffffffffffffffff\n      and\n      dup2\n      mstore\n      0x20\n      add\n      0x04\n      dup3\n      add\n      0x00\n      swap1\n      sload\n      swap1\n      0x0100\n      exp\n      swap1\n      div\n      0xffffffffffffffffffffffffffffffffffffffff\n      and\n      0xffffffffffffffffffffffffffffffffffffffff\n      and\n      0xffffffffffffffffffffffffffffffffffffffff\n      and\n      dup2\n      mstore\n      0x20\n      add\n      0x05\n      dup3\n      add\n      0x00\n      swap1\n      sload\n      swap1\n      0x0100\n      exp\n      swap1\n      div\n      0xffffffffffffffffffffffffffffffffffffffff\n      and\n      0xffffffffffffffffffffffffffffffffffffffff\n      and\n      0xffffffffffffffffffffffffffffffffffffffff\n      and\n      dup2\n      mstore\n      0x20\n      add\n      0x05\n      dup3\n      add\n      0x14\n      swap1\n      sload\n      swap1\n      0x0100\n      exp\n      swap1\n      div\n      0xff\n      and\n      iszero\n      iszero\n      iszero\n      iszero\n      dup2\n      mstore\n      pop\n      pop\n        /* \"contracts/GeekNftMarketPlace.sol\":5777:5787  listedNfts */\n      dup4\n        /* \"contracts/GeekNftMarketPlace.sol\":5788:5797  nftsIndex */\n      dup4\n        /* \"contracts/GeekNftMarketPlace.sol\":5777:5798  listedNfts[nftsIndex] */\n      dup2\n      mload\n      dup2\n      lt\n      tag_206\n      jumpi\n      tag_207\n      tag_72\n      jump\t// in\n    tag_207:\n    tag_206:\n      0x20\n      mul\n      0x20\n      add\n      add\n        /* \"contracts/GeekNftMarketPlace.sol\":5777:5808  listedNfts[nftsIndex] = nfts[i] */\n      dup2\n      swap1\n      mstore\n      pop\n        /* \"contracts/GeekNftMarketPlace.sol\":5822:5833  nftsIndex++ */\n      dup2\n      dup1\n      tag_208\n      swap1\n      tag_102\n      jump\t// in\n    tag_208:\n      swap3\n      pop\n      pop\n        /* \"contracts/GeekNftMarketPlace.sol\":5743:5844  if (nfts[i].listed) {... */\n    tag_202:\n        /* \"contracts/GeekNftMarketPlace.sol\":5728:5731  i++ */\n      dup1\n      dup1\n      tag_209\n      swap1\n      tag_102\n      jump\t// in\n    tag_209:\n      swap2\n      pop\n      pop\n        /* \"contracts/GeekNftMarketPlace.sol\":5697:5854  for (uint i = 0; i < nftCount; i++) {... */\n      jump(tag_196)\n    tag_197:\n      pop\n        /* \"contracts/GeekNftMarketPlace.sol\":5870:5880  listedNfts */\n      dup2\n        /* \"contracts/GeekNftMarketPlace.sol\":5863:5880  return listedNfts */\n      swap5\n      pop\n      pop\n      pop\n      pop\n      pop\n        /* \"contracts/GeekNftMarketPlace.sol\":5421:5887  function getListedNfts() public view returns (NFT[] memory) {... */\n      swap1\n      jump\t// out\n        /* \"contracts/GeekNftMarketPlace.sol\":3518:4108  function getMyOwnedNfts() public view returns (NFT[] memory) {... */\n    tag_40:\n        /* \"contracts/GeekNftMarketPlace.sol\":3565:3577  NFT[] memory */\n      0x60\n        /* \"contracts/GeekNftMarketPlace.sol\":3589:3603  uint nftsCount */\n      0x00\n        /* \"contracts/GeekNftMarketPlace.sol\":3606:3626  _nftsCount.current() */\n      tag_211\n        /* \"contracts/GeekNftMarketPlace.sol\":3606:3616  _nftsCount */\n      0x02\n        /* \"contracts/GeekNftMarketPlace.sol\":3606:3624  _nftsCount.current */\n      tag_89\n        /* \"contracts/GeekNftMarketPlace.sol\":3606:3626  _nftsCount.current() */\n      jump\t// in\n    tag_211:\n        /* \"contracts/GeekNftMarketPlace.sol\":3589:3626  uint nftsCount = _nftsCount.current() */\n      swap1\n      pop\n        /* \"contracts/GeekNftMarketPlace.sol\":3636:3652  uint myNftsCount */\n      0x00\n        /* \"contracts/GeekNftMarketPlace.sol\":3671:3677  uint i */\n      dup1\n        /* \"contracts/GeekNftMarketPlace.sol\":3666:3806  for (uint i = 0; i < nftsCount; i++) {... */\n    tag_212:\n        /* \"contracts/GeekNftMarketPlace.sol\":3687:3696  nftsCount */\n      dup3\n        /* \"contracts/GeekNftMarketPlace.sol\":3683:3684  i */\n      dup2\n        /* \"contracts/GeekNftMarketPlace.sol\":3683:3696  i < nftsCount */\n      lt\n        /* \"contracts/GeekNftMarketPlace.sol\":3666:3806  for (uint i = 0; i < nftsCount; i++) {... */\n      iszero\n      tag_213\n      jumpi\n        /* \"contracts/GeekNftMarketPlace.sol\":3737:3747  msg.sender */\n      caller\n        /* \"contracts/GeekNftMarketPlace.sol\":3720:3747  nfts[i].owner == msg.sender */\n      0xffffffffffffffffffffffffffffffffffffffff\n      and\n        /* \"contracts/GeekNftMarketPlace.sol\":3720:3724  nfts */\n      0x05\n        /* \"contracts/GeekNftMarketPlace.sol\":3725:3726  i */\n      dup3\n        /* \"contracts/GeekNftMarketPlace.sol\":3720:3727  nfts[i] */\n      dup2\n      sload\n      dup2\n      lt\n      tag_215\n      jumpi\n      tag_216\n      tag_72\n      jump\t// in\n    tag_216:\n    tag_215:\n      swap1\n      0x00\n      mstore\n      keccak256(0x00, 0x20)\n      swap1\n      0x06\n      mul\n      add\n        /* \"contracts/GeekNftMarketPlace.sol\":3720:3733  nfts[i].owner */\n      0x04\n      add\n      0x00\n      swap1\n      sload\n      swap1\n      0x0100\n      exp\n      swap1\n      div\n      0xffffffffffffffffffffffffffffffffffffffff\n      and\n        /* \"contracts/GeekNftMarketPlace.sol\":3720:3747  nfts[i].owner == msg.sender */\n      0xffffffffffffffffffffffffffffffffffffffff\n      and\n      eq\n        /* \"contracts/GeekNftMarketPlace.sol\":3717:3796  if(nfts[i].owner == msg.sender) {... */\n      iszero\n      tag_218\n      jumpi\n        /* \"contracts/GeekNftMarketPlace.sol\":3767:3781  myNftsCount ++ */\n      dup2\n      dup1\n      tag_219\n      swap1\n      tag_102\n      jump\t// in\n    tag_219:\n      swap3\n      pop\n      pop\n        /* \"contracts/GeekNftMarketPlace.sol\":3717:3796  if(nfts[i].owner == msg.sender) {... */\n    tag_218:\n        /* \"contracts/GeekNftMarketPlace.sol\":3698:3701  i++ */\n      dup1\n      dup1\n      tag_220\n      swap1\n      tag_102\n      jump\t// in\n    tag_220:\n      swap2\n      pop\n      pop\n        /* \"contracts/GeekNftMarketPlace.sol\":3666:3806  for (uint i = 0; i < nftsCount; i++) {... */\n      jump(tag_212)\n    tag_213:\n      pop\n        /* \"contracts/GeekNftMarketPlace.sol\":3816:3835  NFT[] memory myNfts */\n      0x00\n        /* \"contracts/GeekNftMarketPlace.sol\":3848:3859  myNftsCount */\n      dup2\n        /* \"contracts/GeekNftMarketPlace.sol\":3838:3860  new NFT[](myNftsCount) */\n      0xffffffffffffffff\n      dup2\n      gt\n      iszero\n      tag_221\n      jumpi\n      tag_222\n      tag_106\n      jump\t// in\n    tag_222:\n    tag_221:\n      mload(0x40)\n      swap1\n      dup1\n      dup3\n      mstore\n      dup1\n      0x20\n      mul\n      0x20\n      add\n      dup3\n      add\n      0x40\n      mstore\n      dup1\n      iszero\n      tag_223\n      jumpi\n      dup2\n      0x20\n      add\n    tag_224:\n      tag_225\n      tag_110\n      jump\t// in\n    tag_225:\n      dup2\n      mstore\n      0x20\n      add\n      swap1\n      0x01\n      swap1\n      sub\n      swap1\n      dup2\n      tag_224\n      jumpi\n      swap1\n      pop\n    tag_223:\n      pop\n        /* \"contracts/GeekNftMarketPlace.sol\":3816:3860  NFT[] memory myNfts = new NFT[](myNftsCount) */\n      swap1\n      pop\n        /* \"contracts/GeekNftMarketPlace.sol\":3870:3883  uint nftIndex */\n      0x00\n        /* \"contracts/GeekNftMarketPlace.sol\":3902:3908  uint i */\n      dup1\n        /* \"contracts/GeekNftMarketPlace.sol\":3897:4078  for (uint i = 0; i < nftsCount; i++) {... */\n    tag_226:\n        /* \"contracts/GeekNftMarketPlace.sol\":3918:3927  nftsCount */\n      dup5\n        /* \"contracts/GeekNftMarketPlace.sol\":3914:3915  i */\n      dup2\n        /* \"contracts/GeekNftMarketPlace.sol\":3914:3927  i < nftsCount */\n      lt\n        /* \"contracts/GeekNftMarketPlace.sol\":3897:4078  for (uint i = 0; i < nftsCount; i++) {... */\n      iszero\n      tag_227\n      jumpi\n        /* \"contracts/GeekNftMarketPlace.sol\":3968:3978  msg.sender */\n      caller\n        /* \"contracts/GeekNftMarketPlace.sol\":3951:3978  nfts[i].owner == msg.sender */\n      0xffffffffffffffffffffffffffffffffffffffff\n      and\n        /* \"contracts/GeekNftMarketPlace.sol\":3951:3955  nfts */\n      0x05\n        /* \"contracts/GeekNftMarketPlace.sol\":3956:3957  i */\n      dup3\n        /* \"contracts/GeekNftMarketPlace.sol\":3951:3958  nfts[i] */\n      dup2\n      sload\n      dup2\n      lt\n      tag_229\n      jumpi\n      tag_230\n      tag_72\n      jump\t// in\n    tag_230:\n    tag_229:\n      swap1\n      0x00\n      mstore\n      keccak256(0x00, 0x20)\n      swap1\n      0x06\n      mul\n      add\n        /* \"contracts/GeekNftMarketPlace.sol\":3951:3964  nfts[i].owner */\n      0x04\n      add\n      0x00\n      swap1\n      sload\n      swap1\n      0x0100\n      exp\n      swap1\n      div\n      0xffffffffffffffffffffffffffffffffffffffff\n      and\n        /* \"contracts/GeekNftMarketPlace.sol\":3951:3978  nfts[i].owner == msg.sender */\n      0xffffffffffffffffffffffffffffffffffffffff\n      and\n      eq\n        /* \"contracts/GeekNftMarketPlace.sol\":3948:4068  if(nfts[i].owner == msg.sender) {... */\n      iszero\n      tag_232\n      jumpi\n        /* \"contracts/GeekNftMarketPlace.sol\":4017:4021  nfts */\n      0x05\n        /* \"contracts/GeekNftMarketPlace.sol\":4022:4023  i */\n      dup2\n        /* \"contracts/GeekNftMarketPlace.sol\":4017:4024  nfts[i] */\n      dup2\n      sload\n      dup2\n      lt\n      tag_233\n      jumpi\n      tag_234\n      tag_72\n      jump\t// in\n    tag_234:\n    tag_233:\n      swap1\n      0x00\n      mstore\n      keccak256(0x00, 0x20)\n      swap1\n      0x06\n      mul\n      add\n        /* \"contracts/GeekNftMarketPlace.sol\":3998:4024  myNfts[nftIndex] = nfts[i] */\n      mload(0x40)\n      dup1\n      0xe0\n      add\n      0x40\n      mstore\n      swap1\n      dup2\n      0x00\n      dup3\n      add\n      0x00\n      swap1\n      sload\n      swap1\n      0x0100\n      exp\n      swap1\n      div\n      0xffffffffffffffffffffffffffffffffffffffff\n      and\n      0xffffffffffffffffffffffffffffffffffffffff\n      and\n      0xffffffffffffffffffffffffffffffffffffffff\n      and\n      dup2\n      mstore\n      0x20\n      add\n      0x01\n      dup3\n      add\n      sload\n      dup2\n      mstore\n      0x20\n      add\n      0x02\n      dup3\n      add\n      sload\n      dup2\n      mstore\n      0x20\n      add\n      0x03\n      dup3\n      add\n      0x00\n      swap1\n      sload\n      swap1\n      0x0100\n      exp\n      swap1\n      div\n      0xffffffffffffffffffffffffffffffffffffffff\n      and\n      0xffffffffffffffffffffffffffffffffffffffff\n      and\n      0xffffffffffffffffffffffffffffffffffffffff\n      and\n      dup2\n      mstore\n      0x20\n      add\n      0x04\n      dup3\n      add\n      0x00\n      swap1\n      sload\n      swap1\n      0x0100\n      exp\n      swap1\n      div\n      0xffffffffffffffffffffffffffffffffffffffff\n      and\n      0xffffffffffffffffffffffffffffffffffffffff\n      and\n      0xffffffffffffffffffffffffffffffffffffffff\n      and\n      dup2\n      mstore\n      0x20\n      add\n      0x05\n      dup3\n      add\n      0x00\n      swap1\n      sload\n      swap1\n      0x0100\n      exp\n      swap1\n      div\n      0xffffffffffffffffffffffffffffffffffffffff\n      and\n      0xffffffffffffffffffffffffffffffffffffffff\n      and\n      0xffffffffffffffffffffffffffffffffffffffff\n      and\n      dup2\n      mstore\n      0x20\n      add\n      0x05\n      dup3\n      add\n      0x14\n      swap1\n      sload\n      swap1\n      0x0100\n      exp\n      swap1\n      div\n      0xff\n      and\n      iszero\n      iszero\n      iszero\n      iszero\n      dup2\n      mstore\n      pop\n      pop\n        /* \"contracts/GeekNftMarketPlace.sol\":3998:4004  myNfts */\n      dup4\n        /* \"contracts/GeekNftMarketPlace.sol\":4005:4013  nftIndex */\n      dup4\n        /* \"contracts/GeekNftMarketPlace.sol\":3998:4014  myNfts[nftIndex] */\n      dup2\n      mload\n      dup2\n      lt\n      tag_236\n      jumpi\n      tag_237\n      tag_72\n      jump\t// in\n    tag_237:\n    tag_236:\n      0x20\n      mul\n      0x20\n      add\n      add\n        /* \"contracts/GeekNftMarketPlace.sol\":3998:4024  myNfts[nftIndex] = nfts[i] */\n      dup2\n      swap1\n      mstore\n      pop\n        /* \"contracts/GeekNftMarketPlace.sol\":4042:4053  nftIndex ++ */\n      dup2\n      dup1\n      tag_238\n      swap1\n      tag_102\n      jump\t// in\n    tag_238:\n      swap3\n      pop\n      pop\n        /* \"contracts/GeekNftMarketPlace.sol\":3948:4068  if(nfts[i].owner == msg.sender) {... */\n    tag_232:\n        /* \"contracts/GeekNftMarketPlace.sol\":3929:3932  i++ */\n      dup1\n      dup1\n      tag_239\n      swap1\n      tag_102\n      jump\t// in\n    tag_239:\n      swap2\n      pop\n      pop\n        /* \"contracts/GeekNftMarketPlace.sol\":3897:4078  for (uint i = 0; i < nftsCount; i++) {... */\n      jump(tag_226)\n    tag_227:\n      pop\n        /* \"contracts/GeekNftMarketPlace.sol\":4095:4101  myNfts */\n      dup2\n        /* \"contracts/GeekNftMarketPlace.sol\":4088:4101  return myNfts */\n      swap5\n      pop\n      pop\n      pop\n      pop\n      pop\n        /* \"contracts/GeekNftMarketPlace.sol\":3518:4108  function getMyOwnedNfts() public view returns (NFT[] memory) {... */\n      swap1\n      jump\t// out\n        /* \"contracts/GeekNftMarketPlace.sol\":1222:1938  function listNFT(address _nftContract, uint _tokenId, uint _price) public payable nonReentrant{... */\n    tag_44:\n        /* \"contracts/RenntrancyGuard.sol\":171:172  2 */\n      0x02\n        /* \"contracts/RenntrancyGuard.sol\":310:317  _status */\n      sload(0x00)\n        /* \"contracts/RenntrancyGuard.sol\":310:329  _status != _ENTERED */\n      eq\n      iszero\n        /* \"contracts/RenntrancyGuard.sol\":302:365  require(_status != _ENTERED, \"ReentrancyGuard: reentrant call\") */\n      tag_241\n      jumpi\n      mload(0x40)\n      0x08c379a000000000000000000000000000000000000000000000000000000000\n      dup2\n      mstore\n      0x04\n      add\n      tag_242\n      swap1\n      tag_52\n      jump\t// in\n    tag_242:\n      mload(0x40)\n      dup1\n      swap2\n      sub\n      swap1\n      revert\n    tag_241:\n        /* \"contracts/RenntrancyGuard.sol\":171:172  2 */\n      0x02\n        /* \"contracts/RenntrancyGuard.sol\":375:382  _status */\n      0x00\n        /* \"contracts/RenntrancyGuard.sol\":375:393  _status = _ENTERED */\n      dup2\n      swap1\n      sstore\n      pop\n        /* \"contracts/GeekNftMarketPlace.sol\":1343:1344  0 */\n      0x00\n        /* \"contracts/GeekNftMarketPlace.sol\":1334:1340  _price */\n      dup2\n        /* \"contracts/GeekNftMarketPlace.sol\":1334:1344  _price > 0 */\n      gt\n        /* \"contracts/GeekNftMarketPlace.sol\":1326:1377  require(_price > 0, \"Price must be at least 1 wei\") */\n      tag_244\n      jumpi\n      mload(0x40)\n      0x08c379a000000000000000000000000000000000000000000000000000000000\n      dup2\n      mstore\n      0x04\n      add\n      tag_245\n      swap1\n      tag_56\n      jump\t// in\n    tag_245:\n      mload(0x40)\n      dup1\n      swap2\n      sub\n      swap1\n      revert\n    tag_244:\n        /* \"contracts/GeekNftMarketPlace.sol\":1408:1419  LISTING_FEE */\n      sload(0x03)\n        /* \"contracts/GeekNftMarketPlace.sol\":1395:1404  msg.value */\n      callvalue\n        /* \"contracts/GeekNftMarketPlace.sol\":1395:1419  msg.value == LISTING_FEE */\n      eq\n        /* \"contracts/GeekNftMarketPlace.sol\":1387:1456  require(msg.value == LISTING_FEE, \"Not enough ether for listing fee\") */\n      tag_246\n      jumpi\n      mload(0x40)\n      0x08c379a000000000000000000000000000000000000000000000000000000000\n      dup2\n      mstore\n      0x04\n      add\n      tag_247\n      swap1\n      tag_59\n      jump\t// in\n    tag_247:\n      mload(0x40)\n      dup1\n      swap2\n      sub\n      swap1\n      revert\n    tag_246:\n        /* \"contracts/GeekNftMarketPlace.sol\":1484:1496  _nftContract */\n      dup3\n        /* \"contracts/GeekNftMarketPlace.sol\":1467:1510  GeekNftInterface(_nftContract).transferFrom */\n      0xffffffffffffffffffffffffffffffffffffffff\n      and\n      0x23b872dd\n        /* \"contracts/GeekNftMarketPlace.sol\":1511:1521  msg.sender */\n      caller\n        /* \"contracts/GeekNftMarketPlace.sol\":1531:1535  this */\n      address\n        /* \"contracts/GeekNftMarketPlace.sol\":1538:1546  _tokenId */\n      dup6\n        /* \"contracts/GeekNftMarketPlace.sol\":1467:1547  GeekNftInterface(_nftContract).transferFrom(msg.sender, address(this), _tokenId) */\n      mload(0x40)\n      dup5\n      0xffffffff\n      and\n      0xe0\n      shl\n      dup2\n      mstore\n      0x04\n      add\n      tag_248\n      swap4\n      swap3\n      swap2\n      swap1\n      tag_66\n      jump\t// in\n    tag_248:\n      0x00\n      mload(0x40)\n      dup1\n      dup4\n      sub\n      dup2\n      0x00\n      dup8\n      dup1\n      extcodesize\n      iszero\n      dup1\n      iszero\n      tag_249\n      jumpi\n      0x00\n      dup1\n      revert\n    tag_249:\n      pop\n      gas\n      call\n      iszero\n      dup1\n      iszero\n      tag_251\n      jumpi\n      returndatasize\n      0x00\n      dup1\n      returndatacopy\n      revert(0x00, returndatasize)\n    tag_251:\n      pop\n      pop\n      pop\n      pop\n        /* \"contracts/GeekNftMarketPlace.sol\":1558:1562  nfts */\n      0x05\n        /* \"contracts/GeekNftMarketPlace.sol\":1568:1769  NFT(... */\n      mload(0x40)\n      dup1\n      0xe0\n      add\n      0x40\n      mstore\n      dup1\n        /* \"contracts/GeekNftMarketPlace.sol\":1585:1597  _nftContract */\n      dup6\n        /* \"contracts/GeekNftMarketPlace.sol\":1568:1769  NFT(... */\n      0xffffffffffffffffffffffffffffffffffffffff\n      and\n      dup2\n      mstore\n      0x20\n      add\n        /* \"contracts/GeekNftMarketPlace.sol\":1611:1619  _tokenId */\n      dup5\n        /* \"contracts/GeekNftMarketPlace.sol\":1568:1769  NFT(... */\n      dup2\n      mstore\n      0x20\n      add\n        /* \"contracts/GeekNftMarketPlace.sol\":1633:1639  _price */\n      dup4\n        /* \"contracts/GeekNftMarketPlace.sol\":1568:1769  NFT(... */\n      dup2\n      mstore\n      0x20\n      add\n        /* \"contracts/GeekNftMarketPlace.sol\":1661:1671  msg.sender */\n      caller\n        /* \"contracts/GeekNftMarketPlace.sol\":1568:1769  NFT(... */\n      0xffffffffffffffffffffffffffffffffffffffff\n      and\n      dup2\n      mstore\n      0x20\n      add\n        /* \"contracts/GeekNftMarketPlace.sol\":1702:1706  this */\n      address\n        /* \"contracts/GeekNftMarketPlace.sol\":1568:1769  NFT(... */\n      0xffffffffffffffffffffffffffffffffffffffff\n      and\n      dup2\n      mstore\n      0x20\n      add\n        /* \"contracts/GeekNftMarketPlace.sol\":1730:1740  msg.sender */\n      caller\n        /* \"contracts/GeekNftMarketPlace.sol\":1568:1769  NFT(... */\n      0xffffffffffffffffffffffffffffffffffffffff\n      and\n      dup2\n      mstore\n      0x20\n      add\n        /* \"contracts/GeekNftMarketPlace.sol\":1755:1759  true */\n      0x01\n        /* \"contracts/GeekNftMarketPlace.sol\":1568:1769  NFT(... */\n      iszero\n      iszero\n      dup2\n      mstore\n      pop\n        /* \"contracts/GeekNftMarketPlace.sol\":1558:1770  nfts.push(NFT(... */\n      swap1\n      dup1\n      0x01\n      dup2\n      sload\n      add\n      dup1\n      dup3\n      sstore\n      dup1\n      swap2\n      pop\n      pop\n      0x01\n      swap1\n      sub\n      swap1\n      0x00\n      mstore\n      keccak256(0x00, 0x20)\n      swap1\n      0x06\n      mul\n      add\n      0x00\n      swap1\n      swap2\n      swap1\n      swap2\n      swap1\n      swap2\n      pop\n      0x00\n      dup3\n      add\n      mload\n      dup2\n      0x00\n      add\n      exp(0x0100, 0x00)\n      dup2\n      sload\n      dup2\n      0xffffffffffffffffffffffffffffffffffffffff\n      mul\n      not\n      and\n      swap1\n      dup4\n      0xffffffffffffffffffffffffffffffffffffffff\n      and\n      mul\n      or\n      swap1\n      sstore\n      pop\n      0x20\n      dup3\n      add\n      mload\n      dup2\n      0x01\n      add\n      sstore\n      0x40\n      dup3\n      add\n      mload\n      dup2\n      0x02\n      add\n      sstore\n      0x60\n      dup3\n      add\n      mload\n      dup2\n      0x03\n      add\n      exp(0x0100, 0x00)\n      dup2\n      sload\n      dup2\n      0xffffffffffffffffffffffffffffffffffffffff\n      mul\n      not\n      and\n      swap1\n      dup4\n      0xffffffffffffffffffffffffffffffffffffffff\n      and\n      mul\n      or\n      swap1\n      sstore\n      pop\n      0x80\n      dup3\n      add\n      mload\n      dup2\n      0x04\n      add\n      exp(0x0100, 0x00)\n      dup2\n      sload\n      dup2\n      0xffffffffffffffffffffffffffffffffffffffff\n      mul\n      not\n      and\n      swap1\n      dup4\n      0xffffffffffffffffffffffffffffffffffffffff\n      and\n      mul\n      or\n      swap1\n      sstore\n      pop\n      0xa0\n      dup3\n      add\n      mload\n      dup2\n      0x05\n      add\n      exp(0x0100, 0x00)\n      dup2\n      sload\n      dup2\n      0xffffffffffffffffffffffffffffffffffffffff\n      mul\n      not\n      and\n      swap1\n      dup4\n      0xffffffffffffffffffffffffffffffffffffffff\n      and\n      mul\n      or\n      swap1\n      sstore\n      pop\n      0xc0\n      dup3\n      add\n      mload\n      dup2\n      0x05\n      add\n      exp(0x0100, 0x14)\n      dup2\n      sload\n      dup2\n      0xff\n      mul\n      not\n      and\n      swap1\n      dup4\n      iszero\n      iszero\n      mul\n      or\n      swap1\n      sstore\n      pop\n      pop\n      pop\n        /* \"contracts/GeekNftMarketPlace.sol\":1781:1803  _nftsCount.increment() */\n      tag_253\n        /* \"contracts/GeekNftMarketPlace.sol\":1781:1791  _nftsCount */\n      0x02\n        /* \"contracts/GeekNftMarketPlace.sol\":1781:1801  _nftsCount.increment */\n      tag_154\n        /* \"contracts/GeekNftMarketPlace.sol\":1781:1803  _nftsCount.increment() */\n      jump\t// in\n    tag_253:\n        /* \"contracts/GeekNftMarketPlace.sol\":1814:1827  _marketOwwner */\n      0x04\n      0x00\n      swap1\n      sload\n      swap1\n      0x0100\n      exp\n      swap1\n      div\n      0xffffffffffffffffffffffffffffffffffffffff\n      and\n        /* \"contracts/GeekNftMarketPlace.sol\":1814:1836  _marketOwwner.transfer */\n      0xffffffffffffffffffffffffffffffffffffffff\n      and\n        /* \"contracts/GeekNftMarketPlace.sol\":1814:1847  _marketOwwner.transfer(msg.value) */\n      0x08fc\n        /* \"contracts/GeekNftMarketPlace.sol\":1837:1846  msg.value */\n      callvalue\n        /* \"contracts/GeekNftMarketPlace.sol\":1814:1847  _marketOwwner.transfer(msg.value) */\n      swap1\n      dup2\n      iszero\n      mul\n      swap1\n      mload(0x40)\n      0x00\n      mload(0x40)\n      dup1\n      dup4\n      sub\n      dup2\n      dup6\n      dup9\n      dup9\n      call\n      swap4\n      pop\n      pop\n      pop\n      pop\n      iszero\n      dup1\n      iszero\n      tag_255\n      jumpi\n      returndatasize\n      0x00\n      dup1\n      returndatacopy\n      revert(0x00, returndatasize)\n    tag_255:\n      pop\n        /* \"contracts/GeekNftMarketPlace.sol\":1917:1921  this */\n      address\n        /* \"contracts/GeekNftMarketPlace.sol\":1863:1931  NFTListed(_nftContract, _tokenId, msg.sender, address(this), _price) */\n      0xffffffffffffffffffffffffffffffffffffffff\n      and\n        /* \"contracts/GeekNftMarketPlace.sol\":1897:1907  msg.sender */\n      caller\n        /* \"contracts/GeekNftMarketPlace.sol\":1863:1931  NFTListed(_nftContract, _tokenId, msg.sender, address(this), _price) */\n      0xffffffffffffffffffffffffffffffffffffffff\n      and\n      0xa0c6c0d02d86fdacecbaa5fdf5894bab204e31a778250474108540733a9b8d19\n        /* \"contracts/GeekNftMarketPlace.sol\":1873:1885  _nftContract */\n      dup6\n        /* \"contracts/GeekNftMarketPlace.sol\":1887:1895  _tokenId */\n      dup6\n        /* \"contracts/GeekNftMarketPlace.sol\":1924:1930  _price */\n      dup6\n        /* \"contracts/GeekNftMarketPlace.sol\":1863:1931  NFTListed(_nftContract, _tokenId, msg.sender, address(this), _price) */\n      mload(0x40)\n      tag_256\n      swap4\n      swap3\n      swap2\n      swap1\n      tag_86\n      jump\t// in\n    tag_256:\n      mload(0x40)\n      dup1\n      swap2\n      sub\n      swap1\n      log3\n        /* \"contracts/RenntrancyGuard.sol\":128:129  1 */\n      0x01\n        /* \"contracts/RenntrancyGuard.sol\":414:421  _status */\n      0x00\n        /* \"contracts/RenntrancyGuard.sol\":414:436  _status = _NOT_ENTERED */\n      dup2\n      swap1\n      sstore\n      pop\n        /* \"contracts/GeekNftMarketPlace.sol\":1222:1938  function listNFT(address _nftContract, uint _tokenId, uint _price) public payable nonReentrant{... */\n      pop\n      pop\n      pop\n      jump\t// out\n        /* \"contracts/GeekNftMarketPlace.sol\":1091:1177  function getListingFee() public view returns (uint){... */\n    tag_47:\n        /* \"contracts/GeekNftMarketPlace.sol\":1137:1141  uint */\n      0x00\n        /* \"contracts/GeekNftMarketPlace.sol\":1159:1170  LISTING_FEE */\n      sload(0x03)\n        /* \"contracts/GeekNftMarketPlace.sol\":1152:1170  return LISTING_FEE */\n      swap1\n      pop\n        /* \"contracts/GeekNftMarketPlace.sol\":1091:1177  function getListingFee() public view returns (uint){... */\n      swap1\n      jump\t// out\n        /* \"contracts/GeekNftMarketPlace.sol\":5893:6358  function getNFT(address _nftContract, uint _tokenId) private view returns (NFT memory, int) {... */\n    tag_61:\n        /* \"contracts/GeekNftMarketPlace.sol\":5968:5978  NFT memory */\n      tag_258\n      tag_110\n      jump\t// in\n    tag_258:\n        /* \"contracts/GeekNftMarketPlace.sol\":5980:5983  int */\n      0x00\n        /* \"contracts/GeekNftMarketPlace.sol\":5995:6009  NFT memory nft */\n      tag_260\n      tag_110\n      jump\t// in\n    tag_260:\n        /* \"contracts/GeekNftMarketPlace.sol\":6019:6028  int index */\n      0x00\n        /* \"contracts/GeekNftMarketPlace.sol\":6031:6033  -1 */\n      0xffffffffffffffffffffffffffffffffffffffffffffffffffffffffffffffff\n        /* \"contracts/GeekNftMarketPlace.sol\":6019:6033  int index = -1 */\n      swap1\n      pop\n        /* \"contracts/GeekNftMarketPlace.sol\":6043:6059  uint256 nftCount */\n      0x00\n        /* \"contracts/GeekNftMarketPlace.sol\":6062:6082  _nftsCount.current() */\n      tag_261\n        /* \"contracts/GeekNftMarketPlace.sol\":6062:6072  _nftsCount */\n      0x02\n        /* \"contracts/GeekNftMarketPlace.sol\":6062:6080  _nftsCount.current */\n      tag_89\n        /* \"contracts/GeekNftMarketPlace.sol\":6062:6082  _nftsCount.current() */\n      jump\t// in\n    tag_261:\n        /* \"contracts/GeekNftMarketPlace.sol\":6043:6082  uint256 nftCount = _nftsCount.current() */\n      swap1\n      pop\n        /* \"contracts/GeekNftMarketPlace.sol\":6096:6102  uint i */\n      0x00\n        /* \"contracts/GeekNftMarketPlace.sol\":6092:6323  for(uint i = 0; i < nftCount; i++) {... */\n    tag_262:\n        /* \"contracts/GeekNftMarketPlace.sol\":6112:6120  nftCount */\n      dup2\n        /* \"contracts/GeekNftMarketPlace.sol\":6108:6109  i */\n      dup2\n        /* \"contracts/GeekNftMarketPlace.sol\":6108:6120  i < nftCount */\n      lt\n        /* \"contracts/GeekNftMarketPlace.sol\":6092:6323  for(uint i = 0; i < nftCount; i++) {... */\n      iszero\n      tag_263\n      jumpi\n        /* \"contracts/GeekNftMarketPlace.sol\":6167:6179  _nftContract */\n      dup8\n        /* \"contracts/GeekNftMarketPlace.sol\":6144:6179  nfts[i].nftContract == _nftContract */\n      0xffffffffffffffffffffffffffffffffffffffff\n      and\n        /* \"contracts/GeekNftMarketPlace.sol\":6144:6148  nfts */\n      0x05\n        /* \"contracts/GeekNftMarketPlace.sol\":6149:6150  i */\n      dup3\n        /* \"contracts/GeekNftMarketPlace.sol\":6144:6151  nfts[i] */\n      dup2\n      sload\n      dup2\n      lt\n      tag_265\n      jumpi\n      tag_266\n      tag_72\n      jump\t// in\n    tag_266:\n    tag_265:\n      swap1\n      0x00\n      mstore\n      keccak256(0x00, 0x20)\n      swap1\n      0x06\n      mul\n      add\n        /* \"contracts/GeekNftMarketPlace.sol\":6144:6163  nfts[i].nftContract */\n      0x00\n      add\n      0x00\n      swap1\n      sload\n      swap1\n      0x0100\n      exp\n      swap1\n      div\n      0xffffffffffffffffffffffffffffffffffffffff\n      and\n        /* \"contracts/GeekNftMarketPlace.sol\":6144:6179  nfts[i].nftContract == _nftContract */\n      0xffffffffffffffffffffffffffffffffffffffff\n      and\n      eq\n        /* \"contracts/GeekNftMarketPlace.sol\":6144:6210  nfts[i].nftContract == _nftContract && nfts[i].tokenId == _tokenId */\n      dup1\n      iszero\n      tag_268\n      jumpi\n      pop\n        /* \"contracts/GeekNftMarketPlace.sol\":6202:6210  _tokenId */\n      dup7\n        /* \"contracts/GeekNftMarketPlace.sol\":6183:6187  nfts */\n      0x05\n        /* \"contracts/GeekNftMarketPlace.sol\":6188:6189  i */\n      dup3\n        /* \"contracts/GeekNftMarketPlace.sol\":6183:6190  nfts[i] */\n      dup2\n      sload\n      dup2\n      lt\n      tag_269\n      jumpi\n      tag_270\n      tag_72\n      jump\t// in\n    tag_270:\n    tag_269:\n      swap1\n      0x00\n      mstore\n      keccak256(0x00, 0x20)\n      swap1\n      0x06\n      mul\n      add\n        /* \"contracts/GeekNftMarketPlace.sol\":6183:6198  nfts[i].tokenId */\n      0x01\n      add\n      sload\n        /* \"contracts/GeekNftMarketPlace.sol\":6183:6210  nfts[i].tokenId == _tokenId */\n      eq\n        /* \"contracts/GeekNftMarketPlace.sol\":6144:6210  nfts[i].nftContract == _nftContract && nfts[i].tokenId == _tokenId */\n    tag_268:\n        /* \"contracts/GeekNftMarketPlace.sol\":6141:6313  if(nfts[i].nftContract == _nftContract && nfts[i].tokenId == _tokenId) {... */\n      iszero\n      tag_272\n      jumpi\n        /* \"contracts/GeekNftMarketPlace.sol\":6236:6240  nfts */\n      0x05\n        /* \"contracts/GeekNftMarketPlace.sol\":6241:6242  i */\n      dup2\n        /* \"contracts/GeekNftMarketPlace.sol\":6236:6243  nfts[i] */\n      dup2\n      sload\n      dup2\n      lt\n      tag_273\n      jumpi\n      tag_274\n      tag_72\n      jump\t// in\n    tag_274:\n    tag_273:\n      swap1\n      0x00\n      mstore\n      keccak256(0x00, 0x20)\n      swap1\n      0x06\n      mul\n      add\n        /* \"contracts/GeekNftMarketPlace.sol\":6230:6243  nft = nfts[i] */\n      mload(0x40)\n      dup1\n      0xe0\n      add\n      0x40\n      mstore\n      swap1\n      dup2\n      0x00\n      dup3\n      add\n      0x00\n      swap1\n      sload\n      swap1\n      0x0100\n      exp\n      swap1\n      div\n      0xffffffffffffffffffffffffffffffffffffffff\n      and\n      0xffffffffffffffffffffffffffffffffffffffff\n      and\n      0xffffffffffffffffffffffffffffffffffffffff\n      and\n      dup2\n      mstore\n      0x20\n      add\n      0x01\n      dup3\n      add\n      sload\n      dup2\n      mstore\n      0x20\n      add\n      0x02\n      dup3\n      add\n      sload\n      dup2\n      mstore\n      0x20\n      add\n      0x03\n      dup3\n      add\n      0x00\n      swap1\n      sload\n      swap1\n      0x0100\n      exp\n      swap1\n      div\n      0xffffffffffffffffffffffffffffffffffffffff\n      and\n      0xffffffffffffffffffffffffffffffffffffffff\n      and\n      0xffffffffffffffffffffffffffffffffffffffff\n      and\n      dup2\n      mstore\n      0x20\n      add\n      0x04\n      dup3\n      add\n      0x00\n      swap1\n      sload\n      swap1\n      0x0100\n      exp\n      swap1\n      div\n      0xffffffffffffffffffffffffffffffffffffffff\n      and\n      0xffffffffffffffffffffffffffffffffffffffff\n      and\n      0xffffffffffffffffffffffffffffffffffffffff\n      and\n      dup2\n      mstore\n      0x20\n      add\n      0x05\n      dup3\n      add\n      0x00\n      swap1\n      sload\n      swap1\n      0x0100\n      exp\n      swap1\n      div\n      0xffffffffffffffffffffffffffffffffffffffff\n      and\n      0xffffffffffffffffffffffffffffffffffffffff\n      and\n      0xffffffffffffffffffffffffffffffffffffffff\n      and\n      dup2\n      mstore\n      0x20\n      add\n      0x05\n      dup3\n      add\n      0x14\n      swap1\n      sload\n      swap1\n      0x0100\n      exp\n      swap1\n      div\n      0xff\n      and\n      iszero\n      iszero\n      iszero\n      iszero\n      dup2\n      mstore\n      pop\n      pop\n      swap4\n      pop\n        /* \"contracts/GeekNftMarketPlace.sol\":6273:6274  i */\n      dup1\n        /* \"contracts/GeekNftMarketPlace.sol\":6261:6275  index = int(i) */\n      swap3\n      pop\n        /* \"contracts/GeekNftMarketPlace.sol\":6293:6298  break */\n      jump(tag_263)\n        /* \"contracts/GeekNftMarketPlace.sol\":6141:6313  if(nfts[i].nftContract == _nftContract && nfts[i].tokenId == _tokenId) {... */\n    tag_272:\n        /* \"contracts/GeekNftMarketPlace.sol\":6122:6125  i++ */\n      dup1\n      dup1\n      tag_276\n      swap1\n      tag_102\n      jump\t// in\n    tag_276:\n      swap2\n      pop\n      pop\n        /* \"contracts/GeekNftMarketPlace.sol\":6092:6323  for(uint i = 0; i < nftCount; i++) {... */\n      jump(tag_262)\n    tag_263:\n      pop\n        /* \"contracts/GeekNftMarketPlace.sol\":6340:6343  nft */\n      dup3\n        /* \"contracts/GeekNftMarketPlace.sol\":6345:6350  index */\n      dup3\n        /* \"contracts/GeekNftMarketPlace.sol\":6332:6351  return (nft, index) */\n      swap5\n      pop\n      swap5\n      pop\n      pop\n      pop\n      pop\n        /* \"contracts/GeekNftMarketPlace.sol\":5893:6358  function getNFT(address _nftContract, uint _tokenId) private view returns (NFT memory, int) {... */\n      swap3\n      pop\n      swap3\n      swap1\n      pop\n      jump\t// out\n        /* \"contracts/Counters.sol\":1074:1303  function decrement(Counter storage counter) internal {... */\n    tag_84:\n        /* \"contracts/Counters.sol\":1137:1150  uint256 value */\n      0x00\n        /* \"contracts/Counters.sol\":1153:1160  counter */\n      dup2\n        /* \"contracts/Counters.sol\":1153:1167  counter._value */\n      0x00\n      add\n      sload\n        /* \"contracts/Counters.sol\":1137:1167  uint256 value = counter._value */\n      swap1\n      pop\n        /* \"contracts/Counters.sol\":1193:1194  0 */\n      0x00\n        /* \"contracts/Counters.sol\":1185:1190  value */\n      dup2\n        /* \"contracts/Counters.sol\":1185:1194  value > 0 */\n      gt\n        /* \"contracts/Counters.sol\":1177:1226  require(value > 0, \"Counter: decrement overflow\") */\n      tag_278\n      jumpi\n      mload(0x40)\n      0x08c379a000000000000000000000000000000000000000000000000000000000\n      dup2\n      mstore\n      0x04\n      add\n      tag_279\n      swap1\n      tag_280\n      jump\t// in\n    tag_279:\n      mload(0x40)\n      dup1\n      swap2\n      sub\n      swap1\n      revert\n    tag_278:\n        /* \"contracts/Counters.sol\":1285:1286  1 */\n      0x01\n        /* \"contracts/Counters.sol\":1277:1282  value */\n      dup2\n        /* \"contracts/Counters.sol\":1277:1286  value - 1 */\n      sub\n        /* \"contracts/Counters.sol\":1260:1267  counter */\n      dup3\n        /* \"contracts/Counters.sol\":1260:1274  counter._value */\n      0x00\n      add\n        /* \"contracts/Counters.sol\":1260:1286  counter._value = value - 1 */\n      dup2\n      swap1\n      sstore\n      pop\n        /* \"contracts/Counters.sol\":1127:1303  {... */\n      pop\n        /* \"contracts/Counters.sol\":1074:1303  function decrement(Counter storage counter) internal {... */\n      pop\n      jump\t// out\n        /* \"contracts/Counters.sol\":827:939  function current(Counter storage counter) internal view returns (uint256) {... */\n    tag_89:\n        /* \"contracts/Counters.sol\":892:899  uint256 */\n      0x00\n        /* \"contracts/Counters.sol\":918:925  counter */\n      dup2\n        /* \"contracts/Counters.sol\":918:932  counter._value */\n      0x00\n      add\n      sload\n        /* \"contracts/Counters.sol\":911:932  return counter._value */\n      swap1\n      pop\n        /* \"contracts/Counters.sol\":827:939  function current(Counter storage counter) internal view returns (uint256) {... */\n      swap2\n      swap1\n      pop\n      jump\t// out\n        /* \"contracts/Counters.sol\":945:1068  function increment(Counter storage counter) internal {... */\n    tag_154:\n        /* \"contracts/Counters.sol\":1050:1051  1 */\n      0x01\n        /* \"contracts/Counters.sol\":1032:1039  counter */\n      dup2\n        /* \"contracts/Counters.sol\":1032:1046  counter._value */\n      0x00\n      add\n      0x00\n        /* \"contracts/Counters.sol\":1032:1051  counter._value += 1 */\n      dup3\n      dup3\n      sload\n      add\n      swap3\n      pop\n      pop\n      dup2\n      swap1\n      sstore\n      pop\n        /* \"contracts/Counters.sol\":945:1068  function increment(Counter storage counter) internal {... */\n      pop\n      jump\t// out\n    tag_110:\n      mload(0x40)\n      dup1\n      0xe0\n      add\n      0x40\n      mstore\n      dup1\n      and(0xffffffffffffffffffffffffffffffffffffffff, 0x00)\n      dup2\n      mstore\n      0x20\n      add\n      0x00\n      dup2\n      mstore\n      0x20\n      add\n      0x00\n      dup2\n      mstore\n      0x20\n      add\n      and(0xffffffffffffffffffffffffffffffffffffffff, 0x00)\n      dup2\n      mstore\n      0x20\n      add\n      and(0xffffffffffffffffffffffffffffffffffffffff, 0x00)\n      dup2\n      mstore\n      0x20\n      add\n      and(0xffffffffffffffffffffffffffffffffffffffff, 0x00)\n      dup2\n      mstore\n      0x20\n      add\n      iszero(iszero(0x00))\n      dup2\n      mstore\n      pop\n      swap1\n      jump\t// out\n        /* \"#utility.yul\":7:146   */\n    tag_284:\n        /* \"#utility.yul\":53:58   */\n      0x00\n        /* \"#utility.yul\":91:97   */\n      dup2\n        /* \"#utility.yul\":78:98   */\n      calldataload\n        /* \"#utility.yul\":69:98   */\n      swap1\n      pop\n        /* \"#utility.yul\":107:140   */\n      tag_286\n        /* \"#utility.yul\":134:139   */\n      dup2\n        /* \"#utility.yul\":107:140   */\n      tag_287\n      jump\t// in\n    tag_286:\n        /* \"#utility.yul\":7:146   */\n      swap3\n      swap2\n      pop\n      pop\n      jump\t// out\n        /* \"#utility.yul\":152:291   */\n    tag_288:\n        /* \"#utility.yul\":198:203   */\n      0x00\n        /* \"#utility.yul\":236:242   */\n      dup2\n        /* \"#utility.yul\":223:243   */\n      calldataload\n        /* \"#utility.yul\":214:243   */\n      swap1\n      pop\n        /* \"#utility.yul\":252:285   */\n      tag_290\n        /* \"#utility.yul\":279:284   */\n      dup2\n        /* \"#utility.yul\":252:285   */\n      tag_291\n      jump\t// in\n    tag_290:\n        /* \"#utility.yul\":152:291   */\n      swap3\n      swap2\n      pop\n      pop\n      jump\t// out\n        /* \"#utility.yul\":297:771   */\n    tag_28:\n        /* \"#utility.yul\":365:371   */\n      0x00\n        /* \"#utility.yul\":373:379   */\n      dup1\n        /* \"#utility.yul\":422:424   */\n      0x40\n        /* \"#utility.yul\":410:419   */\n      dup4\n        /* \"#utility.yul\":401:408   */\n      dup6\n        /* \"#utility.yul\":397:420   */\n      sub\n        /* \"#utility.yul\":393:425   */\n      slt\n        /* \"#utility.yul\":390:509   */\n      iszero\n      tag_293\n      jumpi\n        /* \"#utility.yul\":428:507   */\n      tag_294\n      tag_295\n      jump\t// in\n    tag_294:\n        /* \"#utility.yul\":390:509   */\n    tag_293:\n        /* \"#utility.yul\":548:549   */\n      0x00\n        /* \"#utility.yul\":573:626   */\n      tag_296\n        /* \"#utility.yul\":618:625   */\n      dup6\n        /* \"#utility.yul\":609:615   */\n      dup3\n        /* \"#utility.yul\":598:607   */\n      dup7\n        /* \"#utility.yul\":594:616   */\n      add\n        /* \"#utility.yul\":573:626   */\n      tag_284\n      jump\t// in\n    tag_296:\n        /* \"#utility.yul\":563:626   */\n      swap3\n      pop\n        /* \"#utility.yul\":519:636   */\n      pop\n        /* \"#utility.yul\":675:677   */\n      0x20\n        /* \"#utility.yul\":701:754   */\n      tag_297\n        /* \"#utility.yul\":746:753   */\n      dup6\n        /* \"#utility.yul\":737:743   */\n      dup3\n        /* \"#utility.yul\":726:735   */\n      dup7\n        /* \"#utility.yul\":722:744   */\n      add\n        /* \"#utility.yul\":701:754   */\n      tag_288\n      jump\t// in\n    tag_297:\n        /* \"#utility.yul\":691:754   */\n      swap2\n      pop\n        /* \"#utility.yul\":646:764   */\n      pop\n        /* \"#utility.yul\":297:771   */\n      swap3\n      pop\n      swap3\n      swap1\n      pop\n      jump\t// out\n        /* \"#utility.yul\":777:1396   */\n    tag_14:\n        /* \"#utility.yul\":854:860   */\n      0x00\n        /* \"#utility.yul\":862:868   */\n      dup1\n        /* \"#utility.yul\":870:876   */\n      0x00\n        /* \"#utility.yul\":919:921   */\n      0x60\n        /* \"#utility.yul\":907:916   */\n      dup5\n        /* \"#utility.yul\":898:905   */\n      dup7\n        /* \"#utility.yul\":894:917   */\n      sub\n        /* \"#utility.yul\":890:922   */\n      slt\n        /* \"#utility.yul\":887:1006   */\n      iszero\n      tag_299\n      jumpi\n        /* \"#utility.yul\":925:1004   */\n      tag_300\n      tag_295\n      jump\t// in\n    tag_300:\n        /* \"#utility.yul\":887:1006   */\n    tag_299:\n        /* \"#utility.yul\":1045:1046   */\n      0x00\n        /* \"#utility.yul\":1070:1123   */\n      tag_301\n        /* \"#utility.yul\":1115:1122   */\n      dup7\n        /* \"#utility.yul\":1106:1112   */\n      dup3\n        /* \"#utility.yul\":1095:1104   */\n      dup8\n        /* \"#utility.yul\":1091:1113   */\n      add\n        /* \"#utility.yul\":1070:1123   */\n      tag_284\n      jump\t// in\n    tag_301:\n        /* \"#utility.yul\":1060:1123   */\n      swap4\n      pop\n        /* \"#utility.yul\":1016:1133   */\n      pop\n        /* \"#utility.yul\":1172:1174   */\n      0x20\n        /* \"#utility.yul\":1198:1251   */\n      tag_302\n        /* \"#utility.yul\":1243:1250   */\n      dup7\n        /* \"#utility.yul\":1234:1240   */\n      dup3\n        /* \"#utility.yul\":1223:1232   */\n      dup8\n        /* \"#utility.yul\":1219:1241   */\n      add\n        /* \"#utility.yul\":1198:1251   */\n      tag_288\n      jump\t// in\n    tag_302:\n        /* \"#utility.yul\":1188:1251   */\n      swap3\n      pop\n        /* \"#utility.yul\":1143:1261   */\n      pop\n        /* \"#utility.yul\":1300:1302   */\n      0x40\n        /* \"#utility.yul\":1326:1379   */\n      tag_303\n        /* \"#utility.yul\":1371:1378   */\n      dup7\n        /* \"#utility.yul\":1362:1368   */\n      dup3\n        /* \"#utility.yul\":1351:1360   */\n      dup8\n        /* \"#utility.yul\":1347:1369   */\n      add\n        /* \"#utility.yul\":1326:1379   */\n      tag_288\n      jump\t// in\n    tag_303:\n        /* \"#utility.yul\":1316:1379   */\n      swap2\n      pop\n        /* \"#utility.yul\":1271:1389   */\n      pop\n        /* \"#utility.yul\":777:1396   */\n      swap3\n      pop\n      swap3\n      pop\n      swap3\n      jump\t// out\n        /* \"#utility.yul\":1402:1661   */\n    tag_304:\n        /* \"#utility.yul\":1511:1521   */\n      0x00\n        /* \"#utility.yul\":1532:1618   */\n      tag_306\n        /* \"#utility.yul\":1614:1617   */\n      dup4\n        /* \"#utility.yul\":1606:1612   */\n      dup4\n        /* \"#utility.yul\":1532:1618   */\n      tag_307\n      jump\t// in\n    tag_306:\n        /* \"#utility.yul\":1650:1654   */\n      0xe0\n        /* \"#utility.yul\":1645:1648   */\n      dup4\n        /* \"#utility.yul\":1641:1655   */\n      add\n        /* \"#utility.yul\":1627:1655   */\n      swap1\n      pop\n        /* \"#utility.yul\":1402:1661   */\n      swap3\n      swap2\n      pop\n      pop\n      jump\t// out\n        /* \"#utility.yul\":1667:1814   */\n    tag_308:\n        /* \"#utility.yul\":1762:1807   */\n      tag_310\n        /* \"#utility.yul\":1801:1806   */\n      dup2\n        /* \"#utility.yul\":1762:1807   */\n      tag_311\n      jump\t// in\n    tag_310:\n        /* \"#utility.yul\":1757:1760   */\n      dup3\n        /* \"#utility.yul\":1750:1808   */\n      mstore\n        /* \"#utility.yul\":1667:1814   */\n      pop\n      pop\n      jump\t// out\n        /* \"#utility.yul\":1820:1952   */\n    tag_312:\n        /* \"#utility.yul\":1913:1945   */\n      tag_314\n        /* \"#utility.yul\":1939:1944   */\n      dup2\n        /* \"#utility.yul\":1913:1945   */\n      tag_315\n      jump\t// in\n    tag_314:\n        /* \"#utility.yul\":1908:1911   */\n      dup3\n        /* \"#utility.yul\":1901:1946   */\n      mstore\n        /* \"#utility.yul\":1820:1952   */\n      pop\n      pop\n      jump\t// out\n        /* \"#utility.yul\":1958:2066   */\n    tag_316:\n        /* \"#utility.yul\":2035:2059   */\n      tag_318\n        /* \"#utility.yul\":2053:2058   */\n      dup2\n        /* \"#utility.yul\":2035:2059   */\n      tag_319\n      jump\t// in\n    tag_318:\n        /* \"#utility.yul\":2030:2033   */\n      dup3\n        /* \"#utility.yul\":2023:2060   */\n      mstore\n        /* \"#utility.yul\":1958:2066   */\n      pop\n      pop\n      jump\t// out\n        /* \"#utility.yul\":2072:2190   */\n    tag_320:\n        /* \"#utility.yul\":2159:2183   */\n      tag_322\n        /* \"#utility.yul\":2177:2182   */\n      dup2\n        /* \"#utility.yul\":2159:2183   */\n      tag_319\n      jump\t// in\n    tag_322:\n        /* \"#utility.yul\":2154:2157   */\n      dup3\n        /* \"#utility.yul\":2147:2184   */\n      mstore\n        /* \"#utility.yul\":2072:2190   */\n      pop\n      pop\n      jump\t// out\n        /* \"#utility.yul\":2270:3162   */\n    tag_323:\n        /* \"#utility.yul\":2429:2432   */\n      0x00\n        /* \"#utility.yul\":2458:2532   */\n      tag_325\n        /* \"#utility.yul\":2526:2531   */\n      dup3\n        /* \"#utility.yul\":2458:2532   */\n      tag_326\n      jump\t// in\n    tag_325:\n        /* \"#utility.yul\":2548:2654   */\n      tag_327\n        /* \"#utility.yul\":2647:2653   */\n      dup2\n        /* \"#utility.yul\":2642:2645   */\n      dup6\n        /* \"#utility.yul\":2548:2654   */\n      tag_328\n      jump\t// in\n    tag_327:\n        /* \"#utility.yul\":2541:2654   */\n      swap4\n      pop\n        /* \"#utility.yul\":2678:2754   */\n      tag_329\n        /* \"#utility.yul\":2748:2753   */\n      dup4\n        /* \"#utility.yul\":2678:2754   */\n      tag_330\n      jump\t// in\n    tag_329:\n        /* \"#utility.yul\":2777:2784   */\n      dup1\n        /* \"#utility.yul\":2808:2809   */\n      0x00\n        /* \"#utility.yul\":2793:3137   */\n    tag_331:\n        /* \"#utility.yul\":2818:2824   */\n      dup4\n        /* \"#utility.yul\":2815:2816   */\n      dup2\n        /* \"#utility.yul\":2812:2825   */\n      lt\n        /* \"#utility.yul\":2793:3137   */\n      iszero\n      tag_333\n      jumpi\n        /* \"#utility.yul\":2894:2900   */\n      dup2\n        /* \"#utility.yul\":2888:2901   */\n      mload\n        /* \"#utility.yul\":2921:3024   */\n      tag_334\n        /* \"#utility.yul\":3020:3023   */\n      dup9\n        /* \"#utility.yul\":3005:3018   */\n      dup3\n        /* \"#utility.yul\":2921:3024   */\n      tag_304\n      jump\t// in\n    tag_334:\n        /* \"#utility.yul\":2914:3024   */\n      swap8\n      pop\n        /* \"#utility.yul\":3047:3127   */\n      tag_335\n        /* \"#utility.yul\":3120:3126   */\n      dup4\n        /* \"#utility.yul\":3047:3127   */\n      tag_336\n      jump\t// in\n    tag_335:\n        /* \"#utility.yul\":3037:3127   */\n      swap3\n      pop\n        /* \"#utility.yul\":2853:3137   */\n      pop\n        /* \"#utility.yul\":2840:2841   */\n      0x01\n        /* \"#utility.yul\":2837:2838   */\n      dup2\n        /* \"#utility.yul\":2833:2842   */\n      add\n        /* \"#utility.yul\":2828:2842   */\n      swap1\n      pop\n        /* \"#utility.yul\":2793:3137   */\n      jump(tag_331)\n    tag_333:\n        /* \"#utility.yul\":2797:2811   */\n      pop\n        /* \"#utility.yul\":3153:3156   */\n      dup6\n        /* \"#utility.yul\":3146:3156   */\n      swap4\n      pop\n        /* \"#utility.yul\":2434:3162   */\n      pop\n      pop\n      pop\n        /* \"#utility.yul\":2270:3162   */\n      swap3\n      swap2\n      pop\n      pop\n      jump\t// out\n        /* \"#utility.yul\":3168:3267   */\n    tag_337:\n        /* \"#utility.yul\":3239:3260   */\n      tag_339\n        /* \"#utility.yul\":3254:3259   */\n      dup2\n        /* \"#utility.yul\":3239:3260   */\n      tag_340\n      jump\t// in\n    tag_339:\n        /* \"#utility.yul\":3234:3237   */\n      dup3\n        /* \"#utility.yul\":3227:3261   */\n      mstore\n        /* \"#utility.yul\":3168:3267   */\n      pop\n      pop\n      jump\t// out\n        /* \"#utility.yul\":3273:3639   */\n    tag_341:\n        /* \"#utility.yul\":3415:3418   */\n      0x00\n        /* \"#utility.yul\":3436:3503   */\n      tag_343\n        /* \"#utility.yul\":3500:3502   */\n      0x1b\n        /* \"#utility.yul\":3495:3498   */\n      dup4\n        /* \"#utility.yul\":3436:3503   */\n      tag_344\n      jump\t// in\n    tag_343:\n        /* \"#utility.yul\":3429:3503   */\n      swap2\n      pop\n        /* \"#utility.yul\":3512:3605   */\n      tag_345\n        /* \"#utility.yul\":3601:3604   */\n      dup3\n        /* \"#utility.yul\":3512:3605   */\n      tag_346\n      jump\t// in\n    tag_345:\n        /* \"#utility.yul\":3630:3632   */\n      0x20\n        /* \"#utility.yul\":3625:3628   */\n      dup3\n        /* \"#utility.yul\":3621:3633   */\n      add\n        /* \"#utility.yul\":3614:3633   */\n      swap1\n      pop\n        /* \"#utility.yul\":3273:3639   */\n      swap2\n      swap1\n      pop\n      jump\t// out\n        /* \"#utility.yul\":3645:4011   */\n    tag_347:\n        /* \"#utility.yul\":3787:3790   */\n      0x00\n        /* \"#utility.yul\":3808:3875   */\n      tag_349\n        /* \"#utility.yul\":3872:3874   */\n      0x26\n        /* \"#utility.yul\":3867:3870   */\n      dup4\n        /* \"#utility.yul\":3808:3875   */\n      tag_344\n      jump\t// in\n    tag_349:\n        /* \"#utility.yul\":3801:3875   */\n      swap2\n      pop\n        /* \"#utility.yul\":3884:3977   */\n      tag_350\n        /* \"#utility.yul\":3973:3976   */\n      dup3\n        /* \"#utility.yul\":3884:3977   */\n      tag_351\n      jump\t// in\n    tag_350:\n        /* \"#utility.yul\":4002:4004   */\n      0x40\n        /* \"#utility.yul\":3997:4000   */\n      dup3\n        /* \"#utility.yul\":3993:4005   */\n      add\n        /* \"#utility.yul\":3986:4005   */\n      swap1\n      pop\n        /* \"#utility.yul\":3645:4011   */\n      swap2\n      swap1\n      pop\n      jump\t// out\n        /* \"#utility.yul\":4017:4383   */\n    tag_352:\n        /* \"#utility.yul\":4159:4162   */\n      0x00\n        /* \"#utility.yul\":4180:4247   */\n      tag_354\n        /* \"#utility.yul\":4244:4246   */\n      0x0d\n        /* \"#utility.yul\":4239:4242   */\n      dup4\n        /* \"#utility.yul\":4180:4247   */\n      tag_344\n      jump\t// in\n    tag_354:\n        /* \"#utility.yul\":4173:4247   */\n      swap2\n      pop\n        /* \"#utility.yul\":4256:4349   */\n      tag_355\n        /* \"#utility.yul\":4345:4348   */\n      dup3\n        /* \"#utility.yul\":4256:4349   */\n      tag_356\n      jump\t// in\n    tag_355:\n        /* \"#utility.yul\":4374:4376   */\n      0x20\n        /* \"#utility.yul\":4369:4372   */\n      dup3\n        /* \"#utility.yul\":4365:4377   */\n      add\n        /* \"#utility.yul\":4358:4377   */\n      swap1\n      pop\n        /* \"#utility.yul\":4017:4383   */\n      swap2\n      swap1\n      pop\n      jump\t// out\n        /* \"#utility.yul\":4389:4755   */\n    tag_357:\n        /* \"#utility.yul\":4531:4534   */\n      0x00\n        /* \"#utility.yul\":4552:4619   */\n      tag_359\n        /* \"#utility.yul\":4616:4618   */\n      0x20\n        /* \"#utility.yul\":4611:4614   */\n      dup4\n        /* \"#utility.yul\":4552:4619   */\n      tag_344\n      jump\t// in\n    tag_359:\n        /* \"#utility.yul\":4545:4619   */\n      swap2\n      pop\n        /* \"#utility.yul\":4628:4721   */\n      tag_360\n        /* \"#utility.yul\":4717:4720   */\n      dup3\n        /* \"#utility.yul\":4628:4721   */\n      tag_361\n      jump\t// in\n    tag_360:\n        /* \"#utility.yul\":4746:4748   */\n      0x20\n        /* \"#utility.yul\":4741:4744   */\n      dup3\n        /* \"#utility.yul\":4737:4749   */\n      add\n        /* \"#utility.yul\":4730:4749   */\n      swap1\n      pop\n        /* \"#utility.yul\":4389:4755   */\n      swap2\n      swap1\n      pop\n      jump\t// out\n        /* \"#utility.yul\":4761:5127   */\n    tag_362:\n        /* \"#utility.yul\":4903:4906   */\n      0x00\n        /* \"#utility.yul\":4924:4991   */\n      tag_364\n        /* \"#utility.yul\":4988:4990   */\n      0x1f\n        /* \"#utility.yul\":4983:4986   */\n      dup4\n        /* \"#utility.yul\":4924:4991   */\n      tag_344\n      jump\t// in\n    tag_364:\n        /* \"#utility.yul\":4917:4991   */\n      swap2\n      pop\n        /* \"#utility.yul\":5000:5093   */\n      tag_365\n        /* \"#utility.yul\":5089:5092   */\n      dup3\n        /* \"#utility.yul\":5000:5093   */\n      tag_366\n      jump\t// in\n    tag_365:\n        /* \"#utility.yul\":5118:5120   */\n      0x20\n        /* \"#utility.yul\":5113:5116   */\n      dup3\n        /* \"#utility.yul\":5109:5121   */\n      add\n        /* \"#utility.yul\":5102:5121   */\n      swap1\n      pop\n        /* \"#utility.yul\":4761:5127   */\n      swap2\n      swap1\n      pop\n      jump\t// out\n        /* \"#utility.yul\":5133:5499   */\n    tag_367:\n        /* \"#utility.yul\":5275:5278   */\n      0x00\n        /* \"#utility.yul\":5296:5363   */\n      tag_369\n        /* \"#utility.yul\":5360:5362   */\n      0x1c\n        /* \"#utility.yul\":5355:5358   */\n      dup4\n        /* \"#utility.yul\":5296:5363   */\n      tag_344\n      jump\t// in\n    tag_369:\n        /* \"#utility.yul\":5289:5363   */\n      swap2\n      pop\n        /* \"#utility.yul\":5372:5465   */\n      tag_370\n        /* \"#utility.yul\":5461:5464   */\n      dup3\n        /* \"#utility.yul\":5372:5465   */\n      tag_371\n      jump\t// in\n    tag_370:\n        /* \"#utility.yul\":5490:5492   */\n      0x20\n        /* \"#utility.yul\":5485:5488   */\n      dup3\n        /* \"#utility.yul\":5481:5493   */\n      add\n        /* \"#utility.yul\":5474:5493   */\n      swap1\n      pop\n        /* \"#utility.yul\":5133:5499   */\n      swap2\n      swap1\n      pop\n      jump\t// out\n        /* \"#utility.yul\":5575:6993   */\n    tag_307:\n        /* \"#utility.yul\":5702:5706   */\n      0xe0\n        /* \"#utility.yul\":5697:5700   */\n      dup3\n        /* \"#utility.yul\":5693:5707   */\n      add\n        /* \"#utility.yul\":5796:5800   */\n      0x00\n        /* \"#utility.yul\":5789:5794   */\n      dup3\n        /* \"#utility.yul\":5785:5801   */\n      add\n        /* \"#utility.yul\":5779:5802   */\n      mload\n        /* \"#utility.yul\":5815:5878   */\n      tag_373\n        /* \"#utility.yul\":5872:5876   */\n      0x00\n        /* \"#utility.yul\":5867:5870   */\n      dup6\n        /* \"#utility.yul\":5863:5877   */\n      add\n        /* \"#utility.yul\":5849:5861   */\n      dup3\n        /* \"#utility.yul\":5815:5878   */\n      tag_316\n      jump\t// in\n    tag_373:\n        /* \"#utility.yul\":5717:5888   */\n      pop\n        /* \"#utility.yul\":5973:5977   */\n      0x20\n        /* \"#utility.yul\":5966:5971   */\n      dup3\n        /* \"#utility.yul\":5962:5978   */\n      add\n        /* \"#utility.yul\":5956:5979   */\n      mload\n        /* \"#utility.yul\":5992:6055   */\n      tag_374\n        /* \"#utility.yul\":6049:6053   */\n      0x20\n        /* \"#utility.yul\":6044:6047   */\n      dup6\n        /* \"#utility.yul\":6040:6054   */\n      add\n        /* \"#utility.yul\":6026:6038   */\n      dup3\n        /* \"#utility.yul\":5992:6055   */\n      tag_375\n      jump\t// in\n    tag_374:\n        /* \"#utility.yul\":5898:6065   */\n      pop\n        /* \"#utility.yul\":6148:6152   */\n      0x40\n        /* \"#utility.yul\":6141:6146   */\n      dup3\n        /* \"#utility.yul\":6137:6153   */\n      add\n        /* \"#utility.yul\":6131:6154   */\n      mload\n        /* \"#utility.yul\":6167:6230   */\n      tag_376\n        /* \"#utility.yul\":6224:6228   */\n      0x40\n        /* \"#utility.yul\":6219:6222   */\n      dup6\n        /* \"#utility.yul\":6215:6229   */\n      add\n        /* \"#utility.yul\":6201:6213   */\n      dup3\n        /* \"#utility.yul\":6167:6230   */\n      tag_375\n      jump\t// in\n    tag_376:\n        /* \"#utility.yul\":6075:6240   */\n      pop\n        /* \"#utility.yul\":6324:6328   */\n      0x60\n        /* \"#utility.yul\":6317:6322   */\n      dup3\n        /* \"#utility.yul\":6313:6329   */\n      add\n        /* \"#utility.yul\":6307:6330   */\n      mload\n        /* \"#utility.yul\":6343:6422   */\n      tag_377\n        /* \"#utility.yul\":6416:6420   */\n      0x60\n        /* \"#utility.yul\":6411:6414   */\n      dup6\n        /* \"#utility.yul\":6407:6421   */\n      add\n        /* \"#utility.yul\":6393:6405   */\n      dup3\n        /* \"#utility.yul\":6343:6422   */\n      tag_312\n      jump\t// in\n    tag_377:\n        /* \"#utility.yul\":6250:6432   */\n      pop\n        /* \"#utility.yul\":6515:6519   */\n      0x80\n        /* \"#utility.yul\":6508:6513   */\n      dup3\n        /* \"#utility.yul\":6504:6520   */\n      add\n        /* \"#utility.yul\":6498:6521   */\n      mload\n        /* \"#utility.yul\":6534:6613   */\n      tag_378\n        /* \"#utility.yul\":6607:6611   */\n      0x80\n        /* \"#utility.yul\":6602:6605   */\n      dup6\n        /* \"#utility.yul\":6598:6612   */\n      add\n        /* \"#utility.yul\":6584:6596   */\n      dup3\n        /* \"#utility.yul\":6534:6613   */\n      tag_312\n      jump\t// in\n    tag_378:\n        /* \"#utility.yul\":6442:6623   */\n      pop\n        /* \"#utility.yul\":6708:6712   */\n      0xa0\n        /* \"#utility.yul\":6701:6706   */\n      dup3\n        /* \"#utility.yul\":6697:6713   */\n      add\n        /* \"#utility.yul\":6691:6714   */\n      mload\n        /* \"#utility.yul\":6727:6806   */\n      tag_379\n        /* \"#utility.yul\":6800:6804   */\n      0xa0\n        /* \"#utility.yul\":6795:6798   */\n      dup6\n        /* \"#utility.yul\":6791:6805   */\n      add\n        /* \"#utility.yul\":6777:6789   */\n      dup3\n        /* \"#utility.yul\":6727:6806   */\n      tag_312\n      jump\t// in\n    tag_379:\n        /* \"#utility.yul\":6633:6816   */\n      pop\n        /* \"#utility.yul\":6900:6904   */\n      0xc0\n        /* \"#utility.yul\":6893:6898   */\n      dup3\n        /* \"#utility.yul\":6889:6905   */\n      add\n        /* \"#utility.yul\":6883:6906   */\n      mload\n        /* \"#utility.yul\":6919:6976   */\n      tag_380\n        /* \"#utility.yul\":6970:6974   */\n      0xc0\n        /* \"#utility.yul\":6965:6968   */\n      dup6\n        /* \"#utility.yul\":6961:6975   */\n      add\n        /* \"#utility.yul\":6947:6959   */\n      dup3\n        /* \"#utility.yul\":6919:6976   */\n      tag_337\n      jump\t// in\n    tag_380:\n        /* \"#utility.yul\":6826:6986   */\n      pop\n        /* \"#utility.yul\":5671:6993   */\n      pop\n        /* \"#utility.yul\":5575:6993   */\n      pop\n      pop\n      jump\t// out\n        /* \"#utility.yul\":6999:7107   */\n    tag_375:\n        /* \"#utility.yul\":7076:7100   */\n      tag_382\n        /* \"#utility.yul\":7094:7099   */\n      dup2\n        /* \"#utility.yul\":7076:7100   */\n      tag_383\n      jump\t// in\n    tag_382:\n        /* \"#utility.yul\":7071:7074   */\n      dup3\n        /* \"#utility.yul\":7064:7101   */\n      mstore\n        /* \"#utility.yul\":6999:7107   */\n      pop\n      pop\n      jump\t// out\n        /* \"#utility.yul\":7113:7231   */\n    tag_384:\n        /* \"#utility.yul\":7200:7224   */\n      tag_386\n        /* \"#utility.yul\":7218:7223   */\n      dup2\n        /* \"#utility.yul\":7200:7224   */\n      tag_383\n      jump\t// in\n    tag_386:\n        /* \"#utility.yul\":7195:7198   */\n      dup3\n        /* \"#utility.yul\":7188:7225   */\n      mstore\n        /* \"#utility.yul\":7113:7231   */\n      pop\n      pop\n      jump\t// out\n        /* \"#utility.yul\":7237:7695   */\n    tag_143:\n        /* \"#utility.yul\":7394:7398   */\n      0x00\n        /* \"#utility.yul\":7432:7434   */\n      0x60\n        /* \"#utility.yul\":7421:7430   */\n      dup3\n        /* \"#utility.yul\":7417:7435   */\n      add\n        /* \"#utility.yul\":7409:7435   */\n      swap1\n      pop\n        /* \"#utility.yul\":7445:7516   */\n      tag_388\n        /* \"#utility.yul\":7513:7514   */\n      0x00\n        /* \"#utility.yul\":7502:7511   */\n      dup4\n        /* \"#utility.yul\":7498:7515   */\n      add\n        /* \"#utility.yul\":7489:7495   */\n      dup7\n        /* \"#utility.yul\":7445:7516   */\n      tag_320\n      jump\t// in\n    tag_388:\n        /* \"#utility.yul\":7526:7606   */\n      tag_389\n        /* \"#utility.yul\":7602:7604   */\n      0x20\n        /* \"#utility.yul\":7591:7600   */\n      dup4\n        /* \"#utility.yul\":7587:7605   */\n      add\n        /* \"#utility.yul\":7578:7584   */\n      dup6\n        /* \"#utility.yul\":7526:7606   */\n      tag_308\n      jump\t// in\n    tag_389:\n        /* \"#utility.yul\":7616:7688   */\n      tag_390\n        /* \"#utility.yul\":7684:7686   */\n      0x40\n        /* \"#utility.yul\":7673:7682   */\n      dup4\n        /* \"#utility.yul\":7669:7687   */\n      add\n        /* \"#utility.yul\":7660:7666   */\n      dup5\n        /* \"#utility.yul\":7616:7688   */\n      tag_384\n      jump\t// in\n    tag_390:\n        /* \"#utility.yul\":7237:7695   */\n      swap5\n      swap4\n      pop\n      pop\n      pop\n      pop\n      jump\t// out\n        /* \"#utility.yul\":7701:8143   */\n    tag_66:\n        /* \"#utility.yul\":7850:7854   */\n      0x00\n        /* \"#utility.yul\":7888:7890   */\n      0x60\n        /* \"#utility.yul\":7877:7886   */\n      dup3\n        /* \"#utility.yul\":7873:7891   */\n      add\n        /* \"#utility.yul\":7865:7891   */\n      swap1\n      pop\n        /* \"#utility.yul\":7901:7972   */\n      tag_392\n        /* \"#utility.yul\":7969:7970   */\n      0x00\n        /* \"#utility.yul\":7958:7967   */\n      dup4\n        /* \"#utility.yul\":7954:7971   */\n      add\n        /* \"#utility.yul\":7945:7951   */\n      dup7\n        /* \"#utility.yul\":7901:7972   */\n      tag_320\n      jump\t// in\n    tag_392:\n        /* \"#utility.yul\":7982:8054   */\n      tag_393\n        /* \"#utility.yul\":8050:8052   */\n      0x20\n        /* \"#utility.yul\":8039:8048   */\n      dup4\n        /* \"#utility.yul\":8035:8053   */\n      add\n        /* \"#utility.yul\":8026:8032   */\n      dup6\n        /* \"#utility.yul\":7982:8054   */\n      tag_320\n      jump\t// in\n    tag_393:\n        /* \"#utility.yul\":8064:8136   */\n      tag_394\n        /* \"#utility.yul\":8132:8134   */\n      0x40\n        /* \"#utility.yul\":8121:8130   */\n      dup4\n        /* \"#utility.yul\":8117:8135   */\n      add\n        /* \"#utility.yul\":8108:8114   */\n      dup5\n        /* \"#utility.yul\":8064:8136   */\n      tag_384\n      jump\t// in\n    tag_394:\n        /* \"#utility.yul\":7701:8143   */\n      swap5\n      swap4\n      pop\n      pop\n      pop\n      pop\n      jump\t// out\n        /* \"#utility.yul\":8149:8591   */\n    tag_86:\n        /* \"#utility.yul\":8298:8302   */\n      0x00\n        /* \"#utility.yul\":8336:8338   */\n      0x60\n        /* \"#utility.yul\":8325:8334   */\n      dup3\n        /* \"#utility.yul\":8321:8339   */\n      add\n        /* \"#utility.yul\":8313:8339   */\n      swap1\n      pop\n        /* \"#utility.yul\":8349:8420   */\n      tag_396\n        /* \"#utility.yul\":8417:8418   */\n      0x00\n        /* \"#utility.yul\":8406:8415   */\n      dup4\n        /* \"#utility.yul\":8402:8419   */\n      add\n        /* \"#utility.yul\":8393:8399   */\n      dup7\n        /* \"#utility.yul\":8349:8420   */\n      tag_320\n      jump\t// in\n    tag_396:\n        /* \"#utility.yul\":8430:8502   */\n      tag_397\n        /* \"#utility.yul\":8498:8500   */\n      0x20\n        /* \"#utility.yul\":8487:8496   */\n      dup4\n        /* \"#utility.yul\":8483:8501   */\n      add\n        /* \"#utility.yul\":8474:8480   */\n      dup6\n        /* \"#utility.yul\":8430:8502   */\n      tag_384\n      jump\t// in\n    tag_397:\n        /* \"#utility.yul\":8512:8584   */\n      tag_398\n        /* \"#utility.yul\":8580:8582   */\n      0x40\n        /* \"#utility.yul\":8569:8578   */\n      dup4\n        /* \"#utility.yul\":8565:8583   */\n      add\n        /* \"#utility.yul\":8556:8562   */\n      dup5\n        /* \"#utility.yul\":8512:8584   */\n      tag_384\n      jump\t// in\n    tag_398:\n        /* \"#utility.yul\":8149:8591   */\n      swap5\n      swap4\n      pop\n      pop\n      pop\n      pop\n      jump\t// out\n        /* \"#utility.yul\":8597:9050   */\n    tag_20:\n        /* \"#utility.yul\":8780:8784   */\n      0x00\n        /* \"#utility.yul\":8818:8820   */\n      0x20\n        /* \"#utility.yul\":8807:8816   */\n      dup3\n        /* \"#utility.yul\":8803:8821   */\n      add\n        /* \"#utility.yul\":8795:8821   */\n      swap1\n      pop\n        /* \"#utility.yul\":8867:8876   */\n      dup2\n        /* \"#utility.yul\":8861:8865   */\n      dup2\n        /* \"#utility.yul\":8857:8877   */\n      sub\n        /* \"#utility.yul\":8853:8854   */\n      0x00\n        /* \"#utility.yul\":8842:8851   */\n      dup4\n        /* \"#utility.yul\":8838:8855   */\n      add\n        /* \"#utility.yul\":8831:8878   */\n      mstore\n        /* \"#utility.yul\":8895:9043   */\n      tag_400\n        /* \"#utility.yul\":9038:9042   */\n      dup2\n        /* \"#utility.yul\":9029:9035   */\n      dup5\n        /* \"#utility.yul\":8895:9043   */\n      tag_323\n      jump\t// in\n    tag_400:\n        /* \"#utility.yul\":8887:9043   */\n      swap1\n      pop\n        /* \"#utility.yul\":8597:9050   */\n      swap3\n      swap2\n      pop\n      pop\n      jump\t// out\n        /* \"#utility.yul\":9056:9475   */\n    tag_280:\n        /* \"#utility.yul\":9222:9226   */\n      0x00\n        /* \"#utility.yul\":9260:9262   */\n      0x20\n        /* \"#utility.yul\":9249:9258   */\n      dup3\n        /* \"#utility.yul\":9245:9263   */\n      add\n        /* \"#utility.yul\":9237:9263   */\n      swap1\n      pop\n        /* \"#utility.yul\":9309:9318   */\n      dup2\n        /* \"#utility.yul\":9303:9307   */\n      dup2\n        /* \"#utility.yul\":9299:9319   */\n      sub\n        /* \"#utility.yul\":9295:9296   */\n      0x00\n        /* \"#utility.yul\":9284:9293   */\n      dup4\n        /* \"#utility.yul\":9280:9297   */\n      add\n        /* \"#utility.yul\":9273:9320   */\n      mstore\n        /* \"#utility.yul\":9337:9468   */\n      tag_402\n        /* \"#utility.yul\":9463:9467   */\n      dup2\n        /* \"#utility.yul\":9337:9468   */\n      tag_341\n      jump\t// in\n    tag_402:\n        /* \"#utility.yul\":9329:9468   */\n      swap1\n      pop\n        /* \"#utility.yul\":9056:9475   */\n      swap2\n      swap1\n      pop\n      jump\t// out\n        /* \"#utility.yul\":9481:9900   */\n    tag_139:\n        /* \"#utility.yul\":9647:9651   */\n      0x00\n        /* \"#utility.yul\":9685:9687   */\n      0x20\n        /* \"#utility.yul\":9674:9683   */\n      dup3\n        /* \"#utility.yul\":9670:9688   */\n      add\n        /* \"#utility.yul\":9662:9688   */\n      swap1\n      pop\n        /* \"#utility.yul\":9734:9743   */\n      dup2\n        /* \"#utility.yul\":9728:9732   */\n      dup2\n        /* \"#utility.yul\":9724:9744   */\n      sub\n        /* \"#utility.yul\":9720:9721   */\n      0x00\n        /* \"#utility.yul\":9709:9718   */\n      dup4\n        /* \"#utility.yul\":9705:9722   */\n      add\n        /* \"#utility.yul\":9698:9745   */\n      mstore\n        /* \"#utility.yul\":9762:9893   */\n      tag_404\n        /* \"#utility.yul\":9888:9892   */\n      dup2\n        /* \"#utility.yul\":9762:9893   */\n      tag_347\n      jump\t// in\n    tag_404:\n        /* \"#utility.yul\":9754:9893   */\n      swap1\n      pop\n        /* \"#utility.yul\":9481:9900   */\n      swap2\n      swap1\n      pop\n      jump\t// out\n        /* \"#utility.yul\":9906:10325   */\n    tag_64:\n        /* \"#utility.yul\":10072:10076   */\n      0x00\n        /* \"#utility.yul\":10110:10112   */\n      0x20\n        /* \"#utility.yul\":10099:10108   */\n      dup3\n        /* \"#utility.yul\":10095:10113   */\n      add\n        /* \"#utility.yul\":10087:10113   */\n      swap1\n      pop\n        /* \"#utility.yul\":10159:10168   */\n      dup2\n        /* \"#utility.yul\":10153:10157   */\n      dup2\n        /* \"#utility.yul\":10149:10169   */\n      sub\n        /* \"#utility.yul\":10145:10146   */\n      0x00\n        /* \"#utility.yul\":10134:10143   */\n      dup4\n        /* \"#utility.yul\":10130:10147   */\n      add\n        /* \"#utility.yul\":10123:10170   */\n      mstore\n        /* \"#utility.yul\":10187:10318   */\n      tag_406\n        /* \"#utility.yul\":10313:10317   */\n      dup2\n        /* \"#utility.yul\":10187:10318   */\n      tag_352\n      jump\t// in\n    tag_406:\n        /* \"#utility.yul\":10179:10318   */\n      swap1\n      pop\n        /* \"#utility.yul\":9906:10325   */\n      swap2\n      swap1\n      pop\n      jump\t// out\n        /* \"#utility.yul\":10331:10750   */\n    tag_59:\n        /* \"#utility.yul\":10497:10501   */\n      0x00\n        /* \"#utility.yul\":10535:10537   */\n      0x20\n        /* \"#utility.yul\":10524:10533   */\n      dup3\n        /* \"#utility.yul\":10520:10538   */\n      add\n        /* \"#utility.yul\":10512:10538   */\n      swap1\n      pop\n        /* \"#utility.yul\":10584:10593   */\n      dup2\n        /* \"#utility.yul\":10578:10582   */\n      dup2\n        /* \"#utility.yul\":10574:10594   */\n      sub\n        /* \"#utility.yul\":10570:10571   */\n      0x00\n        /* \"#utility.yul\":10559:10568   */\n      dup4\n        /* \"#utility.yul\":10555:10572   */\n      add\n        /* \"#utility.yul\":10548:10595   */\n      mstore\n        /* \"#utility.yul\":10612:10743   */\n      tag_408\n        /* \"#utility.yul\":10738:10742   */\n      dup2\n        /* \"#utility.yul\":10612:10743   */\n      tag_357\n      jump\t// in\n    tag_408:\n        /* \"#utility.yul\":10604:10743   */\n      swap1\n      pop\n        /* \"#utility.yul\":10331:10750   */\n      swap2\n      swap1\n      pop\n      jump\t// out\n        /* \"#utility.yul\":10756:11175   */\n    tag_52:\n        /* \"#utility.yul\":10922:10926   */\n      0x00\n        /* \"#utility.yul\":10960:10962   */\n      0x20\n        /* \"#utility.yul\":10949:10958   */\n      dup3\n        /* \"#utility.yul\":10945:10963   */\n      add\n        /* \"#utility.yul\":10937:10963   */\n      swap1\n      pop\n        /* \"#utility.yul\":11009:11018   */\n      dup2\n        /* \"#utility.yul\":11003:11007   */\n      dup2\n        /* \"#utility.yul\":10999:11019   */\n      sub\n        /* \"#utility.yul\":10995:10996   */\n      0x00\n        /* \"#utility.yul\":10984:10993   */\n      dup4\n        /* \"#utility.yul\":10980:10997   */\n      add\n        /* \"#utility.yul\":10973:11020   */\n      mstore\n        /* \"#utility.yul\":11037:11168   */\n      tag_410\n        /* \"#utility.yul\":11163:11167   */\n      dup2\n        /* \"#utility.yul\":11037:11168   */\n      tag_362\n      jump\t// in\n    tag_410:\n        /* \"#utility.yul\":11029:11168   */\n      swap1\n      pop\n        /* \"#utility.yul\":10756:11175   */\n      swap2\n      swap1\n      pop\n      jump\t// out\n        /* \"#utility.yul\":11181:11600   */\n    tag_56:\n        /* \"#utility.yul\":11347:11351   */\n      0x00\n        /* \"#utility.yul\":11385:11387   */\n      0x20\n        /* \"#utility.yul\":11374:11383   */\n      dup3\n        /* \"#utility.yul\":11370:11388   */\n      add\n        /* \"#utility.yul\":11362:11388   */\n      swap1\n      pop\n        /* \"#utility.yul\":11434:11443   */\n      dup2\n        /* \"#utility.yul\":11428:11432   */\n      dup2\n        /* \"#utility.yul\":11424:11444   */\n      sub\n        /* \"#utility.yul\":11420:11421   */\n      0x00\n        /* \"#utility.yul\":11409:11418   */\n      dup4\n        /* \"#utility.yul\":11405:11422   */\n      add\n        /* \"#utility.yul\":11398:11445   */\n      mstore\n        /* \"#utility.yul\":11462:11593   */\n      tag_412\n        /* \"#utility.yul\":11588:11592   */\n      dup2\n        /* \"#utility.yul\":11462:11593   */\n      tag_367\n      jump\t// in\n    tag_412:\n        /* \"#utility.yul\":11454:11593   */\n      swap1\n      pop\n        /* \"#utility.yul\":11181:11600   */\n      swap2\n      swap1\n      pop\n      jump\t// out\n        /* \"#utility.yul\":11606:11828   */\n    tag_25:\n        /* \"#utility.yul\":11699:11703   */\n      0x00\n        /* \"#utility.yul\":11737:11739   */\n      0x20\n        /* \"#utility.yul\":11726:11735   */\n      dup3\n        /* \"#utility.yul\":11722:11740   */\n      add\n        /* \"#utility.yul\":11714:11740   */\n      swap1\n      pop\n        /* \"#utility.yul\":11750:11821   */\n      tag_414\n        /* \"#utility.yul\":11818:11819   */\n      0x00\n        /* \"#utility.yul\":11807:11816   */\n      dup4\n        /* \"#utility.yul\":11803:11820   */\n      add\n        /* \"#utility.yul\":11794:11800   */\n      dup5\n        /* \"#utility.yul\":11750:11821   */\n      tag_384\n      jump\t// in\n    tag_414:\n        /* \"#utility.yul\":11606:11828   */\n      swap3\n      swap2\n      pop\n      pop\n      jump\t// out\n        /* \"#utility.yul\":11915:12067   */\n    tag_330:\n        /* \"#utility.yul\":12002:12006   */\n      0x00\n        /* \"#utility.yul\":12025:12028   */\n      dup2\n        /* \"#utility.yul\":12017:12028   */\n      swap1\n      pop\n        /* \"#utility.yul\":12055:12059   */\n      0x20\n        /* \"#utility.yul\":12050:12053   */\n      dup3\n        /* \"#utility.yul\":12046:12060   */\n      add\n        /* \"#utility.yul\":12038:12060   */\n      swap1\n      pop\n        /* \"#utility.yul\":11915:12067   */\n      swap2\n      swap1\n      pop\n      jump\t// out\n        /* \"#utility.yul\":12073:12207   */\n    tag_326:\n        /* \"#utility.yul\":12160:12166   */\n      0x00\n        /* \"#utility.yul\":12194:12199   */\n      dup2\n        /* \"#utility.yul\":12188:12200   */\n      mload\n        /* \"#utility.yul\":12178:12200   */\n      swap1\n      pop\n        /* \"#utility.yul\":12073:12207   */\n      swap2\n      swap1\n      pop\n      jump\t// out\n        /* \"#utility.yul\":12213:12346   */\n    tag_336:\n        /* \"#utility.yul\":12303:12307   */\n      0x00\n        /* \"#utility.yul\":12335:12339   */\n      0x20\n        /* \"#utility.yul\":12330:12333   */\n      dup3\n        /* \"#utility.yul\":12326:12340   */\n      add\n        /* \"#utility.yul\":12318:12340   */\n      swap1\n      pop\n        /* \"#utility.yul\":12213:12346   */\n      swap2\n      swap1\n      pop\n      jump\t// out\n        /* \"#utility.yul\":12352:12556   */\n    tag_328:\n        /* \"#utility.yul\":12471:12482   */\n      0x00\n        /* \"#utility.yul\":12505:12511   */\n      dup3\n        /* \"#utility.yul\":12500:12503   */\n      dup3\n        /* \"#utility.yul\":12493:12512   */\n      mstore\n        /* \"#utility.yul\":12545:12549   */\n      0x20\n        /* \"#utility.yul\":12540:12543   */\n      dup3\n        /* \"#utility.yul\":12536:12550   */\n      add\n        /* \"#utility.yul\":12521:12550   */\n      swap1\n      pop\n        /* \"#utility.yul\":12352:12556   */\n      swap3\n      swap2\n      pop\n      pop\n      jump\t// out\n        /* \"#utility.yul\":12562:12731   */\n    tag_344:\n        /* \"#utility.yul\":12646:12657   */\n      0x00\n        /* \"#utility.yul\":12680:12686   */\n      dup3\n        /* \"#utility.yul\":12675:12678   */\n      dup3\n        /* \"#utility.yul\":12668:12687   */\n      mstore\n        /* \"#utility.yul\":12720:12724   */\n      0x20\n        /* \"#utility.yul\":12715:12718   */\n      dup3\n        /* \"#utility.yul\":12711:12725   */\n      add\n        /* \"#utility.yul\":12696:12725   */\n      swap1\n      pop\n        /* \"#utility.yul\":12562:12731   */\n      swap3\n      swap2\n      pop\n      pop\n      jump\t// out\n        /* \"#utility.yul\":12737:12928   */\n    tag_190:\n        /* \"#utility.yul\":12777:12781   */\n      0x00\n        /* \"#utility.yul\":12797:12817   */\n      tag_423\n        /* \"#utility.yul\":12815:12816   */\n      dup3\n        /* \"#utility.yul\":12797:12817   */\n      tag_383\n      jump\t// in\n    tag_423:\n        /* \"#utility.yul\":12792:12817   */\n      swap2\n      pop\n        /* \"#utility.yul\":12831:12851   */\n      tag_424\n        /* \"#utility.yul\":12849:12850   */\n      dup4\n        /* \"#utility.yul\":12831:12851   */\n      tag_383\n      jump\t// in\n    tag_424:\n        /* \"#utility.yul\":12826:12851   */\n      swap3\n      pop\n        /* \"#utility.yul\":12870:12871   */\n      dup3\n        /* \"#utility.yul\":12867:12868   */\n      dup3\n        /* \"#utility.yul\":12864:12872   */\n      lt\n        /* \"#utility.yul\":12861:12895   */\n      iszero\n      tag_425\n      jumpi\n        /* \"#utility.yul\":12875:12893   */\n      tag_426\n      tag_427\n      jump\t// in\n    tag_426:\n        /* \"#utility.yul\":12861:12895   */\n    tag_425:\n        /* \"#utility.yul\":12920:12921   */\n      dup3\n        /* \"#utility.yul\":12917:12918   */\n      dup3\n        /* \"#utility.yul\":12913:12922   */\n      sub\n        /* \"#utility.yul\":12905:12922   */\n      swap1\n      pop\n        /* \"#utility.yul\":12737:12928   */\n      swap3\n      swap2\n      pop\n      pop\n      jump\t// out\n        /* \"#utility.yul\":12934:13030   */\n    tag_319:\n        /* \"#utility.yul\":12971:12978   */\n      0x00\n        /* \"#utility.yul\":13000:13024   */\n      tag_429\n        /* \"#utility.yul\":13018:13023   */\n      dup3\n        /* \"#utility.yul\":13000:13024   */\n      tag_430\n      jump\t// in\n    tag_429:\n        /* \"#utility.yul\":12989:13024   */\n      swap1\n      pop\n        /* \"#utility.yul\":12934:13030   */\n      swap2\n      swap1\n      pop\n      jump\t// out\n        /* \"#utility.yul\":13036:13140   */\n    tag_315:\n        /* \"#utility.yul\":13081:13088   */\n      0x00\n        /* \"#utility.yul\":13110:13134   */\n      tag_432\n        /* \"#utility.yul\":13128:13133   */\n      dup3\n        /* \"#utility.yul\":13110:13134   */\n      tag_430\n      jump\t// in\n    tag_432:\n        /* \"#utility.yul\":13099:13134   */\n      swap1\n      pop\n        /* \"#utility.yul\":13036:13140   */\n      swap2\n      swap1\n      pop\n      jump\t// out\n        /* \"#utility.yul\":13146:13236   */\n    tag_340:\n        /* \"#utility.yul\":13180:13187   */\n      0x00\n        /* \"#utility.yul\":13223:13228   */\n      dup2\n        /* \"#utility.yul\":13216:13229   */\n      iszero\n        /* \"#utility.yul\":13209:13230   */\n      iszero\n        /* \"#utility.yul\":13198:13230   */\n      swap1\n      pop\n        /* \"#utility.yul\":13146:13236   */\n      swap2\n      swap1\n      pop\n      jump\t// out\n        /* \"#utility.yul\":13242:13368   */\n    tag_430:\n        /* \"#utility.yul\":13279:13286   */\n      0x00\n        /* \"#utility.yul\":13319:13361   */\n      0xffffffffffffffffffffffffffffffffffffffff\n        /* \"#utility.yul\":13312:13317   */\n      dup3\n        /* \"#utility.yul\":13308:13362   */\n      and\n        /* \"#utility.yul\":13297:13362   */\n      swap1\n      pop\n        /* \"#utility.yul\":13242:13368   */\n      swap2\n      swap1\n      pop\n      jump\t// out\n        /* \"#utility.yul\":13374:13451   */\n    tag_383:\n        /* \"#utility.yul\":13411:13418   */\n      0x00\n        /* \"#utility.yul\":13440:13445   */\n      dup2\n        /* \"#utility.yul\":13429:13445   */\n      swap1\n      pop\n        /* \"#utility.yul\":13374:13451   */\n      swap2\n      swap1\n      pop\n      jump\t// out\n        /* \"#utility.yul\":13457:13591   */\n    tag_311:\n        /* \"#utility.yul\":13515:13524   */\n      0x00\n        /* \"#utility.yul\":13548:13585   */\n      tag_437\n        /* \"#utility.yul\":13579:13584   */\n      dup3\n        /* \"#utility.yul\":13548:13585   */\n      tag_438\n      jump\t// in\n    tag_437:\n        /* \"#utility.yul\":13535:13585   */\n      swap1\n      pop\n        /* \"#utility.yul\":13457:13591   */\n      swap2\n      swap1\n      pop\n      jump\t// out\n        /* \"#utility.yul\":13597:13723   */\n    tag_438:\n        /* \"#utility.yul\":13647:13656   */\n      0x00\n        /* \"#utility.yul\":13680:13717   */\n      tag_440\n        /* \"#utility.yul\":13711:13716   */\n      dup3\n        /* \"#utility.yul\":13680:13717   */\n      tag_441\n      jump\t// in\n    tag_440:\n        /* \"#utility.yul\":13667:13717   */\n      swap1\n      pop\n        /* \"#utility.yul\":13597:13723   */\n      swap2\n      swap1\n      pop\n      jump\t// out\n        /* \"#utility.yul\":13729:13842   */\n    tag_441:\n        /* \"#utility.yul\":13779:13788   */\n      0x00\n        /* \"#utility.yul\":13812:13836   */\n      tag_443\n        /* \"#utility.yul\":13830:13835   */\n      dup3\n        /* \"#utility.yul\":13812:13836   */\n      tag_430\n      jump\t// in\n    tag_443:\n        /* \"#utility.yul\":13799:13836   */\n      swap1\n      pop\n        /* \"#utility.yul\":13729:13842   */\n      swap2\n      swap1\n      pop\n      jump\t// out\n        /* \"#utility.yul\":13848:14081   */\n    tag_102:\n        /* \"#utility.yul\":13887:13890   */\n      0x00\n        /* \"#utility.yul\":13910:13934   */\n      tag_445\n        /* \"#utility.yul\":13928:13933   */\n      dup3\n        /* \"#utility.yul\":13910:13934   */\n      tag_383\n      jump\t// in\n    tag_445:\n        /* \"#utility.yul\":13901:13934   */\n      swap2\n      pop\n        /* \"#utility.yul\":13956:14022   */\n      0xffffffffffffffffffffffffffffffffffffffffffffffffffffffffffffffff\n        /* \"#utility.yul\":13949:13954   */\n      dup3\n        /* \"#utility.yul\":13946:14023   */\n      eq\n        /* \"#utility.yul\":13943:14046   */\n      iszero\n      tag_446\n      jumpi\n        /* \"#utility.yul\":14026:14044   */\n      tag_447\n      tag_427\n      jump\t// in\n    tag_447:\n        /* \"#utility.yul\":13943:14046   */\n    tag_446:\n        /* \"#utility.yul\":14073:14074   */\n      0x01\n        /* \"#utility.yul\":14066:14071   */\n      dup3\n        /* \"#utility.yul\":14062:14075   */\n      add\n        /* \"#utility.yul\":14055:14075   */\n      swap1\n      pop\n        /* \"#utility.yul\":13848:14081   */\n      swap2\n      swap1\n      pop\n      jump\t// out\n        /* \"#utility.yul\":14087:14267   */\n    tag_427:\n        /* \"#utility.yul\":14135:14212   */\n      0x4e487b7100000000000000000000000000000000000000000000000000000000\n        /* \"#utility.yul\":14132:14133   */\n      0x00\n        /* \"#utility.yul\":14125:14213   */\n      mstore\n        /* \"#utility.yul\":14232:14236   */\n      0x11\n        /* \"#utility.yul\":14229:14230   */\n      0x04\n        /* \"#utility.yul\":14222:14237   */\n      mstore\n        /* \"#utility.yul\":14256:14260   */\n      0x24\n        /* \"#utility.yul\":14253:14254   */\n      0x00\n        /* \"#utility.yul\":14246:14261   */\n      revert\n        /* \"#utility.yul\":14273:14453   */\n    tag_72:\n        /* \"#utility.yul\":14321:14398   */\n      0x4e487b7100000000000000000000000000000000000000000000000000000000\n        /* \"#utility.yul\":14318:14319   */\n      0x00\n        /* \"#utility.yul\":14311:14399   */\n      mstore\n        /* \"#utility.yul\":14418:14422   */\n      0x32\n        /* \"#utility.yul\":14415:14416   */\n      0x04\n        /* \"#utility.yul\":14408:14423   */\n      mstore\n        /* \"#utility.yul\":14442:14446   */\n      0x24\n        /* \"#utility.yul\":14439:14440   */\n      0x00\n        /* \"#utility.yul\":14432:14447   */\n      revert\n        /* \"#utility.yul\":14459:14639   */\n    tag_106:\n        /* \"#utility.yul\":14507:14584   */\n      0x4e487b7100000000000000000000000000000000000000000000000000000000\n        /* \"#utility.yul\":14504:14505   */\n      0x00\n        /* \"#utility.yul\":14497:14585   */\n      mstore\n        /* \"#utility.yul\":14604:14608   */\n      0x41\n        /* \"#utility.yul\":14601:14602   */\n      0x04\n        /* \"#utility.yul\":14594:14609   */\n      mstore\n        /* \"#utility.yul\":14628:14632   */\n      0x24\n        /* \"#utility.yul\":14625:14626   */\n      0x00\n        /* \"#utility.yul\":14618:14633   */\n      revert\n        /* \"#utility.yul\":14768:14885   */\n    tag_295:\n        /* \"#utility.yul\":14877:14878   */\n      0x00\n        /* \"#utility.yul\":14874:14875   */\n      dup1\n        /* \"#utility.yul\":14867:14879   */\n      revert\n        /* \"#utility.yul\":14891:15068   */\n    tag_346:\n        /* \"#utility.yul\":15031:15060   */\n      0x436f756e7465723a2064656372656d656e74206f766572666c6f770000000000\n        /* \"#utility.yul\":15027:15028   */\n      0x00\n        /* \"#utility.yul\":15019:15025   */\n      dup3\n        /* \"#utility.yul\":15015:15029   */\n      add\n        /* \"#utility.yul\":15008:15061   */\n      mstore\n        /* \"#utility.yul\":14891:15068   */\n      pop\n      jump\t// out\n        /* \"#utility.yul\":15074:15299   */\n    tag_351:\n        /* \"#utility.yul\":15214:15248   */\n      0x4e6f7420656e6f75676820657468657220746f20636f7665722061736b696e67\n        /* \"#utility.yul\":15210:15211   */\n      0x00\n        /* \"#utility.yul\":15202:15208   */\n      dup3\n        /* \"#utility.yul\":15198:15212   */\n      add\n        /* \"#utility.yul\":15191:15249   */\n      mstore\n        /* \"#utility.yul\":15283:15291   */\n      0x2070726963650000000000000000000000000000000000000000000000000000\n        /* \"#utility.yul\":15278:15280   */\n      0x20\n        /* \"#utility.yul\":15270:15276   */\n      dup3\n        /* \"#utility.yul\":15266:15281   */\n      add\n        /* \"#utility.yul\":15259:15292   */\n      mstore\n        /* \"#utility.yul\":15074:15299   */\n      pop\n      jump\t// out\n        /* \"#utility.yul\":15305:15468   */\n    tag_356:\n        /* \"#utility.yul\":15445:15460   */\n      0x4e6674206e6f7420666f756e6400000000000000000000000000000000000000\n        /* \"#utility.yul\":15441:15442   */\n      0x00\n        /* \"#utility.yul\":15433:15439   */\n      dup3\n        /* \"#utility.yul\":15429:15443   */\n      add\n        /* \"#utility.yul\":15422:15461   */\n      mstore\n        /* \"#utility.yul\":15305:15468   */\n      pop\n      jump\t// out\n        /* \"#utility.yul\":15474:15656   */\n    tag_361:\n        /* \"#utility.yul\":15614:15648   */\n      0x4e6f7420656e6f75676820657468657220666f72206c697374696e6720666565\n        /* \"#utility.yul\":15610:15611   */\n      0x00\n        /* \"#utility.yul\":15602:15608   */\n      dup3\n        /* \"#utility.yul\":15598:15612   */\n      add\n        /* \"#utility.yul\":15591:15649   */\n      mstore\n        /* \"#utility.yul\":15474:15656   */\n      pop\n      jump\t// out\n        /* \"#utility.yul\":15662:15843   */\n    tag_366:\n        /* \"#utility.yul\":15802:15835   */\n      0x5265656e7472616e637947756172643a207265656e7472616e742063616c6c00\n        /* \"#utility.yul\":15798:15799   */\n      0x00\n        /* \"#utility.yul\":15790:15796   */\n      dup3\n        /* \"#utility.yul\":15786:15800   */\n      add\n        /* \"#utility.yul\":15779:15836   */\n      mstore\n        /* \"#utility.yul\":15662:15843   */\n      pop\n      jump\t// out\n        /* \"#utility.yul\":15849:16027   */\n    tag_371:\n        /* \"#utility.yul\":15989:16019   */\n      0x5072696365206d757374206265206174206c6561737420312077656900000000\n        /* \"#utility.yul\":15985:15986   */\n      0x00\n        /* \"#utility.yul\":15977:15983   */\n      dup3\n        /* \"#utility.yul\":15973:15987   */\n      add\n        /* \"#utility.yul\":15966:16020   */\n      mstore\n        /* \"#utility.yul\":15849:16027   */\n      pop\n      jump\t// out\n        /* \"#utility.yul\":16033:16155   */\n    tag_287:\n        /* \"#utility.yul\":16106:16130   */\n      tag_461\n        /* \"#utility.yul\":16124:16129   */\n      dup2\n        /* \"#utility.yul\":16106:16130   */\n      tag_319\n      jump\t// in\n    tag_461:\n        /* \"#utility.yul\":16099:16104   */\n      dup2\n        /* \"#utility.yul\":16096:16131   */\n      eq\n        /* \"#utility.yul\":16086:16149   */\n      tag_462\n      jumpi\n        /* \"#utility.yul\":16145:16146   */\n      0x00\n        /* \"#utility.yul\":16142:16143   */\n      dup1\n        /* \"#utility.yul\":16135:16147   */\n      revert\n        /* \"#utility.yul\":16086:16149   */\n    tag_462:\n        /* \"#utility.yul\":16033:16155   */\n      pop\n      jump\t// out\n        /* \"#utility.yul\":16161:16283   */\n    tag_291:\n        /* \"#utility.yul\":16234:16258   */\n      tag_464\n        /* \"#utility.yul\":16252:16257   */\n      dup2\n        /* \"#utility.yul\":16234:16258   */\n      tag_383\n      jump\t// in\n    tag_464:\n        /* \"#utility.yul\":16227:16232   */\n      dup2\n        /* \"#utility.yul\":16224:16259   */\n      eq\n        /* \"#utility.yul\":16214:16277   */\n      tag_465\n      jumpi\n        /* \"#utility.yul\":16273:16274   */\n      0x00\n        /* \"#utility.yul\":16270:16271   */\n      dup1\n        /* \"#utility.yul\":16263:16275   */\n      revert\n        /* \"#utility.yul\":16214:16277   */\n    tag_465:\n        /* \"#utility.yul\":16161:16283   */\n      pop\n      jump\t// out\n\n    auxdata: 0xa264697066735822122064c999ea3677fb03ecf74061d0669b2f6ab9f105397cf7ed0c4745ba83dfb4ef64736f6c63430008070033\n}\n",
				"bytecode": {
					"linkReferences": {},
					"object": "608060405266071afd498d000060035534801561001b57600080fd5b50600160008190555033600460006101000a81548173ffffffffffffffffffffffffffffffffffffffff021916908373ffffffffffffffffffffffffffffffffffffffff16021790555061267d806100746000396000f3fe6080604052600436106100865760003560e01c80638492095a116100595780638492095a146101195780638d6cb3fb14610144578063a46b5c5a1461016f578063ad05f1b41461019a578063b8fe6abe146101b657610086565b8063049356941461008b5780631f4cc4db146100a75780632b86ae38146100d25780634ddf4f8f146100fd575b600080fd5b6100a560048036038101906100a09190611ee0565b6101e1565b005b3480156100b357600080fd5b506100bc61054b565b6040516100c99190612217565b60405180910390f35b3480156100de57600080fd5b506100e7610955565b6040516100f491906122f9565b60405180910390f35b61011760048036038101906101129190611ea0565b61095b565b005b34801561012557600080fd5b5061012e610c56565b60405161013b9190612217565b60405180910390f35b34801561015057600080fd5b50610159610fea565b6040516101669190612217565b60405180910390f35b34801561017b57600080fd5b506101846112ae565b6040516101919190612217565b60405180910390f35b6101b460048036038101906101af9190611ee0565b611642565b005b3480156101c257600080fd5b506101cb611a7a565b6040516101d891906122f9565b60405180910390f35b60026000541415610227576040517f08c379a000000000000000000000000000000000000000000000000000000000815260040161021e906122b9565b60405180910390fd5b600260008190555060008111610272576040517f08c379a0000000000000000000000000000000000000000000000000000000008152600401610269906122d9565b60405180910390fd5b60035434146102b6576040517f08c379a00000000000000000000000000000000000000000000000000000000081526004016102ad90612299565b60405180910390fd5b60006102c28484611a84565b9050809150507fffffffffffffffffffffffffffffffffffffffffffffffffffffffffffffffff81141561032b576040517f08c379a000000000000000000000000000000000000000000000000000000000815260040161032290612279565b60405180910390fd5b8373ffffffffffffffffffffffffffffffffffffffff166323b872dd3330866040518463ffffffff1660e01b8152600401610368939291906121a9565b600060405180830381600087803b15801561038257600080fd5b505af1158015610396573d6000803e3d6000fd5b5050505033600582815481106103af576103ae61249a565b5b906000526020600020906006020160030160006101000a81548173ffffffffffffffffffffffffffffffffffffffff021916908373ffffffffffffffffffffffffffffffffffffffff16021790555030600582815481106104135761041261249a565b5b906000526020600020906006020160040160006101000a81548173ffffffffffffffffffffffffffffffffffffffff021916908373ffffffffffffffffffffffffffffffffffffffff1602179055506001600582815481106104785761047761249a565b5b906000526020600020906006020160050160146101000a81548160ff02191690831515021790555081600582815481106104b5576104b461249a565b5b9060005260206000209060060201600201819055506104d46001611d5f565b3073ffffffffffffffffffffffffffffffffffffffff163373ffffffffffffffffffffffffffffffffffffffff167fa0c6c0d02d86fdacecbaa5fdf5894bab204e31a778250474108540733a9b8d19868686604051610535939291906121e0565b60405180910390a3506001600081905550505050565b606060006105596002611dbb565b90506000805b8281101561063d573373ffffffffffffffffffffffffffffffffffffffff16600582815481106105925761059161249a565b5b906000526020600020906006020160030160009054906101000a900473ffffffffffffffffffffffffffffffffffffffff1673ffffffffffffffffffffffffffffffffffffffff161480156106165750600581815481106105f6576105f561249a565b5b906000526020600020906006020160050160149054906101000a900460ff165b1561062a57818061062690612422565b9250505b808061063590612422565b91505061055f565b5060008167ffffffffffffffff81111561065a576106596124c9565b5b60405190808252806020026020018201604052801561069357816020015b610680611ddf565b8152602001906001900390816106785790505b5090506000805b8481101561094a573373ffffffffffffffffffffffffffffffffffffffff16600582815481106106cd576106cc61249a565b5b906000526020600020906006020160030160009054906101000a900473ffffffffffffffffffffffffffffffffffffffff1673ffffffffffffffffffffffffffffffffffffffff161480156107515750600581815481106107315761073061249a565b5b906000526020600020906006020160050160149054906101000a900460ff165b15610937576005818154811061076a5761076961249a565b5b90600052602060002090600602016040518060e00160405290816000820160009054906101000a900473ffffffffffffffffffffffffffffffffffffffff1673ffffffffffffffffffffffffffffffffffffffff1673ffffffffffffffffffffffffffffffffffffffff16815260200160018201548152602001600282015481526020016003820160009054906101000a900473ffffffffffffffffffffffffffffffffffffffff1673ffffffffffffffffffffffffffffffffffffffff1673ffffffffffffffffffffffffffffffffffffffff1681526020016004820160009054906101000a900473ffffffffffffffffffffffffffffffffffffffff1673ffffffffffffffffffffffffffffffffffffffff1673ffffffffffffffffffffffffffffffffffffffff1681526020016005820160009054906101000a900473ffffffffffffffffffffffffffffffffffffffff1673ffffffffffffffffffffffffffffffffffffffff1673ffffffffffffffffffffffffffffffffffffffff1681526020016005820160149054906101000a900460ff16151515158152505083838151811061091d5761091c61249a565b5b6020026020010181905250818061093390612422565b9250505b808061094290612422565b91505061069a565b508194505050505090565b60035481565b600260005414156109a1576040517f08c379a0000000000000000000000000000000000000000000000000000000008152600401610998906122b9565b60405180910390fd5b60026000819055506109b1611ddf565b60006109bd8484611a84565b80925081935050507fffffffffffffffffffffffffffffffffffffffffffffffffffffffffffffffff811415610a28576040517f08c379a0000000000000000000000000000000000000000000000000000000008152600401610a1f90612279565b60405180910390fd5b8160400151341015610a6f576040517f08c379a0000000000000000000000000000000000000000000000000000000008152600401610a6690612259565b60405180910390fd5b6000339050826060015173ffffffffffffffffffffffffffffffffffffffff166108fc349081150290604051600060405180830381858888f19350505050158015610abe573d6000803e3d6000fd5b508473ffffffffffffffffffffffffffffffffffffffff166323b872dd3083876040518463ffffffff1660e01b8152600401610afc93929190612172565b600060405180830381600087803b158015610b1657600080fd5b505af1158015610b2a573d6000803e3d6000fd5b505050508060058381548110610b4357610b4261249a565b5b906000526020600020906006020160040160006101000a81548173ffffffffffffffffffffffffffffffffffffffff021916908373ffffffffffffffffffffffffffffffffffffffff160217905550600060058381548110610ba857610ba761249a565b5b906000526020600020906006020160050160146101000a81548160ff021916908315150217905550610bda6001611dc9565b8073ffffffffffffffffffffffffffffffffffffffff16836060015173ffffffffffffffffffffffffffffffffffffffff167f16f1dbd97e6bf646d429ed186cce832f1f7fd9907814293b83181e9970ab7bd2878734604051610c3f939291906121e0565b60405180910390a350505060016000819055505050565b60606000610c646002611dbb565b90506000805b82811015610d0d573373ffffffffffffffffffffffffffffffffffffffff1660058281548110610c9d57610c9c61249a565b5b906000526020600020906006020160050160009054906101000a900473ffffffffffffffffffffffffffffffffffffffff1673ffffffffffffffffffffffffffffffffffffffff161415610cfa578180610cf690612422565b9250505b8080610d0590612422565b915050610c6a565b5060008167ffffffffffffffff811115610d2a57610d296124c9565b5b604051908082528060200260200182016040528015610d6357816020015b610d50611ddf565b815260200190600190039081610d485790505b5090506000805b84811015610fdf573373ffffffffffffffffffffffffffffffffffffffff1660058281548110610d9d57610d9c61249a565b5b906000526020600020906006020160050160009054906101000a900473ffffffffffffffffffffffffffffffffffffffff1673ffffffffffffffffffffffffffffffffffffffff161415610fcc5760058181548110610dff57610dfe61249a565b5b90600052602060002090600602016040518060e00160405290816000820160009054906101000a900473ffffffffffffffffffffffffffffffffffffffff1673ffffffffffffffffffffffffffffffffffffffff1673ffffffffffffffffffffffffffffffffffffffff16815260200160018201548152602001600282015481526020016003820160009054906101000a900473ffffffffffffffffffffffffffffffffffffffff1673ffffffffffffffffffffffffffffffffffffffff1673ffffffffffffffffffffffffffffffffffffffff1681526020016004820160009054906101000a900473ffffffffffffffffffffffffffffffffffffffff1673ffffffffffffffffffffffffffffffffffffffff1673ffffffffffffffffffffffffffffffffffffffff1681526020016005820160009054906101000a900473ffffffffffffffffffffffffffffffffffffffff1673ffffffffffffffffffffffffffffffffffffffff1673ffffffffffffffffffffffffffffffffffffffff1681526020016005820160149054906101000a900460ff161515151581525050838381518110610fb257610fb161249a565b5b60200260200101819052508180610fc890612422565b9250505b8080610fd790612422565b915050610d6a565b508194505050505090565b60606000610ff86002611dbb565b905060006110066001611dbb565b82611011919061235e565b905060008167ffffffffffffffff81111561102f5761102e6124c9565b5b60405190808252806020026020018201604052801561106857816020015b611055611ddf565b81526020019060019003908161104d5790505b5090506000805b848110156112a3576005818154811061108b5761108a61249a565b5b906000526020600020906006020160050160149054906101000a900460ff161561129057600581815481106110c3576110c261249a565b5b90600052602060002090600602016040518060e00160405290816000820160009054906101000a900473ffffffffffffffffffffffffffffffffffffffff1673ffffffffffffffffffffffffffffffffffffffff1673ffffffffffffffffffffffffffffffffffffffff16815260200160018201548152602001600282015481526020016003820160009054906101000a900473ffffffffffffffffffffffffffffffffffffffff1673ffffffffffffffffffffffffffffffffffffffff1673ffffffffffffffffffffffffffffffffffffffff1681526020016004820160009054906101000a900473ffffffffffffffffffffffffffffffffffffffff1673ffffffffffffffffffffffffffffffffffffffff1673ffffffffffffffffffffffffffffffffffffffff1681526020016005820160009054906101000a900473ffffffffffffffffffffffffffffffffffffffff1673ffffffffffffffffffffffffffffffffffffffff1673ffffffffffffffffffffffffffffffffffffffff1681526020016005820160149054906101000a900460ff1615151515815250508383815181106112765761127561249a565b5b6020026020010181905250818061128c90612422565b9250505b808061129b90612422565b91505061106f565b508194505050505090565b606060006112bc6002611dbb565b90506000805b82811015611365573373ffffffffffffffffffffffffffffffffffffffff16600582815481106112f5576112f461249a565b5b906000526020600020906006020160040160009054906101000a900473ffffffffffffffffffffffffffffffffffffffff1673ffffffffffffffffffffffffffffffffffffffff16141561135257818061134e90612422565b9250505b808061135d90612422565b9150506112c2565b5060008167ffffffffffffffff811115611382576113816124c9565b5b6040519080825280602002602001820160405280156113bb57816020015b6113a8611ddf565b8152602001906001900390816113a05790505b5090506000805b84811015611637573373ffffffffffffffffffffffffffffffffffffffff16600582815481106113f5576113f461249a565b5b906000526020600020906006020160040160009054906101000a900473ffffffffffffffffffffffffffffffffffffffff1673ffffffffffffffffffffffffffffffffffffffff16141561162457600581815481106114575761145661249a565b5b90600052602060002090600602016040518060e00160405290816000820160009054906101000a900473ffffffffffffffffffffffffffffffffffffffff1673ffffffffffffffffffffffffffffffffffffffff1673ffffffffffffffffffffffffffffffffffffffff16815260200160018201548152602001600282015481526020016003820160009054906101000a900473ffffffffffffffffffffffffffffffffffffffff1673ffffffffffffffffffffffffffffffffffffffff1673ffffffffffffffffffffffffffffffffffffffff1681526020016004820160009054906101000a900473ffffffffffffffffffffffffffffffffffffffff1673ffffffffffffffffffffffffffffffffffffffff1673ffffffffffffffffffffffffffffffffffffffff1681526020016005820160009054906101000a900473ffffffffffffffffffffffffffffffffffffffff1673ffffffffffffffffffffffffffffffffffffffff1673ffffffffffffffffffffffffffffffffffffffff1681526020016005820160149054906101000a900460ff16151515158152505083838151811061160a5761160961249a565b5b6020026020010181905250818061162090612422565b9250505b808061162f90612422565b9150506113c2565b508194505050505090565b60026000541415611688576040517f08c379a000000000000000000000000000000000000000000000000000000000815260040161167f906122b9565b60405180910390fd5b6002600081905550600081116116d3576040517f08c379a00000000000000000000000000000000000000000000000000000000081526004016116ca906122d9565b60405180910390fd5b6003543414611717576040517f08c379a000000000000000000000000000000000000000000000000000000000815260040161170e90612299565b60405180910390fd5b8273ffffffffffffffffffffffffffffffffffffffff166323b872dd3330856040518463ffffffff1660e01b8152600401611754939291906121a9565b600060405180830381600087803b15801561176e57600080fd5b505af1158015611782573d6000803e3d6000fd5b5050505060056040518060e001604052808573ffffffffffffffffffffffffffffffffffffffff1681526020018481526020018381526020013373ffffffffffffffffffffffffffffffffffffffff1681526020013073ffffffffffffffffffffffffffffffffffffffff1681526020013373ffffffffffffffffffffffffffffffffffffffff16815260200160011515815250908060018154018082558091505060019003906000526020600020906006020160009091909190915060008201518160000160006101000a81548173ffffffffffffffffffffffffffffffffffffffff021916908373ffffffffffffffffffffffffffffffffffffffff160217905550602082015181600101556040820151816002015560608201518160030160006101000a81548173ffffffffffffffffffffffffffffffffffffffff021916908373ffffffffffffffffffffffffffffffffffffffff16021790555060808201518160040160006101000a81548173ffffffffffffffffffffffffffffffffffffffff021916908373ffffffffffffffffffffffffffffffffffffffff16021790555060a08201518160050160006101000a81548173ffffffffffffffffffffffffffffffffffffffff021916908373ffffffffffffffffffffffffffffffffffffffff16021790555060c08201518160050160146101000a81548160ff021916908315150217905550505061199b6002611dc9565b600460009054906101000a900473ffffffffffffffffffffffffffffffffffffffff1673ffffffffffffffffffffffffffffffffffffffff166108fc349081150290604051600060405180830381858888f19350505050158015611a03573d6000803e3d6000fd5b503073ffffffffffffffffffffffffffffffffffffffff163373ffffffffffffffffffffffffffffffffffffffff167fa0c6c0d02d86fdacecbaa5fdf5894bab204e31a778250474108540733a9b8d19858585604051611a65939291906121e0565b60405180910390a36001600081905550505050565b6000600354905090565b611a8c611ddf565b6000611a96611ddf565b60007fffffffffffffffffffffffffffffffffffffffffffffffffffffffffffffffff90506000611ac76002611dbb565b905060005b81811015611d4e578773ffffffffffffffffffffffffffffffffffffffff1660058281548110611aff57611afe61249a565b5b906000526020600020906006020160000160009054906101000a900473ffffffffffffffffffffffffffffffffffffffff1673ffffffffffffffffffffffffffffffffffffffff16148015611b7857508660058281548110611b6457611b6361249a565b5b906000526020600020906006020160010154145b15611d3b5760058181548110611b9157611b9061249a565b5b90600052602060002090600602016040518060e00160405290816000820160009054906101000a900473ffffffffffffffffffffffffffffffffffffffff1673ffffffffffffffffffffffffffffffffffffffff1673ffffffffffffffffffffffffffffffffffffffff16815260200160018201548152602001600282015481526020016003820160009054906101000a900473ffffffffffffffffffffffffffffffffffffffff1673ffffffffffffffffffffffffffffffffffffffff1673ffffffffffffffffffffffffffffffffffffffff1681526020016004820160009054906101000a900473ffffffffffffffffffffffffffffffffffffffff1673ffffffffffffffffffffffffffffffffffffffff1673ffffffffffffffffffffffffffffffffffffffff1681526020016005820160009054906101000a900473ffffffffffffffffffffffffffffffffffffffff1673ffffffffffffffffffffffffffffffffffffffff1673ffffffffffffffffffffffffffffffffffffffff1681526020016005820160149054906101000a900460ff1615151515815250509350809250611d4e565b8080611d4690612422565b915050611acc565b508282945094505050509250929050565b60008160000154905060008111611dab576040517f08c379a0000000000000000000000000000000000000000000000000000000008152600401611da290612239565b60405180910390fd5b6001810382600001819055505050565b600081600001549050919050565b6001816000016000828254019250508190555050565b6040518060e00160405280600073ffffffffffffffffffffffffffffffffffffffff1681526020016000815260200160008152602001600073ffffffffffffffffffffffffffffffffffffffff168152602001600073ffffffffffffffffffffffffffffffffffffffff168152602001600073ffffffffffffffffffffffffffffffffffffffff1681526020016000151581525090565b600081359050611e8581612619565b92915050565b600081359050611e9a81612630565b92915050565b60008060408385031215611eb757611eb66124f8565b5b6000611ec585828601611e76565b9250506020611ed685828601611e8b565b9150509250929050565b600080600060608486031215611ef957611ef86124f8565b5b6000611f0786828701611e76565b9350506020611f1886828701611e8b565b9250506040611f2986828701611e8b565b9150509250925092565b6000611f3f83836120c6565b60e08301905092915050565b611f54816123ec565b82525050565b611f63816123a4565b82525050565b611f7281612392565b82525050565b611f8181612392565b82525050565b6000611f9282612324565b611f9c818561233c565b9350611fa783612314565b8060005b83811015611fd8578151611fbf8882611f33565b9750611fca8361232f565b925050600181019050611fab565b5085935050505092915050565b611fee816123b6565b82525050565b6000612001601b8361234d565b915061200c826124fd565b602082019050919050565b600061202460268361234d565b915061202f82612526565b604082019050919050565b6000612047600d8361234d565b915061205282612575565b602082019050919050565b600061206a60208361234d565b91506120758261259e565b602082019050919050565b600061208d601f8361234d565b9150612098826125c7565b602082019050919050565b60006120b0601c8361234d565b91506120bb826125f0565b602082019050919050565b60e0820160008201516120dc6000850182611f69565b5060208201516120ef6020850182612154565b5060408201516121026040850182612154565b5060608201516121156060850182611f5a565b5060808201516121286080850182611f5a565b5060a082015161213b60a0850182611f5a565b5060c082015161214e60c0850182611fe5565b50505050565b61215d816123e2565b82525050565b61216c816123e2565b82525050565b60006060820190506121876000830186611f78565b6121946020830185611f4b565b6121a16040830184612163565b949350505050565b60006060820190506121be6000830186611f78565b6121cb6020830185611f78565b6121d86040830184612163565b949350505050565b60006060820190506121f56000830186611f78565b6122026020830185612163565b61220f6040830184612163565b949350505050565b600060208201905081810360008301526122318184611f87565b905092915050565b6000602082019050818103600083015261225281611ff4565b9050919050565b6000602082019050818103600083015261227281612017565b9050919050565b600060208201905081810360008301526122928161203a565b9050919050565b600060208201905081810360008301526122b28161205d565b9050919050565b600060208201905081810360008301526122d281612080565b9050919050565b600060208201905081810360008301526122f2816120a3565b9050919050565b600060208201905061230e6000830184612163565b92915050565b6000819050602082019050919050565b600081519050919050565b6000602082019050919050565b600082825260208201905092915050565b600082825260208201905092915050565b6000612369826123e2565b9150612374836123e2565b9250828210156123875761238661246b565b5b828203905092915050565b600061239d826123c2565b9050919050565b60006123af826123c2565b9050919050565b60008115159050919050565b600073ffffffffffffffffffffffffffffffffffffffff82169050919050565b6000819050919050565b60006123f7826123fe565b9050919050565b600061240982612410565b9050919050565b600061241b826123c2565b9050919050565b600061242d826123e2565b91507fffffffffffffffffffffffffffffffffffffffffffffffffffffffffffffffff8214156124605761245f61246b565b5b600182019050919050565b7f4e487b7100000000000000000000000000000000000000000000000000000000600052601160045260246000fd5b7f4e487b7100000000000000000000000000000000000000000000000000000000600052603260045260246000fd5b7f4e487b7100000000000000000000000000000000000000000000000000000000600052604160045260246000fd5b600080fd5b7f436f756e7465723a2064656372656d656e74206f766572666c6f770000000000600082015250565b7f4e6f7420656e6f75676820657468657220746f20636f7665722061736b696e6760008201527f2070726963650000000000000000000000000000000000000000000000000000602082015250565b7f4e6674206e6f7420666f756e6400000000000000000000000000000000000000600082015250565b7f4e6f7420656e6f75676820657468657220666f72206c697374696e6720666565600082015250565b7f5265656e7472616e637947756172643a207265656e7472616e742063616c6c00600082015250565b7f5072696365206d757374206265206174206c6561737420312077656900000000600082015250565b61262281612392565b811461262d57600080fd5b50565b612639816123e2565b811461264457600080fd5b5056fea264697066735822122064c999ea3677fb03ecf74061d0669b2f6ab9f105397cf7ed0c4745ba83dfb4ef64736f6c63430008070033",
					"opcodes": "PUSH1 0x80 PUSH1 0x40 MSTORE PUSH7 0x71AFD498D0000 PUSH1 0x3 SSTORE CALLVALUE DUP1 ISZERO PUSH2 0x1B JUMPI PUSH1 0x0 DUP1 REVERT JUMPDEST POP PUSH1 0x1 PUSH1 0x0 DUP2 SWAP1 SSTORE POP CALLER PUSH1 0x4 PUSH1 0x0 PUSH2 0x100 EXP DUP2 SLOAD DUP2 PUSH20 0xFFFFFFFFFFFFFFFFFFFFFFFFFFFFFFFFFFFFFFFF MUL NOT AND SWAP1 DUP4 PUSH20 0xFFFFFFFFFFFFFFFFFFFFFFFFFFFFFFFFFFFFFFFF AND MUL OR SWAP1 SSTORE POP PUSH2 0x267D DUP1 PUSH2 0x74 PUSH1 0x0 CODECOPY PUSH1 0x0 RETURN INVALID PUSH1 0x80 PUSH1 0x40 MSTORE PUSH1 0x4 CALLDATASIZE LT PUSH2 0x86 JUMPI PUSH1 0x0 CALLDATALOAD PUSH1 0xE0 SHR DUP1 PUSH4 0x8492095A GT PUSH2 0x59 JUMPI DUP1 PUSH4 0x8492095A EQ PUSH2 0x119 JUMPI DUP1 PUSH4 0x8D6CB3FB EQ PUSH2 0x144 JUMPI DUP1 PUSH4 0xA46B5C5A EQ PUSH2 0x16F JUMPI DUP1 PUSH4 0xAD05F1B4 EQ PUSH2 0x19A JUMPI DUP1 PUSH4 0xB8FE6ABE EQ PUSH2 0x1B6 JUMPI PUSH2 0x86 JUMP JUMPDEST DUP1 PUSH4 0x4935694 EQ PUSH2 0x8B JUMPI DUP1 PUSH4 0x1F4CC4DB EQ PUSH2 0xA7 JUMPI DUP1 PUSH4 0x2B86AE38 EQ PUSH2 0xD2 JUMPI DUP1 PUSH4 0x4DDF4F8F EQ PUSH2 0xFD JUMPI JUMPDEST PUSH1 0x0 DUP1 REVERT JUMPDEST PUSH2 0xA5 PUSH1 0x4 DUP1 CALLDATASIZE SUB DUP2 ADD SWAP1 PUSH2 0xA0 SWAP2 SWAP1 PUSH2 0x1EE0 JUMP JUMPDEST PUSH2 0x1E1 JUMP JUMPDEST STOP JUMPDEST CALLVALUE DUP1 ISZERO PUSH2 0xB3 JUMPI PUSH1 0x0 DUP1 REVERT JUMPDEST POP PUSH2 0xBC PUSH2 0x54B JUMP JUMPDEST PUSH1 0x40 MLOAD PUSH2 0xC9 SWAP2 SWAP1 PUSH2 0x2217 JUMP JUMPDEST PUSH1 0x40 MLOAD DUP1 SWAP2 SUB SWAP1 RETURN JUMPDEST CALLVALUE DUP1 ISZERO PUSH2 0xDE JUMPI PUSH1 0x0 DUP1 REVERT JUMPDEST POP PUSH2 0xE7 PUSH2 0x955 JUMP JUMPDEST PUSH1 0x40 MLOAD PUSH2 0xF4 SWAP2 SWAP1 PUSH2 0x22F9 JUMP JUMPDEST PUSH1 0x40 MLOAD DUP1 SWAP2 SUB SWAP1 RETURN JUMPDEST PUSH2 0x117 PUSH1 0x4 DUP1 CALLDATASIZE SUB DUP2 ADD SWAP1 PUSH2 0x112 SWAP2 SWAP1 PUSH2 0x1EA0 JUMP JUMPDEST PUSH2 0x95B JUMP JUMPDEST STOP JUMPDEST CALLVALUE DUP1 ISZERO PUSH2 0x125 JUMPI PUSH1 0x0 DUP1 REVERT JUMPDEST POP PUSH2 0x12E PUSH2 0xC56 JUMP JUMPDEST PUSH1 0x40 MLOAD PUSH2 0x13B SWAP2 SWAP1 PUSH2 0x2217 JUMP JUMPDEST PUSH1 0x40 MLOAD DUP1 SWAP2 SUB SWAP1 RETURN JUMPDEST CALLVALUE DUP1 ISZERO PUSH2 0x150 JUMPI PUSH1 0x0 DUP1 REVERT JUMPDEST POP PUSH2 0x159 PUSH2 0xFEA JUMP JUMPDEST PUSH1 0x40 MLOAD PUSH2 0x166 SWAP2 SWAP1 PUSH2 0x2217 JUMP JUMPDEST PUSH1 0x40 MLOAD DUP1 SWAP2 SUB SWAP1 RETURN JUMPDEST CALLVALUE DUP1 ISZERO PUSH2 0x17B JUMPI PUSH1 0x0 DUP1 REVERT JUMPDEST POP PUSH2 0x184 PUSH2 0x12AE JUMP JUMPDEST PUSH1 0x40 MLOAD PUSH2 0x191 SWAP2 SWAP1 PUSH2 0x2217 JUMP JUMPDEST PUSH1 0x40 MLOAD DUP1 SWAP2 SUB SWAP1 RETURN JUMPDEST PUSH2 0x1B4 PUSH1 0x4 DUP1 CALLDATASIZE SUB DUP2 ADD SWAP1 PUSH2 0x1AF SWAP2 SWAP1 PUSH2 0x1EE0 JUMP JUMPDEST PUSH2 0x1642 JUMP JUMPDEST STOP JUMPDEST CALLVALUE DUP1 ISZERO PUSH2 0x1C2 JUMPI PUSH1 0x0 DUP1 REVERT JUMPDEST POP PUSH2 0x1CB PUSH2 0x1A7A JUMP JUMPDEST PUSH1 0x40 MLOAD PUSH2 0x1D8 SWAP2 SWAP1 PUSH2 0x22F9 JUMP JUMPDEST PUSH1 0x40 MLOAD DUP1 SWAP2 SUB SWAP1 RETURN JUMPDEST PUSH1 0x2 PUSH1 0x0 SLOAD EQ ISZERO PUSH2 0x227 JUMPI PUSH1 0x40 MLOAD PUSH32 0x8C379A000000000000000000000000000000000000000000000000000000000 DUP2 MSTORE PUSH1 0x4 ADD PUSH2 0x21E SWAP1 PUSH2 0x22B9 JUMP JUMPDEST PUSH1 0x40 MLOAD DUP1 SWAP2 SUB SWAP1 REVERT JUMPDEST PUSH1 0x2 PUSH1 0x0 DUP2 SWAP1 SSTORE POP PUSH1 0x0 DUP2 GT PUSH2 0x272 JUMPI PUSH1 0x40 MLOAD PUSH32 0x8C379A000000000000000000000000000000000000000000000000000000000 DUP2 MSTORE PUSH1 0x4 ADD PUSH2 0x269 SWAP1 PUSH2 0x22D9 JUMP JUMPDEST PUSH1 0x40 MLOAD DUP1 SWAP2 SUB SWAP1 REVERT JUMPDEST PUSH1 0x3 SLOAD CALLVALUE EQ PUSH2 0x2B6 JUMPI PUSH1 0x40 MLOAD PUSH32 0x8C379A000000000000000000000000000000000000000000000000000000000 DUP2 MSTORE PUSH1 0x4 ADD PUSH2 0x2AD SWAP1 PUSH2 0x2299 JUMP JUMPDEST PUSH1 0x40 MLOAD DUP1 SWAP2 SUB SWAP1 REVERT JUMPDEST PUSH1 0x0 PUSH2 0x2C2 DUP5 DUP5 PUSH2 0x1A84 JUMP JUMPDEST SWAP1 POP DUP1 SWAP2 POP POP PUSH32 0xFFFFFFFFFFFFFFFFFFFFFFFFFFFFFFFFFFFFFFFFFFFFFFFFFFFFFFFFFFFFFFFF DUP2 EQ ISZERO PUSH2 0x32B JUMPI PUSH1 0x40 MLOAD PUSH32 0x8C379A000000000000000000000000000000000000000000000000000000000 DUP2 MSTORE PUSH1 0x4 ADD PUSH2 0x322 SWAP1 PUSH2 0x2279 JUMP JUMPDEST PUSH1 0x40 MLOAD DUP1 SWAP2 SUB SWAP1 REVERT JUMPDEST DUP4 PUSH20 0xFFFFFFFFFFFFFFFFFFFFFFFFFFFFFFFFFFFFFFFF AND PUSH4 0x23B872DD CALLER ADDRESS DUP7 PUSH1 0x40 MLOAD DUP5 PUSH4 0xFFFFFFFF AND PUSH1 0xE0 SHL DUP2 MSTORE PUSH1 0x4 ADD PUSH2 0x368 SWAP4 SWAP3 SWAP2 SWAP1 PUSH2 0x21A9 JUMP JUMPDEST PUSH1 0x0 PUSH1 0x40 MLOAD DUP1 DUP4 SUB DUP2 PUSH1 0x0 DUP8 DUP1 EXTCODESIZE ISZERO DUP1 ISZERO PUSH2 0x382 JUMPI PUSH1 0x0 DUP1 REVERT JUMPDEST POP GAS CALL ISZERO DUP1 ISZERO PUSH2 0x396 JUMPI RETURNDATASIZE PUSH1 0x0 DUP1 RETURNDATACOPY RETURNDATASIZE PUSH1 0x0 REVERT JUMPDEST POP POP POP POP CALLER PUSH1 0x5 DUP3 DUP2 SLOAD DUP2 LT PUSH2 0x3AF JUMPI PUSH2 0x3AE PUSH2 0x249A JUMP JUMPDEST JUMPDEST SWAP1 PUSH1 0x0 MSTORE PUSH1 0x20 PUSH1 0x0 KECCAK256 SWAP1 PUSH1 0x6 MUL ADD PUSH1 0x3 ADD PUSH1 0x0 PUSH2 0x100 EXP DUP2 SLOAD DUP2 PUSH20 0xFFFFFFFFFFFFFFFFFFFFFFFFFFFFFFFFFFFFFFFF MUL NOT AND SWAP1 DUP4 PUSH20 0xFFFFFFFFFFFFFFFFFFFFFFFFFFFFFFFFFFFFFFFF AND MUL OR SWAP1 SSTORE POP ADDRESS PUSH1 0x5 DUP3 DUP2 SLOAD DUP2 LT PUSH2 0x413 JUMPI PUSH2 0x412 PUSH2 0x249A JUMP JUMPDEST JUMPDEST SWAP1 PUSH1 0x0 MSTORE PUSH1 0x20 PUSH1 0x0 KECCAK256 SWAP1 PUSH1 0x6 MUL ADD PUSH1 0x4 ADD PUSH1 0x0 PUSH2 0x100 EXP DUP2 SLOAD DUP2 PUSH20 0xFFFFFFFFFFFFFFFFFFFFFFFFFFFFFFFFFFFFFFFF MUL NOT AND SWAP1 DUP4 PUSH20 0xFFFFFFFFFFFFFFFFFFFFFFFFFFFFFFFFFFFFFFFF AND MUL OR SWAP1 SSTORE POP PUSH1 0x1 PUSH1 0x5 DUP3 DUP2 SLOAD DUP2 LT PUSH2 0x478 JUMPI PUSH2 0x477 PUSH2 0x249A JUMP JUMPDEST JUMPDEST SWAP1 PUSH1 0x0 MSTORE PUSH1 0x20 PUSH1 0x0 KECCAK256 SWAP1 PUSH1 0x6 MUL ADD PUSH1 0x5 ADD PUSH1 0x14 PUSH2 0x100 EXP DUP2 SLOAD DUP2 PUSH1 0xFF MUL NOT AND SWAP1 DUP4 ISZERO ISZERO MUL OR SWAP1 SSTORE POP DUP2 PUSH1 0x5 DUP3 DUP2 SLOAD DUP2 LT PUSH2 0x4B5 JUMPI PUSH2 0x4B4 PUSH2 0x249A JUMP JUMPDEST JUMPDEST SWAP1 PUSH1 0x0 MSTORE PUSH1 0x20 PUSH1 0x0 KECCAK256 SWAP1 PUSH1 0x6 MUL ADD PUSH1 0x2 ADD DUP2 SWAP1 SSTORE POP PUSH2 0x4D4 PUSH1 0x1 PUSH2 0x1D5F JUMP JUMPDEST ADDRESS PUSH20 0xFFFFFFFFFFFFFFFFFFFFFFFFFFFFFFFFFFFFFFFF AND CALLER PUSH20 0xFFFFFFFFFFFFFFFFFFFFFFFFFFFFFFFFFFFFFFFF AND PUSH32 0xA0C6C0D02D86FDACECBAA5FDF5894BAB204E31A778250474108540733A9B8D19 DUP7 DUP7 DUP7 PUSH1 0x40 MLOAD PUSH2 0x535 SWAP4 SWAP3 SWAP2 SWAP1 PUSH2 0x21E0 JUMP JUMPDEST PUSH1 0x40 MLOAD DUP1 SWAP2 SUB SWAP1 LOG3 POP PUSH1 0x1 PUSH1 0x0 DUP2 SWAP1 SSTORE POP POP POP POP JUMP JUMPDEST PUSH1 0x60 PUSH1 0x0 PUSH2 0x559 PUSH1 0x2 PUSH2 0x1DBB JUMP JUMPDEST SWAP1 POP PUSH1 0x0 DUP1 JUMPDEST DUP3 DUP2 LT ISZERO PUSH2 0x63D JUMPI CALLER PUSH20 0xFFFFFFFFFFFFFFFFFFFFFFFFFFFFFFFFFFFFFFFF AND PUSH1 0x5 DUP3 DUP2 SLOAD DUP2 LT PUSH2 0x592 JUMPI PUSH2 0x591 PUSH2 0x249A JUMP JUMPDEST JUMPDEST SWAP1 PUSH1 0x0 MSTORE PUSH1 0x20 PUSH1 0x0 KECCAK256 SWAP1 PUSH1 0x6 MUL ADD PUSH1 0x3 ADD PUSH1 0x0 SWAP1 SLOAD SWAP1 PUSH2 0x100 EXP SWAP1 DIV PUSH20 0xFFFFFFFFFFFFFFFFFFFFFFFFFFFFFFFFFFFFFFFF AND PUSH20 0xFFFFFFFFFFFFFFFFFFFFFFFFFFFFFFFFFFFFFFFF AND EQ DUP1 ISZERO PUSH2 0x616 JUMPI POP PUSH1 0x5 DUP2 DUP2 SLOAD DUP2 LT PUSH2 0x5F6 JUMPI PUSH2 0x5F5 PUSH2 0x249A JUMP JUMPDEST JUMPDEST SWAP1 PUSH1 0x0 MSTORE PUSH1 0x20 PUSH1 0x0 KECCAK256 SWAP1 PUSH1 0x6 MUL ADD PUSH1 0x5 ADD PUSH1 0x14 SWAP1 SLOAD SWAP1 PUSH2 0x100 EXP SWAP1 DIV PUSH1 0xFF AND JUMPDEST ISZERO PUSH2 0x62A JUMPI DUP2 DUP1 PUSH2 0x626 SWAP1 PUSH2 0x2422 JUMP JUMPDEST SWAP3 POP POP JUMPDEST DUP1 DUP1 PUSH2 0x635 SWAP1 PUSH2 0x2422 JUMP JUMPDEST SWAP2 POP POP PUSH2 0x55F JUMP JUMPDEST POP PUSH1 0x0 DUP2 PUSH8 0xFFFFFFFFFFFFFFFF DUP2 GT ISZERO PUSH2 0x65A JUMPI PUSH2 0x659 PUSH2 0x24C9 JUMP JUMPDEST JUMPDEST PUSH1 0x40 MLOAD SWAP1 DUP1 DUP3 MSTORE DUP1 PUSH1 0x20 MUL PUSH1 0x20 ADD DUP3 ADD PUSH1 0x40 MSTORE DUP1 ISZERO PUSH2 0x693 JUMPI DUP2 PUSH1 0x20 ADD JUMPDEST PUSH2 0x680 PUSH2 0x1DDF JUMP JUMPDEST DUP2 MSTORE PUSH1 0x20 ADD SWAP1 PUSH1 0x1 SWAP1 SUB SWAP1 DUP2 PUSH2 0x678 JUMPI SWAP1 POP JUMPDEST POP SWAP1 POP PUSH1 0x0 DUP1 JUMPDEST DUP5 DUP2 LT ISZERO PUSH2 0x94A JUMPI CALLER PUSH20 0xFFFFFFFFFFFFFFFFFFFFFFFFFFFFFFFFFFFFFFFF AND PUSH1 0x5 DUP3 DUP2 SLOAD DUP2 LT PUSH2 0x6CD JUMPI PUSH2 0x6CC PUSH2 0x249A JUMP JUMPDEST JUMPDEST SWAP1 PUSH1 0x0 MSTORE PUSH1 0x20 PUSH1 0x0 KECCAK256 SWAP1 PUSH1 0x6 MUL ADD PUSH1 0x3 ADD PUSH1 0x0 SWAP1 SLOAD SWAP1 PUSH2 0x100 EXP SWAP1 DIV PUSH20 0xFFFFFFFFFFFFFFFFFFFFFFFFFFFFFFFFFFFFFFFF AND PUSH20 0xFFFFFFFFFFFFFFFFFFFFFFFFFFFFFFFFFFFFFFFF AND EQ DUP1 ISZERO PUSH2 0x751 JUMPI POP PUSH1 0x5 DUP2 DUP2 SLOAD DUP2 LT PUSH2 0x731 JUMPI PUSH2 0x730 PUSH2 0x249A JUMP JUMPDEST JUMPDEST SWAP1 PUSH1 0x0 MSTORE PUSH1 0x20 PUSH1 0x0 KECCAK256 SWAP1 PUSH1 0x6 MUL ADD PUSH1 0x5 ADD PUSH1 0x14 SWAP1 SLOAD SWAP1 PUSH2 0x100 EXP SWAP1 DIV PUSH1 0xFF AND JUMPDEST ISZERO PUSH2 0x937 JUMPI PUSH1 0x5 DUP2 DUP2 SLOAD DUP2 LT PUSH2 0x76A JUMPI PUSH2 0x769 PUSH2 0x249A JUMP JUMPDEST JUMPDEST SWAP1 PUSH1 0x0 MSTORE PUSH1 0x20 PUSH1 0x0 KECCAK256 SWAP1 PUSH1 0x6 MUL ADD PUSH1 0x40 MLOAD DUP1 PUSH1 0xE0 ADD PUSH1 0x40 MSTORE SWAP1 DUP2 PUSH1 0x0 DUP3 ADD PUSH1 0x0 SWAP1 SLOAD SWAP1 PUSH2 0x100 EXP SWAP1 DIV PUSH20 0xFFFFFFFFFFFFFFFFFFFFFFFFFFFFFFFFFFFFFFFF AND PUSH20 0xFFFFFFFFFFFFFFFFFFFFFFFFFFFFFFFFFFFFFFFF AND PUSH20 0xFFFFFFFFFFFFFFFFFFFFFFFFFFFFFFFFFFFFFFFF AND DUP2 MSTORE PUSH1 0x20 ADD PUSH1 0x1 DUP3 ADD SLOAD DUP2 MSTORE PUSH1 0x20 ADD PUSH1 0x2 DUP3 ADD SLOAD DUP2 MSTORE PUSH1 0x20 ADD PUSH1 0x3 DUP3 ADD PUSH1 0x0 SWAP1 SLOAD SWAP1 PUSH2 0x100 EXP SWAP1 DIV PUSH20 0xFFFFFFFFFFFFFFFFFFFFFFFFFFFFFFFFFFFFFFFF AND PUSH20 0xFFFFFFFFFFFFFFFFFFFFFFFFFFFFFFFFFFFFFFFF AND PUSH20 0xFFFFFFFFFFFFFFFFFFFFFFFFFFFFFFFFFFFFFFFF AND DUP2 MSTORE PUSH1 0x20 ADD PUSH1 0x4 DUP3 ADD PUSH1 0x0 SWAP1 SLOAD SWAP1 PUSH2 0x100 EXP SWAP1 DIV PUSH20 0xFFFFFFFFFFFFFFFFFFFFFFFFFFFFFFFFFFFFFFFF AND PUSH20 0xFFFFFFFFFFFFFFFFFFFFFFFFFFFFFFFFFFFFFFFF AND PUSH20 0xFFFFFFFFFFFFFFFFFFFFFFFFFFFFFFFFFFFFFFFF AND DUP2 MSTORE PUSH1 0x20 ADD PUSH1 0x5 DUP3 ADD PUSH1 0x0 SWAP1 SLOAD SWAP1 PUSH2 0x100 EXP SWAP1 DIV PUSH20 0xFFFFFFFFFFFFFFFFFFFFFFFFFFFFFFFFFFFFFFFF AND PUSH20 0xFFFFFFFFFFFFFFFFFFFFFFFFFFFFFFFFFFFFFFFF AND PUSH20 0xFFFFFFFFFFFFFFFFFFFFFFFFFFFFFFFFFFFFFFFF AND DUP2 MSTORE PUSH1 0x20 ADD PUSH1 0x5 DUP3 ADD PUSH1 0x14 SWAP1 SLOAD SWAP1 PUSH2 0x100 EXP SWAP1 DIV PUSH1 0xFF AND ISZERO ISZERO ISZERO ISZERO DUP2 MSTORE POP POP DUP4 DUP4 DUP2 MLOAD DUP2 LT PUSH2 0x91D JUMPI PUSH2 0x91C PUSH2 0x249A JUMP JUMPDEST JUMPDEST PUSH1 0x20 MUL PUSH1 0x20 ADD ADD DUP2 SWAP1 MSTORE POP DUP2 DUP1 PUSH2 0x933 SWAP1 PUSH2 0x2422 JUMP JUMPDEST SWAP3 POP POP JUMPDEST DUP1 DUP1 PUSH2 0x942 SWAP1 PUSH2 0x2422 JUMP JUMPDEST SWAP2 POP POP PUSH2 0x69A JUMP JUMPDEST POP DUP2 SWAP5 POP POP POP POP POP SWAP1 JUMP JUMPDEST PUSH1 0x3 SLOAD DUP2 JUMP JUMPDEST PUSH1 0x2 PUSH1 0x0 SLOAD EQ ISZERO PUSH2 0x9A1 JUMPI PUSH1 0x40 MLOAD PUSH32 0x8C379A000000000000000000000000000000000000000000000000000000000 DUP2 MSTORE PUSH1 0x4 ADD PUSH2 0x998 SWAP1 PUSH2 0x22B9 JUMP JUMPDEST PUSH1 0x40 MLOAD DUP1 SWAP2 SUB SWAP1 REVERT JUMPDEST PUSH1 0x2 PUSH1 0x0 DUP2 SWAP1 SSTORE POP PUSH2 0x9B1 PUSH2 0x1DDF JUMP JUMPDEST PUSH1 0x0 PUSH2 0x9BD DUP5 DUP5 PUSH2 0x1A84 JUMP JUMPDEST DUP1 SWAP3 POP DUP2 SWAP4 POP POP POP PUSH32 0xFFFFFFFFFFFFFFFFFFFFFFFFFFFFFFFFFFFFFFFFFFFFFFFFFFFFFFFFFFFFFFFF DUP2 EQ ISZERO PUSH2 0xA28 JUMPI PUSH1 0x40 MLOAD PUSH32 0x8C379A000000000000000000000000000000000000000000000000000000000 DUP2 MSTORE PUSH1 0x4 ADD PUSH2 0xA1F SWAP1 PUSH2 0x2279 JUMP JUMPDEST PUSH1 0x40 MLOAD DUP1 SWAP2 SUB SWAP1 REVERT JUMPDEST DUP2 PUSH1 0x40 ADD MLOAD CALLVALUE LT ISZERO PUSH2 0xA6F JUMPI PUSH1 0x40 MLOAD PUSH32 0x8C379A000000000000000000000000000000000000000000000000000000000 DUP2 MSTORE PUSH1 0x4 ADD PUSH2 0xA66 SWAP1 PUSH2 0x2259 JUMP JUMPDEST PUSH1 0x40 MLOAD DUP1 SWAP2 SUB SWAP1 REVERT JUMPDEST PUSH1 0x0 CALLER SWAP1 POP DUP3 PUSH1 0x60 ADD MLOAD PUSH20 0xFFFFFFFFFFFFFFFFFFFFFFFFFFFFFFFFFFFFFFFF AND PUSH2 0x8FC CALLVALUE SWAP1 DUP2 ISZERO MUL SWAP1 PUSH1 0x40 MLOAD PUSH1 0x0 PUSH1 0x40 MLOAD DUP1 DUP4 SUB DUP2 DUP6 DUP9 DUP9 CALL SWAP4 POP POP POP POP ISZERO DUP1 ISZERO PUSH2 0xABE JUMPI RETURNDATASIZE PUSH1 0x0 DUP1 RETURNDATACOPY RETURNDATASIZE PUSH1 0x0 REVERT JUMPDEST POP DUP5 PUSH20 0xFFFFFFFFFFFFFFFFFFFFFFFFFFFFFFFFFFFFFFFF AND PUSH4 0x23B872DD ADDRESS DUP4 DUP8 PUSH1 0x40 MLOAD DUP5 PUSH4 0xFFFFFFFF AND PUSH1 0xE0 SHL DUP2 MSTORE PUSH1 0x4 ADD PUSH2 0xAFC SWAP4 SWAP3 SWAP2 SWAP1 PUSH2 0x2172 JUMP JUMPDEST PUSH1 0x0 PUSH1 0x40 MLOAD DUP1 DUP4 SUB DUP2 PUSH1 0x0 DUP8 DUP1 EXTCODESIZE ISZERO DUP1 ISZERO PUSH2 0xB16 JUMPI PUSH1 0x0 DUP1 REVERT JUMPDEST POP GAS CALL ISZERO DUP1 ISZERO PUSH2 0xB2A JUMPI RETURNDATASIZE PUSH1 0x0 DUP1 RETURNDATACOPY RETURNDATASIZE PUSH1 0x0 REVERT JUMPDEST POP POP POP POP DUP1 PUSH1 0x5 DUP4 DUP2 SLOAD DUP2 LT PUSH2 0xB43 JUMPI PUSH2 0xB42 PUSH2 0x249A JUMP JUMPDEST JUMPDEST SWAP1 PUSH1 0x0 MSTORE PUSH1 0x20 PUSH1 0x0 KECCAK256 SWAP1 PUSH1 0x6 MUL ADD PUSH1 0x4 ADD PUSH1 0x0 PUSH2 0x100 EXP DUP2 SLOAD DUP2 PUSH20 0xFFFFFFFFFFFFFFFFFFFFFFFFFFFFFFFFFFFFFFFF MUL NOT AND SWAP1 DUP4 PUSH20 0xFFFFFFFFFFFFFFFFFFFFFFFFFFFFFFFFFFFFFFFF AND MUL OR SWAP1 SSTORE POP PUSH1 0x0 PUSH1 0x5 DUP4 DUP2 SLOAD DUP2 LT PUSH2 0xBA8 JUMPI PUSH2 0xBA7 PUSH2 0x249A JUMP JUMPDEST JUMPDEST SWAP1 PUSH1 0x0 MSTORE PUSH1 0x20 PUSH1 0x0 KECCAK256 SWAP1 PUSH1 0x6 MUL ADD PUSH1 0x5 ADD PUSH1 0x14 PUSH2 0x100 EXP DUP2 SLOAD DUP2 PUSH1 0xFF MUL NOT AND SWAP1 DUP4 ISZERO ISZERO MUL OR SWAP1 SSTORE POP PUSH2 0xBDA PUSH1 0x1 PUSH2 0x1DC9 JUMP JUMPDEST DUP1 PUSH20 0xFFFFFFFFFFFFFFFFFFFFFFFFFFFFFFFFFFFFFFFF AND DUP4 PUSH1 0x60 ADD MLOAD PUSH20 0xFFFFFFFFFFFFFFFFFFFFFFFFFFFFFFFFFFFFFFFF AND PUSH32 0x16F1DBD97E6BF646D429ED186CCE832F1F7FD9907814293B83181E9970AB7BD2 DUP8 DUP8 CALLVALUE PUSH1 0x40 MLOAD PUSH2 0xC3F SWAP4 SWAP3 SWAP2 SWAP1 PUSH2 0x21E0 JUMP JUMPDEST PUSH1 0x40 MLOAD DUP1 SWAP2 SUB SWAP1 LOG3 POP POP POP PUSH1 0x1 PUSH1 0x0 DUP2 SWAP1 SSTORE POP POP POP JUMP JUMPDEST PUSH1 0x60 PUSH1 0x0 PUSH2 0xC64 PUSH1 0x2 PUSH2 0x1DBB JUMP JUMPDEST SWAP1 POP PUSH1 0x0 DUP1 JUMPDEST DUP3 DUP2 LT ISZERO PUSH2 0xD0D JUMPI CALLER PUSH20 0xFFFFFFFFFFFFFFFFFFFFFFFFFFFFFFFFFFFFFFFF AND PUSH1 0x5 DUP3 DUP2 SLOAD DUP2 LT PUSH2 0xC9D JUMPI PUSH2 0xC9C PUSH2 0x249A JUMP JUMPDEST JUMPDEST SWAP1 PUSH1 0x0 MSTORE PUSH1 0x20 PUSH1 0x0 KECCAK256 SWAP1 PUSH1 0x6 MUL ADD PUSH1 0x5 ADD PUSH1 0x0 SWAP1 SLOAD SWAP1 PUSH2 0x100 EXP SWAP1 DIV PUSH20 0xFFFFFFFFFFFFFFFFFFFFFFFFFFFFFFFFFFFFFFFF AND PUSH20 0xFFFFFFFFFFFFFFFFFFFFFFFFFFFFFFFFFFFFFFFF AND EQ ISZERO PUSH2 0xCFA JUMPI DUP2 DUP1 PUSH2 0xCF6 SWAP1 PUSH2 0x2422 JUMP JUMPDEST SWAP3 POP POP JUMPDEST DUP1 DUP1 PUSH2 0xD05 SWAP1 PUSH2 0x2422 JUMP JUMPDEST SWAP2 POP POP PUSH2 0xC6A JUMP JUMPDEST POP PUSH1 0x0 DUP2 PUSH8 0xFFFFFFFFFFFFFFFF DUP2 GT ISZERO PUSH2 0xD2A JUMPI PUSH2 0xD29 PUSH2 0x24C9 JUMP JUMPDEST JUMPDEST PUSH1 0x40 MLOAD SWAP1 DUP1 DUP3 MSTORE DUP1 PUSH1 0x20 MUL PUSH1 0x20 ADD DUP3 ADD PUSH1 0x40 MSTORE DUP1 ISZERO PUSH2 0xD63 JUMPI DUP2 PUSH1 0x20 ADD JUMPDEST PUSH2 0xD50 PUSH2 0x1DDF JUMP JUMPDEST DUP2 MSTORE PUSH1 0x20 ADD SWAP1 PUSH1 0x1 SWAP1 SUB SWAP1 DUP2 PUSH2 0xD48 JUMPI SWAP1 POP JUMPDEST POP SWAP1 POP PUSH1 0x0 DUP1 JUMPDEST DUP5 DUP2 LT ISZERO PUSH2 0xFDF JUMPI CALLER PUSH20 0xFFFFFFFFFFFFFFFFFFFFFFFFFFFFFFFFFFFFFFFF AND PUSH1 0x5 DUP3 DUP2 SLOAD DUP2 LT PUSH2 0xD9D JUMPI PUSH2 0xD9C PUSH2 0x249A JUMP JUMPDEST JUMPDEST SWAP1 PUSH1 0x0 MSTORE PUSH1 0x20 PUSH1 0x0 KECCAK256 SWAP1 PUSH1 0x6 MUL ADD PUSH1 0x5 ADD PUSH1 0x0 SWAP1 SLOAD SWAP1 PUSH2 0x100 EXP SWAP1 DIV PUSH20 0xFFFFFFFFFFFFFFFFFFFFFFFFFFFFFFFFFFFFFFFF AND PUSH20 0xFFFFFFFFFFFFFFFFFFFFFFFFFFFFFFFFFFFFFFFF AND EQ ISZERO PUSH2 0xFCC JUMPI PUSH1 0x5 DUP2 DUP2 SLOAD DUP2 LT PUSH2 0xDFF JUMPI PUSH2 0xDFE PUSH2 0x249A JUMP JUMPDEST JUMPDEST SWAP1 PUSH1 0x0 MSTORE PUSH1 0x20 PUSH1 0x0 KECCAK256 SWAP1 PUSH1 0x6 MUL ADD PUSH1 0x40 MLOAD DUP1 PUSH1 0xE0 ADD PUSH1 0x40 MSTORE SWAP1 DUP2 PUSH1 0x0 DUP3 ADD PUSH1 0x0 SWAP1 SLOAD SWAP1 PUSH2 0x100 EXP SWAP1 DIV PUSH20 0xFFFFFFFFFFFFFFFFFFFFFFFFFFFFFFFFFFFFFFFF AND PUSH20 0xFFFFFFFFFFFFFFFFFFFFFFFFFFFFFFFFFFFFFFFF AND PUSH20 0xFFFFFFFFFFFFFFFFFFFFFFFFFFFFFFFFFFFFFFFF AND DUP2 MSTORE PUSH1 0x20 ADD PUSH1 0x1 DUP3 ADD SLOAD DUP2 MSTORE PUSH1 0x20 ADD PUSH1 0x2 DUP3 ADD SLOAD DUP2 MSTORE PUSH1 0x20 ADD PUSH1 0x3 DUP3 ADD PUSH1 0x0 SWAP1 SLOAD SWAP1 PUSH2 0x100 EXP SWAP1 DIV PUSH20 0xFFFFFFFFFFFFFFFFFFFFFFFFFFFFFFFFFFFFFFFF AND PUSH20 0xFFFFFFFFFFFFFFFFFFFFFFFFFFFFFFFFFFFFFFFF AND PUSH20 0xFFFFFFFFFFFFFFFFFFFFFFFFFFFFFFFFFFFFFFFF AND DUP2 MSTORE PUSH1 0x20 ADD PUSH1 0x4 DUP3 ADD PUSH1 0x0 SWAP1 SLOAD SWAP1 PUSH2 0x100 EXP SWAP1 DIV PUSH20 0xFFFFFFFFFFFFFFFFFFFFFFFFFFFFFFFFFFFFFFFF AND PUSH20 0xFFFFFFFFFFFFFFFFFFFFFFFFFFFFFFFFFFFFFFFF AND PUSH20 0xFFFFFFFFFFFFFFFFFFFFFFFFFFFFFFFFFFFFFFFF AND DUP2 MSTORE PUSH1 0x20 ADD PUSH1 0x5 DUP3 ADD PUSH1 0x0 SWAP1 SLOAD SWAP1 PUSH2 0x100 EXP SWAP1 DIV PUSH20 0xFFFFFFFFFFFFFFFFFFFFFFFFFFFFFFFFFFFFFFFF AND PUSH20 0xFFFFFFFFFFFFFFFFFFFFFFFFFFFFFFFFFFFFFFFF AND PUSH20 0xFFFFFFFFFFFFFFFFFFFFFFFFFFFFFFFFFFFFFFFF AND DUP2 MSTORE PUSH1 0x20 ADD PUSH1 0x5 DUP3 ADD PUSH1 0x14 SWAP1 SLOAD SWAP1 PUSH2 0x100 EXP SWAP1 DIV PUSH1 0xFF AND ISZERO ISZERO ISZERO ISZERO DUP2 MSTORE POP POP DUP4 DUP4 DUP2 MLOAD DUP2 LT PUSH2 0xFB2 JUMPI PUSH2 0xFB1 PUSH2 0x249A JUMP JUMPDEST JUMPDEST PUSH1 0x20 MUL PUSH1 0x20 ADD ADD DUP2 SWAP1 MSTORE POP DUP2 DUP1 PUSH2 0xFC8 SWAP1 PUSH2 0x2422 JUMP JUMPDEST SWAP3 POP POP JUMPDEST DUP1 DUP1 PUSH2 0xFD7 SWAP1 PUSH2 0x2422 JUMP JUMPDEST SWAP2 POP POP PUSH2 0xD6A JUMP JUMPDEST POP DUP2 SWAP5 POP POP POP POP POP SWAP1 JUMP JUMPDEST PUSH1 0x60 PUSH1 0x0 PUSH2 0xFF8 PUSH1 0x2 PUSH2 0x1DBB JUMP JUMPDEST SWAP1 POP PUSH1 0x0 PUSH2 0x1006 PUSH1 0x1 PUSH2 0x1DBB JUMP JUMPDEST DUP3 PUSH2 0x1011 SWAP2 SWAP1 PUSH2 0x235E JUMP JUMPDEST SWAP1 POP PUSH1 0x0 DUP2 PUSH8 0xFFFFFFFFFFFFFFFF DUP2 GT ISZERO PUSH2 0x102F JUMPI PUSH2 0x102E PUSH2 0x24C9 JUMP JUMPDEST JUMPDEST PUSH1 0x40 MLOAD SWAP1 DUP1 DUP3 MSTORE DUP1 PUSH1 0x20 MUL PUSH1 0x20 ADD DUP3 ADD PUSH1 0x40 MSTORE DUP1 ISZERO PUSH2 0x1068 JUMPI DUP2 PUSH1 0x20 ADD JUMPDEST PUSH2 0x1055 PUSH2 0x1DDF JUMP JUMPDEST DUP2 MSTORE PUSH1 0x20 ADD SWAP1 PUSH1 0x1 SWAP1 SUB SWAP1 DUP2 PUSH2 0x104D JUMPI SWAP1 POP JUMPDEST POP SWAP1 POP PUSH1 0x0 DUP1 JUMPDEST DUP5 DUP2 LT ISZERO PUSH2 0x12A3 JUMPI PUSH1 0x5 DUP2 DUP2 SLOAD DUP2 LT PUSH2 0x108B JUMPI PUSH2 0x108A PUSH2 0x249A JUMP JUMPDEST JUMPDEST SWAP1 PUSH1 0x0 MSTORE PUSH1 0x20 PUSH1 0x0 KECCAK256 SWAP1 PUSH1 0x6 MUL ADD PUSH1 0x5 ADD PUSH1 0x14 SWAP1 SLOAD SWAP1 PUSH2 0x100 EXP SWAP1 DIV PUSH1 0xFF AND ISZERO PUSH2 0x1290 JUMPI PUSH1 0x5 DUP2 DUP2 SLOAD DUP2 LT PUSH2 0x10C3 JUMPI PUSH2 0x10C2 PUSH2 0x249A JUMP JUMPDEST JUMPDEST SWAP1 PUSH1 0x0 MSTORE PUSH1 0x20 PUSH1 0x0 KECCAK256 SWAP1 PUSH1 0x6 MUL ADD PUSH1 0x40 MLOAD DUP1 PUSH1 0xE0 ADD PUSH1 0x40 MSTORE SWAP1 DUP2 PUSH1 0x0 DUP3 ADD PUSH1 0x0 SWAP1 SLOAD SWAP1 PUSH2 0x100 EXP SWAP1 DIV PUSH20 0xFFFFFFFFFFFFFFFFFFFFFFFFFFFFFFFFFFFFFFFF AND PUSH20 0xFFFFFFFFFFFFFFFFFFFFFFFFFFFFFFFFFFFFFFFF AND PUSH20 0xFFFFFFFFFFFFFFFFFFFFFFFFFFFFFFFFFFFFFFFF AND DUP2 MSTORE PUSH1 0x20 ADD PUSH1 0x1 DUP3 ADD SLOAD DUP2 MSTORE PUSH1 0x20 ADD PUSH1 0x2 DUP3 ADD SLOAD DUP2 MSTORE PUSH1 0x20 ADD PUSH1 0x3 DUP3 ADD PUSH1 0x0 SWAP1 SLOAD SWAP1 PUSH2 0x100 EXP SWAP1 DIV PUSH20 0xFFFFFFFFFFFFFFFFFFFFFFFFFFFFFFFFFFFFFFFF AND PUSH20 0xFFFFFFFFFFFFFFFFFFFFFFFFFFFFFFFFFFFFFFFF AND PUSH20 0xFFFFFFFFFFFFFFFFFFFFFFFFFFFFFFFFFFFFFFFF AND DUP2 MSTORE PUSH1 0x20 ADD PUSH1 0x4 DUP3 ADD PUSH1 0x0 SWAP1 SLOAD SWAP1 PUSH2 0x100 EXP SWAP1 DIV PUSH20 0xFFFFFFFFFFFFFFFFFFFFFFFFFFFFFFFFFFFFFFFF AND PUSH20 0xFFFFFFFFFFFFFFFFFFFFFFFFFFFFFFFFFFFFFFFF AND PUSH20 0xFFFFFFFFFFFFFFFFFFFFFFFFFFFFFFFFFFFFFFFF AND DUP2 MSTORE PUSH1 0x20 ADD PUSH1 0x5 DUP3 ADD PUSH1 0x0 SWAP1 SLOAD SWAP1 PUSH2 0x100 EXP SWAP1 DIV PUSH20 0xFFFFFFFFFFFFFFFFFFFFFFFFFFFFFFFFFFFFFFFF AND PUSH20 0xFFFFFFFFFFFFFFFFFFFFFFFFFFFFFFFFFFFFFFFF AND PUSH20 0xFFFFFFFFFFFFFFFFFFFFFFFFFFFFFFFFFFFFFFFF AND DUP2 MSTORE PUSH1 0x20 ADD PUSH1 0x5 DUP3 ADD PUSH1 0x14 SWAP1 SLOAD SWAP1 PUSH2 0x100 EXP SWAP1 DIV PUSH1 0xFF AND ISZERO ISZERO ISZERO ISZERO DUP2 MSTORE POP POP DUP4 DUP4 DUP2 MLOAD DUP2 LT PUSH2 0x1276 JUMPI PUSH2 0x1275 PUSH2 0x249A JUMP JUMPDEST JUMPDEST PUSH1 0x20 MUL PUSH1 0x20 ADD ADD DUP2 SWAP1 MSTORE POP DUP2 DUP1 PUSH2 0x128C SWAP1 PUSH2 0x2422 JUMP JUMPDEST SWAP3 POP POP JUMPDEST DUP1 DUP1 PUSH2 0x129B SWAP1 PUSH2 0x2422 JUMP JUMPDEST SWAP2 POP POP PUSH2 0x106F JUMP JUMPDEST POP DUP2 SWAP5 POP POP POP POP POP SWAP1 JUMP JUMPDEST PUSH1 0x60 PUSH1 0x0 PUSH2 0x12BC PUSH1 0x2 PUSH2 0x1DBB JUMP JUMPDEST SWAP1 POP PUSH1 0x0 DUP1 JUMPDEST DUP3 DUP2 LT ISZERO PUSH2 0x1365 JUMPI CALLER PUSH20 0xFFFFFFFFFFFFFFFFFFFFFFFFFFFFFFFFFFFFFFFF AND PUSH1 0x5 DUP3 DUP2 SLOAD DUP2 LT PUSH2 0x12F5 JUMPI PUSH2 0x12F4 PUSH2 0x249A JUMP JUMPDEST JUMPDEST SWAP1 PUSH1 0x0 MSTORE PUSH1 0x20 PUSH1 0x0 KECCAK256 SWAP1 PUSH1 0x6 MUL ADD PUSH1 0x4 ADD PUSH1 0x0 SWAP1 SLOAD SWAP1 PUSH2 0x100 EXP SWAP1 DIV PUSH20 0xFFFFFFFFFFFFFFFFFFFFFFFFFFFFFFFFFFFFFFFF AND PUSH20 0xFFFFFFFFFFFFFFFFFFFFFFFFFFFFFFFFFFFFFFFF AND EQ ISZERO PUSH2 0x1352 JUMPI DUP2 DUP1 PUSH2 0x134E SWAP1 PUSH2 0x2422 JUMP JUMPDEST SWAP3 POP POP JUMPDEST DUP1 DUP1 PUSH2 0x135D SWAP1 PUSH2 0x2422 JUMP JUMPDEST SWAP2 POP POP PUSH2 0x12C2 JUMP JUMPDEST POP PUSH1 0x0 DUP2 PUSH8 0xFFFFFFFFFFFFFFFF DUP2 GT ISZERO PUSH2 0x1382 JUMPI PUSH2 0x1381 PUSH2 0x24C9 JUMP JUMPDEST JUMPDEST PUSH1 0x40 MLOAD SWAP1 DUP1 DUP3 MSTORE DUP1 PUSH1 0x20 MUL PUSH1 0x20 ADD DUP3 ADD PUSH1 0x40 MSTORE DUP1 ISZERO PUSH2 0x13BB JUMPI DUP2 PUSH1 0x20 ADD JUMPDEST PUSH2 0x13A8 PUSH2 0x1DDF JUMP JUMPDEST DUP2 MSTORE PUSH1 0x20 ADD SWAP1 PUSH1 0x1 SWAP1 SUB SWAP1 DUP2 PUSH2 0x13A0 JUMPI SWAP1 POP JUMPDEST POP SWAP1 POP PUSH1 0x0 DUP1 JUMPDEST DUP5 DUP2 LT ISZERO PUSH2 0x1637 JUMPI CALLER PUSH20 0xFFFFFFFFFFFFFFFFFFFFFFFFFFFFFFFFFFFFFFFF AND PUSH1 0x5 DUP3 DUP2 SLOAD DUP2 LT PUSH2 0x13F5 JUMPI PUSH2 0x13F4 PUSH2 0x249A JUMP JUMPDEST JUMPDEST SWAP1 PUSH1 0x0 MSTORE PUSH1 0x20 PUSH1 0x0 KECCAK256 SWAP1 PUSH1 0x6 MUL ADD PUSH1 0x4 ADD PUSH1 0x0 SWAP1 SLOAD SWAP1 PUSH2 0x100 EXP SWAP1 DIV PUSH20 0xFFFFFFFFFFFFFFFFFFFFFFFFFFFFFFFFFFFFFFFF AND PUSH20 0xFFFFFFFFFFFFFFFFFFFFFFFFFFFFFFFFFFFFFFFF AND EQ ISZERO PUSH2 0x1624 JUMPI PUSH1 0x5 DUP2 DUP2 SLOAD DUP2 LT PUSH2 0x1457 JUMPI PUSH2 0x1456 PUSH2 0x249A JUMP JUMPDEST JUMPDEST SWAP1 PUSH1 0x0 MSTORE PUSH1 0x20 PUSH1 0x0 KECCAK256 SWAP1 PUSH1 0x6 MUL ADD PUSH1 0x40 MLOAD DUP1 PUSH1 0xE0 ADD PUSH1 0x40 MSTORE SWAP1 DUP2 PUSH1 0x0 DUP3 ADD PUSH1 0x0 SWAP1 SLOAD SWAP1 PUSH2 0x100 EXP SWAP1 DIV PUSH20 0xFFFFFFFFFFFFFFFFFFFFFFFFFFFFFFFFFFFFFFFF AND PUSH20 0xFFFFFFFFFFFFFFFFFFFFFFFFFFFFFFFFFFFFFFFF AND PUSH20 0xFFFFFFFFFFFFFFFFFFFFFFFFFFFFFFFFFFFFFFFF AND DUP2 MSTORE PUSH1 0x20 ADD PUSH1 0x1 DUP3 ADD SLOAD DUP2 MSTORE PUSH1 0x20 ADD PUSH1 0x2 DUP3 ADD SLOAD DUP2 MSTORE PUSH1 0x20 ADD PUSH1 0x3 DUP3 ADD PUSH1 0x0 SWAP1 SLOAD SWAP1 PUSH2 0x100 EXP SWAP1 DIV PUSH20 0xFFFFFFFFFFFFFFFFFFFFFFFFFFFFFFFFFFFFFFFF AND PUSH20 0xFFFFFFFFFFFFFFFFFFFFFFFFFFFFFFFFFFFFFFFF AND PUSH20 0xFFFFFFFFFFFFFFFFFFFFFFFFFFFFFFFFFFFFFFFF AND DUP2 MSTORE PUSH1 0x20 ADD PUSH1 0x4 DUP3 ADD PUSH1 0x0 SWAP1 SLOAD SWAP1 PUSH2 0x100 EXP SWAP1 DIV PUSH20 0xFFFFFFFFFFFFFFFFFFFFFFFFFFFFFFFFFFFFFFFF AND PUSH20 0xFFFFFFFFFFFFFFFFFFFFFFFFFFFFFFFFFFFFFFFF AND PUSH20 0xFFFFFFFFFFFFFFFFFFFFFFFFFFFFFFFFFFFFFFFF AND DUP2 MSTORE PUSH1 0x20 ADD PUSH1 0x5 DUP3 ADD PUSH1 0x0 SWAP1 SLOAD SWAP1 PUSH2 0x100 EXP SWAP1 DIV PUSH20 0xFFFFFFFFFFFFFFFFFFFFFFFFFFFFFFFFFFFFFFFF AND PUSH20 0xFFFFFFFFFFFFFFFFFFFFFFFFFFFFFFFFFFFFFFFF AND PUSH20 0xFFFFFFFFFFFFFFFFFFFFFFFFFFFFFFFFFFFFFFFF AND DUP2 MSTORE PUSH1 0x20 ADD PUSH1 0x5 DUP3 ADD PUSH1 0x14 SWAP1 SLOAD SWAP1 PUSH2 0x100 EXP SWAP1 DIV PUSH1 0xFF AND ISZERO ISZERO ISZERO ISZERO DUP2 MSTORE POP POP DUP4 DUP4 DUP2 MLOAD DUP2 LT PUSH2 0x160A JUMPI PUSH2 0x1609 PUSH2 0x249A JUMP JUMPDEST JUMPDEST PUSH1 0x20 MUL PUSH1 0x20 ADD ADD DUP2 SWAP1 MSTORE POP DUP2 DUP1 PUSH2 0x1620 SWAP1 PUSH2 0x2422 JUMP JUMPDEST SWAP3 POP POP JUMPDEST DUP1 DUP1 PUSH2 0x162F SWAP1 PUSH2 0x2422 JUMP JUMPDEST SWAP2 POP POP PUSH2 0x13C2 JUMP JUMPDEST POP DUP2 SWAP5 POP POP POP POP POP SWAP1 JUMP JUMPDEST PUSH1 0x2 PUSH1 0x0 SLOAD EQ ISZERO PUSH2 0x1688 JUMPI PUSH1 0x40 MLOAD PUSH32 0x8C379A000000000000000000000000000000000000000000000000000000000 DUP2 MSTORE PUSH1 0x4 ADD PUSH2 0x167F SWAP1 PUSH2 0x22B9 JUMP JUMPDEST PUSH1 0x40 MLOAD DUP1 SWAP2 SUB SWAP1 REVERT JUMPDEST PUSH1 0x2 PUSH1 0x0 DUP2 SWAP1 SSTORE POP PUSH1 0x0 DUP2 GT PUSH2 0x16D3 JUMPI PUSH1 0x40 MLOAD PUSH32 0x8C379A000000000000000000000000000000000000000000000000000000000 DUP2 MSTORE PUSH1 0x4 ADD PUSH2 0x16CA SWAP1 PUSH2 0x22D9 JUMP JUMPDEST PUSH1 0x40 MLOAD DUP1 SWAP2 SUB SWAP1 REVERT JUMPDEST PUSH1 0x3 SLOAD CALLVALUE EQ PUSH2 0x1717 JUMPI PUSH1 0x40 MLOAD PUSH32 0x8C379A000000000000000000000000000000000000000000000000000000000 DUP2 MSTORE PUSH1 0x4 ADD PUSH2 0x170E SWAP1 PUSH2 0x2299 JUMP JUMPDEST PUSH1 0x40 MLOAD DUP1 SWAP2 SUB SWAP1 REVERT JUMPDEST DUP3 PUSH20 0xFFFFFFFFFFFFFFFFFFFFFFFFFFFFFFFFFFFFFFFF AND PUSH4 0x23B872DD CALLER ADDRESS DUP6 PUSH1 0x40 MLOAD DUP5 PUSH4 0xFFFFFFFF AND PUSH1 0xE0 SHL DUP2 MSTORE PUSH1 0x4 ADD PUSH2 0x1754 SWAP4 SWAP3 SWAP2 SWAP1 PUSH2 0x21A9 JUMP JUMPDEST PUSH1 0x0 PUSH1 0x40 MLOAD DUP1 DUP4 SUB DUP2 PUSH1 0x0 DUP8 DUP1 EXTCODESIZE ISZERO DUP1 ISZERO PUSH2 0x176E JUMPI PUSH1 0x0 DUP1 REVERT JUMPDEST POP GAS CALL ISZERO DUP1 ISZERO PUSH2 0x1782 JUMPI RETURNDATASIZE PUSH1 0x0 DUP1 RETURNDATACOPY RETURNDATASIZE PUSH1 0x0 REVERT JUMPDEST POP POP POP POP PUSH1 0x5 PUSH1 0x40 MLOAD DUP1 PUSH1 0xE0 ADD PUSH1 0x40 MSTORE DUP1 DUP6 PUSH20 0xFFFFFFFFFFFFFFFFFFFFFFFFFFFFFFFFFFFFFFFF AND DUP2 MSTORE PUSH1 0x20 ADD DUP5 DUP2 MSTORE PUSH1 0x20 ADD DUP4 DUP2 MSTORE PUSH1 0x20 ADD CALLER PUSH20 0xFFFFFFFFFFFFFFFFFFFFFFFFFFFFFFFFFFFFFFFF AND DUP2 MSTORE PUSH1 0x20 ADD ADDRESS PUSH20 0xFFFFFFFFFFFFFFFFFFFFFFFFFFFFFFFFFFFFFFFF AND DUP2 MSTORE PUSH1 0x20 ADD CALLER PUSH20 0xFFFFFFFFFFFFFFFFFFFFFFFFFFFFFFFFFFFFFFFF AND DUP2 MSTORE PUSH1 0x20 ADD PUSH1 0x1 ISZERO ISZERO DUP2 MSTORE POP SWAP1 DUP1 PUSH1 0x1 DUP2 SLOAD ADD DUP1 DUP3 SSTORE DUP1 SWAP2 POP POP PUSH1 0x1 SWAP1 SUB SWAP1 PUSH1 0x0 MSTORE PUSH1 0x20 PUSH1 0x0 KECCAK256 SWAP1 PUSH1 0x6 MUL ADD PUSH1 0x0 SWAP1 SWAP2 SWAP1 SWAP2 SWAP1 SWAP2 POP PUSH1 0x0 DUP3 ADD MLOAD DUP2 PUSH1 0x0 ADD PUSH1 0x0 PUSH2 0x100 EXP DUP2 SLOAD DUP2 PUSH20 0xFFFFFFFFFFFFFFFFFFFFFFFFFFFFFFFFFFFFFFFF MUL NOT AND SWAP1 DUP4 PUSH20 0xFFFFFFFFFFFFFFFFFFFFFFFFFFFFFFFFFFFFFFFF AND MUL OR SWAP1 SSTORE POP PUSH1 0x20 DUP3 ADD MLOAD DUP2 PUSH1 0x1 ADD SSTORE PUSH1 0x40 DUP3 ADD MLOAD DUP2 PUSH1 0x2 ADD SSTORE PUSH1 0x60 DUP3 ADD MLOAD DUP2 PUSH1 0x3 ADD PUSH1 0x0 PUSH2 0x100 EXP DUP2 SLOAD DUP2 PUSH20 0xFFFFFFFFFFFFFFFFFFFFFFFFFFFFFFFFFFFFFFFF MUL NOT AND SWAP1 DUP4 PUSH20 0xFFFFFFFFFFFFFFFFFFFFFFFFFFFFFFFFFFFFFFFF AND MUL OR SWAP1 SSTORE POP PUSH1 0x80 DUP3 ADD MLOAD DUP2 PUSH1 0x4 ADD PUSH1 0x0 PUSH2 0x100 EXP DUP2 SLOAD DUP2 PUSH20 0xFFFFFFFFFFFFFFFFFFFFFFFFFFFFFFFFFFFFFFFF MUL NOT AND SWAP1 DUP4 PUSH20 0xFFFFFFFFFFFFFFFFFFFFFFFFFFFFFFFFFFFFFFFF AND MUL OR SWAP1 SSTORE POP PUSH1 0xA0 DUP3 ADD MLOAD DUP2 PUSH1 0x5 ADD PUSH1 0x0 PUSH2 0x100 EXP DUP2 SLOAD DUP2 PUSH20 0xFFFFFFFFFFFFFFFFFFFFFFFFFFFFFFFFFFFFFFFF MUL NOT AND SWAP1 DUP4 PUSH20 0xFFFFFFFFFFFFFFFFFFFFFFFFFFFFFFFFFFFFFFFF AND MUL OR SWAP1 SSTORE POP PUSH1 0xC0 DUP3 ADD MLOAD DUP2 PUSH1 0x5 ADD PUSH1 0x14 PUSH2 0x100 EXP DUP2 SLOAD DUP2 PUSH1 0xFF MUL NOT AND SWAP1 DUP4 ISZERO ISZERO MUL OR SWAP1 SSTORE POP POP POP PUSH2 0x199B PUSH1 0x2 PUSH2 0x1DC9 JUMP JUMPDEST PUSH1 0x4 PUSH1 0x0 SWAP1 SLOAD SWAP1 PUSH2 0x100 EXP SWAP1 DIV PUSH20 0xFFFFFFFFFFFFFFFFFFFFFFFFFFFFFFFFFFFFFFFF AND PUSH20 0xFFFFFFFFFFFFFFFFFFFFFFFFFFFFFFFFFFFFFFFF AND PUSH2 0x8FC CALLVALUE SWAP1 DUP2 ISZERO MUL SWAP1 PUSH1 0x40 MLOAD PUSH1 0x0 PUSH1 0x40 MLOAD DUP1 DUP4 SUB DUP2 DUP6 DUP9 DUP9 CALL SWAP4 POP POP POP POP ISZERO DUP1 ISZERO PUSH2 0x1A03 JUMPI RETURNDATASIZE PUSH1 0x0 DUP1 RETURNDATACOPY RETURNDATASIZE PUSH1 0x0 REVERT JUMPDEST POP ADDRESS PUSH20 0xFFFFFFFFFFFFFFFFFFFFFFFFFFFFFFFFFFFFFFFF AND CALLER PUSH20 0xFFFFFFFFFFFFFFFFFFFFFFFFFFFFFFFFFFFFFFFF AND PUSH32 0xA0C6C0D02D86FDACECBAA5FDF5894BAB204E31A778250474108540733A9B8D19 DUP6 DUP6 DUP6 PUSH1 0x40 MLOAD PUSH2 0x1A65 SWAP4 SWAP3 SWAP2 SWAP1 PUSH2 0x21E0 JUMP JUMPDEST PUSH1 0x40 MLOAD DUP1 SWAP2 SUB SWAP1 LOG3 PUSH1 0x1 PUSH1 0x0 DUP2 SWAP1 SSTORE POP POP POP POP JUMP JUMPDEST PUSH1 0x0 PUSH1 0x3 SLOAD SWAP1 POP SWAP1 JUMP JUMPDEST PUSH2 0x1A8C PUSH2 0x1DDF JUMP JUMPDEST PUSH1 0x0 PUSH2 0x1A96 PUSH2 0x1DDF JUMP JUMPDEST PUSH1 0x0 PUSH32 0xFFFFFFFFFFFFFFFFFFFFFFFFFFFFFFFFFFFFFFFFFFFFFFFFFFFFFFFFFFFFFFFF SWAP1 POP PUSH1 0x0 PUSH2 0x1AC7 PUSH1 0x2 PUSH2 0x1DBB JUMP JUMPDEST SWAP1 POP PUSH1 0x0 JUMPDEST DUP2 DUP2 LT ISZERO PUSH2 0x1D4E JUMPI DUP8 PUSH20 0xFFFFFFFFFFFFFFFFFFFFFFFFFFFFFFFFFFFFFFFF AND PUSH1 0x5 DUP3 DUP2 SLOAD DUP2 LT PUSH2 0x1AFF JUMPI PUSH2 0x1AFE PUSH2 0x249A JUMP JUMPDEST JUMPDEST SWAP1 PUSH1 0x0 MSTORE PUSH1 0x20 PUSH1 0x0 KECCAK256 SWAP1 PUSH1 0x6 MUL ADD PUSH1 0x0 ADD PUSH1 0x0 SWAP1 SLOAD SWAP1 PUSH2 0x100 EXP SWAP1 DIV PUSH20 0xFFFFFFFFFFFFFFFFFFFFFFFFFFFFFFFFFFFFFFFF AND PUSH20 0xFFFFFFFFFFFFFFFFFFFFFFFFFFFFFFFFFFFFFFFF AND EQ DUP1 ISZERO PUSH2 0x1B78 JUMPI POP DUP7 PUSH1 0x5 DUP3 DUP2 SLOAD DUP2 LT PUSH2 0x1B64 JUMPI PUSH2 0x1B63 PUSH2 0x249A JUMP JUMPDEST JUMPDEST SWAP1 PUSH1 0x0 MSTORE PUSH1 0x20 PUSH1 0x0 KECCAK256 SWAP1 PUSH1 0x6 MUL ADD PUSH1 0x1 ADD SLOAD EQ JUMPDEST ISZERO PUSH2 0x1D3B JUMPI PUSH1 0x5 DUP2 DUP2 SLOAD DUP2 LT PUSH2 0x1B91 JUMPI PUSH2 0x1B90 PUSH2 0x249A JUMP JUMPDEST JUMPDEST SWAP1 PUSH1 0x0 MSTORE PUSH1 0x20 PUSH1 0x0 KECCAK256 SWAP1 PUSH1 0x6 MUL ADD PUSH1 0x40 MLOAD DUP1 PUSH1 0xE0 ADD PUSH1 0x40 MSTORE SWAP1 DUP2 PUSH1 0x0 DUP3 ADD PUSH1 0x0 SWAP1 SLOAD SWAP1 PUSH2 0x100 EXP SWAP1 DIV PUSH20 0xFFFFFFFFFFFFFFFFFFFFFFFFFFFFFFFFFFFFFFFF AND PUSH20 0xFFFFFFFFFFFFFFFFFFFFFFFFFFFFFFFFFFFFFFFF AND PUSH20 0xFFFFFFFFFFFFFFFFFFFFFFFFFFFFFFFFFFFFFFFF AND DUP2 MSTORE PUSH1 0x20 ADD PUSH1 0x1 DUP3 ADD SLOAD DUP2 MSTORE PUSH1 0x20 ADD PUSH1 0x2 DUP3 ADD SLOAD DUP2 MSTORE PUSH1 0x20 ADD PUSH1 0x3 DUP3 ADD PUSH1 0x0 SWAP1 SLOAD SWAP1 PUSH2 0x100 EXP SWAP1 DIV PUSH20 0xFFFFFFFFFFFFFFFFFFFFFFFFFFFFFFFFFFFFFFFF AND PUSH20 0xFFFFFFFFFFFFFFFFFFFFFFFFFFFFFFFFFFFFFFFF AND PUSH20 0xFFFFFFFFFFFFFFFFFFFFFFFFFFFFFFFFFFFFFFFF AND DUP2 MSTORE PUSH1 0x20 ADD PUSH1 0x4 DUP3 ADD PUSH1 0x0 SWAP1 SLOAD SWAP1 PUSH2 0x100 EXP SWAP1 DIV PUSH20 0xFFFFFFFFFFFFFFFFFFFFFFFFFFFFFFFFFFFFFFFF AND PUSH20 0xFFFFFFFFFFFFFFFFFFFFFFFFFFFFFFFFFFFFFFFF AND PUSH20 0xFFFFFFFFFFFFFFFFFFFFFFFFFFFFFFFFFFFFFFFF AND DUP2 MSTORE PUSH1 0x20 ADD PUSH1 0x5 DUP3 ADD PUSH1 0x0 SWAP1 SLOAD SWAP1 PUSH2 0x100 EXP SWAP1 DIV PUSH20 0xFFFFFFFFFFFFFFFFFFFFFFFFFFFFFFFFFFFFFFFF AND PUSH20 0xFFFFFFFFFFFFFFFFFFFFFFFFFFFFFFFFFFFFFFFF AND PUSH20 0xFFFFFFFFFFFFFFFFFFFFFFFFFFFFFFFFFFFFFFFF AND DUP2 MSTORE PUSH1 0x20 ADD PUSH1 0x5 DUP3 ADD PUSH1 0x14 SWAP1 SLOAD SWAP1 PUSH2 0x100 EXP SWAP1 DIV PUSH1 0xFF AND ISZERO ISZERO ISZERO ISZERO DUP2 MSTORE POP POP SWAP4 POP DUP1 SWAP3 POP PUSH2 0x1D4E JUMP JUMPDEST DUP1 DUP1 PUSH2 0x1D46 SWAP1 PUSH2 0x2422 JUMP JUMPDEST SWAP2 POP POP PUSH2 0x1ACC JUMP JUMPDEST POP DUP3 DUP3 SWAP5 POP SWAP5 POP POP POP POP SWAP3 POP SWAP3 SWAP1 POP JUMP JUMPDEST PUSH1 0x0 DUP2 PUSH1 0x0 ADD SLOAD SWAP1 POP PUSH1 0x0 DUP2 GT PUSH2 0x1DAB JUMPI PUSH1 0x40 MLOAD PUSH32 0x8C379A000000000000000000000000000000000000000000000000000000000 DUP2 MSTORE PUSH1 0x4 ADD PUSH2 0x1DA2 SWAP1 PUSH2 0x2239 JUMP JUMPDEST PUSH1 0x40 MLOAD DUP1 SWAP2 SUB SWAP1 REVERT JUMPDEST PUSH1 0x1 DUP2 SUB DUP3 PUSH1 0x0 ADD DUP2 SWAP1 SSTORE POP POP POP JUMP JUMPDEST PUSH1 0x0 DUP2 PUSH1 0x0 ADD SLOAD SWAP1 POP SWAP2 SWAP1 POP JUMP JUMPDEST PUSH1 0x1 DUP2 PUSH1 0x0 ADD PUSH1 0x0 DUP3 DUP3 SLOAD ADD SWAP3 POP POP DUP2 SWAP1 SSTORE POP POP JUMP JUMPDEST PUSH1 0x40 MLOAD DUP1 PUSH1 0xE0 ADD PUSH1 0x40 MSTORE DUP1 PUSH1 0x0 PUSH20 0xFFFFFFFFFFFFFFFFFFFFFFFFFFFFFFFFFFFFFFFF AND DUP2 MSTORE PUSH1 0x20 ADD PUSH1 0x0 DUP2 MSTORE PUSH1 0x20 ADD PUSH1 0x0 DUP2 MSTORE PUSH1 0x20 ADD PUSH1 0x0 PUSH20 0xFFFFFFFFFFFFFFFFFFFFFFFFFFFFFFFFFFFFFFFF AND DUP2 MSTORE PUSH1 0x20 ADD PUSH1 0x0 PUSH20 0xFFFFFFFFFFFFFFFFFFFFFFFFFFFFFFFFFFFFFFFF AND DUP2 MSTORE PUSH1 0x20 ADD PUSH1 0x0 PUSH20 0xFFFFFFFFFFFFFFFFFFFFFFFFFFFFFFFFFFFFFFFF AND DUP2 MSTORE PUSH1 0x20 ADD PUSH1 0x0 ISZERO ISZERO DUP2 MSTORE POP SWAP1 JUMP JUMPDEST PUSH1 0x0 DUP2 CALLDATALOAD SWAP1 POP PUSH2 0x1E85 DUP2 PUSH2 0x2619 JUMP JUMPDEST SWAP3 SWAP2 POP POP JUMP JUMPDEST PUSH1 0x0 DUP2 CALLDATALOAD SWAP1 POP PUSH2 0x1E9A DUP2 PUSH2 0x2630 JUMP JUMPDEST SWAP3 SWAP2 POP POP JUMP JUMPDEST PUSH1 0x0 DUP1 PUSH1 0x40 DUP4 DUP6 SUB SLT ISZERO PUSH2 0x1EB7 JUMPI PUSH2 0x1EB6 PUSH2 0x24F8 JUMP JUMPDEST JUMPDEST PUSH1 0x0 PUSH2 0x1EC5 DUP6 DUP3 DUP7 ADD PUSH2 0x1E76 JUMP JUMPDEST SWAP3 POP POP PUSH1 0x20 PUSH2 0x1ED6 DUP6 DUP3 DUP7 ADD PUSH2 0x1E8B JUMP JUMPDEST SWAP2 POP POP SWAP3 POP SWAP3 SWAP1 POP JUMP JUMPDEST PUSH1 0x0 DUP1 PUSH1 0x0 PUSH1 0x60 DUP5 DUP7 SUB SLT ISZERO PUSH2 0x1EF9 JUMPI PUSH2 0x1EF8 PUSH2 0x24F8 JUMP JUMPDEST JUMPDEST PUSH1 0x0 PUSH2 0x1F07 DUP7 DUP3 DUP8 ADD PUSH2 0x1E76 JUMP JUMPDEST SWAP4 POP POP PUSH1 0x20 PUSH2 0x1F18 DUP7 DUP3 DUP8 ADD PUSH2 0x1E8B JUMP JUMPDEST SWAP3 POP POP PUSH1 0x40 PUSH2 0x1F29 DUP7 DUP3 DUP8 ADD PUSH2 0x1E8B JUMP JUMPDEST SWAP2 POP POP SWAP3 POP SWAP3 POP SWAP3 JUMP JUMPDEST PUSH1 0x0 PUSH2 0x1F3F DUP4 DUP4 PUSH2 0x20C6 JUMP JUMPDEST PUSH1 0xE0 DUP4 ADD SWAP1 POP SWAP3 SWAP2 POP POP JUMP JUMPDEST PUSH2 0x1F54 DUP2 PUSH2 0x23EC JUMP JUMPDEST DUP3 MSTORE POP POP JUMP JUMPDEST PUSH2 0x1F63 DUP2 PUSH2 0x23A4 JUMP JUMPDEST DUP3 MSTORE POP POP JUMP JUMPDEST PUSH2 0x1F72 DUP2 PUSH2 0x2392 JUMP JUMPDEST DUP3 MSTORE POP POP JUMP JUMPDEST PUSH2 0x1F81 DUP2 PUSH2 0x2392 JUMP JUMPDEST DUP3 MSTORE POP POP JUMP JUMPDEST PUSH1 0x0 PUSH2 0x1F92 DUP3 PUSH2 0x2324 JUMP JUMPDEST PUSH2 0x1F9C DUP2 DUP6 PUSH2 0x233C JUMP JUMPDEST SWAP4 POP PUSH2 0x1FA7 DUP4 PUSH2 0x2314 JUMP JUMPDEST DUP1 PUSH1 0x0 JUMPDEST DUP4 DUP2 LT ISZERO PUSH2 0x1FD8 JUMPI DUP2 MLOAD PUSH2 0x1FBF DUP9 DUP3 PUSH2 0x1F33 JUMP JUMPDEST SWAP8 POP PUSH2 0x1FCA DUP4 PUSH2 0x232F JUMP JUMPDEST SWAP3 POP POP PUSH1 0x1 DUP2 ADD SWAP1 POP PUSH2 0x1FAB JUMP JUMPDEST POP DUP6 SWAP4 POP POP POP POP SWAP3 SWAP2 POP POP JUMP JUMPDEST PUSH2 0x1FEE DUP2 PUSH2 0x23B6 JUMP JUMPDEST DUP3 MSTORE POP POP JUMP JUMPDEST PUSH1 0x0 PUSH2 0x2001 PUSH1 0x1B DUP4 PUSH2 0x234D JUMP JUMPDEST SWAP2 POP PUSH2 0x200C DUP3 PUSH2 0x24FD JUMP JUMPDEST PUSH1 0x20 DUP3 ADD SWAP1 POP SWAP2 SWAP1 POP JUMP JUMPDEST PUSH1 0x0 PUSH2 0x2024 PUSH1 0x26 DUP4 PUSH2 0x234D JUMP JUMPDEST SWAP2 POP PUSH2 0x202F DUP3 PUSH2 0x2526 JUMP JUMPDEST PUSH1 0x40 DUP3 ADD SWAP1 POP SWAP2 SWAP1 POP JUMP JUMPDEST PUSH1 0x0 PUSH2 0x2047 PUSH1 0xD DUP4 PUSH2 0x234D JUMP JUMPDEST SWAP2 POP PUSH2 0x2052 DUP3 PUSH2 0x2575 JUMP JUMPDEST PUSH1 0x20 DUP3 ADD SWAP1 POP SWAP2 SWAP1 POP JUMP JUMPDEST PUSH1 0x0 PUSH2 0x206A PUSH1 0x20 DUP4 PUSH2 0x234D JUMP JUMPDEST SWAP2 POP PUSH2 0x2075 DUP3 PUSH2 0x259E JUMP JUMPDEST PUSH1 0x20 DUP3 ADD SWAP1 POP SWAP2 SWAP1 POP JUMP JUMPDEST PUSH1 0x0 PUSH2 0x208D PUSH1 0x1F DUP4 PUSH2 0x234D JUMP JUMPDEST SWAP2 POP PUSH2 0x2098 DUP3 PUSH2 0x25C7 JUMP JUMPDEST PUSH1 0x20 DUP3 ADD SWAP1 POP SWAP2 SWAP1 POP JUMP JUMPDEST PUSH1 0x0 PUSH2 0x20B0 PUSH1 0x1C DUP4 PUSH2 0x234D JUMP JUMPDEST SWAP2 POP PUSH2 0x20BB DUP3 PUSH2 0x25F0 JUMP JUMPDEST PUSH1 0x20 DUP3 ADD SWAP1 POP SWAP2 SWAP1 POP JUMP JUMPDEST PUSH1 0xE0 DUP3 ADD PUSH1 0x0 DUP3 ADD MLOAD PUSH2 0x20DC PUSH1 0x0 DUP6 ADD DUP3 PUSH2 0x1F69 JUMP JUMPDEST POP PUSH1 0x20 DUP3 ADD MLOAD PUSH2 0x20EF PUSH1 0x20 DUP6 ADD DUP3 PUSH2 0x2154 JUMP JUMPDEST POP PUSH1 0x40 DUP3 ADD MLOAD PUSH2 0x2102 PUSH1 0x40 DUP6 ADD DUP3 PUSH2 0x2154 JUMP JUMPDEST POP PUSH1 0x60 DUP3 ADD MLOAD PUSH2 0x2115 PUSH1 0x60 DUP6 ADD DUP3 PUSH2 0x1F5A JUMP JUMPDEST POP PUSH1 0x80 DUP3 ADD MLOAD PUSH2 0x2128 PUSH1 0x80 DUP6 ADD DUP3 PUSH2 0x1F5A JUMP JUMPDEST POP PUSH1 0xA0 DUP3 ADD MLOAD PUSH2 0x213B PUSH1 0xA0 DUP6 ADD DUP3 PUSH2 0x1F5A JUMP JUMPDEST POP PUSH1 0xC0 DUP3 ADD MLOAD PUSH2 0x214E PUSH1 0xC0 DUP6 ADD DUP3 PUSH2 0x1FE5 JUMP JUMPDEST POP POP POP POP JUMP JUMPDEST PUSH2 0x215D DUP2 PUSH2 0x23E2 JUMP JUMPDEST DUP3 MSTORE POP POP JUMP JUMPDEST PUSH2 0x216C DUP2 PUSH2 0x23E2 JUMP JUMPDEST DUP3 MSTORE POP POP JUMP JUMPDEST PUSH1 0x0 PUSH1 0x60 DUP3 ADD SWAP1 POP PUSH2 0x2187 PUSH1 0x0 DUP4 ADD DUP7 PUSH2 0x1F78 JUMP JUMPDEST PUSH2 0x2194 PUSH1 0x20 DUP4 ADD DUP6 PUSH2 0x1F4B JUMP JUMPDEST PUSH2 0x21A1 PUSH1 0x40 DUP4 ADD DUP5 PUSH2 0x2163 JUMP JUMPDEST SWAP5 SWAP4 POP POP POP POP JUMP JUMPDEST PUSH1 0x0 PUSH1 0x60 DUP3 ADD SWAP1 POP PUSH2 0x21BE PUSH1 0x0 DUP4 ADD DUP7 PUSH2 0x1F78 JUMP JUMPDEST PUSH2 0x21CB PUSH1 0x20 DUP4 ADD DUP6 PUSH2 0x1F78 JUMP JUMPDEST PUSH2 0x21D8 PUSH1 0x40 DUP4 ADD DUP5 PUSH2 0x2163 JUMP JUMPDEST SWAP5 SWAP4 POP POP POP POP JUMP JUMPDEST PUSH1 0x0 PUSH1 0x60 DUP3 ADD SWAP1 POP PUSH2 0x21F5 PUSH1 0x0 DUP4 ADD DUP7 PUSH2 0x1F78 JUMP JUMPDEST PUSH2 0x2202 PUSH1 0x20 DUP4 ADD DUP6 PUSH2 0x2163 JUMP JUMPDEST PUSH2 0x220F PUSH1 0x40 DUP4 ADD DUP5 PUSH2 0x2163 JUMP JUMPDEST SWAP5 SWAP4 POP POP POP POP JUMP JUMPDEST PUSH1 0x0 PUSH1 0x20 DUP3 ADD SWAP1 POP DUP2 DUP2 SUB PUSH1 0x0 DUP4 ADD MSTORE PUSH2 0x2231 DUP2 DUP5 PUSH2 0x1F87 JUMP JUMPDEST SWAP1 POP SWAP3 SWAP2 POP POP JUMP JUMPDEST PUSH1 0x0 PUSH1 0x20 DUP3 ADD SWAP1 POP DUP2 DUP2 SUB PUSH1 0x0 DUP4 ADD MSTORE PUSH2 0x2252 DUP2 PUSH2 0x1FF4 JUMP JUMPDEST SWAP1 POP SWAP2 SWAP1 POP JUMP JUMPDEST PUSH1 0x0 PUSH1 0x20 DUP3 ADD SWAP1 POP DUP2 DUP2 SUB PUSH1 0x0 DUP4 ADD MSTORE PUSH2 0x2272 DUP2 PUSH2 0x2017 JUMP JUMPDEST SWAP1 POP SWAP2 SWAP1 POP JUMP JUMPDEST PUSH1 0x0 PUSH1 0x20 DUP3 ADD SWAP1 POP DUP2 DUP2 SUB PUSH1 0x0 DUP4 ADD MSTORE PUSH2 0x2292 DUP2 PUSH2 0x203A JUMP JUMPDEST SWAP1 POP SWAP2 SWAP1 POP JUMP JUMPDEST PUSH1 0x0 PUSH1 0x20 DUP3 ADD SWAP1 POP DUP2 DUP2 SUB PUSH1 0x0 DUP4 ADD MSTORE PUSH2 0x22B2 DUP2 PUSH2 0x205D JUMP JUMPDEST SWAP1 POP SWAP2 SWAP1 POP JUMP JUMPDEST PUSH1 0x0 PUSH1 0x20 DUP3 ADD SWAP1 POP DUP2 DUP2 SUB PUSH1 0x0 DUP4 ADD MSTORE PUSH2 0x22D2 DUP2 PUSH2 0x2080 JUMP JUMPDEST SWAP1 POP SWAP2 SWAP1 POP JUMP JUMPDEST PUSH1 0x0 PUSH1 0x20 DUP3 ADD SWAP1 POP DUP2 DUP2 SUB PUSH1 0x0 DUP4 ADD MSTORE PUSH2 0x22F2 DUP2 PUSH2 0x20A3 JUMP JUMPDEST SWAP1 POP SWAP2 SWAP1 POP JUMP JUMPDEST PUSH1 0x0 PUSH1 0x20 DUP3 ADD SWAP1 POP PUSH2 0x230E PUSH1 0x0 DUP4 ADD DUP5 PUSH2 0x2163 JUMP JUMPDEST SWAP3 SWAP2 POP POP JUMP JUMPDEST PUSH1 0x0 DUP2 SWAP1 POP PUSH1 0x20 DUP3 ADD SWAP1 POP SWAP2 SWAP1 POP JUMP JUMPDEST PUSH1 0x0 DUP2 MLOAD SWAP1 POP SWAP2 SWAP1 POP JUMP JUMPDEST PUSH1 0x0 PUSH1 0x20 DUP3 ADD SWAP1 POP SWAP2 SWAP1 POP JUMP JUMPDEST PUSH1 0x0 DUP3 DUP3 MSTORE PUSH1 0x20 DUP3 ADD SWAP1 POP SWAP3 SWAP2 POP POP JUMP JUMPDEST PUSH1 0x0 DUP3 DUP3 MSTORE PUSH1 0x20 DUP3 ADD SWAP1 POP SWAP3 SWAP2 POP POP JUMP JUMPDEST PUSH1 0x0 PUSH2 0x2369 DUP3 PUSH2 0x23E2 JUMP JUMPDEST SWAP2 POP PUSH2 0x2374 DUP4 PUSH2 0x23E2 JUMP JUMPDEST SWAP3 POP DUP3 DUP3 LT ISZERO PUSH2 0x2387 JUMPI PUSH2 0x2386 PUSH2 0x246B JUMP JUMPDEST JUMPDEST DUP3 DUP3 SUB SWAP1 POP SWAP3 SWAP2 POP POP JUMP JUMPDEST PUSH1 0x0 PUSH2 0x239D DUP3 PUSH2 0x23C2 JUMP JUMPDEST SWAP1 POP SWAP2 SWAP1 POP JUMP JUMPDEST PUSH1 0x0 PUSH2 0x23AF DUP3 PUSH2 0x23C2 JUMP JUMPDEST SWAP1 POP SWAP2 SWAP1 POP JUMP JUMPDEST PUSH1 0x0 DUP2 ISZERO ISZERO SWAP1 POP SWAP2 SWAP1 POP JUMP JUMPDEST PUSH1 0x0 PUSH20 0xFFFFFFFFFFFFFFFFFFFFFFFFFFFFFFFFFFFFFFFF DUP3 AND SWAP1 POP SWAP2 SWAP1 POP JUMP JUMPDEST PUSH1 0x0 DUP2 SWAP1 POP SWAP2 SWAP1 POP JUMP JUMPDEST PUSH1 0x0 PUSH2 0x23F7 DUP3 PUSH2 0x23FE JUMP JUMPDEST SWAP1 POP SWAP2 SWAP1 POP JUMP JUMPDEST PUSH1 0x0 PUSH2 0x2409 DUP3 PUSH2 0x2410 JUMP JUMPDEST SWAP1 POP SWAP2 SWAP1 POP JUMP JUMPDEST PUSH1 0x0 PUSH2 0x241B DUP3 PUSH2 0x23C2 JUMP JUMPDEST SWAP1 POP SWAP2 SWAP1 POP JUMP JUMPDEST PUSH1 0x0 PUSH2 0x242D DUP3 PUSH2 0x23E2 JUMP JUMPDEST SWAP2 POP PUSH32 0xFFFFFFFFFFFFFFFFFFFFFFFFFFFFFFFFFFFFFFFFFFFFFFFFFFFFFFFFFFFFFFFF DUP3 EQ ISZERO PUSH2 0x2460 JUMPI PUSH2 0x245F PUSH2 0x246B JUMP JUMPDEST JUMPDEST PUSH1 0x1 DUP3 ADD SWAP1 POP SWAP2 SWAP1 POP JUMP JUMPDEST PUSH32 0x4E487B7100000000000000000000000000000000000000000000000000000000 PUSH1 0x0 MSTORE PUSH1 0x11 PUSH1 0x4 MSTORE PUSH1 0x24 PUSH1 0x0 REVERT JUMPDEST PUSH32 0x4E487B7100000000000000000000000000000000000000000000000000000000 PUSH1 0x0 MSTORE PUSH1 0x32 PUSH1 0x4 MSTORE PUSH1 0x24 PUSH1 0x0 REVERT JUMPDEST PUSH32 0x4E487B7100000000000000000000000000000000000000000000000000000000 PUSH1 0x0 MSTORE PUSH1 0x41 PUSH1 0x4 MSTORE PUSH1 0x24 PUSH1 0x0 REVERT JUMPDEST PUSH1 0x0 DUP1 REVERT JUMPDEST PUSH32 0x436F756E7465723A2064656372656D656E74206F766572666C6F770000000000 PUSH1 0x0 DUP3 ADD MSTORE POP JUMP JUMPDEST PUSH32 0x4E6F7420656E6F75676820657468657220746F20636F7665722061736B696E67 PUSH1 0x0 DUP3 ADD MSTORE PUSH32 0x2070726963650000000000000000000000000000000000000000000000000000 PUSH1 0x20 DUP3 ADD MSTORE POP JUMP JUMPDEST PUSH32 0x4E6674206E6F7420666F756E6400000000000000000000000000000000000000 PUSH1 0x0 DUP3 ADD MSTORE POP JUMP JUMPDEST PUSH32 0x4E6F7420656E6F75676820657468657220666F72206C697374696E6720666565 PUSH1 0x0 DUP3 ADD MSTORE POP JUMP JUMPDEST PUSH32 0x5265656E7472616E637947756172643A207265656E7472616E742063616C6C00 PUSH1 0x0 DUP3 ADD MSTORE POP JUMP JUMPDEST PUSH32 0x5072696365206D757374206265206174206C6561737420312077656900000000 PUSH1 0x0 DUP3 ADD MSTORE POP JUMP JUMPDEST PUSH2 0x2622 DUP2 PUSH2 0x2392 JUMP JUMPDEST DUP2 EQ PUSH2 0x262D JUMPI PUSH1 0x0 DUP1 REVERT JUMPDEST POP JUMP JUMPDEST PUSH2 0x2639 DUP2 PUSH2 0x23E2 JUMP JUMPDEST DUP2 EQ PUSH2 0x2644 JUMPI PUSH1 0x0 DUP1 REVERT JUMPDEST POP JUMP INVALID LOG2 PUSH5 0x6970667358 0x22 SLT KECCAK256 PUSH5 0xC999EA3677 0xFB SUB 0xEC 0xF7 BLOCKHASH PUSH2 0xD066 SWAP12 0x2F PUSH11 0xB9F105397CF7ED0C4745BA DUP4 0xDF 0xB4 0xEF PUSH5 0x736F6C6343 STOP ADDMOD SMOD STOP CALLER "
				},
				"gasEstimates": {
					"creation": {
						"codeDepositCost": "1970600",
						"executionCost": "70570",
						"totalCost": "2041170"
					},
					"external": {
						"LISTING_FEE()": "2474",
						"buyNft(address,uint256)": "infinite",
						"getListedNfts()": "infinite",
						"getListingFee()": "2525",
						"getMyCreatedNfts()": "infinite",
						"getMyListedNfts()": "infinite",
						"getMyOwnedNfts()": "infinite",
						"listNFT(address,uint256,uint256)": "infinite",
						"resellNFT(address,uint256,uint256)": "infinite"
					},
					"internal": {
						"getNFT(address,uint256)": "infinite"
					}
				},
				"methodIdentifiers": {
					"LISTING_FEE()": "2b86ae38",
					"buyNft(address,uint256)": "4ddf4f8f",
					"getListedNfts()": "8d6cb3fb",
					"getListingFee()": "b8fe6abe",
					"getMyCreatedNfts()": "8492095a",
					"getMyListedNfts()": "1f4cc4db",
					"getMyOwnedNfts()": "a46b5c5a",
					"listNFT(address,uint256,uint256)": "ad05f1b4",
					"resellNFT(address,uint256,uint256)": "04935694"
				}
			},
			"storageLayout": {
				"storage": [
					{
						"astId": 938,
						"contract": "contracts/GeekNftMarketPlace.sol:GeekNftMarketPlace",
						"label": "_status",
						"offset": 0,
						"slot": "0",
						"type": "t_uint256"
					},
					{
						"astId": 103,
						"contract": "contracts/GeekNftMarketPlace.sol:GeekNftMarketPlace",
						"label": "_nftsSold",
						"offset": 0,
						"slot": "1",
						"type": "t_struct(Counter)5_storage"
					},
					{
						"astId": 106,
						"contract": "contracts/GeekNftMarketPlace.sol:GeekNftMarketPlace",
						"label": "_nftsCount",
						"offset": 0,
						"slot": "2",
						"type": "t_struct(Counter)5_storage"
					},
					{
						"astId": 109,
						"contract": "contracts/GeekNftMarketPlace.sol:GeekNftMarketPlace",
						"label": "LISTING_FEE",
						"offset": 0,
						"slot": "3",
						"type": "t_uint256"
					},
					{
						"astId": 111,
						"contract": "contracts/GeekNftMarketPlace.sol:GeekNftMarketPlace",
						"label": "_marketOwwner",
						"offset": 0,
						"slot": "4",
						"type": "t_address_payable"
					},
					{
						"astId": 115,
						"contract": "contracts/GeekNftMarketPlace.sol:GeekNftMarketPlace",
						"label": "nfts",
						"offset": 0,
						"slot": "5",
						"type": "t_array(t_struct(NFT)130_storage)dyn_storage"
					}
				],
				"types": {
					"t_address": {
						"encoding": "inplace",
						"label": "address",
						"numberOfBytes": "20"
					},
					"t_address_payable": {
						"encoding": "inplace",
						"label": "address payable",
						"numberOfBytes": "20"
					},
					"t_array(t_struct(NFT)130_storage)dyn_storage": {
						"base": "t_struct(NFT)130_storage",
						"encoding": "dynamic_array",
						"label": "struct GeekNftMarketPlace.NFT[]",
						"numberOfBytes": "32"
					},
					"t_bool": {
						"encoding": "inplace",
						"label": "bool",
						"numberOfBytes": "1"
					},
					"t_struct(Counter)5_storage": {
						"encoding": "inplace",
						"label": "struct Counters.Counter",
						"members": [
							{
								"astId": 4,
								"contract": "contracts/GeekNftMarketPlace.sol:GeekNftMarketPlace",
								"label": "_value",
								"offset": 0,
								"slot": "0",
								"type": "t_uint256"
							}
						],
						"numberOfBytes": "32"
					},
					"t_struct(NFT)130_storage": {
						"encoding": "inplace",
						"label": "struct GeekNftMarketPlace.NFT",
						"members": [
							{
								"astId": 117,
								"contract": "contracts/GeekNftMarketPlace.sol:GeekNftMarketPlace",
								"label": "nftContract",
								"offset": 0,
								"slot": "0",
								"type": "t_address"
							},
							{
								"astId": 119,
								"contract": "contracts/GeekNftMarketPlace.sol:GeekNftMarketPlace",
								"label": "tokenId",
								"offset": 0,
								"slot": "1",
								"type": "t_uint256"
							},
							{
								"astId": 121,
								"contract": "contracts/GeekNftMarketPlace.sol:GeekNftMarketPlace",
								"label": "price",
								"offset": 0,
								"slot": "2",
								"type": "t_uint256"
							},
							{
								"astId": 123,
								"contract": "contracts/GeekNftMarketPlace.sol:GeekNftMarketPlace",
								"label": "seller",
								"offset": 0,
								"slot": "3",
								"type": "t_address_payable"
							},
							{
								"astId": 125,
								"contract": "contracts/GeekNftMarketPlace.sol:GeekNftMarketPlace",
								"label": "owner",
								"offset": 0,
								"slot": "4",
								"type": "t_address_payable"
							},
							{
								"astId": 127,
								"contract": "contracts/GeekNftMarketPlace.sol:GeekNftMarketPlace",
								"label": "creator",
								"offset": 0,
								"slot": "5",
								"type": "t_address_payable"
							},
							{
								"astId": 129,
								"contract": "contracts/GeekNftMarketPlace.sol:GeekNftMarketPlace",
								"label": "listed",
								"offset": 20,
								"slot": "5",
								"type": "t_bool"
							}
						],
						"numberOfBytes": "192"
					},
					"t_uint256": {
						"encoding": "inplace",
						"label": "uint256",
						"numberOfBytes": "32"
					}
				}
			},
			"userdoc": {
				"kind": "user",
				"methods": {},
				"version": 1
			}
		}
	}
}