{
	"contracts/GeekNftMarketPlace.sol": {
		"GeekNftMarketPlace": {
			"abi": [
				{
					"inputs": [],
					"stateMutability": "nonpayable",
					"type": "constructor"
				},
				{
					"anonymous": false,
					"inputs": [
						{
							"indexed": false,
							"internalType": "address",
							"name": "nftContract",
							"type": "address"
						},
						{
							"indexed": false,
							"internalType": "uint256",
							"name": "tokenId",
							"type": "uint256"
						},
						{
							"indexed": true,
							"internalType": "address",
							"name": "seller",
							"type": "address"
						},
						{
							"indexed": true,
							"internalType": "address",
							"name": "owner",
							"type": "address"
						},
						{
							"indexed": false,
							"internalType": "uint256",
							"name": "price",
							"type": "uint256"
						}
					],
					"name": "NFTListed",
					"type": "event"
				},
				{
					"anonymous": false,
					"inputs": [
						{
							"indexed": false,
							"internalType": "address",
							"name": "nftContract",
							"type": "address"
						},
						{
							"indexed": false,
							"internalType": "uint256",
							"name": "tokenId",
							"type": "uint256"
						},
						{
							"indexed": true,
							"internalType": "address",
							"name": "seller",
							"type": "address"
						},
						{
							"indexed": true,
							"internalType": "address",
							"name": "owner",
							"type": "address"
						},
						{
							"indexed": false,
							"internalType": "uint256",
							"name": "price",
							"type": "uint256"
						}
					],
					"name": "NFTSold",
					"type": "event"
				},
				{
					"inputs": [],
					"name": "LISTING_FEE",
					"outputs": [
						{
							"internalType": "uint256",
							"name": "",
							"type": "uint256"
						}
					],
					"stateMutability": "view",
					"type": "function"
				},
				{
					"inputs": [
						{
							"internalType": "address",
							"name": "_nftContract",
							"type": "address"
						},
						{
							"internalType": "uint256",
							"name": "_tokenId",
							"type": "uint256"
						}
					],
					"name": "buyNft",
					"outputs": [],
					"stateMutability": "payable",
					"type": "function"
				},
				{
					"inputs": [],
					"name": "getListedNfts",
					"outputs": [
						{
							"components": [
								{
									"internalType": "address",
									"name": "nftContract",
									"type": "address"
								},
								{
									"internalType": "uint256",
									"name": "tokenId",
									"type": "uint256"
								},
								{
									"internalType": "uint256",
									"name": "price",
									"type": "uint256"
								},
								{
									"internalType": "address payable",
									"name": "seller",
									"type": "address"
								},
								{
									"internalType": "address payable",
									"name": "owner",
									"type": "address"
								},
								{
									"internalType": "address payable",
									"name": "creator",
									"type": "address"
								},
								{
									"internalType": "bool",
									"name": "listed",
									"type": "bool"
								}
							],
							"internalType": "struct GeekNftMarketPlace.NFT[]",
							"name": "",
							"type": "tuple[]"
						}
					],
					"stateMutability": "view",
					"type": "function"
				},
				{
					"inputs": [],
					"name": "getListingFee",
					"outputs": [
						{
							"internalType": "uint256",
							"name": "",
							"type": "uint256"
						}
					],
					"stateMutability": "view",
					"type": "function"
				},
				{
					"inputs": [],
					"name": "getMyCreatedNfts",
					"outputs": [
						{
							"components": [
								{
									"internalType": "address",
									"name": "nftContract",
									"type": "address"
								},
								{
									"internalType": "uint256",
									"name": "tokenId",
									"type": "uint256"
								},
								{
									"internalType": "uint256",
									"name": "price",
									"type": "uint256"
								},
								{
									"internalType": "address payable",
									"name": "seller",
									"type": "address"
								},
								{
									"internalType": "address payable",
									"name": "owner",
									"type": "address"
								},
								{
									"internalType": "address payable",
									"name": "creator",
									"type": "address"
								},
								{
									"internalType": "bool",
									"name": "listed",
									"type": "bool"
								}
							],
							"internalType": "struct GeekNftMarketPlace.NFT[]",
							"name": "",
							"type": "tuple[]"
						}
					],
					"stateMutability": "view",
					"type": "function"
				},
				{
					"inputs": [],
					"name": "getMyListedNfts",
					"outputs": [
						{
							"components": [
								{
									"internalType": "address",
									"name": "nftContract",
									"type": "address"
								},
								{
									"internalType": "uint256",
									"name": "tokenId",
									"type": "uint256"
								},
								{
									"internalType": "uint256",
									"name": "price",
									"type": "uint256"
								},
								{
									"internalType": "address payable",
									"name": "seller",
									"type": "address"
								},
								{
									"internalType": "address payable",
									"name": "owner",
									"type": "address"
								},
								{
									"internalType": "address payable",
									"name": "creator",
									"type": "address"
								},
								{
									"internalType": "bool",
									"name": "listed",
									"type": "bool"
								}
							],
							"internalType": "struct GeekNftMarketPlace.NFT[]",
							"name": "",
							"type": "tuple[]"
						}
					],
					"stateMutability": "view",
					"type": "function"
				},
				{
					"inputs": [],
					"name": "getMyOwnedNfts",
					"outputs": [
						{
							"components": [
								{
									"internalType": "address",
									"name": "nftContract",
									"type": "address"
								},
								{
									"internalType": "uint256",
									"name": "tokenId",
									"type": "uint256"
								},
								{
									"internalType": "uint256",
									"name": "price",
									"type": "uint256"
								},
								{
									"internalType": "address payable",
									"name": "seller",
									"type": "address"
								},
								{
									"internalType": "address payable",
									"name": "owner",
									"type": "address"
								},
								{
									"internalType": "address payable",
									"name": "creator",
									"type": "address"
								},
								{
									"internalType": "bool",
									"name": "listed",
									"type": "bool"
								}
							],
							"internalType": "struct GeekNftMarketPlace.NFT[]",
							"name": "",
							"type": "tuple[]"
						}
					],
					"stateMutability": "view",
					"type": "function"
				},
				{
					"inputs": [
						{
							"internalType": "address",
							"name": "",
							"type": "address"
						}
					],
					"name": "getNftByContract",
					"outputs": [
						{
							"components": [
								{
									"internalType": "address",
									"name": "nftContract",
									"type": "address"
								},
								{
									"internalType": "uint256",
									"name": "tokenId",
									"type": "uint256"
								},
								{
									"internalType": "uint256",
									"name": "price",
									"type": "uint256"
								},
								{
									"internalType": "address payable",
									"name": "seller",
									"type": "address"
								},
								{
									"internalType": "address payable",
									"name": "owner",
									"type": "address"
								},
								{
									"internalType": "address payable",
									"name": "creator",
									"type": "address"
								},
								{
									"internalType": "bool",
									"name": "listed",
									"type": "bool"
								}
							],
							"internalType": "struct GeekNftMarketPlace.NFT[]",
							"name": "",
							"type": "tuple[]"
						}
					],
					"stateMutability": "view",
					"type": "function"
				},
				{
					"inputs": [
						{
							"internalType": "address",
							"name": "_nftContract",
							"type": "address"
						},
						{
							"internalType": "uint256",
							"name": "_tokenId",
							"type": "uint256"
						}
					],
					"name": "getOwner",
					"outputs": [
						{
							"internalType": "address",
							"name": "",
							"type": "address"
						}
					],
					"stateMutability": "view",
					"type": "function"
				},
				{
					"inputs": [
						{
							"internalType": "address",
							"name": "_nftContract",
							"type": "address"
						},
						{
							"internalType": "uint256",
							"name": "_tokenId",
							"type": "uint256"
						},
						{
							"internalType": "uint256",
							"name": "_price",
							"type": "uint256"
						}
					],
					"name": "listNFT",
					"outputs": [],
					"stateMutability": "payable",
					"type": "function"
				},
				{
					"inputs": [
						{
							"internalType": "address",
							"name": "_nftContract",
							"type": "address"
						},
						{
							"internalType": "uint256",
							"name": "_tokenId",
							"type": "uint256"
						},
						{
							"internalType": "uint256",
							"name": "_price",
							"type": "uint256"
						}
					],
					"name": "resellNFT",
					"outputs": [],
					"stateMutability": "payable",
					"type": "function"
				}
			],
			"devdoc": {
				"kind": "dev",
				"methods": {},
				"version": 1
			},
			"evm": {
				"assembly": "    /* \"contracts/GeekNftMarketPlace.sol\":297:7200  contract GeekNftMarketPlace is ReentrancyGuard {... */\n  mstore(0x40, 0x80)\n    /* \"contracts/GeekNftMarketPlace.sol\":500:511  0.002 ether */\n  0x071afd498d0000\n    /* \"contracts/GeekNftMarketPlace.sol\":474:511  uint public LISTING_FEE = 0.002 ether */\n  0x03\n  sstore\n    /* \"contracts/GeekNftMarketPlace.sol\":1019:1085  constructor() {... */\n  callvalue\n  dup1\n  iszero\n  tag_1\n  jumpi\n  0x00\n  dup1\n  revert\ntag_1:\n  pop\n    /* \"contracts/RenntrancyGuard.sol\":128:129  1 */\n  0x01\n    /* \"contracts/RenntrancyGuard.sol\":233:240  _status */\n  0x00\n    /* \"contracts/RenntrancyGuard.sol\":233:255  _status = _NOT_ENTERED */\n  dup2\n  swap1\n  sstore\n  pop\n    /* \"contracts/GeekNftMarketPlace.sol\":1067:1077  msg.sender */\n  caller\n    /* \"contracts/GeekNftMarketPlace.sol\":1043:1056  _marketOwwner */\n  0x04\n  0x00\n    /* \"contracts/GeekNftMarketPlace.sol\":1043:1078  _marketOwwner = payable(msg.sender) */\n  0x0100\n  exp\n  dup2\n  sload\n  dup2\n  0xffffffffffffffffffffffffffffffffffffffff\n  mul\n  not\n  and\n  swap1\n  dup4\n  0xffffffffffffffffffffffffffffffffffffffff\n  and\n  mul\n  or\n  swap1\n  sstore\n  pop\n    /* \"contracts/GeekNftMarketPlace.sol\":297:7200  contract GeekNftMarketPlace is ReentrancyGuard {... */\n  dataSize(sub_0)\n  dup1\n  dataOffset(sub_0)\n  0x00\n  codecopy\n  0x00\n  return\nstop\n\nsub_0: assembly {\n        /* \"contracts/GeekNftMarketPlace.sol\":297:7200  contract GeekNftMarketPlace is ReentrancyGuard {... */\n      mstore(0x40, 0x80)\n      jumpi(tag_1, lt(calldatasize, 0x04))\n      shr(0xe0, calldataload(0x00))\n      dup1\n      0x8492095a\n      gt\n      tag_13\n      jumpi\n      dup1\n      0x8492095a\n      eq\n      tag_7\n      jumpi\n      dup1\n      0x8d6cb3fb\n      eq\n      tag_8\n      jumpi\n      dup1\n      0xa46b5c5a\n      eq\n      tag_9\n      jumpi\n      dup1\n      0xad05f1b4\n      eq\n      tag_10\n      jumpi\n      dup1\n      0xb8fe6abe\n      eq\n      tag_11\n      jumpi\n      dup1\n      0xe7d90feb\n      eq\n      tag_12\n      jumpi\n      jump(tag_1)\n    tag_13:\n      dup1\n      0x04935694\n      eq\n      tag_2\n      jumpi\n      dup1\n      0x1f4cc4db\n      eq\n      tag_3\n      jumpi\n      dup1\n      0x2b86ae38\n      eq\n      tag_4\n      jumpi\n      dup1\n      0x2f634a90\n      eq\n      tag_5\n      jumpi\n      dup1\n      0x4ddf4f8f\n      eq\n      tag_6\n      jumpi\n    tag_1:\n      0x00\n      dup1\n      revert\n        /* \"contracts/GeekNftMarketPlace.sol\":2866:3641  function resellNFT(address _nftContract, uint _tokenId, uint _price) public payable nonReentrant{... */\n    tag_2:\n      tag_14\n      0x04\n      dup1\n      calldatasize\n      sub\n      dup2\n      add\n      swap1\n      tag_15\n      swap2\n      swap1\n      tag_16\n      jump\t// in\n    tag_15:\n      tag_17\n      jump\t// in\n    tag_14:\n      stop\n        /* \"contracts/GeekNftMarketPlace.sol\":4948:5577  function getMyListedNfts() public view returns (NFT[] memory) {... */\n    tag_3:\n      callvalue\n      dup1\n      iszero\n      tag_18\n      jumpi\n      0x00\n      dup1\n      revert\n    tag_18:\n      pop\n      tag_19\n      tag_20\n      jump\t// in\n    tag_19:\n      mload(0x40)\n      tag_21\n      swap2\n      swap1\n      tag_22\n      jump\t// in\n    tag_21:\n      mload(0x40)\n      dup1\n      swap2\n      sub\n      swap1\n      return\n        /* \"contracts/GeekNftMarketPlace.sol\":474:511  uint public LISTING_FEE = 0.002 ether */\n    tag_4:\n      callvalue\n      dup1\n      iszero\n      tag_23\n      jumpi\n      0x00\n      dup1\n      revert\n    tag_23:\n      pop\n      tag_24\n      tag_25\n      jump\t// in\n    tag_24:\n      mload(0x40)\n      tag_26\n      swap2\n      swap1\n      tag_27\n      jump\t// in\n    tag_26:\n      mload(0x40)\n      dup1\n      swap2\n      sub\n      swap1\n      return\n        /* \"contracts/GeekNftMarketPlace.sol\":1183:1339  function getOwner(address _nftContract, uint _tokenId) public view returns (address){... */\n    tag_5:\n      callvalue\n      dup1\n      iszero\n      tag_28\n      jumpi\n      0x00\n      dup1\n      revert\n    tag_28:\n      pop\n      tag_29\n      0x04\n      dup1\n      calldatasize\n      sub\n      dup2\n      add\n      swap1\n      tag_30\n      swap2\n      swap1\n      tag_31\n      jump\t// in\n    tag_30:\n      tag_32\n      jump\t// in\n    tag_29:\n      mload(0x40)\n      tag_33\n      swap2\n      swap1\n      tag_34\n      jump\t// in\n    tag_33:\n      mload(0x40)\n      dup1\n      swap2\n      sub\n      swap1\n      return\n        /* \"contracts/GeekNftMarketPlace.sol\":2124:2811  function buyNft(address _nftContract, uint _tokenId) public payable nonReentrant{... */\n    tag_6:\n      tag_35\n      0x04\n      dup1\n      calldatasize\n      sub\n      dup2\n      add\n      swap1\n      tag_36\n      swap2\n      swap1\n      tag_31\n      jump\t// in\n    tag_36:\n      tag_37\n      jump\t// in\n    tag_35:\n      stop\n        /* \"contracts/GeekNftMarketPlace.sol\":4311:4907  function getMyCreatedNfts() public view returns (NFT[] memory) {... */\n    tag_7:\n      callvalue\n      dup1\n      iszero\n      tag_38\n      jumpi\n      0x00\n      dup1\n      revert\n    tag_38:\n      pop\n      tag_39\n      tag_40\n      jump\t// in\n    tag_39:\n      mload(0x40)\n      tag_41\n      swap2\n      swap1\n      tag_22\n      jump\t// in\n    tag_41:\n      mload(0x40)\n      dup1\n      swap2\n      sub\n      swap1\n      return\n        /* \"contracts/GeekNftMarketPlace.sol\":6261:6727  function getListedNfts() public view returns (NFT[] memory) {... */\n    tag_8:\n      callvalue\n      dup1\n      iszero\n      tag_42\n      jumpi\n      0x00\n      dup1\n      revert\n    tag_42:\n      pop\n      tag_43\n      tag_44\n      jump\t// in\n    tag_43:\n      mload(0x40)\n      tag_45\n      swap2\n      swap1\n      tag_22\n      jump\t// in\n    tag_45:\n      mload(0x40)\n      dup1\n      swap2\n      sub\n      swap1\n      return\n        /* \"contracts/GeekNftMarketPlace.sol\":3680:4270  function getMyOwnedNfts() public view returns (NFT[] memory) {... */\n    tag_9:\n      callvalue\n      dup1\n      iszero\n      tag_46\n      jumpi\n      0x00\n      dup1\n      revert\n    tag_46:\n      pop\n      tag_47\n      tag_48\n      jump\t// in\n    tag_47:\n      mload(0x40)\n      tag_49\n      swap2\n      swap1\n      tag_22\n      jump\t// in\n    tag_49:\n      mload(0x40)\n      dup1\n      swap2\n      sub\n      swap1\n      return\n        /* \"contracts/GeekNftMarketPlace.sol\":1384:2100  function listNFT(address _nftContract, uint _tokenId, uint _price) public payable nonReentrant{... */\n    tag_10:\n      tag_50\n      0x04\n      dup1\n      calldatasize\n      sub\n      dup2\n      add\n      swap1\n      tag_51\n      swap2\n      swap1\n      tag_16\n      jump\t// in\n    tag_51:\n      tag_52\n      jump\t// in\n    tag_50:\n      stop\n        /* \"contracts/GeekNftMarketPlace.sol\":1091:1177  function getListingFee() public view returns (uint){... */\n    tag_11:\n      callvalue\n      dup1\n      iszero\n      tag_53\n      jumpi\n      0x00\n      dup1\n      revert\n    tag_53:\n      pop\n      tag_54\n      tag_55\n      jump\t// in\n    tag_54:\n      mload(0x40)\n      tag_56\n      swap2\n      swap1\n      tag_27\n      jump\t// in\n    tag_56:\n      mload(0x40)\n      dup1\n      swap2\n      sub\n      swap1\n      return\n        /* \"contracts/GeekNftMarketPlace.sol\":5618:6255  function getNftByContract(address) public view returns (NFT[] memory) {... */\n    tag_12:\n      callvalue\n      dup1\n      iszero\n      tag_57\n      jumpi\n      0x00\n      dup1\n      revert\n    tag_57:\n      pop\n      tag_58\n      0x04\n      dup1\n      calldatasize\n      sub\n      dup2\n      add\n      swap1\n      tag_59\n      swap2\n      swap1\n      tag_60\n      jump\t// in\n    tag_59:\n      tag_61\n      jump\t// in\n    tag_58:\n      mload(0x40)\n      tag_62\n      swap2\n      swap1\n      tag_22\n      jump\t// in\n    tag_62:\n      mload(0x40)\n      dup1\n      swap2\n      sub\n      swap1\n      return\n        /* \"contracts/GeekNftMarketPlace.sol\":2866:3641  function resellNFT(address _nftContract, uint _tokenId, uint _price) public payable nonReentrant{... */\n    tag_17:\n        /* \"contracts/RenntrancyGuard.sol\":171:172  2 */\n      0x02\n        /* \"contracts/RenntrancyGuard.sol\":310:317  _status */\n      sload(0x00)\n        /* \"contracts/RenntrancyGuard.sol\":310:329  _status != _ENTERED */\n      eq\n      iszero\n        /* \"contracts/RenntrancyGuard.sol\":302:365  require(_status != _ENTERED, \"ReentrancyGuard: reentrant call\") */\n      tag_64\n      jumpi\n      mload(0x40)\n      0x08c379a000000000000000000000000000000000000000000000000000000000\n      dup2\n      mstore\n      0x04\n      add\n      tag_65\n      swap1\n      tag_66\n      jump\t// in\n    tag_65:\n      mload(0x40)\n      dup1\n      swap2\n      sub\n      swap1\n      revert\n    tag_64:\n        /* \"contracts/RenntrancyGuard.sol\":171:172  2 */\n      0x02\n        /* \"contracts/RenntrancyGuard.sol\":375:382  _status */\n      0x00\n        /* \"contracts/RenntrancyGuard.sol\":375:393  _status = _ENTERED */\n      dup2\n      swap1\n      sstore\n      pop\n        /* \"contracts/GeekNftMarketPlace.sol\":2989:2990  0 */\n      0x00\n        /* \"contracts/GeekNftMarketPlace.sol\":2980:2986  _price */\n      dup2\n        /* \"contracts/GeekNftMarketPlace.sol\":2980:2990  _price > 0 */\n      gt\n        /* \"contracts/GeekNftMarketPlace.sol\":2972:3023  require(_price > 0, \"Price must be at least 1 wei\") */\n      tag_68\n      jumpi\n      mload(0x40)\n      0x08c379a000000000000000000000000000000000000000000000000000000000\n      dup2\n      mstore\n      0x04\n      add\n      tag_69\n      swap1\n      tag_70\n      jump\t// in\n    tag_69:\n      mload(0x40)\n      dup1\n      swap2\n      sub\n      swap1\n      revert\n    tag_68:\n        /* \"contracts/GeekNftMarketPlace.sol\":3054:3065  LISTING_FEE */\n      sload(0x03)\n        /* \"contracts/GeekNftMarketPlace.sol\":3041:3050  msg.value */\n      callvalue\n        /* \"contracts/GeekNftMarketPlace.sol\":3041:3065  msg.value == LISTING_FEE */\n      eq\n        /* \"contracts/GeekNftMarketPlace.sol\":3033:3102  require(msg.value == LISTING_FEE, \"Not enough ether for listing fee\") */\n      tag_71\n      jumpi\n      mload(0x40)\n      0x08c379a000000000000000000000000000000000000000000000000000000000\n      dup2\n      mstore\n      0x04\n      add\n      tag_72\n      swap1\n      tag_73\n      jump\t// in\n    tag_72:\n      mload(0x40)\n      dup1\n      swap2\n      sub\n      swap1\n      revert\n    tag_71:\n        /* \"contracts/GeekNftMarketPlace.sol\":3113:3122  int index */\n      0x00\n        /* \"contracts/GeekNftMarketPlace.sol\":3144:3174  getNFT(_nftContract, _tokenId) */\n      tag_74\n        /* \"contracts/GeekNftMarketPlace.sol\":3151:3163  _nftContract */\n      dup5\n        /* \"contracts/GeekNftMarketPlace.sol\":3165:3173  _tokenId */\n      dup5\n        /* \"contracts/GeekNftMarketPlace.sol\":3144:3150  getNFT */\n      tag_75\n        /* \"contracts/GeekNftMarketPlace.sol\":3144:3174  getNFT(_nftContract, _tokenId) */\n      jump\t// in\n    tag_74:\n        /* \"contracts/GeekNftMarketPlace.sol\":3132:3174  (, index) = getNFT(_nftContract, _tokenId) */\n      swap1\n      pop\n      dup1\n      swap2\n      pop\n      pop\n        /* \"contracts/GeekNftMarketPlace.sol\":3201:3203  -1 */\n      0xffffffffffffffffffffffffffffffffffffffffffffffffffffffffffffffff\n        /* \"contracts/GeekNftMarketPlace.sol\":3192:3197  index */\n      dup2\n        /* \"contracts/GeekNftMarketPlace.sol\":3192:3203  index != -1 */\n      eq\n      iszero\n        /* \"contracts/GeekNftMarketPlace.sol\":3184:3221  require(index != -1, \"Nft not found\") */\n      tag_76\n      jumpi\n      mload(0x40)\n      0x08c379a000000000000000000000000000000000000000000000000000000000\n      dup2\n      mstore\n      0x04\n      add\n      tag_77\n      swap1\n      tag_78\n      jump\t// in\n    tag_77:\n      mload(0x40)\n      dup1\n      swap2\n      sub\n      swap1\n      revert\n    tag_76:\n        /* \"contracts/GeekNftMarketPlace.sol\":3249:3261  _nftContract */\n      dup4\n        /* \"contracts/GeekNftMarketPlace.sol\":3232:3275  GeekNftInterface(_nftContract).transferFrom */\n      0xffffffffffffffffffffffffffffffffffffffff\n      and\n      0x23b872dd\n        /* \"contracts/GeekNftMarketPlace.sol\":3276:3286  msg.sender */\n      caller\n        /* \"contracts/GeekNftMarketPlace.sol\":3296:3300  this */\n      address\n        /* \"contracts/GeekNftMarketPlace.sol\":3303:3311  _tokenId */\n      dup7\n        /* \"contracts/GeekNftMarketPlace.sol\":3232:3312  GeekNftInterface(_nftContract).transferFrom(msg.sender, address(this), _tokenId) */\n      mload(0x40)\n      dup5\n      0xffffffff\n      and\n      0xe0\n      shl\n      dup2\n      mstore\n      0x04\n      add\n      tag_79\n      swap4\n      swap3\n      swap2\n      swap1\n      tag_80\n      jump\t// in\n    tag_79:\n      0x00\n      mload(0x40)\n      dup1\n      dup4\n      sub\n      dup2\n      0x00\n      dup8\n      dup1\n      extcodesize\n      iszero\n      dup1\n      iszero\n      tag_81\n      jumpi\n      0x00\n      dup1\n      revert\n    tag_81:\n      pop\n      gas\n      call\n      iszero\n      dup1\n      iszero\n      tag_83\n      jumpi\n      returndatasize\n      0x00\n      dup1\n      returndatacopy\n      revert(0x00, returndatasize)\n    tag_83:\n      pop\n      pop\n      pop\n      pop\n        /* \"contracts/GeekNftMarketPlace.sol\":3358:3368  msg.sender */\n      caller\n        /* \"contracts/GeekNftMarketPlace.sol\":3323:3327  nfts */\n      0x05\n        /* \"contracts/GeekNftMarketPlace.sol\":3333:3338  index */\n      dup3\n        /* \"contracts/GeekNftMarketPlace.sol\":3323:3340  nfts[uint(index)] */\n      dup2\n      sload\n      dup2\n      lt\n      tag_84\n      jumpi\n      tag_85\n      tag_86\n      jump\t// in\n    tag_85:\n    tag_84:\n      swap1\n      0x00\n      mstore\n      keccak256(0x00, 0x20)\n      swap1\n      0x06\n      mul\n      add\n        /* \"contracts/GeekNftMarketPlace.sol\":3323:3347  nfts[uint(index)].seller */\n      0x03\n      add\n      0x00\n        /* \"contracts/GeekNftMarketPlace.sol\":3323:3369  nfts[uint(index)].seller = payable(msg.sender) */\n      0x0100\n      exp\n      dup2\n      sload\n      dup2\n      0xffffffffffffffffffffffffffffffffffffffff\n      mul\n      not\n      and\n      swap1\n      dup4\n      0xffffffffffffffffffffffffffffffffffffffff\n      and\n      mul\n      or\n      swap1\n      sstore\n      pop\n        /* \"contracts/GeekNftMarketPlace.sol\":3421:3425  this */\n      address\n        /* \"contracts/GeekNftMarketPlace.sol\":3379:3383  nfts */\n      0x05\n        /* \"contracts/GeekNftMarketPlace.sol\":3389:3394  index */\n      dup3\n        /* \"contracts/GeekNftMarketPlace.sol\":3379:3396  nfts[uint(index)] */\n      dup2\n      sload\n      dup2\n      lt\n      tag_88\n      jumpi\n      tag_89\n      tag_86\n      jump\t// in\n    tag_89:\n    tag_88:\n      swap1\n      0x00\n      mstore\n      keccak256(0x00, 0x20)\n      swap1\n      0x06\n      mul\n      add\n        /* \"contracts/GeekNftMarketPlace.sol\":3379:3402  nfts[uint(index)].owner */\n      0x04\n      add\n      0x00\n        /* \"contracts/GeekNftMarketPlace.sol\":3379:3427  nfts[uint(index)].owner = payable(address(this)) */\n      0x0100\n      exp\n      dup2\n      sload\n      dup2\n      0xffffffffffffffffffffffffffffffffffffffff\n      mul\n      not\n      and\n      swap1\n      dup4\n      0xffffffffffffffffffffffffffffffffffffffff\n      and\n      mul\n      or\n      swap1\n      sstore\n      pop\n        /* \"contracts/GeekNftMarketPlace.sol\":3464:3468  true */\n      0x01\n        /* \"contracts/GeekNftMarketPlace.sol\":3437:3441  nfts */\n      0x05\n        /* \"contracts/GeekNftMarketPlace.sol\":3447:3452  index */\n      dup3\n        /* \"contracts/GeekNftMarketPlace.sol\":3437:3454  nfts[uint(index)] */\n      dup2\n      sload\n      dup2\n      lt\n      tag_91\n      jumpi\n      tag_92\n      tag_86\n      jump\t// in\n    tag_92:\n    tag_91:\n      swap1\n      0x00\n      mstore\n      keccak256(0x00, 0x20)\n      swap1\n      0x06\n      mul\n      add\n        /* \"contracts/GeekNftMarketPlace.sol\":3437:3461  nfts[uint(index)].listed */\n      0x05\n      add\n      0x14\n        /* \"contracts/GeekNftMarketPlace.sol\":3437:3468  nfts[uint(index)].listed = true */\n      0x0100\n      exp\n      dup2\n      sload\n      dup2\n      0xff\n      mul\n      not\n      and\n      swap1\n      dup4\n      iszero\n      iszero\n      mul\n      or\n      swap1\n      sstore\n      pop\n        /* \"contracts/GeekNftMarketPlace.sol\":3504:3510  _price */\n      dup2\n        /* \"contracts/GeekNftMarketPlace.sol\":3478:3482  nfts */\n      0x05\n        /* \"contracts/GeekNftMarketPlace.sol\":3488:3493  index */\n      dup3\n        /* \"contracts/GeekNftMarketPlace.sol\":3478:3495  nfts[uint(index)] */\n      dup2\n      sload\n      dup2\n      lt\n      tag_94\n      jumpi\n      tag_95\n      tag_86\n      jump\t// in\n    tag_95:\n    tag_94:\n      swap1\n      0x00\n      mstore\n      keccak256(0x00, 0x20)\n      swap1\n      0x06\n      mul\n      add\n        /* \"contracts/GeekNftMarketPlace.sol\":3478:3501  nfts[uint(index)].price */\n      0x02\n      add\n        /* \"contracts/GeekNftMarketPlace.sol\":3478:3510  nfts[uint(index)].price = _price */\n      dup2\n      swap1\n      sstore\n      pop\n        /* \"contracts/GeekNftMarketPlace.sol\":3521:3542  _nftsSold.decrement() */\n      tag_97\n        /* \"contracts/GeekNftMarketPlace.sol\":3521:3530  _nftsSold */\n      0x01\n        /* \"contracts/GeekNftMarketPlace.sol\":3521:3540  _nftsSold.decrement */\n      tag_98\n        /* \"contracts/GeekNftMarketPlace.sol\":3521:3542  _nftsSold.decrement() */\n      jump\t// in\n    tag_97:\n        /* \"contracts/GeekNftMarketPlace.sol\":3620:3624  this */\n      address\n        /* \"contracts/GeekNftMarketPlace.sol\":3566:3634  NFTListed(_nftContract, _tokenId, msg.sender, address(this), _price) */\n      0xffffffffffffffffffffffffffffffffffffffff\n      and\n        /* \"contracts/GeekNftMarketPlace.sol\":3600:3610  msg.sender */\n      caller\n        /* \"contracts/GeekNftMarketPlace.sol\":3566:3634  NFTListed(_nftContract, _tokenId, msg.sender, address(this), _price) */\n      0xffffffffffffffffffffffffffffffffffffffff\n      and\n      0xa0c6c0d02d86fdacecbaa5fdf5894bab204e31a778250474108540733a9b8d19\n        /* \"contracts/GeekNftMarketPlace.sol\":3576:3588  _nftContract */\n      dup7\n        /* \"contracts/GeekNftMarketPlace.sol\":3590:3598  _tokenId */\n      dup7\n        /* \"contracts/GeekNftMarketPlace.sol\":3627:3633  _price */\n      dup7\n        /* \"contracts/GeekNftMarketPlace.sol\":3566:3634  NFTListed(_nftContract, _tokenId, msg.sender, address(this), _price) */\n      mload(0x40)\n      tag_99\n      swap4\n      swap3\n      swap2\n      swap1\n      tag_100\n      jump\t// in\n    tag_99:\n      mload(0x40)\n      dup1\n      swap2\n      sub\n      swap1\n      log3\n        /* \"contracts/GeekNftMarketPlace.sol\":2962:3641  {... */\n      pop\n        /* \"contracts/RenntrancyGuard.sol\":128:129  1 */\n      0x01\n        /* \"contracts/RenntrancyGuard.sol\":414:421  _status */\n      0x00\n        /* \"contracts/RenntrancyGuard.sol\":414:436  _status = _NOT_ENTERED */\n      dup2\n      swap1\n      sstore\n      pop\n        /* \"contracts/GeekNftMarketPlace.sol\":2866:3641  function resellNFT(address _nftContract, uint _tokenId, uint _price) public payable nonReentrant{... */\n      pop\n      pop\n      pop\n      jump\t// out\n        /* \"contracts/GeekNftMarketPlace.sol\":4948:5577  function getMyListedNfts() public view returns (NFT[] memory) {... */\n    tag_20:\n        /* \"contracts/GeekNftMarketPlace.sol\":4996:5008  NFT[] memory */\n      0x60\n        /* \"contracts/GeekNftMarketPlace.sol\":5020:5034  uint nftsCount */\n      0x00\n        /* \"contracts/GeekNftMarketPlace.sol\":5037:5057  _nftsCount.current() */\n      tag_102\n        /* \"contracts/GeekNftMarketPlace.sol\":5037:5047  _nftsCount */\n      0x02\n        /* \"contracts/GeekNftMarketPlace.sol\":5037:5055  _nftsCount.current */\n      tag_103\n        /* \"contracts/GeekNftMarketPlace.sol\":5037:5057  _nftsCount.current() */\n      jump\t// in\n    tag_102:\n        /* \"contracts/GeekNftMarketPlace.sol\":5020:5057  uint nftsCount = _nftsCount.current() */\n      swap1\n      pop\n        /* \"contracts/GeekNftMarketPlace.sol\":5067:5083  uint myNftsCount */\n      0x00\n        /* \"contracts/GeekNftMarketPlace.sol\":5102:5108  uint i */\n      dup1\n        /* \"contracts/GeekNftMarketPlace.sol\":5097:5256  for (uint i = 0; i < nftsCount; i++) {... */\n    tag_104:\n        /* \"contracts/GeekNftMarketPlace.sol\":5118:5127  nftsCount */\n      dup3\n        /* \"contracts/GeekNftMarketPlace.sol\":5114:5115  i */\n      dup2\n        /* \"contracts/GeekNftMarketPlace.sol\":5114:5127  i < nftsCount */\n      lt\n        /* \"contracts/GeekNftMarketPlace.sol\":5097:5256  for (uint i = 0; i < nftsCount; i++) {... */\n      iszero\n      tag_105\n      jumpi\n        /* \"contracts/GeekNftMarketPlace.sol\":5169:5179  msg.sender */\n      caller\n        /* \"contracts/GeekNftMarketPlace.sol\":5151:5179  nfts[i].seller == msg.sender */\n      0xffffffffffffffffffffffffffffffffffffffff\n      and\n        /* \"contracts/GeekNftMarketPlace.sol\":5151:5155  nfts */\n      0x05\n        /* \"contracts/GeekNftMarketPlace.sol\":5156:5157  i */\n      dup3\n        /* \"contracts/GeekNftMarketPlace.sol\":5151:5158  nfts[i] */\n      dup2\n      sload\n      dup2\n      lt\n      tag_107\n      jumpi\n      tag_108\n      tag_86\n      jump\t// in\n    tag_108:\n    tag_107:\n      swap1\n      0x00\n      mstore\n      keccak256(0x00, 0x20)\n      swap1\n      0x06\n      mul\n      add\n        /* \"contracts/GeekNftMarketPlace.sol\":5151:5165  nfts[i].seller */\n      0x03\n      add\n      0x00\n      swap1\n      sload\n      swap1\n      0x0100\n      exp\n      swap1\n      div\n      0xffffffffffffffffffffffffffffffffffffffff\n      and\n        /* \"contracts/GeekNftMarketPlace.sol\":5151:5179  nfts[i].seller == msg.sender */\n      0xffffffffffffffffffffffffffffffffffffffff\n      and\n      eq\n        /* \"contracts/GeekNftMarketPlace.sol\":5151:5197  nfts[i].seller == msg.sender && nfts[i].listed */\n      dup1\n      iszero\n      tag_110\n      jumpi\n      pop\n        /* \"contracts/GeekNftMarketPlace.sol\":5183:5187  nfts */\n      0x05\n        /* \"contracts/GeekNftMarketPlace.sol\":5188:5189  i */\n      dup2\n        /* \"contracts/GeekNftMarketPlace.sol\":5183:5190  nfts[i] */\n      dup2\n      sload\n      dup2\n      lt\n      tag_111\n      jumpi\n      tag_112\n      tag_86\n      jump\t// in\n    tag_112:\n    tag_111:\n      swap1\n      0x00\n      mstore\n      keccak256(0x00, 0x20)\n      swap1\n      0x06\n      mul\n      add\n        /* \"contracts/GeekNftMarketPlace.sol\":5183:5197  nfts[i].listed */\n      0x05\n      add\n      0x14\n      swap1\n      sload\n      swap1\n      0x0100\n      exp\n      swap1\n      div\n      0xff\n      and\n        /* \"contracts/GeekNftMarketPlace.sol\":5151:5197  nfts[i].seller == msg.sender && nfts[i].listed */\n    tag_110:\n        /* \"contracts/GeekNftMarketPlace.sol\":5148:5246  if(nfts[i].seller == msg.sender && nfts[i].listed) {... */\n      iszero\n      tag_114\n      jumpi\n        /* \"contracts/GeekNftMarketPlace.sol\":5217:5231  myNftsCount ++ */\n      dup2\n      dup1\n      tag_115\n      swap1\n      tag_116\n      jump\t// in\n    tag_115:\n      swap3\n      pop\n      pop\n        /* \"contracts/GeekNftMarketPlace.sol\":5148:5246  if(nfts[i].seller == msg.sender && nfts[i].listed) {... */\n    tag_114:\n        /* \"contracts/GeekNftMarketPlace.sol\":5129:5132  i++ */\n      dup1\n      dup1\n      tag_117\n      swap1\n      tag_116\n      jump\t// in\n    tag_117:\n      swap2\n      pop\n      pop\n        /* \"contracts/GeekNftMarketPlace.sol\":5097:5256  for (uint i = 0; i < nftsCount; i++) {... */\n      jump(tag_104)\n    tag_105:\n      pop\n        /* \"contracts/GeekNftMarketPlace.sol\":5266:5285  NFT[] memory myNfts */\n      0x00\n        /* \"contracts/GeekNftMarketPlace.sol\":5298:5309  myNftsCount */\n      dup2\n        /* \"contracts/GeekNftMarketPlace.sol\":5288:5310  new NFT[](myNftsCount) */\n      0xffffffffffffffff\n      dup2\n      gt\n      iszero\n      tag_118\n      jumpi\n      tag_119\n      tag_120\n      jump\t// in\n    tag_119:\n    tag_118:\n      mload(0x40)\n      swap1\n      dup1\n      dup3\n      mstore\n      dup1\n      0x20\n      mul\n      0x20\n      add\n      dup3\n      add\n      0x40\n      mstore\n      dup1\n      iszero\n      tag_121\n      jumpi\n      dup2\n      0x20\n      add\n    tag_122:\n      tag_123\n      tag_124\n      jump\t// in\n    tag_123:\n      dup2\n      mstore\n      0x20\n      add\n      swap1\n      0x01\n      swap1\n      sub\n      swap1\n      dup2\n      tag_122\n      jumpi\n      swap1\n      pop\n    tag_121:\n      pop\n        /* \"contracts/GeekNftMarketPlace.sol\":5266:5310  NFT[] memory myNfts = new NFT[](myNftsCount) */\n      swap1\n      pop\n        /* \"contracts/GeekNftMarketPlace.sol\":5320:5333  uint nftIndex */\n      0x00\n        /* \"contracts/GeekNftMarketPlace.sol\":5352:5358  uint i */\n      dup1\n        /* \"contracts/GeekNftMarketPlace.sol\":5347:5547  for (uint i = 0; i < nftsCount; i++) {... */\n    tag_125:\n        /* \"contracts/GeekNftMarketPlace.sol\":5368:5377  nftsCount */\n      dup5\n        /* \"contracts/GeekNftMarketPlace.sol\":5364:5365  i */\n      dup2\n        /* \"contracts/GeekNftMarketPlace.sol\":5364:5377  i < nftsCount */\n      lt\n        /* \"contracts/GeekNftMarketPlace.sol\":5347:5547  for (uint i = 0; i < nftsCount; i++) {... */\n      iszero\n      tag_126\n      jumpi\n        /* \"contracts/GeekNftMarketPlace.sol\":5419:5429  msg.sender */\n      caller\n        /* \"contracts/GeekNftMarketPlace.sol\":5401:5429  nfts[i].seller == msg.sender */\n      0xffffffffffffffffffffffffffffffffffffffff\n      and\n        /* \"contracts/GeekNftMarketPlace.sol\":5401:5405  nfts */\n      0x05\n        /* \"contracts/GeekNftMarketPlace.sol\":5406:5407  i */\n      dup3\n        /* \"contracts/GeekNftMarketPlace.sol\":5401:5408  nfts[i] */\n      dup2\n      sload\n      dup2\n      lt\n      tag_128\n      jumpi\n      tag_129\n      tag_86\n      jump\t// in\n    tag_129:\n    tag_128:\n      swap1\n      0x00\n      mstore\n      keccak256(0x00, 0x20)\n      swap1\n      0x06\n      mul\n      add\n        /* \"contracts/GeekNftMarketPlace.sol\":5401:5415  nfts[i].seller */\n      0x03\n      add\n      0x00\n      swap1\n      sload\n      swap1\n      0x0100\n      exp\n      swap1\n      div\n      0xffffffffffffffffffffffffffffffffffffffff\n      and\n        /* \"contracts/GeekNftMarketPlace.sol\":5401:5429  nfts[i].seller == msg.sender */\n      0xffffffffffffffffffffffffffffffffffffffff\n      and\n      eq\n        /* \"contracts/GeekNftMarketPlace.sol\":5401:5447  nfts[i].seller == msg.sender && nfts[i].listed */\n      dup1\n      iszero\n      tag_131\n      jumpi\n      pop\n        /* \"contracts/GeekNftMarketPlace.sol\":5433:5437  nfts */\n      0x05\n        /* \"contracts/GeekNftMarketPlace.sol\":5438:5439  i */\n      dup2\n        /* \"contracts/GeekNftMarketPlace.sol\":5433:5440  nfts[i] */\n      dup2\n      sload\n      dup2\n      lt\n      tag_132\n      jumpi\n      tag_133\n      tag_86\n      jump\t// in\n    tag_133:\n    tag_132:\n      swap1\n      0x00\n      mstore\n      keccak256(0x00, 0x20)\n      swap1\n      0x06\n      mul\n      add\n        /* \"contracts/GeekNftMarketPlace.sol\":5433:5447  nfts[i].listed */\n      0x05\n      add\n      0x14\n      swap1\n      sload\n      swap1\n      0x0100\n      exp\n      swap1\n      div\n      0xff\n      and\n        /* \"contracts/GeekNftMarketPlace.sol\":5401:5447  nfts[i].seller == msg.sender && nfts[i].listed */\n    tag_131:\n        /* \"contracts/GeekNftMarketPlace.sol\":5398:5537  if(nfts[i].seller == msg.sender && nfts[i].listed) {... */\n      iszero\n      tag_135\n      jumpi\n        /* \"contracts/GeekNftMarketPlace.sol\":5486:5490  nfts */\n      0x05\n        /* \"contracts/GeekNftMarketPlace.sol\":5491:5492  i */\n      dup2\n        /* \"contracts/GeekNftMarketPlace.sol\":5486:5493  nfts[i] */\n      dup2\n      sload\n      dup2\n      lt\n      tag_136\n      jumpi\n      tag_137\n      tag_86\n      jump\t// in\n    tag_137:\n    tag_136:\n      swap1\n      0x00\n      mstore\n      keccak256(0x00, 0x20)\n      swap1\n      0x06\n      mul\n      add\n        /* \"contracts/GeekNftMarketPlace.sol\":5467:5493  myNfts[nftIndex] = nfts[i] */\n      mload(0x40)\n      dup1\n      0xe0\n      add\n      0x40\n      mstore\n      swap1\n      dup2\n      0x00\n      dup3\n      add\n      0x00\n      swap1\n      sload\n      swap1\n      0x0100\n      exp\n      swap1\n      div\n      0xffffffffffffffffffffffffffffffffffffffff\n      and\n      0xffffffffffffffffffffffffffffffffffffffff\n      and\n      0xffffffffffffffffffffffffffffffffffffffff\n      and\n      dup2\n      mstore\n      0x20\n      add\n      0x01\n      dup3\n      add\n      sload\n      dup2\n      mstore\n      0x20\n      add\n      0x02\n      dup3\n      add\n      sload\n      dup2\n      mstore\n      0x20\n      add\n      0x03\n      dup3\n      add\n      0x00\n      swap1\n      sload\n      swap1\n      0x0100\n      exp\n      swap1\n      div\n      0xffffffffffffffffffffffffffffffffffffffff\n      and\n      0xffffffffffffffffffffffffffffffffffffffff\n      and\n      0xffffffffffffffffffffffffffffffffffffffff\n      and\n      dup2\n      mstore\n      0x20\n      add\n      0x04\n      dup3\n      add\n      0x00\n      swap1\n      sload\n      swap1\n      0x0100\n      exp\n      swap1\n      div\n      0xffffffffffffffffffffffffffffffffffffffff\n      and\n      0xffffffffffffffffffffffffffffffffffffffff\n      and\n      0xffffffffffffffffffffffffffffffffffffffff\n      and\n      dup2\n      mstore\n      0x20\n      add\n      0x05\n      dup3\n      add\n      0x00\n      swap1\n      sload\n      swap1\n      0x0100\n      exp\n      swap1\n      div\n      0xffffffffffffffffffffffffffffffffffffffff\n      and\n      0xffffffffffffffffffffffffffffffffffffffff\n      and\n      0xffffffffffffffffffffffffffffffffffffffff\n      and\n      dup2\n      mstore\n      0x20\n      add\n      0x05\n      dup3\n      add\n      0x14\n      swap1\n      sload\n      swap1\n      0x0100\n      exp\n      swap1\n      div\n      0xff\n      and\n      iszero\n      iszero\n      iszero\n      iszero\n      dup2\n      mstore\n      pop\n      pop\n        /* \"contracts/GeekNftMarketPlace.sol\":5467:5473  myNfts */\n      dup4\n        /* \"contracts/GeekNftMarketPlace.sol\":5474:5482  nftIndex */\n      dup4\n        /* \"contracts/GeekNftMarketPlace.sol\":5467:5483  myNfts[nftIndex] */\n      dup2\n      mload\n      dup2\n      lt\n      tag_139\n      jumpi\n      tag_140\n      tag_86\n      jump\t// in\n    tag_140:\n    tag_139:\n      0x20\n      mul\n      0x20\n      add\n      add\n        /* \"contracts/GeekNftMarketPlace.sol\":5467:5493  myNfts[nftIndex] = nfts[i] */\n      dup2\n      swap1\n      mstore\n      pop\n        /* \"contracts/GeekNftMarketPlace.sol\":5511:5522  nftIndex ++ */\n      dup2\n      dup1\n      tag_141\n      swap1\n      tag_116\n      jump\t// in\n    tag_141:\n      swap3\n      pop\n      pop\n        /* \"contracts/GeekNftMarketPlace.sol\":5398:5537  if(nfts[i].seller == msg.sender && nfts[i].listed) {... */\n    tag_135:\n        /* \"contracts/GeekNftMarketPlace.sol\":5379:5382  i++ */\n      dup1\n      dup1\n      tag_142\n      swap1\n      tag_116\n      jump\t// in\n    tag_142:\n      swap2\n      pop\n      pop\n        /* \"contracts/GeekNftMarketPlace.sol\":5347:5547  for (uint i = 0; i < nftsCount; i++) {... */\n      jump(tag_125)\n    tag_126:\n      pop\n        /* \"contracts/GeekNftMarketPlace.sol\":5564:5570  myNfts */\n      dup2\n        /* \"contracts/GeekNftMarketPlace.sol\":5557:5570  return myNfts */\n      swap5\n      pop\n      pop\n      pop\n      pop\n      pop\n        /* \"contracts/GeekNftMarketPlace.sol\":4948:5577  function getMyListedNfts() public view returns (NFT[] memory) {... */\n      swap1\n      jump\t// out\n        /* \"contracts/GeekNftMarketPlace.sol\":474:511  uint public LISTING_FEE = 0.002 ether */\n    tag_25:\n      sload(0x03)\n      dup2\n      jump\t// out\n        /* \"contracts/GeekNftMarketPlace.sol\":1183:1339  function getOwner(address _nftContract, uint _tokenId) public view returns (address){... */\n    tag_32:\n        /* \"contracts/GeekNftMarketPlace.sol\":1259:1266  address */\n      0x00\n        /* \"contracts/GeekNftMarketPlace.sol\":1301:1313  _nftContract */\n      dup3\n        /* \"contracts/GeekNftMarketPlace.sol\":1284:1322  GeekNftInterface(_nftContract).ownerOf */\n      0xffffffffffffffffffffffffffffffffffffffff\n      and\n      0x6352211e\n        /* \"contracts/GeekNftMarketPlace.sol\":1323:1331  _tokenId */\n      dup4\n        /* \"contracts/GeekNftMarketPlace.sol\":1284:1332  GeekNftInterface(_nftContract).ownerOf(_tokenId) */\n      mload(0x40)\n      dup3\n      0xffffffff\n      and\n      0xe0\n      shl\n      dup2\n      mstore\n      0x04\n      add\n      tag_144\n      swap2\n      swap1\n      tag_27\n      jump\t// in\n    tag_144:\n      0x20\n      mload(0x40)\n      dup1\n      dup4\n      sub\n      dup2\n      dup7\n      dup1\n      extcodesize\n      iszero\n      dup1\n      iszero\n      tag_145\n      jumpi\n      0x00\n      dup1\n      revert\n    tag_145:\n      pop\n      gas\n      staticcall\n      iszero\n      dup1\n      iszero\n      tag_147\n      jumpi\n      returndatasize\n      0x00\n      dup1\n      returndatacopy\n      revert(0x00, returndatasize)\n    tag_147:\n      pop\n      pop\n      pop\n      pop\n      mload(0x40)\n      returndatasize\n      not(0x1f)\n      0x1f\n      dup3\n      add\n      and\n      dup3\n      add\n      dup1\n      0x40\n      mstore\n      pop\n      dup2\n      add\n      swap1\n      tag_148\n      swap2\n      swap1\n      tag_149\n      jump\t// in\n    tag_148:\n        /* \"contracts/GeekNftMarketPlace.sol\":1277:1332  return GeekNftInterface(_nftContract).ownerOf(_tokenId) */\n      swap1\n      pop\n        /* \"contracts/GeekNftMarketPlace.sol\":1183:1339  function getOwner(address _nftContract, uint _tokenId) public view returns (address){... */\n      swap3\n      swap2\n      pop\n      pop\n      jump\t// out\n        /* \"contracts/GeekNftMarketPlace.sol\":2124:2811  function buyNft(address _nftContract, uint _tokenId) public payable nonReentrant{... */\n    tag_37:\n        /* \"contracts/RenntrancyGuard.sol\":171:172  2 */\n      0x02\n        /* \"contracts/RenntrancyGuard.sol\":310:317  _status */\n      sload(0x00)\n        /* \"contracts/RenntrancyGuard.sol\":310:329  _status != _ENTERED */\n      eq\n      iszero\n        /* \"contracts/RenntrancyGuard.sol\":302:365  require(_status != _ENTERED, \"ReentrancyGuard: reentrant call\") */\n      tag_151\n      jumpi\n      mload(0x40)\n      0x08c379a000000000000000000000000000000000000000000000000000000000\n      dup2\n      mstore\n      0x04\n      add\n      tag_152\n      swap1\n      tag_66\n      jump\t// in\n    tag_152:\n      mload(0x40)\n      dup1\n      swap2\n      sub\n      swap1\n      revert\n    tag_151:\n        /* \"contracts/RenntrancyGuard.sol\":171:172  2 */\n      0x02\n        /* \"contracts/RenntrancyGuard.sol\":375:382  _status */\n      0x00\n        /* \"contracts/RenntrancyGuard.sol\":375:393  _status = _ENTERED */\n      dup2\n      swap1\n      sstore\n      pop\n        /* \"contracts/GeekNftMarketPlace.sol\":2214:2228  NFT memory nft */\n      tag_154\n      tag_124\n      jump\t// in\n    tag_154:\n        /* \"contracts/GeekNftMarketPlace.sol\":2238:2247  int index */\n      0x00\n        /* \"contracts/GeekNftMarketPlace.sol\":2272:2302  getNFT(_nftContract, _tokenId) */\n      tag_155\n        /* \"contracts/GeekNftMarketPlace.sol\":2279:2291  _nftContract */\n      dup5\n        /* \"contracts/GeekNftMarketPlace.sol\":2293:2301  _tokenId */\n      dup5\n        /* \"contracts/GeekNftMarketPlace.sol\":2272:2278  getNFT */\n      tag_75\n        /* \"contracts/GeekNftMarketPlace.sol\":2272:2302  getNFT(_nftContract, _tokenId) */\n      jump\t// in\n    tag_155:\n        /* \"contracts/GeekNftMarketPlace.sol\":2257:2302  (nft, index) = getNFT(_nftContract, _tokenId) */\n      dup1\n      swap3\n      pop\n      dup2\n      swap4\n      pop\n      pop\n      pop\n        /* \"contracts/GeekNftMarketPlace.sol\":2329:2331  -1 */\n      0xffffffffffffffffffffffffffffffffffffffffffffffffffffffffffffffff\n        /* \"contracts/GeekNftMarketPlace.sol\":2320:2325  index */\n      dup2\n        /* \"contracts/GeekNftMarketPlace.sol\":2320:2331  index != -1 */\n      eq\n      iszero\n        /* \"contracts/GeekNftMarketPlace.sol\":2312:2349  require(index != -1, \"Nft not found\") */\n      tag_156\n      jumpi\n      mload(0x40)\n      0x08c379a000000000000000000000000000000000000000000000000000000000\n      dup2\n      mstore\n      0x04\n      add\n      tag_157\n      swap1\n      tag_78\n      jump\t// in\n    tag_157:\n      mload(0x40)\n      dup1\n      swap2\n      sub\n      swap1\n      revert\n    tag_156:\n        /* \"contracts/GeekNftMarketPlace.sol\":2380:2383  nft */\n      dup2\n        /* \"contracts/GeekNftMarketPlace.sol\":2380:2389  nft.price */\n      0x40\n      add\n      mload\n        /* \"contracts/GeekNftMarketPlace.sol\":2367:2376  msg.value */\n      callvalue\n        /* \"contracts/GeekNftMarketPlace.sol\":2367:2389  msg.value >= nft.price */\n      lt\n      iszero\n        /* \"contracts/GeekNftMarketPlace.sol\":2359:2432  require(msg.value >= nft.price, \"Not enough ether to cover asking price\") */\n      tag_158\n      jumpi\n      mload(0x40)\n      0x08c379a000000000000000000000000000000000000000000000000000000000\n      dup2\n      mstore\n      0x04\n      add\n      tag_159\n      swap1\n      tag_160\n      jump\t// in\n    tag_159:\n      mload(0x40)\n      dup1\n      swap2\n      sub\n      swap1\n      revert\n    tag_158:\n        /* \"contracts/GeekNftMarketPlace.sol\":2443:2464  address payable buyer */\n      0x00\n        /* \"contracts/GeekNftMarketPlace.sol\":2475:2485  msg.sender */\n      caller\n        /* \"contracts/GeekNftMarketPlace.sol\":2443:2486  address payable buyer = payable(msg.sender) */\n      swap1\n      pop\n        /* \"contracts/GeekNftMarketPlace.sol\":2496:2499  nft */\n      dup3\n        /* \"contracts/GeekNftMarketPlace.sol\":2496:2506  nft.seller */\n      0x60\n      add\n      mload\n        /* \"contracts/GeekNftMarketPlace.sol\":2496:2515  nft.seller.transfer */\n      0xffffffffffffffffffffffffffffffffffffffff\n      and\n        /* \"contracts/GeekNftMarketPlace.sol\":2496:2526  nft.seller.transfer(msg.value) */\n      0x08fc\n        /* \"contracts/GeekNftMarketPlace.sol\":2516:2525  msg.value */\n      callvalue\n        /* \"contracts/GeekNftMarketPlace.sol\":2496:2526  nft.seller.transfer(msg.value) */\n      swap1\n      dup2\n      iszero\n      mul\n      swap1\n      mload(0x40)\n      0x00\n      mload(0x40)\n      dup1\n      dup4\n      sub\n      dup2\n      dup6\n      dup9\n      dup9\n      call\n      swap4\n      pop\n      pop\n      pop\n      pop\n      iszero\n      dup1\n      iszero\n      tag_162\n      jumpi\n      returndatasize\n      0x00\n      dup1\n      returndatacopy\n      revert(0x00, returndatasize)\n    tag_162:\n      pop\n        /* \"contracts/GeekNftMarketPlace.sol\":2554:2566  _nftContract */\n      dup5\n        /* \"contracts/GeekNftMarketPlace.sol\":2537:2580  GeekNftInterface(_nftContract).transferFrom */\n      0xffffffffffffffffffffffffffffffffffffffff\n      and\n      0x23b872dd\n        /* \"contracts/GeekNftMarketPlace.sol\":2589:2593  this */\n      address\n        /* \"contracts/GeekNftMarketPlace.sol\":2596:2601  buyer */\n      dup4\n        /* \"contracts/GeekNftMarketPlace.sol\":2603:2611  _tokenId */\n      dup8\n        /* \"contracts/GeekNftMarketPlace.sol\":2537:2612  GeekNftInterface(_nftContract).transferFrom(address(this), buyer, _tokenId) */\n      mload(0x40)\n      dup5\n      0xffffffff\n      and\n      0xe0\n      shl\n      dup2\n      mstore\n      0x04\n      add\n      tag_163\n      swap4\n      swap3\n      swap2\n      swap1\n      tag_164\n      jump\t// in\n    tag_163:\n      0x00\n      mload(0x40)\n      dup1\n      dup4\n      sub\n      dup2\n      0x00\n      dup8\n      dup1\n      extcodesize\n      iszero\n      dup1\n      iszero\n      tag_165\n      jumpi\n      0x00\n      dup1\n      revert\n    tag_165:\n      pop\n      gas\n      call\n      iszero\n      dup1\n      iszero\n      tag_167\n      jumpi\n      returndatasize\n      0x00\n      dup1\n      returndatacopy\n      revert(0x00, returndatasize)\n    tag_167:\n      pop\n      pop\n      pop\n      pop\n        /* \"contracts/GeekNftMarketPlace.sol\":2648:2653  buyer */\n      dup1\n        /* \"contracts/GeekNftMarketPlace.sol\":2622:2626  nfts */\n      0x05\n        /* \"contracts/GeekNftMarketPlace.sol\":2632:2637  index */\n      dup4\n        /* \"contracts/GeekNftMarketPlace.sol\":2622:2639  nfts[uint(index)] */\n      dup2\n      sload\n      dup2\n      lt\n      tag_168\n      jumpi\n      tag_169\n      tag_86\n      jump\t// in\n    tag_169:\n    tag_168:\n      swap1\n      0x00\n      mstore\n      keccak256(0x00, 0x20)\n      swap1\n      0x06\n      mul\n      add\n        /* \"contracts/GeekNftMarketPlace.sol\":2622:2645  nfts[uint(index)].owner */\n      0x04\n      add\n      0x00\n        /* \"contracts/GeekNftMarketPlace.sol\":2622:2653  nfts[uint(index)].owner = buyer */\n      0x0100\n      exp\n      dup2\n      sload\n      dup2\n      0xffffffffffffffffffffffffffffffffffffffff\n      mul\n      not\n      and\n      swap1\n      dup4\n      0xffffffffffffffffffffffffffffffffffffffff\n      and\n      mul\n      or\n      swap1\n      sstore\n      pop\n        /* \"contracts/GeekNftMarketPlace.sol\":2690:2695  false */\n      0x00\n        /* \"contracts/GeekNftMarketPlace.sol\":2663:2667  nfts */\n      0x05\n        /* \"contracts/GeekNftMarketPlace.sol\":2673:2678  index */\n      dup4\n        /* \"contracts/GeekNftMarketPlace.sol\":2663:2680  nfts[uint(index)] */\n      dup2\n      sload\n      dup2\n      lt\n      tag_171\n      jumpi\n      tag_172\n      tag_86\n      jump\t// in\n    tag_172:\n    tag_171:\n      swap1\n      0x00\n      mstore\n      keccak256(0x00, 0x20)\n      swap1\n      0x06\n      mul\n      add\n        /* \"contracts/GeekNftMarketPlace.sol\":2663:2687  nfts[uint(index)].listed */\n      0x05\n      add\n      0x14\n        /* \"contracts/GeekNftMarketPlace.sol\":2663:2695  nfts[uint(index)].listed = false */\n      0x0100\n      exp\n      dup2\n      sload\n      dup2\n      0xff\n      mul\n      not\n      and\n      swap1\n      dup4\n      iszero\n      iszero\n      mul\n      or\n      swap1\n      sstore\n      pop\n        /* \"contracts/GeekNftMarketPlace.sol\":2706:2727  _nftsSold.increment() */\n      tag_174\n        /* \"contracts/GeekNftMarketPlace.sol\":2706:2715  _nftsSold */\n      0x01\n        /* \"contracts/GeekNftMarketPlace.sol\":2706:2725  _nftsSold.increment */\n      tag_175\n        /* \"contracts/GeekNftMarketPlace.sol\":2706:2727  _nftsSold.increment() */\n      jump\t// in\n    tag_174:\n        /* \"contracts/GeekNftMarketPlace.sol\":2787:2792  buyer */\n      dup1\n        /* \"contracts/GeekNftMarketPlace.sol\":2743:2804  NFTSold(_nftContract, _tokenId, nft.seller, buyer, msg.value) */\n      0xffffffffffffffffffffffffffffffffffffffff\n      and\n        /* \"contracts/GeekNftMarketPlace.sol\":2775:2778  nft */\n      dup4\n        /* \"contracts/GeekNftMarketPlace.sol\":2775:2785  nft.seller */\n      0x60\n      add\n      mload\n        /* \"contracts/GeekNftMarketPlace.sol\":2743:2804  NFTSold(_nftContract, _tokenId, nft.seller, buyer, msg.value) */\n      0xffffffffffffffffffffffffffffffffffffffff\n      and\n      0x16f1dbd97e6bf646d429ed186cce832f1f7fd9907814293b83181e9970ab7bd2\n        /* \"contracts/GeekNftMarketPlace.sol\":2751:2763  _nftContract */\n      dup8\n        /* \"contracts/GeekNftMarketPlace.sol\":2765:2773  _tokenId */\n      dup8\n        /* \"contracts/GeekNftMarketPlace.sol\":2794:2803  msg.value */\n      callvalue\n        /* \"contracts/GeekNftMarketPlace.sol\":2743:2804  NFTSold(_nftContract, _tokenId, nft.seller, buyer, msg.value) */\n      mload(0x40)\n      tag_176\n      swap4\n      swap3\n      swap2\n      swap1\n      tag_100\n      jump\t// in\n    tag_176:\n      mload(0x40)\n      dup1\n      swap2\n      sub\n      swap1\n      log3\n        /* \"contracts/GeekNftMarketPlace.sol\":2204:2811  {... */\n      pop\n      pop\n      pop\n        /* \"contracts/RenntrancyGuard.sol\":128:129  1 */\n      0x01\n        /* \"contracts/RenntrancyGuard.sol\":414:421  _status */\n      0x00\n        /* \"contracts/RenntrancyGuard.sol\":414:436  _status = _NOT_ENTERED */\n      dup2\n      swap1\n      sstore\n      pop\n        /* \"contracts/GeekNftMarketPlace.sol\":2124:2811  function buyNft(address _nftContract, uint _tokenId) public payable nonReentrant{... */\n      pop\n      pop\n      jump\t// out\n        /* \"contracts/GeekNftMarketPlace.sol\":4311:4907  function getMyCreatedNfts() public view returns (NFT[] memory) {... */\n    tag_40:\n        /* \"contracts/GeekNftMarketPlace.sol\":4360:4372  NFT[] memory */\n      0x60\n        /* \"contracts/GeekNftMarketPlace.sol\":4384:4398  uint nftsCount */\n      0x00\n        /* \"contracts/GeekNftMarketPlace.sol\":4401:4421  _nftsCount.current() */\n      tag_178\n        /* \"contracts/GeekNftMarketPlace.sol\":4401:4411  _nftsCount */\n      0x02\n        /* \"contracts/GeekNftMarketPlace.sol\":4401:4419  _nftsCount.current */\n      tag_103\n        /* \"contracts/GeekNftMarketPlace.sol\":4401:4421  _nftsCount.current() */\n      jump\t// in\n    tag_178:\n        /* \"contracts/GeekNftMarketPlace.sol\":4384:4421  uint nftsCount = _nftsCount.current() */\n      swap1\n      pop\n        /* \"contracts/GeekNftMarketPlace.sol\":4431:4447  uint myNftsCount */\n      0x00\n        /* \"contracts/GeekNftMarketPlace.sol\":4466:4472  uint i */\n      dup1\n        /* \"contracts/GeekNftMarketPlace.sol\":4461:4603  for (uint i = 0; i < nftsCount; i++) {... */\n    tag_179:\n        /* \"contracts/GeekNftMarketPlace.sol\":4482:4491  nftsCount */\n      dup3\n        /* \"contracts/GeekNftMarketPlace.sol\":4478:4479  i */\n      dup2\n        /* \"contracts/GeekNftMarketPlace.sol\":4478:4491  i < nftsCount */\n      lt\n        /* \"contracts/GeekNftMarketPlace.sol\":4461:4603  for (uint i = 0; i < nftsCount; i++) {... */\n      iszero\n      tag_180\n      jumpi\n        /* \"contracts/GeekNftMarketPlace.sol\":4534:4544  msg.sender */\n      caller\n        /* \"contracts/GeekNftMarketPlace.sol\":4515:4544  nfts[i].creator == msg.sender */\n      0xffffffffffffffffffffffffffffffffffffffff\n      and\n        /* \"contracts/GeekNftMarketPlace.sol\":4515:4519  nfts */\n      0x05\n        /* \"contracts/GeekNftMarketPlace.sol\":4520:4521  i */\n      dup3\n        /* \"contracts/GeekNftMarketPlace.sol\":4515:4522  nfts[i] */\n      dup2\n      sload\n      dup2\n      lt\n      tag_182\n      jumpi\n      tag_183\n      tag_86\n      jump\t// in\n    tag_183:\n    tag_182:\n      swap1\n      0x00\n      mstore\n      keccak256(0x00, 0x20)\n      swap1\n      0x06\n      mul\n      add\n        /* \"contracts/GeekNftMarketPlace.sol\":4515:4530  nfts[i].creator */\n      0x05\n      add\n      0x00\n      swap1\n      sload\n      swap1\n      0x0100\n      exp\n      swap1\n      div\n      0xffffffffffffffffffffffffffffffffffffffff\n      and\n        /* \"contracts/GeekNftMarketPlace.sol\":4515:4544  nfts[i].creator == msg.sender */\n      0xffffffffffffffffffffffffffffffffffffffff\n      and\n      eq\n        /* \"contracts/GeekNftMarketPlace.sol\":4512:4593  if(nfts[i].creator == msg.sender) {... */\n      iszero\n      tag_185\n      jumpi\n        /* \"contracts/GeekNftMarketPlace.sol\":4564:4578  myNftsCount ++ */\n      dup2\n      dup1\n      tag_186\n      swap1\n      tag_116\n      jump\t// in\n    tag_186:\n      swap3\n      pop\n      pop\n        /* \"contracts/GeekNftMarketPlace.sol\":4512:4593  if(nfts[i].creator == msg.sender) {... */\n    tag_185:\n        /* \"contracts/GeekNftMarketPlace.sol\":4493:4496  i++ */\n      dup1\n      dup1\n      tag_187\n      swap1\n      tag_116\n      jump\t// in\n    tag_187:\n      swap2\n      pop\n      pop\n        /* \"contracts/GeekNftMarketPlace.sol\":4461:4603  for (uint i = 0; i < nftsCount; i++) {... */\n      jump(tag_179)\n    tag_180:\n      pop\n        /* \"contracts/GeekNftMarketPlace.sol\":4613:4632  NFT[] memory myNfts */\n      0x00\n        /* \"contracts/GeekNftMarketPlace.sol\":4645:4656  myNftsCount */\n      dup2\n        /* \"contracts/GeekNftMarketPlace.sol\":4635:4657  new NFT[](myNftsCount) */\n      0xffffffffffffffff\n      dup2\n      gt\n      iszero\n      tag_188\n      jumpi\n      tag_189\n      tag_120\n      jump\t// in\n    tag_189:\n    tag_188:\n      mload(0x40)\n      swap1\n      dup1\n      dup3\n      mstore\n      dup1\n      0x20\n      mul\n      0x20\n      add\n      dup3\n      add\n      0x40\n      mstore\n      dup1\n      iszero\n      tag_190\n      jumpi\n      dup2\n      0x20\n      add\n    tag_191:\n      tag_192\n      tag_124\n      jump\t// in\n    tag_192:\n      dup2\n      mstore\n      0x20\n      add\n      swap1\n      0x01\n      swap1\n      sub\n      swap1\n      dup2\n      tag_191\n      jumpi\n      swap1\n      pop\n    tag_190:\n      pop\n        /* \"contracts/GeekNftMarketPlace.sol\":4613:4657  NFT[] memory myNfts = new NFT[](myNftsCount) */\n      swap1\n      pop\n        /* \"contracts/GeekNftMarketPlace.sol\":4667:4680  uint nftIndex */\n      0x00\n        /* \"contracts/GeekNftMarketPlace.sol\":4699:4705  uint i */\n      dup1\n        /* \"contracts/GeekNftMarketPlace.sol\":4694:4877  for (uint i = 0; i < nftsCount; i++) {... */\n    tag_193:\n        /* \"contracts/GeekNftMarketPlace.sol\":4715:4724  nftsCount */\n      dup5\n        /* \"contracts/GeekNftMarketPlace.sol\":4711:4712  i */\n      dup2\n        /* \"contracts/GeekNftMarketPlace.sol\":4711:4724  i < nftsCount */\n      lt\n        /* \"contracts/GeekNftMarketPlace.sol\":4694:4877  for (uint i = 0; i < nftsCount; i++) {... */\n      iszero\n      tag_194\n      jumpi\n        /* \"contracts/GeekNftMarketPlace.sol\":4767:4777  msg.sender */\n      caller\n        /* \"contracts/GeekNftMarketPlace.sol\":4748:4777  nfts[i].creator == msg.sender */\n      0xffffffffffffffffffffffffffffffffffffffff\n      and\n        /* \"contracts/GeekNftMarketPlace.sol\":4748:4752  nfts */\n      0x05\n        /* \"contracts/GeekNftMarketPlace.sol\":4753:4754  i */\n      dup3\n        /* \"contracts/GeekNftMarketPlace.sol\":4748:4755  nfts[i] */\n      dup2\n      sload\n      dup2\n      lt\n      tag_196\n      jumpi\n      tag_197\n      tag_86\n      jump\t// in\n    tag_197:\n    tag_196:\n      swap1\n      0x00\n      mstore\n      keccak256(0x00, 0x20)\n      swap1\n      0x06\n      mul\n      add\n        /* \"contracts/GeekNftMarketPlace.sol\":4748:4763  nfts[i].creator */\n      0x05\n      add\n      0x00\n      swap1\n      sload\n      swap1\n      0x0100\n      exp\n      swap1\n      div\n      0xffffffffffffffffffffffffffffffffffffffff\n      and\n        /* \"contracts/GeekNftMarketPlace.sol\":4748:4777  nfts[i].creator == msg.sender */\n      0xffffffffffffffffffffffffffffffffffffffff\n      and\n      eq\n        /* \"contracts/GeekNftMarketPlace.sol\":4745:4867  if(nfts[i].creator == msg.sender) {... */\n      iszero\n      tag_199\n      jumpi\n        /* \"contracts/GeekNftMarketPlace.sol\":4816:4820  nfts */\n      0x05\n        /* \"contracts/GeekNftMarketPlace.sol\":4821:4822  i */\n      dup2\n        /* \"contracts/GeekNftMarketPlace.sol\":4816:4823  nfts[i] */\n      dup2\n      sload\n      dup2\n      lt\n      tag_200\n      jumpi\n      tag_201\n      tag_86\n      jump\t// in\n    tag_201:\n    tag_200:\n      swap1\n      0x00\n      mstore\n      keccak256(0x00, 0x20)\n      swap1\n      0x06\n      mul\n      add\n        /* \"contracts/GeekNftMarketPlace.sol\":4797:4823  myNfts[nftIndex] = nfts[i] */\n      mload(0x40)\n      dup1\n      0xe0\n      add\n      0x40\n      mstore\n      swap1\n      dup2\n      0x00\n      dup3\n      add\n      0x00\n      swap1\n      sload\n      swap1\n      0x0100\n      exp\n      swap1\n      div\n      0xffffffffffffffffffffffffffffffffffffffff\n      and\n      0xffffffffffffffffffffffffffffffffffffffff\n      and\n      0xffffffffffffffffffffffffffffffffffffffff\n      and\n      dup2\n      mstore\n      0x20\n      add\n      0x01\n      dup3\n      add\n      sload\n      dup2\n      mstore\n      0x20\n      add\n      0x02\n      dup3\n      add\n      sload\n      dup2\n      mstore\n      0x20\n      add\n      0x03\n      dup3\n      add\n      0x00\n      swap1\n      sload\n      swap1\n      0x0100\n      exp\n      swap1\n      div\n      0xffffffffffffffffffffffffffffffffffffffff\n      and\n      0xffffffffffffffffffffffffffffffffffffffff\n      and\n      0xffffffffffffffffffffffffffffffffffffffff\n      and\n      dup2\n      mstore\n      0x20\n      add\n      0x04\n      dup3\n      add\n      0x00\n      swap1\n      sload\n      swap1\n      0x0100\n      exp\n      swap1\n      div\n      0xffffffffffffffffffffffffffffffffffffffff\n      and\n      0xffffffffffffffffffffffffffffffffffffffff\n      and\n      0xffffffffffffffffffffffffffffffffffffffff\n      and\n      dup2\n      mstore\n      0x20\n      add\n      0x05\n      dup3\n      add\n      0x00\n      swap1\n      sload\n      swap1\n      0x0100\n      exp\n      swap1\n      div\n      0xffffffffffffffffffffffffffffffffffffffff\n      and\n      0xffffffffffffffffffffffffffffffffffffffff\n      and\n      0xffffffffffffffffffffffffffffffffffffffff\n      and\n      dup2\n      mstore\n      0x20\n      add\n      0x05\n      dup3\n      add\n      0x14\n      swap1\n      sload\n      swap1\n      0x0100\n      exp\n      swap1\n      div\n      0xff\n      and\n      iszero\n      iszero\n      iszero\n      iszero\n      dup2\n      mstore\n      pop\n      pop\n        /* \"contracts/GeekNftMarketPlace.sol\":4797:4803  myNfts */\n      dup4\n        /* \"contracts/GeekNftMarketPlace.sol\":4804:4812  nftIndex */\n      dup4\n        /* \"contracts/GeekNftMarketPlace.sol\":4797:4813  myNfts[nftIndex] */\n      dup2\n      mload\n      dup2\n      lt\n      tag_203\n      jumpi\n      tag_204\n      tag_86\n      jump\t// in\n    tag_204:\n    tag_203:\n      0x20\n      mul\n      0x20\n      add\n      add\n        /* \"contracts/GeekNftMarketPlace.sol\":4797:4823  myNfts[nftIndex] = nfts[i] */\n      dup2\n      swap1\n      mstore\n      pop\n        /* \"contracts/GeekNftMarketPlace.sol\":4841:4852  nftIndex ++ */\n      dup2\n      dup1\n      tag_205\n      swap1\n      tag_116\n      jump\t// in\n    tag_205:\n      swap3\n      pop\n      pop\n        /* \"contracts/GeekNftMarketPlace.sol\":4745:4867  if(nfts[i].creator == msg.sender) {... */\n    tag_199:\n        /* \"contracts/GeekNftMarketPlace.sol\":4726:4729  i++ */\n      dup1\n      dup1\n      tag_206\n      swap1\n      tag_116\n      jump\t// in\n    tag_206:\n      swap2\n      pop\n      pop\n        /* \"contracts/GeekNftMarketPlace.sol\":4694:4877  for (uint i = 0; i < nftsCount; i++) {... */\n      jump(tag_193)\n    tag_194:\n      pop\n        /* \"contracts/GeekNftMarketPlace.sol\":4894:4900  myNfts */\n      dup2\n        /* \"contracts/GeekNftMarketPlace.sol\":4887:4900  return myNfts */\n      swap5\n      pop\n      pop\n      pop\n      pop\n      pop\n        /* \"contracts/GeekNftMarketPlace.sol\":4311:4907  function getMyCreatedNfts() public view returns (NFT[] memory) {... */\n      swap1\n      jump\t// out\n        /* \"contracts/GeekNftMarketPlace.sol\":6261:6727  function getListedNfts() public view returns (NFT[] memory) {... */\n    tag_44:\n        /* \"contracts/GeekNftMarketPlace.sol\":6307:6319  NFT[] memory */\n      0x60\n        /* \"contracts/GeekNftMarketPlace.sol\":6331:6347  uint256 nftCount */\n      0x00\n        /* \"contracts/GeekNftMarketPlace.sol\":6350:6370  _nftsCount.current() */\n      tag_208\n        /* \"contracts/GeekNftMarketPlace.sol\":6350:6360  _nftsCount */\n      0x02\n        /* \"contracts/GeekNftMarketPlace.sol\":6350:6368  _nftsCount.current */\n      tag_103\n        /* \"contracts/GeekNftMarketPlace.sol\":6350:6370  _nftsCount.current() */\n      jump\t// in\n    tag_208:\n        /* \"contracts/GeekNftMarketPlace.sol\":6331:6370  uint256 nftCount = _nftsCount.current() */\n      swap1\n      pop\n        /* \"contracts/GeekNftMarketPlace.sol\":6380:6403  uint256 unsoldNftsCount */\n      0x00\n        /* \"contracts/GeekNftMarketPlace.sol\":6417:6436  _nftsSold.current() */\n      tag_209\n        /* \"contracts/GeekNftMarketPlace.sol\":6417:6426  _nftsSold */\n      0x01\n        /* \"contracts/GeekNftMarketPlace.sol\":6417:6434  _nftsSold.current */\n      tag_103\n        /* \"contracts/GeekNftMarketPlace.sol\":6417:6436  _nftsSold.current() */\n      jump\t// in\n    tag_209:\n        /* \"contracts/GeekNftMarketPlace.sol\":6406:6414  nftCount */\n      dup3\n        /* \"contracts/GeekNftMarketPlace.sol\":6406:6436  nftCount - _nftsSold.current() */\n      tag_210\n      swap2\n      swap1\n      tag_211\n      jump\t// in\n    tag_210:\n        /* \"contracts/GeekNftMarketPlace.sol\":6380:6436  uint256 unsoldNftsCount = nftCount - _nftsSold.current() */\n      swap1\n      pop\n        /* \"contracts/GeekNftMarketPlace.sol\":6447:6470  NFT[] memory listedNfts */\n      0x00\n        /* \"contracts/GeekNftMarketPlace.sol\":6483:6498  unsoldNftsCount */\n      dup2\n        /* \"contracts/GeekNftMarketPlace.sol\":6473:6499  new NFT[](unsoldNftsCount) */\n      0xffffffffffffffff\n      dup2\n      gt\n      iszero\n      tag_212\n      jumpi\n      tag_213\n      tag_120\n      jump\t// in\n    tag_213:\n    tag_212:\n      mload(0x40)\n      swap1\n      dup1\n      dup3\n      mstore\n      dup1\n      0x20\n      mul\n      0x20\n      add\n      dup3\n      add\n      0x40\n      mstore\n      dup1\n      iszero\n      tag_214\n      jumpi\n      dup2\n      0x20\n      add\n    tag_215:\n      tag_216\n      tag_124\n      jump\t// in\n    tag_216:\n      dup2\n      mstore\n      0x20\n      add\n      swap1\n      0x01\n      swap1\n      sub\n      swap1\n      dup2\n      tag_215\n      jumpi\n      swap1\n      pop\n    tag_214:\n      pop\n        /* \"contracts/GeekNftMarketPlace.sol\":6447:6499  NFT[] memory listedNfts = new NFT[](unsoldNftsCount) */\n      swap1\n      pop\n        /* \"contracts/GeekNftMarketPlace.sol\":6509:6523  uint nftsIndex */\n      0x00\n        /* \"contracts/GeekNftMarketPlace.sol\":6542:6548  uint i */\n      dup1\n        /* \"contracts/GeekNftMarketPlace.sol\":6537:6694  for (uint i = 0; i < nftCount; i++) {... */\n    tag_217:\n        /* \"contracts/GeekNftMarketPlace.sol\":6558:6566  nftCount */\n      dup5\n        /* \"contracts/GeekNftMarketPlace.sol\":6554:6555  i */\n      dup2\n        /* \"contracts/GeekNftMarketPlace.sol\":6554:6566  i < nftCount */\n      lt\n        /* \"contracts/GeekNftMarketPlace.sol\":6537:6694  for (uint i = 0; i < nftCount; i++) {... */\n      iszero\n      tag_218\n      jumpi\n        /* \"contracts/GeekNftMarketPlace.sol\":6587:6591  nfts */\n      0x05\n        /* \"contracts/GeekNftMarketPlace.sol\":6592:6593  i */\n      dup2\n        /* \"contracts/GeekNftMarketPlace.sol\":6587:6594  nfts[i] */\n      dup2\n      sload\n      dup2\n      lt\n      tag_220\n      jumpi\n      tag_221\n      tag_86\n      jump\t// in\n    tag_221:\n    tag_220:\n      swap1\n      0x00\n      mstore\n      keccak256(0x00, 0x20)\n      swap1\n      0x06\n      mul\n      add\n        /* \"contracts/GeekNftMarketPlace.sol\":6587:6601  nfts[i].listed */\n      0x05\n      add\n      0x14\n      swap1\n      sload\n      swap1\n      0x0100\n      exp\n      swap1\n      div\n      0xff\n      and\n        /* \"contracts/GeekNftMarketPlace.sol\":6583:6684  if (nfts[i].listed) {... */\n      iszero\n      tag_223\n      jumpi\n        /* \"contracts/GeekNftMarketPlace.sol\":6641:6645  nfts */\n      0x05\n        /* \"contracts/GeekNftMarketPlace.sol\":6646:6647  i */\n      dup2\n        /* \"contracts/GeekNftMarketPlace.sol\":6641:6648  nfts[i] */\n      dup2\n      sload\n      dup2\n      lt\n      tag_224\n      jumpi\n      tag_225\n      tag_86\n      jump\t// in\n    tag_225:\n    tag_224:\n      swap1\n      0x00\n      mstore\n      keccak256(0x00, 0x20)\n      swap1\n      0x06\n      mul\n      add\n        /* \"contracts/GeekNftMarketPlace.sol\":6617:6648  listedNfts[nftsIndex] = nfts[i] */\n      mload(0x40)\n      dup1\n      0xe0\n      add\n      0x40\n      mstore\n      swap1\n      dup2\n      0x00\n      dup3\n      add\n      0x00\n      swap1\n      sload\n      swap1\n      0x0100\n      exp\n      swap1\n      div\n      0xffffffffffffffffffffffffffffffffffffffff\n      and\n      0xffffffffffffffffffffffffffffffffffffffff\n      and\n      0xffffffffffffffffffffffffffffffffffffffff\n      and\n      dup2\n      mstore\n      0x20\n      add\n      0x01\n      dup3\n      add\n      sload\n      dup2\n      mstore\n      0x20\n      add\n      0x02\n      dup3\n      add\n      sload\n      dup2\n      mstore\n      0x20\n      add\n      0x03\n      dup3\n      add\n      0x00\n      swap1\n      sload\n      swap1\n      0x0100\n      exp\n      swap1\n      div\n      0xffffffffffffffffffffffffffffffffffffffff\n      and\n      0xffffffffffffffffffffffffffffffffffffffff\n      and\n      0xffffffffffffffffffffffffffffffffffffffff\n      and\n      dup2\n      mstore\n      0x20\n      add\n      0x04\n      dup3\n      add\n      0x00\n      swap1\n      sload\n      swap1\n      0x0100\n      exp\n      swap1\n      div\n      0xffffffffffffffffffffffffffffffffffffffff\n      and\n      0xffffffffffffffffffffffffffffffffffffffff\n      and\n      0xffffffffffffffffffffffffffffffffffffffff\n      and\n      dup2\n      mstore\n      0x20\n      add\n      0x05\n      dup3\n      add\n      0x00\n      swap1\n      sload\n      swap1\n      0x0100\n      exp\n      swap1\n      div\n      0xffffffffffffffffffffffffffffffffffffffff\n      and\n      0xffffffffffffffffffffffffffffffffffffffff\n      and\n      0xffffffffffffffffffffffffffffffffffffffff\n      and\n      dup2\n      mstore\n      0x20\n      add\n      0x05\n      dup3\n      add\n      0x14\n      swap1\n      sload\n      swap1\n      0x0100\n      exp\n      swap1\n      div\n      0xff\n      and\n      iszero\n      iszero\n      iszero\n      iszero\n      dup2\n      mstore\n      pop\n      pop\n        /* \"contracts/GeekNftMarketPlace.sol\":6617:6627  listedNfts */\n      dup4\n        /* \"contracts/GeekNftMarketPlace.sol\":6628:6637  nftsIndex */\n      dup4\n        /* \"contracts/GeekNftMarketPlace.sol\":6617:6638  listedNfts[nftsIndex] */\n      dup2\n      mload\n      dup2\n      lt\n      tag_227\n      jumpi\n      tag_228\n      tag_86\n      jump\t// in\n    tag_228:\n    tag_227:\n      0x20\n      mul\n      0x20\n      add\n      add\n        /* \"contracts/GeekNftMarketPlace.sol\":6617:6648  listedNfts[nftsIndex] = nfts[i] */\n      dup2\n      swap1\n      mstore\n      pop\n        /* \"contracts/GeekNftMarketPlace.sol\":6662:6673  nftsIndex++ */\n      dup2\n      dup1\n      tag_229\n      swap1\n      tag_116\n      jump\t// in\n    tag_229:\n      swap3\n      pop\n      pop\n        /* \"contracts/GeekNftMarketPlace.sol\":6583:6684  if (nfts[i].listed) {... */\n    tag_223:\n        /* \"contracts/GeekNftMarketPlace.sol\":6568:6571  i++ */\n      dup1\n      dup1\n      tag_230\n      swap1\n      tag_116\n      jump\t// in\n    tag_230:\n      swap2\n      pop\n      pop\n        /* \"contracts/GeekNftMarketPlace.sol\":6537:6694  for (uint i = 0; i < nftCount; i++) {... */\n      jump(tag_217)\n    tag_218:\n      pop\n        /* \"contracts/GeekNftMarketPlace.sol\":6710:6720  listedNfts */\n      dup2\n        /* \"contracts/GeekNftMarketPlace.sol\":6703:6720  return listedNfts */\n      swap5\n      pop\n      pop\n      pop\n      pop\n      pop\n        /* \"contracts/GeekNftMarketPlace.sol\":6261:6727  function getListedNfts() public view returns (NFT[] memory) {... */\n      swap1\n      jump\t// out\n        /* \"contracts/GeekNftMarketPlace.sol\":3680:4270  function getMyOwnedNfts() public view returns (NFT[] memory) {... */\n    tag_48:\n        /* \"contracts/GeekNftMarketPlace.sol\":3727:3739  NFT[] memory */\n      0x60\n        /* \"contracts/GeekNftMarketPlace.sol\":3751:3765  uint nftsCount */\n      0x00\n        /* \"contracts/GeekNftMarketPlace.sol\":3768:3788  _nftsCount.current() */\n      tag_232\n        /* \"contracts/GeekNftMarketPlace.sol\":3768:3778  _nftsCount */\n      0x02\n        /* \"contracts/GeekNftMarketPlace.sol\":3768:3786  _nftsCount.current */\n      tag_103\n        /* \"contracts/GeekNftMarketPlace.sol\":3768:3788  _nftsCount.current() */\n      jump\t// in\n    tag_232:\n        /* \"contracts/GeekNftMarketPlace.sol\":3751:3788  uint nftsCount = _nftsCount.current() */\n      swap1\n      pop\n        /* \"contracts/GeekNftMarketPlace.sol\":3798:3814  uint myNftsCount */\n      0x00\n        /* \"contracts/GeekNftMarketPlace.sol\":3833:3839  uint i */\n      dup1\n        /* \"contracts/GeekNftMarketPlace.sol\":3828:3968  for (uint i = 0; i < nftsCount; i++) {... */\n    tag_233:\n        /* \"contracts/GeekNftMarketPlace.sol\":3849:3858  nftsCount */\n      dup3\n        /* \"contracts/GeekNftMarketPlace.sol\":3845:3846  i */\n      dup2\n        /* \"contracts/GeekNftMarketPlace.sol\":3845:3858  i < nftsCount */\n      lt\n        /* \"contracts/GeekNftMarketPlace.sol\":3828:3968  for (uint i = 0; i < nftsCount; i++) {... */\n      iszero\n      tag_234\n      jumpi\n        /* \"contracts/GeekNftMarketPlace.sol\":3899:3909  msg.sender */\n      caller\n        /* \"contracts/GeekNftMarketPlace.sol\":3882:3909  nfts[i].owner == msg.sender */\n      0xffffffffffffffffffffffffffffffffffffffff\n      and\n        /* \"contracts/GeekNftMarketPlace.sol\":3882:3886  nfts */\n      0x05\n        /* \"contracts/GeekNftMarketPlace.sol\":3887:3888  i */\n      dup3\n        /* \"contracts/GeekNftMarketPlace.sol\":3882:3889  nfts[i] */\n      dup2\n      sload\n      dup2\n      lt\n      tag_236\n      jumpi\n      tag_237\n      tag_86\n      jump\t// in\n    tag_237:\n    tag_236:\n      swap1\n      0x00\n      mstore\n      keccak256(0x00, 0x20)\n      swap1\n      0x06\n      mul\n      add\n        /* \"contracts/GeekNftMarketPlace.sol\":3882:3895  nfts[i].owner */\n      0x04\n      add\n      0x00\n      swap1\n      sload\n      swap1\n      0x0100\n      exp\n      swap1\n      div\n      0xffffffffffffffffffffffffffffffffffffffff\n      and\n        /* \"contracts/GeekNftMarketPlace.sol\":3882:3909  nfts[i].owner == msg.sender */\n      0xffffffffffffffffffffffffffffffffffffffff\n      and\n      eq\n        /* \"contracts/GeekNftMarketPlace.sol\":3879:3958  if(nfts[i].owner == msg.sender) {... */\n      iszero\n      tag_239\n      jumpi\n        /* \"contracts/GeekNftMarketPlace.sol\":3929:3943  myNftsCount ++ */\n      dup2\n      dup1\n      tag_240\n      swap1\n      tag_116\n      jump\t// in\n    tag_240:\n      swap3\n      pop\n      pop\n        /* \"contracts/GeekNftMarketPlace.sol\":3879:3958  if(nfts[i].owner == msg.sender) {... */\n    tag_239:\n        /* \"contracts/GeekNftMarketPlace.sol\":3860:3863  i++ */\n      dup1\n      dup1\n      tag_241\n      swap1\n      tag_116\n      jump\t// in\n    tag_241:\n      swap2\n      pop\n      pop\n        /* \"contracts/GeekNftMarketPlace.sol\":3828:3968  for (uint i = 0; i < nftsCount; i++) {... */\n      jump(tag_233)\n    tag_234:\n      pop\n        /* \"contracts/GeekNftMarketPlace.sol\":3978:3997  NFT[] memory myNfts */\n      0x00\n        /* \"contracts/GeekNftMarketPlace.sol\":4010:4021  myNftsCount */\n      dup2\n        /* \"contracts/GeekNftMarketPlace.sol\":4000:4022  new NFT[](myNftsCount) */\n      0xffffffffffffffff\n      dup2\n      gt\n      iszero\n      tag_242\n      jumpi\n      tag_243\n      tag_120\n      jump\t// in\n    tag_243:\n    tag_242:\n      mload(0x40)\n      swap1\n      dup1\n      dup3\n      mstore\n      dup1\n      0x20\n      mul\n      0x20\n      add\n      dup3\n      add\n      0x40\n      mstore\n      dup1\n      iszero\n      tag_244\n      jumpi\n      dup2\n      0x20\n      add\n    tag_245:\n      tag_246\n      tag_124\n      jump\t// in\n    tag_246:\n      dup2\n      mstore\n      0x20\n      add\n      swap1\n      0x01\n      swap1\n      sub\n      swap1\n      dup2\n      tag_245\n      jumpi\n      swap1\n      pop\n    tag_244:\n      pop\n        /* \"contracts/GeekNftMarketPlace.sol\":3978:4022  NFT[] memory myNfts = new NFT[](myNftsCount) */\n      swap1\n      pop\n        /* \"contracts/GeekNftMarketPlace.sol\":4032:4045  uint nftIndex */\n      0x00\n        /* \"contracts/GeekNftMarketPlace.sol\":4064:4070  uint i */\n      dup1\n        /* \"contracts/GeekNftMarketPlace.sol\":4059:4240  for (uint i = 0; i < nftsCount; i++) {... */\n    tag_247:\n        /* \"contracts/GeekNftMarketPlace.sol\":4080:4089  nftsCount */\n      dup5\n        /* \"contracts/GeekNftMarketPlace.sol\":4076:4077  i */\n      dup2\n        /* \"contracts/GeekNftMarketPlace.sol\":4076:4089  i < nftsCount */\n      lt\n        /* \"contracts/GeekNftMarketPlace.sol\":4059:4240  for (uint i = 0; i < nftsCount; i++) {... */\n      iszero\n      tag_248\n      jumpi\n        /* \"contracts/GeekNftMarketPlace.sol\":4130:4140  msg.sender */\n      caller\n        /* \"contracts/GeekNftMarketPlace.sol\":4113:4140  nfts[i].owner == msg.sender */\n      0xffffffffffffffffffffffffffffffffffffffff\n      and\n        /* \"contracts/GeekNftMarketPlace.sol\":4113:4117  nfts */\n      0x05\n        /* \"contracts/GeekNftMarketPlace.sol\":4118:4119  i */\n      dup3\n        /* \"contracts/GeekNftMarketPlace.sol\":4113:4120  nfts[i] */\n      dup2\n      sload\n      dup2\n      lt\n      tag_250\n      jumpi\n      tag_251\n      tag_86\n      jump\t// in\n    tag_251:\n    tag_250:\n      swap1\n      0x00\n      mstore\n      keccak256(0x00, 0x20)\n      swap1\n      0x06\n      mul\n      add\n        /* \"contracts/GeekNftMarketPlace.sol\":4113:4126  nfts[i].owner */\n      0x04\n      add\n      0x00\n      swap1\n      sload\n      swap1\n      0x0100\n      exp\n      swap1\n      div\n      0xffffffffffffffffffffffffffffffffffffffff\n      and\n        /* \"contracts/GeekNftMarketPlace.sol\":4113:4140  nfts[i].owner == msg.sender */\n      0xffffffffffffffffffffffffffffffffffffffff\n      and\n      eq\n        /* \"contracts/GeekNftMarketPlace.sol\":4110:4230  if(nfts[i].owner == msg.sender) {... */\n      iszero\n      tag_253\n      jumpi\n        /* \"contracts/GeekNftMarketPlace.sol\":4179:4183  nfts */\n      0x05\n        /* \"contracts/GeekNftMarketPlace.sol\":4184:4185  i */\n      dup2\n        /* \"contracts/GeekNftMarketPlace.sol\":4179:4186  nfts[i] */\n      dup2\n      sload\n      dup2\n      lt\n      tag_254\n      jumpi\n      tag_255\n      tag_86\n      jump\t// in\n    tag_255:\n    tag_254:\n      swap1\n      0x00\n      mstore\n      keccak256(0x00, 0x20)\n      swap1\n      0x06\n      mul\n      add\n        /* \"contracts/GeekNftMarketPlace.sol\":4160:4186  myNfts[nftIndex] = nfts[i] */\n      mload(0x40)\n      dup1\n      0xe0\n      add\n      0x40\n      mstore\n      swap1\n      dup2\n      0x00\n      dup3\n      add\n      0x00\n      swap1\n      sload\n      swap1\n      0x0100\n      exp\n      swap1\n      div\n      0xffffffffffffffffffffffffffffffffffffffff\n      and\n      0xffffffffffffffffffffffffffffffffffffffff\n      and\n      0xffffffffffffffffffffffffffffffffffffffff\n      and\n      dup2\n      mstore\n      0x20\n      add\n      0x01\n      dup3\n      add\n      sload\n      dup2\n      mstore\n      0x20\n      add\n      0x02\n      dup3\n      add\n      sload\n      dup2\n      mstore\n      0x20\n      add\n      0x03\n      dup3\n      add\n      0x00\n      swap1\n      sload\n      swap1\n      0x0100\n      exp\n      swap1\n      div\n      0xffffffffffffffffffffffffffffffffffffffff\n      and\n      0xffffffffffffffffffffffffffffffffffffffff\n      and\n      0xffffffffffffffffffffffffffffffffffffffff\n      and\n      dup2\n      mstore\n      0x20\n      add\n      0x04\n      dup3\n      add\n      0x00\n      swap1\n      sload\n      swap1\n      0x0100\n      exp\n      swap1\n      div\n      0xffffffffffffffffffffffffffffffffffffffff\n      and\n      0xffffffffffffffffffffffffffffffffffffffff\n      and\n      0xffffffffffffffffffffffffffffffffffffffff\n      and\n      dup2\n      mstore\n      0x20\n      add\n      0x05\n      dup3\n      add\n      0x00\n      swap1\n      sload\n      swap1\n      0x0100\n      exp\n      swap1\n      div\n      0xffffffffffffffffffffffffffffffffffffffff\n      and\n      0xffffffffffffffffffffffffffffffffffffffff\n      and\n      0xffffffffffffffffffffffffffffffffffffffff\n      and\n      dup2\n      mstore\n      0x20\n      add\n      0x05\n      dup3\n      add\n      0x14\n      swap1\n      sload\n      swap1\n      0x0100\n      exp\n      swap1\n      div\n      0xff\n      and\n      iszero\n      iszero\n      iszero\n      iszero\n      dup2\n      mstore\n      pop\n      pop\n        /* \"contracts/GeekNftMarketPlace.sol\":4160:4166  myNfts */\n      dup4\n        /* \"contracts/GeekNftMarketPlace.sol\":4167:4175  nftIndex */\n      dup4\n        /* \"contracts/GeekNftMarketPlace.sol\":4160:4176  myNfts[nftIndex] */\n      dup2\n      mload\n      dup2\n      lt\n      tag_257\n      jumpi\n      tag_258\n      tag_86\n      jump\t// in\n    tag_258:\n    tag_257:\n      0x20\n      mul\n      0x20\n      add\n      add\n        /* \"contracts/GeekNftMarketPlace.sol\":4160:4186  myNfts[nftIndex] = nfts[i] */\n      dup2\n      swap1\n      mstore\n      pop\n        /* \"contracts/GeekNftMarketPlace.sol\":4204:4215  nftIndex ++ */\n      dup2\n      dup1\n      tag_259\n      swap1\n      tag_116\n      jump\t// in\n    tag_259:\n      swap3\n      pop\n      pop\n        /* \"contracts/GeekNftMarketPlace.sol\":4110:4230  if(nfts[i].owner == msg.sender) {... */\n    tag_253:\n        /* \"contracts/GeekNftMarketPlace.sol\":4091:4094  i++ */\n      dup1\n      dup1\n      tag_260\n      swap1\n      tag_116\n      jump\t// in\n    tag_260:\n      swap2\n      pop\n      pop\n        /* \"contracts/GeekNftMarketPlace.sol\":4059:4240  for (uint i = 0; i < nftsCount; i++) {... */\n      jump(tag_247)\n    tag_248:\n      pop\n        /* \"contracts/GeekNftMarketPlace.sol\":4257:4263  myNfts */\n      dup2\n        /* \"contracts/GeekNftMarketPlace.sol\":4250:4263  return myNfts */\n      swap5\n      pop\n      pop\n      pop\n      pop\n      pop\n        /* \"contracts/GeekNftMarketPlace.sol\":3680:4270  function getMyOwnedNfts() public view returns (NFT[] memory) {... */\n      swap1\n      jump\t// out\n        /* \"contracts/GeekNftMarketPlace.sol\":1384:2100  function listNFT(address _nftContract, uint _tokenId, uint _price) public payable nonReentrant{... */\n    tag_52:\n        /* \"contracts/RenntrancyGuard.sol\":171:172  2 */\n      0x02\n        /* \"contracts/RenntrancyGuard.sol\":310:317  _status */\n      sload(0x00)\n        /* \"contracts/RenntrancyGuard.sol\":310:329  _status != _ENTERED */\n      eq\n      iszero\n        /* \"contracts/RenntrancyGuard.sol\":302:365  require(_status != _ENTERED, \"ReentrancyGuard: reentrant call\") */\n      tag_262\n      jumpi\n      mload(0x40)\n      0x08c379a000000000000000000000000000000000000000000000000000000000\n      dup2\n      mstore\n      0x04\n      add\n      tag_263\n      swap1\n      tag_66\n      jump\t// in\n    tag_263:\n      mload(0x40)\n      dup1\n      swap2\n      sub\n      swap1\n      revert\n    tag_262:\n        /* \"contracts/RenntrancyGuard.sol\":171:172  2 */\n      0x02\n        /* \"contracts/RenntrancyGuard.sol\":375:382  _status */\n      0x00\n        /* \"contracts/RenntrancyGuard.sol\":375:393  _status = _ENTERED */\n      dup2\n      swap1\n      sstore\n      pop\n        /* \"contracts/GeekNftMarketPlace.sol\":1505:1506  0 */\n      0x00\n        /* \"contracts/GeekNftMarketPlace.sol\":1496:1502  _price */\n      dup2\n        /* \"contracts/GeekNftMarketPlace.sol\":1496:1506  _price > 0 */\n      gt\n        /* \"contracts/GeekNftMarketPlace.sol\":1488:1539  require(_price > 0, \"Price must be at least 1 wei\") */\n      tag_265\n      jumpi\n      mload(0x40)\n      0x08c379a000000000000000000000000000000000000000000000000000000000\n      dup2\n      mstore\n      0x04\n      add\n      tag_266\n      swap1\n      tag_70\n      jump\t// in\n    tag_266:\n      mload(0x40)\n      dup1\n      swap2\n      sub\n      swap1\n      revert\n    tag_265:\n        /* \"contracts/GeekNftMarketPlace.sol\":1570:1581  LISTING_FEE */\n      sload(0x03)\n        /* \"contracts/GeekNftMarketPlace.sol\":1557:1566  msg.value */\n      callvalue\n        /* \"contracts/GeekNftMarketPlace.sol\":1557:1581  msg.value == LISTING_FEE */\n      eq\n        /* \"contracts/GeekNftMarketPlace.sol\":1549:1618  require(msg.value == LISTING_FEE, \"Not enough ether for listing fee\") */\n      tag_267\n      jumpi\n      mload(0x40)\n      0x08c379a000000000000000000000000000000000000000000000000000000000\n      dup2\n      mstore\n      0x04\n      add\n      tag_268\n      swap1\n      tag_73\n      jump\t// in\n    tag_268:\n      mload(0x40)\n      dup1\n      swap2\n      sub\n      swap1\n      revert\n    tag_267:\n        /* \"contracts/GeekNftMarketPlace.sol\":1646:1658  _nftContract */\n      dup3\n        /* \"contracts/GeekNftMarketPlace.sol\":1629:1672  GeekNftInterface(_nftContract).transferFrom */\n      0xffffffffffffffffffffffffffffffffffffffff\n      and\n      0x23b872dd\n        /* \"contracts/GeekNftMarketPlace.sol\":1673:1683  msg.sender */\n      caller\n        /* \"contracts/GeekNftMarketPlace.sol\":1693:1697  this */\n      address\n        /* \"contracts/GeekNftMarketPlace.sol\":1700:1708  _tokenId */\n      dup6\n        /* \"contracts/GeekNftMarketPlace.sol\":1629:1709  GeekNftInterface(_nftContract).transferFrom(msg.sender, address(this), _tokenId) */\n      mload(0x40)\n      dup5\n      0xffffffff\n      and\n      0xe0\n      shl\n      dup2\n      mstore\n      0x04\n      add\n      tag_269\n      swap4\n      swap3\n      swap2\n      swap1\n      tag_80\n      jump\t// in\n    tag_269:\n      0x00\n      mload(0x40)\n      dup1\n      dup4\n      sub\n      dup2\n      0x00\n      dup8\n      dup1\n      extcodesize\n      iszero\n      dup1\n      iszero\n      tag_270\n      jumpi\n      0x00\n      dup1\n      revert\n    tag_270:\n      pop\n      gas\n      call\n      iszero\n      dup1\n      iszero\n      tag_272\n      jumpi\n      returndatasize\n      0x00\n      dup1\n      returndatacopy\n      revert(0x00, returndatasize)\n    tag_272:\n      pop\n      pop\n      pop\n      pop\n        /* \"contracts/GeekNftMarketPlace.sol\":1720:1724  nfts */\n      0x05\n        /* \"contracts/GeekNftMarketPlace.sol\":1730:1931  NFT(... */\n      mload(0x40)\n      dup1\n      0xe0\n      add\n      0x40\n      mstore\n      dup1\n        /* \"contracts/GeekNftMarketPlace.sol\":1747:1759  _nftContract */\n      dup6\n        /* \"contracts/GeekNftMarketPlace.sol\":1730:1931  NFT(... */\n      0xffffffffffffffffffffffffffffffffffffffff\n      and\n      dup2\n      mstore\n      0x20\n      add\n        /* \"contracts/GeekNftMarketPlace.sol\":1773:1781  _tokenId */\n      dup5\n        /* \"contracts/GeekNftMarketPlace.sol\":1730:1931  NFT(... */\n      dup2\n      mstore\n      0x20\n      add\n        /* \"contracts/GeekNftMarketPlace.sol\":1795:1801  _price */\n      dup4\n        /* \"contracts/GeekNftMarketPlace.sol\":1730:1931  NFT(... */\n      dup2\n      mstore\n      0x20\n      add\n        /* \"contracts/GeekNftMarketPlace.sol\":1823:1833  msg.sender */\n      caller\n        /* \"contracts/GeekNftMarketPlace.sol\":1730:1931  NFT(... */\n      0xffffffffffffffffffffffffffffffffffffffff\n      and\n      dup2\n      mstore\n      0x20\n      add\n        /* \"contracts/GeekNftMarketPlace.sol\":1864:1868  this */\n      address\n        /* \"contracts/GeekNftMarketPlace.sol\":1730:1931  NFT(... */\n      0xffffffffffffffffffffffffffffffffffffffff\n      and\n      dup2\n      mstore\n      0x20\n      add\n        /* \"contracts/GeekNftMarketPlace.sol\":1892:1902  msg.sender */\n      caller\n        /* \"contracts/GeekNftMarketPlace.sol\":1730:1931  NFT(... */\n      0xffffffffffffffffffffffffffffffffffffffff\n      and\n      dup2\n      mstore\n      0x20\n      add\n        /* \"contracts/GeekNftMarketPlace.sol\":1917:1921  true */\n      0x01\n        /* \"contracts/GeekNftMarketPlace.sol\":1730:1931  NFT(... */\n      iszero\n      iszero\n      dup2\n      mstore\n      pop\n        /* \"contracts/GeekNftMarketPlace.sol\":1720:1932  nfts.push(NFT(... */\n      swap1\n      dup1\n      0x01\n      dup2\n      sload\n      add\n      dup1\n      dup3\n      sstore\n      dup1\n      swap2\n      pop\n      pop\n      0x01\n      swap1\n      sub\n      swap1\n      0x00\n      mstore\n      keccak256(0x00, 0x20)\n      swap1\n      0x06\n      mul\n      add\n      0x00\n      swap1\n      swap2\n      swap1\n      swap2\n      swap1\n      swap2\n      pop\n      0x00\n      dup3\n      add\n      mload\n      dup2\n      0x00\n      add\n      exp(0x0100, 0x00)\n      dup2\n      sload\n      dup2\n      0xffffffffffffffffffffffffffffffffffffffff\n      mul\n      not\n      and\n      swap1\n      dup4\n      0xffffffffffffffffffffffffffffffffffffffff\n      and\n      mul\n      or\n      swap1\n      sstore\n      pop\n      0x20\n      dup3\n      add\n      mload\n      dup2\n      0x01\n      add\n      sstore\n      0x40\n      dup3\n      add\n      mload\n      dup2\n      0x02\n      add\n      sstore\n      0x60\n      dup3\n      add\n      mload\n      dup2\n      0x03\n      add\n      exp(0x0100, 0x00)\n      dup2\n      sload\n      dup2\n      0xffffffffffffffffffffffffffffffffffffffff\n      mul\n      not\n      and\n      swap1\n      dup4\n      0xffffffffffffffffffffffffffffffffffffffff\n      and\n      mul\n      or\n      swap1\n      sstore\n      pop\n      0x80\n      dup3\n      add\n      mload\n      dup2\n      0x04\n      add\n      exp(0x0100, 0x00)\n      dup2\n      sload\n      dup2\n      0xffffffffffffffffffffffffffffffffffffffff\n      mul\n      not\n      and\n      swap1\n      dup4\n      0xffffffffffffffffffffffffffffffffffffffff\n      and\n      mul\n      or\n      swap1\n      sstore\n      pop\n      0xa0\n      dup3\n      add\n      mload\n      dup2\n      0x05\n      add\n      exp(0x0100, 0x00)\n      dup2\n      sload\n      dup2\n      0xffffffffffffffffffffffffffffffffffffffff\n      mul\n      not\n      and\n      swap1\n      dup4\n      0xffffffffffffffffffffffffffffffffffffffff\n      and\n      mul\n      or\n      swap1\n      sstore\n      pop\n      0xc0\n      dup3\n      add\n      mload\n      dup2\n      0x05\n      add\n      exp(0x0100, 0x14)\n      dup2\n      sload\n      dup2\n      0xff\n      mul\n      not\n      and\n      swap1\n      dup4\n      iszero\n      iszero\n      mul\n      or\n      swap1\n      sstore\n      pop\n      pop\n      pop\n        /* \"contracts/GeekNftMarketPlace.sol\":1943:1965  _nftsCount.increment() */\n      tag_274\n        /* \"contracts/GeekNftMarketPlace.sol\":1943:1953  _nftsCount */\n      0x02\n        /* \"contracts/GeekNftMarketPlace.sol\":1943:1963  _nftsCount.increment */\n      tag_175\n        /* \"contracts/GeekNftMarketPlace.sol\":1943:1965  _nftsCount.increment() */\n      jump\t// in\n    tag_274:\n        /* \"contracts/GeekNftMarketPlace.sol\":1976:1989  _marketOwwner */\n      0x04\n      0x00\n      swap1\n      sload\n      swap1\n      0x0100\n      exp\n      swap1\n      div\n      0xffffffffffffffffffffffffffffffffffffffff\n      and\n        /* \"contracts/GeekNftMarketPlace.sol\":1976:1998  _marketOwwner.transfer */\n      0xffffffffffffffffffffffffffffffffffffffff\n      and\n        /* \"contracts/GeekNftMarketPlace.sol\":1976:2009  _marketOwwner.transfer(msg.value) */\n      0x08fc\n        /* \"contracts/GeekNftMarketPlace.sol\":1999:2008  msg.value */\n      callvalue\n        /* \"contracts/GeekNftMarketPlace.sol\":1976:2009  _marketOwwner.transfer(msg.value) */\n      swap1\n      dup2\n      iszero\n      mul\n      swap1\n      mload(0x40)\n      0x00\n      mload(0x40)\n      dup1\n      dup4\n      sub\n      dup2\n      dup6\n      dup9\n      dup9\n      call\n      swap4\n      pop\n      pop\n      pop\n      pop\n      iszero\n      dup1\n      iszero\n      tag_276\n      jumpi\n      returndatasize\n      0x00\n      dup1\n      returndatacopy\n      revert(0x00, returndatasize)\n    tag_276:\n      pop\n        /* \"contracts/GeekNftMarketPlace.sol\":2079:2083  this */\n      address\n        /* \"contracts/GeekNftMarketPlace.sol\":2025:2093  NFTListed(_nftContract, _tokenId, msg.sender, address(this), _price) */\n      0xffffffffffffffffffffffffffffffffffffffff\n      and\n        /* \"contracts/GeekNftMarketPlace.sol\":2059:2069  msg.sender */\n      caller\n        /* \"contracts/GeekNftMarketPlace.sol\":2025:2093  NFTListed(_nftContract, _tokenId, msg.sender, address(this), _price) */\n      0xffffffffffffffffffffffffffffffffffffffff\n      and\n      0xa0c6c0d02d86fdacecbaa5fdf5894bab204e31a778250474108540733a9b8d19\n        /* \"contracts/GeekNftMarketPlace.sol\":2035:2047  _nftContract */\n      dup6\n        /* \"contracts/GeekNftMarketPlace.sol\":2049:2057  _tokenId */\n      dup6\n        /* \"contracts/GeekNftMarketPlace.sol\":2086:2092  _price */\n      dup6\n        /* \"contracts/GeekNftMarketPlace.sol\":2025:2093  NFTListed(_nftContract, _tokenId, msg.sender, address(this), _price) */\n      mload(0x40)\n      tag_277\n      swap4\n      swap3\n      swap2\n      swap1\n      tag_100\n      jump\t// in\n    tag_277:\n      mload(0x40)\n      dup1\n      swap2\n      sub\n      swap1\n      log3\n        /* \"contracts/RenntrancyGuard.sol\":128:129  1 */\n      0x01\n        /* \"contracts/RenntrancyGuard.sol\":414:421  _status */\n      0x00\n        /* \"contracts/RenntrancyGuard.sol\":414:436  _status = _NOT_ENTERED */\n      dup2\n      swap1\n      sstore\n      pop\n        /* \"contracts/GeekNftMarketPlace.sol\":1384:2100  function listNFT(address _nftContract, uint _tokenId, uint _price) public payable nonReentrant{... */\n      pop\n      pop\n      pop\n      jump\t// out\n        /* \"contracts/GeekNftMarketPlace.sol\":1091:1177  function getListingFee() public view returns (uint){... */\n    tag_55:\n        /* \"contracts/GeekNftMarketPlace.sol\":1137:1141  uint */\n      0x00\n        /* \"contracts/GeekNftMarketPlace.sol\":1159:1170  LISTING_FEE */\n      sload(0x03)\n        /* \"contracts/GeekNftMarketPlace.sol\":1152:1170  return LISTING_FEE */\n      swap1\n      pop\n        /* \"contracts/GeekNftMarketPlace.sol\":1091:1177  function getListingFee() public view returns (uint){... */\n      swap1\n      jump\t// out\n        /* \"contracts/GeekNftMarketPlace.sol\":5618:6255  function getNftByContract(address) public view returns (NFT[] memory) {... */\n    tag_61:\n        /* \"contracts/GeekNftMarketPlace.sol\":5674:5686  NFT[] memory */\n      0x60\n        /* \"contracts/GeekNftMarketPlace.sol\":5698:5712  uint nftsCount */\n      0x00\n        /* \"contracts/GeekNftMarketPlace.sol\":5715:5735  _nftsCount.current() */\n      tag_280\n        /* \"contracts/GeekNftMarketPlace.sol\":5715:5725  _nftsCount */\n      0x02\n        /* \"contracts/GeekNftMarketPlace.sol\":5715:5733  _nftsCount.current */\n      tag_103\n        /* \"contracts/GeekNftMarketPlace.sol\":5715:5735  _nftsCount.current() */\n      jump\t// in\n    tag_280:\n        /* \"contracts/GeekNftMarketPlace.sol\":5698:5735  uint nftsCount = _nftsCount.current() */\n      swap1\n      pop\n        /* \"contracts/GeekNftMarketPlace.sol\":5745:5761  uint myNftsCount */\n      0x00\n        /* \"contracts/GeekNftMarketPlace.sol\":5780:5786  uint i */\n      dup1\n        /* \"contracts/GeekNftMarketPlace.sol\":5775:5934  for (uint i = 0; i < nftsCount; i++) {... */\n    tag_281:\n        /* \"contracts/GeekNftMarketPlace.sol\":5796:5805  nftsCount */\n      dup3\n        /* \"contracts/GeekNftMarketPlace.sol\":5792:5793  i */\n      dup2\n        /* \"contracts/GeekNftMarketPlace.sol\":5792:5805  i < nftsCount */\n      lt\n        /* \"contracts/GeekNftMarketPlace.sol\":5775:5934  for (uint i = 0; i < nftsCount; i++) {... */\n      iszero\n      tag_282\n      jumpi\n        /* \"contracts/GeekNftMarketPlace.sol\":5847:5857  msg.sender */\n      caller\n        /* \"contracts/GeekNftMarketPlace.sol\":5829:5857  nfts[i].seller == msg.sender */\n      0xffffffffffffffffffffffffffffffffffffffff\n      and\n        /* \"contracts/GeekNftMarketPlace.sol\":5829:5833  nfts */\n      0x05\n        /* \"contracts/GeekNftMarketPlace.sol\":5834:5835  i */\n      dup3\n        /* \"contracts/GeekNftMarketPlace.sol\":5829:5836  nfts[i] */\n      dup2\n      sload\n      dup2\n      lt\n      tag_284\n      jumpi\n      tag_285\n      tag_86\n      jump\t// in\n    tag_285:\n    tag_284:\n      swap1\n      0x00\n      mstore\n      keccak256(0x00, 0x20)\n      swap1\n      0x06\n      mul\n      add\n        /* \"contracts/GeekNftMarketPlace.sol\":5829:5843  nfts[i].seller */\n      0x03\n      add\n      0x00\n      swap1\n      sload\n      swap1\n      0x0100\n      exp\n      swap1\n      div\n      0xffffffffffffffffffffffffffffffffffffffff\n      and\n        /* \"contracts/GeekNftMarketPlace.sol\":5829:5857  nfts[i].seller == msg.sender */\n      0xffffffffffffffffffffffffffffffffffffffff\n      and\n      eq\n        /* \"contracts/GeekNftMarketPlace.sol\":5829:5875  nfts[i].seller == msg.sender && nfts[i].listed */\n      dup1\n      iszero\n      tag_287\n      jumpi\n      pop\n        /* \"contracts/GeekNftMarketPlace.sol\":5861:5865  nfts */\n      0x05\n        /* \"contracts/GeekNftMarketPlace.sol\":5866:5867  i */\n      dup2\n        /* \"contracts/GeekNftMarketPlace.sol\":5861:5868  nfts[i] */\n      dup2\n      sload\n      dup2\n      lt\n      tag_288\n      jumpi\n      tag_289\n      tag_86\n      jump\t// in\n    tag_289:\n    tag_288:\n      swap1\n      0x00\n      mstore\n      keccak256(0x00, 0x20)\n      swap1\n      0x06\n      mul\n      add\n        /* \"contracts/GeekNftMarketPlace.sol\":5861:5875  nfts[i].listed */\n      0x05\n      add\n      0x14\n      swap1\n      sload\n      swap1\n      0x0100\n      exp\n      swap1\n      div\n      0xff\n      and\n        /* \"contracts/GeekNftMarketPlace.sol\":5829:5875  nfts[i].seller == msg.sender && nfts[i].listed */\n    tag_287:\n        /* \"contracts/GeekNftMarketPlace.sol\":5826:5924  if(nfts[i].seller == msg.sender && nfts[i].listed) {... */\n      iszero\n      tag_291\n      jumpi\n        /* \"contracts/GeekNftMarketPlace.sol\":5895:5909  myNftsCount ++ */\n      dup2\n      dup1\n      tag_292\n      swap1\n      tag_116\n      jump\t// in\n    tag_292:\n      swap3\n      pop\n      pop\n        /* \"contracts/GeekNftMarketPlace.sol\":5826:5924  if(nfts[i].seller == msg.sender && nfts[i].listed) {... */\n    tag_291:\n        /* \"contracts/GeekNftMarketPlace.sol\":5807:5810  i++ */\n      dup1\n      dup1\n      tag_293\n      swap1\n      tag_116\n      jump\t// in\n    tag_293:\n      swap2\n      pop\n      pop\n        /* \"contracts/GeekNftMarketPlace.sol\":5775:5934  for (uint i = 0; i < nftsCount; i++) {... */\n      jump(tag_281)\n    tag_282:\n      pop\n        /* \"contracts/GeekNftMarketPlace.sol\":5944:5963  NFT[] memory myNfts */\n      0x00\n        /* \"contracts/GeekNftMarketPlace.sol\":5976:5987  myNftsCount */\n      dup2\n        /* \"contracts/GeekNftMarketPlace.sol\":5966:5988  new NFT[](myNftsCount) */\n      0xffffffffffffffff\n      dup2\n      gt\n      iszero\n      tag_294\n      jumpi\n      tag_295\n      tag_120\n      jump\t// in\n    tag_295:\n    tag_294:\n      mload(0x40)\n      swap1\n      dup1\n      dup3\n      mstore\n      dup1\n      0x20\n      mul\n      0x20\n      add\n      dup3\n      add\n      0x40\n      mstore\n      dup1\n      iszero\n      tag_296\n      jumpi\n      dup2\n      0x20\n      add\n    tag_297:\n      tag_298\n      tag_124\n      jump\t// in\n    tag_298:\n      dup2\n      mstore\n      0x20\n      add\n      swap1\n      0x01\n      swap1\n      sub\n      swap1\n      dup2\n      tag_297\n      jumpi\n      swap1\n      pop\n    tag_296:\n      pop\n        /* \"contracts/GeekNftMarketPlace.sol\":5944:5988  NFT[] memory myNfts = new NFT[](myNftsCount) */\n      swap1\n      pop\n        /* \"contracts/GeekNftMarketPlace.sol\":5998:6011  uint nftIndex */\n      0x00\n        /* \"contracts/GeekNftMarketPlace.sol\":6030:6036  uint i */\n      dup1\n        /* \"contracts/GeekNftMarketPlace.sol\":6025:6225  for (uint i = 0; i < nftsCount; i++) {... */\n    tag_299:\n        /* \"contracts/GeekNftMarketPlace.sol\":6046:6055  nftsCount */\n      dup5\n        /* \"contracts/GeekNftMarketPlace.sol\":6042:6043  i */\n      dup2\n        /* \"contracts/GeekNftMarketPlace.sol\":6042:6055  i < nftsCount */\n      lt\n        /* \"contracts/GeekNftMarketPlace.sol\":6025:6225  for (uint i = 0; i < nftsCount; i++) {... */\n      iszero\n      tag_300\n      jumpi\n        /* \"contracts/GeekNftMarketPlace.sol\":6097:6107  msg.sender */\n      caller\n        /* \"contracts/GeekNftMarketPlace.sol\":6079:6107  nfts[i].seller == msg.sender */\n      0xffffffffffffffffffffffffffffffffffffffff\n      and\n        /* \"contracts/GeekNftMarketPlace.sol\":6079:6083  nfts */\n      0x05\n        /* \"contracts/GeekNftMarketPlace.sol\":6084:6085  i */\n      dup3\n        /* \"contracts/GeekNftMarketPlace.sol\":6079:6086  nfts[i] */\n      dup2\n      sload\n      dup2\n      lt\n      tag_302\n      jumpi\n      tag_303\n      tag_86\n      jump\t// in\n    tag_303:\n    tag_302:\n      swap1\n      0x00\n      mstore\n      keccak256(0x00, 0x20)\n      swap1\n      0x06\n      mul\n      add\n        /* \"contracts/GeekNftMarketPlace.sol\":6079:6093  nfts[i].seller */\n      0x03\n      add\n      0x00\n      swap1\n      sload\n      swap1\n      0x0100\n      exp\n      swap1\n      div\n      0xffffffffffffffffffffffffffffffffffffffff\n      and\n        /* \"contracts/GeekNftMarketPlace.sol\":6079:6107  nfts[i].seller == msg.sender */\n      0xffffffffffffffffffffffffffffffffffffffff\n      and\n      eq\n        /* \"contracts/GeekNftMarketPlace.sol\":6079:6125  nfts[i].seller == msg.sender && nfts[i].listed */\n      dup1\n      iszero\n      tag_305\n      jumpi\n      pop\n        /* \"contracts/GeekNftMarketPlace.sol\":6111:6115  nfts */\n      0x05\n        /* \"contracts/GeekNftMarketPlace.sol\":6116:6117  i */\n      dup2\n        /* \"contracts/GeekNftMarketPlace.sol\":6111:6118  nfts[i] */\n      dup2\n      sload\n      dup2\n      lt\n      tag_306\n      jumpi\n      tag_307\n      tag_86\n      jump\t// in\n    tag_307:\n    tag_306:\n      swap1\n      0x00\n      mstore\n      keccak256(0x00, 0x20)\n      swap1\n      0x06\n      mul\n      add\n        /* \"contracts/GeekNftMarketPlace.sol\":6111:6125  nfts[i].listed */\n      0x05\n      add\n      0x14\n      swap1\n      sload\n      swap1\n      0x0100\n      exp\n      swap1\n      div\n      0xff\n      and\n        /* \"contracts/GeekNftMarketPlace.sol\":6079:6125  nfts[i].seller == msg.sender && nfts[i].listed */\n    tag_305:\n        /* \"contracts/GeekNftMarketPlace.sol\":6076:6215  if(nfts[i].seller == msg.sender && nfts[i].listed) {... */\n      iszero\n      tag_309\n      jumpi\n        /* \"contracts/GeekNftMarketPlace.sol\":6164:6168  nfts */\n      0x05\n        /* \"contracts/GeekNftMarketPlace.sol\":6169:6170  i */\n      dup2\n        /* \"contracts/GeekNftMarketPlace.sol\":6164:6171  nfts[i] */\n      dup2\n      sload\n      dup2\n      lt\n      tag_310\n      jumpi\n      tag_311\n      tag_86\n      jump\t// in\n    tag_311:\n    tag_310:\n      swap1\n      0x00\n      mstore\n      keccak256(0x00, 0x20)\n      swap1\n      0x06\n      mul\n      add\n        /* \"contracts/GeekNftMarketPlace.sol\":6145:6171  myNfts[nftIndex] = nfts[i] */\n      mload(0x40)\n      dup1\n      0xe0\n      add\n      0x40\n      mstore\n      swap1\n      dup2\n      0x00\n      dup3\n      add\n      0x00\n      swap1\n      sload\n      swap1\n      0x0100\n      exp\n      swap1\n      div\n      0xffffffffffffffffffffffffffffffffffffffff\n      and\n      0xffffffffffffffffffffffffffffffffffffffff\n      and\n      0xffffffffffffffffffffffffffffffffffffffff\n      and\n      dup2\n      mstore\n      0x20\n      add\n      0x01\n      dup3\n      add\n      sload\n      dup2\n      mstore\n      0x20\n      add\n      0x02\n      dup3\n      add\n      sload\n      dup2\n      mstore\n      0x20\n      add\n      0x03\n      dup3\n      add\n      0x00\n      swap1\n      sload\n      swap1\n      0x0100\n      exp\n      swap1\n      div\n      0xffffffffffffffffffffffffffffffffffffffff\n      and\n      0xffffffffffffffffffffffffffffffffffffffff\n      and\n      0xffffffffffffffffffffffffffffffffffffffff\n      and\n      dup2\n      mstore\n      0x20\n      add\n      0x04\n      dup3\n      add\n      0x00\n      swap1\n      sload\n      swap1\n      0x0100\n      exp\n      swap1\n      div\n      0xffffffffffffffffffffffffffffffffffffffff\n      and\n      0xffffffffffffffffffffffffffffffffffffffff\n      and\n      0xffffffffffffffffffffffffffffffffffffffff\n      and\n      dup2\n      mstore\n      0x20\n      add\n      0x05\n      dup3\n      add\n      0x00\n      swap1\n      sload\n      swap1\n      0x0100\n      exp\n      swap1\n      div\n      0xffffffffffffffffffffffffffffffffffffffff\n      and\n      0xffffffffffffffffffffffffffffffffffffffff\n      and\n      0xffffffffffffffffffffffffffffffffffffffff\n      and\n      dup2\n      mstore\n      0x20\n      add\n      0x05\n      dup3\n      add\n      0x14\n      swap1\n      sload\n      swap1\n      0x0100\n      exp\n      swap1\n      div\n      0xff\n      and\n      iszero\n      iszero\n      iszero\n      iszero\n      dup2\n      mstore\n      pop\n      pop\n        /* \"contracts/GeekNftMarketPlace.sol\":6145:6151  myNfts */\n      dup4\n        /* \"contracts/GeekNftMarketPlace.sol\":6152:6160  nftIndex */\n      dup4\n        /* \"contracts/GeekNftMarketPlace.sol\":6145:6161  myNfts[nftIndex] */\n      dup2\n      mload\n      dup2\n      lt\n      tag_313\n      jumpi\n      tag_314\n      tag_86\n      jump\t// in\n    tag_314:\n    tag_313:\n      0x20\n      mul\n      0x20\n      add\n      add\n        /* \"contracts/GeekNftMarketPlace.sol\":6145:6171  myNfts[nftIndex] = nfts[i] */\n      dup2\n      swap1\n      mstore\n      pop\n        /* \"contracts/GeekNftMarketPlace.sol\":6189:6200  nftIndex ++ */\n      dup2\n      dup1\n      tag_315\n      swap1\n      tag_116\n      jump\t// in\n    tag_315:\n      swap3\n      pop\n      pop\n        /* \"contracts/GeekNftMarketPlace.sol\":6076:6215  if(nfts[i].seller == msg.sender && nfts[i].listed) {... */\n    tag_309:\n        /* \"contracts/GeekNftMarketPlace.sol\":6057:6060  i++ */\n      dup1\n      dup1\n      tag_316\n      swap1\n      tag_116\n      jump\t// in\n    tag_316:\n      swap2\n      pop\n      pop\n        /* \"contracts/GeekNftMarketPlace.sol\":6025:6225  for (uint i = 0; i < nftsCount; i++) {... */\n      jump(tag_299)\n    tag_300:\n      pop\n        /* \"contracts/GeekNftMarketPlace.sol\":6242:6248  myNfts */\n      dup2\n        /* \"contracts/GeekNftMarketPlace.sol\":6235:6248  return myNfts */\n      swap5\n      pop\n      pop\n      pop\n      pop\n      pop\n        /* \"contracts/GeekNftMarketPlace.sol\":5618:6255  function getNftByContract(address) public view returns (NFT[] memory) {... */\n      swap2\n      swap1\n      pop\n      jump\t// out\n        /* \"contracts/GeekNftMarketPlace.sol\":6733:7198  function getNFT(address _nftContract, uint _tokenId) private view returns (NFT memory, int) {... */\n    tag_75:\n        /* \"contracts/GeekNftMarketPlace.sol\":6808:6818  NFT memory */\n      tag_317\n      tag_124\n      jump\t// in\n    tag_317:\n        /* \"contracts/GeekNftMarketPlace.sol\":6820:6823  int */\n      0x00\n        /* \"contracts/GeekNftMarketPlace.sol\":6835:6849  NFT memory nft */\n      tag_319\n      tag_124\n      jump\t// in\n    tag_319:\n        /* \"contracts/GeekNftMarketPlace.sol\":6859:6868  int index */\n      0x00\n        /* \"contracts/GeekNftMarketPlace.sol\":6871:6873  -1 */\n      0xffffffffffffffffffffffffffffffffffffffffffffffffffffffffffffffff\n        /* \"contracts/GeekNftMarketPlace.sol\":6859:6873  int index = -1 */\n      swap1\n      pop\n        /* \"contracts/GeekNftMarketPlace.sol\":6883:6899  uint256 nftCount */\n      0x00\n        /* \"contracts/GeekNftMarketPlace.sol\":6902:6922  _nftsCount.current() */\n      tag_320\n        /* \"contracts/GeekNftMarketPlace.sol\":6902:6912  _nftsCount */\n      0x02\n        /* \"contracts/GeekNftMarketPlace.sol\":6902:6920  _nftsCount.current */\n      tag_103\n        /* \"contracts/GeekNftMarketPlace.sol\":6902:6922  _nftsCount.current() */\n      jump\t// in\n    tag_320:\n        /* \"contracts/GeekNftMarketPlace.sol\":6883:6922  uint256 nftCount = _nftsCount.current() */\n      swap1\n      pop\n        /* \"contracts/GeekNftMarketPlace.sol\":6936:6942  uint i */\n      0x00\n        /* \"contracts/GeekNftMarketPlace.sol\":6932:7163  for(uint i = 0; i < nftCount; i++) {... */\n    tag_321:\n        /* \"contracts/GeekNftMarketPlace.sol\":6952:6960  nftCount */\n      dup2\n        /* \"contracts/GeekNftMarketPlace.sol\":6948:6949  i */\n      dup2\n        /* \"contracts/GeekNftMarketPlace.sol\":6948:6960  i < nftCount */\n      lt\n        /* \"contracts/GeekNftMarketPlace.sol\":6932:7163  for(uint i = 0; i < nftCount; i++) {... */\n      iszero\n      tag_322\n      jumpi\n        /* \"contracts/GeekNftMarketPlace.sol\":7007:7019  _nftContract */\n      dup8\n        /* \"contracts/GeekNftMarketPlace.sol\":6984:7019  nfts[i].nftContract == _nftContract */\n      0xffffffffffffffffffffffffffffffffffffffff\n      and\n        /* \"contracts/GeekNftMarketPlace.sol\":6984:6988  nfts */\n      0x05\n        /* \"contracts/GeekNftMarketPlace.sol\":6989:6990  i */\n      dup3\n        /* \"contracts/GeekNftMarketPlace.sol\":6984:6991  nfts[i] */\n      dup2\n      sload\n      dup2\n      lt\n      tag_324\n      jumpi\n      tag_325\n      tag_86\n      jump\t// in\n    tag_325:\n    tag_324:\n      swap1\n      0x00\n      mstore\n      keccak256(0x00, 0x20)\n      swap1\n      0x06\n      mul\n      add\n        /* \"contracts/GeekNftMarketPlace.sol\":6984:7003  nfts[i].nftContract */\n      0x00\n      add\n      0x00\n      swap1\n      sload\n      swap1\n      0x0100\n      exp\n      swap1\n      div\n      0xffffffffffffffffffffffffffffffffffffffff\n      and\n        /* \"contracts/GeekNftMarketPlace.sol\":6984:7019  nfts[i].nftContract == _nftContract */\n      0xffffffffffffffffffffffffffffffffffffffff\n      and\n      eq\n        /* \"contracts/GeekNftMarketPlace.sol\":6984:7050  nfts[i].nftContract == _nftContract && nfts[i].tokenId == _tokenId */\n      dup1\n      iszero\n      tag_327\n      jumpi\n      pop\n        /* \"contracts/GeekNftMarketPlace.sol\":7042:7050  _tokenId */\n      dup7\n        /* \"contracts/GeekNftMarketPlace.sol\":7023:7027  nfts */\n      0x05\n        /* \"contracts/GeekNftMarketPlace.sol\":7028:7029  i */\n      dup3\n        /* \"contracts/GeekNftMarketPlace.sol\":7023:7030  nfts[i] */\n      dup2\n      sload\n      dup2\n      lt\n      tag_328\n      jumpi\n      tag_329\n      tag_86\n      jump\t// in\n    tag_329:\n    tag_328:\n      swap1\n      0x00\n      mstore\n      keccak256(0x00, 0x20)\n      swap1\n      0x06\n      mul\n      add\n        /* \"contracts/GeekNftMarketPlace.sol\":7023:7038  nfts[i].tokenId */\n      0x01\n      add\n      sload\n        /* \"contracts/GeekNftMarketPlace.sol\":7023:7050  nfts[i].tokenId == _tokenId */\n      eq\n        /* \"contracts/GeekNftMarketPlace.sol\":6984:7050  nfts[i].nftContract == _nftContract && nfts[i].tokenId == _tokenId */\n    tag_327:\n        /* \"contracts/GeekNftMarketPlace.sol\":6981:7153  if(nfts[i].nftContract == _nftContract && nfts[i].tokenId == _tokenId) {... */\n      iszero\n      tag_331\n      jumpi\n        /* \"contracts/GeekNftMarketPlace.sol\":7076:7080  nfts */\n      0x05\n        /* \"contracts/GeekNftMarketPlace.sol\":7081:7082  i */\n      dup2\n        /* \"contracts/GeekNftMarketPlace.sol\":7076:7083  nfts[i] */\n      dup2\n      sload\n      dup2\n      lt\n      tag_332\n      jumpi\n      tag_333\n      tag_86\n      jump\t// in\n    tag_333:\n    tag_332:\n      swap1\n      0x00\n      mstore\n      keccak256(0x00, 0x20)\n      swap1\n      0x06\n      mul\n      add\n        /* \"contracts/GeekNftMarketPlace.sol\":7070:7083  nft = nfts[i] */\n      mload(0x40)\n      dup1\n      0xe0\n      add\n      0x40\n      mstore\n      swap1\n      dup2\n      0x00\n      dup3\n      add\n      0x00\n      swap1\n      sload\n      swap1\n      0x0100\n      exp\n      swap1\n      div\n      0xffffffffffffffffffffffffffffffffffffffff\n      and\n      0xffffffffffffffffffffffffffffffffffffffff\n      and\n      0xffffffffffffffffffffffffffffffffffffffff\n      and\n      dup2\n      mstore\n      0x20\n      add\n      0x01\n      dup3\n      add\n      sload\n      dup2\n      mstore\n      0x20\n      add\n      0x02\n      dup3\n      add\n      sload\n      dup2\n      mstore\n      0x20\n      add\n      0x03\n      dup3\n      add\n      0x00\n      swap1\n      sload\n      swap1\n      0x0100\n      exp\n      swap1\n      div\n      0xffffffffffffffffffffffffffffffffffffffff\n      and\n      0xffffffffffffffffffffffffffffffffffffffff\n      and\n      0xffffffffffffffffffffffffffffffffffffffff\n      and\n      dup2\n      mstore\n      0x20\n      add\n      0x04\n      dup3\n      add\n      0x00\n      swap1\n      sload\n      swap1\n      0x0100\n      exp\n      swap1\n      div\n      0xffffffffffffffffffffffffffffffffffffffff\n      and\n      0xffffffffffffffffffffffffffffffffffffffff\n      and\n      0xffffffffffffffffffffffffffffffffffffffff\n      and\n      dup2\n      mstore\n      0x20\n      add\n      0x05\n      dup3\n      add\n      0x00\n      swap1\n      sload\n      swap1\n      0x0100\n      exp\n      swap1\n      div\n      0xffffffffffffffffffffffffffffffffffffffff\n      and\n      0xffffffffffffffffffffffffffffffffffffffff\n      and\n      0xffffffffffffffffffffffffffffffffffffffff\n      and\n      dup2\n      mstore\n      0x20\n      add\n      0x05\n      dup3\n      add\n      0x14\n      swap1\n      sload\n      swap1\n      0x0100\n      exp\n      swap1\n      div\n      0xff\n      and\n      iszero\n      iszero\n      iszero\n      iszero\n      dup2\n      mstore\n      pop\n      pop\n      swap4\n      pop\n        /* \"contracts/GeekNftMarketPlace.sol\":7113:7114  i */\n      dup1\n        /* \"contracts/GeekNftMarketPlace.sol\":7101:7115  index = int(i) */\n      swap3\n      pop\n        /* \"contracts/GeekNftMarketPlace.sol\":7133:7138  break */\n      jump(tag_322)\n        /* \"contracts/GeekNftMarketPlace.sol\":6981:7153  if(nfts[i].nftContract == _nftContract && nfts[i].tokenId == _tokenId) {... */\n    tag_331:\n        /* \"contracts/GeekNftMarketPlace.sol\":6962:6965  i++ */\n      dup1\n      dup1\n      tag_335\n      swap1\n      tag_116\n      jump\t// in\n    tag_335:\n      swap2\n      pop\n      pop\n        /* \"contracts/GeekNftMarketPlace.sol\":6932:7163  for(uint i = 0; i < nftCount; i++) {... */\n      jump(tag_321)\n    tag_322:\n      pop\n        /* \"contracts/GeekNftMarketPlace.sol\":7180:7183  nft */\n      dup3\n        /* \"contracts/GeekNftMarketPlace.sol\":7185:7190  index */\n      dup3\n        /* \"contracts/GeekNftMarketPlace.sol\":7172:7191  return (nft, index) */\n      swap5\n      pop\n      swap5\n      pop\n      pop\n      pop\n      pop\n        /* \"contracts/GeekNftMarketPlace.sol\":6733:7198  function getNFT(address _nftContract, uint _tokenId) private view returns (NFT memory, int) {... */\n      swap3\n      pop\n      swap3\n      swap1\n      pop\n      jump\t// out\n        /* \"contracts/Counters.sol\":1074:1303  function decrement(Counter storage counter) internal {... */\n    tag_98:\n        /* \"contracts/Counters.sol\":1137:1150  uint256 value */\n      0x00\n        /* \"contracts/Counters.sol\":1153:1160  counter */\n      dup2\n        /* \"contracts/Counters.sol\":1153:1167  counter._value */\n      0x00\n      add\n      sload\n        /* \"contracts/Counters.sol\":1137:1167  uint256 value = counter._value */\n      swap1\n      pop\n        /* \"contracts/Counters.sol\":1193:1194  0 */\n      0x00\n        /* \"contracts/Counters.sol\":1185:1190  value */\n      dup2\n        /* \"contracts/Counters.sol\":1185:1194  value > 0 */\n      gt\n        /* \"contracts/Counters.sol\":1177:1226  require(value > 0, \"Counter: decrement overflow\") */\n      tag_337\n      jumpi\n      mload(0x40)\n      0x08c379a000000000000000000000000000000000000000000000000000000000\n      dup2\n      mstore\n      0x04\n      add\n      tag_338\n      swap1\n      tag_339\n      jump\t// in\n    tag_338:\n      mload(0x40)\n      dup1\n      swap2\n      sub\n      swap1\n      revert\n    tag_337:\n        /* \"contracts/Counters.sol\":1285:1286  1 */\n      0x01\n        /* \"contracts/Counters.sol\":1277:1282  value */\n      dup2\n        /* \"contracts/Counters.sol\":1277:1286  value - 1 */\n      sub\n        /* \"contracts/Counters.sol\":1260:1267  counter */\n      dup3\n        /* \"contracts/Counters.sol\":1260:1274  counter._value */\n      0x00\n      add\n        /* \"contracts/Counters.sol\":1260:1286  counter._value = value - 1 */\n      dup2\n      swap1\n      sstore\n      pop\n        /* \"contracts/Counters.sol\":1127:1303  {... */\n      pop\n        /* \"contracts/Counters.sol\":1074:1303  function decrement(Counter storage counter) internal {... */\n      pop\n      jump\t// out\n        /* \"contracts/Counters.sol\":827:939  function current(Counter storage counter) internal view returns (uint256) {... */\n    tag_103:\n        /* \"contracts/Counters.sol\":892:899  uint256 */\n      0x00\n        /* \"contracts/Counters.sol\":918:925  counter */\n      dup2\n        /* \"contracts/Counters.sol\":918:932  counter._value */\n      0x00\n      add\n      sload\n        /* \"contracts/Counters.sol\":911:932  return counter._value */\n      swap1\n      pop\n        /* \"contracts/Counters.sol\":827:939  function current(Counter storage counter) internal view returns (uint256) {... */\n      swap2\n      swap1\n      pop\n      jump\t// out\n        /* \"contracts/Counters.sol\":945:1068  function increment(Counter storage counter) internal {... */\n    tag_175:\n        /* \"contracts/Counters.sol\":1050:1051  1 */\n      0x01\n        /* \"contracts/Counters.sol\":1032:1039  counter */\n      dup2\n        /* \"contracts/Counters.sol\":1032:1046  counter._value */\n      0x00\n      add\n      0x00\n        /* \"contracts/Counters.sol\":1032:1051  counter._value += 1 */\n      dup3\n      dup3\n      sload\n      add\n      swap3\n      pop\n      pop\n      dup2\n      swap1\n      sstore\n      pop\n        /* \"contracts/Counters.sol\":945:1068  function increment(Counter storage counter) internal {... */\n      pop\n      jump\t// out\n    tag_124:\n      mload(0x40)\n      dup1\n      0xe0\n      add\n      0x40\n      mstore\n      dup1\n      and(0xffffffffffffffffffffffffffffffffffffffff, 0x00)\n      dup2\n      mstore\n      0x20\n      add\n      0x00\n      dup2\n      mstore\n      0x20\n      add\n      0x00\n      dup2\n      mstore\n      0x20\n      add\n      and(0xffffffffffffffffffffffffffffffffffffffff, 0x00)\n      dup2\n      mstore\n      0x20\n      add\n      and(0xffffffffffffffffffffffffffffffffffffffff, 0x00)\n      dup2\n      mstore\n      0x20\n      add\n      and(0xffffffffffffffffffffffffffffffffffffffff, 0x00)\n      dup2\n      mstore\n      0x20\n      add\n      iszero(iszero(0x00))\n      dup2\n      mstore\n      pop\n      swap1\n      jump\t// out\n        /* \"#utility.yul\":7:146   */\n    tag_343:\n        /* \"#utility.yul\":53:58   */\n      0x00\n        /* \"#utility.yul\":91:97   */\n      dup2\n        /* \"#utility.yul\":78:98   */\n      calldataload\n        /* \"#utility.yul\":69:98   */\n      swap1\n      pop\n        /* \"#utility.yul\":107:140   */\n      tag_345\n        /* \"#utility.yul\":134:139   */\n      dup2\n        /* \"#utility.yul\":107:140   */\n      tag_346\n      jump\t// in\n    tag_345:\n        /* \"#utility.yul\":7:146   */\n      swap3\n      swap2\n      pop\n      pop\n      jump\t// out\n        /* \"#utility.yul\":152:295   */\n    tag_347:\n        /* \"#utility.yul\":209:214   */\n      0x00\n        /* \"#utility.yul\":240:246   */\n      dup2\n        /* \"#utility.yul\":234:247   */\n      mload\n        /* \"#utility.yul\":225:247   */\n      swap1\n      pop\n        /* \"#utility.yul\":256:289   */\n      tag_349\n        /* \"#utility.yul\":283:288   */\n      dup2\n        /* \"#utility.yul\":256:289   */\n      tag_346\n      jump\t// in\n    tag_349:\n        /* \"#utility.yul\":152:295   */\n      swap3\n      swap2\n      pop\n      pop\n      jump\t// out\n        /* \"#utility.yul\":301:440   */\n    tag_350:\n        /* \"#utility.yul\":347:352   */\n      0x00\n        /* \"#utility.yul\":385:391   */\n      dup2\n        /* \"#utility.yul\":372:392   */\n      calldataload\n        /* \"#utility.yul\":363:392   */\n      swap1\n      pop\n        /* \"#utility.yul\":401:434   */\n      tag_352\n        /* \"#utility.yul\":428:433   */\n      dup2\n        /* \"#utility.yul\":401:434   */\n      tag_353\n      jump\t// in\n    tag_352:\n        /* \"#utility.yul\":301:440   */\n      swap3\n      swap2\n      pop\n      pop\n      jump\t// out\n        /* \"#utility.yul\":446:775   */\n    tag_60:\n        /* \"#utility.yul\":505:511   */\n      0x00\n        /* \"#utility.yul\":554:556   */\n      0x20\n        /* \"#utility.yul\":542:551   */\n      dup3\n        /* \"#utility.yul\":533:540   */\n      dup5\n        /* \"#utility.yul\":529:552   */\n      sub\n        /* \"#utility.yul\":525:557   */\n      slt\n        /* \"#utility.yul\":522:641   */\n      iszero\n      tag_355\n      jumpi\n        /* \"#utility.yul\":560:639   */\n      tag_356\n      tag_357\n      jump\t// in\n    tag_356:\n        /* \"#utility.yul\":522:641   */\n    tag_355:\n        /* \"#utility.yul\":680:681   */\n      0x00\n        /* \"#utility.yul\":705:758   */\n      tag_358\n        /* \"#utility.yul\":750:757   */\n      dup5\n        /* \"#utility.yul\":741:747   */\n      dup3\n        /* \"#utility.yul\":730:739   */\n      dup6\n        /* \"#utility.yul\":726:748   */\n      add\n        /* \"#utility.yul\":705:758   */\n      tag_343\n      jump\t// in\n    tag_358:\n        /* \"#utility.yul\":695:758   */\n      swap2\n      pop\n        /* \"#utility.yul\":651:768   */\n      pop\n        /* \"#utility.yul\":446:775   */\n      swap3\n      swap2\n      pop\n      pop\n      jump\t// out\n        /* \"#utility.yul\":781:1132   */\n    tag_149:\n        /* \"#utility.yul\":851:857   */\n      0x00\n        /* \"#utility.yul\":900:902   */\n      0x20\n        /* \"#utility.yul\":888:897   */\n      dup3\n        /* \"#utility.yul\":879:886   */\n      dup5\n        /* \"#utility.yul\":875:898   */\n      sub\n        /* \"#utility.yul\":871:903   */\n      slt\n        /* \"#utility.yul\":868:987   */\n      iszero\n      tag_360\n      jumpi\n        /* \"#utility.yul\":906:985   */\n      tag_361\n      tag_357\n      jump\t// in\n    tag_361:\n        /* \"#utility.yul\":868:987   */\n    tag_360:\n        /* \"#utility.yul\":1026:1027   */\n      0x00\n        /* \"#utility.yul\":1051:1115   */\n      tag_362\n        /* \"#utility.yul\":1107:1114   */\n      dup5\n        /* \"#utility.yul\":1098:1104   */\n      dup3\n        /* \"#utility.yul\":1087:1096   */\n      dup6\n        /* \"#utility.yul\":1083:1105   */\n      add\n        /* \"#utility.yul\":1051:1115   */\n      tag_347\n      jump\t// in\n    tag_362:\n        /* \"#utility.yul\":1041:1115   */\n      swap2\n      pop\n        /* \"#utility.yul\":997:1125   */\n      pop\n        /* \"#utility.yul\":781:1132   */\n      swap3\n      swap2\n      pop\n      pop\n      jump\t// out\n        /* \"#utility.yul\":1138:1612   */\n    tag_31:\n        /* \"#utility.yul\":1206:1212   */\n      0x00\n        /* \"#utility.yul\":1214:1220   */\n      dup1\n        /* \"#utility.yul\":1263:1265   */\n      0x40\n        /* \"#utility.yul\":1251:1260   */\n      dup4\n        /* \"#utility.yul\":1242:1249   */\n      dup6\n        /* \"#utility.yul\":1238:1261   */\n      sub\n        /* \"#utility.yul\":1234:1266   */\n      slt\n        /* \"#utility.yul\":1231:1350   */\n      iszero\n      tag_364\n      jumpi\n        /* \"#utility.yul\":1269:1348   */\n      tag_365\n      tag_357\n      jump\t// in\n    tag_365:\n        /* \"#utility.yul\":1231:1350   */\n    tag_364:\n        /* \"#utility.yul\":1389:1390   */\n      0x00\n        /* \"#utility.yul\":1414:1467   */\n      tag_366\n        /* \"#utility.yul\":1459:1466   */\n      dup6\n        /* \"#utility.yul\":1450:1456   */\n      dup3\n        /* \"#utility.yul\":1439:1448   */\n      dup7\n        /* \"#utility.yul\":1435:1457   */\n      add\n        /* \"#utility.yul\":1414:1467   */\n      tag_343\n      jump\t// in\n    tag_366:\n        /* \"#utility.yul\":1404:1467   */\n      swap3\n      pop\n        /* \"#utility.yul\":1360:1477   */\n      pop\n        /* \"#utility.yul\":1516:1518   */\n      0x20\n        /* \"#utility.yul\":1542:1595   */\n      tag_367\n        /* \"#utility.yul\":1587:1594   */\n      dup6\n        /* \"#utility.yul\":1578:1584   */\n      dup3\n        /* \"#utility.yul\":1567:1576   */\n      dup7\n        /* \"#utility.yul\":1563:1585   */\n      add\n        /* \"#utility.yul\":1542:1595   */\n      tag_350\n      jump\t// in\n    tag_367:\n        /* \"#utility.yul\":1532:1595   */\n      swap2\n      pop\n        /* \"#utility.yul\":1487:1605   */\n      pop\n        /* \"#utility.yul\":1138:1612   */\n      swap3\n      pop\n      swap3\n      swap1\n      pop\n      jump\t// out\n        /* \"#utility.yul\":1618:2237   */\n    tag_16:\n        /* \"#utility.yul\":1695:1701   */\n      0x00\n        /* \"#utility.yul\":1703:1709   */\n      dup1\n        /* \"#utility.yul\":1711:1717   */\n      0x00\n        /* \"#utility.yul\":1760:1762   */\n      0x60\n        /* \"#utility.yul\":1748:1757   */\n      dup5\n        /* \"#utility.yul\":1739:1746   */\n      dup7\n        /* \"#utility.yul\":1735:1758   */\n      sub\n        /* \"#utility.yul\":1731:1763   */\n      slt\n        /* \"#utility.yul\":1728:1847   */\n      iszero\n      tag_369\n      jumpi\n        /* \"#utility.yul\":1766:1845   */\n      tag_370\n      tag_357\n      jump\t// in\n    tag_370:\n        /* \"#utility.yul\":1728:1847   */\n    tag_369:\n        /* \"#utility.yul\":1886:1887   */\n      0x00\n        /* \"#utility.yul\":1911:1964   */\n      tag_371\n        /* \"#utility.yul\":1956:1963   */\n      dup7\n        /* \"#utility.yul\":1947:1953   */\n      dup3\n        /* \"#utility.yul\":1936:1945   */\n      dup8\n        /* \"#utility.yul\":1932:1954   */\n      add\n        /* \"#utility.yul\":1911:1964   */\n      tag_343\n      jump\t// in\n    tag_371:\n        /* \"#utility.yul\":1901:1964   */\n      swap4\n      pop\n        /* \"#utility.yul\":1857:1974   */\n      pop\n        /* \"#utility.yul\":2013:2015   */\n      0x20\n        /* \"#utility.yul\":2039:2092   */\n      tag_372\n        /* \"#utility.yul\":2084:2091   */\n      dup7\n        /* \"#utility.yul\":2075:2081   */\n      dup3\n        /* \"#utility.yul\":2064:2073   */\n      dup8\n        /* \"#utility.yul\":2060:2082   */\n      add\n        /* \"#utility.yul\":2039:2092   */\n      tag_350\n      jump\t// in\n    tag_372:\n        /* \"#utility.yul\":2029:2092   */\n      swap3\n      pop\n        /* \"#utility.yul\":1984:2102   */\n      pop\n        /* \"#utility.yul\":2141:2143   */\n      0x40\n        /* \"#utility.yul\":2167:2220   */\n      tag_373\n        /* \"#utility.yul\":2212:2219   */\n      dup7\n        /* \"#utility.yul\":2203:2209   */\n      dup3\n        /* \"#utility.yul\":2192:2201   */\n      dup8\n        /* \"#utility.yul\":2188:2210   */\n      add\n        /* \"#utility.yul\":2167:2220   */\n      tag_350\n      jump\t// in\n    tag_373:\n        /* \"#utility.yul\":2157:2220   */\n      swap2\n      pop\n        /* \"#utility.yul\":2112:2230   */\n      pop\n        /* \"#utility.yul\":1618:2237   */\n      swap3\n      pop\n      swap3\n      pop\n      swap3\n      jump\t// out\n        /* \"#utility.yul\":2243:2502   */\n    tag_374:\n        /* \"#utility.yul\":2352:2362   */\n      0x00\n        /* \"#utility.yul\":2373:2459   */\n      tag_376\n        /* \"#utility.yul\":2455:2458   */\n      dup4\n        /* \"#utility.yul\":2447:2453   */\n      dup4\n        /* \"#utility.yul\":2373:2459   */\n      tag_377\n      jump\t// in\n    tag_376:\n        /* \"#utility.yul\":2491:2495   */\n      0xe0\n        /* \"#utility.yul\":2486:2489   */\n      dup4\n        /* \"#utility.yul\":2482:2496   */\n      add\n        /* \"#utility.yul\":2468:2496   */\n      swap1\n      pop\n        /* \"#utility.yul\":2243:2502   */\n      swap3\n      swap2\n      pop\n      pop\n      jump\t// out\n        /* \"#utility.yul\":2508:2655   */\n    tag_378:\n        /* \"#utility.yul\":2603:2648   */\n      tag_380\n        /* \"#utility.yul\":2642:2647   */\n      dup2\n        /* \"#utility.yul\":2603:2648   */\n      tag_381\n      jump\t// in\n    tag_380:\n        /* \"#utility.yul\":2598:2601   */\n      dup3\n        /* \"#utility.yul\":2591:2649   */\n      mstore\n        /* \"#utility.yul\":2508:2655   */\n      pop\n      pop\n      jump\t// out\n        /* \"#utility.yul\":2661:2793   */\n    tag_382:\n        /* \"#utility.yul\":2754:2786   */\n      tag_384\n        /* \"#utility.yul\":2780:2785   */\n      dup2\n        /* \"#utility.yul\":2754:2786   */\n      tag_385\n      jump\t// in\n    tag_384:\n        /* \"#utility.yul\":2749:2752   */\n      dup3\n        /* \"#utility.yul\":2742:2787   */\n      mstore\n        /* \"#utility.yul\":2661:2793   */\n      pop\n      pop\n      jump\t// out\n        /* \"#utility.yul\":2799:2907   */\n    tag_386:\n        /* \"#utility.yul\":2876:2900   */\n      tag_388\n        /* \"#utility.yul\":2894:2899   */\n      dup2\n        /* \"#utility.yul\":2876:2900   */\n      tag_389\n      jump\t// in\n    tag_388:\n        /* \"#utility.yul\":2871:2874   */\n      dup3\n        /* \"#utility.yul\":2864:2901   */\n      mstore\n        /* \"#utility.yul\":2799:2907   */\n      pop\n      pop\n      jump\t// out\n        /* \"#utility.yul\":2913:3031   */\n    tag_390:\n        /* \"#utility.yul\":3000:3024   */\n      tag_392\n        /* \"#utility.yul\":3018:3023   */\n      dup2\n        /* \"#utility.yul\":3000:3024   */\n      tag_389\n      jump\t// in\n    tag_392:\n        /* \"#utility.yul\":2995:2998   */\n      dup3\n        /* \"#utility.yul\":2988:3025   */\n      mstore\n        /* \"#utility.yul\":2913:3031   */\n      pop\n      pop\n      jump\t// out\n        /* \"#utility.yul\":3111:4003   */\n    tag_393:\n        /* \"#utility.yul\":3270:3273   */\n      0x00\n        /* \"#utility.yul\":3299:3373   */\n      tag_395\n        /* \"#utility.yul\":3367:3372   */\n      dup3\n        /* \"#utility.yul\":3299:3373   */\n      tag_396\n      jump\t// in\n    tag_395:\n        /* \"#utility.yul\":3389:3495   */\n      tag_397\n        /* \"#utility.yul\":3488:3494   */\n      dup2\n        /* \"#utility.yul\":3483:3486   */\n      dup6\n        /* \"#utility.yul\":3389:3495   */\n      tag_398\n      jump\t// in\n    tag_397:\n        /* \"#utility.yul\":3382:3495   */\n      swap4\n      pop\n        /* \"#utility.yul\":3519:3595   */\n      tag_399\n        /* \"#utility.yul\":3589:3594   */\n      dup4\n        /* \"#utility.yul\":3519:3595   */\n      tag_400\n      jump\t// in\n    tag_399:\n        /* \"#utility.yul\":3618:3625   */\n      dup1\n        /* \"#utility.yul\":3649:3650   */\n      0x00\n        /* \"#utility.yul\":3634:3978   */\n    tag_401:\n        /* \"#utility.yul\":3659:3665   */\n      dup4\n        /* \"#utility.yul\":3656:3657   */\n      dup2\n        /* \"#utility.yul\":3653:3666   */\n      lt\n        /* \"#utility.yul\":3634:3978   */\n      iszero\n      tag_403\n      jumpi\n        /* \"#utility.yul\":3735:3741   */\n      dup2\n        /* \"#utility.yul\":3729:3742   */\n      mload\n        /* \"#utility.yul\":3762:3865   */\n      tag_404\n        /* \"#utility.yul\":3861:3864   */\n      dup9\n        /* \"#utility.yul\":3846:3859   */\n      dup3\n        /* \"#utility.yul\":3762:3865   */\n      tag_374\n      jump\t// in\n    tag_404:\n        /* \"#utility.yul\":3755:3865   */\n      swap8\n      pop\n        /* \"#utility.yul\":3888:3968   */\n      tag_405\n        /* \"#utility.yul\":3961:3967   */\n      dup4\n        /* \"#utility.yul\":3888:3968   */\n      tag_406\n      jump\t// in\n    tag_405:\n        /* \"#utility.yul\":3878:3968   */\n      swap3\n      pop\n        /* \"#utility.yul\":3694:3978   */\n      pop\n        /* \"#utility.yul\":3681:3682   */\n      0x01\n        /* \"#utility.yul\":3678:3679   */\n      dup2\n        /* \"#utility.yul\":3674:3683   */\n      add\n        /* \"#utility.yul\":3669:3683   */\n      swap1\n      pop\n        /* \"#utility.yul\":3634:3978   */\n      jump(tag_401)\n    tag_403:\n        /* \"#utility.yul\":3638:3652   */\n      pop\n        /* \"#utility.yul\":3994:3997   */\n      dup6\n        /* \"#utility.yul\":3987:3997   */\n      swap4\n      pop\n        /* \"#utility.yul\":3275:4003   */\n      pop\n      pop\n      pop\n        /* \"#utility.yul\":3111:4003   */\n      swap3\n      swap2\n      pop\n      pop\n      jump\t// out\n        /* \"#utility.yul\":4009:4108   */\n    tag_407:\n        /* \"#utility.yul\":4080:4101   */\n      tag_409\n        /* \"#utility.yul\":4095:4100   */\n      dup2\n        /* \"#utility.yul\":4080:4101   */\n      tag_410\n      jump\t// in\n    tag_409:\n        /* \"#utility.yul\":4075:4078   */\n      dup3\n        /* \"#utility.yul\":4068:4102   */\n      mstore\n        /* \"#utility.yul\":4009:4108   */\n      pop\n      pop\n      jump\t// out\n        /* \"#utility.yul\":4114:4480   */\n    tag_411:\n        /* \"#utility.yul\":4256:4259   */\n      0x00\n        /* \"#utility.yul\":4277:4344   */\n      tag_413\n        /* \"#utility.yul\":4341:4343   */\n      0x1b\n        /* \"#utility.yul\":4336:4339   */\n      dup4\n        /* \"#utility.yul\":4277:4344   */\n      tag_414\n      jump\t// in\n    tag_413:\n        /* \"#utility.yul\":4270:4344   */\n      swap2\n      pop\n        /* \"#utility.yul\":4353:4446   */\n      tag_415\n        /* \"#utility.yul\":4442:4445   */\n      dup3\n        /* \"#utility.yul\":4353:4446   */\n      tag_416\n      jump\t// in\n    tag_415:\n        /* \"#utility.yul\":4471:4473   */\n      0x20\n        /* \"#utility.yul\":4466:4469   */\n      dup3\n        /* \"#utility.yul\":4462:4474   */\n      add\n        /* \"#utility.yul\":4455:4474   */\n      swap1\n      pop\n        /* \"#utility.yul\":4114:4480   */\n      swap2\n      swap1\n      pop\n      jump\t// out\n        /* \"#utility.yul\":4486:4852   */\n    tag_417:\n        /* \"#utility.yul\":4628:4631   */\n      0x00\n        /* \"#utility.yul\":4649:4716   */\n      tag_419\n        /* \"#utility.yul\":4713:4715   */\n      0x26\n        /* \"#utility.yul\":4708:4711   */\n      dup4\n        /* \"#utility.yul\":4649:4716   */\n      tag_414\n      jump\t// in\n    tag_419:\n        /* \"#utility.yul\":4642:4716   */\n      swap2\n      pop\n        /* \"#utility.yul\":4725:4818   */\n      tag_420\n        /* \"#utility.yul\":4814:4817   */\n      dup3\n        /* \"#utility.yul\":4725:4818   */\n      tag_421\n      jump\t// in\n    tag_420:\n        /* \"#utility.yul\":4843:4845   */\n      0x40\n        /* \"#utility.yul\":4838:4841   */\n      dup3\n        /* \"#utility.yul\":4834:4846   */\n      add\n        /* \"#utility.yul\":4827:4846   */\n      swap1\n      pop\n        /* \"#utility.yul\":4486:4852   */\n      swap2\n      swap1\n      pop\n      jump\t// out\n        /* \"#utility.yul\":4858:5224   */\n    tag_422:\n        /* \"#utility.yul\":5000:5003   */\n      0x00\n        /* \"#utility.yul\":5021:5088   */\n      tag_424\n        /* \"#utility.yul\":5085:5087   */\n      0x0d\n        /* \"#utility.yul\":5080:5083   */\n      dup4\n        /* \"#utility.yul\":5021:5088   */\n      tag_414\n      jump\t// in\n    tag_424:\n        /* \"#utility.yul\":5014:5088   */\n      swap2\n      pop\n        /* \"#utility.yul\":5097:5190   */\n      tag_425\n        /* \"#utility.yul\":5186:5189   */\n      dup3\n        /* \"#utility.yul\":5097:5190   */\n      tag_426\n      jump\t// in\n    tag_425:\n        /* \"#utility.yul\":5215:5217   */\n      0x20\n        /* \"#utility.yul\":5210:5213   */\n      dup3\n        /* \"#utility.yul\":5206:5218   */\n      add\n        /* \"#utility.yul\":5199:5218   */\n      swap1\n      pop\n        /* \"#utility.yul\":4858:5224   */\n      swap2\n      swap1\n      pop\n      jump\t// out\n        /* \"#utility.yul\":5230:5596   */\n    tag_427:\n        /* \"#utility.yul\":5372:5375   */\n      0x00\n        /* \"#utility.yul\":5393:5460   */\n      tag_429\n        /* \"#utility.yul\":5457:5459   */\n      0x20\n        /* \"#utility.yul\":5452:5455   */\n      dup4\n        /* \"#utility.yul\":5393:5460   */\n      tag_414\n      jump\t// in\n    tag_429:\n        /* \"#utility.yul\":5386:5460   */\n      swap2\n      pop\n        /* \"#utility.yul\":5469:5562   */\n      tag_430\n        /* \"#utility.yul\":5558:5561   */\n      dup3\n        /* \"#utility.yul\":5469:5562   */\n      tag_431\n      jump\t// in\n    tag_430:\n        /* \"#utility.yul\":5587:5589   */\n      0x20\n        /* \"#utility.yul\":5582:5585   */\n      dup3\n        /* \"#utility.yul\":5578:5590   */\n      add\n        /* \"#utility.yul\":5571:5590   */\n      swap1\n      pop\n        /* \"#utility.yul\":5230:5596   */\n      swap2\n      swap1\n      pop\n      jump\t// out\n        /* \"#utility.yul\":5602:5968   */\n    tag_432:\n        /* \"#utility.yul\":5744:5747   */\n      0x00\n        /* \"#utility.yul\":5765:5832   */\n      tag_434\n        /* \"#utility.yul\":5829:5831   */\n      0x1f\n        /* \"#utility.yul\":5824:5827   */\n      dup4\n        /* \"#utility.yul\":5765:5832   */\n      tag_414\n      jump\t// in\n    tag_434:\n        /* \"#utility.yul\":5758:5832   */\n      swap2\n      pop\n        /* \"#utility.yul\":5841:5934   */\n      tag_435\n        /* \"#utility.yul\":5930:5933   */\n      dup3\n        /* \"#utility.yul\":5841:5934   */\n      tag_436\n      jump\t// in\n    tag_435:\n        /* \"#utility.yul\":5959:5961   */\n      0x20\n        /* \"#utility.yul\":5954:5957   */\n      dup3\n        /* \"#utility.yul\":5950:5962   */\n      add\n        /* \"#utility.yul\":5943:5962   */\n      swap1\n      pop\n        /* \"#utility.yul\":5602:5968   */\n      swap2\n      swap1\n      pop\n      jump\t// out\n        /* \"#utility.yul\":5974:6340   */\n    tag_437:\n        /* \"#utility.yul\":6116:6119   */\n      0x00\n        /* \"#utility.yul\":6137:6204   */\n      tag_439\n        /* \"#utility.yul\":6201:6203   */\n      0x1c\n        /* \"#utility.yul\":6196:6199   */\n      dup4\n        /* \"#utility.yul\":6137:6204   */\n      tag_414\n      jump\t// in\n    tag_439:\n        /* \"#utility.yul\":6130:6204   */\n      swap2\n      pop\n        /* \"#utility.yul\":6213:6306   */\n      tag_440\n        /* \"#utility.yul\":6302:6305   */\n      dup3\n        /* \"#utility.yul\":6213:6306   */\n      tag_441\n      jump\t// in\n    tag_440:\n        /* \"#utility.yul\":6331:6333   */\n      0x20\n        /* \"#utility.yul\":6326:6329   */\n      dup3\n        /* \"#utility.yul\":6322:6334   */\n      add\n        /* \"#utility.yul\":6315:6334   */\n      swap1\n      pop\n        /* \"#utility.yul\":5974:6340   */\n      swap2\n      swap1\n      pop\n      jump\t// out\n        /* \"#utility.yul\":6416:7834   */\n    tag_377:\n        /* \"#utility.yul\":6543:6547   */\n      0xe0\n        /* \"#utility.yul\":6538:6541   */\n      dup3\n        /* \"#utility.yul\":6534:6548   */\n      add\n        /* \"#utility.yul\":6637:6641   */\n      0x00\n        /* \"#utility.yul\":6630:6635   */\n      dup3\n        /* \"#utility.yul\":6626:6642   */\n      add\n        /* \"#utility.yul\":6620:6643   */\n      mload\n        /* \"#utility.yul\":6656:6719   */\n      tag_443\n        /* \"#utility.yul\":6713:6717   */\n      0x00\n        /* \"#utility.yul\":6708:6711   */\n      dup6\n        /* \"#utility.yul\":6704:6718   */\n      add\n        /* \"#utility.yul\":6690:6702   */\n      dup3\n        /* \"#utility.yul\":6656:6719   */\n      tag_386\n      jump\t// in\n    tag_443:\n        /* \"#utility.yul\":6558:6729   */\n      pop\n        /* \"#utility.yul\":6814:6818   */\n      0x20\n        /* \"#utility.yul\":6807:6812   */\n      dup3\n        /* \"#utility.yul\":6803:6819   */\n      add\n        /* \"#utility.yul\":6797:6820   */\n      mload\n        /* \"#utility.yul\":6833:6896   */\n      tag_444\n        /* \"#utility.yul\":6890:6894   */\n      0x20\n        /* \"#utility.yul\":6885:6888   */\n      dup6\n        /* \"#utility.yul\":6881:6895   */\n      add\n        /* \"#utility.yul\":6867:6879   */\n      dup3\n        /* \"#utility.yul\":6833:6896   */\n      tag_445\n      jump\t// in\n    tag_444:\n        /* \"#utility.yul\":6739:6906   */\n      pop\n        /* \"#utility.yul\":6989:6993   */\n      0x40\n        /* \"#utility.yul\":6982:6987   */\n      dup3\n        /* \"#utility.yul\":6978:6994   */\n      add\n        /* \"#utility.yul\":6972:6995   */\n      mload\n        /* \"#utility.yul\":7008:7071   */\n      tag_446\n        /* \"#utility.yul\":7065:7069   */\n      0x40\n        /* \"#utility.yul\":7060:7063   */\n      dup6\n        /* \"#utility.yul\":7056:7070   */\n      add\n        /* \"#utility.yul\":7042:7054   */\n      dup3\n        /* \"#utility.yul\":7008:7071   */\n      tag_445\n      jump\t// in\n    tag_446:\n        /* \"#utility.yul\":6916:7081   */\n      pop\n        /* \"#utility.yul\":7165:7169   */\n      0x60\n        /* \"#utility.yul\":7158:7163   */\n      dup3\n        /* \"#utility.yul\":7154:7170   */\n      add\n        /* \"#utility.yul\":7148:7171   */\n      mload\n        /* \"#utility.yul\":7184:7263   */\n      tag_447\n        /* \"#utility.yul\":7257:7261   */\n      0x60\n        /* \"#utility.yul\":7252:7255   */\n      dup6\n        /* \"#utility.yul\":7248:7262   */\n      add\n        /* \"#utility.yul\":7234:7246   */\n      dup3\n        /* \"#utility.yul\":7184:7263   */\n      tag_382\n      jump\t// in\n    tag_447:\n        /* \"#utility.yul\":7091:7273   */\n      pop\n        /* \"#utility.yul\":7356:7360   */\n      0x80\n        /* \"#utility.yul\":7349:7354   */\n      dup3\n        /* \"#utility.yul\":7345:7361   */\n      add\n        /* \"#utility.yul\":7339:7362   */\n      mload\n        /* \"#utility.yul\":7375:7454   */\n      tag_448\n        /* \"#utility.yul\":7448:7452   */\n      0x80\n        /* \"#utility.yul\":7443:7446   */\n      dup6\n        /* \"#utility.yul\":7439:7453   */\n      add\n        /* \"#utility.yul\":7425:7437   */\n      dup3\n        /* \"#utility.yul\":7375:7454   */\n      tag_382\n      jump\t// in\n    tag_448:\n        /* \"#utility.yul\":7283:7464   */\n      pop\n        /* \"#utility.yul\":7549:7553   */\n      0xa0\n        /* \"#utility.yul\":7542:7547   */\n      dup3\n        /* \"#utility.yul\":7538:7554   */\n      add\n        /* \"#utility.yul\":7532:7555   */\n      mload\n        /* \"#utility.yul\":7568:7647   */\n      tag_449\n        /* \"#utility.yul\":7641:7645   */\n      0xa0\n        /* \"#utility.yul\":7636:7639   */\n      dup6\n        /* \"#utility.yul\":7632:7646   */\n      add\n        /* \"#utility.yul\":7618:7630   */\n      dup3\n        /* \"#utility.yul\":7568:7647   */\n      tag_382\n      jump\t// in\n    tag_449:\n        /* \"#utility.yul\":7474:7657   */\n      pop\n        /* \"#utility.yul\":7741:7745   */\n      0xc0\n        /* \"#utility.yul\":7734:7739   */\n      dup3\n        /* \"#utility.yul\":7730:7746   */\n      add\n        /* \"#utility.yul\":7724:7747   */\n      mload\n        /* \"#utility.yul\":7760:7817   */\n      tag_450\n        /* \"#utility.yul\":7811:7815   */\n      0xc0\n        /* \"#utility.yul\":7806:7809   */\n      dup6\n        /* \"#utility.yul\":7802:7816   */\n      add\n        /* \"#utility.yul\":7788:7800   */\n      dup3\n        /* \"#utility.yul\":7760:7817   */\n      tag_407\n      jump\t// in\n    tag_450:\n        /* \"#utility.yul\":7667:7827   */\n      pop\n        /* \"#utility.yul\":6512:7834   */\n      pop\n        /* \"#utility.yul\":6416:7834   */\n      pop\n      pop\n      jump\t// out\n        /* \"#utility.yul\":7840:7948   */\n    tag_445:\n        /* \"#utility.yul\":7917:7941   */\n      tag_452\n        /* \"#utility.yul\":7935:7940   */\n      dup2\n        /* \"#utility.yul\":7917:7941   */\n      tag_453\n      jump\t// in\n    tag_452:\n        /* \"#utility.yul\":7912:7915   */\n      dup3\n        /* \"#utility.yul\":7905:7942   */\n      mstore\n        /* \"#utility.yul\":7840:7948   */\n      pop\n      pop\n      jump\t// out\n        /* \"#utility.yul\":7954:8072   */\n    tag_454:\n        /* \"#utility.yul\":8041:8065   */\n      tag_456\n        /* \"#utility.yul\":8059:8064   */\n      dup2\n        /* \"#utility.yul\":8041:8065   */\n      tag_453\n      jump\t// in\n    tag_456:\n        /* \"#utility.yul\":8036:8039   */\n      dup3\n        /* \"#utility.yul\":8029:8066   */\n      mstore\n        /* \"#utility.yul\":7954:8072   */\n      pop\n      pop\n      jump\t// out\n        /* \"#utility.yul\":8078:8300   */\n    tag_34:\n        /* \"#utility.yul\":8171:8175   */\n      0x00\n        /* \"#utility.yul\":8209:8211   */\n      0x20\n        /* \"#utility.yul\":8198:8207   */\n      dup3\n        /* \"#utility.yul\":8194:8212   */\n      add\n        /* \"#utility.yul\":8186:8212   */\n      swap1\n      pop\n        /* \"#utility.yul\":8222:8293   */\n      tag_458\n        /* \"#utility.yul\":8290:8291   */\n      0x00\n        /* \"#utility.yul\":8279:8288   */\n      dup4\n        /* \"#utility.yul\":8275:8292   */\n      add\n        /* \"#utility.yul\":8266:8272   */\n      dup5\n        /* \"#utility.yul\":8222:8293   */\n      tag_390\n      jump\t// in\n    tag_458:\n        /* \"#utility.yul\":8078:8300   */\n      swap3\n      swap2\n      pop\n      pop\n      jump\t// out\n        /* \"#utility.yul\":8306:8764   */\n    tag_164:\n        /* \"#utility.yul\":8463:8467   */\n      0x00\n        /* \"#utility.yul\":8501:8503   */\n      0x60\n        /* \"#utility.yul\":8490:8499   */\n      dup3\n        /* \"#utility.yul\":8486:8504   */\n      add\n        /* \"#utility.yul\":8478:8504   */\n      swap1\n      pop\n        /* \"#utility.yul\":8514:8585   */\n      tag_460\n        /* \"#utility.yul\":8582:8583   */\n      0x00\n        /* \"#utility.yul\":8571:8580   */\n      dup4\n        /* \"#utility.yul\":8567:8584   */\n      add\n        /* \"#utility.yul\":8558:8564   */\n      dup7\n        /* \"#utility.yul\":8514:8585   */\n      tag_390\n      jump\t// in\n    tag_460:\n        /* \"#utility.yul\":8595:8675   */\n      tag_461\n        /* \"#utility.yul\":8671:8673   */\n      0x20\n        /* \"#utility.yul\":8660:8669   */\n      dup4\n        /* \"#utility.yul\":8656:8674   */\n      add\n        /* \"#utility.yul\":8647:8653   */\n      dup6\n        /* \"#utility.yul\":8595:8675   */\n      tag_378\n      jump\t// in\n    tag_461:\n        /* \"#utility.yul\":8685:8757   */\n      tag_462\n        /* \"#utility.yul\":8753:8755   */\n      0x40\n        /* \"#utility.yul\":8742:8751   */\n      dup4\n        /* \"#utility.yul\":8738:8756   */\n      add\n        /* \"#utility.yul\":8729:8735   */\n      dup5\n        /* \"#utility.yul\":8685:8757   */\n      tag_454\n      jump\t// in\n    tag_462:\n        /* \"#utility.yul\":8306:8764   */\n      swap5\n      swap4\n      pop\n      pop\n      pop\n      pop\n      jump\t// out\n        /* \"#utility.yul\":8770:9212   */\n    tag_80:\n        /* \"#utility.yul\":8919:8923   */\n      0x00\n        /* \"#utility.yul\":8957:8959   */\n      0x60\n        /* \"#utility.yul\":8946:8955   */\n      dup3\n        /* \"#utility.yul\":8942:8960   */\n      add\n        /* \"#utility.yul\":8934:8960   */\n      swap1\n      pop\n        /* \"#utility.yul\":8970:9041   */\n      tag_464\n        /* \"#utility.yul\":9038:9039   */\n      0x00\n        /* \"#utility.yul\":9027:9036   */\n      dup4\n        /* \"#utility.yul\":9023:9040   */\n      add\n        /* \"#utility.yul\":9014:9020   */\n      dup7\n        /* \"#utility.yul\":8970:9041   */\n      tag_390\n      jump\t// in\n    tag_464:\n        /* \"#utility.yul\":9051:9123   */\n      tag_465\n        /* \"#utility.yul\":9119:9121   */\n      0x20\n        /* \"#utility.yul\":9108:9117   */\n      dup4\n        /* \"#utility.yul\":9104:9122   */\n      add\n        /* \"#utility.yul\":9095:9101   */\n      dup6\n        /* \"#utility.yul\":9051:9123   */\n      tag_390\n      jump\t// in\n    tag_465:\n        /* \"#utility.yul\":9133:9205   */\n      tag_466\n        /* \"#utility.yul\":9201:9203   */\n      0x40\n        /* \"#utility.yul\":9190:9199   */\n      dup4\n        /* \"#utility.yul\":9186:9204   */\n      add\n        /* \"#utility.yul\":9177:9183   */\n      dup5\n        /* \"#utility.yul\":9133:9205   */\n      tag_454\n      jump\t// in\n    tag_466:\n        /* \"#utility.yul\":8770:9212   */\n      swap5\n      swap4\n      pop\n      pop\n      pop\n      pop\n      jump\t// out\n        /* \"#utility.yul\":9218:9660   */\n    tag_100:\n        /* \"#utility.yul\":9367:9371   */\n      0x00\n        /* \"#utility.yul\":9405:9407   */\n      0x60\n        /* \"#utility.yul\":9394:9403   */\n      dup3\n        /* \"#utility.yul\":9390:9408   */\n      add\n        /* \"#utility.yul\":9382:9408   */\n      swap1\n      pop\n        /* \"#utility.yul\":9418:9489   */\n      tag_468\n        /* \"#utility.yul\":9486:9487   */\n      0x00\n        /* \"#utility.yul\":9475:9484   */\n      dup4\n        /* \"#utility.yul\":9471:9488   */\n      add\n        /* \"#utility.yul\":9462:9468   */\n      dup7\n        /* \"#utility.yul\":9418:9489   */\n      tag_390\n      jump\t// in\n    tag_468:\n        /* \"#utility.yul\":9499:9571   */\n      tag_469\n        /* \"#utility.yul\":9567:9569   */\n      0x20\n        /* \"#utility.yul\":9556:9565   */\n      dup4\n        /* \"#utility.yul\":9552:9570   */\n      add\n        /* \"#utility.yul\":9543:9549   */\n      dup6\n        /* \"#utility.yul\":9499:9571   */\n      tag_454\n      jump\t// in\n    tag_469:\n        /* \"#utility.yul\":9581:9653   */\n      tag_470\n        /* \"#utility.yul\":9649:9651   */\n      0x40\n        /* \"#utility.yul\":9638:9647   */\n      dup4\n        /* \"#utility.yul\":9634:9652   */\n      add\n        /* \"#utility.yul\":9625:9631   */\n      dup5\n        /* \"#utility.yul\":9581:9653   */\n      tag_454\n      jump\t// in\n    tag_470:\n        /* \"#utility.yul\":9218:9660   */\n      swap5\n      swap4\n      pop\n      pop\n      pop\n      pop\n      jump\t// out\n        /* \"#utility.yul\":9666:10119   */\n    tag_22:\n        /* \"#utility.yul\":9849:9853   */\n      0x00\n        /* \"#utility.yul\":9887:9889   */\n      0x20\n        /* \"#utility.yul\":9876:9885   */\n      dup3\n        /* \"#utility.yul\":9872:9890   */\n      add\n        /* \"#utility.yul\":9864:9890   */\n      swap1\n      pop\n        /* \"#utility.yul\":9936:9945   */\n      dup2\n        /* \"#utility.yul\":9930:9934   */\n      dup2\n        /* \"#utility.yul\":9926:9946   */\n      sub\n        /* \"#utility.yul\":9922:9923   */\n      0x00\n        /* \"#utility.yul\":9911:9920   */\n      dup4\n        /* \"#utility.yul\":9907:9924   */\n      add\n        /* \"#utility.yul\":9900:9947   */\n      mstore\n        /* \"#utility.yul\":9964:10112   */\n      tag_472\n        /* \"#utility.yul\":10107:10111   */\n      dup2\n        /* \"#utility.yul\":10098:10104   */\n      dup5\n        /* \"#utility.yul\":9964:10112   */\n      tag_393\n      jump\t// in\n    tag_472:\n        /* \"#utility.yul\":9956:10112   */\n      swap1\n      pop\n        /* \"#utility.yul\":9666:10119   */\n      swap3\n      swap2\n      pop\n      pop\n      jump\t// out\n        /* \"#utility.yul\":10125:10544   */\n    tag_339:\n        /* \"#utility.yul\":10291:10295   */\n      0x00\n        /* \"#utility.yul\":10329:10331   */\n      0x20\n        /* \"#utility.yul\":10318:10327   */\n      dup3\n        /* \"#utility.yul\":10314:10332   */\n      add\n        /* \"#utility.yul\":10306:10332   */\n      swap1\n      pop\n        /* \"#utility.yul\":10378:10387   */\n      dup2\n        /* \"#utility.yul\":10372:10376   */\n      dup2\n        /* \"#utility.yul\":10368:10388   */\n      sub\n        /* \"#utility.yul\":10364:10365   */\n      0x00\n        /* \"#utility.yul\":10353:10362   */\n      dup4\n        /* \"#utility.yul\":10349:10366   */\n      add\n        /* \"#utility.yul\":10342:10389   */\n      mstore\n        /* \"#utility.yul\":10406:10537   */\n      tag_474\n        /* \"#utility.yul\":10532:10536   */\n      dup2\n        /* \"#utility.yul\":10406:10537   */\n      tag_411\n      jump\t// in\n    tag_474:\n        /* \"#utility.yul\":10398:10537   */\n      swap1\n      pop\n        /* \"#utility.yul\":10125:10544   */\n      swap2\n      swap1\n      pop\n      jump\t// out\n        /* \"#utility.yul\":10550:10969   */\n    tag_160:\n        /* \"#utility.yul\":10716:10720   */\n      0x00\n        /* \"#utility.yul\":10754:10756   */\n      0x20\n        /* \"#utility.yul\":10743:10752   */\n      dup3\n        /* \"#utility.yul\":10739:10757   */\n      add\n        /* \"#utility.yul\":10731:10757   */\n      swap1\n      pop\n        /* \"#utility.yul\":10803:10812   */\n      dup2\n        /* \"#utility.yul\":10797:10801   */\n      dup2\n        /* \"#utility.yul\":10793:10813   */\n      sub\n        /* \"#utility.yul\":10789:10790   */\n      0x00\n        /* \"#utility.yul\":10778:10787   */\n      dup4\n        /* \"#utility.yul\":10774:10791   */\n      add\n        /* \"#utility.yul\":10767:10814   */\n      mstore\n        /* \"#utility.yul\":10831:10962   */\n      tag_476\n        /* \"#utility.yul\":10957:10961   */\n      dup2\n        /* \"#utility.yul\":10831:10962   */\n      tag_417\n      jump\t// in\n    tag_476:\n        /* \"#utility.yul\":10823:10962   */\n      swap1\n      pop\n        /* \"#utility.yul\":10550:10969   */\n      swap2\n      swap1\n      pop\n      jump\t// out\n        /* \"#utility.yul\":10975:11394   */\n    tag_78:\n        /* \"#utility.yul\":11141:11145   */\n      0x00\n        /* \"#utility.yul\":11179:11181   */\n      0x20\n        /* \"#utility.yul\":11168:11177   */\n      dup3\n        /* \"#utility.yul\":11164:11182   */\n      add\n        /* \"#utility.yul\":11156:11182   */\n      swap1\n      pop\n        /* \"#utility.yul\":11228:11237   */\n      dup2\n        /* \"#utility.yul\":11222:11226   */\n      dup2\n        /* \"#utility.yul\":11218:11238   */\n      sub\n        /* \"#utility.yul\":11214:11215   */\n      0x00\n        /* \"#utility.yul\":11203:11212   */\n      dup4\n        /* \"#utility.yul\":11199:11216   */\n      add\n        /* \"#utility.yul\":11192:11239   */\n      mstore\n        /* \"#utility.yul\":11256:11387   */\n      tag_478\n        /* \"#utility.yul\":11382:11386   */\n      dup2\n        /* \"#utility.yul\":11256:11387   */\n      tag_422\n      jump\t// in\n    tag_478:\n        /* \"#utility.yul\":11248:11387   */\n      swap1\n      pop\n        /* \"#utility.yul\":10975:11394   */\n      swap2\n      swap1\n      pop\n      jump\t// out\n        /* \"#utility.yul\":11400:11819   */\n    tag_73:\n        /* \"#utility.yul\":11566:11570   */\n      0x00\n        /* \"#utility.yul\":11604:11606   */\n      0x20\n        /* \"#utility.yul\":11593:11602   */\n      dup3\n        /* \"#utility.yul\":11589:11607   */\n      add\n        /* \"#utility.yul\":11581:11607   */\n      swap1\n      pop\n        /* \"#utility.yul\":11653:11662   */\n      dup2\n        /* \"#utility.yul\":11647:11651   */\n      dup2\n        /* \"#utility.yul\":11643:11663   */\n      sub\n        /* \"#utility.yul\":11639:11640   */\n      0x00\n        /* \"#utility.yul\":11628:11637   */\n      dup4\n        /* \"#utility.yul\":11624:11641   */\n      add\n        /* \"#utility.yul\":11617:11664   */\n      mstore\n        /* \"#utility.yul\":11681:11812   */\n      tag_480\n        /* \"#utility.yul\":11807:11811   */\n      dup2\n        /* \"#utility.yul\":11681:11812   */\n      tag_427\n      jump\t// in\n    tag_480:\n        /* \"#utility.yul\":11673:11812   */\n      swap1\n      pop\n        /* \"#utility.yul\":11400:11819   */\n      swap2\n      swap1\n      pop\n      jump\t// out\n        /* \"#utility.yul\":11825:12244   */\n    tag_66:\n        /* \"#utility.yul\":11991:11995   */\n      0x00\n        /* \"#utility.yul\":12029:12031   */\n      0x20\n        /* \"#utility.yul\":12018:12027   */\n      dup3\n        /* \"#utility.yul\":12014:12032   */\n      add\n        /* \"#utility.yul\":12006:12032   */\n      swap1\n      pop\n        /* \"#utility.yul\":12078:12087   */\n      dup2\n        /* \"#utility.yul\":12072:12076   */\n      dup2\n        /* \"#utility.yul\":12068:12088   */\n      sub\n        /* \"#utility.yul\":12064:12065   */\n      0x00\n        /* \"#utility.yul\":12053:12062   */\n      dup4\n        /* \"#utility.yul\":12049:12066   */\n      add\n        /* \"#utility.yul\":12042:12089   */\n      mstore\n        /* \"#utility.yul\":12106:12237   */\n      tag_482\n        /* \"#utility.yul\":12232:12236   */\n      dup2\n        /* \"#utility.yul\":12106:12237   */\n      tag_432\n      jump\t// in\n    tag_482:\n        /* \"#utility.yul\":12098:12237   */\n      swap1\n      pop\n        /* \"#utility.yul\":11825:12244   */\n      swap2\n      swap1\n      pop\n      jump\t// out\n        /* \"#utility.yul\":12250:12669   */\n    tag_70:\n        /* \"#utility.yul\":12416:12420   */\n      0x00\n        /* \"#utility.yul\":12454:12456   */\n      0x20\n        /* \"#utility.yul\":12443:12452   */\n      dup3\n        /* \"#utility.yul\":12439:12457   */\n      add\n        /* \"#utility.yul\":12431:12457   */\n      swap1\n      pop\n        /* \"#utility.yul\":12503:12512   */\n      dup2\n        /* \"#utility.yul\":12497:12501   */\n      dup2\n        /* \"#utility.yul\":12493:12513   */\n      sub\n        /* \"#utility.yul\":12489:12490   */\n      0x00\n        /* \"#utility.yul\":12478:12487   */\n      dup4\n        /* \"#utility.yul\":12474:12491   */\n      add\n        /* \"#utility.yul\":12467:12514   */\n      mstore\n        /* \"#utility.yul\":12531:12662   */\n      tag_484\n        /* \"#utility.yul\":12657:12661   */\n      dup2\n        /* \"#utility.yul\":12531:12662   */\n      tag_437\n      jump\t// in\n    tag_484:\n        /* \"#utility.yul\":12523:12662   */\n      swap1\n      pop\n        /* \"#utility.yul\":12250:12669   */\n      swap2\n      swap1\n      pop\n      jump\t// out\n        /* \"#utility.yul\":12675:12897   */\n    tag_27:\n        /* \"#utility.yul\":12768:12772   */\n      0x00\n        /* \"#utility.yul\":12806:12808   */\n      0x20\n        /* \"#utility.yul\":12795:12804   */\n      dup3\n        /* \"#utility.yul\":12791:12809   */\n      add\n        /* \"#utility.yul\":12783:12809   */\n      swap1\n      pop\n        /* \"#utility.yul\":12819:12890   */\n      tag_486\n        /* \"#utility.yul\":12887:12888   */\n      0x00\n        /* \"#utility.yul\":12876:12885   */\n      dup4\n        /* \"#utility.yul\":12872:12889   */\n      add\n        /* \"#utility.yul\":12863:12869   */\n      dup5\n        /* \"#utility.yul\":12819:12890   */\n      tag_454\n      jump\t// in\n    tag_486:\n        /* \"#utility.yul\":12675:12897   */\n      swap3\n      swap2\n      pop\n      pop\n      jump\t// out\n        /* \"#utility.yul\":12984:13136   */\n    tag_400:\n        /* \"#utility.yul\":13071:13075   */\n      0x00\n        /* \"#utility.yul\":13094:13097   */\n      dup2\n        /* \"#utility.yul\":13086:13097   */\n      swap1\n      pop\n        /* \"#utility.yul\":13124:13128   */\n      0x20\n        /* \"#utility.yul\":13119:13122   */\n      dup3\n        /* \"#utility.yul\":13115:13129   */\n      add\n        /* \"#utility.yul\":13107:13129   */\n      swap1\n      pop\n        /* \"#utility.yul\":12984:13136   */\n      swap2\n      swap1\n      pop\n      jump\t// out\n        /* \"#utility.yul\":13142:13276   */\n    tag_396:\n        /* \"#utility.yul\":13229:13235   */\n      0x00\n        /* \"#utility.yul\":13263:13268   */\n      dup2\n        /* \"#utility.yul\":13257:13269   */\n      mload\n        /* \"#utility.yul\":13247:13269   */\n      swap1\n      pop\n        /* \"#utility.yul\":13142:13276   */\n      swap2\n      swap1\n      pop\n      jump\t// out\n        /* \"#utility.yul\":13282:13415   */\n    tag_406:\n        /* \"#utility.yul\":13372:13376   */\n      0x00\n        /* \"#utility.yul\":13404:13408   */\n      0x20\n        /* \"#utility.yul\":13399:13402   */\n      dup3\n        /* \"#utility.yul\":13395:13409   */\n      add\n        /* \"#utility.yul\":13387:13409   */\n      swap1\n      pop\n        /* \"#utility.yul\":13282:13415   */\n      swap2\n      swap1\n      pop\n      jump\t// out\n        /* \"#utility.yul\":13421:13625   */\n    tag_398:\n        /* \"#utility.yul\":13540:13551   */\n      0x00\n        /* \"#utility.yul\":13574:13580   */\n      dup3\n        /* \"#utility.yul\":13569:13572   */\n      dup3\n        /* \"#utility.yul\":13562:13581   */\n      mstore\n        /* \"#utility.yul\":13614:13618   */\n      0x20\n        /* \"#utility.yul\":13609:13612   */\n      dup3\n        /* \"#utility.yul\":13605:13619   */\n      add\n        /* \"#utility.yul\":13590:13619   */\n      swap1\n      pop\n        /* \"#utility.yul\":13421:13625   */\n      swap3\n      swap2\n      pop\n      pop\n      jump\t// out\n        /* \"#utility.yul\":13631:13800   */\n    tag_414:\n        /* \"#utility.yul\":13715:13726   */\n      0x00\n        /* \"#utility.yul\":13749:13755   */\n      dup3\n        /* \"#utility.yul\":13744:13747   */\n      dup3\n        /* \"#utility.yul\":13737:13756   */\n      mstore\n        /* \"#utility.yul\":13789:13793   */\n      0x20\n        /* \"#utility.yul\":13784:13787   */\n      dup3\n        /* \"#utility.yul\":13780:13794   */\n      add\n        /* \"#utility.yul\":13765:13794   */\n      swap1\n      pop\n        /* \"#utility.yul\":13631:13800   */\n      swap3\n      swap2\n      pop\n      pop\n      jump\t// out\n        /* \"#utility.yul\":13806:13997   */\n    tag_211:\n        /* \"#utility.yul\":13846:13850   */\n      0x00\n        /* \"#utility.yul\":13866:13886   */\n      tag_495\n        /* \"#utility.yul\":13884:13885   */\n      dup3\n        /* \"#utility.yul\":13866:13886   */\n      tag_453\n      jump\t// in\n    tag_495:\n        /* \"#utility.yul\":13861:13886   */\n      swap2\n      pop\n        /* \"#utility.yul\":13900:13920   */\n      tag_496\n        /* \"#utility.yul\":13918:13919   */\n      dup4\n        /* \"#utility.yul\":13900:13920   */\n      tag_453\n      jump\t// in\n    tag_496:\n        /* \"#utility.yul\":13895:13920   */\n      swap3\n      pop\n        /* \"#utility.yul\":13939:13940   */\n      dup3\n        /* \"#utility.yul\":13936:13937   */\n      dup3\n        /* \"#utility.yul\":13933:13941   */\n      lt\n        /* \"#utility.yul\":13930:13964   */\n      iszero\n      tag_497\n      jumpi\n        /* \"#utility.yul\":13944:13962   */\n      tag_498\n      tag_499\n      jump\t// in\n    tag_498:\n        /* \"#utility.yul\":13930:13964   */\n    tag_497:\n        /* \"#utility.yul\":13989:13990   */\n      dup3\n        /* \"#utility.yul\":13986:13987   */\n      dup3\n        /* \"#utility.yul\":13982:13991   */\n      sub\n        /* \"#utility.yul\":13974:13991   */\n      swap1\n      pop\n        /* \"#utility.yul\":13806:13997   */\n      swap3\n      swap2\n      pop\n      pop\n      jump\t// out\n        /* \"#utility.yul\":14003:14099   */\n    tag_389:\n        /* \"#utility.yul\":14040:14047   */\n      0x00\n        /* \"#utility.yul\":14069:14093   */\n      tag_501\n        /* \"#utility.yul\":14087:14092   */\n      dup3\n        /* \"#utility.yul\":14069:14093   */\n      tag_502\n      jump\t// in\n    tag_501:\n        /* \"#utility.yul\":14058:14093   */\n      swap1\n      pop\n        /* \"#utility.yul\":14003:14099   */\n      swap2\n      swap1\n      pop\n      jump\t// out\n        /* \"#utility.yul\":14105:14209   */\n    tag_385:\n        /* \"#utility.yul\":14150:14157   */\n      0x00\n        /* \"#utility.yul\":14179:14203   */\n      tag_504\n        /* \"#utility.yul\":14197:14202   */\n      dup3\n        /* \"#utility.yul\":14179:14203   */\n      tag_502\n      jump\t// in\n    tag_504:\n        /* \"#utility.yul\":14168:14203   */\n      swap1\n      pop\n        /* \"#utility.yul\":14105:14209   */\n      swap2\n      swap1\n      pop\n      jump\t// out\n        /* \"#utility.yul\":14215:14305   */\n    tag_410:\n        /* \"#utility.yul\":14249:14256   */\n      0x00\n        /* \"#utility.yul\":14292:14297   */\n      dup2\n        /* \"#utility.yul\":14285:14298   */\n      iszero\n        /* \"#utility.yul\":14278:14299   */\n      iszero\n        /* \"#utility.yul\":14267:14299   */\n      swap1\n      pop\n        /* \"#utility.yul\":14215:14305   */\n      swap2\n      swap1\n      pop\n      jump\t// out\n        /* \"#utility.yul\":14311:14437   */\n    tag_502:\n        /* \"#utility.yul\":14348:14355   */\n      0x00\n        /* \"#utility.yul\":14388:14430   */\n      0xffffffffffffffffffffffffffffffffffffffff\n        /* \"#utility.yul\":14381:14386   */\n      dup3\n        /* \"#utility.yul\":14377:14431   */\n      and\n        /* \"#utility.yul\":14366:14431   */\n      swap1\n      pop\n        /* \"#utility.yul\":14311:14437   */\n      swap2\n      swap1\n      pop\n      jump\t// out\n        /* \"#utility.yul\":14443:14520   */\n    tag_453:\n        /* \"#utility.yul\":14480:14487   */\n      0x00\n        /* \"#utility.yul\":14509:14514   */\n      dup2\n        /* \"#utility.yul\":14498:14514   */\n      swap1\n      pop\n        /* \"#utility.yul\":14443:14520   */\n      swap2\n      swap1\n      pop\n      jump\t// out\n        /* \"#utility.yul\":14526:14660   */\n    tag_381:\n        /* \"#utility.yul\":14584:14593   */\n      0x00\n        /* \"#utility.yul\":14617:14654   */\n      tag_509\n        /* \"#utility.yul\":14648:14653   */\n      dup3\n        /* \"#utility.yul\":14617:14654   */\n      tag_510\n      jump\t// in\n    tag_509:\n        /* \"#utility.yul\":14604:14654   */\n      swap1\n      pop\n        /* \"#utility.yul\":14526:14660   */\n      swap2\n      swap1\n      pop\n      jump\t// out\n        /* \"#utility.yul\":14666:14792   */\n    tag_510:\n        /* \"#utility.yul\":14716:14725   */\n      0x00\n        /* \"#utility.yul\":14749:14786   */\n      tag_512\n        /* \"#utility.yul\":14780:14785   */\n      dup3\n        /* \"#utility.yul\":14749:14786   */\n      tag_513\n      jump\t// in\n    tag_512:\n        /* \"#utility.yul\":14736:14786   */\n      swap1\n      pop\n        /* \"#utility.yul\":14666:14792   */\n      swap2\n      swap1\n      pop\n      jump\t// out\n        /* \"#utility.yul\":14798:14911   */\n    tag_513:\n        /* \"#utility.yul\":14848:14857   */\n      0x00\n        /* \"#utility.yul\":14881:14905   */\n      tag_515\n        /* \"#utility.yul\":14899:14904   */\n      dup3\n        /* \"#utility.yul\":14881:14905   */\n      tag_502\n      jump\t// in\n    tag_515:\n        /* \"#utility.yul\":14868:14905   */\n      swap1\n      pop\n        /* \"#utility.yul\":14798:14911   */\n      swap2\n      swap1\n      pop\n      jump\t// out\n        /* \"#utility.yul\":14917:15150   */\n    tag_116:\n        /* \"#utility.yul\":14956:14959   */\n      0x00\n        /* \"#utility.yul\":14979:15003   */\n      tag_517\n        /* \"#utility.yul\":14997:15002   */\n      dup3\n        /* \"#utility.yul\":14979:15003   */\n      tag_453\n      jump\t// in\n    tag_517:\n        /* \"#utility.yul\":14970:15003   */\n      swap2\n      pop\n        /* \"#utility.yul\":15025:15091   */\n      0xffffffffffffffffffffffffffffffffffffffffffffffffffffffffffffffff\n        /* \"#utility.yul\":15018:15023   */\n      dup3\n        /* \"#utility.yul\":15015:15092   */\n      eq\n        /* \"#utility.yul\":15012:15115   */\n      iszero\n      tag_518\n      jumpi\n        /* \"#utility.yul\":15095:15113   */\n      tag_519\n      tag_499\n      jump\t// in\n    tag_519:\n        /* \"#utility.yul\":15012:15115   */\n    tag_518:\n        /* \"#utility.yul\":15142:15143   */\n      0x01\n        /* \"#utility.yul\":15135:15140   */\n      dup3\n        /* \"#utility.yul\":15131:15144   */\n      add\n        /* \"#utility.yul\":15124:15144   */\n      swap1\n      pop\n        /* \"#utility.yul\":14917:15150   */\n      swap2\n      swap1\n      pop\n      jump\t// out\n        /* \"#utility.yul\":15156:15336   */\n    tag_499:\n        /* \"#utility.yul\":15204:15281   */\n      0x4e487b7100000000000000000000000000000000000000000000000000000000\n        /* \"#utility.yul\":15201:15202   */\n      0x00\n        /* \"#utility.yul\":15194:15282   */\n      mstore\n        /* \"#utility.yul\":15301:15305   */\n      0x11\n        /* \"#utility.yul\":15298:15299   */\n      0x04\n        /* \"#utility.yul\":15291:15306   */\n      mstore\n        /* \"#utility.yul\":15325:15329   */\n      0x24\n        /* \"#utility.yul\":15322:15323   */\n      0x00\n        /* \"#utility.yul\":15315:15330   */\n      revert\n        /* \"#utility.yul\":15342:15522   */\n    tag_86:\n        /* \"#utility.yul\":15390:15467   */\n      0x4e487b7100000000000000000000000000000000000000000000000000000000\n        /* \"#utility.yul\":15387:15388   */\n      0x00\n        /* \"#utility.yul\":15380:15468   */\n      mstore\n        /* \"#utility.yul\":15487:15491   */\n      0x32\n        /* \"#utility.yul\":15484:15485   */\n      0x04\n        /* \"#utility.yul\":15477:15492   */\n      mstore\n        /* \"#utility.yul\":15511:15515   */\n      0x24\n        /* \"#utility.yul\":15508:15509   */\n      0x00\n        /* \"#utility.yul\":15501:15516   */\n      revert\n        /* \"#utility.yul\":15528:15708   */\n    tag_120:\n        /* \"#utility.yul\":15576:15653   */\n      0x4e487b7100000000000000000000000000000000000000000000000000000000\n        /* \"#utility.yul\":15573:15574   */\n      0x00\n        /* \"#utility.yul\":15566:15654   */\n      mstore\n        /* \"#utility.yul\":15673:15677   */\n      0x41\n        /* \"#utility.yul\":15670:15671   */\n      0x04\n        /* \"#utility.yul\":15663:15678   */\n      mstore\n        /* \"#utility.yul\":15697:15701   */\n      0x24\n        /* \"#utility.yul\":15694:15695   */\n      0x00\n        /* \"#utility.yul\":15687:15702   */\n      revert\n        /* \"#utility.yul\":15837:15954   */\n    tag_357:\n        /* \"#utility.yul\":15946:15947   */\n      0x00\n        /* \"#utility.yul\":15943:15944   */\n      dup1\n        /* \"#utility.yul\":15936:15948   */\n      revert\n        /* \"#utility.yul\":15960:16137   */\n    tag_416:\n        /* \"#utility.yul\":16100:16129   */\n      0x436f756e7465723a2064656372656d656e74206f766572666c6f770000000000\n        /* \"#utility.yul\":16096:16097   */\n      0x00\n        /* \"#utility.yul\":16088:16094   */\n      dup3\n        /* \"#utility.yul\":16084:16098   */\n      add\n        /* \"#utility.yul\":16077:16130   */\n      mstore\n        /* \"#utility.yul\":15960:16137   */\n      pop\n      jump\t// out\n        /* \"#utility.yul\":16143:16368   */\n    tag_421:\n        /* \"#utility.yul\":16283:16317   */\n      0x4e6f7420656e6f75676820657468657220746f20636f7665722061736b696e67\n        /* \"#utility.yul\":16279:16280   */\n      0x00\n        /* \"#utility.yul\":16271:16277   */\n      dup3\n        /* \"#utility.yul\":16267:16281   */\n      add\n        /* \"#utility.yul\":16260:16318   */\n      mstore\n        /* \"#utility.yul\":16352:16360   */\n      0x2070726963650000000000000000000000000000000000000000000000000000\n        /* \"#utility.yul\":16347:16349   */\n      0x20\n        /* \"#utility.yul\":16339:16345   */\n      dup3\n        /* \"#utility.yul\":16335:16350   */\n      add\n        /* \"#utility.yul\":16328:16361   */\n      mstore\n        /* \"#utility.yul\":16143:16368   */\n      pop\n      jump\t// out\n        /* \"#utility.yul\":16374:16537   */\n    tag_426:\n        /* \"#utility.yul\":16514:16529   */\n      0x4e6674206e6f7420666f756e6400000000000000000000000000000000000000\n        /* \"#utility.yul\":16510:16511   */\n      0x00\n        /* \"#utility.yul\":16502:16508   */\n      dup3\n        /* \"#utility.yul\":16498:16512   */\n      add\n        /* \"#utility.yul\":16491:16530   */\n      mstore\n        /* \"#utility.yul\":16374:16537   */\n      pop\n      jump\t// out\n        /* \"#utility.yul\":16543:16725   */\n    tag_431:\n        /* \"#utility.yul\":16683:16717   */\n      0x4e6f7420656e6f75676820657468657220666f72206c697374696e6720666565\n        /* \"#utility.yul\":16679:16680   */\n      0x00\n        /* \"#utility.yul\":16671:16677   */\n      dup3\n        /* \"#utility.yul\":16667:16681   */\n      add\n        /* \"#utility.yul\":16660:16718   */\n      mstore\n        /* \"#utility.yul\":16543:16725   */\n      pop\n      jump\t// out\n        /* \"#utility.yul\":16731:16912   */\n    tag_436:\n        /* \"#utility.yul\":16871:16904   */\n      0x5265656e7472616e637947756172643a207265656e7472616e742063616c6c00\n        /* \"#utility.yul\":16867:16868   */\n      0x00\n        /* \"#utility.yul\":16859:16865   */\n      dup3\n        /* \"#utility.yul\":16855:16869   */\n      add\n        /* \"#utility.yul\":16848:16905   */\n      mstore\n        /* \"#utility.yul\":16731:16912   */\n      pop\n      jump\t// out\n        /* \"#utility.yul\":16918:17096   */\n    tag_441:\n        /* \"#utility.yul\":17058:17088   */\n      0x5072696365206d757374206265206174206c6561737420312077656900000000\n        /* \"#utility.yul\":17054:17055   */\n      0x00\n        /* \"#utility.yul\":17046:17052   */\n      dup3\n        /* \"#utility.yul\":17042:17056   */\n      add\n        /* \"#utility.yul\":17035:17089   */\n      mstore\n        /* \"#utility.yul\":16918:17096   */\n      pop\n      jump\t// out\n        /* \"#utility.yul\":17102:17224   */\n    tag_346:\n        /* \"#utility.yul\":17175:17199   */\n      tag_533\n        /* \"#utility.yul\":17193:17198   */\n      dup2\n        /* \"#utility.yul\":17175:17199   */\n      tag_389\n      jump\t// in\n    tag_533:\n        /* \"#utility.yul\":17168:17173   */\n      dup2\n        /* \"#utility.yul\":17165:17200   */\n      eq\n        /* \"#utility.yul\":17155:17218   */\n      tag_534\n      jumpi\n        /* \"#utility.yul\":17214:17215   */\n      0x00\n        /* \"#utility.yul\":17211:17212   */\n      dup1\n        /* \"#utility.yul\":17204:17216   */\n      revert\n        /* \"#utility.yul\":17155:17218   */\n    tag_534:\n        /* \"#utility.yul\":17102:17224   */\n      pop\n      jump\t// out\n        /* \"#utility.yul\":17230:17352   */\n    tag_353:\n        /* \"#utility.yul\":17303:17327   */\n      tag_536\n        /* \"#utility.yul\":17321:17326   */\n      dup2\n        /* \"#utility.yul\":17303:17327   */\n      tag_453\n      jump\t// in\n    tag_536:\n        /* \"#utility.yul\":17296:17301   */\n      dup2\n        /* \"#utility.yul\":17293:17328   */\n      eq\n        /* \"#utility.yul\":17283:17346   */\n      tag_537\n      jumpi\n        /* \"#utility.yul\":17342:17343   */\n      0x00\n        /* \"#utility.yul\":17339:17340   */\n      dup1\n        /* \"#utility.yul\":17332:17344   */\n      revert\n        /* \"#utility.yul\":17283:17346   */\n    tag_537:\n        /* \"#utility.yul\":17230:17352   */\n      pop\n      jump\t// out\n\n    auxdata: 0xa26469706673582212206bb61aba997385f372ecf120c98e758df94e289e7102e79bc34314ade7322c0d64736f6c63430008070033\n}\n",
				"bytecode": {
					"linkReferences": {},
					"object": "608060405266071afd498d000060035534801561001b57600080fd5b50600160008190555033600460006101000a81548173ffffffffffffffffffffffffffffffffffffffff021916908373ffffffffffffffffffffffffffffffffffffffff160217905550612c36806100746000396000f3fe60806040526004361061009c5760003560e01c80638492095a116100645780638492095a1461016c5780638d6cb3fb14610197578063a46b5c5a146101c2578063ad05f1b4146101ed578063b8fe6abe14610209578063e7d90feb146102345761009c565b806304935694146100a15780631f4cc4db146100bd5780632b86ae38146100e85780632f634a90146101135780634ddf4f8f14610150575b600080fd5b6100bb60048036038101906100b6919061247e565b610271565b005b3480156100c957600080fd5b506100d26105db565b6040516100df91906127d0565b60405180910390f35b3480156100f457600080fd5b506100fd6109e5565b60405161010a91906128b2565b60405180910390f35b34801561011f57600080fd5b5061013a6004803603810190610135919061243e565b6109eb565b6040516101479190612710565b60405180910390f35b61016a6004803603810190610165919061243e565b610a7e565b005b34801561017857600080fd5b50610181610d79565b60405161018e91906127d0565b60405180910390f35b3480156101a357600080fd5b506101ac61110d565b6040516101b991906127d0565b60405180910390f35b3480156101ce57600080fd5b506101d76113d1565b6040516101e491906127d0565b60405180910390f35b6102076004803603810190610202919061247e565b611765565b005b34801561021557600080fd5b5061021e611b9d565b60405161022b91906128b2565b60405180910390f35b34801561024057600080fd5b5061025b600480360381019061025691906123e4565b611ba7565b60405161026891906127d0565b60405180910390f35b600260005414156102b7576040517f08c379a00000000000000000000000000000000000000000000000000000000081526004016102ae90612872565b60405180910390fd5b600260008190555060008111610302576040517f08c379a00000000000000000000000000000000000000000000000000000000081526004016102f990612892565b60405180910390fd5b6003543414610346576040517f08c379a000000000000000000000000000000000000000000000000000000000815260040161033d90612852565b60405180910390fd5b60006103528484611fb3565b9050809150507fffffffffffffffffffffffffffffffffffffffffffffffffffffffffffffffff8114156103bb576040517f08c379a00000000000000000000000000000000000000000000000000000000081526004016103b290612832565b60405180910390fd5b8373ffffffffffffffffffffffffffffffffffffffff166323b872dd3330866040518463ffffffff1660e01b81526004016103f893929190612762565b600060405180830381600087803b15801561041257600080fd5b505af1158015610426573d6000803e3d6000fd5b50505050336005828154811061043f5761043e612a53565b5b906000526020600020906006020160030160006101000a81548173ffffffffffffffffffffffffffffffffffffffff021916908373ffffffffffffffffffffffffffffffffffffffff16021790555030600582815481106104a3576104a2612a53565b5b906000526020600020906006020160040160006101000a81548173ffffffffffffffffffffffffffffffffffffffff021916908373ffffffffffffffffffffffffffffffffffffffff16021790555060016005828154811061050857610507612a53565b5b906000526020600020906006020160050160146101000a81548160ff021916908315150217905550816005828154811061054557610544612a53565b5b906000526020600020906006020160020181905550610564600161228e565b3073ffffffffffffffffffffffffffffffffffffffff163373ffffffffffffffffffffffffffffffffffffffff167fa0c6c0d02d86fdacecbaa5fdf5894bab204e31a778250474108540733a9b8d198686866040516105c593929190612799565b60405180910390a3506001600081905550505050565b606060006105e960026122ea565b90506000805b828110156106cd573373ffffffffffffffffffffffffffffffffffffffff166005828154811061062257610621612a53565b5b906000526020600020906006020160030160009054906101000a900473ffffffffffffffffffffffffffffffffffffffff1673ffffffffffffffffffffffffffffffffffffffff161480156106a657506005818154811061068657610685612a53565b5b906000526020600020906006020160050160149054906101000a900460ff165b156106ba5781806106b6906129db565b9250505b80806106c5906129db565b9150506105ef565b5060008167ffffffffffffffff8111156106ea576106e9612a82565b5b60405190808252806020026020018201604052801561072357816020015b61071061230e565b8152602001906001900390816107085790505b5090506000805b848110156109da573373ffffffffffffffffffffffffffffffffffffffff166005828154811061075d5761075c612a53565b5b906000526020600020906006020160030160009054906101000a900473ffffffffffffffffffffffffffffffffffffffff1673ffffffffffffffffffffffffffffffffffffffff161480156107e15750600581815481106107c1576107c0612a53565b5b906000526020600020906006020160050160149054906101000a900460ff165b156109c757600581815481106107fa576107f9612a53565b5b90600052602060002090600602016040518060e00160405290816000820160009054906101000a900473ffffffffffffffffffffffffffffffffffffffff1673ffffffffffffffffffffffffffffffffffffffff1673ffffffffffffffffffffffffffffffffffffffff16815260200160018201548152602001600282015481526020016003820160009054906101000a900473ffffffffffffffffffffffffffffffffffffffff1673ffffffffffffffffffffffffffffffffffffffff1673ffffffffffffffffffffffffffffffffffffffff1681526020016004820160009054906101000a900473ffffffffffffffffffffffffffffffffffffffff1673ffffffffffffffffffffffffffffffffffffffff1673ffffffffffffffffffffffffffffffffffffffff1681526020016005820160009054906101000a900473ffffffffffffffffffffffffffffffffffffffff1673ffffffffffffffffffffffffffffffffffffffff1673ffffffffffffffffffffffffffffffffffffffff1681526020016005820160149054906101000a900460ff1615151515815250508383815181106109ad576109ac612a53565b5b602002602001018190525081806109c3906129db565b9250505b80806109d2906129db565b91505061072a565b508194505050505090565b60035481565b60008273ffffffffffffffffffffffffffffffffffffffff16636352211e836040518263ffffffff1660e01b8152600401610a2691906128b2565b60206040518083038186803b158015610a3e57600080fd5b505afa158015610a52573d6000803e3d6000fd5b505050506040513d601f19601f82011682018060405250810190610a769190612411565b905092915050565b60026000541415610ac4576040517f08c379a0000000000000000000000000000000000000000000000000000000008152600401610abb90612872565b60405180910390fd5b6002600081905550610ad461230e565b6000610ae08484611fb3565b80925081935050507fffffffffffffffffffffffffffffffffffffffffffffffffffffffffffffffff811415610b4b576040517f08c379a0000000000000000000000000000000000000000000000000000000008152600401610b4290612832565b60405180910390fd5b8160400151341015610b92576040517f08c379a0000000000000000000000000000000000000000000000000000000008152600401610b8990612812565b60405180910390fd5b6000339050826060015173ffffffffffffffffffffffffffffffffffffffff166108fc349081150290604051600060405180830381858888f19350505050158015610be1573d6000803e3d6000fd5b508473ffffffffffffffffffffffffffffffffffffffff166323b872dd3083876040518463ffffffff1660e01b8152600401610c1f9392919061272b565b600060405180830381600087803b158015610c3957600080fd5b505af1158015610c4d573d6000803e3d6000fd5b505050508060058381548110610c6657610c65612a53565b5b906000526020600020906006020160040160006101000a81548173ffffffffffffffffffffffffffffffffffffffff021916908373ffffffffffffffffffffffffffffffffffffffff160217905550600060058381548110610ccb57610cca612a53565b5b906000526020600020906006020160050160146101000a81548160ff021916908315150217905550610cfd60016122f8565b8073ffffffffffffffffffffffffffffffffffffffff16836060015173ffffffffffffffffffffffffffffffffffffffff167f16f1dbd97e6bf646d429ed186cce832f1f7fd9907814293b83181e9970ab7bd2878734604051610d6293929190612799565b60405180910390a350505060016000819055505050565b60606000610d8760026122ea565b90506000805b82811015610e30573373ffffffffffffffffffffffffffffffffffffffff1660058281548110610dc057610dbf612a53565b5b906000526020600020906006020160050160009054906101000a900473ffffffffffffffffffffffffffffffffffffffff1673ffffffffffffffffffffffffffffffffffffffff161415610e1d578180610e19906129db565b9250505b8080610e28906129db565b915050610d8d565b5060008167ffffffffffffffff811115610e4d57610e4c612a82565b5b604051908082528060200260200182016040528015610e8657816020015b610e7361230e565b815260200190600190039081610e6b5790505b5090506000805b84811015611102573373ffffffffffffffffffffffffffffffffffffffff1660058281548110610ec057610ebf612a53565b5b906000526020600020906006020160050160009054906101000a900473ffffffffffffffffffffffffffffffffffffffff1673ffffffffffffffffffffffffffffffffffffffff1614156110ef5760058181548110610f2257610f21612a53565b5b90600052602060002090600602016040518060e00160405290816000820160009054906101000a900473ffffffffffffffffffffffffffffffffffffffff1673ffffffffffffffffffffffffffffffffffffffff1673ffffffffffffffffffffffffffffffffffffffff16815260200160018201548152602001600282015481526020016003820160009054906101000a900473ffffffffffffffffffffffffffffffffffffffff1673ffffffffffffffffffffffffffffffffffffffff1673ffffffffffffffffffffffffffffffffffffffff1681526020016004820160009054906101000a900473ffffffffffffffffffffffffffffffffffffffff1673ffffffffffffffffffffffffffffffffffffffff1673ffffffffffffffffffffffffffffffffffffffff1681526020016005820160009054906101000a900473ffffffffffffffffffffffffffffffffffffffff1673ffffffffffffffffffffffffffffffffffffffff1673ffffffffffffffffffffffffffffffffffffffff1681526020016005820160149054906101000a900460ff1615151515815250508383815181106110d5576110d4612a53565b5b602002602001018190525081806110eb906129db565b9250505b80806110fa906129db565b915050610e8d565b508194505050505090565b6060600061111b60026122ea565b9050600061112960016122ea565b826111349190612917565b905060008167ffffffffffffffff81111561115257611151612a82565b5b60405190808252806020026020018201604052801561118b57816020015b61117861230e565b8152602001906001900390816111705790505b5090506000805b848110156113c657600581815481106111ae576111ad612a53565b5b906000526020600020906006020160050160149054906101000a900460ff16156113b357600581815481106111e6576111e5612a53565b5b90600052602060002090600602016040518060e00160405290816000820160009054906101000a900473ffffffffffffffffffffffffffffffffffffffff1673ffffffffffffffffffffffffffffffffffffffff1673ffffffffffffffffffffffffffffffffffffffff16815260200160018201548152602001600282015481526020016003820160009054906101000a900473ffffffffffffffffffffffffffffffffffffffff1673ffffffffffffffffffffffffffffffffffffffff1673ffffffffffffffffffffffffffffffffffffffff1681526020016004820160009054906101000a900473ffffffffffffffffffffffffffffffffffffffff1673ffffffffffffffffffffffffffffffffffffffff1673ffffffffffffffffffffffffffffffffffffffff1681526020016005820160009054906101000a900473ffffffffffffffffffffffffffffffffffffffff1673ffffffffffffffffffffffffffffffffffffffff1673ffffffffffffffffffffffffffffffffffffffff1681526020016005820160149054906101000a900460ff16151515158152505083838151811061139957611398612a53565b5b602002602001018190525081806113af906129db565b9250505b80806113be906129db565b915050611192565b508194505050505090565b606060006113df60026122ea565b90506000805b82811015611488573373ffffffffffffffffffffffffffffffffffffffff166005828154811061141857611417612a53565b5b906000526020600020906006020160040160009054906101000a900473ffffffffffffffffffffffffffffffffffffffff1673ffffffffffffffffffffffffffffffffffffffff161415611475578180611471906129db565b9250505b8080611480906129db565b9150506113e5565b5060008167ffffffffffffffff8111156114a5576114a4612a82565b5b6040519080825280602002602001820160405280156114de57816020015b6114cb61230e565b8152602001906001900390816114c35790505b5090506000805b8481101561175a573373ffffffffffffffffffffffffffffffffffffffff166005828154811061151857611517612a53565b5b906000526020600020906006020160040160009054906101000a900473ffffffffffffffffffffffffffffffffffffffff1673ffffffffffffffffffffffffffffffffffffffff161415611747576005818154811061157a57611579612a53565b5b90600052602060002090600602016040518060e00160405290816000820160009054906101000a900473ffffffffffffffffffffffffffffffffffffffff1673ffffffffffffffffffffffffffffffffffffffff1673ffffffffffffffffffffffffffffffffffffffff16815260200160018201548152602001600282015481526020016003820160009054906101000a900473ffffffffffffffffffffffffffffffffffffffff1673ffffffffffffffffffffffffffffffffffffffff1673ffffffffffffffffffffffffffffffffffffffff1681526020016004820160009054906101000a900473ffffffffffffffffffffffffffffffffffffffff1673ffffffffffffffffffffffffffffffffffffffff1673ffffffffffffffffffffffffffffffffffffffff1681526020016005820160009054906101000a900473ffffffffffffffffffffffffffffffffffffffff1673ffffffffffffffffffffffffffffffffffffffff1673ffffffffffffffffffffffffffffffffffffffff1681526020016005820160149054906101000a900460ff16151515158152505083838151811061172d5761172c612a53565b5b60200260200101819052508180611743906129db565b9250505b8080611752906129db565b9150506114e5565b508194505050505090565b600260005414156117ab576040517f08c379a00000000000000000000000000000000000000000000000000000000081526004016117a290612872565b60405180910390fd5b6002600081905550600081116117f6576040517f08c379a00000000000000000000000000000000000000000000000000000000081526004016117ed90612892565b60405180910390fd5b600354341461183a576040517f08c379a000000000000000000000000000000000000000000000000000000000815260040161183190612852565b60405180910390fd5b8273ffffffffffffffffffffffffffffffffffffffff166323b872dd3330856040518463ffffffff1660e01b815260040161187793929190612762565b600060405180830381600087803b15801561189157600080fd5b505af11580156118a5573d6000803e3d6000fd5b5050505060056040518060e001604052808573ffffffffffffffffffffffffffffffffffffffff1681526020018481526020018381526020013373ffffffffffffffffffffffffffffffffffffffff1681526020013073ffffffffffffffffffffffffffffffffffffffff1681526020013373ffffffffffffffffffffffffffffffffffffffff16815260200160011515815250908060018154018082558091505060019003906000526020600020906006020160009091909190915060008201518160000160006101000a81548173ffffffffffffffffffffffffffffffffffffffff021916908373ffffffffffffffffffffffffffffffffffffffff160217905550602082015181600101556040820151816002015560608201518160030160006101000a81548173ffffffffffffffffffffffffffffffffffffffff021916908373ffffffffffffffffffffffffffffffffffffffff16021790555060808201518160040160006101000a81548173ffffffffffffffffffffffffffffffffffffffff021916908373ffffffffffffffffffffffffffffffffffffffff16021790555060a08201518160050160006101000a81548173ffffffffffffffffffffffffffffffffffffffff021916908373ffffffffffffffffffffffffffffffffffffffff16021790555060c08201518160050160146101000a81548160ff0219169083151502179055505050611abe60026122f8565b600460009054906101000a900473ffffffffffffffffffffffffffffffffffffffff1673ffffffffffffffffffffffffffffffffffffffff166108fc349081150290604051600060405180830381858888f19350505050158015611b26573d6000803e3d6000fd5b503073ffffffffffffffffffffffffffffffffffffffff163373ffffffffffffffffffffffffffffffffffffffff167fa0c6c0d02d86fdacecbaa5fdf5894bab204e31a778250474108540733a9b8d19858585604051611b8893929190612799565b60405180910390a36001600081905550505050565b6000600354905090565b60606000611bb560026122ea565b90506000805b82811015611c99573373ffffffffffffffffffffffffffffffffffffffff1660058281548110611bee57611bed612a53565b5b906000526020600020906006020160030160009054906101000a900473ffffffffffffffffffffffffffffffffffffffff1673ffffffffffffffffffffffffffffffffffffffff16148015611c72575060058181548110611c5257611c51612a53565b5b906000526020600020906006020160050160149054906101000a900460ff165b15611c86578180611c82906129db565b9250505b8080611c91906129db565b915050611bbb565b5060008167ffffffffffffffff811115611cb657611cb5612a82565b5b604051908082528060200260200182016040528015611cef57816020015b611cdc61230e565b815260200190600190039081611cd45790505b5090506000805b84811015611fa6573373ffffffffffffffffffffffffffffffffffffffff1660058281548110611d2957611d28612a53565b5b906000526020600020906006020160030160009054906101000a900473ffffffffffffffffffffffffffffffffffffffff1673ffffffffffffffffffffffffffffffffffffffff16148015611dad575060058181548110611d8d57611d8c612a53565b5b906000526020600020906006020160050160149054906101000a900460ff165b15611f935760058181548110611dc657611dc5612a53565b5b90600052602060002090600602016040518060e00160405290816000820160009054906101000a900473ffffffffffffffffffffffffffffffffffffffff1673ffffffffffffffffffffffffffffffffffffffff1673ffffffffffffffffffffffffffffffffffffffff16815260200160018201548152602001600282015481526020016003820160009054906101000a900473ffffffffffffffffffffffffffffffffffffffff1673ffffffffffffffffffffffffffffffffffffffff1673ffffffffffffffffffffffffffffffffffffffff1681526020016004820160009054906101000a900473ffffffffffffffffffffffffffffffffffffffff1673ffffffffffffffffffffffffffffffffffffffff1673ffffffffffffffffffffffffffffffffffffffff1681526020016005820160009054906101000a900473ffffffffffffffffffffffffffffffffffffffff1673ffffffffffffffffffffffffffffffffffffffff1673ffffffffffffffffffffffffffffffffffffffff1681526020016005820160149054906101000a900460ff161515151581525050838381518110611f7957611f78612a53565b5b60200260200101819052508180611f8f906129db565b9250505b8080611f9e906129db565b915050611cf6565b5081945050505050919050565b611fbb61230e565b6000611fc561230e565b60007fffffffffffffffffffffffffffffffffffffffffffffffffffffffffffffffff90506000611ff660026122ea565b905060005b8181101561227d578773ffffffffffffffffffffffffffffffffffffffff166005828154811061202e5761202d612a53565b5b906000526020600020906006020160000160009054906101000a900473ffffffffffffffffffffffffffffffffffffffff1673ffffffffffffffffffffffffffffffffffffffff161480156120a75750866005828154811061209357612092612a53565b5b906000526020600020906006020160010154145b1561226a57600581815481106120c0576120bf612a53565b5b90600052602060002090600602016040518060e00160405290816000820160009054906101000a900473ffffffffffffffffffffffffffffffffffffffff1673ffffffffffffffffffffffffffffffffffffffff1673ffffffffffffffffffffffffffffffffffffffff16815260200160018201548152602001600282015481526020016003820160009054906101000a900473ffffffffffffffffffffffffffffffffffffffff1673ffffffffffffffffffffffffffffffffffffffff1673ffffffffffffffffffffffffffffffffffffffff1681526020016004820160009054906101000a900473ffffffffffffffffffffffffffffffffffffffff1673ffffffffffffffffffffffffffffffffffffffff1673ffffffffffffffffffffffffffffffffffffffff1681526020016005820160009054906101000a900473ffffffffffffffffffffffffffffffffffffffff1673ffffffffffffffffffffffffffffffffffffffff1673ffffffffffffffffffffffffffffffffffffffff1681526020016005820160149054906101000a900460ff161515151581525050935080925061227d565b8080612275906129db565b915050611ffb565b508282945094505050509250929050565b600081600001549050600081116122da576040517f08c379a00000000000000000000000000000000000000000000000000000000081526004016122d1906127f2565b60405180910390fd5b6001810382600001819055505050565b600081600001549050919050565b6001816000016000828254019250508190555050565b6040518060e00160405280600073ffffffffffffffffffffffffffffffffffffffff1681526020016000815260200160008152602001600073ffffffffffffffffffffffffffffffffffffffff168152602001600073ffffffffffffffffffffffffffffffffffffffff168152602001600073ffffffffffffffffffffffffffffffffffffffff1681526020016000151581525090565b6000813590506123b481612bd2565b92915050565b6000815190506123c981612bd2565b92915050565b6000813590506123de81612be9565b92915050565b6000602082840312156123fa576123f9612ab1565b5b6000612408848285016123a5565b91505092915050565b60006020828403121561242757612426612ab1565b5b6000612435848285016123ba565b91505092915050565b6000806040838503121561245557612454612ab1565b5b6000612463858286016123a5565b9250506020612474858286016123cf565b9150509250929050565b60008060006060848603121561249757612496612ab1565b5b60006124a5868287016123a5565b93505060206124b6868287016123cf565b92505060406124c7868287016123cf565b9150509250925092565b60006124dd8383612664565b60e08301905092915050565b6124f2816129a5565b82525050565b6125018161295d565b82525050565b6125108161294b565b82525050565b61251f8161294b565b82525050565b6000612530826128dd565b61253a81856128f5565b9350612545836128cd565b8060005b8381101561257657815161255d88826124d1565b9750612568836128e8565b925050600181019050612549565b5085935050505092915050565b61258c8161296f565b82525050565b600061259f601b83612906565b91506125aa82612ab6565b602082019050919050565b60006125c2602683612906565b91506125cd82612adf565b604082019050919050565b60006125e5600d83612906565b91506125f082612b2e565b602082019050919050565b6000612608602083612906565b915061261382612b57565b602082019050919050565b600061262b601f83612906565b915061263682612b80565b602082019050919050565b600061264e601c83612906565b915061265982612ba9565b602082019050919050565b60e08201600082015161267a6000850182612507565b50602082015161268d60208501826126f2565b5060408201516126a060408501826126f2565b5060608201516126b360608501826124f8565b5060808201516126c660808501826124f8565b5060a08201516126d960a08501826124f8565b5060c08201516126ec60c0850182612583565b50505050565b6126fb8161299b565b82525050565b61270a8161299b565b82525050565b60006020820190506127256000830184612516565b92915050565b60006060820190506127406000830186612516565b61274d60208301856124e9565b61275a6040830184612701565b949350505050565b60006060820190506127776000830186612516565b6127846020830185612516565b6127916040830184612701565b949350505050565b60006060820190506127ae6000830186612516565b6127bb6020830185612701565b6127c86040830184612701565b949350505050565b600060208201905081810360008301526127ea8184612525565b905092915050565b6000602082019050818103600083015261280b81612592565b9050919050565b6000602082019050818103600083015261282b816125b5565b9050919050565b6000602082019050818103600083015261284b816125d8565b9050919050565b6000602082019050818103600083015261286b816125fb565b9050919050565b6000602082019050818103600083015261288b8161261e565b9050919050565b600060208201905081810360008301526128ab81612641565b9050919050565b60006020820190506128c76000830184612701565b92915050565b6000819050602082019050919050565b600081519050919050565b6000602082019050919050565b600082825260208201905092915050565b600082825260208201905092915050565b60006129228261299b565b915061292d8361299b565b9250828210156129405761293f612a24565b5b828203905092915050565b60006129568261297b565b9050919050565b60006129688261297b565b9050919050565b60008115159050919050565b600073ffffffffffffffffffffffffffffffffffffffff82169050919050565b6000819050919050565b60006129b0826129b7565b9050919050565b60006129c2826129c9565b9050919050565b60006129d48261297b565b9050919050565b60006129e68261299b565b91507fffffffffffffffffffffffffffffffffffffffffffffffffffffffffffffffff821415612a1957612a18612a24565b5b600182019050919050565b7f4e487b7100000000000000000000000000000000000000000000000000000000600052601160045260246000fd5b7f4e487b7100000000000000000000000000000000000000000000000000000000600052603260045260246000fd5b7f4e487b7100000000000000000000000000000000000000000000000000000000600052604160045260246000fd5b600080fd5b7f436f756e7465723a2064656372656d656e74206f766572666c6f770000000000600082015250565b7f4e6f7420656e6f75676820657468657220746f20636f7665722061736b696e6760008201527f2070726963650000000000000000000000000000000000000000000000000000602082015250565b7f4e6674206e6f7420666f756e6400000000000000000000000000000000000000600082015250565b7f4e6f7420656e6f75676820657468657220666f72206c697374696e6720666565600082015250565b7f5265656e7472616e637947756172643a207265656e7472616e742063616c6c00600082015250565b7f5072696365206d757374206265206174206c6561737420312077656900000000600082015250565b612bdb8161294b565b8114612be657600080fd5b50565b612bf28161299b565b8114612bfd57600080fd5b5056fea26469706673582212206bb61aba997385f372ecf120c98e758df94e289e7102e79bc34314ade7322c0d64736f6c63430008070033",
					"opcodes": "PUSH1 0x80 PUSH1 0x40 MSTORE PUSH7 0x71AFD498D0000 PUSH1 0x3 SSTORE CALLVALUE DUP1 ISZERO PUSH2 0x1B JUMPI PUSH1 0x0 DUP1 REVERT JUMPDEST POP PUSH1 0x1 PUSH1 0x0 DUP2 SWAP1 SSTORE POP CALLER PUSH1 0x4 PUSH1 0x0 PUSH2 0x100 EXP DUP2 SLOAD DUP2 PUSH20 0xFFFFFFFFFFFFFFFFFFFFFFFFFFFFFFFFFFFFFFFF MUL NOT AND SWAP1 DUP4 PUSH20 0xFFFFFFFFFFFFFFFFFFFFFFFFFFFFFFFFFFFFFFFF AND MUL OR SWAP1 SSTORE POP PUSH2 0x2C36 DUP1 PUSH2 0x74 PUSH1 0x0 CODECOPY PUSH1 0x0 RETURN INVALID PUSH1 0x80 PUSH1 0x40 MSTORE PUSH1 0x4 CALLDATASIZE LT PUSH2 0x9C JUMPI PUSH1 0x0 CALLDATALOAD PUSH1 0xE0 SHR DUP1 PUSH4 0x8492095A GT PUSH2 0x64 JUMPI DUP1 PUSH4 0x8492095A EQ PUSH2 0x16C JUMPI DUP1 PUSH4 0x8D6CB3FB EQ PUSH2 0x197 JUMPI DUP1 PUSH4 0xA46B5C5A EQ PUSH2 0x1C2 JUMPI DUP1 PUSH4 0xAD05F1B4 EQ PUSH2 0x1ED JUMPI DUP1 PUSH4 0xB8FE6ABE EQ PUSH2 0x209 JUMPI DUP1 PUSH4 0xE7D90FEB EQ PUSH2 0x234 JUMPI PUSH2 0x9C JUMP JUMPDEST DUP1 PUSH4 0x4935694 EQ PUSH2 0xA1 JUMPI DUP1 PUSH4 0x1F4CC4DB EQ PUSH2 0xBD JUMPI DUP1 PUSH4 0x2B86AE38 EQ PUSH2 0xE8 JUMPI DUP1 PUSH4 0x2F634A90 EQ PUSH2 0x113 JUMPI DUP1 PUSH4 0x4DDF4F8F EQ PUSH2 0x150 JUMPI JUMPDEST PUSH1 0x0 DUP1 REVERT JUMPDEST PUSH2 0xBB PUSH1 0x4 DUP1 CALLDATASIZE SUB DUP2 ADD SWAP1 PUSH2 0xB6 SWAP2 SWAP1 PUSH2 0x247E JUMP JUMPDEST PUSH2 0x271 JUMP JUMPDEST STOP JUMPDEST CALLVALUE DUP1 ISZERO PUSH2 0xC9 JUMPI PUSH1 0x0 DUP1 REVERT JUMPDEST POP PUSH2 0xD2 PUSH2 0x5DB JUMP JUMPDEST PUSH1 0x40 MLOAD PUSH2 0xDF SWAP2 SWAP1 PUSH2 0x27D0 JUMP JUMPDEST PUSH1 0x40 MLOAD DUP1 SWAP2 SUB SWAP1 RETURN JUMPDEST CALLVALUE DUP1 ISZERO PUSH2 0xF4 JUMPI PUSH1 0x0 DUP1 REVERT JUMPDEST POP PUSH2 0xFD PUSH2 0x9E5 JUMP JUMPDEST PUSH1 0x40 MLOAD PUSH2 0x10A SWAP2 SWAP1 PUSH2 0x28B2 JUMP JUMPDEST PUSH1 0x40 MLOAD DUP1 SWAP2 SUB SWAP1 RETURN JUMPDEST CALLVALUE DUP1 ISZERO PUSH2 0x11F JUMPI PUSH1 0x0 DUP1 REVERT JUMPDEST POP PUSH2 0x13A PUSH1 0x4 DUP1 CALLDATASIZE SUB DUP2 ADD SWAP1 PUSH2 0x135 SWAP2 SWAP1 PUSH2 0x243E JUMP JUMPDEST PUSH2 0x9EB JUMP JUMPDEST PUSH1 0x40 MLOAD PUSH2 0x147 SWAP2 SWAP1 PUSH2 0x2710 JUMP JUMPDEST PUSH1 0x40 MLOAD DUP1 SWAP2 SUB SWAP1 RETURN JUMPDEST PUSH2 0x16A PUSH1 0x4 DUP1 CALLDATASIZE SUB DUP2 ADD SWAP1 PUSH2 0x165 SWAP2 SWAP1 PUSH2 0x243E JUMP JUMPDEST PUSH2 0xA7E JUMP JUMPDEST STOP JUMPDEST CALLVALUE DUP1 ISZERO PUSH2 0x178 JUMPI PUSH1 0x0 DUP1 REVERT JUMPDEST POP PUSH2 0x181 PUSH2 0xD79 JUMP JUMPDEST PUSH1 0x40 MLOAD PUSH2 0x18E SWAP2 SWAP1 PUSH2 0x27D0 JUMP JUMPDEST PUSH1 0x40 MLOAD DUP1 SWAP2 SUB SWAP1 RETURN JUMPDEST CALLVALUE DUP1 ISZERO PUSH2 0x1A3 JUMPI PUSH1 0x0 DUP1 REVERT JUMPDEST POP PUSH2 0x1AC PUSH2 0x110D JUMP JUMPDEST PUSH1 0x40 MLOAD PUSH2 0x1B9 SWAP2 SWAP1 PUSH2 0x27D0 JUMP JUMPDEST PUSH1 0x40 MLOAD DUP1 SWAP2 SUB SWAP1 RETURN JUMPDEST CALLVALUE DUP1 ISZERO PUSH2 0x1CE JUMPI PUSH1 0x0 DUP1 REVERT JUMPDEST POP PUSH2 0x1D7 PUSH2 0x13D1 JUMP JUMPDEST PUSH1 0x40 MLOAD PUSH2 0x1E4 SWAP2 SWAP1 PUSH2 0x27D0 JUMP JUMPDEST PUSH1 0x40 MLOAD DUP1 SWAP2 SUB SWAP1 RETURN JUMPDEST PUSH2 0x207 PUSH1 0x4 DUP1 CALLDATASIZE SUB DUP2 ADD SWAP1 PUSH2 0x202 SWAP2 SWAP1 PUSH2 0x247E JUMP JUMPDEST PUSH2 0x1765 JUMP JUMPDEST STOP JUMPDEST CALLVALUE DUP1 ISZERO PUSH2 0x215 JUMPI PUSH1 0x0 DUP1 REVERT JUMPDEST POP PUSH2 0x21E PUSH2 0x1B9D JUMP JUMPDEST PUSH1 0x40 MLOAD PUSH2 0x22B SWAP2 SWAP1 PUSH2 0x28B2 JUMP JUMPDEST PUSH1 0x40 MLOAD DUP1 SWAP2 SUB SWAP1 RETURN JUMPDEST CALLVALUE DUP1 ISZERO PUSH2 0x240 JUMPI PUSH1 0x0 DUP1 REVERT JUMPDEST POP PUSH2 0x25B PUSH1 0x4 DUP1 CALLDATASIZE SUB DUP2 ADD SWAP1 PUSH2 0x256 SWAP2 SWAP1 PUSH2 0x23E4 JUMP JUMPDEST PUSH2 0x1BA7 JUMP JUMPDEST PUSH1 0x40 MLOAD PUSH2 0x268 SWAP2 SWAP1 PUSH2 0x27D0 JUMP JUMPDEST PUSH1 0x40 MLOAD DUP1 SWAP2 SUB SWAP1 RETURN JUMPDEST PUSH1 0x2 PUSH1 0x0 SLOAD EQ ISZERO PUSH2 0x2B7 JUMPI PUSH1 0x40 MLOAD PUSH32 0x8C379A000000000000000000000000000000000000000000000000000000000 DUP2 MSTORE PUSH1 0x4 ADD PUSH2 0x2AE SWAP1 PUSH2 0x2872 JUMP JUMPDEST PUSH1 0x40 MLOAD DUP1 SWAP2 SUB SWAP1 REVERT JUMPDEST PUSH1 0x2 PUSH1 0x0 DUP2 SWAP1 SSTORE POP PUSH1 0x0 DUP2 GT PUSH2 0x302 JUMPI PUSH1 0x40 MLOAD PUSH32 0x8C379A000000000000000000000000000000000000000000000000000000000 DUP2 MSTORE PUSH1 0x4 ADD PUSH2 0x2F9 SWAP1 PUSH2 0x2892 JUMP JUMPDEST PUSH1 0x40 MLOAD DUP1 SWAP2 SUB SWAP1 REVERT JUMPDEST PUSH1 0x3 SLOAD CALLVALUE EQ PUSH2 0x346 JUMPI PUSH1 0x40 MLOAD PUSH32 0x8C379A000000000000000000000000000000000000000000000000000000000 DUP2 MSTORE PUSH1 0x4 ADD PUSH2 0x33D SWAP1 PUSH2 0x2852 JUMP JUMPDEST PUSH1 0x40 MLOAD DUP1 SWAP2 SUB SWAP1 REVERT JUMPDEST PUSH1 0x0 PUSH2 0x352 DUP5 DUP5 PUSH2 0x1FB3 JUMP JUMPDEST SWAP1 POP DUP1 SWAP2 POP POP PUSH32 0xFFFFFFFFFFFFFFFFFFFFFFFFFFFFFFFFFFFFFFFFFFFFFFFFFFFFFFFFFFFFFFFF DUP2 EQ ISZERO PUSH2 0x3BB JUMPI PUSH1 0x40 MLOAD PUSH32 0x8C379A000000000000000000000000000000000000000000000000000000000 DUP2 MSTORE PUSH1 0x4 ADD PUSH2 0x3B2 SWAP1 PUSH2 0x2832 JUMP JUMPDEST PUSH1 0x40 MLOAD DUP1 SWAP2 SUB SWAP1 REVERT JUMPDEST DUP4 PUSH20 0xFFFFFFFFFFFFFFFFFFFFFFFFFFFFFFFFFFFFFFFF AND PUSH4 0x23B872DD CALLER ADDRESS DUP7 PUSH1 0x40 MLOAD DUP5 PUSH4 0xFFFFFFFF AND PUSH1 0xE0 SHL DUP2 MSTORE PUSH1 0x4 ADD PUSH2 0x3F8 SWAP4 SWAP3 SWAP2 SWAP1 PUSH2 0x2762 JUMP JUMPDEST PUSH1 0x0 PUSH1 0x40 MLOAD DUP1 DUP4 SUB DUP2 PUSH1 0x0 DUP8 DUP1 EXTCODESIZE ISZERO DUP1 ISZERO PUSH2 0x412 JUMPI PUSH1 0x0 DUP1 REVERT JUMPDEST POP GAS CALL ISZERO DUP1 ISZERO PUSH2 0x426 JUMPI RETURNDATASIZE PUSH1 0x0 DUP1 RETURNDATACOPY RETURNDATASIZE PUSH1 0x0 REVERT JUMPDEST POP POP POP POP CALLER PUSH1 0x5 DUP3 DUP2 SLOAD DUP2 LT PUSH2 0x43F JUMPI PUSH2 0x43E PUSH2 0x2A53 JUMP JUMPDEST JUMPDEST SWAP1 PUSH1 0x0 MSTORE PUSH1 0x20 PUSH1 0x0 KECCAK256 SWAP1 PUSH1 0x6 MUL ADD PUSH1 0x3 ADD PUSH1 0x0 PUSH2 0x100 EXP DUP2 SLOAD DUP2 PUSH20 0xFFFFFFFFFFFFFFFFFFFFFFFFFFFFFFFFFFFFFFFF MUL NOT AND SWAP1 DUP4 PUSH20 0xFFFFFFFFFFFFFFFFFFFFFFFFFFFFFFFFFFFFFFFF AND MUL OR SWAP1 SSTORE POP ADDRESS PUSH1 0x5 DUP3 DUP2 SLOAD DUP2 LT PUSH2 0x4A3 JUMPI PUSH2 0x4A2 PUSH2 0x2A53 JUMP JUMPDEST JUMPDEST SWAP1 PUSH1 0x0 MSTORE PUSH1 0x20 PUSH1 0x0 KECCAK256 SWAP1 PUSH1 0x6 MUL ADD PUSH1 0x4 ADD PUSH1 0x0 PUSH2 0x100 EXP DUP2 SLOAD DUP2 PUSH20 0xFFFFFFFFFFFFFFFFFFFFFFFFFFFFFFFFFFFFFFFF MUL NOT AND SWAP1 DUP4 PUSH20 0xFFFFFFFFFFFFFFFFFFFFFFFFFFFFFFFFFFFFFFFF AND MUL OR SWAP1 SSTORE POP PUSH1 0x1 PUSH1 0x5 DUP3 DUP2 SLOAD DUP2 LT PUSH2 0x508 JUMPI PUSH2 0x507 PUSH2 0x2A53 JUMP JUMPDEST JUMPDEST SWAP1 PUSH1 0x0 MSTORE PUSH1 0x20 PUSH1 0x0 KECCAK256 SWAP1 PUSH1 0x6 MUL ADD PUSH1 0x5 ADD PUSH1 0x14 PUSH2 0x100 EXP DUP2 SLOAD DUP2 PUSH1 0xFF MUL NOT AND SWAP1 DUP4 ISZERO ISZERO MUL OR SWAP1 SSTORE POP DUP2 PUSH1 0x5 DUP3 DUP2 SLOAD DUP2 LT PUSH2 0x545 JUMPI PUSH2 0x544 PUSH2 0x2A53 JUMP JUMPDEST JUMPDEST SWAP1 PUSH1 0x0 MSTORE PUSH1 0x20 PUSH1 0x0 KECCAK256 SWAP1 PUSH1 0x6 MUL ADD PUSH1 0x2 ADD DUP2 SWAP1 SSTORE POP PUSH2 0x564 PUSH1 0x1 PUSH2 0x228E JUMP JUMPDEST ADDRESS PUSH20 0xFFFFFFFFFFFFFFFFFFFFFFFFFFFFFFFFFFFFFFFF AND CALLER PUSH20 0xFFFFFFFFFFFFFFFFFFFFFFFFFFFFFFFFFFFFFFFF AND PUSH32 0xA0C6C0D02D86FDACECBAA5FDF5894BAB204E31A778250474108540733A9B8D19 DUP7 DUP7 DUP7 PUSH1 0x40 MLOAD PUSH2 0x5C5 SWAP4 SWAP3 SWAP2 SWAP1 PUSH2 0x2799 JUMP JUMPDEST PUSH1 0x40 MLOAD DUP1 SWAP2 SUB SWAP1 LOG3 POP PUSH1 0x1 PUSH1 0x0 DUP2 SWAP1 SSTORE POP POP POP POP JUMP JUMPDEST PUSH1 0x60 PUSH1 0x0 PUSH2 0x5E9 PUSH1 0x2 PUSH2 0x22EA JUMP JUMPDEST SWAP1 POP PUSH1 0x0 DUP1 JUMPDEST DUP3 DUP2 LT ISZERO PUSH2 0x6CD JUMPI CALLER PUSH20 0xFFFFFFFFFFFFFFFFFFFFFFFFFFFFFFFFFFFFFFFF AND PUSH1 0x5 DUP3 DUP2 SLOAD DUP2 LT PUSH2 0x622 JUMPI PUSH2 0x621 PUSH2 0x2A53 JUMP JUMPDEST JUMPDEST SWAP1 PUSH1 0x0 MSTORE PUSH1 0x20 PUSH1 0x0 KECCAK256 SWAP1 PUSH1 0x6 MUL ADD PUSH1 0x3 ADD PUSH1 0x0 SWAP1 SLOAD SWAP1 PUSH2 0x100 EXP SWAP1 DIV PUSH20 0xFFFFFFFFFFFFFFFFFFFFFFFFFFFFFFFFFFFFFFFF AND PUSH20 0xFFFFFFFFFFFFFFFFFFFFFFFFFFFFFFFFFFFFFFFF AND EQ DUP1 ISZERO PUSH2 0x6A6 JUMPI POP PUSH1 0x5 DUP2 DUP2 SLOAD DUP2 LT PUSH2 0x686 JUMPI PUSH2 0x685 PUSH2 0x2A53 JUMP JUMPDEST JUMPDEST SWAP1 PUSH1 0x0 MSTORE PUSH1 0x20 PUSH1 0x0 KECCAK256 SWAP1 PUSH1 0x6 MUL ADD PUSH1 0x5 ADD PUSH1 0x14 SWAP1 SLOAD SWAP1 PUSH2 0x100 EXP SWAP1 DIV PUSH1 0xFF AND JUMPDEST ISZERO PUSH2 0x6BA JUMPI DUP2 DUP1 PUSH2 0x6B6 SWAP1 PUSH2 0x29DB JUMP JUMPDEST SWAP3 POP POP JUMPDEST DUP1 DUP1 PUSH2 0x6C5 SWAP1 PUSH2 0x29DB JUMP JUMPDEST SWAP2 POP POP PUSH2 0x5EF JUMP JUMPDEST POP PUSH1 0x0 DUP2 PUSH8 0xFFFFFFFFFFFFFFFF DUP2 GT ISZERO PUSH2 0x6EA JUMPI PUSH2 0x6E9 PUSH2 0x2A82 JUMP JUMPDEST JUMPDEST PUSH1 0x40 MLOAD SWAP1 DUP1 DUP3 MSTORE DUP1 PUSH1 0x20 MUL PUSH1 0x20 ADD DUP3 ADD PUSH1 0x40 MSTORE DUP1 ISZERO PUSH2 0x723 JUMPI DUP2 PUSH1 0x20 ADD JUMPDEST PUSH2 0x710 PUSH2 0x230E JUMP JUMPDEST DUP2 MSTORE PUSH1 0x20 ADD SWAP1 PUSH1 0x1 SWAP1 SUB SWAP1 DUP2 PUSH2 0x708 JUMPI SWAP1 POP JUMPDEST POP SWAP1 POP PUSH1 0x0 DUP1 JUMPDEST DUP5 DUP2 LT ISZERO PUSH2 0x9DA JUMPI CALLER PUSH20 0xFFFFFFFFFFFFFFFFFFFFFFFFFFFFFFFFFFFFFFFF AND PUSH1 0x5 DUP3 DUP2 SLOAD DUP2 LT PUSH2 0x75D JUMPI PUSH2 0x75C PUSH2 0x2A53 JUMP JUMPDEST JUMPDEST SWAP1 PUSH1 0x0 MSTORE PUSH1 0x20 PUSH1 0x0 KECCAK256 SWAP1 PUSH1 0x6 MUL ADD PUSH1 0x3 ADD PUSH1 0x0 SWAP1 SLOAD SWAP1 PUSH2 0x100 EXP SWAP1 DIV PUSH20 0xFFFFFFFFFFFFFFFFFFFFFFFFFFFFFFFFFFFFFFFF AND PUSH20 0xFFFFFFFFFFFFFFFFFFFFFFFFFFFFFFFFFFFFFFFF AND EQ DUP1 ISZERO PUSH2 0x7E1 JUMPI POP PUSH1 0x5 DUP2 DUP2 SLOAD DUP2 LT PUSH2 0x7C1 JUMPI PUSH2 0x7C0 PUSH2 0x2A53 JUMP JUMPDEST JUMPDEST SWAP1 PUSH1 0x0 MSTORE PUSH1 0x20 PUSH1 0x0 KECCAK256 SWAP1 PUSH1 0x6 MUL ADD PUSH1 0x5 ADD PUSH1 0x14 SWAP1 SLOAD SWAP1 PUSH2 0x100 EXP SWAP1 DIV PUSH1 0xFF AND JUMPDEST ISZERO PUSH2 0x9C7 JUMPI PUSH1 0x5 DUP2 DUP2 SLOAD DUP2 LT PUSH2 0x7FA JUMPI PUSH2 0x7F9 PUSH2 0x2A53 JUMP JUMPDEST JUMPDEST SWAP1 PUSH1 0x0 MSTORE PUSH1 0x20 PUSH1 0x0 KECCAK256 SWAP1 PUSH1 0x6 MUL ADD PUSH1 0x40 MLOAD DUP1 PUSH1 0xE0 ADD PUSH1 0x40 MSTORE SWAP1 DUP2 PUSH1 0x0 DUP3 ADD PUSH1 0x0 SWAP1 SLOAD SWAP1 PUSH2 0x100 EXP SWAP1 DIV PUSH20 0xFFFFFFFFFFFFFFFFFFFFFFFFFFFFFFFFFFFFFFFF AND PUSH20 0xFFFFFFFFFFFFFFFFFFFFFFFFFFFFFFFFFFFFFFFF AND PUSH20 0xFFFFFFFFFFFFFFFFFFFFFFFFFFFFFFFFFFFFFFFF AND DUP2 MSTORE PUSH1 0x20 ADD PUSH1 0x1 DUP3 ADD SLOAD DUP2 MSTORE PUSH1 0x20 ADD PUSH1 0x2 DUP3 ADD SLOAD DUP2 MSTORE PUSH1 0x20 ADD PUSH1 0x3 DUP3 ADD PUSH1 0x0 SWAP1 SLOAD SWAP1 PUSH2 0x100 EXP SWAP1 DIV PUSH20 0xFFFFFFFFFFFFFFFFFFFFFFFFFFFFFFFFFFFFFFFF AND PUSH20 0xFFFFFFFFFFFFFFFFFFFFFFFFFFFFFFFFFFFFFFFF AND PUSH20 0xFFFFFFFFFFFFFFFFFFFFFFFFFFFFFFFFFFFFFFFF AND DUP2 MSTORE PUSH1 0x20 ADD PUSH1 0x4 DUP3 ADD PUSH1 0x0 SWAP1 SLOAD SWAP1 PUSH2 0x100 EXP SWAP1 DIV PUSH20 0xFFFFFFFFFFFFFFFFFFFFFFFFFFFFFFFFFFFFFFFF AND PUSH20 0xFFFFFFFFFFFFFFFFFFFFFFFFFFFFFFFFFFFFFFFF AND PUSH20 0xFFFFFFFFFFFFFFFFFFFFFFFFFFFFFFFFFFFFFFFF AND DUP2 MSTORE PUSH1 0x20 ADD PUSH1 0x5 DUP3 ADD PUSH1 0x0 SWAP1 SLOAD SWAP1 PUSH2 0x100 EXP SWAP1 DIV PUSH20 0xFFFFFFFFFFFFFFFFFFFFFFFFFFFFFFFFFFFFFFFF AND PUSH20 0xFFFFFFFFFFFFFFFFFFFFFFFFFFFFFFFFFFFFFFFF AND PUSH20 0xFFFFFFFFFFFFFFFFFFFFFFFFFFFFFFFFFFFFFFFF AND DUP2 MSTORE PUSH1 0x20 ADD PUSH1 0x5 DUP3 ADD PUSH1 0x14 SWAP1 SLOAD SWAP1 PUSH2 0x100 EXP SWAP1 DIV PUSH1 0xFF AND ISZERO ISZERO ISZERO ISZERO DUP2 MSTORE POP POP DUP4 DUP4 DUP2 MLOAD DUP2 LT PUSH2 0x9AD JUMPI PUSH2 0x9AC PUSH2 0x2A53 JUMP JUMPDEST JUMPDEST PUSH1 0x20 MUL PUSH1 0x20 ADD ADD DUP2 SWAP1 MSTORE POP DUP2 DUP1 PUSH2 0x9C3 SWAP1 PUSH2 0x29DB JUMP JUMPDEST SWAP3 POP POP JUMPDEST DUP1 DUP1 PUSH2 0x9D2 SWAP1 PUSH2 0x29DB JUMP JUMPDEST SWAP2 POP POP PUSH2 0x72A JUMP JUMPDEST POP DUP2 SWAP5 POP POP POP POP POP SWAP1 JUMP JUMPDEST PUSH1 0x3 SLOAD DUP2 JUMP JUMPDEST PUSH1 0x0 DUP3 PUSH20 0xFFFFFFFFFFFFFFFFFFFFFFFFFFFFFFFFFFFFFFFF AND PUSH4 0x6352211E DUP4 PUSH1 0x40 MLOAD DUP3 PUSH4 0xFFFFFFFF AND PUSH1 0xE0 SHL DUP2 MSTORE PUSH1 0x4 ADD PUSH2 0xA26 SWAP2 SWAP1 PUSH2 0x28B2 JUMP JUMPDEST PUSH1 0x20 PUSH1 0x40 MLOAD DUP1 DUP4 SUB DUP2 DUP7 DUP1 EXTCODESIZE ISZERO DUP1 ISZERO PUSH2 0xA3E JUMPI PUSH1 0x0 DUP1 REVERT JUMPDEST POP GAS STATICCALL ISZERO DUP1 ISZERO PUSH2 0xA52 JUMPI RETURNDATASIZE PUSH1 0x0 DUP1 RETURNDATACOPY RETURNDATASIZE PUSH1 0x0 REVERT JUMPDEST POP POP POP POP PUSH1 0x40 MLOAD RETURNDATASIZE PUSH1 0x1F NOT PUSH1 0x1F DUP3 ADD AND DUP3 ADD DUP1 PUSH1 0x40 MSTORE POP DUP2 ADD SWAP1 PUSH2 0xA76 SWAP2 SWAP1 PUSH2 0x2411 JUMP JUMPDEST SWAP1 POP SWAP3 SWAP2 POP POP JUMP JUMPDEST PUSH1 0x2 PUSH1 0x0 SLOAD EQ ISZERO PUSH2 0xAC4 JUMPI PUSH1 0x40 MLOAD PUSH32 0x8C379A000000000000000000000000000000000000000000000000000000000 DUP2 MSTORE PUSH1 0x4 ADD PUSH2 0xABB SWAP1 PUSH2 0x2872 JUMP JUMPDEST PUSH1 0x40 MLOAD DUP1 SWAP2 SUB SWAP1 REVERT JUMPDEST PUSH1 0x2 PUSH1 0x0 DUP2 SWAP1 SSTORE POP PUSH2 0xAD4 PUSH2 0x230E JUMP JUMPDEST PUSH1 0x0 PUSH2 0xAE0 DUP5 DUP5 PUSH2 0x1FB3 JUMP JUMPDEST DUP1 SWAP3 POP DUP2 SWAP4 POP POP POP PUSH32 0xFFFFFFFFFFFFFFFFFFFFFFFFFFFFFFFFFFFFFFFFFFFFFFFFFFFFFFFFFFFFFFFF DUP2 EQ ISZERO PUSH2 0xB4B JUMPI PUSH1 0x40 MLOAD PUSH32 0x8C379A000000000000000000000000000000000000000000000000000000000 DUP2 MSTORE PUSH1 0x4 ADD PUSH2 0xB42 SWAP1 PUSH2 0x2832 JUMP JUMPDEST PUSH1 0x40 MLOAD DUP1 SWAP2 SUB SWAP1 REVERT JUMPDEST DUP2 PUSH1 0x40 ADD MLOAD CALLVALUE LT ISZERO PUSH2 0xB92 JUMPI PUSH1 0x40 MLOAD PUSH32 0x8C379A000000000000000000000000000000000000000000000000000000000 DUP2 MSTORE PUSH1 0x4 ADD PUSH2 0xB89 SWAP1 PUSH2 0x2812 JUMP JUMPDEST PUSH1 0x40 MLOAD DUP1 SWAP2 SUB SWAP1 REVERT JUMPDEST PUSH1 0x0 CALLER SWAP1 POP DUP3 PUSH1 0x60 ADD MLOAD PUSH20 0xFFFFFFFFFFFFFFFFFFFFFFFFFFFFFFFFFFFFFFFF AND PUSH2 0x8FC CALLVALUE SWAP1 DUP2 ISZERO MUL SWAP1 PUSH1 0x40 MLOAD PUSH1 0x0 PUSH1 0x40 MLOAD DUP1 DUP4 SUB DUP2 DUP6 DUP9 DUP9 CALL SWAP4 POP POP POP POP ISZERO DUP1 ISZERO PUSH2 0xBE1 JUMPI RETURNDATASIZE PUSH1 0x0 DUP1 RETURNDATACOPY RETURNDATASIZE PUSH1 0x0 REVERT JUMPDEST POP DUP5 PUSH20 0xFFFFFFFFFFFFFFFFFFFFFFFFFFFFFFFFFFFFFFFF AND PUSH4 0x23B872DD ADDRESS DUP4 DUP8 PUSH1 0x40 MLOAD DUP5 PUSH4 0xFFFFFFFF AND PUSH1 0xE0 SHL DUP2 MSTORE PUSH1 0x4 ADD PUSH2 0xC1F SWAP4 SWAP3 SWAP2 SWAP1 PUSH2 0x272B JUMP JUMPDEST PUSH1 0x0 PUSH1 0x40 MLOAD DUP1 DUP4 SUB DUP2 PUSH1 0x0 DUP8 DUP1 EXTCODESIZE ISZERO DUP1 ISZERO PUSH2 0xC39 JUMPI PUSH1 0x0 DUP1 REVERT JUMPDEST POP GAS CALL ISZERO DUP1 ISZERO PUSH2 0xC4D JUMPI RETURNDATASIZE PUSH1 0x0 DUP1 RETURNDATACOPY RETURNDATASIZE PUSH1 0x0 REVERT JUMPDEST POP POP POP POP DUP1 PUSH1 0x5 DUP4 DUP2 SLOAD DUP2 LT PUSH2 0xC66 JUMPI PUSH2 0xC65 PUSH2 0x2A53 JUMP JUMPDEST JUMPDEST SWAP1 PUSH1 0x0 MSTORE PUSH1 0x20 PUSH1 0x0 KECCAK256 SWAP1 PUSH1 0x6 MUL ADD PUSH1 0x4 ADD PUSH1 0x0 PUSH2 0x100 EXP DUP2 SLOAD DUP2 PUSH20 0xFFFFFFFFFFFFFFFFFFFFFFFFFFFFFFFFFFFFFFFF MUL NOT AND SWAP1 DUP4 PUSH20 0xFFFFFFFFFFFFFFFFFFFFFFFFFFFFFFFFFFFFFFFF AND MUL OR SWAP1 SSTORE POP PUSH1 0x0 PUSH1 0x5 DUP4 DUP2 SLOAD DUP2 LT PUSH2 0xCCB JUMPI PUSH2 0xCCA PUSH2 0x2A53 JUMP JUMPDEST JUMPDEST SWAP1 PUSH1 0x0 MSTORE PUSH1 0x20 PUSH1 0x0 KECCAK256 SWAP1 PUSH1 0x6 MUL ADD PUSH1 0x5 ADD PUSH1 0x14 PUSH2 0x100 EXP DUP2 SLOAD DUP2 PUSH1 0xFF MUL NOT AND SWAP1 DUP4 ISZERO ISZERO MUL OR SWAP1 SSTORE POP PUSH2 0xCFD PUSH1 0x1 PUSH2 0x22F8 JUMP JUMPDEST DUP1 PUSH20 0xFFFFFFFFFFFFFFFFFFFFFFFFFFFFFFFFFFFFFFFF AND DUP4 PUSH1 0x60 ADD MLOAD PUSH20 0xFFFFFFFFFFFFFFFFFFFFFFFFFFFFFFFFFFFFFFFF AND PUSH32 0x16F1DBD97E6BF646D429ED186CCE832F1F7FD9907814293B83181E9970AB7BD2 DUP8 DUP8 CALLVALUE PUSH1 0x40 MLOAD PUSH2 0xD62 SWAP4 SWAP3 SWAP2 SWAP1 PUSH2 0x2799 JUMP JUMPDEST PUSH1 0x40 MLOAD DUP1 SWAP2 SUB SWAP1 LOG3 POP POP POP PUSH1 0x1 PUSH1 0x0 DUP2 SWAP1 SSTORE POP POP POP JUMP JUMPDEST PUSH1 0x60 PUSH1 0x0 PUSH2 0xD87 PUSH1 0x2 PUSH2 0x22EA JUMP JUMPDEST SWAP1 POP PUSH1 0x0 DUP1 JUMPDEST DUP3 DUP2 LT ISZERO PUSH2 0xE30 JUMPI CALLER PUSH20 0xFFFFFFFFFFFFFFFFFFFFFFFFFFFFFFFFFFFFFFFF AND PUSH1 0x5 DUP3 DUP2 SLOAD DUP2 LT PUSH2 0xDC0 JUMPI PUSH2 0xDBF PUSH2 0x2A53 JUMP JUMPDEST JUMPDEST SWAP1 PUSH1 0x0 MSTORE PUSH1 0x20 PUSH1 0x0 KECCAK256 SWAP1 PUSH1 0x6 MUL ADD PUSH1 0x5 ADD PUSH1 0x0 SWAP1 SLOAD SWAP1 PUSH2 0x100 EXP SWAP1 DIV PUSH20 0xFFFFFFFFFFFFFFFFFFFFFFFFFFFFFFFFFFFFFFFF AND PUSH20 0xFFFFFFFFFFFFFFFFFFFFFFFFFFFFFFFFFFFFFFFF AND EQ ISZERO PUSH2 0xE1D JUMPI DUP2 DUP1 PUSH2 0xE19 SWAP1 PUSH2 0x29DB JUMP JUMPDEST SWAP3 POP POP JUMPDEST DUP1 DUP1 PUSH2 0xE28 SWAP1 PUSH2 0x29DB JUMP JUMPDEST SWAP2 POP POP PUSH2 0xD8D JUMP JUMPDEST POP PUSH1 0x0 DUP2 PUSH8 0xFFFFFFFFFFFFFFFF DUP2 GT ISZERO PUSH2 0xE4D JUMPI PUSH2 0xE4C PUSH2 0x2A82 JUMP JUMPDEST JUMPDEST PUSH1 0x40 MLOAD SWAP1 DUP1 DUP3 MSTORE DUP1 PUSH1 0x20 MUL PUSH1 0x20 ADD DUP3 ADD PUSH1 0x40 MSTORE DUP1 ISZERO PUSH2 0xE86 JUMPI DUP2 PUSH1 0x20 ADD JUMPDEST PUSH2 0xE73 PUSH2 0x230E JUMP JUMPDEST DUP2 MSTORE PUSH1 0x20 ADD SWAP1 PUSH1 0x1 SWAP1 SUB SWAP1 DUP2 PUSH2 0xE6B JUMPI SWAP1 POP JUMPDEST POP SWAP1 POP PUSH1 0x0 DUP1 JUMPDEST DUP5 DUP2 LT ISZERO PUSH2 0x1102 JUMPI CALLER PUSH20 0xFFFFFFFFFFFFFFFFFFFFFFFFFFFFFFFFFFFFFFFF AND PUSH1 0x5 DUP3 DUP2 SLOAD DUP2 LT PUSH2 0xEC0 JUMPI PUSH2 0xEBF PUSH2 0x2A53 JUMP JUMPDEST JUMPDEST SWAP1 PUSH1 0x0 MSTORE PUSH1 0x20 PUSH1 0x0 KECCAK256 SWAP1 PUSH1 0x6 MUL ADD PUSH1 0x5 ADD PUSH1 0x0 SWAP1 SLOAD SWAP1 PUSH2 0x100 EXP SWAP1 DIV PUSH20 0xFFFFFFFFFFFFFFFFFFFFFFFFFFFFFFFFFFFFFFFF AND PUSH20 0xFFFFFFFFFFFFFFFFFFFFFFFFFFFFFFFFFFFFFFFF AND EQ ISZERO PUSH2 0x10EF JUMPI PUSH1 0x5 DUP2 DUP2 SLOAD DUP2 LT PUSH2 0xF22 JUMPI PUSH2 0xF21 PUSH2 0x2A53 JUMP JUMPDEST JUMPDEST SWAP1 PUSH1 0x0 MSTORE PUSH1 0x20 PUSH1 0x0 KECCAK256 SWAP1 PUSH1 0x6 MUL ADD PUSH1 0x40 MLOAD DUP1 PUSH1 0xE0 ADD PUSH1 0x40 MSTORE SWAP1 DUP2 PUSH1 0x0 DUP3 ADD PUSH1 0x0 SWAP1 SLOAD SWAP1 PUSH2 0x100 EXP SWAP1 DIV PUSH20 0xFFFFFFFFFFFFFFFFFFFFFFFFFFFFFFFFFFFFFFFF AND PUSH20 0xFFFFFFFFFFFFFFFFFFFFFFFFFFFFFFFFFFFFFFFF AND PUSH20 0xFFFFFFFFFFFFFFFFFFFFFFFFFFFFFFFFFFFFFFFF AND DUP2 MSTORE PUSH1 0x20 ADD PUSH1 0x1 DUP3 ADD SLOAD DUP2 MSTORE PUSH1 0x20 ADD PUSH1 0x2 DUP3 ADD SLOAD DUP2 MSTORE PUSH1 0x20 ADD PUSH1 0x3 DUP3 ADD PUSH1 0x0 SWAP1 SLOAD SWAP1 PUSH2 0x100 EXP SWAP1 DIV PUSH20 0xFFFFFFFFFFFFFFFFFFFFFFFFFFFFFFFFFFFFFFFF AND PUSH20 0xFFFFFFFFFFFFFFFFFFFFFFFFFFFFFFFFFFFFFFFF AND PUSH20 0xFFFFFFFFFFFFFFFFFFFFFFFFFFFFFFFFFFFFFFFF AND DUP2 MSTORE PUSH1 0x20 ADD PUSH1 0x4 DUP3 ADD PUSH1 0x0 SWAP1 SLOAD SWAP1 PUSH2 0x100 EXP SWAP1 DIV PUSH20 0xFFFFFFFFFFFFFFFFFFFFFFFFFFFFFFFFFFFFFFFF AND PUSH20 0xFFFFFFFFFFFFFFFFFFFFFFFFFFFFFFFFFFFFFFFF AND PUSH20 0xFFFFFFFFFFFFFFFFFFFFFFFFFFFFFFFFFFFFFFFF AND DUP2 MSTORE PUSH1 0x20 ADD PUSH1 0x5 DUP3 ADD PUSH1 0x0 SWAP1 SLOAD SWAP1 PUSH2 0x100 EXP SWAP1 DIV PUSH20 0xFFFFFFFFFFFFFFFFFFFFFFFFFFFFFFFFFFFFFFFF AND PUSH20 0xFFFFFFFFFFFFFFFFFFFFFFFFFFFFFFFFFFFFFFFF AND PUSH20 0xFFFFFFFFFFFFFFFFFFFFFFFFFFFFFFFFFFFFFFFF AND DUP2 MSTORE PUSH1 0x20 ADD PUSH1 0x5 DUP3 ADD PUSH1 0x14 SWAP1 SLOAD SWAP1 PUSH2 0x100 EXP SWAP1 DIV PUSH1 0xFF AND ISZERO ISZERO ISZERO ISZERO DUP2 MSTORE POP POP DUP4 DUP4 DUP2 MLOAD DUP2 LT PUSH2 0x10D5 JUMPI PUSH2 0x10D4 PUSH2 0x2A53 JUMP JUMPDEST JUMPDEST PUSH1 0x20 MUL PUSH1 0x20 ADD ADD DUP2 SWAP1 MSTORE POP DUP2 DUP1 PUSH2 0x10EB SWAP1 PUSH2 0x29DB JUMP JUMPDEST SWAP3 POP POP JUMPDEST DUP1 DUP1 PUSH2 0x10FA SWAP1 PUSH2 0x29DB JUMP JUMPDEST SWAP2 POP POP PUSH2 0xE8D JUMP JUMPDEST POP DUP2 SWAP5 POP POP POP POP POP SWAP1 JUMP JUMPDEST PUSH1 0x60 PUSH1 0x0 PUSH2 0x111B PUSH1 0x2 PUSH2 0x22EA JUMP JUMPDEST SWAP1 POP PUSH1 0x0 PUSH2 0x1129 PUSH1 0x1 PUSH2 0x22EA JUMP JUMPDEST DUP3 PUSH2 0x1134 SWAP2 SWAP1 PUSH2 0x2917 JUMP JUMPDEST SWAP1 POP PUSH1 0x0 DUP2 PUSH8 0xFFFFFFFFFFFFFFFF DUP2 GT ISZERO PUSH2 0x1152 JUMPI PUSH2 0x1151 PUSH2 0x2A82 JUMP JUMPDEST JUMPDEST PUSH1 0x40 MLOAD SWAP1 DUP1 DUP3 MSTORE DUP1 PUSH1 0x20 MUL PUSH1 0x20 ADD DUP3 ADD PUSH1 0x40 MSTORE DUP1 ISZERO PUSH2 0x118B JUMPI DUP2 PUSH1 0x20 ADD JUMPDEST PUSH2 0x1178 PUSH2 0x230E JUMP JUMPDEST DUP2 MSTORE PUSH1 0x20 ADD SWAP1 PUSH1 0x1 SWAP1 SUB SWAP1 DUP2 PUSH2 0x1170 JUMPI SWAP1 POP JUMPDEST POP SWAP1 POP PUSH1 0x0 DUP1 JUMPDEST DUP5 DUP2 LT ISZERO PUSH2 0x13C6 JUMPI PUSH1 0x5 DUP2 DUP2 SLOAD DUP2 LT PUSH2 0x11AE JUMPI PUSH2 0x11AD PUSH2 0x2A53 JUMP JUMPDEST JUMPDEST SWAP1 PUSH1 0x0 MSTORE PUSH1 0x20 PUSH1 0x0 KECCAK256 SWAP1 PUSH1 0x6 MUL ADD PUSH1 0x5 ADD PUSH1 0x14 SWAP1 SLOAD SWAP1 PUSH2 0x100 EXP SWAP1 DIV PUSH1 0xFF AND ISZERO PUSH2 0x13B3 JUMPI PUSH1 0x5 DUP2 DUP2 SLOAD DUP2 LT PUSH2 0x11E6 JUMPI PUSH2 0x11E5 PUSH2 0x2A53 JUMP JUMPDEST JUMPDEST SWAP1 PUSH1 0x0 MSTORE PUSH1 0x20 PUSH1 0x0 KECCAK256 SWAP1 PUSH1 0x6 MUL ADD PUSH1 0x40 MLOAD DUP1 PUSH1 0xE0 ADD PUSH1 0x40 MSTORE SWAP1 DUP2 PUSH1 0x0 DUP3 ADD PUSH1 0x0 SWAP1 SLOAD SWAP1 PUSH2 0x100 EXP SWAP1 DIV PUSH20 0xFFFFFFFFFFFFFFFFFFFFFFFFFFFFFFFFFFFFFFFF AND PUSH20 0xFFFFFFFFFFFFFFFFFFFFFFFFFFFFFFFFFFFFFFFF AND PUSH20 0xFFFFFFFFFFFFFFFFFFFFFFFFFFFFFFFFFFFFFFFF AND DUP2 MSTORE PUSH1 0x20 ADD PUSH1 0x1 DUP3 ADD SLOAD DUP2 MSTORE PUSH1 0x20 ADD PUSH1 0x2 DUP3 ADD SLOAD DUP2 MSTORE PUSH1 0x20 ADD PUSH1 0x3 DUP3 ADD PUSH1 0x0 SWAP1 SLOAD SWAP1 PUSH2 0x100 EXP SWAP1 DIV PUSH20 0xFFFFFFFFFFFFFFFFFFFFFFFFFFFFFFFFFFFFFFFF AND PUSH20 0xFFFFFFFFFFFFFFFFFFFFFFFFFFFFFFFFFFFFFFFF AND PUSH20 0xFFFFFFFFFFFFFFFFFFFFFFFFFFFFFFFFFFFFFFFF AND DUP2 MSTORE PUSH1 0x20 ADD PUSH1 0x4 DUP3 ADD PUSH1 0x0 SWAP1 SLOAD SWAP1 PUSH2 0x100 EXP SWAP1 DIV PUSH20 0xFFFFFFFFFFFFFFFFFFFFFFFFFFFFFFFFFFFFFFFF AND PUSH20 0xFFFFFFFFFFFFFFFFFFFFFFFFFFFFFFFFFFFFFFFF AND PUSH20 0xFFFFFFFFFFFFFFFFFFFFFFFFFFFFFFFFFFFFFFFF AND DUP2 MSTORE PUSH1 0x20 ADD PUSH1 0x5 DUP3 ADD PUSH1 0x0 SWAP1 SLOAD SWAP1 PUSH2 0x100 EXP SWAP1 DIV PUSH20 0xFFFFFFFFFFFFFFFFFFFFFFFFFFFFFFFFFFFFFFFF AND PUSH20 0xFFFFFFFFFFFFFFFFFFFFFFFFFFFFFFFFFFFFFFFF AND PUSH20 0xFFFFFFFFFFFFFFFFFFFFFFFFFFFFFFFFFFFFFFFF AND DUP2 MSTORE PUSH1 0x20 ADD PUSH1 0x5 DUP3 ADD PUSH1 0x14 SWAP1 SLOAD SWAP1 PUSH2 0x100 EXP SWAP1 DIV PUSH1 0xFF AND ISZERO ISZERO ISZERO ISZERO DUP2 MSTORE POP POP DUP4 DUP4 DUP2 MLOAD DUP2 LT PUSH2 0x1399 JUMPI PUSH2 0x1398 PUSH2 0x2A53 JUMP JUMPDEST JUMPDEST PUSH1 0x20 MUL PUSH1 0x20 ADD ADD DUP2 SWAP1 MSTORE POP DUP2 DUP1 PUSH2 0x13AF SWAP1 PUSH2 0x29DB JUMP JUMPDEST SWAP3 POP POP JUMPDEST DUP1 DUP1 PUSH2 0x13BE SWAP1 PUSH2 0x29DB JUMP JUMPDEST SWAP2 POP POP PUSH2 0x1192 JUMP JUMPDEST POP DUP2 SWAP5 POP POP POP POP POP SWAP1 JUMP JUMPDEST PUSH1 0x60 PUSH1 0x0 PUSH2 0x13DF PUSH1 0x2 PUSH2 0x22EA JUMP JUMPDEST SWAP1 POP PUSH1 0x0 DUP1 JUMPDEST DUP3 DUP2 LT ISZERO PUSH2 0x1488 JUMPI CALLER PUSH20 0xFFFFFFFFFFFFFFFFFFFFFFFFFFFFFFFFFFFFFFFF AND PUSH1 0x5 DUP3 DUP2 SLOAD DUP2 LT PUSH2 0x1418 JUMPI PUSH2 0x1417 PUSH2 0x2A53 JUMP JUMPDEST JUMPDEST SWAP1 PUSH1 0x0 MSTORE PUSH1 0x20 PUSH1 0x0 KECCAK256 SWAP1 PUSH1 0x6 MUL ADD PUSH1 0x4 ADD PUSH1 0x0 SWAP1 SLOAD SWAP1 PUSH2 0x100 EXP SWAP1 DIV PUSH20 0xFFFFFFFFFFFFFFFFFFFFFFFFFFFFFFFFFFFFFFFF AND PUSH20 0xFFFFFFFFFFFFFFFFFFFFFFFFFFFFFFFFFFFFFFFF AND EQ ISZERO PUSH2 0x1475 JUMPI DUP2 DUP1 PUSH2 0x1471 SWAP1 PUSH2 0x29DB JUMP JUMPDEST SWAP3 POP POP JUMPDEST DUP1 DUP1 PUSH2 0x1480 SWAP1 PUSH2 0x29DB JUMP JUMPDEST SWAP2 POP POP PUSH2 0x13E5 JUMP JUMPDEST POP PUSH1 0x0 DUP2 PUSH8 0xFFFFFFFFFFFFFFFF DUP2 GT ISZERO PUSH2 0x14A5 JUMPI PUSH2 0x14A4 PUSH2 0x2A82 JUMP JUMPDEST JUMPDEST PUSH1 0x40 MLOAD SWAP1 DUP1 DUP3 MSTORE DUP1 PUSH1 0x20 MUL PUSH1 0x20 ADD DUP3 ADD PUSH1 0x40 MSTORE DUP1 ISZERO PUSH2 0x14DE JUMPI DUP2 PUSH1 0x20 ADD JUMPDEST PUSH2 0x14CB PUSH2 0x230E JUMP JUMPDEST DUP2 MSTORE PUSH1 0x20 ADD SWAP1 PUSH1 0x1 SWAP1 SUB SWAP1 DUP2 PUSH2 0x14C3 JUMPI SWAP1 POP JUMPDEST POP SWAP1 POP PUSH1 0x0 DUP1 JUMPDEST DUP5 DUP2 LT ISZERO PUSH2 0x175A JUMPI CALLER PUSH20 0xFFFFFFFFFFFFFFFFFFFFFFFFFFFFFFFFFFFFFFFF AND PUSH1 0x5 DUP3 DUP2 SLOAD DUP2 LT PUSH2 0x1518 JUMPI PUSH2 0x1517 PUSH2 0x2A53 JUMP JUMPDEST JUMPDEST SWAP1 PUSH1 0x0 MSTORE PUSH1 0x20 PUSH1 0x0 KECCAK256 SWAP1 PUSH1 0x6 MUL ADD PUSH1 0x4 ADD PUSH1 0x0 SWAP1 SLOAD SWAP1 PUSH2 0x100 EXP SWAP1 DIV PUSH20 0xFFFFFFFFFFFFFFFFFFFFFFFFFFFFFFFFFFFFFFFF AND PUSH20 0xFFFFFFFFFFFFFFFFFFFFFFFFFFFFFFFFFFFFFFFF AND EQ ISZERO PUSH2 0x1747 JUMPI PUSH1 0x5 DUP2 DUP2 SLOAD DUP2 LT PUSH2 0x157A JUMPI PUSH2 0x1579 PUSH2 0x2A53 JUMP JUMPDEST JUMPDEST SWAP1 PUSH1 0x0 MSTORE PUSH1 0x20 PUSH1 0x0 KECCAK256 SWAP1 PUSH1 0x6 MUL ADD PUSH1 0x40 MLOAD DUP1 PUSH1 0xE0 ADD PUSH1 0x40 MSTORE SWAP1 DUP2 PUSH1 0x0 DUP3 ADD PUSH1 0x0 SWAP1 SLOAD SWAP1 PUSH2 0x100 EXP SWAP1 DIV PUSH20 0xFFFFFFFFFFFFFFFFFFFFFFFFFFFFFFFFFFFFFFFF AND PUSH20 0xFFFFFFFFFFFFFFFFFFFFFFFFFFFFFFFFFFFFFFFF AND PUSH20 0xFFFFFFFFFFFFFFFFFFFFFFFFFFFFFFFFFFFFFFFF AND DUP2 MSTORE PUSH1 0x20 ADD PUSH1 0x1 DUP3 ADD SLOAD DUP2 MSTORE PUSH1 0x20 ADD PUSH1 0x2 DUP3 ADD SLOAD DUP2 MSTORE PUSH1 0x20 ADD PUSH1 0x3 DUP3 ADD PUSH1 0x0 SWAP1 SLOAD SWAP1 PUSH2 0x100 EXP SWAP1 DIV PUSH20 0xFFFFFFFFFFFFFFFFFFFFFFFFFFFFFFFFFFFFFFFF AND PUSH20 0xFFFFFFFFFFFFFFFFFFFFFFFFFFFFFFFFFFFFFFFF AND PUSH20 0xFFFFFFFFFFFFFFFFFFFFFFFFFFFFFFFFFFFFFFFF AND DUP2 MSTORE PUSH1 0x20 ADD PUSH1 0x4 DUP3 ADD PUSH1 0x0 SWAP1 SLOAD SWAP1 PUSH2 0x100 EXP SWAP1 DIV PUSH20 0xFFFFFFFFFFFFFFFFFFFFFFFFFFFFFFFFFFFFFFFF AND PUSH20 0xFFFFFFFFFFFFFFFFFFFFFFFFFFFFFFFFFFFFFFFF AND PUSH20 0xFFFFFFFFFFFFFFFFFFFFFFFFFFFFFFFFFFFFFFFF AND DUP2 MSTORE PUSH1 0x20 ADD PUSH1 0x5 DUP3 ADD PUSH1 0x0 SWAP1 SLOAD SWAP1 PUSH2 0x100 EXP SWAP1 DIV PUSH20 0xFFFFFFFFFFFFFFFFFFFFFFFFFFFFFFFFFFFFFFFF AND PUSH20 0xFFFFFFFFFFFFFFFFFFFFFFFFFFFFFFFFFFFFFFFF AND PUSH20 0xFFFFFFFFFFFFFFFFFFFFFFFFFFFFFFFFFFFFFFFF AND DUP2 MSTORE PUSH1 0x20 ADD PUSH1 0x5 DUP3 ADD PUSH1 0x14 SWAP1 SLOAD SWAP1 PUSH2 0x100 EXP SWAP1 DIV PUSH1 0xFF AND ISZERO ISZERO ISZERO ISZERO DUP2 MSTORE POP POP DUP4 DUP4 DUP2 MLOAD DUP2 LT PUSH2 0x172D JUMPI PUSH2 0x172C PUSH2 0x2A53 JUMP JUMPDEST JUMPDEST PUSH1 0x20 MUL PUSH1 0x20 ADD ADD DUP2 SWAP1 MSTORE POP DUP2 DUP1 PUSH2 0x1743 SWAP1 PUSH2 0x29DB JUMP JUMPDEST SWAP3 POP POP JUMPDEST DUP1 DUP1 PUSH2 0x1752 SWAP1 PUSH2 0x29DB JUMP JUMPDEST SWAP2 POP POP PUSH2 0x14E5 JUMP JUMPDEST POP DUP2 SWAP5 POP POP POP POP POP SWAP1 JUMP JUMPDEST PUSH1 0x2 PUSH1 0x0 SLOAD EQ ISZERO PUSH2 0x17AB JUMPI PUSH1 0x40 MLOAD PUSH32 0x8C379A000000000000000000000000000000000000000000000000000000000 DUP2 MSTORE PUSH1 0x4 ADD PUSH2 0x17A2 SWAP1 PUSH2 0x2872 JUMP JUMPDEST PUSH1 0x40 MLOAD DUP1 SWAP2 SUB SWAP1 REVERT JUMPDEST PUSH1 0x2 PUSH1 0x0 DUP2 SWAP1 SSTORE POP PUSH1 0x0 DUP2 GT PUSH2 0x17F6 JUMPI PUSH1 0x40 MLOAD PUSH32 0x8C379A000000000000000000000000000000000000000000000000000000000 DUP2 MSTORE PUSH1 0x4 ADD PUSH2 0x17ED SWAP1 PUSH2 0x2892 JUMP JUMPDEST PUSH1 0x40 MLOAD DUP1 SWAP2 SUB SWAP1 REVERT JUMPDEST PUSH1 0x3 SLOAD CALLVALUE EQ PUSH2 0x183A JUMPI PUSH1 0x40 MLOAD PUSH32 0x8C379A000000000000000000000000000000000000000000000000000000000 DUP2 MSTORE PUSH1 0x4 ADD PUSH2 0x1831 SWAP1 PUSH2 0x2852 JUMP JUMPDEST PUSH1 0x40 MLOAD DUP1 SWAP2 SUB SWAP1 REVERT JUMPDEST DUP3 PUSH20 0xFFFFFFFFFFFFFFFFFFFFFFFFFFFFFFFFFFFFFFFF AND PUSH4 0x23B872DD CALLER ADDRESS DUP6 PUSH1 0x40 MLOAD DUP5 PUSH4 0xFFFFFFFF AND PUSH1 0xE0 SHL DUP2 MSTORE PUSH1 0x4 ADD PUSH2 0x1877 SWAP4 SWAP3 SWAP2 SWAP1 PUSH2 0x2762 JUMP JUMPDEST PUSH1 0x0 PUSH1 0x40 MLOAD DUP1 DUP4 SUB DUP2 PUSH1 0x0 DUP8 DUP1 EXTCODESIZE ISZERO DUP1 ISZERO PUSH2 0x1891 JUMPI PUSH1 0x0 DUP1 REVERT JUMPDEST POP GAS CALL ISZERO DUP1 ISZERO PUSH2 0x18A5 JUMPI RETURNDATASIZE PUSH1 0x0 DUP1 RETURNDATACOPY RETURNDATASIZE PUSH1 0x0 REVERT JUMPDEST POP POP POP POP PUSH1 0x5 PUSH1 0x40 MLOAD DUP1 PUSH1 0xE0 ADD PUSH1 0x40 MSTORE DUP1 DUP6 PUSH20 0xFFFFFFFFFFFFFFFFFFFFFFFFFFFFFFFFFFFFFFFF AND DUP2 MSTORE PUSH1 0x20 ADD DUP5 DUP2 MSTORE PUSH1 0x20 ADD DUP4 DUP2 MSTORE PUSH1 0x20 ADD CALLER PUSH20 0xFFFFFFFFFFFFFFFFFFFFFFFFFFFFFFFFFFFFFFFF AND DUP2 MSTORE PUSH1 0x20 ADD ADDRESS PUSH20 0xFFFFFFFFFFFFFFFFFFFFFFFFFFFFFFFFFFFFFFFF AND DUP2 MSTORE PUSH1 0x20 ADD CALLER PUSH20 0xFFFFFFFFFFFFFFFFFFFFFFFFFFFFFFFFFFFFFFFF AND DUP2 MSTORE PUSH1 0x20 ADD PUSH1 0x1 ISZERO ISZERO DUP2 MSTORE POP SWAP1 DUP1 PUSH1 0x1 DUP2 SLOAD ADD DUP1 DUP3 SSTORE DUP1 SWAP2 POP POP PUSH1 0x1 SWAP1 SUB SWAP1 PUSH1 0x0 MSTORE PUSH1 0x20 PUSH1 0x0 KECCAK256 SWAP1 PUSH1 0x6 MUL ADD PUSH1 0x0 SWAP1 SWAP2 SWAP1 SWAP2 SWAP1 SWAP2 POP PUSH1 0x0 DUP3 ADD MLOAD DUP2 PUSH1 0x0 ADD PUSH1 0x0 PUSH2 0x100 EXP DUP2 SLOAD DUP2 PUSH20 0xFFFFFFFFFFFFFFFFFFFFFFFFFFFFFFFFFFFFFFFF MUL NOT AND SWAP1 DUP4 PUSH20 0xFFFFFFFFFFFFFFFFFFFFFFFFFFFFFFFFFFFFFFFF AND MUL OR SWAP1 SSTORE POP PUSH1 0x20 DUP3 ADD MLOAD DUP2 PUSH1 0x1 ADD SSTORE PUSH1 0x40 DUP3 ADD MLOAD DUP2 PUSH1 0x2 ADD SSTORE PUSH1 0x60 DUP3 ADD MLOAD DUP2 PUSH1 0x3 ADD PUSH1 0x0 PUSH2 0x100 EXP DUP2 SLOAD DUP2 PUSH20 0xFFFFFFFFFFFFFFFFFFFFFFFFFFFFFFFFFFFFFFFF MUL NOT AND SWAP1 DUP4 PUSH20 0xFFFFFFFFFFFFFFFFFFFFFFFFFFFFFFFFFFFFFFFF AND MUL OR SWAP1 SSTORE POP PUSH1 0x80 DUP3 ADD MLOAD DUP2 PUSH1 0x4 ADD PUSH1 0x0 PUSH2 0x100 EXP DUP2 SLOAD DUP2 PUSH20 0xFFFFFFFFFFFFFFFFFFFFFFFFFFFFFFFFFFFFFFFF MUL NOT AND SWAP1 DUP4 PUSH20 0xFFFFFFFFFFFFFFFFFFFFFFFFFFFFFFFFFFFFFFFF AND MUL OR SWAP1 SSTORE POP PUSH1 0xA0 DUP3 ADD MLOAD DUP2 PUSH1 0x5 ADD PUSH1 0x0 PUSH2 0x100 EXP DUP2 SLOAD DUP2 PUSH20 0xFFFFFFFFFFFFFFFFFFFFFFFFFFFFFFFFFFFFFFFF MUL NOT AND SWAP1 DUP4 PUSH20 0xFFFFFFFFFFFFFFFFFFFFFFFFFFFFFFFFFFFFFFFF AND MUL OR SWAP1 SSTORE POP PUSH1 0xC0 DUP3 ADD MLOAD DUP2 PUSH1 0x5 ADD PUSH1 0x14 PUSH2 0x100 EXP DUP2 SLOAD DUP2 PUSH1 0xFF MUL NOT AND SWAP1 DUP4 ISZERO ISZERO MUL OR SWAP1 SSTORE POP POP POP PUSH2 0x1ABE PUSH1 0x2 PUSH2 0x22F8 JUMP JUMPDEST PUSH1 0x4 PUSH1 0x0 SWAP1 SLOAD SWAP1 PUSH2 0x100 EXP SWAP1 DIV PUSH20 0xFFFFFFFFFFFFFFFFFFFFFFFFFFFFFFFFFFFFFFFF AND PUSH20 0xFFFFFFFFFFFFFFFFFFFFFFFFFFFFFFFFFFFFFFFF AND PUSH2 0x8FC CALLVALUE SWAP1 DUP2 ISZERO MUL SWAP1 PUSH1 0x40 MLOAD PUSH1 0x0 PUSH1 0x40 MLOAD DUP1 DUP4 SUB DUP2 DUP6 DUP9 DUP9 CALL SWAP4 POP POP POP POP ISZERO DUP1 ISZERO PUSH2 0x1B26 JUMPI RETURNDATASIZE PUSH1 0x0 DUP1 RETURNDATACOPY RETURNDATASIZE PUSH1 0x0 REVERT JUMPDEST POP ADDRESS PUSH20 0xFFFFFFFFFFFFFFFFFFFFFFFFFFFFFFFFFFFFFFFF AND CALLER PUSH20 0xFFFFFFFFFFFFFFFFFFFFFFFFFFFFFFFFFFFFFFFF AND PUSH32 0xA0C6C0D02D86FDACECBAA5FDF5894BAB204E31A778250474108540733A9B8D19 DUP6 DUP6 DUP6 PUSH1 0x40 MLOAD PUSH2 0x1B88 SWAP4 SWAP3 SWAP2 SWAP1 PUSH2 0x2799 JUMP JUMPDEST PUSH1 0x40 MLOAD DUP1 SWAP2 SUB SWAP1 LOG3 PUSH1 0x1 PUSH1 0x0 DUP2 SWAP1 SSTORE POP POP POP POP JUMP JUMPDEST PUSH1 0x0 PUSH1 0x3 SLOAD SWAP1 POP SWAP1 JUMP JUMPDEST PUSH1 0x60 PUSH1 0x0 PUSH2 0x1BB5 PUSH1 0x2 PUSH2 0x22EA JUMP JUMPDEST SWAP1 POP PUSH1 0x0 DUP1 JUMPDEST DUP3 DUP2 LT ISZERO PUSH2 0x1C99 JUMPI CALLER PUSH20 0xFFFFFFFFFFFFFFFFFFFFFFFFFFFFFFFFFFFFFFFF AND PUSH1 0x5 DUP3 DUP2 SLOAD DUP2 LT PUSH2 0x1BEE JUMPI PUSH2 0x1BED PUSH2 0x2A53 JUMP JUMPDEST JUMPDEST SWAP1 PUSH1 0x0 MSTORE PUSH1 0x20 PUSH1 0x0 KECCAK256 SWAP1 PUSH1 0x6 MUL ADD PUSH1 0x3 ADD PUSH1 0x0 SWAP1 SLOAD SWAP1 PUSH2 0x100 EXP SWAP1 DIV PUSH20 0xFFFFFFFFFFFFFFFFFFFFFFFFFFFFFFFFFFFFFFFF AND PUSH20 0xFFFFFFFFFFFFFFFFFFFFFFFFFFFFFFFFFFFFFFFF AND EQ DUP1 ISZERO PUSH2 0x1C72 JUMPI POP PUSH1 0x5 DUP2 DUP2 SLOAD DUP2 LT PUSH2 0x1C52 JUMPI PUSH2 0x1C51 PUSH2 0x2A53 JUMP JUMPDEST JUMPDEST SWAP1 PUSH1 0x0 MSTORE PUSH1 0x20 PUSH1 0x0 KECCAK256 SWAP1 PUSH1 0x6 MUL ADD PUSH1 0x5 ADD PUSH1 0x14 SWAP1 SLOAD SWAP1 PUSH2 0x100 EXP SWAP1 DIV PUSH1 0xFF AND JUMPDEST ISZERO PUSH2 0x1C86 JUMPI DUP2 DUP1 PUSH2 0x1C82 SWAP1 PUSH2 0x29DB JUMP JUMPDEST SWAP3 POP POP JUMPDEST DUP1 DUP1 PUSH2 0x1C91 SWAP1 PUSH2 0x29DB JUMP JUMPDEST SWAP2 POP POP PUSH2 0x1BBB JUMP JUMPDEST POP PUSH1 0x0 DUP2 PUSH8 0xFFFFFFFFFFFFFFFF DUP2 GT ISZERO PUSH2 0x1CB6 JUMPI PUSH2 0x1CB5 PUSH2 0x2A82 JUMP JUMPDEST JUMPDEST PUSH1 0x40 MLOAD SWAP1 DUP1 DUP3 MSTORE DUP1 PUSH1 0x20 MUL PUSH1 0x20 ADD DUP3 ADD PUSH1 0x40 MSTORE DUP1 ISZERO PUSH2 0x1CEF JUMPI DUP2 PUSH1 0x20 ADD JUMPDEST PUSH2 0x1CDC PUSH2 0x230E JUMP JUMPDEST DUP2 MSTORE PUSH1 0x20 ADD SWAP1 PUSH1 0x1 SWAP1 SUB SWAP1 DUP2 PUSH2 0x1CD4 JUMPI SWAP1 POP JUMPDEST POP SWAP1 POP PUSH1 0x0 DUP1 JUMPDEST DUP5 DUP2 LT ISZERO PUSH2 0x1FA6 JUMPI CALLER PUSH20 0xFFFFFFFFFFFFFFFFFFFFFFFFFFFFFFFFFFFFFFFF AND PUSH1 0x5 DUP3 DUP2 SLOAD DUP2 LT PUSH2 0x1D29 JUMPI PUSH2 0x1D28 PUSH2 0x2A53 JUMP JUMPDEST JUMPDEST SWAP1 PUSH1 0x0 MSTORE PUSH1 0x20 PUSH1 0x0 KECCAK256 SWAP1 PUSH1 0x6 MUL ADD PUSH1 0x3 ADD PUSH1 0x0 SWAP1 SLOAD SWAP1 PUSH2 0x100 EXP SWAP1 DIV PUSH20 0xFFFFFFFFFFFFFFFFFFFFFFFFFFFFFFFFFFFFFFFF AND PUSH20 0xFFFFFFFFFFFFFFFFFFFFFFFFFFFFFFFFFFFFFFFF AND EQ DUP1 ISZERO PUSH2 0x1DAD JUMPI POP PUSH1 0x5 DUP2 DUP2 SLOAD DUP2 LT PUSH2 0x1D8D JUMPI PUSH2 0x1D8C PUSH2 0x2A53 JUMP JUMPDEST JUMPDEST SWAP1 PUSH1 0x0 MSTORE PUSH1 0x20 PUSH1 0x0 KECCAK256 SWAP1 PUSH1 0x6 MUL ADD PUSH1 0x5 ADD PUSH1 0x14 SWAP1 SLOAD SWAP1 PUSH2 0x100 EXP SWAP1 DIV PUSH1 0xFF AND JUMPDEST ISZERO PUSH2 0x1F93 JUMPI PUSH1 0x5 DUP2 DUP2 SLOAD DUP2 LT PUSH2 0x1DC6 JUMPI PUSH2 0x1DC5 PUSH2 0x2A53 JUMP JUMPDEST JUMPDEST SWAP1 PUSH1 0x0 MSTORE PUSH1 0x20 PUSH1 0x0 KECCAK256 SWAP1 PUSH1 0x6 MUL ADD PUSH1 0x40 MLOAD DUP1 PUSH1 0xE0 ADD PUSH1 0x40 MSTORE SWAP1 DUP2 PUSH1 0x0 DUP3 ADD PUSH1 0x0 SWAP1 SLOAD SWAP1 PUSH2 0x100 EXP SWAP1 DIV PUSH20 0xFFFFFFFFFFFFFFFFFFFFFFFFFFFFFFFFFFFFFFFF AND PUSH20 0xFFFFFFFFFFFFFFFFFFFFFFFFFFFFFFFFFFFFFFFF AND PUSH20 0xFFFFFFFFFFFFFFFFFFFFFFFFFFFFFFFFFFFFFFFF AND DUP2 MSTORE PUSH1 0x20 ADD PUSH1 0x1 DUP3 ADD SLOAD DUP2 MSTORE PUSH1 0x20 ADD PUSH1 0x2 DUP3 ADD SLOAD DUP2 MSTORE PUSH1 0x20 ADD PUSH1 0x3 DUP3 ADD PUSH1 0x0 SWAP1 SLOAD SWAP1 PUSH2 0x100 EXP SWAP1 DIV PUSH20 0xFFFFFFFFFFFFFFFFFFFFFFFFFFFFFFFFFFFFFFFF AND PUSH20 0xFFFFFFFFFFFFFFFFFFFFFFFFFFFFFFFFFFFFFFFF AND PUSH20 0xFFFFFFFFFFFFFFFFFFFFFFFFFFFFFFFFFFFFFFFF AND DUP2 MSTORE PUSH1 0x20 ADD PUSH1 0x4 DUP3 ADD PUSH1 0x0 SWAP1 SLOAD SWAP1 PUSH2 0x100 EXP SWAP1 DIV PUSH20 0xFFFFFFFFFFFFFFFFFFFFFFFFFFFFFFFFFFFFFFFF AND PUSH20 0xFFFFFFFFFFFFFFFFFFFFFFFFFFFFFFFFFFFFFFFF AND PUSH20 0xFFFFFFFFFFFFFFFFFFFFFFFFFFFFFFFFFFFFFFFF AND DUP2 MSTORE PUSH1 0x20 ADD PUSH1 0x5 DUP3 ADD PUSH1 0x0 SWAP1 SLOAD SWAP1 PUSH2 0x100 EXP SWAP1 DIV PUSH20 0xFFFFFFFFFFFFFFFFFFFFFFFFFFFFFFFFFFFFFFFF AND PUSH20 0xFFFFFFFFFFFFFFFFFFFFFFFFFFFFFFFFFFFFFFFF AND PUSH20 0xFFFFFFFFFFFFFFFFFFFFFFFFFFFFFFFFFFFFFFFF AND DUP2 MSTORE PUSH1 0x20 ADD PUSH1 0x5 DUP3 ADD PUSH1 0x14 SWAP1 SLOAD SWAP1 PUSH2 0x100 EXP SWAP1 DIV PUSH1 0xFF AND ISZERO ISZERO ISZERO ISZERO DUP2 MSTORE POP POP DUP4 DUP4 DUP2 MLOAD DUP2 LT PUSH2 0x1F79 JUMPI PUSH2 0x1F78 PUSH2 0x2A53 JUMP JUMPDEST JUMPDEST PUSH1 0x20 MUL PUSH1 0x20 ADD ADD DUP2 SWAP1 MSTORE POP DUP2 DUP1 PUSH2 0x1F8F SWAP1 PUSH2 0x29DB JUMP JUMPDEST SWAP3 POP POP JUMPDEST DUP1 DUP1 PUSH2 0x1F9E SWAP1 PUSH2 0x29DB JUMP JUMPDEST SWAP2 POP POP PUSH2 0x1CF6 JUMP JUMPDEST POP DUP2 SWAP5 POP POP POP POP POP SWAP2 SWAP1 POP JUMP JUMPDEST PUSH2 0x1FBB PUSH2 0x230E JUMP JUMPDEST PUSH1 0x0 PUSH2 0x1FC5 PUSH2 0x230E JUMP JUMPDEST PUSH1 0x0 PUSH32 0xFFFFFFFFFFFFFFFFFFFFFFFFFFFFFFFFFFFFFFFFFFFFFFFFFFFFFFFFFFFFFFFF SWAP1 POP PUSH1 0x0 PUSH2 0x1FF6 PUSH1 0x2 PUSH2 0x22EA JUMP JUMPDEST SWAP1 POP PUSH1 0x0 JUMPDEST DUP2 DUP2 LT ISZERO PUSH2 0x227D JUMPI DUP8 PUSH20 0xFFFFFFFFFFFFFFFFFFFFFFFFFFFFFFFFFFFFFFFF AND PUSH1 0x5 DUP3 DUP2 SLOAD DUP2 LT PUSH2 0x202E JUMPI PUSH2 0x202D PUSH2 0x2A53 JUMP JUMPDEST JUMPDEST SWAP1 PUSH1 0x0 MSTORE PUSH1 0x20 PUSH1 0x0 KECCAK256 SWAP1 PUSH1 0x6 MUL ADD PUSH1 0x0 ADD PUSH1 0x0 SWAP1 SLOAD SWAP1 PUSH2 0x100 EXP SWAP1 DIV PUSH20 0xFFFFFFFFFFFFFFFFFFFFFFFFFFFFFFFFFFFFFFFF AND PUSH20 0xFFFFFFFFFFFFFFFFFFFFFFFFFFFFFFFFFFFFFFFF AND EQ DUP1 ISZERO PUSH2 0x20A7 JUMPI POP DUP7 PUSH1 0x5 DUP3 DUP2 SLOAD DUP2 LT PUSH2 0x2093 JUMPI PUSH2 0x2092 PUSH2 0x2A53 JUMP JUMPDEST JUMPDEST SWAP1 PUSH1 0x0 MSTORE PUSH1 0x20 PUSH1 0x0 KECCAK256 SWAP1 PUSH1 0x6 MUL ADD PUSH1 0x1 ADD SLOAD EQ JUMPDEST ISZERO PUSH2 0x226A JUMPI PUSH1 0x5 DUP2 DUP2 SLOAD DUP2 LT PUSH2 0x20C0 JUMPI PUSH2 0x20BF PUSH2 0x2A53 JUMP JUMPDEST JUMPDEST SWAP1 PUSH1 0x0 MSTORE PUSH1 0x20 PUSH1 0x0 KECCAK256 SWAP1 PUSH1 0x6 MUL ADD PUSH1 0x40 MLOAD DUP1 PUSH1 0xE0 ADD PUSH1 0x40 MSTORE SWAP1 DUP2 PUSH1 0x0 DUP3 ADD PUSH1 0x0 SWAP1 SLOAD SWAP1 PUSH2 0x100 EXP SWAP1 DIV PUSH20 0xFFFFFFFFFFFFFFFFFFFFFFFFFFFFFFFFFFFFFFFF AND PUSH20 0xFFFFFFFFFFFFFFFFFFFFFFFFFFFFFFFFFFFFFFFF AND PUSH20 0xFFFFFFFFFFFFFFFFFFFFFFFFFFFFFFFFFFFFFFFF AND DUP2 MSTORE PUSH1 0x20 ADD PUSH1 0x1 DUP3 ADD SLOAD DUP2 MSTORE PUSH1 0x20 ADD PUSH1 0x2 DUP3 ADD SLOAD DUP2 MSTORE PUSH1 0x20 ADD PUSH1 0x3 DUP3 ADD PUSH1 0x0 SWAP1 SLOAD SWAP1 PUSH2 0x100 EXP SWAP1 DIV PUSH20 0xFFFFFFFFFFFFFFFFFFFFFFFFFFFFFFFFFFFFFFFF AND PUSH20 0xFFFFFFFFFFFFFFFFFFFFFFFFFFFFFFFFFFFFFFFF AND PUSH20 0xFFFFFFFFFFFFFFFFFFFFFFFFFFFFFFFFFFFFFFFF AND DUP2 MSTORE PUSH1 0x20 ADD PUSH1 0x4 DUP3 ADD PUSH1 0x0 SWAP1 SLOAD SWAP1 PUSH2 0x100 EXP SWAP1 DIV PUSH20 0xFFFFFFFFFFFFFFFFFFFFFFFFFFFFFFFFFFFFFFFF AND PUSH20 0xFFFFFFFFFFFFFFFFFFFFFFFFFFFFFFFFFFFFFFFF AND PUSH20 0xFFFFFFFFFFFFFFFFFFFFFFFFFFFFFFFFFFFFFFFF AND DUP2 MSTORE PUSH1 0x20 ADD PUSH1 0x5 DUP3 ADD PUSH1 0x0 SWAP1 SLOAD SWAP1 PUSH2 0x100 EXP SWAP1 DIV PUSH20 0xFFFFFFFFFFFFFFFFFFFFFFFFFFFFFFFFFFFFFFFF AND PUSH20 0xFFFFFFFFFFFFFFFFFFFFFFFFFFFFFFFFFFFFFFFF AND PUSH20 0xFFFFFFFFFFFFFFFFFFFFFFFFFFFFFFFFFFFFFFFF AND DUP2 MSTORE PUSH1 0x20 ADD PUSH1 0x5 DUP3 ADD PUSH1 0x14 SWAP1 SLOAD SWAP1 PUSH2 0x100 EXP SWAP1 DIV PUSH1 0xFF AND ISZERO ISZERO ISZERO ISZERO DUP2 MSTORE POP POP SWAP4 POP DUP1 SWAP3 POP PUSH2 0x227D JUMP JUMPDEST DUP1 DUP1 PUSH2 0x2275 SWAP1 PUSH2 0x29DB JUMP JUMPDEST SWAP2 POP POP PUSH2 0x1FFB JUMP JUMPDEST POP DUP3 DUP3 SWAP5 POP SWAP5 POP POP POP POP SWAP3 POP SWAP3 SWAP1 POP JUMP JUMPDEST PUSH1 0x0 DUP2 PUSH1 0x0 ADD SLOAD SWAP1 POP PUSH1 0x0 DUP2 GT PUSH2 0x22DA JUMPI PUSH1 0x40 MLOAD PUSH32 0x8C379A000000000000000000000000000000000000000000000000000000000 DUP2 MSTORE PUSH1 0x4 ADD PUSH2 0x22D1 SWAP1 PUSH2 0x27F2 JUMP JUMPDEST PUSH1 0x40 MLOAD DUP1 SWAP2 SUB SWAP1 REVERT JUMPDEST PUSH1 0x1 DUP2 SUB DUP3 PUSH1 0x0 ADD DUP2 SWAP1 SSTORE POP POP POP JUMP JUMPDEST PUSH1 0x0 DUP2 PUSH1 0x0 ADD SLOAD SWAP1 POP SWAP2 SWAP1 POP JUMP JUMPDEST PUSH1 0x1 DUP2 PUSH1 0x0 ADD PUSH1 0x0 DUP3 DUP3 SLOAD ADD SWAP3 POP POP DUP2 SWAP1 SSTORE POP POP JUMP JUMPDEST PUSH1 0x40 MLOAD DUP1 PUSH1 0xE0 ADD PUSH1 0x40 MSTORE DUP1 PUSH1 0x0 PUSH20 0xFFFFFFFFFFFFFFFFFFFFFFFFFFFFFFFFFFFFFFFF AND DUP2 MSTORE PUSH1 0x20 ADD PUSH1 0x0 DUP2 MSTORE PUSH1 0x20 ADD PUSH1 0x0 DUP2 MSTORE PUSH1 0x20 ADD PUSH1 0x0 PUSH20 0xFFFFFFFFFFFFFFFFFFFFFFFFFFFFFFFFFFFFFFFF AND DUP2 MSTORE PUSH1 0x20 ADD PUSH1 0x0 PUSH20 0xFFFFFFFFFFFFFFFFFFFFFFFFFFFFFFFFFFFFFFFF AND DUP2 MSTORE PUSH1 0x20 ADD PUSH1 0x0 PUSH20 0xFFFFFFFFFFFFFFFFFFFFFFFFFFFFFFFFFFFFFFFF AND DUP2 MSTORE PUSH1 0x20 ADD PUSH1 0x0 ISZERO ISZERO DUP2 MSTORE POP SWAP1 JUMP JUMPDEST PUSH1 0x0 DUP2 CALLDATALOAD SWAP1 POP PUSH2 0x23B4 DUP2 PUSH2 0x2BD2 JUMP JUMPDEST SWAP3 SWAP2 POP POP JUMP JUMPDEST PUSH1 0x0 DUP2 MLOAD SWAP1 POP PUSH2 0x23C9 DUP2 PUSH2 0x2BD2 JUMP JUMPDEST SWAP3 SWAP2 POP POP JUMP JUMPDEST PUSH1 0x0 DUP2 CALLDATALOAD SWAP1 POP PUSH2 0x23DE DUP2 PUSH2 0x2BE9 JUMP JUMPDEST SWAP3 SWAP2 POP POP JUMP JUMPDEST PUSH1 0x0 PUSH1 0x20 DUP3 DUP5 SUB SLT ISZERO PUSH2 0x23FA JUMPI PUSH2 0x23F9 PUSH2 0x2AB1 JUMP JUMPDEST JUMPDEST PUSH1 0x0 PUSH2 0x2408 DUP5 DUP3 DUP6 ADD PUSH2 0x23A5 JUMP JUMPDEST SWAP2 POP POP SWAP3 SWAP2 POP POP JUMP JUMPDEST PUSH1 0x0 PUSH1 0x20 DUP3 DUP5 SUB SLT ISZERO PUSH2 0x2427 JUMPI PUSH2 0x2426 PUSH2 0x2AB1 JUMP JUMPDEST JUMPDEST PUSH1 0x0 PUSH2 0x2435 DUP5 DUP3 DUP6 ADD PUSH2 0x23BA JUMP JUMPDEST SWAP2 POP POP SWAP3 SWAP2 POP POP JUMP JUMPDEST PUSH1 0x0 DUP1 PUSH1 0x40 DUP4 DUP6 SUB SLT ISZERO PUSH2 0x2455 JUMPI PUSH2 0x2454 PUSH2 0x2AB1 JUMP JUMPDEST JUMPDEST PUSH1 0x0 PUSH2 0x2463 DUP6 DUP3 DUP7 ADD PUSH2 0x23A5 JUMP JUMPDEST SWAP3 POP POP PUSH1 0x20 PUSH2 0x2474 DUP6 DUP3 DUP7 ADD PUSH2 0x23CF JUMP JUMPDEST SWAP2 POP POP SWAP3 POP SWAP3 SWAP1 POP JUMP JUMPDEST PUSH1 0x0 DUP1 PUSH1 0x0 PUSH1 0x60 DUP5 DUP7 SUB SLT ISZERO PUSH2 0x2497 JUMPI PUSH2 0x2496 PUSH2 0x2AB1 JUMP JUMPDEST JUMPDEST PUSH1 0x0 PUSH2 0x24A5 DUP7 DUP3 DUP8 ADD PUSH2 0x23A5 JUMP JUMPDEST SWAP4 POP POP PUSH1 0x20 PUSH2 0x24B6 DUP7 DUP3 DUP8 ADD PUSH2 0x23CF JUMP JUMPDEST SWAP3 POP POP PUSH1 0x40 PUSH2 0x24C7 DUP7 DUP3 DUP8 ADD PUSH2 0x23CF JUMP JUMPDEST SWAP2 POP POP SWAP3 POP SWAP3 POP SWAP3 JUMP JUMPDEST PUSH1 0x0 PUSH2 0x24DD DUP4 DUP4 PUSH2 0x2664 JUMP JUMPDEST PUSH1 0xE0 DUP4 ADD SWAP1 POP SWAP3 SWAP2 POP POP JUMP JUMPDEST PUSH2 0x24F2 DUP2 PUSH2 0x29A5 JUMP JUMPDEST DUP3 MSTORE POP POP JUMP JUMPDEST PUSH2 0x2501 DUP2 PUSH2 0x295D JUMP JUMPDEST DUP3 MSTORE POP POP JUMP JUMPDEST PUSH2 0x2510 DUP2 PUSH2 0x294B JUMP JUMPDEST DUP3 MSTORE POP POP JUMP JUMPDEST PUSH2 0x251F DUP2 PUSH2 0x294B JUMP JUMPDEST DUP3 MSTORE POP POP JUMP JUMPDEST PUSH1 0x0 PUSH2 0x2530 DUP3 PUSH2 0x28DD JUMP JUMPDEST PUSH2 0x253A DUP2 DUP6 PUSH2 0x28F5 JUMP JUMPDEST SWAP4 POP PUSH2 0x2545 DUP4 PUSH2 0x28CD JUMP JUMPDEST DUP1 PUSH1 0x0 JUMPDEST DUP4 DUP2 LT ISZERO PUSH2 0x2576 JUMPI DUP2 MLOAD PUSH2 0x255D DUP9 DUP3 PUSH2 0x24D1 JUMP JUMPDEST SWAP8 POP PUSH2 0x2568 DUP4 PUSH2 0x28E8 JUMP JUMPDEST SWAP3 POP POP PUSH1 0x1 DUP2 ADD SWAP1 POP PUSH2 0x2549 JUMP JUMPDEST POP DUP6 SWAP4 POP POP POP POP SWAP3 SWAP2 POP POP JUMP JUMPDEST PUSH2 0x258C DUP2 PUSH2 0x296F JUMP JUMPDEST DUP3 MSTORE POP POP JUMP JUMPDEST PUSH1 0x0 PUSH2 0x259F PUSH1 0x1B DUP4 PUSH2 0x2906 JUMP JUMPDEST SWAP2 POP PUSH2 0x25AA DUP3 PUSH2 0x2AB6 JUMP JUMPDEST PUSH1 0x20 DUP3 ADD SWAP1 POP SWAP2 SWAP1 POP JUMP JUMPDEST PUSH1 0x0 PUSH2 0x25C2 PUSH1 0x26 DUP4 PUSH2 0x2906 JUMP JUMPDEST SWAP2 POP PUSH2 0x25CD DUP3 PUSH2 0x2ADF JUMP JUMPDEST PUSH1 0x40 DUP3 ADD SWAP1 POP SWAP2 SWAP1 POP JUMP JUMPDEST PUSH1 0x0 PUSH2 0x25E5 PUSH1 0xD DUP4 PUSH2 0x2906 JUMP JUMPDEST SWAP2 POP PUSH2 0x25F0 DUP3 PUSH2 0x2B2E JUMP JUMPDEST PUSH1 0x20 DUP3 ADD SWAP1 POP SWAP2 SWAP1 POP JUMP JUMPDEST PUSH1 0x0 PUSH2 0x2608 PUSH1 0x20 DUP4 PUSH2 0x2906 JUMP JUMPDEST SWAP2 POP PUSH2 0x2613 DUP3 PUSH2 0x2B57 JUMP JUMPDEST PUSH1 0x20 DUP3 ADD SWAP1 POP SWAP2 SWAP1 POP JUMP JUMPDEST PUSH1 0x0 PUSH2 0x262B PUSH1 0x1F DUP4 PUSH2 0x2906 JUMP JUMPDEST SWAP2 POP PUSH2 0x2636 DUP3 PUSH2 0x2B80 JUMP JUMPDEST PUSH1 0x20 DUP3 ADD SWAP1 POP SWAP2 SWAP1 POP JUMP JUMPDEST PUSH1 0x0 PUSH2 0x264E PUSH1 0x1C DUP4 PUSH2 0x2906 JUMP JUMPDEST SWAP2 POP PUSH2 0x2659 DUP3 PUSH2 0x2BA9 JUMP JUMPDEST PUSH1 0x20 DUP3 ADD SWAP1 POP SWAP2 SWAP1 POP JUMP JUMPDEST PUSH1 0xE0 DUP3 ADD PUSH1 0x0 DUP3 ADD MLOAD PUSH2 0x267A PUSH1 0x0 DUP6 ADD DUP3 PUSH2 0x2507 JUMP JUMPDEST POP PUSH1 0x20 DUP3 ADD MLOAD PUSH2 0x268D PUSH1 0x20 DUP6 ADD DUP3 PUSH2 0x26F2 JUMP JUMPDEST POP PUSH1 0x40 DUP3 ADD MLOAD PUSH2 0x26A0 PUSH1 0x40 DUP6 ADD DUP3 PUSH2 0x26F2 JUMP JUMPDEST POP PUSH1 0x60 DUP3 ADD MLOAD PUSH2 0x26B3 PUSH1 0x60 DUP6 ADD DUP3 PUSH2 0x24F8 JUMP JUMPDEST POP PUSH1 0x80 DUP3 ADD MLOAD PUSH2 0x26C6 PUSH1 0x80 DUP6 ADD DUP3 PUSH2 0x24F8 JUMP JUMPDEST POP PUSH1 0xA0 DUP3 ADD MLOAD PUSH2 0x26D9 PUSH1 0xA0 DUP6 ADD DUP3 PUSH2 0x24F8 JUMP JUMPDEST POP PUSH1 0xC0 DUP3 ADD MLOAD PUSH2 0x26EC PUSH1 0xC0 DUP6 ADD DUP3 PUSH2 0x2583 JUMP JUMPDEST POP POP POP POP JUMP JUMPDEST PUSH2 0x26FB DUP2 PUSH2 0x299B JUMP JUMPDEST DUP3 MSTORE POP POP JUMP JUMPDEST PUSH2 0x270A DUP2 PUSH2 0x299B JUMP JUMPDEST DUP3 MSTORE POP POP JUMP JUMPDEST PUSH1 0x0 PUSH1 0x20 DUP3 ADD SWAP1 POP PUSH2 0x2725 PUSH1 0x0 DUP4 ADD DUP5 PUSH2 0x2516 JUMP JUMPDEST SWAP3 SWAP2 POP POP JUMP JUMPDEST PUSH1 0x0 PUSH1 0x60 DUP3 ADD SWAP1 POP PUSH2 0x2740 PUSH1 0x0 DUP4 ADD DUP7 PUSH2 0x2516 JUMP JUMPDEST PUSH2 0x274D PUSH1 0x20 DUP4 ADD DUP6 PUSH2 0x24E9 JUMP JUMPDEST PUSH2 0x275A PUSH1 0x40 DUP4 ADD DUP5 PUSH2 0x2701 JUMP JUMPDEST SWAP5 SWAP4 POP POP POP POP JUMP JUMPDEST PUSH1 0x0 PUSH1 0x60 DUP3 ADD SWAP1 POP PUSH2 0x2777 PUSH1 0x0 DUP4 ADD DUP7 PUSH2 0x2516 JUMP JUMPDEST PUSH2 0x2784 PUSH1 0x20 DUP4 ADD DUP6 PUSH2 0x2516 JUMP JUMPDEST PUSH2 0x2791 PUSH1 0x40 DUP4 ADD DUP5 PUSH2 0x2701 JUMP JUMPDEST SWAP5 SWAP4 POP POP POP POP JUMP JUMPDEST PUSH1 0x0 PUSH1 0x60 DUP3 ADD SWAP1 POP PUSH2 0x27AE PUSH1 0x0 DUP4 ADD DUP7 PUSH2 0x2516 JUMP JUMPDEST PUSH2 0x27BB PUSH1 0x20 DUP4 ADD DUP6 PUSH2 0x2701 JUMP JUMPDEST PUSH2 0x27C8 PUSH1 0x40 DUP4 ADD DUP5 PUSH2 0x2701 JUMP JUMPDEST SWAP5 SWAP4 POP POP POP POP JUMP JUMPDEST PUSH1 0x0 PUSH1 0x20 DUP3 ADD SWAP1 POP DUP2 DUP2 SUB PUSH1 0x0 DUP4 ADD MSTORE PUSH2 0x27EA DUP2 DUP5 PUSH2 0x2525 JUMP JUMPDEST SWAP1 POP SWAP3 SWAP2 POP POP JUMP JUMPDEST PUSH1 0x0 PUSH1 0x20 DUP3 ADD SWAP1 POP DUP2 DUP2 SUB PUSH1 0x0 DUP4 ADD MSTORE PUSH2 0x280B DUP2 PUSH2 0x2592 JUMP JUMPDEST SWAP1 POP SWAP2 SWAP1 POP JUMP JUMPDEST PUSH1 0x0 PUSH1 0x20 DUP3 ADD SWAP1 POP DUP2 DUP2 SUB PUSH1 0x0 DUP4 ADD MSTORE PUSH2 0x282B DUP2 PUSH2 0x25B5 JUMP JUMPDEST SWAP1 POP SWAP2 SWAP1 POP JUMP JUMPDEST PUSH1 0x0 PUSH1 0x20 DUP3 ADD SWAP1 POP DUP2 DUP2 SUB PUSH1 0x0 DUP4 ADD MSTORE PUSH2 0x284B DUP2 PUSH2 0x25D8 JUMP JUMPDEST SWAP1 POP SWAP2 SWAP1 POP JUMP JUMPDEST PUSH1 0x0 PUSH1 0x20 DUP3 ADD SWAP1 POP DUP2 DUP2 SUB PUSH1 0x0 DUP4 ADD MSTORE PUSH2 0x286B DUP2 PUSH2 0x25FB JUMP JUMPDEST SWAP1 POP SWAP2 SWAP1 POP JUMP JUMPDEST PUSH1 0x0 PUSH1 0x20 DUP3 ADD SWAP1 POP DUP2 DUP2 SUB PUSH1 0x0 DUP4 ADD MSTORE PUSH2 0x288B DUP2 PUSH2 0x261E JUMP JUMPDEST SWAP1 POP SWAP2 SWAP1 POP JUMP JUMPDEST PUSH1 0x0 PUSH1 0x20 DUP3 ADD SWAP1 POP DUP2 DUP2 SUB PUSH1 0x0 DUP4 ADD MSTORE PUSH2 0x28AB DUP2 PUSH2 0x2641 JUMP JUMPDEST SWAP1 POP SWAP2 SWAP1 POP JUMP JUMPDEST PUSH1 0x0 PUSH1 0x20 DUP3 ADD SWAP1 POP PUSH2 0x28C7 PUSH1 0x0 DUP4 ADD DUP5 PUSH2 0x2701 JUMP JUMPDEST SWAP3 SWAP2 POP POP JUMP JUMPDEST PUSH1 0x0 DUP2 SWAP1 POP PUSH1 0x20 DUP3 ADD SWAP1 POP SWAP2 SWAP1 POP JUMP JUMPDEST PUSH1 0x0 DUP2 MLOAD SWAP1 POP SWAP2 SWAP1 POP JUMP JUMPDEST PUSH1 0x0 PUSH1 0x20 DUP3 ADD SWAP1 POP SWAP2 SWAP1 POP JUMP JUMPDEST PUSH1 0x0 DUP3 DUP3 MSTORE PUSH1 0x20 DUP3 ADD SWAP1 POP SWAP3 SWAP2 POP POP JUMP JUMPDEST PUSH1 0x0 DUP3 DUP3 MSTORE PUSH1 0x20 DUP3 ADD SWAP1 POP SWAP3 SWAP2 POP POP JUMP JUMPDEST PUSH1 0x0 PUSH2 0x2922 DUP3 PUSH2 0x299B JUMP JUMPDEST SWAP2 POP PUSH2 0x292D DUP4 PUSH2 0x299B JUMP JUMPDEST SWAP3 POP DUP3 DUP3 LT ISZERO PUSH2 0x2940 JUMPI PUSH2 0x293F PUSH2 0x2A24 JUMP JUMPDEST JUMPDEST DUP3 DUP3 SUB SWAP1 POP SWAP3 SWAP2 POP POP JUMP JUMPDEST PUSH1 0x0 PUSH2 0x2956 DUP3 PUSH2 0x297B JUMP JUMPDEST SWAP1 POP SWAP2 SWAP1 POP JUMP JUMPDEST PUSH1 0x0 PUSH2 0x2968 DUP3 PUSH2 0x297B JUMP JUMPDEST SWAP1 POP SWAP2 SWAP1 POP JUMP JUMPDEST PUSH1 0x0 DUP2 ISZERO ISZERO SWAP1 POP SWAP2 SWAP1 POP JUMP JUMPDEST PUSH1 0x0 PUSH20 0xFFFFFFFFFFFFFFFFFFFFFFFFFFFFFFFFFFFFFFFF DUP3 AND SWAP1 POP SWAP2 SWAP1 POP JUMP JUMPDEST PUSH1 0x0 DUP2 SWAP1 POP SWAP2 SWAP1 POP JUMP JUMPDEST PUSH1 0x0 PUSH2 0x29B0 DUP3 PUSH2 0x29B7 JUMP JUMPDEST SWAP1 POP SWAP2 SWAP1 POP JUMP JUMPDEST PUSH1 0x0 PUSH2 0x29C2 DUP3 PUSH2 0x29C9 JUMP JUMPDEST SWAP1 POP SWAP2 SWAP1 POP JUMP JUMPDEST PUSH1 0x0 PUSH2 0x29D4 DUP3 PUSH2 0x297B JUMP JUMPDEST SWAP1 POP SWAP2 SWAP1 POP JUMP JUMPDEST PUSH1 0x0 PUSH2 0x29E6 DUP3 PUSH2 0x299B JUMP JUMPDEST SWAP2 POP PUSH32 0xFFFFFFFFFFFFFFFFFFFFFFFFFFFFFFFFFFFFFFFFFFFFFFFFFFFFFFFFFFFFFFFF DUP3 EQ ISZERO PUSH2 0x2A19 JUMPI PUSH2 0x2A18 PUSH2 0x2A24 JUMP JUMPDEST JUMPDEST PUSH1 0x1 DUP3 ADD SWAP1 POP SWAP2 SWAP1 POP JUMP JUMPDEST PUSH32 0x4E487B7100000000000000000000000000000000000000000000000000000000 PUSH1 0x0 MSTORE PUSH1 0x11 PUSH1 0x4 MSTORE PUSH1 0x24 PUSH1 0x0 REVERT JUMPDEST PUSH32 0x4E487B7100000000000000000000000000000000000000000000000000000000 PUSH1 0x0 MSTORE PUSH1 0x32 PUSH1 0x4 MSTORE PUSH1 0x24 PUSH1 0x0 REVERT JUMPDEST PUSH32 0x4E487B7100000000000000000000000000000000000000000000000000000000 PUSH1 0x0 MSTORE PUSH1 0x41 PUSH1 0x4 MSTORE PUSH1 0x24 PUSH1 0x0 REVERT JUMPDEST PUSH1 0x0 DUP1 REVERT JUMPDEST PUSH32 0x436F756E7465723A2064656372656D656E74206F766572666C6F770000000000 PUSH1 0x0 DUP3 ADD MSTORE POP JUMP JUMPDEST PUSH32 0x4E6F7420656E6F75676820657468657220746F20636F7665722061736B696E67 PUSH1 0x0 DUP3 ADD MSTORE PUSH32 0x2070726963650000000000000000000000000000000000000000000000000000 PUSH1 0x20 DUP3 ADD MSTORE POP JUMP JUMPDEST PUSH32 0x4E6674206E6F7420666F756E6400000000000000000000000000000000000000 PUSH1 0x0 DUP3 ADD MSTORE POP JUMP JUMPDEST PUSH32 0x4E6F7420656E6F75676820657468657220666F72206C697374696E6720666565 PUSH1 0x0 DUP3 ADD MSTORE POP JUMP JUMPDEST PUSH32 0x5265656E7472616E637947756172643A207265656E7472616E742063616C6C00 PUSH1 0x0 DUP3 ADD MSTORE POP JUMP JUMPDEST PUSH32 0x5072696365206D757374206265206174206C6561737420312077656900000000 PUSH1 0x0 DUP3 ADD MSTORE POP JUMP JUMPDEST PUSH2 0x2BDB DUP2 PUSH2 0x294B JUMP JUMPDEST DUP2 EQ PUSH2 0x2BE6 JUMPI PUSH1 0x0 DUP1 REVERT JUMPDEST POP JUMP JUMPDEST PUSH2 0x2BF2 DUP2 PUSH2 0x299B JUMP JUMPDEST DUP2 EQ PUSH2 0x2BFD JUMPI PUSH1 0x0 DUP1 REVERT JUMPDEST POP JUMP INVALID LOG2 PUSH5 0x6970667358 0x22 SLT KECCAK256 PUSH12 0xB61ABA997385F372ECF120C9 DUP15 PUSH22 0x8DF94E289E7102E79BC34314ADE7322C0D64736F6C63 NUMBER STOP ADDMOD SMOD STOP CALLER "
				},
				"gasEstimates": {
					"creation": {
						"codeDepositCost": "2263600",
						"executionCost": "70905",
						"totalCost": "2334505"
					},
					"external": {
						"LISTING_FEE()": "2474",
						"buyNft(address,uint256)": "infinite",
						"getListedNfts()": "infinite",
						"getListingFee()": "2525",
						"getMyCreatedNfts()": "infinite",
						"getMyListedNfts()": "infinite",
						"getMyOwnedNfts()": "infinite",
						"getNftByContract(address)": "infinite",
						"getOwner(address,uint256)": "infinite",
						"listNFT(address,uint256,uint256)": "infinite",
						"resellNFT(address,uint256,uint256)": "infinite"
					},
					"internal": {
						"getNFT(address,uint256)": "infinite"
					}
				},
				"methodIdentifiers": {
					"LISTING_FEE()": "2b86ae38",
					"buyNft(address,uint256)": "4ddf4f8f",
					"getListedNfts()": "8d6cb3fb",
					"getListingFee()": "b8fe6abe",
					"getMyCreatedNfts()": "8492095a",
					"getMyListedNfts()": "1f4cc4db",
					"getMyOwnedNfts()": "a46b5c5a",
					"getNftByContract(address)": "e7d90feb",
					"getOwner(address,uint256)": "2f634a90",
					"listNFT(address,uint256,uint256)": "ad05f1b4",
					"resellNFT(address,uint256,uint256)": "04935694"
				}
			},
			"storageLayout": {
				"storage": [
					{
						"astId": 1059,
						"contract": "contracts/GeekNftMarketPlace.sol:GeekNftMarketPlace",
						"label": "_status",
						"offset": 0,
						"slot": "0",
						"type": "t_uint256"
					},
					{
						"astId": 103,
						"contract": "contracts/GeekNftMarketPlace.sol:GeekNftMarketPlace",
						"label": "_nftsSold",
						"offset": 0,
						"slot": "1",
						"type": "t_struct(Counter)5_storage"
					},
					{
						"astId": 106,
						"contract": "contracts/GeekNftMarketPlace.sol:GeekNftMarketPlace",
						"label": "_nftsCount",
						"offset": 0,
						"slot": "2",
						"type": "t_struct(Counter)5_storage"
					},
					{
						"astId": 109,
						"contract": "contracts/GeekNftMarketPlace.sol:GeekNftMarketPlace",
						"label": "LISTING_FEE",
						"offset": 0,
						"slot": "3",
						"type": "t_uint256"
					},
					{
						"astId": 111,
						"contract": "contracts/GeekNftMarketPlace.sol:GeekNftMarketPlace",
						"label": "_marketOwwner",
						"offset": 0,
						"slot": "4",
						"type": "t_address_payable"
					},
					{
						"astId": 115,
						"contract": "contracts/GeekNftMarketPlace.sol:GeekNftMarketPlace",
						"label": "nfts",
						"offset": 0,
						"slot": "5",
						"type": "t_array(t_struct(NFT)130_storage)dyn_storage"
					}
				],
				"types": {
					"t_address": {
						"encoding": "inplace",
						"label": "address",
						"numberOfBytes": "20"
					},
					"t_address_payable": {
						"encoding": "inplace",
						"label": "address payable",
						"numberOfBytes": "20"
					},
					"t_array(t_struct(NFT)130_storage)dyn_storage": {
						"base": "t_struct(NFT)130_storage",
						"encoding": "dynamic_array",
						"label": "struct GeekNftMarketPlace.NFT[]",
						"numberOfBytes": "32"
					},
					"t_bool": {
						"encoding": "inplace",
						"label": "bool",
						"numberOfBytes": "1"
					},
					"t_struct(Counter)5_storage": {
						"encoding": "inplace",
						"label": "struct Counters.Counter",
						"members": [
							{
								"astId": 4,
								"contract": "contracts/GeekNftMarketPlace.sol:GeekNftMarketPlace",
								"label": "_value",
								"offset": 0,
								"slot": "0",
								"type": "t_uint256"
							}
						],
						"numberOfBytes": "32"
					},
					"t_struct(NFT)130_storage": {
						"encoding": "inplace",
						"label": "struct GeekNftMarketPlace.NFT",
						"members": [
							{
								"astId": 117,
								"contract": "contracts/GeekNftMarketPlace.sol:GeekNftMarketPlace",
								"label": "nftContract",
								"offset": 0,
								"slot": "0",
								"type": "t_address"
							},
							{
								"astId": 119,
								"contract": "contracts/GeekNftMarketPlace.sol:GeekNftMarketPlace",
								"label": "tokenId",
								"offset": 0,
								"slot": "1",
								"type": "t_uint256"
							},
							{
								"astId": 121,
								"contract": "contracts/GeekNftMarketPlace.sol:GeekNftMarketPlace",
								"label": "price",
								"offset": 0,
								"slot": "2",
								"type": "t_uint256"
							},
							{
								"astId": 123,
								"contract": "contracts/GeekNftMarketPlace.sol:GeekNftMarketPlace",
								"label": "seller",
								"offset": 0,
								"slot": "3",
								"type": "t_address_payable"
							},
							{
								"astId": 125,
								"contract": "contracts/GeekNftMarketPlace.sol:GeekNftMarketPlace",
								"label": "owner",
								"offset": 0,
								"slot": "4",
								"type": "t_address_payable"
							},
							{
								"astId": 127,
								"contract": "contracts/GeekNftMarketPlace.sol:GeekNftMarketPlace",
								"label": "creator",
								"offset": 0,
								"slot": "5",
								"type": "t_address_payable"
							},
							{
								"astId": 129,
								"contract": "contracts/GeekNftMarketPlace.sol:GeekNftMarketPlace",
								"label": "listed",
								"offset": 20,
								"slot": "5",
								"type": "t_bool"
							}
						],
						"numberOfBytes": "192"
					},
					"t_uint256": {
						"encoding": "inplace",
						"label": "uint256",
						"numberOfBytes": "32"
					}
				}
			},
			"userdoc": {
				"kind": "user",
				"methods": {},
				"version": 1
			}
		}
	}
}