{
	"contracts/GeekNft.sol": {
		"GeekNft": {
			"abi": [
				{
					"inputs": [
						{
							"internalType": "address",
							"name": "marketplaceAddress_",
							"type": "address"
						},
						{
							"internalType": "string",
							"name": "name_",
							"type": "string"
						},
						{
							"internalType": "string",
							"name": "symbol_",
							"type": "string"
						}
					],
					"stateMutability": "nonpayable",
					"type": "constructor"
				},
				{
					"anonymous": false,
					"inputs": [
						{
							"indexed": true,
							"internalType": "uint256",
							"name": "tokenId",
							"type": "uint256"
						},
						{
							"indexed": false,
							"internalType": "address",
							"name": "from",
							"type": "address"
						}
					],
					"name": "NftMinted",
					"type": "event"
				},
				{
					"anonymous": false,
					"inputs": [
						{
							"indexed": true,
							"internalType": "address",
							"name": "from",
							"type": "address"
						},
						{
							"indexed": true,
							"internalType": "address",
							"name": "to",
							"type": "address"
						},
						{
							"indexed": true,
							"internalType": "uint256",
							"name": "tokenId",
							"type": "uint256"
						}
					],
					"name": "Transfer",
					"type": "event"
				},
				{
					"inputs": [
						{
							"internalType": "string",
							"name": "_tokenUri",
							"type": "string"
						}
					],
					"name": "mint",
					"outputs": [],
					"stateMutability": "nonpayable",
					"type": "function"
				},
				{
					"inputs": [],
					"name": "name",
					"outputs": [
						{
							"internalType": "string",
							"name": "",
							"type": "string"
						}
					],
					"stateMutability": "view",
					"type": "function"
				},
				{
					"inputs": [
						{
							"internalType": "uint256",
							"name": "_tokenId",
							"type": "uint256"
						}
					],
					"name": "ownerOf",
					"outputs": [
						{
							"internalType": "address",
							"name": "",
							"type": "address"
						}
					],
					"stateMutability": "view",
					"type": "function"
				},
				{
					"inputs": [],
					"name": "symbol",
					"outputs": [
						{
							"internalType": "string",
							"name": "",
							"type": "string"
						}
					],
					"stateMutability": "view",
					"type": "function"
				},
				{
					"inputs": [
						{
							"internalType": "uint256",
							"name": "",
							"type": "uint256"
						}
					],
					"name": "tokenToUri",
					"outputs": [
						{
							"internalType": "string",
							"name": "",
							"type": "string"
						}
					],
					"stateMutability": "view",
					"type": "function"
				},
				{
					"inputs": [
						{
							"internalType": "address",
							"name": "_from",
							"type": "address"
						},
						{
							"internalType": "address",
							"name": "_to",
							"type": "address"
						},
						{
							"internalType": "uint256",
							"name": "_tokenId",
							"type": "uint256"
						}
					],
					"name": "transferFrom",
					"outputs": [],
					"stateMutability": "nonpayable",
					"type": "function"
				},
				{
					"inputs": [
						{
							"internalType": "address",
							"name": "_owner",
							"type": "address"
						}
					],
					"name": "walletOfOwner",
					"outputs": [
						{
							"internalType": "uint256[]",
							"name": "",
							"type": "uint256[]"
						}
					],
					"stateMutability": "view",
					"type": "function"
				}
			],
			"devdoc": {
				"kind": "dev",
				"methods": {},
				"version": 1
			},
			"evm": {
				"assembly": "    /* \"contracts/GeekNft.sol\":83:3052  contract GeekNft {... */\n  mstore(0x40, 0x80)\n    /* \"contracts/GeekNft.sol\":651:842  constructor(address marketplaceAddress_, string memory name_, string memory symbol_){... */\n  callvalue\n  dup1\n  iszero\n  tag_1\n  jumpi\n  0x00\n  dup1\n  revert\ntag_1:\n  pop\n  mload(0x40)\n  sub(codesize, bytecodeSize)\n  dup1\n  bytecodeSize\n  dup4\n  codecopy\n  dup2\n  dup2\n  add\n  0x40\n  mstore\n  dup2\n  add\n  swap1\n  tag_2\n  swap2\n  swap1\n  tag_3\n  jump\t// in\ntag_2:\n    /* \"contracts/GeekNft.sol\":766:785  marketplaceAddress_ */\n  dup3\n    /* \"contracts/GeekNft.sol\":745:763  marketplaceAddress */\n  0x03\n  0x00\n    /* \"contracts/GeekNft.sol\":745:785  marketplaceAddress = marketplaceAddress_ */\n  0x0100\n  exp\n  dup2\n  sload\n  dup2\n  0xffffffffffffffffffffffffffffffffffffffff\n  mul\n  not\n  and\n  swap1\n  dup4\n  0xffffffffffffffffffffffffffffffffffffffff\n  and\n  mul\n  or\n  swap1\n  sstore\n  pop\n    /* \"contracts/GeekNft.sol\":803:808  name_ */\n  dup2\n    /* \"contracts/GeekNft.sol\":795:800  _name */\n  0x00\n    /* \"contracts/GeekNft.sol\":795:808  _name = name_ */\n  swap1\n  dup1\n  mload\n  swap1\n  0x20\n  add\n  swap1\n  tag_6\n  swap3\n  swap2\n  swap1\n  tag_7\n  jump\t// in\ntag_6:\n  pop\n    /* \"contracts/GeekNft.sol\":828:835  symbol_ */\n  dup1\n    /* \"contracts/GeekNft.sol\":818:825  _symbol */\n  0x01\n    /* \"contracts/GeekNft.sol\":818:835  _symbol = symbol_ */\n  swap1\n  dup1\n  mload\n  swap1\n  0x20\n  add\n  swap1\n  tag_8\n  swap3\n  swap2\n  swap1\n  tag_7\n  jump\t// in\ntag_8:\n  pop\n    /* \"contracts/GeekNft.sol\":651:842  constructor(address marketplaceAddress_, string memory name_, string memory symbol_){... */\n  pop\n  pop\n  pop\n    /* \"contracts/GeekNft.sol\":83:3052  contract GeekNft {... */\n  jump(tag_9)\ntag_7:\n  dup3\n  dup1\n  sload\n  tag_10\n  swap1\n  tag_11\n  jump\t// in\ntag_10:\n  swap1\n  0x00\n  mstore\n  keccak256(0x00, 0x20)\n  swap1\n  0x1f\n  add\n  0x20\n  swap1\n  div\n  dup2\n  add\n  swap3\n  dup3\n  tag_13\n  jumpi\n  0x00\n  dup6\n  sstore\n  jump(tag_12)\ntag_13:\n  dup3\n  0x1f\n  lt\n  tag_14\n  jumpi\n  dup1\n  mload\n  not(0xff)\n  and\n  dup4\n  dup1\n  add\n  or\n  dup6\n  sstore\n  jump(tag_12)\ntag_14:\n  dup3\n  dup1\n  add\n  0x01\n  add\n  dup6\n  sstore\n  dup3\n  iszero\n  tag_12\n  jumpi\n  swap2\n  dup3\n  add\ntag_15:\n  dup3\n  dup2\n  gt\n  iszero\n  tag_16\n  jumpi\n  dup3\n  mload\n  dup3\n  sstore\n  swap2\n  0x20\n  add\n  swap2\n  swap1\n  0x01\n  add\n  swap1\n  jump(tag_15)\ntag_16:\ntag_12:\n  pop\n  swap1\n  pop\n  tag_17\n  swap2\n  swap1\n  tag_18\n  jump\t// in\ntag_17:\n  pop\n  swap1\n  jump\t// out\ntag_18:\ntag_19:\n  dup1\n  dup3\n  gt\n  iszero\n  tag_20\n  jumpi\n  0x00\n  dup2\n  0x00\n  swap1\n  sstore\n  pop\n  0x01\n  add\n  jump(tag_19)\ntag_20:\n  pop\n  swap1\n  jump\t// out\n    /* \"#utility.yul\":7:428   */\ntag_22:\n    /* \"#utility.yul\":96:101   */\n  0x00\n    /* \"#utility.yul\":121:187   */\n  tag_24\n    /* \"#utility.yul\":137:186   */\n  tag_25\n    /* \"#utility.yul\":179:185   */\n  dup5\n    /* \"#utility.yul\":137:186   */\n  tag_26\n  jump\t// in\ntag_25:\n    /* \"#utility.yul\":121:187   */\n  tag_27\n  jump\t// in\ntag_24:\n    /* \"#utility.yul\":112:187   */\n  swap1\n  pop\n    /* \"#utility.yul\":210:216   */\n  dup3\n    /* \"#utility.yul\":203:208   */\n  dup2\n    /* \"#utility.yul\":196:217   */\n  mstore\n    /* \"#utility.yul\":248:252   */\n  0x20\n    /* \"#utility.yul\":241:246   */\n  dup2\n    /* \"#utility.yul\":237:253   */\n  add\n    /* \"#utility.yul\":286:289   */\n  dup5\n    /* \"#utility.yul\":277:283   */\n  dup5\n    /* \"#utility.yul\":272:275   */\n  dup5\n    /* \"#utility.yul\":268:284   */\n  add\n    /* \"#utility.yul\":265:290   */\n  gt\n    /* \"#utility.yul\":262:374   */\n  iszero\n  tag_28\n  jumpi\n    /* \"#utility.yul\":293:372   */\n  tag_29\n  tag_30\n  jump\t// in\ntag_29:\n    /* \"#utility.yul\":262:374   */\ntag_28:\n    /* \"#utility.yul\":383:422   */\n  tag_31\n    /* \"#utility.yul\":415:421   */\n  dup5\n    /* \"#utility.yul\":410:413   */\n  dup3\n    /* \"#utility.yul\":405:408   */\n  dup6\n    /* \"#utility.yul\":383:422   */\n  tag_32\n  jump\t// in\ntag_31:\n    /* \"#utility.yul\":102:428   */\n  pop\n    /* \"#utility.yul\":7:428   */\n  swap4\n  swap3\n  pop\n  pop\n  pop\n  jump\t// out\n    /* \"#utility.yul\":434:577   */\ntag_33:\n    /* \"#utility.yul\":491:496   */\n  0x00\n    /* \"#utility.yul\":522:528   */\n  dup2\n    /* \"#utility.yul\":516:529   */\n  mload\n    /* \"#utility.yul\":507:529   */\n  swap1\n  pop\n    /* \"#utility.yul\":538:571   */\n  tag_35\n    /* \"#utility.yul\":565:570   */\n  dup2\n    /* \"#utility.yul\":538:571   */\n  tag_36\n  jump\t// in\ntag_35:\n    /* \"#utility.yul\":434:577   */\n  swap3\n  swap2\n  pop\n  pop\n  jump\t// out\n    /* \"#utility.yul\":597:952   */\ntag_37:\n    /* \"#utility.yul\":664:669   */\n  0x00\n    /* \"#utility.yul\":713:716   */\n  dup3\n    /* \"#utility.yul\":706:710   */\n  0x1f\n    /* \"#utility.yul\":698:704   */\n  dup4\n    /* \"#utility.yul\":694:711   */\n  add\n    /* \"#utility.yul\":690:717   */\n  slt\n    /* \"#utility.yul\":680:802   */\n  tag_39\n  jumpi\n    /* \"#utility.yul\":721:800   */\n  tag_40\n  tag_41\n  jump\t// in\ntag_40:\n    /* \"#utility.yul\":680:802   */\ntag_39:\n    /* \"#utility.yul\":831:837   */\n  dup2\n    /* \"#utility.yul\":825:838   */\n  mload\n    /* \"#utility.yul\":856:946   */\n  tag_42\n    /* \"#utility.yul\":942:945   */\n  dup5\n    /* \"#utility.yul\":934:940   */\n  dup3\n    /* \"#utility.yul\":927:931   */\n  0x20\n    /* \"#utility.yul\":919:925   */\n  dup7\n    /* \"#utility.yul\":915:932   */\n  add\n    /* \"#utility.yul\":856:946   */\n  tag_22\n  jump\t// in\ntag_42:\n    /* \"#utility.yul\":847:946   */\n  swap2\n  pop\n    /* \"#utility.yul\":670:952   */\n  pop\n    /* \"#utility.yul\":597:952   */\n  swap3\n  swap2\n  pop\n  pop\n  jump\t// out\n    /* \"#utility.yul\":958:1967   */\ntag_3:\n    /* \"#utility.yul\":1066:1072   */\n  0x00\n    /* \"#utility.yul\":1074:1080   */\n  dup1\n    /* \"#utility.yul\":1082:1088   */\n  0x00\n    /* \"#utility.yul\":1131:1133   */\n  0x60\n    /* \"#utility.yul\":1119:1128   */\n  dup5\n    /* \"#utility.yul\":1110:1117   */\n  dup7\n    /* \"#utility.yul\":1106:1129   */\n  sub\n    /* \"#utility.yul\":1102:1134   */\n  slt\n    /* \"#utility.yul\":1099:1218   */\n  iszero\n  tag_44\n  jumpi\n    /* \"#utility.yul\":1137:1216   */\n  tag_45\n  tag_46\n  jump\t// in\ntag_45:\n    /* \"#utility.yul\":1099:1218   */\ntag_44:\n    /* \"#utility.yul\":1257:1258   */\n  0x00\n    /* \"#utility.yul\":1282:1346   */\n  tag_47\n    /* \"#utility.yul\":1338:1345   */\n  dup7\n    /* \"#utility.yul\":1329:1335   */\n  dup3\n    /* \"#utility.yul\":1318:1327   */\n  dup8\n    /* \"#utility.yul\":1314:1336   */\n  add\n    /* \"#utility.yul\":1282:1346   */\n  tag_33\n  jump\t// in\ntag_47:\n    /* \"#utility.yul\":1272:1346   */\n  swap4\n  pop\n    /* \"#utility.yul\":1228:1356   */\n  pop\n    /* \"#utility.yul\":1416:1418   */\n  0x20\n    /* \"#utility.yul\":1405:1414   */\n  dup5\n    /* \"#utility.yul\":1401:1419   */\n  add\n    /* \"#utility.yul\":1395:1420   */\n  mload\n    /* \"#utility.yul\":1447:1465   */\n  0xffffffffffffffff\n    /* \"#utility.yul\":1439:1445   */\n  dup2\n    /* \"#utility.yul\":1436:1466   */\n  gt\n    /* \"#utility.yul\":1433:1550   */\n  iszero\n  tag_48\n  jumpi\n    /* \"#utility.yul\":1469:1548   */\n  tag_49\n  tag_50\n  jump\t// in\ntag_49:\n    /* \"#utility.yul\":1433:1550   */\ntag_48:\n    /* \"#utility.yul\":1574:1648   */\n  tag_51\n    /* \"#utility.yul\":1640:1647   */\n  dup7\n    /* \"#utility.yul\":1631:1637   */\n  dup3\n    /* \"#utility.yul\":1620:1629   */\n  dup8\n    /* \"#utility.yul\":1616:1638   */\n  add\n    /* \"#utility.yul\":1574:1648   */\n  tag_37\n  jump\t// in\ntag_51:\n    /* \"#utility.yul\":1564:1648   */\n  swap3\n  pop\n    /* \"#utility.yul\":1366:1658   */\n  pop\n    /* \"#utility.yul\":1718:1720   */\n  0x40\n    /* \"#utility.yul\":1707:1716   */\n  dup5\n    /* \"#utility.yul\":1703:1721   */\n  add\n    /* \"#utility.yul\":1697:1722   */\n  mload\n    /* \"#utility.yul\":1749:1767   */\n  0xffffffffffffffff\n    /* \"#utility.yul\":1741:1747   */\n  dup2\n    /* \"#utility.yul\":1738:1768   */\n  gt\n    /* \"#utility.yul\":1735:1852   */\n  iszero\n  tag_52\n  jumpi\n    /* \"#utility.yul\":1771:1850   */\n  tag_53\n  tag_50\n  jump\t// in\ntag_53:\n    /* \"#utility.yul\":1735:1852   */\ntag_52:\n    /* \"#utility.yul\":1876:1950   */\n  tag_54\n    /* \"#utility.yul\":1942:1949   */\n  dup7\n    /* \"#utility.yul\":1933:1939   */\n  dup3\n    /* \"#utility.yul\":1922:1931   */\n  dup8\n    /* \"#utility.yul\":1918:1940   */\n  add\n    /* \"#utility.yul\":1876:1950   */\n  tag_37\n  jump\t// in\ntag_54:\n    /* \"#utility.yul\":1866:1950   */\n  swap2\n  pop\n    /* \"#utility.yul\":1668:1960   */\n  pop\n    /* \"#utility.yul\":958:1967   */\n  swap3\n  pop\n  swap3\n  pop\n  swap3\n  jump\t// out\n    /* \"#utility.yul\":1973:2102   */\ntag_27:\n    /* \"#utility.yul\":2007:2013   */\n  0x00\n    /* \"#utility.yul\":2034:2054   */\n  tag_56\n  tag_57\n  jump\t// in\ntag_56:\n    /* \"#utility.yul\":2024:2054   */\n  swap1\n  pop\n    /* \"#utility.yul\":2063:2096   */\n  tag_58\n    /* \"#utility.yul\":2091:2095   */\n  dup3\n    /* \"#utility.yul\":2083:2089   */\n  dup3\n    /* \"#utility.yul\":2063:2096   */\n  tag_59\n  jump\t// in\ntag_58:\n    /* \"#utility.yul\":1973:2102   */\n  swap2\n  swap1\n  pop\n  jump\t// out\n    /* \"#utility.yul\":2108:2183   */\ntag_57:\n    /* \"#utility.yul\":2141:2147   */\n  0x00\n    /* \"#utility.yul\":2174:2176   */\n  0x40\n    /* \"#utility.yul\":2168:2177   */\n  mload\n    /* \"#utility.yul\":2158:2177   */\n  swap1\n  pop\n    /* \"#utility.yul\":2108:2183   */\n  swap1\n  jump\t// out\n    /* \"#utility.yul\":2189:2497   */\ntag_26:\n    /* \"#utility.yul\":2251:2255   */\n  0x00\n    /* \"#utility.yul\":2341:2359   */\n  0xffffffffffffffff\n    /* \"#utility.yul\":2333:2339   */\n  dup3\n    /* \"#utility.yul\":2330:2360   */\n  gt\n    /* \"#utility.yul\":2327:2383   */\n  iszero\n  tag_62\n  jumpi\n    /* \"#utility.yul\":2363:2381   */\n  tag_63\n  tag_64\n  jump\t// in\ntag_63:\n    /* \"#utility.yul\":2327:2383   */\ntag_62:\n    /* \"#utility.yul\":2401:2430   */\n  tag_65\n    /* \"#utility.yul\":2423:2429   */\n  dup3\n    /* \"#utility.yul\":2401:2430   */\n  tag_66\n  jump\t// in\ntag_65:\n    /* \"#utility.yul\":2393:2430   */\n  swap1\n  pop\n    /* \"#utility.yul\":2485:2489   */\n  0x20\n    /* \"#utility.yul\":2479:2483   */\n  dup2\n    /* \"#utility.yul\":2475:2490   */\n  add\n    /* \"#utility.yul\":2467:2490   */\n  swap1\n  pop\n    /* \"#utility.yul\":2189:2497   */\n  swap2\n  swap1\n  pop\n  jump\t// out\n    /* \"#utility.yul\":2503:2599   */\ntag_67:\n    /* \"#utility.yul\":2540:2547   */\n  0x00\n    /* \"#utility.yul\":2569:2593   */\n  tag_69\n    /* \"#utility.yul\":2587:2592   */\n  dup3\n    /* \"#utility.yul\":2569:2593   */\n  tag_70\n  jump\t// in\ntag_69:\n    /* \"#utility.yul\":2558:2593   */\n  swap1\n  pop\n    /* \"#utility.yul\":2503:2599   */\n  swap2\n  swap1\n  pop\n  jump\t// out\n    /* \"#utility.yul\":2605:2731   */\ntag_70:\n    /* \"#utility.yul\":2642:2649   */\n  0x00\n    /* \"#utility.yul\":2682:2724   */\n  0xffffffffffffffffffffffffffffffffffffffff\n    /* \"#utility.yul\":2675:2680   */\n  dup3\n    /* \"#utility.yul\":2671:2725   */\n  and\n    /* \"#utility.yul\":2660:2725   */\n  swap1\n  pop\n    /* \"#utility.yul\":2605:2731   */\n  swap2\n  swap1\n  pop\n  jump\t// out\n    /* \"#utility.yul\":2737:3044   */\ntag_32:\n    /* \"#utility.yul\":2805:2806   */\n  0x00\n    /* \"#utility.yul\":2815:2928   */\ntag_73:\n    /* \"#utility.yul\":2829:2835   */\n  dup4\n    /* \"#utility.yul\":2826:2827   */\n  dup2\n    /* \"#utility.yul\":2823:2836   */\n  lt\n    /* \"#utility.yul\":2815:2928   */\n  iszero\n  tag_75\n  jumpi\n    /* \"#utility.yul\":2914:2915   */\n  dup1\n    /* \"#utility.yul\":2909:2912   */\n  dup3\n    /* \"#utility.yul\":2905:2916   */\n  add\n    /* \"#utility.yul\":2899:2917   */\n  mload\n    /* \"#utility.yul\":2895:2896   */\n  dup2\n    /* \"#utility.yul\":2890:2893   */\n  dup5\n    /* \"#utility.yul\":2886:2897   */\n  add\n    /* \"#utility.yul\":2879:2918   */\n  mstore\n    /* \"#utility.yul\":2851:2853   */\n  0x20\n    /* \"#utility.yul\":2848:2849   */\n  dup2\n    /* \"#utility.yul\":2844:2854   */\n  add\n    /* \"#utility.yul\":2839:2854   */\n  swap1\n  pop\n    /* \"#utility.yul\":2815:2928   */\n  jump(tag_73)\ntag_75:\n    /* \"#utility.yul\":2946:2952   */\n  dup4\n    /* \"#utility.yul\":2943:2944   */\n  dup2\n    /* \"#utility.yul\":2940:2953   */\n  gt\n    /* \"#utility.yul\":2937:3038   */\n  iszero\n  tag_76\n  jumpi\n    /* \"#utility.yul\":3026:3027   */\n  0x00\n    /* \"#utility.yul\":3017:3023   */\n  dup5\n    /* \"#utility.yul\":3012:3015   */\n  dup5\n    /* \"#utility.yul\":3008:3024   */\n  add\n    /* \"#utility.yul\":3001:3028   */\n  mstore\n    /* \"#utility.yul\":2937:3038   */\ntag_76:\n    /* \"#utility.yul\":2786:3044   */\n  pop\n    /* \"#utility.yul\":2737:3044   */\n  pop\n  pop\n  pop\n  jump\t// out\n    /* \"#utility.yul\":3050:3370   */\ntag_11:\n    /* \"#utility.yul\":3094:3100   */\n  0x00\n    /* \"#utility.yul\":3131:3132   */\n  0x02\n    /* \"#utility.yul\":3125:3129   */\n  dup3\n    /* \"#utility.yul\":3121:3133   */\n  div\n    /* \"#utility.yul\":3111:3133   */\n  swap1\n  pop\n    /* \"#utility.yul\":3178:3179   */\n  0x01\n    /* \"#utility.yul\":3172:3176   */\n  dup3\n    /* \"#utility.yul\":3168:3180   */\n  and\n    /* \"#utility.yul\":3199:3217   */\n  dup1\n    /* \"#utility.yul\":3189:3270   */\n  tag_78\n  jumpi\n    /* \"#utility.yul\":3255:3259   */\n  0x7f\n    /* \"#utility.yul\":3247:3253   */\n  dup3\n    /* \"#utility.yul\":3243:3260   */\n  and\n    /* \"#utility.yul\":3233:3260   */\n  swap2\n  pop\n    /* \"#utility.yul\":3189:3270   */\ntag_78:\n    /* \"#utility.yul\":3317:3319   */\n  0x20\n    /* \"#utility.yul\":3309:3315   */\n  dup3\n    /* \"#utility.yul\":3306:3320   */\n  lt\n    /* \"#utility.yul\":3286:3304   */\n  dup2\n    /* \"#utility.yul\":3283:3321   */\n  eq\n    /* \"#utility.yul\":3280:3364   */\n  iszero\n  tag_79\n  jumpi\n    /* \"#utility.yul\":3336:3354   */\n  tag_80\n  tag_81\n  jump\t// in\ntag_80:\n    /* \"#utility.yul\":3280:3364   */\ntag_79:\n    /* \"#utility.yul\":3101:3370   */\n  pop\n    /* \"#utility.yul\":3050:3370   */\n  swap2\n  swap1\n  pop\n  jump\t// out\n    /* \"#utility.yul\":3376:3657   */\ntag_59:\n    /* \"#utility.yul\":3459:3486   */\n  tag_83\n    /* \"#utility.yul\":3481:3485   */\n  dup3\n    /* \"#utility.yul\":3459:3486   */\n  tag_66\n  jump\t// in\ntag_83:\n    /* \"#utility.yul\":3451:3457   */\n  dup2\n    /* \"#utility.yul\":3447:3487   */\n  add\n    /* \"#utility.yul\":3589:3595   */\n  dup2\n    /* \"#utility.yul\":3577:3587   */\n  dup2\n    /* \"#utility.yul\":3574:3596   */\n  lt\n    /* \"#utility.yul\":3553:3571   */\n  0xffffffffffffffff\n    /* \"#utility.yul\":3541:3551   */\n  dup3\n    /* \"#utility.yul\":3538:3572   */\n  gt\n    /* \"#utility.yul\":3535:3597   */\n  or\n    /* \"#utility.yul\":3532:3620   */\n  iszero\n  tag_84\n  jumpi\n    /* \"#utility.yul\":3600:3618   */\n  tag_85\n  tag_64\n  jump\t// in\ntag_85:\n    /* \"#utility.yul\":3532:3620   */\ntag_84:\n    /* \"#utility.yul\":3640:3650   */\n  dup1\n    /* \"#utility.yul\":3636:3638   */\n  0x40\n    /* \"#utility.yul\":3629:3651   */\n  mstore\n    /* \"#utility.yul\":3419:3657   */\n  pop\n    /* \"#utility.yul\":3376:3657   */\n  pop\n  pop\n  jump\t// out\n    /* \"#utility.yul\":3663:3843   */\ntag_81:\n    /* \"#utility.yul\":3711:3788   */\n  0x4e487b7100000000000000000000000000000000000000000000000000000000\n    /* \"#utility.yul\":3708:3709   */\n  0x00\n    /* \"#utility.yul\":3701:3789   */\n  mstore\n    /* \"#utility.yul\":3808:3812   */\n  0x22\n    /* \"#utility.yul\":3805:3806   */\n  0x04\n    /* \"#utility.yul\":3798:3813   */\n  mstore\n    /* \"#utility.yul\":3832:3836   */\n  0x24\n    /* \"#utility.yul\":3829:3830   */\n  0x00\n    /* \"#utility.yul\":3822:3837   */\n  revert\n    /* \"#utility.yul\":3849:4029   */\ntag_64:\n    /* \"#utility.yul\":3897:3974   */\n  0x4e487b7100000000000000000000000000000000000000000000000000000000\n    /* \"#utility.yul\":3894:3895   */\n  0x00\n    /* \"#utility.yul\":3887:3975   */\n  mstore\n    /* \"#utility.yul\":3994:3998   */\n  0x41\n    /* \"#utility.yul\":3991:3992   */\n  0x04\n    /* \"#utility.yul\":3984:3999   */\n  mstore\n    /* \"#utility.yul\":4018:4022   */\n  0x24\n    /* \"#utility.yul\":4015:4016   */\n  0x00\n    /* \"#utility.yul\":4008:4023   */\n  revert\n    /* \"#utility.yul\":4035:4152   */\ntag_41:\n    /* \"#utility.yul\":4144:4145   */\n  0x00\n    /* \"#utility.yul\":4141:4142   */\n  dup1\n    /* \"#utility.yul\":4134:4146   */\n  revert\n    /* \"#utility.yul\":4158:4275   */\ntag_30:\n    /* \"#utility.yul\":4267:4268   */\n  0x00\n    /* \"#utility.yul\":4264:4265   */\n  dup1\n    /* \"#utility.yul\":4257:4269   */\n  revert\n    /* \"#utility.yul\":4281:4398   */\ntag_50:\n    /* \"#utility.yul\":4390:4391   */\n  0x00\n    /* \"#utility.yul\":4387:4388   */\n  dup1\n    /* \"#utility.yul\":4380:4392   */\n  revert\n    /* \"#utility.yul\":4404:4521   */\ntag_46:\n    /* \"#utility.yul\":4513:4514   */\n  0x00\n    /* \"#utility.yul\":4510:4511   */\n  dup1\n    /* \"#utility.yul\":4503:4515   */\n  revert\n    /* \"#utility.yul\":4527:4629   */\ntag_66:\n    /* \"#utility.yul\":4568:4574   */\n  0x00\n    /* \"#utility.yul\":4619:4621   */\n  0x1f\n    /* \"#utility.yul\":4615:4622   */\n  not\n    /* \"#utility.yul\":4610:4612   */\n  0x1f\n    /* \"#utility.yul\":4603:4608   */\n  dup4\n    /* \"#utility.yul\":4599:4613   */\n  add\n    /* \"#utility.yul\":4595:4623   */\n  and\n    /* \"#utility.yul\":4585:4623   */\n  swap1\n  pop\n    /* \"#utility.yul\":4527:4629   */\n  swap2\n  swap1\n  pop\n  jump\t// out\n    /* \"#utility.yul\":4635:4757   */\ntag_36:\n    /* \"#utility.yul\":4708:4732   */\n  tag_94\n    /* \"#utility.yul\":4726:4731   */\n  dup2\n    /* \"#utility.yul\":4708:4732   */\n  tag_67\n  jump\t// in\ntag_94:\n    /* \"#utility.yul\":4701:4706   */\n  dup2\n    /* \"#utility.yul\":4698:4733   */\n  eq\n    /* \"#utility.yul\":4688:4751   */\n  tag_95\n  jumpi\n    /* \"#utility.yul\":4747:4748   */\n  0x00\n    /* \"#utility.yul\":4744:4745   */\n  dup1\n    /* \"#utility.yul\":4737:4749   */\n  revert\n    /* \"#utility.yul\":4688:4751   */\ntag_95:\n    /* \"#utility.yul\":4635:4757   */\n  pop\n  jump\t// out\n    /* \"contracts/GeekNft.sol\":83:3052  contract GeekNft {... */\ntag_9:\n  dataSize(sub_0)\n  dup1\n  dataOffset(sub_0)\n  0x00\n  codecopy\n  0x00\n  return\nstop\n\nsub_0: assembly {\n        /* \"contracts/GeekNft.sol\":83:3052  contract GeekNft {... */\n      mstore(0x40, 0x80)\n      callvalue\n      dup1\n      iszero\n      tag_1\n      jumpi\n      0x00\n      dup1\n      revert\n    tag_1:\n      pop\n      jumpi(tag_2, lt(calldatasize, 0x04))\n      shr(0xe0, calldataload(0x00))\n      dup1\n      0x6352211e\n      gt\n      tag_10\n      jumpi\n      dup1\n      0x6352211e\n      eq\n      tag_6\n      jumpi\n      dup1\n      0x95d89b41\n      eq\n      tag_7\n      jumpi\n      dup1\n      0xbf59b347\n      eq\n      tag_8\n      jumpi\n      dup1\n      0xd85d3d27\n      eq\n      tag_9\n      jumpi\n      jump(tag_2)\n    tag_10:\n      dup1\n      0x06fdde03\n      eq\n      tag_3\n      jumpi\n      dup1\n      0x23b872dd\n      eq\n      tag_4\n      jumpi\n      dup1\n      0x438b6300\n      eq\n      tag_5\n      jumpi\n    tag_2:\n      0x00\n      dup1\n      revert\n        /* \"contracts/GeekNft.sol\":1120:1201  function name() public view returns (string memory) {... */\n    tag_3:\n      tag_11\n      tag_12\n      jump\t// in\n    tag_11:\n      mload(0x40)\n      tag_13\n      swap2\n      swap1\n      tag_14\n      jump\t// in\n    tag_13:\n      mload(0x40)\n      dup1\n      swap2\n      sub\n      swap1\n      return\n        /* \"contracts/GeekNft.sol\":1302:1727  function transferFrom(address _from, address _to, uint _tokenId) external {... */\n    tag_4:\n      tag_15\n      0x04\n      dup1\n      calldatasize\n      sub\n      dup2\n      add\n      swap1\n      tag_16\n      swap2\n      swap1\n      tag_17\n      jump\t// in\n    tag_16:\n      tag_18\n      jump\t// in\n    tag_15:\n      stop\n        /* \"contracts/GeekNft.sol\":1982:2377  function walletOfOwner(address _owner) public view returns (uint[] memory) {... */\n    tag_5:\n      tag_19\n      0x04\n      dup1\n      calldatasize\n      sub\n      dup2\n      add\n      swap1\n      tag_20\n      swap2\n      swap1\n      tag_21\n      jump\t// in\n    tag_20:\n      tag_22\n      jump\t// in\n    tag_19:\n      mload(0x40)\n      tag_23\n      swap2\n      swap1\n      tag_24\n      jump\t// in\n    tag_23:\n      mload(0x40)\n      dup1\n      swap2\n      sub\n      swap1\n      return\n        /* \"contracts/GeekNft.sol\":1733:1943  function ownerOf(uint256 _tokenId) external view returns (address) {... */\n    tag_6:\n      tag_25\n      0x04\n      dup1\n      calldatasize\n      sub\n      dup2\n      add\n      swap1\n      tag_26\n      swap2\n      swap1\n      tag_27\n      jump\t// in\n    tag_26:\n      tag_28\n      jump\t// in\n    tag_25:\n      mload(0x40)\n      tag_29\n      swap2\n      swap1\n      tag_30\n      jump\t// in\n    tag_29:\n      mload(0x40)\n      dup1\n      swap2\n      sub\n      swap1\n      return\n        /* \"contracts/GeekNft.sol\":1211:1296  function symbol() public view returns (string memory) {... */\n    tag_7:\n      tag_31\n      tag_32\n      jump\t// in\n    tag_31:\n      mload(0x40)\n      tag_33\n      swap2\n      swap1\n      tag_14\n      jump\t// in\n    tag_33:\n      mload(0x40)\n      dup1\n      swap2\n      sub\n      swap1\n      return\n        /* \"contracts/GeekNft.sol\":461:502  mapping(uint => string) public tokenToUri */\n    tag_8:\n      tag_34\n      0x04\n      dup1\n      calldatasize\n      sub\n      dup2\n      add\n      swap1\n      tag_35\n      swap2\n      swap1\n      tag_27\n      jump\t// in\n    tag_35:\n      tag_36\n      jump\t// in\n    tag_34:\n      mload(0x40)\n      tag_37\n      swap2\n      swap1\n      tag_14\n      jump\t// in\n    tag_37:\n      mload(0x40)\n      dup1\n      swap2\n      sub\n      swap1\n      return\n        /* \"contracts/GeekNft.sol\":848:1113  function mint(string memory _tokenUri) public {... */\n    tag_9:\n      tag_38\n      0x04\n      dup1\n      calldatasize\n      sub\n      dup2\n      add\n      swap1\n      tag_39\n      swap2\n      swap1\n      tag_40\n      jump\t// in\n    tag_39:\n      tag_41\n      jump\t// in\n    tag_38:\n      stop\n        /* \"contracts/GeekNft.sol\":1120:1201  function name() public view returns (string memory) {... */\n    tag_12:\n        /* \"contracts/GeekNft.sol\":1157:1170  string memory */\n      0x60\n        /* \"contracts/GeekNft.sol\":1189:1194  _name */\n      0x00\n        /* \"contracts/GeekNft.sol\":1182:1194  return _name */\n      dup1\n      sload\n      tag_43\n      swap1\n      tag_44\n      jump\t// in\n    tag_43:\n      dup1\n      0x1f\n      add\n      0x20\n      dup1\n      swap2\n      div\n      mul\n      0x20\n      add\n      mload(0x40)\n      swap1\n      dup2\n      add\n      0x40\n      mstore\n      dup1\n      swap3\n      swap2\n      swap1\n      dup2\n      dup2\n      mstore\n      0x20\n      add\n      dup3\n      dup1\n      sload\n      tag_45\n      swap1\n      tag_44\n      jump\t// in\n    tag_45:\n      dup1\n      iszero\n      tag_46\n      jumpi\n      dup1\n      0x1f\n      lt\n      tag_47\n      jumpi\n      0x0100\n      dup1\n      dup4\n      sload\n      div\n      mul\n      dup4\n      mstore\n      swap2\n      0x20\n      add\n      swap2\n      jump(tag_46)\n    tag_47:\n      dup3\n      add\n      swap2\n      swap1\n      0x00\n      mstore\n      keccak256(0x00, 0x20)\n      swap1\n    tag_48:\n      dup2\n      sload\n      dup2\n      mstore\n      swap1\n      0x01\n      add\n      swap1\n      0x20\n      add\n      dup1\n      dup4\n      gt\n      tag_48\n      jumpi\n      dup3\n      swap1\n      sub\n      0x1f\n      and\n      dup3\n      add\n      swap2\n    tag_46:\n      pop\n      pop\n      pop\n      pop\n      pop\n      swap1\n      pop\n        /* \"contracts/GeekNft.sol\":1120:1201  function name() public view returns (string memory) {... */\n      swap1\n      jump\t// out\n        /* \"contracts/GeekNft.sol\":1302:1727  function transferFrom(address _from, address _to, uint _tokenId) external {... */\n    tag_18:\n        /* \"contracts/GeekNft.sol\":1420:1425  _from */\n      dup3\n        /* \"contracts/GeekNft.sol\":1394:1425  tokenToOwner[_tokenId] == _from */\n      0xffffffffffffffffffffffffffffffffffffffff\n      and\n        /* \"contracts/GeekNft.sol\":1394:1406  tokenToOwner */\n      0x05\n        /* \"contracts/GeekNft.sol\":1394:1416  tokenToOwner[_tokenId] */\n      0x00\n        /* \"contracts/GeekNft.sol\":1407:1415  _tokenId */\n      dup4\n        /* \"contracts/GeekNft.sol\":1394:1416  tokenToOwner[_tokenId] */\n      dup2\n      mstore\n      0x20\n      add\n      swap1\n      dup2\n      mstore\n      0x20\n      add\n      0x00\n      keccak256\n      0x00\n      swap1\n      sload\n      swap1\n      0x0100\n      exp\n      swap1\n      div\n      0xffffffffffffffffffffffffffffffffffffffff\n      and\n        /* \"contracts/GeekNft.sol\":1394:1425  tokenToOwner[_tokenId] == _from */\n      0xffffffffffffffffffffffffffffffffffffffff\n      and\n      eq\n        /* \"contracts/GeekNft.sol\":1386:1453  require(tokenToOwner[_tokenId] == _from, \"Not called by the owner\") */\n      tag_50\n      jumpi\n      mload(0x40)\n      0x08c379a000000000000000000000000000000000000000000000000000000000\n      dup2\n      mstore\n      0x04\n      add\n      tag_51\n      swap1\n      tag_52\n      jump\t// in\n    tag_51:\n      mload(0x40)\n      dup1\n      swap2\n      sub\n      swap1\n      revert\n    tag_50:\n        /* \"contracts/GeekNft.sol\":1486:1487  0 */\n      0x00\n        /* \"contracts/GeekNft.sol\":1471:1488  _to != address(0) */\n      0xffffffffffffffffffffffffffffffffffffffff\n      and\n        /* \"contracts/GeekNft.sol\":1471:1474  _to */\n      dup3\n        /* \"contracts/GeekNft.sol\":1471:1488  _to != address(0) */\n      0xffffffffffffffffffffffffffffffffffffffff\n      and\n      eq\n      iszero\n        /* \"contracts/GeekNft.sol\":1463:1529  require(_to != address(0), \"ERC721: transfer to the zero address\") */\n      tag_53\n      jumpi\n      mload(0x40)\n      0x08c379a000000000000000000000000000000000000000000000000000000000\n      dup2\n      mstore\n      0x04\n      add\n      tag_54\n      swap1\n      tag_55\n      jump\t// in\n    tag_54:\n      mload(0x40)\n      dup1\n      swap2\n      sub\n      swap1\n      revert\n    tag_53:\n        /* \"contracts/GeekNft.sol\":1563:1579  tokensOwnerCount */\n      0x04\n        /* \"contracts/GeekNft.sol\":1563:1586  tokensOwnerCount[_from] */\n      0x00\n        /* \"contracts/GeekNft.sol\":1580:1585  _from */\n      dup5\n        /* \"contracts/GeekNft.sol\":1563:1586  tokensOwnerCount[_from] */\n      0xffffffffffffffffffffffffffffffffffffffff\n      and\n      0xffffffffffffffffffffffffffffffffffffffff\n      and\n      dup2\n      mstore\n      0x20\n      add\n      swap1\n      dup2\n      mstore\n      0x20\n      add\n      0x00\n      keccak256\n      0x00\n        /* \"contracts/GeekNft.sol\":1563:1588  tokensOwnerCount[_from]-- */\n      dup2\n      sload\n      dup1\n      swap3\n      swap2\n      swap1\n      0x01\n      swap1\n      sub\n      swap2\n      swap1\n      pop\n      sstore\n      pop\n        /* \"contracts/GeekNft.sol\":1602:1618  tokensOwnerCount */\n      0x04\n        /* \"contracts/GeekNft.sol\":1602:1623  tokensOwnerCount[_to] */\n      0x00\n        /* \"contracts/GeekNft.sol\":1619:1622  _to */\n      dup4\n        /* \"contracts/GeekNft.sol\":1602:1623  tokensOwnerCount[_to] */\n      0xffffffffffffffffffffffffffffffffffffffff\n      and\n      0xffffffffffffffffffffffffffffffffffffffff\n      and\n      dup2\n      mstore\n      0x20\n      add\n      swap1\n      dup2\n      mstore\n      0x20\n      add\n      0x00\n      keccak256\n      0x00\n        /* \"contracts/GeekNft.sol\":1602:1625  tokensOwnerCount[_to]++ */\n      dup2\n      sload\n      dup1\n      swap3\n      swap2\n      swap1\n      0x01\n      add\n      swap2\n      swap1\n      pop\n      sstore\n      pop\n        /* \"contracts/GeekNft.sol\":1671:1674  _to */\n      dup2\n        /* \"contracts/GeekNft.sol\":1646:1658  tokenToOwner */\n      0x05\n        /* \"contracts/GeekNft.sol\":1646:1668  tokenToOwner[_tokenId] */\n      0x00\n        /* \"contracts/GeekNft.sol\":1659:1667  _tokenId */\n      dup4\n        /* \"contracts/GeekNft.sol\":1646:1668  tokenToOwner[_tokenId] */\n      dup2\n      mstore\n      0x20\n      add\n      swap1\n      dup2\n      mstore\n      0x20\n      add\n      0x00\n      keccak256\n      0x00\n        /* \"contracts/GeekNft.sol\":1646:1674  tokenToOwner[_tokenId] = _to */\n      0x0100\n      exp\n      dup2\n      sload\n      dup2\n      0xffffffffffffffffffffffffffffffffffffffff\n      mul\n      not\n      and\n      swap1\n      dup4\n      0xffffffffffffffffffffffffffffffffffffffff\n      and\n      mul\n      or\n      swap1\n      sstore\n      pop\n        /* \"contracts/GeekNft.sol\":1711:1719  _tokenId */\n      dup1\n        /* \"contracts/GeekNft.sol\":1706:1709  _to */\n      dup3\n        /* \"contracts/GeekNft.sol\":1690:1720  Transfer(_from, _to, _tokenId) */\n      0xffffffffffffffffffffffffffffffffffffffff\n      and\n        /* \"contracts/GeekNft.sol\":1699:1704  _from */\n      dup5\n        /* \"contracts/GeekNft.sol\":1690:1720  Transfer(_from, _to, _tokenId) */\n      0xffffffffffffffffffffffffffffffffffffffff\n      and\n      0xddf252ad1be2c89b69c2b068fc378daa952ba7f163c4a11628f55a4df523b3ef\n      mload(0x40)\n      mload(0x40)\n      dup1\n      swap2\n      sub\n      swap1\n      log4\n        /* \"contracts/GeekNft.sol\":1302:1727  function transferFrom(address _from, address _to, uint _tokenId) external {... */\n      pop\n      pop\n      pop\n      jump\t// out\n        /* \"contracts/GeekNft.sol\":1982:2377  function walletOfOwner(address _owner) public view returns (uint[] memory) {... */\n    tag_22:\n        /* \"contracts/GeekNft.sol\":2042:2055  uint[] memory */\n      0x60\n        /* \"contracts/GeekNft.sol\":2068:2088  uint[] memory myNfts */\n      0x00\n        /* \"contracts/GeekNft.sol\":2102:2118  tokensOwnerCount */\n      0x04\n        /* \"contracts/GeekNft.sol\":2102:2126  tokensOwnerCount[_owner] */\n      0x00\n        /* \"contracts/GeekNft.sol\":2119:2125  _owner */\n      dup5\n        /* \"contracts/GeekNft.sol\":2102:2126  tokensOwnerCount[_owner] */\n      0xffffffffffffffffffffffffffffffffffffffff\n      and\n      0xffffffffffffffffffffffffffffffffffffffff\n      and\n      dup2\n      mstore\n      0x20\n      add\n      swap1\n      dup2\n      mstore\n      0x20\n      add\n      0x00\n      keccak256\n      sload\n        /* \"contracts/GeekNft.sol\":2091:2127  new uint[](tokensOwnerCount[_owner]) */\n      0xffffffffffffffff\n      dup2\n      gt\n      iszero\n      tag_57\n      jumpi\n      tag_58\n      tag_59\n      jump\t// in\n    tag_58:\n    tag_57:\n      mload(0x40)\n      swap1\n      dup1\n      dup3\n      mstore\n      dup1\n      0x20\n      mul\n      0x20\n      add\n      dup3\n      add\n      0x40\n      mstore\n      dup1\n      iszero\n      tag_60\n      jumpi\n      dup2\n      0x20\n      add\n      0x20\n      dup3\n      mul\n      dup1\n      calldatasize\n      dup4\n      calldatacopy\n      dup1\n      dup3\n      add\n      swap2\n      pop\n      pop\n      swap1\n      pop\n    tag_60:\n      pop\n        /* \"contracts/GeekNft.sol\":2068:2127  uint[] memory myNfts = new uint[](tokensOwnerCount[_owner]) */\n      swap1\n      pop\n        /* \"contracts/GeekNft.sol\":2137:2150  uint nftIndex */\n      0x00\n        /* \"contracts/GeekNft.sol\":2169:2175  uint i */\n      dup1\n        /* \"contracts/GeekNft.sol\":2178:2179  1 */\n      0x01\n        /* \"contracts/GeekNft.sol\":2169:2179  uint i = 1 */\n      swap1\n      pop\n        /* \"contracts/GeekNft.sol\":2164:2347  for (uint i = 1; i <= tokenIds.current(); i++) {... */\n    tag_61:\n        /* \"contracts/GeekNft.sol\":2186:2204  tokenIds.current() */\n      tag_64\n        /* \"contracts/GeekNft.sol\":2186:2194  tokenIds */\n      0x02\n        /* \"contracts/GeekNft.sol\":2186:2202  tokenIds.current */\n      tag_65\n        /* \"contracts/GeekNft.sol\":2186:2204  tokenIds.current() */\n      jump\t// in\n    tag_64:\n        /* \"contracts/GeekNft.sol\":2181:2182  i */\n      dup2\n        /* \"contracts/GeekNft.sol\":2181:2204  i <= tokenIds.current() */\n      gt\n        /* \"contracts/GeekNft.sol\":2164:2347  for (uint i = 1; i <= tokenIds.current(); i++) {... */\n      tag_62\n      jumpi\n        /* \"contracts/GeekNft.sol\":2247:2253  _owner */\n      dup5\n        /* \"contracts/GeekNft.sol\":2228:2253  tokenToOwner[i] == _owner */\n      0xffffffffffffffffffffffffffffffffffffffff\n      and\n        /* \"contracts/GeekNft.sol\":2228:2240  tokenToOwner */\n      0x05\n        /* \"contracts/GeekNft.sol\":2228:2243  tokenToOwner[i] */\n      0x00\n        /* \"contracts/GeekNft.sol\":2241:2242  i */\n      dup4\n        /* \"contracts/GeekNft.sol\":2228:2243  tokenToOwner[i] */\n      dup2\n      mstore\n      0x20\n      add\n      swap1\n      dup2\n      mstore\n      0x20\n      add\n      0x00\n      keccak256\n      0x00\n      swap1\n      sload\n      swap1\n      0x0100\n      exp\n      swap1\n      div\n      0xffffffffffffffffffffffffffffffffffffffff\n      and\n        /* \"contracts/GeekNft.sol\":2228:2253  tokenToOwner[i] == _owner */\n      0xffffffffffffffffffffffffffffffffffffffff\n      and\n      eq\n        /* \"contracts/GeekNft.sol\":2225:2337  if(tokenToOwner[i] == _owner) {... */\n      iszero\n      tag_66\n      jumpi\n        /* \"contracts/GeekNft.sol\":2292:2293  i */\n      dup1\n        /* \"contracts/GeekNft.sol\":2273:2279  myNfts */\n      dup4\n        /* \"contracts/GeekNft.sol\":2280:2288  nftIndex */\n      dup4\n        /* \"contracts/GeekNft.sol\":2273:2289  myNfts[nftIndex] */\n      dup2\n      mload\n      dup2\n      lt\n      tag_67\n      jumpi\n      tag_68\n      tag_69\n      jump\t// in\n    tag_68:\n    tag_67:\n      0x20\n      mul\n      0x20\n      add\n      add\n        /* \"contracts/GeekNft.sol\":2273:2293  myNfts[nftIndex] = i */\n      dup2\n      dup2\n      mstore\n      pop\n      pop\n        /* \"contracts/GeekNft.sol\":2311:2322  nftIndex ++ */\n      dup2\n      dup1\n      tag_70\n      swap1\n      tag_71\n      jump\t// in\n    tag_70:\n      swap3\n      pop\n      pop\n        /* \"contracts/GeekNft.sol\":2225:2337  if(tokenToOwner[i] == _owner) {... */\n    tag_66:\n        /* \"contracts/GeekNft.sol\":2206:2209  i++ */\n      dup1\n      dup1\n      tag_72\n      swap1\n      tag_71\n      jump\t// in\n    tag_72:\n      swap2\n      pop\n      pop\n        /* \"contracts/GeekNft.sol\":2164:2347  for (uint i = 1; i <= tokenIds.current(); i++) {... */\n      jump(tag_61)\n    tag_62:\n      pop\n        /* \"contracts/GeekNft.sol\":2364:2370  myNfts */\n      dup2\n        /* \"contracts/GeekNft.sol\":2357:2370  return myNfts */\n      swap3\n      pop\n      pop\n      pop\n        /* \"contracts/GeekNft.sol\":1982:2377  function walletOfOwner(address _owner) public view returns (uint[] memory) {... */\n      swap2\n      swap1\n      pop\n      jump\t// out\n        /* \"contracts/GeekNft.sol\":1733:1943  function ownerOf(uint256 _tokenId) external view returns (address) {... */\n    tag_28:\n        /* \"contracts/GeekNft.sol\":1791:1798  address */\n      0x00\n        /* \"contracts/GeekNft.sol\":1810:1823  address owner */\n      dup1\n        /* \"contracts/GeekNft.sol\":1826:1838  tokenToOwner */\n      0x05\n        /* \"contracts/GeekNft.sol\":1826:1848  tokenToOwner[_tokenId] */\n      0x00\n        /* \"contracts/GeekNft.sol\":1839:1847  _tokenId */\n      dup5\n        /* \"contracts/GeekNft.sol\":1826:1848  tokenToOwner[_tokenId] */\n      dup2\n      mstore\n      0x20\n      add\n      swap1\n      dup2\n      mstore\n      0x20\n      add\n      0x00\n      keccak256\n      0x00\n      swap1\n      sload\n      swap1\n      0x0100\n      exp\n      swap1\n      div\n      0xffffffffffffffffffffffffffffffffffffffff\n      and\n        /* \"contracts/GeekNft.sol\":1810:1848  address owner = tokenToOwner[_tokenId] */\n      swap1\n      pop\n        /* \"contracts/GeekNft.sol\":1883:1884  0 */\n      0x00\n        /* \"contracts/GeekNft.sol\":1866:1885  owner != address(0) */\n      0xffffffffffffffffffffffffffffffffffffffff\n      and\n        /* \"contracts/GeekNft.sol\":1866:1871  owner */\n      dup2\n        /* \"contracts/GeekNft.sol\":1866:1885  owner != address(0) */\n      0xffffffffffffffffffffffffffffffffffffffff\n      and\n      eq\n      iszero\n        /* \"contracts/GeekNft.sol\":1858:1914  require(owner != address(0), \"ERC721: invalid token ID\") */\n      tag_74\n      jumpi\n      mload(0x40)\n      0x08c379a000000000000000000000000000000000000000000000000000000000\n      dup2\n      mstore\n      0x04\n      add\n      tag_75\n      swap1\n      tag_76\n      jump\t// in\n    tag_75:\n      mload(0x40)\n      dup1\n      swap2\n      sub\n      swap1\n      revert\n    tag_74:\n        /* \"contracts/GeekNft.sol\":1931:1936  owner */\n      dup1\n        /* \"contracts/GeekNft.sol\":1924:1936  return owner */\n      swap2\n      pop\n      pop\n        /* \"contracts/GeekNft.sol\":1733:1943  function ownerOf(uint256 _tokenId) external view returns (address) {... */\n      swap2\n      swap1\n      pop\n      jump\t// out\n        /* \"contracts/GeekNft.sol\":1211:1296  function symbol() public view returns (string memory) {... */\n    tag_32:\n        /* \"contracts/GeekNft.sol\":1250:1263  string memory */\n      0x60\n        /* \"contracts/GeekNft.sol\":1282:1289  _symbol */\n      0x01\n        /* \"contracts/GeekNft.sol\":1275:1289  return _symbol */\n      dup1\n      sload\n      tag_78\n      swap1\n      tag_44\n      jump\t// in\n    tag_78:\n      dup1\n      0x1f\n      add\n      0x20\n      dup1\n      swap2\n      div\n      mul\n      0x20\n      add\n      mload(0x40)\n      swap1\n      dup2\n      add\n      0x40\n      mstore\n      dup1\n      swap3\n      swap2\n      swap1\n      dup2\n      dup2\n      mstore\n      0x20\n      add\n      dup3\n      dup1\n      sload\n      tag_79\n      swap1\n      tag_44\n      jump\t// in\n    tag_79:\n      dup1\n      iszero\n      tag_80\n      jumpi\n      dup1\n      0x1f\n      lt\n      tag_81\n      jumpi\n      0x0100\n      dup1\n      dup4\n      sload\n      div\n      mul\n      dup4\n      mstore\n      swap2\n      0x20\n      add\n      swap2\n      jump(tag_80)\n    tag_81:\n      dup3\n      add\n      swap2\n      swap1\n      0x00\n      mstore\n      keccak256(0x00, 0x20)\n      swap1\n    tag_82:\n      dup2\n      sload\n      dup2\n      mstore\n      swap1\n      0x01\n      add\n      swap1\n      0x20\n      add\n      dup1\n      dup4\n      gt\n      tag_82\n      jumpi\n      dup3\n      swap1\n      sub\n      0x1f\n      and\n      dup3\n      add\n      swap2\n    tag_80:\n      pop\n      pop\n      pop\n      pop\n      pop\n      swap1\n      pop\n        /* \"contracts/GeekNft.sol\":1211:1296  function symbol() public view returns (string memory) {... */\n      swap1\n      jump\t// out\n        /* \"contracts/GeekNft.sol\":461:502  mapping(uint => string) public tokenToUri */\n    tag_36:\n      mstore(0x20, 0x08)\n      dup1\n      0x00\n      mstore\n      keccak256(0x00, 0x40)\n      0x00\n      swap2\n      pop\n      swap1\n      pop\n      dup1\n      sload\n      tag_83\n      swap1\n      tag_44\n      jump\t// in\n    tag_83:\n      dup1\n      0x1f\n      add\n      0x20\n      dup1\n      swap2\n      div\n      mul\n      0x20\n      add\n      mload(0x40)\n      swap1\n      dup2\n      add\n      0x40\n      mstore\n      dup1\n      swap3\n      swap2\n      swap1\n      dup2\n      dup2\n      mstore\n      0x20\n      add\n      dup3\n      dup1\n      sload\n      tag_84\n      swap1\n      tag_44\n      jump\t// in\n    tag_84:\n      dup1\n      iszero\n      tag_85\n      jumpi\n      dup1\n      0x1f\n      lt\n      tag_86\n      jumpi\n      0x0100\n      dup1\n      dup4\n      sload\n      div\n      mul\n      dup4\n      mstore\n      swap2\n      0x20\n      add\n      swap2\n      jump(tag_85)\n    tag_86:\n      dup3\n      add\n      swap2\n      swap1\n      0x00\n      mstore\n      keccak256(0x00, 0x20)\n      swap1\n    tag_87:\n      dup2\n      sload\n      dup2\n      mstore\n      swap1\n      0x01\n      add\n      swap1\n      0x20\n      add\n      dup1\n      dup4\n      gt\n      tag_87\n      jumpi\n      dup3\n      swap1\n      sub\n      0x1f\n      and\n      dup3\n      add\n      swap2\n    tag_85:\n      pop\n      pop\n      pop\n      pop\n      pop\n      dup2\n      jump\t// out\n        /* \"contracts/GeekNft.sol\":848:1113  function mint(string memory _tokenUri) public {... */\n    tag_41:\n        /* \"contracts/GeekNft.sol\":904:924  tokenIds.increment() */\n      tag_89\n        /* \"contracts/GeekNft.sol\":904:912  tokenIds */\n      0x02\n        /* \"contracts/GeekNft.sol\":904:922  tokenIds.increment */\n      tag_90\n        /* \"contracts/GeekNft.sol\":904:924  tokenIds.increment() */\n      jump\t// in\n    tag_89:\n        /* \"contracts/GeekNft.sol\":934:949  uint newTokenId */\n      0x00\n        /* \"contracts/GeekNft.sol\":952:970  tokenIds.current() */\n      tag_91\n        /* \"contracts/GeekNft.sol\":952:960  tokenIds */\n      0x02\n        /* \"contracts/GeekNft.sol\":952:968  tokenIds.current */\n      tag_65\n        /* \"contracts/GeekNft.sol\":952:970  tokenIds.current() */\n      jump\t// in\n    tag_91:\n        /* \"contracts/GeekNft.sol\":934:970  uint newTokenId = tokenIds.current() */\n      swap1\n      pop\n        /* \"contracts/GeekNft.sol\":980:1013  _safeMint(msg.sender, newTokenId) */\n      tag_92\n        /* \"contracts/GeekNft.sol\":990:1000  msg.sender */\n      caller\n        /* \"contracts/GeekNft.sol\":1002:1012  newTokenId */\n      dup3\n        /* \"contracts/GeekNft.sol\":980:989  _safeMint */\n      tag_93\n        /* \"contracts/GeekNft.sol\":980:1013  _safeMint(msg.sender, newTokenId) */\n      jump\t// in\n    tag_92:\n        /* \"contracts/GeekNft.sol\":1023:1058  _setTokenUri(newTokenId, _tokenUri) */\n      tag_94\n        /* \"contracts/GeekNft.sol\":1036:1046  newTokenId */\n      dup2\n        /* \"contracts/GeekNft.sol\":1048:1057  _tokenUri */\n      dup4\n        /* \"contracts/GeekNft.sol\":1023:1035  _setTokenUri */\n      tag_95\n        /* \"contracts/GeekNft.sol\":1023:1058  _setTokenUri(newTokenId, _tokenUri) */\n      jump\t// in\n    tag_94:\n        /* \"contracts/GeekNft.sol\":1083:1093  newTokenId */\n      dup1\n        /* \"contracts/GeekNft.sol\":1073:1106  NftMinted(newTokenId, msg.sender) */\n      0x769eff512f395b679667e0062a0e31dad5d22dbc7e6b87f16c3de7e85e663460\n        /* \"contracts/GeekNft.sol\":1095:1105  msg.sender */\n      caller\n        /* \"contracts/GeekNft.sol\":1073:1106  NftMinted(newTokenId, msg.sender) */\n      mload(0x40)\n      tag_96\n      swap2\n      swap1\n      tag_30\n      jump\t// in\n    tag_96:\n      mload(0x40)\n      dup1\n      swap2\n      sub\n      swap1\n      log2\n        /* \"contracts/GeekNft.sol\":894:1113  {... */\n      pop\n        /* \"contracts/GeekNft.sol\":848:1113  function mint(string memory _tokenUri) public {... */\n      pop\n      jump\t// out\n        /* \"contracts/Counters.sol\":827:939  function current(Counter storage counter) internal view returns (uint256) {... */\n    tag_65:\n        /* \"contracts/Counters.sol\":892:899  uint256 */\n      0x00\n        /* \"contracts/Counters.sol\":918:925  counter */\n      dup2\n        /* \"contracts/Counters.sol\":918:932  counter._value */\n      0x00\n      add\n      sload\n        /* \"contracts/Counters.sol\":911:932  return counter._value */\n      swap1\n      pop\n        /* \"contracts/Counters.sol\":827:939  function current(Counter storage counter) internal view returns (uint256) {... */\n      swap2\n      swap1\n      pop\n      jump\t// out\n        /* \"contracts/Counters.sol\":945:1068  function increment(Counter storage counter) internal {... */\n    tag_90:\n        /* \"contracts/Counters.sol\":1050:1051  1 */\n      0x01\n        /* \"contracts/Counters.sol\":1032:1039  counter */\n      dup2\n        /* \"contracts/Counters.sol\":1032:1046  counter._value */\n      0x00\n      add\n      0x00\n        /* \"contracts/Counters.sol\":1032:1051  counter._value += 1 */\n      dup3\n      dup3\n      sload\n      add\n      swap3\n      pop\n      pop\n      dup2\n      swap1\n      sstore\n      pop\n        /* \"contracts/Counters.sol\":945:1068  function increment(Counter storage counter) internal {... */\n      pop\n      jump\t// out\n        /* \"contracts/GeekNft.sol\":2403:2844  function _safeMint(address _to, uint _tokenId) private{... */\n    tag_93:\n        /* \"contracts/GeekNft.sol\":2511:2512  0 */\n      0x00\n        /* \"contracts/GeekNft.sol\":2475:2513  tokenToCreator[_tokenId] == address(0) */\n      0xffffffffffffffffffffffffffffffffffffffff\n      and\n        /* \"contracts/GeekNft.sol\":2475:2489  tokenToCreator */\n      0x07\n        /* \"contracts/GeekNft.sol\":2475:2499  tokenToCreator[_tokenId] */\n      0x00\n        /* \"contracts/GeekNft.sol\":2490:2498  _tokenId */\n      dup4\n        /* \"contracts/GeekNft.sol\":2475:2499  tokenToCreator[_tokenId] */\n      dup2\n      mstore\n      0x20\n      add\n      swap1\n      dup2\n      mstore\n      0x20\n      add\n      0x00\n      keccak256\n      0x00\n      swap1\n      sload\n      swap1\n      0x0100\n      exp\n      swap1\n      div\n      0xffffffffffffffffffffffffffffffffffffffff\n      and\n        /* \"contracts/GeekNft.sol\":2475:2513  tokenToCreator[_tokenId] == address(0) */\n      0xffffffffffffffffffffffffffffffffffffffff\n      and\n      eq\n        /* \"contracts/GeekNft.sol\":2467:2537  require(tokenToCreator[_tokenId] == address(0), \"token already exist\") */\n      tag_100\n      jumpi\n      mload(0x40)\n      0x08c379a000000000000000000000000000000000000000000000000000000000\n      dup2\n      mstore\n      0x04\n      add\n      tag_101\n      swap1\n      tag_102\n      jump\t// in\n    tag_101:\n      mload(0x40)\n      dup1\n      swap2\n      sub\n      swap1\n      revert\n    tag_100:\n        /* \"contracts/GeekNft.sol\":2570:2571  0 */\n      0x00\n        /* \"contracts/GeekNft.sol\":2555:2572  _to != address(0) */\n      0xffffffffffffffffffffffffffffffffffffffff\n      and\n        /* \"contracts/GeekNft.sol\":2555:2558  _to */\n      dup3\n        /* \"contracts/GeekNft.sol\":2555:2572  _to != address(0) */\n      0xffffffffffffffffffffffffffffffffffffffff\n      and\n      eq\n      iszero\n        /* \"contracts/GeekNft.sol\":2547:2601  require(_to != address(0), \"mint to the zero address\") */\n      tag_103\n      jumpi\n      mload(0x40)\n      0x08c379a000000000000000000000000000000000000000000000000000000000\n      dup2\n      mstore\n      0x04\n      add\n      tag_104\n      swap1\n      tag_105\n      jump\t// in\n    tag_104:\n      mload(0x40)\n      dup1\n      swap2\n      sub\n      swap1\n      revert\n    tag_103:\n        /* \"contracts/GeekNft.sol\":2635:2651  tokensOwnerCount */\n      0x04\n        /* \"contracts/GeekNft.sol\":2635:2656  tokensOwnerCount[_to] */\n      0x00\n        /* \"contracts/GeekNft.sol\":2652:2655  _to */\n      dup4\n        /* \"contracts/GeekNft.sol\":2635:2656  tokensOwnerCount[_to] */\n      0xffffffffffffffffffffffffffffffffffffffff\n      and\n      0xffffffffffffffffffffffffffffffffffffffff\n      and\n      dup2\n      mstore\n      0x20\n      add\n      swap1\n      dup2\n      mstore\n      0x20\n      add\n      0x00\n      keccak256\n      0x00\n        /* \"contracts/GeekNft.sol\":2635:2658  tokensOwnerCount[_to]++ */\n      dup2\n      sload\n      dup1\n      swap3\n      swap2\n      swap1\n      0x01\n      add\n      swap2\n      swap1\n      pop\n      sstore\n      pop\n        /* \"contracts/GeekNft.sol\":2672:2690  tokensCreatorCount */\n      0x06\n        /* \"contracts/GeekNft.sol\":2672:2695  tokensCreatorCount[_to] */\n      0x00\n        /* \"contracts/GeekNft.sol\":2691:2694  _to */\n      dup4\n        /* \"contracts/GeekNft.sol\":2672:2695  tokensCreatorCount[_to] */\n      0xffffffffffffffffffffffffffffffffffffffff\n      and\n      0xffffffffffffffffffffffffffffffffffffffff\n      and\n      dup2\n      mstore\n      0x20\n      add\n      swap1\n      dup2\n      mstore\n      0x20\n      add\n      0x00\n      keccak256\n      0x00\n        /* \"contracts/GeekNft.sol\":2672:2697  tokensCreatorCount[_to]++ */\n      dup2\n      sload\n      dup1\n      swap3\n      swap2\n      swap1\n      0x01\n      add\n      swap2\n      swap1\n      pop\n      sstore\n      pop\n        /* \"contracts/GeekNft.sol\":2743:2746  _to */\n      dup2\n        /* \"contracts/GeekNft.sol\":2718:2730  tokenToOwner */\n      0x05\n        /* \"contracts/GeekNft.sol\":2718:2740  tokenToOwner[_tokenId] */\n      0x00\n        /* \"contracts/GeekNft.sol\":2731:2739  _tokenId */\n      dup4\n        /* \"contracts/GeekNft.sol\":2718:2740  tokenToOwner[_tokenId] */\n      dup2\n      mstore\n      0x20\n      add\n      swap1\n      dup2\n      mstore\n      0x20\n      add\n      0x00\n      keccak256\n      0x00\n        /* \"contracts/GeekNft.sol\":2718:2746  tokenToOwner[_tokenId] = _to */\n      0x0100\n      exp\n      dup2\n      sload\n      dup2\n      0xffffffffffffffffffffffffffffffffffffffff\n      mul\n      not\n      and\n      swap1\n      dup4\n      0xffffffffffffffffffffffffffffffffffffffff\n      and\n      mul\n      or\n      swap1\n      sstore\n      pop\n        /* \"contracts/GeekNft.sol\":2783:2786  _to */\n      dup2\n        /* \"contracts/GeekNft.sol\":2756:2770  tokenToCreator */\n      0x07\n        /* \"contracts/GeekNft.sol\":2756:2780  tokenToCreator[_tokenId] */\n      0x00\n        /* \"contracts/GeekNft.sol\":2771:2779  _tokenId */\n      dup4\n        /* \"contracts/GeekNft.sol\":2756:2780  tokenToCreator[_tokenId] */\n      dup2\n      mstore\n      0x20\n      add\n      swap1\n      dup2\n      mstore\n      0x20\n      add\n      0x00\n      keccak256\n      0x00\n        /* \"contracts/GeekNft.sol\":2756:2786  tokenToCreator[_tokenId] = _to */\n      0x0100\n      exp\n      dup2\n      sload\n      dup2\n      0xffffffffffffffffffffffffffffffffffffffff\n      mul\n      not\n      and\n      swap1\n      dup4\n      0xffffffffffffffffffffffffffffffffffffffff\n      and\n      mul\n      or\n      swap1\n      sstore\n      pop\n        /* \"contracts/GeekNft.sol\":2828:2836  _tokenId */\n      dup1\n        /* \"contracts/GeekNft.sol\":2823:2826  _to */\n      dup3\n        /* \"contracts/GeekNft.sol\":2802:2837  Transfer(address(0), _to, _tokenId) */\n      0xffffffffffffffffffffffffffffffffffffffff\n      and\n        /* \"contracts/GeekNft.sol\":2819:2820  0 */\n      0x00\n        /* \"contracts/GeekNft.sol\":2802:2837  Transfer(address(0), _to, _tokenId) */\n      0xffffffffffffffffffffffffffffffffffffffff\n      and\n      0xddf252ad1be2c89b69c2b068fc378daa952ba7f163c4a11628f55a4df523b3ef\n      mload(0x40)\n      mload(0x40)\n      dup1\n      swap2\n      sub\n      swap1\n      log4\n        /* \"contracts/GeekNft.sol\":2403:2844  function _safeMint(address _to, uint _tokenId) private{... */\n      pop\n      pop\n      jump\t// out\n        /* \"contracts/GeekNft.sol\":2850:3049  function _setTokenUri(uint _tokenId, string memory _tokenUri) private {... */\n    tag_95:\n        /* \"contracts/GeekNft.sol\":2974:2975  0 */\n      0x00\n        /* \"contracts/GeekNft.sol\":2938:2976  tokenToCreator[_tokenId] != address(0) */\n      0xffffffffffffffffffffffffffffffffffffffff\n      and\n        /* \"contracts/GeekNft.sol\":2938:2952  tokenToCreator */\n      0x07\n        /* \"contracts/GeekNft.sol\":2938:2962  tokenToCreator[_tokenId] */\n      0x00\n        /* \"contracts/GeekNft.sol\":2953:2961  _tokenId */\n      dup5\n        /* \"contracts/GeekNft.sol\":2938:2962  tokenToCreator[_tokenId] */\n      dup2\n      mstore\n      0x20\n      add\n      swap1\n      dup2\n      mstore\n      0x20\n      add\n      0x00\n      keccak256\n      0x00\n      swap1\n      sload\n      swap1\n      0x0100\n      exp\n      swap1\n      div\n      0xffffffffffffffffffffffffffffffffffffffff\n      and\n        /* \"contracts/GeekNft.sol\":2938:2976  tokenToCreator[_tokenId] != address(0) */\n      0xffffffffffffffffffffffffffffffffffffffff\n      and\n      eq\n      iszero\n        /* \"contracts/GeekNft.sol\":2930:3000  require(tokenToCreator[_tokenId] != address(0), \"token doesn't exist\") */\n      tag_107\n      jumpi\n      mload(0x40)\n      0x08c379a000000000000000000000000000000000000000000000000000000000\n      dup2\n      mstore\n      0x04\n      add\n      tag_108\n      swap1\n      tag_109\n      jump\t// in\n    tag_108:\n      mload(0x40)\n      dup1\n      swap2\n      sub\n      swap1\n      revert\n    tag_107:\n        /* \"contracts/GeekNft.sol\":3033:3042  _tokenUri */\n      dup1\n        /* \"contracts/GeekNft.sol\":3010:3020  tokenToUri */\n      0x08\n        /* \"contracts/GeekNft.sol\":3010:3030  tokenToUri[_tokenId] */\n      0x00\n        /* \"contracts/GeekNft.sol\":3021:3029  _tokenId */\n      dup5\n        /* \"contracts/GeekNft.sol\":3010:3030  tokenToUri[_tokenId] */\n      dup2\n      mstore\n      0x20\n      add\n      swap1\n      dup2\n      mstore\n      0x20\n      add\n      0x00\n      keccak256\n        /* \"contracts/GeekNft.sol\":3010:3042  tokenToUri[_tokenId] = _tokenUri */\n      swap1\n      dup1\n      mload\n      swap1\n      0x20\n      add\n      swap1\n      tag_110\n      swap3\n      swap2\n      swap1\n      tag_111\n      jump\t// in\n    tag_110:\n      pop\n        /* \"contracts/GeekNft.sol\":2850:3049  function _setTokenUri(uint _tokenId, string memory _tokenUri) private {... */\n      pop\n      pop\n      jump\t// out\n    tag_111:\n      dup3\n      dup1\n      sload\n      tag_112\n      swap1\n      tag_44\n      jump\t// in\n    tag_112:\n      swap1\n      0x00\n      mstore\n      keccak256(0x00, 0x20)\n      swap1\n      0x1f\n      add\n      0x20\n      swap1\n      div\n      dup2\n      add\n      swap3\n      dup3\n      tag_114\n      jumpi\n      0x00\n      dup6\n      sstore\n      jump(tag_113)\n    tag_114:\n      dup3\n      0x1f\n      lt\n      tag_115\n      jumpi\n      dup1\n      mload\n      not(0xff)\n      and\n      dup4\n      dup1\n      add\n      or\n      dup6\n      sstore\n      jump(tag_113)\n    tag_115:\n      dup3\n      dup1\n      add\n      0x01\n      add\n      dup6\n      sstore\n      dup3\n      iszero\n      tag_113\n      jumpi\n      swap2\n      dup3\n      add\n    tag_116:\n      dup3\n      dup2\n      gt\n      iszero\n      tag_117\n      jumpi\n      dup3\n      mload\n      dup3\n      sstore\n      swap2\n      0x20\n      add\n      swap2\n      swap1\n      0x01\n      add\n      swap1\n      jump(tag_116)\n    tag_117:\n    tag_113:\n      pop\n      swap1\n      pop\n      tag_118\n      swap2\n      swap1\n      tag_119\n      jump\t// in\n    tag_118:\n      pop\n      swap1\n      jump\t// out\n    tag_119:\n    tag_120:\n      dup1\n      dup3\n      gt\n      iszero\n      tag_121\n      jumpi\n      0x00\n      dup2\n      0x00\n      swap1\n      sstore\n      pop\n      0x01\n      add\n      jump(tag_120)\n    tag_121:\n      pop\n      swap1\n      jump\t// out\n        /* \"#utility.yul\":7:419   */\n    tag_123:\n        /* \"#utility.yul\":85:90   */\n      0x00\n        /* \"#utility.yul\":110:176   */\n      tag_125\n        /* \"#utility.yul\":126:175   */\n      tag_126\n        /* \"#utility.yul\":168:174   */\n      dup5\n        /* \"#utility.yul\":126:175   */\n      tag_127\n      jump\t// in\n    tag_126:\n        /* \"#utility.yul\":110:176   */\n      tag_128\n      jump\t// in\n    tag_125:\n        /* \"#utility.yul\":101:176   */\n      swap1\n      pop\n        /* \"#utility.yul\":199:205   */\n      dup3\n        /* \"#utility.yul\":192:197   */\n      dup2\n        /* \"#utility.yul\":185:206   */\n      mstore\n        /* \"#utility.yul\":237:241   */\n      0x20\n        /* \"#utility.yul\":230:235   */\n      dup2\n        /* \"#utility.yul\":226:242   */\n      add\n        /* \"#utility.yul\":275:278   */\n      dup5\n        /* \"#utility.yul\":266:272   */\n      dup5\n        /* \"#utility.yul\":261:264   */\n      dup5\n        /* \"#utility.yul\":257:273   */\n      add\n        /* \"#utility.yul\":254:279   */\n      gt\n        /* \"#utility.yul\":251:363   */\n      iszero\n      tag_129\n      jumpi\n        /* \"#utility.yul\":282:361   */\n      tag_130\n      tag_131\n      jump\t// in\n    tag_130:\n        /* \"#utility.yul\":251:363   */\n    tag_129:\n        /* \"#utility.yul\":372:413   */\n      tag_132\n        /* \"#utility.yul\":406:412   */\n      dup5\n        /* \"#utility.yul\":401:404   */\n      dup3\n        /* \"#utility.yul\":396:399   */\n      dup6\n        /* \"#utility.yul\":372:413   */\n      tag_133\n      jump\t// in\n    tag_132:\n        /* \"#utility.yul\":91:419   */\n      pop\n        /* \"#utility.yul\":7:419   */\n      swap4\n      swap3\n      pop\n      pop\n      pop\n      jump\t// out\n        /* \"#utility.yul\":425:564   */\n    tag_134:\n        /* \"#utility.yul\":471:476   */\n      0x00\n        /* \"#utility.yul\":509:515   */\n      dup2\n        /* \"#utility.yul\":496:516   */\n      calldataload\n        /* \"#utility.yul\":487:516   */\n      swap1\n      pop\n        /* \"#utility.yul\":525:558   */\n      tag_136\n        /* \"#utility.yul\":552:557   */\n      dup2\n        /* \"#utility.yul\":525:558   */\n      tag_137\n      jump\t// in\n    tag_136:\n        /* \"#utility.yul\":425:564   */\n      swap3\n      swap2\n      pop\n      pop\n      jump\t// out\n        /* \"#utility.yul\":584:924   */\n    tag_138:\n        /* \"#utility.yul\":640:645   */\n      0x00\n        /* \"#utility.yul\":689:692   */\n      dup3\n        /* \"#utility.yul\":682:686   */\n      0x1f\n        /* \"#utility.yul\":674:680   */\n      dup4\n        /* \"#utility.yul\":670:687   */\n      add\n        /* \"#utility.yul\":666:693   */\n      slt\n        /* \"#utility.yul\":656:778   */\n      tag_140\n      jumpi\n        /* \"#utility.yul\":697:776   */\n      tag_141\n      tag_142\n      jump\t// in\n    tag_141:\n        /* \"#utility.yul\":656:778   */\n    tag_140:\n        /* \"#utility.yul\":814:820   */\n      dup2\n        /* \"#utility.yul\":801:821   */\n      calldataload\n        /* \"#utility.yul\":839:918   */\n      tag_143\n        /* \"#utility.yul\":914:917   */\n      dup5\n        /* \"#utility.yul\":906:912   */\n      dup3\n        /* \"#utility.yul\":899:903   */\n      0x20\n        /* \"#utility.yul\":891:897   */\n      dup7\n        /* \"#utility.yul\":887:904   */\n      add\n        /* \"#utility.yul\":839:918   */\n      tag_123\n      jump\t// in\n    tag_143:\n        /* \"#utility.yul\":830:918   */\n      swap2\n      pop\n        /* \"#utility.yul\":646:924   */\n      pop\n        /* \"#utility.yul\":584:924   */\n      swap3\n      swap2\n      pop\n      pop\n      jump\t// out\n        /* \"#utility.yul\":930:1069   */\n    tag_144:\n        /* \"#utility.yul\":976:981   */\n      0x00\n        /* \"#utility.yul\":1014:1020   */\n      dup2\n        /* \"#utility.yul\":1001:1021   */\n      calldataload\n        /* \"#utility.yul\":992:1021   */\n      swap1\n      pop\n        /* \"#utility.yul\":1030:1063   */\n      tag_146\n        /* \"#utility.yul\":1057:1062   */\n      dup2\n        /* \"#utility.yul\":1030:1063   */\n      tag_147\n      jump\t// in\n    tag_146:\n        /* \"#utility.yul\":930:1069   */\n      swap3\n      swap2\n      pop\n      pop\n      jump\t// out\n        /* \"#utility.yul\":1075:1404   */\n    tag_21:\n        /* \"#utility.yul\":1134:1140   */\n      0x00\n        /* \"#utility.yul\":1183:1185   */\n      0x20\n        /* \"#utility.yul\":1171:1180   */\n      dup3\n        /* \"#utility.yul\":1162:1169   */\n      dup5\n        /* \"#utility.yul\":1158:1181   */\n      sub\n        /* \"#utility.yul\":1154:1186   */\n      slt\n        /* \"#utility.yul\":1151:1270   */\n      iszero\n      tag_149\n      jumpi\n        /* \"#utility.yul\":1189:1268   */\n      tag_150\n      tag_151\n      jump\t// in\n    tag_150:\n        /* \"#utility.yul\":1151:1270   */\n    tag_149:\n        /* \"#utility.yul\":1309:1310   */\n      0x00\n        /* \"#utility.yul\":1334:1387   */\n      tag_152\n        /* \"#utility.yul\":1379:1386   */\n      dup5\n        /* \"#utility.yul\":1370:1376   */\n      dup3\n        /* \"#utility.yul\":1359:1368   */\n      dup6\n        /* \"#utility.yul\":1355:1377   */\n      add\n        /* \"#utility.yul\":1334:1387   */\n      tag_134\n      jump\t// in\n    tag_152:\n        /* \"#utility.yul\":1324:1387   */\n      swap2\n      pop\n        /* \"#utility.yul\":1280:1397   */\n      pop\n        /* \"#utility.yul\":1075:1404   */\n      swap3\n      swap2\n      pop\n      pop\n      jump\t// out\n        /* \"#utility.yul\":1410:2029   */\n    tag_17:\n        /* \"#utility.yul\":1487:1493   */\n      0x00\n        /* \"#utility.yul\":1495:1501   */\n      dup1\n        /* \"#utility.yul\":1503:1509   */\n      0x00\n        /* \"#utility.yul\":1552:1554   */\n      0x60\n        /* \"#utility.yul\":1540:1549   */\n      dup5\n        /* \"#utility.yul\":1531:1538   */\n      dup7\n        /* \"#utility.yul\":1527:1550   */\n      sub\n        /* \"#utility.yul\":1523:1555   */\n      slt\n        /* \"#utility.yul\":1520:1639   */\n      iszero\n      tag_154\n      jumpi\n        /* \"#utility.yul\":1558:1637   */\n      tag_155\n      tag_151\n      jump\t// in\n    tag_155:\n        /* \"#utility.yul\":1520:1639   */\n    tag_154:\n        /* \"#utility.yul\":1678:1679   */\n      0x00\n        /* \"#utility.yul\":1703:1756   */\n      tag_156\n        /* \"#utility.yul\":1748:1755   */\n      dup7\n        /* \"#utility.yul\":1739:1745   */\n      dup3\n        /* \"#utility.yul\":1728:1737   */\n      dup8\n        /* \"#utility.yul\":1724:1746   */\n      add\n        /* \"#utility.yul\":1703:1756   */\n      tag_134\n      jump\t// in\n    tag_156:\n        /* \"#utility.yul\":1693:1756   */\n      swap4\n      pop\n        /* \"#utility.yul\":1649:1766   */\n      pop\n        /* \"#utility.yul\":1805:1807   */\n      0x20\n        /* \"#utility.yul\":1831:1884   */\n      tag_157\n        /* \"#utility.yul\":1876:1883   */\n      dup7\n        /* \"#utility.yul\":1867:1873   */\n      dup3\n        /* \"#utility.yul\":1856:1865   */\n      dup8\n        /* \"#utility.yul\":1852:1874   */\n      add\n        /* \"#utility.yul\":1831:1884   */\n      tag_134\n      jump\t// in\n    tag_157:\n        /* \"#utility.yul\":1821:1884   */\n      swap3\n      pop\n        /* \"#utility.yul\":1776:1894   */\n      pop\n        /* \"#utility.yul\":1933:1935   */\n      0x40\n        /* \"#utility.yul\":1959:2012   */\n      tag_158\n        /* \"#utility.yul\":2004:2011   */\n      dup7\n        /* \"#utility.yul\":1995:2001   */\n      dup3\n        /* \"#utility.yul\":1984:1993   */\n      dup8\n        /* \"#utility.yul\":1980:2002   */\n      add\n        /* \"#utility.yul\":1959:2012   */\n      tag_144\n      jump\t// in\n    tag_158:\n        /* \"#utility.yul\":1949:2012   */\n      swap2\n      pop\n        /* \"#utility.yul\":1904:2022   */\n      pop\n        /* \"#utility.yul\":1410:2029   */\n      swap3\n      pop\n      swap3\n      pop\n      swap3\n      jump\t// out\n        /* \"#utility.yul\":2035:2544   */\n    tag_40:\n        /* \"#utility.yul\":2104:2110   */\n      0x00\n        /* \"#utility.yul\":2153:2155   */\n      0x20\n        /* \"#utility.yul\":2141:2150   */\n      dup3\n        /* \"#utility.yul\":2132:2139   */\n      dup5\n        /* \"#utility.yul\":2128:2151   */\n      sub\n        /* \"#utility.yul\":2124:2156   */\n      slt\n        /* \"#utility.yul\":2121:2240   */\n      iszero\n      tag_160\n      jumpi\n        /* \"#utility.yul\":2159:2238   */\n      tag_161\n      tag_151\n      jump\t// in\n    tag_161:\n        /* \"#utility.yul\":2121:2240   */\n    tag_160:\n        /* \"#utility.yul\":2307:2308   */\n      0x00\n        /* \"#utility.yul\":2296:2305   */\n      dup3\n        /* \"#utility.yul\":2292:2309   */\n      add\n        /* \"#utility.yul\":2279:2310   */\n      calldataload\n        /* \"#utility.yul\":2337:2355   */\n      0xffffffffffffffff\n        /* \"#utility.yul\":2329:2335   */\n      dup2\n        /* \"#utility.yul\":2326:2356   */\n      gt\n        /* \"#utility.yul\":2323:2440   */\n      iszero\n      tag_162\n      jumpi\n        /* \"#utility.yul\":2359:2438   */\n      tag_163\n      tag_164\n      jump\t// in\n    tag_163:\n        /* \"#utility.yul\":2323:2440   */\n    tag_162:\n        /* \"#utility.yul\":2464:2527   */\n      tag_165\n        /* \"#utility.yul\":2519:2526   */\n      dup5\n        /* \"#utility.yul\":2510:2516   */\n      dup3\n        /* \"#utility.yul\":2499:2508   */\n      dup6\n        /* \"#utility.yul\":2495:2517   */\n      add\n        /* \"#utility.yul\":2464:2527   */\n      tag_138\n      jump\t// in\n    tag_165:\n        /* \"#utility.yul\":2454:2527   */\n      swap2\n      pop\n        /* \"#utility.yul\":2250:2537   */\n      pop\n        /* \"#utility.yul\":2035:2544   */\n      swap3\n      swap2\n      pop\n      pop\n      jump\t// out\n        /* \"#utility.yul\":2550:2879   */\n    tag_27:\n        /* \"#utility.yul\":2609:2615   */\n      0x00\n        /* \"#utility.yul\":2658:2660   */\n      0x20\n        /* \"#utility.yul\":2646:2655   */\n      dup3\n        /* \"#utility.yul\":2637:2644   */\n      dup5\n        /* \"#utility.yul\":2633:2656   */\n      sub\n        /* \"#utility.yul\":2629:2661   */\n      slt\n        /* \"#utility.yul\":2626:2745   */\n      iszero\n      tag_167\n      jumpi\n        /* \"#utility.yul\":2664:2743   */\n      tag_168\n      tag_151\n      jump\t// in\n    tag_168:\n        /* \"#utility.yul\":2626:2745   */\n    tag_167:\n        /* \"#utility.yul\":2784:2785   */\n      0x00\n        /* \"#utility.yul\":2809:2862   */\n      tag_169\n        /* \"#utility.yul\":2854:2861   */\n      dup5\n        /* \"#utility.yul\":2845:2851   */\n      dup3\n        /* \"#utility.yul\":2834:2843   */\n      dup6\n        /* \"#utility.yul\":2830:2852   */\n      add\n        /* \"#utility.yul\":2809:2862   */\n      tag_144\n      jump\t// in\n    tag_169:\n        /* \"#utility.yul\":2799:2862   */\n      swap2\n      pop\n        /* \"#utility.yul\":2755:2872   */\n      pop\n        /* \"#utility.yul\":2550:2879   */\n      swap3\n      swap2\n      pop\n      pop\n      jump\t// out\n        /* \"#utility.yul\":2885:3064   */\n    tag_170:\n        /* \"#utility.yul\":2954:2964   */\n      0x00\n        /* \"#utility.yul\":2975:3021   */\n      tag_172\n        /* \"#utility.yul\":3017:3020   */\n      dup4\n        /* \"#utility.yul\":3009:3015   */\n      dup4\n        /* \"#utility.yul\":2975:3021   */\n      tag_173\n      jump\t// in\n    tag_172:\n        /* \"#utility.yul\":3053:3057   */\n      0x20\n        /* \"#utility.yul\":3048:3051   */\n      dup4\n        /* \"#utility.yul\":3044:3058   */\n      add\n        /* \"#utility.yul\":3030:3058   */\n      swap1\n      pop\n        /* \"#utility.yul\":2885:3064   */\n      swap3\n      swap2\n      pop\n      pop\n      jump\t// out\n        /* \"#utility.yul\":3070:3188   */\n    tag_174:\n        /* \"#utility.yul\":3157:3181   */\n      tag_176\n        /* \"#utility.yul\":3175:3180   */\n      dup2\n        /* \"#utility.yul\":3157:3181   */\n      tag_177\n      jump\t// in\n    tag_176:\n        /* \"#utility.yul\":3152:3155   */\n      dup3\n        /* \"#utility.yul\":3145:3182   */\n      mstore\n        /* \"#utility.yul\":3070:3188   */\n      pop\n      pop\n      jump\t// out\n        /* \"#utility.yul\":3224:3956   */\n    tag_178:\n        /* \"#utility.yul\":3343:3346   */\n      0x00\n        /* \"#utility.yul\":3372:3426   */\n      tag_180\n        /* \"#utility.yul\":3420:3425   */\n      dup3\n        /* \"#utility.yul\":3372:3426   */\n      tag_181\n      jump\t// in\n    tag_180:\n        /* \"#utility.yul\":3442:3528   */\n      tag_182\n        /* \"#utility.yul\":3521:3527   */\n      dup2\n        /* \"#utility.yul\":3516:3519   */\n      dup6\n        /* \"#utility.yul\":3442:3528   */\n      tag_183\n      jump\t// in\n    tag_182:\n        /* \"#utility.yul\":3435:3528   */\n      swap4\n      pop\n        /* \"#utility.yul\":3552:3608   */\n      tag_184\n        /* \"#utility.yul\":3602:3607   */\n      dup4\n        /* \"#utility.yul\":3552:3608   */\n      tag_185\n      jump\t// in\n    tag_184:\n        /* \"#utility.yul\":3631:3638   */\n      dup1\n        /* \"#utility.yul\":3662:3663   */\n      0x00\n        /* \"#utility.yul\":3647:3931   */\n    tag_186:\n        /* \"#utility.yul\":3672:3678   */\n      dup4\n        /* \"#utility.yul\":3669:3670   */\n      dup2\n        /* \"#utility.yul\":3666:3679   */\n      lt\n        /* \"#utility.yul\":3647:3931   */\n      iszero\n      tag_188\n      jumpi\n        /* \"#utility.yul\":3748:3754   */\n      dup2\n        /* \"#utility.yul\":3742:3755   */\n      mload\n        /* \"#utility.yul\":3775:3838   */\n      tag_189\n        /* \"#utility.yul\":3834:3837   */\n      dup9\n        /* \"#utility.yul\":3819:3832   */\n      dup3\n        /* \"#utility.yul\":3775:3838   */\n      tag_170\n      jump\t// in\n    tag_189:\n        /* \"#utility.yul\":3768:3838   */\n      swap8\n      pop\n        /* \"#utility.yul\":3861:3921   */\n      tag_190\n        /* \"#utility.yul\":3914:3920   */\n      dup4\n        /* \"#utility.yul\":3861:3921   */\n      tag_191\n      jump\t// in\n    tag_190:\n        /* \"#utility.yul\":3851:3921   */\n      swap3\n      pop\n        /* \"#utility.yul\":3707:3931   */\n      pop\n        /* \"#utility.yul\":3694:3695   */\n      0x01\n        /* \"#utility.yul\":3691:3692   */\n      dup2\n        /* \"#utility.yul\":3687:3696   */\n      add\n        /* \"#utility.yul\":3682:3696   */\n      swap1\n      pop\n        /* \"#utility.yul\":3647:3931   */\n      jump(tag_186)\n    tag_188:\n        /* \"#utility.yul\":3651:3665   */\n      pop\n        /* \"#utility.yul\":3947:3950   */\n      dup6\n        /* \"#utility.yul\":3940:3950   */\n      swap4\n      pop\n        /* \"#utility.yul\":3348:3956   */\n      pop\n      pop\n      pop\n        /* \"#utility.yul\":3224:3956   */\n      swap3\n      swap2\n      pop\n      pop\n      jump\t// out\n        /* \"#utility.yul\":3962:4326   */\n    tag_192:\n        /* \"#utility.yul\":4050:4053   */\n      0x00\n        /* \"#utility.yul\":4078:4117   */\n      tag_194\n        /* \"#utility.yul\":4111:4116   */\n      dup3\n        /* \"#utility.yul\":4078:4117   */\n      tag_195\n      jump\t// in\n    tag_194:\n        /* \"#utility.yul\":4133:4204   */\n      tag_196\n        /* \"#utility.yul\":4197:4203   */\n      dup2\n        /* \"#utility.yul\":4192:4195   */\n      dup6\n        /* \"#utility.yul\":4133:4204   */\n      tag_197\n      jump\t// in\n    tag_196:\n        /* \"#utility.yul\":4126:4204   */\n      swap4\n      pop\n        /* \"#utility.yul\":4213:4265   */\n      tag_198\n        /* \"#utility.yul\":4258:4264   */\n      dup2\n        /* \"#utility.yul\":4253:4256   */\n      dup6\n        /* \"#utility.yul\":4246:4250   */\n      0x20\n        /* \"#utility.yul\":4239:4244   */\n      dup7\n        /* \"#utility.yul\":4235:4251   */\n      add\n        /* \"#utility.yul\":4213:4265   */\n      tag_199\n      jump\t// in\n    tag_198:\n        /* \"#utility.yul\":4290:4319   */\n      tag_200\n        /* \"#utility.yul\":4312:4318   */\n      dup2\n        /* \"#utility.yul\":4290:4319   */\n      tag_201\n      jump\t// in\n    tag_200:\n        /* \"#utility.yul\":4285:4288   */\n      dup5\n        /* \"#utility.yul\":4281:4320   */\n      add\n        /* \"#utility.yul\":4274:4320   */\n      swap2\n      pop\n        /* \"#utility.yul\":4054:4326   */\n      pop\n        /* \"#utility.yul\":3962:4326   */\n      swap3\n      swap2\n      pop\n      pop\n      jump\t// out\n        /* \"#utility.yul\":4332:4698   */\n    tag_202:\n        /* \"#utility.yul\":4474:4477   */\n      0x00\n        /* \"#utility.yul\":4495:4562   */\n      tag_204\n        /* \"#utility.yul\":4559:4561   */\n      0x24\n        /* \"#utility.yul\":4554:4557   */\n      dup4\n        /* \"#utility.yul\":4495:4562   */\n      tag_197\n      jump\t// in\n    tag_204:\n        /* \"#utility.yul\":4488:4562   */\n      swap2\n      pop\n        /* \"#utility.yul\":4571:4664   */\n      tag_205\n        /* \"#utility.yul\":4660:4663   */\n      dup3\n        /* \"#utility.yul\":4571:4664   */\n      tag_206\n      jump\t// in\n    tag_205:\n        /* \"#utility.yul\":4689:4691   */\n      0x40\n        /* \"#utility.yul\":4684:4687   */\n      dup3\n        /* \"#utility.yul\":4680:4692   */\n      add\n        /* \"#utility.yul\":4673:4692   */\n      swap1\n      pop\n        /* \"#utility.yul\":4332:4698   */\n      swap2\n      swap1\n      pop\n      jump\t// out\n        /* \"#utility.yul\":4704:5070   */\n    tag_207:\n        /* \"#utility.yul\":4846:4849   */\n      0x00\n        /* \"#utility.yul\":4867:4934   */\n      tag_209\n        /* \"#utility.yul\":4931:4933   */\n      0x13\n        /* \"#utility.yul\":4926:4929   */\n      dup4\n        /* \"#utility.yul\":4867:4934   */\n      tag_197\n      jump\t// in\n    tag_209:\n        /* \"#utility.yul\":4860:4934   */\n      swap2\n      pop\n        /* \"#utility.yul\":4943:5036   */\n      tag_210\n        /* \"#utility.yul\":5032:5035   */\n      dup3\n        /* \"#utility.yul\":4943:5036   */\n      tag_211\n      jump\t// in\n    tag_210:\n        /* \"#utility.yul\":5061:5063   */\n      0x20\n        /* \"#utility.yul\":5056:5059   */\n      dup3\n        /* \"#utility.yul\":5052:5064   */\n      add\n        /* \"#utility.yul\":5045:5064   */\n      swap1\n      pop\n        /* \"#utility.yul\":4704:5070   */\n      swap2\n      swap1\n      pop\n      jump\t// out\n        /* \"#utility.yul\":5076:5442   */\n    tag_212:\n        /* \"#utility.yul\":5218:5221   */\n      0x00\n        /* \"#utility.yul\":5239:5306   */\n      tag_214\n        /* \"#utility.yul\":5303:5305   */\n      0x13\n        /* \"#utility.yul\":5298:5301   */\n      dup4\n        /* \"#utility.yul\":5239:5306   */\n      tag_197\n      jump\t// in\n    tag_214:\n        /* \"#utility.yul\":5232:5306   */\n      swap2\n      pop\n        /* \"#utility.yul\":5315:5408   */\n      tag_215\n        /* \"#utility.yul\":5404:5407   */\n      dup3\n        /* \"#utility.yul\":5315:5408   */\n      tag_216\n      jump\t// in\n    tag_215:\n        /* \"#utility.yul\":5433:5435   */\n      0x20\n        /* \"#utility.yul\":5428:5431   */\n      dup3\n        /* \"#utility.yul\":5424:5436   */\n      add\n        /* \"#utility.yul\":5417:5436   */\n      swap1\n      pop\n        /* \"#utility.yul\":5076:5442   */\n      swap2\n      swap1\n      pop\n      jump\t// out\n        /* \"#utility.yul\":5448:5814   */\n    tag_217:\n        /* \"#utility.yul\":5590:5593   */\n      0x00\n        /* \"#utility.yul\":5611:5678   */\n      tag_219\n        /* \"#utility.yul\":5675:5677   */\n      0x17\n        /* \"#utility.yul\":5670:5673   */\n      dup4\n        /* \"#utility.yul\":5611:5678   */\n      tag_197\n      jump\t// in\n    tag_219:\n        /* \"#utility.yul\":5604:5678   */\n      swap2\n      pop\n        /* \"#utility.yul\":5687:5780   */\n      tag_220\n        /* \"#utility.yul\":5776:5779   */\n      dup3\n        /* \"#utility.yul\":5687:5780   */\n      tag_221\n      jump\t// in\n    tag_220:\n        /* \"#utility.yul\":5805:5807   */\n      0x20\n        /* \"#utility.yul\":5800:5803   */\n      dup3\n        /* \"#utility.yul\":5796:5808   */\n      add\n        /* \"#utility.yul\":5789:5808   */\n      swap1\n      pop\n        /* \"#utility.yul\":5448:5814   */\n      swap2\n      swap1\n      pop\n      jump\t// out\n        /* \"#utility.yul\":5820:6186   */\n    tag_222:\n        /* \"#utility.yul\":5962:5965   */\n      0x00\n        /* \"#utility.yul\":5983:6050   */\n      tag_224\n        /* \"#utility.yul\":6047:6049   */\n      0x18\n        /* \"#utility.yul\":6042:6045   */\n      dup4\n        /* \"#utility.yul\":5983:6050   */\n      tag_197\n      jump\t// in\n    tag_224:\n        /* \"#utility.yul\":5976:6050   */\n      swap2\n      pop\n        /* \"#utility.yul\":6059:6152   */\n      tag_225\n        /* \"#utility.yul\":6148:6151   */\n      dup3\n        /* \"#utility.yul\":6059:6152   */\n      tag_226\n      jump\t// in\n    tag_225:\n        /* \"#utility.yul\":6177:6179   */\n      0x20\n        /* \"#utility.yul\":6172:6175   */\n      dup3\n        /* \"#utility.yul\":6168:6180   */\n      add\n        /* \"#utility.yul\":6161:6180   */\n      swap1\n      pop\n        /* \"#utility.yul\":5820:6186   */\n      swap2\n      swap1\n      pop\n      jump\t// out\n        /* \"#utility.yul\":6192:6558   */\n    tag_227:\n        /* \"#utility.yul\":6334:6337   */\n      0x00\n        /* \"#utility.yul\":6355:6422   */\n      tag_229\n        /* \"#utility.yul\":6419:6421   */\n      0x18\n        /* \"#utility.yul\":6414:6417   */\n      dup4\n        /* \"#utility.yul\":6355:6422   */\n      tag_197\n      jump\t// in\n    tag_229:\n        /* \"#utility.yul\":6348:6422   */\n      swap2\n      pop\n        /* \"#utility.yul\":6431:6524   */\n      tag_230\n        /* \"#utility.yul\":6520:6523   */\n      dup3\n        /* \"#utility.yul\":6431:6524   */\n      tag_231\n      jump\t// in\n    tag_230:\n        /* \"#utility.yul\":6549:6551   */\n      0x20\n        /* \"#utility.yul\":6544:6547   */\n      dup3\n        /* \"#utility.yul\":6540:6552   */\n      add\n        /* \"#utility.yul\":6533:6552   */\n      swap1\n      pop\n        /* \"#utility.yul\":6192:6558   */\n      swap2\n      swap1\n      pop\n      jump\t// out\n        /* \"#utility.yul\":6564:6672   */\n    tag_173:\n        /* \"#utility.yul\":6641:6665   */\n      tag_233\n        /* \"#utility.yul\":6659:6664   */\n      dup2\n        /* \"#utility.yul\":6641:6665   */\n      tag_234\n      jump\t// in\n    tag_233:\n        /* \"#utility.yul\":6636:6639   */\n      dup3\n        /* \"#utility.yul\":6629:6666   */\n      mstore\n        /* \"#utility.yul\":6564:6672   */\n      pop\n      pop\n      jump\t// out\n        /* \"#utility.yul\":6678:6900   */\n    tag_30:\n        /* \"#utility.yul\":6771:6775   */\n      0x00\n        /* \"#utility.yul\":6809:6811   */\n      0x20\n        /* \"#utility.yul\":6798:6807   */\n      dup3\n        /* \"#utility.yul\":6794:6812   */\n      add\n        /* \"#utility.yul\":6786:6812   */\n      swap1\n      pop\n        /* \"#utility.yul\":6822:6893   */\n      tag_236\n        /* \"#utility.yul\":6890:6891   */\n      0x00\n        /* \"#utility.yul\":6879:6888   */\n      dup4\n        /* \"#utility.yul\":6875:6892   */\n      add\n        /* \"#utility.yul\":6866:6872   */\n      dup5\n        /* \"#utility.yul\":6822:6893   */\n      tag_174\n      jump\t// in\n    tag_236:\n        /* \"#utility.yul\":6678:6900   */\n      swap3\n      swap2\n      pop\n      pop\n      jump\t// out\n        /* \"#utility.yul\":6906:7279   */\n    tag_24:\n        /* \"#utility.yul\":7049:7053   */\n      0x00\n        /* \"#utility.yul\":7087:7089   */\n      0x20\n        /* \"#utility.yul\":7076:7085   */\n      dup3\n        /* \"#utility.yul\":7072:7090   */\n      add\n        /* \"#utility.yul\":7064:7090   */\n      swap1\n      pop\n        /* \"#utility.yul\":7136:7145   */\n      dup2\n        /* \"#utility.yul\":7130:7134   */\n      dup2\n        /* \"#utility.yul\":7126:7146   */\n      sub\n        /* \"#utility.yul\":7122:7123   */\n      0x00\n        /* \"#utility.yul\":7111:7120   */\n      dup4\n        /* \"#utility.yul\":7107:7124   */\n      add\n        /* \"#utility.yul\":7100:7147   */\n      mstore\n        /* \"#utility.yul\":7164:7272   */\n      tag_238\n        /* \"#utility.yul\":7267:7271   */\n      dup2\n        /* \"#utility.yul\":7258:7264   */\n      dup5\n        /* \"#utility.yul\":7164:7272   */\n      tag_178\n      jump\t// in\n    tag_238:\n        /* \"#utility.yul\":7156:7272   */\n      swap1\n      pop\n        /* \"#utility.yul\":6906:7279   */\n      swap3\n      swap2\n      pop\n      pop\n      jump\t// out\n        /* \"#utility.yul\":7285:7598   */\n    tag_14:\n        /* \"#utility.yul\":7398:7402   */\n      0x00\n        /* \"#utility.yul\":7436:7438   */\n      0x20\n        /* \"#utility.yul\":7425:7434   */\n      dup3\n        /* \"#utility.yul\":7421:7439   */\n      add\n        /* \"#utility.yul\":7413:7439   */\n      swap1\n      pop\n        /* \"#utility.yul\":7485:7494   */\n      dup2\n        /* \"#utility.yul\":7479:7483   */\n      dup2\n        /* \"#utility.yul\":7475:7495   */\n      sub\n        /* \"#utility.yul\":7471:7472   */\n      0x00\n        /* \"#utility.yul\":7460:7469   */\n      dup4\n        /* \"#utility.yul\":7456:7473   */\n      add\n        /* \"#utility.yul\":7449:7496   */\n      mstore\n        /* \"#utility.yul\":7513:7591   */\n      tag_240\n        /* \"#utility.yul\":7586:7590   */\n      dup2\n        /* \"#utility.yul\":7577:7583   */\n      dup5\n        /* \"#utility.yul\":7513:7591   */\n      tag_192\n      jump\t// in\n    tag_240:\n        /* \"#utility.yul\":7505:7591   */\n      swap1\n      pop\n        /* \"#utility.yul\":7285:7598   */\n      swap3\n      swap2\n      pop\n      pop\n      jump\t// out\n        /* \"#utility.yul\":7604:8023   */\n    tag_55:\n        /* \"#utility.yul\":7770:7774   */\n      0x00\n        /* \"#utility.yul\":7808:7810   */\n      0x20\n        /* \"#utility.yul\":7797:7806   */\n      dup3\n        /* \"#utility.yul\":7793:7811   */\n      add\n        /* \"#utility.yul\":7785:7811   */\n      swap1\n      pop\n        /* \"#utility.yul\":7857:7866   */\n      dup2\n        /* \"#utility.yul\":7851:7855   */\n      dup2\n        /* \"#utility.yul\":7847:7867   */\n      sub\n        /* \"#utility.yul\":7843:7844   */\n      0x00\n        /* \"#utility.yul\":7832:7841   */\n      dup4\n        /* \"#utility.yul\":7828:7845   */\n      add\n        /* \"#utility.yul\":7821:7868   */\n      mstore\n        /* \"#utility.yul\":7885:8016   */\n      tag_242\n        /* \"#utility.yul\":8011:8015   */\n      dup2\n        /* \"#utility.yul\":7885:8016   */\n      tag_202\n      jump\t// in\n    tag_242:\n        /* \"#utility.yul\":7877:8016   */\n      swap1\n      pop\n        /* \"#utility.yul\":7604:8023   */\n      swap2\n      swap1\n      pop\n      jump\t// out\n        /* \"#utility.yul\":8029:8448   */\n    tag_102:\n        /* \"#utility.yul\":8195:8199   */\n      0x00\n        /* \"#utility.yul\":8233:8235   */\n      0x20\n        /* \"#utility.yul\":8222:8231   */\n      dup3\n        /* \"#utility.yul\":8218:8236   */\n      add\n        /* \"#utility.yul\":8210:8236   */\n      swap1\n      pop\n        /* \"#utility.yul\":8282:8291   */\n      dup2\n        /* \"#utility.yul\":8276:8280   */\n      dup2\n        /* \"#utility.yul\":8272:8292   */\n      sub\n        /* \"#utility.yul\":8268:8269   */\n      0x00\n        /* \"#utility.yul\":8257:8266   */\n      dup4\n        /* \"#utility.yul\":8253:8270   */\n      add\n        /* \"#utility.yul\":8246:8293   */\n      mstore\n        /* \"#utility.yul\":8310:8441   */\n      tag_244\n        /* \"#utility.yul\":8436:8440   */\n      dup2\n        /* \"#utility.yul\":8310:8441   */\n      tag_207\n      jump\t// in\n    tag_244:\n        /* \"#utility.yul\":8302:8441   */\n      swap1\n      pop\n        /* \"#utility.yul\":8029:8448   */\n      swap2\n      swap1\n      pop\n      jump\t// out\n        /* \"#utility.yul\":8454:8873   */\n    tag_109:\n        /* \"#utility.yul\":8620:8624   */\n      0x00\n        /* \"#utility.yul\":8658:8660   */\n      0x20\n        /* \"#utility.yul\":8647:8656   */\n      dup3\n        /* \"#utility.yul\":8643:8661   */\n      add\n        /* \"#utility.yul\":8635:8661   */\n      swap1\n      pop\n        /* \"#utility.yul\":8707:8716   */\n      dup2\n        /* \"#utility.yul\":8701:8705   */\n      dup2\n        /* \"#utility.yul\":8697:8717   */\n      sub\n        /* \"#utility.yul\":8693:8694   */\n      0x00\n        /* \"#utility.yul\":8682:8691   */\n      dup4\n        /* \"#utility.yul\":8678:8695   */\n      add\n        /* \"#utility.yul\":8671:8718   */\n      mstore\n        /* \"#utility.yul\":8735:8866   */\n      tag_246\n        /* \"#utility.yul\":8861:8865   */\n      dup2\n        /* \"#utility.yul\":8735:8866   */\n      tag_212\n      jump\t// in\n    tag_246:\n        /* \"#utility.yul\":8727:8866   */\n      swap1\n      pop\n        /* \"#utility.yul\":8454:8873   */\n      swap2\n      swap1\n      pop\n      jump\t// out\n        /* \"#utility.yul\":8879:9298   */\n    tag_52:\n        /* \"#utility.yul\":9045:9049   */\n      0x00\n        /* \"#utility.yul\":9083:9085   */\n      0x20\n        /* \"#utility.yul\":9072:9081   */\n      dup3\n        /* \"#utility.yul\":9068:9086   */\n      add\n        /* \"#utility.yul\":9060:9086   */\n      swap1\n      pop\n        /* \"#utility.yul\":9132:9141   */\n      dup2\n        /* \"#utility.yul\":9126:9130   */\n      dup2\n        /* \"#utility.yul\":9122:9142   */\n      sub\n        /* \"#utility.yul\":9118:9119   */\n      0x00\n        /* \"#utility.yul\":9107:9116   */\n      dup4\n        /* \"#utility.yul\":9103:9120   */\n      add\n        /* \"#utility.yul\":9096:9143   */\n      mstore\n        /* \"#utility.yul\":9160:9291   */\n      tag_248\n        /* \"#utility.yul\":9286:9290   */\n      dup2\n        /* \"#utility.yul\":9160:9291   */\n      tag_217\n      jump\t// in\n    tag_248:\n        /* \"#utility.yul\":9152:9291   */\n      swap1\n      pop\n        /* \"#utility.yul\":8879:9298   */\n      swap2\n      swap1\n      pop\n      jump\t// out\n        /* \"#utility.yul\":9304:9723   */\n    tag_76:\n        /* \"#utility.yul\":9470:9474   */\n      0x00\n        /* \"#utility.yul\":9508:9510   */\n      0x20\n        /* \"#utility.yul\":9497:9506   */\n      dup3\n        /* \"#utility.yul\":9493:9511   */\n      add\n        /* \"#utility.yul\":9485:9511   */\n      swap1\n      pop\n        /* \"#utility.yul\":9557:9566   */\n      dup2\n        /* \"#utility.yul\":9551:9555   */\n      dup2\n        /* \"#utility.yul\":9547:9567   */\n      sub\n        /* \"#utility.yul\":9543:9544   */\n      0x00\n        /* \"#utility.yul\":9532:9541   */\n      dup4\n        /* \"#utility.yul\":9528:9545   */\n      add\n        /* \"#utility.yul\":9521:9568   */\n      mstore\n        /* \"#utility.yul\":9585:9716   */\n      tag_250\n        /* \"#utility.yul\":9711:9715   */\n      dup2\n        /* \"#utility.yul\":9585:9716   */\n      tag_222\n      jump\t// in\n    tag_250:\n        /* \"#utility.yul\":9577:9716   */\n      swap1\n      pop\n        /* \"#utility.yul\":9304:9723   */\n      swap2\n      swap1\n      pop\n      jump\t// out\n        /* \"#utility.yul\":9729:10148   */\n    tag_105:\n        /* \"#utility.yul\":9895:9899   */\n      0x00\n        /* \"#utility.yul\":9933:9935   */\n      0x20\n        /* \"#utility.yul\":9922:9931   */\n      dup3\n        /* \"#utility.yul\":9918:9936   */\n      add\n        /* \"#utility.yul\":9910:9936   */\n      swap1\n      pop\n        /* \"#utility.yul\":9982:9991   */\n      dup2\n        /* \"#utility.yul\":9976:9980   */\n      dup2\n        /* \"#utility.yul\":9972:9992   */\n      sub\n        /* \"#utility.yul\":9968:9969   */\n      0x00\n        /* \"#utility.yul\":9957:9966   */\n      dup4\n        /* \"#utility.yul\":9953:9970   */\n      add\n        /* \"#utility.yul\":9946:9993   */\n      mstore\n        /* \"#utility.yul\":10010:10141   */\n      tag_252\n        /* \"#utility.yul\":10136:10140   */\n      dup2\n        /* \"#utility.yul\":10010:10141   */\n      tag_227\n      jump\t// in\n    tag_252:\n        /* \"#utility.yul\":10002:10141   */\n      swap1\n      pop\n        /* \"#utility.yul\":9729:10148   */\n      swap2\n      swap1\n      pop\n      jump\t// out\n        /* \"#utility.yul\":10154:10283   */\n    tag_128:\n        /* \"#utility.yul\":10188:10194   */\n      0x00\n        /* \"#utility.yul\":10215:10235   */\n      tag_254\n      tag_255\n      jump\t// in\n    tag_254:\n        /* \"#utility.yul\":10205:10235   */\n      swap1\n      pop\n        /* \"#utility.yul\":10244:10277   */\n      tag_256\n        /* \"#utility.yul\":10272:10276   */\n      dup3\n        /* \"#utility.yul\":10264:10270   */\n      dup3\n        /* \"#utility.yul\":10244:10277   */\n      tag_257\n      jump\t// in\n    tag_256:\n        /* \"#utility.yul\":10154:10283   */\n      swap2\n      swap1\n      pop\n      jump\t// out\n        /* \"#utility.yul\":10289:10364   */\n    tag_255:\n        /* \"#utility.yul\":10322:10328   */\n      0x00\n        /* \"#utility.yul\":10355:10357   */\n      0x40\n        /* \"#utility.yul\":10349:10358   */\n      mload\n        /* \"#utility.yul\":10339:10358   */\n      swap1\n      pop\n        /* \"#utility.yul\":10289:10364   */\n      swap1\n      jump\t// out\n        /* \"#utility.yul\":10370:10678   */\n    tag_127:\n        /* \"#utility.yul\":10432:10436   */\n      0x00\n        /* \"#utility.yul\":10522:10540   */\n      0xffffffffffffffff\n        /* \"#utility.yul\":10514:10520   */\n      dup3\n        /* \"#utility.yul\":10511:10541   */\n      gt\n        /* \"#utility.yul\":10508:10564   */\n      iszero\n      tag_260\n      jumpi\n        /* \"#utility.yul\":10544:10562   */\n      tag_261\n      tag_59\n      jump\t// in\n    tag_261:\n        /* \"#utility.yul\":10508:10564   */\n    tag_260:\n        /* \"#utility.yul\":10582:10611   */\n      tag_262\n        /* \"#utility.yul\":10604:10610   */\n      dup3\n        /* \"#utility.yul\":10582:10611   */\n      tag_201\n      jump\t// in\n    tag_262:\n        /* \"#utility.yul\":10574:10611   */\n      swap1\n      pop\n        /* \"#utility.yul\":10666:10670   */\n      0x20\n        /* \"#utility.yul\":10660:10664   */\n      dup2\n        /* \"#utility.yul\":10656:10671   */\n      add\n        /* \"#utility.yul\":10648:10671   */\n      swap1\n      pop\n        /* \"#utility.yul\":10370:10678   */\n      swap2\n      swap1\n      pop\n      jump\t// out\n        /* \"#utility.yul\":10684:10816   */\n    tag_185:\n        /* \"#utility.yul\":10751:10755   */\n      0x00\n        /* \"#utility.yul\":10774:10777   */\n      dup2\n        /* \"#utility.yul\":10766:10777   */\n      swap1\n      pop\n        /* \"#utility.yul\":10804:10808   */\n      0x20\n        /* \"#utility.yul\":10799:10802   */\n      dup3\n        /* \"#utility.yul\":10795:10809   */\n      add\n        /* \"#utility.yul\":10787:10809   */\n      swap1\n      pop\n        /* \"#utility.yul\":10684:10816   */\n      swap2\n      swap1\n      pop\n      jump\t// out\n        /* \"#utility.yul\":10822:10936   */\n    tag_181:\n        /* \"#utility.yul\":10889:10895   */\n      0x00\n        /* \"#utility.yul\":10923:10928   */\n      dup2\n        /* \"#utility.yul\":10917:10929   */\n      mload\n        /* \"#utility.yul\":10907:10929   */\n      swap1\n      pop\n        /* \"#utility.yul\":10822:10936   */\n      swap2\n      swap1\n      pop\n      jump\t// out\n        /* \"#utility.yul\":10942:11041   */\n    tag_195:\n        /* \"#utility.yul\":10994:11000   */\n      0x00\n        /* \"#utility.yul\":11028:11033   */\n      dup2\n        /* \"#utility.yul\":11022:11034   */\n      mload\n        /* \"#utility.yul\":11012:11034   */\n      swap1\n      pop\n        /* \"#utility.yul\":10942:11041   */\n      swap2\n      swap1\n      pop\n      jump\t// out\n        /* \"#utility.yul\":11047:11160   */\n    tag_191:\n        /* \"#utility.yul\":11117:11121   */\n      0x00\n        /* \"#utility.yul\":11149:11153   */\n      0x20\n        /* \"#utility.yul\":11144:11147   */\n      dup3\n        /* \"#utility.yul\":11140:11154   */\n      add\n        /* \"#utility.yul\":11132:11154   */\n      swap1\n      pop\n        /* \"#utility.yul\":11047:11160   */\n      swap2\n      swap1\n      pop\n      jump\t// out\n        /* \"#utility.yul\":11166:11350   */\n    tag_183:\n        /* \"#utility.yul\":11265:11276   */\n      0x00\n        /* \"#utility.yul\":11299:11305   */\n      dup3\n        /* \"#utility.yul\":11294:11297   */\n      dup3\n        /* \"#utility.yul\":11287:11306   */\n      mstore\n        /* \"#utility.yul\":11339:11343   */\n      0x20\n        /* \"#utility.yul\":11334:11337   */\n      dup3\n        /* \"#utility.yul\":11330:11344   */\n      add\n        /* \"#utility.yul\":11315:11344   */\n      swap1\n      pop\n        /* \"#utility.yul\":11166:11350   */\n      swap3\n      swap2\n      pop\n      pop\n      jump\t// out\n        /* \"#utility.yul\":11356:11525   */\n    tag_197:\n        /* \"#utility.yul\":11440:11451   */\n      0x00\n        /* \"#utility.yul\":11474:11480   */\n      dup3\n        /* \"#utility.yul\":11469:11472   */\n      dup3\n        /* \"#utility.yul\":11462:11481   */\n      mstore\n        /* \"#utility.yul\":11514:11518   */\n      0x20\n        /* \"#utility.yul\":11509:11512   */\n      dup3\n        /* \"#utility.yul\":11505:11519   */\n      add\n        /* \"#utility.yul\":11490:11519   */\n      swap1\n      pop\n        /* \"#utility.yul\":11356:11525   */\n      swap3\n      swap2\n      pop\n      pop\n      jump\t// out\n        /* \"#utility.yul\":11531:11627   */\n    tag_177:\n        /* \"#utility.yul\":11568:11575   */\n      0x00\n        /* \"#utility.yul\":11597:11621   */\n      tag_270\n        /* \"#utility.yul\":11615:11620   */\n      dup3\n        /* \"#utility.yul\":11597:11621   */\n      tag_271\n      jump\t// in\n    tag_270:\n        /* \"#utility.yul\":11586:11621   */\n      swap1\n      pop\n        /* \"#utility.yul\":11531:11627   */\n      swap2\n      swap1\n      pop\n      jump\t// out\n        /* \"#utility.yul\":11633:11759   */\n    tag_271:\n        /* \"#utility.yul\":11670:11677   */\n      0x00\n        /* \"#utility.yul\":11710:11752   */\n      0xffffffffffffffffffffffffffffffffffffffff\n        /* \"#utility.yul\":11703:11708   */\n      dup3\n        /* \"#utility.yul\":11699:11753   */\n      and\n        /* \"#utility.yul\":11688:11753   */\n      swap1\n      pop\n        /* \"#utility.yul\":11633:11759   */\n      swap2\n      swap1\n      pop\n      jump\t// out\n        /* \"#utility.yul\":11765:11842   */\n    tag_234:\n        /* \"#utility.yul\":11802:11809   */\n      0x00\n        /* \"#utility.yul\":11831:11836   */\n      dup2\n        /* \"#utility.yul\":11820:11836   */\n      swap1\n      pop\n        /* \"#utility.yul\":11765:11842   */\n      swap2\n      swap1\n      pop\n      jump\t// out\n        /* \"#utility.yul\":11848:12002   */\n    tag_133:\n        /* \"#utility.yul\":11932:11938   */\n      dup3\n        /* \"#utility.yul\":11927:11930   */\n      dup2\n        /* \"#utility.yul\":11922:11925   */\n      dup4\n        /* \"#utility.yul\":11909:11939   */\n      calldatacopy\n        /* \"#utility.yul\":11994:11995   */\n      0x00\n        /* \"#utility.yul\":11985:11991   */\n      dup4\n        /* \"#utility.yul\":11980:11983   */\n      dup4\n        /* \"#utility.yul\":11976:11992   */\n      add\n        /* \"#utility.yul\":11969:11996   */\n      mstore\n        /* \"#utility.yul\":11848:12002   */\n      pop\n      pop\n      pop\n      jump\t// out\n        /* \"#utility.yul\":12008:12315   */\n    tag_199:\n        /* \"#utility.yul\":12076:12077   */\n      0x00\n        /* \"#utility.yul\":12086:12199   */\n    tag_276:\n        /* \"#utility.yul\":12100:12106   */\n      dup4\n        /* \"#utility.yul\":12097:12098   */\n      dup2\n        /* \"#utility.yul\":12094:12107   */\n      lt\n        /* \"#utility.yul\":12086:12199   */\n      iszero\n      tag_278\n      jumpi\n        /* \"#utility.yul\":12185:12186   */\n      dup1\n        /* \"#utility.yul\":12180:12183   */\n      dup3\n        /* \"#utility.yul\":12176:12187   */\n      add\n        /* \"#utility.yul\":12170:12188   */\n      mload\n        /* \"#utility.yul\":12166:12167   */\n      dup2\n        /* \"#utility.yul\":12161:12164   */\n      dup5\n        /* \"#utility.yul\":12157:12168   */\n      add\n        /* \"#utility.yul\":12150:12189   */\n      mstore\n        /* \"#utility.yul\":12122:12124   */\n      0x20\n        /* \"#utility.yul\":12119:12120   */\n      dup2\n        /* \"#utility.yul\":12115:12125   */\n      add\n        /* \"#utility.yul\":12110:12125   */\n      swap1\n      pop\n        /* \"#utility.yul\":12086:12199   */\n      jump(tag_276)\n    tag_278:\n        /* \"#utility.yul\":12217:12223   */\n      dup4\n        /* \"#utility.yul\":12214:12215   */\n      dup2\n        /* \"#utility.yul\":12211:12224   */\n      gt\n        /* \"#utility.yul\":12208:12309   */\n      iszero\n      tag_279\n      jumpi\n        /* \"#utility.yul\":12297:12298   */\n      0x00\n        /* \"#utility.yul\":12288:12294   */\n      dup5\n        /* \"#utility.yul\":12283:12286   */\n      dup5\n        /* \"#utility.yul\":12279:12295   */\n      add\n        /* \"#utility.yul\":12272:12299   */\n      mstore\n        /* \"#utility.yul\":12208:12309   */\n    tag_279:\n        /* \"#utility.yul\":12057:12315   */\n      pop\n        /* \"#utility.yul\":12008:12315   */\n      pop\n      pop\n      pop\n      jump\t// out\n        /* \"#utility.yul\":12321:12641   */\n    tag_44:\n        /* \"#utility.yul\":12365:12371   */\n      0x00\n        /* \"#utility.yul\":12402:12403   */\n      0x02\n        /* \"#utility.yul\":12396:12400   */\n      dup3\n        /* \"#utility.yul\":12392:12404   */\n      div\n        /* \"#utility.yul\":12382:12404   */\n      swap1\n      pop\n        /* \"#utility.yul\":12449:12450   */\n      0x01\n        /* \"#utility.yul\":12443:12447   */\n      dup3\n        /* \"#utility.yul\":12439:12451   */\n      and\n        /* \"#utility.yul\":12470:12488   */\n      dup1\n        /* \"#utility.yul\":12460:12541   */\n      tag_281\n      jumpi\n        /* \"#utility.yul\":12526:12530   */\n      0x7f\n        /* \"#utility.yul\":12518:12524   */\n      dup3\n        /* \"#utility.yul\":12514:12531   */\n      and\n        /* \"#utility.yul\":12504:12531   */\n      swap2\n      pop\n        /* \"#utility.yul\":12460:12541   */\n    tag_281:\n        /* \"#utility.yul\":12588:12590   */\n      0x20\n        /* \"#utility.yul\":12580:12586   */\n      dup3\n        /* \"#utility.yul\":12577:12591   */\n      lt\n        /* \"#utility.yul\":12557:12575   */\n      dup2\n        /* \"#utility.yul\":12554:12592   */\n      eq\n        /* \"#utility.yul\":12551:12635   */\n      iszero\n      tag_282\n      jumpi\n        /* \"#utility.yul\":12607:12625   */\n      tag_283\n      tag_284\n      jump\t// in\n    tag_283:\n        /* \"#utility.yul\":12551:12635   */\n    tag_282:\n        /* \"#utility.yul\":12372:12641   */\n      pop\n        /* \"#utility.yul\":12321:12641   */\n      swap2\n      swap1\n      pop\n      jump\t// out\n        /* \"#utility.yul\":12647:12928   */\n    tag_257:\n        /* \"#utility.yul\":12730:12757   */\n      tag_286\n        /* \"#utility.yul\":12752:12756   */\n      dup3\n        /* \"#utility.yul\":12730:12757   */\n      tag_201\n      jump\t// in\n    tag_286:\n        /* \"#utility.yul\":12722:12728   */\n      dup2\n        /* \"#utility.yul\":12718:12758   */\n      add\n        /* \"#utility.yul\":12860:12866   */\n      dup2\n        /* \"#utility.yul\":12848:12858   */\n      dup2\n        /* \"#utility.yul\":12845:12867   */\n      lt\n        /* \"#utility.yul\":12824:12842   */\n      0xffffffffffffffff\n        /* \"#utility.yul\":12812:12822   */\n      dup3\n        /* \"#utility.yul\":12809:12843   */\n      gt\n        /* \"#utility.yul\":12806:12868   */\n      or\n        /* \"#utility.yul\":12803:12891   */\n      iszero\n      tag_287\n      jumpi\n        /* \"#utility.yul\":12871:12889   */\n      tag_288\n      tag_59\n      jump\t// in\n    tag_288:\n        /* \"#utility.yul\":12803:12891   */\n    tag_287:\n        /* \"#utility.yul\":12911:12921   */\n      dup1\n        /* \"#utility.yul\":12907:12909   */\n      0x40\n        /* \"#utility.yul\":12900:12922   */\n      mstore\n        /* \"#utility.yul\":12690:12928   */\n      pop\n        /* \"#utility.yul\":12647:12928   */\n      pop\n      pop\n      jump\t// out\n        /* \"#utility.yul\":12934:13167   */\n    tag_71:\n        /* \"#utility.yul\":12973:12976   */\n      0x00\n        /* \"#utility.yul\":12996:13020   */\n      tag_290\n        /* \"#utility.yul\":13014:13019   */\n      dup3\n        /* \"#utility.yul\":12996:13020   */\n      tag_234\n      jump\t// in\n    tag_290:\n        /* \"#utility.yul\":12987:13020   */\n      swap2\n      pop\n        /* \"#utility.yul\":13042:13108   */\n      0xffffffffffffffffffffffffffffffffffffffffffffffffffffffffffffffff\n        /* \"#utility.yul\":13035:13040   */\n      dup3\n        /* \"#utility.yul\":13032:13109   */\n      eq\n        /* \"#utility.yul\":13029:13132   */\n      iszero\n      tag_291\n      jumpi\n        /* \"#utility.yul\":13112:13130   */\n      tag_292\n      tag_293\n      jump\t// in\n    tag_292:\n        /* \"#utility.yul\":13029:13132   */\n    tag_291:\n        /* \"#utility.yul\":13159:13160   */\n      0x01\n        /* \"#utility.yul\":13152:13157   */\n      dup3\n        /* \"#utility.yul\":13148:13161   */\n      add\n        /* \"#utility.yul\":13141:13161   */\n      swap1\n      pop\n        /* \"#utility.yul\":12934:13167   */\n      swap2\n      swap1\n      pop\n      jump\t// out\n        /* \"#utility.yul\":13173:13353   */\n    tag_293:\n        /* \"#utility.yul\":13221:13298   */\n      0x4e487b7100000000000000000000000000000000000000000000000000000000\n        /* \"#utility.yul\":13218:13219   */\n      0x00\n        /* \"#utility.yul\":13211:13299   */\n      mstore\n        /* \"#utility.yul\":13318:13322   */\n      0x11\n        /* \"#utility.yul\":13315:13316   */\n      0x04\n        /* \"#utility.yul\":13308:13323   */\n      mstore\n        /* \"#utility.yul\":13342:13346   */\n      0x24\n        /* \"#utility.yul\":13339:13340   */\n      0x00\n        /* \"#utility.yul\":13332:13347   */\n      revert\n        /* \"#utility.yul\":13359:13539   */\n    tag_284:\n        /* \"#utility.yul\":13407:13484   */\n      0x4e487b7100000000000000000000000000000000000000000000000000000000\n        /* \"#utility.yul\":13404:13405   */\n      0x00\n        /* \"#utility.yul\":13397:13485   */\n      mstore\n        /* \"#utility.yul\":13504:13508   */\n      0x22\n        /* \"#utility.yul\":13501:13502   */\n      0x04\n        /* \"#utility.yul\":13494:13509   */\n      mstore\n        /* \"#utility.yul\":13528:13532   */\n      0x24\n        /* \"#utility.yul\":13525:13526   */\n      0x00\n        /* \"#utility.yul\":13518:13533   */\n      revert\n        /* \"#utility.yul\":13545:13725   */\n    tag_69:\n        /* \"#utility.yul\":13593:13670   */\n      0x4e487b7100000000000000000000000000000000000000000000000000000000\n        /* \"#utility.yul\":13590:13591   */\n      0x00\n        /* \"#utility.yul\":13583:13671   */\n      mstore\n        /* \"#utility.yul\":13690:13694   */\n      0x32\n        /* \"#utility.yul\":13687:13688   */\n      0x04\n        /* \"#utility.yul\":13680:13695   */\n      mstore\n        /* \"#utility.yul\":13714:13718   */\n      0x24\n        /* \"#utility.yul\":13711:13712   */\n      0x00\n        /* \"#utility.yul\":13704:13719   */\n      revert\n        /* \"#utility.yul\":13731:13911   */\n    tag_59:\n        /* \"#utility.yul\":13779:13856   */\n      0x4e487b7100000000000000000000000000000000000000000000000000000000\n        /* \"#utility.yul\":13776:13777   */\n      0x00\n        /* \"#utility.yul\":13769:13857   */\n      mstore\n        /* \"#utility.yul\":13876:13880   */\n      0x41\n        /* \"#utility.yul\":13873:13874   */\n      0x04\n        /* \"#utility.yul\":13866:13881   */\n      mstore\n        /* \"#utility.yul\":13900:13904   */\n      0x24\n        /* \"#utility.yul\":13897:13898   */\n      0x00\n        /* \"#utility.yul\":13890:13905   */\n      revert\n        /* \"#utility.yul\":13917:14034   */\n    tag_142:\n        /* \"#utility.yul\":14026:14027   */\n      0x00\n        /* \"#utility.yul\":14023:14024   */\n      dup1\n        /* \"#utility.yul\":14016:14028   */\n      revert\n        /* \"#utility.yul\":14040:14157   */\n    tag_131:\n        /* \"#utility.yul\":14149:14150   */\n      0x00\n        /* \"#utility.yul\":14146:14147   */\n      dup1\n        /* \"#utility.yul\":14139:14151   */\n      revert\n        /* \"#utility.yul\":14163:14280   */\n    tag_164:\n        /* \"#utility.yul\":14272:14273   */\n      0x00\n        /* \"#utility.yul\":14269:14270   */\n      dup1\n        /* \"#utility.yul\":14262:14274   */\n      revert\n        /* \"#utility.yul\":14286:14403   */\n    tag_151:\n        /* \"#utility.yul\":14395:14396   */\n      0x00\n        /* \"#utility.yul\":14392:14393   */\n      dup1\n        /* \"#utility.yul\":14385:14397   */\n      revert\n        /* \"#utility.yul\":14409:14511   */\n    tag_201:\n        /* \"#utility.yul\":14450:14456   */\n      0x00\n        /* \"#utility.yul\":14501:14503   */\n      0x1f\n        /* \"#utility.yul\":14497:14504   */\n      not\n        /* \"#utility.yul\":14492:14494   */\n      0x1f\n        /* \"#utility.yul\":14485:14490   */\n      dup4\n        /* \"#utility.yul\":14481:14495   */\n      add\n        /* \"#utility.yul\":14477:14505   */\n      and\n        /* \"#utility.yul\":14467:14505   */\n      swap1\n      pop\n        /* \"#utility.yul\":14409:14511   */\n      swap2\n      swap1\n      pop\n      jump\t// out\n        /* \"#utility.yul\":14517:14740   */\n    tag_206:\n        /* \"#utility.yul\":14657:14691   */\n      0x4552433732313a207472616e7366657220746f20746865207a65726f20616464\n        /* \"#utility.yul\":14653:14654   */\n      0x00\n        /* \"#utility.yul\":14645:14651   */\n      dup3\n        /* \"#utility.yul\":14641:14655   */\n      add\n        /* \"#utility.yul\":14634:14692   */\n      mstore\n        /* \"#utility.yul\":14726:14732   */\n      0x7265737300000000000000000000000000000000000000000000000000000000\n        /* \"#utility.yul\":14721:14723   */\n      0x20\n        /* \"#utility.yul\":14713:14719   */\n      dup3\n        /* \"#utility.yul\":14709:14724   */\n      add\n        /* \"#utility.yul\":14702:14733   */\n      mstore\n        /* \"#utility.yul\":14517:14740   */\n      pop\n      jump\t// out\n        /* \"#utility.yul\":14746:14915   */\n    tag_211:\n        /* \"#utility.yul\":14886:14907   */\n      0x746f6b656e20616c726561647920657869737400000000000000000000000000\n        /* \"#utility.yul\":14882:14883   */\n      0x00\n        /* \"#utility.yul\":14874:14880   */\n      dup3\n        /* \"#utility.yul\":14870:14884   */\n      add\n        /* \"#utility.yul\":14863:14908   */\n      mstore\n        /* \"#utility.yul\":14746:14915   */\n      pop\n      jump\t// out\n        /* \"#utility.yul\":14921:15090   */\n    tag_216:\n        /* \"#utility.yul\":15061:15082   */\n      0x746f6b656e20646f65736e277420657869737400000000000000000000000000\n        /* \"#utility.yul\":15057:15058   */\n      0x00\n        /* \"#utility.yul\":15049:15055   */\n      dup3\n        /* \"#utility.yul\":15045:15059   */\n      add\n        /* \"#utility.yul\":15038:15083   */\n      mstore\n        /* \"#utility.yul\":14921:15090   */\n      pop\n      jump\t// out\n        /* \"#utility.yul\":15096:15269   */\n    tag_221:\n        /* \"#utility.yul\":15236:15261   */\n      0x4e6f742063616c6c656420627920746865206f776e6572000000000000000000\n        /* \"#utility.yul\":15232:15233   */\n      0x00\n        /* \"#utility.yul\":15224:15230   */\n      dup3\n        /* \"#utility.yul\":15220:15234   */\n      add\n        /* \"#utility.yul\":15213:15262   */\n      mstore\n        /* \"#utility.yul\":15096:15269   */\n      pop\n      jump\t// out\n        /* \"#utility.yul\":15275:15449   */\n    tag_226:\n        /* \"#utility.yul\":15415:15441   */\n      0x4552433732313a20696e76616c696420746f6b656e2049440000000000000000\n        /* \"#utility.yul\":15411:15412   */\n      0x00\n        /* \"#utility.yul\":15403:15409   */\n      dup3\n        /* \"#utility.yul\":15399:15413   */\n      add\n        /* \"#utility.yul\":15392:15442   */\n      mstore\n        /* \"#utility.yul\":15275:15449   */\n      pop\n      jump\t// out\n        /* \"#utility.yul\":15455:15629   */\n    tag_231:\n        /* \"#utility.yul\":15595:15621   */\n      0x6d696e7420746f20746865207a65726f20616464726573730000000000000000\n        /* \"#utility.yul\":15591:15592   */\n      0x00\n        /* \"#utility.yul\":15583:15589   */\n      dup3\n        /* \"#utility.yul\":15579:15593   */\n      add\n        /* \"#utility.yul\":15572:15622   */\n      mstore\n        /* \"#utility.yul\":15455:15629   */\n      pop\n      jump\t// out\n        /* \"#utility.yul\":15635:15757   */\n    tag_137:\n        /* \"#utility.yul\":15708:15732   */\n      tag_310\n        /* \"#utility.yul\":15726:15731   */\n      dup2\n        /* \"#utility.yul\":15708:15732   */\n      tag_177\n      jump\t// in\n    tag_310:\n        /* \"#utility.yul\":15701:15706   */\n      dup2\n        /* \"#utility.yul\":15698:15733   */\n      eq\n        /* \"#utility.yul\":15688:15751   */\n      tag_311\n      jumpi\n        /* \"#utility.yul\":15747:15748   */\n      0x00\n        /* \"#utility.yul\":15744:15745   */\n      dup1\n        /* \"#utility.yul\":15737:15749   */\n      revert\n        /* \"#utility.yul\":15688:15751   */\n    tag_311:\n        /* \"#utility.yul\":15635:15757   */\n      pop\n      jump\t// out\n        /* \"#utility.yul\":15763:15885   */\n    tag_147:\n        /* \"#utility.yul\":15836:15860   */\n      tag_313\n        /* \"#utility.yul\":15854:15859   */\n      dup2\n        /* \"#utility.yul\":15836:15860   */\n      tag_234\n      jump\t// in\n    tag_313:\n        /* \"#utility.yul\":15829:15834   */\n      dup2\n        /* \"#utility.yul\":15826:15861   */\n      eq\n        /* \"#utility.yul\":15816:15879   */\n      tag_314\n      jumpi\n        /* \"#utility.yul\":15875:15876   */\n      0x00\n        /* \"#utility.yul\":15872:15873   */\n      dup1\n        /* \"#utility.yul\":15865:15877   */\n      revert\n        /* \"#utility.yul\":15816:15879   */\n    tag_314:\n        /* \"#utility.yul\":15763:15885   */\n      pop\n      jump\t// out\n\n    auxdata: 0xa2646970667358221220bf5a830195c78adf566ddce71473c0d986941524364ea6affde17253dbaef6af64736f6c63430008070033\n}\n",
				"bytecode": {
					"linkReferences": {},
					"object": "60806040523480156200001157600080fd5b5060405162001962380380620019628339818101604052810190620000379190620001f8565b82600360006101000a81548173ffffffffffffffffffffffffffffffffffffffff021916908373ffffffffffffffffffffffffffffffffffffffff160217905550816000908051906020019062000090929190620000b3565b508060019080519060200190620000a9929190620000b3565b5050505062000464565b828054620000c1906200035b565b90600052602060002090601f016020900481019282620000e5576000855562000131565b82601f106200010057805160ff191683800117855562000131565b8280016001018555821562000131579182015b828111156200013057825182559160200191906001019062000113565b5b50905062000140919062000144565b5090565b5b808211156200015f57600081600090555060010162000145565b5090565b60006200017a6200017484620002bb565b62000292565b9050828152602081018484840111156200019957620001986200042a565b5b620001a684828562000325565b509392505050565b600081519050620001bf816200044a565b92915050565b600082601f830112620001dd57620001dc62000425565b5b8151620001ef84826020860162000163565b91505092915050565b60008060006060848603121562000214576200021362000434565b5b60006200022486828701620001ae565b935050602084015167ffffffffffffffff8111156200024857620002476200042f565b5b6200025686828701620001c5565b925050604084015167ffffffffffffffff8111156200027a57620002796200042f565b5b6200028886828701620001c5565b9150509250925092565b60006200029e620002b1565b9050620002ac828262000391565b919050565b6000604051905090565b600067ffffffffffffffff821115620002d957620002d8620003f6565b5b620002e48262000439565b9050602081019050919050565b6000620002fe8262000305565b9050919050565b600073ffffffffffffffffffffffffffffffffffffffff82169050919050565b60005b838110156200034557808201518184015260208101905062000328565b8381111562000355576000848401525b50505050565b600060028204905060018216806200037457607f821691505b602082108114156200038b576200038a620003c7565b5b50919050565b6200039c8262000439565b810181811067ffffffffffffffff82111715620003be57620003bd620003f6565b5b80604052505050565b7f4e487b7100000000000000000000000000000000000000000000000000000000600052602260045260246000fd5b7f4e487b7100000000000000000000000000000000000000000000000000000000600052604160045260246000fd5b600080fd5b600080fd5b600080fd5b600080fd5b6000601f19601f8301169050919050565b6200045581620002f1565b81146200046157600080fd5b50565b6114ee80620004746000396000f3fe608060405234801561001057600080fd5b506004361061007d5760003560e01c80636352211e1161005b5780636352211e146100ec57806395d89b411461011c578063bf59b3471461013a578063d85d3d271461016a5761007d565b806306fdde031461008257806323b872dd146100a0578063438b6300146100bc575b600080fd5b61008a610186565b6040516100979190610fd6565b60405180910390f35b6100ba60048036038101906100b59190610d31565b610218565b005b6100d660048036038101906100d19190610d04565b61047a565b6040516100e39190610fb4565b60405180910390f35b61010660048036038101906101019190610dcd565b6105d4565b6040516101139190610f99565b60405180910390f35b610124610686565b6040516101319190610fd6565b60405180910390f35b610154600480360381019061014f9190610dcd565b610718565b6040516101619190610fd6565b60405180910390f35b610184600480360381019061017f9190610d84565b6107b8565b005b606060008054610195906111e1565b80601f01602080910402602001604051908101604052809291908181526020018280546101c1906111e1565b801561020e5780601f106101e35761010080835404028352916020019161020e565b820191906000526020600020905b8154815290600101906020018083116101f157829003601f168201915b5050505050905090565b8273ffffffffffffffffffffffffffffffffffffffff166005600083815260200190815260200160002060009054906101000a900473ffffffffffffffffffffffffffffffffffffffff1673ffffffffffffffffffffffffffffffffffffffff16146102b9576040517f08c379a00000000000000000000000000000000000000000000000000000000081526004016102b090611058565b60405180910390fd5b600073ffffffffffffffffffffffffffffffffffffffff168273ffffffffffffffffffffffffffffffffffffffff161415610329576040517f08c379a000000000000000000000000000000000000000000000000000000000815260040161032090610ff8565b60405180910390fd5b600460008473ffffffffffffffffffffffffffffffffffffffff1673ffffffffffffffffffffffffffffffffffffffff1681526020019081526020016000206000815480929190600190039190505550600460008373ffffffffffffffffffffffffffffffffffffffff1673ffffffffffffffffffffffffffffffffffffffff16815260200190815260200160002060008154809291906001019190505550816005600083815260200190815260200160002060006101000a81548173ffffffffffffffffffffffffffffffffffffffff021916908373ffffffffffffffffffffffffffffffffffffffff160217905550808273ffffffffffffffffffffffffffffffffffffffff168473ffffffffffffffffffffffffffffffffffffffff167fddf252ad1be2c89b69c2b068fc378daa952ba7f163c4a11628f55a4df523b3ef60405160405180910390a4505050565b60606000600460008473ffffffffffffffffffffffffffffffffffffffff1673ffffffffffffffffffffffffffffffffffffffff1681526020019081526020016000205467ffffffffffffffff8111156104d7576104d661131a565b5b6040519080825280602002602001820160405280156105055781602001602082028036833780820191505090505b509050600080600190505b61051a6002610820565b81116105c9578473ffffffffffffffffffffffffffffffffffffffff166005600083815260200190815260200160002060009054906101000a900473ffffffffffffffffffffffffffffffffffffffff1673ffffffffffffffffffffffffffffffffffffffff1614156105b6578083838151811061059b5761059a6112eb565b5b60200260200101818152505081806105b290611244565b9250505b80806105c190611244565b915050610510565b508192505050919050565b6000806005600084815260200190815260200160002060009054906101000a900473ffffffffffffffffffffffffffffffffffffffff169050600073ffffffffffffffffffffffffffffffffffffffff168173ffffffffffffffffffffffffffffffffffffffff16141561067d576040517f08c379a000000000000000000000000000000000000000000000000000000000815260040161067490611078565b60405180910390fd5b80915050919050565b606060018054610695906111e1565b80601f01602080910402602001604051908101604052809291908181526020018280546106c1906111e1565b801561070e5780601f106106e35761010080835404028352916020019161070e565b820191906000526020600020905b8154815290600101906020018083116106f157829003601f168201915b5050505050905090565b60086020528060005260406000206000915090508054610737906111e1565b80601f0160208091040260200160405190810160405280929190818152602001828054610763906111e1565b80156107b05780601f10610785576101008083540402835291602001916107b0565b820191906000526020600020905b81548152906001019060200180831161079357829003601f168201915b505050505081565b6107c2600261082e565b60006107ce6002610820565b90506107da3382610844565b6107e48183610af8565b807f769eff512f395b679667e0062a0e31dad5d22dbc7e6b87f16c3de7e85e663460336040516108149190610f99565b60405180910390a25050565b600081600001549050919050565b6001816000016000828254019250508190555050565b600073ffffffffffffffffffffffffffffffffffffffff166007600083815260200190815260200160002060009054906101000a900473ffffffffffffffffffffffffffffffffffffffff1673ffffffffffffffffffffffffffffffffffffffff16146108e6576040517f08c379a00000000000000000000000000000000000000000000000000000000081526004016108dd90611018565b60405180910390fd5b600073ffffffffffffffffffffffffffffffffffffffff168273ffffffffffffffffffffffffffffffffffffffff161415610956576040517f08c379a000000000000000000000000000000000000000000000000000000000815260040161094d90611098565b60405180910390fd5b600460008373ffffffffffffffffffffffffffffffffffffffff1673ffffffffffffffffffffffffffffffffffffffff16815260200190815260200160002060008154809291906001019190505550600660008373ffffffffffffffffffffffffffffffffffffffff1673ffffffffffffffffffffffffffffffffffffffff16815260200190815260200160002060008154809291906001019190505550816005600083815260200190815260200160002060006101000a81548173ffffffffffffffffffffffffffffffffffffffff021916908373ffffffffffffffffffffffffffffffffffffffff160217905550816007600083815260200190815260200160002060006101000a81548173ffffffffffffffffffffffffffffffffffffffff021916908373ffffffffffffffffffffffffffffffffffffffff160217905550808273ffffffffffffffffffffffffffffffffffffffff16600073ffffffffffffffffffffffffffffffffffffffff167fddf252ad1be2c89b69c2b068fc378daa952ba7f163c4a11628f55a4df523b3ef60405160405180910390a45050565b600073ffffffffffffffffffffffffffffffffffffffff166007600084815260200190815260200160002060009054906101000a900473ffffffffffffffffffffffffffffffffffffffff1673ffffffffffffffffffffffffffffffffffffffff161415610b9b576040517f08c379a0000000000000000000000000000000000000000000000000000000008152600401610b9290611038565b60405180910390fd5b80600860008481526020019081526020016000209080519060200190610bc2929190610bc7565b505050565b828054610bd3906111e1565b90600052602060002090601f016020900481019282610bf55760008555610c3c565b82601f10610c0e57805160ff1916838001178555610c3c565b82800160010185558215610c3c579182015b82811115610c3b578251825591602001919060010190610c20565b5b509050610c499190610c4d565b5090565b5b80821115610c66576000816000905550600101610c4e565b5090565b6000610c7d610c78846110dd565b6110b8565b905082815260208101848484011115610c9957610c9861134e565b5b610ca484828561119f565b509392505050565b600081359050610cbb8161148a565b92915050565b600082601f830112610cd657610cd5611349565b5b8135610ce6848260208601610c6a565b91505092915050565b600081359050610cfe816114a1565b92915050565b600060208284031215610d1a57610d19611358565b5b6000610d2884828501610cac565b91505092915050565b600080600060608486031215610d4a57610d49611358565b5b6000610d5886828701610cac565b9350506020610d6986828701610cac565b9250506040610d7a86828701610cef565b9150509250925092565b600060208284031215610d9a57610d99611358565b5b600082013567ffffffffffffffff811115610db857610db7611353565b5b610dc484828501610cc1565b91505092915050565b600060208284031215610de357610de2611358565b5b6000610df184828501610cef565b91505092915050565b6000610e068383610f8a565b60208301905092915050565b610e1b81611163565b82525050565b6000610e2c8261111e565b610e368185611141565b9350610e418361110e565b8060005b83811015610e72578151610e598882610dfa565b9750610e6483611134565b925050600181019050610e45565b5085935050505092915050565b6000610e8a82611129565b610e948185611152565b9350610ea48185602086016111ae565b610ead8161135d565b840191505092915050565b6000610ec5602483611152565b9150610ed08261136e565b604082019050919050565b6000610ee8601383611152565b9150610ef3826113bd565b602082019050919050565b6000610f0b601383611152565b9150610f16826113e6565b602082019050919050565b6000610f2e601783611152565b9150610f398261140f565b602082019050919050565b6000610f51601883611152565b9150610f5c82611438565b602082019050919050565b6000610f74601883611152565b9150610f7f82611461565b602082019050919050565b610f9381611195565b82525050565b6000602082019050610fae6000830184610e12565b92915050565b60006020820190508181036000830152610fce8184610e21565b905092915050565b60006020820190508181036000830152610ff08184610e7f565b905092915050565b6000602082019050818103600083015261101181610eb8565b9050919050565b6000602082019050818103600083015261103181610edb565b9050919050565b6000602082019050818103600083015261105181610efe565b9050919050565b6000602082019050818103600083015261107181610f21565b9050919050565b6000602082019050818103600083015261109181610f44565b9050919050565b600060208201905081810360008301526110b181610f67565b9050919050565b60006110c26110d3565b90506110ce8282611213565b919050565b6000604051905090565b600067ffffffffffffffff8211156110f8576110f761131a565b5b6111018261135d565b9050602081019050919050565b6000819050602082019050919050565b600081519050919050565b600081519050919050565b6000602082019050919050565b600082825260208201905092915050565b600082825260208201905092915050565b600061116e82611175565b9050919050565b600073ffffffffffffffffffffffffffffffffffffffff82169050919050565b6000819050919050565b82818337600083830152505050565b60005b838110156111cc5780820151818401526020810190506111b1565b838111156111db576000848401525b50505050565b600060028204905060018216806111f957607f821691505b6020821081141561120d5761120c6112bc565b5b50919050565b61121c8261135d565b810181811067ffffffffffffffff8211171561123b5761123a61131a565b5b80604052505050565b600061124f82611195565b91507fffffffffffffffffffffffffffffffffffffffffffffffffffffffffffffffff8214156112825761128161128d565b5b600182019050919050565b7f4e487b7100000000000000000000000000000000000000000000000000000000600052601160045260246000fd5b7f4e487b7100000000000000000000000000000000000000000000000000000000600052602260045260246000fd5b7f4e487b7100000000000000000000000000000000000000000000000000000000600052603260045260246000fd5b7f4e487b7100000000000000000000000000000000000000000000000000000000600052604160045260246000fd5b600080fd5b600080fd5b600080fd5b600080fd5b6000601f19601f8301169050919050565b7f4552433732313a207472616e7366657220746f20746865207a65726f2061646460008201527f7265737300000000000000000000000000000000000000000000000000000000602082015250565b7f746f6b656e20616c726561647920657869737400000000000000000000000000600082015250565b7f746f6b656e20646f65736e277420657869737400000000000000000000000000600082015250565b7f4e6f742063616c6c656420627920746865206f776e6572000000000000000000600082015250565b7f4552433732313a20696e76616c696420746f6b656e2049440000000000000000600082015250565b7f6d696e7420746f20746865207a65726f20616464726573730000000000000000600082015250565b61149381611163565b811461149e57600080fd5b50565b6114aa81611195565b81146114b557600080fd5b5056fea2646970667358221220bf5a830195c78adf566ddce71473c0d986941524364ea6affde17253dbaef6af64736f6c63430008070033",
					"opcodes": "PUSH1 0x80 PUSH1 0x40 MSTORE CALLVALUE DUP1 ISZERO PUSH3 0x11 JUMPI PUSH1 0x0 DUP1 REVERT JUMPDEST POP PUSH1 0x40 MLOAD PUSH3 0x1962 CODESIZE SUB DUP1 PUSH3 0x1962 DUP4 CODECOPY DUP2 DUP2 ADD PUSH1 0x40 MSTORE DUP2 ADD SWAP1 PUSH3 0x37 SWAP2 SWAP1 PUSH3 0x1F8 JUMP JUMPDEST DUP3 PUSH1 0x3 PUSH1 0x0 PUSH2 0x100 EXP DUP2 SLOAD DUP2 PUSH20 0xFFFFFFFFFFFFFFFFFFFFFFFFFFFFFFFFFFFFFFFF MUL NOT AND SWAP1 DUP4 PUSH20 0xFFFFFFFFFFFFFFFFFFFFFFFFFFFFFFFFFFFFFFFF AND MUL OR SWAP1 SSTORE POP DUP2 PUSH1 0x0 SWAP1 DUP1 MLOAD SWAP1 PUSH1 0x20 ADD SWAP1 PUSH3 0x90 SWAP3 SWAP2 SWAP1 PUSH3 0xB3 JUMP JUMPDEST POP DUP1 PUSH1 0x1 SWAP1 DUP1 MLOAD SWAP1 PUSH1 0x20 ADD SWAP1 PUSH3 0xA9 SWAP3 SWAP2 SWAP1 PUSH3 0xB3 JUMP JUMPDEST POP POP POP POP PUSH3 0x464 JUMP JUMPDEST DUP3 DUP1 SLOAD PUSH3 0xC1 SWAP1 PUSH3 0x35B JUMP JUMPDEST SWAP1 PUSH1 0x0 MSTORE PUSH1 0x20 PUSH1 0x0 KECCAK256 SWAP1 PUSH1 0x1F ADD PUSH1 0x20 SWAP1 DIV DUP2 ADD SWAP3 DUP3 PUSH3 0xE5 JUMPI PUSH1 0x0 DUP6 SSTORE PUSH3 0x131 JUMP JUMPDEST DUP3 PUSH1 0x1F LT PUSH3 0x100 JUMPI DUP1 MLOAD PUSH1 0xFF NOT AND DUP4 DUP1 ADD OR DUP6 SSTORE PUSH3 0x131 JUMP JUMPDEST DUP3 DUP1 ADD PUSH1 0x1 ADD DUP6 SSTORE DUP3 ISZERO PUSH3 0x131 JUMPI SWAP2 DUP3 ADD JUMPDEST DUP3 DUP2 GT ISZERO PUSH3 0x130 JUMPI DUP3 MLOAD DUP3 SSTORE SWAP2 PUSH1 0x20 ADD SWAP2 SWAP1 PUSH1 0x1 ADD SWAP1 PUSH3 0x113 JUMP JUMPDEST JUMPDEST POP SWAP1 POP PUSH3 0x140 SWAP2 SWAP1 PUSH3 0x144 JUMP JUMPDEST POP SWAP1 JUMP JUMPDEST JUMPDEST DUP1 DUP3 GT ISZERO PUSH3 0x15F JUMPI PUSH1 0x0 DUP2 PUSH1 0x0 SWAP1 SSTORE POP PUSH1 0x1 ADD PUSH3 0x145 JUMP JUMPDEST POP SWAP1 JUMP JUMPDEST PUSH1 0x0 PUSH3 0x17A PUSH3 0x174 DUP5 PUSH3 0x2BB JUMP JUMPDEST PUSH3 0x292 JUMP JUMPDEST SWAP1 POP DUP3 DUP2 MSTORE PUSH1 0x20 DUP2 ADD DUP5 DUP5 DUP5 ADD GT ISZERO PUSH3 0x199 JUMPI PUSH3 0x198 PUSH3 0x42A JUMP JUMPDEST JUMPDEST PUSH3 0x1A6 DUP5 DUP3 DUP6 PUSH3 0x325 JUMP JUMPDEST POP SWAP4 SWAP3 POP POP POP JUMP JUMPDEST PUSH1 0x0 DUP2 MLOAD SWAP1 POP PUSH3 0x1BF DUP2 PUSH3 0x44A JUMP JUMPDEST SWAP3 SWAP2 POP POP JUMP JUMPDEST PUSH1 0x0 DUP3 PUSH1 0x1F DUP4 ADD SLT PUSH3 0x1DD JUMPI PUSH3 0x1DC PUSH3 0x425 JUMP JUMPDEST JUMPDEST DUP2 MLOAD PUSH3 0x1EF DUP5 DUP3 PUSH1 0x20 DUP7 ADD PUSH3 0x163 JUMP JUMPDEST SWAP2 POP POP SWAP3 SWAP2 POP POP JUMP JUMPDEST PUSH1 0x0 DUP1 PUSH1 0x0 PUSH1 0x60 DUP5 DUP7 SUB SLT ISZERO PUSH3 0x214 JUMPI PUSH3 0x213 PUSH3 0x434 JUMP JUMPDEST JUMPDEST PUSH1 0x0 PUSH3 0x224 DUP7 DUP3 DUP8 ADD PUSH3 0x1AE JUMP JUMPDEST SWAP4 POP POP PUSH1 0x20 DUP5 ADD MLOAD PUSH8 0xFFFFFFFFFFFFFFFF DUP2 GT ISZERO PUSH3 0x248 JUMPI PUSH3 0x247 PUSH3 0x42F JUMP JUMPDEST JUMPDEST PUSH3 0x256 DUP7 DUP3 DUP8 ADD PUSH3 0x1C5 JUMP JUMPDEST SWAP3 POP POP PUSH1 0x40 DUP5 ADD MLOAD PUSH8 0xFFFFFFFFFFFFFFFF DUP2 GT ISZERO PUSH3 0x27A JUMPI PUSH3 0x279 PUSH3 0x42F JUMP JUMPDEST JUMPDEST PUSH3 0x288 DUP7 DUP3 DUP8 ADD PUSH3 0x1C5 JUMP JUMPDEST SWAP2 POP POP SWAP3 POP SWAP3 POP SWAP3 JUMP JUMPDEST PUSH1 0x0 PUSH3 0x29E PUSH3 0x2B1 JUMP JUMPDEST SWAP1 POP PUSH3 0x2AC DUP3 DUP3 PUSH3 0x391 JUMP JUMPDEST SWAP2 SWAP1 POP JUMP JUMPDEST PUSH1 0x0 PUSH1 0x40 MLOAD SWAP1 POP SWAP1 JUMP JUMPDEST PUSH1 0x0 PUSH8 0xFFFFFFFFFFFFFFFF DUP3 GT ISZERO PUSH3 0x2D9 JUMPI PUSH3 0x2D8 PUSH3 0x3F6 JUMP JUMPDEST JUMPDEST PUSH3 0x2E4 DUP3 PUSH3 0x439 JUMP JUMPDEST SWAP1 POP PUSH1 0x20 DUP2 ADD SWAP1 POP SWAP2 SWAP1 POP JUMP JUMPDEST PUSH1 0x0 PUSH3 0x2FE DUP3 PUSH3 0x305 JUMP JUMPDEST SWAP1 POP SWAP2 SWAP1 POP JUMP JUMPDEST PUSH1 0x0 PUSH20 0xFFFFFFFFFFFFFFFFFFFFFFFFFFFFFFFFFFFFFFFF DUP3 AND SWAP1 POP SWAP2 SWAP1 POP JUMP JUMPDEST PUSH1 0x0 JUMPDEST DUP4 DUP2 LT ISZERO PUSH3 0x345 JUMPI DUP1 DUP3 ADD MLOAD DUP2 DUP5 ADD MSTORE PUSH1 0x20 DUP2 ADD SWAP1 POP PUSH3 0x328 JUMP JUMPDEST DUP4 DUP2 GT ISZERO PUSH3 0x355 JUMPI PUSH1 0x0 DUP5 DUP5 ADD MSTORE JUMPDEST POP POP POP POP JUMP JUMPDEST PUSH1 0x0 PUSH1 0x2 DUP3 DIV SWAP1 POP PUSH1 0x1 DUP3 AND DUP1 PUSH3 0x374 JUMPI PUSH1 0x7F DUP3 AND SWAP2 POP JUMPDEST PUSH1 0x20 DUP3 LT DUP2 EQ ISZERO PUSH3 0x38B JUMPI PUSH3 0x38A PUSH3 0x3C7 JUMP JUMPDEST JUMPDEST POP SWAP2 SWAP1 POP JUMP JUMPDEST PUSH3 0x39C DUP3 PUSH3 0x439 JUMP JUMPDEST DUP2 ADD DUP2 DUP2 LT PUSH8 0xFFFFFFFFFFFFFFFF DUP3 GT OR ISZERO PUSH3 0x3BE JUMPI PUSH3 0x3BD PUSH3 0x3F6 JUMP JUMPDEST JUMPDEST DUP1 PUSH1 0x40 MSTORE POP POP POP JUMP JUMPDEST PUSH32 0x4E487B7100000000000000000000000000000000000000000000000000000000 PUSH1 0x0 MSTORE PUSH1 0x22 PUSH1 0x4 MSTORE PUSH1 0x24 PUSH1 0x0 REVERT JUMPDEST PUSH32 0x4E487B7100000000000000000000000000000000000000000000000000000000 PUSH1 0x0 MSTORE PUSH1 0x41 PUSH1 0x4 MSTORE PUSH1 0x24 PUSH1 0x0 REVERT JUMPDEST PUSH1 0x0 DUP1 REVERT JUMPDEST PUSH1 0x0 DUP1 REVERT JUMPDEST PUSH1 0x0 DUP1 REVERT JUMPDEST PUSH1 0x0 DUP1 REVERT JUMPDEST PUSH1 0x0 PUSH1 0x1F NOT PUSH1 0x1F DUP4 ADD AND SWAP1 POP SWAP2 SWAP1 POP JUMP JUMPDEST PUSH3 0x455 DUP2 PUSH3 0x2F1 JUMP JUMPDEST DUP2 EQ PUSH3 0x461 JUMPI PUSH1 0x0 DUP1 REVERT JUMPDEST POP JUMP JUMPDEST PUSH2 0x14EE DUP1 PUSH3 0x474 PUSH1 0x0 CODECOPY PUSH1 0x0 RETURN INVALID PUSH1 0x80 PUSH1 0x40 MSTORE CALLVALUE DUP1 ISZERO PUSH2 0x10 JUMPI PUSH1 0x0 DUP1 REVERT JUMPDEST POP PUSH1 0x4 CALLDATASIZE LT PUSH2 0x7D JUMPI PUSH1 0x0 CALLDATALOAD PUSH1 0xE0 SHR DUP1 PUSH4 0x6352211E GT PUSH2 0x5B JUMPI DUP1 PUSH4 0x6352211E EQ PUSH2 0xEC JUMPI DUP1 PUSH4 0x95D89B41 EQ PUSH2 0x11C JUMPI DUP1 PUSH4 0xBF59B347 EQ PUSH2 0x13A JUMPI DUP1 PUSH4 0xD85D3D27 EQ PUSH2 0x16A JUMPI PUSH2 0x7D JUMP JUMPDEST DUP1 PUSH4 0x6FDDE03 EQ PUSH2 0x82 JUMPI DUP1 PUSH4 0x23B872DD EQ PUSH2 0xA0 JUMPI DUP1 PUSH4 0x438B6300 EQ PUSH2 0xBC JUMPI JUMPDEST PUSH1 0x0 DUP1 REVERT JUMPDEST PUSH2 0x8A PUSH2 0x186 JUMP JUMPDEST PUSH1 0x40 MLOAD PUSH2 0x97 SWAP2 SWAP1 PUSH2 0xFD6 JUMP JUMPDEST PUSH1 0x40 MLOAD DUP1 SWAP2 SUB SWAP1 RETURN JUMPDEST PUSH2 0xBA PUSH1 0x4 DUP1 CALLDATASIZE SUB DUP2 ADD SWAP1 PUSH2 0xB5 SWAP2 SWAP1 PUSH2 0xD31 JUMP JUMPDEST PUSH2 0x218 JUMP JUMPDEST STOP JUMPDEST PUSH2 0xD6 PUSH1 0x4 DUP1 CALLDATASIZE SUB DUP2 ADD SWAP1 PUSH2 0xD1 SWAP2 SWAP1 PUSH2 0xD04 JUMP JUMPDEST PUSH2 0x47A JUMP JUMPDEST PUSH1 0x40 MLOAD PUSH2 0xE3 SWAP2 SWAP1 PUSH2 0xFB4 JUMP JUMPDEST PUSH1 0x40 MLOAD DUP1 SWAP2 SUB SWAP1 RETURN JUMPDEST PUSH2 0x106 PUSH1 0x4 DUP1 CALLDATASIZE SUB DUP2 ADD SWAP1 PUSH2 0x101 SWAP2 SWAP1 PUSH2 0xDCD JUMP JUMPDEST PUSH2 0x5D4 JUMP JUMPDEST PUSH1 0x40 MLOAD PUSH2 0x113 SWAP2 SWAP1 PUSH2 0xF99 JUMP JUMPDEST PUSH1 0x40 MLOAD DUP1 SWAP2 SUB SWAP1 RETURN JUMPDEST PUSH2 0x124 PUSH2 0x686 JUMP JUMPDEST PUSH1 0x40 MLOAD PUSH2 0x131 SWAP2 SWAP1 PUSH2 0xFD6 JUMP JUMPDEST PUSH1 0x40 MLOAD DUP1 SWAP2 SUB SWAP1 RETURN JUMPDEST PUSH2 0x154 PUSH1 0x4 DUP1 CALLDATASIZE SUB DUP2 ADD SWAP1 PUSH2 0x14F SWAP2 SWAP1 PUSH2 0xDCD JUMP JUMPDEST PUSH2 0x718 JUMP JUMPDEST PUSH1 0x40 MLOAD PUSH2 0x161 SWAP2 SWAP1 PUSH2 0xFD6 JUMP JUMPDEST PUSH1 0x40 MLOAD DUP1 SWAP2 SUB SWAP1 RETURN JUMPDEST PUSH2 0x184 PUSH1 0x4 DUP1 CALLDATASIZE SUB DUP2 ADD SWAP1 PUSH2 0x17F SWAP2 SWAP1 PUSH2 0xD84 JUMP JUMPDEST PUSH2 0x7B8 JUMP JUMPDEST STOP JUMPDEST PUSH1 0x60 PUSH1 0x0 DUP1 SLOAD PUSH2 0x195 SWAP1 PUSH2 0x11E1 JUMP JUMPDEST DUP1 PUSH1 0x1F ADD PUSH1 0x20 DUP1 SWAP2 DIV MUL PUSH1 0x20 ADD PUSH1 0x40 MLOAD SWAP1 DUP2 ADD PUSH1 0x40 MSTORE DUP1 SWAP3 SWAP2 SWAP1 DUP2 DUP2 MSTORE PUSH1 0x20 ADD DUP3 DUP1 SLOAD PUSH2 0x1C1 SWAP1 PUSH2 0x11E1 JUMP JUMPDEST DUP1 ISZERO PUSH2 0x20E JUMPI DUP1 PUSH1 0x1F LT PUSH2 0x1E3 JUMPI PUSH2 0x100 DUP1 DUP4 SLOAD DIV MUL DUP4 MSTORE SWAP2 PUSH1 0x20 ADD SWAP2 PUSH2 0x20E JUMP JUMPDEST DUP3 ADD SWAP2 SWAP1 PUSH1 0x0 MSTORE PUSH1 0x20 PUSH1 0x0 KECCAK256 SWAP1 JUMPDEST DUP2 SLOAD DUP2 MSTORE SWAP1 PUSH1 0x1 ADD SWAP1 PUSH1 0x20 ADD DUP1 DUP4 GT PUSH2 0x1F1 JUMPI DUP3 SWAP1 SUB PUSH1 0x1F AND DUP3 ADD SWAP2 JUMPDEST POP POP POP POP POP SWAP1 POP SWAP1 JUMP JUMPDEST DUP3 PUSH20 0xFFFFFFFFFFFFFFFFFFFFFFFFFFFFFFFFFFFFFFFF AND PUSH1 0x5 PUSH1 0x0 DUP4 DUP2 MSTORE PUSH1 0x20 ADD SWAP1 DUP2 MSTORE PUSH1 0x20 ADD PUSH1 0x0 KECCAK256 PUSH1 0x0 SWAP1 SLOAD SWAP1 PUSH2 0x100 EXP SWAP1 DIV PUSH20 0xFFFFFFFFFFFFFFFFFFFFFFFFFFFFFFFFFFFFFFFF AND PUSH20 0xFFFFFFFFFFFFFFFFFFFFFFFFFFFFFFFFFFFFFFFF AND EQ PUSH2 0x2B9 JUMPI PUSH1 0x40 MLOAD PUSH32 0x8C379A000000000000000000000000000000000000000000000000000000000 DUP2 MSTORE PUSH1 0x4 ADD PUSH2 0x2B0 SWAP1 PUSH2 0x1058 JUMP JUMPDEST PUSH1 0x40 MLOAD DUP1 SWAP2 SUB SWAP1 REVERT JUMPDEST PUSH1 0x0 PUSH20 0xFFFFFFFFFFFFFFFFFFFFFFFFFFFFFFFFFFFFFFFF AND DUP3 PUSH20 0xFFFFFFFFFFFFFFFFFFFFFFFFFFFFFFFFFFFFFFFF AND EQ ISZERO PUSH2 0x329 JUMPI PUSH1 0x40 MLOAD PUSH32 0x8C379A000000000000000000000000000000000000000000000000000000000 DUP2 MSTORE PUSH1 0x4 ADD PUSH2 0x320 SWAP1 PUSH2 0xFF8 JUMP JUMPDEST PUSH1 0x40 MLOAD DUP1 SWAP2 SUB SWAP1 REVERT JUMPDEST PUSH1 0x4 PUSH1 0x0 DUP5 PUSH20 0xFFFFFFFFFFFFFFFFFFFFFFFFFFFFFFFFFFFFFFFF AND PUSH20 0xFFFFFFFFFFFFFFFFFFFFFFFFFFFFFFFFFFFFFFFF AND DUP2 MSTORE PUSH1 0x20 ADD SWAP1 DUP2 MSTORE PUSH1 0x20 ADD PUSH1 0x0 KECCAK256 PUSH1 0x0 DUP2 SLOAD DUP1 SWAP3 SWAP2 SWAP1 PUSH1 0x1 SWAP1 SUB SWAP2 SWAP1 POP SSTORE POP PUSH1 0x4 PUSH1 0x0 DUP4 PUSH20 0xFFFFFFFFFFFFFFFFFFFFFFFFFFFFFFFFFFFFFFFF AND PUSH20 0xFFFFFFFFFFFFFFFFFFFFFFFFFFFFFFFFFFFFFFFF AND DUP2 MSTORE PUSH1 0x20 ADD SWAP1 DUP2 MSTORE PUSH1 0x20 ADD PUSH1 0x0 KECCAK256 PUSH1 0x0 DUP2 SLOAD DUP1 SWAP3 SWAP2 SWAP1 PUSH1 0x1 ADD SWAP2 SWAP1 POP SSTORE POP DUP2 PUSH1 0x5 PUSH1 0x0 DUP4 DUP2 MSTORE PUSH1 0x20 ADD SWAP1 DUP2 MSTORE PUSH1 0x20 ADD PUSH1 0x0 KECCAK256 PUSH1 0x0 PUSH2 0x100 EXP DUP2 SLOAD DUP2 PUSH20 0xFFFFFFFFFFFFFFFFFFFFFFFFFFFFFFFFFFFFFFFF MUL NOT AND SWAP1 DUP4 PUSH20 0xFFFFFFFFFFFFFFFFFFFFFFFFFFFFFFFFFFFFFFFF AND MUL OR SWAP1 SSTORE POP DUP1 DUP3 PUSH20 0xFFFFFFFFFFFFFFFFFFFFFFFFFFFFFFFFFFFFFFFF AND DUP5 PUSH20 0xFFFFFFFFFFFFFFFFFFFFFFFFFFFFFFFFFFFFFFFF AND PUSH32 0xDDF252AD1BE2C89B69C2B068FC378DAA952BA7F163C4A11628F55A4DF523B3EF PUSH1 0x40 MLOAD PUSH1 0x40 MLOAD DUP1 SWAP2 SUB SWAP1 LOG4 POP POP POP JUMP JUMPDEST PUSH1 0x60 PUSH1 0x0 PUSH1 0x4 PUSH1 0x0 DUP5 PUSH20 0xFFFFFFFFFFFFFFFFFFFFFFFFFFFFFFFFFFFFFFFF AND PUSH20 0xFFFFFFFFFFFFFFFFFFFFFFFFFFFFFFFFFFFFFFFF AND DUP2 MSTORE PUSH1 0x20 ADD SWAP1 DUP2 MSTORE PUSH1 0x20 ADD PUSH1 0x0 KECCAK256 SLOAD PUSH8 0xFFFFFFFFFFFFFFFF DUP2 GT ISZERO PUSH2 0x4D7 JUMPI PUSH2 0x4D6 PUSH2 0x131A JUMP JUMPDEST JUMPDEST PUSH1 0x40 MLOAD SWAP1 DUP1 DUP3 MSTORE DUP1 PUSH1 0x20 MUL PUSH1 0x20 ADD DUP3 ADD PUSH1 0x40 MSTORE DUP1 ISZERO PUSH2 0x505 JUMPI DUP2 PUSH1 0x20 ADD PUSH1 0x20 DUP3 MUL DUP1 CALLDATASIZE DUP4 CALLDATACOPY DUP1 DUP3 ADD SWAP2 POP POP SWAP1 POP JUMPDEST POP SWAP1 POP PUSH1 0x0 DUP1 PUSH1 0x1 SWAP1 POP JUMPDEST PUSH2 0x51A PUSH1 0x2 PUSH2 0x820 JUMP JUMPDEST DUP2 GT PUSH2 0x5C9 JUMPI DUP5 PUSH20 0xFFFFFFFFFFFFFFFFFFFFFFFFFFFFFFFFFFFFFFFF AND PUSH1 0x5 PUSH1 0x0 DUP4 DUP2 MSTORE PUSH1 0x20 ADD SWAP1 DUP2 MSTORE PUSH1 0x20 ADD PUSH1 0x0 KECCAK256 PUSH1 0x0 SWAP1 SLOAD SWAP1 PUSH2 0x100 EXP SWAP1 DIV PUSH20 0xFFFFFFFFFFFFFFFFFFFFFFFFFFFFFFFFFFFFFFFF AND PUSH20 0xFFFFFFFFFFFFFFFFFFFFFFFFFFFFFFFFFFFFFFFF AND EQ ISZERO PUSH2 0x5B6 JUMPI DUP1 DUP4 DUP4 DUP2 MLOAD DUP2 LT PUSH2 0x59B JUMPI PUSH2 0x59A PUSH2 0x12EB JUMP JUMPDEST JUMPDEST PUSH1 0x20 MUL PUSH1 0x20 ADD ADD DUP2 DUP2 MSTORE POP POP DUP2 DUP1 PUSH2 0x5B2 SWAP1 PUSH2 0x1244 JUMP JUMPDEST SWAP3 POP POP JUMPDEST DUP1 DUP1 PUSH2 0x5C1 SWAP1 PUSH2 0x1244 JUMP JUMPDEST SWAP2 POP POP PUSH2 0x510 JUMP JUMPDEST POP DUP2 SWAP3 POP POP POP SWAP2 SWAP1 POP JUMP JUMPDEST PUSH1 0x0 DUP1 PUSH1 0x5 PUSH1 0x0 DUP5 DUP2 MSTORE PUSH1 0x20 ADD SWAP1 DUP2 MSTORE PUSH1 0x20 ADD PUSH1 0x0 KECCAK256 PUSH1 0x0 SWAP1 SLOAD SWAP1 PUSH2 0x100 EXP SWAP1 DIV PUSH20 0xFFFFFFFFFFFFFFFFFFFFFFFFFFFFFFFFFFFFFFFF AND SWAP1 POP PUSH1 0x0 PUSH20 0xFFFFFFFFFFFFFFFFFFFFFFFFFFFFFFFFFFFFFFFF AND DUP2 PUSH20 0xFFFFFFFFFFFFFFFFFFFFFFFFFFFFFFFFFFFFFFFF AND EQ ISZERO PUSH2 0x67D JUMPI PUSH1 0x40 MLOAD PUSH32 0x8C379A000000000000000000000000000000000000000000000000000000000 DUP2 MSTORE PUSH1 0x4 ADD PUSH2 0x674 SWAP1 PUSH2 0x1078 JUMP JUMPDEST PUSH1 0x40 MLOAD DUP1 SWAP2 SUB SWAP1 REVERT JUMPDEST DUP1 SWAP2 POP POP SWAP2 SWAP1 POP JUMP JUMPDEST PUSH1 0x60 PUSH1 0x1 DUP1 SLOAD PUSH2 0x695 SWAP1 PUSH2 0x11E1 JUMP JUMPDEST DUP1 PUSH1 0x1F ADD PUSH1 0x20 DUP1 SWAP2 DIV MUL PUSH1 0x20 ADD PUSH1 0x40 MLOAD SWAP1 DUP2 ADD PUSH1 0x40 MSTORE DUP1 SWAP3 SWAP2 SWAP1 DUP2 DUP2 MSTORE PUSH1 0x20 ADD DUP3 DUP1 SLOAD PUSH2 0x6C1 SWAP1 PUSH2 0x11E1 JUMP JUMPDEST DUP1 ISZERO PUSH2 0x70E JUMPI DUP1 PUSH1 0x1F LT PUSH2 0x6E3 JUMPI PUSH2 0x100 DUP1 DUP4 SLOAD DIV MUL DUP4 MSTORE SWAP2 PUSH1 0x20 ADD SWAP2 PUSH2 0x70E JUMP JUMPDEST DUP3 ADD SWAP2 SWAP1 PUSH1 0x0 MSTORE PUSH1 0x20 PUSH1 0x0 KECCAK256 SWAP1 JUMPDEST DUP2 SLOAD DUP2 MSTORE SWAP1 PUSH1 0x1 ADD SWAP1 PUSH1 0x20 ADD DUP1 DUP4 GT PUSH2 0x6F1 JUMPI DUP3 SWAP1 SUB PUSH1 0x1F AND DUP3 ADD SWAP2 JUMPDEST POP POP POP POP POP SWAP1 POP SWAP1 JUMP JUMPDEST PUSH1 0x8 PUSH1 0x20 MSTORE DUP1 PUSH1 0x0 MSTORE PUSH1 0x40 PUSH1 0x0 KECCAK256 PUSH1 0x0 SWAP2 POP SWAP1 POP DUP1 SLOAD PUSH2 0x737 SWAP1 PUSH2 0x11E1 JUMP JUMPDEST DUP1 PUSH1 0x1F ADD PUSH1 0x20 DUP1 SWAP2 DIV MUL PUSH1 0x20 ADD PUSH1 0x40 MLOAD SWAP1 DUP2 ADD PUSH1 0x40 MSTORE DUP1 SWAP3 SWAP2 SWAP1 DUP2 DUP2 MSTORE PUSH1 0x20 ADD DUP3 DUP1 SLOAD PUSH2 0x763 SWAP1 PUSH2 0x11E1 JUMP JUMPDEST DUP1 ISZERO PUSH2 0x7B0 JUMPI DUP1 PUSH1 0x1F LT PUSH2 0x785 JUMPI PUSH2 0x100 DUP1 DUP4 SLOAD DIV MUL DUP4 MSTORE SWAP2 PUSH1 0x20 ADD SWAP2 PUSH2 0x7B0 JUMP JUMPDEST DUP3 ADD SWAP2 SWAP1 PUSH1 0x0 MSTORE PUSH1 0x20 PUSH1 0x0 KECCAK256 SWAP1 JUMPDEST DUP2 SLOAD DUP2 MSTORE SWAP1 PUSH1 0x1 ADD SWAP1 PUSH1 0x20 ADD DUP1 DUP4 GT PUSH2 0x793 JUMPI DUP3 SWAP1 SUB PUSH1 0x1F AND DUP3 ADD SWAP2 JUMPDEST POP POP POP POP POP DUP2 JUMP JUMPDEST PUSH2 0x7C2 PUSH1 0x2 PUSH2 0x82E JUMP JUMPDEST PUSH1 0x0 PUSH2 0x7CE PUSH1 0x2 PUSH2 0x820 JUMP JUMPDEST SWAP1 POP PUSH2 0x7DA CALLER DUP3 PUSH2 0x844 JUMP JUMPDEST PUSH2 0x7E4 DUP2 DUP4 PUSH2 0xAF8 JUMP JUMPDEST DUP1 PUSH32 0x769EFF512F395B679667E0062A0E31DAD5D22DBC7E6B87F16C3DE7E85E663460 CALLER PUSH1 0x40 MLOAD PUSH2 0x814 SWAP2 SWAP1 PUSH2 0xF99 JUMP JUMPDEST PUSH1 0x40 MLOAD DUP1 SWAP2 SUB SWAP1 LOG2 POP POP JUMP JUMPDEST PUSH1 0x0 DUP2 PUSH1 0x0 ADD SLOAD SWAP1 POP SWAP2 SWAP1 POP JUMP JUMPDEST PUSH1 0x1 DUP2 PUSH1 0x0 ADD PUSH1 0x0 DUP3 DUP3 SLOAD ADD SWAP3 POP POP DUP2 SWAP1 SSTORE POP POP JUMP JUMPDEST PUSH1 0x0 PUSH20 0xFFFFFFFFFFFFFFFFFFFFFFFFFFFFFFFFFFFFFFFF AND PUSH1 0x7 PUSH1 0x0 DUP4 DUP2 MSTORE PUSH1 0x20 ADD SWAP1 DUP2 MSTORE PUSH1 0x20 ADD PUSH1 0x0 KECCAK256 PUSH1 0x0 SWAP1 SLOAD SWAP1 PUSH2 0x100 EXP SWAP1 DIV PUSH20 0xFFFFFFFFFFFFFFFFFFFFFFFFFFFFFFFFFFFFFFFF AND PUSH20 0xFFFFFFFFFFFFFFFFFFFFFFFFFFFFFFFFFFFFFFFF AND EQ PUSH2 0x8E6 JUMPI PUSH1 0x40 MLOAD PUSH32 0x8C379A000000000000000000000000000000000000000000000000000000000 DUP2 MSTORE PUSH1 0x4 ADD PUSH2 0x8DD SWAP1 PUSH2 0x1018 JUMP JUMPDEST PUSH1 0x40 MLOAD DUP1 SWAP2 SUB SWAP1 REVERT JUMPDEST PUSH1 0x0 PUSH20 0xFFFFFFFFFFFFFFFFFFFFFFFFFFFFFFFFFFFFFFFF AND DUP3 PUSH20 0xFFFFFFFFFFFFFFFFFFFFFFFFFFFFFFFFFFFFFFFF AND EQ ISZERO PUSH2 0x956 JUMPI PUSH1 0x40 MLOAD PUSH32 0x8C379A000000000000000000000000000000000000000000000000000000000 DUP2 MSTORE PUSH1 0x4 ADD PUSH2 0x94D SWAP1 PUSH2 0x1098 JUMP JUMPDEST PUSH1 0x40 MLOAD DUP1 SWAP2 SUB SWAP1 REVERT JUMPDEST PUSH1 0x4 PUSH1 0x0 DUP4 PUSH20 0xFFFFFFFFFFFFFFFFFFFFFFFFFFFFFFFFFFFFFFFF AND PUSH20 0xFFFFFFFFFFFFFFFFFFFFFFFFFFFFFFFFFFFFFFFF AND DUP2 MSTORE PUSH1 0x20 ADD SWAP1 DUP2 MSTORE PUSH1 0x20 ADD PUSH1 0x0 KECCAK256 PUSH1 0x0 DUP2 SLOAD DUP1 SWAP3 SWAP2 SWAP1 PUSH1 0x1 ADD SWAP2 SWAP1 POP SSTORE POP PUSH1 0x6 PUSH1 0x0 DUP4 PUSH20 0xFFFFFFFFFFFFFFFFFFFFFFFFFFFFFFFFFFFFFFFF AND PUSH20 0xFFFFFFFFFFFFFFFFFFFFFFFFFFFFFFFFFFFFFFFF AND DUP2 MSTORE PUSH1 0x20 ADD SWAP1 DUP2 MSTORE PUSH1 0x20 ADD PUSH1 0x0 KECCAK256 PUSH1 0x0 DUP2 SLOAD DUP1 SWAP3 SWAP2 SWAP1 PUSH1 0x1 ADD SWAP2 SWAP1 POP SSTORE POP DUP2 PUSH1 0x5 PUSH1 0x0 DUP4 DUP2 MSTORE PUSH1 0x20 ADD SWAP1 DUP2 MSTORE PUSH1 0x20 ADD PUSH1 0x0 KECCAK256 PUSH1 0x0 PUSH2 0x100 EXP DUP2 SLOAD DUP2 PUSH20 0xFFFFFFFFFFFFFFFFFFFFFFFFFFFFFFFFFFFFFFFF MUL NOT AND SWAP1 DUP4 PUSH20 0xFFFFFFFFFFFFFFFFFFFFFFFFFFFFFFFFFFFFFFFF AND MUL OR SWAP1 SSTORE POP DUP2 PUSH1 0x7 PUSH1 0x0 DUP4 DUP2 MSTORE PUSH1 0x20 ADD SWAP1 DUP2 MSTORE PUSH1 0x20 ADD PUSH1 0x0 KECCAK256 PUSH1 0x0 PUSH2 0x100 EXP DUP2 SLOAD DUP2 PUSH20 0xFFFFFFFFFFFFFFFFFFFFFFFFFFFFFFFFFFFFFFFF MUL NOT AND SWAP1 DUP4 PUSH20 0xFFFFFFFFFFFFFFFFFFFFFFFFFFFFFFFFFFFFFFFF AND MUL OR SWAP1 SSTORE POP DUP1 DUP3 PUSH20 0xFFFFFFFFFFFFFFFFFFFFFFFFFFFFFFFFFFFFFFFF AND PUSH1 0x0 PUSH20 0xFFFFFFFFFFFFFFFFFFFFFFFFFFFFFFFFFFFFFFFF AND PUSH32 0xDDF252AD1BE2C89B69C2B068FC378DAA952BA7F163C4A11628F55A4DF523B3EF PUSH1 0x40 MLOAD PUSH1 0x40 MLOAD DUP1 SWAP2 SUB SWAP1 LOG4 POP POP JUMP JUMPDEST PUSH1 0x0 PUSH20 0xFFFFFFFFFFFFFFFFFFFFFFFFFFFFFFFFFFFFFFFF AND PUSH1 0x7 PUSH1 0x0 DUP5 DUP2 MSTORE PUSH1 0x20 ADD SWAP1 DUP2 MSTORE PUSH1 0x20 ADD PUSH1 0x0 KECCAK256 PUSH1 0x0 SWAP1 SLOAD SWAP1 PUSH2 0x100 EXP SWAP1 DIV PUSH20 0xFFFFFFFFFFFFFFFFFFFFFFFFFFFFFFFFFFFFFFFF AND PUSH20 0xFFFFFFFFFFFFFFFFFFFFFFFFFFFFFFFFFFFFFFFF AND EQ ISZERO PUSH2 0xB9B JUMPI PUSH1 0x40 MLOAD PUSH32 0x8C379A000000000000000000000000000000000000000000000000000000000 DUP2 MSTORE PUSH1 0x4 ADD PUSH2 0xB92 SWAP1 PUSH2 0x1038 JUMP JUMPDEST PUSH1 0x40 MLOAD DUP1 SWAP2 SUB SWAP1 REVERT JUMPDEST DUP1 PUSH1 0x8 PUSH1 0x0 DUP5 DUP2 MSTORE PUSH1 0x20 ADD SWAP1 DUP2 MSTORE PUSH1 0x20 ADD PUSH1 0x0 KECCAK256 SWAP1 DUP1 MLOAD SWAP1 PUSH1 0x20 ADD SWAP1 PUSH2 0xBC2 SWAP3 SWAP2 SWAP1 PUSH2 0xBC7 JUMP JUMPDEST POP POP POP JUMP JUMPDEST DUP3 DUP1 SLOAD PUSH2 0xBD3 SWAP1 PUSH2 0x11E1 JUMP JUMPDEST SWAP1 PUSH1 0x0 MSTORE PUSH1 0x20 PUSH1 0x0 KECCAK256 SWAP1 PUSH1 0x1F ADD PUSH1 0x20 SWAP1 DIV DUP2 ADD SWAP3 DUP3 PUSH2 0xBF5 JUMPI PUSH1 0x0 DUP6 SSTORE PUSH2 0xC3C JUMP JUMPDEST DUP3 PUSH1 0x1F LT PUSH2 0xC0E JUMPI DUP1 MLOAD PUSH1 0xFF NOT AND DUP4 DUP1 ADD OR DUP6 SSTORE PUSH2 0xC3C JUMP JUMPDEST DUP3 DUP1 ADD PUSH1 0x1 ADD DUP6 SSTORE DUP3 ISZERO PUSH2 0xC3C JUMPI SWAP2 DUP3 ADD JUMPDEST DUP3 DUP2 GT ISZERO PUSH2 0xC3B JUMPI DUP3 MLOAD DUP3 SSTORE SWAP2 PUSH1 0x20 ADD SWAP2 SWAP1 PUSH1 0x1 ADD SWAP1 PUSH2 0xC20 JUMP JUMPDEST JUMPDEST POP SWAP1 POP PUSH2 0xC49 SWAP2 SWAP1 PUSH2 0xC4D JUMP JUMPDEST POP SWAP1 JUMP JUMPDEST JUMPDEST DUP1 DUP3 GT ISZERO PUSH2 0xC66 JUMPI PUSH1 0x0 DUP2 PUSH1 0x0 SWAP1 SSTORE POP PUSH1 0x1 ADD PUSH2 0xC4E JUMP JUMPDEST POP SWAP1 JUMP JUMPDEST PUSH1 0x0 PUSH2 0xC7D PUSH2 0xC78 DUP5 PUSH2 0x10DD JUMP JUMPDEST PUSH2 0x10B8 JUMP JUMPDEST SWAP1 POP DUP3 DUP2 MSTORE PUSH1 0x20 DUP2 ADD DUP5 DUP5 DUP5 ADD GT ISZERO PUSH2 0xC99 JUMPI PUSH2 0xC98 PUSH2 0x134E JUMP JUMPDEST JUMPDEST PUSH2 0xCA4 DUP5 DUP3 DUP6 PUSH2 0x119F JUMP JUMPDEST POP SWAP4 SWAP3 POP POP POP JUMP JUMPDEST PUSH1 0x0 DUP2 CALLDATALOAD SWAP1 POP PUSH2 0xCBB DUP2 PUSH2 0x148A JUMP JUMPDEST SWAP3 SWAP2 POP POP JUMP JUMPDEST PUSH1 0x0 DUP3 PUSH1 0x1F DUP4 ADD SLT PUSH2 0xCD6 JUMPI PUSH2 0xCD5 PUSH2 0x1349 JUMP JUMPDEST JUMPDEST DUP2 CALLDATALOAD PUSH2 0xCE6 DUP5 DUP3 PUSH1 0x20 DUP7 ADD PUSH2 0xC6A JUMP JUMPDEST SWAP2 POP POP SWAP3 SWAP2 POP POP JUMP JUMPDEST PUSH1 0x0 DUP2 CALLDATALOAD SWAP1 POP PUSH2 0xCFE DUP2 PUSH2 0x14A1 JUMP JUMPDEST SWAP3 SWAP2 POP POP JUMP JUMPDEST PUSH1 0x0 PUSH1 0x20 DUP3 DUP5 SUB SLT ISZERO PUSH2 0xD1A JUMPI PUSH2 0xD19 PUSH2 0x1358 JUMP JUMPDEST JUMPDEST PUSH1 0x0 PUSH2 0xD28 DUP5 DUP3 DUP6 ADD PUSH2 0xCAC JUMP JUMPDEST SWAP2 POP POP SWAP3 SWAP2 POP POP JUMP JUMPDEST PUSH1 0x0 DUP1 PUSH1 0x0 PUSH1 0x60 DUP5 DUP7 SUB SLT ISZERO PUSH2 0xD4A JUMPI PUSH2 0xD49 PUSH2 0x1358 JUMP JUMPDEST JUMPDEST PUSH1 0x0 PUSH2 0xD58 DUP7 DUP3 DUP8 ADD PUSH2 0xCAC JUMP JUMPDEST SWAP4 POP POP PUSH1 0x20 PUSH2 0xD69 DUP7 DUP3 DUP8 ADD PUSH2 0xCAC JUMP JUMPDEST SWAP3 POP POP PUSH1 0x40 PUSH2 0xD7A DUP7 DUP3 DUP8 ADD PUSH2 0xCEF JUMP JUMPDEST SWAP2 POP POP SWAP3 POP SWAP3 POP SWAP3 JUMP JUMPDEST PUSH1 0x0 PUSH1 0x20 DUP3 DUP5 SUB SLT ISZERO PUSH2 0xD9A JUMPI PUSH2 0xD99 PUSH2 0x1358 JUMP JUMPDEST JUMPDEST PUSH1 0x0 DUP3 ADD CALLDATALOAD PUSH8 0xFFFFFFFFFFFFFFFF DUP2 GT ISZERO PUSH2 0xDB8 JUMPI PUSH2 0xDB7 PUSH2 0x1353 JUMP JUMPDEST JUMPDEST PUSH2 0xDC4 DUP5 DUP3 DUP6 ADD PUSH2 0xCC1 JUMP JUMPDEST SWAP2 POP POP SWAP3 SWAP2 POP POP JUMP JUMPDEST PUSH1 0x0 PUSH1 0x20 DUP3 DUP5 SUB SLT ISZERO PUSH2 0xDE3 JUMPI PUSH2 0xDE2 PUSH2 0x1358 JUMP JUMPDEST JUMPDEST PUSH1 0x0 PUSH2 0xDF1 DUP5 DUP3 DUP6 ADD PUSH2 0xCEF JUMP JUMPDEST SWAP2 POP POP SWAP3 SWAP2 POP POP JUMP JUMPDEST PUSH1 0x0 PUSH2 0xE06 DUP4 DUP4 PUSH2 0xF8A JUMP JUMPDEST PUSH1 0x20 DUP4 ADD SWAP1 POP SWAP3 SWAP2 POP POP JUMP JUMPDEST PUSH2 0xE1B DUP2 PUSH2 0x1163 JUMP JUMPDEST DUP3 MSTORE POP POP JUMP JUMPDEST PUSH1 0x0 PUSH2 0xE2C DUP3 PUSH2 0x111E JUMP JUMPDEST PUSH2 0xE36 DUP2 DUP6 PUSH2 0x1141 JUMP JUMPDEST SWAP4 POP PUSH2 0xE41 DUP4 PUSH2 0x110E JUMP JUMPDEST DUP1 PUSH1 0x0 JUMPDEST DUP4 DUP2 LT ISZERO PUSH2 0xE72 JUMPI DUP2 MLOAD PUSH2 0xE59 DUP9 DUP3 PUSH2 0xDFA JUMP JUMPDEST SWAP8 POP PUSH2 0xE64 DUP4 PUSH2 0x1134 JUMP JUMPDEST SWAP3 POP POP PUSH1 0x1 DUP2 ADD SWAP1 POP PUSH2 0xE45 JUMP JUMPDEST POP DUP6 SWAP4 POP POP POP POP SWAP3 SWAP2 POP POP JUMP JUMPDEST PUSH1 0x0 PUSH2 0xE8A DUP3 PUSH2 0x1129 JUMP JUMPDEST PUSH2 0xE94 DUP2 DUP6 PUSH2 0x1152 JUMP JUMPDEST SWAP4 POP PUSH2 0xEA4 DUP2 DUP6 PUSH1 0x20 DUP7 ADD PUSH2 0x11AE JUMP JUMPDEST PUSH2 0xEAD DUP2 PUSH2 0x135D JUMP JUMPDEST DUP5 ADD SWAP2 POP POP SWAP3 SWAP2 POP POP JUMP JUMPDEST PUSH1 0x0 PUSH2 0xEC5 PUSH1 0x24 DUP4 PUSH2 0x1152 JUMP JUMPDEST SWAP2 POP PUSH2 0xED0 DUP3 PUSH2 0x136E JUMP JUMPDEST PUSH1 0x40 DUP3 ADD SWAP1 POP SWAP2 SWAP1 POP JUMP JUMPDEST PUSH1 0x0 PUSH2 0xEE8 PUSH1 0x13 DUP4 PUSH2 0x1152 JUMP JUMPDEST SWAP2 POP PUSH2 0xEF3 DUP3 PUSH2 0x13BD JUMP JUMPDEST PUSH1 0x20 DUP3 ADD SWAP1 POP SWAP2 SWAP1 POP JUMP JUMPDEST PUSH1 0x0 PUSH2 0xF0B PUSH1 0x13 DUP4 PUSH2 0x1152 JUMP JUMPDEST SWAP2 POP PUSH2 0xF16 DUP3 PUSH2 0x13E6 JUMP JUMPDEST PUSH1 0x20 DUP3 ADD SWAP1 POP SWAP2 SWAP1 POP JUMP JUMPDEST PUSH1 0x0 PUSH2 0xF2E PUSH1 0x17 DUP4 PUSH2 0x1152 JUMP JUMPDEST SWAP2 POP PUSH2 0xF39 DUP3 PUSH2 0x140F JUMP JUMPDEST PUSH1 0x20 DUP3 ADD SWAP1 POP SWAP2 SWAP1 POP JUMP JUMPDEST PUSH1 0x0 PUSH2 0xF51 PUSH1 0x18 DUP4 PUSH2 0x1152 JUMP JUMPDEST SWAP2 POP PUSH2 0xF5C DUP3 PUSH2 0x1438 JUMP JUMPDEST PUSH1 0x20 DUP3 ADD SWAP1 POP SWAP2 SWAP1 POP JUMP JUMPDEST PUSH1 0x0 PUSH2 0xF74 PUSH1 0x18 DUP4 PUSH2 0x1152 JUMP JUMPDEST SWAP2 POP PUSH2 0xF7F DUP3 PUSH2 0x1461 JUMP JUMPDEST PUSH1 0x20 DUP3 ADD SWAP1 POP SWAP2 SWAP1 POP JUMP JUMPDEST PUSH2 0xF93 DUP2 PUSH2 0x1195 JUMP JUMPDEST DUP3 MSTORE POP POP JUMP JUMPDEST PUSH1 0x0 PUSH1 0x20 DUP3 ADD SWAP1 POP PUSH2 0xFAE PUSH1 0x0 DUP4 ADD DUP5 PUSH2 0xE12 JUMP JUMPDEST SWAP3 SWAP2 POP POP JUMP JUMPDEST PUSH1 0x0 PUSH1 0x20 DUP3 ADD SWAP1 POP DUP2 DUP2 SUB PUSH1 0x0 DUP4 ADD MSTORE PUSH2 0xFCE DUP2 DUP5 PUSH2 0xE21 JUMP JUMPDEST SWAP1 POP SWAP3 SWAP2 POP POP JUMP JUMPDEST PUSH1 0x0 PUSH1 0x20 DUP3 ADD SWAP1 POP DUP2 DUP2 SUB PUSH1 0x0 DUP4 ADD MSTORE PUSH2 0xFF0 DUP2 DUP5 PUSH2 0xE7F JUMP JUMPDEST SWAP1 POP SWAP3 SWAP2 POP POP JUMP JUMPDEST PUSH1 0x0 PUSH1 0x20 DUP3 ADD SWAP1 POP DUP2 DUP2 SUB PUSH1 0x0 DUP4 ADD MSTORE PUSH2 0x1011 DUP2 PUSH2 0xEB8 JUMP JUMPDEST SWAP1 POP SWAP2 SWAP1 POP JUMP JUMPDEST PUSH1 0x0 PUSH1 0x20 DUP3 ADD SWAP1 POP DUP2 DUP2 SUB PUSH1 0x0 DUP4 ADD MSTORE PUSH2 0x1031 DUP2 PUSH2 0xEDB JUMP JUMPDEST SWAP1 POP SWAP2 SWAP1 POP JUMP JUMPDEST PUSH1 0x0 PUSH1 0x20 DUP3 ADD SWAP1 POP DUP2 DUP2 SUB PUSH1 0x0 DUP4 ADD MSTORE PUSH2 0x1051 DUP2 PUSH2 0xEFE JUMP JUMPDEST SWAP1 POP SWAP2 SWAP1 POP JUMP JUMPDEST PUSH1 0x0 PUSH1 0x20 DUP3 ADD SWAP1 POP DUP2 DUP2 SUB PUSH1 0x0 DUP4 ADD MSTORE PUSH2 0x1071 DUP2 PUSH2 0xF21 JUMP JUMPDEST SWAP1 POP SWAP2 SWAP1 POP JUMP JUMPDEST PUSH1 0x0 PUSH1 0x20 DUP3 ADD SWAP1 POP DUP2 DUP2 SUB PUSH1 0x0 DUP4 ADD MSTORE PUSH2 0x1091 DUP2 PUSH2 0xF44 JUMP JUMPDEST SWAP1 POP SWAP2 SWAP1 POP JUMP JUMPDEST PUSH1 0x0 PUSH1 0x20 DUP3 ADD SWAP1 POP DUP2 DUP2 SUB PUSH1 0x0 DUP4 ADD MSTORE PUSH2 0x10B1 DUP2 PUSH2 0xF67 JUMP JUMPDEST SWAP1 POP SWAP2 SWAP1 POP JUMP JUMPDEST PUSH1 0x0 PUSH2 0x10C2 PUSH2 0x10D3 JUMP JUMPDEST SWAP1 POP PUSH2 0x10CE DUP3 DUP3 PUSH2 0x1213 JUMP JUMPDEST SWAP2 SWAP1 POP JUMP JUMPDEST PUSH1 0x0 PUSH1 0x40 MLOAD SWAP1 POP SWAP1 JUMP JUMPDEST PUSH1 0x0 PUSH8 0xFFFFFFFFFFFFFFFF DUP3 GT ISZERO PUSH2 0x10F8 JUMPI PUSH2 0x10F7 PUSH2 0x131A JUMP JUMPDEST JUMPDEST PUSH2 0x1101 DUP3 PUSH2 0x135D JUMP JUMPDEST SWAP1 POP PUSH1 0x20 DUP2 ADD SWAP1 POP SWAP2 SWAP1 POP JUMP JUMPDEST PUSH1 0x0 DUP2 SWAP1 POP PUSH1 0x20 DUP3 ADD SWAP1 POP SWAP2 SWAP1 POP JUMP JUMPDEST PUSH1 0x0 DUP2 MLOAD SWAP1 POP SWAP2 SWAP1 POP JUMP JUMPDEST PUSH1 0x0 DUP2 MLOAD SWAP1 POP SWAP2 SWAP1 POP JUMP JUMPDEST PUSH1 0x0 PUSH1 0x20 DUP3 ADD SWAP1 POP SWAP2 SWAP1 POP JUMP JUMPDEST PUSH1 0x0 DUP3 DUP3 MSTORE PUSH1 0x20 DUP3 ADD SWAP1 POP SWAP3 SWAP2 POP POP JUMP JUMPDEST PUSH1 0x0 DUP3 DUP3 MSTORE PUSH1 0x20 DUP3 ADD SWAP1 POP SWAP3 SWAP2 POP POP JUMP JUMPDEST PUSH1 0x0 PUSH2 0x116E DUP3 PUSH2 0x1175 JUMP JUMPDEST SWAP1 POP SWAP2 SWAP1 POP JUMP JUMPDEST PUSH1 0x0 PUSH20 0xFFFFFFFFFFFFFFFFFFFFFFFFFFFFFFFFFFFFFFFF DUP3 AND SWAP1 POP SWAP2 SWAP1 POP JUMP JUMPDEST PUSH1 0x0 DUP2 SWAP1 POP SWAP2 SWAP1 POP JUMP JUMPDEST DUP3 DUP2 DUP4 CALLDATACOPY PUSH1 0x0 DUP4 DUP4 ADD MSTORE POP POP POP JUMP JUMPDEST PUSH1 0x0 JUMPDEST DUP4 DUP2 LT ISZERO PUSH2 0x11CC JUMPI DUP1 DUP3 ADD MLOAD DUP2 DUP5 ADD MSTORE PUSH1 0x20 DUP2 ADD SWAP1 POP PUSH2 0x11B1 JUMP JUMPDEST DUP4 DUP2 GT ISZERO PUSH2 0x11DB JUMPI PUSH1 0x0 DUP5 DUP5 ADD MSTORE JUMPDEST POP POP POP POP JUMP JUMPDEST PUSH1 0x0 PUSH1 0x2 DUP3 DIV SWAP1 POP PUSH1 0x1 DUP3 AND DUP1 PUSH2 0x11F9 JUMPI PUSH1 0x7F DUP3 AND SWAP2 POP JUMPDEST PUSH1 0x20 DUP3 LT DUP2 EQ ISZERO PUSH2 0x120D JUMPI PUSH2 0x120C PUSH2 0x12BC JUMP JUMPDEST JUMPDEST POP SWAP2 SWAP1 POP JUMP JUMPDEST PUSH2 0x121C DUP3 PUSH2 0x135D JUMP JUMPDEST DUP2 ADD DUP2 DUP2 LT PUSH8 0xFFFFFFFFFFFFFFFF DUP3 GT OR ISZERO PUSH2 0x123B JUMPI PUSH2 0x123A PUSH2 0x131A JUMP JUMPDEST JUMPDEST DUP1 PUSH1 0x40 MSTORE POP POP POP JUMP JUMPDEST PUSH1 0x0 PUSH2 0x124F DUP3 PUSH2 0x1195 JUMP JUMPDEST SWAP2 POP PUSH32 0xFFFFFFFFFFFFFFFFFFFFFFFFFFFFFFFFFFFFFFFFFFFFFFFFFFFFFFFFFFFFFFFF DUP3 EQ ISZERO PUSH2 0x1282 JUMPI PUSH2 0x1281 PUSH2 0x128D JUMP JUMPDEST JUMPDEST PUSH1 0x1 DUP3 ADD SWAP1 POP SWAP2 SWAP1 POP JUMP JUMPDEST PUSH32 0x4E487B7100000000000000000000000000000000000000000000000000000000 PUSH1 0x0 MSTORE PUSH1 0x11 PUSH1 0x4 MSTORE PUSH1 0x24 PUSH1 0x0 REVERT JUMPDEST PUSH32 0x4E487B7100000000000000000000000000000000000000000000000000000000 PUSH1 0x0 MSTORE PUSH1 0x22 PUSH1 0x4 MSTORE PUSH1 0x24 PUSH1 0x0 REVERT JUMPDEST PUSH32 0x4E487B7100000000000000000000000000000000000000000000000000000000 PUSH1 0x0 MSTORE PUSH1 0x32 PUSH1 0x4 MSTORE PUSH1 0x24 PUSH1 0x0 REVERT JUMPDEST PUSH32 0x4E487B7100000000000000000000000000000000000000000000000000000000 PUSH1 0x0 MSTORE PUSH1 0x41 PUSH1 0x4 MSTORE PUSH1 0x24 PUSH1 0x0 REVERT JUMPDEST PUSH1 0x0 DUP1 REVERT JUMPDEST PUSH1 0x0 DUP1 REVERT JUMPDEST PUSH1 0x0 DUP1 REVERT JUMPDEST PUSH1 0x0 DUP1 REVERT JUMPDEST PUSH1 0x0 PUSH1 0x1F NOT PUSH1 0x1F DUP4 ADD AND SWAP1 POP SWAP2 SWAP1 POP JUMP JUMPDEST PUSH32 0x4552433732313A207472616E7366657220746F20746865207A65726F20616464 PUSH1 0x0 DUP3 ADD MSTORE PUSH32 0x7265737300000000000000000000000000000000000000000000000000000000 PUSH1 0x20 DUP3 ADD MSTORE POP JUMP JUMPDEST PUSH32 0x746F6B656E20616C726561647920657869737400000000000000000000000000 PUSH1 0x0 DUP3 ADD MSTORE POP JUMP JUMPDEST PUSH32 0x746F6B656E20646F65736E277420657869737400000000000000000000000000 PUSH1 0x0 DUP3 ADD MSTORE POP JUMP JUMPDEST PUSH32 0x4E6F742063616C6C656420627920746865206F776E6572000000000000000000 PUSH1 0x0 DUP3 ADD MSTORE POP JUMP JUMPDEST PUSH32 0x4552433732313A20696E76616C696420746F6B656E2049440000000000000000 PUSH1 0x0 DUP3 ADD MSTORE POP JUMP JUMPDEST PUSH32 0x6D696E7420746F20746865207A65726F20616464726573730000000000000000 PUSH1 0x0 DUP3 ADD MSTORE POP JUMP JUMPDEST PUSH2 0x1493 DUP2 PUSH2 0x1163 JUMP JUMPDEST DUP2 EQ PUSH2 0x149E JUMPI PUSH1 0x0 DUP1 REVERT JUMPDEST POP JUMP JUMPDEST PUSH2 0x14AA DUP2 PUSH2 0x1195 JUMP JUMPDEST DUP2 EQ PUSH2 0x14B5 JUMPI PUSH1 0x0 DUP1 REVERT JUMPDEST POP JUMP INVALID LOG2 PUSH5 0x6970667358 0x22 SLT KECCAK256 0xBF GAS DUP4 ADD SWAP6 0xC7 DUP11 0xDF JUMP PUSH14 0xDCE71473C0D986941524364EA6AF REVERT 0xE1 PUSH19 0x53DBAEF6AF64736F6C63430008070033000000 "
				},
				"gasEstimates": {
					"creation": {
						"codeDepositCost": "1071600",
						"executionCost": "infinite",
						"totalCost": "infinite"
					},
					"external": {
						"mint(string)": "infinite",
						"name()": "infinite",
						"ownerOf(uint256)": "2959",
						"symbol()": "infinite",
						"tokenToUri(uint256)": "infinite",
						"transferFrom(address,address,uint256)": "infinite",
						"walletOfOwner(address)": "infinite"
					},
					"internal": {
						"_safeMint(address,uint256)": "infinite",
						"_setTokenUri(uint256,string memory)": "infinite"
					}
				},
				"methodIdentifiers": {
					"mint(string)": "d85d3d27",
					"name()": "06fdde03",
					"ownerOf(uint256)": "6352211e",
					"symbol()": "95d89b41",
					"tokenToUri(uint256)": "bf59b347",
					"transferFrom(address,address,uint256)": "23b872dd",
					"walletOfOwner(address)": "438b6300"
				}
			},
			"storageLayout": {
				"storage": [
					{
						"astId": 82,
						"contract": "contracts/GeekNft.sol:GeekNft",
						"label": "_name",
						"offset": 0,
						"slot": "0",
						"type": "t_string_storage"
					},
					{
						"astId": 84,
						"contract": "contracts/GeekNft.sol:GeekNft",
						"label": "_symbol",
						"offset": 0,
						"slot": "1",
						"type": "t_string_storage"
					},
					{
						"astId": 87,
						"contract": "contracts/GeekNft.sol:GeekNft",
						"label": "tokenIds",
						"offset": 0,
						"slot": "2",
						"type": "t_struct(Counter)5_storage"
					},
					{
						"astId": 89,
						"contract": "contracts/GeekNft.sol:GeekNft",
						"label": "marketplaceAddress",
						"offset": 0,
						"slot": "3",
						"type": "t_address"
					},
					{
						"astId": 93,
						"contract": "contracts/GeekNft.sol:GeekNft",
						"label": "tokensOwnerCount",
						"offset": 0,
						"slot": "4",
						"type": "t_mapping(t_address,t_uint256)"
					},
					{
						"astId": 97,
						"contract": "contracts/GeekNft.sol:GeekNft",
						"label": "tokenToOwner",
						"offset": 0,
						"slot": "5",
						"type": "t_mapping(t_uint256,t_address)"
					},
					{
						"astId": 101,
						"contract": "contracts/GeekNft.sol:GeekNft",
						"label": "tokensCreatorCount",
						"offset": 0,
						"slot": "6",
						"type": "t_mapping(t_address,t_uint256)"
					},
					{
						"astId": 105,
						"contract": "contracts/GeekNft.sol:GeekNft",
						"label": "tokenToCreator",
						"offset": 0,
						"slot": "7",
						"type": "t_mapping(t_uint256,t_address)"
					},
					{
						"astId": 109,
						"contract": "contracts/GeekNft.sol:GeekNft",
						"label": "tokenToUri",
						"offset": 0,
						"slot": "8",
						"type": "t_mapping(t_uint256,t_string_storage)"
					}
				],
				"types": {
					"t_address": {
						"encoding": "inplace",
						"label": "address",
						"numberOfBytes": "20"
					},
					"t_mapping(t_address,t_uint256)": {
						"encoding": "mapping",
						"key": "t_address",
						"label": "mapping(address => uint256)",
						"numberOfBytes": "32",
						"value": "t_uint256"
					},
					"t_mapping(t_uint256,t_address)": {
						"encoding": "mapping",
						"key": "t_uint256",
						"label": "mapping(uint256 => address)",
						"numberOfBytes": "32",
						"value": "t_address"
					},
					"t_mapping(t_uint256,t_string_storage)": {
						"encoding": "mapping",
						"key": "t_uint256",
						"label": "mapping(uint256 => string)",
						"numberOfBytes": "32",
						"value": "t_string_storage"
					},
					"t_string_storage": {
						"encoding": "bytes",
						"label": "string",
						"numberOfBytes": "32"
					},
					"t_struct(Counter)5_storage": {
						"encoding": "inplace",
						"label": "struct Counters.Counter",
						"members": [
							{
								"astId": 4,
								"contract": "contracts/GeekNft.sol:GeekNft",
								"label": "_value",
								"offset": 0,
								"slot": "0",
								"type": "t_uint256"
							}
						],
						"numberOfBytes": "32"
					},
					"t_uint256": {
						"encoding": "inplace",
						"label": "uint256",
						"numberOfBytes": "32"
					}
				}
			},
			"userdoc": {
				"kind": "user",
				"methods": {},
				"version": 1
			}
		}
	}
}