{
	"contracts/GeekNft.sol": {
		"GeekNft": {
			"abi": [
				{
					"inputs": [],
					"stateMutability": "nonpayable",
					"type": "constructor"
				},
				{
					"anonymous": false,
					"inputs": [
						{
							"indexed": true,
							"internalType": "address",
							"name": "_from",
							"type": "address"
						},
						{
							"indexed": true,
							"internalType": "address",
							"name": "_to",
							"type": "address"
						},
						{
							"indexed": false,
							"internalType": "uint256",
							"name": "_tokenId",
							"type": "uint256"
						}
					],
					"name": "Transfer",
					"type": "event"
				},
				{
					"inputs": [
						{
							"internalType": "address",
							"name": "_owner",
							"type": "address"
						}
					],
					"name": "balanceOf",
					"outputs": [
						{
							"internalType": "uint256",
							"name": "",
							"type": "uint256"
						}
					],
					"stateMutability": "view",
					"type": "function"
				},
				{
					"inputs": [
						{
							"internalType": "uint256",
							"name": "_price",
							"type": "uint256"
						},
						{
							"internalType": "uint256",
							"name": "_catId",
							"type": "uint256"
						}
					],
					"name": "createItem",
					"outputs": [
						{
							"internalType": "uint256",
							"name": "",
							"type": "uint256"
						}
					],
					"stateMutability": "nonpayable",
					"type": "function"
				},
				{
					"inputs": [],
					"name": "fetchItemsToSell",
					"outputs": [
						{
							"components": [
								{
									"internalType": "uint256",
									"name": "tokenId",
									"type": "uint256"
								},
								{
									"internalType": "uint256",
									"name": "price",
									"type": "uint256"
								},
								{
									"internalType": "uint256",
									"name": "catId",
									"type": "uint256"
								},
								{
									"internalType": "bool",
									"name": "toSell",
									"type": "bool"
								}
							],
							"internalType": "struct GeekNft.Item[]",
							"name": "",
							"type": "tuple[]"
						}
					],
					"stateMutability": "view",
					"type": "function"
				},
				{
					"inputs": [],
					"name": "getFeesPercentage",
					"outputs": [
						{
							"internalType": "uint256",
							"name": "",
							"type": "uint256"
						}
					],
					"stateMutability": "view",
					"type": "function"
				},
				{
					"inputs": [
						{
							"internalType": "uint256",
							"name": "",
							"type": "uint256"
						}
					],
					"name": "itemToOwner",
					"outputs": [
						{
							"internalType": "address",
							"name": "",
							"type": "address"
						}
					],
					"stateMutability": "view",
					"type": "function"
				},
				{
					"inputs": [
						{
							"internalType": "uint256",
							"name": "",
							"type": "uint256"
						}
					],
					"name": "items",
					"outputs": [
						{
							"internalType": "uint256",
							"name": "tokenId",
							"type": "uint256"
						},
						{
							"internalType": "uint256",
							"name": "price",
							"type": "uint256"
						},
						{
							"internalType": "uint256",
							"name": "catId",
							"type": "uint256"
						},
						{
							"internalType": "bool",
							"name": "toSell",
							"type": "bool"
						}
					],
					"stateMutability": "view",
					"type": "function"
				},
				{
					"inputs": [
						{
							"internalType": "uint256",
							"name": "",
							"type": "uint256"
						}
					],
					"name": "itemsCatIdCount",
					"outputs": [
						{
							"internalType": "uint256",
							"name": "",
							"type": "uint256"
						}
					],
					"stateMutability": "view",
					"type": "function"
				},
				{
					"inputs": [
						{
							"internalType": "address",
							"name": "",
							"type": "address"
						}
					],
					"name": "itemsOwnerCount",
					"outputs": [
						{
							"internalType": "uint256",
							"name": "",
							"type": "uint256"
						}
					],
					"stateMutability": "view",
					"type": "function"
				},
				{
					"inputs": [],
					"name": "itemsToSellCount",
					"outputs": [
						{
							"internalType": "uint256",
							"name": "",
							"type": "uint256"
						}
					],
					"stateMutability": "view",
					"type": "function"
				},
				{
					"inputs": [
						{
							"internalType": "uint256",
							"name": "_newPercentage",
							"type": "uint256"
						}
					],
					"name": "modifyFeesPercentage",
					"outputs": [],
					"stateMutability": "nonpayable",
					"type": "function"
				},
				{
					"inputs": [
						{
							"internalType": "uint256",
							"name": "_tokenId",
							"type": "uint256"
						}
					],
					"name": "ownerOf",
					"outputs": [
						{
							"internalType": "address",
							"name": "",
							"type": "address"
						}
					],
					"stateMutability": "view",
					"type": "function"
				},
				{
					"inputs": [
						{
							"internalType": "uint256",
							"name": "_tokenId",
							"type": "uint256"
						}
					],
					"name": "sellItem",
					"outputs": [],
					"stateMutability": "payable",
					"type": "function"
				}
			],
			"devdoc": {
				"kind": "dev",
				"methods": {},
				"version": 1
			},
			"evm": {
				"assembly": "    /* \"contracts/GeekNft.sol\":56:3219  contract GeekNft {... */\n  mstore(0x40, 0x80)\n    /* \"contracts/GeekNft.sol\":558:663  constructor() {... */\n  callvalue\n  dup1\n  iszero\n  tag_1\n  jumpi\n  0x00\n  dup1\n  revert\ntag_1:\n  pop\n    /* \"contracts/GeekNft.sol\":590:600  msg.sender */\n  caller\n    /* \"contracts/GeekNft.sol\":582:587  owner */\n  0x02\n  0x00\n    /* \"contracts/GeekNft.sol\":582:600  owner = msg.sender */\n  0x0100\n  exp\n  dup2\n  sload\n  dup2\n  0xffffffffffffffffffffffffffffffffffffffff\n  mul\n  not\n  and\n  swap1\n  dup4\n  0xffffffffffffffffffffffffffffffffffffffff\n  and\n  mul\n  or\n  swap1\n  sstore\n  pop\n    /* \"contracts/GeekNft.sol\":610:630  name = \"Geek Tokens\" */\n  mload(0x40)\n  dup1\n  0x40\n  add\n  0x40\n  mstore\n  dup1\n  0x0b\n  dup2\n  mstore\n  0x20\n  add\n  0x4765656b20546f6b656e73000000000000000000000000000000000000000000\n  dup2\n  mstore\n  pop\n    /* \"contracts/GeekNft.sol\":610:614  name */\n  0x00\n    /* \"contracts/GeekNft.sol\":610:630  name = \"Geek Tokens\" */\n  swap1\n  dup1\n  mload\n  swap1\n  0x20\n  add\n  swap1\n  tag_4\n  swap3\n  swap2\n  swap1\n  tag_5\n  jump\t// in\ntag_4:\n  pop\n    /* \"contracts/GeekNft.sol\":640:656  symbol = \"GEEKT\" */\n  mload(0x40)\n  dup1\n  0x40\n  add\n  0x40\n  mstore\n  dup1\n  0x05\n  dup2\n  mstore\n  0x20\n  add\n  0x4745454b54000000000000000000000000000000000000000000000000000000\n  dup2\n  mstore\n  pop\n    /* \"contracts/GeekNft.sol\":640:646  symbol */\n  0x01\n    /* \"contracts/GeekNft.sol\":640:656  symbol = \"GEEKT\" */\n  swap1\n  dup1\n  mload\n  swap1\n  0x20\n  add\n  swap1\n  tag_6\n  swap3\n  swap2\n  swap1\n  tag_5\n  jump\t// in\ntag_6:\n  pop\n    /* \"contracts/GeekNft.sol\":56:3219  contract GeekNft {... */\n  jump(tag_7)\ntag_5:\n  dup3\n  dup1\n  sload\n  tag_8\n  swap1\n  tag_9\n  jump\t// in\ntag_8:\n  swap1\n  0x00\n  mstore\n  keccak256(0x00, 0x20)\n  swap1\n  0x1f\n  add\n  0x20\n  swap1\n  div\n  dup2\n  add\n  swap3\n  dup3\n  tag_11\n  jumpi\n  0x00\n  dup6\n  sstore\n  jump(tag_10)\ntag_11:\n  dup3\n  0x1f\n  lt\n  tag_12\n  jumpi\n  dup1\n  mload\n  not(0xff)\n  and\n  dup4\n  dup1\n  add\n  or\n  dup6\n  sstore\n  jump(tag_10)\ntag_12:\n  dup3\n  dup1\n  add\n  0x01\n  add\n  dup6\n  sstore\n  dup3\n  iszero\n  tag_10\n  jumpi\n  swap2\n  dup3\n  add\ntag_13:\n  dup3\n  dup2\n  gt\n  iszero\n  tag_14\n  jumpi\n  dup3\n  mload\n  dup3\n  sstore\n  swap2\n  0x20\n  add\n  swap2\n  swap1\n  0x01\n  add\n  swap1\n  jump(tag_13)\ntag_14:\ntag_10:\n  pop\n  swap1\n  pop\n  tag_15\n  swap2\n  swap1\n  tag_16\n  jump\t// in\ntag_15:\n  pop\n  swap1\n  jump\t// out\ntag_16:\ntag_17:\n  dup1\n  dup3\n  gt\n  iszero\n  tag_18\n  jumpi\n  0x00\n  dup2\n  0x00\n  swap1\n  sstore\n  pop\n  0x01\n  add\n  jump(tag_17)\ntag_18:\n  pop\n  swap1\n  jump\t// out\n    /* \"#utility.yul\":7:327   */\ntag_9:\n  0x00\n    /* \"#utility.yul\":88:89   */\n  0x02\n    /* \"#utility.yul\":82:86   */\n  dup3\n    /* \"#utility.yul\":78:90   */\n  div\n    /* \"#utility.yul\":68:90   */\n  swap1\n  pop\n    /* \"#utility.yul\":135:136   */\n  0x01\n    /* \"#utility.yul\":129:133   */\n  dup3\n    /* \"#utility.yul\":125:137   */\n  and\n    /* \"#utility.yul\":156:174   */\n  dup1\n    /* \"#utility.yul\":146:148   */\n  tag_21\n  jumpi\n    /* \"#utility.yul\":212:216   */\n  0x7f\n    /* \"#utility.yul\":204:210   */\n  dup3\n    /* \"#utility.yul\":200:217   */\n  and\n    /* \"#utility.yul\":190:217   */\n  swap2\n  pop\n    /* \"#utility.yul\":146:148   */\ntag_21:\n    /* \"#utility.yul\":274:276   */\n  0x20\n    /* \"#utility.yul\":266:272   */\n  dup3\n    /* \"#utility.yul\":263:277   */\n  lt\n    /* \"#utility.yul\":243:261   */\n  dup2\n    /* \"#utility.yul\":240:278   */\n  eq\n    /* \"#utility.yul\":237:239   */\n  iszero\n  tag_22\n  jumpi\n    /* \"#utility.yul\":293:311   */\n  tag_23\n  tag_24\n  jump\t// in\ntag_23:\n    /* \"#utility.yul\":237:239   */\ntag_22:\n    /* \"#utility.yul\":58:327   */\n  pop\n  swap2\n  swap1\n  pop\n  jump\t// out\n    /* \"#utility.yul\":333:513   */\ntag_24:\n    /* \"#utility.yul\":381:458   */\n  0x4e487b7100000000000000000000000000000000000000000000000000000000\n    /* \"#utility.yul\":378:379   */\n  0x00\n    /* \"#utility.yul\":371:459   */\n  mstore\n    /* \"#utility.yul\":478:482   */\n  0x22\n    /* \"#utility.yul\":475:476   */\n  0x04\n    /* \"#utility.yul\":468:483   */\n  mstore\n    /* \"#utility.yul\":502:506   */\n  0x24\n    /* \"#utility.yul\":499:500   */\n  0x00\n    /* \"#utility.yul\":492:507   */\n  revert\n    /* \"contracts/GeekNft.sol\":56:3219  contract GeekNft {... */\ntag_7:\n  dataSize(sub_0)\n  dup1\n  dataOffset(sub_0)\n  0x00\n  codecopy\n  0x00\n  return\nstop\n\nsub_0: assembly {\n        /* \"contracts/GeekNft.sol\":56:3219  contract GeekNft {... */\n      mstore(0x40, 0x80)\n      jumpi(tag_1, lt(calldatasize, 0x04))\n      shr(0xe0, calldataload(0x00))\n      dup1\n      0x91b6be9a\n      gt\n      tag_14\n      jumpi\n      dup1\n      0x91b6be9a\n      eq\n      tag_8\n      jumpi\n      dup1\n      0xadae08dd\n      eq\n      tag_9\n      jumpi\n      dup1\n      0xbfb231d2\n      eq\n      tag_10\n      jumpi\n      dup1\n      0xc3921895\n      eq\n      tag_11\n      jumpi\n      dup1\n      0xd48644bd\n      eq\n      tag_12\n      jumpi\n      dup1\n      0xea0ff14a\n      eq\n      tag_13\n      jumpi\n      jump(tag_1)\n    tag_14:\n      dup1\n      0x073e74df\n      eq\n      tag_2\n      jumpi\n      dup1\n      0x1a4d96cd\n      eq\n      tag_3\n      jumpi\n      dup1\n      0x29de6246\n      eq\n      tag_4\n      jumpi\n      dup1\n      0x4c389e65\n      eq\n      tag_5\n      jumpi\n      dup1\n      0x6352211e\n      eq\n      tag_6\n      jumpi\n      dup1\n      0x70a08231\n      eq\n      tag_7\n      jumpi\n    tag_1:\n      0x00\n      dup1\n      revert\n        /* \"contracts/GeekNft.sol\":2739:2923  function fetchItemsToSell() public view returns (Item[] memory){... */\n    tag_2:\n      callvalue\n      dup1\n      iszero\n      tag_15\n      jumpi\n      0x00\n      dup1\n      revert\n    tag_15:\n      pop\n      tag_16\n      tag_17\n      jump\t// in\n    tag_16:\n      mload(0x40)\n      tag_18\n      swap2\n      swap1\n      tag_19\n      jump\t// in\n    tag_18:\n      mload(0x40)\n      dup1\n      swap2\n      sub\n      swap1\n      return\n        /* \"contracts/GeekNft.sol\":405:448  mapping(uint => address) public itemToOwner */\n    tag_3:\n      callvalue\n      dup1\n      iszero\n      tag_20\n      jumpi\n      0x00\n      dup1\n      revert\n    tag_20:\n      pop\n      tag_21\n      0x04\n      dup1\n      calldatasize\n      sub\n      dup2\n      add\n      swap1\n      tag_22\n      swap2\n      swap1\n      tag_23\n      jump\t// in\n    tag_22:\n      tag_24\n      jump\t// in\n    tag_21:\n      mload(0x40)\n      tag_25\n      swap2\n      swap1\n      tag_26\n      jump\t// in\n    tag_25:\n      mload(0x40)\n      dup1\n      swap2\n      sub\n      swap1\n      return\n        /* \"contracts/GeekNft.sol\":946:1069  function modifyFeesPercentage(uint _newPercentage) public onlyContractOwner{... */\n    tag_4:\n      callvalue\n      dup1\n      iszero\n      tag_27\n      jumpi\n      0x00\n      dup1\n      revert\n    tag_27:\n      pop\n      tag_28\n      0x04\n      dup1\n      calldatasize\n      sub\n      dup2\n      add\n      swap1\n      tag_29\n      swap2\n      swap1\n      tag_23\n      jump\t// in\n    tag_29:\n      tag_30\n      jump\t// in\n    tag_28:\n      stop\n        /* \"contracts/GeekNft.sol\":346:374  uint public itemsToSellCount */\n    tag_5:\n      callvalue\n      dup1\n      iszero\n      tag_31\n      jumpi\n      0x00\n      dup1\n      revert\n    tag_31:\n      pop\n      tag_32\n      tag_33\n      jump\t// in\n    tag_32:\n      mload(0x40)\n      tag_34\n      swap2\n      swap1\n      tag_35\n      jump\t// in\n    tag_34:\n      mload(0x40)\n      dup1\n      swap2\n      sub\n      swap1\n      return\n        /* \"contracts/GeekNft.sol\":2513:2619  function ownerOf(uint _tokenId) public view returns (address){... */\n    tag_6:\n      callvalue\n      dup1\n      iszero\n      tag_36\n      jumpi\n      0x00\n      dup1\n      revert\n    tag_36:\n      pop\n      tag_37\n      0x04\n      dup1\n      calldatasize\n      sub\n      dup2\n      add\n      swap1\n      tag_38\n      swap2\n      swap1\n      tag_23\n      jump\t// in\n    tag_38:\n      tag_39\n      jump\t// in\n    tag_37:\n      mload(0x40)\n      tag_40\n      swap2\n      swap1\n      tag_26\n      jump\t// in\n    tag_40:\n      mload(0x40)\n      dup1\n      swap2\n      sub\n      swap1\n      return\n        /* \"contracts/GeekNft.sol\":2625:2733  function balanceOf(address _owner) public view returns (uint){... */\n    tag_7:\n      callvalue\n      dup1\n      iszero\n      tag_41\n      jumpi\n      0x00\n      dup1\n      revert\n    tag_41:\n      pop\n      tag_42\n      0x04\n      dup1\n      calldatasize\n      sub\n      dup2\n      add\n      swap1\n      tag_43\n      swap2\n      swap1\n      tag_44\n      jump\t// in\n    tag_43:\n      tag_45\n      jump\t// in\n    tag_42:\n      mload(0x40)\n      tag_46\n      swap2\n      swap1\n      tag_35\n      jump\t// in\n    tag_46:\n      mload(0x40)\n      dup1\n      swap2\n      sub\n      swap1\n      return\n        /* \"contracts/GeekNft.sol\":1721:2507  function sellItem(uint _tokenId) public payable{... */\n    tag_8:\n      tag_47\n      0x04\n      dup1\n      calldatasize\n      sub\n      dup2\n      add\n      swap1\n      tag_48\n      swap2\n      swap1\n      tag_23\n      jump\t// in\n    tag_48:\n      tag_49\n      jump\t// in\n    tag_47:\n      stop\n        /* \"contracts/GeekNft.sol\":1175:1715  function createItem(uint _price, uint _catId) public returns (uint){... */\n    tag_9:\n      callvalue\n      dup1\n      iszero\n      tag_50\n      jumpi\n      0x00\n      dup1\n      revert\n    tag_50:\n      pop\n      tag_51\n      0x04\n      dup1\n      calldatasize\n      sub\n      dup2\n      add\n      swap1\n      tag_52\n      swap2\n      swap1\n      tag_53\n      jump\t// in\n    tag_52:\n      tag_54\n      jump\t// in\n    tag_51:\n      mload(0x40)\n      tag_55\n      swap2\n      swap1\n      tag_35\n      jump\t// in\n    tag_55:\n      mload(0x40)\n      dup1\n      swap2\n      sub\n      swap1\n      return\n        /* \"contracts/GeekNft.sol\":321:340  Item[] public items */\n    tag_10:\n      callvalue\n      dup1\n      iszero\n      tag_56\n      jumpi\n      0x00\n      dup1\n      revert\n    tag_56:\n      pop\n      tag_57\n      0x04\n      dup1\n      calldatasize\n      sub\n      dup2\n      add\n      swap1\n      tag_58\n      swap2\n      swap1\n      tag_23\n      jump\t// in\n    tag_58:\n      tag_59\n      jump\t// in\n    tag_57:\n      mload(0x40)\n      tag_60\n      swap5\n      swap4\n      swap3\n      swap2\n      swap1\n      tag_61\n      jump\t// in\n    tag_60:\n      mload(0x40)\n      dup1\n      swap2\n      sub\n      swap1\n      return\n        /* \"contracts/GeekNft.sol\":454:501  mapping(address => uint) public itemsOwnerCount */\n    tag_11:\n      callvalue\n      dup1\n      iszero\n      tag_62\n      jumpi\n      0x00\n      dup1\n      revert\n    tag_62:\n      pop\n      tag_63\n      0x04\n      dup1\n      calldatasize\n      sub\n      dup2\n      add\n      swap1\n      tag_64\n      swap2\n      swap1\n      tag_44\n      jump\t// in\n    tag_64:\n      tag_65\n      jump\t// in\n    tag_63:\n      mload(0x40)\n      tag_66\n      swap2\n      swap1\n      tag_35\n      jump\t// in\n    tag_66:\n      mload(0x40)\n      dup1\n      swap2\n      sub\n      swap1\n      return\n        /* \"contracts/GeekNft.sol\":507:551  mapping(uint => uint) public itemsCatIdCount */\n    tag_12:\n      callvalue\n      dup1\n      iszero\n      tag_67\n      jumpi\n      0x00\n      dup1\n      revert\n    tag_67:\n      pop\n      tag_68\n      0x04\n      dup1\n      calldatasize\n      sub\n      dup2\n      add\n      swap1\n      tag_69\n      swap2\n      swap1\n      tag_23\n      jump\t// in\n    tag_69:\n      tag_70\n      jump\t// in\n    tag_68:\n      mload(0x40)\n      tag_71\n      swap2\n      swap1\n      tag_35\n      jump\t// in\n    tag_71:\n      mload(0x40)\n      dup1\n      swap2\n      sub\n      swap1\n      return\n        /* \"contracts/GeekNft.sol\":1075:1169  function getFeesPercentage() public view returns (uint) {... */\n    tag_13:\n      callvalue\n      dup1\n      iszero\n      tag_72\n      jumpi\n      0x00\n      dup1\n      revert\n    tag_72:\n      pop\n      tag_73\n      tag_74\n      jump\t// in\n    tag_73:\n      mload(0x40)\n      tag_75\n      swap2\n      swap1\n      tag_35\n      jump\t// in\n    tag_75:\n      mload(0x40)\n      dup1\n      swap2\n      sub\n      swap1\n      return\n        /* \"contracts/GeekNft.sol\":2739:2923  function fetchItemsToSell() public view returns (Item[] memory){... */\n    tag_17:\n        /* \"contracts/GeekNft.sol\":2788:2801  Item[] memory */\n      0x60\n        /* \"contracts/GeekNft.sol\":2812:2824  uint counter */\n      0x00\n        /* \"contracts/GeekNft.sol\":2838:2858  Item[] memory result */\n      dup1\n        /* \"contracts/GeekNft.sol\":2872:2888  itemsToSellCount */\n      sload(0x04)\n        /* \"contracts/GeekNft.sol\":2861:2889  new Item[](itemsToSellCount) */\n      0xffffffffffffffff\n      dup2\n      gt\n      iszero\n      tag_77\n      jumpi\n      mstore(0x00, 0x4e487b7100000000000000000000000000000000000000000000000000000000)\n      mstore(0x04, 0x41)\n      revert(0x00, 0x24)\n    tag_77:\n      mload(0x40)\n      swap1\n      dup1\n      dup3\n      mstore\n      dup1\n      0x20\n      mul\n      0x20\n      add\n      dup3\n      add\n      0x40\n      mstore\n      dup1\n      iszero\n      tag_78\n      jumpi\n      dup2\n      0x20\n      add\n    tag_79:\n      tag_80\n      tag_81\n      jump\t// in\n    tag_80:\n      dup2\n      mstore\n      0x20\n      add\n      swap1\n      0x01\n      swap1\n      sub\n      swap1\n      dup2\n      tag_79\n      jumpi\n      swap1\n      pop\n    tag_78:\n      pop\n        /* \"contracts/GeekNft.sol\":2838:2889  Item[] memory result = new Item[](itemsToSellCount) */\n      swap1\n      pop\n        /* \"contracts/GeekNft.sol\":2910:2916  result */\n      dup1\n        /* \"contracts/GeekNft.sol\":2903:2916  return result */\n      swap3\n      pop\n      pop\n      pop\n        /* \"contracts/GeekNft.sol\":2739:2923  function fetchItemsToSell() public view returns (Item[] memory){... */\n      swap1\n      jump\t// out\n        /* \"contracts/GeekNft.sol\":405:448  mapping(uint => address) public itemToOwner */\n    tag_24:\n      mstore(0x20, 0x06)\n      dup1\n      0x00\n      mstore\n      keccak256(0x00, 0x40)\n      0x00\n      swap2\n      pop\n      sload\n      swap1\n      0x0100\n      exp\n      swap1\n      div\n      0xffffffffffffffffffffffffffffffffffffffff\n      and\n      dup2\n      jump\t// out\n        /* \"contracts/GeekNft.sol\":946:1069  function modifyFeesPercentage(uint _newPercentage) public onlyContractOwner{... */\n    tag_30:\n        /* \"contracts/GeekNft.sol\":730:735  owner */\n      0x02\n      0x00\n      swap1\n      sload\n      swap1\n      0x0100\n      exp\n      swap1\n      div\n      0xffffffffffffffffffffffffffffffffffffffff\n      and\n        /* \"contracts/GeekNft.sol\":716:735  msg.sender == owner */\n      0xffffffffffffffffffffffffffffffffffffffff\n      and\n        /* \"contracts/GeekNft.sol\":716:726  msg.sender */\n      caller\n        /* \"contracts/GeekNft.sol\":716:735  msg.sender == owner */\n      0xffffffffffffffffffffffffffffffffffffffff\n      and\n      eq\n        /* \"contracts/GeekNft.sol\":708:773  require(msg.sender == owner, \"Only contract's owner can do that\") */\n      tag_83\n      jumpi\n      mload(0x40)\n      0x08c379a000000000000000000000000000000000000000000000000000000000\n      dup2\n      mstore\n      0x04\n      add\n      tag_84\n      swap1\n      tag_85\n      jump\t// in\n    tag_84:\n      mload(0x40)\n      dup1\n      swap2\n      sub\n      swap1\n      revert\n    tag_83:\n        /* \"contracts/GeekNft.sol\":1048:1062  _newPercentage */\n      dup1\n        /* \"contracts/GeekNft.sol\":1031:1045  feesPercentage */\n      0x05\n        /* \"contracts/GeekNft.sol\":1031:1062  feesPercentage = _newPercentage */\n      dup2\n      swap1\n      sstore\n      pop\n        /* \"contracts/GeekNft.sol\":946:1069  function modifyFeesPercentage(uint _newPercentage) public onlyContractOwner{... */\n      pop\n      jump\t// out\n        /* \"contracts/GeekNft.sol\":346:374  uint public itemsToSellCount */\n    tag_33:\n      sload(0x04)\n      dup2\n      jump\t// out\n        /* \"contracts/GeekNft.sol\":2513:2619  function ownerOf(uint _tokenId) public view returns (address){... */\n    tag_39:\n        /* \"contracts/GeekNft.sol\":2566:2573  address */\n      0x00\n        /* \"contracts/GeekNft.sol\":2591:2602  itemToOwner */\n      0x06\n        /* \"contracts/GeekNft.sol\":2591:2612  itemToOwner[_tokenId] */\n      0x00\n        /* \"contracts/GeekNft.sol\":2603:2611  _tokenId */\n      dup4\n        /* \"contracts/GeekNft.sol\":2591:2612  itemToOwner[_tokenId] */\n      dup2\n      mstore\n      0x20\n      add\n      swap1\n      dup2\n      mstore\n      0x20\n      add\n      0x00\n      keccak256\n      0x00\n      swap1\n      sload\n      swap1\n      0x0100\n      exp\n      swap1\n      div\n      0xffffffffffffffffffffffffffffffffffffffff\n      and\n        /* \"contracts/GeekNft.sol\":2584:2612  return itemToOwner[_tokenId] */\n      swap1\n      pop\n        /* \"contracts/GeekNft.sol\":2513:2619  function ownerOf(uint _tokenId) public view returns (address){... */\n      swap2\n      swap1\n      pop\n      jump\t// out\n        /* \"contracts/GeekNft.sol\":2625:2733  function balanceOf(address _owner) public view returns (uint){... */\n    tag_45:\n        /* \"contracts/GeekNft.sol\":2681:2685  uint */\n      0x00\n        /* \"contracts/GeekNft.sol\":2703:2718  itemsOwnerCount */\n      0x07\n        /* \"contracts/GeekNft.sol\":2703:2726  itemsOwnerCount[_owner] */\n      0x00\n        /* \"contracts/GeekNft.sol\":2719:2725  _owner */\n      dup4\n        /* \"contracts/GeekNft.sol\":2703:2726  itemsOwnerCount[_owner] */\n      0xffffffffffffffffffffffffffffffffffffffff\n      and\n      0xffffffffffffffffffffffffffffffffffffffff\n      and\n      dup2\n      mstore\n      0x20\n      add\n      swap1\n      dup2\n      mstore\n      0x20\n      add\n      0x00\n      keccak256\n      sload\n        /* \"contracts/GeekNft.sol\":2696:2726  return itemsOwnerCount[_owner] */\n      swap1\n      pop\n        /* \"contracts/GeekNft.sol\":2625:2733  function balanceOf(address _owner) public view returns (uint){... */\n      swap2\n      swap1\n      pop\n      jump\t// out\n        /* \"contracts/GeekNft.sol\":1721:2507  function sellItem(uint _tokenId) public payable{... */\n    tag_49:\n        /* \"contracts/GeekNft.sol\":1799:1804  items */\n      0x03\n        /* \"contracts/GeekNft.sol\":1805:1813  _tokenId */\n      dup2\n        /* \"contracts/GeekNft.sol\":1799:1814  items[_tokenId] */\n      dup2\n      sload\n      dup2\n      lt\n      tag_90\n      jumpi\n      mstore(0x00, 0x4e487b7100000000000000000000000000000000000000000000000000000000)\n      mstore(0x04, 0x32)\n      revert(0x00, 0x24)\n    tag_90:\n      swap1\n      0x00\n      mstore\n      keccak256(0x00, 0x20)\n      swap1\n      0x04\n      mul\n      add\n        /* \"contracts/GeekNft.sol\":1799:1820  items[_tokenId].price */\n      0x01\n      add\n      sload\n        /* \"contracts/GeekNft.sol\":1786:1795  msg.value */\n      callvalue\n        /* \"contracts/GeekNft.sol\":1786:1820  msg.value == items[_tokenId].price */\n      eq\n        /* \"contracts/GeekNft.sol\":1778:1821  require(msg.value == items[_tokenId].price) */\n      tag_92\n      jumpi\n      0x00\n      dup1\n      revert\n    tag_92:\n        /* \"contracts/GeekNft.sol\":1872:1873  0 */\n      0x00\n        /* \"contracts/GeekNft.sol\":1839:1874  itemToOwner[_tokenId] != address(0) */\n      0xffffffffffffffffffffffffffffffffffffffff\n      and\n        /* \"contracts/GeekNft.sol\":1839:1850  itemToOwner */\n      0x06\n        /* \"contracts/GeekNft.sol\":1839:1860  itemToOwner[_tokenId] */\n      0x00\n        /* \"contracts/GeekNft.sol\":1851:1859  _tokenId */\n      dup4\n        /* \"contracts/GeekNft.sol\":1839:1860  itemToOwner[_tokenId] */\n      dup2\n      mstore\n      0x20\n      add\n      swap1\n      dup2\n      mstore\n      0x20\n      add\n      0x00\n      keccak256\n      0x00\n      swap1\n      sload\n      swap1\n      0x0100\n      exp\n      swap1\n      div\n      0xffffffffffffffffffffffffffffffffffffffff\n      and\n        /* \"contracts/GeekNft.sol\":1839:1874  itemToOwner[_tokenId] != address(0) */\n      0xffffffffffffffffffffffffffffffffffffffff\n      and\n      eq\n      iszero\n        /* \"contracts/GeekNft.sol\":1831:1898  require(itemToOwner[_tokenId] != address(0), \"token doesn't exist\") */\n      tag_93\n      jumpi\n      mload(0x40)\n      0x08c379a000000000000000000000000000000000000000000000000000000000\n      dup2\n      mstore\n      0x04\n      add\n      tag_94\n      swap1\n      tag_95\n      jump\t// in\n    tag_94:\n      mload(0x40)\n      dup1\n      swap2\n      sub\n      swap1\n      revert\n    tag_93:\n        /* \"contracts/GeekNft.sol\":1909:1925  address oldOwner */\n      0x00\n        /* \"contracts/GeekNft.sol\":1928:1939  itemToOwner */\n      0x06\n        /* \"contracts/GeekNft.sol\":1928:1949  itemToOwner[_tokenId] */\n      0x00\n        /* \"contracts/GeekNft.sol\":1940:1948  _tokenId */\n      dup4\n        /* \"contracts/GeekNft.sol\":1928:1949  itemToOwner[_tokenId] */\n      dup2\n      mstore\n      0x20\n      add\n      swap1\n      dup2\n      mstore\n      0x20\n      add\n      0x00\n      keccak256\n      0x00\n      swap1\n      sload\n      swap1\n      0x0100\n      exp\n      swap1\n      div\n      0xffffffffffffffffffffffffffffffffffffffff\n      and\n        /* \"contracts/GeekNft.sol\":1909:1949  address oldOwner = itemToOwner[_tokenId] */\n      swap1\n      pop\n        /* \"contracts/GeekNft.sol\":1968:1991  Item storage itemToSell */\n      0x00\n        /* \"contracts/GeekNft.sol\":1994:1999  items */\n      0x03\n        /* \"contracts/GeekNft.sol\":2000:2008  _tokenId */\n      dup4\n        /* \"contracts/GeekNft.sol\":1994:2009  items[_tokenId] */\n      dup2\n      sload\n      dup2\n      lt\n      tag_96\n      jumpi\n      mstore(0x00, 0x4e487b7100000000000000000000000000000000000000000000000000000000)\n      mstore(0x04, 0x32)\n      revert(0x00, 0x24)\n    tag_96:\n      swap1\n      0x00\n      mstore\n      keccak256(0x00, 0x20)\n      swap1\n      0x04\n      mul\n      add\n        /* \"contracts/GeekNft.sol\":1968:2009  Item storage itemToSell = items[_tokenId] */\n      swap1\n      pop\n        /* \"contracts/GeekNft.sol\":2039:2044  false */\n      0x00\n        /* \"contracts/GeekNft.sol\":2019:2029  itemToSell */\n      dup2\n        /* \"contracts/GeekNft.sol\":2019:2036  itemToSell.toSell */\n      0x03\n      add\n      0x00\n        /* \"contracts/GeekNft.sol\":2019:2044  itemToSell.toSell = false */\n      0x0100\n      exp\n      dup2\n      sload\n      dup2\n      0xff\n      mul\n      not\n      and\n      swap1\n      dup4\n      iszero\n      iszero\n      mul\n      or\n      swap1\n      sstore\n      pop\n        /* \"contracts/GeekNft.sol\":2079:2089  msg.sender */\n      caller\n        /* \"contracts/GeekNft.sol\":2055:2066  itemToOwner */\n      0x06\n        /* \"contracts/GeekNft.sol\":2055:2076  itemToOwner[_tokenId] */\n      0x00\n        /* \"contracts/GeekNft.sol\":2067:2075  _tokenId */\n      dup6\n        /* \"contracts/GeekNft.sol\":2055:2076  itemToOwner[_tokenId] */\n      dup2\n      mstore\n      0x20\n      add\n      swap1\n      dup2\n      mstore\n      0x20\n      add\n      0x00\n      keccak256\n      0x00\n        /* \"contracts/GeekNft.sol\":2055:2089  itemToOwner[_tokenId] = msg.sender */\n      0x0100\n      exp\n      dup2\n      sload\n      dup2\n      0xffffffffffffffffffffffffffffffffffffffff\n      mul\n      not\n      and\n      swap1\n      dup4\n      0xffffffffffffffffffffffffffffffffffffffff\n      and\n      mul\n      or\n      swap1\n      sstore\n      pop\n        /* \"contracts/GeekNft.sol\":2123:2138  itemsOwnerCount */\n      0x07\n        /* \"contracts/GeekNft.sol\":2123:2148  itemsOwnerCount[oldOwner] */\n      0x00\n        /* \"contracts/GeekNft.sol\":2139:2147  oldOwner */\n      dup4\n        /* \"contracts/GeekNft.sol\":2123:2148  itemsOwnerCount[oldOwner] */\n      0xffffffffffffffffffffffffffffffffffffffff\n      and\n      0xffffffffffffffffffffffffffffffffffffffff\n      and\n      dup2\n      mstore\n      0x20\n      add\n      swap1\n      dup2\n      mstore\n      0x20\n      add\n      0x00\n      keccak256\n      0x00\n        /* \"contracts/GeekNft.sol\":2123:2150  itemsOwnerCount[oldOwner]-- */\n      dup2\n      sload\n      dup1\n      swap3\n      swap2\n      swap1\n      0x01\n      swap1\n      sub\n      swap2\n      swap1\n      pop\n      sstore\n      pop\n        /* \"contracts/GeekNft.sol\":2164:2179  itemsOwnerCount */\n      0x07\n        /* \"contracts/GeekNft.sol\":2164:2191  itemsOwnerCount[msg.sender] */\n      0x00\n        /* \"contracts/GeekNft.sol\":2180:2190  msg.sender */\n      caller\n        /* \"contracts/GeekNft.sol\":2164:2191  itemsOwnerCount[msg.sender] */\n      0xffffffffffffffffffffffffffffffffffffffff\n      and\n      0xffffffffffffffffffffffffffffffffffffffff\n      and\n      dup2\n      mstore\n      0x20\n      add\n      swap1\n      dup2\n      mstore\n      0x20\n      add\n      0x00\n      keccak256\n      0x00\n        /* \"contracts/GeekNft.sol\":2164:2193  itemsOwnerCount[msg.sender]++ */\n      dup2\n      sload\n      dup1\n      swap3\n      swap2\n      swap1\n      0x01\n      add\n      swap2\n      swap1\n      pop\n      sstore\n      pop\n        /* \"contracts/GeekNft.sol\":2207:2223  itemsToSellCount */\n      0x04\n      0x00\n        /* \"contracts/GeekNft.sol\":2207:2225  itemsToSellCount-- */\n      dup2\n      sload\n      dup1\n      swap3\n      swap2\n      swap1\n      0x01\n      swap1\n      sub\n      swap2\n      swap1\n      pop\n      sstore\n      pop\n        /* \"contracts/GeekNft.sol\":2246:2255  uint fees */\n      0x00\n        /* \"contracts/GeekNft.sol\":2265:2284  uint totalMinusFees */\n      dup1\n        /* \"contracts/GeekNft.sol\":2319:2353  getFees(msg.value, feesPercentage) */\n      tag_98\n        /* \"contracts/GeekNft.sol\":2327:2336  msg.value */\n      callvalue\n        /* \"contracts/GeekNft.sol\":2338:2352  feesPercentage */\n      sload(0x05)\n        /* \"contracts/GeekNft.sol\":2319:2326  getFees */\n      tag_99\n        /* \"contracts/GeekNft.sol\":2319:2353  getFees(msg.value, feesPercentage) */\n      jump\t// in\n    tag_98:\n        /* \"contracts/GeekNft.sol\":2294:2353  (fees, totalMinusFees) = getFees(msg.value, feesPercentage) */\n      dup1\n      swap3\n      pop\n      dup2\n      swap4\n      pop\n      pop\n      pop\n        /* \"contracts/GeekNft.sol\":2371:2376  owner */\n      0x02\n      0x00\n      swap1\n      sload\n      swap1\n      0x0100\n      exp\n      swap1\n      div\n      0xffffffffffffffffffffffffffffffffffffffff\n      and\n        /* \"contracts/GeekNft.sol\":2363:2386  payable(owner).transfer */\n      0xffffffffffffffffffffffffffffffffffffffff\n      and\n        /* \"contracts/GeekNft.sol\":2363:2392  payable(owner).transfer(fees) */\n      0x08fc\n        /* \"contracts/GeekNft.sol\":2387:2391  fees */\n      dup4\n        /* \"contracts/GeekNft.sol\":2363:2392  payable(owner).transfer(fees) */\n      swap1\n      dup2\n      iszero\n      mul\n      swap1\n      mload(0x40)\n      0x00\n      mload(0x40)\n      dup1\n      dup4\n      sub\n      dup2\n      dup6\n      dup9\n      dup9\n      call\n      swap4\n      pop\n      pop\n      pop\n      pop\n      iszero\n      dup1\n      iszero\n      tag_101\n      jumpi\n      returndatasize\n      0x00\n      dup1\n      returndatacopy\n      revert(0x00, returndatasize)\n    tag_101:\n      pop\n        /* \"contracts/GeekNft.sol\":2410:2418  oldOwner */\n      dup4\n        /* \"contracts/GeekNft.sol\":2402:2428  payable(oldOwner).transfer */\n      0xffffffffffffffffffffffffffffffffffffffff\n      and\n        /* \"contracts/GeekNft.sol\":2402:2444  payable(oldOwner).transfer(totalMinusFees) */\n      0x08fc\n        /* \"contracts/GeekNft.sol\":2429:2443  totalMinusFees */\n      dup3\n        /* \"contracts/GeekNft.sol\":2402:2444  payable(oldOwner).transfer(totalMinusFees) */\n      swap1\n      dup2\n      iszero\n      mul\n      swap1\n      mload(0x40)\n      0x00\n      mload(0x40)\n      dup1\n      dup4\n      sub\n      dup2\n      dup6\n      dup9\n      dup9\n      call\n      swap4\n      pop\n      pop\n      pop\n      pop\n      iszero\n      dup1\n      iszero\n      tag_103\n      jumpi\n      returndatasize\n      0x00\n      dup1\n      returndatacopy\n      revert(0x00, returndatasize)\n    tag_103:\n      pop\n        /* \"contracts/GeekNft.sol\":2479:2489  msg.sender */\n      caller\n        /* \"contracts/GeekNft.sol\":2460:2500  Transfer(oldOwner, msg.sender, _tokenId) */\n      0xffffffffffffffffffffffffffffffffffffffff\n      and\n        /* \"contracts/GeekNft.sol\":2469:2477  oldOwner */\n      dup5\n        /* \"contracts/GeekNft.sol\":2460:2500  Transfer(oldOwner, msg.sender, _tokenId) */\n      0xffffffffffffffffffffffffffffffffffffffff\n      and\n      0xddf252ad1be2c89b69c2b068fc378daa952ba7f163c4a11628f55a4df523b3ef\n        /* \"contracts/GeekNft.sol\":2491:2499  _tokenId */\n      dup8\n        /* \"contracts/GeekNft.sol\":2460:2500  Transfer(oldOwner, msg.sender, _tokenId) */\n      mload(0x40)\n      tag_104\n      swap2\n      swap1\n      tag_35\n      jump\t// in\n    tag_104:\n      mload(0x40)\n      dup1\n      swap2\n      sub\n      swap1\n      log3\n        /* \"contracts/GeekNft.sol\":1721:2507  function sellItem(uint _tokenId) public payable{... */\n      pop\n      pop\n      pop\n      pop\n      pop\n      jump\t// out\n        /* \"contracts/GeekNft.sol\":1175:1715  function createItem(uint _price, uint _catId) public returns (uint){... */\n    tag_54:\n        /* \"contracts/GeekNft.sol\":1237:1241  uint */\n      0x00\n        /* \"contracts/GeekNft.sol\":1269:1270  0 */\n      dup1\n        /* \"contracts/GeekNft.sol\":1260:1266  _price */\n      dup4\n        /* \"contracts/GeekNft.sol\":1260:1270  _price > 0 */\n      gt\n        /* \"contracts/GeekNft.sol\":1252:1301  require(_price > 0, \"Price cannot be equal to 0\") */\n      tag_106\n      jumpi\n      mload(0x40)\n      0x08c379a000000000000000000000000000000000000000000000000000000000\n      dup2\n      mstore\n      0x04\n      add\n      tag_107\n      swap1\n      tag_108\n      jump\t// in\n    tag_107:\n      mload(0x40)\n      dup1\n      swap2\n      sub\n      swap1\n      revert\n    tag_106:\n        /* \"contracts/GeekNft.sol\":1311:1326  uint newTokenId */\n      0x00\n        /* \"contracts/GeekNft.sol\":1329:1334  items */\n      0x03\n        /* \"contracts/GeekNft.sol\":1329:1341  items.length */\n      dup1\n      sload\n      swap1\n      pop\n        /* \"contracts/GeekNft.sol\":1311:1341  uint newTokenId = items.length */\n      swap1\n      pop\n        /* \"contracts/GeekNft.sol\":1395:1396  0 */\n      0x00\n        /* \"contracts/GeekNft.sol\":1360:1397  itemToOwner[newTokenId] == address(0) */\n      0xffffffffffffffffffffffffffffffffffffffff\n      and\n        /* \"contracts/GeekNft.sol\":1360:1371  itemToOwner */\n      0x06\n        /* \"contracts/GeekNft.sol\":1360:1383  itemToOwner[newTokenId] */\n      0x00\n        /* \"contracts/GeekNft.sol\":1372:1382  newTokenId */\n      dup4\n        /* \"contracts/GeekNft.sol\":1360:1383  itemToOwner[newTokenId] */\n      dup2\n      mstore\n      0x20\n      add\n      swap1\n      dup2\n      mstore\n      0x20\n      add\n      0x00\n      keccak256\n      0x00\n      swap1\n      sload\n      swap1\n      0x0100\n      exp\n      swap1\n      div\n      0xffffffffffffffffffffffffffffffffffffffff\n      and\n        /* \"contracts/GeekNft.sol\":1360:1397  itemToOwner[newTokenId] == address(0) */\n      0xffffffffffffffffffffffffffffffffffffffff\n      and\n      eq\n        /* \"contracts/GeekNft.sol\":1352:1421  require(itemToOwner[newTokenId] == address(0), \"token already exist\") */\n      tag_109\n      jumpi\n      mload(0x40)\n      0x08c379a000000000000000000000000000000000000000000000000000000000\n      dup2\n      mstore\n      0x04\n      add\n      tag_110\n      swap1\n      tag_111\n      jump\t// in\n    tag_110:\n      mload(0x40)\n      dup1\n      swap2\n      sub\n      swap1\n      revert\n    tag_109:\n        /* \"contracts/GeekNft.sol\":1452:1490  Item(newTokenId, _price, _catId, true) */\n      mload(0x40)\n      dup1\n      0x80\n      add\n      0x40\n      mstore\n      dup1\n        /* \"contracts/GeekNft.sol\":1457:1467  newTokenId */\n      dup3\n        /* \"contracts/GeekNft.sol\":1452:1490  Item(newTokenId, _price, _catId, true) */\n      dup2\n      mstore\n      0x20\n      add\n        /* \"contracts/GeekNft.sol\":1469:1475  _price */\n      dup6\n        /* \"contracts/GeekNft.sol\":1452:1490  Item(newTokenId, _price, _catId, true) */\n      dup2\n      mstore\n      0x20\n      add\n        /* \"contracts/GeekNft.sol\":1477:1483  _catId */\n      dup5\n        /* \"contracts/GeekNft.sol\":1452:1490  Item(newTokenId, _price, _catId, true) */\n      dup2\n      mstore\n      0x20\n      add\n        /* \"contracts/GeekNft.sol\":1485:1489  true */\n      0x01\n        /* \"contracts/GeekNft.sol\":1452:1490  Item(newTokenId, _price, _catId, true) */\n      iszero\n      iszero\n      dup2\n      mstore\n      pop\n        /* \"contracts/GeekNft.sol\":1432:1437  items */\n      0x03\n        /* \"contracts/GeekNft.sol\":1438:1448  newTokenId */\n      dup3\n        /* \"contracts/GeekNft.sol\":1432:1449  items[newTokenId] */\n      dup2\n      sload\n      dup2\n      lt\n      tag_112\n      jumpi\n      mstore(0x00, 0x4e487b7100000000000000000000000000000000000000000000000000000000)\n      mstore(0x04, 0x32)\n      revert(0x00, 0x24)\n    tag_112:\n      swap1\n      0x00\n      mstore\n      keccak256(0x00, 0x20)\n      swap1\n      0x04\n      mul\n      add\n        /* \"contracts/GeekNft.sol\":1432:1490  items[newTokenId] = Item(newTokenId, _price, _catId, true) */\n      0x00\n      dup3\n      add\n      mload\n      dup2\n      0x00\n      add\n      sstore\n      0x20\n      dup3\n      add\n      mload\n      dup2\n      0x01\n      add\n      sstore\n      0x40\n      dup3\n      add\n      mload\n      dup2\n      0x02\n      add\n      sstore\n      0x60\n      dup3\n      add\n      mload\n      dup2\n      0x03\n      add\n      exp(0x0100, 0x00)\n      dup2\n      sload\n      dup2\n      0xff\n      mul\n      not\n      and\n      swap1\n      dup4\n      iszero\n      iszero\n      mul\n      or\n      swap1\n      sstore\n      pop\n      swap1\n      pop\n      pop\n        /* \"contracts/GeekNft.sol\":1526:1536  msg.sender */\n      caller\n        /* \"contracts/GeekNft.sol\":1500:1511  itemToOwner */\n      0x06\n        /* \"contracts/GeekNft.sol\":1500:1523  itemToOwner[newTokenId] */\n      0x00\n        /* \"contracts/GeekNft.sol\":1512:1522  newTokenId */\n      dup4\n        /* \"contracts/GeekNft.sol\":1500:1523  itemToOwner[newTokenId] */\n      dup2\n      mstore\n      0x20\n      add\n      swap1\n      dup2\n      mstore\n      0x20\n      add\n      0x00\n      keccak256\n      0x00\n        /* \"contracts/GeekNft.sol\":1500:1536  itemToOwner[newTokenId] = msg.sender */\n      0x0100\n      exp\n      dup2\n      sload\n      dup2\n      0xffffffffffffffffffffffffffffffffffffffff\n      mul\n      not\n      and\n      swap1\n      dup4\n      0xffffffffffffffffffffffffffffffffffffffff\n      and\n      mul\n      or\n      swap1\n      sstore\n      pop\n        /* \"contracts/GeekNft.sol\":1570:1585  itemsOwnerCount */\n      0x07\n        /* \"contracts/GeekNft.sol\":1570:1597  itemsOwnerCount[msg.sender] */\n      0x00\n        /* \"contracts/GeekNft.sol\":1586:1596  msg.sender */\n      caller\n        /* \"contracts/GeekNft.sol\":1570:1597  itemsOwnerCount[msg.sender] */\n      0xffffffffffffffffffffffffffffffffffffffff\n      and\n      0xffffffffffffffffffffffffffffffffffffffff\n      and\n      dup2\n      mstore\n      0x20\n      add\n      swap1\n      dup2\n      mstore\n      0x20\n      add\n      0x00\n      keccak256\n      0x00\n        /* \"contracts/GeekNft.sol\":1570:1599  itemsOwnerCount[msg.sender]++ */\n      dup2\n      sload\n      dup1\n      swap3\n      swap2\n      swap1\n      0x01\n      add\n      swap2\n      swap1\n      pop\n      sstore\n      pop\n        /* \"contracts/GeekNft.sol\":1613:1628  itemsCatIdCount */\n      0x08\n        /* \"contracts/GeekNft.sol\":1613:1636  itemsCatIdCount[_catId] */\n      0x00\n        /* \"contracts/GeekNft.sol\":1629:1635  _catId */\n      dup5\n        /* \"contracts/GeekNft.sol\":1613:1636  itemsCatIdCount[_catId] */\n      dup2\n      mstore\n      0x20\n      add\n      swap1\n      dup2\n      mstore\n      0x20\n      add\n      0x00\n      keccak256\n      0x00\n        /* \"contracts/GeekNft.sol\":1613:1638  itemsCatIdCount[_catId]++ */\n      dup2\n      sload\n      dup1\n      swap3\n      swap2\n      swap1\n      0x01\n      add\n      swap2\n      swap1\n      pop\n      sstore\n      pop\n        /* \"contracts/GeekNft.sol\":1652:1668  itemsToSellCount */\n      0x04\n      0x00\n        /* \"contracts/GeekNft.sol\":1652:1670  itemsToSellCount++ */\n      dup2\n      sload\n      dup1\n      swap3\n      swap2\n      swap1\n      0x01\n      add\n      swap2\n      swap1\n      pop\n      sstore\n      pop\n        /* \"contracts/GeekNft.sol\":1698:1708  newTokenId */\n      dup1\n        /* \"contracts/GeekNft.sol\":1691:1708  return newTokenId */\n      swap2\n      pop\n      pop\n        /* \"contracts/GeekNft.sol\":1175:1715  function createItem(uint _price, uint _catId) public returns (uint){... */\n      swap3\n      swap2\n      pop\n      pop\n      jump\t// out\n        /* \"contracts/GeekNft.sol\":321:340  Item[] public items */\n    tag_59:\n      0x03\n      dup2\n      dup2\n      sload\n      dup2\n      lt\n      tag_114\n      jumpi\n      0x00\n      dup1\n      revert\n    tag_114:\n      swap1\n      0x00\n      mstore\n      keccak256(0x00, 0x20)\n      swap1\n      0x04\n      mul\n      add\n      0x00\n      swap2\n      pop\n      swap1\n      pop\n      dup1\n      0x00\n      add\n      sload\n      swap1\n      dup1\n      0x01\n      add\n      sload\n      swap1\n      dup1\n      0x02\n      add\n      sload\n      swap1\n      dup1\n      0x03\n      add\n      0x00\n      swap1\n      sload\n      swap1\n      0x0100\n      exp\n      swap1\n      div\n      0xff\n      and\n      swap1\n      pop\n      dup5\n      jump\t// out\n        /* \"contracts/GeekNft.sol\":454:501  mapping(address => uint) public itemsOwnerCount */\n    tag_65:\n      mstore(0x20, 0x07)\n      dup1\n      0x00\n      mstore\n      keccak256(0x00, 0x40)\n      0x00\n      swap2\n      pop\n      swap1\n      pop\n      sload\n      dup2\n      jump\t// out\n        /* \"contracts/GeekNft.sol\":507:551  mapping(uint => uint) public itemsCatIdCount */\n    tag_70:\n      mstore(0x20, 0x08)\n      dup1\n      0x00\n      mstore\n      keccak256(0x00, 0x40)\n      0x00\n      swap2\n      pop\n      swap1\n      pop\n      sload\n      dup2\n      jump\t// out\n        /* \"contracts/GeekNft.sol\":1075:1169  function getFeesPercentage() public view returns (uint) {... */\n    tag_74:\n        /* \"contracts/GeekNft.sol\":1125:1129  uint */\n      0x00\n        /* \"contracts/GeekNft.sol\":1148:1162  feesPercentage */\n      sload(0x05)\n        /* \"contracts/GeekNft.sol\":1141:1162  return feesPercentage */\n      swap1\n      pop\n        /* \"contracts/GeekNft.sol\":1075:1169  function getFeesPercentage() public view returns (uint) {... */\n      swap1\n      jump\t// out\n        /* \"contracts/GeekNft.sol\":2994:3216  function getFees(uint _price, uint _percentage) private pure returns (uint, uint){... */\n    tag_99:\n        /* \"contracts/GeekNft.sol\":3064:3068  uint */\n      0x00\n        /* \"contracts/GeekNft.sol\":3070:3074  uint */\n      dup1\n        /* \"contracts/GeekNft.sol\":3085:3094  uint fees */\n      0x00\n        /* \"contracts/GeekNft.sol\":3122:3125  100 */\n      0x64\n        /* \"contracts/GeekNft.sol\":3112:3118  _price */\n      dup6\n        /* \"contracts/GeekNft.sol\":3098:3109  _percentage */\n      dup6\n        /* \"contracts/GeekNft.sol\":3098:3118  _percentage * _price */\n      tag_118\n      swap2\n      swap1\n      tag_119\n      jump\t// in\n    tag_118:\n        /* \"contracts/GeekNft.sol\":3097:3125  (_percentage * _price) / 100 */\n      tag_120\n      swap2\n      swap1\n      tag_121\n      jump\t// in\n    tag_120:\n        /* \"contracts/GeekNft.sol\":3085:3125  uint fees = (_percentage * _price) / 100 */\n      swap1\n      pop\n        /* \"contracts/GeekNft.sol\":3135:3154  uint totalMinusFees */\n      0x00\n        /* \"contracts/GeekNft.sol\":3166:3170  fees */\n      dup2\n        /* \"contracts/GeekNft.sol\":3157:3163  _price */\n      dup7\n        /* \"contracts/GeekNft.sol\":3157:3170  _price - fees */\n      tag_122\n      swap2\n      swap1\n      tag_123\n      jump\t// in\n    tag_122:\n        /* \"contracts/GeekNft.sol\":3135:3170  uint totalMinusFees = _price - fees */\n      swap1\n      pop\n        /* \"contracts/GeekNft.sol\":3188:3192  fees */\n      dup2\n        /* \"contracts/GeekNft.sol\":3194:3208  totalMinusFees */\n      dup2\n        /* \"contracts/GeekNft.sol\":3180:3209  return (fees, totalMinusFees) */\n      swap4\n      pop\n      swap4\n      pop\n      pop\n      pop\n        /* \"contracts/GeekNft.sol\":2994:3216  function getFees(uint _price, uint _percentage) private pure returns (uint, uint){... */\n      swap3\n      pop\n      swap3\n      swap1\n      pop\n      jump\t// out\n    tag_81:\n      mload(0x40)\n      dup1\n      0x80\n      add\n      0x40\n      mstore\n      dup1\n      0x00\n      dup2\n      mstore\n      0x20\n      add\n      0x00\n      dup2\n      mstore\n      0x20\n      add\n      0x00\n      dup2\n      mstore\n      0x20\n      add\n      iszero(iszero(0x00))\n      dup2\n      mstore\n      pop\n      swap1\n      jump\t// out\n        /* \"#utility.yul\":7:146   */\n    tag_125:\n      0x00\n        /* \"#utility.yul\":91:97   */\n      dup2\n        /* \"#utility.yul\":78:98   */\n      calldataload\n        /* \"#utility.yul\":69:98   */\n      swap1\n      pop\n        /* \"#utility.yul\":107:140   */\n      tag_127\n        /* \"#utility.yul\":134:139   */\n      dup2\n        /* \"#utility.yul\":107:140   */\n      tag_128\n      jump\t// in\n    tag_127:\n        /* \"#utility.yul\":59:146   */\n      swap3\n      swap2\n      pop\n      pop\n      jump\t// out\n        /* \"#utility.yul\":152:291   */\n    tag_129:\n      0x00\n        /* \"#utility.yul\":236:242   */\n      dup2\n        /* \"#utility.yul\":223:243   */\n      calldataload\n        /* \"#utility.yul\":214:243   */\n      swap1\n      pop\n        /* \"#utility.yul\":252:285   */\n      tag_131\n        /* \"#utility.yul\":279:284   */\n      dup2\n        /* \"#utility.yul\":252:285   */\n      tag_132\n      jump\t// in\n    tag_131:\n        /* \"#utility.yul\":204:291   */\n      swap3\n      swap2\n      pop\n      pop\n      jump\t// out\n        /* \"#utility.yul\":297:559   */\n    tag_44:\n      0x00\n        /* \"#utility.yul\":405:407   */\n      0x20\n        /* \"#utility.yul\":393:402   */\n      dup3\n        /* \"#utility.yul\":384:391   */\n      dup5\n        /* \"#utility.yul\":380:403   */\n      sub\n        /* \"#utility.yul\":376:408   */\n      slt\n        /* \"#utility.yul\":373:375   */\n      iszero\n      tag_134\n      jumpi\n        /* \"#utility.yul\":421:422   */\n      0x00\n        /* \"#utility.yul\":418:419   */\n      dup1\n        /* \"#utility.yul\":411:423   */\n      revert\n        /* \"#utility.yul\":373:375   */\n    tag_134:\n        /* \"#utility.yul\":464:465   */\n      0x00\n        /* \"#utility.yul\":489:542   */\n      tag_135\n        /* \"#utility.yul\":534:541   */\n      dup5\n        /* \"#utility.yul\":525:531   */\n      dup3\n        /* \"#utility.yul\":514:523   */\n      dup6\n        /* \"#utility.yul\":510:532   */\n      add\n        /* \"#utility.yul\":489:542   */\n      tag_125\n      jump\t// in\n    tag_135:\n        /* \"#utility.yul\":479:542   */\n      swap2\n      pop\n        /* \"#utility.yul\":435:552   */\n      pop\n        /* \"#utility.yul\":363:559   */\n      swap3\n      swap2\n      pop\n      pop\n      jump\t// out\n        /* \"#utility.yul\":565:827   */\n    tag_23:\n      0x00\n        /* \"#utility.yul\":673:675   */\n      0x20\n        /* \"#utility.yul\":661:670   */\n      dup3\n        /* \"#utility.yul\":652:659   */\n      dup5\n        /* \"#utility.yul\":648:671   */\n      sub\n        /* \"#utility.yul\":644:676   */\n      slt\n        /* \"#utility.yul\":641:643   */\n      iszero\n      tag_137\n      jumpi\n        /* \"#utility.yul\":689:690   */\n      0x00\n        /* \"#utility.yul\":686:687   */\n      dup1\n        /* \"#utility.yul\":679:691   */\n      revert\n        /* \"#utility.yul\":641:643   */\n    tag_137:\n        /* \"#utility.yul\":732:733   */\n      0x00\n        /* \"#utility.yul\":757:810   */\n      tag_138\n        /* \"#utility.yul\":802:809   */\n      dup5\n        /* \"#utility.yul\":793:799   */\n      dup3\n        /* \"#utility.yul\":782:791   */\n      dup6\n        /* \"#utility.yul\":778:800   */\n      add\n        /* \"#utility.yul\":757:810   */\n      tag_129\n      jump\t// in\n    tag_138:\n        /* \"#utility.yul\":747:810   */\n      swap2\n      pop\n        /* \"#utility.yul\":703:820   */\n      pop\n        /* \"#utility.yul\":631:827   */\n      swap3\n      swap2\n      pop\n      pop\n      jump\t// out\n        /* \"#utility.yul\":833:1240   */\n    tag_53:\n      0x00\n      dup1\n        /* \"#utility.yul\":958:960   */\n      0x40\n        /* \"#utility.yul\":946:955   */\n      dup4\n        /* \"#utility.yul\":937:944   */\n      dup6\n        /* \"#utility.yul\":933:956   */\n      sub\n        /* \"#utility.yul\":929:961   */\n      slt\n        /* \"#utility.yul\":926:928   */\n      iszero\n      tag_140\n      jumpi\n        /* \"#utility.yul\":974:975   */\n      0x00\n        /* \"#utility.yul\":971:972   */\n      dup1\n        /* \"#utility.yul\":964:976   */\n      revert\n        /* \"#utility.yul\":926:928   */\n    tag_140:\n        /* \"#utility.yul\":1017:1018   */\n      0x00\n        /* \"#utility.yul\":1042:1095   */\n      tag_141\n        /* \"#utility.yul\":1087:1094   */\n      dup6\n        /* \"#utility.yul\":1078:1084   */\n      dup3\n        /* \"#utility.yul\":1067:1076   */\n      dup7\n        /* \"#utility.yul\":1063:1085   */\n      add\n        /* \"#utility.yul\":1042:1095   */\n      tag_129\n      jump\t// in\n    tag_141:\n        /* \"#utility.yul\":1032:1095   */\n      swap3\n      pop\n        /* \"#utility.yul\":988:1105   */\n      pop\n        /* \"#utility.yul\":1144:1146   */\n      0x20\n        /* \"#utility.yul\":1170:1223   */\n      tag_142\n        /* \"#utility.yul\":1215:1222   */\n      dup6\n        /* \"#utility.yul\":1206:1212   */\n      dup3\n        /* \"#utility.yul\":1195:1204   */\n      dup7\n        /* \"#utility.yul\":1191:1213   */\n      add\n        /* \"#utility.yul\":1170:1223   */\n      tag_129\n      jump\t// in\n    tag_142:\n        /* \"#utility.yul\":1160:1223   */\n      swap2\n      pop\n        /* \"#utility.yul\":1115:1233   */\n      pop\n        /* \"#utility.yul\":916:1240   */\n      swap3\n      pop\n      swap3\n      swap1\n      pop\n      jump\t// out\n        /* \"#utility.yul\":1246:1505   */\n    tag_143:\n      0x00\n        /* \"#utility.yul\":1376:1462   */\n      tag_145\n        /* \"#utility.yul\":1458:1461   */\n      dup4\n        /* \"#utility.yul\":1450:1456   */\n      dup4\n        /* \"#utility.yul\":1376:1462   */\n      tag_146\n      jump\t// in\n    tag_145:\n        /* \"#utility.yul\":1494:1498   */\n      0x80\n        /* \"#utility.yul\":1489:1492   */\n      dup4\n        /* \"#utility.yul\":1485:1499   */\n      add\n        /* \"#utility.yul\":1471:1499   */\n      swap1\n      pop\n        /* \"#utility.yul\":1366:1505   */\n      swap3\n      swap2\n      pop\n      pop\n      jump\t// out\n        /* \"#utility.yul\":1511:1629   */\n    tag_147:\n        /* \"#utility.yul\":1598:1622   */\n      tag_149\n        /* \"#utility.yul\":1616:1621   */\n      dup2\n        /* \"#utility.yul\":1598:1622   */\n      tag_150\n      jump\t// in\n    tag_149:\n        /* \"#utility.yul\":1593:1596   */\n      dup3\n        /* \"#utility.yul\":1586:1623   */\n      mstore\n        /* \"#utility.yul\":1576:1629   */\n      pop\n      pop\n      jump\t// out\n        /* \"#utility.yul\":1689:2581   */\n    tag_151:\n      0x00\n        /* \"#utility.yul\":1877:1951   */\n      tag_153\n        /* \"#utility.yul\":1945:1950   */\n      dup3\n        /* \"#utility.yul\":1877:1951   */\n      tag_154\n      jump\t// in\n    tag_153:\n        /* \"#utility.yul\":1967:2073   */\n      tag_155\n        /* \"#utility.yul\":2066:2072   */\n      dup2\n        /* \"#utility.yul\":2061:2064   */\n      dup6\n        /* \"#utility.yul\":1967:2073   */\n      tag_156\n      jump\t// in\n    tag_155:\n        /* \"#utility.yul\":1960:2073   */\n      swap4\n      pop\n        /* \"#utility.yul\":2097:2173   */\n      tag_157\n        /* \"#utility.yul\":2167:2172   */\n      dup4\n        /* \"#utility.yul\":2097:2173   */\n      tag_158\n      jump\t// in\n    tag_157:\n        /* \"#utility.yul\":2196:2203   */\n      dup1\n        /* \"#utility.yul\":2227:2228   */\n      0x00\n        /* \"#utility.yul\":2212:2556   */\n    tag_159:\n        /* \"#utility.yul\":2237:2243   */\n      dup4\n        /* \"#utility.yul\":2234:2235   */\n      dup2\n        /* \"#utility.yul\":2231:2244   */\n      lt\n        /* \"#utility.yul\":2212:2556   */\n      iszero\n      tag_161\n      jumpi\n        /* \"#utility.yul\":2313:2319   */\n      dup2\n        /* \"#utility.yul\":2307:2320   */\n      mload\n        /* \"#utility.yul\":2340:2443   */\n      tag_162\n        /* \"#utility.yul\":2439:2442   */\n      dup9\n        /* \"#utility.yul\":2424:2437   */\n      dup3\n        /* \"#utility.yul\":2340:2443   */\n      tag_143\n      jump\t// in\n    tag_162:\n        /* \"#utility.yul\":2333:2443   */\n      swap8\n      pop\n        /* \"#utility.yul\":2466:2546   */\n      tag_163\n        /* \"#utility.yul\":2539:2545   */\n      dup4\n        /* \"#utility.yul\":2466:2546   */\n      tag_164\n      jump\t// in\n    tag_163:\n        /* \"#utility.yul\":2456:2546   */\n      swap3\n      pop\n        /* \"#utility.yul\":2272:2556   */\n      pop\n        /* \"#utility.yul\":2259:2260   */\n      0x01\n        /* \"#utility.yul\":2256:2257   */\n      dup2\n        /* \"#utility.yul\":2252:2261   */\n      add\n        /* \"#utility.yul\":2247:2261   */\n      swap1\n      pop\n        /* \"#utility.yul\":2212:2556   */\n      jump(tag_159)\n    tag_161:\n        /* \"#utility.yul\":2216:2230   */\n      pop\n        /* \"#utility.yul\":2572:2575   */\n      dup6\n        /* \"#utility.yul\":2565:2575   */\n      swap4\n      pop\n        /* \"#utility.yul\":1853:2581   */\n      pop\n      pop\n      pop\n      swap3\n      swap2\n      pop\n      pop\n      jump\t// out\n        /* \"#utility.yul\":2587:2686   */\n    tag_165:\n        /* \"#utility.yul\":2658:2679   */\n      tag_167\n        /* \"#utility.yul\":2673:2678   */\n      dup2\n        /* \"#utility.yul\":2658:2679   */\n      tag_168\n      jump\t// in\n    tag_167:\n        /* \"#utility.yul\":2653:2656   */\n      dup3\n        /* \"#utility.yul\":2646:2680   */\n      mstore\n        /* \"#utility.yul\":2636:2686   */\n      pop\n      pop\n      jump\t// out\n        /* \"#utility.yul\":2692:2801   */\n    tag_169:\n        /* \"#utility.yul\":2773:2794   */\n      tag_171\n        /* \"#utility.yul\":2788:2793   */\n      dup2\n        /* \"#utility.yul\":2773:2794   */\n      tag_168\n      jump\t// in\n    tag_171:\n        /* \"#utility.yul\":2768:2771   */\n      dup3\n        /* \"#utility.yul\":2761:2795   */\n      mstore\n        /* \"#utility.yul\":2751:2801   */\n      pop\n      pop\n      jump\t// out\n        /* \"#utility.yul\":2807:3173   */\n    tag_172:\n      0x00\n        /* \"#utility.yul\":2970:3037   */\n      tag_174\n        /* \"#utility.yul\":3034:3036   */\n      0x13\n        /* \"#utility.yul\":3029:3032   */\n      dup4\n        /* \"#utility.yul\":2970:3037   */\n      tag_175\n      jump\t// in\n    tag_174:\n        /* \"#utility.yul\":2963:3037   */\n      swap2\n      pop\n        /* \"#utility.yul\":3046:3139   */\n      tag_176\n        /* \"#utility.yul\":3135:3138   */\n      dup3\n        /* \"#utility.yul\":3046:3139   */\n      tag_177\n      jump\t// in\n    tag_176:\n        /* \"#utility.yul\":3164:3166   */\n      0x20\n        /* \"#utility.yul\":3159:3162   */\n      dup3\n        /* \"#utility.yul\":3155:3167   */\n      add\n        /* \"#utility.yul\":3148:3167   */\n      swap1\n      pop\n        /* \"#utility.yul\":2953:3173   */\n      swap2\n      swap1\n      pop\n      jump\t// out\n        /* \"#utility.yul\":3179:3545   */\n    tag_178:\n      0x00\n        /* \"#utility.yul\":3342:3409   */\n      tag_180\n        /* \"#utility.yul\":3406:3408   */\n      0x13\n        /* \"#utility.yul\":3401:3404   */\n      dup4\n        /* \"#utility.yul\":3342:3409   */\n      tag_175\n      jump\t// in\n    tag_180:\n        /* \"#utility.yul\":3335:3409   */\n      swap2\n      pop\n        /* \"#utility.yul\":3418:3511   */\n      tag_181\n        /* \"#utility.yul\":3507:3510   */\n      dup3\n        /* \"#utility.yul\":3418:3511   */\n      tag_182\n      jump\t// in\n    tag_181:\n        /* \"#utility.yul\":3536:3538   */\n      0x20\n        /* \"#utility.yul\":3531:3534   */\n      dup3\n        /* \"#utility.yul\":3527:3539   */\n      add\n        /* \"#utility.yul\":3520:3539   */\n      swap1\n      pop\n        /* \"#utility.yul\":3325:3545   */\n      swap2\n      swap1\n      pop\n      jump\t// out\n        /* \"#utility.yul\":3551:3917   */\n    tag_183:\n      0x00\n        /* \"#utility.yul\":3714:3781   */\n      tag_185\n        /* \"#utility.yul\":3778:3780   */\n      0x21\n        /* \"#utility.yul\":3773:3776   */\n      dup4\n        /* \"#utility.yul\":3714:3781   */\n      tag_175\n      jump\t// in\n    tag_185:\n        /* \"#utility.yul\":3707:3781   */\n      swap2\n      pop\n        /* \"#utility.yul\":3790:3883   */\n      tag_186\n        /* \"#utility.yul\":3879:3882   */\n      dup3\n        /* \"#utility.yul\":3790:3883   */\n      tag_187\n      jump\t// in\n    tag_186:\n        /* \"#utility.yul\":3908:3910   */\n      0x40\n        /* \"#utility.yul\":3903:3906   */\n      dup3\n        /* \"#utility.yul\":3899:3911   */\n      add\n        /* \"#utility.yul\":3892:3911   */\n      swap1\n      pop\n        /* \"#utility.yul\":3697:3917   */\n      swap2\n      swap1\n      pop\n      jump\t// out\n        /* \"#utility.yul\":3923:4289   */\n    tag_188:\n      0x00\n        /* \"#utility.yul\":4086:4153   */\n      tag_190\n        /* \"#utility.yul\":4150:4152   */\n      0x1a\n        /* \"#utility.yul\":4145:4148   */\n      dup4\n        /* \"#utility.yul\":4086:4153   */\n      tag_175\n      jump\t// in\n    tag_190:\n        /* \"#utility.yul\":4079:4153   */\n      swap2\n      pop\n        /* \"#utility.yul\":4162:4255   */\n      tag_191\n        /* \"#utility.yul\":4251:4254   */\n      dup3\n        /* \"#utility.yul\":4162:4255   */\n      tag_192\n      jump\t// in\n    tag_191:\n        /* \"#utility.yul\":4280:4282   */\n      0x20\n        /* \"#utility.yul\":4275:4278   */\n      dup3\n        /* \"#utility.yul\":4271:4283   */\n      add\n        /* \"#utility.yul\":4264:4283   */\n      swap1\n      pop\n        /* \"#utility.yul\":4069:4289   */\n      swap2\n      swap1\n      pop\n      jump\t// out\n        /* \"#utility.yul\":4345:5181   */\n    tag_146:\n        /* \"#utility.yul\":4472:4476   */\n      0x80\n        /* \"#utility.yul\":4467:4470   */\n      dup3\n        /* \"#utility.yul\":4463:4477   */\n      add\n        /* \"#utility.yul\":4562:4566   */\n      0x00\n        /* \"#utility.yul\":4555:4560   */\n      dup3\n        /* \"#utility.yul\":4551:4567   */\n      add\n        /* \"#utility.yul\":4545:4568   */\n      mload\n        /* \"#utility.yul\":4581:4644   */\n      tag_194\n        /* \"#utility.yul\":4638:4642   */\n      0x00\n        /* \"#utility.yul\":4633:4636   */\n      dup6\n        /* \"#utility.yul\":4629:4643   */\n      add\n        /* \"#utility.yul\":4615:4627   */\n      dup3\n        /* \"#utility.yul\":4581:4644   */\n      tag_195\n      jump\t// in\n    tag_194:\n        /* \"#utility.yul\":4487:4654   */\n      pop\n        /* \"#utility.yul\":4737:4741   */\n      0x20\n        /* \"#utility.yul\":4730:4735   */\n      dup3\n        /* \"#utility.yul\":4726:4742   */\n      add\n        /* \"#utility.yul\":4720:4743   */\n      mload\n        /* \"#utility.yul\":4756:4819   */\n      tag_196\n        /* \"#utility.yul\":4813:4817   */\n      0x20\n        /* \"#utility.yul\":4808:4811   */\n      dup6\n        /* \"#utility.yul\":4804:4818   */\n      add\n        /* \"#utility.yul\":4790:4802   */\n      dup3\n        /* \"#utility.yul\":4756:4819   */\n      tag_195\n      jump\t// in\n    tag_196:\n        /* \"#utility.yul\":4664:4829   */\n      pop\n        /* \"#utility.yul\":4912:4916   */\n      0x40\n        /* \"#utility.yul\":4905:4910   */\n      dup3\n        /* \"#utility.yul\":4901:4917   */\n      add\n        /* \"#utility.yul\":4895:4918   */\n      mload\n        /* \"#utility.yul\":4931:4994   */\n      tag_197\n        /* \"#utility.yul\":4988:4992   */\n      0x40\n        /* \"#utility.yul\":4983:4986   */\n      dup6\n        /* \"#utility.yul\":4979:4993   */\n      add\n        /* \"#utility.yul\":4965:4977   */\n      dup3\n        /* \"#utility.yul\":4931:4994   */\n      tag_195\n      jump\t// in\n    tag_197:\n        /* \"#utility.yul\":4839:5004   */\n      pop\n        /* \"#utility.yul\":5088:5092   */\n      0x60\n        /* \"#utility.yul\":5081:5086   */\n      dup3\n        /* \"#utility.yul\":5077:5093   */\n      add\n        /* \"#utility.yul\":5071:5094   */\n      mload\n        /* \"#utility.yul\":5107:5164   */\n      tag_198\n        /* \"#utility.yul\":5158:5162   */\n      0x60\n        /* \"#utility.yul\":5153:5156   */\n      dup6\n        /* \"#utility.yul\":5149:5163   */\n      add\n        /* \"#utility.yul\":5135:5147   */\n      dup3\n        /* \"#utility.yul\":5107:5164   */\n      tag_165\n      jump\t// in\n    tag_198:\n        /* \"#utility.yul\":5014:5174   */\n      pop\n        /* \"#utility.yul\":4441:5181   */\n      pop\n      pop\n      pop\n      jump\t// out\n        /* \"#utility.yul\":5187:5295   */\n    tag_195:\n        /* \"#utility.yul\":5264:5288   */\n      tag_200\n        /* \"#utility.yul\":5282:5287   */\n      dup2\n        /* \"#utility.yul\":5264:5288   */\n      tag_201\n      jump\t// in\n    tag_200:\n        /* \"#utility.yul\":5259:5262   */\n      dup3\n        /* \"#utility.yul\":5252:5289   */\n      mstore\n        /* \"#utility.yul\":5242:5295   */\n      pop\n      pop\n      jump\t// out\n        /* \"#utility.yul\":5301:5419   */\n    tag_202:\n        /* \"#utility.yul\":5388:5412   */\n      tag_204\n        /* \"#utility.yul\":5406:5411   */\n      dup2\n        /* \"#utility.yul\":5388:5412   */\n      tag_201\n      jump\t// in\n    tag_204:\n        /* \"#utility.yul\":5383:5386   */\n      dup3\n        /* \"#utility.yul\":5376:5413   */\n      mstore\n        /* \"#utility.yul\":5366:5419   */\n      pop\n      pop\n      jump\t// out\n        /* \"#utility.yul\":5425:5647   */\n    tag_26:\n      0x00\n        /* \"#utility.yul\":5556:5558   */\n      0x20\n        /* \"#utility.yul\":5545:5554   */\n      dup3\n        /* \"#utility.yul\":5541:5559   */\n      add\n        /* \"#utility.yul\":5533:5559   */\n      swap1\n      pop\n        /* \"#utility.yul\":5569:5640   */\n      tag_206\n        /* \"#utility.yul\":5637:5638   */\n      0x00\n        /* \"#utility.yul\":5626:5635   */\n      dup4\n        /* \"#utility.yul\":5622:5639   */\n      add\n        /* \"#utility.yul\":5613:5619   */\n      dup5\n        /* \"#utility.yul\":5569:5640   */\n      tag_147\n      jump\t// in\n    tag_206:\n        /* \"#utility.yul\":5523:5647   */\n      swap3\n      swap2\n      pop\n      pop\n      jump\t// out\n        /* \"#utility.yul\":5653:6106   */\n    tag_19:\n      0x00\n        /* \"#utility.yul\":5874:5876   */\n      0x20\n        /* \"#utility.yul\":5863:5872   */\n      dup3\n        /* \"#utility.yul\":5859:5877   */\n      add\n        /* \"#utility.yul\":5851:5877   */\n      swap1\n      pop\n        /* \"#utility.yul\":5923:5932   */\n      dup2\n        /* \"#utility.yul\":5917:5921   */\n      dup2\n        /* \"#utility.yul\":5913:5933   */\n      sub\n        /* \"#utility.yul\":5909:5910   */\n      0x00\n        /* \"#utility.yul\":5898:5907   */\n      dup4\n        /* \"#utility.yul\":5894:5911   */\n      add\n        /* \"#utility.yul\":5887:5934   */\n      mstore\n        /* \"#utility.yul\":5951:6099   */\n      tag_208\n        /* \"#utility.yul\":6094:6098   */\n      dup2\n        /* \"#utility.yul\":6085:6091   */\n      dup5\n        /* \"#utility.yul\":5951:6099   */\n      tag_151\n      jump\t// in\n    tag_208:\n        /* \"#utility.yul\":5943:6099   */\n      swap1\n      pop\n        /* \"#utility.yul\":5841:6106   */\n      swap3\n      swap2\n      pop\n      pop\n      jump\t// out\n        /* \"#utility.yul\":6112:6531   */\n    tag_111:\n      0x00\n        /* \"#utility.yul\":6316:6318   */\n      0x20\n        /* \"#utility.yul\":6305:6314   */\n      dup3\n        /* \"#utility.yul\":6301:6319   */\n      add\n        /* \"#utility.yul\":6293:6319   */\n      swap1\n      pop\n        /* \"#utility.yul\":6365:6374   */\n      dup2\n        /* \"#utility.yul\":6359:6363   */\n      dup2\n        /* \"#utility.yul\":6355:6375   */\n      sub\n        /* \"#utility.yul\":6351:6352   */\n      0x00\n        /* \"#utility.yul\":6340:6349   */\n      dup4\n        /* \"#utility.yul\":6336:6353   */\n      add\n        /* \"#utility.yul\":6329:6376   */\n      mstore\n        /* \"#utility.yul\":6393:6524   */\n      tag_210\n        /* \"#utility.yul\":6519:6523   */\n      dup2\n        /* \"#utility.yul\":6393:6524   */\n      tag_172\n      jump\t// in\n    tag_210:\n        /* \"#utility.yul\":6385:6524   */\n      swap1\n      pop\n        /* \"#utility.yul\":6283:6531   */\n      swap2\n      swap1\n      pop\n      jump\t// out\n        /* \"#utility.yul\":6537:6956   */\n    tag_95:\n      0x00\n        /* \"#utility.yul\":6741:6743   */\n      0x20\n        /* \"#utility.yul\":6730:6739   */\n      dup3\n        /* \"#utility.yul\":6726:6744   */\n      add\n        /* \"#utility.yul\":6718:6744   */\n      swap1\n      pop\n        /* \"#utility.yul\":6790:6799   */\n      dup2\n        /* \"#utility.yul\":6784:6788   */\n      dup2\n        /* \"#utility.yul\":6780:6800   */\n      sub\n        /* \"#utility.yul\":6776:6777   */\n      0x00\n        /* \"#utility.yul\":6765:6774   */\n      dup4\n        /* \"#utility.yul\":6761:6778   */\n      add\n        /* \"#utility.yul\":6754:6801   */\n      mstore\n        /* \"#utility.yul\":6818:6949   */\n      tag_212\n        /* \"#utility.yul\":6944:6948   */\n      dup2\n        /* \"#utility.yul\":6818:6949   */\n      tag_178\n      jump\t// in\n    tag_212:\n        /* \"#utility.yul\":6810:6949   */\n      swap1\n      pop\n        /* \"#utility.yul\":6708:6956   */\n      swap2\n      swap1\n      pop\n      jump\t// out\n        /* \"#utility.yul\":6962:7381   */\n    tag_85:\n      0x00\n        /* \"#utility.yul\":7166:7168   */\n      0x20\n        /* \"#utility.yul\":7155:7164   */\n      dup3\n        /* \"#utility.yul\":7151:7169   */\n      add\n        /* \"#utility.yul\":7143:7169   */\n      swap1\n      pop\n        /* \"#utility.yul\":7215:7224   */\n      dup2\n        /* \"#utility.yul\":7209:7213   */\n      dup2\n        /* \"#utility.yul\":7205:7225   */\n      sub\n        /* \"#utility.yul\":7201:7202   */\n      0x00\n        /* \"#utility.yul\":7190:7199   */\n      dup4\n        /* \"#utility.yul\":7186:7203   */\n      add\n        /* \"#utility.yul\":7179:7226   */\n      mstore\n        /* \"#utility.yul\":7243:7374   */\n      tag_214\n        /* \"#utility.yul\":7369:7373   */\n      dup2\n        /* \"#utility.yul\":7243:7374   */\n      tag_183\n      jump\t// in\n    tag_214:\n        /* \"#utility.yul\":7235:7374   */\n      swap1\n      pop\n        /* \"#utility.yul\":7133:7381   */\n      swap2\n      swap1\n      pop\n      jump\t// out\n        /* \"#utility.yul\":7387:7806   */\n    tag_108:\n      0x00\n        /* \"#utility.yul\":7591:7593   */\n      0x20\n        /* \"#utility.yul\":7580:7589   */\n      dup3\n        /* \"#utility.yul\":7576:7594   */\n      add\n        /* \"#utility.yul\":7568:7594   */\n      swap1\n      pop\n        /* \"#utility.yul\":7640:7649   */\n      dup2\n        /* \"#utility.yul\":7634:7638   */\n      dup2\n        /* \"#utility.yul\":7630:7650   */\n      sub\n        /* \"#utility.yul\":7626:7627   */\n      0x00\n        /* \"#utility.yul\":7615:7624   */\n      dup4\n        /* \"#utility.yul\":7611:7628   */\n      add\n        /* \"#utility.yul\":7604:7651   */\n      mstore\n        /* \"#utility.yul\":7668:7799   */\n      tag_216\n        /* \"#utility.yul\":7794:7798   */\n      dup2\n        /* \"#utility.yul\":7668:7799   */\n      tag_188\n      jump\t// in\n    tag_216:\n        /* \"#utility.yul\":7660:7799   */\n      swap1\n      pop\n        /* \"#utility.yul\":7558:7806   */\n      swap2\n      swap1\n      pop\n      jump\t// out\n        /* \"#utility.yul\":7812:8034   */\n    tag_35:\n      0x00\n        /* \"#utility.yul\":7943:7945   */\n      0x20\n        /* \"#utility.yul\":7932:7941   */\n      dup3\n        /* \"#utility.yul\":7928:7946   */\n      add\n        /* \"#utility.yul\":7920:7946   */\n      swap1\n      pop\n        /* \"#utility.yul\":7956:8027   */\n      tag_218\n        /* \"#utility.yul\":8024:8025   */\n      0x00\n        /* \"#utility.yul\":8013:8022   */\n      dup4\n        /* \"#utility.yul\":8009:8026   */\n      add\n        /* \"#utility.yul\":8000:8006   */\n      dup5\n        /* \"#utility.yul\":7956:8027   */\n      tag_202\n      jump\t// in\n    tag_218:\n        /* \"#utility.yul\":7910:8034   */\n      swap3\n      swap2\n      pop\n      pop\n      jump\t// out\n        /* \"#utility.yul\":8040:8581   */\n    tag_61:\n      0x00\n        /* \"#utility.yul\":8249:8252   */\n      0x80\n        /* \"#utility.yul\":8238:8247   */\n      dup3\n        /* \"#utility.yul\":8234:8253   */\n      add\n        /* \"#utility.yul\":8226:8253   */\n      swap1\n      pop\n        /* \"#utility.yul\":8263:8334   */\n      tag_220\n        /* \"#utility.yul\":8331:8332   */\n      0x00\n        /* \"#utility.yul\":8320:8329   */\n      dup4\n        /* \"#utility.yul\":8316:8333   */\n      add\n        /* \"#utility.yul\":8307:8313   */\n      dup8\n        /* \"#utility.yul\":8263:8334   */\n      tag_202\n      jump\t// in\n    tag_220:\n        /* \"#utility.yul\":8344:8416   */\n      tag_221\n        /* \"#utility.yul\":8412:8414   */\n      0x20\n        /* \"#utility.yul\":8401:8410   */\n      dup4\n        /* \"#utility.yul\":8397:8415   */\n      add\n        /* \"#utility.yul\":8388:8394   */\n      dup7\n        /* \"#utility.yul\":8344:8416   */\n      tag_202\n      jump\t// in\n    tag_221:\n        /* \"#utility.yul\":8426:8498   */\n      tag_222\n        /* \"#utility.yul\":8494:8496   */\n      0x40\n        /* \"#utility.yul\":8483:8492   */\n      dup4\n        /* \"#utility.yul\":8479:8497   */\n      add\n        /* \"#utility.yul\":8470:8476   */\n      dup6\n        /* \"#utility.yul\":8426:8498   */\n      tag_202\n      jump\t// in\n    tag_222:\n        /* \"#utility.yul\":8508:8574   */\n      tag_223\n        /* \"#utility.yul\":8570:8572   */\n      0x60\n        /* \"#utility.yul\":8559:8568   */\n      dup4\n        /* \"#utility.yul\":8555:8573   */\n      add\n        /* \"#utility.yul\":8546:8552   */\n      dup5\n        /* \"#utility.yul\":8508:8574   */\n      tag_169\n      jump\t// in\n    tag_223:\n        /* \"#utility.yul\":8216:8581   */\n      swap6\n      swap5\n      pop\n      pop\n      pop\n      pop\n      pop\n      jump\t// out\n        /* \"#utility.yul\":8587:8739   */\n    tag_158:\n      0x00\n        /* \"#utility.yul\":8697:8700   */\n      dup2\n        /* \"#utility.yul\":8689:8700   */\n      swap1\n      pop\n        /* \"#utility.yul\":8727:8731   */\n      0x20\n        /* \"#utility.yul\":8722:8725   */\n      dup3\n        /* \"#utility.yul\":8718:8732   */\n      add\n        /* \"#utility.yul\":8710:8732   */\n      swap1\n      pop\n        /* \"#utility.yul\":8679:8739   */\n      swap2\n      swap1\n      pop\n      jump\t// out\n        /* \"#utility.yul\":8745:8879   */\n    tag_154:\n      0x00\n        /* \"#utility.yul\":8866:8871   */\n      dup2\n        /* \"#utility.yul\":8860:8872   */\n      mload\n        /* \"#utility.yul\":8850:8872   */\n      swap1\n      pop\n        /* \"#utility.yul\":8839:8879   */\n      swap2\n      swap1\n      pop\n      jump\t// out\n        /* \"#utility.yul\":8885:9018   */\n    tag_164:\n      0x00\n        /* \"#utility.yul\":9007:9011   */\n      0x20\n        /* \"#utility.yul\":9002:9005   */\n      dup3\n        /* \"#utility.yul\":8998:9012   */\n      add\n        /* \"#utility.yul\":8990:9012   */\n      swap1\n      pop\n        /* \"#utility.yul\":8980:9018   */\n      swap2\n      swap1\n      pop\n      jump\t// out\n        /* \"#utility.yul\":9024:9228   */\n    tag_156:\n      0x00\n        /* \"#utility.yul\":9177:9183   */\n      dup3\n        /* \"#utility.yul\":9172:9175   */\n      dup3\n        /* \"#utility.yul\":9165:9184   */\n      mstore\n        /* \"#utility.yul\":9217:9221   */\n      0x20\n        /* \"#utility.yul\":9212:9215   */\n      dup3\n        /* \"#utility.yul\":9208:9222   */\n      add\n        /* \"#utility.yul\":9193:9222   */\n      swap1\n      pop\n        /* \"#utility.yul\":9155:9228   */\n      swap3\n      swap2\n      pop\n      pop\n      jump\t// out\n        /* \"#utility.yul\":9234:9403   */\n    tag_175:\n      0x00\n        /* \"#utility.yul\":9352:9358   */\n      dup3\n        /* \"#utility.yul\":9347:9350   */\n      dup3\n        /* \"#utility.yul\":9340:9359   */\n      mstore\n        /* \"#utility.yul\":9392:9396   */\n      0x20\n        /* \"#utility.yul\":9387:9390   */\n      dup3\n        /* \"#utility.yul\":9383:9397   */\n      add\n        /* \"#utility.yul\":9368:9397   */\n      swap1\n      pop\n        /* \"#utility.yul\":9330:9403   */\n      swap3\n      swap2\n      pop\n      pop\n      jump\t// out\n        /* \"#utility.yul\":9409:9594   */\n    tag_121:\n      0x00\n        /* \"#utility.yul\":9466:9486   */\n      tag_230\n        /* \"#utility.yul\":9484:9485   */\n      dup3\n        /* \"#utility.yul\":9466:9486   */\n      tag_201\n      jump\t// in\n    tag_230:\n        /* \"#utility.yul\":9461:9486   */\n      swap2\n      pop\n        /* \"#utility.yul\":9500:9520   */\n      tag_231\n        /* \"#utility.yul\":9518:9519   */\n      dup4\n        /* \"#utility.yul\":9500:9520   */\n      tag_201\n      jump\t// in\n    tag_231:\n        /* \"#utility.yul\":9495:9520   */\n      swap3\n      pop\n        /* \"#utility.yul\":9539:9540   */\n      dup3\n        /* \"#utility.yul\":9529:9531   */\n      tag_232\n      jumpi\n        /* \"#utility.yul\":9544:9562   */\n      tag_233\n      tag_234\n      jump\t// in\n    tag_233:\n        /* \"#utility.yul\":9529:9531   */\n    tag_232:\n        /* \"#utility.yul\":9586:9587   */\n      dup3\n        /* \"#utility.yul\":9583:9584   */\n      dup3\n        /* \"#utility.yul\":9579:9588   */\n      div\n        /* \"#utility.yul\":9574:9588   */\n      swap1\n      pop\n        /* \"#utility.yul\":9451:9594   */\n      swap3\n      swap2\n      pop\n      pop\n      jump\t// out\n        /* \"#utility.yul\":9600:9948   */\n    tag_119:\n      0x00\n        /* \"#utility.yul\":9663:9683   */\n      tag_236\n        /* \"#utility.yul\":9681:9682   */\n      dup3\n        /* \"#utility.yul\":9663:9683   */\n      tag_201\n      jump\t// in\n    tag_236:\n        /* \"#utility.yul\":9658:9683   */\n      swap2\n      pop\n        /* \"#utility.yul\":9697:9717   */\n      tag_237\n        /* \"#utility.yul\":9715:9716   */\n      dup4\n        /* \"#utility.yul\":9697:9717   */\n      tag_201\n      jump\t// in\n    tag_237:\n        /* \"#utility.yul\":9692:9717   */\n      swap3\n      pop\n        /* \"#utility.yul\":9885:9886   */\n      dup2\n        /* \"#utility.yul\":9817:9883   */\n      0xffffffffffffffffffffffffffffffffffffffffffffffffffffffffffffffff\n        /* \"#utility.yul\":9813:9887   */\n      div\n        /* \"#utility.yul\":9810:9811   */\n      dup4\n        /* \"#utility.yul\":9807:9888   */\n      gt\n        /* \"#utility.yul\":9802:9803   */\n      dup3\n        /* \"#utility.yul\":9795:9804   */\n      iszero\n        /* \"#utility.yul\":9788:9805   */\n      iszero\n        /* \"#utility.yul\":9784:9889   */\n      and\n        /* \"#utility.yul\":9781:9783   */\n      iszero\n      tag_238\n      jumpi\n        /* \"#utility.yul\":9892:9910   */\n      tag_239\n      tag_240\n      jump\t// in\n    tag_239:\n        /* \"#utility.yul\":9781:9783   */\n    tag_238:\n        /* \"#utility.yul\":9940:9941   */\n      dup3\n        /* \"#utility.yul\":9937:9938   */\n      dup3\n        /* \"#utility.yul\":9933:9942   */\n      mul\n        /* \"#utility.yul\":9922:9942   */\n      swap1\n      pop\n        /* \"#utility.yul\":9648:9948   */\n      swap3\n      swap2\n      pop\n      pop\n      jump\t// out\n        /* \"#utility.yul\":9954:10145   */\n    tag_123:\n      0x00\n        /* \"#utility.yul\":10014:10034   */\n      tag_242\n        /* \"#utility.yul\":10032:10033   */\n      dup3\n        /* \"#utility.yul\":10014:10034   */\n      tag_201\n      jump\t// in\n    tag_242:\n        /* \"#utility.yul\":10009:10034   */\n      swap2\n      pop\n        /* \"#utility.yul\":10048:10068   */\n      tag_243\n        /* \"#utility.yul\":10066:10067   */\n      dup4\n        /* \"#utility.yul\":10048:10068   */\n      tag_201\n      jump\t// in\n    tag_243:\n        /* \"#utility.yul\":10043:10068   */\n      swap3\n      pop\n        /* \"#utility.yul\":10087:10088   */\n      dup3\n        /* \"#utility.yul\":10084:10085   */\n      dup3\n        /* \"#utility.yul\":10081:10089   */\n      lt\n        /* \"#utility.yul\":10078:10080   */\n      iszero\n      tag_244\n      jumpi\n        /* \"#utility.yul\":10092:10110   */\n      tag_245\n      tag_240\n      jump\t// in\n    tag_245:\n        /* \"#utility.yul\":10078:10080   */\n    tag_244:\n        /* \"#utility.yul\":10137:10138   */\n      dup3\n        /* \"#utility.yul\":10134:10135   */\n      dup3\n        /* \"#utility.yul\":10130:10139   */\n      sub\n        /* \"#utility.yul\":10122:10139   */\n      swap1\n      pop\n        /* \"#utility.yul\":9999:10145   */\n      swap3\n      swap2\n      pop\n      pop\n      jump\t// out\n        /* \"#utility.yul\":10151:10247   */\n    tag_150:\n      0x00\n        /* \"#utility.yul\":10217:10241   */\n      tag_247\n        /* \"#utility.yul\":10235:10240   */\n      dup3\n        /* \"#utility.yul\":10217:10241   */\n      tag_248\n      jump\t// in\n    tag_247:\n        /* \"#utility.yul\":10206:10241   */\n      swap1\n      pop\n        /* \"#utility.yul\":10196:10247   */\n      swap2\n      swap1\n      pop\n      jump\t// out\n        /* \"#utility.yul\":10253:10343   */\n    tag_168:\n      0x00\n        /* \"#utility.yul\":10330:10335   */\n      dup2\n        /* \"#utility.yul\":10323:10336   */\n      iszero\n        /* \"#utility.yul\":10316:10337   */\n      iszero\n        /* \"#utility.yul\":10305:10337   */\n      swap1\n      pop\n        /* \"#utility.yul\":10295:10343   */\n      swap2\n      swap1\n      pop\n      jump\t// out\n        /* \"#utility.yul\":10349:10475   */\n    tag_248:\n      0x00\n        /* \"#utility.yul\":10426:10468   */\n      0xffffffffffffffffffffffffffffffffffffffff\n        /* \"#utility.yul\":10419:10424   */\n      dup3\n        /* \"#utility.yul\":10415:10469   */\n      and\n        /* \"#utility.yul\":10404:10469   */\n      swap1\n      pop\n        /* \"#utility.yul\":10394:10475   */\n      swap2\n      swap1\n      pop\n      jump\t// out\n        /* \"#utility.yul\":10481:10558   */\n    tag_201:\n      0x00\n        /* \"#utility.yul\":10547:10552   */\n      dup2\n        /* \"#utility.yul\":10536:10552   */\n      swap1\n      pop\n        /* \"#utility.yul\":10526:10558   */\n      swap2\n      swap1\n      pop\n      jump\t// out\n        /* \"#utility.yul\":10564:10744   */\n    tag_240:\n        /* \"#utility.yul\":10612:10689   */\n      0x4e487b7100000000000000000000000000000000000000000000000000000000\n        /* \"#utility.yul\":10609:10610   */\n      0x00\n        /* \"#utility.yul\":10602:10690   */\n      mstore\n        /* \"#utility.yul\":10709:10713   */\n      0x11\n        /* \"#utility.yul\":10706:10707   */\n      0x04\n        /* \"#utility.yul\":10699:10714   */\n      mstore\n        /* \"#utility.yul\":10733:10737   */\n      0x24\n        /* \"#utility.yul\":10730:10731   */\n      0x00\n        /* \"#utility.yul\":10723:10738   */\n      revert\n        /* \"#utility.yul\":10750:10930   */\n    tag_234:\n        /* \"#utility.yul\":10798:10875   */\n      0x4e487b7100000000000000000000000000000000000000000000000000000000\n        /* \"#utility.yul\":10795:10796   */\n      0x00\n        /* \"#utility.yul\":10788:10876   */\n      mstore\n        /* \"#utility.yul\":10895:10899   */\n      0x12\n        /* \"#utility.yul\":10892:10893   */\n      0x04\n        /* \"#utility.yul\":10885:10900   */\n      mstore\n        /* \"#utility.yul\":10919:10923   */\n      0x24\n        /* \"#utility.yul\":10916:10917   */\n      0x00\n        /* \"#utility.yul\":10909:10924   */\n      revert\n        /* \"#utility.yul\":10936:11105   */\n    tag_177:\n        /* \"#utility.yul\":11076:11097   */\n      0x746f6b656e20616c726561647920657869737400000000000000000000000000\n        /* \"#utility.yul\":11072:11073   */\n      0x00\n        /* \"#utility.yul\":11064:11070   */\n      dup3\n        /* \"#utility.yul\":11060:11074   */\n      add\n        /* \"#utility.yul\":11053:11098   */\n      mstore\n        /* \"#utility.yul\":11042:11105   */\n      pop\n      jump\t// out\n        /* \"#utility.yul\":11111:11280   */\n    tag_182:\n        /* \"#utility.yul\":11251:11272   */\n      0x746f6b656e20646f65736e277420657869737400000000000000000000000000\n        /* \"#utility.yul\":11247:11248   */\n      0x00\n        /* \"#utility.yul\":11239:11245   */\n      dup3\n        /* \"#utility.yul\":11235:11249   */\n      add\n        /* \"#utility.yul\":11228:11273   */\n      mstore\n        /* \"#utility.yul\":11217:11280   */\n      pop\n      jump\t// out\n        /* \"#utility.yul\":11286:11506   */\n    tag_187:\n        /* \"#utility.yul\":11426:11460   */\n      0x4f6e6c7920636f6e74726163742773206f776e65722063616e20646f20746861\n        /* \"#utility.yul\":11422:11423   */\n      0x00\n        /* \"#utility.yul\":11414:11420   */\n      dup3\n        /* \"#utility.yul\":11410:11424   */\n      add\n        /* \"#utility.yul\":11403:11461   */\n      mstore\n        /* \"#utility.yul\":11495:11498   */\n      0x7400000000000000000000000000000000000000000000000000000000000000\n        /* \"#utility.yul\":11490:11492   */\n      0x20\n        /* \"#utility.yul\":11482:11488   */\n      dup3\n        /* \"#utility.yul\":11478:11493   */\n      add\n        /* \"#utility.yul\":11471:11499   */\n      mstore\n        /* \"#utility.yul\":11392:11506   */\n      pop\n      jump\t// out\n        /* \"#utility.yul\":11512:11688   */\n    tag_192:\n        /* \"#utility.yul\":11652:11680   */\n      0x50726963652063616e6e6f7420626520657175616c20746f2030000000000000\n        /* \"#utility.yul\":11648:11649   */\n      0x00\n        /* \"#utility.yul\":11640:11646   */\n      dup3\n        /* \"#utility.yul\":11636:11650   */\n      add\n        /* \"#utility.yul\":11629:11681   */\n      mstore\n        /* \"#utility.yul\":11618:11688   */\n      pop\n      jump\t// out\n        /* \"#utility.yul\":11694:11816   */\n    tag_128:\n        /* \"#utility.yul\":11767:11791   */\n      tag_259\n        /* \"#utility.yul\":11785:11790   */\n      dup2\n        /* \"#utility.yul\":11767:11791   */\n      tag_150\n      jump\t// in\n    tag_259:\n        /* \"#utility.yul\":11760:11765   */\n      dup2\n        /* \"#utility.yul\":11757:11792   */\n      eq\n        /* \"#utility.yul\":11747:11749   */\n      tag_260\n      jumpi\n        /* \"#utility.yul\":11806:11807   */\n      0x00\n        /* \"#utility.yul\":11803:11804   */\n      dup1\n        /* \"#utility.yul\":11796:11808   */\n      revert\n        /* \"#utility.yul\":11747:11749   */\n    tag_260:\n        /* \"#utility.yul\":11737:11816   */\n      pop\n      jump\t// out\n        /* \"#utility.yul\":11822:11944   */\n    tag_132:\n        /* \"#utility.yul\":11895:11919   */\n      tag_262\n        /* \"#utility.yul\":11913:11918   */\n      dup2\n        /* \"#utility.yul\":11895:11919   */\n      tag_201\n      jump\t// in\n    tag_262:\n        /* \"#utility.yul\":11888:11893   */\n      dup2\n        /* \"#utility.yul\":11885:11920   */\n      eq\n        /* \"#utility.yul\":11875:11877   */\n      tag_263\n      jumpi\n        /* \"#utility.yul\":11934:11935   */\n      0x00\n        /* \"#utility.yul\":11931:11932   */\n      dup1\n        /* \"#utility.yul\":11924:11936   */\n      revert\n        /* \"#utility.yul\":11875:11877   */\n    tag_263:\n        /* \"#utility.yul\":11865:11944   */\n      pop\n      jump\t// out\n\n    auxdata: 0xa264697066735822122089ddc0b0585980600bdb74bc7b1a6f9b3c61c2639e1841be7cce39380097820c64736f6c63430008010033\n}\n",
				"bytecode": {
					"linkReferences": {},
					"object": "60806040523480156200001157600080fd5b5033600260006101000a81548173ffffffffffffffffffffffffffffffffffffffff021916908373ffffffffffffffffffffffffffffffffffffffff1602179055506040518060400160405280600b81526020017f4765656b20546f6b656e7300000000000000000000000000000000000000000081525060009080519060200190620000a0929190620000f5565b506040518060400160405280600581526020017f4745454b5400000000000000000000000000000000000000000000000000000081525060019080519060200190620000ee929190620000f5565b506200020a565b8280546200010390620001a5565b90600052602060002090601f01602090048101928262000127576000855562000173565b82601f106200014257805160ff191683800117855562000173565b8280016001018555821562000173579182015b828111156200017257825182559160200191906001019062000155565b5b50905062000182919062000186565b5090565b5b80821115620001a157600081600090555060010162000187565b5090565b60006002820490506001821680620001be57607f821691505b60208210811415620001d557620001d4620001db565b5b50919050565b7f4e487b7100000000000000000000000000000000000000000000000000000000600052602260045260246000fd5b611296806200021a6000396000f3fe6080604052600436106100a75760003560e01c806391b6be9a1161006457806391b6be9a146101e2578063adae08dd146101fe578063bfb231d21461023b578063c39218951461027b578063d48644bd146102b8578063ea0ff14a146102f5576100a7565b8063073e74df146100ac5780631a4d96cd146100d757806329de6246146101145780634c389e651461013d5780636352211e1461016857806370a08231146101a5575b600080fd5b3480156100b857600080fd5b506100c1610320565b6040516100ce9190610eb7565b60405180910390f35b3480156100e357600080fd5b506100fe60048036038101906100f99190610c95565b6103ab565b60405161010b9190610e9c565b60405180910390f35b34801561012057600080fd5b5061013b60048036038101906101369190610c95565b6103de565b005b34801561014957600080fd5b50610152610478565b60405161015f9190610f59565b60405180910390f35b34801561017457600080fd5b5061018f600480360381019061018a9190610c95565b61047e565b60405161019c9190610e9c565b60405180910390f35b3480156101b157600080fd5b506101cc60048036038101906101c79190610c6c565b6104bb565b6040516101d99190610f59565b60405180910390f35b6101fc60048036038101906101f79190610c95565b610504565b005b34801561020a57600080fd5b5061022560048036038101906102209190610cbe565b6108d6565b6040516102329190610f59565b60405180910390f35b34801561024757600080fd5b50610262600480360381019061025d9190610c95565b610b53565b6040516102729493929190610f74565b60405180910390f35b34801561028757600080fd5b506102a2600480360381019061029d9190610c6c565b610ba0565b6040516102af9190610f59565b60405180910390f35b3480156102c457600080fd5b506102df60048036038101906102da9190610c95565b610bb8565b6040516102ec9190610f59565b60405180910390f35b34801561030157600080fd5b5061030a610bd0565b6040516103179190610f59565b60405180910390f35b606060008060045467ffffffffffffffff811115610367577f4e487b7100000000000000000000000000000000000000000000000000000000600052604160045260246000fd5b6040519080825280602002602001820160405280156103a057816020015b61038d610c18565b8152602001906001900390816103855790505b509050809250505090565b60066020528060005260406000206000915054906101000a900473ffffffffffffffffffffffffffffffffffffffff1681565b600260009054906101000a900473ffffffffffffffffffffffffffffffffffffffff1673ffffffffffffffffffffffffffffffffffffffff163373ffffffffffffffffffffffffffffffffffffffff161461046e576040517f08c379a000000000000000000000000000000000000000000000000000000000815260040161046590610f19565b60405180910390fd5b8060058190555050565b60045481565b60006006600083815260200190815260200160002060009054906101000a900473ffffffffffffffffffffffffffffffffffffffff169050919050565b6000600760008373ffffffffffffffffffffffffffffffffffffffff1673ffffffffffffffffffffffffffffffffffffffff168152602001908152602001600020549050919050565b6003818154811061053e577f4e487b7100000000000000000000000000000000000000000000000000000000600052603260045260246000fd5b906000526020600020906004020160010154341461055b57600080fd5b600073ffffffffffffffffffffffffffffffffffffffff166006600083815260200190815260200160002060009054906101000a900473ffffffffffffffffffffffffffffffffffffffff1673ffffffffffffffffffffffffffffffffffffffff1614156105fe576040517f08c379a00000000000000000000000000000000000000000000000000000000081526004016105f590610ef9565b60405180910390fd5b60006006600083815260200190815260200160002060009054906101000a900473ffffffffffffffffffffffffffffffffffffffff169050600060038381548110610672577f4e487b7100000000000000000000000000000000000000000000000000000000600052603260045260246000fd5b9060005260206000209060040201905060008160030160006101000a81548160ff021916908315150217905550336006600085815260200190815260200160002060006101000a81548173ffffffffffffffffffffffffffffffffffffffff021916908373ffffffffffffffffffffffffffffffffffffffff160217905550600760008373ffffffffffffffffffffffffffffffffffffffff1673ffffffffffffffffffffffffffffffffffffffff1681526020019081526020016000206000815480929190600190039190505550600760003373ffffffffffffffffffffffffffffffffffffffff1673ffffffffffffffffffffffffffffffffffffffff16815260200190815260200160002060008154809291906001019190505550600460008154809291906001900391905055506000806107b234600554610bda565b8092508193505050600260009054906101000a900473ffffffffffffffffffffffffffffffffffffffff1673ffffffffffffffffffffffffffffffffffffffff166108fc839081150290604051600060405180830381858888f19350505050158015610822573d6000803e3d6000fd5b508373ffffffffffffffffffffffffffffffffffffffff166108fc829081150290604051600060405180830381858888f19350505050158015610869573d6000803e3d6000fd5b503373ffffffffffffffffffffffffffffffffffffffff168473ffffffffffffffffffffffffffffffffffffffff167fddf252ad1be2c89b69c2b068fc378daa952ba7f163c4a11628f55a4df523b3ef876040516108c79190610f59565b60405180910390a35050505050565b600080831161091a576040517f08c379a000000000000000000000000000000000000000000000000000000000815260040161091190610f39565b60405180910390fd5b60006003805490509050600073ffffffffffffffffffffffffffffffffffffffff166006600083815260200190815260200160002060009054906101000a900473ffffffffffffffffffffffffffffffffffffffff1673ffffffffffffffffffffffffffffffffffffffff16146109c6576040517f08c379a00000000000000000000000000000000000000000000000000000000081526004016109bd90610ed9565b60405180910390fd5b60405180608001604052808281526020018581526020018481526020016001151581525060038281548110610a24577f4e487b7100000000000000000000000000000000000000000000000000000000600052603260045260246000fd5b906000526020600020906004020160008201518160000155602082015181600101556040820151816002015560608201518160030160006101000a81548160ff021916908315150217905550905050336006600083815260200190815260200160002060006101000a81548173ffffffffffffffffffffffffffffffffffffffff021916908373ffffffffffffffffffffffffffffffffffffffff160217905550600760003373ffffffffffffffffffffffffffffffffffffffff1673ffffffffffffffffffffffffffffffffffffffff1681526020019081526020016000206000815480929190600101919050555060086000848152602001908152602001600020600081548092919060010191905055506004600081548092919060010191905055508091505092915050565b60038181548110610b6357600080fd5b90600052602060002090600402016000915090508060000154908060010154908060020154908060030160009054906101000a900460ff16905084565b60076020528060005260406000206000915090505481565b60086020528060005260406000206000915090505481565b6000600554905090565b600080600060648585610bed9190611034565b610bf79190611003565b905060008186610c07919061108e565b905081819350935050509250929050565b60405180608001604052806000815260200160008152602001600081526020016000151581525090565b600081359050610c5181611232565b92915050565b600081359050610c6681611249565b92915050565b600060208284031215610c7e57600080fd5b6000610c8c84828501610c42565b91505092915050565b600060208284031215610ca757600080fd5b6000610cb584828501610c57565b91505092915050565b60008060408385031215610cd157600080fd5b6000610cdf85828601610c57565b9250506020610cf085828601610c57565b9150509250929050565b6000610d068383610e29565b60808301905092915050565b610d1b816110c2565b82525050565b6000610d2c82610fc9565b610d368185610fe1565b9350610d4183610fb9565b8060005b83811015610d72578151610d598882610cfa565b9750610d6483610fd4565b925050600181019050610d45565b5085935050505092915050565b610d88816110d4565b82525050565b610d97816110d4565b82525050565b6000610daa601383610ff2565b9150610db582611168565b602082019050919050565b6000610dcd601383610ff2565b9150610dd882611191565b602082019050919050565b6000610df0602183610ff2565b9150610dfb826111ba565b604082019050919050565b6000610e13601a83610ff2565b9150610e1e82611209565b602082019050919050565b608082016000820151610e3f6000850182610e7e565b506020820151610e526020850182610e7e565b506040820151610e656040850182610e7e565b506060820151610e786060850182610d7f565b50505050565b610e8781611100565b82525050565b610e9681611100565b82525050565b6000602082019050610eb16000830184610d12565b92915050565b60006020820190508181036000830152610ed18184610d21565b905092915050565b60006020820190508181036000830152610ef281610d9d565b9050919050565b60006020820190508181036000830152610f1281610dc0565b9050919050565b60006020820190508181036000830152610f3281610de3565b9050919050565b60006020820190508181036000830152610f5281610e06565b9050919050565b6000602082019050610f6e6000830184610e8d565b92915050565b6000608082019050610f896000830187610e8d565b610f966020830186610e8d565b610fa36040830185610e8d565b610fb06060830184610d8e565b95945050505050565b6000819050602082019050919050565b600081519050919050565b6000602082019050919050565b600082825260208201905092915050565b600082825260208201905092915050565b600061100e82611100565b915061101983611100565b92508261102957611028611139565b5b828204905092915050565b600061103f82611100565b915061104a83611100565b9250817fffffffffffffffffffffffffffffffffffffffffffffffffffffffffffffffff04831182151516156110835761108261110a565b5b828202905092915050565b600061109982611100565b91506110a483611100565b9250828210156110b7576110b661110a565b5b828203905092915050565b60006110cd826110e0565b9050919050565b60008115159050919050565b600073ffffffffffffffffffffffffffffffffffffffff82169050919050565b6000819050919050565b7f4e487b7100000000000000000000000000000000000000000000000000000000600052601160045260246000fd5b7f4e487b7100000000000000000000000000000000000000000000000000000000600052601260045260246000fd5b7f746f6b656e20616c726561647920657869737400000000000000000000000000600082015250565b7f746f6b656e20646f65736e277420657869737400000000000000000000000000600082015250565b7f4f6e6c7920636f6e74726163742773206f776e65722063616e20646f2074686160008201527f7400000000000000000000000000000000000000000000000000000000000000602082015250565b7f50726963652063616e6e6f7420626520657175616c20746f2030000000000000600082015250565b61123b816110c2565b811461124657600080fd5b50565b61125281611100565b811461125d57600080fd5b5056fea264697066735822122089ddc0b0585980600bdb74bc7b1a6f9b3c61c2639e1841be7cce39380097820c64736f6c63430008010033",
					"opcodes": "PUSH1 0x80 PUSH1 0x40 MSTORE CALLVALUE DUP1 ISZERO PUSH3 0x11 JUMPI PUSH1 0x0 DUP1 REVERT JUMPDEST POP CALLER PUSH1 0x2 PUSH1 0x0 PUSH2 0x100 EXP DUP2 SLOAD DUP2 PUSH20 0xFFFFFFFFFFFFFFFFFFFFFFFFFFFFFFFFFFFFFFFF MUL NOT AND SWAP1 DUP4 PUSH20 0xFFFFFFFFFFFFFFFFFFFFFFFFFFFFFFFFFFFFFFFF AND MUL OR SWAP1 SSTORE POP PUSH1 0x40 MLOAD DUP1 PUSH1 0x40 ADD PUSH1 0x40 MSTORE DUP1 PUSH1 0xB DUP2 MSTORE PUSH1 0x20 ADD PUSH32 0x4765656B20546F6B656E73000000000000000000000000000000000000000000 DUP2 MSTORE POP PUSH1 0x0 SWAP1 DUP1 MLOAD SWAP1 PUSH1 0x20 ADD SWAP1 PUSH3 0xA0 SWAP3 SWAP2 SWAP1 PUSH3 0xF5 JUMP JUMPDEST POP PUSH1 0x40 MLOAD DUP1 PUSH1 0x40 ADD PUSH1 0x40 MSTORE DUP1 PUSH1 0x5 DUP2 MSTORE PUSH1 0x20 ADD PUSH32 0x4745454B54000000000000000000000000000000000000000000000000000000 DUP2 MSTORE POP PUSH1 0x1 SWAP1 DUP1 MLOAD SWAP1 PUSH1 0x20 ADD SWAP1 PUSH3 0xEE SWAP3 SWAP2 SWAP1 PUSH3 0xF5 JUMP JUMPDEST POP PUSH3 0x20A JUMP JUMPDEST DUP3 DUP1 SLOAD PUSH3 0x103 SWAP1 PUSH3 0x1A5 JUMP JUMPDEST SWAP1 PUSH1 0x0 MSTORE PUSH1 0x20 PUSH1 0x0 KECCAK256 SWAP1 PUSH1 0x1F ADD PUSH1 0x20 SWAP1 DIV DUP2 ADD SWAP3 DUP3 PUSH3 0x127 JUMPI PUSH1 0x0 DUP6 SSTORE PUSH3 0x173 JUMP JUMPDEST DUP3 PUSH1 0x1F LT PUSH3 0x142 JUMPI DUP1 MLOAD PUSH1 0xFF NOT AND DUP4 DUP1 ADD OR DUP6 SSTORE PUSH3 0x173 JUMP JUMPDEST DUP3 DUP1 ADD PUSH1 0x1 ADD DUP6 SSTORE DUP3 ISZERO PUSH3 0x173 JUMPI SWAP2 DUP3 ADD JUMPDEST DUP3 DUP2 GT ISZERO PUSH3 0x172 JUMPI DUP3 MLOAD DUP3 SSTORE SWAP2 PUSH1 0x20 ADD SWAP2 SWAP1 PUSH1 0x1 ADD SWAP1 PUSH3 0x155 JUMP JUMPDEST JUMPDEST POP SWAP1 POP PUSH3 0x182 SWAP2 SWAP1 PUSH3 0x186 JUMP JUMPDEST POP SWAP1 JUMP JUMPDEST JUMPDEST DUP1 DUP3 GT ISZERO PUSH3 0x1A1 JUMPI PUSH1 0x0 DUP2 PUSH1 0x0 SWAP1 SSTORE POP PUSH1 0x1 ADD PUSH3 0x187 JUMP JUMPDEST POP SWAP1 JUMP JUMPDEST PUSH1 0x0 PUSH1 0x2 DUP3 DIV SWAP1 POP PUSH1 0x1 DUP3 AND DUP1 PUSH3 0x1BE JUMPI PUSH1 0x7F DUP3 AND SWAP2 POP JUMPDEST PUSH1 0x20 DUP3 LT DUP2 EQ ISZERO PUSH3 0x1D5 JUMPI PUSH3 0x1D4 PUSH3 0x1DB JUMP JUMPDEST JUMPDEST POP SWAP2 SWAP1 POP JUMP JUMPDEST PUSH32 0x4E487B7100000000000000000000000000000000000000000000000000000000 PUSH1 0x0 MSTORE PUSH1 0x22 PUSH1 0x4 MSTORE PUSH1 0x24 PUSH1 0x0 REVERT JUMPDEST PUSH2 0x1296 DUP1 PUSH3 0x21A PUSH1 0x0 CODECOPY PUSH1 0x0 RETURN INVALID PUSH1 0x80 PUSH1 0x40 MSTORE PUSH1 0x4 CALLDATASIZE LT PUSH2 0xA7 JUMPI PUSH1 0x0 CALLDATALOAD PUSH1 0xE0 SHR DUP1 PUSH4 0x91B6BE9A GT PUSH2 0x64 JUMPI DUP1 PUSH4 0x91B6BE9A EQ PUSH2 0x1E2 JUMPI DUP1 PUSH4 0xADAE08DD EQ PUSH2 0x1FE JUMPI DUP1 PUSH4 0xBFB231D2 EQ PUSH2 0x23B JUMPI DUP1 PUSH4 0xC3921895 EQ PUSH2 0x27B JUMPI DUP1 PUSH4 0xD48644BD EQ PUSH2 0x2B8 JUMPI DUP1 PUSH4 0xEA0FF14A EQ PUSH2 0x2F5 JUMPI PUSH2 0xA7 JUMP JUMPDEST DUP1 PUSH4 0x73E74DF EQ PUSH2 0xAC JUMPI DUP1 PUSH4 0x1A4D96CD EQ PUSH2 0xD7 JUMPI DUP1 PUSH4 0x29DE6246 EQ PUSH2 0x114 JUMPI DUP1 PUSH4 0x4C389E65 EQ PUSH2 0x13D JUMPI DUP1 PUSH4 0x6352211E EQ PUSH2 0x168 JUMPI DUP1 PUSH4 0x70A08231 EQ PUSH2 0x1A5 JUMPI JUMPDEST PUSH1 0x0 DUP1 REVERT JUMPDEST CALLVALUE DUP1 ISZERO PUSH2 0xB8 JUMPI PUSH1 0x0 DUP1 REVERT JUMPDEST POP PUSH2 0xC1 PUSH2 0x320 JUMP JUMPDEST PUSH1 0x40 MLOAD PUSH2 0xCE SWAP2 SWAP1 PUSH2 0xEB7 JUMP JUMPDEST PUSH1 0x40 MLOAD DUP1 SWAP2 SUB SWAP1 RETURN JUMPDEST CALLVALUE DUP1 ISZERO PUSH2 0xE3 JUMPI PUSH1 0x0 DUP1 REVERT JUMPDEST POP PUSH2 0xFE PUSH1 0x4 DUP1 CALLDATASIZE SUB DUP2 ADD SWAP1 PUSH2 0xF9 SWAP2 SWAP1 PUSH2 0xC95 JUMP JUMPDEST PUSH2 0x3AB JUMP JUMPDEST PUSH1 0x40 MLOAD PUSH2 0x10B SWAP2 SWAP1 PUSH2 0xE9C JUMP JUMPDEST PUSH1 0x40 MLOAD DUP1 SWAP2 SUB SWAP1 RETURN JUMPDEST CALLVALUE DUP1 ISZERO PUSH2 0x120 JUMPI PUSH1 0x0 DUP1 REVERT JUMPDEST POP PUSH2 0x13B PUSH1 0x4 DUP1 CALLDATASIZE SUB DUP2 ADD SWAP1 PUSH2 0x136 SWAP2 SWAP1 PUSH2 0xC95 JUMP JUMPDEST PUSH2 0x3DE JUMP JUMPDEST STOP JUMPDEST CALLVALUE DUP1 ISZERO PUSH2 0x149 JUMPI PUSH1 0x0 DUP1 REVERT JUMPDEST POP PUSH2 0x152 PUSH2 0x478 JUMP JUMPDEST PUSH1 0x40 MLOAD PUSH2 0x15F SWAP2 SWAP1 PUSH2 0xF59 JUMP JUMPDEST PUSH1 0x40 MLOAD DUP1 SWAP2 SUB SWAP1 RETURN JUMPDEST CALLVALUE DUP1 ISZERO PUSH2 0x174 JUMPI PUSH1 0x0 DUP1 REVERT JUMPDEST POP PUSH2 0x18F PUSH1 0x4 DUP1 CALLDATASIZE SUB DUP2 ADD SWAP1 PUSH2 0x18A SWAP2 SWAP1 PUSH2 0xC95 JUMP JUMPDEST PUSH2 0x47E JUMP JUMPDEST PUSH1 0x40 MLOAD PUSH2 0x19C SWAP2 SWAP1 PUSH2 0xE9C JUMP JUMPDEST PUSH1 0x40 MLOAD DUP1 SWAP2 SUB SWAP1 RETURN JUMPDEST CALLVALUE DUP1 ISZERO PUSH2 0x1B1 JUMPI PUSH1 0x0 DUP1 REVERT JUMPDEST POP PUSH2 0x1CC PUSH1 0x4 DUP1 CALLDATASIZE SUB DUP2 ADD SWAP1 PUSH2 0x1C7 SWAP2 SWAP1 PUSH2 0xC6C JUMP JUMPDEST PUSH2 0x4BB JUMP JUMPDEST PUSH1 0x40 MLOAD PUSH2 0x1D9 SWAP2 SWAP1 PUSH2 0xF59 JUMP JUMPDEST PUSH1 0x40 MLOAD DUP1 SWAP2 SUB SWAP1 RETURN JUMPDEST PUSH2 0x1FC PUSH1 0x4 DUP1 CALLDATASIZE SUB DUP2 ADD SWAP1 PUSH2 0x1F7 SWAP2 SWAP1 PUSH2 0xC95 JUMP JUMPDEST PUSH2 0x504 JUMP JUMPDEST STOP JUMPDEST CALLVALUE DUP1 ISZERO PUSH2 0x20A JUMPI PUSH1 0x0 DUP1 REVERT JUMPDEST POP PUSH2 0x225 PUSH1 0x4 DUP1 CALLDATASIZE SUB DUP2 ADD SWAP1 PUSH2 0x220 SWAP2 SWAP1 PUSH2 0xCBE JUMP JUMPDEST PUSH2 0x8D6 JUMP JUMPDEST PUSH1 0x40 MLOAD PUSH2 0x232 SWAP2 SWAP1 PUSH2 0xF59 JUMP JUMPDEST PUSH1 0x40 MLOAD DUP1 SWAP2 SUB SWAP1 RETURN JUMPDEST CALLVALUE DUP1 ISZERO PUSH2 0x247 JUMPI PUSH1 0x0 DUP1 REVERT JUMPDEST POP PUSH2 0x262 PUSH1 0x4 DUP1 CALLDATASIZE SUB DUP2 ADD SWAP1 PUSH2 0x25D SWAP2 SWAP1 PUSH2 0xC95 JUMP JUMPDEST PUSH2 0xB53 JUMP JUMPDEST PUSH1 0x40 MLOAD PUSH2 0x272 SWAP5 SWAP4 SWAP3 SWAP2 SWAP1 PUSH2 0xF74 JUMP JUMPDEST PUSH1 0x40 MLOAD DUP1 SWAP2 SUB SWAP1 RETURN JUMPDEST CALLVALUE DUP1 ISZERO PUSH2 0x287 JUMPI PUSH1 0x0 DUP1 REVERT JUMPDEST POP PUSH2 0x2A2 PUSH1 0x4 DUP1 CALLDATASIZE SUB DUP2 ADD SWAP1 PUSH2 0x29D SWAP2 SWAP1 PUSH2 0xC6C JUMP JUMPDEST PUSH2 0xBA0 JUMP JUMPDEST PUSH1 0x40 MLOAD PUSH2 0x2AF SWAP2 SWAP1 PUSH2 0xF59 JUMP JUMPDEST PUSH1 0x40 MLOAD DUP1 SWAP2 SUB SWAP1 RETURN JUMPDEST CALLVALUE DUP1 ISZERO PUSH2 0x2C4 JUMPI PUSH1 0x0 DUP1 REVERT JUMPDEST POP PUSH2 0x2DF PUSH1 0x4 DUP1 CALLDATASIZE SUB DUP2 ADD SWAP1 PUSH2 0x2DA SWAP2 SWAP1 PUSH2 0xC95 JUMP JUMPDEST PUSH2 0xBB8 JUMP JUMPDEST PUSH1 0x40 MLOAD PUSH2 0x2EC SWAP2 SWAP1 PUSH2 0xF59 JUMP JUMPDEST PUSH1 0x40 MLOAD DUP1 SWAP2 SUB SWAP1 RETURN JUMPDEST CALLVALUE DUP1 ISZERO PUSH2 0x301 JUMPI PUSH1 0x0 DUP1 REVERT JUMPDEST POP PUSH2 0x30A PUSH2 0xBD0 JUMP JUMPDEST PUSH1 0x40 MLOAD PUSH2 0x317 SWAP2 SWAP1 PUSH2 0xF59 JUMP JUMPDEST PUSH1 0x40 MLOAD DUP1 SWAP2 SUB SWAP1 RETURN JUMPDEST PUSH1 0x60 PUSH1 0x0 DUP1 PUSH1 0x4 SLOAD PUSH8 0xFFFFFFFFFFFFFFFF DUP2 GT ISZERO PUSH2 0x367 JUMPI PUSH32 0x4E487B7100000000000000000000000000000000000000000000000000000000 PUSH1 0x0 MSTORE PUSH1 0x41 PUSH1 0x4 MSTORE PUSH1 0x24 PUSH1 0x0 REVERT JUMPDEST PUSH1 0x40 MLOAD SWAP1 DUP1 DUP3 MSTORE DUP1 PUSH1 0x20 MUL PUSH1 0x20 ADD DUP3 ADD PUSH1 0x40 MSTORE DUP1 ISZERO PUSH2 0x3A0 JUMPI DUP2 PUSH1 0x20 ADD JUMPDEST PUSH2 0x38D PUSH2 0xC18 JUMP JUMPDEST DUP2 MSTORE PUSH1 0x20 ADD SWAP1 PUSH1 0x1 SWAP1 SUB SWAP1 DUP2 PUSH2 0x385 JUMPI SWAP1 POP JUMPDEST POP SWAP1 POP DUP1 SWAP3 POP POP POP SWAP1 JUMP JUMPDEST PUSH1 0x6 PUSH1 0x20 MSTORE DUP1 PUSH1 0x0 MSTORE PUSH1 0x40 PUSH1 0x0 KECCAK256 PUSH1 0x0 SWAP2 POP SLOAD SWAP1 PUSH2 0x100 EXP SWAP1 DIV PUSH20 0xFFFFFFFFFFFFFFFFFFFFFFFFFFFFFFFFFFFFFFFF AND DUP2 JUMP JUMPDEST PUSH1 0x2 PUSH1 0x0 SWAP1 SLOAD SWAP1 PUSH2 0x100 EXP SWAP1 DIV PUSH20 0xFFFFFFFFFFFFFFFFFFFFFFFFFFFFFFFFFFFFFFFF AND PUSH20 0xFFFFFFFFFFFFFFFFFFFFFFFFFFFFFFFFFFFFFFFF AND CALLER PUSH20 0xFFFFFFFFFFFFFFFFFFFFFFFFFFFFFFFFFFFFFFFF AND EQ PUSH2 0x46E JUMPI PUSH1 0x40 MLOAD PUSH32 0x8C379A000000000000000000000000000000000000000000000000000000000 DUP2 MSTORE PUSH1 0x4 ADD PUSH2 0x465 SWAP1 PUSH2 0xF19 JUMP JUMPDEST PUSH1 0x40 MLOAD DUP1 SWAP2 SUB SWAP1 REVERT JUMPDEST DUP1 PUSH1 0x5 DUP2 SWAP1 SSTORE POP POP JUMP JUMPDEST PUSH1 0x4 SLOAD DUP2 JUMP JUMPDEST PUSH1 0x0 PUSH1 0x6 PUSH1 0x0 DUP4 DUP2 MSTORE PUSH1 0x20 ADD SWAP1 DUP2 MSTORE PUSH1 0x20 ADD PUSH1 0x0 KECCAK256 PUSH1 0x0 SWAP1 SLOAD SWAP1 PUSH2 0x100 EXP SWAP1 DIV PUSH20 0xFFFFFFFFFFFFFFFFFFFFFFFFFFFFFFFFFFFFFFFF AND SWAP1 POP SWAP2 SWAP1 POP JUMP JUMPDEST PUSH1 0x0 PUSH1 0x7 PUSH1 0x0 DUP4 PUSH20 0xFFFFFFFFFFFFFFFFFFFFFFFFFFFFFFFFFFFFFFFF AND PUSH20 0xFFFFFFFFFFFFFFFFFFFFFFFFFFFFFFFFFFFFFFFF AND DUP2 MSTORE PUSH1 0x20 ADD SWAP1 DUP2 MSTORE PUSH1 0x20 ADD PUSH1 0x0 KECCAK256 SLOAD SWAP1 POP SWAP2 SWAP1 POP JUMP JUMPDEST PUSH1 0x3 DUP2 DUP2 SLOAD DUP2 LT PUSH2 0x53E JUMPI PUSH32 0x4E487B7100000000000000000000000000000000000000000000000000000000 PUSH1 0x0 MSTORE PUSH1 0x32 PUSH1 0x4 MSTORE PUSH1 0x24 PUSH1 0x0 REVERT JUMPDEST SWAP1 PUSH1 0x0 MSTORE PUSH1 0x20 PUSH1 0x0 KECCAK256 SWAP1 PUSH1 0x4 MUL ADD PUSH1 0x1 ADD SLOAD CALLVALUE EQ PUSH2 0x55B JUMPI PUSH1 0x0 DUP1 REVERT JUMPDEST PUSH1 0x0 PUSH20 0xFFFFFFFFFFFFFFFFFFFFFFFFFFFFFFFFFFFFFFFF AND PUSH1 0x6 PUSH1 0x0 DUP4 DUP2 MSTORE PUSH1 0x20 ADD SWAP1 DUP2 MSTORE PUSH1 0x20 ADD PUSH1 0x0 KECCAK256 PUSH1 0x0 SWAP1 SLOAD SWAP1 PUSH2 0x100 EXP SWAP1 DIV PUSH20 0xFFFFFFFFFFFFFFFFFFFFFFFFFFFFFFFFFFFFFFFF AND PUSH20 0xFFFFFFFFFFFFFFFFFFFFFFFFFFFFFFFFFFFFFFFF AND EQ ISZERO PUSH2 0x5FE JUMPI PUSH1 0x40 MLOAD PUSH32 0x8C379A000000000000000000000000000000000000000000000000000000000 DUP2 MSTORE PUSH1 0x4 ADD PUSH2 0x5F5 SWAP1 PUSH2 0xEF9 JUMP JUMPDEST PUSH1 0x40 MLOAD DUP1 SWAP2 SUB SWAP1 REVERT JUMPDEST PUSH1 0x0 PUSH1 0x6 PUSH1 0x0 DUP4 DUP2 MSTORE PUSH1 0x20 ADD SWAP1 DUP2 MSTORE PUSH1 0x20 ADD PUSH1 0x0 KECCAK256 PUSH1 0x0 SWAP1 SLOAD SWAP1 PUSH2 0x100 EXP SWAP1 DIV PUSH20 0xFFFFFFFFFFFFFFFFFFFFFFFFFFFFFFFFFFFFFFFF AND SWAP1 POP PUSH1 0x0 PUSH1 0x3 DUP4 DUP2 SLOAD DUP2 LT PUSH2 0x672 JUMPI PUSH32 0x4E487B7100000000000000000000000000000000000000000000000000000000 PUSH1 0x0 MSTORE PUSH1 0x32 PUSH1 0x4 MSTORE PUSH1 0x24 PUSH1 0x0 REVERT JUMPDEST SWAP1 PUSH1 0x0 MSTORE PUSH1 0x20 PUSH1 0x0 KECCAK256 SWAP1 PUSH1 0x4 MUL ADD SWAP1 POP PUSH1 0x0 DUP2 PUSH1 0x3 ADD PUSH1 0x0 PUSH2 0x100 EXP DUP2 SLOAD DUP2 PUSH1 0xFF MUL NOT AND SWAP1 DUP4 ISZERO ISZERO MUL OR SWAP1 SSTORE POP CALLER PUSH1 0x6 PUSH1 0x0 DUP6 DUP2 MSTORE PUSH1 0x20 ADD SWAP1 DUP2 MSTORE PUSH1 0x20 ADD PUSH1 0x0 KECCAK256 PUSH1 0x0 PUSH2 0x100 EXP DUP2 SLOAD DUP2 PUSH20 0xFFFFFFFFFFFFFFFFFFFFFFFFFFFFFFFFFFFFFFFF MUL NOT AND SWAP1 DUP4 PUSH20 0xFFFFFFFFFFFFFFFFFFFFFFFFFFFFFFFFFFFFFFFF AND MUL OR SWAP1 SSTORE POP PUSH1 0x7 PUSH1 0x0 DUP4 PUSH20 0xFFFFFFFFFFFFFFFFFFFFFFFFFFFFFFFFFFFFFFFF AND PUSH20 0xFFFFFFFFFFFFFFFFFFFFFFFFFFFFFFFFFFFFFFFF AND DUP2 MSTORE PUSH1 0x20 ADD SWAP1 DUP2 MSTORE PUSH1 0x20 ADD PUSH1 0x0 KECCAK256 PUSH1 0x0 DUP2 SLOAD DUP1 SWAP3 SWAP2 SWAP1 PUSH1 0x1 SWAP1 SUB SWAP2 SWAP1 POP SSTORE POP PUSH1 0x7 PUSH1 0x0 CALLER PUSH20 0xFFFFFFFFFFFFFFFFFFFFFFFFFFFFFFFFFFFFFFFF AND PUSH20 0xFFFFFFFFFFFFFFFFFFFFFFFFFFFFFFFFFFFFFFFF AND DUP2 MSTORE PUSH1 0x20 ADD SWAP1 DUP2 MSTORE PUSH1 0x20 ADD PUSH1 0x0 KECCAK256 PUSH1 0x0 DUP2 SLOAD DUP1 SWAP3 SWAP2 SWAP1 PUSH1 0x1 ADD SWAP2 SWAP1 POP SSTORE POP PUSH1 0x4 PUSH1 0x0 DUP2 SLOAD DUP1 SWAP3 SWAP2 SWAP1 PUSH1 0x1 SWAP1 SUB SWAP2 SWAP1 POP SSTORE POP PUSH1 0x0 DUP1 PUSH2 0x7B2 CALLVALUE PUSH1 0x5 SLOAD PUSH2 0xBDA JUMP JUMPDEST DUP1 SWAP3 POP DUP2 SWAP4 POP POP POP PUSH1 0x2 PUSH1 0x0 SWAP1 SLOAD SWAP1 PUSH2 0x100 EXP SWAP1 DIV PUSH20 0xFFFFFFFFFFFFFFFFFFFFFFFFFFFFFFFFFFFFFFFF AND PUSH20 0xFFFFFFFFFFFFFFFFFFFFFFFFFFFFFFFFFFFFFFFF AND PUSH2 0x8FC DUP4 SWAP1 DUP2 ISZERO MUL SWAP1 PUSH1 0x40 MLOAD PUSH1 0x0 PUSH1 0x40 MLOAD DUP1 DUP4 SUB DUP2 DUP6 DUP9 DUP9 CALL SWAP4 POP POP POP POP ISZERO DUP1 ISZERO PUSH2 0x822 JUMPI RETURNDATASIZE PUSH1 0x0 DUP1 RETURNDATACOPY RETURNDATASIZE PUSH1 0x0 REVERT JUMPDEST POP DUP4 PUSH20 0xFFFFFFFFFFFFFFFFFFFFFFFFFFFFFFFFFFFFFFFF AND PUSH2 0x8FC DUP3 SWAP1 DUP2 ISZERO MUL SWAP1 PUSH1 0x40 MLOAD PUSH1 0x0 PUSH1 0x40 MLOAD DUP1 DUP4 SUB DUP2 DUP6 DUP9 DUP9 CALL SWAP4 POP POP POP POP ISZERO DUP1 ISZERO PUSH2 0x869 JUMPI RETURNDATASIZE PUSH1 0x0 DUP1 RETURNDATACOPY RETURNDATASIZE PUSH1 0x0 REVERT JUMPDEST POP CALLER PUSH20 0xFFFFFFFFFFFFFFFFFFFFFFFFFFFFFFFFFFFFFFFF AND DUP5 PUSH20 0xFFFFFFFFFFFFFFFFFFFFFFFFFFFFFFFFFFFFFFFF AND PUSH32 0xDDF252AD1BE2C89B69C2B068FC378DAA952BA7F163C4A11628F55A4DF523B3EF DUP8 PUSH1 0x40 MLOAD PUSH2 0x8C7 SWAP2 SWAP1 PUSH2 0xF59 JUMP JUMPDEST PUSH1 0x40 MLOAD DUP1 SWAP2 SUB SWAP1 LOG3 POP POP POP POP POP JUMP JUMPDEST PUSH1 0x0 DUP1 DUP4 GT PUSH2 0x91A JUMPI PUSH1 0x40 MLOAD PUSH32 0x8C379A000000000000000000000000000000000000000000000000000000000 DUP2 MSTORE PUSH1 0x4 ADD PUSH2 0x911 SWAP1 PUSH2 0xF39 JUMP JUMPDEST PUSH1 0x40 MLOAD DUP1 SWAP2 SUB SWAP1 REVERT JUMPDEST PUSH1 0x0 PUSH1 0x3 DUP1 SLOAD SWAP1 POP SWAP1 POP PUSH1 0x0 PUSH20 0xFFFFFFFFFFFFFFFFFFFFFFFFFFFFFFFFFFFFFFFF AND PUSH1 0x6 PUSH1 0x0 DUP4 DUP2 MSTORE PUSH1 0x20 ADD SWAP1 DUP2 MSTORE PUSH1 0x20 ADD PUSH1 0x0 KECCAK256 PUSH1 0x0 SWAP1 SLOAD SWAP1 PUSH2 0x100 EXP SWAP1 DIV PUSH20 0xFFFFFFFFFFFFFFFFFFFFFFFFFFFFFFFFFFFFFFFF AND PUSH20 0xFFFFFFFFFFFFFFFFFFFFFFFFFFFFFFFFFFFFFFFF AND EQ PUSH2 0x9C6 JUMPI PUSH1 0x40 MLOAD PUSH32 0x8C379A000000000000000000000000000000000000000000000000000000000 DUP2 MSTORE PUSH1 0x4 ADD PUSH2 0x9BD SWAP1 PUSH2 0xED9 JUMP JUMPDEST PUSH1 0x40 MLOAD DUP1 SWAP2 SUB SWAP1 REVERT JUMPDEST PUSH1 0x40 MLOAD DUP1 PUSH1 0x80 ADD PUSH1 0x40 MSTORE DUP1 DUP3 DUP2 MSTORE PUSH1 0x20 ADD DUP6 DUP2 MSTORE PUSH1 0x20 ADD DUP5 DUP2 MSTORE PUSH1 0x20 ADD PUSH1 0x1 ISZERO ISZERO DUP2 MSTORE POP PUSH1 0x3 DUP3 DUP2 SLOAD DUP2 LT PUSH2 0xA24 JUMPI PUSH32 0x4E487B7100000000000000000000000000000000000000000000000000000000 PUSH1 0x0 MSTORE PUSH1 0x32 PUSH1 0x4 MSTORE PUSH1 0x24 PUSH1 0x0 REVERT JUMPDEST SWAP1 PUSH1 0x0 MSTORE PUSH1 0x20 PUSH1 0x0 KECCAK256 SWAP1 PUSH1 0x4 MUL ADD PUSH1 0x0 DUP3 ADD MLOAD DUP2 PUSH1 0x0 ADD SSTORE PUSH1 0x20 DUP3 ADD MLOAD DUP2 PUSH1 0x1 ADD SSTORE PUSH1 0x40 DUP3 ADD MLOAD DUP2 PUSH1 0x2 ADD SSTORE PUSH1 0x60 DUP3 ADD MLOAD DUP2 PUSH1 0x3 ADD PUSH1 0x0 PUSH2 0x100 EXP DUP2 SLOAD DUP2 PUSH1 0xFF MUL NOT AND SWAP1 DUP4 ISZERO ISZERO MUL OR SWAP1 SSTORE POP SWAP1 POP POP CALLER PUSH1 0x6 PUSH1 0x0 DUP4 DUP2 MSTORE PUSH1 0x20 ADD SWAP1 DUP2 MSTORE PUSH1 0x20 ADD PUSH1 0x0 KECCAK256 PUSH1 0x0 PUSH2 0x100 EXP DUP2 SLOAD DUP2 PUSH20 0xFFFFFFFFFFFFFFFFFFFFFFFFFFFFFFFFFFFFFFFF MUL NOT AND SWAP1 DUP4 PUSH20 0xFFFFFFFFFFFFFFFFFFFFFFFFFFFFFFFFFFFFFFFF AND MUL OR SWAP1 SSTORE POP PUSH1 0x7 PUSH1 0x0 CALLER PUSH20 0xFFFFFFFFFFFFFFFFFFFFFFFFFFFFFFFFFFFFFFFF AND PUSH20 0xFFFFFFFFFFFFFFFFFFFFFFFFFFFFFFFFFFFFFFFF AND DUP2 MSTORE PUSH1 0x20 ADD SWAP1 DUP2 MSTORE PUSH1 0x20 ADD PUSH1 0x0 KECCAK256 PUSH1 0x0 DUP2 SLOAD DUP1 SWAP3 SWAP2 SWAP1 PUSH1 0x1 ADD SWAP2 SWAP1 POP SSTORE POP PUSH1 0x8 PUSH1 0x0 DUP5 DUP2 MSTORE PUSH1 0x20 ADD SWAP1 DUP2 MSTORE PUSH1 0x20 ADD PUSH1 0x0 KECCAK256 PUSH1 0x0 DUP2 SLOAD DUP1 SWAP3 SWAP2 SWAP1 PUSH1 0x1 ADD SWAP2 SWAP1 POP SSTORE POP PUSH1 0x4 PUSH1 0x0 DUP2 SLOAD DUP1 SWAP3 SWAP2 SWAP1 PUSH1 0x1 ADD SWAP2 SWAP1 POP SSTORE POP DUP1 SWAP2 POP POP SWAP3 SWAP2 POP POP JUMP JUMPDEST PUSH1 0x3 DUP2 DUP2 SLOAD DUP2 LT PUSH2 0xB63 JUMPI PUSH1 0x0 DUP1 REVERT JUMPDEST SWAP1 PUSH1 0x0 MSTORE PUSH1 0x20 PUSH1 0x0 KECCAK256 SWAP1 PUSH1 0x4 MUL ADD PUSH1 0x0 SWAP2 POP SWAP1 POP DUP1 PUSH1 0x0 ADD SLOAD SWAP1 DUP1 PUSH1 0x1 ADD SLOAD SWAP1 DUP1 PUSH1 0x2 ADD SLOAD SWAP1 DUP1 PUSH1 0x3 ADD PUSH1 0x0 SWAP1 SLOAD SWAP1 PUSH2 0x100 EXP SWAP1 DIV PUSH1 0xFF AND SWAP1 POP DUP5 JUMP JUMPDEST PUSH1 0x7 PUSH1 0x20 MSTORE DUP1 PUSH1 0x0 MSTORE PUSH1 0x40 PUSH1 0x0 KECCAK256 PUSH1 0x0 SWAP2 POP SWAP1 POP SLOAD DUP2 JUMP JUMPDEST PUSH1 0x8 PUSH1 0x20 MSTORE DUP1 PUSH1 0x0 MSTORE PUSH1 0x40 PUSH1 0x0 KECCAK256 PUSH1 0x0 SWAP2 POP SWAP1 POP SLOAD DUP2 JUMP JUMPDEST PUSH1 0x0 PUSH1 0x5 SLOAD SWAP1 POP SWAP1 JUMP JUMPDEST PUSH1 0x0 DUP1 PUSH1 0x0 PUSH1 0x64 DUP6 DUP6 PUSH2 0xBED SWAP2 SWAP1 PUSH2 0x1034 JUMP JUMPDEST PUSH2 0xBF7 SWAP2 SWAP1 PUSH2 0x1003 JUMP JUMPDEST SWAP1 POP PUSH1 0x0 DUP2 DUP7 PUSH2 0xC07 SWAP2 SWAP1 PUSH2 0x108E JUMP JUMPDEST SWAP1 POP DUP2 DUP2 SWAP4 POP SWAP4 POP POP POP SWAP3 POP SWAP3 SWAP1 POP JUMP JUMPDEST PUSH1 0x40 MLOAD DUP1 PUSH1 0x80 ADD PUSH1 0x40 MSTORE DUP1 PUSH1 0x0 DUP2 MSTORE PUSH1 0x20 ADD PUSH1 0x0 DUP2 MSTORE PUSH1 0x20 ADD PUSH1 0x0 DUP2 MSTORE PUSH1 0x20 ADD PUSH1 0x0 ISZERO ISZERO DUP2 MSTORE POP SWAP1 JUMP JUMPDEST PUSH1 0x0 DUP2 CALLDATALOAD SWAP1 POP PUSH2 0xC51 DUP2 PUSH2 0x1232 JUMP JUMPDEST SWAP3 SWAP2 POP POP JUMP JUMPDEST PUSH1 0x0 DUP2 CALLDATALOAD SWAP1 POP PUSH2 0xC66 DUP2 PUSH2 0x1249 JUMP JUMPDEST SWAP3 SWAP2 POP POP JUMP JUMPDEST PUSH1 0x0 PUSH1 0x20 DUP3 DUP5 SUB SLT ISZERO PUSH2 0xC7E JUMPI PUSH1 0x0 DUP1 REVERT JUMPDEST PUSH1 0x0 PUSH2 0xC8C DUP5 DUP3 DUP6 ADD PUSH2 0xC42 JUMP JUMPDEST SWAP2 POP POP SWAP3 SWAP2 POP POP JUMP JUMPDEST PUSH1 0x0 PUSH1 0x20 DUP3 DUP5 SUB SLT ISZERO PUSH2 0xCA7 JUMPI PUSH1 0x0 DUP1 REVERT JUMPDEST PUSH1 0x0 PUSH2 0xCB5 DUP5 DUP3 DUP6 ADD PUSH2 0xC57 JUMP JUMPDEST SWAP2 POP POP SWAP3 SWAP2 POP POP JUMP JUMPDEST PUSH1 0x0 DUP1 PUSH1 0x40 DUP4 DUP6 SUB SLT ISZERO PUSH2 0xCD1 JUMPI PUSH1 0x0 DUP1 REVERT JUMPDEST PUSH1 0x0 PUSH2 0xCDF DUP6 DUP3 DUP7 ADD PUSH2 0xC57 JUMP JUMPDEST SWAP3 POP POP PUSH1 0x20 PUSH2 0xCF0 DUP6 DUP3 DUP7 ADD PUSH2 0xC57 JUMP JUMPDEST SWAP2 POP POP SWAP3 POP SWAP3 SWAP1 POP JUMP JUMPDEST PUSH1 0x0 PUSH2 0xD06 DUP4 DUP4 PUSH2 0xE29 JUMP JUMPDEST PUSH1 0x80 DUP4 ADD SWAP1 POP SWAP3 SWAP2 POP POP JUMP JUMPDEST PUSH2 0xD1B DUP2 PUSH2 0x10C2 JUMP JUMPDEST DUP3 MSTORE POP POP JUMP JUMPDEST PUSH1 0x0 PUSH2 0xD2C DUP3 PUSH2 0xFC9 JUMP JUMPDEST PUSH2 0xD36 DUP2 DUP6 PUSH2 0xFE1 JUMP JUMPDEST SWAP4 POP PUSH2 0xD41 DUP4 PUSH2 0xFB9 JUMP JUMPDEST DUP1 PUSH1 0x0 JUMPDEST DUP4 DUP2 LT ISZERO PUSH2 0xD72 JUMPI DUP2 MLOAD PUSH2 0xD59 DUP9 DUP3 PUSH2 0xCFA JUMP JUMPDEST SWAP8 POP PUSH2 0xD64 DUP4 PUSH2 0xFD4 JUMP JUMPDEST SWAP3 POP POP PUSH1 0x1 DUP2 ADD SWAP1 POP PUSH2 0xD45 JUMP JUMPDEST POP DUP6 SWAP4 POP POP POP POP SWAP3 SWAP2 POP POP JUMP JUMPDEST PUSH2 0xD88 DUP2 PUSH2 0x10D4 JUMP JUMPDEST DUP3 MSTORE POP POP JUMP JUMPDEST PUSH2 0xD97 DUP2 PUSH2 0x10D4 JUMP JUMPDEST DUP3 MSTORE POP POP JUMP JUMPDEST PUSH1 0x0 PUSH2 0xDAA PUSH1 0x13 DUP4 PUSH2 0xFF2 JUMP JUMPDEST SWAP2 POP PUSH2 0xDB5 DUP3 PUSH2 0x1168 JUMP JUMPDEST PUSH1 0x20 DUP3 ADD SWAP1 POP SWAP2 SWAP1 POP JUMP JUMPDEST PUSH1 0x0 PUSH2 0xDCD PUSH1 0x13 DUP4 PUSH2 0xFF2 JUMP JUMPDEST SWAP2 POP PUSH2 0xDD8 DUP3 PUSH2 0x1191 JUMP JUMPDEST PUSH1 0x20 DUP3 ADD SWAP1 POP SWAP2 SWAP1 POP JUMP JUMPDEST PUSH1 0x0 PUSH2 0xDF0 PUSH1 0x21 DUP4 PUSH2 0xFF2 JUMP JUMPDEST SWAP2 POP PUSH2 0xDFB DUP3 PUSH2 0x11BA JUMP JUMPDEST PUSH1 0x40 DUP3 ADD SWAP1 POP SWAP2 SWAP1 POP JUMP JUMPDEST PUSH1 0x0 PUSH2 0xE13 PUSH1 0x1A DUP4 PUSH2 0xFF2 JUMP JUMPDEST SWAP2 POP PUSH2 0xE1E DUP3 PUSH2 0x1209 JUMP JUMPDEST PUSH1 0x20 DUP3 ADD SWAP1 POP SWAP2 SWAP1 POP JUMP JUMPDEST PUSH1 0x80 DUP3 ADD PUSH1 0x0 DUP3 ADD MLOAD PUSH2 0xE3F PUSH1 0x0 DUP6 ADD DUP3 PUSH2 0xE7E JUMP JUMPDEST POP PUSH1 0x20 DUP3 ADD MLOAD PUSH2 0xE52 PUSH1 0x20 DUP6 ADD DUP3 PUSH2 0xE7E JUMP JUMPDEST POP PUSH1 0x40 DUP3 ADD MLOAD PUSH2 0xE65 PUSH1 0x40 DUP6 ADD DUP3 PUSH2 0xE7E JUMP JUMPDEST POP PUSH1 0x60 DUP3 ADD MLOAD PUSH2 0xE78 PUSH1 0x60 DUP6 ADD DUP3 PUSH2 0xD7F JUMP JUMPDEST POP POP POP POP JUMP JUMPDEST PUSH2 0xE87 DUP2 PUSH2 0x1100 JUMP JUMPDEST DUP3 MSTORE POP POP JUMP JUMPDEST PUSH2 0xE96 DUP2 PUSH2 0x1100 JUMP JUMPDEST DUP3 MSTORE POP POP JUMP JUMPDEST PUSH1 0x0 PUSH1 0x20 DUP3 ADD SWAP1 POP PUSH2 0xEB1 PUSH1 0x0 DUP4 ADD DUP5 PUSH2 0xD12 JUMP JUMPDEST SWAP3 SWAP2 POP POP JUMP JUMPDEST PUSH1 0x0 PUSH1 0x20 DUP3 ADD SWAP1 POP DUP2 DUP2 SUB PUSH1 0x0 DUP4 ADD MSTORE PUSH2 0xED1 DUP2 DUP5 PUSH2 0xD21 JUMP JUMPDEST SWAP1 POP SWAP3 SWAP2 POP POP JUMP JUMPDEST PUSH1 0x0 PUSH1 0x20 DUP3 ADD SWAP1 POP DUP2 DUP2 SUB PUSH1 0x0 DUP4 ADD MSTORE PUSH2 0xEF2 DUP2 PUSH2 0xD9D JUMP JUMPDEST SWAP1 POP SWAP2 SWAP1 POP JUMP JUMPDEST PUSH1 0x0 PUSH1 0x20 DUP3 ADD SWAP1 POP DUP2 DUP2 SUB PUSH1 0x0 DUP4 ADD MSTORE PUSH2 0xF12 DUP2 PUSH2 0xDC0 JUMP JUMPDEST SWAP1 POP SWAP2 SWAP1 POP JUMP JUMPDEST PUSH1 0x0 PUSH1 0x20 DUP3 ADD SWAP1 POP DUP2 DUP2 SUB PUSH1 0x0 DUP4 ADD MSTORE PUSH2 0xF32 DUP2 PUSH2 0xDE3 JUMP JUMPDEST SWAP1 POP SWAP2 SWAP1 POP JUMP JUMPDEST PUSH1 0x0 PUSH1 0x20 DUP3 ADD SWAP1 POP DUP2 DUP2 SUB PUSH1 0x0 DUP4 ADD MSTORE PUSH2 0xF52 DUP2 PUSH2 0xE06 JUMP JUMPDEST SWAP1 POP SWAP2 SWAP1 POP JUMP JUMPDEST PUSH1 0x0 PUSH1 0x20 DUP3 ADD SWAP1 POP PUSH2 0xF6E PUSH1 0x0 DUP4 ADD DUP5 PUSH2 0xE8D JUMP JUMPDEST SWAP3 SWAP2 POP POP JUMP JUMPDEST PUSH1 0x0 PUSH1 0x80 DUP3 ADD SWAP1 POP PUSH2 0xF89 PUSH1 0x0 DUP4 ADD DUP8 PUSH2 0xE8D JUMP JUMPDEST PUSH2 0xF96 PUSH1 0x20 DUP4 ADD DUP7 PUSH2 0xE8D JUMP JUMPDEST PUSH2 0xFA3 PUSH1 0x40 DUP4 ADD DUP6 PUSH2 0xE8D JUMP JUMPDEST PUSH2 0xFB0 PUSH1 0x60 DUP4 ADD DUP5 PUSH2 0xD8E JUMP JUMPDEST SWAP6 SWAP5 POP POP POP POP POP JUMP JUMPDEST PUSH1 0x0 DUP2 SWAP1 POP PUSH1 0x20 DUP3 ADD SWAP1 POP SWAP2 SWAP1 POP JUMP JUMPDEST PUSH1 0x0 DUP2 MLOAD SWAP1 POP SWAP2 SWAP1 POP JUMP JUMPDEST PUSH1 0x0 PUSH1 0x20 DUP3 ADD SWAP1 POP SWAP2 SWAP1 POP JUMP JUMPDEST PUSH1 0x0 DUP3 DUP3 MSTORE PUSH1 0x20 DUP3 ADD SWAP1 POP SWAP3 SWAP2 POP POP JUMP JUMPDEST PUSH1 0x0 DUP3 DUP3 MSTORE PUSH1 0x20 DUP3 ADD SWAP1 POP SWAP3 SWAP2 POP POP JUMP JUMPDEST PUSH1 0x0 PUSH2 0x100E DUP3 PUSH2 0x1100 JUMP JUMPDEST SWAP2 POP PUSH2 0x1019 DUP4 PUSH2 0x1100 JUMP JUMPDEST SWAP3 POP DUP3 PUSH2 0x1029 JUMPI PUSH2 0x1028 PUSH2 0x1139 JUMP JUMPDEST JUMPDEST DUP3 DUP3 DIV SWAP1 POP SWAP3 SWAP2 POP POP JUMP JUMPDEST PUSH1 0x0 PUSH2 0x103F DUP3 PUSH2 0x1100 JUMP JUMPDEST SWAP2 POP PUSH2 0x104A DUP4 PUSH2 0x1100 JUMP JUMPDEST SWAP3 POP DUP2 PUSH32 0xFFFFFFFFFFFFFFFFFFFFFFFFFFFFFFFFFFFFFFFFFFFFFFFFFFFFFFFFFFFFFFFF DIV DUP4 GT DUP3 ISZERO ISZERO AND ISZERO PUSH2 0x1083 JUMPI PUSH2 0x1082 PUSH2 0x110A JUMP JUMPDEST JUMPDEST DUP3 DUP3 MUL SWAP1 POP SWAP3 SWAP2 POP POP JUMP JUMPDEST PUSH1 0x0 PUSH2 0x1099 DUP3 PUSH2 0x1100 JUMP JUMPDEST SWAP2 POP PUSH2 0x10A4 DUP4 PUSH2 0x1100 JUMP JUMPDEST SWAP3 POP DUP3 DUP3 LT ISZERO PUSH2 0x10B7 JUMPI PUSH2 0x10B6 PUSH2 0x110A JUMP JUMPDEST JUMPDEST DUP3 DUP3 SUB SWAP1 POP SWAP3 SWAP2 POP POP JUMP JUMPDEST PUSH1 0x0 PUSH2 0x10CD DUP3 PUSH2 0x10E0 JUMP JUMPDEST SWAP1 POP SWAP2 SWAP1 POP JUMP JUMPDEST PUSH1 0x0 DUP2 ISZERO ISZERO SWAP1 POP SWAP2 SWAP1 POP JUMP JUMPDEST PUSH1 0x0 PUSH20 0xFFFFFFFFFFFFFFFFFFFFFFFFFFFFFFFFFFFFFFFF DUP3 AND SWAP1 POP SWAP2 SWAP1 POP JUMP JUMPDEST PUSH1 0x0 DUP2 SWAP1 POP SWAP2 SWAP1 POP JUMP JUMPDEST PUSH32 0x4E487B7100000000000000000000000000000000000000000000000000000000 PUSH1 0x0 MSTORE PUSH1 0x11 PUSH1 0x4 MSTORE PUSH1 0x24 PUSH1 0x0 REVERT JUMPDEST PUSH32 0x4E487B7100000000000000000000000000000000000000000000000000000000 PUSH1 0x0 MSTORE PUSH1 0x12 PUSH1 0x4 MSTORE PUSH1 0x24 PUSH1 0x0 REVERT JUMPDEST PUSH32 0x746F6B656E20616C726561647920657869737400000000000000000000000000 PUSH1 0x0 DUP3 ADD MSTORE POP JUMP JUMPDEST PUSH32 0x746F6B656E20646F65736E277420657869737400000000000000000000000000 PUSH1 0x0 DUP3 ADD MSTORE POP JUMP JUMPDEST PUSH32 0x4F6E6C7920636F6E74726163742773206F776E65722063616E20646F20746861 PUSH1 0x0 DUP3 ADD MSTORE PUSH32 0x7400000000000000000000000000000000000000000000000000000000000000 PUSH1 0x20 DUP3 ADD MSTORE POP JUMP JUMPDEST PUSH32 0x50726963652063616E6E6F7420626520657175616C20746F2030000000000000 PUSH1 0x0 DUP3 ADD MSTORE POP JUMP JUMPDEST PUSH2 0x123B DUP2 PUSH2 0x10C2 JUMP JUMPDEST DUP2 EQ PUSH2 0x1246 JUMPI PUSH1 0x0 DUP1 REVERT JUMPDEST POP JUMP JUMPDEST PUSH2 0x1252 DUP2 PUSH2 0x1100 JUMP JUMPDEST DUP2 EQ PUSH2 0x125D JUMPI PUSH1 0x0 DUP1 REVERT JUMPDEST POP JUMP INVALID LOG2 PUSH5 0x6970667358 0x22 SLT KECCAK256 DUP10 0xDD 0xC0 0xB0 PC MSIZE DUP1 PUSH1 0xB 0xDB PUSH21 0xBC7B1A6F9B3C61C2639E1841BE7CCE39380097820C PUSH5 0x736F6C6343 STOP ADDMOD ADD STOP CALLER "
				},
				"gasEstimates": {
					"creation": {
						"codeDepositCost": "951600",
						"executionCost": "infinite",
						"totalCost": "infinite"
					},
					"external": {
						"balanceOf(address)": "1652",
						"createItem(uint256,uint256)": "infinite",
						"fetchItemsToSell()": "infinite",
						"getFeesPercentage()": "1247",
						"itemToOwner(uint256)": "1562",
						"items(uint256)": "infinite",
						"itemsCatIdCount(uint256)": "infinite",
						"itemsOwnerCount(address)": "1580",
						"itemsToSellCount()": "1196",
						"modifyFeesPercentage(uint256)": "21335",
						"ownerOf(uint256)": "1654",
						"sellItem(uint256)": "infinite"
					},
					"internal": {
						"getFees(uint256,uint256)": "infinite"
					}
				},
				"methodIdentifiers": {
					"balanceOf(address)": "70a08231",
					"createItem(uint256,uint256)": "adae08dd",
					"fetchItemsToSell()": "073e74df",
					"getFeesPercentage()": "ea0ff14a",
					"itemToOwner(uint256)": "1a4d96cd",
					"items(uint256)": "bfb231d2",
					"itemsCatIdCount(uint256)": "d48644bd",
					"itemsOwnerCount(address)": "c3921895",
					"itemsToSellCount()": "4c389e65",
					"modifyFeesPercentage(uint256)": "29de6246",
					"ownerOf(uint256)": "6352211e",
					"sellItem(uint256)": "91b6be9a"
				}
			},
			"storageLayout": {
				"storage": [
					{
						"astId": 11,
						"contract": "contracts/GeekNft.sol:GeekNft",
						"label": "name",
						"offset": 0,
						"slot": "0",
						"type": "t_string_storage"
					},
					{
						"astId": 13,
						"contract": "contracts/GeekNft.sol:GeekNft",
						"label": "symbol",
						"offset": 0,
						"slot": "1",
						"type": "t_string_storage"
					},
					{
						"astId": 15,
						"contract": "contracts/GeekNft.sol:GeekNft",
						"label": "owner",
						"offset": 0,
						"slot": "2",
						"type": "t_address"
					},
					{
						"astId": 28,
						"contract": "contracts/GeekNft.sol:GeekNft",
						"label": "items",
						"offset": 0,
						"slot": "3",
						"type": "t_array(t_struct(Item)24_storage)dyn_storage"
					},
					{
						"astId": 30,
						"contract": "contracts/GeekNft.sol:GeekNft",
						"label": "itemsToSellCount",
						"offset": 0,
						"slot": "4",
						"type": "t_uint256"
					},
					{
						"astId": 32,
						"contract": "contracts/GeekNft.sol:GeekNft",
						"label": "feesPercentage",
						"offset": 0,
						"slot": "5",
						"type": "t_uint256"
					},
					{
						"astId": 36,
						"contract": "contracts/GeekNft.sol:GeekNft",
						"label": "itemToOwner",
						"offset": 0,
						"slot": "6",
						"type": "t_mapping(t_uint256,t_address)"
					},
					{
						"astId": 40,
						"contract": "contracts/GeekNft.sol:GeekNft",
						"label": "itemsOwnerCount",
						"offset": 0,
						"slot": "7",
						"type": "t_mapping(t_address,t_uint256)"
					},
					{
						"astId": 44,
						"contract": "contracts/GeekNft.sol:GeekNft",
						"label": "itemsCatIdCount",
						"offset": 0,
						"slot": "8",
						"type": "t_mapping(t_uint256,t_uint256)"
					}
				],
				"types": {
					"t_address": {
						"encoding": "inplace",
						"label": "address",
						"numberOfBytes": "20"
					},
					"t_array(t_struct(Item)24_storage)dyn_storage": {
						"base": "t_struct(Item)24_storage",
						"encoding": "dynamic_array",
						"label": "struct GeekNft.Item[]",
						"numberOfBytes": "32"
					},
					"t_bool": {
						"encoding": "inplace",
						"label": "bool",
						"numberOfBytes": "1"
					},
					"t_mapping(t_address,t_uint256)": {
						"encoding": "mapping",
						"key": "t_address",
						"label": "mapping(address => uint256)",
						"numberOfBytes": "32",
						"value": "t_uint256"
					},
					"t_mapping(t_uint256,t_address)": {
						"encoding": "mapping",
						"key": "t_uint256",
						"label": "mapping(uint256 => address)",
						"numberOfBytes": "32",
						"value": "t_address"
					},
					"t_mapping(t_uint256,t_uint256)": {
						"encoding": "mapping",
						"key": "t_uint256",
						"label": "mapping(uint256 => uint256)",
						"numberOfBytes": "32",
						"value": "t_uint256"
					},
					"t_string_storage": {
						"encoding": "bytes",
						"label": "string",
						"numberOfBytes": "32"
					},
					"t_struct(Item)24_storage": {
						"encoding": "inplace",
						"label": "struct GeekNft.Item",
						"members": [
							{
								"astId": 17,
								"contract": "contracts/GeekNft.sol:GeekNft",
								"label": "tokenId",
								"offset": 0,
								"slot": "0",
								"type": "t_uint256"
							},
							{
								"astId": 19,
								"contract": "contracts/GeekNft.sol:GeekNft",
								"label": "price",
								"offset": 0,
								"slot": "1",
								"type": "t_uint256"
							},
							{
								"astId": 21,
								"contract": "contracts/GeekNft.sol:GeekNft",
								"label": "catId",
								"offset": 0,
								"slot": "2",
								"type": "t_uint256"
							},
							{
								"astId": 23,
								"contract": "contracts/GeekNft.sol:GeekNft",
								"label": "toSell",
								"offset": 0,
								"slot": "3",
								"type": "t_bool"
							}
						],
						"numberOfBytes": "128"
					},
					"t_uint256": {
						"encoding": "inplace",
						"label": "uint256",
						"numberOfBytes": "32"
					}
				}
			},
			"userdoc": {
				"kind": "user",
				"methods": {},
				"version": 1
			}
		}
	}
}