{
	"contracts/GeekNftMarketPlace.sol": {
		"GeekNftMarketPlace": {
			"abi": [
				{
					"inputs": [],
					"stateMutability": "nonpayable",
					"type": "constructor"
				},
				{
					"anonymous": false,
					"inputs": [
						{
							"indexed": false,
							"internalType": "address",
							"name": "nftContract",
							"type": "address"
						},
						{
							"indexed": false,
							"internalType": "uint256",
							"name": "tokenId",
							"type": "uint256"
						},
						{
							"indexed": true,
							"internalType": "address",
							"name": "seller",
							"type": "address"
						},
						{
							"indexed": true,
							"internalType": "address",
							"name": "owner",
							"type": "address"
						},
						{
							"indexed": false,
							"internalType": "uint256",
							"name": "price",
							"type": "uint256"
						}
					],
					"name": "NFTListed",
					"type": "event"
				},
				{
					"anonymous": false,
					"inputs": [
						{
							"indexed": false,
							"internalType": "address",
							"name": "nftContract",
							"type": "address"
						},
						{
							"indexed": false,
							"internalType": "uint256",
							"name": "tokenId",
							"type": "uint256"
						},
						{
							"indexed": true,
							"internalType": "address",
							"name": "seller",
							"type": "address"
						},
						{
							"indexed": true,
							"internalType": "address",
							"name": "owner",
							"type": "address"
						},
						{
							"indexed": false,
							"internalType": "uint256",
							"name": "price",
							"type": "uint256"
						}
					],
					"name": "NFTSold",
					"type": "event"
				},
				{
					"inputs": [],
					"name": "LISTING_FEE",
					"outputs": [
						{
							"internalType": "uint256",
							"name": "",
							"type": "uint256"
						}
					],
					"stateMutability": "view",
					"type": "function"
				},
				{
					"inputs": [
						{
							"internalType": "address",
							"name": "_nftContract",
							"type": "address"
						},
						{
							"internalType": "uint256",
							"name": "_tokenId",
							"type": "uint256"
						}
					],
					"name": "buyNft",
					"outputs": [],
					"stateMutability": "payable",
					"type": "function"
				},
				{
					"inputs": [],
					"name": "getListingFee",
					"outputs": [
						{
							"internalType": "uint256",
							"name": "",
							"type": "uint256"
						}
					],
					"stateMutability": "view",
					"type": "function"
				},
				{
					"inputs": [],
					"name": "getMyOwnedNfts",
					"outputs": [
						{
							"components": [
								{
									"internalType": "address",
									"name": "nftContract",
									"type": "address"
								},
								{
									"internalType": "uint256",
									"name": "tokenId",
									"type": "uint256"
								},
								{
									"internalType": "uint256",
									"name": "price",
									"type": "uint256"
								},
								{
									"internalType": "address payable",
									"name": "seller",
									"type": "address"
								},
								{
									"internalType": "address payable",
									"name": "owner",
									"type": "address"
								},
								{
									"internalType": "address payable",
									"name": "creator",
									"type": "address"
								},
								{
									"internalType": "bool",
									"name": "listed",
									"type": "bool"
								}
							],
							"internalType": "struct GeekNftMarketPlace.NFT[]",
							"name": "",
							"type": "tuple[]"
						}
					],
					"stateMutability": "view",
					"type": "function"
				},
				{
					"inputs": [
						{
							"internalType": "address",
							"name": "_nftContract",
							"type": "address"
						},
						{
							"internalType": "uint256",
							"name": "_tokenId",
							"type": "uint256"
						},
						{
							"internalType": "uint256",
							"name": "_price",
							"type": "uint256"
						}
					],
					"name": "listNFT",
					"outputs": [],
					"stateMutability": "payable",
					"type": "function"
				},
				{
					"inputs": [
						{
							"internalType": "address",
							"name": "_nftContract",
							"type": "address"
						},
						{
							"internalType": "uint256",
							"name": "_tokenId",
							"type": "uint256"
						},
						{
							"internalType": "uint256",
							"name": "_price",
							"type": "uint256"
						}
					],
					"name": "resellNFT",
					"outputs": [],
					"stateMutability": "payable",
					"type": "function"
				}
			],
			"devdoc": {
				"kind": "dev",
				"methods": {},
				"version": 1
			},
			"evm": {
				"assembly": "    /* \"contracts/GeekNftMarketPlace.sol\":252:3332  contract GeekNftMarketPlace is ReentrancyGuard {... */\n  mstore(0x40, 0x80)\n    /* \"contracts/GeekNftMarketPlace.sol\":455:466  0.002 ether */\n  0x071afd498d0000\n    /* \"contracts/GeekNftMarketPlace.sol\":429:466  uint public LISTING_FEE = 0.002 ether */\n  0x03\n  sstore\n    /* \"contracts/GeekNftMarketPlace.sol\":1001:1067  constructor() {... */\n  callvalue\n  dup1\n  iszero\n  tag_1\n  jumpi\n  0x00\n  dup1\n  revert\ntag_1:\n  pop\n    /* \"contracts/RenntrancyGuard.sol\":127:128  1 */\n  0x01\n    /* \"contracts/RenntrancyGuard.sol\":232:239  _status */\n  0x00\n    /* \"contracts/RenntrancyGuard.sol\":232:254  _status = _NOT_ENTERED */\n  dup2\n  swap1\n  sstore\n  pop\n    /* \"contracts/GeekNftMarketPlace.sol\":1049:1059  msg.sender */\n  caller\n    /* \"contracts/GeekNftMarketPlace.sol\":1025:1038  _marketOwwner */\n  0x04\n  0x00\n    /* \"contracts/GeekNftMarketPlace.sol\":1025:1060  _marketOwwner = payable(msg.sender) */\n  0x0100\n  exp\n  dup2\n  sload\n  dup2\n  0xffffffffffffffffffffffffffffffffffffffff\n  mul\n  not\n  and\n  swap1\n  dup4\n  0xffffffffffffffffffffffffffffffffffffffff\n  and\n  mul\n  or\n  swap1\n  sstore\n  pop\n    /* \"contracts/GeekNftMarketPlace.sol\":252:3332  contract GeekNftMarketPlace is ReentrancyGuard {... */\n  dataSize(sub_0)\n  dup1\n  dataOffset(sub_0)\n  0x00\n  codecopy\n  0x00\n  return\nstop\n\nsub_0: assembly {\n        /* \"contracts/GeekNftMarketPlace.sol\":252:3332  contract GeekNftMarketPlace is ReentrancyGuard {... */\n      mstore(0x40, 0x80)\n      jumpi(tag_1, lt(calldatasize, 0x04))\n      shr(0xe0, calldataload(0x00))\n      dup1\n      0x04935694\n      eq\n      tag_2\n      jumpi\n      dup1\n      0x2b86ae38\n      eq\n      tag_3\n      jumpi\n      dup1\n      0x4ddf4f8f\n      eq\n      tag_4\n      jumpi\n      dup1\n      0xa46b5c5a\n      eq\n      tag_5\n      jumpi\n      dup1\n      0xad05f1b4\n      eq\n      tag_6\n      jumpi\n      dup1\n      0xb8fe6abe\n      eq\n      tag_7\n      jumpi\n    tag_1:\n      0x00\n      dup1\n      revert\n        /* \"contracts/GeekNftMarketPlace.sol\":2568:3214  function resellNFT(address _nftContract, uint _tokenId, uint _price) public payable nonReentrant{... */\n    tag_2:\n      tag_8\n      0x04\n      dup1\n      calldatasize\n      sub\n      dup2\n      add\n      swap1\n      tag_9\n      swap2\n      swap1\n      tag_10\n      jump\t// in\n    tag_9:\n      tag_11\n      jump\t// in\n    tag_8:\n      stop\n        /* \"contracts/GeekNftMarketPlace.sol\":429:466  uint public LISTING_FEE = 0.002 ether */\n    tag_3:\n      callvalue\n      dup1\n      iszero\n      tag_12\n      jumpi\n      0x00\n      dup1\n      revert\n    tag_12:\n      pop\n      tag_13\n      tag_14\n      jump\t// in\n    tag_13:\n      mload(0x40)\n      tag_15\n      swap2\n      swap1\n      tag_16\n      jump\t// in\n    tag_15:\n      mload(0x40)\n      dup1\n      swap2\n      sub\n      swap1\n      return\n        /* \"contracts/GeekNftMarketPlace.sol\":1953:2513  function buyNft(address _nftContract, uint _tokenId) public payable nonReentrant{... */\n    tag_4:\n      tag_17\n      0x04\n      dup1\n      calldatasize\n      sub\n      dup2\n      add\n      swap1\n      tag_18\n      swap2\n      swap1\n      tag_19\n      jump\t// in\n    tag_18:\n      tag_20\n      jump\t// in\n    tag_17:\n      stop\n        /* \"contracts/GeekNftMarketPlace.sol\":3253:3330  function getMyOwnedNfts() public view returns (NFT[] memory) {... */\n    tag_5:\n      callvalue\n      dup1\n      iszero\n      tag_21\n      jumpi\n      0x00\n      dup1\n      revert\n    tag_21:\n      pop\n      tag_22\n      tag_23\n      jump\t// in\n    tag_22:\n      mload(0x40)\n      tag_24\n      swap2\n      swap1\n      tag_25\n      jump\t// in\n    tag_24:\n      mload(0x40)\n      dup1\n      swap2\n      sub\n      swap1\n      return\n        /* \"contracts/GeekNftMarketPlace.sol\":1204:1929  function listNFT(address _nftContract, uint _tokenId, uint _price) public payable nonReentrant{... */\n    tag_6:\n      tag_26\n      0x04\n      dup1\n      calldatasize\n      sub\n      dup2\n      add\n      swap1\n      tag_27\n      swap2\n      swap1\n      tag_10\n      jump\t// in\n    tag_27:\n      tag_28\n      jump\t// in\n    tag_26:\n      stop\n        /* \"contracts/GeekNftMarketPlace.sol\":1073:1159  function getListingFee() public view returns (uint){... */\n    tag_7:\n      callvalue\n      dup1\n      iszero\n      tag_29\n      jumpi\n      0x00\n      dup1\n      revert\n    tag_29:\n      pop\n      tag_30\n      tag_31\n      jump\t// in\n    tag_30:\n      mload(0x40)\n      tag_32\n      swap2\n      swap1\n      tag_16\n      jump\t// in\n    tag_32:\n      mload(0x40)\n      dup1\n      swap2\n      sub\n      swap1\n      return\n        /* \"contracts/GeekNftMarketPlace.sol\":2568:3214  function resellNFT(address _nftContract, uint _tokenId, uint _price) public payable nonReentrant{... */\n    tag_11:\n        /* \"contracts/RenntrancyGuard.sol\":170:171  2 */\n      0x02\n        /* \"contracts/RenntrancyGuard.sol\":309:316  _status */\n      sload(0x00)\n        /* \"contracts/RenntrancyGuard.sol\":309:328  _status != _ENTERED */\n      eq\n      iszero\n        /* \"contracts/RenntrancyGuard.sol\":301:364  require(_status != _ENTERED, \"ReentrancyGuard: reentrant call\") */\n      tag_34\n      jumpi\n      mload(0x40)\n      0x08c379a000000000000000000000000000000000000000000000000000000000\n      dup2\n      mstore\n      0x04\n      add\n      tag_35\n      swap1\n      tag_36\n      jump\t// in\n    tag_35:\n      mload(0x40)\n      dup1\n      swap2\n      sub\n      swap1\n      revert\n    tag_34:\n        /* \"contracts/RenntrancyGuard.sol\":170:171  2 */\n      0x02\n        /* \"contracts/RenntrancyGuard.sol\":374:381  _status */\n      0x00\n        /* \"contracts/RenntrancyGuard.sol\":374:392  _status = _ENTERED */\n      dup2\n      swap1\n      sstore\n      pop\n        /* \"contracts/GeekNftMarketPlace.sol\":2691:2692  0 */\n      0x00\n        /* \"contracts/GeekNftMarketPlace.sol\":2682:2688  _price */\n      dup2\n        /* \"contracts/GeekNftMarketPlace.sol\":2682:2692  _price > 0 */\n      gt\n        /* \"contracts/GeekNftMarketPlace.sol\":2674:2725  require(_price > 0, \"Price must be at least 1 wei\") */\n      tag_38\n      jumpi\n      mload(0x40)\n      0x08c379a000000000000000000000000000000000000000000000000000000000\n      dup2\n      mstore\n      0x04\n      add\n      tag_39\n      swap1\n      tag_40\n      jump\t// in\n    tag_39:\n      mload(0x40)\n      dup1\n      swap2\n      sub\n      swap1\n      revert\n    tag_38:\n        /* \"contracts/GeekNftMarketPlace.sol\":2756:2767  LISTING_FEE */\n      sload(0x03)\n        /* \"contracts/GeekNftMarketPlace.sol\":2743:2752  msg.value */\n      callvalue\n        /* \"contracts/GeekNftMarketPlace.sol\":2743:2767  msg.value == LISTING_FEE */\n      eq\n        /* \"contracts/GeekNftMarketPlace.sol\":2735:2804  require(msg.value == LISTING_FEE, \"Not enough ether for listing fee\") */\n      tag_41\n      jumpi\n      mload(0x40)\n      0x08c379a000000000000000000000000000000000000000000000000000000000\n      dup2\n      mstore\n      0x04\n      add\n      tag_42\n      swap1\n      tag_43\n      jump\t// in\n    tag_42:\n      mload(0x40)\n      dup1\n      swap2\n      sub\n      swap1\n      revert\n    tag_41:\n        /* \"contracts/GeekNftMarketPlace.sol\":2832:2844  _nftContract */\n      dup3\n        /* \"contracts/GeekNftMarketPlace.sol\":2815:2858  GeekNftInterface(_nftContract).transferFrom */\n      0xffffffffffffffffffffffffffffffffffffffff\n      and\n      0x23b872dd\n        /* \"contracts/GeekNftMarketPlace.sol\":2859:2869  msg.sender */\n      caller\n        /* \"contracts/GeekNftMarketPlace.sol\":2879:2883  this */\n      address\n        /* \"contracts/GeekNftMarketPlace.sol\":2886:2894  _tokenId */\n      dup6\n        /* \"contracts/GeekNftMarketPlace.sol\":2815:2895  GeekNftInterface(_nftContract).transferFrom(msg.sender, address(this), _tokenId) */\n      mload(0x40)\n      dup5\n      0xffffffff\n      and\n      0xe0\n      shl\n      dup2\n      mstore\n      0x04\n      add\n      tag_44\n      swap4\n      swap3\n      swap2\n      swap1\n      tag_45\n      jump\t// in\n    tag_44:\n      0x00\n      mload(0x40)\n      dup1\n      dup4\n      sub\n      dup2\n      0x00\n      dup8\n      dup1\n      extcodesize\n      iszero\n      dup1\n      iszero\n      tag_46\n      jumpi\n      0x00\n      dup1\n      revert\n    tag_46:\n      pop\n      gas\n      call\n      iszero\n      dup1\n      iszero\n      tag_48\n      jumpi\n      returndatasize\n      0x00\n      dup1\n      returndatacopy\n      revert(0x00, returndatasize)\n    tag_48:\n      pop\n      pop\n      pop\n      pop\n        /* \"contracts/GeekNftMarketPlace.sol\":2906:2921  NFT storage nft */\n      0x00\n        /* \"contracts/GeekNftMarketPlace.sol\":2924:2932  _idToNft */\n      0x05\n        /* \"contracts/GeekNftMarketPlace.sol\":2924:2942  _idToNft[_tokenId] */\n      0x00\n        /* \"contracts/GeekNftMarketPlace.sol\":2933:2941  _tokenId */\n      dup5\n        /* \"contracts/GeekNftMarketPlace.sol\":2924:2942  _idToNft[_tokenId] */\n      dup2\n      mstore\n      0x20\n      add\n      swap1\n      dup2\n      mstore\n      0x20\n      add\n      0x00\n      keccak256\n        /* \"contracts/GeekNftMarketPlace.sol\":2906:2942  NFT storage nft = _idToNft[_tokenId] */\n      swap1\n      pop\n        /* \"contracts/GeekNftMarketPlace.sol\":2973:2983  msg.sender */\n      caller\n        /* \"contracts/GeekNftMarketPlace.sol\":2952:2955  nft */\n      dup2\n        /* \"contracts/GeekNftMarketPlace.sol\":2952:2962  nft.seller */\n      0x03\n      add\n      0x00\n        /* \"contracts/GeekNftMarketPlace.sol\":2952:2984  nft.seller = payable(msg.sender) */\n      0x0100\n      exp\n      dup2\n      sload\n      dup2\n      0xffffffffffffffffffffffffffffffffffffffff\n      mul\n      not\n      and\n      swap1\n      dup4\n      0xffffffffffffffffffffffffffffffffffffffff\n      and\n      mul\n      or\n      swap1\n      sstore\n      pop\n        /* \"contracts/GeekNftMarketPlace.sol\":3022:3026  this */\n      address\n        /* \"contracts/GeekNftMarketPlace.sol\":2994:2997  nft */\n      dup2\n        /* \"contracts/GeekNftMarketPlace.sol\":2994:3003  nft.owner */\n      0x04\n      add\n      0x00\n        /* \"contracts/GeekNftMarketPlace.sol\":2994:3028  nft.owner = payable(address(this)) */\n      0x0100\n      exp\n      dup2\n      sload\n      dup2\n      0xffffffffffffffffffffffffffffffffffffffff\n      mul\n      not\n      and\n      swap1\n      dup4\n      0xffffffffffffffffffffffffffffffffffffffff\n      and\n      mul\n      or\n      swap1\n      sstore\n      pop\n        /* \"contracts/GeekNftMarketPlace.sol\":3051:3055  true */\n      0x01\n        /* \"contracts/GeekNftMarketPlace.sol\":3038:3041  nft */\n      dup2\n        /* \"contracts/GeekNftMarketPlace.sol\":3038:3048  nft.listed */\n      0x05\n      add\n      0x14\n        /* \"contracts/GeekNftMarketPlace.sol\":3038:3055  nft.listed = true */\n      0x0100\n      exp\n      dup2\n      sload\n      dup2\n      0xff\n      mul\n      not\n      and\n      swap1\n      dup4\n      iszero\n      iszero\n      mul\n      or\n      swap1\n      sstore\n      pop\n        /* \"contracts/GeekNftMarketPlace.sol\":3077:3083  _price */\n      dup2\n        /* \"contracts/GeekNftMarketPlace.sol\":3065:3068  nft */\n      dup2\n        /* \"contracts/GeekNftMarketPlace.sol\":3065:3074  nft.price */\n      0x02\n      add\n        /* \"contracts/GeekNftMarketPlace.sol\":3065:3083  nft.price = _price */\n      dup2\n      swap1\n      sstore\n      pop\n        /* \"contracts/GeekNftMarketPlace.sol\":3094:3115  _nftsSold.decrement() */\n      tag_49\n        /* \"contracts/GeekNftMarketPlace.sol\":3094:3103  _nftsSold */\n      0x01\n        /* \"contracts/GeekNftMarketPlace.sol\":3094:3113  _nftsSold.decrement */\n      tag_50\n        /* \"contracts/GeekNftMarketPlace.sol\":3094:3115  _nftsSold.decrement() */\n      jump\t// in\n    tag_49:\n        /* \"contracts/GeekNftMarketPlace.sol\":3193:3197  this */\n      address\n        /* \"contracts/GeekNftMarketPlace.sol\":3139:3207  NFTListed(_nftContract, _tokenId, msg.sender, address(this), _price) */\n      0xffffffffffffffffffffffffffffffffffffffff\n      and\n        /* \"contracts/GeekNftMarketPlace.sol\":3173:3183  msg.sender */\n      caller\n        /* \"contracts/GeekNftMarketPlace.sol\":3139:3207  NFTListed(_nftContract, _tokenId, msg.sender, address(this), _price) */\n      0xffffffffffffffffffffffffffffffffffffffff\n      and\n      0xa0c6c0d02d86fdacecbaa5fdf5894bab204e31a778250474108540733a9b8d19\n        /* \"contracts/GeekNftMarketPlace.sol\":3149:3161  _nftContract */\n      dup7\n        /* \"contracts/GeekNftMarketPlace.sol\":3163:3171  _tokenId */\n      dup7\n        /* \"contracts/GeekNftMarketPlace.sol\":3200:3206  _price */\n      dup7\n        /* \"contracts/GeekNftMarketPlace.sol\":3139:3207  NFTListed(_nftContract, _tokenId, msg.sender, address(this), _price) */\n      mload(0x40)\n      tag_51\n      swap4\n      swap3\n      swap2\n      swap1\n      tag_52\n      jump\t// in\n    tag_51:\n      mload(0x40)\n      dup1\n      swap2\n      sub\n      swap1\n      log3\n        /* \"contracts/RenntrancyGuard.sol\":402:403  _ */\n      pop\n        /* \"contracts/RenntrancyGuard.sol\":127:128  1 */\n      0x01\n        /* \"contracts/RenntrancyGuard.sol\":413:420  _status */\n      0x00\n        /* \"contracts/RenntrancyGuard.sol\":413:435  _status = _NOT_ENTERED */\n      dup2\n      swap1\n      sstore\n      pop\n        /* \"contracts/GeekNftMarketPlace.sol\":2568:3214  function resellNFT(address _nftContract, uint _tokenId, uint _price) public payable nonReentrant{... */\n      pop\n      pop\n      pop\n      jump\t// out\n        /* \"contracts/GeekNftMarketPlace.sol\":429:466  uint public LISTING_FEE = 0.002 ether */\n    tag_14:\n      sload(0x03)\n      dup2\n      jump\t// out\n        /* \"contracts/GeekNftMarketPlace.sol\":1953:2513  function buyNft(address _nftContract, uint _tokenId) public payable nonReentrant{... */\n    tag_20:\n        /* \"contracts/RenntrancyGuard.sol\":170:171  2 */\n      0x02\n        /* \"contracts/RenntrancyGuard.sol\":309:316  _status */\n      sload(0x00)\n        /* \"contracts/RenntrancyGuard.sol\":309:328  _status != _ENTERED */\n      eq\n      iszero\n        /* \"contracts/RenntrancyGuard.sol\":301:364  require(_status != _ENTERED, \"ReentrancyGuard: reentrant call\") */\n      tag_54\n      jumpi\n      mload(0x40)\n      0x08c379a000000000000000000000000000000000000000000000000000000000\n      dup2\n      mstore\n      0x04\n      add\n      tag_55\n      swap1\n      tag_36\n      jump\t// in\n    tag_55:\n      mload(0x40)\n      dup1\n      swap2\n      sub\n      swap1\n      revert\n    tag_54:\n        /* \"contracts/RenntrancyGuard.sol\":170:171  2 */\n      0x02\n        /* \"contracts/RenntrancyGuard.sol\":374:381  _status */\n      0x00\n        /* \"contracts/RenntrancyGuard.sol\":374:392  _status = _ENTERED */\n      dup2\n      swap1\n      sstore\n      pop\n        /* \"contracts/GeekNftMarketPlace.sol\":2043:2058  NFT storage nft */\n      0x00\n        /* \"contracts/GeekNftMarketPlace.sol\":2061:2069  _idToNft */\n      0x05\n        /* \"contracts/GeekNftMarketPlace.sol\":2061:2079  _idToNft[_tokenId] */\n      0x00\n        /* \"contracts/GeekNftMarketPlace.sol\":2070:2078  _tokenId */\n      dup4\n        /* \"contracts/GeekNftMarketPlace.sol\":2061:2079  _idToNft[_tokenId] */\n      dup2\n      mstore\n      0x20\n      add\n      swap1\n      dup2\n      mstore\n      0x20\n      add\n      0x00\n      keccak256\n        /* \"contracts/GeekNftMarketPlace.sol\":2043:2079  NFT storage nft = _idToNft[_tokenId] */\n      swap1\n      pop\n        /* \"contracts/GeekNftMarketPlace.sol\":2110:2113  nft */\n      dup1\n        /* \"contracts/GeekNftMarketPlace.sol\":2110:2119  nft.price */\n      0x02\n      add\n      sload\n        /* \"contracts/GeekNftMarketPlace.sol\":2097:2106  msg.value */\n      callvalue\n        /* \"contracts/GeekNftMarketPlace.sol\":2097:2119  msg.value >= nft.price */\n      lt\n      iszero\n        /* \"contracts/GeekNftMarketPlace.sol\":2089:2162  require(msg.value >= nft.price, \"Not enough ether to cover asking price\") */\n      tag_57\n      jumpi\n      mload(0x40)\n      0x08c379a000000000000000000000000000000000000000000000000000000000\n      dup2\n      mstore\n      0x04\n      add\n      tag_58\n      swap1\n      tag_59\n      jump\t// in\n    tag_58:\n      mload(0x40)\n      dup1\n      swap2\n      sub\n      swap1\n      revert\n    tag_57:\n        /* \"contracts/GeekNftMarketPlace.sol\":2173:2194  address payable buyer */\n      0x00\n        /* \"contracts/GeekNftMarketPlace.sol\":2205:2215  msg.sender */\n      caller\n        /* \"contracts/GeekNftMarketPlace.sol\":2173:2216  address payable buyer = payable(msg.sender) */\n      swap1\n      pop\n        /* \"contracts/GeekNftMarketPlace.sol\":2226:2229  nft */\n      dup2\n        /* \"contracts/GeekNftMarketPlace.sol\":2226:2236  nft.seller */\n      0x03\n      add\n      0x00\n      swap1\n      sload\n      swap1\n      0x0100\n      exp\n      swap1\n      div\n      0xffffffffffffffffffffffffffffffffffffffff\n      and\n        /* \"contracts/GeekNftMarketPlace.sol\":2226:2245  nft.seller.transfer */\n      0xffffffffffffffffffffffffffffffffffffffff\n      and\n        /* \"contracts/GeekNftMarketPlace.sol\":2226:2256  nft.seller.transfer(msg.value) */\n      0x08fc\n        /* \"contracts/GeekNftMarketPlace.sol\":2246:2255  msg.value */\n      callvalue\n        /* \"contracts/GeekNftMarketPlace.sol\":2226:2256  nft.seller.transfer(msg.value) */\n      swap1\n      dup2\n      iszero\n      mul\n      swap1\n      mload(0x40)\n      0x00\n      mload(0x40)\n      dup1\n      dup4\n      sub\n      dup2\n      dup6\n      dup9\n      dup9\n      call\n      swap4\n      pop\n      pop\n      pop\n      pop\n      iszero\n      dup1\n      iszero\n      tag_61\n      jumpi\n      returndatasize\n      0x00\n      dup1\n      returndatacopy\n      revert(0x00, returndatasize)\n    tag_61:\n      pop\n        /* \"contracts/GeekNftMarketPlace.sol\":2284:2296  _nftContract */\n      dup4\n        /* \"contracts/GeekNftMarketPlace.sol\":2267:2310  GeekNftInterface(_nftContract).transferFrom */\n      0xffffffffffffffffffffffffffffffffffffffff\n      and\n      0x23b872dd\n        /* \"contracts/GeekNftMarketPlace.sol\":2319:2323  this */\n      address\n        /* \"contracts/GeekNftMarketPlace.sol\":2326:2331  buyer */\n      dup4\n        /* \"contracts/GeekNftMarketPlace.sol\":2333:2341  _tokenId */\n      dup7\n        /* \"contracts/GeekNftMarketPlace.sol\":2267:2342  GeekNftInterface(_nftContract).transferFrom(address(this), buyer, _tokenId) */\n      mload(0x40)\n      dup5\n      0xffffffff\n      and\n      0xe0\n      shl\n      dup2\n      mstore\n      0x04\n      add\n      tag_62\n      swap4\n      swap3\n      swap2\n      swap1\n      tag_63\n      jump\t// in\n    tag_62:\n      0x00\n      mload(0x40)\n      dup1\n      dup4\n      sub\n      dup2\n      0x00\n      dup8\n      dup1\n      extcodesize\n      iszero\n      dup1\n      iszero\n      tag_64\n      jumpi\n      0x00\n      dup1\n      revert\n    tag_64:\n      pop\n      gas\n      call\n      iszero\n      dup1\n      iszero\n      tag_66\n      jumpi\n      returndatasize\n      0x00\n      dup1\n      returndatacopy\n      revert(0x00, returndatasize)\n    tag_66:\n      pop\n      pop\n      pop\n      pop\n        /* \"contracts/GeekNftMarketPlace.sol\":2364:2369  buyer */\n      dup1\n        /* \"contracts/GeekNftMarketPlace.sol\":2352:2355  nft */\n      dup3\n        /* \"contracts/GeekNftMarketPlace.sol\":2352:2361  nft.owner */\n      0x04\n      add\n      0x00\n        /* \"contracts/GeekNftMarketPlace.sol\":2352:2369  nft.owner = buyer */\n      0x0100\n      exp\n      dup2\n      sload\n      dup2\n      0xffffffffffffffffffffffffffffffffffffffff\n      mul\n      not\n      and\n      swap1\n      dup4\n      0xffffffffffffffffffffffffffffffffffffffff\n      and\n      mul\n      or\n      swap1\n      sstore\n      pop\n        /* \"contracts/GeekNftMarketPlace.sol\":2392:2397  false */\n      0x00\n        /* \"contracts/GeekNftMarketPlace.sol\":2379:2382  nft */\n      dup3\n        /* \"contracts/GeekNftMarketPlace.sol\":2379:2389  nft.listed */\n      0x05\n      add\n      0x14\n        /* \"contracts/GeekNftMarketPlace.sol\":2379:2397  nft.listed = false */\n      0x0100\n      exp\n      dup2\n      sload\n      dup2\n      0xff\n      mul\n      not\n      and\n      swap1\n      dup4\n      iszero\n      iszero\n      mul\n      or\n      swap1\n      sstore\n      pop\n        /* \"contracts/GeekNftMarketPlace.sol\":2408:2429  _nftsSold.increment() */\n      tag_67\n        /* \"contracts/GeekNftMarketPlace.sol\":2408:2417  _nftsSold */\n      0x01\n        /* \"contracts/GeekNftMarketPlace.sol\":2408:2427  _nftsSold.increment */\n      tag_68\n        /* \"contracts/GeekNftMarketPlace.sol\":2408:2429  _nftsSold.increment() */\n      jump\t// in\n    tag_67:\n        /* \"contracts/GeekNftMarketPlace.sol\":2489:2494  buyer */\n      dup1\n        /* \"contracts/GeekNftMarketPlace.sol\":2445:2506  NFTSold(_nftContract, _tokenId, nft.seller, buyer, msg.value) */\n      0xffffffffffffffffffffffffffffffffffffffff\n      and\n        /* \"contracts/GeekNftMarketPlace.sol\":2477:2480  nft */\n      dup3\n        /* \"contracts/GeekNftMarketPlace.sol\":2477:2487  nft.seller */\n      0x03\n      add\n      0x00\n      swap1\n      sload\n      swap1\n      0x0100\n      exp\n      swap1\n      div\n      0xffffffffffffffffffffffffffffffffffffffff\n      and\n        /* \"contracts/GeekNftMarketPlace.sol\":2445:2506  NFTSold(_nftContract, _tokenId, nft.seller, buyer, msg.value) */\n      0xffffffffffffffffffffffffffffffffffffffff\n      and\n      0x16f1dbd97e6bf646d429ed186cce832f1f7fd9907814293b83181e9970ab7bd2\n        /* \"contracts/GeekNftMarketPlace.sol\":2453:2465  _nftContract */\n      dup7\n        /* \"contracts/GeekNftMarketPlace.sol\":2467:2475  _tokenId */\n      dup7\n        /* \"contracts/GeekNftMarketPlace.sol\":2496:2505  msg.value */\n      callvalue\n        /* \"contracts/GeekNftMarketPlace.sol\":2445:2506  NFTSold(_nftContract, _tokenId, nft.seller, buyer, msg.value) */\n      mload(0x40)\n      tag_69\n      swap4\n      swap3\n      swap2\n      swap1\n      tag_52\n      jump\t// in\n    tag_69:\n      mload(0x40)\n      dup1\n      swap2\n      sub\n      swap1\n      log3\n        /* \"contracts/RenntrancyGuard.sol\":402:403  _ */\n      pop\n      pop\n        /* \"contracts/RenntrancyGuard.sol\":127:128  1 */\n      0x01\n        /* \"contracts/RenntrancyGuard.sol\":413:420  _status */\n      0x00\n        /* \"contracts/RenntrancyGuard.sol\":413:435  _status = _NOT_ENTERED */\n      dup2\n      swap1\n      sstore\n      pop\n        /* \"contracts/GeekNftMarketPlace.sol\":1953:2513  function buyNft(address _nftContract, uint _tokenId) public payable nonReentrant{... */\n      pop\n      pop\n      jump\t// out\n        /* \"contracts/GeekNftMarketPlace.sol\":3253:3330  function getMyOwnedNfts() public view returns (NFT[] memory) {... */\n    tag_23:\n        /* \"contracts/GeekNftMarketPlace.sol\":3300:3312  NFT[] memory */\n      0x60\n        /* \"contracts/GeekNftMarketPlace.sol\":3253:3330  function getMyOwnedNfts() public view returns (NFT[] memory) {... */\n      swap1\n      jump\t// out\n        /* \"contracts/GeekNftMarketPlace.sol\":1204:1929  function listNFT(address _nftContract, uint _tokenId, uint _price) public payable nonReentrant{... */\n    tag_28:\n        /* \"contracts/RenntrancyGuard.sol\":170:171  2 */\n      0x02\n        /* \"contracts/RenntrancyGuard.sol\":309:316  _status */\n      sload(0x00)\n        /* \"contracts/RenntrancyGuard.sol\":309:328  _status != _ENTERED */\n      eq\n      iszero\n        /* \"contracts/RenntrancyGuard.sol\":301:364  require(_status != _ENTERED, \"ReentrancyGuard: reentrant call\") */\n      tag_72\n      jumpi\n      mload(0x40)\n      0x08c379a000000000000000000000000000000000000000000000000000000000\n      dup2\n      mstore\n      0x04\n      add\n      tag_73\n      swap1\n      tag_36\n      jump\t// in\n    tag_73:\n      mload(0x40)\n      dup1\n      swap2\n      sub\n      swap1\n      revert\n    tag_72:\n        /* \"contracts/RenntrancyGuard.sol\":170:171  2 */\n      0x02\n        /* \"contracts/RenntrancyGuard.sol\":374:381  _status */\n      0x00\n        /* \"contracts/RenntrancyGuard.sol\":374:392  _status = _ENTERED */\n      dup2\n      swap1\n      sstore\n      pop\n        /* \"contracts/GeekNftMarketPlace.sol\":1325:1326  0 */\n      0x00\n        /* \"contracts/GeekNftMarketPlace.sol\":1316:1322  _price */\n      dup2\n        /* \"contracts/GeekNftMarketPlace.sol\":1316:1326  _price > 0 */\n      gt\n        /* \"contracts/GeekNftMarketPlace.sol\":1308:1359  require(_price > 0, \"Price must be at least 1 wei\") */\n      tag_75\n      jumpi\n      mload(0x40)\n      0x08c379a000000000000000000000000000000000000000000000000000000000\n      dup2\n      mstore\n      0x04\n      add\n      tag_76\n      swap1\n      tag_40\n      jump\t// in\n    tag_76:\n      mload(0x40)\n      dup1\n      swap2\n      sub\n      swap1\n      revert\n    tag_75:\n        /* \"contracts/GeekNftMarketPlace.sol\":1390:1401  LISTING_FEE */\n      sload(0x03)\n        /* \"contracts/GeekNftMarketPlace.sol\":1377:1386  msg.value */\n      callvalue\n        /* \"contracts/GeekNftMarketPlace.sol\":1377:1401  msg.value == LISTING_FEE */\n      eq\n        /* \"contracts/GeekNftMarketPlace.sol\":1369:1438  require(msg.value == LISTING_FEE, \"Not enough ether for listing fee\") */\n      tag_77\n      jumpi\n      mload(0x40)\n      0x08c379a000000000000000000000000000000000000000000000000000000000\n      dup2\n      mstore\n      0x04\n      add\n      tag_78\n      swap1\n      tag_43\n      jump\t// in\n    tag_78:\n      mload(0x40)\n      dup1\n      swap2\n      sub\n      swap1\n      revert\n    tag_77:\n        /* \"contracts/GeekNftMarketPlace.sol\":1466:1478  _nftContract */\n      dup3\n        /* \"contracts/GeekNftMarketPlace.sol\":1449:1492  GeekNftInterface(_nftContract).transferFrom */\n      0xffffffffffffffffffffffffffffffffffffffff\n      and\n      0x23b872dd\n        /* \"contracts/GeekNftMarketPlace.sol\":1493:1503  msg.sender */\n      caller\n        /* \"contracts/GeekNftMarketPlace.sol\":1513:1517  this */\n      address\n        /* \"contracts/GeekNftMarketPlace.sol\":1520:1528  _tokenId */\n      dup6\n        /* \"contracts/GeekNftMarketPlace.sol\":1449:1529  GeekNftInterface(_nftContract).transferFrom(msg.sender, address(this), _tokenId) */\n      mload(0x40)\n      dup5\n      0xffffffff\n      and\n      0xe0\n      shl\n      dup2\n      mstore\n      0x04\n      add\n      tag_79\n      swap4\n      swap3\n      swap2\n      swap1\n      tag_45\n      jump\t// in\n    tag_79:\n      0x00\n      mload(0x40)\n      dup1\n      dup4\n      sub\n      dup2\n      0x00\n      dup8\n      dup1\n      extcodesize\n      iszero\n      dup1\n      iszero\n      tag_80\n      jumpi\n      0x00\n      dup1\n      revert\n    tag_80:\n      pop\n      gas\n      call\n      iszero\n      dup1\n      iszero\n      tag_82\n      jumpi\n      returndatasize\n      0x00\n      dup1\n      returndatacopy\n      revert(0x00, returndatasize)\n    tag_82:\n      pop\n      pop\n      pop\n      pop\n        /* \"contracts/GeekNftMarketPlace.sol\":1539:1561  _nftsCount.increment() */\n      tag_83\n        /* \"contracts/GeekNftMarketPlace.sol\":1539:1549  _nftsCount */\n      0x02\n        /* \"contracts/GeekNftMarketPlace.sol\":1539:1559  _nftsCount.increment */\n      tag_68\n        /* \"contracts/GeekNftMarketPlace.sol\":1539:1561  _nftsCount.increment() */\n      jump\t// in\n    tag_83:\n        /* \"contracts/GeekNftMarketPlace.sol\":1593:1794  NFT(... */\n      mload(0x40)\n      dup1\n      0xe0\n      add\n      0x40\n      mstore\n      dup1\n        /* \"contracts/GeekNftMarketPlace.sol\":1610:1622  _nftContract */\n      dup5\n        /* \"contracts/GeekNftMarketPlace.sol\":1593:1794  NFT(... */\n      0xffffffffffffffffffffffffffffffffffffffff\n      and\n      dup2\n      mstore\n      0x20\n      add\n        /* \"contracts/GeekNftMarketPlace.sol\":1636:1644  _tokenId */\n      dup4\n        /* \"contracts/GeekNftMarketPlace.sol\":1593:1794  NFT(... */\n      dup2\n      mstore\n      0x20\n      add\n        /* \"contracts/GeekNftMarketPlace.sol\":1658:1664  _price */\n      dup3\n        /* \"contracts/GeekNftMarketPlace.sol\":1593:1794  NFT(... */\n      dup2\n      mstore\n      0x20\n      add\n        /* \"contracts/GeekNftMarketPlace.sol\":1686:1696  msg.sender */\n      caller\n        /* \"contracts/GeekNftMarketPlace.sol\":1593:1794  NFT(... */\n      0xffffffffffffffffffffffffffffffffffffffff\n      and\n      dup2\n      mstore\n      0x20\n      add\n        /* \"contracts/GeekNftMarketPlace.sol\":1727:1731  this */\n      address\n        /* \"contracts/GeekNftMarketPlace.sol\":1593:1794  NFT(... */\n      0xffffffffffffffffffffffffffffffffffffffff\n      and\n      dup2\n      mstore\n      0x20\n      add\n        /* \"contracts/GeekNftMarketPlace.sol\":1755:1765  msg.sender */\n      caller\n        /* \"contracts/GeekNftMarketPlace.sol\":1593:1794  NFT(... */\n      0xffffffffffffffffffffffffffffffffffffffff\n      and\n      dup2\n      mstore\n      0x20\n      add\n        /* \"contracts/GeekNftMarketPlace.sol\":1780:1784  true */\n      0x01\n        /* \"contracts/GeekNftMarketPlace.sol\":1593:1794  NFT(... */\n      iszero\n      iszero\n      dup2\n      mstore\n      pop\n        /* \"contracts/GeekNftMarketPlace.sol\":1572:1580  _idToNft */\n      0x05\n        /* \"contracts/GeekNftMarketPlace.sol\":1572:1590  _idToNft[_tokenId] */\n      0x00\n        /* \"contracts/GeekNftMarketPlace.sol\":1581:1589  _tokenId */\n      dup5\n        /* \"contracts/GeekNftMarketPlace.sol\":1572:1590  _idToNft[_tokenId] */\n      dup2\n      mstore\n      0x20\n      add\n      swap1\n      dup2\n      mstore\n      0x20\n      add\n      0x00\n      keccak256\n        /* \"contracts/GeekNftMarketPlace.sol\":1572:1794  _idToNft[_tokenId] = NFT(... */\n      0x00\n      dup3\n      add\n      mload\n      dup2\n      0x00\n      add\n      exp(0x0100, 0x00)\n      dup2\n      sload\n      dup2\n      0xffffffffffffffffffffffffffffffffffffffff\n      mul\n      not\n      and\n      swap1\n      dup4\n      0xffffffffffffffffffffffffffffffffffffffff\n      and\n      mul\n      or\n      swap1\n      sstore\n      pop\n      0x20\n      dup3\n      add\n      mload\n      dup2\n      0x01\n      add\n      sstore\n      0x40\n      dup3\n      add\n      mload\n      dup2\n      0x02\n      add\n      sstore\n      0x60\n      dup3\n      add\n      mload\n      dup2\n      0x03\n      add\n      exp(0x0100, 0x00)\n      dup2\n      sload\n      dup2\n      0xffffffffffffffffffffffffffffffffffffffff\n      mul\n      not\n      and\n      swap1\n      dup4\n      0xffffffffffffffffffffffffffffffffffffffff\n      and\n      mul\n      or\n      swap1\n      sstore\n      pop\n      0x80\n      dup3\n      add\n      mload\n      dup2\n      0x04\n      add\n      exp(0x0100, 0x00)\n      dup2\n      sload\n      dup2\n      0xffffffffffffffffffffffffffffffffffffffff\n      mul\n      not\n      and\n      swap1\n      dup4\n      0xffffffffffffffffffffffffffffffffffffffff\n      and\n      mul\n      or\n      swap1\n      sstore\n      pop\n      0xa0\n      dup3\n      add\n      mload\n      dup2\n      0x05\n      add\n      exp(0x0100, 0x00)\n      dup2\n      sload\n      dup2\n      0xffffffffffffffffffffffffffffffffffffffff\n      mul\n      not\n      and\n      swap1\n      dup4\n      0xffffffffffffffffffffffffffffffffffffffff\n      and\n      mul\n      or\n      swap1\n      sstore\n      pop\n      0xc0\n      dup3\n      add\n      mload\n      dup2\n      0x05\n      add\n      exp(0x0100, 0x14)\n      dup2\n      sload\n      dup2\n      0xff\n      mul\n      not\n      and\n      swap1\n      dup4\n      iszero\n      iszero\n      mul\n      or\n      swap1\n      sstore\n      pop\n      swap1\n      pop\n      pop\n        /* \"contracts/GeekNftMarketPlace.sol\":1805:1818  _marketOwwner */\n      0x04\n      0x00\n      swap1\n      sload\n      swap1\n      0x0100\n      exp\n      swap1\n      div\n      0xffffffffffffffffffffffffffffffffffffffff\n      and\n        /* \"contracts/GeekNftMarketPlace.sol\":1805:1827  _marketOwwner.transfer */\n      0xffffffffffffffffffffffffffffffffffffffff\n      and\n        /* \"contracts/GeekNftMarketPlace.sol\":1805:1838  _marketOwwner.transfer(msg.value) */\n      0x08fc\n        /* \"contracts/GeekNftMarketPlace.sol\":1828:1837  msg.value */\n      callvalue\n        /* \"contracts/GeekNftMarketPlace.sol\":1805:1838  _marketOwwner.transfer(msg.value) */\n      swap1\n      dup2\n      iszero\n      mul\n      swap1\n      mload(0x40)\n      0x00\n      mload(0x40)\n      dup1\n      dup4\n      sub\n      dup2\n      dup6\n      dup9\n      dup9\n      call\n      swap4\n      pop\n      pop\n      pop\n      pop\n      iszero\n      dup1\n      iszero\n      tag_85\n      jumpi\n      returndatasize\n      0x00\n      dup1\n      returndatacopy\n      revert(0x00, returndatasize)\n    tag_85:\n      pop\n        /* \"contracts/GeekNftMarketPlace.sol\":1908:1912  this */\n      address\n        /* \"contracts/GeekNftMarketPlace.sol\":1854:1922  NFTListed(_nftContract, _tokenId, msg.sender, address(this), _price) */\n      0xffffffffffffffffffffffffffffffffffffffff\n      and\n        /* \"contracts/GeekNftMarketPlace.sol\":1888:1898  msg.sender */\n      caller\n        /* \"contracts/GeekNftMarketPlace.sol\":1854:1922  NFTListed(_nftContract, _tokenId, msg.sender, address(this), _price) */\n      0xffffffffffffffffffffffffffffffffffffffff\n      and\n      0xa0c6c0d02d86fdacecbaa5fdf5894bab204e31a778250474108540733a9b8d19\n        /* \"contracts/GeekNftMarketPlace.sol\":1864:1876  _nftContract */\n      dup6\n        /* \"contracts/GeekNftMarketPlace.sol\":1878:1886  _tokenId */\n      dup6\n        /* \"contracts/GeekNftMarketPlace.sol\":1915:1921  _price */\n      dup6\n        /* \"contracts/GeekNftMarketPlace.sol\":1854:1922  NFTListed(_nftContract, _tokenId, msg.sender, address(this), _price) */\n      mload(0x40)\n      tag_86\n      swap4\n      swap3\n      swap2\n      swap1\n      tag_52\n      jump\t// in\n    tag_86:\n      mload(0x40)\n      dup1\n      swap2\n      sub\n      swap1\n      log3\n        /* \"contracts/RenntrancyGuard.sol\":127:128  1 */\n      0x01\n        /* \"contracts/RenntrancyGuard.sol\":413:420  _status */\n      0x00\n        /* \"contracts/RenntrancyGuard.sol\":413:435  _status = _NOT_ENTERED */\n      dup2\n      swap1\n      sstore\n      pop\n        /* \"contracts/GeekNftMarketPlace.sol\":1204:1929  function listNFT(address _nftContract, uint _tokenId, uint _price) public payable nonReentrant{... */\n      pop\n      pop\n      pop\n      jump\t// out\n        /* \"contracts/GeekNftMarketPlace.sol\":1073:1159  function getListingFee() public view returns (uint){... */\n    tag_31:\n        /* \"contracts/GeekNftMarketPlace.sol\":1119:1123  uint */\n      0x00\n        /* \"contracts/GeekNftMarketPlace.sol\":1141:1152  LISTING_FEE */\n      sload(0x03)\n        /* \"contracts/GeekNftMarketPlace.sol\":1134:1152  return LISTING_FEE */\n      swap1\n      pop\n        /* \"contracts/GeekNftMarketPlace.sol\":1073:1159  function getListingFee() public view returns (uint){... */\n      swap1\n      jump\t// out\n        /* \"@openzeppelin/contracts/utils/Counters.sol\":1074:1303  function decrement(Counter storage counter) internal {... */\n    tag_50:\n        /* \"@openzeppelin/contracts/utils/Counters.sol\":1137:1150  uint256 value */\n      0x00\n        /* \"@openzeppelin/contracts/utils/Counters.sol\":1153:1160  counter */\n      dup2\n        /* \"@openzeppelin/contracts/utils/Counters.sol\":1153:1167  counter._value */\n      0x00\n      add\n      sload\n        /* \"@openzeppelin/contracts/utils/Counters.sol\":1137:1167  uint256 value = counter._value */\n      swap1\n      pop\n        /* \"@openzeppelin/contracts/utils/Counters.sol\":1193:1194  0 */\n      0x00\n        /* \"@openzeppelin/contracts/utils/Counters.sol\":1185:1190  value */\n      dup2\n        /* \"@openzeppelin/contracts/utils/Counters.sol\":1185:1194  value > 0 */\n      gt\n        /* \"@openzeppelin/contracts/utils/Counters.sol\":1177:1226  require(value > 0, \"Counter: decrement overflow\") */\n      tag_89\n      jumpi\n      mload(0x40)\n      0x08c379a000000000000000000000000000000000000000000000000000000000\n      dup2\n      mstore\n      0x04\n      add\n      tag_90\n      swap1\n      tag_91\n      jump\t// in\n    tag_90:\n      mload(0x40)\n      dup1\n      swap2\n      sub\n      swap1\n      revert\n    tag_89:\n        /* \"@openzeppelin/contracts/utils/Counters.sol\":1285:1286  1 */\n      0x01\n        /* \"@openzeppelin/contracts/utils/Counters.sol\":1277:1282  value */\n      dup2\n        /* \"@openzeppelin/contracts/utils/Counters.sol\":1277:1286  value - 1 */\n      sub\n        /* \"@openzeppelin/contracts/utils/Counters.sol\":1260:1267  counter */\n      dup3\n        /* \"@openzeppelin/contracts/utils/Counters.sol\":1260:1274  counter._value */\n      0x00\n      add\n        /* \"@openzeppelin/contracts/utils/Counters.sol\":1260:1286  counter._value = value - 1 */\n      dup2\n      swap1\n      sstore\n      pop\n        /* \"@openzeppelin/contracts/utils/Counters.sol\":1074:1303  function decrement(Counter storage counter) internal {... */\n      pop\n      pop\n      jump\t// out\n        /* \"@openzeppelin/contracts/utils/Counters.sol\":945:1068  function increment(Counter storage counter) internal {... */\n    tag_68:\n        /* \"@openzeppelin/contracts/utils/Counters.sol\":1050:1051  1 */\n      0x01\n        /* \"@openzeppelin/contracts/utils/Counters.sol\":1032:1039  counter */\n      dup2\n        /* \"@openzeppelin/contracts/utils/Counters.sol\":1032:1046  counter._value */\n      0x00\n      add\n      0x00\n        /* \"@openzeppelin/contracts/utils/Counters.sol\":1032:1051  counter._value += 1 */\n      dup3\n      dup3\n      sload\n      add\n      swap3\n      pop\n      pop\n      dup2\n      swap1\n      sstore\n      pop\n        /* \"@openzeppelin/contracts/utils/Counters.sol\":945:1068  function increment(Counter storage counter) internal {... */\n      pop\n      jump\t// out\n        /* \"#utility.yul\":7:146   */\n    tag_94:\n      0x00\n        /* \"#utility.yul\":91:97   */\n      dup2\n        /* \"#utility.yul\":78:98   */\n      calldataload\n        /* \"#utility.yul\":69:98   */\n      swap1\n      pop\n        /* \"#utility.yul\":107:140   */\n      tag_96\n        /* \"#utility.yul\":134:139   */\n      dup2\n        /* \"#utility.yul\":107:140   */\n      tag_97\n      jump\t// in\n    tag_96:\n        /* \"#utility.yul\":59:146   */\n      swap3\n      swap2\n      pop\n      pop\n      jump\t// out\n        /* \"#utility.yul\":152:291   */\n    tag_98:\n      0x00\n        /* \"#utility.yul\":236:242   */\n      dup2\n        /* \"#utility.yul\":223:243   */\n      calldataload\n        /* \"#utility.yul\":214:243   */\n      swap1\n      pop\n        /* \"#utility.yul\":252:285   */\n      tag_100\n        /* \"#utility.yul\":279:284   */\n      dup2\n        /* \"#utility.yul\":252:285   */\n      tag_101\n      jump\t// in\n    tag_100:\n        /* \"#utility.yul\":204:291   */\n      swap3\n      swap2\n      pop\n      pop\n      jump\t// out\n        /* \"#utility.yul\":297:704   */\n    tag_19:\n      0x00\n      dup1\n        /* \"#utility.yul\":422:424   */\n      0x40\n        /* \"#utility.yul\":410:419   */\n      dup4\n        /* \"#utility.yul\":401:408   */\n      dup6\n        /* \"#utility.yul\":397:420   */\n      sub\n        /* \"#utility.yul\":393:425   */\n      slt\n        /* \"#utility.yul\":390:392   */\n      iszero\n      tag_103\n      jumpi\n        /* \"#utility.yul\":438:439   */\n      0x00\n        /* \"#utility.yul\":435:436   */\n      dup1\n        /* \"#utility.yul\":428:440   */\n      revert\n        /* \"#utility.yul\":390:392   */\n    tag_103:\n        /* \"#utility.yul\":481:482   */\n      0x00\n        /* \"#utility.yul\":506:559   */\n      tag_104\n        /* \"#utility.yul\":551:558   */\n      dup6\n        /* \"#utility.yul\":542:548   */\n      dup3\n        /* \"#utility.yul\":531:540   */\n      dup7\n        /* \"#utility.yul\":527:549   */\n      add\n        /* \"#utility.yul\":506:559   */\n      tag_94\n      jump\t// in\n    tag_104:\n        /* \"#utility.yul\":496:559   */\n      swap3\n      pop\n        /* \"#utility.yul\":452:569   */\n      pop\n        /* \"#utility.yul\":608:610   */\n      0x20\n        /* \"#utility.yul\":634:687   */\n      tag_105\n        /* \"#utility.yul\":679:686   */\n      dup6\n        /* \"#utility.yul\":670:676   */\n      dup3\n        /* \"#utility.yul\":659:668   */\n      dup7\n        /* \"#utility.yul\":655:677   */\n      add\n        /* \"#utility.yul\":634:687   */\n      tag_98\n      jump\t// in\n    tag_105:\n        /* \"#utility.yul\":624:687   */\n      swap2\n      pop\n        /* \"#utility.yul\":579:697   */\n      pop\n        /* \"#utility.yul\":380:704   */\n      swap3\n      pop\n      swap3\n      swap1\n      pop\n      jump\t// out\n        /* \"#utility.yul\":710:1262   */\n    tag_10:\n      0x00\n      dup1\n      0x00\n        /* \"#utility.yul\":852:854   */\n      0x60\n        /* \"#utility.yul\":840:849   */\n      dup5\n        /* \"#utility.yul\":831:838   */\n      dup7\n        /* \"#utility.yul\":827:850   */\n      sub\n        /* \"#utility.yul\":823:855   */\n      slt\n        /* \"#utility.yul\":820:822   */\n      iszero\n      tag_107\n      jumpi\n        /* \"#utility.yul\":868:869   */\n      0x00\n        /* \"#utility.yul\":865:866   */\n      dup1\n        /* \"#utility.yul\":858:870   */\n      revert\n        /* \"#utility.yul\":820:822   */\n    tag_107:\n        /* \"#utility.yul\":911:912   */\n      0x00\n        /* \"#utility.yul\":936:989   */\n      tag_108\n        /* \"#utility.yul\":981:988   */\n      dup7\n        /* \"#utility.yul\":972:978   */\n      dup3\n        /* \"#utility.yul\":961:970   */\n      dup8\n        /* \"#utility.yul\":957:979   */\n      add\n        /* \"#utility.yul\":936:989   */\n      tag_94\n      jump\t// in\n    tag_108:\n        /* \"#utility.yul\":926:989   */\n      swap4\n      pop\n        /* \"#utility.yul\":882:999   */\n      pop\n        /* \"#utility.yul\":1038:1040   */\n      0x20\n        /* \"#utility.yul\":1064:1117   */\n      tag_109\n        /* \"#utility.yul\":1109:1116   */\n      dup7\n        /* \"#utility.yul\":1100:1106   */\n      dup3\n        /* \"#utility.yul\":1089:1098   */\n      dup8\n        /* \"#utility.yul\":1085:1107   */\n      add\n        /* \"#utility.yul\":1064:1117   */\n      tag_98\n      jump\t// in\n    tag_109:\n        /* \"#utility.yul\":1054:1117   */\n      swap3\n      pop\n        /* \"#utility.yul\":1009:1127   */\n      pop\n        /* \"#utility.yul\":1166:1168   */\n      0x40\n        /* \"#utility.yul\":1192:1245   */\n      tag_110\n        /* \"#utility.yul\":1237:1244   */\n      dup7\n        /* \"#utility.yul\":1228:1234   */\n      dup3\n        /* \"#utility.yul\":1217:1226   */\n      dup8\n        /* \"#utility.yul\":1213:1235   */\n      add\n        /* \"#utility.yul\":1192:1245   */\n      tag_98\n      jump\t// in\n    tag_110:\n        /* \"#utility.yul\":1182:1245   */\n      swap2\n      pop\n        /* \"#utility.yul\":1137:1255   */\n      pop\n        /* \"#utility.yul\":810:1262   */\n      swap3\n      pop\n      swap3\n      pop\n      swap3\n      jump\t// out\n        /* \"#utility.yul\":1268:1527   */\n    tag_111:\n      0x00\n        /* \"#utility.yul\":1398:1484   */\n      tag_113\n        /* \"#utility.yul\":1480:1483   */\n      dup4\n        /* \"#utility.yul\":1472:1478   */\n      dup4\n        /* \"#utility.yul\":1398:1484   */\n      tag_114\n      jump\t// in\n    tag_113:\n        /* \"#utility.yul\":1516:1520   */\n      0xe0\n        /* \"#utility.yul\":1511:1514   */\n      dup4\n        /* \"#utility.yul\":1507:1521   */\n      add\n        /* \"#utility.yul\":1493:1521   */\n      swap1\n      pop\n        /* \"#utility.yul\":1388:1527   */\n      swap3\n      swap2\n      pop\n      pop\n      jump\t// out\n        /* \"#utility.yul\":1533:1680   */\n    tag_115:\n        /* \"#utility.yul\":1628:1673   */\n      tag_117\n        /* \"#utility.yul\":1667:1672   */\n      dup2\n        /* \"#utility.yul\":1628:1673   */\n      tag_118\n      jump\t// in\n    tag_117:\n        /* \"#utility.yul\":1623:1626   */\n      dup3\n        /* \"#utility.yul\":1616:1674   */\n      mstore\n        /* \"#utility.yul\":1606:1680   */\n      pop\n      pop\n      jump\t// out\n        /* \"#utility.yul\":1686:1818   */\n    tag_119:\n        /* \"#utility.yul\":1779:1811   */\n      tag_121\n        /* \"#utility.yul\":1805:1810   */\n      dup2\n        /* \"#utility.yul\":1779:1811   */\n      tag_122\n      jump\t// in\n    tag_121:\n        /* \"#utility.yul\":1774:1777   */\n      dup3\n        /* \"#utility.yul\":1767:1812   */\n      mstore\n        /* \"#utility.yul\":1757:1818   */\n      pop\n      pop\n      jump\t// out\n        /* \"#utility.yul\":1824:1932   */\n    tag_123:\n        /* \"#utility.yul\":1901:1925   */\n      tag_125\n        /* \"#utility.yul\":1919:1924   */\n      dup2\n        /* \"#utility.yul\":1901:1925   */\n      tag_126\n      jump\t// in\n    tag_125:\n        /* \"#utility.yul\":1896:1899   */\n      dup3\n        /* \"#utility.yul\":1889:1926   */\n      mstore\n        /* \"#utility.yul\":1879:1932   */\n      pop\n      pop\n      jump\t// out\n        /* \"#utility.yul\":1938:2056   */\n    tag_127:\n        /* \"#utility.yul\":2025:2049   */\n      tag_129\n        /* \"#utility.yul\":2043:2048   */\n      dup2\n        /* \"#utility.yul\":2025:2049   */\n      tag_126\n      jump\t// in\n    tag_129:\n        /* \"#utility.yul\":2020:2023   */\n      dup3\n        /* \"#utility.yul\":2013:2050   */\n      mstore\n        /* \"#utility.yul\":2003:2056   */\n      pop\n      pop\n      jump\t// out\n        /* \"#utility.yul\":2136:3028   */\n    tag_130:\n      0x00\n        /* \"#utility.yul\":2324:2398   */\n      tag_132\n        /* \"#utility.yul\":2392:2397   */\n      dup3\n        /* \"#utility.yul\":2324:2398   */\n      tag_133\n      jump\t// in\n    tag_132:\n        /* \"#utility.yul\":2414:2520   */\n      tag_134\n        /* \"#utility.yul\":2513:2519   */\n      dup2\n        /* \"#utility.yul\":2508:2511   */\n      dup6\n        /* \"#utility.yul\":2414:2520   */\n      tag_135\n      jump\t// in\n    tag_134:\n        /* \"#utility.yul\":2407:2520   */\n      swap4\n      pop\n        /* \"#utility.yul\":2544:2620   */\n      tag_136\n        /* \"#utility.yul\":2614:2619   */\n      dup4\n        /* \"#utility.yul\":2544:2620   */\n      tag_137\n      jump\t// in\n    tag_136:\n        /* \"#utility.yul\":2643:2650   */\n      dup1\n        /* \"#utility.yul\":2674:2675   */\n      0x00\n        /* \"#utility.yul\":2659:3003   */\n    tag_138:\n        /* \"#utility.yul\":2684:2690   */\n      dup4\n        /* \"#utility.yul\":2681:2682   */\n      dup2\n        /* \"#utility.yul\":2678:2691   */\n      lt\n        /* \"#utility.yul\":2659:3003   */\n      iszero\n      tag_140\n      jumpi\n        /* \"#utility.yul\":2760:2766   */\n      dup2\n        /* \"#utility.yul\":2754:2767   */\n      mload\n        /* \"#utility.yul\":2787:2890   */\n      tag_141\n        /* \"#utility.yul\":2886:2889   */\n      dup9\n        /* \"#utility.yul\":2871:2884   */\n      dup3\n        /* \"#utility.yul\":2787:2890   */\n      tag_111\n      jump\t// in\n    tag_141:\n        /* \"#utility.yul\":2780:2890   */\n      swap8\n      pop\n        /* \"#utility.yul\":2913:2993   */\n      tag_142\n        /* \"#utility.yul\":2986:2992   */\n      dup4\n        /* \"#utility.yul\":2913:2993   */\n      tag_143\n      jump\t// in\n    tag_142:\n        /* \"#utility.yul\":2903:2993   */\n      swap3\n      pop\n        /* \"#utility.yul\":2719:3003   */\n      pop\n        /* \"#utility.yul\":2706:2707   */\n      0x01\n        /* \"#utility.yul\":2703:2704   */\n      dup2\n        /* \"#utility.yul\":2699:2708   */\n      add\n        /* \"#utility.yul\":2694:2708   */\n      swap1\n      pop\n        /* \"#utility.yul\":2659:3003   */\n      jump(tag_138)\n    tag_140:\n        /* \"#utility.yul\":2663:2677   */\n      pop\n        /* \"#utility.yul\":3019:3022   */\n      dup6\n        /* \"#utility.yul\":3012:3022   */\n      swap4\n      pop\n        /* \"#utility.yul\":2300:3028   */\n      pop\n      pop\n      pop\n      swap3\n      swap2\n      pop\n      pop\n      jump\t// out\n        /* \"#utility.yul\":3034:3133   */\n    tag_144:\n        /* \"#utility.yul\":3105:3126   */\n      tag_146\n        /* \"#utility.yul\":3120:3125   */\n      dup2\n        /* \"#utility.yul\":3105:3126   */\n      tag_147\n      jump\t// in\n    tag_146:\n        /* \"#utility.yul\":3100:3103   */\n      dup3\n        /* \"#utility.yul\":3093:3127   */\n      mstore\n        /* \"#utility.yul\":3083:3133   */\n      pop\n      pop\n      jump\t// out\n        /* \"#utility.yul\":3139:3505   */\n    tag_148:\n      0x00\n        /* \"#utility.yul\":3302:3369   */\n      tag_150\n        /* \"#utility.yul\":3366:3368   */\n      0x1b\n        /* \"#utility.yul\":3361:3364   */\n      dup4\n        /* \"#utility.yul\":3302:3369   */\n      tag_151\n      jump\t// in\n    tag_150:\n        /* \"#utility.yul\":3295:3369   */\n      swap2\n      pop\n        /* \"#utility.yul\":3378:3471   */\n      tag_152\n        /* \"#utility.yul\":3467:3470   */\n      dup3\n        /* \"#utility.yul\":3378:3471   */\n      tag_153\n      jump\t// in\n    tag_152:\n        /* \"#utility.yul\":3496:3498   */\n      0x20\n        /* \"#utility.yul\":3491:3494   */\n      dup3\n        /* \"#utility.yul\":3487:3499   */\n      add\n        /* \"#utility.yul\":3480:3499   */\n      swap1\n      pop\n        /* \"#utility.yul\":3285:3505   */\n      swap2\n      swap1\n      pop\n      jump\t// out\n        /* \"#utility.yul\":3511:3877   */\n    tag_154:\n      0x00\n        /* \"#utility.yul\":3674:3741   */\n      tag_156\n        /* \"#utility.yul\":3738:3740   */\n      0x26\n        /* \"#utility.yul\":3733:3736   */\n      dup4\n        /* \"#utility.yul\":3674:3741   */\n      tag_151\n      jump\t// in\n    tag_156:\n        /* \"#utility.yul\":3667:3741   */\n      swap2\n      pop\n        /* \"#utility.yul\":3750:3843   */\n      tag_157\n        /* \"#utility.yul\":3839:3842   */\n      dup3\n        /* \"#utility.yul\":3750:3843   */\n      tag_158\n      jump\t// in\n    tag_157:\n        /* \"#utility.yul\":3868:3870   */\n      0x40\n        /* \"#utility.yul\":3863:3866   */\n      dup3\n        /* \"#utility.yul\":3859:3871   */\n      add\n        /* \"#utility.yul\":3852:3871   */\n      swap1\n      pop\n        /* \"#utility.yul\":3657:3877   */\n      swap2\n      swap1\n      pop\n      jump\t// out\n        /* \"#utility.yul\":3883:4249   */\n    tag_159:\n      0x00\n        /* \"#utility.yul\":4046:4113   */\n      tag_161\n        /* \"#utility.yul\":4110:4112   */\n      0x20\n        /* \"#utility.yul\":4105:4108   */\n      dup4\n        /* \"#utility.yul\":4046:4113   */\n      tag_151\n      jump\t// in\n    tag_161:\n        /* \"#utility.yul\":4039:4113   */\n      swap2\n      pop\n        /* \"#utility.yul\":4122:4215   */\n      tag_162\n        /* \"#utility.yul\":4211:4214   */\n      dup3\n        /* \"#utility.yul\":4122:4215   */\n      tag_163\n      jump\t// in\n    tag_162:\n        /* \"#utility.yul\":4240:4242   */\n      0x20\n        /* \"#utility.yul\":4235:4238   */\n      dup3\n        /* \"#utility.yul\":4231:4243   */\n      add\n        /* \"#utility.yul\":4224:4243   */\n      swap1\n      pop\n        /* \"#utility.yul\":4029:4249   */\n      swap2\n      swap1\n      pop\n      jump\t// out\n        /* \"#utility.yul\":4255:4621   */\n    tag_164:\n      0x00\n        /* \"#utility.yul\":4418:4485   */\n      tag_166\n        /* \"#utility.yul\":4482:4484   */\n      0x1f\n        /* \"#utility.yul\":4477:4480   */\n      dup4\n        /* \"#utility.yul\":4418:4485   */\n      tag_151\n      jump\t// in\n    tag_166:\n        /* \"#utility.yul\":4411:4485   */\n      swap2\n      pop\n        /* \"#utility.yul\":4494:4587   */\n      tag_167\n        /* \"#utility.yul\":4583:4586   */\n      dup3\n        /* \"#utility.yul\":4494:4587   */\n      tag_168\n      jump\t// in\n    tag_167:\n        /* \"#utility.yul\":4612:4614   */\n      0x20\n        /* \"#utility.yul\":4607:4610   */\n      dup3\n        /* \"#utility.yul\":4603:4615   */\n      add\n        /* \"#utility.yul\":4596:4615   */\n      swap1\n      pop\n        /* \"#utility.yul\":4401:4621   */\n      swap2\n      swap1\n      pop\n      jump\t// out\n        /* \"#utility.yul\":4627:4993   */\n    tag_169:\n      0x00\n        /* \"#utility.yul\":4790:4857   */\n      tag_171\n        /* \"#utility.yul\":4854:4856   */\n      0x1c\n        /* \"#utility.yul\":4849:4852   */\n      dup4\n        /* \"#utility.yul\":4790:4857   */\n      tag_151\n      jump\t// in\n    tag_171:\n        /* \"#utility.yul\":4783:4857   */\n      swap2\n      pop\n        /* \"#utility.yul\":4866:4959   */\n      tag_172\n        /* \"#utility.yul\":4955:4958   */\n      dup3\n        /* \"#utility.yul\":4866:4959   */\n      tag_173\n      jump\t// in\n    tag_172:\n        /* \"#utility.yul\":4984:4986   */\n      0x20\n        /* \"#utility.yul\":4979:4982   */\n      dup3\n        /* \"#utility.yul\":4975:4987   */\n      add\n        /* \"#utility.yul\":4968:4987   */\n      swap1\n      pop\n        /* \"#utility.yul\":4773:4993   */\n      swap2\n      swap1\n      pop\n      jump\t// out\n        /* \"#utility.yul\":5069:6487   */\n    tag_114:\n        /* \"#utility.yul\":5196:5200   */\n      0xe0\n        /* \"#utility.yul\":5191:5194   */\n      dup3\n        /* \"#utility.yul\":5187:5201   */\n      add\n        /* \"#utility.yul\":5290:5294   */\n      0x00\n        /* \"#utility.yul\":5283:5288   */\n      dup3\n        /* \"#utility.yul\":5279:5295   */\n      add\n        /* \"#utility.yul\":5273:5296   */\n      mload\n        /* \"#utility.yul\":5309:5372   */\n      tag_175\n        /* \"#utility.yul\":5366:5370   */\n      0x00\n        /* \"#utility.yul\":5361:5364   */\n      dup6\n        /* \"#utility.yul\":5357:5371   */\n      add\n        /* \"#utility.yul\":5343:5355   */\n      dup3\n        /* \"#utility.yul\":5309:5372   */\n      tag_123\n      jump\t// in\n    tag_175:\n        /* \"#utility.yul\":5211:5382   */\n      pop\n        /* \"#utility.yul\":5467:5471   */\n      0x20\n        /* \"#utility.yul\":5460:5465   */\n      dup3\n        /* \"#utility.yul\":5456:5472   */\n      add\n        /* \"#utility.yul\":5450:5473   */\n      mload\n        /* \"#utility.yul\":5486:5549   */\n      tag_176\n        /* \"#utility.yul\":5543:5547   */\n      0x20\n        /* \"#utility.yul\":5538:5541   */\n      dup6\n        /* \"#utility.yul\":5534:5548   */\n      add\n        /* \"#utility.yul\":5520:5532   */\n      dup3\n        /* \"#utility.yul\":5486:5549   */\n      tag_177\n      jump\t// in\n    tag_176:\n        /* \"#utility.yul\":5392:5559   */\n      pop\n        /* \"#utility.yul\":5642:5646   */\n      0x40\n        /* \"#utility.yul\":5635:5640   */\n      dup3\n        /* \"#utility.yul\":5631:5647   */\n      add\n        /* \"#utility.yul\":5625:5648   */\n      mload\n        /* \"#utility.yul\":5661:5724   */\n      tag_178\n        /* \"#utility.yul\":5718:5722   */\n      0x40\n        /* \"#utility.yul\":5713:5716   */\n      dup6\n        /* \"#utility.yul\":5709:5723   */\n      add\n        /* \"#utility.yul\":5695:5707   */\n      dup3\n        /* \"#utility.yul\":5661:5724   */\n      tag_177\n      jump\t// in\n    tag_178:\n        /* \"#utility.yul\":5569:5734   */\n      pop\n        /* \"#utility.yul\":5818:5822   */\n      0x60\n        /* \"#utility.yul\":5811:5816   */\n      dup3\n        /* \"#utility.yul\":5807:5823   */\n      add\n        /* \"#utility.yul\":5801:5824   */\n      mload\n        /* \"#utility.yul\":5837:5916   */\n      tag_179\n        /* \"#utility.yul\":5910:5914   */\n      0x60\n        /* \"#utility.yul\":5905:5908   */\n      dup6\n        /* \"#utility.yul\":5901:5915   */\n      add\n        /* \"#utility.yul\":5887:5899   */\n      dup3\n        /* \"#utility.yul\":5837:5916   */\n      tag_119\n      jump\t// in\n    tag_179:\n        /* \"#utility.yul\":5744:5926   */\n      pop\n        /* \"#utility.yul\":6009:6013   */\n      0x80\n        /* \"#utility.yul\":6002:6007   */\n      dup3\n        /* \"#utility.yul\":5998:6014   */\n      add\n        /* \"#utility.yul\":5992:6015   */\n      mload\n        /* \"#utility.yul\":6028:6107   */\n      tag_180\n        /* \"#utility.yul\":6101:6105   */\n      0x80\n        /* \"#utility.yul\":6096:6099   */\n      dup6\n        /* \"#utility.yul\":6092:6106   */\n      add\n        /* \"#utility.yul\":6078:6090   */\n      dup3\n        /* \"#utility.yul\":6028:6107   */\n      tag_119\n      jump\t// in\n    tag_180:\n        /* \"#utility.yul\":5936:6117   */\n      pop\n        /* \"#utility.yul\":6202:6206   */\n      0xa0\n        /* \"#utility.yul\":6195:6200   */\n      dup3\n        /* \"#utility.yul\":6191:6207   */\n      add\n        /* \"#utility.yul\":6185:6208   */\n      mload\n        /* \"#utility.yul\":6221:6300   */\n      tag_181\n        /* \"#utility.yul\":6294:6298   */\n      0xa0\n        /* \"#utility.yul\":6289:6292   */\n      dup6\n        /* \"#utility.yul\":6285:6299   */\n      add\n        /* \"#utility.yul\":6271:6283   */\n      dup3\n        /* \"#utility.yul\":6221:6300   */\n      tag_119\n      jump\t// in\n    tag_181:\n        /* \"#utility.yul\":6127:6310   */\n      pop\n        /* \"#utility.yul\":6394:6398   */\n      0xc0\n        /* \"#utility.yul\":6387:6392   */\n      dup3\n        /* \"#utility.yul\":6383:6399   */\n      add\n        /* \"#utility.yul\":6377:6400   */\n      mload\n        /* \"#utility.yul\":6413:6470   */\n      tag_182\n        /* \"#utility.yul\":6464:6468   */\n      0xc0\n        /* \"#utility.yul\":6459:6462   */\n      dup6\n        /* \"#utility.yul\":6455:6469   */\n      add\n        /* \"#utility.yul\":6441:6453   */\n      dup3\n        /* \"#utility.yul\":6413:6470   */\n      tag_144\n      jump\t// in\n    tag_182:\n        /* \"#utility.yul\":6320:6480   */\n      pop\n        /* \"#utility.yul\":5165:6487   */\n      pop\n      pop\n      pop\n      jump\t// out\n        /* \"#utility.yul\":6493:6601   */\n    tag_177:\n        /* \"#utility.yul\":6570:6594   */\n      tag_184\n        /* \"#utility.yul\":6588:6593   */\n      dup2\n        /* \"#utility.yul\":6570:6594   */\n      tag_185\n      jump\t// in\n    tag_184:\n        /* \"#utility.yul\":6565:6568   */\n      dup3\n        /* \"#utility.yul\":6558:6595   */\n      mstore\n        /* \"#utility.yul\":6548:6601   */\n      pop\n      pop\n      jump\t// out\n        /* \"#utility.yul\":6607:6725   */\n    tag_186:\n        /* \"#utility.yul\":6694:6718   */\n      tag_188\n        /* \"#utility.yul\":6712:6717   */\n      dup2\n        /* \"#utility.yul\":6694:6718   */\n      tag_185\n      jump\t// in\n    tag_188:\n        /* \"#utility.yul\":6689:6692   */\n      dup3\n        /* \"#utility.yul\":6682:6719   */\n      mstore\n        /* \"#utility.yul\":6672:6725   */\n      pop\n      pop\n      jump\t// out\n        /* \"#utility.yul\":6731:7189   */\n    tag_63:\n      0x00\n        /* \"#utility.yul\":6926:6928   */\n      0x60\n        /* \"#utility.yul\":6915:6924   */\n      dup3\n        /* \"#utility.yul\":6911:6929   */\n      add\n        /* \"#utility.yul\":6903:6929   */\n      swap1\n      pop\n        /* \"#utility.yul\":6939:7010   */\n      tag_190\n        /* \"#utility.yul\":7007:7008   */\n      0x00\n        /* \"#utility.yul\":6996:7005   */\n      dup4\n        /* \"#utility.yul\":6992:7009   */\n      add\n        /* \"#utility.yul\":6983:6989   */\n      dup7\n        /* \"#utility.yul\":6939:7010   */\n      tag_127\n      jump\t// in\n    tag_190:\n        /* \"#utility.yul\":7020:7100   */\n      tag_191\n        /* \"#utility.yul\":7096:7098   */\n      0x20\n        /* \"#utility.yul\":7085:7094   */\n      dup4\n        /* \"#utility.yul\":7081:7099   */\n      add\n        /* \"#utility.yul\":7072:7078   */\n      dup6\n        /* \"#utility.yul\":7020:7100   */\n      tag_115\n      jump\t// in\n    tag_191:\n        /* \"#utility.yul\":7110:7182   */\n      tag_192\n        /* \"#utility.yul\":7178:7180   */\n      0x40\n        /* \"#utility.yul\":7167:7176   */\n      dup4\n        /* \"#utility.yul\":7163:7181   */\n      add\n        /* \"#utility.yul\":7154:7160   */\n      dup5\n        /* \"#utility.yul\":7110:7182   */\n      tag_186\n      jump\t// in\n    tag_192:\n        /* \"#utility.yul\":6893:7189   */\n      swap5\n      swap4\n      pop\n      pop\n      pop\n      pop\n      jump\t// out\n        /* \"#utility.yul\":7195:7637   */\n    tag_45:\n      0x00\n        /* \"#utility.yul\":7382:7384   */\n      0x60\n        /* \"#utility.yul\":7371:7380   */\n      dup3\n        /* \"#utility.yul\":7367:7385   */\n      add\n        /* \"#utility.yul\":7359:7385   */\n      swap1\n      pop\n        /* \"#utility.yul\":7395:7466   */\n      tag_194\n        /* \"#utility.yul\":7463:7464   */\n      0x00\n        /* \"#utility.yul\":7452:7461   */\n      dup4\n        /* \"#utility.yul\":7448:7465   */\n      add\n        /* \"#utility.yul\":7439:7445   */\n      dup7\n        /* \"#utility.yul\":7395:7466   */\n      tag_127\n      jump\t// in\n    tag_194:\n        /* \"#utility.yul\":7476:7548   */\n      tag_195\n        /* \"#utility.yul\":7544:7546   */\n      0x20\n        /* \"#utility.yul\":7533:7542   */\n      dup4\n        /* \"#utility.yul\":7529:7547   */\n      add\n        /* \"#utility.yul\":7520:7526   */\n      dup6\n        /* \"#utility.yul\":7476:7548   */\n      tag_127\n      jump\t// in\n    tag_195:\n        /* \"#utility.yul\":7558:7630   */\n      tag_196\n        /* \"#utility.yul\":7626:7628   */\n      0x40\n        /* \"#utility.yul\":7615:7624   */\n      dup4\n        /* \"#utility.yul\":7611:7629   */\n      add\n        /* \"#utility.yul\":7602:7608   */\n      dup5\n        /* \"#utility.yul\":7558:7630   */\n      tag_186\n      jump\t// in\n    tag_196:\n        /* \"#utility.yul\":7349:7637   */\n      swap5\n      swap4\n      pop\n      pop\n      pop\n      pop\n      jump\t// out\n        /* \"#utility.yul\":7643:8085   */\n    tag_52:\n      0x00\n        /* \"#utility.yul\":7830:7832   */\n      0x60\n        /* \"#utility.yul\":7819:7828   */\n      dup3\n        /* \"#utility.yul\":7815:7833   */\n      add\n        /* \"#utility.yul\":7807:7833   */\n      swap1\n      pop\n        /* \"#utility.yul\":7843:7914   */\n      tag_198\n        /* \"#utility.yul\":7911:7912   */\n      0x00\n        /* \"#utility.yul\":7900:7909   */\n      dup4\n        /* \"#utility.yul\":7896:7913   */\n      add\n        /* \"#utility.yul\":7887:7893   */\n      dup7\n        /* \"#utility.yul\":7843:7914   */\n      tag_127\n      jump\t// in\n    tag_198:\n        /* \"#utility.yul\":7924:7996   */\n      tag_199\n        /* \"#utility.yul\":7992:7994   */\n      0x20\n        /* \"#utility.yul\":7981:7990   */\n      dup4\n        /* \"#utility.yul\":7977:7995   */\n      add\n        /* \"#utility.yul\":7968:7974   */\n      dup6\n        /* \"#utility.yul\":7924:7996   */\n      tag_186\n      jump\t// in\n    tag_199:\n        /* \"#utility.yul\":8006:8078   */\n      tag_200\n        /* \"#utility.yul\":8074:8076   */\n      0x40\n        /* \"#utility.yul\":8063:8072   */\n      dup4\n        /* \"#utility.yul\":8059:8077   */\n      add\n        /* \"#utility.yul\":8050:8056   */\n      dup5\n        /* \"#utility.yul\":8006:8078   */\n      tag_186\n      jump\t// in\n    tag_200:\n        /* \"#utility.yul\":7797:8085   */\n      swap5\n      swap4\n      pop\n      pop\n      pop\n      pop\n      jump\t// out\n        /* \"#utility.yul\":8091:8544   */\n    tag_25:\n      0x00\n        /* \"#utility.yul\":8312:8314   */\n      0x20\n        /* \"#utility.yul\":8301:8310   */\n      dup3\n        /* \"#utility.yul\":8297:8315   */\n      add\n        /* \"#utility.yul\":8289:8315   */\n      swap1\n      pop\n        /* \"#utility.yul\":8361:8370   */\n      dup2\n        /* \"#utility.yul\":8355:8359   */\n      dup2\n        /* \"#utility.yul\":8351:8371   */\n      sub\n        /* \"#utility.yul\":8347:8348   */\n      0x00\n        /* \"#utility.yul\":8336:8345   */\n      dup4\n        /* \"#utility.yul\":8332:8349   */\n      add\n        /* \"#utility.yul\":8325:8372   */\n      mstore\n        /* \"#utility.yul\":8389:8537   */\n      tag_202\n        /* \"#utility.yul\":8532:8536   */\n      dup2\n        /* \"#utility.yul\":8523:8529   */\n      dup5\n        /* \"#utility.yul\":8389:8537   */\n      tag_130\n      jump\t// in\n    tag_202:\n        /* \"#utility.yul\":8381:8537   */\n      swap1\n      pop\n        /* \"#utility.yul\":8279:8544   */\n      swap3\n      swap2\n      pop\n      pop\n      jump\t// out\n        /* \"#utility.yul\":8550:8969   */\n    tag_91:\n      0x00\n        /* \"#utility.yul\":8754:8756   */\n      0x20\n        /* \"#utility.yul\":8743:8752   */\n      dup3\n        /* \"#utility.yul\":8739:8757   */\n      add\n        /* \"#utility.yul\":8731:8757   */\n      swap1\n      pop\n        /* \"#utility.yul\":8803:8812   */\n      dup2\n        /* \"#utility.yul\":8797:8801   */\n      dup2\n        /* \"#utility.yul\":8793:8813   */\n      sub\n        /* \"#utility.yul\":8789:8790   */\n      0x00\n        /* \"#utility.yul\":8778:8787   */\n      dup4\n        /* \"#utility.yul\":8774:8791   */\n      add\n        /* \"#utility.yul\":8767:8814   */\n      mstore\n        /* \"#utility.yul\":8831:8962   */\n      tag_204\n        /* \"#utility.yul\":8957:8961   */\n      dup2\n        /* \"#utility.yul\":8831:8962   */\n      tag_148\n      jump\t// in\n    tag_204:\n        /* \"#utility.yul\":8823:8962   */\n      swap1\n      pop\n        /* \"#utility.yul\":8721:8969   */\n      swap2\n      swap1\n      pop\n      jump\t// out\n        /* \"#utility.yul\":8975:9394   */\n    tag_59:\n      0x00\n        /* \"#utility.yul\":9179:9181   */\n      0x20\n        /* \"#utility.yul\":9168:9177   */\n      dup3\n        /* \"#utility.yul\":9164:9182   */\n      add\n        /* \"#utility.yul\":9156:9182   */\n      swap1\n      pop\n        /* \"#utility.yul\":9228:9237   */\n      dup2\n        /* \"#utility.yul\":9222:9226   */\n      dup2\n        /* \"#utility.yul\":9218:9238   */\n      sub\n        /* \"#utility.yul\":9214:9215   */\n      0x00\n        /* \"#utility.yul\":9203:9212   */\n      dup4\n        /* \"#utility.yul\":9199:9216   */\n      add\n        /* \"#utility.yul\":9192:9239   */\n      mstore\n        /* \"#utility.yul\":9256:9387   */\n      tag_206\n        /* \"#utility.yul\":9382:9386   */\n      dup2\n        /* \"#utility.yul\":9256:9387   */\n      tag_154\n      jump\t// in\n    tag_206:\n        /* \"#utility.yul\":9248:9387   */\n      swap1\n      pop\n        /* \"#utility.yul\":9146:9394   */\n      swap2\n      swap1\n      pop\n      jump\t// out\n        /* \"#utility.yul\":9400:9819   */\n    tag_43:\n      0x00\n        /* \"#utility.yul\":9604:9606   */\n      0x20\n        /* \"#utility.yul\":9593:9602   */\n      dup3\n        /* \"#utility.yul\":9589:9607   */\n      add\n        /* \"#utility.yul\":9581:9607   */\n      swap1\n      pop\n        /* \"#utility.yul\":9653:9662   */\n      dup2\n        /* \"#utility.yul\":9647:9651   */\n      dup2\n        /* \"#utility.yul\":9643:9663   */\n      sub\n        /* \"#utility.yul\":9639:9640   */\n      0x00\n        /* \"#utility.yul\":9628:9637   */\n      dup4\n        /* \"#utility.yul\":9624:9641   */\n      add\n        /* \"#utility.yul\":9617:9664   */\n      mstore\n        /* \"#utility.yul\":9681:9812   */\n      tag_208\n        /* \"#utility.yul\":9807:9811   */\n      dup2\n        /* \"#utility.yul\":9681:9812   */\n      tag_159\n      jump\t// in\n    tag_208:\n        /* \"#utility.yul\":9673:9812   */\n      swap1\n      pop\n        /* \"#utility.yul\":9571:9819   */\n      swap2\n      swap1\n      pop\n      jump\t// out\n        /* \"#utility.yul\":9825:10244   */\n    tag_36:\n      0x00\n        /* \"#utility.yul\":10029:10031   */\n      0x20\n        /* \"#utility.yul\":10018:10027   */\n      dup3\n        /* \"#utility.yul\":10014:10032   */\n      add\n        /* \"#utility.yul\":10006:10032   */\n      swap1\n      pop\n        /* \"#utility.yul\":10078:10087   */\n      dup2\n        /* \"#utility.yul\":10072:10076   */\n      dup2\n        /* \"#utility.yul\":10068:10088   */\n      sub\n        /* \"#utility.yul\":10064:10065   */\n      0x00\n        /* \"#utility.yul\":10053:10062   */\n      dup4\n        /* \"#utility.yul\":10049:10066   */\n      add\n        /* \"#utility.yul\":10042:10089   */\n      mstore\n        /* \"#utility.yul\":10106:10237   */\n      tag_210\n        /* \"#utility.yul\":10232:10236   */\n      dup2\n        /* \"#utility.yul\":10106:10237   */\n      tag_164\n      jump\t// in\n    tag_210:\n        /* \"#utility.yul\":10098:10237   */\n      swap1\n      pop\n        /* \"#utility.yul\":9996:10244   */\n      swap2\n      swap1\n      pop\n      jump\t// out\n        /* \"#utility.yul\":10250:10669   */\n    tag_40:\n      0x00\n        /* \"#utility.yul\":10454:10456   */\n      0x20\n        /* \"#utility.yul\":10443:10452   */\n      dup3\n        /* \"#utility.yul\":10439:10457   */\n      add\n        /* \"#utility.yul\":10431:10457   */\n      swap1\n      pop\n        /* \"#utility.yul\":10503:10512   */\n      dup2\n        /* \"#utility.yul\":10497:10501   */\n      dup2\n        /* \"#utility.yul\":10493:10513   */\n      sub\n        /* \"#utility.yul\":10489:10490   */\n      0x00\n        /* \"#utility.yul\":10478:10487   */\n      dup4\n        /* \"#utility.yul\":10474:10491   */\n      add\n        /* \"#utility.yul\":10467:10514   */\n      mstore\n        /* \"#utility.yul\":10531:10662   */\n      tag_212\n        /* \"#utility.yul\":10657:10661   */\n      dup2\n        /* \"#utility.yul\":10531:10662   */\n      tag_169\n      jump\t// in\n    tag_212:\n        /* \"#utility.yul\":10523:10662   */\n      swap1\n      pop\n        /* \"#utility.yul\":10421:10669   */\n      swap2\n      swap1\n      pop\n      jump\t// out\n        /* \"#utility.yul\":10675:10897   */\n    tag_16:\n      0x00\n        /* \"#utility.yul\":10806:10808   */\n      0x20\n        /* \"#utility.yul\":10795:10804   */\n      dup3\n        /* \"#utility.yul\":10791:10809   */\n      add\n        /* \"#utility.yul\":10783:10809   */\n      swap1\n      pop\n        /* \"#utility.yul\":10819:10890   */\n      tag_214\n        /* \"#utility.yul\":10887:10888   */\n      0x00\n        /* \"#utility.yul\":10876:10885   */\n      dup4\n        /* \"#utility.yul\":10872:10889   */\n      add\n        /* \"#utility.yul\":10863:10869   */\n      dup5\n        /* \"#utility.yul\":10819:10890   */\n      tag_186\n      jump\t// in\n    tag_214:\n        /* \"#utility.yul\":10773:10897   */\n      swap3\n      swap2\n      pop\n      pop\n      jump\t// out\n        /* \"#utility.yul\":10903:11055   */\n    tag_137:\n      0x00\n        /* \"#utility.yul\":11013:11016   */\n      dup2\n        /* \"#utility.yul\":11005:11016   */\n      swap1\n      pop\n        /* \"#utility.yul\":11043:11047   */\n      0x20\n        /* \"#utility.yul\":11038:11041   */\n      dup3\n        /* \"#utility.yul\":11034:11048   */\n      add\n        /* \"#utility.yul\":11026:11048   */\n      swap1\n      pop\n        /* \"#utility.yul\":10995:11055   */\n      swap2\n      swap1\n      pop\n      jump\t// out\n        /* \"#utility.yul\":11061:11195   */\n    tag_133:\n      0x00\n        /* \"#utility.yul\":11182:11187   */\n      dup2\n        /* \"#utility.yul\":11176:11188   */\n      mload\n        /* \"#utility.yul\":11166:11188   */\n      swap1\n      pop\n        /* \"#utility.yul\":11155:11195   */\n      swap2\n      swap1\n      pop\n      jump\t// out\n        /* \"#utility.yul\":11201:11334   */\n    tag_143:\n      0x00\n        /* \"#utility.yul\":11323:11327   */\n      0x20\n        /* \"#utility.yul\":11318:11321   */\n      dup3\n        /* \"#utility.yul\":11314:11328   */\n      add\n        /* \"#utility.yul\":11306:11328   */\n      swap1\n      pop\n        /* \"#utility.yul\":11296:11334   */\n      swap2\n      swap1\n      pop\n      jump\t// out\n        /* \"#utility.yul\":11340:11544   */\n    tag_135:\n      0x00\n        /* \"#utility.yul\":11493:11499   */\n      dup3\n        /* \"#utility.yul\":11488:11491   */\n      dup3\n        /* \"#utility.yul\":11481:11500   */\n      mstore\n        /* \"#utility.yul\":11533:11537   */\n      0x20\n        /* \"#utility.yul\":11528:11531   */\n      dup3\n        /* \"#utility.yul\":11524:11538   */\n      add\n        /* \"#utility.yul\":11509:11538   */\n      swap1\n      pop\n        /* \"#utility.yul\":11471:11544   */\n      swap3\n      swap2\n      pop\n      pop\n      jump\t// out\n        /* \"#utility.yul\":11550:11719   */\n    tag_151:\n      0x00\n        /* \"#utility.yul\":11668:11674   */\n      dup3\n        /* \"#utility.yul\":11663:11666   */\n      dup3\n        /* \"#utility.yul\":11656:11675   */\n      mstore\n        /* \"#utility.yul\":11708:11712   */\n      0x20\n        /* \"#utility.yul\":11703:11706   */\n      dup3\n        /* \"#utility.yul\":11699:11713   */\n      add\n        /* \"#utility.yul\":11684:11713   */\n      swap1\n      pop\n        /* \"#utility.yul\":11646:11719   */\n      swap3\n      swap2\n      pop\n      pop\n      jump\t// out\n        /* \"#utility.yul\":11725:11821   */\n    tag_126:\n      0x00\n        /* \"#utility.yul\":11791:11815   */\n      tag_221\n        /* \"#utility.yul\":11809:11814   */\n      dup3\n        /* \"#utility.yul\":11791:11815   */\n      tag_222\n      jump\t// in\n    tag_221:\n        /* \"#utility.yul\":11780:11815   */\n      swap1\n      pop\n        /* \"#utility.yul\":11770:11821   */\n      swap2\n      swap1\n      pop\n      jump\t// out\n        /* \"#utility.yul\":11827:11931   */\n    tag_122:\n      0x00\n        /* \"#utility.yul\":11901:11925   */\n      tag_224\n        /* \"#utility.yul\":11919:11924   */\n      dup3\n        /* \"#utility.yul\":11901:11925   */\n      tag_222\n      jump\t// in\n    tag_224:\n        /* \"#utility.yul\":11890:11925   */\n      swap1\n      pop\n        /* \"#utility.yul\":11880:11931   */\n      swap2\n      swap1\n      pop\n      jump\t// out\n        /* \"#utility.yul\":11937:12027   */\n    tag_147:\n      0x00\n        /* \"#utility.yul\":12014:12019   */\n      dup2\n        /* \"#utility.yul\":12007:12020   */\n      iszero\n        /* \"#utility.yul\":12000:12021   */\n      iszero\n        /* \"#utility.yul\":11989:12021   */\n      swap1\n      pop\n        /* \"#utility.yul\":11979:12027   */\n      swap2\n      swap1\n      pop\n      jump\t// out\n        /* \"#utility.yul\":12033:12159   */\n    tag_222:\n      0x00\n        /* \"#utility.yul\":12110:12152   */\n      0xffffffffffffffffffffffffffffffffffffffff\n        /* \"#utility.yul\":12103:12108   */\n      dup3\n        /* \"#utility.yul\":12099:12153   */\n      and\n        /* \"#utility.yul\":12088:12153   */\n      swap1\n      pop\n        /* \"#utility.yul\":12078:12159   */\n      swap2\n      swap1\n      pop\n      jump\t// out\n        /* \"#utility.yul\":12165:12242   */\n    tag_185:\n      0x00\n        /* \"#utility.yul\":12231:12236   */\n      dup2\n        /* \"#utility.yul\":12220:12236   */\n      swap1\n      pop\n        /* \"#utility.yul\":12210:12242   */\n      swap2\n      swap1\n      pop\n      jump\t// out\n        /* \"#utility.yul\":12248:12382   */\n    tag_118:\n      0x00\n        /* \"#utility.yul\":12339:12376   */\n      tag_229\n        /* \"#utility.yul\":12370:12375   */\n      dup3\n        /* \"#utility.yul\":12339:12376   */\n      tag_230\n      jump\t// in\n    tag_229:\n        /* \"#utility.yul\":12326:12376   */\n      swap1\n      pop\n        /* \"#utility.yul\":12316:12382   */\n      swap2\n      swap1\n      pop\n      jump\t// out\n        /* \"#utility.yul\":12388:12514   */\n    tag_230:\n      0x00\n        /* \"#utility.yul\":12471:12508   */\n      tag_232\n        /* \"#utility.yul\":12502:12507   */\n      dup3\n        /* \"#utility.yul\":12471:12508   */\n      tag_233\n      jump\t// in\n    tag_232:\n        /* \"#utility.yul\":12458:12508   */\n      swap1\n      pop\n        /* \"#utility.yul\":12448:12514   */\n      swap2\n      swap1\n      pop\n      jump\t// out\n        /* \"#utility.yul\":12520:12633   */\n    tag_233:\n      0x00\n        /* \"#utility.yul\":12603:12627   */\n      tag_235\n        /* \"#utility.yul\":12621:12626   */\n      dup3\n        /* \"#utility.yul\":12603:12627   */\n      tag_222\n      jump\t// in\n    tag_235:\n        /* \"#utility.yul\":12590:12627   */\n      swap1\n      pop\n        /* \"#utility.yul\":12580:12633   */\n      swap2\n      swap1\n      pop\n      jump\t// out\n        /* \"#utility.yul\":12639:12816   */\n    tag_153:\n        /* \"#utility.yul\":12779:12808   */\n      0x436f756e7465723a2064656372656d656e74206f766572666c6f770000000000\n        /* \"#utility.yul\":12775:12776   */\n      0x00\n        /* \"#utility.yul\":12767:12773   */\n      dup3\n        /* \"#utility.yul\":12763:12777   */\n      add\n        /* \"#utility.yul\":12756:12809   */\n      mstore\n        /* \"#utility.yul\":12745:12816   */\n      pop\n      jump\t// out\n        /* \"#utility.yul\":12822:13047   */\n    tag_158:\n        /* \"#utility.yul\":12962:12996   */\n      0x4e6f7420656e6f75676820657468657220746f20636f7665722061736b696e67\n        /* \"#utility.yul\":12958:12959   */\n      0x00\n        /* \"#utility.yul\":12950:12956   */\n      dup3\n        /* \"#utility.yul\":12946:12960   */\n      add\n        /* \"#utility.yul\":12939:12997   */\n      mstore\n        /* \"#utility.yul\":13031:13039   */\n      0x2070726963650000000000000000000000000000000000000000000000000000\n        /* \"#utility.yul\":13026:13028   */\n      0x20\n        /* \"#utility.yul\":13018:13024   */\n      dup3\n        /* \"#utility.yul\":13014:13029   */\n      add\n        /* \"#utility.yul\":13007:13040   */\n      mstore\n        /* \"#utility.yul\":12928:13047   */\n      pop\n      jump\t// out\n        /* \"#utility.yul\":13053:13235   */\n    tag_163:\n        /* \"#utility.yul\":13193:13227   */\n      0x4e6f7420656e6f75676820657468657220666f72206c697374696e6720666565\n        /* \"#utility.yul\":13189:13190   */\n      0x00\n        /* \"#utility.yul\":13181:13187   */\n      dup3\n        /* \"#utility.yul\":13177:13191   */\n      add\n        /* \"#utility.yul\":13170:13228   */\n      mstore\n        /* \"#utility.yul\":13159:13235   */\n      pop\n      jump\t// out\n        /* \"#utility.yul\":13241:13422   */\n    tag_168:\n        /* \"#utility.yul\":13381:13414   */\n      0x5265656e7472616e637947756172643a207265656e7472616e742063616c6c00\n        /* \"#utility.yul\":13377:13378   */\n      0x00\n        /* \"#utility.yul\":13369:13375   */\n      dup3\n        /* \"#utility.yul\":13365:13379   */\n      add\n        /* \"#utility.yul\":13358:13415   */\n      mstore\n        /* \"#utility.yul\":13347:13422   */\n      pop\n      jump\t// out\n        /* \"#utility.yul\":13428:13606   */\n    tag_173:\n        /* \"#utility.yul\":13568:13598   */\n      0x5072696365206d757374206265206174206c6561737420312077656900000000\n        /* \"#utility.yul\":13564:13565   */\n      0x00\n        /* \"#utility.yul\":13556:13562   */\n      dup3\n        /* \"#utility.yul\":13552:13566   */\n      add\n        /* \"#utility.yul\":13545:13599   */\n      mstore\n        /* \"#utility.yul\":13534:13606   */\n      pop\n      jump\t// out\n        /* \"#utility.yul\":13612:13734   */\n    tag_97:\n        /* \"#utility.yul\":13685:13709   */\n      tag_242\n        /* \"#utility.yul\":13703:13708   */\n      dup2\n        /* \"#utility.yul\":13685:13709   */\n      tag_126\n      jump\t// in\n    tag_242:\n        /* \"#utility.yul\":13678:13683   */\n      dup2\n        /* \"#utility.yul\":13675:13710   */\n      eq\n        /* \"#utility.yul\":13665:13667   */\n      tag_243\n      jumpi\n        /* \"#utility.yul\":13724:13725   */\n      0x00\n        /* \"#utility.yul\":13721:13722   */\n      dup1\n        /* \"#utility.yul\":13714:13726   */\n      revert\n        /* \"#utility.yul\":13665:13667   */\n    tag_243:\n        /* \"#utility.yul\":13655:13734   */\n      pop\n      jump\t// out\n        /* \"#utility.yul\":13740:13862   */\n    tag_101:\n        /* \"#utility.yul\":13813:13837   */\n      tag_245\n        /* \"#utility.yul\":13831:13836   */\n      dup2\n        /* \"#utility.yul\":13813:13837   */\n      tag_185\n      jump\t// in\n    tag_245:\n        /* \"#utility.yul\":13806:13811   */\n      dup2\n        /* \"#utility.yul\":13803:13838   */\n      eq\n        /* \"#utility.yul\":13793:13795   */\n      tag_246\n      jumpi\n        /* \"#utility.yul\":13852:13853   */\n      0x00\n        /* \"#utility.yul\":13849:13850   */\n      dup1\n        /* \"#utility.yul\":13842:13854   */\n      revert\n        /* \"#utility.yul\":13793:13795   */\n    tag_246:\n        /* \"#utility.yul\":13783:13862   */\n      pop\n      jump\t// out\n\n    auxdata: 0xa2646970667358221220061da5f71b587fd52cb4a1de022addf562c6c09f780fbde1c3c6f5609a30abe564736f6c63430008010033\n}\n",
				"bytecode": {
					"linkReferences": {},
					"object": "608060405266071afd498d000060035534801561001b57600080fd5b50600160008190555033600460006101000a81548173ffffffffffffffffffffffffffffffffffffffff021916908373ffffffffffffffffffffffffffffffffffffffff160217905550611173806100746000396000f3fe6080604052600436106100555760003560e01c8063049356941461005a5780632b86ae38146100765780634ddf4f8f146100a1578063a46b5c5a146100bd578063ad05f1b4146100e8578063b8fe6abe14610104575b600080fd5b610074600480360381019061006f9190610b55565b61012f565b005b34801561008257600080fd5b5061008b6103b7565b6040516100989190610f27565b60405180910390f35b6100bb60048036038101906100b69190610b19565b6103bd565b005b3480156100c957600080fd5b506100d261064d565b6040516100df9190610e65565b60405180910390f35b61010260048036038101906100fd9190610b55565b610652565b005b34801561011057600080fd5b50610119610a73565b6040516101269190610f27565b60405180910390f35b60026000541415610175576040517f08c379a000000000000000000000000000000000000000000000000000000000815260040161016c90610ee7565b60405180910390fd5b6002600081905550600081116101c0576040517f08c379a00000000000000000000000000000000000000000000000000000000081526004016101b790610f07565b60405180910390fd5b6003543414610204576040517f08c379a00000000000000000000000000000000000000000000000000000000081526004016101fb90610ec7565b60405180910390fd5b8273ffffffffffffffffffffffffffffffffffffffff166323b872dd3330856040518463ffffffff1660e01b815260040161024193929190610df7565b600060405180830381600087803b15801561025b57600080fd5b505af115801561026f573d6000803e3d6000fd5b505050506000600560008481526020019081526020016000209050338160030160006101000a81548173ffffffffffffffffffffffffffffffffffffffff021916908373ffffffffffffffffffffffffffffffffffffffff160217905550308160040160006101000a81548173ffffffffffffffffffffffffffffffffffffffff021916908373ffffffffffffffffffffffffffffffffffffffff16021790555060018160050160146101000a81548160ff0219169083151502179055508181600201819055506103406001610a7d565b3073ffffffffffffffffffffffffffffffffffffffff163373ffffffffffffffffffffffffffffffffffffffff167fa0c6c0d02d86fdacecbaa5fdf5894bab204e31a778250474108540733a9b8d198686866040516103a193929190610e2e565b60405180910390a3506001600081905550505050565b60035481565b60026000541415610403576040517f08c379a00000000000000000000000000000000000000000000000000000000081526004016103fa90610ee7565b60405180910390fd5b600260008190555060006005600083815260200190815260200160002090508060020154341015610469576040517f08c379a000000000000000000000000000000000000000000000000000000000815260040161046090610ea7565b60405180910390fd5b60003390508160030160009054906101000a900473ffffffffffffffffffffffffffffffffffffffff1673ffffffffffffffffffffffffffffffffffffffff166108fc349081150290604051600060405180830381858888f193505050501580156104d8573d6000803e3d6000fd5b508373ffffffffffffffffffffffffffffffffffffffff166323b872dd3083866040518463ffffffff1660e01b815260040161051693929190610dc0565b600060405180830381600087803b15801561053057600080fd5b505af1158015610544573d6000803e3d6000fd5b50505050808260040160006101000a81548173ffffffffffffffffffffffffffffffffffffffff021916908373ffffffffffffffffffffffffffffffffffffffff16021790555060008260050160146101000a81548160ff0219169083151502179055506105b26001610ad9565b8073ffffffffffffffffffffffffffffffffffffffff168260030160009054906101000a900473ffffffffffffffffffffffffffffffffffffffff1673ffffffffffffffffffffffffffffffffffffffff167f16f1dbd97e6bf646d429ed186cce832f1f7fd9907814293b83181e9970ab7bd286863460405161063793929190610e2e565b60405180910390a3505060016000819055505050565b606090565b60026000541415610698576040517f08c379a000000000000000000000000000000000000000000000000000000000815260040161068f90610ee7565b60405180910390fd5b6002600081905550600081116106e3576040517f08c379a00000000000000000000000000000000000000000000000000000000081526004016106da90610f07565b60405180910390fd5b6003543414610727576040517f08c379a000000000000000000000000000000000000000000000000000000000815260040161071e90610ec7565b60405180910390fd5b8273ffffffffffffffffffffffffffffffffffffffff166323b872dd3330856040518463ffffffff1660e01b815260040161076493929190610df7565b600060405180830381600087803b15801561077e57600080fd5b505af1158015610792573d6000803e3d6000fd5b505050506107a06002610ad9565b6040518060e001604052808473ffffffffffffffffffffffffffffffffffffffff1681526020018381526020018281526020013373ffffffffffffffffffffffffffffffffffffffff1681526020013073ffffffffffffffffffffffffffffffffffffffff1681526020013373ffffffffffffffffffffffffffffffffffffffff168152602001600115158152506005600084815260200190815260200160002060008201518160000160006101000a81548173ffffffffffffffffffffffffffffffffffffffff021916908373ffffffffffffffffffffffffffffffffffffffff160217905550602082015181600101556040820151816002015560608201518160030160006101000a81548173ffffffffffffffffffffffffffffffffffffffff021916908373ffffffffffffffffffffffffffffffffffffffff16021790555060808201518160040160006101000a81548173ffffffffffffffffffffffffffffffffffffffff021916908373ffffffffffffffffffffffffffffffffffffffff16021790555060a08201518160050160006101000a81548173ffffffffffffffffffffffffffffffffffffffff021916908373ffffffffffffffffffffffffffffffffffffffff16021790555060c08201518160050160146101000a81548160ff021916908315150217905550905050600460009054906101000a900473ffffffffffffffffffffffffffffffffffffffff1673ffffffffffffffffffffffffffffffffffffffff166108fc349081150290604051600060405180830381858888f193505050501580156109fc573d6000803e3d6000fd5b503073ffffffffffffffffffffffffffffffffffffffff163373ffffffffffffffffffffffffffffffffffffffff167fa0c6c0d02d86fdacecbaa5fdf5894bab204e31a778250474108540733a9b8d19858585604051610a5e93929190610e2e565b60405180910390a36001600081905550505050565b6000600354905090565b60008160000154905060008111610ac9576040517f08c379a0000000000000000000000000000000000000000000000000000000008152600401610ac090610e87565b60405180910390fd5b6001810382600001819055505050565b6001816000016000828254019250508190555050565b600081359050610afe8161110f565b92915050565b600081359050610b1381611126565b92915050565b60008060408385031215610b2c57600080fd5b6000610b3a85828601610aef565b9250506020610b4b85828601610b04565b9150509250929050565b600080600060608486031215610b6a57600080fd5b6000610b7886828701610aef565b9350506020610b8986828701610b04565b9250506040610b9a86828701610b04565b9150509250925092565b6000610bb08383610d14565b60e08301905092915050565b610bc581610fe6565b82525050565b610bd481610f9e565b82525050565b610be381610f8c565b82525050565b610bf281610f8c565b82525050565b6000610c0382610f52565b610c0d8185610f6a565b9350610c1883610f42565b8060005b83811015610c49578151610c308882610ba4565b9750610c3b83610f5d565b925050600181019050610c1c565b5085935050505092915050565b610c5f81610fb0565b82525050565b6000610c72601b83610f7b565b9150610c7d8261101c565b602082019050919050565b6000610c95602683610f7b565b9150610ca082611045565b604082019050919050565b6000610cb8602083610f7b565b9150610cc382611094565b602082019050919050565b6000610cdb601f83610f7b565b9150610ce6826110bd565b602082019050919050565b6000610cfe601c83610f7b565b9150610d09826110e6565b602082019050919050565b60e082016000820151610d2a6000850182610bda565b506020820151610d3d6020850182610da2565b506040820151610d506040850182610da2565b506060820151610d636060850182610bcb565b506080820151610d766080850182610bcb565b5060a0820151610d8960a0850182610bcb565b5060c0820151610d9c60c0850182610c56565b50505050565b610dab81610fdc565b82525050565b610dba81610fdc565b82525050565b6000606082019050610dd56000830186610be9565b610de26020830185610bbc565b610def6040830184610db1565b949350505050565b6000606082019050610e0c6000830186610be9565b610e196020830185610be9565b610e266040830184610db1565b949350505050565b6000606082019050610e436000830186610be9565b610e506020830185610db1565b610e5d6040830184610db1565b949350505050565b60006020820190508181036000830152610e7f8184610bf8565b905092915050565b60006020820190508181036000830152610ea081610c65565b9050919050565b60006020820190508181036000830152610ec081610c88565b9050919050565b60006020820190508181036000830152610ee081610cab565b9050919050565b60006020820190508181036000830152610f0081610cce565b9050919050565b60006020820190508181036000830152610f2081610cf1565b9050919050565b6000602082019050610f3c6000830184610db1565b92915050565b6000819050602082019050919050565b600081519050919050565b6000602082019050919050565b600082825260208201905092915050565b600082825260208201905092915050565b6000610f9782610fbc565b9050919050565b6000610fa982610fbc565b9050919050565b60008115159050919050565b600073ffffffffffffffffffffffffffffffffffffffff82169050919050565b6000819050919050565b6000610ff182610ff8565b9050919050565b60006110038261100a565b9050919050565b600061101582610fbc565b9050919050565b7f436f756e7465723a2064656372656d656e74206f766572666c6f770000000000600082015250565b7f4e6f7420656e6f75676820657468657220746f20636f7665722061736b696e6760008201527f2070726963650000000000000000000000000000000000000000000000000000602082015250565b7f4e6f7420656e6f75676820657468657220666f72206c697374696e6720666565600082015250565b7f5265656e7472616e637947756172643a207265656e7472616e742063616c6c00600082015250565b7f5072696365206d757374206265206174206c6561737420312077656900000000600082015250565b61111881610f8c565b811461112357600080fd5b50565b61112f81610fdc565b811461113a57600080fd5b5056fea2646970667358221220061da5f71b587fd52cb4a1de022addf562c6c09f780fbde1c3c6f5609a30abe564736f6c63430008010033",
					"opcodes": "PUSH1 0x80 PUSH1 0x40 MSTORE PUSH7 0x71AFD498D0000 PUSH1 0x3 SSTORE CALLVALUE DUP1 ISZERO PUSH2 0x1B JUMPI PUSH1 0x0 DUP1 REVERT JUMPDEST POP PUSH1 0x1 PUSH1 0x0 DUP2 SWAP1 SSTORE POP CALLER PUSH1 0x4 PUSH1 0x0 PUSH2 0x100 EXP DUP2 SLOAD DUP2 PUSH20 0xFFFFFFFFFFFFFFFFFFFFFFFFFFFFFFFFFFFFFFFF MUL NOT AND SWAP1 DUP4 PUSH20 0xFFFFFFFFFFFFFFFFFFFFFFFFFFFFFFFFFFFFFFFF AND MUL OR SWAP1 SSTORE POP PUSH2 0x1173 DUP1 PUSH2 0x74 PUSH1 0x0 CODECOPY PUSH1 0x0 RETURN INVALID PUSH1 0x80 PUSH1 0x40 MSTORE PUSH1 0x4 CALLDATASIZE LT PUSH2 0x55 JUMPI PUSH1 0x0 CALLDATALOAD PUSH1 0xE0 SHR DUP1 PUSH4 0x4935694 EQ PUSH2 0x5A JUMPI DUP1 PUSH4 0x2B86AE38 EQ PUSH2 0x76 JUMPI DUP1 PUSH4 0x4DDF4F8F EQ PUSH2 0xA1 JUMPI DUP1 PUSH4 0xA46B5C5A EQ PUSH2 0xBD JUMPI DUP1 PUSH4 0xAD05F1B4 EQ PUSH2 0xE8 JUMPI DUP1 PUSH4 0xB8FE6ABE EQ PUSH2 0x104 JUMPI JUMPDEST PUSH1 0x0 DUP1 REVERT JUMPDEST PUSH2 0x74 PUSH1 0x4 DUP1 CALLDATASIZE SUB DUP2 ADD SWAP1 PUSH2 0x6F SWAP2 SWAP1 PUSH2 0xB55 JUMP JUMPDEST PUSH2 0x12F JUMP JUMPDEST STOP JUMPDEST CALLVALUE DUP1 ISZERO PUSH2 0x82 JUMPI PUSH1 0x0 DUP1 REVERT JUMPDEST POP PUSH2 0x8B PUSH2 0x3B7 JUMP JUMPDEST PUSH1 0x40 MLOAD PUSH2 0x98 SWAP2 SWAP1 PUSH2 0xF27 JUMP JUMPDEST PUSH1 0x40 MLOAD DUP1 SWAP2 SUB SWAP1 RETURN JUMPDEST PUSH2 0xBB PUSH1 0x4 DUP1 CALLDATASIZE SUB DUP2 ADD SWAP1 PUSH2 0xB6 SWAP2 SWAP1 PUSH2 0xB19 JUMP JUMPDEST PUSH2 0x3BD JUMP JUMPDEST STOP JUMPDEST CALLVALUE DUP1 ISZERO PUSH2 0xC9 JUMPI PUSH1 0x0 DUP1 REVERT JUMPDEST POP PUSH2 0xD2 PUSH2 0x64D JUMP JUMPDEST PUSH1 0x40 MLOAD PUSH2 0xDF SWAP2 SWAP1 PUSH2 0xE65 JUMP JUMPDEST PUSH1 0x40 MLOAD DUP1 SWAP2 SUB SWAP1 RETURN JUMPDEST PUSH2 0x102 PUSH1 0x4 DUP1 CALLDATASIZE SUB DUP2 ADD SWAP1 PUSH2 0xFD SWAP2 SWAP1 PUSH2 0xB55 JUMP JUMPDEST PUSH2 0x652 JUMP JUMPDEST STOP JUMPDEST CALLVALUE DUP1 ISZERO PUSH2 0x110 JUMPI PUSH1 0x0 DUP1 REVERT JUMPDEST POP PUSH2 0x119 PUSH2 0xA73 JUMP JUMPDEST PUSH1 0x40 MLOAD PUSH2 0x126 SWAP2 SWAP1 PUSH2 0xF27 JUMP JUMPDEST PUSH1 0x40 MLOAD DUP1 SWAP2 SUB SWAP1 RETURN JUMPDEST PUSH1 0x2 PUSH1 0x0 SLOAD EQ ISZERO PUSH2 0x175 JUMPI PUSH1 0x40 MLOAD PUSH32 0x8C379A000000000000000000000000000000000000000000000000000000000 DUP2 MSTORE PUSH1 0x4 ADD PUSH2 0x16C SWAP1 PUSH2 0xEE7 JUMP JUMPDEST PUSH1 0x40 MLOAD DUP1 SWAP2 SUB SWAP1 REVERT JUMPDEST PUSH1 0x2 PUSH1 0x0 DUP2 SWAP1 SSTORE POP PUSH1 0x0 DUP2 GT PUSH2 0x1C0 JUMPI PUSH1 0x40 MLOAD PUSH32 0x8C379A000000000000000000000000000000000000000000000000000000000 DUP2 MSTORE PUSH1 0x4 ADD PUSH2 0x1B7 SWAP1 PUSH2 0xF07 JUMP JUMPDEST PUSH1 0x40 MLOAD DUP1 SWAP2 SUB SWAP1 REVERT JUMPDEST PUSH1 0x3 SLOAD CALLVALUE EQ PUSH2 0x204 JUMPI PUSH1 0x40 MLOAD PUSH32 0x8C379A000000000000000000000000000000000000000000000000000000000 DUP2 MSTORE PUSH1 0x4 ADD PUSH2 0x1FB SWAP1 PUSH2 0xEC7 JUMP JUMPDEST PUSH1 0x40 MLOAD DUP1 SWAP2 SUB SWAP1 REVERT JUMPDEST DUP3 PUSH20 0xFFFFFFFFFFFFFFFFFFFFFFFFFFFFFFFFFFFFFFFF AND PUSH4 0x23B872DD CALLER ADDRESS DUP6 PUSH1 0x40 MLOAD DUP5 PUSH4 0xFFFFFFFF AND PUSH1 0xE0 SHL DUP2 MSTORE PUSH1 0x4 ADD PUSH2 0x241 SWAP4 SWAP3 SWAP2 SWAP1 PUSH2 0xDF7 JUMP JUMPDEST PUSH1 0x0 PUSH1 0x40 MLOAD DUP1 DUP4 SUB DUP2 PUSH1 0x0 DUP8 DUP1 EXTCODESIZE ISZERO DUP1 ISZERO PUSH2 0x25B JUMPI PUSH1 0x0 DUP1 REVERT JUMPDEST POP GAS CALL ISZERO DUP1 ISZERO PUSH2 0x26F JUMPI RETURNDATASIZE PUSH1 0x0 DUP1 RETURNDATACOPY RETURNDATASIZE PUSH1 0x0 REVERT JUMPDEST POP POP POP POP PUSH1 0x0 PUSH1 0x5 PUSH1 0x0 DUP5 DUP2 MSTORE PUSH1 0x20 ADD SWAP1 DUP2 MSTORE PUSH1 0x20 ADD PUSH1 0x0 KECCAK256 SWAP1 POP CALLER DUP2 PUSH1 0x3 ADD PUSH1 0x0 PUSH2 0x100 EXP DUP2 SLOAD DUP2 PUSH20 0xFFFFFFFFFFFFFFFFFFFFFFFFFFFFFFFFFFFFFFFF MUL NOT AND SWAP1 DUP4 PUSH20 0xFFFFFFFFFFFFFFFFFFFFFFFFFFFFFFFFFFFFFFFF AND MUL OR SWAP1 SSTORE POP ADDRESS DUP2 PUSH1 0x4 ADD PUSH1 0x0 PUSH2 0x100 EXP DUP2 SLOAD DUP2 PUSH20 0xFFFFFFFFFFFFFFFFFFFFFFFFFFFFFFFFFFFFFFFF MUL NOT AND SWAP1 DUP4 PUSH20 0xFFFFFFFFFFFFFFFFFFFFFFFFFFFFFFFFFFFFFFFF AND MUL OR SWAP1 SSTORE POP PUSH1 0x1 DUP2 PUSH1 0x5 ADD PUSH1 0x14 PUSH2 0x100 EXP DUP2 SLOAD DUP2 PUSH1 0xFF MUL NOT AND SWAP1 DUP4 ISZERO ISZERO MUL OR SWAP1 SSTORE POP DUP2 DUP2 PUSH1 0x2 ADD DUP2 SWAP1 SSTORE POP PUSH2 0x340 PUSH1 0x1 PUSH2 0xA7D JUMP JUMPDEST ADDRESS PUSH20 0xFFFFFFFFFFFFFFFFFFFFFFFFFFFFFFFFFFFFFFFF AND CALLER PUSH20 0xFFFFFFFFFFFFFFFFFFFFFFFFFFFFFFFFFFFFFFFF AND PUSH32 0xA0C6C0D02D86FDACECBAA5FDF5894BAB204E31A778250474108540733A9B8D19 DUP7 DUP7 DUP7 PUSH1 0x40 MLOAD PUSH2 0x3A1 SWAP4 SWAP3 SWAP2 SWAP1 PUSH2 0xE2E JUMP JUMPDEST PUSH1 0x40 MLOAD DUP1 SWAP2 SUB SWAP1 LOG3 POP PUSH1 0x1 PUSH1 0x0 DUP2 SWAP1 SSTORE POP POP POP POP JUMP JUMPDEST PUSH1 0x3 SLOAD DUP2 JUMP JUMPDEST PUSH1 0x2 PUSH1 0x0 SLOAD EQ ISZERO PUSH2 0x403 JUMPI PUSH1 0x40 MLOAD PUSH32 0x8C379A000000000000000000000000000000000000000000000000000000000 DUP2 MSTORE PUSH1 0x4 ADD PUSH2 0x3FA SWAP1 PUSH2 0xEE7 JUMP JUMPDEST PUSH1 0x40 MLOAD DUP1 SWAP2 SUB SWAP1 REVERT JUMPDEST PUSH1 0x2 PUSH1 0x0 DUP2 SWAP1 SSTORE POP PUSH1 0x0 PUSH1 0x5 PUSH1 0x0 DUP4 DUP2 MSTORE PUSH1 0x20 ADD SWAP1 DUP2 MSTORE PUSH1 0x20 ADD PUSH1 0x0 KECCAK256 SWAP1 POP DUP1 PUSH1 0x2 ADD SLOAD CALLVALUE LT ISZERO PUSH2 0x469 JUMPI PUSH1 0x40 MLOAD PUSH32 0x8C379A000000000000000000000000000000000000000000000000000000000 DUP2 MSTORE PUSH1 0x4 ADD PUSH2 0x460 SWAP1 PUSH2 0xEA7 JUMP JUMPDEST PUSH1 0x40 MLOAD DUP1 SWAP2 SUB SWAP1 REVERT JUMPDEST PUSH1 0x0 CALLER SWAP1 POP DUP2 PUSH1 0x3 ADD PUSH1 0x0 SWAP1 SLOAD SWAP1 PUSH2 0x100 EXP SWAP1 DIV PUSH20 0xFFFFFFFFFFFFFFFFFFFFFFFFFFFFFFFFFFFFFFFF AND PUSH20 0xFFFFFFFFFFFFFFFFFFFFFFFFFFFFFFFFFFFFFFFF AND PUSH2 0x8FC CALLVALUE SWAP1 DUP2 ISZERO MUL SWAP1 PUSH1 0x40 MLOAD PUSH1 0x0 PUSH1 0x40 MLOAD DUP1 DUP4 SUB DUP2 DUP6 DUP9 DUP9 CALL SWAP4 POP POP POP POP ISZERO DUP1 ISZERO PUSH2 0x4D8 JUMPI RETURNDATASIZE PUSH1 0x0 DUP1 RETURNDATACOPY RETURNDATASIZE PUSH1 0x0 REVERT JUMPDEST POP DUP4 PUSH20 0xFFFFFFFFFFFFFFFFFFFFFFFFFFFFFFFFFFFFFFFF AND PUSH4 0x23B872DD ADDRESS DUP4 DUP7 PUSH1 0x40 MLOAD DUP5 PUSH4 0xFFFFFFFF AND PUSH1 0xE0 SHL DUP2 MSTORE PUSH1 0x4 ADD PUSH2 0x516 SWAP4 SWAP3 SWAP2 SWAP1 PUSH2 0xDC0 JUMP JUMPDEST PUSH1 0x0 PUSH1 0x40 MLOAD DUP1 DUP4 SUB DUP2 PUSH1 0x0 DUP8 DUP1 EXTCODESIZE ISZERO DUP1 ISZERO PUSH2 0x530 JUMPI PUSH1 0x0 DUP1 REVERT JUMPDEST POP GAS CALL ISZERO DUP1 ISZERO PUSH2 0x544 JUMPI RETURNDATASIZE PUSH1 0x0 DUP1 RETURNDATACOPY RETURNDATASIZE PUSH1 0x0 REVERT JUMPDEST POP POP POP POP DUP1 DUP3 PUSH1 0x4 ADD PUSH1 0x0 PUSH2 0x100 EXP DUP2 SLOAD DUP2 PUSH20 0xFFFFFFFFFFFFFFFFFFFFFFFFFFFFFFFFFFFFFFFF MUL NOT AND SWAP1 DUP4 PUSH20 0xFFFFFFFFFFFFFFFFFFFFFFFFFFFFFFFFFFFFFFFF AND MUL OR SWAP1 SSTORE POP PUSH1 0x0 DUP3 PUSH1 0x5 ADD PUSH1 0x14 PUSH2 0x100 EXP DUP2 SLOAD DUP2 PUSH1 0xFF MUL NOT AND SWAP1 DUP4 ISZERO ISZERO MUL OR SWAP1 SSTORE POP PUSH2 0x5B2 PUSH1 0x1 PUSH2 0xAD9 JUMP JUMPDEST DUP1 PUSH20 0xFFFFFFFFFFFFFFFFFFFFFFFFFFFFFFFFFFFFFFFF AND DUP3 PUSH1 0x3 ADD PUSH1 0x0 SWAP1 SLOAD SWAP1 PUSH2 0x100 EXP SWAP1 DIV PUSH20 0xFFFFFFFFFFFFFFFFFFFFFFFFFFFFFFFFFFFFFFFF AND PUSH20 0xFFFFFFFFFFFFFFFFFFFFFFFFFFFFFFFFFFFFFFFF AND PUSH32 0x16F1DBD97E6BF646D429ED186CCE832F1F7FD9907814293B83181E9970AB7BD2 DUP7 DUP7 CALLVALUE PUSH1 0x40 MLOAD PUSH2 0x637 SWAP4 SWAP3 SWAP2 SWAP1 PUSH2 0xE2E JUMP JUMPDEST PUSH1 0x40 MLOAD DUP1 SWAP2 SUB SWAP1 LOG3 POP POP PUSH1 0x1 PUSH1 0x0 DUP2 SWAP1 SSTORE POP POP POP JUMP JUMPDEST PUSH1 0x60 SWAP1 JUMP JUMPDEST PUSH1 0x2 PUSH1 0x0 SLOAD EQ ISZERO PUSH2 0x698 JUMPI PUSH1 0x40 MLOAD PUSH32 0x8C379A000000000000000000000000000000000000000000000000000000000 DUP2 MSTORE PUSH1 0x4 ADD PUSH2 0x68F SWAP1 PUSH2 0xEE7 JUMP JUMPDEST PUSH1 0x40 MLOAD DUP1 SWAP2 SUB SWAP1 REVERT JUMPDEST PUSH1 0x2 PUSH1 0x0 DUP2 SWAP1 SSTORE POP PUSH1 0x0 DUP2 GT PUSH2 0x6E3 JUMPI PUSH1 0x40 MLOAD PUSH32 0x8C379A000000000000000000000000000000000000000000000000000000000 DUP2 MSTORE PUSH1 0x4 ADD PUSH2 0x6DA SWAP1 PUSH2 0xF07 JUMP JUMPDEST PUSH1 0x40 MLOAD DUP1 SWAP2 SUB SWAP1 REVERT JUMPDEST PUSH1 0x3 SLOAD CALLVALUE EQ PUSH2 0x727 JUMPI PUSH1 0x40 MLOAD PUSH32 0x8C379A000000000000000000000000000000000000000000000000000000000 DUP2 MSTORE PUSH1 0x4 ADD PUSH2 0x71E SWAP1 PUSH2 0xEC7 JUMP JUMPDEST PUSH1 0x40 MLOAD DUP1 SWAP2 SUB SWAP1 REVERT JUMPDEST DUP3 PUSH20 0xFFFFFFFFFFFFFFFFFFFFFFFFFFFFFFFFFFFFFFFF AND PUSH4 0x23B872DD CALLER ADDRESS DUP6 PUSH1 0x40 MLOAD DUP5 PUSH4 0xFFFFFFFF AND PUSH1 0xE0 SHL DUP2 MSTORE PUSH1 0x4 ADD PUSH2 0x764 SWAP4 SWAP3 SWAP2 SWAP1 PUSH2 0xDF7 JUMP JUMPDEST PUSH1 0x0 PUSH1 0x40 MLOAD DUP1 DUP4 SUB DUP2 PUSH1 0x0 DUP8 DUP1 EXTCODESIZE ISZERO DUP1 ISZERO PUSH2 0x77E JUMPI PUSH1 0x0 DUP1 REVERT JUMPDEST POP GAS CALL ISZERO DUP1 ISZERO PUSH2 0x792 JUMPI RETURNDATASIZE PUSH1 0x0 DUP1 RETURNDATACOPY RETURNDATASIZE PUSH1 0x0 REVERT JUMPDEST POP POP POP POP PUSH2 0x7A0 PUSH1 0x2 PUSH2 0xAD9 JUMP JUMPDEST PUSH1 0x40 MLOAD DUP1 PUSH1 0xE0 ADD PUSH1 0x40 MSTORE DUP1 DUP5 PUSH20 0xFFFFFFFFFFFFFFFFFFFFFFFFFFFFFFFFFFFFFFFF AND DUP2 MSTORE PUSH1 0x20 ADD DUP4 DUP2 MSTORE PUSH1 0x20 ADD DUP3 DUP2 MSTORE PUSH1 0x20 ADD CALLER PUSH20 0xFFFFFFFFFFFFFFFFFFFFFFFFFFFFFFFFFFFFFFFF AND DUP2 MSTORE PUSH1 0x20 ADD ADDRESS PUSH20 0xFFFFFFFFFFFFFFFFFFFFFFFFFFFFFFFFFFFFFFFF AND DUP2 MSTORE PUSH1 0x20 ADD CALLER PUSH20 0xFFFFFFFFFFFFFFFFFFFFFFFFFFFFFFFFFFFFFFFF AND DUP2 MSTORE PUSH1 0x20 ADD PUSH1 0x1 ISZERO ISZERO DUP2 MSTORE POP PUSH1 0x5 PUSH1 0x0 DUP5 DUP2 MSTORE PUSH1 0x20 ADD SWAP1 DUP2 MSTORE PUSH1 0x20 ADD PUSH1 0x0 KECCAK256 PUSH1 0x0 DUP3 ADD MLOAD DUP2 PUSH1 0x0 ADD PUSH1 0x0 PUSH2 0x100 EXP DUP2 SLOAD DUP2 PUSH20 0xFFFFFFFFFFFFFFFFFFFFFFFFFFFFFFFFFFFFFFFF MUL NOT AND SWAP1 DUP4 PUSH20 0xFFFFFFFFFFFFFFFFFFFFFFFFFFFFFFFFFFFFFFFF AND MUL OR SWAP1 SSTORE POP PUSH1 0x20 DUP3 ADD MLOAD DUP2 PUSH1 0x1 ADD SSTORE PUSH1 0x40 DUP3 ADD MLOAD DUP2 PUSH1 0x2 ADD SSTORE PUSH1 0x60 DUP3 ADD MLOAD DUP2 PUSH1 0x3 ADD PUSH1 0x0 PUSH2 0x100 EXP DUP2 SLOAD DUP2 PUSH20 0xFFFFFFFFFFFFFFFFFFFFFFFFFFFFFFFFFFFFFFFF MUL NOT AND SWAP1 DUP4 PUSH20 0xFFFFFFFFFFFFFFFFFFFFFFFFFFFFFFFFFFFFFFFF AND MUL OR SWAP1 SSTORE POP PUSH1 0x80 DUP3 ADD MLOAD DUP2 PUSH1 0x4 ADD PUSH1 0x0 PUSH2 0x100 EXP DUP2 SLOAD DUP2 PUSH20 0xFFFFFFFFFFFFFFFFFFFFFFFFFFFFFFFFFFFFFFFF MUL NOT AND SWAP1 DUP4 PUSH20 0xFFFFFFFFFFFFFFFFFFFFFFFFFFFFFFFFFFFFFFFF AND MUL OR SWAP1 SSTORE POP PUSH1 0xA0 DUP3 ADD MLOAD DUP2 PUSH1 0x5 ADD PUSH1 0x0 PUSH2 0x100 EXP DUP2 SLOAD DUP2 PUSH20 0xFFFFFFFFFFFFFFFFFFFFFFFFFFFFFFFFFFFFFFFF MUL NOT AND SWAP1 DUP4 PUSH20 0xFFFFFFFFFFFFFFFFFFFFFFFFFFFFFFFFFFFFFFFF AND MUL OR SWAP1 SSTORE POP PUSH1 0xC0 DUP3 ADD MLOAD DUP2 PUSH1 0x5 ADD PUSH1 0x14 PUSH2 0x100 EXP DUP2 SLOAD DUP2 PUSH1 0xFF MUL NOT AND SWAP1 DUP4 ISZERO ISZERO MUL OR SWAP1 SSTORE POP SWAP1 POP POP PUSH1 0x4 PUSH1 0x0 SWAP1 SLOAD SWAP1 PUSH2 0x100 EXP SWAP1 DIV PUSH20 0xFFFFFFFFFFFFFFFFFFFFFFFFFFFFFFFFFFFFFFFF AND PUSH20 0xFFFFFFFFFFFFFFFFFFFFFFFFFFFFFFFFFFFFFFFF AND PUSH2 0x8FC CALLVALUE SWAP1 DUP2 ISZERO MUL SWAP1 PUSH1 0x40 MLOAD PUSH1 0x0 PUSH1 0x40 MLOAD DUP1 DUP4 SUB DUP2 DUP6 DUP9 DUP9 CALL SWAP4 POP POP POP POP ISZERO DUP1 ISZERO PUSH2 0x9FC JUMPI RETURNDATASIZE PUSH1 0x0 DUP1 RETURNDATACOPY RETURNDATASIZE PUSH1 0x0 REVERT JUMPDEST POP ADDRESS PUSH20 0xFFFFFFFFFFFFFFFFFFFFFFFFFFFFFFFFFFFFFFFF AND CALLER PUSH20 0xFFFFFFFFFFFFFFFFFFFFFFFFFFFFFFFFFFFFFFFF AND PUSH32 0xA0C6C0D02D86FDACECBAA5FDF5894BAB204E31A778250474108540733A9B8D19 DUP6 DUP6 DUP6 PUSH1 0x40 MLOAD PUSH2 0xA5E SWAP4 SWAP3 SWAP2 SWAP1 PUSH2 0xE2E JUMP JUMPDEST PUSH1 0x40 MLOAD DUP1 SWAP2 SUB SWAP1 LOG3 PUSH1 0x1 PUSH1 0x0 DUP2 SWAP1 SSTORE POP POP POP POP JUMP JUMPDEST PUSH1 0x0 PUSH1 0x3 SLOAD SWAP1 POP SWAP1 JUMP JUMPDEST PUSH1 0x0 DUP2 PUSH1 0x0 ADD SLOAD SWAP1 POP PUSH1 0x0 DUP2 GT PUSH2 0xAC9 JUMPI PUSH1 0x40 MLOAD PUSH32 0x8C379A000000000000000000000000000000000000000000000000000000000 DUP2 MSTORE PUSH1 0x4 ADD PUSH2 0xAC0 SWAP1 PUSH2 0xE87 JUMP JUMPDEST PUSH1 0x40 MLOAD DUP1 SWAP2 SUB SWAP1 REVERT JUMPDEST PUSH1 0x1 DUP2 SUB DUP3 PUSH1 0x0 ADD DUP2 SWAP1 SSTORE POP POP POP JUMP JUMPDEST PUSH1 0x1 DUP2 PUSH1 0x0 ADD PUSH1 0x0 DUP3 DUP3 SLOAD ADD SWAP3 POP POP DUP2 SWAP1 SSTORE POP POP JUMP JUMPDEST PUSH1 0x0 DUP2 CALLDATALOAD SWAP1 POP PUSH2 0xAFE DUP2 PUSH2 0x110F JUMP JUMPDEST SWAP3 SWAP2 POP POP JUMP JUMPDEST PUSH1 0x0 DUP2 CALLDATALOAD SWAP1 POP PUSH2 0xB13 DUP2 PUSH2 0x1126 JUMP JUMPDEST SWAP3 SWAP2 POP POP JUMP JUMPDEST PUSH1 0x0 DUP1 PUSH1 0x40 DUP4 DUP6 SUB SLT ISZERO PUSH2 0xB2C JUMPI PUSH1 0x0 DUP1 REVERT JUMPDEST PUSH1 0x0 PUSH2 0xB3A DUP6 DUP3 DUP7 ADD PUSH2 0xAEF JUMP JUMPDEST SWAP3 POP POP PUSH1 0x20 PUSH2 0xB4B DUP6 DUP3 DUP7 ADD PUSH2 0xB04 JUMP JUMPDEST SWAP2 POP POP SWAP3 POP SWAP3 SWAP1 POP JUMP JUMPDEST PUSH1 0x0 DUP1 PUSH1 0x0 PUSH1 0x60 DUP5 DUP7 SUB SLT ISZERO PUSH2 0xB6A JUMPI PUSH1 0x0 DUP1 REVERT JUMPDEST PUSH1 0x0 PUSH2 0xB78 DUP7 DUP3 DUP8 ADD PUSH2 0xAEF JUMP JUMPDEST SWAP4 POP POP PUSH1 0x20 PUSH2 0xB89 DUP7 DUP3 DUP8 ADD PUSH2 0xB04 JUMP JUMPDEST SWAP3 POP POP PUSH1 0x40 PUSH2 0xB9A DUP7 DUP3 DUP8 ADD PUSH2 0xB04 JUMP JUMPDEST SWAP2 POP POP SWAP3 POP SWAP3 POP SWAP3 JUMP JUMPDEST PUSH1 0x0 PUSH2 0xBB0 DUP4 DUP4 PUSH2 0xD14 JUMP JUMPDEST PUSH1 0xE0 DUP4 ADD SWAP1 POP SWAP3 SWAP2 POP POP JUMP JUMPDEST PUSH2 0xBC5 DUP2 PUSH2 0xFE6 JUMP JUMPDEST DUP3 MSTORE POP POP JUMP JUMPDEST PUSH2 0xBD4 DUP2 PUSH2 0xF9E JUMP JUMPDEST DUP3 MSTORE POP POP JUMP JUMPDEST PUSH2 0xBE3 DUP2 PUSH2 0xF8C JUMP JUMPDEST DUP3 MSTORE POP POP JUMP JUMPDEST PUSH2 0xBF2 DUP2 PUSH2 0xF8C JUMP JUMPDEST DUP3 MSTORE POP POP JUMP JUMPDEST PUSH1 0x0 PUSH2 0xC03 DUP3 PUSH2 0xF52 JUMP JUMPDEST PUSH2 0xC0D DUP2 DUP6 PUSH2 0xF6A JUMP JUMPDEST SWAP4 POP PUSH2 0xC18 DUP4 PUSH2 0xF42 JUMP JUMPDEST DUP1 PUSH1 0x0 JUMPDEST DUP4 DUP2 LT ISZERO PUSH2 0xC49 JUMPI DUP2 MLOAD PUSH2 0xC30 DUP9 DUP3 PUSH2 0xBA4 JUMP JUMPDEST SWAP8 POP PUSH2 0xC3B DUP4 PUSH2 0xF5D JUMP JUMPDEST SWAP3 POP POP PUSH1 0x1 DUP2 ADD SWAP1 POP PUSH2 0xC1C JUMP JUMPDEST POP DUP6 SWAP4 POP POP POP POP SWAP3 SWAP2 POP POP JUMP JUMPDEST PUSH2 0xC5F DUP2 PUSH2 0xFB0 JUMP JUMPDEST DUP3 MSTORE POP POP JUMP JUMPDEST PUSH1 0x0 PUSH2 0xC72 PUSH1 0x1B DUP4 PUSH2 0xF7B JUMP JUMPDEST SWAP2 POP PUSH2 0xC7D DUP3 PUSH2 0x101C JUMP JUMPDEST PUSH1 0x20 DUP3 ADD SWAP1 POP SWAP2 SWAP1 POP JUMP JUMPDEST PUSH1 0x0 PUSH2 0xC95 PUSH1 0x26 DUP4 PUSH2 0xF7B JUMP JUMPDEST SWAP2 POP PUSH2 0xCA0 DUP3 PUSH2 0x1045 JUMP JUMPDEST PUSH1 0x40 DUP3 ADD SWAP1 POP SWAP2 SWAP1 POP JUMP JUMPDEST PUSH1 0x0 PUSH2 0xCB8 PUSH1 0x20 DUP4 PUSH2 0xF7B JUMP JUMPDEST SWAP2 POP PUSH2 0xCC3 DUP3 PUSH2 0x1094 JUMP JUMPDEST PUSH1 0x20 DUP3 ADD SWAP1 POP SWAP2 SWAP1 POP JUMP JUMPDEST PUSH1 0x0 PUSH2 0xCDB PUSH1 0x1F DUP4 PUSH2 0xF7B JUMP JUMPDEST SWAP2 POP PUSH2 0xCE6 DUP3 PUSH2 0x10BD JUMP JUMPDEST PUSH1 0x20 DUP3 ADD SWAP1 POP SWAP2 SWAP1 POP JUMP JUMPDEST PUSH1 0x0 PUSH2 0xCFE PUSH1 0x1C DUP4 PUSH2 0xF7B JUMP JUMPDEST SWAP2 POP PUSH2 0xD09 DUP3 PUSH2 0x10E6 JUMP JUMPDEST PUSH1 0x20 DUP3 ADD SWAP1 POP SWAP2 SWAP1 POP JUMP JUMPDEST PUSH1 0xE0 DUP3 ADD PUSH1 0x0 DUP3 ADD MLOAD PUSH2 0xD2A PUSH1 0x0 DUP6 ADD DUP3 PUSH2 0xBDA JUMP JUMPDEST POP PUSH1 0x20 DUP3 ADD MLOAD PUSH2 0xD3D PUSH1 0x20 DUP6 ADD DUP3 PUSH2 0xDA2 JUMP JUMPDEST POP PUSH1 0x40 DUP3 ADD MLOAD PUSH2 0xD50 PUSH1 0x40 DUP6 ADD DUP3 PUSH2 0xDA2 JUMP JUMPDEST POP PUSH1 0x60 DUP3 ADD MLOAD PUSH2 0xD63 PUSH1 0x60 DUP6 ADD DUP3 PUSH2 0xBCB JUMP JUMPDEST POP PUSH1 0x80 DUP3 ADD MLOAD PUSH2 0xD76 PUSH1 0x80 DUP6 ADD DUP3 PUSH2 0xBCB JUMP JUMPDEST POP PUSH1 0xA0 DUP3 ADD MLOAD PUSH2 0xD89 PUSH1 0xA0 DUP6 ADD DUP3 PUSH2 0xBCB JUMP JUMPDEST POP PUSH1 0xC0 DUP3 ADD MLOAD PUSH2 0xD9C PUSH1 0xC0 DUP6 ADD DUP3 PUSH2 0xC56 JUMP JUMPDEST POP POP POP POP JUMP JUMPDEST PUSH2 0xDAB DUP2 PUSH2 0xFDC JUMP JUMPDEST DUP3 MSTORE POP POP JUMP JUMPDEST PUSH2 0xDBA DUP2 PUSH2 0xFDC JUMP JUMPDEST DUP3 MSTORE POP POP JUMP JUMPDEST PUSH1 0x0 PUSH1 0x60 DUP3 ADD SWAP1 POP PUSH2 0xDD5 PUSH1 0x0 DUP4 ADD DUP7 PUSH2 0xBE9 JUMP JUMPDEST PUSH2 0xDE2 PUSH1 0x20 DUP4 ADD DUP6 PUSH2 0xBBC JUMP JUMPDEST PUSH2 0xDEF PUSH1 0x40 DUP4 ADD DUP5 PUSH2 0xDB1 JUMP JUMPDEST SWAP5 SWAP4 POP POP POP POP JUMP JUMPDEST PUSH1 0x0 PUSH1 0x60 DUP3 ADD SWAP1 POP PUSH2 0xE0C PUSH1 0x0 DUP4 ADD DUP7 PUSH2 0xBE9 JUMP JUMPDEST PUSH2 0xE19 PUSH1 0x20 DUP4 ADD DUP6 PUSH2 0xBE9 JUMP JUMPDEST PUSH2 0xE26 PUSH1 0x40 DUP4 ADD DUP5 PUSH2 0xDB1 JUMP JUMPDEST SWAP5 SWAP4 POP POP POP POP JUMP JUMPDEST PUSH1 0x0 PUSH1 0x60 DUP3 ADD SWAP1 POP PUSH2 0xE43 PUSH1 0x0 DUP4 ADD DUP7 PUSH2 0xBE9 JUMP JUMPDEST PUSH2 0xE50 PUSH1 0x20 DUP4 ADD DUP6 PUSH2 0xDB1 JUMP JUMPDEST PUSH2 0xE5D PUSH1 0x40 DUP4 ADD DUP5 PUSH2 0xDB1 JUMP JUMPDEST SWAP5 SWAP4 POP POP POP POP JUMP JUMPDEST PUSH1 0x0 PUSH1 0x20 DUP3 ADD SWAP1 POP DUP2 DUP2 SUB PUSH1 0x0 DUP4 ADD MSTORE PUSH2 0xE7F DUP2 DUP5 PUSH2 0xBF8 JUMP JUMPDEST SWAP1 POP SWAP3 SWAP2 POP POP JUMP JUMPDEST PUSH1 0x0 PUSH1 0x20 DUP3 ADD SWAP1 POP DUP2 DUP2 SUB PUSH1 0x0 DUP4 ADD MSTORE PUSH2 0xEA0 DUP2 PUSH2 0xC65 JUMP JUMPDEST SWAP1 POP SWAP2 SWAP1 POP JUMP JUMPDEST PUSH1 0x0 PUSH1 0x20 DUP3 ADD SWAP1 POP DUP2 DUP2 SUB PUSH1 0x0 DUP4 ADD MSTORE PUSH2 0xEC0 DUP2 PUSH2 0xC88 JUMP JUMPDEST SWAP1 POP SWAP2 SWAP1 POP JUMP JUMPDEST PUSH1 0x0 PUSH1 0x20 DUP3 ADD SWAP1 POP DUP2 DUP2 SUB PUSH1 0x0 DUP4 ADD MSTORE PUSH2 0xEE0 DUP2 PUSH2 0xCAB JUMP JUMPDEST SWAP1 POP SWAP2 SWAP1 POP JUMP JUMPDEST PUSH1 0x0 PUSH1 0x20 DUP3 ADD SWAP1 POP DUP2 DUP2 SUB PUSH1 0x0 DUP4 ADD MSTORE PUSH2 0xF00 DUP2 PUSH2 0xCCE JUMP JUMPDEST SWAP1 POP SWAP2 SWAP1 POP JUMP JUMPDEST PUSH1 0x0 PUSH1 0x20 DUP3 ADD SWAP1 POP DUP2 DUP2 SUB PUSH1 0x0 DUP4 ADD MSTORE PUSH2 0xF20 DUP2 PUSH2 0xCF1 JUMP JUMPDEST SWAP1 POP SWAP2 SWAP1 POP JUMP JUMPDEST PUSH1 0x0 PUSH1 0x20 DUP3 ADD SWAP1 POP PUSH2 0xF3C PUSH1 0x0 DUP4 ADD DUP5 PUSH2 0xDB1 JUMP JUMPDEST SWAP3 SWAP2 POP POP JUMP JUMPDEST PUSH1 0x0 DUP2 SWAP1 POP PUSH1 0x20 DUP3 ADD SWAP1 POP SWAP2 SWAP1 POP JUMP JUMPDEST PUSH1 0x0 DUP2 MLOAD SWAP1 POP SWAP2 SWAP1 POP JUMP JUMPDEST PUSH1 0x0 PUSH1 0x20 DUP3 ADD SWAP1 POP SWAP2 SWAP1 POP JUMP JUMPDEST PUSH1 0x0 DUP3 DUP3 MSTORE PUSH1 0x20 DUP3 ADD SWAP1 POP SWAP3 SWAP2 POP POP JUMP JUMPDEST PUSH1 0x0 DUP3 DUP3 MSTORE PUSH1 0x20 DUP3 ADD SWAP1 POP SWAP3 SWAP2 POP POP JUMP JUMPDEST PUSH1 0x0 PUSH2 0xF97 DUP3 PUSH2 0xFBC JUMP JUMPDEST SWAP1 POP SWAP2 SWAP1 POP JUMP JUMPDEST PUSH1 0x0 PUSH2 0xFA9 DUP3 PUSH2 0xFBC JUMP JUMPDEST SWAP1 POP SWAP2 SWAP1 POP JUMP JUMPDEST PUSH1 0x0 DUP2 ISZERO ISZERO SWAP1 POP SWAP2 SWAP1 POP JUMP JUMPDEST PUSH1 0x0 PUSH20 0xFFFFFFFFFFFFFFFFFFFFFFFFFFFFFFFFFFFFFFFF DUP3 AND SWAP1 POP SWAP2 SWAP1 POP JUMP JUMPDEST PUSH1 0x0 DUP2 SWAP1 POP SWAP2 SWAP1 POP JUMP JUMPDEST PUSH1 0x0 PUSH2 0xFF1 DUP3 PUSH2 0xFF8 JUMP JUMPDEST SWAP1 POP SWAP2 SWAP1 POP JUMP JUMPDEST PUSH1 0x0 PUSH2 0x1003 DUP3 PUSH2 0x100A JUMP JUMPDEST SWAP1 POP SWAP2 SWAP1 POP JUMP JUMPDEST PUSH1 0x0 PUSH2 0x1015 DUP3 PUSH2 0xFBC JUMP JUMPDEST SWAP1 POP SWAP2 SWAP1 POP JUMP JUMPDEST PUSH32 0x436F756E7465723A2064656372656D656E74206F766572666C6F770000000000 PUSH1 0x0 DUP3 ADD MSTORE POP JUMP JUMPDEST PUSH32 0x4E6F7420656E6F75676820657468657220746F20636F7665722061736B696E67 PUSH1 0x0 DUP3 ADD MSTORE PUSH32 0x2070726963650000000000000000000000000000000000000000000000000000 PUSH1 0x20 DUP3 ADD MSTORE POP JUMP JUMPDEST PUSH32 0x4E6F7420656E6F75676820657468657220666F72206C697374696E6720666565 PUSH1 0x0 DUP3 ADD MSTORE POP JUMP JUMPDEST PUSH32 0x5265656E7472616E637947756172643A207265656E7472616E742063616C6C00 PUSH1 0x0 DUP3 ADD MSTORE POP JUMP JUMPDEST PUSH32 0x5072696365206D757374206265206174206C6561737420312077656900000000 PUSH1 0x0 DUP3 ADD MSTORE POP JUMP JUMPDEST PUSH2 0x1118 DUP2 PUSH2 0xF8C JUMP JUMPDEST DUP2 EQ PUSH2 0x1123 JUMPI PUSH1 0x0 DUP1 REVERT JUMPDEST POP JUMP JUMPDEST PUSH2 0x112F DUP2 PUSH2 0xFDC JUMP JUMPDEST DUP2 EQ PUSH2 0x113A JUMPI PUSH1 0x0 DUP1 REVERT JUMPDEST POP JUMP INVALID LOG2 PUSH5 0x6970667358 0x22 SLT KECCAK256 MOD SAR 0xA5 0xF7 SHL PC PUSH32 0xD52CB4A1DE022ADDF562C6C09F780FBDE1C3C6F5609A30ABE564736F6C634300 ADDMOD ADD STOP CALLER "
				},
				"gasEstimates": {
					"creation": {
						"codeDepositCost": "893400",
						"executionCost": "61815",
						"totalCost": "955215"
					},
					"external": {
						"LISTING_FEE()": "1129",
						"buyNft(address,uint256)": "infinite",
						"getListingFee()": "1225",
						"getMyOwnedNfts()": "infinite",
						"listNFT(address,uint256,uint256)": "infinite",
						"resellNFT(address,uint256,uint256)": "infinite"
					}
				},
				"methodIdentifiers": {
					"LISTING_FEE()": "2b86ae38",
					"buyNft(address,uint256)": "4ddf4f8f",
					"getListingFee()": "b8fe6abe",
					"getMyOwnedNfts()": "a46b5c5a",
					"listNFT(address,uint256,uint256)": "ad05f1b4",
					"resellNFT(address,uint256,uint256)": "04935694"
				}
			},
			"storageLayout": {
				"storage": [
					{
						"astId": 459,
						"contract": "contracts/GeekNftMarketPlace.sol:GeekNftMarketPlace",
						"label": "_status",
						"offset": 0,
						"slot": "0",
						"type": "t_uint256"
					},
					{
						"astId": 96,
						"contract": "contracts/GeekNftMarketPlace.sol:GeekNftMarketPlace",
						"label": "_nftsSold",
						"offset": 0,
						"slot": "1",
						"type": "t_struct(Counter)5_storage"
					},
					{
						"astId": 99,
						"contract": "contracts/GeekNftMarketPlace.sol:GeekNftMarketPlace",
						"label": "_nftsCount",
						"offset": 0,
						"slot": "2",
						"type": "t_struct(Counter)5_storage"
					},
					{
						"astId": 102,
						"contract": "contracts/GeekNftMarketPlace.sol:GeekNftMarketPlace",
						"label": "LISTING_FEE",
						"offset": 0,
						"slot": "3",
						"type": "t_uint256"
					},
					{
						"astId": 104,
						"contract": "contracts/GeekNftMarketPlace.sol:GeekNftMarketPlace",
						"label": "_marketOwwner",
						"offset": 0,
						"slot": "4",
						"type": "t_address_payable"
					},
					{
						"astId": 109,
						"contract": "contracts/GeekNftMarketPlace.sol:GeekNftMarketPlace",
						"label": "_idToNft",
						"offset": 0,
						"slot": "5",
						"type": "t_mapping(t_uint256,t_struct(NFT)124_storage)"
					}
				],
				"types": {
					"t_address": {
						"encoding": "inplace",
						"label": "address",
						"numberOfBytes": "20"
					},
					"t_address_payable": {
						"encoding": "inplace",
						"label": "address payable",
						"numberOfBytes": "20"
					},
					"t_bool": {
						"encoding": "inplace",
						"label": "bool",
						"numberOfBytes": "1"
					},
					"t_mapping(t_uint256,t_struct(NFT)124_storage)": {
						"encoding": "mapping",
						"key": "t_uint256",
						"label": "mapping(uint256 => struct GeekNftMarketPlace.NFT)",
						"numberOfBytes": "32",
						"value": "t_struct(NFT)124_storage"
					},
					"t_struct(Counter)5_storage": {
						"encoding": "inplace",
						"label": "struct Counters.Counter",
						"members": [
							{
								"astId": 4,
								"contract": "contracts/GeekNftMarketPlace.sol:GeekNftMarketPlace",
								"label": "_value",
								"offset": 0,
								"slot": "0",
								"type": "t_uint256"
							}
						],
						"numberOfBytes": "32"
					},
					"t_struct(NFT)124_storage": {
						"encoding": "inplace",
						"label": "struct GeekNftMarketPlace.NFT",
						"members": [
							{
								"astId": 111,
								"contract": "contracts/GeekNftMarketPlace.sol:GeekNftMarketPlace",
								"label": "nftContract",
								"offset": 0,
								"slot": "0",
								"type": "t_address"
							},
							{
								"astId": 113,
								"contract": "contracts/GeekNftMarketPlace.sol:GeekNftMarketPlace",
								"label": "tokenId",
								"offset": 0,
								"slot": "1",
								"type": "t_uint256"
							},
							{
								"astId": 115,
								"contract": "contracts/GeekNftMarketPlace.sol:GeekNftMarketPlace",
								"label": "price",
								"offset": 0,
								"slot": "2",
								"type": "t_uint256"
							},
							{
								"astId": 117,
								"contract": "contracts/GeekNftMarketPlace.sol:GeekNftMarketPlace",
								"label": "seller",
								"offset": 0,
								"slot": "3",
								"type": "t_address_payable"
							},
							{
								"astId": 119,
								"contract": "contracts/GeekNftMarketPlace.sol:GeekNftMarketPlace",
								"label": "owner",
								"offset": 0,
								"slot": "4",
								"type": "t_address_payable"
							},
							{
								"astId": 121,
								"contract": "contracts/GeekNftMarketPlace.sol:GeekNftMarketPlace",
								"label": "creator",
								"offset": 0,
								"slot": "5",
								"type": "t_address_payable"
							},
							{
								"astId": 123,
								"contract": "contracts/GeekNftMarketPlace.sol:GeekNftMarketPlace",
								"label": "listed",
								"offset": 20,
								"slot": "5",
								"type": "t_bool"
							}
						],
						"numberOfBytes": "192"
					},
					"t_uint256": {
						"encoding": "inplace",
						"label": "uint256",
						"numberOfBytes": "32"
					}
				}
			},
			"userdoc": {
				"kind": "user",
				"methods": {},
				"version": 1
			}
		}
	}
}