{
	"contracts/GeekNft.sol": {
		"GeekNft": {
			"abi": [
				{
					"inputs": [
						{
							"internalType": "uint256",
							"name": "",
							"type": "uint256"
						}
					],
					"name": "items",
					"outputs": [
						{
							"internalType": "uint256",
							"name": "tokenId",
							"type": "uint256"
						},
						{
							"internalType": "uint256",
							"name": "price",
							"type": "uint256"
						},
						{
							"internalType": "string",
							"name": "catId",
							"type": "string"
						},
						{
							"internalType": "bool",
							"name": "toSell",
							"type": "bool"
						},
						{
							"internalType": "address",
							"name": "owner",
							"type": "address"
						}
					],
					"stateMutability": "view",
					"type": "function"
				},
				{
					"inputs": [],
					"name": "itemsToSellCount",
					"outputs": [
						{
							"internalType": "uint256",
							"name": "",
							"type": "uint256"
						}
					],
					"stateMutability": "view",
					"type": "function"
				}
			],
			"devdoc": {
				"kind": "dev",
				"methods": {},
				"version": 1
			},
			"evm": {
				"assembly": "    /* \"contracts/GeekNft.sol\":56:291  contract GeekNft {... */\n  mstore(0x40, 0x80)\n  callvalue\n  dup1\n  iszero\n  tag_1\n  jumpi\n  0x00\n  dup1\n  revert\ntag_1:\n  pop\n  dataSize(sub_0)\n  dup1\n  dataOffset(sub_0)\n  0x00\n  codecopy\n  0x00\n  return\nstop\n\nsub_0: assembly {\n        /* \"contracts/GeekNft.sol\":56:291  contract GeekNft {... */\n      mstore(0x40, 0x80)\n      callvalue\n      dup1\n      iszero\n      tag_1\n      jumpi\n      0x00\n      dup1\n      revert\n    tag_1:\n      pop\n      jumpi(tag_2, lt(calldatasize, 0x04))\n      shr(0xe0, calldataload(0x00))\n      dup1\n      0x4c389e65\n      eq\n      tag_3\n      jumpi\n      dup1\n      0xbfb231d2\n      eq\n      tag_4\n      jumpi\n    tag_2:\n      0x00\n      dup1\n      revert\n        /* \"contracts/GeekNft.sol\":254:282  uint public itemsToSellCount */\n    tag_3:\n      tag_5\n      tag_6\n      jump\t// in\n    tag_5:\n      mload(0x40)\n      tag_7\n      swap2\n      swap1\n      tag_8\n      jump\t// in\n    tag_7:\n      mload(0x40)\n      dup1\n      swap2\n      sub\n      swap1\n      return\n        /* \"contracts/GeekNft.sol\":229:248  Item[] public items */\n    tag_4:\n      tag_9\n      0x04\n      dup1\n      calldatasize\n      sub\n      dup2\n      add\n      swap1\n      tag_10\n      swap2\n      swap1\n      tag_11\n      jump\t// in\n    tag_10:\n      tag_12\n      jump\t// in\n    tag_9:\n      mload(0x40)\n      tag_13\n      swap6\n      swap5\n      swap4\n      swap3\n      swap2\n      swap1\n      tag_14\n      jump\t// in\n    tag_13:\n      mload(0x40)\n      dup1\n      swap2\n      sub\n      swap1\n      return\n        /* \"contracts/GeekNft.sol\":254:282  uint public itemsToSellCount */\n    tag_6:\n      sload(0x02)\n      dup2\n      jump\t// out\n        /* \"contracts/GeekNft.sol\":229:248  Item[] public items */\n    tag_12:\n      0x01\n      dup2\n      dup2\n      sload\n      dup2\n      lt\n      tag_15\n      jumpi\n      0x00\n      dup1\n      revert\n    tag_15:\n      swap1\n      0x00\n      mstore\n      keccak256(0x00, 0x20)\n      swap1\n      0x04\n      mul\n      add\n      0x00\n      swap2\n      pop\n      swap1\n      pop\n      dup1\n      0x00\n      add\n      sload\n      swap1\n      dup1\n      0x01\n      add\n      sload\n      swap1\n      dup1\n      0x02\n      add\n      dup1\n      sload\n      tag_17\n      swap1\n      tag_18\n      jump\t// in\n    tag_17:\n      dup1\n      0x1f\n      add\n      0x20\n      dup1\n      swap2\n      div\n      mul\n      0x20\n      add\n      mload(0x40)\n      swap1\n      dup2\n      add\n      0x40\n      mstore\n      dup1\n      swap3\n      swap2\n      swap1\n      dup2\n      dup2\n      mstore\n      0x20\n      add\n      dup3\n      dup1\n      sload\n      tag_19\n      swap1\n      tag_18\n      jump\t// in\n    tag_19:\n      dup1\n      iszero\n      tag_20\n      jumpi\n      dup1\n      0x1f\n      lt\n      tag_21\n      jumpi\n      0x0100\n      dup1\n      dup4\n      sload\n      div\n      mul\n      dup4\n      mstore\n      swap2\n      0x20\n      add\n      swap2\n      jump(tag_20)\n    tag_21:\n      dup3\n      add\n      swap2\n      swap1\n      0x00\n      mstore\n      keccak256(0x00, 0x20)\n      swap1\n    tag_22:\n      dup2\n      sload\n      dup2\n      mstore\n      swap1\n      0x01\n      add\n      swap1\n      0x20\n      add\n      dup1\n      dup4\n      gt\n      tag_22\n      jumpi\n      dup3\n      swap1\n      sub\n      0x1f\n      and\n      dup3\n      add\n      swap2\n    tag_20:\n      pop\n      pop\n      pop\n      pop\n      pop\n      swap1\n      dup1\n      0x03\n      add\n      0x00\n      swap1\n      sload\n      swap1\n      0x0100\n      exp\n      swap1\n      div\n      0xff\n      and\n      swap1\n      dup1\n      0x03\n      add\n      0x01\n      swap1\n      sload\n      swap1\n      0x0100\n      exp\n      swap1\n      div\n      0xffffffffffffffffffffffffffffffffffffffff\n      and\n      swap1\n      pop\n      dup6\n      jump\t// out\n        /* \"#utility.yul\":7:146   */\n    tag_24:\n      0x00\n        /* \"#utility.yul\":91:97   */\n      dup2\n        /* \"#utility.yul\":78:98   */\n      calldataload\n        /* \"#utility.yul\":69:98   */\n      swap1\n      pop\n        /* \"#utility.yul\":107:140   */\n      tag_26\n        /* \"#utility.yul\":134:139   */\n      dup2\n        /* \"#utility.yul\":107:140   */\n      tag_27\n      jump\t// in\n    tag_26:\n        /* \"#utility.yul\":59:146   */\n      swap3\n      swap2\n      pop\n      pop\n      jump\t// out\n        /* \"#utility.yul\":152:414   */\n    tag_11:\n      0x00\n        /* \"#utility.yul\":260:262   */\n      0x20\n        /* \"#utility.yul\":248:257   */\n      dup3\n        /* \"#utility.yul\":239:246   */\n      dup5\n        /* \"#utility.yul\":235:258   */\n      sub\n        /* \"#utility.yul\":231:263   */\n      slt\n        /* \"#utility.yul\":228:230   */\n      iszero\n      tag_29\n      jumpi\n        /* \"#utility.yul\":276:277   */\n      0x00\n        /* \"#utility.yul\":273:274   */\n      dup1\n        /* \"#utility.yul\":266:278   */\n      revert\n        /* \"#utility.yul\":228:230   */\n    tag_29:\n        /* \"#utility.yul\":319:320   */\n      0x00\n        /* \"#utility.yul\":344:397   */\n      tag_30\n        /* \"#utility.yul\":389:396   */\n      dup5\n        /* \"#utility.yul\":380:386   */\n      dup3\n        /* \"#utility.yul\":369:378   */\n      dup6\n        /* \"#utility.yul\":365:387   */\n      add\n        /* \"#utility.yul\":344:397   */\n      tag_24\n      jump\t// in\n    tag_30:\n        /* \"#utility.yul\":334:397   */\n      swap2\n      pop\n        /* \"#utility.yul\":290:407   */\n      pop\n        /* \"#utility.yul\":218:414   */\n      swap3\n      swap2\n      pop\n      pop\n      jump\t// out\n        /* \"#utility.yul\":420:538   */\n    tag_31:\n        /* \"#utility.yul\":507:531   */\n      tag_33\n        /* \"#utility.yul\":525:530   */\n      dup2\n        /* \"#utility.yul\":507:531   */\n      tag_34\n      jump\t// in\n    tag_33:\n        /* \"#utility.yul\":502:505   */\n      dup3\n        /* \"#utility.yul\":495:532   */\n      mstore\n        /* \"#utility.yul\":485:538   */\n      pop\n      pop\n      jump\t// out\n        /* \"#utility.yul\":544:653   */\n    tag_35:\n        /* \"#utility.yul\":625:646   */\n      tag_37\n        /* \"#utility.yul\":640:645   */\n      dup2\n        /* \"#utility.yul\":625:646   */\n      tag_38\n      jump\t// in\n    tag_37:\n        /* \"#utility.yul\":620:623   */\n      dup3\n        /* \"#utility.yul\":613:647   */\n      mstore\n        /* \"#utility.yul\":603:653   */\n      pop\n      pop\n      jump\t// out\n        /* \"#utility.yul\":659:1023   */\n    tag_39:\n      0x00\n        /* \"#utility.yul\":775:814   */\n      tag_41\n        /* \"#utility.yul\":808:813   */\n      dup3\n        /* \"#utility.yul\":775:814   */\n      tag_42\n      jump\t// in\n    tag_41:\n        /* \"#utility.yul\":830:901   */\n      tag_43\n        /* \"#utility.yul\":894:900   */\n      dup2\n        /* \"#utility.yul\":889:892   */\n      dup6\n        /* \"#utility.yul\":830:901   */\n      tag_44\n      jump\t// in\n    tag_43:\n        /* \"#utility.yul\":823:901   */\n      swap4\n      pop\n        /* \"#utility.yul\":910:962   */\n      tag_45\n        /* \"#utility.yul\":955:961   */\n      dup2\n        /* \"#utility.yul\":950:953   */\n      dup6\n        /* \"#utility.yul\":943:947   */\n      0x20\n        /* \"#utility.yul\":936:941   */\n      dup7\n        /* \"#utility.yul\":932:948   */\n      add\n        /* \"#utility.yul\":910:962   */\n      tag_46\n      jump\t// in\n    tag_45:\n        /* \"#utility.yul\":987:1016   */\n      tag_47\n        /* \"#utility.yul\":1009:1015   */\n      dup2\n        /* \"#utility.yul\":987:1016   */\n      tag_48\n      jump\t// in\n    tag_47:\n        /* \"#utility.yul\":982:985   */\n      dup5\n        /* \"#utility.yul\":978:1017   */\n      add\n        /* \"#utility.yul\":971:1017   */\n      swap2\n      pop\n        /* \"#utility.yul\":751:1023   */\n      pop\n      swap3\n      swap2\n      pop\n      pop\n      jump\t// out\n        /* \"#utility.yul\":1029:1147   */\n    tag_49:\n        /* \"#utility.yul\":1116:1140   */\n      tag_51\n        /* \"#utility.yul\":1134:1139   */\n      dup2\n        /* \"#utility.yul\":1116:1140   */\n      tag_52\n      jump\t// in\n    tag_51:\n        /* \"#utility.yul\":1111:1114   */\n      dup3\n        /* \"#utility.yul\":1104:1141   */\n      mstore\n        /* \"#utility.yul\":1094:1147   */\n      pop\n      pop\n      jump\t// out\n        /* \"#utility.yul\":1153:1375   */\n    tag_8:\n      0x00\n        /* \"#utility.yul\":1284:1286   */\n      0x20\n        /* \"#utility.yul\":1273:1282   */\n      dup3\n        /* \"#utility.yul\":1269:1287   */\n      add\n        /* \"#utility.yul\":1261:1287   */\n      swap1\n      pop\n        /* \"#utility.yul\":1297:1368   */\n      tag_54\n        /* \"#utility.yul\":1365:1366   */\n      0x00\n        /* \"#utility.yul\":1354:1363   */\n      dup4\n        /* \"#utility.yul\":1350:1367   */\n      add\n        /* \"#utility.yul\":1341:1347   */\n      dup5\n        /* \"#utility.yul\":1297:1368   */\n      tag_49\n      jump\t// in\n    tag_54:\n        /* \"#utility.yul\":1251:1375   */\n      swap3\n      swap2\n      pop\n      pop\n      jump\t// out\n        /* \"#utility.yul\":1381:2124   */\n    tag_14:\n      0x00\n        /* \"#utility.yul\":1638:1641   */\n      0xa0\n        /* \"#utility.yul\":1627:1636   */\n      dup3\n        /* \"#utility.yul\":1623:1642   */\n      add\n        /* \"#utility.yul\":1615:1642   */\n      swap1\n      pop\n        /* \"#utility.yul\":1652:1723   */\n      tag_56\n        /* \"#utility.yul\":1720:1721   */\n      0x00\n        /* \"#utility.yul\":1709:1718   */\n      dup4\n        /* \"#utility.yul\":1705:1722   */\n      add\n        /* \"#utility.yul\":1696:1702   */\n      dup9\n        /* \"#utility.yul\":1652:1723   */\n      tag_49\n      jump\t// in\n    tag_56:\n        /* \"#utility.yul\":1733:1805   */\n      tag_57\n        /* \"#utility.yul\":1801:1803   */\n      0x20\n        /* \"#utility.yul\":1790:1799   */\n      dup4\n        /* \"#utility.yul\":1786:1804   */\n      add\n        /* \"#utility.yul\":1777:1783   */\n      dup8\n        /* \"#utility.yul\":1733:1805   */\n      tag_49\n      jump\t// in\n    tag_57:\n        /* \"#utility.yul\":1852:1861   */\n      dup2\n        /* \"#utility.yul\":1846:1850   */\n      dup2\n        /* \"#utility.yul\":1842:1862   */\n      sub\n        /* \"#utility.yul\":1837:1839   */\n      0x40\n        /* \"#utility.yul\":1826:1835   */\n      dup4\n        /* \"#utility.yul\":1822:1840   */\n      add\n        /* \"#utility.yul\":1815:1863   */\n      mstore\n        /* \"#utility.yul\":1880:1958   */\n      tag_58\n        /* \"#utility.yul\":1953:1957   */\n      dup2\n        /* \"#utility.yul\":1944:1950   */\n      dup7\n        /* \"#utility.yul\":1880:1958   */\n      tag_39\n      jump\t// in\n    tag_58:\n        /* \"#utility.yul\":1872:1958   */\n      swap1\n      pop\n        /* \"#utility.yul\":1968:2034   */\n      tag_59\n        /* \"#utility.yul\":2030:2032   */\n      0x60\n        /* \"#utility.yul\":2019:2028   */\n      dup4\n        /* \"#utility.yul\":2015:2033   */\n      add\n        /* \"#utility.yul\":2006:2012   */\n      dup6\n        /* \"#utility.yul\":1968:2034   */\n      tag_35\n      jump\t// in\n    tag_59:\n        /* \"#utility.yul\":2044:2117   */\n      tag_60\n        /* \"#utility.yul\":2112:2115   */\n      0x80\n        /* \"#utility.yul\":2101:2110   */\n      dup4\n        /* \"#utility.yul\":2097:2116   */\n      add\n        /* \"#utility.yul\":2088:2094   */\n      dup5\n        /* \"#utility.yul\":2044:2117   */\n      tag_31\n      jump\t// in\n    tag_60:\n        /* \"#utility.yul\":1605:2124   */\n      swap7\n      swap6\n      pop\n      pop\n      pop\n      pop\n      pop\n      pop\n      jump\t// out\n        /* \"#utility.yul\":2130:2229   */\n    tag_42:\n      0x00\n        /* \"#utility.yul\":2216:2221   */\n      dup2\n        /* \"#utility.yul\":2210:2222   */\n      mload\n        /* \"#utility.yul\":2200:2222   */\n      swap1\n      pop\n        /* \"#utility.yul\":2189:2229   */\n      swap2\n      swap1\n      pop\n      jump\t// out\n        /* \"#utility.yul\":2235:2404   */\n    tag_44:\n      0x00\n        /* \"#utility.yul\":2353:2359   */\n      dup3\n        /* \"#utility.yul\":2348:2351   */\n      dup3\n        /* \"#utility.yul\":2341:2360   */\n      mstore\n        /* \"#utility.yul\":2393:2397   */\n      0x20\n        /* \"#utility.yul\":2388:2391   */\n      dup3\n        /* \"#utility.yul\":2384:2398   */\n      add\n        /* \"#utility.yul\":2369:2398   */\n      swap1\n      pop\n        /* \"#utility.yul\":2331:2404   */\n      swap3\n      swap2\n      pop\n      pop\n      jump\t// out\n        /* \"#utility.yul\":2410:2506   */\n    tag_34:\n      0x00\n        /* \"#utility.yul\":2476:2500   */\n      tag_64\n        /* \"#utility.yul\":2494:2499   */\n      dup3\n        /* \"#utility.yul\":2476:2500   */\n      tag_65\n      jump\t// in\n    tag_64:\n        /* \"#utility.yul\":2465:2500   */\n      swap1\n      pop\n        /* \"#utility.yul\":2455:2506   */\n      swap2\n      swap1\n      pop\n      jump\t// out\n        /* \"#utility.yul\":2512:2602   */\n    tag_38:\n      0x00\n        /* \"#utility.yul\":2589:2594   */\n      dup2\n        /* \"#utility.yul\":2582:2595   */\n      iszero\n        /* \"#utility.yul\":2575:2596   */\n      iszero\n        /* \"#utility.yul\":2564:2596   */\n      swap1\n      pop\n        /* \"#utility.yul\":2554:2602   */\n      swap2\n      swap1\n      pop\n      jump\t// out\n        /* \"#utility.yul\":2608:2734   */\n    tag_65:\n      0x00\n        /* \"#utility.yul\":2685:2727   */\n      0xffffffffffffffffffffffffffffffffffffffff\n        /* \"#utility.yul\":2678:2683   */\n      dup3\n        /* \"#utility.yul\":2674:2728   */\n      and\n        /* \"#utility.yul\":2663:2728   */\n      swap1\n      pop\n        /* \"#utility.yul\":2653:2734   */\n      swap2\n      swap1\n      pop\n      jump\t// out\n        /* \"#utility.yul\":2740:2817   */\n    tag_52:\n      0x00\n        /* \"#utility.yul\":2806:2811   */\n      dup2\n        /* \"#utility.yul\":2795:2811   */\n      swap1\n      pop\n        /* \"#utility.yul\":2785:2817   */\n      swap2\n      swap1\n      pop\n      jump\t// out\n        /* \"#utility.yul\":2823:3130   */\n    tag_46:\n        /* \"#utility.yul\":2891:2892   */\n      0x00\n        /* \"#utility.yul\":2901:3014   */\n    tag_70:\n        /* \"#utility.yul\":2915:2921   */\n      dup4\n        /* \"#utility.yul\":2912:2913   */\n      dup2\n        /* \"#utility.yul\":2909:2922   */\n      lt\n        /* \"#utility.yul\":2901:3014   */\n      iszero\n      tag_72\n      jumpi\n        /* \"#utility.yul\":3000:3001   */\n      dup1\n        /* \"#utility.yul\":2995:2998   */\n      dup3\n        /* \"#utility.yul\":2991:3002   */\n      add\n        /* \"#utility.yul\":2985:3003   */\n      mload\n        /* \"#utility.yul\":2981:2982   */\n      dup2\n        /* \"#utility.yul\":2976:2979   */\n      dup5\n        /* \"#utility.yul\":2972:2983   */\n      add\n        /* \"#utility.yul\":2965:3004   */\n      mstore\n        /* \"#utility.yul\":2937:2939   */\n      0x20\n        /* \"#utility.yul\":2934:2935   */\n      dup2\n        /* \"#utility.yul\":2930:2940   */\n      add\n        /* \"#utility.yul\":2925:2940   */\n      swap1\n      pop\n        /* \"#utility.yul\":2901:3014   */\n      jump(tag_70)\n    tag_72:\n        /* \"#utility.yul\":3032:3038   */\n      dup4\n        /* \"#utility.yul\":3029:3030   */\n      dup2\n        /* \"#utility.yul\":3026:3039   */\n      gt\n        /* \"#utility.yul\":3023:3025   */\n      iszero\n      tag_73\n      jumpi\n        /* \"#utility.yul\":3112:3113   */\n      0x00\n        /* \"#utility.yul\":3103:3109   */\n      dup5\n        /* \"#utility.yul\":3098:3101   */\n      dup5\n        /* \"#utility.yul\":3094:3110   */\n      add\n        /* \"#utility.yul\":3087:3114   */\n      mstore\n        /* \"#utility.yul\":3023:3025   */\n    tag_73:\n        /* \"#utility.yul\":2872:3130   */\n      pop\n      pop\n      pop\n      pop\n      jump\t// out\n        /* \"#utility.yul\":3136:3456   */\n    tag_18:\n      0x00\n        /* \"#utility.yul\":3217:3218   */\n      0x02\n        /* \"#utility.yul\":3211:3215   */\n      dup3\n        /* \"#utility.yul\":3207:3219   */\n      div\n        /* \"#utility.yul\":3197:3219   */\n      swap1\n      pop\n        /* \"#utility.yul\":3264:3265   */\n      0x01\n        /* \"#utility.yul\":3258:3262   */\n      dup3\n        /* \"#utility.yul\":3254:3266   */\n      and\n        /* \"#utility.yul\":3285:3303   */\n      dup1\n        /* \"#utility.yul\":3275:3277   */\n      tag_75\n      jumpi\n        /* \"#utility.yul\":3341:3345   */\n      0x7f\n        /* \"#utility.yul\":3333:3339   */\n      dup3\n        /* \"#utility.yul\":3329:3346   */\n      and\n        /* \"#utility.yul\":3319:3346   */\n      swap2\n      pop\n        /* \"#utility.yul\":3275:3277   */\n    tag_75:\n        /* \"#utility.yul\":3403:3405   */\n      0x20\n        /* \"#utility.yul\":3395:3401   */\n      dup3\n        /* \"#utility.yul\":3392:3406   */\n      lt\n        /* \"#utility.yul\":3372:3390   */\n      dup2\n        /* \"#utility.yul\":3369:3407   */\n      eq\n        /* \"#utility.yul\":3366:3368   */\n      iszero\n      tag_76\n      jumpi\n        /* \"#utility.yul\":3422:3440   */\n      tag_77\n      tag_78\n      jump\t// in\n    tag_77:\n        /* \"#utility.yul\":3366:3368   */\n    tag_76:\n        /* \"#utility.yul\":3187:3456   */\n      pop\n      swap2\n      swap1\n      pop\n      jump\t// out\n        /* \"#utility.yul\":3462:3642   */\n    tag_78:\n        /* \"#utility.yul\":3510:3587   */\n      0x4e487b7100000000000000000000000000000000000000000000000000000000\n        /* \"#utility.yul\":3507:3508   */\n      0x00\n        /* \"#utility.yul\":3500:3588   */\n      mstore\n        /* \"#utility.yul\":3607:3611   */\n      0x22\n        /* \"#utility.yul\":3604:3605   */\n      0x04\n        /* \"#utility.yul\":3597:3612   */\n      mstore\n        /* \"#utility.yul\":3631:3635   */\n      0x24\n        /* \"#utility.yul\":3628:3629   */\n      0x00\n        /* \"#utility.yul\":3621:3636   */\n      revert\n        /* \"#utility.yul\":3648:3750   */\n    tag_48:\n      0x00\n        /* \"#utility.yul\":3740:3742   */\n      0x1f\n        /* \"#utility.yul\":3736:3743   */\n      not\n        /* \"#utility.yul\":3731:3733   */\n      0x1f\n        /* \"#utility.yul\":3724:3729   */\n      dup4\n        /* \"#utility.yul\":3720:3734   */\n      add\n        /* \"#utility.yul\":3716:3744   */\n      and\n        /* \"#utility.yul\":3706:3744   */\n      swap1\n      pop\n        /* \"#utility.yul\":3696:3750   */\n      swap2\n      swap1\n      pop\n      jump\t// out\n        /* \"#utility.yul\":3756:3878   */\n    tag_27:\n        /* \"#utility.yul\":3829:3853   */\n      tag_82\n        /* \"#utility.yul\":3847:3852   */\n      dup2\n        /* \"#utility.yul\":3829:3853   */\n      tag_52\n      jump\t// in\n    tag_82:\n        /* \"#utility.yul\":3822:3827   */\n      dup2\n        /* \"#utility.yul\":3819:3854   */\n      eq\n        /* \"#utility.yul\":3809:3811   */\n      tag_83\n      jumpi\n        /* \"#utility.yul\":3868:3869   */\n      0x00\n        /* \"#utility.yul\":3865:3866   */\n      dup1\n        /* \"#utility.yul\":3858:3870   */\n      revert\n        /* \"#utility.yul\":3809:3811   */\n    tag_83:\n        /* \"#utility.yul\":3799:3878   */\n      pop\n      jump\t// out\n\n    auxdata: 0xa2646970667358221220c745cb2e638f7901666d6a9b99448d03c26e210a136abebad323e4822c1fe34d64736f6c63430008000033\n}\n",
				"bytecode": {
					"linkReferences": {},
					"object": "608060405234801561001057600080fd5b506103fd806100206000396000f3fe608060405234801561001057600080fd5b50600436106100365760003560e01c80634c389e651461003b578063bfb231d214610059575b600080fd5b61004361008d565b6040516100509190610232565b60405180910390f35b610073600480360381019061006e91906101a3565b610093565b60405161008495949392919061024d565b60405180910390f35b60025481565b600181815481106100a357600080fd5b90600052602060002090600402016000915090508060000154908060010154908060020180546100d29061033e565b80601f01602080910402602001604051908101604052809291908181526020018280546100fe9061033e565b801561014b5780601f106101205761010080835404028352916020019161014b565b820191906000526020600020905b81548152906001019060200180831161012e57829003601f168201915b5050505050908060030160009054906101000a900460ff16908060030160019054906101000a900473ffffffffffffffffffffffffffffffffffffffff16905085565b60008135905061019d816103b0565b92915050565b6000602082840312156101b557600080fd5b60006101c38482850161018e565b91505092915050565b6101d5816102c3565b82525050565b6101e4816102d5565b82525050565b60006101f5826102a7565b6101ff81856102b2565b935061020f81856020860161030b565b6102188161039f565b840191505092915050565b61022c81610301565b82525050565b60006020820190506102476000830184610223565b92915050565b600060a0820190506102626000830188610223565b61026f6020830187610223565b818103604083015261028181866101ea565b905061029060608301856101db565b61029d60808301846101cc565b9695505050505050565b600081519050919050565b600082825260208201905092915050565b60006102ce826102e1565b9050919050565b60008115159050919050565b600073ffffffffffffffffffffffffffffffffffffffff82169050919050565b6000819050919050565b60005b8381101561032957808201518184015260208101905061030e565b83811115610338576000848401525b50505050565b6000600282049050600182168061035657607f821691505b6020821081141561036a57610369610370565b5b50919050565b7f4e487b7100000000000000000000000000000000000000000000000000000000600052602260045260246000fd5b6000601f19601f8301169050919050565b6103b981610301565b81146103c457600080fd5b5056fea2646970667358221220c745cb2e638f7901666d6a9b99448d03c26e210a136abebad323e4822c1fe34d64736f6c63430008000033",
					"opcodes": "PUSH1 0x80 PUSH1 0x40 MSTORE CALLVALUE DUP1 ISZERO PUSH2 0x10 JUMPI PUSH1 0x0 DUP1 REVERT JUMPDEST POP PUSH2 0x3FD DUP1 PUSH2 0x20 PUSH1 0x0 CODECOPY PUSH1 0x0 RETURN INVALID PUSH1 0x80 PUSH1 0x40 MSTORE CALLVALUE DUP1 ISZERO PUSH2 0x10 JUMPI PUSH1 0x0 DUP1 REVERT JUMPDEST POP PUSH1 0x4 CALLDATASIZE LT PUSH2 0x36 JUMPI PUSH1 0x0 CALLDATALOAD PUSH1 0xE0 SHR DUP1 PUSH4 0x4C389E65 EQ PUSH2 0x3B JUMPI DUP1 PUSH4 0xBFB231D2 EQ PUSH2 0x59 JUMPI JUMPDEST PUSH1 0x0 DUP1 REVERT JUMPDEST PUSH2 0x43 PUSH2 0x8D JUMP JUMPDEST PUSH1 0x40 MLOAD PUSH2 0x50 SWAP2 SWAP1 PUSH2 0x232 JUMP JUMPDEST PUSH1 0x40 MLOAD DUP1 SWAP2 SUB SWAP1 RETURN JUMPDEST PUSH2 0x73 PUSH1 0x4 DUP1 CALLDATASIZE SUB DUP2 ADD SWAP1 PUSH2 0x6E SWAP2 SWAP1 PUSH2 0x1A3 JUMP JUMPDEST PUSH2 0x93 JUMP JUMPDEST PUSH1 0x40 MLOAD PUSH2 0x84 SWAP6 SWAP5 SWAP4 SWAP3 SWAP2 SWAP1 PUSH2 0x24D JUMP JUMPDEST PUSH1 0x40 MLOAD DUP1 SWAP2 SUB SWAP1 RETURN JUMPDEST PUSH1 0x2 SLOAD DUP2 JUMP JUMPDEST PUSH1 0x1 DUP2 DUP2 SLOAD DUP2 LT PUSH2 0xA3 JUMPI PUSH1 0x0 DUP1 REVERT JUMPDEST SWAP1 PUSH1 0x0 MSTORE PUSH1 0x20 PUSH1 0x0 KECCAK256 SWAP1 PUSH1 0x4 MUL ADD PUSH1 0x0 SWAP2 POP SWAP1 POP DUP1 PUSH1 0x0 ADD SLOAD SWAP1 DUP1 PUSH1 0x1 ADD SLOAD SWAP1 DUP1 PUSH1 0x2 ADD DUP1 SLOAD PUSH2 0xD2 SWAP1 PUSH2 0x33E JUMP JUMPDEST DUP1 PUSH1 0x1F ADD PUSH1 0x20 DUP1 SWAP2 DIV MUL PUSH1 0x20 ADD PUSH1 0x40 MLOAD SWAP1 DUP2 ADD PUSH1 0x40 MSTORE DUP1 SWAP3 SWAP2 SWAP1 DUP2 DUP2 MSTORE PUSH1 0x20 ADD DUP3 DUP1 SLOAD PUSH2 0xFE SWAP1 PUSH2 0x33E JUMP JUMPDEST DUP1 ISZERO PUSH2 0x14B JUMPI DUP1 PUSH1 0x1F LT PUSH2 0x120 JUMPI PUSH2 0x100 DUP1 DUP4 SLOAD DIV MUL DUP4 MSTORE SWAP2 PUSH1 0x20 ADD SWAP2 PUSH2 0x14B JUMP JUMPDEST DUP3 ADD SWAP2 SWAP1 PUSH1 0x0 MSTORE PUSH1 0x20 PUSH1 0x0 KECCAK256 SWAP1 JUMPDEST DUP2 SLOAD DUP2 MSTORE SWAP1 PUSH1 0x1 ADD SWAP1 PUSH1 0x20 ADD DUP1 DUP4 GT PUSH2 0x12E JUMPI DUP3 SWAP1 SUB PUSH1 0x1F AND DUP3 ADD SWAP2 JUMPDEST POP POP POP POP POP SWAP1 DUP1 PUSH1 0x3 ADD PUSH1 0x0 SWAP1 SLOAD SWAP1 PUSH2 0x100 EXP SWAP1 DIV PUSH1 0xFF AND SWAP1 DUP1 PUSH1 0x3 ADD PUSH1 0x1 SWAP1 SLOAD SWAP1 PUSH2 0x100 EXP SWAP1 DIV PUSH20 0xFFFFFFFFFFFFFFFFFFFFFFFFFFFFFFFFFFFFFFFF AND SWAP1 POP DUP6 JUMP JUMPDEST PUSH1 0x0 DUP2 CALLDATALOAD SWAP1 POP PUSH2 0x19D DUP2 PUSH2 0x3B0 JUMP JUMPDEST SWAP3 SWAP2 POP POP JUMP JUMPDEST PUSH1 0x0 PUSH1 0x20 DUP3 DUP5 SUB SLT ISZERO PUSH2 0x1B5 JUMPI PUSH1 0x0 DUP1 REVERT JUMPDEST PUSH1 0x0 PUSH2 0x1C3 DUP5 DUP3 DUP6 ADD PUSH2 0x18E JUMP JUMPDEST SWAP2 POP POP SWAP3 SWAP2 POP POP JUMP JUMPDEST PUSH2 0x1D5 DUP2 PUSH2 0x2C3 JUMP JUMPDEST DUP3 MSTORE POP POP JUMP JUMPDEST PUSH2 0x1E4 DUP2 PUSH2 0x2D5 JUMP JUMPDEST DUP3 MSTORE POP POP JUMP JUMPDEST PUSH1 0x0 PUSH2 0x1F5 DUP3 PUSH2 0x2A7 JUMP JUMPDEST PUSH2 0x1FF DUP2 DUP6 PUSH2 0x2B2 JUMP JUMPDEST SWAP4 POP PUSH2 0x20F DUP2 DUP6 PUSH1 0x20 DUP7 ADD PUSH2 0x30B JUMP JUMPDEST PUSH2 0x218 DUP2 PUSH2 0x39F JUMP JUMPDEST DUP5 ADD SWAP2 POP POP SWAP3 SWAP2 POP POP JUMP JUMPDEST PUSH2 0x22C DUP2 PUSH2 0x301 JUMP JUMPDEST DUP3 MSTORE POP POP JUMP JUMPDEST PUSH1 0x0 PUSH1 0x20 DUP3 ADD SWAP1 POP PUSH2 0x247 PUSH1 0x0 DUP4 ADD DUP5 PUSH2 0x223 JUMP JUMPDEST SWAP3 SWAP2 POP POP JUMP JUMPDEST PUSH1 0x0 PUSH1 0xA0 DUP3 ADD SWAP1 POP PUSH2 0x262 PUSH1 0x0 DUP4 ADD DUP9 PUSH2 0x223 JUMP JUMPDEST PUSH2 0x26F PUSH1 0x20 DUP4 ADD DUP8 PUSH2 0x223 JUMP JUMPDEST DUP2 DUP2 SUB PUSH1 0x40 DUP4 ADD MSTORE PUSH2 0x281 DUP2 DUP7 PUSH2 0x1EA JUMP JUMPDEST SWAP1 POP PUSH2 0x290 PUSH1 0x60 DUP4 ADD DUP6 PUSH2 0x1DB JUMP JUMPDEST PUSH2 0x29D PUSH1 0x80 DUP4 ADD DUP5 PUSH2 0x1CC JUMP JUMPDEST SWAP7 SWAP6 POP POP POP POP POP POP JUMP JUMPDEST PUSH1 0x0 DUP2 MLOAD SWAP1 POP SWAP2 SWAP1 POP JUMP JUMPDEST PUSH1 0x0 DUP3 DUP3 MSTORE PUSH1 0x20 DUP3 ADD SWAP1 POP SWAP3 SWAP2 POP POP JUMP JUMPDEST PUSH1 0x0 PUSH2 0x2CE DUP3 PUSH2 0x2E1 JUMP JUMPDEST SWAP1 POP SWAP2 SWAP1 POP JUMP JUMPDEST PUSH1 0x0 DUP2 ISZERO ISZERO SWAP1 POP SWAP2 SWAP1 POP JUMP JUMPDEST PUSH1 0x0 PUSH20 0xFFFFFFFFFFFFFFFFFFFFFFFFFFFFFFFFFFFFFFFF DUP3 AND SWAP1 POP SWAP2 SWAP1 POP JUMP JUMPDEST PUSH1 0x0 DUP2 SWAP1 POP SWAP2 SWAP1 POP JUMP JUMPDEST PUSH1 0x0 JUMPDEST DUP4 DUP2 LT ISZERO PUSH2 0x329 JUMPI DUP1 DUP3 ADD MLOAD DUP2 DUP5 ADD MSTORE PUSH1 0x20 DUP2 ADD SWAP1 POP PUSH2 0x30E JUMP JUMPDEST DUP4 DUP2 GT ISZERO PUSH2 0x338 JUMPI PUSH1 0x0 DUP5 DUP5 ADD MSTORE JUMPDEST POP POP POP POP JUMP JUMPDEST PUSH1 0x0 PUSH1 0x2 DUP3 DIV SWAP1 POP PUSH1 0x1 DUP3 AND DUP1 PUSH2 0x356 JUMPI PUSH1 0x7F DUP3 AND SWAP2 POP JUMPDEST PUSH1 0x20 DUP3 LT DUP2 EQ ISZERO PUSH2 0x36A JUMPI PUSH2 0x369 PUSH2 0x370 JUMP JUMPDEST JUMPDEST POP SWAP2 SWAP1 POP JUMP JUMPDEST PUSH32 0x4E487B7100000000000000000000000000000000000000000000000000000000 PUSH1 0x0 MSTORE PUSH1 0x22 PUSH1 0x4 MSTORE PUSH1 0x24 PUSH1 0x0 REVERT JUMPDEST PUSH1 0x0 PUSH1 0x1F NOT PUSH1 0x1F DUP4 ADD AND SWAP1 POP SWAP2 SWAP1 POP JUMP JUMPDEST PUSH2 0x3B9 DUP2 PUSH2 0x301 JUMP JUMPDEST DUP2 EQ PUSH2 0x3C4 JUMPI PUSH1 0x0 DUP1 REVERT JUMPDEST POP JUMP INVALID LOG2 PUSH5 0x6970667358 0x22 SLT KECCAK256 0xC7 GASLIMIT 0xCB 0x2E PUSH4 0x8F790166 PUSH14 0x6A9B99448D03C26E210A136ABEBA 0xD3 0x23 0xE4 DUP3 0x2C 0x1F 0xE3 0x4D PUSH5 0x736F6C6343 STOP ADDMOD STOP STOP CALLER "
				},
				"gasEstimates": {
					"creation": {
						"codeDepositCost": "204200",
						"executionCost": "245",
						"totalCost": "204445"
					},
					"external": {
						"items(uint256)": "infinite",
						"itemsToSellCount()": "1107"
					}
				},
				"methodIdentifiers": {
					"items(uint256)": "bfb231d2",
					"itemsToSellCount()": "4c389e65"
				}
			},
			"storageLayout": {
				"storage": [
					{
						"astId": 3,
						"contract": "contracts/GeekNft.sol:GeekNft",
						"label": "owner",
						"offset": 0,
						"slot": "0",
						"type": "t_address"
					},
					{
						"astId": 18,
						"contract": "contracts/GeekNft.sol:GeekNft",
						"label": "items",
						"offset": 0,
						"slot": "1",
						"type": "t_array(t_struct(Item)14_storage)dyn_storage"
					},
					{
						"astId": 20,
						"contract": "contracts/GeekNft.sol:GeekNft",
						"label": "itemsToSellCount",
						"offset": 0,
						"slot": "2",
						"type": "t_uint256"
					}
				],
				"types": {
					"t_address": {
						"encoding": "inplace",
						"label": "address",
						"numberOfBytes": "20"
					},
					"t_array(t_struct(Item)14_storage)dyn_storage": {
						"base": "t_struct(Item)14_storage",
						"encoding": "dynamic_array",
						"label": "struct GeekNft.Item[]",
						"numberOfBytes": "32"
					},
					"t_bool": {
						"encoding": "inplace",
						"label": "bool",
						"numberOfBytes": "1"
					},
					"t_string_storage": {
						"encoding": "bytes",
						"label": "string",
						"numberOfBytes": "32"
					},
					"t_struct(Item)14_storage": {
						"encoding": "inplace",
						"label": "struct GeekNft.Item",
						"members": [
							{
								"astId": 5,
								"contract": "contracts/GeekNft.sol:GeekNft",
								"label": "tokenId",
								"offset": 0,
								"slot": "0",
								"type": "t_uint256"
							},
							{
								"astId": 7,
								"contract": "contracts/GeekNft.sol:GeekNft",
								"label": "price",
								"offset": 0,
								"slot": "1",
								"type": "t_uint256"
							},
							{
								"astId": 9,
								"contract": "contracts/GeekNft.sol:GeekNft",
								"label": "catId",
								"offset": 0,
								"slot": "2",
								"type": "t_string_storage"
							},
							{
								"astId": 11,
								"contract": "contracts/GeekNft.sol:GeekNft",
								"label": "toSell",
								"offset": 0,
								"slot": "3",
								"type": "t_bool"
							},
							{
								"astId": 13,
								"contract": "contracts/GeekNft.sol:GeekNft",
								"label": "owner",
								"offset": 1,
								"slot": "3",
								"type": "t_address"
							}
						],
						"numberOfBytes": "128"
					},
					"t_uint256": {
						"encoding": "inplace",
						"label": "uint256",
						"numberOfBytes": "32"
					}
				}
			},
			"userdoc": {
				"kind": "user",
				"methods": {},
				"version": 1
			}
		}
	}
}