{
	"contracts/GeekNftMarketPlace.sol": {
		"GeekNftMarketPlace": {
			"abi": [
				{
					"inputs": [],
					"stateMutability": "nonpayable",
					"type": "constructor"
				},
				{
					"anonymous": false,
					"inputs": [
						{
							"indexed": false,
							"internalType": "address",
							"name": "nftContract",
							"type": "address"
						},
						{
							"indexed": false,
							"internalType": "uint256",
							"name": "tokenId",
							"type": "uint256"
						},
						{
							"indexed": true,
							"internalType": "address",
							"name": "seller",
							"type": "address"
						},
						{
							"indexed": true,
							"internalType": "address",
							"name": "owner",
							"type": "address"
						},
						{
							"indexed": false,
							"internalType": "uint256",
							"name": "price",
							"type": "uint256"
						}
					],
					"name": "NFTListed",
					"type": "event"
				},
				{
					"anonymous": false,
					"inputs": [
						{
							"indexed": false,
							"internalType": "address",
							"name": "nftContract",
							"type": "address"
						},
						{
							"indexed": false,
							"internalType": "uint256",
							"name": "tokenId",
							"type": "uint256"
						},
						{
							"indexed": true,
							"internalType": "address",
							"name": "seller",
							"type": "address"
						},
						{
							"indexed": true,
							"internalType": "address",
							"name": "owner",
							"type": "address"
						},
						{
							"indexed": false,
							"internalType": "uint256",
							"name": "price",
							"type": "uint256"
						}
					],
					"name": "NFTSold",
					"type": "event"
				},
				{
					"inputs": [],
					"name": "LISTING_FEE",
					"outputs": [
						{
							"internalType": "uint256",
							"name": "",
							"type": "uint256"
						}
					],
					"stateMutability": "view",
					"type": "function"
				},
				{
					"inputs": [
						{
							"internalType": "address",
							"name": "_nftContract",
							"type": "address"
						},
						{
							"internalType": "uint256",
							"name": "_tokenId",
							"type": "uint256"
						}
					],
					"name": "buyNft",
					"outputs": [],
					"stateMutability": "payable",
					"type": "function"
				},
				{
					"inputs": [],
					"name": "getListedNfts",
					"outputs": [
						{
							"components": [
								{
									"internalType": "address",
									"name": "nftContract",
									"type": "address"
								},
								{
									"internalType": "uint256",
									"name": "tokenId",
									"type": "uint256"
								},
								{
									"internalType": "uint256",
									"name": "price",
									"type": "uint256"
								},
								{
									"internalType": "address payable",
									"name": "seller",
									"type": "address"
								},
								{
									"internalType": "address payable",
									"name": "owner",
									"type": "address"
								},
								{
									"internalType": "address payable",
									"name": "creator",
									"type": "address"
								},
								{
									"internalType": "bool",
									"name": "listed",
									"type": "bool"
								}
							],
							"internalType": "struct GeekNftMarketPlace.NFT[]",
							"name": "",
							"type": "tuple[]"
						}
					],
					"stateMutability": "view",
					"type": "function"
				},
				{
					"inputs": [],
					"name": "getListingFee",
					"outputs": [
						{
							"internalType": "uint256",
							"name": "",
							"type": "uint256"
						}
					],
					"stateMutability": "view",
					"type": "function"
				},
				{
					"inputs": [],
					"name": "getMyCreatedNfts",
					"outputs": [
						{
							"components": [
								{
									"internalType": "address",
									"name": "nftContract",
									"type": "address"
								},
								{
									"internalType": "uint256",
									"name": "tokenId",
									"type": "uint256"
								},
								{
									"internalType": "uint256",
									"name": "price",
									"type": "uint256"
								},
								{
									"internalType": "address payable",
									"name": "seller",
									"type": "address"
								},
								{
									"internalType": "address payable",
									"name": "owner",
									"type": "address"
								},
								{
									"internalType": "address payable",
									"name": "creator",
									"type": "address"
								},
								{
									"internalType": "bool",
									"name": "listed",
									"type": "bool"
								}
							],
							"internalType": "struct GeekNftMarketPlace.NFT[]",
							"name": "",
							"type": "tuple[]"
						}
					],
					"stateMutability": "view",
					"type": "function"
				},
				{
					"inputs": [],
					"name": "getMyListedNfts",
					"outputs": [
						{
							"components": [
								{
									"internalType": "address",
									"name": "nftContract",
									"type": "address"
								},
								{
									"internalType": "uint256",
									"name": "tokenId",
									"type": "uint256"
								},
								{
									"internalType": "uint256",
									"name": "price",
									"type": "uint256"
								},
								{
									"internalType": "address payable",
									"name": "seller",
									"type": "address"
								},
								{
									"internalType": "address payable",
									"name": "owner",
									"type": "address"
								},
								{
									"internalType": "address payable",
									"name": "creator",
									"type": "address"
								},
								{
									"internalType": "bool",
									"name": "listed",
									"type": "bool"
								}
							],
							"internalType": "struct GeekNftMarketPlace.NFT[]",
							"name": "",
							"type": "tuple[]"
						}
					],
					"stateMutability": "view",
					"type": "function"
				},
				{
					"inputs": [],
					"name": "getMyOwnedNfts",
					"outputs": [
						{
							"components": [
								{
									"internalType": "address",
									"name": "nftContract",
									"type": "address"
								},
								{
									"internalType": "uint256",
									"name": "tokenId",
									"type": "uint256"
								},
								{
									"internalType": "uint256",
									"name": "price",
									"type": "uint256"
								},
								{
									"internalType": "address payable",
									"name": "seller",
									"type": "address"
								},
								{
									"internalType": "address payable",
									"name": "owner",
									"type": "address"
								},
								{
									"internalType": "address payable",
									"name": "creator",
									"type": "address"
								},
								{
									"internalType": "bool",
									"name": "listed",
									"type": "bool"
								}
							],
							"internalType": "struct GeekNftMarketPlace.NFT[]",
							"name": "",
							"type": "tuple[]"
						}
					],
					"stateMutability": "view",
					"type": "function"
				},
				{
					"inputs": [
						{
							"internalType": "address",
							"name": "_nftContract",
							"type": "address"
						}
					],
					"name": "getNftByContract",
					"outputs": [
						{
							"components": [
								{
									"internalType": "address",
									"name": "nftContract",
									"type": "address"
								},
								{
									"internalType": "uint256",
									"name": "tokenId",
									"type": "uint256"
								},
								{
									"internalType": "uint256",
									"name": "price",
									"type": "uint256"
								},
								{
									"internalType": "address payable",
									"name": "seller",
									"type": "address"
								},
								{
									"internalType": "address payable",
									"name": "owner",
									"type": "address"
								},
								{
									"internalType": "address payable",
									"name": "creator",
									"type": "address"
								},
								{
									"internalType": "bool",
									"name": "listed",
									"type": "bool"
								}
							],
							"internalType": "struct GeekNftMarketPlace.NFT[]",
							"name": "",
							"type": "tuple[]"
						}
					],
					"stateMutability": "view",
					"type": "function"
				},
				{
					"inputs": [
						{
							"internalType": "address",
							"name": "_nftContract",
							"type": "address"
						},
						{
							"internalType": "uint256",
							"name": "_tokenId",
							"type": "uint256"
						}
					],
					"name": "getOwner",
					"outputs": [
						{
							"internalType": "address",
							"name": "",
							"type": "address"
						}
					],
					"stateMutability": "view",
					"type": "function"
				},
				{
					"inputs": [
						{
							"internalType": "address",
							"name": "_nftContract",
							"type": "address"
						},
						{
							"internalType": "uint256",
							"name": "_tokenId",
							"type": "uint256"
						},
						{
							"internalType": "uint256",
							"name": "_price",
							"type": "uint256"
						}
					],
					"name": "listNFT",
					"outputs": [],
					"stateMutability": "payable",
					"type": "function"
				},
				{
					"inputs": [
						{
							"internalType": "address",
							"name": "_nftContract",
							"type": "address"
						},
						{
							"internalType": "uint256",
							"name": "_tokenId",
							"type": "uint256"
						},
						{
							"internalType": "uint256",
							"name": "_price",
							"type": "uint256"
						}
					],
					"name": "resellNFT",
					"outputs": [],
					"stateMutability": "payable",
					"type": "function"
				}
			],
			"devdoc": {
				"kind": "dev",
				"methods": {},
				"version": 1
			},
			"evm": {
				"assembly": "    /* \"contracts/GeekNftMarketPlace.sol\":297:7272  contract GeekNftMarketPlace is ReentrancyGuard {... */\n  mstore(0x40, 0x80)\n    /* \"contracts/GeekNftMarketPlace.sol\":500:511  0.002 ether */\n  0x071afd498d0000\n    /* \"contracts/GeekNftMarketPlace.sol\":474:511  uint public LISTING_FEE = 0.002 ether */\n  0x03\n  sstore\n    /* \"contracts/GeekNftMarketPlace.sol\":1019:1085  constructor() {... */\n  callvalue\n  dup1\n  iszero\n  tag_1\n  jumpi\n  0x00\n  dup1\n  revert\ntag_1:\n  pop\n    /* \"contracts/RenntrancyGuard.sol\":128:129  1 */\n  0x01\n    /* \"contracts/RenntrancyGuard.sol\":233:240  _status */\n  0x00\n    /* \"contracts/RenntrancyGuard.sol\":233:255  _status = _NOT_ENTERED */\n  dup2\n  swap1\n  sstore\n  pop\n    /* \"contracts/GeekNftMarketPlace.sol\":1067:1077  msg.sender */\n  caller\n    /* \"contracts/GeekNftMarketPlace.sol\":1043:1056  _marketOwwner */\n  0x04\n  0x00\n    /* \"contracts/GeekNftMarketPlace.sol\":1043:1078  _marketOwwner = payable(msg.sender) */\n  0x0100\n  exp\n  dup2\n  sload\n  dup2\n  0xffffffffffffffffffffffffffffffffffffffff\n  mul\n  not\n  and\n  swap1\n  dup4\n  0xffffffffffffffffffffffffffffffffffffffff\n  and\n  mul\n  or\n  swap1\n  sstore\n  pop\n    /* \"contracts/GeekNftMarketPlace.sol\":297:7272  contract GeekNftMarketPlace is ReentrancyGuard {... */\n  dataSize(sub_0)\n  dup1\n  dataOffset(sub_0)\n  0x00\n  codecopy\n  0x00\n  return\nstop\n\nsub_0: assembly {\n        /* \"contracts/GeekNftMarketPlace.sol\":297:7272  contract GeekNftMarketPlace is ReentrancyGuard {... */\n      mstore(0x40, 0x80)\n      jumpi(tag_1, lt(calldatasize, 0x04))\n      shr(0xe0, calldataload(0x00))\n      dup1\n      0x8492095a\n      gt\n      tag_13\n      jumpi\n      dup1\n      0x8492095a\n      eq\n      tag_7\n      jumpi\n      dup1\n      0x8d6cb3fb\n      eq\n      tag_8\n      jumpi\n      dup1\n      0xa46b5c5a\n      eq\n      tag_9\n      jumpi\n      dup1\n      0xad05f1b4\n      eq\n      tag_10\n      jumpi\n      dup1\n      0xb8fe6abe\n      eq\n      tag_11\n      jumpi\n      dup1\n      0xe7d90feb\n      eq\n      tag_12\n      jumpi\n      jump(tag_1)\n    tag_13:\n      dup1\n      0x04935694\n      eq\n      tag_2\n      jumpi\n      dup1\n      0x1f4cc4db\n      eq\n      tag_3\n      jumpi\n      dup1\n      0x2b86ae38\n      eq\n      tag_4\n      jumpi\n      dup1\n      0x2f634a90\n      eq\n      tag_5\n      jumpi\n      dup1\n      0x4ddf4f8f\n      eq\n      tag_6\n      jumpi\n    tag_1:\n      0x00\n      dup1\n      revert\n        /* \"contracts/GeekNftMarketPlace.sol\":3038:3722  function resellNFT(address _nftContract, uint _tokenId, uint _price) public payable nonReentrant priceIsGreaterThanZero(_price) valueIsEqualToFees{... */\n    tag_2:\n      tag_14\n      0x04\n      dup1\n      calldatasize\n      sub\n      dup2\n      add\n      swap1\n      tag_15\n      swap2\n      swap1\n      tag_16\n      jump\t// in\n    tag_15:\n      tag_17\n      jump\t// in\n    tag_14:\n      stop\n        /* \"contracts/GeekNftMarketPlace.sol\":5029:5658  function getMyListedNfts() public view returns (NFT[] memory) {... */\n    tag_3:\n      callvalue\n      dup1\n      iszero\n      tag_18\n      jumpi\n      0x00\n      dup1\n      revert\n    tag_18:\n      pop\n      tag_19\n      tag_20\n      jump\t// in\n    tag_19:\n      mload(0x40)\n      tag_21\n      swap2\n      swap1\n      tag_22\n      jump\t// in\n    tag_21:\n      mload(0x40)\n      dup1\n      swap2\n      sub\n      swap1\n      return\n        /* \"contracts/GeekNftMarketPlace.sol\":474:511  uint public LISTING_FEE = 0.002 ether */\n    tag_4:\n      callvalue\n      dup1\n      iszero\n      tag_23\n      jumpi\n      0x00\n      dup1\n      revert\n    tag_23:\n      pop\n      tag_24\n      tag_25\n      jump\t// in\n    tag_24:\n      mload(0x40)\n      tag_26\n      swap2\n      swap1\n      tag_27\n      jump\t// in\n    tag_26:\n      mload(0x40)\n      dup1\n      swap2\n      sub\n      swap1\n      return\n        /* \"contracts/GeekNftMarketPlace.sol\":1446:1602  function getOwner(address _nftContract, uint _tokenId) public view returns (address){... */\n    tag_5:\n      callvalue\n      dup1\n      iszero\n      tag_28\n      jumpi\n      0x00\n      dup1\n      revert\n    tag_28:\n      pop\n      tag_29\n      0x04\n      dup1\n      calldatasize\n      sub\n      dup2\n      add\n      swap1\n      tag_30\n      swap2\n      swap1\n      tag_31\n      jump\t// in\n    tag_30:\n      tag_32\n      jump\t// in\n    tag_29:\n      mload(0x40)\n      tag_33\n      swap2\n      swap1\n      tag_34\n      jump\t// in\n    tag_33:\n      mload(0x40)\n      dup1\n      swap2\n      sub\n      swap1\n      return\n        /* \"contracts/GeekNftMarketPlace.sol\":2296:2983  function buyNft(address _nftContract, uint _tokenId) public payable nonReentrant{... */\n    tag_6:\n      tag_35\n      0x04\n      dup1\n      calldatasize\n      sub\n      dup2\n      add\n      swap1\n      tag_36\n      swap2\n      swap1\n      tag_31\n      jump\t// in\n    tag_36:\n      tag_37\n      jump\t// in\n    tag_35:\n      stop\n        /* \"contracts/GeekNftMarketPlace.sol\":4392:4988  function getMyCreatedNfts() public view returns (NFT[] memory) {... */\n    tag_7:\n      callvalue\n      dup1\n      iszero\n      tag_38\n      jumpi\n      0x00\n      dup1\n      revert\n    tag_38:\n      pop\n      tag_39\n      tag_40\n      jump\t// in\n    tag_39:\n      mload(0x40)\n      tag_41\n      swap2\n      swap1\n      tag_22\n      jump\t// in\n    tag_41:\n      mload(0x40)\n      dup1\n      swap2\n      sub\n      swap1\n      return\n        /* \"contracts/GeekNftMarketPlace.sol\":6333:6799  function getListedNfts() public view returns (NFT[] memory) {... */\n    tag_8:\n      callvalue\n      dup1\n      iszero\n      tag_42\n      jumpi\n      0x00\n      dup1\n      revert\n    tag_42:\n      pop\n      tag_43\n      tag_44\n      jump\t// in\n    tag_43:\n      mload(0x40)\n      tag_45\n      swap2\n      swap1\n      tag_22\n      jump\t// in\n    tag_45:\n      mload(0x40)\n      dup1\n      swap2\n      sub\n      swap1\n      return\n        /* \"contracts/GeekNftMarketPlace.sol\":3761:4351  function getMyOwnedNfts() public view returns (NFT[] memory) {... */\n    tag_9:\n      callvalue\n      dup1\n      iszero\n      tag_46\n      jumpi\n      0x00\n      dup1\n      revert\n    tag_46:\n      pop\n      tag_47\n      tag_48\n      jump\t// in\n    tag_47:\n      mload(0x40)\n      tag_49\n      swap2\n      swap1\n      tag_22\n      jump\t// in\n    tag_49:\n      mload(0x40)\n      dup1\n      swap2\n      sub\n      swap1\n      return\n        /* \"contracts/GeekNftMarketPlace.sol\":1647:2272  function listNFT(address _nftContract, uint _tokenId, uint _price) public payable nonReentrant priceIsGreaterThanZero(_price) valueIsEqualToFees{... */\n    tag_10:\n      tag_50\n      0x04\n      dup1\n      calldatasize\n      sub\n      dup2\n      add\n      swap1\n      tag_51\n      swap2\n      swap1\n      tag_16\n      jump\t// in\n    tag_51:\n      tag_52\n      jump\t// in\n    tag_50:\n      stop\n        /* \"contracts/GeekNftMarketPlace.sol\":1354:1440  function getListingFee() public view returns (uint){... */\n    tag_11:\n      callvalue\n      dup1\n      iszero\n      tag_53\n      jumpi\n      0x00\n      dup1\n      revert\n    tag_53:\n      pop\n      tag_54\n      tag_55\n      jump\t// in\n    tag_54:\n      mload(0x40)\n      tag_56\n      swap2\n      swap1\n      tag_27\n      jump\t// in\n    tag_56:\n      mload(0x40)\n      dup1\n      swap2\n      sub\n      swap1\n      return\n        /* \"contracts/GeekNftMarketPlace.sol\":5699:6327  function getNftByContract(address _nftContract) public view returns (NFT[] memory) {... */\n    tag_12:\n      callvalue\n      dup1\n      iszero\n      tag_57\n      jumpi\n      0x00\n      dup1\n      revert\n    tag_57:\n      pop\n      tag_58\n      0x04\n      dup1\n      calldatasize\n      sub\n      dup2\n      add\n      swap1\n      tag_59\n      swap2\n      swap1\n      tag_60\n      jump\t// in\n    tag_59:\n      tag_61\n      jump\t// in\n    tag_58:\n      mload(0x40)\n      tag_62\n      swap2\n      swap1\n      tag_22\n      jump\t// in\n    tag_62:\n      mload(0x40)\n      dup1\n      swap2\n      sub\n      swap1\n      return\n        /* \"contracts/GeekNftMarketPlace.sol\":3038:3722  function resellNFT(address _nftContract, uint _tokenId, uint _price) public payable nonReentrant priceIsGreaterThanZero(_price) valueIsEqualToFees{... */\n    tag_17:\n        /* \"contracts/RenntrancyGuard.sol\":171:172  2 */\n      0x02\n        /* \"contracts/RenntrancyGuard.sol\":310:317  _status */\n      sload(0x00)\n        /* \"contracts/RenntrancyGuard.sol\":310:329  _status != _ENTERED */\n      eq\n      iszero\n        /* \"contracts/RenntrancyGuard.sol\":302:365  require(_status != _ENTERED, \"ReentrancyGuard: reentrant call\") */\n      tag_64\n      jumpi\n      mload(0x40)\n      0x08c379a000000000000000000000000000000000000000000000000000000000\n      dup2\n      mstore\n      0x04\n      add\n      tag_65\n      swap1\n      tag_66\n      jump\t// in\n    tag_65:\n      mload(0x40)\n      dup1\n      swap2\n      sub\n      swap1\n      revert\n    tag_64:\n        /* \"contracts/RenntrancyGuard.sol\":171:172  2 */\n      0x02\n        /* \"contracts/RenntrancyGuard.sol\":375:382  _status */\n      0x00\n        /* \"contracts/RenntrancyGuard.sol\":375:393  _status = _ENTERED */\n      dup2\n      swap1\n      sstore\n      pop\n        /* \"contracts/GeekNftMarketPlace.sol\":3158:3164  _price */\n      dup1\n        /* \"contracts/GeekNftMarketPlace.sol\":1163:1164  0 */\n      0x00\n        /* \"contracts/GeekNftMarketPlace.sol\":1154:1160  _price */\n      dup2\n        /* \"contracts/GeekNftMarketPlace.sol\":1154:1164  _price > 0 */\n      gt\n        /* \"contracts/GeekNftMarketPlace.sol\":1146:1197  require(_price > 0, \"Price must be at least 1 wei\") */\n      tag_68\n      jumpi\n      mload(0x40)\n      0x08c379a000000000000000000000000000000000000000000000000000000000\n      dup2\n      mstore\n      0x04\n      add\n      tag_69\n      swap1\n      tag_70\n      jump\t// in\n    tag_69:\n      mload(0x40)\n      dup1\n      swap2\n      sub\n      swap1\n      revert\n    tag_68:\n        /* \"contracts/GeekNftMarketPlace.sol\":1282:1293  LISTING_FEE */\n      sload(0x03)\n        /* \"contracts/GeekNftMarketPlace.sol\":1269:1278  msg.value */\n      callvalue\n        /* \"contracts/GeekNftMarketPlace.sol\":1269:1293  msg.value == LISTING_FEE */\n      eq\n        /* \"contracts/GeekNftMarketPlace.sol\":1261:1330  require(msg.value == LISTING_FEE, \"Not enough ether for listing fee\") */\n      tag_72\n      jumpi\n      mload(0x40)\n      0x08c379a000000000000000000000000000000000000000000000000000000000\n      dup2\n      mstore\n      0x04\n      add\n      tag_73\n      swap1\n      tag_74\n      jump\t// in\n    tag_73:\n      mload(0x40)\n      dup1\n      swap2\n      sub\n      swap1\n      revert\n    tag_72:\n        /* \"contracts/GeekNftMarketPlace.sol\":3194:3203  int index */\n      0x00\n        /* \"contracts/GeekNftMarketPlace.sol\":3225:3255  getNFT(_nftContract, _tokenId) */\n      tag_76\n        /* \"contracts/GeekNftMarketPlace.sol\":3232:3244  _nftContract */\n      dup6\n        /* \"contracts/GeekNftMarketPlace.sol\":3246:3254  _tokenId */\n      dup6\n        /* \"contracts/GeekNftMarketPlace.sol\":3225:3231  getNFT */\n      tag_77\n        /* \"contracts/GeekNftMarketPlace.sol\":3225:3255  getNFT(_nftContract, _tokenId) */\n      jump\t// in\n    tag_76:\n        /* \"contracts/GeekNftMarketPlace.sol\":3213:3255  (, index) = getNFT(_nftContract, _tokenId) */\n      swap1\n      pop\n      dup1\n      swap2\n      pop\n      pop\n        /* \"contracts/GeekNftMarketPlace.sol\":3282:3284  -1 */\n      0xffffffffffffffffffffffffffffffffffffffffffffffffffffffffffffffff\n        /* \"contracts/GeekNftMarketPlace.sol\":3273:3278  index */\n      dup2\n        /* \"contracts/GeekNftMarketPlace.sol\":3273:3284  index != -1 */\n      eq\n      iszero\n        /* \"contracts/GeekNftMarketPlace.sol\":3265:3302  require(index != -1, \"Nft not found\") */\n      tag_78\n      jumpi\n      mload(0x40)\n      0x08c379a000000000000000000000000000000000000000000000000000000000\n      dup2\n      mstore\n      0x04\n      add\n      tag_79\n      swap1\n      tag_80\n      jump\t// in\n    tag_79:\n      mload(0x40)\n      dup1\n      swap2\n      sub\n      swap1\n      revert\n    tag_78:\n        /* \"contracts/GeekNftMarketPlace.sol\":3330:3342  _nftContract */\n      dup5\n        /* \"contracts/GeekNftMarketPlace.sol\":3313:3356  GeekNftInterface(_nftContract).transferFrom */\n      0xffffffffffffffffffffffffffffffffffffffff\n      and\n      0x23b872dd\n        /* \"contracts/GeekNftMarketPlace.sol\":3357:3367  msg.sender */\n      caller\n        /* \"contracts/GeekNftMarketPlace.sol\":3377:3381  this */\n      address\n        /* \"contracts/GeekNftMarketPlace.sol\":3384:3392  _tokenId */\n      dup8\n        /* \"contracts/GeekNftMarketPlace.sol\":3313:3393  GeekNftInterface(_nftContract).transferFrom(msg.sender, address(this), _tokenId) */\n      mload(0x40)\n      dup5\n      0xffffffff\n      and\n      0xe0\n      shl\n      dup2\n      mstore\n      0x04\n      add\n      tag_81\n      swap4\n      swap3\n      swap2\n      swap1\n      tag_82\n      jump\t// in\n    tag_81:\n      0x00\n      mload(0x40)\n      dup1\n      dup4\n      sub\n      dup2\n      0x00\n      dup8\n      dup1\n      extcodesize\n      iszero\n      dup1\n      iszero\n      tag_83\n      jumpi\n      0x00\n      dup1\n      revert\n    tag_83:\n      pop\n      gas\n      call\n      iszero\n      dup1\n      iszero\n      tag_85\n      jumpi\n      returndatasize\n      0x00\n      dup1\n      returndatacopy\n      revert(0x00, returndatasize)\n    tag_85:\n      pop\n      pop\n      pop\n      pop\n        /* \"contracts/GeekNftMarketPlace.sol\":3439:3449  msg.sender */\n      caller\n        /* \"contracts/GeekNftMarketPlace.sol\":3404:3408  nfts */\n      0x05\n        /* \"contracts/GeekNftMarketPlace.sol\":3414:3419  index */\n      dup3\n        /* \"contracts/GeekNftMarketPlace.sol\":3404:3421  nfts[uint(index)] */\n      dup2\n      sload\n      dup2\n      lt\n      tag_86\n      jumpi\n      tag_87\n      tag_88\n      jump\t// in\n    tag_87:\n    tag_86:\n      swap1\n      0x00\n      mstore\n      keccak256(0x00, 0x20)\n      swap1\n      0x06\n      mul\n      add\n        /* \"contracts/GeekNftMarketPlace.sol\":3404:3428  nfts[uint(index)].seller */\n      0x03\n      add\n      0x00\n        /* \"contracts/GeekNftMarketPlace.sol\":3404:3450  nfts[uint(index)].seller = payable(msg.sender) */\n      0x0100\n      exp\n      dup2\n      sload\n      dup2\n      0xffffffffffffffffffffffffffffffffffffffff\n      mul\n      not\n      and\n      swap1\n      dup4\n      0xffffffffffffffffffffffffffffffffffffffff\n      and\n      mul\n      or\n      swap1\n      sstore\n      pop\n        /* \"contracts/GeekNftMarketPlace.sol\":3502:3506  this */\n      address\n        /* \"contracts/GeekNftMarketPlace.sol\":3460:3464  nfts */\n      0x05\n        /* \"contracts/GeekNftMarketPlace.sol\":3470:3475  index */\n      dup3\n        /* \"contracts/GeekNftMarketPlace.sol\":3460:3477  nfts[uint(index)] */\n      dup2\n      sload\n      dup2\n      lt\n      tag_90\n      jumpi\n      tag_91\n      tag_88\n      jump\t// in\n    tag_91:\n    tag_90:\n      swap1\n      0x00\n      mstore\n      keccak256(0x00, 0x20)\n      swap1\n      0x06\n      mul\n      add\n        /* \"contracts/GeekNftMarketPlace.sol\":3460:3483  nfts[uint(index)].owner */\n      0x04\n      add\n      0x00\n        /* \"contracts/GeekNftMarketPlace.sol\":3460:3508  nfts[uint(index)].owner = payable(address(this)) */\n      0x0100\n      exp\n      dup2\n      sload\n      dup2\n      0xffffffffffffffffffffffffffffffffffffffff\n      mul\n      not\n      and\n      swap1\n      dup4\n      0xffffffffffffffffffffffffffffffffffffffff\n      and\n      mul\n      or\n      swap1\n      sstore\n      pop\n        /* \"contracts/GeekNftMarketPlace.sol\":3545:3549  true */\n      0x01\n        /* \"contracts/GeekNftMarketPlace.sol\":3518:3522  nfts */\n      0x05\n        /* \"contracts/GeekNftMarketPlace.sol\":3528:3533  index */\n      dup3\n        /* \"contracts/GeekNftMarketPlace.sol\":3518:3535  nfts[uint(index)] */\n      dup2\n      sload\n      dup2\n      lt\n      tag_93\n      jumpi\n      tag_94\n      tag_88\n      jump\t// in\n    tag_94:\n    tag_93:\n      swap1\n      0x00\n      mstore\n      keccak256(0x00, 0x20)\n      swap1\n      0x06\n      mul\n      add\n        /* \"contracts/GeekNftMarketPlace.sol\":3518:3542  nfts[uint(index)].listed */\n      0x05\n      add\n      0x14\n        /* \"contracts/GeekNftMarketPlace.sol\":3518:3549  nfts[uint(index)].listed = true */\n      0x0100\n      exp\n      dup2\n      sload\n      dup2\n      0xff\n      mul\n      not\n      and\n      swap1\n      dup4\n      iszero\n      iszero\n      mul\n      or\n      swap1\n      sstore\n      pop\n        /* \"contracts/GeekNftMarketPlace.sol\":3585:3591  _price */\n      dup3\n        /* \"contracts/GeekNftMarketPlace.sol\":3559:3563  nfts */\n      0x05\n        /* \"contracts/GeekNftMarketPlace.sol\":3569:3574  index */\n      dup3\n        /* \"contracts/GeekNftMarketPlace.sol\":3559:3576  nfts[uint(index)] */\n      dup2\n      sload\n      dup2\n      lt\n      tag_96\n      jumpi\n      tag_97\n      tag_88\n      jump\t// in\n    tag_97:\n    tag_96:\n      swap1\n      0x00\n      mstore\n      keccak256(0x00, 0x20)\n      swap1\n      0x06\n      mul\n      add\n        /* \"contracts/GeekNftMarketPlace.sol\":3559:3582  nfts[uint(index)].price */\n      0x02\n      add\n        /* \"contracts/GeekNftMarketPlace.sol\":3559:3591  nfts[uint(index)].price = _price */\n      dup2\n      swap1\n      sstore\n      pop\n        /* \"contracts/GeekNftMarketPlace.sol\":3602:3623  _nftsSold.decrement() */\n      tag_99\n        /* \"contracts/GeekNftMarketPlace.sol\":3602:3611  _nftsSold */\n      0x01\n        /* \"contracts/GeekNftMarketPlace.sol\":3602:3621  _nftsSold.decrement */\n      tag_100\n        /* \"contracts/GeekNftMarketPlace.sol\":3602:3623  _nftsSold.decrement() */\n      jump\t// in\n    tag_99:\n        /* \"contracts/GeekNftMarketPlace.sol\":3701:3705  this */\n      address\n        /* \"contracts/GeekNftMarketPlace.sol\":3647:3715  NFTListed(_nftContract, _tokenId, msg.sender, address(this), _price) */\n      0xffffffffffffffffffffffffffffffffffffffff\n      and\n        /* \"contracts/GeekNftMarketPlace.sol\":3681:3691  msg.sender */\n      caller\n        /* \"contracts/GeekNftMarketPlace.sol\":3647:3715  NFTListed(_nftContract, _tokenId, msg.sender, address(this), _price) */\n      0xffffffffffffffffffffffffffffffffffffffff\n      and\n      0xa0c6c0d02d86fdacecbaa5fdf5894bab204e31a778250474108540733a9b8d19\n        /* \"contracts/GeekNftMarketPlace.sol\":3657:3669  _nftContract */\n      dup8\n        /* \"contracts/GeekNftMarketPlace.sol\":3671:3679  _tokenId */\n      dup8\n        /* \"contracts/GeekNftMarketPlace.sol\":3708:3714  _price */\n      dup8\n        /* \"contracts/GeekNftMarketPlace.sol\":3647:3715  NFTListed(_nftContract, _tokenId, msg.sender, address(this), _price) */\n      mload(0x40)\n      tag_101\n      swap4\n      swap3\n      swap2\n      swap1\n      tag_102\n      jump\t// in\n    tag_101:\n      mload(0x40)\n      dup1\n      swap2\n      sub\n      swap1\n      log3\n        /* \"contracts/GeekNftMarketPlace.sol\":3184:3722  {... */\n      pop\n        /* \"contracts/RenntrancyGuard.sol\":403:404  _ */\n      pop\n        /* \"contracts/RenntrancyGuard.sol\":128:129  1 */\n      0x01\n        /* \"contracts/RenntrancyGuard.sol\":414:421  _status */\n      0x00\n        /* \"contracts/RenntrancyGuard.sol\":414:436  _status = _NOT_ENTERED */\n      dup2\n      swap1\n      sstore\n      pop\n        /* \"contracts/GeekNftMarketPlace.sol\":3038:3722  function resellNFT(address _nftContract, uint _tokenId, uint _price) public payable nonReentrant priceIsGreaterThanZero(_price) valueIsEqualToFees{... */\n      pop\n      pop\n      pop\n      jump\t// out\n        /* \"contracts/GeekNftMarketPlace.sol\":5029:5658  function getMyListedNfts() public view returns (NFT[] memory) {... */\n    tag_20:\n        /* \"contracts/GeekNftMarketPlace.sol\":5077:5089  NFT[] memory */\n      0x60\n        /* \"contracts/GeekNftMarketPlace.sol\":5101:5115  uint nftsCount */\n      0x00\n        /* \"contracts/GeekNftMarketPlace.sol\":5118:5138  _nftsCount.current() */\n      tag_104\n        /* \"contracts/GeekNftMarketPlace.sol\":5118:5128  _nftsCount */\n      0x02\n        /* \"contracts/GeekNftMarketPlace.sol\":5118:5136  _nftsCount.current */\n      tag_105\n        /* \"contracts/GeekNftMarketPlace.sol\":5118:5138  _nftsCount.current() */\n      jump\t// in\n    tag_104:\n        /* \"contracts/GeekNftMarketPlace.sol\":5101:5138  uint nftsCount = _nftsCount.current() */\n      swap1\n      pop\n        /* \"contracts/GeekNftMarketPlace.sol\":5148:5164  uint myNftsCount */\n      0x00\n        /* \"contracts/GeekNftMarketPlace.sol\":5183:5189  uint i */\n      dup1\n        /* \"contracts/GeekNftMarketPlace.sol\":5178:5337  for (uint i = 0; i < nftsCount; i++) {... */\n    tag_106:\n        /* \"contracts/GeekNftMarketPlace.sol\":5199:5208  nftsCount */\n      dup3\n        /* \"contracts/GeekNftMarketPlace.sol\":5195:5196  i */\n      dup2\n        /* \"contracts/GeekNftMarketPlace.sol\":5195:5208  i < nftsCount */\n      lt\n        /* \"contracts/GeekNftMarketPlace.sol\":5178:5337  for (uint i = 0; i < nftsCount; i++) {... */\n      iszero\n      tag_107\n      jumpi\n        /* \"contracts/GeekNftMarketPlace.sol\":5250:5260  msg.sender */\n      caller\n        /* \"contracts/GeekNftMarketPlace.sol\":5232:5260  nfts[i].seller == msg.sender */\n      0xffffffffffffffffffffffffffffffffffffffff\n      and\n        /* \"contracts/GeekNftMarketPlace.sol\":5232:5236  nfts */\n      0x05\n        /* \"contracts/GeekNftMarketPlace.sol\":5237:5238  i */\n      dup3\n        /* \"contracts/GeekNftMarketPlace.sol\":5232:5239  nfts[i] */\n      dup2\n      sload\n      dup2\n      lt\n      tag_109\n      jumpi\n      tag_110\n      tag_88\n      jump\t// in\n    tag_110:\n    tag_109:\n      swap1\n      0x00\n      mstore\n      keccak256(0x00, 0x20)\n      swap1\n      0x06\n      mul\n      add\n        /* \"contracts/GeekNftMarketPlace.sol\":5232:5246  nfts[i].seller */\n      0x03\n      add\n      0x00\n      swap1\n      sload\n      swap1\n      0x0100\n      exp\n      swap1\n      div\n      0xffffffffffffffffffffffffffffffffffffffff\n      and\n        /* \"contracts/GeekNftMarketPlace.sol\":5232:5260  nfts[i].seller == msg.sender */\n      0xffffffffffffffffffffffffffffffffffffffff\n      and\n      eq\n        /* \"contracts/GeekNftMarketPlace.sol\":5232:5278  nfts[i].seller == msg.sender && nfts[i].listed */\n      dup1\n      iszero\n      tag_112\n      jumpi\n      pop\n        /* \"contracts/GeekNftMarketPlace.sol\":5264:5268  nfts */\n      0x05\n        /* \"contracts/GeekNftMarketPlace.sol\":5269:5270  i */\n      dup2\n        /* \"contracts/GeekNftMarketPlace.sol\":5264:5271  nfts[i] */\n      dup2\n      sload\n      dup2\n      lt\n      tag_113\n      jumpi\n      tag_114\n      tag_88\n      jump\t// in\n    tag_114:\n    tag_113:\n      swap1\n      0x00\n      mstore\n      keccak256(0x00, 0x20)\n      swap1\n      0x06\n      mul\n      add\n        /* \"contracts/GeekNftMarketPlace.sol\":5264:5278  nfts[i].listed */\n      0x05\n      add\n      0x14\n      swap1\n      sload\n      swap1\n      0x0100\n      exp\n      swap1\n      div\n      0xff\n      and\n        /* \"contracts/GeekNftMarketPlace.sol\":5232:5278  nfts[i].seller == msg.sender && nfts[i].listed */\n    tag_112:\n        /* \"contracts/GeekNftMarketPlace.sol\":5229:5327  if(nfts[i].seller == msg.sender && nfts[i].listed) {... */\n      iszero\n      tag_116\n      jumpi\n        /* \"contracts/GeekNftMarketPlace.sol\":5298:5312  myNftsCount ++ */\n      dup2\n      dup1\n      tag_117\n      swap1\n      tag_118\n      jump\t// in\n    tag_117:\n      swap3\n      pop\n      pop\n        /* \"contracts/GeekNftMarketPlace.sol\":5229:5327  if(nfts[i].seller == msg.sender && nfts[i].listed) {... */\n    tag_116:\n        /* \"contracts/GeekNftMarketPlace.sol\":5210:5213  i++ */\n      dup1\n      dup1\n      tag_119\n      swap1\n      tag_118\n      jump\t// in\n    tag_119:\n      swap2\n      pop\n      pop\n        /* \"contracts/GeekNftMarketPlace.sol\":5178:5337  for (uint i = 0; i < nftsCount; i++) {... */\n      jump(tag_106)\n    tag_107:\n      pop\n        /* \"contracts/GeekNftMarketPlace.sol\":5347:5366  NFT[] memory myNfts */\n      0x00\n        /* \"contracts/GeekNftMarketPlace.sol\":5379:5390  myNftsCount */\n      dup2\n        /* \"contracts/GeekNftMarketPlace.sol\":5369:5391  new NFT[](myNftsCount) */\n      0xffffffffffffffff\n      dup2\n      gt\n      iszero\n      tag_120\n      jumpi\n      tag_121\n      tag_122\n      jump\t// in\n    tag_121:\n    tag_120:\n      mload(0x40)\n      swap1\n      dup1\n      dup3\n      mstore\n      dup1\n      0x20\n      mul\n      0x20\n      add\n      dup3\n      add\n      0x40\n      mstore\n      dup1\n      iszero\n      tag_123\n      jumpi\n      dup2\n      0x20\n      add\n    tag_124:\n      tag_125\n      tag_126\n      jump\t// in\n    tag_125:\n      dup2\n      mstore\n      0x20\n      add\n      swap1\n      0x01\n      swap1\n      sub\n      swap1\n      dup2\n      tag_124\n      jumpi\n      swap1\n      pop\n    tag_123:\n      pop\n        /* \"contracts/GeekNftMarketPlace.sol\":5347:5391  NFT[] memory myNfts = new NFT[](myNftsCount) */\n      swap1\n      pop\n        /* \"contracts/GeekNftMarketPlace.sol\":5401:5414  uint nftIndex */\n      0x00\n        /* \"contracts/GeekNftMarketPlace.sol\":5433:5439  uint i */\n      dup1\n        /* \"contracts/GeekNftMarketPlace.sol\":5428:5628  for (uint i = 0; i < nftsCount; i++) {... */\n    tag_127:\n        /* \"contracts/GeekNftMarketPlace.sol\":5449:5458  nftsCount */\n      dup5\n        /* \"contracts/GeekNftMarketPlace.sol\":5445:5446  i */\n      dup2\n        /* \"contracts/GeekNftMarketPlace.sol\":5445:5458  i < nftsCount */\n      lt\n        /* \"contracts/GeekNftMarketPlace.sol\":5428:5628  for (uint i = 0; i < nftsCount; i++) {... */\n      iszero\n      tag_128\n      jumpi\n        /* \"contracts/GeekNftMarketPlace.sol\":5500:5510  msg.sender */\n      caller\n        /* \"contracts/GeekNftMarketPlace.sol\":5482:5510  nfts[i].seller == msg.sender */\n      0xffffffffffffffffffffffffffffffffffffffff\n      and\n        /* \"contracts/GeekNftMarketPlace.sol\":5482:5486  nfts */\n      0x05\n        /* \"contracts/GeekNftMarketPlace.sol\":5487:5488  i */\n      dup3\n        /* \"contracts/GeekNftMarketPlace.sol\":5482:5489  nfts[i] */\n      dup2\n      sload\n      dup2\n      lt\n      tag_130\n      jumpi\n      tag_131\n      tag_88\n      jump\t// in\n    tag_131:\n    tag_130:\n      swap1\n      0x00\n      mstore\n      keccak256(0x00, 0x20)\n      swap1\n      0x06\n      mul\n      add\n        /* \"contracts/GeekNftMarketPlace.sol\":5482:5496  nfts[i].seller */\n      0x03\n      add\n      0x00\n      swap1\n      sload\n      swap1\n      0x0100\n      exp\n      swap1\n      div\n      0xffffffffffffffffffffffffffffffffffffffff\n      and\n        /* \"contracts/GeekNftMarketPlace.sol\":5482:5510  nfts[i].seller == msg.sender */\n      0xffffffffffffffffffffffffffffffffffffffff\n      and\n      eq\n        /* \"contracts/GeekNftMarketPlace.sol\":5482:5528  nfts[i].seller == msg.sender && nfts[i].listed */\n      dup1\n      iszero\n      tag_133\n      jumpi\n      pop\n        /* \"contracts/GeekNftMarketPlace.sol\":5514:5518  nfts */\n      0x05\n        /* \"contracts/GeekNftMarketPlace.sol\":5519:5520  i */\n      dup2\n        /* \"contracts/GeekNftMarketPlace.sol\":5514:5521  nfts[i] */\n      dup2\n      sload\n      dup2\n      lt\n      tag_134\n      jumpi\n      tag_135\n      tag_88\n      jump\t// in\n    tag_135:\n    tag_134:\n      swap1\n      0x00\n      mstore\n      keccak256(0x00, 0x20)\n      swap1\n      0x06\n      mul\n      add\n        /* \"contracts/GeekNftMarketPlace.sol\":5514:5528  nfts[i].listed */\n      0x05\n      add\n      0x14\n      swap1\n      sload\n      swap1\n      0x0100\n      exp\n      swap1\n      div\n      0xff\n      and\n        /* \"contracts/GeekNftMarketPlace.sol\":5482:5528  nfts[i].seller == msg.sender && nfts[i].listed */\n    tag_133:\n        /* \"contracts/GeekNftMarketPlace.sol\":5479:5618  if(nfts[i].seller == msg.sender && nfts[i].listed) {... */\n      iszero\n      tag_137\n      jumpi\n        /* \"contracts/GeekNftMarketPlace.sol\":5567:5571  nfts */\n      0x05\n        /* \"contracts/GeekNftMarketPlace.sol\":5572:5573  i */\n      dup2\n        /* \"contracts/GeekNftMarketPlace.sol\":5567:5574  nfts[i] */\n      dup2\n      sload\n      dup2\n      lt\n      tag_138\n      jumpi\n      tag_139\n      tag_88\n      jump\t// in\n    tag_139:\n    tag_138:\n      swap1\n      0x00\n      mstore\n      keccak256(0x00, 0x20)\n      swap1\n      0x06\n      mul\n      add\n        /* \"contracts/GeekNftMarketPlace.sol\":5548:5574  myNfts[nftIndex] = nfts[i] */\n      mload(0x40)\n      dup1\n      0xe0\n      add\n      0x40\n      mstore\n      swap1\n      dup2\n      0x00\n      dup3\n      add\n      0x00\n      swap1\n      sload\n      swap1\n      0x0100\n      exp\n      swap1\n      div\n      0xffffffffffffffffffffffffffffffffffffffff\n      and\n      0xffffffffffffffffffffffffffffffffffffffff\n      and\n      0xffffffffffffffffffffffffffffffffffffffff\n      and\n      dup2\n      mstore\n      0x20\n      add\n      0x01\n      dup3\n      add\n      sload\n      dup2\n      mstore\n      0x20\n      add\n      0x02\n      dup3\n      add\n      sload\n      dup2\n      mstore\n      0x20\n      add\n      0x03\n      dup3\n      add\n      0x00\n      swap1\n      sload\n      swap1\n      0x0100\n      exp\n      swap1\n      div\n      0xffffffffffffffffffffffffffffffffffffffff\n      and\n      0xffffffffffffffffffffffffffffffffffffffff\n      and\n      0xffffffffffffffffffffffffffffffffffffffff\n      and\n      dup2\n      mstore\n      0x20\n      add\n      0x04\n      dup3\n      add\n      0x00\n      swap1\n      sload\n      swap1\n      0x0100\n      exp\n      swap1\n      div\n      0xffffffffffffffffffffffffffffffffffffffff\n      and\n      0xffffffffffffffffffffffffffffffffffffffff\n      and\n      0xffffffffffffffffffffffffffffffffffffffff\n      and\n      dup2\n      mstore\n      0x20\n      add\n      0x05\n      dup3\n      add\n      0x00\n      swap1\n      sload\n      swap1\n      0x0100\n      exp\n      swap1\n      div\n      0xffffffffffffffffffffffffffffffffffffffff\n      and\n      0xffffffffffffffffffffffffffffffffffffffff\n      and\n      0xffffffffffffffffffffffffffffffffffffffff\n      and\n      dup2\n      mstore\n      0x20\n      add\n      0x05\n      dup3\n      add\n      0x14\n      swap1\n      sload\n      swap1\n      0x0100\n      exp\n      swap1\n      div\n      0xff\n      and\n      iszero\n      iszero\n      iszero\n      iszero\n      dup2\n      mstore\n      pop\n      pop\n        /* \"contracts/GeekNftMarketPlace.sol\":5548:5554  myNfts */\n      dup4\n        /* \"contracts/GeekNftMarketPlace.sol\":5555:5563  nftIndex */\n      dup4\n        /* \"contracts/GeekNftMarketPlace.sol\":5548:5564  myNfts[nftIndex] */\n      dup2\n      mload\n      dup2\n      lt\n      tag_141\n      jumpi\n      tag_142\n      tag_88\n      jump\t// in\n    tag_142:\n    tag_141:\n      0x20\n      mul\n      0x20\n      add\n      add\n        /* \"contracts/GeekNftMarketPlace.sol\":5548:5574  myNfts[nftIndex] = nfts[i] */\n      dup2\n      swap1\n      mstore\n      pop\n        /* \"contracts/GeekNftMarketPlace.sol\":5592:5603  nftIndex ++ */\n      dup2\n      dup1\n      tag_143\n      swap1\n      tag_118\n      jump\t// in\n    tag_143:\n      swap3\n      pop\n      pop\n        /* \"contracts/GeekNftMarketPlace.sol\":5479:5618  if(nfts[i].seller == msg.sender && nfts[i].listed) {... */\n    tag_137:\n        /* \"contracts/GeekNftMarketPlace.sol\":5460:5463  i++ */\n      dup1\n      dup1\n      tag_144\n      swap1\n      tag_118\n      jump\t// in\n    tag_144:\n      swap2\n      pop\n      pop\n        /* \"contracts/GeekNftMarketPlace.sol\":5428:5628  for (uint i = 0; i < nftsCount; i++) {... */\n      jump(tag_127)\n    tag_128:\n      pop\n        /* \"contracts/GeekNftMarketPlace.sol\":5645:5651  myNfts */\n      dup2\n        /* \"contracts/GeekNftMarketPlace.sol\":5638:5651  return myNfts */\n      swap5\n      pop\n      pop\n      pop\n      pop\n      pop\n        /* \"contracts/GeekNftMarketPlace.sol\":5029:5658  function getMyListedNfts() public view returns (NFT[] memory) {... */\n      swap1\n      jump\t// out\n        /* \"contracts/GeekNftMarketPlace.sol\":474:511  uint public LISTING_FEE = 0.002 ether */\n    tag_25:\n      sload(0x03)\n      dup2\n      jump\t// out\n        /* \"contracts/GeekNftMarketPlace.sol\":1446:1602  function getOwner(address _nftContract, uint _tokenId) public view returns (address){... */\n    tag_32:\n        /* \"contracts/GeekNftMarketPlace.sol\":1522:1529  address */\n      0x00\n        /* \"contracts/GeekNftMarketPlace.sol\":1564:1576  _nftContract */\n      dup3\n        /* \"contracts/GeekNftMarketPlace.sol\":1547:1585  GeekNftInterface(_nftContract).ownerOf */\n      0xffffffffffffffffffffffffffffffffffffffff\n      and\n      0x6352211e\n        /* \"contracts/GeekNftMarketPlace.sol\":1586:1594  _tokenId */\n      dup4\n        /* \"contracts/GeekNftMarketPlace.sol\":1547:1595  GeekNftInterface(_nftContract).ownerOf(_tokenId) */\n      mload(0x40)\n      dup3\n      0xffffffff\n      and\n      0xe0\n      shl\n      dup2\n      mstore\n      0x04\n      add\n      tag_146\n      swap2\n      swap1\n      tag_27\n      jump\t// in\n    tag_146:\n      0x20\n      mload(0x40)\n      dup1\n      dup4\n      sub\n      dup2\n      dup7\n      dup1\n      extcodesize\n      iszero\n      dup1\n      iszero\n      tag_147\n      jumpi\n      0x00\n      dup1\n      revert\n    tag_147:\n      pop\n      gas\n      staticcall\n      iszero\n      dup1\n      iszero\n      tag_149\n      jumpi\n      returndatasize\n      0x00\n      dup1\n      returndatacopy\n      revert(0x00, returndatasize)\n    tag_149:\n      pop\n      pop\n      pop\n      pop\n      mload(0x40)\n      returndatasize\n      not(0x1f)\n      0x1f\n      dup3\n      add\n      and\n      dup3\n      add\n      dup1\n      0x40\n      mstore\n      pop\n      dup2\n      add\n      swap1\n      tag_150\n      swap2\n      swap1\n      tag_151\n      jump\t// in\n    tag_150:\n        /* \"contracts/GeekNftMarketPlace.sol\":1540:1595  return GeekNftInterface(_nftContract).ownerOf(_tokenId) */\n      swap1\n      pop\n        /* \"contracts/GeekNftMarketPlace.sol\":1446:1602  function getOwner(address _nftContract, uint _tokenId) public view returns (address){... */\n      swap3\n      swap2\n      pop\n      pop\n      jump\t// out\n        /* \"contracts/GeekNftMarketPlace.sol\":2296:2983  function buyNft(address _nftContract, uint _tokenId) public payable nonReentrant{... */\n    tag_37:\n        /* \"contracts/RenntrancyGuard.sol\":171:172  2 */\n      0x02\n        /* \"contracts/RenntrancyGuard.sol\":310:317  _status */\n      sload(0x00)\n        /* \"contracts/RenntrancyGuard.sol\":310:329  _status != _ENTERED */\n      eq\n      iszero\n        /* \"contracts/RenntrancyGuard.sol\":302:365  require(_status != _ENTERED, \"ReentrancyGuard: reentrant call\") */\n      tag_153\n      jumpi\n      mload(0x40)\n      0x08c379a000000000000000000000000000000000000000000000000000000000\n      dup2\n      mstore\n      0x04\n      add\n      tag_154\n      swap1\n      tag_66\n      jump\t// in\n    tag_154:\n      mload(0x40)\n      dup1\n      swap2\n      sub\n      swap1\n      revert\n    tag_153:\n        /* \"contracts/RenntrancyGuard.sol\":171:172  2 */\n      0x02\n        /* \"contracts/RenntrancyGuard.sol\":375:382  _status */\n      0x00\n        /* \"contracts/RenntrancyGuard.sol\":375:393  _status = _ENTERED */\n      dup2\n      swap1\n      sstore\n      pop\n        /* \"contracts/GeekNftMarketPlace.sol\":2386:2400  NFT memory nft */\n      tag_156\n      tag_126\n      jump\t// in\n    tag_156:\n        /* \"contracts/GeekNftMarketPlace.sol\":2410:2419  int index */\n      0x00\n        /* \"contracts/GeekNftMarketPlace.sol\":2444:2474  getNFT(_nftContract, _tokenId) */\n      tag_157\n        /* \"contracts/GeekNftMarketPlace.sol\":2451:2463  _nftContract */\n      dup5\n        /* \"contracts/GeekNftMarketPlace.sol\":2465:2473  _tokenId */\n      dup5\n        /* \"contracts/GeekNftMarketPlace.sol\":2444:2450  getNFT */\n      tag_77\n        /* \"contracts/GeekNftMarketPlace.sol\":2444:2474  getNFT(_nftContract, _tokenId) */\n      jump\t// in\n    tag_157:\n        /* \"contracts/GeekNftMarketPlace.sol\":2429:2474  (nft, index) = getNFT(_nftContract, _tokenId) */\n      dup1\n      swap3\n      pop\n      dup2\n      swap4\n      pop\n      pop\n      pop\n        /* \"contracts/GeekNftMarketPlace.sol\":2501:2503  -1 */\n      0xffffffffffffffffffffffffffffffffffffffffffffffffffffffffffffffff\n        /* \"contracts/GeekNftMarketPlace.sol\":2492:2497  index */\n      dup2\n        /* \"contracts/GeekNftMarketPlace.sol\":2492:2503  index != -1 */\n      eq\n      iszero\n        /* \"contracts/GeekNftMarketPlace.sol\":2484:2521  require(index != -1, \"Nft not found\") */\n      tag_158\n      jumpi\n      mload(0x40)\n      0x08c379a000000000000000000000000000000000000000000000000000000000\n      dup2\n      mstore\n      0x04\n      add\n      tag_159\n      swap1\n      tag_80\n      jump\t// in\n    tag_159:\n      mload(0x40)\n      dup1\n      swap2\n      sub\n      swap1\n      revert\n    tag_158:\n        /* \"contracts/GeekNftMarketPlace.sol\":2552:2555  nft */\n      dup2\n        /* \"contracts/GeekNftMarketPlace.sol\":2552:2561  nft.price */\n      0x40\n      add\n      mload\n        /* \"contracts/GeekNftMarketPlace.sol\":2539:2548  msg.value */\n      callvalue\n        /* \"contracts/GeekNftMarketPlace.sol\":2539:2561  msg.value >= nft.price */\n      lt\n      iszero\n        /* \"contracts/GeekNftMarketPlace.sol\":2531:2604  require(msg.value >= nft.price, \"Not enough ether to cover asking price\") */\n      tag_160\n      jumpi\n      mload(0x40)\n      0x08c379a000000000000000000000000000000000000000000000000000000000\n      dup2\n      mstore\n      0x04\n      add\n      tag_161\n      swap1\n      tag_162\n      jump\t// in\n    tag_161:\n      mload(0x40)\n      dup1\n      swap2\n      sub\n      swap1\n      revert\n    tag_160:\n        /* \"contracts/GeekNftMarketPlace.sol\":2615:2636  address payable buyer */\n      0x00\n        /* \"contracts/GeekNftMarketPlace.sol\":2647:2657  msg.sender */\n      caller\n        /* \"contracts/GeekNftMarketPlace.sol\":2615:2658  address payable buyer = payable(msg.sender) */\n      swap1\n      pop\n        /* \"contracts/GeekNftMarketPlace.sol\":2668:2671  nft */\n      dup3\n        /* \"contracts/GeekNftMarketPlace.sol\":2668:2678  nft.seller */\n      0x60\n      add\n      mload\n        /* \"contracts/GeekNftMarketPlace.sol\":2668:2687  nft.seller.transfer */\n      0xffffffffffffffffffffffffffffffffffffffff\n      and\n        /* \"contracts/GeekNftMarketPlace.sol\":2668:2698  nft.seller.transfer(msg.value) */\n      0x08fc\n        /* \"contracts/GeekNftMarketPlace.sol\":2688:2697  msg.value */\n      callvalue\n        /* \"contracts/GeekNftMarketPlace.sol\":2668:2698  nft.seller.transfer(msg.value) */\n      swap1\n      dup2\n      iszero\n      mul\n      swap1\n      mload(0x40)\n      0x00\n      mload(0x40)\n      dup1\n      dup4\n      sub\n      dup2\n      dup6\n      dup9\n      dup9\n      call\n      swap4\n      pop\n      pop\n      pop\n      pop\n      iszero\n      dup1\n      iszero\n      tag_164\n      jumpi\n      returndatasize\n      0x00\n      dup1\n      returndatacopy\n      revert(0x00, returndatasize)\n    tag_164:\n      pop\n        /* \"contracts/GeekNftMarketPlace.sol\":2726:2738  _nftContract */\n      dup5\n        /* \"contracts/GeekNftMarketPlace.sol\":2709:2752  GeekNftInterface(_nftContract).transferFrom */\n      0xffffffffffffffffffffffffffffffffffffffff\n      and\n      0x23b872dd\n        /* \"contracts/GeekNftMarketPlace.sol\":2761:2765  this */\n      address\n        /* \"contracts/GeekNftMarketPlace.sol\":2768:2773  buyer */\n      dup4\n        /* \"contracts/GeekNftMarketPlace.sol\":2775:2783  _tokenId */\n      dup8\n        /* \"contracts/GeekNftMarketPlace.sol\":2709:2784  GeekNftInterface(_nftContract).transferFrom(address(this), buyer, _tokenId) */\n      mload(0x40)\n      dup5\n      0xffffffff\n      and\n      0xe0\n      shl\n      dup2\n      mstore\n      0x04\n      add\n      tag_165\n      swap4\n      swap3\n      swap2\n      swap1\n      tag_166\n      jump\t// in\n    tag_165:\n      0x00\n      mload(0x40)\n      dup1\n      dup4\n      sub\n      dup2\n      0x00\n      dup8\n      dup1\n      extcodesize\n      iszero\n      dup1\n      iszero\n      tag_167\n      jumpi\n      0x00\n      dup1\n      revert\n    tag_167:\n      pop\n      gas\n      call\n      iszero\n      dup1\n      iszero\n      tag_169\n      jumpi\n      returndatasize\n      0x00\n      dup1\n      returndatacopy\n      revert(0x00, returndatasize)\n    tag_169:\n      pop\n      pop\n      pop\n      pop\n        /* \"contracts/GeekNftMarketPlace.sol\":2820:2825  buyer */\n      dup1\n        /* \"contracts/GeekNftMarketPlace.sol\":2794:2798  nfts */\n      0x05\n        /* \"contracts/GeekNftMarketPlace.sol\":2804:2809  index */\n      dup4\n        /* \"contracts/GeekNftMarketPlace.sol\":2794:2811  nfts[uint(index)] */\n      dup2\n      sload\n      dup2\n      lt\n      tag_170\n      jumpi\n      tag_171\n      tag_88\n      jump\t// in\n    tag_171:\n    tag_170:\n      swap1\n      0x00\n      mstore\n      keccak256(0x00, 0x20)\n      swap1\n      0x06\n      mul\n      add\n        /* \"contracts/GeekNftMarketPlace.sol\":2794:2817  nfts[uint(index)].owner */\n      0x04\n      add\n      0x00\n        /* \"contracts/GeekNftMarketPlace.sol\":2794:2825  nfts[uint(index)].owner = buyer */\n      0x0100\n      exp\n      dup2\n      sload\n      dup2\n      0xffffffffffffffffffffffffffffffffffffffff\n      mul\n      not\n      and\n      swap1\n      dup4\n      0xffffffffffffffffffffffffffffffffffffffff\n      and\n      mul\n      or\n      swap1\n      sstore\n      pop\n        /* \"contracts/GeekNftMarketPlace.sol\":2862:2867  false */\n      0x00\n        /* \"contracts/GeekNftMarketPlace.sol\":2835:2839  nfts */\n      0x05\n        /* \"contracts/GeekNftMarketPlace.sol\":2845:2850  index */\n      dup4\n        /* \"contracts/GeekNftMarketPlace.sol\":2835:2852  nfts[uint(index)] */\n      dup2\n      sload\n      dup2\n      lt\n      tag_173\n      jumpi\n      tag_174\n      tag_88\n      jump\t// in\n    tag_174:\n    tag_173:\n      swap1\n      0x00\n      mstore\n      keccak256(0x00, 0x20)\n      swap1\n      0x06\n      mul\n      add\n        /* \"contracts/GeekNftMarketPlace.sol\":2835:2859  nfts[uint(index)].listed */\n      0x05\n      add\n      0x14\n        /* \"contracts/GeekNftMarketPlace.sol\":2835:2867  nfts[uint(index)].listed = false */\n      0x0100\n      exp\n      dup2\n      sload\n      dup2\n      0xff\n      mul\n      not\n      and\n      swap1\n      dup4\n      iszero\n      iszero\n      mul\n      or\n      swap1\n      sstore\n      pop\n        /* \"contracts/GeekNftMarketPlace.sol\":2878:2899  _nftsSold.increment() */\n      tag_176\n        /* \"contracts/GeekNftMarketPlace.sol\":2878:2887  _nftsSold */\n      0x01\n        /* \"contracts/GeekNftMarketPlace.sol\":2878:2897  _nftsSold.increment */\n      tag_177\n        /* \"contracts/GeekNftMarketPlace.sol\":2878:2899  _nftsSold.increment() */\n      jump\t// in\n    tag_176:\n        /* \"contracts/GeekNftMarketPlace.sol\":2959:2964  buyer */\n      dup1\n        /* \"contracts/GeekNftMarketPlace.sol\":2915:2976  NFTSold(_nftContract, _tokenId, nft.seller, buyer, msg.value) */\n      0xffffffffffffffffffffffffffffffffffffffff\n      and\n        /* \"contracts/GeekNftMarketPlace.sol\":2947:2950  nft */\n      dup4\n        /* \"contracts/GeekNftMarketPlace.sol\":2947:2957  nft.seller */\n      0x60\n      add\n      mload\n        /* \"contracts/GeekNftMarketPlace.sol\":2915:2976  NFTSold(_nftContract, _tokenId, nft.seller, buyer, msg.value) */\n      0xffffffffffffffffffffffffffffffffffffffff\n      and\n      0x16f1dbd97e6bf646d429ed186cce832f1f7fd9907814293b83181e9970ab7bd2\n        /* \"contracts/GeekNftMarketPlace.sol\":2923:2935  _nftContract */\n      dup8\n        /* \"contracts/GeekNftMarketPlace.sol\":2937:2945  _tokenId */\n      dup8\n        /* \"contracts/GeekNftMarketPlace.sol\":2966:2975  msg.value */\n      callvalue\n        /* \"contracts/GeekNftMarketPlace.sol\":2915:2976  NFTSold(_nftContract, _tokenId, nft.seller, buyer, msg.value) */\n      mload(0x40)\n      tag_178\n      swap4\n      swap3\n      swap2\n      swap1\n      tag_102\n      jump\t// in\n    tag_178:\n      mload(0x40)\n      dup1\n      swap2\n      sub\n      swap1\n      log3\n        /* \"contracts/GeekNftMarketPlace.sol\":2376:2983  {... */\n      pop\n      pop\n      pop\n        /* \"contracts/RenntrancyGuard.sol\":128:129  1 */\n      0x01\n        /* \"contracts/RenntrancyGuard.sol\":414:421  _status */\n      0x00\n        /* \"contracts/RenntrancyGuard.sol\":414:436  _status = _NOT_ENTERED */\n      dup2\n      swap1\n      sstore\n      pop\n        /* \"contracts/GeekNftMarketPlace.sol\":2296:2983  function buyNft(address _nftContract, uint _tokenId) public payable nonReentrant{... */\n      pop\n      pop\n      jump\t// out\n        /* \"contracts/GeekNftMarketPlace.sol\":4392:4988  function getMyCreatedNfts() public view returns (NFT[] memory) {... */\n    tag_40:\n        /* \"contracts/GeekNftMarketPlace.sol\":4441:4453  NFT[] memory */\n      0x60\n        /* \"contracts/GeekNftMarketPlace.sol\":4465:4479  uint nftsCount */\n      0x00\n        /* \"contracts/GeekNftMarketPlace.sol\":4482:4502  _nftsCount.current() */\n      tag_180\n        /* \"contracts/GeekNftMarketPlace.sol\":4482:4492  _nftsCount */\n      0x02\n        /* \"contracts/GeekNftMarketPlace.sol\":4482:4500  _nftsCount.current */\n      tag_105\n        /* \"contracts/GeekNftMarketPlace.sol\":4482:4502  _nftsCount.current() */\n      jump\t// in\n    tag_180:\n        /* \"contracts/GeekNftMarketPlace.sol\":4465:4502  uint nftsCount = _nftsCount.current() */\n      swap1\n      pop\n        /* \"contracts/GeekNftMarketPlace.sol\":4512:4528  uint myNftsCount */\n      0x00\n        /* \"contracts/GeekNftMarketPlace.sol\":4547:4553  uint i */\n      dup1\n        /* \"contracts/GeekNftMarketPlace.sol\":4542:4684  for (uint i = 0; i < nftsCount; i++) {... */\n    tag_181:\n        /* \"contracts/GeekNftMarketPlace.sol\":4563:4572  nftsCount */\n      dup3\n        /* \"contracts/GeekNftMarketPlace.sol\":4559:4560  i */\n      dup2\n        /* \"contracts/GeekNftMarketPlace.sol\":4559:4572  i < nftsCount */\n      lt\n        /* \"contracts/GeekNftMarketPlace.sol\":4542:4684  for (uint i = 0; i < nftsCount; i++) {... */\n      iszero\n      tag_182\n      jumpi\n        /* \"contracts/GeekNftMarketPlace.sol\":4615:4625  msg.sender */\n      caller\n        /* \"contracts/GeekNftMarketPlace.sol\":4596:4625  nfts[i].creator == msg.sender */\n      0xffffffffffffffffffffffffffffffffffffffff\n      and\n        /* \"contracts/GeekNftMarketPlace.sol\":4596:4600  nfts */\n      0x05\n        /* \"contracts/GeekNftMarketPlace.sol\":4601:4602  i */\n      dup3\n        /* \"contracts/GeekNftMarketPlace.sol\":4596:4603  nfts[i] */\n      dup2\n      sload\n      dup2\n      lt\n      tag_184\n      jumpi\n      tag_185\n      tag_88\n      jump\t// in\n    tag_185:\n    tag_184:\n      swap1\n      0x00\n      mstore\n      keccak256(0x00, 0x20)\n      swap1\n      0x06\n      mul\n      add\n        /* \"contracts/GeekNftMarketPlace.sol\":4596:4611  nfts[i].creator */\n      0x05\n      add\n      0x00\n      swap1\n      sload\n      swap1\n      0x0100\n      exp\n      swap1\n      div\n      0xffffffffffffffffffffffffffffffffffffffff\n      and\n        /* \"contracts/GeekNftMarketPlace.sol\":4596:4625  nfts[i].creator == msg.sender */\n      0xffffffffffffffffffffffffffffffffffffffff\n      and\n      eq\n        /* \"contracts/GeekNftMarketPlace.sol\":4593:4674  if(nfts[i].creator == msg.sender) {... */\n      iszero\n      tag_187\n      jumpi\n        /* \"contracts/GeekNftMarketPlace.sol\":4645:4659  myNftsCount ++ */\n      dup2\n      dup1\n      tag_188\n      swap1\n      tag_118\n      jump\t// in\n    tag_188:\n      swap3\n      pop\n      pop\n        /* \"contracts/GeekNftMarketPlace.sol\":4593:4674  if(nfts[i].creator == msg.sender) {... */\n    tag_187:\n        /* \"contracts/GeekNftMarketPlace.sol\":4574:4577  i++ */\n      dup1\n      dup1\n      tag_189\n      swap1\n      tag_118\n      jump\t// in\n    tag_189:\n      swap2\n      pop\n      pop\n        /* \"contracts/GeekNftMarketPlace.sol\":4542:4684  for (uint i = 0; i < nftsCount; i++) {... */\n      jump(tag_181)\n    tag_182:\n      pop\n        /* \"contracts/GeekNftMarketPlace.sol\":4694:4713  NFT[] memory myNfts */\n      0x00\n        /* \"contracts/GeekNftMarketPlace.sol\":4726:4737  myNftsCount */\n      dup2\n        /* \"contracts/GeekNftMarketPlace.sol\":4716:4738  new NFT[](myNftsCount) */\n      0xffffffffffffffff\n      dup2\n      gt\n      iszero\n      tag_190\n      jumpi\n      tag_191\n      tag_122\n      jump\t// in\n    tag_191:\n    tag_190:\n      mload(0x40)\n      swap1\n      dup1\n      dup3\n      mstore\n      dup1\n      0x20\n      mul\n      0x20\n      add\n      dup3\n      add\n      0x40\n      mstore\n      dup1\n      iszero\n      tag_192\n      jumpi\n      dup2\n      0x20\n      add\n    tag_193:\n      tag_194\n      tag_126\n      jump\t// in\n    tag_194:\n      dup2\n      mstore\n      0x20\n      add\n      swap1\n      0x01\n      swap1\n      sub\n      swap1\n      dup2\n      tag_193\n      jumpi\n      swap1\n      pop\n    tag_192:\n      pop\n        /* \"contracts/GeekNftMarketPlace.sol\":4694:4738  NFT[] memory myNfts = new NFT[](myNftsCount) */\n      swap1\n      pop\n        /* \"contracts/GeekNftMarketPlace.sol\":4748:4761  uint nftIndex */\n      0x00\n        /* \"contracts/GeekNftMarketPlace.sol\":4780:4786  uint i */\n      dup1\n        /* \"contracts/GeekNftMarketPlace.sol\":4775:4958  for (uint i = 0; i < nftsCount; i++) {... */\n    tag_195:\n        /* \"contracts/GeekNftMarketPlace.sol\":4796:4805  nftsCount */\n      dup5\n        /* \"contracts/GeekNftMarketPlace.sol\":4792:4793  i */\n      dup2\n        /* \"contracts/GeekNftMarketPlace.sol\":4792:4805  i < nftsCount */\n      lt\n        /* \"contracts/GeekNftMarketPlace.sol\":4775:4958  for (uint i = 0; i < nftsCount; i++) {... */\n      iszero\n      tag_196\n      jumpi\n        /* \"contracts/GeekNftMarketPlace.sol\":4848:4858  msg.sender */\n      caller\n        /* \"contracts/GeekNftMarketPlace.sol\":4829:4858  nfts[i].creator == msg.sender */\n      0xffffffffffffffffffffffffffffffffffffffff\n      and\n        /* \"contracts/GeekNftMarketPlace.sol\":4829:4833  nfts */\n      0x05\n        /* \"contracts/GeekNftMarketPlace.sol\":4834:4835  i */\n      dup3\n        /* \"contracts/GeekNftMarketPlace.sol\":4829:4836  nfts[i] */\n      dup2\n      sload\n      dup2\n      lt\n      tag_198\n      jumpi\n      tag_199\n      tag_88\n      jump\t// in\n    tag_199:\n    tag_198:\n      swap1\n      0x00\n      mstore\n      keccak256(0x00, 0x20)\n      swap1\n      0x06\n      mul\n      add\n        /* \"contracts/GeekNftMarketPlace.sol\":4829:4844  nfts[i].creator */\n      0x05\n      add\n      0x00\n      swap1\n      sload\n      swap1\n      0x0100\n      exp\n      swap1\n      div\n      0xffffffffffffffffffffffffffffffffffffffff\n      and\n        /* \"contracts/GeekNftMarketPlace.sol\":4829:4858  nfts[i].creator == msg.sender */\n      0xffffffffffffffffffffffffffffffffffffffff\n      and\n      eq\n        /* \"contracts/GeekNftMarketPlace.sol\":4826:4948  if(nfts[i].creator == msg.sender) {... */\n      iszero\n      tag_201\n      jumpi\n        /* \"contracts/GeekNftMarketPlace.sol\":4897:4901  nfts */\n      0x05\n        /* \"contracts/GeekNftMarketPlace.sol\":4902:4903  i */\n      dup2\n        /* \"contracts/GeekNftMarketPlace.sol\":4897:4904  nfts[i] */\n      dup2\n      sload\n      dup2\n      lt\n      tag_202\n      jumpi\n      tag_203\n      tag_88\n      jump\t// in\n    tag_203:\n    tag_202:\n      swap1\n      0x00\n      mstore\n      keccak256(0x00, 0x20)\n      swap1\n      0x06\n      mul\n      add\n        /* \"contracts/GeekNftMarketPlace.sol\":4878:4904  myNfts[nftIndex] = nfts[i] */\n      mload(0x40)\n      dup1\n      0xe0\n      add\n      0x40\n      mstore\n      swap1\n      dup2\n      0x00\n      dup3\n      add\n      0x00\n      swap1\n      sload\n      swap1\n      0x0100\n      exp\n      swap1\n      div\n      0xffffffffffffffffffffffffffffffffffffffff\n      and\n      0xffffffffffffffffffffffffffffffffffffffff\n      and\n      0xffffffffffffffffffffffffffffffffffffffff\n      and\n      dup2\n      mstore\n      0x20\n      add\n      0x01\n      dup3\n      add\n      sload\n      dup2\n      mstore\n      0x20\n      add\n      0x02\n      dup3\n      add\n      sload\n      dup2\n      mstore\n      0x20\n      add\n      0x03\n      dup3\n      add\n      0x00\n      swap1\n      sload\n      swap1\n      0x0100\n      exp\n      swap1\n      div\n      0xffffffffffffffffffffffffffffffffffffffff\n      and\n      0xffffffffffffffffffffffffffffffffffffffff\n      and\n      0xffffffffffffffffffffffffffffffffffffffff\n      and\n      dup2\n      mstore\n      0x20\n      add\n      0x04\n      dup3\n      add\n      0x00\n      swap1\n      sload\n      swap1\n      0x0100\n      exp\n      swap1\n      div\n      0xffffffffffffffffffffffffffffffffffffffff\n      and\n      0xffffffffffffffffffffffffffffffffffffffff\n      and\n      0xffffffffffffffffffffffffffffffffffffffff\n      and\n      dup2\n      mstore\n      0x20\n      add\n      0x05\n      dup3\n      add\n      0x00\n      swap1\n      sload\n      swap1\n      0x0100\n      exp\n      swap1\n      div\n      0xffffffffffffffffffffffffffffffffffffffff\n      and\n      0xffffffffffffffffffffffffffffffffffffffff\n      and\n      0xffffffffffffffffffffffffffffffffffffffff\n      and\n      dup2\n      mstore\n      0x20\n      add\n      0x05\n      dup3\n      add\n      0x14\n      swap1\n      sload\n      swap1\n      0x0100\n      exp\n      swap1\n      div\n      0xff\n      and\n      iszero\n      iszero\n      iszero\n      iszero\n      dup2\n      mstore\n      pop\n      pop\n        /* \"contracts/GeekNftMarketPlace.sol\":4878:4884  myNfts */\n      dup4\n        /* \"contracts/GeekNftMarketPlace.sol\":4885:4893  nftIndex */\n      dup4\n        /* \"contracts/GeekNftMarketPlace.sol\":4878:4894  myNfts[nftIndex] */\n      dup2\n      mload\n      dup2\n      lt\n      tag_205\n      jumpi\n      tag_206\n      tag_88\n      jump\t// in\n    tag_206:\n    tag_205:\n      0x20\n      mul\n      0x20\n      add\n      add\n        /* \"contracts/GeekNftMarketPlace.sol\":4878:4904  myNfts[nftIndex] = nfts[i] */\n      dup2\n      swap1\n      mstore\n      pop\n        /* \"contracts/GeekNftMarketPlace.sol\":4922:4933  nftIndex ++ */\n      dup2\n      dup1\n      tag_207\n      swap1\n      tag_118\n      jump\t// in\n    tag_207:\n      swap3\n      pop\n      pop\n        /* \"contracts/GeekNftMarketPlace.sol\":4826:4948  if(nfts[i].creator == msg.sender) {... */\n    tag_201:\n        /* \"contracts/GeekNftMarketPlace.sol\":4807:4810  i++ */\n      dup1\n      dup1\n      tag_208\n      swap1\n      tag_118\n      jump\t// in\n    tag_208:\n      swap2\n      pop\n      pop\n        /* \"contracts/GeekNftMarketPlace.sol\":4775:4958  for (uint i = 0; i < nftsCount; i++) {... */\n      jump(tag_195)\n    tag_196:\n      pop\n        /* \"contracts/GeekNftMarketPlace.sol\":4975:4981  myNfts */\n      dup2\n        /* \"contracts/GeekNftMarketPlace.sol\":4968:4981  return myNfts */\n      swap5\n      pop\n      pop\n      pop\n      pop\n      pop\n        /* \"contracts/GeekNftMarketPlace.sol\":4392:4988  function getMyCreatedNfts() public view returns (NFT[] memory) {... */\n      swap1\n      jump\t// out\n        /* \"contracts/GeekNftMarketPlace.sol\":6333:6799  function getListedNfts() public view returns (NFT[] memory) {... */\n    tag_44:\n        /* \"contracts/GeekNftMarketPlace.sol\":6379:6391  NFT[] memory */\n      0x60\n        /* \"contracts/GeekNftMarketPlace.sol\":6403:6419  uint256 nftCount */\n      0x00\n        /* \"contracts/GeekNftMarketPlace.sol\":6422:6442  _nftsCount.current() */\n      tag_210\n        /* \"contracts/GeekNftMarketPlace.sol\":6422:6432  _nftsCount */\n      0x02\n        /* \"contracts/GeekNftMarketPlace.sol\":6422:6440  _nftsCount.current */\n      tag_105\n        /* \"contracts/GeekNftMarketPlace.sol\":6422:6442  _nftsCount.current() */\n      jump\t// in\n    tag_210:\n        /* \"contracts/GeekNftMarketPlace.sol\":6403:6442  uint256 nftCount = _nftsCount.current() */\n      swap1\n      pop\n        /* \"contracts/GeekNftMarketPlace.sol\":6452:6475  uint256 unsoldNftsCount */\n      0x00\n        /* \"contracts/GeekNftMarketPlace.sol\":6489:6508  _nftsSold.current() */\n      tag_211\n        /* \"contracts/GeekNftMarketPlace.sol\":6489:6498  _nftsSold */\n      0x01\n        /* \"contracts/GeekNftMarketPlace.sol\":6489:6506  _nftsSold.current */\n      tag_105\n        /* \"contracts/GeekNftMarketPlace.sol\":6489:6508  _nftsSold.current() */\n      jump\t// in\n    tag_211:\n        /* \"contracts/GeekNftMarketPlace.sol\":6478:6486  nftCount */\n      dup3\n        /* \"contracts/GeekNftMarketPlace.sol\":6478:6508  nftCount - _nftsSold.current() */\n      tag_212\n      swap2\n      swap1\n      tag_213\n      jump\t// in\n    tag_212:\n        /* \"contracts/GeekNftMarketPlace.sol\":6452:6508  uint256 unsoldNftsCount = nftCount - _nftsSold.current() */\n      swap1\n      pop\n        /* \"contracts/GeekNftMarketPlace.sol\":6519:6542  NFT[] memory listedNfts */\n      0x00\n        /* \"contracts/GeekNftMarketPlace.sol\":6555:6570  unsoldNftsCount */\n      dup2\n        /* \"contracts/GeekNftMarketPlace.sol\":6545:6571  new NFT[](unsoldNftsCount) */\n      0xffffffffffffffff\n      dup2\n      gt\n      iszero\n      tag_214\n      jumpi\n      tag_215\n      tag_122\n      jump\t// in\n    tag_215:\n    tag_214:\n      mload(0x40)\n      swap1\n      dup1\n      dup3\n      mstore\n      dup1\n      0x20\n      mul\n      0x20\n      add\n      dup3\n      add\n      0x40\n      mstore\n      dup1\n      iszero\n      tag_216\n      jumpi\n      dup2\n      0x20\n      add\n    tag_217:\n      tag_218\n      tag_126\n      jump\t// in\n    tag_218:\n      dup2\n      mstore\n      0x20\n      add\n      swap1\n      0x01\n      swap1\n      sub\n      swap1\n      dup2\n      tag_217\n      jumpi\n      swap1\n      pop\n    tag_216:\n      pop\n        /* \"contracts/GeekNftMarketPlace.sol\":6519:6571  NFT[] memory listedNfts = new NFT[](unsoldNftsCount) */\n      swap1\n      pop\n        /* \"contracts/GeekNftMarketPlace.sol\":6581:6595  uint nftsIndex */\n      0x00\n        /* \"contracts/GeekNftMarketPlace.sol\":6614:6620  uint i */\n      dup1\n        /* \"contracts/GeekNftMarketPlace.sol\":6609:6766  for (uint i = 0; i < nftCount; i++) {... */\n    tag_219:\n        /* \"contracts/GeekNftMarketPlace.sol\":6630:6638  nftCount */\n      dup5\n        /* \"contracts/GeekNftMarketPlace.sol\":6626:6627  i */\n      dup2\n        /* \"contracts/GeekNftMarketPlace.sol\":6626:6638  i < nftCount */\n      lt\n        /* \"contracts/GeekNftMarketPlace.sol\":6609:6766  for (uint i = 0; i < nftCount; i++) {... */\n      iszero\n      tag_220\n      jumpi\n        /* \"contracts/GeekNftMarketPlace.sol\":6659:6663  nfts */\n      0x05\n        /* \"contracts/GeekNftMarketPlace.sol\":6664:6665  i */\n      dup2\n        /* \"contracts/GeekNftMarketPlace.sol\":6659:6666  nfts[i] */\n      dup2\n      sload\n      dup2\n      lt\n      tag_222\n      jumpi\n      tag_223\n      tag_88\n      jump\t// in\n    tag_223:\n    tag_222:\n      swap1\n      0x00\n      mstore\n      keccak256(0x00, 0x20)\n      swap1\n      0x06\n      mul\n      add\n        /* \"contracts/GeekNftMarketPlace.sol\":6659:6673  nfts[i].listed */\n      0x05\n      add\n      0x14\n      swap1\n      sload\n      swap1\n      0x0100\n      exp\n      swap1\n      div\n      0xff\n      and\n        /* \"contracts/GeekNftMarketPlace.sol\":6655:6756  if (nfts[i].listed) {... */\n      iszero\n      tag_225\n      jumpi\n        /* \"contracts/GeekNftMarketPlace.sol\":6713:6717  nfts */\n      0x05\n        /* \"contracts/GeekNftMarketPlace.sol\":6718:6719  i */\n      dup2\n        /* \"contracts/GeekNftMarketPlace.sol\":6713:6720  nfts[i] */\n      dup2\n      sload\n      dup2\n      lt\n      tag_226\n      jumpi\n      tag_227\n      tag_88\n      jump\t// in\n    tag_227:\n    tag_226:\n      swap1\n      0x00\n      mstore\n      keccak256(0x00, 0x20)\n      swap1\n      0x06\n      mul\n      add\n        /* \"contracts/GeekNftMarketPlace.sol\":6689:6720  listedNfts[nftsIndex] = nfts[i] */\n      mload(0x40)\n      dup1\n      0xe0\n      add\n      0x40\n      mstore\n      swap1\n      dup2\n      0x00\n      dup3\n      add\n      0x00\n      swap1\n      sload\n      swap1\n      0x0100\n      exp\n      swap1\n      div\n      0xffffffffffffffffffffffffffffffffffffffff\n      and\n      0xffffffffffffffffffffffffffffffffffffffff\n      and\n      0xffffffffffffffffffffffffffffffffffffffff\n      and\n      dup2\n      mstore\n      0x20\n      add\n      0x01\n      dup3\n      add\n      sload\n      dup2\n      mstore\n      0x20\n      add\n      0x02\n      dup3\n      add\n      sload\n      dup2\n      mstore\n      0x20\n      add\n      0x03\n      dup3\n      add\n      0x00\n      swap1\n      sload\n      swap1\n      0x0100\n      exp\n      swap1\n      div\n      0xffffffffffffffffffffffffffffffffffffffff\n      and\n      0xffffffffffffffffffffffffffffffffffffffff\n      and\n      0xffffffffffffffffffffffffffffffffffffffff\n      and\n      dup2\n      mstore\n      0x20\n      add\n      0x04\n      dup3\n      add\n      0x00\n      swap1\n      sload\n      swap1\n      0x0100\n      exp\n      swap1\n      div\n      0xffffffffffffffffffffffffffffffffffffffff\n      and\n      0xffffffffffffffffffffffffffffffffffffffff\n      and\n      0xffffffffffffffffffffffffffffffffffffffff\n      and\n      dup2\n      mstore\n      0x20\n      add\n      0x05\n      dup3\n      add\n      0x00\n      swap1\n      sload\n      swap1\n      0x0100\n      exp\n      swap1\n      div\n      0xffffffffffffffffffffffffffffffffffffffff\n      and\n      0xffffffffffffffffffffffffffffffffffffffff\n      and\n      0xffffffffffffffffffffffffffffffffffffffff\n      and\n      dup2\n      mstore\n      0x20\n      add\n      0x05\n      dup3\n      add\n      0x14\n      swap1\n      sload\n      swap1\n      0x0100\n      exp\n      swap1\n      div\n      0xff\n      and\n      iszero\n      iszero\n      iszero\n      iszero\n      dup2\n      mstore\n      pop\n      pop\n        /* \"contracts/GeekNftMarketPlace.sol\":6689:6699  listedNfts */\n      dup4\n        /* \"contracts/GeekNftMarketPlace.sol\":6700:6709  nftsIndex */\n      dup4\n        /* \"contracts/GeekNftMarketPlace.sol\":6689:6710  listedNfts[nftsIndex] */\n      dup2\n      mload\n      dup2\n      lt\n      tag_229\n      jumpi\n      tag_230\n      tag_88\n      jump\t// in\n    tag_230:\n    tag_229:\n      0x20\n      mul\n      0x20\n      add\n      add\n        /* \"contracts/GeekNftMarketPlace.sol\":6689:6720  listedNfts[nftsIndex] = nfts[i] */\n      dup2\n      swap1\n      mstore\n      pop\n        /* \"contracts/GeekNftMarketPlace.sol\":6734:6745  nftsIndex++ */\n      dup2\n      dup1\n      tag_231\n      swap1\n      tag_118\n      jump\t// in\n    tag_231:\n      swap3\n      pop\n      pop\n        /* \"contracts/GeekNftMarketPlace.sol\":6655:6756  if (nfts[i].listed) {... */\n    tag_225:\n        /* \"contracts/GeekNftMarketPlace.sol\":6640:6643  i++ */\n      dup1\n      dup1\n      tag_232\n      swap1\n      tag_118\n      jump\t// in\n    tag_232:\n      swap2\n      pop\n      pop\n        /* \"contracts/GeekNftMarketPlace.sol\":6609:6766  for (uint i = 0; i < nftCount; i++) {... */\n      jump(tag_219)\n    tag_220:\n      pop\n        /* \"contracts/GeekNftMarketPlace.sol\":6782:6792  listedNfts */\n      dup2\n        /* \"contracts/GeekNftMarketPlace.sol\":6775:6792  return listedNfts */\n      swap5\n      pop\n      pop\n      pop\n      pop\n      pop\n        /* \"contracts/GeekNftMarketPlace.sol\":6333:6799  function getListedNfts() public view returns (NFT[] memory) {... */\n      swap1\n      jump\t// out\n        /* \"contracts/GeekNftMarketPlace.sol\":3761:4351  function getMyOwnedNfts() public view returns (NFT[] memory) {... */\n    tag_48:\n        /* \"contracts/GeekNftMarketPlace.sol\":3808:3820  NFT[] memory */\n      0x60\n        /* \"contracts/GeekNftMarketPlace.sol\":3832:3846  uint nftsCount */\n      0x00\n        /* \"contracts/GeekNftMarketPlace.sol\":3849:3869  _nftsCount.current() */\n      tag_234\n        /* \"contracts/GeekNftMarketPlace.sol\":3849:3859  _nftsCount */\n      0x02\n        /* \"contracts/GeekNftMarketPlace.sol\":3849:3867  _nftsCount.current */\n      tag_105\n        /* \"contracts/GeekNftMarketPlace.sol\":3849:3869  _nftsCount.current() */\n      jump\t// in\n    tag_234:\n        /* \"contracts/GeekNftMarketPlace.sol\":3832:3869  uint nftsCount = _nftsCount.current() */\n      swap1\n      pop\n        /* \"contracts/GeekNftMarketPlace.sol\":3879:3895  uint myNftsCount */\n      0x00\n        /* \"contracts/GeekNftMarketPlace.sol\":3914:3920  uint i */\n      dup1\n        /* \"contracts/GeekNftMarketPlace.sol\":3909:4049  for (uint i = 0; i < nftsCount; i++) {... */\n    tag_235:\n        /* \"contracts/GeekNftMarketPlace.sol\":3930:3939  nftsCount */\n      dup3\n        /* \"contracts/GeekNftMarketPlace.sol\":3926:3927  i */\n      dup2\n        /* \"contracts/GeekNftMarketPlace.sol\":3926:3939  i < nftsCount */\n      lt\n        /* \"contracts/GeekNftMarketPlace.sol\":3909:4049  for (uint i = 0; i < nftsCount; i++) {... */\n      iszero\n      tag_236\n      jumpi\n        /* \"contracts/GeekNftMarketPlace.sol\":3980:3990  msg.sender */\n      caller\n        /* \"contracts/GeekNftMarketPlace.sol\":3963:3990  nfts[i].owner == msg.sender */\n      0xffffffffffffffffffffffffffffffffffffffff\n      and\n        /* \"contracts/GeekNftMarketPlace.sol\":3963:3967  nfts */\n      0x05\n        /* \"contracts/GeekNftMarketPlace.sol\":3968:3969  i */\n      dup3\n        /* \"contracts/GeekNftMarketPlace.sol\":3963:3970  nfts[i] */\n      dup2\n      sload\n      dup2\n      lt\n      tag_238\n      jumpi\n      tag_239\n      tag_88\n      jump\t// in\n    tag_239:\n    tag_238:\n      swap1\n      0x00\n      mstore\n      keccak256(0x00, 0x20)\n      swap1\n      0x06\n      mul\n      add\n        /* \"contracts/GeekNftMarketPlace.sol\":3963:3976  nfts[i].owner */\n      0x04\n      add\n      0x00\n      swap1\n      sload\n      swap1\n      0x0100\n      exp\n      swap1\n      div\n      0xffffffffffffffffffffffffffffffffffffffff\n      and\n        /* \"contracts/GeekNftMarketPlace.sol\":3963:3990  nfts[i].owner == msg.sender */\n      0xffffffffffffffffffffffffffffffffffffffff\n      and\n      eq\n        /* \"contracts/GeekNftMarketPlace.sol\":3960:4039  if(nfts[i].owner == msg.sender) {... */\n      iszero\n      tag_241\n      jumpi\n        /* \"contracts/GeekNftMarketPlace.sol\":4010:4024  myNftsCount ++ */\n      dup2\n      dup1\n      tag_242\n      swap1\n      tag_118\n      jump\t// in\n    tag_242:\n      swap3\n      pop\n      pop\n        /* \"contracts/GeekNftMarketPlace.sol\":3960:4039  if(nfts[i].owner == msg.sender) {... */\n    tag_241:\n        /* \"contracts/GeekNftMarketPlace.sol\":3941:3944  i++ */\n      dup1\n      dup1\n      tag_243\n      swap1\n      tag_118\n      jump\t// in\n    tag_243:\n      swap2\n      pop\n      pop\n        /* \"contracts/GeekNftMarketPlace.sol\":3909:4049  for (uint i = 0; i < nftsCount; i++) {... */\n      jump(tag_235)\n    tag_236:\n      pop\n        /* \"contracts/GeekNftMarketPlace.sol\":4059:4078  NFT[] memory myNfts */\n      0x00\n        /* \"contracts/GeekNftMarketPlace.sol\":4091:4102  myNftsCount */\n      dup2\n        /* \"contracts/GeekNftMarketPlace.sol\":4081:4103  new NFT[](myNftsCount) */\n      0xffffffffffffffff\n      dup2\n      gt\n      iszero\n      tag_244\n      jumpi\n      tag_245\n      tag_122\n      jump\t// in\n    tag_245:\n    tag_244:\n      mload(0x40)\n      swap1\n      dup1\n      dup3\n      mstore\n      dup1\n      0x20\n      mul\n      0x20\n      add\n      dup3\n      add\n      0x40\n      mstore\n      dup1\n      iszero\n      tag_246\n      jumpi\n      dup2\n      0x20\n      add\n    tag_247:\n      tag_248\n      tag_126\n      jump\t// in\n    tag_248:\n      dup2\n      mstore\n      0x20\n      add\n      swap1\n      0x01\n      swap1\n      sub\n      swap1\n      dup2\n      tag_247\n      jumpi\n      swap1\n      pop\n    tag_246:\n      pop\n        /* \"contracts/GeekNftMarketPlace.sol\":4059:4103  NFT[] memory myNfts = new NFT[](myNftsCount) */\n      swap1\n      pop\n        /* \"contracts/GeekNftMarketPlace.sol\":4113:4126  uint nftIndex */\n      0x00\n        /* \"contracts/GeekNftMarketPlace.sol\":4145:4151  uint i */\n      dup1\n        /* \"contracts/GeekNftMarketPlace.sol\":4140:4321  for (uint i = 0; i < nftsCount; i++) {... */\n    tag_249:\n        /* \"contracts/GeekNftMarketPlace.sol\":4161:4170  nftsCount */\n      dup5\n        /* \"contracts/GeekNftMarketPlace.sol\":4157:4158  i */\n      dup2\n        /* \"contracts/GeekNftMarketPlace.sol\":4157:4170  i < nftsCount */\n      lt\n        /* \"contracts/GeekNftMarketPlace.sol\":4140:4321  for (uint i = 0; i < nftsCount; i++) {... */\n      iszero\n      tag_250\n      jumpi\n        /* \"contracts/GeekNftMarketPlace.sol\":4211:4221  msg.sender */\n      caller\n        /* \"contracts/GeekNftMarketPlace.sol\":4194:4221  nfts[i].owner == msg.sender */\n      0xffffffffffffffffffffffffffffffffffffffff\n      and\n        /* \"contracts/GeekNftMarketPlace.sol\":4194:4198  nfts */\n      0x05\n        /* \"contracts/GeekNftMarketPlace.sol\":4199:4200  i */\n      dup3\n        /* \"contracts/GeekNftMarketPlace.sol\":4194:4201  nfts[i] */\n      dup2\n      sload\n      dup2\n      lt\n      tag_252\n      jumpi\n      tag_253\n      tag_88\n      jump\t// in\n    tag_253:\n    tag_252:\n      swap1\n      0x00\n      mstore\n      keccak256(0x00, 0x20)\n      swap1\n      0x06\n      mul\n      add\n        /* \"contracts/GeekNftMarketPlace.sol\":4194:4207  nfts[i].owner */\n      0x04\n      add\n      0x00\n      swap1\n      sload\n      swap1\n      0x0100\n      exp\n      swap1\n      div\n      0xffffffffffffffffffffffffffffffffffffffff\n      and\n        /* \"contracts/GeekNftMarketPlace.sol\":4194:4221  nfts[i].owner == msg.sender */\n      0xffffffffffffffffffffffffffffffffffffffff\n      and\n      eq\n        /* \"contracts/GeekNftMarketPlace.sol\":4191:4311  if(nfts[i].owner == msg.sender) {... */\n      iszero\n      tag_255\n      jumpi\n        /* \"contracts/GeekNftMarketPlace.sol\":4260:4264  nfts */\n      0x05\n        /* \"contracts/GeekNftMarketPlace.sol\":4265:4266  i */\n      dup2\n        /* \"contracts/GeekNftMarketPlace.sol\":4260:4267  nfts[i] */\n      dup2\n      sload\n      dup2\n      lt\n      tag_256\n      jumpi\n      tag_257\n      tag_88\n      jump\t// in\n    tag_257:\n    tag_256:\n      swap1\n      0x00\n      mstore\n      keccak256(0x00, 0x20)\n      swap1\n      0x06\n      mul\n      add\n        /* \"contracts/GeekNftMarketPlace.sol\":4241:4267  myNfts[nftIndex] = nfts[i] */\n      mload(0x40)\n      dup1\n      0xe0\n      add\n      0x40\n      mstore\n      swap1\n      dup2\n      0x00\n      dup3\n      add\n      0x00\n      swap1\n      sload\n      swap1\n      0x0100\n      exp\n      swap1\n      div\n      0xffffffffffffffffffffffffffffffffffffffff\n      and\n      0xffffffffffffffffffffffffffffffffffffffff\n      and\n      0xffffffffffffffffffffffffffffffffffffffff\n      and\n      dup2\n      mstore\n      0x20\n      add\n      0x01\n      dup3\n      add\n      sload\n      dup2\n      mstore\n      0x20\n      add\n      0x02\n      dup3\n      add\n      sload\n      dup2\n      mstore\n      0x20\n      add\n      0x03\n      dup3\n      add\n      0x00\n      swap1\n      sload\n      swap1\n      0x0100\n      exp\n      swap1\n      div\n      0xffffffffffffffffffffffffffffffffffffffff\n      and\n      0xffffffffffffffffffffffffffffffffffffffff\n      and\n      0xffffffffffffffffffffffffffffffffffffffff\n      and\n      dup2\n      mstore\n      0x20\n      add\n      0x04\n      dup3\n      add\n      0x00\n      swap1\n      sload\n      swap1\n      0x0100\n      exp\n      swap1\n      div\n      0xffffffffffffffffffffffffffffffffffffffff\n      and\n      0xffffffffffffffffffffffffffffffffffffffff\n      and\n      0xffffffffffffffffffffffffffffffffffffffff\n      and\n      dup2\n      mstore\n      0x20\n      add\n      0x05\n      dup3\n      add\n      0x00\n      swap1\n      sload\n      swap1\n      0x0100\n      exp\n      swap1\n      div\n      0xffffffffffffffffffffffffffffffffffffffff\n      and\n      0xffffffffffffffffffffffffffffffffffffffff\n      and\n      0xffffffffffffffffffffffffffffffffffffffff\n      and\n      dup2\n      mstore\n      0x20\n      add\n      0x05\n      dup3\n      add\n      0x14\n      swap1\n      sload\n      swap1\n      0x0100\n      exp\n      swap1\n      div\n      0xff\n      and\n      iszero\n      iszero\n      iszero\n      iszero\n      dup2\n      mstore\n      pop\n      pop\n        /* \"contracts/GeekNftMarketPlace.sol\":4241:4247  myNfts */\n      dup4\n        /* \"contracts/GeekNftMarketPlace.sol\":4248:4256  nftIndex */\n      dup4\n        /* \"contracts/GeekNftMarketPlace.sol\":4241:4257  myNfts[nftIndex] */\n      dup2\n      mload\n      dup2\n      lt\n      tag_259\n      jumpi\n      tag_260\n      tag_88\n      jump\t// in\n    tag_260:\n    tag_259:\n      0x20\n      mul\n      0x20\n      add\n      add\n        /* \"contracts/GeekNftMarketPlace.sol\":4241:4267  myNfts[nftIndex] = nfts[i] */\n      dup2\n      swap1\n      mstore\n      pop\n        /* \"contracts/GeekNftMarketPlace.sol\":4285:4296  nftIndex ++ */\n      dup2\n      dup1\n      tag_261\n      swap1\n      tag_118\n      jump\t// in\n    tag_261:\n      swap3\n      pop\n      pop\n        /* \"contracts/GeekNftMarketPlace.sol\":4191:4311  if(nfts[i].owner == msg.sender) {... */\n    tag_255:\n        /* \"contracts/GeekNftMarketPlace.sol\":4172:4175  i++ */\n      dup1\n      dup1\n      tag_262\n      swap1\n      tag_118\n      jump\t// in\n    tag_262:\n      swap2\n      pop\n      pop\n        /* \"contracts/GeekNftMarketPlace.sol\":4140:4321  for (uint i = 0; i < nftsCount; i++) {... */\n      jump(tag_249)\n    tag_250:\n      pop\n        /* \"contracts/GeekNftMarketPlace.sol\":4338:4344  myNfts */\n      dup2\n        /* \"contracts/GeekNftMarketPlace.sol\":4331:4344  return myNfts */\n      swap5\n      pop\n      pop\n      pop\n      pop\n      pop\n        /* \"contracts/GeekNftMarketPlace.sol\":3761:4351  function getMyOwnedNfts() public view returns (NFT[] memory) {... */\n      swap1\n      jump\t// out\n        /* \"contracts/GeekNftMarketPlace.sol\":1647:2272  function listNFT(address _nftContract, uint _tokenId, uint _price) public payable nonReentrant priceIsGreaterThanZero(_price) valueIsEqualToFees{... */\n    tag_52:\n        /* \"contracts/RenntrancyGuard.sol\":171:172  2 */\n      0x02\n        /* \"contracts/RenntrancyGuard.sol\":310:317  _status */\n      sload(0x00)\n        /* \"contracts/RenntrancyGuard.sol\":310:329  _status != _ENTERED */\n      eq\n      iszero\n        /* \"contracts/RenntrancyGuard.sol\":302:365  require(_status != _ENTERED, \"ReentrancyGuard: reentrant call\") */\n      tag_264\n      jumpi\n      mload(0x40)\n      0x08c379a000000000000000000000000000000000000000000000000000000000\n      dup2\n      mstore\n      0x04\n      add\n      tag_265\n      swap1\n      tag_66\n      jump\t// in\n    tag_265:\n      mload(0x40)\n      dup1\n      swap2\n      sub\n      swap1\n      revert\n    tag_264:\n        /* \"contracts/RenntrancyGuard.sol\":171:172  2 */\n      0x02\n        /* \"contracts/RenntrancyGuard.sol\":375:382  _status */\n      0x00\n        /* \"contracts/RenntrancyGuard.sol\":375:393  _status = _ENTERED */\n      dup2\n      swap1\n      sstore\n      pop\n        /* \"contracts/GeekNftMarketPlace.sol\":1765:1771  _price */\n      dup1\n        /* \"contracts/GeekNftMarketPlace.sol\":1163:1164  0 */\n      0x00\n        /* \"contracts/GeekNftMarketPlace.sol\":1154:1160  _price */\n      dup2\n        /* \"contracts/GeekNftMarketPlace.sol\":1154:1164  _price > 0 */\n      gt\n        /* \"contracts/GeekNftMarketPlace.sol\":1146:1197  require(_price > 0, \"Price must be at least 1 wei\") */\n      tag_267\n      jumpi\n      mload(0x40)\n      0x08c379a000000000000000000000000000000000000000000000000000000000\n      dup2\n      mstore\n      0x04\n      add\n      tag_268\n      swap1\n      tag_70\n      jump\t// in\n    tag_268:\n      mload(0x40)\n      dup1\n      swap2\n      sub\n      swap1\n      revert\n    tag_267:\n        /* \"contracts/GeekNftMarketPlace.sol\":1282:1293  LISTING_FEE */\n      sload(0x03)\n        /* \"contracts/GeekNftMarketPlace.sol\":1269:1278  msg.value */\n      callvalue\n        /* \"contracts/GeekNftMarketPlace.sol\":1269:1293  msg.value == LISTING_FEE */\n      eq\n        /* \"contracts/GeekNftMarketPlace.sol\":1261:1330  require(msg.value == LISTING_FEE, \"Not enough ether for listing fee\") */\n      tag_270\n      jumpi\n      mload(0x40)\n      0x08c379a000000000000000000000000000000000000000000000000000000000\n      dup2\n      mstore\n      0x04\n      add\n      tag_271\n      swap1\n      tag_74\n      jump\t// in\n    tag_271:\n      mload(0x40)\n      dup1\n      swap2\n      sub\n      swap1\n      revert\n    tag_270:\n        /* \"contracts/GeekNftMarketPlace.sol\":1818:1830  _nftContract */\n      dup4\n        /* \"contracts/GeekNftMarketPlace.sol\":1801:1844  GeekNftInterface(_nftContract).transferFrom */\n      0xffffffffffffffffffffffffffffffffffffffff\n      and\n      0x23b872dd\n        /* \"contracts/GeekNftMarketPlace.sol\":1845:1855  msg.sender */\n      caller\n        /* \"contracts/GeekNftMarketPlace.sol\":1865:1869  this */\n      address\n        /* \"contracts/GeekNftMarketPlace.sol\":1872:1880  _tokenId */\n      dup7\n        /* \"contracts/GeekNftMarketPlace.sol\":1801:1881  GeekNftInterface(_nftContract).transferFrom(msg.sender, address(this), _tokenId) */\n      mload(0x40)\n      dup5\n      0xffffffff\n      and\n      0xe0\n      shl\n      dup2\n      mstore\n      0x04\n      add\n      tag_273\n      swap4\n      swap3\n      swap2\n      swap1\n      tag_82\n      jump\t// in\n    tag_273:\n      0x00\n      mload(0x40)\n      dup1\n      dup4\n      sub\n      dup2\n      0x00\n      dup8\n      dup1\n      extcodesize\n      iszero\n      dup1\n      iszero\n      tag_274\n      jumpi\n      0x00\n      dup1\n      revert\n    tag_274:\n      pop\n      gas\n      call\n      iszero\n      dup1\n      iszero\n      tag_276\n      jumpi\n      returndatasize\n      0x00\n      dup1\n      returndatacopy\n      revert(0x00, returndatasize)\n    tag_276:\n      pop\n      pop\n      pop\n      pop\n        /* \"contracts/GeekNftMarketPlace.sol\":1892:1896  nfts */\n      0x05\n        /* \"contracts/GeekNftMarketPlace.sol\":1902:2103  NFT(... */\n      mload(0x40)\n      dup1\n      0xe0\n      add\n      0x40\n      mstore\n      dup1\n        /* \"contracts/GeekNftMarketPlace.sol\":1919:1931  _nftContract */\n      dup7\n        /* \"contracts/GeekNftMarketPlace.sol\":1902:2103  NFT(... */\n      0xffffffffffffffffffffffffffffffffffffffff\n      and\n      dup2\n      mstore\n      0x20\n      add\n        /* \"contracts/GeekNftMarketPlace.sol\":1945:1953  _tokenId */\n      dup6\n        /* \"contracts/GeekNftMarketPlace.sol\":1902:2103  NFT(... */\n      dup2\n      mstore\n      0x20\n      add\n        /* \"contracts/GeekNftMarketPlace.sol\":1967:1973  _price */\n      dup5\n        /* \"contracts/GeekNftMarketPlace.sol\":1902:2103  NFT(... */\n      dup2\n      mstore\n      0x20\n      add\n        /* \"contracts/GeekNftMarketPlace.sol\":1995:2005  msg.sender */\n      caller\n        /* \"contracts/GeekNftMarketPlace.sol\":1902:2103  NFT(... */\n      0xffffffffffffffffffffffffffffffffffffffff\n      and\n      dup2\n      mstore\n      0x20\n      add\n        /* \"contracts/GeekNftMarketPlace.sol\":2036:2040  this */\n      address\n        /* \"contracts/GeekNftMarketPlace.sol\":1902:2103  NFT(... */\n      0xffffffffffffffffffffffffffffffffffffffff\n      and\n      dup2\n      mstore\n      0x20\n      add\n        /* \"contracts/GeekNftMarketPlace.sol\":2064:2074  msg.sender */\n      caller\n        /* \"contracts/GeekNftMarketPlace.sol\":1902:2103  NFT(... */\n      0xffffffffffffffffffffffffffffffffffffffff\n      and\n      dup2\n      mstore\n      0x20\n      add\n        /* \"contracts/GeekNftMarketPlace.sol\":2089:2093  true */\n      0x01\n        /* \"contracts/GeekNftMarketPlace.sol\":1902:2103  NFT(... */\n      iszero\n      iszero\n      dup2\n      mstore\n      pop\n        /* \"contracts/GeekNftMarketPlace.sol\":1892:2104  nfts.push(NFT(... */\n      swap1\n      dup1\n      0x01\n      dup2\n      sload\n      add\n      dup1\n      dup3\n      sstore\n      dup1\n      swap2\n      pop\n      pop\n      0x01\n      swap1\n      sub\n      swap1\n      0x00\n      mstore\n      keccak256(0x00, 0x20)\n      swap1\n      0x06\n      mul\n      add\n      0x00\n      swap1\n      swap2\n      swap1\n      swap2\n      swap1\n      swap2\n      pop\n      0x00\n      dup3\n      add\n      mload\n      dup2\n      0x00\n      add\n      exp(0x0100, 0x00)\n      dup2\n      sload\n      dup2\n      0xffffffffffffffffffffffffffffffffffffffff\n      mul\n      not\n      and\n      swap1\n      dup4\n      0xffffffffffffffffffffffffffffffffffffffff\n      and\n      mul\n      or\n      swap1\n      sstore\n      pop\n      0x20\n      dup3\n      add\n      mload\n      dup2\n      0x01\n      add\n      sstore\n      0x40\n      dup3\n      add\n      mload\n      dup2\n      0x02\n      add\n      sstore\n      0x60\n      dup3\n      add\n      mload\n      dup2\n      0x03\n      add\n      exp(0x0100, 0x00)\n      dup2\n      sload\n      dup2\n      0xffffffffffffffffffffffffffffffffffffffff\n      mul\n      not\n      and\n      swap1\n      dup4\n      0xffffffffffffffffffffffffffffffffffffffff\n      and\n      mul\n      or\n      swap1\n      sstore\n      pop\n      0x80\n      dup3\n      add\n      mload\n      dup2\n      0x04\n      add\n      exp(0x0100, 0x00)\n      dup2\n      sload\n      dup2\n      0xffffffffffffffffffffffffffffffffffffffff\n      mul\n      not\n      and\n      swap1\n      dup4\n      0xffffffffffffffffffffffffffffffffffffffff\n      and\n      mul\n      or\n      swap1\n      sstore\n      pop\n      0xa0\n      dup3\n      add\n      mload\n      dup2\n      0x05\n      add\n      exp(0x0100, 0x00)\n      dup2\n      sload\n      dup2\n      0xffffffffffffffffffffffffffffffffffffffff\n      mul\n      not\n      and\n      swap1\n      dup4\n      0xffffffffffffffffffffffffffffffffffffffff\n      and\n      mul\n      or\n      swap1\n      sstore\n      pop\n      0xc0\n      dup3\n      add\n      mload\n      dup2\n      0x05\n      add\n      exp(0x0100, 0x14)\n      dup2\n      sload\n      dup2\n      0xff\n      mul\n      not\n      and\n      swap1\n      dup4\n      iszero\n      iszero\n      mul\n      or\n      swap1\n      sstore\n      pop\n      pop\n      pop\n        /* \"contracts/GeekNftMarketPlace.sol\":2115:2137  _nftsCount.increment() */\n      tag_278\n        /* \"contracts/GeekNftMarketPlace.sol\":2115:2125  _nftsCount */\n      0x02\n        /* \"contracts/GeekNftMarketPlace.sol\":2115:2135  _nftsCount.increment */\n      tag_177\n        /* \"contracts/GeekNftMarketPlace.sol\":2115:2137  _nftsCount.increment() */\n      jump\t// in\n    tag_278:\n        /* \"contracts/GeekNftMarketPlace.sol\":2148:2161  _marketOwwner */\n      0x04\n      0x00\n      swap1\n      sload\n      swap1\n      0x0100\n      exp\n      swap1\n      div\n      0xffffffffffffffffffffffffffffffffffffffff\n      and\n        /* \"contracts/GeekNftMarketPlace.sol\":2148:2170  _marketOwwner.transfer */\n      0xffffffffffffffffffffffffffffffffffffffff\n      and\n        /* \"contracts/GeekNftMarketPlace.sol\":2148:2181  _marketOwwner.transfer(msg.value) */\n      0x08fc\n        /* \"contracts/GeekNftMarketPlace.sol\":2171:2180  msg.value */\n      callvalue\n        /* \"contracts/GeekNftMarketPlace.sol\":2148:2181  _marketOwwner.transfer(msg.value) */\n      swap1\n      dup2\n      iszero\n      mul\n      swap1\n      mload(0x40)\n      0x00\n      mload(0x40)\n      dup1\n      dup4\n      sub\n      dup2\n      dup6\n      dup9\n      dup9\n      call\n      swap4\n      pop\n      pop\n      pop\n      pop\n      iszero\n      dup1\n      iszero\n      tag_280\n      jumpi\n      returndatasize\n      0x00\n      dup1\n      returndatacopy\n      revert(0x00, returndatasize)\n    tag_280:\n      pop\n        /* \"contracts/GeekNftMarketPlace.sol\":2251:2255  this */\n      address\n        /* \"contracts/GeekNftMarketPlace.sol\":2197:2265  NFTListed(_nftContract, _tokenId, msg.sender, address(this), _price) */\n      0xffffffffffffffffffffffffffffffffffffffff\n      and\n        /* \"contracts/GeekNftMarketPlace.sol\":2231:2241  msg.sender */\n      caller\n        /* \"contracts/GeekNftMarketPlace.sol\":2197:2265  NFTListed(_nftContract, _tokenId, msg.sender, address(this), _price) */\n      0xffffffffffffffffffffffffffffffffffffffff\n      and\n      0xa0c6c0d02d86fdacecbaa5fdf5894bab204e31a778250474108540733a9b8d19\n        /* \"contracts/GeekNftMarketPlace.sol\":2207:2219  _nftContract */\n      dup7\n        /* \"contracts/GeekNftMarketPlace.sol\":2221:2229  _tokenId */\n      dup7\n        /* \"contracts/GeekNftMarketPlace.sol\":2258:2264  _price */\n      dup7\n        /* \"contracts/GeekNftMarketPlace.sol\":2197:2265  NFTListed(_nftContract, _tokenId, msg.sender, address(this), _price) */\n      mload(0x40)\n      tag_281\n      swap4\n      swap3\n      swap2\n      swap1\n      tag_102\n      jump\t// in\n    tag_281:\n      mload(0x40)\n      dup1\n      swap2\n      sub\n      swap1\n      log3\n        /* \"contracts/RenntrancyGuard.sol\":403:404  _ */\n      pop\n        /* \"contracts/RenntrancyGuard.sol\":128:129  1 */\n      0x01\n        /* \"contracts/RenntrancyGuard.sol\":414:421  _status */\n      0x00\n        /* \"contracts/RenntrancyGuard.sol\":414:436  _status = _NOT_ENTERED */\n      dup2\n      swap1\n      sstore\n      pop\n        /* \"contracts/GeekNftMarketPlace.sol\":1647:2272  function listNFT(address _nftContract, uint _tokenId, uint _price) public payable nonReentrant priceIsGreaterThanZero(_price) valueIsEqualToFees{... */\n      pop\n      pop\n      pop\n      jump\t// out\n        /* \"contracts/GeekNftMarketPlace.sol\":1354:1440  function getListingFee() public view returns (uint){... */\n    tag_55:\n        /* \"contracts/GeekNftMarketPlace.sol\":1400:1404  uint */\n      0x00\n        /* \"contracts/GeekNftMarketPlace.sol\":1422:1433  LISTING_FEE */\n      sload(0x03)\n        /* \"contracts/GeekNftMarketPlace.sol\":1415:1433  return LISTING_FEE */\n      swap1\n      pop\n        /* \"contracts/GeekNftMarketPlace.sol\":1354:1440  function getListingFee() public view returns (uint){... */\n      swap1\n      jump\t// out\n        /* \"contracts/GeekNftMarketPlace.sol\":5699:6327  function getNftByContract(address _nftContract) public view returns (NFT[] memory) {... */\n    tag_61:\n        /* \"contracts/GeekNftMarketPlace.sol\":5768:5780  NFT[] memory */\n      0x60\n        /* \"contracts/GeekNftMarketPlace.sol\":5792:5806  uint nftsCount */\n      0x00\n        /* \"contracts/GeekNftMarketPlace.sol\":5809:5829  _nftsCount.current() */\n      tag_284\n        /* \"contracts/GeekNftMarketPlace.sol\":5809:5819  _nftsCount */\n      0x02\n        /* \"contracts/GeekNftMarketPlace.sol\":5809:5827  _nftsCount.current */\n      tag_105\n        /* \"contracts/GeekNftMarketPlace.sol\":5809:5829  _nftsCount.current() */\n      jump\t// in\n    tag_284:\n        /* \"contracts/GeekNftMarketPlace.sol\":5792:5829  uint nftsCount = _nftsCount.current() */\n      swap1\n      pop\n        /* \"contracts/GeekNftMarketPlace.sol\":5839:5855  uint myNftsCount */\n      0x00\n        /* \"contracts/GeekNftMarketPlace.sol\":5874:5880  uint i */\n      dup1\n        /* \"contracts/GeekNftMarketPlace.sol\":5869:6017  for (uint i = 0; i < nftsCount; i++) {... */\n    tag_285:\n        /* \"contracts/GeekNftMarketPlace.sol\":5890:5899  nftsCount */\n      dup3\n        /* \"contracts/GeekNftMarketPlace.sol\":5886:5887  i */\n      dup2\n        /* \"contracts/GeekNftMarketPlace.sol\":5886:5899  i < nftsCount */\n      lt\n        /* \"contracts/GeekNftMarketPlace.sol\":5869:6017  for (uint i = 0; i < nftsCount; i++) {... */\n      iszero\n      tag_286\n      jumpi\n        /* \"contracts/GeekNftMarketPlace.sol\":5946:5958  _nftContract */\n      dup5\n        /* \"contracts/GeekNftMarketPlace.sol\":5923:5958  nfts[i].nftContract == _nftContract */\n      0xffffffffffffffffffffffffffffffffffffffff\n      and\n        /* \"contracts/GeekNftMarketPlace.sol\":5923:5927  nfts */\n      0x05\n        /* \"contracts/GeekNftMarketPlace.sol\":5928:5929  i */\n      dup3\n        /* \"contracts/GeekNftMarketPlace.sol\":5923:5930  nfts[i] */\n      dup2\n      sload\n      dup2\n      lt\n      tag_288\n      jumpi\n      tag_289\n      tag_88\n      jump\t// in\n    tag_289:\n    tag_288:\n      swap1\n      0x00\n      mstore\n      keccak256(0x00, 0x20)\n      swap1\n      0x06\n      mul\n      add\n        /* \"contracts/GeekNftMarketPlace.sol\":5923:5942  nfts[i].nftContract */\n      0x00\n      add\n      0x00\n      swap1\n      sload\n      swap1\n      0x0100\n      exp\n      swap1\n      div\n      0xffffffffffffffffffffffffffffffffffffffff\n      and\n        /* \"contracts/GeekNftMarketPlace.sol\":5923:5958  nfts[i].nftContract == _nftContract */\n      0xffffffffffffffffffffffffffffffffffffffff\n      and\n      eq\n        /* \"contracts/GeekNftMarketPlace.sol\":5920:6007  if(nfts[i].nftContract == _nftContract) {... */\n      iszero\n      tag_291\n      jumpi\n        /* \"contracts/GeekNftMarketPlace.sol\":5978:5992  myNftsCount ++ */\n      dup2\n      dup1\n      tag_292\n      swap1\n      tag_118\n      jump\t// in\n    tag_292:\n      swap3\n      pop\n      pop\n        /* \"contracts/GeekNftMarketPlace.sol\":5920:6007  if(nfts[i].nftContract == _nftContract) {... */\n    tag_291:\n        /* \"contracts/GeekNftMarketPlace.sol\":5901:5904  i++ */\n      dup1\n      dup1\n      tag_293\n      swap1\n      tag_118\n      jump\t// in\n    tag_293:\n      swap2\n      pop\n      pop\n        /* \"contracts/GeekNftMarketPlace.sol\":5869:6017  for (uint i = 0; i < nftsCount; i++) {... */\n      jump(tag_285)\n    tag_286:\n      pop\n        /* \"contracts/GeekNftMarketPlace.sol\":6027:6046  NFT[] memory myNfts */\n      0x00\n        /* \"contracts/GeekNftMarketPlace.sol\":6059:6070  myNftsCount */\n      dup2\n        /* \"contracts/GeekNftMarketPlace.sol\":6049:6071  new NFT[](myNftsCount) */\n      0xffffffffffffffff\n      dup2\n      gt\n      iszero\n      tag_294\n      jumpi\n      tag_295\n      tag_122\n      jump\t// in\n    tag_295:\n    tag_294:\n      mload(0x40)\n      swap1\n      dup1\n      dup3\n      mstore\n      dup1\n      0x20\n      mul\n      0x20\n      add\n      dup3\n      add\n      0x40\n      mstore\n      dup1\n      iszero\n      tag_296\n      jumpi\n      dup2\n      0x20\n      add\n    tag_297:\n      tag_298\n      tag_126\n      jump\t// in\n    tag_298:\n      dup2\n      mstore\n      0x20\n      add\n      swap1\n      0x01\n      swap1\n      sub\n      swap1\n      dup2\n      tag_297\n      jumpi\n      swap1\n      pop\n    tag_296:\n      pop\n        /* \"contracts/GeekNftMarketPlace.sol\":6027:6071  NFT[] memory myNfts = new NFT[](myNftsCount) */\n      swap1\n      pop\n        /* \"contracts/GeekNftMarketPlace.sol\":6081:6094  uint nftIndex */\n      0x00\n        /* \"contracts/GeekNftMarketPlace.sol\":6113:6119  uint i */\n      dup1\n        /* \"contracts/GeekNftMarketPlace.sol\":6108:6297  for (uint i = 0; i < nftsCount; i++) {... */\n    tag_299:\n        /* \"contracts/GeekNftMarketPlace.sol\":6129:6138  nftsCount */\n      dup5\n        /* \"contracts/GeekNftMarketPlace.sol\":6125:6126  i */\n      dup2\n        /* \"contracts/GeekNftMarketPlace.sol\":6125:6138  i < nftsCount */\n      lt\n        /* \"contracts/GeekNftMarketPlace.sol\":6108:6297  for (uint i = 0; i < nftsCount; i++) {... */\n      iszero\n      tag_300\n      jumpi\n        /* \"contracts/GeekNftMarketPlace.sol\":6185:6197  _nftContract */\n      dup7\n        /* \"contracts/GeekNftMarketPlace.sol\":6162:6197  nfts[i].nftContract == _nftContract */\n      0xffffffffffffffffffffffffffffffffffffffff\n      and\n        /* \"contracts/GeekNftMarketPlace.sol\":6162:6166  nfts */\n      0x05\n        /* \"contracts/GeekNftMarketPlace.sol\":6167:6168  i */\n      dup3\n        /* \"contracts/GeekNftMarketPlace.sol\":6162:6169  nfts[i] */\n      dup2\n      sload\n      dup2\n      lt\n      tag_302\n      jumpi\n      tag_303\n      tag_88\n      jump\t// in\n    tag_303:\n    tag_302:\n      swap1\n      0x00\n      mstore\n      keccak256(0x00, 0x20)\n      swap1\n      0x06\n      mul\n      add\n        /* \"contracts/GeekNftMarketPlace.sol\":6162:6181  nfts[i].nftContract */\n      0x00\n      add\n      0x00\n      swap1\n      sload\n      swap1\n      0x0100\n      exp\n      swap1\n      div\n      0xffffffffffffffffffffffffffffffffffffffff\n      and\n        /* \"contracts/GeekNftMarketPlace.sol\":6162:6197  nfts[i].nftContract == _nftContract */\n      0xffffffffffffffffffffffffffffffffffffffff\n      and\n      eq\n        /* \"contracts/GeekNftMarketPlace.sol\":6159:6287  if(nfts[i].nftContract == _nftContract) {... */\n      iszero\n      tag_305\n      jumpi\n        /* \"contracts/GeekNftMarketPlace.sol\":6236:6240  nfts */\n      0x05\n        /* \"contracts/GeekNftMarketPlace.sol\":6241:6242  i */\n      dup2\n        /* \"contracts/GeekNftMarketPlace.sol\":6236:6243  nfts[i] */\n      dup2\n      sload\n      dup2\n      lt\n      tag_306\n      jumpi\n      tag_307\n      tag_88\n      jump\t// in\n    tag_307:\n    tag_306:\n      swap1\n      0x00\n      mstore\n      keccak256(0x00, 0x20)\n      swap1\n      0x06\n      mul\n      add\n        /* \"contracts/GeekNftMarketPlace.sol\":6217:6243  myNfts[nftIndex] = nfts[i] */\n      mload(0x40)\n      dup1\n      0xe0\n      add\n      0x40\n      mstore\n      swap1\n      dup2\n      0x00\n      dup3\n      add\n      0x00\n      swap1\n      sload\n      swap1\n      0x0100\n      exp\n      swap1\n      div\n      0xffffffffffffffffffffffffffffffffffffffff\n      and\n      0xffffffffffffffffffffffffffffffffffffffff\n      and\n      0xffffffffffffffffffffffffffffffffffffffff\n      and\n      dup2\n      mstore\n      0x20\n      add\n      0x01\n      dup3\n      add\n      sload\n      dup2\n      mstore\n      0x20\n      add\n      0x02\n      dup3\n      add\n      sload\n      dup2\n      mstore\n      0x20\n      add\n      0x03\n      dup3\n      add\n      0x00\n      swap1\n      sload\n      swap1\n      0x0100\n      exp\n      swap1\n      div\n      0xffffffffffffffffffffffffffffffffffffffff\n      and\n      0xffffffffffffffffffffffffffffffffffffffff\n      and\n      0xffffffffffffffffffffffffffffffffffffffff\n      and\n      dup2\n      mstore\n      0x20\n      add\n      0x04\n      dup3\n      add\n      0x00\n      swap1\n      sload\n      swap1\n      0x0100\n      exp\n      swap1\n      div\n      0xffffffffffffffffffffffffffffffffffffffff\n      and\n      0xffffffffffffffffffffffffffffffffffffffff\n      and\n      0xffffffffffffffffffffffffffffffffffffffff\n      and\n      dup2\n      mstore\n      0x20\n      add\n      0x05\n      dup3\n      add\n      0x00\n      swap1\n      sload\n      swap1\n      0x0100\n      exp\n      swap1\n      div\n      0xffffffffffffffffffffffffffffffffffffffff\n      and\n      0xffffffffffffffffffffffffffffffffffffffff\n      and\n      0xffffffffffffffffffffffffffffffffffffffff\n      and\n      dup2\n      mstore\n      0x20\n      add\n      0x05\n      dup3\n      add\n      0x14\n      swap1\n      sload\n      swap1\n      0x0100\n      exp\n      swap1\n      div\n      0xff\n      and\n      iszero\n      iszero\n      iszero\n      iszero\n      dup2\n      mstore\n      pop\n      pop\n        /* \"contracts/GeekNftMarketPlace.sol\":6217:6223  myNfts */\n      dup4\n        /* \"contracts/GeekNftMarketPlace.sol\":6224:6232  nftIndex */\n      dup4\n        /* \"contracts/GeekNftMarketPlace.sol\":6217:6233  myNfts[nftIndex] */\n      dup2\n      mload\n      dup2\n      lt\n      tag_309\n      jumpi\n      tag_310\n      tag_88\n      jump\t// in\n    tag_310:\n    tag_309:\n      0x20\n      mul\n      0x20\n      add\n      add\n        /* \"contracts/GeekNftMarketPlace.sol\":6217:6243  myNfts[nftIndex] = nfts[i] */\n      dup2\n      swap1\n      mstore\n      pop\n        /* \"contracts/GeekNftMarketPlace.sol\":6261:6272  nftIndex ++ */\n      dup2\n      dup1\n      tag_311\n      swap1\n      tag_118\n      jump\t// in\n    tag_311:\n      swap3\n      pop\n      pop\n        /* \"contracts/GeekNftMarketPlace.sol\":6159:6287  if(nfts[i].nftContract == _nftContract) {... */\n    tag_305:\n        /* \"contracts/GeekNftMarketPlace.sol\":6140:6143  i++ */\n      dup1\n      dup1\n      tag_312\n      swap1\n      tag_118\n      jump\t// in\n    tag_312:\n      swap2\n      pop\n      pop\n        /* \"contracts/GeekNftMarketPlace.sol\":6108:6297  for (uint i = 0; i < nftsCount; i++) {... */\n      jump(tag_299)\n    tag_300:\n      pop\n        /* \"contracts/GeekNftMarketPlace.sol\":6314:6320  myNfts */\n      dup2\n        /* \"contracts/GeekNftMarketPlace.sol\":6307:6320  return myNfts */\n      swap5\n      pop\n      pop\n      pop\n      pop\n      pop\n        /* \"contracts/GeekNftMarketPlace.sol\":5699:6327  function getNftByContract(address _nftContract) public view returns (NFT[] memory) {... */\n      swap2\n      swap1\n      pop\n      jump\t// out\n        /* \"contracts/GeekNftMarketPlace.sol\":6805:7270  function getNFT(address _nftContract, uint _tokenId) private view returns (NFT memory, int) {... */\n    tag_77:\n        /* \"contracts/GeekNftMarketPlace.sol\":6880:6890  NFT memory */\n      tag_313\n      tag_126\n      jump\t// in\n    tag_313:\n        /* \"contracts/GeekNftMarketPlace.sol\":6892:6895  int */\n      0x00\n        /* \"contracts/GeekNftMarketPlace.sol\":6907:6921  NFT memory nft */\n      tag_315\n      tag_126\n      jump\t// in\n    tag_315:\n        /* \"contracts/GeekNftMarketPlace.sol\":6931:6940  int index */\n      0x00\n        /* \"contracts/GeekNftMarketPlace.sol\":6943:6945  -1 */\n      0xffffffffffffffffffffffffffffffffffffffffffffffffffffffffffffffff\n        /* \"contracts/GeekNftMarketPlace.sol\":6931:6945  int index = -1 */\n      swap1\n      pop\n        /* \"contracts/GeekNftMarketPlace.sol\":6955:6971  uint256 nftCount */\n      0x00\n        /* \"contracts/GeekNftMarketPlace.sol\":6974:6994  _nftsCount.current() */\n      tag_316\n        /* \"contracts/GeekNftMarketPlace.sol\":6974:6984  _nftsCount */\n      0x02\n        /* \"contracts/GeekNftMarketPlace.sol\":6974:6992  _nftsCount.current */\n      tag_105\n        /* \"contracts/GeekNftMarketPlace.sol\":6974:6994  _nftsCount.current() */\n      jump\t// in\n    tag_316:\n        /* \"contracts/GeekNftMarketPlace.sol\":6955:6994  uint256 nftCount = _nftsCount.current() */\n      swap1\n      pop\n        /* \"contracts/GeekNftMarketPlace.sol\":7008:7014  uint i */\n      0x00\n        /* \"contracts/GeekNftMarketPlace.sol\":7004:7235  for(uint i = 0; i < nftCount; i++) {... */\n    tag_317:\n        /* \"contracts/GeekNftMarketPlace.sol\":7024:7032  nftCount */\n      dup2\n        /* \"contracts/GeekNftMarketPlace.sol\":7020:7021  i */\n      dup2\n        /* \"contracts/GeekNftMarketPlace.sol\":7020:7032  i < nftCount */\n      lt\n        /* \"contracts/GeekNftMarketPlace.sol\":7004:7235  for(uint i = 0; i < nftCount; i++) {... */\n      iszero\n      tag_318\n      jumpi\n        /* \"contracts/GeekNftMarketPlace.sol\":7079:7091  _nftContract */\n      dup8\n        /* \"contracts/GeekNftMarketPlace.sol\":7056:7091  nfts[i].nftContract == _nftContract */\n      0xffffffffffffffffffffffffffffffffffffffff\n      and\n        /* \"contracts/GeekNftMarketPlace.sol\":7056:7060  nfts */\n      0x05\n        /* \"contracts/GeekNftMarketPlace.sol\":7061:7062  i */\n      dup3\n        /* \"contracts/GeekNftMarketPlace.sol\":7056:7063  nfts[i] */\n      dup2\n      sload\n      dup2\n      lt\n      tag_320\n      jumpi\n      tag_321\n      tag_88\n      jump\t// in\n    tag_321:\n    tag_320:\n      swap1\n      0x00\n      mstore\n      keccak256(0x00, 0x20)\n      swap1\n      0x06\n      mul\n      add\n        /* \"contracts/GeekNftMarketPlace.sol\":7056:7075  nfts[i].nftContract */\n      0x00\n      add\n      0x00\n      swap1\n      sload\n      swap1\n      0x0100\n      exp\n      swap1\n      div\n      0xffffffffffffffffffffffffffffffffffffffff\n      and\n        /* \"contracts/GeekNftMarketPlace.sol\":7056:7091  nfts[i].nftContract == _nftContract */\n      0xffffffffffffffffffffffffffffffffffffffff\n      and\n      eq\n        /* \"contracts/GeekNftMarketPlace.sol\":7056:7122  nfts[i].nftContract == _nftContract && nfts[i].tokenId == _tokenId */\n      dup1\n      iszero\n      tag_323\n      jumpi\n      pop\n        /* \"contracts/GeekNftMarketPlace.sol\":7114:7122  _tokenId */\n      dup7\n        /* \"contracts/GeekNftMarketPlace.sol\":7095:7099  nfts */\n      0x05\n        /* \"contracts/GeekNftMarketPlace.sol\":7100:7101  i */\n      dup3\n        /* \"contracts/GeekNftMarketPlace.sol\":7095:7102  nfts[i] */\n      dup2\n      sload\n      dup2\n      lt\n      tag_324\n      jumpi\n      tag_325\n      tag_88\n      jump\t// in\n    tag_325:\n    tag_324:\n      swap1\n      0x00\n      mstore\n      keccak256(0x00, 0x20)\n      swap1\n      0x06\n      mul\n      add\n        /* \"contracts/GeekNftMarketPlace.sol\":7095:7110  nfts[i].tokenId */\n      0x01\n      add\n      sload\n        /* \"contracts/GeekNftMarketPlace.sol\":7095:7122  nfts[i].tokenId == _tokenId */\n      eq\n        /* \"contracts/GeekNftMarketPlace.sol\":7056:7122  nfts[i].nftContract == _nftContract && nfts[i].tokenId == _tokenId */\n    tag_323:\n        /* \"contracts/GeekNftMarketPlace.sol\":7053:7225  if(nfts[i].nftContract == _nftContract && nfts[i].tokenId == _tokenId) {... */\n      iszero\n      tag_327\n      jumpi\n        /* \"contracts/GeekNftMarketPlace.sol\":7148:7152  nfts */\n      0x05\n        /* \"contracts/GeekNftMarketPlace.sol\":7153:7154  i */\n      dup2\n        /* \"contracts/GeekNftMarketPlace.sol\":7148:7155  nfts[i] */\n      dup2\n      sload\n      dup2\n      lt\n      tag_328\n      jumpi\n      tag_329\n      tag_88\n      jump\t// in\n    tag_329:\n    tag_328:\n      swap1\n      0x00\n      mstore\n      keccak256(0x00, 0x20)\n      swap1\n      0x06\n      mul\n      add\n        /* \"contracts/GeekNftMarketPlace.sol\":7142:7155  nft = nfts[i] */\n      mload(0x40)\n      dup1\n      0xe0\n      add\n      0x40\n      mstore\n      swap1\n      dup2\n      0x00\n      dup3\n      add\n      0x00\n      swap1\n      sload\n      swap1\n      0x0100\n      exp\n      swap1\n      div\n      0xffffffffffffffffffffffffffffffffffffffff\n      and\n      0xffffffffffffffffffffffffffffffffffffffff\n      and\n      0xffffffffffffffffffffffffffffffffffffffff\n      and\n      dup2\n      mstore\n      0x20\n      add\n      0x01\n      dup3\n      add\n      sload\n      dup2\n      mstore\n      0x20\n      add\n      0x02\n      dup3\n      add\n      sload\n      dup2\n      mstore\n      0x20\n      add\n      0x03\n      dup3\n      add\n      0x00\n      swap1\n      sload\n      swap1\n      0x0100\n      exp\n      swap1\n      div\n      0xffffffffffffffffffffffffffffffffffffffff\n      and\n      0xffffffffffffffffffffffffffffffffffffffff\n      and\n      0xffffffffffffffffffffffffffffffffffffffff\n      and\n      dup2\n      mstore\n      0x20\n      add\n      0x04\n      dup3\n      add\n      0x00\n      swap1\n      sload\n      swap1\n      0x0100\n      exp\n      swap1\n      div\n      0xffffffffffffffffffffffffffffffffffffffff\n      and\n      0xffffffffffffffffffffffffffffffffffffffff\n      and\n      0xffffffffffffffffffffffffffffffffffffffff\n      and\n      dup2\n      mstore\n      0x20\n      add\n      0x05\n      dup3\n      add\n      0x00\n      swap1\n      sload\n      swap1\n      0x0100\n      exp\n      swap1\n      div\n      0xffffffffffffffffffffffffffffffffffffffff\n      and\n      0xffffffffffffffffffffffffffffffffffffffff\n      and\n      0xffffffffffffffffffffffffffffffffffffffff\n      and\n      dup2\n      mstore\n      0x20\n      add\n      0x05\n      dup3\n      add\n      0x14\n      swap1\n      sload\n      swap1\n      0x0100\n      exp\n      swap1\n      div\n      0xff\n      and\n      iszero\n      iszero\n      iszero\n      iszero\n      dup2\n      mstore\n      pop\n      pop\n      swap4\n      pop\n        /* \"contracts/GeekNftMarketPlace.sol\":7185:7186  i */\n      dup1\n        /* \"contracts/GeekNftMarketPlace.sol\":7173:7187  index = int(i) */\n      swap3\n      pop\n        /* \"contracts/GeekNftMarketPlace.sol\":7205:7210  break */\n      jump(tag_318)\n        /* \"contracts/GeekNftMarketPlace.sol\":7053:7225  if(nfts[i].nftContract == _nftContract && nfts[i].tokenId == _tokenId) {... */\n    tag_327:\n        /* \"contracts/GeekNftMarketPlace.sol\":7034:7037  i++ */\n      dup1\n      dup1\n      tag_331\n      swap1\n      tag_118\n      jump\t// in\n    tag_331:\n      swap2\n      pop\n      pop\n        /* \"contracts/GeekNftMarketPlace.sol\":7004:7235  for(uint i = 0; i < nftCount; i++) {... */\n      jump(tag_317)\n    tag_318:\n      pop\n        /* \"contracts/GeekNftMarketPlace.sol\":7252:7255  nft */\n      dup3\n        /* \"contracts/GeekNftMarketPlace.sol\":7257:7262  index */\n      dup3\n        /* \"contracts/GeekNftMarketPlace.sol\":7244:7263  return (nft, index) */\n      swap5\n      pop\n      swap5\n      pop\n      pop\n      pop\n      pop\n        /* \"contracts/GeekNftMarketPlace.sol\":6805:7270  function getNFT(address _nftContract, uint _tokenId) private view returns (NFT memory, int) {... */\n      swap3\n      pop\n      swap3\n      swap1\n      pop\n      jump\t// out\n        /* \"contracts/Counters.sol\":1074:1303  function decrement(Counter storage counter) internal {... */\n    tag_100:\n        /* \"contracts/Counters.sol\":1137:1150  uint256 value */\n      0x00\n        /* \"contracts/Counters.sol\":1153:1160  counter */\n      dup2\n        /* \"contracts/Counters.sol\":1153:1167  counter._value */\n      0x00\n      add\n      sload\n        /* \"contracts/Counters.sol\":1137:1167  uint256 value = counter._value */\n      swap1\n      pop\n        /* \"contracts/Counters.sol\":1193:1194  0 */\n      0x00\n        /* \"contracts/Counters.sol\":1185:1190  value */\n      dup2\n        /* \"contracts/Counters.sol\":1185:1194  value > 0 */\n      gt\n        /* \"contracts/Counters.sol\":1177:1226  require(value > 0, \"Counter: decrement overflow\") */\n      tag_333\n      jumpi\n      mload(0x40)\n      0x08c379a000000000000000000000000000000000000000000000000000000000\n      dup2\n      mstore\n      0x04\n      add\n      tag_334\n      swap1\n      tag_335\n      jump\t// in\n    tag_334:\n      mload(0x40)\n      dup1\n      swap2\n      sub\n      swap1\n      revert\n    tag_333:\n        /* \"contracts/Counters.sol\":1285:1286  1 */\n      0x01\n        /* \"contracts/Counters.sol\":1277:1282  value */\n      dup2\n        /* \"contracts/Counters.sol\":1277:1286  value - 1 */\n      sub\n        /* \"contracts/Counters.sol\":1260:1267  counter */\n      dup3\n        /* \"contracts/Counters.sol\":1260:1274  counter._value */\n      0x00\n      add\n        /* \"contracts/Counters.sol\":1260:1286  counter._value = value - 1 */\n      dup2\n      swap1\n      sstore\n      pop\n        /* \"contracts/Counters.sol\":1127:1303  {... */\n      pop\n        /* \"contracts/Counters.sol\":1074:1303  function decrement(Counter storage counter) internal {... */\n      pop\n      jump\t// out\n        /* \"contracts/Counters.sol\":827:939  function current(Counter storage counter) internal view returns (uint256) {... */\n    tag_105:\n        /* \"contracts/Counters.sol\":892:899  uint256 */\n      0x00\n        /* \"contracts/Counters.sol\":918:925  counter */\n      dup2\n        /* \"contracts/Counters.sol\":918:932  counter._value */\n      0x00\n      add\n      sload\n        /* \"contracts/Counters.sol\":911:932  return counter._value */\n      swap1\n      pop\n        /* \"contracts/Counters.sol\":827:939  function current(Counter storage counter) internal view returns (uint256) {... */\n      swap2\n      swap1\n      pop\n      jump\t// out\n        /* \"contracts/Counters.sol\":945:1068  function increment(Counter storage counter) internal {... */\n    tag_177:\n        /* \"contracts/Counters.sol\":1050:1051  1 */\n      0x01\n        /* \"contracts/Counters.sol\":1032:1039  counter */\n      dup2\n        /* \"contracts/Counters.sol\":1032:1046  counter._value */\n      0x00\n      add\n      0x00\n        /* \"contracts/Counters.sol\":1032:1051  counter._value += 1 */\n      dup3\n      dup3\n      sload\n      add\n      swap3\n      pop\n      pop\n      dup2\n      swap1\n      sstore\n      pop\n        /* \"contracts/Counters.sol\":945:1068  function increment(Counter storage counter) internal {... */\n      pop\n      jump\t// out\n    tag_126:\n      mload(0x40)\n      dup1\n      0xe0\n      add\n      0x40\n      mstore\n      dup1\n      and(0xffffffffffffffffffffffffffffffffffffffff, 0x00)\n      dup2\n      mstore\n      0x20\n      add\n      0x00\n      dup2\n      mstore\n      0x20\n      add\n      0x00\n      dup2\n      mstore\n      0x20\n      add\n      and(0xffffffffffffffffffffffffffffffffffffffff, 0x00)\n      dup2\n      mstore\n      0x20\n      add\n      and(0xffffffffffffffffffffffffffffffffffffffff, 0x00)\n      dup2\n      mstore\n      0x20\n      add\n      and(0xffffffffffffffffffffffffffffffffffffffff, 0x00)\n      dup2\n      mstore\n      0x20\n      add\n      iszero(iszero(0x00))\n      dup2\n      mstore\n      pop\n      swap1\n      jump\t// out\n        /* \"#utility.yul\":7:146   */\n    tag_339:\n        /* \"#utility.yul\":53:58   */\n      0x00\n        /* \"#utility.yul\":91:97   */\n      dup2\n        /* \"#utility.yul\":78:98   */\n      calldataload\n        /* \"#utility.yul\":69:98   */\n      swap1\n      pop\n        /* \"#utility.yul\":107:140   */\n      tag_341\n        /* \"#utility.yul\":134:139   */\n      dup2\n        /* \"#utility.yul\":107:140   */\n      tag_342\n      jump\t// in\n    tag_341:\n        /* \"#utility.yul\":7:146   */\n      swap3\n      swap2\n      pop\n      pop\n      jump\t// out\n        /* \"#utility.yul\":152:295   */\n    tag_343:\n        /* \"#utility.yul\":209:214   */\n      0x00\n        /* \"#utility.yul\":240:246   */\n      dup2\n        /* \"#utility.yul\":234:247   */\n      mload\n        /* \"#utility.yul\":225:247   */\n      swap1\n      pop\n        /* \"#utility.yul\":256:289   */\n      tag_345\n        /* \"#utility.yul\":283:288   */\n      dup2\n        /* \"#utility.yul\":256:289   */\n      tag_342\n      jump\t// in\n    tag_345:\n        /* \"#utility.yul\":152:295   */\n      swap3\n      swap2\n      pop\n      pop\n      jump\t// out\n        /* \"#utility.yul\":301:440   */\n    tag_346:\n        /* \"#utility.yul\":347:352   */\n      0x00\n        /* \"#utility.yul\":385:391   */\n      dup2\n        /* \"#utility.yul\":372:392   */\n      calldataload\n        /* \"#utility.yul\":363:392   */\n      swap1\n      pop\n        /* \"#utility.yul\":401:434   */\n      tag_348\n        /* \"#utility.yul\":428:433   */\n      dup2\n        /* \"#utility.yul\":401:434   */\n      tag_349\n      jump\t// in\n    tag_348:\n        /* \"#utility.yul\":301:440   */\n      swap3\n      swap2\n      pop\n      pop\n      jump\t// out\n        /* \"#utility.yul\":446:775   */\n    tag_60:\n        /* \"#utility.yul\":505:511   */\n      0x00\n        /* \"#utility.yul\":554:556   */\n      0x20\n        /* \"#utility.yul\":542:551   */\n      dup3\n        /* \"#utility.yul\":533:540   */\n      dup5\n        /* \"#utility.yul\":529:552   */\n      sub\n        /* \"#utility.yul\":525:557   */\n      slt\n        /* \"#utility.yul\":522:641   */\n      iszero\n      tag_351\n      jumpi\n        /* \"#utility.yul\":560:639   */\n      tag_352\n      tag_353\n      jump\t// in\n    tag_352:\n        /* \"#utility.yul\":522:641   */\n    tag_351:\n        /* \"#utility.yul\":680:681   */\n      0x00\n        /* \"#utility.yul\":705:758   */\n      tag_354\n        /* \"#utility.yul\":750:757   */\n      dup5\n        /* \"#utility.yul\":741:747   */\n      dup3\n        /* \"#utility.yul\":730:739   */\n      dup6\n        /* \"#utility.yul\":726:748   */\n      add\n        /* \"#utility.yul\":705:758   */\n      tag_339\n      jump\t// in\n    tag_354:\n        /* \"#utility.yul\":695:758   */\n      swap2\n      pop\n        /* \"#utility.yul\":651:768   */\n      pop\n        /* \"#utility.yul\":446:775   */\n      swap3\n      swap2\n      pop\n      pop\n      jump\t// out\n        /* \"#utility.yul\":781:1132   */\n    tag_151:\n        /* \"#utility.yul\":851:857   */\n      0x00\n        /* \"#utility.yul\":900:902   */\n      0x20\n        /* \"#utility.yul\":888:897   */\n      dup3\n        /* \"#utility.yul\":879:886   */\n      dup5\n        /* \"#utility.yul\":875:898   */\n      sub\n        /* \"#utility.yul\":871:903   */\n      slt\n        /* \"#utility.yul\":868:987   */\n      iszero\n      tag_356\n      jumpi\n        /* \"#utility.yul\":906:985   */\n      tag_357\n      tag_353\n      jump\t// in\n    tag_357:\n        /* \"#utility.yul\":868:987   */\n    tag_356:\n        /* \"#utility.yul\":1026:1027   */\n      0x00\n        /* \"#utility.yul\":1051:1115   */\n      tag_358\n        /* \"#utility.yul\":1107:1114   */\n      dup5\n        /* \"#utility.yul\":1098:1104   */\n      dup3\n        /* \"#utility.yul\":1087:1096   */\n      dup6\n        /* \"#utility.yul\":1083:1105   */\n      add\n        /* \"#utility.yul\":1051:1115   */\n      tag_343\n      jump\t// in\n    tag_358:\n        /* \"#utility.yul\":1041:1115   */\n      swap2\n      pop\n        /* \"#utility.yul\":997:1125   */\n      pop\n        /* \"#utility.yul\":781:1132   */\n      swap3\n      swap2\n      pop\n      pop\n      jump\t// out\n        /* \"#utility.yul\":1138:1612   */\n    tag_31:\n        /* \"#utility.yul\":1206:1212   */\n      0x00\n        /* \"#utility.yul\":1214:1220   */\n      dup1\n        /* \"#utility.yul\":1263:1265   */\n      0x40\n        /* \"#utility.yul\":1251:1260   */\n      dup4\n        /* \"#utility.yul\":1242:1249   */\n      dup6\n        /* \"#utility.yul\":1238:1261   */\n      sub\n        /* \"#utility.yul\":1234:1266   */\n      slt\n        /* \"#utility.yul\":1231:1350   */\n      iszero\n      tag_360\n      jumpi\n        /* \"#utility.yul\":1269:1348   */\n      tag_361\n      tag_353\n      jump\t// in\n    tag_361:\n        /* \"#utility.yul\":1231:1350   */\n    tag_360:\n        /* \"#utility.yul\":1389:1390   */\n      0x00\n        /* \"#utility.yul\":1414:1467   */\n      tag_362\n        /* \"#utility.yul\":1459:1466   */\n      dup6\n        /* \"#utility.yul\":1450:1456   */\n      dup3\n        /* \"#utility.yul\":1439:1448   */\n      dup7\n        /* \"#utility.yul\":1435:1457   */\n      add\n        /* \"#utility.yul\":1414:1467   */\n      tag_339\n      jump\t// in\n    tag_362:\n        /* \"#utility.yul\":1404:1467   */\n      swap3\n      pop\n        /* \"#utility.yul\":1360:1477   */\n      pop\n        /* \"#utility.yul\":1516:1518   */\n      0x20\n        /* \"#utility.yul\":1542:1595   */\n      tag_363\n        /* \"#utility.yul\":1587:1594   */\n      dup6\n        /* \"#utility.yul\":1578:1584   */\n      dup3\n        /* \"#utility.yul\":1567:1576   */\n      dup7\n        /* \"#utility.yul\":1563:1585   */\n      add\n        /* \"#utility.yul\":1542:1595   */\n      tag_346\n      jump\t// in\n    tag_363:\n        /* \"#utility.yul\":1532:1595   */\n      swap2\n      pop\n        /* \"#utility.yul\":1487:1605   */\n      pop\n        /* \"#utility.yul\":1138:1612   */\n      swap3\n      pop\n      swap3\n      swap1\n      pop\n      jump\t// out\n        /* \"#utility.yul\":1618:2237   */\n    tag_16:\n        /* \"#utility.yul\":1695:1701   */\n      0x00\n        /* \"#utility.yul\":1703:1709   */\n      dup1\n        /* \"#utility.yul\":1711:1717   */\n      0x00\n        /* \"#utility.yul\":1760:1762   */\n      0x60\n        /* \"#utility.yul\":1748:1757   */\n      dup5\n        /* \"#utility.yul\":1739:1746   */\n      dup7\n        /* \"#utility.yul\":1735:1758   */\n      sub\n        /* \"#utility.yul\":1731:1763   */\n      slt\n        /* \"#utility.yul\":1728:1847   */\n      iszero\n      tag_365\n      jumpi\n        /* \"#utility.yul\":1766:1845   */\n      tag_366\n      tag_353\n      jump\t// in\n    tag_366:\n        /* \"#utility.yul\":1728:1847   */\n    tag_365:\n        /* \"#utility.yul\":1886:1887   */\n      0x00\n        /* \"#utility.yul\":1911:1964   */\n      tag_367\n        /* \"#utility.yul\":1956:1963   */\n      dup7\n        /* \"#utility.yul\":1947:1953   */\n      dup3\n        /* \"#utility.yul\":1936:1945   */\n      dup8\n        /* \"#utility.yul\":1932:1954   */\n      add\n        /* \"#utility.yul\":1911:1964   */\n      tag_339\n      jump\t// in\n    tag_367:\n        /* \"#utility.yul\":1901:1964   */\n      swap4\n      pop\n        /* \"#utility.yul\":1857:1974   */\n      pop\n        /* \"#utility.yul\":2013:2015   */\n      0x20\n        /* \"#utility.yul\":2039:2092   */\n      tag_368\n        /* \"#utility.yul\":2084:2091   */\n      dup7\n        /* \"#utility.yul\":2075:2081   */\n      dup3\n        /* \"#utility.yul\":2064:2073   */\n      dup8\n        /* \"#utility.yul\":2060:2082   */\n      add\n        /* \"#utility.yul\":2039:2092   */\n      tag_346\n      jump\t// in\n    tag_368:\n        /* \"#utility.yul\":2029:2092   */\n      swap3\n      pop\n        /* \"#utility.yul\":1984:2102   */\n      pop\n        /* \"#utility.yul\":2141:2143   */\n      0x40\n        /* \"#utility.yul\":2167:2220   */\n      tag_369\n        /* \"#utility.yul\":2212:2219   */\n      dup7\n        /* \"#utility.yul\":2203:2209   */\n      dup3\n        /* \"#utility.yul\":2192:2201   */\n      dup8\n        /* \"#utility.yul\":2188:2210   */\n      add\n        /* \"#utility.yul\":2167:2220   */\n      tag_346\n      jump\t// in\n    tag_369:\n        /* \"#utility.yul\":2157:2220   */\n      swap2\n      pop\n        /* \"#utility.yul\":2112:2230   */\n      pop\n        /* \"#utility.yul\":1618:2237   */\n      swap3\n      pop\n      swap3\n      pop\n      swap3\n      jump\t// out\n        /* \"#utility.yul\":2243:2502   */\n    tag_370:\n        /* \"#utility.yul\":2352:2362   */\n      0x00\n        /* \"#utility.yul\":2373:2459   */\n      tag_372\n        /* \"#utility.yul\":2455:2458   */\n      dup4\n        /* \"#utility.yul\":2447:2453   */\n      dup4\n        /* \"#utility.yul\":2373:2459   */\n      tag_373\n      jump\t// in\n    tag_372:\n        /* \"#utility.yul\":2491:2495   */\n      0xe0\n        /* \"#utility.yul\":2486:2489   */\n      dup4\n        /* \"#utility.yul\":2482:2496   */\n      add\n        /* \"#utility.yul\":2468:2496   */\n      swap1\n      pop\n        /* \"#utility.yul\":2243:2502   */\n      swap3\n      swap2\n      pop\n      pop\n      jump\t// out\n        /* \"#utility.yul\":2508:2655   */\n    tag_374:\n        /* \"#utility.yul\":2603:2648   */\n      tag_376\n        /* \"#utility.yul\":2642:2647   */\n      dup2\n        /* \"#utility.yul\":2603:2648   */\n      tag_377\n      jump\t// in\n    tag_376:\n        /* \"#utility.yul\":2598:2601   */\n      dup3\n        /* \"#utility.yul\":2591:2649   */\n      mstore\n        /* \"#utility.yul\":2508:2655   */\n      pop\n      pop\n      jump\t// out\n        /* \"#utility.yul\":2661:2793   */\n    tag_378:\n        /* \"#utility.yul\":2754:2786   */\n      tag_380\n        /* \"#utility.yul\":2780:2785   */\n      dup2\n        /* \"#utility.yul\":2754:2786   */\n      tag_381\n      jump\t// in\n    tag_380:\n        /* \"#utility.yul\":2749:2752   */\n      dup3\n        /* \"#utility.yul\":2742:2787   */\n      mstore\n        /* \"#utility.yul\":2661:2793   */\n      pop\n      pop\n      jump\t// out\n        /* \"#utility.yul\":2799:2907   */\n    tag_382:\n        /* \"#utility.yul\":2876:2900   */\n      tag_384\n        /* \"#utility.yul\":2894:2899   */\n      dup2\n        /* \"#utility.yul\":2876:2900   */\n      tag_385\n      jump\t// in\n    tag_384:\n        /* \"#utility.yul\":2871:2874   */\n      dup3\n        /* \"#utility.yul\":2864:2901   */\n      mstore\n        /* \"#utility.yul\":2799:2907   */\n      pop\n      pop\n      jump\t// out\n        /* \"#utility.yul\":2913:3031   */\n    tag_386:\n        /* \"#utility.yul\":3000:3024   */\n      tag_388\n        /* \"#utility.yul\":3018:3023   */\n      dup2\n        /* \"#utility.yul\":3000:3024   */\n      tag_385\n      jump\t// in\n    tag_388:\n        /* \"#utility.yul\":2995:2998   */\n      dup3\n        /* \"#utility.yul\":2988:3025   */\n      mstore\n        /* \"#utility.yul\":2913:3031   */\n      pop\n      pop\n      jump\t// out\n        /* \"#utility.yul\":3111:4003   */\n    tag_389:\n        /* \"#utility.yul\":3270:3273   */\n      0x00\n        /* \"#utility.yul\":3299:3373   */\n      tag_391\n        /* \"#utility.yul\":3367:3372   */\n      dup3\n        /* \"#utility.yul\":3299:3373   */\n      tag_392\n      jump\t// in\n    tag_391:\n        /* \"#utility.yul\":3389:3495   */\n      tag_393\n        /* \"#utility.yul\":3488:3494   */\n      dup2\n        /* \"#utility.yul\":3483:3486   */\n      dup6\n        /* \"#utility.yul\":3389:3495   */\n      tag_394\n      jump\t// in\n    tag_393:\n        /* \"#utility.yul\":3382:3495   */\n      swap4\n      pop\n        /* \"#utility.yul\":3519:3595   */\n      tag_395\n        /* \"#utility.yul\":3589:3594   */\n      dup4\n        /* \"#utility.yul\":3519:3595   */\n      tag_396\n      jump\t// in\n    tag_395:\n        /* \"#utility.yul\":3618:3625   */\n      dup1\n        /* \"#utility.yul\":3649:3650   */\n      0x00\n        /* \"#utility.yul\":3634:3978   */\n    tag_397:\n        /* \"#utility.yul\":3659:3665   */\n      dup4\n        /* \"#utility.yul\":3656:3657   */\n      dup2\n        /* \"#utility.yul\":3653:3666   */\n      lt\n        /* \"#utility.yul\":3634:3978   */\n      iszero\n      tag_399\n      jumpi\n        /* \"#utility.yul\":3735:3741   */\n      dup2\n        /* \"#utility.yul\":3729:3742   */\n      mload\n        /* \"#utility.yul\":3762:3865   */\n      tag_400\n        /* \"#utility.yul\":3861:3864   */\n      dup9\n        /* \"#utility.yul\":3846:3859   */\n      dup3\n        /* \"#utility.yul\":3762:3865   */\n      tag_370\n      jump\t// in\n    tag_400:\n        /* \"#utility.yul\":3755:3865   */\n      swap8\n      pop\n        /* \"#utility.yul\":3888:3968   */\n      tag_401\n        /* \"#utility.yul\":3961:3967   */\n      dup4\n        /* \"#utility.yul\":3888:3968   */\n      tag_402\n      jump\t// in\n    tag_401:\n        /* \"#utility.yul\":3878:3968   */\n      swap3\n      pop\n        /* \"#utility.yul\":3694:3978   */\n      pop\n        /* \"#utility.yul\":3681:3682   */\n      0x01\n        /* \"#utility.yul\":3678:3679   */\n      dup2\n        /* \"#utility.yul\":3674:3683   */\n      add\n        /* \"#utility.yul\":3669:3683   */\n      swap1\n      pop\n        /* \"#utility.yul\":3634:3978   */\n      jump(tag_397)\n    tag_399:\n        /* \"#utility.yul\":3638:3652   */\n      pop\n        /* \"#utility.yul\":3994:3997   */\n      dup6\n        /* \"#utility.yul\":3987:3997   */\n      swap4\n      pop\n        /* \"#utility.yul\":3275:4003   */\n      pop\n      pop\n      pop\n        /* \"#utility.yul\":3111:4003   */\n      swap3\n      swap2\n      pop\n      pop\n      jump\t// out\n        /* \"#utility.yul\":4009:4108   */\n    tag_403:\n        /* \"#utility.yul\":4080:4101   */\n      tag_405\n        /* \"#utility.yul\":4095:4100   */\n      dup2\n        /* \"#utility.yul\":4080:4101   */\n      tag_406\n      jump\t// in\n    tag_405:\n        /* \"#utility.yul\":4075:4078   */\n      dup3\n        /* \"#utility.yul\":4068:4102   */\n      mstore\n        /* \"#utility.yul\":4009:4108   */\n      pop\n      pop\n      jump\t// out\n        /* \"#utility.yul\":4114:4480   */\n    tag_407:\n        /* \"#utility.yul\":4256:4259   */\n      0x00\n        /* \"#utility.yul\":4277:4344   */\n      tag_409\n        /* \"#utility.yul\":4341:4343   */\n      0x1b\n        /* \"#utility.yul\":4336:4339   */\n      dup4\n        /* \"#utility.yul\":4277:4344   */\n      tag_410\n      jump\t// in\n    tag_409:\n        /* \"#utility.yul\":4270:4344   */\n      swap2\n      pop\n        /* \"#utility.yul\":4353:4446   */\n      tag_411\n        /* \"#utility.yul\":4442:4445   */\n      dup3\n        /* \"#utility.yul\":4353:4446   */\n      tag_412\n      jump\t// in\n    tag_411:\n        /* \"#utility.yul\":4471:4473   */\n      0x20\n        /* \"#utility.yul\":4466:4469   */\n      dup3\n        /* \"#utility.yul\":4462:4474   */\n      add\n        /* \"#utility.yul\":4455:4474   */\n      swap1\n      pop\n        /* \"#utility.yul\":4114:4480   */\n      swap2\n      swap1\n      pop\n      jump\t// out\n        /* \"#utility.yul\":4486:4852   */\n    tag_413:\n        /* \"#utility.yul\":4628:4631   */\n      0x00\n        /* \"#utility.yul\":4649:4716   */\n      tag_415\n        /* \"#utility.yul\":4713:4715   */\n      0x26\n        /* \"#utility.yul\":4708:4711   */\n      dup4\n        /* \"#utility.yul\":4649:4716   */\n      tag_410\n      jump\t// in\n    tag_415:\n        /* \"#utility.yul\":4642:4716   */\n      swap2\n      pop\n        /* \"#utility.yul\":4725:4818   */\n      tag_416\n        /* \"#utility.yul\":4814:4817   */\n      dup3\n        /* \"#utility.yul\":4725:4818   */\n      tag_417\n      jump\t// in\n    tag_416:\n        /* \"#utility.yul\":4843:4845   */\n      0x40\n        /* \"#utility.yul\":4838:4841   */\n      dup3\n        /* \"#utility.yul\":4834:4846   */\n      add\n        /* \"#utility.yul\":4827:4846   */\n      swap1\n      pop\n        /* \"#utility.yul\":4486:4852   */\n      swap2\n      swap1\n      pop\n      jump\t// out\n        /* \"#utility.yul\":4858:5224   */\n    tag_418:\n        /* \"#utility.yul\":5000:5003   */\n      0x00\n        /* \"#utility.yul\":5021:5088   */\n      tag_420\n        /* \"#utility.yul\":5085:5087   */\n      0x0d\n        /* \"#utility.yul\":5080:5083   */\n      dup4\n        /* \"#utility.yul\":5021:5088   */\n      tag_410\n      jump\t// in\n    tag_420:\n        /* \"#utility.yul\":5014:5088   */\n      swap2\n      pop\n        /* \"#utility.yul\":5097:5190   */\n      tag_421\n        /* \"#utility.yul\":5186:5189   */\n      dup3\n        /* \"#utility.yul\":5097:5190   */\n      tag_422\n      jump\t// in\n    tag_421:\n        /* \"#utility.yul\":5215:5217   */\n      0x20\n        /* \"#utility.yul\":5210:5213   */\n      dup3\n        /* \"#utility.yul\":5206:5218   */\n      add\n        /* \"#utility.yul\":5199:5218   */\n      swap1\n      pop\n        /* \"#utility.yul\":4858:5224   */\n      swap2\n      swap1\n      pop\n      jump\t// out\n        /* \"#utility.yul\":5230:5596   */\n    tag_423:\n        /* \"#utility.yul\":5372:5375   */\n      0x00\n        /* \"#utility.yul\":5393:5460   */\n      tag_425\n        /* \"#utility.yul\":5457:5459   */\n      0x20\n        /* \"#utility.yul\":5452:5455   */\n      dup4\n        /* \"#utility.yul\":5393:5460   */\n      tag_410\n      jump\t// in\n    tag_425:\n        /* \"#utility.yul\":5386:5460   */\n      swap2\n      pop\n        /* \"#utility.yul\":5469:5562   */\n      tag_426\n        /* \"#utility.yul\":5558:5561   */\n      dup3\n        /* \"#utility.yul\":5469:5562   */\n      tag_427\n      jump\t// in\n    tag_426:\n        /* \"#utility.yul\":5587:5589   */\n      0x20\n        /* \"#utility.yul\":5582:5585   */\n      dup3\n        /* \"#utility.yul\":5578:5590   */\n      add\n        /* \"#utility.yul\":5571:5590   */\n      swap1\n      pop\n        /* \"#utility.yul\":5230:5596   */\n      swap2\n      swap1\n      pop\n      jump\t// out\n        /* \"#utility.yul\":5602:5968   */\n    tag_428:\n        /* \"#utility.yul\":5744:5747   */\n      0x00\n        /* \"#utility.yul\":5765:5832   */\n      tag_430\n        /* \"#utility.yul\":5829:5831   */\n      0x1f\n        /* \"#utility.yul\":5824:5827   */\n      dup4\n        /* \"#utility.yul\":5765:5832   */\n      tag_410\n      jump\t// in\n    tag_430:\n        /* \"#utility.yul\":5758:5832   */\n      swap2\n      pop\n        /* \"#utility.yul\":5841:5934   */\n      tag_431\n        /* \"#utility.yul\":5930:5933   */\n      dup3\n        /* \"#utility.yul\":5841:5934   */\n      tag_432\n      jump\t// in\n    tag_431:\n        /* \"#utility.yul\":5959:5961   */\n      0x20\n        /* \"#utility.yul\":5954:5957   */\n      dup3\n        /* \"#utility.yul\":5950:5962   */\n      add\n        /* \"#utility.yul\":5943:5962   */\n      swap1\n      pop\n        /* \"#utility.yul\":5602:5968   */\n      swap2\n      swap1\n      pop\n      jump\t// out\n        /* \"#utility.yul\":5974:6340   */\n    tag_433:\n        /* \"#utility.yul\":6116:6119   */\n      0x00\n        /* \"#utility.yul\":6137:6204   */\n      tag_435\n        /* \"#utility.yul\":6201:6203   */\n      0x1c\n        /* \"#utility.yul\":6196:6199   */\n      dup4\n        /* \"#utility.yul\":6137:6204   */\n      tag_410\n      jump\t// in\n    tag_435:\n        /* \"#utility.yul\":6130:6204   */\n      swap2\n      pop\n        /* \"#utility.yul\":6213:6306   */\n      tag_436\n        /* \"#utility.yul\":6302:6305   */\n      dup3\n        /* \"#utility.yul\":6213:6306   */\n      tag_437\n      jump\t// in\n    tag_436:\n        /* \"#utility.yul\":6331:6333   */\n      0x20\n        /* \"#utility.yul\":6326:6329   */\n      dup3\n        /* \"#utility.yul\":6322:6334   */\n      add\n        /* \"#utility.yul\":6315:6334   */\n      swap1\n      pop\n        /* \"#utility.yul\":5974:6340   */\n      swap2\n      swap1\n      pop\n      jump\t// out\n        /* \"#utility.yul\":6416:7834   */\n    tag_373:\n        /* \"#utility.yul\":6543:6547   */\n      0xe0\n        /* \"#utility.yul\":6538:6541   */\n      dup3\n        /* \"#utility.yul\":6534:6548   */\n      add\n        /* \"#utility.yul\":6637:6641   */\n      0x00\n        /* \"#utility.yul\":6630:6635   */\n      dup3\n        /* \"#utility.yul\":6626:6642   */\n      add\n        /* \"#utility.yul\":6620:6643   */\n      mload\n        /* \"#utility.yul\":6656:6719   */\n      tag_439\n        /* \"#utility.yul\":6713:6717   */\n      0x00\n        /* \"#utility.yul\":6708:6711   */\n      dup6\n        /* \"#utility.yul\":6704:6718   */\n      add\n        /* \"#utility.yul\":6690:6702   */\n      dup3\n        /* \"#utility.yul\":6656:6719   */\n      tag_382\n      jump\t// in\n    tag_439:\n        /* \"#utility.yul\":6558:6729   */\n      pop\n        /* \"#utility.yul\":6814:6818   */\n      0x20\n        /* \"#utility.yul\":6807:6812   */\n      dup3\n        /* \"#utility.yul\":6803:6819   */\n      add\n        /* \"#utility.yul\":6797:6820   */\n      mload\n        /* \"#utility.yul\":6833:6896   */\n      tag_440\n        /* \"#utility.yul\":6890:6894   */\n      0x20\n        /* \"#utility.yul\":6885:6888   */\n      dup6\n        /* \"#utility.yul\":6881:6895   */\n      add\n        /* \"#utility.yul\":6867:6879   */\n      dup3\n        /* \"#utility.yul\":6833:6896   */\n      tag_441\n      jump\t// in\n    tag_440:\n        /* \"#utility.yul\":6739:6906   */\n      pop\n        /* \"#utility.yul\":6989:6993   */\n      0x40\n        /* \"#utility.yul\":6982:6987   */\n      dup3\n        /* \"#utility.yul\":6978:6994   */\n      add\n        /* \"#utility.yul\":6972:6995   */\n      mload\n        /* \"#utility.yul\":7008:7071   */\n      tag_442\n        /* \"#utility.yul\":7065:7069   */\n      0x40\n        /* \"#utility.yul\":7060:7063   */\n      dup6\n        /* \"#utility.yul\":7056:7070   */\n      add\n        /* \"#utility.yul\":7042:7054   */\n      dup3\n        /* \"#utility.yul\":7008:7071   */\n      tag_441\n      jump\t// in\n    tag_442:\n        /* \"#utility.yul\":6916:7081   */\n      pop\n        /* \"#utility.yul\":7165:7169   */\n      0x60\n        /* \"#utility.yul\":7158:7163   */\n      dup3\n        /* \"#utility.yul\":7154:7170   */\n      add\n        /* \"#utility.yul\":7148:7171   */\n      mload\n        /* \"#utility.yul\":7184:7263   */\n      tag_443\n        /* \"#utility.yul\":7257:7261   */\n      0x60\n        /* \"#utility.yul\":7252:7255   */\n      dup6\n        /* \"#utility.yul\":7248:7262   */\n      add\n        /* \"#utility.yul\":7234:7246   */\n      dup3\n        /* \"#utility.yul\":7184:7263   */\n      tag_378\n      jump\t// in\n    tag_443:\n        /* \"#utility.yul\":7091:7273   */\n      pop\n        /* \"#utility.yul\":7356:7360   */\n      0x80\n        /* \"#utility.yul\":7349:7354   */\n      dup3\n        /* \"#utility.yul\":7345:7361   */\n      add\n        /* \"#utility.yul\":7339:7362   */\n      mload\n        /* \"#utility.yul\":7375:7454   */\n      tag_444\n        /* \"#utility.yul\":7448:7452   */\n      0x80\n        /* \"#utility.yul\":7443:7446   */\n      dup6\n        /* \"#utility.yul\":7439:7453   */\n      add\n        /* \"#utility.yul\":7425:7437   */\n      dup3\n        /* \"#utility.yul\":7375:7454   */\n      tag_378\n      jump\t// in\n    tag_444:\n        /* \"#utility.yul\":7283:7464   */\n      pop\n        /* \"#utility.yul\":7549:7553   */\n      0xa0\n        /* \"#utility.yul\":7542:7547   */\n      dup3\n        /* \"#utility.yul\":7538:7554   */\n      add\n        /* \"#utility.yul\":7532:7555   */\n      mload\n        /* \"#utility.yul\":7568:7647   */\n      tag_445\n        /* \"#utility.yul\":7641:7645   */\n      0xa0\n        /* \"#utility.yul\":7636:7639   */\n      dup6\n        /* \"#utility.yul\":7632:7646   */\n      add\n        /* \"#utility.yul\":7618:7630   */\n      dup3\n        /* \"#utility.yul\":7568:7647   */\n      tag_378\n      jump\t// in\n    tag_445:\n        /* \"#utility.yul\":7474:7657   */\n      pop\n        /* \"#utility.yul\":7741:7745   */\n      0xc0\n        /* \"#utility.yul\":7734:7739   */\n      dup3\n        /* \"#utility.yul\":7730:7746   */\n      add\n        /* \"#utility.yul\":7724:7747   */\n      mload\n        /* \"#utility.yul\":7760:7817   */\n      tag_446\n        /* \"#utility.yul\":7811:7815   */\n      0xc0\n        /* \"#utility.yul\":7806:7809   */\n      dup6\n        /* \"#utility.yul\":7802:7816   */\n      add\n        /* \"#utility.yul\":7788:7800   */\n      dup3\n        /* \"#utility.yul\":7760:7817   */\n      tag_403\n      jump\t// in\n    tag_446:\n        /* \"#utility.yul\":7667:7827   */\n      pop\n        /* \"#utility.yul\":6512:7834   */\n      pop\n        /* \"#utility.yul\":6416:7834   */\n      pop\n      pop\n      jump\t// out\n        /* \"#utility.yul\":7840:7948   */\n    tag_441:\n        /* \"#utility.yul\":7917:7941   */\n      tag_448\n        /* \"#utility.yul\":7935:7940   */\n      dup2\n        /* \"#utility.yul\":7917:7941   */\n      tag_449\n      jump\t// in\n    tag_448:\n        /* \"#utility.yul\":7912:7915   */\n      dup3\n        /* \"#utility.yul\":7905:7942   */\n      mstore\n        /* \"#utility.yul\":7840:7948   */\n      pop\n      pop\n      jump\t// out\n        /* \"#utility.yul\":7954:8072   */\n    tag_450:\n        /* \"#utility.yul\":8041:8065   */\n      tag_452\n        /* \"#utility.yul\":8059:8064   */\n      dup2\n        /* \"#utility.yul\":8041:8065   */\n      tag_449\n      jump\t// in\n    tag_452:\n        /* \"#utility.yul\":8036:8039   */\n      dup3\n        /* \"#utility.yul\":8029:8066   */\n      mstore\n        /* \"#utility.yul\":7954:8072   */\n      pop\n      pop\n      jump\t// out\n        /* \"#utility.yul\":8078:8300   */\n    tag_34:\n        /* \"#utility.yul\":8171:8175   */\n      0x00\n        /* \"#utility.yul\":8209:8211   */\n      0x20\n        /* \"#utility.yul\":8198:8207   */\n      dup3\n        /* \"#utility.yul\":8194:8212   */\n      add\n        /* \"#utility.yul\":8186:8212   */\n      swap1\n      pop\n        /* \"#utility.yul\":8222:8293   */\n      tag_454\n        /* \"#utility.yul\":8290:8291   */\n      0x00\n        /* \"#utility.yul\":8279:8288   */\n      dup4\n        /* \"#utility.yul\":8275:8292   */\n      add\n        /* \"#utility.yul\":8266:8272   */\n      dup5\n        /* \"#utility.yul\":8222:8293   */\n      tag_386\n      jump\t// in\n    tag_454:\n        /* \"#utility.yul\":8078:8300   */\n      swap3\n      swap2\n      pop\n      pop\n      jump\t// out\n        /* \"#utility.yul\":8306:8764   */\n    tag_166:\n        /* \"#utility.yul\":8463:8467   */\n      0x00\n        /* \"#utility.yul\":8501:8503   */\n      0x60\n        /* \"#utility.yul\":8490:8499   */\n      dup3\n        /* \"#utility.yul\":8486:8504   */\n      add\n        /* \"#utility.yul\":8478:8504   */\n      swap1\n      pop\n        /* \"#utility.yul\":8514:8585   */\n      tag_456\n        /* \"#utility.yul\":8582:8583   */\n      0x00\n        /* \"#utility.yul\":8571:8580   */\n      dup4\n        /* \"#utility.yul\":8567:8584   */\n      add\n        /* \"#utility.yul\":8558:8564   */\n      dup7\n        /* \"#utility.yul\":8514:8585   */\n      tag_386\n      jump\t// in\n    tag_456:\n        /* \"#utility.yul\":8595:8675   */\n      tag_457\n        /* \"#utility.yul\":8671:8673   */\n      0x20\n        /* \"#utility.yul\":8660:8669   */\n      dup4\n        /* \"#utility.yul\":8656:8674   */\n      add\n        /* \"#utility.yul\":8647:8653   */\n      dup6\n        /* \"#utility.yul\":8595:8675   */\n      tag_374\n      jump\t// in\n    tag_457:\n        /* \"#utility.yul\":8685:8757   */\n      tag_458\n        /* \"#utility.yul\":8753:8755   */\n      0x40\n        /* \"#utility.yul\":8742:8751   */\n      dup4\n        /* \"#utility.yul\":8738:8756   */\n      add\n        /* \"#utility.yul\":8729:8735   */\n      dup5\n        /* \"#utility.yul\":8685:8757   */\n      tag_450\n      jump\t// in\n    tag_458:\n        /* \"#utility.yul\":8306:8764   */\n      swap5\n      swap4\n      pop\n      pop\n      pop\n      pop\n      jump\t// out\n        /* \"#utility.yul\":8770:9212   */\n    tag_82:\n        /* \"#utility.yul\":8919:8923   */\n      0x00\n        /* \"#utility.yul\":8957:8959   */\n      0x60\n        /* \"#utility.yul\":8946:8955   */\n      dup3\n        /* \"#utility.yul\":8942:8960   */\n      add\n        /* \"#utility.yul\":8934:8960   */\n      swap1\n      pop\n        /* \"#utility.yul\":8970:9041   */\n      tag_460\n        /* \"#utility.yul\":9038:9039   */\n      0x00\n        /* \"#utility.yul\":9027:9036   */\n      dup4\n        /* \"#utility.yul\":9023:9040   */\n      add\n        /* \"#utility.yul\":9014:9020   */\n      dup7\n        /* \"#utility.yul\":8970:9041   */\n      tag_386\n      jump\t// in\n    tag_460:\n        /* \"#utility.yul\":9051:9123   */\n      tag_461\n        /* \"#utility.yul\":9119:9121   */\n      0x20\n        /* \"#utility.yul\":9108:9117   */\n      dup4\n        /* \"#utility.yul\":9104:9122   */\n      add\n        /* \"#utility.yul\":9095:9101   */\n      dup6\n        /* \"#utility.yul\":9051:9123   */\n      tag_386\n      jump\t// in\n    tag_461:\n        /* \"#utility.yul\":9133:9205   */\n      tag_462\n        /* \"#utility.yul\":9201:9203   */\n      0x40\n        /* \"#utility.yul\":9190:9199   */\n      dup4\n        /* \"#utility.yul\":9186:9204   */\n      add\n        /* \"#utility.yul\":9177:9183   */\n      dup5\n        /* \"#utility.yul\":9133:9205   */\n      tag_450\n      jump\t// in\n    tag_462:\n        /* \"#utility.yul\":8770:9212   */\n      swap5\n      swap4\n      pop\n      pop\n      pop\n      pop\n      jump\t// out\n        /* \"#utility.yul\":9218:9660   */\n    tag_102:\n        /* \"#utility.yul\":9367:9371   */\n      0x00\n        /* \"#utility.yul\":9405:9407   */\n      0x60\n        /* \"#utility.yul\":9394:9403   */\n      dup3\n        /* \"#utility.yul\":9390:9408   */\n      add\n        /* \"#utility.yul\":9382:9408   */\n      swap1\n      pop\n        /* \"#utility.yul\":9418:9489   */\n      tag_464\n        /* \"#utility.yul\":9486:9487   */\n      0x00\n        /* \"#utility.yul\":9475:9484   */\n      dup4\n        /* \"#utility.yul\":9471:9488   */\n      add\n        /* \"#utility.yul\":9462:9468   */\n      dup7\n        /* \"#utility.yul\":9418:9489   */\n      tag_386\n      jump\t// in\n    tag_464:\n        /* \"#utility.yul\":9499:9571   */\n      tag_465\n        /* \"#utility.yul\":9567:9569   */\n      0x20\n        /* \"#utility.yul\":9556:9565   */\n      dup4\n        /* \"#utility.yul\":9552:9570   */\n      add\n        /* \"#utility.yul\":9543:9549   */\n      dup6\n        /* \"#utility.yul\":9499:9571   */\n      tag_450\n      jump\t// in\n    tag_465:\n        /* \"#utility.yul\":9581:9653   */\n      tag_466\n        /* \"#utility.yul\":9649:9651   */\n      0x40\n        /* \"#utility.yul\":9638:9647   */\n      dup4\n        /* \"#utility.yul\":9634:9652   */\n      add\n        /* \"#utility.yul\":9625:9631   */\n      dup5\n        /* \"#utility.yul\":9581:9653   */\n      tag_450\n      jump\t// in\n    tag_466:\n        /* \"#utility.yul\":9218:9660   */\n      swap5\n      swap4\n      pop\n      pop\n      pop\n      pop\n      jump\t// out\n        /* \"#utility.yul\":9666:10119   */\n    tag_22:\n        /* \"#utility.yul\":9849:9853   */\n      0x00\n        /* \"#utility.yul\":9887:9889   */\n      0x20\n        /* \"#utility.yul\":9876:9885   */\n      dup3\n        /* \"#utility.yul\":9872:9890   */\n      add\n        /* \"#utility.yul\":9864:9890   */\n      swap1\n      pop\n        /* \"#utility.yul\":9936:9945   */\n      dup2\n        /* \"#utility.yul\":9930:9934   */\n      dup2\n        /* \"#utility.yul\":9926:9946   */\n      sub\n        /* \"#utility.yul\":9922:9923   */\n      0x00\n        /* \"#utility.yul\":9911:9920   */\n      dup4\n        /* \"#utility.yul\":9907:9924   */\n      add\n        /* \"#utility.yul\":9900:9947   */\n      mstore\n        /* \"#utility.yul\":9964:10112   */\n      tag_468\n        /* \"#utility.yul\":10107:10111   */\n      dup2\n        /* \"#utility.yul\":10098:10104   */\n      dup5\n        /* \"#utility.yul\":9964:10112   */\n      tag_389\n      jump\t// in\n    tag_468:\n        /* \"#utility.yul\":9956:10112   */\n      swap1\n      pop\n        /* \"#utility.yul\":9666:10119   */\n      swap3\n      swap2\n      pop\n      pop\n      jump\t// out\n        /* \"#utility.yul\":10125:10544   */\n    tag_335:\n        /* \"#utility.yul\":10291:10295   */\n      0x00\n        /* \"#utility.yul\":10329:10331   */\n      0x20\n        /* \"#utility.yul\":10318:10327   */\n      dup3\n        /* \"#utility.yul\":10314:10332   */\n      add\n        /* \"#utility.yul\":10306:10332   */\n      swap1\n      pop\n        /* \"#utility.yul\":10378:10387   */\n      dup2\n        /* \"#utility.yul\":10372:10376   */\n      dup2\n        /* \"#utility.yul\":10368:10388   */\n      sub\n        /* \"#utility.yul\":10364:10365   */\n      0x00\n        /* \"#utility.yul\":10353:10362   */\n      dup4\n        /* \"#utility.yul\":10349:10366   */\n      add\n        /* \"#utility.yul\":10342:10389   */\n      mstore\n        /* \"#utility.yul\":10406:10537   */\n      tag_470\n        /* \"#utility.yul\":10532:10536   */\n      dup2\n        /* \"#utility.yul\":10406:10537   */\n      tag_407\n      jump\t// in\n    tag_470:\n        /* \"#utility.yul\":10398:10537   */\n      swap1\n      pop\n        /* \"#utility.yul\":10125:10544   */\n      swap2\n      swap1\n      pop\n      jump\t// out\n        /* \"#utility.yul\":10550:10969   */\n    tag_162:\n        /* \"#utility.yul\":10716:10720   */\n      0x00\n        /* \"#utility.yul\":10754:10756   */\n      0x20\n        /* \"#utility.yul\":10743:10752   */\n      dup3\n        /* \"#utility.yul\":10739:10757   */\n      add\n        /* \"#utility.yul\":10731:10757   */\n      swap1\n      pop\n        /* \"#utility.yul\":10803:10812   */\n      dup2\n        /* \"#utility.yul\":10797:10801   */\n      dup2\n        /* \"#utility.yul\":10793:10813   */\n      sub\n        /* \"#utility.yul\":10789:10790   */\n      0x00\n        /* \"#utility.yul\":10778:10787   */\n      dup4\n        /* \"#utility.yul\":10774:10791   */\n      add\n        /* \"#utility.yul\":10767:10814   */\n      mstore\n        /* \"#utility.yul\":10831:10962   */\n      tag_472\n        /* \"#utility.yul\":10957:10961   */\n      dup2\n        /* \"#utility.yul\":10831:10962   */\n      tag_413\n      jump\t// in\n    tag_472:\n        /* \"#utility.yul\":10823:10962   */\n      swap1\n      pop\n        /* \"#utility.yul\":10550:10969   */\n      swap2\n      swap1\n      pop\n      jump\t// out\n        /* \"#utility.yul\":10975:11394   */\n    tag_80:\n        /* \"#utility.yul\":11141:11145   */\n      0x00\n        /* \"#utility.yul\":11179:11181   */\n      0x20\n        /* \"#utility.yul\":11168:11177   */\n      dup3\n        /* \"#utility.yul\":11164:11182   */\n      add\n        /* \"#utility.yul\":11156:11182   */\n      swap1\n      pop\n        /* \"#utility.yul\":11228:11237   */\n      dup2\n        /* \"#utility.yul\":11222:11226   */\n      dup2\n        /* \"#utility.yul\":11218:11238   */\n      sub\n        /* \"#utility.yul\":11214:11215   */\n      0x00\n        /* \"#utility.yul\":11203:11212   */\n      dup4\n        /* \"#utility.yul\":11199:11216   */\n      add\n        /* \"#utility.yul\":11192:11239   */\n      mstore\n        /* \"#utility.yul\":11256:11387   */\n      tag_474\n        /* \"#utility.yul\":11382:11386   */\n      dup2\n        /* \"#utility.yul\":11256:11387   */\n      tag_418\n      jump\t// in\n    tag_474:\n        /* \"#utility.yul\":11248:11387   */\n      swap1\n      pop\n        /* \"#utility.yul\":10975:11394   */\n      swap2\n      swap1\n      pop\n      jump\t// out\n        /* \"#utility.yul\":11400:11819   */\n    tag_74:\n        /* \"#utility.yul\":11566:11570   */\n      0x00\n        /* \"#utility.yul\":11604:11606   */\n      0x20\n        /* \"#utility.yul\":11593:11602   */\n      dup3\n        /* \"#utility.yul\":11589:11607   */\n      add\n        /* \"#utility.yul\":11581:11607   */\n      swap1\n      pop\n        /* \"#utility.yul\":11653:11662   */\n      dup2\n        /* \"#utility.yul\":11647:11651   */\n      dup2\n        /* \"#utility.yul\":11643:11663   */\n      sub\n        /* \"#utility.yul\":11639:11640   */\n      0x00\n        /* \"#utility.yul\":11628:11637   */\n      dup4\n        /* \"#utility.yul\":11624:11641   */\n      add\n        /* \"#utility.yul\":11617:11664   */\n      mstore\n        /* \"#utility.yul\":11681:11812   */\n      tag_476\n        /* \"#utility.yul\":11807:11811   */\n      dup2\n        /* \"#utility.yul\":11681:11812   */\n      tag_423\n      jump\t// in\n    tag_476:\n        /* \"#utility.yul\":11673:11812   */\n      swap1\n      pop\n        /* \"#utility.yul\":11400:11819   */\n      swap2\n      swap1\n      pop\n      jump\t// out\n        /* \"#utility.yul\":11825:12244   */\n    tag_66:\n        /* \"#utility.yul\":11991:11995   */\n      0x00\n        /* \"#utility.yul\":12029:12031   */\n      0x20\n        /* \"#utility.yul\":12018:12027   */\n      dup3\n        /* \"#utility.yul\":12014:12032   */\n      add\n        /* \"#utility.yul\":12006:12032   */\n      swap1\n      pop\n        /* \"#utility.yul\":12078:12087   */\n      dup2\n        /* \"#utility.yul\":12072:12076   */\n      dup2\n        /* \"#utility.yul\":12068:12088   */\n      sub\n        /* \"#utility.yul\":12064:12065   */\n      0x00\n        /* \"#utility.yul\":12053:12062   */\n      dup4\n        /* \"#utility.yul\":12049:12066   */\n      add\n        /* \"#utility.yul\":12042:12089   */\n      mstore\n        /* \"#utility.yul\":12106:12237   */\n      tag_478\n        /* \"#utility.yul\":12232:12236   */\n      dup2\n        /* \"#utility.yul\":12106:12237   */\n      tag_428\n      jump\t// in\n    tag_478:\n        /* \"#utility.yul\":12098:12237   */\n      swap1\n      pop\n        /* \"#utility.yul\":11825:12244   */\n      swap2\n      swap1\n      pop\n      jump\t// out\n        /* \"#utility.yul\":12250:12669   */\n    tag_70:\n        /* \"#utility.yul\":12416:12420   */\n      0x00\n        /* \"#utility.yul\":12454:12456   */\n      0x20\n        /* \"#utility.yul\":12443:12452   */\n      dup3\n        /* \"#utility.yul\":12439:12457   */\n      add\n        /* \"#utility.yul\":12431:12457   */\n      swap1\n      pop\n        /* \"#utility.yul\":12503:12512   */\n      dup2\n        /* \"#utility.yul\":12497:12501   */\n      dup2\n        /* \"#utility.yul\":12493:12513   */\n      sub\n        /* \"#utility.yul\":12489:12490   */\n      0x00\n        /* \"#utility.yul\":12478:12487   */\n      dup4\n        /* \"#utility.yul\":12474:12491   */\n      add\n        /* \"#utility.yul\":12467:12514   */\n      mstore\n        /* \"#utility.yul\":12531:12662   */\n      tag_480\n        /* \"#utility.yul\":12657:12661   */\n      dup2\n        /* \"#utility.yul\":12531:12662   */\n      tag_433\n      jump\t// in\n    tag_480:\n        /* \"#utility.yul\":12523:12662   */\n      swap1\n      pop\n        /* \"#utility.yul\":12250:12669   */\n      swap2\n      swap1\n      pop\n      jump\t// out\n        /* \"#utility.yul\":12675:12897   */\n    tag_27:\n        /* \"#utility.yul\":12768:12772   */\n      0x00\n        /* \"#utility.yul\":12806:12808   */\n      0x20\n        /* \"#utility.yul\":12795:12804   */\n      dup3\n        /* \"#utility.yul\":12791:12809   */\n      add\n        /* \"#utility.yul\":12783:12809   */\n      swap1\n      pop\n        /* \"#utility.yul\":12819:12890   */\n      tag_482\n        /* \"#utility.yul\":12887:12888   */\n      0x00\n        /* \"#utility.yul\":12876:12885   */\n      dup4\n        /* \"#utility.yul\":12872:12889   */\n      add\n        /* \"#utility.yul\":12863:12869   */\n      dup5\n        /* \"#utility.yul\":12819:12890   */\n      tag_450\n      jump\t// in\n    tag_482:\n        /* \"#utility.yul\":12675:12897   */\n      swap3\n      swap2\n      pop\n      pop\n      jump\t// out\n        /* \"#utility.yul\":12984:13136   */\n    tag_396:\n        /* \"#utility.yul\":13071:13075   */\n      0x00\n        /* \"#utility.yul\":13094:13097   */\n      dup2\n        /* \"#utility.yul\":13086:13097   */\n      swap1\n      pop\n        /* \"#utility.yul\":13124:13128   */\n      0x20\n        /* \"#utility.yul\":13119:13122   */\n      dup3\n        /* \"#utility.yul\":13115:13129   */\n      add\n        /* \"#utility.yul\":13107:13129   */\n      swap1\n      pop\n        /* \"#utility.yul\":12984:13136   */\n      swap2\n      swap1\n      pop\n      jump\t// out\n        /* \"#utility.yul\":13142:13276   */\n    tag_392:\n        /* \"#utility.yul\":13229:13235   */\n      0x00\n        /* \"#utility.yul\":13263:13268   */\n      dup2\n        /* \"#utility.yul\":13257:13269   */\n      mload\n        /* \"#utility.yul\":13247:13269   */\n      swap1\n      pop\n        /* \"#utility.yul\":13142:13276   */\n      swap2\n      swap1\n      pop\n      jump\t// out\n        /* \"#utility.yul\":13282:13415   */\n    tag_402:\n        /* \"#utility.yul\":13372:13376   */\n      0x00\n        /* \"#utility.yul\":13404:13408   */\n      0x20\n        /* \"#utility.yul\":13399:13402   */\n      dup3\n        /* \"#utility.yul\":13395:13409   */\n      add\n        /* \"#utility.yul\":13387:13409   */\n      swap1\n      pop\n        /* \"#utility.yul\":13282:13415   */\n      swap2\n      swap1\n      pop\n      jump\t// out\n        /* \"#utility.yul\":13421:13625   */\n    tag_394:\n        /* \"#utility.yul\":13540:13551   */\n      0x00\n        /* \"#utility.yul\":13574:13580   */\n      dup3\n        /* \"#utility.yul\":13569:13572   */\n      dup3\n        /* \"#utility.yul\":13562:13581   */\n      mstore\n        /* \"#utility.yul\":13614:13618   */\n      0x20\n        /* \"#utility.yul\":13609:13612   */\n      dup3\n        /* \"#utility.yul\":13605:13619   */\n      add\n        /* \"#utility.yul\":13590:13619   */\n      swap1\n      pop\n        /* \"#utility.yul\":13421:13625   */\n      swap3\n      swap2\n      pop\n      pop\n      jump\t// out\n        /* \"#utility.yul\":13631:13800   */\n    tag_410:\n        /* \"#utility.yul\":13715:13726   */\n      0x00\n        /* \"#utility.yul\":13749:13755   */\n      dup3\n        /* \"#utility.yul\":13744:13747   */\n      dup3\n        /* \"#utility.yul\":13737:13756   */\n      mstore\n        /* \"#utility.yul\":13789:13793   */\n      0x20\n        /* \"#utility.yul\":13784:13787   */\n      dup3\n        /* \"#utility.yul\":13780:13794   */\n      add\n        /* \"#utility.yul\":13765:13794   */\n      swap1\n      pop\n        /* \"#utility.yul\":13631:13800   */\n      swap3\n      swap2\n      pop\n      pop\n      jump\t// out\n        /* \"#utility.yul\":13806:13997   */\n    tag_213:\n        /* \"#utility.yul\":13846:13850   */\n      0x00\n        /* \"#utility.yul\":13866:13886   */\n      tag_491\n        /* \"#utility.yul\":13884:13885   */\n      dup3\n        /* \"#utility.yul\":13866:13886   */\n      tag_449\n      jump\t// in\n    tag_491:\n        /* \"#utility.yul\":13861:13886   */\n      swap2\n      pop\n        /* \"#utility.yul\":13900:13920   */\n      tag_492\n        /* \"#utility.yul\":13918:13919   */\n      dup4\n        /* \"#utility.yul\":13900:13920   */\n      tag_449\n      jump\t// in\n    tag_492:\n        /* \"#utility.yul\":13895:13920   */\n      swap3\n      pop\n        /* \"#utility.yul\":13939:13940   */\n      dup3\n        /* \"#utility.yul\":13936:13937   */\n      dup3\n        /* \"#utility.yul\":13933:13941   */\n      lt\n        /* \"#utility.yul\":13930:13964   */\n      iszero\n      tag_493\n      jumpi\n        /* \"#utility.yul\":13944:13962   */\n      tag_494\n      tag_495\n      jump\t// in\n    tag_494:\n        /* \"#utility.yul\":13930:13964   */\n    tag_493:\n        /* \"#utility.yul\":13989:13990   */\n      dup3\n        /* \"#utility.yul\":13986:13987   */\n      dup3\n        /* \"#utility.yul\":13982:13991   */\n      sub\n        /* \"#utility.yul\":13974:13991   */\n      swap1\n      pop\n        /* \"#utility.yul\":13806:13997   */\n      swap3\n      swap2\n      pop\n      pop\n      jump\t// out\n        /* \"#utility.yul\":14003:14099   */\n    tag_385:\n        /* \"#utility.yul\":14040:14047   */\n      0x00\n        /* \"#utility.yul\":14069:14093   */\n      tag_497\n        /* \"#utility.yul\":14087:14092   */\n      dup3\n        /* \"#utility.yul\":14069:14093   */\n      tag_498\n      jump\t// in\n    tag_497:\n        /* \"#utility.yul\":14058:14093   */\n      swap1\n      pop\n        /* \"#utility.yul\":14003:14099   */\n      swap2\n      swap1\n      pop\n      jump\t// out\n        /* \"#utility.yul\":14105:14209   */\n    tag_381:\n        /* \"#utility.yul\":14150:14157   */\n      0x00\n        /* \"#utility.yul\":14179:14203   */\n      tag_500\n        /* \"#utility.yul\":14197:14202   */\n      dup3\n        /* \"#utility.yul\":14179:14203   */\n      tag_498\n      jump\t// in\n    tag_500:\n        /* \"#utility.yul\":14168:14203   */\n      swap1\n      pop\n        /* \"#utility.yul\":14105:14209   */\n      swap2\n      swap1\n      pop\n      jump\t// out\n        /* \"#utility.yul\":14215:14305   */\n    tag_406:\n        /* \"#utility.yul\":14249:14256   */\n      0x00\n        /* \"#utility.yul\":14292:14297   */\n      dup2\n        /* \"#utility.yul\":14285:14298   */\n      iszero\n        /* \"#utility.yul\":14278:14299   */\n      iszero\n        /* \"#utility.yul\":14267:14299   */\n      swap1\n      pop\n        /* \"#utility.yul\":14215:14305   */\n      swap2\n      swap1\n      pop\n      jump\t// out\n        /* \"#utility.yul\":14311:14437   */\n    tag_498:\n        /* \"#utility.yul\":14348:14355   */\n      0x00\n        /* \"#utility.yul\":14388:14430   */\n      0xffffffffffffffffffffffffffffffffffffffff\n        /* \"#utility.yul\":14381:14386   */\n      dup3\n        /* \"#utility.yul\":14377:14431   */\n      and\n        /* \"#utility.yul\":14366:14431   */\n      swap1\n      pop\n        /* \"#utility.yul\":14311:14437   */\n      swap2\n      swap1\n      pop\n      jump\t// out\n        /* \"#utility.yul\":14443:14520   */\n    tag_449:\n        /* \"#utility.yul\":14480:14487   */\n      0x00\n        /* \"#utility.yul\":14509:14514   */\n      dup2\n        /* \"#utility.yul\":14498:14514   */\n      swap1\n      pop\n        /* \"#utility.yul\":14443:14520   */\n      swap2\n      swap1\n      pop\n      jump\t// out\n        /* \"#utility.yul\":14526:14660   */\n    tag_377:\n        /* \"#utility.yul\":14584:14593   */\n      0x00\n        /* \"#utility.yul\":14617:14654   */\n      tag_505\n        /* \"#utility.yul\":14648:14653   */\n      dup3\n        /* \"#utility.yul\":14617:14654   */\n      tag_506\n      jump\t// in\n    tag_505:\n        /* \"#utility.yul\":14604:14654   */\n      swap1\n      pop\n        /* \"#utility.yul\":14526:14660   */\n      swap2\n      swap1\n      pop\n      jump\t// out\n        /* \"#utility.yul\":14666:14792   */\n    tag_506:\n        /* \"#utility.yul\":14716:14725   */\n      0x00\n        /* \"#utility.yul\":14749:14786   */\n      tag_508\n        /* \"#utility.yul\":14780:14785   */\n      dup3\n        /* \"#utility.yul\":14749:14786   */\n      tag_509\n      jump\t// in\n    tag_508:\n        /* \"#utility.yul\":14736:14786   */\n      swap1\n      pop\n        /* \"#utility.yul\":14666:14792   */\n      swap2\n      swap1\n      pop\n      jump\t// out\n        /* \"#utility.yul\":14798:14911   */\n    tag_509:\n        /* \"#utility.yul\":14848:14857   */\n      0x00\n        /* \"#utility.yul\":14881:14905   */\n      tag_511\n        /* \"#utility.yul\":14899:14904   */\n      dup3\n        /* \"#utility.yul\":14881:14905   */\n      tag_498\n      jump\t// in\n    tag_511:\n        /* \"#utility.yul\":14868:14905   */\n      swap1\n      pop\n        /* \"#utility.yul\":14798:14911   */\n      swap2\n      swap1\n      pop\n      jump\t// out\n        /* \"#utility.yul\":14917:15150   */\n    tag_118:\n        /* \"#utility.yul\":14956:14959   */\n      0x00\n        /* \"#utility.yul\":14979:15003   */\n      tag_513\n        /* \"#utility.yul\":14997:15002   */\n      dup3\n        /* \"#utility.yul\":14979:15003   */\n      tag_449\n      jump\t// in\n    tag_513:\n        /* \"#utility.yul\":14970:15003   */\n      swap2\n      pop\n        /* \"#utility.yul\":15025:15091   */\n      0xffffffffffffffffffffffffffffffffffffffffffffffffffffffffffffffff\n        /* \"#utility.yul\":15018:15023   */\n      dup3\n        /* \"#utility.yul\":15015:15092   */\n      eq\n        /* \"#utility.yul\":15012:15115   */\n      iszero\n      tag_514\n      jumpi\n        /* \"#utility.yul\":15095:15113   */\n      tag_515\n      tag_495\n      jump\t// in\n    tag_515:\n        /* \"#utility.yul\":15012:15115   */\n    tag_514:\n        /* \"#utility.yul\":15142:15143   */\n      0x01\n        /* \"#utility.yul\":15135:15140   */\n      dup3\n        /* \"#utility.yul\":15131:15144   */\n      add\n        /* \"#utility.yul\":15124:15144   */\n      swap1\n      pop\n        /* \"#utility.yul\":14917:15150   */\n      swap2\n      swap1\n      pop\n      jump\t// out\n        /* \"#utility.yul\":15156:15336   */\n    tag_495:\n        /* \"#utility.yul\":15204:15281   */\n      0x4e487b7100000000000000000000000000000000000000000000000000000000\n        /* \"#utility.yul\":15201:15202   */\n      0x00\n        /* \"#utility.yul\":15194:15282   */\n      mstore\n        /* \"#utility.yul\":15301:15305   */\n      0x11\n        /* \"#utility.yul\":15298:15299   */\n      0x04\n        /* \"#utility.yul\":15291:15306   */\n      mstore\n        /* \"#utility.yul\":15325:15329   */\n      0x24\n        /* \"#utility.yul\":15322:15323   */\n      0x00\n        /* \"#utility.yul\":15315:15330   */\n      revert\n        /* \"#utility.yul\":15342:15522   */\n    tag_88:\n        /* \"#utility.yul\":15390:15467   */\n      0x4e487b7100000000000000000000000000000000000000000000000000000000\n        /* \"#utility.yul\":15387:15388   */\n      0x00\n        /* \"#utility.yul\":15380:15468   */\n      mstore\n        /* \"#utility.yul\":15487:15491   */\n      0x32\n        /* \"#utility.yul\":15484:15485   */\n      0x04\n        /* \"#utility.yul\":15477:15492   */\n      mstore\n        /* \"#utility.yul\":15511:15515   */\n      0x24\n        /* \"#utility.yul\":15508:15509   */\n      0x00\n        /* \"#utility.yul\":15501:15516   */\n      revert\n        /* \"#utility.yul\":15528:15708   */\n    tag_122:\n        /* \"#utility.yul\":15576:15653   */\n      0x4e487b7100000000000000000000000000000000000000000000000000000000\n        /* \"#utility.yul\":15573:15574   */\n      0x00\n        /* \"#utility.yul\":15566:15654   */\n      mstore\n        /* \"#utility.yul\":15673:15677   */\n      0x41\n        /* \"#utility.yul\":15670:15671   */\n      0x04\n        /* \"#utility.yul\":15663:15678   */\n      mstore\n        /* \"#utility.yul\":15697:15701   */\n      0x24\n        /* \"#utility.yul\":15694:15695   */\n      0x00\n        /* \"#utility.yul\":15687:15702   */\n      revert\n        /* \"#utility.yul\":15837:15954   */\n    tag_353:\n        /* \"#utility.yul\":15946:15947   */\n      0x00\n        /* \"#utility.yul\":15943:15944   */\n      dup1\n        /* \"#utility.yul\":15936:15948   */\n      revert\n        /* \"#utility.yul\":15960:16137   */\n    tag_412:\n        /* \"#utility.yul\":16100:16129   */\n      0x436f756e7465723a2064656372656d656e74206f766572666c6f770000000000\n        /* \"#utility.yul\":16096:16097   */\n      0x00\n        /* \"#utility.yul\":16088:16094   */\n      dup3\n        /* \"#utility.yul\":16084:16098   */\n      add\n        /* \"#utility.yul\":16077:16130   */\n      mstore\n        /* \"#utility.yul\":15960:16137   */\n      pop\n      jump\t// out\n        /* \"#utility.yul\":16143:16368   */\n    tag_417:\n        /* \"#utility.yul\":16283:16317   */\n      0x4e6f7420656e6f75676820657468657220746f20636f7665722061736b696e67\n        /* \"#utility.yul\":16279:16280   */\n      0x00\n        /* \"#utility.yul\":16271:16277   */\n      dup3\n        /* \"#utility.yul\":16267:16281   */\n      add\n        /* \"#utility.yul\":16260:16318   */\n      mstore\n        /* \"#utility.yul\":16352:16360   */\n      0x2070726963650000000000000000000000000000000000000000000000000000\n        /* \"#utility.yul\":16347:16349   */\n      0x20\n        /* \"#utility.yul\":16339:16345   */\n      dup3\n        /* \"#utility.yul\":16335:16350   */\n      add\n        /* \"#utility.yul\":16328:16361   */\n      mstore\n        /* \"#utility.yul\":16143:16368   */\n      pop\n      jump\t// out\n        /* \"#utility.yul\":16374:16537   */\n    tag_422:\n        /* \"#utility.yul\":16514:16529   */\n      0x4e6674206e6f7420666f756e6400000000000000000000000000000000000000\n        /* \"#utility.yul\":16510:16511   */\n      0x00\n        /* \"#utility.yul\":16502:16508   */\n      dup3\n        /* \"#utility.yul\":16498:16512   */\n      add\n        /* \"#utility.yul\":16491:16530   */\n      mstore\n        /* \"#utility.yul\":16374:16537   */\n      pop\n      jump\t// out\n        /* \"#utility.yul\":16543:16725   */\n    tag_427:\n        /* \"#utility.yul\":16683:16717   */\n      0x4e6f7420656e6f75676820657468657220666f72206c697374696e6720666565\n        /* \"#utility.yul\":16679:16680   */\n      0x00\n        /* \"#utility.yul\":16671:16677   */\n      dup3\n        /* \"#utility.yul\":16667:16681   */\n      add\n        /* \"#utility.yul\":16660:16718   */\n      mstore\n        /* \"#utility.yul\":16543:16725   */\n      pop\n      jump\t// out\n        /* \"#utility.yul\":16731:16912   */\n    tag_432:\n        /* \"#utility.yul\":16871:16904   */\n      0x5265656e7472616e637947756172643a207265656e7472616e742063616c6c00\n        /* \"#utility.yul\":16867:16868   */\n      0x00\n        /* \"#utility.yul\":16859:16865   */\n      dup3\n        /* \"#utility.yul\":16855:16869   */\n      add\n        /* \"#utility.yul\":16848:16905   */\n      mstore\n        /* \"#utility.yul\":16731:16912   */\n      pop\n      jump\t// out\n        /* \"#utility.yul\":16918:17096   */\n    tag_437:\n        /* \"#utility.yul\":17058:17088   */\n      0x5072696365206d757374206265206174206c6561737420312077656900000000\n        /* \"#utility.yul\":17054:17055   */\n      0x00\n        /* \"#utility.yul\":17046:17052   */\n      dup3\n        /* \"#utility.yul\":17042:17056   */\n      add\n        /* \"#utility.yul\":17035:17089   */\n      mstore\n        /* \"#utility.yul\":16918:17096   */\n      pop\n      jump\t// out\n        /* \"#utility.yul\":17102:17224   */\n    tag_342:\n        /* \"#utility.yul\":17175:17199   */\n      tag_529\n        /* \"#utility.yul\":17193:17198   */\n      dup2\n        /* \"#utility.yul\":17175:17199   */\n      tag_385\n      jump\t// in\n    tag_529:\n        /* \"#utility.yul\":17168:17173   */\n      dup2\n        /* \"#utility.yul\":17165:17200   */\n      eq\n        /* \"#utility.yul\":17155:17218   */\n      tag_530\n      jumpi\n        /* \"#utility.yul\":17214:17215   */\n      0x00\n        /* \"#utility.yul\":17211:17212   */\n      dup1\n        /* \"#utility.yul\":17204:17216   */\n      revert\n        /* \"#utility.yul\":17155:17218   */\n    tag_530:\n        /* \"#utility.yul\":17102:17224   */\n      pop\n      jump\t// out\n        /* \"#utility.yul\":17230:17352   */\n    tag_349:\n        /* \"#utility.yul\":17303:17327   */\n      tag_532\n        /* \"#utility.yul\":17321:17326   */\n      dup2\n        /* \"#utility.yul\":17303:17327   */\n      tag_449\n      jump\t// in\n    tag_532:\n        /* \"#utility.yul\":17296:17301   */\n      dup2\n        /* \"#utility.yul\":17293:17328   */\n      eq\n        /* \"#utility.yul\":17283:17346   */\n      tag_533\n      jumpi\n        /* \"#utility.yul\":17342:17343   */\n      0x00\n        /* \"#utility.yul\":17339:17340   */\n      dup1\n        /* \"#utility.yul\":17332:17344   */\n      revert\n        /* \"#utility.yul\":17283:17346   */\n    tag_533:\n        /* \"#utility.yul\":17230:17352   */\n      pop\n      jump\t// out\n\n    auxdata: 0xa26469706673582212203c7a0f6a4f4301fe6b3aa4bf3887d8f54cf7f727473141bd26c6e1fbe3c919df64736f6c63430008070033\n}\n",
				"bytecode": {
					"linkReferences": {},
					"object": "608060405266071afd498d000060035534801561001b57600080fd5b50600160008190555033600460006101000a81548173ffffffffffffffffffffffffffffffffffffffff021916908373ffffffffffffffffffffffffffffffffffffffff160217905550612bc4806100746000396000f3fe60806040526004361061009c5760003560e01c80638492095a116100645780638492095a1461016c5780638d6cb3fb14610197578063a46b5c5a146101c2578063ad05f1b4146101ed578063b8fe6abe14610209578063e7d90feb146102345761009c565b806304935694146100a15780631f4cc4db146100bd5780632b86ae38146100e85780632f634a90146101135780634ddf4f8f14610150575b600080fd5b6100bb60048036038101906100b6919061240c565b610271565b005b3480156100c957600080fd5b506100d26105dd565b6040516100df919061275e565b60405180910390f35b3480156100f457600080fd5b506100fd6109e7565b60405161010a9190612840565b60405180910390f35b34801561011f57600080fd5b5061013a600480360381019061013591906123cc565b6109ed565b604051610147919061269e565b60405180910390f35b61016a600480360381019061016591906123cc565b610a80565b005b34801561017857600080fd5b50610181610d7b565b60405161018e919061275e565b60405180910390f35b3480156101a357600080fd5b506101ac61110f565b6040516101b9919061275e565b60405180910390f35b3480156101ce57600080fd5b506101d76113d3565b6040516101e4919061275e565b60405180910390f35b6102076004803603810190610202919061240c565b611767565b005b34801561021557600080fd5b5061021e611ba1565b60405161022b9190612840565b60405180910390f35b34801561024057600080fd5b5061025b60048036038101906102569190612372565b611bab565b604051610268919061275e565b60405180910390f35b600260005414156102b7576040517f08c379a00000000000000000000000000000000000000000000000000000000081526004016102ae90612800565b60405180910390fd5b60026000819055508060008111610303576040517f08c379a00000000000000000000000000000000000000000000000000000000081526004016102fa90612820565b60405180910390fd5b6003543414610347576040517f08c379a000000000000000000000000000000000000000000000000000000000815260040161033e906127e0565b60405180910390fd5b60006103538585611f41565b9050809150507fffffffffffffffffffffffffffffffffffffffffffffffffffffffffffffffff8114156103bc576040517f08c379a00000000000000000000000000000000000000000000000000000000081526004016103b3906127c0565b60405180910390fd5b8473ffffffffffffffffffffffffffffffffffffffff166323b872dd3330876040518463ffffffff1660e01b81526004016103f9939291906126f0565b600060405180830381600087803b15801561041357600080fd5b505af1158015610427573d6000803e3d6000fd5b5050505033600582815481106104405761043f6129e1565b5b906000526020600020906006020160030160006101000a81548173ffffffffffffffffffffffffffffffffffffffff021916908373ffffffffffffffffffffffffffffffffffffffff16021790555030600582815481106104a4576104a36129e1565b5b906000526020600020906006020160040160006101000a81548173ffffffffffffffffffffffffffffffffffffffff021916908373ffffffffffffffffffffffffffffffffffffffff160217905550600160058281548110610509576105086129e1565b5b906000526020600020906006020160050160146101000a81548160ff0219169083151502179055508260058281548110610546576105456129e1565b5b906000526020600020906006020160020181905550610565600161221c565b3073ffffffffffffffffffffffffffffffffffffffff163373ffffffffffffffffffffffffffffffffffffffff167fa0c6c0d02d86fdacecbaa5fdf5894bab204e31a778250474108540733a9b8d198787876040516105c693929190612727565b60405180910390a350506001600081905550505050565b606060006105eb6002612278565b90506000805b828110156106cf573373ffffffffffffffffffffffffffffffffffffffff1660058281548110610624576106236129e1565b5b906000526020600020906006020160030160009054906101000a900473ffffffffffffffffffffffffffffffffffffffff1673ffffffffffffffffffffffffffffffffffffffff161480156106a8575060058181548110610688576106876129e1565b5b906000526020600020906006020160050160149054906101000a900460ff165b156106bc5781806106b890612969565b9250505b80806106c790612969565b9150506105f1565b5060008167ffffffffffffffff8111156106ec576106eb612a10565b5b60405190808252806020026020018201604052801561072557816020015b61071261229c565b81526020019060019003908161070a5790505b5090506000805b848110156109dc573373ffffffffffffffffffffffffffffffffffffffff166005828154811061075f5761075e6129e1565b5b906000526020600020906006020160030160009054906101000a900473ffffffffffffffffffffffffffffffffffffffff1673ffffffffffffffffffffffffffffffffffffffff161480156107e35750600581815481106107c3576107c26129e1565b5b906000526020600020906006020160050160149054906101000a900460ff165b156109c957600581815481106107fc576107fb6129e1565b5b90600052602060002090600602016040518060e00160405290816000820160009054906101000a900473ffffffffffffffffffffffffffffffffffffffff1673ffffffffffffffffffffffffffffffffffffffff1673ffffffffffffffffffffffffffffffffffffffff16815260200160018201548152602001600282015481526020016003820160009054906101000a900473ffffffffffffffffffffffffffffffffffffffff1673ffffffffffffffffffffffffffffffffffffffff1673ffffffffffffffffffffffffffffffffffffffff1681526020016004820160009054906101000a900473ffffffffffffffffffffffffffffffffffffffff1673ffffffffffffffffffffffffffffffffffffffff1673ffffffffffffffffffffffffffffffffffffffff1681526020016005820160009054906101000a900473ffffffffffffffffffffffffffffffffffffffff1673ffffffffffffffffffffffffffffffffffffffff1673ffffffffffffffffffffffffffffffffffffffff1681526020016005820160149054906101000a900460ff1615151515815250508383815181106109af576109ae6129e1565b5b602002602001018190525081806109c590612969565b9250505b80806109d490612969565b91505061072c565b508194505050505090565b60035481565b60008273ffffffffffffffffffffffffffffffffffffffff16636352211e836040518263ffffffff1660e01b8152600401610a289190612840565b60206040518083038186803b158015610a4057600080fd5b505afa158015610a54573d6000803e3d6000fd5b505050506040513d601f19601f82011682018060405250810190610a78919061239f565b905092915050565b60026000541415610ac6576040517f08c379a0000000000000000000000000000000000000000000000000000000008152600401610abd90612800565b60405180910390fd5b6002600081905550610ad661229c565b6000610ae28484611f41565b80925081935050507fffffffffffffffffffffffffffffffffffffffffffffffffffffffffffffffff811415610b4d576040517f08c379a0000000000000000000000000000000000000000000000000000000008152600401610b44906127c0565b60405180910390fd5b8160400151341015610b94576040517f08c379a0000000000000000000000000000000000000000000000000000000008152600401610b8b906127a0565b60405180910390fd5b6000339050826060015173ffffffffffffffffffffffffffffffffffffffff166108fc349081150290604051600060405180830381858888f19350505050158015610be3573d6000803e3d6000fd5b508473ffffffffffffffffffffffffffffffffffffffff166323b872dd3083876040518463ffffffff1660e01b8152600401610c21939291906126b9565b600060405180830381600087803b158015610c3b57600080fd5b505af1158015610c4f573d6000803e3d6000fd5b505050508060058381548110610c6857610c676129e1565b5b906000526020600020906006020160040160006101000a81548173ffffffffffffffffffffffffffffffffffffffff021916908373ffffffffffffffffffffffffffffffffffffffff160217905550600060058381548110610ccd57610ccc6129e1565b5b906000526020600020906006020160050160146101000a81548160ff021916908315150217905550610cff6001612286565b8073ffffffffffffffffffffffffffffffffffffffff16836060015173ffffffffffffffffffffffffffffffffffffffff167f16f1dbd97e6bf646d429ed186cce832f1f7fd9907814293b83181e9970ab7bd2878734604051610d6493929190612727565b60405180910390a350505060016000819055505050565b60606000610d896002612278565b90506000805b82811015610e32573373ffffffffffffffffffffffffffffffffffffffff1660058281548110610dc257610dc16129e1565b5b906000526020600020906006020160050160009054906101000a900473ffffffffffffffffffffffffffffffffffffffff1673ffffffffffffffffffffffffffffffffffffffff161415610e1f578180610e1b90612969565b9250505b8080610e2a90612969565b915050610d8f565b5060008167ffffffffffffffff811115610e4f57610e4e612a10565b5b604051908082528060200260200182016040528015610e8857816020015b610e7561229c565b815260200190600190039081610e6d5790505b5090506000805b84811015611104573373ffffffffffffffffffffffffffffffffffffffff1660058281548110610ec257610ec16129e1565b5b906000526020600020906006020160050160009054906101000a900473ffffffffffffffffffffffffffffffffffffffff1673ffffffffffffffffffffffffffffffffffffffff1614156110f15760058181548110610f2457610f236129e1565b5b90600052602060002090600602016040518060e00160405290816000820160009054906101000a900473ffffffffffffffffffffffffffffffffffffffff1673ffffffffffffffffffffffffffffffffffffffff1673ffffffffffffffffffffffffffffffffffffffff16815260200160018201548152602001600282015481526020016003820160009054906101000a900473ffffffffffffffffffffffffffffffffffffffff1673ffffffffffffffffffffffffffffffffffffffff1673ffffffffffffffffffffffffffffffffffffffff1681526020016004820160009054906101000a900473ffffffffffffffffffffffffffffffffffffffff1673ffffffffffffffffffffffffffffffffffffffff1673ffffffffffffffffffffffffffffffffffffffff1681526020016005820160009054906101000a900473ffffffffffffffffffffffffffffffffffffffff1673ffffffffffffffffffffffffffffffffffffffff1673ffffffffffffffffffffffffffffffffffffffff1681526020016005820160149054906101000a900460ff1615151515815250508383815181106110d7576110d66129e1565b5b602002602001018190525081806110ed90612969565b9250505b80806110fc90612969565b915050610e8f565b508194505050505090565b6060600061111d6002612278565b9050600061112b6001612278565b8261113691906128a5565b905060008167ffffffffffffffff81111561115457611153612a10565b5b60405190808252806020026020018201604052801561118d57816020015b61117a61229c565b8152602001906001900390816111725790505b5090506000805b848110156113c857600581815481106111b0576111af6129e1565b5b906000526020600020906006020160050160149054906101000a900460ff16156113b557600581815481106111e8576111e76129e1565b5b90600052602060002090600602016040518060e00160405290816000820160009054906101000a900473ffffffffffffffffffffffffffffffffffffffff1673ffffffffffffffffffffffffffffffffffffffff1673ffffffffffffffffffffffffffffffffffffffff16815260200160018201548152602001600282015481526020016003820160009054906101000a900473ffffffffffffffffffffffffffffffffffffffff1673ffffffffffffffffffffffffffffffffffffffff1673ffffffffffffffffffffffffffffffffffffffff1681526020016004820160009054906101000a900473ffffffffffffffffffffffffffffffffffffffff1673ffffffffffffffffffffffffffffffffffffffff1673ffffffffffffffffffffffffffffffffffffffff1681526020016005820160009054906101000a900473ffffffffffffffffffffffffffffffffffffffff1673ffffffffffffffffffffffffffffffffffffffff1673ffffffffffffffffffffffffffffffffffffffff1681526020016005820160149054906101000a900460ff16151515158152505083838151811061139b5761139a6129e1565b5b602002602001018190525081806113b190612969565b9250505b80806113c090612969565b915050611194565b508194505050505090565b606060006113e16002612278565b90506000805b8281101561148a573373ffffffffffffffffffffffffffffffffffffffff166005828154811061141a576114196129e1565b5b906000526020600020906006020160040160009054906101000a900473ffffffffffffffffffffffffffffffffffffffff1673ffffffffffffffffffffffffffffffffffffffff16141561147757818061147390612969565b9250505b808061148290612969565b9150506113e7565b5060008167ffffffffffffffff8111156114a7576114a6612a10565b5b6040519080825280602002602001820160405280156114e057816020015b6114cd61229c565b8152602001906001900390816114c55790505b5090506000805b8481101561175c573373ffffffffffffffffffffffffffffffffffffffff166005828154811061151a576115196129e1565b5b906000526020600020906006020160040160009054906101000a900473ffffffffffffffffffffffffffffffffffffffff1673ffffffffffffffffffffffffffffffffffffffff161415611749576005818154811061157c5761157b6129e1565b5b90600052602060002090600602016040518060e00160405290816000820160009054906101000a900473ffffffffffffffffffffffffffffffffffffffff1673ffffffffffffffffffffffffffffffffffffffff1673ffffffffffffffffffffffffffffffffffffffff16815260200160018201548152602001600282015481526020016003820160009054906101000a900473ffffffffffffffffffffffffffffffffffffffff1673ffffffffffffffffffffffffffffffffffffffff1673ffffffffffffffffffffffffffffffffffffffff1681526020016004820160009054906101000a900473ffffffffffffffffffffffffffffffffffffffff1673ffffffffffffffffffffffffffffffffffffffff1673ffffffffffffffffffffffffffffffffffffffff1681526020016005820160009054906101000a900473ffffffffffffffffffffffffffffffffffffffff1673ffffffffffffffffffffffffffffffffffffffff1673ffffffffffffffffffffffffffffffffffffffff1681526020016005820160149054906101000a900460ff16151515158152505083838151811061172f5761172e6129e1565b5b6020026020010181905250818061174590612969565b9250505b808061175490612969565b9150506114e7565b508194505050505090565b600260005414156117ad576040517f08c379a00000000000000000000000000000000000000000000000000000000081526004016117a490612800565b60405180910390fd5b600260008190555080600081116117f9576040517f08c379a00000000000000000000000000000000000000000000000000000000081526004016117f090612820565b60405180910390fd5b600354341461183d576040517f08c379a0000000000000000000000000000000000000000000000000000000008152600401611834906127e0565b60405180910390fd5b8373ffffffffffffffffffffffffffffffffffffffff166323b872dd3330866040518463ffffffff1660e01b815260040161187a939291906126f0565b600060405180830381600087803b15801561189457600080fd5b505af11580156118a8573d6000803e3d6000fd5b5050505060056040518060e001604052808673ffffffffffffffffffffffffffffffffffffffff1681526020018581526020018481526020013373ffffffffffffffffffffffffffffffffffffffff1681526020013073ffffffffffffffffffffffffffffffffffffffff1681526020013373ffffffffffffffffffffffffffffffffffffffff16815260200160011515815250908060018154018082558091505060019003906000526020600020906006020160009091909190915060008201518160000160006101000a81548173ffffffffffffffffffffffffffffffffffffffff021916908373ffffffffffffffffffffffffffffffffffffffff160217905550602082015181600101556040820151816002015560608201518160030160006101000a81548173ffffffffffffffffffffffffffffffffffffffff021916908373ffffffffffffffffffffffffffffffffffffffff16021790555060808201518160040160006101000a81548173ffffffffffffffffffffffffffffffffffffffff021916908373ffffffffffffffffffffffffffffffffffffffff16021790555060a08201518160050160006101000a81548173ffffffffffffffffffffffffffffffffffffffff021916908373ffffffffffffffffffffffffffffffffffffffff16021790555060c08201518160050160146101000a81548160ff0219169083151502179055505050611ac16002612286565b600460009054906101000a900473ffffffffffffffffffffffffffffffffffffffff1673ffffffffffffffffffffffffffffffffffffffff166108fc349081150290604051600060405180830381858888f19350505050158015611b29573d6000803e3d6000fd5b503073ffffffffffffffffffffffffffffffffffffffff163373ffffffffffffffffffffffffffffffffffffffff167fa0c6c0d02d86fdacecbaa5fdf5894bab204e31a778250474108540733a9b8d19868686604051611b8b93929190612727565b60405180910390a3506001600081905550505050565b6000600354905090565b60606000611bb96002612278565b90506000805b82811015611c62578473ffffffffffffffffffffffffffffffffffffffff1660058281548110611bf257611bf16129e1565b5b906000526020600020906006020160000160009054906101000a900473ffffffffffffffffffffffffffffffffffffffff1673ffffffffffffffffffffffffffffffffffffffff161415611c4f578180611c4b90612969565b9250505b8080611c5a90612969565b915050611bbf565b5060008167ffffffffffffffff811115611c7f57611c7e612a10565b5b604051908082528060200260200182016040528015611cb857816020015b611ca561229c565b815260200190600190039081611c9d5790505b5090506000805b84811015611f34578673ffffffffffffffffffffffffffffffffffffffff1660058281548110611cf257611cf16129e1565b5b906000526020600020906006020160000160009054906101000a900473ffffffffffffffffffffffffffffffffffffffff1673ffffffffffffffffffffffffffffffffffffffff161415611f215760058181548110611d5457611d536129e1565b5b90600052602060002090600602016040518060e00160405290816000820160009054906101000a900473ffffffffffffffffffffffffffffffffffffffff1673ffffffffffffffffffffffffffffffffffffffff1673ffffffffffffffffffffffffffffffffffffffff16815260200160018201548152602001600282015481526020016003820160009054906101000a900473ffffffffffffffffffffffffffffffffffffffff1673ffffffffffffffffffffffffffffffffffffffff1673ffffffffffffffffffffffffffffffffffffffff1681526020016004820160009054906101000a900473ffffffffffffffffffffffffffffffffffffffff1673ffffffffffffffffffffffffffffffffffffffff1673ffffffffffffffffffffffffffffffffffffffff1681526020016005820160009054906101000a900473ffffffffffffffffffffffffffffffffffffffff1673ffffffffffffffffffffffffffffffffffffffff1673ffffffffffffffffffffffffffffffffffffffff1681526020016005820160149054906101000a900460ff161515151581525050838381518110611f0757611f066129e1565b5b60200260200101819052508180611f1d90612969565b9250505b8080611f2c90612969565b915050611cbf565b5081945050505050919050565b611f4961229c565b6000611f5361229c565b60007fffffffffffffffffffffffffffffffffffffffffffffffffffffffffffffffff90506000611f846002612278565b905060005b8181101561220b578773ffffffffffffffffffffffffffffffffffffffff1660058281548110611fbc57611fbb6129e1565b5b906000526020600020906006020160000160009054906101000a900473ffffffffffffffffffffffffffffffffffffffff1673ffffffffffffffffffffffffffffffffffffffff1614801561203557508660058281548110612021576120206129e1565b5b906000526020600020906006020160010154145b156121f8576005818154811061204e5761204d6129e1565b5b90600052602060002090600602016040518060e00160405290816000820160009054906101000a900473ffffffffffffffffffffffffffffffffffffffff1673ffffffffffffffffffffffffffffffffffffffff1673ffffffffffffffffffffffffffffffffffffffff16815260200160018201548152602001600282015481526020016003820160009054906101000a900473ffffffffffffffffffffffffffffffffffffffff1673ffffffffffffffffffffffffffffffffffffffff1673ffffffffffffffffffffffffffffffffffffffff1681526020016004820160009054906101000a900473ffffffffffffffffffffffffffffffffffffffff1673ffffffffffffffffffffffffffffffffffffffff1673ffffffffffffffffffffffffffffffffffffffff1681526020016005820160009054906101000a900473ffffffffffffffffffffffffffffffffffffffff1673ffffffffffffffffffffffffffffffffffffffff1673ffffffffffffffffffffffffffffffffffffffff1681526020016005820160149054906101000a900460ff161515151581525050935080925061220b565b808061220390612969565b915050611f89565b508282945094505050509250929050565b60008160000154905060008111612268576040517f08c379a000000000000000000000000000000000000000000000000000000000815260040161225f90612780565b60405180910390fd5b6001810382600001819055505050565b600081600001549050919050565b6001816000016000828254019250508190555050565b6040518060e00160405280600073ffffffffffffffffffffffffffffffffffffffff1681526020016000815260200160008152602001600073ffffffffffffffffffffffffffffffffffffffff168152602001600073ffffffffffffffffffffffffffffffffffffffff168152602001600073ffffffffffffffffffffffffffffffffffffffff1681526020016000151581525090565b60008135905061234281612b60565b92915050565b60008151905061235781612b60565b92915050565b60008135905061236c81612b77565b92915050565b60006020828403121561238857612387612a3f565b5b600061239684828501612333565b91505092915050565b6000602082840312156123b5576123b4612a3f565b5b60006123c384828501612348565b91505092915050565b600080604083850312156123e3576123e2612a3f565b5b60006123f185828601612333565b92505060206124028582860161235d565b9150509250929050565b60008060006060848603121561242557612424612a3f565b5b600061243386828701612333565b93505060206124448682870161235d565b92505060406124558682870161235d565b9150509250925092565b600061246b83836125f2565b60e08301905092915050565b61248081612933565b82525050565b61248f816128eb565b82525050565b61249e816128d9565b82525050565b6124ad816128d9565b82525050565b60006124be8261286b565b6124c88185612883565b93506124d38361285b565b8060005b838110156125045781516124eb888261245f565b97506124f683612876565b9250506001810190506124d7565b5085935050505092915050565b61251a816128fd565b82525050565b600061252d601b83612894565b915061253882612a44565b602082019050919050565b6000612550602683612894565b915061255b82612a6d565b604082019050919050565b6000612573600d83612894565b915061257e82612abc565b602082019050919050565b6000612596602083612894565b91506125a182612ae5565b602082019050919050565b60006125b9601f83612894565b91506125c482612b0e565b602082019050919050565b60006125dc601c83612894565b91506125e782612b37565b602082019050919050565b60e0820160008201516126086000850182612495565b50602082015161261b6020850182612680565b50604082015161262e6040850182612680565b5060608201516126416060850182612486565b5060808201516126546080850182612486565b5060a082015161266760a0850182612486565b5060c082015161267a60c0850182612511565b50505050565b61268981612929565b82525050565b61269881612929565b82525050565b60006020820190506126b360008301846124a4565b92915050565b60006060820190506126ce60008301866124a4565b6126db6020830185612477565b6126e8604083018461268f565b949350505050565b600060608201905061270560008301866124a4565b61271260208301856124a4565b61271f604083018461268f565b949350505050565b600060608201905061273c60008301866124a4565b612749602083018561268f565b612756604083018461268f565b949350505050565b6000602082019050818103600083015261277881846124b3565b905092915050565b6000602082019050818103600083015261279981612520565b9050919050565b600060208201905081810360008301526127b981612543565b9050919050565b600060208201905081810360008301526127d981612566565b9050919050565b600060208201905081810360008301526127f981612589565b9050919050565b60006020820190508181036000830152612819816125ac565b9050919050565b60006020820190508181036000830152612839816125cf565b9050919050565b6000602082019050612855600083018461268f565b92915050565b6000819050602082019050919050565b600081519050919050565b6000602082019050919050565b600082825260208201905092915050565b600082825260208201905092915050565b60006128b082612929565b91506128bb83612929565b9250828210156128ce576128cd6129b2565b5b828203905092915050565b60006128e482612909565b9050919050565b60006128f682612909565b9050919050565b60008115159050919050565b600073ffffffffffffffffffffffffffffffffffffffff82169050919050565b6000819050919050565b600061293e82612945565b9050919050565b600061295082612957565b9050919050565b600061296282612909565b9050919050565b600061297482612929565b91507fffffffffffffffffffffffffffffffffffffffffffffffffffffffffffffffff8214156129a7576129a66129b2565b5b600182019050919050565b7f4e487b7100000000000000000000000000000000000000000000000000000000600052601160045260246000fd5b7f4e487b7100000000000000000000000000000000000000000000000000000000600052603260045260246000fd5b7f4e487b7100000000000000000000000000000000000000000000000000000000600052604160045260246000fd5b600080fd5b7f436f756e7465723a2064656372656d656e74206f766572666c6f770000000000600082015250565b7f4e6f7420656e6f75676820657468657220746f20636f7665722061736b696e6760008201527f2070726963650000000000000000000000000000000000000000000000000000602082015250565b7f4e6674206e6f7420666f756e6400000000000000000000000000000000000000600082015250565b7f4e6f7420656e6f75676820657468657220666f72206c697374696e6720666565600082015250565b7f5265656e7472616e637947756172643a207265656e7472616e742063616c6c00600082015250565b7f5072696365206d757374206265206174206c6561737420312077656900000000600082015250565b612b69816128d9565b8114612b7457600080fd5b50565b612b8081612929565b8114612b8b57600080fd5b5056fea26469706673582212203c7a0f6a4f4301fe6b3aa4bf3887d8f54cf7f727473141bd26c6e1fbe3c919df64736f6c63430008070033",
					"opcodes": "PUSH1 0x80 PUSH1 0x40 MSTORE PUSH7 0x71AFD498D0000 PUSH1 0x3 SSTORE CALLVALUE DUP1 ISZERO PUSH2 0x1B JUMPI PUSH1 0x0 DUP1 REVERT JUMPDEST POP PUSH1 0x1 PUSH1 0x0 DUP2 SWAP1 SSTORE POP CALLER PUSH1 0x4 PUSH1 0x0 PUSH2 0x100 EXP DUP2 SLOAD DUP2 PUSH20 0xFFFFFFFFFFFFFFFFFFFFFFFFFFFFFFFFFFFFFFFF MUL NOT AND SWAP1 DUP4 PUSH20 0xFFFFFFFFFFFFFFFFFFFFFFFFFFFFFFFFFFFFFFFF AND MUL OR SWAP1 SSTORE POP PUSH2 0x2BC4 DUP1 PUSH2 0x74 PUSH1 0x0 CODECOPY PUSH1 0x0 RETURN INVALID PUSH1 0x80 PUSH1 0x40 MSTORE PUSH1 0x4 CALLDATASIZE LT PUSH2 0x9C JUMPI PUSH1 0x0 CALLDATALOAD PUSH1 0xE0 SHR DUP1 PUSH4 0x8492095A GT PUSH2 0x64 JUMPI DUP1 PUSH4 0x8492095A EQ PUSH2 0x16C JUMPI DUP1 PUSH4 0x8D6CB3FB EQ PUSH2 0x197 JUMPI DUP1 PUSH4 0xA46B5C5A EQ PUSH2 0x1C2 JUMPI DUP1 PUSH4 0xAD05F1B4 EQ PUSH2 0x1ED JUMPI DUP1 PUSH4 0xB8FE6ABE EQ PUSH2 0x209 JUMPI DUP1 PUSH4 0xE7D90FEB EQ PUSH2 0x234 JUMPI PUSH2 0x9C JUMP JUMPDEST DUP1 PUSH4 0x4935694 EQ PUSH2 0xA1 JUMPI DUP1 PUSH4 0x1F4CC4DB EQ PUSH2 0xBD JUMPI DUP1 PUSH4 0x2B86AE38 EQ PUSH2 0xE8 JUMPI DUP1 PUSH4 0x2F634A90 EQ PUSH2 0x113 JUMPI DUP1 PUSH4 0x4DDF4F8F EQ PUSH2 0x150 JUMPI JUMPDEST PUSH1 0x0 DUP1 REVERT JUMPDEST PUSH2 0xBB PUSH1 0x4 DUP1 CALLDATASIZE SUB DUP2 ADD SWAP1 PUSH2 0xB6 SWAP2 SWAP1 PUSH2 0x240C JUMP JUMPDEST PUSH2 0x271 JUMP JUMPDEST STOP JUMPDEST CALLVALUE DUP1 ISZERO PUSH2 0xC9 JUMPI PUSH1 0x0 DUP1 REVERT JUMPDEST POP PUSH2 0xD2 PUSH2 0x5DD JUMP JUMPDEST PUSH1 0x40 MLOAD PUSH2 0xDF SWAP2 SWAP1 PUSH2 0x275E JUMP JUMPDEST PUSH1 0x40 MLOAD DUP1 SWAP2 SUB SWAP1 RETURN JUMPDEST CALLVALUE DUP1 ISZERO PUSH2 0xF4 JUMPI PUSH1 0x0 DUP1 REVERT JUMPDEST POP PUSH2 0xFD PUSH2 0x9E7 JUMP JUMPDEST PUSH1 0x40 MLOAD PUSH2 0x10A SWAP2 SWAP1 PUSH2 0x2840 JUMP JUMPDEST PUSH1 0x40 MLOAD DUP1 SWAP2 SUB SWAP1 RETURN JUMPDEST CALLVALUE DUP1 ISZERO PUSH2 0x11F JUMPI PUSH1 0x0 DUP1 REVERT JUMPDEST POP PUSH2 0x13A PUSH1 0x4 DUP1 CALLDATASIZE SUB DUP2 ADD SWAP1 PUSH2 0x135 SWAP2 SWAP1 PUSH2 0x23CC JUMP JUMPDEST PUSH2 0x9ED JUMP JUMPDEST PUSH1 0x40 MLOAD PUSH2 0x147 SWAP2 SWAP1 PUSH2 0x269E JUMP JUMPDEST PUSH1 0x40 MLOAD DUP1 SWAP2 SUB SWAP1 RETURN JUMPDEST PUSH2 0x16A PUSH1 0x4 DUP1 CALLDATASIZE SUB DUP2 ADD SWAP1 PUSH2 0x165 SWAP2 SWAP1 PUSH2 0x23CC JUMP JUMPDEST PUSH2 0xA80 JUMP JUMPDEST STOP JUMPDEST CALLVALUE DUP1 ISZERO PUSH2 0x178 JUMPI PUSH1 0x0 DUP1 REVERT JUMPDEST POP PUSH2 0x181 PUSH2 0xD7B JUMP JUMPDEST PUSH1 0x40 MLOAD PUSH2 0x18E SWAP2 SWAP1 PUSH2 0x275E JUMP JUMPDEST PUSH1 0x40 MLOAD DUP1 SWAP2 SUB SWAP1 RETURN JUMPDEST CALLVALUE DUP1 ISZERO PUSH2 0x1A3 JUMPI PUSH1 0x0 DUP1 REVERT JUMPDEST POP PUSH2 0x1AC PUSH2 0x110F JUMP JUMPDEST PUSH1 0x40 MLOAD PUSH2 0x1B9 SWAP2 SWAP1 PUSH2 0x275E JUMP JUMPDEST PUSH1 0x40 MLOAD DUP1 SWAP2 SUB SWAP1 RETURN JUMPDEST CALLVALUE DUP1 ISZERO PUSH2 0x1CE JUMPI PUSH1 0x0 DUP1 REVERT JUMPDEST POP PUSH2 0x1D7 PUSH2 0x13D3 JUMP JUMPDEST PUSH1 0x40 MLOAD PUSH2 0x1E4 SWAP2 SWAP1 PUSH2 0x275E JUMP JUMPDEST PUSH1 0x40 MLOAD DUP1 SWAP2 SUB SWAP1 RETURN JUMPDEST PUSH2 0x207 PUSH1 0x4 DUP1 CALLDATASIZE SUB DUP2 ADD SWAP1 PUSH2 0x202 SWAP2 SWAP1 PUSH2 0x240C JUMP JUMPDEST PUSH2 0x1767 JUMP JUMPDEST STOP JUMPDEST CALLVALUE DUP1 ISZERO PUSH2 0x215 JUMPI PUSH1 0x0 DUP1 REVERT JUMPDEST POP PUSH2 0x21E PUSH2 0x1BA1 JUMP JUMPDEST PUSH1 0x40 MLOAD PUSH2 0x22B SWAP2 SWAP1 PUSH2 0x2840 JUMP JUMPDEST PUSH1 0x40 MLOAD DUP1 SWAP2 SUB SWAP1 RETURN JUMPDEST CALLVALUE DUP1 ISZERO PUSH2 0x240 JUMPI PUSH1 0x0 DUP1 REVERT JUMPDEST POP PUSH2 0x25B PUSH1 0x4 DUP1 CALLDATASIZE SUB DUP2 ADD SWAP1 PUSH2 0x256 SWAP2 SWAP1 PUSH2 0x2372 JUMP JUMPDEST PUSH2 0x1BAB JUMP JUMPDEST PUSH1 0x40 MLOAD PUSH2 0x268 SWAP2 SWAP1 PUSH2 0x275E JUMP JUMPDEST PUSH1 0x40 MLOAD DUP1 SWAP2 SUB SWAP1 RETURN JUMPDEST PUSH1 0x2 PUSH1 0x0 SLOAD EQ ISZERO PUSH2 0x2B7 JUMPI PUSH1 0x40 MLOAD PUSH32 0x8C379A000000000000000000000000000000000000000000000000000000000 DUP2 MSTORE PUSH1 0x4 ADD PUSH2 0x2AE SWAP1 PUSH2 0x2800 JUMP JUMPDEST PUSH1 0x40 MLOAD DUP1 SWAP2 SUB SWAP1 REVERT JUMPDEST PUSH1 0x2 PUSH1 0x0 DUP2 SWAP1 SSTORE POP DUP1 PUSH1 0x0 DUP2 GT PUSH2 0x303 JUMPI PUSH1 0x40 MLOAD PUSH32 0x8C379A000000000000000000000000000000000000000000000000000000000 DUP2 MSTORE PUSH1 0x4 ADD PUSH2 0x2FA SWAP1 PUSH2 0x2820 JUMP JUMPDEST PUSH1 0x40 MLOAD DUP1 SWAP2 SUB SWAP1 REVERT JUMPDEST PUSH1 0x3 SLOAD CALLVALUE EQ PUSH2 0x347 JUMPI PUSH1 0x40 MLOAD PUSH32 0x8C379A000000000000000000000000000000000000000000000000000000000 DUP2 MSTORE PUSH1 0x4 ADD PUSH2 0x33E SWAP1 PUSH2 0x27E0 JUMP JUMPDEST PUSH1 0x40 MLOAD DUP1 SWAP2 SUB SWAP1 REVERT JUMPDEST PUSH1 0x0 PUSH2 0x353 DUP6 DUP6 PUSH2 0x1F41 JUMP JUMPDEST SWAP1 POP DUP1 SWAP2 POP POP PUSH32 0xFFFFFFFFFFFFFFFFFFFFFFFFFFFFFFFFFFFFFFFFFFFFFFFFFFFFFFFFFFFFFFFF DUP2 EQ ISZERO PUSH2 0x3BC JUMPI PUSH1 0x40 MLOAD PUSH32 0x8C379A000000000000000000000000000000000000000000000000000000000 DUP2 MSTORE PUSH1 0x4 ADD PUSH2 0x3B3 SWAP1 PUSH2 0x27C0 JUMP JUMPDEST PUSH1 0x40 MLOAD DUP1 SWAP2 SUB SWAP1 REVERT JUMPDEST DUP5 PUSH20 0xFFFFFFFFFFFFFFFFFFFFFFFFFFFFFFFFFFFFFFFF AND PUSH4 0x23B872DD CALLER ADDRESS DUP8 PUSH1 0x40 MLOAD DUP5 PUSH4 0xFFFFFFFF AND PUSH1 0xE0 SHL DUP2 MSTORE PUSH1 0x4 ADD PUSH2 0x3F9 SWAP4 SWAP3 SWAP2 SWAP1 PUSH2 0x26F0 JUMP JUMPDEST PUSH1 0x0 PUSH1 0x40 MLOAD DUP1 DUP4 SUB DUP2 PUSH1 0x0 DUP8 DUP1 EXTCODESIZE ISZERO DUP1 ISZERO PUSH2 0x413 JUMPI PUSH1 0x0 DUP1 REVERT JUMPDEST POP GAS CALL ISZERO DUP1 ISZERO PUSH2 0x427 JUMPI RETURNDATASIZE PUSH1 0x0 DUP1 RETURNDATACOPY RETURNDATASIZE PUSH1 0x0 REVERT JUMPDEST POP POP POP POP CALLER PUSH1 0x5 DUP3 DUP2 SLOAD DUP2 LT PUSH2 0x440 JUMPI PUSH2 0x43F PUSH2 0x29E1 JUMP JUMPDEST JUMPDEST SWAP1 PUSH1 0x0 MSTORE PUSH1 0x20 PUSH1 0x0 KECCAK256 SWAP1 PUSH1 0x6 MUL ADD PUSH1 0x3 ADD PUSH1 0x0 PUSH2 0x100 EXP DUP2 SLOAD DUP2 PUSH20 0xFFFFFFFFFFFFFFFFFFFFFFFFFFFFFFFFFFFFFFFF MUL NOT AND SWAP1 DUP4 PUSH20 0xFFFFFFFFFFFFFFFFFFFFFFFFFFFFFFFFFFFFFFFF AND MUL OR SWAP1 SSTORE POP ADDRESS PUSH1 0x5 DUP3 DUP2 SLOAD DUP2 LT PUSH2 0x4A4 JUMPI PUSH2 0x4A3 PUSH2 0x29E1 JUMP JUMPDEST JUMPDEST SWAP1 PUSH1 0x0 MSTORE PUSH1 0x20 PUSH1 0x0 KECCAK256 SWAP1 PUSH1 0x6 MUL ADD PUSH1 0x4 ADD PUSH1 0x0 PUSH2 0x100 EXP DUP2 SLOAD DUP2 PUSH20 0xFFFFFFFFFFFFFFFFFFFFFFFFFFFFFFFFFFFFFFFF MUL NOT AND SWAP1 DUP4 PUSH20 0xFFFFFFFFFFFFFFFFFFFFFFFFFFFFFFFFFFFFFFFF AND MUL OR SWAP1 SSTORE POP PUSH1 0x1 PUSH1 0x5 DUP3 DUP2 SLOAD DUP2 LT PUSH2 0x509 JUMPI PUSH2 0x508 PUSH2 0x29E1 JUMP JUMPDEST JUMPDEST SWAP1 PUSH1 0x0 MSTORE PUSH1 0x20 PUSH1 0x0 KECCAK256 SWAP1 PUSH1 0x6 MUL ADD PUSH1 0x5 ADD PUSH1 0x14 PUSH2 0x100 EXP DUP2 SLOAD DUP2 PUSH1 0xFF MUL NOT AND SWAP1 DUP4 ISZERO ISZERO MUL OR SWAP1 SSTORE POP DUP3 PUSH1 0x5 DUP3 DUP2 SLOAD DUP2 LT PUSH2 0x546 JUMPI PUSH2 0x545 PUSH2 0x29E1 JUMP JUMPDEST JUMPDEST SWAP1 PUSH1 0x0 MSTORE PUSH1 0x20 PUSH1 0x0 KECCAK256 SWAP1 PUSH1 0x6 MUL ADD PUSH1 0x2 ADD DUP2 SWAP1 SSTORE POP PUSH2 0x565 PUSH1 0x1 PUSH2 0x221C JUMP JUMPDEST ADDRESS PUSH20 0xFFFFFFFFFFFFFFFFFFFFFFFFFFFFFFFFFFFFFFFF AND CALLER PUSH20 0xFFFFFFFFFFFFFFFFFFFFFFFFFFFFFFFFFFFFFFFF AND PUSH32 0xA0C6C0D02D86FDACECBAA5FDF5894BAB204E31A778250474108540733A9B8D19 DUP8 DUP8 DUP8 PUSH1 0x40 MLOAD PUSH2 0x5C6 SWAP4 SWAP3 SWAP2 SWAP1 PUSH2 0x2727 JUMP JUMPDEST PUSH1 0x40 MLOAD DUP1 SWAP2 SUB SWAP1 LOG3 POP POP PUSH1 0x1 PUSH1 0x0 DUP2 SWAP1 SSTORE POP POP POP POP JUMP JUMPDEST PUSH1 0x60 PUSH1 0x0 PUSH2 0x5EB PUSH1 0x2 PUSH2 0x2278 JUMP JUMPDEST SWAP1 POP PUSH1 0x0 DUP1 JUMPDEST DUP3 DUP2 LT ISZERO PUSH2 0x6CF JUMPI CALLER PUSH20 0xFFFFFFFFFFFFFFFFFFFFFFFFFFFFFFFFFFFFFFFF AND PUSH1 0x5 DUP3 DUP2 SLOAD DUP2 LT PUSH2 0x624 JUMPI PUSH2 0x623 PUSH2 0x29E1 JUMP JUMPDEST JUMPDEST SWAP1 PUSH1 0x0 MSTORE PUSH1 0x20 PUSH1 0x0 KECCAK256 SWAP1 PUSH1 0x6 MUL ADD PUSH1 0x3 ADD PUSH1 0x0 SWAP1 SLOAD SWAP1 PUSH2 0x100 EXP SWAP1 DIV PUSH20 0xFFFFFFFFFFFFFFFFFFFFFFFFFFFFFFFFFFFFFFFF AND PUSH20 0xFFFFFFFFFFFFFFFFFFFFFFFFFFFFFFFFFFFFFFFF AND EQ DUP1 ISZERO PUSH2 0x6A8 JUMPI POP PUSH1 0x5 DUP2 DUP2 SLOAD DUP2 LT PUSH2 0x688 JUMPI PUSH2 0x687 PUSH2 0x29E1 JUMP JUMPDEST JUMPDEST SWAP1 PUSH1 0x0 MSTORE PUSH1 0x20 PUSH1 0x0 KECCAK256 SWAP1 PUSH1 0x6 MUL ADD PUSH1 0x5 ADD PUSH1 0x14 SWAP1 SLOAD SWAP1 PUSH2 0x100 EXP SWAP1 DIV PUSH1 0xFF AND JUMPDEST ISZERO PUSH2 0x6BC JUMPI DUP2 DUP1 PUSH2 0x6B8 SWAP1 PUSH2 0x2969 JUMP JUMPDEST SWAP3 POP POP JUMPDEST DUP1 DUP1 PUSH2 0x6C7 SWAP1 PUSH2 0x2969 JUMP JUMPDEST SWAP2 POP POP PUSH2 0x5F1 JUMP JUMPDEST POP PUSH1 0x0 DUP2 PUSH8 0xFFFFFFFFFFFFFFFF DUP2 GT ISZERO PUSH2 0x6EC JUMPI PUSH2 0x6EB PUSH2 0x2A10 JUMP JUMPDEST JUMPDEST PUSH1 0x40 MLOAD SWAP1 DUP1 DUP3 MSTORE DUP1 PUSH1 0x20 MUL PUSH1 0x20 ADD DUP3 ADD PUSH1 0x40 MSTORE DUP1 ISZERO PUSH2 0x725 JUMPI DUP2 PUSH1 0x20 ADD JUMPDEST PUSH2 0x712 PUSH2 0x229C JUMP JUMPDEST DUP2 MSTORE PUSH1 0x20 ADD SWAP1 PUSH1 0x1 SWAP1 SUB SWAP1 DUP2 PUSH2 0x70A JUMPI SWAP1 POP JUMPDEST POP SWAP1 POP PUSH1 0x0 DUP1 JUMPDEST DUP5 DUP2 LT ISZERO PUSH2 0x9DC JUMPI CALLER PUSH20 0xFFFFFFFFFFFFFFFFFFFFFFFFFFFFFFFFFFFFFFFF AND PUSH1 0x5 DUP3 DUP2 SLOAD DUP2 LT PUSH2 0x75F JUMPI PUSH2 0x75E PUSH2 0x29E1 JUMP JUMPDEST JUMPDEST SWAP1 PUSH1 0x0 MSTORE PUSH1 0x20 PUSH1 0x0 KECCAK256 SWAP1 PUSH1 0x6 MUL ADD PUSH1 0x3 ADD PUSH1 0x0 SWAP1 SLOAD SWAP1 PUSH2 0x100 EXP SWAP1 DIV PUSH20 0xFFFFFFFFFFFFFFFFFFFFFFFFFFFFFFFFFFFFFFFF AND PUSH20 0xFFFFFFFFFFFFFFFFFFFFFFFFFFFFFFFFFFFFFFFF AND EQ DUP1 ISZERO PUSH2 0x7E3 JUMPI POP PUSH1 0x5 DUP2 DUP2 SLOAD DUP2 LT PUSH2 0x7C3 JUMPI PUSH2 0x7C2 PUSH2 0x29E1 JUMP JUMPDEST JUMPDEST SWAP1 PUSH1 0x0 MSTORE PUSH1 0x20 PUSH1 0x0 KECCAK256 SWAP1 PUSH1 0x6 MUL ADD PUSH1 0x5 ADD PUSH1 0x14 SWAP1 SLOAD SWAP1 PUSH2 0x100 EXP SWAP1 DIV PUSH1 0xFF AND JUMPDEST ISZERO PUSH2 0x9C9 JUMPI PUSH1 0x5 DUP2 DUP2 SLOAD DUP2 LT PUSH2 0x7FC JUMPI PUSH2 0x7FB PUSH2 0x29E1 JUMP JUMPDEST JUMPDEST SWAP1 PUSH1 0x0 MSTORE PUSH1 0x20 PUSH1 0x0 KECCAK256 SWAP1 PUSH1 0x6 MUL ADD PUSH1 0x40 MLOAD DUP1 PUSH1 0xE0 ADD PUSH1 0x40 MSTORE SWAP1 DUP2 PUSH1 0x0 DUP3 ADD PUSH1 0x0 SWAP1 SLOAD SWAP1 PUSH2 0x100 EXP SWAP1 DIV PUSH20 0xFFFFFFFFFFFFFFFFFFFFFFFFFFFFFFFFFFFFFFFF AND PUSH20 0xFFFFFFFFFFFFFFFFFFFFFFFFFFFFFFFFFFFFFFFF AND PUSH20 0xFFFFFFFFFFFFFFFFFFFFFFFFFFFFFFFFFFFFFFFF AND DUP2 MSTORE PUSH1 0x20 ADD PUSH1 0x1 DUP3 ADD SLOAD DUP2 MSTORE PUSH1 0x20 ADD PUSH1 0x2 DUP3 ADD SLOAD DUP2 MSTORE PUSH1 0x20 ADD PUSH1 0x3 DUP3 ADD PUSH1 0x0 SWAP1 SLOAD SWAP1 PUSH2 0x100 EXP SWAP1 DIV PUSH20 0xFFFFFFFFFFFFFFFFFFFFFFFFFFFFFFFFFFFFFFFF AND PUSH20 0xFFFFFFFFFFFFFFFFFFFFFFFFFFFFFFFFFFFFFFFF AND PUSH20 0xFFFFFFFFFFFFFFFFFFFFFFFFFFFFFFFFFFFFFFFF AND DUP2 MSTORE PUSH1 0x20 ADD PUSH1 0x4 DUP3 ADD PUSH1 0x0 SWAP1 SLOAD SWAP1 PUSH2 0x100 EXP SWAP1 DIV PUSH20 0xFFFFFFFFFFFFFFFFFFFFFFFFFFFFFFFFFFFFFFFF AND PUSH20 0xFFFFFFFFFFFFFFFFFFFFFFFFFFFFFFFFFFFFFFFF AND PUSH20 0xFFFFFFFFFFFFFFFFFFFFFFFFFFFFFFFFFFFFFFFF AND DUP2 MSTORE PUSH1 0x20 ADD PUSH1 0x5 DUP3 ADD PUSH1 0x0 SWAP1 SLOAD SWAP1 PUSH2 0x100 EXP SWAP1 DIV PUSH20 0xFFFFFFFFFFFFFFFFFFFFFFFFFFFFFFFFFFFFFFFF AND PUSH20 0xFFFFFFFFFFFFFFFFFFFFFFFFFFFFFFFFFFFFFFFF AND PUSH20 0xFFFFFFFFFFFFFFFFFFFFFFFFFFFFFFFFFFFFFFFF AND DUP2 MSTORE PUSH1 0x20 ADD PUSH1 0x5 DUP3 ADD PUSH1 0x14 SWAP1 SLOAD SWAP1 PUSH2 0x100 EXP SWAP1 DIV PUSH1 0xFF AND ISZERO ISZERO ISZERO ISZERO DUP2 MSTORE POP POP DUP4 DUP4 DUP2 MLOAD DUP2 LT PUSH2 0x9AF JUMPI PUSH2 0x9AE PUSH2 0x29E1 JUMP JUMPDEST JUMPDEST PUSH1 0x20 MUL PUSH1 0x20 ADD ADD DUP2 SWAP1 MSTORE POP DUP2 DUP1 PUSH2 0x9C5 SWAP1 PUSH2 0x2969 JUMP JUMPDEST SWAP3 POP POP JUMPDEST DUP1 DUP1 PUSH2 0x9D4 SWAP1 PUSH2 0x2969 JUMP JUMPDEST SWAP2 POP POP PUSH2 0x72C JUMP JUMPDEST POP DUP2 SWAP5 POP POP POP POP POP SWAP1 JUMP JUMPDEST PUSH1 0x3 SLOAD DUP2 JUMP JUMPDEST PUSH1 0x0 DUP3 PUSH20 0xFFFFFFFFFFFFFFFFFFFFFFFFFFFFFFFFFFFFFFFF AND PUSH4 0x6352211E DUP4 PUSH1 0x40 MLOAD DUP3 PUSH4 0xFFFFFFFF AND PUSH1 0xE0 SHL DUP2 MSTORE PUSH1 0x4 ADD PUSH2 0xA28 SWAP2 SWAP1 PUSH2 0x2840 JUMP JUMPDEST PUSH1 0x20 PUSH1 0x40 MLOAD DUP1 DUP4 SUB DUP2 DUP7 DUP1 EXTCODESIZE ISZERO DUP1 ISZERO PUSH2 0xA40 JUMPI PUSH1 0x0 DUP1 REVERT JUMPDEST POP GAS STATICCALL ISZERO DUP1 ISZERO PUSH2 0xA54 JUMPI RETURNDATASIZE PUSH1 0x0 DUP1 RETURNDATACOPY RETURNDATASIZE PUSH1 0x0 REVERT JUMPDEST POP POP POP POP PUSH1 0x40 MLOAD RETURNDATASIZE PUSH1 0x1F NOT PUSH1 0x1F DUP3 ADD AND DUP3 ADD DUP1 PUSH1 0x40 MSTORE POP DUP2 ADD SWAP1 PUSH2 0xA78 SWAP2 SWAP1 PUSH2 0x239F JUMP JUMPDEST SWAP1 POP SWAP3 SWAP2 POP POP JUMP JUMPDEST PUSH1 0x2 PUSH1 0x0 SLOAD EQ ISZERO PUSH2 0xAC6 JUMPI PUSH1 0x40 MLOAD PUSH32 0x8C379A000000000000000000000000000000000000000000000000000000000 DUP2 MSTORE PUSH1 0x4 ADD PUSH2 0xABD SWAP1 PUSH2 0x2800 JUMP JUMPDEST PUSH1 0x40 MLOAD DUP1 SWAP2 SUB SWAP1 REVERT JUMPDEST PUSH1 0x2 PUSH1 0x0 DUP2 SWAP1 SSTORE POP PUSH2 0xAD6 PUSH2 0x229C JUMP JUMPDEST PUSH1 0x0 PUSH2 0xAE2 DUP5 DUP5 PUSH2 0x1F41 JUMP JUMPDEST DUP1 SWAP3 POP DUP2 SWAP4 POP POP POP PUSH32 0xFFFFFFFFFFFFFFFFFFFFFFFFFFFFFFFFFFFFFFFFFFFFFFFFFFFFFFFFFFFFFFFF DUP2 EQ ISZERO PUSH2 0xB4D JUMPI PUSH1 0x40 MLOAD PUSH32 0x8C379A000000000000000000000000000000000000000000000000000000000 DUP2 MSTORE PUSH1 0x4 ADD PUSH2 0xB44 SWAP1 PUSH2 0x27C0 JUMP JUMPDEST PUSH1 0x40 MLOAD DUP1 SWAP2 SUB SWAP1 REVERT JUMPDEST DUP2 PUSH1 0x40 ADD MLOAD CALLVALUE LT ISZERO PUSH2 0xB94 JUMPI PUSH1 0x40 MLOAD PUSH32 0x8C379A000000000000000000000000000000000000000000000000000000000 DUP2 MSTORE PUSH1 0x4 ADD PUSH2 0xB8B SWAP1 PUSH2 0x27A0 JUMP JUMPDEST PUSH1 0x40 MLOAD DUP1 SWAP2 SUB SWAP1 REVERT JUMPDEST PUSH1 0x0 CALLER SWAP1 POP DUP3 PUSH1 0x60 ADD MLOAD PUSH20 0xFFFFFFFFFFFFFFFFFFFFFFFFFFFFFFFFFFFFFFFF AND PUSH2 0x8FC CALLVALUE SWAP1 DUP2 ISZERO MUL SWAP1 PUSH1 0x40 MLOAD PUSH1 0x0 PUSH1 0x40 MLOAD DUP1 DUP4 SUB DUP2 DUP6 DUP9 DUP9 CALL SWAP4 POP POP POP POP ISZERO DUP1 ISZERO PUSH2 0xBE3 JUMPI RETURNDATASIZE PUSH1 0x0 DUP1 RETURNDATACOPY RETURNDATASIZE PUSH1 0x0 REVERT JUMPDEST POP DUP5 PUSH20 0xFFFFFFFFFFFFFFFFFFFFFFFFFFFFFFFFFFFFFFFF AND PUSH4 0x23B872DD ADDRESS DUP4 DUP8 PUSH1 0x40 MLOAD DUP5 PUSH4 0xFFFFFFFF AND PUSH1 0xE0 SHL DUP2 MSTORE PUSH1 0x4 ADD PUSH2 0xC21 SWAP4 SWAP3 SWAP2 SWAP1 PUSH2 0x26B9 JUMP JUMPDEST PUSH1 0x0 PUSH1 0x40 MLOAD DUP1 DUP4 SUB DUP2 PUSH1 0x0 DUP8 DUP1 EXTCODESIZE ISZERO DUP1 ISZERO PUSH2 0xC3B JUMPI PUSH1 0x0 DUP1 REVERT JUMPDEST POP GAS CALL ISZERO DUP1 ISZERO PUSH2 0xC4F JUMPI RETURNDATASIZE PUSH1 0x0 DUP1 RETURNDATACOPY RETURNDATASIZE PUSH1 0x0 REVERT JUMPDEST POP POP POP POP DUP1 PUSH1 0x5 DUP4 DUP2 SLOAD DUP2 LT PUSH2 0xC68 JUMPI PUSH2 0xC67 PUSH2 0x29E1 JUMP JUMPDEST JUMPDEST SWAP1 PUSH1 0x0 MSTORE PUSH1 0x20 PUSH1 0x0 KECCAK256 SWAP1 PUSH1 0x6 MUL ADD PUSH1 0x4 ADD PUSH1 0x0 PUSH2 0x100 EXP DUP2 SLOAD DUP2 PUSH20 0xFFFFFFFFFFFFFFFFFFFFFFFFFFFFFFFFFFFFFFFF MUL NOT AND SWAP1 DUP4 PUSH20 0xFFFFFFFFFFFFFFFFFFFFFFFFFFFFFFFFFFFFFFFF AND MUL OR SWAP1 SSTORE POP PUSH1 0x0 PUSH1 0x5 DUP4 DUP2 SLOAD DUP2 LT PUSH2 0xCCD JUMPI PUSH2 0xCCC PUSH2 0x29E1 JUMP JUMPDEST JUMPDEST SWAP1 PUSH1 0x0 MSTORE PUSH1 0x20 PUSH1 0x0 KECCAK256 SWAP1 PUSH1 0x6 MUL ADD PUSH1 0x5 ADD PUSH1 0x14 PUSH2 0x100 EXP DUP2 SLOAD DUP2 PUSH1 0xFF MUL NOT AND SWAP1 DUP4 ISZERO ISZERO MUL OR SWAP1 SSTORE POP PUSH2 0xCFF PUSH1 0x1 PUSH2 0x2286 JUMP JUMPDEST DUP1 PUSH20 0xFFFFFFFFFFFFFFFFFFFFFFFFFFFFFFFFFFFFFFFF AND DUP4 PUSH1 0x60 ADD MLOAD PUSH20 0xFFFFFFFFFFFFFFFFFFFFFFFFFFFFFFFFFFFFFFFF AND PUSH32 0x16F1DBD97E6BF646D429ED186CCE832F1F7FD9907814293B83181E9970AB7BD2 DUP8 DUP8 CALLVALUE PUSH1 0x40 MLOAD PUSH2 0xD64 SWAP4 SWAP3 SWAP2 SWAP1 PUSH2 0x2727 JUMP JUMPDEST PUSH1 0x40 MLOAD DUP1 SWAP2 SUB SWAP1 LOG3 POP POP POP PUSH1 0x1 PUSH1 0x0 DUP2 SWAP1 SSTORE POP POP POP JUMP JUMPDEST PUSH1 0x60 PUSH1 0x0 PUSH2 0xD89 PUSH1 0x2 PUSH2 0x2278 JUMP JUMPDEST SWAP1 POP PUSH1 0x0 DUP1 JUMPDEST DUP3 DUP2 LT ISZERO PUSH2 0xE32 JUMPI CALLER PUSH20 0xFFFFFFFFFFFFFFFFFFFFFFFFFFFFFFFFFFFFFFFF AND PUSH1 0x5 DUP3 DUP2 SLOAD DUP2 LT PUSH2 0xDC2 JUMPI PUSH2 0xDC1 PUSH2 0x29E1 JUMP JUMPDEST JUMPDEST SWAP1 PUSH1 0x0 MSTORE PUSH1 0x20 PUSH1 0x0 KECCAK256 SWAP1 PUSH1 0x6 MUL ADD PUSH1 0x5 ADD PUSH1 0x0 SWAP1 SLOAD SWAP1 PUSH2 0x100 EXP SWAP1 DIV PUSH20 0xFFFFFFFFFFFFFFFFFFFFFFFFFFFFFFFFFFFFFFFF AND PUSH20 0xFFFFFFFFFFFFFFFFFFFFFFFFFFFFFFFFFFFFFFFF AND EQ ISZERO PUSH2 0xE1F JUMPI DUP2 DUP1 PUSH2 0xE1B SWAP1 PUSH2 0x2969 JUMP JUMPDEST SWAP3 POP POP JUMPDEST DUP1 DUP1 PUSH2 0xE2A SWAP1 PUSH2 0x2969 JUMP JUMPDEST SWAP2 POP POP PUSH2 0xD8F JUMP JUMPDEST POP PUSH1 0x0 DUP2 PUSH8 0xFFFFFFFFFFFFFFFF DUP2 GT ISZERO PUSH2 0xE4F JUMPI PUSH2 0xE4E PUSH2 0x2A10 JUMP JUMPDEST JUMPDEST PUSH1 0x40 MLOAD SWAP1 DUP1 DUP3 MSTORE DUP1 PUSH1 0x20 MUL PUSH1 0x20 ADD DUP3 ADD PUSH1 0x40 MSTORE DUP1 ISZERO PUSH2 0xE88 JUMPI DUP2 PUSH1 0x20 ADD JUMPDEST PUSH2 0xE75 PUSH2 0x229C JUMP JUMPDEST DUP2 MSTORE PUSH1 0x20 ADD SWAP1 PUSH1 0x1 SWAP1 SUB SWAP1 DUP2 PUSH2 0xE6D JUMPI SWAP1 POP JUMPDEST POP SWAP1 POP PUSH1 0x0 DUP1 JUMPDEST DUP5 DUP2 LT ISZERO PUSH2 0x1104 JUMPI CALLER PUSH20 0xFFFFFFFFFFFFFFFFFFFFFFFFFFFFFFFFFFFFFFFF AND PUSH1 0x5 DUP3 DUP2 SLOAD DUP2 LT PUSH2 0xEC2 JUMPI PUSH2 0xEC1 PUSH2 0x29E1 JUMP JUMPDEST JUMPDEST SWAP1 PUSH1 0x0 MSTORE PUSH1 0x20 PUSH1 0x0 KECCAK256 SWAP1 PUSH1 0x6 MUL ADD PUSH1 0x5 ADD PUSH1 0x0 SWAP1 SLOAD SWAP1 PUSH2 0x100 EXP SWAP1 DIV PUSH20 0xFFFFFFFFFFFFFFFFFFFFFFFFFFFFFFFFFFFFFFFF AND PUSH20 0xFFFFFFFFFFFFFFFFFFFFFFFFFFFFFFFFFFFFFFFF AND EQ ISZERO PUSH2 0x10F1 JUMPI PUSH1 0x5 DUP2 DUP2 SLOAD DUP2 LT PUSH2 0xF24 JUMPI PUSH2 0xF23 PUSH2 0x29E1 JUMP JUMPDEST JUMPDEST SWAP1 PUSH1 0x0 MSTORE PUSH1 0x20 PUSH1 0x0 KECCAK256 SWAP1 PUSH1 0x6 MUL ADD PUSH1 0x40 MLOAD DUP1 PUSH1 0xE0 ADD PUSH1 0x40 MSTORE SWAP1 DUP2 PUSH1 0x0 DUP3 ADD PUSH1 0x0 SWAP1 SLOAD SWAP1 PUSH2 0x100 EXP SWAP1 DIV PUSH20 0xFFFFFFFFFFFFFFFFFFFFFFFFFFFFFFFFFFFFFFFF AND PUSH20 0xFFFFFFFFFFFFFFFFFFFFFFFFFFFFFFFFFFFFFFFF AND PUSH20 0xFFFFFFFFFFFFFFFFFFFFFFFFFFFFFFFFFFFFFFFF AND DUP2 MSTORE PUSH1 0x20 ADD PUSH1 0x1 DUP3 ADD SLOAD DUP2 MSTORE PUSH1 0x20 ADD PUSH1 0x2 DUP3 ADD SLOAD DUP2 MSTORE PUSH1 0x20 ADD PUSH1 0x3 DUP3 ADD PUSH1 0x0 SWAP1 SLOAD SWAP1 PUSH2 0x100 EXP SWAP1 DIV PUSH20 0xFFFFFFFFFFFFFFFFFFFFFFFFFFFFFFFFFFFFFFFF AND PUSH20 0xFFFFFFFFFFFFFFFFFFFFFFFFFFFFFFFFFFFFFFFF AND PUSH20 0xFFFFFFFFFFFFFFFFFFFFFFFFFFFFFFFFFFFFFFFF AND DUP2 MSTORE PUSH1 0x20 ADD PUSH1 0x4 DUP3 ADD PUSH1 0x0 SWAP1 SLOAD SWAP1 PUSH2 0x100 EXP SWAP1 DIV PUSH20 0xFFFFFFFFFFFFFFFFFFFFFFFFFFFFFFFFFFFFFFFF AND PUSH20 0xFFFFFFFFFFFFFFFFFFFFFFFFFFFFFFFFFFFFFFFF AND PUSH20 0xFFFFFFFFFFFFFFFFFFFFFFFFFFFFFFFFFFFFFFFF AND DUP2 MSTORE PUSH1 0x20 ADD PUSH1 0x5 DUP3 ADD PUSH1 0x0 SWAP1 SLOAD SWAP1 PUSH2 0x100 EXP SWAP1 DIV PUSH20 0xFFFFFFFFFFFFFFFFFFFFFFFFFFFFFFFFFFFFFFFF AND PUSH20 0xFFFFFFFFFFFFFFFFFFFFFFFFFFFFFFFFFFFFFFFF AND PUSH20 0xFFFFFFFFFFFFFFFFFFFFFFFFFFFFFFFFFFFFFFFF AND DUP2 MSTORE PUSH1 0x20 ADD PUSH1 0x5 DUP3 ADD PUSH1 0x14 SWAP1 SLOAD SWAP1 PUSH2 0x100 EXP SWAP1 DIV PUSH1 0xFF AND ISZERO ISZERO ISZERO ISZERO DUP2 MSTORE POP POP DUP4 DUP4 DUP2 MLOAD DUP2 LT PUSH2 0x10D7 JUMPI PUSH2 0x10D6 PUSH2 0x29E1 JUMP JUMPDEST JUMPDEST PUSH1 0x20 MUL PUSH1 0x20 ADD ADD DUP2 SWAP1 MSTORE POP DUP2 DUP1 PUSH2 0x10ED SWAP1 PUSH2 0x2969 JUMP JUMPDEST SWAP3 POP POP JUMPDEST DUP1 DUP1 PUSH2 0x10FC SWAP1 PUSH2 0x2969 JUMP JUMPDEST SWAP2 POP POP PUSH2 0xE8F JUMP JUMPDEST POP DUP2 SWAP5 POP POP POP POP POP SWAP1 JUMP JUMPDEST PUSH1 0x60 PUSH1 0x0 PUSH2 0x111D PUSH1 0x2 PUSH2 0x2278 JUMP JUMPDEST SWAP1 POP PUSH1 0x0 PUSH2 0x112B PUSH1 0x1 PUSH2 0x2278 JUMP JUMPDEST DUP3 PUSH2 0x1136 SWAP2 SWAP1 PUSH2 0x28A5 JUMP JUMPDEST SWAP1 POP PUSH1 0x0 DUP2 PUSH8 0xFFFFFFFFFFFFFFFF DUP2 GT ISZERO PUSH2 0x1154 JUMPI PUSH2 0x1153 PUSH2 0x2A10 JUMP JUMPDEST JUMPDEST PUSH1 0x40 MLOAD SWAP1 DUP1 DUP3 MSTORE DUP1 PUSH1 0x20 MUL PUSH1 0x20 ADD DUP3 ADD PUSH1 0x40 MSTORE DUP1 ISZERO PUSH2 0x118D JUMPI DUP2 PUSH1 0x20 ADD JUMPDEST PUSH2 0x117A PUSH2 0x229C JUMP JUMPDEST DUP2 MSTORE PUSH1 0x20 ADD SWAP1 PUSH1 0x1 SWAP1 SUB SWAP1 DUP2 PUSH2 0x1172 JUMPI SWAP1 POP JUMPDEST POP SWAP1 POP PUSH1 0x0 DUP1 JUMPDEST DUP5 DUP2 LT ISZERO PUSH2 0x13C8 JUMPI PUSH1 0x5 DUP2 DUP2 SLOAD DUP2 LT PUSH2 0x11B0 JUMPI PUSH2 0x11AF PUSH2 0x29E1 JUMP JUMPDEST JUMPDEST SWAP1 PUSH1 0x0 MSTORE PUSH1 0x20 PUSH1 0x0 KECCAK256 SWAP1 PUSH1 0x6 MUL ADD PUSH1 0x5 ADD PUSH1 0x14 SWAP1 SLOAD SWAP1 PUSH2 0x100 EXP SWAP1 DIV PUSH1 0xFF AND ISZERO PUSH2 0x13B5 JUMPI PUSH1 0x5 DUP2 DUP2 SLOAD DUP2 LT PUSH2 0x11E8 JUMPI PUSH2 0x11E7 PUSH2 0x29E1 JUMP JUMPDEST JUMPDEST SWAP1 PUSH1 0x0 MSTORE PUSH1 0x20 PUSH1 0x0 KECCAK256 SWAP1 PUSH1 0x6 MUL ADD PUSH1 0x40 MLOAD DUP1 PUSH1 0xE0 ADD PUSH1 0x40 MSTORE SWAP1 DUP2 PUSH1 0x0 DUP3 ADD PUSH1 0x0 SWAP1 SLOAD SWAP1 PUSH2 0x100 EXP SWAP1 DIV PUSH20 0xFFFFFFFFFFFFFFFFFFFFFFFFFFFFFFFFFFFFFFFF AND PUSH20 0xFFFFFFFFFFFFFFFFFFFFFFFFFFFFFFFFFFFFFFFF AND PUSH20 0xFFFFFFFFFFFFFFFFFFFFFFFFFFFFFFFFFFFFFFFF AND DUP2 MSTORE PUSH1 0x20 ADD PUSH1 0x1 DUP3 ADD SLOAD DUP2 MSTORE PUSH1 0x20 ADD PUSH1 0x2 DUP3 ADD SLOAD DUP2 MSTORE PUSH1 0x20 ADD PUSH1 0x3 DUP3 ADD PUSH1 0x0 SWAP1 SLOAD SWAP1 PUSH2 0x100 EXP SWAP1 DIV PUSH20 0xFFFFFFFFFFFFFFFFFFFFFFFFFFFFFFFFFFFFFFFF AND PUSH20 0xFFFFFFFFFFFFFFFFFFFFFFFFFFFFFFFFFFFFFFFF AND PUSH20 0xFFFFFFFFFFFFFFFFFFFFFFFFFFFFFFFFFFFFFFFF AND DUP2 MSTORE PUSH1 0x20 ADD PUSH1 0x4 DUP3 ADD PUSH1 0x0 SWAP1 SLOAD SWAP1 PUSH2 0x100 EXP SWAP1 DIV PUSH20 0xFFFFFFFFFFFFFFFFFFFFFFFFFFFFFFFFFFFFFFFF AND PUSH20 0xFFFFFFFFFFFFFFFFFFFFFFFFFFFFFFFFFFFFFFFF AND PUSH20 0xFFFFFFFFFFFFFFFFFFFFFFFFFFFFFFFFFFFFFFFF AND DUP2 MSTORE PUSH1 0x20 ADD PUSH1 0x5 DUP3 ADD PUSH1 0x0 SWAP1 SLOAD SWAP1 PUSH2 0x100 EXP SWAP1 DIV PUSH20 0xFFFFFFFFFFFFFFFFFFFFFFFFFFFFFFFFFFFFFFFF AND PUSH20 0xFFFFFFFFFFFFFFFFFFFFFFFFFFFFFFFFFFFFFFFF AND PUSH20 0xFFFFFFFFFFFFFFFFFFFFFFFFFFFFFFFFFFFFFFFF AND DUP2 MSTORE PUSH1 0x20 ADD PUSH1 0x5 DUP3 ADD PUSH1 0x14 SWAP1 SLOAD SWAP1 PUSH2 0x100 EXP SWAP1 DIV PUSH1 0xFF AND ISZERO ISZERO ISZERO ISZERO DUP2 MSTORE POP POP DUP4 DUP4 DUP2 MLOAD DUP2 LT PUSH2 0x139B JUMPI PUSH2 0x139A PUSH2 0x29E1 JUMP JUMPDEST JUMPDEST PUSH1 0x20 MUL PUSH1 0x20 ADD ADD DUP2 SWAP1 MSTORE POP DUP2 DUP1 PUSH2 0x13B1 SWAP1 PUSH2 0x2969 JUMP JUMPDEST SWAP3 POP POP JUMPDEST DUP1 DUP1 PUSH2 0x13C0 SWAP1 PUSH2 0x2969 JUMP JUMPDEST SWAP2 POP POP PUSH2 0x1194 JUMP JUMPDEST POP DUP2 SWAP5 POP POP POP POP POP SWAP1 JUMP JUMPDEST PUSH1 0x60 PUSH1 0x0 PUSH2 0x13E1 PUSH1 0x2 PUSH2 0x2278 JUMP JUMPDEST SWAP1 POP PUSH1 0x0 DUP1 JUMPDEST DUP3 DUP2 LT ISZERO PUSH2 0x148A JUMPI CALLER PUSH20 0xFFFFFFFFFFFFFFFFFFFFFFFFFFFFFFFFFFFFFFFF AND PUSH1 0x5 DUP3 DUP2 SLOAD DUP2 LT PUSH2 0x141A JUMPI PUSH2 0x1419 PUSH2 0x29E1 JUMP JUMPDEST JUMPDEST SWAP1 PUSH1 0x0 MSTORE PUSH1 0x20 PUSH1 0x0 KECCAK256 SWAP1 PUSH1 0x6 MUL ADD PUSH1 0x4 ADD PUSH1 0x0 SWAP1 SLOAD SWAP1 PUSH2 0x100 EXP SWAP1 DIV PUSH20 0xFFFFFFFFFFFFFFFFFFFFFFFFFFFFFFFFFFFFFFFF AND PUSH20 0xFFFFFFFFFFFFFFFFFFFFFFFFFFFFFFFFFFFFFFFF AND EQ ISZERO PUSH2 0x1477 JUMPI DUP2 DUP1 PUSH2 0x1473 SWAP1 PUSH2 0x2969 JUMP JUMPDEST SWAP3 POP POP JUMPDEST DUP1 DUP1 PUSH2 0x1482 SWAP1 PUSH2 0x2969 JUMP JUMPDEST SWAP2 POP POP PUSH2 0x13E7 JUMP JUMPDEST POP PUSH1 0x0 DUP2 PUSH8 0xFFFFFFFFFFFFFFFF DUP2 GT ISZERO PUSH2 0x14A7 JUMPI PUSH2 0x14A6 PUSH2 0x2A10 JUMP JUMPDEST JUMPDEST PUSH1 0x40 MLOAD SWAP1 DUP1 DUP3 MSTORE DUP1 PUSH1 0x20 MUL PUSH1 0x20 ADD DUP3 ADD PUSH1 0x40 MSTORE DUP1 ISZERO PUSH2 0x14E0 JUMPI DUP2 PUSH1 0x20 ADD JUMPDEST PUSH2 0x14CD PUSH2 0x229C JUMP JUMPDEST DUP2 MSTORE PUSH1 0x20 ADD SWAP1 PUSH1 0x1 SWAP1 SUB SWAP1 DUP2 PUSH2 0x14C5 JUMPI SWAP1 POP JUMPDEST POP SWAP1 POP PUSH1 0x0 DUP1 JUMPDEST DUP5 DUP2 LT ISZERO PUSH2 0x175C JUMPI CALLER PUSH20 0xFFFFFFFFFFFFFFFFFFFFFFFFFFFFFFFFFFFFFFFF AND PUSH1 0x5 DUP3 DUP2 SLOAD DUP2 LT PUSH2 0x151A JUMPI PUSH2 0x1519 PUSH2 0x29E1 JUMP JUMPDEST JUMPDEST SWAP1 PUSH1 0x0 MSTORE PUSH1 0x20 PUSH1 0x0 KECCAK256 SWAP1 PUSH1 0x6 MUL ADD PUSH1 0x4 ADD PUSH1 0x0 SWAP1 SLOAD SWAP1 PUSH2 0x100 EXP SWAP1 DIV PUSH20 0xFFFFFFFFFFFFFFFFFFFFFFFFFFFFFFFFFFFFFFFF AND PUSH20 0xFFFFFFFFFFFFFFFFFFFFFFFFFFFFFFFFFFFFFFFF AND EQ ISZERO PUSH2 0x1749 JUMPI PUSH1 0x5 DUP2 DUP2 SLOAD DUP2 LT PUSH2 0x157C JUMPI PUSH2 0x157B PUSH2 0x29E1 JUMP JUMPDEST JUMPDEST SWAP1 PUSH1 0x0 MSTORE PUSH1 0x20 PUSH1 0x0 KECCAK256 SWAP1 PUSH1 0x6 MUL ADD PUSH1 0x40 MLOAD DUP1 PUSH1 0xE0 ADD PUSH1 0x40 MSTORE SWAP1 DUP2 PUSH1 0x0 DUP3 ADD PUSH1 0x0 SWAP1 SLOAD SWAP1 PUSH2 0x100 EXP SWAP1 DIV PUSH20 0xFFFFFFFFFFFFFFFFFFFFFFFFFFFFFFFFFFFFFFFF AND PUSH20 0xFFFFFFFFFFFFFFFFFFFFFFFFFFFFFFFFFFFFFFFF AND PUSH20 0xFFFFFFFFFFFFFFFFFFFFFFFFFFFFFFFFFFFFFFFF AND DUP2 MSTORE PUSH1 0x20 ADD PUSH1 0x1 DUP3 ADD SLOAD DUP2 MSTORE PUSH1 0x20 ADD PUSH1 0x2 DUP3 ADD SLOAD DUP2 MSTORE PUSH1 0x20 ADD PUSH1 0x3 DUP3 ADD PUSH1 0x0 SWAP1 SLOAD SWAP1 PUSH2 0x100 EXP SWAP1 DIV PUSH20 0xFFFFFFFFFFFFFFFFFFFFFFFFFFFFFFFFFFFFFFFF AND PUSH20 0xFFFFFFFFFFFFFFFFFFFFFFFFFFFFFFFFFFFFFFFF AND PUSH20 0xFFFFFFFFFFFFFFFFFFFFFFFFFFFFFFFFFFFFFFFF AND DUP2 MSTORE PUSH1 0x20 ADD PUSH1 0x4 DUP3 ADD PUSH1 0x0 SWAP1 SLOAD SWAP1 PUSH2 0x100 EXP SWAP1 DIV PUSH20 0xFFFFFFFFFFFFFFFFFFFFFFFFFFFFFFFFFFFFFFFF AND PUSH20 0xFFFFFFFFFFFFFFFFFFFFFFFFFFFFFFFFFFFFFFFF AND PUSH20 0xFFFFFFFFFFFFFFFFFFFFFFFFFFFFFFFFFFFFFFFF AND DUP2 MSTORE PUSH1 0x20 ADD PUSH1 0x5 DUP3 ADD PUSH1 0x0 SWAP1 SLOAD SWAP1 PUSH2 0x100 EXP SWAP1 DIV PUSH20 0xFFFFFFFFFFFFFFFFFFFFFFFFFFFFFFFFFFFFFFFF AND PUSH20 0xFFFFFFFFFFFFFFFFFFFFFFFFFFFFFFFFFFFFFFFF AND PUSH20 0xFFFFFFFFFFFFFFFFFFFFFFFFFFFFFFFFFFFFFFFF AND DUP2 MSTORE PUSH1 0x20 ADD PUSH1 0x5 DUP3 ADD PUSH1 0x14 SWAP1 SLOAD SWAP1 PUSH2 0x100 EXP SWAP1 DIV PUSH1 0xFF AND ISZERO ISZERO ISZERO ISZERO DUP2 MSTORE POP POP DUP4 DUP4 DUP2 MLOAD DUP2 LT PUSH2 0x172F JUMPI PUSH2 0x172E PUSH2 0x29E1 JUMP JUMPDEST JUMPDEST PUSH1 0x20 MUL PUSH1 0x20 ADD ADD DUP2 SWAP1 MSTORE POP DUP2 DUP1 PUSH2 0x1745 SWAP1 PUSH2 0x2969 JUMP JUMPDEST SWAP3 POP POP JUMPDEST DUP1 DUP1 PUSH2 0x1754 SWAP1 PUSH2 0x2969 JUMP JUMPDEST SWAP2 POP POP PUSH2 0x14E7 JUMP JUMPDEST POP DUP2 SWAP5 POP POP POP POP POP SWAP1 JUMP JUMPDEST PUSH1 0x2 PUSH1 0x0 SLOAD EQ ISZERO PUSH2 0x17AD JUMPI PUSH1 0x40 MLOAD PUSH32 0x8C379A000000000000000000000000000000000000000000000000000000000 DUP2 MSTORE PUSH1 0x4 ADD PUSH2 0x17A4 SWAP1 PUSH2 0x2800 JUMP JUMPDEST PUSH1 0x40 MLOAD DUP1 SWAP2 SUB SWAP1 REVERT JUMPDEST PUSH1 0x2 PUSH1 0x0 DUP2 SWAP1 SSTORE POP DUP1 PUSH1 0x0 DUP2 GT PUSH2 0x17F9 JUMPI PUSH1 0x40 MLOAD PUSH32 0x8C379A000000000000000000000000000000000000000000000000000000000 DUP2 MSTORE PUSH1 0x4 ADD PUSH2 0x17F0 SWAP1 PUSH2 0x2820 JUMP JUMPDEST PUSH1 0x40 MLOAD DUP1 SWAP2 SUB SWAP1 REVERT JUMPDEST PUSH1 0x3 SLOAD CALLVALUE EQ PUSH2 0x183D JUMPI PUSH1 0x40 MLOAD PUSH32 0x8C379A000000000000000000000000000000000000000000000000000000000 DUP2 MSTORE PUSH1 0x4 ADD PUSH2 0x1834 SWAP1 PUSH2 0x27E0 JUMP JUMPDEST PUSH1 0x40 MLOAD DUP1 SWAP2 SUB SWAP1 REVERT JUMPDEST DUP4 PUSH20 0xFFFFFFFFFFFFFFFFFFFFFFFFFFFFFFFFFFFFFFFF AND PUSH4 0x23B872DD CALLER ADDRESS DUP7 PUSH1 0x40 MLOAD DUP5 PUSH4 0xFFFFFFFF AND PUSH1 0xE0 SHL DUP2 MSTORE PUSH1 0x4 ADD PUSH2 0x187A SWAP4 SWAP3 SWAP2 SWAP1 PUSH2 0x26F0 JUMP JUMPDEST PUSH1 0x0 PUSH1 0x40 MLOAD DUP1 DUP4 SUB DUP2 PUSH1 0x0 DUP8 DUP1 EXTCODESIZE ISZERO DUP1 ISZERO PUSH2 0x1894 JUMPI PUSH1 0x0 DUP1 REVERT JUMPDEST POP GAS CALL ISZERO DUP1 ISZERO PUSH2 0x18A8 JUMPI RETURNDATASIZE PUSH1 0x0 DUP1 RETURNDATACOPY RETURNDATASIZE PUSH1 0x0 REVERT JUMPDEST POP POP POP POP PUSH1 0x5 PUSH1 0x40 MLOAD DUP1 PUSH1 0xE0 ADD PUSH1 0x40 MSTORE DUP1 DUP7 PUSH20 0xFFFFFFFFFFFFFFFFFFFFFFFFFFFFFFFFFFFFFFFF AND DUP2 MSTORE PUSH1 0x20 ADD DUP6 DUP2 MSTORE PUSH1 0x20 ADD DUP5 DUP2 MSTORE PUSH1 0x20 ADD CALLER PUSH20 0xFFFFFFFFFFFFFFFFFFFFFFFFFFFFFFFFFFFFFFFF AND DUP2 MSTORE PUSH1 0x20 ADD ADDRESS PUSH20 0xFFFFFFFFFFFFFFFFFFFFFFFFFFFFFFFFFFFFFFFF AND DUP2 MSTORE PUSH1 0x20 ADD CALLER PUSH20 0xFFFFFFFFFFFFFFFFFFFFFFFFFFFFFFFFFFFFFFFF AND DUP2 MSTORE PUSH1 0x20 ADD PUSH1 0x1 ISZERO ISZERO DUP2 MSTORE POP SWAP1 DUP1 PUSH1 0x1 DUP2 SLOAD ADD DUP1 DUP3 SSTORE DUP1 SWAP2 POP POP PUSH1 0x1 SWAP1 SUB SWAP1 PUSH1 0x0 MSTORE PUSH1 0x20 PUSH1 0x0 KECCAK256 SWAP1 PUSH1 0x6 MUL ADD PUSH1 0x0 SWAP1 SWAP2 SWAP1 SWAP2 SWAP1 SWAP2 POP PUSH1 0x0 DUP3 ADD MLOAD DUP2 PUSH1 0x0 ADD PUSH1 0x0 PUSH2 0x100 EXP DUP2 SLOAD DUP2 PUSH20 0xFFFFFFFFFFFFFFFFFFFFFFFFFFFFFFFFFFFFFFFF MUL NOT AND SWAP1 DUP4 PUSH20 0xFFFFFFFFFFFFFFFFFFFFFFFFFFFFFFFFFFFFFFFF AND MUL OR SWAP1 SSTORE POP PUSH1 0x20 DUP3 ADD MLOAD DUP2 PUSH1 0x1 ADD SSTORE PUSH1 0x40 DUP3 ADD MLOAD DUP2 PUSH1 0x2 ADD SSTORE PUSH1 0x60 DUP3 ADD MLOAD DUP2 PUSH1 0x3 ADD PUSH1 0x0 PUSH2 0x100 EXP DUP2 SLOAD DUP2 PUSH20 0xFFFFFFFFFFFFFFFFFFFFFFFFFFFFFFFFFFFFFFFF MUL NOT AND SWAP1 DUP4 PUSH20 0xFFFFFFFFFFFFFFFFFFFFFFFFFFFFFFFFFFFFFFFF AND MUL OR SWAP1 SSTORE POP PUSH1 0x80 DUP3 ADD MLOAD DUP2 PUSH1 0x4 ADD PUSH1 0x0 PUSH2 0x100 EXP DUP2 SLOAD DUP2 PUSH20 0xFFFFFFFFFFFFFFFFFFFFFFFFFFFFFFFFFFFFFFFF MUL NOT AND SWAP1 DUP4 PUSH20 0xFFFFFFFFFFFFFFFFFFFFFFFFFFFFFFFFFFFFFFFF AND MUL OR SWAP1 SSTORE POP PUSH1 0xA0 DUP3 ADD MLOAD DUP2 PUSH1 0x5 ADD PUSH1 0x0 PUSH2 0x100 EXP DUP2 SLOAD DUP2 PUSH20 0xFFFFFFFFFFFFFFFFFFFFFFFFFFFFFFFFFFFFFFFF MUL NOT AND SWAP1 DUP4 PUSH20 0xFFFFFFFFFFFFFFFFFFFFFFFFFFFFFFFFFFFFFFFF AND MUL OR SWAP1 SSTORE POP PUSH1 0xC0 DUP3 ADD MLOAD DUP2 PUSH1 0x5 ADD PUSH1 0x14 PUSH2 0x100 EXP DUP2 SLOAD DUP2 PUSH1 0xFF MUL NOT AND SWAP1 DUP4 ISZERO ISZERO MUL OR SWAP1 SSTORE POP POP POP PUSH2 0x1AC1 PUSH1 0x2 PUSH2 0x2286 JUMP JUMPDEST PUSH1 0x4 PUSH1 0x0 SWAP1 SLOAD SWAP1 PUSH2 0x100 EXP SWAP1 DIV PUSH20 0xFFFFFFFFFFFFFFFFFFFFFFFFFFFFFFFFFFFFFFFF AND PUSH20 0xFFFFFFFFFFFFFFFFFFFFFFFFFFFFFFFFFFFFFFFF AND PUSH2 0x8FC CALLVALUE SWAP1 DUP2 ISZERO MUL SWAP1 PUSH1 0x40 MLOAD PUSH1 0x0 PUSH1 0x40 MLOAD DUP1 DUP4 SUB DUP2 DUP6 DUP9 DUP9 CALL SWAP4 POP POP POP POP ISZERO DUP1 ISZERO PUSH2 0x1B29 JUMPI RETURNDATASIZE PUSH1 0x0 DUP1 RETURNDATACOPY RETURNDATASIZE PUSH1 0x0 REVERT JUMPDEST POP ADDRESS PUSH20 0xFFFFFFFFFFFFFFFFFFFFFFFFFFFFFFFFFFFFFFFF AND CALLER PUSH20 0xFFFFFFFFFFFFFFFFFFFFFFFFFFFFFFFFFFFFFFFF AND PUSH32 0xA0C6C0D02D86FDACECBAA5FDF5894BAB204E31A778250474108540733A9B8D19 DUP7 DUP7 DUP7 PUSH1 0x40 MLOAD PUSH2 0x1B8B SWAP4 SWAP3 SWAP2 SWAP1 PUSH2 0x2727 JUMP JUMPDEST PUSH1 0x40 MLOAD DUP1 SWAP2 SUB SWAP1 LOG3 POP PUSH1 0x1 PUSH1 0x0 DUP2 SWAP1 SSTORE POP POP POP POP JUMP JUMPDEST PUSH1 0x0 PUSH1 0x3 SLOAD SWAP1 POP SWAP1 JUMP JUMPDEST PUSH1 0x60 PUSH1 0x0 PUSH2 0x1BB9 PUSH1 0x2 PUSH2 0x2278 JUMP JUMPDEST SWAP1 POP PUSH1 0x0 DUP1 JUMPDEST DUP3 DUP2 LT ISZERO PUSH2 0x1C62 JUMPI DUP5 PUSH20 0xFFFFFFFFFFFFFFFFFFFFFFFFFFFFFFFFFFFFFFFF AND PUSH1 0x5 DUP3 DUP2 SLOAD DUP2 LT PUSH2 0x1BF2 JUMPI PUSH2 0x1BF1 PUSH2 0x29E1 JUMP JUMPDEST JUMPDEST SWAP1 PUSH1 0x0 MSTORE PUSH1 0x20 PUSH1 0x0 KECCAK256 SWAP1 PUSH1 0x6 MUL ADD PUSH1 0x0 ADD PUSH1 0x0 SWAP1 SLOAD SWAP1 PUSH2 0x100 EXP SWAP1 DIV PUSH20 0xFFFFFFFFFFFFFFFFFFFFFFFFFFFFFFFFFFFFFFFF AND PUSH20 0xFFFFFFFFFFFFFFFFFFFFFFFFFFFFFFFFFFFFFFFF AND EQ ISZERO PUSH2 0x1C4F JUMPI DUP2 DUP1 PUSH2 0x1C4B SWAP1 PUSH2 0x2969 JUMP JUMPDEST SWAP3 POP POP JUMPDEST DUP1 DUP1 PUSH2 0x1C5A SWAP1 PUSH2 0x2969 JUMP JUMPDEST SWAP2 POP POP PUSH2 0x1BBF JUMP JUMPDEST POP PUSH1 0x0 DUP2 PUSH8 0xFFFFFFFFFFFFFFFF DUP2 GT ISZERO PUSH2 0x1C7F JUMPI PUSH2 0x1C7E PUSH2 0x2A10 JUMP JUMPDEST JUMPDEST PUSH1 0x40 MLOAD SWAP1 DUP1 DUP3 MSTORE DUP1 PUSH1 0x20 MUL PUSH1 0x20 ADD DUP3 ADD PUSH1 0x40 MSTORE DUP1 ISZERO PUSH2 0x1CB8 JUMPI DUP2 PUSH1 0x20 ADD JUMPDEST PUSH2 0x1CA5 PUSH2 0x229C JUMP JUMPDEST DUP2 MSTORE PUSH1 0x20 ADD SWAP1 PUSH1 0x1 SWAP1 SUB SWAP1 DUP2 PUSH2 0x1C9D JUMPI SWAP1 POP JUMPDEST POP SWAP1 POP PUSH1 0x0 DUP1 JUMPDEST DUP5 DUP2 LT ISZERO PUSH2 0x1F34 JUMPI DUP7 PUSH20 0xFFFFFFFFFFFFFFFFFFFFFFFFFFFFFFFFFFFFFFFF AND PUSH1 0x5 DUP3 DUP2 SLOAD DUP2 LT PUSH2 0x1CF2 JUMPI PUSH2 0x1CF1 PUSH2 0x29E1 JUMP JUMPDEST JUMPDEST SWAP1 PUSH1 0x0 MSTORE PUSH1 0x20 PUSH1 0x0 KECCAK256 SWAP1 PUSH1 0x6 MUL ADD PUSH1 0x0 ADD PUSH1 0x0 SWAP1 SLOAD SWAP1 PUSH2 0x100 EXP SWAP1 DIV PUSH20 0xFFFFFFFFFFFFFFFFFFFFFFFFFFFFFFFFFFFFFFFF AND PUSH20 0xFFFFFFFFFFFFFFFFFFFFFFFFFFFFFFFFFFFFFFFF AND EQ ISZERO PUSH2 0x1F21 JUMPI PUSH1 0x5 DUP2 DUP2 SLOAD DUP2 LT PUSH2 0x1D54 JUMPI PUSH2 0x1D53 PUSH2 0x29E1 JUMP JUMPDEST JUMPDEST SWAP1 PUSH1 0x0 MSTORE PUSH1 0x20 PUSH1 0x0 KECCAK256 SWAP1 PUSH1 0x6 MUL ADD PUSH1 0x40 MLOAD DUP1 PUSH1 0xE0 ADD PUSH1 0x40 MSTORE SWAP1 DUP2 PUSH1 0x0 DUP3 ADD PUSH1 0x0 SWAP1 SLOAD SWAP1 PUSH2 0x100 EXP SWAP1 DIV PUSH20 0xFFFFFFFFFFFFFFFFFFFFFFFFFFFFFFFFFFFFFFFF AND PUSH20 0xFFFFFFFFFFFFFFFFFFFFFFFFFFFFFFFFFFFFFFFF AND PUSH20 0xFFFFFFFFFFFFFFFFFFFFFFFFFFFFFFFFFFFFFFFF AND DUP2 MSTORE PUSH1 0x20 ADD PUSH1 0x1 DUP3 ADD SLOAD DUP2 MSTORE PUSH1 0x20 ADD PUSH1 0x2 DUP3 ADD SLOAD DUP2 MSTORE PUSH1 0x20 ADD PUSH1 0x3 DUP3 ADD PUSH1 0x0 SWAP1 SLOAD SWAP1 PUSH2 0x100 EXP SWAP1 DIV PUSH20 0xFFFFFFFFFFFFFFFFFFFFFFFFFFFFFFFFFFFFFFFF AND PUSH20 0xFFFFFFFFFFFFFFFFFFFFFFFFFFFFFFFFFFFFFFFF AND PUSH20 0xFFFFFFFFFFFFFFFFFFFFFFFFFFFFFFFFFFFFFFFF AND DUP2 MSTORE PUSH1 0x20 ADD PUSH1 0x4 DUP3 ADD PUSH1 0x0 SWAP1 SLOAD SWAP1 PUSH2 0x100 EXP SWAP1 DIV PUSH20 0xFFFFFFFFFFFFFFFFFFFFFFFFFFFFFFFFFFFFFFFF AND PUSH20 0xFFFFFFFFFFFFFFFFFFFFFFFFFFFFFFFFFFFFFFFF AND PUSH20 0xFFFFFFFFFFFFFFFFFFFFFFFFFFFFFFFFFFFFFFFF AND DUP2 MSTORE PUSH1 0x20 ADD PUSH1 0x5 DUP3 ADD PUSH1 0x0 SWAP1 SLOAD SWAP1 PUSH2 0x100 EXP SWAP1 DIV PUSH20 0xFFFFFFFFFFFFFFFFFFFFFFFFFFFFFFFFFFFFFFFF AND PUSH20 0xFFFFFFFFFFFFFFFFFFFFFFFFFFFFFFFFFFFFFFFF AND PUSH20 0xFFFFFFFFFFFFFFFFFFFFFFFFFFFFFFFFFFFFFFFF AND DUP2 MSTORE PUSH1 0x20 ADD PUSH1 0x5 DUP3 ADD PUSH1 0x14 SWAP1 SLOAD SWAP1 PUSH2 0x100 EXP SWAP1 DIV PUSH1 0xFF AND ISZERO ISZERO ISZERO ISZERO DUP2 MSTORE POP POP DUP4 DUP4 DUP2 MLOAD DUP2 LT PUSH2 0x1F07 JUMPI PUSH2 0x1F06 PUSH2 0x29E1 JUMP JUMPDEST JUMPDEST PUSH1 0x20 MUL PUSH1 0x20 ADD ADD DUP2 SWAP1 MSTORE POP DUP2 DUP1 PUSH2 0x1F1D SWAP1 PUSH2 0x2969 JUMP JUMPDEST SWAP3 POP POP JUMPDEST DUP1 DUP1 PUSH2 0x1F2C SWAP1 PUSH2 0x2969 JUMP JUMPDEST SWAP2 POP POP PUSH2 0x1CBF JUMP JUMPDEST POP DUP2 SWAP5 POP POP POP POP POP SWAP2 SWAP1 POP JUMP JUMPDEST PUSH2 0x1F49 PUSH2 0x229C JUMP JUMPDEST PUSH1 0x0 PUSH2 0x1F53 PUSH2 0x229C JUMP JUMPDEST PUSH1 0x0 PUSH32 0xFFFFFFFFFFFFFFFFFFFFFFFFFFFFFFFFFFFFFFFFFFFFFFFFFFFFFFFFFFFFFFFF SWAP1 POP PUSH1 0x0 PUSH2 0x1F84 PUSH1 0x2 PUSH2 0x2278 JUMP JUMPDEST SWAP1 POP PUSH1 0x0 JUMPDEST DUP2 DUP2 LT ISZERO PUSH2 0x220B JUMPI DUP8 PUSH20 0xFFFFFFFFFFFFFFFFFFFFFFFFFFFFFFFFFFFFFFFF AND PUSH1 0x5 DUP3 DUP2 SLOAD DUP2 LT PUSH2 0x1FBC JUMPI PUSH2 0x1FBB PUSH2 0x29E1 JUMP JUMPDEST JUMPDEST SWAP1 PUSH1 0x0 MSTORE PUSH1 0x20 PUSH1 0x0 KECCAK256 SWAP1 PUSH1 0x6 MUL ADD PUSH1 0x0 ADD PUSH1 0x0 SWAP1 SLOAD SWAP1 PUSH2 0x100 EXP SWAP1 DIV PUSH20 0xFFFFFFFFFFFFFFFFFFFFFFFFFFFFFFFFFFFFFFFF AND PUSH20 0xFFFFFFFFFFFFFFFFFFFFFFFFFFFFFFFFFFFFFFFF AND EQ DUP1 ISZERO PUSH2 0x2035 JUMPI POP DUP7 PUSH1 0x5 DUP3 DUP2 SLOAD DUP2 LT PUSH2 0x2021 JUMPI PUSH2 0x2020 PUSH2 0x29E1 JUMP JUMPDEST JUMPDEST SWAP1 PUSH1 0x0 MSTORE PUSH1 0x20 PUSH1 0x0 KECCAK256 SWAP1 PUSH1 0x6 MUL ADD PUSH1 0x1 ADD SLOAD EQ JUMPDEST ISZERO PUSH2 0x21F8 JUMPI PUSH1 0x5 DUP2 DUP2 SLOAD DUP2 LT PUSH2 0x204E JUMPI PUSH2 0x204D PUSH2 0x29E1 JUMP JUMPDEST JUMPDEST SWAP1 PUSH1 0x0 MSTORE PUSH1 0x20 PUSH1 0x0 KECCAK256 SWAP1 PUSH1 0x6 MUL ADD PUSH1 0x40 MLOAD DUP1 PUSH1 0xE0 ADD PUSH1 0x40 MSTORE SWAP1 DUP2 PUSH1 0x0 DUP3 ADD PUSH1 0x0 SWAP1 SLOAD SWAP1 PUSH2 0x100 EXP SWAP1 DIV PUSH20 0xFFFFFFFFFFFFFFFFFFFFFFFFFFFFFFFFFFFFFFFF AND PUSH20 0xFFFFFFFFFFFFFFFFFFFFFFFFFFFFFFFFFFFFFFFF AND PUSH20 0xFFFFFFFFFFFFFFFFFFFFFFFFFFFFFFFFFFFFFFFF AND DUP2 MSTORE PUSH1 0x20 ADD PUSH1 0x1 DUP3 ADD SLOAD DUP2 MSTORE PUSH1 0x20 ADD PUSH1 0x2 DUP3 ADD SLOAD DUP2 MSTORE PUSH1 0x20 ADD PUSH1 0x3 DUP3 ADD PUSH1 0x0 SWAP1 SLOAD SWAP1 PUSH2 0x100 EXP SWAP1 DIV PUSH20 0xFFFFFFFFFFFFFFFFFFFFFFFFFFFFFFFFFFFFFFFF AND PUSH20 0xFFFFFFFFFFFFFFFFFFFFFFFFFFFFFFFFFFFFFFFF AND PUSH20 0xFFFFFFFFFFFFFFFFFFFFFFFFFFFFFFFFFFFFFFFF AND DUP2 MSTORE PUSH1 0x20 ADD PUSH1 0x4 DUP3 ADD PUSH1 0x0 SWAP1 SLOAD SWAP1 PUSH2 0x100 EXP SWAP1 DIV PUSH20 0xFFFFFFFFFFFFFFFFFFFFFFFFFFFFFFFFFFFFFFFF AND PUSH20 0xFFFFFFFFFFFFFFFFFFFFFFFFFFFFFFFFFFFFFFFF AND PUSH20 0xFFFFFFFFFFFFFFFFFFFFFFFFFFFFFFFFFFFFFFFF AND DUP2 MSTORE PUSH1 0x20 ADD PUSH1 0x5 DUP3 ADD PUSH1 0x0 SWAP1 SLOAD SWAP1 PUSH2 0x100 EXP SWAP1 DIV PUSH20 0xFFFFFFFFFFFFFFFFFFFFFFFFFFFFFFFFFFFFFFFF AND PUSH20 0xFFFFFFFFFFFFFFFFFFFFFFFFFFFFFFFFFFFFFFFF AND PUSH20 0xFFFFFFFFFFFFFFFFFFFFFFFFFFFFFFFFFFFFFFFF AND DUP2 MSTORE PUSH1 0x20 ADD PUSH1 0x5 DUP3 ADD PUSH1 0x14 SWAP1 SLOAD SWAP1 PUSH2 0x100 EXP SWAP1 DIV PUSH1 0xFF AND ISZERO ISZERO ISZERO ISZERO DUP2 MSTORE POP POP SWAP4 POP DUP1 SWAP3 POP PUSH2 0x220B JUMP JUMPDEST DUP1 DUP1 PUSH2 0x2203 SWAP1 PUSH2 0x2969 JUMP JUMPDEST SWAP2 POP POP PUSH2 0x1F89 JUMP JUMPDEST POP DUP3 DUP3 SWAP5 POP SWAP5 POP POP POP POP SWAP3 POP SWAP3 SWAP1 POP JUMP JUMPDEST PUSH1 0x0 DUP2 PUSH1 0x0 ADD SLOAD SWAP1 POP PUSH1 0x0 DUP2 GT PUSH2 0x2268 JUMPI PUSH1 0x40 MLOAD PUSH32 0x8C379A000000000000000000000000000000000000000000000000000000000 DUP2 MSTORE PUSH1 0x4 ADD PUSH2 0x225F SWAP1 PUSH2 0x2780 JUMP JUMPDEST PUSH1 0x40 MLOAD DUP1 SWAP2 SUB SWAP1 REVERT JUMPDEST PUSH1 0x1 DUP2 SUB DUP3 PUSH1 0x0 ADD DUP2 SWAP1 SSTORE POP POP POP JUMP JUMPDEST PUSH1 0x0 DUP2 PUSH1 0x0 ADD SLOAD SWAP1 POP SWAP2 SWAP1 POP JUMP JUMPDEST PUSH1 0x1 DUP2 PUSH1 0x0 ADD PUSH1 0x0 DUP3 DUP3 SLOAD ADD SWAP3 POP POP DUP2 SWAP1 SSTORE POP POP JUMP JUMPDEST PUSH1 0x40 MLOAD DUP1 PUSH1 0xE0 ADD PUSH1 0x40 MSTORE DUP1 PUSH1 0x0 PUSH20 0xFFFFFFFFFFFFFFFFFFFFFFFFFFFFFFFFFFFFFFFF AND DUP2 MSTORE PUSH1 0x20 ADD PUSH1 0x0 DUP2 MSTORE PUSH1 0x20 ADD PUSH1 0x0 DUP2 MSTORE PUSH1 0x20 ADD PUSH1 0x0 PUSH20 0xFFFFFFFFFFFFFFFFFFFFFFFFFFFFFFFFFFFFFFFF AND DUP2 MSTORE PUSH1 0x20 ADD PUSH1 0x0 PUSH20 0xFFFFFFFFFFFFFFFFFFFFFFFFFFFFFFFFFFFFFFFF AND DUP2 MSTORE PUSH1 0x20 ADD PUSH1 0x0 PUSH20 0xFFFFFFFFFFFFFFFFFFFFFFFFFFFFFFFFFFFFFFFF AND DUP2 MSTORE PUSH1 0x20 ADD PUSH1 0x0 ISZERO ISZERO DUP2 MSTORE POP SWAP1 JUMP JUMPDEST PUSH1 0x0 DUP2 CALLDATALOAD SWAP1 POP PUSH2 0x2342 DUP2 PUSH2 0x2B60 JUMP JUMPDEST SWAP3 SWAP2 POP POP JUMP JUMPDEST PUSH1 0x0 DUP2 MLOAD SWAP1 POP PUSH2 0x2357 DUP2 PUSH2 0x2B60 JUMP JUMPDEST SWAP3 SWAP2 POP POP JUMP JUMPDEST PUSH1 0x0 DUP2 CALLDATALOAD SWAP1 POP PUSH2 0x236C DUP2 PUSH2 0x2B77 JUMP JUMPDEST SWAP3 SWAP2 POP POP JUMP JUMPDEST PUSH1 0x0 PUSH1 0x20 DUP3 DUP5 SUB SLT ISZERO PUSH2 0x2388 JUMPI PUSH2 0x2387 PUSH2 0x2A3F JUMP JUMPDEST JUMPDEST PUSH1 0x0 PUSH2 0x2396 DUP5 DUP3 DUP6 ADD PUSH2 0x2333 JUMP JUMPDEST SWAP2 POP POP SWAP3 SWAP2 POP POP JUMP JUMPDEST PUSH1 0x0 PUSH1 0x20 DUP3 DUP5 SUB SLT ISZERO PUSH2 0x23B5 JUMPI PUSH2 0x23B4 PUSH2 0x2A3F JUMP JUMPDEST JUMPDEST PUSH1 0x0 PUSH2 0x23C3 DUP5 DUP3 DUP6 ADD PUSH2 0x2348 JUMP JUMPDEST SWAP2 POP POP SWAP3 SWAP2 POP POP JUMP JUMPDEST PUSH1 0x0 DUP1 PUSH1 0x40 DUP4 DUP6 SUB SLT ISZERO PUSH2 0x23E3 JUMPI PUSH2 0x23E2 PUSH2 0x2A3F JUMP JUMPDEST JUMPDEST PUSH1 0x0 PUSH2 0x23F1 DUP6 DUP3 DUP7 ADD PUSH2 0x2333 JUMP JUMPDEST SWAP3 POP POP PUSH1 0x20 PUSH2 0x2402 DUP6 DUP3 DUP7 ADD PUSH2 0x235D JUMP JUMPDEST SWAP2 POP POP SWAP3 POP SWAP3 SWAP1 POP JUMP JUMPDEST PUSH1 0x0 DUP1 PUSH1 0x0 PUSH1 0x60 DUP5 DUP7 SUB SLT ISZERO PUSH2 0x2425 JUMPI PUSH2 0x2424 PUSH2 0x2A3F JUMP JUMPDEST JUMPDEST PUSH1 0x0 PUSH2 0x2433 DUP7 DUP3 DUP8 ADD PUSH2 0x2333 JUMP JUMPDEST SWAP4 POP POP PUSH1 0x20 PUSH2 0x2444 DUP7 DUP3 DUP8 ADD PUSH2 0x235D JUMP JUMPDEST SWAP3 POP POP PUSH1 0x40 PUSH2 0x2455 DUP7 DUP3 DUP8 ADD PUSH2 0x235D JUMP JUMPDEST SWAP2 POP POP SWAP3 POP SWAP3 POP SWAP3 JUMP JUMPDEST PUSH1 0x0 PUSH2 0x246B DUP4 DUP4 PUSH2 0x25F2 JUMP JUMPDEST PUSH1 0xE0 DUP4 ADD SWAP1 POP SWAP3 SWAP2 POP POP JUMP JUMPDEST PUSH2 0x2480 DUP2 PUSH2 0x2933 JUMP JUMPDEST DUP3 MSTORE POP POP JUMP JUMPDEST PUSH2 0x248F DUP2 PUSH2 0x28EB JUMP JUMPDEST DUP3 MSTORE POP POP JUMP JUMPDEST PUSH2 0x249E DUP2 PUSH2 0x28D9 JUMP JUMPDEST DUP3 MSTORE POP POP JUMP JUMPDEST PUSH2 0x24AD DUP2 PUSH2 0x28D9 JUMP JUMPDEST DUP3 MSTORE POP POP JUMP JUMPDEST PUSH1 0x0 PUSH2 0x24BE DUP3 PUSH2 0x286B JUMP JUMPDEST PUSH2 0x24C8 DUP2 DUP6 PUSH2 0x2883 JUMP JUMPDEST SWAP4 POP PUSH2 0x24D3 DUP4 PUSH2 0x285B JUMP JUMPDEST DUP1 PUSH1 0x0 JUMPDEST DUP4 DUP2 LT ISZERO PUSH2 0x2504 JUMPI DUP2 MLOAD PUSH2 0x24EB DUP9 DUP3 PUSH2 0x245F JUMP JUMPDEST SWAP8 POP PUSH2 0x24F6 DUP4 PUSH2 0x2876 JUMP JUMPDEST SWAP3 POP POP PUSH1 0x1 DUP2 ADD SWAP1 POP PUSH2 0x24D7 JUMP JUMPDEST POP DUP6 SWAP4 POP POP POP POP SWAP3 SWAP2 POP POP JUMP JUMPDEST PUSH2 0x251A DUP2 PUSH2 0x28FD JUMP JUMPDEST DUP3 MSTORE POP POP JUMP JUMPDEST PUSH1 0x0 PUSH2 0x252D PUSH1 0x1B DUP4 PUSH2 0x2894 JUMP JUMPDEST SWAP2 POP PUSH2 0x2538 DUP3 PUSH2 0x2A44 JUMP JUMPDEST PUSH1 0x20 DUP3 ADD SWAP1 POP SWAP2 SWAP1 POP JUMP JUMPDEST PUSH1 0x0 PUSH2 0x2550 PUSH1 0x26 DUP4 PUSH2 0x2894 JUMP JUMPDEST SWAP2 POP PUSH2 0x255B DUP3 PUSH2 0x2A6D JUMP JUMPDEST PUSH1 0x40 DUP3 ADD SWAP1 POP SWAP2 SWAP1 POP JUMP JUMPDEST PUSH1 0x0 PUSH2 0x2573 PUSH1 0xD DUP4 PUSH2 0x2894 JUMP JUMPDEST SWAP2 POP PUSH2 0x257E DUP3 PUSH2 0x2ABC JUMP JUMPDEST PUSH1 0x20 DUP3 ADD SWAP1 POP SWAP2 SWAP1 POP JUMP JUMPDEST PUSH1 0x0 PUSH2 0x2596 PUSH1 0x20 DUP4 PUSH2 0x2894 JUMP JUMPDEST SWAP2 POP PUSH2 0x25A1 DUP3 PUSH2 0x2AE5 JUMP JUMPDEST PUSH1 0x20 DUP3 ADD SWAP1 POP SWAP2 SWAP1 POP JUMP JUMPDEST PUSH1 0x0 PUSH2 0x25B9 PUSH1 0x1F DUP4 PUSH2 0x2894 JUMP JUMPDEST SWAP2 POP PUSH2 0x25C4 DUP3 PUSH2 0x2B0E JUMP JUMPDEST PUSH1 0x20 DUP3 ADD SWAP1 POP SWAP2 SWAP1 POP JUMP JUMPDEST PUSH1 0x0 PUSH2 0x25DC PUSH1 0x1C DUP4 PUSH2 0x2894 JUMP JUMPDEST SWAP2 POP PUSH2 0x25E7 DUP3 PUSH2 0x2B37 JUMP JUMPDEST PUSH1 0x20 DUP3 ADD SWAP1 POP SWAP2 SWAP1 POP JUMP JUMPDEST PUSH1 0xE0 DUP3 ADD PUSH1 0x0 DUP3 ADD MLOAD PUSH2 0x2608 PUSH1 0x0 DUP6 ADD DUP3 PUSH2 0x2495 JUMP JUMPDEST POP PUSH1 0x20 DUP3 ADD MLOAD PUSH2 0x261B PUSH1 0x20 DUP6 ADD DUP3 PUSH2 0x2680 JUMP JUMPDEST POP PUSH1 0x40 DUP3 ADD MLOAD PUSH2 0x262E PUSH1 0x40 DUP6 ADD DUP3 PUSH2 0x2680 JUMP JUMPDEST POP PUSH1 0x60 DUP3 ADD MLOAD PUSH2 0x2641 PUSH1 0x60 DUP6 ADD DUP3 PUSH2 0x2486 JUMP JUMPDEST POP PUSH1 0x80 DUP3 ADD MLOAD PUSH2 0x2654 PUSH1 0x80 DUP6 ADD DUP3 PUSH2 0x2486 JUMP JUMPDEST POP PUSH1 0xA0 DUP3 ADD MLOAD PUSH2 0x2667 PUSH1 0xA0 DUP6 ADD DUP3 PUSH2 0x2486 JUMP JUMPDEST POP PUSH1 0xC0 DUP3 ADD MLOAD PUSH2 0x267A PUSH1 0xC0 DUP6 ADD DUP3 PUSH2 0x2511 JUMP JUMPDEST POP POP POP POP JUMP JUMPDEST PUSH2 0x2689 DUP2 PUSH2 0x2929 JUMP JUMPDEST DUP3 MSTORE POP POP JUMP JUMPDEST PUSH2 0x2698 DUP2 PUSH2 0x2929 JUMP JUMPDEST DUP3 MSTORE POP POP JUMP JUMPDEST PUSH1 0x0 PUSH1 0x20 DUP3 ADD SWAP1 POP PUSH2 0x26B3 PUSH1 0x0 DUP4 ADD DUP5 PUSH2 0x24A4 JUMP JUMPDEST SWAP3 SWAP2 POP POP JUMP JUMPDEST PUSH1 0x0 PUSH1 0x60 DUP3 ADD SWAP1 POP PUSH2 0x26CE PUSH1 0x0 DUP4 ADD DUP7 PUSH2 0x24A4 JUMP JUMPDEST PUSH2 0x26DB PUSH1 0x20 DUP4 ADD DUP6 PUSH2 0x2477 JUMP JUMPDEST PUSH2 0x26E8 PUSH1 0x40 DUP4 ADD DUP5 PUSH2 0x268F JUMP JUMPDEST SWAP5 SWAP4 POP POP POP POP JUMP JUMPDEST PUSH1 0x0 PUSH1 0x60 DUP3 ADD SWAP1 POP PUSH2 0x2705 PUSH1 0x0 DUP4 ADD DUP7 PUSH2 0x24A4 JUMP JUMPDEST PUSH2 0x2712 PUSH1 0x20 DUP4 ADD DUP6 PUSH2 0x24A4 JUMP JUMPDEST PUSH2 0x271F PUSH1 0x40 DUP4 ADD DUP5 PUSH2 0x268F JUMP JUMPDEST SWAP5 SWAP4 POP POP POP POP JUMP JUMPDEST PUSH1 0x0 PUSH1 0x60 DUP3 ADD SWAP1 POP PUSH2 0x273C PUSH1 0x0 DUP4 ADD DUP7 PUSH2 0x24A4 JUMP JUMPDEST PUSH2 0x2749 PUSH1 0x20 DUP4 ADD DUP6 PUSH2 0x268F JUMP JUMPDEST PUSH2 0x2756 PUSH1 0x40 DUP4 ADD DUP5 PUSH2 0x268F JUMP JUMPDEST SWAP5 SWAP4 POP POP POP POP JUMP JUMPDEST PUSH1 0x0 PUSH1 0x20 DUP3 ADD SWAP1 POP DUP2 DUP2 SUB PUSH1 0x0 DUP4 ADD MSTORE PUSH2 0x2778 DUP2 DUP5 PUSH2 0x24B3 JUMP JUMPDEST SWAP1 POP SWAP3 SWAP2 POP POP JUMP JUMPDEST PUSH1 0x0 PUSH1 0x20 DUP3 ADD SWAP1 POP DUP2 DUP2 SUB PUSH1 0x0 DUP4 ADD MSTORE PUSH2 0x2799 DUP2 PUSH2 0x2520 JUMP JUMPDEST SWAP1 POP SWAP2 SWAP1 POP JUMP JUMPDEST PUSH1 0x0 PUSH1 0x20 DUP3 ADD SWAP1 POP DUP2 DUP2 SUB PUSH1 0x0 DUP4 ADD MSTORE PUSH2 0x27B9 DUP2 PUSH2 0x2543 JUMP JUMPDEST SWAP1 POP SWAP2 SWAP1 POP JUMP JUMPDEST PUSH1 0x0 PUSH1 0x20 DUP3 ADD SWAP1 POP DUP2 DUP2 SUB PUSH1 0x0 DUP4 ADD MSTORE PUSH2 0x27D9 DUP2 PUSH2 0x2566 JUMP JUMPDEST SWAP1 POP SWAP2 SWAP1 POP JUMP JUMPDEST PUSH1 0x0 PUSH1 0x20 DUP3 ADD SWAP1 POP DUP2 DUP2 SUB PUSH1 0x0 DUP4 ADD MSTORE PUSH2 0x27F9 DUP2 PUSH2 0x2589 JUMP JUMPDEST SWAP1 POP SWAP2 SWAP1 POP JUMP JUMPDEST PUSH1 0x0 PUSH1 0x20 DUP3 ADD SWAP1 POP DUP2 DUP2 SUB PUSH1 0x0 DUP4 ADD MSTORE PUSH2 0x2819 DUP2 PUSH2 0x25AC JUMP JUMPDEST SWAP1 POP SWAP2 SWAP1 POP JUMP JUMPDEST PUSH1 0x0 PUSH1 0x20 DUP3 ADD SWAP1 POP DUP2 DUP2 SUB PUSH1 0x0 DUP4 ADD MSTORE PUSH2 0x2839 DUP2 PUSH2 0x25CF JUMP JUMPDEST SWAP1 POP SWAP2 SWAP1 POP JUMP JUMPDEST PUSH1 0x0 PUSH1 0x20 DUP3 ADD SWAP1 POP PUSH2 0x2855 PUSH1 0x0 DUP4 ADD DUP5 PUSH2 0x268F JUMP JUMPDEST SWAP3 SWAP2 POP POP JUMP JUMPDEST PUSH1 0x0 DUP2 SWAP1 POP PUSH1 0x20 DUP3 ADD SWAP1 POP SWAP2 SWAP1 POP JUMP JUMPDEST PUSH1 0x0 DUP2 MLOAD SWAP1 POP SWAP2 SWAP1 POP JUMP JUMPDEST PUSH1 0x0 PUSH1 0x20 DUP3 ADD SWAP1 POP SWAP2 SWAP1 POP JUMP JUMPDEST PUSH1 0x0 DUP3 DUP3 MSTORE PUSH1 0x20 DUP3 ADD SWAP1 POP SWAP3 SWAP2 POP POP JUMP JUMPDEST PUSH1 0x0 DUP3 DUP3 MSTORE PUSH1 0x20 DUP3 ADD SWAP1 POP SWAP3 SWAP2 POP POP JUMP JUMPDEST PUSH1 0x0 PUSH2 0x28B0 DUP3 PUSH2 0x2929 JUMP JUMPDEST SWAP2 POP PUSH2 0x28BB DUP4 PUSH2 0x2929 JUMP JUMPDEST SWAP3 POP DUP3 DUP3 LT ISZERO PUSH2 0x28CE JUMPI PUSH2 0x28CD PUSH2 0x29B2 JUMP JUMPDEST JUMPDEST DUP3 DUP3 SUB SWAP1 POP SWAP3 SWAP2 POP POP JUMP JUMPDEST PUSH1 0x0 PUSH2 0x28E4 DUP3 PUSH2 0x2909 JUMP JUMPDEST SWAP1 POP SWAP2 SWAP1 POP JUMP JUMPDEST PUSH1 0x0 PUSH2 0x28F6 DUP3 PUSH2 0x2909 JUMP JUMPDEST SWAP1 POP SWAP2 SWAP1 POP JUMP JUMPDEST PUSH1 0x0 DUP2 ISZERO ISZERO SWAP1 POP SWAP2 SWAP1 POP JUMP JUMPDEST PUSH1 0x0 PUSH20 0xFFFFFFFFFFFFFFFFFFFFFFFFFFFFFFFFFFFFFFFF DUP3 AND SWAP1 POP SWAP2 SWAP1 POP JUMP JUMPDEST PUSH1 0x0 DUP2 SWAP1 POP SWAP2 SWAP1 POP JUMP JUMPDEST PUSH1 0x0 PUSH2 0x293E DUP3 PUSH2 0x2945 JUMP JUMPDEST SWAP1 POP SWAP2 SWAP1 POP JUMP JUMPDEST PUSH1 0x0 PUSH2 0x2950 DUP3 PUSH2 0x2957 JUMP JUMPDEST SWAP1 POP SWAP2 SWAP1 POP JUMP JUMPDEST PUSH1 0x0 PUSH2 0x2962 DUP3 PUSH2 0x2909 JUMP JUMPDEST SWAP1 POP SWAP2 SWAP1 POP JUMP JUMPDEST PUSH1 0x0 PUSH2 0x2974 DUP3 PUSH2 0x2929 JUMP JUMPDEST SWAP2 POP PUSH32 0xFFFFFFFFFFFFFFFFFFFFFFFFFFFFFFFFFFFFFFFFFFFFFFFFFFFFFFFFFFFFFFFF DUP3 EQ ISZERO PUSH2 0x29A7 JUMPI PUSH2 0x29A6 PUSH2 0x29B2 JUMP JUMPDEST JUMPDEST PUSH1 0x1 DUP3 ADD SWAP1 POP SWAP2 SWAP1 POP JUMP JUMPDEST PUSH32 0x4E487B7100000000000000000000000000000000000000000000000000000000 PUSH1 0x0 MSTORE PUSH1 0x11 PUSH1 0x4 MSTORE PUSH1 0x24 PUSH1 0x0 REVERT JUMPDEST PUSH32 0x4E487B7100000000000000000000000000000000000000000000000000000000 PUSH1 0x0 MSTORE PUSH1 0x32 PUSH1 0x4 MSTORE PUSH1 0x24 PUSH1 0x0 REVERT JUMPDEST PUSH32 0x4E487B7100000000000000000000000000000000000000000000000000000000 PUSH1 0x0 MSTORE PUSH1 0x41 PUSH1 0x4 MSTORE PUSH1 0x24 PUSH1 0x0 REVERT JUMPDEST PUSH1 0x0 DUP1 REVERT JUMPDEST PUSH32 0x436F756E7465723A2064656372656D656E74206F766572666C6F770000000000 PUSH1 0x0 DUP3 ADD MSTORE POP JUMP JUMPDEST PUSH32 0x4E6F7420656E6F75676820657468657220746F20636F7665722061736B696E67 PUSH1 0x0 DUP3 ADD MSTORE PUSH32 0x2070726963650000000000000000000000000000000000000000000000000000 PUSH1 0x20 DUP3 ADD MSTORE POP JUMP JUMPDEST PUSH32 0x4E6674206E6F7420666F756E6400000000000000000000000000000000000000 PUSH1 0x0 DUP3 ADD MSTORE POP JUMP JUMPDEST PUSH32 0x4E6F7420656E6F75676820657468657220666F72206C697374696E6720666565 PUSH1 0x0 DUP3 ADD MSTORE POP JUMP JUMPDEST PUSH32 0x5265656E7472616E637947756172643A207265656E7472616E742063616C6C00 PUSH1 0x0 DUP3 ADD MSTORE POP JUMP JUMPDEST PUSH32 0x5072696365206D757374206265206174206C6561737420312077656900000000 PUSH1 0x0 DUP3 ADD MSTORE POP JUMP JUMPDEST PUSH2 0x2B69 DUP2 PUSH2 0x28D9 JUMP JUMPDEST DUP2 EQ PUSH2 0x2B74 JUMPI PUSH1 0x0 DUP1 REVERT JUMPDEST POP JUMP JUMPDEST PUSH2 0x2B80 DUP2 PUSH2 0x2929 JUMP JUMPDEST DUP2 EQ PUSH2 0x2B8B JUMPI PUSH1 0x0 DUP1 REVERT JUMPDEST POP JUMP INVALID LOG2 PUSH5 0x6970667358 0x22 SLT KECCAK256 EXTCODECOPY PUSH27 0xF6A4F4301FE6B3AA4BF3887D8F54CF7F727473141BD26C6E1FBE3 0xC9 NOT 0xDF PUSH5 0x736F6C6343 STOP ADDMOD SMOD STOP CALLER "
				},
				"gasEstimates": {
					"creation": {
						"codeDepositCost": "2240800",
						"executionCost": "70883",
						"totalCost": "2311683"
					},
					"external": {
						"LISTING_FEE()": "2474",
						"buyNft(address,uint256)": "infinite",
						"getListedNfts()": "infinite",
						"getListingFee()": "2525",
						"getMyCreatedNfts()": "infinite",
						"getMyListedNfts()": "infinite",
						"getMyOwnedNfts()": "infinite",
						"getNftByContract(address)": "infinite",
						"getOwner(address,uint256)": "infinite",
						"listNFT(address,uint256,uint256)": "infinite",
						"resellNFT(address,uint256,uint256)": "infinite"
					},
					"internal": {
						"getNFT(address,uint256)": "infinite"
					}
				},
				"methodIdentifiers": {
					"LISTING_FEE()": "2b86ae38",
					"buyNft(address,uint256)": "4ddf4f8f",
					"getListedNfts()": "8d6cb3fb",
					"getListingFee()": "b8fe6abe",
					"getMyCreatedNfts()": "8492095a",
					"getMyListedNfts()": "1f4cc4db",
					"getMyOwnedNfts()": "a46b5c5a",
					"getNftByContract(address)": "e7d90feb",
					"getOwner(address,uint256)": "2f634a90",
					"listNFT(address,uint256,uint256)": "ad05f1b4",
					"resellNFT(address,uint256,uint256)": "04935694"
				}
			},
			"storageLayout": {
				"storage": [
					{
						"astId": 1052,
						"contract": "contracts/GeekNftMarketPlace.sol:GeekNftMarketPlace",
						"label": "_status",
						"offset": 0,
						"slot": "0",
						"type": "t_uint256"
					},
					{
						"astId": 103,
						"contract": "contracts/GeekNftMarketPlace.sol:GeekNftMarketPlace",
						"label": "_nftsSold",
						"offset": 0,
						"slot": "1",
						"type": "t_struct(Counter)5_storage"
					},
					{
						"astId": 106,
						"contract": "contracts/GeekNftMarketPlace.sol:GeekNftMarketPlace",
						"label": "_nftsCount",
						"offset": 0,
						"slot": "2",
						"type": "t_struct(Counter)5_storage"
					},
					{
						"astId": 109,
						"contract": "contracts/GeekNftMarketPlace.sol:GeekNftMarketPlace",
						"label": "LISTING_FEE",
						"offset": 0,
						"slot": "3",
						"type": "t_uint256"
					},
					{
						"astId": 111,
						"contract": "contracts/GeekNftMarketPlace.sol:GeekNftMarketPlace",
						"label": "_marketOwwner",
						"offset": 0,
						"slot": "4",
						"type": "t_address_payable"
					},
					{
						"astId": 115,
						"contract": "contracts/GeekNftMarketPlace.sol:GeekNftMarketPlace",
						"label": "nfts",
						"offset": 0,
						"slot": "5",
						"type": "t_array(t_struct(NFT)130_storage)dyn_storage"
					}
				],
				"types": {
					"t_address": {
						"encoding": "inplace",
						"label": "address",
						"numberOfBytes": "20"
					},
					"t_address_payable": {
						"encoding": "inplace",
						"label": "address payable",
						"numberOfBytes": "20"
					},
					"t_array(t_struct(NFT)130_storage)dyn_storage": {
						"base": "t_struct(NFT)130_storage",
						"encoding": "dynamic_array",
						"label": "struct GeekNftMarketPlace.NFT[]",
						"numberOfBytes": "32"
					},
					"t_bool": {
						"encoding": "inplace",
						"label": "bool",
						"numberOfBytes": "1"
					},
					"t_struct(Counter)5_storage": {
						"encoding": "inplace",
						"label": "struct Counters.Counter",
						"members": [
							{
								"astId": 4,
								"contract": "contracts/GeekNftMarketPlace.sol:GeekNftMarketPlace",
								"label": "_value",
								"offset": 0,
								"slot": "0",
								"type": "t_uint256"
							}
						],
						"numberOfBytes": "32"
					},
					"t_struct(NFT)130_storage": {
						"encoding": "inplace",
						"label": "struct GeekNftMarketPlace.NFT",
						"members": [
							{
								"astId": 117,
								"contract": "contracts/GeekNftMarketPlace.sol:GeekNftMarketPlace",
								"label": "nftContract",
								"offset": 0,
								"slot": "0",
								"type": "t_address"
							},
							{
								"astId": 119,
								"contract": "contracts/GeekNftMarketPlace.sol:GeekNftMarketPlace",
								"label": "tokenId",
								"offset": 0,
								"slot": "1",
								"type": "t_uint256"
							},
							{
								"astId": 121,
								"contract": "contracts/GeekNftMarketPlace.sol:GeekNftMarketPlace",
								"label": "price",
								"offset": 0,
								"slot": "2",
								"type": "t_uint256"
							},
							{
								"astId": 123,
								"contract": "contracts/GeekNftMarketPlace.sol:GeekNftMarketPlace",
								"label": "seller",
								"offset": 0,
								"slot": "3",
								"type": "t_address_payable"
							},
							{
								"astId": 125,
								"contract": "contracts/GeekNftMarketPlace.sol:GeekNftMarketPlace",
								"label": "owner",
								"offset": 0,
								"slot": "4",
								"type": "t_address_payable"
							},
							{
								"astId": 127,
								"contract": "contracts/GeekNftMarketPlace.sol:GeekNftMarketPlace",
								"label": "creator",
								"offset": 0,
								"slot": "5",
								"type": "t_address_payable"
							},
							{
								"astId": 129,
								"contract": "contracts/GeekNftMarketPlace.sol:GeekNftMarketPlace",
								"label": "listed",
								"offset": 20,
								"slot": "5",
								"type": "t_bool"
							}
						],
						"numberOfBytes": "192"
					},
					"t_uint256": {
						"encoding": "inplace",
						"label": "uint256",
						"numberOfBytes": "32"
					}
				}
			},
			"userdoc": {
				"kind": "user",
				"methods": {},
				"version": 1
			}
		}
	}
}