{
	"contracts/GeekNftMarketPlace.sol": {
		"GeekNftMarketPlace": {
			"abi": [
				{
					"inputs": [],
					"stateMutability": "nonpayable",
					"type": "constructor"
				},
				{
					"anonymous": false,
					"inputs": [
						{
							"indexed": false,
							"internalType": "address",
							"name": "nftContract",
							"type": "address"
						},
						{
							"indexed": false,
							"internalType": "uint256",
							"name": "tokenId",
							"type": "uint256"
						},
						{
							"indexed": true,
							"internalType": "address",
							"name": "seller",
							"type": "address"
						},
						{
							"indexed": true,
							"internalType": "address",
							"name": "owner",
							"type": "address"
						},
						{
							"indexed": false,
							"internalType": "uint256",
							"name": "price",
							"type": "uint256"
						}
					],
					"name": "NFTListed",
					"type": "event"
				},
				{
					"anonymous": false,
					"inputs": [
						{
							"indexed": false,
							"internalType": "address",
							"name": "nftContract",
							"type": "address"
						},
						{
							"indexed": false,
							"internalType": "uint256",
							"name": "tokenId",
							"type": "uint256"
						},
						{
							"indexed": true,
							"internalType": "address",
							"name": "seller",
							"type": "address"
						},
						{
							"indexed": true,
							"internalType": "address",
							"name": "owner",
							"type": "address"
						},
						{
							"indexed": false,
							"internalType": "uint256",
							"name": "price",
							"type": "uint256"
						}
					],
					"name": "NFTSold",
					"type": "event"
				},
				{
					"inputs": [],
					"name": "LISTING_FEE",
					"outputs": [
						{
							"internalType": "uint256",
							"name": "",
							"type": "uint256"
						}
					],
					"stateMutability": "view",
					"type": "function"
				},
				{
					"inputs": [
						{
							"internalType": "address",
							"name": "_nftContract",
							"type": "address"
						},
						{
							"internalType": "uint256",
							"name": "_tokenId",
							"type": "uint256"
						}
					],
					"name": "buyNft",
					"outputs": [],
					"stateMutability": "payable",
					"type": "function"
				},
				{
					"inputs": [],
					"name": "getListedNfts",
					"outputs": [
						{
							"components": [
								{
									"internalType": "uint256",
									"name": "tokenId",
									"type": "uint256"
								},
								{
									"internalType": "uint256",
									"name": "price",
									"type": "uint256"
								},
								{
									"internalType": "address payable",
									"name": "seller",
									"type": "address"
								},
								{
									"internalType": "address payable",
									"name": "owner",
									"type": "address"
								},
								{
									"internalType": "address payable",
									"name": "creator",
									"type": "address"
								},
								{
									"internalType": "bool",
									"name": "listed",
									"type": "bool"
								}
							],
							"internalType": "struct GeekNftMarketPlace.NFT[]",
							"name": "",
							"type": "tuple[]"
						}
					],
					"stateMutability": "view",
					"type": "function"
				},
				{
					"inputs": [],
					"name": "getListingFee",
					"outputs": [
						{
							"internalType": "uint256",
							"name": "",
							"type": "uint256"
						}
					],
					"stateMutability": "view",
					"type": "function"
				},
				{
					"inputs": [],
					"name": "getMyCreatedNfts",
					"outputs": [
						{
							"components": [
								{
									"internalType": "uint256",
									"name": "tokenId",
									"type": "uint256"
								},
								{
									"internalType": "uint256",
									"name": "price",
									"type": "uint256"
								},
								{
									"internalType": "address payable",
									"name": "seller",
									"type": "address"
								},
								{
									"internalType": "address payable",
									"name": "owner",
									"type": "address"
								},
								{
									"internalType": "address payable",
									"name": "creator",
									"type": "address"
								},
								{
									"internalType": "bool",
									"name": "listed",
									"type": "bool"
								}
							],
							"internalType": "struct GeekNftMarketPlace.NFT[]",
							"name": "",
							"type": "tuple[]"
						}
					],
					"stateMutability": "view",
					"type": "function"
				},
				{
					"inputs": [],
					"name": "getMyListedNfts",
					"outputs": [
						{
							"components": [
								{
									"internalType": "uint256",
									"name": "tokenId",
									"type": "uint256"
								},
								{
									"internalType": "uint256",
									"name": "price",
									"type": "uint256"
								},
								{
									"internalType": "address payable",
									"name": "seller",
									"type": "address"
								},
								{
									"internalType": "address payable",
									"name": "owner",
									"type": "address"
								},
								{
									"internalType": "address payable",
									"name": "creator",
									"type": "address"
								},
								{
									"internalType": "bool",
									"name": "listed",
									"type": "bool"
								}
							],
							"internalType": "struct GeekNftMarketPlace.NFT[]",
							"name": "",
							"type": "tuple[]"
						}
					],
					"stateMutability": "view",
					"type": "function"
				},
				{
					"inputs": [],
					"name": "getMyOwnedNfts",
					"outputs": [
						{
							"components": [
								{
									"internalType": "uint256",
									"name": "tokenId",
									"type": "uint256"
								},
								{
									"internalType": "uint256",
									"name": "price",
									"type": "uint256"
								},
								{
									"internalType": "address payable",
									"name": "seller",
									"type": "address"
								},
								{
									"internalType": "address payable",
									"name": "owner",
									"type": "address"
								},
								{
									"internalType": "address payable",
									"name": "creator",
									"type": "address"
								},
								{
									"internalType": "bool",
									"name": "listed",
									"type": "bool"
								}
							],
							"internalType": "struct GeekNftMarketPlace.NFT[]",
							"name": "",
							"type": "tuple[]"
						}
					],
					"stateMutability": "view",
					"type": "function"
				},
				{
					"inputs": [
						{
							"internalType": "address",
							"name": "_nftContract",
							"type": "address"
						},
						{
							"internalType": "uint256",
							"name": "_tokenId",
							"type": "uint256"
						}
					],
					"name": "getOwner",
					"outputs": [
						{
							"internalType": "address",
							"name": "",
							"type": "address"
						}
					],
					"stateMutability": "view",
					"type": "function"
				},
				{
					"inputs": [
						{
							"internalType": "address",
							"name": "_nftContract",
							"type": "address"
						},
						{
							"internalType": "uint256",
							"name": "_tokenId",
							"type": "uint256"
						},
						{
							"internalType": "uint256",
							"name": "_price",
							"type": "uint256"
						}
					],
					"name": "listNFT",
					"outputs": [],
					"stateMutability": "payable",
					"type": "function"
				},
				{
					"inputs": [
						{
							"internalType": "address",
							"name": "_nftContract",
							"type": "address"
						},
						{
							"internalType": "uint256",
							"name": "_tokenId",
							"type": "uint256"
						},
						{
							"internalType": "uint256",
							"name": "_price",
							"type": "uint256"
						}
					],
					"name": "resellNFT",
					"outputs": [],
					"stateMutability": "payable",
					"type": "function"
				}
			],
			"devdoc": {
				"kind": "dev",
				"methods": {},
				"version": 1
			},
			"evm": {
				"assembly": "    /* \"contracts/GeekNftMarketPlace.sol\":297:6038  contract GeekNftMarketPlace is ReentrancyGuard {... */\n  mstore(0x40, 0x80)\n    /* \"contracts/GeekNftMarketPlace.sol\":500:511  0.002 ether */\n  0x071afd498d0000\n    /* \"contracts/GeekNftMarketPlace.sol\":474:511  uint public LISTING_FEE = 0.002 ether */\n  0x03\n  sstore\n    /* \"contracts/GeekNftMarketPlace.sol\":1017:1083  constructor() {... */\n  callvalue\n  dup1\n  iszero\n  tag_1\n  jumpi\n  0x00\n  dup1\n  revert\ntag_1:\n  pop\n    /* \"contracts/RenntrancyGuard.sol\":128:129  1 */\n  0x01\n    /* \"contracts/RenntrancyGuard.sol\":233:240  _status */\n  0x00\n    /* \"contracts/RenntrancyGuard.sol\":233:255  _status = _NOT_ENTERED */\n  dup2\n  swap1\n  sstore\n  pop\n    /* \"contracts/GeekNftMarketPlace.sol\":1065:1075  msg.sender */\n  caller\n    /* \"contracts/GeekNftMarketPlace.sol\":1041:1054  _marketOwwner */\n  0x04\n  0x00\n    /* \"contracts/GeekNftMarketPlace.sol\":1041:1076  _marketOwwner = payable(msg.sender) */\n  0x0100\n  exp\n  dup2\n  sload\n  dup2\n  0xffffffffffffffffffffffffffffffffffffffff\n  mul\n  not\n  and\n  swap1\n  dup4\n  0xffffffffffffffffffffffffffffffffffffffff\n  and\n  mul\n  or\n  swap1\n  sstore\n  pop\n    /* \"contracts/GeekNftMarketPlace.sol\":297:6038  contract GeekNftMarketPlace is ReentrancyGuard {... */\n  dataSize(sub_0)\n  dup1\n  dataOffset(sub_0)\n  0x00\n  codecopy\n  0x00\n  return\nstop\n\nsub_0: assembly {\n        /* \"contracts/GeekNftMarketPlace.sol\":297:6038  contract GeekNftMarketPlace is ReentrancyGuard {... */\n      mstore(0x40, 0x80)\n      jumpi(tag_1, lt(calldatasize, 0x04))\n      shr(0xe0, calldataload(0x00))\n      dup1\n      0x8492095a\n      gt\n      tag_12\n      jumpi\n      dup1\n      0x8492095a\n      eq\n      tag_7\n      jumpi\n      dup1\n      0x8d6cb3fb\n      eq\n      tag_8\n      jumpi\n      dup1\n      0xa46b5c5a\n      eq\n      tag_9\n      jumpi\n      dup1\n      0xad05f1b4\n      eq\n      tag_10\n      jumpi\n      dup1\n      0xb8fe6abe\n      eq\n      tag_11\n      jumpi\n      jump(tag_1)\n    tag_12:\n      dup1\n      0x04935694\n      eq\n      tag_2\n      jumpi\n      dup1\n      0x1f4cc4db\n      eq\n      tag_3\n      jumpi\n      dup1\n      0x2b86ae38\n      eq\n      tag_4\n      jumpi\n      dup1\n      0x2f634a90\n      eq\n      tag_5\n      jumpi\n      dup1\n      0x4ddf4f8f\n      eq\n      tag_6\n      jumpi\n    tag_1:\n      0x00\n      dup1\n      revert\n        /* \"contracts/GeekNftMarketPlace.sol\":2953:3569  function resellNFT(address _nftContract, uint _tokenId, uint _price) public payable nonReentrant priceIsGreaterThanZero(_price) valueIsEqualToFees{... */\n    tag_2:\n      tag_13\n      0x04\n      dup1\n      calldatasize\n      sub\n      dup2\n      add\n      swap1\n      tag_14\n      swap2\n      swap1\n      tag_15\n      jump\t// in\n    tag_14:\n      tag_16\n      jump\t// in\n    tag_13:\n      stop\n        /* \"contracts/GeekNftMarketPlace.sol\":4904:5555  function getMyListedNfts() public view returns (NFT[] memory) {... */\n    tag_3:\n      callvalue\n      dup1\n      iszero\n      tag_17\n      jumpi\n      0x00\n      dup1\n      revert\n    tag_17:\n      pop\n      tag_18\n      tag_19\n      jump\t// in\n    tag_18:\n      mload(0x40)\n      tag_20\n      swap2\n      swap1\n      tag_21\n      jump\t// in\n    tag_20:\n      mload(0x40)\n      dup1\n      swap2\n      sub\n      swap1\n      return\n        /* \"contracts/GeekNftMarketPlace.sol\":474:511  uint public LISTING_FEE = 0.002 ether */\n    tag_4:\n      callvalue\n      dup1\n      iszero\n      tag_22\n      jumpi\n      0x00\n      dup1\n      revert\n    tag_22:\n      pop\n      tag_23\n      tag_24\n      jump\t// in\n    tag_23:\n      mload(0x40)\n      tag_25\n      swap2\n      swap1\n      tag_26\n      jump\t// in\n    tag_25:\n      mload(0x40)\n      dup1\n      swap2\n      sub\n      swap1\n      return\n        /* \"contracts/GeekNftMarketPlace.sol\":1444:1600  function getOwner(address _nftContract, uint _tokenId) public view returns (address){... */\n    tag_5:\n      callvalue\n      dup1\n      iszero\n      tag_27\n      jumpi\n      0x00\n      dup1\n      revert\n    tag_27:\n      pop\n      tag_28\n      0x04\n      dup1\n      calldatasize\n      sub\n      dup2\n      add\n      swap1\n      tag_29\n      swap2\n      swap1\n      tag_30\n      jump\t// in\n    tag_29:\n      tag_31\n      jump\t// in\n    tag_28:\n      mload(0x40)\n      tag_32\n      swap2\n      swap1\n      tag_33\n      jump\t// in\n    tag_32:\n      mload(0x40)\n      dup1\n      swap2\n      sub\n      swap1\n      return\n        /* \"contracts/GeekNftMarketPlace.sol\":2278:2898  function buyNft(address _nftContract, uint _tokenId) public payable nonReentrant{... */\n    tag_6:\n      tag_34\n      0x04\n      dup1\n      calldatasize\n      sub\n      dup2\n      add\n      swap1\n      tag_35\n      swap2\n      swap1\n      tag_30\n      jump\t// in\n    tag_35:\n      tag_36\n      jump\t// in\n    tag_34:\n      stop\n        /* \"contracts/GeekNftMarketPlace.sol\":4253:4863  function getMyCreatedNfts() public view returns (NFT[] memory) {... */\n    tag_7:\n      callvalue\n      dup1\n      iszero\n      tag_37\n      jumpi\n      0x00\n      dup1\n      revert\n    tag_37:\n      pop\n      tag_38\n      tag_39\n      jump\t// in\n    tag_38:\n      mload(0x40)\n      tag_40\n      swap2\n      swap1\n      tag_21\n      jump\t// in\n    tag_40:\n      mload(0x40)\n      dup1\n      swap2\n      sub\n      swap1\n      return\n        /* \"contracts/GeekNftMarketPlace.sol\":5561:6036  function getListedNfts() public view returns (NFT[] memory) {... */\n    tag_8:\n      callvalue\n      dup1\n      iszero\n      tag_41\n      jumpi\n      0x00\n      dup1\n      revert\n    tag_41:\n      pop\n      tag_42\n      tag_43\n      jump\t// in\n    tag_42:\n      mload(0x40)\n      tag_44\n      swap2\n      swap1\n      tag_21\n      jump\t// in\n    tag_44:\n      mload(0x40)\n      dup1\n      swap2\n      sub\n      swap1\n      return\n        /* \"contracts/GeekNftMarketPlace.sol\":3608:4212  function getMyOwnedNfts() public view returns (NFT[] memory) {... */\n    tag_9:\n      callvalue\n      dup1\n      iszero\n      tag_45\n      jumpi\n      0x00\n      dup1\n      revert\n    tag_45:\n      pop\n      tag_46\n      tag_47\n      jump\t// in\n    tag_46:\n      mload(0x40)\n      tag_48\n      swap2\n      swap1\n      tag_21\n      jump\t// in\n    tag_48:\n      mload(0x40)\n      dup1\n      swap2\n      sub\n      swap1\n      return\n        /* \"contracts/GeekNftMarketPlace.sol\":1645:2254  function listNFT(address _nftContract, uint _tokenId, uint _price) public payable nonReentrant priceIsGreaterThanZero(_price) valueIsEqualToFees{... */\n    tag_10:\n      tag_49\n      0x04\n      dup1\n      calldatasize\n      sub\n      dup2\n      add\n      swap1\n      tag_50\n      swap2\n      swap1\n      tag_15\n      jump\t// in\n    tag_50:\n      tag_51\n      jump\t// in\n    tag_49:\n      stop\n        /* \"contracts/GeekNftMarketPlace.sol\":1352:1438  function getListingFee() public view returns (uint){... */\n    tag_11:\n      callvalue\n      dup1\n      iszero\n      tag_52\n      jumpi\n      0x00\n      dup1\n      revert\n    tag_52:\n      pop\n      tag_53\n      tag_54\n      jump\t// in\n    tag_53:\n      mload(0x40)\n      tag_55\n      swap2\n      swap1\n      tag_26\n      jump\t// in\n    tag_55:\n      mload(0x40)\n      dup1\n      swap2\n      sub\n      swap1\n      return\n        /* \"contracts/GeekNftMarketPlace.sol\":2953:3569  function resellNFT(address _nftContract, uint _tokenId, uint _price) public payable nonReentrant priceIsGreaterThanZero(_price) valueIsEqualToFees{... */\n    tag_16:\n        /* \"contracts/RenntrancyGuard.sol\":171:172  2 */\n      0x02\n        /* \"contracts/RenntrancyGuard.sol\":310:317  _status */\n      sload(0x00)\n        /* \"contracts/RenntrancyGuard.sol\":310:329  _status != _ENTERED */\n      eq\n      iszero\n        /* \"contracts/RenntrancyGuard.sol\":302:365  require(_status != _ENTERED, \"ReentrancyGuard: reentrant call\") */\n      tag_57\n      jumpi\n      mload(0x40)\n      0x08c379a000000000000000000000000000000000000000000000000000000000\n      dup2\n      mstore\n      0x04\n      add\n      tag_58\n      swap1\n      tag_59\n      jump\t// in\n    tag_58:\n      mload(0x40)\n      dup1\n      swap2\n      sub\n      swap1\n      revert\n    tag_57:\n        /* \"contracts/RenntrancyGuard.sol\":171:172  2 */\n      0x02\n        /* \"contracts/RenntrancyGuard.sol\":375:382  _status */\n      0x00\n        /* \"contracts/RenntrancyGuard.sol\":375:393  _status = _ENTERED */\n      dup2\n      swap1\n      sstore\n      pop\n        /* \"contracts/GeekNftMarketPlace.sol\":3073:3079  _price */\n      dup1\n        /* \"contracts/GeekNftMarketPlace.sol\":1161:1162  0 */\n      0x00\n        /* \"contracts/GeekNftMarketPlace.sol\":1152:1158  _price */\n      dup2\n        /* \"contracts/GeekNftMarketPlace.sol\":1152:1162  _price > 0 */\n      gt\n        /* \"contracts/GeekNftMarketPlace.sol\":1144:1195  require(_price > 0, \"Price must be at least 1 wei\") */\n      tag_61\n      jumpi\n      mload(0x40)\n      0x08c379a000000000000000000000000000000000000000000000000000000000\n      dup2\n      mstore\n      0x04\n      add\n      tag_62\n      swap1\n      tag_63\n      jump\t// in\n    tag_62:\n      mload(0x40)\n      dup1\n      swap2\n      sub\n      swap1\n      revert\n    tag_61:\n        /* \"contracts/GeekNftMarketPlace.sol\":1280:1291  LISTING_FEE */\n      sload(0x03)\n        /* \"contracts/GeekNftMarketPlace.sol\":1267:1276  msg.value */\n      callvalue\n        /* \"contracts/GeekNftMarketPlace.sol\":1267:1291  msg.value == LISTING_FEE */\n      eq\n        /* \"contracts/GeekNftMarketPlace.sol\":1259:1328  require(msg.value == LISTING_FEE, \"Not enough ether for listing fee\") */\n      tag_65\n      jumpi\n      mload(0x40)\n      0x08c379a000000000000000000000000000000000000000000000000000000000\n      dup2\n      mstore\n      0x04\n      add\n      tag_66\n      swap1\n      tag_67\n      jump\t// in\n    tag_66:\n      mload(0x40)\n      dup1\n      swap2\n      sub\n      swap1\n      revert\n    tag_65:\n        /* \"contracts/GeekNftMarketPlace.sol\":3109:3123  NFT memory nft */\n      0x00\n        /* \"contracts/GeekNftMarketPlace.sol\":3126:3134  _idToNFT */\n      0x05\n        /* \"contracts/GeekNftMarketPlace.sol\":3126:3144  _idToNFT[_tokenId] */\n      0x00\n        /* \"contracts/GeekNftMarketPlace.sol\":3135:3143  _tokenId */\n      dup6\n        /* \"contracts/GeekNftMarketPlace.sol\":3126:3144  _idToNFT[_tokenId] */\n      dup2\n      mstore\n      0x20\n      add\n      swap1\n      dup2\n      mstore\n      0x20\n      add\n      0x00\n      keccak256\n        /* \"contracts/GeekNftMarketPlace.sol\":3109:3144  NFT memory nft = _idToNFT[_tokenId] */\n      mload(0x40)\n      dup1\n      0xc0\n      add\n      0x40\n      mstore\n      swap1\n      dup2\n      0x00\n      dup3\n      add\n      sload\n      dup2\n      mstore\n      0x20\n      add\n      0x01\n      dup3\n      add\n      sload\n      dup2\n      mstore\n      0x20\n      add\n      0x02\n      dup3\n      add\n      0x00\n      swap1\n      sload\n      swap1\n      0x0100\n      exp\n      swap1\n      div\n      0xffffffffffffffffffffffffffffffffffffffff\n      and\n      0xffffffffffffffffffffffffffffffffffffffff\n      and\n      0xffffffffffffffffffffffffffffffffffffffff\n      and\n      dup2\n      mstore\n      0x20\n      add\n      0x03\n      dup3\n      add\n      0x00\n      swap1\n      sload\n      swap1\n      0x0100\n      exp\n      swap1\n      div\n      0xffffffffffffffffffffffffffffffffffffffff\n      and\n      0xffffffffffffffffffffffffffffffffffffffff\n      and\n      0xffffffffffffffffffffffffffffffffffffffff\n      and\n      dup2\n      mstore\n      0x20\n      add\n      0x04\n      dup3\n      add\n      0x00\n      swap1\n      sload\n      swap1\n      0x0100\n      exp\n      swap1\n      div\n      0xffffffffffffffffffffffffffffffffffffffff\n      and\n      0xffffffffffffffffffffffffffffffffffffffff\n      and\n      0xffffffffffffffffffffffffffffffffffffffff\n      and\n      dup2\n      mstore\n      0x20\n      add\n      0x04\n      dup3\n      add\n      0x14\n      swap1\n      sload\n      swap1\n      0x0100\n      exp\n      swap1\n      div\n      0xff\n      and\n      iszero\n      iszero\n      iszero\n      iszero\n      dup2\n      mstore\n      pop\n      pop\n      swap1\n      pop\n        /* \"contracts/GeekNftMarketPlace.sol\":3185:3186  0 */\n      0x00\n        /* \"contracts/GeekNftMarketPlace.sol\":3163:3187  nft.owner  != address(0) */\n      0xffffffffffffffffffffffffffffffffffffffff\n      and\n        /* \"contracts/GeekNftMarketPlace.sol\":3163:3166  nft */\n      dup2\n        /* \"contracts/GeekNftMarketPlace.sol\":3163:3172  nft.owner */\n      0x60\n      add\n      mload\n        /* \"contracts/GeekNftMarketPlace.sol\":3163:3187  nft.owner  != address(0) */\n      0xffffffffffffffffffffffffffffffffffffffff\n      and\n      eq\n      iszero\n        /* \"contracts/GeekNftMarketPlace.sol\":3155:3205  require(nft.owner  != address(0), \"NFT not found\") */\n      tag_69\n      jumpi\n      mload(0x40)\n      0x08c379a000000000000000000000000000000000000000000000000000000000\n      dup2\n      mstore\n      0x04\n      add\n      tag_70\n      swap1\n      tag_71\n      jump\t// in\n    tag_70:\n      mload(0x40)\n      dup1\n      swap2\n      sub\n      swap1\n      revert\n    tag_69:\n        /* \"contracts/GeekNftMarketPlace.sol\":3233:3245  _nftContract */\n      dup5\n        /* \"contracts/GeekNftMarketPlace.sol\":3216:3259  GeekNftInterface(_nftContract).transferFrom */\n      0xffffffffffffffffffffffffffffffffffffffff\n      and\n      0x23b872dd\n        /* \"contracts/GeekNftMarketPlace.sol\":3260:3270  msg.sender */\n      caller\n        /* \"contracts/GeekNftMarketPlace.sol\":3280:3284  this */\n      address\n        /* \"contracts/GeekNftMarketPlace.sol\":3287:3295  _tokenId */\n      dup8\n        /* \"contracts/GeekNftMarketPlace.sol\":3216:3296  GeekNftInterface(_nftContract).transferFrom(msg.sender, address(this), _tokenId) */\n      mload(0x40)\n      dup5\n      0xffffffff\n      and\n      0xe0\n      shl\n      dup2\n      mstore\n      0x04\n      add\n      tag_72\n      swap4\n      swap3\n      swap2\n      swap1\n      tag_73\n      jump\t// in\n    tag_72:\n      0x00\n      mload(0x40)\n      dup1\n      dup4\n      sub\n      dup2\n      0x00\n      dup8\n      dup1\n      extcodesize\n      iszero\n      dup1\n      iszero\n      tag_74\n      jumpi\n      0x00\n      dup1\n      revert\n    tag_74:\n      pop\n      gas\n      call\n      iszero\n      dup1\n      iszero\n      tag_76\n      jumpi\n      returndatasize\n      0x00\n      dup1\n      returndatacopy\n      revert(0x00, returndatasize)\n    tag_76:\n      pop\n      pop\n      pop\n      pop\n        /* \"contracts/GeekNftMarketPlace.sol\":3328:3338  msg.sender */\n      caller\n        /* \"contracts/GeekNftMarketPlace.sol\":3307:3310  nft */\n      dup2\n        /* \"contracts/GeekNftMarketPlace.sol\":3307:3317  nft.seller */\n      0x40\n      add\n        /* \"contracts/GeekNftMarketPlace.sol\":3307:3339  nft.seller = payable(msg.sender) */\n      swap1\n      0xffffffffffffffffffffffffffffffffffffffff\n      and\n      swap1\n      dup2\n      0xffffffffffffffffffffffffffffffffffffffff\n      and\n      dup2\n      mstore\n      pop\n      pop\n        /* \"contracts/GeekNftMarketPlace.sol\":3377:3381  this */\n      address\n        /* \"contracts/GeekNftMarketPlace.sol\":3349:3352  nft */\n      dup2\n        /* \"contracts/GeekNftMarketPlace.sol\":3349:3358  nft.owner */\n      0x60\n      add\n        /* \"contracts/GeekNftMarketPlace.sol\":3349:3383  nft.owner = payable(address(this)) */\n      swap1\n      0xffffffffffffffffffffffffffffffffffffffff\n      and\n      swap1\n      dup2\n      0xffffffffffffffffffffffffffffffffffffffff\n      and\n      dup2\n      mstore\n      pop\n      pop\n        /* \"contracts/GeekNftMarketPlace.sol\":3406:3410  true */\n      0x01\n        /* \"contracts/GeekNftMarketPlace.sol\":3393:3396  nft */\n      dup2\n        /* \"contracts/GeekNftMarketPlace.sol\":3393:3403  nft.listed */\n      0xa0\n      add\n        /* \"contracts/GeekNftMarketPlace.sol\":3393:3410  nft.listed = true */\n      swap1\n      iszero\n      iszero\n      swap1\n      dup2\n      iszero\n      iszero\n      dup2\n      mstore\n      pop\n      pop\n        /* \"contracts/GeekNftMarketPlace.sol\":3432:3438  _price */\n      dup3\n        /* \"contracts/GeekNftMarketPlace.sol\":3420:3423  nft */\n      dup2\n        /* \"contracts/GeekNftMarketPlace.sol\":3420:3429  nft.price */\n      0x20\n      add\n        /* \"contracts/GeekNftMarketPlace.sol\":3420:3438  nft.price = _price */\n      dup2\n      dup2\n      mstore\n      pop\n      pop\n        /* \"contracts/GeekNftMarketPlace.sol\":3449:3470  _nftsSold.decrement() */\n      tag_77\n        /* \"contracts/GeekNftMarketPlace.sol\":3449:3458  _nftsSold */\n      0x01\n        /* \"contracts/GeekNftMarketPlace.sol\":3449:3468  _nftsSold.decrement */\n      tag_78\n        /* \"contracts/GeekNftMarketPlace.sol\":3449:3470  _nftsSold.decrement() */\n      jump\t// in\n    tag_77:\n        /* \"contracts/GeekNftMarketPlace.sol\":3548:3552  this */\n      address\n        /* \"contracts/GeekNftMarketPlace.sol\":3494:3562  NFTListed(_nftContract, _tokenId, msg.sender, address(this), _price) */\n      0xffffffffffffffffffffffffffffffffffffffff\n      and\n        /* \"contracts/GeekNftMarketPlace.sol\":3528:3538  msg.sender */\n      caller\n        /* \"contracts/GeekNftMarketPlace.sol\":3494:3562  NFTListed(_nftContract, _tokenId, msg.sender, address(this), _price) */\n      0xffffffffffffffffffffffffffffffffffffffff\n      and\n      0xa0c6c0d02d86fdacecbaa5fdf5894bab204e31a778250474108540733a9b8d19\n        /* \"contracts/GeekNftMarketPlace.sol\":3504:3516  _nftContract */\n      dup8\n        /* \"contracts/GeekNftMarketPlace.sol\":3518:3526  _tokenId */\n      dup8\n        /* \"contracts/GeekNftMarketPlace.sol\":3555:3561  _price */\n      dup8\n        /* \"contracts/GeekNftMarketPlace.sol\":3494:3562  NFTListed(_nftContract, _tokenId, msg.sender, address(this), _price) */\n      mload(0x40)\n      tag_79\n      swap4\n      swap3\n      swap2\n      swap1\n      tag_80\n      jump\t// in\n    tag_79:\n      mload(0x40)\n      dup1\n      swap2\n      sub\n      swap1\n      log3\n        /* \"contracts/GeekNftMarketPlace.sol\":3099:3569  {... */\n      pop\n        /* \"contracts/RenntrancyGuard.sol\":403:404  _ */\n      pop\n        /* \"contracts/RenntrancyGuard.sol\":128:129  1 */\n      0x01\n        /* \"contracts/RenntrancyGuard.sol\":414:421  _status */\n      0x00\n        /* \"contracts/RenntrancyGuard.sol\":414:436  _status = _NOT_ENTERED */\n      dup2\n      swap1\n      sstore\n      pop\n        /* \"contracts/GeekNftMarketPlace.sol\":2953:3569  function resellNFT(address _nftContract, uint _tokenId, uint _price) public payable nonReentrant priceIsGreaterThanZero(_price) valueIsEqualToFees{... */\n      pop\n      pop\n      pop\n      jump\t// out\n        /* \"contracts/GeekNftMarketPlace.sol\":4904:5555  function getMyListedNfts() public view returns (NFT[] memory) {... */\n    tag_19:\n        /* \"contracts/GeekNftMarketPlace.sol\":4952:4964  NFT[] memory */\n      0x60\n        /* \"contracts/GeekNftMarketPlace.sol\":4976:4990  uint nftsCount */\n      0x00\n        /* \"contracts/GeekNftMarketPlace.sol\":4993:5013  _nftsCount.current() */\n      tag_82\n        /* \"contracts/GeekNftMarketPlace.sol\":4993:5003  _nftsCount */\n      0x02\n        /* \"contracts/GeekNftMarketPlace.sol\":4993:5011  _nftsCount.current */\n      tag_83\n        /* \"contracts/GeekNftMarketPlace.sol\":4993:5013  _nftsCount.current() */\n      jump\t// in\n    tag_82:\n        /* \"contracts/GeekNftMarketPlace.sol\":4976:5013  uint nftsCount = _nftsCount.current() */\n      swap1\n      pop\n        /* \"contracts/GeekNftMarketPlace.sol\":5023:5039  uint myNftsCount */\n      0x00\n        /* \"contracts/GeekNftMarketPlace.sol\":5058:5064  uint i */\n      dup1\n        /* \"contracts/GeekNftMarketPlace.sol\":5067:5068  1 */\n      0x01\n        /* \"contracts/GeekNftMarketPlace.sol\":5058:5068  uint i = 1 */\n      swap1\n      pop\n        /* \"contracts/GeekNftMarketPlace.sol\":5053:5221  for (uint i = 1; i <= nftsCount; i++) {... */\n    tag_84:\n        /* \"contracts/GeekNftMarketPlace.sol\":5075:5084  nftsCount */\n      dup3\n        /* \"contracts/GeekNftMarketPlace.sol\":5070:5071  i */\n      dup2\n        /* \"contracts/GeekNftMarketPlace.sol\":5070:5084  i <= nftsCount */\n      gt\n        /* \"contracts/GeekNftMarketPlace.sol\":5053:5221  for (uint i = 1; i <= nftsCount; i++) {... */\n      tag_85\n      jumpi\n        /* \"contracts/GeekNftMarketPlace.sol\":5130:5140  msg.sender */\n      caller\n        /* \"contracts/GeekNftMarketPlace.sol\":5108:5140  _idToNFT[i].seller == msg.sender */\n      0xffffffffffffffffffffffffffffffffffffffff\n      and\n        /* \"contracts/GeekNftMarketPlace.sol\":5108:5116  _idToNFT */\n      0x05\n        /* \"contracts/GeekNftMarketPlace.sol\":5108:5119  _idToNFT[i] */\n      0x00\n        /* \"contracts/GeekNftMarketPlace.sol\":5117:5118  i */\n      dup4\n        /* \"contracts/GeekNftMarketPlace.sol\":5108:5119  _idToNFT[i] */\n      dup2\n      mstore\n      0x20\n      add\n      swap1\n      dup2\n      mstore\n      0x20\n      add\n      0x00\n      keccak256\n        /* \"contracts/GeekNftMarketPlace.sol\":5108:5126  _idToNFT[i].seller */\n      0x02\n      add\n      0x00\n      swap1\n      sload\n      swap1\n      0x0100\n      exp\n      swap1\n      div\n      0xffffffffffffffffffffffffffffffffffffffff\n      and\n        /* \"contracts/GeekNftMarketPlace.sol\":5108:5140  _idToNFT[i].seller == msg.sender */\n      0xffffffffffffffffffffffffffffffffffffffff\n      and\n      eq\n        /* \"contracts/GeekNftMarketPlace.sol\":5108:5162  _idToNFT[i].seller == msg.sender && _idToNFT[i].listed */\n      dup1\n      iszero\n      tag_87\n      jumpi\n      pop\n        /* \"contracts/GeekNftMarketPlace.sol\":5144:5152  _idToNFT */\n      0x05\n        /* \"contracts/GeekNftMarketPlace.sol\":5144:5155  _idToNFT[i] */\n      0x00\n        /* \"contracts/GeekNftMarketPlace.sol\":5153:5154  i */\n      dup3\n        /* \"contracts/GeekNftMarketPlace.sol\":5144:5155  _idToNFT[i] */\n      dup2\n      mstore\n      0x20\n      add\n      swap1\n      dup2\n      mstore\n      0x20\n      add\n      0x00\n      keccak256\n        /* \"contracts/GeekNftMarketPlace.sol\":5144:5162  _idToNFT[i].listed */\n      0x04\n      add\n      0x14\n      swap1\n      sload\n      swap1\n      0x0100\n      exp\n      swap1\n      div\n      0xff\n      and\n        /* \"contracts/GeekNftMarketPlace.sol\":5108:5162  _idToNFT[i].seller == msg.sender && _idToNFT[i].listed */\n    tag_87:\n        /* \"contracts/GeekNftMarketPlace.sol\":5105:5211  if(_idToNFT[i].seller == msg.sender && _idToNFT[i].listed) {... */\n      iszero\n      tag_88\n      jumpi\n        /* \"contracts/GeekNftMarketPlace.sol\":5182:5196  myNftsCount ++ */\n      dup2\n      dup1\n      tag_89\n      swap1\n      tag_90\n      jump\t// in\n    tag_89:\n      swap3\n      pop\n      pop\n        /* \"contracts/GeekNftMarketPlace.sol\":5105:5211  if(_idToNFT[i].seller == msg.sender && _idToNFT[i].listed) {... */\n    tag_88:\n        /* \"contracts/GeekNftMarketPlace.sol\":5086:5089  i++ */\n      dup1\n      dup1\n      tag_91\n      swap1\n      tag_90\n      jump\t// in\n    tag_91:\n      swap2\n      pop\n      pop\n        /* \"contracts/GeekNftMarketPlace.sol\":5053:5221  for (uint i = 1; i <= nftsCount; i++) {... */\n      jump(tag_84)\n    tag_85:\n      pop\n        /* \"contracts/GeekNftMarketPlace.sol\":5231:5250  NFT[] memory myNfts */\n      0x00\n        /* \"contracts/GeekNftMarketPlace.sol\":5263:5274  myNftsCount */\n      dup2\n        /* \"contracts/GeekNftMarketPlace.sol\":5253:5275  new NFT[](myNftsCount) */\n      0xffffffffffffffff\n      dup2\n      gt\n      iszero\n      tag_92\n      jumpi\n      tag_93\n      tag_94\n      jump\t// in\n    tag_93:\n    tag_92:\n      mload(0x40)\n      swap1\n      dup1\n      dup3\n      mstore\n      dup1\n      0x20\n      mul\n      0x20\n      add\n      dup3\n      add\n      0x40\n      mstore\n      dup1\n      iszero\n      tag_95\n      jumpi\n      dup2\n      0x20\n      add\n    tag_96:\n      tag_97\n      tag_98\n      jump\t// in\n    tag_97:\n      dup2\n      mstore\n      0x20\n      add\n      swap1\n      0x01\n      swap1\n      sub\n      swap1\n      dup2\n      tag_96\n      jumpi\n      swap1\n      pop\n    tag_95:\n      pop\n        /* \"contracts/GeekNftMarketPlace.sol\":5231:5275  NFT[] memory myNfts = new NFT[](myNftsCount) */\n      swap1\n      pop\n        /* \"contracts/GeekNftMarketPlace.sol\":5285:5298  uint nftIndex */\n      0x00\n        /* \"contracts/GeekNftMarketPlace.sol\":5317:5323  uint i */\n      dup1\n        /* \"contracts/GeekNftMarketPlace.sol\":5326:5327  1 */\n      0x01\n        /* \"contracts/GeekNftMarketPlace.sol\":5317:5327  uint i = 1 */\n      swap1\n      pop\n        /* \"contracts/GeekNftMarketPlace.sol\":5312:5525  for (uint i = 1; i <= nftsCount; i++) {... */\n    tag_99:\n        /* \"contracts/GeekNftMarketPlace.sol\":5334:5343  nftsCount */\n      dup5\n        /* \"contracts/GeekNftMarketPlace.sol\":5329:5330  i */\n      dup2\n        /* \"contracts/GeekNftMarketPlace.sol\":5329:5343  i <= nftsCount */\n      gt\n        /* \"contracts/GeekNftMarketPlace.sol\":5312:5525  for (uint i = 1; i <= nftsCount; i++) {... */\n      tag_100\n      jumpi\n        /* \"contracts/GeekNftMarketPlace.sol\":5389:5399  msg.sender */\n      caller\n        /* \"contracts/GeekNftMarketPlace.sol\":5367:5399  _idToNFT[i].seller == msg.sender */\n      0xffffffffffffffffffffffffffffffffffffffff\n      and\n        /* \"contracts/GeekNftMarketPlace.sol\":5367:5375  _idToNFT */\n      0x05\n        /* \"contracts/GeekNftMarketPlace.sol\":5367:5378  _idToNFT[i] */\n      0x00\n        /* \"contracts/GeekNftMarketPlace.sol\":5376:5377  i */\n      dup4\n        /* \"contracts/GeekNftMarketPlace.sol\":5367:5378  _idToNFT[i] */\n      dup2\n      mstore\n      0x20\n      add\n      swap1\n      dup2\n      mstore\n      0x20\n      add\n      0x00\n      keccak256\n        /* \"contracts/GeekNftMarketPlace.sol\":5367:5385  _idToNFT[i].seller */\n      0x02\n      add\n      0x00\n      swap1\n      sload\n      swap1\n      0x0100\n      exp\n      swap1\n      div\n      0xffffffffffffffffffffffffffffffffffffffff\n      and\n        /* \"contracts/GeekNftMarketPlace.sol\":5367:5399  _idToNFT[i].seller == msg.sender */\n      0xffffffffffffffffffffffffffffffffffffffff\n      and\n      eq\n        /* \"contracts/GeekNftMarketPlace.sol\":5367:5421  _idToNFT[i].seller == msg.sender && _idToNFT[i].listed */\n      dup1\n      iszero\n      tag_102\n      jumpi\n      pop\n        /* \"contracts/GeekNftMarketPlace.sol\":5403:5411  _idToNFT */\n      0x05\n        /* \"contracts/GeekNftMarketPlace.sol\":5403:5414  _idToNFT[i] */\n      0x00\n        /* \"contracts/GeekNftMarketPlace.sol\":5412:5413  i */\n      dup3\n        /* \"contracts/GeekNftMarketPlace.sol\":5403:5414  _idToNFT[i] */\n      dup2\n      mstore\n      0x20\n      add\n      swap1\n      dup2\n      mstore\n      0x20\n      add\n      0x00\n      keccak256\n        /* \"contracts/GeekNftMarketPlace.sol\":5403:5421  _idToNFT[i].listed */\n      0x04\n      add\n      0x14\n      swap1\n      sload\n      swap1\n      0x0100\n      exp\n      swap1\n      div\n      0xff\n      and\n        /* \"contracts/GeekNftMarketPlace.sol\":5367:5421  _idToNFT[i].seller == msg.sender && _idToNFT[i].listed */\n    tag_102:\n        /* \"contracts/GeekNftMarketPlace.sol\":5364:5515  if(_idToNFT[i].seller == msg.sender && _idToNFT[i].listed) {... */\n      iszero\n      tag_103\n      jumpi\n        /* \"contracts/GeekNftMarketPlace.sol\":5460:5468  _idToNFT */\n      0x05\n        /* \"contracts/GeekNftMarketPlace.sol\":5460:5471  _idToNFT[i] */\n      0x00\n        /* \"contracts/GeekNftMarketPlace.sol\":5469:5470  i */\n      dup3\n        /* \"contracts/GeekNftMarketPlace.sol\":5460:5471  _idToNFT[i] */\n      dup2\n      mstore\n      0x20\n      add\n      swap1\n      dup2\n      mstore\n      0x20\n      add\n      0x00\n      keccak256\n        /* \"contracts/GeekNftMarketPlace.sol\":5441:5471  myNfts[nftIndex] = _idToNFT[i] */\n      mload(0x40)\n      dup1\n      0xc0\n      add\n      0x40\n      mstore\n      swap1\n      dup2\n      0x00\n      dup3\n      add\n      sload\n      dup2\n      mstore\n      0x20\n      add\n      0x01\n      dup3\n      add\n      sload\n      dup2\n      mstore\n      0x20\n      add\n      0x02\n      dup3\n      add\n      0x00\n      swap1\n      sload\n      swap1\n      0x0100\n      exp\n      swap1\n      div\n      0xffffffffffffffffffffffffffffffffffffffff\n      and\n      0xffffffffffffffffffffffffffffffffffffffff\n      and\n      0xffffffffffffffffffffffffffffffffffffffff\n      and\n      dup2\n      mstore\n      0x20\n      add\n      0x03\n      dup3\n      add\n      0x00\n      swap1\n      sload\n      swap1\n      0x0100\n      exp\n      swap1\n      div\n      0xffffffffffffffffffffffffffffffffffffffff\n      and\n      0xffffffffffffffffffffffffffffffffffffffff\n      and\n      0xffffffffffffffffffffffffffffffffffffffff\n      and\n      dup2\n      mstore\n      0x20\n      add\n      0x04\n      dup3\n      add\n      0x00\n      swap1\n      sload\n      swap1\n      0x0100\n      exp\n      swap1\n      div\n      0xffffffffffffffffffffffffffffffffffffffff\n      and\n      0xffffffffffffffffffffffffffffffffffffffff\n      and\n      0xffffffffffffffffffffffffffffffffffffffff\n      and\n      dup2\n      mstore\n      0x20\n      add\n      0x04\n      dup3\n      add\n      0x14\n      swap1\n      sload\n      swap1\n      0x0100\n      exp\n      swap1\n      div\n      0xff\n      and\n      iszero\n      iszero\n      iszero\n      iszero\n      dup2\n      mstore\n      pop\n      pop\n        /* \"contracts/GeekNftMarketPlace.sol\":5441:5447  myNfts */\n      dup4\n        /* \"contracts/GeekNftMarketPlace.sol\":5448:5456  nftIndex */\n      dup4\n        /* \"contracts/GeekNftMarketPlace.sol\":5441:5457  myNfts[nftIndex] */\n      dup2\n      mload\n      dup2\n      lt\n      tag_104\n      jumpi\n      tag_105\n      tag_106\n      jump\t// in\n    tag_105:\n    tag_104:\n      0x20\n      mul\n      0x20\n      add\n      add\n        /* \"contracts/GeekNftMarketPlace.sol\":5441:5471  myNfts[nftIndex] = _idToNFT[i] */\n      dup2\n      swap1\n      mstore\n      pop\n        /* \"contracts/GeekNftMarketPlace.sol\":5489:5500  nftIndex ++ */\n      dup2\n      dup1\n      tag_107\n      swap1\n      tag_90\n      jump\t// in\n    tag_107:\n      swap3\n      pop\n      pop\n        /* \"contracts/GeekNftMarketPlace.sol\":5364:5515  if(_idToNFT[i].seller == msg.sender && _idToNFT[i].listed) {... */\n    tag_103:\n        /* \"contracts/GeekNftMarketPlace.sol\":5345:5348  i++ */\n      dup1\n      dup1\n      tag_108\n      swap1\n      tag_90\n      jump\t// in\n    tag_108:\n      swap2\n      pop\n      pop\n        /* \"contracts/GeekNftMarketPlace.sol\":5312:5525  for (uint i = 1; i <= nftsCount; i++) {... */\n      jump(tag_99)\n    tag_100:\n      pop\n        /* \"contracts/GeekNftMarketPlace.sol\":5542:5548  myNfts */\n      dup2\n        /* \"contracts/GeekNftMarketPlace.sol\":5535:5548  return myNfts */\n      swap5\n      pop\n      pop\n      pop\n      pop\n      pop\n        /* \"contracts/GeekNftMarketPlace.sol\":4904:5555  function getMyListedNfts() public view returns (NFT[] memory) {... */\n      swap1\n      jump\t// out\n        /* \"contracts/GeekNftMarketPlace.sol\":474:511  uint public LISTING_FEE = 0.002 ether */\n    tag_24:\n      sload(0x03)\n      dup2\n      jump\t// out\n        /* \"contracts/GeekNftMarketPlace.sol\":1444:1600  function getOwner(address _nftContract, uint _tokenId) public view returns (address){... */\n    tag_31:\n        /* \"contracts/GeekNftMarketPlace.sol\":1520:1527  address */\n      0x00\n        /* \"contracts/GeekNftMarketPlace.sol\":1562:1574  _nftContract */\n      dup3\n        /* \"contracts/GeekNftMarketPlace.sol\":1545:1583  GeekNftInterface(_nftContract).ownerOf */\n      0xffffffffffffffffffffffffffffffffffffffff\n      and\n      0x6352211e\n        /* \"contracts/GeekNftMarketPlace.sol\":1584:1592  _tokenId */\n      dup4\n        /* \"contracts/GeekNftMarketPlace.sol\":1545:1593  GeekNftInterface(_nftContract).ownerOf(_tokenId) */\n      mload(0x40)\n      dup3\n      0xffffffff\n      and\n      0xe0\n      shl\n      dup2\n      mstore\n      0x04\n      add\n      tag_110\n      swap2\n      swap1\n      tag_26\n      jump\t// in\n    tag_110:\n      0x20\n      mload(0x40)\n      dup1\n      dup4\n      sub\n      dup2\n      dup7\n      dup1\n      extcodesize\n      iszero\n      dup1\n      iszero\n      tag_111\n      jumpi\n      0x00\n      dup1\n      revert\n    tag_111:\n      pop\n      gas\n      staticcall\n      iszero\n      dup1\n      iszero\n      tag_113\n      jumpi\n      returndatasize\n      0x00\n      dup1\n      returndatacopy\n      revert(0x00, returndatasize)\n    tag_113:\n      pop\n      pop\n      pop\n      pop\n      mload(0x40)\n      returndatasize\n      not(0x1f)\n      0x1f\n      dup3\n      add\n      and\n      dup3\n      add\n      dup1\n      0x40\n      mstore\n      pop\n      dup2\n      add\n      swap1\n      tag_114\n      swap2\n      swap1\n      tag_115\n      jump\t// in\n    tag_114:\n        /* \"contracts/GeekNftMarketPlace.sol\":1538:1593  return GeekNftInterface(_nftContract).ownerOf(_tokenId) */\n      swap1\n      pop\n        /* \"contracts/GeekNftMarketPlace.sol\":1444:1600  function getOwner(address _nftContract, uint _tokenId) public view returns (address){... */\n      swap3\n      swap2\n      pop\n      pop\n      jump\t// out\n        /* \"contracts/GeekNftMarketPlace.sol\":2278:2898  function buyNft(address _nftContract, uint _tokenId) public payable nonReentrant{... */\n    tag_36:\n        /* \"contracts/RenntrancyGuard.sol\":171:172  2 */\n      0x02\n        /* \"contracts/RenntrancyGuard.sol\":310:317  _status */\n      sload(0x00)\n        /* \"contracts/RenntrancyGuard.sol\":310:329  _status != _ENTERED */\n      eq\n      iszero\n        /* \"contracts/RenntrancyGuard.sol\":302:365  require(_status != _ENTERED, \"ReentrancyGuard: reentrant call\") */\n      tag_117\n      jumpi\n      mload(0x40)\n      0x08c379a000000000000000000000000000000000000000000000000000000000\n      dup2\n      mstore\n      0x04\n      add\n      tag_118\n      swap1\n      tag_59\n      jump\t// in\n    tag_118:\n      mload(0x40)\n      dup1\n      swap2\n      sub\n      swap1\n      revert\n    tag_117:\n        /* \"contracts/RenntrancyGuard.sol\":171:172  2 */\n      0x02\n        /* \"contracts/RenntrancyGuard.sol\":375:382  _status */\n      0x00\n        /* \"contracts/RenntrancyGuard.sol\":375:393  _status = _ENTERED */\n      dup2\n      swap1\n      sstore\n      pop\n        /* \"contracts/GeekNftMarketPlace.sol\":2368:2382  NFT memory nft */\n      0x00\n        /* \"contracts/GeekNftMarketPlace.sol\":2385:2393  _idToNFT */\n      0x05\n        /* \"contracts/GeekNftMarketPlace.sol\":2385:2403  _idToNFT[_tokenId] */\n      0x00\n        /* \"contracts/GeekNftMarketPlace.sol\":2394:2402  _tokenId */\n      dup4\n        /* \"contracts/GeekNftMarketPlace.sol\":2385:2403  _idToNFT[_tokenId] */\n      dup2\n      mstore\n      0x20\n      add\n      swap1\n      dup2\n      mstore\n      0x20\n      add\n      0x00\n      keccak256\n        /* \"contracts/GeekNftMarketPlace.sol\":2368:2403  NFT memory nft = _idToNFT[_tokenId] */\n      mload(0x40)\n      dup1\n      0xc0\n      add\n      0x40\n      mstore\n      swap1\n      dup2\n      0x00\n      dup3\n      add\n      sload\n      dup2\n      mstore\n      0x20\n      add\n      0x01\n      dup3\n      add\n      sload\n      dup2\n      mstore\n      0x20\n      add\n      0x02\n      dup3\n      add\n      0x00\n      swap1\n      sload\n      swap1\n      0x0100\n      exp\n      swap1\n      div\n      0xffffffffffffffffffffffffffffffffffffffff\n      and\n      0xffffffffffffffffffffffffffffffffffffffff\n      and\n      0xffffffffffffffffffffffffffffffffffffffff\n      and\n      dup2\n      mstore\n      0x20\n      add\n      0x03\n      dup3\n      add\n      0x00\n      swap1\n      sload\n      swap1\n      0x0100\n      exp\n      swap1\n      div\n      0xffffffffffffffffffffffffffffffffffffffff\n      and\n      0xffffffffffffffffffffffffffffffffffffffff\n      and\n      0xffffffffffffffffffffffffffffffffffffffff\n      and\n      dup2\n      mstore\n      0x20\n      add\n      0x04\n      dup3\n      add\n      0x00\n      swap1\n      sload\n      swap1\n      0x0100\n      exp\n      swap1\n      div\n      0xffffffffffffffffffffffffffffffffffffffff\n      and\n      0xffffffffffffffffffffffffffffffffffffffff\n      and\n      0xffffffffffffffffffffffffffffffffffffffff\n      and\n      dup2\n      mstore\n      0x20\n      add\n      0x04\n      dup3\n      add\n      0x14\n      swap1\n      sload\n      swap1\n      0x0100\n      exp\n      swap1\n      div\n      0xff\n      and\n      iszero\n      iszero\n      iszero\n      iszero\n      dup2\n      mstore\n      pop\n      pop\n      swap1\n      pop\n        /* \"contracts/GeekNftMarketPlace.sol\":2444:2445  0 */\n      0x00\n        /* \"contracts/GeekNftMarketPlace.sol\":2422:2446  nft.owner  != address(0) */\n      0xffffffffffffffffffffffffffffffffffffffff\n      and\n        /* \"contracts/GeekNftMarketPlace.sol\":2422:2425  nft */\n      dup2\n        /* \"contracts/GeekNftMarketPlace.sol\":2422:2431  nft.owner */\n      0x60\n      add\n      mload\n        /* \"contracts/GeekNftMarketPlace.sol\":2422:2446  nft.owner  != address(0) */\n      0xffffffffffffffffffffffffffffffffffffffff\n      and\n      eq\n      iszero\n        /* \"contracts/GeekNftMarketPlace.sol\":2414:2464  require(nft.owner  != address(0), \"NFT not found\") */\n      tag_120\n      jumpi\n      mload(0x40)\n      0x08c379a000000000000000000000000000000000000000000000000000000000\n      dup2\n      mstore\n      0x04\n      add\n      tag_121\n      swap1\n      tag_71\n      jump\t// in\n    tag_121:\n      mload(0x40)\n      dup1\n      swap2\n      sub\n      swap1\n      revert\n    tag_120:\n        /* \"contracts/GeekNftMarketPlace.sol\":2495:2498  nft */\n      dup1\n        /* \"contracts/GeekNftMarketPlace.sol\":2495:2504  nft.price */\n      0x20\n      add\n      mload\n        /* \"contracts/GeekNftMarketPlace.sol\":2482:2491  msg.value */\n      callvalue\n        /* \"contracts/GeekNftMarketPlace.sol\":2482:2504  msg.value >= nft.price */\n      lt\n      iszero\n        /* \"contracts/GeekNftMarketPlace.sol\":2474:2547  require(msg.value >= nft.price, \"Not enough ether to cover asking price\") */\n      tag_122\n      jumpi\n      mload(0x40)\n      0x08c379a000000000000000000000000000000000000000000000000000000000\n      dup2\n      mstore\n      0x04\n      add\n      tag_123\n      swap1\n      tag_124\n      jump\t// in\n    tag_123:\n      mload(0x40)\n      dup1\n      swap2\n      sub\n      swap1\n      revert\n    tag_122:\n        /* \"contracts/GeekNftMarketPlace.sol\":2558:2579  address payable buyer */\n      0x00\n        /* \"contracts/GeekNftMarketPlace.sol\":2590:2600  msg.sender */\n      caller\n        /* \"contracts/GeekNftMarketPlace.sol\":2558:2601  address payable buyer = payable(msg.sender) */\n      swap1\n      pop\n        /* \"contracts/GeekNftMarketPlace.sol\":2611:2614  nft */\n      dup2\n        /* \"contracts/GeekNftMarketPlace.sol\":2611:2621  nft.seller */\n      0x40\n      add\n      mload\n        /* \"contracts/GeekNftMarketPlace.sol\":2611:2630  nft.seller.transfer */\n      0xffffffffffffffffffffffffffffffffffffffff\n      and\n        /* \"contracts/GeekNftMarketPlace.sol\":2611:2641  nft.seller.transfer(msg.value) */\n      0x08fc\n        /* \"contracts/GeekNftMarketPlace.sol\":2631:2640  msg.value */\n      callvalue\n        /* \"contracts/GeekNftMarketPlace.sol\":2611:2641  nft.seller.transfer(msg.value) */\n      swap1\n      dup2\n      iszero\n      mul\n      swap1\n      mload(0x40)\n      0x00\n      mload(0x40)\n      dup1\n      dup4\n      sub\n      dup2\n      dup6\n      dup9\n      dup9\n      call\n      swap4\n      pop\n      pop\n      pop\n      pop\n      iszero\n      dup1\n      iszero\n      tag_126\n      jumpi\n      returndatasize\n      0x00\n      dup1\n      returndatacopy\n      revert(0x00, returndatasize)\n    tag_126:\n      pop\n        /* \"contracts/GeekNftMarketPlace.sol\":2669:2681  _nftContract */\n      dup4\n        /* \"contracts/GeekNftMarketPlace.sol\":2652:2695  GeekNftInterface(_nftContract).transferFrom */\n      0xffffffffffffffffffffffffffffffffffffffff\n      and\n      0x23b872dd\n        /* \"contracts/GeekNftMarketPlace.sol\":2704:2708  this */\n      address\n        /* \"contracts/GeekNftMarketPlace.sol\":2711:2716  buyer */\n      dup4\n        /* \"contracts/GeekNftMarketPlace.sol\":2718:2726  _tokenId */\n      dup7\n        /* \"contracts/GeekNftMarketPlace.sol\":2652:2727  GeekNftInterface(_nftContract).transferFrom(address(this), buyer, _tokenId) */\n      mload(0x40)\n      dup5\n      0xffffffff\n      and\n      0xe0\n      shl\n      dup2\n      mstore\n      0x04\n      add\n      tag_127\n      swap4\n      swap3\n      swap2\n      swap1\n      tag_128\n      jump\t// in\n    tag_127:\n      0x00\n      mload(0x40)\n      dup1\n      dup4\n      sub\n      dup2\n      0x00\n      dup8\n      dup1\n      extcodesize\n      iszero\n      dup1\n      iszero\n      tag_129\n      jumpi\n      0x00\n      dup1\n      revert\n    tag_129:\n      pop\n      gas\n      call\n      iszero\n      dup1\n      iszero\n      tag_131\n      jumpi\n      returndatasize\n      0x00\n      dup1\n      returndatacopy\n      revert(0x00, returndatasize)\n    tag_131:\n      pop\n      pop\n      pop\n      pop\n        /* \"contracts/GeekNftMarketPlace.sol\":2749:2754  buyer */\n      dup1\n        /* \"contracts/GeekNftMarketPlace.sol\":2737:2740  nft */\n      dup3\n        /* \"contracts/GeekNftMarketPlace.sol\":2737:2746  nft.owner */\n      0x60\n      add\n        /* \"contracts/GeekNftMarketPlace.sol\":2737:2754  nft.owner = buyer */\n      swap1\n      0xffffffffffffffffffffffffffffffffffffffff\n      and\n      swap1\n      dup2\n      0xffffffffffffffffffffffffffffffffffffffff\n      and\n      dup2\n      mstore\n      pop\n      pop\n        /* \"contracts/GeekNftMarketPlace.sol\":2777:2782  false */\n      0x00\n        /* \"contracts/GeekNftMarketPlace.sol\":2764:2767  nft */\n      dup3\n        /* \"contracts/GeekNftMarketPlace.sol\":2764:2774  nft.listed */\n      0xa0\n      add\n        /* \"contracts/GeekNftMarketPlace.sol\":2764:2782  nft.listed = false */\n      swap1\n      iszero\n      iszero\n      swap1\n      dup2\n      iszero\n      iszero\n      dup2\n      mstore\n      pop\n      pop\n        /* \"contracts/GeekNftMarketPlace.sol\":2793:2814  _nftsSold.increment() */\n      tag_132\n        /* \"contracts/GeekNftMarketPlace.sol\":2793:2802  _nftsSold */\n      0x01\n        /* \"contracts/GeekNftMarketPlace.sol\":2793:2812  _nftsSold.increment */\n      tag_133\n        /* \"contracts/GeekNftMarketPlace.sol\":2793:2814  _nftsSold.increment() */\n      jump\t// in\n    tag_132:\n        /* \"contracts/GeekNftMarketPlace.sol\":2874:2879  buyer */\n      dup1\n        /* \"contracts/GeekNftMarketPlace.sol\":2830:2891  NFTSold(_nftContract, _tokenId, nft.seller, buyer, msg.value) */\n      0xffffffffffffffffffffffffffffffffffffffff\n      and\n        /* \"contracts/GeekNftMarketPlace.sol\":2862:2865  nft */\n      dup3\n        /* \"contracts/GeekNftMarketPlace.sol\":2862:2872  nft.seller */\n      0x40\n      add\n      mload\n        /* \"contracts/GeekNftMarketPlace.sol\":2830:2891  NFTSold(_nftContract, _tokenId, nft.seller, buyer, msg.value) */\n      0xffffffffffffffffffffffffffffffffffffffff\n      and\n      0x16f1dbd97e6bf646d429ed186cce832f1f7fd9907814293b83181e9970ab7bd2\n        /* \"contracts/GeekNftMarketPlace.sol\":2838:2850  _nftContract */\n      dup7\n        /* \"contracts/GeekNftMarketPlace.sol\":2852:2860  _tokenId */\n      dup7\n        /* \"contracts/GeekNftMarketPlace.sol\":2881:2890  msg.value */\n      callvalue\n        /* \"contracts/GeekNftMarketPlace.sol\":2830:2891  NFTSold(_nftContract, _tokenId, nft.seller, buyer, msg.value) */\n      mload(0x40)\n      tag_134\n      swap4\n      swap3\n      swap2\n      swap1\n      tag_80\n      jump\t// in\n    tag_134:\n      mload(0x40)\n      dup1\n      swap2\n      sub\n      swap1\n      log3\n        /* \"contracts/GeekNftMarketPlace.sol\":2358:2898  {... */\n      pop\n      pop\n        /* \"contracts/RenntrancyGuard.sol\":128:129  1 */\n      0x01\n        /* \"contracts/RenntrancyGuard.sol\":414:421  _status */\n      0x00\n        /* \"contracts/RenntrancyGuard.sol\":414:436  _status = _NOT_ENTERED */\n      dup2\n      swap1\n      sstore\n      pop\n        /* \"contracts/GeekNftMarketPlace.sol\":2278:2898  function buyNft(address _nftContract, uint _tokenId) public payable nonReentrant{... */\n      pop\n      pop\n      jump\t// out\n        /* \"contracts/GeekNftMarketPlace.sol\":4253:4863  function getMyCreatedNfts() public view returns (NFT[] memory) {... */\n    tag_39:\n        /* \"contracts/GeekNftMarketPlace.sol\":4302:4314  NFT[] memory */\n      0x60\n        /* \"contracts/GeekNftMarketPlace.sol\":4326:4340  uint nftsCount */\n      0x00\n        /* \"contracts/GeekNftMarketPlace.sol\":4343:4363  _nftsCount.current() */\n      tag_136\n        /* \"contracts/GeekNftMarketPlace.sol\":4343:4353  _nftsCount */\n      0x02\n        /* \"contracts/GeekNftMarketPlace.sol\":4343:4361  _nftsCount.current */\n      tag_83\n        /* \"contracts/GeekNftMarketPlace.sol\":4343:4363  _nftsCount.current() */\n      jump\t// in\n    tag_136:\n        /* \"contracts/GeekNftMarketPlace.sol\":4326:4363  uint nftsCount = _nftsCount.current() */\n      swap1\n      pop\n        /* \"contracts/GeekNftMarketPlace.sol\":4373:4389  uint myNftsCount */\n      0x00\n        /* \"contracts/GeekNftMarketPlace.sol\":4408:4414  uint i */\n      dup1\n        /* \"contracts/GeekNftMarketPlace.sol\":4417:4418  1 */\n      0x01\n        /* \"contracts/GeekNftMarketPlace.sol\":4408:4418  uint i = 1 */\n      swap1\n      pop\n        /* \"contracts/GeekNftMarketPlace.sol\":4403:4550  for (uint i = 1; i <= nftsCount; i++) {... */\n    tag_137:\n        /* \"contracts/GeekNftMarketPlace.sol\":4425:4434  nftsCount */\n      dup3\n        /* \"contracts/GeekNftMarketPlace.sol\":4420:4421  i */\n      dup2\n        /* \"contracts/GeekNftMarketPlace.sol\":4420:4434  i <= nftsCount */\n      gt\n        /* \"contracts/GeekNftMarketPlace.sol\":4403:4550  for (uint i = 1; i <= nftsCount; i++) {... */\n      tag_138\n      jumpi\n        /* \"contracts/GeekNftMarketPlace.sol\":4481:4491  msg.sender */\n      caller\n        /* \"contracts/GeekNftMarketPlace.sol\":4458:4491  _idToNFT[i].creator == msg.sender */\n      0xffffffffffffffffffffffffffffffffffffffff\n      and\n        /* \"contracts/GeekNftMarketPlace.sol\":4458:4466  _idToNFT */\n      0x05\n        /* \"contracts/GeekNftMarketPlace.sol\":4458:4469  _idToNFT[i] */\n      0x00\n        /* \"contracts/GeekNftMarketPlace.sol\":4467:4468  i */\n      dup4\n        /* \"contracts/GeekNftMarketPlace.sol\":4458:4469  _idToNFT[i] */\n      dup2\n      mstore\n      0x20\n      add\n      swap1\n      dup2\n      mstore\n      0x20\n      add\n      0x00\n      keccak256\n        /* \"contracts/GeekNftMarketPlace.sol\":4458:4477  _idToNFT[i].creator */\n      0x04\n      add\n      0x00\n      swap1\n      sload\n      swap1\n      0x0100\n      exp\n      swap1\n      div\n      0xffffffffffffffffffffffffffffffffffffffff\n      and\n        /* \"contracts/GeekNftMarketPlace.sol\":4458:4491  _idToNFT[i].creator == msg.sender */\n      0xffffffffffffffffffffffffffffffffffffffff\n      and\n      eq\n        /* \"contracts/GeekNftMarketPlace.sol\":4455:4540  if(_idToNFT[i].creator == msg.sender) {... */\n      iszero\n      tag_140\n      jumpi\n        /* \"contracts/GeekNftMarketPlace.sol\":4511:4525  myNftsCount ++ */\n      dup2\n      dup1\n      tag_141\n      swap1\n      tag_90\n      jump\t// in\n    tag_141:\n      swap3\n      pop\n      pop\n        /* \"contracts/GeekNftMarketPlace.sol\":4455:4540  if(_idToNFT[i].creator == msg.sender) {... */\n    tag_140:\n        /* \"contracts/GeekNftMarketPlace.sol\":4436:4439  i++ */\n      dup1\n      dup1\n      tag_142\n      swap1\n      tag_90\n      jump\t// in\n    tag_142:\n      swap2\n      pop\n      pop\n        /* \"contracts/GeekNftMarketPlace.sol\":4403:4550  for (uint i = 1; i <= nftsCount; i++) {... */\n      jump(tag_137)\n    tag_138:\n      pop\n        /* \"contracts/GeekNftMarketPlace.sol\":4560:4579  NFT[] memory myNfts */\n      0x00\n        /* \"contracts/GeekNftMarketPlace.sol\":4592:4603  myNftsCount */\n      dup2\n        /* \"contracts/GeekNftMarketPlace.sol\":4582:4604  new NFT[](myNftsCount) */\n      0xffffffffffffffff\n      dup2\n      gt\n      iszero\n      tag_143\n      jumpi\n      tag_144\n      tag_94\n      jump\t// in\n    tag_144:\n    tag_143:\n      mload(0x40)\n      swap1\n      dup1\n      dup3\n      mstore\n      dup1\n      0x20\n      mul\n      0x20\n      add\n      dup3\n      add\n      0x40\n      mstore\n      dup1\n      iszero\n      tag_145\n      jumpi\n      dup2\n      0x20\n      add\n    tag_146:\n      tag_147\n      tag_98\n      jump\t// in\n    tag_147:\n      dup2\n      mstore\n      0x20\n      add\n      swap1\n      0x01\n      swap1\n      sub\n      swap1\n      dup2\n      tag_146\n      jumpi\n      swap1\n      pop\n    tag_145:\n      pop\n        /* \"contracts/GeekNftMarketPlace.sol\":4560:4604  NFT[] memory myNfts = new NFT[](myNftsCount) */\n      swap1\n      pop\n        /* \"contracts/GeekNftMarketPlace.sol\":4614:4627  uint nftIndex */\n      0x00\n        /* \"contracts/GeekNftMarketPlace.sol\":4646:4652  uint i */\n      dup1\n        /* \"contracts/GeekNftMarketPlace.sol\":4655:4656  1 */\n      0x01\n        /* \"contracts/GeekNftMarketPlace.sol\":4646:4656  uint i = 1 */\n      swap1\n      pop\n        /* \"contracts/GeekNftMarketPlace.sol\":4641:4833  for (uint i = 1; i <= nftsCount; i++) {... */\n    tag_148:\n        /* \"contracts/GeekNftMarketPlace.sol\":4663:4672  nftsCount */\n      dup5\n        /* \"contracts/GeekNftMarketPlace.sol\":4658:4659  i */\n      dup2\n        /* \"contracts/GeekNftMarketPlace.sol\":4658:4672  i <= nftsCount */\n      gt\n        /* \"contracts/GeekNftMarketPlace.sol\":4641:4833  for (uint i = 1; i <= nftsCount; i++) {... */\n      tag_149\n      jumpi\n        /* \"contracts/GeekNftMarketPlace.sol\":4719:4729  msg.sender */\n      caller\n        /* \"contracts/GeekNftMarketPlace.sol\":4696:4729  _idToNFT[i].creator == msg.sender */\n      0xffffffffffffffffffffffffffffffffffffffff\n      and\n        /* \"contracts/GeekNftMarketPlace.sol\":4696:4704  _idToNFT */\n      0x05\n        /* \"contracts/GeekNftMarketPlace.sol\":4696:4707  _idToNFT[i] */\n      0x00\n        /* \"contracts/GeekNftMarketPlace.sol\":4705:4706  i */\n      dup4\n        /* \"contracts/GeekNftMarketPlace.sol\":4696:4707  _idToNFT[i] */\n      dup2\n      mstore\n      0x20\n      add\n      swap1\n      dup2\n      mstore\n      0x20\n      add\n      0x00\n      keccak256\n        /* \"contracts/GeekNftMarketPlace.sol\":4696:4715  _idToNFT[i].creator */\n      0x04\n      add\n      0x00\n      swap1\n      sload\n      swap1\n      0x0100\n      exp\n      swap1\n      div\n      0xffffffffffffffffffffffffffffffffffffffff\n      and\n        /* \"contracts/GeekNftMarketPlace.sol\":4696:4729  _idToNFT[i].creator == msg.sender */\n      0xffffffffffffffffffffffffffffffffffffffff\n      and\n      eq\n        /* \"contracts/GeekNftMarketPlace.sol\":4693:4823  if(_idToNFT[i].creator == msg.sender) {... */\n      iszero\n      tag_151\n      jumpi\n        /* \"contracts/GeekNftMarketPlace.sol\":4768:4776  _idToNFT */\n      0x05\n        /* \"contracts/GeekNftMarketPlace.sol\":4768:4779  _idToNFT[i] */\n      0x00\n        /* \"contracts/GeekNftMarketPlace.sol\":4777:4778  i */\n      dup3\n        /* \"contracts/GeekNftMarketPlace.sol\":4768:4779  _idToNFT[i] */\n      dup2\n      mstore\n      0x20\n      add\n      swap1\n      dup2\n      mstore\n      0x20\n      add\n      0x00\n      keccak256\n        /* \"contracts/GeekNftMarketPlace.sol\":4749:4779  myNfts[nftIndex] = _idToNFT[i] */\n      mload(0x40)\n      dup1\n      0xc0\n      add\n      0x40\n      mstore\n      swap1\n      dup2\n      0x00\n      dup3\n      add\n      sload\n      dup2\n      mstore\n      0x20\n      add\n      0x01\n      dup3\n      add\n      sload\n      dup2\n      mstore\n      0x20\n      add\n      0x02\n      dup3\n      add\n      0x00\n      swap1\n      sload\n      swap1\n      0x0100\n      exp\n      swap1\n      div\n      0xffffffffffffffffffffffffffffffffffffffff\n      and\n      0xffffffffffffffffffffffffffffffffffffffff\n      and\n      0xffffffffffffffffffffffffffffffffffffffff\n      and\n      dup2\n      mstore\n      0x20\n      add\n      0x03\n      dup3\n      add\n      0x00\n      swap1\n      sload\n      swap1\n      0x0100\n      exp\n      swap1\n      div\n      0xffffffffffffffffffffffffffffffffffffffff\n      and\n      0xffffffffffffffffffffffffffffffffffffffff\n      and\n      0xffffffffffffffffffffffffffffffffffffffff\n      and\n      dup2\n      mstore\n      0x20\n      add\n      0x04\n      dup3\n      add\n      0x00\n      swap1\n      sload\n      swap1\n      0x0100\n      exp\n      swap1\n      div\n      0xffffffffffffffffffffffffffffffffffffffff\n      and\n      0xffffffffffffffffffffffffffffffffffffffff\n      and\n      0xffffffffffffffffffffffffffffffffffffffff\n      and\n      dup2\n      mstore\n      0x20\n      add\n      0x04\n      dup3\n      add\n      0x14\n      swap1\n      sload\n      swap1\n      0x0100\n      exp\n      swap1\n      div\n      0xff\n      and\n      iszero\n      iszero\n      iszero\n      iszero\n      dup2\n      mstore\n      pop\n      pop\n        /* \"contracts/GeekNftMarketPlace.sol\":4749:4755  myNfts */\n      dup4\n        /* \"contracts/GeekNftMarketPlace.sol\":4756:4764  nftIndex */\n      dup4\n        /* \"contracts/GeekNftMarketPlace.sol\":4749:4765  myNfts[nftIndex] */\n      dup2\n      mload\n      dup2\n      lt\n      tag_152\n      jumpi\n      tag_153\n      tag_106\n      jump\t// in\n    tag_153:\n    tag_152:\n      0x20\n      mul\n      0x20\n      add\n      add\n        /* \"contracts/GeekNftMarketPlace.sol\":4749:4779  myNfts[nftIndex] = _idToNFT[i] */\n      dup2\n      swap1\n      mstore\n      pop\n        /* \"contracts/GeekNftMarketPlace.sol\":4797:4808  nftIndex ++ */\n      dup2\n      dup1\n      tag_154\n      swap1\n      tag_90\n      jump\t// in\n    tag_154:\n      swap3\n      pop\n      pop\n        /* \"contracts/GeekNftMarketPlace.sol\":4693:4823  if(_idToNFT[i].creator == msg.sender) {... */\n    tag_151:\n        /* \"contracts/GeekNftMarketPlace.sol\":4674:4677  i++ */\n      dup1\n      dup1\n      tag_155\n      swap1\n      tag_90\n      jump\t// in\n    tag_155:\n      swap2\n      pop\n      pop\n        /* \"contracts/GeekNftMarketPlace.sol\":4641:4833  for (uint i = 1; i <= nftsCount; i++) {... */\n      jump(tag_148)\n    tag_149:\n      pop\n        /* \"contracts/GeekNftMarketPlace.sol\":4850:4856  myNfts */\n      dup2\n        /* \"contracts/GeekNftMarketPlace.sol\":4843:4856  return myNfts */\n      swap5\n      pop\n      pop\n      pop\n      pop\n      pop\n        /* \"contracts/GeekNftMarketPlace.sol\":4253:4863  function getMyCreatedNfts() public view returns (NFT[] memory) {... */\n      swap1\n      jump\t// out\n        /* \"contracts/GeekNftMarketPlace.sol\":5561:6036  function getListedNfts() public view returns (NFT[] memory) {... */\n    tag_43:\n        /* \"contracts/GeekNftMarketPlace.sol\":5607:5619  NFT[] memory */\n      0x60\n        /* \"contracts/GeekNftMarketPlace.sol\":5631:5647  uint256 nftCount */\n      0x00\n        /* \"contracts/GeekNftMarketPlace.sol\":5650:5670  _nftsCount.current() */\n      tag_157\n        /* \"contracts/GeekNftMarketPlace.sol\":5650:5660  _nftsCount */\n      0x02\n        /* \"contracts/GeekNftMarketPlace.sol\":5650:5668  _nftsCount.current */\n      tag_83\n        /* \"contracts/GeekNftMarketPlace.sol\":5650:5670  _nftsCount.current() */\n      jump\t// in\n    tag_157:\n        /* \"contracts/GeekNftMarketPlace.sol\":5631:5670  uint256 nftCount = _nftsCount.current() */\n      swap1\n      pop\n        /* \"contracts/GeekNftMarketPlace.sol\":5680:5703  uint256 unsoldNftsCount */\n      0x00\n        /* \"contracts/GeekNftMarketPlace.sol\":5717:5736  _nftsSold.current() */\n      tag_158\n        /* \"contracts/GeekNftMarketPlace.sol\":5717:5726  _nftsSold */\n      0x01\n        /* \"contracts/GeekNftMarketPlace.sol\":5717:5734  _nftsSold.current */\n      tag_83\n        /* \"contracts/GeekNftMarketPlace.sol\":5717:5736  _nftsSold.current() */\n      jump\t// in\n    tag_158:\n        /* \"contracts/GeekNftMarketPlace.sol\":5706:5714  nftCount */\n      dup3\n        /* \"contracts/GeekNftMarketPlace.sol\":5706:5736  nftCount - _nftsSold.current() */\n      tag_159\n      swap2\n      swap1\n      tag_160\n      jump\t// in\n    tag_159:\n        /* \"contracts/GeekNftMarketPlace.sol\":5680:5736  uint256 unsoldNftsCount = nftCount - _nftsSold.current() */\n      swap1\n      pop\n        /* \"contracts/GeekNftMarketPlace.sol\":5747:5770  NFT[] memory listedNfts */\n      0x00\n        /* \"contracts/GeekNftMarketPlace.sol\":5783:5798  unsoldNftsCount */\n      dup2\n        /* \"contracts/GeekNftMarketPlace.sol\":5773:5799  new NFT[](unsoldNftsCount) */\n      0xffffffffffffffff\n      dup2\n      gt\n      iszero\n      tag_161\n      jumpi\n      tag_162\n      tag_94\n      jump\t// in\n    tag_162:\n    tag_161:\n      mload(0x40)\n      swap1\n      dup1\n      dup3\n      mstore\n      dup1\n      0x20\n      mul\n      0x20\n      add\n      dup3\n      add\n      0x40\n      mstore\n      dup1\n      iszero\n      tag_163\n      jumpi\n      dup2\n      0x20\n      add\n    tag_164:\n      tag_165\n      tag_98\n      jump\t// in\n    tag_165:\n      dup2\n      mstore\n      0x20\n      add\n      swap1\n      0x01\n      swap1\n      sub\n      swap1\n      dup2\n      tag_164\n      jumpi\n      swap1\n      pop\n    tag_163:\n      pop\n        /* \"contracts/GeekNftMarketPlace.sol\":5747:5799  NFT[] memory listedNfts = new NFT[](unsoldNftsCount) */\n      swap1\n      pop\n        /* \"contracts/GeekNftMarketPlace.sol\":5809:5823  uint nftsIndex */\n      0x00\n        /* \"contracts/GeekNftMarketPlace.sol\":5842:5848  uint i */\n      dup1\n        /* \"contracts/GeekNftMarketPlace.sol\":5851:5852  1 */\n      0x01\n        /* \"contracts/GeekNftMarketPlace.sol\":5842:5852  uint i = 1 */\n      swap1\n      pop\n        /* \"contracts/GeekNftMarketPlace.sol\":5837:6003  for (uint i = 1; i <= nftCount; i++) {... */\n    tag_166:\n        /* \"contracts/GeekNftMarketPlace.sol\":5859:5867  nftCount */\n      dup5\n        /* \"contracts/GeekNftMarketPlace.sol\":5854:5855  i */\n      dup2\n        /* \"contracts/GeekNftMarketPlace.sol\":5854:5867  i <= nftCount */\n      gt\n        /* \"contracts/GeekNftMarketPlace.sol\":5837:6003  for (uint i = 1; i <= nftCount; i++) {... */\n      tag_167\n      jumpi\n        /* \"contracts/GeekNftMarketPlace.sol\":5888:5896  _idToNFT */\n      0x05\n        /* \"contracts/GeekNftMarketPlace.sol\":5888:5899  _idToNFT[i] */\n      0x00\n        /* \"contracts/GeekNftMarketPlace.sol\":5897:5898  i */\n      dup3\n        /* \"contracts/GeekNftMarketPlace.sol\":5888:5899  _idToNFT[i] */\n      dup2\n      mstore\n      0x20\n      add\n      swap1\n      dup2\n      mstore\n      0x20\n      add\n      0x00\n      keccak256\n        /* \"contracts/GeekNftMarketPlace.sol\":5888:5906  _idToNFT[i].listed */\n      0x04\n      add\n      0x14\n      swap1\n      sload\n      swap1\n      0x0100\n      exp\n      swap1\n      div\n      0xff\n      and\n        /* \"contracts/GeekNftMarketPlace.sol\":5884:5993  if (_idToNFT[i].listed) {... */\n      iszero\n      tag_169\n      jumpi\n        /* \"contracts/GeekNftMarketPlace.sol\":5946:5954  _idToNFT */\n      0x05\n        /* \"contracts/GeekNftMarketPlace.sol\":5946:5957  _idToNFT[i] */\n      0x00\n        /* \"contracts/GeekNftMarketPlace.sol\":5955:5956  i */\n      dup3\n        /* \"contracts/GeekNftMarketPlace.sol\":5946:5957  _idToNFT[i] */\n      dup2\n      mstore\n      0x20\n      add\n      swap1\n      dup2\n      mstore\n      0x20\n      add\n      0x00\n      keccak256\n        /* \"contracts/GeekNftMarketPlace.sol\":5922:5957  listedNfts[nftsIndex] = _idToNFT[i] */\n      mload(0x40)\n      dup1\n      0xc0\n      add\n      0x40\n      mstore\n      swap1\n      dup2\n      0x00\n      dup3\n      add\n      sload\n      dup2\n      mstore\n      0x20\n      add\n      0x01\n      dup3\n      add\n      sload\n      dup2\n      mstore\n      0x20\n      add\n      0x02\n      dup3\n      add\n      0x00\n      swap1\n      sload\n      swap1\n      0x0100\n      exp\n      swap1\n      div\n      0xffffffffffffffffffffffffffffffffffffffff\n      and\n      0xffffffffffffffffffffffffffffffffffffffff\n      and\n      0xffffffffffffffffffffffffffffffffffffffff\n      and\n      dup2\n      mstore\n      0x20\n      add\n      0x03\n      dup3\n      add\n      0x00\n      swap1\n      sload\n      swap1\n      0x0100\n      exp\n      swap1\n      div\n      0xffffffffffffffffffffffffffffffffffffffff\n      and\n      0xffffffffffffffffffffffffffffffffffffffff\n      and\n      0xffffffffffffffffffffffffffffffffffffffff\n      and\n      dup2\n      mstore\n      0x20\n      add\n      0x04\n      dup3\n      add\n      0x00\n      swap1\n      sload\n      swap1\n      0x0100\n      exp\n      swap1\n      div\n      0xffffffffffffffffffffffffffffffffffffffff\n      and\n      0xffffffffffffffffffffffffffffffffffffffff\n      and\n      0xffffffffffffffffffffffffffffffffffffffff\n      and\n      dup2\n      mstore\n      0x20\n      add\n      0x04\n      dup3\n      add\n      0x14\n      swap1\n      sload\n      swap1\n      0x0100\n      exp\n      swap1\n      div\n      0xff\n      and\n      iszero\n      iszero\n      iszero\n      iszero\n      dup2\n      mstore\n      pop\n      pop\n        /* \"contracts/GeekNftMarketPlace.sol\":5922:5932  listedNfts */\n      dup4\n        /* \"contracts/GeekNftMarketPlace.sol\":5933:5942  nftsIndex */\n      dup4\n        /* \"contracts/GeekNftMarketPlace.sol\":5922:5943  listedNfts[nftsIndex] */\n      dup2\n      mload\n      dup2\n      lt\n      tag_170\n      jumpi\n      tag_171\n      tag_106\n      jump\t// in\n    tag_171:\n    tag_170:\n      0x20\n      mul\n      0x20\n      add\n      add\n        /* \"contracts/GeekNftMarketPlace.sol\":5922:5957  listedNfts[nftsIndex] = _idToNFT[i] */\n      dup2\n      swap1\n      mstore\n      pop\n        /* \"contracts/GeekNftMarketPlace.sol\":5971:5982  nftsIndex++ */\n      dup2\n      dup1\n      tag_172\n      swap1\n      tag_90\n      jump\t// in\n    tag_172:\n      swap3\n      pop\n      pop\n        /* \"contracts/GeekNftMarketPlace.sol\":5884:5993  if (_idToNFT[i].listed) {... */\n    tag_169:\n        /* \"contracts/GeekNftMarketPlace.sol\":5869:5872  i++ */\n      dup1\n      dup1\n      tag_173\n      swap1\n      tag_90\n      jump\t// in\n    tag_173:\n      swap2\n      pop\n      pop\n        /* \"contracts/GeekNftMarketPlace.sol\":5837:6003  for (uint i = 1; i <= nftCount; i++) {... */\n      jump(tag_166)\n    tag_167:\n      pop\n        /* \"contracts/GeekNftMarketPlace.sol\":6019:6029  listedNfts */\n      dup2\n        /* \"contracts/GeekNftMarketPlace.sol\":6012:6029  return listedNfts */\n      swap5\n      pop\n      pop\n      pop\n      pop\n      pop\n        /* \"contracts/GeekNftMarketPlace.sol\":5561:6036  function getListedNfts() public view returns (NFT[] memory) {... */\n      swap1\n      jump\t// out\n        /* \"contracts/GeekNftMarketPlace.sol\":3608:4212  function getMyOwnedNfts() public view returns (NFT[] memory) {... */\n    tag_47:\n        /* \"contracts/GeekNftMarketPlace.sol\":3655:3667  NFT[] memory */\n      0x60\n        /* \"contracts/GeekNftMarketPlace.sol\":3679:3693  uint nftsCount */\n      0x00\n        /* \"contracts/GeekNftMarketPlace.sol\":3696:3716  _nftsCount.current() */\n      tag_175\n        /* \"contracts/GeekNftMarketPlace.sol\":3696:3706  _nftsCount */\n      0x02\n        /* \"contracts/GeekNftMarketPlace.sol\":3696:3714  _nftsCount.current */\n      tag_83\n        /* \"contracts/GeekNftMarketPlace.sol\":3696:3716  _nftsCount.current() */\n      jump\t// in\n    tag_175:\n        /* \"contracts/GeekNftMarketPlace.sol\":3679:3716  uint nftsCount = _nftsCount.current() */\n      swap1\n      pop\n        /* \"contracts/GeekNftMarketPlace.sol\":3726:3742  uint myNftsCount */\n      0x00\n        /* \"contracts/GeekNftMarketPlace.sol\":3761:3767  uint i */\n      dup1\n        /* \"contracts/GeekNftMarketPlace.sol\":3770:3771  1 */\n      0x01\n        /* \"contracts/GeekNftMarketPlace.sol\":3761:3771  uint i = 1 */\n      swap1\n      pop\n        /* \"contracts/GeekNftMarketPlace.sol\":3756:3901  for (uint i = 1; i <= nftsCount; i++) {... */\n    tag_176:\n        /* \"contracts/GeekNftMarketPlace.sol\":3778:3787  nftsCount */\n      dup3\n        /* \"contracts/GeekNftMarketPlace.sol\":3773:3774  i */\n      dup2\n        /* \"contracts/GeekNftMarketPlace.sol\":3773:3787  i <= nftsCount */\n      gt\n        /* \"contracts/GeekNftMarketPlace.sol\":3756:3901  for (uint i = 1; i <= nftsCount; i++) {... */\n      tag_177\n      jumpi\n        /* \"contracts/GeekNftMarketPlace.sol\":3832:3842  msg.sender */\n      caller\n        /* \"contracts/GeekNftMarketPlace.sol\":3811:3842  _idToNFT[i].owner == msg.sender */\n      0xffffffffffffffffffffffffffffffffffffffff\n      and\n        /* \"contracts/GeekNftMarketPlace.sol\":3811:3819  _idToNFT */\n      0x05\n        /* \"contracts/GeekNftMarketPlace.sol\":3811:3822  _idToNFT[i] */\n      0x00\n        /* \"contracts/GeekNftMarketPlace.sol\":3820:3821  i */\n      dup4\n        /* \"contracts/GeekNftMarketPlace.sol\":3811:3822  _idToNFT[i] */\n      dup2\n      mstore\n      0x20\n      add\n      swap1\n      dup2\n      mstore\n      0x20\n      add\n      0x00\n      keccak256\n        /* \"contracts/GeekNftMarketPlace.sol\":3811:3828  _idToNFT[i].owner */\n      0x03\n      add\n      0x00\n      swap1\n      sload\n      swap1\n      0x0100\n      exp\n      swap1\n      div\n      0xffffffffffffffffffffffffffffffffffffffff\n      and\n        /* \"contracts/GeekNftMarketPlace.sol\":3811:3842  _idToNFT[i].owner == msg.sender */\n      0xffffffffffffffffffffffffffffffffffffffff\n      and\n      eq\n        /* \"contracts/GeekNftMarketPlace.sol\":3808:3891  if(_idToNFT[i].owner == msg.sender) {... */\n      iszero\n      tag_179\n      jumpi\n        /* \"contracts/GeekNftMarketPlace.sol\":3862:3876  myNftsCount ++ */\n      dup2\n      dup1\n      tag_180\n      swap1\n      tag_90\n      jump\t// in\n    tag_180:\n      swap3\n      pop\n      pop\n        /* \"contracts/GeekNftMarketPlace.sol\":3808:3891  if(_idToNFT[i].owner == msg.sender) {... */\n    tag_179:\n        /* \"contracts/GeekNftMarketPlace.sol\":3789:3792  i++ */\n      dup1\n      dup1\n      tag_181\n      swap1\n      tag_90\n      jump\t// in\n    tag_181:\n      swap2\n      pop\n      pop\n        /* \"contracts/GeekNftMarketPlace.sol\":3756:3901  for (uint i = 1; i <= nftsCount; i++) {... */\n      jump(tag_176)\n    tag_177:\n      pop\n        /* \"contracts/GeekNftMarketPlace.sol\":3911:3930  NFT[] memory myNfts */\n      0x00\n        /* \"contracts/GeekNftMarketPlace.sol\":3943:3954  myNftsCount */\n      dup2\n        /* \"contracts/GeekNftMarketPlace.sol\":3933:3955  new NFT[](myNftsCount) */\n      0xffffffffffffffff\n      dup2\n      gt\n      iszero\n      tag_182\n      jumpi\n      tag_183\n      tag_94\n      jump\t// in\n    tag_183:\n    tag_182:\n      mload(0x40)\n      swap1\n      dup1\n      dup3\n      mstore\n      dup1\n      0x20\n      mul\n      0x20\n      add\n      dup3\n      add\n      0x40\n      mstore\n      dup1\n      iszero\n      tag_184\n      jumpi\n      dup2\n      0x20\n      add\n    tag_185:\n      tag_186\n      tag_98\n      jump\t// in\n    tag_186:\n      dup2\n      mstore\n      0x20\n      add\n      swap1\n      0x01\n      swap1\n      sub\n      swap1\n      dup2\n      tag_185\n      jumpi\n      swap1\n      pop\n    tag_184:\n      pop\n        /* \"contracts/GeekNftMarketPlace.sol\":3911:3955  NFT[] memory myNfts = new NFT[](myNftsCount) */\n      swap1\n      pop\n        /* \"contracts/GeekNftMarketPlace.sol\":3965:3978  uint nftIndex */\n      0x00\n        /* \"contracts/GeekNftMarketPlace.sol\":3997:4003  uint i */\n      dup1\n        /* \"contracts/GeekNftMarketPlace.sol\":4006:4007  1 */\n      0x01\n        /* \"contracts/GeekNftMarketPlace.sol\":3997:4007  uint i = 1 */\n      swap1\n      pop\n        /* \"contracts/GeekNftMarketPlace.sol\":3992:4182  for (uint i = 1; i <= nftsCount; i++) {... */\n    tag_187:\n        /* \"contracts/GeekNftMarketPlace.sol\":4014:4023  nftsCount */\n      dup5\n        /* \"contracts/GeekNftMarketPlace.sol\":4009:4010  i */\n      dup2\n        /* \"contracts/GeekNftMarketPlace.sol\":4009:4023  i <= nftsCount */\n      gt\n        /* \"contracts/GeekNftMarketPlace.sol\":3992:4182  for (uint i = 1; i <= nftsCount; i++) {... */\n      tag_188\n      jumpi\n        /* \"contracts/GeekNftMarketPlace.sol\":4068:4078  msg.sender */\n      caller\n        /* \"contracts/GeekNftMarketPlace.sol\":4047:4078  _idToNFT[i].owner == msg.sender */\n      0xffffffffffffffffffffffffffffffffffffffff\n      and\n        /* \"contracts/GeekNftMarketPlace.sol\":4047:4055  _idToNFT */\n      0x05\n        /* \"contracts/GeekNftMarketPlace.sol\":4047:4058  _idToNFT[i] */\n      0x00\n        /* \"contracts/GeekNftMarketPlace.sol\":4056:4057  i */\n      dup4\n        /* \"contracts/GeekNftMarketPlace.sol\":4047:4058  _idToNFT[i] */\n      dup2\n      mstore\n      0x20\n      add\n      swap1\n      dup2\n      mstore\n      0x20\n      add\n      0x00\n      keccak256\n        /* \"contracts/GeekNftMarketPlace.sol\":4047:4064  _idToNFT[i].owner */\n      0x03\n      add\n      0x00\n      swap1\n      sload\n      swap1\n      0x0100\n      exp\n      swap1\n      div\n      0xffffffffffffffffffffffffffffffffffffffff\n      and\n        /* \"contracts/GeekNftMarketPlace.sol\":4047:4078  _idToNFT[i].owner == msg.sender */\n      0xffffffffffffffffffffffffffffffffffffffff\n      and\n      eq\n        /* \"contracts/GeekNftMarketPlace.sol\":4044:4172  if(_idToNFT[i].owner == msg.sender) {... */\n      iszero\n      tag_190\n      jumpi\n        /* \"contracts/GeekNftMarketPlace.sol\":4117:4125  _idToNFT */\n      0x05\n        /* \"contracts/GeekNftMarketPlace.sol\":4117:4128  _idToNFT[i] */\n      0x00\n        /* \"contracts/GeekNftMarketPlace.sol\":4126:4127  i */\n      dup3\n        /* \"contracts/GeekNftMarketPlace.sol\":4117:4128  _idToNFT[i] */\n      dup2\n      mstore\n      0x20\n      add\n      swap1\n      dup2\n      mstore\n      0x20\n      add\n      0x00\n      keccak256\n        /* \"contracts/GeekNftMarketPlace.sol\":4098:4128  myNfts[nftIndex] = _idToNFT[i] */\n      mload(0x40)\n      dup1\n      0xc0\n      add\n      0x40\n      mstore\n      swap1\n      dup2\n      0x00\n      dup3\n      add\n      sload\n      dup2\n      mstore\n      0x20\n      add\n      0x01\n      dup3\n      add\n      sload\n      dup2\n      mstore\n      0x20\n      add\n      0x02\n      dup3\n      add\n      0x00\n      swap1\n      sload\n      swap1\n      0x0100\n      exp\n      swap1\n      div\n      0xffffffffffffffffffffffffffffffffffffffff\n      and\n      0xffffffffffffffffffffffffffffffffffffffff\n      and\n      0xffffffffffffffffffffffffffffffffffffffff\n      and\n      dup2\n      mstore\n      0x20\n      add\n      0x03\n      dup3\n      add\n      0x00\n      swap1\n      sload\n      swap1\n      0x0100\n      exp\n      swap1\n      div\n      0xffffffffffffffffffffffffffffffffffffffff\n      and\n      0xffffffffffffffffffffffffffffffffffffffff\n      and\n      0xffffffffffffffffffffffffffffffffffffffff\n      and\n      dup2\n      mstore\n      0x20\n      add\n      0x04\n      dup3\n      add\n      0x00\n      swap1\n      sload\n      swap1\n      0x0100\n      exp\n      swap1\n      div\n      0xffffffffffffffffffffffffffffffffffffffff\n      and\n      0xffffffffffffffffffffffffffffffffffffffff\n      and\n      0xffffffffffffffffffffffffffffffffffffffff\n      and\n      dup2\n      mstore\n      0x20\n      add\n      0x04\n      dup3\n      add\n      0x14\n      swap1\n      sload\n      swap1\n      0x0100\n      exp\n      swap1\n      div\n      0xff\n      and\n      iszero\n      iszero\n      iszero\n      iszero\n      dup2\n      mstore\n      pop\n      pop\n        /* \"contracts/GeekNftMarketPlace.sol\":4098:4104  myNfts */\n      dup4\n        /* \"contracts/GeekNftMarketPlace.sol\":4105:4113  nftIndex */\n      dup4\n        /* \"contracts/GeekNftMarketPlace.sol\":4098:4114  myNfts[nftIndex] */\n      dup2\n      mload\n      dup2\n      lt\n      tag_191\n      jumpi\n      tag_192\n      tag_106\n      jump\t// in\n    tag_192:\n    tag_191:\n      0x20\n      mul\n      0x20\n      add\n      add\n        /* \"contracts/GeekNftMarketPlace.sol\":4098:4128  myNfts[nftIndex] = _idToNFT[i] */\n      dup2\n      swap1\n      mstore\n      pop\n        /* \"contracts/GeekNftMarketPlace.sol\":4146:4157  nftIndex ++ */\n      dup2\n      dup1\n      tag_193\n      swap1\n      tag_90\n      jump\t// in\n    tag_193:\n      swap3\n      pop\n      pop\n        /* \"contracts/GeekNftMarketPlace.sol\":4044:4172  if(_idToNFT[i].owner == msg.sender) {... */\n    tag_190:\n        /* \"contracts/GeekNftMarketPlace.sol\":4025:4028  i++ */\n      dup1\n      dup1\n      tag_194\n      swap1\n      tag_90\n      jump\t// in\n    tag_194:\n      swap2\n      pop\n      pop\n        /* \"contracts/GeekNftMarketPlace.sol\":3992:4182  for (uint i = 1; i <= nftsCount; i++) {... */\n      jump(tag_187)\n    tag_188:\n      pop\n        /* \"contracts/GeekNftMarketPlace.sol\":4199:4205  myNfts */\n      dup2\n        /* \"contracts/GeekNftMarketPlace.sol\":4192:4205  return myNfts */\n      swap5\n      pop\n      pop\n      pop\n      pop\n      pop\n        /* \"contracts/GeekNftMarketPlace.sol\":3608:4212  function getMyOwnedNfts() public view returns (NFT[] memory) {... */\n      swap1\n      jump\t// out\n        /* \"contracts/GeekNftMarketPlace.sol\":1645:2254  function listNFT(address _nftContract, uint _tokenId, uint _price) public payable nonReentrant priceIsGreaterThanZero(_price) valueIsEqualToFees{... */\n    tag_51:\n        /* \"contracts/RenntrancyGuard.sol\":171:172  2 */\n      0x02\n        /* \"contracts/RenntrancyGuard.sol\":310:317  _status */\n      sload(0x00)\n        /* \"contracts/RenntrancyGuard.sol\":310:329  _status != _ENTERED */\n      eq\n      iszero\n        /* \"contracts/RenntrancyGuard.sol\":302:365  require(_status != _ENTERED, \"ReentrancyGuard: reentrant call\") */\n      tag_196\n      jumpi\n      mload(0x40)\n      0x08c379a000000000000000000000000000000000000000000000000000000000\n      dup2\n      mstore\n      0x04\n      add\n      tag_197\n      swap1\n      tag_59\n      jump\t// in\n    tag_197:\n      mload(0x40)\n      dup1\n      swap2\n      sub\n      swap1\n      revert\n    tag_196:\n        /* \"contracts/RenntrancyGuard.sol\":171:172  2 */\n      0x02\n        /* \"contracts/RenntrancyGuard.sol\":375:382  _status */\n      0x00\n        /* \"contracts/RenntrancyGuard.sol\":375:393  _status = _ENTERED */\n      dup2\n      swap1\n      sstore\n      pop\n        /* \"contracts/GeekNftMarketPlace.sol\":1763:1769  _price */\n      dup1\n        /* \"contracts/GeekNftMarketPlace.sol\":1161:1162  0 */\n      0x00\n        /* \"contracts/GeekNftMarketPlace.sol\":1152:1158  _price */\n      dup2\n        /* \"contracts/GeekNftMarketPlace.sol\":1152:1162  _price > 0 */\n      gt\n        /* \"contracts/GeekNftMarketPlace.sol\":1144:1195  require(_price > 0, \"Price must be at least 1 wei\") */\n      tag_199\n      jumpi\n      mload(0x40)\n      0x08c379a000000000000000000000000000000000000000000000000000000000\n      dup2\n      mstore\n      0x04\n      add\n      tag_200\n      swap1\n      tag_63\n      jump\t// in\n    tag_200:\n      mload(0x40)\n      dup1\n      swap2\n      sub\n      swap1\n      revert\n    tag_199:\n        /* \"contracts/GeekNftMarketPlace.sol\":1280:1291  LISTING_FEE */\n      sload(0x03)\n        /* \"contracts/GeekNftMarketPlace.sol\":1267:1276  msg.value */\n      callvalue\n        /* \"contracts/GeekNftMarketPlace.sol\":1267:1291  msg.value == LISTING_FEE */\n      eq\n        /* \"contracts/GeekNftMarketPlace.sol\":1259:1328  require(msg.value == LISTING_FEE, \"Not enough ether for listing fee\") */\n      tag_202\n      jumpi\n      mload(0x40)\n      0x08c379a000000000000000000000000000000000000000000000000000000000\n      dup2\n      mstore\n      0x04\n      add\n      tag_203\n      swap1\n      tag_67\n      jump\t// in\n    tag_203:\n      mload(0x40)\n      dup1\n      swap2\n      sub\n      swap1\n      revert\n    tag_202:\n        /* \"contracts/GeekNftMarketPlace.sol\":1816:1828  _nftContract */\n      dup4\n        /* \"contracts/GeekNftMarketPlace.sol\":1799:1842  GeekNftInterface(_nftContract).transferFrom */\n      0xffffffffffffffffffffffffffffffffffffffff\n      and\n      0x23b872dd\n        /* \"contracts/GeekNftMarketPlace.sol\":1843:1853  msg.sender */\n      caller\n        /* \"contracts/GeekNftMarketPlace.sol\":1863:1867  this */\n      address\n        /* \"contracts/GeekNftMarketPlace.sol\":1870:1878  _tokenId */\n      dup7\n        /* \"contracts/GeekNftMarketPlace.sol\":1799:1879  GeekNftInterface(_nftContract).transferFrom(msg.sender, address(this), _tokenId) */\n      mload(0x40)\n      dup5\n      0xffffffff\n      and\n      0xe0\n      shl\n      dup2\n      mstore\n      0x04\n      add\n      tag_205\n      swap4\n      swap3\n      swap2\n      swap1\n      tag_73\n      jump\t// in\n    tag_205:\n      0x00\n      mload(0x40)\n      dup1\n      dup4\n      sub\n      dup2\n      0x00\n      dup8\n      dup1\n      extcodesize\n      iszero\n      dup1\n      iszero\n      tag_206\n      jumpi\n      0x00\n      dup1\n      revert\n    tag_206:\n      pop\n      gas\n      call\n      iszero\n      dup1\n      iszero\n      tag_208\n      jumpi\n      returndatasize\n      0x00\n      dup1\n      returndatacopy\n      revert(0x00, returndatasize)\n    tag_208:\n      pop\n      pop\n      pop\n      pop\n        /* \"contracts/GeekNftMarketPlace.sol\":1911:2086  NFT(... */\n      mload(0x40)\n      dup1\n      0xc0\n      add\n      0x40\n      mstore\n      dup1\n        /* \"contracts/GeekNftMarketPlace.sol\":1928:1936  _tokenId */\n      dup5\n        /* \"contracts/GeekNftMarketPlace.sol\":1911:2086  NFT(... */\n      dup2\n      mstore\n      0x20\n      add\n        /* \"contracts/GeekNftMarketPlace.sol\":1950:1956  _price */\n      dup4\n        /* \"contracts/GeekNftMarketPlace.sol\":1911:2086  NFT(... */\n      dup2\n      mstore\n      0x20\n      add\n        /* \"contracts/GeekNftMarketPlace.sol\":1978:1988  msg.sender */\n      caller\n        /* \"contracts/GeekNftMarketPlace.sol\":1911:2086  NFT(... */\n      0xffffffffffffffffffffffffffffffffffffffff\n      and\n      dup2\n      mstore\n      0x20\n      add\n        /* \"contracts/GeekNftMarketPlace.sol\":2019:2023  this */\n      address\n        /* \"contracts/GeekNftMarketPlace.sol\":1911:2086  NFT(... */\n      0xffffffffffffffffffffffffffffffffffffffff\n      and\n      dup2\n      mstore\n      0x20\n      add\n        /* \"contracts/GeekNftMarketPlace.sol\":2047:2057  msg.sender */\n      caller\n        /* \"contracts/GeekNftMarketPlace.sol\":1911:2086  NFT(... */\n      0xffffffffffffffffffffffffffffffffffffffff\n      and\n      dup2\n      mstore\n      0x20\n      add\n        /* \"contracts/GeekNftMarketPlace.sol\":2072:2076  true */\n      0x01\n        /* \"contracts/GeekNftMarketPlace.sol\":1911:2086  NFT(... */\n      iszero\n      iszero\n      dup2\n      mstore\n      pop\n        /* \"contracts/GeekNftMarketPlace.sol\":1890:1898  _idToNFT */\n      0x05\n        /* \"contracts/GeekNftMarketPlace.sol\":1890:1908  _idToNFT[_tokenId] */\n      0x00\n        /* \"contracts/GeekNftMarketPlace.sol\":1899:1907  _tokenId */\n      dup6\n        /* \"contracts/GeekNftMarketPlace.sol\":1890:1908  _idToNFT[_tokenId] */\n      dup2\n      mstore\n      0x20\n      add\n      swap1\n      dup2\n      mstore\n      0x20\n      add\n      0x00\n      keccak256\n        /* \"contracts/GeekNftMarketPlace.sol\":1890:2086  _idToNFT[_tokenId] = NFT(... */\n      0x00\n      dup3\n      add\n      mload\n      dup2\n      0x00\n      add\n      sstore\n      0x20\n      dup3\n      add\n      mload\n      dup2\n      0x01\n      add\n      sstore\n      0x40\n      dup3\n      add\n      mload\n      dup2\n      0x02\n      add\n      exp(0x0100, 0x00)\n      dup2\n      sload\n      dup2\n      0xffffffffffffffffffffffffffffffffffffffff\n      mul\n      not\n      and\n      swap1\n      dup4\n      0xffffffffffffffffffffffffffffffffffffffff\n      and\n      mul\n      or\n      swap1\n      sstore\n      pop\n      0x60\n      dup3\n      add\n      mload\n      dup2\n      0x03\n      add\n      exp(0x0100, 0x00)\n      dup2\n      sload\n      dup2\n      0xffffffffffffffffffffffffffffffffffffffff\n      mul\n      not\n      and\n      swap1\n      dup4\n      0xffffffffffffffffffffffffffffffffffffffff\n      and\n      mul\n      or\n      swap1\n      sstore\n      pop\n      0x80\n      dup3\n      add\n      mload\n      dup2\n      0x04\n      add\n      exp(0x0100, 0x00)\n      dup2\n      sload\n      dup2\n      0xffffffffffffffffffffffffffffffffffffffff\n      mul\n      not\n      and\n      swap1\n      dup4\n      0xffffffffffffffffffffffffffffffffffffffff\n      and\n      mul\n      or\n      swap1\n      sstore\n      pop\n      0xa0\n      dup3\n      add\n      mload\n      dup2\n      0x04\n      add\n      exp(0x0100, 0x14)\n      dup2\n      sload\n      dup2\n      0xff\n      mul\n      not\n      and\n      swap1\n      dup4\n      iszero\n      iszero\n      mul\n      or\n      swap1\n      sstore\n      pop\n      swap1\n      pop\n      pop\n        /* \"contracts/GeekNftMarketPlace.sol\":2097:2119  _nftsCount.increment() */\n      tag_209\n        /* \"contracts/GeekNftMarketPlace.sol\":2097:2107  _nftsCount */\n      0x02\n        /* \"contracts/GeekNftMarketPlace.sol\":2097:2117  _nftsCount.increment */\n      tag_133\n        /* \"contracts/GeekNftMarketPlace.sol\":2097:2119  _nftsCount.increment() */\n      jump\t// in\n    tag_209:\n        /* \"contracts/GeekNftMarketPlace.sol\":2130:2143  _marketOwwner */\n      0x04\n      0x00\n      swap1\n      sload\n      swap1\n      0x0100\n      exp\n      swap1\n      div\n      0xffffffffffffffffffffffffffffffffffffffff\n      and\n        /* \"contracts/GeekNftMarketPlace.sol\":2130:2152  _marketOwwner.transfer */\n      0xffffffffffffffffffffffffffffffffffffffff\n      and\n        /* \"contracts/GeekNftMarketPlace.sol\":2130:2163  _marketOwwner.transfer(msg.value) */\n      0x08fc\n        /* \"contracts/GeekNftMarketPlace.sol\":2153:2162  msg.value */\n      callvalue\n        /* \"contracts/GeekNftMarketPlace.sol\":2130:2163  _marketOwwner.transfer(msg.value) */\n      swap1\n      dup2\n      iszero\n      mul\n      swap1\n      mload(0x40)\n      0x00\n      mload(0x40)\n      dup1\n      dup4\n      sub\n      dup2\n      dup6\n      dup9\n      dup9\n      call\n      swap4\n      pop\n      pop\n      pop\n      pop\n      iszero\n      dup1\n      iszero\n      tag_211\n      jumpi\n      returndatasize\n      0x00\n      dup1\n      returndatacopy\n      revert(0x00, returndatasize)\n    tag_211:\n      pop\n        /* \"contracts/GeekNftMarketPlace.sol\":2233:2237  this */\n      address\n        /* \"contracts/GeekNftMarketPlace.sol\":2179:2247  NFTListed(_nftContract, _tokenId, msg.sender, address(this), _price) */\n      0xffffffffffffffffffffffffffffffffffffffff\n      and\n        /* \"contracts/GeekNftMarketPlace.sol\":2213:2223  msg.sender */\n      caller\n        /* \"contracts/GeekNftMarketPlace.sol\":2179:2247  NFTListed(_nftContract, _tokenId, msg.sender, address(this), _price) */\n      0xffffffffffffffffffffffffffffffffffffffff\n      and\n      0xa0c6c0d02d86fdacecbaa5fdf5894bab204e31a778250474108540733a9b8d19\n        /* \"contracts/GeekNftMarketPlace.sol\":2189:2201  _nftContract */\n      dup7\n        /* \"contracts/GeekNftMarketPlace.sol\":2203:2211  _tokenId */\n      dup7\n        /* \"contracts/GeekNftMarketPlace.sol\":2240:2246  _price */\n      dup7\n        /* \"contracts/GeekNftMarketPlace.sol\":2179:2247  NFTListed(_nftContract, _tokenId, msg.sender, address(this), _price) */\n      mload(0x40)\n      tag_212\n      swap4\n      swap3\n      swap2\n      swap1\n      tag_80\n      jump\t// in\n    tag_212:\n      mload(0x40)\n      dup1\n      swap2\n      sub\n      swap1\n      log3\n        /* \"contracts/RenntrancyGuard.sol\":403:404  _ */\n      pop\n        /* \"contracts/RenntrancyGuard.sol\":128:129  1 */\n      0x01\n        /* \"contracts/RenntrancyGuard.sol\":414:421  _status */\n      0x00\n        /* \"contracts/RenntrancyGuard.sol\":414:436  _status = _NOT_ENTERED */\n      dup2\n      swap1\n      sstore\n      pop\n        /* \"contracts/GeekNftMarketPlace.sol\":1645:2254  function listNFT(address _nftContract, uint _tokenId, uint _price) public payable nonReentrant priceIsGreaterThanZero(_price) valueIsEqualToFees{... */\n      pop\n      pop\n      pop\n      jump\t// out\n        /* \"contracts/GeekNftMarketPlace.sol\":1352:1438  function getListingFee() public view returns (uint){... */\n    tag_54:\n        /* \"contracts/GeekNftMarketPlace.sol\":1398:1402  uint */\n      0x00\n        /* \"contracts/GeekNftMarketPlace.sol\":1420:1431  LISTING_FEE */\n      sload(0x03)\n        /* \"contracts/GeekNftMarketPlace.sol\":1413:1431  return LISTING_FEE */\n      swap1\n      pop\n        /* \"contracts/GeekNftMarketPlace.sol\":1352:1438  function getListingFee() public view returns (uint){... */\n      swap1\n      jump\t// out\n        /* \"contracts/Counters.sol\":1074:1303  function decrement(Counter storage counter) internal {... */\n    tag_78:\n        /* \"contracts/Counters.sol\":1137:1150  uint256 value */\n      0x00\n        /* \"contracts/Counters.sol\":1153:1160  counter */\n      dup2\n        /* \"contracts/Counters.sol\":1153:1167  counter._value */\n      0x00\n      add\n      sload\n        /* \"contracts/Counters.sol\":1137:1167  uint256 value = counter._value */\n      swap1\n      pop\n        /* \"contracts/Counters.sol\":1193:1194  0 */\n      0x00\n        /* \"contracts/Counters.sol\":1185:1190  value */\n      dup2\n        /* \"contracts/Counters.sol\":1185:1194  value > 0 */\n      gt\n        /* \"contracts/Counters.sol\":1177:1226  require(value > 0, \"Counter: decrement overflow\") */\n      tag_215\n      jumpi\n      mload(0x40)\n      0x08c379a000000000000000000000000000000000000000000000000000000000\n      dup2\n      mstore\n      0x04\n      add\n      tag_216\n      swap1\n      tag_217\n      jump\t// in\n    tag_216:\n      mload(0x40)\n      dup1\n      swap2\n      sub\n      swap1\n      revert\n    tag_215:\n        /* \"contracts/Counters.sol\":1285:1286  1 */\n      0x01\n        /* \"contracts/Counters.sol\":1277:1282  value */\n      dup2\n        /* \"contracts/Counters.sol\":1277:1286  value - 1 */\n      sub\n        /* \"contracts/Counters.sol\":1260:1267  counter */\n      dup3\n        /* \"contracts/Counters.sol\":1260:1274  counter._value */\n      0x00\n      add\n        /* \"contracts/Counters.sol\":1260:1286  counter._value = value - 1 */\n      dup2\n      swap1\n      sstore\n      pop\n        /* \"contracts/Counters.sol\":1127:1303  {... */\n      pop\n        /* \"contracts/Counters.sol\":1074:1303  function decrement(Counter storage counter) internal {... */\n      pop\n      jump\t// out\n        /* \"contracts/Counters.sol\":827:939  function current(Counter storage counter) internal view returns (uint256) {... */\n    tag_83:\n        /* \"contracts/Counters.sol\":892:899  uint256 */\n      0x00\n        /* \"contracts/Counters.sol\":918:925  counter */\n      dup2\n        /* \"contracts/Counters.sol\":918:932  counter._value */\n      0x00\n      add\n      sload\n        /* \"contracts/Counters.sol\":911:932  return counter._value */\n      swap1\n      pop\n        /* \"contracts/Counters.sol\":827:939  function current(Counter storage counter) internal view returns (uint256) {... */\n      swap2\n      swap1\n      pop\n      jump\t// out\n        /* \"contracts/Counters.sol\":945:1068  function increment(Counter storage counter) internal {... */\n    tag_133:\n        /* \"contracts/Counters.sol\":1050:1051  1 */\n      0x01\n        /* \"contracts/Counters.sol\":1032:1039  counter */\n      dup2\n        /* \"contracts/Counters.sol\":1032:1046  counter._value */\n      0x00\n      add\n      0x00\n        /* \"contracts/Counters.sol\":1032:1051  counter._value += 1 */\n      dup3\n      dup3\n      sload\n      add\n      swap3\n      pop\n      pop\n      dup2\n      swap1\n      sstore\n      pop\n        /* \"contracts/Counters.sol\":945:1068  function increment(Counter storage counter) internal {... */\n      pop\n      jump\t// out\n    tag_98:\n      mload(0x40)\n      dup1\n      0xc0\n      add\n      0x40\n      mstore\n      dup1\n      0x00\n      dup2\n      mstore\n      0x20\n      add\n      0x00\n      dup2\n      mstore\n      0x20\n      add\n      and(0xffffffffffffffffffffffffffffffffffffffff, 0x00)\n      dup2\n      mstore\n      0x20\n      add\n      and(0xffffffffffffffffffffffffffffffffffffffff, 0x00)\n      dup2\n      mstore\n      0x20\n      add\n      and(0xffffffffffffffffffffffffffffffffffffffff, 0x00)\n      dup2\n      mstore\n      0x20\n      add\n      iszero(iszero(0x00))\n      dup2\n      mstore\n      pop\n      swap1\n      jump\t// out\n        /* \"#utility.yul\":7:146   */\n    tag_221:\n        /* \"#utility.yul\":53:58   */\n      0x00\n        /* \"#utility.yul\":91:97   */\n      dup2\n        /* \"#utility.yul\":78:98   */\n      calldataload\n        /* \"#utility.yul\":69:98   */\n      swap1\n      pop\n        /* \"#utility.yul\":107:140   */\n      tag_223\n        /* \"#utility.yul\":134:139   */\n      dup2\n        /* \"#utility.yul\":107:140   */\n      tag_224\n      jump\t// in\n    tag_223:\n        /* \"#utility.yul\":7:146   */\n      swap3\n      swap2\n      pop\n      pop\n      jump\t// out\n        /* \"#utility.yul\":152:295   */\n    tag_225:\n        /* \"#utility.yul\":209:214   */\n      0x00\n        /* \"#utility.yul\":240:246   */\n      dup2\n        /* \"#utility.yul\":234:247   */\n      mload\n        /* \"#utility.yul\":225:247   */\n      swap1\n      pop\n        /* \"#utility.yul\":256:289   */\n      tag_227\n        /* \"#utility.yul\":283:288   */\n      dup2\n        /* \"#utility.yul\":256:289   */\n      tag_224\n      jump\t// in\n    tag_227:\n        /* \"#utility.yul\":152:295   */\n      swap3\n      swap2\n      pop\n      pop\n      jump\t// out\n        /* \"#utility.yul\":301:440   */\n    tag_228:\n        /* \"#utility.yul\":347:352   */\n      0x00\n        /* \"#utility.yul\":385:391   */\n      dup2\n        /* \"#utility.yul\":372:392   */\n      calldataload\n        /* \"#utility.yul\":363:392   */\n      swap1\n      pop\n        /* \"#utility.yul\":401:434   */\n      tag_230\n        /* \"#utility.yul\":428:433   */\n      dup2\n        /* \"#utility.yul\":401:434   */\n      tag_231\n      jump\t// in\n    tag_230:\n        /* \"#utility.yul\":301:440   */\n      swap3\n      swap2\n      pop\n      pop\n      jump\t// out\n        /* \"#utility.yul\":446:797   */\n    tag_115:\n        /* \"#utility.yul\":516:522   */\n      0x00\n        /* \"#utility.yul\":565:567   */\n      0x20\n        /* \"#utility.yul\":553:562   */\n      dup3\n        /* \"#utility.yul\":544:551   */\n      dup5\n        /* \"#utility.yul\":540:563   */\n      sub\n        /* \"#utility.yul\":536:568   */\n      slt\n        /* \"#utility.yul\":533:652   */\n      iszero\n      tag_233\n      jumpi\n        /* \"#utility.yul\":571:650   */\n      tag_234\n      tag_235\n      jump\t// in\n    tag_234:\n        /* \"#utility.yul\":533:652   */\n    tag_233:\n        /* \"#utility.yul\":691:692   */\n      0x00\n        /* \"#utility.yul\":716:780   */\n      tag_236\n        /* \"#utility.yul\":772:779   */\n      dup5\n        /* \"#utility.yul\":763:769   */\n      dup3\n        /* \"#utility.yul\":752:761   */\n      dup6\n        /* \"#utility.yul\":748:770   */\n      add\n        /* \"#utility.yul\":716:780   */\n      tag_225\n      jump\t// in\n    tag_236:\n        /* \"#utility.yul\":706:780   */\n      swap2\n      pop\n        /* \"#utility.yul\":662:790   */\n      pop\n        /* \"#utility.yul\":446:797   */\n      swap3\n      swap2\n      pop\n      pop\n      jump\t// out\n        /* \"#utility.yul\":803:1277   */\n    tag_30:\n        /* \"#utility.yul\":871:877   */\n      0x00\n        /* \"#utility.yul\":879:885   */\n      dup1\n        /* \"#utility.yul\":928:930   */\n      0x40\n        /* \"#utility.yul\":916:925   */\n      dup4\n        /* \"#utility.yul\":907:914   */\n      dup6\n        /* \"#utility.yul\":903:926   */\n      sub\n        /* \"#utility.yul\":899:931   */\n      slt\n        /* \"#utility.yul\":896:1015   */\n      iszero\n      tag_238\n      jumpi\n        /* \"#utility.yul\":934:1013   */\n      tag_239\n      tag_235\n      jump\t// in\n    tag_239:\n        /* \"#utility.yul\":896:1015   */\n    tag_238:\n        /* \"#utility.yul\":1054:1055   */\n      0x00\n        /* \"#utility.yul\":1079:1132   */\n      tag_240\n        /* \"#utility.yul\":1124:1131   */\n      dup6\n        /* \"#utility.yul\":1115:1121   */\n      dup3\n        /* \"#utility.yul\":1104:1113   */\n      dup7\n        /* \"#utility.yul\":1100:1122   */\n      add\n        /* \"#utility.yul\":1079:1132   */\n      tag_221\n      jump\t// in\n    tag_240:\n        /* \"#utility.yul\":1069:1132   */\n      swap3\n      pop\n        /* \"#utility.yul\":1025:1142   */\n      pop\n        /* \"#utility.yul\":1181:1183   */\n      0x20\n        /* \"#utility.yul\":1207:1260   */\n      tag_241\n        /* \"#utility.yul\":1252:1259   */\n      dup6\n        /* \"#utility.yul\":1243:1249   */\n      dup3\n        /* \"#utility.yul\":1232:1241   */\n      dup7\n        /* \"#utility.yul\":1228:1250   */\n      add\n        /* \"#utility.yul\":1207:1260   */\n      tag_228\n      jump\t// in\n    tag_241:\n        /* \"#utility.yul\":1197:1260   */\n      swap2\n      pop\n        /* \"#utility.yul\":1152:1270   */\n      pop\n        /* \"#utility.yul\":803:1277   */\n      swap3\n      pop\n      swap3\n      swap1\n      pop\n      jump\t// out\n        /* \"#utility.yul\":1283:1902   */\n    tag_15:\n        /* \"#utility.yul\":1360:1366   */\n      0x00\n        /* \"#utility.yul\":1368:1374   */\n      dup1\n        /* \"#utility.yul\":1376:1382   */\n      0x00\n        /* \"#utility.yul\":1425:1427   */\n      0x60\n        /* \"#utility.yul\":1413:1422   */\n      dup5\n        /* \"#utility.yul\":1404:1411   */\n      dup7\n        /* \"#utility.yul\":1400:1423   */\n      sub\n        /* \"#utility.yul\":1396:1428   */\n      slt\n        /* \"#utility.yul\":1393:1512   */\n      iszero\n      tag_243\n      jumpi\n        /* \"#utility.yul\":1431:1510   */\n      tag_244\n      tag_235\n      jump\t// in\n    tag_244:\n        /* \"#utility.yul\":1393:1512   */\n    tag_243:\n        /* \"#utility.yul\":1551:1552   */\n      0x00\n        /* \"#utility.yul\":1576:1629   */\n      tag_245\n        /* \"#utility.yul\":1621:1628   */\n      dup7\n        /* \"#utility.yul\":1612:1618   */\n      dup3\n        /* \"#utility.yul\":1601:1610   */\n      dup8\n        /* \"#utility.yul\":1597:1619   */\n      add\n        /* \"#utility.yul\":1576:1629   */\n      tag_221\n      jump\t// in\n    tag_245:\n        /* \"#utility.yul\":1566:1629   */\n      swap4\n      pop\n        /* \"#utility.yul\":1522:1639   */\n      pop\n        /* \"#utility.yul\":1678:1680   */\n      0x20\n        /* \"#utility.yul\":1704:1757   */\n      tag_246\n        /* \"#utility.yul\":1749:1756   */\n      dup7\n        /* \"#utility.yul\":1740:1746   */\n      dup3\n        /* \"#utility.yul\":1729:1738   */\n      dup8\n        /* \"#utility.yul\":1725:1747   */\n      add\n        /* \"#utility.yul\":1704:1757   */\n      tag_228\n      jump\t// in\n    tag_246:\n        /* \"#utility.yul\":1694:1757   */\n      swap3\n      pop\n        /* \"#utility.yul\":1649:1767   */\n      pop\n        /* \"#utility.yul\":1806:1808   */\n      0x40\n        /* \"#utility.yul\":1832:1885   */\n      tag_247\n        /* \"#utility.yul\":1877:1884   */\n      dup7\n        /* \"#utility.yul\":1868:1874   */\n      dup3\n        /* \"#utility.yul\":1857:1866   */\n      dup8\n        /* \"#utility.yul\":1853:1875   */\n      add\n        /* \"#utility.yul\":1832:1885   */\n      tag_228\n      jump\t// in\n    tag_247:\n        /* \"#utility.yul\":1822:1885   */\n      swap2\n      pop\n        /* \"#utility.yul\":1777:1895   */\n      pop\n        /* \"#utility.yul\":1283:1902   */\n      swap3\n      pop\n      swap3\n      pop\n      swap3\n      jump\t// out\n        /* \"#utility.yul\":1908:2167   */\n    tag_248:\n        /* \"#utility.yul\":2017:2027   */\n      0x00\n        /* \"#utility.yul\":2038:2124   */\n      tag_250\n        /* \"#utility.yul\":2120:2123   */\n      dup4\n        /* \"#utility.yul\":2112:2118   */\n      dup4\n        /* \"#utility.yul\":2038:2124   */\n      tag_251\n      jump\t// in\n    tag_250:\n        /* \"#utility.yul\":2156:2160   */\n      0xc0\n        /* \"#utility.yul\":2151:2154   */\n      dup4\n        /* \"#utility.yul\":2147:2161   */\n      add\n        /* \"#utility.yul\":2133:2161   */\n      swap1\n      pop\n        /* \"#utility.yul\":1908:2167   */\n      swap3\n      swap2\n      pop\n      pop\n      jump\t// out\n        /* \"#utility.yul\":2173:2320   */\n    tag_252:\n        /* \"#utility.yul\":2268:2313   */\n      tag_254\n        /* \"#utility.yul\":2307:2312   */\n      dup2\n        /* \"#utility.yul\":2268:2313   */\n      tag_255\n      jump\t// in\n    tag_254:\n        /* \"#utility.yul\":2263:2266   */\n      dup3\n        /* \"#utility.yul\":2256:2314   */\n      mstore\n        /* \"#utility.yul\":2173:2320   */\n      pop\n      pop\n      jump\t// out\n        /* \"#utility.yul\":2326:2458   */\n    tag_256:\n        /* \"#utility.yul\":2419:2451   */\n      tag_258\n        /* \"#utility.yul\":2445:2450   */\n      dup2\n        /* \"#utility.yul\":2419:2451   */\n      tag_259\n      jump\t// in\n    tag_258:\n        /* \"#utility.yul\":2414:2417   */\n      dup3\n        /* \"#utility.yul\":2407:2452   */\n      mstore\n        /* \"#utility.yul\":2326:2458   */\n      pop\n      pop\n      jump\t// out\n        /* \"#utility.yul\":2464:2582   */\n    tag_260:\n        /* \"#utility.yul\":2551:2575   */\n      tag_262\n        /* \"#utility.yul\":2569:2574   */\n      dup2\n        /* \"#utility.yul\":2551:2575   */\n      tag_263\n      jump\t// in\n    tag_262:\n        /* \"#utility.yul\":2546:2549   */\n      dup3\n        /* \"#utility.yul\":2539:2576   */\n      mstore\n        /* \"#utility.yul\":2464:2582   */\n      pop\n      pop\n      jump\t// out\n        /* \"#utility.yul\":2662:3554   */\n    tag_264:\n        /* \"#utility.yul\":2821:2824   */\n      0x00\n        /* \"#utility.yul\":2850:2924   */\n      tag_266\n        /* \"#utility.yul\":2918:2923   */\n      dup3\n        /* \"#utility.yul\":2850:2924   */\n      tag_267\n      jump\t// in\n    tag_266:\n        /* \"#utility.yul\":2940:3046   */\n      tag_268\n        /* \"#utility.yul\":3039:3045   */\n      dup2\n        /* \"#utility.yul\":3034:3037   */\n      dup6\n        /* \"#utility.yul\":2940:3046   */\n      tag_269\n      jump\t// in\n    tag_268:\n        /* \"#utility.yul\":2933:3046   */\n      swap4\n      pop\n        /* \"#utility.yul\":3070:3146   */\n      tag_270\n        /* \"#utility.yul\":3140:3145   */\n      dup4\n        /* \"#utility.yul\":3070:3146   */\n      tag_271\n      jump\t// in\n    tag_270:\n        /* \"#utility.yul\":3169:3176   */\n      dup1\n        /* \"#utility.yul\":3200:3201   */\n      0x00\n        /* \"#utility.yul\":3185:3529   */\n    tag_272:\n        /* \"#utility.yul\":3210:3216   */\n      dup4\n        /* \"#utility.yul\":3207:3208   */\n      dup2\n        /* \"#utility.yul\":3204:3217   */\n      lt\n        /* \"#utility.yul\":3185:3529   */\n      iszero\n      tag_274\n      jumpi\n        /* \"#utility.yul\":3286:3292   */\n      dup2\n        /* \"#utility.yul\":3280:3293   */\n      mload\n        /* \"#utility.yul\":3313:3416   */\n      tag_275\n        /* \"#utility.yul\":3412:3415   */\n      dup9\n        /* \"#utility.yul\":3397:3410   */\n      dup3\n        /* \"#utility.yul\":3313:3416   */\n      tag_248\n      jump\t// in\n    tag_275:\n        /* \"#utility.yul\":3306:3416   */\n      swap8\n      pop\n        /* \"#utility.yul\":3439:3519   */\n      tag_276\n        /* \"#utility.yul\":3512:3518   */\n      dup4\n        /* \"#utility.yul\":3439:3519   */\n      tag_277\n      jump\t// in\n    tag_276:\n        /* \"#utility.yul\":3429:3519   */\n      swap3\n      pop\n        /* \"#utility.yul\":3245:3529   */\n      pop\n        /* \"#utility.yul\":3232:3233   */\n      0x01\n        /* \"#utility.yul\":3229:3230   */\n      dup2\n        /* \"#utility.yul\":3225:3234   */\n      add\n        /* \"#utility.yul\":3220:3234   */\n      swap1\n      pop\n        /* \"#utility.yul\":3185:3529   */\n      jump(tag_272)\n    tag_274:\n        /* \"#utility.yul\":3189:3203   */\n      pop\n        /* \"#utility.yul\":3545:3548   */\n      dup6\n        /* \"#utility.yul\":3538:3548   */\n      swap4\n      pop\n        /* \"#utility.yul\":2826:3554   */\n      pop\n      pop\n      pop\n        /* \"#utility.yul\":2662:3554   */\n      swap3\n      swap2\n      pop\n      pop\n      jump\t// out\n        /* \"#utility.yul\":3560:3659   */\n    tag_278:\n        /* \"#utility.yul\":3631:3652   */\n      tag_280\n        /* \"#utility.yul\":3646:3651   */\n      dup2\n        /* \"#utility.yul\":3631:3652   */\n      tag_281\n      jump\t// in\n    tag_280:\n        /* \"#utility.yul\":3626:3629   */\n      dup3\n        /* \"#utility.yul\":3619:3653   */\n      mstore\n        /* \"#utility.yul\":3560:3659   */\n      pop\n      pop\n      jump\t// out\n        /* \"#utility.yul\":3665:4031   */\n    tag_282:\n        /* \"#utility.yul\":3807:3810   */\n      0x00\n        /* \"#utility.yul\":3828:3895   */\n      tag_284\n        /* \"#utility.yul\":3892:3894   */\n      0x0d\n        /* \"#utility.yul\":3887:3890   */\n      dup4\n        /* \"#utility.yul\":3828:3895   */\n      tag_285\n      jump\t// in\n    tag_284:\n        /* \"#utility.yul\":3821:3895   */\n      swap2\n      pop\n        /* \"#utility.yul\":3904:3997   */\n      tag_286\n        /* \"#utility.yul\":3993:3996   */\n      dup3\n        /* \"#utility.yul\":3904:3997   */\n      tag_287\n      jump\t// in\n    tag_286:\n        /* \"#utility.yul\":4022:4024   */\n      0x20\n        /* \"#utility.yul\":4017:4020   */\n      dup3\n        /* \"#utility.yul\":4013:4025   */\n      add\n        /* \"#utility.yul\":4006:4025   */\n      swap1\n      pop\n        /* \"#utility.yul\":3665:4031   */\n      swap2\n      swap1\n      pop\n      jump\t// out\n        /* \"#utility.yul\":4037:4403   */\n    tag_288:\n        /* \"#utility.yul\":4179:4182   */\n      0x00\n        /* \"#utility.yul\":4200:4267   */\n      tag_290\n        /* \"#utility.yul\":4264:4266   */\n      0x1b\n        /* \"#utility.yul\":4259:4262   */\n      dup4\n        /* \"#utility.yul\":4200:4267   */\n      tag_285\n      jump\t// in\n    tag_290:\n        /* \"#utility.yul\":4193:4267   */\n      swap2\n      pop\n        /* \"#utility.yul\":4276:4369   */\n      tag_291\n        /* \"#utility.yul\":4365:4368   */\n      dup3\n        /* \"#utility.yul\":4276:4369   */\n      tag_292\n      jump\t// in\n    tag_291:\n        /* \"#utility.yul\":4394:4396   */\n      0x20\n        /* \"#utility.yul\":4389:4392   */\n      dup3\n        /* \"#utility.yul\":4385:4397   */\n      add\n        /* \"#utility.yul\":4378:4397   */\n      swap1\n      pop\n        /* \"#utility.yul\":4037:4403   */\n      swap2\n      swap1\n      pop\n      jump\t// out\n        /* \"#utility.yul\":4409:4775   */\n    tag_293:\n        /* \"#utility.yul\":4551:4554   */\n      0x00\n        /* \"#utility.yul\":4572:4639   */\n      tag_295\n        /* \"#utility.yul\":4636:4638   */\n      0x26\n        /* \"#utility.yul\":4631:4634   */\n      dup4\n        /* \"#utility.yul\":4572:4639   */\n      tag_285\n      jump\t// in\n    tag_295:\n        /* \"#utility.yul\":4565:4639   */\n      swap2\n      pop\n        /* \"#utility.yul\":4648:4741   */\n      tag_296\n        /* \"#utility.yul\":4737:4740   */\n      dup3\n        /* \"#utility.yul\":4648:4741   */\n      tag_297\n      jump\t// in\n    tag_296:\n        /* \"#utility.yul\":4766:4768   */\n      0x40\n        /* \"#utility.yul\":4761:4764   */\n      dup3\n        /* \"#utility.yul\":4757:4769   */\n      add\n        /* \"#utility.yul\":4750:4769   */\n      swap1\n      pop\n        /* \"#utility.yul\":4409:4775   */\n      swap2\n      swap1\n      pop\n      jump\t// out\n        /* \"#utility.yul\":4781:5147   */\n    tag_298:\n        /* \"#utility.yul\":4923:4926   */\n      0x00\n        /* \"#utility.yul\":4944:5011   */\n      tag_300\n        /* \"#utility.yul\":5008:5010   */\n      0x20\n        /* \"#utility.yul\":5003:5006   */\n      dup4\n        /* \"#utility.yul\":4944:5011   */\n      tag_285\n      jump\t// in\n    tag_300:\n        /* \"#utility.yul\":4937:5011   */\n      swap2\n      pop\n        /* \"#utility.yul\":5020:5113   */\n      tag_301\n        /* \"#utility.yul\":5109:5112   */\n      dup3\n        /* \"#utility.yul\":5020:5113   */\n      tag_302\n      jump\t// in\n    tag_301:\n        /* \"#utility.yul\":5138:5140   */\n      0x20\n        /* \"#utility.yul\":5133:5136   */\n      dup3\n        /* \"#utility.yul\":5129:5141   */\n      add\n        /* \"#utility.yul\":5122:5141   */\n      swap1\n      pop\n        /* \"#utility.yul\":4781:5147   */\n      swap2\n      swap1\n      pop\n      jump\t// out\n        /* \"#utility.yul\":5153:5519   */\n    tag_303:\n        /* \"#utility.yul\":5295:5298   */\n      0x00\n        /* \"#utility.yul\":5316:5383   */\n      tag_305\n        /* \"#utility.yul\":5380:5382   */\n      0x1f\n        /* \"#utility.yul\":5375:5378   */\n      dup4\n        /* \"#utility.yul\":5316:5383   */\n      tag_285\n      jump\t// in\n    tag_305:\n        /* \"#utility.yul\":5309:5383   */\n      swap2\n      pop\n        /* \"#utility.yul\":5392:5485   */\n      tag_306\n        /* \"#utility.yul\":5481:5484   */\n      dup3\n        /* \"#utility.yul\":5392:5485   */\n      tag_307\n      jump\t// in\n    tag_306:\n        /* \"#utility.yul\":5510:5512   */\n      0x20\n        /* \"#utility.yul\":5505:5508   */\n      dup3\n        /* \"#utility.yul\":5501:5513   */\n      add\n        /* \"#utility.yul\":5494:5513   */\n      swap1\n      pop\n        /* \"#utility.yul\":5153:5519   */\n      swap2\n      swap1\n      pop\n      jump\t// out\n        /* \"#utility.yul\":5525:5891   */\n    tag_308:\n        /* \"#utility.yul\":5667:5670   */\n      0x00\n        /* \"#utility.yul\":5688:5755   */\n      tag_310\n        /* \"#utility.yul\":5752:5754   */\n      0x1c\n        /* \"#utility.yul\":5747:5750   */\n      dup4\n        /* \"#utility.yul\":5688:5755   */\n      tag_285\n      jump\t// in\n    tag_310:\n        /* \"#utility.yul\":5681:5755   */\n      swap2\n      pop\n        /* \"#utility.yul\":5764:5857   */\n      tag_311\n        /* \"#utility.yul\":5853:5856   */\n      dup3\n        /* \"#utility.yul\":5764:5857   */\n      tag_312\n      jump\t// in\n    tag_311:\n        /* \"#utility.yul\":5882:5884   */\n      0x20\n        /* \"#utility.yul\":5877:5880   */\n      dup3\n        /* \"#utility.yul\":5873:5885   */\n      add\n        /* \"#utility.yul\":5866:5885   */\n      swap1\n      pop\n        /* \"#utility.yul\":5525:5891   */\n      swap2\n      swap1\n      pop\n      jump\t// out\n        /* \"#utility.yul\":5967:7204   */\n    tag_251:\n        /* \"#utility.yul\":6094:6098   */\n      0xc0\n        /* \"#utility.yul\":6089:6092   */\n      dup3\n        /* \"#utility.yul\":6085:6099   */\n      add\n        /* \"#utility.yul\":6184:6188   */\n      0x00\n        /* \"#utility.yul\":6177:6182   */\n      dup3\n        /* \"#utility.yul\":6173:6189   */\n      add\n        /* \"#utility.yul\":6167:6190   */\n      mload\n        /* \"#utility.yul\":6203:6266   */\n      tag_314\n        /* \"#utility.yul\":6260:6264   */\n      0x00\n        /* \"#utility.yul\":6255:6258   */\n      dup6\n        /* \"#utility.yul\":6251:6265   */\n      add\n        /* \"#utility.yul\":6237:6249   */\n      dup3\n        /* \"#utility.yul\":6203:6266   */\n      tag_315\n      jump\t// in\n    tag_314:\n        /* \"#utility.yul\":6109:6276   */\n      pop\n        /* \"#utility.yul\":6359:6363   */\n      0x20\n        /* \"#utility.yul\":6352:6357   */\n      dup3\n        /* \"#utility.yul\":6348:6364   */\n      add\n        /* \"#utility.yul\":6342:6365   */\n      mload\n        /* \"#utility.yul\":6378:6441   */\n      tag_316\n        /* \"#utility.yul\":6435:6439   */\n      0x20\n        /* \"#utility.yul\":6430:6433   */\n      dup6\n        /* \"#utility.yul\":6426:6440   */\n      add\n        /* \"#utility.yul\":6412:6424   */\n      dup3\n        /* \"#utility.yul\":6378:6441   */\n      tag_315\n      jump\t// in\n    tag_316:\n        /* \"#utility.yul\":6286:6451   */\n      pop\n        /* \"#utility.yul\":6535:6539   */\n      0x40\n        /* \"#utility.yul\":6528:6533   */\n      dup3\n        /* \"#utility.yul\":6524:6540   */\n      add\n        /* \"#utility.yul\":6518:6541   */\n      mload\n        /* \"#utility.yul\":6554:6633   */\n      tag_317\n        /* \"#utility.yul\":6627:6631   */\n      0x40\n        /* \"#utility.yul\":6622:6625   */\n      dup6\n        /* \"#utility.yul\":6618:6632   */\n      add\n        /* \"#utility.yul\":6604:6616   */\n      dup3\n        /* \"#utility.yul\":6554:6633   */\n      tag_256\n      jump\t// in\n    tag_317:\n        /* \"#utility.yul\":6461:6643   */\n      pop\n        /* \"#utility.yul\":6726:6730   */\n      0x60\n        /* \"#utility.yul\":6719:6724   */\n      dup3\n        /* \"#utility.yul\":6715:6731   */\n      add\n        /* \"#utility.yul\":6709:6732   */\n      mload\n        /* \"#utility.yul\":6745:6824   */\n      tag_318\n        /* \"#utility.yul\":6818:6822   */\n      0x60\n        /* \"#utility.yul\":6813:6816   */\n      dup6\n        /* \"#utility.yul\":6809:6823   */\n      add\n        /* \"#utility.yul\":6795:6807   */\n      dup3\n        /* \"#utility.yul\":6745:6824   */\n      tag_256\n      jump\t// in\n    tag_318:\n        /* \"#utility.yul\":6653:6834   */\n      pop\n        /* \"#utility.yul\":6919:6923   */\n      0x80\n        /* \"#utility.yul\":6912:6917   */\n      dup3\n        /* \"#utility.yul\":6908:6924   */\n      add\n        /* \"#utility.yul\":6902:6925   */\n      mload\n        /* \"#utility.yul\":6938:7017   */\n      tag_319\n        /* \"#utility.yul\":7011:7015   */\n      0x80\n        /* \"#utility.yul\":7006:7009   */\n      dup6\n        /* \"#utility.yul\":7002:7016   */\n      add\n        /* \"#utility.yul\":6988:7000   */\n      dup3\n        /* \"#utility.yul\":6938:7017   */\n      tag_256\n      jump\t// in\n    tag_319:\n        /* \"#utility.yul\":6844:7027   */\n      pop\n        /* \"#utility.yul\":7111:7115   */\n      0xa0\n        /* \"#utility.yul\":7104:7109   */\n      dup3\n        /* \"#utility.yul\":7100:7116   */\n      add\n        /* \"#utility.yul\":7094:7117   */\n      mload\n        /* \"#utility.yul\":7130:7187   */\n      tag_320\n        /* \"#utility.yul\":7181:7185   */\n      0xa0\n        /* \"#utility.yul\":7176:7179   */\n      dup6\n        /* \"#utility.yul\":7172:7186   */\n      add\n        /* \"#utility.yul\":7158:7170   */\n      dup3\n        /* \"#utility.yul\":7130:7187   */\n      tag_278\n      jump\t// in\n    tag_320:\n        /* \"#utility.yul\":7037:7197   */\n      pop\n        /* \"#utility.yul\":6063:7204   */\n      pop\n        /* \"#utility.yul\":5967:7204   */\n      pop\n      pop\n      jump\t// out\n        /* \"#utility.yul\":7210:7318   */\n    tag_315:\n        /* \"#utility.yul\":7287:7311   */\n      tag_322\n        /* \"#utility.yul\":7305:7310   */\n      dup2\n        /* \"#utility.yul\":7287:7311   */\n      tag_323\n      jump\t// in\n    tag_322:\n        /* \"#utility.yul\":7282:7285   */\n      dup3\n        /* \"#utility.yul\":7275:7312   */\n      mstore\n        /* \"#utility.yul\":7210:7318   */\n      pop\n      pop\n      jump\t// out\n        /* \"#utility.yul\":7324:7442   */\n    tag_324:\n        /* \"#utility.yul\":7411:7435   */\n      tag_326\n        /* \"#utility.yul\":7429:7434   */\n      dup2\n        /* \"#utility.yul\":7411:7435   */\n      tag_323\n      jump\t// in\n    tag_326:\n        /* \"#utility.yul\":7406:7409   */\n      dup3\n        /* \"#utility.yul\":7399:7436   */\n      mstore\n        /* \"#utility.yul\":7324:7442   */\n      pop\n      pop\n      jump\t// out\n        /* \"#utility.yul\":7448:7670   */\n    tag_33:\n        /* \"#utility.yul\":7541:7545   */\n      0x00\n        /* \"#utility.yul\":7579:7581   */\n      0x20\n        /* \"#utility.yul\":7568:7577   */\n      dup3\n        /* \"#utility.yul\":7564:7582   */\n      add\n        /* \"#utility.yul\":7556:7582   */\n      swap1\n      pop\n        /* \"#utility.yul\":7592:7663   */\n      tag_328\n        /* \"#utility.yul\":7660:7661   */\n      0x00\n        /* \"#utility.yul\":7649:7658   */\n      dup4\n        /* \"#utility.yul\":7645:7662   */\n      add\n        /* \"#utility.yul\":7636:7642   */\n      dup5\n        /* \"#utility.yul\":7592:7663   */\n      tag_260\n      jump\t// in\n    tag_328:\n        /* \"#utility.yul\":7448:7670   */\n      swap3\n      swap2\n      pop\n      pop\n      jump\t// out\n        /* \"#utility.yul\":7676:8134   */\n    tag_128:\n        /* \"#utility.yul\":7833:7837   */\n      0x00\n        /* \"#utility.yul\":7871:7873   */\n      0x60\n        /* \"#utility.yul\":7860:7869   */\n      dup3\n        /* \"#utility.yul\":7856:7874   */\n      add\n        /* \"#utility.yul\":7848:7874   */\n      swap1\n      pop\n        /* \"#utility.yul\":7884:7955   */\n      tag_330\n        /* \"#utility.yul\":7952:7953   */\n      0x00\n        /* \"#utility.yul\":7941:7950   */\n      dup4\n        /* \"#utility.yul\":7937:7954   */\n      add\n        /* \"#utility.yul\":7928:7934   */\n      dup7\n        /* \"#utility.yul\":7884:7955   */\n      tag_260\n      jump\t// in\n    tag_330:\n        /* \"#utility.yul\":7965:8045   */\n      tag_331\n        /* \"#utility.yul\":8041:8043   */\n      0x20\n        /* \"#utility.yul\":8030:8039   */\n      dup4\n        /* \"#utility.yul\":8026:8044   */\n      add\n        /* \"#utility.yul\":8017:8023   */\n      dup6\n        /* \"#utility.yul\":7965:8045   */\n      tag_252\n      jump\t// in\n    tag_331:\n        /* \"#utility.yul\":8055:8127   */\n      tag_332\n        /* \"#utility.yul\":8123:8125   */\n      0x40\n        /* \"#utility.yul\":8112:8121   */\n      dup4\n        /* \"#utility.yul\":8108:8126   */\n      add\n        /* \"#utility.yul\":8099:8105   */\n      dup5\n        /* \"#utility.yul\":8055:8127   */\n      tag_324\n      jump\t// in\n    tag_332:\n        /* \"#utility.yul\":7676:8134   */\n      swap5\n      swap4\n      pop\n      pop\n      pop\n      pop\n      jump\t// out\n        /* \"#utility.yul\":8140:8582   */\n    tag_73:\n        /* \"#utility.yul\":8289:8293   */\n      0x00\n        /* \"#utility.yul\":8327:8329   */\n      0x60\n        /* \"#utility.yul\":8316:8325   */\n      dup3\n        /* \"#utility.yul\":8312:8330   */\n      add\n        /* \"#utility.yul\":8304:8330   */\n      swap1\n      pop\n        /* \"#utility.yul\":8340:8411   */\n      tag_334\n        /* \"#utility.yul\":8408:8409   */\n      0x00\n        /* \"#utility.yul\":8397:8406   */\n      dup4\n        /* \"#utility.yul\":8393:8410   */\n      add\n        /* \"#utility.yul\":8384:8390   */\n      dup7\n        /* \"#utility.yul\":8340:8411   */\n      tag_260\n      jump\t// in\n    tag_334:\n        /* \"#utility.yul\":8421:8493   */\n      tag_335\n        /* \"#utility.yul\":8489:8491   */\n      0x20\n        /* \"#utility.yul\":8478:8487   */\n      dup4\n        /* \"#utility.yul\":8474:8492   */\n      add\n        /* \"#utility.yul\":8465:8471   */\n      dup6\n        /* \"#utility.yul\":8421:8493   */\n      tag_260\n      jump\t// in\n    tag_335:\n        /* \"#utility.yul\":8503:8575   */\n      tag_336\n        /* \"#utility.yul\":8571:8573   */\n      0x40\n        /* \"#utility.yul\":8560:8569   */\n      dup4\n        /* \"#utility.yul\":8556:8574   */\n      add\n        /* \"#utility.yul\":8547:8553   */\n      dup5\n        /* \"#utility.yul\":8503:8575   */\n      tag_324\n      jump\t// in\n    tag_336:\n        /* \"#utility.yul\":8140:8582   */\n      swap5\n      swap4\n      pop\n      pop\n      pop\n      pop\n      jump\t// out\n        /* \"#utility.yul\":8588:9030   */\n    tag_80:\n        /* \"#utility.yul\":8737:8741   */\n      0x00\n        /* \"#utility.yul\":8775:8777   */\n      0x60\n        /* \"#utility.yul\":8764:8773   */\n      dup3\n        /* \"#utility.yul\":8760:8778   */\n      add\n        /* \"#utility.yul\":8752:8778   */\n      swap1\n      pop\n        /* \"#utility.yul\":8788:8859   */\n      tag_338\n        /* \"#utility.yul\":8856:8857   */\n      0x00\n        /* \"#utility.yul\":8845:8854   */\n      dup4\n        /* \"#utility.yul\":8841:8858   */\n      add\n        /* \"#utility.yul\":8832:8838   */\n      dup7\n        /* \"#utility.yul\":8788:8859   */\n      tag_260\n      jump\t// in\n    tag_338:\n        /* \"#utility.yul\":8869:8941   */\n      tag_339\n        /* \"#utility.yul\":8937:8939   */\n      0x20\n        /* \"#utility.yul\":8926:8935   */\n      dup4\n        /* \"#utility.yul\":8922:8940   */\n      add\n        /* \"#utility.yul\":8913:8919   */\n      dup6\n        /* \"#utility.yul\":8869:8941   */\n      tag_324\n      jump\t// in\n    tag_339:\n        /* \"#utility.yul\":8951:9023   */\n      tag_340\n        /* \"#utility.yul\":9019:9021   */\n      0x40\n        /* \"#utility.yul\":9008:9017   */\n      dup4\n        /* \"#utility.yul\":9004:9022   */\n      add\n        /* \"#utility.yul\":8995:9001   */\n      dup5\n        /* \"#utility.yul\":8951:9023   */\n      tag_324\n      jump\t// in\n    tag_340:\n        /* \"#utility.yul\":8588:9030   */\n      swap5\n      swap4\n      pop\n      pop\n      pop\n      pop\n      jump\t// out\n        /* \"#utility.yul\":9036:9489   */\n    tag_21:\n        /* \"#utility.yul\":9219:9223   */\n      0x00\n        /* \"#utility.yul\":9257:9259   */\n      0x20\n        /* \"#utility.yul\":9246:9255   */\n      dup3\n        /* \"#utility.yul\":9242:9260   */\n      add\n        /* \"#utility.yul\":9234:9260   */\n      swap1\n      pop\n        /* \"#utility.yul\":9306:9315   */\n      dup2\n        /* \"#utility.yul\":9300:9304   */\n      dup2\n        /* \"#utility.yul\":9296:9316   */\n      sub\n        /* \"#utility.yul\":9292:9293   */\n      0x00\n        /* \"#utility.yul\":9281:9290   */\n      dup4\n        /* \"#utility.yul\":9277:9294   */\n      add\n        /* \"#utility.yul\":9270:9317   */\n      mstore\n        /* \"#utility.yul\":9334:9482   */\n      tag_342\n        /* \"#utility.yul\":9477:9481   */\n      dup2\n        /* \"#utility.yul\":9468:9474   */\n      dup5\n        /* \"#utility.yul\":9334:9482   */\n      tag_264\n      jump\t// in\n    tag_342:\n        /* \"#utility.yul\":9326:9482   */\n      swap1\n      pop\n        /* \"#utility.yul\":9036:9489   */\n      swap3\n      swap2\n      pop\n      pop\n      jump\t// out\n        /* \"#utility.yul\":9495:9914   */\n    tag_71:\n        /* \"#utility.yul\":9661:9665   */\n      0x00\n        /* \"#utility.yul\":9699:9701   */\n      0x20\n        /* \"#utility.yul\":9688:9697   */\n      dup3\n        /* \"#utility.yul\":9684:9702   */\n      add\n        /* \"#utility.yul\":9676:9702   */\n      swap1\n      pop\n        /* \"#utility.yul\":9748:9757   */\n      dup2\n        /* \"#utility.yul\":9742:9746   */\n      dup2\n        /* \"#utility.yul\":9738:9758   */\n      sub\n        /* \"#utility.yul\":9734:9735   */\n      0x00\n        /* \"#utility.yul\":9723:9732   */\n      dup4\n        /* \"#utility.yul\":9719:9736   */\n      add\n        /* \"#utility.yul\":9712:9759   */\n      mstore\n        /* \"#utility.yul\":9776:9907   */\n      tag_344\n        /* \"#utility.yul\":9902:9906   */\n      dup2\n        /* \"#utility.yul\":9776:9907   */\n      tag_282\n      jump\t// in\n    tag_344:\n        /* \"#utility.yul\":9768:9907   */\n      swap1\n      pop\n        /* \"#utility.yul\":9495:9914   */\n      swap2\n      swap1\n      pop\n      jump\t// out\n        /* \"#utility.yul\":9920:10339   */\n    tag_217:\n        /* \"#utility.yul\":10086:10090   */\n      0x00\n        /* \"#utility.yul\":10124:10126   */\n      0x20\n        /* \"#utility.yul\":10113:10122   */\n      dup3\n        /* \"#utility.yul\":10109:10127   */\n      add\n        /* \"#utility.yul\":10101:10127   */\n      swap1\n      pop\n        /* \"#utility.yul\":10173:10182   */\n      dup2\n        /* \"#utility.yul\":10167:10171   */\n      dup2\n        /* \"#utility.yul\":10163:10183   */\n      sub\n        /* \"#utility.yul\":10159:10160   */\n      0x00\n        /* \"#utility.yul\":10148:10157   */\n      dup4\n        /* \"#utility.yul\":10144:10161   */\n      add\n        /* \"#utility.yul\":10137:10184   */\n      mstore\n        /* \"#utility.yul\":10201:10332   */\n      tag_346\n        /* \"#utility.yul\":10327:10331   */\n      dup2\n        /* \"#utility.yul\":10201:10332   */\n      tag_288\n      jump\t// in\n    tag_346:\n        /* \"#utility.yul\":10193:10332   */\n      swap1\n      pop\n        /* \"#utility.yul\":9920:10339   */\n      swap2\n      swap1\n      pop\n      jump\t// out\n        /* \"#utility.yul\":10345:10764   */\n    tag_124:\n        /* \"#utility.yul\":10511:10515   */\n      0x00\n        /* \"#utility.yul\":10549:10551   */\n      0x20\n        /* \"#utility.yul\":10538:10547   */\n      dup3\n        /* \"#utility.yul\":10534:10552   */\n      add\n        /* \"#utility.yul\":10526:10552   */\n      swap1\n      pop\n        /* \"#utility.yul\":10598:10607   */\n      dup2\n        /* \"#utility.yul\":10592:10596   */\n      dup2\n        /* \"#utility.yul\":10588:10608   */\n      sub\n        /* \"#utility.yul\":10584:10585   */\n      0x00\n        /* \"#utility.yul\":10573:10582   */\n      dup4\n        /* \"#utility.yul\":10569:10586   */\n      add\n        /* \"#utility.yul\":10562:10609   */\n      mstore\n        /* \"#utility.yul\":10626:10757   */\n      tag_348\n        /* \"#utility.yul\":10752:10756   */\n      dup2\n        /* \"#utility.yul\":10626:10757   */\n      tag_293\n      jump\t// in\n    tag_348:\n        /* \"#utility.yul\":10618:10757   */\n      swap1\n      pop\n        /* \"#utility.yul\":10345:10764   */\n      swap2\n      swap1\n      pop\n      jump\t// out\n        /* \"#utility.yul\":10770:11189   */\n    tag_67:\n        /* \"#utility.yul\":10936:10940   */\n      0x00\n        /* \"#utility.yul\":10974:10976   */\n      0x20\n        /* \"#utility.yul\":10963:10972   */\n      dup3\n        /* \"#utility.yul\":10959:10977   */\n      add\n        /* \"#utility.yul\":10951:10977   */\n      swap1\n      pop\n        /* \"#utility.yul\":11023:11032   */\n      dup2\n        /* \"#utility.yul\":11017:11021   */\n      dup2\n        /* \"#utility.yul\":11013:11033   */\n      sub\n        /* \"#utility.yul\":11009:11010   */\n      0x00\n        /* \"#utility.yul\":10998:11007   */\n      dup4\n        /* \"#utility.yul\":10994:11011   */\n      add\n        /* \"#utility.yul\":10987:11034   */\n      mstore\n        /* \"#utility.yul\":11051:11182   */\n      tag_350\n        /* \"#utility.yul\":11177:11181   */\n      dup2\n        /* \"#utility.yul\":11051:11182   */\n      tag_298\n      jump\t// in\n    tag_350:\n        /* \"#utility.yul\":11043:11182   */\n      swap1\n      pop\n        /* \"#utility.yul\":10770:11189   */\n      swap2\n      swap1\n      pop\n      jump\t// out\n        /* \"#utility.yul\":11195:11614   */\n    tag_59:\n        /* \"#utility.yul\":11361:11365   */\n      0x00\n        /* \"#utility.yul\":11399:11401   */\n      0x20\n        /* \"#utility.yul\":11388:11397   */\n      dup3\n        /* \"#utility.yul\":11384:11402   */\n      add\n        /* \"#utility.yul\":11376:11402   */\n      swap1\n      pop\n        /* \"#utility.yul\":11448:11457   */\n      dup2\n        /* \"#utility.yul\":11442:11446   */\n      dup2\n        /* \"#utility.yul\":11438:11458   */\n      sub\n        /* \"#utility.yul\":11434:11435   */\n      0x00\n        /* \"#utility.yul\":11423:11432   */\n      dup4\n        /* \"#utility.yul\":11419:11436   */\n      add\n        /* \"#utility.yul\":11412:11459   */\n      mstore\n        /* \"#utility.yul\":11476:11607   */\n      tag_352\n        /* \"#utility.yul\":11602:11606   */\n      dup2\n        /* \"#utility.yul\":11476:11607   */\n      tag_303\n      jump\t// in\n    tag_352:\n        /* \"#utility.yul\":11468:11607   */\n      swap1\n      pop\n        /* \"#utility.yul\":11195:11614   */\n      swap2\n      swap1\n      pop\n      jump\t// out\n        /* \"#utility.yul\":11620:12039   */\n    tag_63:\n        /* \"#utility.yul\":11786:11790   */\n      0x00\n        /* \"#utility.yul\":11824:11826   */\n      0x20\n        /* \"#utility.yul\":11813:11822   */\n      dup3\n        /* \"#utility.yul\":11809:11827   */\n      add\n        /* \"#utility.yul\":11801:11827   */\n      swap1\n      pop\n        /* \"#utility.yul\":11873:11882   */\n      dup2\n        /* \"#utility.yul\":11867:11871   */\n      dup2\n        /* \"#utility.yul\":11863:11883   */\n      sub\n        /* \"#utility.yul\":11859:11860   */\n      0x00\n        /* \"#utility.yul\":11848:11857   */\n      dup4\n        /* \"#utility.yul\":11844:11861   */\n      add\n        /* \"#utility.yul\":11837:11884   */\n      mstore\n        /* \"#utility.yul\":11901:12032   */\n      tag_354\n        /* \"#utility.yul\":12027:12031   */\n      dup2\n        /* \"#utility.yul\":11901:12032   */\n      tag_308\n      jump\t// in\n    tag_354:\n        /* \"#utility.yul\":11893:12032   */\n      swap1\n      pop\n        /* \"#utility.yul\":11620:12039   */\n      swap2\n      swap1\n      pop\n      jump\t// out\n        /* \"#utility.yul\":12045:12267   */\n    tag_26:\n        /* \"#utility.yul\":12138:12142   */\n      0x00\n        /* \"#utility.yul\":12176:12178   */\n      0x20\n        /* \"#utility.yul\":12165:12174   */\n      dup3\n        /* \"#utility.yul\":12161:12179   */\n      add\n        /* \"#utility.yul\":12153:12179   */\n      swap1\n      pop\n        /* \"#utility.yul\":12189:12260   */\n      tag_356\n        /* \"#utility.yul\":12257:12258   */\n      0x00\n        /* \"#utility.yul\":12246:12255   */\n      dup4\n        /* \"#utility.yul\":12242:12259   */\n      add\n        /* \"#utility.yul\":12233:12239   */\n      dup5\n        /* \"#utility.yul\":12189:12260   */\n      tag_324\n      jump\t// in\n    tag_356:\n        /* \"#utility.yul\":12045:12267   */\n      swap3\n      swap2\n      pop\n      pop\n      jump\t// out\n        /* \"#utility.yul\":12354:12506   */\n    tag_271:\n        /* \"#utility.yul\":12441:12445   */\n      0x00\n        /* \"#utility.yul\":12464:12467   */\n      dup2\n        /* \"#utility.yul\":12456:12467   */\n      swap1\n      pop\n        /* \"#utility.yul\":12494:12498   */\n      0x20\n        /* \"#utility.yul\":12489:12492   */\n      dup3\n        /* \"#utility.yul\":12485:12499   */\n      add\n        /* \"#utility.yul\":12477:12499   */\n      swap1\n      pop\n        /* \"#utility.yul\":12354:12506   */\n      swap2\n      swap1\n      pop\n      jump\t// out\n        /* \"#utility.yul\":12512:12646   */\n    tag_267:\n        /* \"#utility.yul\":12599:12605   */\n      0x00\n        /* \"#utility.yul\":12633:12638   */\n      dup2\n        /* \"#utility.yul\":12627:12639   */\n      mload\n        /* \"#utility.yul\":12617:12639   */\n      swap1\n      pop\n        /* \"#utility.yul\":12512:12646   */\n      swap2\n      swap1\n      pop\n      jump\t// out\n        /* \"#utility.yul\":12652:12785   */\n    tag_277:\n        /* \"#utility.yul\":12742:12746   */\n      0x00\n        /* \"#utility.yul\":12774:12778   */\n      0x20\n        /* \"#utility.yul\":12769:12772   */\n      dup3\n        /* \"#utility.yul\":12765:12779   */\n      add\n        /* \"#utility.yul\":12757:12779   */\n      swap1\n      pop\n        /* \"#utility.yul\":12652:12785   */\n      swap2\n      swap1\n      pop\n      jump\t// out\n        /* \"#utility.yul\":12791:12995   */\n    tag_269:\n        /* \"#utility.yul\":12910:12921   */\n      0x00\n        /* \"#utility.yul\":12944:12950   */\n      dup3\n        /* \"#utility.yul\":12939:12942   */\n      dup3\n        /* \"#utility.yul\":12932:12951   */\n      mstore\n        /* \"#utility.yul\":12984:12988   */\n      0x20\n        /* \"#utility.yul\":12979:12982   */\n      dup3\n        /* \"#utility.yul\":12975:12989   */\n      add\n        /* \"#utility.yul\":12960:12989   */\n      swap1\n      pop\n        /* \"#utility.yul\":12791:12995   */\n      swap3\n      swap2\n      pop\n      pop\n      jump\t// out\n        /* \"#utility.yul\":13001:13170   */\n    tag_285:\n        /* \"#utility.yul\":13085:13096   */\n      0x00\n        /* \"#utility.yul\":13119:13125   */\n      dup3\n        /* \"#utility.yul\":13114:13117   */\n      dup3\n        /* \"#utility.yul\":13107:13126   */\n      mstore\n        /* \"#utility.yul\":13159:13163   */\n      0x20\n        /* \"#utility.yul\":13154:13157   */\n      dup3\n        /* \"#utility.yul\":13150:13164   */\n      add\n        /* \"#utility.yul\":13135:13164   */\n      swap1\n      pop\n        /* \"#utility.yul\":13001:13170   */\n      swap3\n      swap2\n      pop\n      pop\n      jump\t// out\n        /* \"#utility.yul\":13176:13367   */\n    tag_160:\n        /* \"#utility.yul\":13216:13220   */\n      0x00\n        /* \"#utility.yul\":13236:13256   */\n      tag_365\n        /* \"#utility.yul\":13254:13255   */\n      dup3\n        /* \"#utility.yul\":13236:13256   */\n      tag_323\n      jump\t// in\n    tag_365:\n        /* \"#utility.yul\":13231:13256   */\n      swap2\n      pop\n        /* \"#utility.yul\":13270:13290   */\n      tag_366\n        /* \"#utility.yul\":13288:13289   */\n      dup4\n        /* \"#utility.yul\":13270:13290   */\n      tag_323\n      jump\t// in\n    tag_366:\n        /* \"#utility.yul\":13265:13290   */\n      swap3\n      pop\n        /* \"#utility.yul\":13309:13310   */\n      dup3\n        /* \"#utility.yul\":13306:13307   */\n      dup3\n        /* \"#utility.yul\":13303:13311   */\n      lt\n        /* \"#utility.yul\":13300:13334   */\n      iszero\n      tag_367\n      jumpi\n        /* \"#utility.yul\":13314:13332   */\n      tag_368\n      tag_369\n      jump\t// in\n    tag_368:\n        /* \"#utility.yul\":13300:13334   */\n    tag_367:\n        /* \"#utility.yul\":13359:13360   */\n      dup3\n        /* \"#utility.yul\":13356:13357   */\n      dup3\n        /* \"#utility.yul\":13352:13361   */\n      sub\n        /* \"#utility.yul\":13344:13361   */\n      swap1\n      pop\n        /* \"#utility.yul\":13176:13367   */\n      swap3\n      swap2\n      pop\n      pop\n      jump\t// out\n        /* \"#utility.yul\":13373:13469   */\n    tag_263:\n        /* \"#utility.yul\":13410:13417   */\n      0x00\n        /* \"#utility.yul\":13439:13463   */\n      tag_371\n        /* \"#utility.yul\":13457:13462   */\n      dup3\n        /* \"#utility.yul\":13439:13463   */\n      tag_372\n      jump\t// in\n    tag_371:\n        /* \"#utility.yul\":13428:13463   */\n      swap1\n      pop\n        /* \"#utility.yul\":13373:13469   */\n      swap2\n      swap1\n      pop\n      jump\t// out\n        /* \"#utility.yul\":13475:13579   */\n    tag_259:\n        /* \"#utility.yul\":13520:13527   */\n      0x00\n        /* \"#utility.yul\":13549:13573   */\n      tag_374\n        /* \"#utility.yul\":13567:13572   */\n      dup3\n        /* \"#utility.yul\":13549:13573   */\n      tag_372\n      jump\t// in\n    tag_374:\n        /* \"#utility.yul\":13538:13573   */\n      swap1\n      pop\n        /* \"#utility.yul\":13475:13579   */\n      swap2\n      swap1\n      pop\n      jump\t// out\n        /* \"#utility.yul\":13585:13675   */\n    tag_281:\n        /* \"#utility.yul\":13619:13626   */\n      0x00\n        /* \"#utility.yul\":13662:13667   */\n      dup2\n        /* \"#utility.yul\":13655:13668   */\n      iszero\n        /* \"#utility.yul\":13648:13669   */\n      iszero\n        /* \"#utility.yul\":13637:13669   */\n      swap1\n      pop\n        /* \"#utility.yul\":13585:13675   */\n      swap2\n      swap1\n      pop\n      jump\t// out\n        /* \"#utility.yul\":13681:13807   */\n    tag_372:\n        /* \"#utility.yul\":13718:13725   */\n      0x00\n        /* \"#utility.yul\":13758:13800   */\n      0xffffffffffffffffffffffffffffffffffffffff\n        /* \"#utility.yul\":13751:13756   */\n      dup3\n        /* \"#utility.yul\":13747:13801   */\n      and\n        /* \"#utility.yul\":13736:13801   */\n      swap1\n      pop\n        /* \"#utility.yul\":13681:13807   */\n      swap2\n      swap1\n      pop\n      jump\t// out\n        /* \"#utility.yul\":13813:13890   */\n    tag_323:\n        /* \"#utility.yul\":13850:13857   */\n      0x00\n        /* \"#utility.yul\":13879:13884   */\n      dup2\n        /* \"#utility.yul\":13868:13884   */\n      swap1\n      pop\n        /* \"#utility.yul\":13813:13890   */\n      swap2\n      swap1\n      pop\n      jump\t// out\n        /* \"#utility.yul\":13896:14030   */\n    tag_255:\n        /* \"#utility.yul\":13954:13963   */\n      0x00\n        /* \"#utility.yul\":13987:14024   */\n      tag_379\n        /* \"#utility.yul\":14018:14023   */\n      dup3\n        /* \"#utility.yul\":13987:14024   */\n      tag_380\n      jump\t// in\n    tag_379:\n        /* \"#utility.yul\":13974:14024   */\n      swap1\n      pop\n        /* \"#utility.yul\":13896:14030   */\n      swap2\n      swap1\n      pop\n      jump\t// out\n        /* \"#utility.yul\":14036:14162   */\n    tag_380:\n        /* \"#utility.yul\":14086:14095   */\n      0x00\n        /* \"#utility.yul\":14119:14156   */\n      tag_382\n        /* \"#utility.yul\":14150:14155   */\n      dup3\n        /* \"#utility.yul\":14119:14156   */\n      tag_383\n      jump\t// in\n    tag_382:\n        /* \"#utility.yul\":14106:14156   */\n      swap1\n      pop\n        /* \"#utility.yul\":14036:14162   */\n      swap2\n      swap1\n      pop\n      jump\t// out\n        /* \"#utility.yul\":14168:14281   */\n    tag_383:\n        /* \"#utility.yul\":14218:14227   */\n      0x00\n        /* \"#utility.yul\":14251:14275   */\n      tag_385\n        /* \"#utility.yul\":14269:14274   */\n      dup3\n        /* \"#utility.yul\":14251:14275   */\n      tag_372\n      jump\t// in\n    tag_385:\n        /* \"#utility.yul\":14238:14275   */\n      swap1\n      pop\n        /* \"#utility.yul\":14168:14281   */\n      swap2\n      swap1\n      pop\n      jump\t// out\n        /* \"#utility.yul\":14287:14520   */\n    tag_90:\n        /* \"#utility.yul\":14326:14329   */\n      0x00\n        /* \"#utility.yul\":14349:14373   */\n      tag_387\n        /* \"#utility.yul\":14367:14372   */\n      dup3\n        /* \"#utility.yul\":14349:14373   */\n      tag_323\n      jump\t// in\n    tag_387:\n        /* \"#utility.yul\":14340:14373   */\n      swap2\n      pop\n        /* \"#utility.yul\":14395:14461   */\n      0xffffffffffffffffffffffffffffffffffffffffffffffffffffffffffffffff\n        /* \"#utility.yul\":14388:14393   */\n      dup3\n        /* \"#utility.yul\":14385:14462   */\n      eq\n        /* \"#utility.yul\":14382:14485   */\n      iszero\n      tag_388\n      jumpi\n        /* \"#utility.yul\":14465:14483   */\n      tag_389\n      tag_369\n      jump\t// in\n    tag_389:\n        /* \"#utility.yul\":14382:14485   */\n    tag_388:\n        /* \"#utility.yul\":14512:14513   */\n      0x01\n        /* \"#utility.yul\":14505:14510   */\n      dup3\n        /* \"#utility.yul\":14501:14514   */\n      add\n        /* \"#utility.yul\":14494:14514   */\n      swap1\n      pop\n        /* \"#utility.yul\":14287:14520   */\n      swap2\n      swap1\n      pop\n      jump\t// out\n        /* \"#utility.yul\":14526:14706   */\n    tag_369:\n        /* \"#utility.yul\":14574:14651   */\n      0x4e487b7100000000000000000000000000000000000000000000000000000000\n        /* \"#utility.yul\":14571:14572   */\n      0x00\n        /* \"#utility.yul\":14564:14652   */\n      mstore\n        /* \"#utility.yul\":14671:14675   */\n      0x11\n        /* \"#utility.yul\":14668:14669   */\n      0x04\n        /* \"#utility.yul\":14661:14676   */\n      mstore\n        /* \"#utility.yul\":14695:14699   */\n      0x24\n        /* \"#utility.yul\":14692:14693   */\n      0x00\n        /* \"#utility.yul\":14685:14700   */\n      revert\n        /* \"#utility.yul\":14712:14892   */\n    tag_106:\n        /* \"#utility.yul\":14760:14837   */\n      0x4e487b7100000000000000000000000000000000000000000000000000000000\n        /* \"#utility.yul\":14757:14758   */\n      0x00\n        /* \"#utility.yul\":14750:14838   */\n      mstore\n        /* \"#utility.yul\":14857:14861   */\n      0x32\n        /* \"#utility.yul\":14854:14855   */\n      0x04\n        /* \"#utility.yul\":14847:14862   */\n      mstore\n        /* \"#utility.yul\":14881:14885   */\n      0x24\n        /* \"#utility.yul\":14878:14879   */\n      0x00\n        /* \"#utility.yul\":14871:14886   */\n      revert\n        /* \"#utility.yul\":14898:15078   */\n    tag_94:\n        /* \"#utility.yul\":14946:15023   */\n      0x4e487b7100000000000000000000000000000000000000000000000000000000\n        /* \"#utility.yul\":14943:14944   */\n      0x00\n        /* \"#utility.yul\":14936:15024   */\n      mstore\n        /* \"#utility.yul\":15043:15047   */\n      0x41\n        /* \"#utility.yul\":15040:15041   */\n      0x04\n        /* \"#utility.yul\":15033:15048   */\n      mstore\n        /* \"#utility.yul\":15067:15071   */\n      0x24\n        /* \"#utility.yul\":15064:15065   */\n      0x00\n        /* \"#utility.yul\":15057:15072   */\n      revert\n        /* \"#utility.yul\":15207:15324   */\n    tag_235:\n        /* \"#utility.yul\":15316:15317   */\n      0x00\n        /* \"#utility.yul\":15313:15314   */\n      dup1\n        /* \"#utility.yul\":15306:15318   */\n      revert\n        /* \"#utility.yul\":15330:15493   */\n    tag_287:\n        /* \"#utility.yul\":15470:15485   */\n      0x4e4654206e6f7420666f756e6400000000000000000000000000000000000000\n        /* \"#utility.yul\":15466:15467   */\n      0x00\n        /* \"#utility.yul\":15458:15464   */\n      dup3\n        /* \"#utility.yul\":15454:15468   */\n      add\n        /* \"#utility.yul\":15447:15486   */\n      mstore\n        /* \"#utility.yul\":15330:15493   */\n      pop\n      jump\t// out\n        /* \"#utility.yul\":15499:15676   */\n    tag_292:\n        /* \"#utility.yul\":15639:15668   */\n      0x436f756e7465723a2064656372656d656e74206f766572666c6f770000000000\n        /* \"#utility.yul\":15635:15636   */\n      0x00\n        /* \"#utility.yul\":15627:15633   */\n      dup3\n        /* \"#utility.yul\":15623:15637   */\n      add\n        /* \"#utility.yul\":15616:15669   */\n      mstore\n        /* \"#utility.yul\":15499:15676   */\n      pop\n      jump\t// out\n        /* \"#utility.yul\":15682:15907   */\n    tag_297:\n        /* \"#utility.yul\":15822:15856   */\n      0x4e6f7420656e6f75676820657468657220746f20636f7665722061736b696e67\n        /* \"#utility.yul\":15818:15819   */\n      0x00\n        /* \"#utility.yul\":15810:15816   */\n      dup3\n        /* \"#utility.yul\":15806:15820   */\n      add\n        /* \"#utility.yul\":15799:15857   */\n      mstore\n        /* \"#utility.yul\":15891:15899   */\n      0x2070726963650000000000000000000000000000000000000000000000000000\n        /* \"#utility.yul\":15886:15888   */\n      0x20\n        /* \"#utility.yul\":15878:15884   */\n      dup3\n        /* \"#utility.yul\":15874:15889   */\n      add\n        /* \"#utility.yul\":15867:15900   */\n      mstore\n        /* \"#utility.yul\":15682:15907   */\n      pop\n      jump\t// out\n        /* \"#utility.yul\":15913:16095   */\n    tag_302:\n        /* \"#utility.yul\":16053:16087   */\n      0x4e6f7420656e6f75676820657468657220666f72206c697374696e6720666565\n        /* \"#utility.yul\":16049:16050   */\n      0x00\n        /* \"#utility.yul\":16041:16047   */\n      dup3\n        /* \"#utility.yul\":16037:16051   */\n      add\n        /* \"#utility.yul\":16030:16088   */\n      mstore\n        /* \"#utility.yul\":15913:16095   */\n      pop\n      jump\t// out\n        /* \"#utility.yul\":16101:16282   */\n    tag_307:\n        /* \"#utility.yul\":16241:16274   */\n      0x5265656e7472616e637947756172643a207265656e7472616e742063616c6c00\n        /* \"#utility.yul\":16237:16238   */\n      0x00\n        /* \"#utility.yul\":16229:16235   */\n      dup3\n        /* \"#utility.yul\":16225:16239   */\n      add\n        /* \"#utility.yul\":16218:16275   */\n      mstore\n        /* \"#utility.yul\":16101:16282   */\n      pop\n      jump\t// out\n        /* \"#utility.yul\":16288:16466   */\n    tag_312:\n        /* \"#utility.yul\":16428:16458   */\n      0x5072696365206d757374206265206174206c6561737420312077656900000000\n        /* \"#utility.yul\":16424:16425   */\n      0x00\n        /* \"#utility.yul\":16416:16422   */\n      dup3\n        /* \"#utility.yul\":16412:16426   */\n      add\n        /* \"#utility.yul\":16405:16459   */\n      mstore\n        /* \"#utility.yul\":16288:16466   */\n      pop\n      jump\t// out\n        /* \"#utility.yul\":16472:16594   */\n    tag_224:\n        /* \"#utility.yul\":16545:16569   */\n      tag_403\n        /* \"#utility.yul\":16563:16568   */\n      dup2\n        /* \"#utility.yul\":16545:16569   */\n      tag_263\n      jump\t// in\n    tag_403:\n        /* \"#utility.yul\":16538:16543   */\n      dup2\n        /* \"#utility.yul\":16535:16570   */\n      eq\n        /* \"#utility.yul\":16525:16588   */\n      tag_404\n      jumpi\n        /* \"#utility.yul\":16584:16585   */\n      0x00\n        /* \"#utility.yul\":16581:16582   */\n      dup1\n        /* \"#utility.yul\":16574:16586   */\n      revert\n        /* \"#utility.yul\":16525:16588   */\n    tag_404:\n        /* \"#utility.yul\":16472:16594   */\n      pop\n      jump\t// out\n        /* \"#utility.yul\":16600:16722   */\n    tag_231:\n        /* \"#utility.yul\":16673:16697   */\n      tag_406\n        /* \"#utility.yul\":16691:16696   */\n      dup2\n        /* \"#utility.yul\":16673:16697   */\n      tag_323\n      jump\t// in\n    tag_406:\n        /* \"#utility.yul\":16666:16671   */\n      dup2\n        /* \"#utility.yul\":16663:16698   */\n      eq\n        /* \"#utility.yul\":16653:16716   */\n      tag_407\n      jumpi\n        /* \"#utility.yul\":16712:16713   */\n      0x00\n        /* \"#utility.yul\":16709:16710   */\n      dup1\n        /* \"#utility.yul\":16702:16714   */\n      revert\n        /* \"#utility.yul\":16653:16716   */\n    tag_407:\n        /* \"#utility.yul\":16600:16722   */\n      pop\n      jump\t// out\n\n    auxdata: 0xa2646970667358221220a2d55ef51492f6cf4e49582e9c5987232fd7666103f21bda1dd4ecc8e5d38b9964736f6c63430008070033\n}\n",
				"bytecode": {
					"linkReferences": {},
					"object": "608060405266071afd498d000060035534801561001b57600080fd5b50600160008190555033600460006101000a81548173ffffffffffffffffffffffffffffffffffffffff021916908373ffffffffffffffffffffffffffffffffffffffff1602179055506123ba806100746000396000f3fe6080604052600436106100915760003560e01c80638492095a116100595780638492095a146101615780638d6cb3fb1461018c578063a46b5c5a146101b7578063ad05f1b4146101e2578063b8fe6abe146101fe57610091565b806304935694146100965780631f4cc4db146100b25780632b86ae38146100dd5780632f634a90146101085780634ddf4f8f14610145575b600080fd5b6100b060048036038101906100ab9190611c24565b610229565b005b3480156100be57600080fd5b506100c7610642565b6040516100d49190611f54565b60405180910390f35b3480156100e957600080fd5b506100f26109b1565b6040516100ff9190612036565b60405180910390f35b34801561011457600080fd5b5061012f600480360381019061012a9190611be4565b6109b7565b60405161013c9190611e94565b60405180910390f35b61015f600480360381019061015a9190611be4565b610a4a565b005b34801561016d57600080fd5b50610176610e33565b6040516101839190611f54565b60405180910390f35b34801561019857600080fd5b506101a161114a565b6040516101ae9190611f54565b60405180910390f35b3480156101c357600080fd5b506101cc61139d565b6040516101d99190611f54565b60405180910390f35b6101fc60048036038101906101f79190611c24565b6116b4565b005b34801561020a57600080fd5b50610213611a74565b6040516102209190612036565b60405180910390f35b6002600054141561026f576040517f08c379a000000000000000000000000000000000000000000000000000000000815260040161026690611ff6565b60405180910390fd5b600260008190555080600081116102bb576040517f08c379a00000000000000000000000000000000000000000000000000000000081526004016102b290612016565b60405180910390fd5b60035434146102ff576040517f08c379a00000000000000000000000000000000000000000000000000000000081526004016102f690611fd6565b60405180910390fd5b6000600560008581526020019081526020016000206040518060c001604052908160008201548152602001600182015481526020016002820160009054906101000a900473ffffffffffffffffffffffffffffffffffffffff1673ffffffffffffffffffffffffffffffffffffffff1673ffffffffffffffffffffffffffffffffffffffff1681526020016003820160009054906101000a900473ffffffffffffffffffffffffffffffffffffffff1673ffffffffffffffffffffffffffffffffffffffff1673ffffffffffffffffffffffffffffffffffffffff1681526020016004820160009054906101000a900473ffffffffffffffffffffffffffffffffffffffff1673ffffffffffffffffffffffffffffffffffffffff1673ffffffffffffffffffffffffffffffffffffffff1681526020016004820160149054906101000a900460ff1615151515815250509050600073ffffffffffffffffffffffffffffffffffffffff16816060015173ffffffffffffffffffffffffffffffffffffffff1614156104c6576040517f08c379a00000000000000000000000000000000000000000000000000000000081526004016104bd90611f76565b60405180910390fd5b8473ffffffffffffffffffffffffffffffffffffffff166323b872dd3330876040518463ffffffff1660e01b815260040161050393929190611ee6565b600060405180830381600087803b15801561051d57600080fd5b505af1158015610531573d6000803e3d6000fd5b5050505033816040019073ffffffffffffffffffffffffffffffffffffffff16908173ffffffffffffffffffffffffffffffffffffffff168152505030816060019073ffffffffffffffffffffffffffffffffffffffff16908173ffffffffffffffffffffffffffffffffffffffff168152505060018160a0019015159081151581525050828160200181815250506105ca6001611a7e565b3073ffffffffffffffffffffffffffffffffffffffff163373ffffffffffffffffffffffffffffffffffffffff167fa0c6c0d02d86fdacecbaa5fdf5894bab204e31a778250474108540733a9b8d1987878760405161062b93929190611f1d565b60405180910390a350506001600081905550505050565b606060006106506002611ada565b9050600080600190505b828111610719573373ffffffffffffffffffffffffffffffffffffffff166005600083815260200190815260200160002060020160009054906101000a900473ffffffffffffffffffffffffffffffffffffffff1673ffffffffffffffffffffffffffffffffffffffff161480156106f257506005600082815260200190815260200160002060040160149054906101000a900460ff165b156107065781806107029061215f565b9250505b80806107119061215f565b91505061065a565b5060008167ffffffffffffffff81111561073657610735612206565b5b60405190808252806020026020018201604052801561076f57816020015b61075c611afe565b8152602001906001900390816107545790505b509050600080600190505b8481116109a6573373ffffffffffffffffffffffffffffffffffffffff166005600083815260200190815260200160002060020160009054906101000a900473ffffffffffffffffffffffffffffffffffffffff1673ffffffffffffffffffffffffffffffffffffffff1614801561081257506005600082815260200190815260200160002060040160149054906101000a900460ff165b1561099357600560008281526020019081526020016000206040518060c001604052908160008201548152602001600182015481526020016002820160009054906101000a900473ffffffffffffffffffffffffffffffffffffffff1673ffffffffffffffffffffffffffffffffffffffff1673ffffffffffffffffffffffffffffffffffffffff1681526020016003820160009054906101000a900473ffffffffffffffffffffffffffffffffffffffff1673ffffffffffffffffffffffffffffffffffffffff1673ffffffffffffffffffffffffffffffffffffffff1681526020016004820160009054906101000a900473ffffffffffffffffffffffffffffffffffffffff1673ffffffffffffffffffffffffffffffffffffffff1673ffffffffffffffffffffffffffffffffffffffff1681526020016004820160149054906101000a900460ff161515151581525050838381518110610979576109786121d7565b5b6020026020010181905250818061098f9061215f565b9250505b808061099e9061215f565b91505061077a565b508194505050505090565b60035481565b60008273ffffffffffffffffffffffffffffffffffffffff16636352211e836040518263ffffffff1660e01b81526004016109f29190612036565b60206040518083038186803b158015610a0a57600080fd5b505afa158015610a1e573d6000803e3d6000fd5b505050506040513d601f19601f82011682018060405250810190610a429190611bb7565b905092915050565b60026000541415610a90576040517f08c379a0000000000000000000000000000000000000000000000000000000008152600401610a8790611ff6565b60405180910390fd5b60026000819055506000600560008381526020019081526020016000206040518060c001604052908160008201548152602001600182015481526020016002820160009054906101000a900473ffffffffffffffffffffffffffffffffffffffff1673ffffffffffffffffffffffffffffffffffffffff1673ffffffffffffffffffffffffffffffffffffffff1681526020016003820160009054906101000a900473ffffffffffffffffffffffffffffffffffffffff1673ffffffffffffffffffffffffffffffffffffffff1673ffffffffffffffffffffffffffffffffffffffff1681526020016004820160009054906101000a900473ffffffffffffffffffffffffffffffffffffffff1673ffffffffffffffffffffffffffffffffffffffff1673ffffffffffffffffffffffffffffffffffffffff1681526020016004820160149054906101000a900460ff1615151515815250509050600073ffffffffffffffffffffffffffffffffffffffff16816060015173ffffffffffffffffffffffffffffffffffffffff161415610c5f576040517f08c379a0000000000000000000000000000000000000000000000000000000008152600401610c5690611f76565b60405180910390fd5b8060200151341015610ca6576040517f08c379a0000000000000000000000000000000000000000000000000000000008152600401610c9d90611fb6565b60405180910390fd5b6000339050816040015173ffffffffffffffffffffffffffffffffffffffff166108fc349081150290604051600060405180830381858888f19350505050158015610cf5573d6000803e3d6000fd5b508373ffffffffffffffffffffffffffffffffffffffff166323b872dd3083866040518463ffffffff1660e01b8152600401610d3393929190611eaf565b600060405180830381600087803b158015610d4d57600080fd5b505af1158015610d61573d6000803e3d6000fd5b5050505080826060019073ffffffffffffffffffffffffffffffffffffffff16908173ffffffffffffffffffffffffffffffffffffffff168152505060008260a0019015159081151581525050610db86001611ae8565b8073ffffffffffffffffffffffffffffffffffffffff16826040015173ffffffffffffffffffffffffffffffffffffffff167f16f1dbd97e6bf646d429ed186cce832f1f7fd9907814293b83181e9970ab7bd2868634604051610e1d93929190611f1d565b60405180910390a3505060016000819055505050565b60606000610e416002611ada565b9050600080600190505b828111610ede573373ffffffffffffffffffffffffffffffffffffffff166005600083815260200190815260200160002060040160009054906101000a900473ffffffffffffffffffffffffffffffffffffffff1673ffffffffffffffffffffffffffffffffffffffff161415610ecb578180610ec79061215f565b9250505b8080610ed69061215f565b915050610e4b565b5060008167ffffffffffffffff811115610efb57610efa612206565b5b604051908082528060200260200182016040528015610f3457816020015b610f21611afe565b815260200190600190039081610f195790505b509050600080600190505b84811161113f573373ffffffffffffffffffffffffffffffffffffffff166005600083815260200190815260200160002060040160009054906101000a900473ffffffffffffffffffffffffffffffffffffffff1673ffffffffffffffffffffffffffffffffffffffff16141561112c57600560008281526020019081526020016000206040518060c001604052908160008201548152602001600182015481526020016002820160009054906101000a900473ffffffffffffffffffffffffffffffffffffffff1673ffffffffffffffffffffffffffffffffffffffff1673ffffffffffffffffffffffffffffffffffffffff1681526020016003820160009054906101000a900473ffffffffffffffffffffffffffffffffffffffff1673ffffffffffffffffffffffffffffffffffffffff1673ffffffffffffffffffffffffffffffffffffffff1681526020016004820160009054906101000a900473ffffffffffffffffffffffffffffffffffffffff1673ffffffffffffffffffffffffffffffffffffffff1673ffffffffffffffffffffffffffffffffffffffff1681526020016004820160149054906101000a900460ff161515151581525050838381518110611112576111116121d7565b5b602002602001018190525081806111289061215f565b9250505b80806111379061215f565b915050610f3f565b508194505050505090565b606060006111586002611ada565b905060006111666001611ada565b82611171919061209b565b905060008167ffffffffffffffff81111561118f5761118e612206565b5b6040519080825280602002602001820160405280156111c857816020015b6111b5611afe565b8152602001906001900390816111ad5790505b509050600080600190505b848111611392576005600082815260200190815260200160002060040160149054906101000a900460ff161561137f57600560008281526020019081526020016000206040518060c001604052908160008201548152602001600182015481526020016002820160009054906101000a900473ffffffffffffffffffffffffffffffffffffffff1673ffffffffffffffffffffffffffffffffffffffff1673ffffffffffffffffffffffffffffffffffffffff1681526020016003820160009054906101000a900473ffffffffffffffffffffffffffffffffffffffff1673ffffffffffffffffffffffffffffffffffffffff1673ffffffffffffffffffffffffffffffffffffffff1681526020016004820160009054906101000a900473ffffffffffffffffffffffffffffffffffffffff1673ffffffffffffffffffffffffffffffffffffffff1673ffffffffffffffffffffffffffffffffffffffff1681526020016004820160149054906101000a900460ff161515151581525050838381518110611365576113646121d7565b5b6020026020010181905250818061137b9061215f565b9250505b808061138a9061215f565b9150506111d3565b508194505050505090565b606060006113ab6002611ada565b9050600080600190505b828111611448573373ffffffffffffffffffffffffffffffffffffffff166005600083815260200190815260200160002060030160009054906101000a900473ffffffffffffffffffffffffffffffffffffffff1673ffffffffffffffffffffffffffffffffffffffff1614156114355781806114319061215f565b9250505b80806114409061215f565b9150506113b5565b5060008167ffffffffffffffff81111561146557611464612206565b5b60405190808252806020026020018201604052801561149e57816020015b61148b611afe565b8152602001906001900390816114835790505b509050600080600190505b8481116116a9573373ffffffffffffffffffffffffffffffffffffffff166005600083815260200190815260200160002060030160009054906101000a900473ffffffffffffffffffffffffffffffffffffffff1673ffffffffffffffffffffffffffffffffffffffff16141561169657600560008281526020019081526020016000206040518060c001604052908160008201548152602001600182015481526020016002820160009054906101000a900473ffffffffffffffffffffffffffffffffffffffff1673ffffffffffffffffffffffffffffffffffffffff1673ffffffffffffffffffffffffffffffffffffffff1681526020016003820160009054906101000a900473ffffffffffffffffffffffffffffffffffffffff1673ffffffffffffffffffffffffffffffffffffffff1673ffffffffffffffffffffffffffffffffffffffff1681526020016004820160009054906101000a900473ffffffffffffffffffffffffffffffffffffffff1673ffffffffffffffffffffffffffffffffffffffff1673ffffffffffffffffffffffffffffffffffffffff1681526020016004820160149054906101000a900460ff16151515158152505083838151811061167c5761167b6121d7565b5b602002602001018190525081806116929061215f565b9250505b80806116a19061215f565b9150506114a9565b508194505050505090565b600260005414156116fa576040517f08c379a00000000000000000000000000000000000000000000000000000000081526004016116f190611ff6565b60405180910390fd5b60026000819055508060008111611746576040517f08c379a000000000000000000000000000000000000000000000000000000000815260040161173d90612016565b60405180910390fd5b600354341461178a576040517f08c379a000000000000000000000000000000000000000000000000000000000815260040161178190611fd6565b60405180910390fd5b8373ffffffffffffffffffffffffffffffffffffffff166323b872dd3330866040518463ffffffff1660e01b81526004016117c793929190611ee6565b600060405180830381600087803b1580156117e157600080fd5b505af11580156117f5573d6000803e3d6000fd5b505050506040518060c001604052808481526020018381526020013373ffffffffffffffffffffffffffffffffffffffff1681526020013073ffffffffffffffffffffffffffffffffffffffff1681526020013373ffffffffffffffffffffffffffffffffffffffff1681526020016001151581525060056000858152602001908152602001600020600082015181600001556020820151816001015560408201518160020160006101000a81548173ffffffffffffffffffffffffffffffffffffffff021916908373ffffffffffffffffffffffffffffffffffffffff16021790555060608201518160030160006101000a81548173ffffffffffffffffffffffffffffffffffffffff021916908373ffffffffffffffffffffffffffffffffffffffff16021790555060808201518160040160006101000a81548173ffffffffffffffffffffffffffffffffffffffff021916908373ffffffffffffffffffffffffffffffffffffffff16021790555060a08201518160040160146101000a81548160ff0219169083151502179055509050506119946002611ae8565b600460009054906101000a900473ffffffffffffffffffffffffffffffffffffffff1673ffffffffffffffffffffffffffffffffffffffff166108fc349081150290604051600060405180830381858888f193505050501580156119fc573d6000803e3d6000fd5b503073ffffffffffffffffffffffffffffffffffffffff163373ffffffffffffffffffffffffffffffffffffffff167fa0c6c0d02d86fdacecbaa5fdf5894bab204e31a778250474108540733a9b8d19868686604051611a5e93929190611f1d565b60405180910390a3506001600081905550505050565b6000600354905090565b60008160000154905060008111611aca576040517f08c379a0000000000000000000000000000000000000000000000000000000008152600401611ac190611f96565b60405180910390fd5b6001810382600001819055505050565b600081600001549050919050565b6001816000016000828254019250508190555050565b6040518060c001604052806000815260200160008152602001600073ffffffffffffffffffffffffffffffffffffffff168152602001600073ffffffffffffffffffffffffffffffffffffffff168152602001600073ffffffffffffffffffffffffffffffffffffffff1681526020016000151581525090565b600081359050611b8781612356565b92915050565b600081519050611b9c81612356565b92915050565b600081359050611bb18161236d565b92915050565b600060208284031215611bcd57611bcc612235565b5b6000611bdb84828501611b8d565b91505092915050565b60008060408385031215611bfb57611bfa612235565b5b6000611c0985828601611b78565b9250506020611c1a85828601611ba2565b9150509250929050565b600080600060608486031215611c3d57611c3c612235565b5b6000611c4b86828701611b78565b9350506020611c5c86828701611ba2565b9250506040611c6d86828701611ba2565b9150509250925092565b6000611c838383611dfb565b60c08301905092915050565b611c9881612129565b82525050565b611ca7816120e1565b82525050565b611cb6816120cf565b82525050565b6000611cc782612061565b611cd18185612079565b9350611cdc83612051565b8060005b83811015611d0d578151611cf48882611c77565b9750611cff8361206c565b925050600181019050611ce0565b5085935050505092915050565b611d23816120f3565b82525050565b6000611d36600d8361208a565b9150611d418261223a565b602082019050919050565b6000611d59601b8361208a565b9150611d6482612263565b602082019050919050565b6000611d7c60268361208a565b9150611d878261228c565b604082019050919050565b6000611d9f60208361208a565b9150611daa826122db565b602082019050919050565b6000611dc2601f8361208a565b9150611dcd82612304565b602082019050919050565b6000611de5601c8361208a565b9150611df08261232d565b602082019050919050565b60c082016000820151611e116000850182611e76565b506020820151611e246020850182611e76565b506040820151611e376040850182611c9e565b506060820151611e4a6060850182611c9e565b506080820151611e5d6080850182611c9e565b5060a0820151611e7060a0850182611d1a565b50505050565b611e7f8161211f565b82525050565b611e8e8161211f565b82525050565b6000602082019050611ea96000830184611cad565b92915050565b6000606082019050611ec46000830186611cad565b611ed16020830185611c8f565b611ede6040830184611e85565b949350505050565b6000606082019050611efb6000830186611cad565b611f086020830185611cad565b611f156040830184611e85565b949350505050565b6000606082019050611f326000830186611cad565b611f3f6020830185611e85565b611f4c6040830184611e85565b949350505050565b60006020820190508181036000830152611f6e8184611cbc565b905092915050565b60006020820190508181036000830152611f8f81611d29565b9050919050565b60006020820190508181036000830152611faf81611d4c565b9050919050565b60006020820190508181036000830152611fcf81611d6f565b9050919050565b60006020820190508181036000830152611fef81611d92565b9050919050565b6000602082019050818103600083015261200f81611db5565b9050919050565b6000602082019050818103600083015261202f81611dd8565b9050919050565b600060208201905061204b6000830184611e85565b92915050565b6000819050602082019050919050565b600081519050919050565b6000602082019050919050565b600082825260208201905092915050565b600082825260208201905092915050565b60006120a68261211f565b91506120b18361211f565b9250828210156120c4576120c36121a8565b5b828203905092915050565b60006120da826120ff565b9050919050565b60006120ec826120ff565b9050919050565b60008115159050919050565b600073ffffffffffffffffffffffffffffffffffffffff82169050919050565b6000819050919050565b60006121348261213b565b9050919050565b60006121468261214d565b9050919050565b6000612158826120ff565b9050919050565b600061216a8261211f565b91507fffffffffffffffffffffffffffffffffffffffffffffffffffffffffffffffff82141561219d5761219c6121a8565b5b600182019050919050565b7f4e487b7100000000000000000000000000000000000000000000000000000000600052601160045260246000fd5b7f4e487b7100000000000000000000000000000000000000000000000000000000600052603260045260246000fd5b7f4e487b7100000000000000000000000000000000000000000000000000000000600052604160045260246000fd5b600080fd5b7f4e4654206e6f7420666f756e6400000000000000000000000000000000000000600082015250565b7f436f756e7465723a2064656372656d656e74206f766572666c6f770000000000600082015250565b7f4e6f7420656e6f75676820657468657220746f20636f7665722061736b696e6760008201527f2070726963650000000000000000000000000000000000000000000000000000602082015250565b7f4e6f7420656e6f75676820657468657220666f72206c697374696e6720666565600082015250565b7f5265656e7472616e637947756172643a207265656e7472616e742063616c6c00600082015250565b7f5072696365206d757374206265206174206c6561737420312077656900000000600082015250565b61235f816120cf565b811461236a57600080fd5b50565b6123768161211f565b811461238157600080fd5b5056fea2646970667358221220a2d55ef51492f6cf4e49582e9c5987232fd7666103f21bda1dd4ecc8e5d38b9964736f6c63430008070033",
					"opcodes": "PUSH1 0x80 PUSH1 0x40 MSTORE PUSH7 0x71AFD498D0000 PUSH1 0x3 SSTORE CALLVALUE DUP1 ISZERO PUSH2 0x1B JUMPI PUSH1 0x0 DUP1 REVERT JUMPDEST POP PUSH1 0x1 PUSH1 0x0 DUP2 SWAP1 SSTORE POP CALLER PUSH1 0x4 PUSH1 0x0 PUSH2 0x100 EXP DUP2 SLOAD DUP2 PUSH20 0xFFFFFFFFFFFFFFFFFFFFFFFFFFFFFFFFFFFFFFFF MUL NOT AND SWAP1 DUP4 PUSH20 0xFFFFFFFFFFFFFFFFFFFFFFFFFFFFFFFFFFFFFFFF AND MUL OR SWAP1 SSTORE POP PUSH2 0x23BA DUP1 PUSH2 0x74 PUSH1 0x0 CODECOPY PUSH1 0x0 RETURN INVALID PUSH1 0x80 PUSH1 0x40 MSTORE PUSH1 0x4 CALLDATASIZE LT PUSH2 0x91 JUMPI PUSH1 0x0 CALLDATALOAD PUSH1 0xE0 SHR DUP1 PUSH4 0x8492095A GT PUSH2 0x59 JUMPI DUP1 PUSH4 0x8492095A EQ PUSH2 0x161 JUMPI DUP1 PUSH4 0x8D6CB3FB EQ PUSH2 0x18C JUMPI DUP1 PUSH4 0xA46B5C5A EQ PUSH2 0x1B7 JUMPI DUP1 PUSH4 0xAD05F1B4 EQ PUSH2 0x1E2 JUMPI DUP1 PUSH4 0xB8FE6ABE EQ PUSH2 0x1FE JUMPI PUSH2 0x91 JUMP JUMPDEST DUP1 PUSH4 0x4935694 EQ PUSH2 0x96 JUMPI DUP1 PUSH4 0x1F4CC4DB EQ PUSH2 0xB2 JUMPI DUP1 PUSH4 0x2B86AE38 EQ PUSH2 0xDD JUMPI DUP1 PUSH4 0x2F634A90 EQ PUSH2 0x108 JUMPI DUP1 PUSH4 0x4DDF4F8F EQ PUSH2 0x145 JUMPI JUMPDEST PUSH1 0x0 DUP1 REVERT JUMPDEST PUSH2 0xB0 PUSH1 0x4 DUP1 CALLDATASIZE SUB DUP2 ADD SWAP1 PUSH2 0xAB SWAP2 SWAP1 PUSH2 0x1C24 JUMP JUMPDEST PUSH2 0x229 JUMP JUMPDEST STOP JUMPDEST CALLVALUE DUP1 ISZERO PUSH2 0xBE JUMPI PUSH1 0x0 DUP1 REVERT JUMPDEST POP PUSH2 0xC7 PUSH2 0x642 JUMP JUMPDEST PUSH1 0x40 MLOAD PUSH2 0xD4 SWAP2 SWAP1 PUSH2 0x1F54 JUMP JUMPDEST PUSH1 0x40 MLOAD DUP1 SWAP2 SUB SWAP1 RETURN JUMPDEST CALLVALUE DUP1 ISZERO PUSH2 0xE9 JUMPI PUSH1 0x0 DUP1 REVERT JUMPDEST POP PUSH2 0xF2 PUSH2 0x9B1 JUMP JUMPDEST PUSH1 0x40 MLOAD PUSH2 0xFF SWAP2 SWAP1 PUSH2 0x2036 JUMP JUMPDEST PUSH1 0x40 MLOAD DUP1 SWAP2 SUB SWAP1 RETURN JUMPDEST CALLVALUE DUP1 ISZERO PUSH2 0x114 JUMPI PUSH1 0x0 DUP1 REVERT JUMPDEST POP PUSH2 0x12F PUSH1 0x4 DUP1 CALLDATASIZE SUB DUP2 ADD SWAP1 PUSH2 0x12A SWAP2 SWAP1 PUSH2 0x1BE4 JUMP JUMPDEST PUSH2 0x9B7 JUMP JUMPDEST PUSH1 0x40 MLOAD PUSH2 0x13C SWAP2 SWAP1 PUSH2 0x1E94 JUMP JUMPDEST PUSH1 0x40 MLOAD DUP1 SWAP2 SUB SWAP1 RETURN JUMPDEST PUSH2 0x15F PUSH1 0x4 DUP1 CALLDATASIZE SUB DUP2 ADD SWAP1 PUSH2 0x15A SWAP2 SWAP1 PUSH2 0x1BE4 JUMP JUMPDEST PUSH2 0xA4A JUMP JUMPDEST STOP JUMPDEST CALLVALUE DUP1 ISZERO PUSH2 0x16D JUMPI PUSH1 0x0 DUP1 REVERT JUMPDEST POP PUSH2 0x176 PUSH2 0xE33 JUMP JUMPDEST PUSH1 0x40 MLOAD PUSH2 0x183 SWAP2 SWAP1 PUSH2 0x1F54 JUMP JUMPDEST PUSH1 0x40 MLOAD DUP1 SWAP2 SUB SWAP1 RETURN JUMPDEST CALLVALUE DUP1 ISZERO PUSH2 0x198 JUMPI PUSH1 0x0 DUP1 REVERT JUMPDEST POP PUSH2 0x1A1 PUSH2 0x114A JUMP JUMPDEST PUSH1 0x40 MLOAD PUSH2 0x1AE SWAP2 SWAP1 PUSH2 0x1F54 JUMP JUMPDEST PUSH1 0x40 MLOAD DUP1 SWAP2 SUB SWAP1 RETURN JUMPDEST CALLVALUE DUP1 ISZERO PUSH2 0x1C3 JUMPI PUSH1 0x0 DUP1 REVERT JUMPDEST POP PUSH2 0x1CC PUSH2 0x139D JUMP JUMPDEST PUSH1 0x40 MLOAD PUSH2 0x1D9 SWAP2 SWAP1 PUSH2 0x1F54 JUMP JUMPDEST PUSH1 0x40 MLOAD DUP1 SWAP2 SUB SWAP1 RETURN JUMPDEST PUSH2 0x1FC PUSH1 0x4 DUP1 CALLDATASIZE SUB DUP2 ADD SWAP1 PUSH2 0x1F7 SWAP2 SWAP1 PUSH2 0x1C24 JUMP JUMPDEST PUSH2 0x16B4 JUMP JUMPDEST STOP JUMPDEST CALLVALUE DUP1 ISZERO PUSH2 0x20A JUMPI PUSH1 0x0 DUP1 REVERT JUMPDEST POP PUSH2 0x213 PUSH2 0x1A74 JUMP JUMPDEST PUSH1 0x40 MLOAD PUSH2 0x220 SWAP2 SWAP1 PUSH2 0x2036 JUMP JUMPDEST PUSH1 0x40 MLOAD DUP1 SWAP2 SUB SWAP1 RETURN JUMPDEST PUSH1 0x2 PUSH1 0x0 SLOAD EQ ISZERO PUSH2 0x26F JUMPI PUSH1 0x40 MLOAD PUSH32 0x8C379A000000000000000000000000000000000000000000000000000000000 DUP2 MSTORE PUSH1 0x4 ADD PUSH2 0x266 SWAP1 PUSH2 0x1FF6 JUMP JUMPDEST PUSH1 0x40 MLOAD DUP1 SWAP2 SUB SWAP1 REVERT JUMPDEST PUSH1 0x2 PUSH1 0x0 DUP2 SWAP1 SSTORE POP DUP1 PUSH1 0x0 DUP2 GT PUSH2 0x2BB JUMPI PUSH1 0x40 MLOAD PUSH32 0x8C379A000000000000000000000000000000000000000000000000000000000 DUP2 MSTORE PUSH1 0x4 ADD PUSH2 0x2B2 SWAP1 PUSH2 0x2016 JUMP JUMPDEST PUSH1 0x40 MLOAD DUP1 SWAP2 SUB SWAP1 REVERT JUMPDEST PUSH1 0x3 SLOAD CALLVALUE EQ PUSH2 0x2FF JUMPI PUSH1 0x40 MLOAD PUSH32 0x8C379A000000000000000000000000000000000000000000000000000000000 DUP2 MSTORE PUSH1 0x4 ADD PUSH2 0x2F6 SWAP1 PUSH2 0x1FD6 JUMP JUMPDEST PUSH1 0x40 MLOAD DUP1 SWAP2 SUB SWAP1 REVERT JUMPDEST PUSH1 0x0 PUSH1 0x5 PUSH1 0x0 DUP6 DUP2 MSTORE PUSH1 0x20 ADD SWAP1 DUP2 MSTORE PUSH1 0x20 ADD PUSH1 0x0 KECCAK256 PUSH1 0x40 MLOAD DUP1 PUSH1 0xC0 ADD PUSH1 0x40 MSTORE SWAP1 DUP2 PUSH1 0x0 DUP3 ADD SLOAD DUP2 MSTORE PUSH1 0x20 ADD PUSH1 0x1 DUP3 ADD SLOAD DUP2 MSTORE PUSH1 0x20 ADD PUSH1 0x2 DUP3 ADD PUSH1 0x0 SWAP1 SLOAD SWAP1 PUSH2 0x100 EXP SWAP1 DIV PUSH20 0xFFFFFFFFFFFFFFFFFFFFFFFFFFFFFFFFFFFFFFFF AND PUSH20 0xFFFFFFFFFFFFFFFFFFFFFFFFFFFFFFFFFFFFFFFF AND PUSH20 0xFFFFFFFFFFFFFFFFFFFFFFFFFFFFFFFFFFFFFFFF AND DUP2 MSTORE PUSH1 0x20 ADD PUSH1 0x3 DUP3 ADD PUSH1 0x0 SWAP1 SLOAD SWAP1 PUSH2 0x100 EXP SWAP1 DIV PUSH20 0xFFFFFFFFFFFFFFFFFFFFFFFFFFFFFFFFFFFFFFFF AND PUSH20 0xFFFFFFFFFFFFFFFFFFFFFFFFFFFFFFFFFFFFFFFF AND PUSH20 0xFFFFFFFFFFFFFFFFFFFFFFFFFFFFFFFFFFFFFFFF AND DUP2 MSTORE PUSH1 0x20 ADD PUSH1 0x4 DUP3 ADD PUSH1 0x0 SWAP1 SLOAD SWAP1 PUSH2 0x100 EXP SWAP1 DIV PUSH20 0xFFFFFFFFFFFFFFFFFFFFFFFFFFFFFFFFFFFFFFFF AND PUSH20 0xFFFFFFFFFFFFFFFFFFFFFFFFFFFFFFFFFFFFFFFF AND PUSH20 0xFFFFFFFFFFFFFFFFFFFFFFFFFFFFFFFFFFFFFFFF AND DUP2 MSTORE PUSH1 0x20 ADD PUSH1 0x4 DUP3 ADD PUSH1 0x14 SWAP1 SLOAD SWAP1 PUSH2 0x100 EXP SWAP1 DIV PUSH1 0xFF AND ISZERO ISZERO ISZERO ISZERO DUP2 MSTORE POP POP SWAP1 POP PUSH1 0x0 PUSH20 0xFFFFFFFFFFFFFFFFFFFFFFFFFFFFFFFFFFFFFFFF AND DUP2 PUSH1 0x60 ADD MLOAD PUSH20 0xFFFFFFFFFFFFFFFFFFFFFFFFFFFFFFFFFFFFFFFF AND EQ ISZERO PUSH2 0x4C6 JUMPI PUSH1 0x40 MLOAD PUSH32 0x8C379A000000000000000000000000000000000000000000000000000000000 DUP2 MSTORE PUSH1 0x4 ADD PUSH2 0x4BD SWAP1 PUSH2 0x1F76 JUMP JUMPDEST PUSH1 0x40 MLOAD DUP1 SWAP2 SUB SWAP1 REVERT JUMPDEST DUP5 PUSH20 0xFFFFFFFFFFFFFFFFFFFFFFFFFFFFFFFFFFFFFFFF AND PUSH4 0x23B872DD CALLER ADDRESS DUP8 PUSH1 0x40 MLOAD DUP5 PUSH4 0xFFFFFFFF AND PUSH1 0xE0 SHL DUP2 MSTORE PUSH1 0x4 ADD PUSH2 0x503 SWAP4 SWAP3 SWAP2 SWAP1 PUSH2 0x1EE6 JUMP JUMPDEST PUSH1 0x0 PUSH1 0x40 MLOAD DUP1 DUP4 SUB DUP2 PUSH1 0x0 DUP8 DUP1 EXTCODESIZE ISZERO DUP1 ISZERO PUSH2 0x51D JUMPI PUSH1 0x0 DUP1 REVERT JUMPDEST POP GAS CALL ISZERO DUP1 ISZERO PUSH2 0x531 JUMPI RETURNDATASIZE PUSH1 0x0 DUP1 RETURNDATACOPY RETURNDATASIZE PUSH1 0x0 REVERT JUMPDEST POP POP POP POP CALLER DUP2 PUSH1 0x40 ADD SWAP1 PUSH20 0xFFFFFFFFFFFFFFFFFFFFFFFFFFFFFFFFFFFFFFFF AND SWAP1 DUP2 PUSH20 0xFFFFFFFFFFFFFFFFFFFFFFFFFFFFFFFFFFFFFFFF AND DUP2 MSTORE POP POP ADDRESS DUP2 PUSH1 0x60 ADD SWAP1 PUSH20 0xFFFFFFFFFFFFFFFFFFFFFFFFFFFFFFFFFFFFFFFF AND SWAP1 DUP2 PUSH20 0xFFFFFFFFFFFFFFFFFFFFFFFFFFFFFFFFFFFFFFFF AND DUP2 MSTORE POP POP PUSH1 0x1 DUP2 PUSH1 0xA0 ADD SWAP1 ISZERO ISZERO SWAP1 DUP2 ISZERO ISZERO DUP2 MSTORE POP POP DUP3 DUP2 PUSH1 0x20 ADD DUP2 DUP2 MSTORE POP POP PUSH2 0x5CA PUSH1 0x1 PUSH2 0x1A7E JUMP JUMPDEST ADDRESS PUSH20 0xFFFFFFFFFFFFFFFFFFFFFFFFFFFFFFFFFFFFFFFF AND CALLER PUSH20 0xFFFFFFFFFFFFFFFFFFFFFFFFFFFFFFFFFFFFFFFF AND PUSH32 0xA0C6C0D02D86FDACECBAA5FDF5894BAB204E31A778250474108540733A9B8D19 DUP8 DUP8 DUP8 PUSH1 0x40 MLOAD PUSH2 0x62B SWAP4 SWAP3 SWAP2 SWAP1 PUSH2 0x1F1D JUMP JUMPDEST PUSH1 0x40 MLOAD DUP1 SWAP2 SUB SWAP1 LOG3 POP POP PUSH1 0x1 PUSH1 0x0 DUP2 SWAP1 SSTORE POP POP POP POP JUMP JUMPDEST PUSH1 0x60 PUSH1 0x0 PUSH2 0x650 PUSH1 0x2 PUSH2 0x1ADA JUMP JUMPDEST SWAP1 POP PUSH1 0x0 DUP1 PUSH1 0x1 SWAP1 POP JUMPDEST DUP3 DUP2 GT PUSH2 0x719 JUMPI CALLER PUSH20 0xFFFFFFFFFFFFFFFFFFFFFFFFFFFFFFFFFFFFFFFF AND PUSH1 0x5 PUSH1 0x0 DUP4 DUP2 MSTORE PUSH1 0x20 ADD SWAP1 DUP2 MSTORE PUSH1 0x20 ADD PUSH1 0x0 KECCAK256 PUSH1 0x2 ADD PUSH1 0x0 SWAP1 SLOAD SWAP1 PUSH2 0x100 EXP SWAP1 DIV PUSH20 0xFFFFFFFFFFFFFFFFFFFFFFFFFFFFFFFFFFFFFFFF AND PUSH20 0xFFFFFFFFFFFFFFFFFFFFFFFFFFFFFFFFFFFFFFFF AND EQ DUP1 ISZERO PUSH2 0x6F2 JUMPI POP PUSH1 0x5 PUSH1 0x0 DUP3 DUP2 MSTORE PUSH1 0x20 ADD SWAP1 DUP2 MSTORE PUSH1 0x20 ADD PUSH1 0x0 KECCAK256 PUSH1 0x4 ADD PUSH1 0x14 SWAP1 SLOAD SWAP1 PUSH2 0x100 EXP SWAP1 DIV PUSH1 0xFF AND JUMPDEST ISZERO PUSH2 0x706 JUMPI DUP2 DUP1 PUSH2 0x702 SWAP1 PUSH2 0x215F JUMP JUMPDEST SWAP3 POP POP JUMPDEST DUP1 DUP1 PUSH2 0x711 SWAP1 PUSH2 0x215F JUMP JUMPDEST SWAP2 POP POP PUSH2 0x65A JUMP JUMPDEST POP PUSH1 0x0 DUP2 PUSH8 0xFFFFFFFFFFFFFFFF DUP2 GT ISZERO PUSH2 0x736 JUMPI PUSH2 0x735 PUSH2 0x2206 JUMP JUMPDEST JUMPDEST PUSH1 0x40 MLOAD SWAP1 DUP1 DUP3 MSTORE DUP1 PUSH1 0x20 MUL PUSH1 0x20 ADD DUP3 ADD PUSH1 0x40 MSTORE DUP1 ISZERO PUSH2 0x76F JUMPI DUP2 PUSH1 0x20 ADD JUMPDEST PUSH2 0x75C PUSH2 0x1AFE JUMP JUMPDEST DUP2 MSTORE PUSH1 0x20 ADD SWAP1 PUSH1 0x1 SWAP1 SUB SWAP1 DUP2 PUSH2 0x754 JUMPI SWAP1 POP JUMPDEST POP SWAP1 POP PUSH1 0x0 DUP1 PUSH1 0x1 SWAP1 POP JUMPDEST DUP5 DUP2 GT PUSH2 0x9A6 JUMPI CALLER PUSH20 0xFFFFFFFFFFFFFFFFFFFFFFFFFFFFFFFFFFFFFFFF AND PUSH1 0x5 PUSH1 0x0 DUP4 DUP2 MSTORE PUSH1 0x20 ADD SWAP1 DUP2 MSTORE PUSH1 0x20 ADD PUSH1 0x0 KECCAK256 PUSH1 0x2 ADD PUSH1 0x0 SWAP1 SLOAD SWAP1 PUSH2 0x100 EXP SWAP1 DIV PUSH20 0xFFFFFFFFFFFFFFFFFFFFFFFFFFFFFFFFFFFFFFFF AND PUSH20 0xFFFFFFFFFFFFFFFFFFFFFFFFFFFFFFFFFFFFFFFF AND EQ DUP1 ISZERO PUSH2 0x812 JUMPI POP PUSH1 0x5 PUSH1 0x0 DUP3 DUP2 MSTORE PUSH1 0x20 ADD SWAP1 DUP2 MSTORE PUSH1 0x20 ADD PUSH1 0x0 KECCAK256 PUSH1 0x4 ADD PUSH1 0x14 SWAP1 SLOAD SWAP1 PUSH2 0x100 EXP SWAP1 DIV PUSH1 0xFF AND JUMPDEST ISZERO PUSH2 0x993 JUMPI PUSH1 0x5 PUSH1 0x0 DUP3 DUP2 MSTORE PUSH1 0x20 ADD SWAP1 DUP2 MSTORE PUSH1 0x20 ADD PUSH1 0x0 KECCAK256 PUSH1 0x40 MLOAD DUP1 PUSH1 0xC0 ADD PUSH1 0x40 MSTORE SWAP1 DUP2 PUSH1 0x0 DUP3 ADD SLOAD DUP2 MSTORE PUSH1 0x20 ADD PUSH1 0x1 DUP3 ADD SLOAD DUP2 MSTORE PUSH1 0x20 ADD PUSH1 0x2 DUP3 ADD PUSH1 0x0 SWAP1 SLOAD SWAP1 PUSH2 0x100 EXP SWAP1 DIV PUSH20 0xFFFFFFFFFFFFFFFFFFFFFFFFFFFFFFFFFFFFFFFF AND PUSH20 0xFFFFFFFFFFFFFFFFFFFFFFFFFFFFFFFFFFFFFFFF AND PUSH20 0xFFFFFFFFFFFFFFFFFFFFFFFFFFFFFFFFFFFFFFFF AND DUP2 MSTORE PUSH1 0x20 ADD PUSH1 0x3 DUP3 ADD PUSH1 0x0 SWAP1 SLOAD SWAP1 PUSH2 0x100 EXP SWAP1 DIV PUSH20 0xFFFFFFFFFFFFFFFFFFFFFFFFFFFFFFFFFFFFFFFF AND PUSH20 0xFFFFFFFFFFFFFFFFFFFFFFFFFFFFFFFFFFFFFFFF AND PUSH20 0xFFFFFFFFFFFFFFFFFFFFFFFFFFFFFFFFFFFFFFFF AND DUP2 MSTORE PUSH1 0x20 ADD PUSH1 0x4 DUP3 ADD PUSH1 0x0 SWAP1 SLOAD SWAP1 PUSH2 0x100 EXP SWAP1 DIV PUSH20 0xFFFFFFFFFFFFFFFFFFFFFFFFFFFFFFFFFFFFFFFF AND PUSH20 0xFFFFFFFFFFFFFFFFFFFFFFFFFFFFFFFFFFFFFFFF AND PUSH20 0xFFFFFFFFFFFFFFFFFFFFFFFFFFFFFFFFFFFFFFFF AND DUP2 MSTORE PUSH1 0x20 ADD PUSH1 0x4 DUP3 ADD PUSH1 0x14 SWAP1 SLOAD SWAP1 PUSH2 0x100 EXP SWAP1 DIV PUSH1 0xFF AND ISZERO ISZERO ISZERO ISZERO DUP2 MSTORE POP POP DUP4 DUP4 DUP2 MLOAD DUP2 LT PUSH2 0x979 JUMPI PUSH2 0x978 PUSH2 0x21D7 JUMP JUMPDEST JUMPDEST PUSH1 0x20 MUL PUSH1 0x20 ADD ADD DUP2 SWAP1 MSTORE POP DUP2 DUP1 PUSH2 0x98F SWAP1 PUSH2 0x215F JUMP JUMPDEST SWAP3 POP POP JUMPDEST DUP1 DUP1 PUSH2 0x99E SWAP1 PUSH2 0x215F JUMP JUMPDEST SWAP2 POP POP PUSH2 0x77A JUMP JUMPDEST POP DUP2 SWAP5 POP POP POP POP POP SWAP1 JUMP JUMPDEST PUSH1 0x3 SLOAD DUP2 JUMP JUMPDEST PUSH1 0x0 DUP3 PUSH20 0xFFFFFFFFFFFFFFFFFFFFFFFFFFFFFFFFFFFFFFFF AND PUSH4 0x6352211E DUP4 PUSH1 0x40 MLOAD DUP3 PUSH4 0xFFFFFFFF AND PUSH1 0xE0 SHL DUP2 MSTORE PUSH1 0x4 ADD PUSH2 0x9F2 SWAP2 SWAP1 PUSH2 0x2036 JUMP JUMPDEST PUSH1 0x20 PUSH1 0x40 MLOAD DUP1 DUP4 SUB DUP2 DUP7 DUP1 EXTCODESIZE ISZERO DUP1 ISZERO PUSH2 0xA0A JUMPI PUSH1 0x0 DUP1 REVERT JUMPDEST POP GAS STATICCALL ISZERO DUP1 ISZERO PUSH2 0xA1E JUMPI RETURNDATASIZE PUSH1 0x0 DUP1 RETURNDATACOPY RETURNDATASIZE PUSH1 0x0 REVERT JUMPDEST POP POP POP POP PUSH1 0x40 MLOAD RETURNDATASIZE PUSH1 0x1F NOT PUSH1 0x1F DUP3 ADD AND DUP3 ADD DUP1 PUSH1 0x40 MSTORE POP DUP2 ADD SWAP1 PUSH2 0xA42 SWAP2 SWAP1 PUSH2 0x1BB7 JUMP JUMPDEST SWAP1 POP SWAP3 SWAP2 POP POP JUMP JUMPDEST PUSH1 0x2 PUSH1 0x0 SLOAD EQ ISZERO PUSH2 0xA90 JUMPI PUSH1 0x40 MLOAD PUSH32 0x8C379A000000000000000000000000000000000000000000000000000000000 DUP2 MSTORE PUSH1 0x4 ADD PUSH2 0xA87 SWAP1 PUSH2 0x1FF6 JUMP JUMPDEST PUSH1 0x40 MLOAD DUP1 SWAP2 SUB SWAP1 REVERT JUMPDEST PUSH1 0x2 PUSH1 0x0 DUP2 SWAP1 SSTORE POP PUSH1 0x0 PUSH1 0x5 PUSH1 0x0 DUP4 DUP2 MSTORE PUSH1 0x20 ADD SWAP1 DUP2 MSTORE PUSH1 0x20 ADD PUSH1 0x0 KECCAK256 PUSH1 0x40 MLOAD DUP1 PUSH1 0xC0 ADD PUSH1 0x40 MSTORE SWAP1 DUP2 PUSH1 0x0 DUP3 ADD SLOAD DUP2 MSTORE PUSH1 0x20 ADD PUSH1 0x1 DUP3 ADD SLOAD DUP2 MSTORE PUSH1 0x20 ADD PUSH1 0x2 DUP3 ADD PUSH1 0x0 SWAP1 SLOAD SWAP1 PUSH2 0x100 EXP SWAP1 DIV PUSH20 0xFFFFFFFFFFFFFFFFFFFFFFFFFFFFFFFFFFFFFFFF AND PUSH20 0xFFFFFFFFFFFFFFFFFFFFFFFFFFFFFFFFFFFFFFFF AND PUSH20 0xFFFFFFFFFFFFFFFFFFFFFFFFFFFFFFFFFFFFFFFF AND DUP2 MSTORE PUSH1 0x20 ADD PUSH1 0x3 DUP3 ADD PUSH1 0x0 SWAP1 SLOAD SWAP1 PUSH2 0x100 EXP SWAP1 DIV PUSH20 0xFFFFFFFFFFFFFFFFFFFFFFFFFFFFFFFFFFFFFFFF AND PUSH20 0xFFFFFFFFFFFFFFFFFFFFFFFFFFFFFFFFFFFFFFFF AND PUSH20 0xFFFFFFFFFFFFFFFFFFFFFFFFFFFFFFFFFFFFFFFF AND DUP2 MSTORE PUSH1 0x20 ADD PUSH1 0x4 DUP3 ADD PUSH1 0x0 SWAP1 SLOAD SWAP1 PUSH2 0x100 EXP SWAP1 DIV PUSH20 0xFFFFFFFFFFFFFFFFFFFFFFFFFFFFFFFFFFFFFFFF AND PUSH20 0xFFFFFFFFFFFFFFFFFFFFFFFFFFFFFFFFFFFFFFFF AND PUSH20 0xFFFFFFFFFFFFFFFFFFFFFFFFFFFFFFFFFFFFFFFF AND DUP2 MSTORE PUSH1 0x20 ADD PUSH1 0x4 DUP3 ADD PUSH1 0x14 SWAP1 SLOAD SWAP1 PUSH2 0x100 EXP SWAP1 DIV PUSH1 0xFF AND ISZERO ISZERO ISZERO ISZERO DUP2 MSTORE POP POP SWAP1 POP PUSH1 0x0 PUSH20 0xFFFFFFFFFFFFFFFFFFFFFFFFFFFFFFFFFFFFFFFF AND DUP2 PUSH1 0x60 ADD MLOAD PUSH20 0xFFFFFFFFFFFFFFFFFFFFFFFFFFFFFFFFFFFFFFFF AND EQ ISZERO PUSH2 0xC5F JUMPI PUSH1 0x40 MLOAD PUSH32 0x8C379A000000000000000000000000000000000000000000000000000000000 DUP2 MSTORE PUSH1 0x4 ADD PUSH2 0xC56 SWAP1 PUSH2 0x1F76 JUMP JUMPDEST PUSH1 0x40 MLOAD DUP1 SWAP2 SUB SWAP1 REVERT JUMPDEST DUP1 PUSH1 0x20 ADD MLOAD CALLVALUE LT ISZERO PUSH2 0xCA6 JUMPI PUSH1 0x40 MLOAD PUSH32 0x8C379A000000000000000000000000000000000000000000000000000000000 DUP2 MSTORE PUSH1 0x4 ADD PUSH2 0xC9D SWAP1 PUSH2 0x1FB6 JUMP JUMPDEST PUSH1 0x40 MLOAD DUP1 SWAP2 SUB SWAP1 REVERT JUMPDEST PUSH1 0x0 CALLER SWAP1 POP DUP2 PUSH1 0x40 ADD MLOAD PUSH20 0xFFFFFFFFFFFFFFFFFFFFFFFFFFFFFFFFFFFFFFFF AND PUSH2 0x8FC CALLVALUE SWAP1 DUP2 ISZERO MUL SWAP1 PUSH1 0x40 MLOAD PUSH1 0x0 PUSH1 0x40 MLOAD DUP1 DUP4 SUB DUP2 DUP6 DUP9 DUP9 CALL SWAP4 POP POP POP POP ISZERO DUP1 ISZERO PUSH2 0xCF5 JUMPI RETURNDATASIZE PUSH1 0x0 DUP1 RETURNDATACOPY RETURNDATASIZE PUSH1 0x0 REVERT JUMPDEST POP DUP4 PUSH20 0xFFFFFFFFFFFFFFFFFFFFFFFFFFFFFFFFFFFFFFFF AND PUSH4 0x23B872DD ADDRESS DUP4 DUP7 PUSH1 0x40 MLOAD DUP5 PUSH4 0xFFFFFFFF AND PUSH1 0xE0 SHL DUP2 MSTORE PUSH1 0x4 ADD PUSH2 0xD33 SWAP4 SWAP3 SWAP2 SWAP1 PUSH2 0x1EAF JUMP JUMPDEST PUSH1 0x0 PUSH1 0x40 MLOAD DUP1 DUP4 SUB DUP2 PUSH1 0x0 DUP8 DUP1 EXTCODESIZE ISZERO DUP1 ISZERO PUSH2 0xD4D JUMPI PUSH1 0x0 DUP1 REVERT JUMPDEST POP GAS CALL ISZERO DUP1 ISZERO PUSH2 0xD61 JUMPI RETURNDATASIZE PUSH1 0x0 DUP1 RETURNDATACOPY RETURNDATASIZE PUSH1 0x0 REVERT JUMPDEST POP POP POP POP DUP1 DUP3 PUSH1 0x60 ADD SWAP1 PUSH20 0xFFFFFFFFFFFFFFFFFFFFFFFFFFFFFFFFFFFFFFFF AND SWAP1 DUP2 PUSH20 0xFFFFFFFFFFFFFFFFFFFFFFFFFFFFFFFFFFFFFFFF AND DUP2 MSTORE POP POP PUSH1 0x0 DUP3 PUSH1 0xA0 ADD SWAP1 ISZERO ISZERO SWAP1 DUP2 ISZERO ISZERO DUP2 MSTORE POP POP PUSH2 0xDB8 PUSH1 0x1 PUSH2 0x1AE8 JUMP JUMPDEST DUP1 PUSH20 0xFFFFFFFFFFFFFFFFFFFFFFFFFFFFFFFFFFFFFFFF AND DUP3 PUSH1 0x40 ADD MLOAD PUSH20 0xFFFFFFFFFFFFFFFFFFFFFFFFFFFFFFFFFFFFFFFF AND PUSH32 0x16F1DBD97E6BF646D429ED186CCE832F1F7FD9907814293B83181E9970AB7BD2 DUP7 DUP7 CALLVALUE PUSH1 0x40 MLOAD PUSH2 0xE1D SWAP4 SWAP3 SWAP2 SWAP1 PUSH2 0x1F1D JUMP JUMPDEST PUSH1 0x40 MLOAD DUP1 SWAP2 SUB SWAP1 LOG3 POP POP PUSH1 0x1 PUSH1 0x0 DUP2 SWAP1 SSTORE POP POP POP JUMP JUMPDEST PUSH1 0x60 PUSH1 0x0 PUSH2 0xE41 PUSH1 0x2 PUSH2 0x1ADA JUMP JUMPDEST SWAP1 POP PUSH1 0x0 DUP1 PUSH1 0x1 SWAP1 POP JUMPDEST DUP3 DUP2 GT PUSH2 0xEDE JUMPI CALLER PUSH20 0xFFFFFFFFFFFFFFFFFFFFFFFFFFFFFFFFFFFFFFFF AND PUSH1 0x5 PUSH1 0x0 DUP4 DUP2 MSTORE PUSH1 0x20 ADD SWAP1 DUP2 MSTORE PUSH1 0x20 ADD PUSH1 0x0 KECCAK256 PUSH1 0x4 ADD PUSH1 0x0 SWAP1 SLOAD SWAP1 PUSH2 0x100 EXP SWAP1 DIV PUSH20 0xFFFFFFFFFFFFFFFFFFFFFFFFFFFFFFFFFFFFFFFF AND PUSH20 0xFFFFFFFFFFFFFFFFFFFFFFFFFFFFFFFFFFFFFFFF AND EQ ISZERO PUSH2 0xECB JUMPI DUP2 DUP1 PUSH2 0xEC7 SWAP1 PUSH2 0x215F JUMP JUMPDEST SWAP3 POP POP JUMPDEST DUP1 DUP1 PUSH2 0xED6 SWAP1 PUSH2 0x215F JUMP JUMPDEST SWAP2 POP POP PUSH2 0xE4B JUMP JUMPDEST POP PUSH1 0x0 DUP2 PUSH8 0xFFFFFFFFFFFFFFFF DUP2 GT ISZERO PUSH2 0xEFB JUMPI PUSH2 0xEFA PUSH2 0x2206 JUMP JUMPDEST JUMPDEST PUSH1 0x40 MLOAD SWAP1 DUP1 DUP3 MSTORE DUP1 PUSH1 0x20 MUL PUSH1 0x20 ADD DUP3 ADD PUSH1 0x40 MSTORE DUP1 ISZERO PUSH2 0xF34 JUMPI DUP2 PUSH1 0x20 ADD JUMPDEST PUSH2 0xF21 PUSH2 0x1AFE JUMP JUMPDEST DUP2 MSTORE PUSH1 0x20 ADD SWAP1 PUSH1 0x1 SWAP1 SUB SWAP1 DUP2 PUSH2 0xF19 JUMPI SWAP1 POP JUMPDEST POP SWAP1 POP PUSH1 0x0 DUP1 PUSH1 0x1 SWAP1 POP JUMPDEST DUP5 DUP2 GT PUSH2 0x113F JUMPI CALLER PUSH20 0xFFFFFFFFFFFFFFFFFFFFFFFFFFFFFFFFFFFFFFFF AND PUSH1 0x5 PUSH1 0x0 DUP4 DUP2 MSTORE PUSH1 0x20 ADD SWAP1 DUP2 MSTORE PUSH1 0x20 ADD PUSH1 0x0 KECCAK256 PUSH1 0x4 ADD PUSH1 0x0 SWAP1 SLOAD SWAP1 PUSH2 0x100 EXP SWAP1 DIV PUSH20 0xFFFFFFFFFFFFFFFFFFFFFFFFFFFFFFFFFFFFFFFF AND PUSH20 0xFFFFFFFFFFFFFFFFFFFFFFFFFFFFFFFFFFFFFFFF AND EQ ISZERO PUSH2 0x112C JUMPI PUSH1 0x5 PUSH1 0x0 DUP3 DUP2 MSTORE PUSH1 0x20 ADD SWAP1 DUP2 MSTORE PUSH1 0x20 ADD PUSH1 0x0 KECCAK256 PUSH1 0x40 MLOAD DUP1 PUSH1 0xC0 ADD PUSH1 0x40 MSTORE SWAP1 DUP2 PUSH1 0x0 DUP3 ADD SLOAD DUP2 MSTORE PUSH1 0x20 ADD PUSH1 0x1 DUP3 ADD SLOAD DUP2 MSTORE PUSH1 0x20 ADD PUSH1 0x2 DUP3 ADD PUSH1 0x0 SWAP1 SLOAD SWAP1 PUSH2 0x100 EXP SWAP1 DIV PUSH20 0xFFFFFFFFFFFFFFFFFFFFFFFFFFFFFFFFFFFFFFFF AND PUSH20 0xFFFFFFFFFFFFFFFFFFFFFFFFFFFFFFFFFFFFFFFF AND PUSH20 0xFFFFFFFFFFFFFFFFFFFFFFFFFFFFFFFFFFFFFFFF AND DUP2 MSTORE PUSH1 0x20 ADD PUSH1 0x3 DUP3 ADD PUSH1 0x0 SWAP1 SLOAD SWAP1 PUSH2 0x100 EXP SWAP1 DIV PUSH20 0xFFFFFFFFFFFFFFFFFFFFFFFFFFFFFFFFFFFFFFFF AND PUSH20 0xFFFFFFFFFFFFFFFFFFFFFFFFFFFFFFFFFFFFFFFF AND PUSH20 0xFFFFFFFFFFFFFFFFFFFFFFFFFFFFFFFFFFFFFFFF AND DUP2 MSTORE PUSH1 0x20 ADD PUSH1 0x4 DUP3 ADD PUSH1 0x0 SWAP1 SLOAD SWAP1 PUSH2 0x100 EXP SWAP1 DIV PUSH20 0xFFFFFFFFFFFFFFFFFFFFFFFFFFFFFFFFFFFFFFFF AND PUSH20 0xFFFFFFFFFFFFFFFFFFFFFFFFFFFFFFFFFFFFFFFF AND PUSH20 0xFFFFFFFFFFFFFFFFFFFFFFFFFFFFFFFFFFFFFFFF AND DUP2 MSTORE PUSH1 0x20 ADD PUSH1 0x4 DUP3 ADD PUSH1 0x14 SWAP1 SLOAD SWAP1 PUSH2 0x100 EXP SWAP1 DIV PUSH1 0xFF AND ISZERO ISZERO ISZERO ISZERO DUP2 MSTORE POP POP DUP4 DUP4 DUP2 MLOAD DUP2 LT PUSH2 0x1112 JUMPI PUSH2 0x1111 PUSH2 0x21D7 JUMP JUMPDEST JUMPDEST PUSH1 0x20 MUL PUSH1 0x20 ADD ADD DUP2 SWAP1 MSTORE POP DUP2 DUP1 PUSH2 0x1128 SWAP1 PUSH2 0x215F JUMP JUMPDEST SWAP3 POP POP JUMPDEST DUP1 DUP1 PUSH2 0x1137 SWAP1 PUSH2 0x215F JUMP JUMPDEST SWAP2 POP POP PUSH2 0xF3F JUMP JUMPDEST POP DUP2 SWAP5 POP POP POP POP POP SWAP1 JUMP JUMPDEST PUSH1 0x60 PUSH1 0x0 PUSH2 0x1158 PUSH1 0x2 PUSH2 0x1ADA JUMP JUMPDEST SWAP1 POP PUSH1 0x0 PUSH2 0x1166 PUSH1 0x1 PUSH2 0x1ADA JUMP JUMPDEST DUP3 PUSH2 0x1171 SWAP2 SWAP1 PUSH2 0x209B JUMP JUMPDEST SWAP1 POP PUSH1 0x0 DUP2 PUSH8 0xFFFFFFFFFFFFFFFF DUP2 GT ISZERO PUSH2 0x118F JUMPI PUSH2 0x118E PUSH2 0x2206 JUMP JUMPDEST JUMPDEST PUSH1 0x40 MLOAD SWAP1 DUP1 DUP3 MSTORE DUP1 PUSH1 0x20 MUL PUSH1 0x20 ADD DUP3 ADD PUSH1 0x40 MSTORE DUP1 ISZERO PUSH2 0x11C8 JUMPI DUP2 PUSH1 0x20 ADD JUMPDEST PUSH2 0x11B5 PUSH2 0x1AFE JUMP JUMPDEST DUP2 MSTORE PUSH1 0x20 ADD SWAP1 PUSH1 0x1 SWAP1 SUB SWAP1 DUP2 PUSH2 0x11AD JUMPI SWAP1 POP JUMPDEST POP SWAP1 POP PUSH1 0x0 DUP1 PUSH1 0x1 SWAP1 POP JUMPDEST DUP5 DUP2 GT PUSH2 0x1392 JUMPI PUSH1 0x5 PUSH1 0x0 DUP3 DUP2 MSTORE PUSH1 0x20 ADD SWAP1 DUP2 MSTORE PUSH1 0x20 ADD PUSH1 0x0 KECCAK256 PUSH1 0x4 ADD PUSH1 0x14 SWAP1 SLOAD SWAP1 PUSH2 0x100 EXP SWAP1 DIV PUSH1 0xFF AND ISZERO PUSH2 0x137F JUMPI PUSH1 0x5 PUSH1 0x0 DUP3 DUP2 MSTORE PUSH1 0x20 ADD SWAP1 DUP2 MSTORE PUSH1 0x20 ADD PUSH1 0x0 KECCAK256 PUSH1 0x40 MLOAD DUP1 PUSH1 0xC0 ADD PUSH1 0x40 MSTORE SWAP1 DUP2 PUSH1 0x0 DUP3 ADD SLOAD DUP2 MSTORE PUSH1 0x20 ADD PUSH1 0x1 DUP3 ADD SLOAD DUP2 MSTORE PUSH1 0x20 ADD PUSH1 0x2 DUP3 ADD PUSH1 0x0 SWAP1 SLOAD SWAP1 PUSH2 0x100 EXP SWAP1 DIV PUSH20 0xFFFFFFFFFFFFFFFFFFFFFFFFFFFFFFFFFFFFFFFF AND PUSH20 0xFFFFFFFFFFFFFFFFFFFFFFFFFFFFFFFFFFFFFFFF AND PUSH20 0xFFFFFFFFFFFFFFFFFFFFFFFFFFFFFFFFFFFFFFFF AND DUP2 MSTORE PUSH1 0x20 ADD PUSH1 0x3 DUP3 ADD PUSH1 0x0 SWAP1 SLOAD SWAP1 PUSH2 0x100 EXP SWAP1 DIV PUSH20 0xFFFFFFFFFFFFFFFFFFFFFFFFFFFFFFFFFFFFFFFF AND PUSH20 0xFFFFFFFFFFFFFFFFFFFFFFFFFFFFFFFFFFFFFFFF AND PUSH20 0xFFFFFFFFFFFFFFFFFFFFFFFFFFFFFFFFFFFFFFFF AND DUP2 MSTORE PUSH1 0x20 ADD PUSH1 0x4 DUP3 ADD PUSH1 0x0 SWAP1 SLOAD SWAP1 PUSH2 0x100 EXP SWAP1 DIV PUSH20 0xFFFFFFFFFFFFFFFFFFFFFFFFFFFFFFFFFFFFFFFF AND PUSH20 0xFFFFFFFFFFFFFFFFFFFFFFFFFFFFFFFFFFFFFFFF AND PUSH20 0xFFFFFFFFFFFFFFFFFFFFFFFFFFFFFFFFFFFFFFFF AND DUP2 MSTORE PUSH1 0x20 ADD PUSH1 0x4 DUP3 ADD PUSH1 0x14 SWAP1 SLOAD SWAP1 PUSH2 0x100 EXP SWAP1 DIV PUSH1 0xFF AND ISZERO ISZERO ISZERO ISZERO DUP2 MSTORE POP POP DUP4 DUP4 DUP2 MLOAD DUP2 LT PUSH2 0x1365 JUMPI PUSH2 0x1364 PUSH2 0x21D7 JUMP JUMPDEST JUMPDEST PUSH1 0x20 MUL PUSH1 0x20 ADD ADD DUP2 SWAP1 MSTORE POP DUP2 DUP1 PUSH2 0x137B SWAP1 PUSH2 0x215F JUMP JUMPDEST SWAP3 POP POP JUMPDEST DUP1 DUP1 PUSH2 0x138A SWAP1 PUSH2 0x215F JUMP JUMPDEST SWAP2 POP POP PUSH2 0x11D3 JUMP JUMPDEST POP DUP2 SWAP5 POP POP POP POP POP SWAP1 JUMP JUMPDEST PUSH1 0x60 PUSH1 0x0 PUSH2 0x13AB PUSH1 0x2 PUSH2 0x1ADA JUMP JUMPDEST SWAP1 POP PUSH1 0x0 DUP1 PUSH1 0x1 SWAP1 POP JUMPDEST DUP3 DUP2 GT PUSH2 0x1448 JUMPI CALLER PUSH20 0xFFFFFFFFFFFFFFFFFFFFFFFFFFFFFFFFFFFFFFFF AND PUSH1 0x5 PUSH1 0x0 DUP4 DUP2 MSTORE PUSH1 0x20 ADD SWAP1 DUP2 MSTORE PUSH1 0x20 ADD PUSH1 0x0 KECCAK256 PUSH1 0x3 ADD PUSH1 0x0 SWAP1 SLOAD SWAP1 PUSH2 0x100 EXP SWAP1 DIV PUSH20 0xFFFFFFFFFFFFFFFFFFFFFFFFFFFFFFFFFFFFFFFF AND PUSH20 0xFFFFFFFFFFFFFFFFFFFFFFFFFFFFFFFFFFFFFFFF AND EQ ISZERO PUSH2 0x1435 JUMPI DUP2 DUP1 PUSH2 0x1431 SWAP1 PUSH2 0x215F JUMP JUMPDEST SWAP3 POP POP JUMPDEST DUP1 DUP1 PUSH2 0x1440 SWAP1 PUSH2 0x215F JUMP JUMPDEST SWAP2 POP POP PUSH2 0x13B5 JUMP JUMPDEST POP PUSH1 0x0 DUP2 PUSH8 0xFFFFFFFFFFFFFFFF DUP2 GT ISZERO PUSH2 0x1465 JUMPI PUSH2 0x1464 PUSH2 0x2206 JUMP JUMPDEST JUMPDEST PUSH1 0x40 MLOAD SWAP1 DUP1 DUP3 MSTORE DUP1 PUSH1 0x20 MUL PUSH1 0x20 ADD DUP3 ADD PUSH1 0x40 MSTORE DUP1 ISZERO PUSH2 0x149E JUMPI DUP2 PUSH1 0x20 ADD JUMPDEST PUSH2 0x148B PUSH2 0x1AFE JUMP JUMPDEST DUP2 MSTORE PUSH1 0x20 ADD SWAP1 PUSH1 0x1 SWAP1 SUB SWAP1 DUP2 PUSH2 0x1483 JUMPI SWAP1 POP JUMPDEST POP SWAP1 POP PUSH1 0x0 DUP1 PUSH1 0x1 SWAP1 POP JUMPDEST DUP5 DUP2 GT PUSH2 0x16A9 JUMPI CALLER PUSH20 0xFFFFFFFFFFFFFFFFFFFFFFFFFFFFFFFFFFFFFFFF AND PUSH1 0x5 PUSH1 0x0 DUP4 DUP2 MSTORE PUSH1 0x20 ADD SWAP1 DUP2 MSTORE PUSH1 0x20 ADD PUSH1 0x0 KECCAK256 PUSH1 0x3 ADD PUSH1 0x0 SWAP1 SLOAD SWAP1 PUSH2 0x100 EXP SWAP1 DIV PUSH20 0xFFFFFFFFFFFFFFFFFFFFFFFFFFFFFFFFFFFFFFFF AND PUSH20 0xFFFFFFFFFFFFFFFFFFFFFFFFFFFFFFFFFFFFFFFF AND EQ ISZERO PUSH2 0x1696 JUMPI PUSH1 0x5 PUSH1 0x0 DUP3 DUP2 MSTORE PUSH1 0x20 ADD SWAP1 DUP2 MSTORE PUSH1 0x20 ADD PUSH1 0x0 KECCAK256 PUSH1 0x40 MLOAD DUP1 PUSH1 0xC0 ADD PUSH1 0x40 MSTORE SWAP1 DUP2 PUSH1 0x0 DUP3 ADD SLOAD DUP2 MSTORE PUSH1 0x20 ADD PUSH1 0x1 DUP3 ADD SLOAD DUP2 MSTORE PUSH1 0x20 ADD PUSH1 0x2 DUP3 ADD PUSH1 0x0 SWAP1 SLOAD SWAP1 PUSH2 0x100 EXP SWAP1 DIV PUSH20 0xFFFFFFFFFFFFFFFFFFFFFFFFFFFFFFFFFFFFFFFF AND PUSH20 0xFFFFFFFFFFFFFFFFFFFFFFFFFFFFFFFFFFFFFFFF AND PUSH20 0xFFFFFFFFFFFFFFFFFFFFFFFFFFFFFFFFFFFFFFFF AND DUP2 MSTORE PUSH1 0x20 ADD PUSH1 0x3 DUP3 ADD PUSH1 0x0 SWAP1 SLOAD SWAP1 PUSH2 0x100 EXP SWAP1 DIV PUSH20 0xFFFFFFFFFFFFFFFFFFFFFFFFFFFFFFFFFFFFFFFF AND PUSH20 0xFFFFFFFFFFFFFFFFFFFFFFFFFFFFFFFFFFFFFFFF AND PUSH20 0xFFFFFFFFFFFFFFFFFFFFFFFFFFFFFFFFFFFFFFFF AND DUP2 MSTORE PUSH1 0x20 ADD PUSH1 0x4 DUP3 ADD PUSH1 0x0 SWAP1 SLOAD SWAP1 PUSH2 0x100 EXP SWAP1 DIV PUSH20 0xFFFFFFFFFFFFFFFFFFFFFFFFFFFFFFFFFFFFFFFF AND PUSH20 0xFFFFFFFFFFFFFFFFFFFFFFFFFFFFFFFFFFFFFFFF AND PUSH20 0xFFFFFFFFFFFFFFFFFFFFFFFFFFFFFFFFFFFFFFFF AND DUP2 MSTORE PUSH1 0x20 ADD PUSH1 0x4 DUP3 ADD PUSH1 0x14 SWAP1 SLOAD SWAP1 PUSH2 0x100 EXP SWAP1 DIV PUSH1 0xFF AND ISZERO ISZERO ISZERO ISZERO DUP2 MSTORE POP POP DUP4 DUP4 DUP2 MLOAD DUP2 LT PUSH2 0x167C JUMPI PUSH2 0x167B PUSH2 0x21D7 JUMP JUMPDEST JUMPDEST PUSH1 0x20 MUL PUSH1 0x20 ADD ADD DUP2 SWAP1 MSTORE POP DUP2 DUP1 PUSH2 0x1692 SWAP1 PUSH2 0x215F JUMP JUMPDEST SWAP3 POP POP JUMPDEST DUP1 DUP1 PUSH2 0x16A1 SWAP1 PUSH2 0x215F JUMP JUMPDEST SWAP2 POP POP PUSH2 0x14A9 JUMP JUMPDEST POP DUP2 SWAP5 POP POP POP POP POP SWAP1 JUMP JUMPDEST PUSH1 0x2 PUSH1 0x0 SLOAD EQ ISZERO PUSH2 0x16FA JUMPI PUSH1 0x40 MLOAD PUSH32 0x8C379A000000000000000000000000000000000000000000000000000000000 DUP2 MSTORE PUSH1 0x4 ADD PUSH2 0x16F1 SWAP1 PUSH2 0x1FF6 JUMP JUMPDEST PUSH1 0x40 MLOAD DUP1 SWAP2 SUB SWAP1 REVERT JUMPDEST PUSH1 0x2 PUSH1 0x0 DUP2 SWAP1 SSTORE POP DUP1 PUSH1 0x0 DUP2 GT PUSH2 0x1746 JUMPI PUSH1 0x40 MLOAD PUSH32 0x8C379A000000000000000000000000000000000000000000000000000000000 DUP2 MSTORE PUSH1 0x4 ADD PUSH2 0x173D SWAP1 PUSH2 0x2016 JUMP JUMPDEST PUSH1 0x40 MLOAD DUP1 SWAP2 SUB SWAP1 REVERT JUMPDEST PUSH1 0x3 SLOAD CALLVALUE EQ PUSH2 0x178A JUMPI PUSH1 0x40 MLOAD PUSH32 0x8C379A000000000000000000000000000000000000000000000000000000000 DUP2 MSTORE PUSH1 0x4 ADD PUSH2 0x1781 SWAP1 PUSH2 0x1FD6 JUMP JUMPDEST PUSH1 0x40 MLOAD DUP1 SWAP2 SUB SWAP1 REVERT JUMPDEST DUP4 PUSH20 0xFFFFFFFFFFFFFFFFFFFFFFFFFFFFFFFFFFFFFFFF AND PUSH4 0x23B872DD CALLER ADDRESS DUP7 PUSH1 0x40 MLOAD DUP5 PUSH4 0xFFFFFFFF AND PUSH1 0xE0 SHL DUP2 MSTORE PUSH1 0x4 ADD PUSH2 0x17C7 SWAP4 SWAP3 SWAP2 SWAP1 PUSH2 0x1EE6 JUMP JUMPDEST PUSH1 0x0 PUSH1 0x40 MLOAD DUP1 DUP4 SUB DUP2 PUSH1 0x0 DUP8 DUP1 EXTCODESIZE ISZERO DUP1 ISZERO PUSH2 0x17E1 JUMPI PUSH1 0x0 DUP1 REVERT JUMPDEST POP GAS CALL ISZERO DUP1 ISZERO PUSH2 0x17F5 JUMPI RETURNDATASIZE PUSH1 0x0 DUP1 RETURNDATACOPY RETURNDATASIZE PUSH1 0x0 REVERT JUMPDEST POP POP POP POP PUSH1 0x40 MLOAD DUP1 PUSH1 0xC0 ADD PUSH1 0x40 MSTORE DUP1 DUP5 DUP2 MSTORE PUSH1 0x20 ADD DUP4 DUP2 MSTORE PUSH1 0x20 ADD CALLER PUSH20 0xFFFFFFFFFFFFFFFFFFFFFFFFFFFFFFFFFFFFFFFF AND DUP2 MSTORE PUSH1 0x20 ADD ADDRESS PUSH20 0xFFFFFFFFFFFFFFFFFFFFFFFFFFFFFFFFFFFFFFFF AND DUP2 MSTORE PUSH1 0x20 ADD CALLER PUSH20 0xFFFFFFFFFFFFFFFFFFFFFFFFFFFFFFFFFFFFFFFF AND DUP2 MSTORE PUSH1 0x20 ADD PUSH1 0x1 ISZERO ISZERO DUP2 MSTORE POP PUSH1 0x5 PUSH1 0x0 DUP6 DUP2 MSTORE PUSH1 0x20 ADD SWAP1 DUP2 MSTORE PUSH1 0x20 ADD PUSH1 0x0 KECCAK256 PUSH1 0x0 DUP3 ADD MLOAD DUP2 PUSH1 0x0 ADD SSTORE PUSH1 0x20 DUP3 ADD MLOAD DUP2 PUSH1 0x1 ADD SSTORE PUSH1 0x40 DUP3 ADD MLOAD DUP2 PUSH1 0x2 ADD PUSH1 0x0 PUSH2 0x100 EXP DUP2 SLOAD DUP2 PUSH20 0xFFFFFFFFFFFFFFFFFFFFFFFFFFFFFFFFFFFFFFFF MUL NOT AND SWAP1 DUP4 PUSH20 0xFFFFFFFFFFFFFFFFFFFFFFFFFFFFFFFFFFFFFFFF AND MUL OR SWAP1 SSTORE POP PUSH1 0x60 DUP3 ADD MLOAD DUP2 PUSH1 0x3 ADD PUSH1 0x0 PUSH2 0x100 EXP DUP2 SLOAD DUP2 PUSH20 0xFFFFFFFFFFFFFFFFFFFFFFFFFFFFFFFFFFFFFFFF MUL NOT AND SWAP1 DUP4 PUSH20 0xFFFFFFFFFFFFFFFFFFFFFFFFFFFFFFFFFFFFFFFF AND MUL OR SWAP1 SSTORE POP PUSH1 0x80 DUP3 ADD MLOAD DUP2 PUSH1 0x4 ADD PUSH1 0x0 PUSH2 0x100 EXP DUP2 SLOAD DUP2 PUSH20 0xFFFFFFFFFFFFFFFFFFFFFFFFFFFFFFFFFFFFFFFF MUL NOT AND SWAP1 DUP4 PUSH20 0xFFFFFFFFFFFFFFFFFFFFFFFFFFFFFFFFFFFFFFFF AND MUL OR SWAP1 SSTORE POP PUSH1 0xA0 DUP3 ADD MLOAD DUP2 PUSH1 0x4 ADD PUSH1 0x14 PUSH2 0x100 EXP DUP2 SLOAD DUP2 PUSH1 0xFF MUL NOT AND SWAP1 DUP4 ISZERO ISZERO MUL OR SWAP1 SSTORE POP SWAP1 POP POP PUSH2 0x1994 PUSH1 0x2 PUSH2 0x1AE8 JUMP JUMPDEST PUSH1 0x4 PUSH1 0x0 SWAP1 SLOAD SWAP1 PUSH2 0x100 EXP SWAP1 DIV PUSH20 0xFFFFFFFFFFFFFFFFFFFFFFFFFFFFFFFFFFFFFFFF AND PUSH20 0xFFFFFFFFFFFFFFFFFFFFFFFFFFFFFFFFFFFFFFFF AND PUSH2 0x8FC CALLVALUE SWAP1 DUP2 ISZERO MUL SWAP1 PUSH1 0x40 MLOAD PUSH1 0x0 PUSH1 0x40 MLOAD DUP1 DUP4 SUB DUP2 DUP6 DUP9 DUP9 CALL SWAP4 POP POP POP POP ISZERO DUP1 ISZERO PUSH2 0x19FC JUMPI RETURNDATASIZE PUSH1 0x0 DUP1 RETURNDATACOPY RETURNDATASIZE PUSH1 0x0 REVERT JUMPDEST POP ADDRESS PUSH20 0xFFFFFFFFFFFFFFFFFFFFFFFFFFFFFFFFFFFFFFFF AND CALLER PUSH20 0xFFFFFFFFFFFFFFFFFFFFFFFFFFFFFFFFFFFFFFFF AND PUSH32 0xA0C6C0D02D86FDACECBAA5FDF5894BAB204E31A778250474108540733A9B8D19 DUP7 DUP7 DUP7 PUSH1 0x40 MLOAD PUSH2 0x1A5E SWAP4 SWAP3 SWAP2 SWAP1 PUSH2 0x1F1D JUMP JUMPDEST PUSH1 0x40 MLOAD DUP1 SWAP2 SUB SWAP1 LOG3 POP PUSH1 0x1 PUSH1 0x0 DUP2 SWAP1 SSTORE POP POP POP POP JUMP JUMPDEST PUSH1 0x0 PUSH1 0x3 SLOAD SWAP1 POP SWAP1 JUMP JUMPDEST PUSH1 0x0 DUP2 PUSH1 0x0 ADD SLOAD SWAP1 POP PUSH1 0x0 DUP2 GT PUSH2 0x1ACA JUMPI PUSH1 0x40 MLOAD PUSH32 0x8C379A000000000000000000000000000000000000000000000000000000000 DUP2 MSTORE PUSH1 0x4 ADD PUSH2 0x1AC1 SWAP1 PUSH2 0x1F96 JUMP JUMPDEST PUSH1 0x40 MLOAD DUP1 SWAP2 SUB SWAP1 REVERT JUMPDEST PUSH1 0x1 DUP2 SUB DUP3 PUSH1 0x0 ADD DUP2 SWAP1 SSTORE POP POP POP JUMP JUMPDEST PUSH1 0x0 DUP2 PUSH1 0x0 ADD SLOAD SWAP1 POP SWAP2 SWAP1 POP JUMP JUMPDEST PUSH1 0x1 DUP2 PUSH1 0x0 ADD PUSH1 0x0 DUP3 DUP3 SLOAD ADD SWAP3 POP POP DUP2 SWAP1 SSTORE POP POP JUMP JUMPDEST PUSH1 0x40 MLOAD DUP1 PUSH1 0xC0 ADD PUSH1 0x40 MSTORE DUP1 PUSH1 0x0 DUP2 MSTORE PUSH1 0x20 ADD PUSH1 0x0 DUP2 MSTORE PUSH1 0x20 ADD PUSH1 0x0 PUSH20 0xFFFFFFFFFFFFFFFFFFFFFFFFFFFFFFFFFFFFFFFF AND DUP2 MSTORE PUSH1 0x20 ADD PUSH1 0x0 PUSH20 0xFFFFFFFFFFFFFFFFFFFFFFFFFFFFFFFFFFFFFFFF AND DUP2 MSTORE PUSH1 0x20 ADD PUSH1 0x0 PUSH20 0xFFFFFFFFFFFFFFFFFFFFFFFFFFFFFFFFFFFFFFFF AND DUP2 MSTORE PUSH1 0x20 ADD PUSH1 0x0 ISZERO ISZERO DUP2 MSTORE POP SWAP1 JUMP JUMPDEST PUSH1 0x0 DUP2 CALLDATALOAD SWAP1 POP PUSH2 0x1B87 DUP2 PUSH2 0x2356 JUMP JUMPDEST SWAP3 SWAP2 POP POP JUMP JUMPDEST PUSH1 0x0 DUP2 MLOAD SWAP1 POP PUSH2 0x1B9C DUP2 PUSH2 0x2356 JUMP JUMPDEST SWAP3 SWAP2 POP POP JUMP JUMPDEST PUSH1 0x0 DUP2 CALLDATALOAD SWAP1 POP PUSH2 0x1BB1 DUP2 PUSH2 0x236D JUMP JUMPDEST SWAP3 SWAP2 POP POP JUMP JUMPDEST PUSH1 0x0 PUSH1 0x20 DUP3 DUP5 SUB SLT ISZERO PUSH2 0x1BCD JUMPI PUSH2 0x1BCC PUSH2 0x2235 JUMP JUMPDEST JUMPDEST PUSH1 0x0 PUSH2 0x1BDB DUP5 DUP3 DUP6 ADD PUSH2 0x1B8D JUMP JUMPDEST SWAP2 POP POP SWAP3 SWAP2 POP POP JUMP JUMPDEST PUSH1 0x0 DUP1 PUSH1 0x40 DUP4 DUP6 SUB SLT ISZERO PUSH2 0x1BFB JUMPI PUSH2 0x1BFA PUSH2 0x2235 JUMP JUMPDEST JUMPDEST PUSH1 0x0 PUSH2 0x1C09 DUP6 DUP3 DUP7 ADD PUSH2 0x1B78 JUMP JUMPDEST SWAP3 POP POP PUSH1 0x20 PUSH2 0x1C1A DUP6 DUP3 DUP7 ADD PUSH2 0x1BA2 JUMP JUMPDEST SWAP2 POP POP SWAP3 POP SWAP3 SWAP1 POP JUMP JUMPDEST PUSH1 0x0 DUP1 PUSH1 0x0 PUSH1 0x60 DUP5 DUP7 SUB SLT ISZERO PUSH2 0x1C3D JUMPI PUSH2 0x1C3C PUSH2 0x2235 JUMP JUMPDEST JUMPDEST PUSH1 0x0 PUSH2 0x1C4B DUP7 DUP3 DUP8 ADD PUSH2 0x1B78 JUMP JUMPDEST SWAP4 POP POP PUSH1 0x20 PUSH2 0x1C5C DUP7 DUP3 DUP8 ADD PUSH2 0x1BA2 JUMP JUMPDEST SWAP3 POP POP PUSH1 0x40 PUSH2 0x1C6D DUP7 DUP3 DUP8 ADD PUSH2 0x1BA2 JUMP JUMPDEST SWAP2 POP POP SWAP3 POP SWAP3 POP SWAP3 JUMP JUMPDEST PUSH1 0x0 PUSH2 0x1C83 DUP4 DUP4 PUSH2 0x1DFB JUMP JUMPDEST PUSH1 0xC0 DUP4 ADD SWAP1 POP SWAP3 SWAP2 POP POP JUMP JUMPDEST PUSH2 0x1C98 DUP2 PUSH2 0x2129 JUMP JUMPDEST DUP3 MSTORE POP POP JUMP JUMPDEST PUSH2 0x1CA7 DUP2 PUSH2 0x20E1 JUMP JUMPDEST DUP3 MSTORE POP POP JUMP JUMPDEST PUSH2 0x1CB6 DUP2 PUSH2 0x20CF JUMP JUMPDEST DUP3 MSTORE POP POP JUMP JUMPDEST PUSH1 0x0 PUSH2 0x1CC7 DUP3 PUSH2 0x2061 JUMP JUMPDEST PUSH2 0x1CD1 DUP2 DUP6 PUSH2 0x2079 JUMP JUMPDEST SWAP4 POP PUSH2 0x1CDC DUP4 PUSH2 0x2051 JUMP JUMPDEST DUP1 PUSH1 0x0 JUMPDEST DUP4 DUP2 LT ISZERO PUSH2 0x1D0D JUMPI DUP2 MLOAD PUSH2 0x1CF4 DUP9 DUP3 PUSH2 0x1C77 JUMP JUMPDEST SWAP8 POP PUSH2 0x1CFF DUP4 PUSH2 0x206C JUMP JUMPDEST SWAP3 POP POP PUSH1 0x1 DUP2 ADD SWAP1 POP PUSH2 0x1CE0 JUMP JUMPDEST POP DUP6 SWAP4 POP POP POP POP SWAP3 SWAP2 POP POP JUMP JUMPDEST PUSH2 0x1D23 DUP2 PUSH2 0x20F3 JUMP JUMPDEST DUP3 MSTORE POP POP JUMP JUMPDEST PUSH1 0x0 PUSH2 0x1D36 PUSH1 0xD DUP4 PUSH2 0x208A JUMP JUMPDEST SWAP2 POP PUSH2 0x1D41 DUP3 PUSH2 0x223A JUMP JUMPDEST PUSH1 0x20 DUP3 ADD SWAP1 POP SWAP2 SWAP1 POP JUMP JUMPDEST PUSH1 0x0 PUSH2 0x1D59 PUSH1 0x1B DUP4 PUSH2 0x208A JUMP JUMPDEST SWAP2 POP PUSH2 0x1D64 DUP3 PUSH2 0x2263 JUMP JUMPDEST PUSH1 0x20 DUP3 ADD SWAP1 POP SWAP2 SWAP1 POP JUMP JUMPDEST PUSH1 0x0 PUSH2 0x1D7C PUSH1 0x26 DUP4 PUSH2 0x208A JUMP JUMPDEST SWAP2 POP PUSH2 0x1D87 DUP3 PUSH2 0x228C JUMP JUMPDEST PUSH1 0x40 DUP3 ADD SWAP1 POP SWAP2 SWAP1 POP JUMP JUMPDEST PUSH1 0x0 PUSH2 0x1D9F PUSH1 0x20 DUP4 PUSH2 0x208A JUMP JUMPDEST SWAP2 POP PUSH2 0x1DAA DUP3 PUSH2 0x22DB JUMP JUMPDEST PUSH1 0x20 DUP3 ADD SWAP1 POP SWAP2 SWAP1 POP JUMP JUMPDEST PUSH1 0x0 PUSH2 0x1DC2 PUSH1 0x1F DUP4 PUSH2 0x208A JUMP JUMPDEST SWAP2 POP PUSH2 0x1DCD DUP3 PUSH2 0x2304 JUMP JUMPDEST PUSH1 0x20 DUP3 ADD SWAP1 POP SWAP2 SWAP1 POP JUMP JUMPDEST PUSH1 0x0 PUSH2 0x1DE5 PUSH1 0x1C DUP4 PUSH2 0x208A JUMP JUMPDEST SWAP2 POP PUSH2 0x1DF0 DUP3 PUSH2 0x232D JUMP JUMPDEST PUSH1 0x20 DUP3 ADD SWAP1 POP SWAP2 SWAP1 POP JUMP JUMPDEST PUSH1 0xC0 DUP3 ADD PUSH1 0x0 DUP3 ADD MLOAD PUSH2 0x1E11 PUSH1 0x0 DUP6 ADD DUP3 PUSH2 0x1E76 JUMP JUMPDEST POP PUSH1 0x20 DUP3 ADD MLOAD PUSH2 0x1E24 PUSH1 0x20 DUP6 ADD DUP3 PUSH2 0x1E76 JUMP JUMPDEST POP PUSH1 0x40 DUP3 ADD MLOAD PUSH2 0x1E37 PUSH1 0x40 DUP6 ADD DUP3 PUSH2 0x1C9E JUMP JUMPDEST POP PUSH1 0x60 DUP3 ADD MLOAD PUSH2 0x1E4A PUSH1 0x60 DUP6 ADD DUP3 PUSH2 0x1C9E JUMP JUMPDEST POP PUSH1 0x80 DUP3 ADD MLOAD PUSH2 0x1E5D PUSH1 0x80 DUP6 ADD DUP3 PUSH2 0x1C9E JUMP JUMPDEST POP PUSH1 0xA0 DUP3 ADD MLOAD PUSH2 0x1E70 PUSH1 0xA0 DUP6 ADD DUP3 PUSH2 0x1D1A JUMP JUMPDEST POP POP POP POP JUMP JUMPDEST PUSH2 0x1E7F DUP2 PUSH2 0x211F JUMP JUMPDEST DUP3 MSTORE POP POP JUMP JUMPDEST PUSH2 0x1E8E DUP2 PUSH2 0x211F JUMP JUMPDEST DUP3 MSTORE POP POP JUMP JUMPDEST PUSH1 0x0 PUSH1 0x20 DUP3 ADD SWAP1 POP PUSH2 0x1EA9 PUSH1 0x0 DUP4 ADD DUP5 PUSH2 0x1CAD JUMP JUMPDEST SWAP3 SWAP2 POP POP JUMP JUMPDEST PUSH1 0x0 PUSH1 0x60 DUP3 ADD SWAP1 POP PUSH2 0x1EC4 PUSH1 0x0 DUP4 ADD DUP7 PUSH2 0x1CAD JUMP JUMPDEST PUSH2 0x1ED1 PUSH1 0x20 DUP4 ADD DUP6 PUSH2 0x1C8F JUMP JUMPDEST PUSH2 0x1EDE PUSH1 0x40 DUP4 ADD DUP5 PUSH2 0x1E85 JUMP JUMPDEST SWAP5 SWAP4 POP POP POP POP JUMP JUMPDEST PUSH1 0x0 PUSH1 0x60 DUP3 ADD SWAP1 POP PUSH2 0x1EFB PUSH1 0x0 DUP4 ADD DUP7 PUSH2 0x1CAD JUMP JUMPDEST PUSH2 0x1F08 PUSH1 0x20 DUP4 ADD DUP6 PUSH2 0x1CAD JUMP JUMPDEST PUSH2 0x1F15 PUSH1 0x40 DUP4 ADD DUP5 PUSH2 0x1E85 JUMP JUMPDEST SWAP5 SWAP4 POP POP POP POP JUMP JUMPDEST PUSH1 0x0 PUSH1 0x60 DUP3 ADD SWAP1 POP PUSH2 0x1F32 PUSH1 0x0 DUP4 ADD DUP7 PUSH2 0x1CAD JUMP JUMPDEST PUSH2 0x1F3F PUSH1 0x20 DUP4 ADD DUP6 PUSH2 0x1E85 JUMP JUMPDEST PUSH2 0x1F4C PUSH1 0x40 DUP4 ADD DUP5 PUSH2 0x1E85 JUMP JUMPDEST SWAP5 SWAP4 POP POP POP POP JUMP JUMPDEST PUSH1 0x0 PUSH1 0x20 DUP3 ADD SWAP1 POP DUP2 DUP2 SUB PUSH1 0x0 DUP4 ADD MSTORE PUSH2 0x1F6E DUP2 DUP5 PUSH2 0x1CBC JUMP JUMPDEST SWAP1 POP SWAP3 SWAP2 POP POP JUMP JUMPDEST PUSH1 0x0 PUSH1 0x20 DUP3 ADD SWAP1 POP DUP2 DUP2 SUB PUSH1 0x0 DUP4 ADD MSTORE PUSH2 0x1F8F DUP2 PUSH2 0x1D29 JUMP JUMPDEST SWAP1 POP SWAP2 SWAP1 POP JUMP JUMPDEST PUSH1 0x0 PUSH1 0x20 DUP3 ADD SWAP1 POP DUP2 DUP2 SUB PUSH1 0x0 DUP4 ADD MSTORE PUSH2 0x1FAF DUP2 PUSH2 0x1D4C JUMP JUMPDEST SWAP1 POP SWAP2 SWAP1 POP JUMP JUMPDEST PUSH1 0x0 PUSH1 0x20 DUP3 ADD SWAP1 POP DUP2 DUP2 SUB PUSH1 0x0 DUP4 ADD MSTORE PUSH2 0x1FCF DUP2 PUSH2 0x1D6F JUMP JUMPDEST SWAP1 POP SWAP2 SWAP1 POP JUMP JUMPDEST PUSH1 0x0 PUSH1 0x20 DUP3 ADD SWAP1 POP DUP2 DUP2 SUB PUSH1 0x0 DUP4 ADD MSTORE PUSH2 0x1FEF DUP2 PUSH2 0x1D92 JUMP JUMPDEST SWAP1 POP SWAP2 SWAP1 POP JUMP JUMPDEST PUSH1 0x0 PUSH1 0x20 DUP3 ADD SWAP1 POP DUP2 DUP2 SUB PUSH1 0x0 DUP4 ADD MSTORE PUSH2 0x200F DUP2 PUSH2 0x1DB5 JUMP JUMPDEST SWAP1 POP SWAP2 SWAP1 POP JUMP JUMPDEST PUSH1 0x0 PUSH1 0x20 DUP3 ADD SWAP1 POP DUP2 DUP2 SUB PUSH1 0x0 DUP4 ADD MSTORE PUSH2 0x202F DUP2 PUSH2 0x1DD8 JUMP JUMPDEST SWAP1 POP SWAP2 SWAP1 POP JUMP JUMPDEST PUSH1 0x0 PUSH1 0x20 DUP3 ADD SWAP1 POP PUSH2 0x204B PUSH1 0x0 DUP4 ADD DUP5 PUSH2 0x1E85 JUMP JUMPDEST SWAP3 SWAP2 POP POP JUMP JUMPDEST PUSH1 0x0 DUP2 SWAP1 POP PUSH1 0x20 DUP3 ADD SWAP1 POP SWAP2 SWAP1 POP JUMP JUMPDEST PUSH1 0x0 DUP2 MLOAD SWAP1 POP SWAP2 SWAP1 POP JUMP JUMPDEST PUSH1 0x0 PUSH1 0x20 DUP3 ADD SWAP1 POP SWAP2 SWAP1 POP JUMP JUMPDEST PUSH1 0x0 DUP3 DUP3 MSTORE PUSH1 0x20 DUP3 ADD SWAP1 POP SWAP3 SWAP2 POP POP JUMP JUMPDEST PUSH1 0x0 DUP3 DUP3 MSTORE PUSH1 0x20 DUP3 ADD SWAP1 POP SWAP3 SWAP2 POP POP JUMP JUMPDEST PUSH1 0x0 PUSH2 0x20A6 DUP3 PUSH2 0x211F JUMP JUMPDEST SWAP2 POP PUSH2 0x20B1 DUP4 PUSH2 0x211F JUMP JUMPDEST SWAP3 POP DUP3 DUP3 LT ISZERO PUSH2 0x20C4 JUMPI PUSH2 0x20C3 PUSH2 0x21A8 JUMP JUMPDEST JUMPDEST DUP3 DUP3 SUB SWAP1 POP SWAP3 SWAP2 POP POP JUMP JUMPDEST PUSH1 0x0 PUSH2 0x20DA DUP3 PUSH2 0x20FF JUMP JUMPDEST SWAP1 POP SWAP2 SWAP1 POP JUMP JUMPDEST PUSH1 0x0 PUSH2 0x20EC DUP3 PUSH2 0x20FF JUMP JUMPDEST SWAP1 POP SWAP2 SWAP1 POP JUMP JUMPDEST PUSH1 0x0 DUP2 ISZERO ISZERO SWAP1 POP SWAP2 SWAP1 POP JUMP JUMPDEST PUSH1 0x0 PUSH20 0xFFFFFFFFFFFFFFFFFFFFFFFFFFFFFFFFFFFFFFFF DUP3 AND SWAP1 POP SWAP2 SWAP1 POP JUMP JUMPDEST PUSH1 0x0 DUP2 SWAP1 POP SWAP2 SWAP1 POP JUMP JUMPDEST PUSH1 0x0 PUSH2 0x2134 DUP3 PUSH2 0x213B JUMP JUMPDEST SWAP1 POP SWAP2 SWAP1 POP JUMP JUMPDEST PUSH1 0x0 PUSH2 0x2146 DUP3 PUSH2 0x214D JUMP JUMPDEST SWAP1 POP SWAP2 SWAP1 POP JUMP JUMPDEST PUSH1 0x0 PUSH2 0x2158 DUP3 PUSH2 0x20FF JUMP JUMPDEST SWAP1 POP SWAP2 SWAP1 POP JUMP JUMPDEST PUSH1 0x0 PUSH2 0x216A DUP3 PUSH2 0x211F JUMP JUMPDEST SWAP2 POP PUSH32 0xFFFFFFFFFFFFFFFFFFFFFFFFFFFFFFFFFFFFFFFFFFFFFFFFFFFFFFFFFFFFFFFF DUP3 EQ ISZERO PUSH2 0x219D JUMPI PUSH2 0x219C PUSH2 0x21A8 JUMP JUMPDEST JUMPDEST PUSH1 0x1 DUP3 ADD SWAP1 POP SWAP2 SWAP1 POP JUMP JUMPDEST PUSH32 0x4E487B7100000000000000000000000000000000000000000000000000000000 PUSH1 0x0 MSTORE PUSH1 0x11 PUSH1 0x4 MSTORE PUSH1 0x24 PUSH1 0x0 REVERT JUMPDEST PUSH32 0x4E487B7100000000000000000000000000000000000000000000000000000000 PUSH1 0x0 MSTORE PUSH1 0x32 PUSH1 0x4 MSTORE PUSH1 0x24 PUSH1 0x0 REVERT JUMPDEST PUSH32 0x4E487B7100000000000000000000000000000000000000000000000000000000 PUSH1 0x0 MSTORE PUSH1 0x41 PUSH1 0x4 MSTORE PUSH1 0x24 PUSH1 0x0 REVERT JUMPDEST PUSH1 0x0 DUP1 REVERT JUMPDEST PUSH32 0x4E4654206E6F7420666F756E6400000000000000000000000000000000000000 PUSH1 0x0 DUP3 ADD MSTORE POP JUMP JUMPDEST PUSH32 0x436F756E7465723A2064656372656D656E74206F766572666C6F770000000000 PUSH1 0x0 DUP3 ADD MSTORE POP JUMP JUMPDEST PUSH32 0x4E6F7420656E6F75676820657468657220746F20636F7665722061736B696E67 PUSH1 0x0 DUP3 ADD MSTORE PUSH32 0x2070726963650000000000000000000000000000000000000000000000000000 PUSH1 0x20 DUP3 ADD MSTORE POP JUMP JUMPDEST PUSH32 0x4E6F7420656E6F75676820657468657220666F72206C697374696E6720666565 PUSH1 0x0 DUP3 ADD MSTORE POP JUMP JUMPDEST PUSH32 0x5265656E7472616E637947756172643A207265656E7472616E742063616C6C00 PUSH1 0x0 DUP3 ADD MSTORE POP JUMP JUMPDEST PUSH32 0x5072696365206D757374206265206174206C6561737420312077656900000000 PUSH1 0x0 DUP3 ADD MSTORE POP JUMP JUMPDEST PUSH2 0x235F DUP2 PUSH2 0x20CF JUMP JUMPDEST DUP2 EQ PUSH2 0x236A JUMPI PUSH1 0x0 DUP1 REVERT JUMPDEST POP JUMP JUMPDEST PUSH2 0x2376 DUP2 PUSH2 0x211F JUMP JUMPDEST DUP2 EQ PUSH2 0x2381 JUMPI PUSH1 0x0 DUP1 REVERT JUMPDEST POP JUMP INVALID LOG2 PUSH5 0x6970667358 0x22 SLT KECCAK256 LOG2 0xD5 0x5E CREATE2 EQ SWAP3 0xF6 0xCF 0x4E 0x49 PC 0x2E SWAP13 MSIZE DUP8 0x23 0x2F 0xD7 PUSH7 0x6103F21BDA1DD4 0xEC 0xC8 0xE5 0xD3 DUP12 SWAP10 PUSH5 0x736F6C6343 STOP ADDMOD SMOD STOP CALLER "
				},
				"gasEstimates": {
					"creation": {
						"codeDepositCost": "1829200",
						"executionCost": "70412",
						"totalCost": "1899612"
					},
					"external": {
						"LISTING_FEE()": "2474",
						"buyNft(address,uint256)": "infinite",
						"getListedNfts()": "infinite",
						"getListingFee()": "2525",
						"getMyCreatedNfts()": "infinite",
						"getMyListedNfts()": "infinite",
						"getMyOwnedNfts()": "infinite",
						"getOwner(address,uint256)": "infinite",
						"listNFT(address,uint256,uint256)": "infinite",
						"resellNFT(address,uint256,uint256)": "infinite"
					}
				},
				"methodIdentifiers": {
					"LISTING_FEE()": "2b86ae38",
					"buyNft(address,uint256)": "4ddf4f8f",
					"getListedNfts()": "8d6cb3fb",
					"getListingFee()": "b8fe6abe",
					"getMyCreatedNfts()": "8492095a",
					"getMyListedNfts()": "1f4cc4db",
					"getMyOwnedNfts()": "a46b5c5a",
					"getOwner(address,uint256)": "2f634a90",
					"listNFT(address,uint256,uint256)": "ad05f1b4",
					"resellNFT(address,uint256,uint256)": "04935694"
				}
			},
			"storageLayout": {
				"storage": [
					{
						"astId": 854,
						"contract": "contracts/GeekNftMarketPlace.sol:GeekNftMarketPlace",
						"label": "_status",
						"offset": 0,
						"slot": "0",
						"type": "t_uint256"
					},
					{
						"astId": 103,
						"contract": "contracts/GeekNftMarketPlace.sol:GeekNftMarketPlace",
						"label": "_nftsSold",
						"offset": 0,
						"slot": "1",
						"type": "t_struct(Counter)5_storage"
					},
					{
						"astId": 106,
						"contract": "contracts/GeekNftMarketPlace.sol:GeekNftMarketPlace",
						"label": "_nftsCount",
						"offset": 0,
						"slot": "2",
						"type": "t_struct(Counter)5_storage"
					},
					{
						"astId": 109,
						"contract": "contracts/GeekNftMarketPlace.sol:GeekNftMarketPlace",
						"label": "LISTING_FEE",
						"offset": 0,
						"slot": "3",
						"type": "t_uint256"
					},
					{
						"astId": 111,
						"contract": "contracts/GeekNftMarketPlace.sol:GeekNftMarketPlace",
						"label": "_marketOwwner",
						"offset": 0,
						"slot": "4",
						"type": "t_address_payable"
					},
					{
						"astId": 116,
						"contract": "contracts/GeekNftMarketPlace.sol:GeekNftMarketPlace",
						"label": "_idToNFT",
						"offset": 0,
						"slot": "5",
						"type": "t_mapping(t_uint256,t_struct(NFT)129_storage)"
					}
				],
				"types": {
					"t_address_payable": {
						"encoding": "inplace",
						"label": "address payable",
						"numberOfBytes": "20"
					},
					"t_bool": {
						"encoding": "inplace",
						"label": "bool",
						"numberOfBytes": "1"
					},
					"t_mapping(t_uint256,t_struct(NFT)129_storage)": {
						"encoding": "mapping",
						"key": "t_uint256",
						"label": "mapping(uint256 => struct GeekNftMarketPlace.NFT)",
						"numberOfBytes": "32",
						"value": "t_struct(NFT)129_storage"
					},
					"t_struct(Counter)5_storage": {
						"encoding": "inplace",
						"label": "struct Counters.Counter",
						"members": [
							{
								"astId": 4,
								"contract": "contracts/GeekNftMarketPlace.sol:GeekNftMarketPlace",
								"label": "_value",
								"offset": 0,
								"slot": "0",
								"type": "t_uint256"
							}
						],
						"numberOfBytes": "32"
					},
					"t_struct(NFT)129_storage": {
						"encoding": "inplace",
						"label": "struct GeekNftMarketPlace.NFT",
						"members": [
							{
								"astId": 118,
								"contract": "contracts/GeekNftMarketPlace.sol:GeekNftMarketPlace",
								"label": "tokenId",
								"offset": 0,
								"slot": "0",
								"type": "t_uint256"
							},
							{
								"astId": 120,
								"contract": "contracts/GeekNftMarketPlace.sol:GeekNftMarketPlace",
								"label": "price",
								"offset": 0,
								"slot": "1",
								"type": "t_uint256"
							},
							{
								"astId": 122,
								"contract": "contracts/GeekNftMarketPlace.sol:GeekNftMarketPlace",
								"label": "seller",
								"offset": 0,
								"slot": "2",
								"type": "t_address_payable"
							},
							{
								"astId": 124,
								"contract": "contracts/GeekNftMarketPlace.sol:GeekNftMarketPlace",
								"label": "owner",
								"offset": 0,
								"slot": "3",
								"type": "t_address_payable"
							},
							{
								"astId": 126,
								"contract": "contracts/GeekNftMarketPlace.sol:GeekNftMarketPlace",
								"label": "creator",
								"offset": 0,
								"slot": "4",
								"type": "t_address_payable"
							},
							{
								"astId": 128,
								"contract": "contracts/GeekNftMarketPlace.sol:GeekNftMarketPlace",
								"label": "listed",
								"offset": 20,
								"slot": "4",
								"type": "t_bool"
							}
						],
						"numberOfBytes": "160"
					},
					"t_uint256": {
						"encoding": "inplace",
						"label": "uint256",
						"numberOfBytes": "32"
					}
				}
			},
			"userdoc": {
				"kind": "user",
				"methods": {},
				"version": 1
			}
		}
	}
}